{"contracts/ClockTowerLibrary.sol":{"ClockTowerLibrary":{"abi":[{"inputs":[{"internalType":"uint256","name":"unix","type":"uint256"}],"name":"unixToDays","outputs":[{"internalType":"uint16","name":"yearDays","type":"uint16"},{"internalType":"uint16","name":"day","type":"uint16"}],"stateMutability":"pure","type":"function"}],"evm":{"bytecode":{"linkReferences":{},"object":"6104fe61003a600b82828239805160001a60731461002d57634e487b7160e01b600052600060045260246000fd5b30600052607381538281f3fe73000000000000000000000000000000000000000030146080604052600436106100355760003560e01c806393bc84131461003a575b600080fd5b61004d6100483660046102f5565b61006c565b6040805161ffff93841681529290911660208301520160405180910390f35b6000808061007d620151808561033a565b905080600061008f8262010bd961034e565b61009c9062253d8c61034e565b9050600062023ab16100af83600461038f565b6100b99190610414565b905060046100ca8262023ab161038f565b6100d590600361034e565b6100df9190610414565b6100e99083610442565b9150600062164b096100fc84600161034e565b61010890610fa061038f565b6101129190610414565b90506004610122826105b561038f565b61012c9190610414565b6101369084610442565b61014190601f61034e565b9250600061098f61015385605061038f565b61015d9190610414565b90506000605061016f8361098f61038f565b6101799190610414565b6101839086610442565b9050610190600b83610414565b945061019d85600c61038f565b6101a883600261034e565b6101b29190610442565b915084836101c1603187610442565b6101cc90606461038f565b6101d6919061034e565b6101e0919061034e565b909750915086828282600060015b83811161021d576101ff8585610231565b6102099083610481565b91508061021581610499565b9150506101ee565b50809c505050505050505050505050915091565b600081600114806102425750816003145b8061024d5750816005145b806102585750816007145b806102635750816008145b8061026e575081600a145b80610279575081600c145b156102865750601f6102b3565b816002146102965750601e6102b3565b61029f836102b9565b6102aa57601c6102ad565b601d5b60ff1690505b92915050565b60006102c66004836104b4565b1580156102dc57506102d96064836104b4565b15155b806102b357506102ee610190836104b4565b1592915050565b60006020828403121561030757600080fd5b5035919050565b634e487b7160e01b600052601260045260246000fd5b634e487b7160e01b600052601160045260246000fd5b6000826103495761034961030e565b500490565b600080821280156001600160ff1b038490038513161561037057610370610324565b600160ff1b839003841281161561038957610389610324565b50500190565b60006001600160ff1b03818413828413808216868404861116156103b5576103b5610324565b600160ff1b60008712828116878305891216156103d4576103d4610324565b600087129250878205871284841616156103f0576103f0610324565b8785058712818416161561040657610406610324565b505050929093029392505050565b6000826104235761042361030e565b600160ff1b82146000198414161561043d5761043d610324565b500590565b60008083128015600160ff1b85018412161561046057610460610324565b6001600160ff1b038401831381161561047b5761047b610324565b50500390565b6000821982111561049457610494610324565b500190565b60006000198214156104ad576104ad610324565b5060010190565b6000826104c3576104c361030e565b50069056fea2646970667358221220d83c1fa6387cb7eb7005333b670751088f7db628cae3978a0f43f43d46c1406564736f6c63430008090033","opcodes":"PUSH2 0x4FE PUSH2 0x3A PUSH1 0xB DUP3 DUP3 DUP3 CODECOPY DUP1 MLOAD PUSH1 0x0 BYTE PUSH1 0x73 EQ PUSH2 0x2D JUMPI PUSH4 0x4E487B71 PUSH1 0xE0 SHL PUSH1 0x0 MSTORE PUSH1 0x0 PUSH1 0x4 MSTORE PUSH1 0x24 PUSH1 0x0 REVERT JUMPDEST ADDRESS PUSH1 0x0 MSTORE PUSH1 0x73 DUP2 MSTORE8 DUP3 DUP2 RETURN INVALID PUSH20 0x0 ADDRESS EQ PUSH1 0x80 PUSH1 0x40 MSTORE PUSH1 0x4 CALLDATASIZE LT PUSH2 0x35 JUMPI PUSH1 0x0 CALLDATALOAD PUSH1 0xE0 SHR DUP1 PUSH4 0x93BC8413 EQ PUSH2 0x3A JUMPI JUMPDEST PUSH1 0x0 DUP1 REVERT JUMPDEST PUSH2 0x4D PUSH2 0x48 CALLDATASIZE PUSH1 0x4 PUSH2 0x2F5 JUMP JUMPDEST PUSH2 0x6C JUMP JUMPDEST PUSH1 0x40 DUP1 MLOAD PUSH2 0xFFFF SWAP4 DUP5 AND DUP2 MSTORE SWAP3 SWAP1 SWAP2 AND PUSH1 0x20 DUP4 ADD MSTORE ADD PUSH1 0x40 MLOAD DUP1 SWAP2 SUB SWAP1 RETURN JUMPDEST PUSH1 0x0 DUP1 DUP1 PUSH2 0x7D PUSH3 0x15180 DUP6 PUSH2 0x33A JUMP JUMPDEST SWAP1 POP DUP1 PUSH1 0x0 PUSH2 0x8F DUP3 PUSH3 0x10BD9 PUSH2 0x34E JUMP JUMPDEST PUSH2 0x9C SWAP1 PUSH3 0x253D8C PUSH2 0x34E JUMP JUMPDEST SWAP1 POP PUSH1 0x0 PUSH3 0x23AB1 PUSH2 0xAF DUP4 PUSH1 0x4 PUSH2 0x38F JUMP JUMPDEST PUSH2 0xB9 SWAP2 SWAP1 PUSH2 0x414 JUMP JUMPDEST SWAP1 POP PUSH1 0x4 PUSH2 0xCA DUP3 PUSH3 0x23AB1 PUSH2 0x38F JUMP JUMPDEST PUSH2 0xD5 SWAP1 PUSH1 0x3 PUSH2 0x34E JUMP JUMPDEST PUSH2 0xDF SWAP2 SWAP1 PUSH2 0x414 JUMP JUMPDEST PUSH2 0xE9 SWAP1 DUP4 PUSH2 0x442 JUMP JUMPDEST SWAP2 POP PUSH1 0x0 PUSH3 0x164B09 PUSH2 0xFC DUP5 PUSH1 0x1 PUSH2 0x34E JUMP JUMPDEST PUSH2 0x108 SWAP1 PUSH2 0xFA0 PUSH2 0x38F JUMP JUMPDEST PUSH2 0x112 SWAP2 SWAP1 PUSH2 0x414 JUMP JUMPDEST SWAP1 POP PUSH1 0x4 PUSH2 0x122 DUP3 PUSH2 0x5B5 PUSH2 0x38F JUMP JUMPDEST PUSH2 0x12C SWAP2 SWAP1 PUSH2 0x414 JUMP JUMPDEST PUSH2 0x136 SWAP1 DUP5 PUSH2 0x442 JUMP JUMPDEST PUSH2 0x141 SWAP1 PUSH1 0x1F PUSH2 0x34E JUMP JUMPDEST SWAP3 POP PUSH1 0x0 PUSH2 0x98F PUSH2 0x153 DUP6 PUSH1 0x50 PUSH2 0x38F JUMP JUMPDEST PUSH2 0x15D SWAP2 SWAP1 PUSH2 0x414 JUMP JUMPDEST SWAP1 POP PUSH1 0x0 PUSH1 0x50 PUSH2 0x16F DUP4 PUSH2 0x98F PUSH2 0x38F JUMP JUMPDEST PUSH2 0x179 SWAP2 SWAP1 PUSH2 0x414 JUMP JUMPDEST PUSH2 0x183 SWAP1 DUP7 PUSH2 0x442 JUMP JUMPDEST SWAP1 POP PUSH2 0x190 PUSH1 0xB DUP4 PUSH2 0x414 JUMP JUMPDEST SWAP5 POP PUSH2 0x19D DUP6 PUSH1 0xC PUSH2 0x38F JUMP JUMPDEST PUSH2 0x1A8 DUP4 PUSH1 0x2 PUSH2 0x34E JUMP JUMPDEST PUSH2 0x1B2 SWAP2 SWAP1 PUSH2 0x442 JUMP JUMPDEST SWAP2 POP DUP5 DUP4 PUSH2 0x1C1 PUSH1 0x31 DUP8 PUSH2 0x442 JUMP JUMPDEST PUSH2 0x1CC SWAP1 PUSH1 0x64 PUSH2 0x38F JUMP JUMPDEST PUSH2 0x1D6 SWAP2 SWAP1 PUSH2 0x34E JUMP JUMPDEST PUSH2 0x1E0 SWAP2 SWAP1 PUSH2 0x34E JUMP JUMPDEST SWAP1 SWAP8 POP SWAP2 POP DUP7 DUP3 DUP3 DUP3 PUSH1 0x0 PUSH1 0x1 JUMPDEST DUP4 DUP2 GT PUSH2 0x21D JUMPI PUSH2 0x1FF DUP6 DUP6 PUSH2 0x231 JUMP JUMPDEST PUSH2 0x209 SWAP1 DUP4 PUSH2 0x481 JUMP JUMPDEST SWAP2 POP DUP1 PUSH2 0x215 DUP2 PUSH2 0x499 JUMP JUMPDEST SWAP2 POP POP PUSH2 0x1EE JUMP JUMPDEST POP DUP1 SWAP13 POP POP POP POP POP POP POP POP POP POP POP POP SWAP2 POP SWAP2 JUMP JUMPDEST PUSH1 0x0 DUP2 PUSH1 0x1 EQ DUP1 PUSH2 0x242 JUMPI POP DUP2 PUSH1 0x3 EQ JUMPDEST DUP1 PUSH2 0x24D JUMPI POP DUP2 PUSH1 0x5 EQ JUMPDEST DUP1 PUSH2 0x258 JUMPI POP DUP2 PUSH1 0x7 EQ JUMPDEST DUP1 PUSH2 0x263 JUMPI POP DUP2 PUSH1 0x8 EQ JUMPDEST DUP1 PUSH2 0x26E JUMPI POP DUP2 PUSH1 0xA EQ JUMPDEST DUP1 PUSH2 0x279 JUMPI POP DUP2 PUSH1 0xC EQ JUMPDEST ISZERO PUSH2 0x286 JUMPI POP PUSH1 0x1F PUSH2 0x2B3 JUMP JUMPDEST DUP2 PUSH1 0x2 EQ PUSH2 0x296 JUMPI POP PUSH1 0x1E PUSH2 0x2B3 JUMP JUMPDEST PUSH2 0x29F DUP4 PUSH2 0x2B9 JUMP JUMPDEST PUSH2 0x2AA JUMPI PUSH1 0x1C PUSH2 0x2AD JUMP JUMPDEST PUSH1 0x1D JUMPDEST PUSH1 0xFF AND SWAP1 POP JUMPDEST SWAP3 SWAP2 POP POP JUMP JUMPDEST PUSH1 0x0 PUSH2 0x2C6 PUSH1 0x4 DUP4 PUSH2 0x4B4 JUMP JUMPDEST ISZERO DUP1 ISZERO PUSH2 0x2DC JUMPI POP PUSH2 0x2D9 PUSH1 0x64 DUP4 PUSH2 0x4B4 JUMP JUMPDEST ISZERO ISZERO JUMPDEST DUP1 PUSH2 0x2B3 JUMPI POP PUSH2 0x2EE PUSH2 0x190 DUP4 PUSH2 0x4B4 JUMP JUMPDEST ISZERO SWAP3 SWAP2 POP POP JUMP JUMPDEST PUSH1 0x0 PUSH1 0x20 DUP3 DUP5 SUB SLT ISZERO PUSH2 0x307 JUMPI PUSH1 0x0 DUP1 REVERT JUMPDEST POP CALLDATALOAD SWAP2 SWAP1 POP JUMP JUMPDEST PUSH4 0x4E487B71 PUSH1 0xE0 SHL PUSH1 0x0 MSTORE PUSH1 0x12 PUSH1 0x4 MSTORE PUSH1 0x24 PUSH1 0x0 REVERT JUMPDEST PUSH4 0x4E487B71 PUSH1 0xE0 SHL PUSH1 0x0 MSTORE PUSH1 0x11 PUSH1 0x4 MSTORE PUSH1 0x24 PUSH1 0x0 REVERT JUMPDEST PUSH1 0x0 DUP3 PUSH2 0x349 JUMPI PUSH2 0x349 PUSH2 0x30E JUMP JUMPDEST POP DIV SWAP1 JUMP JUMPDEST PUSH1 0x0 DUP1 DUP3 SLT DUP1 ISZERO PUSH1 0x1 PUSH1 0x1 PUSH1 0xFF SHL SUB DUP5 SWAP1 SUB DUP6 SGT AND ISZERO PUSH2 0x370 JUMPI PUSH2 0x370 PUSH2 0x324 JUMP JUMPDEST PUSH1 0x1 PUSH1 0xFF SHL DUP4 SWAP1 SUB DUP5 SLT DUP2 AND ISZERO PUSH2 0x389 JUMPI PUSH2 0x389 PUSH2 0x324 JUMP JUMPDEST POP POP ADD SWAP1 JUMP JUMPDEST PUSH1 0x0 PUSH1 0x1 PUSH1 0x1 PUSH1 0xFF SHL SUB DUP2 DUP5 SGT DUP3 DUP5 SGT DUP1 DUP3 AND DUP7 DUP5 DIV DUP7 GT AND ISZERO PUSH2 0x3B5 JUMPI PUSH2 0x3B5 PUSH2 0x324 JUMP JUMPDEST PUSH1 0x1 PUSH1 0xFF SHL PUSH1 0x0 DUP8 SLT DUP3 DUP2 AND DUP8 DUP4 SDIV DUP10 SLT AND ISZERO PUSH2 0x3D4 JUMPI PUSH2 0x3D4 PUSH2 0x324 JUMP JUMPDEST PUSH1 0x0 DUP8 SLT SWAP3 POP DUP8 DUP3 SDIV DUP8 SLT DUP5 DUP5 AND AND ISZERO PUSH2 0x3F0 JUMPI PUSH2 0x3F0 PUSH2 0x324 JUMP JUMPDEST DUP8 DUP6 SDIV DUP8 SLT DUP2 DUP5 AND AND ISZERO PUSH2 0x406 JUMPI PUSH2 0x406 PUSH2 0x324 JUMP JUMPDEST POP POP POP SWAP3 SWAP1 SWAP4 MUL SWAP4 SWAP3 POP POP POP JUMP JUMPDEST PUSH1 0x0 DUP3 PUSH2 0x423 JUMPI PUSH2 0x423 PUSH2 0x30E JUMP JUMPDEST PUSH1 0x1 PUSH1 0xFF SHL DUP3 EQ PUSH1 0x0 NOT DUP5 EQ AND ISZERO PUSH2 0x43D JUMPI PUSH2 0x43D PUSH2 0x324 JUMP JUMPDEST POP SDIV SWAP1 JUMP JUMPDEST PUSH1 0x0 DUP1 DUP4 SLT DUP1 ISZERO PUSH1 0x1 PUSH1 0xFF SHL DUP6 ADD DUP5 SLT AND ISZERO PUSH2 0x460 JUMPI PUSH2 0x460 PUSH2 0x324 JUMP JUMPDEST PUSH1 0x1 PUSH1 0x1 PUSH1 0xFF SHL SUB DUP5 ADD DUP4 SGT DUP2 AND ISZERO PUSH2 0x47B JUMPI PUSH2 0x47B PUSH2 0x324 JUMP JUMPDEST POP POP SUB SWAP1 JUMP JUMPDEST PUSH1 0x0 DUP3 NOT DUP3 GT ISZERO PUSH2 0x494 JUMPI PUSH2 0x494 PUSH2 0x324 JUMP JUMPDEST POP ADD SWAP1 JUMP JUMPDEST PUSH1 0x0 PUSH1 0x0 NOT DUP3 EQ ISZERO PUSH2 0x4AD JUMPI PUSH2 0x4AD PUSH2 0x324 JUMP JUMPDEST POP PUSH1 0x1 ADD SWAP1 JUMP JUMPDEST PUSH1 0x0 DUP3 PUSH2 0x4C3 JUMPI PUSH2 0x4C3 PUSH2 0x30E JUMP JUMPDEST POP MOD SWAP1 JUMP INVALID LOG2 PUSH5 0x6970667358 0x22 SLT KECCAK256 0xD8 EXTCODECOPY 0x1F 0xA6 CODESIZE PUSH29 0xB7EB7005333B670751088F7DB628CAE3978A0F43F43D46C1406564736F PUSH13 0x63430008090033000000000000 "},"methodIdentifiers":{"unixToDays(uint256)":"93bc8413"}}}}}