{"contracts/Clocktower.sol":{"Clocktower":{"abi":[{"inputs":[],"stateMutability":"payable","type":"constructor"},{"anonymous":false,"inputs":[{"indexed":false,"internalType":"string","name":"output4","type":"string"}],"name":"AccountCreated","type":"event"},{"anonymous":false,"inputs":[{"indexed":false,"internalType":"string","name":"output2","type":"string"}],"name":"CheckStatus","type":"event"},{"anonymous":false,"inputs":[{"indexed":false,"internalType":"address","name":"user","type":"address"},{"indexed":false,"internalType":"uint256","name":"amount","type":"uint256"}],"name":"ReceiveETH","type":"event"},{"anonymous":false,"inputs":[{"indexed":false,"internalType":"string","name":"output","type":"string"}],"name":"Status","type":"event"},{"anonymous":false,"inputs":[{"indexed":false,"internalType":"address","name":"sender","type":"address"},{"indexed":false,"internalType":"address","name":"receiver","type":"address"},{"indexed":false,"internalType":"uint40","name":"timeTrigger","type":"uint40"},{"indexed":false,"internalType":"uint256","name":"payload","type":"uint256"}],"name":"TransactionAdd","type":"event"},{"anonymous":false,"inputs":[{"indexed":false,"internalType":"bool","name":"sent","type":"bool"}],"name":"TransactionSent","type":"event"},{"anonymous":false,"inputs":[{"indexed":false,"internalType":"string","name":"output3","type":"string"}],"name":"UnknownFunction","type":"event"},{"stateMutability":"payable","type":"fallback"},{"inputs":[{"components":[{"internalType":"address payable","name":"receiver","type":"address"},{"internalType":"uint40","name":"unixTime","type":"uint40"},{"internalType":"uint256","name":"payload","type":"uint256"},{"internalType":"address","name":"token","type":"address"}],"internalType":"struct Clocktower.Batch[]","name":"batch","type":"tuple[]"}],"name":"addBatchTransactions","outputs":[],"stateMutability":"payable","type":"function"},{"inputs":[{"internalType":"address","name":"erc20Contract","type":"address"}],"name":"addERC20Contract","outputs":[],"stateMutability":"nonpayable","type":"function"},{"inputs":[{"internalType":"address payable","name":"receiver","type":"address"},{"internalType":"uint40","name":"unixTime","type":"uint40"},{"internalType":"uint256","name":"payload","type":"uint256"},{"internalType":"address","name":"token","type":"address"},{"components":[{"internalType":"address","name":"owner","type":"address"},{"internalType":"address","name":"spender","type":"address"},{"internalType":"uint256","name":"value","type":"uint256"},{"internalType":"uint256","name":"deadline","type":"uint256"},{"internalType":"uint8","name":"v","type":"uint8"},{"internalType":"bytes32","name":"r","type":"bytes32"},{"internalType":"bytes32","name":"s","type":"bytes32"}],"internalType":"struct Clocktower.Permit","name":"permit","type":"tuple"}],"name":"addTransaction","outputs":[],"stateMutability":"payable","type":"function"},{"inputs":[],"name":"allAccounts","outputs":[{"components":[{"internalType":"address","name":"accountAddress","type":"address"},{"internalType":"bool","name":"exists","type":"bool"},{"internalType":"uint40[]","name":"timeTriggers","type":"uint40[]"},{"internalType":"address[]","name":"tokens","type":"address[]"}],"internalType":"struct Clocktower.Account[]","name":"","type":"tuple[]"}],"stateMutability":"view","type":"function"},{"inputs":[],"name":"allTransactions","outputs":[{"components":[{"internalType":"bytes32","name":"id","type":"bytes32"},{"internalType":"address","name":"sender","type":"address"},{"internalType":"address payable","name":"receiver","type":"address"},{"internalType":"address","name":"token","type":"address"},{"internalType":"uint40","name":"timeTrigger","type":"uint40"},{"internalType":"bool","name":"sent","type":"bool"},{"internalType":"bool","name":"cancelled","type":"bool"},{"internalType":"uint256","name":"payload","type":"uint256"}],"internalType":"struct Clocktower.Transaction[]","name":"","type":"tuple[]"}],"stateMutability":"view","type":"function"},{"inputs":[{"internalType":"bytes32","name":"id","type":"bytes32"},{"internalType":"uint40","name":"timeTrigger","type":"uint40"}],"name":"cancelTransaction","outputs":[],"stateMutability":"payable","type":"function"},{"inputs":[{"internalType":"address","name":"newAddress","type":"address"}],"name":"changeAdmin","outputs":[],"stateMutability":"nonpayable","type":"function"},{"inputs":[{"internalType":"uint256","name":"_fee","type":"uint256"}],"name":"changeFee","outputs":[],"stateMutability":"nonpayable","type":"function"},{"inputs":[],"name":"checkTime","outputs":[{"internalType":"bool","name":"","type":"bool"}],"stateMutability":"view","type":"function"},{"inputs":[{"internalType":"address","name":"token","type":"address"},{"components":[{"internalType":"address","name":"owner","type":"address"},{"internalType":"address","name":"spender","type":"address"},{"internalType":"uint256","name":"value","type":"uint256"},{"internalType":"uint256","name":"deadline","type":"uint256"},{"internalType":"uint8","name":"v","type":"uint8"},{"internalType":"bytes32","name":"r","type":"bytes32"},{"internalType":"bytes32","name":"s","type":"bytes32"}],"internalType":"struct Clocktower.Permit","name":"permit","type":"tuple"}],"name":"deposit","outputs":[],"stateMutability":"payable","type":"function"},{"inputs":[],"name":"getAccountBalances","outputs":[{"components":[{"internalType":"address","name":"token","type":"address"},{"internalType":"uint256","name":"availableBalance","type":"uint256"},{"internalType":"uint256","name":"scheduledBalance","type":"uint256"}],"internalType":"struct Clocktower.Balance[]","name":"","type":"tuple[]"}],"stateMutability":"view","type":"function"},{"inputs":[],"name":"getAccountTransactions","outputs":[{"components":[{"internalType":"bytes32","name":"id","type":"bytes32"},{"internalType":"address","name":"sender","type":"address"},{"internalType":"address payable","name":"receiver","type":"address"},{"internalType":"address","name":"token","type":"address"},{"internalType":"uint40","name":"timeTrigger","type":"uint40"},{"internalType":"bool","name":"sent","type":"bool"},{"internalType":"bool","name":"cancelled","type":"bool"},{"internalType":"uint256","name":"payload","type":"uint256"}],"internalType":"struct Clocktower.Transaction[]","name":"","type":"tuple[]"}],"stateMutability":"view","type":"function"},{"inputs":[],"name":"getFee","outputs":[{"internalType":"uint256","name":"","type":"uint256"}],"stateMutability":"view","type":"function"},{"inputs":[],"name":"getTime","outputs":[{"internalType":"uint256","name":"","type":"uint256"}],"stateMutability":"view","type":"function"},{"inputs":[{"internalType":"address","name":"account","type":"address"}],"name":"getTransactionsByAccount","outputs":[{"components":[{"internalType":"bytes32","name":"id","type":"bytes32"},{"internalType":"address","name":"sender","type":"address"},{"internalType":"address payable","name":"receiver","type":"address"},{"internalType":"address","name":"token","type":"address"},{"internalType":"uint40","name":"timeTrigger","type":"uint40"},{"internalType":"bool","name":"sent","type":"bool"},{"internalType":"bool","name":"cancelled","type":"bool"},{"internalType":"uint256","name":"payload","type":"uint256"}],"internalType":"struct Clocktower.Transaction[]","name":"","type":"tuple[]"}],"stateMutability":"view","type":"function"},{"inputs":[{"internalType":"address","name":"erc20Contract","type":"address"}],"name":"removeERC20Contract","outputs":[],"stateMutability":"nonpayable","type":"function"},{"inputs":[],"name":"sendTime","outputs":[],"stateMutability":"nonpayable","type":"function"},{"inputs":[],"name":"toggleContractActive","outputs":[],"stateMutability":"nonpayable","type":"function"},{"inputs":[{"internalType":"address","name":"token","type":"address"},{"internalType":"uint256","name":"amount","type":"uint256"}],"name":"withdraw","outputs":[],"stateMutability":"payable","type":"function"},{"stateMutability":"payable","type":"receive"}],"evm":{"bytecode":{"linkReferences":{},"object":"6080604052600680546001600160a01b03191673f39fd6e51aad88f6f4ce6ab8827279cfffb922661790556008805460ff1916905560646009556001620000464262000074565b6200005291906200009b565b600a805464ffffffffff191664ffffffffff9290921691909117905562000103565b6000610e10620000896363236820846200009b565b620000959190620000d0565b92915050565b600064ffffffffff83811690831681811015620000c857634e487b7160e01b600052601160045260246000fd5b039392505050565b600064ffffffffff80841680620000f757634e487b7160e01b600052601260045260246000fd5b92169190910492915050565b614d5c80620001136000396000f3fe6080604052600436106101185760003560e01c8063c682cce4116100a0578063dc9961eb11610064578063dc9961eb14610332578063e0c6190d14610352578063e9e1dbef14610377578063f121ae7e1461038a578063f3fef3a31461039d57610158565b8063c682cce4146102c0578063ced72f87146102d5578063cf0b5e45146102ea578063cf783d8a146102fd578063d10fa1441461031f57610158565b80636a1db1bf116100e75780636a1db1bf146102295780638f28397014610249578063a65a006814610269578063aa58a5b01461028b578063ab7e0909146102a057610158565b8063053149fa146101aa5780631385d24c146101cc5780631ccb3371146101e1578063557ed1ba1461020c57610158565b3661015857604080513381523460208201527f830d2d700a97af574b186c80d40429385d24241565b08a7c559ba283a964d9b191015b60405180910390a1005b7f19525a32afaad9a5491805c356597487a306fc2f4e8541d8d55e1fe951091e6060405161014e9060208082526010908201526f2ab735b737bbb710333ab731ba34b7b760811b604082015260600190565b3480156101b657600080fd5b506101ca6101c536600461447a565b6103b0565b005b3480156101d857600080fd5b506101ca6105da565b3480156101ed57600080fd5b506101f6610618565b604051610203919061449e565b60405180910390f35b34801561021857600080fd5b50425b604051908152602001610203565b34801561023557600080fd5b506101ca610244366004614546565b610761565b34801561025557600080fd5b506101ca61026436600461447a565b610790565b34801561027557600080fd5b5061027e610805565b604051610203919061455f565b34801561029757600080fd5b506101ca610ab3565b3480156102ac57600080fd5b506101ca6102bb36600461447a565b610cb7565b3480156102cc57600080fd5b506101f6610d9c565b3480156102e157600080fd5b5060095461021b565b6101ca6102f83660046145e1565b61124a565b34801561030957600080fd5b50610312611773565b6040516102039190614689565b6101ca61032d3660046147cf565b611999565b34801561033e57600080fd5b506101f661034d36600461447a565b612598565b34801561035e57600080fd5b50610367612a6f565b6040519015158152602001610203565b6101ca6103853660046148c9565b612c06565b6101ca6103983660046148f5565b6130dd565b6101ca6103ab366004614923565b61346e565b6006546001600160a01b031633146103e35760405162461bcd60e51b81526004016103da9061494f565b60405180910390fd5b6001600160a01b0381166103f657600080fd5b6103ff81613705565b61044b5760405162461bcd60e51b815260206004820152601960248201527f455243323020746f6b656e206e6f74206164646564207965740000000000000060448201526064016103da565b600060078054806020026020016040519081016040528092919081815260200182805480156104a357602002820191906000526020600020905b81546001600160a01b03168152600190910190602001808311610485575b505050505090506000805b825181101561050457836001600160a01b03168382815181106104d3576104d3614986565b60200260200101516001600160a01b031614156104f257809150610504565b806104fc816149b2565b9150506104ae565b50805b600754610516906001906149cd565b8110156105a157600761052a8260016149e4565b8154811061053a5761053a614986565b600091825260209091200154600780546001600160a01b03909216918390811061056657610566614986565b600091825260209091200180546001600160a01b0319166001600160a01b039290921691909117905580610599816149b2565b915050610507565b5060078054806105b3576105b36149fc565b600082815260209020810160001990810180546001600160a01b0319169055019055505050565b6006546001600160a01b031633146106045760405162461bcd60e51b81526004016103da9061494f565b6008805460ff19811660ff90911615179055565b6006546060906001600160a01b031633146106455760405162461bcd60e51b81526004016103da9061494f565b6003546000906001600160401b0381111561066257610662614761565b60405190808252806020026020018201604052801561069b57816020015b610688614201565b8152602001906001900390816106805790505b5090506000805b6001548110156107595760006106de600183815481106106c4576106c4614986565b6000918252602090912001546001600160a01b0316612598565b905060005b8151811015610744578181815181106106fe576106fe614986565b602002602001015185858151811061071857610718614986565b6020026020010181905250838061072e906149b2565b945050808061073c906149b2565b9150506106e3565b50508080610751906149b2565b9150506106a2565b509091505090565b6006546001600160a01b0316331461078b5760405162461bcd60e51b81526004016103da9061494f565b600955565b6006546001600160a01b031633146107ba5760405162461bcd60e51b81526004016103da9061494f565b336001600160a01b0382161480156107da57506001600160a01b03811615155b6107e357600080fd5b600680546001600160a01b0319166001600160a01b0392909216919091179055565b33600090815260208190526040812060020154606091906001600160401b0381111561083357610833614761565b60405190808252806020026020018201604052801561085c578160200160208202803683370190505b50336000908152602081815260409182902060020180548351818402810184019094528084529394509192908301828280156108c157602002820191906000526020600020905b81546001600160a01b031681526001909101906020018083116108a3575b50505050509050600081516001600160401b038111156108e3576108e3614761565b60405190808252806020026020018201604052801561094157816020015b61092e604051806060016040528060006001600160a01b0316815260200160008152602001600081525090565b8152602001906001900390816109015790505b50905060005b33600090815260208190526040902060020154811015610aac5761098e604051806060016040528060006001600160a01b0316815260200160008152602001600081525090565b8382815181106109a0576109a0614986565b6020908102919091018101516001600160a01b0316825233600090815260059091526040812085519091908690859081106109dd576109dd614986565b60200260200101516001600160a01b03166001600160a01b031681526020019081526020016000205481602001818152505060046000336001600160a01b03166001600160a01b031681526020019081526020016000206000858481518110610a4857610a48614986565b60200260200101516001600160a01b03166001600160a01b031681526020019081526020016000205481604001818152505080838381518110610a8d57610a8d614986565b6020026020010181905250508080610aa4906149b2565b915050610947565b5092915050565b6006546001600160a01b03163314610add5760405162461bcd60e51b81526004016103da9061494f565b6000610ae8426137c6565b600a5490915064ffffffffff90811690821611610b175760405162461bcd60e51b81526004016103da90614a12565b600a5464ffffffffff165b8164ffffffffff168164ffffffffff1611610c985764ffffffffff8116600090815260026020908152604080832080548251818502810185019093528083529192909190849084015b82821015610c11576000848152602090819020604080516101008101825260058602909201805483526001808201546001600160a01b039081168587015260028301548116938501939093526003820154928316606085015264ffffffffff600160a01b840416608085015260ff600160c81b84048116151560a0860152600160d01b909304909216151560c08401526004015460e08301529083529092019101610b6b565b505050509050600081511115610c855760005b8151811015610c8357818181518110610c3f57610c3f614986565b602002602001015160c00151610c7157610c71828281518110610c6457610c64614986565b60200260200101516137e9565b80610c7b816149b2565b915050610c24565b505b5080610c9081614a59565b915050610b22565b50600a805464ffffffffff191664ffffffffff92909216919091179055565b6006546001600160a01b03163314610ce15760405162461bcd60e51b81526004016103da9061494f565b6001600160a01b038116610cf457600080fd5b610cfd81613705565b15610d4a5760405162461bcd60e51b815260206004820152601960248201527f455243323020746f6b656e20616c72656164792061646465640000000000000060448201526064016103da565b600780546001810182556000919091527fa66cc928b5edb82af9bd49922954155ab7b0942694bea4ce44661d9a8736c6880180546001600160a01b0319166001600160a01b0392909216919091179055565b33600090815260208181526040808320600101805482518185028101850190935280835260609493830182828015610e2157602002820191906000526020600020906000905b82829054906101000a900464ffffffffff1664ffffffffff1681526020019060050190602082600401049283019260010382029150808411610de25790505b505050505090506000805b8251811015610f6057600060026000858481518110610e4d57610e4d614986565b602002602001015164ffffffffff1664ffffffffff168152602001908152602001600020805480602002602001604051908101604052809291908181526020016000905b82821015610f37576000848152602090819020604080516101008101825260058602909201805483526001808201546001600160a01b039081168587015260028301548116938501939093526003820154928316606085015264ffffffffff600160a01b840416608085015260ff600160c81b84048116151560a0860152600160d01b909304909216151560c08401526004015460e08301529083529092019101610e91565b505050509050805183610f4a91906149e4565b9250508080610f58906149b2565b915050610e2c565b506000816001600160401b03811115610f7b57610f7b614761565b604051908082528060200260200182016040528015610fb457816020015b610fa1614201565b815260200190600190039081610f995790505b5090506000826001600160401b03811115610fd157610fd1614761565b60405190808252806020026020018201604052801561100a57816020015b610ff7614201565b815260200190600190039081610fef5790505b5090506000805b85518110156111ce576002600087838151811061103057611030614986565b602002602001015164ffffffffff1664ffffffffff168152602001908152602001600020805480602002602001604051908101604052809291908181526020016000905b8282101561111a576000848152602090819020604080516101008101825260058602909201805483526001808201546001600160a01b039081168587015260028301548116938501939093526003820154928316606085015264ffffffffff600160a01b840416608085015260ff600160c81b84048116151560a0860152600160d01b909304909216151560c08401526004015460e08301529083529092019101611074565b50505050935060005b84518110156111bb57336001600160a01b031685828151811061114857611148614986565b6020026020010151602001516001600160a01b031614156111a95784818151811061117557611175614986565b602002602001015184848151811061118f5761118f614986565b602002602001018190525082806111a5906149b2565b9350505b806111b3816149b2565b915050611123565b50806111c6816149b2565b915050611011565b5060005b825181101561123f576112018382815181106111f0576111f0614986565b602002602001015160800151613d93565b83828151811061121357611213614986565b602090810291909101015164ffffffffff90911660809091015280611237816149b2565b9150506111d2565b509095945050505050565b60085460ff1661176c57428464ffffffffff16116112aa5760405162461bcd60e51b815260206004820152601f60248201527f54696d652064617461206d75737420626520696e20746865206675747572650060448201526064016103da565b6112b6610e1085614a94565b64ffffffffff16156113055760405162461bcd60e51b81526020600482015260186024820152772a34b6b29036bab9ba1031329037b7103a3432903437bab960411b60448201526064016103da565b6001600160a01b03821661135157346064600954856113249190614ab8565b61132e9190614ad7565b111561134c5760405162461bcd60e51b81526004016103da90614aeb565b6113dd565b61135a82613705565b6113765760405162461bcd60e51b81526004016103da90614b2f565b806040013583146113dd5760405162461bcd60e51b815260206004820152602b60248201527f5061796c6f6164206d757374206265207468652073616d652061732076616c7560448201526a19481c195c9b5a5d1d195960aa1b60648201526084016103da565b60006113e8856137c6565b64ffffffffff8116600090815260026020526040812091925061140e338987868a613daf565b825460018082018555600085815260209081902084516005909402019283558381015191830180546001600160a01b03199081166001600160a01b0394851617909155604080860151600286018054909316908516179091556060808601516003860180546080808a015160a08b015160c08c0151958a166001600160c81b031990941693909317600160a01b64ffffffffff928316021761ffff60c81b1916600160c81b9315159390930260ff60d01b191692909217600160d01b941515949094029390931790915560e08801516004909701969096558251338152948f1693850193909352938816908301529181018990529192507f6e643cb89831cd75ded50b4ecee0e313701b6002fc48e8b80a3c05447ab066e8910160405180910390a17f2844c95bf1b4598da931d527f903501abc60fe0199c65da52d5ce818c6c5e96160405161157890602080825260069082015265141d5cda195960d21b604082015260600190565b60405180910390a1805160038054600181019091557fc2575a0e9e593c00f959f8c92f12db2869c3395a3b0502d05e2516446f71f85b015564ffffffffff8316600090815260026020526040902082546115d491908490614245565b506115df8386613e5f565b3360009081526004602090815260408083206001600160a01b0389168452909152812080548892906116129084906149e4565b90915550506001600160a01b03851615611768576001600160a01b03851663d505accf611642602087018761447a565b611652604088016020890161447a565b6040880135606089013561166c60a08b0160808c01614b74565b8a60a001358b60c001356040518863ffffffff1660e01b81526004016116989796959493929190614b97565b600060405180830381600087803b1580156116b257600080fd5b505af11580156116c6573d6000803e3d6000fd5b50506040516323b872dd60e01b81526001600160a01b03881692506323b872dd91506116fa90339030908b90600401614bd8565b602060405180830381600087803b15801561171457600080fd5b505af1158015611728573d6000803e3d6000fd5b505050506040513d601f19601f8201168201806040525081019061174c9190614bfc565b6117685760405162461bcd60e51b81526004016103da90614c1e565b5050505b5050505050565b6006546060906001600160a01b031633146117a05760405162461bcd60e51b81526004016103da9061494f565b6001546000906001600160401b038111156117bd576117bd614761565b60405190808252806020026020018201604052801561181157816020015b60408051608081018252600080825260208201526060918101829052818101919091528152602001906001900390816117db5790505b50905060005b600154811015611993576000806001838154811061183757611837614986565b6000918252602080832091909101546001600160a01b039081168452838201949094526040928301909120825160808101845281549485168152600160a01b90940460ff16151584830152600181018054845181850281018501865281815292948601938301828280156118f857602002820191906000526020600020906000905b82829054906101000a900464ffffffffff1664ffffffffff16815260200190600501906020826004010492830192600103820291508084116118b95790505b505050505081526020016002820180548060200260200160405190810160405280929190818152602001828054801561195a57602002820191906000526020600020905b81546001600160a01b0316815260019091019060200180831161193c575b50505050508152505082828151811061197557611975614986565b6020026020010181905250808061198b906149b2565b915050611817565b50905090565b60085460ff1661259557600181511180156119b5575060648151105b611a275760405162461bcd60e51b815260206004820152603b60248201527f4261746368206d7573742068617665206d6f7265207468616e206f6e6520747260448201527f616e73616374696f6e20616e64206c657373207468616e20313030000000000060648201526084016103da565b611a4b60405180606001604052806000815260200160008152602001600081525090565b33600090815260208181526040808320600181018054835181860281018601909452808452919493909190830182828015611ad357602002820191906000526020600020906000905b82829054906101000a900464ffffffffff1664ffffffffff1681526020019060050190602082600401049283019260010382029150808411611a945790505b5050505050905060006007805490506001600160401b03811115611af957611af9614761565b604051908082528060200260200182016040528015611b22578160200160208202803683370190505b506001840154909150600090611b399060646149e4565b6001600160401b03811115611b5057611b50614761565b604051908082528060200260200182016040528015611b79578160200160208202803683370190505b50905060005b8651811015611e515742878281518110611b9b57611b9b614986565b60200260200101516020015164ffffffffff1611611bfb5760405162461bcd60e51b815260206004820152601f60248201527f54696d652064617461206d75737420626520696e20746865206675747572650060448201526064016103da565b610e10878281518110611c1057611c10614986565b602002602001015160200151611c269190614a94565b64ffffffffff1615611c755760405162461bcd60e51b81526020600482015260186024820152772a34b6b29036bab9ba1031329037b7103a3432903437bab960411b60448201526064016103da565b6000611c9d888381518110611c8c57611c8c614986565b6020026020010151602001516137c6565b9050611ca98184614143565b611cf7578083886040015181518110611cc457611cc4614986565b602002602001019064ffffffffff16908164ffffffffff1681525050600187604001818151611cf391906149e4565b9052505b60006001600160a01b0316888381518110611d1457611d14614986565b6020026020010151606001516001600160a01b03161415611d6657878281518110611d4157611d41614986565b60200260200101516040015187600001818151611d5e91906149e4565b905250611e3e565b611d8c888381518110611d7b57611d7b614986565b602002602001015160600151613705565b611da85760405162461bcd60e51b81526004016103da90614b2f565b611dcf888381518110611dbd57611dbd614986565b602002602001015160600151856141a5565b611e3e57878281518110611de557611de5614986565b60200260200101516060015184886020015181518110611e0757611e07614986565b60200260200101906001600160a01b031690816001600160a01b031681525050600187602001818151611e3a91906149e4565b9052505b5080611e49816149b2565b915050611b7f565b3460646009548860000151611e669190614ab8565b611e709190614ad7565b1115611e8e5760405162461bcd60e51b81526004016103da90614aeb565b5060005b81518110156121d657818181518110611ead57611ead614986565b602002602001015164ffffffffff1660001415611ec9576121d6565b600060026000848481518110611ee157611ee1614986565b602002602001015164ffffffffff1664ffffffffff168152602001908152602001600020905060005b88518161ffff1610156120ed576000611f328a8361ffff1681518110611c8c57611c8c614986565b9050848481518110611f4657611f46614986565b602002602001015164ffffffffff168164ffffffffff1614156120da576000611fd5338c8561ffff1681518110611f7f57611f7f614986565b6020026020010151600001518d8661ffff1681518110611fa157611fa1614986565b602002602001015160600151858f8861ffff1681518110611fc457611fc4614986565b602002602001015160400151613daf565b8454600181810187556000878152602080822085516005909502018481559085015181840180546001600160a01b039283166001600160a01b03199182161790915560408701516002840180549184169190921617905560608601516003808401805460808a015160a08b015160c08c01511515600160d01b0260ff60d01b19911515600160c81b029190911661ffff60c81b1964ffffffffff909316600160a01b026001600160c81b031990941696909716959095179190911716939093179190911790915560e09095015160049091015583549182018455929092527fc2575a0e9e593c00f959f8c92f12db2869c3395a3b0502d05e2516446f71f85b90910155505b50806120e581614c55565b915050611f0a565b50806002600085858151811061210557612105614986565b602002602001015164ffffffffff1664ffffffffff168152602001908152602001600020908054612137929190614245565b5061215b83838151811061214d5761214d614986565b602002602001015186614143565b6121c35782828151811061217157612171614986565b6020026020010151866001016001816001815401808255809150500390600052602060002090600691828204019190066005026101000a81548164ffffffffff021916908364ffffffffff1602179055505b50806121ce816149b2565b915050611e92565b60008560020180548060200260200160405190810160405280929190818152602001828054801561223057602002820191906000526020600020905b81546001600160a01b03168152600190910190602001808311612212575b50505050509050600091505b83518210156122d15761226884838151811061225a5761225a614986565b6020026020010151826141a5565b6122bf5783828151811061227e5761227e614986565b602090810291909101810151600288018054600181018255600091825292902090910180546001600160a01b0319166001600160a01b039092169190911790555b816122c9816149b2565b92505061223c565b33600090815260208190526040902054600160a01b900460ff1661234e5785546001600160a01b03199081163390811788556001805480820182556000919091527fb10e2d527612073b26eecdfd717e6a320cf44b4afac2b0732d9fcbe2b7fa0cf6018054909216179055855460ff60a01b1916600160a01b1786555b336000908152602081905260409020865481546001600160a01b039091166001600160a01b031982168117835588546001600160a81b031990921617600160a01b9182900460ff161515909102178155600180880180548993926123b5929084019161436a565b50600282810180546123ca92840191906143c4565b5090505060005b885181101561258c578881815181106123ec576123ec614986565b60200260200101516040015160046000336001600160a01b03166001600160a01b0316815260200190815260200160002060008b848151811061243157612431614986565b6020026020010151606001516001600160a01b03166001600160a01b03168152602001908152602001600020600082825461246c91906149e4565b909155505088516000908a908390811061248857612488614986565b6020026020010151606001516001600160a01b03161461257a578881815181106124b4576124b4614986565b6020026020010151606001516001600160a01b03166323b872dd33308c85815181106124e2576124e2614986565b6020026020010151604001516040518463ffffffff1660e01b815260040161250c93929190614bd8565b602060405180830381600087803b15801561252657600080fd5b505af115801561253a573d6000803e3d6000fd5b505050506040513d601f19601f8201168201806040525081019061255e9190614bfc565b61257a5760405162461bcd60e51b81526004016103da90614c1e565b80612584816149b2565b9150506123d1565b50505050505050505b50565b6006546060906001600160a01b031633146125c55760405162461bcd60e51b81526004016103da9061494f565b6001600160a01b0382166000908152602081815260408083206001018054825181850281018501909352808352919290919083018282801561265457602002820191906000526020600020906000905b82829054906101000a900464ffffffffff1664ffffffffff16815260200190600501906020826004010492830192600103820291508084116126155790505b505050505090506000805b82518110156127935760006002600085848151811061268057612680614986565b602002602001015164ffffffffff1664ffffffffff168152602001908152602001600020805480602002602001604051908101604052809291908181526020016000905b8282101561276a576000848152602090819020604080516101008101825260058602909201805483526001808201546001600160a01b039081168587015260028301548116938501939093526003820154928316606085015264ffffffffff600160a01b840416608085015260ff600160c81b84048116151560a0860152600160d01b909304909216151560c08401526004015460e083015290835290920191016126c4565b50505050905080518361277d91906149e4565b925050808061278b906149b2565b91505061265f565b506000816001600160401b038111156127ae576127ae614761565b6040519080825280602002602001820160405280156127e757816020015b6127d4614201565b8152602001906001900390816127cc5790505b5090506000826001600160401b0381111561280457612804614761565b60405190808252806020026020018201604052801561283d57816020015b61282a614201565b8152602001906001900390816128225790505b5090506000805b8551811015612a01576002600087838151811061286357612863614986565b602002602001015164ffffffffff1664ffffffffff168152602001908152602001600020805480602002602001604051908101604052809291908181526020016000905b8282101561294d576000848152602090819020604080516101008101825260058602909201805483526001808201546001600160a01b039081168587015260028301548116938501939093526003820154928316606085015264ffffffffff600160a01b840416608085015260ff600160c81b84048116151560a0860152600160d01b909304909216151560c08401526004015460e083015290835290920191016128a7565b50505050935060005b84518110156129ee57886001600160a01b031685828151811061297b5761297b614986565b6020026020010151602001516001600160a01b031614156129dc578481815181106129a8576129a8614986565b60200260200101518484815181106129c2576129c2614986565b602002602001018190525082806129d8906149b2565b9350505b806129e6816149b2565b915050612956565b50806129f9816149b2565b915050612844565b5060005b8251811015612a6157612a238382815181106111f0576111f0614986565b838281518110612a3557612a35614986565b602090810291909101015164ffffffffff90911660809091015280612a59816149b2565b915050612a05565b50909450505050505b919050565b6006546000906001600160a01b03163314612a9c5760405162461bcd60e51b81526004016103da9061494f565b6000612aa7426137c6565b600a5490915064ffffffffff90811690821611612ad65760405162461bcd60e51b81526004016103da90614a12565b600a5464ffffffffff165b8164ffffffffff168164ffffffffff1611612bfd5764ffffffffff8116600090815260026020908152604080832080548251818502810185019093528083529192909190849084015b82821015612bd0576000848152602090819020604080516101008101825260058602909201805483526001808201546001600160a01b039081168587015260028301548116938501939093526003820154928316606085015264ffffffffff600160a01b840416608085015260ff600160c81b84048116151560a0860152600160d01b909304909216151560c08401526004015460e08301529083529092019101612b2a565b505050509050600081511115612bea576001935050505090565b5080612bf581614a59565b915050612ae1565b50600091505090565b612c0f816137c6565b64ffffffffff8116600090815260026020908152604080832080548251818502810185019093528083529495509293909291849084015b82821015612cec576000848152602090819020604080516101008101825260058602909201805483526001808201546001600160a01b039081168587015260028301548116938501939093526003820154928316606085015264ffffffffff600160a01b840416608085015260ff600160c81b84048116151560a0860152600160d01b909304909216151560c08401526004015460e08301529083529092019101612c46565b5050505064ffffffffff83166000908152600260205260409020909150612d11614201565b60005b8351811015612e5d5785848281518110612d3057612d30614986565b6020026020010151600001511415612e4b57838181518110612d5457612d54614986565b6020908102919091010151600160c082015283549092508290849083908110612d7f57612d7f614986565b60009182526020918290208351600590920201908155908201516001820180546001600160a01b039283166001600160a01b0319918216179091556040840151600284018054918416919092161790556060830151600383018054608086015160a087015160c08801511515600160d01b0260ff60d01b19911515600160c81b029190911661ffff60c81b1964ffffffffff909316600160a01b026001600160c81b0319909416959096169490941791909117169290921717905560e090910151600490910155612e5d565b80612e55816149b2565b915050612d14565b5064ffffffffff841660009081526002602052604090208254612e8291908490614245565b5060e081015133600090815260046020908152604080832060608601516001600160a01b0316845290915281208054909190612ebf9084906149cd565b909155505060608101516001600160a01b0316612f245760e08101514711612ee657600080fd5b80602001516001600160a01b03166108fc8260e001519081150290604051600060405180830381858888f19350505050612f1f57600080fd5b61176c565b60e081015160608201516040516370a0823160e01b81523060048201526001600160a01b03909116906370a0823190602401602060405180830381600087803b158015612f7057600080fd5b505af1158015612f84573d6000803e3d6000fd5b505050506040513d601f19601f82011682018060405250810190612fa89190614c6d565b1015612fb357600080fd5b606081015160e082015160405163095ea7b360e01b815230600482015260248101919091526001600160a01b039091169063095ea7b390604401602060405180830381600087803b15801561300757600080fd5b505af115801561301b573d6000803e3d6000fd5b505050506040513d601f19601f8201168201806040525081019061303f9190614bfc565b80156130d4575080606001516001600160a01b03166323b872dd3083604001518460e001516040518463ffffffff1660e01b815260040161308293929190614bd8565b602060405180830381600087803b15801561309c57600080fd5b505af11580156130b0573d6000803e3d6000fd5b505050506040513d601f19601f820116820180604052508101906130d49190614bfc565b61176c57600080fd5b6001600160a01b03821615613111576130f582613705565b6131115760405162461bcd60e51b81526004016103da90614b2f565b3360009081526020819052604090208054600160a01b900460ff166131b7578054336001600160a01b0319918216811783556001805480820182557fb10e2d527612073b26eecdfd717e6a320cf44b4afac2b0732d9fcbe2b7fa0cf601805484169092179091558254600160a01b60ff60a01b1990911617835560028301805491820181556000908152602090200180549091166001600160a01b038516179055613259565b60008160020180548060200260200160405190810160405280929190818152602001828054801561321157602002820191906000526020600020905b81546001600160a01b031681526001909101906020018083116131f3575b5050505050905061322284826141a5565b61325757600282018054600181018255600091825260209091200180546001600160a01b0319166001600160a01b0386161790555b505b336000908152602081905260409020815481546001600160a01b039091166001600160a01b031982168117835583546001600160a81b031990921617600160a01b9182900460ff161515909102178155600180830180548493926132c0929084019161436a565b50600282810180546132d592840191906143c4565b50503360009081526005602090815260408083206001600160a01b0388168452909152808220805491860135935091906133109084906149e4565b90915550506001600160a01b03831615613469576001600160a01b03831663d505accf613340602085018561447a565b613350604086016020870161447a565b6040860135606087013561336a60a0890160808a01614b74565b8860a001358960c001356040518863ffffffff1660e01b81526004016133969796959493929190614b97565b600060405180830381600087803b1580156133b057600080fd5b505af11580156133c4573d6000803e3d6000fd5b5050604080516323b872dd60e01b81526001600160a01b03871693506323b872dd92506133fb913391309188013590600401614bd8565b602060405180830381600087803b15801561341557600080fd5b505af1158015613429573d6000803e3d6000fd5b505050506040513d601f19601f8201168201806040525081019061344d9190614bfc565b6134695760405162461bcd60e51b81526004016103da90614c1e565b505050565b3360009081526005602090815260408083206001600160a01b03861684529091529020548111156134f25760405162461bcd60e51b815260206004820152602860248201527f4e6f7420656e6f75676820617661696c61626c652062616c616e636520746f20604482015267776974686472617760c01b60648201526084016103da565b3360009081526005602090815260408083206001600160a01b0386168452909152812080548392906135259084906149cd565b90915550506001600160a01b03821661356d5780471161354457600080fd5b604051339082156108fc029083906000818181858888f1935050505061356957600080fd5b5050565b6040516370a0823160e01b815230600482015281906001600160a01b038416906370a0823190602401602060405180830381600087803b1580156135b057600080fd5b505af11580156135c4573d6000803e3d6000fd5b505050506040513d601f19601f820116820180604052508101906135e89190614c6d565b10156135f357600080fd5b60405163095ea7b360e01b8152306004820152602481018290526001600160a01b0383169063095ea7b390604401602060405180830381600087803b15801561363b57600080fd5b505af115801561364f573d6000803e3d6000fd5b505050506040513d601f19601f820116820180604052508101906136739190614bfc565b80156136fc57506040516323b872dd60e01b81526001600160a01b038316906323b872dd906136aa90309033908690600401614bd8565b602060405180830381600087803b1580156136c457600080fd5b505af11580156136d8573d6000803e3d6000fd5b505050506040513d601f19601f820116820180604052508101906136fc9190614bfc565b61356957600080fd5b600080600780548060200260200160405190810160405280929190818152602001828054801561375e57602002820191906000526020600020905b81546001600160a01b03168152600190910190602001808311613740575b505050505090506000915060005b81518110156137bf5781818151811061378757613787614986565b60200260200101516001600160a01b0316846001600160a01b031614156137ad57600192505b806137b7816149b2565b91505061376c565b5050919050565b6000610e106137d9636323682084614c86565b6137e39190614cac565b92915050565b60085460ff166125955760e081015160208083015160608401516001600160a01b039182166000908152600484526040808220939092168152919092522054101561383357600080fd5b60608101516001600160a01b031661385a5760e0810151471161385557600080fd5b6138e9565b60e081015160608201516040516370a0823160e01b81523060048201526001600160a01b03909116906370a0823190602401602060405180830381600087803b1580156138a657600080fd5b505af11580156138ba573d6000803e3d6000fd5b505050506040513d601f19601f820116820180604052508101906138de9190614c6d565b10156138e957600080fd5b608081015164ffffffffff16600090815260026020908152604080832080548251818502810185019093528083529192909190849084015b828210156139c7576000848152602090819020604080516101008101825260058602909201805483526001808201546001600160a01b039081168587015260028301548116938501939093526003820154928316606085015264ffffffffff600160a01b840416608085015260ff600160c81b84048116151560a0860152600160d01b909304909216151560c08401526004015460e08301529083529092019101613921565b50505050608083015164ffffffffff1660009081526002602052604081209192505b8251811015613b36578360000151838281518110613a0957613a09614986565b6020026020010151600001511415613b2457828181518110613a2d57613a2d614986565b6020908102919091010151600160a082015282549094508490839083908110613a5857613a58614986565b60009182526020918290208351600590920201908155908201516001820180546001600160a01b039283166001600160a01b0319918216179091556040840151600284018054918416919092161790556060830151600383018054608086015160a087015160c08801511515600160d01b0260ff60d01b19911515600160c81b029190911661ffff60c81b1964ffffffffff909316600160a01b026001600160c81b0319909416959096169490941791909117169290921717905560e090910151600490910155613b36565b80613b2e816149b2565b9150506139e9565b50608083015164ffffffffff1660009081526002602052604090208154613b5f91908390614245565b5060e08301516020808501516001600160a01b039081166000908152600483526040808220606089015190931682529190925281208054909190613ba49084906149cd565b909155505060608301516001600160a01b0316613c6957600083604001516001600160a01b03166108fc8560e001519081150290604051600060405180830381858888f19350505050905080613c2f5760405162461bcd60e51b815260206004820152601060248201526f2a3930b739b332b9103330b4b632b21760811b60448201526064016103da565b604051600181527fa2ea5b0db1d57b0e32df654aa9a1a97bc8066881e37669ff488d2bebe87c9f879060200160405180910390a150505050565b606083015160e084015160405163095ea7b360e01b815230600482015260248101919091526001600160a01b039091169063095ea7b390604401602060405180830381600087803b158015613cbd57600080fd5b505af1158015613cd1573d6000803e3d6000fd5b505050506040513d601f19601f82011682018060405250810190613cf59190614bfc565b8015613d8a575082606001516001600160a01b03166323b872dd3085604001518660e001516040518463ffffffff1660e01b8152600401613d3893929190614bd8565b602060405180830381600087803b158015613d5257600080fd5b505af1158015613d66573d6000803e3d6000fd5b505050506040513d601f19601f82011682018060405250810190613d8a9190614bfc565b61346957600080fd5b6000613da182610e10614cd0565b6137e3906363236820614cfd565b613db7614201565b6040516bffffffffffffffffffffffff19606088901b1660208201526001600160d81b031960d885901b16603482015242603982015260009060590160408051601f1981840301815282825280516020918201206101008401835283526001600160a01b03998a169083015296881696810196909652505091909316606083015264ffffffffff9092166080820152600060a0820181905260c082015260e081019190915290565b3360009081526020819052604090208054600160a01b900460ff16613f3e578054336001600160a01b0319918216811783556001805480820182557fb10e2d527612073b26eecdfd717e6a320cf44b4afac2b0732d9fcbe2b7fa0cf601805484169092179091558254600160a01b60ff60a01b19909116178355808301805480830182556000918252602080832060068084049091018054919093066005026101000a64ffffffffff81810219909216918a1602179091556002850180549384018155825290200180549091166001600160a01b0384161790556140bf565b600081600101805480602002602001604051908101604052809291908181526020018280548015613fbc57602002820191906000526020600020906000905b82829054906101000a900464ffffffffff1664ffffffffff1681526020019060050190602082600401049283019260010382029150808411613f7d5790505b5050505050905060008260020180548060200260200160405190810160405280929190818152602001828054801561401d57602002820191906000526020600020905b81546001600160a01b03168152600190910190602001808311613fff575b5050505050905061402e8583614143565b61407d5784836001016001816001815401808255809150500390600052602060002090600691828204019190066005026101000a81548164ffffffffff021916908364ffffffffff1602179055505b61408784826141a5565b6140bc57600283018054600181018255600091825260209091200180546001600160a01b0319166001600160a01b0386161790555b50505b336000908152602081905260409020815481546001600160a01b039091166001600160a01b031982168117835583546001600160a81b031990921617600160a01b9182900460ff16151590910217815560018083018054849392614126929084019161436a565b506002828101805461413b92840191906143c4565b505050505050565b6000805b825181101561419b578364ffffffffff1683828151811061416a5761416a614986565b602002602001015164ffffffffff1614156141895760019150506137e3565b80614193816149b2565b915050614147565b5060009392505050565b6000805b825181101561419b57836001600160a01b03168382815181106141ce576141ce614986565b60200260200101516001600160a01b031614156141ef5760019150506137e3565b806141f9816149b2565b9150506141a9565b6040805161010081018252600080825260208201819052918101829052606081018290526080810182905260a0810182905260c0810182905260e081019190915290565b82805482825590600052602060002090600502810192821561435a5760005260206000209160050282015b8281111561435a578254825560018084015490830180546001600160a01b03199081166001600160a01b039384161790915560028086015490850180548316918416919091179055600380860180549186018054938416929094169182178455805464ffffffffff600160a01b9182900416026001600160c81b031990931690911791909117808355815460ff600160c81b918290048116151590910260ff60c81b198316811785559254600160d01b9081900490911615150260ff60d01b1990921661ffff60c81b19909116171790556004808401549083015560059283019290910190614270565b50614366929150614403565b5090565b828054828255906000526020600020906005016006900481019282156143b8576000526020600020916005016006900482015b828111156143b857825482559160010191906001019061439d565b50614366929150614450565b8280548282559060005260206000209081019282156143b8576000526020600020918201828111156143b857825482559160010191906001019061439d565b5b808211156143665760008082556001820180546001600160a01b031990811690915560028301805490911690556003820180546001600160d81b03191690556004820155600501614404565b5b808211156143665760008155600101614451565b6001600160a01b038116811461259557600080fd5b60006020828403121561448c57600080fd5b813561449781614465565b9392505050565b602080825282518282018190526000919060409081850190868401855b8281101561453957815180518552868101516001600160a01b0390811688870152868201518116878701526060808301519091169086015260808082015164ffffffffff169086015260a08082015115159086015260c08082015115159086015260e0908101519085015261010090930192908501906001016144bb565b5091979650505050505050565b60006020828403121561455857600080fd5b5035919050565b602080825282518282018190526000919060409081850190868401855b8281101561453957815180516001600160a01b031685528681015187860152850151858501526060909301929085019060010161457c565b803564ffffffffff81168114612a6a57600080fd5b600060e082840312156145db57600080fd5b50919050565b600080600080600061016086880312156145fa57600080fd5b853561460581614465565b9450614613602087016145b4565b935060408601359250606086013561462a81614465565b915061463987608088016145c9565b90509295509295909350565b600081518084526020808501945080840160005b8381101561467e5781516001600160a01b031687529582019590820190600101614659565b509495945050505050565b60006020808301818452808551808352604092508286019150828160051b8701018488016000805b8481101561475257898403603f19018652825180516001600160a01b0316855288810151151589860152878101516080898701819052815190870181905260a08701918b019085905b8082101561472157825164ffffffffff168452928c0192918c0191600191909101906146fa565b5050506060808301519250868203818801525061473e8183614645565b978a019795505050918701916001016146b1565b50919998505050505050505050565b634e487b7160e01b600052604160045260246000fd5b604051608081016001600160401b038111828210171561479957614799614761565b60405290565b604051601f8201601f191681016001600160401b03811182821017156147c7576147c7614761565b604052919050565b600060208083850312156147e257600080fd5b82356001600160401b03808211156147f957600080fd5b818501915085601f83011261480d57600080fd5b81358181111561481f5761481f614761565b61482d848260051b0161479f565b818152848101925060079190911b83018401908782111561484d57600080fd5b928401925b818410156148be576080848903121561486b5760008081fd5b614873614777565b843561487e81614465565b815261488b8587016145b4565b81870152604085810135908201526060808601356148a881614465565b9082015283526080939093019291840191614852565b979650505050505050565b600080604083850312156148dc57600080fd5b823591506148ec602084016145b4565b90509250929050565b600080610100838503121561490957600080fd5b823561491481614465565b91506148ec84602085016145c9565b6000806040838503121561493657600080fd5b823561494181614465565b946020939093013593505050565b6020808252601a908201527f4d75737420686176652061646d696e2070726976696c65676573000000000000604082015260600190565b634e487b7160e01b600052603260045260246000fd5b634e487b7160e01b600052601160045260246000fd5b60006000198214156149c6576149c661499c565b5060010190565b6000828210156149df576149df61499c565b500390565b600082198211156149f7576149f761499c565b500190565b634e487b7160e01b600052603160045260246000fd5b60208082526027908201527f54696d6520616c726561647920636865636b656420666f7220746869732074696040820152661b59481cdb1bdd60ca1b606082015260800190565b600064ffffffffff80831681811415614a7457614a7461499c565b6001019392505050565b634e487b7160e01b600052601260045260246000fd5b600064ffffffffff80841680614aac57614aac614a7e565b92169190910692915050565b6000816000190483118215151615614ad257614ad261499c565b500290565b600082614ae657614ae6614a7e565b500490565b60208082526024908201527f4e6f7420656e6f756768204554482073656e742077697468207472616e7361636040820152633a34b7b760e11b606082015260800190565b60208082526025908201527f20546f6b656e206e6f7420617070726f76656420666f72207468697320636f6e6040820152641d1c9858dd60da1b606082015260800190565b600060208284031215614b8657600080fd5b813560ff8116811461449757600080fd5b6001600160a01b0397881681529590961660208601526040850193909352606084019190915260ff16608083015260a082015260c081019190915260e00190565b6001600160a01b039384168152919092166020820152604081019190915260600190565b600060208284031215614c0e57600080fd5b8151801515811461449757600080fd5b6020808252601a908201527f50726f626c656d207472616e7366657272696e6720746f6b656e000000000000604082015260600190565b600061ffff80831681811415614a7457614a7461499c565b600060208284031215614c7f57600080fd5b5051919050565b600064ffffffffff83811690831681811015614ca457614ca461499c565b039392505050565b600064ffffffffff80841680614cc457614cc4614a7e565b92169190910492915050565b600064ffffffffff80831681851681830481118215151615614cf457614cf461499c565b02949350505050565b600064ffffffffff808316818516808303821115614d1d57614d1d61499c565b0194935050505056fea26469706673582212209acf3cb53e7411139796cae000c30270e8fed0fd0220f3fd91974a5d577645c864736f6c63430008090033","opcodes":"PUSH1 0x80 PUSH1 0x40 MSTORE PUSH1 0x6 DUP1 SLOAD PUSH1 0x1 PUSH1 0x1 PUSH1 0xA0 SHL SUB NOT AND PUSH20 0xF39FD6E51AAD88F6F4CE6AB8827279CFFFB92266 OR SWAP1 SSTORE PUSH1 0x8 DUP1 SLOAD PUSH1 0xFF NOT AND SWAP1 SSTORE PUSH1 0x64 PUSH1 0x9 SSTORE PUSH1 0x1 PUSH3 0x46 TIMESTAMP PUSH3 0x74 JUMP JUMPDEST PUSH3 0x52 SWAP2 SWAP1 PUSH3 0x9B JUMP JUMPDEST PUSH1 0xA DUP1 SLOAD PUSH5 0xFFFFFFFFFF NOT AND PUSH5 0xFFFFFFFFFF SWAP3 SWAP1 SWAP3 AND SWAP2 SWAP1 SWAP2 OR SWAP1 SSTORE PUSH3 0x103 JUMP JUMPDEST PUSH1 0x0 PUSH2 0xE10 PUSH3 0x89 PUSH4 0x63236820 DUP5 PUSH3 0x9B JUMP JUMPDEST PUSH3 0x95 SWAP2 SWAP1 PUSH3 0xD0 JUMP JUMPDEST SWAP3 SWAP2 POP POP JUMP JUMPDEST PUSH1 0x0 PUSH5 0xFFFFFFFFFF DUP4 DUP2 AND SWAP1 DUP4 AND DUP2 DUP2 LT ISZERO PUSH3 0xC8 JUMPI PUSH4 0x4E487B71 PUSH1 0xE0 SHL PUSH1 0x0 MSTORE PUSH1 0x11 PUSH1 0x4 MSTORE PUSH1 0x24 PUSH1 0x0 REVERT JUMPDEST SUB SWAP4 SWAP3 POP POP POP JUMP JUMPDEST PUSH1 0x0 PUSH5 0xFFFFFFFFFF DUP1 DUP5 AND DUP1 PUSH3 0xF7 JUMPI PUSH4 0x4E487B71 PUSH1 0xE0 SHL PUSH1 0x0 MSTORE PUSH1 0x12 PUSH1 0x4 MSTORE PUSH1 0x24 PUSH1 0x0 REVERT JUMPDEST SWAP3 AND SWAP2 SWAP1 SWAP2 DIV SWAP3 SWAP2 POP POP JUMP JUMPDEST PUSH2 0x4D5C DUP1 PUSH3 0x113 PUSH1 0x0 CODECOPY PUSH1 0x0 RETURN INVALID PUSH1 0x80 PUSH1 0x40 MSTORE PUSH1 0x4 CALLDATASIZE LT PUSH2 0x118 JUMPI PUSH1 0x0 CALLDATALOAD PUSH1 0xE0 SHR DUP1 PUSH4 0xC682CCE4 GT PUSH2 0xA0 JUMPI DUP1 PUSH4 0xDC9961EB GT PUSH2 0x64 JUMPI DUP1 PUSH4 0xDC9961EB EQ PUSH2 0x332 JUMPI DUP1 PUSH4 0xE0C6190D EQ PUSH2 0x352 JUMPI DUP1 PUSH4 0xE9E1DBEF EQ PUSH2 0x377 JUMPI DUP1 PUSH4 0xF121AE7E EQ PUSH2 0x38A JUMPI DUP1 PUSH4 0xF3FEF3A3 EQ PUSH2 0x39D JUMPI PUSH2 0x158 JUMP JUMPDEST DUP1 PUSH4 0xC682CCE4 EQ PUSH2 0x2C0 JUMPI DUP1 PUSH4 0xCED72F87 EQ PUSH2 0x2D5 JUMPI DUP1 PUSH4 0xCF0B5E45 EQ PUSH2 0x2EA JUMPI DUP1 PUSH4 0xCF783D8A EQ PUSH2 0x2FD JUMPI DUP1 PUSH4 0xD10FA144 EQ PUSH2 0x31F JUMPI PUSH2 0x158 JUMP JUMPDEST DUP1 PUSH4 0x6A1DB1BF GT PUSH2 0xE7 JUMPI DUP1 PUSH4 0x6A1DB1BF EQ PUSH2 0x229 JUMPI DUP1 PUSH4 0x8F283970 EQ PUSH2 0x249 JUMPI DUP1 PUSH4 0xA65A0068 EQ PUSH2 0x269 JUMPI DUP1 PUSH4 0xAA58A5B0 EQ PUSH2 0x28B JUMPI DUP1 PUSH4 0xAB7E0909 EQ PUSH2 0x2A0 JUMPI PUSH2 0x158 JUMP JUMPDEST DUP1 PUSH4 0x53149FA EQ PUSH2 0x1AA JUMPI DUP1 PUSH4 0x1385D24C EQ PUSH2 0x1CC JUMPI DUP1 PUSH4 0x1CCB3371 EQ PUSH2 0x1E1 JUMPI DUP1 PUSH4 0x557ED1BA EQ PUSH2 0x20C JUMPI PUSH2 0x158 JUMP JUMPDEST CALLDATASIZE PUSH2 0x158 JUMPI PUSH1 0x40 DUP1 MLOAD CALLER DUP2 MSTORE CALLVALUE PUSH1 0x20 DUP3 ADD MSTORE PUSH32 0x830D2D700A97AF574B186C80D40429385D24241565B08A7C559BA283A964D9B1 SWAP2 ADD JUMPDEST PUSH1 0x40 MLOAD DUP1 SWAP2 SUB SWAP1 LOG1 STOP JUMPDEST PUSH32 0x19525A32AFAAD9A5491805C356597487A306FC2F4E8541D8D55E1FE951091E60 PUSH1 0x40 MLOAD PUSH2 0x14E SWAP1 PUSH1 0x20 DUP1 DUP3 MSTORE PUSH1 0x10 SWAP1 DUP3 ADD MSTORE PUSH16 0x2AB735B737BBB710333AB731BA34B7B7 PUSH1 0x81 SHL PUSH1 0x40 DUP3 ADD MSTORE PUSH1 0x60 ADD SWAP1 JUMP JUMPDEST CALLVALUE DUP1 ISZERO PUSH2 0x1B6 JUMPI PUSH1 0x0 DUP1 REVERT JUMPDEST POP PUSH2 0x1CA PUSH2 0x1C5 CALLDATASIZE PUSH1 0x4 PUSH2 0x447A JUMP JUMPDEST PUSH2 0x3B0 JUMP JUMPDEST STOP JUMPDEST CALLVALUE DUP1 ISZERO PUSH2 0x1D8 JUMPI PUSH1 0x0 DUP1 REVERT JUMPDEST POP PUSH2 0x1CA PUSH2 0x5DA JUMP JUMPDEST CALLVALUE DUP1 ISZERO PUSH2 0x1ED JUMPI PUSH1 0x0 DUP1 REVERT JUMPDEST POP PUSH2 0x1F6 PUSH2 0x618 JUMP JUMPDEST PUSH1 0x40 MLOAD PUSH2 0x203 SWAP2 SWAP1 PUSH2 0x449E JUMP JUMPDEST PUSH1 0x40 MLOAD DUP1 SWAP2 SUB SWAP1 RETURN JUMPDEST CALLVALUE DUP1 ISZERO PUSH2 0x218 JUMPI PUSH1 0x0 DUP1 REVERT JUMPDEST POP TIMESTAMP JUMPDEST PUSH1 0x40 MLOAD SWAP1 DUP2 MSTORE PUSH1 0x20 ADD PUSH2 0x203 JUMP JUMPDEST CALLVALUE DUP1 ISZERO PUSH2 0x235 JUMPI PUSH1 0x0 DUP1 REVERT JUMPDEST POP PUSH2 0x1CA PUSH2 0x244 CALLDATASIZE PUSH1 0x4 PUSH2 0x4546 JUMP JUMPDEST PUSH2 0x761 JUMP JUMPDEST CALLVALUE DUP1 ISZERO PUSH2 0x255 JUMPI PUSH1 0x0 DUP1 REVERT JUMPDEST POP PUSH2 0x1CA PUSH2 0x264 CALLDATASIZE PUSH1 0x4 PUSH2 0x447A JUMP JUMPDEST PUSH2 0x790 JUMP JUMPDEST CALLVALUE DUP1 ISZERO PUSH2 0x275 JUMPI PUSH1 0x0 DUP1 REVERT JUMPDEST POP PUSH2 0x27E PUSH2 0x805 JUMP JUMPDEST PUSH1 0x40 MLOAD PUSH2 0x203 SWAP2 SWAP1 PUSH2 0x455F JUMP JUMPDEST CALLVALUE DUP1 ISZERO PUSH2 0x297 JUMPI PUSH1 0x0 DUP1 REVERT JUMPDEST POP PUSH2 0x1CA PUSH2 0xAB3 JUMP JUMPDEST CALLVALUE DUP1 ISZERO PUSH2 0x2AC JUMPI PUSH1 0x0 DUP1 REVERT JUMPDEST POP PUSH2 0x1CA PUSH2 0x2BB CALLDATASIZE PUSH1 0x4 PUSH2 0x447A JUMP JUMPDEST PUSH2 0xCB7 JUMP JUMPDEST CALLVALUE DUP1 ISZERO PUSH2 0x2CC JUMPI PUSH1 0x0 DUP1 REVERT JUMPDEST POP PUSH2 0x1F6 PUSH2 0xD9C JUMP JUMPDEST CALLVALUE DUP1 ISZERO PUSH2 0x2E1 JUMPI PUSH1 0x0 DUP1 REVERT JUMPDEST POP PUSH1 0x9 SLOAD PUSH2 0x21B JUMP JUMPDEST PUSH2 0x1CA PUSH2 0x2F8 CALLDATASIZE PUSH1 0x4 PUSH2 0x45E1 JUMP JUMPDEST PUSH2 0x124A JUMP JUMPDEST CALLVALUE DUP1 ISZERO PUSH2 0x309 JUMPI PUSH1 0x0 DUP1 REVERT JUMPDEST POP PUSH2 0x312 PUSH2 0x1773 JUMP JUMPDEST PUSH1 0x40 MLOAD PUSH2 0x203 SWAP2 SWAP1 PUSH2 0x4689 JUMP JUMPDEST PUSH2 0x1CA PUSH2 0x32D CALLDATASIZE PUSH1 0x4 PUSH2 0x47CF JUMP JUMPDEST PUSH2 0x1999 JUMP JUMPDEST CALLVALUE DUP1 ISZERO PUSH2 0x33E JUMPI PUSH1 0x0 DUP1 REVERT JUMPDEST POP PUSH2 0x1F6 PUSH2 0x34D CALLDATASIZE PUSH1 0x4 PUSH2 0x447A JUMP JUMPDEST PUSH2 0x2598 JUMP JUMPDEST CALLVALUE DUP1 ISZERO PUSH2 0x35E JUMPI PUSH1 0x0 DUP1 REVERT JUMPDEST POP PUSH2 0x367 PUSH2 0x2A6F JUMP JUMPDEST PUSH1 0x40 MLOAD SWAP1 ISZERO ISZERO DUP2 MSTORE PUSH1 0x20 ADD PUSH2 0x203 JUMP JUMPDEST PUSH2 0x1CA PUSH2 0x385 CALLDATASIZE PUSH1 0x4 PUSH2 0x48C9 JUMP JUMPDEST PUSH2 0x2C06 JUMP JUMPDEST PUSH2 0x1CA PUSH2 0x398 CALLDATASIZE PUSH1 0x4 PUSH2 0x48F5 JUMP JUMPDEST PUSH2 0x30DD JUMP JUMPDEST PUSH2 0x1CA PUSH2 0x3AB CALLDATASIZE PUSH1 0x4 PUSH2 0x4923 JUMP JUMPDEST PUSH2 0x346E JUMP JUMPDEST PUSH1 0x6 SLOAD PUSH1 0x1 PUSH1 0x1 PUSH1 0xA0 SHL SUB AND CALLER EQ PUSH2 0x3E3 JUMPI PUSH1 0x40 MLOAD PUSH3 0x461BCD PUSH1 0xE5 SHL DUP2 MSTORE PUSH1 0x4 ADD PUSH2 0x3DA SWAP1 PUSH2 0x494F JUMP JUMPDEST PUSH1 0x40 MLOAD DUP1 SWAP2 SUB SWAP1 REVERT JUMPDEST PUSH1 0x1 PUSH1 0x1 PUSH1 0xA0 SHL SUB DUP2 AND PUSH2 0x3F6 JUMPI PUSH1 0x0 DUP1 REVERT JUMPDEST PUSH2 0x3FF DUP2 PUSH2 0x3705 JUMP JUMPDEST PUSH2 0x44B JUMPI PUSH1 0x40 MLOAD PUSH3 0x461BCD PUSH1 0xE5 SHL DUP2 MSTORE PUSH1 0x20 PUSH1 0x4 DUP3 ADD MSTORE PUSH1 0x19 PUSH1 0x24 DUP3 ADD MSTORE PUSH32 0x455243323020746F6B656E206E6F742061646465642079657400000000000000 PUSH1 0x44 DUP3 ADD MSTORE PUSH1 0x64 ADD PUSH2 0x3DA JUMP JUMPDEST PUSH1 0x0 PUSH1 0x7 DUP1 SLOAD DUP1 PUSH1 0x20 MUL PUSH1 0x20 ADD PUSH1 0x40 MLOAD SWAP1 DUP2 ADD PUSH1 0x40 MSTORE DUP1 SWAP3 SWAP2 SWAP1 DUP2 DUP2 MSTORE PUSH1 0x20 ADD DUP3 DUP1 SLOAD DUP1 ISZERO PUSH2 0x4A3 JUMPI PUSH1 0x20 MUL DUP3 ADD SWAP2 SWAP1 PUSH1 0x0 MSTORE PUSH1 0x20 PUSH1 0x0 KECCAK256 SWAP1 JUMPDEST DUP2 SLOAD PUSH1 0x1 PUSH1 0x1 PUSH1 0xA0 SHL SUB AND DUP2 MSTORE PUSH1 0x1 SWAP1 SWAP2 ADD SWAP1 PUSH1 0x20 ADD DUP1 DUP4 GT PUSH2 0x485 JUMPI JUMPDEST POP POP POP POP POP SWAP1 POP PUSH1 0x0 DUP1 JUMPDEST DUP3 MLOAD DUP2 LT ISZERO PUSH2 0x504 JUMPI DUP4 PUSH1 0x1 PUSH1 0x1 PUSH1 0xA0 SHL SUB AND DUP4 DUP3 DUP2 MLOAD DUP2 LT PUSH2 0x4D3 JUMPI PUSH2 0x4D3 PUSH2 0x4986 JUMP JUMPDEST PUSH1 0x20 MUL PUSH1 0x20 ADD ADD MLOAD PUSH1 0x1 PUSH1 0x1 PUSH1 0xA0 SHL SUB AND EQ ISZERO PUSH2 0x4F2 JUMPI DUP1 SWAP2 POP PUSH2 0x504 JUMP JUMPDEST DUP1 PUSH2 0x4FC DUP2 PUSH2 0x49B2 JUMP JUMPDEST SWAP2 POP POP PUSH2 0x4AE JUMP JUMPDEST POP DUP1 JUMPDEST PUSH1 0x7 SLOAD PUSH2 0x516 SWAP1 PUSH1 0x1 SWAP1 PUSH2 0x49CD JUMP JUMPDEST DUP2 LT ISZERO PUSH2 0x5A1 JUMPI PUSH1 0x7 PUSH2 0x52A DUP3 PUSH1 0x1 PUSH2 0x49E4 JUMP JUMPDEST DUP2 SLOAD DUP2 LT PUSH2 0x53A JUMPI PUSH2 0x53A PUSH2 0x4986 JUMP JUMPDEST PUSH1 0x0 SWAP2 DUP3 MSTORE PUSH1 0x20 SWAP1 SWAP2 KECCAK256 ADD SLOAD PUSH1 0x7 DUP1 SLOAD PUSH1 0x1 PUSH1 0x1 PUSH1 0xA0 SHL SUB SWAP1 SWAP3 AND SWAP2 DUP4 SWAP1 DUP2 LT PUSH2 0x566 JUMPI PUSH2 0x566 PUSH2 0x4986 JUMP JUMPDEST PUSH1 0x0 SWAP2 DUP3 MSTORE PUSH1 0x20 SWAP1 SWAP2 KECCAK256 ADD DUP1 SLOAD PUSH1 0x1 PUSH1 0x1 PUSH1 0xA0 SHL SUB NOT AND PUSH1 0x1 PUSH1 0x1 PUSH1 0xA0 SHL SUB SWAP3 SWAP1 SWAP3 AND SWAP2 SWAP1 SWAP2 OR SWAP1 SSTORE DUP1 PUSH2 0x599 DUP2 PUSH2 0x49B2 JUMP JUMPDEST SWAP2 POP POP PUSH2 0x507 JUMP JUMPDEST POP PUSH1 0x7 DUP1 SLOAD DUP1 PUSH2 0x5B3 JUMPI PUSH2 0x5B3 PUSH2 0x49FC JUMP JUMPDEST PUSH1 0x0 DUP3 DUP2 MSTORE PUSH1 0x20 SWAP1 KECCAK256 DUP2 ADD PUSH1 0x0 NOT SWAP1 DUP2 ADD DUP1 SLOAD PUSH1 0x1 PUSH1 0x1 PUSH1 0xA0 SHL SUB NOT AND SWAP1 SSTORE ADD SWAP1 SSTORE POP POP POP JUMP JUMPDEST PUSH1 0x6 SLOAD PUSH1 0x1 PUSH1 0x1 PUSH1 0xA0 SHL SUB AND CALLER EQ PUSH2 0x604 JUMPI PUSH1 0x40 MLOAD PUSH3 0x461BCD PUSH1 0xE5 SHL DUP2 MSTORE PUSH1 0x4 ADD PUSH2 0x3DA SWAP1 PUSH2 0x494F JUMP JUMPDEST PUSH1 0x8 DUP1 SLOAD PUSH1 0xFF NOT DUP2 AND PUSH1 0xFF SWAP1 SWAP2 AND ISZERO OR SWAP1 SSTORE JUMP JUMPDEST PUSH1 0x6 SLOAD PUSH1 0x60 SWAP1 PUSH1 0x1 PUSH1 0x1 PUSH1 0xA0 SHL SUB AND CALLER EQ PUSH2 0x645 JUMPI PUSH1 0x40 MLOAD PUSH3 0x461BCD PUSH1 0xE5 SHL DUP2 MSTORE PUSH1 0x4 ADD PUSH2 0x3DA SWAP1 PUSH2 0x494F JUMP JUMPDEST PUSH1 0x3 SLOAD PUSH1 0x0 SWAP1 PUSH1 0x1 PUSH1 0x1 PUSH1 0x40 SHL SUB DUP2 GT ISZERO PUSH2 0x662 JUMPI PUSH2 0x662 PUSH2 0x4761 JUMP JUMPDEST PUSH1 0x40 MLOAD SWAP1 DUP1 DUP3 MSTORE DUP1 PUSH1 0x20 MUL PUSH1 0x20 ADD DUP3 ADD PUSH1 0x40 MSTORE DUP1 ISZERO PUSH2 0x69B JUMPI DUP2 PUSH1 0x20 ADD JUMPDEST PUSH2 0x688 PUSH2 0x4201 JUMP JUMPDEST DUP2 MSTORE PUSH1 0x20 ADD SWAP1 PUSH1 0x1 SWAP1 SUB SWAP1 DUP2 PUSH2 0x680 JUMPI SWAP1 POP JUMPDEST POP SWAP1 POP PUSH1 0x0 DUP1 JUMPDEST PUSH1 0x1 SLOAD DUP2 LT ISZERO PUSH2 0x759 JUMPI PUSH1 0x0 PUSH2 0x6DE PUSH1 0x1 DUP4 DUP2 SLOAD DUP2 LT PUSH2 0x6C4 JUMPI PUSH2 0x6C4 PUSH2 0x4986 JUMP JUMPDEST PUSH1 0x0 SWAP2 DUP3 MSTORE PUSH1 0x20 SWAP1 SWAP2 KECCAK256 ADD SLOAD PUSH1 0x1 PUSH1 0x1 PUSH1 0xA0 SHL SUB AND PUSH2 0x2598 JUMP JUMPDEST SWAP1 POP PUSH1 0x0 JUMPDEST DUP2 MLOAD DUP2 LT ISZERO PUSH2 0x744 JUMPI DUP2 DUP2 DUP2 MLOAD DUP2 LT PUSH2 0x6FE JUMPI PUSH2 0x6FE PUSH2 0x4986 JUMP JUMPDEST PUSH1 0x20 MUL PUSH1 0x20 ADD ADD MLOAD DUP6 DUP6 DUP2 MLOAD DUP2 LT PUSH2 0x718 JUMPI PUSH2 0x718 PUSH2 0x4986 JUMP JUMPDEST PUSH1 0x20 MUL PUSH1 0x20 ADD ADD DUP2 SWAP1 MSTORE POP DUP4 DUP1 PUSH2 0x72E SWAP1 PUSH2 0x49B2 JUMP JUMPDEST SWAP5 POP POP DUP1 DUP1 PUSH2 0x73C SWAP1 PUSH2 0x49B2 JUMP JUMPDEST SWAP2 POP POP PUSH2 0x6E3 JUMP JUMPDEST POP POP DUP1 DUP1 PUSH2 0x751 SWAP1 PUSH2 0x49B2 JUMP JUMPDEST SWAP2 POP POP PUSH2 0x6A2 JUMP JUMPDEST POP SWAP1 SWAP2 POP POP SWAP1 JUMP JUMPDEST PUSH1 0x6 SLOAD PUSH1 0x1 PUSH1 0x1 PUSH1 0xA0 SHL SUB AND CALLER EQ PUSH2 0x78B JUMPI PUSH1 0x40 MLOAD PUSH3 0x461BCD PUSH1 0xE5 SHL DUP2 MSTORE PUSH1 0x4 ADD PUSH2 0x3DA SWAP1 PUSH2 0x494F JUMP JUMPDEST PUSH1 0x9 SSTORE JUMP JUMPDEST PUSH1 0x6 SLOAD PUSH1 0x1 PUSH1 0x1 PUSH1 0xA0 SHL SUB AND CALLER EQ PUSH2 0x7BA JUMPI PUSH1 0x40 MLOAD PUSH3 0x461BCD PUSH1 0xE5 SHL DUP2 MSTORE PUSH1 0x4 ADD PUSH2 0x3DA SWAP1 PUSH2 0x494F JUMP JUMPDEST CALLER PUSH1 0x1 PUSH1 0x1 PUSH1 0xA0 SHL SUB DUP3 AND EQ DUP1 ISZERO PUSH2 0x7DA JUMPI POP PUSH1 0x1 PUSH1 0x1 PUSH1 0xA0 SHL SUB DUP2 AND ISZERO ISZERO JUMPDEST PUSH2 0x7E3 JUMPI PUSH1 0x0 DUP1 REVERT JUMPDEST PUSH1 0x6 DUP1 SLOAD PUSH1 0x1 PUSH1 0x1 PUSH1 0xA0 SHL SUB NOT AND PUSH1 0x1 PUSH1 0x1 PUSH1 0xA0 SHL SUB SWAP3 SWAP1 SWAP3 AND SWAP2 SWAP1 SWAP2 OR SWAP1 SSTORE JUMP JUMPDEST CALLER PUSH1 0x0 SWAP1 DUP2 MSTORE PUSH1 0x20 DUP2 SWAP1 MSTORE PUSH1 0x40 DUP2 KECCAK256 PUSH1 0x2 ADD SLOAD PUSH1 0x60 SWAP2 SWAP1 PUSH1 0x1 PUSH1 0x1 PUSH1 0x40 SHL SUB DUP2 GT ISZERO PUSH2 0x833 JUMPI PUSH2 0x833 PUSH2 0x4761 JUMP JUMPDEST PUSH1 0x40 MLOAD SWAP1 DUP1 DUP3 MSTORE DUP1 PUSH1 0x20 MUL PUSH1 0x20 ADD DUP3 ADD PUSH1 0x40 MSTORE DUP1 ISZERO PUSH2 0x85C JUMPI DUP2 PUSH1 0x20 ADD PUSH1 0x20 DUP3 MUL DUP1 CALLDATASIZE DUP4 CALLDATACOPY ADD SWAP1 POP JUMPDEST POP CALLER PUSH1 0x0 SWAP1 DUP2 MSTORE PUSH1 0x20 DUP2 DUP2 MSTORE PUSH1 0x40 SWAP2 DUP3 SWAP1 KECCAK256 PUSH1 0x2 ADD DUP1 SLOAD DUP4 MLOAD DUP2 DUP5 MUL DUP2 ADD DUP5 ADD SWAP1 SWAP5 MSTORE DUP1 DUP5 MSTORE SWAP4 SWAP5 POP SWAP2 SWAP3 SWAP1 DUP4 ADD DUP3 DUP3 DUP1 ISZERO PUSH2 0x8C1 JUMPI PUSH1 0x20 MUL DUP3 ADD SWAP2 SWAP1 PUSH1 0x0 MSTORE PUSH1 0x20 PUSH1 0x0 KECCAK256 SWAP1 JUMPDEST DUP2 SLOAD PUSH1 0x1 PUSH1 0x1 PUSH1 0xA0 SHL SUB AND DUP2 MSTORE PUSH1 0x1 SWAP1 SWAP2 ADD SWAP1 PUSH1 0x20 ADD DUP1 DUP4 GT PUSH2 0x8A3 JUMPI JUMPDEST POP POP POP POP POP SWAP1 POP PUSH1 0x0 DUP2 MLOAD PUSH1 0x1 PUSH1 0x1 PUSH1 0x40 SHL SUB DUP2 GT ISZERO PUSH2 0x8E3 JUMPI PUSH2 0x8E3 PUSH2 0x4761 JUMP JUMPDEST PUSH1 0x40 MLOAD SWAP1 DUP1 DUP3 MSTORE DUP1 PUSH1 0x20 MUL PUSH1 0x20 ADD DUP3 ADD PUSH1 0x40 MSTORE DUP1 ISZERO PUSH2 0x941 JUMPI DUP2 PUSH1 0x20 ADD JUMPDEST PUSH2 0x92E PUSH1 0x40 MLOAD DUP1 PUSH1 0x60 ADD PUSH1 0x40 MSTORE DUP1 PUSH1 0x0 PUSH1 0x1 PUSH1 0x1 PUSH1 0xA0 SHL SUB AND DUP2 MSTORE PUSH1 0x20 ADD PUSH1 0x0 DUP2 MSTORE PUSH1 0x20 ADD PUSH1 0x0 DUP2 MSTORE POP SWAP1 JUMP JUMPDEST DUP2 MSTORE PUSH1 0x20 ADD SWAP1 PUSH1 0x1 SWAP1 SUB SWAP1 DUP2 PUSH2 0x901 JUMPI SWAP1 POP JUMPDEST POP SWAP1 POP PUSH1 0x0 JUMPDEST CALLER PUSH1 0x0 SWAP1 DUP2 MSTORE PUSH1 0x20 DUP2 SWAP1 MSTORE PUSH1 0x40 SWAP1 KECCAK256 PUSH1 0x2 ADD SLOAD DUP2 LT ISZERO PUSH2 0xAAC JUMPI PUSH2 0x98E PUSH1 0x40 MLOAD DUP1 PUSH1 0x60 ADD PUSH1 0x40 MSTORE DUP1 PUSH1 0x0 PUSH1 0x1 PUSH1 0x1 PUSH1 0xA0 SHL SUB AND DUP2 MSTORE PUSH1 0x20 ADD PUSH1 0x0 DUP2 MSTORE PUSH1 0x20 ADD PUSH1 0x0 DUP2 MSTORE POP SWAP1 JUMP JUMPDEST DUP4 DUP3 DUP2 MLOAD DUP2 LT PUSH2 0x9A0 JUMPI PUSH2 0x9A0 PUSH2 0x4986 JUMP JUMPDEST PUSH1 0x20 SWAP1 DUP2 MUL SWAP2 SWAP1 SWAP2 ADD DUP2 ADD MLOAD PUSH1 0x1 PUSH1 0x1 PUSH1 0xA0 SHL SUB AND DUP3 MSTORE CALLER PUSH1 0x0 SWAP1 DUP2 MSTORE PUSH1 0x5 SWAP1 SWAP2 MSTORE PUSH1 0x40 DUP2 KECCAK256 DUP6 MLOAD SWAP1 SWAP2 SWAP1 DUP7 SWAP1 DUP6 SWAP1 DUP2 LT PUSH2 0x9DD JUMPI PUSH2 0x9DD PUSH2 0x4986 JUMP JUMPDEST PUSH1 0x20 MUL PUSH1 0x20 ADD ADD MLOAD PUSH1 0x1 PUSH1 0x1 PUSH1 0xA0 SHL SUB AND PUSH1 0x1 PUSH1 0x1 PUSH1 0xA0 SHL SUB AND DUP2 MSTORE PUSH1 0x20 ADD SWAP1 DUP2 MSTORE PUSH1 0x20 ADD PUSH1 0x0 KECCAK256 SLOAD DUP2 PUSH1 0x20 ADD DUP2 DUP2 MSTORE POP POP PUSH1 0x4 PUSH1 0x0 CALLER PUSH1 0x1 PUSH1 0x1 PUSH1 0xA0 SHL SUB AND PUSH1 0x1 PUSH1 0x1 PUSH1 0xA0 SHL SUB AND DUP2 MSTORE PUSH1 0x20 ADD SWAP1 DUP2 MSTORE PUSH1 0x20 ADD PUSH1 0x0 KECCAK256 PUSH1 0x0 DUP6 DUP5 DUP2 MLOAD DUP2 LT PUSH2 0xA48 JUMPI PUSH2 0xA48 PUSH2 0x4986 JUMP JUMPDEST PUSH1 0x20 MUL PUSH1 0x20 ADD ADD MLOAD PUSH1 0x1 PUSH1 0x1 PUSH1 0xA0 SHL SUB AND PUSH1 0x1 PUSH1 0x1 PUSH1 0xA0 SHL SUB AND DUP2 MSTORE PUSH1 0x20 ADD SWAP1 DUP2 MSTORE PUSH1 0x20 ADD PUSH1 0x0 KECCAK256 SLOAD DUP2 PUSH1 0x40 ADD DUP2 DUP2 MSTORE POP POP DUP1 DUP4 DUP4 DUP2 MLOAD DUP2 LT PUSH2 0xA8D JUMPI PUSH2 0xA8D PUSH2 0x4986 JUMP JUMPDEST PUSH1 0x20 MUL PUSH1 0x20 ADD ADD DUP2 SWAP1 MSTORE POP POP DUP1 DUP1 PUSH2 0xAA4 SWAP1 PUSH2 0x49B2 JUMP JUMPDEST SWAP2 POP POP PUSH2 0x947 JUMP JUMPDEST POP SWAP3 SWAP2 POP POP JUMP JUMPDEST PUSH1 0x6 SLOAD PUSH1 0x1 PUSH1 0x1 PUSH1 0xA0 SHL SUB AND CALLER EQ PUSH2 0xADD JUMPI PUSH1 0x40 MLOAD PUSH3 0x461BCD PUSH1 0xE5 SHL DUP2 MSTORE PUSH1 0x4 ADD PUSH2 0x3DA SWAP1 PUSH2 0x494F JUMP JUMPDEST PUSH1 0x0 PUSH2 0xAE8 TIMESTAMP PUSH2 0x37C6 JUMP JUMPDEST PUSH1 0xA SLOAD SWAP1 SWAP2 POP PUSH5 0xFFFFFFFFFF SWAP1 DUP2 AND SWAP1 DUP3 AND GT PUSH2 0xB17 JUMPI PUSH1 0x40 MLOAD PUSH3 0x461BCD PUSH1 0xE5 SHL DUP2 MSTORE PUSH1 0x4 ADD PUSH2 0x3DA SWAP1 PUSH2 0x4A12 JUMP JUMPDEST PUSH1 0xA SLOAD PUSH5 0xFFFFFFFFFF AND JUMPDEST DUP2 PUSH5 0xFFFFFFFFFF AND DUP2 PUSH5 0xFFFFFFFFFF AND GT PUSH2 0xC98 JUMPI PUSH5 0xFFFFFFFFFF DUP2 AND PUSH1 0x0 SWAP1 DUP2 MSTORE PUSH1 0x2 PUSH1 0x20 SWAP1 DUP2 MSTORE PUSH1 0x40 DUP1 DUP4 KECCAK256 DUP1 SLOAD DUP3 MLOAD DUP2 DUP6 MUL DUP2 ADD DUP6 ADD SWAP1 SWAP4 MSTORE DUP1 DUP4 MSTORE SWAP2 SWAP3 SWAP1 SWAP2 SWAP1 DUP5 SWAP1 DUP5 ADD JUMPDEST DUP3 DUP3 LT ISZERO PUSH2 0xC11 JUMPI PUSH1 0x0 DUP5 DUP2 MSTORE PUSH1 0x20 SWAP1 DUP2 SWAP1 KECCAK256 PUSH1 0x40 DUP1 MLOAD PUSH2 0x100 DUP2 ADD DUP3 MSTORE PUSH1 0x5 DUP7 MUL SWAP1 SWAP3 ADD DUP1 SLOAD DUP4 MSTORE PUSH1 0x1 DUP1 DUP3 ADD SLOAD PUSH1 0x1 PUSH1 0x1 PUSH1 0xA0 SHL SUB SWAP1 DUP2 AND DUP6 DUP8 ADD MSTORE PUSH1 0x2 DUP4 ADD SLOAD DUP2 AND SWAP4 DUP6 ADD SWAP4 SWAP1 SWAP4 MSTORE PUSH1 0x3 DUP3 ADD SLOAD SWAP3 DUP4 AND PUSH1 0x60 DUP6 ADD MSTORE PUSH5 0xFFFFFFFFFF PUSH1 0x1 PUSH1 0xA0 SHL DUP5 DIV AND PUSH1 0x80 DUP6 ADD MSTORE PUSH1 0xFF PUSH1 0x1 PUSH1 0xC8 SHL DUP5 DIV DUP2 AND ISZERO ISZERO PUSH1 0xA0 DUP7 ADD MSTORE PUSH1 0x1 PUSH1 0xD0 SHL SWAP1 SWAP4 DIV SWAP1 SWAP3 AND ISZERO ISZERO PUSH1 0xC0 DUP5 ADD MSTORE PUSH1 0x4 ADD SLOAD PUSH1 0xE0 DUP4 ADD MSTORE SWAP1 DUP4 MSTORE SWAP1 SWAP3 ADD SWAP2 ADD PUSH2 0xB6B JUMP JUMPDEST POP POP POP POP SWAP1 POP PUSH1 0x0 DUP2 MLOAD GT ISZERO PUSH2 0xC85 JUMPI PUSH1 0x0 JUMPDEST DUP2 MLOAD DUP2 LT ISZERO PUSH2 0xC83 JUMPI DUP2 DUP2 DUP2 MLOAD DUP2 LT PUSH2 0xC3F JUMPI PUSH2 0xC3F PUSH2 0x4986 JUMP JUMPDEST PUSH1 0x20 MUL PUSH1 0x20 ADD ADD MLOAD PUSH1 0xC0 ADD MLOAD PUSH2 0xC71 JUMPI PUSH2 0xC71 DUP3 DUP3 DUP2 MLOAD DUP2 LT PUSH2 0xC64 JUMPI PUSH2 0xC64 PUSH2 0x4986 JUMP JUMPDEST PUSH1 0x20 MUL PUSH1 0x20 ADD ADD MLOAD PUSH2 0x37E9 JUMP JUMPDEST DUP1 PUSH2 0xC7B DUP2 PUSH2 0x49B2 JUMP JUMPDEST SWAP2 POP POP PUSH2 0xC24 JUMP JUMPDEST POP JUMPDEST POP DUP1 PUSH2 0xC90 DUP2 PUSH2 0x4A59 JUMP JUMPDEST SWAP2 POP POP PUSH2 0xB22 JUMP JUMPDEST POP PUSH1 0xA DUP1 SLOAD PUSH5 0xFFFFFFFFFF NOT AND PUSH5 0xFFFFFFFFFF SWAP3 SWAP1 SWAP3 AND SWAP2 SWAP1 SWAP2 OR SWAP1 SSTORE JUMP JUMPDEST PUSH1 0x6 SLOAD PUSH1 0x1 PUSH1 0x1 PUSH1 0xA0 SHL SUB AND CALLER EQ PUSH2 0xCE1 JUMPI PUSH1 0x40 MLOAD PUSH3 0x461BCD PUSH1 0xE5 SHL DUP2 MSTORE PUSH1 0x4 ADD PUSH2 0x3DA SWAP1 PUSH2 0x494F JUMP JUMPDEST PUSH1 0x1 PUSH1 0x1 PUSH1 0xA0 SHL SUB DUP2 AND PUSH2 0xCF4 JUMPI PUSH1 0x0 DUP1 REVERT JUMPDEST PUSH2 0xCFD DUP2 PUSH2 0x3705 JUMP JUMPDEST ISZERO PUSH2 0xD4A JUMPI PUSH1 0x40 MLOAD PUSH3 0x461BCD PUSH1 0xE5 SHL DUP2 MSTORE PUSH1 0x20 PUSH1 0x4 DUP3 ADD MSTORE PUSH1 0x19 PUSH1 0x24 DUP3 ADD MSTORE PUSH32 0x455243323020746F6B656E20616C726561647920616464656400000000000000 PUSH1 0x44 DUP3 ADD MSTORE PUSH1 0x64 ADD PUSH2 0x3DA JUMP JUMPDEST PUSH1 0x7 DUP1 SLOAD PUSH1 0x1 DUP2 ADD DUP3 SSTORE PUSH1 0x0 SWAP2 SWAP1 SWAP2 MSTORE PUSH32 0xA66CC928B5EDB82AF9BD49922954155AB7B0942694BEA4CE44661D9A8736C688 ADD DUP1 SLOAD PUSH1 0x1 PUSH1 0x1 PUSH1 0xA0 SHL SUB NOT AND PUSH1 0x1 PUSH1 0x1 PUSH1 0xA0 SHL SUB SWAP3 SWAP1 SWAP3 AND SWAP2 SWAP1 SWAP2 OR SWAP1 SSTORE JUMP JUMPDEST CALLER PUSH1 0x0 SWAP1 DUP2 MSTORE PUSH1 0x20 DUP2 DUP2 MSTORE PUSH1 0x40 DUP1 DUP4 KECCAK256 PUSH1 0x1 ADD DUP1 SLOAD DUP3 MLOAD DUP2 DUP6 MUL DUP2 ADD DUP6 ADD SWAP1 SWAP4 MSTORE DUP1 DUP4 MSTORE PUSH1 0x60 SWAP5 SWAP4 DUP4 ADD DUP3 DUP3 DUP1 ISZERO PUSH2 0xE21 JUMPI PUSH1 0x20 MUL DUP3 ADD SWAP2 SWAP1 PUSH1 0x0 MSTORE PUSH1 0x20 PUSH1 0x0 KECCAK256 SWAP1 PUSH1 0x0 SWAP1 JUMPDEST DUP3 DUP3 SWAP1 SLOAD SWAP1 PUSH2 0x100 EXP SWAP1 DIV PUSH5 0xFFFFFFFFFF AND PUSH5 0xFFFFFFFFFF AND DUP2 MSTORE PUSH1 0x20 ADD SWAP1 PUSH1 0x5 ADD SWAP1 PUSH1 0x20 DUP3 PUSH1 0x4 ADD DIV SWAP3 DUP4 ADD SWAP3 PUSH1 0x1 SUB DUP3 MUL SWAP2 POP DUP1 DUP5 GT PUSH2 0xDE2 JUMPI SWAP1 POP JUMPDEST POP POP POP POP POP SWAP1 POP PUSH1 0x0 DUP1 JUMPDEST DUP3 MLOAD DUP2 LT ISZERO PUSH2 0xF60 JUMPI PUSH1 0x0 PUSH1 0x2 PUSH1 0x0 DUP6 DUP5 DUP2 MLOAD DUP2 LT PUSH2 0xE4D JUMPI PUSH2 0xE4D PUSH2 0x4986 JUMP JUMPDEST PUSH1 0x20 MUL PUSH1 0x20 ADD ADD MLOAD PUSH5 0xFFFFFFFFFF AND PUSH5 0xFFFFFFFFFF AND DUP2 MSTORE PUSH1 0x20 ADD SWAP1 DUP2 MSTORE PUSH1 0x20 ADD PUSH1 0x0 KECCAK256 DUP1 SLOAD DUP1 PUSH1 0x20 MUL PUSH1 0x20 ADD PUSH1 0x40 MLOAD SWAP1 DUP2 ADD PUSH1 0x40 MSTORE DUP1 SWAP3 SWAP2 SWAP1 DUP2 DUP2 MSTORE PUSH1 0x20 ADD PUSH1 0x0 SWAP1 JUMPDEST DUP3 DUP3 LT ISZERO PUSH2 0xF37 JUMPI PUSH1 0x0 DUP5 DUP2 MSTORE PUSH1 0x20 SWAP1 DUP2 SWAP1 KECCAK256 PUSH1 0x40 DUP1 MLOAD PUSH2 0x100 DUP2 ADD DUP3 MSTORE PUSH1 0x5 DUP7 MUL SWAP1 SWAP3 ADD DUP1 SLOAD DUP4 MSTORE PUSH1 0x1 DUP1 DUP3 ADD SLOAD PUSH1 0x1 PUSH1 0x1 PUSH1 0xA0 SHL SUB SWAP1 DUP2 AND DUP6 DUP8 ADD MSTORE PUSH1 0x2 DUP4 ADD SLOAD DUP2 AND SWAP4 DUP6 ADD SWAP4 SWAP1 SWAP4 MSTORE PUSH1 0x3 DUP3 ADD SLOAD SWAP3 DUP4 AND PUSH1 0x60 DUP6 ADD MSTORE PUSH5 0xFFFFFFFFFF PUSH1 0x1 PUSH1 0xA0 SHL DUP5 DIV AND PUSH1 0x80 DUP6 ADD MSTORE PUSH1 0xFF PUSH1 0x1 PUSH1 0xC8 SHL DUP5 DIV DUP2 AND ISZERO ISZERO PUSH1 0xA0 DUP7 ADD MSTORE PUSH1 0x1 PUSH1 0xD0 SHL SWAP1 SWAP4 DIV SWAP1 SWAP3 AND ISZERO ISZERO PUSH1 0xC0 DUP5 ADD MSTORE PUSH1 0x4 ADD SLOAD PUSH1 0xE0 DUP4 ADD MSTORE SWAP1 DUP4 MSTORE SWAP1 SWAP3 ADD SWAP2 ADD PUSH2 0xE91 JUMP JUMPDEST POP POP POP POP SWAP1 POP DUP1 MLOAD DUP4 PUSH2 0xF4A SWAP2 SWAP1 PUSH2 0x49E4 JUMP JUMPDEST SWAP3 POP POP DUP1 DUP1 PUSH2 0xF58 SWAP1 PUSH2 0x49B2 JUMP JUMPDEST SWAP2 POP POP PUSH2 0xE2C JUMP JUMPDEST POP PUSH1 0x0 DUP2 PUSH1 0x1 PUSH1 0x1 PUSH1 0x40 SHL SUB DUP2 GT ISZERO PUSH2 0xF7B JUMPI PUSH2 0xF7B PUSH2 0x4761 JUMP JUMPDEST PUSH1 0x40 MLOAD SWAP1 DUP1 DUP3 MSTORE DUP1 PUSH1 0x20 MUL PUSH1 0x20 ADD DUP3 ADD PUSH1 0x40 MSTORE DUP1 ISZERO PUSH2 0xFB4 JUMPI DUP2 PUSH1 0x20 ADD JUMPDEST PUSH2 0xFA1 PUSH2 0x4201 JUMP JUMPDEST DUP2 MSTORE PUSH1 0x20 ADD SWAP1 PUSH1 0x1 SWAP1 SUB SWAP1 DUP2 PUSH2 0xF99 JUMPI SWAP1 POP JUMPDEST POP SWAP1 POP PUSH1 0x0 DUP3 PUSH1 0x1 PUSH1 0x1 PUSH1 0x40 SHL SUB DUP2 GT ISZERO PUSH2 0xFD1 JUMPI PUSH2 0xFD1 PUSH2 0x4761 JUMP JUMPDEST PUSH1 0x40 MLOAD SWAP1 DUP1 DUP3 MSTORE DUP1 PUSH1 0x20 MUL PUSH1 0x20 ADD DUP3 ADD PUSH1 0x40 MSTORE DUP1 ISZERO PUSH2 0x100A JUMPI DUP2 PUSH1 0x20 ADD JUMPDEST PUSH2 0xFF7 PUSH2 0x4201 JUMP JUMPDEST DUP2 MSTORE PUSH1 0x20 ADD SWAP1 PUSH1 0x1 SWAP1 SUB SWAP1 DUP2 PUSH2 0xFEF JUMPI SWAP1 POP JUMPDEST POP SWAP1 POP PUSH1 0x0 DUP1 JUMPDEST DUP6 MLOAD DUP2 LT ISZERO PUSH2 0x11CE JUMPI PUSH1 0x2 PUSH1 0x0 DUP8 DUP4 DUP2 MLOAD DUP2 LT PUSH2 0x1030 JUMPI PUSH2 0x1030 PUSH2 0x4986 JUMP JUMPDEST PUSH1 0x20 MUL PUSH1 0x20 ADD ADD MLOAD PUSH5 0xFFFFFFFFFF AND PUSH5 0xFFFFFFFFFF AND DUP2 MSTORE PUSH1 0x20 ADD SWAP1 DUP2 MSTORE PUSH1 0x20 ADD PUSH1 0x0 KECCAK256 DUP1 SLOAD DUP1 PUSH1 0x20 MUL PUSH1 0x20 ADD PUSH1 0x40 MLOAD SWAP1 DUP2 ADD PUSH1 0x40 MSTORE DUP1 SWAP3 SWAP2 SWAP1 DUP2 DUP2 MSTORE PUSH1 0x20 ADD PUSH1 0x0 SWAP1 JUMPDEST DUP3 DUP3 LT ISZERO PUSH2 0x111A JUMPI PUSH1 0x0 DUP5 DUP2 MSTORE PUSH1 0x20 SWAP1 DUP2 SWAP1 KECCAK256 PUSH1 0x40 DUP1 MLOAD PUSH2 0x100 DUP2 ADD DUP3 MSTORE PUSH1 0x5 DUP7 MUL SWAP1 SWAP3 ADD DUP1 SLOAD DUP4 MSTORE PUSH1 0x1 DUP1 DUP3 ADD SLOAD PUSH1 0x1 PUSH1 0x1 PUSH1 0xA0 SHL SUB SWAP1 DUP2 AND DUP6 DUP8 ADD MSTORE PUSH1 0x2 DUP4 ADD SLOAD DUP2 AND SWAP4 DUP6 ADD SWAP4 SWAP1 SWAP4 MSTORE PUSH1 0x3 DUP3 ADD SLOAD SWAP3 DUP4 AND PUSH1 0x60 DUP6 ADD MSTORE PUSH5 0xFFFFFFFFFF PUSH1 0x1 PUSH1 0xA0 SHL DUP5 DIV AND PUSH1 0x80 DUP6 ADD MSTORE PUSH1 0xFF PUSH1 0x1 PUSH1 0xC8 SHL DUP5 DIV DUP2 AND ISZERO ISZERO PUSH1 0xA0 DUP7 ADD MSTORE PUSH1 0x1 PUSH1 0xD0 SHL SWAP1 SWAP4 DIV SWAP1 SWAP3 AND ISZERO ISZERO PUSH1 0xC0 DUP5 ADD MSTORE PUSH1 0x4 ADD SLOAD PUSH1 0xE0 DUP4 ADD MSTORE SWAP1 DUP4 MSTORE SWAP1 SWAP3 ADD SWAP2 ADD PUSH2 0x1074 JUMP JUMPDEST POP POP POP POP SWAP4 POP PUSH1 0x0 JUMPDEST DUP5 MLOAD DUP2 LT ISZERO PUSH2 0x11BB JUMPI CALLER PUSH1 0x1 PUSH1 0x1 PUSH1 0xA0 SHL SUB AND DUP6 DUP3 DUP2 MLOAD DUP2 LT PUSH2 0x1148 JUMPI PUSH2 0x1148 PUSH2 0x4986 JUMP JUMPDEST PUSH1 0x20 MUL PUSH1 0x20 ADD ADD MLOAD PUSH1 0x20 ADD MLOAD PUSH1 0x1 PUSH1 0x1 PUSH1 0xA0 SHL SUB AND EQ ISZERO PUSH2 0x11A9 JUMPI DUP5 DUP2 DUP2 MLOAD DUP2 LT PUSH2 0x1175 JUMPI PUSH2 0x1175 PUSH2 0x4986 JUMP JUMPDEST PUSH1 0x20 MUL PUSH1 0x20 ADD ADD MLOAD DUP5 DUP5 DUP2 MLOAD DUP2 LT PUSH2 0x118F JUMPI PUSH2 0x118F PUSH2 0x4986 JUMP JUMPDEST PUSH1 0x20 MUL PUSH1 0x20 ADD ADD DUP2 SWAP1 MSTORE POP DUP3 DUP1 PUSH2 0x11A5 SWAP1 PUSH2 0x49B2 JUMP JUMPDEST SWAP4 POP POP JUMPDEST DUP1 PUSH2 0x11B3 DUP2 PUSH2 0x49B2 JUMP JUMPDEST SWAP2 POP POP PUSH2 0x1123 JUMP JUMPDEST POP DUP1 PUSH2 0x11C6 DUP2 PUSH2 0x49B2 JUMP JUMPDEST SWAP2 POP POP PUSH2 0x1011 JUMP JUMPDEST POP PUSH1 0x0 JUMPDEST DUP3 MLOAD DUP2 LT ISZERO PUSH2 0x123F JUMPI PUSH2 0x1201 DUP4 DUP3 DUP2 MLOAD DUP2 LT PUSH2 0x11F0 JUMPI PUSH2 0x11F0 PUSH2 0x4986 JUMP JUMPDEST PUSH1 0x20 MUL PUSH1 0x20 ADD ADD MLOAD PUSH1 0x80 ADD MLOAD PUSH2 0x3D93 JUMP JUMPDEST DUP4 DUP3 DUP2 MLOAD DUP2 LT PUSH2 0x1213 JUMPI PUSH2 0x1213 PUSH2 0x4986 JUMP JUMPDEST PUSH1 0x20 SWAP1 DUP2 MUL SWAP2 SWAP1 SWAP2 ADD ADD MLOAD PUSH5 0xFFFFFFFFFF SWAP1 SWAP2 AND PUSH1 0x80 SWAP1 SWAP2 ADD MSTORE DUP1 PUSH2 0x1237 DUP2 PUSH2 0x49B2 JUMP JUMPDEST SWAP2 POP POP PUSH2 0x11D2 JUMP JUMPDEST POP SWAP1 SWAP6 SWAP5 POP POP POP POP POP JUMP JUMPDEST PUSH1 0x8 SLOAD PUSH1 0xFF AND PUSH2 0x176C JUMPI TIMESTAMP DUP5 PUSH5 0xFFFFFFFFFF AND GT PUSH2 0x12AA JUMPI PUSH1 0x40 MLOAD PUSH3 0x461BCD PUSH1 0xE5 SHL DUP2 MSTORE PUSH1 0x20 PUSH1 0x4 DUP3 ADD MSTORE PUSH1 0x1F PUSH1 0x24 DUP3 ADD MSTORE PUSH32 0x54696D652064617461206D75737420626520696E207468652066757475726500 PUSH1 0x44 DUP3 ADD MSTORE PUSH1 0x64 ADD PUSH2 0x3DA JUMP JUMPDEST PUSH2 0x12B6 PUSH2 0xE10 DUP6 PUSH2 0x4A94 JUMP JUMPDEST PUSH5 0xFFFFFFFFFF AND ISZERO PUSH2 0x1305 JUMPI PUSH1 0x40 MLOAD PUSH3 0x461BCD PUSH1 0xE5 SHL DUP2 MSTORE PUSH1 0x20 PUSH1 0x4 DUP3 ADD MSTORE PUSH1 0x18 PUSH1 0x24 DUP3 ADD MSTORE PUSH24 0x2A34B6B29036BAB9BA1031329037B7103A3432903437BAB9 PUSH1 0x41 SHL PUSH1 0x44 DUP3 ADD MSTORE PUSH1 0x64 ADD PUSH2 0x3DA JUMP JUMPDEST PUSH1 0x1 PUSH1 0x1 PUSH1 0xA0 SHL SUB DUP3 AND PUSH2 0x1351 JUMPI CALLVALUE PUSH1 0x64 PUSH1 0x9 SLOAD DUP6 PUSH2 0x1324 SWAP2 SWAP1 PUSH2 0x4AB8 JUMP JUMPDEST PUSH2 0x132E SWAP2 SWAP1 PUSH2 0x4AD7 JUMP JUMPDEST GT ISZERO PUSH2 0x134C JUMPI PUSH1 0x40 MLOAD PUSH3 0x461BCD PUSH1 0xE5 SHL DUP2 MSTORE PUSH1 0x4 ADD PUSH2 0x3DA SWAP1 PUSH2 0x4AEB JUMP JUMPDEST PUSH2 0x13DD JUMP JUMPDEST PUSH2 0x135A DUP3 PUSH2 0x3705 JUMP JUMPDEST PUSH2 0x1376 JUMPI PUSH1 0x40 MLOAD PUSH3 0x461BCD PUSH1 0xE5 SHL DUP2 MSTORE PUSH1 0x4 ADD PUSH2 0x3DA SWAP1 PUSH2 0x4B2F JUMP JUMPDEST DUP1 PUSH1 0x40 ADD CALLDATALOAD DUP4 EQ PUSH2 0x13DD JUMPI PUSH1 0x40 MLOAD PUSH3 0x461BCD PUSH1 0xE5 SHL DUP2 MSTORE PUSH1 0x20 PUSH1 0x4 DUP3 ADD MSTORE PUSH1 0x2B PUSH1 0x24 DUP3 ADD MSTORE PUSH32 0x5061796C6F6164206D757374206265207468652073616D652061732076616C75 PUSH1 0x44 DUP3 ADD MSTORE PUSH11 0x19481C195C9B5A5D1D1959 PUSH1 0xAA SHL PUSH1 0x64 DUP3 ADD MSTORE PUSH1 0x84 ADD PUSH2 0x3DA JUMP JUMPDEST PUSH1 0x0 PUSH2 0x13E8 DUP6 PUSH2 0x37C6 JUMP JUMPDEST PUSH5 0xFFFFFFFFFF DUP2 AND PUSH1 0x0 SWAP1 DUP2 MSTORE PUSH1 0x2 PUSH1 0x20 MSTORE PUSH1 0x40 DUP2 KECCAK256 SWAP2 SWAP3 POP PUSH2 0x140E CALLER DUP10 DUP8 DUP7 DUP11 PUSH2 0x3DAF JUMP JUMPDEST DUP3 SLOAD PUSH1 0x1 DUP1 DUP3 ADD DUP6 SSTORE PUSH1 0x0 DUP6 DUP2 MSTORE PUSH1 0x20 SWAP1 DUP2 SWAP1 KECCAK256 DUP5 MLOAD PUSH1 0x5 SWAP1 SWAP5 MUL ADD SWAP3 DUP4 SSTORE DUP4 DUP2 ADD MLOAD SWAP2 DUP4 ADD DUP1 SLOAD PUSH1 0x1 PUSH1 0x1 PUSH1 0xA0 SHL SUB NOT SWAP1 DUP2 AND PUSH1 0x1 PUSH1 0x1 PUSH1 0xA0 SHL SUB SWAP5 DUP6 AND OR SWAP1 SWAP2 SSTORE PUSH1 0x40 DUP1 DUP7 ADD MLOAD PUSH1 0x2 DUP7 ADD DUP1 SLOAD SWAP1 SWAP4 AND SWAP1 DUP6 AND OR SWAP1 SWAP2 SSTORE PUSH1 0x60 DUP1 DUP7 ADD MLOAD PUSH1 0x3 DUP7 ADD DUP1 SLOAD PUSH1 0x80 DUP1 DUP11 ADD MLOAD PUSH1 0xA0 DUP12 ADD MLOAD PUSH1 0xC0 DUP13 ADD MLOAD SWAP6 DUP11 AND PUSH1 0x1 PUSH1 0x1 PUSH1 0xC8 SHL SUB NOT SWAP1 SWAP5 AND SWAP4 SWAP1 SWAP4 OR PUSH1 0x1 PUSH1 0xA0 SHL PUSH5 0xFFFFFFFFFF SWAP3 DUP4 AND MUL OR PUSH2 0xFFFF PUSH1 0xC8 SHL NOT AND PUSH1 0x1 PUSH1 0xC8 SHL SWAP4 ISZERO ISZERO SWAP4 SWAP1 SWAP4 MUL PUSH1 0xFF PUSH1 0xD0 SHL NOT AND SWAP3 SWAP1 SWAP3 OR PUSH1 0x1 PUSH1 0xD0 SHL SWAP5 ISZERO ISZERO SWAP5 SWAP1 SWAP5 MUL SWAP4 SWAP1 SWAP4 OR SWAP1 SWAP2 SSTORE PUSH1 0xE0 DUP9 ADD MLOAD PUSH1 0x4 SWAP1 SWAP8 ADD SWAP7 SWAP1 SWAP7 SSTORE DUP3 MLOAD CALLER DUP2 MSTORE SWAP5 DUP16 AND SWAP4 DUP6 ADD SWAP4 SWAP1 SWAP4 MSTORE SWAP4 DUP9 AND SWAP1 DUP4 ADD MSTORE SWAP2 DUP2 ADD DUP10 SWAP1 MSTORE SWAP2 SWAP3 POP PUSH32 0x6E643CB89831CD75DED50B4ECEE0E313701B6002FC48E8B80A3C05447AB066E8 SWAP2 ADD PUSH1 0x40 MLOAD DUP1 SWAP2 SUB SWAP1 LOG1 PUSH32 0x2844C95BF1B4598DA931D527F903501ABC60FE0199C65DA52D5CE818C6C5E961 PUSH1 0x40 MLOAD PUSH2 0x1578 SWAP1 PUSH1 0x20 DUP1 DUP3 MSTORE PUSH1 0x6 SWAP1 DUP3 ADD MSTORE PUSH6 0x141D5CDA1959 PUSH1 0xD2 SHL PUSH1 0x40 DUP3 ADD MSTORE PUSH1 0x60 ADD SWAP1 JUMP JUMPDEST PUSH1 0x40 MLOAD DUP1 SWAP2 SUB SWAP1 LOG1 DUP1 MLOAD PUSH1 0x3 DUP1 SLOAD PUSH1 0x1 DUP2 ADD SWAP1 SWAP2 SSTORE PUSH32 0xC2575A0E9E593C00F959F8C92F12DB2869C3395A3B0502D05E2516446F71F85B ADD SSTORE PUSH5 0xFFFFFFFFFF DUP4 AND PUSH1 0x0 SWAP1 DUP2 MSTORE PUSH1 0x2 PUSH1 0x20 MSTORE PUSH1 0x40 SWAP1 KECCAK256 DUP3 SLOAD PUSH2 0x15D4 SWAP2 SWAP1 DUP5 SWAP1 PUSH2 0x4245 JUMP JUMPDEST POP PUSH2 0x15DF DUP4 DUP7 PUSH2 0x3E5F JUMP JUMPDEST CALLER PUSH1 0x0 SWAP1 DUP2 MSTORE PUSH1 0x4 PUSH1 0x20 SWAP1 DUP2 MSTORE PUSH1 0x40 DUP1 DUP4 KECCAK256 PUSH1 0x1 PUSH1 0x1 PUSH1 0xA0 SHL SUB DUP10 AND DUP5 MSTORE SWAP1 SWAP2 MSTORE DUP2 KECCAK256 DUP1 SLOAD DUP9 SWAP3 SWAP1 PUSH2 0x1612 SWAP1 DUP5 SWAP1 PUSH2 0x49E4 JUMP JUMPDEST SWAP1 SWAP2 SSTORE POP POP PUSH1 0x1 PUSH1 0x1 PUSH1 0xA0 SHL SUB DUP6 AND ISZERO PUSH2 0x1768 JUMPI PUSH1 0x1 PUSH1 0x1 PUSH1 0xA0 SHL SUB DUP6 AND PUSH4 0xD505ACCF PUSH2 0x1642 PUSH1 0x20 DUP8 ADD DUP8 PUSH2 0x447A JUMP JUMPDEST PUSH2 0x1652 PUSH1 0x40 DUP9 ADD PUSH1 0x20 DUP10 ADD PUSH2 0x447A JUMP JUMPDEST PUSH1 0x40 DUP9 ADD CALLDATALOAD PUSH1 0x60 DUP10 ADD CALLDATALOAD PUSH2 0x166C PUSH1 0xA0 DUP12 ADD PUSH1 0x80 DUP13 ADD PUSH2 0x4B74 JUMP JUMPDEST DUP11 PUSH1 0xA0 ADD CALLDATALOAD DUP12 PUSH1 0xC0 ADD CALLDATALOAD PUSH1 0x40 MLOAD DUP9 PUSH4 0xFFFFFFFF AND PUSH1 0xE0 SHL DUP2 MSTORE PUSH1 0x4 ADD PUSH2 0x1698 SWAP8 SWAP7 SWAP6 SWAP5 SWAP4 SWAP3 SWAP2 SWAP1 PUSH2 0x4B97 JUMP JUMPDEST PUSH1 0x0 PUSH1 0x40 MLOAD DUP1 DUP4 SUB DUP2 PUSH1 0x0 DUP8 DUP1 EXTCODESIZE ISZERO DUP1 ISZERO PUSH2 0x16B2 JUMPI PUSH1 0x0 DUP1 REVERT JUMPDEST POP GAS CALL ISZERO DUP1 ISZERO PUSH2 0x16C6 JUMPI RETURNDATASIZE PUSH1 0x0 DUP1 RETURNDATACOPY RETURNDATASIZE PUSH1 0x0 REVERT JUMPDEST POP POP PUSH1 0x40 MLOAD PUSH4 0x23B872DD PUSH1 0xE0 SHL DUP2 MSTORE PUSH1 0x1 PUSH1 0x1 PUSH1 0xA0 SHL SUB DUP9 AND SWAP3 POP PUSH4 0x23B872DD SWAP2 POP PUSH2 0x16FA SWAP1 CALLER SWAP1 ADDRESS SWAP1 DUP12 SWAP1 PUSH1 0x4 ADD PUSH2 0x4BD8 JUMP JUMPDEST PUSH1 0x20 PUSH1 0x40 MLOAD DUP1 DUP4 SUB DUP2 PUSH1 0x0 DUP8 DUP1 EXTCODESIZE ISZERO DUP1 ISZERO PUSH2 0x1714 JUMPI PUSH1 0x0 DUP1 REVERT JUMPDEST POP GAS CALL ISZERO DUP1 ISZERO PUSH2 0x1728 JUMPI RETURNDATASIZE PUSH1 0x0 DUP1 RETURNDATACOPY RETURNDATASIZE PUSH1 0x0 REVERT JUMPDEST POP POP POP POP PUSH1 0x40 MLOAD RETURNDATASIZE PUSH1 0x1F NOT PUSH1 0x1F DUP3 ADD AND DUP3 ADD DUP1 PUSH1 0x40 MSTORE POP DUP2 ADD SWAP1 PUSH2 0x174C SWAP2 SWAP1 PUSH2 0x4BFC JUMP JUMPDEST PUSH2 0x1768 JUMPI PUSH1 0x40 MLOAD PUSH3 0x461BCD PUSH1 0xE5 SHL DUP2 MSTORE PUSH1 0x4 ADD PUSH2 0x3DA SWAP1 PUSH2 0x4C1E JUMP JUMPDEST POP POP POP JUMPDEST POP POP POP POP POP JUMP JUMPDEST PUSH1 0x6 SLOAD PUSH1 0x60 SWAP1 PUSH1 0x1 PUSH1 0x1 PUSH1 0xA0 SHL SUB AND CALLER EQ PUSH2 0x17A0 JUMPI PUSH1 0x40 MLOAD PUSH3 0x461BCD PUSH1 0xE5 SHL DUP2 MSTORE PUSH1 0x4 ADD PUSH2 0x3DA SWAP1 PUSH2 0x494F JUMP JUMPDEST PUSH1 0x1 SLOAD PUSH1 0x0 SWAP1 PUSH1 0x1 PUSH1 0x1 PUSH1 0x40 SHL SUB DUP2 GT ISZERO PUSH2 0x17BD JUMPI PUSH2 0x17BD PUSH2 0x4761 JUMP JUMPDEST PUSH1 0x40 MLOAD SWAP1 DUP1 DUP3 MSTORE DUP1 PUSH1 0x20 MUL PUSH1 0x20 ADD DUP3 ADD PUSH1 0x40 MSTORE DUP1 ISZERO PUSH2 0x1811 JUMPI DUP2 PUSH1 0x20 ADD JUMPDEST PUSH1 0x40 DUP1 MLOAD PUSH1 0x80 DUP2 ADD DUP3 MSTORE PUSH1 0x0 DUP1 DUP3 MSTORE PUSH1 0x20 DUP3 ADD MSTORE PUSH1 0x60 SWAP2 DUP2 ADD DUP3 SWAP1 MSTORE DUP2 DUP2 ADD SWAP2 SWAP1 SWAP2 MSTORE DUP2 MSTORE PUSH1 0x20 ADD SWAP1 PUSH1 0x1 SWAP1 SUB SWAP1 DUP2 PUSH2 0x17DB JUMPI SWAP1 POP JUMPDEST POP SWAP1 POP PUSH1 0x0 JUMPDEST PUSH1 0x1 SLOAD DUP2 LT ISZERO PUSH2 0x1993 JUMPI PUSH1 0x0 DUP1 PUSH1 0x1 DUP4 DUP2 SLOAD DUP2 LT PUSH2 0x1837 JUMPI PUSH2 0x1837 PUSH2 0x4986 JUMP JUMPDEST PUSH1 0x0 SWAP2 DUP3 MSTORE PUSH1 0x20 DUP1 DUP4 KECCAK256 SWAP2 SWAP1 SWAP2 ADD SLOAD PUSH1 0x1 PUSH1 0x1 PUSH1 0xA0 SHL SUB SWAP1 DUP2 AND DUP5 MSTORE DUP4 DUP3 ADD SWAP5 SWAP1 SWAP5 MSTORE PUSH1 0x40 SWAP3 DUP4 ADD SWAP1 SWAP2 KECCAK256 DUP3 MLOAD PUSH1 0x80 DUP2 ADD DUP5 MSTORE DUP2 SLOAD SWAP5 DUP6 AND DUP2 MSTORE PUSH1 0x1 PUSH1 0xA0 SHL SWAP1 SWAP5 DIV PUSH1 0xFF AND ISZERO ISZERO DUP5 DUP4 ADD MSTORE PUSH1 0x1 DUP2 ADD DUP1 SLOAD DUP5 MLOAD DUP2 DUP6 MUL DUP2 ADD DUP6 ADD DUP7 MSTORE DUP2 DUP2 MSTORE SWAP3 SWAP5 DUP7 ADD SWAP4 DUP4 ADD DUP3 DUP3 DUP1 ISZERO PUSH2 0x18F8 JUMPI PUSH1 0x20 MUL DUP3 ADD SWAP2 SWAP1 PUSH1 0x0 MSTORE PUSH1 0x20 PUSH1 0x0 KECCAK256 SWAP1 PUSH1 0x0 SWAP1 JUMPDEST DUP3 DUP3 SWAP1 SLOAD SWAP1 PUSH2 0x100 EXP SWAP1 DIV PUSH5 0xFFFFFFFFFF AND PUSH5 0xFFFFFFFFFF AND DUP2 MSTORE PUSH1 0x20 ADD SWAP1 PUSH1 0x5 ADD SWAP1 PUSH1 0x20 DUP3 PUSH1 0x4 ADD DIV SWAP3 DUP4 ADD SWAP3 PUSH1 0x1 SUB DUP3 MUL SWAP2 POP DUP1 DUP5 GT PUSH2 0x18B9 JUMPI SWAP1 POP JUMPDEST POP POP POP POP POP DUP2 MSTORE PUSH1 0x20 ADD PUSH1 0x2 DUP3 ADD DUP1 SLOAD DUP1 PUSH1 0x20 MUL PUSH1 0x20 ADD PUSH1 0x40 MLOAD SWAP1 DUP2 ADD PUSH1 0x40 MSTORE DUP1 SWAP3 SWAP2 SWAP1 DUP2 DUP2 MSTORE PUSH1 0x20 ADD DUP3 DUP1 SLOAD DUP1 ISZERO PUSH2 0x195A JUMPI PUSH1 0x20 MUL DUP3 ADD SWAP2 SWAP1 PUSH1 0x0 MSTORE PUSH1 0x20 PUSH1 0x0 KECCAK256 SWAP1 JUMPDEST DUP2 SLOAD PUSH1 0x1 PUSH1 0x1 PUSH1 0xA0 SHL SUB AND DUP2 MSTORE PUSH1 0x1 SWAP1 SWAP2 ADD SWAP1 PUSH1 0x20 ADD DUP1 DUP4 GT PUSH2 0x193C JUMPI JUMPDEST POP POP POP POP POP DUP2 MSTORE POP POP DUP3 DUP3 DUP2 MLOAD DUP2 LT PUSH2 0x1975 JUMPI PUSH2 0x1975 PUSH2 0x4986 JUMP JUMPDEST PUSH1 0x20 MUL PUSH1 0x20 ADD ADD DUP2 SWAP1 MSTORE POP DUP1 DUP1 PUSH2 0x198B SWAP1 PUSH2 0x49B2 JUMP JUMPDEST SWAP2 POP POP PUSH2 0x1817 JUMP JUMPDEST POP SWAP1 POP SWAP1 JUMP JUMPDEST PUSH1 0x8 SLOAD PUSH1 0xFF AND PUSH2 0x2595 JUMPI PUSH1 0x1 DUP2 MLOAD GT DUP1 ISZERO PUSH2 0x19B5 JUMPI POP PUSH1 0x64 DUP2 MLOAD LT JUMPDEST PUSH2 0x1A27 JUMPI PUSH1 0x40 MLOAD PUSH3 0x461BCD PUSH1 0xE5 SHL DUP2 MSTORE PUSH1 0x20 PUSH1 0x4 DUP3 ADD MSTORE PUSH1 0x3B PUSH1 0x24 DUP3 ADD MSTORE PUSH32 0x4261746368206D7573742068617665206D6F7265207468616E206F6E65207472 PUSH1 0x44 DUP3 ADD MSTORE PUSH32 0x616E73616374696F6E20616E64206C657373207468616E203130300000000000 PUSH1 0x64 DUP3 ADD MSTORE PUSH1 0x84 ADD PUSH2 0x3DA JUMP JUMPDEST PUSH2 0x1A4B PUSH1 0x40 MLOAD DUP1 PUSH1 0x60 ADD PUSH1 0x40 MSTORE DUP1 PUSH1 0x0 DUP2 MSTORE PUSH1 0x20 ADD PUSH1 0x0 DUP2 MSTORE PUSH1 0x20 ADD PUSH1 0x0 DUP2 MSTORE POP SWAP1 JUMP JUMPDEST CALLER PUSH1 0x0 SWAP1 DUP2 MSTORE PUSH1 0x20 DUP2 DUP2 MSTORE PUSH1 0x40 DUP1 DUP4 KECCAK256 PUSH1 0x1 DUP2 ADD DUP1 SLOAD DUP4 MLOAD DUP2 DUP7 MUL DUP2 ADD DUP7 ADD SWAP1 SWAP5 MSTORE DUP1 DUP5 MSTORE SWAP2 SWAP5 SWAP4 SWAP1 SWAP2 SWAP1 DUP4 ADD DUP3 DUP3 DUP1 ISZERO PUSH2 0x1AD3 JUMPI PUSH1 0x20 MUL DUP3 ADD SWAP2 SWAP1 PUSH1 0x0 MSTORE PUSH1 0x20 PUSH1 0x0 KECCAK256 SWAP1 PUSH1 0x0 SWAP1 JUMPDEST DUP3 DUP3 SWAP1 SLOAD SWAP1 PUSH2 0x100 EXP SWAP1 DIV PUSH5 0xFFFFFFFFFF AND PUSH5 0xFFFFFFFFFF AND DUP2 MSTORE PUSH1 0x20 ADD SWAP1 PUSH1 0x5 ADD SWAP1 PUSH1 0x20 DUP3 PUSH1 0x4 ADD DIV SWAP3 DUP4 ADD SWAP3 PUSH1 0x1 SUB DUP3 MUL SWAP2 POP DUP1 DUP5 GT PUSH2 0x1A94 JUMPI SWAP1 POP JUMPDEST POP POP POP POP POP SWAP1 POP PUSH1 0x0 PUSH1 0x7 DUP1 SLOAD SWAP1 POP PUSH1 0x1 PUSH1 0x1 PUSH1 0x40 SHL SUB DUP2 GT ISZERO PUSH2 0x1AF9 JUMPI PUSH2 0x1AF9 PUSH2 0x4761 JUMP JUMPDEST PUSH1 0x40 MLOAD SWAP1 DUP1 DUP3 MSTORE DUP1 PUSH1 0x20 MUL PUSH1 0x20 ADD DUP3 ADD PUSH1 0x40 MSTORE DUP1 ISZERO PUSH2 0x1B22 JUMPI DUP2 PUSH1 0x20 ADD PUSH1 0x20 DUP3 MUL DUP1 CALLDATASIZE DUP4 CALLDATACOPY ADD SWAP1 POP JUMPDEST POP PUSH1 0x1 DUP5 ADD SLOAD SWAP1 SWAP2 POP PUSH1 0x0 SWAP1 PUSH2 0x1B39 SWAP1 PUSH1 0x64 PUSH2 0x49E4 JUMP JUMPDEST PUSH1 0x1 PUSH1 0x1 PUSH1 0x40 SHL SUB DUP2 GT ISZERO PUSH2 0x1B50 JUMPI PUSH2 0x1B50 PUSH2 0x4761 JUMP JUMPDEST PUSH1 0x40 MLOAD SWAP1 DUP1 DUP3 MSTORE DUP1 PUSH1 0x20 MUL PUSH1 0x20 ADD DUP3 ADD PUSH1 0x40 MSTORE DUP1 ISZERO PUSH2 0x1B79 JUMPI DUP2 PUSH1 0x20 ADD PUSH1 0x20 DUP3 MUL DUP1 CALLDATASIZE DUP4 CALLDATACOPY ADD SWAP1 POP JUMPDEST POP SWAP1 POP PUSH1 0x0 JUMPDEST DUP7 MLOAD DUP2 LT ISZERO PUSH2 0x1E51 JUMPI TIMESTAMP DUP8 DUP3 DUP2 MLOAD DUP2 LT PUSH2 0x1B9B JUMPI PUSH2 0x1B9B PUSH2 0x4986 JUMP JUMPDEST PUSH1 0x20 MUL PUSH1 0x20 ADD ADD MLOAD PUSH1 0x20 ADD MLOAD PUSH5 0xFFFFFFFFFF AND GT PUSH2 0x1BFB JUMPI PUSH1 0x40 MLOAD PUSH3 0x461BCD PUSH1 0xE5 SHL DUP2 MSTORE PUSH1 0x20 PUSH1 0x4 DUP3 ADD MSTORE PUSH1 0x1F PUSH1 0x24 DUP3 ADD MSTORE PUSH32 0x54696D652064617461206D75737420626520696E207468652066757475726500 PUSH1 0x44 DUP3 ADD MSTORE PUSH1 0x64 ADD PUSH2 0x3DA JUMP JUMPDEST PUSH2 0xE10 DUP8 DUP3 DUP2 MLOAD DUP2 LT PUSH2 0x1C10 JUMPI PUSH2 0x1C10 PUSH2 0x4986 JUMP JUMPDEST PUSH1 0x20 MUL PUSH1 0x20 ADD ADD MLOAD PUSH1 0x20 ADD MLOAD PUSH2 0x1C26 SWAP2 SWAP1 PUSH2 0x4A94 JUMP JUMPDEST PUSH5 0xFFFFFFFFFF AND ISZERO PUSH2 0x1C75 JUMPI PUSH1 0x40 MLOAD PUSH3 0x461BCD PUSH1 0xE5 SHL DUP2 MSTORE PUSH1 0x20 PUSH1 0x4 DUP3 ADD MSTORE PUSH1 0x18 PUSH1 0x24 DUP3 ADD MSTORE PUSH24 0x2A34B6B29036BAB9BA1031329037B7103A3432903437BAB9 PUSH1 0x41 SHL PUSH1 0x44 DUP3 ADD MSTORE PUSH1 0x64 ADD PUSH2 0x3DA JUMP JUMPDEST PUSH1 0x0 PUSH2 0x1C9D DUP9 DUP4 DUP2 MLOAD DUP2 LT PUSH2 0x1C8C JUMPI PUSH2 0x1C8C PUSH2 0x4986 JUMP JUMPDEST PUSH1 0x20 MUL PUSH1 0x20 ADD ADD MLOAD PUSH1 0x20 ADD MLOAD PUSH2 0x37C6 JUMP JUMPDEST SWAP1 POP PUSH2 0x1CA9 DUP2 DUP5 PUSH2 0x4143 JUMP JUMPDEST PUSH2 0x1CF7 JUMPI DUP1 DUP4 DUP9 PUSH1 0x40 ADD MLOAD DUP2 MLOAD DUP2 LT PUSH2 0x1CC4 JUMPI PUSH2 0x1CC4 PUSH2 0x4986 JUMP JUMPDEST PUSH1 0x20 MUL PUSH1 0x20 ADD ADD SWAP1 PUSH5 0xFFFFFFFFFF AND SWAP1 DUP2 PUSH5 0xFFFFFFFFFF AND DUP2 MSTORE POP POP PUSH1 0x1 DUP8 PUSH1 0x40 ADD DUP2 DUP2 MLOAD PUSH2 0x1CF3 SWAP2 SWAP1 PUSH2 0x49E4 JUMP JUMPDEST SWAP1 MSTORE POP JUMPDEST PUSH1 0x0 PUSH1 0x1 PUSH1 0x1 PUSH1 0xA0 SHL SUB AND DUP9 DUP4 DUP2 MLOAD DUP2 LT PUSH2 0x1D14 JUMPI PUSH2 0x1D14 PUSH2 0x4986 JUMP JUMPDEST PUSH1 0x20 MUL PUSH1 0x20 ADD ADD MLOAD PUSH1 0x60 ADD MLOAD PUSH1 0x1 PUSH1 0x1 PUSH1 0xA0 SHL SUB AND EQ ISZERO PUSH2 0x1D66 JUMPI DUP8 DUP3 DUP2 MLOAD DUP2 LT PUSH2 0x1D41 JUMPI PUSH2 0x1D41 PUSH2 0x4986 JUMP JUMPDEST PUSH1 0x20 MUL PUSH1 0x20 ADD ADD MLOAD PUSH1 0x40 ADD MLOAD DUP8 PUSH1 0x0 ADD DUP2 DUP2 MLOAD PUSH2 0x1D5E SWAP2 SWAP1 PUSH2 0x49E4 JUMP JUMPDEST SWAP1 MSTORE POP PUSH2 0x1E3E JUMP JUMPDEST PUSH2 0x1D8C DUP9 DUP4 DUP2 MLOAD DUP2 LT PUSH2 0x1D7B JUMPI PUSH2 0x1D7B PUSH2 0x4986 JUMP JUMPDEST PUSH1 0x20 MUL PUSH1 0x20 ADD ADD MLOAD PUSH1 0x60 ADD MLOAD PUSH2 0x3705 JUMP JUMPDEST PUSH2 0x1DA8 JUMPI PUSH1 0x40 MLOAD PUSH3 0x461BCD PUSH1 0xE5 SHL DUP2 MSTORE PUSH1 0x4 ADD PUSH2 0x3DA SWAP1 PUSH2 0x4B2F JUMP JUMPDEST PUSH2 0x1DCF DUP9 DUP4 DUP2 MLOAD DUP2 LT PUSH2 0x1DBD JUMPI PUSH2 0x1DBD PUSH2 0x4986 JUMP JUMPDEST PUSH1 0x20 MUL PUSH1 0x20 ADD ADD MLOAD PUSH1 0x60 ADD MLOAD DUP6 PUSH2 0x41A5 JUMP JUMPDEST PUSH2 0x1E3E JUMPI DUP8 DUP3 DUP2 MLOAD DUP2 LT PUSH2 0x1DE5 JUMPI PUSH2 0x1DE5 PUSH2 0x4986 JUMP JUMPDEST PUSH1 0x20 MUL PUSH1 0x20 ADD ADD MLOAD PUSH1 0x60 ADD MLOAD DUP5 DUP9 PUSH1 0x20 ADD MLOAD DUP2 MLOAD DUP2 LT PUSH2 0x1E07 JUMPI PUSH2 0x1E07 PUSH2 0x4986 JUMP JUMPDEST PUSH1 0x20 MUL PUSH1 0x20 ADD ADD SWAP1 PUSH1 0x1 PUSH1 0x1 PUSH1 0xA0 SHL SUB AND SWAP1 DUP2 PUSH1 0x1 PUSH1 0x1 PUSH1 0xA0 SHL SUB AND DUP2 MSTORE POP POP PUSH1 0x1 DUP8 PUSH1 0x20 ADD DUP2 DUP2 MLOAD PUSH2 0x1E3A SWAP2 SWAP1 PUSH2 0x49E4 JUMP JUMPDEST SWAP1 MSTORE POP JUMPDEST POP DUP1 PUSH2 0x1E49 DUP2 PUSH2 0x49B2 JUMP JUMPDEST SWAP2 POP POP PUSH2 0x1B7F JUMP JUMPDEST CALLVALUE PUSH1 0x64 PUSH1 0x9 SLOAD DUP9 PUSH1 0x0 ADD MLOAD PUSH2 0x1E66 SWAP2 SWAP1 PUSH2 0x4AB8 JUMP JUMPDEST PUSH2 0x1E70 SWAP2 SWAP1 PUSH2 0x4AD7 JUMP JUMPDEST GT ISZERO PUSH2 0x1E8E JUMPI PUSH1 0x40 MLOAD PUSH3 0x461BCD PUSH1 0xE5 SHL DUP2 MSTORE PUSH1 0x4 ADD PUSH2 0x3DA SWAP1 PUSH2 0x4AEB JUMP JUMPDEST POP PUSH1 0x0 JUMPDEST DUP2 MLOAD DUP2 LT ISZERO PUSH2 0x21D6 JUMPI DUP2 DUP2 DUP2 MLOAD DUP2 LT PUSH2 0x1EAD JUMPI PUSH2 0x1EAD PUSH2 0x4986 JUMP JUMPDEST PUSH1 0x20 MUL PUSH1 0x20 ADD ADD MLOAD PUSH5 0xFFFFFFFFFF AND PUSH1 0x0 EQ ISZERO PUSH2 0x1EC9 JUMPI PUSH2 0x21D6 JUMP JUMPDEST PUSH1 0x0 PUSH1 0x2 PUSH1 0x0 DUP5 DUP5 DUP2 MLOAD DUP2 LT PUSH2 0x1EE1 JUMPI PUSH2 0x1EE1 PUSH2 0x4986 JUMP JUMPDEST PUSH1 0x20 MUL PUSH1 0x20 ADD ADD MLOAD PUSH5 0xFFFFFFFFFF AND PUSH5 0xFFFFFFFFFF AND DUP2 MSTORE PUSH1 0x20 ADD SWAP1 DUP2 MSTORE PUSH1 0x20 ADD PUSH1 0x0 KECCAK256 SWAP1 POP PUSH1 0x0 JUMPDEST DUP9 MLOAD DUP2 PUSH2 0xFFFF AND LT ISZERO PUSH2 0x20ED JUMPI PUSH1 0x0 PUSH2 0x1F32 DUP11 DUP4 PUSH2 0xFFFF AND DUP2 MLOAD DUP2 LT PUSH2 0x1C8C JUMPI PUSH2 0x1C8C PUSH2 0x4986 JUMP JUMPDEST SWAP1 POP DUP5 DUP5 DUP2 MLOAD DUP2 LT PUSH2 0x1F46 JUMPI PUSH2 0x1F46 PUSH2 0x4986 JUMP JUMPDEST PUSH1 0x20 MUL PUSH1 0x20 ADD ADD MLOAD PUSH5 0xFFFFFFFFFF AND DUP2 PUSH5 0xFFFFFFFFFF AND EQ ISZERO PUSH2 0x20DA JUMPI PUSH1 0x0 PUSH2 0x1FD5 CALLER DUP13 DUP6 PUSH2 0xFFFF AND DUP2 MLOAD DUP2 LT PUSH2 0x1F7F JUMPI PUSH2 0x1F7F PUSH2 0x4986 JUMP JUMPDEST PUSH1 0x20 MUL PUSH1 0x20 ADD ADD MLOAD PUSH1 0x0 ADD MLOAD DUP14 DUP7 PUSH2 0xFFFF AND DUP2 MLOAD DUP2 LT PUSH2 0x1FA1 JUMPI PUSH2 0x1FA1 PUSH2 0x4986 JUMP JUMPDEST PUSH1 0x20 MUL PUSH1 0x20 ADD ADD MLOAD PUSH1 0x60 ADD MLOAD DUP6 DUP16 DUP9 PUSH2 0xFFFF AND DUP2 MLOAD DUP2 LT PUSH2 0x1FC4 JUMPI PUSH2 0x1FC4 PUSH2 0x4986 JUMP JUMPDEST PUSH1 0x20 MUL PUSH1 0x20 ADD ADD MLOAD PUSH1 0x40 ADD MLOAD PUSH2 0x3DAF JUMP JUMPDEST DUP5 SLOAD PUSH1 0x1 DUP2 DUP2 ADD DUP8 SSTORE PUSH1 0x0 DUP8 DUP2 MSTORE PUSH1 0x20 DUP1 DUP3 KECCAK256 DUP6 MLOAD PUSH1 0x5 SWAP1 SWAP6 MUL ADD DUP5 DUP2 SSTORE SWAP1 DUP6 ADD MLOAD DUP2 DUP5 ADD DUP1 SLOAD PUSH1 0x1 PUSH1 0x1 PUSH1 0xA0 SHL SUB SWAP3 DUP4 AND PUSH1 0x1 PUSH1 0x1 PUSH1 0xA0 SHL SUB NOT SWAP2 DUP3 AND OR SWAP1 SWAP2 SSTORE PUSH1 0x40 DUP8 ADD MLOAD PUSH1 0x2 DUP5 ADD DUP1 SLOAD SWAP2 DUP5 AND SWAP2 SWAP1 SWAP3 AND OR SWAP1 SSTORE PUSH1 0x60 DUP7 ADD MLOAD PUSH1 0x3 DUP1 DUP5 ADD DUP1 SLOAD PUSH1 0x80 DUP11 ADD MLOAD PUSH1 0xA0 DUP12 ADD MLOAD PUSH1 0xC0 DUP13 ADD MLOAD ISZERO ISZERO PUSH1 0x1 PUSH1 0xD0 SHL MUL PUSH1 0xFF PUSH1 0xD0 SHL NOT SWAP2 ISZERO ISZERO PUSH1 0x1 PUSH1 0xC8 SHL MUL SWAP2 SWAP1 SWAP2 AND PUSH2 0xFFFF PUSH1 0xC8 SHL NOT PUSH5 0xFFFFFFFFFF SWAP1 SWAP4 AND PUSH1 0x1 PUSH1 0xA0 SHL MUL PUSH1 0x1 PUSH1 0x1 PUSH1 0xC8 SHL SUB NOT SWAP1 SWAP5 AND SWAP7 SWAP1 SWAP8 AND SWAP6 SWAP1 SWAP6 OR SWAP2 SWAP1 SWAP2 OR AND SWAP4 SWAP1 SWAP4 OR SWAP2 SWAP1 SWAP2 OR SWAP1 SWAP2 SSTORE PUSH1 0xE0 SWAP1 SWAP6 ADD MLOAD PUSH1 0x4 SWAP1 SWAP2 ADD SSTORE DUP4 SLOAD SWAP2 DUP3 ADD DUP5 SSTORE SWAP3 SWAP1 SWAP3 MSTORE PUSH32 0xC2575A0E9E593C00F959F8C92F12DB2869C3395A3B0502D05E2516446F71F85B SWAP1 SWAP2 ADD SSTORE POP JUMPDEST POP DUP1 PUSH2 0x20E5 DUP2 PUSH2 0x4C55 JUMP JUMPDEST SWAP2 POP POP PUSH2 0x1F0A JUMP JUMPDEST POP DUP1 PUSH1 0x2 PUSH1 0x0 DUP6 DUP6 DUP2 MLOAD DUP2 LT PUSH2 0x2105 JUMPI PUSH2 0x2105 PUSH2 0x4986 JUMP JUMPDEST PUSH1 0x20 MUL PUSH1 0x20 ADD ADD MLOAD PUSH5 0xFFFFFFFFFF AND PUSH5 0xFFFFFFFFFF AND DUP2 MSTORE PUSH1 0x20 ADD SWAP1 DUP2 MSTORE PUSH1 0x20 ADD PUSH1 0x0 KECCAK256 SWAP1 DUP1 SLOAD PUSH2 0x2137 SWAP3 SWAP2 SWAP1 PUSH2 0x4245 JUMP JUMPDEST POP PUSH2 0x215B DUP4 DUP4 DUP2 MLOAD DUP2 LT PUSH2 0x214D JUMPI PUSH2 0x214D PUSH2 0x4986 JUMP JUMPDEST PUSH1 0x20 MUL PUSH1 0x20 ADD ADD MLOAD DUP7 PUSH2 0x4143 JUMP JUMPDEST PUSH2 0x21C3 JUMPI DUP3 DUP3 DUP2 MLOAD DUP2 LT PUSH2 0x2171 JUMPI PUSH2 0x2171 PUSH2 0x4986 JUMP JUMPDEST PUSH1 0x20 MUL PUSH1 0x20 ADD ADD MLOAD DUP7 PUSH1 0x1 ADD PUSH1 0x1 DUP2 PUSH1 0x1 DUP2 SLOAD ADD DUP1 DUP3 SSTORE DUP1 SWAP2 POP POP SUB SWAP1 PUSH1 0x0 MSTORE PUSH1 0x20 PUSH1 0x0 KECCAK256 SWAP1 PUSH1 0x6 SWAP2 DUP3 DUP3 DIV ADD SWAP2 SWAP1 MOD PUSH1 0x5 MUL PUSH2 0x100 EXP DUP2 SLOAD DUP2 PUSH5 0xFFFFFFFFFF MUL NOT AND SWAP1 DUP4 PUSH5 0xFFFFFFFFFF AND MUL OR SWAP1 SSTORE POP JUMPDEST POP DUP1 PUSH2 0x21CE DUP2 PUSH2 0x49B2 JUMP JUMPDEST SWAP2 POP POP PUSH2 0x1E92 JUMP JUMPDEST PUSH1 0x0 DUP6 PUSH1 0x2 ADD DUP1 SLOAD DUP1 PUSH1 0x20 MUL PUSH1 0x20 ADD PUSH1 0x40 MLOAD SWAP1 DUP2 ADD PUSH1 0x40 MSTORE DUP1 SWAP3 SWAP2 SWAP1 DUP2 DUP2 MSTORE PUSH1 0x20 ADD DUP3 DUP1 SLOAD DUP1 ISZERO PUSH2 0x2230 JUMPI PUSH1 0x20 MUL DUP3 ADD SWAP2 SWAP1 PUSH1 0x0 MSTORE PUSH1 0x20 PUSH1 0x0 KECCAK256 SWAP1 JUMPDEST DUP2 SLOAD PUSH1 0x1 PUSH1 0x1 PUSH1 0xA0 SHL SUB AND DUP2 MSTORE PUSH1 0x1 SWAP1 SWAP2 ADD SWAP1 PUSH1 0x20 ADD DUP1 DUP4 GT PUSH2 0x2212 JUMPI JUMPDEST POP POP POP POP POP SWAP1 POP PUSH1 0x0 SWAP2 POP JUMPDEST DUP4 MLOAD DUP3 LT ISZERO PUSH2 0x22D1 JUMPI PUSH2 0x2268 DUP5 DUP4 DUP2 MLOAD DUP2 LT PUSH2 0x225A JUMPI PUSH2 0x225A PUSH2 0x4986 JUMP JUMPDEST PUSH1 0x20 MUL PUSH1 0x20 ADD ADD MLOAD DUP3 PUSH2 0x41A5 JUMP JUMPDEST PUSH2 0x22BF JUMPI DUP4 DUP3 DUP2 MLOAD DUP2 LT PUSH2 0x227E JUMPI PUSH2 0x227E PUSH2 0x4986 JUMP JUMPDEST PUSH1 0x20 SWAP1 DUP2 MUL SWAP2 SWAP1 SWAP2 ADD DUP2 ADD MLOAD PUSH1 0x2 DUP9 ADD DUP1 SLOAD PUSH1 0x1 DUP2 ADD DUP3 SSTORE PUSH1 0x0 SWAP2 DUP3 MSTORE SWAP3 SWAP1 KECCAK256 SWAP1 SWAP2 ADD DUP1 SLOAD PUSH1 0x1 PUSH1 0x1 PUSH1 0xA0 SHL SUB NOT AND PUSH1 0x1 PUSH1 0x1 PUSH1 0xA0 SHL SUB SWAP1 SWAP3 AND SWAP2 SWAP1 SWAP2 OR SWAP1 SSTORE JUMPDEST DUP2 PUSH2 0x22C9 DUP2 PUSH2 0x49B2 JUMP JUMPDEST SWAP3 POP POP PUSH2 0x223C JUMP JUMPDEST CALLER PUSH1 0x0 SWAP1 DUP2 MSTORE PUSH1 0x20 DUP2 SWAP1 MSTORE PUSH1 0x40 SWAP1 KECCAK256 SLOAD PUSH1 0x1 PUSH1 0xA0 SHL SWAP1 DIV PUSH1 0xFF AND PUSH2 0x234E JUMPI DUP6 SLOAD PUSH1 0x1 PUSH1 0x1 PUSH1 0xA0 SHL SUB NOT SWAP1 DUP2 AND CALLER SWAP1 DUP2 OR DUP9 SSTORE PUSH1 0x1 DUP1 SLOAD DUP1 DUP3 ADD DUP3 SSTORE PUSH1 0x0 SWAP2 SWAP1 SWAP2 MSTORE PUSH32 0xB10E2D527612073B26EECDFD717E6A320CF44B4AFAC2B0732D9FCBE2B7FA0CF6 ADD DUP1 SLOAD SWAP1 SWAP3 AND OR SWAP1 SSTORE DUP6 SLOAD PUSH1 0xFF PUSH1 0xA0 SHL NOT AND PUSH1 0x1 PUSH1 0xA0 SHL OR DUP7 SSTORE JUMPDEST CALLER PUSH1 0x0 SWAP1 DUP2 MSTORE PUSH1 0x20 DUP2 SWAP1 MSTORE PUSH1 0x40 SWAP1 KECCAK256 DUP7 SLOAD DUP2 SLOAD PUSH1 0x1 PUSH1 0x1 PUSH1 0xA0 SHL SUB SWAP1 SWAP2 AND PUSH1 0x1 PUSH1 0x1 PUSH1 0xA0 SHL SUB NOT DUP3 AND DUP2 OR DUP4 SSTORE DUP9 SLOAD PUSH1 0x1 PUSH1 0x1 PUSH1 0xA8 SHL SUB NOT SWAP1 SWAP3 AND OR PUSH1 0x1 PUSH1 0xA0 SHL SWAP2 DUP3 SWAP1 DIV PUSH1 0xFF AND ISZERO ISZERO SWAP1 SWAP2 MUL OR DUP2 SSTORE PUSH1 0x1 DUP1 DUP9 ADD DUP1 SLOAD DUP10 SWAP4 SWAP3 PUSH2 0x23B5 SWAP3 SWAP1 DUP5 ADD SWAP2 PUSH2 0x436A JUMP JUMPDEST POP PUSH1 0x2 DUP3 DUP2 ADD DUP1 SLOAD PUSH2 0x23CA SWAP3 DUP5 ADD SWAP2 SWAP1 PUSH2 0x43C4 JUMP JUMPDEST POP SWAP1 POP POP PUSH1 0x0 JUMPDEST DUP9 MLOAD DUP2 LT ISZERO PUSH2 0x258C JUMPI DUP9 DUP2 DUP2 MLOAD DUP2 LT PUSH2 0x23EC JUMPI PUSH2 0x23EC PUSH2 0x4986 JUMP JUMPDEST PUSH1 0x20 MUL PUSH1 0x20 ADD ADD MLOAD PUSH1 0x40 ADD MLOAD PUSH1 0x4 PUSH1 0x0 CALLER PUSH1 0x1 PUSH1 0x1 PUSH1 0xA0 SHL SUB AND PUSH1 0x1 PUSH1 0x1 PUSH1 0xA0 SHL SUB AND DUP2 MSTORE PUSH1 0x20 ADD SWAP1 DUP2 MSTORE PUSH1 0x20 ADD PUSH1 0x0 KECCAK256 PUSH1 0x0 DUP12 DUP5 DUP2 MLOAD DUP2 LT PUSH2 0x2431 JUMPI PUSH2 0x2431 PUSH2 0x4986 JUMP JUMPDEST PUSH1 0x20 MUL PUSH1 0x20 ADD ADD MLOAD PUSH1 0x60 ADD MLOAD PUSH1 0x1 PUSH1 0x1 PUSH1 0xA0 SHL SUB AND PUSH1 0x1 PUSH1 0x1 PUSH1 0xA0 SHL SUB AND DUP2 MSTORE PUSH1 0x20 ADD SWAP1 DUP2 MSTORE PUSH1 0x20 ADD PUSH1 0x0 KECCAK256 PUSH1 0x0 DUP3 DUP3 SLOAD PUSH2 0x246C SWAP2 SWAP1 PUSH2 0x49E4 JUMP JUMPDEST SWAP1 SWAP2 SSTORE POP POP DUP9 MLOAD PUSH1 0x0 SWAP1 DUP11 SWAP1 DUP4 SWAP1 DUP2 LT PUSH2 0x2488 JUMPI PUSH2 0x2488 PUSH2 0x4986 JUMP JUMPDEST PUSH1 0x20 MUL PUSH1 0x20 ADD ADD MLOAD PUSH1 0x60 ADD MLOAD PUSH1 0x1 PUSH1 0x1 PUSH1 0xA0 SHL SUB AND EQ PUSH2 0x257A JUMPI DUP9 DUP2 DUP2 MLOAD DUP2 LT PUSH2 0x24B4 JUMPI PUSH2 0x24B4 PUSH2 0x4986 JUMP JUMPDEST PUSH1 0x20 MUL PUSH1 0x20 ADD ADD MLOAD PUSH1 0x60 ADD MLOAD PUSH1 0x1 PUSH1 0x1 PUSH1 0xA0 SHL SUB AND PUSH4 0x23B872DD CALLER ADDRESS DUP13 DUP6 DUP2 MLOAD DUP2 LT PUSH2 0x24E2 JUMPI PUSH2 0x24E2 PUSH2 0x4986 JUMP JUMPDEST PUSH1 0x20 MUL PUSH1 0x20 ADD ADD MLOAD PUSH1 0x40 ADD MLOAD PUSH1 0x40 MLOAD DUP5 PUSH4 0xFFFFFFFF AND PUSH1 0xE0 SHL DUP2 MSTORE PUSH1 0x4 ADD PUSH2 0x250C SWAP4 SWAP3 SWAP2 SWAP1 PUSH2 0x4BD8 JUMP JUMPDEST PUSH1 0x20 PUSH1 0x40 MLOAD DUP1 DUP4 SUB DUP2 PUSH1 0x0 DUP8 DUP1 EXTCODESIZE ISZERO DUP1 ISZERO PUSH2 0x2526 JUMPI PUSH1 0x0 DUP1 REVERT JUMPDEST POP GAS CALL ISZERO DUP1 ISZERO PUSH2 0x253A JUMPI RETURNDATASIZE PUSH1 0x0 DUP1 RETURNDATACOPY RETURNDATASIZE PUSH1 0x0 REVERT JUMPDEST POP POP POP POP PUSH1 0x40 MLOAD RETURNDATASIZE PUSH1 0x1F NOT PUSH1 0x1F DUP3 ADD AND DUP3 ADD DUP1 PUSH1 0x40 MSTORE POP DUP2 ADD SWAP1 PUSH2 0x255E SWAP2 SWAP1 PUSH2 0x4BFC JUMP JUMPDEST PUSH2 0x257A JUMPI PUSH1 0x40 MLOAD PUSH3 0x461BCD PUSH1 0xE5 SHL DUP2 MSTORE PUSH1 0x4 ADD PUSH2 0x3DA SWAP1 PUSH2 0x4C1E JUMP JUMPDEST DUP1 PUSH2 0x2584 DUP2 PUSH2 0x49B2 JUMP JUMPDEST SWAP2 POP POP PUSH2 0x23D1 JUMP JUMPDEST POP POP POP POP POP POP POP POP JUMPDEST POP JUMP JUMPDEST PUSH1 0x6 SLOAD PUSH1 0x60 SWAP1 PUSH1 0x1 PUSH1 0x1 PUSH1 0xA0 SHL SUB AND CALLER EQ PUSH2 0x25C5 JUMPI PUSH1 0x40 MLOAD PUSH3 0x461BCD PUSH1 0xE5 SHL DUP2 MSTORE PUSH1 0x4 ADD PUSH2 0x3DA SWAP1 PUSH2 0x494F JUMP JUMPDEST PUSH1 0x1 PUSH1 0x1 PUSH1 0xA0 SHL SUB DUP3 AND PUSH1 0x0 SWAP1 DUP2 MSTORE PUSH1 0x20 DUP2 DUP2 MSTORE PUSH1 0x40 DUP1 DUP4 KECCAK256 PUSH1 0x1 ADD DUP1 SLOAD DUP3 MLOAD DUP2 DUP6 MUL DUP2 ADD DUP6 ADD SWAP1 SWAP4 MSTORE DUP1 DUP4 MSTORE SWAP2 SWAP3 SWAP1 SWAP2 SWAP1 DUP4 ADD DUP3 DUP3 DUP1 ISZERO PUSH2 0x2654 JUMPI PUSH1 0x20 MUL DUP3 ADD SWAP2 SWAP1 PUSH1 0x0 MSTORE PUSH1 0x20 PUSH1 0x0 KECCAK256 SWAP1 PUSH1 0x0 SWAP1 JUMPDEST DUP3 DUP3 SWAP1 SLOAD SWAP1 PUSH2 0x100 EXP SWAP1 DIV PUSH5 0xFFFFFFFFFF AND PUSH5 0xFFFFFFFFFF AND DUP2 MSTORE PUSH1 0x20 ADD SWAP1 PUSH1 0x5 ADD SWAP1 PUSH1 0x20 DUP3 PUSH1 0x4 ADD DIV SWAP3 DUP4 ADD SWAP3 PUSH1 0x1 SUB DUP3 MUL SWAP2 POP DUP1 DUP5 GT PUSH2 0x2615 JUMPI SWAP1 POP JUMPDEST POP POP POP POP POP SWAP1 POP PUSH1 0x0 DUP1 JUMPDEST DUP3 MLOAD DUP2 LT ISZERO PUSH2 0x2793 JUMPI PUSH1 0x0 PUSH1 0x2 PUSH1 0x0 DUP6 DUP5 DUP2 MLOAD DUP2 LT PUSH2 0x2680 JUMPI PUSH2 0x2680 PUSH2 0x4986 JUMP JUMPDEST PUSH1 0x20 MUL PUSH1 0x20 ADD ADD MLOAD PUSH5 0xFFFFFFFFFF AND PUSH5 0xFFFFFFFFFF AND DUP2 MSTORE PUSH1 0x20 ADD SWAP1 DUP2 MSTORE PUSH1 0x20 ADD PUSH1 0x0 KECCAK256 DUP1 SLOAD DUP1 PUSH1 0x20 MUL PUSH1 0x20 ADD PUSH1 0x40 MLOAD SWAP1 DUP2 ADD PUSH1 0x40 MSTORE DUP1 SWAP3 SWAP2 SWAP1 DUP2 DUP2 MSTORE PUSH1 0x20 ADD PUSH1 0x0 SWAP1 JUMPDEST DUP3 DUP3 LT ISZERO PUSH2 0x276A JUMPI PUSH1 0x0 DUP5 DUP2 MSTORE PUSH1 0x20 SWAP1 DUP2 SWAP1 KECCAK256 PUSH1 0x40 DUP1 MLOAD PUSH2 0x100 DUP2 ADD DUP3 MSTORE PUSH1 0x5 DUP7 MUL SWAP1 SWAP3 ADD DUP1 SLOAD DUP4 MSTORE PUSH1 0x1 DUP1 DUP3 ADD SLOAD PUSH1 0x1 PUSH1 0x1 PUSH1 0xA0 SHL SUB SWAP1 DUP2 AND DUP6 DUP8 ADD MSTORE PUSH1 0x2 DUP4 ADD SLOAD DUP2 AND SWAP4 DUP6 ADD SWAP4 SWAP1 SWAP4 MSTORE PUSH1 0x3 DUP3 ADD SLOAD SWAP3 DUP4 AND PUSH1 0x60 DUP6 ADD MSTORE PUSH5 0xFFFFFFFFFF PUSH1 0x1 PUSH1 0xA0 SHL DUP5 DIV AND PUSH1 0x80 DUP6 ADD MSTORE PUSH1 0xFF PUSH1 0x1 PUSH1 0xC8 SHL DUP5 DIV DUP2 AND ISZERO ISZERO PUSH1 0xA0 DUP7 ADD MSTORE PUSH1 0x1 PUSH1 0xD0 SHL SWAP1 SWAP4 DIV SWAP1 SWAP3 AND ISZERO ISZERO PUSH1 0xC0 DUP5 ADD MSTORE PUSH1 0x4 ADD SLOAD PUSH1 0xE0 DUP4 ADD MSTORE SWAP1 DUP4 MSTORE SWAP1 SWAP3 ADD SWAP2 ADD PUSH2 0x26C4 JUMP JUMPDEST POP POP POP POP SWAP1 POP DUP1 MLOAD DUP4 PUSH2 0x277D SWAP2 SWAP1 PUSH2 0x49E4 JUMP JUMPDEST SWAP3 POP POP DUP1 DUP1 PUSH2 0x278B SWAP1 PUSH2 0x49B2 JUMP JUMPDEST SWAP2 POP POP PUSH2 0x265F JUMP JUMPDEST POP PUSH1 0x0 DUP2 PUSH1 0x1 PUSH1 0x1 PUSH1 0x40 SHL SUB DUP2 GT ISZERO PUSH2 0x27AE JUMPI PUSH2 0x27AE PUSH2 0x4761 JUMP JUMPDEST PUSH1 0x40 MLOAD SWAP1 DUP1 DUP3 MSTORE DUP1 PUSH1 0x20 MUL PUSH1 0x20 ADD DUP3 ADD PUSH1 0x40 MSTORE DUP1 ISZERO PUSH2 0x27E7 JUMPI DUP2 PUSH1 0x20 ADD JUMPDEST PUSH2 0x27D4 PUSH2 0x4201 JUMP JUMPDEST DUP2 MSTORE PUSH1 0x20 ADD SWAP1 PUSH1 0x1 SWAP1 SUB SWAP1 DUP2 PUSH2 0x27CC JUMPI SWAP1 POP JUMPDEST POP SWAP1 POP PUSH1 0x0 DUP3 PUSH1 0x1 PUSH1 0x1 PUSH1 0x40 SHL SUB DUP2 GT ISZERO PUSH2 0x2804 JUMPI PUSH2 0x2804 PUSH2 0x4761 JUMP JUMPDEST PUSH1 0x40 MLOAD SWAP1 DUP1 DUP3 MSTORE DUP1 PUSH1 0x20 MUL PUSH1 0x20 ADD DUP3 ADD PUSH1 0x40 MSTORE DUP1 ISZERO PUSH2 0x283D JUMPI DUP2 PUSH1 0x20 ADD JUMPDEST PUSH2 0x282A PUSH2 0x4201 JUMP JUMPDEST DUP2 MSTORE PUSH1 0x20 ADD SWAP1 PUSH1 0x1 SWAP1 SUB SWAP1 DUP2 PUSH2 0x2822 JUMPI SWAP1 POP JUMPDEST POP SWAP1 POP PUSH1 0x0 DUP1 JUMPDEST DUP6 MLOAD DUP2 LT ISZERO PUSH2 0x2A01 JUMPI PUSH1 0x2 PUSH1 0x0 DUP8 DUP4 DUP2 MLOAD DUP2 LT PUSH2 0x2863 JUMPI PUSH2 0x2863 PUSH2 0x4986 JUMP JUMPDEST PUSH1 0x20 MUL PUSH1 0x20 ADD ADD MLOAD PUSH5 0xFFFFFFFFFF AND PUSH5 0xFFFFFFFFFF AND DUP2 MSTORE PUSH1 0x20 ADD SWAP1 DUP2 MSTORE PUSH1 0x20 ADD PUSH1 0x0 KECCAK256 DUP1 SLOAD DUP1 PUSH1 0x20 MUL PUSH1 0x20 ADD PUSH1 0x40 MLOAD SWAP1 DUP2 ADD PUSH1 0x40 MSTORE DUP1 SWAP3 SWAP2 SWAP1 DUP2 DUP2 MSTORE PUSH1 0x20 ADD PUSH1 0x0 SWAP1 JUMPDEST DUP3 DUP3 LT ISZERO PUSH2 0x294D JUMPI PUSH1 0x0 DUP5 DUP2 MSTORE PUSH1 0x20 SWAP1 DUP2 SWAP1 KECCAK256 PUSH1 0x40 DUP1 MLOAD PUSH2 0x100 DUP2 ADD DUP3 MSTORE PUSH1 0x5 DUP7 MUL SWAP1 SWAP3 ADD DUP1 SLOAD DUP4 MSTORE PUSH1 0x1 DUP1 DUP3 ADD SLOAD PUSH1 0x1 PUSH1 0x1 PUSH1 0xA0 SHL SUB SWAP1 DUP2 AND DUP6 DUP8 ADD MSTORE PUSH1 0x2 DUP4 ADD SLOAD DUP2 AND SWAP4 DUP6 ADD SWAP4 SWAP1 SWAP4 MSTORE PUSH1 0x3 DUP3 ADD SLOAD SWAP3 DUP4 AND PUSH1 0x60 DUP6 ADD MSTORE PUSH5 0xFFFFFFFFFF PUSH1 0x1 PUSH1 0xA0 SHL DUP5 DIV AND PUSH1 0x80 DUP6 ADD MSTORE PUSH1 0xFF PUSH1 0x1 PUSH1 0xC8 SHL DUP5 DIV DUP2 AND ISZERO ISZERO PUSH1 0xA0 DUP7 ADD MSTORE PUSH1 0x1 PUSH1 0xD0 SHL SWAP1 SWAP4 DIV SWAP1 SWAP3 AND ISZERO ISZERO PUSH1 0xC0 DUP5 ADD MSTORE PUSH1 0x4 ADD SLOAD PUSH1 0xE0 DUP4 ADD MSTORE SWAP1 DUP4 MSTORE SWAP1 SWAP3 ADD SWAP2 ADD PUSH2 0x28A7 JUMP JUMPDEST POP POP POP POP SWAP4 POP PUSH1 0x0 JUMPDEST DUP5 MLOAD DUP2 LT ISZERO PUSH2 0x29EE JUMPI DUP9 PUSH1 0x1 PUSH1 0x1 PUSH1 0xA0 SHL SUB AND DUP6 DUP3 DUP2 MLOAD DUP2 LT PUSH2 0x297B JUMPI PUSH2 0x297B PUSH2 0x4986 JUMP JUMPDEST PUSH1 0x20 MUL PUSH1 0x20 ADD ADD MLOAD PUSH1 0x20 ADD MLOAD PUSH1 0x1 PUSH1 0x1 PUSH1 0xA0 SHL SUB AND EQ ISZERO PUSH2 0x29DC JUMPI DUP5 DUP2 DUP2 MLOAD DUP2 LT PUSH2 0x29A8 JUMPI PUSH2 0x29A8 PUSH2 0x4986 JUMP JUMPDEST PUSH1 0x20 MUL PUSH1 0x20 ADD ADD MLOAD DUP5 DUP5 DUP2 MLOAD DUP2 LT PUSH2 0x29C2 JUMPI PUSH2 0x29C2 PUSH2 0x4986 JUMP JUMPDEST PUSH1 0x20 MUL PUSH1 0x20 ADD ADD DUP2 SWAP1 MSTORE POP DUP3 DUP1 PUSH2 0x29D8 SWAP1 PUSH2 0x49B2 JUMP JUMPDEST SWAP4 POP POP JUMPDEST DUP1 PUSH2 0x29E6 DUP2 PUSH2 0x49B2 JUMP JUMPDEST SWAP2 POP POP PUSH2 0x2956 JUMP JUMPDEST POP DUP1 PUSH2 0x29F9 DUP2 PUSH2 0x49B2 JUMP JUMPDEST SWAP2 POP POP PUSH2 0x2844 JUMP JUMPDEST POP PUSH1 0x0 JUMPDEST DUP3 MLOAD DUP2 LT ISZERO PUSH2 0x2A61 JUMPI PUSH2 0x2A23 DUP4 DUP3 DUP2 MLOAD DUP2 LT PUSH2 0x11F0 JUMPI PUSH2 0x11F0 PUSH2 0x4986 JUMP JUMPDEST DUP4 DUP3 DUP2 MLOAD DUP2 LT PUSH2 0x2A35 JUMPI PUSH2 0x2A35 PUSH2 0x4986 JUMP JUMPDEST PUSH1 0x20 SWAP1 DUP2 MUL SWAP2 SWAP1 SWAP2 ADD ADD MLOAD PUSH5 0xFFFFFFFFFF SWAP1 SWAP2 AND PUSH1 0x80 SWAP1 SWAP2 ADD MSTORE DUP1 PUSH2 0x2A59 DUP2 PUSH2 0x49B2 JUMP JUMPDEST SWAP2 POP POP PUSH2 0x2A05 JUMP JUMPDEST POP SWAP1 SWAP5 POP POP POP POP POP JUMPDEST SWAP2 SWAP1 POP JUMP JUMPDEST PUSH1 0x6 SLOAD PUSH1 0x0 SWAP1 PUSH1 0x1 PUSH1 0x1 PUSH1 0xA0 SHL SUB AND CALLER EQ PUSH2 0x2A9C JUMPI PUSH1 0x40 MLOAD PUSH3 0x461BCD PUSH1 0xE5 SHL DUP2 MSTORE PUSH1 0x4 ADD PUSH2 0x3DA SWAP1 PUSH2 0x494F JUMP JUMPDEST PUSH1 0x0 PUSH2 0x2AA7 TIMESTAMP PUSH2 0x37C6 JUMP JUMPDEST PUSH1 0xA SLOAD SWAP1 SWAP2 POP PUSH5 0xFFFFFFFFFF SWAP1 DUP2 AND SWAP1 DUP3 AND GT PUSH2 0x2AD6 JUMPI PUSH1 0x40 MLOAD PUSH3 0x461BCD PUSH1 0xE5 SHL DUP2 MSTORE PUSH1 0x4 ADD PUSH2 0x3DA SWAP1 PUSH2 0x4A12 JUMP JUMPDEST PUSH1 0xA SLOAD PUSH5 0xFFFFFFFFFF AND JUMPDEST DUP2 PUSH5 0xFFFFFFFFFF AND DUP2 PUSH5 0xFFFFFFFFFF AND GT PUSH2 0x2BFD JUMPI PUSH5 0xFFFFFFFFFF DUP2 AND PUSH1 0x0 SWAP1 DUP2 MSTORE PUSH1 0x2 PUSH1 0x20 SWAP1 DUP2 MSTORE PUSH1 0x40 DUP1 DUP4 KECCAK256 DUP1 SLOAD DUP3 MLOAD DUP2 DUP6 MUL DUP2 ADD DUP6 ADD SWAP1 SWAP4 MSTORE DUP1 DUP4 MSTORE SWAP2 SWAP3 SWAP1 SWAP2 SWAP1 DUP5 SWAP1 DUP5 ADD JUMPDEST DUP3 DUP3 LT ISZERO PUSH2 0x2BD0 JUMPI PUSH1 0x0 DUP5 DUP2 MSTORE PUSH1 0x20 SWAP1 DUP2 SWAP1 KECCAK256 PUSH1 0x40 DUP1 MLOAD PUSH2 0x100 DUP2 ADD DUP3 MSTORE PUSH1 0x5 DUP7 MUL SWAP1 SWAP3 ADD DUP1 SLOAD DUP4 MSTORE PUSH1 0x1 DUP1 DUP3 ADD SLOAD PUSH1 0x1 PUSH1 0x1 PUSH1 0xA0 SHL SUB SWAP1 DUP2 AND DUP6 DUP8 ADD MSTORE PUSH1 0x2 DUP4 ADD SLOAD DUP2 AND SWAP4 DUP6 ADD SWAP4 SWAP1 SWAP4 MSTORE PUSH1 0x3 DUP3 ADD SLOAD SWAP3 DUP4 AND PUSH1 0x60 DUP6 ADD MSTORE PUSH5 0xFFFFFFFFFF PUSH1 0x1 PUSH1 0xA0 SHL DUP5 DIV AND PUSH1 0x80 DUP6 ADD MSTORE PUSH1 0xFF PUSH1 0x1 PUSH1 0xC8 SHL DUP5 DIV DUP2 AND ISZERO ISZERO PUSH1 0xA0 DUP7 ADD MSTORE PUSH1 0x1 PUSH1 0xD0 SHL SWAP1 SWAP4 DIV SWAP1 SWAP3 AND ISZERO ISZERO PUSH1 0xC0 DUP5 ADD MSTORE PUSH1 0x4 ADD SLOAD PUSH1 0xE0 DUP4 ADD MSTORE SWAP1 DUP4 MSTORE SWAP1 SWAP3 ADD SWAP2 ADD PUSH2 0x2B2A JUMP JUMPDEST POP POP POP POP SWAP1 POP PUSH1 0x0 DUP2 MLOAD GT ISZERO PUSH2 0x2BEA JUMPI PUSH1 0x1 SWAP4 POP POP POP POP SWAP1 JUMP JUMPDEST POP DUP1 PUSH2 0x2BF5 DUP2 PUSH2 0x4A59 JUMP JUMPDEST SWAP2 POP POP PUSH2 0x2AE1 JUMP JUMPDEST POP PUSH1 0x0 SWAP2 POP POP SWAP1 JUMP JUMPDEST PUSH2 0x2C0F DUP2 PUSH2 0x37C6 JUMP JUMPDEST PUSH5 0xFFFFFFFFFF DUP2 AND PUSH1 0x0 SWAP1 DUP2 MSTORE PUSH1 0x2 PUSH1 0x20 SWAP1 DUP2 MSTORE PUSH1 0x40 DUP1 DUP4 KECCAK256 DUP1 SLOAD DUP3 MLOAD DUP2 DUP6 MUL DUP2 ADD DUP6 ADD SWAP1 SWAP4 MSTORE DUP1 DUP4 MSTORE SWAP5 SWAP6 POP SWAP3 SWAP4 SWAP1 SWAP3 SWAP2 DUP5 SWAP1 DUP5 ADD JUMPDEST DUP3 DUP3 LT ISZERO PUSH2 0x2CEC JUMPI PUSH1 0x0 DUP5 DUP2 MSTORE PUSH1 0x20 SWAP1 DUP2 SWAP1 KECCAK256 PUSH1 0x40 DUP1 MLOAD PUSH2 0x100 DUP2 ADD DUP3 MSTORE PUSH1 0x5 DUP7 MUL SWAP1 SWAP3 ADD DUP1 SLOAD DUP4 MSTORE PUSH1 0x1 DUP1 DUP3 ADD SLOAD PUSH1 0x1 PUSH1 0x1 PUSH1 0xA0 SHL SUB SWAP1 DUP2 AND DUP6 DUP8 ADD MSTORE PUSH1 0x2 DUP4 ADD SLOAD DUP2 AND SWAP4 DUP6 ADD SWAP4 SWAP1 SWAP4 MSTORE PUSH1 0x3 DUP3 ADD SLOAD SWAP3 DUP4 AND PUSH1 0x60 DUP6 ADD MSTORE PUSH5 0xFFFFFFFFFF PUSH1 0x1 PUSH1 0xA0 SHL DUP5 DIV AND PUSH1 0x80 DUP6 ADD MSTORE PUSH1 0xFF PUSH1 0x1 PUSH1 0xC8 SHL DUP5 DIV DUP2 AND ISZERO ISZERO PUSH1 0xA0 DUP7 ADD MSTORE PUSH1 0x1 PUSH1 0xD0 SHL SWAP1 SWAP4 DIV SWAP1 SWAP3 AND ISZERO ISZERO PUSH1 0xC0 DUP5 ADD MSTORE PUSH1 0x4 ADD SLOAD PUSH1 0xE0 DUP4 ADD MSTORE SWAP1 DUP4 MSTORE SWAP1 SWAP3 ADD SWAP2 ADD PUSH2 0x2C46 JUMP JUMPDEST POP POP POP POP PUSH5 0xFFFFFFFFFF DUP4 AND PUSH1 0x0 SWAP1 DUP2 MSTORE PUSH1 0x2 PUSH1 0x20 MSTORE PUSH1 0x40 SWAP1 KECCAK256 SWAP1 SWAP2 POP PUSH2 0x2D11 PUSH2 0x4201 JUMP JUMPDEST PUSH1 0x0 JUMPDEST DUP4 MLOAD DUP2 LT ISZERO PUSH2 0x2E5D JUMPI DUP6 DUP5 DUP3 DUP2 MLOAD DUP2 LT PUSH2 0x2D30 JUMPI PUSH2 0x2D30 PUSH2 0x4986 JUMP JUMPDEST PUSH1 0x20 MUL PUSH1 0x20 ADD ADD MLOAD PUSH1 0x0 ADD MLOAD EQ ISZERO PUSH2 0x2E4B JUMPI DUP4 DUP2 DUP2 MLOAD DUP2 LT PUSH2 0x2D54 JUMPI PUSH2 0x2D54 PUSH2 0x4986 JUMP JUMPDEST PUSH1 0x20 SWAP1 DUP2 MUL SWAP2 SWAP1 SWAP2 ADD ADD MLOAD PUSH1 0x1 PUSH1 0xC0 DUP3 ADD MSTORE DUP4 SLOAD SWAP1 SWAP3 POP DUP3 SWAP1 DUP5 SWAP1 DUP4 SWAP1 DUP2 LT PUSH2 0x2D7F JUMPI PUSH2 0x2D7F PUSH2 0x4986 JUMP JUMPDEST PUSH1 0x0 SWAP2 DUP3 MSTORE PUSH1 0x20 SWAP2 DUP3 SWAP1 KECCAK256 DUP4 MLOAD PUSH1 0x5 SWAP1 SWAP3 MUL ADD SWAP1 DUP2 SSTORE SWAP1 DUP3 ADD MLOAD PUSH1 0x1 DUP3 ADD DUP1 SLOAD PUSH1 0x1 PUSH1 0x1 PUSH1 0xA0 SHL SUB SWAP3 DUP4 AND PUSH1 0x1 PUSH1 0x1 PUSH1 0xA0 SHL SUB NOT SWAP2 DUP3 AND OR SWAP1 SWAP2 SSTORE PUSH1 0x40 DUP5 ADD MLOAD PUSH1 0x2 DUP5 ADD DUP1 SLOAD SWAP2 DUP5 AND SWAP2 SWAP1 SWAP3 AND OR SWAP1 SSTORE PUSH1 0x60 DUP4 ADD MLOAD PUSH1 0x3 DUP4 ADD DUP1 SLOAD PUSH1 0x80 DUP7 ADD MLOAD PUSH1 0xA0 DUP8 ADD MLOAD PUSH1 0xC0 DUP9 ADD MLOAD ISZERO ISZERO PUSH1 0x1 PUSH1 0xD0 SHL MUL PUSH1 0xFF PUSH1 0xD0 SHL NOT SWAP2 ISZERO ISZERO PUSH1 0x1 PUSH1 0xC8 SHL MUL SWAP2 SWAP1 SWAP2 AND PUSH2 0xFFFF PUSH1 0xC8 SHL NOT PUSH5 0xFFFFFFFFFF SWAP1 SWAP4 AND PUSH1 0x1 PUSH1 0xA0 SHL MUL PUSH1 0x1 PUSH1 0x1 PUSH1 0xC8 SHL SUB NOT SWAP1 SWAP5 AND SWAP6 SWAP1 SWAP7 AND SWAP5 SWAP1 SWAP5 OR SWAP2 SWAP1 SWAP2 OR AND SWAP3 SWAP1 SWAP3 OR OR SWAP1 SSTORE PUSH1 0xE0 SWAP1 SWAP2 ADD MLOAD PUSH1 0x4 SWAP1 SWAP2 ADD SSTORE PUSH2 0x2E5D JUMP JUMPDEST DUP1 PUSH2 0x2E55 DUP2 PUSH2 0x49B2 JUMP JUMPDEST SWAP2 POP POP PUSH2 0x2D14 JUMP JUMPDEST POP PUSH5 0xFFFFFFFFFF DUP5 AND PUSH1 0x0 SWAP1 DUP2 MSTORE PUSH1 0x2 PUSH1 0x20 MSTORE PUSH1 0x40 SWAP1 KECCAK256 DUP3 SLOAD PUSH2 0x2E82 SWAP2 SWAP1 DUP5 SWAP1 PUSH2 0x4245 JUMP JUMPDEST POP PUSH1 0xE0 DUP2 ADD MLOAD CALLER PUSH1 0x0 SWAP1 DUP2 MSTORE PUSH1 0x4 PUSH1 0x20 SWAP1 DUP2 MSTORE PUSH1 0x40 DUP1 DUP4 KECCAK256 PUSH1 0x60 DUP7 ADD MLOAD PUSH1 0x1 PUSH1 0x1 PUSH1 0xA0 SHL SUB AND DUP5 MSTORE SWAP1 SWAP2 MSTORE DUP2 KECCAK256 DUP1 SLOAD SWAP1 SWAP2 SWAP1 PUSH2 0x2EBF SWAP1 DUP5 SWAP1 PUSH2 0x49CD JUMP JUMPDEST SWAP1 SWAP2 SSTORE POP POP PUSH1 0x60 DUP2 ADD MLOAD PUSH1 0x1 PUSH1 0x1 PUSH1 0xA0 SHL SUB AND PUSH2 0x2F24 JUMPI PUSH1 0xE0 DUP2 ADD MLOAD SELFBALANCE GT PUSH2 0x2EE6 JUMPI PUSH1 0x0 DUP1 REVERT JUMPDEST DUP1 PUSH1 0x20 ADD MLOAD PUSH1 0x1 PUSH1 0x1 PUSH1 0xA0 SHL SUB AND PUSH2 0x8FC DUP3 PUSH1 0xE0 ADD MLOAD SWAP1 DUP2 ISZERO MUL SWAP1 PUSH1 0x40 MLOAD PUSH1 0x0 PUSH1 0x40 MLOAD DUP1 DUP4 SUB DUP2 DUP6 DUP9 DUP9 CALL SWAP4 POP POP POP POP PUSH2 0x2F1F JUMPI PUSH1 0x0 DUP1 REVERT JUMPDEST PUSH2 0x176C JUMP JUMPDEST PUSH1 0xE0 DUP2 ADD MLOAD PUSH1 0x60 DUP3 ADD MLOAD PUSH1 0x40 MLOAD PUSH4 0x70A08231 PUSH1 0xE0 SHL DUP2 MSTORE ADDRESS PUSH1 0x4 DUP3 ADD MSTORE PUSH1 0x1 PUSH1 0x1 PUSH1 0xA0 SHL SUB SWAP1 SWAP2 AND SWAP1 PUSH4 0x70A08231 SWAP1 PUSH1 0x24 ADD PUSH1 0x20 PUSH1 0x40 MLOAD DUP1 DUP4 SUB DUP2 PUSH1 0x0 DUP8 DUP1 EXTCODESIZE ISZERO DUP1 ISZERO PUSH2 0x2F70 JUMPI PUSH1 0x0 DUP1 REVERT JUMPDEST POP GAS CALL ISZERO DUP1 ISZERO PUSH2 0x2F84 JUMPI RETURNDATASIZE PUSH1 0x0 DUP1 RETURNDATACOPY RETURNDATASIZE PUSH1 0x0 REVERT JUMPDEST POP POP POP POP PUSH1 0x40 MLOAD RETURNDATASIZE PUSH1 0x1F NOT PUSH1 0x1F DUP3 ADD AND DUP3 ADD DUP1 PUSH1 0x40 MSTORE POP DUP2 ADD SWAP1 PUSH2 0x2FA8 SWAP2 SWAP1 PUSH2 0x4C6D JUMP JUMPDEST LT ISZERO PUSH2 0x2FB3 JUMPI PUSH1 0x0 DUP1 REVERT JUMPDEST PUSH1 0x60 DUP2 ADD MLOAD PUSH1 0xE0 DUP3 ADD MLOAD PUSH1 0x40 MLOAD PUSH4 0x95EA7B3 PUSH1 0xE0 SHL DUP2 MSTORE ADDRESS PUSH1 0x4 DUP3 ADD MSTORE PUSH1 0x24 DUP2 ADD SWAP2 SWAP1 SWAP2 MSTORE PUSH1 0x1 PUSH1 0x1 PUSH1 0xA0 SHL SUB SWAP1 SWAP2 AND SWAP1 PUSH4 0x95EA7B3 SWAP1 PUSH1 0x44 ADD PUSH1 0x20 PUSH1 0x40 MLOAD DUP1 DUP4 SUB DUP2 PUSH1 0x0 DUP8 DUP1 EXTCODESIZE ISZERO DUP1 ISZERO PUSH2 0x3007 JUMPI PUSH1 0x0 DUP1 REVERT JUMPDEST POP GAS CALL ISZERO DUP1 ISZERO PUSH2 0x301B JUMPI RETURNDATASIZE PUSH1 0x0 DUP1 RETURNDATACOPY RETURNDATASIZE PUSH1 0x0 REVERT JUMPDEST POP POP POP POP PUSH1 0x40 MLOAD RETURNDATASIZE PUSH1 0x1F NOT PUSH1 0x1F DUP3 ADD AND DUP3 ADD DUP1 PUSH1 0x40 MSTORE POP DUP2 ADD SWAP1 PUSH2 0x303F SWAP2 SWAP1 PUSH2 0x4BFC JUMP JUMPDEST DUP1 ISZERO PUSH2 0x30D4 JUMPI POP DUP1 PUSH1 0x60 ADD MLOAD PUSH1 0x1 PUSH1 0x1 PUSH1 0xA0 SHL SUB AND PUSH4 0x23B872DD ADDRESS DUP4 PUSH1 0x40 ADD MLOAD DUP5 PUSH1 0xE0 ADD MLOAD PUSH1 0x40 MLOAD DUP5 PUSH4 0xFFFFFFFF AND PUSH1 0xE0 SHL DUP2 MSTORE PUSH1 0x4 ADD PUSH2 0x3082 SWAP4 SWAP3 SWAP2 SWAP1 PUSH2 0x4BD8 JUMP JUMPDEST PUSH1 0x20 PUSH1 0x40 MLOAD DUP1 DUP4 SUB DUP2 PUSH1 0x0 DUP8 DUP1 EXTCODESIZE ISZERO DUP1 ISZERO PUSH2 0x309C JUMPI PUSH1 0x0 DUP1 REVERT JUMPDEST POP GAS CALL ISZERO DUP1 ISZERO PUSH2 0x30B0 JUMPI RETURNDATASIZE PUSH1 0x0 DUP1 RETURNDATACOPY RETURNDATASIZE PUSH1 0x0 REVERT JUMPDEST POP POP POP POP PUSH1 0x40 MLOAD RETURNDATASIZE PUSH1 0x1F NOT PUSH1 0x1F DUP3 ADD AND DUP3 ADD DUP1 PUSH1 0x40 MSTORE POP DUP2 ADD SWAP1 PUSH2 0x30D4 SWAP2 SWAP1 PUSH2 0x4BFC JUMP JUMPDEST PUSH2 0x176C JUMPI PUSH1 0x0 DUP1 REVERT JUMPDEST PUSH1 0x1 PUSH1 0x1 PUSH1 0xA0 SHL SUB DUP3 AND ISZERO PUSH2 0x3111 JUMPI PUSH2 0x30F5 DUP3 PUSH2 0x3705 JUMP JUMPDEST PUSH2 0x3111 JUMPI PUSH1 0x40 MLOAD PUSH3 0x461BCD PUSH1 0xE5 SHL DUP2 MSTORE PUSH1 0x4 ADD PUSH2 0x3DA SWAP1 PUSH2 0x4B2F JUMP JUMPDEST CALLER PUSH1 0x0 SWAP1 DUP2 MSTORE PUSH1 0x20 DUP2 SWAP1 MSTORE PUSH1 0x40 SWAP1 KECCAK256 DUP1 SLOAD PUSH1 0x1 PUSH1 0xA0 SHL SWAP1 DIV PUSH1 0xFF AND PUSH2 0x31B7 JUMPI DUP1 SLOAD CALLER PUSH1 0x1 PUSH1 0x1 PUSH1 0xA0 SHL SUB NOT SWAP2 DUP3 AND DUP2 OR DUP4 SSTORE PUSH1 0x1 DUP1 SLOAD DUP1 DUP3 ADD DUP3 SSTORE PUSH32 0xB10E2D527612073B26EECDFD717E6A320CF44B4AFAC2B0732D9FCBE2B7FA0CF6 ADD DUP1 SLOAD DUP5 AND SWAP1 SWAP3 OR SWAP1 SWAP2 SSTORE DUP3 SLOAD PUSH1 0x1 PUSH1 0xA0 SHL PUSH1 0xFF PUSH1 0xA0 SHL NOT SWAP1 SWAP2 AND OR DUP4 SSTORE PUSH1 0x2 DUP4 ADD DUP1 SLOAD SWAP2 DUP3 ADD DUP2 SSTORE PUSH1 0x0 SWAP1 DUP2 MSTORE PUSH1 0x20 SWAP1 KECCAK256 ADD DUP1 SLOAD SWAP1 SWAP2 AND PUSH1 0x1 PUSH1 0x1 PUSH1 0xA0 SHL SUB DUP6 AND OR SWAP1 SSTORE PUSH2 0x3259 JUMP JUMPDEST PUSH1 0x0 DUP2 PUSH1 0x2 ADD DUP1 SLOAD DUP1 PUSH1 0x20 MUL PUSH1 0x20 ADD PUSH1 0x40 MLOAD SWAP1 DUP2 ADD PUSH1 0x40 MSTORE DUP1 SWAP3 SWAP2 SWAP1 DUP2 DUP2 MSTORE PUSH1 0x20 ADD DUP3 DUP1 SLOAD DUP1 ISZERO PUSH2 0x3211 JUMPI PUSH1 0x20 MUL DUP3 ADD SWAP2 SWAP1 PUSH1 0x0 MSTORE PUSH1 0x20 PUSH1 0x0 KECCAK256 SWAP1 JUMPDEST DUP2 SLOAD PUSH1 0x1 PUSH1 0x1 PUSH1 0xA0 SHL SUB AND DUP2 MSTORE PUSH1 0x1 SWAP1 SWAP2 ADD SWAP1 PUSH1 0x20 ADD DUP1 DUP4 GT PUSH2 0x31F3 JUMPI JUMPDEST POP POP POP POP POP SWAP1 POP PUSH2 0x3222 DUP5 DUP3 PUSH2 0x41A5 JUMP JUMPDEST PUSH2 0x3257 JUMPI PUSH1 0x2 DUP3 ADD DUP1 SLOAD PUSH1 0x1 DUP2 ADD DUP3 SSTORE PUSH1 0x0 SWAP2 DUP3 MSTORE PUSH1 0x20 SWAP1 SWAP2 KECCAK256 ADD DUP1 SLOAD PUSH1 0x1 PUSH1 0x1 PUSH1 0xA0 SHL SUB NOT AND PUSH1 0x1 PUSH1 0x1 PUSH1 0xA0 SHL SUB DUP7 AND OR SWAP1 SSTORE JUMPDEST POP JUMPDEST CALLER PUSH1 0x0 SWAP1 DUP2 MSTORE PUSH1 0x20 DUP2 SWAP1 MSTORE PUSH1 0x40 SWAP1 KECCAK256 DUP2 SLOAD DUP2 SLOAD PUSH1 0x1 PUSH1 0x1 PUSH1 0xA0 SHL SUB SWAP1 SWAP2 AND PUSH1 0x1 PUSH1 0x1 PUSH1 0xA0 SHL SUB NOT DUP3 AND DUP2 OR DUP4 SSTORE DUP4 SLOAD PUSH1 0x1 PUSH1 0x1 PUSH1 0xA8 SHL SUB NOT SWAP1 SWAP3 AND OR PUSH1 0x1 PUSH1 0xA0 SHL SWAP2 DUP3 SWAP1 DIV PUSH1 0xFF AND ISZERO ISZERO SWAP1 SWAP2 MUL OR DUP2 SSTORE PUSH1 0x1 DUP1 DUP4 ADD DUP1 SLOAD DUP5 SWAP4 SWAP3 PUSH2 0x32C0 SWAP3 SWAP1 DUP5 ADD SWAP2 PUSH2 0x436A JUMP JUMPDEST POP PUSH1 0x2 DUP3 DUP2 ADD DUP1 SLOAD PUSH2 0x32D5 SWAP3 DUP5 ADD SWAP2 SWAP1 PUSH2 0x43C4 JUMP JUMPDEST POP POP CALLER PUSH1 0x0 SWAP1 DUP2 MSTORE PUSH1 0x5 PUSH1 0x20 SWAP1 DUP2 MSTORE PUSH1 0x40 DUP1 DUP4 KECCAK256 PUSH1 0x1 PUSH1 0x1 PUSH1 0xA0 SHL SUB DUP9 AND DUP5 MSTORE SWAP1 SWAP2 MSTORE DUP1 DUP3 KECCAK256 DUP1 SLOAD SWAP2 DUP7 ADD CALLDATALOAD SWAP4 POP SWAP2 SWAP1 PUSH2 0x3310 SWAP1 DUP5 SWAP1 PUSH2 0x49E4 JUMP JUMPDEST SWAP1 SWAP2 SSTORE POP POP PUSH1 0x1 PUSH1 0x1 PUSH1 0xA0 SHL SUB DUP4 AND ISZERO PUSH2 0x3469 JUMPI PUSH1 0x1 PUSH1 0x1 PUSH1 0xA0 SHL SUB DUP4 AND PUSH4 0xD505ACCF PUSH2 0x3340 PUSH1 0x20 DUP6 ADD DUP6 PUSH2 0x447A JUMP JUMPDEST PUSH2 0x3350 PUSH1 0x40 DUP7 ADD PUSH1 0x20 DUP8 ADD PUSH2 0x447A JUMP JUMPDEST PUSH1 0x40 DUP7 ADD CALLDATALOAD PUSH1 0x60 DUP8 ADD CALLDATALOAD PUSH2 0x336A PUSH1 0xA0 DUP10 ADD PUSH1 0x80 DUP11 ADD PUSH2 0x4B74 JUMP JUMPDEST DUP9 PUSH1 0xA0 ADD CALLDATALOAD DUP10 PUSH1 0xC0 ADD CALLDATALOAD PUSH1 0x40 MLOAD DUP9 PUSH4 0xFFFFFFFF AND PUSH1 0xE0 SHL DUP2 MSTORE PUSH1 0x4 ADD PUSH2 0x3396 SWAP8 SWAP7 SWAP6 SWAP5 SWAP4 SWAP3 SWAP2 SWAP1 PUSH2 0x4B97 JUMP JUMPDEST PUSH1 0x0 PUSH1 0x40 MLOAD DUP1 DUP4 SUB DUP2 PUSH1 0x0 DUP8 DUP1 EXTCODESIZE ISZERO DUP1 ISZERO PUSH2 0x33B0 JUMPI PUSH1 0x0 DUP1 REVERT JUMPDEST POP GAS CALL ISZERO DUP1 ISZERO PUSH2 0x33C4 JUMPI RETURNDATASIZE PUSH1 0x0 DUP1 RETURNDATACOPY RETURNDATASIZE PUSH1 0x0 REVERT JUMPDEST POP POP PUSH1 0x40 DUP1 MLOAD PUSH4 0x23B872DD PUSH1 0xE0 SHL DUP2 MSTORE PUSH1 0x1 PUSH1 0x1 PUSH1 0xA0 SHL SUB DUP8 AND SWAP4 POP PUSH4 0x23B872DD SWAP3 POP PUSH2 0x33FB SWAP2 CALLER SWAP2 ADDRESS SWAP2 DUP9 ADD CALLDATALOAD SWAP1 PUSH1 0x4 ADD PUSH2 0x4BD8 JUMP JUMPDEST PUSH1 0x20 PUSH1 0x40 MLOAD DUP1 DUP4 SUB DUP2 PUSH1 0x0 DUP8 DUP1 EXTCODESIZE ISZERO DUP1 ISZERO PUSH2 0x3415 JUMPI PUSH1 0x0 DUP1 REVERT JUMPDEST POP GAS CALL ISZERO DUP1 ISZERO PUSH2 0x3429 JUMPI RETURNDATASIZE PUSH1 0x0 DUP1 RETURNDATACOPY RETURNDATASIZE PUSH1 0x0 REVERT JUMPDEST POP POP POP POP PUSH1 0x40 MLOAD RETURNDATASIZE PUSH1 0x1F NOT PUSH1 0x1F DUP3 ADD AND DUP3 ADD DUP1 PUSH1 0x40 MSTORE POP DUP2 ADD SWAP1 PUSH2 0x344D SWAP2 SWAP1 PUSH2 0x4BFC JUMP JUMPDEST PUSH2 0x3469 JUMPI PUSH1 0x40 MLOAD PUSH3 0x461BCD PUSH1 0xE5 SHL DUP2 MSTORE PUSH1 0x4 ADD PUSH2 0x3DA SWAP1 PUSH2 0x4C1E JUMP JUMPDEST POP POP POP JUMP JUMPDEST CALLER PUSH1 0x0 SWAP1 DUP2 MSTORE PUSH1 0x5 PUSH1 0x20 SWAP1 DUP2 MSTORE PUSH1 0x40 DUP1 DUP4 KECCAK256 PUSH1 0x1 PUSH1 0x1 PUSH1 0xA0 SHL SUB DUP7 AND DUP5 MSTORE SWAP1 SWAP2 MSTORE SWAP1 KECCAK256 SLOAD DUP2 GT ISZERO PUSH2 0x34F2 JUMPI PUSH1 0x40 MLOAD PUSH3 0x461BCD PUSH1 0xE5 SHL DUP2 MSTORE PUSH1 0x20 PUSH1 0x4 DUP3 ADD MSTORE PUSH1 0x28 PUSH1 0x24 DUP3 ADD MSTORE PUSH32 0x4E6F7420656E6F75676820617661696C61626C652062616C616E636520746F20 PUSH1 0x44 DUP3 ADD MSTORE PUSH8 0x7769746864726177 PUSH1 0xC0 SHL PUSH1 0x64 DUP3 ADD MSTORE PUSH1 0x84 ADD PUSH2 0x3DA JUMP JUMPDEST CALLER PUSH1 0x0 SWAP1 DUP2 MSTORE PUSH1 0x5 PUSH1 0x20 SWAP1 DUP2 MSTORE PUSH1 0x40 DUP1 DUP4 KECCAK256 PUSH1 0x1 PUSH1 0x1 PUSH1 0xA0 SHL SUB DUP7 AND DUP5 MSTORE SWAP1 SWAP2 MSTORE DUP2 KECCAK256 DUP1 SLOAD DUP4 SWAP3 SWAP1 PUSH2 0x3525 SWAP1 DUP5 SWAP1 PUSH2 0x49CD JUMP JUMPDEST SWAP1 SWAP2 SSTORE POP POP PUSH1 0x1 PUSH1 0x1 PUSH1 0xA0 SHL SUB DUP3 AND PUSH2 0x356D JUMPI DUP1 SELFBALANCE GT PUSH2 0x3544 JUMPI PUSH1 0x0 DUP1 REVERT JUMPDEST PUSH1 0x40 MLOAD CALLER SWAP1 DUP3 ISZERO PUSH2 0x8FC MUL SWAP1 DUP4 SWAP1 PUSH1 0x0 DUP2 DUP2 DUP2 DUP6 DUP9 DUP9 CALL SWAP4 POP POP POP POP PUSH2 0x3569 JUMPI PUSH1 0x0 DUP1 REVERT JUMPDEST POP POP JUMP JUMPDEST PUSH1 0x40 MLOAD PUSH4 0x70A08231 PUSH1 0xE0 SHL DUP2 MSTORE ADDRESS PUSH1 0x4 DUP3 ADD MSTORE DUP2 SWAP1 PUSH1 0x1 PUSH1 0x1 PUSH1 0xA0 SHL SUB DUP5 AND SWAP1 PUSH4 0x70A08231 SWAP1 PUSH1 0x24 ADD PUSH1 0x20 PUSH1 0x40 MLOAD DUP1 DUP4 SUB DUP2 PUSH1 0x0 DUP8 DUP1 EXTCODESIZE ISZERO DUP1 ISZERO PUSH2 0x35B0 JUMPI PUSH1 0x0 DUP1 REVERT JUMPDEST POP GAS CALL ISZERO DUP1 ISZERO PUSH2 0x35C4 JUMPI RETURNDATASIZE PUSH1 0x0 DUP1 RETURNDATACOPY RETURNDATASIZE PUSH1 0x0 REVERT JUMPDEST POP POP POP POP PUSH1 0x40 MLOAD RETURNDATASIZE PUSH1 0x1F NOT PUSH1 0x1F DUP3 ADD AND DUP3 ADD DUP1 PUSH1 0x40 MSTORE POP DUP2 ADD SWAP1 PUSH2 0x35E8 SWAP2 SWAP1 PUSH2 0x4C6D JUMP JUMPDEST LT ISZERO PUSH2 0x35F3 JUMPI PUSH1 0x0 DUP1 REVERT JUMPDEST PUSH1 0x40 MLOAD PUSH4 0x95EA7B3 PUSH1 0xE0 SHL DUP2 MSTORE ADDRESS PUSH1 0x4 DUP3 ADD MSTORE PUSH1 0x24 DUP2 ADD DUP3 SWAP1 MSTORE PUSH1 0x1 PUSH1 0x1 PUSH1 0xA0 SHL SUB DUP4 AND SWAP1 PUSH4 0x95EA7B3 SWAP1 PUSH1 0x44 ADD PUSH1 0x20 PUSH1 0x40 MLOAD DUP1 DUP4 SUB DUP2 PUSH1 0x0 DUP8 DUP1 EXTCODESIZE ISZERO DUP1 ISZERO PUSH2 0x363B JUMPI PUSH1 0x0 DUP1 REVERT JUMPDEST POP GAS CALL ISZERO DUP1 ISZERO PUSH2 0x364F JUMPI RETURNDATASIZE PUSH1 0x0 DUP1 RETURNDATACOPY RETURNDATASIZE PUSH1 0x0 REVERT JUMPDEST POP POP POP POP PUSH1 0x40 MLOAD RETURNDATASIZE PUSH1 0x1F NOT PUSH1 0x1F DUP3 ADD AND DUP3 ADD DUP1 PUSH1 0x40 MSTORE POP DUP2 ADD SWAP1 PUSH2 0x3673 SWAP2 SWAP1 PUSH2 0x4BFC JUMP JUMPDEST DUP1 ISZERO PUSH2 0x36FC JUMPI POP PUSH1 0x40 MLOAD PUSH4 0x23B872DD PUSH1 0xE0 SHL DUP2 MSTORE PUSH1 0x1 PUSH1 0x1 PUSH1 0xA0 SHL SUB DUP4 AND SWAP1 PUSH4 0x23B872DD SWAP1 PUSH2 0x36AA SWAP1 ADDRESS SWAP1 CALLER SWAP1 DUP7 SWAP1 PUSH1 0x4 ADD PUSH2 0x4BD8 JUMP JUMPDEST PUSH1 0x20 PUSH1 0x40 MLOAD DUP1 DUP4 SUB DUP2 PUSH1 0x0 DUP8 DUP1 EXTCODESIZE ISZERO DUP1 ISZERO PUSH2 0x36C4 JUMPI PUSH1 0x0 DUP1 REVERT JUMPDEST POP GAS CALL ISZERO DUP1 ISZERO PUSH2 0x36D8 JUMPI RETURNDATASIZE PUSH1 0x0 DUP1 RETURNDATACOPY RETURNDATASIZE PUSH1 0x0 REVERT JUMPDEST POP POP POP POP PUSH1 0x40 MLOAD RETURNDATASIZE PUSH1 0x1F NOT PUSH1 0x1F DUP3 ADD AND DUP3 ADD DUP1 PUSH1 0x40 MSTORE POP DUP2 ADD SWAP1 PUSH2 0x36FC SWAP2 SWAP1 PUSH2 0x4BFC JUMP JUMPDEST PUSH2 0x3569 JUMPI PUSH1 0x0 DUP1 REVERT JUMPDEST PUSH1 0x0 DUP1 PUSH1 0x7 DUP1 SLOAD DUP1 PUSH1 0x20 MUL PUSH1 0x20 ADD PUSH1 0x40 MLOAD SWAP1 DUP2 ADD PUSH1 0x40 MSTORE DUP1 SWAP3 SWAP2 SWAP1 DUP2 DUP2 MSTORE PUSH1 0x20 ADD DUP3 DUP1 SLOAD DUP1 ISZERO PUSH2 0x375E JUMPI PUSH1 0x20 MUL DUP3 ADD SWAP2 SWAP1 PUSH1 0x0 MSTORE PUSH1 0x20 PUSH1 0x0 KECCAK256 SWAP1 JUMPDEST DUP2 SLOAD PUSH1 0x1 PUSH1 0x1 PUSH1 0xA0 SHL SUB AND DUP2 MSTORE PUSH1 0x1 SWAP1 SWAP2 ADD SWAP1 PUSH1 0x20 ADD DUP1 DUP4 GT PUSH2 0x3740 JUMPI JUMPDEST POP POP POP POP POP SWAP1 POP PUSH1 0x0 SWAP2 POP PUSH1 0x0 JUMPDEST DUP2 MLOAD DUP2 LT ISZERO PUSH2 0x37BF JUMPI DUP2 DUP2 DUP2 MLOAD DUP2 LT PUSH2 0x3787 JUMPI PUSH2 0x3787 PUSH2 0x4986 JUMP JUMPDEST PUSH1 0x20 MUL PUSH1 0x20 ADD ADD MLOAD PUSH1 0x1 PUSH1 0x1 PUSH1 0xA0 SHL SUB AND DUP5 PUSH1 0x1 PUSH1 0x1 PUSH1 0xA0 SHL SUB AND EQ ISZERO PUSH2 0x37AD JUMPI PUSH1 0x1 SWAP3 POP JUMPDEST DUP1 PUSH2 0x37B7 DUP2 PUSH2 0x49B2 JUMP JUMPDEST SWAP2 POP POP PUSH2 0x376C JUMP JUMPDEST POP POP SWAP2 SWAP1 POP JUMP JUMPDEST PUSH1 0x0 PUSH2 0xE10 PUSH2 0x37D9 PUSH4 0x63236820 DUP5 PUSH2 0x4C86 JUMP JUMPDEST PUSH2 0x37E3 SWAP2 SWAP1 PUSH2 0x4CAC JUMP JUMPDEST SWAP3 SWAP2 POP POP JUMP JUMPDEST PUSH1 0x8 SLOAD PUSH1 0xFF AND PUSH2 0x2595 JUMPI PUSH1 0xE0 DUP2 ADD MLOAD PUSH1 0x20 DUP1 DUP4 ADD MLOAD PUSH1 0x60 DUP5 ADD MLOAD PUSH1 0x1 PUSH1 0x1 PUSH1 0xA0 SHL SUB SWAP2 DUP3 AND PUSH1 0x0 SWAP1 DUP2 MSTORE PUSH1 0x4 DUP5 MSTORE PUSH1 0x40 DUP1 DUP3 KECCAK256 SWAP4 SWAP1 SWAP3 AND DUP2 MSTORE SWAP2 SWAP1 SWAP3 MSTORE KECCAK256 SLOAD LT ISZERO PUSH2 0x3833 JUMPI PUSH1 0x0 DUP1 REVERT JUMPDEST PUSH1 0x60 DUP2 ADD MLOAD PUSH1 0x1 PUSH1 0x1 PUSH1 0xA0 SHL SUB AND PUSH2 0x385A JUMPI PUSH1 0xE0 DUP2 ADD MLOAD SELFBALANCE GT PUSH2 0x3855 JUMPI PUSH1 0x0 DUP1 REVERT JUMPDEST PUSH2 0x38E9 JUMP JUMPDEST PUSH1 0xE0 DUP2 ADD MLOAD PUSH1 0x60 DUP3 ADD MLOAD PUSH1 0x40 MLOAD PUSH4 0x70A08231 PUSH1 0xE0 SHL DUP2 MSTORE ADDRESS PUSH1 0x4 DUP3 ADD MSTORE PUSH1 0x1 PUSH1 0x1 PUSH1 0xA0 SHL SUB SWAP1 SWAP2 AND SWAP1 PUSH4 0x70A08231 SWAP1 PUSH1 0x24 ADD PUSH1 0x20 PUSH1 0x40 MLOAD DUP1 DUP4 SUB DUP2 PUSH1 0x0 DUP8 DUP1 EXTCODESIZE ISZERO DUP1 ISZERO PUSH2 0x38A6 JUMPI PUSH1 0x0 DUP1 REVERT JUMPDEST POP GAS CALL ISZERO DUP1 ISZERO PUSH2 0x38BA JUMPI RETURNDATASIZE PUSH1 0x0 DUP1 RETURNDATACOPY RETURNDATASIZE PUSH1 0x0 REVERT JUMPDEST POP POP POP POP PUSH1 0x40 MLOAD RETURNDATASIZE PUSH1 0x1F NOT PUSH1 0x1F DUP3 ADD AND DUP3 ADD DUP1 PUSH1 0x40 MSTORE POP DUP2 ADD SWAP1 PUSH2 0x38DE SWAP2 SWAP1 PUSH2 0x4C6D JUMP JUMPDEST LT ISZERO PUSH2 0x38E9 JUMPI PUSH1 0x0 DUP1 REVERT JUMPDEST PUSH1 0x80 DUP2 ADD MLOAD PUSH5 0xFFFFFFFFFF AND PUSH1 0x0 SWAP1 DUP2 MSTORE PUSH1 0x2 PUSH1 0x20 SWAP1 DUP2 MSTORE PUSH1 0x40 DUP1 DUP4 KECCAK256 DUP1 SLOAD DUP3 MLOAD DUP2 DUP6 MUL DUP2 ADD DUP6 ADD SWAP1 SWAP4 MSTORE DUP1 DUP4 MSTORE SWAP2 SWAP3 SWAP1 SWAP2 SWAP1 DUP5 SWAP1 DUP5 ADD JUMPDEST DUP3 DUP3 LT ISZERO PUSH2 0x39C7 JUMPI PUSH1 0x0 DUP5 DUP2 MSTORE PUSH1 0x20 SWAP1 DUP2 SWAP1 KECCAK256 PUSH1 0x40 DUP1 MLOAD PUSH2 0x100 DUP2 ADD DUP3 MSTORE PUSH1 0x5 DUP7 MUL SWAP1 SWAP3 ADD DUP1 SLOAD DUP4 MSTORE PUSH1 0x1 DUP1 DUP3 ADD SLOAD PUSH1 0x1 PUSH1 0x1 PUSH1 0xA0 SHL SUB SWAP1 DUP2 AND DUP6 DUP8 ADD MSTORE PUSH1 0x2 DUP4 ADD SLOAD DUP2 AND SWAP4 DUP6 ADD SWAP4 SWAP1 SWAP4 MSTORE PUSH1 0x3 DUP3 ADD SLOAD SWAP3 DUP4 AND PUSH1 0x60 DUP6 ADD MSTORE PUSH5 0xFFFFFFFFFF PUSH1 0x1 PUSH1 0xA0 SHL DUP5 DIV AND PUSH1 0x80 DUP6 ADD MSTORE PUSH1 0xFF PUSH1 0x1 PUSH1 0xC8 SHL DUP5 DIV DUP2 AND ISZERO ISZERO PUSH1 0xA0 DUP7 ADD MSTORE PUSH1 0x1 PUSH1 0xD0 SHL SWAP1 SWAP4 DIV SWAP1 SWAP3 AND ISZERO ISZERO PUSH1 0xC0 DUP5 ADD MSTORE PUSH1 0x4 ADD SLOAD PUSH1 0xE0 DUP4 ADD MSTORE SWAP1 DUP4 MSTORE SWAP1 SWAP3 ADD SWAP2 ADD PUSH2 0x3921 JUMP JUMPDEST POP POP POP POP PUSH1 0x80 DUP4 ADD MLOAD PUSH5 0xFFFFFFFFFF AND PUSH1 0x0 SWAP1 DUP2 MSTORE PUSH1 0x2 PUSH1 0x20 MSTORE PUSH1 0x40 DUP2 KECCAK256 SWAP2 SWAP3 POP JUMPDEST DUP3 MLOAD DUP2 LT ISZERO PUSH2 0x3B36 JUMPI DUP4 PUSH1 0x0 ADD MLOAD DUP4 DUP3 DUP2 MLOAD DUP2 LT PUSH2 0x3A09 JUMPI PUSH2 0x3A09 PUSH2 0x4986 JUMP JUMPDEST PUSH1 0x20 MUL PUSH1 0x20 ADD ADD MLOAD PUSH1 0x0 ADD MLOAD EQ ISZERO PUSH2 0x3B24 JUMPI DUP3 DUP2 DUP2 MLOAD DUP2 LT PUSH2 0x3A2D JUMPI PUSH2 0x3A2D PUSH2 0x4986 JUMP JUMPDEST PUSH1 0x20 SWAP1 DUP2 MUL SWAP2 SWAP1 SWAP2 ADD ADD MLOAD PUSH1 0x1 PUSH1 0xA0 DUP3 ADD MSTORE DUP3 SLOAD SWAP1 SWAP5 POP DUP5 SWAP1 DUP4 SWAP1 DUP4 SWAP1 DUP2 LT PUSH2 0x3A58 JUMPI PUSH2 0x3A58 PUSH2 0x4986 JUMP JUMPDEST PUSH1 0x0 SWAP2 DUP3 MSTORE PUSH1 0x20 SWAP2 DUP3 SWAP1 KECCAK256 DUP4 MLOAD PUSH1 0x5 SWAP1 SWAP3 MUL ADD SWAP1 DUP2 SSTORE SWAP1 DUP3 ADD MLOAD PUSH1 0x1 DUP3 ADD DUP1 SLOAD PUSH1 0x1 PUSH1 0x1 PUSH1 0xA0 SHL SUB SWAP3 DUP4 AND PUSH1 0x1 PUSH1 0x1 PUSH1 0xA0 SHL SUB NOT SWAP2 DUP3 AND OR SWAP1 SWAP2 SSTORE PUSH1 0x40 DUP5 ADD MLOAD PUSH1 0x2 DUP5 ADD DUP1 SLOAD SWAP2 DUP5 AND SWAP2 SWAP1 SWAP3 AND OR SWAP1 SSTORE PUSH1 0x60 DUP4 ADD MLOAD PUSH1 0x3 DUP4 ADD DUP1 SLOAD PUSH1 0x80 DUP7 ADD MLOAD PUSH1 0xA0 DUP8 ADD MLOAD PUSH1 0xC0 DUP9 ADD MLOAD ISZERO ISZERO PUSH1 0x1 PUSH1 0xD0 SHL MUL PUSH1 0xFF PUSH1 0xD0 SHL NOT SWAP2 ISZERO ISZERO PUSH1 0x1 PUSH1 0xC8 SHL MUL SWAP2 SWAP1 SWAP2 AND PUSH2 0xFFFF PUSH1 0xC8 SHL NOT PUSH5 0xFFFFFFFFFF SWAP1 SWAP4 AND PUSH1 0x1 PUSH1 0xA0 SHL MUL PUSH1 0x1 PUSH1 0x1 PUSH1 0xC8 SHL SUB NOT SWAP1 SWAP5 AND SWAP6 SWAP1 SWAP7 AND SWAP5 SWAP1 SWAP5 OR SWAP2 SWAP1 SWAP2 OR AND SWAP3 SWAP1 SWAP3 OR OR SWAP1 SSTORE PUSH1 0xE0 SWAP1 SWAP2 ADD MLOAD PUSH1 0x4 SWAP1 SWAP2 ADD SSTORE PUSH2 0x3B36 JUMP JUMPDEST DUP1 PUSH2 0x3B2E DUP2 PUSH2 0x49B2 JUMP JUMPDEST SWAP2 POP POP PUSH2 0x39E9 JUMP JUMPDEST POP PUSH1 0x80 DUP4 ADD MLOAD PUSH5 0xFFFFFFFFFF AND PUSH1 0x0 SWAP1 DUP2 MSTORE PUSH1 0x2 PUSH1 0x20 MSTORE PUSH1 0x40 SWAP1 KECCAK256 DUP2 SLOAD PUSH2 0x3B5F SWAP2 SWAP1 DUP4 SWAP1 PUSH2 0x4245 JUMP JUMPDEST POP PUSH1 0xE0 DUP4 ADD MLOAD PUSH1 0x20 DUP1 DUP6 ADD MLOAD PUSH1 0x1 PUSH1 0x1 PUSH1 0xA0 SHL SUB SWAP1 DUP2 AND PUSH1 0x0 SWAP1 DUP2 MSTORE PUSH1 0x4 DUP4 MSTORE PUSH1 0x40 DUP1 DUP3 KECCAK256 PUSH1 0x60 DUP10 ADD MLOAD SWAP1 SWAP4 AND DUP3 MSTORE SWAP2 SWAP1 SWAP3 MSTORE DUP2 KECCAK256 DUP1 SLOAD SWAP1 SWAP2 SWAP1 PUSH2 0x3BA4 SWAP1 DUP5 SWAP1 PUSH2 0x49CD JUMP JUMPDEST SWAP1 SWAP2 SSTORE POP POP PUSH1 0x60 DUP4 ADD MLOAD PUSH1 0x1 PUSH1 0x1 PUSH1 0xA0 SHL SUB AND PUSH2 0x3C69 JUMPI PUSH1 0x0 DUP4 PUSH1 0x40 ADD MLOAD PUSH1 0x1 PUSH1 0x1 PUSH1 0xA0 SHL SUB AND PUSH2 0x8FC DUP6 PUSH1 0xE0 ADD MLOAD SWAP1 DUP2 ISZERO MUL SWAP1 PUSH1 0x40 MLOAD PUSH1 0x0 PUSH1 0x40 MLOAD DUP1 DUP4 SUB DUP2 DUP6 DUP9 DUP9 CALL SWAP4 POP POP POP POP SWAP1 POP DUP1 PUSH2 0x3C2F JUMPI PUSH1 0x40 MLOAD PUSH3 0x461BCD PUSH1 0xE5 SHL DUP2 MSTORE PUSH1 0x20 PUSH1 0x4 DUP3 ADD MSTORE PUSH1 0x10 PUSH1 0x24 DUP3 ADD MSTORE PUSH16 0x2A3930B739B332B9103330B4B632B217 PUSH1 0x81 SHL PUSH1 0x44 DUP3 ADD MSTORE PUSH1 0x64 ADD PUSH2 0x3DA JUMP JUMPDEST PUSH1 0x40 MLOAD PUSH1 0x1 DUP2 MSTORE PUSH32 0xA2EA5B0DB1D57B0E32DF654AA9A1A97BC8066881E37669FF488D2BEBE87C9F87 SWAP1 PUSH1 0x20 ADD PUSH1 0x40 MLOAD DUP1 SWAP2 SUB SWAP1 LOG1 POP POP POP POP JUMP JUMPDEST PUSH1 0x60 DUP4 ADD MLOAD PUSH1 0xE0 DUP5 ADD MLOAD PUSH1 0x40 MLOAD PUSH4 0x95EA7B3 PUSH1 0xE0 SHL DUP2 MSTORE ADDRESS PUSH1 0x4 DUP3 ADD MSTORE PUSH1 0x24 DUP2 ADD SWAP2 SWAP1 SWAP2 MSTORE PUSH1 0x1 PUSH1 0x1 PUSH1 0xA0 SHL SUB SWAP1 SWAP2 AND SWAP1 PUSH4 0x95EA7B3 SWAP1 PUSH1 0x44 ADD PUSH1 0x20 PUSH1 0x40 MLOAD DUP1 DUP4 SUB DUP2 PUSH1 0x0 DUP8 DUP1 EXTCODESIZE ISZERO DUP1 ISZERO PUSH2 0x3CBD JUMPI PUSH1 0x0 DUP1 REVERT JUMPDEST POP GAS CALL ISZERO DUP1 ISZERO PUSH2 0x3CD1 JUMPI RETURNDATASIZE PUSH1 0x0 DUP1 RETURNDATACOPY RETURNDATASIZE PUSH1 0x0 REVERT JUMPDEST POP POP POP POP PUSH1 0x40 MLOAD RETURNDATASIZE PUSH1 0x1F NOT PUSH1 0x1F DUP3 ADD AND DUP3 ADD DUP1 PUSH1 0x40 MSTORE POP DUP2 ADD SWAP1 PUSH2 0x3CF5 SWAP2 SWAP1 PUSH2 0x4BFC JUMP JUMPDEST DUP1 ISZERO PUSH2 0x3D8A JUMPI POP DUP3 PUSH1 0x60 ADD MLOAD PUSH1 0x1 PUSH1 0x1 PUSH1 0xA0 SHL SUB AND PUSH4 0x23B872DD ADDRESS DUP6 PUSH1 0x40 ADD MLOAD DUP7 PUSH1 0xE0 ADD MLOAD PUSH1 0x40 MLOAD DUP5 PUSH4 0xFFFFFFFF AND PUSH1 0xE0 SHL DUP2 MSTORE PUSH1 0x4 ADD PUSH2 0x3D38 SWAP4 SWAP3 SWAP2 SWAP1 PUSH2 0x4BD8 JUMP JUMPDEST PUSH1 0x20 PUSH1 0x40 MLOAD DUP1 DUP4 SUB DUP2 PUSH1 0x0 DUP8 DUP1 EXTCODESIZE ISZERO DUP1 ISZERO PUSH2 0x3D52 JUMPI PUSH1 0x0 DUP1 REVERT JUMPDEST POP GAS CALL ISZERO DUP1 ISZERO PUSH2 0x3D66 JUMPI RETURNDATASIZE PUSH1 0x0 DUP1 RETURNDATACOPY RETURNDATASIZE PUSH1 0x0 REVERT JUMPDEST POP POP POP POP PUSH1 0x40 MLOAD RETURNDATASIZE PUSH1 0x1F NOT PUSH1 0x1F DUP3 ADD AND DUP3 ADD DUP1 PUSH1 0x40 MSTORE POP DUP2 ADD SWAP1 PUSH2 0x3D8A SWAP2 SWAP1 PUSH2 0x4BFC JUMP JUMPDEST PUSH2 0x3469 JUMPI PUSH1 0x0 DUP1 REVERT JUMPDEST PUSH1 0x0 PUSH2 0x3DA1 DUP3 PUSH2 0xE10 PUSH2 0x4CD0 JUMP JUMPDEST PUSH2 0x37E3 SWAP1 PUSH4 0x63236820 PUSH2 0x4CFD JUMP JUMPDEST PUSH2 0x3DB7 PUSH2 0x4201 JUMP JUMPDEST PUSH1 0x40 MLOAD PUSH12 0xFFFFFFFFFFFFFFFFFFFFFFFF NOT PUSH1 0x60 DUP9 SWAP1 SHL AND PUSH1 0x20 DUP3 ADD MSTORE PUSH1 0x1 PUSH1 0x1 PUSH1 0xD8 SHL SUB NOT PUSH1 0xD8 DUP6 SWAP1 SHL AND PUSH1 0x34 DUP3 ADD MSTORE TIMESTAMP PUSH1 0x39 DUP3 ADD MSTORE PUSH1 0x0 SWAP1 PUSH1 0x59 ADD PUSH1 0x40 DUP1 MLOAD PUSH1 0x1F NOT DUP2 DUP5 SUB ADD DUP2 MSTORE DUP3 DUP3 MSTORE DUP1 MLOAD PUSH1 0x20 SWAP2 DUP3 ADD KECCAK256 PUSH2 0x100 DUP5 ADD DUP4 MSTORE DUP4 MSTORE PUSH1 0x1 PUSH1 0x1 PUSH1 0xA0 SHL SUB SWAP10 DUP11 AND SWAP1 DUP4 ADD MSTORE SWAP7 DUP9 AND SWAP7 DUP2 ADD SWAP7 SWAP1 SWAP7 MSTORE POP POP SWAP2 SWAP1 SWAP4 AND PUSH1 0x60 DUP4 ADD MSTORE PUSH5 0xFFFFFFFFFF SWAP1 SWAP3 AND PUSH1 0x80 DUP3 ADD MSTORE PUSH1 0x0 PUSH1 0xA0 DUP3 ADD DUP2 SWAP1 MSTORE PUSH1 0xC0 DUP3 ADD MSTORE PUSH1 0xE0 DUP2 ADD SWAP2 SWAP1 SWAP2 MSTORE SWAP1 JUMP JUMPDEST CALLER PUSH1 0x0 SWAP1 DUP2 MSTORE PUSH1 0x20 DUP2 SWAP1 MSTORE PUSH1 0x40 SWAP1 KECCAK256 DUP1 SLOAD PUSH1 0x1 PUSH1 0xA0 SHL SWAP1 DIV PUSH1 0xFF AND PUSH2 0x3F3E JUMPI DUP1 SLOAD CALLER PUSH1 0x1 PUSH1 0x1 PUSH1 0xA0 SHL SUB NOT SWAP2 DUP3 AND DUP2 OR DUP4 SSTORE PUSH1 0x1 DUP1 SLOAD DUP1 DUP3 ADD DUP3 SSTORE PUSH32 0xB10E2D527612073B26EECDFD717E6A320CF44B4AFAC2B0732D9FCBE2B7FA0CF6 ADD DUP1 SLOAD DUP5 AND SWAP1 SWAP3 OR SWAP1 SWAP2 SSTORE DUP3 SLOAD PUSH1 0x1 PUSH1 0xA0 SHL PUSH1 0xFF PUSH1 0xA0 SHL NOT SWAP1 SWAP2 AND OR DUP4 SSTORE DUP1 DUP4 ADD DUP1 SLOAD DUP1 DUP4 ADD DUP3 SSTORE PUSH1 0x0 SWAP2 DUP3 MSTORE PUSH1 0x20 DUP1 DUP4 KECCAK256 PUSH1 0x6 DUP1 DUP5 DIV SWAP1 SWAP2 ADD DUP1 SLOAD SWAP2 SWAP1 SWAP4 MOD PUSH1 0x5 MUL PUSH2 0x100 EXP PUSH5 0xFFFFFFFFFF DUP2 DUP2 MUL NOT SWAP1 SWAP3 AND SWAP2 DUP11 AND MUL OR SWAP1 SWAP2 SSTORE PUSH1 0x2 DUP6 ADD DUP1 SLOAD SWAP4 DUP5 ADD DUP2 SSTORE DUP3 MSTORE SWAP1 KECCAK256 ADD DUP1 SLOAD SWAP1 SWAP2 AND PUSH1 0x1 PUSH1 0x1 PUSH1 0xA0 SHL SUB DUP5 AND OR SWAP1 SSTORE PUSH2 0x40BF JUMP JUMPDEST PUSH1 0x0 DUP2 PUSH1 0x1 ADD DUP1 SLOAD DUP1 PUSH1 0x20 MUL PUSH1 0x20 ADD PUSH1 0x40 MLOAD SWAP1 DUP2 ADD PUSH1 0x40 MSTORE DUP1 SWAP3 SWAP2 SWAP1 DUP2 DUP2 MSTORE PUSH1 0x20 ADD DUP3 DUP1 SLOAD DUP1 ISZERO PUSH2 0x3FBC JUMPI PUSH1 0x20 MUL DUP3 ADD SWAP2 SWAP1 PUSH1 0x0 MSTORE PUSH1 0x20 PUSH1 0x0 KECCAK256 SWAP1 PUSH1 0x0 SWAP1 JUMPDEST DUP3 DUP3 SWAP1 SLOAD SWAP1 PUSH2 0x100 EXP SWAP1 DIV PUSH5 0xFFFFFFFFFF AND PUSH5 0xFFFFFFFFFF AND DUP2 MSTORE PUSH1 0x20 ADD SWAP1 PUSH1 0x5 ADD SWAP1 PUSH1 0x20 DUP3 PUSH1 0x4 ADD DIV SWAP3 DUP4 ADD SWAP3 PUSH1 0x1 SUB DUP3 MUL SWAP2 POP DUP1 DUP5 GT PUSH2 0x3F7D JUMPI SWAP1 POP JUMPDEST POP POP POP POP POP SWAP1 POP PUSH1 0x0 DUP3 PUSH1 0x2 ADD DUP1 SLOAD DUP1 PUSH1 0x20 MUL PUSH1 0x20 ADD PUSH1 0x40 MLOAD SWAP1 DUP2 ADD PUSH1 0x40 MSTORE DUP1 SWAP3 SWAP2 SWAP1 DUP2 DUP2 MSTORE PUSH1 0x20 ADD DUP3 DUP1 SLOAD DUP1 ISZERO PUSH2 0x401D JUMPI PUSH1 0x20 MUL DUP3 ADD SWAP2 SWAP1 PUSH1 0x0 MSTORE PUSH1 0x20 PUSH1 0x0 KECCAK256 SWAP1 JUMPDEST DUP2 SLOAD PUSH1 0x1 PUSH1 0x1 PUSH1 0xA0 SHL SUB AND DUP2 MSTORE PUSH1 0x1 SWAP1 SWAP2 ADD SWAP1 PUSH1 0x20 ADD DUP1 DUP4 GT PUSH2 0x3FFF JUMPI JUMPDEST POP POP POP POP POP SWAP1 POP PUSH2 0x402E DUP6 DUP4 PUSH2 0x4143 JUMP JUMPDEST PUSH2 0x407D JUMPI DUP5 DUP4 PUSH1 0x1 ADD PUSH1 0x1 DUP2 PUSH1 0x1 DUP2 SLOAD ADD DUP1 DUP3 SSTORE DUP1 SWAP2 POP POP SUB SWAP1 PUSH1 0x0 MSTORE PUSH1 0x20 PUSH1 0x0 KECCAK256 SWAP1 PUSH1 0x6 SWAP2 DUP3 DUP3 DIV ADD SWAP2 SWAP1 MOD PUSH1 0x5 MUL PUSH2 0x100 EXP DUP2 SLOAD DUP2 PUSH5 0xFFFFFFFFFF MUL NOT AND SWAP1 DUP4 PUSH5 0xFFFFFFFFFF AND MUL OR SWAP1 SSTORE POP JUMPDEST PUSH2 0x4087 DUP5 DUP3 PUSH2 0x41A5 JUMP JUMPDEST PUSH2 0x40BC JUMPI PUSH1 0x2 DUP4 ADD DUP1 SLOAD PUSH1 0x1 DUP2 ADD DUP3 SSTORE PUSH1 0x0 SWAP2 DUP3 MSTORE PUSH1 0x20 SWAP1 SWAP2 KECCAK256 ADD DUP1 SLOAD PUSH1 0x1 PUSH1 0x1 PUSH1 0xA0 SHL SUB NOT AND PUSH1 0x1 PUSH1 0x1 PUSH1 0xA0 SHL SUB DUP7 AND OR SWAP1 SSTORE JUMPDEST POP POP JUMPDEST CALLER PUSH1 0x0 SWAP1 DUP2 MSTORE PUSH1 0x20 DUP2 SWAP1 MSTORE PUSH1 0x40 SWAP1 KECCAK256 DUP2 SLOAD DUP2 SLOAD PUSH1 0x1 PUSH1 0x1 PUSH1 0xA0 SHL SUB SWAP1 SWAP2 AND PUSH1 0x1 PUSH1 0x1 PUSH1 0xA0 SHL SUB NOT DUP3 AND DUP2 OR DUP4 SSTORE DUP4 SLOAD PUSH1 0x1 PUSH1 0x1 PUSH1 0xA8 SHL SUB NOT SWAP1 SWAP3 AND OR PUSH1 0x1 PUSH1 0xA0 SHL SWAP2 DUP3 SWAP1 DIV PUSH1 0xFF AND ISZERO ISZERO SWAP1 SWAP2 MUL OR DUP2 SSTORE PUSH1 0x1 DUP1 DUP4 ADD DUP1 SLOAD DUP5 SWAP4 SWAP3 PUSH2 0x4126 SWAP3 SWAP1 DUP5 ADD SWAP2 PUSH2 0x436A JUMP JUMPDEST POP PUSH1 0x2 DUP3 DUP2 ADD DUP1 SLOAD PUSH2 0x413B SWAP3 DUP5 ADD SWAP2 SWAP1 PUSH2 0x43C4 JUMP JUMPDEST POP POP POP POP POP POP JUMP JUMPDEST PUSH1 0x0 DUP1 JUMPDEST DUP3 MLOAD DUP2 LT ISZERO PUSH2 0x419B JUMPI DUP4 PUSH5 0xFFFFFFFFFF AND DUP4 DUP3 DUP2 MLOAD DUP2 LT PUSH2 0x416A JUMPI PUSH2 0x416A PUSH2 0x4986 JUMP JUMPDEST PUSH1 0x20 MUL PUSH1 0x20 ADD ADD MLOAD PUSH5 0xFFFFFFFFFF AND EQ ISZERO PUSH2 0x4189 JUMPI PUSH1 0x1 SWAP2 POP POP PUSH2 0x37E3 JUMP JUMPDEST DUP1 PUSH2 0x4193 DUP2 PUSH2 0x49B2 JUMP JUMPDEST SWAP2 POP POP PUSH2 0x4147 JUMP JUMPDEST POP PUSH1 0x0 SWAP4 SWAP3 POP POP POP JUMP JUMPDEST PUSH1 0x0 DUP1 JUMPDEST DUP3 MLOAD DUP2 LT ISZERO PUSH2 0x419B JUMPI DUP4 PUSH1 0x1 PUSH1 0x1 PUSH1 0xA0 SHL SUB AND DUP4 DUP3 DUP2 MLOAD DUP2 LT PUSH2 0x41CE JUMPI PUSH2 0x41CE PUSH2 0x4986 JUMP JUMPDEST PUSH1 0x20 MUL PUSH1 0x20 ADD ADD MLOAD PUSH1 0x1 PUSH1 0x1 PUSH1 0xA0 SHL SUB AND EQ ISZERO PUSH2 0x41EF JUMPI PUSH1 0x1 SWAP2 POP POP PUSH2 0x37E3 JUMP JUMPDEST DUP1 PUSH2 0x41F9 DUP2 PUSH2 0x49B2 JUMP JUMPDEST SWAP2 POP POP PUSH2 0x41A9 JUMP JUMPDEST PUSH1 0x40 DUP1 MLOAD PUSH2 0x100 DUP2 ADD DUP3 MSTORE PUSH1 0x0 DUP1 DUP3 MSTORE PUSH1 0x20 DUP3 ADD DUP2 SWAP1 MSTORE SWAP2 DUP2 ADD DUP3 SWAP1 MSTORE PUSH1 0x60 DUP2 ADD DUP3 SWAP1 MSTORE PUSH1 0x80 DUP2 ADD DUP3 SWAP1 MSTORE PUSH1 0xA0 DUP2 ADD DUP3 SWAP1 MSTORE PUSH1 0xC0 DUP2 ADD DUP3 SWAP1 MSTORE PUSH1 0xE0 DUP2 ADD SWAP2 SWAP1 SWAP2 MSTORE SWAP1 JUMP JUMPDEST DUP3 DUP1 SLOAD DUP3 DUP3 SSTORE SWAP1 PUSH1 0x0 MSTORE PUSH1 0x20 PUSH1 0x0 KECCAK256 SWAP1 PUSH1 0x5 MUL DUP2 ADD SWAP3 DUP3 ISZERO PUSH2 0x435A JUMPI PUSH1 0x0 MSTORE PUSH1 0x20 PUSH1 0x0 KECCAK256 SWAP2 PUSH1 0x5 MUL DUP3 ADD JUMPDEST DUP3 DUP2 GT ISZERO PUSH2 0x435A JUMPI DUP3 SLOAD DUP3 SSTORE PUSH1 0x1 DUP1 DUP5 ADD SLOAD SWAP1 DUP4 ADD DUP1 SLOAD PUSH1 0x1 PUSH1 0x1 PUSH1 0xA0 SHL SUB NOT SWAP1 DUP2 AND PUSH1 0x1 PUSH1 0x1 PUSH1 0xA0 SHL SUB SWAP4 DUP5 AND OR SWAP1 SWAP2 SSTORE PUSH1 0x2 DUP1 DUP7 ADD SLOAD SWAP1 DUP6 ADD DUP1 SLOAD DUP4 AND SWAP2 DUP5 AND SWAP2 SWAP1 SWAP2 OR SWAP1 SSTORE PUSH1 0x3 DUP1 DUP7 ADD DUP1 SLOAD SWAP2 DUP7 ADD DUP1 SLOAD SWAP4 DUP5 AND SWAP3 SWAP1 SWAP5 AND SWAP2 DUP3 OR DUP5 SSTORE DUP1 SLOAD PUSH5 0xFFFFFFFFFF PUSH1 0x1 PUSH1 0xA0 SHL SWAP2 DUP3 SWAP1 DIV AND MUL PUSH1 0x1 PUSH1 0x1 PUSH1 0xC8 SHL SUB NOT SWAP1 SWAP4 AND SWAP1 SWAP2 OR SWAP2 SWAP1 SWAP2 OR DUP1 DUP4 SSTORE DUP2 SLOAD PUSH1 0xFF PUSH1 0x1 PUSH1 0xC8 SHL SWAP2 DUP3 SWAP1 DIV DUP2 AND ISZERO ISZERO SWAP1 SWAP2 MUL PUSH1 0xFF PUSH1 0xC8 SHL NOT DUP4 AND DUP2 OR DUP6 SSTORE SWAP3 SLOAD PUSH1 0x1 PUSH1 0xD0 SHL SWAP1 DUP2 SWAP1 DIV SWAP1 SWAP2 AND ISZERO ISZERO MUL PUSH1 0xFF PUSH1 0xD0 SHL NOT SWAP1 SWAP3 AND PUSH2 0xFFFF PUSH1 0xC8 SHL NOT SWAP1 SWAP2 AND OR OR SWAP1 SSTORE PUSH1 0x4 DUP1 DUP5 ADD SLOAD SWAP1 DUP4 ADD SSTORE PUSH1 0x5 SWAP3 DUP4 ADD SWAP3 SWAP1 SWAP2 ADD SWAP1 PUSH2 0x4270 JUMP JUMPDEST POP PUSH2 0x4366 SWAP3 SWAP2 POP PUSH2 0x4403 JUMP JUMPDEST POP SWAP1 JUMP JUMPDEST DUP3 DUP1 SLOAD DUP3 DUP3 SSTORE SWAP1 PUSH1 0x0 MSTORE PUSH1 0x20 PUSH1 0x0 KECCAK256 SWAP1 PUSH1 0x5 ADD PUSH1 0x6 SWAP1 DIV DUP2 ADD SWAP3 DUP3 ISZERO PUSH2 0x43B8 JUMPI PUSH1 0x0 MSTORE PUSH1 0x20 PUSH1 0x0 KECCAK256 SWAP2 PUSH1 0x5 ADD PUSH1 0x6 SWAP1 DIV DUP3 ADD JUMPDEST DUP3 DUP2 GT ISZERO PUSH2 0x43B8 JUMPI DUP3 SLOAD DUP3 SSTORE SWAP2 PUSH1 0x1 ADD SWAP2 SWAP1 PUSH1 0x1 ADD SWAP1 PUSH2 0x439D JUMP JUMPDEST POP PUSH2 0x4366 SWAP3 SWAP2 POP PUSH2 0x4450 JUMP JUMPDEST DUP3 DUP1 SLOAD DUP3 DUP3 SSTORE SWAP1 PUSH1 0x0 MSTORE PUSH1 0x20 PUSH1 0x0 KECCAK256 SWAP1 DUP2 ADD SWAP3 DUP3 ISZERO PUSH2 0x43B8 JUMPI PUSH1 0x0 MSTORE PUSH1 0x20 PUSH1 0x0 KECCAK256 SWAP2 DUP3 ADD DUP3 DUP2 GT ISZERO PUSH2 0x43B8 JUMPI DUP3 SLOAD DUP3 SSTORE SWAP2 PUSH1 0x1 ADD SWAP2 SWAP1 PUSH1 0x1 ADD SWAP1 PUSH2 0x439D JUMP JUMPDEST JUMPDEST DUP1 DUP3 GT ISZERO PUSH2 0x4366 JUMPI PUSH1 0x0 DUP1 DUP3 SSTORE PUSH1 0x1 DUP3 ADD DUP1 SLOAD PUSH1 0x1 PUSH1 0x1 PUSH1 0xA0 SHL SUB NOT SWAP1 DUP2 AND SWAP1 SWAP2 SSTORE PUSH1 0x2 DUP4 ADD DUP1 SLOAD SWAP1 SWAP2 AND SWAP1 SSTORE PUSH1 0x3 DUP3 ADD DUP1 SLOAD PUSH1 0x1 PUSH1 0x1 PUSH1 0xD8 SHL SUB NOT AND SWAP1 SSTORE PUSH1 0x4 DUP3 ADD SSTORE PUSH1 0x5 ADD PUSH2 0x4404 JUMP JUMPDEST JUMPDEST DUP1 DUP3 GT ISZERO PUSH2 0x4366 JUMPI PUSH1 0x0 DUP2 SSTORE PUSH1 0x1 ADD PUSH2 0x4451 JUMP JUMPDEST PUSH1 0x1 PUSH1 0x1 PUSH1 0xA0 SHL SUB DUP2 AND DUP2 EQ PUSH2 0x2595 JUMPI PUSH1 0x0 DUP1 REVERT JUMPDEST PUSH1 0x0 PUSH1 0x20 DUP3 DUP5 SUB SLT ISZERO PUSH2 0x448C JUMPI PUSH1 0x0 DUP1 REVERT JUMPDEST DUP2 CALLDATALOAD PUSH2 0x4497 DUP2 PUSH2 0x4465 JUMP JUMPDEST SWAP4 SWAP3 POP POP POP JUMP JUMPDEST PUSH1 0x20 DUP1 DUP3 MSTORE DUP3 MLOAD DUP3 DUP3 ADD DUP2 SWAP1 MSTORE PUSH1 0x0 SWAP2 SWAP1 PUSH1 0x40 SWAP1 DUP2 DUP6 ADD SWAP1 DUP7 DUP5 ADD DUP6 JUMPDEST DUP3 DUP2 LT ISZERO PUSH2 0x4539 JUMPI DUP2 MLOAD DUP1 MLOAD DUP6 MSTORE DUP7 DUP2 ADD MLOAD PUSH1 0x1 PUSH1 0x1 PUSH1 0xA0 SHL SUB SWAP1 DUP2 AND DUP9 DUP8 ADD MSTORE DUP7 DUP3 ADD MLOAD DUP2 AND DUP8 DUP8 ADD MSTORE PUSH1 0x60 DUP1 DUP4 ADD MLOAD SWAP1 SWAP2 AND SWAP1 DUP7 ADD MSTORE PUSH1 0x80 DUP1 DUP3 ADD MLOAD PUSH5 0xFFFFFFFFFF AND SWAP1 DUP7 ADD MSTORE PUSH1 0xA0 DUP1 DUP3 ADD MLOAD ISZERO ISZERO SWAP1 DUP7 ADD MSTORE PUSH1 0xC0 DUP1 DUP3 ADD MLOAD ISZERO ISZERO SWAP1 DUP7 ADD MSTORE PUSH1 0xE0 SWAP1 DUP2 ADD MLOAD SWAP1 DUP6 ADD MSTORE PUSH2 0x100 SWAP1 SWAP4 ADD SWAP3 SWAP1 DUP6 ADD SWAP1 PUSH1 0x1 ADD PUSH2 0x44BB JUMP JUMPDEST POP SWAP2 SWAP8 SWAP7 POP POP POP POP POP POP POP JUMP JUMPDEST PUSH1 0x0 PUSH1 0x20 DUP3 DUP5 SUB SLT ISZERO PUSH2 0x4558 JUMPI PUSH1 0x0 DUP1 REVERT JUMPDEST POP CALLDATALOAD SWAP2 SWAP1 POP JUMP JUMPDEST PUSH1 0x20 DUP1 DUP3 MSTORE DUP3 MLOAD DUP3 DUP3 ADD DUP2 SWAP1 MSTORE PUSH1 0x0 SWAP2 SWAP1 PUSH1 0x40 SWAP1 DUP2 DUP6 ADD SWAP1 DUP7 DUP5 ADD DUP6 JUMPDEST DUP3 DUP2 LT ISZERO PUSH2 0x4539 JUMPI DUP2 MLOAD DUP1 MLOAD PUSH1 0x1 PUSH1 0x1 PUSH1 0xA0 SHL SUB AND DUP6 MSTORE DUP7 DUP2 ADD MLOAD DUP8 DUP7 ADD MSTORE DUP6 ADD MLOAD DUP6 DUP6 ADD MSTORE PUSH1 0x60 SWAP1 SWAP4 ADD SWAP3 SWAP1 DUP6 ADD SWAP1 PUSH1 0x1 ADD PUSH2 0x457C JUMP JUMPDEST DUP1 CALLDATALOAD PUSH5 0xFFFFFFFFFF DUP2 AND DUP2 EQ PUSH2 0x2A6A JUMPI PUSH1 0x0 DUP1 REVERT JUMPDEST PUSH1 0x0 PUSH1 0xE0 DUP3 DUP5 SUB SLT ISZERO PUSH2 0x45DB JUMPI PUSH1 0x0 DUP1 REVERT JUMPDEST POP SWAP2 SWAP1 POP JUMP JUMPDEST PUSH1 0x0 DUP1 PUSH1 0x0 DUP1 PUSH1 0x0 PUSH2 0x160 DUP7 DUP9 SUB SLT ISZERO PUSH2 0x45FA JUMPI PUSH1 0x0 DUP1 REVERT JUMPDEST DUP6 CALLDATALOAD PUSH2 0x4605 DUP2 PUSH2 0x4465 JUMP JUMPDEST SWAP5 POP PUSH2 0x4613 PUSH1 0x20 DUP8 ADD PUSH2 0x45B4 JUMP JUMPDEST SWAP4 POP PUSH1 0x40 DUP7 ADD CALLDATALOAD SWAP3 POP PUSH1 0x60 DUP7 ADD CALLDATALOAD PUSH2 0x462A DUP2 PUSH2 0x4465 JUMP JUMPDEST SWAP2 POP PUSH2 0x4639 DUP8 PUSH1 0x80 DUP9 ADD PUSH2 0x45C9 JUMP JUMPDEST SWAP1 POP SWAP3 SWAP6 POP SWAP3 SWAP6 SWAP1 SWAP4 POP JUMP JUMPDEST PUSH1 0x0 DUP2 MLOAD DUP1 DUP5 MSTORE PUSH1 0x20 DUP1 DUP6 ADD SWAP5 POP DUP1 DUP5 ADD PUSH1 0x0 JUMPDEST DUP4 DUP2 LT ISZERO PUSH2 0x467E JUMPI DUP2 MLOAD PUSH1 0x1 PUSH1 0x1 PUSH1 0xA0 SHL SUB AND DUP8 MSTORE SWAP6 DUP3 ADD SWAP6 SWAP1 DUP3 ADD SWAP1 PUSH1 0x1 ADD PUSH2 0x4659 JUMP JUMPDEST POP SWAP5 SWAP6 SWAP5 POP POP POP POP POP JUMP JUMPDEST PUSH1 0x0 PUSH1 0x20 DUP1 DUP4 ADD DUP2 DUP5 MSTORE DUP1 DUP6 MLOAD DUP1 DUP4 MSTORE PUSH1 0x40 SWAP3 POP DUP3 DUP7 ADD SWAP2 POP DUP3 DUP2 PUSH1 0x5 SHL DUP8 ADD ADD DUP5 DUP9 ADD PUSH1 0x0 DUP1 JUMPDEST DUP5 DUP2 LT ISZERO PUSH2 0x4752 JUMPI DUP10 DUP5 SUB PUSH1 0x3F NOT ADD DUP7 MSTORE DUP3 MLOAD DUP1 MLOAD PUSH1 0x1 PUSH1 0x1 PUSH1 0xA0 SHL SUB AND DUP6 MSTORE DUP9 DUP2 ADD MLOAD ISZERO ISZERO DUP10 DUP7 ADD MSTORE DUP8 DUP2 ADD MLOAD PUSH1 0x80 DUP10 DUP8 ADD DUP2 SWAP1 MSTORE DUP2 MLOAD SWAP1 DUP8 ADD DUP2 SWAP1 MSTORE PUSH1 0xA0 DUP8 ADD SWAP2 DUP12 ADD SWAP1 DUP6 SWAP1 JUMPDEST DUP1 DUP3 LT ISZERO PUSH2 0x4721 JUMPI DUP3 MLOAD PUSH5 0xFFFFFFFFFF AND DUP5 MSTORE SWAP3 DUP13 ADD SWAP3 SWAP2 DUP13 ADD SWAP2 PUSH1 0x1 SWAP2 SWAP1 SWAP2 ADD SWAP1 PUSH2 0x46FA JUMP JUMPDEST POP POP POP PUSH1 0x60 DUP1 DUP4 ADD MLOAD SWAP3 POP DUP7 DUP3 SUB DUP2 DUP9 ADD MSTORE POP PUSH2 0x473E DUP2 DUP4 PUSH2 0x4645 JUMP JUMPDEST SWAP8 DUP11 ADD SWAP8 SWAP6 POP POP POP SWAP2 DUP8 ADD SWAP2 PUSH1 0x1 ADD PUSH2 0x46B1 JUMP JUMPDEST POP SWAP2 SWAP10 SWAP9 POP POP POP POP POP POP POP POP POP JUMP JUMPDEST PUSH4 0x4E487B71 PUSH1 0xE0 SHL PUSH1 0x0 MSTORE PUSH1 0x41 PUSH1 0x4 MSTORE PUSH1 0x24 PUSH1 0x0 REVERT JUMPDEST PUSH1 0x40 MLOAD PUSH1 0x80 DUP2 ADD PUSH1 0x1 PUSH1 0x1 PUSH1 0x40 SHL SUB DUP2 GT DUP3 DUP3 LT OR ISZERO PUSH2 0x4799 JUMPI PUSH2 0x4799 PUSH2 0x4761 JUMP JUMPDEST PUSH1 0x40 MSTORE SWAP1 JUMP JUMPDEST PUSH1 0x40 MLOAD PUSH1 0x1F DUP3 ADD PUSH1 0x1F NOT AND DUP2 ADD PUSH1 0x1 PUSH1 0x1 PUSH1 0x40 SHL SUB DUP2 GT DUP3 DUP3 LT OR ISZERO PUSH2 0x47C7 JUMPI PUSH2 0x47C7 PUSH2 0x4761 JUMP JUMPDEST PUSH1 0x40 MSTORE SWAP2 SWAP1 POP JUMP JUMPDEST PUSH1 0x0 PUSH1 0x20 DUP1 DUP4 DUP6 SUB SLT ISZERO PUSH2 0x47E2 JUMPI PUSH1 0x0 DUP1 REVERT JUMPDEST DUP3 CALLDATALOAD PUSH1 0x1 PUSH1 0x1 PUSH1 0x40 SHL SUB DUP1 DUP3 GT ISZERO PUSH2 0x47F9 JUMPI PUSH1 0x0 DUP1 REVERT JUMPDEST DUP2 DUP6 ADD SWAP2 POP DUP6 PUSH1 0x1F DUP4 ADD SLT PUSH2 0x480D JUMPI PUSH1 0x0 DUP1 REVERT JUMPDEST DUP2 CALLDATALOAD DUP2 DUP2 GT ISZERO PUSH2 0x481F JUMPI PUSH2 0x481F PUSH2 0x4761 JUMP JUMPDEST PUSH2 0x482D DUP5 DUP3 PUSH1 0x5 SHL ADD PUSH2 0x479F JUMP JUMPDEST DUP2 DUP2 MSTORE DUP5 DUP2 ADD SWAP3 POP PUSH1 0x7 SWAP2 SWAP1 SWAP2 SHL DUP4 ADD DUP5 ADD SWAP1 DUP8 DUP3 GT ISZERO PUSH2 0x484D JUMPI PUSH1 0x0 DUP1 REVERT JUMPDEST SWAP3 DUP5 ADD SWAP3 JUMPDEST DUP2 DUP5 LT ISZERO PUSH2 0x48BE JUMPI PUSH1 0x80 DUP5 DUP10 SUB SLT ISZERO PUSH2 0x486B JUMPI PUSH1 0x0 DUP1 DUP2 REVERT JUMPDEST PUSH2 0x4873 PUSH2 0x4777 JUMP JUMPDEST DUP5 CALLDATALOAD PUSH2 0x487E DUP2 PUSH2 0x4465 JUMP JUMPDEST DUP2 MSTORE PUSH2 0x488B DUP6 DUP8 ADD PUSH2 0x45B4 JUMP JUMPDEST DUP2 DUP8 ADD MSTORE PUSH1 0x40 DUP6 DUP2 ADD CALLDATALOAD SWAP1 DUP3 ADD MSTORE PUSH1 0x60 DUP1 DUP7 ADD CALLDATALOAD PUSH2 0x48A8 DUP2 PUSH2 0x4465 JUMP JUMPDEST SWAP1 DUP3 ADD MSTORE DUP4 MSTORE PUSH1 0x80 SWAP4 SWAP1 SWAP4 ADD SWAP3 SWAP2 DUP5 ADD SWAP2 PUSH2 0x4852 JUMP JUMPDEST SWAP8 SWAP7 POP POP POP POP POP POP POP JUMP JUMPDEST PUSH1 0x0 DUP1 PUSH1 0x40 DUP4 DUP6 SUB SLT ISZERO PUSH2 0x48DC JUMPI PUSH1 0x0 DUP1 REVERT JUMPDEST DUP3 CALLDATALOAD SWAP2 POP PUSH2 0x48EC PUSH1 0x20 DUP5 ADD PUSH2 0x45B4 JUMP JUMPDEST SWAP1 POP SWAP3 POP SWAP3 SWAP1 POP JUMP JUMPDEST PUSH1 0x0 DUP1 PUSH2 0x100 DUP4 DUP6 SUB SLT ISZERO PUSH2 0x4909 JUMPI PUSH1 0x0 DUP1 REVERT JUMPDEST DUP3 CALLDATALOAD PUSH2 0x4914 DUP2 PUSH2 0x4465 JUMP JUMPDEST SWAP2 POP PUSH2 0x48EC DUP5 PUSH1 0x20 DUP6 ADD PUSH2 0x45C9 JUMP JUMPDEST PUSH1 0x0 DUP1 PUSH1 0x40 DUP4 DUP6 SUB SLT ISZERO PUSH2 0x4936 JUMPI PUSH1 0x0 DUP1 REVERT JUMPDEST DUP3 CALLDATALOAD PUSH2 0x4941 DUP2 PUSH2 0x4465 JUMP JUMPDEST SWAP5 PUSH1 0x20 SWAP4 SWAP1 SWAP4 ADD CALLDATALOAD SWAP4 POP POP POP JUMP JUMPDEST PUSH1 0x20 DUP1 DUP3 MSTORE PUSH1 0x1A SWAP1 DUP3 ADD MSTORE PUSH32 0x4D75737420686176652061646D696E2070726976696C65676573000000000000 PUSH1 0x40 DUP3 ADD MSTORE PUSH1 0x60 ADD SWAP1 JUMP JUMPDEST PUSH4 0x4E487B71 PUSH1 0xE0 SHL PUSH1 0x0 MSTORE PUSH1 0x32 PUSH1 0x4 MSTORE PUSH1 0x24 PUSH1 0x0 REVERT JUMPDEST PUSH4 0x4E487B71 PUSH1 0xE0 SHL PUSH1 0x0 MSTORE PUSH1 0x11 PUSH1 0x4 MSTORE PUSH1 0x24 PUSH1 0x0 REVERT JUMPDEST PUSH1 0x0 PUSH1 0x0 NOT DUP3 EQ ISZERO PUSH2 0x49C6 JUMPI PUSH2 0x49C6 PUSH2 0x499C JUMP JUMPDEST POP PUSH1 0x1 ADD SWAP1 JUMP JUMPDEST PUSH1 0x0 DUP3 DUP3 LT ISZERO PUSH2 0x49DF JUMPI PUSH2 0x49DF PUSH2 0x499C JUMP JUMPDEST POP SUB SWAP1 JUMP JUMPDEST PUSH1 0x0 DUP3 NOT DUP3 GT ISZERO PUSH2 0x49F7 JUMPI PUSH2 0x49F7 PUSH2 0x499C JUMP JUMPDEST POP ADD SWAP1 JUMP JUMPDEST PUSH4 0x4E487B71 PUSH1 0xE0 SHL PUSH1 0x0 MSTORE PUSH1 0x31 PUSH1 0x4 MSTORE PUSH1 0x24 PUSH1 0x0 REVERT JUMPDEST PUSH1 0x20 DUP1 DUP3 MSTORE PUSH1 0x27 SWAP1 DUP3 ADD MSTORE PUSH32 0x54696D6520616C726561647920636865636B656420666F722074686973207469 PUSH1 0x40 DUP3 ADD MSTORE PUSH7 0x1B59481CDB1BDD PUSH1 0xCA SHL PUSH1 0x60 DUP3 ADD MSTORE PUSH1 0x80 ADD SWAP1 JUMP JUMPDEST PUSH1 0x0 PUSH5 0xFFFFFFFFFF DUP1 DUP4 AND DUP2 DUP2 EQ ISZERO PUSH2 0x4A74 JUMPI PUSH2 0x4A74 PUSH2 0x499C JUMP JUMPDEST PUSH1 0x1 ADD SWAP4 SWAP3 POP POP POP JUMP JUMPDEST PUSH4 0x4E487B71 PUSH1 0xE0 SHL PUSH1 0x0 MSTORE PUSH1 0x12 PUSH1 0x4 MSTORE PUSH1 0x24 PUSH1 0x0 REVERT JUMPDEST PUSH1 0x0 PUSH5 0xFFFFFFFFFF DUP1 DUP5 AND DUP1 PUSH2 0x4AAC JUMPI PUSH2 0x4AAC PUSH2 0x4A7E JUMP JUMPDEST SWAP3 AND SWAP2 SWAP1 SWAP2 MOD SWAP3 SWAP2 POP POP JUMP JUMPDEST PUSH1 0x0 DUP2 PUSH1 0x0 NOT DIV DUP4 GT DUP3 ISZERO ISZERO AND ISZERO PUSH2 0x4AD2 JUMPI PUSH2 0x4AD2 PUSH2 0x499C JUMP JUMPDEST POP MUL SWAP1 JUMP JUMPDEST PUSH1 0x0 DUP3 PUSH2 0x4AE6 JUMPI PUSH2 0x4AE6 PUSH2 0x4A7E JUMP JUMPDEST POP DIV SWAP1 JUMP JUMPDEST PUSH1 0x20 DUP1 DUP3 MSTORE PUSH1 0x24 SWAP1 DUP3 ADD MSTORE PUSH32 0x4E6F7420656E6F756768204554482073656E742077697468207472616E736163 PUSH1 0x40 DUP3 ADD MSTORE PUSH4 0x3A34B7B7 PUSH1 0xE1 SHL PUSH1 0x60 DUP3 ADD MSTORE PUSH1 0x80 ADD SWAP1 JUMP JUMPDEST PUSH1 0x20 DUP1 DUP3 MSTORE PUSH1 0x25 SWAP1 DUP3 ADD MSTORE PUSH32 0x20546F6B656E206E6F7420617070726F76656420666F72207468697320636F6E PUSH1 0x40 DUP3 ADD MSTORE PUSH5 0x1D1C9858DD PUSH1 0xDA SHL PUSH1 0x60 DUP3 ADD MSTORE PUSH1 0x80 ADD SWAP1 JUMP JUMPDEST PUSH1 0x0 PUSH1 0x20 DUP3 DUP5 SUB SLT ISZERO PUSH2 0x4B86 JUMPI PUSH1 0x0 DUP1 REVERT JUMPDEST DUP2 CALLDATALOAD PUSH1 0xFF DUP2 AND DUP2 EQ PUSH2 0x4497 JUMPI PUSH1 0x0 DUP1 REVERT JUMPDEST PUSH1 0x1 PUSH1 0x1 PUSH1 0xA0 SHL SUB SWAP8 DUP9 AND DUP2 MSTORE SWAP6 SWAP1 SWAP7 AND PUSH1 0x20 DUP7 ADD MSTORE PUSH1 0x40 DUP6 ADD SWAP4 SWAP1 SWAP4 MSTORE PUSH1 0x60 DUP5 ADD SWAP2 SWAP1 SWAP2 MSTORE PUSH1 0xFF AND PUSH1 0x80 DUP4 ADD MSTORE PUSH1 0xA0 DUP3 ADD MSTORE PUSH1 0xC0 DUP2 ADD SWAP2 SWAP1 SWAP2 MSTORE PUSH1 0xE0 ADD SWAP1 JUMP JUMPDEST PUSH1 0x1 PUSH1 0x1 PUSH1 0xA0 SHL SUB SWAP4 DUP5 AND DUP2 MSTORE SWAP2 SWAP1 SWAP3 AND PUSH1 0x20 DUP3 ADD MSTORE PUSH1 0x40 DUP2 ADD SWAP2 SWAP1 SWAP2 MSTORE PUSH1 0x60 ADD SWAP1 JUMP JUMPDEST PUSH1 0x0 PUSH1 0x20 DUP3 DUP5 SUB SLT ISZERO PUSH2 0x4C0E JUMPI PUSH1 0x0 DUP1 REVERT JUMPDEST DUP2 MLOAD DUP1 ISZERO ISZERO DUP2 EQ PUSH2 0x4497 JUMPI PUSH1 0x0 DUP1 REVERT JUMPDEST PUSH1 0x20 DUP1 DUP3 MSTORE PUSH1 0x1A SWAP1 DUP3 ADD MSTORE PUSH32 0x50726F626C656D207472616E7366657272696E6720746F6B656E000000000000 PUSH1 0x40 DUP3 ADD MSTORE PUSH1 0x60 ADD SWAP1 JUMP JUMPDEST PUSH1 0x0 PUSH2 0xFFFF DUP1 DUP4 AND DUP2 DUP2 EQ ISZERO PUSH2 0x4A74 JUMPI PUSH2 0x4A74 PUSH2 0x499C JUMP JUMPDEST PUSH1 0x0 PUSH1 0x20 DUP3 DUP5 SUB SLT ISZERO PUSH2 0x4C7F JUMPI PUSH1 0x0 DUP1 REVERT JUMPDEST POP MLOAD SWAP2 SWAP1 POP JUMP JUMPDEST PUSH1 0x0 PUSH5 0xFFFFFFFFFF DUP4 DUP2 AND SWAP1 DUP4 AND DUP2 DUP2 LT ISZERO PUSH2 0x4CA4 JUMPI PUSH2 0x4CA4 PUSH2 0x499C JUMP JUMPDEST SUB SWAP4 SWAP3 POP POP POP JUMP JUMPDEST PUSH1 0x0 PUSH5 0xFFFFFFFFFF DUP1 DUP5 AND DUP1 PUSH2 0x4CC4 JUMPI PUSH2 0x4CC4 PUSH2 0x4A7E JUMP JUMPDEST SWAP3 AND SWAP2 SWAP1 SWAP2 DIV SWAP3 SWAP2 POP POP JUMP JUMPDEST PUSH1 0x0 PUSH5 0xFFFFFFFFFF DUP1 DUP4 AND DUP2 DUP6 AND DUP2 DUP4 DIV DUP2 GT DUP3 ISZERO ISZERO AND ISZERO PUSH2 0x4CF4 JUMPI PUSH2 0x4CF4 PUSH2 0x499C JUMP JUMPDEST MUL SWAP5 SWAP4 POP POP POP POP JUMP JUMPDEST PUSH1 0x0 PUSH5 0xFFFFFFFFFF DUP1 DUP4 AND DUP2 DUP6 AND DUP1 DUP4 SUB DUP3 GT ISZERO PUSH2 0x4D1D JUMPI PUSH2 0x4D1D PUSH2 0x499C JUMP JUMPDEST ADD SWAP5 SWAP4 POP POP POP POP JUMP INVALID LOG2 PUSH5 0x6970667358 0x22 SLT KECCAK256 SWAP11 0xCF EXTCODECOPY 0xB5 RETURNDATACOPY PUSH21 0x11139796CAE000C30270E8FED0FD0220F3FD91974A 0x5D JUMPI PUSH23 0x45C864736F6C6343000809003300000000000000000000 "},"methodIdentifiers":{"addBatchTransactions((address,uint40,uint256,address)[])":"d10fa144","addERC20Contract(address)":"ab7e0909","addTransaction(address,uint40,uint256,address,(address,address,uint256,uint256,uint8,bytes32,bytes32))":"cf0b5e45","allAccounts()":"cf783d8a","allTransactions()":"1ccb3371","cancelTransaction(bytes32,uint40)":"e9e1dbef","changeAdmin(address)":"8f283970","changeFee(uint256)":"6a1db1bf","checkTime()":"e0c6190d","deposit(address,(address,address,uint256,uint256,uint8,bytes32,bytes32))":"f121ae7e","getAccountBalances()":"a65a0068","getAccountTransactions()":"c682cce4","getFee()":"ced72f87","getTime()":"557ed1ba","getTransactionsByAccount(address)":"dc9961eb","removeERC20Contract(address)":"053149fa","sendTime()":"aa58a5b0","toggleContractActive()":"1385d24c","withdraw(address,uint256)":"f3fef3a3"}}}}}