{"contracts/ClockTowerSubscribe.sol":{"ClockTowerSubscribe":{"abi":[{"inputs":[{"internalType":"uint256","name":"callerFee_","type":"uint256"},{"internalType":"uint256","name":"systemFee_","type":"uint256"},{"internalType":"uint256","name":"maxRemits_","type":"uint256"},{"internalType":"bool","name":"allowSystemFee_","type":"bool"},{"internalType":"address","name":"admin_","type":"address"}],"stateMutability":"payable","type":"constructor"},{"anonymous":false,"inputs":[{"indexed":false,"internalType":"uint40","name":"timestamp","type":"uint40"},{"indexed":false,"internalType":"uint40","name":"checkedDay","type":"uint40"},{"indexed":true,"internalType":"address","name":"caller","type":"address"},{"indexed":false,"internalType":"bool","name":"isFinished","type":"bool"}],"name":"CallerLog","type":"event"},{"anonymous":false,"inputs":[{"indexed":true,"internalType":"bytes32","name":"id","type":"bytes32"},{"indexed":true,"internalType":"address","name":"provider","type":"address"},{"indexed":true,"internalType":"uint40","name":"timestamp","type":"uint40"},{"indexed":false,"internalType":"string","name":"url","type":"string"},{"indexed":false,"internalType":"string","name":"description","type":"string"}],"name":"DetailsLog","type":"event"},{"anonymous":false,"inputs":[{"indexed":true,"internalType":"address","name":"provider","type":"address"},{"indexed":true,"internalType":"uint40","name":"timestamp","type":"uint40"},{"indexed":false,"internalType":"string","name":"description","type":"string"},{"indexed":false,"internalType":"string","name":"company","type":"string"},{"indexed":false,"internalType":"string","name":"url","type":"string"},{"indexed":false,"internalType":"string","name":"domain","type":"string"},{"indexed":false,"internalType":"string","name":"email","type":"string"},{"indexed":false,"internalType":"string","name":"misc","type":"string"}],"name":"ProvDetailsLog","type":"event"},{"anonymous":false,"inputs":[{"indexed":true,"internalType":"bytes32","name":"id","type":"bytes32"},{"indexed":true,"internalType":"address","name":"provider","type":"address"},{"indexed":true,"internalType":"address","name":"subscriber","type":"address"},{"indexed":false,"internalType":"uint40","name":"timestamp","type":"uint40"},{"indexed":false,"internalType":"uint256","name":"amount","type":"uint256"},{"indexed":false,"internalType":"address","name":"token","type":"address"},{"indexed":false,"internalType":"enum ClockTowerSubscribe.SubscriptEvent","name":"subScriptEvent","type":"uint8"}],"name":"SubLog","type":"event"},{"stateMutability":"payable","type":"fallback"},{"inputs":[{"internalType":"uint256","name":"","type":"uint256"}],"name":"accountLookup","outputs":[{"internalType":"address","name":"","type":"address"}],"stateMutability":"view","type":"function"},{"inputs":[{"internalType":"address","name":"erc20Contract","type":"address"},{"internalType":"uint256","name":"minimum","type":"uint256"}],"name":"addERC20Contract","outputs":[],"stateMutability":"nonpayable","type":"function"},{"inputs":[{"internalType":"address","name":"","type":"address"}],"name":"approvedERC20","outputs":[{"internalType":"address","name":"tokenAddress","type":"address"},{"internalType":"uint256","name":"minimum","type":"uint256"},{"internalType":"bool","name":"exists","type":"bool"}],"stateMutability":"view","type":"function"},{"inputs":[],"name":"callerFee","outputs":[{"internalType":"uint256","name":"","type":"uint256"}],"stateMutability":"view","type":"function"},{"inputs":[{"components":[{"internalType":"bytes32","name":"id","type":"bytes32"},{"internalType":"uint256","name":"amount","type":"uint256"},{"internalType":"address","name":"provider","type":"address"},{"internalType":"address","name":"token","type":"address"},{"internalType":"bool","name":"exists","type":"bool"},{"internalType":"bool","name":"cancelled","type":"bool"},{"internalType":"enum ClockTowerSubscribe.Frequency","name":"frequency","type":"uint8"},{"internalType":"uint16","name":"dueDay","type":"uint16"}],"internalType":"struct ClockTowerSubscribe.Subscription","name":"subscription","type":"tuple"}],"name":"cancelSubscription","outputs":[],"stateMutability":"nonpayable","type":"function"},{"inputs":[{"internalType":"address payable","name":"newAddress","type":"address"}],"name":"changeAdmin","outputs":[],"stateMutability":"nonpayable","type":"function"},{"inputs":[{"internalType":"uint256","name":"_fee","type":"uint256"}],"name":"changeCallerFee","outputs":[],"stateMutability":"nonpayable","type":"function"},{"inputs":[{"internalType":"uint256","name":"_maxRemits","type":"uint256"}],"name":"changeMaxRemits","outputs":[],"stateMutability":"nonpayable","type":"function"},{"inputs":[{"internalType":"uint256","name":"_fixed_fee","type":"uint256"}],"name":"changeSystemFee","outputs":[],"stateMutability":"nonpayable","type":"function"},{"inputs":[],"name":"collectFees","outputs":[],"stateMutability":"nonpayable","type":"function"},{"inputs":[{"internalType":"uint256","name":"amount","type":"uint256"},{"internalType":"address","name":"token","type":"address"},{"components":[{"internalType":"string","name":"url","type":"string"},{"internalType":"string","name":"description","type":"string"}],"internalType":"struct ClockTowerSubscribe.Details","name":"details","type":"tuple"},{"internalType":"enum ClockTowerSubscribe.Frequency","name":"frequency","type":"uint8"},{"internalType":"uint16","name":"dueDay","type":"uint16"}],"name":"createSubscription","outputs":[],"stateMutability":"payable","type":"function"},{"inputs":[{"components":[{"internalType":"string","name":"url","type":"string"},{"internalType":"string","name":"description","type":"string"}],"internalType":"struct ClockTowerSubscribe.Details","name":"details","type":"tuple"},{"internalType":"bytes32","name":"id","type":"bytes32"}],"name":"editDetails","outputs":[],"stateMutability":"nonpayable","type":"function"},{"inputs":[{"components":[{"internalType":"string","name":"description","type":"string"},{"internalType":"string","name":"company","type":"string"},{"internalType":"string","name":"url","type":"string"},{"internalType":"string","name":"domain","type":"string"},{"internalType":"string","name":"email","type":"string"},{"internalType":"string","name":"misc","type":"string"}],"internalType":"struct ClockTowerSubscribe.ProviderDetails","name":"details","type":"tuple"}],"name":"editProvDetails","outputs":[],"stateMutability":"nonpayable","type":"function"},{"inputs":[{"internalType":"bytes32","name":"","type":"bytes32"},{"internalType":"address","name":"","type":"address"}],"name":"feeBalance","outputs":[{"internalType":"uint256","name":"","type":"uint256"}],"stateMutability":"view","type":"function"},{"inputs":[],"name":"feeEstimate","outputs":[{"components":[{"internalType":"uint256","name":"fee","type":"uint256"},{"internalType":"address","name":"token","type":"address"}],"internalType":"struct ClockTowerSubscribe.FeeEstimate[]","name":"","type":"tuple[]"}],"stateMutability":"view","type":"function"},{"inputs":[{"internalType":"address","name":"account","type":"address"}],"name":"getAccount","outputs":[{"components":[{"internalType":"address","name":"accountAddress","type":"address"},{"internalType":"bool","name":"exists","type":"bool"},{"components":[{"internalType":"bytes32","name":"id","type":"bytes32"},{"internalType":"uint16","name":"dueDay","type":"uint16"},{"internalType":"enum ClockTowerSubscribe.Frequency","name":"frequency","type":"uint8"},{"internalType":"enum ClockTowerSubscribe.Status","name":"status","type":"uint8"}],"internalType":"struct ClockTowerSubscribe.SubIndex[]","name":"subscriptions","type":"tuple[]"},{"components":[{"internalType":"bytes32","name":"id","type":"bytes32"},{"internalType":"uint16","name":"dueDay","type":"uint16"},{"internalType":"enum ClockTowerSubscribe.Frequency","name":"frequency","type":"uint8"},{"internalType":"enum ClockTowerSubscribe.Status","name":"status","type":"uint8"}],"internalType":"struct ClockTowerSubscribe.SubIndex[]","name":"provSubs","type":"tuple[]"}],"internalType":"struct ClockTowerSubscribe.Account","name":"","type":"tuple"}],"stateMutability":"view","type":"function"},{"inputs":[{"internalType":"bool","name":"bySubscriber","type":"bool"},{"internalType":"address","name":"account","type":"address"}],"name":"getAccountSubscriptions","outputs":[{"components":[{"components":[{"internalType":"bytes32","name":"id","type":"bytes32"},{"internalType":"uint256","name":"amount","type":"uint256"},{"internalType":"address","name":"provider","type":"address"},{"internalType":"address","name":"token","type":"address"},{"internalType":"bool","name":"exists","type":"bool"},{"internalType":"bool","name":"cancelled","type":"bool"},{"internalType":"enum ClockTowerSubscribe.Frequency","name":"frequency","type":"uint8"},{"internalType":"uint16","name":"dueDay","type":"uint16"}],"internalType":"struct ClockTowerSubscribe.Subscription","name":"subscription","type":"tuple"},{"internalType":"enum ClockTowerSubscribe.Status","name":"status","type":"uint8"},{"internalType":"uint256","name":"totalSubscribers","type":"uint256"}],"internalType":"struct ClockTowerSubscribe.SubView[]","name":"","type":"tuple[]"}],"stateMutability":"view","type":"function"},{"inputs":[{"internalType":"bytes32","name":"id","type":"bytes32"},{"internalType":"enum ClockTowerSubscribe.Frequency","name":"frequency","type":"uint8"},{"internalType":"uint16","name":"dueDay","type":"uint16"}],"name":"getSubByIndex","outputs":[{"components":[{"internalType":"bytes32","name":"id","type":"bytes32"},{"internalType":"uint256","name":"amount","type":"uint256"},{"internalType":"address","name":"provider","type":"address"},{"internalType":"address","name":"token","type":"address"},{"internalType":"bool","name":"exists","type":"bool"},{"internalType":"bool","name":"cancelled","type":"bool"},{"internalType":"enum ClockTowerSubscribe.Frequency","name":"frequency","type":"uint8"},{"internalType":"uint16","name":"dueDay","type":"uint16"}],"internalType":"struct ClockTowerSubscribe.Subscription","name":"subscription","type":"tuple"}],"stateMutability":"view","type":"function"},{"inputs":[{"internalType":"bytes32","name":"id","type":"bytes32"}],"name":"getSubscribersById","outputs":[{"components":[{"internalType":"address","name":"subscriber","type":"address"},{"internalType":"uint256","name":"feeBalance","type":"uint256"}],"internalType":"struct ClockTowerSubscribe.SubscriberView[]","name":"","type":"tuple[]"}],"stateMutability":"view","type":"function"},{"inputs":[],"name":"getTotalSubscribers","outputs":[{"internalType":"uint256","name":"","type":"uint256"}],"stateMutability":"view","type":"function"},{"inputs":[],"name":"maxRemits","outputs":[{"internalType":"uint256","name":"","type":"uint256"}],"stateMutability":"view","type":"function"},{"inputs":[],"name":"nextUncheckedDay","outputs":[{"internalType":"uint40","name":"","type":"uint40"}],"stateMutability":"view","type":"function"},{"inputs":[],"name":"remit","outputs":[],"stateMutability":"payable","type":"function"},{"inputs":[{"internalType":"address","name":"erc20Contract","type":"address"}],"name":"removeERC20Contract","outputs":[],"stateMutability":"nonpayable","type":"function"},{"inputs":[{"internalType":"bool","name":"status","type":"bool"}],"name":"setExternalCallers","outputs":[],"stateMutability":"nonpayable","type":"function"},{"inputs":[{"components":[{"internalType":"bytes32","name":"id","type":"bytes32"},{"internalType":"uint256","name":"amount","type":"uint256"},{"internalType":"address","name":"provider","type":"address"},{"internalType":"address","name":"token","type":"address"},{"internalType":"bool","name":"exists","type":"bool"},{"internalType":"bool","name":"cancelled","type":"bool"},{"internalType":"enum ClockTowerSubscribe.Frequency","name":"frequency","type":"uint8"},{"internalType":"uint16","name":"dueDay","type":"uint16"}],"internalType":"struct ClockTowerSubscribe.Subscription","name":"subscription","type":"tuple"}],"name":"subscribe","outputs":[],"stateMutability":"payable","type":"function"},{"inputs":[],"name":"systemFee","outputs":[{"internalType":"uint256","name":"","type":"uint256"}],"stateMutability":"view","type":"function"},{"inputs":[{"internalType":"bool","name":"status","type":"bool"}],"name":"systemFeeActivate","outputs":[],"stateMutability":"nonpayable","type":"function"},{"inputs":[{"components":[{"internalType":"bytes32","name":"id","type":"bytes32"},{"internalType":"uint256","name":"amount","type":"uint256"},{"internalType":"address","name":"provider","type":"address"},{"internalType":"address","name":"token","type":"address"},{"internalType":"bool","name":"exists","type":"bool"},{"internalType":"bool","name":"cancelled","type":"bool"},{"internalType":"enum ClockTowerSubscribe.Frequency","name":"frequency","type":"uint8"},{"internalType":"uint16","name":"dueDay","type":"uint16"}],"internalType":"struct ClockTowerSubscribe.Subscription","name":"subscription","type":"tuple"}],"name":"unsubscribe","outputs":[],"stateMutability":"payable","type":"function"},{"inputs":[{"components":[{"internalType":"bytes32","name":"id","type":"bytes32"},{"internalType":"uint256","name":"amount","type":"uint256"},{"internalType":"address","name":"provider","type":"address"},{"internalType":"address","name":"token","type":"address"},{"internalType":"bool","name":"exists","type":"bool"},{"internalType":"bool","name":"cancelled","type":"bool"},{"internalType":"enum ClockTowerSubscribe.Frequency","name":"frequency","type":"uint8"},{"internalType":"uint16","name":"dueDay","type":"uint16"}],"internalType":"struct ClockTowerSubscribe.Subscription","name":"subscription","type":"tuple"},{"internalType":"address","name":"subscriber","type":"address"}],"name":"unsubscribeByProvider","outputs":[],"stateMutability":"nonpayable","type":"function"},{"stateMutability":"payable","type":"receive"}],"evm":{"bytecode":{"linkReferences":{},"object":"6080604052604051615d8a380380615d8a833981016040819052610022916100c4565b6000859055600184905560028381556006805460ff60d81b1916600160d81b85151502179055610051426100af565b61005b919061012e565b600680546001600160a01b03909316660100000000000002600160301b600160d01b031964ffffffffff939093166101000292909216610100600160d01b0319909316929092171790555061019192505050565b60006100be6201518083610159565b92915050565b600080600080600060a086880312156100dc57600080fd5b85516020870151604088015160608901519297509095509350801515811461010357600080fd5b60808701519092506001600160a01b038116811461012057600080fd5b809150509295509295909350565b64ffffffffff82811682821603908111156100be57634e487b7160e01b600052601160045260246000fd5b600064ffffffffff83168061017e57634e487b7160e01b600052601260045260246000fd5b8064ffffffffff84160491505092915050565b615bea806101a06000396000f3fe6080604052600436106101b95760003560e01c8063907cedb2116100eb578063d10f9e691161008f578063ed601d2811610061578063ed601d281461054c578063f25e13c91461056c578063f4a2a2001461058c578063fbcbc0f1146105c457005b8063d10f9e6914610499578063da854a96146104b9578063e63d35be146104f2578063ebec6eaa1461051457005b8063b4761de9116100c8578063b4761de9146103de578063bd743886146103fe578063c87965721461046e578063cab1c9651461048357005b8063907cedb2146103895780639889552e146103a9578063b25ae32c146103c957005b80633c95dad51161015d57806386525a001161012f57806386525a00146102fc57806387d888d3146103295780638ef0ef1c146103495780638f2839701461036957005b80633c95dad5146102a157806344e49769146102b45780637507ba39146102c75780637bbf5a6e146102cf57005b80631f17ee55116101965780631f17ee551461021557806327ea97731461023e5780632d23f7e71461025e57806334d441d01461028b57005b8063053149fa146101c25780630b8590c7146101e25780630bec99e8146101f557005b366101c057005b005b3480156101ce57600080fd5b506101c06101dd366004614f7b565b6105f1565b6101c06101f0366004614fd8565b610684565b34801561020157600080fd5b506101c0610210366004615053565b610b4d565b34801561022157600080fd5b5061022b60015481565b6040519081526020015b60405180910390f35b34801561024a57600080fd5b506101c0610259366004615053565b610b5a565b34801561026a57600080fd5b5061027e61027936600461506c565b610b67565b604051610235919061514e565b34801561029757600080fd5b5061022b60005481565b6101c06102af36600461515d565b610d3f565b6101c06102c236600461528e565b611395565b6101c061174e565b3480156102db57600080fd5b506102ef6102ea366004615053565b61251e565b60405161023591906152ab565b34801561030857600080fd5b5061031c610317366004615303565b612714565b604051610235919061534c565b34801561033557600080fd5b506101c061034436600461515d565b612b0b565b34801561035557600080fd5b506101c0610364366004615053565b613551565b34801561037557600080fd5b506101c0610384366004614f7b565b61355e565b34801561039557600080fd5b506101c06103a43660046153af565b6135bd565b3480156103b557600080fd5b506101c06103c43660046153de565b613a05565b3480156103d557600080fd5b5060085461022b565b3480156103ea57600080fd5b506101c06103f93660046153de565b613a2b565b34801561040a57600080fd5b50610447610419366004614f7b565b6005602052600090815260409020805460018201546002909201546001600160a01b03909116919060ff1683565b604080516001600160a01b0390941684526020840192909252151590820152606001610235565b34801561047a57600080fd5b506101c0613a51565b34801561048f57600080fd5b5061022b60025481565b3480156104a557600080fd5b506101c06104b43660046153fb565b613ab4565b3480156104c557600080fd5b506006546104dc90610100900464ffffffffff1681565b60405164ffffffffff9091168152602001610235565b3480156104fe57600080fd5b50610507613b66565b6040516102359190615440565b34801561052057600080fd5b5061022b61052f36600461548d565b600960209081526000928352604080842090915290825290205481565b34801561055857600080fd5b506101c0610567366004615541565b614008565b34801561057857600080fd5b506101c061058736600461568e565b614076565b34801561059857600080fd5b506105ac6105a7366004615053565b614135565b6040516001600160a01b039091168152602001610235565b3480156105d057600080fd5b506105e46105df366004614f7b565b61415f565b6040516102359190615732565b6105f9614389565b6001600160a01b03811661060c57600080fd5b610615816143d2565b61064a5760405162461bcd60e51b81526020600482015260016024820152601960f91b60448201526064015b60405180910390fd5b6001600160a01b0316600090815260056020526040812080546001600160a01b03191681556001810191909155600201805460ff19169055565b61068c614404565b6001600160a01b0384166106c65760405162461bcd60e51b81526020600482015260016024820152600760fb1b6044820152606401610641565b600654600160d81b900460ff161561070e5734600154111561070e5760405162461bcd60e51b81526020600482015260016024820152603560f81b6044820152606401610641565b610717846143d2565b6107475760405162461bcd60e51b81526020600482015260016024820152603960f81b6044820152606401610641565b600082600381111561075b5761075b6150a8565b036107aa578061ffff166000108015610779575060078161ffff1611155b6107aa5760405162461bcd60e51b8152602060048201526002602482015261191b60f11b6044820152606401610641565b60018260038111156107be576107be6150a8565b0361080d578061ffff1660001080156107dc5750601c8161ffff1611155b61080d5760405162461bcd60e51b8152602060048201526002602482015261323760f01b6044820152606401610641565b6002826003811115610821576108216150a8565b03610870578061ffff16600010801561083f5750605a8161ffff1611155b6108705760405162461bcd60e51b8152602060048201526002602482015261064760f31b6044820152606401610641565b6003826003811115610884576108846150a8565b036108d4578061ffff1660001080156108a3575061016d8161ffff1611155b6108d45760405162461bcd60e51b8152602060048201526002602482015261323960f01b6044820152606401610641565b6001600160a01b0384166000908152600560205260409020600101548510156109245760405162461bcd60e51b8152602060048201526002602482015261033360f41b6044820152606401610641565b600061093286868585614435565b905080600a600085600381111561094b5761094b6150a8565b81526020808201929092526040908101600090812061ffff87168252835281812080546001818101835591835291849020855160049093020191825592840151928101929092558201516002820180546001600160a01b039283166001600160a01b0319909116179055606083015160038084018054608087015160a08801511515600160a81b0260ff60a81b19911515600160a01b0274ffffffffffffffffffffffffffffffffffffffffff199093169590961694909417179283168417815560c086015193909260ff60b01b1990911661ffff60a81b199091161790600160b01b908490811115610a4057610a406150a8565b021790555060e0918201516003918201805461ffff60b81b1916600160b81b61ffff93841602179055604080516080810182528551815293850151909116602084015260c0840151610ab0939291830191811115610aa057610aa06150a8565b8152602001600090526001614520565b805164ffffffffff42169033907f93cda0785d40b289a535b99dc76d4c9cbb6d8146182861ac3ad40509398b1865610ae88880615793565b610af560208b018b615793565b604051610b05949392919061580a565b60405180910390a48051606082015160405160009233929091600080516020615b9583398151915291610b3d9142918d91889061584c565b60405180910390a4505050505050565b610b55614389565b600155565b610b62614389565b600255565b6040805161010081018252600080825260208201819052918101829052606081018290526080810182905260a0810182905260c0810182905260e0810182905290600a81856003811115610bbd57610bbd6150a8565b815260200190815260200160002060008461ffff1661ffff168152602001908152602001600020805480602002602001604051908101604052809291908181526020016000905b82821015610cdb5760008481526020908190206040805161010081018252600486029092018054835260018101549383019390935260028301546001600160a01b0390811691830191909152600380840154918216606084015260ff600160a01b8304811615156080850152600160a81b83048116151560a085015292939260c0850192600160b01b90041690811115610ca057610ca06150a8565b6003811115610cb157610cb16150a8565b81526003919091015461ffff600160b81b9091041660209182015290825260019092019101610c04565b50505050905060005b8151811015610d365785828281518110610d0057610d0061587d565b60200260200101516000015103610d2e57818181518110610d2357610d2361587d565b602002602001015192505b600101610ce4565b50509392505050565b610d47614404565b6020810135610d5c6080830160608401614f7b565b604051636eb1769f60e11b81523360048201523060248201526001600160a01b03919091169063dd62ed3e906044016020604051808303816000875af1158015610daa573d6000803e3d6000fd5b505050506040513d601f19601f82011682018060405250810190610dce9190615893565b10158015610e5b57506020810135610dec6080830160608401614f7b565b6040516370a0823160e01b81523360048201526001600160a01b0391909116906370a08231906024016020604051808303816000875af1158015610e34573d6000803e3d6000fd5b505050506040513d601f19601f82011682018060405250810190610e589190615893565b10155b610e8c5760405162461bcd60e51b8152602060048201526002602482015261032360f41b6044820152606401610641565b610e9c6060820160408301614f7b565b6001600160a01b03163303610ed75760405162461bcd60e51b81526020600482015260016024820152600360fc1b6044820152606401610641565b610f048135610eed610100840160e085016158ac565b610efd60e0850160c086016158c7565b60006146d0565b610f345760405162461bcd60e51b81526020600482015260016024820152603760f81b6044820152606401610641565b80356000818152600b6020908152604080832080546001810182559084529282902090920180546001600160a01b03191633179055815160808101909252918152610fc6918101610f8c610100850160e086016158ac565b61ffff168152602001610fa560e0850160c086016158c7565b6003811115610fb657610fb66150a8565b8152602001600090526000614520565b6020810135600180610fde60e0850160c086016158c7565b6003811115610fef57610fef6150a8565b148061101b5750600061100860e0850160c086016158c7565b6003811115611019576110196150a8565b145b156110675761106042611035610100860160e087016158ac565b61ffff168461104a60e0880160c089016158c7565b600381111561105b5761105b6150a8565b61475b565b915061110d565b600261107960e0850160c086016158c7565b600381111561108a5761108a6150a8565b036110bc576110a442611035610100860160e087016158ac565b91506110b160038361590e565b91506002905061110d565b60036110ce60e0850160c086016158c7565b60038111156110df576110df6150a8565b0361110d576110f942611035610100860160e087016158ac565b9150611106600c8361590e565b9150600b90505b8235600090815260096020908152604080832033845290915281208054849290611138908490615922565b9091555033905061114f6060850160408601614f7b565b6001600160a01b03168435600080516020615b9583398151915242602088013561117f60808a0160608b01614f7b565b6006604051611191949392919061584c565b60405180910390a4336111aa6060850160408601614f7b565b6001600160a01b03168435600080516020615b9583398151915242866111d660808a0160608b01614f7b565b60086040516111e8949392919061584c565b60405180910390a46112006080840160608501614f7b565b6040516323b872dd60e01b8152336004820152306024820152604481018490526001600160a01b0391909116906323b872dd906064016020604051808303816000875af1158015611255573d6000803e3d6000fd5b505050506040513d601f19601f820116820180604052508101906112799190615935565b61128257600080fd5b600261129460e0850160c086016158c7565b60038111156112a5576112a56150a8565b14806112d1575060036112be60e0850160c086016158c7565b60038111156112cf576112cf6150a8565b145b15611390576112e66080840160608501614f7b565b6001600160a01b03166323b872dd336113056060870160408801614f7b565b61130f8587615952565b6040516001600160e01b031960e086901b1681526001600160a01b03938416600482015292909116602483015260448201526064016020604051808303816000875af1158015611363573d6000803e3d6000fd5b505050506040513d601f19601f820116820180604052508101906113879190615935565b61139057600080fd5b505050565b61139d614404565b3360009081526007602052604081206001015467ffffffffffffffff8111156113c8576113c8615179565b60405190808252806020026020018201604052801561142357816020015b61141060408051608081018252600080825260208201819052909182019081526020016000905290565b8152602001906001900390816113e65790505b50336000908152600760209081526040808320600101805482518185028101850190935280835294955090939092909184015b8282101561150c576000848152602090819020604080516080810182526002860290920180548352600181015461ffff81169484019490945291929083019062010000900460ff1660038111156114af576114af6150a8565b60038111156114c0576114c06150a8565b81526020016001820160039054906101000a900460ff1660028111156114e8576114e86150a8565b60028111156114f9576114f96150a8565b8152505081526020019060010190611456565b5050336000908152600760205260408120600101549394509150505b818110156115c05783600001518382815181106115475761154761587d565b602002602001015160000151036115b857336000908152600760205260409020600101805460029190839081106115805761158061587d565b906000526020600020906002020160010160036101000a81548160ff021916908360028111156115b2576115b26150a8565b02179055505b600101611528565b5082516115cd90336149a4565b336001600160a01b031683604001516001600160a01b03168460000151600080516020615b9583398151915242876020015188606001516007604051611616949392919061584c565b60405180910390a4825160009081526009602081815260408084203380865290835281852054885186529383528185208186529092528084209390935582860151865160608801519451939492936001600160a01b03909216929091600080516020615b9583398151915291611692914291889160049061584c565b60405180910390a46060840151604080860151905163a9059cbb60e01b81526001600160a01b0391821660048201526024810184905291169063a9059cbb906044016020604051808303816000875af11580156116f3573d6000803e3d6000fd5b505050506040513d601f19601f820116820180604052508101906117179190615935565b6117485760405162461bcd60e51b8152602060048201526002602482015261323160f01b6044820152606401610641565b50505050565b600654600160d01b900460ff1661176757611767614389565b600654600160d81b900460ff16156117af573460015411156117af5760405162461bcd60e51b81526020600482015260016024820152603560f81b6044820152606401610641565b60006117ba42614aea565b60065490915064ffffffffff610100909104811690821610156118045760405162461bcd60e51b81526020600482015260026024820152610c4d60f21b6044820152606401610641565b6040805160c081018252600080825260208201819052918101829052606081018290526080810182905260a081019190915260019060065464ffffffffff84811661010090920416146118845760065461187d9061187190610100900464ffffffffff1662015180615969565b64ffffffffff16614af9565b9050611890565b61188d42614af9565b90505b6000805b60038111612464576000816118aa575060208301515b600182036118b6575082515b600282036118c5575060408301515b600382036118d4575060608301515b6000828152600a6020908152604080832061ffff85168452909152812054905b8181101561244e576000848152600a6020908152604080832061ffff8716845290915281208054919850908290811061192f5761192f61587d565b906000526020600020906004020160030160159054906101000a900460ff16612446576000848152600a6020908152604080832061ffff8716845290915281208054839081106119815761198161587d565b60009182526020808320600490920290910154878352600a8252604080842061ffff89168552909252908220805491935090849081106119c3576119c361587d565b6000918252602080832060036004909302019190910154888352600a8252604080842061ffff8a16855290925290822080546001600160a01b0390921693509085908110611a1357611a1361587d565b6000918252602080832060016004909302019190910154898352600a8252604080842061ffff8b16855290925290822080549193509086908110611a5957611a5961587d565b6000918252602082206002600490920201015481546001600160a01b039091169250839061271090611a8b9083615952565b611a95919061590e565b611a9f9190615989565b6000868152600b602052604081205491925090818115611ac757611ac4600183615989565b90505b60005b8281101561243c576002548e03611c0d576040805180820182528a815260200182905260038a905560048281556006805460ff19169055905163a9059cbb60e01b81523391810191909152602481018590526001600160a01b0389169063a9059cbb906044016020604051808303816000875af1158015611b4f573d6000803e3d6000fd5b505050506040513d601f19601f82011682018060405250810190611b739190615935565b611ba45760405162461bcd60e51b8152602060048201526002602482015261191960f11b6044820152606401610641565b6006546040805164ffffffffff428116825261010090930492909216602083015260009082015233907f90192d7875364a53e351ae63fd2dfef8dc941735b29fb0c504d06a0e21ae602e9060600160405180910390a25050505050505050505050505050505050565b60035489148015611c1f575060045481145b15611c32576006805460ff191660011790555b6003541580611c48575060065460ff1615156001145b15612434576000898152600b60205260408120805483908110611c6d57611c6d61587d565b600091825260209091200154604051636eb1769f60e11b81526001600160a01b0391821660048201819052306024830152925089918b169063dd62ed3e906044016020604051808303816000875af1158015611ccd573d6000803e3d6000fd5b505050506040513d601f19601f82011682018060405250810190611cf19190615893565b10158015611d6b57506040516370a0823160e01b81526001600160a01b0382811660048301528991908b16906370a08231906024016020604051808303816000875af1158015611d45573d6000803e3d6000fd5b505050506040513d601f19601f82011682018060405250810190611d699190615893565b115b1561216c578e611d7a8161599c565b9f505085600960008c81526020019081526020016000206000836001600160a01b03166001600160a01b03168152602001908152602001600020541115611f0f57611dc58686615922565b60008b81526009602090815260408083206001600160a01b0386168452909152812080549297508892909190611dfc908490615989565b92505081905550806001600160a01b0316876001600160a01b03168b600080516020615b95833981519152428c8e6005604051611e3c949392919061584c565b60405180910390a4806001600160a01b0316876001600160a01b03168b600080516020615b958339815191524260008e6002604051611e7e949392919061584c565b60405180910390a46040516323b872dd60e01b81526001600160a01b0382811660048301528881166024830152604482018a90528a16906323b872dd906064016020604051808303816000875af1158015611edd573d6000803e3d6000fd5b505050506040513d601f19601f82011682018060405250810190611f019190615935565b611f0a57600080fd5b61237c565b60008a81526009602090815260408083206001600160a01b0385168452909152902054611f3c9086615922565b9450600960008b81526020019081526020016000206000826001600160a01b03166001600160a01b0316815260200190815260200160002060009055806001600160a01b0316876001600160a01b03168b600080516020615b95833981519152428c8e6008604051611fb1949392919061584c565b60405180910390a460008890506000600190508f600203611fe257611fd760038361590e565b915060029050611ffc565b8f600303611ffc57611ff5600c8361590e565b9150600b90505b60008c81526009602090815260408083206001600160a01b03871684529091528120805484929061202e908490615922565b90915550506040516323b872dd60e01b81526001600160a01b038481166004830152306024830152604482018490528c16906323b872dd906064016020604051808303816000875af1158015612088573d6000803e3d6000fd5b505050506040513d601f19601f820116820180604052508101906120ac9190615935565b6120b557600080fd5b8f600214806120c457508f6003145b15612165576001600160a01b038b166323b872dd848b6120e48587615952565b6040516001600160e01b031960e086901b1681526001600160a01b03938416600482015292909116602483015260448201526064016020604051808303816000875af1158015612138573d6000803e3d6000fd5b505050506040513d601f19601f8201168201806040525081019061215c9190615935565b61216557600080fd5b505061237c565b8e6121768161599c565b9f505085600960008c81526020019081526020016000206000836001600160a01b03166001600160a01b031681526020019081526020016000205411156122ee576121c18686615922565b60008b81526009602090815260408083206001600160a01b0386168452909152812054919650906121f3908890615989565b9050600960008c81526020019081526020016000206000836001600160a01b03166001600160a01b0316815260200190815260200160002060009055816001600160a01b0316886001600160a01b03168c600080516020615b9583398151915242858f6004604051612268949392919061584c565b60405180910390a460405163a9059cbb60e01b81526001600160a01b038981166004830152602482018390528b169063a9059cbb906044016020604051808303816000875af11580156122bf573d6000803e3d6000fd5b505050506040513d601f19601f820116820180604052508101906122e39190615935565b6122ec57600080fd5b505b6122f88a826149a4565b806001600160a01b0316876001600160a01b03168b600080516020615b95833981519152428c8e6007604051612331949392919061584c565b60405180910390a4806001600160a01b0316876001600160a01b03168b600080516020615b958339815191524260008e6003604051612373949392919061584c565b60405180910390a45b828214801561238b5750600084115b156124325760405163a9059cbb60e01b8152336004820152602481018690526001600160a01b038a169063a9059cbb906044016020604051808303816000875af11580156123dd573d6000803e3d6000fd5b505050506040513d601f19601f820116820180604052508101906124019190615935565b6124325760405162461bcd60e51b8152602060048201526002602482015261191960f11b6044820152606401610641565b505b600101611aca565b5050505050505050505b6001016118f4565b505050808061245c9061599c565b915050611894565b50600060038190556004556006805460ff1916908190556040805164ffffffffff4281168252610100909304909216602083015260019082015233907f90192d7875364a53e351ae63fd2dfef8dc941735b29fb0c504d06a0e21ae602e9060600160405180910390a26001600660018282829054906101000a900464ffffffffff166124f091906159b5565b92506101000a81548164ffffffffff021916908364ffffffffff16021790555082156117485761174861174e565b6000818152600b60205260408120546060919067ffffffffffffffff81111561254957612549615179565b604051908082528060200260200182016040528015612572578160200160208202803683370190505b506000848152600b602090815260409182902080548351818402810184019094528084529394509192908301828280156125d557602002820191906000526020600020905b81546001600160a01b031681526001909101906020018083116125b7575b5050506000868152600b60205260408120549394509291505067ffffffffffffffff81111561260657612606615179565b60405190808252806020026020018201604052801561264b57816020015b60408051808201909152600080825260208201528152602001906001900390816126245790505b50905060005b825181101561270c5760008581526009602052604081208451829086908590811061267e5761267e61587d565b60200260200101516001600160a01b03166001600160a01b03168152602001908152602001600020549050600060405180604001604052808685815181106126c8576126c861587d565b60200260200101516001600160a01b03168152602001838152509050808484815181106126f7576126f761587d565b60209081029190910101525050600101612651565b509392505050565b6060808315612814576001600160a01b038316600090815260076020908152604080832060010180548251818502810185019093528083529193909284015b82821015612809576000848152602090819020604080516080810182526002860290920180548352600181015461ffff81169484019490945291929083019062010000900460ff1660038111156127ac576127ac6150a8565b60038111156127bd576127bd6150a8565b81526020016001820160039054906101000a900460ff1660028111156127e5576127e56150a8565b60028111156127f6576127f66150a8565b8152505081526020019060010190612753565b505050509050612907565b6001600160a01b038316600090815260076020908152604080832060020180548251818502810185019093528083529193909284015b82821015612900576000848152602090819020604080516080810182526002860290920180548352600181015461ffff81169484019490945291929083019062010000900460ff1660038111156128a3576128a36150a8565b60038111156128b4576128b46150a8565b81526020016001820160039054906101000a900460ff1660028111156128dc576128dc6150a8565b60028111156128ed576128ed6150a8565b815250508152602001906001019061284a565b5050505090505b6000815167ffffffffffffffff81111561292357612923615179565b6040519080825280602002602001820160405280156129a957816020015b60408051610160810182526000606082018181526080830182905260a0830182905260c0830182905260e08301829052610100830182905261012083018290526101408301829052825260208083018290529282015282526000199092019101816129415790505b50905060005b8251811015612b0057612a1a8382815181106129cd576129cd61587d565b6020026020010151600001518483815181106129eb576129eb61587d565b602002602001015160400151858481518110612a0957612a0961587d565b602002602001015160200151610b67565b828281518110612a2c57612a2c61587d565b602002602001015160000181905250828181518110612a4d57612a4d61587d565b602002602001015160600151828281518110612a6b57612a6b61587d565b6020026020010151602001906002811115612a8857612a886150a8565b90816002811115612a9b57612a9b6150a8565b81525050600b6000838381518110612ab557612ab561587d565b60200260200101516000015160000151815260200190815260200160002080549050828281518110612ae957612ae961587d565b6020908102919091010151604001526001016129af565b509150505b92915050565b612b13614404565b612b298135610eed610100840160e085016158ac565b612b595760405162461bcd60e51b81526020600482015260016024820152603760f81b6044820152606401610641565b612b696060820160408301614f7b565b6001600160a01b0316336001600160a01b031614612bae5760405162461bcd60e51b8152602060048201526002602482015261323360f01b6044820152606401610641565b33600090815260076020908152604080832060020180548251818502810185019093528083529192909190849084015b82821015612c94576000848152602090819020604080516080810182526002860290920180548352600181015461ffff81169484019490945291929083019062010000900460ff166003811115612c3757612c376150a8565b6003811115612c4857612c486150a8565b81526020016001820160039054906101000a900460ff166002811115612c7057612c706150a8565b6002811115612c8157612c816150a8565b8152505081526020019060010190612bde565b5050336000908152600760205260408120600201549394509150505b81811015612d48578360000135838281518110612ccf57612ccf61587d565b60200260200101516000015103612d405733600090815260076020526040902060020180546001919083908110612d0857612d0861587d565b906000526020600020906002020160010160036101000a81548160ff02191690836002811115612d3a57612d3a6150a8565b02179055505b600101612cb0565b5082356000908152600b6020908152604080832080548251818502810185019093528083529192909190830182828015612dab57602002820191906000526020600020905b81546001600160a01b03168152600190910190602001808311612d8d575b5050505050905060005b81518110156132d6578435600090815260096020526040812083518290859085908110612de457612de461587d565b60200260200101516001600160a01b03166001600160a01b03168152602001908152602001600020549050828281518110612e2157612e2161587d565b60200260200101516001600160a01b0316866040016020810190612e459190614f7b565b6001600160a01b03168735600080516020615b958339815191524285612e7160808d0160608e01614f7b565b6009604051612e83949392919061584c565b60405180910390a4853560009081526009602052604081208451909190859085908110612eb257612eb261587d565b60200260200101516001600160a01b03166001600160a01b0316815260200190815260200160002060009055856060016020810190612ef19190614f7b565b6001600160a01b031663a9059cbb848481518110612f1157612f1161587d565b6020026020010151836040518363ffffffff1660e01b8152600401612f4b9291906001600160a01b03929092168252602082015260400190565b6020604051808303816000875af1158015612f6a573d6000803e3d6000fd5b505050506040513d601f19601f82011682018060405250810190612f8e9190615935565b612fbf5760405162461bcd60e51b8152602060048201526002602482015261323160f01b6044820152606401610641565b600060076000858581518110612fd757612fd761587d565b60200260200101516001600160a01b03166001600160a01b031681526020019081526020016000206001018054905067ffffffffffffffff81111561301e5761301e615179565b60405190808252806020026020018201604052801561307957816020015b61306660408051608081018252600080825260208201819052909182019081526020016000905290565b81526020019060019003908161303c5790505b509050600760008585815181106130925761309261587d565b60200260200101516001600160a01b03166001600160a01b03168152602001908152602001600020600101805480602002602001604051908101604052809291908181526020016000905b82821015613193576000848152602090819020604080516080810182526002860290920180548352600181015461ffff81169484019490945291929083019062010000900460ff166003811115613136576131366150a8565b6003811115613147576131476150a8565b81526020016001820160039054906101000a900460ff16600281111561316f5761316f6150a8565b6002811115613180576131806150a8565b81525050815260200190600101906130dd565b50505050905060005b600760008686815181106131b2576131b261587d565b60200260200101516001600160a01b03166001600160a01b03168152602001908152602001600020600101805490508110156132a45787600001358282815181106131ff576131ff61587d565b6020026020010151600001510361329c576001600760008787815181106132285761322861587d565b60200260200101516001600160a01b03166001600160a01b0316815260200190815260200160002060010182815481106132645761326461587d565b906000526020600020906002020160010160036101000a81548160ff02191690836002811115613296576132966150a8565b02179055505b60010161319c565b506132cc87600001358585815181106132bf576132bf61587d565b60200260200101516149a4565b5050600101612db5565b506000600a816132ec60e0880160c089016158c7565b60038111156132fd576132fd6150a8565b815260200190815260200160002060008660e001602081019061332091906158ac565b61ffff1661ffff168152602001908152602001600020805480602002602001604051908101604052809291908181526020016000905b8282101561342d5760008481526020908190206040805161010081018252600486029092018054835260018101549383019390935260028301546001600160a01b0390811691830191909152600380840154918216606084015260ff600160a01b8304811615156080850152600160a81b83048116151560a085015292939260c0850192600160b01b900416908111156133f2576133f26150a8565b6003811115613403576134036150a8565b81526003919091015461ffff600160b81b9091041660209182015290825260019092019101613356565b50505050905060005b81518110156135095785600001358282815181106134565761345661587d565b60200260200101516000015103613501576001600a600061347d60e08a0160c08b016158c7565b600381111561348e5761348e6150a8565b815260200190815260200160002060008860e00160208101906134b191906158ac565b61ffff1661ffff16815260200190815260200160002082815481106134d8576134d861587d565b906000526020600020906004020160030160156101000a81548160ff0219169083151502179055505b600101613436565b506000338635600080516020615b95833981519152428461353060808c0160608d01614f7b565b6001604051613542949392919061584c565b60405180910390a45050505050565b613559614389565b600055565b613566614389565b6001600160a01b03811661357957600080fd5b600680546001600160a01b039092166601000000000000027fffffffffffff0000000000000000000000000000000000000000ffffffffffff909216919091179055565b6135c5614404565b33600090815260076020908152604080832060020180548251818502810185019093528083529192909190849084015b828210156136ab576000848152602090819020604080516080810182526002860290920180548352600181015461ffff81169484019490945291929083019062010000900460ff16600381111561364e5761364e6150a8565b600381111561365f5761365f6150a8565b81526020016001820160039054906101000a900460ff166002811115613687576136876150a8565b6002811115613698576136986150a8565b81525050815260200190600101906135f5565b5050505090506000805b82518110156136f35784600001518382815181106136d5576136d561587d565b602002602001015160000151036136eb57600191505b6001016136b5565b50806137265760405162461bcd60e51b8152602060048201526002602482015261062760f31b6044820152606401610641565b83516000908152600b602090815260408083208054825181850281018501909352808352919290919083018282801561378857602002820191906000526020600020905b81546001600160a01b0316815260019091019060200180831161376a575b505050505090506000805b825181101561384357856001600160a01b03168382815181106137b8576137b861587d565b60200260200101516001600160a01b03160361383b576001600160a01b038616600090815260076020526040902060019081018054919350600291839081106138035761380361587d565b906000526020600020906002020160010160036101000a81548160ff02191690836002811115613835576138356150a8565b02179055505b600101613793565b50806138765760405162461bcd60e51b8152602060048201526002602482015261313960f01b6044820152606401610641565b855161388290866149a4565b846001600160a01b031686604001516001600160a01b03168760000151600080516020615b95833981519152428a602001518b6060015160076040516138cb949392919061584c565b60405180910390a4855160009081526009602081815260408084206001600160a01b03808b16808752918452828620548c51875285855283872083885290945282862095909555818b01518b5160608d015193519496929591909216939192600080516020615b958339815191529261394a924292899290919061584c565b60405180910390a4606087015160405163a9059cbb60e01b81526001600160a01b038881166004830152602482018490529091169063a9059cbb906044016020604051808303816000875af11580156139a7573d6000803e3d6000fd5b505050506040513d601f19601f820116820180604052508101906139cb9190615935565b6139fc5760405162461bcd60e51b8152602060048201526002602482015261323160f01b6044820152606401610641565b50505050505050565b613a0d614389565b60068054911515600160d81b0260ff60d81b19909216919091179055565b613a33614389565b60068054911515600160d01b0260ff60d01b19909216919091179055565b613a59614389565b611388471115613ab257600654660100000000000090046001600160a01b03166108fc613a8861138847615989565b6040518115909202916000818181858888f19350505050158015613ab0573d6000803e3d6000fd5b505b565b6000613abf3361415f565b90508060200151156113905760005b816060015151811015611748578282606001518281518110613af257613af261587d565b60200260200101516000015103613b5e5764ffffffffff421633847f93cda0785d40b289a535b99dc76d4c9cbb6d8146182861ac3ad40509398b1865613b388880615793565b613b4560208b018b615793565b604051613b55949392919061580a565b60405180910390a45b600101613ace565b60606000613b7342614aea565b60065490915064ffffffffff610100909104811690821611613bbc5760405162461bcd60e51b81526020600482015260026024820152610c4d60f21b6044820152606401610641565b6000613bc742614af9565b9050600080600060025467ffffffffffffffff811115613be957613be9615179565b604051908082528060200260200182016040528015613c2e57816020015b6040805180820190915260008082526020820152815260200190600190039081613c075790505b50905060005b60038111613ef957600081613c4a575060208501515b60018203613c56575084515b60028203613c65575060408501515b60038203613c74575060608501515b60005b6000838152600a6020908152604080832061ffff86168452909152902054811015613ee4576000838152600a6020908152604080832061ffff861684529091529020805482908110613ccb57613ccb61587d565b906000526020600020906004020160030160159054906101000a900460ff16613edc576000838152600a6020908152604080832061ffff861684529091528120805483908110613d1d57613d1d61587d565b60009182526020808320600490920290910154868352600a8252604080842061ffff8816855290925290822080549193509084908110613d5f57613d5f61587d565b6000918252602080832060036004909302019190910154878352600a8252604080842061ffff8916855290925290822080546001600160a01b0390921693509085908110613daf57613daf61587d565b9060005260206000209060040201600101549050613de960405180604001604052806000815260200160006001600160a01b031681525090565b60008261271060005485613dfd9190615952565b613e07919061590e565b613e119190615989565b90506000805b6000878152600b6020526040902054811015613ed4576002548d03613e4a5750989e9d5050505050505050505050505050565b6003541580613e60575060065460ff1615156001145b15613ecc578c613e6f8161599c565b9d50613e7d90508383615922565b91506040518060400160405280838152602001876001600160a01b03168152509350838b8d81518110613eb257613eb261587d565b60200260200101819052508b80613ec89061599c565b9c50505b600101613e17565b505050505050505b600101613c77565b50508080613ef19061599c565b915050613c34565b506000805b8251811015613f4e5760006001600160a01b0316838281518110613f2457613f2461587d565b6020026020010151602001516001600160a01b031603613f4657809150613f4e565b600101613efe565b5060008167ffffffffffffffff811115613f6a57613f6a615179565b604051908082528060200260200182016040528015613faf57816020015b6040805180820190915260008082526020820152815260200190600190039081613f885790505b50905060005b82811015613ffc57838181518110613fcf57613fcf61587d565b6020026020010151828281518110613fe957613fe961587d565b6020908102919091010152600101613fb5565b50979650505050505050565b4264ffffffffff16336001600160a01b03167f34f43abf7a52b609b04511ed963a29ebb76ae3e0ca0ff5594be1c2a84ebd03f2836000015184602001518560400151866060015187608001518860a0015160405161406b96959493929190615a18565b60405180910390a350565b61407e614389565b6001600160a01b03821661409157600080fd5b61409a826143d2565b156140cb5760405162461bcd60e51b81526020600482015260016024820152603160f81b6044820152606401610641565b604080516060810182526001600160a01b03938416808252602080830194855260018385018181526000938452600590925293909120915182546001600160a01b031916951694909417815591519082015590516002909101805460ff1916911515919091179055565b6008818154811061414557600080fd5b6000918252602090912001546001600160a01b0316905081565b60408051608081018252600080825260208201526060918101829052818101919091526001600160a01b038281166000908152600760209081526040808320815160808101835281549586168152600160a01b90950460ff1615158584015260018101805483518186028101860185528181529295938701949293919290919084015b82821015614298576000848152602090819020604080516080810182526002860290920180548352600181015461ffff81169484019490945291929083019062010000900460ff16600381111561423b5761423b6150a8565b600381111561424c5761424c6150a8565b81526020016001820160039054906101000a900460ff166002811115614274576142746150a8565b6002811115614285576142856150a8565b81525050815260200190600101906141e2565b50505050815260200160028201805480602002602001604051908101604052809291908181526020016000905b8282101561437b576000848152602090819020604080516080810182526002860290920180548352600181015461ffff81169484019490945291929083019062010000900460ff16600381111561431e5761431e6150a8565b600381111561432f5761432f6150a8565b81526020016001820160039054906101000a900460ff166002811115614357576143576150a8565b6002811115614368576143686150a8565b81525050815260200190600101906142c5565b505050915250909392505050565b600654660100000000000090046001600160a01b03163314613ab25760405162461bcd60e51b8152602060048201526002602482015261189b60f11b6044820152606401610641565b6001600160a01b03811660009081526005602052604081206002015460ff166143fc576000612b05565b600192915050565b33613ab25760405162461bcd60e51b81526020600482015260016024820152603360f81b6044820152606401610641565b6040805161010081018252600080825260208201819052918101829052606081018290526080810182905260a0810182905260c0810182905260e08101919091526040516bffffffffffffffffffffffff193360601b16602082015244603482015242605482015260009060740160408051601f1981840301815282825280516020918201206101008401835280845290830189905233918301919091526001600160a01b038716606083015260016080830152600060a0830152915060c08101856003811115614508576145086150a8565b81526020018461ffff16815250915050949350505050565b33600090815260076020526040812054600160a01b900460ff16151590036145ae5733600081815260076020526040812080546001600160a01b03199081168417825560088054600181019091557ff3f7a9fe364faab93b216da50a3214154f22a0a2b415b23a84c8169e8b636ee301805490911684179055919052805460ff60a01b1916600160a01b1790555b80156146605733600090815260076020908152604080832060029081018054600180820183559186529484902087519590920290910193845591850151918301805461ffff19811661ffff909416938417825591860151869493909262ffffff19161762010000836003811115614627576146276150a8565b0217905550606082015160018201805463ff00000019166301000000836002811115614655576146556150a8565b021790555050505050565b33600090815260076020908152604080832060019081018054808301825590855293839020865160029095020193845591850151918301805461ffff19811661ffff909416938417825591860151869493909262ffffff19161762010000836003811115614627576146276150a8565b60008060405180608001604052808781526020018661ffff168152602001856003811115614700576147006150a8565b8152602001846002811115614717576147176150a8565b81525090506000614735826000015183604001518460200151610b67565b905080608001511561474c57600192505050614753565b6000925050505b949350505050565b60008061476786614af9565b905060008060008560ff1660000361478d57836020015161ffff16925060079150614814565b8560ff166001036147c4576147b2846080015161ffff168560a0015161ffff16614d90565b845161ffff1693509150819050614814565b8560ff166002036147f8576147e9846060015161ffff16856080015161ffff16614e16565b61ffff169250605a9150614814565b8560ff1660030361481457836060015161ffff16925061016d91505b8560ff166001036148cf57600061016d61482f89600c615952565b614839919061590e565b9050838964ffffffffff161415801561485857508864ffffffffff1684115b156148895761486e64ffffffffff8a1685615989565b6148789084615989565b6148829082615952565b97506148c9565b838964ffffffffff16141580156148a657508864ffffffffff1684105b156148c9576148bc8464ffffffffff8b16615989565b6148c69082615952565b97505b50614997565b60ff861615806148e257508560ff166002145b806148f057508560ff166003145b1561499757828864ffffffffff161415801561491257508764ffffffffff1683115b1561494d5761492864ffffffffff891684615989565b6149329083615989565b61493c838961590e565b6149469190615952565b9650614997565b828864ffffffffff161415801561496a57508764ffffffffff1683105b15614997576149808364ffffffffff8a16615989565b61498a838961590e565b6149949190615952565b96505b5094979650505050505050565b6000828152600b602052604081208054909190815b81811015614a3257846001600160a01b03168482815481106149dd576149dd61587d565b6000918252602090912001546001600160a01b031603614a2a57809250838181548110614a0c57614a0c61587d565b600091825260209091200180546001600160a01b0319169055614a32565b6001016149b9565b5082548390614a4390600190615989565b81548110614a5357614a5361587d565b9060005260206000200160009054906101000a90046001600160a01b0316838381548110614a8357614a8361587d565b9060005260206000200160006101000a8154816001600160a01b0302191690836001600160a01b0316021790555082805480614ac157614ac1615a9a565b600082815260209020810160001990810180546001600160a01b03191690550190555050505050565b6000612b056201518083615ab0565b6040805160c081018252600080825260208201819052918101829052606081018290526080810182905260a0810182905290614b38620151808461590e565b90506000808281614b4c8262010bd9615ada565b614b599062253d8c615ada565b9050600062023ab1614b6c836004615b02565b614b769190615b32565b90506004614b878262023ab1615b02565b614b92906003615ada565b614b9c9190615b32565b614ba69083615b60565b9150600062164b09614bb9846001615ada565b614bc590610fa0615b02565b614bcf9190615b32565b90506004614bdf826105b5615b02565b614be99190615b32565b614bf39084615b60565b614bfe90601f615ada565b9250600061098f614c10856050615b02565b614c1a9190615b32565b905060006050614c2c8361098f615b02565b614c369190615b32565b614c409086615b60565b9050614c4d600b83615b32565b9450614c5a85600c615b02565b614c65836002615ada565b614c6f9190615b60565b91508483614c7e603187615b60565b614c89906064615b02565b614c939190615ada565b614c9d9190615ada565b909750915086828282600060015b838111614cf757838103614cce57614cc761ffff8e1683615922565b9150614ce5565b614cd88585614d90565b614ce29083615922565b91505b80614cef8161599c565b915050614cab565b50809a50614d098b61ffff1685614e16565b61ffff1660408f0152614d1b8f614ee4565b8e6020019061ffff16908161ffff16815250508b8e6000019061ffff16908161ffff16815250508a8e6060019061ffff16908161ffff1681525050838e6080019061ffff16908161ffff1681525050828e60a0019061ffff16908161ffff168152505050505050505050505050505050919050565b60008160011480614da15750816003145b80614dac5750816005145b80614db75750816007145b80614dc25750816008145b80614dcd575081600a145b80614dd8575081600c145b15614de55750601f612b05565b81600214614df55750601e612b05565b614dfe83614f1a565b614e0957601c614e0c565b601d5b60ff169392505050565b600080614e2283614f1a565b15614e2f57506001614e33565b5060005b614e3e81605a615922565b8411614e4c57839150614edd565b83614e5882605a615922565b108015614e6f5750614e6b8160b5615922565b8411155b15614e9057614e7f81605a615922565b614e899085615989565b9150614edd565b83614e9c8260b5615922565b108015614eb45750614eb081610111615922565b8411155b15614ec457614e7f8160b5615922565b614ed081610111615922565b614eda9085615989565b91505b5092915050565b600080614ef4620151808461590e565b905060006007614f05836003615922565b614f0f9190615b80565b614753906001615922565b6000614f27600483615b80565b158015614f3d5750614f3a606483615b80565b15155b80612b055750614f4f61019083615b80565b1592915050565b6001600160a01b0381168114613ab057600080fd5b8035614f7681614f56565b919050565b600060208284031215614f8d57600080fd5b8135614f9881614f56565b9392505050565b600060408284031215614fb157600080fd5b50919050565b803560048110614f7657600080fd5b803561ffff81168114614f7657600080fd5b600080600080600060a08688031215614ff057600080fd5b85359450602086013561500281614f56565b9350604086013567ffffffffffffffff81111561501e57600080fd5b61502a88828901614f9f565b93505061503960608701614fb7565b915061504760808701614fc6565b90509295509295909350565b60006020828403121561506557600080fd5b5035919050565b60008060006060848603121561508157600080fd5b8335925061509160208501614fb7565b915061509f60408501614fc6565b90509250925092565b634e487b7160e01b600052602160045260246000fd5b600481106150ce576150ce6150a8565b9052565b80518252602081015160208301526001600160a01b0360408201511660408301526001600160a01b03606082015116606083015260808101511515608083015260a081015161512560a084018215159052565b5060c081015161513860c08401826150be565b5060e081015161139060e084018261ffff169052565b6101008101612b0582846150d2565b600061010082840312801561517157600080fd5b509092915050565b634e487b7160e01b600052604160045260246000fd5b604051610100810167ffffffffffffffff811182821017156151b3576151b3615179565b60405290565b60405160c0810167ffffffffffffffff811182821017156151b3576151b3615179565b8015158114613ab057600080fd5b8035614f76816151dc565b6000610100828403121561520857600080fd5b61521061518f565b82358152602080840135908201529050604082013561522e81614f56565b604082015261523f60608301614f6b565b6060820152615250608083016151ea565b608082015261526160a083016151ea565b60a082015261527260c08301614fb7565b60c082015261528360e08301614fc6565b60e082015292915050565b600061010082840312156152a157600080fd5b614f9883836151f5565b602080825282518282018190526000918401906040840190835b818110156152f857835180516001600160a01b0316845260209081015181850152909301926040909201916001016152c5565b509095945050505050565b6000806040838503121561531657600080fd5b8235615321816151dc565b9150602083013561533181614f56565b809150509250929050565b600381106150ce576150ce6150a8565b602080825282518282018190526000918401906040840190835b818110156152f857835161537b8482516150d2565b602081015161538e61010086018261533c565b50604001516101208401526020939093019261014090920191600101615366565b60008061012083850312156153c357600080fd5b6153cd84846151f5565b915061010083013561533181614f56565b6000602082840312156153f057600080fd5b8135614f98816151dc565b6000806040838503121561540e57600080fd5b823567ffffffffffffffff81111561542557600080fd5b61543185828601614f9f565b95602094909401359450505050565b602080825282518282018190526000918401906040840190835b818110156152f8578351805184526020908101516001600160a01b0316818501529093019260409092019160010161545a565b600080604083850312156154a057600080fd5b82359150602083013561533181614f56565b600082601f8301126154c357600080fd5b813567ffffffffffffffff8111156154dd576154dd615179565b604051601f8201601f19908116603f0116810167ffffffffffffffff8111828210171561550c5761550c615179565b60405281815283820160200185101561552457600080fd5b816020850160208301376000918101602001919091529392505050565b60006020828403121561555357600080fd5b813567ffffffffffffffff81111561556a57600080fd5b820160c0818503121561557c57600080fd5b6155846151b9565b813567ffffffffffffffff81111561559b57600080fd5b6155a7868285016154b2565b825250602082013567ffffffffffffffff8111156155c457600080fd5b6155d0868285016154b2565b602083015250604082013567ffffffffffffffff8111156155f057600080fd5b6155fc868285016154b2565b604083015250606082013567ffffffffffffffff81111561561c57600080fd5b615628868285016154b2565b606083015250608082013567ffffffffffffffff81111561564857600080fd5b615654868285016154b2565b60808301525060a082013567ffffffffffffffff81111561567457600080fd5b615680868285016154b2565b60a083015250949350505050565b600080604083850312156156a157600080fd5b82356156ac81614f56565b946020939093013593505050565b600081518084526020840193506020830160005b828110156157285781518051875261ffff602082015116602088015260408101516156fc60408901826150be565b5060608101519050615711606088018261533c565b5060809590950194602091909101906001016156ce565b5093949350505050565b602081526001600160a01b038251166020820152602082015115156040820152600060408301516080606084015261576d60a08401826156ba565b90506060840151601f1984830301608085015261578a82826156ba565b95945050505050565b6000808335601e198436030181126157aa57600080fd5b83018035915067ffffffffffffffff8211156157c557600080fd5b6020019150368190038213156157da57600080fd5b9250929050565b81835281816020850137506000828201602090810191909152601f909101601f19169091010190565b60408152600061581e6040830186886157e1565b82810360208401526158318185876157e1565b979650505050505050565b600a81106150ce576150ce6150a8565b64ffffffffff85168152602081018490526001600160a01b03831660408201526080810161578a606083018461583c565b634e487b7160e01b600052603260045260246000fd5b6000602082840312156158a557600080fd5b5051919050565b6000602082840312156158be57600080fd5b614f9882614fc6565b6000602082840312156158d957600080fd5b614f9882614fb7565b634e487b7160e01b600052601260045260246000fd5b634e487b7160e01b600052601160045260246000fd5b60008261591d5761591d6158e2565b500490565b80820180821115612b0557612b056158f8565b60006020828403121561594757600080fd5b8151614f98816151dc565b8082028115828204841417612b0557612b056158f8565b64ffffffffff8181168382160290811690818114614edd57614edd6158f8565b81810381811115612b0557612b056158f8565b6000600182016159ae576159ae6158f8565b5060010190565b64ffffffffff8181168382160190811115612b0557612b056158f8565b6000815180845260005b818110156159f8576020818501810151868301820152016159dc565b506000602082860101526020601f19601f83011685010191505092915050565b60c081526000615a2b60c08301896159d2565b8281036020840152615a3d81896159d2565b90508281036040840152615a5181886159d2565b90508281036060840152615a6581876159d2565b90508281036080840152615a7981866159d2565b905082810360a0840152615a8d81856159d2565b9998505050505050505050565b634e487b7160e01b600052603160045260246000fd5b600064ffffffffff831680615ac757615ac76158e2565b8064ffffffffff84160491505092915050565b8082018281126000831280158216821582161715615afa57615afa6158f8565b505092915050565b80820260008212600160ff1b84141615615b1e57615b1e6158f8565b8181058314821517612b0557612b056158f8565b600082615b4157615b416158e2565b600160ff1b821460001984141615615b5b57615b5b6158f8565b500590565b8181036000831280158383131683831282161715614edd57614edd6158f8565b600082615b8f57615b8f6158e2565b50069056feca6b824caf1a48ea2ad039dbb063460fa30e9c3cc255eeb52240d638ec6de65ea2646970667358221220834765f15fe3db65c76a27e694db6c44ca93a38b8e1a2d790a628a42a09ee96e64736f6c634300081a0033","opcodes":"PUSH1 0x80 PUSH1 0x40 MSTORE PUSH1 0x40 MLOAD PUSH2 0x5D8A CODESIZE SUB DUP1 PUSH2 0x5D8A DUP4 CODECOPY DUP2 ADD PUSH1 0x40 DUP2 SWAP1 MSTORE PUSH2 0x22 SWAP2 PUSH2 0xC4 JUMP JUMPDEST PUSH1 0x0 DUP6 SWAP1 SSTORE PUSH1 0x1 DUP5 SWAP1 SSTORE PUSH1 0x2 DUP4 DUP2 SSTORE PUSH1 0x6 DUP1 SLOAD PUSH1 0xFF PUSH1 0xD8 SHL NOT AND PUSH1 0x1 PUSH1 0xD8 SHL DUP6 ISZERO ISZERO MUL OR SWAP1 SSTORE PUSH2 0x51 TIMESTAMP PUSH2 0xAF JUMP JUMPDEST PUSH2 0x5B SWAP2 SWAP1 PUSH2 0x12E JUMP JUMPDEST PUSH1 0x6 DUP1 SLOAD PUSH1 0x1 PUSH1 0x1 PUSH1 0xA0 SHL SUB SWAP1 SWAP4 AND PUSH7 0x1000000000000 MUL PUSH1 0x1 PUSH1 0x30 SHL PUSH1 0x1 PUSH1 0xD0 SHL SUB NOT PUSH5 0xFFFFFFFFFF SWAP4 SWAP1 SWAP4 AND PUSH2 0x100 MUL SWAP3 SWAP1 SWAP3 AND PUSH2 0x100 PUSH1 0x1 PUSH1 0xD0 SHL SUB NOT SWAP1 SWAP4 AND SWAP3 SWAP1 SWAP3 OR OR SWAP1 SSTORE POP PUSH2 0x191 SWAP3 POP POP POP JUMP JUMPDEST PUSH1 0x0 PUSH2 0xBE PUSH3 0x15180 DUP4 PUSH2 0x159 JUMP JUMPDEST SWAP3 SWAP2 POP POP JUMP JUMPDEST PUSH1 0x0 DUP1 PUSH1 0x0 DUP1 PUSH1 0x0 PUSH1 0xA0 DUP7 DUP9 SUB SLT ISZERO PUSH2 0xDC JUMPI PUSH1 0x0 DUP1 REVERT JUMPDEST DUP6 MLOAD PUSH1 0x20 DUP8 ADD MLOAD PUSH1 0x40 DUP9 ADD MLOAD PUSH1 0x60 DUP10 ADD MLOAD SWAP3 SWAP8 POP SWAP1 SWAP6 POP SWAP4 POP DUP1 ISZERO ISZERO DUP2 EQ PUSH2 0x103 JUMPI PUSH1 0x0 DUP1 REVERT JUMPDEST PUSH1 0x80 DUP8 ADD MLOAD SWAP1 SWAP3 POP PUSH1 0x1 PUSH1 0x1 PUSH1 0xA0 SHL SUB DUP2 AND DUP2 EQ PUSH2 0x120 JUMPI PUSH1 0x0 DUP1 REVERT JUMPDEST DUP1 SWAP2 POP POP SWAP3 SWAP6 POP SWAP3 SWAP6 SWAP1 SWAP4 POP JUMP JUMPDEST PUSH5 0xFFFFFFFFFF DUP3 DUP2 AND DUP3 DUP3 AND SUB SWAP1 DUP2 GT ISZERO PUSH2 0xBE JUMPI PUSH4 0x4E487B71 PUSH1 0xE0 SHL PUSH1 0x0 MSTORE PUSH1 0x11 PUSH1 0x4 MSTORE PUSH1 0x24 PUSH1 0x0 REVERT JUMPDEST PUSH1 0x0 PUSH5 0xFFFFFFFFFF DUP4 AND DUP1 PUSH2 0x17E JUMPI PUSH4 0x4E487B71 PUSH1 0xE0 SHL PUSH1 0x0 MSTORE PUSH1 0x12 PUSH1 0x4 MSTORE PUSH1 0x24 PUSH1 0x0 REVERT JUMPDEST DUP1 PUSH5 0xFFFFFFFFFF DUP5 AND DIV SWAP2 POP POP SWAP3 SWAP2 POP POP JUMP JUMPDEST PUSH2 0x5BEA DUP1 PUSH2 0x1A0 PUSH1 0x0 CODECOPY PUSH1 0x0 RETURN INVALID PUSH1 0x80 PUSH1 0x40 MSTORE PUSH1 0x4 CALLDATASIZE LT PUSH2 0x1B9 JUMPI PUSH1 0x0 CALLDATALOAD PUSH1 0xE0 SHR DUP1 PUSH4 0x907CEDB2 GT PUSH2 0xEB JUMPI DUP1 PUSH4 0xD10F9E69 GT PUSH2 0x8F JUMPI DUP1 PUSH4 0xED601D28 GT PUSH2 0x61 JUMPI DUP1 PUSH4 0xED601D28 EQ PUSH2 0x54C JUMPI DUP1 PUSH4 0xF25E13C9 EQ PUSH2 0x56C JUMPI DUP1 PUSH4 0xF4A2A200 EQ PUSH2 0x58C JUMPI DUP1 PUSH4 0xFBCBC0F1 EQ PUSH2 0x5C4 JUMPI STOP JUMPDEST DUP1 PUSH4 0xD10F9E69 EQ PUSH2 0x499 JUMPI DUP1 PUSH4 0xDA854A96 EQ PUSH2 0x4B9 JUMPI DUP1 PUSH4 0xE63D35BE EQ PUSH2 0x4F2 JUMPI DUP1 PUSH4 0xEBEC6EAA EQ PUSH2 0x514 JUMPI STOP JUMPDEST DUP1 PUSH4 0xB4761DE9 GT PUSH2 0xC8 JUMPI DUP1 PUSH4 0xB4761DE9 EQ PUSH2 0x3DE JUMPI DUP1 PUSH4 0xBD743886 EQ PUSH2 0x3FE JUMPI DUP1 PUSH4 0xC8796572 EQ PUSH2 0x46E JUMPI DUP1 PUSH4 0xCAB1C965 EQ PUSH2 0x483 JUMPI STOP JUMPDEST DUP1 PUSH4 0x907CEDB2 EQ PUSH2 0x389 JUMPI DUP1 PUSH4 0x9889552E EQ PUSH2 0x3A9 JUMPI DUP1 PUSH4 0xB25AE32C EQ PUSH2 0x3C9 JUMPI STOP JUMPDEST DUP1 PUSH4 0x3C95DAD5 GT PUSH2 0x15D JUMPI DUP1 PUSH4 0x86525A00 GT PUSH2 0x12F JUMPI DUP1 PUSH4 0x86525A00 EQ PUSH2 0x2FC JUMPI DUP1 PUSH4 0x87D888D3 EQ PUSH2 0x329 JUMPI DUP1 PUSH4 0x8EF0EF1C EQ PUSH2 0x349 JUMPI DUP1 PUSH4 0x8F283970 EQ PUSH2 0x369 JUMPI STOP JUMPDEST DUP1 PUSH4 0x3C95DAD5 EQ PUSH2 0x2A1 JUMPI DUP1 PUSH4 0x44E49769 EQ PUSH2 0x2B4 JUMPI DUP1 PUSH4 0x7507BA39 EQ PUSH2 0x2C7 JUMPI DUP1 PUSH4 0x7BBF5A6E EQ PUSH2 0x2CF JUMPI STOP JUMPDEST DUP1 PUSH4 0x1F17EE55 GT PUSH2 0x196 JUMPI DUP1 PUSH4 0x1F17EE55 EQ PUSH2 0x215 JUMPI DUP1 PUSH4 0x27EA9773 EQ PUSH2 0x23E JUMPI DUP1 PUSH4 0x2D23F7E7 EQ PUSH2 0x25E JUMPI DUP1 PUSH4 0x34D441D0 EQ PUSH2 0x28B JUMPI STOP JUMPDEST DUP1 PUSH4 0x53149FA EQ PUSH2 0x1C2 JUMPI DUP1 PUSH4 0xB8590C7 EQ PUSH2 0x1E2 JUMPI DUP1 PUSH4 0xBEC99E8 EQ PUSH2 0x1F5 JUMPI STOP JUMPDEST CALLDATASIZE PUSH2 0x1C0 JUMPI STOP JUMPDEST STOP JUMPDEST CALLVALUE DUP1 ISZERO PUSH2 0x1CE JUMPI PUSH1 0x0 DUP1 REVERT JUMPDEST POP PUSH2 0x1C0 PUSH2 0x1DD CALLDATASIZE PUSH1 0x4 PUSH2 0x4F7B JUMP JUMPDEST PUSH2 0x5F1 JUMP JUMPDEST PUSH2 0x1C0 PUSH2 0x1F0 CALLDATASIZE PUSH1 0x4 PUSH2 0x4FD8 JUMP JUMPDEST PUSH2 0x684 JUMP JUMPDEST CALLVALUE DUP1 ISZERO PUSH2 0x201 JUMPI PUSH1 0x0 DUP1 REVERT JUMPDEST POP PUSH2 0x1C0 PUSH2 0x210 CALLDATASIZE PUSH1 0x4 PUSH2 0x5053 JUMP JUMPDEST PUSH2 0xB4D JUMP JUMPDEST CALLVALUE DUP1 ISZERO PUSH2 0x221 JUMPI PUSH1 0x0 DUP1 REVERT JUMPDEST POP PUSH2 0x22B PUSH1 0x1 SLOAD DUP2 JUMP JUMPDEST PUSH1 0x40 MLOAD SWAP1 DUP2 MSTORE PUSH1 0x20 ADD JUMPDEST PUSH1 0x40 MLOAD DUP1 SWAP2 SUB SWAP1 RETURN JUMPDEST CALLVALUE DUP1 ISZERO PUSH2 0x24A JUMPI PUSH1 0x0 DUP1 REVERT JUMPDEST POP PUSH2 0x1C0 PUSH2 0x259 CALLDATASIZE PUSH1 0x4 PUSH2 0x5053 JUMP JUMPDEST PUSH2 0xB5A JUMP JUMPDEST CALLVALUE DUP1 ISZERO PUSH2 0x26A JUMPI PUSH1 0x0 DUP1 REVERT JUMPDEST POP PUSH2 0x27E PUSH2 0x279 CALLDATASIZE PUSH1 0x4 PUSH2 0x506C JUMP JUMPDEST PUSH2 0xB67 JUMP JUMPDEST PUSH1 0x40 MLOAD PUSH2 0x235 SWAP2 SWAP1 PUSH2 0x514E JUMP JUMPDEST CALLVALUE DUP1 ISZERO PUSH2 0x297 JUMPI PUSH1 0x0 DUP1 REVERT JUMPDEST POP PUSH2 0x22B PUSH1 0x0 SLOAD DUP2 JUMP JUMPDEST PUSH2 0x1C0 PUSH2 0x2AF CALLDATASIZE PUSH1 0x4 PUSH2 0x515D JUMP JUMPDEST PUSH2 0xD3F JUMP JUMPDEST PUSH2 0x1C0 PUSH2 0x2C2 CALLDATASIZE PUSH1 0x4 PUSH2 0x528E JUMP JUMPDEST PUSH2 0x1395 JUMP JUMPDEST PUSH2 0x1C0 PUSH2 0x174E JUMP JUMPDEST CALLVALUE DUP1 ISZERO PUSH2 0x2DB JUMPI PUSH1 0x0 DUP1 REVERT JUMPDEST POP PUSH2 0x2EF PUSH2 0x2EA CALLDATASIZE PUSH1 0x4 PUSH2 0x5053 JUMP JUMPDEST PUSH2 0x251E JUMP JUMPDEST PUSH1 0x40 MLOAD PUSH2 0x235 SWAP2 SWAP1 PUSH2 0x52AB JUMP JUMPDEST CALLVALUE DUP1 ISZERO PUSH2 0x308 JUMPI PUSH1 0x0 DUP1 REVERT JUMPDEST POP PUSH2 0x31C PUSH2 0x317 CALLDATASIZE PUSH1 0x4 PUSH2 0x5303 JUMP JUMPDEST PUSH2 0x2714 JUMP JUMPDEST PUSH1 0x40 MLOAD PUSH2 0x235 SWAP2 SWAP1 PUSH2 0x534C JUMP JUMPDEST CALLVALUE DUP1 ISZERO PUSH2 0x335 JUMPI PUSH1 0x0 DUP1 REVERT JUMPDEST POP PUSH2 0x1C0 PUSH2 0x344 CALLDATASIZE PUSH1 0x4 PUSH2 0x515D JUMP JUMPDEST PUSH2 0x2B0B JUMP JUMPDEST CALLVALUE DUP1 ISZERO PUSH2 0x355 JUMPI PUSH1 0x0 DUP1 REVERT JUMPDEST POP PUSH2 0x1C0 PUSH2 0x364 CALLDATASIZE PUSH1 0x4 PUSH2 0x5053 JUMP JUMPDEST PUSH2 0x3551 JUMP JUMPDEST CALLVALUE DUP1 ISZERO PUSH2 0x375 JUMPI PUSH1 0x0 DUP1 REVERT JUMPDEST POP PUSH2 0x1C0 PUSH2 0x384 CALLDATASIZE PUSH1 0x4 PUSH2 0x4F7B JUMP JUMPDEST PUSH2 0x355E JUMP JUMPDEST CALLVALUE DUP1 ISZERO PUSH2 0x395 JUMPI PUSH1 0x0 DUP1 REVERT JUMPDEST POP PUSH2 0x1C0 PUSH2 0x3A4 CALLDATASIZE PUSH1 0x4 PUSH2 0x53AF JUMP JUMPDEST PUSH2 0x35BD JUMP JUMPDEST CALLVALUE DUP1 ISZERO PUSH2 0x3B5 JUMPI PUSH1 0x0 DUP1 REVERT JUMPDEST POP PUSH2 0x1C0 PUSH2 0x3C4 CALLDATASIZE PUSH1 0x4 PUSH2 0x53DE JUMP JUMPDEST PUSH2 0x3A05 JUMP JUMPDEST CALLVALUE DUP1 ISZERO PUSH2 0x3D5 JUMPI PUSH1 0x0 DUP1 REVERT JUMPDEST POP PUSH1 0x8 SLOAD PUSH2 0x22B JUMP JUMPDEST CALLVALUE DUP1 ISZERO PUSH2 0x3EA JUMPI PUSH1 0x0 DUP1 REVERT JUMPDEST POP PUSH2 0x1C0 PUSH2 0x3F9 CALLDATASIZE PUSH1 0x4 PUSH2 0x53DE JUMP JUMPDEST PUSH2 0x3A2B JUMP JUMPDEST CALLVALUE DUP1 ISZERO PUSH2 0x40A JUMPI PUSH1 0x0 DUP1 REVERT JUMPDEST POP PUSH2 0x447 PUSH2 0x419 CALLDATASIZE PUSH1 0x4 PUSH2 0x4F7B JUMP JUMPDEST PUSH1 0x5 PUSH1 0x20 MSTORE PUSH1 0x0 SWAP1 DUP2 MSTORE PUSH1 0x40 SWAP1 KECCAK256 DUP1 SLOAD PUSH1 0x1 DUP3 ADD SLOAD PUSH1 0x2 SWAP1 SWAP3 ADD SLOAD PUSH1 0x1 PUSH1 0x1 PUSH1 0xA0 SHL SUB SWAP1 SWAP2 AND SWAP2 SWAP1 PUSH1 0xFF AND DUP4 JUMP JUMPDEST PUSH1 0x40 DUP1 MLOAD PUSH1 0x1 PUSH1 0x1 PUSH1 0xA0 SHL SUB SWAP1 SWAP5 AND DUP5 MSTORE PUSH1 0x20 DUP5 ADD SWAP3 SWAP1 SWAP3 MSTORE ISZERO ISZERO SWAP1 DUP3 ADD MSTORE PUSH1 0x60 ADD PUSH2 0x235 JUMP JUMPDEST CALLVALUE DUP1 ISZERO PUSH2 0x47A JUMPI PUSH1 0x0 DUP1 REVERT JUMPDEST POP PUSH2 0x1C0 PUSH2 0x3A51 JUMP JUMPDEST CALLVALUE DUP1 ISZERO PUSH2 0x48F JUMPI PUSH1 0x0 DUP1 REVERT JUMPDEST POP PUSH2 0x22B PUSH1 0x2 SLOAD DUP2 JUMP JUMPDEST CALLVALUE DUP1 ISZERO PUSH2 0x4A5 JUMPI PUSH1 0x0 DUP1 REVERT JUMPDEST POP PUSH2 0x1C0 PUSH2 0x4B4 CALLDATASIZE PUSH1 0x4 PUSH2 0x53FB JUMP JUMPDEST PUSH2 0x3AB4 JUMP JUMPDEST CALLVALUE DUP1 ISZERO PUSH2 0x4C5 JUMPI PUSH1 0x0 DUP1 REVERT JUMPDEST POP PUSH1 0x6 SLOAD PUSH2 0x4DC SWAP1 PUSH2 0x100 SWAP1 DIV PUSH5 0xFFFFFFFFFF AND DUP2 JUMP JUMPDEST PUSH1 0x40 MLOAD PUSH5 0xFFFFFFFFFF SWAP1 SWAP2 AND DUP2 MSTORE PUSH1 0x20 ADD PUSH2 0x235 JUMP JUMPDEST CALLVALUE DUP1 ISZERO PUSH2 0x4FE JUMPI PUSH1 0x0 DUP1 REVERT JUMPDEST POP PUSH2 0x507 PUSH2 0x3B66 JUMP JUMPDEST PUSH1 0x40 MLOAD PUSH2 0x235 SWAP2 SWAP1 PUSH2 0x5440 JUMP JUMPDEST CALLVALUE DUP1 ISZERO PUSH2 0x520 JUMPI PUSH1 0x0 DUP1 REVERT JUMPDEST POP PUSH2 0x22B PUSH2 0x52F CALLDATASIZE PUSH1 0x4 PUSH2 0x548D JUMP JUMPDEST PUSH1 0x9 PUSH1 0x20 SWAP1 DUP2 MSTORE PUSH1 0x0 SWAP3 DUP4 MSTORE PUSH1 0x40 DUP1 DUP5 KECCAK256 SWAP1 SWAP2 MSTORE SWAP1 DUP3 MSTORE SWAP1 KECCAK256 SLOAD DUP2 JUMP JUMPDEST CALLVALUE DUP1 ISZERO PUSH2 0x558 JUMPI PUSH1 0x0 DUP1 REVERT JUMPDEST POP PUSH2 0x1C0 PUSH2 0x567 CALLDATASIZE PUSH1 0x4 PUSH2 0x5541 JUMP JUMPDEST PUSH2 0x4008 JUMP JUMPDEST CALLVALUE DUP1 ISZERO PUSH2 0x578 JUMPI PUSH1 0x0 DUP1 REVERT JUMPDEST POP PUSH2 0x1C0 PUSH2 0x587 CALLDATASIZE PUSH1 0x4 PUSH2 0x568E JUMP JUMPDEST PUSH2 0x4076 JUMP JUMPDEST CALLVALUE DUP1 ISZERO PUSH2 0x598 JUMPI PUSH1 0x0 DUP1 REVERT JUMPDEST POP PUSH2 0x5AC PUSH2 0x5A7 CALLDATASIZE PUSH1 0x4 PUSH2 0x5053 JUMP JUMPDEST PUSH2 0x4135 JUMP JUMPDEST PUSH1 0x40 MLOAD PUSH1 0x1 PUSH1 0x1 PUSH1 0xA0 SHL SUB SWAP1 SWAP2 AND DUP2 MSTORE PUSH1 0x20 ADD PUSH2 0x235 JUMP JUMPDEST CALLVALUE DUP1 ISZERO PUSH2 0x5D0 JUMPI PUSH1 0x0 DUP1 REVERT JUMPDEST POP PUSH2 0x5E4 PUSH2 0x5DF CALLDATASIZE PUSH1 0x4 PUSH2 0x4F7B JUMP JUMPDEST PUSH2 0x415F JUMP JUMPDEST PUSH1 0x40 MLOAD PUSH2 0x235 SWAP2 SWAP1 PUSH2 0x5732 JUMP JUMPDEST PUSH2 0x5F9 PUSH2 0x4389 JUMP JUMPDEST PUSH1 0x1 PUSH1 0x1 PUSH1 0xA0 SHL SUB DUP2 AND PUSH2 0x60C JUMPI PUSH1 0x0 DUP1 REVERT JUMPDEST PUSH2 0x615 DUP2 PUSH2 0x43D2 JUMP JUMPDEST PUSH2 0x64A JUMPI PUSH1 0x40 MLOAD PUSH3 0x461BCD PUSH1 0xE5 SHL DUP2 MSTORE PUSH1 0x20 PUSH1 0x4 DUP3 ADD MSTORE PUSH1 0x1 PUSH1 0x24 DUP3 ADD MSTORE PUSH1 0x19 PUSH1 0xF9 SHL PUSH1 0x44 DUP3 ADD MSTORE PUSH1 0x64 ADD JUMPDEST PUSH1 0x40 MLOAD DUP1 SWAP2 SUB SWAP1 REVERT JUMPDEST PUSH1 0x1 PUSH1 0x1 PUSH1 0xA0 SHL SUB AND PUSH1 0x0 SWAP1 DUP2 MSTORE PUSH1 0x5 PUSH1 0x20 MSTORE PUSH1 0x40 DUP2 KECCAK256 DUP1 SLOAD PUSH1 0x1 PUSH1 0x1 PUSH1 0xA0 SHL SUB NOT AND DUP2 SSTORE PUSH1 0x1 DUP2 ADD SWAP2 SWAP1 SWAP2 SSTORE PUSH1 0x2 ADD DUP1 SLOAD PUSH1 0xFF NOT AND SWAP1 SSTORE JUMP JUMPDEST PUSH2 0x68C PUSH2 0x4404 JUMP JUMPDEST PUSH1 0x1 PUSH1 0x1 PUSH1 0xA0 SHL SUB DUP5 AND PUSH2 0x6C6 JUMPI PUSH1 0x40 MLOAD PUSH3 0x461BCD PUSH1 0xE5 SHL DUP2 MSTORE PUSH1 0x20 PUSH1 0x4 DUP3 ADD MSTORE PUSH1 0x1 PUSH1 0x24 DUP3 ADD MSTORE PUSH1 0x7 PUSH1 0xFB SHL PUSH1 0x44 DUP3 ADD MSTORE PUSH1 0x64 ADD PUSH2 0x641 JUMP JUMPDEST PUSH1 0x6 SLOAD PUSH1 0x1 PUSH1 0xD8 SHL SWAP1 DIV PUSH1 0xFF AND ISZERO PUSH2 0x70E JUMPI CALLVALUE PUSH1 0x1 SLOAD GT ISZERO PUSH2 0x70E JUMPI PUSH1 0x40 MLOAD PUSH3 0x461BCD PUSH1 0xE5 SHL DUP2 MSTORE PUSH1 0x20 PUSH1 0x4 DUP3 ADD MSTORE PUSH1 0x1 PUSH1 0x24 DUP3 ADD MSTORE PUSH1 0x35 PUSH1 0xF8 SHL PUSH1 0x44 DUP3 ADD MSTORE PUSH1 0x64 ADD PUSH2 0x641 JUMP JUMPDEST PUSH2 0x717 DUP5 PUSH2 0x43D2 JUMP JUMPDEST PUSH2 0x747 JUMPI PUSH1 0x40 MLOAD PUSH3 0x461BCD PUSH1 0xE5 SHL DUP2 MSTORE PUSH1 0x20 PUSH1 0x4 DUP3 ADD MSTORE PUSH1 0x1 PUSH1 0x24 DUP3 ADD MSTORE PUSH1 0x39 PUSH1 0xF8 SHL PUSH1 0x44 DUP3 ADD MSTORE PUSH1 0x64 ADD PUSH2 0x641 JUMP JUMPDEST PUSH1 0x0 DUP3 PUSH1 0x3 DUP2 GT ISZERO PUSH2 0x75B JUMPI PUSH2 0x75B PUSH2 0x50A8 JUMP JUMPDEST SUB PUSH2 0x7AA JUMPI DUP1 PUSH2 0xFFFF AND PUSH1 0x0 LT DUP1 ISZERO PUSH2 0x779 JUMPI POP PUSH1 0x7 DUP2 PUSH2 0xFFFF AND GT ISZERO JUMPDEST PUSH2 0x7AA JUMPI PUSH1 0x40 MLOAD PUSH3 0x461BCD PUSH1 0xE5 SHL DUP2 MSTORE PUSH1 0x20 PUSH1 0x4 DUP3 ADD MSTORE PUSH1 0x2 PUSH1 0x24 DUP3 ADD MSTORE PUSH2 0x191B PUSH1 0xF1 SHL PUSH1 0x44 DUP3 ADD MSTORE PUSH1 0x64 ADD PUSH2 0x641 JUMP JUMPDEST PUSH1 0x1 DUP3 PUSH1 0x3 DUP2 GT ISZERO PUSH2 0x7BE JUMPI PUSH2 0x7BE PUSH2 0x50A8 JUMP JUMPDEST SUB PUSH2 0x80D JUMPI DUP1 PUSH2 0xFFFF AND PUSH1 0x0 LT DUP1 ISZERO PUSH2 0x7DC JUMPI POP PUSH1 0x1C DUP2 PUSH2 0xFFFF AND GT ISZERO JUMPDEST PUSH2 0x80D JUMPI PUSH1 0x40 MLOAD PUSH3 0x461BCD PUSH1 0xE5 SHL DUP2 MSTORE PUSH1 0x20 PUSH1 0x4 DUP3 ADD MSTORE PUSH1 0x2 PUSH1 0x24 DUP3 ADD MSTORE PUSH2 0x3237 PUSH1 0xF0 SHL PUSH1 0x44 DUP3 ADD MSTORE PUSH1 0x64 ADD PUSH2 0x641 JUMP JUMPDEST PUSH1 0x2 DUP3 PUSH1 0x3 DUP2 GT ISZERO PUSH2 0x821 JUMPI PUSH2 0x821 PUSH2 0x50A8 JUMP JUMPDEST SUB PUSH2 0x870 JUMPI DUP1 PUSH2 0xFFFF AND PUSH1 0x0 LT DUP1 ISZERO PUSH2 0x83F JUMPI POP PUSH1 0x5A DUP2 PUSH2 0xFFFF AND GT ISZERO JUMPDEST PUSH2 0x870 JUMPI PUSH1 0x40 MLOAD PUSH3 0x461BCD PUSH1 0xE5 SHL DUP2 MSTORE PUSH1 0x20 PUSH1 0x4 DUP3 ADD MSTORE PUSH1 0x2 PUSH1 0x24 DUP3 ADD MSTORE PUSH2 0x647 PUSH1 0xF3 SHL PUSH1 0x44 DUP3 ADD MSTORE PUSH1 0x64 ADD PUSH2 0x641 JUMP JUMPDEST PUSH1 0x3 DUP3 PUSH1 0x3 DUP2 GT ISZERO PUSH2 0x884 JUMPI PUSH2 0x884 PUSH2 0x50A8 JUMP JUMPDEST SUB PUSH2 0x8D4 JUMPI DUP1 PUSH2 0xFFFF AND PUSH1 0x0 LT DUP1 ISZERO PUSH2 0x8A3 JUMPI POP PUSH2 0x16D DUP2 PUSH2 0xFFFF AND GT ISZERO JUMPDEST PUSH2 0x8D4 JUMPI PUSH1 0x40 MLOAD PUSH3 0x461BCD PUSH1 0xE5 SHL DUP2 MSTORE PUSH1 0x20 PUSH1 0x4 DUP3 ADD MSTORE PUSH1 0x2 PUSH1 0x24 DUP3 ADD MSTORE PUSH2 0x3239 PUSH1 0xF0 SHL PUSH1 0x44 DUP3 ADD MSTORE PUSH1 0x64 ADD PUSH2 0x641 JUMP JUMPDEST PUSH1 0x1 PUSH1 0x1 PUSH1 0xA0 SHL SUB DUP5 AND PUSH1 0x0 SWAP1 DUP2 MSTORE PUSH1 0x5 PUSH1 0x20 MSTORE PUSH1 0x40 SWAP1 KECCAK256 PUSH1 0x1 ADD SLOAD DUP6 LT ISZERO PUSH2 0x924 JUMPI PUSH1 0x40 MLOAD PUSH3 0x461BCD PUSH1 0xE5 SHL DUP2 MSTORE PUSH1 0x20 PUSH1 0x4 DUP3 ADD MSTORE PUSH1 0x2 PUSH1 0x24 DUP3 ADD MSTORE PUSH2 0x333 PUSH1 0xF4 SHL PUSH1 0x44 DUP3 ADD MSTORE PUSH1 0x64 ADD PUSH2 0x641 JUMP JUMPDEST PUSH1 0x0 PUSH2 0x932 DUP7 DUP7 DUP6 DUP6 PUSH2 0x4435 JUMP JUMPDEST SWAP1 POP DUP1 PUSH1 0xA PUSH1 0x0 DUP6 PUSH1 0x3 DUP2 GT ISZERO PUSH2 0x94B JUMPI PUSH2 0x94B PUSH2 0x50A8 JUMP JUMPDEST DUP2 MSTORE PUSH1 0x20 DUP1 DUP3 ADD SWAP3 SWAP1 SWAP3 MSTORE PUSH1 0x40 SWAP1 DUP2 ADD PUSH1 0x0 SWAP1 DUP2 KECCAK256 PUSH2 0xFFFF DUP8 AND DUP3 MSTORE DUP4 MSTORE DUP2 DUP2 KECCAK256 DUP1 SLOAD PUSH1 0x1 DUP2 DUP2 ADD DUP4 SSTORE SWAP2 DUP4 MSTORE SWAP2 DUP5 SWAP1 KECCAK256 DUP6 MLOAD PUSH1 0x4 SWAP1 SWAP4 MUL ADD SWAP2 DUP3 SSTORE SWAP3 DUP5 ADD MLOAD SWAP3 DUP2 ADD SWAP3 SWAP1 SWAP3 SSTORE DUP3 ADD MLOAD PUSH1 0x2 DUP3 ADD DUP1 SLOAD PUSH1 0x1 PUSH1 0x1 PUSH1 0xA0 SHL SUB SWAP3 DUP4 AND PUSH1 0x1 PUSH1 0x1 PUSH1 0xA0 SHL SUB NOT SWAP1 SWAP2 AND OR SWAP1 SSTORE PUSH1 0x60 DUP4 ADD MLOAD PUSH1 0x3 DUP1 DUP5 ADD DUP1 SLOAD PUSH1 0x80 DUP8 ADD MLOAD PUSH1 0xA0 DUP9 ADD MLOAD ISZERO ISZERO PUSH1 0x1 PUSH1 0xA8 SHL MUL PUSH1 0xFF PUSH1 0xA8 SHL NOT SWAP2 ISZERO ISZERO PUSH1 0x1 PUSH1 0xA0 SHL MUL PUSH21 0xFFFFFFFFFFFFFFFFFFFFFFFFFFFFFFFFFFFFFFFFFF NOT SWAP1 SWAP4 AND SWAP6 SWAP1 SWAP7 AND SWAP5 SWAP1 SWAP5 OR OR SWAP3 DUP4 AND DUP5 OR DUP2 SSTORE PUSH1 0xC0 DUP7 ADD MLOAD SWAP4 SWAP1 SWAP3 PUSH1 0xFF PUSH1 0xB0 SHL NOT SWAP1 SWAP2 AND PUSH2 0xFFFF PUSH1 0xA8 SHL NOT SWAP1 SWAP2 AND OR SWAP1 PUSH1 0x1 PUSH1 0xB0 SHL SWAP1 DUP5 SWAP1 DUP2 GT ISZERO PUSH2 0xA40 JUMPI PUSH2 0xA40 PUSH2 0x50A8 JUMP JUMPDEST MUL OR SWAP1 SSTORE POP PUSH1 0xE0 SWAP2 DUP3 ADD MLOAD PUSH1 0x3 SWAP2 DUP3 ADD DUP1 SLOAD PUSH2 0xFFFF PUSH1 0xB8 SHL NOT AND PUSH1 0x1 PUSH1 0xB8 SHL PUSH2 0xFFFF SWAP4 DUP5 AND MUL OR SWAP1 SSTORE PUSH1 0x40 DUP1 MLOAD PUSH1 0x80 DUP2 ADD DUP3 MSTORE DUP6 MLOAD DUP2 MSTORE SWAP4 DUP6 ADD MLOAD SWAP1 SWAP2 AND PUSH1 0x20 DUP5 ADD MSTORE PUSH1 0xC0 DUP5 ADD MLOAD PUSH2 0xAB0 SWAP4 SWAP3 SWAP2 DUP4 ADD SWAP2 DUP2 GT ISZERO PUSH2 0xAA0 JUMPI PUSH2 0xAA0 PUSH2 0x50A8 JUMP JUMPDEST DUP2 MSTORE PUSH1 0x20 ADD PUSH1 0x0 SWAP1 MSTORE PUSH1 0x1 PUSH2 0x4520 JUMP JUMPDEST DUP1 MLOAD PUSH5 0xFFFFFFFFFF TIMESTAMP AND SWAP1 CALLER SWAP1 PUSH32 0x93CDA0785D40B289A535B99DC76D4C9CBB6D8146182861AC3AD40509398B1865 PUSH2 0xAE8 DUP9 DUP1 PUSH2 0x5793 JUMP JUMPDEST PUSH2 0xAF5 PUSH1 0x20 DUP12 ADD DUP12 PUSH2 0x5793 JUMP JUMPDEST PUSH1 0x40 MLOAD PUSH2 0xB05 SWAP5 SWAP4 SWAP3 SWAP2 SWAP1 PUSH2 0x580A JUMP JUMPDEST PUSH1 0x40 MLOAD DUP1 SWAP2 SUB SWAP1 LOG4 DUP1 MLOAD PUSH1 0x60 DUP3 ADD MLOAD PUSH1 0x40 MLOAD PUSH1 0x0 SWAP3 CALLER SWAP3 SWAP1 SWAP2 PUSH1 0x0 DUP1 MLOAD PUSH1 0x20 PUSH2 0x5B95 DUP4 CODECOPY DUP2 MLOAD SWAP2 MSTORE SWAP2 PUSH2 0xB3D SWAP2 TIMESTAMP SWAP2 DUP14 SWAP2 DUP9 SWAP1 PUSH2 0x584C JUMP JUMPDEST PUSH1 0x40 MLOAD DUP1 SWAP2 SUB SWAP1 LOG4 POP POP POP POP POP POP JUMP JUMPDEST PUSH2 0xB55 PUSH2 0x4389 JUMP JUMPDEST PUSH1 0x1 SSTORE JUMP JUMPDEST PUSH2 0xB62 PUSH2 0x4389 JUMP JUMPDEST PUSH1 0x2 SSTORE JUMP JUMPDEST PUSH1 0x40 DUP1 MLOAD PUSH2 0x100 DUP2 ADD DUP3 MSTORE PUSH1 0x0 DUP1 DUP3 MSTORE PUSH1 0x20 DUP3 ADD DUP2 SWAP1 MSTORE SWAP2 DUP2 ADD DUP3 SWAP1 MSTORE PUSH1 0x60 DUP2 ADD DUP3 SWAP1 MSTORE PUSH1 0x80 DUP2 ADD DUP3 SWAP1 MSTORE PUSH1 0xA0 DUP2 ADD DUP3 SWAP1 MSTORE PUSH1 0xC0 DUP2 ADD DUP3 SWAP1 MSTORE PUSH1 0xE0 DUP2 ADD DUP3 SWAP1 MSTORE SWAP1 PUSH1 0xA DUP2 DUP6 PUSH1 0x3 DUP2 GT ISZERO PUSH2 0xBBD JUMPI PUSH2 0xBBD PUSH2 0x50A8 JUMP JUMPDEST DUP2 MSTORE PUSH1 0x20 ADD SWAP1 DUP2 MSTORE PUSH1 0x20 ADD PUSH1 0x0 KECCAK256 PUSH1 0x0 DUP5 PUSH2 0xFFFF AND PUSH2 0xFFFF AND DUP2 MSTORE PUSH1 0x20 ADD SWAP1 DUP2 MSTORE PUSH1 0x20 ADD PUSH1 0x0 KECCAK256 DUP1 SLOAD DUP1 PUSH1 0x20 MUL PUSH1 0x20 ADD PUSH1 0x40 MLOAD SWAP1 DUP2 ADD PUSH1 0x40 MSTORE DUP1 SWAP3 SWAP2 SWAP1 DUP2 DUP2 MSTORE PUSH1 0x20 ADD PUSH1 0x0 SWAP1 JUMPDEST DUP3 DUP3 LT ISZERO PUSH2 0xCDB JUMPI PUSH1 0x0 DUP5 DUP2 MSTORE PUSH1 0x20 SWAP1 DUP2 SWAP1 KECCAK256 PUSH1 0x40 DUP1 MLOAD PUSH2 0x100 DUP2 ADD DUP3 MSTORE PUSH1 0x4 DUP7 MUL SWAP1 SWAP3 ADD DUP1 SLOAD DUP4 MSTORE PUSH1 0x1 DUP2 ADD SLOAD SWAP4 DUP4 ADD SWAP4 SWAP1 SWAP4 MSTORE PUSH1 0x2 DUP4 ADD SLOAD PUSH1 0x1 PUSH1 0x1 PUSH1 0xA0 SHL SUB SWAP1 DUP2 AND SWAP2 DUP4 ADD SWAP2 SWAP1 SWAP2 MSTORE PUSH1 0x3 DUP1 DUP5 ADD SLOAD SWAP2 DUP3 AND PUSH1 0x60 DUP5 ADD MSTORE PUSH1 0xFF PUSH1 0x1 PUSH1 0xA0 SHL DUP4 DIV DUP2 AND ISZERO ISZERO PUSH1 0x80 DUP6 ADD MSTORE PUSH1 0x1 PUSH1 0xA8 SHL DUP4 DIV DUP2 AND ISZERO ISZERO PUSH1 0xA0 DUP6 ADD MSTORE SWAP3 SWAP4 SWAP3 PUSH1 0xC0 DUP6 ADD SWAP3 PUSH1 0x1 PUSH1 0xB0 SHL SWAP1 DIV AND SWAP1 DUP2 GT ISZERO PUSH2 0xCA0 JUMPI PUSH2 0xCA0 PUSH2 0x50A8 JUMP JUMPDEST PUSH1 0x3 DUP2 GT ISZERO PUSH2 0xCB1 JUMPI PUSH2 0xCB1 PUSH2 0x50A8 JUMP JUMPDEST DUP2 MSTORE PUSH1 0x3 SWAP2 SWAP1 SWAP2 ADD SLOAD PUSH2 0xFFFF PUSH1 0x1 PUSH1 0xB8 SHL SWAP1 SWAP2 DIV AND PUSH1 0x20 SWAP2 DUP3 ADD MSTORE SWAP1 DUP3 MSTORE PUSH1 0x1 SWAP1 SWAP3 ADD SWAP2 ADD PUSH2 0xC04 JUMP JUMPDEST POP POP POP POP SWAP1 POP PUSH1 0x0 JUMPDEST DUP2 MLOAD DUP2 LT ISZERO PUSH2 0xD36 JUMPI DUP6 DUP3 DUP3 DUP2 MLOAD DUP2 LT PUSH2 0xD00 JUMPI PUSH2 0xD00 PUSH2 0x587D JUMP JUMPDEST PUSH1 0x20 MUL PUSH1 0x20 ADD ADD MLOAD PUSH1 0x0 ADD MLOAD SUB PUSH2 0xD2E JUMPI DUP2 DUP2 DUP2 MLOAD DUP2 LT PUSH2 0xD23 JUMPI PUSH2 0xD23 PUSH2 0x587D JUMP JUMPDEST PUSH1 0x20 MUL PUSH1 0x20 ADD ADD MLOAD SWAP3 POP JUMPDEST PUSH1 0x1 ADD PUSH2 0xCE4 JUMP JUMPDEST POP POP SWAP4 SWAP3 POP POP POP JUMP JUMPDEST PUSH2 0xD47 PUSH2 0x4404 JUMP JUMPDEST PUSH1 0x20 DUP2 ADD CALLDATALOAD PUSH2 0xD5C PUSH1 0x80 DUP4 ADD PUSH1 0x60 DUP5 ADD PUSH2 0x4F7B JUMP JUMPDEST PUSH1 0x40 MLOAD PUSH4 0x6EB1769F PUSH1 0xE1 SHL DUP2 MSTORE CALLER PUSH1 0x4 DUP3 ADD MSTORE ADDRESS PUSH1 0x24 DUP3 ADD MSTORE PUSH1 0x1 PUSH1 0x1 PUSH1 0xA0 SHL SUB SWAP2 SWAP1 SWAP2 AND SWAP1 PUSH4 0xDD62ED3E SWAP1 PUSH1 0x44 ADD PUSH1 0x20 PUSH1 0x40 MLOAD DUP1 DUP4 SUB DUP2 PUSH1 0x0 DUP8 GAS CALL ISZERO DUP1 ISZERO PUSH2 0xDAA JUMPI RETURNDATASIZE PUSH1 0x0 DUP1 RETURNDATACOPY RETURNDATASIZE PUSH1 0x0 REVERT JUMPDEST POP POP POP POP PUSH1 0x40 MLOAD RETURNDATASIZE PUSH1 0x1F NOT PUSH1 0x1F DUP3 ADD AND DUP3 ADD DUP1 PUSH1 0x40 MSTORE POP DUP2 ADD SWAP1 PUSH2 0xDCE SWAP2 SWAP1 PUSH2 0x5893 JUMP JUMPDEST LT ISZERO DUP1 ISZERO PUSH2 0xE5B JUMPI POP PUSH1 0x20 DUP2 ADD CALLDATALOAD PUSH2 0xDEC PUSH1 0x80 DUP4 ADD PUSH1 0x60 DUP5 ADD PUSH2 0x4F7B JUMP JUMPDEST PUSH1 0x40 MLOAD PUSH4 0x70A08231 PUSH1 0xE0 SHL DUP2 MSTORE CALLER PUSH1 0x4 DUP3 ADD MSTORE PUSH1 0x1 PUSH1 0x1 PUSH1 0xA0 SHL SUB SWAP2 SWAP1 SWAP2 AND SWAP1 PUSH4 0x70A08231 SWAP1 PUSH1 0x24 ADD PUSH1 0x20 PUSH1 0x40 MLOAD DUP1 DUP4 SUB DUP2 PUSH1 0x0 DUP8 GAS CALL ISZERO DUP1 ISZERO PUSH2 0xE34 JUMPI RETURNDATASIZE PUSH1 0x0 DUP1 RETURNDATACOPY RETURNDATASIZE PUSH1 0x0 REVERT JUMPDEST POP POP POP POP PUSH1 0x40 MLOAD RETURNDATASIZE PUSH1 0x1F NOT PUSH1 0x1F DUP3 ADD AND DUP3 ADD DUP1 PUSH1 0x40 MSTORE POP DUP2 ADD SWAP1 PUSH2 0xE58 SWAP2 SWAP1 PUSH2 0x5893 JUMP JUMPDEST LT ISZERO JUMPDEST PUSH2 0xE8C JUMPI PUSH1 0x40 MLOAD PUSH3 0x461BCD PUSH1 0xE5 SHL DUP2 MSTORE PUSH1 0x20 PUSH1 0x4 DUP3 ADD MSTORE PUSH1 0x2 PUSH1 0x24 DUP3 ADD MSTORE PUSH2 0x323 PUSH1 0xF4 SHL PUSH1 0x44 DUP3 ADD MSTORE PUSH1 0x64 ADD PUSH2 0x641 JUMP JUMPDEST PUSH2 0xE9C PUSH1 0x60 DUP3 ADD PUSH1 0x40 DUP4 ADD PUSH2 0x4F7B JUMP JUMPDEST PUSH1 0x1 PUSH1 0x1 PUSH1 0xA0 SHL SUB AND CALLER SUB PUSH2 0xED7 JUMPI PUSH1 0x40 MLOAD PUSH3 0x461BCD PUSH1 0xE5 SHL DUP2 MSTORE PUSH1 0x20 PUSH1 0x4 DUP3 ADD MSTORE PUSH1 0x1 PUSH1 0x24 DUP3 ADD MSTORE PUSH1 0x3 PUSH1 0xFC SHL PUSH1 0x44 DUP3 ADD MSTORE PUSH1 0x64 ADD PUSH2 0x641 JUMP JUMPDEST PUSH2 0xF04 DUP2 CALLDATALOAD PUSH2 0xEED PUSH2 0x100 DUP5 ADD PUSH1 0xE0 DUP6 ADD PUSH2 0x58AC JUMP JUMPDEST PUSH2 0xEFD PUSH1 0xE0 DUP6 ADD PUSH1 0xC0 DUP7 ADD PUSH2 0x58C7 JUMP JUMPDEST PUSH1 0x0 PUSH2 0x46D0 JUMP JUMPDEST PUSH2 0xF34 JUMPI PUSH1 0x40 MLOAD PUSH3 0x461BCD PUSH1 0xE5 SHL DUP2 MSTORE PUSH1 0x20 PUSH1 0x4 DUP3 ADD MSTORE PUSH1 0x1 PUSH1 0x24 DUP3 ADD MSTORE PUSH1 0x37 PUSH1 0xF8 SHL PUSH1 0x44 DUP3 ADD MSTORE PUSH1 0x64 ADD PUSH2 0x641 JUMP JUMPDEST DUP1 CALLDATALOAD PUSH1 0x0 DUP2 DUP2 MSTORE PUSH1 0xB PUSH1 0x20 SWAP1 DUP2 MSTORE PUSH1 0x40 DUP1 DUP4 KECCAK256 DUP1 SLOAD PUSH1 0x1 DUP2 ADD DUP3 SSTORE SWAP1 DUP5 MSTORE SWAP3 DUP3 SWAP1 KECCAK256 SWAP1 SWAP3 ADD DUP1 SLOAD PUSH1 0x1 PUSH1 0x1 PUSH1 0xA0 SHL SUB NOT AND CALLER OR SWAP1 SSTORE DUP2 MLOAD PUSH1 0x80 DUP2 ADD SWAP1 SWAP3 MSTORE SWAP2 DUP2 MSTORE PUSH2 0xFC6 SWAP2 DUP2 ADD PUSH2 0xF8C PUSH2 0x100 DUP6 ADD PUSH1 0xE0 DUP7 ADD PUSH2 0x58AC JUMP JUMPDEST PUSH2 0xFFFF AND DUP2 MSTORE PUSH1 0x20 ADD PUSH2 0xFA5 PUSH1 0xE0 DUP6 ADD PUSH1 0xC0 DUP7 ADD PUSH2 0x58C7 JUMP JUMPDEST PUSH1 0x3 DUP2 GT ISZERO PUSH2 0xFB6 JUMPI PUSH2 0xFB6 PUSH2 0x50A8 JUMP JUMPDEST DUP2 MSTORE PUSH1 0x20 ADD PUSH1 0x0 SWAP1 MSTORE PUSH1 0x0 PUSH2 0x4520 JUMP JUMPDEST PUSH1 0x20 DUP2 ADD CALLDATALOAD PUSH1 0x1 DUP1 PUSH2 0xFDE PUSH1 0xE0 DUP6 ADD PUSH1 0xC0 DUP7 ADD PUSH2 0x58C7 JUMP JUMPDEST PUSH1 0x3 DUP2 GT ISZERO PUSH2 0xFEF JUMPI PUSH2 0xFEF PUSH2 0x50A8 JUMP JUMPDEST EQ DUP1 PUSH2 0x101B JUMPI POP PUSH1 0x0 PUSH2 0x1008 PUSH1 0xE0 DUP6 ADD PUSH1 0xC0 DUP7 ADD PUSH2 0x58C7 JUMP JUMPDEST PUSH1 0x3 DUP2 GT ISZERO PUSH2 0x1019 JUMPI PUSH2 0x1019 PUSH2 0x50A8 JUMP JUMPDEST EQ JUMPDEST ISZERO PUSH2 0x1067 JUMPI PUSH2 0x1060 TIMESTAMP PUSH2 0x1035 PUSH2 0x100 DUP7 ADD PUSH1 0xE0 DUP8 ADD PUSH2 0x58AC JUMP JUMPDEST PUSH2 0xFFFF AND DUP5 PUSH2 0x104A PUSH1 0xE0 DUP9 ADD PUSH1 0xC0 DUP10 ADD PUSH2 0x58C7 JUMP JUMPDEST PUSH1 0x3 DUP2 GT ISZERO PUSH2 0x105B JUMPI PUSH2 0x105B PUSH2 0x50A8 JUMP JUMPDEST PUSH2 0x475B JUMP JUMPDEST SWAP2 POP PUSH2 0x110D JUMP JUMPDEST PUSH1 0x2 PUSH2 0x1079 PUSH1 0xE0 DUP6 ADD PUSH1 0xC0 DUP7 ADD PUSH2 0x58C7 JUMP JUMPDEST PUSH1 0x3 DUP2 GT ISZERO PUSH2 0x108A JUMPI PUSH2 0x108A PUSH2 0x50A8 JUMP JUMPDEST SUB PUSH2 0x10BC JUMPI PUSH2 0x10A4 TIMESTAMP PUSH2 0x1035 PUSH2 0x100 DUP7 ADD PUSH1 0xE0 DUP8 ADD PUSH2 0x58AC JUMP JUMPDEST SWAP2 POP PUSH2 0x10B1 PUSH1 0x3 DUP4 PUSH2 0x590E JUMP JUMPDEST SWAP2 POP PUSH1 0x2 SWAP1 POP PUSH2 0x110D JUMP JUMPDEST PUSH1 0x3 PUSH2 0x10CE PUSH1 0xE0 DUP6 ADD PUSH1 0xC0 DUP7 ADD PUSH2 0x58C7 JUMP JUMPDEST PUSH1 0x3 DUP2 GT ISZERO PUSH2 0x10DF JUMPI PUSH2 0x10DF PUSH2 0x50A8 JUMP JUMPDEST SUB PUSH2 0x110D JUMPI PUSH2 0x10F9 TIMESTAMP PUSH2 0x1035 PUSH2 0x100 DUP7 ADD PUSH1 0xE0 DUP8 ADD PUSH2 0x58AC JUMP JUMPDEST SWAP2 POP PUSH2 0x1106 PUSH1 0xC DUP4 PUSH2 0x590E JUMP JUMPDEST SWAP2 POP PUSH1 0xB SWAP1 POP JUMPDEST DUP3 CALLDATALOAD PUSH1 0x0 SWAP1 DUP2 MSTORE PUSH1 0x9 PUSH1 0x20 SWAP1 DUP2 MSTORE PUSH1 0x40 DUP1 DUP4 KECCAK256 CALLER DUP5 MSTORE SWAP1 SWAP2 MSTORE DUP2 KECCAK256 DUP1 SLOAD DUP5 SWAP3 SWAP1 PUSH2 0x1138 SWAP1 DUP5 SWAP1 PUSH2 0x5922 JUMP JUMPDEST SWAP1 SWAP2 SSTORE POP CALLER SWAP1 POP PUSH2 0x114F PUSH1 0x60 DUP6 ADD PUSH1 0x40 DUP7 ADD PUSH2 0x4F7B JUMP JUMPDEST PUSH1 0x1 PUSH1 0x1 PUSH1 0xA0 SHL SUB AND DUP5 CALLDATALOAD PUSH1 0x0 DUP1 MLOAD PUSH1 0x20 PUSH2 0x5B95 DUP4 CODECOPY DUP2 MLOAD SWAP2 MSTORE TIMESTAMP PUSH1 0x20 DUP9 ADD CALLDATALOAD PUSH2 0x117F PUSH1 0x80 DUP11 ADD PUSH1 0x60 DUP12 ADD PUSH2 0x4F7B JUMP JUMPDEST PUSH1 0x6 PUSH1 0x40 MLOAD PUSH2 0x1191 SWAP5 SWAP4 SWAP3 SWAP2 SWAP1 PUSH2 0x584C JUMP JUMPDEST PUSH1 0x40 MLOAD DUP1 SWAP2 SUB SWAP1 LOG4 CALLER PUSH2 0x11AA PUSH1 0x60 DUP6 ADD PUSH1 0x40 DUP7 ADD PUSH2 0x4F7B JUMP JUMPDEST PUSH1 0x1 PUSH1 0x1 PUSH1 0xA0 SHL SUB AND DUP5 CALLDATALOAD PUSH1 0x0 DUP1 MLOAD PUSH1 0x20 PUSH2 0x5B95 DUP4 CODECOPY DUP2 MLOAD SWAP2 MSTORE TIMESTAMP DUP7 PUSH2 0x11D6 PUSH1 0x80 DUP11 ADD PUSH1 0x60 DUP12 ADD PUSH2 0x4F7B JUMP JUMPDEST PUSH1 0x8 PUSH1 0x40 MLOAD PUSH2 0x11E8 SWAP5 SWAP4 SWAP3 SWAP2 SWAP1 PUSH2 0x584C JUMP JUMPDEST PUSH1 0x40 MLOAD DUP1 SWAP2 SUB SWAP1 LOG4 PUSH2 0x1200 PUSH1 0x80 DUP5 ADD PUSH1 0x60 DUP6 ADD PUSH2 0x4F7B JUMP JUMPDEST PUSH1 0x40 MLOAD PUSH4 0x23B872DD PUSH1 0xE0 SHL DUP2 MSTORE CALLER PUSH1 0x4 DUP3 ADD MSTORE ADDRESS PUSH1 0x24 DUP3 ADD MSTORE PUSH1 0x44 DUP2 ADD DUP5 SWAP1 MSTORE PUSH1 0x1 PUSH1 0x1 PUSH1 0xA0 SHL SUB SWAP2 SWAP1 SWAP2 AND SWAP1 PUSH4 0x23B872DD SWAP1 PUSH1 0x64 ADD PUSH1 0x20 PUSH1 0x40 MLOAD DUP1 DUP4 SUB DUP2 PUSH1 0x0 DUP8 GAS CALL ISZERO DUP1 ISZERO PUSH2 0x1255 JUMPI RETURNDATASIZE PUSH1 0x0 DUP1 RETURNDATACOPY RETURNDATASIZE PUSH1 0x0 REVERT JUMPDEST POP POP POP POP PUSH1 0x40 MLOAD RETURNDATASIZE PUSH1 0x1F NOT PUSH1 0x1F DUP3 ADD AND DUP3 ADD DUP1 PUSH1 0x40 MSTORE POP DUP2 ADD SWAP1 PUSH2 0x1279 SWAP2 SWAP1 PUSH2 0x5935 JUMP JUMPDEST PUSH2 0x1282 JUMPI PUSH1 0x0 DUP1 REVERT JUMPDEST PUSH1 0x2 PUSH2 0x1294 PUSH1 0xE0 DUP6 ADD PUSH1 0xC0 DUP7 ADD PUSH2 0x58C7 JUMP JUMPDEST PUSH1 0x3 DUP2 GT ISZERO PUSH2 0x12A5 JUMPI PUSH2 0x12A5 PUSH2 0x50A8 JUMP JUMPDEST EQ DUP1 PUSH2 0x12D1 JUMPI POP PUSH1 0x3 PUSH2 0x12BE PUSH1 0xE0 DUP6 ADD PUSH1 0xC0 DUP7 ADD PUSH2 0x58C7 JUMP JUMPDEST PUSH1 0x3 DUP2 GT ISZERO PUSH2 0x12CF JUMPI PUSH2 0x12CF PUSH2 0x50A8 JUMP JUMPDEST EQ JUMPDEST ISZERO PUSH2 0x1390 JUMPI PUSH2 0x12E6 PUSH1 0x80 DUP5 ADD PUSH1 0x60 DUP6 ADD PUSH2 0x4F7B JUMP JUMPDEST PUSH1 0x1 PUSH1 0x1 PUSH1 0xA0 SHL SUB AND PUSH4 0x23B872DD CALLER PUSH2 0x1305 PUSH1 0x60 DUP8 ADD PUSH1 0x40 DUP9 ADD PUSH2 0x4F7B JUMP JUMPDEST PUSH2 0x130F DUP6 DUP8 PUSH2 0x5952 JUMP JUMPDEST PUSH1 0x40 MLOAD PUSH1 0x1 PUSH1 0x1 PUSH1 0xE0 SHL SUB NOT PUSH1 0xE0 DUP7 SWAP1 SHL AND DUP2 MSTORE PUSH1 0x1 PUSH1 0x1 PUSH1 0xA0 SHL SUB SWAP4 DUP5 AND PUSH1 0x4 DUP3 ADD MSTORE SWAP3 SWAP1 SWAP2 AND PUSH1 0x24 DUP4 ADD MSTORE PUSH1 0x44 DUP3 ADD MSTORE PUSH1 0x64 ADD PUSH1 0x20 PUSH1 0x40 MLOAD DUP1 DUP4 SUB DUP2 PUSH1 0x0 DUP8 GAS CALL ISZERO DUP1 ISZERO PUSH2 0x1363 JUMPI RETURNDATASIZE PUSH1 0x0 DUP1 RETURNDATACOPY RETURNDATASIZE PUSH1 0x0 REVERT JUMPDEST POP POP POP POP PUSH1 0x40 MLOAD RETURNDATASIZE PUSH1 0x1F NOT PUSH1 0x1F DUP3 ADD AND DUP3 ADD DUP1 PUSH1 0x40 MSTORE POP DUP2 ADD SWAP1 PUSH2 0x1387 SWAP2 SWAP1 PUSH2 0x5935 JUMP JUMPDEST PUSH2 0x1390 JUMPI PUSH1 0x0 DUP1 REVERT JUMPDEST POP POP POP JUMP JUMPDEST PUSH2 0x139D PUSH2 0x4404 JUMP JUMPDEST CALLER PUSH1 0x0 SWAP1 DUP2 MSTORE PUSH1 0x7 PUSH1 0x20 MSTORE PUSH1 0x40 DUP2 KECCAK256 PUSH1 0x1 ADD SLOAD PUSH8 0xFFFFFFFFFFFFFFFF DUP2 GT ISZERO PUSH2 0x13C8 JUMPI PUSH2 0x13C8 PUSH2 0x5179 JUMP JUMPDEST PUSH1 0x40 MLOAD SWAP1 DUP1 DUP3 MSTORE DUP1 PUSH1 0x20 MUL PUSH1 0x20 ADD DUP3 ADD PUSH1 0x40 MSTORE DUP1 ISZERO PUSH2 0x1423 JUMPI DUP2 PUSH1 0x20 ADD JUMPDEST PUSH2 0x1410 PUSH1 0x40 DUP1 MLOAD PUSH1 0x80 DUP2 ADD DUP3 MSTORE PUSH1 0x0 DUP1 DUP3 MSTORE PUSH1 0x20 DUP3 ADD DUP2 SWAP1 MSTORE SWAP1 SWAP2 DUP3 ADD SWAP1 DUP2 MSTORE PUSH1 0x20 ADD PUSH1 0x0 SWAP1 MSTORE SWAP1 JUMP JUMPDEST DUP2 MSTORE PUSH1 0x20 ADD SWAP1 PUSH1 0x1 SWAP1 SUB SWAP1 DUP2 PUSH2 0x13E6 JUMPI SWAP1 POP JUMPDEST POP CALLER PUSH1 0x0 SWAP1 DUP2 MSTORE PUSH1 0x7 PUSH1 0x20 SWAP1 DUP2 MSTORE PUSH1 0x40 DUP1 DUP4 KECCAK256 PUSH1 0x1 ADD DUP1 SLOAD DUP3 MLOAD DUP2 DUP6 MUL DUP2 ADD DUP6 ADD SWAP1 SWAP4 MSTORE DUP1 DUP4 MSTORE SWAP5 SWAP6 POP SWAP1 SWAP4 SWAP1 SWAP3 SWAP1 SWAP2 DUP5 ADD JUMPDEST DUP3 DUP3 LT ISZERO PUSH2 0x150C JUMPI PUSH1 0x0 DUP5 DUP2 MSTORE PUSH1 0x20 SWAP1 DUP2 SWAP1 KECCAK256 PUSH1 0x40 DUP1 MLOAD PUSH1 0x80 DUP2 ADD DUP3 MSTORE PUSH1 0x2 DUP7 MUL SWAP1 SWAP3 ADD DUP1 SLOAD DUP4 MSTORE PUSH1 0x1 DUP2 ADD SLOAD PUSH2 0xFFFF DUP2 AND SWAP5 DUP5 ADD SWAP5 SWAP1 SWAP5 MSTORE SWAP2 SWAP3 SWAP1 DUP4 ADD SWAP1 PUSH3 0x10000 SWAP1 DIV PUSH1 0xFF AND PUSH1 0x3 DUP2 GT ISZERO PUSH2 0x14AF JUMPI PUSH2 0x14AF PUSH2 0x50A8 JUMP JUMPDEST PUSH1 0x3 DUP2 GT ISZERO PUSH2 0x14C0 JUMPI PUSH2 0x14C0 PUSH2 0x50A8 JUMP JUMPDEST DUP2 MSTORE PUSH1 0x20 ADD PUSH1 0x1 DUP3 ADD PUSH1 0x3 SWAP1 SLOAD SWAP1 PUSH2 0x100 EXP SWAP1 DIV PUSH1 0xFF AND PUSH1 0x2 DUP2 GT ISZERO PUSH2 0x14E8 JUMPI PUSH2 0x14E8 PUSH2 0x50A8 JUMP JUMPDEST PUSH1 0x2 DUP2 GT ISZERO PUSH2 0x14F9 JUMPI PUSH2 0x14F9 PUSH2 0x50A8 JUMP JUMPDEST DUP2 MSTORE POP POP DUP2 MSTORE PUSH1 0x20 ADD SWAP1 PUSH1 0x1 ADD SWAP1 PUSH2 0x1456 JUMP JUMPDEST POP POP CALLER PUSH1 0x0 SWAP1 DUP2 MSTORE PUSH1 0x7 PUSH1 0x20 MSTORE PUSH1 0x40 DUP2 KECCAK256 PUSH1 0x1 ADD SLOAD SWAP4 SWAP5 POP SWAP2 POP POP JUMPDEST DUP2 DUP2 LT ISZERO PUSH2 0x15C0 JUMPI DUP4 PUSH1 0x0 ADD MLOAD DUP4 DUP3 DUP2 MLOAD DUP2 LT PUSH2 0x1547 JUMPI PUSH2 0x1547 PUSH2 0x587D JUMP JUMPDEST PUSH1 0x20 MUL PUSH1 0x20 ADD ADD MLOAD PUSH1 0x0 ADD MLOAD SUB PUSH2 0x15B8 JUMPI CALLER PUSH1 0x0 SWAP1 DUP2 MSTORE PUSH1 0x7 PUSH1 0x20 MSTORE PUSH1 0x40 SWAP1 KECCAK256 PUSH1 0x1 ADD DUP1 SLOAD PUSH1 0x2 SWAP2 SWAP1 DUP4 SWAP1 DUP2 LT PUSH2 0x1580 JUMPI PUSH2 0x1580 PUSH2 0x587D JUMP JUMPDEST SWAP1 PUSH1 0x0 MSTORE PUSH1 0x20 PUSH1 0x0 KECCAK256 SWAP1 PUSH1 0x2 MUL ADD PUSH1 0x1 ADD PUSH1 0x3 PUSH2 0x100 EXP DUP2 SLOAD DUP2 PUSH1 0xFF MUL NOT AND SWAP1 DUP4 PUSH1 0x2 DUP2 GT ISZERO PUSH2 0x15B2 JUMPI PUSH2 0x15B2 PUSH2 0x50A8 JUMP JUMPDEST MUL OR SWAP1 SSTORE POP JUMPDEST PUSH1 0x1 ADD PUSH2 0x1528 JUMP JUMPDEST POP DUP3 MLOAD PUSH2 0x15CD SWAP1 CALLER PUSH2 0x49A4 JUMP JUMPDEST CALLER PUSH1 0x1 PUSH1 0x1 PUSH1 0xA0 SHL SUB AND DUP4 PUSH1 0x40 ADD MLOAD PUSH1 0x1 PUSH1 0x1 PUSH1 0xA0 SHL SUB AND DUP5 PUSH1 0x0 ADD MLOAD PUSH1 0x0 DUP1 MLOAD PUSH1 0x20 PUSH2 0x5B95 DUP4 CODECOPY DUP2 MLOAD SWAP2 MSTORE TIMESTAMP DUP8 PUSH1 0x20 ADD MLOAD DUP9 PUSH1 0x60 ADD MLOAD PUSH1 0x7 PUSH1 0x40 MLOAD PUSH2 0x1616 SWAP5 SWAP4 SWAP3 SWAP2 SWAP1 PUSH2 0x584C JUMP JUMPDEST PUSH1 0x40 MLOAD DUP1 SWAP2 SUB SWAP1 LOG4 DUP3 MLOAD PUSH1 0x0 SWAP1 DUP2 MSTORE PUSH1 0x9 PUSH1 0x20 DUP2 DUP2 MSTORE PUSH1 0x40 DUP1 DUP5 KECCAK256 CALLER DUP1 DUP7 MSTORE SWAP1 DUP4 MSTORE DUP2 DUP6 KECCAK256 SLOAD DUP9 MLOAD DUP7 MSTORE SWAP4 DUP4 MSTORE DUP2 DUP6 KECCAK256 DUP2 DUP7 MSTORE SWAP1 SWAP3 MSTORE DUP1 DUP5 KECCAK256 SWAP4 SWAP1 SWAP4 SSTORE DUP3 DUP7 ADD MLOAD DUP7 MLOAD PUSH1 0x60 DUP9 ADD MLOAD SWAP5 MLOAD SWAP4 SWAP5 SWAP3 SWAP4 PUSH1 0x1 PUSH1 0x1 PUSH1 0xA0 SHL SUB SWAP1 SWAP3 AND SWAP3 SWAP1 SWAP2 PUSH1 0x0 DUP1 MLOAD PUSH1 0x20 PUSH2 0x5B95 DUP4 CODECOPY DUP2 MLOAD SWAP2 MSTORE SWAP2 PUSH2 0x1692 SWAP2 TIMESTAMP SWAP2 DUP9 SWAP2 PUSH1 0x4 SWAP1 PUSH2 0x584C JUMP JUMPDEST PUSH1 0x40 MLOAD DUP1 SWAP2 SUB SWAP1 LOG4 PUSH1 0x60 DUP5 ADD MLOAD PUSH1 0x40 DUP1 DUP7 ADD MLOAD SWAP1 MLOAD PUSH4 0xA9059CBB PUSH1 0xE0 SHL DUP2 MSTORE PUSH1 0x1 PUSH1 0x1 PUSH1 0xA0 SHL SUB SWAP2 DUP3 AND PUSH1 0x4 DUP3 ADD MSTORE PUSH1 0x24 DUP2 ADD DUP5 SWAP1 MSTORE SWAP2 AND SWAP1 PUSH4 0xA9059CBB SWAP1 PUSH1 0x44 ADD PUSH1 0x20 PUSH1 0x40 MLOAD DUP1 DUP4 SUB DUP2 PUSH1 0x0 DUP8 GAS CALL ISZERO DUP1 ISZERO PUSH2 0x16F3 JUMPI RETURNDATASIZE PUSH1 0x0 DUP1 RETURNDATACOPY RETURNDATASIZE PUSH1 0x0 REVERT JUMPDEST POP POP POP POP PUSH1 0x40 MLOAD RETURNDATASIZE PUSH1 0x1F NOT PUSH1 0x1F DUP3 ADD AND DUP3 ADD DUP1 PUSH1 0x40 MSTORE POP DUP2 ADD SWAP1 PUSH2 0x1717 SWAP2 SWAP1 PUSH2 0x5935 JUMP JUMPDEST PUSH2 0x1748 JUMPI PUSH1 0x40 MLOAD PUSH3 0x461BCD PUSH1 0xE5 SHL DUP2 MSTORE PUSH1 0x20 PUSH1 0x4 DUP3 ADD MSTORE PUSH1 0x2 PUSH1 0x24 DUP3 ADD MSTORE PUSH2 0x3231 PUSH1 0xF0 SHL PUSH1 0x44 DUP3 ADD MSTORE PUSH1 0x64 ADD PUSH2 0x641 JUMP JUMPDEST POP POP POP POP JUMP JUMPDEST PUSH1 0x6 SLOAD PUSH1 0x1 PUSH1 0xD0 SHL SWAP1 DIV PUSH1 0xFF AND PUSH2 0x1767 JUMPI PUSH2 0x1767 PUSH2 0x4389 JUMP JUMPDEST PUSH1 0x6 SLOAD PUSH1 0x1 PUSH1 0xD8 SHL SWAP1 DIV PUSH1 0xFF AND ISZERO PUSH2 0x17AF JUMPI CALLVALUE PUSH1 0x1 SLOAD GT ISZERO PUSH2 0x17AF JUMPI PUSH1 0x40 MLOAD PUSH3 0x461BCD PUSH1 0xE5 SHL DUP2 MSTORE PUSH1 0x20 PUSH1 0x4 DUP3 ADD MSTORE PUSH1 0x1 PUSH1 0x24 DUP3 ADD MSTORE PUSH1 0x35 PUSH1 0xF8 SHL PUSH1 0x44 DUP3 ADD MSTORE PUSH1 0x64 ADD PUSH2 0x641 JUMP JUMPDEST PUSH1 0x0 PUSH2 0x17BA TIMESTAMP PUSH2 0x4AEA JUMP JUMPDEST PUSH1 0x6 SLOAD SWAP1 SWAP2 POP PUSH5 0xFFFFFFFFFF PUSH2 0x100 SWAP1 SWAP2 DIV DUP2 AND SWAP1 DUP3 AND LT ISZERO PUSH2 0x1804 JUMPI PUSH1 0x40 MLOAD PUSH3 0x461BCD PUSH1 0xE5 SHL DUP2 MSTORE PUSH1 0x20 PUSH1 0x4 DUP3 ADD MSTORE PUSH1 0x2 PUSH1 0x24 DUP3 ADD MSTORE PUSH2 0xC4D PUSH1 0xF2 SHL PUSH1 0x44 DUP3 ADD MSTORE PUSH1 0x64 ADD PUSH2 0x641 JUMP JUMPDEST PUSH1 0x40 DUP1 MLOAD PUSH1 0xC0 DUP2 ADD DUP3 MSTORE PUSH1 0x0 DUP1 DUP3 MSTORE PUSH1 0x20 DUP3 ADD DUP2 SWAP1 MSTORE SWAP2 DUP2 ADD DUP3 SWAP1 MSTORE PUSH1 0x60 DUP2 ADD DUP3 SWAP1 MSTORE PUSH1 0x80 DUP2 ADD DUP3 SWAP1 MSTORE PUSH1 0xA0 DUP2 ADD SWAP2 SWAP1 SWAP2 MSTORE PUSH1 0x1 SWAP1 PUSH1 0x6 SLOAD PUSH5 0xFFFFFFFFFF DUP5 DUP2 AND PUSH2 0x100 SWAP1 SWAP3 DIV AND EQ PUSH2 0x1884 JUMPI PUSH1 0x6 SLOAD PUSH2 0x187D SWAP1 PUSH2 0x1871 SWAP1 PUSH2 0x100 SWAP1 DIV PUSH5 0xFFFFFFFFFF AND PUSH3 0x15180 PUSH2 0x5969 JUMP JUMPDEST PUSH5 0xFFFFFFFFFF AND PUSH2 0x4AF9 JUMP JUMPDEST SWAP1 POP PUSH2 0x1890 JUMP JUMPDEST PUSH2 0x188D TIMESTAMP PUSH2 0x4AF9 JUMP JUMPDEST SWAP1 POP JUMPDEST PUSH1 0x0 DUP1 JUMPDEST PUSH1 0x3 DUP2 GT PUSH2 0x2464 JUMPI PUSH1 0x0 DUP2 PUSH2 0x18AA JUMPI POP PUSH1 0x20 DUP4 ADD MLOAD JUMPDEST PUSH1 0x1 DUP3 SUB PUSH2 0x18B6 JUMPI POP DUP3 MLOAD JUMPDEST PUSH1 0x2 DUP3 SUB PUSH2 0x18C5 JUMPI POP PUSH1 0x40 DUP4 ADD MLOAD JUMPDEST PUSH1 0x3 DUP3 SUB PUSH2 0x18D4 JUMPI POP PUSH1 0x60 DUP4 ADD MLOAD JUMPDEST PUSH1 0x0 DUP3 DUP2 MSTORE PUSH1 0xA PUSH1 0x20 SWAP1 DUP2 MSTORE PUSH1 0x40 DUP1 DUP4 KECCAK256 PUSH2 0xFFFF DUP6 AND DUP5 MSTORE SWAP1 SWAP2 MSTORE DUP2 KECCAK256 SLOAD SWAP1 JUMPDEST DUP2 DUP2 LT ISZERO PUSH2 0x244E JUMPI PUSH1 0x0 DUP5 DUP2 MSTORE PUSH1 0xA PUSH1 0x20 SWAP1 DUP2 MSTORE PUSH1 0x40 DUP1 DUP4 KECCAK256 PUSH2 0xFFFF DUP8 AND DUP5 MSTORE SWAP1 SWAP2 MSTORE DUP2 KECCAK256 DUP1 SLOAD SWAP2 SWAP9 POP SWAP1 DUP3 SWAP1 DUP2 LT PUSH2 0x192F JUMPI PUSH2 0x192F PUSH2 0x587D JUMP JUMPDEST SWAP1 PUSH1 0x0 MSTORE PUSH1 0x20 PUSH1 0x0 KECCAK256 SWAP1 PUSH1 0x4 MUL ADD PUSH1 0x3 ADD PUSH1 0x15 SWAP1 SLOAD SWAP1 PUSH2 0x100 EXP SWAP1 DIV PUSH1 0xFF AND PUSH2 0x2446 JUMPI PUSH1 0x0 DUP5 DUP2 MSTORE PUSH1 0xA PUSH1 0x20 SWAP1 DUP2 MSTORE PUSH1 0x40 DUP1 DUP4 KECCAK256 PUSH2 0xFFFF DUP8 AND DUP5 MSTORE SWAP1 SWAP2 MSTORE DUP2 KECCAK256 DUP1 SLOAD DUP4 SWAP1 DUP2 LT PUSH2 0x1981 JUMPI PUSH2 0x1981 PUSH2 0x587D JUMP JUMPDEST PUSH1 0x0 SWAP2 DUP3 MSTORE PUSH1 0x20 DUP1 DUP4 KECCAK256 PUSH1 0x4 SWAP1 SWAP3 MUL SWAP1 SWAP2 ADD SLOAD DUP8 DUP4 MSTORE PUSH1 0xA DUP3 MSTORE PUSH1 0x40 DUP1 DUP5 KECCAK256 PUSH2 0xFFFF DUP10 AND DUP6 MSTORE SWAP1 SWAP3 MSTORE SWAP1 DUP3 KECCAK256 DUP1 SLOAD SWAP2 SWAP4 POP SWAP1 DUP5 SWAP1 DUP2 LT PUSH2 0x19C3 JUMPI PUSH2 0x19C3 PUSH2 0x587D JUMP JUMPDEST PUSH1 0x0 SWAP2 DUP3 MSTORE PUSH1 0x20 DUP1 DUP4 KECCAK256 PUSH1 0x3 PUSH1 0x4 SWAP1 SWAP4 MUL ADD SWAP2 SWAP1 SWAP2 ADD SLOAD DUP9 DUP4 MSTORE PUSH1 0xA DUP3 MSTORE PUSH1 0x40 DUP1 DUP5 KECCAK256 PUSH2 0xFFFF DUP11 AND DUP6 MSTORE SWAP1 SWAP3 MSTORE SWAP1 DUP3 KECCAK256 DUP1 SLOAD PUSH1 0x1 PUSH1 0x1 PUSH1 0xA0 SHL SUB SWAP1 SWAP3 AND SWAP4 POP SWAP1 DUP6 SWAP1 DUP2 LT PUSH2 0x1A13 JUMPI PUSH2 0x1A13 PUSH2 0x587D JUMP JUMPDEST PUSH1 0x0 SWAP2 DUP3 MSTORE PUSH1 0x20 DUP1 DUP4 KECCAK256 PUSH1 0x1 PUSH1 0x4 SWAP1 SWAP4 MUL ADD SWAP2 SWAP1 SWAP2 ADD SLOAD DUP10 DUP4 MSTORE PUSH1 0xA DUP3 MSTORE PUSH1 0x40 DUP1 DUP5 KECCAK256 PUSH2 0xFFFF DUP12 AND DUP6 MSTORE SWAP1 SWAP3 MSTORE SWAP1 DUP3 KECCAK256 DUP1 SLOAD SWAP2 SWAP4 POP SWAP1 DUP7 SWAP1 DUP2 LT PUSH2 0x1A59 JUMPI PUSH2 0x1A59 PUSH2 0x587D JUMP JUMPDEST PUSH1 0x0 SWAP2 DUP3 MSTORE PUSH1 0x20 DUP3 KECCAK256 PUSH1 0x2 PUSH1 0x4 SWAP1 SWAP3 MUL ADD ADD SLOAD DUP2 SLOAD PUSH1 0x1 PUSH1 0x1 PUSH1 0xA0 SHL SUB SWAP1 SWAP2 AND SWAP3 POP DUP4 SWAP1 PUSH2 0x2710 SWAP1 PUSH2 0x1A8B SWAP1 DUP4 PUSH2 0x5952 JUMP JUMPDEST PUSH2 0x1A95 SWAP2 SWAP1 PUSH2 0x590E JUMP JUMPDEST PUSH2 0x1A9F SWAP2 SWAP1 PUSH2 0x5989 JUMP JUMPDEST PUSH1 0x0 DUP7 DUP2 MSTORE PUSH1 0xB PUSH1 0x20 MSTORE PUSH1 0x40 DUP2 KECCAK256 SLOAD SWAP2 SWAP3 POP SWAP1 DUP2 DUP2 ISZERO PUSH2 0x1AC7 JUMPI PUSH2 0x1AC4 PUSH1 0x1 DUP4 PUSH2 0x5989 JUMP JUMPDEST SWAP1 POP JUMPDEST PUSH1 0x0 JUMPDEST DUP3 DUP2 LT ISZERO PUSH2 0x243C JUMPI PUSH1 0x2 SLOAD DUP15 SUB PUSH2 0x1C0D JUMPI PUSH1 0x40 DUP1 MLOAD DUP1 DUP3 ADD DUP3 MSTORE DUP11 DUP2 MSTORE PUSH1 0x20 ADD DUP3 SWAP1 MSTORE PUSH1 0x3 DUP11 SWAP1 SSTORE PUSH1 0x4 DUP3 DUP2 SSTORE PUSH1 0x6 DUP1 SLOAD PUSH1 0xFF NOT AND SWAP1 SSTORE SWAP1 MLOAD PUSH4 0xA9059CBB PUSH1 0xE0 SHL DUP2 MSTORE CALLER SWAP2 DUP2 ADD SWAP2 SWAP1 SWAP2 MSTORE PUSH1 0x24 DUP2 ADD DUP6 SWAP1 MSTORE PUSH1 0x1 PUSH1 0x1 PUSH1 0xA0 SHL SUB DUP10 AND SWAP1 PUSH4 0xA9059CBB SWAP1 PUSH1 0x44 ADD PUSH1 0x20 PUSH1 0x40 MLOAD DUP1 DUP4 SUB DUP2 PUSH1 0x0 DUP8 GAS CALL ISZERO DUP1 ISZERO PUSH2 0x1B4F JUMPI RETURNDATASIZE PUSH1 0x0 DUP1 RETURNDATACOPY RETURNDATASIZE PUSH1 0x0 REVERT JUMPDEST POP POP POP POP PUSH1 0x40 MLOAD RETURNDATASIZE PUSH1 0x1F NOT PUSH1 0x1F DUP3 ADD AND DUP3 ADD DUP1 PUSH1 0x40 MSTORE POP DUP2 ADD SWAP1 PUSH2 0x1B73 SWAP2 SWAP1 PUSH2 0x5935 JUMP JUMPDEST PUSH2 0x1BA4 JUMPI PUSH1 0x40 MLOAD PUSH3 0x461BCD PUSH1 0xE5 SHL DUP2 MSTORE PUSH1 0x20 PUSH1 0x4 DUP3 ADD MSTORE PUSH1 0x2 PUSH1 0x24 DUP3 ADD MSTORE PUSH2 0x1919 PUSH1 0xF1 SHL PUSH1 0x44 DUP3 ADD MSTORE PUSH1 0x64 ADD PUSH2 0x641 JUMP JUMPDEST PUSH1 0x6 SLOAD PUSH1 0x40 DUP1 MLOAD PUSH5 0xFFFFFFFFFF TIMESTAMP DUP2 AND DUP3 MSTORE PUSH2 0x100 SWAP1 SWAP4 DIV SWAP3 SWAP1 SWAP3 AND PUSH1 0x20 DUP4 ADD MSTORE PUSH1 0x0 SWAP1 DUP3 ADD MSTORE CALLER SWAP1 PUSH32 0x90192D7875364A53E351AE63FD2DFEF8DC941735B29FB0C504D06A0E21AE602E SWAP1 PUSH1 0x60 ADD PUSH1 0x40 MLOAD DUP1 SWAP2 SUB SWAP1 LOG2 POP POP POP POP POP POP POP POP POP POP POP POP POP POP POP POP POP JUMP JUMPDEST PUSH1 0x3 SLOAD DUP10 EQ DUP1 ISZERO PUSH2 0x1C1F JUMPI POP PUSH1 0x4 SLOAD DUP2 EQ JUMPDEST ISZERO PUSH2 0x1C32 JUMPI PUSH1 0x6 DUP1 SLOAD PUSH1 0xFF NOT AND PUSH1 0x1 OR SWAP1 SSTORE JUMPDEST PUSH1 0x3 SLOAD ISZERO DUP1 PUSH2 0x1C48 JUMPI POP PUSH1 0x6 SLOAD PUSH1 0xFF AND ISZERO ISZERO PUSH1 0x1 EQ JUMPDEST ISZERO PUSH2 0x2434 JUMPI PUSH1 0x0 DUP10 DUP2 MSTORE PUSH1 0xB PUSH1 0x20 MSTORE PUSH1 0x40 DUP2 KECCAK256 DUP1 SLOAD DUP4 SWAP1 DUP2 LT PUSH2 0x1C6D JUMPI PUSH2 0x1C6D PUSH2 0x587D JUMP JUMPDEST PUSH1 0x0 SWAP2 DUP3 MSTORE PUSH1 0x20 SWAP1 SWAP2 KECCAK256 ADD SLOAD PUSH1 0x40 MLOAD PUSH4 0x6EB1769F PUSH1 0xE1 SHL DUP2 MSTORE PUSH1 0x1 PUSH1 0x1 PUSH1 0xA0 SHL SUB SWAP2 DUP3 AND PUSH1 0x4 DUP3 ADD DUP2 SWAP1 MSTORE ADDRESS PUSH1 0x24 DUP4 ADD MSTORE SWAP3 POP DUP10 SWAP2 DUP12 AND SWAP1 PUSH4 0xDD62ED3E SWAP1 PUSH1 0x44 ADD PUSH1 0x20 PUSH1 0x40 MLOAD DUP1 DUP4 SUB DUP2 PUSH1 0x0 DUP8 GAS CALL ISZERO DUP1 ISZERO PUSH2 0x1CCD JUMPI RETURNDATASIZE PUSH1 0x0 DUP1 RETURNDATACOPY RETURNDATASIZE PUSH1 0x0 REVERT JUMPDEST POP POP POP POP PUSH1 0x40 MLOAD RETURNDATASIZE PUSH1 0x1F NOT PUSH1 0x1F DUP3 ADD AND DUP3 ADD DUP1 PUSH1 0x40 MSTORE POP DUP2 ADD SWAP1 PUSH2 0x1CF1 SWAP2 SWAP1 PUSH2 0x5893 JUMP JUMPDEST LT ISZERO DUP1 ISZERO PUSH2 0x1D6B JUMPI POP PUSH1 0x40 MLOAD PUSH4 0x70A08231 PUSH1 0xE0 SHL DUP2 MSTORE PUSH1 0x1 PUSH1 0x1 PUSH1 0xA0 SHL SUB DUP3 DUP2 AND PUSH1 0x4 DUP4 ADD MSTORE DUP10 SWAP2 SWAP1 DUP12 AND SWAP1 PUSH4 0x70A08231 SWAP1 PUSH1 0x24 ADD PUSH1 0x20 PUSH1 0x40 MLOAD DUP1 DUP4 SUB DUP2 PUSH1 0x0 DUP8 GAS CALL ISZERO DUP1 ISZERO PUSH2 0x1D45 JUMPI RETURNDATASIZE PUSH1 0x0 DUP1 RETURNDATACOPY RETURNDATASIZE PUSH1 0x0 REVERT JUMPDEST POP POP POP POP PUSH1 0x40 MLOAD RETURNDATASIZE PUSH1 0x1F NOT PUSH1 0x1F DUP3 ADD AND DUP3 ADD DUP1 PUSH1 0x40 MSTORE POP DUP2 ADD SWAP1 PUSH2 0x1D69 SWAP2 SWAP1 PUSH2 0x5893 JUMP JUMPDEST GT JUMPDEST ISZERO PUSH2 0x216C JUMPI DUP15 PUSH2 0x1D7A DUP2 PUSH2 0x599C JUMP JUMPDEST SWAP16 POP POP DUP6 PUSH1 0x9 PUSH1 0x0 DUP13 DUP2 MSTORE PUSH1 0x20 ADD SWAP1 DUP2 MSTORE PUSH1 0x20 ADD PUSH1 0x0 KECCAK256 PUSH1 0x0 DUP4 PUSH1 0x1 PUSH1 0x1 PUSH1 0xA0 SHL SUB AND PUSH1 0x1 PUSH1 0x1 PUSH1 0xA0 SHL SUB AND DUP2 MSTORE PUSH1 0x20 ADD SWAP1 DUP2 MSTORE PUSH1 0x20 ADD PUSH1 0x0 KECCAK256 SLOAD GT ISZERO PUSH2 0x1F0F JUMPI PUSH2 0x1DC5 DUP7 DUP7 PUSH2 0x5922 JUMP JUMPDEST PUSH1 0x0 DUP12 DUP2 MSTORE PUSH1 0x9 PUSH1 0x20 SWAP1 DUP2 MSTORE PUSH1 0x40 DUP1 DUP4 KECCAK256 PUSH1 0x1 PUSH1 0x1 PUSH1 0xA0 SHL SUB DUP7 AND DUP5 MSTORE SWAP1 SWAP2 MSTORE DUP2 KECCAK256 DUP1 SLOAD SWAP3 SWAP8 POP DUP9 SWAP3 SWAP1 SWAP2 SWAP1 PUSH2 0x1DFC SWAP1 DUP5 SWAP1 PUSH2 0x5989 JUMP JUMPDEST SWAP3 POP POP DUP2 SWAP1 SSTORE POP DUP1 PUSH1 0x1 PUSH1 0x1 PUSH1 0xA0 SHL SUB AND DUP8 PUSH1 0x1 PUSH1 0x1 PUSH1 0xA0 SHL SUB AND DUP12 PUSH1 0x0 DUP1 MLOAD PUSH1 0x20 PUSH2 0x5B95 DUP4 CODECOPY DUP2 MLOAD SWAP2 MSTORE TIMESTAMP DUP13 DUP15 PUSH1 0x5 PUSH1 0x40 MLOAD PUSH2 0x1E3C SWAP5 SWAP4 SWAP3 SWAP2 SWAP1 PUSH2 0x584C JUMP JUMPDEST PUSH1 0x40 MLOAD DUP1 SWAP2 SUB SWAP1 LOG4 DUP1 PUSH1 0x1 PUSH1 0x1 PUSH1 0xA0 SHL SUB AND DUP8 PUSH1 0x1 PUSH1 0x1 PUSH1 0xA0 SHL SUB AND DUP12 PUSH1 0x0 DUP1 MLOAD PUSH1 0x20 PUSH2 0x5B95 DUP4 CODECOPY DUP2 MLOAD SWAP2 MSTORE TIMESTAMP PUSH1 0x0 DUP15 PUSH1 0x2 PUSH1 0x40 MLOAD PUSH2 0x1E7E SWAP5 SWAP4 SWAP3 SWAP2 SWAP1 PUSH2 0x584C JUMP JUMPDEST PUSH1 0x40 MLOAD DUP1 SWAP2 SUB SWAP1 LOG4 PUSH1 0x40 MLOAD PUSH4 0x23B872DD PUSH1 0xE0 SHL DUP2 MSTORE PUSH1 0x1 PUSH1 0x1 PUSH1 0xA0 SHL SUB DUP3 DUP2 AND PUSH1 0x4 DUP4 ADD MSTORE DUP9 DUP2 AND PUSH1 0x24 DUP4 ADD MSTORE PUSH1 0x44 DUP3 ADD DUP11 SWAP1 MSTORE DUP11 AND SWAP1 PUSH4 0x23B872DD SWAP1 PUSH1 0x64 ADD PUSH1 0x20 PUSH1 0x40 MLOAD DUP1 DUP4 SUB DUP2 PUSH1 0x0 DUP8 GAS CALL ISZERO DUP1 ISZERO PUSH2 0x1EDD JUMPI RETURNDATASIZE PUSH1 0x0 DUP1 RETURNDATACOPY RETURNDATASIZE PUSH1 0x0 REVERT JUMPDEST POP POP POP POP PUSH1 0x40 MLOAD RETURNDATASIZE PUSH1 0x1F NOT PUSH1 0x1F DUP3 ADD AND DUP3 ADD DUP1 PUSH1 0x40 MSTORE POP DUP2 ADD SWAP1 PUSH2 0x1F01 SWAP2 SWAP1 PUSH2 0x5935 JUMP JUMPDEST PUSH2 0x1F0A JUMPI PUSH1 0x0 DUP1 REVERT JUMPDEST PUSH2 0x237C JUMP JUMPDEST PUSH1 0x0 DUP11 DUP2 MSTORE PUSH1 0x9 PUSH1 0x20 SWAP1 DUP2 MSTORE PUSH1 0x40 DUP1 DUP4 KECCAK256 PUSH1 0x1 PUSH1 0x1 PUSH1 0xA0 SHL SUB DUP6 AND DUP5 MSTORE SWAP1 SWAP2 MSTORE SWAP1 KECCAK256 SLOAD PUSH2 0x1F3C SWAP1 DUP7 PUSH2 0x5922 JUMP JUMPDEST SWAP5 POP PUSH1 0x9 PUSH1 0x0 DUP12 DUP2 MSTORE PUSH1 0x20 ADD SWAP1 DUP2 MSTORE PUSH1 0x20 ADD PUSH1 0x0 KECCAK256 PUSH1 0x0 DUP3 PUSH1 0x1 PUSH1 0x1 PUSH1 0xA0 SHL SUB AND PUSH1 0x1 PUSH1 0x1 PUSH1 0xA0 SHL SUB AND DUP2 MSTORE PUSH1 0x20 ADD SWAP1 DUP2 MSTORE PUSH1 0x20 ADD PUSH1 0x0 KECCAK256 PUSH1 0x0 SWAP1 SSTORE DUP1 PUSH1 0x1 PUSH1 0x1 PUSH1 0xA0 SHL SUB AND DUP8 PUSH1 0x1 PUSH1 0x1 PUSH1 0xA0 SHL SUB AND DUP12 PUSH1 0x0 DUP1 MLOAD PUSH1 0x20 PUSH2 0x5B95 DUP4 CODECOPY DUP2 MLOAD SWAP2 MSTORE TIMESTAMP DUP13 DUP15 PUSH1 0x8 PUSH1 0x40 MLOAD PUSH2 0x1FB1 SWAP5 SWAP4 SWAP3 SWAP2 SWAP1 PUSH2 0x584C JUMP JUMPDEST PUSH1 0x40 MLOAD DUP1 SWAP2 SUB SWAP1 LOG4 PUSH1 0x0 DUP9 SWAP1 POP PUSH1 0x0 PUSH1 0x1 SWAP1 POP DUP16 PUSH1 0x2 SUB PUSH2 0x1FE2 JUMPI PUSH2 0x1FD7 PUSH1 0x3 DUP4 PUSH2 0x590E JUMP JUMPDEST SWAP2 POP PUSH1 0x2 SWAP1 POP PUSH2 0x1FFC JUMP JUMPDEST DUP16 PUSH1 0x3 SUB PUSH2 0x1FFC JUMPI PUSH2 0x1FF5 PUSH1 0xC DUP4 PUSH2 0x590E JUMP JUMPDEST SWAP2 POP PUSH1 0xB SWAP1 POP JUMPDEST PUSH1 0x0 DUP13 DUP2 MSTORE PUSH1 0x9 PUSH1 0x20 SWAP1 DUP2 MSTORE PUSH1 0x40 DUP1 DUP4 KECCAK256 PUSH1 0x1 PUSH1 0x1 PUSH1 0xA0 SHL SUB DUP8 AND DUP5 MSTORE SWAP1 SWAP2 MSTORE DUP2 KECCAK256 DUP1 SLOAD DUP5 SWAP3 SWAP1 PUSH2 0x202E SWAP1 DUP5 SWAP1 PUSH2 0x5922 JUMP JUMPDEST SWAP1 SWAP2 SSTORE POP POP PUSH1 0x40 MLOAD PUSH4 0x23B872DD PUSH1 0xE0 SHL DUP2 MSTORE PUSH1 0x1 PUSH1 0x1 PUSH1 0xA0 SHL SUB DUP5 DUP2 AND PUSH1 0x4 DUP4 ADD MSTORE ADDRESS PUSH1 0x24 DUP4 ADD MSTORE PUSH1 0x44 DUP3 ADD DUP5 SWAP1 MSTORE DUP13 AND SWAP1 PUSH4 0x23B872DD SWAP1 PUSH1 0x64 ADD PUSH1 0x20 PUSH1 0x40 MLOAD DUP1 DUP4 SUB DUP2 PUSH1 0x0 DUP8 GAS CALL ISZERO DUP1 ISZERO PUSH2 0x2088 JUMPI RETURNDATASIZE PUSH1 0x0 DUP1 RETURNDATACOPY RETURNDATASIZE PUSH1 0x0 REVERT JUMPDEST POP POP POP POP PUSH1 0x40 MLOAD RETURNDATASIZE PUSH1 0x1F NOT PUSH1 0x1F DUP3 ADD AND DUP3 ADD DUP1 PUSH1 0x40 MSTORE POP DUP2 ADD SWAP1 PUSH2 0x20AC SWAP2 SWAP1 PUSH2 0x5935 JUMP JUMPDEST PUSH2 0x20B5 JUMPI PUSH1 0x0 DUP1 REVERT JUMPDEST DUP16 PUSH1 0x2 EQ DUP1 PUSH2 0x20C4 JUMPI POP DUP16 PUSH1 0x3 EQ JUMPDEST ISZERO PUSH2 0x2165 JUMPI PUSH1 0x1 PUSH1 0x1 PUSH1 0xA0 SHL SUB DUP12 AND PUSH4 0x23B872DD DUP5 DUP12 PUSH2 0x20E4 DUP6 DUP8 PUSH2 0x5952 JUMP JUMPDEST PUSH1 0x40 MLOAD PUSH1 0x1 PUSH1 0x1 PUSH1 0xE0 SHL SUB NOT PUSH1 0xE0 DUP7 SWAP1 SHL AND DUP2 MSTORE PUSH1 0x1 PUSH1 0x1 PUSH1 0xA0 SHL SUB SWAP4 DUP5 AND PUSH1 0x4 DUP3 ADD MSTORE SWAP3 SWAP1 SWAP2 AND PUSH1 0x24 DUP4 ADD MSTORE PUSH1 0x44 DUP3 ADD MSTORE PUSH1 0x64 ADD PUSH1 0x20 PUSH1 0x40 MLOAD DUP1 DUP4 SUB DUP2 PUSH1 0x0 DUP8 GAS CALL ISZERO DUP1 ISZERO PUSH2 0x2138 JUMPI RETURNDATASIZE PUSH1 0x0 DUP1 RETURNDATACOPY RETURNDATASIZE PUSH1 0x0 REVERT JUMPDEST POP POP POP POP PUSH1 0x40 MLOAD RETURNDATASIZE PUSH1 0x1F NOT PUSH1 0x1F DUP3 ADD AND DUP3 ADD DUP1 PUSH1 0x40 MSTORE POP DUP2 ADD SWAP1 PUSH2 0x215C SWAP2 SWAP1 PUSH2 0x5935 JUMP JUMPDEST PUSH2 0x2165 JUMPI PUSH1 0x0 DUP1 REVERT JUMPDEST POP POP PUSH2 0x237C JUMP JUMPDEST DUP15 PUSH2 0x2176 DUP2 PUSH2 0x599C JUMP JUMPDEST SWAP16 POP POP DUP6 PUSH1 0x9 PUSH1 0x0 DUP13 DUP2 MSTORE PUSH1 0x20 ADD SWAP1 DUP2 MSTORE PUSH1 0x20 ADD PUSH1 0x0 KECCAK256 PUSH1 0x0 DUP4 PUSH1 0x1 PUSH1 0x1 PUSH1 0xA0 SHL SUB AND PUSH1 0x1 PUSH1 0x1 PUSH1 0xA0 SHL SUB AND DUP2 MSTORE PUSH1 0x20 ADD SWAP1 DUP2 MSTORE PUSH1 0x20 ADD PUSH1 0x0 KECCAK256 SLOAD GT ISZERO PUSH2 0x22EE JUMPI PUSH2 0x21C1 DUP7 DUP7 PUSH2 0x5922 JUMP JUMPDEST PUSH1 0x0 DUP12 DUP2 MSTORE PUSH1 0x9 PUSH1 0x20 SWAP1 DUP2 MSTORE PUSH1 0x40 DUP1 DUP4 KECCAK256 PUSH1 0x1 PUSH1 0x1 PUSH1 0xA0 SHL SUB DUP7 AND DUP5 MSTORE SWAP1 SWAP2 MSTORE DUP2 KECCAK256 SLOAD SWAP2 SWAP7 POP SWAP1 PUSH2 0x21F3 SWAP1 DUP9 SWAP1 PUSH2 0x5989 JUMP JUMPDEST SWAP1 POP PUSH1 0x9 PUSH1 0x0 DUP13 DUP2 MSTORE PUSH1 0x20 ADD SWAP1 DUP2 MSTORE PUSH1 0x20 ADD PUSH1 0x0 KECCAK256 PUSH1 0x0 DUP4 PUSH1 0x1 PUSH1 0x1 PUSH1 0xA0 SHL SUB AND PUSH1 0x1 PUSH1 0x1 PUSH1 0xA0 SHL SUB AND DUP2 MSTORE PUSH1 0x20 ADD SWAP1 DUP2 MSTORE PUSH1 0x20 ADD PUSH1 0x0 KECCAK256 PUSH1 0x0 SWAP1 SSTORE DUP2 PUSH1 0x1 PUSH1 0x1 PUSH1 0xA0 SHL SUB AND DUP9 PUSH1 0x1 PUSH1 0x1 PUSH1 0xA0 SHL SUB AND DUP13 PUSH1 0x0 DUP1 MLOAD PUSH1 0x20 PUSH2 0x5B95 DUP4 CODECOPY DUP2 MLOAD SWAP2 MSTORE TIMESTAMP DUP6 DUP16 PUSH1 0x4 PUSH1 0x40 MLOAD PUSH2 0x2268 SWAP5 SWAP4 SWAP3 SWAP2 SWAP1 PUSH2 0x584C JUMP JUMPDEST PUSH1 0x40 MLOAD DUP1 SWAP2 SUB SWAP1 LOG4 PUSH1 0x40 MLOAD PUSH4 0xA9059CBB PUSH1 0xE0 SHL DUP2 MSTORE PUSH1 0x1 PUSH1 0x1 PUSH1 0xA0 SHL SUB DUP10 DUP2 AND PUSH1 0x4 DUP4 ADD MSTORE PUSH1 0x24 DUP3 ADD DUP4 SWAP1 MSTORE DUP12 AND SWAP1 PUSH4 0xA9059CBB SWAP1 PUSH1 0x44 ADD PUSH1 0x20 PUSH1 0x40 MLOAD DUP1 DUP4 SUB DUP2 PUSH1 0x0 DUP8 GAS CALL ISZERO DUP1 ISZERO PUSH2 0x22BF JUMPI RETURNDATASIZE PUSH1 0x0 DUP1 RETURNDATACOPY RETURNDATASIZE PUSH1 0x0 REVERT JUMPDEST POP POP POP POP PUSH1 0x40 MLOAD RETURNDATASIZE PUSH1 0x1F NOT PUSH1 0x1F DUP3 ADD AND DUP3 ADD DUP1 PUSH1 0x40 MSTORE POP DUP2 ADD SWAP1 PUSH2 0x22E3 SWAP2 SWAP1 PUSH2 0x5935 JUMP JUMPDEST PUSH2 0x22EC JUMPI PUSH1 0x0 DUP1 REVERT JUMPDEST POP JUMPDEST PUSH2 0x22F8 DUP11 DUP3 PUSH2 0x49A4 JUMP JUMPDEST DUP1 PUSH1 0x1 PUSH1 0x1 PUSH1 0xA0 SHL SUB AND DUP8 PUSH1 0x1 PUSH1 0x1 PUSH1 0xA0 SHL SUB AND DUP12 PUSH1 0x0 DUP1 MLOAD PUSH1 0x20 PUSH2 0x5B95 DUP4 CODECOPY DUP2 MLOAD SWAP2 MSTORE TIMESTAMP DUP13 DUP15 PUSH1 0x7 PUSH1 0x40 MLOAD PUSH2 0x2331 SWAP5 SWAP4 SWAP3 SWAP2 SWAP1 PUSH2 0x584C JUMP JUMPDEST PUSH1 0x40 MLOAD DUP1 SWAP2 SUB SWAP1 LOG4 DUP1 PUSH1 0x1 PUSH1 0x1 PUSH1 0xA0 SHL SUB AND DUP8 PUSH1 0x1 PUSH1 0x1 PUSH1 0xA0 SHL SUB AND DUP12 PUSH1 0x0 DUP1 MLOAD PUSH1 0x20 PUSH2 0x5B95 DUP4 CODECOPY DUP2 MLOAD SWAP2 MSTORE TIMESTAMP PUSH1 0x0 DUP15 PUSH1 0x3 PUSH1 0x40 MLOAD PUSH2 0x2373 SWAP5 SWAP4 SWAP3 SWAP2 SWAP1 PUSH2 0x584C JUMP JUMPDEST PUSH1 0x40 MLOAD DUP1 SWAP2 SUB SWAP1 LOG4 JUMPDEST DUP3 DUP3 EQ DUP1 ISZERO PUSH2 0x238B JUMPI POP PUSH1 0x0 DUP5 GT JUMPDEST ISZERO PUSH2 0x2432 JUMPI PUSH1 0x40 MLOAD PUSH4 0xA9059CBB PUSH1 0xE0 SHL DUP2 MSTORE CALLER PUSH1 0x4 DUP3 ADD MSTORE PUSH1 0x24 DUP2 ADD DUP7 SWAP1 MSTORE PUSH1 0x1 PUSH1 0x1 PUSH1 0xA0 SHL SUB DUP11 AND SWAP1 PUSH4 0xA9059CBB SWAP1 PUSH1 0x44 ADD PUSH1 0x20 PUSH1 0x40 MLOAD DUP1 DUP4 SUB DUP2 PUSH1 0x0 DUP8 GAS CALL ISZERO DUP1 ISZERO PUSH2 0x23DD JUMPI RETURNDATASIZE PUSH1 0x0 DUP1 RETURNDATACOPY RETURNDATASIZE PUSH1 0x0 REVERT JUMPDEST POP POP POP POP PUSH1 0x40 MLOAD RETURNDATASIZE PUSH1 0x1F NOT PUSH1 0x1F DUP3 ADD AND DUP3 ADD DUP1 PUSH1 0x40 MSTORE POP DUP2 ADD SWAP1 PUSH2 0x2401 SWAP2 SWAP1 PUSH2 0x5935 JUMP JUMPDEST PUSH2 0x2432 JUMPI PUSH1 0x40 MLOAD PUSH3 0x461BCD PUSH1 0xE5 SHL DUP2 MSTORE PUSH1 0x20 PUSH1 0x4 DUP3 ADD MSTORE PUSH1 0x2 PUSH1 0x24 DUP3 ADD MSTORE PUSH2 0x1919 PUSH1 0xF1 SHL PUSH1 0x44 DUP3 ADD MSTORE PUSH1 0x64 ADD PUSH2 0x641 JUMP JUMPDEST POP JUMPDEST PUSH1 0x1 ADD PUSH2 0x1ACA JUMP JUMPDEST POP POP POP POP POP POP POP POP POP JUMPDEST PUSH1 0x1 ADD PUSH2 0x18F4 JUMP JUMPDEST POP POP POP DUP1 DUP1 PUSH2 0x245C SWAP1 PUSH2 0x599C JUMP JUMPDEST SWAP2 POP POP PUSH2 0x1894 JUMP JUMPDEST POP PUSH1 0x0 PUSH1 0x3 DUP2 SWAP1 SSTORE PUSH1 0x4 SSTORE PUSH1 0x6 DUP1 SLOAD PUSH1 0xFF NOT AND SWAP1 DUP2 SWAP1 SSTORE PUSH1 0x40 DUP1 MLOAD PUSH5 0xFFFFFFFFFF TIMESTAMP DUP2 AND DUP3 MSTORE PUSH2 0x100 SWAP1 SWAP4 DIV SWAP1 SWAP3 AND PUSH1 0x20 DUP4 ADD MSTORE PUSH1 0x1 SWAP1 DUP3 ADD MSTORE CALLER SWAP1 PUSH32 0x90192D7875364A53E351AE63FD2DFEF8DC941735B29FB0C504D06A0E21AE602E SWAP1 PUSH1 0x60 ADD PUSH1 0x40 MLOAD DUP1 SWAP2 SUB SWAP1 LOG2 PUSH1 0x1 PUSH1 0x6 PUSH1 0x1 DUP3 DUP3 DUP3 SWAP1 SLOAD SWAP1 PUSH2 0x100 EXP SWAP1 DIV PUSH5 0xFFFFFFFFFF AND PUSH2 0x24F0 SWAP2 SWAP1 PUSH2 0x59B5 JUMP JUMPDEST SWAP3 POP PUSH2 0x100 EXP DUP2 SLOAD DUP2 PUSH5 0xFFFFFFFFFF MUL NOT AND SWAP1 DUP4 PUSH5 0xFFFFFFFFFF AND MUL OR SWAP1 SSTORE POP DUP3 ISZERO PUSH2 0x1748 JUMPI PUSH2 0x1748 PUSH2 0x174E JUMP JUMPDEST PUSH1 0x0 DUP2 DUP2 MSTORE PUSH1 0xB PUSH1 0x20 MSTORE PUSH1 0x40 DUP2 KECCAK256 SLOAD PUSH1 0x60 SWAP2 SWAP1 PUSH8 0xFFFFFFFFFFFFFFFF DUP2 GT ISZERO PUSH2 0x2549 JUMPI PUSH2 0x2549 PUSH2 0x5179 JUMP JUMPDEST PUSH1 0x40 MLOAD SWAP1 DUP1 DUP3 MSTORE DUP1 PUSH1 0x20 MUL PUSH1 0x20 ADD DUP3 ADD PUSH1 0x40 MSTORE DUP1 ISZERO PUSH2 0x2572 JUMPI DUP2 PUSH1 0x20 ADD PUSH1 0x20 DUP3 MUL DUP1 CALLDATASIZE DUP4 CALLDATACOPY ADD SWAP1 POP JUMPDEST POP PUSH1 0x0 DUP5 DUP2 MSTORE PUSH1 0xB PUSH1 0x20 SWAP1 DUP2 MSTORE PUSH1 0x40 SWAP2 DUP3 SWAP1 KECCAK256 DUP1 SLOAD DUP4 MLOAD DUP2 DUP5 MUL DUP2 ADD DUP5 ADD SWAP1 SWAP5 MSTORE DUP1 DUP5 MSTORE SWAP4 SWAP5 POP SWAP2 SWAP3 SWAP1 DUP4 ADD DUP3 DUP3 DUP1 ISZERO PUSH2 0x25D5 JUMPI PUSH1 0x20 MUL DUP3 ADD SWAP2 SWAP1 PUSH1 0x0 MSTORE PUSH1 0x20 PUSH1 0x0 KECCAK256 SWAP1 JUMPDEST DUP2 SLOAD PUSH1 0x1 PUSH1 0x1 PUSH1 0xA0 SHL SUB AND DUP2 MSTORE PUSH1 0x1 SWAP1 SWAP2 ADD SWAP1 PUSH1 0x20 ADD DUP1 DUP4 GT PUSH2 0x25B7 JUMPI JUMPDEST POP POP POP PUSH1 0x0 DUP7 DUP2 MSTORE PUSH1 0xB PUSH1 0x20 MSTORE PUSH1 0x40 DUP2 KECCAK256 SLOAD SWAP4 SWAP5 POP SWAP3 SWAP2 POP POP PUSH8 0xFFFFFFFFFFFFFFFF DUP2 GT ISZERO PUSH2 0x2606 JUMPI PUSH2 0x2606 PUSH2 0x5179 JUMP JUMPDEST PUSH1 0x40 MLOAD SWAP1 DUP1 DUP3 MSTORE DUP1 PUSH1 0x20 MUL PUSH1 0x20 ADD DUP3 ADD PUSH1 0x40 MSTORE DUP1 ISZERO PUSH2 0x264B JUMPI DUP2 PUSH1 0x20 ADD JUMPDEST PUSH1 0x40 DUP1 MLOAD DUP1 DUP3 ADD SWAP1 SWAP2 MSTORE PUSH1 0x0 DUP1 DUP3 MSTORE PUSH1 0x20 DUP3 ADD MSTORE DUP2 MSTORE PUSH1 0x20 ADD SWAP1 PUSH1 0x1 SWAP1 SUB SWAP1 DUP2 PUSH2 0x2624 JUMPI SWAP1 POP JUMPDEST POP SWAP1 POP PUSH1 0x0 JUMPDEST DUP3 MLOAD DUP2 LT ISZERO PUSH2 0x270C JUMPI PUSH1 0x0 DUP6 DUP2 MSTORE PUSH1 0x9 PUSH1 0x20 MSTORE PUSH1 0x40 DUP2 KECCAK256 DUP5 MLOAD DUP3 SWAP1 DUP7 SWAP1 DUP6 SWAP1 DUP2 LT PUSH2 0x267E JUMPI PUSH2 0x267E PUSH2 0x587D JUMP JUMPDEST PUSH1 0x20 MUL PUSH1 0x20 ADD ADD MLOAD PUSH1 0x1 PUSH1 0x1 PUSH1 0xA0 SHL SUB AND PUSH1 0x1 PUSH1 0x1 PUSH1 0xA0 SHL SUB AND DUP2 MSTORE PUSH1 0x20 ADD SWAP1 DUP2 MSTORE PUSH1 0x20 ADD PUSH1 0x0 KECCAK256 SLOAD SWAP1 POP PUSH1 0x0 PUSH1 0x40 MLOAD DUP1 PUSH1 0x40 ADD PUSH1 0x40 MSTORE DUP1 DUP7 DUP6 DUP2 MLOAD DUP2 LT PUSH2 0x26C8 JUMPI PUSH2 0x26C8 PUSH2 0x587D JUMP JUMPDEST PUSH1 0x20 MUL PUSH1 0x20 ADD ADD MLOAD PUSH1 0x1 PUSH1 0x1 PUSH1 0xA0 SHL SUB AND DUP2 MSTORE PUSH1 0x20 ADD DUP4 DUP2 MSTORE POP SWAP1 POP DUP1 DUP5 DUP5 DUP2 MLOAD DUP2 LT PUSH2 0x26F7 JUMPI PUSH2 0x26F7 PUSH2 0x587D JUMP JUMPDEST PUSH1 0x20 SWAP1 DUP2 MUL SWAP2 SWAP1 SWAP2 ADD ADD MSTORE POP POP PUSH1 0x1 ADD PUSH2 0x2651 JUMP JUMPDEST POP SWAP4 SWAP3 POP POP POP JUMP JUMPDEST PUSH1 0x60 DUP1 DUP4 ISZERO PUSH2 0x2814 JUMPI PUSH1 0x1 PUSH1 0x1 PUSH1 0xA0 SHL SUB DUP4 AND PUSH1 0x0 SWAP1 DUP2 MSTORE PUSH1 0x7 PUSH1 0x20 SWAP1 DUP2 MSTORE PUSH1 0x40 DUP1 DUP4 KECCAK256 PUSH1 0x1 ADD DUP1 SLOAD DUP3 MLOAD DUP2 DUP6 MUL DUP2 ADD DUP6 ADD SWAP1 SWAP4 MSTORE DUP1 DUP4 MSTORE SWAP2 SWAP4 SWAP1 SWAP3 DUP5 ADD JUMPDEST DUP3 DUP3 LT ISZERO PUSH2 0x2809 JUMPI PUSH1 0x0 DUP5 DUP2 MSTORE PUSH1 0x20 SWAP1 DUP2 SWAP1 KECCAK256 PUSH1 0x40 DUP1 MLOAD PUSH1 0x80 DUP2 ADD DUP3 MSTORE PUSH1 0x2 DUP7 MUL SWAP1 SWAP3 ADD DUP1 SLOAD DUP4 MSTORE PUSH1 0x1 DUP2 ADD SLOAD PUSH2 0xFFFF DUP2 AND SWAP5 DUP5 ADD SWAP5 SWAP1 SWAP5 MSTORE SWAP2 SWAP3 SWAP1 DUP4 ADD SWAP1 PUSH3 0x10000 SWAP1 DIV PUSH1 0xFF AND PUSH1 0x3 DUP2 GT ISZERO PUSH2 0x27AC JUMPI PUSH2 0x27AC PUSH2 0x50A8 JUMP JUMPDEST PUSH1 0x3 DUP2 GT ISZERO PUSH2 0x27BD JUMPI PUSH2 0x27BD PUSH2 0x50A8 JUMP JUMPDEST DUP2 MSTORE PUSH1 0x20 ADD PUSH1 0x1 DUP3 ADD PUSH1 0x3 SWAP1 SLOAD SWAP1 PUSH2 0x100 EXP SWAP1 DIV PUSH1 0xFF AND PUSH1 0x2 DUP2 GT ISZERO PUSH2 0x27E5 JUMPI PUSH2 0x27E5 PUSH2 0x50A8 JUMP JUMPDEST PUSH1 0x2 DUP2 GT ISZERO PUSH2 0x27F6 JUMPI PUSH2 0x27F6 PUSH2 0x50A8 JUMP JUMPDEST DUP2 MSTORE POP POP DUP2 MSTORE PUSH1 0x20 ADD SWAP1 PUSH1 0x1 ADD SWAP1 PUSH2 0x2753 JUMP JUMPDEST POP POP POP POP SWAP1 POP PUSH2 0x2907 JUMP JUMPDEST PUSH1 0x1 PUSH1 0x1 PUSH1 0xA0 SHL SUB DUP4 AND PUSH1 0x0 SWAP1 DUP2 MSTORE PUSH1 0x7 PUSH1 0x20 SWAP1 DUP2 MSTORE PUSH1 0x40 DUP1 DUP4 KECCAK256 PUSH1 0x2 ADD DUP1 SLOAD DUP3 MLOAD DUP2 DUP6 MUL DUP2 ADD DUP6 ADD SWAP1 SWAP4 MSTORE DUP1 DUP4 MSTORE SWAP2 SWAP4 SWAP1 SWAP3 DUP5 ADD JUMPDEST DUP3 DUP3 LT ISZERO PUSH2 0x2900 JUMPI PUSH1 0x0 DUP5 DUP2 MSTORE PUSH1 0x20 SWAP1 DUP2 SWAP1 KECCAK256 PUSH1 0x40 DUP1 MLOAD PUSH1 0x80 DUP2 ADD DUP3 MSTORE PUSH1 0x2 DUP7 MUL SWAP1 SWAP3 ADD DUP1 SLOAD DUP4 MSTORE PUSH1 0x1 DUP2 ADD SLOAD PUSH2 0xFFFF DUP2 AND SWAP5 DUP5 ADD SWAP5 SWAP1 SWAP5 MSTORE SWAP2 SWAP3 SWAP1 DUP4 ADD SWAP1 PUSH3 0x10000 SWAP1 DIV PUSH1 0xFF AND PUSH1 0x3 DUP2 GT ISZERO PUSH2 0x28A3 JUMPI PUSH2 0x28A3 PUSH2 0x50A8 JUMP JUMPDEST PUSH1 0x3 DUP2 GT ISZERO PUSH2 0x28B4 JUMPI PUSH2 0x28B4 PUSH2 0x50A8 JUMP JUMPDEST DUP2 MSTORE PUSH1 0x20 ADD PUSH1 0x1 DUP3 ADD PUSH1 0x3 SWAP1 SLOAD SWAP1 PUSH2 0x100 EXP SWAP1 DIV PUSH1 0xFF AND PUSH1 0x2 DUP2 GT ISZERO PUSH2 0x28DC JUMPI PUSH2 0x28DC PUSH2 0x50A8 JUMP JUMPDEST PUSH1 0x2 DUP2 GT ISZERO PUSH2 0x28ED JUMPI PUSH2 0x28ED PUSH2 0x50A8 JUMP JUMPDEST DUP2 MSTORE POP POP DUP2 MSTORE PUSH1 0x20 ADD SWAP1 PUSH1 0x1 ADD SWAP1 PUSH2 0x284A JUMP JUMPDEST POP POP POP POP SWAP1 POP JUMPDEST PUSH1 0x0 DUP2 MLOAD PUSH8 0xFFFFFFFFFFFFFFFF DUP2 GT ISZERO PUSH2 0x2923 JUMPI PUSH2 0x2923 PUSH2 0x5179 JUMP JUMPDEST PUSH1 0x40 MLOAD SWAP1 DUP1 DUP3 MSTORE DUP1 PUSH1 0x20 MUL PUSH1 0x20 ADD DUP3 ADD PUSH1 0x40 MSTORE DUP1 ISZERO PUSH2 0x29A9 JUMPI DUP2 PUSH1 0x20 ADD JUMPDEST PUSH1 0x40 DUP1 MLOAD PUSH2 0x160 DUP2 ADD DUP3 MSTORE PUSH1 0x0 PUSH1 0x60 DUP3 ADD DUP2 DUP2 MSTORE PUSH1 0x80 DUP4 ADD DUP3 SWAP1 MSTORE PUSH1 0xA0 DUP4 ADD DUP3 SWAP1 MSTORE PUSH1 0xC0 DUP4 ADD DUP3 SWAP1 MSTORE PUSH1 0xE0 DUP4 ADD DUP3 SWAP1 MSTORE PUSH2 0x100 DUP4 ADD DUP3 SWAP1 MSTORE PUSH2 0x120 DUP4 ADD DUP3 SWAP1 MSTORE PUSH2 0x140 DUP4 ADD DUP3 SWAP1 MSTORE DUP3 MSTORE PUSH1 0x20 DUP1 DUP4 ADD DUP3 SWAP1 MSTORE SWAP3 DUP3 ADD MSTORE DUP3 MSTORE PUSH1 0x0 NOT SWAP1 SWAP3 ADD SWAP2 ADD DUP2 PUSH2 0x2941 JUMPI SWAP1 POP JUMPDEST POP SWAP1 POP PUSH1 0x0 JUMPDEST DUP3 MLOAD DUP2 LT ISZERO PUSH2 0x2B00 JUMPI PUSH2 0x2A1A DUP4 DUP3 DUP2 MLOAD DUP2 LT PUSH2 0x29CD JUMPI PUSH2 0x29CD PUSH2 0x587D JUMP JUMPDEST PUSH1 0x20 MUL PUSH1 0x20 ADD ADD MLOAD PUSH1 0x0 ADD MLOAD DUP5 DUP4 DUP2 MLOAD DUP2 LT PUSH2 0x29EB JUMPI PUSH2 0x29EB PUSH2 0x587D JUMP JUMPDEST PUSH1 0x20 MUL PUSH1 0x20 ADD ADD MLOAD PUSH1 0x40 ADD MLOAD DUP6 DUP5 DUP2 MLOAD DUP2 LT PUSH2 0x2A09 JUMPI PUSH2 0x2A09 PUSH2 0x587D JUMP JUMPDEST PUSH1 0x20 MUL PUSH1 0x20 ADD ADD MLOAD PUSH1 0x20 ADD MLOAD PUSH2 0xB67 JUMP JUMPDEST DUP3 DUP3 DUP2 MLOAD DUP2 LT PUSH2 0x2A2C JUMPI PUSH2 0x2A2C PUSH2 0x587D JUMP JUMPDEST PUSH1 0x20 MUL PUSH1 0x20 ADD ADD MLOAD PUSH1 0x0 ADD DUP2 SWAP1 MSTORE POP DUP3 DUP2 DUP2 MLOAD DUP2 LT PUSH2 0x2A4D JUMPI PUSH2 0x2A4D PUSH2 0x587D JUMP JUMPDEST PUSH1 0x20 MUL PUSH1 0x20 ADD ADD MLOAD PUSH1 0x60 ADD MLOAD DUP3 DUP3 DUP2 MLOAD DUP2 LT PUSH2 0x2A6B JUMPI PUSH2 0x2A6B PUSH2 0x587D JUMP JUMPDEST PUSH1 0x20 MUL PUSH1 0x20 ADD ADD MLOAD PUSH1 0x20 ADD SWAP1 PUSH1 0x2 DUP2 GT ISZERO PUSH2 0x2A88 JUMPI PUSH2 0x2A88 PUSH2 0x50A8 JUMP JUMPDEST SWAP1 DUP2 PUSH1 0x2 DUP2 GT ISZERO PUSH2 0x2A9B JUMPI PUSH2 0x2A9B PUSH2 0x50A8 JUMP JUMPDEST DUP2 MSTORE POP POP PUSH1 0xB PUSH1 0x0 DUP4 DUP4 DUP2 MLOAD DUP2 LT PUSH2 0x2AB5 JUMPI PUSH2 0x2AB5 PUSH2 0x587D JUMP JUMPDEST PUSH1 0x20 MUL PUSH1 0x20 ADD ADD MLOAD PUSH1 0x0 ADD MLOAD PUSH1 0x0 ADD MLOAD DUP2 MSTORE PUSH1 0x20 ADD SWAP1 DUP2 MSTORE PUSH1 0x20 ADD PUSH1 0x0 KECCAK256 DUP1 SLOAD SWAP1 POP DUP3 DUP3 DUP2 MLOAD DUP2 LT PUSH2 0x2AE9 JUMPI PUSH2 0x2AE9 PUSH2 0x587D JUMP JUMPDEST PUSH1 0x20 SWAP1 DUP2 MUL SWAP2 SWAP1 SWAP2 ADD ADD MLOAD PUSH1 0x40 ADD MSTORE PUSH1 0x1 ADD PUSH2 0x29AF JUMP JUMPDEST POP SWAP2 POP POP JUMPDEST SWAP3 SWAP2 POP POP JUMP JUMPDEST PUSH2 0x2B13 PUSH2 0x4404 JUMP JUMPDEST PUSH2 0x2B29 DUP2 CALLDATALOAD PUSH2 0xEED PUSH2 0x100 DUP5 ADD PUSH1 0xE0 DUP6 ADD PUSH2 0x58AC JUMP JUMPDEST PUSH2 0x2B59 JUMPI PUSH1 0x40 MLOAD PUSH3 0x461BCD PUSH1 0xE5 SHL DUP2 MSTORE PUSH1 0x20 PUSH1 0x4 DUP3 ADD MSTORE PUSH1 0x1 PUSH1 0x24 DUP3 ADD MSTORE PUSH1 0x37 PUSH1 0xF8 SHL PUSH1 0x44 DUP3 ADD MSTORE PUSH1 0x64 ADD PUSH2 0x641 JUMP JUMPDEST PUSH2 0x2B69 PUSH1 0x60 DUP3 ADD PUSH1 0x40 DUP4 ADD PUSH2 0x4F7B JUMP JUMPDEST PUSH1 0x1 PUSH1 0x1 PUSH1 0xA0 SHL SUB AND CALLER PUSH1 0x1 PUSH1 0x1 PUSH1 0xA0 SHL SUB AND EQ PUSH2 0x2BAE JUMPI PUSH1 0x40 MLOAD PUSH3 0x461BCD PUSH1 0xE5 SHL DUP2 MSTORE PUSH1 0x20 PUSH1 0x4 DUP3 ADD MSTORE PUSH1 0x2 PUSH1 0x24 DUP3 ADD MSTORE PUSH2 0x3233 PUSH1 0xF0 SHL PUSH1 0x44 DUP3 ADD MSTORE PUSH1 0x64 ADD PUSH2 0x641 JUMP JUMPDEST CALLER PUSH1 0x0 SWAP1 DUP2 MSTORE PUSH1 0x7 PUSH1 0x20 SWAP1 DUP2 MSTORE PUSH1 0x40 DUP1 DUP4 KECCAK256 PUSH1 0x2 ADD DUP1 SLOAD DUP3 MLOAD DUP2 DUP6 MUL DUP2 ADD DUP6 ADD SWAP1 SWAP4 MSTORE DUP1 DUP4 MSTORE SWAP2 SWAP3 SWAP1 SWAP2 SWAP1 DUP5 SWAP1 DUP5 ADD JUMPDEST DUP3 DUP3 LT ISZERO PUSH2 0x2C94 JUMPI PUSH1 0x0 DUP5 DUP2 MSTORE PUSH1 0x20 SWAP1 DUP2 SWAP1 KECCAK256 PUSH1 0x40 DUP1 MLOAD PUSH1 0x80 DUP2 ADD DUP3 MSTORE PUSH1 0x2 DUP7 MUL SWAP1 SWAP3 ADD DUP1 SLOAD DUP4 MSTORE PUSH1 0x1 DUP2 ADD SLOAD PUSH2 0xFFFF DUP2 AND SWAP5 DUP5 ADD SWAP5 SWAP1 SWAP5 MSTORE SWAP2 SWAP3 SWAP1 DUP4 ADD SWAP1 PUSH3 0x10000 SWAP1 DIV PUSH1 0xFF AND PUSH1 0x3 DUP2 GT ISZERO PUSH2 0x2C37 JUMPI PUSH2 0x2C37 PUSH2 0x50A8 JUMP JUMPDEST PUSH1 0x3 DUP2 GT ISZERO PUSH2 0x2C48 JUMPI PUSH2 0x2C48 PUSH2 0x50A8 JUMP JUMPDEST DUP2 MSTORE PUSH1 0x20 ADD PUSH1 0x1 DUP3 ADD PUSH1 0x3 SWAP1 SLOAD SWAP1 PUSH2 0x100 EXP SWAP1 DIV PUSH1 0xFF AND PUSH1 0x2 DUP2 GT ISZERO PUSH2 0x2C70 JUMPI PUSH2 0x2C70 PUSH2 0x50A8 JUMP JUMPDEST PUSH1 0x2 DUP2 GT ISZERO PUSH2 0x2C81 JUMPI PUSH2 0x2C81 PUSH2 0x50A8 JUMP JUMPDEST DUP2 MSTORE POP POP DUP2 MSTORE PUSH1 0x20 ADD SWAP1 PUSH1 0x1 ADD SWAP1 PUSH2 0x2BDE JUMP JUMPDEST POP POP CALLER PUSH1 0x0 SWAP1 DUP2 MSTORE PUSH1 0x7 PUSH1 0x20 MSTORE PUSH1 0x40 DUP2 KECCAK256 PUSH1 0x2 ADD SLOAD SWAP4 SWAP5 POP SWAP2 POP POP JUMPDEST DUP2 DUP2 LT ISZERO PUSH2 0x2D48 JUMPI DUP4 PUSH1 0x0 ADD CALLDATALOAD DUP4 DUP3 DUP2 MLOAD DUP2 LT PUSH2 0x2CCF JUMPI PUSH2 0x2CCF PUSH2 0x587D JUMP JUMPDEST PUSH1 0x20 MUL PUSH1 0x20 ADD ADD MLOAD PUSH1 0x0 ADD MLOAD SUB PUSH2 0x2D40 JUMPI CALLER PUSH1 0x0 SWAP1 DUP2 MSTORE PUSH1 0x7 PUSH1 0x20 MSTORE PUSH1 0x40 SWAP1 KECCAK256 PUSH1 0x2 ADD DUP1 SLOAD PUSH1 0x1 SWAP2 SWAP1 DUP4 SWAP1 DUP2 LT PUSH2 0x2D08 JUMPI PUSH2 0x2D08 PUSH2 0x587D JUMP JUMPDEST SWAP1 PUSH1 0x0 MSTORE PUSH1 0x20 PUSH1 0x0 KECCAK256 SWAP1 PUSH1 0x2 MUL ADD PUSH1 0x1 ADD PUSH1 0x3 PUSH2 0x100 EXP DUP2 SLOAD DUP2 PUSH1 0xFF MUL NOT AND SWAP1 DUP4 PUSH1 0x2 DUP2 GT ISZERO PUSH2 0x2D3A JUMPI PUSH2 0x2D3A PUSH2 0x50A8 JUMP JUMPDEST MUL OR SWAP1 SSTORE POP JUMPDEST PUSH1 0x1 ADD PUSH2 0x2CB0 JUMP JUMPDEST POP DUP3 CALLDATALOAD PUSH1 0x0 SWAP1 DUP2 MSTORE PUSH1 0xB PUSH1 0x20 SWAP1 DUP2 MSTORE PUSH1 0x40 DUP1 DUP4 KECCAK256 DUP1 SLOAD DUP3 MLOAD DUP2 DUP6 MUL DUP2 ADD DUP6 ADD SWAP1 SWAP4 MSTORE DUP1 DUP4 MSTORE SWAP2 SWAP3 SWAP1 SWAP2 SWAP1 DUP4 ADD DUP3 DUP3 DUP1 ISZERO PUSH2 0x2DAB JUMPI PUSH1 0x20 MUL DUP3 ADD SWAP2 SWAP1 PUSH1 0x0 MSTORE PUSH1 0x20 PUSH1 0x0 KECCAK256 SWAP1 JUMPDEST DUP2 SLOAD PUSH1 0x1 PUSH1 0x1 PUSH1 0xA0 SHL SUB AND DUP2 MSTORE PUSH1 0x1 SWAP1 SWAP2 ADD SWAP1 PUSH1 0x20 ADD DUP1 DUP4 GT PUSH2 0x2D8D JUMPI JUMPDEST POP POP POP POP POP SWAP1 POP PUSH1 0x0 JUMPDEST DUP2 MLOAD DUP2 LT ISZERO PUSH2 0x32D6 JUMPI DUP5 CALLDATALOAD PUSH1 0x0 SWAP1 DUP2 MSTORE PUSH1 0x9 PUSH1 0x20 MSTORE PUSH1 0x40 DUP2 KECCAK256 DUP4 MLOAD DUP3 SWAP1 DUP6 SWAP1 DUP6 SWAP1 DUP2 LT PUSH2 0x2DE4 JUMPI PUSH2 0x2DE4 PUSH2 0x587D JUMP JUMPDEST PUSH1 0x20 MUL PUSH1 0x20 ADD ADD MLOAD PUSH1 0x1 PUSH1 0x1 PUSH1 0xA0 SHL SUB AND PUSH1 0x1 PUSH1 0x1 PUSH1 0xA0 SHL SUB AND DUP2 MSTORE PUSH1 0x20 ADD SWAP1 DUP2 MSTORE PUSH1 0x20 ADD PUSH1 0x0 KECCAK256 SLOAD SWAP1 POP DUP3 DUP3 DUP2 MLOAD DUP2 LT PUSH2 0x2E21 JUMPI PUSH2 0x2E21 PUSH2 0x587D JUMP JUMPDEST PUSH1 0x20 MUL PUSH1 0x20 ADD ADD MLOAD PUSH1 0x1 PUSH1 0x1 PUSH1 0xA0 SHL SUB AND DUP7 PUSH1 0x40 ADD PUSH1 0x20 DUP2 ADD SWAP1 PUSH2 0x2E45 SWAP2 SWAP1 PUSH2 0x4F7B JUMP JUMPDEST PUSH1 0x1 PUSH1 0x1 PUSH1 0xA0 SHL SUB AND DUP8 CALLDATALOAD PUSH1 0x0 DUP1 MLOAD PUSH1 0x20 PUSH2 0x5B95 DUP4 CODECOPY DUP2 MLOAD SWAP2 MSTORE TIMESTAMP DUP6 PUSH2 0x2E71 PUSH1 0x80 DUP14 ADD PUSH1 0x60 DUP15 ADD PUSH2 0x4F7B JUMP JUMPDEST PUSH1 0x9 PUSH1 0x40 MLOAD PUSH2 0x2E83 SWAP5 SWAP4 SWAP3 SWAP2 SWAP1 PUSH2 0x584C JUMP JUMPDEST PUSH1 0x40 MLOAD DUP1 SWAP2 SUB SWAP1 LOG4 DUP6 CALLDATALOAD PUSH1 0x0 SWAP1 DUP2 MSTORE PUSH1 0x9 PUSH1 0x20 MSTORE PUSH1 0x40 DUP2 KECCAK256 DUP5 MLOAD SWAP1 SWAP2 SWAP1 DUP6 SWAP1 DUP6 SWAP1 DUP2 LT PUSH2 0x2EB2 JUMPI PUSH2 0x2EB2 PUSH2 0x587D JUMP JUMPDEST PUSH1 0x20 MUL PUSH1 0x20 ADD ADD MLOAD PUSH1 0x1 PUSH1 0x1 PUSH1 0xA0 SHL SUB AND PUSH1 0x1 PUSH1 0x1 PUSH1 0xA0 SHL SUB AND DUP2 MSTORE PUSH1 0x20 ADD SWAP1 DUP2 MSTORE PUSH1 0x20 ADD PUSH1 0x0 KECCAK256 PUSH1 0x0 SWAP1 SSTORE DUP6 PUSH1 0x60 ADD PUSH1 0x20 DUP2 ADD SWAP1 PUSH2 0x2EF1 SWAP2 SWAP1 PUSH2 0x4F7B JUMP JUMPDEST PUSH1 0x1 PUSH1 0x1 PUSH1 0xA0 SHL SUB AND PUSH4 0xA9059CBB DUP5 DUP5 DUP2 MLOAD DUP2 LT PUSH2 0x2F11 JUMPI PUSH2 0x2F11 PUSH2 0x587D JUMP JUMPDEST PUSH1 0x20 MUL PUSH1 0x20 ADD ADD MLOAD DUP4 PUSH1 0x40 MLOAD DUP4 PUSH4 0xFFFFFFFF AND PUSH1 0xE0 SHL DUP2 MSTORE PUSH1 0x4 ADD PUSH2 0x2F4B SWAP3 SWAP2 SWAP1 PUSH1 0x1 PUSH1 0x1 PUSH1 0xA0 SHL SUB SWAP3 SWAP1 SWAP3 AND DUP3 MSTORE PUSH1 0x20 DUP3 ADD MSTORE PUSH1 0x40 ADD SWAP1 JUMP JUMPDEST PUSH1 0x20 PUSH1 0x40 MLOAD DUP1 DUP4 SUB DUP2 PUSH1 0x0 DUP8 GAS CALL ISZERO DUP1 ISZERO PUSH2 0x2F6A JUMPI RETURNDATASIZE PUSH1 0x0 DUP1 RETURNDATACOPY RETURNDATASIZE PUSH1 0x0 REVERT JUMPDEST POP POP POP POP PUSH1 0x40 MLOAD RETURNDATASIZE PUSH1 0x1F NOT PUSH1 0x1F DUP3 ADD AND DUP3 ADD DUP1 PUSH1 0x40 MSTORE POP DUP2 ADD SWAP1 PUSH2 0x2F8E SWAP2 SWAP1 PUSH2 0x5935 JUMP JUMPDEST PUSH2 0x2FBF JUMPI PUSH1 0x40 MLOAD PUSH3 0x461BCD PUSH1 0xE5 SHL DUP2 MSTORE PUSH1 0x20 PUSH1 0x4 DUP3 ADD MSTORE PUSH1 0x2 PUSH1 0x24 DUP3 ADD MSTORE PUSH2 0x3231 PUSH1 0xF0 SHL PUSH1 0x44 DUP3 ADD MSTORE PUSH1 0x64 ADD PUSH2 0x641 JUMP JUMPDEST PUSH1 0x0 PUSH1 0x7 PUSH1 0x0 DUP6 DUP6 DUP2 MLOAD DUP2 LT PUSH2 0x2FD7 JUMPI PUSH2 0x2FD7 PUSH2 0x587D JUMP JUMPDEST PUSH1 0x20 MUL PUSH1 0x20 ADD ADD MLOAD PUSH1 0x1 PUSH1 0x1 PUSH1 0xA0 SHL SUB AND PUSH1 0x1 PUSH1 0x1 PUSH1 0xA0 SHL SUB AND DUP2 MSTORE PUSH1 0x20 ADD SWAP1 DUP2 MSTORE PUSH1 0x20 ADD PUSH1 0x0 KECCAK256 PUSH1 0x1 ADD DUP1 SLOAD SWAP1 POP PUSH8 0xFFFFFFFFFFFFFFFF DUP2 GT ISZERO PUSH2 0x301E JUMPI PUSH2 0x301E PUSH2 0x5179 JUMP JUMPDEST PUSH1 0x40 MLOAD SWAP1 DUP1 DUP3 MSTORE DUP1 PUSH1 0x20 MUL PUSH1 0x20 ADD DUP3 ADD PUSH1 0x40 MSTORE DUP1 ISZERO PUSH2 0x3079 JUMPI DUP2 PUSH1 0x20 ADD JUMPDEST PUSH2 0x3066 PUSH1 0x40 DUP1 MLOAD PUSH1 0x80 DUP2 ADD DUP3 MSTORE PUSH1 0x0 DUP1 DUP3 MSTORE PUSH1 0x20 DUP3 ADD DUP2 SWAP1 MSTORE SWAP1 SWAP2 DUP3 ADD SWAP1 DUP2 MSTORE PUSH1 0x20 ADD PUSH1 0x0 SWAP1 MSTORE SWAP1 JUMP JUMPDEST DUP2 MSTORE PUSH1 0x20 ADD SWAP1 PUSH1 0x1 SWAP1 SUB SWAP1 DUP2 PUSH2 0x303C JUMPI SWAP1 POP JUMPDEST POP SWAP1 POP PUSH1 0x7 PUSH1 0x0 DUP6 DUP6 DUP2 MLOAD DUP2 LT PUSH2 0x3092 JUMPI PUSH2 0x3092 PUSH2 0x587D JUMP JUMPDEST PUSH1 0x20 MUL PUSH1 0x20 ADD ADD MLOAD PUSH1 0x1 PUSH1 0x1 PUSH1 0xA0 SHL SUB AND PUSH1 0x1 PUSH1 0x1 PUSH1 0xA0 SHL SUB AND DUP2 MSTORE PUSH1 0x20 ADD SWAP1 DUP2 MSTORE PUSH1 0x20 ADD PUSH1 0x0 KECCAK256 PUSH1 0x1 ADD DUP1 SLOAD DUP1 PUSH1 0x20 MUL PUSH1 0x20 ADD PUSH1 0x40 MLOAD SWAP1 DUP2 ADD PUSH1 0x40 MSTORE DUP1 SWAP3 SWAP2 SWAP1 DUP2 DUP2 MSTORE PUSH1 0x20 ADD PUSH1 0x0 SWAP1 JUMPDEST DUP3 DUP3 LT ISZERO PUSH2 0x3193 JUMPI PUSH1 0x0 DUP5 DUP2 MSTORE PUSH1 0x20 SWAP1 DUP2 SWAP1 KECCAK256 PUSH1 0x40 DUP1 MLOAD PUSH1 0x80 DUP2 ADD DUP3 MSTORE PUSH1 0x2 DUP7 MUL SWAP1 SWAP3 ADD DUP1 SLOAD DUP4 MSTORE PUSH1 0x1 DUP2 ADD SLOAD PUSH2 0xFFFF DUP2 AND SWAP5 DUP5 ADD SWAP5 SWAP1 SWAP5 MSTORE SWAP2 SWAP3 SWAP1 DUP4 ADD SWAP1 PUSH3 0x10000 SWAP1 DIV PUSH1 0xFF AND PUSH1 0x3 DUP2 GT ISZERO PUSH2 0x3136 JUMPI PUSH2 0x3136 PUSH2 0x50A8 JUMP JUMPDEST PUSH1 0x3 DUP2 GT ISZERO PUSH2 0x3147 JUMPI PUSH2 0x3147 PUSH2 0x50A8 JUMP JUMPDEST DUP2 MSTORE PUSH1 0x20 ADD PUSH1 0x1 DUP3 ADD PUSH1 0x3 SWAP1 SLOAD SWAP1 PUSH2 0x100 EXP SWAP1 DIV PUSH1 0xFF AND PUSH1 0x2 DUP2 GT ISZERO PUSH2 0x316F JUMPI PUSH2 0x316F PUSH2 0x50A8 JUMP JUMPDEST PUSH1 0x2 DUP2 GT ISZERO PUSH2 0x3180 JUMPI PUSH2 0x3180 PUSH2 0x50A8 JUMP JUMPDEST DUP2 MSTORE POP POP DUP2 MSTORE PUSH1 0x20 ADD SWAP1 PUSH1 0x1 ADD SWAP1 PUSH2 0x30DD JUMP JUMPDEST POP POP POP POP SWAP1 POP PUSH1 0x0 JUMPDEST PUSH1 0x7 PUSH1 0x0 DUP7 DUP7 DUP2 MLOAD DUP2 LT PUSH2 0x31B2 JUMPI PUSH2 0x31B2 PUSH2 0x587D JUMP JUMPDEST PUSH1 0x20 MUL PUSH1 0x20 ADD ADD MLOAD PUSH1 0x1 PUSH1 0x1 PUSH1 0xA0 SHL SUB AND PUSH1 0x1 PUSH1 0x1 PUSH1 0xA0 SHL SUB AND DUP2 MSTORE PUSH1 0x20 ADD SWAP1 DUP2 MSTORE PUSH1 0x20 ADD PUSH1 0x0 KECCAK256 PUSH1 0x1 ADD DUP1 SLOAD SWAP1 POP DUP2 LT ISZERO PUSH2 0x32A4 JUMPI DUP8 PUSH1 0x0 ADD CALLDATALOAD DUP3 DUP3 DUP2 MLOAD DUP2 LT PUSH2 0x31FF JUMPI PUSH2 0x31FF PUSH2 0x587D JUMP JUMPDEST PUSH1 0x20 MUL PUSH1 0x20 ADD ADD MLOAD PUSH1 0x0 ADD MLOAD SUB PUSH2 0x329C JUMPI PUSH1 0x1 PUSH1 0x7 PUSH1 0x0 DUP8 DUP8 DUP2 MLOAD DUP2 LT PUSH2 0x3228 JUMPI PUSH2 0x3228 PUSH2 0x587D JUMP JUMPDEST PUSH1 0x20 MUL PUSH1 0x20 ADD ADD MLOAD PUSH1 0x1 PUSH1 0x1 PUSH1 0xA0 SHL SUB AND PUSH1 0x1 PUSH1 0x1 PUSH1 0xA0 SHL SUB AND DUP2 MSTORE PUSH1 0x20 ADD SWAP1 DUP2 MSTORE PUSH1 0x20 ADD PUSH1 0x0 KECCAK256 PUSH1 0x1 ADD DUP3 DUP2 SLOAD DUP2 LT PUSH2 0x3264 JUMPI PUSH2 0x3264 PUSH2 0x587D JUMP JUMPDEST SWAP1 PUSH1 0x0 MSTORE PUSH1 0x20 PUSH1 0x0 KECCAK256 SWAP1 PUSH1 0x2 MUL ADD PUSH1 0x1 ADD PUSH1 0x3 PUSH2 0x100 EXP DUP2 SLOAD DUP2 PUSH1 0xFF MUL NOT AND SWAP1 DUP4 PUSH1 0x2 DUP2 GT ISZERO PUSH2 0x3296 JUMPI PUSH2 0x3296 PUSH2 0x50A8 JUMP JUMPDEST MUL OR SWAP1 SSTORE POP JUMPDEST PUSH1 0x1 ADD PUSH2 0x319C JUMP JUMPDEST POP PUSH2 0x32CC DUP8 PUSH1 0x0 ADD CALLDATALOAD DUP6 DUP6 DUP2 MLOAD DUP2 LT PUSH2 0x32BF JUMPI PUSH2 0x32BF PUSH2 0x587D JUMP JUMPDEST PUSH1 0x20 MUL PUSH1 0x20 ADD ADD MLOAD PUSH2 0x49A4 JUMP JUMPDEST POP POP PUSH1 0x1 ADD PUSH2 0x2DB5 JUMP JUMPDEST POP PUSH1 0x0 PUSH1 0xA DUP2 PUSH2 0x32EC PUSH1 0xE0 DUP9 ADD PUSH1 0xC0 DUP10 ADD PUSH2 0x58C7 JUMP JUMPDEST PUSH1 0x3 DUP2 GT ISZERO PUSH2 0x32FD JUMPI PUSH2 0x32FD PUSH2 0x50A8 JUMP JUMPDEST DUP2 MSTORE PUSH1 0x20 ADD SWAP1 DUP2 MSTORE PUSH1 0x20 ADD PUSH1 0x0 KECCAK256 PUSH1 0x0 DUP7 PUSH1 0xE0 ADD PUSH1 0x20 DUP2 ADD SWAP1 PUSH2 0x3320 SWAP2 SWAP1 PUSH2 0x58AC JUMP JUMPDEST PUSH2 0xFFFF AND PUSH2 0xFFFF AND DUP2 MSTORE PUSH1 0x20 ADD SWAP1 DUP2 MSTORE PUSH1 0x20 ADD PUSH1 0x0 KECCAK256 DUP1 SLOAD DUP1 PUSH1 0x20 MUL PUSH1 0x20 ADD PUSH1 0x40 MLOAD SWAP1 DUP2 ADD PUSH1 0x40 MSTORE DUP1 SWAP3 SWAP2 SWAP1 DUP2 DUP2 MSTORE PUSH1 0x20 ADD PUSH1 0x0 SWAP1 JUMPDEST DUP3 DUP3 LT ISZERO PUSH2 0x342D JUMPI PUSH1 0x0 DUP5 DUP2 MSTORE PUSH1 0x20 SWAP1 DUP2 SWAP1 KECCAK256 PUSH1 0x40 DUP1 MLOAD PUSH2 0x100 DUP2 ADD DUP3 MSTORE PUSH1 0x4 DUP7 MUL SWAP1 SWAP3 ADD DUP1 SLOAD DUP4 MSTORE PUSH1 0x1 DUP2 ADD SLOAD SWAP4 DUP4 ADD SWAP4 SWAP1 SWAP4 MSTORE PUSH1 0x2 DUP4 ADD SLOAD PUSH1 0x1 PUSH1 0x1 PUSH1 0xA0 SHL SUB SWAP1 DUP2 AND SWAP2 DUP4 ADD SWAP2 SWAP1 SWAP2 MSTORE PUSH1 0x3 DUP1 DUP5 ADD SLOAD SWAP2 DUP3 AND PUSH1 0x60 DUP5 ADD MSTORE PUSH1 0xFF PUSH1 0x1 PUSH1 0xA0 SHL DUP4 DIV DUP2 AND ISZERO ISZERO PUSH1 0x80 DUP6 ADD MSTORE PUSH1 0x1 PUSH1 0xA8 SHL DUP4 DIV DUP2 AND ISZERO ISZERO PUSH1 0xA0 DUP6 ADD MSTORE SWAP3 SWAP4 SWAP3 PUSH1 0xC0 DUP6 ADD SWAP3 PUSH1 0x1 PUSH1 0xB0 SHL SWAP1 DIV AND SWAP1 DUP2 GT ISZERO PUSH2 0x33F2 JUMPI PUSH2 0x33F2 PUSH2 0x50A8 JUMP JUMPDEST PUSH1 0x3 DUP2 GT ISZERO PUSH2 0x3403 JUMPI PUSH2 0x3403 PUSH2 0x50A8 JUMP JUMPDEST DUP2 MSTORE PUSH1 0x3 SWAP2 SWAP1 SWAP2 ADD SLOAD PUSH2 0xFFFF PUSH1 0x1 PUSH1 0xB8 SHL SWAP1 SWAP2 DIV AND PUSH1 0x20 SWAP2 DUP3 ADD MSTORE SWAP1 DUP3 MSTORE PUSH1 0x1 SWAP1 SWAP3 ADD SWAP2 ADD PUSH2 0x3356 JUMP JUMPDEST POP POP POP POP SWAP1 POP PUSH1 0x0 JUMPDEST DUP2 MLOAD DUP2 LT ISZERO PUSH2 0x3509 JUMPI DUP6 PUSH1 0x0 ADD CALLDATALOAD DUP3 DUP3 DUP2 MLOAD DUP2 LT PUSH2 0x3456 JUMPI PUSH2 0x3456 PUSH2 0x587D JUMP JUMPDEST PUSH1 0x20 MUL PUSH1 0x20 ADD ADD MLOAD PUSH1 0x0 ADD MLOAD SUB PUSH2 0x3501 JUMPI PUSH1 0x1 PUSH1 0xA PUSH1 0x0 PUSH2 0x347D PUSH1 0xE0 DUP11 ADD PUSH1 0xC0 DUP12 ADD PUSH2 0x58C7 JUMP JUMPDEST PUSH1 0x3 DUP2 GT ISZERO PUSH2 0x348E JUMPI PUSH2 0x348E PUSH2 0x50A8 JUMP JUMPDEST DUP2 MSTORE PUSH1 0x20 ADD SWAP1 DUP2 MSTORE PUSH1 0x20 ADD PUSH1 0x0 KECCAK256 PUSH1 0x0 DUP9 PUSH1 0xE0 ADD PUSH1 0x20 DUP2 ADD SWAP1 PUSH2 0x34B1 SWAP2 SWAP1 PUSH2 0x58AC JUMP JUMPDEST PUSH2 0xFFFF AND PUSH2 0xFFFF AND DUP2 MSTORE PUSH1 0x20 ADD SWAP1 DUP2 MSTORE PUSH1 0x20 ADD PUSH1 0x0 KECCAK256 DUP3 DUP2 SLOAD DUP2 LT PUSH2 0x34D8 JUMPI PUSH2 0x34D8 PUSH2 0x587D JUMP JUMPDEST SWAP1 PUSH1 0x0 MSTORE PUSH1 0x20 PUSH1 0x0 KECCAK256 SWAP1 PUSH1 0x4 MUL ADD PUSH1 0x3 ADD PUSH1 0x15 PUSH2 0x100 EXP DUP2 SLOAD DUP2 PUSH1 0xFF MUL NOT AND SWAP1 DUP4 ISZERO ISZERO MUL OR SWAP1 SSTORE POP JUMPDEST PUSH1 0x1 ADD PUSH2 0x3436 JUMP JUMPDEST POP PUSH1 0x0 CALLER DUP7 CALLDATALOAD PUSH1 0x0 DUP1 MLOAD PUSH1 0x20 PUSH2 0x5B95 DUP4 CODECOPY DUP2 MLOAD SWAP2 MSTORE TIMESTAMP DUP5 PUSH2 0x3530 PUSH1 0x80 DUP13 ADD PUSH1 0x60 DUP14 ADD PUSH2 0x4F7B JUMP JUMPDEST PUSH1 0x1 PUSH1 0x40 MLOAD PUSH2 0x3542 SWAP5 SWAP4 SWAP3 SWAP2 SWAP1 PUSH2 0x584C JUMP JUMPDEST PUSH1 0x40 MLOAD DUP1 SWAP2 SUB SWAP1 LOG4 POP POP POP POP POP JUMP JUMPDEST PUSH2 0x3559 PUSH2 0x4389 JUMP JUMPDEST PUSH1 0x0 SSTORE JUMP JUMPDEST PUSH2 0x3566 PUSH2 0x4389 JUMP JUMPDEST PUSH1 0x1 PUSH1 0x1 PUSH1 0xA0 SHL SUB DUP2 AND PUSH2 0x3579 JUMPI PUSH1 0x0 DUP1 REVERT JUMPDEST PUSH1 0x6 DUP1 SLOAD PUSH1 0x1 PUSH1 0x1 PUSH1 0xA0 SHL SUB SWAP1 SWAP3 AND PUSH7 0x1000000000000 MUL PUSH32 0xFFFFFFFFFFFF0000000000000000000000000000000000000000FFFFFFFFFFFF SWAP1 SWAP3 AND SWAP2 SWAP1 SWAP2 OR SWAP1 SSTORE JUMP JUMPDEST PUSH2 0x35C5 PUSH2 0x4404 JUMP JUMPDEST CALLER PUSH1 0x0 SWAP1 DUP2 MSTORE PUSH1 0x7 PUSH1 0x20 SWAP1 DUP2 MSTORE PUSH1 0x40 DUP1 DUP4 KECCAK256 PUSH1 0x2 ADD DUP1 SLOAD DUP3 MLOAD DUP2 DUP6 MUL DUP2 ADD DUP6 ADD SWAP1 SWAP4 MSTORE DUP1 DUP4 MSTORE SWAP2 SWAP3 SWAP1 SWAP2 SWAP1 DUP5 SWAP1 DUP5 ADD JUMPDEST DUP3 DUP3 LT ISZERO PUSH2 0x36AB JUMPI PUSH1 0x0 DUP5 DUP2 MSTORE PUSH1 0x20 SWAP1 DUP2 SWAP1 KECCAK256 PUSH1 0x40 DUP1 MLOAD PUSH1 0x80 DUP2 ADD DUP3 MSTORE PUSH1 0x2 DUP7 MUL SWAP1 SWAP3 ADD DUP1 SLOAD DUP4 MSTORE PUSH1 0x1 DUP2 ADD SLOAD PUSH2 0xFFFF DUP2 AND SWAP5 DUP5 ADD SWAP5 SWAP1 SWAP5 MSTORE SWAP2 SWAP3 SWAP1 DUP4 ADD SWAP1 PUSH3 0x10000 SWAP1 DIV PUSH1 0xFF AND PUSH1 0x3 DUP2 GT ISZERO PUSH2 0x364E JUMPI PUSH2 0x364E PUSH2 0x50A8 JUMP JUMPDEST PUSH1 0x3 DUP2 GT ISZERO PUSH2 0x365F JUMPI PUSH2 0x365F PUSH2 0x50A8 JUMP JUMPDEST DUP2 MSTORE PUSH1 0x20 ADD PUSH1 0x1 DUP3 ADD PUSH1 0x3 SWAP1 SLOAD SWAP1 PUSH2 0x100 EXP SWAP1 DIV PUSH1 0xFF AND PUSH1 0x2 DUP2 GT ISZERO PUSH2 0x3687 JUMPI PUSH2 0x3687 PUSH2 0x50A8 JUMP JUMPDEST PUSH1 0x2 DUP2 GT ISZERO PUSH2 0x3698 JUMPI PUSH2 0x3698 PUSH2 0x50A8 JUMP JUMPDEST DUP2 MSTORE POP POP DUP2 MSTORE PUSH1 0x20 ADD SWAP1 PUSH1 0x1 ADD SWAP1 PUSH2 0x35F5 JUMP JUMPDEST POP POP POP POP SWAP1 POP PUSH1 0x0 DUP1 JUMPDEST DUP3 MLOAD DUP2 LT ISZERO PUSH2 0x36F3 JUMPI DUP5 PUSH1 0x0 ADD MLOAD DUP4 DUP3 DUP2 MLOAD DUP2 LT PUSH2 0x36D5 JUMPI PUSH2 0x36D5 PUSH2 0x587D JUMP JUMPDEST PUSH1 0x20 MUL PUSH1 0x20 ADD ADD MLOAD PUSH1 0x0 ADD MLOAD SUB PUSH2 0x36EB JUMPI PUSH1 0x1 SWAP2 POP JUMPDEST PUSH1 0x1 ADD PUSH2 0x36B5 JUMP JUMPDEST POP DUP1 PUSH2 0x3726 JUMPI PUSH1 0x40 MLOAD PUSH3 0x461BCD PUSH1 0xE5 SHL DUP2 MSTORE PUSH1 0x20 PUSH1 0x4 DUP3 ADD MSTORE PUSH1 0x2 PUSH1 0x24 DUP3 ADD MSTORE PUSH2 0x627 PUSH1 0xF3 SHL PUSH1 0x44 DUP3 ADD MSTORE PUSH1 0x64 ADD PUSH2 0x641 JUMP JUMPDEST DUP4 MLOAD PUSH1 0x0 SWAP1 DUP2 MSTORE PUSH1 0xB PUSH1 0x20 SWAP1 DUP2 MSTORE PUSH1 0x40 DUP1 DUP4 KECCAK256 DUP1 SLOAD DUP3 MLOAD DUP2 DUP6 MUL DUP2 ADD DUP6 ADD SWAP1 SWAP4 MSTORE DUP1 DUP4 MSTORE SWAP2 SWAP3 SWAP1 SWAP2 SWAP1 DUP4 ADD DUP3 DUP3 DUP1 ISZERO PUSH2 0x3788 JUMPI PUSH1 0x20 MUL DUP3 ADD SWAP2 SWAP1 PUSH1 0x0 MSTORE PUSH1 0x20 PUSH1 0x0 KECCAK256 SWAP1 JUMPDEST DUP2 SLOAD PUSH1 0x1 PUSH1 0x1 PUSH1 0xA0 SHL SUB AND DUP2 MSTORE PUSH1 0x1 SWAP1 SWAP2 ADD SWAP1 PUSH1 0x20 ADD DUP1 DUP4 GT PUSH2 0x376A JUMPI JUMPDEST POP POP POP POP POP SWAP1 POP PUSH1 0x0 DUP1 JUMPDEST DUP3 MLOAD DUP2 LT ISZERO PUSH2 0x3843 JUMPI DUP6 PUSH1 0x1 PUSH1 0x1 PUSH1 0xA0 SHL SUB AND DUP4 DUP3 DUP2 MLOAD DUP2 LT PUSH2 0x37B8 JUMPI PUSH2 0x37B8 PUSH2 0x587D JUMP JUMPDEST PUSH1 0x20 MUL PUSH1 0x20 ADD ADD MLOAD PUSH1 0x1 PUSH1 0x1 PUSH1 0xA0 SHL SUB AND SUB PUSH2 0x383B JUMPI PUSH1 0x1 PUSH1 0x1 PUSH1 0xA0 SHL SUB DUP7 AND PUSH1 0x0 SWAP1 DUP2 MSTORE PUSH1 0x7 PUSH1 0x20 MSTORE PUSH1 0x40 SWAP1 KECCAK256 PUSH1 0x1 SWAP1 DUP2 ADD DUP1 SLOAD SWAP2 SWAP4 POP PUSH1 0x2 SWAP2 DUP4 SWAP1 DUP2 LT PUSH2 0x3803 JUMPI PUSH2 0x3803 PUSH2 0x587D JUMP JUMPDEST SWAP1 PUSH1 0x0 MSTORE PUSH1 0x20 PUSH1 0x0 KECCAK256 SWAP1 PUSH1 0x2 MUL ADD PUSH1 0x1 ADD PUSH1 0x3 PUSH2 0x100 EXP DUP2 SLOAD DUP2 PUSH1 0xFF MUL NOT AND SWAP1 DUP4 PUSH1 0x2 DUP2 GT ISZERO PUSH2 0x3835 JUMPI PUSH2 0x3835 PUSH2 0x50A8 JUMP JUMPDEST MUL OR SWAP1 SSTORE POP JUMPDEST PUSH1 0x1 ADD PUSH2 0x3793 JUMP JUMPDEST POP DUP1 PUSH2 0x3876 JUMPI PUSH1 0x40 MLOAD PUSH3 0x461BCD PUSH1 0xE5 SHL DUP2 MSTORE PUSH1 0x20 PUSH1 0x4 DUP3 ADD MSTORE PUSH1 0x2 PUSH1 0x24 DUP3 ADD MSTORE PUSH2 0x3139 PUSH1 0xF0 SHL PUSH1 0x44 DUP3 ADD MSTORE PUSH1 0x64 ADD PUSH2 0x641 JUMP JUMPDEST DUP6 MLOAD PUSH2 0x3882 SWAP1 DUP7 PUSH2 0x49A4 JUMP JUMPDEST DUP5 PUSH1 0x1 PUSH1 0x1 PUSH1 0xA0 SHL SUB AND DUP7 PUSH1 0x40 ADD MLOAD PUSH1 0x1 PUSH1 0x1 PUSH1 0xA0 SHL SUB AND DUP8 PUSH1 0x0 ADD MLOAD PUSH1 0x0 DUP1 MLOAD PUSH1 0x20 PUSH2 0x5B95 DUP4 CODECOPY DUP2 MLOAD SWAP2 MSTORE TIMESTAMP DUP11 PUSH1 0x20 ADD MLOAD DUP12 PUSH1 0x60 ADD MLOAD PUSH1 0x7 PUSH1 0x40 MLOAD PUSH2 0x38CB SWAP5 SWAP4 SWAP3 SWAP2 SWAP1 PUSH2 0x584C JUMP JUMPDEST PUSH1 0x40 MLOAD DUP1 SWAP2 SUB SWAP1 LOG4 DUP6 MLOAD PUSH1 0x0 SWAP1 DUP2 MSTORE PUSH1 0x9 PUSH1 0x20 DUP2 DUP2 MSTORE PUSH1 0x40 DUP1 DUP5 KECCAK256 PUSH1 0x1 PUSH1 0x1 PUSH1 0xA0 SHL SUB DUP1 DUP12 AND DUP1 DUP8 MSTORE SWAP2 DUP5 MSTORE DUP3 DUP7 KECCAK256 SLOAD DUP13 MLOAD DUP8 MSTORE DUP6 DUP6 MSTORE DUP4 DUP8 KECCAK256 DUP4 DUP9 MSTORE SWAP1 SWAP5 MSTORE DUP3 DUP7 KECCAK256 SWAP6 SWAP1 SWAP6 SSTORE DUP2 DUP12 ADD MLOAD DUP12 MLOAD PUSH1 0x60 DUP14 ADD MLOAD SWAP4 MLOAD SWAP5 SWAP7 SWAP3 SWAP6 SWAP2 SWAP1 SWAP3 AND SWAP4 SWAP2 SWAP3 PUSH1 0x0 DUP1 MLOAD PUSH1 0x20 PUSH2 0x5B95 DUP4 CODECOPY DUP2 MLOAD SWAP2 MSTORE SWAP3 PUSH2 0x394A SWAP3 TIMESTAMP SWAP3 DUP10 SWAP3 SWAP1 SWAP2 SWAP1 PUSH2 0x584C JUMP JUMPDEST PUSH1 0x40 MLOAD DUP1 SWAP2 SUB SWAP1 LOG4 PUSH1 0x60 DUP8 ADD MLOAD PUSH1 0x40 MLOAD PUSH4 0xA9059CBB PUSH1 0xE0 SHL DUP2 MSTORE PUSH1 0x1 PUSH1 0x1 PUSH1 0xA0 SHL SUB DUP9 DUP2 AND PUSH1 0x4 DUP4 ADD MSTORE PUSH1 0x24 DUP3 ADD DUP5 SWAP1 MSTORE SWAP1 SWAP2 AND SWAP1 PUSH4 0xA9059CBB SWAP1 PUSH1 0x44 ADD PUSH1 0x20 PUSH1 0x40 MLOAD DUP1 DUP4 SUB DUP2 PUSH1 0x0 DUP8 GAS CALL ISZERO DUP1 ISZERO PUSH2 0x39A7 JUMPI RETURNDATASIZE PUSH1 0x0 DUP1 RETURNDATACOPY RETURNDATASIZE PUSH1 0x0 REVERT JUMPDEST POP POP POP POP PUSH1 0x40 MLOAD RETURNDATASIZE PUSH1 0x1F NOT PUSH1 0x1F DUP3 ADD AND DUP3 ADD DUP1 PUSH1 0x40 MSTORE POP DUP2 ADD SWAP1 PUSH2 0x39CB SWAP2 SWAP1 PUSH2 0x5935 JUMP JUMPDEST PUSH2 0x39FC JUMPI PUSH1 0x40 MLOAD PUSH3 0x461BCD PUSH1 0xE5 SHL DUP2 MSTORE PUSH1 0x20 PUSH1 0x4 DUP3 ADD MSTORE PUSH1 0x2 PUSH1 0x24 DUP3 ADD MSTORE PUSH2 0x3231 PUSH1 0xF0 SHL PUSH1 0x44 DUP3 ADD MSTORE PUSH1 0x64 ADD PUSH2 0x641 JUMP JUMPDEST POP POP POP POP POP POP POP JUMP JUMPDEST PUSH2 0x3A0D PUSH2 0x4389 JUMP JUMPDEST PUSH1 0x6 DUP1 SLOAD SWAP2 ISZERO ISZERO PUSH1 0x1 PUSH1 0xD8 SHL MUL PUSH1 0xFF PUSH1 0xD8 SHL NOT SWAP1 SWAP3 AND SWAP2 SWAP1 SWAP2 OR SWAP1 SSTORE JUMP JUMPDEST PUSH2 0x3A33 PUSH2 0x4389 JUMP JUMPDEST PUSH1 0x6 DUP1 SLOAD SWAP2 ISZERO ISZERO PUSH1 0x1 PUSH1 0xD0 SHL MUL PUSH1 0xFF PUSH1 0xD0 SHL NOT SWAP1 SWAP3 AND SWAP2 SWAP1 SWAP2 OR SWAP1 SSTORE JUMP JUMPDEST PUSH2 0x3A59 PUSH2 0x4389 JUMP JUMPDEST PUSH2 0x1388 SELFBALANCE GT ISZERO PUSH2 0x3AB2 JUMPI PUSH1 0x6 SLOAD PUSH7 0x1000000000000 SWAP1 DIV PUSH1 0x1 PUSH1 0x1 PUSH1 0xA0 SHL SUB AND PUSH2 0x8FC PUSH2 0x3A88 PUSH2 0x1388 SELFBALANCE PUSH2 0x5989 JUMP JUMPDEST PUSH1 0x40 MLOAD DUP2 ISZERO SWAP1 SWAP3 MUL SWAP2 PUSH1 0x0 DUP2 DUP2 DUP2 DUP6 DUP9 DUP9 CALL SWAP4 POP POP POP POP ISZERO DUP1 ISZERO PUSH2 0x3AB0 JUMPI RETURNDATASIZE PUSH1 0x0 DUP1 RETURNDATACOPY RETURNDATASIZE PUSH1 0x0 REVERT JUMPDEST POP JUMPDEST JUMP JUMPDEST PUSH1 0x0 PUSH2 0x3ABF CALLER PUSH2 0x415F JUMP JUMPDEST SWAP1 POP DUP1 PUSH1 0x20 ADD MLOAD ISZERO PUSH2 0x1390 JUMPI PUSH1 0x0 JUMPDEST DUP2 PUSH1 0x60 ADD MLOAD MLOAD DUP2 LT ISZERO PUSH2 0x1748 JUMPI DUP3 DUP3 PUSH1 0x60 ADD MLOAD DUP3 DUP2 MLOAD DUP2 LT PUSH2 0x3AF2 JUMPI PUSH2 0x3AF2 PUSH2 0x587D JUMP JUMPDEST PUSH1 0x20 MUL PUSH1 0x20 ADD ADD MLOAD PUSH1 0x0 ADD MLOAD SUB PUSH2 0x3B5E JUMPI PUSH5 0xFFFFFFFFFF TIMESTAMP AND CALLER DUP5 PUSH32 0x93CDA0785D40B289A535B99DC76D4C9CBB6D8146182861AC3AD40509398B1865 PUSH2 0x3B38 DUP9 DUP1 PUSH2 0x5793 JUMP JUMPDEST PUSH2 0x3B45 PUSH1 0x20 DUP12 ADD DUP12 PUSH2 0x5793 JUMP JUMPDEST PUSH1 0x40 MLOAD PUSH2 0x3B55 SWAP5 SWAP4 SWAP3 SWAP2 SWAP1 PUSH2 0x580A JUMP JUMPDEST PUSH1 0x40 MLOAD DUP1 SWAP2 SUB SWAP1 LOG4 JUMPDEST PUSH1 0x1 ADD PUSH2 0x3ACE JUMP JUMPDEST PUSH1 0x60 PUSH1 0x0 PUSH2 0x3B73 TIMESTAMP PUSH2 0x4AEA JUMP JUMPDEST PUSH1 0x6 SLOAD SWAP1 SWAP2 POP PUSH5 0xFFFFFFFFFF PUSH2 0x100 SWAP1 SWAP2 DIV DUP2 AND SWAP1 DUP3 AND GT PUSH2 0x3BBC JUMPI PUSH1 0x40 MLOAD PUSH3 0x461BCD PUSH1 0xE5 SHL DUP2 MSTORE PUSH1 0x20 PUSH1 0x4 DUP3 ADD MSTORE PUSH1 0x2 PUSH1 0x24 DUP3 ADD MSTORE PUSH2 0xC4D PUSH1 0xF2 SHL PUSH1 0x44 DUP3 ADD MSTORE PUSH1 0x64 ADD PUSH2 0x641 JUMP JUMPDEST PUSH1 0x0 PUSH2 0x3BC7 TIMESTAMP PUSH2 0x4AF9 JUMP JUMPDEST SWAP1 POP PUSH1 0x0 DUP1 PUSH1 0x0 PUSH1 0x2 SLOAD PUSH8 0xFFFFFFFFFFFFFFFF DUP2 GT ISZERO PUSH2 0x3BE9 JUMPI PUSH2 0x3BE9 PUSH2 0x5179 JUMP JUMPDEST PUSH1 0x40 MLOAD SWAP1 DUP1 DUP3 MSTORE DUP1 PUSH1 0x20 MUL PUSH1 0x20 ADD DUP3 ADD PUSH1 0x40 MSTORE DUP1 ISZERO PUSH2 0x3C2E JUMPI DUP2 PUSH1 0x20 ADD JUMPDEST PUSH1 0x40 DUP1 MLOAD DUP1 DUP3 ADD SWAP1 SWAP2 MSTORE PUSH1 0x0 DUP1 DUP3 MSTORE PUSH1 0x20 DUP3 ADD MSTORE DUP2 MSTORE PUSH1 0x20 ADD SWAP1 PUSH1 0x1 SWAP1 SUB SWAP1 DUP2 PUSH2 0x3C07 JUMPI SWAP1 POP JUMPDEST POP SWAP1 POP PUSH1 0x0 JUMPDEST PUSH1 0x3 DUP2 GT PUSH2 0x3EF9 JUMPI PUSH1 0x0 DUP2 PUSH2 0x3C4A JUMPI POP PUSH1 0x20 DUP6 ADD MLOAD JUMPDEST PUSH1 0x1 DUP3 SUB PUSH2 0x3C56 JUMPI POP DUP5 MLOAD JUMPDEST PUSH1 0x2 DUP3 SUB PUSH2 0x3C65 JUMPI POP PUSH1 0x40 DUP6 ADD MLOAD JUMPDEST PUSH1 0x3 DUP3 SUB PUSH2 0x3C74 JUMPI POP PUSH1 0x60 DUP6 ADD MLOAD JUMPDEST PUSH1 0x0 JUMPDEST PUSH1 0x0 DUP4 DUP2 MSTORE PUSH1 0xA PUSH1 0x20 SWAP1 DUP2 MSTORE PUSH1 0x40 DUP1 DUP4 KECCAK256 PUSH2 0xFFFF DUP7 AND DUP5 MSTORE SWAP1 SWAP2 MSTORE SWAP1 KECCAK256 SLOAD DUP2 LT ISZERO PUSH2 0x3EE4 JUMPI PUSH1 0x0 DUP4 DUP2 MSTORE PUSH1 0xA PUSH1 0x20 SWAP1 DUP2 MSTORE PUSH1 0x40 DUP1 DUP4 KECCAK256 PUSH2 0xFFFF DUP7 AND DUP5 MSTORE SWAP1 SWAP2 MSTORE SWAP1 KECCAK256 DUP1 SLOAD DUP3 SWAP1 DUP2 LT PUSH2 0x3CCB JUMPI PUSH2 0x3CCB PUSH2 0x587D JUMP JUMPDEST SWAP1 PUSH1 0x0 MSTORE PUSH1 0x20 PUSH1 0x0 KECCAK256 SWAP1 PUSH1 0x4 MUL ADD PUSH1 0x3 ADD PUSH1 0x15 SWAP1 SLOAD SWAP1 PUSH2 0x100 EXP SWAP1 DIV PUSH1 0xFF AND PUSH2 0x3EDC JUMPI PUSH1 0x0 DUP4 DUP2 MSTORE PUSH1 0xA PUSH1 0x20 SWAP1 DUP2 MSTORE PUSH1 0x40 DUP1 DUP4 KECCAK256 PUSH2 0xFFFF DUP7 AND DUP5 MSTORE SWAP1 SWAP2 MSTORE DUP2 KECCAK256 DUP1 SLOAD DUP4 SWAP1 DUP2 LT PUSH2 0x3D1D JUMPI PUSH2 0x3D1D PUSH2 0x587D JUMP JUMPDEST PUSH1 0x0 SWAP2 DUP3 MSTORE PUSH1 0x20 DUP1 DUP4 KECCAK256 PUSH1 0x4 SWAP1 SWAP3 MUL SWAP1 SWAP2 ADD SLOAD DUP7 DUP4 MSTORE PUSH1 0xA DUP3 MSTORE PUSH1 0x40 DUP1 DUP5 KECCAK256 PUSH2 0xFFFF DUP9 AND DUP6 MSTORE SWAP1 SWAP3 MSTORE SWAP1 DUP3 KECCAK256 DUP1 SLOAD SWAP2 SWAP4 POP SWAP1 DUP5 SWAP1 DUP2 LT PUSH2 0x3D5F JUMPI PUSH2 0x3D5F PUSH2 0x587D JUMP JUMPDEST PUSH1 0x0 SWAP2 DUP3 MSTORE PUSH1 0x20 DUP1 DUP4 KECCAK256 PUSH1 0x3 PUSH1 0x4 SWAP1 SWAP4 MUL ADD SWAP2 SWAP1 SWAP2 ADD SLOAD DUP8 DUP4 MSTORE PUSH1 0xA DUP3 MSTORE PUSH1 0x40 DUP1 DUP5 KECCAK256 PUSH2 0xFFFF DUP10 AND DUP6 MSTORE SWAP1 SWAP3 MSTORE SWAP1 DUP3 KECCAK256 DUP1 SLOAD PUSH1 0x1 PUSH1 0x1 PUSH1 0xA0 SHL SUB SWAP1 SWAP3 AND SWAP4 POP SWAP1 DUP6 SWAP1 DUP2 LT PUSH2 0x3DAF JUMPI PUSH2 0x3DAF PUSH2 0x587D JUMP JUMPDEST SWAP1 PUSH1 0x0 MSTORE PUSH1 0x20 PUSH1 0x0 KECCAK256 SWAP1 PUSH1 0x4 MUL ADD PUSH1 0x1 ADD SLOAD SWAP1 POP PUSH2 0x3DE9 PUSH1 0x40 MLOAD DUP1 PUSH1 0x40 ADD PUSH1 0x40 MSTORE DUP1 PUSH1 0x0 DUP2 MSTORE PUSH1 0x20 ADD PUSH1 0x0 PUSH1 0x1 PUSH1 0x1 PUSH1 0xA0 SHL SUB AND DUP2 MSTORE POP SWAP1 JUMP JUMPDEST PUSH1 0x0 DUP3 PUSH2 0x2710 PUSH1 0x0 SLOAD DUP6 PUSH2 0x3DFD SWAP2 SWAP1 PUSH2 0x5952 JUMP JUMPDEST PUSH2 0x3E07 SWAP2 SWAP1 PUSH2 0x590E JUMP JUMPDEST PUSH2 0x3E11 SWAP2 SWAP1 PUSH2 0x5989 JUMP JUMPDEST SWAP1 POP PUSH1 0x0 DUP1 JUMPDEST PUSH1 0x0 DUP8 DUP2 MSTORE PUSH1 0xB PUSH1 0x20 MSTORE PUSH1 0x40 SWAP1 KECCAK256 SLOAD DUP2 LT ISZERO PUSH2 0x3ED4 JUMPI PUSH1 0x2 SLOAD DUP14 SUB PUSH2 0x3E4A JUMPI POP SWAP9 SWAP15 SWAP14 POP POP POP POP POP POP POP POP POP POP POP POP POP POP JUMP JUMPDEST PUSH1 0x3 SLOAD ISZERO DUP1 PUSH2 0x3E60 JUMPI POP PUSH1 0x6 SLOAD PUSH1 0xFF AND ISZERO ISZERO PUSH1 0x1 EQ JUMPDEST ISZERO PUSH2 0x3ECC JUMPI DUP13 PUSH2 0x3E6F DUP2 PUSH2 0x599C JUMP JUMPDEST SWAP14 POP PUSH2 0x3E7D SWAP1 POP DUP4 DUP4 PUSH2 0x5922 JUMP JUMPDEST SWAP2 POP PUSH1 0x40 MLOAD DUP1 PUSH1 0x40 ADD PUSH1 0x40 MSTORE DUP1 DUP4 DUP2 MSTORE PUSH1 0x20 ADD DUP8 PUSH1 0x1 PUSH1 0x1 PUSH1 0xA0 SHL SUB AND DUP2 MSTORE POP SWAP4 POP DUP4 DUP12 DUP14 DUP2 MLOAD DUP2 LT PUSH2 0x3EB2 JUMPI PUSH2 0x3EB2 PUSH2 0x587D JUMP JUMPDEST PUSH1 0x20 MUL PUSH1 0x20 ADD ADD DUP2 SWAP1 MSTORE POP DUP12 DUP1 PUSH2 0x3EC8 SWAP1 PUSH2 0x599C JUMP JUMPDEST SWAP13 POP POP JUMPDEST PUSH1 0x1 ADD PUSH2 0x3E17 JUMP JUMPDEST POP POP POP POP POP POP POP JUMPDEST PUSH1 0x1 ADD PUSH2 0x3C77 JUMP JUMPDEST POP POP DUP1 DUP1 PUSH2 0x3EF1 SWAP1 PUSH2 0x599C JUMP JUMPDEST SWAP2 POP POP PUSH2 0x3C34 JUMP JUMPDEST POP PUSH1 0x0 DUP1 JUMPDEST DUP3 MLOAD DUP2 LT ISZERO PUSH2 0x3F4E JUMPI PUSH1 0x0 PUSH1 0x1 PUSH1 0x1 PUSH1 0xA0 SHL SUB AND DUP4 DUP3 DUP2 MLOAD DUP2 LT PUSH2 0x3F24 JUMPI PUSH2 0x3F24 PUSH2 0x587D JUMP JUMPDEST PUSH1 0x20 MUL PUSH1 0x20 ADD ADD MLOAD PUSH1 0x20 ADD MLOAD PUSH1 0x1 PUSH1 0x1 PUSH1 0xA0 SHL SUB AND SUB PUSH2 0x3F46 JUMPI DUP1 SWAP2 POP PUSH2 0x3F4E JUMP JUMPDEST PUSH1 0x1 ADD PUSH2 0x3EFE JUMP JUMPDEST POP PUSH1 0x0 DUP2 PUSH8 0xFFFFFFFFFFFFFFFF DUP2 GT ISZERO PUSH2 0x3F6A JUMPI PUSH2 0x3F6A PUSH2 0x5179 JUMP JUMPDEST PUSH1 0x40 MLOAD SWAP1 DUP1 DUP3 MSTORE DUP1 PUSH1 0x20 MUL PUSH1 0x20 ADD DUP3 ADD PUSH1 0x40 MSTORE DUP1 ISZERO PUSH2 0x3FAF JUMPI DUP2 PUSH1 0x20 ADD JUMPDEST PUSH1 0x40 DUP1 MLOAD DUP1 DUP3 ADD SWAP1 SWAP2 MSTORE PUSH1 0x0 DUP1 DUP3 MSTORE PUSH1 0x20 DUP3 ADD MSTORE DUP2 MSTORE PUSH1 0x20 ADD SWAP1 PUSH1 0x1 SWAP1 SUB SWAP1 DUP2 PUSH2 0x3F88 JUMPI SWAP1 POP JUMPDEST POP SWAP1 POP PUSH1 0x0 JUMPDEST DUP3 DUP2 LT ISZERO PUSH2 0x3FFC JUMPI DUP4 DUP2 DUP2 MLOAD DUP2 LT PUSH2 0x3FCF JUMPI PUSH2 0x3FCF PUSH2 0x587D JUMP JUMPDEST PUSH1 0x20 MUL PUSH1 0x20 ADD ADD MLOAD DUP3 DUP3 DUP2 MLOAD DUP2 LT PUSH2 0x3FE9 JUMPI PUSH2 0x3FE9 PUSH2 0x587D JUMP JUMPDEST PUSH1 0x20 SWAP1 DUP2 MUL SWAP2 SWAP1 SWAP2 ADD ADD MSTORE PUSH1 0x1 ADD PUSH2 0x3FB5 JUMP JUMPDEST POP SWAP8 SWAP7 POP POP POP POP POP POP POP JUMP JUMPDEST TIMESTAMP PUSH5 0xFFFFFFFFFF AND CALLER PUSH1 0x1 PUSH1 0x1 PUSH1 0xA0 SHL SUB AND PUSH32 0x34F43ABF7A52B609B04511ED963A29EBB76AE3E0CA0FF5594BE1C2A84EBD03F2 DUP4 PUSH1 0x0 ADD MLOAD DUP5 PUSH1 0x20 ADD MLOAD DUP6 PUSH1 0x40 ADD MLOAD DUP7 PUSH1 0x60 ADD MLOAD DUP8 PUSH1 0x80 ADD MLOAD DUP9 PUSH1 0xA0 ADD MLOAD PUSH1 0x40 MLOAD PUSH2 0x406B SWAP7 SWAP6 SWAP5 SWAP4 SWAP3 SWAP2 SWAP1 PUSH2 0x5A18 JUMP JUMPDEST PUSH1 0x40 MLOAD DUP1 SWAP2 SUB SWAP1 LOG3 POP JUMP JUMPDEST PUSH2 0x407E PUSH2 0x4389 JUMP JUMPDEST PUSH1 0x1 PUSH1 0x1 PUSH1 0xA0 SHL SUB DUP3 AND PUSH2 0x4091 JUMPI PUSH1 0x0 DUP1 REVERT JUMPDEST PUSH2 0x409A DUP3 PUSH2 0x43D2 JUMP JUMPDEST ISZERO PUSH2 0x40CB JUMPI PUSH1 0x40 MLOAD PUSH3 0x461BCD PUSH1 0xE5 SHL DUP2 MSTORE PUSH1 0x20 PUSH1 0x4 DUP3 ADD MSTORE PUSH1 0x1 PUSH1 0x24 DUP3 ADD MSTORE PUSH1 0x31 PUSH1 0xF8 SHL PUSH1 0x44 DUP3 ADD MSTORE PUSH1 0x64 ADD PUSH2 0x641 JUMP JUMPDEST PUSH1 0x40 DUP1 MLOAD PUSH1 0x60 DUP2 ADD DUP3 MSTORE PUSH1 0x1 PUSH1 0x1 PUSH1 0xA0 SHL SUB SWAP4 DUP5 AND DUP1 DUP3 MSTORE PUSH1 0x20 DUP1 DUP4 ADD SWAP5 DUP6 MSTORE PUSH1 0x1 DUP4 DUP6 ADD DUP2 DUP2 MSTORE PUSH1 0x0 SWAP4 DUP5 MSTORE PUSH1 0x5 SWAP1 SWAP3 MSTORE SWAP4 SWAP1 SWAP2 KECCAK256 SWAP2 MLOAD DUP3 SLOAD PUSH1 0x1 PUSH1 0x1 PUSH1 0xA0 SHL SUB NOT AND SWAP6 AND SWAP5 SWAP1 SWAP5 OR DUP2 SSTORE SWAP2 MLOAD SWAP1 DUP3 ADD SSTORE SWAP1 MLOAD PUSH1 0x2 SWAP1 SWAP2 ADD DUP1 SLOAD PUSH1 0xFF NOT AND SWAP2 ISZERO ISZERO SWAP2 SWAP1 SWAP2 OR SWAP1 SSTORE JUMP JUMPDEST PUSH1 0x8 DUP2 DUP2 SLOAD DUP2 LT PUSH2 0x4145 JUMPI PUSH1 0x0 DUP1 REVERT JUMPDEST PUSH1 0x0 SWAP2 DUP3 MSTORE PUSH1 0x20 SWAP1 SWAP2 KECCAK256 ADD SLOAD PUSH1 0x1 PUSH1 0x1 PUSH1 0xA0 SHL SUB AND SWAP1 POP DUP2 JUMP JUMPDEST PUSH1 0x40 DUP1 MLOAD PUSH1 0x80 DUP2 ADD DUP3 MSTORE PUSH1 0x0 DUP1 DUP3 MSTORE PUSH1 0x20 DUP3 ADD MSTORE PUSH1 0x60 SWAP2 DUP2 ADD DUP3 SWAP1 MSTORE DUP2 DUP2 ADD SWAP2 SWAP1 SWAP2 MSTORE PUSH1 0x1 PUSH1 0x1 PUSH1 0xA0 SHL SUB DUP3 DUP2 AND PUSH1 0x0 SWAP1 DUP2 MSTORE PUSH1 0x7 PUSH1 0x20 SWAP1 DUP2 MSTORE PUSH1 0x40 DUP1 DUP4 KECCAK256 DUP2 MLOAD PUSH1 0x80 DUP2 ADD DUP4 MSTORE DUP2 SLOAD SWAP6 DUP7 AND DUP2 MSTORE PUSH1 0x1 PUSH1 0xA0 SHL SWAP1 SWAP6 DIV PUSH1 0xFF AND ISZERO ISZERO DUP6 DUP5 ADD MSTORE PUSH1 0x1 DUP2 ADD DUP1 SLOAD DUP4 MLOAD DUP2 DUP7 MUL DUP2 ADD DUP7 ADD DUP6 MSTORE DUP2 DUP2 MSTORE SWAP3 SWAP6 SWAP4 DUP8 ADD SWAP5 SWAP3 SWAP4 SWAP2 SWAP3 SWAP1 SWAP2 SWAP1 DUP5 ADD JUMPDEST DUP3 DUP3 LT ISZERO PUSH2 0x4298 JUMPI PUSH1 0x0 DUP5 DUP2 MSTORE PUSH1 0x20 SWAP1 DUP2 SWAP1 KECCAK256 PUSH1 0x40 DUP1 MLOAD PUSH1 0x80 DUP2 ADD DUP3 MSTORE PUSH1 0x2 DUP7 MUL SWAP1 SWAP3 ADD DUP1 SLOAD DUP4 MSTORE PUSH1 0x1 DUP2 ADD SLOAD PUSH2 0xFFFF DUP2 AND SWAP5 DUP5 ADD SWAP5 SWAP1 SWAP5 MSTORE SWAP2 SWAP3 SWAP1 DUP4 ADD SWAP1 PUSH3 0x10000 SWAP1 DIV PUSH1 0xFF AND PUSH1 0x3 DUP2 GT ISZERO PUSH2 0x423B JUMPI PUSH2 0x423B PUSH2 0x50A8 JUMP JUMPDEST PUSH1 0x3 DUP2 GT ISZERO PUSH2 0x424C JUMPI PUSH2 0x424C PUSH2 0x50A8 JUMP JUMPDEST DUP2 MSTORE PUSH1 0x20 ADD PUSH1 0x1 DUP3 ADD PUSH1 0x3 SWAP1 SLOAD SWAP1 PUSH2 0x100 EXP SWAP1 DIV PUSH1 0xFF AND PUSH1 0x2 DUP2 GT ISZERO PUSH2 0x4274 JUMPI PUSH2 0x4274 PUSH2 0x50A8 JUMP JUMPDEST PUSH1 0x2 DUP2 GT ISZERO PUSH2 0x4285 JUMPI PUSH2 0x4285 PUSH2 0x50A8 JUMP JUMPDEST DUP2 MSTORE POP POP DUP2 MSTORE PUSH1 0x20 ADD SWAP1 PUSH1 0x1 ADD SWAP1 PUSH2 0x41E2 JUMP JUMPDEST POP POP POP POP DUP2 MSTORE PUSH1 0x20 ADD PUSH1 0x2 DUP3 ADD DUP1 SLOAD DUP1 PUSH1 0x20 MUL PUSH1 0x20 ADD PUSH1 0x40 MLOAD SWAP1 DUP2 ADD PUSH1 0x40 MSTORE DUP1 SWAP3 SWAP2 SWAP1 DUP2 DUP2 MSTORE PUSH1 0x20 ADD PUSH1 0x0 SWAP1 JUMPDEST DUP3 DUP3 LT ISZERO PUSH2 0x437B JUMPI PUSH1 0x0 DUP5 DUP2 MSTORE PUSH1 0x20 SWAP1 DUP2 SWAP1 KECCAK256 PUSH1 0x40 DUP1 MLOAD PUSH1 0x80 DUP2 ADD DUP3 MSTORE PUSH1 0x2 DUP7 MUL SWAP1 SWAP3 ADD DUP1 SLOAD DUP4 MSTORE PUSH1 0x1 DUP2 ADD SLOAD PUSH2 0xFFFF DUP2 AND SWAP5 DUP5 ADD SWAP5 SWAP1 SWAP5 MSTORE SWAP2 SWAP3 SWAP1 DUP4 ADD SWAP1 PUSH3 0x10000 SWAP1 DIV PUSH1 0xFF AND PUSH1 0x3 DUP2 GT ISZERO PUSH2 0x431E JUMPI PUSH2 0x431E PUSH2 0x50A8 JUMP JUMPDEST PUSH1 0x3 DUP2 GT ISZERO PUSH2 0x432F JUMPI PUSH2 0x432F PUSH2 0x50A8 JUMP JUMPDEST DUP2 MSTORE PUSH1 0x20 ADD PUSH1 0x1 DUP3 ADD PUSH1 0x3 SWAP1 SLOAD SWAP1 PUSH2 0x100 EXP SWAP1 DIV PUSH1 0xFF AND PUSH1 0x2 DUP2 GT ISZERO PUSH2 0x4357 JUMPI PUSH2 0x4357 PUSH2 0x50A8 JUMP JUMPDEST PUSH1 0x2 DUP2 GT ISZERO PUSH2 0x4368 JUMPI PUSH2 0x4368 PUSH2 0x50A8 JUMP JUMPDEST DUP2 MSTORE POP POP DUP2 MSTORE PUSH1 0x20 ADD SWAP1 PUSH1 0x1 ADD SWAP1 PUSH2 0x42C5 JUMP JUMPDEST POP POP POP SWAP2 MSTORE POP SWAP1 SWAP4 SWAP3 POP POP POP JUMP JUMPDEST PUSH1 0x6 SLOAD PUSH7 0x1000000000000 SWAP1 DIV PUSH1 0x1 PUSH1 0x1 PUSH1 0xA0 SHL SUB AND CALLER EQ PUSH2 0x3AB2 JUMPI PUSH1 0x40 MLOAD PUSH3 0x461BCD PUSH1 0xE5 SHL DUP2 MSTORE PUSH1 0x20 PUSH1 0x4 DUP3 ADD MSTORE PUSH1 0x2 PUSH1 0x24 DUP3 ADD MSTORE PUSH2 0x189B PUSH1 0xF1 SHL PUSH1 0x44 DUP3 ADD MSTORE PUSH1 0x64 ADD PUSH2 0x641 JUMP JUMPDEST PUSH1 0x1 PUSH1 0x1 PUSH1 0xA0 SHL SUB DUP2 AND PUSH1 0x0 SWAP1 DUP2 MSTORE PUSH1 0x5 PUSH1 0x20 MSTORE PUSH1 0x40 DUP2 KECCAK256 PUSH1 0x2 ADD SLOAD PUSH1 0xFF AND PUSH2 0x43FC JUMPI PUSH1 0x0 PUSH2 0x2B05 JUMP JUMPDEST PUSH1 0x1 SWAP3 SWAP2 POP POP JUMP JUMPDEST CALLER PUSH2 0x3AB2 JUMPI PUSH1 0x40 MLOAD PUSH3 0x461BCD PUSH1 0xE5 SHL DUP2 MSTORE PUSH1 0x20 PUSH1 0x4 DUP3 ADD MSTORE PUSH1 0x1 PUSH1 0x24 DUP3 ADD MSTORE PUSH1 0x33 PUSH1 0xF8 SHL PUSH1 0x44 DUP3 ADD MSTORE PUSH1 0x64 ADD PUSH2 0x641 JUMP JUMPDEST PUSH1 0x40 DUP1 MLOAD PUSH2 0x100 DUP2 ADD DUP3 MSTORE PUSH1 0x0 DUP1 DUP3 MSTORE PUSH1 0x20 DUP3 ADD DUP2 SWAP1 MSTORE SWAP2 DUP2 ADD DUP3 SWAP1 MSTORE PUSH1 0x60 DUP2 ADD DUP3 SWAP1 MSTORE PUSH1 0x80 DUP2 ADD DUP3 SWAP1 MSTORE PUSH1 0xA0 DUP2 ADD DUP3 SWAP1 MSTORE PUSH1 0xC0 DUP2 ADD DUP3 SWAP1 MSTORE PUSH1 0xE0 DUP2 ADD SWAP2 SWAP1 SWAP2 MSTORE PUSH1 0x40 MLOAD PUSH12 0xFFFFFFFFFFFFFFFFFFFFFFFF NOT CALLER PUSH1 0x60 SHL AND PUSH1 0x20 DUP3 ADD MSTORE PREVRANDAO PUSH1 0x34 DUP3 ADD MSTORE TIMESTAMP PUSH1 0x54 DUP3 ADD MSTORE PUSH1 0x0 SWAP1 PUSH1 0x74 ADD PUSH1 0x40 DUP1 MLOAD PUSH1 0x1F NOT DUP2 DUP5 SUB ADD DUP2 MSTORE DUP3 DUP3 MSTORE DUP1 MLOAD PUSH1 0x20 SWAP2 DUP3 ADD KECCAK256 PUSH2 0x100 DUP5 ADD DUP4 MSTORE DUP1 DUP5 MSTORE SWAP1 DUP4 ADD DUP10 SWAP1 MSTORE CALLER SWAP2 DUP4 ADD SWAP2 SWAP1 SWAP2 MSTORE PUSH1 0x1 PUSH1 0x1 PUSH1 0xA0 SHL SUB DUP8 AND PUSH1 0x60 DUP4 ADD MSTORE PUSH1 0x1 PUSH1 0x80 DUP4 ADD MSTORE PUSH1 0x0 PUSH1 0xA0 DUP4 ADD MSTORE SWAP2 POP PUSH1 0xC0 DUP2 ADD DUP6 PUSH1 0x3 DUP2 GT ISZERO PUSH2 0x4508 JUMPI PUSH2 0x4508 PUSH2 0x50A8 JUMP JUMPDEST DUP2 MSTORE PUSH1 0x20 ADD DUP5 PUSH2 0xFFFF AND DUP2 MSTORE POP SWAP2 POP POP SWAP5 SWAP4 POP POP POP POP JUMP JUMPDEST CALLER PUSH1 0x0 SWAP1 DUP2 MSTORE PUSH1 0x7 PUSH1 0x20 MSTORE PUSH1 0x40 DUP2 KECCAK256 SLOAD PUSH1 0x1 PUSH1 0xA0 SHL SWAP1 DIV PUSH1 0xFF AND ISZERO ISZERO SWAP1 SUB PUSH2 0x45AE JUMPI CALLER PUSH1 0x0 DUP2 DUP2 MSTORE PUSH1 0x7 PUSH1 0x20 MSTORE PUSH1 0x40 DUP2 KECCAK256 DUP1 SLOAD PUSH1 0x1 PUSH1 0x1 PUSH1 0xA0 SHL SUB NOT SWAP1 DUP2 AND DUP5 OR DUP3 SSTORE PUSH1 0x8 DUP1 SLOAD PUSH1 0x1 DUP2 ADD SWAP1 SWAP2 SSTORE PUSH32 0xF3F7A9FE364FAAB93B216DA50A3214154F22A0A2B415B23A84C8169E8B636EE3 ADD DUP1 SLOAD SWAP1 SWAP2 AND DUP5 OR SWAP1 SSTORE SWAP2 SWAP1 MSTORE DUP1 SLOAD PUSH1 0xFF PUSH1 0xA0 SHL NOT AND PUSH1 0x1 PUSH1 0xA0 SHL OR SWAP1 SSTORE JUMPDEST DUP1 ISZERO PUSH2 0x4660 JUMPI CALLER PUSH1 0x0 SWAP1 DUP2 MSTORE PUSH1 0x7 PUSH1 0x20 SWAP1 DUP2 MSTORE PUSH1 0x40 DUP1 DUP4 KECCAK256 PUSH1 0x2 SWAP1 DUP2 ADD DUP1 SLOAD PUSH1 0x1 DUP1 DUP3 ADD DUP4 SSTORE SWAP2 DUP7 MSTORE SWAP5 DUP5 SWAP1 KECCAK256 DUP8 MLOAD SWAP6 SWAP1 SWAP3 MUL SWAP1 SWAP2 ADD SWAP4 DUP5 SSTORE SWAP2 DUP6 ADD MLOAD SWAP2 DUP4 ADD DUP1 SLOAD PUSH2 0xFFFF NOT DUP2 AND PUSH2 0xFFFF SWAP1 SWAP5 AND SWAP4 DUP5 OR DUP3 SSTORE SWAP2 DUP7 ADD MLOAD DUP7 SWAP5 SWAP4 SWAP1 SWAP3 PUSH3 0xFFFFFF NOT AND OR PUSH3 0x10000 DUP4 PUSH1 0x3 DUP2 GT ISZERO PUSH2 0x4627 JUMPI PUSH2 0x4627 PUSH2 0x50A8 JUMP JUMPDEST MUL OR SWAP1 SSTORE POP PUSH1 0x60 DUP3 ADD MLOAD PUSH1 0x1 DUP3 ADD DUP1 SLOAD PUSH4 0xFF000000 NOT AND PUSH4 0x1000000 DUP4 PUSH1 0x2 DUP2 GT ISZERO PUSH2 0x4655 JUMPI PUSH2 0x4655 PUSH2 0x50A8 JUMP JUMPDEST MUL OR SWAP1 SSTORE POP POP POP POP POP JUMP JUMPDEST CALLER PUSH1 0x0 SWAP1 DUP2 MSTORE PUSH1 0x7 PUSH1 0x20 SWAP1 DUP2 MSTORE PUSH1 0x40 DUP1 DUP4 KECCAK256 PUSH1 0x1 SWAP1 DUP2 ADD DUP1 SLOAD DUP1 DUP4 ADD DUP3 SSTORE SWAP1 DUP6 MSTORE SWAP4 DUP4 SWAP1 KECCAK256 DUP7 MLOAD PUSH1 0x2 SWAP1 SWAP6 MUL ADD SWAP4 DUP5 SSTORE SWAP2 DUP6 ADD MLOAD SWAP2 DUP4 ADD DUP1 SLOAD PUSH2 0xFFFF NOT DUP2 AND PUSH2 0xFFFF SWAP1 SWAP5 AND SWAP4 DUP5 OR DUP3 SSTORE SWAP2 DUP7 ADD MLOAD DUP7 SWAP5 SWAP4 SWAP1 SWAP3 PUSH3 0xFFFFFF NOT AND OR PUSH3 0x10000 DUP4 PUSH1 0x3 DUP2 GT ISZERO PUSH2 0x4627 JUMPI PUSH2 0x4627 PUSH2 0x50A8 JUMP JUMPDEST PUSH1 0x0 DUP1 PUSH1 0x40 MLOAD DUP1 PUSH1 0x80 ADD PUSH1 0x40 MSTORE DUP1 DUP8 DUP2 MSTORE PUSH1 0x20 ADD DUP7 PUSH2 0xFFFF AND DUP2 MSTORE PUSH1 0x20 ADD DUP6 PUSH1 0x3 DUP2 GT ISZERO PUSH2 0x4700 JUMPI PUSH2 0x4700 PUSH2 0x50A8 JUMP JUMPDEST DUP2 MSTORE PUSH1 0x20 ADD DUP5 PUSH1 0x2 DUP2 GT ISZERO PUSH2 0x4717 JUMPI PUSH2 0x4717 PUSH2 0x50A8 JUMP JUMPDEST DUP2 MSTORE POP SWAP1 POP PUSH1 0x0 PUSH2 0x4735 DUP3 PUSH1 0x0 ADD MLOAD DUP4 PUSH1 0x40 ADD MLOAD DUP5 PUSH1 0x20 ADD MLOAD PUSH2 0xB67 JUMP JUMPDEST SWAP1 POP DUP1 PUSH1 0x80 ADD MLOAD ISZERO PUSH2 0x474C JUMPI PUSH1 0x1 SWAP3 POP POP POP PUSH2 0x4753 JUMP JUMPDEST PUSH1 0x0 SWAP3 POP POP POP JUMPDEST SWAP5 SWAP4 POP POP POP POP JUMP JUMPDEST PUSH1 0x0 DUP1 PUSH2 0x4767 DUP7 PUSH2 0x4AF9 JUMP JUMPDEST SWAP1 POP PUSH1 0x0 DUP1 PUSH1 0x0 DUP6 PUSH1 0xFF AND PUSH1 0x0 SUB PUSH2 0x478D JUMPI DUP4 PUSH1 0x20 ADD MLOAD PUSH2 0xFFFF AND SWAP3 POP PUSH1 0x7 SWAP2 POP PUSH2 0x4814 JUMP JUMPDEST DUP6 PUSH1 0xFF AND PUSH1 0x1 SUB PUSH2 0x47C4 JUMPI PUSH2 0x47B2 DUP5 PUSH1 0x80 ADD MLOAD PUSH2 0xFFFF AND DUP6 PUSH1 0xA0 ADD MLOAD PUSH2 0xFFFF AND PUSH2 0x4D90 JUMP JUMPDEST DUP5 MLOAD PUSH2 0xFFFF AND SWAP4 POP SWAP2 POP DUP2 SWAP1 POP PUSH2 0x4814 JUMP JUMPDEST DUP6 PUSH1 0xFF AND PUSH1 0x2 SUB PUSH2 0x47F8 JUMPI PUSH2 0x47E9 DUP5 PUSH1 0x60 ADD MLOAD PUSH2 0xFFFF AND DUP6 PUSH1 0x80 ADD MLOAD PUSH2 0xFFFF AND PUSH2 0x4E16 JUMP JUMPDEST PUSH2 0xFFFF AND SWAP3 POP PUSH1 0x5A SWAP2 POP PUSH2 0x4814 JUMP JUMPDEST DUP6 PUSH1 0xFF AND PUSH1 0x3 SUB PUSH2 0x4814 JUMPI DUP4 PUSH1 0x60 ADD MLOAD PUSH2 0xFFFF AND SWAP3 POP PUSH2 0x16D SWAP2 POP JUMPDEST DUP6 PUSH1 0xFF AND PUSH1 0x1 SUB PUSH2 0x48CF JUMPI PUSH1 0x0 PUSH2 0x16D PUSH2 0x482F DUP10 PUSH1 0xC PUSH2 0x5952 JUMP JUMPDEST PUSH2 0x4839 SWAP2 SWAP1 PUSH2 0x590E JUMP JUMPDEST SWAP1 POP DUP4 DUP10 PUSH5 0xFFFFFFFFFF AND EQ ISZERO DUP1 ISZERO PUSH2 0x4858 JUMPI POP DUP9 PUSH5 0xFFFFFFFFFF AND DUP5 GT JUMPDEST ISZERO PUSH2 0x4889 JUMPI PUSH2 0x486E PUSH5 0xFFFFFFFFFF DUP11 AND DUP6 PUSH2 0x5989 JUMP JUMPDEST PUSH2 0x4878 SWAP1 DUP5 PUSH2 0x5989 JUMP JUMPDEST PUSH2 0x4882 SWAP1 DUP3 PUSH2 0x5952 JUMP JUMPDEST SWAP8 POP PUSH2 0x48C9 JUMP JUMPDEST DUP4 DUP10 PUSH5 0xFFFFFFFFFF AND EQ ISZERO DUP1 ISZERO PUSH2 0x48A6 JUMPI POP DUP9 PUSH5 0xFFFFFFFFFF AND DUP5 LT JUMPDEST ISZERO PUSH2 0x48C9 JUMPI PUSH2 0x48BC DUP5 PUSH5 0xFFFFFFFFFF DUP12 AND PUSH2 0x5989 JUMP JUMPDEST PUSH2 0x48C6 SWAP1 DUP3 PUSH2 0x5952 JUMP JUMPDEST SWAP8 POP JUMPDEST POP PUSH2 0x4997 JUMP JUMPDEST PUSH1 0xFF DUP7 AND ISZERO DUP1 PUSH2 0x48E2 JUMPI POP DUP6 PUSH1 0xFF AND PUSH1 0x2 EQ JUMPDEST DUP1 PUSH2 0x48F0 JUMPI POP DUP6 PUSH1 0xFF AND PUSH1 0x3 EQ JUMPDEST ISZERO PUSH2 0x4997 JUMPI DUP3 DUP9 PUSH5 0xFFFFFFFFFF AND EQ ISZERO DUP1 ISZERO PUSH2 0x4912 JUMPI POP DUP8 PUSH5 0xFFFFFFFFFF AND DUP4 GT JUMPDEST ISZERO PUSH2 0x494D JUMPI PUSH2 0x4928 PUSH5 0xFFFFFFFFFF DUP10 AND DUP5 PUSH2 0x5989 JUMP JUMPDEST PUSH2 0x4932 SWAP1 DUP4 PUSH2 0x5989 JUMP JUMPDEST PUSH2 0x493C DUP4 DUP10 PUSH2 0x590E JUMP JUMPDEST PUSH2 0x4946 SWAP2 SWAP1 PUSH2 0x5952 JUMP JUMPDEST SWAP7 POP PUSH2 0x4997 JUMP JUMPDEST DUP3 DUP9 PUSH5 0xFFFFFFFFFF AND EQ ISZERO DUP1 ISZERO PUSH2 0x496A JUMPI POP DUP8 PUSH5 0xFFFFFFFFFF AND DUP4 LT JUMPDEST ISZERO PUSH2 0x4997 JUMPI PUSH2 0x4980 DUP4 PUSH5 0xFFFFFFFFFF DUP11 AND PUSH2 0x5989 JUMP JUMPDEST PUSH2 0x498A DUP4 DUP10 PUSH2 0x590E JUMP JUMPDEST PUSH2 0x4994 SWAP2 SWAP1 PUSH2 0x5952 JUMP JUMPDEST SWAP7 POP JUMPDEST POP SWAP5 SWAP8 SWAP7 POP POP POP POP POP POP POP JUMP JUMPDEST PUSH1 0x0 DUP3 DUP2 MSTORE PUSH1 0xB PUSH1 0x20 MSTORE PUSH1 0x40 DUP2 KECCAK256 DUP1 SLOAD SWAP1 SWAP2 SWAP1 DUP2 JUMPDEST DUP2 DUP2 LT ISZERO PUSH2 0x4A32 JUMPI DUP5 PUSH1 0x1 PUSH1 0x1 PUSH1 0xA0 SHL SUB AND DUP5 DUP3 DUP2 SLOAD DUP2 LT PUSH2 0x49DD JUMPI PUSH2 0x49DD PUSH2 0x587D JUMP JUMPDEST PUSH1 0x0 SWAP2 DUP3 MSTORE PUSH1 0x20 SWAP1 SWAP2 KECCAK256 ADD SLOAD PUSH1 0x1 PUSH1 0x1 PUSH1 0xA0 SHL SUB AND SUB PUSH2 0x4A2A JUMPI DUP1 SWAP3 POP DUP4 DUP2 DUP2 SLOAD DUP2 LT PUSH2 0x4A0C JUMPI PUSH2 0x4A0C PUSH2 0x587D JUMP JUMPDEST PUSH1 0x0 SWAP2 DUP3 MSTORE PUSH1 0x20 SWAP1 SWAP2 KECCAK256 ADD DUP1 SLOAD PUSH1 0x1 PUSH1 0x1 PUSH1 0xA0 SHL SUB NOT AND SWAP1 SSTORE PUSH2 0x4A32 JUMP JUMPDEST PUSH1 0x1 ADD PUSH2 0x49B9 JUMP JUMPDEST POP DUP3 SLOAD DUP4 SWAP1 PUSH2 0x4A43 SWAP1 PUSH1 0x1 SWAP1 PUSH2 0x5989 JUMP JUMPDEST DUP2 SLOAD DUP2 LT PUSH2 0x4A53 JUMPI PUSH2 0x4A53 PUSH2 0x587D JUMP JUMPDEST SWAP1 PUSH1 0x0 MSTORE PUSH1 0x20 PUSH1 0x0 KECCAK256 ADD PUSH1 0x0 SWAP1 SLOAD SWAP1 PUSH2 0x100 EXP SWAP1 DIV PUSH1 0x1 PUSH1 0x1 PUSH1 0xA0 SHL SUB AND DUP4 DUP4 DUP2 SLOAD DUP2 LT PUSH2 0x4A83 JUMPI PUSH2 0x4A83 PUSH2 0x587D JUMP JUMPDEST SWAP1 PUSH1 0x0 MSTORE PUSH1 0x20 PUSH1 0x0 KECCAK256 ADD PUSH1 0x0 PUSH2 0x100 EXP DUP2 SLOAD DUP2 PUSH1 0x1 PUSH1 0x1 PUSH1 0xA0 SHL SUB MUL NOT AND SWAP1 DUP4 PUSH1 0x1 PUSH1 0x1 PUSH1 0xA0 SHL SUB AND MUL OR SWAP1 SSTORE POP DUP3 DUP1 SLOAD DUP1 PUSH2 0x4AC1 JUMPI PUSH2 0x4AC1 PUSH2 0x5A9A JUMP JUMPDEST PUSH1 0x0 DUP3 DUP2 MSTORE PUSH1 0x20 SWAP1 KECCAK256 DUP2 ADD PUSH1 0x0 NOT SWAP1 DUP2 ADD DUP1 SLOAD PUSH1 0x1 PUSH1 0x1 PUSH1 0xA0 SHL SUB NOT AND SWAP1 SSTORE ADD SWAP1 SSTORE POP POP POP POP POP JUMP JUMPDEST PUSH1 0x0 PUSH2 0x2B05 PUSH3 0x15180 DUP4 PUSH2 0x5AB0 JUMP JUMPDEST PUSH1 0x40 DUP1 MLOAD PUSH1 0xC0 DUP2 ADD DUP3 MSTORE PUSH1 0x0 DUP1 DUP3 MSTORE PUSH1 0x20 DUP3 ADD DUP2 SWAP1 MSTORE SWAP2 DUP2 ADD DUP3 SWAP1 MSTORE PUSH1 0x60 DUP2 ADD DUP3 SWAP1 MSTORE PUSH1 0x80 DUP2 ADD DUP3 SWAP1 MSTORE PUSH1 0xA0 DUP2 ADD DUP3 SWAP1 MSTORE SWAP1 PUSH2 0x4B38 PUSH3 0x15180 DUP5 PUSH2 0x590E JUMP JUMPDEST SWAP1 POP PUSH1 0x0 DUP1 DUP3 DUP2 PUSH2 0x4B4C DUP3 PUSH3 0x10BD9 PUSH2 0x5ADA JUMP JUMPDEST PUSH2 0x4B59 SWAP1 PUSH3 0x253D8C PUSH2 0x5ADA JUMP JUMPDEST SWAP1 POP PUSH1 0x0 PUSH3 0x23AB1 PUSH2 0x4B6C DUP4 PUSH1 0x4 PUSH2 0x5B02 JUMP JUMPDEST PUSH2 0x4B76 SWAP2 SWAP1 PUSH2 0x5B32 JUMP JUMPDEST SWAP1 POP PUSH1 0x4 PUSH2 0x4B87 DUP3 PUSH3 0x23AB1 PUSH2 0x5B02 JUMP JUMPDEST PUSH2 0x4B92 SWAP1 PUSH1 0x3 PUSH2 0x5ADA JUMP JUMPDEST PUSH2 0x4B9C SWAP2 SWAP1 PUSH2 0x5B32 JUMP JUMPDEST PUSH2 0x4BA6 SWAP1 DUP4 PUSH2 0x5B60 JUMP JUMPDEST SWAP2 POP PUSH1 0x0 PUSH3 0x164B09 PUSH2 0x4BB9 DUP5 PUSH1 0x1 PUSH2 0x5ADA JUMP JUMPDEST PUSH2 0x4BC5 SWAP1 PUSH2 0xFA0 PUSH2 0x5B02 JUMP JUMPDEST PUSH2 0x4BCF SWAP2 SWAP1 PUSH2 0x5B32 JUMP JUMPDEST SWAP1 POP PUSH1 0x4 PUSH2 0x4BDF DUP3 PUSH2 0x5B5 PUSH2 0x5B02 JUMP JUMPDEST PUSH2 0x4BE9 SWAP2 SWAP1 PUSH2 0x5B32 JUMP JUMPDEST PUSH2 0x4BF3 SWAP1 DUP5 PUSH2 0x5B60 JUMP JUMPDEST PUSH2 0x4BFE SWAP1 PUSH1 0x1F PUSH2 0x5ADA JUMP JUMPDEST SWAP3 POP PUSH1 0x0 PUSH2 0x98F PUSH2 0x4C10 DUP6 PUSH1 0x50 PUSH2 0x5B02 JUMP JUMPDEST PUSH2 0x4C1A SWAP2 SWAP1 PUSH2 0x5B32 JUMP JUMPDEST SWAP1 POP PUSH1 0x0 PUSH1 0x50 PUSH2 0x4C2C DUP4 PUSH2 0x98F PUSH2 0x5B02 JUMP JUMPDEST PUSH2 0x4C36 SWAP2 SWAP1 PUSH2 0x5B32 JUMP JUMPDEST PUSH2 0x4C40 SWAP1 DUP7 PUSH2 0x5B60 JUMP JUMPDEST SWAP1 POP PUSH2 0x4C4D PUSH1 0xB DUP4 PUSH2 0x5B32 JUMP JUMPDEST SWAP5 POP PUSH2 0x4C5A DUP6 PUSH1 0xC PUSH2 0x5B02 JUMP JUMPDEST PUSH2 0x4C65 DUP4 PUSH1 0x2 PUSH2 0x5ADA JUMP JUMPDEST PUSH2 0x4C6F SWAP2 SWAP1 PUSH2 0x5B60 JUMP JUMPDEST SWAP2 POP DUP5 DUP4 PUSH2 0x4C7E PUSH1 0x31 DUP8 PUSH2 0x5B60 JUMP JUMPDEST PUSH2 0x4C89 SWAP1 PUSH1 0x64 PUSH2 0x5B02 JUMP JUMPDEST PUSH2 0x4C93 SWAP2 SWAP1 PUSH2 0x5ADA JUMP JUMPDEST PUSH2 0x4C9D SWAP2 SWAP1 PUSH2 0x5ADA JUMP JUMPDEST SWAP1 SWAP8 POP SWAP2 POP DUP7 DUP3 DUP3 DUP3 PUSH1 0x0 PUSH1 0x1 JUMPDEST DUP4 DUP2 GT PUSH2 0x4CF7 JUMPI DUP4 DUP2 SUB PUSH2 0x4CCE JUMPI PUSH2 0x4CC7 PUSH2 0xFFFF DUP15 AND DUP4 PUSH2 0x5922 JUMP JUMPDEST SWAP2 POP PUSH2 0x4CE5 JUMP JUMPDEST PUSH2 0x4CD8 DUP6 DUP6 PUSH2 0x4D90 JUMP JUMPDEST PUSH2 0x4CE2 SWAP1 DUP4 PUSH2 0x5922 JUMP JUMPDEST SWAP2 POP JUMPDEST DUP1 PUSH2 0x4CEF DUP2 PUSH2 0x599C JUMP JUMPDEST SWAP2 POP POP PUSH2 0x4CAB JUMP JUMPDEST POP DUP1 SWAP11 POP PUSH2 0x4D09 DUP12 PUSH2 0xFFFF AND DUP6 PUSH2 0x4E16 JUMP JUMPDEST PUSH2 0xFFFF AND PUSH1 0x40 DUP16 ADD MSTORE PUSH2 0x4D1B DUP16 PUSH2 0x4EE4 JUMP JUMPDEST DUP15 PUSH1 0x20 ADD SWAP1 PUSH2 0xFFFF AND SWAP1 DUP2 PUSH2 0xFFFF AND DUP2 MSTORE POP POP DUP12 DUP15 PUSH1 0x0 ADD SWAP1 PUSH2 0xFFFF AND SWAP1 DUP2 PUSH2 0xFFFF AND DUP2 MSTORE POP POP DUP11 DUP15 PUSH1 0x60 ADD SWAP1 PUSH2 0xFFFF AND SWAP1 DUP2 PUSH2 0xFFFF AND DUP2 MSTORE POP POP DUP4 DUP15 PUSH1 0x80 ADD SWAP1 PUSH2 0xFFFF AND SWAP1 DUP2 PUSH2 0xFFFF AND DUP2 MSTORE POP POP DUP3 DUP15 PUSH1 0xA0 ADD SWAP1 PUSH2 0xFFFF AND SWAP1 DUP2 PUSH2 0xFFFF AND DUP2 MSTORE POP POP POP POP POP POP POP POP POP POP POP POP POP POP POP SWAP2 SWAP1 POP JUMP JUMPDEST PUSH1 0x0 DUP2 PUSH1 0x1 EQ DUP1 PUSH2 0x4DA1 JUMPI POP DUP2 PUSH1 0x3 EQ JUMPDEST DUP1 PUSH2 0x4DAC JUMPI POP DUP2 PUSH1 0x5 EQ JUMPDEST DUP1 PUSH2 0x4DB7 JUMPI POP DUP2 PUSH1 0x7 EQ JUMPDEST DUP1 PUSH2 0x4DC2 JUMPI POP DUP2 PUSH1 0x8 EQ JUMPDEST DUP1 PUSH2 0x4DCD JUMPI POP DUP2 PUSH1 0xA EQ JUMPDEST DUP1 PUSH2 0x4DD8 JUMPI POP DUP2 PUSH1 0xC EQ JUMPDEST ISZERO PUSH2 0x4DE5 JUMPI POP PUSH1 0x1F PUSH2 0x2B05 JUMP JUMPDEST DUP2 PUSH1 0x2 EQ PUSH2 0x4DF5 JUMPI POP PUSH1 0x1E PUSH2 0x2B05 JUMP JUMPDEST PUSH2 0x4DFE DUP4 PUSH2 0x4F1A JUMP JUMPDEST PUSH2 0x4E09 JUMPI PUSH1 0x1C PUSH2 0x4E0C JUMP JUMPDEST PUSH1 0x1D JUMPDEST PUSH1 0xFF AND SWAP4 SWAP3 POP POP POP JUMP JUMPDEST PUSH1 0x0 DUP1 PUSH2 0x4E22 DUP4 PUSH2 0x4F1A JUMP JUMPDEST ISZERO PUSH2 0x4E2F JUMPI POP PUSH1 0x1 PUSH2 0x4E33 JUMP JUMPDEST POP PUSH1 0x0 JUMPDEST PUSH2 0x4E3E DUP2 PUSH1 0x5A PUSH2 0x5922 JUMP JUMPDEST DUP5 GT PUSH2 0x4E4C JUMPI DUP4 SWAP2 POP PUSH2 0x4EDD JUMP JUMPDEST DUP4 PUSH2 0x4E58 DUP3 PUSH1 0x5A PUSH2 0x5922 JUMP JUMPDEST LT DUP1 ISZERO PUSH2 0x4E6F JUMPI POP PUSH2 0x4E6B DUP2 PUSH1 0xB5 PUSH2 0x5922 JUMP JUMPDEST DUP5 GT ISZERO JUMPDEST ISZERO PUSH2 0x4E90 JUMPI PUSH2 0x4E7F DUP2 PUSH1 0x5A PUSH2 0x5922 JUMP JUMPDEST PUSH2 0x4E89 SWAP1 DUP6 PUSH2 0x5989 JUMP JUMPDEST SWAP2 POP PUSH2 0x4EDD JUMP JUMPDEST DUP4 PUSH2 0x4E9C DUP3 PUSH1 0xB5 PUSH2 0x5922 JUMP JUMPDEST LT DUP1 ISZERO PUSH2 0x4EB4 JUMPI POP PUSH2 0x4EB0 DUP2 PUSH2 0x111 PUSH2 0x5922 JUMP JUMPDEST DUP5 GT ISZERO JUMPDEST ISZERO PUSH2 0x4EC4 JUMPI PUSH2 0x4E7F DUP2 PUSH1 0xB5 PUSH2 0x5922 JUMP JUMPDEST PUSH2 0x4ED0 DUP2 PUSH2 0x111 PUSH2 0x5922 JUMP JUMPDEST PUSH2 0x4EDA SWAP1 DUP6 PUSH2 0x5989 JUMP JUMPDEST SWAP2 POP JUMPDEST POP SWAP3 SWAP2 POP POP JUMP JUMPDEST PUSH1 0x0 DUP1 PUSH2 0x4EF4 PUSH3 0x15180 DUP5 PUSH2 0x590E JUMP JUMPDEST SWAP1 POP PUSH1 0x0 PUSH1 0x7 PUSH2 0x4F05 DUP4 PUSH1 0x3 PUSH2 0x5922 JUMP JUMPDEST PUSH2 0x4F0F SWAP2 SWAP1 PUSH2 0x5B80 JUMP JUMPDEST PUSH2 0x4753 SWAP1 PUSH1 0x1 PUSH2 0x5922 JUMP JUMPDEST PUSH1 0x0 PUSH2 0x4F27 PUSH1 0x4 DUP4 PUSH2 0x5B80 JUMP JUMPDEST ISZERO DUP1 ISZERO PUSH2 0x4F3D JUMPI POP PUSH2 0x4F3A PUSH1 0x64 DUP4 PUSH2 0x5B80 JUMP JUMPDEST ISZERO ISZERO JUMPDEST DUP1 PUSH2 0x2B05 JUMPI POP PUSH2 0x4F4F PUSH2 0x190 DUP4 PUSH2 0x5B80 JUMP JUMPDEST ISZERO SWAP3 SWAP2 POP POP JUMP JUMPDEST PUSH1 0x1 PUSH1 0x1 PUSH1 0xA0 SHL SUB DUP2 AND DUP2 EQ PUSH2 0x3AB0 JUMPI PUSH1 0x0 DUP1 REVERT JUMPDEST DUP1 CALLDATALOAD PUSH2 0x4F76 DUP2 PUSH2 0x4F56 JUMP JUMPDEST SWAP2 SWAP1 POP JUMP JUMPDEST PUSH1 0x0 PUSH1 0x20 DUP3 DUP5 SUB SLT ISZERO PUSH2 0x4F8D JUMPI PUSH1 0x0 DUP1 REVERT JUMPDEST DUP2 CALLDATALOAD PUSH2 0x4F98 DUP2 PUSH2 0x4F56 JUMP JUMPDEST SWAP4 SWAP3 POP POP POP JUMP JUMPDEST PUSH1 0x0 PUSH1 0x40 DUP3 DUP5 SUB SLT ISZERO PUSH2 0x4FB1 JUMPI PUSH1 0x0 DUP1 REVERT JUMPDEST POP SWAP2 SWAP1 POP JUMP JUMPDEST DUP1 CALLDATALOAD PUSH1 0x4 DUP2 LT PUSH2 0x4F76 JUMPI PUSH1 0x0 DUP1 REVERT JUMPDEST DUP1 CALLDATALOAD PUSH2 0xFFFF DUP2 AND DUP2 EQ PUSH2 0x4F76 JUMPI PUSH1 0x0 DUP1 REVERT JUMPDEST PUSH1 0x0 DUP1 PUSH1 0x0 DUP1 PUSH1 0x0 PUSH1 0xA0 DUP7 DUP9 SUB SLT ISZERO PUSH2 0x4FF0 JUMPI PUSH1 0x0 DUP1 REVERT JUMPDEST DUP6 CALLDATALOAD SWAP5 POP PUSH1 0x20 DUP7 ADD CALLDATALOAD PUSH2 0x5002 DUP2 PUSH2 0x4F56 JUMP JUMPDEST SWAP4 POP PUSH1 0x40 DUP7 ADD CALLDATALOAD PUSH8 0xFFFFFFFFFFFFFFFF DUP2 GT ISZERO PUSH2 0x501E JUMPI PUSH1 0x0 DUP1 REVERT JUMPDEST PUSH2 0x502A DUP9 DUP3 DUP10 ADD PUSH2 0x4F9F JUMP JUMPDEST SWAP4 POP POP PUSH2 0x5039 PUSH1 0x60 DUP8 ADD PUSH2 0x4FB7 JUMP JUMPDEST SWAP2 POP PUSH2 0x5047 PUSH1 0x80 DUP8 ADD PUSH2 0x4FC6 JUMP JUMPDEST SWAP1 POP SWAP3 SWAP6 POP SWAP3 SWAP6 SWAP1 SWAP4 POP JUMP JUMPDEST PUSH1 0x0 PUSH1 0x20 DUP3 DUP5 SUB SLT ISZERO PUSH2 0x5065 JUMPI PUSH1 0x0 DUP1 REVERT JUMPDEST POP CALLDATALOAD SWAP2 SWAP1 POP JUMP JUMPDEST PUSH1 0x0 DUP1 PUSH1 0x0 PUSH1 0x60 DUP5 DUP7 SUB SLT ISZERO PUSH2 0x5081 JUMPI PUSH1 0x0 DUP1 REVERT JUMPDEST DUP4 CALLDATALOAD SWAP3 POP PUSH2 0x5091 PUSH1 0x20 DUP6 ADD PUSH2 0x4FB7 JUMP JUMPDEST SWAP2 POP PUSH2 0x509F PUSH1 0x40 DUP6 ADD PUSH2 0x4FC6 JUMP JUMPDEST SWAP1 POP SWAP3 POP SWAP3 POP SWAP3 JUMP JUMPDEST PUSH4 0x4E487B71 PUSH1 0xE0 SHL PUSH1 0x0 MSTORE PUSH1 0x21 PUSH1 0x4 MSTORE PUSH1 0x24 PUSH1 0x0 REVERT JUMPDEST PUSH1 0x4 DUP2 LT PUSH2 0x50CE JUMPI PUSH2 0x50CE PUSH2 0x50A8 JUMP JUMPDEST SWAP1 MSTORE JUMP JUMPDEST DUP1 MLOAD DUP3 MSTORE PUSH1 0x20 DUP2 ADD MLOAD PUSH1 0x20 DUP4 ADD MSTORE PUSH1 0x1 PUSH1 0x1 PUSH1 0xA0 SHL SUB PUSH1 0x40 DUP3 ADD MLOAD AND PUSH1 0x40 DUP4 ADD MSTORE PUSH1 0x1 PUSH1 0x1 PUSH1 0xA0 SHL SUB PUSH1 0x60 DUP3 ADD MLOAD AND PUSH1 0x60 DUP4 ADD MSTORE PUSH1 0x80 DUP2 ADD MLOAD ISZERO ISZERO PUSH1 0x80 DUP4 ADD MSTORE PUSH1 0xA0 DUP2 ADD MLOAD PUSH2 0x5125 PUSH1 0xA0 DUP5 ADD DUP3 ISZERO ISZERO SWAP1 MSTORE JUMP JUMPDEST POP PUSH1 0xC0 DUP2 ADD MLOAD PUSH2 0x5138 PUSH1 0xC0 DUP5 ADD DUP3 PUSH2 0x50BE JUMP JUMPDEST POP PUSH1 0xE0 DUP2 ADD MLOAD PUSH2 0x1390 PUSH1 0xE0 DUP5 ADD DUP3 PUSH2 0xFFFF AND SWAP1 MSTORE JUMP JUMPDEST PUSH2 0x100 DUP2 ADD PUSH2 0x2B05 DUP3 DUP5 PUSH2 0x50D2 JUMP JUMPDEST PUSH1 0x0 PUSH2 0x100 DUP3 DUP5 SUB SLT DUP1 ISZERO PUSH2 0x5171 JUMPI PUSH1 0x0 DUP1 REVERT JUMPDEST POP SWAP1 SWAP3 SWAP2 POP POP JUMP JUMPDEST PUSH4 0x4E487B71 PUSH1 0xE0 SHL PUSH1 0x0 MSTORE PUSH1 0x41 PUSH1 0x4 MSTORE PUSH1 0x24 PUSH1 0x0 REVERT JUMPDEST PUSH1 0x40 MLOAD PUSH2 0x100 DUP2 ADD PUSH8 0xFFFFFFFFFFFFFFFF DUP2 GT DUP3 DUP3 LT OR ISZERO PUSH2 0x51B3 JUMPI PUSH2 0x51B3 PUSH2 0x5179 JUMP JUMPDEST PUSH1 0x40 MSTORE SWAP1 JUMP JUMPDEST PUSH1 0x40 MLOAD PUSH1 0xC0 DUP2 ADD PUSH8 0xFFFFFFFFFFFFFFFF DUP2 GT DUP3 DUP3 LT OR ISZERO PUSH2 0x51B3 JUMPI PUSH2 0x51B3 PUSH2 0x5179 JUMP JUMPDEST DUP1 ISZERO ISZERO DUP2 EQ PUSH2 0x3AB0 JUMPI PUSH1 0x0 DUP1 REVERT JUMPDEST DUP1 CALLDATALOAD PUSH2 0x4F76 DUP2 PUSH2 0x51DC JUMP JUMPDEST PUSH1 0x0 PUSH2 0x100 DUP3 DUP5 SUB SLT ISZERO PUSH2 0x5208 JUMPI PUSH1 0x0 DUP1 REVERT JUMPDEST PUSH2 0x5210 PUSH2 0x518F JUMP JUMPDEST DUP3 CALLDATALOAD DUP2 MSTORE PUSH1 0x20 DUP1 DUP5 ADD CALLDATALOAD SWAP1 DUP3 ADD MSTORE SWAP1 POP PUSH1 0x40 DUP3 ADD CALLDATALOAD PUSH2 0x522E DUP2 PUSH2 0x4F56 JUMP JUMPDEST PUSH1 0x40 DUP3 ADD MSTORE PUSH2 0x523F PUSH1 0x60 DUP4 ADD PUSH2 0x4F6B JUMP JUMPDEST PUSH1 0x60 DUP3 ADD MSTORE PUSH2 0x5250 PUSH1 0x80 DUP4 ADD PUSH2 0x51EA JUMP JUMPDEST PUSH1 0x80 DUP3 ADD MSTORE PUSH2 0x5261 PUSH1 0xA0 DUP4 ADD PUSH2 0x51EA JUMP JUMPDEST PUSH1 0xA0 DUP3 ADD MSTORE PUSH2 0x5272 PUSH1 0xC0 DUP4 ADD PUSH2 0x4FB7 JUMP JUMPDEST PUSH1 0xC0 DUP3 ADD MSTORE PUSH2 0x5283 PUSH1 0xE0 DUP4 ADD PUSH2 0x4FC6 JUMP JUMPDEST PUSH1 0xE0 DUP3 ADD MSTORE SWAP3 SWAP2 POP POP JUMP JUMPDEST PUSH1 0x0 PUSH2 0x100 DUP3 DUP5 SUB SLT ISZERO PUSH2 0x52A1 JUMPI PUSH1 0x0 DUP1 REVERT JUMPDEST PUSH2 0x4F98 DUP4 DUP4 PUSH2 0x51F5 JUMP JUMPDEST PUSH1 0x20 DUP1 DUP3 MSTORE DUP3 MLOAD DUP3 DUP3 ADD DUP2 SWAP1 MSTORE PUSH1 0x0 SWAP2 DUP5 ADD SWAP1 PUSH1 0x40 DUP5 ADD SWAP1 DUP4 JUMPDEST DUP2 DUP2 LT ISZERO PUSH2 0x52F8 JUMPI DUP4 MLOAD DUP1 MLOAD PUSH1 0x1 PUSH1 0x1 PUSH1 0xA0 SHL SUB AND DUP5 MSTORE PUSH1 0x20 SWAP1 DUP2 ADD MLOAD DUP2 DUP6 ADD MSTORE SWAP1 SWAP4 ADD SWAP3 PUSH1 0x40 SWAP1 SWAP3 ADD SWAP2 PUSH1 0x1 ADD PUSH2 0x52C5 JUMP JUMPDEST POP SWAP1 SWAP6 SWAP5 POP POP POP POP POP JUMP JUMPDEST PUSH1 0x0 DUP1 PUSH1 0x40 DUP4 DUP6 SUB SLT ISZERO PUSH2 0x5316 JUMPI PUSH1 0x0 DUP1 REVERT JUMPDEST DUP3 CALLDATALOAD PUSH2 0x5321 DUP2 PUSH2 0x51DC JUMP JUMPDEST SWAP2 POP PUSH1 0x20 DUP4 ADD CALLDATALOAD PUSH2 0x5331 DUP2 PUSH2 0x4F56 JUMP JUMPDEST DUP1 SWAP2 POP POP SWAP3 POP SWAP3 SWAP1 POP JUMP JUMPDEST PUSH1 0x3 DUP2 LT PUSH2 0x50CE JUMPI PUSH2 0x50CE PUSH2 0x50A8 JUMP JUMPDEST PUSH1 0x20 DUP1 DUP3 MSTORE DUP3 MLOAD DUP3 DUP3 ADD DUP2 SWAP1 MSTORE PUSH1 0x0 SWAP2 DUP5 ADD SWAP1 PUSH1 0x40 DUP5 ADD SWAP1 DUP4 JUMPDEST DUP2 DUP2 LT ISZERO PUSH2 0x52F8 JUMPI DUP4 MLOAD PUSH2 0x537B DUP5 DUP3 MLOAD PUSH2 0x50D2 JUMP JUMPDEST PUSH1 0x20 DUP2 ADD MLOAD PUSH2 0x538E PUSH2 0x100 DUP7 ADD DUP3 PUSH2 0x533C JUMP JUMPDEST POP PUSH1 0x40 ADD MLOAD PUSH2 0x120 DUP5 ADD MSTORE PUSH1 0x20 SWAP4 SWAP1 SWAP4 ADD SWAP3 PUSH2 0x140 SWAP1 SWAP3 ADD SWAP2 PUSH1 0x1 ADD PUSH2 0x5366 JUMP JUMPDEST PUSH1 0x0 DUP1 PUSH2 0x120 DUP4 DUP6 SUB SLT ISZERO PUSH2 0x53C3 JUMPI PUSH1 0x0 DUP1 REVERT JUMPDEST PUSH2 0x53CD DUP5 DUP5 PUSH2 0x51F5 JUMP JUMPDEST SWAP2 POP PUSH2 0x100 DUP4 ADD CALLDATALOAD PUSH2 0x5331 DUP2 PUSH2 0x4F56 JUMP JUMPDEST PUSH1 0x0 PUSH1 0x20 DUP3 DUP5 SUB SLT ISZERO PUSH2 0x53F0 JUMPI PUSH1 0x0 DUP1 REVERT JUMPDEST DUP2 CALLDATALOAD PUSH2 0x4F98 DUP2 PUSH2 0x51DC JUMP JUMPDEST PUSH1 0x0 DUP1 PUSH1 0x40 DUP4 DUP6 SUB SLT ISZERO PUSH2 0x540E JUMPI PUSH1 0x0 DUP1 REVERT JUMPDEST DUP3 CALLDATALOAD PUSH8 0xFFFFFFFFFFFFFFFF DUP2 GT ISZERO PUSH2 0x5425 JUMPI PUSH1 0x0 DUP1 REVERT JUMPDEST PUSH2 0x5431 DUP6 DUP3 DUP7 ADD PUSH2 0x4F9F JUMP JUMPDEST SWAP6 PUSH1 0x20 SWAP5 SWAP1 SWAP5 ADD CALLDATALOAD SWAP5 POP POP POP POP JUMP JUMPDEST PUSH1 0x20 DUP1 DUP3 MSTORE DUP3 MLOAD DUP3 DUP3 ADD DUP2 SWAP1 MSTORE PUSH1 0x0 SWAP2 DUP5 ADD SWAP1 PUSH1 0x40 DUP5 ADD SWAP1 DUP4 JUMPDEST DUP2 DUP2 LT ISZERO PUSH2 0x52F8 JUMPI DUP4 MLOAD DUP1 MLOAD DUP5 MSTORE PUSH1 0x20 SWAP1 DUP2 ADD MLOAD PUSH1 0x1 PUSH1 0x1 PUSH1 0xA0 SHL SUB AND DUP2 DUP6 ADD MSTORE SWAP1 SWAP4 ADD SWAP3 PUSH1 0x40 SWAP1 SWAP3 ADD SWAP2 PUSH1 0x1 ADD PUSH2 0x545A JUMP JUMPDEST PUSH1 0x0 DUP1 PUSH1 0x40 DUP4 DUP6 SUB SLT ISZERO PUSH2 0x54A0 JUMPI PUSH1 0x0 DUP1 REVERT JUMPDEST DUP3 CALLDATALOAD SWAP2 POP PUSH1 0x20 DUP4 ADD CALLDATALOAD PUSH2 0x5331 DUP2 PUSH2 0x4F56 JUMP JUMPDEST PUSH1 0x0 DUP3 PUSH1 0x1F DUP4 ADD SLT PUSH2 0x54C3 JUMPI PUSH1 0x0 DUP1 REVERT JUMPDEST DUP2 CALLDATALOAD PUSH8 0xFFFFFFFFFFFFFFFF DUP2 GT ISZERO PUSH2 0x54DD JUMPI PUSH2 0x54DD PUSH2 0x5179 JUMP JUMPDEST PUSH1 0x40 MLOAD PUSH1 0x1F DUP3 ADD PUSH1 0x1F NOT SWAP1 DUP2 AND PUSH1 0x3F ADD AND DUP2 ADD PUSH8 0xFFFFFFFFFFFFFFFF DUP2 GT DUP3 DUP3 LT OR ISZERO PUSH2 0x550C JUMPI PUSH2 0x550C PUSH2 0x5179 JUMP JUMPDEST PUSH1 0x40 MSTORE DUP2 DUP2 MSTORE DUP4 DUP3 ADD PUSH1 0x20 ADD DUP6 LT ISZERO PUSH2 0x5524 JUMPI PUSH1 0x0 DUP1 REVERT JUMPDEST DUP2 PUSH1 0x20 DUP6 ADD PUSH1 0x20 DUP4 ADD CALLDATACOPY PUSH1 0x0 SWAP2 DUP2 ADD PUSH1 0x20 ADD SWAP2 SWAP1 SWAP2 MSTORE SWAP4 SWAP3 POP POP POP JUMP JUMPDEST PUSH1 0x0 PUSH1 0x20 DUP3 DUP5 SUB SLT ISZERO PUSH2 0x5553 JUMPI PUSH1 0x0 DUP1 REVERT JUMPDEST DUP2 CALLDATALOAD PUSH8 0xFFFFFFFFFFFFFFFF DUP2 GT ISZERO PUSH2 0x556A JUMPI PUSH1 0x0 DUP1 REVERT JUMPDEST DUP3 ADD PUSH1 0xC0 DUP2 DUP6 SUB SLT ISZERO PUSH2 0x557C JUMPI PUSH1 0x0 DUP1 REVERT JUMPDEST PUSH2 0x5584 PUSH2 0x51B9 JUMP JUMPDEST DUP2 CALLDATALOAD PUSH8 0xFFFFFFFFFFFFFFFF DUP2 GT ISZERO PUSH2 0x559B JUMPI PUSH1 0x0 DUP1 REVERT JUMPDEST PUSH2 0x55A7 DUP7 DUP3 DUP6 ADD PUSH2 0x54B2 JUMP JUMPDEST DUP3 MSTORE POP PUSH1 0x20 DUP3 ADD CALLDATALOAD PUSH8 0xFFFFFFFFFFFFFFFF DUP2 GT ISZERO PUSH2 0x55C4 JUMPI PUSH1 0x0 DUP1 REVERT JUMPDEST PUSH2 0x55D0 DUP7 DUP3 DUP6 ADD PUSH2 0x54B2 JUMP JUMPDEST PUSH1 0x20 DUP4 ADD MSTORE POP PUSH1 0x40 DUP3 ADD CALLDATALOAD PUSH8 0xFFFFFFFFFFFFFFFF DUP2 GT ISZERO PUSH2 0x55F0 JUMPI PUSH1 0x0 DUP1 REVERT JUMPDEST PUSH2 0x55FC DUP7 DUP3 DUP6 ADD PUSH2 0x54B2 JUMP JUMPDEST PUSH1 0x40 DUP4 ADD MSTORE POP PUSH1 0x60 DUP3 ADD CALLDATALOAD PUSH8 0xFFFFFFFFFFFFFFFF DUP2 GT ISZERO PUSH2 0x561C JUMPI PUSH1 0x0 DUP1 REVERT JUMPDEST PUSH2 0x5628 DUP7 DUP3 DUP6 ADD PUSH2 0x54B2 JUMP JUMPDEST PUSH1 0x60 DUP4 ADD MSTORE POP PUSH1 0x80 DUP3 ADD CALLDATALOAD PUSH8 0xFFFFFFFFFFFFFFFF DUP2 GT ISZERO PUSH2 0x5648 JUMPI PUSH1 0x0 DUP1 REVERT JUMPDEST PUSH2 0x5654 DUP7 DUP3 DUP6 ADD PUSH2 0x54B2 JUMP JUMPDEST PUSH1 0x80 DUP4 ADD MSTORE POP PUSH1 0xA0 DUP3 ADD CALLDATALOAD PUSH8 0xFFFFFFFFFFFFFFFF DUP2 GT ISZERO PUSH2 0x5674 JUMPI PUSH1 0x0 DUP1 REVERT JUMPDEST PUSH2 0x5680 DUP7 DUP3 DUP6 ADD PUSH2 0x54B2 JUMP JUMPDEST PUSH1 0xA0 DUP4 ADD MSTORE POP SWAP5 SWAP4 POP POP POP POP JUMP JUMPDEST PUSH1 0x0 DUP1 PUSH1 0x40 DUP4 DUP6 SUB SLT ISZERO PUSH2 0x56A1 JUMPI PUSH1 0x0 DUP1 REVERT JUMPDEST DUP3 CALLDATALOAD PUSH2 0x56AC DUP2 PUSH2 0x4F56 JUMP JUMPDEST SWAP5 PUSH1 0x20 SWAP4 SWAP1 SWAP4 ADD CALLDATALOAD SWAP4 POP POP POP JUMP JUMPDEST PUSH1 0x0 DUP2 MLOAD DUP1 DUP5 MSTORE PUSH1 0x20 DUP5 ADD SWAP4 POP PUSH1 0x20 DUP4 ADD PUSH1 0x0 JUMPDEST DUP3 DUP2 LT ISZERO PUSH2 0x5728 JUMPI DUP2 MLOAD DUP1 MLOAD DUP8 MSTORE PUSH2 0xFFFF PUSH1 0x20 DUP3 ADD MLOAD AND PUSH1 0x20 DUP9 ADD MSTORE PUSH1 0x40 DUP2 ADD MLOAD PUSH2 0x56FC PUSH1 0x40 DUP10 ADD DUP3 PUSH2 0x50BE JUMP JUMPDEST POP PUSH1 0x60 DUP2 ADD MLOAD SWAP1 POP PUSH2 0x5711 PUSH1 0x60 DUP9 ADD DUP3 PUSH2 0x533C JUMP JUMPDEST POP PUSH1 0x80 SWAP6 SWAP1 SWAP6 ADD SWAP5 PUSH1 0x20 SWAP2 SWAP1 SWAP2 ADD SWAP1 PUSH1 0x1 ADD PUSH2 0x56CE JUMP JUMPDEST POP SWAP4 SWAP5 SWAP4 POP POP POP POP JUMP JUMPDEST PUSH1 0x20 DUP2 MSTORE PUSH1 0x1 PUSH1 0x1 PUSH1 0xA0 SHL SUB DUP3 MLOAD AND PUSH1 0x20 DUP3 ADD MSTORE PUSH1 0x20 DUP3 ADD MLOAD ISZERO ISZERO PUSH1 0x40 DUP3 ADD MSTORE PUSH1 0x0 PUSH1 0x40 DUP4 ADD MLOAD PUSH1 0x80 PUSH1 0x60 DUP5 ADD MSTORE PUSH2 0x576D PUSH1 0xA0 DUP5 ADD DUP3 PUSH2 0x56BA JUMP JUMPDEST SWAP1 POP PUSH1 0x60 DUP5 ADD MLOAD PUSH1 0x1F NOT DUP5 DUP4 SUB ADD PUSH1 0x80 DUP6 ADD MSTORE PUSH2 0x578A DUP3 DUP3 PUSH2 0x56BA JUMP JUMPDEST SWAP6 SWAP5 POP POP POP POP POP JUMP JUMPDEST PUSH1 0x0 DUP1 DUP4 CALLDATALOAD PUSH1 0x1E NOT DUP5 CALLDATASIZE SUB ADD DUP2 SLT PUSH2 0x57AA JUMPI PUSH1 0x0 DUP1 REVERT JUMPDEST DUP4 ADD DUP1 CALLDATALOAD SWAP2 POP PUSH8 0xFFFFFFFFFFFFFFFF DUP3 GT ISZERO PUSH2 0x57C5 JUMPI PUSH1 0x0 DUP1 REVERT JUMPDEST PUSH1 0x20 ADD SWAP2 POP CALLDATASIZE DUP2 SWAP1 SUB DUP3 SGT ISZERO PUSH2 0x57DA JUMPI PUSH1 0x0 DUP1 REVERT JUMPDEST SWAP3 POP SWAP3 SWAP1 POP JUMP JUMPDEST DUP2 DUP4 MSTORE DUP2 DUP2 PUSH1 0x20 DUP6 ADD CALLDATACOPY POP PUSH1 0x0 DUP3 DUP3 ADD PUSH1 0x20 SWAP1 DUP2 ADD SWAP2 SWAP1 SWAP2 MSTORE PUSH1 0x1F SWAP1 SWAP2 ADD PUSH1 0x1F NOT AND SWAP1 SWAP2 ADD ADD SWAP1 JUMP JUMPDEST PUSH1 0x40 DUP2 MSTORE PUSH1 0x0 PUSH2 0x581E PUSH1 0x40 DUP4 ADD DUP7 DUP9 PUSH2 0x57E1 JUMP JUMPDEST DUP3 DUP2 SUB PUSH1 0x20 DUP5 ADD MSTORE PUSH2 0x5831 DUP2 DUP6 DUP8 PUSH2 0x57E1 JUMP JUMPDEST SWAP8 SWAP7 POP POP POP POP POP POP POP JUMP JUMPDEST PUSH1 0xA DUP2 LT PUSH2 0x50CE JUMPI PUSH2 0x50CE PUSH2 0x50A8 JUMP JUMPDEST PUSH5 0xFFFFFFFFFF DUP6 AND DUP2 MSTORE PUSH1 0x20 DUP2 ADD DUP5 SWAP1 MSTORE PUSH1 0x1 PUSH1 0x1 PUSH1 0xA0 SHL SUB DUP4 AND PUSH1 0x40 DUP3 ADD MSTORE PUSH1 0x80 DUP2 ADD PUSH2 0x578A PUSH1 0x60 DUP4 ADD DUP5 PUSH2 0x583C JUMP JUMPDEST PUSH4 0x4E487B71 PUSH1 0xE0 SHL PUSH1 0x0 MSTORE PUSH1 0x32 PUSH1 0x4 MSTORE PUSH1 0x24 PUSH1 0x0 REVERT JUMPDEST PUSH1 0x0 PUSH1 0x20 DUP3 DUP5 SUB SLT ISZERO PUSH2 0x58A5 JUMPI PUSH1 0x0 DUP1 REVERT JUMPDEST POP MLOAD SWAP2 SWAP1 POP JUMP JUMPDEST PUSH1 0x0 PUSH1 0x20 DUP3 DUP5 SUB SLT ISZERO PUSH2 0x58BE JUMPI PUSH1 0x0 DUP1 REVERT JUMPDEST PUSH2 0x4F98 DUP3 PUSH2 0x4FC6 JUMP JUMPDEST PUSH1 0x0 PUSH1 0x20 DUP3 DUP5 SUB SLT ISZERO PUSH2 0x58D9 JUMPI PUSH1 0x0 DUP1 REVERT JUMPDEST PUSH2 0x4F98 DUP3 PUSH2 0x4FB7 JUMP JUMPDEST PUSH4 0x4E487B71 PUSH1 0xE0 SHL PUSH1 0x0 MSTORE PUSH1 0x12 PUSH1 0x4 MSTORE PUSH1 0x24 PUSH1 0x0 REVERT JUMPDEST PUSH4 0x4E487B71 PUSH1 0xE0 SHL PUSH1 0x0 MSTORE PUSH1 0x11 PUSH1 0x4 MSTORE PUSH1 0x24 PUSH1 0x0 REVERT JUMPDEST PUSH1 0x0 DUP3 PUSH2 0x591D JUMPI PUSH2 0x591D PUSH2 0x58E2 JUMP JUMPDEST POP DIV SWAP1 JUMP JUMPDEST DUP1 DUP3 ADD DUP1 DUP3 GT ISZERO PUSH2 0x2B05 JUMPI PUSH2 0x2B05 PUSH2 0x58F8 JUMP JUMPDEST PUSH1 0x0 PUSH1 0x20 DUP3 DUP5 SUB SLT ISZERO PUSH2 0x5947 JUMPI PUSH1 0x0 DUP1 REVERT JUMPDEST DUP2 MLOAD PUSH2 0x4F98 DUP2 PUSH2 0x51DC JUMP JUMPDEST DUP1 DUP3 MUL DUP2 ISZERO DUP3 DUP3 DIV DUP5 EQ OR PUSH2 0x2B05 JUMPI PUSH2 0x2B05 PUSH2 0x58F8 JUMP JUMPDEST PUSH5 0xFFFFFFFFFF DUP2 DUP2 AND DUP4 DUP3 AND MUL SWAP1 DUP2 AND SWAP1 DUP2 DUP2 EQ PUSH2 0x4EDD JUMPI PUSH2 0x4EDD PUSH2 0x58F8 JUMP JUMPDEST DUP2 DUP2 SUB DUP2 DUP2 GT ISZERO PUSH2 0x2B05 JUMPI PUSH2 0x2B05 PUSH2 0x58F8 JUMP JUMPDEST PUSH1 0x0 PUSH1 0x1 DUP3 ADD PUSH2 0x59AE JUMPI PUSH2 0x59AE PUSH2 0x58F8 JUMP JUMPDEST POP PUSH1 0x1 ADD SWAP1 JUMP JUMPDEST PUSH5 0xFFFFFFFFFF DUP2 DUP2 AND DUP4 DUP3 AND ADD SWAP1 DUP2 GT ISZERO PUSH2 0x2B05 JUMPI PUSH2 0x2B05 PUSH2 0x58F8 JUMP JUMPDEST PUSH1 0x0 DUP2 MLOAD DUP1 DUP5 MSTORE PUSH1 0x0 JUMPDEST DUP2 DUP2 LT ISZERO PUSH2 0x59F8 JUMPI PUSH1 0x20 DUP2 DUP6 ADD DUP2 ADD MLOAD DUP7 DUP4 ADD DUP3 ADD MSTORE ADD PUSH2 0x59DC JUMP JUMPDEST POP PUSH1 0x0 PUSH1 0x20 DUP3 DUP7 ADD ADD MSTORE PUSH1 0x20 PUSH1 0x1F NOT PUSH1 0x1F DUP4 ADD AND DUP6 ADD ADD SWAP2 POP POP SWAP3 SWAP2 POP POP JUMP JUMPDEST PUSH1 0xC0 DUP2 MSTORE PUSH1 0x0 PUSH2 0x5A2B PUSH1 0xC0 DUP4 ADD DUP10 PUSH2 0x59D2 JUMP JUMPDEST DUP3 DUP2 SUB PUSH1 0x20 DUP5 ADD MSTORE PUSH2 0x5A3D DUP2 DUP10 PUSH2 0x59D2 JUMP JUMPDEST SWAP1 POP DUP3 DUP2 SUB PUSH1 0x40 DUP5 ADD MSTORE PUSH2 0x5A51 DUP2 DUP9 PUSH2 0x59D2 JUMP JUMPDEST SWAP1 POP DUP3 DUP2 SUB PUSH1 0x60 DUP5 ADD MSTORE PUSH2 0x5A65 DUP2 DUP8 PUSH2 0x59D2 JUMP JUMPDEST SWAP1 POP DUP3 DUP2 SUB PUSH1 0x80 DUP5 ADD MSTORE PUSH2 0x5A79 DUP2 DUP7 PUSH2 0x59D2 JUMP JUMPDEST SWAP1 POP DUP3 DUP2 SUB PUSH1 0xA0 DUP5 ADD MSTORE PUSH2 0x5A8D DUP2 DUP6 PUSH2 0x59D2 JUMP JUMPDEST SWAP10 SWAP9 POP POP POP POP POP POP POP POP POP JUMP JUMPDEST PUSH4 0x4E487B71 PUSH1 0xE0 SHL PUSH1 0x0 MSTORE PUSH1 0x31 PUSH1 0x4 MSTORE PUSH1 0x24 PUSH1 0x0 REVERT JUMPDEST PUSH1 0x0 PUSH5 0xFFFFFFFFFF DUP4 AND DUP1 PUSH2 0x5AC7 JUMPI PUSH2 0x5AC7 PUSH2 0x58E2 JUMP JUMPDEST DUP1 PUSH5 0xFFFFFFFFFF DUP5 AND DIV SWAP2 POP POP SWAP3 SWAP2 POP POP JUMP JUMPDEST DUP1 DUP3 ADD DUP3 DUP2 SLT PUSH1 0x0 DUP4 SLT DUP1 ISZERO DUP3 AND DUP3 ISZERO DUP3 AND OR ISZERO PUSH2 0x5AFA JUMPI PUSH2 0x5AFA PUSH2 0x58F8 JUMP JUMPDEST POP POP SWAP3 SWAP2 POP POP JUMP JUMPDEST DUP1 DUP3 MUL PUSH1 0x0 DUP3 SLT PUSH1 0x1 PUSH1 0xFF SHL DUP5 EQ AND ISZERO PUSH2 0x5B1E JUMPI PUSH2 0x5B1E PUSH2 0x58F8 JUMP JUMPDEST DUP2 DUP2 SDIV DUP4 EQ DUP3 ISZERO OR PUSH2 0x2B05 JUMPI PUSH2 0x2B05 PUSH2 0x58F8 JUMP JUMPDEST PUSH1 0x0 DUP3 PUSH2 0x5B41 JUMPI PUSH2 0x5B41 PUSH2 0x58E2 JUMP JUMPDEST PUSH1 0x1 PUSH1 0xFF SHL DUP3 EQ PUSH1 0x0 NOT DUP5 EQ AND ISZERO PUSH2 0x5B5B JUMPI PUSH2 0x5B5B PUSH2 0x58F8 JUMP JUMPDEST POP SDIV SWAP1 JUMP JUMPDEST DUP2 DUP2 SUB PUSH1 0x0 DUP4 SLT DUP1 ISZERO DUP4 DUP4 SGT AND DUP4 DUP4 SLT DUP3 AND OR ISZERO PUSH2 0x4EDD JUMPI PUSH2 0x4EDD PUSH2 0x58F8 JUMP JUMPDEST PUSH1 0x0 DUP3 PUSH2 0x5B8F JUMPI PUSH2 0x5B8F PUSH2 0x58E2 JUMP JUMPDEST POP MOD SWAP1 JUMP INVALID 0xCA PUSH12 0x824CAF1A48EA2AD039DBB063 CHAINID 0xF LOG3 0xE SWAP13 EXTCODECOPY 0xC2 SSTORE 0xEE 0xB5 0x22 BLOCKHASH 0xD6 CODESIZE 0xEC PUSH14 0xE65EA26469706673582212208347 PUSH6 0xF15FE3DB65C7 PUSH11 0x27E694DB6C44CA93A38B8E BYTE 0x2D PUSH26 0xA628A42A09EE96E64736F6C634300081A003300000000000000 "},"methodIdentifiers":{"accountLookup(uint256)":"f4a2a200","addERC20Contract(address,uint256)":"f25e13c9","approvedERC20(address)":"bd743886","callerFee()":"34d441d0","cancelSubscription((bytes32,uint256,address,address,bool,bool,uint8,uint16))":"87d888d3","changeAdmin(address)":"8f283970","changeCallerFee(uint256)":"8ef0ef1c","changeMaxRemits(uint256)":"27ea9773","changeSystemFee(uint256)":"0bec99e8","collectFees()":"c8796572","createSubscription(uint256,address,(string,string),uint8,uint16)":"0b8590c7","editDetails((string,string),bytes32)":"d10f9e69","editProvDetails((string,string,string,string,string,string))":"ed601d28","feeBalance(bytes32,address)":"ebec6eaa","feeEstimate()":"e63d35be","getAccount(address)":"fbcbc0f1","getAccountSubscriptions(bool,address)":"86525a00","getSubByIndex(bytes32,uint8,uint16)":"2d23f7e7","getSubscribersById(bytes32)":"7bbf5a6e","getTotalSubscribers()":"b25ae32c","maxRemits()":"cab1c965","nextUncheckedDay()":"da854a96","remit()":"7507ba39","removeERC20Contract(address)":"053149fa","setExternalCallers(bool)":"b4761de9","subscribe((bytes32,uint256,address,address,bool,bool,uint8,uint16))":"3c95dad5","systemFee()":"1f17ee55","systemFeeActivate(bool)":"9889552e","unsubscribe((bytes32,uint256,address,address,bool,bool,uint8,uint16))":"44e49769","unsubscribeByProvider((bytes32,uint256,address,address,bool,bool,uint8,uint16),address)":"907cedb2"}}}}}