{"contracts/ClockTowerSubscribe.sol":{"ClockTowerSubscribe":{"abi":[{"inputs":[],"stateMutability":"payable","type":"constructor"},{"anonymous":false,"inputs":[{"indexed":false,"internalType":"uint40","name":"timestamp","type":"uint40"},{"indexed":false,"internalType":"uint40","name":"checkedDay","type":"uint40"},{"indexed":false,"internalType":"address","name":"caller","type":"address"},{"indexed":false,"internalType":"bool","name":"isFinished","type":"bool"}],"name":"CallerLog","type":"event"},{"anonymous":false,"inputs":[{"indexed":true,"internalType":"bytes32","name":"id","type":"bytes32"},{"indexed":true,"internalType":"address","name":"subscriber","type":"address"},{"indexed":false,"internalType":"uint40","name":"timestamp","type":"uint40"},{"indexed":false,"internalType":"uint256","name":"amount","type":"uint256"},{"indexed":false,"internalType":"bool","name":"success","type":"bool"}],"name":"SubscriberLog","type":"event"},{"stateMutability":"payable","type":"fallback"},{"inputs":[{"internalType":"address","name":"erc20Contract","type":"address"}],"name":"addERC20Contract","outputs":[],"stateMutability":"nonpayable","type":"function"},{"inputs":[{"components":[{"internalType":"bytes32","name":"id","type":"bytes32"},{"internalType":"uint256","name":"amount","type":"uint256"},{"internalType":"address","name":"provider","type":"address"},{"internalType":"address","name":"token","type":"address"},{"internalType":"bool","name":"exists","type":"bool"},{"internalType":"bool","name":"cancelled","type":"bool"},{"internalType":"enum ClockTowerSubscribe.SubType","name":"subType","type":"uint8"},{"internalType":"uint16","name":"dueDay","type":"uint16"},{"internalType":"string","name":"description","type":"string"}],"internalType":"struct ClockTowerSubscribe.Subscription","name":"subscription","type":"tuple"}],"name":"cancelSubscription","outputs":[],"stateMutability":"nonpayable","type":"function"},{"inputs":[{"internalType":"address","name":"newAddress","type":"address"}],"name":"changeAdmin","outputs":[],"stateMutability":"nonpayable","type":"function"},{"inputs":[{"internalType":"uint256","name":"_fee","type":"uint256"}],"name":"changeFee","outputs":[],"stateMutability":"nonpayable","type":"function"},{"inputs":[{"internalType":"uint256","name":"_fixed_fee","type":"uint256"}],"name":"changeFixedFee","outputs":[],"stateMutability":"nonpayable","type":"function"},{"inputs":[{"internalType":"uint256","name":"_maxGas","type":"uint256"}],"name":"changeMaxGasPrice","outputs":[],"stateMutability":"nonpayable","type":"function"},{"inputs":[{"internalType":"uint256","name":"_maxRemits","type":"uint256"}],"name":"changeMaxRemits","outputs":[],"stateMutability":"nonpayable","type":"function"},{"inputs":[{"internalType":"uint256","name":"amount","type":"uint256"},{"internalType":"address","name":"token","type":"address"},{"internalType":"string","name":"description","type":"string"},{"internalType":"enum ClockTowerSubscribe.SubType","name":"subtype","type":"uint8"},{"internalType":"uint16","name":"dueDay","type":"uint16"}],"name":"createSubscription","outputs":[],"stateMutability":"payable","type":"function"},{"inputs":[{"internalType":"bool","name":"bySubscriber","type":"bool"}],"name":"getAccountSubscriptions","outputs":[{"components":[{"components":[{"internalType":"bytes32","name":"id","type":"bytes32"},{"internalType":"uint256","name":"amount","type":"uint256"},{"internalType":"address","name":"provider","type":"address"},{"internalType":"address","name":"token","type":"address"},{"internalType":"bool","name":"exists","type":"bool"},{"internalType":"bool","name":"cancelled","type":"bool"},{"internalType":"enum ClockTowerSubscribe.SubType","name":"subType","type":"uint8"},{"internalType":"uint16","name":"dueDay","type":"uint16"},{"internalType":"string","name":"description","type":"string"}],"internalType":"struct ClockTowerSubscribe.Subscription","name":"subscription","type":"tuple"},{"internalType":"enum ClockTowerSubscribe.Status","name":"status","type":"uint8"}],"internalType":"struct ClockTowerSubscribe.SubView[]","name":"","type":"tuple[]"}],"stateMutability":"view","type":"function"},{"inputs":[],"name":"getFee","outputs":[{"internalType":"uint256","name":"","type":"uint256"}],"stateMutability":"view","type":"function"},{"inputs":[],"name":"remit","outputs":[],"stateMutability":"nonpayable","type":"function"},{"inputs":[{"internalType":"address","name":"erc20Contract","type":"address"}],"name":"removeERC20Contract","outputs":[],"stateMutability":"nonpayable","type":"function"},{"inputs":[{"components":[{"internalType":"bytes32","name":"id","type":"bytes32"},{"internalType":"uint256","name":"amount","type":"uint256"},{"internalType":"address","name":"provider","type":"address"},{"internalType":"address","name":"token","type":"address"},{"internalType":"bool","name":"exists","type":"bool"},{"internalType":"bool","name":"cancelled","type":"bool"},{"internalType":"enum ClockTowerSubscribe.SubType","name":"subType","type":"uint8"},{"internalType":"uint16","name":"dueDay","type":"uint16"},{"internalType":"string","name":"description","type":"string"}],"internalType":"struct ClockTowerSubscribe.Subscription","name":"subscription","type":"tuple"}],"name":"subscribe","outputs":[],"stateMutability":"payable","type":"function"},{"inputs":[],"name":"toggleContractActive","outputs":[],"stateMutability":"nonpayable","type":"function"},{"inputs":[{"internalType":"uint256","name":"unix","type":"uint256"}],"name":"unixToTime","outputs":[{"components":[{"internalType":"uint16","name":"day","type":"uint16"},{"internalType":"uint16","name":"weekDay","type":"uint16"},{"internalType":"uint16","name":"quarterDay","type":"uint16"},{"internalType":"uint16","name":"yearDay","type":"uint16"}],"internalType":"struct ClockTowerSubscribe.Time","name":"time","type":"tuple"}],"stateMutability":"pure","type":"function"},{"inputs":[{"internalType":"bytes32","name":"id","type":"bytes32"}],"name":"unsubscribe","outputs":[],"stateMutability":"payable","type":"function"},{"stateMutability":"payable","type":"receive"}],"evm":{"bytecode":{"linkReferences":{},"object":"6080604052600080546001600160a01b03191673f39fd6e51aad88f6f4ce6ab8827279cfffb922661790556127d86001908155662386f26fc10000600255640ba43b74006003556005600455600d805460ff19169055620000604262000094565b6200006c9190620000ab565b600d60016101000a81548164ffffffffff021916908364ffffffffff16021790555062000113565b6000620000a56201518083620000e0565b92915050565b600064ffffffffff83811690831681811015620000d857634e487b7160e01b600052601160045260246000fd5b039392505050565b600064ffffffffff808416806200010757634e487b7160e01b600052601260045260246000fd5b92169190910492915050565b61394780620001236000396000f3fe6080604052600436106100eb5760003560e01c80636a1db1bf11610084578063a429131a11610056578063a429131a146102a5578063ab7e0909146102b8578063ced72f87146102d8578063f8c60146146102f657005b80636a1db1bf146102305780637507ba39146102505780638e83ac4a146102655780638f2839701461028557005b80633084f79e116100bd5780633084f79e146101695780633816377e1461017c57806353a6d6e21461019c5780636605ac0d1461020357005b8063053149fa146100f4578063094f9977146101145780631385d24c1461013457806327ea97731461014957005b366100f257005b005b34801561010057600080fd5b506100f261010f36600461326f565b610309565b34801561012057600080fd5b506100f261012f366004613291565b6104f1565b34801561014057600080fd5b506100f2610bab565b34801561015557600080fd5b506100f26101643660046132cd565b610bc7565b6100f2610177366004613307565b610bd4565b34801561018857600080fd5b506100f26101973660046132cd565b6110fe565b3480156101a857600080fd5b506101bc6101b73660046132cd565b61110b565b6040516101fa9190815161ffff9081168252602080840151821690830152604080840151821690830152606092830151169181019190915260800190565b60405180910390f35b34801561020f57600080fd5b5061022361021e3660046133c2565b61136d565b6040516101fa9190613471565b34801561023c57600080fd5b506100f261024b3660046132cd565b6116c7565b34801561025c57600080fd5b506100f26116d4565b34801561027157600080fd5b506100f26102803660046132cd565b61221f565b34801561029157600080fd5b506100f26102a036600461326f565b61222c565b6100f26102b3366004613291565b61227f565b3480156102c457600080fd5b506100f26102d336600461326f565b61242b565b3480156102e457600080fd5b506001546040519081526020016101fa565b6100f26103043660046132cd565b6124d2565b6103116126ee565b6001600160a01b03811661032457600080fd5b61032d8161272c565b6103625760405162461bcd60e51b81526020600482015260016024820152601960f91b60448201526064015b60405180910390fd5b6000600c8054806020026020016040519081016040528092919081815260200182805480156103ba57602002820191906000526020600020905b81546001600160a01b0316815260019091019060200180831161039c575b505050505090506000805b825181101561041b57836001600160a01b03168382815181106103ea576103ea6135a2565b60200260200101516001600160a01b031614156104095780915061041b565b80610413816135ce565b9150506103c5565b50805b600c5461042d906001906135e9565b8110156104b857600c610441826001613600565b81548110610451576104516135a2565b600091825260209091200154600c80546001600160a01b03909216918390811061047d5761047d6135a2565b600091825260209091200180546001600160a01b0319166001600160a01b0392909216919091179055806104b0816135ce565b91505061041e565b50600c8054806104ca576104ca613618565b600082815260209020810160001990810180546001600160a01b0319169055019055505050565b6104f96127ed565b610526813561050f610100840160e0850161362e565b61051f60e0850160c08601613649565b600061281e565b6105565760405162461bcd60e51b81526020600482015260016024820152603760f81b6044820152606401610359565b80356000908152600b60209081526040808320805482518185028101850190935280835291929091908301828280156105b857602002820191906000526020600020905b81546001600160a01b0316815260019091019060200180831161059a575b5050505050905060005b81518110156108d4576000600860008484815181106105e3576105e36135a2565b60200260200101516001600160a01b03166001600160a01b031681526020019081526020016000206002018054905067ffffffffffffffff81111561062a5761062a613664565b60405190808252806020026020018201604052801561066357816020015b610650613192565b8152602001906001900390816106485790505b5090506008600084848151811061067c5761067c6135a2565b60200260200101516001600160a01b03166001600160a01b03168152602001908152602001600020600201805480602002602001604051908101604052809291908181526020016000905b8282101561077d576000848152602090819020604080516080810182526002860290920180548352600181015461ffff81169484019490945291929083019062010000900460ff166003811115610720576107206133df565b6003811115610731576107316133df565b81526020016001820160039054906101000a900460ff166002811115610759576107596133df565b600281111561076a5761076a6133df565b81525050815260200190600101906106c7565b50505050905060005b6008600085858151811061079c5761079c6135a2565b60200260200101516001600160a01b03166001600160a01b03168152602001908152602001600020600201805490508110156108995784600001358282815181106107e9576107e96135a2565b602002602001015160000151141561088757600160086000868681518110610813576108136135a2565b60200260200101516001600160a01b03166001600160a01b03168152602001908152602001600020600201828154811061084f5761084f6135a2565b906000526020600020906002020160010160036101000a81548160ff02191690836002811115610881576108816133df565b02179055505b80610891816135ce565b915050610786565b506108c184600001358484815181106108b4576108b46135a2565b602002602001015161289a565b50806108cc816135ce565b9150506105c2565b506000600a816108ea60e0860160c08701613649565b60038111156108fb576108fb6133df565b815260200190815260200160002060008460e001602081019061091e919061362e565b61ffff1661ffff168152602001908152602001600020805480602002602001604051908101604052809291908181526020016000905b82821015610abe5760008481526020908190206040805161012081018252600586029092018054835260018101549383019390935260028301546001600160a01b0390811691830191909152600380840154918216606084015260ff600160a01b8304811615156080850152600160a81b83048116151560a085015292939260c0850192600160b01b900416908111156109f0576109f06133df565b6003811115610a0157610a016133df565b81526003820154600160b81b900461ffff166020820152600482018054604090920191610a2d9061367a565b80601f0160208091040260200160405190810160405280929190818152602001828054610a599061367a565b8015610aa65780601f10610a7b57610100808354040283529160200191610aa6565b820191906000526020600020905b815481529060010190602001808311610a8957829003601f168201915b50505050508152505081526020019060010190610954565b50505050905060005b8151811015610ba5578360000135828281518110610ae757610ae76135a2565b6020026020010151600001511415610b93576001600a6000610b0f60e0880160c08901613649565b6003811115610b2057610b206133df565b815260200190815260200160002060008660e0016020810190610b43919061362e565b61ffff1661ffff1681526020019081526020016000208281548110610b6a57610b6a6135a2565b906000526020600020906005020160030160156101000a81548160ff0219169083151502179055505b80610b9d816135ce565b915050610ac7565b50505050565b610bb36126ee565b600d805460ff19811660ff90911615179055565b610bcf6126ee565b600455565b610bdc6127ed565b6001600160a01b038516610c165760405162461bcd60e51b81526020600482015260016024820152600760fb1b6044820152606401610359565b346002541115610c4c5760405162461bcd60e51b81526020600482015260016024820152603560f81b6044820152606401610359565b610c558561272c565b610c855760405162461bcd60e51b81526020600482015260016024820152603960f81b6044820152606401610359565b60008611610cba5760405162461bcd60e51b8152602060048201526002602482015261031360f41b6044820152606401610359565b6020831115610d0b5760405162461bcd60e51b815260206004820152601a60248201527f537472696e67206d757374206265203c3d2033322062797465730000000000006044820152606401610359565b6000826003811115610d1f57610d1f6133df565b1415610d8a578061ffff166000108015610d3e575060078161ffff1611155b610d8a5760405162461bcd60e51b815260206004820152601760248201527f4d757374206265206265747765656e203120616e6420370000000000000000006044820152606401610359565b6001826003811115610d9e57610d9e6133df565b1415610e09578061ffff166000108015610dbd5750601c8161ffff1611155b610e095760405162461bcd60e51b815260206004820152601b60248201527f4d757374757374206265206265747765656e203120616e6420323800000000006044820152606401610359565b6002826003811115610e1d57610e1d6133df565b1415610e88578061ffff166000108015610e3c5750605a8161ffff1611155b610e885760405162461bcd60e51b815260206004820152601860248201527f4d757374206265206265747765656e203120616e6420393000000000000000006044820152606401610359565b6003826003811115610e9c57610e9c6133df565b1415610f08578061ffff166000108015610ebc575061016d8161ffff1611155b610f085760405162461bcd60e51b815260206004820152601960248201527f4d757374206265206265747765656e203120616e6420333635000000000000006044820152606401610359565b6000610f4f878787878080601f0160208091040260200160405190810160405280939291908181526020018383808284376000920191909152508992508891506129e79050565b905080600a6000856003811115610f6857610f686133df565b81526020808201929092526040908101600090812061ffff87168252835281812080546001818101835591835291849020855160059093020191825592840151928101929092558201516002820180546001600160a01b039283166001600160a01b0319909116179055606083015160038084018054608087015160a08801511515600160a81b0260ff60a81b19911515600160a01b0274ffffffffffffffffffffffffffffffffffffffffff199093169590961694909417179283168417815560c086015193909260ff60b01b1990911661ffff60a81b199091161790600160b01b90849081111561105d5761105d6133df565b021790555060e082015160038201805461ffff909216600160b81b0261ffff60b81b1990921691909117905561010082015180516110a59160048401916020909101906131ba565b509050506110f56040518060800160405280836000015181526020018360e0015161ffff1681526020018360c0015160038111156110e5576110e56133df565b8152602001600090526001612ad5565b50505050505050565b6111066126ee565b600355565b60408051608081018252600080825260208201819052918101829052606081018290529061113c62015180846136cb565b905060008082816111508262010bd96136df565b61115d9062253d8c6136df565b9050600062023ab161117083600461371f565b61117a91906137a6565b9050600461118b8262023ab161371f565b6111969060036136df565b6111a091906137a6565b6111aa90836137d4565b9150600062164b096111bd8460016136df565b6111c990610fa061371f565b6111d391906137a6565b905060046111e3826105b561371f565b6111ed91906137a6565b6111f790846137d4565b61120290601f6136df565b9250600061098f61121485605061371f565b61121e91906137a6565b9050600060506112308361098f61371f565b61123a91906137a6565b61124490866137d4565b9050611251600b836137a6565b945061125e85600c61371f565b6112698360026136df565b61127391906137d4565b915084836112826031876137d4565b61128d90606461371f565b61129791906136df565b6112a191906136df565b909750915086828282600060015b8381116112fc57838114156112d3576112cc61ffff8e1683613600565b91506112ea565b6112dd8585612c88565b6112e79083613600565b91505b806112f4816135ce565b9150506112af565b50809a5061130e8b61ffff1685612d10565b61ffff1660408f01526113208f612dde565b8e6020019061ffff16908161ffff16815250508b8e6000019061ffff16908161ffff16815250508a8e6060019061ffff16908161ffff168152505050505050505050505050505050919050565b60608082156114645733600090815260086020908152604080832060020180548251818502810185019093528083529193909284015b82821015611459576000848152602090819020604080516080810182526002860290920180548352600181015461ffff81169484019490945291929083019062010000900460ff1660038111156113fc576113fc6133df565b600381111561140d5761140d6133df565b81526020016001820160039054906101000a900460ff166002811115611435576114356133df565b6002811115611446576114466133df565b81525050815260200190600101906113a3565b50505050905061154e565b33600090815260086020908152604080832060030180548251818502810185019093528083529193909284015b82821015611547576000848152602090819020604080516080810182526002860290920180548352600181015461ffff81169484019490945291929083019062010000900460ff1660038111156114ea576114ea6133df565b60038111156114fb576114fb6133df565b81526020016001820160039054906101000a900460ff166002811115611523576115236133df565b6002811115611534576115346133df565b8152505081526020019060010190611491565b5050505090505b6000815167ffffffffffffffff81111561156a5761156a613664565b6040519080825280602002602001820160405280156115f857816020015b6115e560405180604001604052806131ae6040805161012081018252600080825260208201819052918101829052606081018290526080810182905260a081018290529060c0820190815260006020820152606060409091015290565b8152602001906001900390816115885790505b50905060005b82518110156116bf5761162983828151811061161c5761161c6135a2565b6020026020010151612e14565b82828151811061163b5761163b6135a2565b60200260200101516000018190525082818151811061165c5761165c6135a2565b60200260200101516060015182828151811061167a5761167a6135a2565b6020026020010151602001906002811115611697576116976133df565b908160028111156116aa576116aa6133df565b905250806116b7816135ce565b9150506115fe565b509392505050565b6116cf6126ee565b600155565b6116dc6126ee565b6003543a1061172d5760405162461bcd60e51b815260206004820152601260248201527f47617320707269636520746f6f206869676800000000000000000000000000006044820152606401610359565b60006117384261309e565b905061175d6040518060400160405280600281526020016134b760f11b8152506130ad565b600d5464ffffffffff6101009091048116908216116117a35760405162461bcd60e51b81526020600482015260026024820152610c4d60f21b6044820152606401610359565b60006117ae4261110b565b90506000805b60038111612144576000816117ca575060208301515b60018214156117d7575082515b60028214156117e7575060408301515b60038214156117f7575060608301515b6000828152600a6020908152604080832061ffff85168452909152812054905b8181101561212e576000848152600a6020908152604080832061ffff87168452909152902080548290811061184e5761184e6135a2565b906000526020600020906005020160030160159054906101000a900460ff1661211c576000848152600a6020908152604080832061ffff8716845290915281208054839081106118a0576118a06135a2565b60009182526020808320600590920290910154878352600a8252604080842061ffff89168552909252908220805491935090849081106118e2576118e26135a2565b6000918252602080832060036005909302019190910154888352600a8252604080842061ffff8a16855290925290822080546001600160a01b0390921693509085908110611932576119326135a2565b6000918252602080832060016005909302019190910154898352600a8252604080842061ffff8b16855290925290822080549193509086908110611978576119786135a2565b600091825260208220600260059092020101546001546001600160a01b0390911692508390612710906119ab9083613813565b6119b591906136cb565b6119bf91906135e9565b90506000805b6000878152600b6020526040902054811015612114576004548c1415611c3957604080518082018252888152602001829052600588905560068290556007805460ff1916905551636eb1769f60e11b81526001600160a01b03858116600483015230602483015283919088169063dd62ed3e90604401602060405180830381600087803b158015611a5557600080fd5b505af1158015611a69573d6000803e3d6000fd5b505050506040513d601f19601f82011682018060405250810190611a8d9190613832565b10158015611b1657506040516370a0823160e01b81526001600160a01b0385811660048301528391908816906370a0823190602401602060405180830381600087803b158015611adc57600080fd5b505af1158015611af0573d6000803e3d6000fd5b505050506040513d601f19601f82011682018060405250810190611b149190613832565b105b15611bac576040516323b872dd60e01b81526001600160a01b038581166004830152336024830152604482018490528716906323b872dd90606401602060405180830381600087803b158015611b6b57600080fd5b505af1158015611b7f573d6000803e3d6000fd5b505050506040513d601f19601f82011682018060405250810190611ba3919061384b565b611bac57600080fd5b611bd0604051806040016040528060038152602001621bdd5d60ea1b8152506130ad565b600d546040805164ffffffffff428116825261010090930490921660208301523390820152600060608201527f90192d7875364a53e351ae63fd2dfef8dc941735b29fb0c504d06a0e21ae602e9060800160405180910390a15050505050505050505050505050565b60055487148015611c4b575060065481145b15611c5e576007805460ff191660011790555b6005541580611c74575060075460ff1615156001145b15612102576000878152600b60205260408120805483908110611c9957611c996135a2565b600091825260209091200154604051636eb1769f60e11b81526001600160a01b03918216600482018190523060248301529250879189169063dd62ed3e90604401602060405180830381600087803b158015611cf457600080fd5b505af1158015611d08573d6000803e3d6000fd5b505050506040513d601f19601f82011682018060405250810190611d2c9190613832565b10158015611db557506040516370a0823160e01b81526001600160a01b0382811660048301528791908916906370a0823190602401602060405180830381600087803b158015611d7b57600080fd5b505af1158015611d8f573d6000803e3d6000fd5b505050506040513d601f19601f82011682018060405250810190611db39190613832565b105b15611e2f578c611dc4816135ce565b9d50611dd290508484613600565b604080514264ffffffffff1681526020810189905260008183015290519194506001600160a01b038316918a917feb34db283910a123efc9e9c8a81c4fb25bfc0c3d4c0e30e300bed3d05853f716919081900360600190a3611f3b565b8c611e39816135ce565b9d50611e4790508484613600565b604080514264ffffffffff1681526020810189905260018183015290519194506001600160a01b038316918a917feb34db283910a123efc9e9c8a81c4fb25bfc0c3d4c0e30e300bed3d05853f716919081900360600190a3611ea88d6130f0565b6040516323b872dd60e01b81526001600160a01b0382811660048301528681166024830152604482018890528816906323b872dd90606401602060405180830381600087803b158015611efa57600080fd5b505af1158015611f0e573d6000803e3d6000fd5b505050506040513d601f19601f82011682018060405250810190611f32919061384b565b611f3b57600080fd5b6000888152600b6020526040902054611f56906001906135e9565b82141561210057604051636eb1769f60e11b81526001600160a01b03868116600483015230602483015284919089169063dd62ed3e90604401602060405180830381600087803b158015611fa957600080fd5b505af1158015611fbd573d6000803e3d6000fd5b505050506040513d601f19601f82011682018060405250810190611fe19190613832565b1015801561206a57506040516370a0823160e01b81526001600160a01b0386811660048301528491908916906370a0823190602401602060405180830381600087803b15801561203057600080fd5b505af1158015612044573d6000803e3d6000fd5b505050506040513d601f19601f820116820180604052508101906120689190613832565b105b15612100576040516323b872dd60e01b81526001600160a01b038681166004830152336024830152604482018590528816906323b872dd90606401602060405180830381600087803b1580156120bf57600080fd5b505af11580156120d3573d6000803e3d6000fd5b505050506040513d601f19601f820116820180604052508101906120f7919061384b565b61210057600080fd5b505b8061210c816135ce565b9150506119c5565b505050505050505b80612126816135ce565b915050611817565b505050808061213c906135ce565b9150506117b4565b50600060058190556006556007805460ff191690556040805180820190915260088152676d6f766574696d6560c01b6020820152612181906130ad565b600d546040805164ffffffffff428116825261010090930490921660208301523390820152600160608201527f90192d7875364a53e351ae63fd2dfef8dc941735b29fb0c504d06a0e21ae602e9060800160405180910390a1600d805465ffffffffff00191661010064ffffffffff8616021790556040805180820190915260038152621bdd5d60ea1b6020820152612219906130ad565b5050505b565b6122276126ee565b600255565b6122346126ee565b336001600160a01b03821614801561225457506001600160a01b03811615155b61225d57600080fd5b600080546001600160a01b0319166001600160a01b0392909216919091179055565b6122876127ed565b602081013561229c608083016060840161326f565b604051636eb1769f60e11b81523360048201523060248201526001600160a01b03919091169063dd62ed3e90604401602060405180830381600087803b1580156122e557600080fd5b505af11580156122f9573d6000803e3d6000fd5b505050506040513d601f19601f8201168201806040525081019061231d9190613832565b10156123505760405162461bcd60e51b8152602060048201526002602482015261313360f01b6044820152606401610359565b612366813561050f610100840160e0850161362e565b6123965760405162461bcd60e51b81526020600482015260016024820152603760f81b6044820152606401610359565b80356000818152600b6020908152604080832080546001810182559084529282902090920180546001600160a01b031916331790558151608081019092529181526124289181016123ee610100850160e0860161362e565b61ffff16815260200161240760e0850160c08601613649565b6003811115612418576124186133df565b8152602001600090526000612ad5565b50565b6124336126ee565b6001600160a01b03811661244657600080fd5b61244f8161272c565b156124805760405162461bcd60e51b81526020600482015260016024820152603160f81b6044820152606401610359565b600c80546001810182556000919091527fdf6966c971051c3d54ec59162606531493a51404a002842f56009d7e5cf4a8c70180546001600160a01b0319166001600160a01b0392909216919091179055565b6124da6127ed565b3360009081526008602052604081206002015467ffffffffffffffff81111561250557612505613664565b60405190808252806020026020018201604052801561253e57816020015b61252b613192565b8152602001906001900390816125235790505b50336000908152600860209081526040808320600201805482518185028101850190935280835294955090939092909184015b82821015612627576000848152602090819020604080516080810182526002860290920180548352600181015461ffff81169484019490945291929083019062010000900460ff1660038111156125ca576125ca6133df565b60038111156125db576125db6133df565b81526020016001820160039054906101000a900460ff166002811115612603576126036133df565b6002811115612614576126146133df565b8152505081526020019060010190612571565b50505050905060005b336000908152600860205260409020600201548110156126df578282828151811061265d5761265d6135a2565b60200260200101516000015114156126cd573360009081526008602052604090206002908101805483908110612695576126956135a2565b906000526020600020906002020160010160036101000a81548160ff021916908360028111156126c7576126c76133df565b02179055505b806126d7816135ce565b915050612630565b506126ea823361289a565b5050565b6000546001600160a01b0316331461221d5760405162461bcd60e51b81526020600482015260016024820152600360fc1b6044820152606401610359565b600080600c80548060200260200160405190810160405280929190818152602001828054801561278557602002820191906000526020600020905b81546001600160a01b03168152600190910190602001808311612767575b505050505090506000915060005b81518110156127e6578181815181106127ae576127ae6135a2565b60200260200101516001600160a01b0316846001600160a01b031614156127d457600192505b806127de816135ce565b915050612793565b5050919050565b3361221d5760405162461bcd60e51b81526020600482015260016024820152603360f81b6044820152606401610359565b60008060405180608001604052808781526020018661ffff16815260200185600381111561284e5761284e6133df565b8152602001846002811115612865576128656133df565b90529050600061287482612e14565b905080608001511561288b57600192505050612892565b6000925050505b949350505050565b6000828152600b6020526040812090805b82548110156129e057836001600160a01b03168382815481106128d0576128d06135a2565b6000918252602090912001546001600160a01b0316141561291e57809150828181548110612900576129006135a2565b600091825260209091200180546001600160a01b03191690556129e0565b8254839061292e906001906135e9565b8154811061293e5761293e6135a2565b9060005260206000200160009054906101000a90046001600160a01b031683838154811061296e5761296e6135a2565b9060005260206000200160006101000a8154816001600160a01b0302191690836001600160a01b03160217905550828054806129ac576129ac613618565b600082815260209020810160001990810180546001600160a01b0319169055019055806129d8816135ce565b9150506128ab565b5050505050565b612a366040805161012081018252600080825260208201819052918101829052606081018290526080810182905260a081018290529060c0820190815260006020820152606060409091015290565b60003386848742604051602001612a51959493929190613868565b60408051601f198184030181528282528051602091820120610120840183528084529083018a905233918301919091526001600160a01b038816606083015260016080830152600060a0830152915060c08101856003811115612ab657612ab66133df565b81526020018461ffff1681526020018681525091505095945050505050565b33600090815260086020526040902054600160a01b900460ff16612b5f5733600081815260086020526040812080546001600160a01b03199081168417825560098054600181019091557f6e1540171b6c0c960b71a7020d9f60077f6af931a8bbf590da0223dacf75c7af01805490911684179055919052805460ff60a01b1916600160a01b1790555b8015612c1557336000908152600860209081526040808320600390810180546001808201835591865294849020875160029096020194855592860151928401805461ffff19811661ffff9095169485178255928701518795949093919262ffffff19909216179062010000908490811115612bdc57612bdc6133df565b0217905550606082015160018201805463ff00000019166301000000836002811115612c0a57612c0a6133df565b021790555050505050565b33600090815260086020908152604080832060029081018054600180820183559186529484902087519590920290910193845591850151918301805461ffff19811661ffff909416938417825591860151869493909262ffffff19161762010000836003811115612bdc57612bdc6133df565b60008160011480612c995750816003145b80612ca45750816005145b80612caf5750816007145b80612cba5750816008145b80612cc5575081600a145b80612cd0575081600c145b15612cdd5750601f612d0a565b81600214612ced5750601e612d0a565b612cf683613135565b612d0157601c612d04565b601d5b60ff1690505b92915050565b600080612d1c83613135565b15612d2957506001612d2d565b5060005b612d3881605a613600565b8411612d4657839150612dd7565b83612d5282605a613600565b108015612d695750612d658160b5613600565b8411155b15612d8a57612d7981605a613600565b612d8390856135e9565b9150612dd7565b83612d968260b5613600565b108015612dae5750612daa81610111613600565b8411155b15612dbe57612d798160b5613600565b612dca81610111613600565b612dd490856135e9565b91505b5092915050565b600080612dee62015180846136cb565b905060006007612dff836003613600565b612e0991906138c6565b612892906001613600565b612e636040805161012081018252600080825260208201819052918101829052606081018290526080810182905260a081018290529060c0820190815260006020820152606060409091015290565b6000600a600084604001516003811115612e7f57612e7f6133df565b81526020019081526020016000206000846020015161ffff1661ffff168152602001908152602001600020805480602002602001604051908101604052809291908181526020016000905b828210156130345760008481526020908190206040805161012081018252600586029092018054835260018101549383019390935260028301546001600160a01b0390811691830191909152600380840154918216606084015260ff600160a01b8304811615156080850152600160a81b83048116151560a085015292939260c0850192600160b01b90041690811115612f6657612f666133df565b6003811115612f7757612f776133df565b81526003820154600160b81b900461ffff166020820152600482018054604090920191612fa39061367a565b80601f0160208091040260200160405190810160405280929190818152602001828054612fcf9061367a565b801561301c5780601f10612ff15761010080835404028352916020019161301c565b820191906000526020600020905b815481529060010190602001808311612fff57829003601f168201915b50505050508152505081526020019060010190612eca565b50505050905060005b81518110156127e657836000015182828151811061305d5761305d6135a2565b602002602001015160000151141561308c57818181518110613081576130816135a2565b602002602001015192505b80613096816135ce565b91505061303d565b6000612d0a62015180836138da565b612428816040516024016130c191906138fe565b60408051601f198184030181529190526020810180516001600160e01b031663104c13eb60e21b179052613171565b6124288160405160240161310691815260200190565b60408051601f198184030181529190526020810180516001600160e01b031663f82c50f160e01b179052613171565b60006131426004836138c6565b15801561315857506131556064836138c6565b15155b80612d0a575061316a610190836138c6565b1592915050565b80516a636f6e736f6c652e6c6f67602083016000808483855afa5050505050565b6040805160808101825260008082526020820181905290918201905b81526020016000905290565b8280546131c69061367a565b90600052602060002090601f0160209004810192826131e8576000855561322e565b82601f1061320157805160ff191683800117855561322e565b8280016001018555821561322e579182015b8281111561322e578251825591602001919060010190613213565b5061323a92915061323e565b5090565b5b8082111561323a576000815560010161323f565b80356001600160a01b038116811461326a57600080fd5b919050565b60006020828403121561328157600080fd5b61328a82613253565b9392505050565b6000602082840312156132a357600080fd5b813567ffffffffffffffff8111156132ba57600080fd5b8201610120818503121561328a57600080fd5b6000602082840312156132df57600080fd5b5035919050565b80356004811061326a57600080fd5b803561ffff8116811461326a57600080fd5b60008060008060008060a0878903121561332057600080fd5b8635955061333060208801613253565b9450604087013567ffffffffffffffff8082111561334d57600080fd5b818901915089601f83011261336157600080fd5b81358181111561337057600080fd5b8a602082850101111561338257600080fd5b60208301965080955050505061339a606088016132e6565b91506133a8608088016132f5565b90509295509295509295565b801515811461242857600080fd5b6000602082840312156133d457600080fd5b813561328a816133b4565b634e487b7160e01b600052602160045260246000fd5b60048110613405576134056133df565b9052565b60005b8381101561342457818101518382015260200161340c565b83811115610ba55750506000910152565b6000815180845261344d816020860160208601613409565b601f01601f19169290920160200192915050565b60038110613405576134056133df565b60006020808301818452808551808352604092508286019150828160051b87010184880160005b8381101561359457603f1989840301855281518051878552805188860152888101516060818188015289830151915060806134dd818901846001600160a01b03169052565b90830151915060a0906134fa888301846001600160a01b03169052565b830151915060c061350e8882018415159052565b90830151915060e0906135248883018415159052565b8301519150610100613538888201846133f5565b908301519150610120906135518883018461ffff169052565b92909201516101408701929092525061356e610160860182613435565b91890151919050613581858a0183613461565b9588019593505090860190600101613498565b509098975050505050505050565b634e487b7160e01b600052603260045260246000fd5b634e487b7160e01b600052601160045260246000fd5b60006000198214156135e2576135e26135b8565b5060010190565b6000828210156135fb576135fb6135b8565b500390565b60008219821115613613576136136135b8565b500190565b634e487b7160e01b600052603160045260246000fd5b60006020828403121561364057600080fd5b61328a826132f5565b60006020828403121561365b57600080fd5b61328a826132e6565b634e487b7160e01b600052604160045260246000fd5b600181811c9082168061368e57607f821691505b602082108114156136af57634e487b7160e01b600052602260045260246000fd5b50919050565b634e487b7160e01b600052601260045260246000fd5b6000826136da576136da6136b5565b500490565b6000808212826001600160ff1b0303841381151615613700576137006135b8565b600160ff1b8390038412811615613719576137196135b8565b50500190565b60006001600160ff1b03600084136000841385830485118282161615613747576137476135b8565b600160ff1b6000871282811687830589121615613766576137666135b8565b60008712925087820587128484161615613782576137826135b8565b87850587128184161615613798576137986135b8565b505050929093029392505050565b6000826137b5576137b56136b5565b600160ff1b8214600019841416156137cf576137cf6135b8565b500590565b60008083128015600160ff1b8501841216156137f2576137f26135b8565b836001600160ff1b0301831381161561380d5761380d6135b8565b50500390565b600081600019048311821515161561382d5761382d6135b8565b500290565b60006020828403121561384457600080fd5b5051919050565b60006020828403121561385d57600080fd5b815161328a816133b4565b60006bffffffffffffffffffffffff19808860601b168352808760601b1660148401525061ffff60f01b8560f01b16602883015283516138af81602a850160208801613409565b602a920191820192909252604a0195945050505050565b6000826138d5576138d56136b5565b500690565b600064ffffffffff808416806138f2576138f26136b5565b92169190910492915050565b60208152600061328a602083018461343556fea26469706673582212200abc64400edecd677c64e4159bf65ebfdabf2446f87811d764e3fdd6b03d849964736f6c63430008090033","opcodes":"PUSH1 0x80 PUSH1 0x40 MSTORE PUSH1 0x0 DUP1 SLOAD PUSH1 0x1 PUSH1 0x1 PUSH1 0xA0 SHL SUB NOT AND PUSH20 0xF39FD6E51AAD88F6F4CE6AB8827279CFFFB92266 OR SWAP1 SSTORE PUSH2 0x27D8 PUSH1 0x1 SWAP1 DUP2 SSTORE PUSH7 0x2386F26FC10000 PUSH1 0x2 SSTORE PUSH5 0xBA43B7400 PUSH1 0x3 SSTORE PUSH1 0x5 PUSH1 0x4 SSTORE PUSH1 0xD DUP1 SLOAD PUSH1 0xFF NOT AND SWAP1 SSTORE PUSH3 0x60 TIMESTAMP PUSH3 0x94 JUMP JUMPDEST PUSH3 0x6C SWAP2 SWAP1 PUSH3 0xAB JUMP JUMPDEST PUSH1 0xD PUSH1 0x1 PUSH2 0x100 EXP DUP2 SLOAD DUP2 PUSH5 0xFFFFFFFFFF MUL NOT AND SWAP1 DUP4 PUSH5 0xFFFFFFFFFF AND MUL OR SWAP1 SSTORE POP PUSH3 0x113 JUMP JUMPDEST PUSH1 0x0 PUSH3 0xA5 PUSH3 0x15180 DUP4 PUSH3 0xE0 JUMP JUMPDEST SWAP3 SWAP2 POP POP JUMP JUMPDEST PUSH1 0x0 PUSH5 0xFFFFFFFFFF DUP4 DUP2 AND SWAP1 DUP4 AND DUP2 DUP2 LT ISZERO PUSH3 0xD8 JUMPI PUSH4 0x4E487B71 PUSH1 0xE0 SHL PUSH1 0x0 MSTORE PUSH1 0x11 PUSH1 0x4 MSTORE PUSH1 0x24 PUSH1 0x0 REVERT JUMPDEST SUB SWAP4 SWAP3 POP POP POP JUMP JUMPDEST PUSH1 0x0 PUSH5 0xFFFFFFFFFF DUP1 DUP5 AND DUP1 PUSH3 0x107 JUMPI PUSH4 0x4E487B71 PUSH1 0xE0 SHL PUSH1 0x0 MSTORE PUSH1 0x12 PUSH1 0x4 MSTORE PUSH1 0x24 PUSH1 0x0 REVERT JUMPDEST SWAP3 AND SWAP2 SWAP1 SWAP2 DIV SWAP3 SWAP2 POP POP JUMP JUMPDEST PUSH2 0x3947 DUP1 PUSH3 0x123 PUSH1 0x0 CODECOPY PUSH1 0x0 RETURN INVALID PUSH1 0x80 PUSH1 0x40 MSTORE PUSH1 0x4 CALLDATASIZE LT PUSH2 0xEB JUMPI PUSH1 0x0 CALLDATALOAD PUSH1 0xE0 SHR DUP1 PUSH4 0x6A1DB1BF GT PUSH2 0x84 JUMPI DUP1 PUSH4 0xA429131A GT PUSH2 0x56 JUMPI DUP1 PUSH4 0xA429131A EQ PUSH2 0x2A5 JUMPI DUP1 PUSH4 0xAB7E0909 EQ PUSH2 0x2B8 JUMPI DUP1 PUSH4 0xCED72F87 EQ PUSH2 0x2D8 JUMPI DUP1 PUSH4 0xF8C60146 EQ PUSH2 0x2F6 JUMPI STOP JUMPDEST DUP1 PUSH4 0x6A1DB1BF EQ PUSH2 0x230 JUMPI DUP1 PUSH4 0x7507BA39 EQ PUSH2 0x250 JUMPI DUP1 PUSH4 0x8E83AC4A EQ PUSH2 0x265 JUMPI DUP1 PUSH4 0x8F283970 EQ PUSH2 0x285 JUMPI STOP JUMPDEST DUP1 PUSH4 0x3084F79E GT PUSH2 0xBD JUMPI DUP1 PUSH4 0x3084F79E EQ PUSH2 0x169 JUMPI DUP1 PUSH4 0x3816377E EQ PUSH2 0x17C JUMPI DUP1 PUSH4 0x53A6D6E2 EQ PUSH2 0x19C JUMPI DUP1 PUSH4 0x6605AC0D EQ PUSH2 0x203 JUMPI STOP JUMPDEST DUP1 PUSH4 0x53149FA EQ PUSH2 0xF4 JUMPI DUP1 PUSH4 0x94F9977 EQ PUSH2 0x114 JUMPI DUP1 PUSH4 0x1385D24C EQ PUSH2 0x134 JUMPI DUP1 PUSH4 0x27EA9773 EQ PUSH2 0x149 JUMPI STOP JUMPDEST CALLDATASIZE PUSH2 0xF2 JUMPI STOP JUMPDEST STOP JUMPDEST CALLVALUE DUP1 ISZERO PUSH2 0x100 JUMPI PUSH1 0x0 DUP1 REVERT JUMPDEST POP PUSH2 0xF2 PUSH2 0x10F CALLDATASIZE PUSH1 0x4 PUSH2 0x326F JUMP JUMPDEST PUSH2 0x309 JUMP JUMPDEST CALLVALUE DUP1 ISZERO PUSH2 0x120 JUMPI PUSH1 0x0 DUP1 REVERT JUMPDEST POP PUSH2 0xF2 PUSH2 0x12F CALLDATASIZE PUSH1 0x4 PUSH2 0x3291 JUMP JUMPDEST PUSH2 0x4F1 JUMP JUMPDEST CALLVALUE DUP1 ISZERO PUSH2 0x140 JUMPI PUSH1 0x0 DUP1 REVERT JUMPDEST POP PUSH2 0xF2 PUSH2 0xBAB JUMP JUMPDEST CALLVALUE DUP1 ISZERO PUSH2 0x155 JUMPI PUSH1 0x0 DUP1 REVERT JUMPDEST POP PUSH2 0xF2 PUSH2 0x164 CALLDATASIZE PUSH1 0x4 PUSH2 0x32CD JUMP JUMPDEST PUSH2 0xBC7 JUMP JUMPDEST PUSH2 0xF2 PUSH2 0x177 CALLDATASIZE PUSH1 0x4 PUSH2 0x3307 JUMP JUMPDEST PUSH2 0xBD4 JUMP JUMPDEST CALLVALUE DUP1 ISZERO PUSH2 0x188 JUMPI PUSH1 0x0 DUP1 REVERT JUMPDEST POP PUSH2 0xF2 PUSH2 0x197 CALLDATASIZE PUSH1 0x4 PUSH2 0x32CD JUMP JUMPDEST PUSH2 0x10FE JUMP JUMPDEST CALLVALUE DUP1 ISZERO PUSH2 0x1A8 JUMPI PUSH1 0x0 DUP1 REVERT JUMPDEST POP PUSH2 0x1BC PUSH2 0x1B7 CALLDATASIZE PUSH1 0x4 PUSH2 0x32CD JUMP JUMPDEST PUSH2 0x110B JUMP JUMPDEST PUSH1 0x40 MLOAD PUSH2 0x1FA SWAP2 SWAP1 DUP2 MLOAD PUSH2 0xFFFF SWAP1 DUP2 AND DUP3 MSTORE PUSH1 0x20 DUP1 DUP5 ADD MLOAD DUP3 AND SWAP1 DUP4 ADD MSTORE PUSH1 0x40 DUP1 DUP5 ADD MLOAD DUP3 AND SWAP1 DUP4 ADD MSTORE PUSH1 0x60 SWAP3 DUP4 ADD MLOAD AND SWAP2 DUP2 ADD SWAP2 SWAP1 SWAP2 MSTORE PUSH1 0x80 ADD SWAP1 JUMP JUMPDEST PUSH1 0x40 MLOAD DUP1 SWAP2 SUB SWAP1 RETURN JUMPDEST CALLVALUE DUP1 ISZERO PUSH2 0x20F JUMPI PUSH1 0x0 DUP1 REVERT JUMPDEST POP PUSH2 0x223 PUSH2 0x21E CALLDATASIZE PUSH1 0x4 PUSH2 0x33C2 JUMP JUMPDEST PUSH2 0x136D JUMP JUMPDEST PUSH1 0x40 MLOAD PUSH2 0x1FA SWAP2 SWAP1 PUSH2 0x3471 JUMP JUMPDEST CALLVALUE DUP1 ISZERO PUSH2 0x23C JUMPI PUSH1 0x0 DUP1 REVERT JUMPDEST POP PUSH2 0xF2 PUSH2 0x24B CALLDATASIZE PUSH1 0x4 PUSH2 0x32CD JUMP JUMPDEST PUSH2 0x16C7 JUMP JUMPDEST CALLVALUE DUP1 ISZERO PUSH2 0x25C JUMPI PUSH1 0x0 DUP1 REVERT JUMPDEST POP PUSH2 0xF2 PUSH2 0x16D4 JUMP JUMPDEST CALLVALUE DUP1 ISZERO PUSH2 0x271 JUMPI PUSH1 0x0 DUP1 REVERT JUMPDEST POP PUSH2 0xF2 PUSH2 0x280 CALLDATASIZE PUSH1 0x4 PUSH2 0x32CD JUMP JUMPDEST PUSH2 0x221F JUMP JUMPDEST CALLVALUE DUP1 ISZERO PUSH2 0x291 JUMPI PUSH1 0x0 DUP1 REVERT JUMPDEST POP PUSH2 0xF2 PUSH2 0x2A0 CALLDATASIZE PUSH1 0x4 PUSH2 0x326F JUMP JUMPDEST PUSH2 0x222C JUMP JUMPDEST PUSH2 0xF2 PUSH2 0x2B3 CALLDATASIZE PUSH1 0x4 PUSH2 0x3291 JUMP JUMPDEST PUSH2 0x227F JUMP JUMPDEST CALLVALUE DUP1 ISZERO PUSH2 0x2C4 JUMPI PUSH1 0x0 DUP1 REVERT JUMPDEST POP PUSH2 0xF2 PUSH2 0x2D3 CALLDATASIZE PUSH1 0x4 PUSH2 0x326F JUMP JUMPDEST PUSH2 0x242B JUMP JUMPDEST CALLVALUE DUP1 ISZERO PUSH2 0x2E4 JUMPI PUSH1 0x0 DUP1 REVERT JUMPDEST POP PUSH1 0x1 SLOAD PUSH1 0x40 MLOAD SWAP1 DUP2 MSTORE PUSH1 0x20 ADD PUSH2 0x1FA JUMP JUMPDEST PUSH2 0xF2 PUSH2 0x304 CALLDATASIZE PUSH1 0x4 PUSH2 0x32CD JUMP JUMPDEST PUSH2 0x24D2 JUMP JUMPDEST PUSH2 0x311 PUSH2 0x26EE JUMP JUMPDEST PUSH1 0x1 PUSH1 0x1 PUSH1 0xA0 SHL SUB DUP2 AND PUSH2 0x324 JUMPI PUSH1 0x0 DUP1 REVERT JUMPDEST PUSH2 0x32D DUP2 PUSH2 0x272C JUMP JUMPDEST PUSH2 0x362 JUMPI PUSH1 0x40 MLOAD PUSH3 0x461BCD PUSH1 0xE5 SHL DUP2 MSTORE PUSH1 0x20 PUSH1 0x4 DUP3 ADD MSTORE PUSH1 0x1 PUSH1 0x24 DUP3 ADD MSTORE PUSH1 0x19 PUSH1 0xF9 SHL PUSH1 0x44 DUP3 ADD MSTORE PUSH1 0x64 ADD JUMPDEST PUSH1 0x40 MLOAD DUP1 SWAP2 SUB SWAP1 REVERT JUMPDEST PUSH1 0x0 PUSH1 0xC DUP1 SLOAD DUP1 PUSH1 0x20 MUL PUSH1 0x20 ADD PUSH1 0x40 MLOAD SWAP1 DUP2 ADD PUSH1 0x40 MSTORE DUP1 SWAP3 SWAP2 SWAP1 DUP2 DUP2 MSTORE PUSH1 0x20 ADD DUP3 DUP1 SLOAD DUP1 ISZERO PUSH2 0x3BA JUMPI PUSH1 0x20 MUL DUP3 ADD SWAP2 SWAP1 PUSH1 0x0 MSTORE PUSH1 0x20 PUSH1 0x0 KECCAK256 SWAP1 JUMPDEST DUP2 SLOAD PUSH1 0x1 PUSH1 0x1 PUSH1 0xA0 SHL SUB AND DUP2 MSTORE PUSH1 0x1 SWAP1 SWAP2 ADD SWAP1 PUSH1 0x20 ADD DUP1 DUP4 GT PUSH2 0x39C JUMPI JUMPDEST POP POP POP POP POP SWAP1 POP PUSH1 0x0 DUP1 JUMPDEST DUP3 MLOAD DUP2 LT ISZERO PUSH2 0x41B JUMPI DUP4 PUSH1 0x1 PUSH1 0x1 PUSH1 0xA0 SHL SUB AND DUP4 DUP3 DUP2 MLOAD DUP2 LT PUSH2 0x3EA JUMPI PUSH2 0x3EA PUSH2 0x35A2 JUMP JUMPDEST PUSH1 0x20 MUL PUSH1 0x20 ADD ADD MLOAD PUSH1 0x1 PUSH1 0x1 PUSH1 0xA0 SHL SUB AND EQ ISZERO PUSH2 0x409 JUMPI DUP1 SWAP2 POP PUSH2 0x41B JUMP JUMPDEST DUP1 PUSH2 0x413 DUP2 PUSH2 0x35CE JUMP JUMPDEST SWAP2 POP POP PUSH2 0x3C5 JUMP JUMPDEST POP DUP1 JUMPDEST PUSH1 0xC SLOAD PUSH2 0x42D SWAP1 PUSH1 0x1 SWAP1 PUSH2 0x35E9 JUMP JUMPDEST DUP2 LT ISZERO PUSH2 0x4B8 JUMPI PUSH1 0xC PUSH2 0x441 DUP3 PUSH1 0x1 PUSH2 0x3600 JUMP JUMPDEST DUP2 SLOAD DUP2 LT PUSH2 0x451 JUMPI PUSH2 0x451 PUSH2 0x35A2 JUMP JUMPDEST PUSH1 0x0 SWAP2 DUP3 MSTORE PUSH1 0x20 SWAP1 SWAP2 KECCAK256 ADD SLOAD PUSH1 0xC DUP1 SLOAD PUSH1 0x1 PUSH1 0x1 PUSH1 0xA0 SHL SUB SWAP1 SWAP3 AND SWAP2 DUP4 SWAP1 DUP2 LT PUSH2 0x47D JUMPI PUSH2 0x47D PUSH2 0x35A2 JUMP JUMPDEST PUSH1 0x0 SWAP2 DUP3 MSTORE PUSH1 0x20 SWAP1 SWAP2 KECCAK256 ADD DUP1 SLOAD PUSH1 0x1 PUSH1 0x1 PUSH1 0xA0 SHL SUB NOT AND PUSH1 0x1 PUSH1 0x1 PUSH1 0xA0 SHL SUB SWAP3 SWAP1 SWAP3 AND SWAP2 SWAP1 SWAP2 OR SWAP1 SSTORE DUP1 PUSH2 0x4B0 DUP2 PUSH2 0x35CE JUMP JUMPDEST SWAP2 POP POP PUSH2 0x41E JUMP JUMPDEST POP PUSH1 0xC DUP1 SLOAD DUP1 PUSH2 0x4CA JUMPI PUSH2 0x4CA PUSH2 0x3618 JUMP JUMPDEST PUSH1 0x0 DUP3 DUP2 MSTORE PUSH1 0x20 SWAP1 KECCAK256 DUP2 ADD PUSH1 0x0 NOT SWAP1 DUP2 ADD DUP1 SLOAD PUSH1 0x1 PUSH1 0x1 PUSH1 0xA0 SHL SUB NOT AND SWAP1 SSTORE ADD SWAP1 SSTORE POP POP POP JUMP JUMPDEST PUSH2 0x4F9 PUSH2 0x27ED JUMP JUMPDEST PUSH2 0x526 DUP2 CALLDATALOAD PUSH2 0x50F PUSH2 0x100 DUP5 ADD PUSH1 0xE0 DUP6 ADD PUSH2 0x362E JUMP JUMPDEST PUSH2 0x51F PUSH1 0xE0 DUP6 ADD PUSH1 0xC0 DUP7 ADD PUSH2 0x3649 JUMP JUMPDEST PUSH1 0x0 PUSH2 0x281E JUMP JUMPDEST PUSH2 0x556 JUMPI PUSH1 0x40 MLOAD PUSH3 0x461BCD PUSH1 0xE5 SHL DUP2 MSTORE PUSH1 0x20 PUSH1 0x4 DUP3 ADD MSTORE PUSH1 0x1 PUSH1 0x24 DUP3 ADD MSTORE PUSH1 0x37 PUSH1 0xF8 SHL PUSH1 0x44 DUP3 ADD MSTORE PUSH1 0x64 ADD PUSH2 0x359 JUMP JUMPDEST DUP1 CALLDATALOAD PUSH1 0x0 SWAP1 DUP2 MSTORE PUSH1 0xB PUSH1 0x20 SWAP1 DUP2 MSTORE PUSH1 0x40 DUP1 DUP4 KECCAK256 DUP1 SLOAD DUP3 MLOAD DUP2 DUP6 MUL DUP2 ADD DUP6 ADD SWAP1 SWAP4 MSTORE DUP1 DUP4 MSTORE SWAP2 SWAP3 SWAP1 SWAP2 SWAP1 DUP4 ADD DUP3 DUP3 DUP1 ISZERO PUSH2 0x5B8 JUMPI PUSH1 0x20 MUL DUP3 ADD SWAP2 SWAP1 PUSH1 0x0 MSTORE PUSH1 0x20 PUSH1 0x0 KECCAK256 SWAP1 JUMPDEST DUP2 SLOAD PUSH1 0x1 PUSH1 0x1 PUSH1 0xA0 SHL SUB AND DUP2 MSTORE PUSH1 0x1 SWAP1 SWAP2 ADD SWAP1 PUSH1 0x20 ADD DUP1 DUP4 GT PUSH2 0x59A JUMPI JUMPDEST POP POP POP POP POP SWAP1 POP PUSH1 0x0 JUMPDEST DUP2 MLOAD DUP2 LT ISZERO PUSH2 0x8D4 JUMPI PUSH1 0x0 PUSH1 0x8 PUSH1 0x0 DUP5 DUP5 DUP2 MLOAD DUP2 LT PUSH2 0x5E3 JUMPI PUSH2 0x5E3 PUSH2 0x35A2 JUMP JUMPDEST PUSH1 0x20 MUL PUSH1 0x20 ADD ADD MLOAD PUSH1 0x1 PUSH1 0x1 PUSH1 0xA0 SHL SUB AND PUSH1 0x1 PUSH1 0x1 PUSH1 0xA0 SHL SUB AND DUP2 MSTORE PUSH1 0x20 ADD SWAP1 DUP2 MSTORE PUSH1 0x20 ADD PUSH1 0x0 KECCAK256 PUSH1 0x2 ADD DUP1 SLOAD SWAP1 POP PUSH8 0xFFFFFFFFFFFFFFFF DUP2 GT ISZERO PUSH2 0x62A JUMPI PUSH2 0x62A PUSH2 0x3664 JUMP JUMPDEST PUSH1 0x40 MLOAD SWAP1 DUP1 DUP3 MSTORE DUP1 PUSH1 0x20 MUL PUSH1 0x20 ADD DUP3 ADD PUSH1 0x40 MSTORE DUP1 ISZERO PUSH2 0x663 JUMPI DUP2 PUSH1 0x20 ADD JUMPDEST PUSH2 0x650 PUSH2 0x3192 JUMP JUMPDEST DUP2 MSTORE PUSH1 0x20 ADD SWAP1 PUSH1 0x1 SWAP1 SUB SWAP1 DUP2 PUSH2 0x648 JUMPI SWAP1 POP JUMPDEST POP SWAP1 POP PUSH1 0x8 PUSH1 0x0 DUP5 DUP5 DUP2 MLOAD DUP2 LT PUSH2 0x67C JUMPI PUSH2 0x67C PUSH2 0x35A2 JUMP JUMPDEST PUSH1 0x20 MUL PUSH1 0x20 ADD ADD MLOAD PUSH1 0x1 PUSH1 0x1 PUSH1 0xA0 SHL SUB AND PUSH1 0x1 PUSH1 0x1 PUSH1 0xA0 SHL SUB AND DUP2 MSTORE PUSH1 0x20 ADD SWAP1 DUP2 MSTORE PUSH1 0x20 ADD PUSH1 0x0 KECCAK256 PUSH1 0x2 ADD DUP1 SLOAD DUP1 PUSH1 0x20 MUL PUSH1 0x20 ADD PUSH1 0x40 MLOAD SWAP1 DUP2 ADD PUSH1 0x40 MSTORE DUP1 SWAP3 SWAP2 SWAP1 DUP2 DUP2 MSTORE PUSH1 0x20 ADD PUSH1 0x0 SWAP1 JUMPDEST DUP3 DUP3 LT ISZERO PUSH2 0x77D JUMPI PUSH1 0x0 DUP5 DUP2 MSTORE PUSH1 0x20 SWAP1 DUP2 SWAP1 KECCAK256 PUSH1 0x40 DUP1 MLOAD PUSH1 0x80 DUP2 ADD DUP3 MSTORE PUSH1 0x2 DUP7 MUL SWAP1 SWAP3 ADD DUP1 SLOAD DUP4 MSTORE PUSH1 0x1 DUP2 ADD SLOAD PUSH2 0xFFFF DUP2 AND SWAP5 DUP5 ADD SWAP5 SWAP1 SWAP5 MSTORE SWAP2 SWAP3 SWAP1 DUP4 ADD SWAP1 PUSH3 0x10000 SWAP1 DIV PUSH1 0xFF AND PUSH1 0x3 DUP2 GT ISZERO PUSH2 0x720 JUMPI PUSH2 0x720 PUSH2 0x33DF JUMP JUMPDEST PUSH1 0x3 DUP2 GT ISZERO PUSH2 0x731 JUMPI PUSH2 0x731 PUSH2 0x33DF JUMP JUMPDEST DUP2 MSTORE PUSH1 0x20 ADD PUSH1 0x1 DUP3 ADD PUSH1 0x3 SWAP1 SLOAD SWAP1 PUSH2 0x100 EXP SWAP1 DIV PUSH1 0xFF AND PUSH1 0x2 DUP2 GT ISZERO PUSH2 0x759 JUMPI PUSH2 0x759 PUSH2 0x33DF JUMP JUMPDEST PUSH1 0x2 DUP2 GT ISZERO PUSH2 0x76A JUMPI PUSH2 0x76A PUSH2 0x33DF JUMP JUMPDEST DUP2 MSTORE POP POP DUP2 MSTORE PUSH1 0x20 ADD SWAP1 PUSH1 0x1 ADD SWAP1 PUSH2 0x6C7 JUMP JUMPDEST POP POP POP POP SWAP1 POP PUSH1 0x0 JUMPDEST PUSH1 0x8 PUSH1 0x0 DUP6 DUP6 DUP2 MLOAD DUP2 LT PUSH2 0x79C JUMPI PUSH2 0x79C PUSH2 0x35A2 JUMP JUMPDEST PUSH1 0x20 MUL PUSH1 0x20 ADD ADD MLOAD PUSH1 0x1 PUSH1 0x1 PUSH1 0xA0 SHL SUB AND PUSH1 0x1 PUSH1 0x1 PUSH1 0xA0 SHL SUB AND DUP2 MSTORE PUSH1 0x20 ADD SWAP1 DUP2 MSTORE PUSH1 0x20 ADD PUSH1 0x0 KECCAK256 PUSH1 0x2 ADD DUP1 SLOAD SWAP1 POP DUP2 LT ISZERO PUSH2 0x899 JUMPI DUP5 PUSH1 0x0 ADD CALLDATALOAD DUP3 DUP3 DUP2 MLOAD DUP2 LT PUSH2 0x7E9 JUMPI PUSH2 0x7E9 PUSH2 0x35A2 JUMP JUMPDEST PUSH1 0x20 MUL PUSH1 0x20 ADD ADD MLOAD PUSH1 0x0 ADD MLOAD EQ ISZERO PUSH2 0x887 JUMPI PUSH1 0x1 PUSH1 0x8 PUSH1 0x0 DUP7 DUP7 DUP2 MLOAD DUP2 LT PUSH2 0x813 JUMPI PUSH2 0x813 PUSH2 0x35A2 JUMP JUMPDEST PUSH1 0x20 MUL PUSH1 0x20 ADD ADD MLOAD PUSH1 0x1 PUSH1 0x1 PUSH1 0xA0 SHL SUB AND PUSH1 0x1 PUSH1 0x1 PUSH1 0xA0 SHL SUB AND DUP2 MSTORE PUSH1 0x20 ADD SWAP1 DUP2 MSTORE PUSH1 0x20 ADD PUSH1 0x0 KECCAK256 PUSH1 0x2 ADD DUP3 DUP2 SLOAD DUP2 LT PUSH2 0x84F JUMPI PUSH2 0x84F PUSH2 0x35A2 JUMP JUMPDEST SWAP1 PUSH1 0x0 MSTORE PUSH1 0x20 PUSH1 0x0 KECCAK256 SWAP1 PUSH1 0x2 MUL ADD PUSH1 0x1 ADD PUSH1 0x3 PUSH2 0x100 EXP DUP2 SLOAD DUP2 PUSH1 0xFF MUL NOT AND SWAP1 DUP4 PUSH1 0x2 DUP2 GT ISZERO PUSH2 0x881 JUMPI PUSH2 0x881 PUSH2 0x33DF JUMP JUMPDEST MUL OR SWAP1 SSTORE POP JUMPDEST DUP1 PUSH2 0x891 DUP2 PUSH2 0x35CE JUMP JUMPDEST SWAP2 POP POP PUSH2 0x786 JUMP JUMPDEST POP PUSH2 0x8C1 DUP5 PUSH1 0x0 ADD CALLDATALOAD DUP5 DUP5 DUP2 MLOAD DUP2 LT PUSH2 0x8B4 JUMPI PUSH2 0x8B4 PUSH2 0x35A2 JUMP JUMPDEST PUSH1 0x20 MUL PUSH1 0x20 ADD ADD MLOAD PUSH2 0x289A JUMP JUMPDEST POP DUP1 PUSH2 0x8CC DUP2 PUSH2 0x35CE JUMP JUMPDEST SWAP2 POP POP PUSH2 0x5C2 JUMP JUMPDEST POP PUSH1 0x0 PUSH1 0xA DUP2 PUSH2 0x8EA PUSH1 0xE0 DUP7 ADD PUSH1 0xC0 DUP8 ADD PUSH2 0x3649 JUMP JUMPDEST PUSH1 0x3 DUP2 GT ISZERO PUSH2 0x8FB JUMPI PUSH2 0x8FB PUSH2 0x33DF JUMP JUMPDEST DUP2 MSTORE PUSH1 0x20 ADD SWAP1 DUP2 MSTORE PUSH1 0x20 ADD PUSH1 0x0 KECCAK256 PUSH1 0x0 DUP5 PUSH1 0xE0 ADD PUSH1 0x20 DUP2 ADD SWAP1 PUSH2 0x91E SWAP2 SWAP1 PUSH2 0x362E JUMP JUMPDEST PUSH2 0xFFFF AND PUSH2 0xFFFF AND DUP2 MSTORE PUSH1 0x20 ADD SWAP1 DUP2 MSTORE PUSH1 0x20 ADD PUSH1 0x0 KECCAK256 DUP1 SLOAD DUP1 PUSH1 0x20 MUL PUSH1 0x20 ADD PUSH1 0x40 MLOAD SWAP1 DUP2 ADD PUSH1 0x40 MSTORE DUP1 SWAP3 SWAP2 SWAP1 DUP2 DUP2 MSTORE PUSH1 0x20 ADD PUSH1 0x0 SWAP1 JUMPDEST DUP3 DUP3 LT ISZERO PUSH2 0xABE JUMPI PUSH1 0x0 DUP5 DUP2 MSTORE PUSH1 0x20 SWAP1 DUP2 SWAP1 KECCAK256 PUSH1 0x40 DUP1 MLOAD PUSH2 0x120 DUP2 ADD DUP3 MSTORE PUSH1 0x5 DUP7 MUL SWAP1 SWAP3 ADD DUP1 SLOAD DUP4 MSTORE PUSH1 0x1 DUP2 ADD SLOAD SWAP4 DUP4 ADD SWAP4 SWAP1 SWAP4 MSTORE PUSH1 0x2 DUP4 ADD SLOAD PUSH1 0x1 PUSH1 0x1 PUSH1 0xA0 SHL SUB SWAP1 DUP2 AND SWAP2 DUP4 ADD SWAP2 SWAP1 SWAP2 MSTORE PUSH1 0x3 DUP1 DUP5 ADD SLOAD SWAP2 DUP3 AND PUSH1 0x60 DUP5 ADD MSTORE PUSH1 0xFF PUSH1 0x1 PUSH1 0xA0 SHL DUP4 DIV DUP2 AND ISZERO ISZERO PUSH1 0x80 DUP6 ADD MSTORE PUSH1 0x1 PUSH1 0xA8 SHL DUP4 DIV DUP2 AND ISZERO ISZERO PUSH1 0xA0 DUP6 ADD MSTORE SWAP3 SWAP4 SWAP3 PUSH1 0xC0 DUP6 ADD SWAP3 PUSH1 0x1 PUSH1 0xB0 SHL SWAP1 DIV AND SWAP1 DUP2 GT ISZERO PUSH2 0x9F0 JUMPI PUSH2 0x9F0 PUSH2 0x33DF JUMP JUMPDEST PUSH1 0x3 DUP2 GT ISZERO PUSH2 0xA01 JUMPI PUSH2 0xA01 PUSH2 0x33DF JUMP JUMPDEST DUP2 MSTORE PUSH1 0x3 DUP3 ADD SLOAD PUSH1 0x1 PUSH1 0xB8 SHL SWAP1 DIV PUSH2 0xFFFF AND PUSH1 0x20 DUP3 ADD MSTORE PUSH1 0x4 DUP3 ADD DUP1 SLOAD PUSH1 0x40 SWAP1 SWAP3 ADD SWAP2 PUSH2 0xA2D SWAP1 PUSH2 0x367A JUMP JUMPDEST DUP1 PUSH1 0x1F ADD PUSH1 0x20 DUP1 SWAP2 DIV MUL PUSH1 0x20 ADD PUSH1 0x40 MLOAD SWAP1 DUP2 ADD PUSH1 0x40 MSTORE DUP1 SWAP3 SWAP2 SWAP1 DUP2 DUP2 MSTORE PUSH1 0x20 ADD DUP3 DUP1 SLOAD PUSH2 0xA59 SWAP1 PUSH2 0x367A JUMP JUMPDEST DUP1 ISZERO PUSH2 0xAA6 JUMPI DUP1 PUSH1 0x1F LT PUSH2 0xA7B JUMPI PUSH2 0x100 DUP1 DUP4 SLOAD DIV MUL DUP4 MSTORE SWAP2 PUSH1 0x20 ADD SWAP2 PUSH2 0xAA6 JUMP JUMPDEST DUP3 ADD SWAP2 SWAP1 PUSH1 0x0 MSTORE PUSH1 0x20 PUSH1 0x0 KECCAK256 SWAP1 JUMPDEST DUP2 SLOAD DUP2 MSTORE SWAP1 PUSH1 0x1 ADD SWAP1 PUSH1 0x20 ADD DUP1 DUP4 GT PUSH2 0xA89 JUMPI DUP3 SWAP1 SUB PUSH1 0x1F AND DUP3 ADD SWAP2 JUMPDEST POP POP POP POP POP DUP2 MSTORE POP POP DUP2 MSTORE PUSH1 0x20 ADD SWAP1 PUSH1 0x1 ADD SWAP1 PUSH2 0x954 JUMP JUMPDEST POP POP POP POP SWAP1 POP PUSH1 0x0 JUMPDEST DUP2 MLOAD DUP2 LT ISZERO PUSH2 0xBA5 JUMPI DUP4 PUSH1 0x0 ADD CALLDATALOAD DUP3 DUP3 DUP2 MLOAD DUP2 LT PUSH2 0xAE7 JUMPI PUSH2 0xAE7 PUSH2 0x35A2 JUMP JUMPDEST PUSH1 0x20 MUL PUSH1 0x20 ADD ADD MLOAD PUSH1 0x0 ADD MLOAD EQ ISZERO PUSH2 0xB93 JUMPI PUSH1 0x1 PUSH1 0xA PUSH1 0x0 PUSH2 0xB0F PUSH1 0xE0 DUP9 ADD PUSH1 0xC0 DUP10 ADD PUSH2 0x3649 JUMP JUMPDEST PUSH1 0x3 DUP2 GT ISZERO PUSH2 0xB20 JUMPI PUSH2 0xB20 PUSH2 0x33DF JUMP JUMPDEST DUP2 MSTORE PUSH1 0x20 ADD SWAP1 DUP2 MSTORE PUSH1 0x20 ADD PUSH1 0x0 KECCAK256 PUSH1 0x0 DUP7 PUSH1 0xE0 ADD PUSH1 0x20 DUP2 ADD SWAP1 PUSH2 0xB43 SWAP2 SWAP1 PUSH2 0x362E JUMP JUMPDEST PUSH2 0xFFFF AND PUSH2 0xFFFF AND DUP2 MSTORE PUSH1 0x20 ADD SWAP1 DUP2 MSTORE PUSH1 0x20 ADD PUSH1 0x0 KECCAK256 DUP3 DUP2 SLOAD DUP2 LT PUSH2 0xB6A JUMPI PUSH2 0xB6A PUSH2 0x35A2 JUMP JUMPDEST SWAP1 PUSH1 0x0 MSTORE PUSH1 0x20 PUSH1 0x0 KECCAK256 SWAP1 PUSH1 0x5 MUL ADD PUSH1 0x3 ADD PUSH1 0x15 PUSH2 0x100 EXP DUP2 SLOAD DUP2 PUSH1 0xFF MUL NOT AND SWAP1 DUP4 ISZERO ISZERO MUL OR SWAP1 SSTORE POP JUMPDEST DUP1 PUSH2 0xB9D DUP2 PUSH2 0x35CE JUMP JUMPDEST SWAP2 POP POP PUSH2 0xAC7 JUMP JUMPDEST POP POP POP POP JUMP JUMPDEST PUSH2 0xBB3 PUSH2 0x26EE JUMP JUMPDEST PUSH1 0xD DUP1 SLOAD PUSH1 0xFF NOT DUP2 AND PUSH1 0xFF SWAP1 SWAP2 AND ISZERO OR SWAP1 SSTORE JUMP JUMPDEST PUSH2 0xBCF PUSH2 0x26EE JUMP JUMPDEST PUSH1 0x4 SSTORE JUMP JUMPDEST PUSH2 0xBDC PUSH2 0x27ED JUMP JUMPDEST PUSH1 0x1 PUSH1 0x1 PUSH1 0xA0 SHL SUB DUP6 AND PUSH2 0xC16 JUMPI PUSH1 0x40 MLOAD PUSH3 0x461BCD PUSH1 0xE5 SHL DUP2 MSTORE PUSH1 0x20 PUSH1 0x4 DUP3 ADD MSTORE PUSH1 0x1 PUSH1 0x24 DUP3 ADD MSTORE PUSH1 0x7 PUSH1 0xFB SHL PUSH1 0x44 DUP3 ADD MSTORE PUSH1 0x64 ADD PUSH2 0x359 JUMP JUMPDEST CALLVALUE PUSH1 0x2 SLOAD GT ISZERO PUSH2 0xC4C JUMPI PUSH1 0x40 MLOAD PUSH3 0x461BCD PUSH1 0xE5 SHL DUP2 MSTORE PUSH1 0x20 PUSH1 0x4 DUP3 ADD MSTORE PUSH1 0x1 PUSH1 0x24 DUP3 ADD MSTORE PUSH1 0x35 PUSH1 0xF8 SHL PUSH1 0x44 DUP3 ADD MSTORE PUSH1 0x64 ADD PUSH2 0x359 JUMP JUMPDEST PUSH2 0xC55 DUP6 PUSH2 0x272C JUMP JUMPDEST PUSH2 0xC85 JUMPI PUSH1 0x40 MLOAD PUSH3 0x461BCD PUSH1 0xE5 SHL DUP2 MSTORE PUSH1 0x20 PUSH1 0x4 DUP3 ADD MSTORE PUSH1 0x1 PUSH1 0x24 DUP3 ADD MSTORE PUSH1 0x39 PUSH1 0xF8 SHL PUSH1 0x44 DUP3 ADD MSTORE PUSH1 0x64 ADD PUSH2 0x359 JUMP JUMPDEST PUSH1 0x0 DUP7 GT PUSH2 0xCBA JUMPI PUSH1 0x40 MLOAD PUSH3 0x461BCD PUSH1 0xE5 SHL DUP2 MSTORE PUSH1 0x20 PUSH1 0x4 DUP3 ADD MSTORE PUSH1 0x2 PUSH1 0x24 DUP3 ADD MSTORE PUSH2 0x313 PUSH1 0xF4 SHL PUSH1 0x44 DUP3 ADD MSTORE PUSH1 0x64 ADD PUSH2 0x359 JUMP JUMPDEST PUSH1 0x20 DUP4 GT ISZERO PUSH2 0xD0B JUMPI PUSH1 0x40 MLOAD PUSH3 0x461BCD PUSH1 0xE5 SHL DUP2 MSTORE PUSH1 0x20 PUSH1 0x4 DUP3 ADD MSTORE PUSH1 0x1A PUSH1 0x24 DUP3 ADD MSTORE PUSH32 0x537472696E67206D757374206265203C3D203332206279746573000000000000 PUSH1 0x44 DUP3 ADD MSTORE PUSH1 0x64 ADD PUSH2 0x359 JUMP JUMPDEST PUSH1 0x0 DUP3 PUSH1 0x3 DUP2 GT ISZERO PUSH2 0xD1F JUMPI PUSH2 0xD1F PUSH2 0x33DF JUMP JUMPDEST EQ ISZERO PUSH2 0xD8A JUMPI DUP1 PUSH2 0xFFFF AND PUSH1 0x0 LT DUP1 ISZERO PUSH2 0xD3E JUMPI POP PUSH1 0x7 DUP2 PUSH2 0xFFFF AND GT ISZERO JUMPDEST PUSH2 0xD8A JUMPI PUSH1 0x40 MLOAD PUSH3 0x461BCD PUSH1 0xE5 SHL DUP2 MSTORE PUSH1 0x20 PUSH1 0x4 DUP3 ADD MSTORE PUSH1 0x17 PUSH1 0x24 DUP3 ADD MSTORE PUSH32 0x4D757374206265206265747765656E203120616E642037000000000000000000 PUSH1 0x44 DUP3 ADD MSTORE PUSH1 0x64 ADD PUSH2 0x359 JUMP JUMPDEST PUSH1 0x1 DUP3 PUSH1 0x3 DUP2 GT ISZERO PUSH2 0xD9E JUMPI PUSH2 0xD9E PUSH2 0x33DF JUMP JUMPDEST EQ ISZERO PUSH2 0xE09 JUMPI DUP1 PUSH2 0xFFFF AND PUSH1 0x0 LT DUP1 ISZERO PUSH2 0xDBD JUMPI POP PUSH1 0x1C DUP2 PUSH2 0xFFFF AND GT ISZERO JUMPDEST PUSH2 0xE09 JUMPI PUSH1 0x40 MLOAD PUSH3 0x461BCD PUSH1 0xE5 SHL DUP2 MSTORE PUSH1 0x20 PUSH1 0x4 DUP3 ADD MSTORE PUSH1 0x1B PUSH1 0x24 DUP3 ADD MSTORE PUSH32 0x4D757374757374206265206265747765656E203120616E642032380000000000 PUSH1 0x44 DUP3 ADD MSTORE PUSH1 0x64 ADD PUSH2 0x359 JUMP JUMPDEST PUSH1 0x2 DUP3 PUSH1 0x3 DUP2 GT ISZERO PUSH2 0xE1D JUMPI PUSH2 0xE1D PUSH2 0x33DF JUMP JUMPDEST EQ ISZERO PUSH2 0xE88 JUMPI DUP1 PUSH2 0xFFFF AND PUSH1 0x0 LT DUP1 ISZERO PUSH2 0xE3C JUMPI POP PUSH1 0x5A DUP2 PUSH2 0xFFFF AND GT ISZERO JUMPDEST PUSH2 0xE88 JUMPI PUSH1 0x40 MLOAD PUSH3 0x461BCD PUSH1 0xE5 SHL DUP2 MSTORE PUSH1 0x20 PUSH1 0x4 DUP3 ADD MSTORE PUSH1 0x18 PUSH1 0x24 DUP3 ADD MSTORE PUSH32 0x4D757374206265206265747765656E203120616E642039300000000000000000 PUSH1 0x44 DUP3 ADD MSTORE PUSH1 0x64 ADD PUSH2 0x359 JUMP JUMPDEST PUSH1 0x3 DUP3 PUSH1 0x3 DUP2 GT ISZERO PUSH2 0xE9C JUMPI PUSH2 0xE9C PUSH2 0x33DF JUMP JUMPDEST EQ ISZERO PUSH2 0xF08 JUMPI DUP1 PUSH2 0xFFFF AND PUSH1 0x0 LT DUP1 ISZERO PUSH2 0xEBC JUMPI POP PUSH2 0x16D DUP2 PUSH2 0xFFFF AND GT ISZERO JUMPDEST PUSH2 0xF08 JUMPI PUSH1 0x40 MLOAD PUSH3 0x461BCD PUSH1 0xE5 SHL DUP2 MSTORE PUSH1 0x20 PUSH1 0x4 DUP3 ADD MSTORE PUSH1 0x19 PUSH1 0x24 DUP3 ADD MSTORE PUSH32 0x4D757374206265206265747765656E203120616E642033363500000000000000 PUSH1 0x44 DUP3 ADD MSTORE PUSH1 0x64 ADD PUSH2 0x359 JUMP JUMPDEST PUSH1 0x0 PUSH2 0xF4F DUP8 DUP8 DUP8 DUP8 DUP1 DUP1 PUSH1 0x1F ADD PUSH1 0x20 DUP1 SWAP2 DIV MUL PUSH1 0x20 ADD PUSH1 0x40 MLOAD SWAP1 DUP2 ADD PUSH1 0x40 MSTORE DUP1 SWAP4 SWAP3 SWAP2 SWAP1 DUP2 DUP2 MSTORE PUSH1 0x20 ADD DUP4 DUP4 DUP1 DUP3 DUP5 CALLDATACOPY PUSH1 0x0 SWAP3 ADD SWAP2 SWAP1 SWAP2 MSTORE POP DUP10 SWAP3 POP DUP9 SWAP2 POP PUSH2 0x29E7 SWAP1 POP JUMP JUMPDEST SWAP1 POP DUP1 PUSH1 0xA PUSH1 0x0 DUP6 PUSH1 0x3 DUP2 GT ISZERO PUSH2 0xF68 JUMPI PUSH2 0xF68 PUSH2 0x33DF JUMP JUMPDEST DUP2 MSTORE PUSH1 0x20 DUP1 DUP3 ADD SWAP3 SWAP1 SWAP3 MSTORE PUSH1 0x40 SWAP1 DUP2 ADD PUSH1 0x0 SWAP1 DUP2 KECCAK256 PUSH2 0xFFFF DUP8 AND DUP3 MSTORE DUP4 MSTORE DUP2 DUP2 KECCAK256 DUP1 SLOAD PUSH1 0x1 DUP2 DUP2 ADD DUP4 SSTORE SWAP2 DUP4 MSTORE SWAP2 DUP5 SWAP1 KECCAK256 DUP6 MLOAD PUSH1 0x5 SWAP1 SWAP4 MUL ADD SWAP2 DUP3 SSTORE SWAP3 DUP5 ADD MLOAD SWAP3 DUP2 ADD SWAP3 SWAP1 SWAP3 SSTORE DUP3 ADD MLOAD PUSH1 0x2 DUP3 ADD DUP1 SLOAD PUSH1 0x1 PUSH1 0x1 PUSH1 0xA0 SHL SUB SWAP3 DUP4 AND PUSH1 0x1 PUSH1 0x1 PUSH1 0xA0 SHL SUB NOT SWAP1 SWAP2 AND OR SWAP1 SSTORE PUSH1 0x60 DUP4 ADD MLOAD PUSH1 0x3 DUP1 DUP5 ADD DUP1 SLOAD PUSH1 0x80 DUP8 ADD MLOAD PUSH1 0xA0 DUP9 ADD MLOAD ISZERO ISZERO PUSH1 0x1 PUSH1 0xA8 SHL MUL PUSH1 0xFF PUSH1 0xA8 SHL NOT SWAP2 ISZERO ISZERO PUSH1 0x1 PUSH1 0xA0 SHL MUL PUSH21 0xFFFFFFFFFFFFFFFFFFFFFFFFFFFFFFFFFFFFFFFFFF NOT SWAP1 SWAP4 AND SWAP6 SWAP1 SWAP7 AND SWAP5 SWAP1 SWAP5 OR OR SWAP3 DUP4 AND DUP5 OR DUP2 SSTORE PUSH1 0xC0 DUP7 ADD MLOAD SWAP4 SWAP1 SWAP3 PUSH1 0xFF PUSH1 0xB0 SHL NOT SWAP1 SWAP2 AND PUSH2 0xFFFF PUSH1 0xA8 SHL NOT SWAP1 SWAP2 AND OR SWAP1 PUSH1 0x1 PUSH1 0xB0 SHL SWAP1 DUP5 SWAP1 DUP2 GT ISZERO PUSH2 0x105D JUMPI PUSH2 0x105D PUSH2 0x33DF JUMP JUMPDEST MUL OR SWAP1 SSTORE POP PUSH1 0xE0 DUP3 ADD MLOAD PUSH1 0x3 DUP3 ADD DUP1 SLOAD PUSH2 0xFFFF SWAP1 SWAP3 AND PUSH1 0x1 PUSH1 0xB8 SHL MUL PUSH2 0xFFFF PUSH1 0xB8 SHL NOT SWAP1 SWAP3 AND SWAP2 SWAP1 SWAP2 OR SWAP1 SSTORE PUSH2 0x100 DUP3 ADD MLOAD DUP1 MLOAD PUSH2 0x10A5 SWAP2 PUSH1 0x4 DUP5 ADD SWAP2 PUSH1 0x20 SWAP1 SWAP2 ADD SWAP1 PUSH2 0x31BA JUMP JUMPDEST POP SWAP1 POP POP PUSH2 0x10F5 PUSH1 0x40 MLOAD DUP1 PUSH1 0x80 ADD PUSH1 0x40 MSTORE DUP1 DUP4 PUSH1 0x0 ADD MLOAD DUP2 MSTORE PUSH1 0x20 ADD DUP4 PUSH1 0xE0 ADD MLOAD PUSH2 0xFFFF AND DUP2 MSTORE PUSH1 0x20 ADD DUP4 PUSH1 0xC0 ADD MLOAD PUSH1 0x3 DUP2 GT ISZERO PUSH2 0x10E5 JUMPI PUSH2 0x10E5 PUSH2 0x33DF JUMP JUMPDEST DUP2 MSTORE PUSH1 0x20 ADD PUSH1 0x0 SWAP1 MSTORE PUSH1 0x1 PUSH2 0x2AD5 JUMP JUMPDEST POP POP POP POP POP POP POP JUMP JUMPDEST PUSH2 0x1106 PUSH2 0x26EE JUMP JUMPDEST PUSH1 0x3 SSTORE JUMP JUMPDEST PUSH1 0x40 DUP1 MLOAD PUSH1 0x80 DUP2 ADD DUP3 MSTORE PUSH1 0x0 DUP1 DUP3 MSTORE PUSH1 0x20 DUP3 ADD DUP2 SWAP1 MSTORE SWAP2 DUP2 ADD DUP3 SWAP1 MSTORE PUSH1 0x60 DUP2 ADD DUP3 SWAP1 MSTORE SWAP1 PUSH2 0x113C PUSH3 0x15180 DUP5 PUSH2 0x36CB JUMP JUMPDEST SWAP1 POP PUSH1 0x0 DUP1 DUP3 DUP2 PUSH2 0x1150 DUP3 PUSH3 0x10BD9 PUSH2 0x36DF JUMP JUMPDEST PUSH2 0x115D SWAP1 PUSH3 0x253D8C PUSH2 0x36DF JUMP JUMPDEST SWAP1 POP PUSH1 0x0 PUSH3 0x23AB1 PUSH2 0x1170 DUP4 PUSH1 0x4 PUSH2 0x371F JUMP JUMPDEST PUSH2 0x117A SWAP2 SWAP1 PUSH2 0x37A6 JUMP JUMPDEST SWAP1 POP PUSH1 0x4 PUSH2 0x118B DUP3 PUSH3 0x23AB1 PUSH2 0x371F JUMP JUMPDEST PUSH2 0x1196 SWAP1 PUSH1 0x3 PUSH2 0x36DF JUMP JUMPDEST PUSH2 0x11A0 SWAP2 SWAP1 PUSH2 0x37A6 JUMP JUMPDEST PUSH2 0x11AA SWAP1 DUP4 PUSH2 0x37D4 JUMP JUMPDEST SWAP2 POP PUSH1 0x0 PUSH3 0x164B09 PUSH2 0x11BD DUP5 PUSH1 0x1 PUSH2 0x36DF JUMP JUMPDEST PUSH2 0x11C9 SWAP1 PUSH2 0xFA0 PUSH2 0x371F JUMP JUMPDEST PUSH2 0x11D3 SWAP2 SWAP1 PUSH2 0x37A6 JUMP JUMPDEST SWAP1 POP PUSH1 0x4 PUSH2 0x11E3 DUP3 PUSH2 0x5B5 PUSH2 0x371F JUMP JUMPDEST PUSH2 0x11ED SWAP2 SWAP1 PUSH2 0x37A6 JUMP JUMPDEST PUSH2 0x11F7 SWAP1 DUP5 PUSH2 0x37D4 JUMP JUMPDEST PUSH2 0x1202 SWAP1 PUSH1 0x1F PUSH2 0x36DF JUMP JUMPDEST SWAP3 POP PUSH1 0x0 PUSH2 0x98F PUSH2 0x1214 DUP6 PUSH1 0x50 PUSH2 0x371F JUMP JUMPDEST PUSH2 0x121E SWAP2 SWAP1 PUSH2 0x37A6 JUMP JUMPDEST SWAP1 POP PUSH1 0x0 PUSH1 0x50 PUSH2 0x1230 DUP4 PUSH2 0x98F PUSH2 0x371F JUMP JUMPDEST PUSH2 0x123A SWAP2 SWAP1 PUSH2 0x37A6 JUMP JUMPDEST PUSH2 0x1244 SWAP1 DUP7 PUSH2 0x37D4 JUMP JUMPDEST SWAP1 POP PUSH2 0x1251 PUSH1 0xB DUP4 PUSH2 0x37A6 JUMP JUMPDEST SWAP5 POP PUSH2 0x125E DUP6 PUSH1 0xC PUSH2 0x371F JUMP JUMPDEST PUSH2 0x1269 DUP4 PUSH1 0x2 PUSH2 0x36DF JUMP JUMPDEST PUSH2 0x1273 SWAP2 SWAP1 PUSH2 0x37D4 JUMP JUMPDEST SWAP2 POP DUP5 DUP4 PUSH2 0x1282 PUSH1 0x31 DUP8 PUSH2 0x37D4 JUMP JUMPDEST PUSH2 0x128D SWAP1 PUSH1 0x64 PUSH2 0x371F JUMP JUMPDEST PUSH2 0x1297 SWAP2 SWAP1 PUSH2 0x36DF JUMP JUMPDEST PUSH2 0x12A1 SWAP2 SWAP1 PUSH2 0x36DF JUMP JUMPDEST SWAP1 SWAP8 POP SWAP2 POP DUP7 DUP3 DUP3 DUP3 PUSH1 0x0 PUSH1 0x1 JUMPDEST DUP4 DUP2 GT PUSH2 0x12FC JUMPI DUP4 DUP2 EQ ISZERO PUSH2 0x12D3 JUMPI PUSH2 0x12CC PUSH2 0xFFFF DUP15 AND DUP4 PUSH2 0x3600 JUMP JUMPDEST SWAP2 POP PUSH2 0x12EA JUMP JUMPDEST PUSH2 0x12DD DUP6 DUP6 PUSH2 0x2C88 JUMP JUMPDEST PUSH2 0x12E7 SWAP1 DUP4 PUSH2 0x3600 JUMP JUMPDEST SWAP2 POP JUMPDEST DUP1 PUSH2 0x12F4 DUP2 PUSH2 0x35CE JUMP JUMPDEST SWAP2 POP POP PUSH2 0x12AF JUMP JUMPDEST POP DUP1 SWAP11 POP PUSH2 0x130E DUP12 PUSH2 0xFFFF AND DUP6 PUSH2 0x2D10 JUMP JUMPDEST PUSH2 0xFFFF AND PUSH1 0x40 DUP16 ADD MSTORE PUSH2 0x1320 DUP16 PUSH2 0x2DDE JUMP JUMPDEST DUP15 PUSH1 0x20 ADD SWAP1 PUSH2 0xFFFF AND SWAP1 DUP2 PUSH2 0xFFFF AND DUP2 MSTORE POP POP DUP12 DUP15 PUSH1 0x0 ADD SWAP1 PUSH2 0xFFFF AND SWAP1 DUP2 PUSH2 0xFFFF AND DUP2 MSTORE POP POP DUP11 DUP15 PUSH1 0x60 ADD SWAP1 PUSH2 0xFFFF AND SWAP1 DUP2 PUSH2 0xFFFF AND DUP2 MSTORE POP POP POP POP POP POP POP POP POP POP POP POP POP POP POP SWAP2 SWAP1 POP JUMP JUMPDEST PUSH1 0x60 DUP1 DUP3 ISZERO PUSH2 0x1464 JUMPI CALLER PUSH1 0x0 SWAP1 DUP2 MSTORE PUSH1 0x8 PUSH1 0x20 SWAP1 DUP2 MSTORE PUSH1 0x40 DUP1 DUP4 KECCAK256 PUSH1 0x2 ADD DUP1 SLOAD DUP3 MLOAD DUP2 DUP6 MUL DUP2 ADD DUP6 ADD SWAP1 SWAP4 MSTORE DUP1 DUP4 MSTORE SWAP2 SWAP4 SWAP1 SWAP3 DUP5 ADD JUMPDEST DUP3 DUP3 LT ISZERO PUSH2 0x1459 JUMPI PUSH1 0x0 DUP5 DUP2 MSTORE PUSH1 0x20 SWAP1 DUP2 SWAP1 KECCAK256 PUSH1 0x40 DUP1 MLOAD PUSH1 0x80 DUP2 ADD DUP3 MSTORE PUSH1 0x2 DUP7 MUL SWAP1 SWAP3 ADD DUP1 SLOAD DUP4 MSTORE PUSH1 0x1 DUP2 ADD SLOAD PUSH2 0xFFFF DUP2 AND SWAP5 DUP5 ADD SWAP5 SWAP1 SWAP5 MSTORE SWAP2 SWAP3 SWAP1 DUP4 ADD SWAP1 PUSH3 0x10000 SWAP1 DIV PUSH1 0xFF AND PUSH1 0x3 DUP2 GT ISZERO PUSH2 0x13FC JUMPI PUSH2 0x13FC PUSH2 0x33DF JUMP JUMPDEST PUSH1 0x3 DUP2 GT ISZERO PUSH2 0x140D JUMPI PUSH2 0x140D PUSH2 0x33DF JUMP JUMPDEST DUP2 MSTORE PUSH1 0x20 ADD PUSH1 0x1 DUP3 ADD PUSH1 0x3 SWAP1 SLOAD SWAP1 PUSH2 0x100 EXP SWAP1 DIV PUSH1 0xFF AND PUSH1 0x2 DUP2 GT ISZERO PUSH2 0x1435 JUMPI PUSH2 0x1435 PUSH2 0x33DF JUMP JUMPDEST PUSH1 0x2 DUP2 GT ISZERO PUSH2 0x1446 JUMPI PUSH2 0x1446 PUSH2 0x33DF JUMP JUMPDEST DUP2 MSTORE POP POP DUP2 MSTORE PUSH1 0x20 ADD SWAP1 PUSH1 0x1 ADD SWAP1 PUSH2 0x13A3 JUMP JUMPDEST POP POP POP POP SWAP1 POP PUSH2 0x154E JUMP JUMPDEST CALLER PUSH1 0x0 SWAP1 DUP2 MSTORE PUSH1 0x8 PUSH1 0x20 SWAP1 DUP2 MSTORE PUSH1 0x40 DUP1 DUP4 KECCAK256 PUSH1 0x3 ADD DUP1 SLOAD DUP3 MLOAD DUP2 DUP6 MUL DUP2 ADD DUP6 ADD SWAP1 SWAP4 MSTORE DUP1 DUP4 MSTORE SWAP2 SWAP4 SWAP1 SWAP3 DUP5 ADD JUMPDEST DUP3 DUP3 LT ISZERO PUSH2 0x1547 JUMPI PUSH1 0x0 DUP5 DUP2 MSTORE PUSH1 0x20 SWAP1 DUP2 SWAP1 KECCAK256 PUSH1 0x40 DUP1 MLOAD PUSH1 0x80 DUP2 ADD DUP3 MSTORE PUSH1 0x2 DUP7 MUL SWAP1 SWAP3 ADD DUP1 SLOAD DUP4 MSTORE PUSH1 0x1 DUP2 ADD SLOAD PUSH2 0xFFFF DUP2 AND SWAP5 DUP5 ADD SWAP5 SWAP1 SWAP5 MSTORE SWAP2 SWAP3 SWAP1 DUP4 ADD SWAP1 PUSH3 0x10000 SWAP1 DIV PUSH1 0xFF AND PUSH1 0x3 DUP2 GT ISZERO PUSH2 0x14EA JUMPI PUSH2 0x14EA PUSH2 0x33DF JUMP JUMPDEST PUSH1 0x3 DUP2 GT ISZERO PUSH2 0x14FB JUMPI PUSH2 0x14FB PUSH2 0x33DF JUMP JUMPDEST DUP2 MSTORE PUSH1 0x20 ADD PUSH1 0x1 DUP3 ADD PUSH1 0x3 SWAP1 SLOAD SWAP1 PUSH2 0x100 EXP SWAP1 DIV PUSH1 0xFF AND PUSH1 0x2 DUP2 GT ISZERO PUSH2 0x1523 JUMPI PUSH2 0x1523 PUSH2 0x33DF JUMP JUMPDEST PUSH1 0x2 DUP2 GT ISZERO PUSH2 0x1534 JUMPI PUSH2 0x1534 PUSH2 0x33DF JUMP JUMPDEST DUP2 MSTORE POP POP DUP2 MSTORE PUSH1 0x20 ADD SWAP1 PUSH1 0x1 ADD SWAP1 PUSH2 0x1491 JUMP JUMPDEST POP POP POP POP SWAP1 POP JUMPDEST PUSH1 0x0 DUP2 MLOAD PUSH8 0xFFFFFFFFFFFFFFFF DUP2 GT ISZERO PUSH2 0x156A JUMPI PUSH2 0x156A PUSH2 0x3664 JUMP JUMPDEST PUSH1 0x40 MLOAD SWAP1 DUP1 DUP3 MSTORE DUP1 PUSH1 0x20 MUL PUSH1 0x20 ADD DUP3 ADD PUSH1 0x40 MSTORE DUP1 ISZERO PUSH2 0x15F8 JUMPI DUP2 PUSH1 0x20 ADD JUMPDEST PUSH2 0x15E5 PUSH1 0x40 MLOAD DUP1 PUSH1 0x40 ADD PUSH1 0x40 MSTORE DUP1 PUSH2 0x31AE PUSH1 0x40 DUP1 MLOAD PUSH2 0x120 DUP2 ADD DUP3 MSTORE PUSH1 0x0 DUP1 DUP3 MSTORE PUSH1 0x20 DUP3 ADD DUP2 SWAP1 MSTORE SWAP2 DUP2 ADD DUP3 SWAP1 MSTORE PUSH1 0x60 DUP2 ADD DUP3 SWAP1 MSTORE PUSH1 0x80 DUP2 ADD DUP3 SWAP1 MSTORE PUSH1 0xA0 DUP2 ADD DUP3 SWAP1 MSTORE SWAP1 PUSH1 0xC0 DUP3 ADD SWAP1 DUP2 MSTORE PUSH1 0x0 PUSH1 0x20 DUP3 ADD MSTORE PUSH1 0x60 PUSH1 0x40 SWAP1 SWAP2 ADD MSTORE SWAP1 JUMP JUMPDEST DUP2 MSTORE PUSH1 0x20 ADD SWAP1 PUSH1 0x1 SWAP1 SUB SWAP1 DUP2 PUSH2 0x1588 JUMPI SWAP1 POP JUMPDEST POP SWAP1 POP PUSH1 0x0 JUMPDEST DUP3 MLOAD DUP2 LT ISZERO PUSH2 0x16BF JUMPI PUSH2 0x1629 DUP4 DUP3 DUP2 MLOAD DUP2 LT PUSH2 0x161C JUMPI PUSH2 0x161C PUSH2 0x35A2 JUMP JUMPDEST PUSH1 0x20 MUL PUSH1 0x20 ADD ADD MLOAD PUSH2 0x2E14 JUMP JUMPDEST DUP3 DUP3 DUP2 MLOAD DUP2 LT PUSH2 0x163B JUMPI PUSH2 0x163B PUSH2 0x35A2 JUMP JUMPDEST PUSH1 0x20 MUL PUSH1 0x20 ADD ADD MLOAD PUSH1 0x0 ADD DUP2 SWAP1 MSTORE POP DUP3 DUP2 DUP2 MLOAD DUP2 LT PUSH2 0x165C JUMPI PUSH2 0x165C PUSH2 0x35A2 JUMP JUMPDEST PUSH1 0x20 MUL PUSH1 0x20 ADD ADD MLOAD PUSH1 0x60 ADD MLOAD DUP3 DUP3 DUP2 MLOAD DUP2 LT PUSH2 0x167A JUMPI PUSH2 0x167A PUSH2 0x35A2 JUMP JUMPDEST PUSH1 0x20 MUL PUSH1 0x20 ADD ADD MLOAD PUSH1 0x20 ADD SWAP1 PUSH1 0x2 DUP2 GT ISZERO PUSH2 0x1697 JUMPI PUSH2 0x1697 PUSH2 0x33DF JUMP JUMPDEST SWAP1 DUP2 PUSH1 0x2 DUP2 GT ISZERO PUSH2 0x16AA JUMPI PUSH2 0x16AA PUSH2 0x33DF JUMP JUMPDEST SWAP1 MSTORE POP DUP1 PUSH2 0x16B7 DUP2 PUSH2 0x35CE JUMP JUMPDEST SWAP2 POP POP PUSH2 0x15FE JUMP JUMPDEST POP SWAP4 SWAP3 POP POP POP JUMP JUMPDEST PUSH2 0x16CF PUSH2 0x26EE JUMP JUMPDEST PUSH1 0x1 SSTORE JUMP JUMPDEST PUSH2 0x16DC PUSH2 0x26EE JUMP JUMPDEST PUSH1 0x3 SLOAD GASPRICE LT PUSH2 0x172D JUMPI PUSH1 0x40 MLOAD PUSH3 0x461BCD PUSH1 0xE5 SHL DUP2 MSTORE PUSH1 0x20 PUSH1 0x4 DUP3 ADD MSTORE PUSH1 0x12 PUSH1 0x24 DUP3 ADD MSTORE PUSH32 0x47617320707269636520746F6F20686967680000000000000000000000000000 PUSH1 0x44 DUP3 ADD MSTORE PUSH1 0x64 ADD PUSH2 0x359 JUMP JUMPDEST PUSH1 0x0 PUSH2 0x1738 TIMESTAMP PUSH2 0x309E JUMP JUMPDEST SWAP1 POP PUSH2 0x175D PUSH1 0x40 MLOAD DUP1 PUSH1 0x40 ADD PUSH1 0x40 MSTORE DUP1 PUSH1 0x2 DUP2 MSTORE PUSH1 0x20 ADD PUSH2 0x34B7 PUSH1 0xF1 SHL DUP2 MSTORE POP PUSH2 0x30AD JUMP JUMPDEST PUSH1 0xD SLOAD PUSH5 0xFFFFFFFFFF PUSH2 0x100 SWAP1 SWAP2 DIV DUP2 AND SWAP1 DUP3 AND GT PUSH2 0x17A3 JUMPI PUSH1 0x40 MLOAD PUSH3 0x461BCD PUSH1 0xE5 SHL DUP2 MSTORE PUSH1 0x20 PUSH1 0x4 DUP3 ADD MSTORE PUSH1 0x2 PUSH1 0x24 DUP3 ADD MSTORE PUSH2 0xC4D PUSH1 0xF2 SHL PUSH1 0x44 DUP3 ADD MSTORE PUSH1 0x64 ADD PUSH2 0x359 JUMP JUMPDEST PUSH1 0x0 PUSH2 0x17AE TIMESTAMP PUSH2 0x110B JUMP JUMPDEST SWAP1 POP PUSH1 0x0 DUP1 JUMPDEST PUSH1 0x3 DUP2 GT PUSH2 0x2144 JUMPI PUSH1 0x0 DUP2 PUSH2 0x17CA JUMPI POP PUSH1 0x20 DUP4 ADD MLOAD JUMPDEST PUSH1 0x1 DUP3 EQ ISZERO PUSH2 0x17D7 JUMPI POP DUP3 MLOAD JUMPDEST PUSH1 0x2 DUP3 EQ ISZERO PUSH2 0x17E7 JUMPI POP PUSH1 0x40 DUP4 ADD MLOAD JUMPDEST PUSH1 0x3 DUP3 EQ ISZERO PUSH2 0x17F7 JUMPI POP PUSH1 0x60 DUP4 ADD MLOAD JUMPDEST PUSH1 0x0 DUP3 DUP2 MSTORE PUSH1 0xA PUSH1 0x20 SWAP1 DUP2 MSTORE PUSH1 0x40 DUP1 DUP4 KECCAK256 PUSH2 0xFFFF DUP6 AND DUP5 MSTORE SWAP1 SWAP2 MSTORE DUP2 KECCAK256 SLOAD SWAP1 JUMPDEST DUP2 DUP2 LT ISZERO PUSH2 0x212E JUMPI PUSH1 0x0 DUP5 DUP2 MSTORE PUSH1 0xA PUSH1 0x20 SWAP1 DUP2 MSTORE PUSH1 0x40 DUP1 DUP4 KECCAK256 PUSH2 0xFFFF DUP8 AND DUP5 MSTORE SWAP1 SWAP2 MSTORE SWAP1 KECCAK256 DUP1 SLOAD DUP3 SWAP1 DUP2 LT PUSH2 0x184E JUMPI PUSH2 0x184E PUSH2 0x35A2 JUMP JUMPDEST SWAP1 PUSH1 0x0 MSTORE PUSH1 0x20 PUSH1 0x0 KECCAK256 SWAP1 PUSH1 0x5 MUL ADD PUSH1 0x3 ADD PUSH1 0x15 SWAP1 SLOAD SWAP1 PUSH2 0x100 EXP SWAP1 DIV PUSH1 0xFF AND PUSH2 0x211C JUMPI PUSH1 0x0 DUP5 DUP2 MSTORE PUSH1 0xA PUSH1 0x20 SWAP1 DUP2 MSTORE PUSH1 0x40 DUP1 DUP4 KECCAK256 PUSH2 0xFFFF DUP8 AND DUP5 MSTORE SWAP1 SWAP2 MSTORE DUP2 KECCAK256 DUP1 SLOAD DUP4 SWAP1 DUP2 LT PUSH2 0x18A0 JUMPI PUSH2 0x18A0 PUSH2 0x35A2 JUMP JUMPDEST PUSH1 0x0 SWAP2 DUP3 MSTORE PUSH1 0x20 DUP1 DUP4 KECCAK256 PUSH1 0x5 SWAP1 SWAP3 MUL SWAP1 SWAP2 ADD SLOAD DUP8 DUP4 MSTORE PUSH1 0xA DUP3 MSTORE PUSH1 0x40 DUP1 DUP5 KECCAK256 PUSH2 0xFFFF DUP10 AND DUP6 MSTORE SWAP1 SWAP3 MSTORE SWAP1 DUP3 KECCAK256 DUP1 SLOAD SWAP2 SWAP4 POP SWAP1 DUP5 SWAP1 DUP2 LT PUSH2 0x18E2 JUMPI PUSH2 0x18E2 PUSH2 0x35A2 JUMP JUMPDEST PUSH1 0x0 SWAP2 DUP3 MSTORE PUSH1 0x20 DUP1 DUP4 KECCAK256 PUSH1 0x3 PUSH1 0x5 SWAP1 SWAP4 MUL ADD SWAP2 SWAP1 SWAP2 ADD SLOAD DUP9 DUP4 MSTORE PUSH1 0xA DUP3 MSTORE PUSH1 0x40 DUP1 DUP5 KECCAK256 PUSH2 0xFFFF DUP11 AND DUP6 MSTORE SWAP1 SWAP3 MSTORE SWAP1 DUP3 KECCAK256 DUP1 SLOAD PUSH1 0x1 PUSH1 0x1 PUSH1 0xA0 SHL SUB SWAP1 SWAP3 AND SWAP4 POP SWAP1 DUP6 SWAP1 DUP2 LT PUSH2 0x1932 JUMPI PUSH2 0x1932 PUSH2 0x35A2 JUMP JUMPDEST PUSH1 0x0 SWAP2 DUP3 MSTORE PUSH1 0x20 DUP1 DUP4 KECCAK256 PUSH1 0x1 PUSH1 0x5 SWAP1 SWAP4 MUL ADD SWAP2 SWAP1 SWAP2 ADD SLOAD DUP10 DUP4 MSTORE PUSH1 0xA DUP3 MSTORE PUSH1 0x40 DUP1 DUP5 KECCAK256 PUSH2 0xFFFF DUP12 AND DUP6 MSTORE SWAP1 SWAP3 MSTORE SWAP1 DUP3 KECCAK256 DUP1 SLOAD SWAP2 SWAP4 POP SWAP1 DUP7 SWAP1 DUP2 LT PUSH2 0x1978 JUMPI PUSH2 0x1978 PUSH2 0x35A2 JUMP JUMPDEST PUSH1 0x0 SWAP2 DUP3 MSTORE PUSH1 0x20 DUP3 KECCAK256 PUSH1 0x2 PUSH1 0x5 SWAP1 SWAP3 MUL ADD ADD SLOAD PUSH1 0x1 SLOAD PUSH1 0x1 PUSH1 0x1 PUSH1 0xA0 SHL SUB SWAP1 SWAP2 AND SWAP3 POP DUP4 SWAP1 PUSH2 0x2710 SWAP1 PUSH2 0x19AB SWAP1 DUP4 PUSH2 0x3813 JUMP JUMPDEST PUSH2 0x19B5 SWAP2 SWAP1 PUSH2 0x36CB JUMP JUMPDEST PUSH2 0x19BF SWAP2 SWAP1 PUSH2 0x35E9 JUMP JUMPDEST SWAP1 POP PUSH1 0x0 DUP1 JUMPDEST PUSH1 0x0 DUP8 DUP2 MSTORE PUSH1 0xB PUSH1 0x20 MSTORE PUSH1 0x40 SWAP1 KECCAK256 SLOAD DUP2 LT ISZERO PUSH2 0x2114 JUMPI PUSH1 0x4 SLOAD DUP13 EQ ISZERO PUSH2 0x1C39 JUMPI PUSH1 0x40 DUP1 MLOAD DUP1 DUP3 ADD DUP3 MSTORE DUP9 DUP2 MSTORE PUSH1 0x20 ADD DUP3 SWAP1 MSTORE PUSH1 0x5 DUP9 SWAP1 SSTORE PUSH1 0x6 DUP3 SWAP1 SSTORE PUSH1 0x7 DUP1 SLOAD PUSH1 0xFF NOT AND SWAP1 SSTORE MLOAD PUSH4 0x6EB1769F PUSH1 0xE1 SHL DUP2 MSTORE PUSH1 0x1 PUSH1 0x1 PUSH1 0xA0 SHL SUB DUP6 DUP2 AND PUSH1 0x4 DUP4 ADD MSTORE ADDRESS PUSH1 0x24 DUP4 ADD MSTORE DUP4 SWAP2 SWAP1 DUP9 AND SWAP1 PUSH4 0xDD62ED3E SWAP1 PUSH1 0x44 ADD PUSH1 0x20 PUSH1 0x40 MLOAD DUP1 DUP4 SUB DUP2 PUSH1 0x0 DUP8 DUP1 EXTCODESIZE ISZERO DUP1 ISZERO PUSH2 0x1A55 JUMPI PUSH1 0x0 DUP1 REVERT JUMPDEST POP GAS CALL ISZERO DUP1 ISZERO PUSH2 0x1A69 JUMPI RETURNDATASIZE PUSH1 0x0 DUP1 RETURNDATACOPY RETURNDATASIZE PUSH1 0x0 REVERT JUMPDEST POP POP POP POP PUSH1 0x40 MLOAD RETURNDATASIZE PUSH1 0x1F NOT PUSH1 0x1F DUP3 ADD AND DUP3 ADD DUP1 PUSH1 0x40 MSTORE POP DUP2 ADD SWAP1 PUSH2 0x1A8D SWAP2 SWAP1 PUSH2 0x3832 JUMP JUMPDEST LT ISZERO DUP1 ISZERO PUSH2 0x1B16 JUMPI POP PUSH1 0x40 MLOAD PUSH4 0x70A08231 PUSH1 0xE0 SHL DUP2 MSTORE PUSH1 0x1 PUSH1 0x1 PUSH1 0xA0 SHL SUB DUP6 DUP2 AND PUSH1 0x4 DUP4 ADD MSTORE DUP4 SWAP2 SWAP1 DUP9 AND SWAP1 PUSH4 0x70A08231 SWAP1 PUSH1 0x24 ADD PUSH1 0x20 PUSH1 0x40 MLOAD DUP1 DUP4 SUB DUP2 PUSH1 0x0 DUP8 DUP1 EXTCODESIZE ISZERO DUP1 ISZERO PUSH2 0x1ADC JUMPI PUSH1 0x0 DUP1 REVERT JUMPDEST POP GAS CALL ISZERO DUP1 ISZERO PUSH2 0x1AF0 JUMPI RETURNDATASIZE PUSH1 0x0 DUP1 RETURNDATACOPY RETURNDATASIZE PUSH1 0x0 REVERT JUMPDEST POP POP POP POP PUSH1 0x40 MLOAD RETURNDATASIZE PUSH1 0x1F NOT PUSH1 0x1F DUP3 ADD AND DUP3 ADD DUP1 PUSH1 0x40 MSTORE POP DUP2 ADD SWAP1 PUSH2 0x1B14 SWAP2 SWAP1 PUSH2 0x3832 JUMP JUMPDEST LT JUMPDEST ISZERO PUSH2 0x1BAC JUMPI PUSH1 0x40 MLOAD PUSH4 0x23B872DD PUSH1 0xE0 SHL DUP2 MSTORE PUSH1 0x1 PUSH1 0x1 PUSH1 0xA0 SHL SUB DUP6 DUP2 AND PUSH1 0x4 DUP4 ADD MSTORE CALLER PUSH1 0x24 DUP4 ADD MSTORE PUSH1 0x44 DUP3 ADD DUP5 SWAP1 MSTORE DUP8 AND SWAP1 PUSH4 0x23B872DD SWAP1 PUSH1 0x64 ADD PUSH1 0x20 PUSH1 0x40 MLOAD DUP1 DUP4 SUB DUP2 PUSH1 0x0 DUP8 DUP1 EXTCODESIZE ISZERO DUP1 ISZERO PUSH2 0x1B6B JUMPI PUSH1 0x0 DUP1 REVERT JUMPDEST POP GAS CALL ISZERO DUP1 ISZERO PUSH2 0x1B7F JUMPI RETURNDATASIZE PUSH1 0x0 DUP1 RETURNDATACOPY RETURNDATASIZE PUSH1 0x0 REVERT JUMPDEST POP POP POP POP PUSH1 0x40 MLOAD RETURNDATASIZE PUSH1 0x1F NOT PUSH1 0x1F DUP3 ADD AND DUP3 ADD DUP1 PUSH1 0x40 MSTORE POP DUP2 ADD SWAP1 PUSH2 0x1BA3 SWAP2 SWAP1 PUSH2 0x384B JUMP JUMPDEST PUSH2 0x1BAC JUMPI PUSH1 0x0 DUP1 REVERT JUMPDEST PUSH2 0x1BD0 PUSH1 0x40 MLOAD DUP1 PUSH1 0x40 ADD PUSH1 0x40 MSTORE DUP1 PUSH1 0x3 DUP2 MSTORE PUSH1 0x20 ADD PUSH3 0x1BDD5D PUSH1 0xEA SHL DUP2 MSTORE POP PUSH2 0x30AD JUMP JUMPDEST PUSH1 0xD SLOAD PUSH1 0x40 DUP1 MLOAD PUSH5 0xFFFFFFFFFF TIMESTAMP DUP2 AND DUP3 MSTORE PUSH2 0x100 SWAP1 SWAP4 DIV SWAP1 SWAP3 AND PUSH1 0x20 DUP4 ADD MSTORE CALLER SWAP1 DUP3 ADD MSTORE PUSH1 0x0 PUSH1 0x60 DUP3 ADD MSTORE PUSH32 0x90192D7875364A53E351AE63FD2DFEF8DC941735B29FB0C504D06A0E21AE602E SWAP1 PUSH1 0x80 ADD PUSH1 0x40 MLOAD DUP1 SWAP2 SUB SWAP1 LOG1 POP POP POP POP POP POP POP POP POP POP POP POP POP POP JUMP JUMPDEST PUSH1 0x5 SLOAD DUP8 EQ DUP1 ISZERO PUSH2 0x1C4B JUMPI POP PUSH1 0x6 SLOAD DUP2 EQ JUMPDEST ISZERO PUSH2 0x1C5E JUMPI PUSH1 0x7 DUP1 SLOAD PUSH1 0xFF NOT AND PUSH1 0x1 OR SWAP1 SSTORE JUMPDEST PUSH1 0x5 SLOAD ISZERO DUP1 PUSH2 0x1C74 JUMPI POP PUSH1 0x7 SLOAD PUSH1 0xFF AND ISZERO ISZERO PUSH1 0x1 EQ JUMPDEST ISZERO PUSH2 0x2102 JUMPI PUSH1 0x0 DUP8 DUP2 MSTORE PUSH1 0xB PUSH1 0x20 MSTORE PUSH1 0x40 DUP2 KECCAK256 DUP1 SLOAD DUP4 SWAP1 DUP2 LT PUSH2 0x1C99 JUMPI PUSH2 0x1C99 PUSH2 0x35A2 JUMP JUMPDEST PUSH1 0x0 SWAP2 DUP3 MSTORE PUSH1 0x20 SWAP1 SWAP2 KECCAK256 ADD SLOAD PUSH1 0x40 MLOAD PUSH4 0x6EB1769F PUSH1 0xE1 SHL DUP2 MSTORE PUSH1 0x1 PUSH1 0x1 PUSH1 0xA0 SHL SUB SWAP2 DUP3 AND PUSH1 0x4 DUP3 ADD DUP2 SWAP1 MSTORE ADDRESS PUSH1 0x24 DUP4 ADD MSTORE SWAP3 POP DUP8 SWAP2 DUP10 AND SWAP1 PUSH4 0xDD62ED3E SWAP1 PUSH1 0x44 ADD PUSH1 0x20 PUSH1 0x40 MLOAD DUP1 DUP4 SUB DUP2 PUSH1 0x0 DUP8 DUP1 EXTCODESIZE ISZERO DUP1 ISZERO PUSH2 0x1CF4 JUMPI PUSH1 0x0 DUP1 REVERT JUMPDEST POP GAS CALL ISZERO DUP1 ISZERO PUSH2 0x1D08 JUMPI RETURNDATASIZE PUSH1 0x0 DUP1 RETURNDATACOPY RETURNDATASIZE PUSH1 0x0 REVERT JUMPDEST POP POP POP POP PUSH1 0x40 MLOAD RETURNDATASIZE PUSH1 0x1F NOT PUSH1 0x1F DUP3 ADD AND DUP3 ADD DUP1 PUSH1 0x40 MSTORE POP DUP2 ADD SWAP1 PUSH2 0x1D2C SWAP2 SWAP1 PUSH2 0x3832 JUMP JUMPDEST LT ISZERO DUP1 ISZERO PUSH2 0x1DB5 JUMPI POP PUSH1 0x40 MLOAD PUSH4 0x70A08231 PUSH1 0xE0 SHL DUP2 MSTORE PUSH1 0x1 PUSH1 0x1 PUSH1 0xA0 SHL SUB DUP3 DUP2 AND PUSH1 0x4 DUP4 ADD MSTORE DUP8 SWAP2 SWAP1 DUP10 AND SWAP1 PUSH4 0x70A08231 SWAP1 PUSH1 0x24 ADD PUSH1 0x20 PUSH1 0x40 MLOAD DUP1 DUP4 SUB DUP2 PUSH1 0x0 DUP8 DUP1 EXTCODESIZE ISZERO DUP1 ISZERO PUSH2 0x1D7B JUMPI PUSH1 0x0 DUP1 REVERT JUMPDEST POP GAS CALL ISZERO DUP1 ISZERO PUSH2 0x1D8F JUMPI RETURNDATASIZE PUSH1 0x0 DUP1 RETURNDATACOPY RETURNDATASIZE PUSH1 0x0 REVERT JUMPDEST POP POP POP POP PUSH1 0x40 MLOAD RETURNDATASIZE PUSH1 0x1F NOT PUSH1 0x1F DUP3 ADD AND DUP3 ADD DUP1 PUSH1 0x40 MSTORE POP DUP2 ADD SWAP1 PUSH2 0x1DB3 SWAP2 SWAP1 PUSH2 0x3832 JUMP JUMPDEST LT JUMPDEST ISZERO PUSH2 0x1E2F JUMPI DUP13 PUSH2 0x1DC4 DUP2 PUSH2 0x35CE JUMP JUMPDEST SWAP14 POP PUSH2 0x1DD2 SWAP1 POP DUP5 DUP5 PUSH2 0x3600 JUMP JUMPDEST PUSH1 0x40 DUP1 MLOAD TIMESTAMP PUSH5 0xFFFFFFFFFF AND DUP2 MSTORE PUSH1 0x20 DUP2 ADD DUP10 SWAP1 MSTORE PUSH1 0x0 DUP2 DUP4 ADD MSTORE SWAP1 MLOAD SWAP2 SWAP5 POP PUSH1 0x1 PUSH1 0x1 PUSH1 0xA0 SHL SUB DUP4 AND SWAP2 DUP11 SWAP2 PUSH32 0xEB34DB283910A123EFC9E9C8A81C4FB25BFC0C3D4C0E30E300BED3D05853F716 SWAP2 SWAP1 DUP2 SWAP1 SUB PUSH1 0x60 ADD SWAP1 LOG3 PUSH2 0x1F3B JUMP JUMPDEST DUP13 PUSH2 0x1E39 DUP2 PUSH2 0x35CE JUMP JUMPDEST SWAP14 POP PUSH2 0x1E47 SWAP1 POP DUP5 DUP5 PUSH2 0x3600 JUMP JUMPDEST PUSH1 0x40 DUP1 MLOAD TIMESTAMP PUSH5 0xFFFFFFFFFF AND DUP2 MSTORE PUSH1 0x20 DUP2 ADD DUP10 SWAP1 MSTORE PUSH1 0x1 DUP2 DUP4 ADD MSTORE SWAP1 MLOAD SWAP2 SWAP5 POP PUSH1 0x1 PUSH1 0x1 PUSH1 0xA0 SHL SUB DUP4 AND SWAP2 DUP11 SWAP2 PUSH32 0xEB34DB283910A123EFC9E9C8A81C4FB25BFC0C3D4C0E30E300BED3D05853F716 SWAP2 SWAP1 DUP2 SWAP1 SUB PUSH1 0x60 ADD SWAP1 LOG3 PUSH2 0x1EA8 DUP14 PUSH2 0x30F0 JUMP JUMPDEST PUSH1 0x40 MLOAD PUSH4 0x23B872DD PUSH1 0xE0 SHL DUP2 MSTORE PUSH1 0x1 PUSH1 0x1 PUSH1 0xA0 SHL SUB DUP3 DUP2 AND PUSH1 0x4 DUP4 ADD MSTORE DUP7 DUP2 AND PUSH1 0x24 DUP4 ADD MSTORE PUSH1 0x44 DUP3 ADD DUP9 SWAP1 MSTORE DUP9 AND SWAP1 PUSH4 0x23B872DD SWAP1 PUSH1 0x64 ADD PUSH1 0x20 PUSH1 0x40 MLOAD DUP1 DUP4 SUB DUP2 PUSH1 0x0 DUP8 DUP1 EXTCODESIZE ISZERO DUP1 ISZERO PUSH2 0x1EFA JUMPI PUSH1 0x0 DUP1 REVERT JUMPDEST POP GAS CALL ISZERO DUP1 ISZERO PUSH2 0x1F0E JUMPI RETURNDATASIZE PUSH1 0x0 DUP1 RETURNDATACOPY RETURNDATASIZE PUSH1 0x0 REVERT JUMPDEST POP POP POP POP PUSH1 0x40 MLOAD RETURNDATASIZE PUSH1 0x1F NOT PUSH1 0x1F DUP3 ADD AND DUP3 ADD DUP1 PUSH1 0x40 MSTORE POP DUP2 ADD SWAP1 PUSH2 0x1F32 SWAP2 SWAP1 PUSH2 0x384B JUMP JUMPDEST PUSH2 0x1F3B JUMPI PUSH1 0x0 DUP1 REVERT JUMPDEST PUSH1 0x0 DUP9 DUP2 MSTORE PUSH1 0xB PUSH1 0x20 MSTORE PUSH1 0x40 SWAP1 KECCAK256 SLOAD PUSH2 0x1F56 SWAP1 PUSH1 0x1 SWAP1 PUSH2 0x35E9 JUMP JUMPDEST DUP3 EQ ISZERO PUSH2 0x2100 JUMPI PUSH1 0x40 MLOAD PUSH4 0x6EB1769F PUSH1 0xE1 SHL DUP2 MSTORE PUSH1 0x1 PUSH1 0x1 PUSH1 0xA0 SHL SUB DUP7 DUP2 AND PUSH1 0x4 DUP4 ADD MSTORE ADDRESS PUSH1 0x24 DUP4 ADD MSTORE DUP5 SWAP2 SWAP1 DUP10 AND SWAP1 PUSH4 0xDD62ED3E SWAP1 PUSH1 0x44 ADD PUSH1 0x20 PUSH1 0x40 MLOAD DUP1 DUP4 SUB DUP2 PUSH1 0x0 DUP8 DUP1 EXTCODESIZE ISZERO DUP1 ISZERO PUSH2 0x1FA9 JUMPI PUSH1 0x0 DUP1 REVERT JUMPDEST POP GAS CALL ISZERO DUP1 ISZERO PUSH2 0x1FBD JUMPI RETURNDATASIZE PUSH1 0x0 DUP1 RETURNDATACOPY RETURNDATASIZE PUSH1 0x0 REVERT JUMPDEST POP POP POP POP PUSH1 0x40 MLOAD RETURNDATASIZE PUSH1 0x1F NOT PUSH1 0x1F DUP3 ADD AND DUP3 ADD DUP1 PUSH1 0x40 MSTORE POP DUP2 ADD SWAP1 PUSH2 0x1FE1 SWAP2 SWAP1 PUSH2 0x3832 JUMP JUMPDEST LT ISZERO DUP1 ISZERO PUSH2 0x206A JUMPI POP PUSH1 0x40 MLOAD PUSH4 0x70A08231 PUSH1 0xE0 SHL DUP2 MSTORE PUSH1 0x1 PUSH1 0x1 PUSH1 0xA0 SHL SUB DUP7 DUP2 AND PUSH1 0x4 DUP4 ADD MSTORE DUP5 SWAP2 SWAP1 DUP10 AND SWAP1 PUSH4 0x70A08231 SWAP1 PUSH1 0x24 ADD PUSH1 0x20 PUSH1 0x40 MLOAD DUP1 DUP4 SUB DUP2 PUSH1 0x0 DUP8 DUP1 EXTCODESIZE ISZERO DUP1 ISZERO PUSH2 0x2030 JUMPI PUSH1 0x0 DUP1 REVERT JUMPDEST POP GAS CALL ISZERO DUP1 ISZERO PUSH2 0x2044 JUMPI RETURNDATASIZE PUSH1 0x0 DUP1 RETURNDATACOPY RETURNDATASIZE PUSH1 0x0 REVERT JUMPDEST POP POP POP POP PUSH1 0x40 MLOAD RETURNDATASIZE PUSH1 0x1F NOT PUSH1 0x1F DUP3 ADD AND DUP3 ADD DUP1 PUSH1 0x40 MSTORE POP DUP2 ADD SWAP1 PUSH2 0x2068 SWAP2 SWAP1 PUSH2 0x3832 JUMP JUMPDEST LT JUMPDEST ISZERO PUSH2 0x2100 JUMPI PUSH1 0x40 MLOAD PUSH4 0x23B872DD PUSH1 0xE0 SHL DUP2 MSTORE PUSH1 0x1 PUSH1 0x1 PUSH1 0xA0 SHL SUB DUP7 DUP2 AND PUSH1 0x4 DUP4 ADD MSTORE CALLER PUSH1 0x24 DUP4 ADD MSTORE PUSH1 0x44 DUP3 ADD DUP6 SWAP1 MSTORE DUP9 AND SWAP1 PUSH4 0x23B872DD SWAP1 PUSH1 0x64 ADD PUSH1 0x20 PUSH1 0x40 MLOAD DUP1 DUP4 SUB DUP2 PUSH1 0x0 DUP8 DUP1 EXTCODESIZE ISZERO DUP1 ISZERO PUSH2 0x20BF JUMPI PUSH1 0x0 DUP1 REVERT JUMPDEST POP GAS CALL ISZERO DUP1 ISZERO PUSH2 0x20D3 JUMPI RETURNDATASIZE PUSH1 0x0 DUP1 RETURNDATACOPY RETURNDATASIZE PUSH1 0x0 REVERT JUMPDEST POP POP POP POP PUSH1 0x40 MLOAD RETURNDATASIZE PUSH1 0x1F NOT PUSH1 0x1F DUP3 ADD AND DUP3 ADD DUP1 PUSH1 0x40 MSTORE POP DUP2 ADD SWAP1 PUSH2 0x20F7 SWAP2 SWAP1 PUSH2 0x384B JUMP JUMPDEST PUSH2 0x2100 JUMPI PUSH1 0x0 DUP1 REVERT JUMPDEST POP JUMPDEST DUP1 PUSH2 0x210C DUP2 PUSH2 0x35CE JUMP JUMPDEST SWAP2 POP POP PUSH2 0x19C5 JUMP JUMPDEST POP POP POP POP POP POP POP JUMPDEST DUP1 PUSH2 0x2126 DUP2 PUSH2 0x35CE JUMP JUMPDEST SWAP2 POP POP PUSH2 0x1817 JUMP JUMPDEST POP POP POP DUP1 DUP1 PUSH2 0x213C SWAP1 PUSH2 0x35CE JUMP JUMPDEST SWAP2 POP POP PUSH2 0x17B4 JUMP JUMPDEST POP PUSH1 0x0 PUSH1 0x5 DUP2 SWAP1 SSTORE PUSH1 0x6 SSTORE PUSH1 0x7 DUP1 SLOAD PUSH1 0xFF NOT AND SWAP1 SSTORE PUSH1 0x40 DUP1 MLOAD DUP1 DUP3 ADD SWAP1 SWAP2 MSTORE PUSH1 0x8 DUP2 MSTORE PUSH8 0x6D6F766574696D65 PUSH1 0xC0 SHL PUSH1 0x20 DUP3 ADD MSTORE PUSH2 0x2181 SWAP1 PUSH2 0x30AD JUMP JUMPDEST PUSH1 0xD SLOAD PUSH1 0x40 DUP1 MLOAD PUSH5 0xFFFFFFFFFF TIMESTAMP DUP2 AND DUP3 MSTORE PUSH2 0x100 SWAP1 SWAP4 DIV SWAP1 SWAP3 AND PUSH1 0x20 DUP4 ADD MSTORE CALLER SWAP1 DUP3 ADD MSTORE PUSH1 0x1 PUSH1 0x60 DUP3 ADD MSTORE PUSH32 0x90192D7875364A53E351AE63FD2DFEF8DC941735B29FB0C504D06A0E21AE602E SWAP1 PUSH1 0x80 ADD PUSH1 0x40 MLOAD DUP1 SWAP2 SUB SWAP1 LOG1 PUSH1 0xD DUP1 SLOAD PUSH6 0xFFFFFFFFFF00 NOT AND PUSH2 0x100 PUSH5 0xFFFFFFFFFF DUP7 AND MUL OR SWAP1 SSTORE PUSH1 0x40 DUP1 MLOAD DUP1 DUP3 ADD SWAP1 SWAP2 MSTORE PUSH1 0x3 DUP2 MSTORE PUSH3 0x1BDD5D PUSH1 0xEA SHL PUSH1 0x20 DUP3 ADD MSTORE PUSH2 0x2219 SWAP1 PUSH2 0x30AD JUMP JUMPDEST POP POP POP JUMPDEST JUMP JUMPDEST PUSH2 0x2227 PUSH2 0x26EE JUMP JUMPDEST PUSH1 0x2 SSTORE JUMP JUMPDEST PUSH2 0x2234 PUSH2 0x26EE JUMP JUMPDEST CALLER PUSH1 0x1 PUSH1 0x1 PUSH1 0xA0 SHL SUB DUP3 AND EQ DUP1 ISZERO PUSH2 0x2254 JUMPI POP PUSH1 0x1 PUSH1 0x1 PUSH1 0xA0 SHL SUB DUP2 AND ISZERO ISZERO JUMPDEST PUSH2 0x225D JUMPI PUSH1 0x0 DUP1 REVERT JUMPDEST PUSH1 0x0 DUP1 SLOAD PUSH1 0x1 PUSH1 0x1 PUSH1 0xA0 SHL SUB NOT AND PUSH1 0x1 PUSH1 0x1 PUSH1 0xA0 SHL SUB SWAP3 SWAP1 SWAP3 AND SWAP2 SWAP1 SWAP2 OR SWAP1 SSTORE JUMP JUMPDEST PUSH2 0x2287 PUSH2 0x27ED JUMP JUMPDEST PUSH1 0x20 DUP2 ADD CALLDATALOAD PUSH2 0x229C PUSH1 0x80 DUP4 ADD PUSH1 0x60 DUP5 ADD PUSH2 0x326F JUMP JUMPDEST PUSH1 0x40 MLOAD PUSH4 0x6EB1769F PUSH1 0xE1 SHL DUP2 MSTORE CALLER PUSH1 0x4 DUP3 ADD MSTORE ADDRESS PUSH1 0x24 DUP3 ADD MSTORE PUSH1 0x1 PUSH1 0x1 PUSH1 0xA0 SHL SUB SWAP2 SWAP1 SWAP2 AND SWAP1 PUSH4 0xDD62ED3E SWAP1 PUSH1 0x44 ADD PUSH1 0x20 PUSH1 0x40 MLOAD DUP1 DUP4 SUB DUP2 PUSH1 0x0 DUP8 DUP1 EXTCODESIZE ISZERO DUP1 ISZERO PUSH2 0x22E5 JUMPI PUSH1 0x0 DUP1 REVERT JUMPDEST POP GAS CALL ISZERO DUP1 ISZERO PUSH2 0x22F9 JUMPI RETURNDATASIZE PUSH1 0x0 DUP1 RETURNDATACOPY RETURNDATASIZE PUSH1 0x0 REVERT JUMPDEST POP POP POP POP PUSH1 0x40 MLOAD RETURNDATASIZE PUSH1 0x1F NOT PUSH1 0x1F DUP3 ADD AND DUP3 ADD DUP1 PUSH1 0x40 MSTORE POP DUP2 ADD SWAP1 PUSH2 0x231D SWAP2 SWAP1 PUSH2 0x3832 JUMP JUMPDEST LT ISZERO PUSH2 0x2350 JUMPI PUSH1 0x40 MLOAD PUSH3 0x461BCD PUSH1 0xE5 SHL DUP2 MSTORE PUSH1 0x20 PUSH1 0x4 DUP3 ADD MSTORE PUSH1 0x2 PUSH1 0x24 DUP3 ADD MSTORE PUSH2 0x3133 PUSH1 0xF0 SHL PUSH1 0x44 DUP3 ADD MSTORE PUSH1 0x64 ADD PUSH2 0x359 JUMP JUMPDEST PUSH2 0x2366 DUP2 CALLDATALOAD PUSH2 0x50F PUSH2 0x100 DUP5 ADD PUSH1 0xE0 DUP6 ADD PUSH2 0x362E JUMP JUMPDEST PUSH2 0x2396 JUMPI PUSH1 0x40 MLOAD PUSH3 0x461BCD PUSH1 0xE5 SHL DUP2 MSTORE PUSH1 0x20 PUSH1 0x4 DUP3 ADD MSTORE PUSH1 0x1 PUSH1 0x24 DUP3 ADD MSTORE PUSH1 0x37 PUSH1 0xF8 SHL PUSH1 0x44 DUP3 ADD MSTORE PUSH1 0x64 ADD PUSH2 0x359 JUMP JUMPDEST DUP1 CALLDATALOAD PUSH1 0x0 DUP2 DUP2 MSTORE PUSH1 0xB PUSH1 0x20 SWAP1 DUP2 MSTORE PUSH1 0x40 DUP1 DUP4 KECCAK256 DUP1 SLOAD PUSH1 0x1 DUP2 ADD DUP3 SSTORE SWAP1 DUP5 MSTORE SWAP3 DUP3 SWAP1 KECCAK256 SWAP1 SWAP3 ADD DUP1 SLOAD PUSH1 0x1 PUSH1 0x1 PUSH1 0xA0 SHL SUB NOT AND CALLER OR SWAP1 SSTORE DUP2 MLOAD PUSH1 0x80 DUP2 ADD SWAP1 SWAP3 MSTORE SWAP2 DUP2 MSTORE PUSH2 0x2428 SWAP2 DUP2 ADD PUSH2 0x23EE PUSH2 0x100 DUP6 ADD PUSH1 0xE0 DUP7 ADD PUSH2 0x362E JUMP JUMPDEST PUSH2 0xFFFF AND DUP2 MSTORE PUSH1 0x20 ADD PUSH2 0x2407 PUSH1 0xE0 DUP6 ADD PUSH1 0xC0 DUP7 ADD PUSH2 0x3649 JUMP JUMPDEST PUSH1 0x3 DUP2 GT ISZERO PUSH2 0x2418 JUMPI PUSH2 0x2418 PUSH2 0x33DF JUMP JUMPDEST DUP2 MSTORE PUSH1 0x20 ADD PUSH1 0x0 SWAP1 MSTORE PUSH1 0x0 PUSH2 0x2AD5 JUMP JUMPDEST POP JUMP JUMPDEST PUSH2 0x2433 PUSH2 0x26EE JUMP JUMPDEST PUSH1 0x1 PUSH1 0x1 PUSH1 0xA0 SHL SUB DUP2 AND PUSH2 0x2446 JUMPI PUSH1 0x0 DUP1 REVERT JUMPDEST PUSH2 0x244F DUP2 PUSH2 0x272C JUMP JUMPDEST ISZERO PUSH2 0x2480 JUMPI PUSH1 0x40 MLOAD PUSH3 0x461BCD PUSH1 0xE5 SHL DUP2 MSTORE PUSH1 0x20 PUSH1 0x4 DUP3 ADD MSTORE PUSH1 0x1 PUSH1 0x24 DUP3 ADD MSTORE PUSH1 0x31 PUSH1 0xF8 SHL PUSH1 0x44 DUP3 ADD MSTORE PUSH1 0x64 ADD PUSH2 0x359 JUMP JUMPDEST PUSH1 0xC DUP1 SLOAD PUSH1 0x1 DUP2 ADD DUP3 SSTORE PUSH1 0x0 SWAP2 SWAP1 SWAP2 MSTORE PUSH32 0xDF6966C971051C3D54EC59162606531493A51404A002842F56009D7E5CF4A8C7 ADD DUP1 SLOAD PUSH1 0x1 PUSH1 0x1 PUSH1 0xA0 SHL SUB NOT AND PUSH1 0x1 PUSH1 0x1 PUSH1 0xA0 SHL SUB SWAP3 SWAP1 SWAP3 AND SWAP2 SWAP1 SWAP2 OR SWAP1 SSTORE JUMP JUMPDEST PUSH2 0x24DA PUSH2 0x27ED JUMP JUMPDEST CALLER PUSH1 0x0 SWAP1 DUP2 MSTORE PUSH1 0x8 PUSH1 0x20 MSTORE PUSH1 0x40 DUP2 KECCAK256 PUSH1 0x2 ADD SLOAD PUSH8 0xFFFFFFFFFFFFFFFF DUP2 GT ISZERO PUSH2 0x2505 JUMPI PUSH2 0x2505 PUSH2 0x3664 JUMP JUMPDEST PUSH1 0x40 MLOAD SWAP1 DUP1 DUP3 MSTORE DUP1 PUSH1 0x20 MUL PUSH1 0x20 ADD DUP3 ADD PUSH1 0x40 MSTORE DUP1 ISZERO PUSH2 0x253E JUMPI DUP2 PUSH1 0x20 ADD JUMPDEST PUSH2 0x252B PUSH2 0x3192 JUMP JUMPDEST DUP2 MSTORE PUSH1 0x20 ADD SWAP1 PUSH1 0x1 SWAP1 SUB SWAP1 DUP2 PUSH2 0x2523 JUMPI SWAP1 POP JUMPDEST POP CALLER PUSH1 0x0 SWAP1 DUP2 MSTORE PUSH1 0x8 PUSH1 0x20 SWAP1 DUP2 MSTORE PUSH1 0x40 DUP1 DUP4 KECCAK256 PUSH1 0x2 ADD DUP1 SLOAD DUP3 MLOAD DUP2 DUP6 MUL DUP2 ADD DUP6 ADD SWAP1 SWAP4 MSTORE DUP1 DUP4 MSTORE SWAP5 SWAP6 POP SWAP1 SWAP4 SWAP1 SWAP3 SWAP1 SWAP2 DUP5 ADD JUMPDEST DUP3 DUP3 LT ISZERO PUSH2 0x2627 JUMPI PUSH1 0x0 DUP5 DUP2 MSTORE PUSH1 0x20 SWAP1 DUP2 SWAP1 KECCAK256 PUSH1 0x40 DUP1 MLOAD PUSH1 0x80 DUP2 ADD DUP3 MSTORE PUSH1 0x2 DUP7 MUL SWAP1 SWAP3 ADD DUP1 SLOAD DUP4 MSTORE PUSH1 0x1 DUP2 ADD SLOAD PUSH2 0xFFFF DUP2 AND SWAP5 DUP5 ADD SWAP5 SWAP1 SWAP5 MSTORE SWAP2 SWAP3 SWAP1 DUP4 ADD SWAP1 PUSH3 0x10000 SWAP1 DIV PUSH1 0xFF AND PUSH1 0x3 DUP2 GT ISZERO PUSH2 0x25CA JUMPI PUSH2 0x25CA PUSH2 0x33DF JUMP JUMPDEST PUSH1 0x3 DUP2 GT ISZERO PUSH2 0x25DB JUMPI PUSH2 0x25DB PUSH2 0x33DF JUMP JUMPDEST DUP2 MSTORE PUSH1 0x20 ADD PUSH1 0x1 DUP3 ADD PUSH1 0x3 SWAP1 SLOAD SWAP1 PUSH2 0x100 EXP SWAP1 DIV PUSH1 0xFF AND PUSH1 0x2 DUP2 GT ISZERO PUSH2 0x2603 JUMPI PUSH2 0x2603 PUSH2 0x33DF JUMP JUMPDEST PUSH1 0x2 DUP2 GT ISZERO PUSH2 0x2614 JUMPI PUSH2 0x2614 PUSH2 0x33DF JUMP JUMPDEST DUP2 MSTORE POP POP DUP2 MSTORE PUSH1 0x20 ADD SWAP1 PUSH1 0x1 ADD SWAP1 PUSH2 0x2571 JUMP JUMPDEST POP POP POP POP SWAP1 POP PUSH1 0x0 JUMPDEST CALLER PUSH1 0x0 SWAP1 DUP2 MSTORE PUSH1 0x8 PUSH1 0x20 MSTORE PUSH1 0x40 SWAP1 KECCAK256 PUSH1 0x2 ADD SLOAD DUP2 LT ISZERO PUSH2 0x26DF JUMPI DUP3 DUP3 DUP3 DUP2 MLOAD DUP2 LT PUSH2 0x265D JUMPI PUSH2 0x265D PUSH2 0x35A2 JUMP JUMPDEST PUSH1 0x20 MUL PUSH1 0x20 ADD ADD MLOAD PUSH1 0x0 ADD MLOAD EQ ISZERO PUSH2 0x26CD JUMPI CALLER PUSH1 0x0 SWAP1 DUP2 MSTORE PUSH1 0x8 PUSH1 0x20 MSTORE PUSH1 0x40 SWAP1 KECCAK256 PUSH1 0x2 SWAP1 DUP2 ADD DUP1 SLOAD DUP4 SWAP1 DUP2 LT PUSH2 0x2695 JUMPI PUSH2 0x2695 PUSH2 0x35A2 JUMP JUMPDEST SWAP1 PUSH1 0x0 MSTORE PUSH1 0x20 PUSH1 0x0 KECCAK256 SWAP1 PUSH1 0x2 MUL ADD PUSH1 0x1 ADD PUSH1 0x3 PUSH2 0x100 EXP DUP2 SLOAD DUP2 PUSH1 0xFF MUL NOT AND SWAP1 DUP4 PUSH1 0x2 DUP2 GT ISZERO PUSH2 0x26C7 JUMPI PUSH2 0x26C7 PUSH2 0x33DF JUMP JUMPDEST MUL OR SWAP1 SSTORE POP JUMPDEST DUP1 PUSH2 0x26D7 DUP2 PUSH2 0x35CE JUMP JUMPDEST SWAP2 POP POP PUSH2 0x2630 JUMP JUMPDEST POP PUSH2 0x26EA DUP3 CALLER PUSH2 0x289A JUMP JUMPDEST POP POP JUMP JUMPDEST PUSH1 0x0 SLOAD PUSH1 0x1 PUSH1 0x1 PUSH1 0xA0 SHL SUB AND CALLER EQ PUSH2 0x221D JUMPI PUSH1 0x40 MLOAD PUSH3 0x461BCD PUSH1 0xE5 SHL DUP2 MSTORE PUSH1 0x20 PUSH1 0x4 DUP3 ADD MSTORE PUSH1 0x1 PUSH1 0x24 DUP3 ADD MSTORE PUSH1 0x3 PUSH1 0xFC SHL PUSH1 0x44 DUP3 ADD MSTORE PUSH1 0x64 ADD PUSH2 0x359 JUMP JUMPDEST PUSH1 0x0 DUP1 PUSH1 0xC DUP1 SLOAD DUP1 PUSH1 0x20 MUL PUSH1 0x20 ADD PUSH1 0x40 MLOAD SWAP1 DUP2 ADD PUSH1 0x40 MSTORE DUP1 SWAP3 SWAP2 SWAP1 DUP2 DUP2 MSTORE PUSH1 0x20 ADD DUP3 DUP1 SLOAD DUP1 ISZERO PUSH2 0x2785 JUMPI PUSH1 0x20 MUL DUP3 ADD SWAP2 SWAP1 PUSH1 0x0 MSTORE PUSH1 0x20 PUSH1 0x0 KECCAK256 SWAP1 JUMPDEST DUP2 SLOAD PUSH1 0x1 PUSH1 0x1 PUSH1 0xA0 SHL SUB AND DUP2 MSTORE PUSH1 0x1 SWAP1 SWAP2 ADD SWAP1 PUSH1 0x20 ADD DUP1 DUP4 GT PUSH2 0x2767 JUMPI JUMPDEST POP POP POP POP POP SWAP1 POP PUSH1 0x0 SWAP2 POP PUSH1 0x0 JUMPDEST DUP2 MLOAD DUP2 LT ISZERO PUSH2 0x27E6 JUMPI DUP2 DUP2 DUP2 MLOAD DUP2 LT PUSH2 0x27AE JUMPI PUSH2 0x27AE PUSH2 0x35A2 JUMP JUMPDEST PUSH1 0x20 MUL PUSH1 0x20 ADD ADD MLOAD PUSH1 0x1 PUSH1 0x1 PUSH1 0xA0 SHL SUB AND DUP5 PUSH1 0x1 PUSH1 0x1 PUSH1 0xA0 SHL SUB AND EQ ISZERO PUSH2 0x27D4 JUMPI PUSH1 0x1 SWAP3 POP JUMPDEST DUP1 PUSH2 0x27DE DUP2 PUSH2 0x35CE JUMP JUMPDEST SWAP2 POP POP PUSH2 0x2793 JUMP JUMPDEST POP POP SWAP2 SWAP1 POP JUMP JUMPDEST CALLER PUSH2 0x221D JUMPI PUSH1 0x40 MLOAD PUSH3 0x461BCD PUSH1 0xE5 SHL DUP2 MSTORE PUSH1 0x20 PUSH1 0x4 DUP3 ADD MSTORE PUSH1 0x1 PUSH1 0x24 DUP3 ADD MSTORE PUSH1 0x33 PUSH1 0xF8 SHL PUSH1 0x44 DUP3 ADD MSTORE PUSH1 0x64 ADD PUSH2 0x359 JUMP JUMPDEST PUSH1 0x0 DUP1 PUSH1 0x40 MLOAD DUP1 PUSH1 0x80 ADD PUSH1 0x40 MSTORE DUP1 DUP8 DUP2 MSTORE PUSH1 0x20 ADD DUP7 PUSH2 0xFFFF AND DUP2 MSTORE PUSH1 0x20 ADD DUP6 PUSH1 0x3 DUP2 GT ISZERO PUSH2 0x284E JUMPI PUSH2 0x284E PUSH2 0x33DF JUMP JUMPDEST DUP2 MSTORE PUSH1 0x20 ADD DUP5 PUSH1 0x2 DUP2 GT ISZERO PUSH2 0x2865 JUMPI PUSH2 0x2865 PUSH2 0x33DF JUMP JUMPDEST SWAP1 MSTORE SWAP1 POP PUSH1 0x0 PUSH2 0x2874 DUP3 PUSH2 0x2E14 JUMP JUMPDEST SWAP1 POP DUP1 PUSH1 0x80 ADD MLOAD ISZERO PUSH2 0x288B JUMPI PUSH1 0x1 SWAP3 POP POP POP PUSH2 0x2892 JUMP JUMPDEST PUSH1 0x0 SWAP3 POP POP POP JUMPDEST SWAP5 SWAP4 POP POP POP POP JUMP JUMPDEST PUSH1 0x0 DUP3 DUP2 MSTORE PUSH1 0xB PUSH1 0x20 MSTORE PUSH1 0x40 DUP2 KECCAK256 SWAP1 DUP1 JUMPDEST DUP3 SLOAD DUP2 LT ISZERO PUSH2 0x29E0 JUMPI DUP4 PUSH1 0x1 PUSH1 0x1 PUSH1 0xA0 SHL SUB AND DUP4 DUP3 DUP2 SLOAD DUP2 LT PUSH2 0x28D0 JUMPI PUSH2 0x28D0 PUSH2 0x35A2 JUMP JUMPDEST PUSH1 0x0 SWAP2 DUP3 MSTORE PUSH1 0x20 SWAP1 SWAP2 KECCAK256 ADD SLOAD PUSH1 0x1 PUSH1 0x1 PUSH1 0xA0 SHL SUB AND EQ ISZERO PUSH2 0x291E JUMPI DUP1 SWAP2 POP DUP3 DUP2 DUP2 SLOAD DUP2 LT PUSH2 0x2900 JUMPI PUSH2 0x2900 PUSH2 0x35A2 JUMP JUMPDEST PUSH1 0x0 SWAP2 DUP3 MSTORE PUSH1 0x20 SWAP1 SWAP2 KECCAK256 ADD DUP1 SLOAD PUSH1 0x1 PUSH1 0x1 PUSH1 0xA0 SHL SUB NOT AND SWAP1 SSTORE PUSH2 0x29E0 JUMP JUMPDEST DUP3 SLOAD DUP4 SWAP1 PUSH2 0x292E SWAP1 PUSH1 0x1 SWAP1 PUSH2 0x35E9 JUMP JUMPDEST DUP2 SLOAD DUP2 LT PUSH2 0x293E JUMPI PUSH2 0x293E PUSH2 0x35A2 JUMP JUMPDEST SWAP1 PUSH1 0x0 MSTORE PUSH1 0x20 PUSH1 0x0 KECCAK256 ADD PUSH1 0x0 SWAP1 SLOAD SWAP1 PUSH2 0x100 EXP SWAP1 DIV PUSH1 0x1 PUSH1 0x1 PUSH1 0xA0 SHL SUB AND DUP4 DUP4 DUP2 SLOAD DUP2 LT PUSH2 0x296E JUMPI PUSH2 0x296E PUSH2 0x35A2 JUMP JUMPDEST SWAP1 PUSH1 0x0 MSTORE PUSH1 0x20 PUSH1 0x0 KECCAK256 ADD PUSH1 0x0 PUSH2 0x100 EXP DUP2 SLOAD DUP2 PUSH1 0x1 PUSH1 0x1 PUSH1 0xA0 SHL SUB MUL NOT AND SWAP1 DUP4 PUSH1 0x1 PUSH1 0x1 PUSH1 0xA0 SHL SUB AND MUL OR SWAP1 SSTORE POP DUP3 DUP1 SLOAD DUP1 PUSH2 0x29AC JUMPI PUSH2 0x29AC PUSH2 0x3618 JUMP JUMPDEST PUSH1 0x0 DUP3 DUP2 MSTORE PUSH1 0x20 SWAP1 KECCAK256 DUP2 ADD PUSH1 0x0 NOT SWAP1 DUP2 ADD DUP1 SLOAD PUSH1 0x1 PUSH1 0x1 PUSH1 0xA0 SHL SUB NOT AND SWAP1 SSTORE ADD SWAP1 SSTORE DUP1 PUSH2 0x29D8 DUP2 PUSH2 0x35CE JUMP JUMPDEST SWAP2 POP POP PUSH2 0x28AB JUMP JUMPDEST POP POP POP POP POP JUMP JUMPDEST PUSH2 0x2A36 PUSH1 0x40 DUP1 MLOAD PUSH2 0x120 DUP2 ADD DUP3 MSTORE PUSH1 0x0 DUP1 DUP3 MSTORE PUSH1 0x20 DUP3 ADD DUP2 SWAP1 MSTORE SWAP2 DUP2 ADD DUP3 SWAP1 MSTORE PUSH1 0x60 DUP2 ADD DUP3 SWAP1 MSTORE PUSH1 0x80 DUP2 ADD DUP3 SWAP1 MSTORE PUSH1 0xA0 DUP2 ADD DUP3 SWAP1 MSTORE SWAP1 PUSH1 0xC0 DUP3 ADD SWAP1 DUP2 MSTORE PUSH1 0x0 PUSH1 0x20 DUP3 ADD MSTORE PUSH1 0x60 PUSH1 0x40 SWAP1 SWAP2 ADD MSTORE SWAP1 JUMP JUMPDEST PUSH1 0x0 CALLER DUP7 DUP5 DUP8 TIMESTAMP PUSH1 0x40 MLOAD PUSH1 0x20 ADD PUSH2 0x2A51 SWAP6 SWAP5 SWAP4 SWAP3 SWAP2 SWAP1 PUSH2 0x3868 JUMP JUMPDEST PUSH1 0x40 DUP1 MLOAD PUSH1 0x1F NOT DUP2 DUP5 SUB ADD DUP2 MSTORE DUP3 DUP3 MSTORE DUP1 MLOAD PUSH1 0x20 SWAP2 DUP3 ADD KECCAK256 PUSH2 0x120 DUP5 ADD DUP4 MSTORE DUP1 DUP5 MSTORE SWAP1 DUP4 ADD DUP11 SWAP1 MSTORE CALLER SWAP2 DUP4 ADD SWAP2 SWAP1 SWAP2 MSTORE PUSH1 0x1 PUSH1 0x1 PUSH1 0xA0 SHL SUB DUP9 AND PUSH1 0x60 DUP4 ADD MSTORE PUSH1 0x1 PUSH1 0x80 DUP4 ADD MSTORE PUSH1 0x0 PUSH1 0xA0 DUP4 ADD MSTORE SWAP2 POP PUSH1 0xC0 DUP2 ADD DUP6 PUSH1 0x3 DUP2 GT ISZERO PUSH2 0x2AB6 JUMPI PUSH2 0x2AB6 PUSH2 0x33DF JUMP JUMPDEST DUP2 MSTORE PUSH1 0x20 ADD DUP5 PUSH2 0xFFFF AND DUP2 MSTORE PUSH1 0x20 ADD DUP7 DUP2 MSTORE POP SWAP2 POP POP SWAP6 SWAP5 POP POP POP POP POP JUMP JUMPDEST CALLER PUSH1 0x0 SWAP1 DUP2 MSTORE PUSH1 0x8 PUSH1 0x20 MSTORE PUSH1 0x40 SWAP1 KECCAK256 SLOAD PUSH1 0x1 PUSH1 0xA0 SHL SWAP1 DIV PUSH1 0xFF AND PUSH2 0x2B5F JUMPI CALLER PUSH1 0x0 DUP2 DUP2 MSTORE PUSH1 0x8 PUSH1 0x20 MSTORE PUSH1 0x40 DUP2 KECCAK256 DUP1 SLOAD PUSH1 0x1 PUSH1 0x1 PUSH1 0xA0 SHL SUB NOT SWAP1 DUP2 AND DUP5 OR DUP3 SSTORE PUSH1 0x9 DUP1 SLOAD PUSH1 0x1 DUP2 ADD SWAP1 SWAP2 SSTORE PUSH32 0x6E1540171B6C0C960B71A7020D9F60077F6AF931A8BBF590DA0223DACF75C7AF ADD DUP1 SLOAD SWAP1 SWAP2 AND DUP5 OR SWAP1 SSTORE SWAP2 SWAP1 MSTORE DUP1 SLOAD PUSH1 0xFF PUSH1 0xA0 SHL NOT AND PUSH1 0x1 PUSH1 0xA0 SHL OR SWAP1 SSTORE JUMPDEST DUP1 ISZERO PUSH2 0x2C15 JUMPI CALLER PUSH1 0x0 SWAP1 DUP2 MSTORE PUSH1 0x8 PUSH1 0x20 SWAP1 DUP2 MSTORE PUSH1 0x40 DUP1 DUP4 KECCAK256 PUSH1 0x3 SWAP1 DUP2 ADD DUP1 SLOAD PUSH1 0x1 DUP1 DUP3 ADD DUP4 SSTORE SWAP2 DUP7 MSTORE SWAP5 DUP5 SWAP1 KECCAK256 DUP8 MLOAD PUSH1 0x2 SWAP1 SWAP7 MUL ADD SWAP5 DUP6 SSTORE SWAP3 DUP7 ADD MLOAD SWAP3 DUP5 ADD DUP1 SLOAD PUSH2 0xFFFF NOT DUP2 AND PUSH2 0xFFFF SWAP1 SWAP6 AND SWAP5 DUP6 OR DUP3 SSTORE SWAP3 DUP8 ADD MLOAD DUP8 SWAP6 SWAP5 SWAP1 SWAP4 SWAP2 SWAP3 PUSH3 0xFFFFFF NOT SWAP1 SWAP3 AND OR SWAP1 PUSH3 0x10000 SWAP1 DUP5 SWAP1 DUP2 GT ISZERO PUSH2 0x2BDC JUMPI PUSH2 0x2BDC PUSH2 0x33DF JUMP JUMPDEST MUL OR SWAP1 SSTORE POP PUSH1 0x60 DUP3 ADD MLOAD PUSH1 0x1 DUP3 ADD DUP1 SLOAD PUSH4 0xFF000000 NOT AND PUSH4 0x1000000 DUP4 PUSH1 0x2 DUP2 GT ISZERO PUSH2 0x2C0A JUMPI PUSH2 0x2C0A PUSH2 0x33DF JUMP JUMPDEST MUL OR SWAP1 SSTORE POP POP POP POP POP JUMP JUMPDEST CALLER PUSH1 0x0 SWAP1 DUP2 MSTORE PUSH1 0x8 PUSH1 0x20 SWAP1 DUP2 MSTORE PUSH1 0x40 DUP1 DUP4 KECCAK256 PUSH1 0x2 SWAP1 DUP2 ADD DUP1 SLOAD PUSH1 0x1 DUP1 DUP3 ADD DUP4 SSTORE SWAP2 DUP7 MSTORE SWAP5 DUP5 SWAP1 KECCAK256 DUP8 MLOAD SWAP6 SWAP1 SWAP3 MUL SWAP1 SWAP2 ADD SWAP4 DUP5 SSTORE SWAP2 DUP6 ADD MLOAD SWAP2 DUP4 ADD DUP1 SLOAD PUSH2 0xFFFF NOT DUP2 AND PUSH2 0xFFFF SWAP1 SWAP5 AND SWAP4 DUP5 OR DUP3 SSTORE SWAP2 DUP7 ADD MLOAD DUP7 SWAP5 SWAP4 SWAP1 SWAP3 PUSH3 0xFFFFFF NOT AND OR PUSH3 0x10000 DUP4 PUSH1 0x3 DUP2 GT ISZERO PUSH2 0x2BDC JUMPI PUSH2 0x2BDC PUSH2 0x33DF JUMP JUMPDEST PUSH1 0x0 DUP2 PUSH1 0x1 EQ DUP1 PUSH2 0x2C99 JUMPI POP DUP2 PUSH1 0x3 EQ JUMPDEST DUP1 PUSH2 0x2CA4 JUMPI POP DUP2 PUSH1 0x5 EQ JUMPDEST DUP1 PUSH2 0x2CAF JUMPI POP DUP2 PUSH1 0x7 EQ JUMPDEST DUP1 PUSH2 0x2CBA JUMPI POP DUP2 PUSH1 0x8 EQ JUMPDEST DUP1 PUSH2 0x2CC5 JUMPI POP DUP2 PUSH1 0xA EQ JUMPDEST DUP1 PUSH2 0x2CD0 JUMPI POP DUP2 PUSH1 0xC EQ JUMPDEST ISZERO PUSH2 0x2CDD JUMPI POP PUSH1 0x1F PUSH2 0x2D0A JUMP JUMPDEST DUP2 PUSH1 0x2 EQ PUSH2 0x2CED JUMPI POP PUSH1 0x1E PUSH2 0x2D0A JUMP JUMPDEST PUSH2 0x2CF6 DUP4 PUSH2 0x3135 JUMP JUMPDEST PUSH2 0x2D01 JUMPI PUSH1 0x1C PUSH2 0x2D04 JUMP JUMPDEST PUSH1 0x1D JUMPDEST PUSH1 0xFF AND SWAP1 POP JUMPDEST SWAP3 SWAP2 POP POP JUMP JUMPDEST PUSH1 0x0 DUP1 PUSH2 0x2D1C DUP4 PUSH2 0x3135 JUMP JUMPDEST ISZERO PUSH2 0x2D29 JUMPI POP PUSH1 0x1 PUSH2 0x2D2D JUMP JUMPDEST POP PUSH1 0x0 JUMPDEST PUSH2 0x2D38 DUP2 PUSH1 0x5A PUSH2 0x3600 JUMP JUMPDEST DUP5 GT PUSH2 0x2D46 JUMPI DUP4 SWAP2 POP PUSH2 0x2DD7 JUMP JUMPDEST DUP4 PUSH2 0x2D52 DUP3 PUSH1 0x5A PUSH2 0x3600 JUMP JUMPDEST LT DUP1 ISZERO PUSH2 0x2D69 JUMPI POP PUSH2 0x2D65 DUP2 PUSH1 0xB5 PUSH2 0x3600 JUMP JUMPDEST DUP5 GT ISZERO JUMPDEST ISZERO PUSH2 0x2D8A JUMPI PUSH2 0x2D79 DUP2 PUSH1 0x5A PUSH2 0x3600 JUMP JUMPDEST PUSH2 0x2D83 SWAP1 DUP6 PUSH2 0x35E9 JUMP JUMPDEST SWAP2 POP PUSH2 0x2DD7 JUMP JUMPDEST DUP4 PUSH2 0x2D96 DUP3 PUSH1 0xB5 PUSH2 0x3600 JUMP JUMPDEST LT DUP1 ISZERO PUSH2 0x2DAE JUMPI POP PUSH2 0x2DAA DUP2 PUSH2 0x111 PUSH2 0x3600 JUMP JUMPDEST DUP5 GT ISZERO JUMPDEST ISZERO PUSH2 0x2DBE JUMPI PUSH2 0x2D79 DUP2 PUSH1 0xB5 PUSH2 0x3600 JUMP JUMPDEST PUSH2 0x2DCA DUP2 PUSH2 0x111 PUSH2 0x3600 JUMP JUMPDEST PUSH2 0x2DD4 SWAP1 DUP6 PUSH2 0x35E9 JUMP JUMPDEST SWAP2 POP JUMPDEST POP SWAP3 SWAP2 POP POP JUMP JUMPDEST PUSH1 0x0 DUP1 PUSH2 0x2DEE PUSH3 0x15180 DUP5 PUSH2 0x36CB JUMP JUMPDEST SWAP1 POP PUSH1 0x0 PUSH1 0x7 PUSH2 0x2DFF DUP4 PUSH1 0x3 PUSH2 0x3600 JUMP JUMPDEST PUSH2 0x2E09 SWAP2 SWAP1 PUSH2 0x38C6 JUMP JUMPDEST PUSH2 0x2892 SWAP1 PUSH1 0x1 PUSH2 0x3600 JUMP JUMPDEST PUSH2 0x2E63 PUSH1 0x40 DUP1 MLOAD PUSH2 0x120 DUP2 ADD DUP3 MSTORE PUSH1 0x0 DUP1 DUP3 MSTORE PUSH1 0x20 DUP3 ADD DUP2 SWAP1 MSTORE SWAP2 DUP2 ADD DUP3 SWAP1 MSTORE PUSH1 0x60 DUP2 ADD DUP3 SWAP1 MSTORE PUSH1 0x80 DUP2 ADD DUP3 SWAP1 MSTORE PUSH1 0xA0 DUP2 ADD DUP3 SWAP1 MSTORE SWAP1 PUSH1 0xC0 DUP3 ADD SWAP1 DUP2 MSTORE PUSH1 0x0 PUSH1 0x20 DUP3 ADD MSTORE PUSH1 0x60 PUSH1 0x40 SWAP1 SWAP2 ADD MSTORE SWAP1 JUMP JUMPDEST PUSH1 0x0 PUSH1 0xA PUSH1 0x0 DUP5 PUSH1 0x40 ADD MLOAD PUSH1 0x3 DUP2 GT ISZERO PUSH2 0x2E7F JUMPI PUSH2 0x2E7F PUSH2 0x33DF JUMP JUMPDEST DUP2 MSTORE PUSH1 0x20 ADD SWAP1 DUP2 MSTORE PUSH1 0x20 ADD PUSH1 0x0 KECCAK256 PUSH1 0x0 DUP5 PUSH1 0x20 ADD MLOAD PUSH2 0xFFFF AND PUSH2 0xFFFF AND DUP2 MSTORE PUSH1 0x20 ADD SWAP1 DUP2 MSTORE PUSH1 0x20 ADD PUSH1 0x0 KECCAK256 DUP1 SLOAD DUP1 PUSH1 0x20 MUL PUSH1 0x20 ADD PUSH1 0x40 MLOAD SWAP1 DUP2 ADD PUSH1 0x40 MSTORE DUP1 SWAP3 SWAP2 SWAP1 DUP2 DUP2 MSTORE PUSH1 0x20 ADD PUSH1 0x0 SWAP1 JUMPDEST DUP3 DUP3 LT ISZERO PUSH2 0x3034 JUMPI PUSH1 0x0 DUP5 DUP2 MSTORE PUSH1 0x20 SWAP1 DUP2 SWAP1 KECCAK256 PUSH1 0x40 DUP1 MLOAD PUSH2 0x120 DUP2 ADD DUP3 MSTORE PUSH1 0x5 DUP7 MUL SWAP1 SWAP3 ADD DUP1 SLOAD DUP4 MSTORE PUSH1 0x1 DUP2 ADD SLOAD SWAP4 DUP4 ADD SWAP4 SWAP1 SWAP4 MSTORE PUSH1 0x2 DUP4 ADD SLOAD PUSH1 0x1 PUSH1 0x1 PUSH1 0xA0 SHL SUB SWAP1 DUP2 AND SWAP2 DUP4 ADD SWAP2 SWAP1 SWAP2 MSTORE PUSH1 0x3 DUP1 DUP5 ADD SLOAD SWAP2 DUP3 AND PUSH1 0x60 DUP5 ADD MSTORE PUSH1 0xFF PUSH1 0x1 PUSH1 0xA0 SHL DUP4 DIV DUP2 AND ISZERO ISZERO PUSH1 0x80 DUP6 ADD MSTORE PUSH1 0x1 PUSH1 0xA8 SHL DUP4 DIV DUP2 AND ISZERO ISZERO PUSH1 0xA0 DUP6 ADD MSTORE SWAP3 SWAP4 SWAP3 PUSH1 0xC0 DUP6 ADD SWAP3 PUSH1 0x1 PUSH1 0xB0 SHL SWAP1 DIV AND SWAP1 DUP2 GT ISZERO PUSH2 0x2F66 JUMPI PUSH2 0x2F66 PUSH2 0x33DF JUMP JUMPDEST PUSH1 0x3 DUP2 GT ISZERO PUSH2 0x2F77 JUMPI PUSH2 0x2F77 PUSH2 0x33DF JUMP JUMPDEST DUP2 MSTORE PUSH1 0x3 DUP3 ADD SLOAD PUSH1 0x1 PUSH1 0xB8 SHL SWAP1 DIV PUSH2 0xFFFF AND PUSH1 0x20 DUP3 ADD MSTORE PUSH1 0x4 DUP3 ADD DUP1 SLOAD PUSH1 0x40 SWAP1 SWAP3 ADD SWAP2 PUSH2 0x2FA3 SWAP1 PUSH2 0x367A JUMP JUMPDEST DUP1 PUSH1 0x1F ADD PUSH1 0x20 DUP1 SWAP2 DIV MUL PUSH1 0x20 ADD PUSH1 0x40 MLOAD SWAP1 DUP2 ADD PUSH1 0x40 MSTORE DUP1 SWAP3 SWAP2 SWAP1 DUP2 DUP2 MSTORE PUSH1 0x20 ADD DUP3 DUP1 SLOAD PUSH2 0x2FCF SWAP1 PUSH2 0x367A JUMP JUMPDEST DUP1 ISZERO PUSH2 0x301C JUMPI DUP1 PUSH1 0x1F LT PUSH2 0x2FF1 JUMPI PUSH2 0x100 DUP1 DUP4 SLOAD DIV MUL DUP4 MSTORE SWAP2 PUSH1 0x20 ADD SWAP2 PUSH2 0x301C JUMP JUMPDEST DUP3 ADD SWAP2 SWAP1 PUSH1 0x0 MSTORE PUSH1 0x20 PUSH1 0x0 KECCAK256 SWAP1 JUMPDEST DUP2 SLOAD DUP2 MSTORE SWAP1 PUSH1 0x1 ADD SWAP1 PUSH1 0x20 ADD DUP1 DUP4 GT PUSH2 0x2FFF JUMPI DUP3 SWAP1 SUB PUSH1 0x1F AND DUP3 ADD SWAP2 JUMPDEST POP POP POP POP POP DUP2 MSTORE POP POP DUP2 MSTORE PUSH1 0x20 ADD SWAP1 PUSH1 0x1 ADD SWAP1 PUSH2 0x2ECA JUMP JUMPDEST POP POP POP POP SWAP1 POP PUSH1 0x0 JUMPDEST DUP2 MLOAD DUP2 LT ISZERO PUSH2 0x27E6 JUMPI DUP4 PUSH1 0x0 ADD MLOAD DUP3 DUP3 DUP2 MLOAD DUP2 LT PUSH2 0x305D JUMPI PUSH2 0x305D PUSH2 0x35A2 JUMP JUMPDEST PUSH1 0x20 MUL PUSH1 0x20 ADD ADD MLOAD PUSH1 0x0 ADD MLOAD EQ ISZERO PUSH2 0x308C JUMPI DUP2 DUP2 DUP2 MLOAD DUP2 LT PUSH2 0x3081 JUMPI PUSH2 0x3081 PUSH2 0x35A2 JUMP JUMPDEST PUSH1 0x20 MUL PUSH1 0x20 ADD ADD MLOAD SWAP3 POP JUMPDEST DUP1 PUSH2 0x3096 DUP2 PUSH2 0x35CE JUMP JUMPDEST SWAP2 POP POP PUSH2 0x303D JUMP JUMPDEST PUSH1 0x0 PUSH2 0x2D0A PUSH3 0x15180 DUP4 PUSH2 0x38DA JUMP JUMPDEST PUSH2 0x2428 DUP2 PUSH1 0x40 MLOAD PUSH1 0x24 ADD PUSH2 0x30C1 SWAP2 SWAP1 PUSH2 0x38FE JUMP JUMPDEST PUSH1 0x40 DUP1 MLOAD PUSH1 0x1F NOT DUP2 DUP5 SUB ADD DUP2 MSTORE SWAP2 SWAP1 MSTORE PUSH1 0x20 DUP2 ADD DUP1 MLOAD PUSH1 0x1 PUSH1 0x1 PUSH1 0xE0 SHL SUB AND PUSH4 0x104C13EB PUSH1 0xE2 SHL OR SWAP1 MSTORE PUSH2 0x3171 JUMP JUMPDEST PUSH2 0x2428 DUP2 PUSH1 0x40 MLOAD PUSH1 0x24 ADD PUSH2 0x3106 SWAP2 DUP2 MSTORE PUSH1 0x20 ADD SWAP1 JUMP JUMPDEST PUSH1 0x40 DUP1 MLOAD PUSH1 0x1F NOT DUP2 DUP5 SUB ADD DUP2 MSTORE SWAP2 SWAP1 MSTORE PUSH1 0x20 DUP2 ADD DUP1 MLOAD PUSH1 0x1 PUSH1 0x1 PUSH1 0xE0 SHL SUB AND PUSH4 0xF82C50F1 PUSH1 0xE0 SHL OR SWAP1 MSTORE PUSH2 0x3171 JUMP JUMPDEST PUSH1 0x0 PUSH2 0x3142 PUSH1 0x4 DUP4 PUSH2 0x38C6 JUMP JUMPDEST ISZERO DUP1 ISZERO PUSH2 0x3158 JUMPI POP PUSH2 0x3155 PUSH1 0x64 DUP4 PUSH2 0x38C6 JUMP JUMPDEST ISZERO ISZERO JUMPDEST DUP1 PUSH2 0x2D0A JUMPI POP PUSH2 0x316A PUSH2 0x190 DUP4 PUSH2 0x38C6 JUMP JUMPDEST ISZERO SWAP3 SWAP2 POP POP JUMP JUMPDEST DUP1 MLOAD PUSH11 0x636F6E736F6C652E6C6F67 PUSH1 0x20 DUP4 ADD PUSH1 0x0 DUP1 DUP5 DUP4 DUP6 GAS STATICCALL POP POP POP POP POP JUMP JUMPDEST PUSH1 0x40 DUP1 MLOAD PUSH1 0x80 DUP2 ADD DUP3 MSTORE PUSH1 0x0 DUP1 DUP3 MSTORE PUSH1 0x20 DUP3 ADD DUP2 SWAP1 MSTORE SWAP1 SWAP2 DUP3 ADD SWAP1 JUMPDEST DUP2 MSTORE PUSH1 0x20 ADD PUSH1 0x0 SWAP1 MSTORE SWAP1 JUMP JUMPDEST DUP3 DUP1 SLOAD PUSH2 0x31C6 SWAP1 PUSH2 0x367A JUMP JUMPDEST SWAP1 PUSH1 0x0 MSTORE PUSH1 0x20 PUSH1 0x0 KECCAK256 SWAP1 PUSH1 0x1F ADD PUSH1 0x20 SWAP1 DIV DUP2 ADD SWAP3 DUP3 PUSH2 0x31E8 JUMPI PUSH1 0x0 DUP6 SSTORE PUSH2 0x322E JUMP JUMPDEST DUP3 PUSH1 0x1F LT PUSH2 0x3201 JUMPI DUP1 MLOAD PUSH1 0xFF NOT AND DUP4 DUP1 ADD OR DUP6 SSTORE PUSH2 0x322E JUMP JUMPDEST DUP3 DUP1 ADD PUSH1 0x1 ADD DUP6 SSTORE DUP3 ISZERO PUSH2 0x322E JUMPI SWAP2 DUP3 ADD JUMPDEST DUP3 DUP2 GT ISZERO PUSH2 0x322E JUMPI DUP3 MLOAD DUP3 SSTORE SWAP2 PUSH1 0x20 ADD SWAP2 SWAP1 PUSH1 0x1 ADD SWAP1 PUSH2 0x3213 JUMP JUMPDEST POP PUSH2 0x323A SWAP3 SWAP2 POP PUSH2 0x323E JUMP JUMPDEST POP SWAP1 JUMP JUMPDEST JUMPDEST DUP1 DUP3 GT ISZERO PUSH2 0x323A JUMPI PUSH1 0x0 DUP2 SSTORE PUSH1 0x1 ADD PUSH2 0x323F JUMP JUMPDEST DUP1 CALLDATALOAD PUSH1 0x1 PUSH1 0x1 PUSH1 0xA0 SHL SUB DUP2 AND DUP2 EQ PUSH2 0x326A JUMPI PUSH1 0x0 DUP1 REVERT JUMPDEST SWAP2 SWAP1 POP JUMP JUMPDEST PUSH1 0x0 PUSH1 0x20 DUP3 DUP5 SUB SLT ISZERO PUSH2 0x3281 JUMPI PUSH1 0x0 DUP1 REVERT JUMPDEST PUSH2 0x328A DUP3 PUSH2 0x3253 JUMP JUMPDEST SWAP4 SWAP3 POP POP POP JUMP JUMPDEST PUSH1 0x0 PUSH1 0x20 DUP3 DUP5 SUB SLT ISZERO PUSH2 0x32A3 JUMPI PUSH1 0x0 DUP1 REVERT JUMPDEST DUP2 CALLDATALOAD PUSH8 0xFFFFFFFFFFFFFFFF DUP2 GT ISZERO PUSH2 0x32BA JUMPI PUSH1 0x0 DUP1 REVERT JUMPDEST DUP3 ADD PUSH2 0x120 DUP2 DUP6 SUB SLT ISZERO PUSH2 0x328A JUMPI PUSH1 0x0 DUP1 REVERT JUMPDEST PUSH1 0x0 PUSH1 0x20 DUP3 DUP5 SUB SLT ISZERO PUSH2 0x32DF JUMPI PUSH1 0x0 DUP1 REVERT JUMPDEST POP CALLDATALOAD SWAP2 SWAP1 POP JUMP JUMPDEST DUP1 CALLDATALOAD PUSH1 0x4 DUP2 LT PUSH2 0x326A JUMPI PUSH1 0x0 DUP1 REVERT JUMPDEST DUP1 CALLDATALOAD PUSH2 0xFFFF DUP2 AND DUP2 EQ PUSH2 0x326A JUMPI PUSH1 0x0 DUP1 REVERT JUMPDEST PUSH1 0x0 DUP1 PUSH1 0x0 DUP1 PUSH1 0x0 DUP1 PUSH1 0xA0 DUP8 DUP10 SUB SLT ISZERO PUSH2 0x3320 JUMPI PUSH1 0x0 DUP1 REVERT JUMPDEST DUP7 CALLDATALOAD SWAP6 POP PUSH2 0x3330 PUSH1 0x20 DUP9 ADD PUSH2 0x3253 JUMP JUMPDEST SWAP5 POP PUSH1 0x40 DUP8 ADD CALLDATALOAD PUSH8 0xFFFFFFFFFFFFFFFF DUP1 DUP3 GT ISZERO PUSH2 0x334D JUMPI PUSH1 0x0 DUP1 REVERT JUMPDEST DUP2 DUP10 ADD SWAP2 POP DUP10 PUSH1 0x1F DUP4 ADD SLT PUSH2 0x3361 JUMPI PUSH1 0x0 DUP1 REVERT JUMPDEST DUP2 CALLDATALOAD DUP2 DUP2 GT ISZERO PUSH2 0x3370 JUMPI PUSH1 0x0 DUP1 REVERT JUMPDEST DUP11 PUSH1 0x20 DUP3 DUP6 ADD ADD GT ISZERO PUSH2 0x3382 JUMPI PUSH1 0x0 DUP1 REVERT JUMPDEST PUSH1 0x20 DUP4 ADD SWAP7 POP DUP1 SWAP6 POP POP POP POP PUSH2 0x339A PUSH1 0x60 DUP9 ADD PUSH2 0x32E6 JUMP JUMPDEST SWAP2 POP PUSH2 0x33A8 PUSH1 0x80 DUP9 ADD PUSH2 0x32F5 JUMP JUMPDEST SWAP1 POP SWAP3 SWAP6 POP SWAP3 SWAP6 POP SWAP3 SWAP6 JUMP JUMPDEST DUP1 ISZERO ISZERO DUP2 EQ PUSH2 0x2428 JUMPI PUSH1 0x0 DUP1 REVERT JUMPDEST PUSH1 0x0 PUSH1 0x20 DUP3 DUP5 SUB SLT ISZERO PUSH2 0x33D4 JUMPI PUSH1 0x0 DUP1 REVERT JUMPDEST DUP2 CALLDATALOAD PUSH2 0x328A DUP2 PUSH2 0x33B4 JUMP JUMPDEST PUSH4 0x4E487B71 PUSH1 0xE0 SHL PUSH1 0x0 MSTORE PUSH1 0x21 PUSH1 0x4 MSTORE PUSH1 0x24 PUSH1 0x0 REVERT JUMPDEST PUSH1 0x4 DUP2 LT PUSH2 0x3405 JUMPI PUSH2 0x3405 PUSH2 0x33DF JUMP JUMPDEST SWAP1 MSTORE JUMP JUMPDEST PUSH1 0x0 JUMPDEST DUP4 DUP2 LT ISZERO PUSH2 0x3424 JUMPI DUP2 DUP2 ADD MLOAD DUP4 DUP3 ADD MSTORE PUSH1 0x20 ADD PUSH2 0x340C JUMP JUMPDEST DUP4 DUP2 GT ISZERO PUSH2 0xBA5 JUMPI POP POP PUSH1 0x0 SWAP2 ADD MSTORE JUMP JUMPDEST PUSH1 0x0 DUP2 MLOAD DUP1 DUP5 MSTORE PUSH2 0x344D DUP2 PUSH1 0x20 DUP7 ADD PUSH1 0x20 DUP7 ADD PUSH2 0x3409 JUMP JUMPDEST PUSH1 0x1F ADD PUSH1 0x1F NOT AND SWAP3 SWAP1 SWAP3 ADD PUSH1 0x20 ADD SWAP3 SWAP2 POP POP JUMP JUMPDEST PUSH1 0x3 DUP2 LT PUSH2 0x3405 JUMPI PUSH2 0x3405 PUSH2 0x33DF JUMP JUMPDEST PUSH1 0x0 PUSH1 0x20 DUP1 DUP4 ADD DUP2 DUP5 MSTORE DUP1 DUP6 MLOAD DUP1 DUP4 MSTORE PUSH1 0x40 SWAP3 POP DUP3 DUP7 ADD SWAP2 POP DUP3 DUP2 PUSH1 0x5 SHL DUP8 ADD ADD DUP5 DUP9 ADD PUSH1 0x0 JUMPDEST DUP4 DUP2 LT ISZERO PUSH2 0x3594 JUMPI PUSH1 0x3F NOT DUP10 DUP5 SUB ADD DUP6 MSTORE DUP2 MLOAD DUP1 MLOAD DUP8 DUP6 MSTORE DUP1 MLOAD DUP9 DUP7 ADD MSTORE DUP9 DUP2 ADD MLOAD PUSH1 0x60 DUP2 DUP2 DUP9 ADD MSTORE DUP10 DUP4 ADD MLOAD SWAP2 POP PUSH1 0x80 PUSH2 0x34DD DUP2 DUP10 ADD DUP5 PUSH1 0x1 PUSH1 0x1 PUSH1 0xA0 SHL SUB AND SWAP1 MSTORE JUMP JUMPDEST SWAP1 DUP4 ADD MLOAD SWAP2 POP PUSH1 0xA0 SWAP1 PUSH2 0x34FA DUP9 DUP4 ADD DUP5 PUSH1 0x1 PUSH1 0x1 PUSH1 0xA0 SHL SUB AND SWAP1 MSTORE JUMP JUMPDEST DUP4 ADD MLOAD SWAP2 POP PUSH1 0xC0 PUSH2 0x350E DUP9 DUP3 ADD DUP5 ISZERO ISZERO SWAP1 MSTORE JUMP JUMPDEST SWAP1 DUP4 ADD MLOAD SWAP2 POP PUSH1 0xE0 SWAP1 PUSH2 0x3524 DUP9 DUP4 ADD DUP5 ISZERO ISZERO SWAP1 MSTORE JUMP JUMPDEST DUP4 ADD MLOAD SWAP2 POP PUSH2 0x100 PUSH2 0x3538 DUP9 DUP3 ADD DUP5 PUSH2 0x33F5 JUMP JUMPDEST SWAP1 DUP4 ADD MLOAD SWAP2 POP PUSH2 0x120 SWAP1 PUSH2 0x3551 DUP9 DUP4 ADD DUP5 PUSH2 0xFFFF AND SWAP1 MSTORE JUMP JUMPDEST SWAP3 SWAP1 SWAP3 ADD MLOAD PUSH2 0x140 DUP8 ADD SWAP3 SWAP1 SWAP3 MSTORE POP PUSH2 0x356E PUSH2 0x160 DUP7 ADD DUP3 PUSH2 0x3435 JUMP JUMPDEST SWAP2 DUP10 ADD MLOAD SWAP2 SWAP1 POP PUSH2 0x3581 DUP6 DUP11 ADD DUP4 PUSH2 0x3461 JUMP JUMPDEST SWAP6 DUP9 ADD SWAP6 SWAP4 POP POP SWAP1 DUP7 ADD SWAP1 PUSH1 0x1 ADD PUSH2 0x3498 JUMP JUMPDEST POP SWAP1 SWAP9 SWAP8 POP POP POP POP POP POP POP POP JUMP JUMPDEST PUSH4 0x4E487B71 PUSH1 0xE0 SHL PUSH1 0x0 MSTORE PUSH1 0x32 PUSH1 0x4 MSTORE PUSH1 0x24 PUSH1 0x0 REVERT JUMPDEST PUSH4 0x4E487B71 PUSH1 0xE0 SHL PUSH1 0x0 MSTORE PUSH1 0x11 PUSH1 0x4 MSTORE PUSH1 0x24 PUSH1 0x0 REVERT JUMPDEST PUSH1 0x0 PUSH1 0x0 NOT DUP3 EQ ISZERO PUSH2 0x35E2 JUMPI PUSH2 0x35E2 PUSH2 0x35B8 JUMP JUMPDEST POP PUSH1 0x1 ADD SWAP1 JUMP JUMPDEST PUSH1 0x0 DUP3 DUP3 LT ISZERO PUSH2 0x35FB JUMPI PUSH2 0x35FB PUSH2 0x35B8 JUMP JUMPDEST POP SUB SWAP1 JUMP JUMPDEST PUSH1 0x0 DUP3 NOT DUP3 GT ISZERO PUSH2 0x3613 JUMPI PUSH2 0x3613 PUSH2 0x35B8 JUMP JUMPDEST POP ADD SWAP1 JUMP JUMPDEST PUSH4 0x4E487B71 PUSH1 0xE0 SHL PUSH1 0x0 MSTORE PUSH1 0x31 PUSH1 0x4 MSTORE PUSH1 0x24 PUSH1 0x0 REVERT JUMPDEST PUSH1 0x0 PUSH1 0x20 DUP3 DUP5 SUB SLT ISZERO PUSH2 0x3640 JUMPI PUSH1 0x0 DUP1 REVERT JUMPDEST PUSH2 0x328A DUP3 PUSH2 0x32F5 JUMP JUMPDEST PUSH1 0x0 PUSH1 0x20 DUP3 DUP5 SUB SLT ISZERO PUSH2 0x365B JUMPI PUSH1 0x0 DUP1 REVERT JUMPDEST PUSH2 0x328A DUP3 PUSH2 0x32E6 JUMP JUMPDEST PUSH4 0x4E487B71 PUSH1 0xE0 SHL PUSH1 0x0 MSTORE PUSH1 0x41 PUSH1 0x4 MSTORE PUSH1 0x24 PUSH1 0x0 REVERT JUMPDEST PUSH1 0x1 DUP2 DUP2 SHR SWAP1 DUP3 AND DUP1 PUSH2 0x368E JUMPI PUSH1 0x7F DUP3 AND SWAP2 POP JUMPDEST PUSH1 0x20 DUP3 LT DUP2 EQ ISZERO PUSH2 0x36AF JUMPI PUSH4 0x4E487B71 PUSH1 0xE0 SHL PUSH1 0x0 MSTORE PUSH1 0x22 PUSH1 0x4 MSTORE PUSH1 0x24 PUSH1 0x0 REVERT JUMPDEST POP SWAP2 SWAP1 POP JUMP JUMPDEST PUSH4 0x4E487B71 PUSH1 0xE0 SHL PUSH1 0x0 MSTORE PUSH1 0x12 PUSH1 0x4 MSTORE PUSH1 0x24 PUSH1 0x0 REVERT JUMPDEST PUSH1 0x0 DUP3 PUSH2 0x36DA JUMPI PUSH2 0x36DA PUSH2 0x36B5 JUMP JUMPDEST POP DIV SWAP1 JUMP JUMPDEST PUSH1 0x0 DUP1 DUP3 SLT DUP3 PUSH1 0x1 PUSH1 0x1 PUSH1 0xFF SHL SUB SUB DUP5 SGT DUP2 ISZERO AND ISZERO PUSH2 0x3700 JUMPI PUSH2 0x3700 PUSH2 0x35B8 JUMP JUMPDEST PUSH1 0x1 PUSH1 0xFF SHL DUP4 SWAP1 SUB DUP5 SLT DUP2 AND ISZERO PUSH2 0x3719 JUMPI PUSH2 0x3719 PUSH2 0x35B8 JUMP JUMPDEST POP POP ADD SWAP1 JUMP JUMPDEST PUSH1 0x0 PUSH1 0x1 PUSH1 0x1 PUSH1 0xFF SHL SUB PUSH1 0x0 DUP5 SGT PUSH1 0x0 DUP5 SGT DUP6 DUP4 DIV DUP6 GT DUP3 DUP3 AND AND ISZERO PUSH2 0x3747 JUMPI PUSH2 0x3747 PUSH2 0x35B8 JUMP JUMPDEST PUSH1 0x1 PUSH1 0xFF SHL PUSH1 0x0 DUP8 SLT DUP3 DUP2 AND DUP8 DUP4 SDIV DUP10 SLT AND ISZERO PUSH2 0x3766 JUMPI PUSH2 0x3766 PUSH2 0x35B8 JUMP JUMPDEST PUSH1 0x0 DUP8 SLT SWAP3 POP DUP8 DUP3 SDIV DUP8 SLT DUP5 DUP5 AND AND ISZERO PUSH2 0x3782 JUMPI PUSH2 0x3782 PUSH2 0x35B8 JUMP JUMPDEST DUP8 DUP6 SDIV DUP8 SLT DUP2 DUP5 AND AND ISZERO PUSH2 0x3798 JUMPI PUSH2 0x3798 PUSH2 0x35B8 JUMP JUMPDEST POP POP POP SWAP3 SWAP1 SWAP4 MUL SWAP4 SWAP3 POP POP POP JUMP JUMPDEST PUSH1 0x0 DUP3 PUSH2 0x37B5 JUMPI PUSH2 0x37B5 PUSH2 0x36B5 JUMP JUMPDEST PUSH1 0x1 PUSH1 0xFF SHL DUP3 EQ PUSH1 0x0 NOT DUP5 EQ AND ISZERO PUSH2 0x37CF JUMPI PUSH2 0x37CF PUSH2 0x35B8 JUMP JUMPDEST POP SDIV SWAP1 JUMP JUMPDEST PUSH1 0x0 DUP1 DUP4 SLT DUP1 ISZERO PUSH1 0x1 PUSH1 0xFF SHL DUP6 ADD DUP5 SLT AND ISZERO PUSH2 0x37F2 JUMPI PUSH2 0x37F2 PUSH2 0x35B8 JUMP JUMPDEST DUP4 PUSH1 0x1 PUSH1 0x1 PUSH1 0xFF SHL SUB ADD DUP4 SGT DUP2 AND ISZERO PUSH2 0x380D JUMPI PUSH2 0x380D PUSH2 0x35B8 JUMP JUMPDEST POP POP SUB SWAP1 JUMP JUMPDEST PUSH1 0x0 DUP2 PUSH1 0x0 NOT DIV DUP4 GT DUP3 ISZERO ISZERO AND ISZERO PUSH2 0x382D JUMPI PUSH2 0x382D PUSH2 0x35B8 JUMP JUMPDEST POP MUL SWAP1 JUMP JUMPDEST PUSH1 0x0 PUSH1 0x20 DUP3 DUP5 SUB SLT ISZERO PUSH2 0x3844 JUMPI PUSH1 0x0 DUP1 REVERT JUMPDEST POP MLOAD SWAP2 SWAP1 POP JUMP JUMPDEST PUSH1 0x0 PUSH1 0x20 DUP3 DUP5 SUB SLT ISZERO PUSH2 0x385D JUMPI PUSH1 0x0 DUP1 REVERT JUMPDEST DUP2 MLOAD PUSH2 0x328A DUP2 PUSH2 0x33B4 JUMP JUMPDEST PUSH1 0x0 PUSH12 0xFFFFFFFFFFFFFFFFFFFFFFFF NOT DUP1 DUP9 PUSH1 0x60 SHL AND DUP4 MSTORE DUP1 DUP8 PUSH1 0x60 SHL AND PUSH1 0x14 DUP5 ADD MSTORE POP PUSH2 0xFFFF PUSH1 0xF0 SHL DUP6 PUSH1 0xF0 SHL AND PUSH1 0x28 DUP4 ADD MSTORE DUP4 MLOAD PUSH2 0x38AF DUP2 PUSH1 0x2A DUP6 ADD PUSH1 0x20 DUP9 ADD PUSH2 0x3409 JUMP JUMPDEST PUSH1 0x2A SWAP3 ADD SWAP2 DUP3 ADD SWAP3 SWAP1 SWAP3 MSTORE PUSH1 0x4A ADD SWAP6 SWAP5 POP POP POP POP POP JUMP JUMPDEST PUSH1 0x0 DUP3 PUSH2 0x38D5 JUMPI PUSH2 0x38D5 PUSH2 0x36B5 JUMP JUMPDEST POP MOD SWAP1 JUMP JUMPDEST PUSH1 0x0 PUSH5 0xFFFFFFFFFF DUP1 DUP5 AND DUP1 PUSH2 0x38F2 JUMPI PUSH2 0x38F2 PUSH2 0x36B5 JUMP JUMPDEST SWAP3 AND SWAP2 SWAP1 SWAP2 DIV SWAP3 SWAP2 POP POP JUMP JUMPDEST PUSH1 0x20 DUP2 MSTORE PUSH1 0x0 PUSH2 0x328A PUSH1 0x20 DUP4 ADD DUP5 PUSH2 0x3435 JUMP INVALID LOG2 PUSH5 0x6970667358 0x22 SLT KECCAK256 EXP 0xBC PUSH5 0x400EDECD67 PUSH29 0x64E4159BF65EBFDABF2446F87811D764E3FDD6B03D849964736F6C6343 STOP ADDMOD MULMOD STOP CALLER "},"methodIdentifiers":{"addERC20Contract(address)":"ab7e0909","cancelSubscription((bytes32,uint256,address,address,bool,bool,uint8,uint16,string))":"094f9977","changeAdmin(address)":"8f283970","changeFee(uint256)":"6a1db1bf","changeFixedFee(uint256)":"8e83ac4a","changeMaxGasPrice(uint256)":"3816377e","changeMaxRemits(uint256)":"27ea9773","createSubscription(uint256,address,string,uint8,uint16)":"3084f79e","getAccountSubscriptions(bool)":"6605ac0d","getFee()":"ced72f87","remit()":"7507ba39","removeERC20Contract(address)":"053149fa","subscribe((bytes32,uint256,address,address,bool,bool,uint8,uint16,string))":"a429131a","toggleContractActive()":"1385d24c","unixToTime(uint256)":"53a6d6e2","unsubscribe(bytes32)":"f8c60146"}}}}}