{"contracts/ClockTowerSubscribe.sol":{"ClockTowerSubscribe":{"abi":[{"inputs":[],"stateMutability":"payable","type":"constructor"},{"anonymous":false,"inputs":[{"indexed":false,"internalType":"uint40","name":"timestamp","type":"uint40"},{"indexed":false,"internalType":"uint40","name":"checkedDay","type":"uint40"},{"indexed":true,"internalType":"address","name":"caller","type":"address"},{"indexed":false,"internalType":"bool","name":"isFinished","type":"bool"}],"name":"CallerLog","type":"event"},{"anonymous":false,"inputs":[{"indexed":true,"internalType":"bytes32","name":"id","type":"bytes32"},{"indexed":true,"internalType":"address","name":"provider","type":"address"},{"indexed":false,"internalType":"uint40","name":"timestamp","type":"uint40"},{"indexed":false,"internalType":"uint256","name":"amount","type":"uint256"},{"indexed":true,"internalType":"enum ClockTowerSubscribe.ProvEvent","name":"provEvent","type":"uint8"}],"name":"ProviderLog","type":"event"},{"anonymous":false,"inputs":[{"indexed":true,"internalType":"bytes32","name":"id","type":"bytes32"},{"indexed":true,"internalType":"address","name":"subscriber","type":"address"},{"indexed":false,"internalType":"uint40","name":"timestamp","type":"uint40"},{"indexed":false,"internalType":"uint256","name":"amount","type":"uint256"},{"indexed":true,"internalType":"enum ClockTowerSubscribe.SubEvent","name":"subEvent","type":"uint8"}],"name":"SubscriberLog","type":"event"},{"stateMutability":"payable","type":"fallback"},{"inputs":[{"internalType":"address","name":"erc20Contract","type":"address"},{"internalType":"uint256","name":"minimum","type":"uint256"}],"name":"addERC20Contract","outputs":[],"stateMutability":"nonpayable","type":"function"},{"inputs":[],"name":"admin","outputs":[{"internalType":"address payable","name":"","type":"address"}],"stateMutability":"view","type":"function"},{"inputs":[],"name":"callerFee","outputs":[{"internalType":"uint256","name":"","type":"uint256"}],"stateMutability":"view","type":"function"},{"inputs":[{"components":[{"internalType":"bytes32","name":"id","type":"bytes32"},{"internalType":"uint256","name":"amount","type":"uint256"},{"internalType":"address","name":"provider","type":"address"},{"internalType":"address","name":"token","type":"address"},{"internalType":"bool","name":"exists","type":"bool"},{"internalType":"bool","name":"cancelled","type":"bool"},{"internalType":"enum ClockTowerSubscribe.Frequency","name":"frequency","type":"uint8"},{"internalType":"uint16","name":"dueDay","type":"uint16"},{"internalType":"string","name":"description","type":"string"}],"internalType":"struct ClockTowerSubscribe.Subscription","name":"subscription","type":"tuple"}],"name":"cancelSubscription","outputs":[],"stateMutability":"nonpayable","type":"function"},{"inputs":[{"internalType":"address payable","name":"newAddress","type":"address"}],"name":"changeAdmin","outputs":[],"stateMutability":"nonpayable","type":"function"},{"inputs":[{"internalType":"uint256","name":"_fee","type":"uint256"}],"name":"changeCallerFee","outputs":[],"stateMutability":"nonpayable","type":"function"},{"inputs":[{"internalType":"uint256","name":"_maxRemits","type":"uint256"}],"name":"changeMaxRemits","outputs":[],"stateMutability":"nonpayable","type":"function"},{"inputs":[{"internalType":"uint256","name":"_fixed_fee","type":"uint256"}],"name":"changeSystemFee","outputs":[],"stateMutability":"nonpayable","type":"function"},{"inputs":[],"name":"collectFees","outputs":[],"stateMutability":"nonpayable","type":"function"},{"inputs":[{"internalType":"uint256","name":"amount","type":"uint256"},{"internalType":"address","name":"token","type":"address"},{"internalType":"string","name":"description","type":"string"},{"internalType":"enum ClockTowerSubscribe.Frequency","name":"frequency","type":"uint8"},{"internalType":"uint16","name":"dueDay","type":"uint16"}],"name":"createSubscription","outputs":[],"stateMutability":"payable","type":"function"},{"inputs":[{"internalType":"bytes32","name":"","type":"bytes32"},{"internalType":"address","name":"","type":"address"}],"name":"feeBalance","outputs":[{"internalType":"uint256","name":"","type":"uint256"}],"stateMutability":"view","type":"function"},{"inputs":[],"name":"feeEstimate","outputs":[{"components":[{"internalType":"uint256","name":"fee","type":"uint256"},{"internalType":"address","name":"token","type":"address"}],"internalType":"struct ClockTowerSubscribe.FeeEstimate[]","name":"","type":"tuple[]"}],"stateMutability":"view","type":"function"},{"inputs":[{"internalType":"bool","name":"bySubscriber","type":"bool"}],"name":"getAccountSubscriptions","outputs":[{"components":[{"components":[{"internalType":"bytes32","name":"id","type":"bytes32"},{"internalType":"uint256","name":"amount","type":"uint256"},{"internalType":"address","name":"provider","type":"address"},{"internalType":"address","name":"token","type":"address"},{"internalType":"bool","name":"exists","type":"bool"},{"internalType":"bool","name":"cancelled","type":"bool"},{"internalType":"enum ClockTowerSubscribe.Frequency","name":"frequency","type":"uint8"},{"internalType":"uint16","name":"dueDay","type":"uint16"},{"internalType":"string","name":"description","type":"string"}],"internalType":"struct ClockTowerSubscribe.Subscription","name":"subscription","type":"tuple"},{"internalType":"enum ClockTowerSubscribe.Status","name":"status","type":"uint8"},{"internalType":"uint256","name":"totalSubscribers","type":"uint256"}],"internalType":"struct ClockTowerSubscribe.SubView[]","name":"","type":"tuple[]"}],"stateMutability":"view","type":"function"},{"inputs":[],"name":"getAllAccounts","outputs":[{"components":[{"internalType":"address","name":"accountAddress","type":"address"},{"internalType":"bool","name":"exists","type":"bool"},{"internalType":"uint40[]","name":"timeTriggers","type":"uint40[]"},{"components":[{"internalType":"bytes32","name":"id","type":"bytes32"},{"internalType":"uint16","name":"dueDay","type":"uint16"},{"internalType":"enum ClockTowerSubscribe.Frequency","name":"frequency","type":"uint8"},{"internalType":"enum ClockTowerSubscribe.Status","name":"status","type":"uint8"}],"internalType":"struct ClockTowerSubscribe.SubIndex[]","name":"subscriptions","type":"tuple[]"},{"components":[{"internalType":"bytes32","name":"id","type":"bytes32"},{"internalType":"uint16","name":"dueDay","type":"uint16"},{"internalType":"enum ClockTowerSubscribe.Frequency","name":"frequency","type":"uint8"},{"internalType":"enum ClockTowerSubscribe.Status","name":"status","type":"uint8"}],"internalType":"struct ClockTowerSubscribe.SubIndex[]","name":"provSubs","type":"tuple[]"}],"internalType":"struct ClockTowerSubscribe.Account[]","name":"","type":"tuple[]"}],"stateMutability":"view","type":"function"},{"inputs":[{"internalType":"bytes32","name":"id","type":"bytes32"},{"internalType":"enum ClockTowerSubscribe.Frequency","name":"frequency","type":"uint8"},{"internalType":"uint16","name":"dueDay","type":"uint16"}],"name":"getSubByIndex","outputs":[{"components":[{"internalType":"bytes32","name":"id","type":"bytes32"},{"internalType":"uint256","name":"amount","type":"uint256"},{"internalType":"address","name":"provider","type":"address"},{"internalType":"address","name":"token","type":"address"},{"internalType":"bool","name":"exists","type":"bool"},{"internalType":"bool","name":"cancelled","type":"bool"},{"internalType":"enum ClockTowerSubscribe.Frequency","name":"frequency","type":"uint8"},{"internalType":"uint16","name":"dueDay","type":"uint16"},{"internalType":"string","name":"description","type":"string"}],"internalType":"struct ClockTowerSubscribe.Subscription","name":"subscription","type":"tuple"}],"stateMutability":"view","type":"function"},{"inputs":[{"internalType":"bytes32","name":"id","type":"bytes32"}],"name":"getSubscribersById","outputs":[{"components":[{"internalType":"address","name":"subscriber","type":"address"},{"internalType":"uint256","name":"feeBalance","type":"uint256"}],"internalType":"struct ClockTowerSubscribe.SubscriberView[]","name":"","type":"tuple[]"}],"stateMutability":"view","type":"function"},{"inputs":[{"internalType":"bool","name":"bySubscriber","type":"bool"},{"internalType":"address","name":"account","type":"address"}],"name":"getSubscriptionsByAccount","outputs":[{"components":[{"components":[{"internalType":"bytes32","name":"id","type":"bytes32"},{"internalType":"uint256","name":"amount","type":"uint256"},{"internalType":"address","name":"provider","type":"address"},{"internalType":"address","name":"token","type":"address"},{"internalType":"bool","name":"exists","type":"bool"},{"internalType":"bool","name":"cancelled","type":"bool"},{"internalType":"enum ClockTowerSubscribe.Frequency","name":"frequency","type":"uint8"},{"internalType":"uint16","name":"dueDay","type":"uint16"},{"internalType":"string","name":"description","type":"string"}],"internalType":"struct ClockTowerSubscribe.Subscription","name":"subscription","type":"tuple"},{"internalType":"enum ClockTowerSubscribe.Status","name":"status","type":"uint8"},{"internalType":"uint256","name":"totalSubscribers","type":"uint256"}],"internalType":"struct ClockTowerSubscribe.SubView[]","name":"","type":"tuple[]"}],"stateMutability":"view","type":"function"},{"inputs":[],"name":"maxRemits","outputs":[{"internalType":"uint256","name":"","type":"uint256"}],"stateMutability":"view","type":"function"},{"inputs":[],"name":"nextUncheckedDay","outputs":[{"internalType":"uint40","name":"","type":"uint40"}],"stateMutability":"view","type":"function"},{"inputs":[],"name":"remit","outputs":[],"stateMutability":"payable","type":"function"},{"inputs":[{"internalType":"address","name":"erc20Contract","type":"address"}],"name":"removeERC20Contract","outputs":[],"stateMutability":"nonpayable","type":"function"},{"inputs":[{"internalType":"bool","name":"status","type":"bool"}],"name":"setExternalCallers","outputs":[],"stateMutability":"nonpayable","type":"function"},{"inputs":[{"components":[{"internalType":"bytes32","name":"id","type":"bytes32"},{"internalType":"uint256","name":"amount","type":"uint256"},{"internalType":"address","name":"provider","type":"address"},{"internalType":"address","name":"token","type":"address"},{"internalType":"bool","name":"exists","type":"bool"},{"internalType":"bool","name":"cancelled","type":"bool"},{"internalType":"enum ClockTowerSubscribe.Frequency","name":"frequency","type":"uint8"},{"internalType":"uint16","name":"dueDay","type":"uint16"},{"internalType":"string","name":"description","type":"string"}],"internalType":"struct ClockTowerSubscribe.Subscription","name":"subscription","type":"tuple"}],"name":"subscribe","outputs":[],"stateMutability":"payable","type":"function"},{"inputs":[],"name":"systemFee","outputs":[{"internalType":"uint256","name":"","type":"uint256"}],"stateMutability":"view","type":"function"},{"inputs":[{"internalType":"bool","name":"status","type":"bool"}],"name":"systemFeeActivate","outputs":[],"stateMutability":"nonpayable","type":"function"},{"inputs":[{"internalType":"uint256","name":"unix","type":"uint256"}],"name":"unixToTime","outputs":[{"components":[{"internalType":"uint16","name":"day","type":"uint16"},{"internalType":"uint16","name":"weekDay","type":"uint16"},{"internalType":"uint16","name":"quarterDay","type":"uint16"},{"internalType":"uint16","name":"yearDay","type":"uint16"}],"internalType":"struct ClockTowerSubscribe.Time","name":"time","type":"tuple"}],"stateMutability":"pure","type":"function"},{"inputs":[{"components":[{"internalType":"bytes32","name":"id","type":"bytes32"},{"internalType":"uint256","name":"amount","type":"uint256"},{"internalType":"address","name":"provider","type":"address"},{"internalType":"address","name":"token","type":"address"},{"internalType":"bool","name":"exists","type":"bool"},{"internalType":"bool","name":"cancelled","type":"bool"},{"internalType":"enum ClockTowerSubscribe.Frequency","name":"frequency","type":"uint8"},{"internalType":"uint16","name":"dueDay","type":"uint16"},{"internalType":"string","name":"description","type":"string"}],"internalType":"struct ClockTowerSubscribe.Subscription","name":"subscription","type":"tuple"}],"name":"unsubscribe","outputs":[],"stateMutability":"payable","type":"function"},{"inputs":[{"components":[{"internalType":"bytes32","name":"id","type":"bytes32"},{"internalType":"uint256","name":"amount","type":"uint256"},{"internalType":"address","name":"provider","type":"address"},{"internalType":"address","name":"token","type":"address"},{"internalType":"bool","name":"exists","type":"bool"},{"internalType":"bool","name":"cancelled","type":"bool"},{"internalType":"enum ClockTowerSubscribe.Frequency","name":"frequency","type":"uint8"},{"internalType":"uint16","name":"dueDay","type":"uint16"},{"internalType":"string","name":"description","type":"string"}],"internalType":"struct ClockTowerSubscribe.Subscription","name":"subscription","type":"tuple"},{"internalType":"address","name":"subscriber","type":"address"}],"name":"unsubscribeByProvider","outputs":[],"stateMutability":"nonpayable","type":"function"},{"stateMutability":"payable","type":"receive"}],"evm":{"bytecode":{"linkReferences":{},"object":"60806040526127d8600055662386f26fc10000600155600560029081556006805460ff60d81b19169055620000344262000095565b620000409190620000ac565b60068054610100600160d01b03191661010064ffffffffff9390931692909202600160301b600160d01b0319169190911779f39fd6e51aad88f6f4ce6ab8827279cfffb9226600000000000017905562000114565b6000620000a66201518083620000e1565b92915050565b600064ffffffffff83811690831681811015620000d957634e487b7160e01b600052601160045260246000fd5b039392505050565b600064ffffffffff808416806200010857634e487b7160e01b600052601260045260246000fd5b92169190910492915050565b615fc980620001246000396000f3fe6080604052600436106101a35760003560e01c80638f283970116100e0578063cab1c96511610084578063ebec6eaa11610061578063ebec6eaa146104ea578063f25e13c914610522578063f851a44014610542578063fedce9401461058457005b8063cab1c96514610479578063da854a961461048f578063e63d35be146104c857005b8063a429131a116100bd578063a429131a14610411578063a5af2abd14610424578063b4761de914610444578063c87965721461046457005b80638f283970146103b15780639889552e146103d1578063a2349caf146103f157005b80633084f79e116101475780636605ac0d116101245780636605ac0d1461032f5780637507ba391461035c5780637bbf5a6e146103645780638ef0ef1c1461039157005b80633084f79e146102a857806334d441d0146102bb57806353a6d6e2146102d157005b80630bec99e8116101805780630bec99e8146102175780631f17ee551461023757806327ea97731461025b5780632d23f7e71461027b57005b8063053149fa146101ac57806308e93d0a146101cc578063094f9977146101f757005b366101aa57005b005b3480156101b857600080fd5b506101aa6101c7366004615383565b610597565b3480156101d857600080fd5b506101e161062a565b6040516101ee9190615456565b60405180910390f35b34801561020357600080fd5b506101aa610212366004615549565b6109f3565b34801561022357600080fd5b506101aa610232366004615585565b61151c565b34801561024357600080fd5b5061024d60015481565b6040519081526020016101ee565b34801561026757600080fd5b506101aa610276366004615585565b611529565b34801561028757600080fd5b5061029b6102963660046155bf565b611536565b6040516101ee9190615707565b6101aa6102b636600461571a565b6117bd565b3480156102c757600080fd5b5061024d60005481565b3480156102dd57600080fd5b506102f16102ec366004615585565b611cd4565b6040516101ee9190815161ffff9081168252602080840151821690830152604080840151821690830152606092830151169181019190915260800190565b34801561033b57600080fd5b5061034f61034a3660046157e2565b611f36565b6040516101ee91906157ff565b6101aa612337565b34801561037057600080fd5b5061038461037f366004615585565b61314e565b6040516101ee9190615889565b34801561039d57600080fd5b506101aa6103ac366004615585565b613347565b3480156103bd57600080fd5b506101aa6103cc366004615383565b613354565b3480156103dd57600080fd5b506101aa6103ec3660046157e2565b6133c9565b3480156103fd57600080fd5b506101aa61040c366004615a73565b6133ef565b6101aa61041f366004615549565b613849565b34801561043057600080fd5b5061034f61043f366004615ac5565b613d71565b34801561045057600080fd5b506101aa61045f3660046157e2565b614143565b34801561047057600080fd5b506101aa614169565b34801561048557600080fd5b5061024d60025481565b34801561049b57600080fd5b506006546104b290610100900464ffffffffff1681565b60405164ffffffffff90911681526020016101ee565b3480156104d457600080fd5b506104dd6141cc565b6040516101ee9190615af3565b3480156104f657600080fd5b5061024d610505366004615b3e565b600960209081526000928352604080842090915290825290205481565b34801561052e57600080fd5b506101aa61053d366004615b63565b61469c565b34801561054e57600080fd5b5060065461056c90660100000000000090046001600160a01b031681565b6040516001600160a01b0390911681526020016101ee565b6101aa610592366004615b8f565b61475b565b61059f614b1e565b6001600160a01b0381166105b257600080fd5b6105bb81614b67565b6105f05760405162461bcd60e51b81526020600482015260016024820152601960f91b60448201526064015b60405180910390fd5b6001600160a01b0316600090815260056020526040812080546001600160a01b03191681556001810191909155600201805460ff19169055565b6060610634614b1e565b6000600880548060200260200160405190810160405280929190818152602001828054801561068c57602002820191906000526020600020905b81546001600160a01b0316815260019091019060200180831161066e575b505050505090506000815167ffffffffffffffff8111156106af576106af6158e1565b60405190808252806020026020018201604052801561070a57816020015b6040805160a08101825260008082526020820152606091810182905281810182905260808101919091528152602001906001900390816106cd5790505b50905060005b82518110156109ec576007600084838151811061072f5761072f615bc4565b6020908102919091018101516001600160a01b039081168352828201939093526040918201600020825160a08101845281549485168152600160a01b90940460ff16151584830152600181018054845181850281018501865281815292948601938301828280156107ed57602002820191906000526020600020906000905b82829054906101000a900464ffffffffff1664ffffffffff16815260200190600501906020826004010492830192600103820291508084116107ae5790505b5050505050815260200160028201805480602002602001604051908101604052809291908181526020016000905b828210156108d1576000848152602090819020604080516080810182526002860290920180548352600181015461ffff81169484019490945291929083019062010000900460ff166003811115610874576108746153a7565b6003811115610885576108856153a7565b81526020016001820160039054906101000a900460ff1660028111156108ad576108ad6153a7565b60028111156108be576108be6153a7565b815250508152602001906001019061081b565b50505050815260200160038201805480602002602001604051908101604052809291908181526020016000905b828210156109b4576000848152602090819020604080516080810182526002860290920180548352600181015461ffff81169484019490945291929083019062010000900460ff166003811115610957576109576153a7565b6003811115610968576109686153a7565b81526020016001820160039054906101000a900460ff166002811115610990576109906153a7565b60028111156109a1576109a16153a7565b81525050815260200190600101906108fe565b50505050815250508282815181106109ce576109ce615bc4565b602002602001018190525080806109e490615bf0565b915050610710565b5091505090565b6109fb614b99565b610a288135610a11610100840160e08501615c0b565b610a2160e0850160c08601615c26565b6000614bca565b610a585760405162461bcd60e51b81526020600482015260016024820152603760f81b60448201526064016105e7565b610a686060820160408301615383565b6001600160a01b0316336001600160a01b031614610aad5760405162461bcd60e51b8152602060048201526002602482015261323360f01b60448201526064016105e7565b33600090815260076020908152604080832060030180548251818502810185019093528083529192909190849084015b82821015610b93576000848152602090819020604080516080810182526002860290920180548352600181015461ffff81169484019490945291929083019062010000900460ff166003811115610b3657610b366153a7565b6003811115610b4757610b476153a7565b81526020016001820160039054906101000a900460ff166002811115610b6f57610b6f6153a7565b6002811115610b8057610b806153a7565b8152505081526020019060010190610add565b5050336000908152600760205260408120600301549394509150505b81811015610c52578360000135838281518110610bce57610bce615bc4565b6020026020010151600001511415610c405733600090815260076020526040902060030180546001919083908110610c0857610c08615bc4565b906000526020600020906002020160010160036101000a81548160ff02191690836002811115610c3a57610c3a6153a7565b02179055505b80610c4a81615bf0565b915050610baf565b5082356000908152600b6020908152604080832080548251818502810185019093528083529192909190830182828015610cb557602002820191906000526020600020905b81546001600160a01b03168152600190910190602001808311610c97575b5050505050905060005b81518110156111fc578435600090815260096020526040812083518290859085908110610cee57610cee615bc4565b60200260200101516001600160a01b03166001600160a01b03168152602001908152602001600020549050600580811115610d2b57610d2b6153a7565b838381518110610d3d57610d3d615bc4565b60200260200101516001600160a01b03168760000135600080516020615f748339815191524285604051610d8492919064ffffffffff929092168252602082015260400190565b60405180910390a4853560009081526009602052604081208451909190859085908110610db357610db3615bc4565b60200260200101516001600160a01b03166001600160a01b0316815260200190815260200160002060009055856060016020810190610df29190615383565b6001600160a01b031663a9059cbb848481518110610e1257610e12615bc4565b6020026020010151836040518363ffffffff1660e01b8152600401610e4c9291906001600160a01b03929092168252602082015260400190565b602060405180830381600087803b158015610e6657600080fd5b505af1158015610e7a573d6000803e3d6000fd5b505050506040513d601f19601f82011682018060405250810190610e9e9190615c41565b610ecf5760405162461bcd60e51b8152602060048201526002602482015261323160f01b60448201526064016105e7565b600060076000858581518110610ee757610ee7615bc4565b60200260200101516001600160a01b03166001600160a01b031681526020019081526020016000206002018054905067ffffffffffffffff811115610f2e57610f2e6158e1565b604051908082528060200260200182016040528015610f8957816020015b610f7660408051608081018252600080825260208201819052909182019081526020016000905290565b815260200190600190039081610f4c5790505b50905060076000858581518110610fa257610fa2615bc4565b60200260200101516001600160a01b03166001600160a01b03168152602001908152602001600020600201805480602002602001604051908101604052809291908181526020016000905b828210156110a3576000848152602090819020604080516080810182526002860290920180548352600181015461ffff81169484019490945291929083019062010000900460ff166003811115611046576110466153a7565b6003811115611057576110576153a7565b81526020016001820160039054906101000a900460ff16600281111561107f5761107f6153a7565b6002811115611090576110906153a7565b8152505081526020019060010190610fed565b50505050905060005b600760008686815181106110c2576110c2615bc4565b60200260200101516001600160a01b03166001600160a01b03168152602001908152602001600020600201805490508110156111bf57876000013582828151811061110f5761110f615bc4565b60200260200101516000015114156111ad5760016007600087878151811061113957611139615bc4565b60200260200101516001600160a01b03166001600160a01b03168152602001908152602001600020600201828154811061117557611175615bc4565b906000526020600020906002020160010160036101000a81548160ff021916908360028111156111a7576111a76153a7565b02179055505b806111b781615bf0565b9150506110ac565b506111e787600001358585815181106111da576111da615bc4565b6020026020010151614c55565b505080806111f490615bf0565b915050610cbf565b506000600a8161121260e0880160c08901615c26565b6003811115611223576112236153a7565b815260200190815260200160002060008660e00160208101906112469190615c0b565b61ffff1661ffff168152602001908152602001600020805480602002602001604051908101604052809291908181526020016000905b828210156113e65760008481526020908190206040805161012081018252600586029092018054835260018101549383019390935260028301546001600160a01b0390811691830191909152600380840154918216606084015260ff600160a01b8304811615156080850152600160a81b83048116151560a085015292939260c0850192600160b01b90041690811115611318576113186153a7565b6003811115611329576113296153a7565b81526003820154600160b81b900461ffff16602082015260048201805460409092019161135590615c5e565b80601f016020809104026020016040519081016040528092919081815260200182805461138190615c5e565b80156113ce5780601f106113a3576101008083540402835291602001916113ce565b820191906000526020600020905b8154815290600101906020018083116113b157829003601f168201915b5050505050815250508152602001906001019061127c565b50505050905060005b81518110156114cd57856000013582828151811061140f5761140f615bc4565b60200260200101516000015114156114bb576001600a600061143760e08a0160c08b01615c26565b6003811115611448576114486153a7565b815260200190815260200160002060008860e001602081019061146b9190615c0b565b61ffff1661ffff168152602001908152602001600020828154811061149257611492615bc4565b906000526020600020906005020160030160156101000a81548160ff0219169083151502179055505b806114c581615bf0565b9150506113ef565b5060016040805164ffffffffff421681526000602082015233918835917ffcb91fd98787d64bdba700bb305716e8b6cebeef9927c71b19ed9b0ab1b892b0910160405180910390a45050505050565b611524614b1e565b600155565b611531614b1e565b600255565b6115856040805161012081018252600080825260208201819052918101829052606081018290526080810182905260a081018290529060c0820190815260006020820152606060409091015290565b6000600a600085600381111561159d5761159d6153a7565b815260200190815260200160002060008461ffff1661ffff168152602001908152602001600020805480602002602001604051908101604052809291908181526020016000905b8282101561174e5760008481526020908190206040805161012081018252600586029092018054835260018101549383019390935260028301546001600160a01b0390811691830191909152600380840154918216606084015260ff600160a01b8304811615156080850152600160a81b83048116151560a085015292939260c0850192600160b01b90041690811115611680576116806153a7565b6003811115611691576116916153a7565b81526003820154600160b81b900461ffff1660208201526004820180546040909201916116bd90615c5e565b80601f01602080910402602001604051908101604052809291908181526020018280546116e990615c5e565b80156117365780601f1061170b57610100808354040283529160200191611736565b820191906000526020600020905b81548152906001019060200180831161171957829003601f168201915b505050505081525050815260200190600101906115e4565b50505050905060005b81518110156117b4578582828151811061177357611773615bc4565b60200260200101516000015114156117a25781818151811061179757611797615bc4565b602002602001015192505b806117ac81615bf0565b915050611757565b50509392505050565b6117c5614b99565b6001600160a01b0385166117ff5760405162461bcd60e51b81526020600482015260016024820152600760fb1b60448201526064016105e7565b600654600160d81b900460ff1615611847573460015411156118475760405162461bcd60e51b81526020600482015260016024820152603560f81b60448201526064016105e7565b61185085614b67565b6118805760405162461bcd60e51b81526020600482015260016024820152603960f81b60448201526064016105e7565b60208311156118b65760405162461bcd60e51b8152602060048201526002602482015261323560f01b60448201526064016105e7565b60008260038111156118ca576118ca6153a7565b141561191a578061ffff1660001080156118e9575060078161ffff1611155b61191a5760405162461bcd60e51b8152602060048201526002602482015261191b60f11b60448201526064016105e7565b600182600381111561192e5761192e6153a7565b141561197e578061ffff16600010801561194d5750601c8161ffff1611155b61197e5760405162461bcd60e51b8152602060048201526002602482015261323760f01b60448201526064016105e7565b6002826003811115611992576119926153a7565b14156119e2578061ffff1660001080156119b15750605a8161ffff1611155b6119e25760405162461bcd60e51b8152602060048201526002602482015261064760f31b60448201526064016105e7565b60038260038111156119f6576119f66153a7565b1415611a47578061ffff166000108015611a16575061016d8161ffff1611155b611a475760405162461bcd60e51b8152602060048201526002602482015261323960f01b60448201526064016105e7565b6001600160a01b038516600090815260056020526040902060010154861015611a975760405162461bcd60e51b8152602060048201526002602482015261033360f41b60448201526064016105e7565b6000611ade878787878080601f016020809104026020016040519081016040528093929190818152602001838380828437600092019190915250899250889150614da69050565b905080600a6000856003811115611af757611af76153a7565b81526020808201929092526040908101600090812061ffff87168252835281812080546001818101835591835291849020855160059093020191825592840151928101929092558201516002820180546001600160a01b039283166001600160a01b0319909116179055606083015160038084018054608087015160a08801511515600160a81b0260ff60a81b19911515600160a01b0274ffffffffffffffffffffffffffffffffffffffffff199093169590961694909417179283168417815560c086015193909260ff60b01b1990911661ffff60a81b199091161790600160b01b908490811115611bec57611bec6153a7565b021790555060e082015160038201805461ffff909216600160b81b0261ffff60b81b199092169190911790556101008201518051611c349160048401916020909101906152c5565b50905050611c846040518060800160405280836000015181526020018360e0015161ffff1681526020018360c001516003811115611c7457611c746153a7565b8152602001600090526001614e94565b600081516040805164ffffffffff42168152600060208201523392917ffcb91fd98787d64bdba700bb305716e8b6cebeef9927c71b19ed9b0ab1b892b0910160405180910390a450505050505050565b604080516080810182526000808252602082018190529181018290526060810182905290611d056201518084615caf565b90506000808281611d198262010bd9615cc3565b611d269062253d8c615cc3565b9050600062023ab1611d39836004615d03565b611d439190615d8a565b90506004611d548262023ab1615d03565b611d5f906003615cc3565b611d699190615d8a565b611d739083615db8565b9150600062164b09611d86846001615cc3565b611d9290610fa0615d03565b611d9c9190615d8a565b90506004611dac826105b5615d03565b611db69190615d8a565b611dc09084615db8565b611dcb90601f615cc3565b9250600061098f611ddd856050615d03565b611de79190615d8a565b905060006050611df98361098f615d03565b611e039190615d8a565b611e0d9086615db8565b9050611e1a600b83615d8a565b9450611e2785600c615d03565b611e32836002615cc3565b611e3c9190615db8565b91508483611e4b603187615db8565b611e56906064615d03565b611e609190615cc3565b611e6a9190615cc3565b909750915086828282600060015b838111611ec55783811415611e9c57611e9561ffff8e1683615df7565b9150611eb3565b611ea68585615047565b611eb09083615df7565b91505b80611ebd81615bf0565b915050611e78565b50809a50611ed78b61ffff16856150cd565b61ffff1660408f0152611ee98f61519b565b8e6020019061ffff16908161ffff16815250508b8e6000019061ffff16908161ffff16815250508a8e6060019061ffff16908161ffff168152505050505050505050505050505050919050565b606080821561202d5733600090815260076020908152604080832060020180548251818502810185019093528083529193909284015b82821015612022576000848152602090819020604080516080810182526002860290920180548352600181015461ffff81169484019490945291929083019062010000900460ff166003811115611fc557611fc56153a7565b6003811115611fd657611fd66153a7565b81526020016001820160039054906101000a900460ff166002811115611ffe57611ffe6153a7565b600281111561200f5761200f6153a7565b8152505081526020019060010190611f6c565b505050509050612117565b33600090815260076020908152604080832060030180548251818502810185019093528083529193909284015b82821015612110576000848152602090819020604080516080810182526002860290920180548352600181015461ffff81169484019490945291929083019062010000900460ff1660038111156120b3576120b36153a7565b60038111156120c4576120c46153a7565b81526020016001820160039054906101000a900460ff1660028111156120ec576120ec6153a7565b60028111156120fd576120fd6153a7565b815250508152602001906001019061205a565b5050505090505b6000815167ffffffffffffffff811115612133576121336158e1565b6040519080825280602002602001820160405280156121ce57816020015b6121bb604080516101808101909152600060608083018281526080840183905260a0840183905260c0840183905260e08401839052610100840183905261012084018390526101408401929092526101608301528190815260200160008152602001600081525090565b8152602001906001900390816121515790505b50905060005b825181101561232f5761223f8382815181106121f2576121f2615bc4565b60200260200101516000015184838151811061221057612210615bc4565b60200260200101516040015185848151811061222e5761222e615bc4565b602002602001015160200151611536565b82828151811061225157612251615bc4565b60200260200101516000018190525082818151811061227257612272615bc4565b60200260200101516060015182828151811061229057612290615bc4565b60200260200101516020019060028111156122ad576122ad6153a7565b908160028111156122c0576122c06153a7565b81525050600b60008383815181106122da576122da615bc4565b6020026020010151600001516000015181526020019081526020016000208054905082828151811061230e5761230e615bc4565b6020908102919091010151604001528061232781615bf0565b9150506121d4565b509392505050565b600654600160d01b900460ff1661235057612350614b1e565b600654600160d81b900460ff1615612398573460015411156123985760405162461bcd60e51b81526020600482015260016024820152603560f81b60448201526064016105e7565b60006123a3426151d1565b60065490915064ffffffffff610100909104811690821610156123ed5760405162461bcd60e51b81526020600482015260026024820152610c4d60f21b60448201526064016105e7565b60408051608081018252600080825260208201819052918101829052606081019190915260019060065464ffffffffff8481166101009092041614612478576006546124589061244c90610100900464ffffffffff1662015180615e0f565b64ffffffffff16611cd4565b60065490915061247390610100900464ffffffffff166151e0565b612493565b61248142611cd4565b90506124938364ffffffffff166151e0565b6000805b60038111613069576000816124ad575060208301515b60018214156124ba575082515b60028214156124ca575060408301515b60038214156124da575060608301515b6000828152600a6020908152604080832061ffff85168452909152812054905b81811015613053576000848152600a6020908152604080832061ffff8716845290915281208054919850908290811061253557612535615bc4565b906000526020600020906005020160030160159054906101000a900460ff16613041576000848152600a6020908152604080832061ffff87168452909152812080548390811061258757612587615bc4565b60009182526020808320600590920290910154878352600a8252604080842061ffff89168552909252908220805491935090849081106125c9576125c9615bc4565b6000918252602080832060036005909302019190910154888352600a8252604080842061ffff8a16855290925290822080546001600160a01b039092169350908590811061261957612619615bc4565b6000918252602080832060016005909302019190910154898352600a8252604080842061ffff8b1685529092529082208054919350908690811061265f5761265f615bc4565b6000918252602082206002600590920201015481546001600160a01b0390911692508390612710906126919083615e3c565b61269b9190615caf565b6126a59190615e5b565b6000868152600b6020526040812054919250908181156126cd576126ca600183615e5b565b90505b60005b82811015613037576002548e1415612823576040805180820182528a815260200182905260038a905560048281556006805460ff19169055905163a9059cbb60e01b81523391810191909152602481018590526001600160a01b0389169063a9059cbb90604401602060405180830381600087803b15801561275157600080fd5b505af1158015612765573d6000803e3d6000fd5b505050506040513d601f19601f820116820180604052508101906127899190615c41565b6127ba5760405162461bcd60e51b8152602060048201526002602482015261191960f11b60448201526064016105e7565b6006546040805164ffffffffff428116825261010090930492909216602083015260009082015233907f90192d7875364a53e351ae63fd2dfef8dc941735b29fb0c504d06a0e21ae602e9060600160405180910390a25050505050505050505050505050505050565b60035489148015612835575060045481145b15612848576006805460ff191660011790555b600354158061285e575060065460ff1615156001145b15613025576000898152600b6020526040812080548390811061288357612883615bc4565b600091825260209091200154604051636eb1769f60e11b81526001600160a01b0391821660048201819052306024830152925089918b169063dd62ed3e90604401602060405180830381600087803b1580156128de57600080fd5b505af11580156128f2573d6000803e3d6000fd5b505050506040513d601f19601f820116820180604052508101906129169190615e72565b1015801561299f57506040516370a0823160e01b81526001600160a01b0382811660048301528991908b16906370a0823190602401602060405180830381600087803b15801561296557600080fd5b505af1158015612979573d6000803e3d6000fd5b505050506040513d601f19601f8201168201806040525081019061299d9190615e72565b115b15612d5e578e6129ae81615bf0565b9f506129bc90508686615df7565b60008b81526009602090815260408083206001600160a01b0386168452909152902054909550861015612b4e5760008a81526009602090815260408083206001600160a01b038516845290915281208054889290612a1b908490615e5b565b90915550600090506040805164ffffffffff42168152602081018b90526001600160a01b038416918d91600080516020615f74833981519152910160405180910390a460026040805164ffffffffff42168152600060208201526001600160a01b038a16918d917ffcb91fd98787d64bdba700bb305716e8b6cebeef9927c71b19ed9b0ab1b892b0910160405180910390a4612ab68f6151e0565b6040516323b872dd60e01b81526001600160a01b0382811660048301528881166024830152604482018a90528a16906323b872dd90606401602060405180830381600087803b158015612b0857600080fd5b505af1158015612b1c573d6000803e3d6000fd5b505050506040513d601f19601f82011682018060405250810190612b409190615c41565b612b4957600080fd5b612f5e565b60046040805164ffffffffff42168152602081018b90526001600160a01b038416918d91600080516020615f74833981519152910160405180910390a460008890506000600190508f60021415612bb557612baa600383615caf565b915060029050612bd0565b8f60031415612bd057612bc9600c83615caf565b9150600b90505b60008c81526009602090815260408083206001600160a01b038716845290915281208054849290612c02908490615df7565b90915550506040516323b872dd60e01b81526001600160a01b038481166004830152306024830152604482018490528c16906323b872dd90606401602060405180830381600087803b158015612c5757600080fd5b505af1158015612c6b573d6000803e3d6000fd5b505050506040513d601f19601f82011682018060405250810190612c8f9190615c41565b612c9857600080fd5b8f60031480612ca757508f6004145b15612d57576001600160a01b038b166323b872dd338b612cc78587615e3c565b6040516001600160e01b031960e086901b1681526001600160a01b0393841660048201529290911660248301526044820152606401602060405180830381600087803b158015612d1657600080fd5b505af1158015612d2a573d6000803e3d6000fd5b505050506040513d601f19601f82011682018060405250810190612d4e9190615c41565b612d5757600080fd5b5050612f5e565b8e612d6881615bf0565b9f505085600960008c81526020019081526020016000206000836001600160a01b03166001600160a01b03168152602001908152602001600020541115612e9357612db38686615df7565b60008b81526009602090815260408083206001600160a01b038616845290915281205491965090612de5908890615e5b565b60008c81526009602090815260408083206001600160a01b038781168552925280832092909255905163a9059cbb60e01b81528a82166004820152602481018390529192508b169063a9059cbb90604401602060405180830381600087803b158015612e5057600080fd5b505af1158015612e64573d6000803e3d6000fd5b505050506040513d601f19601f82011682018060405250810190612e889190615c41565b612e9157600080fd5b505b612e9d8a82614c55565b60036040805164ffffffffff42168152602081018b905233918d91600080516020615f74833981519152910160405180910390a460016040805164ffffffffff42168152602081018b90526001600160a01b038416918d91600080516020615f74833981519152910160405180910390a460036040805164ffffffffff42168152600060208201526001600160a01b038a16918d917ffcb91fd98787d64bdba700bb305716e8b6cebeef9927c71b19ed9b0ab1b892b0910160405180910390a45b8282148015612f6d5750600084115b156130235760405163a9059cbb60e01b8152336004820152602481018690526001600160a01b038a169063a9059cbb90604401602060405180830381600087803b158015612fba57600080fd5b505af1158015612fce573d6000803e3d6000fd5b505050506040513d601f19601f82011682018060405250810190612ff29190615c41565b6130235760405162461bcd60e51b8152602060048201526002602482015261191960f11b60448201526064016105e7565b505b8061302f81615bf0565b9150506126d0565b5050505050505050505b8061304b81615bf0565b9150506124fa565b505050808061306190615bf0565b915050612497565b50600060038190556004556006805460ff1916908190556040805164ffffffffff4281168252610100909304909216602083015260019082015233907f90192d7875364a53e351ae63fd2dfef8dc941735b29fb0c504d06a0e21ae602e9060600160405180910390a26001600660018282829054906101000a900464ffffffffff166130f59190615e8b565b92506101000a81548164ffffffffff021916908364ffffffffff160217905550821561312957613123612337565b50505050565b613123604051806040016040528060048152602001636865726560e01b815250615225565b6000818152600b60205260408120546060919067ffffffffffffffff811115613179576131796158e1565b6040519080825280602002602001820160405280156131a2578160200160208202803683370190505b506000848152600b6020908152604091829020805483518184028101840190945280845293945091929083018282801561320557602002820191906000526020600020905b81546001600160a01b031681526001909101906020018083116131e7575b5050506000868152600b60205260408120549394509291505067ffffffffffffffff811115613236576132366158e1565b60405190808252806020026020018201604052801561327b57816020015b60408051808201909152600080825260208201528152602001906001900390816132545790505b50905060005b825181101561232f576000858152600960205260408120845182908690859081106132ae576132ae615bc4565b60200260200101516001600160a01b03166001600160a01b03168152602001908152602001600020549050600060405180604001604052808685815181106132f8576132f8615bc4565b60200260200101516001600160a01b031681526020018381525090508084848151811061332757613327615bc4565b60200260200101819052505050808061333f90615bf0565b915050613281565b61334f614b1e565b600055565b61335c614b1e565b336001600160a01b03821614801561337c57506001600160a01b03811615155b61338557600080fd5b600680546001600160a01b039092166601000000000000027fffffffffffff0000000000000000000000000000000000000000ffffffffffff909216919091179055565b6133d1614b1e565b60068054911515600160d81b0260ff60d81b19909216919091179055565b6133f7614b99565b33600090815260076020908152604080832060030180548251818502810185019093528083529192909190849084015b828210156134dd576000848152602090819020604080516080810182526002860290920180548352600181015461ffff81169484019490945291929083019062010000900460ff166003811115613480576134806153a7565b6003811115613491576134916153a7565b81526020016001820160039054906101000a900460ff1660028111156134b9576134b96153a7565b60028111156134ca576134ca6153a7565b8152505081526020019060010190613427565b5050505090506000805b825181101561353057846000015183828151811061350757613507615bc4565b602002602001015160000151141561351e57600191505b8061352881615bf0565b9150506134e7565b50806135635760405162461bcd60e51b8152602060048201526002602482015261062760f31b60448201526064016105e7565b83516000908152600b60209081526040808320805482518185028101850190935280835291929091908301828280156135c557602002820191906000526020600020905b81546001600160a01b031681526001909101906020018083116135a7575b505050505090506000805b825181101561368957856001600160a01b03168382815181106135f5576135f5615bc4565b60200260200101516001600160a01b03161415613677576001600160a01b038616600090815260076020526040902060029081018054600194508390811061363f5761363f615bc4565b906000526020600020906002020160010160036101000a81548160ff02191690836002811115613671576136716153a7565b02179055505b8061368181615bf0565b9150506135d0565b50806136bc5760405162461bcd60e51b8152602060048201526002602482015261313960f01b60448201526064016105e7565b85516136c89086614c55565b600386516020808901516040805164ffffffffff42168152928301919091526001600160a01b0389169291600080516020615f74833981519152910160405180910390a4855160009081526009602081815260408084206001600160a01b038a16808652908352818520548b518652938352818520908552909152822091909155600587516040805164ffffffffff42168152602081018590526001600160a01b038a169291600080516020615f74833981519152910160405180910390a4606087015160405163a9059cbb60e01b81526001600160a01b038881166004830152602482018490529091169063a9059cbb90604401602060405180830381600087803b1580156137d757600080fd5b505af11580156137eb573d6000803e3d6000fd5b505050506040513d601f19601f8201168201806040525081019061380f9190615c41565b6138405760405162461bcd60e51b8152602060048201526002602482015261323160f01b60448201526064016105e7565b50505050505050565b613851614b99565b60208101356138666080830160608401615383565b604051636eb1769f60e11b81523360048201523060248201526001600160a01b03919091169063dd62ed3e90604401602060405180830381600087803b1580156138af57600080fd5b505af11580156138c3573d6000803e3d6000fd5b505050506040513d601f19601f820116820180604052508101906138e79190615e72565b10158015613983575060208101356139056080830160608401615383565b6040516370a0823160e01b81523360048201526001600160a01b0391909116906370a0823190602401602060405180830381600087803b15801561394857600080fd5b505af115801561395c573d6000803e3d6000fd5b505050506040513d601f19601f820116820180604052508101906139809190615e72565b10155b6139b45760405162461bcd60e51b8152602060048201526002602482015261032360f41b60448201526064016105e7565b6139ca8135610a11610100840160e08501615c0b565b6139fa5760405162461bcd60e51b81526020600482015260016024820152603760f81b60448201526064016105e7565b80356000818152600b6020908152604080832080546001810182559084529282902090920180546001600160a01b03191633179055815160808101909252918152613a8c918101613a52610100850160e08601615c0b565b61ffff168152602001613a6b60e0850160c08601615c26565b6003811115613a7c57613a7c6153a7565b8152602001600090526000614e94565b602081013560016002613aa560e0850160c08601615c26565b6003811115613ab657613ab66153a7565b1415613ad257613ac7600383615caf565b915060029050613b0d565b6003613ae460e0850160c08601615c26565b6003811115613af557613af56153a7565b1415613b0d57613b06600c83615caf565b9150600b90505b8235600090815260096020908152604080832033845290915281208054849290613b38908490615df7565b90915550600290506040805164ffffffffff42168152602080870135908201523391863591600080516020615f74833981519152910160405180910390a460046040805164ffffffffff42168152602080870135908201523391863591600080516020615f74833981519152910160405180910390a4613bbe6080840160608501615383565b6040516323b872dd60e01b8152336004820152306024820152604481018490526001600160a01b0391909116906323b872dd90606401602060405180830381600087803b158015613c0e57600080fd5b505af1158015613c22573d6000803e3d6000fd5b505050506040513d601f19601f82011682018060405250810190613c469190615c41565b613c4f57600080fd5b6002613c6160e0850160c08601615c26565b6003811115613c7257613c726153a7565b1480613c9e57506003613c8b60e0850160c08601615c26565b6003811115613c9c57613c9c6153a7565b145b15613d6c57613cb36080840160608501615383565b6001600160a01b03166323b872dd33613cd26060870160408801615383565b613cdc8587615e3c565b6040516001600160e01b031960e086901b1681526001600160a01b0393841660048201529290911660248301526044820152606401602060405180830381600087803b158015613d2b57600080fd5b505af1158015613d3f573d6000803e3d6000fd5b505050506040513d601f19601f82011682018060405250810190613d639190615c41565b613d6c57600080fd5b505050565b6060613d7b614b1e565b60608315613e7a576001600160a01b038316600090815260076020908152604080832060020180548251818502810185019093528083529193909284015b82821015613e6f576000848152602090819020604080516080810182526002860290920180548352600181015461ffff81169484019490945291929083019062010000900460ff166003811115613e1257613e126153a7565b6003811115613e2357613e236153a7565b81526020016001820160039054906101000a900460ff166002811115613e4b57613e4b6153a7565b6002811115613e5c57613e5c6153a7565b8152505081526020019060010190613db9565b505050509050613f6d565b6001600160a01b038316600090815260076020908152604080832060030180548251818502810185019093528083529193909284015b82821015613f66576000848152602090819020604080516080810182526002860290920180548352600181015461ffff81169484019490945291929083019062010000900460ff166003811115613f0957613f096153a7565b6003811115613f1a57613f1a6153a7565b81526020016001820160039054906101000a900460ff166002811115613f4257613f426153a7565b6002811115613f5357613f536153a7565b8152505081526020019060010190613eb0565b5050505090505b6000815167ffffffffffffffff811115613f8957613f896158e1565b60405190808252806020026020018201604052801561402457816020015b614011604080516101808101909152600060608083018281526080840183905260a0840183905260c0840183905260e08401839052610100840183905261012084018390526101408401929092526101608301528190815260200160008152602001600081525090565b815260200190600190039081613fa75790505b50905060005b8251811015614138576140488382815181106121f2576121f2615bc4565b82828151811061405a5761405a615bc4565b60200260200101516000018190525082818151811061407b5761407b615bc4565b60200260200101516060015182828151811061409957614099615bc4565b60200260200101516020019060028111156140b6576140b66153a7565b908160028111156140c9576140c96153a7565b81525050600b60008383815181106140e3576140e3615bc4565b6020026020010151600001516000015181526020019081526020016000208054905082828151811061411757614117615bc4565b6020908102919091010151604001528061413081615bf0565b91505061402a565b509150505b92915050565b61414b614b1e565b60068054911515600160d01b0260ff60d01b19909216919091179055565b614171614b1e565b6113884711156141ca57600654660100000000000090046001600160a01b03166108fc6141a061138847615e5b565b6040518115909202916000818181858888f193505050501580156141c8573d6000803e3d6000fd5b505b565b606060006141d9426151d1565b60065490915064ffffffffff6101009091048116908216116142225760405162461bcd60e51b81526020600482015260026024820152610c4d60f21b60448201526064016105e7565b600061422d42611cd4565b9050600080600060025467ffffffffffffffff81111561424f5761424f6158e1565b60405190808252806020026020018201604052801561429457816020015b604080518082019091526000808252602082015281526020019060019003908161426d5790505b50905060005b60038111614577576000816142b0575060208501515b60018214156142bd575084515b60028214156142cd575060408501515b60038214156142dd575060608501515b60005b6000838152600a6020908152604080832061ffff86168452909152902054811015614562576000838152600a6020908152604080832061ffff86168452909152902080548290811061433457614334615bc4565b906000526020600020906005020160030160159054906101000a900460ff16614550576000838152600a6020908152604080832061ffff86168452909152812080548390811061438657614386615bc4565b60009182526020808320600590920290910154868352600a8252604080842061ffff88168552909252908220805491935090849081106143c8576143c8615bc4565b6000918252602080832060036005909302019190910154878352600a8252604080842061ffff8916855290925290822080546001600160a01b039092169350908590811061441857614418615bc4565b906000526020600020906005020160010154905061445260405180604001604052806000815260200160006001600160a01b031681525090565b600082612710600054856144669190615e3c565b6144709190615caf565b61447a9190615e5b565b90506000805b6000878152600b6020526040902054811015614548576002548d14156144b45750989e9d5050505050505050505050505050565b60035415806144ca575060065460ff1615156001145b15614536578c6144d981615bf0565b9d506144e790508383615df7565b91506040518060400160405280838152602001876001600160a01b03168152509350838b8d8151811061451c5761451c615bc4565b60200260200101819052508b8061453290615bf0565b9c50505b8061454081615bf0565b915050614480565b505050505050505b8061455a81615bf0565b9150506142e0565b5050808061456f90615bf0565b91505061429a565b506000805b82518110156145d75760006001600160a01b03168382815181106145a2576145a2615bc4565b6020026020010151602001516001600160a01b031614156145c5578091506145d7565b806145cf81615bf0565b91505061457c565b5060008167ffffffffffffffff8111156145f3576145f36158e1565b60405190808252806020026020018201604052801561463857816020015b60408051808201909152600080825260208201528152602001906001900390816146115790505b50905060005b828110156146905783818151811061465857614658615bc4565b602002602001015182828151811061467257614672615bc4565b6020026020010181905250808061468890615bf0565b91505061463e565b50979650505050505050565b6146a4614b1e565b6001600160a01b0382166146b757600080fd5b6146c082614b67565b156146f15760405162461bcd60e51b81526020600482015260016024820152603160f81b60448201526064016105e7565b604080516060810182526001600160a01b03938416808252602080830194855260018385018181526000938452600590925293909120915182546001600160a01b031916951694909417815591519082015590516002909101805460ff1916911515919091179055565b614763614b99565b3360009081526007602052604081206002015467ffffffffffffffff81111561478e5761478e6158e1565b6040519080825280602002602001820160405280156147e957816020015b6147d660408051608081018252600080825260208201819052909182019081526020016000905290565b8152602001906001900390816147ac5790505b50336000908152600760209081526040808320600201805482518185028101850190935280835294955090939092909184015b828210156148d2576000848152602090819020604080516080810182526002860290920180548352600181015461ffff81169484019490945291929083019062010000900460ff166003811115614875576148756153a7565b6003811115614886576148866153a7565b81526020016001820160039054906101000a900460ff1660028111156148ae576148ae6153a7565b60028111156148bf576148bf6153a7565b815250508152602001906001019061481c565b5050336000908152600760205260408120600201549394509150505b8181101561498f57836000015183828151811061490d5761490d615bc4565b602002602001015160000151141561497d57336000908152600760205260409020600290810180548390811061494557614945615bc4565b906000526020600020906002020160010160036101000a81548160ff02191690836002811115614977576149776153a7565b02179055505b8061498781615bf0565b9150506148ee565b50825161499c9033614c55565b600383516020808601516040805164ffffffffff4216815292830191909152339291600080516020615f74833981519152910160405180910390a48251600090815260096020818152604080842033808652908352818520548851865293835281852090855290915282209190915560046040808601518651825164ffffffffff42168152602081018690526001600160a01b039092169290917ffcb91fd98787d64bdba700bb305716e8b6cebeef9927c71b19ed9b0ab1b892b0910160405180910390a46060840151604080860151905163a9059cbb60e01b81526001600160a01b0391821660048201526024810184905291169063a9059cbb90604401602060405180830381600087803b158015614ab557600080fd5b505af1158015614ac9573d6000803e3d6000fd5b505050506040513d601f19601f82011682018060405250810190614aed9190615c41565b6131235760405162461bcd60e51b8152602060048201526002602482015261323160f01b60448201526064016105e7565b600654660100000000000090046001600160a01b031633146141ca5760405162461bcd60e51b8152602060048201526002602482015261189b60f11b60448201526064016105e7565b6001600160a01b03811660009081526005602052604081206002015460ff16614b9157600061413d565b600192915050565b336141ca5760405162461bcd60e51b81526020600482015260016024820152603360f81b60448201526064016105e7565b60008060405180608001604052808781526020018661ffff168152602001856003811115614bfa57614bfa6153a7565b8152602001846002811115614c1157614c116153a7565b81525090506000614c2f826000015183604001518460200151611536565b9050806080015115614c4657600192505050614c4d565b6000925050505b949350505050565b6000828152600b602052604081208054909190815b81811015614cee57846001600160a01b0316848281548110614c8e57614c8e615bc4565b6000918252602090912001546001600160a01b03161415614cdc57809250838181548110614cbe57614cbe615bc4565b600091825260209091200180546001600160a01b0319169055614cee565b80614ce681615bf0565b915050614c6a565b5082548390614cff90600190615e5b565b81548110614d0f57614d0f615bc4565b9060005260206000200160009054906101000a90046001600160a01b0316838381548110614d3f57614d3f615bc4565b9060005260206000200160006101000a8154816001600160a01b0302191690836001600160a01b0316021790555082805480614d7d57614d7d615eb4565b600082815260209020810160001990810180546001600160a01b03191690550190555050505050565b614df56040805161012081018252600080825260208201819052918101829052606081018290526080810182905260a081018290529060c0820190815260006020820152606060409091015290565b60003386848742604051602001614e10959493929190615eca565b60408051601f198184030181528282528051602091820120610120840183528084529083018a905233918301919091526001600160a01b038816606083015260016080830152600060a0830152915060c08101856003811115614e7557614e756153a7565b81526020018461ffff1681526020018681525091505095945050505050565b33600090815260076020526040902054600160a01b900460ff16614f1e5733600081815260076020526040812080546001600160a01b03199081168417825560088054600181019091557ff3f7a9fe364faab93b216da50a3214154f22a0a2b415b23a84c8169e8b636ee301805490911684179055919052805460ff60a01b1916600160a01b1790555b8015614fd457336000908152600760209081526040808320600390810180546001808201835591865294849020875160029096020194855592860151928401805461ffff19811661ffff9095169485178255928701518795949093919262ffffff19909216179062010000908490811115614f9b57614f9b6153a7565b0217905550606082015160018201805463ff00000019166301000000836002811115614fc957614fc96153a7565b021790555050505050565b33600090815260076020908152604080832060029081018054600180820183559186529484902087519590920290910193845591850151918301805461ffff19811661ffff909416938417825591860151869493909262ffffff19161762010000836003811115614f9b57614f9b6153a7565b600081600114806150585750816003145b806150635750816005145b8061506e5750816007145b806150795750816008145b80615084575081600a145b8061508f575081600c145b1561509c5750601f61413d565b816002146150ac5750601e61413d565b6150b583615268565b6150c057601c6150c3565b601d5b60ff169392505050565b6000806150d983615268565b156150e6575060016150ea565b5060005b6150f581605a615df7565b841161510357839150615194565b8361510f82605a615df7565b10801561512657506151228160b5615df7565b8411155b156151475761513681605a615df7565b6151409085615e5b565b9150615194565b836151538260b5615df7565b10801561516b575061516781610111615df7565b8411155b1561517b576151368160b5615df7565b61518781610111615df7565b6151919085615e5b565b91505b5092915050565b6000806151ab6201518084615caf565b9050600060076151bc836003615df7565b6151c69190615f28565b614c4d906001615df7565b600061413d6201518083615f3c565b6141c8816040516024016151f691815260200190565b60408051601f198184030181529190526020810180516001600160e01b031663f82c50f160e01b1790526152a4565b6141c8816040516024016152399190615f60565b60408051601f198184030181529190526020810180516001600160e01b031663104c13eb60e21b1790526152a4565b6000615275600483615f28565b15801561528b5750615288606483615f28565b15155b8061413d575061529d61019083615f28565b1592915050565b80516a636f6e736f6c652e6c6f67602083016000808483855afa5050505050565b8280546152d190615c5e565b90600052602060002090601f0160209004810192826152f35760008555615339565b82601f1061530c57805160ff1916838001178555615339565b82800160010185558215615339579182015b8281111561533957825182559160200191906001019061531e565b50615345929150615349565b5090565b5b80821115615345576000815560010161534a565b6001600160a01b03811681146141c857600080fd5b803561537e8161535e565b919050565b60006020828403121561539557600080fd5b81356153a08161535e565b9392505050565b634e487b7160e01b600052602160045260246000fd5b600481106153cd576153cd6153a7565b9052565b600381106153cd576153cd6153a7565b600081518084526020808501945080840160005b8381101561544b5781518051885261ffff848201511684890152604080820151615421828b01826153bd565b505060609081015190615436898201836153d1565b505060809690960195908201906001016153f5565b509495945050505050565b60006020808301818452808551808352604092508286019150828160051b8701018488016000805b8481101561553a57898403603f19018652825180516001600160a01b03168552888101511515898601528781015160a0898701819052815190870181905260c08701918b019085905b808210156154ee57825164ffffffffff168452928c0192918c0191600191909101906154c7565b5050506060808301518783038289015261550883826153e1565b925050506080808301519250868203818801525061552681836153e1565b978a0197955050509187019160010161547e565b50919998505050505050505050565b60006020828403121561555b57600080fd5b813567ffffffffffffffff81111561557257600080fd5b820161012081850312156153a057600080fd5b60006020828403121561559757600080fd5b5035919050565b80356004811061537e57600080fd5b803561ffff8116811461537e57600080fd5b6000806000606084860312156155d457600080fd5b833592506155e46020850161559e565b91506155f2604085016155ad565b90509250925092565b60005b838110156156165781810151838201526020016155fe565b838111156131235750506000910152565b6000815180845261563f8160208601602086016155fb565b601f01601f19169290920160200192915050565b600061012082518452602083015160208501526001600160a01b036040840151166040850152606083015161569360608601826001600160a01b03169052565b5060808301516156a7608086018215159052565b5060a08301516156bb60a086018215159052565b5060c08301516156ce60c08601826153bd565b5060e08301516156e460e086018261ffff169052565b506101008084015182828701526156fd83870182615627565b9695505050505050565b6020815260006153a06020830184615653565b60008060008060008060a0878903121561573357600080fd5b8635955060208701356157458161535e565b9450604087013567ffffffffffffffff8082111561576257600080fd5b818901915089601f83011261577657600080fd5b81358181111561578557600080fd5b8a602082850101111561579757600080fd5b6020830196508095505050506157af6060880161559e565b91506157bd608088016155ad565b90509295509295509295565b80151581146141c857600080fd5b803561537e816157c9565b6000602082840312156157f457600080fd5b81356153a0816157c9565b60006020808301818452808551808352604092508286019150828160051b87010184880160005b8381101561587b57603f1989840301855281516060815181865261584c82870182615653565b9150508882015161585f8a8701826153d1565b5090870151938701939093529386019390860190600101615826565b509098975050505050505050565b602080825282518282018190526000919060409081850190868401855b828110156158d457815180516001600160a01b031685528601518685015292840192908501906001016158a6565b5091979650505050505050565b634e487b7160e01b600052604160045260246000fd5b604051610120810167ffffffffffffffff8111828210171561591b5761591b6158e1565b60405290565b600082601f83011261593257600080fd5b813567ffffffffffffffff8082111561594d5761594d6158e1565b604051601f8301601f19908116603f01168101908282118183101715615975576159756158e1565b8160405283815286602085880101111561598e57600080fd5b836020870160208301376000602085830101528094505050505092915050565b600061012082840312156159c157600080fd5b6159c96158f7565b905081358152602082013560208201526159e560408301615373565b60408201526159f660608301615373565b6060820152615a07608083016157d7565b6080820152615a1860a083016157d7565b60a0820152615a2960c0830161559e565b60c0820152615a3a60e083016155ad565b60e08201526101008083013567ffffffffffffffff811115615a5b57600080fd5b615a6785828601615921565b82840152505092915050565b60008060408385031215615a8657600080fd5b823567ffffffffffffffff811115615a9d57600080fd5b615aa9858286016159ae565b9250506020830135615aba8161535e565b809150509250929050565b60008060408385031215615ad857600080fd5b8235615ae3816157c9565b91506020830135615aba8161535e565b602080825282518282018190526000919060409081850190868401855b828110156158d4578151805185528601516001600160a01b0316868501529284019290850190600101615b10565b60008060408385031215615b5157600080fd5b823591506020830135615aba8161535e565b60008060408385031215615b7657600080fd5b8235615b818161535e565b946020939093013593505050565b600060208284031215615ba157600080fd5b813567ffffffffffffffff811115615bb857600080fd5b615191848285016159ae565b634e487b7160e01b600052603260045260246000fd5b634e487b7160e01b600052601160045260246000fd5b6000600019821415615c0457615c04615bda565b5060010190565b600060208284031215615c1d57600080fd5b6153a0826155ad565b600060208284031215615c3857600080fd5b6153a08261559e565b600060208284031215615c5357600080fd5b81516153a0816157c9565b600181811c90821680615c7257607f821691505b60208210811415615c9357634e487b7160e01b600052602260045260246000fd5b50919050565b634e487b7160e01b600052601260045260246000fd5b600082615cbe57615cbe615c99565b500490565b6000808212826001600160ff1b0303841381151615615ce457615ce4615bda565b600160ff1b8390038412811615615cfd57615cfd615bda565b50500190565b60006001600160ff1b03600084136000841385830485118282161615615d2b57615d2b615bda565b600160ff1b6000871282811687830589121615615d4a57615d4a615bda565b60008712925087820587128484161615615d6657615d66615bda565b87850587128184161615615d7c57615d7c615bda565b505050929093029392505050565b600082615d9957615d99615c99565b600160ff1b821460001984141615615db357615db3615bda565b500590565b60008083128015600160ff1b850184121615615dd657615dd6615bda565b836001600160ff1b03018313811615615df157615df1615bda565b50500390565b60008219821115615e0a57615e0a615bda565b500190565b600064ffffffffff80831681851681830481118215151615615e3357615e33615bda565b02949350505050565b6000816000190483118215151615615e5657615e56615bda565b500290565b600082821015615e6d57615e6d615bda565b500390565b600060208284031215615e8457600080fd5b5051919050565b600064ffffffffff808316818516808303821115615eab57615eab615bda565b01949350505050565b634e487b7160e01b600052603160045260246000fd5b60006bffffffffffffffffffffffff19808860601b168352808760601b1660148401525061ffff60f01b8560f01b1660288301528351615f1181602a8501602088016155fb565b602a920191820192909252604a0195945050505050565b600082615f3757615f37615c99565b500690565b600064ffffffffff80841680615f5457615f54615c99565b92169190910492915050565b6020815260006153a0602083018461562756fefcfb8f783c54c9c729957515ad137cd8832b98c21e44fd7f481e2e7603bfdb5fa2646970667358221220977c4bda5f959dd8f07b99035d840e303f31d216cffe6337a762535f17589e4e64736f6c63430008090033","opcodes":"PUSH1 0x80 PUSH1 0x40 MSTORE PUSH2 0x27D8 PUSH1 0x0 SSTORE PUSH7 0x2386F26FC10000 PUSH1 0x1 SSTORE PUSH1 0x5 PUSH1 0x2 SWAP1 DUP2 SSTORE PUSH1 0x6 DUP1 SLOAD PUSH1 0xFF PUSH1 0xD8 SHL NOT AND SWAP1 SSTORE PUSH3 0x34 TIMESTAMP PUSH3 0x95 JUMP JUMPDEST PUSH3 0x40 SWAP2 SWAP1 PUSH3 0xAC JUMP JUMPDEST PUSH1 0x6 DUP1 SLOAD PUSH2 0x100 PUSH1 0x1 PUSH1 0xD0 SHL SUB NOT AND PUSH2 0x100 PUSH5 0xFFFFFFFFFF SWAP4 SWAP1 SWAP4 AND SWAP3 SWAP1 SWAP3 MUL PUSH1 0x1 PUSH1 0x30 SHL PUSH1 0x1 PUSH1 0xD0 SHL SUB NOT AND SWAP2 SWAP1 SWAP2 OR PUSH26 0xF39FD6E51AAD88F6F4CE6AB8827279CFFFB92266000000000000 OR SWAP1 SSTORE PUSH3 0x114 JUMP JUMPDEST PUSH1 0x0 PUSH3 0xA6 PUSH3 0x15180 DUP4 PUSH3 0xE1 JUMP JUMPDEST SWAP3 SWAP2 POP POP JUMP JUMPDEST PUSH1 0x0 PUSH5 0xFFFFFFFFFF DUP4 DUP2 AND SWAP1 DUP4 AND DUP2 DUP2 LT ISZERO PUSH3 0xD9 JUMPI PUSH4 0x4E487B71 PUSH1 0xE0 SHL PUSH1 0x0 MSTORE PUSH1 0x11 PUSH1 0x4 MSTORE PUSH1 0x24 PUSH1 0x0 REVERT JUMPDEST SUB SWAP4 SWAP3 POP POP POP JUMP JUMPDEST PUSH1 0x0 PUSH5 0xFFFFFFFFFF DUP1 DUP5 AND DUP1 PUSH3 0x108 JUMPI PUSH4 0x4E487B71 PUSH1 0xE0 SHL PUSH1 0x0 MSTORE PUSH1 0x12 PUSH1 0x4 MSTORE PUSH1 0x24 PUSH1 0x0 REVERT JUMPDEST SWAP3 AND SWAP2 SWAP1 SWAP2 DIV SWAP3 SWAP2 POP POP JUMP JUMPDEST PUSH2 0x5FC9 DUP1 PUSH3 0x124 PUSH1 0x0 CODECOPY PUSH1 0x0 RETURN INVALID PUSH1 0x80 PUSH1 0x40 MSTORE PUSH1 0x4 CALLDATASIZE LT PUSH2 0x1A3 JUMPI PUSH1 0x0 CALLDATALOAD PUSH1 0xE0 SHR DUP1 PUSH4 0x8F283970 GT PUSH2 0xE0 JUMPI DUP1 PUSH4 0xCAB1C965 GT PUSH2 0x84 JUMPI DUP1 PUSH4 0xEBEC6EAA GT PUSH2 0x61 JUMPI DUP1 PUSH4 0xEBEC6EAA EQ PUSH2 0x4EA JUMPI DUP1 PUSH4 0xF25E13C9 EQ PUSH2 0x522 JUMPI DUP1 PUSH4 0xF851A440 EQ PUSH2 0x542 JUMPI DUP1 PUSH4 0xFEDCE940 EQ PUSH2 0x584 JUMPI STOP JUMPDEST DUP1 PUSH4 0xCAB1C965 EQ PUSH2 0x479 JUMPI DUP1 PUSH4 0xDA854A96 EQ PUSH2 0x48F JUMPI DUP1 PUSH4 0xE63D35BE EQ PUSH2 0x4C8 JUMPI STOP JUMPDEST DUP1 PUSH4 0xA429131A GT PUSH2 0xBD JUMPI DUP1 PUSH4 0xA429131A EQ PUSH2 0x411 JUMPI DUP1 PUSH4 0xA5AF2ABD EQ PUSH2 0x424 JUMPI DUP1 PUSH4 0xB4761DE9 EQ PUSH2 0x444 JUMPI DUP1 PUSH4 0xC8796572 EQ PUSH2 0x464 JUMPI STOP JUMPDEST DUP1 PUSH4 0x8F283970 EQ PUSH2 0x3B1 JUMPI DUP1 PUSH4 0x9889552E EQ PUSH2 0x3D1 JUMPI DUP1 PUSH4 0xA2349CAF EQ PUSH2 0x3F1 JUMPI STOP JUMPDEST DUP1 PUSH4 0x3084F79E GT PUSH2 0x147 JUMPI DUP1 PUSH4 0x6605AC0D GT PUSH2 0x124 JUMPI DUP1 PUSH4 0x6605AC0D EQ PUSH2 0x32F JUMPI DUP1 PUSH4 0x7507BA39 EQ PUSH2 0x35C JUMPI DUP1 PUSH4 0x7BBF5A6E EQ PUSH2 0x364 JUMPI DUP1 PUSH4 0x8EF0EF1C EQ PUSH2 0x391 JUMPI STOP JUMPDEST DUP1 PUSH4 0x3084F79E EQ PUSH2 0x2A8 JUMPI DUP1 PUSH4 0x34D441D0 EQ PUSH2 0x2BB JUMPI DUP1 PUSH4 0x53A6D6E2 EQ PUSH2 0x2D1 JUMPI STOP JUMPDEST DUP1 PUSH4 0xBEC99E8 GT PUSH2 0x180 JUMPI DUP1 PUSH4 0xBEC99E8 EQ PUSH2 0x217 JUMPI DUP1 PUSH4 0x1F17EE55 EQ PUSH2 0x237 JUMPI DUP1 PUSH4 0x27EA9773 EQ PUSH2 0x25B JUMPI DUP1 PUSH4 0x2D23F7E7 EQ PUSH2 0x27B JUMPI STOP JUMPDEST DUP1 PUSH4 0x53149FA EQ PUSH2 0x1AC JUMPI DUP1 PUSH4 0x8E93D0A EQ PUSH2 0x1CC JUMPI DUP1 PUSH4 0x94F9977 EQ PUSH2 0x1F7 JUMPI STOP JUMPDEST CALLDATASIZE PUSH2 0x1AA JUMPI STOP JUMPDEST STOP JUMPDEST CALLVALUE DUP1 ISZERO PUSH2 0x1B8 JUMPI PUSH1 0x0 DUP1 REVERT JUMPDEST POP PUSH2 0x1AA PUSH2 0x1C7 CALLDATASIZE PUSH1 0x4 PUSH2 0x5383 JUMP JUMPDEST PUSH2 0x597 JUMP JUMPDEST CALLVALUE DUP1 ISZERO PUSH2 0x1D8 JUMPI PUSH1 0x0 DUP1 REVERT JUMPDEST POP PUSH2 0x1E1 PUSH2 0x62A JUMP JUMPDEST PUSH1 0x40 MLOAD PUSH2 0x1EE SWAP2 SWAP1 PUSH2 0x5456 JUMP JUMPDEST PUSH1 0x40 MLOAD DUP1 SWAP2 SUB SWAP1 RETURN JUMPDEST CALLVALUE DUP1 ISZERO PUSH2 0x203 JUMPI PUSH1 0x0 DUP1 REVERT JUMPDEST POP PUSH2 0x1AA PUSH2 0x212 CALLDATASIZE PUSH1 0x4 PUSH2 0x5549 JUMP JUMPDEST PUSH2 0x9F3 JUMP JUMPDEST CALLVALUE DUP1 ISZERO PUSH2 0x223 JUMPI PUSH1 0x0 DUP1 REVERT JUMPDEST POP PUSH2 0x1AA PUSH2 0x232 CALLDATASIZE PUSH1 0x4 PUSH2 0x5585 JUMP JUMPDEST PUSH2 0x151C JUMP JUMPDEST CALLVALUE DUP1 ISZERO PUSH2 0x243 JUMPI PUSH1 0x0 DUP1 REVERT JUMPDEST POP PUSH2 0x24D PUSH1 0x1 SLOAD DUP2 JUMP JUMPDEST PUSH1 0x40 MLOAD SWAP1 DUP2 MSTORE PUSH1 0x20 ADD PUSH2 0x1EE JUMP JUMPDEST CALLVALUE DUP1 ISZERO PUSH2 0x267 JUMPI PUSH1 0x0 DUP1 REVERT JUMPDEST POP PUSH2 0x1AA PUSH2 0x276 CALLDATASIZE PUSH1 0x4 PUSH2 0x5585 JUMP JUMPDEST PUSH2 0x1529 JUMP JUMPDEST CALLVALUE DUP1 ISZERO PUSH2 0x287 JUMPI PUSH1 0x0 DUP1 REVERT JUMPDEST POP PUSH2 0x29B PUSH2 0x296 CALLDATASIZE PUSH1 0x4 PUSH2 0x55BF JUMP JUMPDEST PUSH2 0x1536 JUMP JUMPDEST PUSH1 0x40 MLOAD PUSH2 0x1EE SWAP2 SWAP1 PUSH2 0x5707 JUMP JUMPDEST PUSH2 0x1AA PUSH2 0x2B6 CALLDATASIZE PUSH1 0x4 PUSH2 0x571A JUMP JUMPDEST PUSH2 0x17BD JUMP JUMPDEST CALLVALUE DUP1 ISZERO PUSH2 0x2C7 JUMPI PUSH1 0x0 DUP1 REVERT JUMPDEST POP PUSH2 0x24D PUSH1 0x0 SLOAD DUP2 JUMP JUMPDEST CALLVALUE DUP1 ISZERO PUSH2 0x2DD JUMPI PUSH1 0x0 DUP1 REVERT JUMPDEST POP PUSH2 0x2F1 PUSH2 0x2EC CALLDATASIZE PUSH1 0x4 PUSH2 0x5585 JUMP JUMPDEST PUSH2 0x1CD4 JUMP JUMPDEST PUSH1 0x40 MLOAD PUSH2 0x1EE SWAP2 SWAP1 DUP2 MLOAD PUSH2 0xFFFF SWAP1 DUP2 AND DUP3 MSTORE PUSH1 0x20 DUP1 DUP5 ADD MLOAD DUP3 AND SWAP1 DUP4 ADD MSTORE PUSH1 0x40 DUP1 DUP5 ADD MLOAD DUP3 AND SWAP1 DUP4 ADD MSTORE PUSH1 0x60 SWAP3 DUP4 ADD MLOAD AND SWAP2 DUP2 ADD SWAP2 SWAP1 SWAP2 MSTORE PUSH1 0x80 ADD SWAP1 JUMP JUMPDEST CALLVALUE DUP1 ISZERO PUSH2 0x33B JUMPI PUSH1 0x0 DUP1 REVERT JUMPDEST POP PUSH2 0x34F PUSH2 0x34A CALLDATASIZE PUSH1 0x4 PUSH2 0x57E2 JUMP JUMPDEST PUSH2 0x1F36 JUMP JUMPDEST PUSH1 0x40 MLOAD PUSH2 0x1EE SWAP2 SWAP1 PUSH2 0x57FF JUMP JUMPDEST PUSH2 0x1AA PUSH2 0x2337 JUMP JUMPDEST CALLVALUE DUP1 ISZERO PUSH2 0x370 JUMPI PUSH1 0x0 DUP1 REVERT JUMPDEST POP PUSH2 0x384 PUSH2 0x37F CALLDATASIZE PUSH1 0x4 PUSH2 0x5585 JUMP JUMPDEST PUSH2 0x314E JUMP JUMPDEST PUSH1 0x40 MLOAD PUSH2 0x1EE SWAP2 SWAP1 PUSH2 0x5889 JUMP JUMPDEST CALLVALUE DUP1 ISZERO PUSH2 0x39D JUMPI PUSH1 0x0 DUP1 REVERT JUMPDEST POP PUSH2 0x1AA PUSH2 0x3AC CALLDATASIZE PUSH1 0x4 PUSH2 0x5585 JUMP JUMPDEST PUSH2 0x3347 JUMP JUMPDEST CALLVALUE DUP1 ISZERO PUSH2 0x3BD JUMPI PUSH1 0x0 DUP1 REVERT JUMPDEST POP PUSH2 0x1AA PUSH2 0x3CC CALLDATASIZE PUSH1 0x4 PUSH2 0x5383 JUMP JUMPDEST PUSH2 0x3354 JUMP JUMPDEST CALLVALUE DUP1 ISZERO PUSH2 0x3DD JUMPI PUSH1 0x0 DUP1 REVERT JUMPDEST POP PUSH2 0x1AA PUSH2 0x3EC CALLDATASIZE PUSH1 0x4 PUSH2 0x57E2 JUMP JUMPDEST PUSH2 0x33C9 JUMP JUMPDEST CALLVALUE DUP1 ISZERO PUSH2 0x3FD JUMPI PUSH1 0x0 DUP1 REVERT JUMPDEST POP PUSH2 0x1AA PUSH2 0x40C CALLDATASIZE PUSH1 0x4 PUSH2 0x5A73 JUMP JUMPDEST PUSH2 0x33EF JUMP JUMPDEST PUSH2 0x1AA PUSH2 0x41F CALLDATASIZE PUSH1 0x4 PUSH2 0x5549 JUMP JUMPDEST PUSH2 0x3849 JUMP JUMPDEST CALLVALUE DUP1 ISZERO PUSH2 0x430 JUMPI PUSH1 0x0 DUP1 REVERT JUMPDEST POP PUSH2 0x34F PUSH2 0x43F CALLDATASIZE PUSH1 0x4 PUSH2 0x5AC5 JUMP JUMPDEST PUSH2 0x3D71 JUMP JUMPDEST CALLVALUE DUP1 ISZERO PUSH2 0x450 JUMPI PUSH1 0x0 DUP1 REVERT JUMPDEST POP PUSH2 0x1AA PUSH2 0x45F CALLDATASIZE PUSH1 0x4 PUSH2 0x57E2 JUMP JUMPDEST PUSH2 0x4143 JUMP JUMPDEST CALLVALUE DUP1 ISZERO PUSH2 0x470 JUMPI PUSH1 0x0 DUP1 REVERT JUMPDEST POP PUSH2 0x1AA PUSH2 0x4169 JUMP JUMPDEST CALLVALUE DUP1 ISZERO PUSH2 0x485 JUMPI PUSH1 0x0 DUP1 REVERT JUMPDEST POP PUSH2 0x24D PUSH1 0x2 SLOAD DUP2 JUMP JUMPDEST CALLVALUE DUP1 ISZERO PUSH2 0x49B JUMPI PUSH1 0x0 DUP1 REVERT JUMPDEST POP PUSH1 0x6 SLOAD PUSH2 0x4B2 SWAP1 PUSH2 0x100 SWAP1 DIV PUSH5 0xFFFFFFFFFF AND DUP2 JUMP JUMPDEST PUSH1 0x40 MLOAD PUSH5 0xFFFFFFFFFF SWAP1 SWAP2 AND DUP2 MSTORE PUSH1 0x20 ADD PUSH2 0x1EE JUMP JUMPDEST CALLVALUE DUP1 ISZERO PUSH2 0x4D4 JUMPI PUSH1 0x0 DUP1 REVERT JUMPDEST POP PUSH2 0x4DD PUSH2 0x41CC JUMP JUMPDEST PUSH1 0x40 MLOAD PUSH2 0x1EE SWAP2 SWAP1 PUSH2 0x5AF3 JUMP JUMPDEST CALLVALUE DUP1 ISZERO PUSH2 0x4F6 JUMPI PUSH1 0x0 DUP1 REVERT JUMPDEST POP PUSH2 0x24D PUSH2 0x505 CALLDATASIZE PUSH1 0x4 PUSH2 0x5B3E JUMP JUMPDEST PUSH1 0x9 PUSH1 0x20 SWAP1 DUP2 MSTORE PUSH1 0x0 SWAP3 DUP4 MSTORE PUSH1 0x40 DUP1 DUP5 KECCAK256 SWAP1 SWAP2 MSTORE SWAP1 DUP3 MSTORE SWAP1 KECCAK256 SLOAD DUP2 JUMP JUMPDEST CALLVALUE DUP1 ISZERO PUSH2 0x52E JUMPI PUSH1 0x0 DUP1 REVERT JUMPDEST POP PUSH2 0x1AA PUSH2 0x53D CALLDATASIZE PUSH1 0x4 PUSH2 0x5B63 JUMP JUMPDEST PUSH2 0x469C JUMP JUMPDEST CALLVALUE DUP1 ISZERO PUSH2 0x54E JUMPI PUSH1 0x0 DUP1 REVERT JUMPDEST POP PUSH1 0x6 SLOAD PUSH2 0x56C SWAP1 PUSH7 0x1000000000000 SWAP1 DIV PUSH1 0x1 PUSH1 0x1 PUSH1 0xA0 SHL SUB AND DUP2 JUMP JUMPDEST PUSH1 0x40 MLOAD PUSH1 0x1 PUSH1 0x1 PUSH1 0xA0 SHL SUB SWAP1 SWAP2 AND DUP2 MSTORE PUSH1 0x20 ADD PUSH2 0x1EE JUMP JUMPDEST PUSH2 0x1AA PUSH2 0x592 CALLDATASIZE PUSH1 0x4 PUSH2 0x5B8F JUMP JUMPDEST PUSH2 0x475B JUMP JUMPDEST PUSH2 0x59F PUSH2 0x4B1E JUMP JUMPDEST PUSH1 0x1 PUSH1 0x1 PUSH1 0xA0 SHL SUB DUP2 AND PUSH2 0x5B2 JUMPI PUSH1 0x0 DUP1 REVERT JUMPDEST PUSH2 0x5BB DUP2 PUSH2 0x4B67 JUMP JUMPDEST PUSH2 0x5F0 JUMPI PUSH1 0x40 MLOAD PUSH3 0x461BCD PUSH1 0xE5 SHL DUP2 MSTORE PUSH1 0x20 PUSH1 0x4 DUP3 ADD MSTORE PUSH1 0x1 PUSH1 0x24 DUP3 ADD MSTORE PUSH1 0x19 PUSH1 0xF9 SHL PUSH1 0x44 DUP3 ADD MSTORE PUSH1 0x64 ADD JUMPDEST PUSH1 0x40 MLOAD DUP1 SWAP2 SUB SWAP1 REVERT JUMPDEST PUSH1 0x1 PUSH1 0x1 PUSH1 0xA0 SHL SUB AND PUSH1 0x0 SWAP1 DUP2 MSTORE PUSH1 0x5 PUSH1 0x20 MSTORE PUSH1 0x40 DUP2 KECCAK256 DUP1 SLOAD PUSH1 0x1 PUSH1 0x1 PUSH1 0xA0 SHL SUB NOT AND DUP2 SSTORE PUSH1 0x1 DUP2 ADD SWAP2 SWAP1 SWAP2 SSTORE PUSH1 0x2 ADD DUP1 SLOAD PUSH1 0xFF NOT AND SWAP1 SSTORE JUMP JUMPDEST PUSH1 0x60 PUSH2 0x634 PUSH2 0x4B1E JUMP JUMPDEST PUSH1 0x0 PUSH1 0x8 DUP1 SLOAD DUP1 PUSH1 0x20 MUL PUSH1 0x20 ADD PUSH1 0x40 MLOAD SWAP1 DUP2 ADD PUSH1 0x40 MSTORE DUP1 SWAP3 SWAP2 SWAP1 DUP2 DUP2 MSTORE PUSH1 0x20 ADD DUP3 DUP1 SLOAD DUP1 ISZERO PUSH2 0x68C JUMPI PUSH1 0x20 MUL DUP3 ADD SWAP2 SWAP1 PUSH1 0x0 MSTORE PUSH1 0x20 PUSH1 0x0 KECCAK256 SWAP1 JUMPDEST DUP2 SLOAD PUSH1 0x1 PUSH1 0x1 PUSH1 0xA0 SHL SUB AND DUP2 MSTORE PUSH1 0x1 SWAP1 SWAP2 ADD SWAP1 PUSH1 0x20 ADD DUP1 DUP4 GT PUSH2 0x66E JUMPI JUMPDEST POP POP POP POP POP SWAP1 POP PUSH1 0x0 DUP2 MLOAD PUSH8 0xFFFFFFFFFFFFFFFF DUP2 GT ISZERO PUSH2 0x6AF JUMPI PUSH2 0x6AF PUSH2 0x58E1 JUMP JUMPDEST PUSH1 0x40 MLOAD SWAP1 DUP1 DUP3 MSTORE DUP1 PUSH1 0x20 MUL PUSH1 0x20 ADD DUP3 ADD PUSH1 0x40 MSTORE DUP1 ISZERO PUSH2 0x70A JUMPI DUP2 PUSH1 0x20 ADD JUMPDEST PUSH1 0x40 DUP1 MLOAD PUSH1 0xA0 DUP2 ADD DUP3 MSTORE PUSH1 0x0 DUP1 DUP3 MSTORE PUSH1 0x20 DUP3 ADD MSTORE PUSH1 0x60 SWAP2 DUP2 ADD DUP3 SWAP1 MSTORE DUP2 DUP2 ADD DUP3 SWAP1 MSTORE PUSH1 0x80 DUP2 ADD SWAP2 SWAP1 SWAP2 MSTORE DUP2 MSTORE PUSH1 0x20 ADD SWAP1 PUSH1 0x1 SWAP1 SUB SWAP1 DUP2 PUSH2 0x6CD JUMPI SWAP1 POP JUMPDEST POP SWAP1 POP PUSH1 0x0 JUMPDEST DUP3 MLOAD DUP2 LT ISZERO PUSH2 0x9EC JUMPI PUSH1 0x7 PUSH1 0x0 DUP5 DUP4 DUP2 MLOAD DUP2 LT PUSH2 0x72F JUMPI PUSH2 0x72F PUSH2 0x5BC4 JUMP JUMPDEST PUSH1 0x20 SWAP1 DUP2 MUL SWAP2 SWAP1 SWAP2 ADD DUP2 ADD MLOAD PUSH1 0x1 PUSH1 0x1 PUSH1 0xA0 SHL SUB SWAP1 DUP2 AND DUP4 MSTORE DUP3 DUP3 ADD SWAP4 SWAP1 SWAP4 MSTORE PUSH1 0x40 SWAP2 DUP3 ADD PUSH1 0x0 KECCAK256 DUP3 MLOAD PUSH1 0xA0 DUP2 ADD DUP5 MSTORE DUP2 SLOAD SWAP5 DUP6 AND DUP2 MSTORE PUSH1 0x1 PUSH1 0xA0 SHL SWAP1 SWAP5 DIV PUSH1 0xFF AND ISZERO ISZERO DUP5 DUP4 ADD MSTORE PUSH1 0x1 DUP2 ADD DUP1 SLOAD DUP5 MLOAD DUP2 DUP6 MUL DUP2 ADD DUP6 ADD DUP7 MSTORE DUP2 DUP2 MSTORE SWAP3 SWAP5 DUP7 ADD SWAP4 DUP4 ADD DUP3 DUP3 DUP1 ISZERO PUSH2 0x7ED JUMPI PUSH1 0x20 MUL DUP3 ADD SWAP2 SWAP1 PUSH1 0x0 MSTORE PUSH1 0x20 PUSH1 0x0 KECCAK256 SWAP1 PUSH1 0x0 SWAP1 JUMPDEST DUP3 DUP3 SWAP1 SLOAD SWAP1 PUSH2 0x100 EXP SWAP1 DIV PUSH5 0xFFFFFFFFFF AND PUSH5 0xFFFFFFFFFF AND DUP2 MSTORE PUSH1 0x20 ADD SWAP1 PUSH1 0x5 ADD SWAP1 PUSH1 0x20 DUP3 PUSH1 0x4 ADD DIV SWAP3 DUP4 ADD SWAP3 PUSH1 0x1 SUB DUP3 MUL SWAP2 POP DUP1 DUP5 GT PUSH2 0x7AE JUMPI SWAP1 POP JUMPDEST POP POP POP POP POP DUP2 MSTORE PUSH1 0x20 ADD PUSH1 0x2 DUP3 ADD DUP1 SLOAD DUP1 PUSH1 0x20 MUL PUSH1 0x20 ADD PUSH1 0x40 MLOAD SWAP1 DUP2 ADD PUSH1 0x40 MSTORE DUP1 SWAP3 SWAP2 SWAP1 DUP2 DUP2 MSTORE PUSH1 0x20 ADD PUSH1 0x0 SWAP1 JUMPDEST DUP3 DUP3 LT ISZERO PUSH2 0x8D1 JUMPI PUSH1 0x0 DUP5 DUP2 MSTORE PUSH1 0x20 SWAP1 DUP2 SWAP1 KECCAK256 PUSH1 0x40 DUP1 MLOAD PUSH1 0x80 DUP2 ADD DUP3 MSTORE PUSH1 0x2 DUP7 MUL SWAP1 SWAP3 ADD DUP1 SLOAD DUP4 MSTORE PUSH1 0x1 DUP2 ADD SLOAD PUSH2 0xFFFF DUP2 AND SWAP5 DUP5 ADD SWAP5 SWAP1 SWAP5 MSTORE SWAP2 SWAP3 SWAP1 DUP4 ADD SWAP1 PUSH3 0x10000 SWAP1 DIV PUSH1 0xFF AND PUSH1 0x3 DUP2 GT ISZERO PUSH2 0x874 JUMPI PUSH2 0x874 PUSH2 0x53A7 JUMP JUMPDEST PUSH1 0x3 DUP2 GT ISZERO PUSH2 0x885 JUMPI PUSH2 0x885 PUSH2 0x53A7 JUMP JUMPDEST DUP2 MSTORE PUSH1 0x20 ADD PUSH1 0x1 DUP3 ADD PUSH1 0x3 SWAP1 SLOAD SWAP1 PUSH2 0x100 EXP SWAP1 DIV PUSH1 0xFF AND PUSH1 0x2 DUP2 GT ISZERO PUSH2 0x8AD JUMPI PUSH2 0x8AD PUSH2 0x53A7 JUMP JUMPDEST PUSH1 0x2 DUP2 GT ISZERO PUSH2 0x8BE JUMPI PUSH2 0x8BE PUSH2 0x53A7 JUMP JUMPDEST DUP2 MSTORE POP POP DUP2 MSTORE PUSH1 0x20 ADD SWAP1 PUSH1 0x1 ADD SWAP1 PUSH2 0x81B JUMP JUMPDEST POP POP POP POP DUP2 MSTORE PUSH1 0x20 ADD PUSH1 0x3 DUP3 ADD DUP1 SLOAD DUP1 PUSH1 0x20 MUL PUSH1 0x20 ADD PUSH1 0x40 MLOAD SWAP1 DUP2 ADD PUSH1 0x40 MSTORE DUP1 SWAP3 SWAP2 SWAP1 DUP2 DUP2 MSTORE PUSH1 0x20 ADD PUSH1 0x0 SWAP1 JUMPDEST DUP3 DUP3 LT ISZERO PUSH2 0x9B4 JUMPI PUSH1 0x0 DUP5 DUP2 MSTORE PUSH1 0x20 SWAP1 DUP2 SWAP1 KECCAK256 PUSH1 0x40 DUP1 MLOAD PUSH1 0x80 DUP2 ADD DUP3 MSTORE PUSH1 0x2 DUP7 MUL SWAP1 SWAP3 ADD DUP1 SLOAD DUP4 MSTORE PUSH1 0x1 DUP2 ADD SLOAD PUSH2 0xFFFF DUP2 AND SWAP5 DUP5 ADD SWAP5 SWAP1 SWAP5 MSTORE SWAP2 SWAP3 SWAP1 DUP4 ADD SWAP1 PUSH3 0x10000 SWAP1 DIV PUSH1 0xFF AND PUSH1 0x3 DUP2 GT ISZERO PUSH2 0x957 JUMPI PUSH2 0x957 PUSH2 0x53A7 JUMP JUMPDEST PUSH1 0x3 DUP2 GT ISZERO PUSH2 0x968 JUMPI PUSH2 0x968 PUSH2 0x53A7 JUMP JUMPDEST DUP2 MSTORE PUSH1 0x20 ADD PUSH1 0x1 DUP3 ADD PUSH1 0x3 SWAP1 SLOAD SWAP1 PUSH2 0x100 EXP SWAP1 DIV PUSH1 0xFF AND PUSH1 0x2 DUP2 GT ISZERO PUSH2 0x990 JUMPI PUSH2 0x990 PUSH2 0x53A7 JUMP JUMPDEST PUSH1 0x2 DUP2 GT ISZERO PUSH2 0x9A1 JUMPI PUSH2 0x9A1 PUSH2 0x53A7 JUMP JUMPDEST DUP2 MSTORE POP POP DUP2 MSTORE PUSH1 0x20 ADD SWAP1 PUSH1 0x1 ADD SWAP1 PUSH2 0x8FE JUMP JUMPDEST POP POP POP POP DUP2 MSTORE POP POP DUP3 DUP3 DUP2 MLOAD DUP2 LT PUSH2 0x9CE JUMPI PUSH2 0x9CE PUSH2 0x5BC4 JUMP JUMPDEST PUSH1 0x20 MUL PUSH1 0x20 ADD ADD DUP2 SWAP1 MSTORE POP DUP1 DUP1 PUSH2 0x9E4 SWAP1 PUSH2 0x5BF0 JUMP JUMPDEST SWAP2 POP POP PUSH2 0x710 JUMP JUMPDEST POP SWAP2 POP POP SWAP1 JUMP JUMPDEST PUSH2 0x9FB PUSH2 0x4B99 JUMP JUMPDEST PUSH2 0xA28 DUP2 CALLDATALOAD PUSH2 0xA11 PUSH2 0x100 DUP5 ADD PUSH1 0xE0 DUP6 ADD PUSH2 0x5C0B JUMP JUMPDEST PUSH2 0xA21 PUSH1 0xE0 DUP6 ADD PUSH1 0xC0 DUP7 ADD PUSH2 0x5C26 JUMP JUMPDEST PUSH1 0x0 PUSH2 0x4BCA JUMP JUMPDEST PUSH2 0xA58 JUMPI PUSH1 0x40 MLOAD PUSH3 0x461BCD PUSH1 0xE5 SHL DUP2 MSTORE PUSH1 0x20 PUSH1 0x4 DUP3 ADD MSTORE PUSH1 0x1 PUSH1 0x24 DUP3 ADD MSTORE PUSH1 0x37 PUSH1 0xF8 SHL PUSH1 0x44 DUP3 ADD MSTORE PUSH1 0x64 ADD PUSH2 0x5E7 JUMP JUMPDEST PUSH2 0xA68 PUSH1 0x60 DUP3 ADD PUSH1 0x40 DUP4 ADD PUSH2 0x5383 JUMP JUMPDEST PUSH1 0x1 PUSH1 0x1 PUSH1 0xA0 SHL SUB AND CALLER PUSH1 0x1 PUSH1 0x1 PUSH1 0xA0 SHL SUB AND EQ PUSH2 0xAAD JUMPI PUSH1 0x40 MLOAD PUSH3 0x461BCD PUSH1 0xE5 SHL DUP2 MSTORE PUSH1 0x20 PUSH1 0x4 DUP3 ADD MSTORE PUSH1 0x2 PUSH1 0x24 DUP3 ADD MSTORE PUSH2 0x3233 PUSH1 0xF0 SHL PUSH1 0x44 DUP3 ADD MSTORE PUSH1 0x64 ADD PUSH2 0x5E7 JUMP JUMPDEST CALLER PUSH1 0x0 SWAP1 DUP2 MSTORE PUSH1 0x7 PUSH1 0x20 SWAP1 DUP2 MSTORE PUSH1 0x40 DUP1 DUP4 KECCAK256 PUSH1 0x3 ADD DUP1 SLOAD DUP3 MLOAD DUP2 DUP6 MUL DUP2 ADD DUP6 ADD SWAP1 SWAP4 MSTORE DUP1 DUP4 MSTORE SWAP2 SWAP3 SWAP1 SWAP2 SWAP1 DUP5 SWAP1 DUP5 ADD JUMPDEST DUP3 DUP3 LT ISZERO PUSH2 0xB93 JUMPI PUSH1 0x0 DUP5 DUP2 MSTORE PUSH1 0x20 SWAP1 DUP2 SWAP1 KECCAK256 PUSH1 0x40 DUP1 MLOAD PUSH1 0x80 DUP2 ADD DUP3 MSTORE PUSH1 0x2 DUP7 MUL SWAP1 SWAP3 ADD DUP1 SLOAD DUP4 MSTORE PUSH1 0x1 DUP2 ADD SLOAD PUSH2 0xFFFF DUP2 AND SWAP5 DUP5 ADD SWAP5 SWAP1 SWAP5 MSTORE SWAP2 SWAP3 SWAP1 DUP4 ADD SWAP1 PUSH3 0x10000 SWAP1 DIV PUSH1 0xFF AND PUSH1 0x3 DUP2 GT ISZERO PUSH2 0xB36 JUMPI PUSH2 0xB36 PUSH2 0x53A7 JUMP JUMPDEST PUSH1 0x3 DUP2 GT ISZERO PUSH2 0xB47 JUMPI PUSH2 0xB47 PUSH2 0x53A7 JUMP JUMPDEST DUP2 MSTORE PUSH1 0x20 ADD PUSH1 0x1 DUP3 ADD PUSH1 0x3 SWAP1 SLOAD SWAP1 PUSH2 0x100 EXP SWAP1 DIV PUSH1 0xFF AND PUSH1 0x2 DUP2 GT ISZERO PUSH2 0xB6F JUMPI PUSH2 0xB6F PUSH2 0x53A7 JUMP JUMPDEST PUSH1 0x2 DUP2 GT ISZERO PUSH2 0xB80 JUMPI PUSH2 0xB80 PUSH2 0x53A7 JUMP JUMPDEST DUP2 MSTORE POP POP DUP2 MSTORE PUSH1 0x20 ADD SWAP1 PUSH1 0x1 ADD SWAP1 PUSH2 0xADD JUMP JUMPDEST POP POP CALLER PUSH1 0x0 SWAP1 DUP2 MSTORE PUSH1 0x7 PUSH1 0x20 MSTORE PUSH1 0x40 DUP2 KECCAK256 PUSH1 0x3 ADD SLOAD SWAP4 SWAP5 POP SWAP2 POP POP JUMPDEST DUP2 DUP2 LT ISZERO PUSH2 0xC52 JUMPI DUP4 PUSH1 0x0 ADD CALLDATALOAD DUP4 DUP3 DUP2 MLOAD DUP2 LT PUSH2 0xBCE JUMPI PUSH2 0xBCE PUSH2 0x5BC4 JUMP JUMPDEST PUSH1 0x20 MUL PUSH1 0x20 ADD ADD MLOAD PUSH1 0x0 ADD MLOAD EQ ISZERO PUSH2 0xC40 JUMPI CALLER PUSH1 0x0 SWAP1 DUP2 MSTORE PUSH1 0x7 PUSH1 0x20 MSTORE PUSH1 0x40 SWAP1 KECCAK256 PUSH1 0x3 ADD DUP1 SLOAD PUSH1 0x1 SWAP2 SWAP1 DUP4 SWAP1 DUP2 LT PUSH2 0xC08 JUMPI PUSH2 0xC08 PUSH2 0x5BC4 JUMP JUMPDEST SWAP1 PUSH1 0x0 MSTORE PUSH1 0x20 PUSH1 0x0 KECCAK256 SWAP1 PUSH1 0x2 MUL ADD PUSH1 0x1 ADD PUSH1 0x3 PUSH2 0x100 EXP DUP2 SLOAD DUP2 PUSH1 0xFF MUL NOT AND SWAP1 DUP4 PUSH1 0x2 DUP2 GT ISZERO PUSH2 0xC3A JUMPI PUSH2 0xC3A PUSH2 0x53A7 JUMP JUMPDEST MUL OR SWAP1 SSTORE POP JUMPDEST DUP1 PUSH2 0xC4A DUP2 PUSH2 0x5BF0 JUMP JUMPDEST SWAP2 POP POP PUSH2 0xBAF JUMP JUMPDEST POP DUP3 CALLDATALOAD PUSH1 0x0 SWAP1 DUP2 MSTORE PUSH1 0xB PUSH1 0x20 SWAP1 DUP2 MSTORE PUSH1 0x40 DUP1 DUP4 KECCAK256 DUP1 SLOAD DUP3 MLOAD DUP2 DUP6 MUL DUP2 ADD DUP6 ADD SWAP1 SWAP4 MSTORE DUP1 DUP4 MSTORE SWAP2 SWAP3 SWAP1 SWAP2 SWAP1 DUP4 ADD DUP3 DUP3 DUP1 ISZERO PUSH2 0xCB5 JUMPI PUSH1 0x20 MUL DUP3 ADD SWAP2 SWAP1 PUSH1 0x0 MSTORE PUSH1 0x20 PUSH1 0x0 KECCAK256 SWAP1 JUMPDEST DUP2 SLOAD PUSH1 0x1 PUSH1 0x1 PUSH1 0xA0 SHL SUB AND DUP2 MSTORE PUSH1 0x1 SWAP1 SWAP2 ADD SWAP1 PUSH1 0x20 ADD DUP1 DUP4 GT PUSH2 0xC97 JUMPI JUMPDEST POP POP POP POP POP SWAP1 POP PUSH1 0x0 JUMPDEST DUP2 MLOAD DUP2 LT ISZERO PUSH2 0x11FC JUMPI DUP5 CALLDATALOAD PUSH1 0x0 SWAP1 DUP2 MSTORE PUSH1 0x9 PUSH1 0x20 MSTORE PUSH1 0x40 DUP2 KECCAK256 DUP4 MLOAD DUP3 SWAP1 DUP6 SWAP1 DUP6 SWAP1 DUP2 LT PUSH2 0xCEE JUMPI PUSH2 0xCEE PUSH2 0x5BC4 JUMP JUMPDEST PUSH1 0x20 MUL PUSH1 0x20 ADD ADD MLOAD PUSH1 0x1 PUSH1 0x1 PUSH1 0xA0 SHL SUB AND PUSH1 0x1 PUSH1 0x1 PUSH1 0xA0 SHL SUB AND DUP2 MSTORE PUSH1 0x20 ADD SWAP1 DUP2 MSTORE PUSH1 0x20 ADD PUSH1 0x0 KECCAK256 SLOAD SWAP1 POP PUSH1 0x5 DUP1 DUP2 GT ISZERO PUSH2 0xD2B JUMPI PUSH2 0xD2B PUSH2 0x53A7 JUMP JUMPDEST DUP4 DUP4 DUP2 MLOAD DUP2 LT PUSH2 0xD3D JUMPI PUSH2 0xD3D PUSH2 0x5BC4 JUMP JUMPDEST PUSH1 0x20 MUL PUSH1 0x20 ADD ADD MLOAD PUSH1 0x1 PUSH1 0x1 PUSH1 0xA0 SHL SUB AND DUP8 PUSH1 0x0 ADD CALLDATALOAD PUSH1 0x0 DUP1 MLOAD PUSH1 0x20 PUSH2 0x5F74 DUP4 CODECOPY DUP2 MLOAD SWAP2 MSTORE TIMESTAMP DUP6 PUSH1 0x40 MLOAD PUSH2 0xD84 SWAP3 SWAP2 SWAP1 PUSH5 0xFFFFFFFFFF SWAP3 SWAP1 SWAP3 AND DUP3 MSTORE PUSH1 0x20 DUP3 ADD MSTORE PUSH1 0x40 ADD SWAP1 JUMP JUMPDEST PUSH1 0x40 MLOAD DUP1 SWAP2 SUB SWAP1 LOG4 DUP6 CALLDATALOAD PUSH1 0x0 SWAP1 DUP2 MSTORE PUSH1 0x9 PUSH1 0x20 MSTORE PUSH1 0x40 DUP2 KECCAK256 DUP5 MLOAD SWAP1 SWAP2 SWAP1 DUP6 SWAP1 DUP6 SWAP1 DUP2 LT PUSH2 0xDB3 JUMPI PUSH2 0xDB3 PUSH2 0x5BC4 JUMP JUMPDEST PUSH1 0x20 MUL PUSH1 0x20 ADD ADD MLOAD PUSH1 0x1 PUSH1 0x1 PUSH1 0xA0 SHL SUB AND PUSH1 0x1 PUSH1 0x1 PUSH1 0xA0 SHL SUB AND DUP2 MSTORE PUSH1 0x20 ADD SWAP1 DUP2 MSTORE PUSH1 0x20 ADD PUSH1 0x0 KECCAK256 PUSH1 0x0 SWAP1 SSTORE DUP6 PUSH1 0x60 ADD PUSH1 0x20 DUP2 ADD SWAP1 PUSH2 0xDF2 SWAP2 SWAP1 PUSH2 0x5383 JUMP JUMPDEST PUSH1 0x1 PUSH1 0x1 PUSH1 0xA0 SHL SUB AND PUSH4 0xA9059CBB DUP5 DUP5 DUP2 MLOAD DUP2 LT PUSH2 0xE12 JUMPI PUSH2 0xE12 PUSH2 0x5BC4 JUMP JUMPDEST PUSH1 0x20 MUL PUSH1 0x20 ADD ADD MLOAD DUP4 PUSH1 0x40 MLOAD DUP4 PUSH4 0xFFFFFFFF AND PUSH1 0xE0 SHL DUP2 MSTORE PUSH1 0x4 ADD PUSH2 0xE4C SWAP3 SWAP2 SWAP1 PUSH1 0x1 PUSH1 0x1 PUSH1 0xA0 SHL SUB SWAP3 SWAP1 SWAP3 AND DUP3 MSTORE PUSH1 0x20 DUP3 ADD MSTORE PUSH1 0x40 ADD SWAP1 JUMP JUMPDEST PUSH1 0x20 PUSH1 0x40 MLOAD DUP1 DUP4 SUB DUP2 PUSH1 0x0 DUP8 DUP1 EXTCODESIZE ISZERO DUP1 ISZERO PUSH2 0xE66 JUMPI PUSH1 0x0 DUP1 REVERT JUMPDEST POP GAS CALL ISZERO DUP1 ISZERO PUSH2 0xE7A JUMPI RETURNDATASIZE PUSH1 0x0 DUP1 RETURNDATACOPY RETURNDATASIZE PUSH1 0x0 REVERT JUMPDEST POP POP POP POP PUSH1 0x40 MLOAD RETURNDATASIZE PUSH1 0x1F NOT PUSH1 0x1F DUP3 ADD AND DUP3 ADD DUP1 PUSH1 0x40 MSTORE POP DUP2 ADD SWAP1 PUSH2 0xE9E SWAP2 SWAP1 PUSH2 0x5C41 JUMP JUMPDEST PUSH2 0xECF JUMPI PUSH1 0x40 MLOAD PUSH3 0x461BCD PUSH1 0xE5 SHL DUP2 MSTORE PUSH1 0x20 PUSH1 0x4 DUP3 ADD MSTORE PUSH1 0x2 PUSH1 0x24 DUP3 ADD MSTORE PUSH2 0x3231 PUSH1 0xF0 SHL PUSH1 0x44 DUP3 ADD MSTORE PUSH1 0x64 ADD PUSH2 0x5E7 JUMP JUMPDEST PUSH1 0x0 PUSH1 0x7 PUSH1 0x0 DUP6 DUP6 DUP2 MLOAD DUP2 LT PUSH2 0xEE7 JUMPI PUSH2 0xEE7 PUSH2 0x5BC4 JUMP JUMPDEST PUSH1 0x20 MUL PUSH1 0x20 ADD ADD MLOAD PUSH1 0x1 PUSH1 0x1 PUSH1 0xA0 SHL SUB AND PUSH1 0x1 PUSH1 0x1 PUSH1 0xA0 SHL SUB AND DUP2 MSTORE PUSH1 0x20 ADD SWAP1 DUP2 MSTORE PUSH1 0x20 ADD PUSH1 0x0 KECCAK256 PUSH1 0x2 ADD DUP1 SLOAD SWAP1 POP PUSH8 0xFFFFFFFFFFFFFFFF DUP2 GT ISZERO PUSH2 0xF2E JUMPI PUSH2 0xF2E PUSH2 0x58E1 JUMP JUMPDEST PUSH1 0x40 MLOAD SWAP1 DUP1 DUP3 MSTORE DUP1 PUSH1 0x20 MUL PUSH1 0x20 ADD DUP3 ADD PUSH1 0x40 MSTORE DUP1 ISZERO PUSH2 0xF89 JUMPI DUP2 PUSH1 0x20 ADD JUMPDEST PUSH2 0xF76 PUSH1 0x40 DUP1 MLOAD PUSH1 0x80 DUP2 ADD DUP3 MSTORE PUSH1 0x0 DUP1 DUP3 MSTORE PUSH1 0x20 DUP3 ADD DUP2 SWAP1 MSTORE SWAP1 SWAP2 DUP3 ADD SWAP1 DUP2 MSTORE PUSH1 0x20 ADD PUSH1 0x0 SWAP1 MSTORE SWAP1 JUMP JUMPDEST DUP2 MSTORE PUSH1 0x20 ADD SWAP1 PUSH1 0x1 SWAP1 SUB SWAP1 DUP2 PUSH2 0xF4C JUMPI SWAP1 POP JUMPDEST POP SWAP1 POP PUSH1 0x7 PUSH1 0x0 DUP6 DUP6 DUP2 MLOAD DUP2 LT PUSH2 0xFA2 JUMPI PUSH2 0xFA2 PUSH2 0x5BC4 JUMP JUMPDEST PUSH1 0x20 MUL PUSH1 0x20 ADD ADD MLOAD PUSH1 0x1 PUSH1 0x1 PUSH1 0xA0 SHL SUB AND PUSH1 0x1 PUSH1 0x1 PUSH1 0xA0 SHL SUB AND DUP2 MSTORE PUSH1 0x20 ADD SWAP1 DUP2 MSTORE PUSH1 0x20 ADD PUSH1 0x0 KECCAK256 PUSH1 0x2 ADD DUP1 SLOAD DUP1 PUSH1 0x20 MUL PUSH1 0x20 ADD PUSH1 0x40 MLOAD SWAP1 DUP2 ADD PUSH1 0x40 MSTORE DUP1 SWAP3 SWAP2 SWAP1 DUP2 DUP2 MSTORE PUSH1 0x20 ADD PUSH1 0x0 SWAP1 JUMPDEST DUP3 DUP3 LT ISZERO PUSH2 0x10A3 JUMPI PUSH1 0x0 DUP5 DUP2 MSTORE PUSH1 0x20 SWAP1 DUP2 SWAP1 KECCAK256 PUSH1 0x40 DUP1 MLOAD PUSH1 0x80 DUP2 ADD DUP3 MSTORE PUSH1 0x2 DUP7 MUL SWAP1 SWAP3 ADD DUP1 SLOAD DUP4 MSTORE PUSH1 0x1 DUP2 ADD SLOAD PUSH2 0xFFFF DUP2 AND SWAP5 DUP5 ADD SWAP5 SWAP1 SWAP5 MSTORE SWAP2 SWAP3 SWAP1 DUP4 ADD SWAP1 PUSH3 0x10000 SWAP1 DIV PUSH1 0xFF AND PUSH1 0x3 DUP2 GT ISZERO PUSH2 0x1046 JUMPI PUSH2 0x1046 PUSH2 0x53A7 JUMP JUMPDEST PUSH1 0x3 DUP2 GT ISZERO PUSH2 0x1057 JUMPI PUSH2 0x1057 PUSH2 0x53A7 JUMP JUMPDEST DUP2 MSTORE PUSH1 0x20 ADD PUSH1 0x1 DUP3 ADD PUSH1 0x3 SWAP1 SLOAD SWAP1 PUSH2 0x100 EXP SWAP1 DIV PUSH1 0xFF AND PUSH1 0x2 DUP2 GT ISZERO PUSH2 0x107F JUMPI PUSH2 0x107F PUSH2 0x53A7 JUMP JUMPDEST PUSH1 0x2 DUP2 GT ISZERO PUSH2 0x1090 JUMPI PUSH2 0x1090 PUSH2 0x53A7 JUMP JUMPDEST DUP2 MSTORE POP POP DUP2 MSTORE PUSH1 0x20 ADD SWAP1 PUSH1 0x1 ADD SWAP1 PUSH2 0xFED JUMP JUMPDEST POP POP POP POP SWAP1 POP PUSH1 0x0 JUMPDEST PUSH1 0x7 PUSH1 0x0 DUP7 DUP7 DUP2 MLOAD DUP2 LT PUSH2 0x10C2 JUMPI PUSH2 0x10C2 PUSH2 0x5BC4 JUMP JUMPDEST PUSH1 0x20 MUL PUSH1 0x20 ADD ADD MLOAD PUSH1 0x1 PUSH1 0x1 PUSH1 0xA0 SHL SUB AND PUSH1 0x1 PUSH1 0x1 PUSH1 0xA0 SHL SUB AND DUP2 MSTORE PUSH1 0x20 ADD SWAP1 DUP2 MSTORE PUSH1 0x20 ADD PUSH1 0x0 KECCAK256 PUSH1 0x2 ADD DUP1 SLOAD SWAP1 POP DUP2 LT ISZERO PUSH2 0x11BF JUMPI DUP8 PUSH1 0x0 ADD CALLDATALOAD DUP3 DUP3 DUP2 MLOAD DUP2 LT PUSH2 0x110F JUMPI PUSH2 0x110F PUSH2 0x5BC4 JUMP JUMPDEST PUSH1 0x20 MUL PUSH1 0x20 ADD ADD MLOAD PUSH1 0x0 ADD MLOAD EQ ISZERO PUSH2 0x11AD JUMPI PUSH1 0x1 PUSH1 0x7 PUSH1 0x0 DUP8 DUP8 DUP2 MLOAD DUP2 LT PUSH2 0x1139 JUMPI PUSH2 0x1139 PUSH2 0x5BC4 JUMP JUMPDEST PUSH1 0x20 MUL PUSH1 0x20 ADD ADD MLOAD PUSH1 0x1 PUSH1 0x1 PUSH1 0xA0 SHL SUB AND PUSH1 0x1 PUSH1 0x1 PUSH1 0xA0 SHL SUB AND DUP2 MSTORE PUSH1 0x20 ADD SWAP1 DUP2 MSTORE PUSH1 0x20 ADD PUSH1 0x0 KECCAK256 PUSH1 0x2 ADD DUP3 DUP2 SLOAD DUP2 LT PUSH2 0x1175 JUMPI PUSH2 0x1175 PUSH2 0x5BC4 JUMP JUMPDEST SWAP1 PUSH1 0x0 MSTORE PUSH1 0x20 PUSH1 0x0 KECCAK256 SWAP1 PUSH1 0x2 MUL ADD PUSH1 0x1 ADD PUSH1 0x3 PUSH2 0x100 EXP DUP2 SLOAD DUP2 PUSH1 0xFF MUL NOT AND SWAP1 DUP4 PUSH1 0x2 DUP2 GT ISZERO PUSH2 0x11A7 JUMPI PUSH2 0x11A7 PUSH2 0x53A7 JUMP JUMPDEST MUL OR SWAP1 SSTORE POP JUMPDEST DUP1 PUSH2 0x11B7 DUP2 PUSH2 0x5BF0 JUMP JUMPDEST SWAP2 POP POP PUSH2 0x10AC JUMP JUMPDEST POP PUSH2 0x11E7 DUP8 PUSH1 0x0 ADD CALLDATALOAD DUP6 DUP6 DUP2 MLOAD DUP2 LT PUSH2 0x11DA JUMPI PUSH2 0x11DA PUSH2 0x5BC4 JUMP JUMPDEST PUSH1 0x20 MUL PUSH1 0x20 ADD ADD MLOAD PUSH2 0x4C55 JUMP JUMPDEST POP POP DUP1 DUP1 PUSH2 0x11F4 SWAP1 PUSH2 0x5BF0 JUMP JUMPDEST SWAP2 POP POP PUSH2 0xCBF JUMP JUMPDEST POP PUSH1 0x0 PUSH1 0xA DUP2 PUSH2 0x1212 PUSH1 0xE0 DUP9 ADD PUSH1 0xC0 DUP10 ADD PUSH2 0x5C26 JUMP JUMPDEST PUSH1 0x3 DUP2 GT ISZERO PUSH2 0x1223 JUMPI PUSH2 0x1223 PUSH2 0x53A7 JUMP JUMPDEST DUP2 MSTORE PUSH1 0x20 ADD SWAP1 DUP2 MSTORE PUSH1 0x20 ADD PUSH1 0x0 KECCAK256 PUSH1 0x0 DUP7 PUSH1 0xE0 ADD PUSH1 0x20 DUP2 ADD SWAP1 PUSH2 0x1246 SWAP2 SWAP1 PUSH2 0x5C0B JUMP JUMPDEST PUSH2 0xFFFF AND PUSH2 0xFFFF AND DUP2 MSTORE PUSH1 0x20 ADD SWAP1 DUP2 MSTORE PUSH1 0x20 ADD PUSH1 0x0 KECCAK256 DUP1 SLOAD DUP1 PUSH1 0x20 MUL PUSH1 0x20 ADD PUSH1 0x40 MLOAD SWAP1 DUP2 ADD PUSH1 0x40 MSTORE DUP1 SWAP3 SWAP2 SWAP1 DUP2 DUP2 MSTORE PUSH1 0x20 ADD PUSH1 0x0 SWAP1 JUMPDEST DUP3 DUP3 LT ISZERO PUSH2 0x13E6 JUMPI PUSH1 0x0 DUP5 DUP2 MSTORE PUSH1 0x20 SWAP1 DUP2 SWAP1 KECCAK256 PUSH1 0x40 DUP1 MLOAD PUSH2 0x120 DUP2 ADD DUP3 MSTORE PUSH1 0x5 DUP7 MUL SWAP1 SWAP3 ADD DUP1 SLOAD DUP4 MSTORE PUSH1 0x1 DUP2 ADD SLOAD SWAP4 DUP4 ADD SWAP4 SWAP1 SWAP4 MSTORE PUSH1 0x2 DUP4 ADD SLOAD PUSH1 0x1 PUSH1 0x1 PUSH1 0xA0 SHL SUB SWAP1 DUP2 AND SWAP2 DUP4 ADD SWAP2 SWAP1 SWAP2 MSTORE PUSH1 0x3 DUP1 DUP5 ADD SLOAD SWAP2 DUP3 AND PUSH1 0x60 DUP5 ADD MSTORE PUSH1 0xFF PUSH1 0x1 PUSH1 0xA0 SHL DUP4 DIV DUP2 AND ISZERO ISZERO PUSH1 0x80 DUP6 ADD MSTORE PUSH1 0x1 PUSH1 0xA8 SHL DUP4 DIV DUP2 AND ISZERO ISZERO PUSH1 0xA0 DUP6 ADD MSTORE SWAP3 SWAP4 SWAP3 PUSH1 0xC0 DUP6 ADD SWAP3 PUSH1 0x1 PUSH1 0xB0 SHL SWAP1 DIV AND SWAP1 DUP2 GT ISZERO PUSH2 0x1318 JUMPI PUSH2 0x1318 PUSH2 0x53A7 JUMP JUMPDEST PUSH1 0x3 DUP2 GT ISZERO PUSH2 0x1329 JUMPI PUSH2 0x1329 PUSH2 0x53A7 JUMP JUMPDEST DUP2 MSTORE PUSH1 0x3 DUP3 ADD SLOAD PUSH1 0x1 PUSH1 0xB8 SHL SWAP1 DIV PUSH2 0xFFFF AND PUSH1 0x20 DUP3 ADD MSTORE PUSH1 0x4 DUP3 ADD DUP1 SLOAD PUSH1 0x40 SWAP1 SWAP3 ADD SWAP2 PUSH2 0x1355 SWAP1 PUSH2 0x5C5E JUMP JUMPDEST DUP1 PUSH1 0x1F ADD PUSH1 0x20 DUP1 SWAP2 DIV MUL PUSH1 0x20 ADD PUSH1 0x40 MLOAD SWAP1 DUP2 ADD PUSH1 0x40 MSTORE DUP1 SWAP3 SWAP2 SWAP1 DUP2 DUP2 MSTORE PUSH1 0x20 ADD DUP3 DUP1 SLOAD PUSH2 0x1381 SWAP1 PUSH2 0x5C5E JUMP JUMPDEST DUP1 ISZERO PUSH2 0x13CE JUMPI DUP1 PUSH1 0x1F LT PUSH2 0x13A3 JUMPI PUSH2 0x100 DUP1 DUP4 SLOAD DIV MUL DUP4 MSTORE SWAP2 PUSH1 0x20 ADD SWAP2 PUSH2 0x13CE JUMP JUMPDEST DUP3 ADD SWAP2 SWAP1 PUSH1 0x0 MSTORE PUSH1 0x20 PUSH1 0x0 KECCAK256 SWAP1 JUMPDEST DUP2 SLOAD DUP2 MSTORE SWAP1 PUSH1 0x1 ADD SWAP1 PUSH1 0x20 ADD DUP1 DUP4 GT PUSH2 0x13B1 JUMPI DUP3 SWAP1 SUB PUSH1 0x1F AND DUP3 ADD SWAP2 JUMPDEST POP POP POP POP POP DUP2 MSTORE POP POP DUP2 MSTORE PUSH1 0x20 ADD SWAP1 PUSH1 0x1 ADD SWAP1 PUSH2 0x127C JUMP JUMPDEST POP POP POP POP SWAP1 POP PUSH1 0x0 JUMPDEST DUP2 MLOAD DUP2 LT ISZERO PUSH2 0x14CD JUMPI DUP6 PUSH1 0x0 ADD CALLDATALOAD DUP3 DUP3 DUP2 MLOAD DUP2 LT PUSH2 0x140F JUMPI PUSH2 0x140F PUSH2 0x5BC4 JUMP JUMPDEST PUSH1 0x20 MUL PUSH1 0x20 ADD ADD MLOAD PUSH1 0x0 ADD MLOAD EQ ISZERO PUSH2 0x14BB JUMPI PUSH1 0x1 PUSH1 0xA PUSH1 0x0 PUSH2 0x1437 PUSH1 0xE0 DUP11 ADD PUSH1 0xC0 DUP12 ADD PUSH2 0x5C26 JUMP JUMPDEST PUSH1 0x3 DUP2 GT ISZERO PUSH2 0x1448 JUMPI PUSH2 0x1448 PUSH2 0x53A7 JUMP JUMPDEST DUP2 MSTORE PUSH1 0x20 ADD SWAP1 DUP2 MSTORE PUSH1 0x20 ADD PUSH1 0x0 KECCAK256 PUSH1 0x0 DUP9 PUSH1 0xE0 ADD PUSH1 0x20 DUP2 ADD SWAP1 PUSH2 0x146B SWAP2 SWAP1 PUSH2 0x5C0B JUMP JUMPDEST PUSH2 0xFFFF AND PUSH2 0xFFFF AND DUP2 MSTORE PUSH1 0x20 ADD SWAP1 DUP2 MSTORE PUSH1 0x20 ADD PUSH1 0x0 KECCAK256 DUP3 DUP2 SLOAD DUP2 LT PUSH2 0x1492 JUMPI PUSH2 0x1492 PUSH2 0x5BC4 JUMP JUMPDEST SWAP1 PUSH1 0x0 MSTORE PUSH1 0x20 PUSH1 0x0 KECCAK256 SWAP1 PUSH1 0x5 MUL ADD PUSH1 0x3 ADD PUSH1 0x15 PUSH2 0x100 EXP DUP2 SLOAD DUP2 PUSH1 0xFF MUL NOT AND SWAP1 DUP4 ISZERO ISZERO MUL OR SWAP1 SSTORE POP JUMPDEST DUP1 PUSH2 0x14C5 DUP2 PUSH2 0x5BF0 JUMP JUMPDEST SWAP2 POP POP PUSH2 0x13EF JUMP JUMPDEST POP PUSH1 0x1 PUSH1 0x40 DUP1 MLOAD PUSH5 0xFFFFFFFFFF TIMESTAMP AND DUP2 MSTORE PUSH1 0x0 PUSH1 0x20 DUP3 ADD MSTORE CALLER SWAP2 DUP9 CALLDATALOAD SWAP2 PUSH32 0xFCB91FD98787D64BDBA700BB305716E8B6CEBEEF9927C71B19ED9B0AB1B892B0 SWAP2 ADD PUSH1 0x40 MLOAD DUP1 SWAP2 SUB SWAP1 LOG4 POP POP POP POP POP JUMP JUMPDEST PUSH2 0x1524 PUSH2 0x4B1E JUMP JUMPDEST PUSH1 0x1 SSTORE JUMP JUMPDEST PUSH2 0x1531 PUSH2 0x4B1E JUMP JUMPDEST PUSH1 0x2 SSTORE JUMP JUMPDEST PUSH2 0x1585 PUSH1 0x40 DUP1 MLOAD PUSH2 0x120 DUP2 ADD DUP3 MSTORE PUSH1 0x0 DUP1 DUP3 MSTORE PUSH1 0x20 DUP3 ADD DUP2 SWAP1 MSTORE SWAP2 DUP2 ADD DUP3 SWAP1 MSTORE PUSH1 0x60 DUP2 ADD DUP3 SWAP1 MSTORE PUSH1 0x80 DUP2 ADD DUP3 SWAP1 MSTORE PUSH1 0xA0 DUP2 ADD DUP3 SWAP1 MSTORE SWAP1 PUSH1 0xC0 DUP3 ADD SWAP1 DUP2 MSTORE PUSH1 0x0 PUSH1 0x20 DUP3 ADD MSTORE PUSH1 0x60 PUSH1 0x40 SWAP1 SWAP2 ADD MSTORE SWAP1 JUMP JUMPDEST PUSH1 0x0 PUSH1 0xA PUSH1 0x0 DUP6 PUSH1 0x3 DUP2 GT ISZERO PUSH2 0x159D JUMPI PUSH2 0x159D PUSH2 0x53A7 JUMP JUMPDEST DUP2 MSTORE PUSH1 0x20 ADD SWAP1 DUP2 MSTORE PUSH1 0x20 ADD PUSH1 0x0 KECCAK256 PUSH1 0x0 DUP5 PUSH2 0xFFFF AND PUSH2 0xFFFF AND DUP2 MSTORE PUSH1 0x20 ADD SWAP1 DUP2 MSTORE PUSH1 0x20 ADD PUSH1 0x0 KECCAK256 DUP1 SLOAD DUP1 PUSH1 0x20 MUL PUSH1 0x20 ADD PUSH1 0x40 MLOAD SWAP1 DUP2 ADD PUSH1 0x40 MSTORE DUP1 SWAP3 SWAP2 SWAP1 DUP2 DUP2 MSTORE PUSH1 0x20 ADD PUSH1 0x0 SWAP1 JUMPDEST DUP3 DUP3 LT ISZERO PUSH2 0x174E JUMPI PUSH1 0x0 DUP5 DUP2 MSTORE PUSH1 0x20 SWAP1 DUP2 SWAP1 KECCAK256 PUSH1 0x40 DUP1 MLOAD PUSH2 0x120 DUP2 ADD DUP3 MSTORE PUSH1 0x5 DUP7 MUL SWAP1 SWAP3 ADD DUP1 SLOAD DUP4 MSTORE PUSH1 0x1 DUP2 ADD SLOAD SWAP4 DUP4 ADD SWAP4 SWAP1 SWAP4 MSTORE PUSH1 0x2 DUP4 ADD SLOAD PUSH1 0x1 PUSH1 0x1 PUSH1 0xA0 SHL SUB SWAP1 DUP2 AND SWAP2 DUP4 ADD SWAP2 SWAP1 SWAP2 MSTORE PUSH1 0x3 DUP1 DUP5 ADD SLOAD SWAP2 DUP3 AND PUSH1 0x60 DUP5 ADD MSTORE PUSH1 0xFF PUSH1 0x1 PUSH1 0xA0 SHL DUP4 DIV DUP2 AND ISZERO ISZERO PUSH1 0x80 DUP6 ADD MSTORE PUSH1 0x1 PUSH1 0xA8 SHL DUP4 DIV DUP2 AND ISZERO ISZERO PUSH1 0xA0 DUP6 ADD MSTORE SWAP3 SWAP4 SWAP3 PUSH1 0xC0 DUP6 ADD SWAP3 PUSH1 0x1 PUSH1 0xB0 SHL SWAP1 DIV AND SWAP1 DUP2 GT ISZERO PUSH2 0x1680 JUMPI PUSH2 0x1680 PUSH2 0x53A7 JUMP JUMPDEST PUSH1 0x3 DUP2 GT ISZERO PUSH2 0x1691 JUMPI PUSH2 0x1691 PUSH2 0x53A7 JUMP JUMPDEST DUP2 MSTORE PUSH1 0x3 DUP3 ADD SLOAD PUSH1 0x1 PUSH1 0xB8 SHL SWAP1 DIV PUSH2 0xFFFF AND PUSH1 0x20 DUP3 ADD MSTORE PUSH1 0x4 DUP3 ADD DUP1 SLOAD PUSH1 0x40 SWAP1 SWAP3 ADD SWAP2 PUSH2 0x16BD SWAP1 PUSH2 0x5C5E JUMP JUMPDEST DUP1 PUSH1 0x1F ADD PUSH1 0x20 DUP1 SWAP2 DIV MUL PUSH1 0x20 ADD PUSH1 0x40 MLOAD SWAP1 DUP2 ADD PUSH1 0x40 MSTORE DUP1 SWAP3 SWAP2 SWAP1 DUP2 DUP2 MSTORE PUSH1 0x20 ADD DUP3 DUP1 SLOAD PUSH2 0x16E9 SWAP1 PUSH2 0x5C5E JUMP JUMPDEST DUP1 ISZERO PUSH2 0x1736 JUMPI DUP1 PUSH1 0x1F LT PUSH2 0x170B JUMPI PUSH2 0x100 DUP1 DUP4 SLOAD DIV MUL DUP4 MSTORE SWAP2 PUSH1 0x20 ADD SWAP2 PUSH2 0x1736 JUMP JUMPDEST DUP3 ADD SWAP2 SWAP1 PUSH1 0x0 MSTORE PUSH1 0x20 PUSH1 0x0 KECCAK256 SWAP1 JUMPDEST DUP2 SLOAD DUP2 MSTORE SWAP1 PUSH1 0x1 ADD SWAP1 PUSH1 0x20 ADD DUP1 DUP4 GT PUSH2 0x1719 JUMPI DUP3 SWAP1 SUB PUSH1 0x1F AND DUP3 ADD SWAP2 JUMPDEST POP POP POP POP POP DUP2 MSTORE POP POP DUP2 MSTORE PUSH1 0x20 ADD SWAP1 PUSH1 0x1 ADD SWAP1 PUSH2 0x15E4 JUMP JUMPDEST POP POP POP POP SWAP1 POP PUSH1 0x0 JUMPDEST DUP2 MLOAD DUP2 LT ISZERO PUSH2 0x17B4 JUMPI DUP6 DUP3 DUP3 DUP2 MLOAD DUP2 LT PUSH2 0x1773 JUMPI PUSH2 0x1773 PUSH2 0x5BC4 JUMP JUMPDEST PUSH1 0x20 MUL PUSH1 0x20 ADD ADD MLOAD PUSH1 0x0 ADD MLOAD EQ ISZERO PUSH2 0x17A2 JUMPI DUP2 DUP2 DUP2 MLOAD DUP2 LT PUSH2 0x1797 JUMPI PUSH2 0x1797 PUSH2 0x5BC4 JUMP JUMPDEST PUSH1 0x20 MUL PUSH1 0x20 ADD ADD MLOAD SWAP3 POP JUMPDEST DUP1 PUSH2 0x17AC DUP2 PUSH2 0x5BF0 JUMP JUMPDEST SWAP2 POP POP PUSH2 0x1757 JUMP JUMPDEST POP POP SWAP4 SWAP3 POP POP POP JUMP JUMPDEST PUSH2 0x17C5 PUSH2 0x4B99 JUMP JUMPDEST PUSH1 0x1 PUSH1 0x1 PUSH1 0xA0 SHL SUB DUP6 AND PUSH2 0x17FF JUMPI PUSH1 0x40 MLOAD PUSH3 0x461BCD PUSH1 0xE5 SHL DUP2 MSTORE PUSH1 0x20 PUSH1 0x4 DUP3 ADD MSTORE PUSH1 0x1 PUSH1 0x24 DUP3 ADD MSTORE PUSH1 0x7 PUSH1 0xFB SHL PUSH1 0x44 DUP3 ADD MSTORE PUSH1 0x64 ADD PUSH2 0x5E7 JUMP JUMPDEST PUSH1 0x6 SLOAD PUSH1 0x1 PUSH1 0xD8 SHL SWAP1 DIV PUSH1 0xFF AND ISZERO PUSH2 0x1847 JUMPI CALLVALUE PUSH1 0x1 SLOAD GT ISZERO PUSH2 0x1847 JUMPI PUSH1 0x40 MLOAD PUSH3 0x461BCD PUSH1 0xE5 SHL DUP2 MSTORE PUSH1 0x20 PUSH1 0x4 DUP3 ADD MSTORE PUSH1 0x1 PUSH1 0x24 DUP3 ADD MSTORE PUSH1 0x35 PUSH1 0xF8 SHL PUSH1 0x44 DUP3 ADD MSTORE PUSH1 0x64 ADD PUSH2 0x5E7 JUMP JUMPDEST PUSH2 0x1850 DUP6 PUSH2 0x4B67 JUMP JUMPDEST PUSH2 0x1880 JUMPI PUSH1 0x40 MLOAD PUSH3 0x461BCD PUSH1 0xE5 SHL DUP2 MSTORE PUSH1 0x20 PUSH1 0x4 DUP3 ADD MSTORE PUSH1 0x1 PUSH1 0x24 DUP3 ADD MSTORE PUSH1 0x39 PUSH1 0xF8 SHL PUSH1 0x44 DUP3 ADD MSTORE PUSH1 0x64 ADD PUSH2 0x5E7 JUMP JUMPDEST PUSH1 0x20 DUP4 GT ISZERO PUSH2 0x18B6 JUMPI PUSH1 0x40 MLOAD PUSH3 0x461BCD PUSH1 0xE5 SHL DUP2 MSTORE PUSH1 0x20 PUSH1 0x4 DUP3 ADD MSTORE PUSH1 0x2 PUSH1 0x24 DUP3 ADD MSTORE PUSH2 0x3235 PUSH1 0xF0 SHL PUSH1 0x44 DUP3 ADD MSTORE PUSH1 0x64 ADD PUSH2 0x5E7 JUMP JUMPDEST PUSH1 0x0 DUP3 PUSH1 0x3 DUP2 GT ISZERO PUSH2 0x18CA JUMPI PUSH2 0x18CA PUSH2 0x53A7 JUMP JUMPDEST EQ ISZERO PUSH2 0x191A JUMPI DUP1 PUSH2 0xFFFF AND PUSH1 0x0 LT DUP1 ISZERO PUSH2 0x18E9 JUMPI POP PUSH1 0x7 DUP2 PUSH2 0xFFFF AND GT ISZERO JUMPDEST PUSH2 0x191A JUMPI PUSH1 0x40 MLOAD PUSH3 0x461BCD PUSH1 0xE5 SHL DUP2 MSTORE PUSH1 0x20 PUSH1 0x4 DUP3 ADD MSTORE PUSH1 0x2 PUSH1 0x24 DUP3 ADD MSTORE PUSH2 0x191B PUSH1 0xF1 SHL PUSH1 0x44 DUP3 ADD MSTORE PUSH1 0x64 ADD PUSH2 0x5E7 JUMP JUMPDEST PUSH1 0x1 DUP3 PUSH1 0x3 DUP2 GT ISZERO PUSH2 0x192E JUMPI PUSH2 0x192E PUSH2 0x53A7 JUMP JUMPDEST EQ ISZERO PUSH2 0x197E JUMPI DUP1 PUSH2 0xFFFF AND PUSH1 0x0 LT DUP1 ISZERO PUSH2 0x194D JUMPI POP PUSH1 0x1C DUP2 PUSH2 0xFFFF AND GT ISZERO JUMPDEST PUSH2 0x197E JUMPI PUSH1 0x40 MLOAD PUSH3 0x461BCD PUSH1 0xE5 SHL DUP2 MSTORE PUSH1 0x20 PUSH1 0x4 DUP3 ADD MSTORE PUSH1 0x2 PUSH1 0x24 DUP3 ADD MSTORE PUSH2 0x3237 PUSH1 0xF0 SHL PUSH1 0x44 DUP3 ADD MSTORE PUSH1 0x64 ADD PUSH2 0x5E7 JUMP JUMPDEST PUSH1 0x2 DUP3 PUSH1 0x3 DUP2 GT ISZERO PUSH2 0x1992 JUMPI PUSH2 0x1992 PUSH2 0x53A7 JUMP JUMPDEST EQ ISZERO PUSH2 0x19E2 JUMPI DUP1 PUSH2 0xFFFF AND PUSH1 0x0 LT DUP1 ISZERO PUSH2 0x19B1 JUMPI POP PUSH1 0x5A DUP2 PUSH2 0xFFFF AND GT ISZERO JUMPDEST PUSH2 0x19E2 JUMPI PUSH1 0x40 MLOAD PUSH3 0x461BCD PUSH1 0xE5 SHL DUP2 MSTORE PUSH1 0x20 PUSH1 0x4 DUP3 ADD MSTORE PUSH1 0x2 PUSH1 0x24 DUP3 ADD MSTORE PUSH2 0x647 PUSH1 0xF3 SHL PUSH1 0x44 DUP3 ADD MSTORE PUSH1 0x64 ADD PUSH2 0x5E7 JUMP JUMPDEST PUSH1 0x3 DUP3 PUSH1 0x3 DUP2 GT ISZERO PUSH2 0x19F6 JUMPI PUSH2 0x19F6 PUSH2 0x53A7 JUMP JUMPDEST EQ ISZERO PUSH2 0x1A47 JUMPI DUP1 PUSH2 0xFFFF AND PUSH1 0x0 LT DUP1 ISZERO PUSH2 0x1A16 JUMPI POP PUSH2 0x16D DUP2 PUSH2 0xFFFF AND GT ISZERO JUMPDEST PUSH2 0x1A47 JUMPI PUSH1 0x40 MLOAD PUSH3 0x461BCD PUSH1 0xE5 SHL DUP2 MSTORE PUSH1 0x20 PUSH1 0x4 DUP3 ADD MSTORE PUSH1 0x2 PUSH1 0x24 DUP3 ADD MSTORE PUSH2 0x3239 PUSH1 0xF0 SHL PUSH1 0x44 DUP3 ADD MSTORE PUSH1 0x64 ADD PUSH2 0x5E7 JUMP JUMPDEST PUSH1 0x1 PUSH1 0x1 PUSH1 0xA0 SHL SUB DUP6 AND PUSH1 0x0 SWAP1 DUP2 MSTORE PUSH1 0x5 PUSH1 0x20 MSTORE PUSH1 0x40 SWAP1 KECCAK256 PUSH1 0x1 ADD SLOAD DUP7 LT ISZERO PUSH2 0x1A97 JUMPI PUSH1 0x40 MLOAD PUSH3 0x461BCD PUSH1 0xE5 SHL DUP2 MSTORE PUSH1 0x20 PUSH1 0x4 DUP3 ADD MSTORE PUSH1 0x2 PUSH1 0x24 DUP3 ADD MSTORE PUSH2 0x333 PUSH1 0xF4 SHL PUSH1 0x44 DUP3 ADD MSTORE PUSH1 0x64 ADD PUSH2 0x5E7 JUMP JUMPDEST PUSH1 0x0 PUSH2 0x1ADE DUP8 DUP8 DUP8 DUP8 DUP1 DUP1 PUSH1 0x1F ADD PUSH1 0x20 DUP1 SWAP2 DIV MUL PUSH1 0x20 ADD PUSH1 0x40 MLOAD SWAP1 DUP2 ADD PUSH1 0x40 MSTORE DUP1 SWAP4 SWAP3 SWAP2 SWAP1 DUP2 DUP2 MSTORE PUSH1 0x20 ADD DUP4 DUP4 DUP1 DUP3 DUP5 CALLDATACOPY PUSH1 0x0 SWAP3 ADD SWAP2 SWAP1 SWAP2 MSTORE POP DUP10 SWAP3 POP DUP9 SWAP2 POP PUSH2 0x4DA6 SWAP1 POP JUMP JUMPDEST SWAP1 POP DUP1 PUSH1 0xA PUSH1 0x0 DUP6 PUSH1 0x3 DUP2 GT ISZERO PUSH2 0x1AF7 JUMPI PUSH2 0x1AF7 PUSH2 0x53A7 JUMP JUMPDEST DUP2 MSTORE PUSH1 0x20 DUP1 DUP3 ADD SWAP3 SWAP1 SWAP3 MSTORE PUSH1 0x40 SWAP1 DUP2 ADD PUSH1 0x0 SWAP1 DUP2 KECCAK256 PUSH2 0xFFFF DUP8 AND DUP3 MSTORE DUP4 MSTORE DUP2 DUP2 KECCAK256 DUP1 SLOAD PUSH1 0x1 DUP2 DUP2 ADD DUP4 SSTORE SWAP2 DUP4 MSTORE SWAP2 DUP5 SWAP1 KECCAK256 DUP6 MLOAD PUSH1 0x5 SWAP1 SWAP4 MUL ADD SWAP2 DUP3 SSTORE SWAP3 DUP5 ADD MLOAD SWAP3 DUP2 ADD SWAP3 SWAP1 SWAP3 SSTORE DUP3 ADD MLOAD PUSH1 0x2 DUP3 ADD DUP1 SLOAD PUSH1 0x1 PUSH1 0x1 PUSH1 0xA0 SHL SUB SWAP3 DUP4 AND PUSH1 0x1 PUSH1 0x1 PUSH1 0xA0 SHL SUB NOT SWAP1 SWAP2 AND OR SWAP1 SSTORE PUSH1 0x60 DUP4 ADD MLOAD PUSH1 0x3 DUP1 DUP5 ADD DUP1 SLOAD PUSH1 0x80 DUP8 ADD MLOAD PUSH1 0xA0 DUP9 ADD MLOAD ISZERO ISZERO PUSH1 0x1 PUSH1 0xA8 SHL MUL PUSH1 0xFF PUSH1 0xA8 SHL NOT SWAP2 ISZERO ISZERO PUSH1 0x1 PUSH1 0xA0 SHL MUL PUSH21 0xFFFFFFFFFFFFFFFFFFFFFFFFFFFFFFFFFFFFFFFFFF NOT SWAP1 SWAP4 AND SWAP6 SWAP1 SWAP7 AND SWAP5 SWAP1 SWAP5 OR OR SWAP3 DUP4 AND DUP5 OR DUP2 SSTORE PUSH1 0xC0 DUP7 ADD MLOAD SWAP4 SWAP1 SWAP3 PUSH1 0xFF PUSH1 0xB0 SHL NOT SWAP1 SWAP2 AND PUSH2 0xFFFF PUSH1 0xA8 SHL NOT SWAP1 SWAP2 AND OR SWAP1 PUSH1 0x1 PUSH1 0xB0 SHL SWAP1 DUP5 SWAP1 DUP2 GT ISZERO PUSH2 0x1BEC JUMPI PUSH2 0x1BEC PUSH2 0x53A7 JUMP JUMPDEST MUL OR SWAP1 SSTORE POP PUSH1 0xE0 DUP3 ADD MLOAD PUSH1 0x3 DUP3 ADD DUP1 SLOAD PUSH2 0xFFFF SWAP1 SWAP3 AND PUSH1 0x1 PUSH1 0xB8 SHL MUL PUSH2 0xFFFF PUSH1 0xB8 SHL NOT SWAP1 SWAP3 AND SWAP2 SWAP1 SWAP2 OR SWAP1 SSTORE PUSH2 0x100 DUP3 ADD MLOAD DUP1 MLOAD PUSH2 0x1C34 SWAP2 PUSH1 0x4 DUP5 ADD SWAP2 PUSH1 0x20 SWAP1 SWAP2 ADD SWAP1 PUSH2 0x52C5 JUMP JUMPDEST POP SWAP1 POP POP PUSH2 0x1C84 PUSH1 0x40 MLOAD DUP1 PUSH1 0x80 ADD PUSH1 0x40 MSTORE DUP1 DUP4 PUSH1 0x0 ADD MLOAD DUP2 MSTORE PUSH1 0x20 ADD DUP4 PUSH1 0xE0 ADD MLOAD PUSH2 0xFFFF AND DUP2 MSTORE PUSH1 0x20 ADD DUP4 PUSH1 0xC0 ADD MLOAD PUSH1 0x3 DUP2 GT ISZERO PUSH2 0x1C74 JUMPI PUSH2 0x1C74 PUSH2 0x53A7 JUMP JUMPDEST DUP2 MSTORE PUSH1 0x20 ADD PUSH1 0x0 SWAP1 MSTORE PUSH1 0x1 PUSH2 0x4E94 JUMP JUMPDEST PUSH1 0x0 DUP2 MLOAD PUSH1 0x40 DUP1 MLOAD PUSH5 0xFFFFFFFFFF TIMESTAMP AND DUP2 MSTORE PUSH1 0x0 PUSH1 0x20 DUP3 ADD MSTORE CALLER SWAP3 SWAP2 PUSH32 0xFCB91FD98787D64BDBA700BB305716E8B6CEBEEF9927C71B19ED9B0AB1B892B0 SWAP2 ADD PUSH1 0x40 MLOAD DUP1 SWAP2 SUB SWAP1 LOG4 POP POP POP POP POP POP POP JUMP JUMPDEST PUSH1 0x40 DUP1 MLOAD PUSH1 0x80 DUP2 ADD DUP3 MSTORE PUSH1 0x0 DUP1 DUP3 MSTORE PUSH1 0x20 DUP3 ADD DUP2 SWAP1 MSTORE SWAP2 DUP2 ADD DUP3 SWAP1 MSTORE PUSH1 0x60 DUP2 ADD DUP3 SWAP1 MSTORE SWAP1 PUSH2 0x1D05 PUSH3 0x15180 DUP5 PUSH2 0x5CAF JUMP JUMPDEST SWAP1 POP PUSH1 0x0 DUP1 DUP3 DUP2 PUSH2 0x1D19 DUP3 PUSH3 0x10BD9 PUSH2 0x5CC3 JUMP JUMPDEST PUSH2 0x1D26 SWAP1 PUSH3 0x253D8C PUSH2 0x5CC3 JUMP JUMPDEST SWAP1 POP PUSH1 0x0 PUSH3 0x23AB1 PUSH2 0x1D39 DUP4 PUSH1 0x4 PUSH2 0x5D03 JUMP JUMPDEST PUSH2 0x1D43 SWAP2 SWAP1 PUSH2 0x5D8A JUMP JUMPDEST SWAP1 POP PUSH1 0x4 PUSH2 0x1D54 DUP3 PUSH3 0x23AB1 PUSH2 0x5D03 JUMP JUMPDEST PUSH2 0x1D5F SWAP1 PUSH1 0x3 PUSH2 0x5CC3 JUMP JUMPDEST PUSH2 0x1D69 SWAP2 SWAP1 PUSH2 0x5D8A JUMP JUMPDEST PUSH2 0x1D73 SWAP1 DUP4 PUSH2 0x5DB8 JUMP JUMPDEST SWAP2 POP PUSH1 0x0 PUSH3 0x164B09 PUSH2 0x1D86 DUP5 PUSH1 0x1 PUSH2 0x5CC3 JUMP JUMPDEST PUSH2 0x1D92 SWAP1 PUSH2 0xFA0 PUSH2 0x5D03 JUMP JUMPDEST PUSH2 0x1D9C SWAP2 SWAP1 PUSH2 0x5D8A JUMP JUMPDEST SWAP1 POP PUSH1 0x4 PUSH2 0x1DAC DUP3 PUSH2 0x5B5 PUSH2 0x5D03 JUMP JUMPDEST PUSH2 0x1DB6 SWAP2 SWAP1 PUSH2 0x5D8A JUMP JUMPDEST PUSH2 0x1DC0 SWAP1 DUP5 PUSH2 0x5DB8 JUMP JUMPDEST PUSH2 0x1DCB SWAP1 PUSH1 0x1F PUSH2 0x5CC3 JUMP JUMPDEST SWAP3 POP PUSH1 0x0 PUSH2 0x98F PUSH2 0x1DDD DUP6 PUSH1 0x50 PUSH2 0x5D03 JUMP JUMPDEST PUSH2 0x1DE7 SWAP2 SWAP1 PUSH2 0x5D8A JUMP JUMPDEST SWAP1 POP PUSH1 0x0 PUSH1 0x50 PUSH2 0x1DF9 DUP4 PUSH2 0x98F PUSH2 0x5D03 JUMP JUMPDEST PUSH2 0x1E03 SWAP2 SWAP1 PUSH2 0x5D8A JUMP JUMPDEST PUSH2 0x1E0D SWAP1 DUP7 PUSH2 0x5DB8 JUMP JUMPDEST SWAP1 POP PUSH2 0x1E1A PUSH1 0xB DUP4 PUSH2 0x5D8A JUMP JUMPDEST SWAP5 POP PUSH2 0x1E27 DUP6 PUSH1 0xC PUSH2 0x5D03 JUMP JUMPDEST PUSH2 0x1E32 DUP4 PUSH1 0x2 PUSH2 0x5CC3 JUMP JUMPDEST PUSH2 0x1E3C SWAP2 SWAP1 PUSH2 0x5DB8 JUMP JUMPDEST SWAP2 POP DUP5 DUP4 PUSH2 0x1E4B PUSH1 0x31 DUP8 PUSH2 0x5DB8 JUMP JUMPDEST PUSH2 0x1E56 SWAP1 PUSH1 0x64 PUSH2 0x5D03 JUMP JUMPDEST PUSH2 0x1E60 SWAP2 SWAP1 PUSH2 0x5CC3 JUMP JUMPDEST PUSH2 0x1E6A SWAP2 SWAP1 PUSH2 0x5CC3 JUMP JUMPDEST SWAP1 SWAP8 POP SWAP2 POP DUP7 DUP3 DUP3 DUP3 PUSH1 0x0 PUSH1 0x1 JUMPDEST DUP4 DUP2 GT PUSH2 0x1EC5 JUMPI DUP4 DUP2 EQ ISZERO PUSH2 0x1E9C JUMPI PUSH2 0x1E95 PUSH2 0xFFFF DUP15 AND DUP4 PUSH2 0x5DF7 JUMP JUMPDEST SWAP2 POP PUSH2 0x1EB3 JUMP JUMPDEST PUSH2 0x1EA6 DUP6 DUP6 PUSH2 0x5047 JUMP JUMPDEST PUSH2 0x1EB0 SWAP1 DUP4 PUSH2 0x5DF7 JUMP JUMPDEST SWAP2 POP JUMPDEST DUP1 PUSH2 0x1EBD DUP2 PUSH2 0x5BF0 JUMP JUMPDEST SWAP2 POP POP PUSH2 0x1E78 JUMP JUMPDEST POP DUP1 SWAP11 POP PUSH2 0x1ED7 DUP12 PUSH2 0xFFFF AND DUP6 PUSH2 0x50CD JUMP JUMPDEST PUSH2 0xFFFF AND PUSH1 0x40 DUP16 ADD MSTORE PUSH2 0x1EE9 DUP16 PUSH2 0x519B JUMP JUMPDEST DUP15 PUSH1 0x20 ADD SWAP1 PUSH2 0xFFFF AND SWAP1 DUP2 PUSH2 0xFFFF AND DUP2 MSTORE POP POP DUP12 DUP15 PUSH1 0x0 ADD SWAP1 PUSH2 0xFFFF AND SWAP1 DUP2 PUSH2 0xFFFF AND DUP2 MSTORE POP POP DUP11 DUP15 PUSH1 0x60 ADD SWAP1 PUSH2 0xFFFF AND SWAP1 DUP2 PUSH2 0xFFFF AND DUP2 MSTORE POP POP POP POP POP POP POP POP POP POP POP POP POP POP POP SWAP2 SWAP1 POP JUMP JUMPDEST PUSH1 0x60 DUP1 DUP3 ISZERO PUSH2 0x202D JUMPI CALLER PUSH1 0x0 SWAP1 DUP2 MSTORE PUSH1 0x7 PUSH1 0x20 SWAP1 DUP2 MSTORE PUSH1 0x40 DUP1 DUP4 KECCAK256 PUSH1 0x2 ADD DUP1 SLOAD DUP3 MLOAD DUP2 DUP6 MUL DUP2 ADD DUP6 ADD SWAP1 SWAP4 MSTORE DUP1 DUP4 MSTORE SWAP2 SWAP4 SWAP1 SWAP3 DUP5 ADD JUMPDEST DUP3 DUP3 LT ISZERO PUSH2 0x2022 JUMPI PUSH1 0x0 DUP5 DUP2 MSTORE PUSH1 0x20 SWAP1 DUP2 SWAP1 KECCAK256 PUSH1 0x40 DUP1 MLOAD PUSH1 0x80 DUP2 ADD DUP3 MSTORE PUSH1 0x2 DUP7 MUL SWAP1 SWAP3 ADD DUP1 SLOAD DUP4 MSTORE PUSH1 0x1 DUP2 ADD SLOAD PUSH2 0xFFFF DUP2 AND SWAP5 DUP5 ADD SWAP5 SWAP1 SWAP5 MSTORE SWAP2 SWAP3 SWAP1 DUP4 ADD SWAP1 PUSH3 0x10000 SWAP1 DIV PUSH1 0xFF AND PUSH1 0x3 DUP2 GT ISZERO PUSH2 0x1FC5 JUMPI PUSH2 0x1FC5 PUSH2 0x53A7 JUMP JUMPDEST PUSH1 0x3 DUP2 GT ISZERO PUSH2 0x1FD6 JUMPI PUSH2 0x1FD6 PUSH2 0x53A7 JUMP JUMPDEST DUP2 MSTORE PUSH1 0x20 ADD PUSH1 0x1 DUP3 ADD PUSH1 0x3 SWAP1 SLOAD SWAP1 PUSH2 0x100 EXP SWAP1 DIV PUSH1 0xFF AND PUSH1 0x2 DUP2 GT ISZERO PUSH2 0x1FFE JUMPI PUSH2 0x1FFE PUSH2 0x53A7 JUMP JUMPDEST PUSH1 0x2 DUP2 GT ISZERO PUSH2 0x200F JUMPI PUSH2 0x200F PUSH2 0x53A7 JUMP JUMPDEST DUP2 MSTORE POP POP DUP2 MSTORE PUSH1 0x20 ADD SWAP1 PUSH1 0x1 ADD SWAP1 PUSH2 0x1F6C JUMP JUMPDEST POP POP POP POP SWAP1 POP PUSH2 0x2117 JUMP JUMPDEST CALLER PUSH1 0x0 SWAP1 DUP2 MSTORE PUSH1 0x7 PUSH1 0x20 SWAP1 DUP2 MSTORE PUSH1 0x40 DUP1 DUP4 KECCAK256 PUSH1 0x3 ADD DUP1 SLOAD DUP3 MLOAD DUP2 DUP6 MUL DUP2 ADD DUP6 ADD SWAP1 SWAP4 MSTORE DUP1 DUP4 MSTORE SWAP2 SWAP4 SWAP1 SWAP3 DUP5 ADD JUMPDEST DUP3 DUP3 LT ISZERO PUSH2 0x2110 JUMPI PUSH1 0x0 DUP5 DUP2 MSTORE PUSH1 0x20 SWAP1 DUP2 SWAP1 KECCAK256 PUSH1 0x40 DUP1 MLOAD PUSH1 0x80 DUP2 ADD DUP3 MSTORE PUSH1 0x2 DUP7 MUL SWAP1 SWAP3 ADD DUP1 SLOAD DUP4 MSTORE PUSH1 0x1 DUP2 ADD SLOAD PUSH2 0xFFFF DUP2 AND SWAP5 DUP5 ADD SWAP5 SWAP1 SWAP5 MSTORE SWAP2 SWAP3 SWAP1 DUP4 ADD SWAP1 PUSH3 0x10000 SWAP1 DIV PUSH1 0xFF AND PUSH1 0x3 DUP2 GT ISZERO PUSH2 0x20B3 JUMPI PUSH2 0x20B3 PUSH2 0x53A7 JUMP JUMPDEST PUSH1 0x3 DUP2 GT ISZERO PUSH2 0x20C4 JUMPI PUSH2 0x20C4 PUSH2 0x53A7 JUMP JUMPDEST DUP2 MSTORE PUSH1 0x20 ADD PUSH1 0x1 DUP3 ADD PUSH1 0x3 SWAP1 SLOAD SWAP1 PUSH2 0x100 EXP SWAP1 DIV PUSH1 0xFF AND PUSH1 0x2 DUP2 GT ISZERO PUSH2 0x20EC JUMPI PUSH2 0x20EC PUSH2 0x53A7 JUMP JUMPDEST PUSH1 0x2 DUP2 GT ISZERO PUSH2 0x20FD JUMPI PUSH2 0x20FD PUSH2 0x53A7 JUMP JUMPDEST DUP2 MSTORE POP POP DUP2 MSTORE PUSH1 0x20 ADD SWAP1 PUSH1 0x1 ADD SWAP1 PUSH2 0x205A JUMP JUMPDEST POP POP POP POP SWAP1 POP JUMPDEST PUSH1 0x0 DUP2 MLOAD PUSH8 0xFFFFFFFFFFFFFFFF DUP2 GT ISZERO PUSH2 0x2133 JUMPI PUSH2 0x2133 PUSH2 0x58E1 JUMP JUMPDEST PUSH1 0x40 MLOAD SWAP1 DUP1 DUP3 MSTORE DUP1 PUSH1 0x20 MUL PUSH1 0x20 ADD DUP3 ADD PUSH1 0x40 MSTORE DUP1 ISZERO PUSH2 0x21CE JUMPI DUP2 PUSH1 0x20 ADD JUMPDEST PUSH2 0x21BB PUSH1 0x40 DUP1 MLOAD PUSH2 0x180 DUP2 ADD SWAP1 SWAP2 MSTORE PUSH1 0x0 PUSH1 0x60 DUP1 DUP4 ADD DUP3 DUP2 MSTORE PUSH1 0x80 DUP5 ADD DUP4 SWAP1 MSTORE PUSH1 0xA0 DUP5 ADD DUP4 SWAP1 MSTORE PUSH1 0xC0 DUP5 ADD DUP4 SWAP1 MSTORE PUSH1 0xE0 DUP5 ADD DUP4 SWAP1 MSTORE PUSH2 0x100 DUP5 ADD DUP4 SWAP1 MSTORE PUSH2 0x120 DUP5 ADD DUP4 SWAP1 MSTORE PUSH2 0x140 DUP5 ADD SWAP3 SWAP1 SWAP3 MSTORE PUSH2 0x160 DUP4 ADD MSTORE DUP2 SWAP1 DUP2 MSTORE PUSH1 0x20 ADD PUSH1 0x0 DUP2 MSTORE PUSH1 0x20 ADD PUSH1 0x0 DUP2 MSTORE POP SWAP1 JUMP JUMPDEST DUP2 MSTORE PUSH1 0x20 ADD SWAP1 PUSH1 0x1 SWAP1 SUB SWAP1 DUP2 PUSH2 0x2151 JUMPI SWAP1 POP JUMPDEST POP SWAP1 POP PUSH1 0x0 JUMPDEST DUP3 MLOAD DUP2 LT ISZERO PUSH2 0x232F JUMPI PUSH2 0x223F DUP4 DUP3 DUP2 MLOAD DUP2 LT PUSH2 0x21F2 JUMPI PUSH2 0x21F2 PUSH2 0x5BC4 JUMP JUMPDEST PUSH1 0x20 MUL PUSH1 0x20 ADD ADD MLOAD PUSH1 0x0 ADD MLOAD DUP5 DUP4 DUP2 MLOAD DUP2 LT PUSH2 0x2210 JUMPI PUSH2 0x2210 PUSH2 0x5BC4 JUMP JUMPDEST PUSH1 0x20 MUL PUSH1 0x20 ADD ADD MLOAD PUSH1 0x40 ADD MLOAD DUP6 DUP5 DUP2 MLOAD DUP2 LT PUSH2 0x222E JUMPI PUSH2 0x222E PUSH2 0x5BC4 JUMP JUMPDEST PUSH1 0x20 MUL PUSH1 0x20 ADD ADD MLOAD PUSH1 0x20 ADD MLOAD PUSH2 0x1536 JUMP JUMPDEST DUP3 DUP3 DUP2 MLOAD DUP2 LT PUSH2 0x2251 JUMPI PUSH2 0x2251 PUSH2 0x5BC4 JUMP JUMPDEST PUSH1 0x20 MUL PUSH1 0x20 ADD ADD MLOAD PUSH1 0x0 ADD DUP2 SWAP1 MSTORE POP DUP3 DUP2 DUP2 MLOAD DUP2 LT PUSH2 0x2272 JUMPI PUSH2 0x2272 PUSH2 0x5BC4 JUMP JUMPDEST PUSH1 0x20 MUL PUSH1 0x20 ADD ADD MLOAD PUSH1 0x60 ADD MLOAD DUP3 DUP3 DUP2 MLOAD DUP2 LT PUSH2 0x2290 JUMPI PUSH2 0x2290 PUSH2 0x5BC4 JUMP JUMPDEST PUSH1 0x20 MUL PUSH1 0x20 ADD ADD MLOAD PUSH1 0x20 ADD SWAP1 PUSH1 0x2 DUP2 GT ISZERO PUSH2 0x22AD JUMPI PUSH2 0x22AD PUSH2 0x53A7 JUMP JUMPDEST SWAP1 DUP2 PUSH1 0x2 DUP2 GT ISZERO PUSH2 0x22C0 JUMPI PUSH2 0x22C0 PUSH2 0x53A7 JUMP JUMPDEST DUP2 MSTORE POP POP PUSH1 0xB PUSH1 0x0 DUP4 DUP4 DUP2 MLOAD DUP2 LT PUSH2 0x22DA JUMPI PUSH2 0x22DA PUSH2 0x5BC4 JUMP JUMPDEST PUSH1 0x20 MUL PUSH1 0x20 ADD ADD MLOAD PUSH1 0x0 ADD MLOAD PUSH1 0x0 ADD MLOAD DUP2 MSTORE PUSH1 0x20 ADD SWAP1 DUP2 MSTORE PUSH1 0x20 ADD PUSH1 0x0 KECCAK256 DUP1 SLOAD SWAP1 POP DUP3 DUP3 DUP2 MLOAD DUP2 LT PUSH2 0x230E JUMPI PUSH2 0x230E PUSH2 0x5BC4 JUMP JUMPDEST PUSH1 0x20 SWAP1 DUP2 MUL SWAP2 SWAP1 SWAP2 ADD ADD MLOAD PUSH1 0x40 ADD MSTORE DUP1 PUSH2 0x2327 DUP2 PUSH2 0x5BF0 JUMP JUMPDEST SWAP2 POP POP PUSH2 0x21D4 JUMP JUMPDEST POP SWAP4 SWAP3 POP POP POP JUMP JUMPDEST PUSH1 0x6 SLOAD PUSH1 0x1 PUSH1 0xD0 SHL SWAP1 DIV PUSH1 0xFF AND PUSH2 0x2350 JUMPI PUSH2 0x2350 PUSH2 0x4B1E JUMP JUMPDEST PUSH1 0x6 SLOAD PUSH1 0x1 PUSH1 0xD8 SHL SWAP1 DIV PUSH1 0xFF AND ISZERO PUSH2 0x2398 JUMPI CALLVALUE PUSH1 0x1 SLOAD GT ISZERO PUSH2 0x2398 JUMPI PUSH1 0x40 MLOAD PUSH3 0x461BCD PUSH1 0xE5 SHL DUP2 MSTORE PUSH1 0x20 PUSH1 0x4 DUP3 ADD MSTORE PUSH1 0x1 PUSH1 0x24 DUP3 ADD MSTORE PUSH1 0x35 PUSH1 0xF8 SHL PUSH1 0x44 DUP3 ADD MSTORE PUSH1 0x64 ADD PUSH2 0x5E7 JUMP JUMPDEST PUSH1 0x0 PUSH2 0x23A3 TIMESTAMP PUSH2 0x51D1 JUMP JUMPDEST PUSH1 0x6 SLOAD SWAP1 SWAP2 POP PUSH5 0xFFFFFFFFFF PUSH2 0x100 SWAP1 SWAP2 DIV DUP2 AND SWAP1 DUP3 AND LT ISZERO PUSH2 0x23ED JUMPI PUSH1 0x40 MLOAD PUSH3 0x461BCD PUSH1 0xE5 SHL DUP2 MSTORE PUSH1 0x20 PUSH1 0x4 DUP3 ADD MSTORE PUSH1 0x2 PUSH1 0x24 DUP3 ADD MSTORE PUSH2 0xC4D PUSH1 0xF2 SHL PUSH1 0x44 DUP3 ADD MSTORE PUSH1 0x64 ADD PUSH2 0x5E7 JUMP JUMPDEST PUSH1 0x40 DUP1 MLOAD PUSH1 0x80 DUP2 ADD DUP3 MSTORE PUSH1 0x0 DUP1 DUP3 MSTORE PUSH1 0x20 DUP3 ADD DUP2 SWAP1 MSTORE SWAP2 DUP2 ADD DUP3 SWAP1 MSTORE PUSH1 0x60 DUP2 ADD SWAP2 SWAP1 SWAP2 MSTORE PUSH1 0x1 SWAP1 PUSH1 0x6 SLOAD PUSH5 0xFFFFFFFFFF DUP5 DUP2 AND PUSH2 0x100 SWAP1 SWAP3 DIV AND EQ PUSH2 0x2478 JUMPI PUSH1 0x6 SLOAD PUSH2 0x2458 SWAP1 PUSH2 0x244C SWAP1 PUSH2 0x100 SWAP1 DIV PUSH5 0xFFFFFFFFFF AND PUSH3 0x15180 PUSH2 0x5E0F JUMP JUMPDEST PUSH5 0xFFFFFFFFFF AND PUSH2 0x1CD4 JUMP JUMPDEST PUSH1 0x6 SLOAD SWAP1 SWAP2 POP PUSH2 0x2473 SWAP1 PUSH2 0x100 SWAP1 DIV PUSH5 0xFFFFFFFFFF AND PUSH2 0x51E0 JUMP JUMPDEST PUSH2 0x2493 JUMP JUMPDEST PUSH2 0x2481 TIMESTAMP PUSH2 0x1CD4 JUMP JUMPDEST SWAP1 POP PUSH2 0x2493 DUP4 PUSH5 0xFFFFFFFFFF AND PUSH2 0x51E0 JUMP JUMPDEST PUSH1 0x0 DUP1 JUMPDEST PUSH1 0x3 DUP2 GT PUSH2 0x3069 JUMPI PUSH1 0x0 DUP2 PUSH2 0x24AD JUMPI POP PUSH1 0x20 DUP4 ADD MLOAD JUMPDEST PUSH1 0x1 DUP3 EQ ISZERO PUSH2 0x24BA JUMPI POP DUP3 MLOAD JUMPDEST PUSH1 0x2 DUP3 EQ ISZERO PUSH2 0x24CA JUMPI POP PUSH1 0x40 DUP4 ADD MLOAD JUMPDEST PUSH1 0x3 DUP3 EQ ISZERO PUSH2 0x24DA JUMPI POP PUSH1 0x60 DUP4 ADD MLOAD JUMPDEST PUSH1 0x0 DUP3 DUP2 MSTORE PUSH1 0xA PUSH1 0x20 SWAP1 DUP2 MSTORE PUSH1 0x40 DUP1 DUP4 KECCAK256 PUSH2 0xFFFF DUP6 AND DUP5 MSTORE SWAP1 SWAP2 MSTORE DUP2 KECCAK256 SLOAD SWAP1 JUMPDEST DUP2 DUP2 LT ISZERO PUSH2 0x3053 JUMPI PUSH1 0x0 DUP5 DUP2 MSTORE PUSH1 0xA PUSH1 0x20 SWAP1 DUP2 MSTORE PUSH1 0x40 DUP1 DUP4 KECCAK256 PUSH2 0xFFFF DUP8 AND DUP5 MSTORE SWAP1 SWAP2 MSTORE DUP2 KECCAK256 DUP1 SLOAD SWAP2 SWAP9 POP SWAP1 DUP3 SWAP1 DUP2 LT PUSH2 0x2535 JUMPI PUSH2 0x2535 PUSH2 0x5BC4 JUMP JUMPDEST SWAP1 PUSH1 0x0 MSTORE PUSH1 0x20 PUSH1 0x0 KECCAK256 SWAP1 PUSH1 0x5 MUL ADD PUSH1 0x3 ADD PUSH1 0x15 SWAP1 SLOAD SWAP1 PUSH2 0x100 EXP SWAP1 DIV PUSH1 0xFF AND PUSH2 0x3041 JUMPI PUSH1 0x0 DUP5 DUP2 MSTORE PUSH1 0xA PUSH1 0x20 SWAP1 DUP2 MSTORE PUSH1 0x40 DUP1 DUP4 KECCAK256 PUSH2 0xFFFF DUP8 AND DUP5 MSTORE SWAP1 SWAP2 MSTORE DUP2 KECCAK256 DUP1 SLOAD DUP4 SWAP1 DUP2 LT PUSH2 0x2587 JUMPI PUSH2 0x2587 PUSH2 0x5BC4 JUMP JUMPDEST PUSH1 0x0 SWAP2 DUP3 MSTORE PUSH1 0x20 DUP1 DUP4 KECCAK256 PUSH1 0x5 SWAP1 SWAP3 MUL SWAP1 SWAP2 ADD SLOAD DUP8 DUP4 MSTORE PUSH1 0xA DUP3 MSTORE PUSH1 0x40 DUP1 DUP5 KECCAK256 PUSH2 0xFFFF DUP10 AND DUP6 MSTORE SWAP1 SWAP3 MSTORE SWAP1 DUP3 KECCAK256 DUP1 SLOAD SWAP2 SWAP4 POP SWAP1 DUP5 SWAP1 DUP2 LT PUSH2 0x25C9 JUMPI PUSH2 0x25C9 PUSH2 0x5BC4 JUMP JUMPDEST PUSH1 0x0 SWAP2 DUP3 MSTORE PUSH1 0x20 DUP1 DUP4 KECCAK256 PUSH1 0x3 PUSH1 0x5 SWAP1 SWAP4 MUL ADD SWAP2 SWAP1 SWAP2 ADD SLOAD DUP9 DUP4 MSTORE PUSH1 0xA DUP3 MSTORE PUSH1 0x40 DUP1 DUP5 KECCAK256 PUSH2 0xFFFF DUP11 AND DUP6 MSTORE SWAP1 SWAP3 MSTORE SWAP1 DUP3 KECCAK256 DUP1 SLOAD PUSH1 0x1 PUSH1 0x1 PUSH1 0xA0 SHL SUB SWAP1 SWAP3 AND SWAP4 POP SWAP1 DUP6 SWAP1 DUP2 LT PUSH2 0x2619 JUMPI PUSH2 0x2619 PUSH2 0x5BC4 JUMP JUMPDEST PUSH1 0x0 SWAP2 DUP3 MSTORE PUSH1 0x20 DUP1 DUP4 KECCAK256 PUSH1 0x1 PUSH1 0x5 SWAP1 SWAP4 MUL ADD SWAP2 SWAP1 SWAP2 ADD SLOAD DUP10 DUP4 MSTORE PUSH1 0xA DUP3 MSTORE PUSH1 0x40 DUP1 DUP5 KECCAK256 PUSH2 0xFFFF DUP12 AND DUP6 MSTORE SWAP1 SWAP3 MSTORE SWAP1 DUP3 KECCAK256 DUP1 SLOAD SWAP2 SWAP4 POP SWAP1 DUP7 SWAP1 DUP2 LT PUSH2 0x265F JUMPI PUSH2 0x265F PUSH2 0x5BC4 JUMP JUMPDEST PUSH1 0x0 SWAP2 DUP3 MSTORE PUSH1 0x20 DUP3 KECCAK256 PUSH1 0x2 PUSH1 0x5 SWAP1 SWAP3 MUL ADD ADD SLOAD DUP2 SLOAD PUSH1 0x1 PUSH1 0x1 PUSH1 0xA0 SHL SUB SWAP1 SWAP2 AND SWAP3 POP DUP4 SWAP1 PUSH2 0x2710 SWAP1 PUSH2 0x2691 SWAP1 DUP4 PUSH2 0x5E3C JUMP JUMPDEST PUSH2 0x269B SWAP2 SWAP1 PUSH2 0x5CAF JUMP JUMPDEST PUSH2 0x26A5 SWAP2 SWAP1 PUSH2 0x5E5B JUMP JUMPDEST PUSH1 0x0 DUP7 DUP2 MSTORE PUSH1 0xB PUSH1 0x20 MSTORE PUSH1 0x40 DUP2 KECCAK256 SLOAD SWAP2 SWAP3 POP SWAP1 DUP2 DUP2 ISZERO PUSH2 0x26CD JUMPI PUSH2 0x26CA PUSH1 0x1 DUP4 PUSH2 0x5E5B JUMP JUMPDEST SWAP1 POP JUMPDEST PUSH1 0x0 JUMPDEST DUP3 DUP2 LT ISZERO PUSH2 0x3037 JUMPI PUSH1 0x2 SLOAD DUP15 EQ ISZERO PUSH2 0x2823 JUMPI PUSH1 0x40 DUP1 MLOAD DUP1 DUP3 ADD DUP3 MSTORE DUP11 DUP2 MSTORE PUSH1 0x20 ADD DUP3 SWAP1 MSTORE PUSH1 0x3 DUP11 SWAP1 SSTORE PUSH1 0x4 DUP3 DUP2 SSTORE PUSH1 0x6 DUP1 SLOAD PUSH1 0xFF NOT AND SWAP1 SSTORE SWAP1 MLOAD PUSH4 0xA9059CBB PUSH1 0xE0 SHL DUP2 MSTORE CALLER SWAP2 DUP2 ADD SWAP2 SWAP1 SWAP2 MSTORE PUSH1 0x24 DUP2 ADD DUP6 SWAP1 MSTORE PUSH1 0x1 PUSH1 0x1 PUSH1 0xA0 SHL SUB DUP10 AND SWAP1 PUSH4 0xA9059CBB SWAP1 PUSH1 0x44 ADD PUSH1 0x20 PUSH1 0x40 MLOAD DUP1 DUP4 SUB DUP2 PUSH1 0x0 DUP8 DUP1 EXTCODESIZE ISZERO DUP1 ISZERO PUSH2 0x2751 JUMPI PUSH1 0x0 DUP1 REVERT JUMPDEST POP GAS CALL ISZERO DUP1 ISZERO PUSH2 0x2765 JUMPI RETURNDATASIZE PUSH1 0x0 DUP1 RETURNDATACOPY RETURNDATASIZE PUSH1 0x0 REVERT JUMPDEST POP POP POP POP PUSH1 0x40 MLOAD RETURNDATASIZE PUSH1 0x1F NOT PUSH1 0x1F DUP3 ADD AND DUP3 ADD DUP1 PUSH1 0x40 MSTORE POP DUP2 ADD SWAP1 PUSH2 0x2789 SWAP2 SWAP1 PUSH2 0x5C41 JUMP JUMPDEST PUSH2 0x27BA JUMPI PUSH1 0x40 MLOAD PUSH3 0x461BCD PUSH1 0xE5 SHL DUP2 MSTORE PUSH1 0x20 PUSH1 0x4 DUP3 ADD MSTORE PUSH1 0x2 PUSH1 0x24 DUP3 ADD MSTORE PUSH2 0x1919 PUSH1 0xF1 SHL PUSH1 0x44 DUP3 ADD MSTORE PUSH1 0x64 ADD PUSH2 0x5E7 JUMP JUMPDEST PUSH1 0x6 SLOAD PUSH1 0x40 DUP1 MLOAD PUSH5 0xFFFFFFFFFF TIMESTAMP DUP2 AND DUP3 MSTORE PUSH2 0x100 SWAP1 SWAP4 DIV SWAP3 SWAP1 SWAP3 AND PUSH1 0x20 DUP4 ADD MSTORE PUSH1 0x0 SWAP1 DUP3 ADD MSTORE CALLER SWAP1 PUSH32 0x90192D7875364A53E351AE63FD2DFEF8DC941735B29FB0C504D06A0E21AE602E SWAP1 PUSH1 0x60 ADD PUSH1 0x40 MLOAD DUP1 SWAP2 SUB SWAP1 LOG2 POP POP POP POP POP POP POP POP POP POP POP POP POP POP POP POP POP JUMP JUMPDEST PUSH1 0x3 SLOAD DUP10 EQ DUP1 ISZERO PUSH2 0x2835 JUMPI POP PUSH1 0x4 SLOAD DUP2 EQ JUMPDEST ISZERO PUSH2 0x2848 JUMPI PUSH1 0x6 DUP1 SLOAD PUSH1 0xFF NOT AND PUSH1 0x1 OR SWAP1 SSTORE JUMPDEST PUSH1 0x3 SLOAD ISZERO DUP1 PUSH2 0x285E JUMPI POP PUSH1 0x6 SLOAD PUSH1 0xFF AND ISZERO ISZERO PUSH1 0x1 EQ JUMPDEST ISZERO PUSH2 0x3025 JUMPI PUSH1 0x0 DUP10 DUP2 MSTORE PUSH1 0xB PUSH1 0x20 MSTORE PUSH1 0x40 DUP2 KECCAK256 DUP1 SLOAD DUP4 SWAP1 DUP2 LT PUSH2 0x2883 JUMPI PUSH2 0x2883 PUSH2 0x5BC4 JUMP JUMPDEST PUSH1 0x0 SWAP2 DUP3 MSTORE PUSH1 0x20 SWAP1 SWAP2 KECCAK256 ADD SLOAD PUSH1 0x40 MLOAD PUSH4 0x6EB1769F PUSH1 0xE1 SHL DUP2 MSTORE PUSH1 0x1 PUSH1 0x1 PUSH1 0xA0 SHL SUB SWAP2 DUP3 AND PUSH1 0x4 DUP3 ADD DUP2 SWAP1 MSTORE ADDRESS PUSH1 0x24 DUP4 ADD MSTORE SWAP3 POP DUP10 SWAP2 DUP12 AND SWAP1 PUSH4 0xDD62ED3E SWAP1 PUSH1 0x44 ADD PUSH1 0x20 PUSH1 0x40 MLOAD DUP1 DUP4 SUB DUP2 PUSH1 0x0 DUP8 DUP1 EXTCODESIZE ISZERO DUP1 ISZERO PUSH2 0x28DE JUMPI PUSH1 0x0 DUP1 REVERT JUMPDEST POP GAS CALL ISZERO DUP1 ISZERO PUSH2 0x28F2 JUMPI RETURNDATASIZE PUSH1 0x0 DUP1 RETURNDATACOPY RETURNDATASIZE PUSH1 0x0 REVERT JUMPDEST POP POP POP POP PUSH1 0x40 MLOAD RETURNDATASIZE PUSH1 0x1F NOT PUSH1 0x1F DUP3 ADD AND DUP3 ADD DUP1 PUSH1 0x40 MSTORE POP DUP2 ADD SWAP1 PUSH2 0x2916 SWAP2 SWAP1 PUSH2 0x5E72 JUMP JUMPDEST LT ISZERO DUP1 ISZERO PUSH2 0x299F JUMPI POP PUSH1 0x40 MLOAD PUSH4 0x70A08231 PUSH1 0xE0 SHL DUP2 MSTORE PUSH1 0x1 PUSH1 0x1 PUSH1 0xA0 SHL SUB DUP3 DUP2 AND PUSH1 0x4 DUP4 ADD MSTORE DUP10 SWAP2 SWAP1 DUP12 AND SWAP1 PUSH4 0x70A08231 SWAP1 PUSH1 0x24 ADD PUSH1 0x20 PUSH1 0x40 MLOAD DUP1 DUP4 SUB DUP2 PUSH1 0x0 DUP8 DUP1 EXTCODESIZE ISZERO DUP1 ISZERO PUSH2 0x2965 JUMPI PUSH1 0x0 DUP1 REVERT JUMPDEST POP GAS CALL ISZERO DUP1 ISZERO PUSH2 0x2979 JUMPI RETURNDATASIZE PUSH1 0x0 DUP1 RETURNDATACOPY RETURNDATASIZE PUSH1 0x0 REVERT JUMPDEST POP POP POP POP PUSH1 0x40 MLOAD RETURNDATASIZE PUSH1 0x1F NOT PUSH1 0x1F DUP3 ADD AND DUP3 ADD DUP1 PUSH1 0x40 MSTORE POP DUP2 ADD SWAP1 PUSH2 0x299D SWAP2 SWAP1 PUSH2 0x5E72 JUMP JUMPDEST GT JUMPDEST ISZERO PUSH2 0x2D5E JUMPI DUP15 PUSH2 0x29AE DUP2 PUSH2 0x5BF0 JUMP JUMPDEST SWAP16 POP PUSH2 0x29BC SWAP1 POP DUP7 DUP7 PUSH2 0x5DF7 JUMP JUMPDEST PUSH1 0x0 DUP12 DUP2 MSTORE PUSH1 0x9 PUSH1 0x20 SWAP1 DUP2 MSTORE PUSH1 0x40 DUP1 DUP4 KECCAK256 PUSH1 0x1 PUSH1 0x1 PUSH1 0xA0 SHL SUB DUP7 AND DUP5 MSTORE SWAP1 SWAP2 MSTORE SWAP1 KECCAK256 SLOAD SWAP1 SWAP6 POP DUP7 LT ISZERO PUSH2 0x2B4E JUMPI PUSH1 0x0 DUP11 DUP2 MSTORE PUSH1 0x9 PUSH1 0x20 SWAP1 DUP2 MSTORE PUSH1 0x40 DUP1 DUP4 KECCAK256 PUSH1 0x1 PUSH1 0x1 PUSH1 0xA0 SHL SUB DUP6 AND DUP5 MSTORE SWAP1 SWAP2 MSTORE DUP2 KECCAK256 DUP1 SLOAD DUP9 SWAP3 SWAP1 PUSH2 0x2A1B SWAP1 DUP5 SWAP1 PUSH2 0x5E5B JUMP JUMPDEST SWAP1 SWAP2 SSTORE POP PUSH1 0x0 SWAP1 POP PUSH1 0x40 DUP1 MLOAD PUSH5 0xFFFFFFFFFF TIMESTAMP AND DUP2 MSTORE PUSH1 0x20 DUP2 ADD DUP12 SWAP1 MSTORE PUSH1 0x1 PUSH1 0x1 PUSH1 0xA0 SHL SUB DUP5 AND SWAP2 DUP14 SWAP2 PUSH1 0x0 DUP1 MLOAD PUSH1 0x20 PUSH2 0x5F74 DUP4 CODECOPY DUP2 MLOAD SWAP2 MSTORE SWAP2 ADD PUSH1 0x40 MLOAD DUP1 SWAP2 SUB SWAP1 LOG4 PUSH1 0x2 PUSH1 0x40 DUP1 MLOAD PUSH5 0xFFFFFFFFFF TIMESTAMP AND DUP2 MSTORE PUSH1 0x0 PUSH1 0x20 DUP3 ADD MSTORE PUSH1 0x1 PUSH1 0x1 PUSH1 0xA0 SHL SUB DUP11 AND SWAP2 DUP14 SWAP2 PUSH32 0xFCB91FD98787D64BDBA700BB305716E8B6CEBEEF9927C71B19ED9B0AB1B892B0 SWAP2 ADD PUSH1 0x40 MLOAD DUP1 SWAP2 SUB SWAP1 LOG4 PUSH2 0x2AB6 DUP16 PUSH2 0x51E0 JUMP JUMPDEST PUSH1 0x40 MLOAD PUSH4 0x23B872DD PUSH1 0xE0 SHL DUP2 MSTORE PUSH1 0x1 PUSH1 0x1 PUSH1 0xA0 SHL SUB DUP3 DUP2 AND PUSH1 0x4 DUP4 ADD MSTORE DUP9 DUP2 AND PUSH1 0x24 DUP4 ADD MSTORE PUSH1 0x44 DUP3 ADD DUP11 SWAP1 MSTORE DUP11 AND SWAP1 PUSH4 0x23B872DD SWAP1 PUSH1 0x64 ADD PUSH1 0x20 PUSH1 0x40 MLOAD DUP1 DUP4 SUB DUP2 PUSH1 0x0 DUP8 DUP1 EXTCODESIZE ISZERO DUP1 ISZERO PUSH2 0x2B08 JUMPI PUSH1 0x0 DUP1 REVERT JUMPDEST POP GAS CALL ISZERO DUP1 ISZERO PUSH2 0x2B1C JUMPI RETURNDATASIZE PUSH1 0x0 DUP1 RETURNDATACOPY RETURNDATASIZE PUSH1 0x0 REVERT JUMPDEST POP POP POP POP PUSH1 0x40 MLOAD RETURNDATASIZE PUSH1 0x1F NOT PUSH1 0x1F DUP3 ADD AND DUP3 ADD DUP1 PUSH1 0x40 MSTORE POP DUP2 ADD SWAP1 PUSH2 0x2B40 SWAP2 SWAP1 PUSH2 0x5C41 JUMP JUMPDEST PUSH2 0x2B49 JUMPI PUSH1 0x0 DUP1 REVERT JUMPDEST PUSH2 0x2F5E JUMP JUMPDEST PUSH1 0x4 PUSH1 0x40 DUP1 MLOAD PUSH5 0xFFFFFFFFFF TIMESTAMP AND DUP2 MSTORE PUSH1 0x20 DUP2 ADD DUP12 SWAP1 MSTORE PUSH1 0x1 PUSH1 0x1 PUSH1 0xA0 SHL SUB DUP5 AND SWAP2 DUP14 SWAP2 PUSH1 0x0 DUP1 MLOAD PUSH1 0x20 PUSH2 0x5F74 DUP4 CODECOPY DUP2 MLOAD SWAP2 MSTORE SWAP2 ADD PUSH1 0x40 MLOAD DUP1 SWAP2 SUB SWAP1 LOG4 PUSH1 0x0 DUP9 SWAP1 POP PUSH1 0x0 PUSH1 0x1 SWAP1 POP DUP16 PUSH1 0x2 EQ ISZERO PUSH2 0x2BB5 JUMPI PUSH2 0x2BAA PUSH1 0x3 DUP4 PUSH2 0x5CAF JUMP JUMPDEST SWAP2 POP PUSH1 0x2 SWAP1 POP PUSH2 0x2BD0 JUMP JUMPDEST DUP16 PUSH1 0x3 EQ ISZERO PUSH2 0x2BD0 JUMPI PUSH2 0x2BC9 PUSH1 0xC DUP4 PUSH2 0x5CAF JUMP JUMPDEST SWAP2 POP PUSH1 0xB SWAP1 POP JUMPDEST PUSH1 0x0 DUP13 DUP2 MSTORE PUSH1 0x9 PUSH1 0x20 SWAP1 DUP2 MSTORE PUSH1 0x40 DUP1 DUP4 KECCAK256 PUSH1 0x1 PUSH1 0x1 PUSH1 0xA0 SHL SUB DUP8 AND DUP5 MSTORE SWAP1 SWAP2 MSTORE DUP2 KECCAK256 DUP1 SLOAD DUP5 SWAP3 SWAP1 PUSH2 0x2C02 SWAP1 DUP5 SWAP1 PUSH2 0x5DF7 JUMP JUMPDEST SWAP1 SWAP2 SSTORE POP POP PUSH1 0x40 MLOAD PUSH4 0x23B872DD PUSH1 0xE0 SHL DUP2 MSTORE PUSH1 0x1 PUSH1 0x1 PUSH1 0xA0 SHL SUB DUP5 DUP2 AND PUSH1 0x4 DUP4 ADD MSTORE ADDRESS PUSH1 0x24 DUP4 ADD MSTORE PUSH1 0x44 DUP3 ADD DUP5 SWAP1 MSTORE DUP13 AND SWAP1 PUSH4 0x23B872DD SWAP1 PUSH1 0x64 ADD PUSH1 0x20 PUSH1 0x40 MLOAD DUP1 DUP4 SUB DUP2 PUSH1 0x0 DUP8 DUP1 EXTCODESIZE ISZERO DUP1 ISZERO PUSH2 0x2C57 JUMPI PUSH1 0x0 DUP1 REVERT JUMPDEST POP GAS CALL ISZERO DUP1 ISZERO PUSH2 0x2C6B JUMPI RETURNDATASIZE PUSH1 0x0 DUP1 RETURNDATACOPY RETURNDATASIZE PUSH1 0x0 REVERT JUMPDEST POP POP POP POP PUSH1 0x40 MLOAD RETURNDATASIZE PUSH1 0x1F NOT PUSH1 0x1F DUP3 ADD AND DUP3 ADD DUP1 PUSH1 0x40 MSTORE POP DUP2 ADD SWAP1 PUSH2 0x2C8F SWAP2 SWAP1 PUSH2 0x5C41 JUMP JUMPDEST PUSH2 0x2C98 JUMPI PUSH1 0x0 DUP1 REVERT JUMPDEST DUP16 PUSH1 0x3 EQ DUP1 PUSH2 0x2CA7 JUMPI POP DUP16 PUSH1 0x4 EQ JUMPDEST ISZERO PUSH2 0x2D57 JUMPI PUSH1 0x1 PUSH1 0x1 PUSH1 0xA0 SHL SUB DUP12 AND PUSH4 0x23B872DD CALLER DUP12 PUSH2 0x2CC7 DUP6 DUP8 PUSH2 0x5E3C JUMP JUMPDEST PUSH1 0x40 MLOAD PUSH1 0x1 PUSH1 0x1 PUSH1 0xE0 SHL SUB NOT PUSH1 0xE0 DUP7 SWAP1 SHL AND DUP2 MSTORE PUSH1 0x1 PUSH1 0x1 PUSH1 0xA0 SHL SUB SWAP4 DUP5 AND PUSH1 0x4 DUP3 ADD MSTORE SWAP3 SWAP1 SWAP2 AND PUSH1 0x24 DUP4 ADD MSTORE PUSH1 0x44 DUP3 ADD MSTORE PUSH1 0x64 ADD PUSH1 0x20 PUSH1 0x40 MLOAD DUP1 DUP4 SUB DUP2 PUSH1 0x0 DUP8 DUP1 EXTCODESIZE ISZERO DUP1 ISZERO PUSH2 0x2D16 JUMPI PUSH1 0x0 DUP1 REVERT JUMPDEST POP GAS CALL ISZERO DUP1 ISZERO PUSH2 0x2D2A JUMPI RETURNDATASIZE PUSH1 0x0 DUP1 RETURNDATACOPY RETURNDATASIZE PUSH1 0x0 REVERT JUMPDEST POP POP POP POP PUSH1 0x40 MLOAD RETURNDATASIZE PUSH1 0x1F NOT PUSH1 0x1F DUP3 ADD AND DUP3 ADD DUP1 PUSH1 0x40 MSTORE POP DUP2 ADD SWAP1 PUSH2 0x2D4E SWAP2 SWAP1 PUSH2 0x5C41 JUMP JUMPDEST PUSH2 0x2D57 JUMPI PUSH1 0x0 DUP1 REVERT JUMPDEST POP POP PUSH2 0x2F5E JUMP JUMPDEST DUP15 PUSH2 0x2D68 DUP2 PUSH2 0x5BF0 JUMP JUMPDEST SWAP16 POP POP DUP6 PUSH1 0x9 PUSH1 0x0 DUP13 DUP2 MSTORE PUSH1 0x20 ADD SWAP1 DUP2 MSTORE PUSH1 0x20 ADD PUSH1 0x0 KECCAK256 PUSH1 0x0 DUP4 PUSH1 0x1 PUSH1 0x1 PUSH1 0xA0 SHL SUB AND PUSH1 0x1 PUSH1 0x1 PUSH1 0xA0 SHL SUB AND DUP2 MSTORE PUSH1 0x20 ADD SWAP1 DUP2 MSTORE PUSH1 0x20 ADD PUSH1 0x0 KECCAK256 SLOAD GT ISZERO PUSH2 0x2E93 JUMPI PUSH2 0x2DB3 DUP7 DUP7 PUSH2 0x5DF7 JUMP JUMPDEST PUSH1 0x0 DUP12 DUP2 MSTORE PUSH1 0x9 PUSH1 0x20 SWAP1 DUP2 MSTORE PUSH1 0x40 DUP1 DUP4 KECCAK256 PUSH1 0x1 PUSH1 0x1 PUSH1 0xA0 SHL SUB DUP7 AND DUP5 MSTORE SWAP1 SWAP2 MSTORE DUP2 KECCAK256 SLOAD SWAP2 SWAP7 POP SWAP1 PUSH2 0x2DE5 SWAP1 DUP9 SWAP1 PUSH2 0x5E5B JUMP JUMPDEST PUSH1 0x0 DUP13 DUP2 MSTORE PUSH1 0x9 PUSH1 0x20 SWAP1 DUP2 MSTORE PUSH1 0x40 DUP1 DUP4 KECCAK256 PUSH1 0x1 PUSH1 0x1 PUSH1 0xA0 SHL SUB DUP8 DUP2 AND DUP6 MSTORE SWAP3 MSTORE DUP1 DUP4 KECCAK256 SWAP3 SWAP1 SWAP3 SSTORE SWAP1 MLOAD PUSH4 0xA9059CBB PUSH1 0xE0 SHL DUP2 MSTORE DUP11 DUP3 AND PUSH1 0x4 DUP3 ADD MSTORE PUSH1 0x24 DUP2 ADD DUP4 SWAP1 MSTORE SWAP2 SWAP3 POP DUP12 AND SWAP1 PUSH4 0xA9059CBB SWAP1 PUSH1 0x44 ADD PUSH1 0x20 PUSH1 0x40 MLOAD DUP1 DUP4 SUB DUP2 PUSH1 0x0 DUP8 DUP1 EXTCODESIZE ISZERO DUP1 ISZERO PUSH2 0x2E50 JUMPI PUSH1 0x0 DUP1 REVERT JUMPDEST POP GAS CALL ISZERO DUP1 ISZERO PUSH2 0x2E64 JUMPI RETURNDATASIZE PUSH1 0x0 DUP1 RETURNDATACOPY RETURNDATASIZE PUSH1 0x0 REVERT JUMPDEST POP POP POP POP PUSH1 0x40 MLOAD RETURNDATASIZE PUSH1 0x1F NOT PUSH1 0x1F DUP3 ADD AND DUP3 ADD DUP1 PUSH1 0x40 MSTORE POP DUP2 ADD SWAP1 PUSH2 0x2E88 SWAP2 SWAP1 PUSH2 0x5C41 JUMP JUMPDEST PUSH2 0x2E91 JUMPI PUSH1 0x0 DUP1 REVERT JUMPDEST POP JUMPDEST PUSH2 0x2E9D DUP11 DUP3 PUSH2 0x4C55 JUMP JUMPDEST PUSH1 0x3 PUSH1 0x40 DUP1 MLOAD PUSH5 0xFFFFFFFFFF TIMESTAMP AND DUP2 MSTORE PUSH1 0x20 DUP2 ADD DUP12 SWAP1 MSTORE CALLER SWAP2 DUP14 SWAP2 PUSH1 0x0 DUP1 MLOAD PUSH1 0x20 PUSH2 0x5F74 DUP4 CODECOPY DUP2 MLOAD SWAP2 MSTORE SWAP2 ADD PUSH1 0x40 MLOAD DUP1 SWAP2 SUB SWAP1 LOG4 PUSH1 0x1 PUSH1 0x40 DUP1 MLOAD PUSH5 0xFFFFFFFFFF TIMESTAMP AND DUP2 MSTORE PUSH1 0x20 DUP2 ADD DUP12 SWAP1 MSTORE PUSH1 0x1 PUSH1 0x1 PUSH1 0xA0 SHL SUB DUP5 AND SWAP2 DUP14 SWAP2 PUSH1 0x0 DUP1 MLOAD PUSH1 0x20 PUSH2 0x5F74 DUP4 CODECOPY DUP2 MLOAD SWAP2 MSTORE SWAP2 ADD PUSH1 0x40 MLOAD DUP1 SWAP2 SUB SWAP1 LOG4 PUSH1 0x3 PUSH1 0x40 DUP1 MLOAD PUSH5 0xFFFFFFFFFF TIMESTAMP AND DUP2 MSTORE PUSH1 0x0 PUSH1 0x20 DUP3 ADD MSTORE PUSH1 0x1 PUSH1 0x1 PUSH1 0xA0 SHL SUB DUP11 AND SWAP2 DUP14 SWAP2 PUSH32 0xFCB91FD98787D64BDBA700BB305716E8B6CEBEEF9927C71B19ED9B0AB1B892B0 SWAP2 ADD PUSH1 0x40 MLOAD DUP1 SWAP2 SUB SWAP1 LOG4 JUMPDEST DUP3 DUP3 EQ DUP1 ISZERO PUSH2 0x2F6D JUMPI POP PUSH1 0x0 DUP5 GT JUMPDEST ISZERO PUSH2 0x3023 JUMPI PUSH1 0x40 MLOAD PUSH4 0xA9059CBB PUSH1 0xE0 SHL DUP2 MSTORE CALLER PUSH1 0x4 DUP3 ADD MSTORE PUSH1 0x24 DUP2 ADD DUP7 SWAP1 MSTORE PUSH1 0x1 PUSH1 0x1 PUSH1 0xA0 SHL SUB DUP11 AND SWAP1 PUSH4 0xA9059CBB SWAP1 PUSH1 0x44 ADD PUSH1 0x20 PUSH1 0x40 MLOAD DUP1 DUP4 SUB DUP2 PUSH1 0x0 DUP8 DUP1 EXTCODESIZE ISZERO DUP1 ISZERO PUSH2 0x2FBA JUMPI PUSH1 0x0 DUP1 REVERT JUMPDEST POP GAS CALL ISZERO DUP1 ISZERO PUSH2 0x2FCE JUMPI RETURNDATASIZE PUSH1 0x0 DUP1 RETURNDATACOPY RETURNDATASIZE PUSH1 0x0 REVERT JUMPDEST POP POP POP POP PUSH1 0x40 MLOAD RETURNDATASIZE PUSH1 0x1F NOT PUSH1 0x1F DUP3 ADD AND DUP3 ADD DUP1 PUSH1 0x40 MSTORE POP DUP2 ADD SWAP1 PUSH2 0x2FF2 SWAP2 SWAP1 PUSH2 0x5C41 JUMP JUMPDEST PUSH2 0x3023 JUMPI PUSH1 0x40 MLOAD PUSH3 0x461BCD PUSH1 0xE5 SHL DUP2 MSTORE PUSH1 0x20 PUSH1 0x4 DUP3 ADD MSTORE PUSH1 0x2 PUSH1 0x24 DUP3 ADD MSTORE PUSH2 0x1919 PUSH1 0xF1 SHL PUSH1 0x44 DUP3 ADD MSTORE PUSH1 0x64 ADD PUSH2 0x5E7 JUMP JUMPDEST POP JUMPDEST DUP1 PUSH2 0x302F DUP2 PUSH2 0x5BF0 JUMP JUMPDEST SWAP2 POP POP PUSH2 0x26D0 JUMP JUMPDEST POP POP POP POP POP POP POP POP POP JUMPDEST DUP1 PUSH2 0x304B DUP2 PUSH2 0x5BF0 JUMP JUMPDEST SWAP2 POP POP PUSH2 0x24FA JUMP JUMPDEST POP POP POP DUP1 DUP1 PUSH2 0x3061 SWAP1 PUSH2 0x5BF0 JUMP JUMPDEST SWAP2 POP POP PUSH2 0x2497 JUMP JUMPDEST POP PUSH1 0x0 PUSH1 0x3 DUP2 SWAP1 SSTORE PUSH1 0x4 SSTORE PUSH1 0x6 DUP1 SLOAD PUSH1 0xFF NOT AND SWAP1 DUP2 SWAP1 SSTORE PUSH1 0x40 DUP1 MLOAD PUSH5 0xFFFFFFFFFF TIMESTAMP DUP2 AND DUP3 MSTORE PUSH2 0x100 SWAP1 SWAP4 DIV SWAP1 SWAP3 AND PUSH1 0x20 DUP4 ADD MSTORE PUSH1 0x1 SWAP1 DUP3 ADD MSTORE CALLER SWAP1 PUSH32 0x90192D7875364A53E351AE63FD2DFEF8DC941735B29FB0C504D06A0E21AE602E SWAP1 PUSH1 0x60 ADD PUSH1 0x40 MLOAD DUP1 SWAP2 SUB SWAP1 LOG2 PUSH1 0x1 PUSH1 0x6 PUSH1 0x1 DUP3 DUP3 DUP3 SWAP1 SLOAD SWAP1 PUSH2 0x100 EXP SWAP1 DIV PUSH5 0xFFFFFFFFFF AND PUSH2 0x30F5 SWAP2 SWAP1 PUSH2 0x5E8B JUMP JUMPDEST SWAP3 POP PUSH2 0x100 EXP DUP2 SLOAD DUP2 PUSH5 0xFFFFFFFFFF MUL NOT AND SWAP1 DUP4 PUSH5 0xFFFFFFFFFF AND MUL OR SWAP1 SSTORE POP DUP3 ISZERO PUSH2 0x3129 JUMPI PUSH2 0x3123 PUSH2 0x2337 JUMP JUMPDEST POP POP POP POP JUMP JUMPDEST PUSH2 0x3123 PUSH1 0x40 MLOAD DUP1 PUSH1 0x40 ADD PUSH1 0x40 MSTORE DUP1 PUSH1 0x4 DUP2 MSTORE PUSH1 0x20 ADD PUSH4 0x68657265 PUSH1 0xE0 SHL DUP2 MSTORE POP PUSH2 0x5225 JUMP JUMPDEST PUSH1 0x0 DUP2 DUP2 MSTORE PUSH1 0xB PUSH1 0x20 MSTORE PUSH1 0x40 DUP2 KECCAK256 SLOAD PUSH1 0x60 SWAP2 SWAP1 PUSH8 0xFFFFFFFFFFFFFFFF DUP2 GT ISZERO PUSH2 0x3179 JUMPI PUSH2 0x3179 PUSH2 0x58E1 JUMP JUMPDEST PUSH1 0x40 MLOAD SWAP1 DUP1 DUP3 MSTORE DUP1 PUSH1 0x20 MUL PUSH1 0x20 ADD DUP3 ADD PUSH1 0x40 MSTORE DUP1 ISZERO PUSH2 0x31A2 JUMPI DUP2 PUSH1 0x20 ADD PUSH1 0x20 DUP3 MUL DUP1 CALLDATASIZE DUP4 CALLDATACOPY ADD SWAP1 POP JUMPDEST POP PUSH1 0x0 DUP5 DUP2 MSTORE PUSH1 0xB PUSH1 0x20 SWAP1 DUP2 MSTORE PUSH1 0x40 SWAP2 DUP3 SWAP1 KECCAK256 DUP1 SLOAD DUP4 MLOAD DUP2 DUP5 MUL DUP2 ADD DUP5 ADD SWAP1 SWAP5 MSTORE DUP1 DUP5 MSTORE SWAP4 SWAP5 POP SWAP2 SWAP3 SWAP1 DUP4 ADD DUP3 DUP3 DUP1 ISZERO PUSH2 0x3205 JUMPI PUSH1 0x20 MUL DUP3 ADD SWAP2 SWAP1 PUSH1 0x0 MSTORE PUSH1 0x20 PUSH1 0x0 KECCAK256 SWAP1 JUMPDEST DUP2 SLOAD PUSH1 0x1 PUSH1 0x1 PUSH1 0xA0 SHL SUB AND DUP2 MSTORE PUSH1 0x1 SWAP1 SWAP2 ADD SWAP1 PUSH1 0x20 ADD DUP1 DUP4 GT PUSH2 0x31E7 JUMPI JUMPDEST POP POP POP PUSH1 0x0 DUP7 DUP2 MSTORE PUSH1 0xB PUSH1 0x20 MSTORE PUSH1 0x40 DUP2 KECCAK256 SLOAD SWAP4 SWAP5 POP SWAP3 SWAP2 POP POP PUSH8 0xFFFFFFFFFFFFFFFF DUP2 GT ISZERO PUSH2 0x3236 JUMPI PUSH2 0x3236 PUSH2 0x58E1 JUMP JUMPDEST PUSH1 0x40 MLOAD SWAP1 DUP1 DUP3 MSTORE DUP1 PUSH1 0x20 MUL PUSH1 0x20 ADD DUP3 ADD PUSH1 0x40 MSTORE DUP1 ISZERO PUSH2 0x327B JUMPI DUP2 PUSH1 0x20 ADD JUMPDEST PUSH1 0x40 DUP1 MLOAD DUP1 DUP3 ADD SWAP1 SWAP2 MSTORE PUSH1 0x0 DUP1 DUP3 MSTORE PUSH1 0x20 DUP3 ADD MSTORE DUP2 MSTORE PUSH1 0x20 ADD SWAP1 PUSH1 0x1 SWAP1 SUB SWAP1 DUP2 PUSH2 0x3254 JUMPI SWAP1 POP JUMPDEST POP SWAP1 POP PUSH1 0x0 JUMPDEST DUP3 MLOAD DUP2 LT ISZERO PUSH2 0x232F JUMPI PUSH1 0x0 DUP6 DUP2 MSTORE PUSH1 0x9 PUSH1 0x20 MSTORE PUSH1 0x40 DUP2 KECCAK256 DUP5 MLOAD DUP3 SWAP1 DUP7 SWAP1 DUP6 SWAP1 DUP2 LT PUSH2 0x32AE JUMPI PUSH2 0x32AE PUSH2 0x5BC4 JUMP JUMPDEST PUSH1 0x20 MUL PUSH1 0x20 ADD ADD MLOAD PUSH1 0x1 PUSH1 0x1 PUSH1 0xA0 SHL SUB AND PUSH1 0x1 PUSH1 0x1 PUSH1 0xA0 SHL SUB AND DUP2 MSTORE PUSH1 0x20 ADD SWAP1 DUP2 MSTORE PUSH1 0x20 ADD PUSH1 0x0 KECCAK256 SLOAD SWAP1 POP PUSH1 0x0 PUSH1 0x40 MLOAD DUP1 PUSH1 0x40 ADD PUSH1 0x40 MSTORE DUP1 DUP7 DUP6 DUP2 MLOAD DUP2 LT PUSH2 0x32F8 JUMPI PUSH2 0x32F8 PUSH2 0x5BC4 JUMP JUMPDEST PUSH1 0x20 MUL PUSH1 0x20 ADD ADD MLOAD PUSH1 0x1 PUSH1 0x1 PUSH1 0xA0 SHL SUB AND DUP2 MSTORE PUSH1 0x20 ADD DUP4 DUP2 MSTORE POP SWAP1 POP DUP1 DUP5 DUP5 DUP2 MLOAD DUP2 LT PUSH2 0x3327 JUMPI PUSH2 0x3327 PUSH2 0x5BC4 JUMP JUMPDEST PUSH1 0x20 MUL PUSH1 0x20 ADD ADD DUP2 SWAP1 MSTORE POP POP POP DUP1 DUP1 PUSH2 0x333F SWAP1 PUSH2 0x5BF0 JUMP JUMPDEST SWAP2 POP POP PUSH2 0x3281 JUMP JUMPDEST PUSH2 0x334F PUSH2 0x4B1E JUMP JUMPDEST PUSH1 0x0 SSTORE JUMP JUMPDEST PUSH2 0x335C PUSH2 0x4B1E JUMP JUMPDEST CALLER PUSH1 0x1 PUSH1 0x1 PUSH1 0xA0 SHL SUB DUP3 AND EQ DUP1 ISZERO PUSH2 0x337C JUMPI POP PUSH1 0x1 PUSH1 0x1 PUSH1 0xA0 SHL SUB DUP2 AND ISZERO ISZERO JUMPDEST PUSH2 0x3385 JUMPI PUSH1 0x0 DUP1 REVERT JUMPDEST PUSH1 0x6 DUP1 SLOAD PUSH1 0x1 PUSH1 0x1 PUSH1 0xA0 SHL SUB SWAP1 SWAP3 AND PUSH7 0x1000000000000 MUL PUSH32 0xFFFFFFFFFFFF0000000000000000000000000000000000000000FFFFFFFFFFFF SWAP1 SWAP3 AND SWAP2 SWAP1 SWAP2 OR SWAP1 SSTORE JUMP JUMPDEST PUSH2 0x33D1 PUSH2 0x4B1E JUMP JUMPDEST PUSH1 0x6 DUP1 SLOAD SWAP2 ISZERO ISZERO PUSH1 0x1 PUSH1 0xD8 SHL MUL PUSH1 0xFF PUSH1 0xD8 SHL NOT SWAP1 SWAP3 AND SWAP2 SWAP1 SWAP2 OR SWAP1 SSTORE JUMP JUMPDEST PUSH2 0x33F7 PUSH2 0x4B99 JUMP JUMPDEST CALLER PUSH1 0x0 SWAP1 DUP2 MSTORE PUSH1 0x7 PUSH1 0x20 SWAP1 DUP2 MSTORE PUSH1 0x40 DUP1 DUP4 KECCAK256 PUSH1 0x3 ADD DUP1 SLOAD DUP3 MLOAD DUP2 DUP6 MUL DUP2 ADD DUP6 ADD SWAP1 SWAP4 MSTORE DUP1 DUP4 MSTORE SWAP2 SWAP3 SWAP1 SWAP2 SWAP1 DUP5 SWAP1 DUP5 ADD JUMPDEST DUP3 DUP3 LT ISZERO PUSH2 0x34DD JUMPI PUSH1 0x0 DUP5 DUP2 MSTORE PUSH1 0x20 SWAP1 DUP2 SWAP1 KECCAK256 PUSH1 0x40 DUP1 MLOAD PUSH1 0x80 DUP2 ADD DUP3 MSTORE PUSH1 0x2 DUP7 MUL SWAP1 SWAP3 ADD DUP1 SLOAD DUP4 MSTORE PUSH1 0x1 DUP2 ADD SLOAD PUSH2 0xFFFF DUP2 AND SWAP5 DUP5 ADD SWAP5 SWAP1 SWAP5 MSTORE SWAP2 SWAP3 SWAP1 DUP4 ADD SWAP1 PUSH3 0x10000 SWAP1 DIV PUSH1 0xFF AND PUSH1 0x3 DUP2 GT ISZERO PUSH2 0x3480 JUMPI PUSH2 0x3480 PUSH2 0x53A7 JUMP JUMPDEST PUSH1 0x3 DUP2 GT ISZERO PUSH2 0x3491 JUMPI PUSH2 0x3491 PUSH2 0x53A7 JUMP JUMPDEST DUP2 MSTORE PUSH1 0x20 ADD PUSH1 0x1 DUP3 ADD PUSH1 0x3 SWAP1 SLOAD SWAP1 PUSH2 0x100 EXP SWAP1 DIV PUSH1 0xFF AND PUSH1 0x2 DUP2 GT ISZERO PUSH2 0x34B9 JUMPI PUSH2 0x34B9 PUSH2 0x53A7 JUMP JUMPDEST PUSH1 0x2 DUP2 GT ISZERO PUSH2 0x34CA JUMPI PUSH2 0x34CA PUSH2 0x53A7 JUMP JUMPDEST DUP2 MSTORE POP POP DUP2 MSTORE PUSH1 0x20 ADD SWAP1 PUSH1 0x1 ADD SWAP1 PUSH2 0x3427 JUMP JUMPDEST POP POP POP POP SWAP1 POP PUSH1 0x0 DUP1 JUMPDEST DUP3 MLOAD DUP2 LT ISZERO PUSH2 0x3530 JUMPI DUP5 PUSH1 0x0 ADD MLOAD DUP4 DUP3 DUP2 MLOAD DUP2 LT PUSH2 0x3507 JUMPI PUSH2 0x3507 PUSH2 0x5BC4 JUMP JUMPDEST PUSH1 0x20 MUL PUSH1 0x20 ADD ADD MLOAD PUSH1 0x0 ADD MLOAD EQ ISZERO PUSH2 0x351E JUMPI PUSH1 0x1 SWAP2 POP JUMPDEST DUP1 PUSH2 0x3528 DUP2 PUSH2 0x5BF0 JUMP JUMPDEST SWAP2 POP POP PUSH2 0x34E7 JUMP JUMPDEST POP DUP1 PUSH2 0x3563 JUMPI PUSH1 0x40 MLOAD PUSH3 0x461BCD PUSH1 0xE5 SHL DUP2 MSTORE PUSH1 0x20 PUSH1 0x4 DUP3 ADD MSTORE PUSH1 0x2 PUSH1 0x24 DUP3 ADD MSTORE PUSH2 0x627 PUSH1 0xF3 SHL PUSH1 0x44 DUP3 ADD MSTORE PUSH1 0x64 ADD PUSH2 0x5E7 JUMP JUMPDEST DUP4 MLOAD PUSH1 0x0 SWAP1 DUP2 MSTORE PUSH1 0xB PUSH1 0x20 SWAP1 DUP2 MSTORE PUSH1 0x40 DUP1 DUP4 KECCAK256 DUP1 SLOAD DUP3 MLOAD DUP2 DUP6 MUL DUP2 ADD DUP6 ADD SWAP1 SWAP4 MSTORE DUP1 DUP4 MSTORE SWAP2 SWAP3 SWAP1 SWAP2 SWAP1 DUP4 ADD DUP3 DUP3 DUP1 ISZERO PUSH2 0x35C5 JUMPI PUSH1 0x20 MUL DUP3 ADD SWAP2 SWAP1 PUSH1 0x0 MSTORE PUSH1 0x20 PUSH1 0x0 KECCAK256 SWAP1 JUMPDEST DUP2 SLOAD PUSH1 0x1 PUSH1 0x1 PUSH1 0xA0 SHL SUB AND DUP2 MSTORE PUSH1 0x1 SWAP1 SWAP2 ADD SWAP1 PUSH1 0x20 ADD DUP1 DUP4 GT PUSH2 0x35A7 JUMPI JUMPDEST POP POP POP POP POP SWAP1 POP PUSH1 0x0 DUP1 JUMPDEST DUP3 MLOAD DUP2 LT ISZERO PUSH2 0x3689 JUMPI DUP6 PUSH1 0x1 PUSH1 0x1 PUSH1 0xA0 SHL SUB AND DUP4 DUP3 DUP2 MLOAD DUP2 LT PUSH2 0x35F5 JUMPI PUSH2 0x35F5 PUSH2 0x5BC4 JUMP JUMPDEST PUSH1 0x20 MUL PUSH1 0x20 ADD ADD MLOAD PUSH1 0x1 PUSH1 0x1 PUSH1 0xA0 SHL SUB AND EQ ISZERO PUSH2 0x3677 JUMPI PUSH1 0x1 PUSH1 0x1 PUSH1 0xA0 SHL SUB DUP7 AND PUSH1 0x0 SWAP1 DUP2 MSTORE PUSH1 0x7 PUSH1 0x20 MSTORE PUSH1 0x40 SWAP1 KECCAK256 PUSH1 0x2 SWAP1 DUP2 ADD DUP1 SLOAD PUSH1 0x1 SWAP5 POP DUP4 SWAP1 DUP2 LT PUSH2 0x363F JUMPI PUSH2 0x363F PUSH2 0x5BC4 JUMP JUMPDEST SWAP1 PUSH1 0x0 MSTORE PUSH1 0x20 PUSH1 0x0 KECCAK256 SWAP1 PUSH1 0x2 MUL ADD PUSH1 0x1 ADD PUSH1 0x3 PUSH2 0x100 EXP DUP2 SLOAD DUP2 PUSH1 0xFF MUL NOT AND SWAP1 DUP4 PUSH1 0x2 DUP2 GT ISZERO PUSH2 0x3671 JUMPI PUSH2 0x3671 PUSH2 0x53A7 JUMP JUMPDEST MUL OR SWAP1 SSTORE POP JUMPDEST DUP1 PUSH2 0x3681 DUP2 PUSH2 0x5BF0 JUMP JUMPDEST SWAP2 POP POP PUSH2 0x35D0 JUMP JUMPDEST POP DUP1 PUSH2 0x36BC JUMPI PUSH1 0x40 MLOAD PUSH3 0x461BCD PUSH1 0xE5 SHL DUP2 MSTORE PUSH1 0x20 PUSH1 0x4 DUP3 ADD MSTORE PUSH1 0x2 PUSH1 0x24 DUP3 ADD MSTORE PUSH2 0x3139 PUSH1 0xF0 SHL PUSH1 0x44 DUP3 ADD MSTORE PUSH1 0x64 ADD PUSH2 0x5E7 JUMP JUMPDEST DUP6 MLOAD PUSH2 0x36C8 SWAP1 DUP7 PUSH2 0x4C55 JUMP JUMPDEST PUSH1 0x3 DUP7 MLOAD PUSH1 0x20 DUP1 DUP10 ADD MLOAD PUSH1 0x40 DUP1 MLOAD PUSH5 0xFFFFFFFFFF TIMESTAMP AND DUP2 MSTORE SWAP3 DUP4 ADD SWAP2 SWAP1 SWAP2 MSTORE PUSH1 0x1 PUSH1 0x1 PUSH1 0xA0 SHL SUB DUP10 AND SWAP3 SWAP2 PUSH1 0x0 DUP1 MLOAD PUSH1 0x20 PUSH2 0x5F74 DUP4 CODECOPY DUP2 MLOAD SWAP2 MSTORE SWAP2 ADD PUSH1 0x40 MLOAD DUP1 SWAP2 SUB SWAP1 LOG4 DUP6 MLOAD PUSH1 0x0 SWAP1 DUP2 MSTORE PUSH1 0x9 PUSH1 0x20 DUP2 DUP2 MSTORE PUSH1 0x40 DUP1 DUP5 KECCAK256 PUSH1 0x1 PUSH1 0x1 PUSH1 0xA0 SHL SUB DUP11 AND DUP1 DUP7 MSTORE SWAP1 DUP4 MSTORE DUP2 DUP6 KECCAK256 SLOAD DUP12 MLOAD DUP7 MSTORE SWAP4 DUP4 MSTORE DUP2 DUP6 KECCAK256 SWAP1 DUP6 MSTORE SWAP1 SWAP2 MSTORE DUP3 KECCAK256 SWAP2 SWAP1 SWAP2 SSTORE PUSH1 0x5 DUP8 MLOAD PUSH1 0x40 DUP1 MLOAD PUSH5 0xFFFFFFFFFF TIMESTAMP AND DUP2 MSTORE PUSH1 0x20 DUP2 ADD DUP6 SWAP1 MSTORE PUSH1 0x1 PUSH1 0x1 PUSH1 0xA0 SHL SUB DUP11 AND SWAP3 SWAP2 PUSH1 0x0 DUP1 MLOAD PUSH1 0x20 PUSH2 0x5F74 DUP4 CODECOPY DUP2 MLOAD SWAP2 MSTORE SWAP2 ADD PUSH1 0x40 MLOAD DUP1 SWAP2 SUB SWAP1 LOG4 PUSH1 0x60 DUP8 ADD MLOAD PUSH1 0x40 MLOAD PUSH4 0xA9059CBB PUSH1 0xE0 SHL DUP2 MSTORE PUSH1 0x1 PUSH1 0x1 PUSH1 0xA0 SHL SUB DUP9 DUP2 AND PUSH1 0x4 DUP4 ADD MSTORE PUSH1 0x24 DUP3 ADD DUP5 SWAP1 MSTORE SWAP1 SWAP2 AND SWAP1 PUSH4 0xA9059CBB SWAP1 PUSH1 0x44 ADD PUSH1 0x20 PUSH1 0x40 MLOAD DUP1 DUP4 SUB DUP2 PUSH1 0x0 DUP8 DUP1 EXTCODESIZE ISZERO DUP1 ISZERO PUSH2 0x37D7 JUMPI PUSH1 0x0 DUP1 REVERT JUMPDEST POP GAS CALL ISZERO DUP1 ISZERO PUSH2 0x37EB JUMPI RETURNDATASIZE PUSH1 0x0 DUP1 RETURNDATACOPY RETURNDATASIZE PUSH1 0x0 REVERT JUMPDEST POP POP POP POP PUSH1 0x40 MLOAD RETURNDATASIZE PUSH1 0x1F NOT PUSH1 0x1F DUP3 ADD AND DUP3 ADD DUP1 PUSH1 0x40 MSTORE POP DUP2 ADD SWAP1 PUSH2 0x380F SWAP2 SWAP1 PUSH2 0x5C41 JUMP JUMPDEST PUSH2 0x3840 JUMPI PUSH1 0x40 MLOAD PUSH3 0x461BCD PUSH1 0xE5 SHL DUP2 MSTORE PUSH1 0x20 PUSH1 0x4 DUP3 ADD MSTORE PUSH1 0x2 PUSH1 0x24 DUP3 ADD MSTORE PUSH2 0x3231 PUSH1 0xF0 SHL PUSH1 0x44 DUP3 ADD MSTORE PUSH1 0x64 ADD PUSH2 0x5E7 JUMP JUMPDEST POP POP POP POP POP POP POP JUMP JUMPDEST PUSH2 0x3851 PUSH2 0x4B99 JUMP JUMPDEST PUSH1 0x20 DUP2 ADD CALLDATALOAD PUSH2 0x3866 PUSH1 0x80 DUP4 ADD PUSH1 0x60 DUP5 ADD PUSH2 0x5383 JUMP JUMPDEST PUSH1 0x40 MLOAD PUSH4 0x6EB1769F PUSH1 0xE1 SHL DUP2 MSTORE CALLER PUSH1 0x4 DUP3 ADD MSTORE ADDRESS PUSH1 0x24 DUP3 ADD MSTORE PUSH1 0x1 PUSH1 0x1 PUSH1 0xA0 SHL SUB SWAP2 SWAP1 SWAP2 AND SWAP1 PUSH4 0xDD62ED3E SWAP1 PUSH1 0x44 ADD PUSH1 0x20 PUSH1 0x40 MLOAD DUP1 DUP4 SUB DUP2 PUSH1 0x0 DUP8 DUP1 EXTCODESIZE ISZERO DUP1 ISZERO PUSH2 0x38AF JUMPI PUSH1 0x0 DUP1 REVERT JUMPDEST POP GAS CALL ISZERO DUP1 ISZERO PUSH2 0x38C3 JUMPI RETURNDATASIZE PUSH1 0x0 DUP1 RETURNDATACOPY RETURNDATASIZE PUSH1 0x0 REVERT JUMPDEST POP POP POP POP PUSH1 0x40 MLOAD RETURNDATASIZE PUSH1 0x1F NOT PUSH1 0x1F DUP3 ADD AND DUP3 ADD DUP1 PUSH1 0x40 MSTORE POP DUP2 ADD SWAP1 PUSH2 0x38E7 SWAP2 SWAP1 PUSH2 0x5E72 JUMP JUMPDEST LT ISZERO DUP1 ISZERO PUSH2 0x3983 JUMPI POP PUSH1 0x20 DUP2 ADD CALLDATALOAD PUSH2 0x3905 PUSH1 0x80 DUP4 ADD PUSH1 0x60 DUP5 ADD PUSH2 0x5383 JUMP JUMPDEST PUSH1 0x40 MLOAD PUSH4 0x70A08231 PUSH1 0xE0 SHL DUP2 MSTORE CALLER PUSH1 0x4 DUP3 ADD MSTORE PUSH1 0x1 PUSH1 0x1 PUSH1 0xA0 SHL SUB SWAP2 SWAP1 SWAP2 AND SWAP1 PUSH4 0x70A08231 SWAP1 PUSH1 0x24 ADD PUSH1 0x20 PUSH1 0x40 MLOAD DUP1 DUP4 SUB DUP2 PUSH1 0x0 DUP8 DUP1 EXTCODESIZE ISZERO DUP1 ISZERO PUSH2 0x3948 JUMPI PUSH1 0x0 DUP1 REVERT JUMPDEST POP GAS CALL ISZERO DUP1 ISZERO PUSH2 0x395C JUMPI RETURNDATASIZE PUSH1 0x0 DUP1 RETURNDATACOPY RETURNDATASIZE PUSH1 0x0 REVERT JUMPDEST POP POP POP POP PUSH1 0x40 MLOAD RETURNDATASIZE PUSH1 0x1F NOT PUSH1 0x1F DUP3 ADD AND DUP3 ADD DUP1 PUSH1 0x40 MSTORE POP DUP2 ADD SWAP1 PUSH2 0x3980 SWAP2 SWAP1 PUSH2 0x5E72 JUMP JUMPDEST LT ISZERO JUMPDEST PUSH2 0x39B4 JUMPI PUSH1 0x40 MLOAD PUSH3 0x461BCD PUSH1 0xE5 SHL DUP2 MSTORE PUSH1 0x20 PUSH1 0x4 DUP3 ADD MSTORE PUSH1 0x2 PUSH1 0x24 DUP3 ADD MSTORE PUSH2 0x323 PUSH1 0xF4 SHL PUSH1 0x44 DUP3 ADD MSTORE PUSH1 0x64 ADD PUSH2 0x5E7 JUMP JUMPDEST PUSH2 0x39CA DUP2 CALLDATALOAD PUSH2 0xA11 PUSH2 0x100 DUP5 ADD PUSH1 0xE0 DUP6 ADD PUSH2 0x5C0B JUMP JUMPDEST PUSH2 0x39FA JUMPI PUSH1 0x40 MLOAD PUSH3 0x461BCD PUSH1 0xE5 SHL DUP2 MSTORE PUSH1 0x20 PUSH1 0x4 DUP3 ADD MSTORE PUSH1 0x1 PUSH1 0x24 DUP3 ADD MSTORE PUSH1 0x37 PUSH1 0xF8 SHL PUSH1 0x44 DUP3 ADD MSTORE PUSH1 0x64 ADD PUSH2 0x5E7 JUMP JUMPDEST DUP1 CALLDATALOAD PUSH1 0x0 DUP2 DUP2 MSTORE PUSH1 0xB PUSH1 0x20 SWAP1 DUP2 MSTORE PUSH1 0x40 DUP1 DUP4 KECCAK256 DUP1 SLOAD PUSH1 0x1 DUP2 ADD DUP3 SSTORE SWAP1 DUP5 MSTORE SWAP3 DUP3 SWAP1 KECCAK256 SWAP1 SWAP3 ADD DUP1 SLOAD PUSH1 0x1 PUSH1 0x1 PUSH1 0xA0 SHL SUB NOT AND CALLER OR SWAP1 SSTORE DUP2 MLOAD PUSH1 0x80 DUP2 ADD SWAP1 SWAP3 MSTORE SWAP2 DUP2 MSTORE PUSH2 0x3A8C SWAP2 DUP2 ADD PUSH2 0x3A52 PUSH2 0x100 DUP6 ADD PUSH1 0xE0 DUP7 ADD PUSH2 0x5C0B JUMP JUMPDEST PUSH2 0xFFFF AND DUP2 MSTORE PUSH1 0x20 ADD PUSH2 0x3A6B PUSH1 0xE0 DUP6 ADD PUSH1 0xC0 DUP7 ADD PUSH2 0x5C26 JUMP JUMPDEST PUSH1 0x3 DUP2 GT ISZERO PUSH2 0x3A7C JUMPI PUSH2 0x3A7C PUSH2 0x53A7 JUMP JUMPDEST DUP2 MSTORE PUSH1 0x20 ADD PUSH1 0x0 SWAP1 MSTORE PUSH1 0x0 PUSH2 0x4E94 JUMP JUMPDEST PUSH1 0x20 DUP2 ADD CALLDATALOAD PUSH1 0x1 PUSH1 0x2 PUSH2 0x3AA5 PUSH1 0xE0 DUP6 ADD PUSH1 0xC0 DUP7 ADD PUSH2 0x5C26 JUMP JUMPDEST PUSH1 0x3 DUP2 GT ISZERO PUSH2 0x3AB6 JUMPI PUSH2 0x3AB6 PUSH2 0x53A7 JUMP JUMPDEST EQ ISZERO PUSH2 0x3AD2 JUMPI PUSH2 0x3AC7 PUSH1 0x3 DUP4 PUSH2 0x5CAF JUMP JUMPDEST SWAP2 POP PUSH1 0x2 SWAP1 POP PUSH2 0x3B0D JUMP JUMPDEST PUSH1 0x3 PUSH2 0x3AE4 PUSH1 0xE0 DUP6 ADD PUSH1 0xC0 DUP7 ADD PUSH2 0x5C26 JUMP JUMPDEST PUSH1 0x3 DUP2 GT ISZERO PUSH2 0x3AF5 JUMPI PUSH2 0x3AF5 PUSH2 0x53A7 JUMP JUMPDEST EQ ISZERO PUSH2 0x3B0D JUMPI PUSH2 0x3B06 PUSH1 0xC DUP4 PUSH2 0x5CAF JUMP JUMPDEST SWAP2 POP PUSH1 0xB SWAP1 POP JUMPDEST DUP3 CALLDATALOAD PUSH1 0x0 SWAP1 DUP2 MSTORE PUSH1 0x9 PUSH1 0x20 SWAP1 DUP2 MSTORE PUSH1 0x40 DUP1 DUP4 KECCAK256 CALLER DUP5 MSTORE SWAP1 SWAP2 MSTORE DUP2 KECCAK256 DUP1 SLOAD DUP5 SWAP3 SWAP1 PUSH2 0x3B38 SWAP1 DUP5 SWAP1 PUSH2 0x5DF7 JUMP JUMPDEST SWAP1 SWAP2 SSTORE POP PUSH1 0x2 SWAP1 POP PUSH1 0x40 DUP1 MLOAD PUSH5 0xFFFFFFFFFF TIMESTAMP AND DUP2 MSTORE PUSH1 0x20 DUP1 DUP8 ADD CALLDATALOAD SWAP1 DUP3 ADD MSTORE CALLER SWAP2 DUP7 CALLDATALOAD SWAP2 PUSH1 0x0 DUP1 MLOAD PUSH1 0x20 PUSH2 0x5F74 DUP4 CODECOPY DUP2 MLOAD SWAP2 MSTORE SWAP2 ADD PUSH1 0x40 MLOAD DUP1 SWAP2 SUB SWAP1 LOG4 PUSH1 0x4 PUSH1 0x40 DUP1 MLOAD PUSH5 0xFFFFFFFFFF TIMESTAMP AND DUP2 MSTORE PUSH1 0x20 DUP1 DUP8 ADD CALLDATALOAD SWAP1 DUP3 ADD MSTORE CALLER SWAP2 DUP7 CALLDATALOAD SWAP2 PUSH1 0x0 DUP1 MLOAD PUSH1 0x20 PUSH2 0x5F74 DUP4 CODECOPY DUP2 MLOAD SWAP2 MSTORE SWAP2 ADD PUSH1 0x40 MLOAD DUP1 SWAP2 SUB SWAP1 LOG4 PUSH2 0x3BBE PUSH1 0x80 DUP5 ADD PUSH1 0x60 DUP6 ADD PUSH2 0x5383 JUMP JUMPDEST PUSH1 0x40 MLOAD PUSH4 0x23B872DD PUSH1 0xE0 SHL DUP2 MSTORE CALLER PUSH1 0x4 DUP3 ADD MSTORE ADDRESS PUSH1 0x24 DUP3 ADD MSTORE PUSH1 0x44 DUP2 ADD DUP5 SWAP1 MSTORE PUSH1 0x1 PUSH1 0x1 PUSH1 0xA0 SHL SUB SWAP2 SWAP1 SWAP2 AND SWAP1 PUSH4 0x23B872DD SWAP1 PUSH1 0x64 ADD PUSH1 0x20 PUSH1 0x40 MLOAD DUP1 DUP4 SUB DUP2 PUSH1 0x0 DUP8 DUP1 EXTCODESIZE ISZERO DUP1 ISZERO PUSH2 0x3C0E JUMPI PUSH1 0x0 DUP1 REVERT JUMPDEST POP GAS CALL ISZERO DUP1 ISZERO PUSH2 0x3C22 JUMPI RETURNDATASIZE PUSH1 0x0 DUP1 RETURNDATACOPY RETURNDATASIZE PUSH1 0x0 REVERT JUMPDEST POP POP POP POP PUSH1 0x40 MLOAD RETURNDATASIZE PUSH1 0x1F NOT PUSH1 0x1F DUP3 ADD AND DUP3 ADD DUP1 PUSH1 0x40 MSTORE POP DUP2 ADD SWAP1 PUSH2 0x3C46 SWAP2 SWAP1 PUSH2 0x5C41 JUMP JUMPDEST PUSH2 0x3C4F JUMPI PUSH1 0x0 DUP1 REVERT JUMPDEST PUSH1 0x2 PUSH2 0x3C61 PUSH1 0xE0 DUP6 ADD PUSH1 0xC0 DUP7 ADD PUSH2 0x5C26 JUMP JUMPDEST PUSH1 0x3 DUP2 GT ISZERO PUSH2 0x3C72 JUMPI PUSH2 0x3C72 PUSH2 0x53A7 JUMP JUMPDEST EQ DUP1 PUSH2 0x3C9E JUMPI POP PUSH1 0x3 PUSH2 0x3C8B PUSH1 0xE0 DUP6 ADD PUSH1 0xC0 DUP7 ADD PUSH2 0x5C26 JUMP JUMPDEST PUSH1 0x3 DUP2 GT ISZERO PUSH2 0x3C9C JUMPI PUSH2 0x3C9C PUSH2 0x53A7 JUMP JUMPDEST EQ JUMPDEST ISZERO PUSH2 0x3D6C JUMPI PUSH2 0x3CB3 PUSH1 0x80 DUP5 ADD PUSH1 0x60 DUP6 ADD PUSH2 0x5383 JUMP JUMPDEST PUSH1 0x1 PUSH1 0x1 PUSH1 0xA0 SHL SUB AND PUSH4 0x23B872DD CALLER PUSH2 0x3CD2 PUSH1 0x60 DUP8 ADD PUSH1 0x40 DUP9 ADD PUSH2 0x5383 JUMP JUMPDEST PUSH2 0x3CDC DUP6 DUP8 PUSH2 0x5E3C JUMP JUMPDEST PUSH1 0x40 MLOAD PUSH1 0x1 PUSH1 0x1 PUSH1 0xE0 SHL SUB NOT PUSH1 0xE0 DUP7 SWAP1 SHL AND DUP2 MSTORE PUSH1 0x1 PUSH1 0x1 PUSH1 0xA0 SHL SUB SWAP4 DUP5 AND PUSH1 0x4 DUP3 ADD MSTORE SWAP3 SWAP1 SWAP2 AND PUSH1 0x24 DUP4 ADD MSTORE PUSH1 0x44 DUP3 ADD MSTORE PUSH1 0x64 ADD PUSH1 0x20 PUSH1 0x40 MLOAD DUP1 DUP4 SUB DUP2 PUSH1 0x0 DUP8 DUP1 EXTCODESIZE ISZERO DUP1 ISZERO PUSH2 0x3D2B JUMPI PUSH1 0x0 DUP1 REVERT JUMPDEST POP GAS CALL ISZERO DUP1 ISZERO PUSH2 0x3D3F JUMPI RETURNDATASIZE PUSH1 0x0 DUP1 RETURNDATACOPY RETURNDATASIZE PUSH1 0x0 REVERT JUMPDEST POP POP POP POP PUSH1 0x40 MLOAD RETURNDATASIZE PUSH1 0x1F NOT PUSH1 0x1F DUP3 ADD AND DUP3 ADD DUP1 PUSH1 0x40 MSTORE POP DUP2 ADD SWAP1 PUSH2 0x3D63 SWAP2 SWAP1 PUSH2 0x5C41 JUMP JUMPDEST PUSH2 0x3D6C JUMPI PUSH1 0x0 DUP1 REVERT JUMPDEST POP POP POP JUMP JUMPDEST PUSH1 0x60 PUSH2 0x3D7B PUSH2 0x4B1E JUMP JUMPDEST PUSH1 0x60 DUP4 ISZERO PUSH2 0x3E7A JUMPI PUSH1 0x1 PUSH1 0x1 PUSH1 0xA0 SHL SUB DUP4 AND PUSH1 0x0 SWAP1 DUP2 MSTORE PUSH1 0x7 PUSH1 0x20 SWAP1 DUP2 MSTORE PUSH1 0x40 DUP1 DUP4 KECCAK256 PUSH1 0x2 ADD DUP1 SLOAD DUP3 MLOAD DUP2 DUP6 MUL DUP2 ADD DUP6 ADD SWAP1 SWAP4 MSTORE DUP1 DUP4 MSTORE SWAP2 SWAP4 SWAP1 SWAP3 DUP5 ADD JUMPDEST DUP3 DUP3 LT ISZERO PUSH2 0x3E6F JUMPI PUSH1 0x0 DUP5 DUP2 MSTORE PUSH1 0x20 SWAP1 DUP2 SWAP1 KECCAK256 PUSH1 0x40 DUP1 MLOAD PUSH1 0x80 DUP2 ADD DUP3 MSTORE PUSH1 0x2 DUP7 MUL SWAP1 SWAP3 ADD DUP1 SLOAD DUP4 MSTORE PUSH1 0x1 DUP2 ADD SLOAD PUSH2 0xFFFF DUP2 AND SWAP5 DUP5 ADD SWAP5 SWAP1 SWAP5 MSTORE SWAP2 SWAP3 SWAP1 DUP4 ADD SWAP1 PUSH3 0x10000 SWAP1 DIV PUSH1 0xFF AND PUSH1 0x3 DUP2 GT ISZERO PUSH2 0x3E12 JUMPI PUSH2 0x3E12 PUSH2 0x53A7 JUMP JUMPDEST PUSH1 0x3 DUP2 GT ISZERO PUSH2 0x3E23 JUMPI PUSH2 0x3E23 PUSH2 0x53A7 JUMP JUMPDEST DUP2 MSTORE PUSH1 0x20 ADD PUSH1 0x1 DUP3 ADD PUSH1 0x3 SWAP1 SLOAD SWAP1 PUSH2 0x100 EXP SWAP1 DIV PUSH1 0xFF AND PUSH1 0x2 DUP2 GT ISZERO PUSH2 0x3E4B JUMPI PUSH2 0x3E4B PUSH2 0x53A7 JUMP JUMPDEST PUSH1 0x2 DUP2 GT ISZERO PUSH2 0x3E5C JUMPI PUSH2 0x3E5C PUSH2 0x53A7 JUMP JUMPDEST DUP2 MSTORE POP POP DUP2 MSTORE PUSH1 0x20 ADD SWAP1 PUSH1 0x1 ADD SWAP1 PUSH2 0x3DB9 JUMP JUMPDEST POP POP POP POP SWAP1 POP PUSH2 0x3F6D JUMP JUMPDEST PUSH1 0x1 PUSH1 0x1 PUSH1 0xA0 SHL SUB DUP4 AND PUSH1 0x0 SWAP1 DUP2 MSTORE PUSH1 0x7 PUSH1 0x20 SWAP1 DUP2 MSTORE PUSH1 0x40 DUP1 DUP4 KECCAK256 PUSH1 0x3 ADD DUP1 SLOAD DUP3 MLOAD DUP2 DUP6 MUL DUP2 ADD DUP6 ADD SWAP1 SWAP4 MSTORE DUP1 DUP4 MSTORE SWAP2 SWAP4 SWAP1 SWAP3 DUP5 ADD JUMPDEST DUP3 DUP3 LT ISZERO PUSH2 0x3F66 JUMPI PUSH1 0x0 DUP5 DUP2 MSTORE PUSH1 0x20 SWAP1 DUP2 SWAP1 KECCAK256 PUSH1 0x40 DUP1 MLOAD PUSH1 0x80 DUP2 ADD DUP3 MSTORE PUSH1 0x2 DUP7 MUL SWAP1 SWAP3 ADD DUP1 SLOAD DUP4 MSTORE PUSH1 0x1 DUP2 ADD SLOAD PUSH2 0xFFFF DUP2 AND SWAP5 DUP5 ADD SWAP5 SWAP1 SWAP5 MSTORE SWAP2 SWAP3 SWAP1 DUP4 ADD SWAP1 PUSH3 0x10000 SWAP1 DIV PUSH1 0xFF AND PUSH1 0x3 DUP2 GT ISZERO PUSH2 0x3F09 JUMPI PUSH2 0x3F09 PUSH2 0x53A7 JUMP JUMPDEST PUSH1 0x3 DUP2 GT ISZERO PUSH2 0x3F1A JUMPI PUSH2 0x3F1A PUSH2 0x53A7 JUMP JUMPDEST DUP2 MSTORE PUSH1 0x20 ADD PUSH1 0x1 DUP3 ADD PUSH1 0x3 SWAP1 SLOAD SWAP1 PUSH2 0x100 EXP SWAP1 DIV PUSH1 0xFF AND PUSH1 0x2 DUP2 GT ISZERO PUSH2 0x3F42 JUMPI PUSH2 0x3F42 PUSH2 0x53A7 JUMP JUMPDEST PUSH1 0x2 DUP2 GT ISZERO PUSH2 0x3F53 JUMPI PUSH2 0x3F53 PUSH2 0x53A7 JUMP JUMPDEST DUP2 MSTORE POP POP DUP2 MSTORE PUSH1 0x20 ADD SWAP1 PUSH1 0x1 ADD SWAP1 PUSH2 0x3EB0 JUMP JUMPDEST POP POP POP POP SWAP1 POP JUMPDEST PUSH1 0x0 DUP2 MLOAD PUSH8 0xFFFFFFFFFFFFFFFF DUP2 GT ISZERO PUSH2 0x3F89 JUMPI PUSH2 0x3F89 PUSH2 0x58E1 JUMP JUMPDEST PUSH1 0x40 MLOAD SWAP1 DUP1 DUP3 MSTORE DUP1 PUSH1 0x20 MUL PUSH1 0x20 ADD DUP3 ADD PUSH1 0x40 MSTORE DUP1 ISZERO PUSH2 0x4024 JUMPI DUP2 PUSH1 0x20 ADD JUMPDEST PUSH2 0x4011 PUSH1 0x40 DUP1 MLOAD PUSH2 0x180 DUP2 ADD SWAP1 SWAP2 MSTORE PUSH1 0x0 PUSH1 0x60 DUP1 DUP4 ADD DUP3 DUP2 MSTORE PUSH1 0x80 DUP5 ADD DUP4 SWAP1 MSTORE PUSH1 0xA0 DUP5 ADD DUP4 SWAP1 MSTORE PUSH1 0xC0 DUP5 ADD DUP4 SWAP1 MSTORE PUSH1 0xE0 DUP5 ADD DUP4 SWAP1 MSTORE PUSH2 0x100 DUP5 ADD DUP4 SWAP1 MSTORE PUSH2 0x120 DUP5 ADD DUP4 SWAP1 MSTORE PUSH2 0x140 DUP5 ADD SWAP3 SWAP1 SWAP3 MSTORE PUSH2 0x160 DUP4 ADD MSTORE DUP2 SWAP1 DUP2 MSTORE PUSH1 0x20 ADD PUSH1 0x0 DUP2 MSTORE PUSH1 0x20 ADD PUSH1 0x0 DUP2 MSTORE POP SWAP1 JUMP JUMPDEST DUP2 MSTORE PUSH1 0x20 ADD SWAP1 PUSH1 0x1 SWAP1 SUB SWAP1 DUP2 PUSH2 0x3FA7 JUMPI SWAP1 POP JUMPDEST POP SWAP1 POP PUSH1 0x0 JUMPDEST DUP3 MLOAD DUP2 LT ISZERO PUSH2 0x4138 JUMPI PUSH2 0x4048 DUP4 DUP3 DUP2 MLOAD DUP2 LT PUSH2 0x21F2 JUMPI PUSH2 0x21F2 PUSH2 0x5BC4 JUMP JUMPDEST DUP3 DUP3 DUP2 MLOAD DUP2 LT PUSH2 0x405A JUMPI PUSH2 0x405A PUSH2 0x5BC4 JUMP JUMPDEST PUSH1 0x20 MUL PUSH1 0x20 ADD ADD MLOAD PUSH1 0x0 ADD DUP2 SWAP1 MSTORE POP DUP3 DUP2 DUP2 MLOAD DUP2 LT PUSH2 0x407B JUMPI PUSH2 0x407B PUSH2 0x5BC4 JUMP JUMPDEST PUSH1 0x20 MUL PUSH1 0x20 ADD ADD MLOAD PUSH1 0x60 ADD MLOAD DUP3 DUP3 DUP2 MLOAD DUP2 LT PUSH2 0x4099 JUMPI PUSH2 0x4099 PUSH2 0x5BC4 JUMP JUMPDEST PUSH1 0x20 MUL PUSH1 0x20 ADD ADD MLOAD PUSH1 0x20 ADD SWAP1 PUSH1 0x2 DUP2 GT ISZERO PUSH2 0x40B6 JUMPI PUSH2 0x40B6 PUSH2 0x53A7 JUMP JUMPDEST SWAP1 DUP2 PUSH1 0x2 DUP2 GT ISZERO PUSH2 0x40C9 JUMPI PUSH2 0x40C9 PUSH2 0x53A7 JUMP JUMPDEST DUP2 MSTORE POP POP PUSH1 0xB PUSH1 0x0 DUP4 DUP4 DUP2 MLOAD DUP2 LT PUSH2 0x40E3 JUMPI PUSH2 0x40E3 PUSH2 0x5BC4 JUMP JUMPDEST PUSH1 0x20 MUL PUSH1 0x20 ADD ADD MLOAD PUSH1 0x0 ADD MLOAD PUSH1 0x0 ADD MLOAD DUP2 MSTORE PUSH1 0x20 ADD SWAP1 DUP2 MSTORE PUSH1 0x20 ADD PUSH1 0x0 KECCAK256 DUP1 SLOAD SWAP1 POP DUP3 DUP3 DUP2 MLOAD DUP2 LT PUSH2 0x4117 JUMPI PUSH2 0x4117 PUSH2 0x5BC4 JUMP JUMPDEST PUSH1 0x20 SWAP1 DUP2 MUL SWAP2 SWAP1 SWAP2 ADD ADD MLOAD PUSH1 0x40 ADD MSTORE DUP1 PUSH2 0x4130 DUP2 PUSH2 0x5BF0 JUMP JUMPDEST SWAP2 POP POP PUSH2 0x402A JUMP JUMPDEST POP SWAP2 POP POP JUMPDEST SWAP3 SWAP2 POP POP JUMP JUMPDEST PUSH2 0x414B PUSH2 0x4B1E JUMP JUMPDEST PUSH1 0x6 DUP1 SLOAD SWAP2 ISZERO ISZERO PUSH1 0x1 PUSH1 0xD0 SHL MUL PUSH1 0xFF PUSH1 0xD0 SHL NOT SWAP1 SWAP3 AND SWAP2 SWAP1 SWAP2 OR SWAP1 SSTORE JUMP JUMPDEST PUSH2 0x4171 PUSH2 0x4B1E JUMP JUMPDEST PUSH2 0x1388 SELFBALANCE GT ISZERO PUSH2 0x41CA JUMPI PUSH1 0x6 SLOAD PUSH7 0x1000000000000 SWAP1 DIV PUSH1 0x1 PUSH1 0x1 PUSH1 0xA0 SHL SUB AND PUSH2 0x8FC PUSH2 0x41A0 PUSH2 0x1388 SELFBALANCE PUSH2 0x5E5B JUMP JUMPDEST PUSH1 0x40 MLOAD DUP2 ISZERO SWAP1 SWAP3 MUL SWAP2 PUSH1 0x0 DUP2 DUP2 DUP2 DUP6 DUP9 DUP9 CALL SWAP4 POP POP POP POP ISZERO DUP1 ISZERO PUSH2 0x41C8 JUMPI RETURNDATASIZE PUSH1 0x0 DUP1 RETURNDATACOPY RETURNDATASIZE PUSH1 0x0 REVERT JUMPDEST POP JUMPDEST JUMP JUMPDEST PUSH1 0x60 PUSH1 0x0 PUSH2 0x41D9 TIMESTAMP PUSH2 0x51D1 JUMP JUMPDEST PUSH1 0x6 SLOAD SWAP1 SWAP2 POP PUSH5 0xFFFFFFFFFF PUSH2 0x100 SWAP1 SWAP2 DIV DUP2 AND SWAP1 DUP3 AND GT PUSH2 0x4222 JUMPI PUSH1 0x40 MLOAD PUSH3 0x461BCD PUSH1 0xE5 SHL DUP2 MSTORE PUSH1 0x20 PUSH1 0x4 DUP3 ADD MSTORE PUSH1 0x2 PUSH1 0x24 DUP3 ADD MSTORE PUSH2 0xC4D PUSH1 0xF2 SHL PUSH1 0x44 DUP3 ADD MSTORE PUSH1 0x64 ADD PUSH2 0x5E7 JUMP JUMPDEST PUSH1 0x0 PUSH2 0x422D TIMESTAMP PUSH2 0x1CD4 JUMP JUMPDEST SWAP1 POP PUSH1 0x0 DUP1 PUSH1 0x0 PUSH1 0x2 SLOAD PUSH8 0xFFFFFFFFFFFFFFFF DUP2 GT ISZERO PUSH2 0x424F JUMPI PUSH2 0x424F PUSH2 0x58E1 JUMP JUMPDEST PUSH1 0x40 MLOAD SWAP1 DUP1 DUP3 MSTORE DUP1 PUSH1 0x20 MUL PUSH1 0x20 ADD DUP3 ADD PUSH1 0x40 MSTORE DUP1 ISZERO PUSH2 0x4294 JUMPI DUP2 PUSH1 0x20 ADD JUMPDEST PUSH1 0x40 DUP1 MLOAD DUP1 DUP3 ADD SWAP1 SWAP2 MSTORE PUSH1 0x0 DUP1 DUP3 MSTORE PUSH1 0x20 DUP3 ADD MSTORE DUP2 MSTORE PUSH1 0x20 ADD SWAP1 PUSH1 0x1 SWAP1 SUB SWAP1 DUP2 PUSH2 0x426D JUMPI SWAP1 POP JUMPDEST POP SWAP1 POP PUSH1 0x0 JUMPDEST PUSH1 0x3 DUP2 GT PUSH2 0x4577 JUMPI PUSH1 0x0 DUP2 PUSH2 0x42B0 JUMPI POP PUSH1 0x20 DUP6 ADD MLOAD JUMPDEST PUSH1 0x1 DUP3 EQ ISZERO PUSH2 0x42BD JUMPI POP DUP5 MLOAD JUMPDEST PUSH1 0x2 DUP3 EQ ISZERO PUSH2 0x42CD JUMPI POP PUSH1 0x40 DUP6 ADD MLOAD JUMPDEST PUSH1 0x3 DUP3 EQ ISZERO PUSH2 0x42DD JUMPI POP PUSH1 0x60 DUP6 ADD MLOAD JUMPDEST PUSH1 0x0 JUMPDEST PUSH1 0x0 DUP4 DUP2 MSTORE PUSH1 0xA PUSH1 0x20 SWAP1 DUP2 MSTORE PUSH1 0x40 DUP1 DUP4 KECCAK256 PUSH2 0xFFFF DUP7 AND DUP5 MSTORE SWAP1 SWAP2 MSTORE SWAP1 KECCAK256 SLOAD DUP2 LT ISZERO PUSH2 0x4562 JUMPI PUSH1 0x0 DUP4 DUP2 MSTORE PUSH1 0xA PUSH1 0x20 SWAP1 DUP2 MSTORE PUSH1 0x40 DUP1 DUP4 KECCAK256 PUSH2 0xFFFF DUP7 AND DUP5 MSTORE SWAP1 SWAP2 MSTORE SWAP1 KECCAK256 DUP1 SLOAD DUP3 SWAP1 DUP2 LT PUSH2 0x4334 JUMPI PUSH2 0x4334 PUSH2 0x5BC4 JUMP JUMPDEST SWAP1 PUSH1 0x0 MSTORE PUSH1 0x20 PUSH1 0x0 KECCAK256 SWAP1 PUSH1 0x5 MUL ADD PUSH1 0x3 ADD PUSH1 0x15 SWAP1 SLOAD SWAP1 PUSH2 0x100 EXP SWAP1 DIV PUSH1 0xFF AND PUSH2 0x4550 JUMPI PUSH1 0x0 DUP4 DUP2 MSTORE PUSH1 0xA PUSH1 0x20 SWAP1 DUP2 MSTORE PUSH1 0x40 DUP1 DUP4 KECCAK256 PUSH2 0xFFFF DUP7 AND DUP5 MSTORE SWAP1 SWAP2 MSTORE DUP2 KECCAK256 DUP1 SLOAD DUP4 SWAP1 DUP2 LT PUSH2 0x4386 JUMPI PUSH2 0x4386 PUSH2 0x5BC4 JUMP JUMPDEST PUSH1 0x0 SWAP2 DUP3 MSTORE PUSH1 0x20 DUP1 DUP4 KECCAK256 PUSH1 0x5 SWAP1 SWAP3 MUL SWAP1 SWAP2 ADD SLOAD DUP7 DUP4 MSTORE PUSH1 0xA DUP3 MSTORE PUSH1 0x40 DUP1 DUP5 KECCAK256 PUSH2 0xFFFF DUP9 AND DUP6 MSTORE SWAP1 SWAP3 MSTORE SWAP1 DUP3 KECCAK256 DUP1 SLOAD SWAP2 SWAP4 POP SWAP1 DUP5 SWAP1 DUP2 LT PUSH2 0x43C8 JUMPI PUSH2 0x43C8 PUSH2 0x5BC4 JUMP JUMPDEST PUSH1 0x0 SWAP2 DUP3 MSTORE PUSH1 0x20 DUP1 DUP4 KECCAK256 PUSH1 0x3 PUSH1 0x5 SWAP1 SWAP4 MUL ADD SWAP2 SWAP1 SWAP2 ADD SLOAD DUP8 DUP4 MSTORE PUSH1 0xA DUP3 MSTORE PUSH1 0x40 DUP1 DUP5 KECCAK256 PUSH2 0xFFFF DUP10 AND DUP6 MSTORE SWAP1 SWAP3 MSTORE SWAP1 DUP3 KECCAK256 DUP1 SLOAD PUSH1 0x1 PUSH1 0x1 PUSH1 0xA0 SHL SUB SWAP1 SWAP3 AND SWAP4 POP SWAP1 DUP6 SWAP1 DUP2 LT PUSH2 0x4418 JUMPI PUSH2 0x4418 PUSH2 0x5BC4 JUMP JUMPDEST SWAP1 PUSH1 0x0 MSTORE PUSH1 0x20 PUSH1 0x0 KECCAK256 SWAP1 PUSH1 0x5 MUL ADD PUSH1 0x1 ADD SLOAD SWAP1 POP PUSH2 0x4452 PUSH1 0x40 MLOAD DUP1 PUSH1 0x40 ADD PUSH1 0x40 MSTORE DUP1 PUSH1 0x0 DUP2 MSTORE PUSH1 0x20 ADD PUSH1 0x0 PUSH1 0x1 PUSH1 0x1 PUSH1 0xA0 SHL SUB AND DUP2 MSTORE POP SWAP1 JUMP JUMPDEST PUSH1 0x0 DUP3 PUSH2 0x2710 PUSH1 0x0 SLOAD DUP6 PUSH2 0x4466 SWAP2 SWAP1 PUSH2 0x5E3C JUMP JUMPDEST PUSH2 0x4470 SWAP2 SWAP1 PUSH2 0x5CAF JUMP JUMPDEST PUSH2 0x447A SWAP2 SWAP1 PUSH2 0x5E5B JUMP JUMPDEST SWAP1 POP PUSH1 0x0 DUP1 JUMPDEST PUSH1 0x0 DUP8 DUP2 MSTORE PUSH1 0xB PUSH1 0x20 MSTORE PUSH1 0x40 SWAP1 KECCAK256 SLOAD DUP2 LT ISZERO PUSH2 0x4548 JUMPI PUSH1 0x2 SLOAD DUP14 EQ ISZERO PUSH2 0x44B4 JUMPI POP SWAP9 SWAP15 SWAP14 POP POP POP POP POP POP POP POP POP POP POP POP POP POP JUMP JUMPDEST PUSH1 0x3 SLOAD ISZERO DUP1 PUSH2 0x44CA JUMPI POP PUSH1 0x6 SLOAD PUSH1 0xFF AND ISZERO ISZERO PUSH1 0x1 EQ JUMPDEST ISZERO PUSH2 0x4536 JUMPI DUP13 PUSH2 0x44D9 DUP2 PUSH2 0x5BF0 JUMP JUMPDEST SWAP14 POP PUSH2 0x44E7 SWAP1 POP DUP4 DUP4 PUSH2 0x5DF7 JUMP JUMPDEST SWAP2 POP PUSH1 0x40 MLOAD DUP1 PUSH1 0x40 ADD PUSH1 0x40 MSTORE DUP1 DUP4 DUP2 MSTORE PUSH1 0x20 ADD DUP8 PUSH1 0x1 PUSH1 0x1 PUSH1 0xA0 SHL SUB AND DUP2 MSTORE POP SWAP4 POP DUP4 DUP12 DUP14 DUP2 MLOAD DUP2 LT PUSH2 0x451C JUMPI PUSH2 0x451C PUSH2 0x5BC4 JUMP JUMPDEST PUSH1 0x20 MUL PUSH1 0x20 ADD ADD DUP2 SWAP1 MSTORE POP DUP12 DUP1 PUSH2 0x4532 SWAP1 PUSH2 0x5BF0 JUMP JUMPDEST SWAP13 POP POP JUMPDEST DUP1 PUSH2 0x4540 DUP2 PUSH2 0x5BF0 JUMP JUMPDEST SWAP2 POP POP PUSH2 0x4480 JUMP JUMPDEST POP POP POP POP POP POP POP JUMPDEST DUP1 PUSH2 0x455A DUP2 PUSH2 0x5BF0 JUMP JUMPDEST SWAP2 POP POP PUSH2 0x42E0 JUMP JUMPDEST POP POP DUP1 DUP1 PUSH2 0x456F SWAP1 PUSH2 0x5BF0 JUMP JUMPDEST SWAP2 POP POP PUSH2 0x429A JUMP JUMPDEST POP PUSH1 0x0 DUP1 JUMPDEST DUP3 MLOAD DUP2 LT ISZERO PUSH2 0x45D7 JUMPI PUSH1 0x0 PUSH1 0x1 PUSH1 0x1 PUSH1 0xA0 SHL SUB AND DUP4 DUP3 DUP2 MLOAD DUP2 LT PUSH2 0x45A2 JUMPI PUSH2 0x45A2 PUSH2 0x5BC4 JUMP JUMPDEST PUSH1 0x20 MUL PUSH1 0x20 ADD ADD MLOAD PUSH1 0x20 ADD MLOAD PUSH1 0x1 PUSH1 0x1 PUSH1 0xA0 SHL SUB AND EQ ISZERO PUSH2 0x45C5 JUMPI DUP1 SWAP2 POP PUSH2 0x45D7 JUMP JUMPDEST DUP1 PUSH2 0x45CF DUP2 PUSH2 0x5BF0 JUMP JUMPDEST SWAP2 POP POP PUSH2 0x457C JUMP JUMPDEST POP PUSH1 0x0 DUP2 PUSH8 0xFFFFFFFFFFFFFFFF DUP2 GT ISZERO PUSH2 0x45F3 JUMPI PUSH2 0x45F3 PUSH2 0x58E1 JUMP JUMPDEST PUSH1 0x40 MLOAD SWAP1 DUP1 DUP3 MSTORE DUP1 PUSH1 0x20 MUL PUSH1 0x20 ADD DUP3 ADD PUSH1 0x40 MSTORE DUP1 ISZERO PUSH2 0x4638 JUMPI DUP2 PUSH1 0x20 ADD JUMPDEST PUSH1 0x40 DUP1 MLOAD DUP1 DUP3 ADD SWAP1 SWAP2 MSTORE PUSH1 0x0 DUP1 DUP3 MSTORE PUSH1 0x20 DUP3 ADD MSTORE DUP2 MSTORE PUSH1 0x20 ADD SWAP1 PUSH1 0x1 SWAP1 SUB SWAP1 DUP2 PUSH2 0x4611 JUMPI SWAP1 POP JUMPDEST POP SWAP1 POP PUSH1 0x0 JUMPDEST DUP3 DUP2 LT ISZERO PUSH2 0x4690 JUMPI DUP4 DUP2 DUP2 MLOAD DUP2 LT PUSH2 0x4658 JUMPI PUSH2 0x4658 PUSH2 0x5BC4 JUMP JUMPDEST PUSH1 0x20 MUL PUSH1 0x20 ADD ADD MLOAD DUP3 DUP3 DUP2 MLOAD DUP2 LT PUSH2 0x4672 JUMPI PUSH2 0x4672 PUSH2 0x5BC4 JUMP JUMPDEST PUSH1 0x20 MUL PUSH1 0x20 ADD ADD DUP2 SWAP1 MSTORE POP DUP1 DUP1 PUSH2 0x4688 SWAP1 PUSH2 0x5BF0 JUMP JUMPDEST SWAP2 POP POP PUSH2 0x463E JUMP JUMPDEST POP SWAP8 SWAP7 POP POP POP POP POP POP POP JUMP JUMPDEST PUSH2 0x46A4 PUSH2 0x4B1E JUMP JUMPDEST PUSH1 0x1 PUSH1 0x1 PUSH1 0xA0 SHL SUB DUP3 AND PUSH2 0x46B7 JUMPI PUSH1 0x0 DUP1 REVERT JUMPDEST PUSH2 0x46C0 DUP3 PUSH2 0x4B67 JUMP JUMPDEST ISZERO PUSH2 0x46F1 JUMPI PUSH1 0x40 MLOAD PUSH3 0x461BCD PUSH1 0xE5 SHL DUP2 MSTORE PUSH1 0x20 PUSH1 0x4 DUP3 ADD MSTORE PUSH1 0x1 PUSH1 0x24 DUP3 ADD MSTORE PUSH1 0x31 PUSH1 0xF8 SHL PUSH1 0x44 DUP3 ADD MSTORE PUSH1 0x64 ADD PUSH2 0x5E7 JUMP JUMPDEST PUSH1 0x40 DUP1 MLOAD PUSH1 0x60 DUP2 ADD DUP3 MSTORE PUSH1 0x1 PUSH1 0x1 PUSH1 0xA0 SHL SUB SWAP4 DUP5 AND DUP1 DUP3 MSTORE PUSH1 0x20 DUP1 DUP4 ADD SWAP5 DUP6 MSTORE PUSH1 0x1 DUP4 DUP6 ADD DUP2 DUP2 MSTORE PUSH1 0x0 SWAP4 DUP5 MSTORE PUSH1 0x5 SWAP1 SWAP3 MSTORE SWAP4 SWAP1 SWAP2 KECCAK256 SWAP2 MLOAD DUP3 SLOAD PUSH1 0x1 PUSH1 0x1 PUSH1 0xA0 SHL SUB NOT AND SWAP6 AND SWAP5 SWAP1 SWAP5 OR DUP2 SSTORE SWAP2 MLOAD SWAP1 DUP3 ADD SSTORE SWAP1 MLOAD PUSH1 0x2 SWAP1 SWAP2 ADD DUP1 SLOAD PUSH1 0xFF NOT AND SWAP2 ISZERO ISZERO SWAP2 SWAP1 SWAP2 OR SWAP1 SSTORE JUMP JUMPDEST PUSH2 0x4763 PUSH2 0x4B99 JUMP JUMPDEST CALLER PUSH1 0x0 SWAP1 DUP2 MSTORE PUSH1 0x7 PUSH1 0x20 MSTORE PUSH1 0x40 DUP2 KECCAK256 PUSH1 0x2 ADD SLOAD PUSH8 0xFFFFFFFFFFFFFFFF DUP2 GT ISZERO PUSH2 0x478E JUMPI PUSH2 0x478E PUSH2 0x58E1 JUMP JUMPDEST PUSH1 0x40 MLOAD SWAP1 DUP1 DUP3 MSTORE DUP1 PUSH1 0x20 MUL PUSH1 0x20 ADD DUP3 ADD PUSH1 0x40 MSTORE DUP1 ISZERO PUSH2 0x47E9 JUMPI DUP2 PUSH1 0x20 ADD JUMPDEST PUSH2 0x47D6 PUSH1 0x40 DUP1 MLOAD PUSH1 0x80 DUP2 ADD DUP3 MSTORE PUSH1 0x0 DUP1 DUP3 MSTORE PUSH1 0x20 DUP3 ADD DUP2 SWAP1 MSTORE SWAP1 SWAP2 DUP3 ADD SWAP1 DUP2 MSTORE PUSH1 0x20 ADD PUSH1 0x0 SWAP1 MSTORE SWAP1 JUMP JUMPDEST DUP2 MSTORE PUSH1 0x20 ADD SWAP1 PUSH1 0x1 SWAP1 SUB SWAP1 DUP2 PUSH2 0x47AC JUMPI SWAP1 POP JUMPDEST POP CALLER PUSH1 0x0 SWAP1 DUP2 MSTORE PUSH1 0x7 PUSH1 0x20 SWAP1 DUP2 MSTORE PUSH1 0x40 DUP1 DUP4 KECCAK256 PUSH1 0x2 ADD DUP1 SLOAD DUP3 MLOAD DUP2 DUP6 MUL DUP2 ADD DUP6 ADD SWAP1 SWAP4 MSTORE DUP1 DUP4 MSTORE SWAP5 SWAP6 POP SWAP1 SWAP4 SWAP1 SWAP3 SWAP1 SWAP2 DUP5 ADD JUMPDEST DUP3 DUP3 LT ISZERO PUSH2 0x48D2 JUMPI PUSH1 0x0 DUP5 DUP2 MSTORE PUSH1 0x20 SWAP1 DUP2 SWAP1 KECCAK256 PUSH1 0x40 DUP1 MLOAD PUSH1 0x80 DUP2 ADD DUP3 MSTORE PUSH1 0x2 DUP7 MUL SWAP1 SWAP3 ADD DUP1 SLOAD DUP4 MSTORE PUSH1 0x1 DUP2 ADD SLOAD PUSH2 0xFFFF DUP2 AND SWAP5 DUP5 ADD SWAP5 SWAP1 SWAP5 MSTORE SWAP2 SWAP3 SWAP1 DUP4 ADD SWAP1 PUSH3 0x10000 SWAP1 DIV PUSH1 0xFF AND PUSH1 0x3 DUP2 GT ISZERO PUSH2 0x4875 JUMPI PUSH2 0x4875 PUSH2 0x53A7 JUMP JUMPDEST PUSH1 0x3 DUP2 GT ISZERO PUSH2 0x4886 JUMPI PUSH2 0x4886 PUSH2 0x53A7 JUMP JUMPDEST DUP2 MSTORE PUSH1 0x20 ADD PUSH1 0x1 DUP3 ADD PUSH1 0x3 SWAP1 SLOAD SWAP1 PUSH2 0x100 EXP SWAP1 DIV PUSH1 0xFF AND PUSH1 0x2 DUP2 GT ISZERO PUSH2 0x48AE JUMPI PUSH2 0x48AE PUSH2 0x53A7 JUMP JUMPDEST PUSH1 0x2 DUP2 GT ISZERO PUSH2 0x48BF JUMPI PUSH2 0x48BF PUSH2 0x53A7 JUMP JUMPDEST DUP2 MSTORE POP POP DUP2 MSTORE PUSH1 0x20 ADD SWAP1 PUSH1 0x1 ADD SWAP1 PUSH2 0x481C JUMP JUMPDEST POP POP CALLER PUSH1 0x0 SWAP1 DUP2 MSTORE PUSH1 0x7 PUSH1 0x20 MSTORE PUSH1 0x40 DUP2 KECCAK256 PUSH1 0x2 ADD SLOAD SWAP4 SWAP5 POP SWAP2 POP POP JUMPDEST DUP2 DUP2 LT ISZERO PUSH2 0x498F JUMPI DUP4 PUSH1 0x0 ADD MLOAD DUP4 DUP3 DUP2 MLOAD DUP2 LT PUSH2 0x490D JUMPI PUSH2 0x490D PUSH2 0x5BC4 JUMP JUMPDEST PUSH1 0x20 MUL PUSH1 0x20 ADD ADD MLOAD PUSH1 0x0 ADD MLOAD EQ ISZERO PUSH2 0x497D JUMPI CALLER PUSH1 0x0 SWAP1 DUP2 MSTORE PUSH1 0x7 PUSH1 0x20 MSTORE PUSH1 0x40 SWAP1 KECCAK256 PUSH1 0x2 SWAP1 DUP2 ADD DUP1 SLOAD DUP4 SWAP1 DUP2 LT PUSH2 0x4945 JUMPI PUSH2 0x4945 PUSH2 0x5BC4 JUMP JUMPDEST SWAP1 PUSH1 0x0 MSTORE PUSH1 0x20 PUSH1 0x0 KECCAK256 SWAP1 PUSH1 0x2 MUL ADD PUSH1 0x1 ADD PUSH1 0x3 PUSH2 0x100 EXP DUP2 SLOAD DUP2 PUSH1 0xFF MUL NOT AND SWAP1 DUP4 PUSH1 0x2 DUP2 GT ISZERO PUSH2 0x4977 JUMPI PUSH2 0x4977 PUSH2 0x53A7 JUMP JUMPDEST MUL OR SWAP1 SSTORE POP JUMPDEST DUP1 PUSH2 0x4987 DUP2 PUSH2 0x5BF0 JUMP JUMPDEST SWAP2 POP POP PUSH2 0x48EE JUMP JUMPDEST POP DUP3 MLOAD PUSH2 0x499C SWAP1 CALLER PUSH2 0x4C55 JUMP JUMPDEST PUSH1 0x3 DUP4 MLOAD PUSH1 0x20 DUP1 DUP7 ADD MLOAD PUSH1 0x40 DUP1 MLOAD PUSH5 0xFFFFFFFFFF TIMESTAMP AND DUP2 MSTORE SWAP3 DUP4 ADD SWAP2 SWAP1 SWAP2 MSTORE CALLER SWAP3 SWAP2 PUSH1 0x0 DUP1 MLOAD PUSH1 0x20 PUSH2 0x5F74 DUP4 CODECOPY DUP2 MLOAD SWAP2 MSTORE SWAP2 ADD PUSH1 0x40 MLOAD DUP1 SWAP2 SUB SWAP1 LOG4 DUP3 MLOAD PUSH1 0x0 SWAP1 DUP2 MSTORE PUSH1 0x9 PUSH1 0x20 DUP2 DUP2 MSTORE PUSH1 0x40 DUP1 DUP5 KECCAK256 CALLER DUP1 DUP7 MSTORE SWAP1 DUP4 MSTORE DUP2 DUP6 KECCAK256 SLOAD DUP9 MLOAD DUP7 MSTORE SWAP4 DUP4 MSTORE DUP2 DUP6 KECCAK256 SWAP1 DUP6 MSTORE SWAP1 SWAP2 MSTORE DUP3 KECCAK256 SWAP2 SWAP1 SWAP2 SSTORE PUSH1 0x4 PUSH1 0x40 DUP1 DUP7 ADD MLOAD DUP7 MLOAD DUP3 MLOAD PUSH5 0xFFFFFFFFFF TIMESTAMP AND DUP2 MSTORE PUSH1 0x20 DUP2 ADD DUP7 SWAP1 MSTORE PUSH1 0x1 PUSH1 0x1 PUSH1 0xA0 SHL SUB SWAP1 SWAP3 AND SWAP3 SWAP1 SWAP2 PUSH32 0xFCB91FD98787D64BDBA700BB305716E8B6CEBEEF9927C71B19ED9B0AB1B892B0 SWAP2 ADD PUSH1 0x40 MLOAD DUP1 SWAP2 SUB SWAP1 LOG4 PUSH1 0x60 DUP5 ADD MLOAD PUSH1 0x40 DUP1 DUP7 ADD MLOAD SWAP1 MLOAD PUSH4 0xA9059CBB PUSH1 0xE0 SHL DUP2 MSTORE PUSH1 0x1 PUSH1 0x1 PUSH1 0xA0 SHL SUB SWAP2 DUP3 AND PUSH1 0x4 DUP3 ADD MSTORE PUSH1 0x24 DUP2 ADD DUP5 SWAP1 MSTORE SWAP2 AND SWAP1 PUSH4 0xA9059CBB SWAP1 PUSH1 0x44 ADD PUSH1 0x20 PUSH1 0x40 MLOAD DUP1 DUP4 SUB DUP2 PUSH1 0x0 DUP8 DUP1 EXTCODESIZE ISZERO DUP1 ISZERO PUSH2 0x4AB5 JUMPI PUSH1 0x0 DUP1 REVERT JUMPDEST POP GAS CALL ISZERO DUP1 ISZERO PUSH2 0x4AC9 JUMPI RETURNDATASIZE PUSH1 0x0 DUP1 RETURNDATACOPY RETURNDATASIZE PUSH1 0x0 REVERT JUMPDEST POP POP POP POP PUSH1 0x40 MLOAD RETURNDATASIZE PUSH1 0x1F NOT PUSH1 0x1F DUP3 ADD AND DUP3 ADD DUP1 PUSH1 0x40 MSTORE POP DUP2 ADD SWAP1 PUSH2 0x4AED SWAP2 SWAP1 PUSH2 0x5C41 JUMP JUMPDEST PUSH2 0x3123 JUMPI PUSH1 0x40 MLOAD PUSH3 0x461BCD PUSH1 0xE5 SHL DUP2 MSTORE PUSH1 0x20 PUSH1 0x4 DUP3 ADD MSTORE PUSH1 0x2 PUSH1 0x24 DUP3 ADD MSTORE PUSH2 0x3231 PUSH1 0xF0 SHL PUSH1 0x44 DUP3 ADD MSTORE PUSH1 0x64 ADD PUSH2 0x5E7 JUMP JUMPDEST PUSH1 0x6 SLOAD PUSH7 0x1000000000000 SWAP1 DIV PUSH1 0x1 PUSH1 0x1 PUSH1 0xA0 SHL SUB AND CALLER EQ PUSH2 0x41CA JUMPI PUSH1 0x40 MLOAD PUSH3 0x461BCD PUSH1 0xE5 SHL DUP2 MSTORE PUSH1 0x20 PUSH1 0x4 DUP3 ADD MSTORE PUSH1 0x2 PUSH1 0x24 DUP3 ADD MSTORE PUSH2 0x189B PUSH1 0xF1 SHL PUSH1 0x44 DUP3 ADD MSTORE PUSH1 0x64 ADD PUSH2 0x5E7 JUMP JUMPDEST PUSH1 0x1 PUSH1 0x1 PUSH1 0xA0 SHL SUB DUP2 AND PUSH1 0x0 SWAP1 DUP2 MSTORE PUSH1 0x5 PUSH1 0x20 MSTORE PUSH1 0x40 DUP2 KECCAK256 PUSH1 0x2 ADD SLOAD PUSH1 0xFF AND PUSH2 0x4B91 JUMPI PUSH1 0x0 PUSH2 0x413D JUMP JUMPDEST PUSH1 0x1 SWAP3 SWAP2 POP POP JUMP JUMPDEST CALLER PUSH2 0x41CA JUMPI PUSH1 0x40 MLOAD PUSH3 0x461BCD PUSH1 0xE5 SHL DUP2 MSTORE PUSH1 0x20 PUSH1 0x4 DUP3 ADD MSTORE PUSH1 0x1 PUSH1 0x24 DUP3 ADD MSTORE PUSH1 0x33 PUSH1 0xF8 SHL PUSH1 0x44 DUP3 ADD MSTORE PUSH1 0x64 ADD PUSH2 0x5E7 JUMP JUMPDEST PUSH1 0x0 DUP1 PUSH1 0x40 MLOAD DUP1 PUSH1 0x80 ADD PUSH1 0x40 MSTORE DUP1 DUP8 DUP2 MSTORE PUSH1 0x20 ADD DUP7 PUSH2 0xFFFF AND DUP2 MSTORE PUSH1 0x20 ADD DUP6 PUSH1 0x3 DUP2 GT ISZERO PUSH2 0x4BFA JUMPI PUSH2 0x4BFA PUSH2 0x53A7 JUMP JUMPDEST DUP2 MSTORE PUSH1 0x20 ADD DUP5 PUSH1 0x2 DUP2 GT ISZERO PUSH2 0x4C11 JUMPI PUSH2 0x4C11 PUSH2 0x53A7 JUMP JUMPDEST DUP2 MSTORE POP SWAP1 POP PUSH1 0x0 PUSH2 0x4C2F DUP3 PUSH1 0x0 ADD MLOAD DUP4 PUSH1 0x40 ADD MLOAD DUP5 PUSH1 0x20 ADD MLOAD PUSH2 0x1536 JUMP JUMPDEST SWAP1 POP DUP1 PUSH1 0x80 ADD MLOAD ISZERO PUSH2 0x4C46 JUMPI PUSH1 0x1 SWAP3 POP POP POP PUSH2 0x4C4D JUMP JUMPDEST PUSH1 0x0 SWAP3 POP POP POP JUMPDEST SWAP5 SWAP4 POP POP POP POP JUMP JUMPDEST PUSH1 0x0 DUP3 DUP2 MSTORE PUSH1 0xB PUSH1 0x20 MSTORE PUSH1 0x40 DUP2 KECCAK256 DUP1 SLOAD SWAP1 SWAP2 SWAP1 DUP2 JUMPDEST DUP2 DUP2 LT ISZERO PUSH2 0x4CEE JUMPI DUP5 PUSH1 0x1 PUSH1 0x1 PUSH1 0xA0 SHL SUB AND DUP5 DUP3 DUP2 SLOAD DUP2 LT PUSH2 0x4C8E JUMPI PUSH2 0x4C8E PUSH2 0x5BC4 JUMP JUMPDEST PUSH1 0x0 SWAP2 DUP3 MSTORE PUSH1 0x20 SWAP1 SWAP2 KECCAK256 ADD SLOAD PUSH1 0x1 PUSH1 0x1 PUSH1 0xA0 SHL SUB AND EQ ISZERO PUSH2 0x4CDC JUMPI DUP1 SWAP3 POP DUP4 DUP2 DUP2 SLOAD DUP2 LT PUSH2 0x4CBE JUMPI PUSH2 0x4CBE PUSH2 0x5BC4 JUMP JUMPDEST PUSH1 0x0 SWAP2 DUP3 MSTORE PUSH1 0x20 SWAP1 SWAP2 KECCAK256 ADD DUP1 SLOAD PUSH1 0x1 PUSH1 0x1 PUSH1 0xA0 SHL SUB NOT AND SWAP1 SSTORE PUSH2 0x4CEE JUMP JUMPDEST DUP1 PUSH2 0x4CE6 DUP2 PUSH2 0x5BF0 JUMP JUMPDEST SWAP2 POP POP PUSH2 0x4C6A JUMP JUMPDEST POP DUP3 SLOAD DUP4 SWAP1 PUSH2 0x4CFF SWAP1 PUSH1 0x1 SWAP1 PUSH2 0x5E5B JUMP JUMPDEST DUP2 SLOAD DUP2 LT PUSH2 0x4D0F JUMPI PUSH2 0x4D0F PUSH2 0x5BC4 JUMP JUMPDEST SWAP1 PUSH1 0x0 MSTORE PUSH1 0x20 PUSH1 0x0 KECCAK256 ADD PUSH1 0x0 SWAP1 SLOAD SWAP1 PUSH2 0x100 EXP SWAP1 DIV PUSH1 0x1 PUSH1 0x1 PUSH1 0xA0 SHL SUB AND DUP4 DUP4 DUP2 SLOAD DUP2 LT PUSH2 0x4D3F JUMPI PUSH2 0x4D3F PUSH2 0x5BC4 JUMP JUMPDEST SWAP1 PUSH1 0x0 MSTORE PUSH1 0x20 PUSH1 0x0 KECCAK256 ADD PUSH1 0x0 PUSH2 0x100 EXP DUP2 SLOAD DUP2 PUSH1 0x1 PUSH1 0x1 PUSH1 0xA0 SHL SUB MUL NOT AND SWAP1 DUP4 PUSH1 0x1 PUSH1 0x1 PUSH1 0xA0 SHL SUB AND MUL OR SWAP1 SSTORE POP DUP3 DUP1 SLOAD DUP1 PUSH2 0x4D7D JUMPI PUSH2 0x4D7D PUSH2 0x5EB4 JUMP JUMPDEST PUSH1 0x0 DUP3 DUP2 MSTORE PUSH1 0x20 SWAP1 KECCAK256 DUP2 ADD PUSH1 0x0 NOT SWAP1 DUP2 ADD DUP1 SLOAD PUSH1 0x1 PUSH1 0x1 PUSH1 0xA0 SHL SUB NOT AND SWAP1 SSTORE ADD SWAP1 SSTORE POP POP POP POP POP JUMP JUMPDEST PUSH2 0x4DF5 PUSH1 0x40 DUP1 MLOAD PUSH2 0x120 DUP2 ADD DUP3 MSTORE PUSH1 0x0 DUP1 DUP3 MSTORE PUSH1 0x20 DUP3 ADD DUP2 SWAP1 MSTORE SWAP2 DUP2 ADD DUP3 SWAP1 MSTORE PUSH1 0x60 DUP2 ADD DUP3 SWAP1 MSTORE PUSH1 0x80 DUP2 ADD DUP3 SWAP1 MSTORE PUSH1 0xA0 DUP2 ADD DUP3 SWAP1 MSTORE SWAP1 PUSH1 0xC0 DUP3 ADD SWAP1 DUP2 MSTORE PUSH1 0x0 PUSH1 0x20 DUP3 ADD MSTORE PUSH1 0x60 PUSH1 0x40 SWAP1 SWAP2 ADD MSTORE SWAP1 JUMP JUMPDEST PUSH1 0x0 CALLER DUP7 DUP5 DUP8 TIMESTAMP PUSH1 0x40 MLOAD PUSH1 0x20 ADD PUSH2 0x4E10 SWAP6 SWAP5 SWAP4 SWAP3 SWAP2 SWAP1 PUSH2 0x5ECA JUMP JUMPDEST PUSH1 0x40 DUP1 MLOAD PUSH1 0x1F NOT DUP2 DUP5 SUB ADD DUP2 MSTORE DUP3 DUP3 MSTORE DUP1 MLOAD PUSH1 0x20 SWAP2 DUP3 ADD KECCAK256 PUSH2 0x120 DUP5 ADD DUP4 MSTORE DUP1 DUP5 MSTORE SWAP1 DUP4 ADD DUP11 SWAP1 MSTORE CALLER SWAP2 DUP4 ADD SWAP2 SWAP1 SWAP2 MSTORE PUSH1 0x1 PUSH1 0x1 PUSH1 0xA0 SHL SUB DUP9 AND PUSH1 0x60 DUP4 ADD MSTORE PUSH1 0x1 PUSH1 0x80 DUP4 ADD MSTORE PUSH1 0x0 PUSH1 0xA0 DUP4 ADD MSTORE SWAP2 POP PUSH1 0xC0 DUP2 ADD DUP6 PUSH1 0x3 DUP2 GT ISZERO PUSH2 0x4E75 JUMPI PUSH2 0x4E75 PUSH2 0x53A7 JUMP JUMPDEST DUP2 MSTORE PUSH1 0x20 ADD DUP5 PUSH2 0xFFFF AND DUP2 MSTORE PUSH1 0x20 ADD DUP7 DUP2 MSTORE POP SWAP2 POP POP SWAP6 SWAP5 POP POP POP POP POP JUMP JUMPDEST CALLER PUSH1 0x0 SWAP1 DUP2 MSTORE PUSH1 0x7 PUSH1 0x20 MSTORE PUSH1 0x40 SWAP1 KECCAK256 SLOAD PUSH1 0x1 PUSH1 0xA0 SHL SWAP1 DIV PUSH1 0xFF AND PUSH2 0x4F1E JUMPI CALLER PUSH1 0x0 DUP2 DUP2 MSTORE PUSH1 0x7 PUSH1 0x20 MSTORE PUSH1 0x40 DUP2 KECCAK256 DUP1 SLOAD PUSH1 0x1 PUSH1 0x1 PUSH1 0xA0 SHL SUB NOT SWAP1 DUP2 AND DUP5 OR DUP3 SSTORE PUSH1 0x8 DUP1 SLOAD PUSH1 0x1 DUP2 ADD SWAP1 SWAP2 SSTORE PUSH32 0xF3F7A9FE364FAAB93B216DA50A3214154F22A0A2B415B23A84C8169E8B636EE3 ADD DUP1 SLOAD SWAP1 SWAP2 AND DUP5 OR SWAP1 SSTORE SWAP2 SWAP1 MSTORE DUP1 SLOAD PUSH1 0xFF PUSH1 0xA0 SHL NOT AND PUSH1 0x1 PUSH1 0xA0 SHL OR SWAP1 SSTORE JUMPDEST DUP1 ISZERO PUSH2 0x4FD4 JUMPI CALLER PUSH1 0x0 SWAP1 DUP2 MSTORE PUSH1 0x7 PUSH1 0x20 SWAP1 DUP2 MSTORE PUSH1 0x40 DUP1 DUP4 KECCAK256 PUSH1 0x3 SWAP1 DUP2 ADD DUP1 SLOAD PUSH1 0x1 DUP1 DUP3 ADD DUP4 SSTORE SWAP2 DUP7 MSTORE SWAP5 DUP5 SWAP1 KECCAK256 DUP8 MLOAD PUSH1 0x2 SWAP1 SWAP7 MUL ADD SWAP5 DUP6 SSTORE SWAP3 DUP7 ADD MLOAD SWAP3 DUP5 ADD DUP1 SLOAD PUSH2 0xFFFF NOT DUP2 AND PUSH2 0xFFFF SWAP1 SWAP6 AND SWAP5 DUP6 OR DUP3 SSTORE SWAP3 DUP8 ADD MLOAD DUP8 SWAP6 SWAP5 SWAP1 SWAP4 SWAP2 SWAP3 PUSH3 0xFFFFFF NOT SWAP1 SWAP3 AND OR SWAP1 PUSH3 0x10000 SWAP1 DUP5 SWAP1 DUP2 GT ISZERO PUSH2 0x4F9B JUMPI PUSH2 0x4F9B PUSH2 0x53A7 JUMP JUMPDEST MUL OR SWAP1 SSTORE POP PUSH1 0x60 DUP3 ADD MLOAD PUSH1 0x1 DUP3 ADD DUP1 SLOAD PUSH4 0xFF000000 NOT AND PUSH4 0x1000000 DUP4 PUSH1 0x2 DUP2 GT ISZERO PUSH2 0x4FC9 JUMPI PUSH2 0x4FC9 PUSH2 0x53A7 JUMP JUMPDEST MUL OR SWAP1 SSTORE POP POP POP POP POP JUMP JUMPDEST CALLER PUSH1 0x0 SWAP1 DUP2 MSTORE PUSH1 0x7 PUSH1 0x20 SWAP1 DUP2 MSTORE PUSH1 0x40 DUP1 DUP4 KECCAK256 PUSH1 0x2 SWAP1 DUP2 ADD DUP1 SLOAD PUSH1 0x1 DUP1 DUP3 ADD DUP4 SSTORE SWAP2 DUP7 MSTORE SWAP5 DUP5 SWAP1 KECCAK256 DUP8 MLOAD SWAP6 SWAP1 SWAP3 MUL SWAP1 SWAP2 ADD SWAP4 DUP5 SSTORE SWAP2 DUP6 ADD MLOAD SWAP2 DUP4 ADD DUP1 SLOAD PUSH2 0xFFFF NOT DUP2 AND PUSH2 0xFFFF SWAP1 SWAP5 AND SWAP4 DUP5 OR DUP3 SSTORE SWAP2 DUP7 ADD MLOAD DUP7 SWAP5 SWAP4 SWAP1 SWAP3 PUSH3 0xFFFFFF NOT AND OR PUSH3 0x10000 DUP4 PUSH1 0x3 DUP2 GT ISZERO PUSH2 0x4F9B JUMPI PUSH2 0x4F9B PUSH2 0x53A7 JUMP JUMPDEST PUSH1 0x0 DUP2 PUSH1 0x1 EQ DUP1 PUSH2 0x5058 JUMPI POP DUP2 PUSH1 0x3 EQ JUMPDEST DUP1 PUSH2 0x5063 JUMPI POP DUP2 PUSH1 0x5 EQ JUMPDEST DUP1 PUSH2 0x506E JUMPI POP DUP2 PUSH1 0x7 EQ JUMPDEST DUP1 PUSH2 0x5079 JUMPI POP DUP2 PUSH1 0x8 EQ JUMPDEST DUP1 PUSH2 0x5084 JUMPI POP DUP2 PUSH1 0xA EQ JUMPDEST DUP1 PUSH2 0x508F JUMPI POP DUP2 PUSH1 0xC EQ JUMPDEST ISZERO PUSH2 0x509C JUMPI POP PUSH1 0x1F PUSH2 0x413D JUMP JUMPDEST DUP2 PUSH1 0x2 EQ PUSH2 0x50AC JUMPI POP PUSH1 0x1E PUSH2 0x413D JUMP JUMPDEST PUSH2 0x50B5 DUP4 PUSH2 0x5268 JUMP JUMPDEST PUSH2 0x50C0 JUMPI PUSH1 0x1C PUSH2 0x50C3 JUMP JUMPDEST PUSH1 0x1D JUMPDEST PUSH1 0xFF AND SWAP4 SWAP3 POP POP POP JUMP JUMPDEST PUSH1 0x0 DUP1 PUSH2 0x50D9 DUP4 PUSH2 0x5268 JUMP JUMPDEST ISZERO PUSH2 0x50E6 JUMPI POP PUSH1 0x1 PUSH2 0x50EA JUMP JUMPDEST POP PUSH1 0x0 JUMPDEST PUSH2 0x50F5 DUP2 PUSH1 0x5A PUSH2 0x5DF7 JUMP JUMPDEST DUP5 GT PUSH2 0x5103 JUMPI DUP4 SWAP2 POP PUSH2 0x5194 JUMP JUMPDEST DUP4 PUSH2 0x510F DUP3 PUSH1 0x5A PUSH2 0x5DF7 JUMP JUMPDEST LT DUP1 ISZERO PUSH2 0x5126 JUMPI POP PUSH2 0x5122 DUP2 PUSH1 0xB5 PUSH2 0x5DF7 JUMP JUMPDEST DUP5 GT ISZERO JUMPDEST ISZERO PUSH2 0x5147 JUMPI PUSH2 0x5136 DUP2 PUSH1 0x5A PUSH2 0x5DF7 JUMP JUMPDEST PUSH2 0x5140 SWAP1 DUP6 PUSH2 0x5E5B JUMP JUMPDEST SWAP2 POP PUSH2 0x5194 JUMP JUMPDEST DUP4 PUSH2 0x5153 DUP3 PUSH1 0xB5 PUSH2 0x5DF7 JUMP JUMPDEST LT DUP1 ISZERO PUSH2 0x516B JUMPI POP PUSH2 0x5167 DUP2 PUSH2 0x111 PUSH2 0x5DF7 JUMP JUMPDEST DUP5 GT ISZERO JUMPDEST ISZERO PUSH2 0x517B JUMPI PUSH2 0x5136 DUP2 PUSH1 0xB5 PUSH2 0x5DF7 JUMP JUMPDEST PUSH2 0x5187 DUP2 PUSH2 0x111 PUSH2 0x5DF7 JUMP JUMPDEST PUSH2 0x5191 SWAP1 DUP6 PUSH2 0x5E5B JUMP JUMPDEST SWAP2 POP JUMPDEST POP SWAP3 SWAP2 POP POP JUMP JUMPDEST PUSH1 0x0 DUP1 PUSH2 0x51AB PUSH3 0x15180 DUP5 PUSH2 0x5CAF JUMP JUMPDEST SWAP1 POP PUSH1 0x0 PUSH1 0x7 PUSH2 0x51BC DUP4 PUSH1 0x3 PUSH2 0x5DF7 JUMP JUMPDEST PUSH2 0x51C6 SWAP2 SWAP1 PUSH2 0x5F28 JUMP JUMPDEST PUSH2 0x4C4D SWAP1 PUSH1 0x1 PUSH2 0x5DF7 JUMP JUMPDEST PUSH1 0x0 PUSH2 0x413D PUSH3 0x15180 DUP4 PUSH2 0x5F3C JUMP JUMPDEST PUSH2 0x41C8 DUP2 PUSH1 0x40 MLOAD PUSH1 0x24 ADD PUSH2 0x51F6 SWAP2 DUP2 MSTORE PUSH1 0x20 ADD SWAP1 JUMP JUMPDEST PUSH1 0x40 DUP1 MLOAD PUSH1 0x1F NOT DUP2 DUP5 SUB ADD DUP2 MSTORE SWAP2 SWAP1 MSTORE PUSH1 0x20 DUP2 ADD DUP1 MLOAD PUSH1 0x1 PUSH1 0x1 PUSH1 0xE0 SHL SUB AND PUSH4 0xF82C50F1 PUSH1 0xE0 SHL OR SWAP1 MSTORE PUSH2 0x52A4 JUMP JUMPDEST PUSH2 0x41C8 DUP2 PUSH1 0x40 MLOAD PUSH1 0x24 ADD PUSH2 0x5239 SWAP2 SWAP1 PUSH2 0x5F60 JUMP JUMPDEST PUSH1 0x40 DUP1 MLOAD PUSH1 0x1F NOT DUP2 DUP5 SUB ADD DUP2 MSTORE SWAP2 SWAP1 MSTORE PUSH1 0x20 DUP2 ADD DUP1 MLOAD PUSH1 0x1 PUSH1 0x1 PUSH1 0xE0 SHL SUB AND PUSH4 0x104C13EB PUSH1 0xE2 SHL OR SWAP1 MSTORE PUSH2 0x52A4 JUMP JUMPDEST PUSH1 0x0 PUSH2 0x5275 PUSH1 0x4 DUP4 PUSH2 0x5F28 JUMP JUMPDEST ISZERO DUP1 ISZERO PUSH2 0x528B JUMPI POP PUSH2 0x5288 PUSH1 0x64 DUP4 PUSH2 0x5F28 JUMP JUMPDEST ISZERO ISZERO JUMPDEST DUP1 PUSH2 0x413D JUMPI POP PUSH2 0x529D PUSH2 0x190 DUP4 PUSH2 0x5F28 JUMP JUMPDEST ISZERO SWAP3 SWAP2 POP POP JUMP JUMPDEST DUP1 MLOAD PUSH11 0x636F6E736F6C652E6C6F67 PUSH1 0x20 DUP4 ADD PUSH1 0x0 DUP1 DUP5 DUP4 DUP6 GAS STATICCALL POP POP POP POP POP JUMP JUMPDEST DUP3 DUP1 SLOAD PUSH2 0x52D1 SWAP1 PUSH2 0x5C5E JUMP JUMPDEST SWAP1 PUSH1 0x0 MSTORE PUSH1 0x20 PUSH1 0x0 KECCAK256 SWAP1 PUSH1 0x1F ADD PUSH1 0x20 SWAP1 DIV DUP2 ADD SWAP3 DUP3 PUSH2 0x52F3 JUMPI PUSH1 0x0 DUP6 SSTORE PUSH2 0x5339 JUMP JUMPDEST DUP3 PUSH1 0x1F LT PUSH2 0x530C JUMPI DUP1 MLOAD PUSH1 0xFF NOT AND DUP4 DUP1 ADD OR DUP6 SSTORE PUSH2 0x5339 JUMP JUMPDEST DUP3 DUP1 ADD PUSH1 0x1 ADD DUP6 SSTORE DUP3 ISZERO PUSH2 0x5339 JUMPI SWAP2 DUP3 ADD JUMPDEST DUP3 DUP2 GT ISZERO PUSH2 0x5339 JUMPI DUP3 MLOAD DUP3 SSTORE SWAP2 PUSH1 0x20 ADD SWAP2 SWAP1 PUSH1 0x1 ADD SWAP1 PUSH2 0x531E JUMP JUMPDEST POP PUSH2 0x5345 SWAP3 SWAP2 POP PUSH2 0x5349 JUMP JUMPDEST POP SWAP1 JUMP JUMPDEST JUMPDEST DUP1 DUP3 GT ISZERO PUSH2 0x5345 JUMPI PUSH1 0x0 DUP2 SSTORE PUSH1 0x1 ADD PUSH2 0x534A JUMP JUMPDEST PUSH1 0x1 PUSH1 0x1 PUSH1 0xA0 SHL SUB DUP2 AND DUP2 EQ PUSH2 0x41C8 JUMPI PUSH1 0x0 DUP1 REVERT JUMPDEST DUP1 CALLDATALOAD PUSH2 0x537E DUP2 PUSH2 0x535E JUMP JUMPDEST SWAP2 SWAP1 POP JUMP JUMPDEST PUSH1 0x0 PUSH1 0x20 DUP3 DUP5 SUB SLT ISZERO PUSH2 0x5395 JUMPI PUSH1 0x0 DUP1 REVERT JUMPDEST DUP2 CALLDATALOAD PUSH2 0x53A0 DUP2 PUSH2 0x535E JUMP JUMPDEST SWAP4 SWAP3 POP POP POP JUMP JUMPDEST PUSH4 0x4E487B71 PUSH1 0xE0 SHL PUSH1 0x0 MSTORE PUSH1 0x21 PUSH1 0x4 MSTORE PUSH1 0x24 PUSH1 0x0 REVERT JUMPDEST PUSH1 0x4 DUP2 LT PUSH2 0x53CD JUMPI PUSH2 0x53CD PUSH2 0x53A7 JUMP JUMPDEST SWAP1 MSTORE JUMP JUMPDEST PUSH1 0x3 DUP2 LT PUSH2 0x53CD JUMPI PUSH2 0x53CD PUSH2 0x53A7 JUMP JUMPDEST PUSH1 0x0 DUP2 MLOAD DUP1 DUP5 MSTORE PUSH1 0x20 DUP1 DUP6 ADD SWAP5 POP DUP1 DUP5 ADD PUSH1 0x0 JUMPDEST DUP4 DUP2 LT ISZERO PUSH2 0x544B JUMPI DUP2 MLOAD DUP1 MLOAD DUP9 MSTORE PUSH2 0xFFFF DUP5 DUP3 ADD MLOAD AND DUP5 DUP10 ADD MSTORE PUSH1 0x40 DUP1 DUP3 ADD MLOAD PUSH2 0x5421 DUP3 DUP12 ADD DUP3 PUSH2 0x53BD JUMP JUMPDEST POP POP PUSH1 0x60 SWAP1 DUP2 ADD MLOAD SWAP1 PUSH2 0x5436 DUP10 DUP3 ADD DUP4 PUSH2 0x53D1 JUMP JUMPDEST POP POP PUSH1 0x80 SWAP7 SWAP1 SWAP7 ADD SWAP6 SWAP1 DUP3 ADD SWAP1 PUSH1 0x1 ADD PUSH2 0x53F5 JUMP JUMPDEST POP SWAP5 SWAP6 SWAP5 POP POP POP POP POP JUMP JUMPDEST PUSH1 0x0 PUSH1 0x20 DUP1 DUP4 ADD DUP2 DUP5 MSTORE DUP1 DUP6 MLOAD DUP1 DUP4 MSTORE PUSH1 0x40 SWAP3 POP DUP3 DUP7 ADD SWAP2 POP DUP3 DUP2 PUSH1 0x5 SHL DUP8 ADD ADD DUP5 DUP9 ADD PUSH1 0x0 DUP1 JUMPDEST DUP5 DUP2 LT ISZERO PUSH2 0x553A JUMPI DUP10 DUP5 SUB PUSH1 0x3F NOT ADD DUP7 MSTORE DUP3 MLOAD DUP1 MLOAD PUSH1 0x1 PUSH1 0x1 PUSH1 0xA0 SHL SUB AND DUP6 MSTORE DUP9 DUP2 ADD MLOAD ISZERO ISZERO DUP10 DUP7 ADD MSTORE DUP8 DUP2 ADD MLOAD PUSH1 0xA0 DUP10 DUP8 ADD DUP2 SWAP1 MSTORE DUP2 MLOAD SWAP1 DUP8 ADD DUP2 SWAP1 MSTORE PUSH1 0xC0 DUP8 ADD SWAP2 DUP12 ADD SWAP1 DUP6 SWAP1 JUMPDEST DUP1 DUP3 LT ISZERO PUSH2 0x54EE JUMPI DUP3 MLOAD PUSH5 0xFFFFFFFFFF AND DUP5 MSTORE SWAP3 DUP13 ADD SWAP3 SWAP2 DUP13 ADD SWAP2 PUSH1 0x1 SWAP2 SWAP1 SWAP2 ADD SWAP1 PUSH2 0x54C7 JUMP JUMPDEST POP POP POP PUSH1 0x60 DUP1 DUP4 ADD MLOAD DUP8 DUP4 SUB DUP3 DUP10 ADD MSTORE PUSH2 0x5508 DUP4 DUP3 PUSH2 0x53E1 JUMP JUMPDEST SWAP3 POP POP POP PUSH1 0x80 DUP1 DUP4 ADD MLOAD SWAP3 POP DUP7 DUP3 SUB DUP2 DUP9 ADD MSTORE POP PUSH2 0x5526 DUP2 DUP4 PUSH2 0x53E1 JUMP JUMPDEST SWAP8 DUP11 ADD SWAP8 SWAP6 POP POP POP SWAP2 DUP8 ADD SWAP2 PUSH1 0x1 ADD PUSH2 0x547E JUMP JUMPDEST POP SWAP2 SWAP10 SWAP9 POP POP POP POP POP POP POP POP POP JUMP JUMPDEST PUSH1 0x0 PUSH1 0x20 DUP3 DUP5 SUB SLT ISZERO PUSH2 0x555B JUMPI PUSH1 0x0 DUP1 REVERT JUMPDEST DUP2 CALLDATALOAD PUSH8 0xFFFFFFFFFFFFFFFF DUP2 GT ISZERO PUSH2 0x5572 JUMPI PUSH1 0x0 DUP1 REVERT JUMPDEST DUP3 ADD PUSH2 0x120 DUP2 DUP6 SUB SLT ISZERO PUSH2 0x53A0 JUMPI PUSH1 0x0 DUP1 REVERT JUMPDEST PUSH1 0x0 PUSH1 0x20 DUP3 DUP5 SUB SLT ISZERO PUSH2 0x5597 JUMPI PUSH1 0x0 DUP1 REVERT JUMPDEST POP CALLDATALOAD SWAP2 SWAP1 POP JUMP JUMPDEST DUP1 CALLDATALOAD PUSH1 0x4 DUP2 LT PUSH2 0x537E JUMPI PUSH1 0x0 DUP1 REVERT JUMPDEST DUP1 CALLDATALOAD PUSH2 0xFFFF DUP2 AND DUP2 EQ PUSH2 0x537E JUMPI PUSH1 0x0 DUP1 REVERT JUMPDEST PUSH1 0x0 DUP1 PUSH1 0x0 PUSH1 0x60 DUP5 DUP7 SUB SLT ISZERO PUSH2 0x55D4 JUMPI PUSH1 0x0 DUP1 REVERT JUMPDEST DUP4 CALLDATALOAD SWAP3 POP PUSH2 0x55E4 PUSH1 0x20 DUP6 ADD PUSH2 0x559E JUMP JUMPDEST SWAP2 POP PUSH2 0x55F2 PUSH1 0x40 DUP6 ADD PUSH2 0x55AD JUMP JUMPDEST SWAP1 POP SWAP3 POP SWAP3 POP SWAP3 JUMP JUMPDEST PUSH1 0x0 JUMPDEST DUP4 DUP2 LT ISZERO PUSH2 0x5616 JUMPI DUP2 DUP2 ADD MLOAD DUP4 DUP3 ADD MSTORE PUSH1 0x20 ADD PUSH2 0x55FE JUMP JUMPDEST DUP4 DUP2 GT ISZERO PUSH2 0x3123 JUMPI POP POP PUSH1 0x0 SWAP2 ADD MSTORE JUMP JUMPDEST PUSH1 0x0 DUP2 MLOAD DUP1 DUP5 MSTORE PUSH2 0x563F DUP2 PUSH1 0x20 DUP7 ADD PUSH1 0x20 DUP7 ADD PUSH2 0x55FB JUMP JUMPDEST PUSH1 0x1F ADD PUSH1 0x1F NOT AND SWAP3 SWAP1 SWAP3 ADD PUSH1 0x20 ADD SWAP3 SWAP2 POP POP JUMP JUMPDEST PUSH1 0x0 PUSH2 0x120 DUP3 MLOAD DUP5 MSTORE PUSH1 0x20 DUP4 ADD MLOAD PUSH1 0x20 DUP6 ADD MSTORE PUSH1 0x1 PUSH1 0x1 PUSH1 0xA0 SHL SUB PUSH1 0x40 DUP5 ADD MLOAD AND PUSH1 0x40 DUP6 ADD MSTORE PUSH1 0x60 DUP4 ADD MLOAD PUSH2 0x5693 PUSH1 0x60 DUP7 ADD DUP3 PUSH1 0x1 PUSH1 0x1 PUSH1 0xA0 SHL SUB AND SWAP1 MSTORE JUMP JUMPDEST POP PUSH1 0x80 DUP4 ADD MLOAD PUSH2 0x56A7 PUSH1 0x80 DUP7 ADD DUP3 ISZERO ISZERO SWAP1 MSTORE JUMP JUMPDEST POP PUSH1 0xA0 DUP4 ADD MLOAD PUSH2 0x56BB PUSH1 0xA0 DUP7 ADD DUP3 ISZERO ISZERO SWAP1 MSTORE JUMP JUMPDEST POP PUSH1 0xC0 DUP4 ADD MLOAD PUSH2 0x56CE PUSH1 0xC0 DUP7 ADD DUP3 PUSH2 0x53BD JUMP JUMPDEST POP PUSH1 0xE0 DUP4 ADD MLOAD PUSH2 0x56E4 PUSH1 0xE0 DUP7 ADD DUP3 PUSH2 0xFFFF AND SWAP1 MSTORE JUMP JUMPDEST POP PUSH2 0x100 DUP1 DUP5 ADD MLOAD DUP3 DUP3 DUP8 ADD MSTORE PUSH2 0x56FD DUP4 DUP8 ADD DUP3 PUSH2 0x5627 JUMP JUMPDEST SWAP7 SWAP6 POP POP POP POP POP POP JUMP JUMPDEST PUSH1 0x20 DUP2 MSTORE PUSH1 0x0 PUSH2 0x53A0 PUSH1 0x20 DUP4 ADD DUP5 PUSH2 0x5653 JUMP JUMPDEST PUSH1 0x0 DUP1 PUSH1 0x0 DUP1 PUSH1 0x0 DUP1 PUSH1 0xA0 DUP8 DUP10 SUB SLT ISZERO PUSH2 0x5733 JUMPI PUSH1 0x0 DUP1 REVERT JUMPDEST DUP7 CALLDATALOAD SWAP6 POP PUSH1 0x20 DUP8 ADD CALLDATALOAD PUSH2 0x5745 DUP2 PUSH2 0x535E JUMP JUMPDEST SWAP5 POP PUSH1 0x40 DUP8 ADD CALLDATALOAD PUSH8 0xFFFFFFFFFFFFFFFF DUP1 DUP3 GT ISZERO PUSH2 0x5762 JUMPI PUSH1 0x0 DUP1 REVERT JUMPDEST DUP2 DUP10 ADD SWAP2 POP DUP10 PUSH1 0x1F DUP4 ADD SLT PUSH2 0x5776 JUMPI PUSH1 0x0 DUP1 REVERT JUMPDEST DUP2 CALLDATALOAD DUP2 DUP2 GT ISZERO PUSH2 0x5785 JUMPI PUSH1 0x0 DUP1 REVERT JUMPDEST DUP11 PUSH1 0x20 DUP3 DUP6 ADD ADD GT ISZERO PUSH2 0x5797 JUMPI PUSH1 0x0 DUP1 REVERT JUMPDEST PUSH1 0x20 DUP4 ADD SWAP7 POP DUP1 SWAP6 POP POP POP POP PUSH2 0x57AF PUSH1 0x60 DUP9 ADD PUSH2 0x559E JUMP JUMPDEST SWAP2 POP PUSH2 0x57BD PUSH1 0x80 DUP9 ADD PUSH2 0x55AD JUMP JUMPDEST SWAP1 POP SWAP3 SWAP6 POP SWAP3 SWAP6 POP SWAP3 SWAP6 JUMP JUMPDEST DUP1 ISZERO ISZERO DUP2 EQ PUSH2 0x41C8 JUMPI PUSH1 0x0 DUP1 REVERT JUMPDEST DUP1 CALLDATALOAD PUSH2 0x537E DUP2 PUSH2 0x57C9 JUMP JUMPDEST PUSH1 0x0 PUSH1 0x20 DUP3 DUP5 SUB SLT ISZERO PUSH2 0x57F4 JUMPI PUSH1 0x0 DUP1 REVERT JUMPDEST DUP2 CALLDATALOAD PUSH2 0x53A0 DUP2 PUSH2 0x57C9 JUMP JUMPDEST PUSH1 0x0 PUSH1 0x20 DUP1 DUP4 ADD DUP2 DUP5 MSTORE DUP1 DUP6 MLOAD DUP1 DUP4 MSTORE PUSH1 0x40 SWAP3 POP DUP3 DUP7 ADD SWAP2 POP DUP3 DUP2 PUSH1 0x5 SHL DUP8 ADD ADD DUP5 DUP9 ADD PUSH1 0x0 JUMPDEST DUP4 DUP2 LT ISZERO PUSH2 0x587B JUMPI PUSH1 0x3F NOT DUP10 DUP5 SUB ADD DUP6 MSTORE DUP2 MLOAD PUSH1 0x60 DUP2 MLOAD DUP2 DUP7 MSTORE PUSH2 0x584C DUP3 DUP8 ADD DUP3 PUSH2 0x5653 JUMP JUMPDEST SWAP2 POP POP DUP9 DUP3 ADD MLOAD PUSH2 0x585F DUP11 DUP8 ADD DUP3 PUSH2 0x53D1 JUMP JUMPDEST POP SWAP1 DUP8 ADD MLOAD SWAP4 DUP8 ADD SWAP4 SWAP1 SWAP4 MSTORE SWAP4 DUP7 ADD SWAP4 SWAP1 DUP7 ADD SWAP1 PUSH1 0x1 ADD PUSH2 0x5826 JUMP JUMPDEST POP SWAP1 SWAP9 SWAP8 POP POP POP POP POP POP POP POP JUMP JUMPDEST PUSH1 0x20 DUP1 DUP3 MSTORE DUP3 MLOAD DUP3 DUP3 ADD DUP2 SWAP1 MSTORE PUSH1 0x0 SWAP2 SWAP1 PUSH1 0x40 SWAP1 DUP2 DUP6 ADD SWAP1 DUP7 DUP5 ADD DUP6 JUMPDEST DUP3 DUP2 LT ISZERO PUSH2 0x58D4 JUMPI DUP2 MLOAD DUP1 MLOAD PUSH1 0x1 PUSH1 0x1 PUSH1 0xA0 SHL SUB AND DUP6 MSTORE DUP7 ADD MLOAD DUP7 DUP6 ADD MSTORE SWAP3 DUP5 ADD SWAP3 SWAP1 DUP6 ADD SWAP1 PUSH1 0x1 ADD PUSH2 0x58A6 JUMP JUMPDEST POP SWAP2 SWAP8 SWAP7 POP POP POP POP POP POP POP JUMP JUMPDEST PUSH4 0x4E487B71 PUSH1 0xE0 SHL PUSH1 0x0 MSTORE PUSH1 0x41 PUSH1 0x4 MSTORE PUSH1 0x24 PUSH1 0x0 REVERT JUMPDEST PUSH1 0x40 MLOAD PUSH2 0x120 DUP2 ADD PUSH8 0xFFFFFFFFFFFFFFFF DUP2 GT DUP3 DUP3 LT OR ISZERO PUSH2 0x591B JUMPI PUSH2 0x591B PUSH2 0x58E1 JUMP JUMPDEST PUSH1 0x40 MSTORE SWAP1 JUMP JUMPDEST PUSH1 0x0 DUP3 PUSH1 0x1F DUP4 ADD SLT PUSH2 0x5932 JUMPI PUSH1 0x0 DUP1 REVERT JUMPDEST DUP2 CALLDATALOAD PUSH8 0xFFFFFFFFFFFFFFFF DUP1 DUP3 GT ISZERO PUSH2 0x594D JUMPI PUSH2 0x594D PUSH2 0x58E1 JUMP JUMPDEST PUSH1 0x40 MLOAD PUSH1 0x1F DUP4 ADD PUSH1 0x1F NOT SWAP1 DUP2 AND PUSH1 0x3F ADD AND DUP2 ADD SWAP1 DUP3 DUP3 GT DUP2 DUP4 LT OR ISZERO PUSH2 0x5975 JUMPI PUSH2 0x5975 PUSH2 0x58E1 JUMP JUMPDEST DUP2 PUSH1 0x40 MSTORE DUP4 DUP2 MSTORE DUP7 PUSH1 0x20 DUP6 DUP9 ADD ADD GT ISZERO PUSH2 0x598E JUMPI PUSH1 0x0 DUP1 REVERT JUMPDEST DUP4 PUSH1 0x20 DUP8 ADD PUSH1 0x20 DUP4 ADD CALLDATACOPY PUSH1 0x0 PUSH1 0x20 DUP6 DUP4 ADD ADD MSTORE DUP1 SWAP5 POP POP POP POP POP SWAP3 SWAP2 POP POP JUMP JUMPDEST PUSH1 0x0 PUSH2 0x120 DUP3 DUP5 SUB SLT ISZERO PUSH2 0x59C1 JUMPI PUSH1 0x0 DUP1 REVERT JUMPDEST PUSH2 0x59C9 PUSH2 0x58F7 JUMP JUMPDEST SWAP1 POP DUP2 CALLDATALOAD DUP2 MSTORE PUSH1 0x20 DUP3 ADD CALLDATALOAD PUSH1 0x20 DUP3 ADD MSTORE PUSH2 0x59E5 PUSH1 0x40 DUP4 ADD PUSH2 0x5373 JUMP JUMPDEST PUSH1 0x40 DUP3 ADD MSTORE PUSH2 0x59F6 PUSH1 0x60 DUP4 ADD PUSH2 0x5373 JUMP JUMPDEST PUSH1 0x60 DUP3 ADD MSTORE PUSH2 0x5A07 PUSH1 0x80 DUP4 ADD PUSH2 0x57D7 JUMP JUMPDEST PUSH1 0x80 DUP3 ADD MSTORE PUSH2 0x5A18 PUSH1 0xA0 DUP4 ADD PUSH2 0x57D7 JUMP JUMPDEST PUSH1 0xA0 DUP3 ADD MSTORE PUSH2 0x5A29 PUSH1 0xC0 DUP4 ADD PUSH2 0x559E JUMP JUMPDEST PUSH1 0xC0 DUP3 ADD MSTORE PUSH2 0x5A3A PUSH1 0xE0 DUP4 ADD PUSH2 0x55AD JUMP JUMPDEST PUSH1 0xE0 DUP3 ADD MSTORE PUSH2 0x100 DUP1 DUP4 ADD CALLDATALOAD PUSH8 0xFFFFFFFFFFFFFFFF DUP2 GT ISZERO PUSH2 0x5A5B JUMPI PUSH1 0x0 DUP1 REVERT JUMPDEST PUSH2 0x5A67 DUP6 DUP3 DUP7 ADD PUSH2 0x5921 JUMP JUMPDEST DUP3 DUP5 ADD MSTORE POP POP SWAP3 SWAP2 POP POP JUMP JUMPDEST PUSH1 0x0 DUP1 PUSH1 0x40 DUP4 DUP6 SUB SLT ISZERO PUSH2 0x5A86 JUMPI PUSH1 0x0 DUP1 REVERT JUMPDEST DUP3 CALLDATALOAD PUSH8 0xFFFFFFFFFFFFFFFF DUP2 GT ISZERO PUSH2 0x5A9D JUMPI PUSH1 0x0 DUP1 REVERT JUMPDEST PUSH2 0x5AA9 DUP6 DUP3 DUP7 ADD PUSH2 0x59AE JUMP JUMPDEST SWAP3 POP POP PUSH1 0x20 DUP4 ADD CALLDATALOAD PUSH2 0x5ABA DUP2 PUSH2 0x535E JUMP JUMPDEST DUP1 SWAP2 POP POP SWAP3 POP SWAP3 SWAP1 POP JUMP JUMPDEST PUSH1 0x0 DUP1 PUSH1 0x40 DUP4 DUP6 SUB SLT ISZERO PUSH2 0x5AD8 JUMPI PUSH1 0x0 DUP1 REVERT JUMPDEST DUP3 CALLDATALOAD PUSH2 0x5AE3 DUP2 PUSH2 0x57C9 JUMP JUMPDEST SWAP2 POP PUSH1 0x20 DUP4 ADD CALLDATALOAD PUSH2 0x5ABA DUP2 PUSH2 0x535E JUMP JUMPDEST PUSH1 0x20 DUP1 DUP3 MSTORE DUP3 MLOAD DUP3 DUP3 ADD DUP2 SWAP1 MSTORE PUSH1 0x0 SWAP2 SWAP1 PUSH1 0x40 SWAP1 DUP2 DUP6 ADD SWAP1 DUP7 DUP5 ADD DUP6 JUMPDEST DUP3 DUP2 LT ISZERO PUSH2 0x58D4 JUMPI DUP2 MLOAD DUP1 MLOAD DUP6 MSTORE DUP7 ADD MLOAD PUSH1 0x1 PUSH1 0x1 PUSH1 0xA0 SHL SUB AND DUP7 DUP6 ADD MSTORE SWAP3 DUP5 ADD SWAP3 SWAP1 DUP6 ADD SWAP1 PUSH1 0x1 ADD PUSH2 0x5B10 JUMP JUMPDEST PUSH1 0x0 DUP1 PUSH1 0x40 DUP4 DUP6 SUB SLT ISZERO PUSH2 0x5B51 JUMPI PUSH1 0x0 DUP1 REVERT JUMPDEST DUP3 CALLDATALOAD SWAP2 POP PUSH1 0x20 DUP4 ADD CALLDATALOAD PUSH2 0x5ABA DUP2 PUSH2 0x535E JUMP JUMPDEST PUSH1 0x0 DUP1 PUSH1 0x40 DUP4 DUP6 SUB SLT ISZERO PUSH2 0x5B76 JUMPI PUSH1 0x0 DUP1 REVERT JUMPDEST DUP3 CALLDATALOAD PUSH2 0x5B81 DUP2 PUSH2 0x535E JUMP JUMPDEST SWAP5 PUSH1 0x20 SWAP4 SWAP1 SWAP4 ADD CALLDATALOAD SWAP4 POP POP POP JUMP JUMPDEST PUSH1 0x0 PUSH1 0x20 DUP3 DUP5 SUB SLT ISZERO PUSH2 0x5BA1 JUMPI PUSH1 0x0 DUP1 REVERT JUMPDEST DUP2 CALLDATALOAD PUSH8 0xFFFFFFFFFFFFFFFF DUP2 GT ISZERO PUSH2 0x5BB8 JUMPI PUSH1 0x0 DUP1 REVERT JUMPDEST PUSH2 0x5191 DUP5 DUP3 DUP6 ADD PUSH2 0x59AE JUMP JUMPDEST PUSH4 0x4E487B71 PUSH1 0xE0 SHL PUSH1 0x0 MSTORE PUSH1 0x32 PUSH1 0x4 MSTORE PUSH1 0x24 PUSH1 0x0 REVERT JUMPDEST PUSH4 0x4E487B71 PUSH1 0xE0 SHL PUSH1 0x0 MSTORE PUSH1 0x11 PUSH1 0x4 MSTORE PUSH1 0x24 PUSH1 0x0 REVERT JUMPDEST PUSH1 0x0 PUSH1 0x0 NOT DUP3 EQ ISZERO PUSH2 0x5C04 JUMPI PUSH2 0x5C04 PUSH2 0x5BDA JUMP JUMPDEST POP PUSH1 0x1 ADD SWAP1 JUMP JUMPDEST PUSH1 0x0 PUSH1 0x20 DUP3 DUP5 SUB SLT ISZERO PUSH2 0x5C1D JUMPI PUSH1 0x0 DUP1 REVERT JUMPDEST PUSH2 0x53A0 DUP3 PUSH2 0x55AD JUMP JUMPDEST PUSH1 0x0 PUSH1 0x20 DUP3 DUP5 SUB SLT ISZERO PUSH2 0x5C38 JUMPI PUSH1 0x0 DUP1 REVERT JUMPDEST PUSH2 0x53A0 DUP3 PUSH2 0x559E JUMP JUMPDEST PUSH1 0x0 PUSH1 0x20 DUP3 DUP5 SUB SLT ISZERO PUSH2 0x5C53 JUMPI PUSH1 0x0 DUP1 REVERT JUMPDEST DUP2 MLOAD PUSH2 0x53A0 DUP2 PUSH2 0x57C9 JUMP JUMPDEST PUSH1 0x1 DUP2 DUP2 SHR SWAP1 DUP3 AND DUP1 PUSH2 0x5C72 JUMPI PUSH1 0x7F DUP3 AND SWAP2 POP JUMPDEST PUSH1 0x20 DUP3 LT DUP2 EQ ISZERO PUSH2 0x5C93 JUMPI PUSH4 0x4E487B71 PUSH1 0xE0 SHL PUSH1 0x0 MSTORE PUSH1 0x22 PUSH1 0x4 MSTORE PUSH1 0x24 PUSH1 0x0 REVERT JUMPDEST POP SWAP2 SWAP1 POP JUMP JUMPDEST PUSH4 0x4E487B71 PUSH1 0xE0 SHL PUSH1 0x0 MSTORE PUSH1 0x12 PUSH1 0x4 MSTORE PUSH1 0x24 PUSH1 0x0 REVERT JUMPDEST PUSH1 0x0 DUP3 PUSH2 0x5CBE JUMPI PUSH2 0x5CBE PUSH2 0x5C99 JUMP JUMPDEST POP DIV SWAP1 JUMP JUMPDEST PUSH1 0x0 DUP1 DUP3 SLT DUP3 PUSH1 0x1 PUSH1 0x1 PUSH1 0xFF SHL SUB SUB DUP5 SGT DUP2 ISZERO AND ISZERO PUSH2 0x5CE4 JUMPI PUSH2 0x5CE4 PUSH2 0x5BDA JUMP JUMPDEST PUSH1 0x1 PUSH1 0xFF SHL DUP4 SWAP1 SUB DUP5 SLT DUP2 AND ISZERO PUSH2 0x5CFD JUMPI PUSH2 0x5CFD PUSH2 0x5BDA JUMP JUMPDEST POP POP ADD SWAP1 JUMP JUMPDEST PUSH1 0x0 PUSH1 0x1 PUSH1 0x1 PUSH1 0xFF SHL SUB PUSH1 0x0 DUP5 SGT PUSH1 0x0 DUP5 SGT DUP6 DUP4 DIV DUP6 GT DUP3 DUP3 AND AND ISZERO PUSH2 0x5D2B JUMPI PUSH2 0x5D2B PUSH2 0x5BDA JUMP JUMPDEST PUSH1 0x1 PUSH1 0xFF SHL PUSH1 0x0 DUP8 SLT DUP3 DUP2 AND DUP8 DUP4 SDIV DUP10 SLT AND ISZERO PUSH2 0x5D4A JUMPI PUSH2 0x5D4A PUSH2 0x5BDA JUMP JUMPDEST PUSH1 0x0 DUP8 SLT SWAP3 POP DUP8 DUP3 SDIV DUP8 SLT DUP5 DUP5 AND AND ISZERO PUSH2 0x5D66 JUMPI PUSH2 0x5D66 PUSH2 0x5BDA JUMP JUMPDEST DUP8 DUP6 SDIV DUP8 SLT DUP2 DUP5 AND AND ISZERO PUSH2 0x5D7C JUMPI PUSH2 0x5D7C PUSH2 0x5BDA JUMP JUMPDEST POP POP POP SWAP3 SWAP1 SWAP4 MUL SWAP4 SWAP3 POP POP POP JUMP JUMPDEST PUSH1 0x0 DUP3 PUSH2 0x5D99 JUMPI PUSH2 0x5D99 PUSH2 0x5C99 JUMP JUMPDEST PUSH1 0x1 PUSH1 0xFF SHL DUP3 EQ PUSH1 0x0 NOT DUP5 EQ AND ISZERO PUSH2 0x5DB3 JUMPI PUSH2 0x5DB3 PUSH2 0x5BDA JUMP JUMPDEST POP SDIV SWAP1 JUMP JUMPDEST PUSH1 0x0 DUP1 DUP4 SLT DUP1 ISZERO PUSH1 0x1 PUSH1 0xFF SHL DUP6 ADD DUP5 SLT AND ISZERO PUSH2 0x5DD6 JUMPI PUSH2 0x5DD6 PUSH2 0x5BDA JUMP JUMPDEST DUP4 PUSH1 0x1 PUSH1 0x1 PUSH1 0xFF SHL SUB ADD DUP4 SGT DUP2 AND ISZERO PUSH2 0x5DF1 JUMPI PUSH2 0x5DF1 PUSH2 0x5BDA JUMP JUMPDEST POP POP SUB SWAP1 JUMP JUMPDEST PUSH1 0x0 DUP3 NOT DUP3 GT ISZERO PUSH2 0x5E0A JUMPI PUSH2 0x5E0A PUSH2 0x5BDA JUMP JUMPDEST POP ADD SWAP1 JUMP JUMPDEST PUSH1 0x0 PUSH5 0xFFFFFFFFFF DUP1 DUP4 AND DUP2 DUP6 AND DUP2 DUP4 DIV DUP2 GT DUP3 ISZERO ISZERO AND ISZERO PUSH2 0x5E33 JUMPI PUSH2 0x5E33 PUSH2 0x5BDA JUMP JUMPDEST MUL SWAP5 SWAP4 POP POP POP POP JUMP JUMPDEST PUSH1 0x0 DUP2 PUSH1 0x0 NOT DIV DUP4 GT DUP3 ISZERO ISZERO AND ISZERO PUSH2 0x5E56 JUMPI PUSH2 0x5E56 PUSH2 0x5BDA JUMP JUMPDEST POP MUL SWAP1 JUMP JUMPDEST PUSH1 0x0 DUP3 DUP3 LT ISZERO PUSH2 0x5E6D JUMPI PUSH2 0x5E6D PUSH2 0x5BDA JUMP JUMPDEST POP SUB SWAP1 JUMP JUMPDEST PUSH1 0x0 PUSH1 0x20 DUP3 DUP5 SUB SLT ISZERO PUSH2 0x5E84 JUMPI PUSH1 0x0 DUP1 REVERT JUMPDEST POP MLOAD SWAP2 SWAP1 POP JUMP JUMPDEST PUSH1 0x0 PUSH5 0xFFFFFFFFFF DUP1 DUP4 AND DUP2 DUP6 AND DUP1 DUP4 SUB DUP3 GT ISZERO PUSH2 0x5EAB JUMPI PUSH2 0x5EAB PUSH2 0x5BDA JUMP JUMPDEST ADD SWAP5 SWAP4 POP POP POP POP JUMP JUMPDEST PUSH4 0x4E487B71 PUSH1 0xE0 SHL PUSH1 0x0 MSTORE PUSH1 0x31 PUSH1 0x4 MSTORE PUSH1 0x24 PUSH1 0x0 REVERT JUMPDEST PUSH1 0x0 PUSH12 0xFFFFFFFFFFFFFFFFFFFFFFFF NOT DUP1 DUP9 PUSH1 0x60 SHL AND DUP4 MSTORE DUP1 DUP8 PUSH1 0x60 SHL AND PUSH1 0x14 DUP5 ADD MSTORE POP PUSH2 0xFFFF PUSH1 0xF0 SHL DUP6 PUSH1 0xF0 SHL AND PUSH1 0x28 DUP4 ADD MSTORE DUP4 MLOAD PUSH2 0x5F11 DUP2 PUSH1 0x2A DUP6 ADD PUSH1 0x20 DUP9 ADD PUSH2 0x55FB JUMP JUMPDEST PUSH1 0x2A SWAP3 ADD SWAP2 DUP3 ADD SWAP3 SWAP1 SWAP3 MSTORE PUSH1 0x4A ADD SWAP6 SWAP5 POP POP POP POP POP JUMP JUMPDEST PUSH1 0x0 DUP3 PUSH2 0x5F37 JUMPI PUSH2 0x5F37 PUSH2 0x5C99 JUMP JUMPDEST POP MOD SWAP1 JUMP JUMPDEST PUSH1 0x0 PUSH5 0xFFFFFFFFFF DUP1 DUP5 AND DUP1 PUSH2 0x5F54 JUMPI PUSH2 0x5F54 PUSH2 0x5C99 JUMP JUMPDEST SWAP3 AND SWAP2 SWAP1 SWAP2 DIV SWAP3 SWAP2 POP POP JUMP JUMPDEST PUSH1 0x20 DUP2 MSTORE PUSH1 0x0 PUSH2 0x53A0 PUSH1 0x20 DUP4 ADD DUP5 PUSH2 0x5627 JUMP INVALID 0xFC 0xFB DUP16 PUSH25 0x3C54C9C729957515AD137CD8832B98C21E44FD7F481E2E7603 0xBF 0xDB 0x5F LOG2 PUSH5 0x6970667358 0x22 SLT KECCAK256 SWAP8 PUSH29 0x4BDA5F959DD8F07B99035D840E303F31D216CFFE6337A762535F17589E 0x4E PUSH5 0x736F6C6343 STOP ADDMOD MULMOD STOP CALLER "},"methodIdentifiers":{"addERC20Contract(address,uint256)":"f25e13c9","admin()":"f851a440","callerFee()":"34d441d0","cancelSubscription((bytes32,uint256,address,address,bool,bool,uint8,uint16,string))":"094f9977","changeAdmin(address)":"8f283970","changeCallerFee(uint256)":"8ef0ef1c","changeMaxRemits(uint256)":"27ea9773","changeSystemFee(uint256)":"0bec99e8","collectFees()":"c8796572","createSubscription(uint256,address,string,uint8,uint16)":"3084f79e","feeBalance(bytes32,address)":"ebec6eaa","feeEstimate()":"e63d35be","getAccountSubscriptions(bool)":"6605ac0d","getAllAccounts()":"08e93d0a","getSubByIndex(bytes32,uint8,uint16)":"2d23f7e7","getSubscribersById(bytes32)":"7bbf5a6e","getSubscriptionsByAccount(bool,address)":"a5af2abd","maxRemits()":"cab1c965","nextUncheckedDay()":"da854a96","remit()":"7507ba39","removeERC20Contract(address)":"053149fa","setExternalCallers(bool)":"b4761de9","subscribe((bytes32,uint256,address,address,bool,bool,uint8,uint16,string))":"a429131a","systemFee()":"1f17ee55","systemFeeActivate(bool)":"9889552e","unixToTime(uint256)":"53a6d6e2","unsubscribe((bytes32,uint256,address,address,bool,bool,uint8,uint16,string))":"fedce940","unsubscribeByProvider((bytes32,uint256,address,address,bool,bool,uint8,uint16,string),address)":"a2349caf"}}}}}