{"contracts/ClockTowerSubscribe.sol":{"ClockTowerSubscribe":{"abi":[{"inputs":[],"stateMutability":"payable","type":"constructor"},{"anonymous":false,"inputs":[{"indexed":false,"internalType":"uint40","name":"timestamp","type":"uint40"},{"indexed":false,"internalType":"uint40","name":"checkedDay","type":"uint40"},{"indexed":true,"internalType":"address","name":"caller","type":"address"},{"indexed":false,"internalType":"bool","name":"isFinished","type":"bool"}],"name":"CallerLog","type":"event"},{"anonymous":false,"inputs":[{"indexed":true,"internalType":"bytes32","name":"id","type":"bytes32"},{"indexed":true,"internalType":"address","name":"provider","type":"address"},{"indexed":false,"internalType":"uint40","name":"timestamp","type":"uint40"},{"indexed":false,"internalType":"bool","name":"success","type":"bool"},{"indexed":false,"internalType":"uint8","name":"errorCode","type":"uint8"}],"name":"ProviderLog","type":"event"},{"anonymous":false,"inputs":[{"indexed":true,"internalType":"bytes32","name":"id","type":"bytes32"},{"indexed":true,"internalType":"address","name":"subscriber","type":"address"},{"indexed":false,"internalType":"uint40","name":"timestamp","type":"uint40"},{"indexed":false,"internalType":"uint256","name":"amount","type":"uint256"},{"indexed":false,"internalType":"bool","name":"subscribe","type":"bool"}],"name":"SubscribeLog","type":"event"},{"anonymous":false,"inputs":[{"indexed":true,"internalType":"bytes32","name":"id","type":"bytes32"},{"indexed":true,"internalType":"address","name":"subscriber","type":"address"},{"indexed":false,"internalType":"uint40","name":"timestamp","type":"uint40"},{"indexed":false,"internalType":"uint256","name":"amount","type":"uint256"},{"indexed":false,"internalType":"bool","name":"success","type":"bool"}],"name":"SubscriberLog","type":"event"},{"stateMutability":"payable","type":"fallback"},{"inputs":[{"internalType":"address","name":"erc20Contract","type":"address"}],"name":"addERC20Contract","outputs":[],"stateMutability":"nonpayable","type":"function"},{"inputs":[{"components":[{"internalType":"bytes32","name":"id","type":"bytes32"},{"internalType":"uint256","name":"amount","type":"uint256"},{"internalType":"address","name":"provider","type":"address"},{"internalType":"address","name":"token","type":"address"},{"internalType":"bool","name":"exists","type":"bool"},{"internalType":"bool","name":"cancelled","type":"bool"},{"internalType":"enum ClockTowerSubscribe.Frequency","name":"frequency","type":"uint8"},{"internalType":"uint16","name":"dueDay","type":"uint16"},{"internalType":"string","name":"description","type":"string"}],"internalType":"struct ClockTowerSubscribe.Subscription","name":"subscription","type":"tuple"}],"name":"cancelSubscription","outputs":[],"stateMutability":"nonpayable","type":"function"},{"inputs":[{"internalType":"address","name":"newAddress","type":"address"}],"name":"changeAdmin","outputs":[],"stateMutability":"nonpayable","type":"function"},{"inputs":[{"internalType":"uint256","name":"_fee","type":"uint256"}],"name":"changeFee","outputs":[],"stateMutability":"nonpayable","type":"function"},{"inputs":[{"internalType":"uint256","name":"_fixed_fee","type":"uint256"}],"name":"changeFixedFee","outputs":[],"stateMutability":"nonpayable","type":"function"},{"inputs":[{"internalType":"uint256","name":"_maxGas","type":"uint256"}],"name":"changeMaxGasPrice","outputs":[],"stateMutability":"nonpayable","type":"function"},{"inputs":[{"internalType":"uint256","name":"_maxRemits","type":"uint256"}],"name":"changeMaxRemits","outputs":[],"stateMutability":"nonpayable","type":"function"},{"inputs":[{"internalType":"uint256","name":"amount","type":"uint256"},{"internalType":"address","name":"token","type":"address"},{"internalType":"string","name":"description","type":"string"},{"internalType":"enum ClockTowerSubscribe.Frequency","name":"frequency","type":"uint8"},{"internalType":"uint16","name":"dueDay","type":"uint16"}],"name":"createSubscription","outputs":[],"stateMutability":"payable","type":"function"},{"inputs":[],"name":"feeEstimate","outputs":[{"components":[{"internalType":"uint256","name":"fee","type":"uint256"},{"internalType":"address","name":"token","type":"address"}],"internalType":"struct ClockTowerSubscribe.FeeEstimate[]","name":"","type":"tuple[]"}],"stateMutability":"view","type":"function"},{"inputs":[{"internalType":"bool","name":"bySubscriber","type":"bool"}],"name":"getAccountSubscriptions","outputs":[{"components":[{"components":[{"internalType":"bytes32","name":"id","type":"bytes32"},{"internalType":"uint256","name":"amount","type":"uint256"},{"internalType":"address","name":"provider","type":"address"},{"internalType":"address","name":"token","type":"address"},{"internalType":"bool","name":"exists","type":"bool"},{"internalType":"bool","name":"cancelled","type":"bool"},{"internalType":"enum ClockTowerSubscribe.Frequency","name":"frequency","type":"uint8"},{"internalType":"uint16","name":"dueDay","type":"uint16"},{"internalType":"string","name":"description","type":"string"}],"internalType":"struct ClockTowerSubscribe.Subscription","name":"subscription","type":"tuple"},{"internalType":"enum ClockTowerSubscribe.Status","name":"status","type":"uint8"}],"internalType":"struct ClockTowerSubscribe.SubView[]","name":"","type":"tuple[]"}],"stateMutability":"view","type":"function"},{"inputs":[],"name":"getFee","outputs":[{"internalType":"uint256","name":"","type":"uint256"}],"stateMutability":"view","type":"function"},{"inputs":[],"name":"remit","outputs":[],"stateMutability":"nonpayable","type":"function"},{"inputs":[{"internalType":"address","name":"erc20Contract","type":"address"}],"name":"removeERC20Contract","outputs":[],"stateMutability":"nonpayable","type":"function"},{"inputs":[{"components":[{"internalType":"bytes32","name":"id","type":"bytes32"},{"internalType":"uint256","name":"amount","type":"uint256"},{"internalType":"address","name":"provider","type":"address"},{"internalType":"address","name":"token","type":"address"},{"internalType":"bool","name":"exists","type":"bool"},{"internalType":"bool","name":"cancelled","type":"bool"},{"internalType":"enum ClockTowerSubscribe.Frequency","name":"frequency","type":"uint8"},{"internalType":"uint16","name":"dueDay","type":"uint16"},{"internalType":"string","name":"description","type":"string"}],"internalType":"struct ClockTowerSubscribe.Subscription","name":"subscription","type":"tuple"}],"name":"subscribe","outputs":[],"stateMutability":"payable","type":"function"},{"inputs":[],"name":"toggleContractActive","outputs":[],"stateMutability":"nonpayable","type":"function"},{"inputs":[{"internalType":"uint256","name":"unix","type":"uint256"}],"name":"unixToTime","outputs":[{"components":[{"internalType":"uint16","name":"day","type":"uint16"},{"internalType":"uint16","name":"weekDay","type":"uint16"},{"internalType":"uint16","name":"quarterDay","type":"uint16"},{"internalType":"uint16","name":"yearDay","type":"uint16"}],"internalType":"struct ClockTowerSubscribe.Time","name":"time","type":"tuple"}],"stateMutability":"pure","type":"function"},{"inputs":[{"components":[{"internalType":"bytes32","name":"id","type":"bytes32"},{"internalType":"uint256","name":"amount","type":"uint256"},{"internalType":"address","name":"provider","type":"address"},{"internalType":"address","name":"token","type":"address"},{"internalType":"bool","name":"exists","type":"bool"},{"internalType":"bool","name":"cancelled","type":"bool"},{"internalType":"enum ClockTowerSubscribe.Frequency","name":"frequency","type":"uint8"},{"internalType":"uint16","name":"dueDay","type":"uint16"},{"internalType":"string","name":"description","type":"string"}],"internalType":"struct ClockTowerSubscribe.Subscription","name":"subscription","type":"tuple"}],"name":"unsubscribe","outputs":[],"stateMutability":"payable","type":"function"},{"inputs":[{"components":[{"internalType":"bytes32","name":"id","type":"bytes32"},{"internalType":"uint256","name":"amount","type":"uint256"},{"internalType":"address","name":"provider","type":"address"},{"internalType":"address","name":"token","type":"address"},{"internalType":"bool","name":"exists","type":"bool"},{"internalType":"bool","name":"cancelled","type":"bool"},{"internalType":"enum ClockTowerSubscribe.Frequency","name":"frequency","type":"uint8"},{"internalType":"uint16","name":"dueDay","type":"uint16"},{"internalType":"string","name":"description","type":"string"}],"internalType":"struct ClockTowerSubscribe.Subscription","name":"subscription","type":"tuple"},{"internalType":"address","name":"subscriber","type":"address"}],"name":"unsubscribeByProvider","outputs":[],"stateMutability":"nonpayable","type":"function"},{"stateMutability":"payable","type":"receive"}],"evm":{"bytecode":{"linkReferences":{},"object":"6080604052600080546001600160a01b03191673f39fd6e51aad88f6f4ce6ab8827279cfffb922661790556127d86001908155662386f26fc10000600255640ba43b740060035560056004556009805460ff19169055620000604262000094565b6200006c9190620000ab565b600960016101000a81548164ffffffffff021916908364ffffffffff16021790555062000113565b6000620000a56201518083620000e0565b92915050565b600064ffffffffff83811690831681811015620000d857634e487b7160e01b600052601160045260246000fd5b039392505050565b600064ffffffffff808416806200010757634e487b7160e01b600052601260045260246000fd5b92169190910492915050565b61440180620001236000396000f3fe6080604052600436106101015760003560e01c80637507ba391161008f578063a429131a11610061578063a429131a146102db578063ab7e0909146102ee578063ced72f871461030e578063e63d35be1461032c578063fedce9401461034e57005b80637507ba39146102665780638e83ac4a1461027b5780638f2839701461029b578063a2349caf146102bb57005b80633084f79e116100d35780633084f79e1461017f5780633816377e1461019257806353a6d6e2146101b25780636605ac0d146102195780636a1db1bf1461024657005b8063053149fa1461010a578063094f99771461012a5780631385d24c1461014a57806327ea97731461015f57005b3661010857005b005b34801561011657600080fd5b50610108610125366004613ab1565b610361565b34801561013657600080fd5b50610108610145366004613ad3565b610549565b34801561015657600080fd5b50610108610c03565b34801561016b57600080fd5b5061010861017a366004613b0f565b610c1f565b61010861018d366004613b49565b610c2c565b34801561019e57600080fd5b506101086101ad366004613b0f565b611156565b3480156101be57600080fd5b506101d26101cd366004613b0f565b611163565b6040516102109190815161ffff9081168252602080840151821690830152604080840151821690830152606092830151169181019190915260800190565b60405180910390f35b34801561022557600080fd5b50610239610234366004613c0f565b6113c5565b6040516102109190613cbe565b34801561025257600080fd5b50610108610261366004613b0f565b61171f565b34801561027257600080fd5b5061010861172c565b34801561028757600080fd5b50610108610296366004613b0f565b61214f565b3480156102a757600080fd5b506101086102b6366004613ab1565b61215c565b3480156102c757600080fd5b506101086102d6366004613f81565b6121af565b6101086102e9366004613ad3565b6124e3565b3480156102fa57600080fd5b50610108610309366004613ab1565b612846565b34801561031a57600080fd5b50600154604051908152602001610210565b34801561033857600080fd5b506103416128ed565b6040516102109190613fcf565b61010861035c366004614027565b612ce8565b610369612f5d565b6001600160a01b03811661037c57600080fd5b61038581612f9c565b6103ba5760405162461bcd60e51b81526020600482015260016024820152601960f91b60448201526064015b60405180910390fd5b6000600880548060200260200160405190810160405280929190818152602001828054801561041257602002820191906000526020600020905b81546001600160a01b031681526001909101906020018083116103f4575b505050505090506000805b825181101561047357836001600160a01b03168382815181106104425761044261405c565b60200260200101516001600160a01b0316141561046157809150610473565b8061046b81614088565b91505061041d565b50805b600854610485906001906140a3565b8110156105105760086104998260016140ba565b815481106104a9576104a961405c565b600091825260209091200154600880546001600160a01b0390921691839081106104d5576104d561405c565b600091825260209091200180546001600160a01b0319166001600160a01b03929092169190911790558061050881614088565b915050610476565b506008805480610522576105226140d2565b600082815260209020810160001990810180546001600160a01b0319169055019055505050565b61055161305d565b61057e8135610567610100840160e085016140e8565b61057760e0850160c08601614103565b600061308e565b6105ae5760405162461bcd60e51b81526020600482015260016024820152603760f81b60448201526064016103b1565b80356000908152600e602090815260408083208054825181850281018501909352808352919290919083018282801561061057602002820191906000526020600020905b81546001600160a01b031681526001909101906020018083116105f2575b5050505050905060005b815181101561092c576000600a600084848151811061063b5761063b61405c565b60200260200101516001600160a01b03166001600160a01b031681526020019081526020016000206002018054905067ffffffffffffffff81111561068257610682613def565b6040519080825280602002602001820160405280156106bb57816020015b6106a86139d4565b8152602001906001900390816106a05790505b509050600a60008484815181106106d4576106d461405c565b60200260200101516001600160a01b03166001600160a01b03168152602001908152602001600020600201805480602002602001604051908101604052809291908181526020016000905b828210156107d5576000848152602090819020604080516080810182526002860290920180548352600181015461ffff81169484019490945291929083019062010000900460ff16600381111561077857610778613c2c565b600381111561078957610789613c2c565b81526020016001820160039054906101000a900460ff1660028111156107b1576107b1613c2c565b60028111156107c2576107c2613c2c565b815250508152602001906001019061071f565b50505050905060005b600a60008585815181106107f4576107f461405c565b60200260200101516001600160a01b03166001600160a01b03168152602001908152602001600020600201805490508110156108f15784600001358282815181106108415761084161405c565b60200260200101516000015114156108df576001600a600086868151811061086b5761086b61405c565b60200260200101516001600160a01b03166001600160a01b0316815260200190815260200160002060020182815481106108a7576108a761405c565b906000526020600020906002020160010160036101000a81548160ff021916908360028111156108d9576108d9613c2c565b02179055505b806108e981614088565b9150506107de565b50610919846000013584848151811061090c5761090c61405c565b602002602001015161310a565b508061092481614088565b91505061061a565b506000600d8161094260e0860160c08701614103565b600381111561095357610953613c2c565b815260200190815260200160002060008460e001602081019061097691906140e8565b61ffff1661ffff168152602001908152602001600020805480602002602001604051908101604052809291908181526020016000905b82821015610b165760008481526020908190206040805161012081018252600586029092018054835260018101549383019390935260028301546001600160a01b0390811691830191909152600380840154918216606084015260ff600160a01b8304811615156080850152600160a81b83048116151560a085015292939260c0850192600160b01b90041690811115610a4857610a48613c2c565b6003811115610a5957610a59613c2c565b81526003820154600160b81b900461ffff166020820152600482018054604090920191610a859061411e565b80601f0160208091040260200160405190810160405280929190818152602001828054610ab19061411e565b8015610afe5780601f10610ad357610100808354040283529160200191610afe565b820191906000526020600020905b815481529060010190602001808311610ae157829003601f168201915b505050505081525050815260200190600101906109ac565b50505050905060005b8151811015610bfd578360000135828281518110610b3f57610b3f61405c565b6020026020010151600001511415610beb576001600d6000610b6760e0880160c08901614103565b6003811115610b7857610b78613c2c565b815260200190815260200160002060008660e0016020810190610b9b91906140e8565b61ffff1661ffff1681526020019081526020016000208281548110610bc257610bc261405c565b906000526020600020906005020160030160156101000a81548160ff0219169083151502179055505b80610bf581614088565b915050610b1f565b50505050565b610c0b612f5d565b6009805460ff19811660ff90911615179055565b610c27612f5d565b600455565b610c3461305d565b6001600160a01b038516610c6e5760405162461bcd60e51b81526020600482015260016024820152600760fb1b60448201526064016103b1565b346002541115610ca45760405162461bcd60e51b81526020600482015260016024820152603560f81b60448201526064016103b1565b610cad85612f9c565b610cdd5760405162461bcd60e51b81526020600482015260016024820152603960f81b60448201526064016103b1565b60008611610d125760405162461bcd60e51b8152602060048201526002602482015261031360f41b60448201526064016103b1565b6020831115610d635760405162461bcd60e51b815260206004820152601a60248201527f537472696e67206d757374206265203c3d20333220627974657300000000000060448201526064016103b1565b6000826003811115610d7757610d77613c2c565b1415610de2578061ffff166000108015610d96575060078161ffff1611155b610de25760405162461bcd60e51b815260206004820152601760248201527f4d757374206265206265747765656e203120616e64203700000000000000000060448201526064016103b1565b6001826003811115610df657610df6613c2c565b1415610e61578061ffff166000108015610e155750601c8161ffff1611155b610e615760405162461bcd60e51b815260206004820152601b60248201527f4d757374757374206265206265747765656e203120616e64203238000000000060448201526064016103b1565b6002826003811115610e7557610e75613c2c565b1415610ee0578061ffff166000108015610e945750605a8161ffff1611155b610ee05760405162461bcd60e51b815260206004820152601860248201527f4d757374206265206265747765656e203120616e64203930000000000000000060448201526064016103b1565b6003826003811115610ef457610ef4613c2c565b1415610f60578061ffff166000108015610f14575061016d8161ffff1611155b610f605760405162461bcd60e51b815260206004820152601960248201527f4d757374206265206265747765656e203120616e64203336350000000000000060448201526064016103b1565b6000610fa7878787878080601f0160208091040260200160405190810160405280939291908181526020018383808284376000920191909152508992508891506132579050565b905080600d6000856003811115610fc057610fc0613c2c565b81526020808201929092526040908101600090812061ffff87168252835281812080546001818101835591835291849020855160059093020191825592840151928101929092558201516002820180546001600160a01b039283166001600160a01b0319909116179055606083015160038084018054608087015160a08801511515600160a81b0260ff60a81b19911515600160a01b0274ffffffffffffffffffffffffffffffffffffffffff199093169590961694909417179283168417815560c086015193909260ff60b01b1990911661ffff60a81b199091161790600160b01b9084908111156110b5576110b5613c2c565b021790555060e082015160038201805461ffff909216600160b81b0261ffff60b81b1990921691909117905561010082015180516110fd9160048401916020909101906139fc565b5090505061114d6040518060800160405280836000015181526020018360e0015161ffff1681526020018360c00151600381111561113d5761113d613c2c565b8152602001600090526001613345565b50505050505050565b61115e612f5d565b600355565b604080516080810182526000808252602082018190529181018290526060810182905290611194620151808461416f565b905060008082816111a88262010bd9614183565b6111b59062253d8c614183565b9050600062023ab16111c88360046141c3565b6111d2919061424a565b905060046111e38262023ab16141c3565b6111ee906003614183565b6111f8919061424a565b6112029083614278565b9150600062164b09611215846001614183565b61122190610fa06141c3565b61122b919061424a565b9050600461123b826105b56141c3565b611245919061424a565b61124f9084614278565b61125a90601f614183565b9250600061098f61126c8560506141c3565b611276919061424a565b9050600060506112888361098f6141c3565b611292919061424a565b61129c9086614278565b90506112a9600b8361424a565b94506112b685600c6141c3565b6112c1836002614183565b6112cb9190614278565b915084836112da603187614278565b6112e59060646141c3565b6112ef9190614183565b6112f99190614183565b909750915086828282600060015b838111611354578381141561132b5761132461ffff8e16836140ba565b9150611342565b61133585856134f8565b61133f90836140ba565b91505b8061134c81614088565b915050611307565b50809a506113668b61ffff1685613580565b61ffff1660408f01526113788f61364e565b8e6020019061ffff16908161ffff16815250508b8e6000019061ffff16908161ffff16815250508a8e6060019061ffff16908161ffff168152505050505050505050505050505050919050565b60608082156114bc57336000908152600a6020908152604080832060020180548251818502810185019093528083529193909284015b828210156114b1576000848152602090819020604080516080810182526002860290920180548352600181015461ffff81169484019490945291929083019062010000900460ff16600381111561145457611454613c2c565b600381111561146557611465613c2c565b81526020016001820160039054906101000a900460ff16600281111561148d5761148d613c2c565b600281111561149e5761149e613c2c565b81525050815260200190600101906113fb565b5050505090506115a6565b336000908152600a6020908152604080832060030180548251818502810185019093528083529193909284015b8282101561159f576000848152602090819020604080516080810182526002860290920180548352600181015461ffff81169484019490945291929083019062010000900460ff16600381111561154257611542613c2c565b600381111561155357611553613c2c565b81526020016001820160039054906101000a900460ff16600281111561157b5761157b613c2c565b600281111561158c5761158c613c2c565b81525050815260200190600101906114e9565b5050505090505b6000815167ffffffffffffffff8111156115c2576115c2613def565b60405190808252806020026020018201604052801561165057816020015b61163d60405180604001604052806139f06040805161012081018252600080825260208201819052918101829052606081018290526080810182905260a081018290529060c0820190815260006020820152606060409091015290565b8152602001906001900390816115e05790505b50905060005b8251811015611717576116818382815181106116745761167461405c565b6020026020010151613684565b8282815181106116935761169361405c565b6020026020010151600001819052508281815181106116b4576116b461405c565b6020026020010151606001518282815181106116d2576116d261405c565b60200260200101516020019060028111156116ef576116ef613c2c565b9081600281111561170257611702613c2c565b9052508061170f81614088565b915050611656565b509392505050565b611727612f5d565b600155565b611734612f5d565b6003543a1061177a5760405162461bcd60e51b815260206004820152601260248201527108ec2e640e0e4d2c6ca40e8dede40d0d2ced60731b60448201526064016103b1565b60006117854261390e565b60095490915064ffffffffff6101009091048116908216116117ce5760405162461bcd60e51b81526020600482015260026024820152610c4d60f21b60448201526064016103b1565b60006117d942611163565b90506000805b6003811161209c576000816117f5575060208301515b6001821415611802575082515b6002821415611812575060408301515b6003821415611822575060608301515b6000828152600d6020908152604080832061ffff85168452909152812054905b81811015612086576000848152600d6020908152604080832061ffff8716845290915290208054829081106118795761187961405c565b906000526020600020906005020160030160159054906101000a900460ff16612074576000848152600d6020908152604080832061ffff8716845290915281208054839081106118cb576118cb61405c565b60009182526020808320600590920290910154878352600d8252604080842061ffff891685529092529082208054919350908490811061190d5761190d61405c565b6000918252602080832060036005909302019190910154888352600d8252604080842061ffff8a16855290925290822080546001600160a01b039092169350908590811061195d5761195d61405c565b6000918252602080832060016005909302019190910154898352600d8252604080842061ffff8b168552909252908220805491935090869081106119a3576119a361405c565b600091825260208220600260059092020101546001546001600160a01b0390911692508390612710906119d690836142b7565b6119e0919061416f565b6119ea91906140a3565b90506000805b6000878152600e602052604090205481101561206c576004548c1415611b4b57604080518082018252888152602001829052600588905560068290556007805460ff191690555163a9059cbb60e01b8152336004820152602481018390526001600160a01b0387169063a9059cbb90604401602060405180830381600087803b158015611a7c57600080fd5b505af1158015611a90573d6000803e3d6000fd5b505050506040513d601f19601f82011682018060405250810190611ab491906142d6565b611ae55760405162461bcd60e51b8152602060048201526002602482015261191960f11b60448201526064016103b1565b6009546040805164ffffffffff428116825261010090930492909216602083015260009082015233907f90192d7875364a53e351ae63fd2dfef8dc941735b29fb0c504d06a0e21ae602e9060600160405180910390a25050505050505050505050505050565b60055487148015611b5d575060065481145b15611b70576007805460ff191660011790555b6005541580611b86575060075460ff1615156001145b1561205a576000878152600e60205260408120805483908110611bab57611bab61405c565b600091825260209091200154604051636eb1769f60e11b81526001600160a01b03918216600482018190523060248301529250879189169063dd62ed3e90604401602060405180830381600087803b158015611c0657600080fd5b505af1158015611c1a573d6000803e3d6000fd5b505050506040513d601f19601f82011682018060405250810190611c3e91906142f3565b10158015611cc757506040516370a0823160e01b81526001600160a01b0382811660048301528791908916906370a0823190602401602060405180830381600087803b158015611c8d57600080fd5b505af1158015611ca1573d6000803e3d6000fd5b505050506040513d601f19601f82011682018060405250810190611cc591906142f3565b115b15611ee6578c611cd681614088565b9d50611ce4905084846140ba565b6001600160a01b0382166000908152600c6020526040902054909350841015611e2a576001600160a01b0381166000908152600c602052604081208054869290611d2f9084906140a3565b9091555050604080514264ffffffffff1681526020810188905260018183015290516001600160a01b038316918a917feb34db283910a123efc9e9c8a81c4fb25bfc0c3d4c0e30e300bed3d05853f7169181900360600190a3611d918d61391d565b6040516323b872dd60e01b81526001600160a01b0382811660048301528681166024830152604482018890528816906323b872dd906064015b602060405180830381600087803b158015611de457600080fd5b505af1158015611df8573d6000803e3d6000fd5b505050506040513d601f19601f82011682018060405250810190611e1c91906142d6565b611e2557600080fd5b611f85565b604080514264ffffffffff1681526020810188905260018183015290516001600160a01b038316918a917feb34db283910a123efc9e9c8a81c4fb25bfc0c3d4c0e30e300bed3d05853f7169181900360600190a36001600160a01b0381166000908152600c602052604081208054889290611ea69084906140ba565b90915550506040516323b872dd60e01b81526001600160a01b038281166004830152306024830152604482018890528816906323b872dd90606401611dca565b8c611ef081614088565b9d50611efe905084846140ba565b6001600160a01b0382166000908152600c6020526040812080549295508692909190611f2b9084906140a3565b9091555050604080514264ffffffffff1681526020810188905260008183015290516001600160a01b038316918a917feb34db283910a123efc9e9c8a81c4fb25bfc0c3d4c0e30e300bed3d05853f7169181900360600190a35b6000888152600e6020526040902054611fa0906001906140a3565b8214156120585760405163a9059cbb60e01b8152336004820152602481018490526001600160a01b0388169063a9059cbb90604401602060405180830381600087803b158015611fef57600080fd5b505af1158015612003573d6000803e3d6000fd5b505050506040513d601f19601f8201168201806040525081019061202791906142d6565b6120585760405162461bcd60e51b8152602060048201526002602482015261191960f11b60448201526064016103b1565b505b8061206481614088565b9150506119f0565b505050505050505b8061207e81614088565b915050611842565b505050808061209490614088565b9150506117df565b50600060058190556006556007805460ff191690556009546040805164ffffffffff4281168252610100909304909216602083015260019082015233907f90192d7875364a53e351ae63fd2dfef8dc941735b29fb0c504d06a0e21ae602e9060600160405180910390a26001600960018282829054906101000a900464ffffffffff16612129919061430c565b92506101000a81548164ffffffffff021916908364ffffffffff1602179055505050505b565b612157612f5d565b600255565b612164612f5d565b336001600160a01b03821614801561218457506001600160a01b03811615155b61218d57600080fd5b600080546001600160a01b0319166001600160a01b0392909216919091179055565b6121b761305d565b336000908152600a6020908152604080832060030180548251818502810185019093528083529192909190849084015b8282101561229d576000848152602090819020604080516080810182526002860290920180548352600181015461ffff81169484019490945291929083019062010000900460ff16600381111561224057612240613c2c565b600381111561225157612251613c2c565b81526020016001820160039054906101000a900460ff16600281111561227957612279613c2c565b600281111561228a5761228a613c2c565b81525050815260200190600101906121e7565b5050505090506000805b82518110156122f05784600001518382815181106122c7576122c761405c565b60200260200101516000015114156122de57600191505b806122e881614088565b9150506122a7565b50806123235760405162461bcd60e51b8152602060048201526002602482015261062760f31b60448201526064016103b1565b83516000908152600e602090815260408083208054825181850281018501909352808352919290919083018282801561238557602002820191906000526020600020905b81546001600160a01b03168152600190910190602001808311612367575b505050505090506000805b825181101561244957856001600160a01b03168382815181106123b5576123b561405c565b60200260200101516001600160a01b03161415612437576001600160a01b0386166000908152600a602052604090206002908101805460019450839081106123ff576123ff61405c565b906000526020600020906002020160010160036101000a81548160ff0219169083600281111561243157612431613c2c565b02179055505b8061244181614088565b915050612390565b508061247c5760405162461bcd60e51b8152602060048201526002602482015261313960f01b60448201526064016103b1565b8551612488908661310a565b85516020808801516040805164ffffffffff42168152928301919091526000908201523391907feda05fcf4643e436dd6140776611d3334c1826b76e5168611a7cff0543fd30db9060600160405180910390a3505050505050565b6124eb61305d565b60208101356125006080830160608401613ab1565b604051636eb1769f60e11b81523360048201523060248201526001600160a01b03919091169063dd62ed3e90604401602060405180830381600087803b15801561254957600080fd5b505af115801561255d573d6000803e3d6000fd5b505050506040513d601f19601f8201168201806040525081019061258191906142f3565b1015801561261d5750602081013561259f6080830160608401613ab1565b6040516370a0823160e01b81523360048201526001600160a01b0391909116906370a0823190602401602060405180830381600087803b1580156125e257600080fd5b505af11580156125f6573d6000803e3d6000fd5b505050506040513d601f19601f8201168201806040525081019061261a91906142f3565b10155b61264e5760405162461bcd60e51b8152602060048201526002602482015261032360f41b60448201526064016103b1565b6126648135610567610100840160e085016140e8565b6126945760405162461bcd60e51b81526020600482015260016024820152603760f81b60448201526064016103b1565b80356000818152600e6020908152604080832080546001810182559084529282902090920180546001600160a01b031916331790558151608081019092529181526127269181016126ec610100850160e086016140e8565b61ffff16815260200161270560e0850160c08601614103565b600381111561271657612716613c2c565b8152602001600090526000613345565b336000908152600c60209081526040822080549184013592909161274b9084906140ba565b9091555050604080514264ffffffffff16815260208381013590820152600181830152905133918335917feda05fcf4643e436dd6140776611d3334c1826b76e5168611a7cff0543fd30db9181900360600190a36127af6080820160608301613ab1565b6040516323b872dd60e01b8152336004820152306024820152602083013560448201526001600160a01b0391909116906323b872dd90606401602060405180830381600087803b15801561280257600080fd5b505af1158015612816573d6000803e3d6000fd5b505050506040513d601f19601f8201168201806040525081019061283a91906142d6565b61284357600080fd5b50565b61284e612f5d565b6001600160a01b03811661286157600080fd5b61286a81612f9c565b1561289b5760405162461bcd60e51b81526020600482015260016024820152603160f81b60448201526064016103b1565b600880546001810182556000919091527ff3f7a9fe364faab93b216da50a3214154f22a0a2b415b23a84c8169e8b636ee30180546001600160a01b0319166001600160a01b0392909216919091179055565b60606003543a106129355760405162461bcd60e51b815260206004820152601260248201527108ec2e640e0e4d2c6ca40e8dede40d0d2ced60731b60448201526064016103b1565b60006129404261390e565b60095490915064ffffffffff6101009091048116908216116129895760405162461bcd60e51b81526020600482015260026024820152610c4d60f21b60448201526064016103b1565b600061299442611163565b9050600080600060045467ffffffffffffffff8111156129b6576129b6613def565b6040519080825280602002602001820160405280156129fb57816020015b60408051808201909152600080825260208201528152602001906001900390816129d45790505b50905060005b60038111612cde57600081612a17575060208501515b6001821415612a24575084515b6002821415612a34575060408501515b6003821415612a44575060608501515b60005b6000838152600d6020908152604080832061ffff86168452909152902054811015612cc9576000838152600d6020908152604080832061ffff861684529091529020805482908110612a9b57612a9b61405c565b906000526020600020906005020160030160159054906101000a900460ff16612cb7576000838152600d6020908152604080832061ffff861684529091528120805483908110612aed57612aed61405c565b60009182526020808320600590920290910154868352600d8252604080842061ffff8816855290925290822080549193509084908110612b2f57612b2f61405c565b6000918252602080832060036005909302019190910154878352600d8252604080842061ffff8916855290925290822080546001600160a01b0390921693509085908110612b7f57612b7f61405c565b9060005260206000209060050201600101549050612bb960405180604001604052806000815260200160006001600160a01b031681525090565b60008261271060015485612bcd91906142b7565b612bd7919061416f565b612be191906140a3565b90506000805b6000878152600e6020526040902054811015612caf576004548d1415612c1b5750989e9d5050505050505050505050505050565b6005541580612c31575060075460ff1615156001145b15612c9d578c612c4081614088565b9d50612c4e905083836140ba565b91506040518060400160405280838152602001876001600160a01b03168152509350838b8d81518110612c8357612c8361405c565b60200260200101819052508b80612c9990614088565b9c50505b80612ca781614088565b915050612be7565b505050505050505b80612cc181614088565b915050612a47565b50508080612cd690614088565b915050612a01565b5095945050505050565b612cf061305d565b336000908152600a602052604081206002015467ffffffffffffffff811115612d1b57612d1b613def565b604051908082528060200260200182016040528015612d5457816020015b612d416139d4565b815260200190600190039081612d395790505b50336000908152600a60209081526040808320600201805482518185028101850190935280835294955090939092909184015b82821015612e3d576000848152602090819020604080516080810182526002860290920180548352600181015461ffff81169484019490945291929083019062010000900460ff166003811115612de057612de0613c2c565b6003811115612df157612df1613c2c565b81526020016001820160039054906101000a900460ff166002811115612e1957612e19613c2c565b6002811115612e2a57612e2a613c2c565b8152505081526020019060010190612d87565b50505050905060005b336000908152600a6020526040902060020154811015612ef9578260000151828281518110612e7757612e7761405c565b6020026020010151600001511415612ee757336000908152600a602052604090206002908101805483908110612eaf57612eaf61405c565b906000526020600020906002020160010160036101000a81548160ff02191690836002811115612ee157612ee1613c2c565b02179055505b80612ef181614088565b915050612e46565b508151612f06903361310a565b81516020808401516040805164ffffffffff42168152928301919091526000908201523391907feda05fcf4643e436dd6140776611d3334c1826b76e5168611a7cff0543fd30db9060600160405180910390a35050565b6000546001600160a01b0316331461214d5760405162461bcd60e51b8152602060048201526002602482015261189b60f11b60448201526064016103b1565b6000806008805480602002602001604051908101604052809291908181526020018280548015612ff557602002820191906000526020600020905b81546001600160a01b03168152600190910190602001808311612fd7575b505050505090506000915060005b81518110156130565781818151811061301e5761301e61405c565b60200260200101516001600160a01b0316846001600160a01b0316141561304457600192505b8061304e81614088565b915050613003565b5050919050565b3361214d5760405162461bcd60e51b81526020600482015260016024820152603360f81b60448201526064016103b1565b60008060405180608001604052808781526020018661ffff1681526020018560038111156130be576130be613c2c565b81526020018460028111156130d5576130d5613c2c565b9052905060006130e482613684565b90508060800151156130fb57600192505050613102565b6000925050505b949350505050565b6000828152600e6020526040812090805b825481101561325057836001600160a01b03168382815481106131405761314061405c565b6000918252602090912001546001600160a01b0316141561318e578091508281815481106131705761317061405c565b600091825260209091200180546001600160a01b0319169055613250565b8254839061319e906001906140a3565b815481106131ae576131ae61405c565b9060005260206000200160009054906101000a90046001600160a01b03168383815481106131de576131de61405c565b9060005260206000200160006101000a8154816001600160a01b0302191690836001600160a01b031602179055508280548061321c5761321c6140d2565b600082815260209020810160001990810180546001600160a01b03191690550190558061324881614088565b91505061311b565b5050505050565b6132a66040805161012081018252600080825260208201819052918101829052606081018290526080810182905260a081018290529060c0820190815260006020820152606060409091015290565b600033868487426040516020016132c1959493929190614335565b60408051601f198184030181528282528051602091820120610120840183528084529083018a905233918301919091526001600160a01b038816606083015260016080830152600060a0830152915060c0810185600381111561332657613326613c2c565b81526020018461ffff1681526020018681525091505095945050505050565b336000908152600a6020526040902054600160a01b900460ff166133cf57336000818152600a6020526040812080546001600160a01b031990811684178255600b8054600181019091557f0175b7a638427703f0dbe7bb9bbf987a2551717b34e79f33b5b1008d1fa01db901805490911684179055919052805460ff60a01b1916600160a01b1790555b801561348557336000908152600a60209081526040808320600390810180546001808201835591865294849020875160029096020194855592860151928401805461ffff19811661ffff9095169485178255928701518795949093919262ffffff1990921617906201000090849081111561344c5761344c613c2c565b0217905550606082015160018201805463ff0000001916630100000083600281111561347a5761347a613c2c565b021790555050505050565b336000908152600a6020908152604080832060029081018054600180820183559186529484902087519590920290910193845591850151918301805461ffff19811661ffff909416938417825591860151869493909262ffffff1916176201000083600381111561344c5761344c613c2c565b600081600114806135095750816003145b806135145750816005145b8061351f5750816007145b8061352a5750816008145b80613535575081600a145b80613540575081600c145b1561354d5750601f61357a565b8160021461355d5750601e61357a565b61356683613977565b61357157601c613574565b601d5b60ff1690505b92915050565b60008061358c83613977565b156135995750600161359d565b5060005b6135a881605a6140ba565b84116135b657839150613647565b836135c282605a6140ba565b1080156135d957506135d58160b56140ba565b8411155b156135fa576135e981605a6140ba565b6135f390856140a3565b9150613647565b836136068260b56140ba565b10801561361e575061361a816101116140ba565b8411155b1561362e576135e98160b56140ba565b61363a816101116140ba565b61364490856140a3565b91505b5092915050565b60008061365e620151808461416f565b90506000600761366f8360036140ba565b6136799190614393565b6131029060016140ba565b6136d36040805161012081018252600080825260208201819052918101829052606081018290526080810182905260a081018290529060c0820190815260006020820152606060409091015290565b6000600d6000846040015160038111156136ef576136ef613c2c565b81526020019081526020016000206000846020015161ffff1661ffff168152602001908152602001600020805480602002602001604051908101604052809291908181526020016000905b828210156138a45760008481526020908190206040805161012081018252600586029092018054835260018101549383019390935260028301546001600160a01b0390811691830191909152600380840154918216606084015260ff600160a01b8304811615156080850152600160a81b83048116151560a085015292939260c0850192600160b01b900416908111156137d6576137d6613c2c565b60038111156137e7576137e7613c2c565b81526003820154600160b81b900461ffff1660208201526004820180546040909201916138139061411e565b80601f016020809104026020016040519081016040528092919081815260200182805461383f9061411e565b801561388c5780601f106138615761010080835404028352916020019161388c565b820191906000526020600020905b81548152906001019060200180831161386f57829003601f168201915b5050505050815250508152602001906001019061373a565b50505050905060005b81518110156130565783600001518282815181106138cd576138cd61405c565b60200260200101516000015114156138fc578181815181106138f1576138f161405c565b602002602001015192505b8061390681614088565b9150506138ad565b600061357a62015180836143a7565b6128438160405160240161393391815260200190565b60408051601f198184030181529190526020810180517bffffffffffffffffffffffffffffffffffffffffffffffffffffffff1663f82c50f160e01b1790526139b3565b6000613984600483614393565b15801561399a5750613997606483614393565b15155b8061357a57506139ac61019083614393565b1592915050565b80516a636f6e736f6c652e6c6f67602083016000808483855afa5050505050565b6040805160808101825260008082526020820181905290918201905b81526020016000905290565b828054613a089061411e565b90600052602060002090601f016020900481019282613a2a5760008555613a70565b82601f10613a4357805160ff1916838001178555613a70565b82800160010185558215613a70579182015b82811115613a70578251825591602001919060010190613a55565b50613a7c929150613a80565b5090565b5b80821115613a7c5760008155600101613a81565b80356001600160a01b0381168114613aac57600080fd5b919050565b600060208284031215613ac357600080fd5b613acc82613a95565b9392505050565b600060208284031215613ae557600080fd5b813567ffffffffffffffff811115613afc57600080fd5b82016101208185031215613acc57600080fd5b600060208284031215613b2157600080fd5b5035919050565b803560048110613aac57600080fd5b803561ffff81168114613aac57600080fd5b60008060008060008060a08789031215613b6257600080fd5b86359550613b7260208801613a95565b9450604087013567ffffffffffffffff80821115613b8f57600080fd5b818901915089601f830112613ba357600080fd5b813581811115613bb257600080fd5b8a6020828501011115613bc457600080fd5b602083019650809550505050613bdc60608801613b28565b9150613bea60808801613b37565b90509295509295509295565b801515811461284357600080fd5b8035613aac81613bf6565b600060208284031215613c2157600080fd5b8135613acc81613bf6565b634e487b7160e01b600052602160045260246000fd5b60048110613c5257613c52613c2c565b9052565b60005b83811015613c71578181015183820152602001613c59565b83811115610bfd5750506000910152565b60008151808452613c9a816020860160208601613c56565b601f01601f19169290920160200192915050565b60038110613c5257613c52613c2c565b60006020808301818452808551808352604092508286019150828160051b87010184880160005b83811015613de157603f198984030185528151805187855280518886015288810151606081818801528983015191506080613d2a818901846001600160a01b03169052565b90830151915060a090613d47888301846001600160a01b03169052565b830151915060c0613d5b8882018415159052565b90830151915060e090613d718883018415159052565b8301519150610100613d8588820184613c42565b90830151915061012090613d9e8883018461ffff169052565b929092015161014087019290925250613dbb610160860182613c82565b91890151919050613dce858a0183613cae565b9588019593505090860190600101613ce5565b509098975050505050505050565b634e487b7160e01b600052604160045260246000fd5b604051610120810167ffffffffffffffff81118282101715613e2957613e29613def565b60405290565b600082601f830112613e4057600080fd5b813567ffffffffffffffff80821115613e5b57613e5b613def565b604051601f8301601f19908116603f01168101908282118183101715613e8357613e83613def565b81604052838152866020858801011115613e9c57600080fd5b836020870160208301376000602085830101528094505050505092915050565b60006101208284031215613ecf57600080fd5b613ed7613e05565b90508135815260208201356020820152613ef360408301613a95565b6040820152613f0460608301613a95565b6060820152613f1560808301613c04565b6080820152613f2660a08301613c04565b60a0820152613f3760c08301613b28565b60c0820152613f4860e08301613b37565b60e08201526101008083013567ffffffffffffffff811115613f6957600080fd5b613f7585828601613e2f565b82840152505092915050565b60008060408385031215613f9457600080fd5b823567ffffffffffffffff811115613fab57600080fd5b613fb785828601613ebc565b925050613fc660208401613a95565b90509250929050565b602080825282518282018190526000919060409081850190868401855b8281101561401a578151805185528601516001600160a01b0316868501529284019290850190600101613fec565b5091979650505050505050565b60006020828403121561403957600080fd5b813567ffffffffffffffff81111561405057600080fd5b61364484828501613ebc565b634e487b7160e01b600052603260045260246000fd5b634e487b7160e01b600052601160045260246000fd5b600060001982141561409c5761409c614072565b5060010190565b6000828210156140b5576140b5614072565b500390565b600082198211156140cd576140cd614072565b500190565b634e487b7160e01b600052603160045260246000fd5b6000602082840312156140fa57600080fd5b613acc82613b37565b60006020828403121561411557600080fd5b613acc82613b28565b600181811c9082168061413257607f821691505b6020821081141561415357634e487b7160e01b600052602260045260246000fd5b50919050565b634e487b7160e01b600052601260045260246000fd5b60008261417e5761417e614159565b500490565b6000808212826001600160ff1b03038413811516156141a4576141a4614072565b600160ff1b83900384128116156141bd576141bd614072565b50500190565b60006001600160ff1b036000841360008413858304851182821616156141eb576141eb614072565b600160ff1b600087128281168783058912161561420a5761420a614072565b6000871292508782058712848416161561422657614226614072565b8785058712818416161561423c5761423c614072565b505050929093029392505050565b60008261425957614259614159565b600160ff1b82146000198414161561427357614273614072565b500590565b60008083128015600160ff1b85018412161561429657614296614072565b836001600160ff1b030183138116156142b1576142b1614072565b50500390565b60008160001904831182151516156142d1576142d1614072565b500290565b6000602082840312156142e857600080fd5b8151613acc81613bf6565b60006020828403121561430557600080fd5b5051919050565b600064ffffffffff80831681851680830382111561432c5761432c614072565b01949350505050565b60006bffffffffffffffffffffffff19808860601b168352808760601b1660148401525061ffff60f01b8560f01b166028830152835161437c81602a850160208801613c56565b602a920191820192909252604a0195945050505050565b6000826143a2576143a2614159565b500690565b600064ffffffffff808416806143bf576143bf614159565b9216919091049291505056fea264697066735822122033c968c0676462364afc1ffacd3fbc5278ad0a36035af86adead3bfcca1d169964736f6c63430008090033","opcodes":"PUSH1 0x80 PUSH1 0x40 MSTORE PUSH1 0x0 DUP1 SLOAD PUSH1 0x1 PUSH1 0x1 PUSH1 0xA0 SHL SUB NOT AND PUSH20 0xF39FD6E51AAD88F6F4CE6AB8827279CFFFB92266 OR SWAP1 SSTORE PUSH2 0x27D8 PUSH1 0x1 SWAP1 DUP2 SSTORE PUSH7 0x2386F26FC10000 PUSH1 0x2 SSTORE PUSH5 0xBA43B7400 PUSH1 0x3 SSTORE PUSH1 0x5 PUSH1 0x4 SSTORE PUSH1 0x9 DUP1 SLOAD PUSH1 0xFF NOT AND SWAP1 SSTORE PUSH3 0x60 TIMESTAMP PUSH3 0x94 JUMP JUMPDEST PUSH3 0x6C SWAP2 SWAP1 PUSH3 0xAB JUMP JUMPDEST PUSH1 0x9 PUSH1 0x1 PUSH2 0x100 EXP DUP2 SLOAD DUP2 PUSH5 0xFFFFFFFFFF MUL NOT AND SWAP1 DUP4 PUSH5 0xFFFFFFFFFF AND MUL OR SWAP1 SSTORE POP PUSH3 0x113 JUMP JUMPDEST PUSH1 0x0 PUSH3 0xA5 PUSH3 0x15180 DUP4 PUSH3 0xE0 JUMP JUMPDEST SWAP3 SWAP2 POP POP JUMP JUMPDEST PUSH1 0x0 PUSH5 0xFFFFFFFFFF DUP4 DUP2 AND SWAP1 DUP4 AND DUP2 DUP2 LT ISZERO PUSH3 0xD8 JUMPI PUSH4 0x4E487B71 PUSH1 0xE0 SHL PUSH1 0x0 MSTORE PUSH1 0x11 PUSH1 0x4 MSTORE PUSH1 0x24 PUSH1 0x0 REVERT JUMPDEST SUB SWAP4 SWAP3 POP POP POP JUMP JUMPDEST PUSH1 0x0 PUSH5 0xFFFFFFFFFF DUP1 DUP5 AND DUP1 PUSH3 0x107 JUMPI PUSH4 0x4E487B71 PUSH1 0xE0 SHL PUSH1 0x0 MSTORE PUSH1 0x12 PUSH1 0x4 MSTORE PUSH1 0x24 PUSH1 0x0 REVERT JUMPDEST SWAP3 AND SWAP2 SWAP1 SWAP2 DIV SWAP3 SWAP2 POP POP JUMP JUMPDEST PUSH2 0x4401 DUP1 PUSH3 0x123 PUSH1 0x0 CODECOPY PUSH1 0x0 RETURN INVALID PUSH1 0x80 PUSH1 0x40 MSTORE PUSH1 0x4 CALLDATASIZE LT PUSH2 0x101 JUMPI PUSH1 0x0 CALLDATALOAD PUSH1 0xE0 SHR DUP1 PUSH4 0x7507BA39 GT PUSH2 0x8F JUMPI DUP1 PUSH4 0xA429131A GT PUSH2 0x61 JUMPI DUP1 PUSH4 0xA429131A EQ PUSH2 0x2DB JUMPI DUP1 PUSH4 0xAB7E0909 EQ PUSH2 0x2EE JUMPI DUP1 PUSH4 0xCED72F87 EQ PUSH2 0x30E JUMPI DUP1 PUSH4 0xE63D35BE EQ PUSH2 0x32C JUMPI DUP1 PUSH4 0xFEDCE940 EQ PUSH2 0x34E JUMPI STOP JUMPDEST DUP1 PUSH4 0x7507BA39 EQ PUSH2 0x266 JUMPI DUP1 PUSH4 0x8E83AC4A EQ PUSH2 0x27B JUMPI DUP1 PUSH4 0x8F283970 EQ PUSH2 0x29B JUMPI DUP1 PUSH4 0xA2349CAF EQ PUSH2 0x2BB JUMPI STOP JUMPDEST DUP1 PUSH4 0x3084F79E GT PUSH2 0xD3 JUMPI DUP1 PUSH4 0x3084F79E EQ PUSH2 0x17F JUMPI DUP1 PUSH4 0x3816377E EQ PUSH2 0x192 JUMPI DUP1 PUSH4 0x53A6D6E2 EQ PUSH2 0x1B2 JUMPI DUP1 PUSH4 0x6605AC0D EQ PUSH2 0x219 JUMPI DUP1 PUSH4 0x6A1DB1BF EQ PUSH2 0x246 JUMPI STOP JUMPDEST DUP1 PUSH4 0x53149FA EQ PUSH2 0x10A JUMPI DUP1 PUSH4 0x94F9977 EQ PUSH2 0x12A JUMPI DUP1 PUSH4 0x1385D24C EQ PUSH2 0x14A JUMPI DUP1 PUSH4 0x27EA9773 EQ PUSH2 0x15F JUMPI STOP JUMPDEST CALLDATASIZE PUSH2 0x108 JUMPI STOP JUMPDEST STOP JUMPDEST CALLVALUE DUP1 ISZERO PUSH2 0x116 JUMPI PUSH1 0x0 DUP1 REVERT JUMPDEST POP PUSH2 0x108 PUSH2 0x125 CALLDATASIZE PUSH1 0x4 PUSH2 0x3AB1 JUMP JUMPDEST PUSH2 0x361 JUMP JUMPDEST CALLVALUE DUP1 ISZERO PUSH2 0x136 JUMPI PUSH1 0x0 DUP1 REVERT JUMPDEST POP PUSH2 0x108 PUSH2 0x145 CALLDATASIZE PUSH1 0x4 PUSH2 0x3AD3 JUMP JUMPDEST PUSH2 0x549 JUMP JUMPDEST CALLVALUE DUP1 ISZERO PUSH2 0x156 JUMPI PUSH1 0x0 DUP1 REVERT JUMPDEST POP PUSH2 0x108 PUSH2 0xC03 JUMP JUMPDEST CALLVALUE DUP1 ISZERO PUSH2 0x16B JUMPI PUSH1 0x0 DUP1 REVERT JUMPDEST POP PUSH2 0x108 PUSH2 0x17A CALLDATASIZE PUSH1 0x4 PUSH2 0x3B0F JUMP JUMPDEST PUSH2 0xC1F JUMP JUMPDEST PUSH2 0x108 PUSH2 0x18D CALLDATASIZE PUSH1 0x4 PUSH2 0x3B49 JUMP JUMPDEST PUSH2 0xC2C JUMP JUMPDEST CALLVALUE DUP1 ISZERO PUSH2 0x19E JUMPI PUSH1 0x0 DUP1 REVERT JUMPDEST POP PUSH2 0x108 PUSH2 0x1AD CALLDATASIZE PUSH1 0x4 PUSH2 0x3B0F JUMP JUMPDEST PUSH2 0x1156 JUMP JUMPDEST CALLVALUE DUP1 ISZERO PUSH2 0x1BE JUMPI PUSH1 0x0 DUP1 REVERT JUMPDEST POP PUSH2 0x1D2 PUSH2 0x1CD CALLDATASIZE PUSH1 0x4 PUSH2 0x3B0F JUMP JUMPDEST PUSH2 0x1163 JUMP JUMPDEST PUSH1 0x40 MLOAD PUSH2 0x210 SWAP2 SWAP1 DUP2 MLOAD PUSH2 0xFFFF SWAP1 DUP2 AND DUP3 MSTORE PUSH1 0x20 DUP1 DUP5 ADD MLOAD DUP3 AND SWAP1 DUP4 ADD MSTORE PUSH1 0x40 DUP1 DUP5 ADD MLOAD DUP3 AND SWAP1 DUP4 ADD MSTORE PUSH1 0x60 SWAP3 DUP4 ADD MLOAD AND SWAP2 DUP2 ADD SWAP2 SWAP1 SWAP2 MSTORE PUSH1 0x80 ADD SWAP1 JUMP JUMPDEST PUSH1 0x40 MLOAD DUP1 SWAP2 SUB SWAP1 RETURN JUMPDEST CALLVALUE DUP1 ISZERO PUSH2 0x225 JUMPI PUSH1 0x0 DUP1 REVERT JUMPDEST POP PUSH2 0x239 PUSH2 0x234 CALLDATASIZE PUSH1 0x4 PUSH2 0x3C0F JUMP JUMPDEST PUSH2 0x13C5 JUMP JUMPDEST PUSH1 0x40 MLOAD PUSH2 0x210 SWAP2 SWAP1 PUSH2 0x3CBE JUMP JUMPDEST CALLVALUE DUP1 ISZERO PUSH2 0x252 JUMPI PUSH1 0x0 DUP1 REVERT JUMPDEST POP PUSH2 0x108 PUSH2 0x261 CALLDATASIZE PUSH1 0x4 PUSH2 0x3B0F JUMP JUMPDEST PUSH2 0x171F JUMP JUMPDEST CALLVALUE DUP1 ISZERO PUSH2 0x272 JUMPI PUSH1 0x0 DUP1 REVERT JUMPDEST POP PUSH2 0x108 PUSH2 0x172C JUMP JUMPDEST CALLVALUE DUP1 ISZERO PUSH2 0x287 JUMPI PUSH1 0x0 DUP1 REVERT JUMPDEST POP PUSH2 0x108 PUSH2 0x296 CALLDATASIZE PUSH1 0x4 PUSH2 0x3B0F JUMP JUMPDEST PUSH2 0x214F JUMP JUMPDEST CALLVALUE DUP1 ISZERO PUSH2 0x2A7 JUMPI PUSH1 0x0 DUP1 REVERT JUMPDEST POP PUSH2 0x108 PUSH2 0x2B6 CALLDATASIZE PUSH1 0x4 PUSH2 0x3AB1 JUMP JUMPDEST PUSH2 0x215C JUMP JUMPDEST CALLVALUE DUP1 ISZERO PUSH2 0x2C7 JUMPI PUSH1 0x0 DUP1 REVERT JUMPDEST POP PUSH2 0x108 PUSH2 0x2D6 CALLDATASIZE PUSH1 0x4 PUSH2 0x3F81 JUMP JUMPDEST PUSH2 0x21AF JUMP JUMPDEST PUSH2 0x108 PUSH2 0x2E9 CALLDATASIZE PUSH1 0x4 PUSH2 0x3AD3 JUMP JUMPDEST PUSH2 0x24E3 JUMP JUMPDEST CALLVALUE DUP1 ISZERO PUSH2 0x2FA JUMPI PUSH1 0x0 DUP1 REVERT JUMPDEST POP PUSH2 0x108 PUSH2 0x309 CALLDATASIZE PUSH1 0x4 PUSH2 0x3AB1 JUMP JUMPDEST PUSH2 0x2846 JUMP JUMPDEST CALLVALUE DUP1 ISZERO PUSH2 0x31A JUMPI PUSH1 0x0 DUP1 REVERT JUMPDEST POP PUSH1 0x1 SLOAD PUSH1 0x40 MLOAD SWAP1 DUP2 MSTORE PUSH1 0x20 ADD PUSH2 0x210 JUMP JUMPDEST CALLVALUE DUP1 ISZERO PUSH2 0x338 JUMPI PUSH1 0x0 DUP1 REVERT JUMPDEST POP PUSH2 0x341 PUSH2 0x28ED JUMP JUMPDEST PUSH1 0x40 MLOAD PUSH2 0x210 SWAP2 SWAP1 PUSH2 0x3FCF JUMP JUMPDEST PUSH2 0x108 PUSH2 0x35C CALLDATASIZE PUSH1 0x4 PUSH2 0x4027 JUMP JUMPDEST PUSH2 0x2CE8 JUMP JUMPDEST PUSH2 0x369 PUSH2 0x2F5D JUMP JUMPDEST PUSH1 0x1 PUSH1 0x1 PUSH1 0xA0 SHL SUB DUP2 AND PUSH2 0x37C JUMPI PUSH1 0x0 DUP1 REVERT JUMPDEST PUSH2 0x385 DUP2 PUSH2 0x2F9C JUMP JUMPDEST PUSH2 0x3BA JUMPI PUSH1 0x40 MLOAD PUSH3 0x461BCD PUSH1 0xE5 SHL DUP2 MSTORE PUSH1 0x20 PUSH1 0x4 DUP3 ADD MSTORE PUSH1 0x1 PUSH1 0x24 DUP3 ADD MSTORE PUSH1 0x19 PUSH1 0xF9 SHL PUSH1 0x44 DUP3 ADD MSTORE PUSH1 0x64 ADD JUMPDEST PUSH1 0x40 MLOAD DUP1 SWAP2 SUB SWAP1 REVERT JUMPDEST PUSH1 0x0 PUSH1 0x8 DUP1 SLOAD DUP1 PUSH1 0x20 MUL PUSH1 0x20 ADD PUSH1 0x40 MLOAD SWAP1 DUP2 ADD PUSH1 0x40 MSTORE DUP1 SWAP3 SWAP2 SWAP1 DUP2 DUP2 MSTORE PUSH1 0x20 ADD DUP3 DUP1 SLOAD DUP1 ISZERO PUSH2 0x412 JUMPI PUSH1 0x20 MUL DUP3 ADD SWAP2 SWAP1 PUSH1 0x0 MSTORE PUSH1 0x20 PUSH1 0x0 KECCAK256 SWAP1 JUMPDEST DUP2 SLOAD PUSH1 0x1 PUSH1 0x1 PUSH1 0xA0 SHL SUB AND DUP2 MSTORE PUSH1 0x1 SWAP1 SWAP2 ADD SWAP1 PUSH1 0x20 ADD DUP1 DUP4 GT PUSH2 0x3F4 JUMPI JUMPDEST POP POP POP POP POP SWAP1 POP PUSH1 0x0 DUP1 JUMPDEST DUP3 MLOAD DUP2 LT ISZERO PUSH2 0x473 JUMPI DUP4 PUSH1 0x1 PUSH1 0x1 PUSH1 0xA0 SHL SUB AND DUP4 DUP3 DUP2 MLOAD DUP2 LT PUSH2 0x442 JUMPI PUSH2 0x442 PUSH2 0x405C JUMP JUMPDEST PUSH1 0x20 MUL PUSH1 0x20 ADD ADD MLOAD PUSH1 0x1 PUSH1 0x1 PUSH1 0xA0 SHL SUB AND EQ ISZERO PUSH2 0x461 JUMPI DUP1 SWAP2 POP PUSH2 0x473 JUMP JUMPDEST DUP1 PUSH2 0x46B DUP2 PUSH2 0x4088 JUMP JUMPDEST SWAP2 POP POP PUSH2 0x41D JUMP JUMPDEST POP DUP1 JUMPDEST PUSH1 0x8 SLOAD PUSH2 0x485 SWAP1 PUSH1 0x1 SWAP1 PUSH2 0x40A3 JUMP JUMPDEST DUP2 LT ISZERO PUSH2 0x510 JUMPI PUSH1 0x8 PUSH2 0x499 DUP3 PUSH1 0x1 PUSH2 0x40BA JUMP JUMPDEST DUP2 SLOAD DUP2 LT PUSH2 0x4A9 JUMPI PUSH2 0x4A9 PUSH2 0x405C JUMP JUMPDEST PUSH1 0x0 SWAP2 DUP3 MSTORE PUSH1 0x20 SWAP1 SWAP2 KECCAK256 ADD SLOAD PUSH1 0x8 DUP1 SLOAD PUSH1 0x1 PUSH1 0x1 PUSH1 0xA0 SHL SUB SWAP1 SWAP3 AND SWAP2 DUP4 SWAP1 DUP2 LT PUSH2 0x4D5 JUMPI PUSH2 0x4D5 PUSH2 0x405C JUMP JUMPDEST PUSH1 0x0 SWAP2 DUP3 MSTORE PUSH1 0x20 SWAP1 SWAP2 KECCAK256 ADD DUP1 SLOAD PUSH1 0x1 PUSH1 0x1 PUSH1 0xA0 SHL SUB NOT AND PUSH1 0x1 PUSH1 0x1 PUSH1 0xA0 SHL SUB SWAP3 SWAP1 SWAP3 AND SWAP2 SWAP1 SWAP2 OR SWAP1 SSTORE DUP1 PUSH2 0x508 DUP2 PUSH2 0x4088 JUMP JUMPDEST SWAP2 POP POP PUSH2 0x476 JUMP JUMPDEST POP PUSH1 0x8 DUP1 SLOAD DUP1 PUSH2 0x522 JUMPI PUSH2 0x522 PUSH2 0x40D2 JUMP JUMPDEST PUSH1 0x0 DUP3 DUP2 MSTORE PUSH1 0x20 SWAP1 KECCAK256 DUP2 ADD PUSH1 0x0 NOT SWAP1 DUP2 ADD DUP1 SLOAD PUSH1 0x1 PUSH1 0x1 PUSH1 0xA0 SHL SUB NOT AND SWAP1 SSTORE ADD SWAP1 SSTORE POP POP POP JUMP JUMPDEST PUSH2 0x551 PUSH2 0x305D JUMP JUMPDEST PUSH2 0x57E DUP2 CALLDATALOAD PUSH2 0x567 PUSH2 0x100 DUP5 ADD PUSH1 0xE0 DUP6 ADD PUSH2 0x40E8 JUMP JUMPDEST PUSH2 0x577 PUSH1 0xE0 DUP6 ADD PUSH1 0xC0 DUP7 ADD PUSH2 0x4103 JUMP JUMPDEST PUSH1 0x0 PUSH2 0x308E JUMP JUMPDEST PUSH2 0x5AE JUMPI PUSH1 0x40 MLOAD PUSH3 0x461BCD PUSH1 0xE5 SHL DUP2 MSTORE PUSH1 0x20 PUSH1 0x4 DUP3 ADD MSTORE PUSH1 0x1 PUSH1 0x24 DUP3 ADD MSTORE PUSH1 0x37 PUSH1 0xF8 SHL PUSH1 0x44 DUP3 ADD MSTORE PUSH1 0x64 ADD PUSH2 0x3B1 JUMP JUMPDEST DUP1 CALLDATALOAD PUSH1 0x0 SWAP1 DUP2 MSTORE PUSH1 0xE PUSH1 0x20 SWAP1 DUP2 MSTORE PUSH1 0x40 DUP1 DUP4 KECCAK256 DUP1 SLOAD DUP3 MLOAD DUP2 DUP6 MUL DUP2 ADD DUP6 ADD SWAP1 SWAP4 MSTORE DUP1 DUP4 MSTORE SWAP2 SWAP3 SWAP1 SWAP2 SWAP1 DUP4 ADD DUP3 DUP3 DUP1 ISZERO PUSH2 0x610 JUMPI PUSH1 0x20 MUL DUP3 ADD SWAP2 SWAP1 PUSH1 0x0 MSTORE PUSH1 0x20 PUSH1 0x0 KECCAK256 SWAP1 JUMPDEST DUP2 SLOAD PUSH1 0x1 PUSH1 0x1 PUSH1 0xA0 SHL SUB AND DUP2 MSTORE PUSH1 0x1 SWAP1 SWAP2 ADD SWAP1 PUSH1 0x20 ADD DUP1 DUP4 GT PUSH2 0x5F2 JUMPI JUMPDEST POP POP POP POP POP SWAP1 POP PUSH1 0x0 JUMPDEST DUP2 MLOAD DUP2 LT ISZERO PUSH2 0x92C JUMPI PUSH1 0x0 PUSH1 0xA PUSH1 0x0 DUP5 DUP5 DUP2 MLOAD DUP2 LT PUSH2 0x63B JUMPI PUSH2 0x63B PUSH2 0x405C JUMP JUMPDEST PUSH1 0x20 MUL PUSH1 0x20 ADD ADD MLOAD PUSH1 0x1 PUSH1 0x1 PUSH1 0xA0 SHL SUB AND PUSH1 0x1 PUSH1 0x1 PUSH1 0xA0 SHL SUB AND DUP2 MSTORE PUSH1 0x20 ADD SWAP1 DUP2 MSTORE PUSH1 0x20 ADD PUSH1 0x0 KECCAK256 PUSH1 0x2 ADD DUP1 SLOAD SWAP1 POP PUSH8 0xFFFFFFFFFFFFFFFF DUP2 GT ISZERO PUSH2 0x682 JUMPI PUSH2 0x682 PUSH2 0x3DEF JUMP JUMPDEST PUSH1 0x40 MLOAD SWAP1 DUP1 DUP3 MSTORE DUP1 PUSH1 0x20 MUL PUSH1 0x20 ADD DUP3 ADD PUSH1 0x40 MSTORE DUP1 ISZERO PUSH2 0x6BB JUMPI DUP2 PUSH1 0x20 ADD JUMPDEST PUSH2 0x6A8 PUSH2 0x39D4 JUMP JUMPDEST DUP2 MSTORE PUSH1 0x20 ADD SWAP1 PUSH1 0x1 SWAP1 SUB SWAP1 DUP2 PUSH2 0x6A0 JUMPI SWAP1 POP JUMPDEST POP SWAP1 POP PUSH1 0xA PUSH1 0x0 DUP5 DUP5 DUP2 MLOAD DUP2 LT PUSH2 0x6D4 JUMPI PUSH2 0x6D4 PUSH2 0x405C JUMP JUMPDEST PUSH1 0x20 MUL PUSH1 0x20 ADD ADD MLOAD PUSH1 0x1 PUSH1 0x1 PUSH1 0xA0 SHL SUB AND PUSH1 0x1 PUSH1 0x1 PUSH1 0xA0 SHL SUB AND DUP2 MSTORE PUSH1 0x20 ADD SWAP1 DUP2 MSTORE PUSH1 0x20 ADD PUSH1 0x0 KECCAK256 PUSH1 0x2 ADD DUP1 SLOAD DUP1 PUSH1 0x20 MUL PUSH1 0x20 ADD PUSH1 0x40 MLOAD SWAP1 DUP2 ADD PUSH1 0x40 MSTORE DUP1 SWAP3 SWAP2 SWAP1 DUP2 DUP2 MSTORE PUSH1 0x20 ADD PUSH1 0x0 SWAP1 JUMPDEST DUP3 DUP3 LT ISZERO PUSH2 0x7D5 JUMPI PUSH1 0x0 DUP5 DUP2 MSTORE PUSH1 0x20 SWAP1 DUP2 SWAP1 KECCAK256 PUSH1 0x40 DUP1 MLOAD PUSH1 0x80 DUP2 ADD DUP3 MSTORE PUSH1 0x2 DUP7 MUL SWAP1 SWAP3 ADD DUP1 SLOAD DUP4 MSTORE PUSH1 0x1 DUP2 ADD SLOAD PUSH2 0xFFFF DUP2 AND SWAP5 DUP5 ADD SWAP5 SWAP1 SWAP5 MSTORE SWAP2 SWAP3 SWAP1 DUP4 ADD SWAP1 PUSH3 0x10000 SWAP1 DIV PUSH1 0xFF AND PUSH1 0x3 DUP2 GT ISZERO PUSH2 0x778 JUMPI PUSH2 0x778 PUSH2 0x3C2C JUMP JUMPDEST PUSH1 0x3 DUP2 GT ISZERO PUSH2 0x789 JUMPI PUSH2 0x789 PUSH2 0x3C2C JUMP JUMPDEST DUP2 MSTORE PUSH1 0x20 ADD PUSH1 0x1 DUP3 ADD PUSH1 0x3 SWAP1 SLOAD SWAP1 PUSH2 0x100 EXP SWAP1 DIV PUSH1 0xFF AND PUSH1 0x2 DUP2 GT ISZERO PUSH2 0x7B1 JUMPI PUSH2 0x7B1 PUSH2 0x3C2C JUMP JUMPDEST PUSH1 0x2 DUP2 GT ISZERO PUSH2 0x7C2 JUMPI PUSH2 0x7C2 PUSH2 0x3C2C JUMP JUMPDEST DUP2 MSTORE POP POP DUP2 MSTORE PUSH1 0x20 ADD SWAP1 PUSH1 0x1 ADD SWAP1 PUSH2 0x71F JUMP JUMPDEST POP POP POP POP SWAP1 POP PUSH1 0x0 JUMPDEST PUSH1 0xA PUSH1 0x0 DUP6 DUP6 DUP2 MLOAD DUP2 LT PUSH2 0x7F4 JUMPI PUSH2 0x7F4 PUSH2 0x405C JUMP JUMPDEST PUSH1 0x20 MUL PUSH1 0x20 ADD ADD MLOAD PUSH1 0x1 PUSH1 0x1 PUSH1 0xA0 SHL SUB AND PUSH1 0x1 PUSH1 0x1 PUSH1 0xA0 SHL SUB AND DUP2 MSTORE PUSH1 0x20 ADD SWAP1 DUP2 MSTORE PUSH1 0x20 ADD PUSH1 0x0 KECCAK256 PUSH1 0x2 ADD DUP1 SLOAD SWAP1 POP DUP2 LT ISZERO PUSH2 0x8F1 JUMPI DUP5 PUSH1 0x0 ADD CALLDATALOAD DUP3 DUP3 DUP2 MLOAD DUP2 LT PUSH2 0x841 JUMPI PUSH2 0x841 PUSH2 0x405C JUMP JUMPDEST PUSH1 0x20 MUL PUSH1 0x20 ADD ADD MLOAD PUSH1 0x0 ADD MLOAD EQ ISZERO PUSH2 0x8DF JUMPI PUSH1 0x1 PUSH1 0xA PUSH1 0x0 DUP7 DUP7 DUP2 MLOAD DUP2 LT PUSH2 0x86B JUMPI PUSH2 0x86B PUSH2 0x405C JUMP JUMPDEST PUSH1 0x20 MUL PUSH1 0x20 ADD ADD MLOAD PUSH1 0x1 PUSH1 0x1 PUSH1 0xA0 SHL SUB AND PUSH1 0x1 PUSH1 0x1 PUSH1 0xA0 SHL SUB AND DUP2 MSTORE PUSH1 0x20 ADD SWAP1 DUP2 MSTORE PUSH1 0x20 ADD PUSH1 0x0 KECCAK256 PUSH1 0x2 ADD DUP3 DUP2 SLOAD DUP2 LT PUSH2 0x8A7 JUMPI PUSH2 0x8A7 PUSH2 0x405C JUMP JUMPDEST SWAP1 PUSH1 0x0 MSTORE PUSH1 0x20 PUSH1 0x0 KECCAK256 SWAP1 PUSH1 0x2 MUL ADD PUSH1 0x1 ADD PUSH1 0x3 PUSH2 0x100 EXP DUP2 SLOAD DUP2 PUSH1 0xFF MUL NOT AND SWAP1 DUP4 PUSH1 0x2 DUP2 GT ISZERO PUSH2 0x8D9 JUMPI PUSH2 0x8D9 PUSH2 0x3C2C JUMP JUMPDEST MUL OR SWAP1 SSTORE POP JUMPDEST DUP1 PUSH2 0x8E9 DUP2 PUSH2 0x4088 JUMP JUMPDEST SWAP2 POP POP PUSH2 0x7DE JUMP JUMPDEST POP PUSH2 0x919 DUP5 PUSH1 0x0 ADD CALLDATALOAD DUP5 DUP5 DUP2 MLOAD DUP2 LT PUSH2 0x90C JUMPI PUSH2 0x90C PUSH2 0x405C JUMP JUMPDEST PUSH1 0x20 MUL PUSH1 0x20 ADD ADD MLOAD PUSH2 0x310A JUMP JUMPDEST POP DUP1 PUSH2 0x924 DUP2 PUSH2 0x4088 JUMP JUMPDEST SWAP2 POP POP PUSH2 0x61A JUMP JUMPDEST POP PUSH1 0x0 PUSH1 0xD DUP2 PUSH2 0x942 PUSH1 0xE0 DUP7 ADD PUSH1 0xC0 DUP8 ADD PUSH2 0x4103 JUMP JUMPDEST PUSH1 0x3 DUP2 GT ISZERO PUSH2 0x953 JUMPI PUSH2 0x953 PUSH2 0x3C2C JUMP JUMPDEST DUP2 MSTORE PUSH1 0x20 ADD SWAP1 DUP2 MSTORE PUSH1 0x20 ADD PUSH1 0x0 KECCAK256 PUSH1 0x0 DUP5 PUSH1 0xE0 ADD PUSH1 0x20 DUP2 ADD SWAP1 PUSH2 0x976 SWAP2 SWAP1 PUSH2 0x40E8 JUMP JUMPDEST PUSH2 0xFFFF AND PUSH2 0xFFFF AND DUP2 MSTORE PUSH1 0x20 ADD SWAP1 DUP2 MSTORE PUSH1 0x20 ADD PUSH1 0x0 KECCAK256 DUP1 SLOAD DUP1 PUSH1 0x20 MUL PUSH1 0x20 ADD PUSH1 0x40 MLOAD SWAP1 DUP2 ADD PUSH1 0x40 MSTORE DUP1 SWAP3 SWAP2 SWAP1 DUP2 DUP2 MSTORE PUSH1 0x20 ADD PUSH1 0x0 SWAP1 JUMPDEST DUP3 DUP3 LT ISZERO PUSH2 0xB16 JUMPI PUSH1 0x0 DUP5 DUP2 MSTORE PUSH1 0x20 SWAP1 DUP2 SWAP1 KECCAK256 PUSH1 0x40 DUP1 MLOAD PUSH2 0x120 DUP2 ADD DUP3 MSTORE PUSH1 0x5 DUP7 MUL SWAP1 SWAP3 ADD DUP1 SLOAD DUP4 MSTORE PUSH1 0x1 DUP2 ADD SLOAD SWAP4 DUP4 ADD SWAP4 SWAP1 SWAP4 MSTORE PUSH1 0x2 DUP4 ADD SLOAD PUSH1 0x1 PUSH1 0x1 PUSH1 0xA0 SHL SUB SWAP1 DUP2 AND SWAP2 DUP4 ADD SWAP2 SWAP1 SWAP2 MSTORE PUSH1 0x3 DUP1 DUP5 ADD SLOAD SWAP2 DUP3 AND PUSH1 0x60 DUP5 ADD MSTORE PUSH1 0xFF PUSH1 0x1 PUSH1 0xA0 SHL DUP4 DIV DUP2 AND ISZERO ISZERO PUSH1 0x80 DUP6 ADD MSTORE PUSH1 0x1 PUSH1 0xA8 SHL DUP4 DIV DUP2 AND ISZERO ISZERO PUSH1 0xA0 DUP6 ADD MSTORE SWAP3 SWAP4 SWAP3 PUSH1 0xC0 DUP6 ADD SWAP3 PUSH1 0x1 PUSH1 0xB0 SHL SWAP1 DIV AND SWAP1 DUP2 GT ISZERO PUSH2 0xA48 JUMPI PUSH2 0xA48 PUSH2 0x3C2C JUMP JUMPDEST PUSH1 0x3 DUP2 GT ISZERO PUSH2 0xA59 JUMPI PUSH2 0xA59 PUSH2 0x3C2C JUMP JUMPDEST DUP2 MSTORE PUSH1 0x3 DUP3 ADD SLOAD PUSH1 0x1 PUSH1 0xB8 SHL SWAP1 DIV PUSH2 0xFFFF AND PUSH1 0x20 DUP3 ADD MSTORE PUSH1 0x4 DUP3 ADD DUP1 SLOAD PUSH1 0x40 SWAP1 SWAP3 ADD SWAP2 PUSH2 0xA85 SWAP1 PUSH2 0x411E JUMP JUMPDEST DUP1 PUSH1 0x1F ADD PUSH1 0x20 DUP1 SWAP2 DIV MUL PUSH1 0x20 ADD PUSH1 0x40 MLOAD SWAP1 DUP2 ADD PUSH1 0x40 MSTORE DUP1 SWAP3 SWAP2 SWAP1 DUP2 DUP2 MSTORE PUSH1 0x20 ADD DUP3 DUP1 SLOAD PUSH2 0xAB1 SWAP1 PUSH2 0x411E JUMP JUMPDEST DUP1 ISZERO PUSH2 0xAFE JUMPI DUP1 PUSH1 0x1F LT PUSH2 0xAD3 JUMPI PUSH2 0x100 DUP1 DUP4 SLOAD DIV MUL DUP4 MSTORE SWAP2 PUSH1 0x20 ADD SWAP2 PUSH2 0xAFE JUMP JUMPDEST DUP3 ADD SWAP2 SWAP1 PUSH1 0x0 MSTORE PUSH1 0x20 PUSH1 0x0 KECCAK256 SWAP1 JUMPDEST DUP2 SLOAD DUP2 MSTORE SWAP1 PUSH1 0x1 ADD SWAP1 PUSH1 0x20 ADD DUP1 DUP4 GT PUSH2 0xAE1 JUMPI DUP3 SWAP1 SUB PUSH1 0x1F AND DUP3 ADD SWAP2 JUMPDEST POP POP POP POP POP DUP2 MSTORE POP POP DUP2 MSTORE PUSH1 0x20 ADD SWAP1 PUSH1 0x1 ADD SWAP1 PUSH2 0x9AC JUMP JUMPDEST POP POP POP POP SWAP1 POP PUSH1 0x0 JUMPDEST DUP2 MLOAD DUP2 LT ISZERO PUSH2 0xBFD JUMPI DUP4 PUSH1 0x0 ADD CALLDATALOAD DUP3 DUP3 DUP2 MLOAD DUP2 LT PUSH2 0xB3F JUMPI PUSH2 0xB3F PUSH2 0x405C JUMP JUMPDEST PUSH1 0x20 MUL PUSH1 0x20 ADD ADD MLOAD PUSH1 0x0 ADD MLOAD EQ ISZERO PUSH2 0xBEB JUMPI PUSH1 0x1 PUSH1 0xD PUSH1 0x0 PUSH2 0xB67 PUSH1 0xE0 DUP9 ADD PUSH1 0xC0 DUP10 ADD PUSH2 0x4103 JUMP JUMPDEST PUSH1 0x3 DUP2 GT ISZERO PUSH2 0xB78 JUMPI PUSH2 0xB78 PUSH2 0x3C2C JUMP JUMPDEST DUP2 MSTORE PUSH1 0x20 ADD SWAP1 DUP2 MSTORE PUSH1 0x20 ADD PUSH1 0x0 KECCAK256 PUSH1 0x0 DUP7 PUSH1 0xE0 ADD PUSH1 0x20 DUP2 ADD SWAP1 PUSH2 0xB9B SWAP2 SWAP1 PUSH2 0x40E8 JUMP JUMPDEST PUSH2 0xFFFF AND PUSH2 0xFFFF AND DUP2 MSTORE PUSH1 0x20 ADD SWAP1 DUP2 MSTORE PUSH1 0x20 ADD PUSH1 0x0 KECCAK256 DUP3 DUP2 SLOAD DUP2 LT PUSH2 0xBC2 JUMPI PUSH2 0xBC2 PUSH2 0x405C JUMP JUMPDEST SWAP1 PUSH1 0x0 MSTORE PUSH1 0x20 PUSH1 0x0 KECCAK256 SWAP1 PUSH1 0x5 MUL ADD PUSH1 0x3 ADD PUSH1 0x15 PUSH2 0x100 EXP DUP2 SLOAD DUP2 PUSH1 0xFF MUL NOT AND SWAP1 DUP4 ISZERO ISZERO MUL OR SWAP1 SSTORE POP JUMPDEST DUP1 PUSH2 0xBF5 DUP2 PUSH2 0x4088 JUMP JUMPDEST SWAP2 POP POP PUSH2 0xB1F JUMP JUMPDEST POP POP POP POP JUMP JUMPDEST PUSH2 0xC0B PUSH2 0x2F5D JUMP JUMPDEST PUSH1 0x9 DUP1 SLOAD PUSH1 0xFF NOT DUP2 AND PUSH1 0xFF SWAP1 SWAP2 AND ISZERO OR SWAP1 SSTORE JUMP JUMPDEST PUSH2 0xC27 PUSH2 0x2F5D JUMP JUMPDEST PUSH1 0x4 SSTORE JUMP JUMPDEST PUSH2 0xC34 PUSH2 0x305D JUMP JUMPDEST PUSH1 0x1 PUSH1 0x1 PUSH1 0xA0 SHL SUB DUP6 AND PUSH2 0xC6E JUMPI PUSH1 0x40 MLOAD PUSH3 0x461BCD PUSH1 0xE5 SHL DUP2 MSTORE PUSH1 0x20 PUSH1 0x4 DUP3 ADD MSTORE PUSH1 0x1 PUSH1 0x24 DUP3 ADD MSTORE PUSH1 0x7 PUSH1 0xFB SHL PUSH1 0x44 DUP3 ADD MSTORE PUSH1 0x64 ADD PUSH2 0x3B1 JUMP JUMPDEST CALLVALUE PUSH1 0x2 SLOAD GT ISZERO PUSH2 0xCA4 JUMPI PUSH1 0x40 MLOAD PUSH3 0x461BCD PUSH1 0xE5 SHL DUP2 MSTORE PUSH1 0x20 PUSH1 0x4 DUP3 ADD MSTORE PUSH1 0x1 PUSH1 0x24 DUP3 ADD MSTORE PUSH1 0x35 PUSH1 0xF8 SHL PUSH1 0x44 DUP3 ADD MSTORE PUSH1 0x64 ADD PUSH2 0x3B1 JUMP JUMPDEST PUSH2 0xCAD DUP6 PUSH2 0x2F9C JUMP JUMPDEST PUSH2 0xCDD JUMPI PUSH1 0x40 MLOAD PUSH3 0x461BCD PUSH1 0xE5 SHL DUP2 MSTORE PUSH1 0x20 PUSH1 0x4 DUP3 ADD MSTORE PUSH1 0x1 PUSH1 0x24 DUP3 ADD MSTORE PUSH1 0x39 PUSH1 0xF8 SHL PUSH1 0x44 DUP3 ADD MSTORE PUSH1 0x64 ADD PUSH2 0x3B1 JUMP JUMPDEST PUSH1 0x0 DUP7 GT PUSH2 0xD12 JUMPI PUSH1 0x40 MLOAD PUSH3 0x461BCD PUSH1 0xE5 SHL DUP2 MSTORE PUSH1 0x20 PUSH1 0x4 DUP3 ADD MSTORE PUSH1 0x2 PUSH1 0x24 DUP3 ADD MSTORE PUSH2 0x313 PUSH1 0xF4 SHL PUSH1 0x44 DUP3 ADD MSTORE PUSH1 0x64 ADD PUSH2 0x3B1 JUMP JUMPDEST PUSH1 0x20 DUP4 GT ISZERO PUSH2 0xD63 JUMPI PUSH1 0x40 MLOAD PUSH3 0x461BCD PUSH1 0xE5 SHL DUP2 MSTORE PUSH1 0x20 PUSH1 0x4 DUP3 ADD MSTORE PUSH1 0x1A PUSH1 0x24 DUP3 ADD MSTORE PUSH32 0x537472696E67206D757374206265203C3D203332206279746573000000000000 PUSH1 0x44 DUP3 ADD MSTORE PUSH1 0x64 ADD PUSH2 0x3B1 JUMP JUMPDEST PUSH1 0x0 DUP3 PUSH1 0x3 DUP2 GT ISZERO PUSH2 0xD77 JUMPI PUSH2 0xD77 PUSH2 0x3C2C JUMP JUMPDEST EQ ISZERO PUSH2 0xDE2 JUMPI DUP1 PUSH2 0xFFFF AND PUSH1 0x0 LT DUP1 ISZERO PUSH2 0xD96 JUMPI POP PUSH1 0x7 DUP2 PUSH2 0xFFFF AND GT ISZERO JUMPDEST PUSH2 0xDE2 JUMPI PUSH1 0x40 MLOAD PUSH3 0x461BCD PUSH1 0xE5 SHL DUP2 MSTORE PUSH1 0x20 PUSH1 0x4 DUP3 ADD MSTORE PUSH1 0x17 PUSH1 0x24 DUP3 ADD MSTORE PUSH32 0x4D757374206265206265747765656E203120616E642037000000000000000000 PUSH1 0x44 DUP3 ADD MSTORE PUSH1 0x64 ADD PUSH2 0x3B1 JUMP JUMPDEST PUSH1 0x1 DUP3 PUSH1 0x3 DUP2 GT ISZERO PUSH2 0xDF6 JUMPI PUSH2 0xDF6 PUSH2 0x3C2C JUMP JUMPDEST EQ ISZERO PUSH2 0xE61 JUMPI DUP1 PUSH2 0xFFFF AND PUSH1 0x0 LT DUP1 ISZERO PUSH2 0xE15 JUMPI POP PUSH1 0x1C DUP2 PUSH2 0xFFFF AND GT ISZERO JUMPDEST PUSH2 0xE61 JUMPI PUSH1 0x40 MLOAD PUSH3 0x461BCD PUSH1 0xE5 SHL DUP2 MSTORE PUSH1 0x20 PUSH1 0x4 DUP3 ADD MSTORE PUSH1 0x1B PUSH1 0x24 DUP3 ADD MSTORE PUSH32 0x4D757374757374206265206265747765656E203120616E642032380000000000 PUSH1 0x44 DUP3 ADD MSTORE PUSH1 0x64 ADD PUSH2 0x3B1 JUMP JUMPDEST PUSH1 0x2 DUP3 PUSH1 0x3 DUP2 GT ISZERO PUSH2 0xE75 JUMPI PUSH2 0xE75 PUSH2 0x3C2C JUMP JUMPDEST EQ ISZERO PUSH2 0xEE0 JUMPI DUP1 PUSH2 0xFFFF AND PUSH1 0x0 LT DUP1 ISZERO PUSH2 0xE94 JUMPI POP PUSH1 0x5A DUP2 PUSH2 0xFFFF AND GT ISZERO JUMPDEST PUSH2 0xEE0 JUMPI PUSH1 0x40 MLOAD PUSH3 0x461BCD PUSH1 0xE5 SHL DUP2 MSTORE PUSH1 0x20 PUSH1 0x4 DUP3 ADD MSTORE PUSH1 0x18 PUSH1 0x24 DUP3 ADD MSTORE PUSH32 0x4D757374206265206265747765656E203120616E642039300000000000000000 PUSH1 0x44 DUP3 ADD MSTORE PUSH1 0x64 ADD PUSH2 0x3B1 JUMP JUMPDEST PUSH1 0x3 DUP3 PUSH1 0x3 DUP2 GT ISZERO PUSH2 0xEF4 JUMPI PUSH2 0xEF4 PUSH2 0x3C2C JUMP JUMPDEST EQ ISZERO PUSH2 0xF60 JUMPI DUP1 PUSH2 0xFFFF AND PUSH1 0x0 LT DUP1 ISZERO PUSH2 0xF14 JUMPI POP PUSH2 0x16D DUP2 PUSH2 0xFFFF AND GT ISZERO JUMPDEST PUSH2 0xF60 JUMPI PUSH1 0x40 MLOAD PUSH3 0x461BCD PUSH1 0xE5 SHL DUP2 MSTORE PUSH1 0x20 PUSH1 0x4 DUP3 ADD MSTORE PUSH1 0x19 PUSH1 0x24 DUP3 ADD MSTORE PUSH32 0x4D757374206265206265747765656E203120616E642033363500000000000000 PUSH1 0x44 DUP3 ADD MSTORE PUSH1 0x64 ADD PUSH2 0x3B1 JUMP JUMPDEST PUSH1 0x0 PUSH2 0xFA7 DUP8 DUP8 DUP8 DUP8 DUP1 DUP1 PUSH1 0x1F ADD PUSH1 0x20 DUP1 SWAP2 DIV MUL PUSH1 0x20 ADD PUSH1 0x40 MLOAD SWAP1 DUP2 ADD PUSH1 0x40 MSTORE DUP1 SWAP4 SWAP3 SWAP2 SWAP1 DUP2 DUP2 MSTORE PUSH1 0x20 ADD DUP4 DUP4 DUP1 DUP3 DUP5 CALLDATACOPY PUSH1 0x0 SWAP3 ADD SWAP2 SWAP1 SWAP2 MSTORE POP DUP10 SWAP3 POP DUP9 SWAP2 POP PUSH2 0x3257 SWAP1 POP JUMP JUMPDEST SWAP1 POP DUP1 PUSH1 0xD PUSH1 0x0 DUP6 PUSH1 0x3 DUP2 GT ISZERO PUSH2 0xFC0 JUMPI PUSH2 0xFC0 PUSH2 0x3C2C JUMP JUMPDEST DUP2 MSTORE PUSH1 0x20 DUP1 DUP3 ADD SWAP3 SWAP1 SWAP3 MSTORE PUSH1 0x40 SWAP1 DUP2 ADD PUSH1 0x0 SWAP1 DUP2 KECCAK256 PUSH2 0xFFFF DUP8 AND DUP3 MSTORE DUP4 MSTORE DUP2 DUP2 KECCAK256 DUP1 SLOAD PUSH1 0x1 DUP2 DUP2 ADD DUP4 SSTORE SWAP2 DUP4 MSTORE SWAP2 DUP5 SWAP1 KECCAK256 DUP6 MLOAD PUSH1 0x5 SWAP1 SWAP4 MUL ADD SWAP2 DUP3 SSTORE SWAP3 DUP5 ADD MLOAD SWAP3 DUP2 ADD SWAP3 SWAP1 SWAP3 SSTORE DUP3 ADD MLOAD PUSH1 0x2 DUP3 ADD DUP1 SLOAD PUSH1 0x1 PUSH1 0x1 PUSH1 0xA0 SHL SUB SWAP3 DUP4 AND PUSH1 0x1 PUSH1 0x1 PUSH1 0xA0 SHL SUB NOT SWAP1 SWAP2 AND OR SWAP1 SSTORE PUSH1 0x60 DUP4 ADD MLOAD PUSH1 0x3 DUP1 DUP5 ADD DUP1 SLOAD PUSH1 0x80 DUP8 ADD MLOAD PUSH1 0xA0 DUP9 ADD MLOAD ISZERO ISZERO PUSH1 0x1 PUSH1 0xA8 SHL MUL PUSH1 0xFF PUSH1 0xA8 SHL NOT SWAP2 ISZERO ISZERO PUSH1 0x1 PUSH1 0xA0 SHL MUL PUSH21 0xFFFFFFFFFFFFFFFFFFFFFFFFFFFFFFFFFFFFFFFFFF NOT SWAP1 SWAP4 AND SWAP6 SWAP1 SWAP7 AND SWAP5 SWAP1 SWAP5 OR OR SWAP3 DUP4 AND DUP5 OR DUP2 SSTORE PUSH1 0xC0 DUP7 ADD MLOAD SWAP4 SWAP1 SWAP3 PUSH1 0xFF PUSH1 0xB0 SHL NOT SWAP1 SWAP2 AND PUSH2 0xFFFF PUSH1 0xA8 SHL NOT SWAP1 SWAP2 AND OR SWAP1 PUSH1 0x1 PUSH1 0xB0 SHL SWAP1 DUP5 SWAP1 DUP2 GT ISZERO PUSH2 0x10B5 JUMPI PUSH2 0x10B5 PUSH2 0x3C2C JUMP JUMPDEST MUL OR SWAP1 SSTORE POP PUSH1 0xE0 DUP3 ADD MLOAD PUSH1 0x3 DUP3 ADD DUP1 SLOAD PUSH2 0xFFFF SWAP1 SWAP3 AND PUSH1 0x1 PUSH1 0xB8 SHL MUL PUSH2 0xFFFF PUSH1 0xB8 SHL NOT SWAP1 SWAP3 AND SWAP2 SWAP1 SWAP2 OR SWAP1 SSTORE PUSH2 0x100 DUP3 ADD MLOAD DUP1 MLOAD PUSH2 0x10FD SWAP2 PUSH1 0x4 DUP5 ADD SWAP2 PUSH1 0x20 SWAP1 SWAP2 ADD SWAP1 PUSH2 0x39FC JUMP JUMPDEST POP SWAP1 POP POP PUSH2 0x114D PUSH1 0x40 MLOAD DUP1 PUSH1 0x80 ADD PUSH1 0x40 MSTORE DUP1 DUP4 PUSH1 0x0 ADD MLOAD DUP2 MSTORE PUSH1 0x20 ADD DUP4 PUSH1 0xE0 ADD MLOAD PUSH2 0xFFFF AND DUP2 MSTORE PUSH1 0x20 ADD DUP4 PUSH1 0xC0 ADD MLOAD PUSH1 0x3 DUP2 GT ISZERO PUSH2 0x113D JUMPI PUSH2 0x113D PUSH2 0x3C2C JUMP JUMPDEST DUP2 MSTORE PUSH1 0x20 ADD PUSH1 0x0 SWAP1 MSTORE PUSH1 0x1 PUSH2 0x3345 JUMP JUMPDEST POP POP POP POP POP POP POP JUMP JUMPDEST PUSH2 0x115E PUSH2 0x2F5D JUMP JUMPDEST PUSH1 0x3 SSTORE JUMP JUMPDEST PUSH1 0x40 DUP1 MLOAD PUSH1 0x80 DUP2 ADD DUP3 MSTORE PUSH1 0x0 DUP1 DUP3 MSTORE PUSH1 0x20 DUP3 ADD DUP2 SWAP1 MSTORE SWAP2 DUP2 ADD DUP3 SWAP1 MSTORE PUSH1 0x60 DUP2 ADD DUP3 SWAP1 MSTORE SWAP1 PUSH2 0x1194 PUSH3 0x15180 DUP5 PUSH2 0x416F JUMP JUMPDEST SWAP1 POP PUSH1 0x0 DUP1 DUP3 DUP2 PUSH2 0x11A8 DUP3 PUSH3 0x10BD9 PUSH2 0x4183 JUMP JUMPDEST PUSH2 0x11B5 SWAP1 PUSH3 0x253D8C PUSH2 0x4183 JUMP JUMPDEST SWAP1 POP PUSH1 0x0 PUSH3 0x23AB1 PUSH2 0x11C8 DUP4 PUSH1 0x4 PUSH2 0x41C3 JUMP JUMPDEST PUSH2 0x11D2 SWAP2 SWAP1 PUSH2 0x424A JUMP JUMPDEST SWAP1 POP PUSH1 0x4 PUSH2 0x11E3 DUP3 PUSH3 0x23AB1 PUSH2 0x41C3 JUMP JUMPDEST PUSH2 0x11EE SWAP1 PUSH1 0x3 PUSH2 0x4183 JUMP JUMPDEST PUSH2 0x11F8 SWAP2 SWAP1 PUSH2 0x424A JUMP JUMPDEST PUSH2 0x1202 SWAP1 DUP4 PUSH2 0x4278 JUMP JUMPDEST SWAP2 POP PUSH1 0x0 PUSH3 0x164B09 PUSH2 0x1215 DUP5 PUSH1 0x1 PUSH2 0x4183 JUMP JUMPDEST PUSH2 0x1221 SWAP1 PUSH2 0xFA0 PUSH2 0x41C3 JUMP JUMPDEST PUSH2 0x122B SWAP2 SWAP1 PUSH2 0x424A JUMP JUMPDEST SWAP1 POP PUSH1 0x4 PUSH2 0x123B DUP3 PUSH2 0x5B5 PUSH2 0x41C3 JUMP JUMPDEST PUSH2 0x1245 SWAP2 SWAP1 PUSH2 0x424A JUMP JUMPDEST PUSH2 0x124F SWAP1 DUP5 PUSH2 0x4278 JUMP JUMPDEST PUSH2 0x125A SWAP1 PUSH1 0x1F PUSH2 0x4183 JUMP JUMPDEST SWAP3 POP PUSH1 0x0 PUSH2 0x98F PUSH2 0x126C DUP6 PUSH1 0x50 PUSH2 0x41C3 JUMP JUMPDEST PUSH2 0x1276 SWAP2 SWAP1 PUSH2 0x424A JUMP JUMPDEST SWAP1 POP PUSH1 0x0 PUSH1 0x50 PUSH2 0x1288 DUP4 PUSH2 0x98F PUSH2 0x41C3 JUMP JUMPDEST PUSH2 0x1292 SWAP2 SWAP1 PUSH2 0x424A JUMP JUMPDEST PUSH2 0x129C SWAP1 DUP7 PUSH2 0x4278 JUMP JUMPDEST SWAP1 POP PUSH2 0x12A9 PUSH1 0xB DUP4 PUSH2 0x424A JUMP JUMPDEST SWAP5 POP PUSH2 0x12B6 DUP6 PUSH1 0xC PUSH2 0x41C3 JUMP JUMPDEST PUSH2 0x12C1 DUP4 PUSH1 0x2 PUSH2 0x4183 JUMP JUMPDEST PUSH2 0x12CB SWAP2 SWAP1 PUSH2 0x4278 JUMP JUMPDEST SWAP2 POP DUP5 DUP4 PUSH2 0x12DA PUSH1 0x31 DUP8 PUSH2 0x4278 JUMP JUMPDEST PUSH2 0x12E5 SWAP1 PUSH1 0x64 PUSH2 0x41C3 JUMP JUMPDEST PUSH2 0x12EF SWAP2 SWAP1 PUSH2 0x4183 JUMP JUMPDEST PUSH2 0x12F9 SWAP2 SWAP1 PUSH2 0x4183 JUMP JUMPDEST SWAP1 SWAP8 POP SWAP2 POP DUP7 DUP3 DUP3 DUP3 PUSH1 0x0 PUSH1 0x1 JUMPDEST DUP4 DUP2 GT PUSH2 0x1354 JUMPI DUP4 DUP2 EQ ISZERO PUSH2 0x132B JUMPI PUSH2 0x1324 PUSH2 0xFFFF DUP15 AND DUP4 PUSH2 0x40BA JUMP JUMPDEST SWAP2 POP PUSH2 0x1342 JUMP JUMPDEST PUSH2 0x1335 DUP6 DUP6 PUSH2 0x34F8 JUMP JUMPDEST PUSH2 0x133F SWAP1 DUP4 PUSH2 0x40BA JUMP JUMPDEST SWAP2 POP JUMPDEST DUP1 PUSH2 0x134C DUP2 PUSH2 0x4088 JUMP JUMPDEST SWAP2 POP POP PUSH2 0x1307 JUMP JUMPDEST POP DUP1 SWAP11 POP PUSH2 0x1366 DUP12 PUSH2 0xFFFF AND DUP6 PUSH2 0x3580 JUMP JUMPDEST PUSH2 0xFFFF AND PUSH1 0x40 DUP16 ADD MSTORE PUSH2 0x1378 DUP16 PUSH2 0x364E JUMP JUMPDEST DUP15 PUSH1 0x20 ADD SWAP1 PUSH2 0xFFFF AND SWAP1 DUP2 PUSH2 0xFFFF AND DUP2 MSTORE POP POP DUP12 DUP15 PUSH1 0x0 ADD SWAP1 PUSH2 0xFFFF AND SWAP1 DUP2 PUSH2 0xFFFF AND DUP2 MSTORE POP POP DUP11 DUP15 PUSH1 0x60 ADD SWAP1 PUSH2 0xFFFF AND SWAP1 DUP2 PUSH2 0xFFFF AND DUP2 MSTORE POP POP POP POP POP POP POP POP POP POP POP POP POP POP POP SWAP2 SWAP1 POP JUMP JUMPDEST PUSH1 0x60 DUP1 DUP3 ISZERO PUSH2 0x14BC JUMPI CALLER PUSH1 0x0 SWAP1 DUP2 MSTORE PUSH1 0xA PUSH1 0x20 SWAP1 DUP2 MSTORE PUSH1 0x40 DUP1 DUP4 KECCAK256 PUSH1 0x2 ADD DUP1 SLOAD DUP3 MLOAD DUP2 DUP6 MUL DUP2 ADD DUP6 ADD SWAP1 SWAP4 MSTORE DUP1 DUP4 MSTORE SWAP2 SWAP4 SWAP1 SWAP3 DUP5 ADD JUMPDEST DUP3 DUP3 LT ISZERO PUSH2 0x14B1 JUMPI PUSH1 0x0 DUP5 DUP2 MSTORE PUSH1 0x20 SWAP1 DUP2 SWAP1 KECCAK256 PUSH1 0x40 DUP1 MLOAD PUSH1 0x80 DUP2 ADD DUP3 MSTORE PUSH1 0x2 DUP7 MUL SWAP1 SWAP3 ADD DUP1 SLOAD DUP4 MSTORE PUSH1 0x1 DUP2 ADD SLOAD PUSH2 0xFFFF DUP2 AND SWAP5 DUP5 ADD SWAP5 SWAP1 SWAP5 MSTORE SWAP2 SWAP3 SWAP1 DUP4 ADD SWAP1 PUSH3 0x10000 SWAP1 DIV PUSH1 0xFF AND PUSH1 0x3 DUP2 GT ISZERO PUSH2 0x1454 JUMPI PUSH2 0x1454 PUSH2 0x3C2C JUMP JUMPDEST PUSH1 0x3 DUP2 GT ISZERO PUSH2 0x1465 JUMPI PUSH2 0x1465 PUSH2 0x3C2C JUMP JUMPDEST DUP2 MSTORE PUSH1 0x20 ADD PUSH1 0x1 DUP3 ADD PUSH1 0x3 SWAP1 SLOAD SWAP1 PUSH2 0x100 EXP SWAP1 DIV PUSH1 0xFF AND PUSH1 0x2 DUP2 GT ISZERO PUSH2 0x148D JUMPI PUSH2 0x148D PUSH2 0x3C2C JUMP JUMPDEST PUSH1 0x2 DUP2 GT ISZERO PUSH2 0x149E JUMPI PUSH2 0x149E PUSH2 0x3C2C JUMP JUMPDEST DUP2 MSTORE POP POP DUP2 MSTORE PUSH1 0x20 ADD SWAP1 PUSH1 0x1 ADD SWAP1 PUSH2 0x13FB JUMP JUMPDEST POP POP POP POP SWAP1 POP PUSH2 0x15A6 JUMP JUMPDEST CALLER PUSH1 0x0 SWAP1 DUP2 MSTORE PUSH1 0xA PUSH1 0x20 SWAP1 DUP2 MSTORE PUSH1 0x40 DUP1 DUP4 KECCAK256 PUSH1 0x3 ADD DUP1 SLOAD DUP3 MLOAD DUP2 DUP6 MUL DUP2 ADD DUP6 ADD SWAP1 SWAP4 MSTORE DUP1 DUP4 MSTORE SWAP2 SWAP4 SWAP1 SWAP3 DUP5 ADD JUMPDEST DUP3 DUP3 LT ISZERO PUSH2 0x159F JUMPI PUSH1 0x0 DUP5 DUP2 MSTORE PUSH1 0x20 SWAP1 DUP2 SWAP1 KECCAK256 PUSH1 0x40 DUP1 MLOAD PUSH1 0x80 DUP2 ADD DUP3 MSTORE PUSH1 0x2 DUP7 MUL SWAP1 SWAP3 ADD DUP1 SLOAD DUP4 MSTORE PUSH1 0x1 DUP2 ADD SLOAD PUSH2 0xFFFF DUP2 AND SWAP5 DUP5 ADD SWAP5 SWAP1 SWAP5 MSTORE SWAP2 SWAP3 SWAP1 DUP4 ADD SWAP1 PUSH3 0x10000 SWAP1 DIV PUSH1 0xFF AND PUSH1 0x3 DUP2 GT ISZERO PUSH2 0x1542 JUMPI PUSH2 0x1542 PUSH2 0x3C2C JUMP JUMPDEST PUSH1 0x3 DUP2 GT ISZERO PUSH2 0x1553 JUMPI PUSH2 0x1553 PUSH2 0x3C2C JUMP JUMPDEST DUP2 MSTORE PUSH1 0x20 ADD PUSH1 0x1 DUP3 ADD PUSH1 0x3 SWAP1 SLOAD SWAP1 PUSH2 0x100 EXP SWAP1 DIV PUSH1 0xFF AND PUSH1 0x2 DUP2 GT ISZERO PUSH2 0x157B JUMPI PUSH2 0x157B PUSH2 0x3C2C JUMP JUMPDEST PUSH1 0x2 DUP2 GT ISZERO PUSH2 0x158C JUMPI PUSH2 0x158C PUSH2 0x3C2C JUMP JUMPDEST DUP2 MSTORE POP POP DUP2 MSTORE PUSH1 0x20 ADD SWAP1 PUSH1 0x1 ADD SWAP1 PUSH2 0x14E9 JUMP JUMPDEST POP POP POP POP SWAP1 POP JUMPDEST PUSH1 0x0 DUP2 MLOAD PUSH8 0xFFFFFFFFFFFFFFFF DUP2 GT ISZERO PUSH2 0x15C2 JUMPI PUSH2 0x15C2 PUSH2 0x3DEF JUMP JUMPDEST PUSH1 0x40 MLOAD SWAP1 DUP1 DUP3 MSTORE DUP1 PUSH1 0x20 MUL PUSH1 0x20 ADD DUP3 ADD PUSH1 0x40 MSTORE DUP1 ISZERO PUSH2 0x1650 JUMPI DUP2 PUSH1 0x20 ADD JUMPDEST PUSH2 0x163D PUSH1 0x40 MLOAD DUP1 PUSH1 0x40 ADD PUSH1 0x40 MSTORE DUP1 PUSH2 0x39F0 PUSH1 0x40 DUP1 MLOAD PUSH2 0x120 DUP2 ADD DUP3 MSTORE PUSH1 0x0 DUP1 DUP3 MSTORE PUSH1 0x20 DUP3 ADD DUP2 SWAP1 MSTORE SWAP2 DUP2 ADD DUP3 SWAP1 MSTORE PUSH1 0x60 DUP2 ADD DUP3 SWAP1 MSTORE PUSH1 0x80 DUP2 ADD DUP3 SWAP1 MSTORE PUSH1 0xA0 DUP2 ADD DUP3 SWAP1 MSTORE SWAP1 PUSH1 0xC0 DUP3 ADD SWAP1 DUP2 MSTORE PUSH1 0x0 PUSH1 0x20 DUP3 ADD MSTORE PUSH1 0x60 PUSH1 0x40 SWAP1 SWAP2 ADD MSTORE SWAP1 JUMP JUMPDEST DUP2 MSTORE PUSH1 0x20 ADD SWAP1 PUSH1 0x1 SWAP1 SUB SWAP1 DUP2 PUSH2 0x15E0 JUMPI SWAP1 POP JUMPDEST POP SWAP1 POP PUSH1 0x0 JUMPDEST DUP3 MLOAD DUP2 LT ISZERO PUSH2 0x1717 JUMPI PUSH2 0x1681 DUP4 DUP3 DUP2 MLOAD DUP2 LT PUSH2 0x1674 JUMPI PUSH2 0x1674 PUSH2 0x405C JUMP JUMPDEST PUSH1 0x20 MUL PUSH1 0x20 ADD ADD MLOAD PUSH2 0x3684 JUMP JUMPDEST DUP3 DUP3 DUP2 MLOAD DUP2 LT PUSH2 0x1693 JUMPI PUSH2 0x1693 PUSH2 0x405C JUMP JUMPDEST PUSH1 0x20 MUL PUSH1 0x20 ADD ADD MLOAD PUSH1 0x0 ADD DUP2 SWAP1 MSTORE POP DUP3 DUP2 DUP2 MLOAD DUP2 LT PUSH2 0x16B4 JUMPI PUSH2 0x16B4 PUSH2 0x405C JUMP JUMPDEST PUSH1 0x20 MUL PUSH1 0x20 ADD ADD MLOAD PUSH1 0x60 ADD MLOAD DUP3 DUP3 DUP2 MLOAD DUP2 LT PUSH2 0x16D2 JUMPI PUSH2 0x16D2 PUSH2 0x405C JUMP JUMPDEST PUSH1 0x20 MUL PUSH1 0x20 ADD ADD MLOAD PUSH1 0x20 ADD SWAP1 PUSH1 0x2 DUP2 GT ISZERO PUSH2 0x16EF JUMPI PUSH2 0x16EF PUSH2 0x3C2C JUMP JUMPDEST SWAP1 DUP2 PUSH1 0x2 DUP2 GT ISZERO PUSH2 0x1702 JUMPI PUSH2 0x1702 PUSH2 0x3C2C JUMP JUMPDEST SWAP1 MSTORE POP DUP1 PUSH2 0x170F DUP2 PUSH2 0x4088 JUMP JUMPDEST SWAP2 POP POP PUSH2 0x1656 JUMP JUMPDEST POP SWAP4 SWAP3 POP POP POP JUMP JUMPDEST PUSH2 0x1727 PUSH2 0x2F5D JUMP JUMPDEST PUSH1 0x1 SSTORE JUMP JUMPDEST PUSH2 0x1734 PUSH2 0x2F5D JUMP JUMPDEST PUSH1 0x3 SLOAD GASPRICE LT PUSH2 0x177A JUMPI PUSH1 0x40 MLOAD PUSH3 0x461BCD PUSH1 0xE5 SHL DUP2 MSTORE PUSH1 0x20 PUSH1 0x4 DUP3 ADD MSTORE PUSH1 0x12 PUSH1 0x24 DUP3 ADD MSTORE PUSH18 0x8EC2E640E0E4D2C6CA40E8DEDE40D0D2CED PUSH1 0x73 SHL PUSH1 0x44 DUP3 ADD MSTORE PUSH1 0x64 ADD PUSH2 0x3B1 JUMP JUMPDEST PUSH1 0x0 PUSH2 0x1785 TIMESTAMP PUSH2 0x390E JUMP JUMPDEST PUSH1 0x9 SLOAD SWAP1 SWAP2 POP PUSH5 0xFFFFFFFFFF PUSH2 0x100 SWAP1 SWAP2 DIV DUP2 AND SWAP1 DUP3 AND GT PUSH2 0x17CE JUMPI PUSH1 0x40 MLOAD PUSH3 0x461BCD PUSH1 0xE5 SHL DUP2 MSTORE PUSH1 0x20 PUSH1 0x4 DUP3 ADD MSTORE PUSH1 0x2 PUSH1 0x24 DUP3 ADD MSTORE PUSH2 0xC4D PUSH1 0xF2 SHL PUSH1 0x44 DUP3 ADD MSTORE PUSH1 0x64 ADD PUSH2 0x3B1 JUMP JUMPDEST PUSH1 0x0 PUSH2 0x17D9 TIMESTAMP PUSH2 0x1163 JUMP JUMPDEST SWAP1 POP PUSH1 0x0 DUP1 JUMPDEST PUSH1 0x3 DUP2 GT PUSH2 0x209C JUMPI PUSH1 0x0 DUP2 PUSH2 0x17F5 JUMPI POP PUSH1 0x20 DUP4 ADD MLOAD JUMPDEST PUSH1 0x1 DUP3 EQ ISZERO PUSH2 0x1802 JUMPI POP DUP3 MLOAD JUMPDEST PUSH1 0x2 DUP3 EQ ISZERO PUSH2 0x1812 JUMPI POP PUSH1 0x40 DUP4 ADD MLOAD JUMPDEST PUSH1 0x3 DUP3 EQ ISZERO PUSH2 0x1822 JUMPI POP PUSH1 0x60 DUP4 ADD MLOAD JUMPDEST PUSH1 0x0 DUP3 DUP2 MSTORE PUSH1 0xD PUSH1 0x20 SWAP1 DUP2 MSTORE PUSH1 0x40 DUP1 DUP4 KECCAK256 PUSH2 0xFFFF DUP6 AND DUP5 MSTORE SWAP1 SWAP2 MSTORE DUP2 KECCAK256 SLOAD SWAP1 JUMPDEST DUP2 DUP2 LT ISZERO PUSH2 0x2086 JUMPI PUSH1 0x0 DUP5 DUP2 MSTORE PUSH1 0xD PUSH1 0x20 SWAP1 DUP2 MSTORE PUSH1 0x40 DUP1 DUP4 KECCAK256 PUSH2 0xFFFF DUP8 AND DUP5 MSTORE SWAP1 SWAP2 MSTORE SWAP1 KECCAK256 DUP1 SLOAD DUP3 SWAP1 DUP2 LT PUSH2 0x1879 JUMPI PUSH2 0x1879 PUSH2 0x405C JUMP JUMPDEST SWAP1 PUSH1 0x0 MSTORE PUSH1 0x20 PUSH1 0x0 KECCAK256 SWAP1 PUSH1 0x5 MUL ADD PUSH1 0x3 ADD PUSH1 0x15 SWAP1 SLOAD SWAP1 PUSH2 0x100 EXP SWAP1 DIV PUSH1 0xFF AND PUSH2 0x2074 JUMPI PUSH1 0x0 DUP5 DUP2 MSTORE PUSH1 0xD PUSH1 0x20 SWAP1 DUP2 MSTORE PUSH1 0x40 DUP1 DUP4 KECCAK256 PUSH2 0xFFFF DUP8 AND DUP5 MSTORE SWAP1 SWAP2 MSTORE DUP2 KECCAK256 DUP1 SLOAD DUP4 SWAP1 DUP2 LT PUSH2 0x18CB JUMPI PUSH2 0x18CB PUSH2 0x405C JUMP JUMPDEST PUSH1 0x0 SWAP2 DUP3 MSTORE PUSH1 0x20 DUP1 DUP4 KECCAK256 PUSH1 0x5 SWAP1 SWAP3 MUL SWAP1 SWAP2 ADD SLOAD DUP8 DUP4 MSTORE PUSH1 0xD DUP3 MSTORE PUSH1 0x40 DUP1 DUP5 KECCAK256 PUSH2 0xFFFF DUP10 AND DUP6 MSTORE SWAP1 SWAP3 MSTORE SWAP1 DUP3 KECCAK256 DUP1 SLOAD SWAP2 SWAP4 POP SWAP1 DUP5 SWAP1 DUP2 LT PUSH2 0x190D JUMPI PUSH2 0x190D PUSH2 0x405C JUMP JUMPDEST PUSH1 0x0 SWAP2 DUP3 MSTORE PUSH1 0x20 DUP1 DUP4 KECCAK256 PUSH1 0x3 PUSH1 0x5 SWAP1 SWAP4 MUL ADD SWAP2 SWAP1 SWAP2 ADD SLOAD DUP9 DUP4 MSTORE PUSH1 0xD DUP3 MSTORE PUSH1 0x40 DUP1 DUP5 KECCAK256 PUSH2 0xFFFF DUP11 AND DUP6 MSTORE SWAP1 SWAP3 MSTORE SWAP1 DUP3 KECCAK256 DUP1 SLOAD PUSH1 0x1 PUSH1 0x1 PUSH1 0xA0 SHL SUB SWAP1 SWAP3 AND SWAP4 POP SWAP1 DUP6 SWAP1 DUP2 LT PUSH2 0x195D JUMPI PUSH2 0x195D PUSH2 0x405C JUMP JUMPDEST PUSH1 0x0 SWAP2 DUP3 MSTORE PUSH1 0x20 DUP1 DUP4 KECCAK256 PUSH1 0x1 PUSH1 0x5 SWAP1 SWAP4 MUL ADD SWAP2 SWAP1 SWAP2 ADD SLOAD DUP10 DUP4 MSTORE PUSH1 0xD DUP3 MSTORE PUSH1 0x40 DUP1 DUP5 KECCAK256 PUSH2 0xFFFF DUP12 AND DUP6 MSTORE SWAP1 SWAP3 MSTORE SWAP1 DUP3 KECCAK256 DUP1 SLOAD SWAP2 SWAP4 POP SWAP1 DUP7 SWAP1 DUP2 LT PUSH2 0x19A3 JUMPI PUSH2 0x19A3 PUSH2 0x405C JUMP JUMPDEST PUSH1 0x0 SWAP2 DUP3 MSTORE PUSH1 0x20 DUP3 KECCAK256 PUSH1 0x2 PUSH1 0x5 SWAP1 SWAP3 MUL ADD ADD SLOAD PUSH1 0x1 SLOAD PUSH1 0x1 PUSH1 0x1 PUSH1 0xA0 SHL SUB SWAP1 SWAP2 AND SWAP3 POP DUP4 SWAP1 PUSH2 0x2710 SWAP1 PUSH2 0x19D6 SWAP1 DUP4 PUSH2 0x42B7 JUMP JUMPDEST PUSH2 0x19E0 SWAP2 SWAP1 PUSH2 0x416F JUMP JUMPDEST PUSH2 0x19EA SWAP2 SWAP1 PUSH2 0x40A3 JUMP JUMPDEST SWAP1 POP PUSH1 0x0 DUP1 JUMPDEST PUSH1 0x0 DUP8 DUP2 MSTORE PUSH1 0xE PUSH1 0x20 MSTORE PUSH1 0x40 SWAP1 KECCAK256 SLOAD DUP2 LT ISZERO PUSH2 0x206C JUMPI PUSH1 0x4 SLOAD DUP13 EQ ISZERO PUSH2 0x1B4B JUMPI PUSH1 0x40 DUP1 MLOAD DUP1 DUP3 ADD DUP3 MSTORE DUP9 DUP2 MSTORE PUSH1 0x20 ADD DUP3 SWAP1 MSTORE PUSH1 0x5 DUP9 SWAP1 SSTORE PUSH1 0x6 DUP3 SWAP1 SSTORE PUSH1 0x7 DUP1 SLOAD PUSH1 0xFF NOT AND SWAP1 SSTORE MLOAD PUSH4 0xA9059CBB PUSH1 0xE0 SHL DUP2 MSTORE CALLER PUSH1 0x4 DUP3 ADD MSTORE PUSH1 0x24 DUP2 ADD DUP4 SWAP1 MSTORE PUSH1 0x1 PUSH1 0x1 PUSH1 0xA0 SHL SUB DUP8 AND SWAP1 PUSH4 0xA9059CBB SWAP1 PUSH1 0x44 ADD PUSH1 0x20 PUSH1 0x40 MLOAD DUP1 DUP4 SUB DUP2 PUSH1 0x0 DUP8 DUP1 EXTCODESIZE ISZERO DUP1 ISZERO PUSH2 0x1A7C JUMPI PUSH1 0x0 DUP1 REVERT JUMPDEST POP GAS CALL ISZERO DUP1 ISZERO PUSH2 0x1A90 JUMPI RETURNDATASIZE PUSH1 0x0 DUP1 RETURNDATACOPY RETURNDATASIZE PUSH1 0x0 REVERT JUMPDEST POP POP POP POP PUSH1 0x40 MLOAD RETURNDATASIZE PUSH1 0x1F NOT PUSH1 0x1F DUP3 ADD AND DUP3 ADD DUP1 PUSH1 0x40 MSTORE POP DUP2 ADD SWAP1 PUSH2 0x1AB4 SWAP2 SWAP1 PUSH2 0x42D6 JUMP JUMPDEST PUSH2 0x1AE5 JUMPI PUSH1 0x40 MLOAD PUSH3 0x461BCD PUSH1 0xE5 SHL DUP2 MSTORE PUSH1 0x20 PUSH1 0x4 DUP3 ADD MSTORE PUSH1 0x2 PUSH1 0x24 DUP3 ADD MSTORE PUSH2 0x1919 PUSH1 0xF1 SHL PUSH1 0x44 DUP3 ADD MSTORE PUSH1 0x64 ADD PUSH2 0x3B1 JUMP JUMPDEST PUSH1 0x9 SLOAD PUSH1 0x40 DUP1 MLOAD PUSH5 0xFFFFFFFFFF TIMESTAMP DUP2 AND DUP3 MSTORE PUSH2 0x100 SWAP1 SWAP4 DIV SWAP3 SWAP1 SWAP3 AND PUSH1 0x20 DUP4 ADD MSTORE PUSH1 0x0 SWAP1 DUP3 ADD MSTORE CALLER SWAP1 PUSH32 0x90192D7875364A53E351AE63FD2DFEF8DC941735B29FB0C504D06A0E21AE602E SWAP1 PUSH1 0x60 ADD PUSH1 0x40 MLOAD DUP1 SWAP2 SUB SWAP1 LOG2 POP POP POP POP POP POP POP POP POP POP POP POP POP POP JUMP JUMPDEST PUSH1 0x5 SLOAD DUP8 EQ DUP1 ISZERO PUSH2 0x1B5D JUMPI POP PUSH1 0x6 SLOAD DUP2 EQ JUMPDEST ISZERO PUSH2 0x1B70 JUMPI PUSH1 0x7 DUP1 SLOAD PUSH1 0xFF NOT AND PUSH1 0x1 OR SWAP1 SSTORE JUMPDEST PUSH1 0x5 SLOAD ISZERO DUP1 PUSH2 0x1B86 JUMPI POP PUSH1 0x7 SLOAD PUSH1 0xFF AND ISZERO ISZERO PUSH1 0x1 EQ JUMPDEST ISZERO PUSH2 0x205A JUMPI PUSH1 0x0 DUP8 DUP2 MSTORE PUSH1 0xE PUSH1 0x20 MSTORE PUSH1 0x40 DUP2 KECCAK256 DUP1 SLOAD DUP4 SWAP1 DUP2 LT PUSH2 0x1BAB JUMPI PUSH2 0x1BAB PUSH2 0x405C JUMP JUMPDEST PUSH1 0x0 SWAP2 DUP3 MSTORE PUSH1 0x20 SWAP1 SWAP2 KECCAK256 ADD SLOAD PUSH1 0x40 MLOAD PUSH4 0x6EB1769F PUSH1 0xE1 SHL DUP2 MSTORE PUSH1 0x1 PUSH1 0x1 PUSH1 0xA0 SHL SUB SWAP2 DUP3 AND PUSH1 0x4 DUP3 ADD DUP2 SWAP1 MSTORE ADDRESS PUSH1 0x24 DUP4 ADD MSTORE SWAP3 POP DUP8 SWAP2 DUP10 AND SWAP1 PUSH4 0xDD62ED3E SWAP1 PUSH1 0x44 ADD PUSH1 0x20 PUSH1 0x40 MLOAD DUP1 DUP4 SUB DUP2 PUSH1 0x0 DUP8 DUP1 EXTCODESIZE ISZERO DUP1 ISZERO PUSH2 0x1C06 JUMPI PUSH1 0x0 DUP1 REVERT JUMPDEST POP GAS CALL ISZERO DUP1 ISZERO PUSH2 0x1C1A JUMPI RETURNDATASIZE PUSH1 0x0 DUP1 RETURNDATACOPY RETURNDATASIZE PUSH1 0x0 REVERT JUMPDEST POP POP POP POP PUSH1 0x40 MLOAD RETURNDATASIZE PUSH1 0x1F NOT PUSH1 0x1F DUP3 ADD AND DUP3 ADD DUP1 PUSH1 0x40 MSTORE POP DUP2 ADD SWAP1 PUSH2 0x1C3E SWAP2 SWAP1 PUSH2 0x42F3 JUMP JUMPDEST LT ISZERO DUP1 ISZERO PUSH2 0x1CC7 JUMPI POP PUSH1 0x40 MLOAD PUSH4 0x70A08231 PUSH1 0xE0 SHL DUP2 MSTORE PUSH1 0x1 PUSH1 0x1 PUSH1 0xA0 SHL SUB DUP3 DUP2 AND PUSH1 0x4 DUP4 ADD MSTORE DUP8 SWAP2 SWAP1 DUP10 AND SWAP1 PUSH4 0x70A08231 SWAP1 PUSH1 0x24 ADD PUSH1 0x20 PUSH1 0x40 MLOAD DUP1 DUP4 SUB DUP2 PUSH1 0x0 DUP8 DUP1 EXTCODESIZE ISZERO DUP1 ISZERO PUSH2 0x1C8D JUMPI PUSH1 0x0 DUP1 REVERT JUMPDEST POP GAS CALL ISZERO DUP1 ISZERO PUSH2 0x1CA1 JUMPI RETURNDATASIZE PUSH1 0x0 DUP1 RETURNDATACOPY RETURNDATASIZE PUSH1 0x0 REVERT JUMPDEST POP POP POP POP PUSH1 0x40 MLOAD RETURNDATASIZE PUSH1 0x1F NOT PUSH1 0x1F DUP3 ADD AND DUP3 ADD DUP1 PUSH1 0x40 MSTORE POP DUP2 ADD SWAP1 PUSH2 0x1CC5 SWAP2 SWAP1 PUSH2 0x42F3 JUMP JUMPDEST GT JUMPDEST ISZERO PUSH2 0x1EE6 JUMPI DUP13 PUSH2 0x1CD6 DUP2 PUSH2 0x4088 JUMP JUMPDEST SWAP14 POP PUSH2 0x1CE4 SWAP1 POP DUP5 DUP5 PUSH2 0x40BA JUMP JUMPDEST PUSH1 0x1 PUSH1 0x1 PUSH1 0xA0 SHL SUB DUP3 AND PUSH1 0x0 SWAP1 DUP2 MSTORE PUSH1 0xC PUSH1 0x20 MSTORE PUSH1 0x40 SWAP1 KECCAK256 SLOAD SWAP1 SWAP4 POP DUP5 LT ISZERO PUSH2 0x1E2A JUMPI PUSH1 0x1 PUSH1 0x1 PUSH1 0xA0 SHL SUB DUP2 AND PUSH1 0x0 SWAP1 DUP2 MSTORE PUSH1 0xC PUSH1 0x20 MSTORE PUSH1 0x40 DUP2 KECCAK256 DUP1 SLOAD DUP7 SWAP3 SWAP1 PUSH2 0x1D2F SWAP1 DUP5 SWAP1 PUSH2 0x40A3 JUMP JUMPDEST SWAP1 SWAP2 SSTORE POP POP PUSH1 0x40 DUP1 MLOAD TIMESTAMP PUSH5 0xFFFFFFFFFF AND DUP2 MSTORE PUSH1 0x20 DUP2 ADD DUP9 SWAP1 MSTORE PUSH1 0x1 DUP2 DUP4 ADD MSTORE SWAP1 MLOAD PUSH1 0x1 PUSH1 0x1 PUSH1 0xA0 SHL SUB DUP4 AND SWAP2 DUP11 SWAP2 PUSH32 0xEB34DB283910A123EFC9E9C8A81C4FB25BFC0C3D4C0E30E300BED3D05853F716 SWAP2 DUP2 SWAP1 SUB PUSH1 0x60 ADD SWAP1 LOG3 PUSH2 0x1D91 DUP14 PUSH2 0x391D JUMP JUMPDEST PUSH1 0x40 MLOAD PUSH4 0x23B872DD PUSH1 0xE0 SHL DUP2 MSTORE PUSH1 0x1 PUSH1 0x1 PUSH1 0xA0 SHL SUB DUP3 DUP2 AND PUSH1 0x4 DUP4 ADD MSTORE DUP7 DUP2 AND PUSH1 0x24 DUP4 ADD MSTORE PUSH1 0x44 DUP3 ADD DUP9 SWAP1 MSTORE DUP9 AND SWAP1 PUSH4 0x23B872DD SWAP1 PUSH1 0x64 ADD JUMPDEST PUSH1 0x20 PUSH1 0x40 MLOAD DUP1 DUP4 SUB DUP2 PUSH1 0x0 DUP8 DUP1 EXTCODESIZE ISZERO DUP1 ISZERO PUSH2 0x1DE4 JUMPI PUSH1 0x0 DUP1 REVERT JUMPDEST POP GAS CALL ISZERO DUP1 ISZERO PUSH2 0x1DF8 JUMPI RETURNDATASIZE PUSH1 0x0 DUP1 RETURNDATACOPY RETURNDATASIZE PUSH1 0x0 REVERT JUMPDEST POP POP POP POP PUSH1 0x40 MLOAD RETURNDATASIZE PUSH1 0x1F NOT PUSH1 0x1F DUP3 ADD AND DUP3 ADD DUP1 PUSH1 0x40 MSTORE POP DUP2 ADD SWAP1 PUSH2 0x1E1C SWAP2 SWAP1 PUSH2 0x42D6 JUMP JUMPDEST PUSH2 0x1E25 JUMPI PUSH1 0x0 DUP1 REVERT JUMPDEST PUSH2 0x1F85 JUMP JUMPDEST PUSH1 0x40 DUP1 MLOAD TIMESTAMP PUSH5 0xFFFFFFFFFF AND DUP2 MSTORE PUSH1 0x20 DUP2 ADD DUP9 SWAP1 MSTORE PUSH1 0x1 DUP2 DUP4 ADD MSTORE SWAP1 MLOAD PUSH1 0x1 PUSH1 0x1 PUSH1 0xA0 SHL SUB DUP4 AND SWAP2 DUP11 SWAP2 PUSH32 0xEB34DB283910A123EFC9E9C8A81C4FB25BFC0C3D4C0E30E300BED3D05853F716 SWAP2 DUP2 SWAP1 SUB PUSH1 0x60 ADD SWAP1 LOG3 PUSH1 0x1 PUSH1 0x1 PUSH1 0xA0 SHL SUB DUP2 AND PUSH1 0x0 SWAP1 DUP2 MSTORE PUSH1 0xC PUSH1 0x20 MSTORE PUSH1 0x40 DUP2 KECCAK256 DUP1 SLOAD DUP9 SWAP3 SWAP1 PUSH2 0x1EA6 SWAP1 DUP5 SWAP1 PUSH2 0x40BA JUMP JUMPDEST SWAP1 SWAP2 SSTORE POP POP PUSH1 0x40 MLOAD PUSH4 0x23B872DD PUSH1 0xE0 SHL DUP2 MSTORE PUSH1 0x1 PUSH1 0x1 PUSH1 0xA0 SHL SUB DUP3 DUP2 AND PUSH1 0x4 DUP4 ADD MSTORE ADDRESS PUSH1 0x24 DUP4 ADD MSTORE PUSH1 0x44 DUP3 ADD DUP9 SWAP1 MSTORE DUP9 AND SWAP1 PUSH4 0x23B872DD SWAP1 PUSH1 0x64 ADD PUSH2 0x1DCA JUMP JUMPDEST DUP13 PUSH2 0x1EF0 DUP2 PUSH2 0x4088 JUMP JUMPDEST SWAP14 POP PUSH2 0x1EFE SWAP1 POP DUP5 DUP5 PUSH2 0x40BA JUMP JUMPDEST PUSH1 0x1 PUSH1 0x1 PUSH1 0xA0 SHL SUB DUP3 AND PUSH1 0x0 SWAP1 DUP2 MSTORE PUSH1 0xC PUSH1 0x20 MSTORE PUSH1 0x40 DUP2 KECCAK256 DUP1 SLOAD SWAP3 SWAP6 POP DUP7 SWAP3 SWAP1 SWAP2 SWAP1 PUSH2 0x1F2B SWAP1 DUP5 SWAP1 PUSH2 0x40A3 JUMP JUMPDEST SWAP1 SWAP2 SSTORE POP POP PUSH1 0x40 DUP1 MLOAD TIMESTAMP PUSH5 0xFFFFFFFFFF AND DUP2 MSTORE PUSH1 0x20 DUP2 ADD DUP9 SWAP1 MSTORE PUSH1 0x0 DUP2 DUP4 ADD MSTORE SWAP1 MLOAD PUSH1 0x1 PUSH1 0x1 PUSH1 0xA0 SHL SUB DUP4 AND SWAP2 DUP11 SWAP2 PUSH32 0xEB34DB283910A123EFC9E9C8A81C4FB25BFC0C3D4C0E30E300BED3D05853F716 SWAP2 DUP2 SWAP1 SUB PUSH1 0x60 ADD SWAP1 LOG3 JUMPDEST PUSH1 0x0 DUP9 DUP2 MSTORE PUSH1 0xE PUSH1 0x20 MSTORE PUSH1 0x40 SWAP1 KECCAK256 SLOAD PUSH2 0x1FA0 SWAP1 PUSH1 0x1 SWAP1 PUSH2 0x40A3 JUMP JUMPDEST DUP3 EQ ISZERO PUSH2 0x2058 JUMPI PUSH1 0x40 MLOAD PUSH4 0xA9059CBB PUSH1 0xE0 SHL DUP2 MSTORE CALLER PUSH1 0x4 DUP3 ADD MSTORE PUSH1 0x24 DUP2 ADD DUP5 SWAP1 MSTORE PUSH1 0x1 PUSH1 0x1 PUSH1 0xA0 SHL SUB DUP9 AND SWAP1 PUSH4 0xA9059CBB SWAP1 PUSH1 0x44 ADD PUSH1 0x20 PUSH1 0x40 MLOAD DUP1 DUP4 SUB DUP2 PUSH1 0x0 DUP8 DUP1 EXTCODESIZE ISZERO DUP1 ISZERO PUSH2 0x1FEF JUMPI PUSH1 0x0 DUP1 REVERT JUMPDEST POP GAS CALL ISZERO DUP1 ISZERO PUSH2 0x2003 JUMPI RETURNDATASIZE PUSH1 0x0 DUP1 RETURNDATACOPY RETURNDATASIZE PUSH1 0x0 REVERT JUMPDEST POP POP POP POP PUSH1 0x40 MLOAD RETURNDATASIZE PUSH1 0x1F NOT PUSH1 0x1F DUP3 ADD AND DUP3 ADD DUP1 PUSH1 0x40 MSTORE POP DUP2 ADD SWAP1 PUSH2 0x2027 SWAP2 SWAP1 PUSH2 0x42D6 JUMP JUMPDEST PUSH2 0x2058 JUMPI PUSH1 0x40 MLOAD PUSH3 0x461BCD PUSH1 0xE5 SHL DUP2 MSTORE PUSH1 0x20 PUSH1 0x4 DUP3 ADD MSTORE PUSH1 0x2 PUSH1 0x24 DUP3 ADD MSTORE PUSH2 0x1919 PUSH1 0xF1 SHL PUSH1 0x44 DUP3 ADD MSTORE PUSH1 0x64 ADD PUSH2 0x3B1 JUMP JUMPDEST POP JUMPDEST DUP1 PUSH2 0x2064 DUP2 PUSH2 0x4088 JUMP JUMPDEST SWAP2 POP POP PUSH2 0x19F0 JUMP JUMPDEST POP POP POP POP POP POP POP JUMPDEST DUP1 PUSH2 0x207E DUP2 PUSH2 0x4088 JUMP JUMPDEST SWAP2 POP POP PUSH2 0x1842 JUMP JUMPDEST POP POP POP DUP1 DUP1 PUSH2 0x2094 SWAP1 PUSH2 0x4088 JUMP JUMPDEST SWAP2 POP POP PUSH2 0x17DF JUMP JUMPDEST POP PUSH1 0x0 PUSH1 0x5 DUP2 SWAP1 SSTORE PUSH1 0x6 SSTORE PUSH1 0x7 DUP1 SLOAD PUSH1 0xFF NOT AND SWAP1 SSTORE PUSH1 0x9 SLOAD PUSH1 0x40 DUP1 MLOAD PUSH5 0xFFFFFFFFFF TIMESTAMP DUP2 AND DUP3 MSTORE PUSH2 0x100 SWAP1 SWAP4 DIV SWAP1 SWAP3 AND PUSH1 0x20 DUP4 ADD MSTORE PUSH1 0x1 SWAP1 DUP3 ADD MSTORE CALLER SWAP1 PUSH32 0x90192D7875364A53E351AE63FD2DFEF8DC941735B29FB0C504D06A0E21AE602E SWAP1 PUSH1 0x60 ADD PUSH1 0x40 MLOAD DUP1 SWAP2 SUB SWAP1 LOG2 PUSH1 0x1 PUSH1 0x9 PUSH1 0x1 DUP3 DUP3 DUP3 SWAP1 SLOAD SWAP1 PUSH2 0x100 EXP SWAP1 DIV PUSH5 0xFFFFFFFFFF AND PUSH2 0x2129 SWAP2 SWAP1 PUSH2 0x430C JUMP JUMPDEST SWAP3 POP PUSH2 0x100 EXP DUP2 SLOAD DUP2 PUSH5 0xFFFFFFFFFF MUL NOT AND SWAP1 DUP4 PUSH5 0xFFFFFFFFFF AND MUL OR SWAP1 SSTORE POP POP POP POP JUMPDEST JUMP JUMPDEST PUSH2 0x2157 PUSH2 0x2F5D JUMP JUMPDEST PUSH1 0x2 SSTORE JUMP JUMPDEST PUSH2 0x2164 PUSH2 0x2F5D JUMP JUMPDEST CALLER PUSH1 0x1 PUSH1 0x1 PUSH1 0xA0 SHL SUB DUP3 AND EQ DUP1 ISZERO PUSH2 0x2184 JUMPI POP PUSH1 0x1 PUSH1 0x1 PUSH1 0xA0 SHL SUB DUP2 AND ISZERO ISZERO JUMPDEST PUSH2 0x218D JUMPI PUSH1 0x0 DUP1 REVERT JUMPDEST PUSH1 0x0 DUP1 SLOAD PUSH1 0x1 PUSH1 0x1 PUSH1 0xA0 SHL SUB NOT AND PUSH1 0x1 PUSH1 0x1 PUSH1 0xA0 SHL SUB SWAP3 SWAP1 SWAP3 AND SWAP2 SWAP1 SWAP2 OR SWAP1 SSTORE JUMP JUMPDEST PUSH2 0x21B7 PUSH2 0x305D JUMP JUMPDEST CALLER PUSH1 0x0 SWAP1 DUP2 MSTORE PUSH1 0xA PUSH1 0x20 SWAP1 DUP2 MSTORE PUSH1 0x40 DUP1 DUP4 KECCAK256 PUSH1 0x3 ADD DUP1 SLOAD DUP3 MLOAD DUP2 DUP6 MUL DUP2 ADD DUP6 ADD SWAP1 SWAP4 MSTORE DUP1 DUP4 MSTORE SWAP2 SWAP3 SWAP1 SWAP2 SWAP1 DUP5 SWAP1 DUP5 ADD JUMPDEST DUP3 DUP3 LT ISZERO PUSH2 0x229D JUMPI PUSH1 0x0 DUP5 DUP2 MSTORE PUSH1 0x20 SWAP1 DUP2 SWAP1 KECCAK256 PUSH1 0x40 DUP1 MLOAD PUSH1 0x80 DUP2 ADD DUP3 MSTORE PUSH1 0x2 DUP7 MUL SWAP1 SWAP3 ADD DUP1 SLOAD DUP4 MSTORE PUSH1 0x1 DUP2 ADD SLOAD PUSH2 0xFFFF DUP2 AND SWAP5 DUP5 ADD SWAP5 SWAP1 SWAP5 MSTORE SWAP2 SWAP3 SWAP1 DUP4 ADD SWAP1 PUSH3 0x10000 SWAP1 DIV PUSH1 0xFF AND PUSH1 0x3 DUP2 GT ISZERO PUSH2 0x2240 JUMPI PUSH2 0x2240 PUSH2 0x3C2C JUMP JUMPDEST PUSH1 0x3 DUP2 GT ISZERO PUSH2 0x2251 JUMPI PUSH2 0x2251 PUSH2 0x3C2C JUMP JUMPDEST DUP2 MSTORE PUSH1 0x20 ADD PUSH1 0x1 DUP3 ADD PUSH1 0x3 SWAP1 SLOAD SWAP1 PUSH2 0x100 EXP SWAP1 DIV PUSH1 0xFF AND PUSH1 0x2 DUP2 GT ISZERO PUSH2 0x2279 JUMPI PUSH2 0x2279 PUSH2 0x3C2C JUMP JUMPDEST PUSH1 0x2 DUP2 GT ISZERO PUSH2 0x228A JUMPI PUSH2 0x228A PUSH2 0x3C2C JUMP JUMPDEST DUP2 MSTORE POP POP DUP2 MSTORE PUSH1 0x20 ADD SWAP1 PUSH1 0x1 ADD SWAP1 PUSH2 0x21E7 JUMP JUMPDEST POP POP POP POP SWAP1 POP PUSH1 0x0 DUP1 JUMPDEST DUP3 MLOAD DUP2 LT ISZERO PUSH2 0x22F0 JUMPI DUP5 PUSH1 0x0 ADD MLOAD DUP4 DUP3 DUP2 MLOAD DUP2 LT PUSH2 0x22C7 JUMPI PUSH2 0x22C7 PUSH2 0x405C JUMP JUMPDEST PUSH1 0x20 MUL PUSH1 0x20 ADD ADD MLOAD PUSH1 0x0 ADD MLOAD EQ ISZERO PUSH2 0x22DE JUMPI PUSH1 0x1 SWAP2 POP JUMPDEST DUP1 PUSH2 0x22E8 DUP2 PUSH2 0x4088 JUMP JUMPDEST SWAP2 POP POP PUSH2 0x22A7 JUMP JUMPDEST POP DUP1 PUSH2 0x2323 JUMPI PUSH1 0x40 MLOAD PUSH3 0x461BCD PUSH1 0xE5 SHL DUP2 MSTORE PUSH1 0x20 PUSH1 0x4 DUP3 ADD MSTORE PUSH1 0x2 PUSH1 0x24 DUP3 ADD MSTORE PUSH2 0x627 PUSH1 0xF3 SHL PUSH1 0x44 DUP3 ADD MSTORE PUSH1 0x64 ADD PUSH2 0x3B1 JUMP JUMPDEST DUP4 MLOAD PUSH1 0x0 SWAP1 DUP2 MSTORE PUSH1 0xE PUSH1 0x20 SWAP1 DUP2 MSTORE PUSH1 0x40 DUP1 DUP4 KECCAK256 DUP1 SLOAD DUP3 MLOAD DUP2 DUP6 MUL DUP2 ADD DUP6 ADD SWAP1 SWAP4 MSTORE DUP1 DUP4 MSTORE SWAP2 SWAP3 SWAP1 SWAP2 SWAP1 DUP4 ADD DUP3 DUP3 DUP1 ISZERO PUSH2 0x2385 JUMPI PUSH1 0x20 MUL DUP3 ADD SWAP2 SWAP1 PUSH1 0x0 MSTORE PUSH1 0x20 PUSH1 0x0 KECCAK256 SWAP1 JUMPDEST DUP2 SLOAD PUSH1 0x1 PUSH1 0x1 PUSH1 0xA0 SHL SUB AND DUP2 MSTORE PUSH1 0x1 SWAP1 SWAP2 ADD SWAP1 PUSH1 0x20 ADD DUP1 DUP4 GT PUSH2 0x2367 JUMPI JUMPDEST POP POP POP POP POP SWAP1 POP PUSH1 0x0 DUP1 JUMPDEST DUP3 MLOAD DUP2 LT ISZERO PUSH2 0x2449 JUMPI DUP6 PUSH1 0x1 PUSH1 0x1 PUSH1 0xA0 SHL SUB AND DUP4 DUP3 DUP2 MLOAD DUP2 LT PUSH2 0x23B5 JUMPI PUSH2 0x23B5 PUSH2 0x405C JUMP JUMPDEST PUSH1 0x20 MUL PUSH1 0x20 ADD ADD MLOAD PUSH1 0x1 PUSH1 0x1 PUSH1 0xA0 SHL SUB AND EQ ISZERO PUSH2 0x2437 JUMPI PUSH1 0x1 PUSH1 0x1 PUSH1 0xA0 SHL SUB DUP7 AND PUSH1 0x0 SWAP1 DUP2 MSTORE PUSH1 0xA PUSH1 0x20 MSTORE PUSH1 0x40 SWAP1 KECCAK256 PUSH1 0x2 SWAP1 DUP2 ADD DUP1 SLOAD PUSH1 0x1 SWAP5 POP DUP4 SWAP1 DUP2 LT PUSH2 0x23FF JUMPI PUSH2 0x23FF PUSH2 0x405C JUMP JUMPDEST SWAP1 PUSH1 0x0 MSTORE PUSH1 0x20 PUSH1 0x0 KECCAK256 SWAP1 PUSH1 0x2 MUL ADD PUSH1 0x1 ADD PUSH1 0x3 PUSH2 0x100 EXP DUP2 SLOAD DUP2 PUSH1 0xFF MUL NOT AND SWAP1 DUP4 PUSH1 0x2 DUP2 GT ISZERO PUSH2 0x2431 JUMPI PUSH2 0x2431 PUSH2 0x3C2C JUMP JUMPDEST MUL OR SWAP1 SSTORE POP JUMPDEST DUP1 PUSH2 0x2441 DUP2 PUSH2 0x4088 JUMP JUMPDEST SWAP2 POP POP PUSH2 0x2390 JUMP JUMPDEST POP DUP1 PUSH2 0x247C JUMPI PUSH1 0x40 MLOAD PUSH3 0x461BCD PUSH1 0xE5 SHL DUP2 MSTORE PUSH1 0x20 PUSH1 0x4 DUP3 ADD MSTORE PUSH1 0x2 PUSH1 0x24 DUP3 ADD MSTORE PUSH2 0x3139 PUSH1 0xF0 SHL PUSH1 0x44 DUP3 ADD MSTORE PUSH1 0x64 ADD PUSH2 0x3B1 JUMP JUMPDEST DUP6 MLOAD PUSH2 0x2488 SWAP1 DUP7 PUSH2 0x310A JUMP JUMPDEST DUP6 MLOAD PUSH1 0x20 DUP1 DUP9 ADD MLOAD PUSH1 0x40 DUP1 MLOAD PUSH5 0xFFFFFFFFFF TIMESTAMP AND DUP2 MSTORE SWAP3 DUP4 ADD SWAP2 SWAP1 SWAP2 MSTORE PUSH1 0x0 SWAP1 DUP3 ADD MSTORE CALLER SWAP2 SWAP1 PUSH32 0xEDA05FCF4643E436DD6140776611D3334C1826B76E5168611A7CFF0543FD30DB SWAP1 PUSH1 0x60 ADD PUSH1 0x40 MLOAD DUP1 SWAP2 SUB SWAP1 LOG3 POP POP POP POP POP POP JUMP JUMPDEST PUSH2 0x24EB PUSH2 0x305D JUMP JUMPDEST PUSH1 0x20 DUP2 ADD CALLDATALOAD PUSH2 0x2500 PUSH1 0x80 DUP4 ADD PUSH1 0x60 DUP5 ADD PUSH2 0x3AB1 JUMP JUMPDEST PUSH1 0x40 MLOAD PUSH4 0x6EB1769F PUSH1 0xE1 SHL DUP2 MSTORE CALLER PUSH1 0x4 DUP3 ADD MSTORE ADDRESS PUSH1 0x24 DUP3 ADD MSTORE PUSH1 0x1 PUSH1 0x1 PUSH1 0xA0 SHL SUB SWAP2 SWAP1 SWAP2 AND SWAP1 PUSH4 0xDD62ED3E SWAP1 PUSH1 0x44 ADD PUSH1 0x20 PUSH1 0x40 MLOAD DUP1 DUP4 SUB DUP2 PUSH1 0x0 DUP8 DUP1 EXTCODESIZE ISZERO DUP1 ISZERO PUSH2 0x2549 JUMPI PUSH1 0x0 DUP1 REVERT JUMPDEST POP GAS CALL ISZERO DUP1 ISZERO PUSH2 0x255D JUMPI RETURNDATASIZE PUSH1 0x0 DUP1 RETURNDATACOPY RETURNDATASIZE PUSH1 0x0 REVERT JUMPDEST POP POP POP POP PUSH1 0x40 MLOAD RETURNDATASIZE PUSH1 0x1F NOT PUSH1 0x1F DUP3 ADD AND DUP3 ADD DUP1 PUSH1 0x40 MSTORE POP DUP2 ADD SWAP1 PUSH2 0x2581 SWAP2 SWAP1 PUSH2 0x42F3 JUMP JUMPDEST LT ISZERO DUP1 ISZERO PUSH2 0x261D JUMPI POP PUSH1 0x20 DUP2 ADD CALLDATALOAD PUSH2 0x259F PUSH1 0x80 DUP4 ADD PUSH1 0x60 DUP5 ADD PUSH2 0x3AB1 JUMP JUMPDEST PUSH1 0x40 MLOAD PUSH4 0x70A08231 PUSH1 0xE0 SHL DUP2 MSTORE CALLER PUSH1 0x4 DUP3 ADD MSTORE PUSH1 0x1 PUSH1 0x1 PUSH1 0xA0 SHL SUB SWAP2 SWAP1 SWAP2 AND SWAP1 PUSH4 0x70A08231 SWAP1 PUSH1 0x24 ADD PUSH1 0x20 PUSH1 0x40 MLOAD DUP1 DUP4 SUB DUP2 PUSH1 0x0 DUP8 DUP1 EXTCODESIZE ISZERO DUP1 ISZERO PUSH2 0x25E2 JUMPI PUSH1 0x0 DUP1 REVERT JUMPDEST POP GAS CALL ISZERO DUP1 ISZERO PUSH2 0x25F6 JUMPI RETURNDATASIZE PUSH1 0x0 DUP1 RETURNDATACOPY RETURNDATASIZE PUSH1 0x0 REVERT JUMPDEST POP POP POP POP PUSH1 0x40 MLOAD RETURNDATASIZE PUSH1 0x1F NOT PUSH1 0x1F DUP3 ADD AND DUP3 ADD DUP1 PUSH1 0x40 MSTORE POP DUP2 ADD SWAP1 PUSH2 0x261A SWAP2 SWAP1 PUSH2 0x42F3 JUMP JUMPDEST LT ISZERO JUMPDEST PUSH2 0x264E JUMPI PUSH1 0x40 MLOAD PUSH3 0x461BCD PUSH1 0xE5 SHL DUP2 MSTORE PUSH1 0x20 PUSH1 0x4 DUP3 ADD MSTORE PUSH1 0x2 PUSH1 0x24 DUP3 ADD MSTORE PUSH2 0x323 PUSH1 0xF4 SHL PUSH1 0x44 DUP3 ADD MSTORE PUSH1 0x64 ADD PUSH2 0x3B1 JUMP JUMPDEST PUSH2 0x2664 DUP2 CALLDATALOAD PUSH2 0x567 PUSH2 0x100 DUP5 ADD PUSH1 0xE0 DUP6 ADD PUSH2 0x40E8 JUMP JUMPDEST PUSH2 0x2694 JUMPI PUSH1 0x40 MLOAD PUSH3 0x461BCD PUSH1 0xE5 SHL DUP2 MSTORE PUSH1 0x20 PUSH1 0x4 DUP3 ADD MSTORE PUSH1 0x1 PUSH1 0x24 DUP3 ADD MSTORE PUSH1 0x37 PUSH1 0xF8 SHL PUSH1 0x44 DUP3 ADD MSTORE PUSH1 0x64 ADD PUSH2 0x3B1 JUMP JUMPDEST DUP1 CALLDATALOAD PUSH1 0x0 DUP2 DUP2 MSTORE PUSH1 0xE PUSH1 0x20 SWAP1 DUP2 MSTORE PUSH1 0x40 DUP1 DUP4 KECCAK256 DUP1 SLOAD PUSH1 0x1 DUP2 ADD DUP3 SSTORE SWAP1 DUP5 MSTORE SWAP3 DUP3 SWAP1 KECCAK256 SWAP1 SWAP3 ADD DUP1 SLOAD PUSH1 0x1 PUSH1 0x1 PUSH1 0xA0 SHL SUB NOT AND CALLER OR SWAP1 SSTORE DUP2 MLOAD PUSH1 0x80 DUP2 ADD SWAP1 SWAP3 MSTORE SWAP2 DUP2 MSTORE PUSH2 0x2726 SWAP2 DUP2 ADD PUSH2 0x26EC PUSH2 0x100 DUP6 ADD PUSH1 0xE0 DUP7 ADD PUSH2 0x40E8 JUMP JUMPDEST PUSH2 0xFFFF AND DUP2 MSTORE PUSH1 0x20 ADD PUSH2 0x2705 PUSH1 0xE0 DUP6 ADD PUSH1 0xC0 DUP7 ADD PUSH2 0x4103 JUMP JUMPDEST PUSH1 0x3 DUP2 GT ISZERO PUSH2 0x2716 JUMPI PUSH2 0x2716 PUSH2 0x3C2C JUMP JUMPDEST DUP2 MSTORE PUSH1 0x20 ADD PUSH1 0x0 SWAP1 MSTORE PUSH1 0x0 PUSH2 0x3345 JUMP JUMPDEST CALLER PUSH1 0x0 SWAP1 DUP2 MSTORE PUSH1 0xC PUSH1 0x20 SWAP1 DUP2 MSTORE PUSH1 0x40 DUP3 KECCAK256 DUP1 SLOAD SWAP2 DUP5 ADD CALLDATALOAD SWAP3 SWAP1 SWAP2 PUSH2 0x274B SWAP1 DUP5 SWAP1 PUSH2 0x40BA JUMP JUMPDEST SWAP1 SWAP2 SSTORE POP POP PUSH1 0x40 DUP1 MLOAD TIMESTAMP PUSH5 0xFFFFFFFFFF AND DUP2 MSTORE PUSH1 0x20 DUP4 DUP2 ADD CALLDATALOAD SWAP1 DUP3 ADD MSTORE PUSH1 0x1 DUP2 DUP4 ADD MSTORE SWAP1 MLOAD CALLER SWAP2 DUP4 CALLDATALOAD SWAP2 PUSH32 0xEDA05FCF4643E436DD6140776611D3334C1826B76E5168611A7CFF0543FD30DB SWAP2 DUP2 SWAP1 SUB PUSH1 0x60 ADD SWAP1 LOG3 PUSH2 0x27AF PUSH1 0x80 DUP3 ADD PUSH1 0x60 DUP4 ADD PUSH2 0x3AB1 JUMP JUMPDEST PUSH1 0x40 MLOAD PUSH4 0x23B872DD PUSH1 0xE0 SHL DUP2 MSTORE CALLER PUSH1 0x4 DUP3 ADD MSTORE ADDRESS PUSH1 0x24 DUP3 ADD MSTORE PUSH1 0x20 DUP4 ADD CALLDATALOAD PUSH1 0x44 DUP3 ADD MSTORE PUSH1 0x1 PUSH1 0x1 PUSH1 0xA0 SHL SUB SWAP2 SWAP1 SWAP2 AND SWAP1 PUSH4 0x23B872DD SWAP1 PUSH1 0x64 ADD PUSH1 0x20 PUSH1 0x40 MLOAD DUP1 DUP4 SUB DUP2 PUSH1 0x0 DUP8 DUP1 EXTCODESIZE ISZERO DUP1 ISZERO PUSH2 0x2802 JUMPI PUSH1 0x0 DUP1 REVERT JUMPDEST POP GAS CALL ISZERO DUP1 ISZERO PUSH2 0x2816 JUMPI RETURNDATASIZE PUSH1 0x0 DUP1 RETURNDATACOPY RETURNDATASIZE PUSH1 0x0 REVERT JUMPDEST POP POP POP POP PUSH1 0x40 MLOAD RETURNDATASIZE PUSH1 0x1F NOT PUSH1 0x1F DUP3 ADD AND DUP3 ADD DUP1 PUSH1 0x40 MSTORE POP DUP2 ADD SWAP1 PUSH2 0x283A SWAP2 SWAP1 PUSH2 0x42D6 JUMP JUMPDEST PUSH2 0x2843 JUMPI PUSH1 0x0 DUP1 REVERT JUMPDEST POP JUMP JUMPDEST PUSH2 0x284E PUSH2 0x2F5D JUMP JUMPDEST PUSH1 0x1 PUSH1 0x1 PUSH1 0xA0 SHL SUB DUP2 AND PUSH2 0x2861 JUMPI PUSH1 0x0 DUP1 REVERT JUMPDEST PUSH2 0x286A DUP2 PUSH2 0x2F9C JUMP JUMPDEST ISZERO PUSH2 0x289B JUMPI PUSH1 0x40 MLOAD PUSH3 0x461BCD PUSH1 0xE5 SHL DUP2 MSTORE PUSH1 0x20 PUSH1 0x4 DUP3 ADD MSTORE PUSH1 0x1 PUSH1 0x24 DUP3 ADD MSTORE PUSH1 0x31 PUSH1 0xF8 SHL PUSH1 0x44 DUP3 ADD MSTORE PUSH1 0x64 ADD PUSH2 0x3B1 JUMP JUMPDEST PUSH1 0x8 DUP1 SLOAD PUSH1 0x1 DUP2 ADD DUP3 SSTORE PUSH1 0x0 SWAP2 SWAP1 SWAP2 MSTORE PUSH32 0xF3F7A9FE364FAAB93B216DA50A3214154F22A0A2B415B23A84C8169E8B636EE3 ADD DUP1 SLOAD PUSH1 0x1 PUSH1 0x1 PUSH1 0xA0 SHL SUB NOT AND PUSH1 0x1 PUSH1 0x1 PUSH1 0xA0 SHL SUB SWAP3 SWAP1 SWAP3 AND SWAP2 SWAP1 SWAP2 OR SWAP1 SSTORE JUMP JUMPDEST PUSH1 0x60 PUSH1 0x3 SLOAD GASPRICE LT PUSH2 0x2935 JUMPI PUSH1 0x40 MLOAD PUSH3 0x461BCD PUSH1 0xE5 SHL DUP2 MSTORE PUSH1 0x20 PUSH1 0x4 DUP3 ADD MSTORE PUSH1 0x12 PUSH1 0x24 DUP3 ADD MSTORE PUSH18 0x8EC2E640E0E4D2C6CA40E8DEDE40D0D2CED PUSH1 0x73 SHL PUSH1 0x44 DUP3 ADD MSTORE PUSH1 0x64 ADD PUSH2 0x3B1 JUMP JUMPDEST PUSH1 0x0 PUSH2 0x2940 TIMESTAMP PUSH2 0x390E JUMP JUMPDEST PUSH1 0x9 SLOAD SWAP1 SWAP2 POP PUSH5 0xFFFFFFFFFF PUSH2 0x100 SWAP1 SWAP2 DIV DUP2 AND SWAP1 DUP3 AND GT PUSH2 0x2989 JUMPI PUSH1 0x40 MLOAD PUSH3 0x461BCD PUSH1 0xE5 SHL DUP2 MSTORE PUSH1 0x20 PUSH1 0x4 DUP3 ADD MSTORE PUSH1 0x2 PUSH1 0x24 DUP3 ADD MSTORE PUSH2 0xC4D PUSH1 0xF2 SHL PUSH1 0x44 DUP3 ADD MSTORE PUSH1 0x64 ADD PUSH2 0x3B1 JUMP JUMPDEST PUSH1 0x0 PUSH2 0x2994 TIMESTAMP PUSH2 0x1163 JUMP JUMPDEST SWAP1 POP PUSH1 0x0 DUP1 PUSH1 0x0 PUSH1 0x4 SLOAD PUSH8 0xFFFFFFFFFFFFFFFF DUP2 GT ISZERO PUSH2 0x29B6 JUMPI PUSH2 0x29B6 PUSH2 0x3DEF JUMP JUMPDEST PUSH1 0x40 MLOAD SWAP1 DUP1 DUP3 MSTORE DUP1 PUSH1 0x20 MUL PUSH1 0x20 ADD DUP3 ADD PUSH1 0x40 MSTORE DUP1 ISZERO PUSH2 0x29FB JUMPI DUP2 PUSH1 0x20 ADD JUMPDEST PUSH1 0x40 DUP1 MLOAD DUP1 DUP3 ADD SWAP1 SWAP2 MSTORE PUSH1 0x0 DUP1 DUP3 MSTORE PUSH1 0x20 DUP3 ADD MSTORE DUP2 MSTORE PUSH1 0x20 ADD SWAP1 PUSH1 0x1 SWAP1 SUB SWAP1 DUP2 PUSH2 0x29D4 JUMPI SWAP1 POP JUMPDEST POP SWAP1 POP PUSH1 0x0 JUMPDEST PUSH1 0x3 DUP2 GT PUSH2 0x2CDE JUMPI PUSH1 0x0 DUP2 PUSH2 0x2A17 JUMPI POP PUSH1 0x20 DUP6 ADD MLOAD JUMPDEST PUSH1 0x1 DUP3 EQ ISZERO PUSH2 0x2A24 JUMPI POP DUP5 MLOAD JUMPDEST PUSH1 0x2 DUP3 EQ ISZERO PUSH2 0x2A34 JUMPI POP PUSH1 0x40 DUP6 ADD MLOAD JUMPDEST PUSH1 0x3 DUP3 EQ ISZERO PUSH2 0x2A44 JUMPI POP PUSH1 0x60 DUP6 ADD MLOAD JUMPDEST PUSH1 0x0 JUMPDEST PUSH1 0x0 DUP4 DUP2 MSTORE PUSH1 0xD PUSH1 0x20 SWAP1 DUP2 MSTORE PUSH1 0x40 DUP1 DUP4 KECCAK256 PUSH2 0xFFFF DUP7 AND DUP5 MSTORE SWAP1 SWAP2 MSTORE SWAP1 KECCAK256 SLOAD DUP2 LT ISZERO PUSH2 0x2CC9 JUMPI PUSH1 0x0 DUP4 DUP2 MSTORE PUSH1 0xD PUSH1 0x20 SWAP1 DUP2 MSTORE PUSH1 0x40 DUP1 DUP4 KECCAK256 PUSH2 0xFFFF DUP7 AND DUP5 MSTORE SWAP1 SWAP2 MSTORE SWAP1 KECCAK256 DUP1 SLOAD DUP3 SWAP1 DUP2 LT PUSH2 0x2A9B JUMPI PUSH2 0x2A9B PUSH2 0x405C JUMP JUMPDEST SWAP1 PUSH1 0x0 MSTORE PUSH1 0x20 PUSH1 0x0 KECCAK256 SWAP1 PUSH1 0x5 MUL ADD PUSH1 0x3 ADD PUSH1 0x15 SWAP1 SLOAD SWAP1 PUSH2 0x100 EXP SWAP1 DIV PUSH1 0xFF AND PUSH2 0x2CB7 JUMPI PUSH1 0x0 DUP4 DUP2 MSTORE PUSH1 0xD PUSH1 0x20 SWAP1 DUP2 MSTORE PUSH1 0x40 DUP1 DUP4 KECCAK256 PUSH2 0xFFFF DUP7 AND DUP5 MSTORE SWAP1 SWAP2 MSTORE DUP2 KECCAK256 DUP1 SLOAD DUP4 SWAP1 DUP2 LT PUSH2 0x2AED JUMPI PUSH2 0x2AED PUSH2 0x405C JUMP JUMPDEST PUSH1 0x0 SWAP2 DUP3 MSTORE PUSH1 0x20 DUP1 DUP4 KECCAK256 PUSH1 0x5 SWAP1 SWAP3 MUL SWAP1 SWAP2 ADD SLOAD DUP7 DUP4 MSTORE PUSH1 0xD DUP3 MSTORE PUSH1 0x40 DUP1 DUP5 KECCAK256 PUSH2 0xFFFF DUP9 AND DUP6 MSTORE SWAP1 SWAP3 MSTORE SWAP1 DUP3 KECCAK256 DUP1 SLOAD SWAP2 SWAP4 POP SWAP1 DUP5 SWAP1 DUP2 LT PUSH2 0x2B2F JUMPI PUSH2 0x2B2F PUSH2 0x405C JUMP JUMPDEST PUSH1 0x0 SWAP2 DUP3 MSTORE PUSH1 0x20 DUP1 DUP4 KECCAK256 PUSH1 0x3 PUSH1 0x5 SWAP1 SWAP4 MUL ADD SWAP2 SWAP1 SWAP2 ADD SLOAD DUP8 DUP4 MSTORE PUSH1 0xD DUP3 MSTORE PUSH1 0x40 DUP1 DUP5 KECCAK256 PUSH2 0xFFFF DUP10 AND DUP6 MSTORE SWAP1 SWAP3 MSTORE SWAP1 DUP3 KECCAK256 DUP1 SLOAD PUSH1 0x1 PUSH1 0x1 PUSH1 0xA0 SHL SUB SWAP1 SWAP3 AND SWAP4 POP SWAP1 DUP6 SWAP1 DUP2 LT PUSH2 0x2B7F JUMPI PUSH2 0x2B7F PUSH2 0x405C JUMP JUMPDEST SWAP1 PUSH1 0x0 MSTORE PUSH1 0x20 PUSH1 0x0 KECCAK256 SWAP1 PUSH1 0x5 MUL ADD PUSH1 0x1 ADD SLOAD SWAP1 POP PUSH2 0x2BB9 PUSH1 0x40 MLOAD DUP1 PUSH1 0x40 ADD PUSH1 0x40 MSTORE DUP1 PUSH1 0x0 DUP2 MSTORE PUSH1 0x20 ADD PUSH1 0x0 PUSH1 0x1 PUSH1 0x1 PUSH1 0xA0 SHL SUB AND DUP2 MSTORE POP SWAP1 JUMP JUMPDEST PUSH1 0x0 DUP3 PUSH2 0x2710 PUSH1 0x1 SLOAD DUP6 PUSH2 0x2BCD SWAP2 SWAP1 PUSH2 0x42B7 JUMP JUMPDEST PUSH2 0x2BD7 SWAP2 SWAP1 PUSH2 0x416F JUMP JUMPDEST PUSH2 0x2BE1 SWAP2 SWAP1 PUSH2 0x40A3 JUMP JUMPDEST SWAP1 POP PUSH1 0x0 DUP1 JUMPDEST PUSH1 0x0 DUP8 DUP2 MSTORE PUSH1 0xE PUSH1 0x20 MSTORE PUSH1 0x40 SWAP1 KECCAK256 SLOAD DUP2 LT ISZERO PUSH2 0x2CAF JUMPI PUSH1 0x4 SLOAD DUP14 EQ ISZERO PUSH2 0x2C1B JUMPI POP SWAP9 SWAP15 SWAP14 POP POP POP POP POP POP POP POP POP POP POP POP POP POP JUMP JUMPDEST PUSH1 0x5 SLOAD ISZERO DUP1 PUSH2 0x2C31 JUMPI POP PUSH1 0x7 SLOAD PUSH1 0xFF AND ISZERO ISZERO PUSH1 0x1 EQ JUMPDEST ISZERO PUSH2 0x2C9D JUMPI DUP13 PUSH2 0x2C40 DUP2 PUSH2 0x4088 JUMP JUMPDEST SWAP14 POP PUSH2 0x2C4E SWAP1 POP DUP4 DUP4 PUSH2 0x40BA JUMP JUMPDEST SWAP2 POP PUSH1 0x40 MLOAD DUP1 PUSH1 0x40 ADD PUSH1 0x40 MSTORE DUP1 DUP4 DUP2 MSTORE PUSH1 0x20 ADD DUP8 PUSH1 0x1 PUSH1 0x1 PUSH1 0xA0 SHL SUB AND DUP2 MSTORE POP SWAP4 POP DUP4 DUP12 DUP14 DUP2 MLOAD DUP2 LT PUSH2 0x2C83 JUMPI PUSH2 0x2C83 PUSH2 0x405C JUMP JUMPDEST PUSH1 0x20 MUL PUSH1 0x20 ADD ADD DUP2 SWAP1 MSTORE POP DUP12 DUP1 PUSH2 0x2C99 SWAP1 PUSH2 0x4088 JUMP JUMPDEST SWAP13 POP POP JUMPDEST DUP1 PUSH2 0x2CA7 DUP2 PUSH2 0x4088 JUMP JUMPDEST SWAP2 POP POP PUSH2 0x2BE7 JUMP JUMPDEST POP POP POP POP POP POP POP JUMPDEST DUP1 PUSH2 0x2CC1 DUP2 PUSH2 0x4088 JUMP JUMPDEST SWAP2 POP POP PUSH2 0x2A47 JUMP JUMPDEST POP POP DUP1 DUP1 PUSH2 0x2CD6 SWAP1 PUSH2 0x4088 JUMP JUMPDEST SWAP2 POP POP PUSH2 0x2A01 JUMP JUMPDEST POP SWAP6 SWAP5 POP POP POP POP POP JUMP JUMPDEST PUSH2 0x2CF0 PUSH2 0x305D JUMP JUMPDEST CALLER PUSH1 0x0 SWAP1 DUP2 MSTORE PUSH1 0xA PUSH1 0x20 MSTORE PUSH1 0x40 DUP2 KECCAK256 PUSH1 0x2 ADD SLOAD PUSH8 0xFFFFFFFFFFFFFFFF DUP2 GT ISZERO PUSH2 0x2D1B JUMPI PUSH2 0x2D1B PUSH2 0x3DEF JUMP JUMPDEST PUSH1 0x40 MLOAD SWAP1 DUP1 DUP3 MSTORE DUP1 PUSH1 0x20 MUL PUSH1 0x20 ADD DUP3 ADD PUSH1 0x40 MSTORE DUP1 ISZERO PUSH2 0x2D54 JUMPI DUP2 PUSH1 0x20 ADD JUMPDEST PUSH2 0x2D41 PUSH2 0x39D4 JUMP JUMPDEST DUP2 MSTORE PUSH1 0x20 ADD SWAP1 PUSH1 0x1 SWAP1 SUB SWAP1 DUP2 PUSH2 0x2D39 JUMPI SWAP1 POP JUMPDEST POP CALLER PUSH1 0x0 SWAP1 DUP2 MSTORE PUSH1 0xA PUSH1 0x20 SWAP1 DUP2 MSTORE PUSH1 0x40 DUP1 DUP4 KECCAK256 PUSH1 0x2 ADD DUP1 SLOAD DUP3 MLOAD DUP2 DUP6 MUL DUP2 ADD DUP6 ADD SWAP1 SWAP4 MSTORE DUP1 DUP4 MSTORE SWAP5 SWAP6 POP SWAP1 SWAP4 SWAP1 SWAP3 SWAP1 SWAP2 DUP5 ADD JUMPDEST DUP3 DUP3 LT ISZERO PUSH2 0x2E3D JUMPI PUSH1 0x0 DUP5 DUP2 MSTORE PUSH1 0x20 SWAP1 DUP2 SWAP1 KECCAK256 PUSH1 0x40 DUP1 MLOAD PUSH1 0x80 DUP2 ADD DUP3 MSTORE PUSH1 0x2 DUP7 MUL SWAP1 SWAP3 ADD DUP1 SLOAD DUP4 MSTORE PUSH1 0x1 DUP2 ADD SLOAD PUSH2 0xFFFF DUP2 AND SWAP5 DUP5 ADD SWAP5 SWAP1 SWAP5 MSTORE SWAP2 SWAP3 SWAP1 DUP4 ADD SWAP1 PUSH3 0x10000 SWAP1 DIV PUSH1 0xFF AND PUSH1 0x3 DUP2 GT ISZERO PUSH2 0x2DE0 JUMPI PUSH2 0x2DE0 PUSH2 0x3C2C JUMP JUMPDEST PUSH1 0x3 DUP2 GT ISZERO PUSH2 0x2DF1 JUMPI PUSH2 0x2DF1 PUSH2 0x3C2C JUMP JUMPDEST DUP2 MSTORE PUSH1 0x20 ADD PUSH1 0x1 DUP3 ADD PUSH1 0x3 SWAP1 SLOAD SWAP1 PUSH2 0x100 EXP SWAP1 DIV PUSH1 0xFF AND PUSH1 0x2 DUP2 GT ISZERO PUSH2 0x2E19 JUMPI PUSH2 0x2E19 PUSH2 0x3C2C JUMP JUMPDEST PUSH1 0x2 DUP2 GT ISZERO PUSH2 0x2E2A JUMPI PUSH2 0x2E2A PUSH2 0x3C2C JUMP JUMPDEST DUP2 MSTORE POP POP DUP2 MSTORE PUSH1 0x20 ADD SWAP1 PUSH1 0x1 ADD SWAP1 PUSH2 0x2D87 JUMP JUMPDEST POP POP POP POP SWAP1 POP PUSH1 0x0 JUMPDEST CALLER PUSH1 0x0 SWAP1 DUP2 MSTORE PUSH1 0xA PUSH1 0x20 MSTORE PUSH1 0x40 SWAP1 KECCAK256 PUSH1 0x2 ADD SLOAD DUP2 LT ISZERO PUSH2 0x2EF9 JUMPI DUP3 PUSH1 0x0 ADD MLOAD DUP3 DUP3 DUP2 MLOAD DUP2 LT PUSH2 0x2E77 JUMPI PUSH2 0x2E77 PUSH2 0x405C JUMP JUMPDEST PUSH1 0x20 MUL PUSH1 0x20 ADD ADD MLOAD PUSH1 0x0 ADD MLOAD EQ ISZERO PUSH2 0x2EE7 JUMPI CALLER PUSH1 0x0 SWAP1 DUP2 MSTORE PUSH1 0xA PUSH1 0x20 MSTORE PUSH1 0x40 SWAP1 KECCAK256 PUSH1 0x2 SWAP1 DUP2 ADD DUP1 SLOAD DUP4 SWAP1 DUP2 LT PUSH2 0x2EAF JUMPI PUSH2 0x2EAF PUSH2 0x405C JUMP JUMPDEST SWAP1 PUSH1 0x0 MSTORE PUSH1 0x20 PUSH1 0x0 KECCAK256 SWAP1 PUSH1 0x2 MUL ADD PUSH1 0x1 ADD PUSH1 0x3 PUSH2 0x100 EXP DUP2 SLOAD DUP2 PUSH1 0xFF MUL NOT AND SWAP1 DUP4 PUSH1 0x2 DUP2 GT ISZERO PUSH2 0x2EE1 JUMPI PUSH2 0x2EE1 PUSH2 0x3C2C JUMP JUMPDEST MUL OR SWAP1 SSTORE POP JUMPDEST DUP1 PUSH2 0x2EF1 DUP2 PUSH2 0x4088 JUMP JUMPDEST SWAP2 POP POP PUSH2 0x2E46 JUMP JUMPDEST POP DUP2 MLOAD PUSH2 0x2F06 SWAP1 CALLER PUSH2 0x310A JUMP JUMPDEST DUP2 MLOAD PUSH1 0x20 DUP1 DUP5 ADD MLOAD PUSH1 0x40 DUP1 MLOAD PUSH5 0xFFFFFFFFFF TIMESTAMP AND DUP2 MSTORE SWAP3 DUP4 ADD SWAP2 SWAP1 SWAP2 MSTORE PUSH1 0x0 SWAP1 DUP3 ADD MSTORE CALLER SWAP2 SWAP1 PUSH32 0xEDA05FCF4643E436DD6140776611D3334C1826B76E5168611A7CFF0543FD30DB SWAP1 PUSH1 0x60 ADD PUSH1 0x40 MLOAD DUP1 SWAP2 SUB SWAP1 LOG3 POP POP JUMP JUMPDEST PUSH1 0x0 SLOAD PUSH1 0x1 PUSH1 0x1 PUSH1 0xA0 SHL SUB AND CALLER EQ PUSH2 0x214D JUMPI PUSH1 0x40 MLOAD PUSH3 0x461BCD PUSH1 0xE5 SHL DUP2 MSTORE PUSH1 0x20 PUSH1 0x4 DUP3 ADD MSTORE PUSH1 0x2 PUSH1 0x24 DUP3 ADD MSTORE PUSH2 0x189B PUSH1 0xF1 SHL PUSH1 0x44 DUP3 ADD MSTORE PUSH1 0x64 ADD PUSH2 0x3B1 JUMP JUMPDEST PUSH1 0x0 DUP1 PUSH1 0x8 DUP1 SLOAD DUP1 PUSH1 0x20 MUL PUSH1 0x20 ADD PUSH1 0x40 MLOAD SWAP1 DUP2 ADD PUSH1 0x40 MSTORE DUP1 SWAP3 SWAP2 SWAP1 DUP2 DUP2 MSTORE PUSH1 0x20 ADD DUP3 DUP1 SLOAD DUP1 ISZERO PUSH2 0x2FF5 JUMPI PUSH1 0x20 MUL DUP3 ADD SWAP2 SWAP1 PUSH1 0x0 MSTORE PUSH1 0x20 PUSH1 0x0 KECCAK256 SWAP1 JUMPDEST DUP2 SLOAD PUSH1 0x1 PUSH1 0x1 PUSH1 0xA0 SHL SUB AND DUP2 MSTORE PUSH1 0x1 SWAP1 SWAP2 ADD SWAP1 PUSH1 0x20 ADD DUP1 DUP4 GT PUSH2 0x2FD7 JUMPI JUMPDEST POP POP POP POP POP SWAP1 POP PUSH1 0x0 SWAP2 POP PUSH1 0x0 JUMPDEST DUP2 MLOAD DUP2 LT ISZERO PUSH2 0x3056 JUMPI DUP2 DUP2 DUP2 MLOAD DUP2 LT PUSH2 0x301E JUMPI PUSH2 0x301E PUSH2 0x405C JUMP JUMPDEST PUSH1 0x20 MUL PUSH1 0x20 ADD ADD MLOAD PUSH1 0x1 PUSH1 0x1 PUSH1 0xA0 SHL SUB AND DUP5 PUSH1 0x1 PUSH1 0x1 PUSH1 0xA0 SHL SUB AND EQ ISZERO PUSH2 0x3044 JUMPI PUSH1 0x1 SWAP3 POP JUMPDEST DUP1 PUSH2 0x304E DUP2 PUSH2 0x4088 JUMP JUMPDEST SWAP2 POP POP PUSH2 0x3003 JUMP JUMPDEST POP POP SWAP2 SWAP1 POP JUMP JUMPDEST CALLER PUSH2 0x214D JUMPI PUSH1 0x40 MLOAD PUSH3 0x461BCD PUSH1 0xE5 SHL DUP2 MSTORE PUSH1 0x20 PUSH1 0x4 DUP3 ADD MSTORE PUSH1 0x1 PUSH1 0x24 DUP3 ADD MSTORE PUSH1 0x33 PUSH1 0xF8 SHL PUSH1 0x44 DUP3 ADD MSTORE PUSH1 0x64 ADD PUSH2 0x3B1 JUMP JUMPDEST PUSH1 0x0 DUP1 PUSH1 0x40 MLOAD DUP1 PUSH1 0x80 ADD PUSH1 0x40 MSTORE DUP1 DUP8 DUP2 MSTORE PUSH1 0x20 ADD DUP7 PUSH2 0xFFFF AND DUP2 MSTORE PUSH1 0x20 ADD DUP6 PUSH1 0x3 DUP2 GT ISZERO PUSH2 0x30BE JUMPI PUSH2 0x30BE PUSH2 0x3C2C JUMP JUMPDEST DUP2 MSTORE PUSH1 0x20 ADD DUP5 PUSH1 0x2 DUP2 GT ISZERO PUSH2 0x30D5 JUMPI PUSH2 0x30D5 PUSH2 0x3C2C JUMP JUMPDEST SWAP1 MSTORE SWAP1 POP PUSH1 0x0 PUSH2 0x30E4 DUP3 PUSH2 0x3684 JUMP JUMPDEST SWAP1 POP DUP1 PUSH1 0x80 ADD MLOAD ISZERO PUSH2 0x30FB JUMPI PUSH1 0x1 SWAP3 POP POP POP PUSH2 0x3102 JUMP JUMPDEST PUSH1 0x0 SWAP3 POP POP POP JUMPDEST SWAP5 SWAP4 POP POP POP POP JUMP JUMPDEST PUSH1 0x0 DUP3 DUP2 MSTORE PUSH1 0xE PUSH1 0x20 MSTORE PUSH1 0x40 DUP2 KECCAK256 SWAP1 DUP1 JUMPDEST DUP3 SLOAD DUP2 LT ISZERO PUSH2 0x3250 JUMPI DUP4 PUSH1 0x1 PUSH1 0x1 PUSH1 0xA0 SHL SUB AND DUP4 DUP3 DUP2 SLOAD DUP2 LT PUSH2 0x3140 JUMPI PUSH2 0x3140 PUSH2 0x405C JUMP JUMPDEST PUSH1 0x0 SWAP2 DUP3 MSTORE PUSH1 0x20 SWAP1 SWAP2 KECCAK256 ADD SLOAD PUSH1 0x1 PUSH1 0x1 PUSH1 0xA0 SHL SUB AND EQ ISZERO PUSH2 0x318E JUMPI DUP1 SWAP2 POP DUP3 DUP2 DUP2 SLOAD DUP2 LT PUSH2 0x3170 JUMPI PUSH2 0x3170 PUSH2 0x405C JUMP JUMPDEST PUSH1 0x0 SWAP2 DUP3 MSTORE PUSH1 0x20 SWAP1 SWAP2 KECCAK256 ADD DUP1 SLOAD PUSH1 0x1 PUSH1 0x1 PUSH1 0xA0 SHL SUB NOT AND SWAP1 SSTORE PUSH2 0x3250 JUMP JUMPDEST DUP3 SLOAD DUP4 SWAP1 PUSH2 0x319E SWAP1 PUSH1 0x1 SWAP1 PUSH2 0x40A3 JUMP JUMPDEST DUP2 SLOAD DUP2 LT PUSH2 0x31AE JUMPI PUSH2 0x31AE PUSH2 0x405C JUMP JUMPDEST SWAP1 PUSH1 0x0 MSTORE PUSH1 0x20 PUSH1 0x0 KECCAK256 ADD PUSH1 0x0 SWAP1 SLOAD SWAP1 PUSH2 0x100 EXP SWAP1 DIV PUSH1 0x1 PUSH1 0x1 PUSH1 0xA0 SHL SUB AND DUP4 DUP4 DUP2 SLOAD DUP2 LT PUSH2 0x31DE JUMPI PUSH2 0x31DE PUSH2 0x405C JUMP JUMPDEST SWAP1 PUSH1 0x0 MSTORE PUSH1 0x20 PUSH1 0x0 KECCAK256 ADD PUSH1 0x0 PUSH2 0x100 EXP DUP2 SLOAD DUP2 PUSH1 0x1 PUSH1 0x1 PUSH1 0xA0 SHL SUB MUL NOT AND SWAP1 DUP4 PUSH1 0x1 PUSH1 0x1 PUSH1 0xA0 SHL SUB AND MUL OR SWAP1 SSTORE POP DUP3 DUP1 SLOAD DUP1 PUSH2 0x321C JUMPI PUSH2 0x321C PUSH2 0x40D2 JUMP JUMPDEST PUSH1 0x0 DUP3 DUP2 MSTORE PUSH1 0x20 SWAP1 KECCAK256 DUP2 ADD PUSH1 0x0 NOT SWAP1 DUP2 ADD DUP1 SLOAD PUSH1 0x1 PUSH1 0x1 PUSH1 0xA0 SHL SUB NOT AND SWAP1 SSTORE ADD SWAP1 SSTORE DUP1 PUSH2 0x3248 DUP2 PUSH2 0x4088 JUMP JUMPDEST SWAP2 POP POP PUSH2 0x311B JUMP JUMPDEST POP POP POP POP POP JUMP JUMPDEST PUSH2 0x32A6 PUSH1 0x40 DUP1 MLOAD PUSH2 0x120 DUP2 ADD DUP3 MSTORE PUSH1 0x0 DUP1 DUP3 MSTORE PUSH1 0x20 DUP3 ADD DUP2 SWAP1 MSTORE SWAP2 DUP2 ADD DUP3 SWAP1 MSTORE PUSH1 0x60 DUP2 ADD DUP3 SWAP1 MSTORE PUSH1 0x80 DUP2 ADD DUP3 SWAP1 MSTORE PUSH1 0xA0 DUP2 ADD DUP3 SWAP1 MSTORE SWAP1 PUSH1 0xC0 DUP3 ADD SWAP1 DUP2 MSTORE PUSH1 0x0 PUSH1 0x20 DUP3 ADD MSTORE PUSH1 0x60 PUSH1 0x40 SWAP1 SWAP2 ADD MSTORE SWAP1 JUMP JUMPDEST PUSH1 0x0 CALLER DUP7 DUP5 DUP8 TIMESTAMP PUSH1 0x40 MLOAD PUSH1 0x20 ADD PUSH2 0x32C1 SWAP6 SWAP5 SWAP4 SWAP3 SWAP2 SWAP1 PUSH2 0x4335 JUMP JUMPDEST PUSH1 0x40 DUP1 MLOAD PUSH1 0x1F NOT DUP2 DUP5 SUB ADD DUP2 MSTORE DUP3 DUP3 MSTORE DUP1 MLOAD PUSH1 0x20 SWAP2 DUP3 ADD KECCAK256 PUSH2 0x120 DUP5 ADD DUP4 MSTORE DUP1 DUP5 MSTORE SWAP1 DUP4 ADD DUP11 SWAP1 MSTORE CALLER SWAP2 DUP4 ADD SWAP2 SWAP1 SWAP2 MSTORE PUSH1 0x1 PUSH1 0x1 PUSH1 0xA0 SHL SUB DUP9 AND PUSH1 0x60 DUP4 ADD MSTORE PUSH1 0x1 PUSH1 0x80 DUP4 ADD MSTORE PUSH1 0x0 PUSH1 0xA0 DUP4 ADD MSTORE SWAP2 POP PUSH1 0xC0 DUP2 ADD DUP6 PUSH1 0x3 DUP2 GT ISZERO PUSH2 0x3326 JUMPI PUSH2 0x3326 PUSH2 0x3C2C JUMP JUMPDEST DUP2 MSTORE PUSH1 0x20 ADD DUP5 PUSH2 0xFFFF AND DUP2 MSTORE PUSH1 0x20 ADD DUP7 DUP2 MSTORE POP SWAP2 POP POP SWAP6 SWAP5 POP POP POP POP POP JUMP JUMPDEST CALLER PUSH1 0x0 SWAP1 DUP2 MSTORE PUSH1 0xA PUSH1 0x20 MSTORE PUSH1 0x40 SWAP1 KECCAK256 SLOAD PUSH1 0x1 PUSH1 0xA0 SHL SWAP1 DIV PUSH1 0xFF AND PUSH2 0x33CF JUMPI CALLER PUSH1 0x0 DUP2 DUP2 MSTORE PUSH1 0xA PUSH1 0x20 MSTORE PUSH1 0x40 DUP2 KECCAK256 DUP1 SLOAD PUSH1 0x1 PUSH1 0x1 PUSH1 0xA0 SHL SUB NOT SWAP1 DUP2 AND DUP5 OR DUP3 SSTORE PUSH1 0xB DUP1 SLOAD PUSH1 0x1 DUP2 ADD SWAP1 SWAP2 SSTORE PUSH32 0x175B7A638427703F0DBE7BB9BBF987A2551717B34E79F33B5B1008D1FA01DB9 ADD DUP1 SLOAD SWAP1 SWAP2 AND DUP5 OR SWAP1 SSTORE SWAP2 SWAP1 MSTORE DUP1 SLOAD PUSH1 0xFF PUSH1 0xA0 SHL NOT AND PUSH1 0x1 PUSH1 0xA0 SHL OR SWAP1 SSTORE JUMPDEST DUP1 ISZERO PUSH2 0x3485 JUMPI CALLER PUSH1 0x0 SWAP1 DUP2 MSTORE PUSH1 0xA PUSH1 0x20 SWAP1 DUP2 MSTORE PUSH1 0x40 DUP1 DUP4 KECCAK256 PUSH1 0x3 SWAP1 DUP2 ADD DUP1 SLOAD PUSH1 0x1 DUP1 DUP3 ADD DUP4 SSTORE SWAP2 DUP7 MSTORE SWAP5 DUP5 SWAP1 KECCAK256 DUP8 MLOAD PUSH1 0x2 SWAP1 SWAP7 MUL ADD SWAP5 DUP6 SSTORE SWAP3 DUP7 ADD MLOAD SWAP3 DUP5 ADD DUP1 SLOAD PUSH2 0xFFFF NOT DUP2 AND PUSH2 0xFFFF SWAP1 SWAP6 AND SWAP5 DUP6 OR DUP3 SSTORE SWAP3 DUP8 ADD MLOAD DUP8 SWAP6 SWAP5 SWAP1 SWAP4 SWAP2 SWAP3 PUSH3 0xFFFFFF NOT SWAP1 SWAP3 AND OR SWAP1 PUSH3 0x10000 SWAP1 DUP5 SWAP1 DUP2 GT ISZERO PUSH2 0x344C JUMPI PUSH2 0x344C PUSH2 0x3C2C JUMP JUMPDEST MUL OR SWAP1 SSTORE POP PUSH1 0x60 DUP3 ADD MLOAD PUSH1 0x1 DUP3 ADD DUP1 SLOAD PUSH4 0xFF000000 NOT AND PUSH4 0x1000000 DUP4 PUSH1 0x2 DUP2 GT ISZERO PUSH2 0x347A JUMPI PUSH2 0x347A PUSH2 0x3C2C JUMP JUMPDEST MUL OR SWAP1 SSTORE POP POP POP POP POP JUMP JUMPDEST CALLER PUSH1 0x0 SWAP1 DUP2 MSTORE PUSH1 0xA PUSH1 0x20 SWAP1 DUP2 MSTORE PUSH1 0x40 DUP1 DUP4 KECCAK256 PUSH1 0x2 SWAP1 DUP2 ADD DUP1 SLOAD PUSH1 0x1 DUP1 DUP3 ADD DUP4 SSTORE SWAP2 DUP7 MSTORE SWAP5 DUP5 SWAP1 KECCAK256 DUP8 MLOAD SWAP6 SWAP1 SWAP3 MUL SWAP1 SWAP2 ADD SWAP4 DUP5 SSTORE SWAP2 DUP6 ADD MLOAD SWAP2 DUP4 ADD DUP1 SLOAD PUSH2 0xFFFF NOT DUP2 AND PUSH2 0xFFFF SWAP1 SWAP5 AND SWAP4 DUP5 OR DUP3 SSTORE SWAP2 DUP7 ADD MLOAD DUP7 SWAP5 SWAP4 SWAP1 SWAP3 PUSH3 0xFFFFFF NOT AND OR PUSH3 0x10000 DUP4 PUSH1 0x3 DUP2 GT ISZERO PUSH2 0x344C JUMPI PUSH2 0x344C PUSH2 0x3C2C JUMP JUMPDEST PUSH1 0x0 DUP2 PUSH1 0x1 EQ DUP1 PUSH2 0x3509 JUMPI POP DUP2 PUSH1 0x3 EQ JUMPDEST DUP1 PUSH2 0x3514 JUMPI POP DUP2 PUSH1 0x5 EQ JUMPDEST DUP1 PUSH2 0x351F JUMPI POP DUP2 PUSH1 0x7 EQ JUMPDEST DUP1 PUSH2 0x352A JUMPI POP DUP2 PUSH1 0x8 EQ JUMPDEST DUP1 PUSH2 0x3535 JUMPI POP DUP2 PUSH1 0xA EQ JUMPDEST DUP1 PUSH2 0x3540 JUMPI POP DUP2 PUSH1 0xC EQ JUMPDEST ISZERO PUSH2 0x354D JUMPI POP PUSH1 0x1F PUSH2 0x357A JUMP JUMPDEST DUP2 PUSH1 0x2 EQ PUSH2 0x355D JUMPI POP PUSH1 0x1E PUSH2 0x357A JUMP JUMPDEST PUSH2 0x3566 DUP4 PUSH2 0x3977 JUMP JUMPDEST PUSH2 0x3571 JUMPI PUSH1 0x1C PUSH2 0x3574 JUMP JUMPDEST PUSH1 0x1D JUMPDEST PUSH1 0xFF AND SWAP1 POP JUMPDEST SWAP3 SWAP2 POP POP JUMP JUMPDEST PUSH1 0x0 DUP1 PUSH2 0x358C DUP4 PUSH2 0x3977 JUMP JUMPDEST ISZERO PUSH2 0x3599 JUMPI POP PUSH1 0x1 PUSH2 0x359D JUMP JUMPDEST POP PUSH1 0x0 JUMPDEST PUSH2 0x35A8 DUP2 PUSH1 0x5A PUSH2 0x40BA JUMP JUMPDEST DUP5 GT PUSH2 0x35B6 JUMPI DUP4 SWAP2 POP PUSH2 0x3647 JUMP JUMPDEST DUP4 PUSH2 0x35C2 DUP3 PUSH1 0x5A PUSH2 0x40BA JUMP JUMPDEST LT DUP1 ISZERO PUSH2 0x35D9 JUMPI POP PUSH2 0x35D5 DUP2 PUSH1 0xB5 PUSH2 0x40BA JUMP JUMPDEST DUP5 GT ISZERO JUMPDEST ISZERO PUSH2 0x35FA JUMPI PUSH2 0x35E9 DUP2 PUSH1 0x5A PUSH2 0x40BA JUMP JUMPDEST PUSH2 0x35F3 SWAP1 DUP6 PUSH2 0x40A3 JUMP JUMPDEST SWAP2 POP PUSH2 0x3647 JUMP JUMPDEST DUP4 PUSH2 0x3606 DUP3 PUSH1 0xB5 PUSH2 0x40BA JUMP JUMPDEST LT DUP1 ISZERO PUSH2 0x361E JUMPI POP PUSH2 0x361A DUP2 PUSH2 0x111 PUSH2 0x40BA JUMP JUMPDEST DUP5 GT ISZERO JUMPDEST ISZERO PUSH2 0x362E JUMPI PUSH2 0x35E9 DUP2 PUSH1 0xB5 PUSH2 0x40BA JUMP JUMPDEST PUSH2 0x363A DUP2 PUSH2 0x111 PUSH2 0x40BA JUMP JUMPDEST PUSH2 0x3644 SWAP1 DUP6 PUSH2 0x40A3 JUMP JUMPDEST SWAP2 POP JUMPDEST POP SWAP3 SWAP2 POP POP JUMP JUMPDEST PUSH1 0x0 DUP1 PUSH2 0x365E PUSH3 0x15180 DUP5 PUSH2 0x416F JUMP JUMPDEST SWAP1 POP PUSH1 0x0 PUSH1 0x7 PUSH2 0x366F DUP4 PUSH1 0x3 PUSH2 0x40BA JUMP JUMPDEST PUSH2 0x3679 SWAP2 SWAP1 PUSH2 0x4393 JUMP JUMPDEST PUSH2 0x3102 SWAP1 PUSH1 0x1 PUSH2 0x40BA JUMP JUMPDEST PUSH2 0x36D3 PUSH1 0x40 DUP1 MLOAD PUSH2 0x120 DUP2 ADD DUP3 MSTORE PUSH1 0x0 DUP1 DUP3 MSTORE PUSH1 0x20 DUP3 ADD DUP2 SWAP1 MSTORE SWAP2 DUP2 ADD DUP3 SWAP1 MSTORE PUSH1 0x60 DUP2 ADD DUP3 SWAP1 MSTORE PUSH1 0x80 DUP2 ADD DUP3 SWAP1 MSTORE PUSH1 0xA0 DUP2 ADD DUP3 SWAP1 MSTORE SWAP1 PUSH1 0xC0 DUP3 ADD SWAP1 DUP2 MSTORE PUSH1 0x0 PUSH1 0x20 DUP3 ADD MSTORE PUSH1 0x60 PUSH1 0x40 SWAP1 SWAP2 ADD MSTORE SWAP1 JUMP JUMPDEST PUSH1 0x0 PUSH1 0xD PUSH1 0x0 DUP5 PUSH1 0x40 ADD MLOAD PUSH1 0x3 DUP2 GT ISZERO PUSH2 0x36EF JUMPI PUSH2 0x36EF PUSH2 0x3C2C JUMP JUMPDEST DUP2 MSTORE PUSH1 0x20 ADD SWAP1 DUP2 MSTORE PUSH1 0x20 ADD PUSH1 0x0 KECCAK256 PUSH1 0x0 DUP5 PUSH1 0x20 ADD MLOAD PUSH2 0xFFFF AND PUSH2 0xFFFF AND DUP2 MSTORE PUSH1 0x20 ADD SWAP1 DUP2 MSTORE PUSH1 0x20 ADD PUSH1 0x0 KECCAK256 DUP1 SLOAD DUP1 PUSH1 0x20 MUL PUSH1 0x20 ADD PUSH1 0x40 MLOAD SWAP1 DUP2 ADD PUSH1 0x40 MSTORE DUP1 SWAP3 SWAP2 SWAP1 DUP2 DUP2 MSTORE PUSH1 0x20 ADD PUSH1 0x0 SWAP1 JUMPDEST DUP3 DUP3 LT ISZERO PUSH2 0x38A4 JUMPI PUSH1 0x0 DUP5 DUP2 MSTORE PUSH1 0x20 SWAP1 DUP2 SWAP1 KECCAK256 PUSH1 0x40 DUP1 MLOAD PUSH2 0x120 DUP2 ADD DUP3 MSTORE PUSH1 0x5 DUP7 MUL SWAP1 SWAP3 ADD DUP1 SLOAD DUP4 MSTORE PUSH1 0x1 DUP2 ADD SLOAD SWAP4 DUP4 ADD SWAP4 SWAP1 SWAP4 MSTORE PUSH1 0x2 DUP4 ADD SLOAD PUSH1 0x1 PUSH1 0x1 PUSH1 0xA0 SHL SUB SWAP1 DUP2 AND SWAP2 DUP4 ADD SWAP2 SWAP1 SWAP2 MSTORE PUSH1 0x3 DUP1 DUP5 ADD SLOAD SWAP2 DUP3 AND PUSH1 0x60 DUP5 ADD MSTORE PUSH1 0xFF PUSH1 0x1 PUSH1 0xA0 SHL DUP4 DIV DUP2 AND ISZERO ISZERO PUSH1 0x80 DUP6 ADD MSTORE PUSH1 0x1 PUSH1 0xA8 SHL DUP4 DIV DUP2 AND ISZERO ISZERO PUSH1 0xA0 DUP6 ADD MSTORE SWAP3 SWAP4 SWAP3 PUSH1 0xC0 DUP6 ADD SWAP3 PUSH1 0x1 PUSH1 0xB0 SHL SWAP1 DIV AND SWAP1 DUP2 GT ISZERO PUSH2 0x37D6 JUMPI PUSH2 0x37D6 PUSH2 0x3C2C JUMP JUMPDEST PUSH1 0x3 DUP2 GT ISZERO PUSH2 0x37E7 JUMPI PUSH2 0x37E7 PUSH2 0x3C2C JUMP JUMPDEST DUP2 MSTORE PUSH1 0x3 DUP3 ADD SLOAD PUSH1 0x1 PUSH1 0xB8 SHL SWAP1 DIV PUSH2 0xFFFF AND PUSH1 0x20 DUP3 ADD MSTORE PUSH1 0x4 DUP3 ADD DUP1 SLOAD PUSH1 0x40 SWAP1 SWAP3 ADD SWAP2 PUSH2 0x3813 SWAP1 PUSH2 0x411E JUMP JUMPDEST DUP1 PUSH1 0x1F ADD PUSH1 0x20 DUP1 SWAP2 DIV MUL PUSH1 0x20 ADD PUSH1 0x40 MLOAD SWAP1 DUP2 ADD PUSH1 0x40 MSTORE DUP1 SWAP3 SWAP2 SWAP1 DUP2 DUP2 MSTORE PUSH1 0x20 ADD DUP3 DUP1 SLOAD PUSH2 0x383F SWAP1 PUSH2 0x411E JUMP JUMPDEST DUP1 ISZERO PUSH2 0x388C JUMPI DUP1 PUSH1 0x1F LT PUSH2 0x3861 JUMPI PUSH2 0x100 DUP1 DUP4 SLOAD DIV MUL DUP4 MSTORE SWAP2 PUSH1 0x20 ADD SWAP2 PUSH2 0x388C JUMP JUMPDEST DUP3 ADD SWAP2 SWAP1 PUSH1 0x0 MSTORE PUSH1 0x20 PUSH1 0x0 KECCAK256 SWAP1 JUMPDEST DUP2 SLOAD DUP2 MSTORE SWAP1 PUSH1 0x1 ADD SWAP1 PUSH1 0x20 ADD DUP1 DUP4 GT PUSH2 0x386F JUMPI DUP3 SWAP1 SUB PUSH1 0x1F AND DUP3 ADD SWAP2 JUMPDEST POP POP POP POP POP DUP2 MSTORE POP POP DUP2 MSTORE PUSH1 0x20 ADD SWAP1 PUSH1 0x1 ADD SWAP1 PUSH2 0x373A JUMP JUMPDEST POP POP POP POP SWAP1 POP PUSH1 0x0 JUMPDEST DUP2 MLOAD DUP2 LT ISZERO PUSH2 0x3056 JUMPI DUP4 PUSH1 0x0 ADD MLOAD DUP3 DUP3 DUP2 MLOAD DUP2 LT PUSH2 0x38CD JUMPI PUSH2 0x38CD PUSH2 0x405C JUMP JUMPDEST PUSH1 0x20 MUL PUSH1 0x20 ADD ADD MLOAD PUSH1 0x0 ADD MLOAD EQ ISZERO PUSH2 0x38FC JUMPI DUP2 DUP2 DUP2 MLOAD DUP2 LT PUSH2 0x38F1 JUMPI PUSH2 0x38F1 PUSH2 0x405C JUMP JUMPDEST PUSH1 0x20 MUL PUSH1 0x20 ADD ADD MLOAD SWAP3 POP JUMPDEST DUP1 PUSH2 0x3906 DUP2 PUSH2 0x4088 JUMP JUMPDEST SWAP2 POP POP PUSH2 0x38AD JUMP JUMPDEST PUSH1 0x0 PUSH2 0x357A PUSH3 0x15180 DUP4 PUSH2 0x43A7 JUMP JUMPDEST PUSH2 0x2843 DUP2 PUSH1 0x40 MLOAD PUSH1 0x24 ADD PUSH2 0x3933 SWAP2 DUP2 MSTORE PUSH1 0x20 ADD SWAP1 JUMP JUMPDEST PUSH1 0x40 DUP1 MLOAD PUSH1 0x1F NOT DUP2 DUP5 SUB ADD DUP2 MSTORE SWAP2 SWAP1 MSTORE PUSH1 0x20 DUP2 ADD DUP1 MLOAD PUSH28 0xFFFFFFFFFFFFFFFFFFFFFFFFFFFFFFFFFFFFFFFFFFFFFFFFFFFFFFFF AND PUSH4 0xF82C50F1 PUSH1 0xE0 SHL OR SWAP1 MSTORE PUSH2 0x39B3 JUMP JUMPDEST PUSH1 0x0 PUSH2 0x3984 PUSH1 0x4 DUP4 PUSH2 0x4393 JUMP JUMPDEST ISZERO DUP1 ISZERO PUSH2 0x399A JUMPI POP PUSH2 0x3997 PUSH1 0x64 DUP4 PUSH2 0x4393 JUMP JUMPDEST ISZERO ISZERO JUMPDEST DUP1 PUSH2 0x357A JUMPI POP PUSH2 0x39AC PUSH2 0x190 DUP4 PUSH2 0x4393 JUMP JUMPDEST ISZERO SWAP3 SWAP2 POP POP JUMP JUMPDEST DUP1 MLOAD PUSH11 0x636F6E736F6C652E6C6F67 PUSH1 0x20 DUP4 ADD PUSH1 0x0 DUP1 DUP5 DUP4 DUP6 GAS STATICCALL POP POP POP POP POP JUMP JUMPDEST PUSH1 0x40 DUP1 MLOAD PUSH1 0x80 DUP2 ADD DUP3 MSTORE PUSH1 0x0 DUP1 DUP3 MSTORE PUSH1 0x20 DUP3 ADD DUP2 SWAP1 MSTORE SWAP1 SWAP2 DUP3 ADD SWAP1 JUMPDEST DUP2 MSTORE PUSH1 0x20 ADD PUSH1 0x0 SWAP1 MSTORE SWAP1 JUMP JUMPDEST DUP3 DUP1 SLOAD PUSH2 0x3A08 SWAP1 PUSH2 0x411E JUMP JUMPDEST SWAP1 PUSH1 0x0 MSTORE PUSH1 0x20 PUSH1 0x0 KECCAK256 SWAP1 PUSH1 0x1F ADD PUSH1 0x20 SWAP1 DIV DUP2 ADD SWAP3 DUP3 PUSH2 0x3A2A JUMPI PUSH1 0x0 DUP6 SSTORE PUSH2 0x3A70 JUMP JUMPDEST DUP3 PUSH1 0x1F LT PUSH2 0x3A43 JUMPI DUP1 MLOAD PUSH1 0xFF NOT AND DUP4 DUP1 ADD OR DUP6 SSTORE PUSH2 0x3A70 JUMP JUMPDEST DUP3 DUP1 ADD PUSH1 0x1 ADD DUP6 SSTORE DUP3 ISZERO PUSH2 0x3A70 JUMPI SWAP2 DUP3 ADD JUMPDEST DUP3 DUP2 GT ISZERO PUSH2 0x3A70 JUMPI DUP3 MLOAD DUP3 SSTORE SWAP2 PUSH1 0x20 ADD SWAP2 SWAP1 PUSH1 0x1 ADD SWAP1 PUSH2 0x3A55 JUMP JUMPDEST POP PUSH2 0x3A7C SWAP3 SWAP2 POP PUSH2 0x3A80 JUMP JUMPDEST POP SWAP1 JUMP JUMPDEST JUMPDEST DUP1 DUP3 GT ISZERO PUSH2 0x3A7C JUMPI PUSH1 0x0 DUP2 SSTORE PUSH1 0x1 ADD PUSH2 0x3A81 JUMP JUMPDEST DUP1 CALLDATALOAD PUSH1 0x1 PUSH1 0x1 PUSH1 0xA0 SHL SUB DUP2 AND DUP2 EQ PUSH2 0x3AAC JUMPI PUSH1 0x0 DUP1 REVERT JUMPDEST SWAP2 SWAP1 POP JUMP JUMPDEST PUSH1 0x0 PUSH1 0x20 DUP3 DUP5 SUB SLT ISZERO PUSH2 0x3AC3 JUMPI PUSH1 0x0 DUP1 REVERT JUMPDEST PUSH2 0x3ACC DUP3 PUSH2 0x3A95 JUMP JUMPDEST SWAP4 SWAP3 POP POP POP JUMP JUMPDEST PUSH1 0x0 PUSH1 0x20 DUP3 DUP5 SUB SLT ISZERO PUSH2 0x3AE5 JUMPI PUSH1 0x0 DUP1 REVERT JUMPDEST DUP2 CALLDATALOAD PUSH8 0xFFFFFFFFFFFFFFFF DUP2 GT ISZERO PUSH2 0x3AFC JUMPI PUSH1 0x0 DUP1 REVERT JUMPDEST DUP3 ADD PUSH2 0x120 DUP2 DUP6 SUB SLT ISZERO PUSH2 0x3ACC JUMPI PUSH1 0x0 DUP1 REVERT JUMPDEST PUSH1 0x0 PUSH1 0x20 DUP3 DUP5 SUB SLT ISZERO PUSH2 0x3B21 JUMPI PUSH1 0x0 DUP1 REVERT JUMPDEST POP CALLDATALOAD SWAP2 SWAP1 POP JUMP JUMPDEST DUP1 CALLDATALOAD PUSH1 0x4 DUP2 LT PUSH2 0x3AAC JUMPI PUSH1 0x0 DUP1 REVERT JUMPDEST DUP1 CALLDATALOAD PUSH2 0xFFFF DUP2 AND DUP2 EQ PUSH2 0x3AAC JUMPI PUSH1 0x0 DUP1 REVERT JUMPDEST PUSH1 0x0 DUP1 PUSH1 0x0 DUP1 PUSH1 0x0 DUP1 PUSH1 0xA0 DUP8 DUP10 SUB SLT ISZERO PUSH2 0x3B62 JUMPI PUSH1 0x0 DUP1 REVERT JUMPDEST DUP7 CALLDATALOAD SWAP6 POP PUSH2 0x3B72 PUSH1 0x20 DUP9 ADD PUSH2 0x3A95 JUMP JUMPDEST SWAP5 POP PUSH1 0x40 DUP8 ADD CALLDATALOAD PUSH8 0xFFFFFFFFFFFFFFFF DUP1 DUP3 GT ISZERO PUSH2 0x3B8F JUMPI PUSH1 0x0 DUP1 REVERT JUMPDEST DUP2 DUP10 ADD SWAP2 POP DUP10 PUSH1 0x1F DUP4 ADD SLT PUSH2 0x3BA3 JUMPI PUSH1 0x0 DUP1 REVERT JUMPDEST DUP2 CALLDATALOAD DUP2 DUP2 GT ISZERO PUSH2 0x3BB2 JUMPI PUSH1 0x0 DUP1 REVERT JUMPDEST DUP11 PUSH1 0x20 DUP3 DUP6 ADD ADD GT ISZERO PUSH2 0x3BC4 JUMPI PUSH1 0x0 DUP1 REVERT JUMPDEST PUSH1 0x20 DUP4 ADD SWAP7 POP DUP1 SWAP6 POP POP POP POP PUSH2 0x3BDC PUSH1 0x60 DUP9 ADD PUSH2 0x3B28 JUMP JUMPDEST SWAP2 POP PUSH2 0x3BEA PUSH1 0x80 DUP9 ADD PUSH2 0x3B37 JUMP JUMPDEST SWAP1 POP SWAP3 SWAP6 POP SWAP3 SWAP6 POP SWAP3 SWAP6 JUMP JUMPDEST DUP1 ISZERO ISZERO DUP2 EQ PUSH2 0x2843 JUMPI PUSH1 0x0 DUP1 REVERT JUMPDEST DUP1 CALLDATALOAD PUSH2 0x3AAC DUP2 PUSH2 0x3BF6 JUMP JUMPDEST PUSH1 0x0 PUSH1 0x20 DUP3 DUP5 SUB SLT ISZERO PUSH2 0x3C21 JUMPI PUSH1 0x0 DUP1 REVERT JUMPDEST DUP2 CALLDATALOAD PUSH2 0x3ACC DUP2 PUSH2 0x3BF6 JUMP JUMPDEST PUSH4 0x4E487B71 PUSH1 0xE0 SHL PUSH1 0x0 MSTORE PUSH1 0x21 PUSH1 0x4 MSTORE PUSH1 0x24 PUSH1 0x0 REVERT JUMPDEST PUSH1 0x4 DUP2 LT PUSH2 0x3C52 JUMPI PUSH2 0x3C52 PUSH2 0x3C2C JUMP JUMPDEST SWAP1 MSTORE JUMP JUMPDEST PUSH1 0x0 JUMPDEST DUP4 DUP2 LT ISZERO PUSH2 0x3C71 JUMPI DUP2 DUP2 ADD MLOAD DUP4 DUP3 ADD MSTORE PUSH1 0x20 ADD PUSH2 0x3C59 JUMP JUMPDEST DUP4 DUP2 GT ISZERO PUSH2 0xBFD JUMPI POP POP PUSH1 0x0 SWAP2 ADD MSTORE JUMP JUMPDEST PUSH1 0x0 DUP2 MLOAD DUP1 DUP5 MSTORE PUSH2 0x3C9A DUP2 PUSH1 0x20 DUP7 ADD PUSH1 0x20 DUP7 ADD PUSH2 0x3C56 JUMP JUMPDEST PUSH1 0x1F ADD PUSH1 0x1F NOT AND SWAP3 SWAP1 SWAP3 ADD PUSH1 0x20 ADD SWAP3 SWAP2 POP POP JUMP JUMPDEST PUSH1 0x3 DUP2 LT PUSH2 0x3C52 JUMPI PUSH2 0x3C52 PUSH2 0x3C2C JUMP JUMPDEST PUSH1 0x0 PUSH1 0x20 DUP1 DUP4 ADD DUP2 DUP5 MSTORE DUP1 DUP6 MLOAD DUP1 DUP4 MSTORE PUSH1 0x40 SWAP3 POP DUP3 DUP7 ADD SWAP2 POP DUP3 DUP2 PUSH1 0x5 SHL DUP8 ADD ADD DUP5 DUP9 ADD PUSH1 0x0 JUMPDEST DUP4 DUP2 LT ISZERO PUSH2 0x3DE1 JUMPI PUSH1 0x3F NOT DUP10 DUP5 SUB ADD DUP6 MSTORE DUP2 MLOAD DUP1 MLOAD DUP8 DUP6 MSTORE DUP1 MLOAD DUP9 DUP7 ADD MSTORE DUP9 DUP2 ADD MLOAD PUSH1 0x60 DUP2 DUP2 DUP9 ADD MSTORE DUP10 DUP4 ADD MLOAD SWAP2 POP PUSH1 0x80 PUSH2 0x3D2A DUP2 DUP10 ADD DUP5 PUSH1 0x1 PUSH1 0x1 PUSH1 0xA0 SHL SUB AND SWAP1 MSTORE JUMP JUMPDEST SWAP1 DUP4 ADD MLOAD SWAP2 POP PUSH1 0xA0 SWAP1 PUSH2 0x3D47 DUP9 DUP4 ADD DUP5 PUSH1 0x1 PUSH1 0x1 PUSH1 0xA0 SHL SUB AND SWAP1 MSTORE JUMP JUMPDEST DUP4 ADD MLOAD SWAP2 POP PUSH1 0xC0 PUSH2 0x3D5B DUP9 DUP3 ADD DUP5 ISZERO ISZERO SWAP1 MSTORE JUMP JUMPDEST SWAP1 DUP4 ADD MLOAD SWAP2 POP PUSH1 0xE0 SWAP1 PUSH2 0x3D71 DUP9 DUP4 ADD DUP5 ISZERO ISZERO SWAP1 MSTORE JUMP JUMPDEST DUP4 ADD MLOAD SWAP2 POP PUSH2 0x100 PUSH2 0x3D85 DUP9 DUP3 ADD DUP5 PUSH2 0x3C42 JUMP JUMPDEST SWAP1 DUP4 ADD MLOAD SWAP2 POP PUSH2 0x120 SWAP1 PUSH2 0x3D9E DUP9 DUP4 ADD DUP5 PUSH2 0xFFFF AND SWAP1 MSTORE JUMP JUMPDEST SWAP3 SWAP1 SWAP3 ADD MLOAD PUSH2 0x140 DUP8 ADD SWAP3 SWAP1 SWAP3 MSTORE POP PUSH2 0x3DBB PUSH2 0x160 DUP7 ADD DUP3 PUSH2 0x3C82 JUMP JUMPDEST SWAP2 DUP10 ADD MLOAD SWAP2 SWAP1 POP PUSH2 0x3DCE DUP6 DUP11 ADD DUP4 PUSH2 0x3CAE JUMP JUMPDEST SWAP6 DUP9 ADD SWAP6 SWAP4 POP POP SWAP1 DUP7 ADD SWAP1 PUSH1 0x1 ADD PUSH2 0x3CE5 JUMP JUMPDEST POP SWAP1 SWAP9 SWAP8 POP POP POP POP POP POP POP POP JUMP JUMPDEST PUSH4 0x4E487B71 PUSH1 0xE0 SHL PUSH1 0x0 MSTORE PUSH1 0x41 PUSH1 0x4 MSTORE PUSH1 0x24 PUSH1 0x0 REVERT JUMPDEST PUSH1 0x40 MLOAD PUSH2 0x120 DUP2 ADD PUSH8 0xFFFFFFFFFFFFFFFF DUP2 GT DUP3 DUP3 LT OR ISZERO PUSH2 0x3E29 JUMPI PUSH2 0x3E29 PUSH2 0x3DEF JUMP JUMPDEST PUSH1 0x40 MSTORE SWAP1 JUMP JUMPDEST PUSH1 0x0 DUP3 PUSH1 0x1F DUP4 ADD SLT PUSH2 0x3E40 JUMPI PUSH1 0x0 DUP1 REVERT JUMPDEST DUP2 CALLDATALOAD PUSH8 0xFFFFFFFFFFFFFFFF DUP1 DUP3 GT ISZERO PUSH2 0x3E5B JUMPI PUSH2 0x3E5B PUSH2 0x3DEF JUMP JUMPDEST PUSH1 0x40 MLOAD PUSH1 0x1F DUP4 ADD PUSH1 0x1F NOT SWAP1 DUP2 AND PUSH1 0x3F ADD AND DUP2 ADD SWAP1 DUP3 DUP3 GT DUP2 DUP4 LT OR ISZERO PUSH2 0x3E83 JUMPI PUSH2 0x3E83 PUSH2 0x3DEF JUMP JUMPDEST DUP2 PUSH1 0x40 MSTORE DUP4 DUP2 MSTORE DUP7 PUSH1 0x20 DUP6 DUP9 ADD ADD GT ISZERO PUSH2 0x3E9C JUMPI PUSH1 0x0 DUP1 REVERT JUMPDEST DUP4 PUSH1 0x20 DUP8 ADD PUSH1 0x20 DUP4 ADD CALLDATACOPY PUSH1 0x0 PUSH1 0x20 DUP6 DUP4 ADD ADD MSTORE DUP1 SWAP5 POP POP POP POP POP SWAP3 SWAP2 POP POP JUMP JUMPDEST PUSH1 0x0 PUSH2 0x120 DUP3 DUP5 SUB SLT ISZERO PUSH2 0x3ECF JUMPI PUSH1 0x0 DUP1 REVERT JUMPDEST PUSH2 0x3ED7 PUSH2 0x3E05 JUMP JUMPDEST SWAP1 POP DUP2 CALLDATALOAD DUP2 MSTORE PUSH1 0x20 DUP3 ADD CALLDATALOAD PUSH1 0x20 DUP3 ADD MSTORE PUSH2 0x3EF3 PUSH1 0x40 DUP4 ADD PUSH2 0x3A95 JUMP JUMPDEST PUSH1 0x40 DUP3 ADD MSTORE PUSH2 0x3F04 PUSH1 0x60 DUP4 ADD PUSH2 0x3A95 JUMP JUMPDEST PUSH1 0x60 DUP3 ADD MSTORE PUSH2 0x3F15 PUSH1 0x80 DUP4 ADD PUSH2 0x3C04 JUMP JUMPDEST PUSH1 0x80 DUP3 ADD MSTORE PUSH2 0x3F26 PUSH1 0xA0 DUP4 ADD PUSH2 0x3C04 JUMP JUMPDEST PUSH1 0xA0 DUP3 ADD MSTORE PUSH2 0x3F37 PUSH1 0xC0 DUP4 ADD PUSH2 0x3B28 JUMP JUMPDEST PUSH1 0xC0 DUP3 ADD MSTORE PUSH2 0x3F48 PUSH1 0xE0 DUP4 ADD PUSH2 0x3B37 JUMP JUMPDEST PUSH1 0xE0 DUP3 ADD MSTORE PUSH2 0x100 DUP1 DUP4 ADD CALLDATALOAD PUSH8 0xFFFFFFFFFFFFFFFF DUP2 GT ISZERO PUSH2 0x3F69 JUMPI PUSH1 0x0 DUP1 REVERT JUMPDEST PUSH2 0x3F75 DUP6 DUP3 DUP7 ADD PUSH2 0x3E2F JUMP JUMPDEST DUP3 DUP5 ADD MSTORE POP POP SWAP3 SWAP2 POP POP JUMP JUMPDEST PUSH1 0x0 DUP1 PUSH1 0x40 DUP4 DUP6 SUB SLT ISZERO PUSH2 0x3F94 JUMPI PUSH1 0x0 DUP1 REVERT JUMPDEST DUP3 CALLDATALOAD PUSH8 0xFFFFFFFFFFFFFFFF DUP2 GT ISZERO PUSH2 0x3FAB JUMPI PUSH1 0x0 DUP1 REVERT JUMPDEST PUSH2 0x3FB7 DUP6 DUP3 DUP7 ADD PUSH2 0x3EBC JUMP JUMPDEST SWAP3 POP POP PUSH2 0x3FC6 PUSH1 0x20 DUP5 ADD PUSH2 0x3A95 JUMP JUMPDEST SWAP1 POP SWAP3 POP SWAP3 SWAP1 POP JUMP JUMPDEST PUSH1 0x20 DUP1 DUP3 MSTORE DUP3 MLOAD DUP3 DUP3 ADD DUP2 SWAP1 MSTORE PUSH1 0x0 SWAP2 SWAP1 PUSH1 0x40 SWAP1 DUP2 DUP6 ADD SWAP1 DUP7 DUP5 ADD DUP6 JUMPDEST DUP3 DUP2 LT ISZERO PUSH2 0x401A JUMPI DUP2 MLOAD DUP1 MLOAD DUP6 MSTORE DUP7 ADD MLOAD PUSH1 0x1 PUSH1 0x1 PUSH1 0xA0 SHL SUB AND DUP7 DUP6 ADD MSTORE SWAP3 DUP5 ADD SWAP3 SWAP1 DUP6 ADD SWAP1 PUSH1 0x1 ADD PUSH2 0x3FEC JUMP JUMPDEST POP SWAP2 SWAP8 SWAP7 POP POP POP POP POP POP POP JUMP JUMPDEST PUSH1 0x0 PUSH1 0x20 DUP3 DUP5 SUB SLT ISZERO PUSH2 0x4039 JUMPI PUSH1 0x0 DUP1 REVERT JUMPDEST DUP2 CALLDATALOAD PUSH8 0xFFFFFFFFFFFFFFFF DUP2 GT ISZERO PUSH2 0x4050 JUMPI PUSH1 0x0 DUP1 REVERT JUMPDEST PUSH2 0x3644 DUP5 DUP3 DUP6 ADD PUSH2 0x3EBC JUMP JUMPDEST PUSH4 0x4E487B71 PUSH1 0xE0 SHL PUSH1 0x0 MSTORE PUSH1 0x32 PUSH1 0x4 MSTORE PUSH1 0x24 PUSH1 0x0 REVERT JUMPDEST PUSH4 0x4E487B71 PUSH1 0xE0 SHL PUSH1 0x0 MSTORE PUSH1 0x11 PUSH1 0x4 MSTORE PUSH1 0x24 PUSH1 0x0 REVERT JUMPDEST PUSH1 0x0 PUSH1 0x0 NOT DUP3 EQ ISZERO PUSH2 0x409C JUMPI PUSH2 0x409C PUSH2 0x4072 JUMP JUMPDEST POP PUSH1 0x1 ADD SWAP1 JUMP JUMPDEST PUSH1 0x0 DUP3 DUP3 LT ISZERO PUSH2 0x40B5 JUMPI PUSH2 0x40B5 PUSH2 0x4072 JUMP JUMPDEST POP SUB SWAP1 JUMP JUMPDEST PUSH1 0x0 DUP3 NOT DUP3 GT ISZERO PUSH2 0x40CD JUMPI PUSH2 0x40CD PUSH2 0x4072 JUMP JUMPDEST POP ADD SWAP1 JUMP JUMPDEST PUSH4 0x4E487B71 PUSH1 0xE0 SHL PUSH1 0x0 MSTORE PUSH1 0x31 PUSH1 0x4 MSTORE PUSH1 0x24 PUSH1 0x0 REVERT JUMPDEST PUSH1 0x0 PUSH1 0x20 DUP3 DUP5 SUB SLT ISZERO PUSH2 0x40FA JUMPI PUSH1 0x0 DUP1 REVERT JUMPDEST PUSH2 0x3ACC DUP3 PUSH2 0x3B37 JUMP JUMPDEST PUSH1 0x0 PUSH1 0x20 DUP3 DUP5 SUB SLT ISZERO PUSH2 0x4115 JUMPI PUSH1 0x0 DUP1 REVERT JUMPDEST PUSH2 0x3ACC DUP3 PUSH2 0x3B28 JUMP JUMPDEST PUSH1 0x1 DUP2 DUP2 SHR SWAP1 DUP3 AND DUP1 PUSH2 0x4132 JUMPI PUSH1 0x7F DUP3 AND SWAP2 POP JUMPDEST PUSH1 0x20 DUP3 LT DUP2 EQ ISZERO PUSH2 0x4153 JUMPI PUSH4 0x4E487B71 PUSH1 0xE0 SHL PUSH1 0x0 MSTORE PUSH1 0x22 PUSH1 0x4 MSTORE PUSH1 0x24 PUSH1 0x0 REVERT JUMPDEST POP SWAP2 SWAP1 POP JUMP JUMPDEST PUSH4 0x4E487B71 PUSH1 0xE0 SHL PUSH1 0x0 MSTORE PUSH1 0x12 PUSH1 0x4 MSTORE PUSH1 0x24 PUSH1 0x0 REVERT JUMPDEST PUSH1 0x0 DUP3 PUSH2 0x417E JUMPI PUSH2 0x417E PUSH2 0x4159 JUMP JUMPDEST POP DIV SWAP1 JUMP JUMPDEST PUSH1 0x0 DUP1 DUP3 SLT DUP3 PUSH1 0x1 PUSH1 0x1 PUSH1 0xFF SHL SUB SUB DUP5 SGT DUP2 ISZERO AND ISZERO PUSH2 0x41A4 JUMPI PUSH2 0x41A4 PUSH2 0x4072 JUMP JUMPDEST PUSH1 0x1 PUSH1 0xFF SHL DUP4 SWAP1 SUB DUP5 SLT DUP2 AND ISZERO PUSH2 0x41BD JUMPI PUSH2 0x41BD PUSH2 0x4072 JUMP JUMPDEST POP POP ADD SWAP1 JUMP JUMPDEST PUSH1 0x0 PUSH1 0x1 PUSH1 0x1 PUSH1 0xFF SHL SUB PUSH1 0x0 DUP5 SGT PUSH1 0x0 DUP5 SGT DUP6 DUP4 DIV DUP6 GT DUP3 DUP3 AND AND ISZERO PUSH2 0x41EB JUMPI PUSH2 0x41EB PUSH2 0x4072 JUMP JUMPDEST PUSH1 0x1 PUSH1 0xFF SHL PUSH1 0x0 DUP8 SLT DUP3 DUP2 AND DUP8 DUP4 SDIV DUP10 SLT AND ISZERO PUSH2 0x420A JUMPI PUSH2 0x420A PUSH2 0x4072 JUMP JUMPDEST PUSH1 0x0 DUP8 SLT SWAP3 POP DUP8 DUP3 SDIV DUP8 SLT DUP5 DUP5 AND AND ISZERO PUSH2 0x4226 JUMPI PUSH2 0x4226 PUSH2 0x4072 JUMP JUMPDEST DUP8 DUP6 SDIV DUP8 SLT DUP2 DUP5 AND AND ISZERO PUSH2 0x423C JUMPI PUSH2 0x423C PUSH2 0x4072 JUMP JUMPDEST POP POP POP SWAP3 SWAP1 SWAP4 MUL SWAP4 SWAP3 POP POP POP JUMP JUMPDEST PUSH1 0x0 DUP3 PUSH2 0x4259 JUMPI PUSH2 0x4259 PUSH2 0x4159 JUMP JUMPDEST PUSH1 0x1 PUSH1 0xFF SHL DUP3 EQ PUSH1 0x0 NOT DUP5 EQ AND ISZERO PUSH2 0x4273 JUMPI PUSH2 0x4273 PUSH2 0x4072 JUMP JUMPDEST POP SDIV SWAP1 JUMP JUMPDEST PUSH1 0x0 DUP1 DUP4 SLT DUP1 ISZERO PUSH1 0x1 PUSH1 0xFF SHL DUP6 ADD DUP5 SLT AND ISZERO PUSH2 0x4296 JUMPI PUSH2 0x4296 PUSH2 0x4072 JUMP JUMPDEST DUP4 PUSH1 0x1 PUSH1 0x1 PUSH1 0xFF SHL SUB ADD DUP4 SGT DUP2 AND ISZERO PUSH2 0x42B1 JUMPI PUSH2 0x42B1 PUSH2 0x4072 JUMP JUMPDEST POP POP SUB SWAP1 JUMP JUMPDEST PUSH1 0x0 DUP2 PUSH1 0x0 NOT DIV DUP4 GT DUP3 ISZERO ISZERO AND ISZERO PUSH2 0x42D1 JUMPI PUSH2 0x42D1 PUSH2 0x4072 JUMP JUMPDEST POP MUL SWAP1 JUMP JUMPDEST PUSH1 0x0 PUSH1 0x20 DUP3 DUP5 SUB SLT ISZERO PUSH2 0x42E8 JUMPI PUSH1 0x0 DUP1 REVERT JUMPDEST DUP2 MLOAD PUSH2 0x3ACC DUP2 PUSH2 0x3BF6 JUMP JUMPDEST PUSH1 0x0 PUSH1 0x20 DUP3 DUP5 SUB SLT ISZERO PUSH2 0x4305 JUMPI PUSH1 0x0 DUP1 REVERT JUMPDEST POP MLOAD SWAP2 SWAP1 POP JUMP JUMPDEST PUSH1 0x0 PUSH5 0xFFFFFFFFFF DUP1 DUP4 AND DUP2 DUP6 AND DUP1 DUP4 SUB DUP3 GT ISZERO PUSH2 0x432C JUMPI PUSH2 0x432C PUSH2 0x4072 JUMP JUMPDEST ADD SWAP5 SWAP4 POP POP POP POP JUMP JUMPDEST PUSH1 0x0 PUSH12 0xFFFFFFFFFFFFFFFFFFFFFFFF NOT DUP1 DUP9 PUSH1 0x60 SHL AND DUP4 MSTORE DUP1 DUP8 PUSH1 0x60 SHL AND PUSH1 0x14 DUP5 ADD MSTORE POP PUSH2 0xFFFF PUSH1 0xF0 SHL DUP6 PUSH1 0xF0 SHL AND PUSH1 0x28 DUP4 ADD MSTORE DUP4 MLOAD PUSH2 0x437C DUP2 PUSH1 0x2A DUP6 ADD PUSH1 0x20 DUP9 ADD PUSH2 0x3C56 JUMP JUMPDEST PUSH1 0x2A SWAP3 ADD SWAP2 DUP3 ADD SWAP3 SWAP1 SWAP3 MSTORE PUSH1 0x4A ADD SWAP6 SWAP5 POP POP POP POP POP JUMP JUMPDEST PUSH1 0x0 DUP3 PUSH2 0x43A2 JUMPI PUSH2 0x43A2 PUSH2 0x4159 JUMP JUMPDEST POP MOD SWAP1 JUMP JUMPDEST PUSH1 0x0 PUSH5 0xFFFFFFFFFF DUP1 DUP5 AND DUP1 PUSH2 0x43BF JUMPI PUSH2 0x43BF PUSH2 0x4159 JUMP JUMPDEST SWAP3 AND SWAP2 SWAP1 SWAP2 DIV SWAP3 SWAP2 POP POP JUMP INVALID LOG2 PUSH5 0x6970667358 0x22 SLT KECCAK256 CALLER 0xC9 PUSH9 0xC0676462364AFC1FFA 0xCD EXTCODEHASH 0xBC MSTORE PUSH25 0xAD0A36035AF86ADEAD3BFCCA1D169964736F6C634300080900 CALLER "},"methodIdentifiers":{"addERC20Contract(address)":"ab7e0909","cancelSubscription((bytes32,uint256,address,address,bool,bool,uint8,uint16,string))":"094f9977","changeAdmin(address)":"8f283970","changeFee(uint256)":"6a1db1bf","changeFixedFee(uint256)":"8e83ac4a","changeMaxGasPrice(uint256)":"3816377e","changeMaxRemits(uint256)":"27ea9773","createSubscription(uint256,address,string,uint8,uint16)":"3084f79e","feeEstimate()":"e63d35be","getAccountSubscriptions(bool)":"6605ac0d","getFee()":"ced72f87","remit()":"7507ba39","removeERC20Contract(address)":"053149fa","subscribe((bytes32,uint256,address,address,bool,bool,uint8,uint16,string))":"a429131a","toggleContractActive()":"1385d24c","unixToTime(uint256)":"53a6d6e2","unsubscribe((bytes32,uint256,address,address,bool,bool,uint8,uint16,string))":"fedce940","unsubscribeByProvider((bytes32,uint256,address,address,bool,bool,uint8,uint16,string),address)":"a2349caf"}}}}}