{"contracts/ClockTowerSubscribe.sol":{"ClockTowerSubscribe":{"abi":[{"inputs":[],"stateMutability":"payable","type":"constructor"},{"anonymous":false,"inputs":[{"indexed":false,"internalType":"uint40","name":"timestamp","type":"uint40"},{"indexed":false,"internalType":"uint40","name":"checkedDay","type":"uint40"},{"indexed":true,"internalType":"address","name":"caller","type":"address"},{"indexed":false,"internalType":"bool","name":"isFinished","type":"bool"}],"name":"CallerLog","type":"event"},{"anonymous":false,"inputs":[{"indexed":true,"internalType":"bytes32","name":"id","type":"bytes32"},{"indexed":true,"internalType":"address","name":"provider","type":"address"},{"indexed":false,"internalType":"uint40","name":"timestamp","type":"uint40"},{"indexed":false,"internalType":"bool","name":"success","type":"bool"},{"indexed":false,"internalType":"uint8","name":"errorCode","type":"uint8"},{"indexed":false,"internalType":"enum ClockTowerSubscribe.ProvEvent","name":"provEvent","type":"uint8"}],"name":"ProviderLog","type":"event"},{"anonymous":false,"inputs":[{"indexed":true,"internalType":"bytes32","name":"id","type":"bytes32"},{"indexed":true,"internalType":"address","name":"subscriber","type":"address"},{"indexed":false,"internalType":"uint40","name":"timestamp","type":"uint40"},{"indexed":false,"internalType":"uint256","name":"amount","type":"uint256"},{"indexed":false,"internalType":"enum ClockTowerSubscribe.SubEvent","name":"subEvent","type":"uint8"}],"name":"SubscriberLog","type":"event"},{"stateMutability":"payable","type":"fallback"},{"inputs":[{"internalType":"address","name":"erc20Contract","type":"address"}],"name":"addERC20Contract","outputs":[],"stateMutability":"nonpayable","type":"function"},{"inputs":[{"components":[{"internalType":"bytes32","name":"id","type":"bytes32"},{"internalType":"uint256","name":"amount","type":"uint256"},{"internalType":"address","name":"provider","type":"address"},{"internalType":"address","name":"token","type":"address"},{"internalType":"bool","name":"exists","type":"bool"},{"internalType":"bool","name":"cancelled","type":"bool"},{"internalType":"enum ClockTowerSubscribe.Frequency","name":"frequency","type":"uint8"},{"internalType":"uint16","name":"dueDay","type":"uint16"},{"internalType":"string","name":"description","type":"string"}],"internalType":"struct ClockTowerSubscribe.Subscription","name":"subscription","type":"tuple"}],"name":"cancelSubscription","outputs":[],"stateMutability":"nonpayable","type":"function"},{"inputs":[{"internalType":"address","name":"newAddress","type":"address"}],"name":"changeAdmin","outputs":[],"stateMutability":"nonpayable","type":"function"},{"inputs":[{"internalType":"uint256","name":"_fee","type":"uint256"}],"name":"changeFee","outputs":[],"stateMutability":"nonpayable","type":"function"},{"inputs":[{"internalType":"uint256","name":"_fixed_fee","type":"uint256"}],"name":"changeFixedFee","outputs":[],"stateMutability":"nonpayable","type":"function"},{"inputs":[{"internalType":"uint256","name":"_maxGas","type":"uint256"}],"name":"changeMaxGasPrice","outputs":[],"stateMutability":"nonpayable","type":"function"},{"inputs":[{"internalType":"uint256","name":"_maxRemits","type":"uint256"}],"name":"changeMaxRemits","outputs":[],"stateMutability":"nonpayable","type":"function"},{"inputs":[{"internalType":"uint256","name":"amount","type":"uint256"},{"internalType":"address","name":"token","type":"address"},{"internalType":"string","name":"description","type":"string"},{"internalType":"enum ClockTowerSubscribe.Frequency","name":"frequency","type":"uint8"},{"internalType":"uint16","name":"dueDay","type":"uint16"}],"name":"createSubscription","outputs":[],"stateMutability":"payable","type":"function"},{"inputs":[{"internalType":"bytes32","name":"","type":"bytes32"},{"internalType":"address","name":"","type":"address"}],"name":"feeBalance","outputs":[{"internalType":"uint256","name":"","type":"uint256"}],"stateMutability":"view","type":"function"},{"inputs":[],"name":"feeEstimate","outputs":[{"components":[{"internalType":"uint256","name":"fee","type":"uint256"},{"internalType":"address","name":"token","type":"address"}],"internalType":"struct ClockTowerSubscribe.FeeEstimate[]","name":"","type":"tuple[]"}],"stateMutability":"view","type":"function"},{"inputs":[{"internalType":"bool","name":"bySubscriber","type":"bool"}],"name":"getAccountSubscriptions","outputs":[{"components":[{"components":[{"internalType":"bytes32","name":"id","type":"bytes32"},{"internalType":"uint256","name":"amount","type":"uint256"},{"internalType":"address","name":"provider","type":"address"},{"internalType":"address","name":"token","type":"address"},{"internalType":"bool","name":"exists","type":"bool"},{"internalType":"bool","name":"cancelled","type":"bool"},{"internalType":"enum ClockTowerSubscribe.Frequency","name":"frequency","type":"uint8"},{"internalType":"uint16","name":"dueDay","type":"uint16"},{"internalType":"string","name":"description","type":"string"}],"internalType":"struct ClockTowerSubscribe.Subscription","name":"subscription","type":"tuple"},{"internalType":"enum ClockTowerSubscribe.Status","name":"status","type":"uint8"},{"internalType":"uint256","name":"totalSubscribers","type":"uint256"}],"internalType":"struct ClockTowerSubscribe.SubView[]","name":"","type":"tuple[]"}],"stateMutability":"view","type":"function"},{"inputs":[],"name":"getAllAccounts","outputs":[{"components":[{"internalType":"address","name":"accountAddress","type":"address"},{"internalType":"bool","name":"exists","type":"bool"},{"internalType":"uint40[]","name":"timeTriggers","type":"uint40[]"},{"components":[{"internalType":"bytes32","name":"id","type":"bytes32"},{"internalType":"uint16","name":"dueDay","type":"uint16"},{"internalType":"enum ClockTowerSubscribe.Frequency","name":"frequency","type":"uint8"},{"internalType":"enum ClockTowerSubscribe.Status","name":"status","type":"uint8"}],"internalType":"struct ClockTowerSubscribe.SubIndex[]","name":"subscriptions","type":"tuple[]"},{"components":[{"internalType":"bytes32","name":"id","type":"bytes32"},{"internalType":"uint16","name":"dueDay","type":"uint16"},{"internalType":"enum ClockTowerSubscribe.Frequency","name":"frequency","type":"uint8"},{"internalType":"enum ClockTowerSubscribe.Status","name":"status","type":"uint8"}],"internalType":"struct ClockTowerSubscribe.SubIndex[]","name":"provSubs","type":"tuple[]"}],"internalType":"struct ClockTowerSubscribe.Account[]","name":"","type":"tuple[]"}],"stateMutability":"view","type":"function"},{"inputs":[],"name":"getFee","outputs":[{"internalType":"uint256","name":"","type":"uint256"}],"stateMutability":"view","type":"function"},{"inputs":[{"internalType":"bytes32","name":"id","type":"bytes32"},{"internalType":"enum ClockTowerSubscribe.Frequency","name":"frequency","type":"uint8"},{"internalType":"uint16","name":"dueDay","type":"uint16"}],"name":"getSubByIndex","outputs":[{"components":[{"internalType":"bytes32","name":"id","type":"bytes32"},{"internalType":"uint256","name":"amount","type":"uint256"},{"internalType":"address","name":"provider","type":"address"},{"internalType":"address","name":"token","type":"address"},{"internalType":"bool","name":"exists","type":"bool"},{"internalType":"bool","name":"cancelled","type":"bool"},{"internalType":"enum ClockTowerSubscribe.Frequency","name":"frequency","type":"uint8"},{"internalType":"uint16","name":"dueDay","type":"uint16"},{"internalType":"string","name":"description","type":"string"}],"internalType":"struct ClockTowerSubscribe.Subscription","name":"subscription","type":"tuple"}],"stateMutability":"view","type":"function"},{"inputs":[{"internalType":"bytes32","name":"id","type":"bytes32"}],"name":"getSubscribers","outputs":[{"internalType":"address[]","name":"","type":"address[]"}],"stateMutability":"view","type":"function"},{"inputs":[{"internalType":"bool","name":"bySubscriber","type":"bool"},{"internalType":"address","name":"account","type":"address"}],"name":"getSubscriptionsByAccount","outputs":[{"components":[{"components":[{"internalType":"bytes32","name":"id","type":"bytes32"},{"internalType":"uint256","name":"amount","type":"uint256"},{"internalType":"address","name":"provider","type":"address"},{"internalType":"address","name":"token","type":"address"},{"internalType":"bool","name":"exists","type":"bool"},{"internalType":"bool","name":"cancelled","type":"bool"},{"internalType":"enum ClockTowerSubscribe.Frequency","name":"frequency","type":"uint8"},{"internalType":"uint16","name":"dueDay","type":"uint16"},{"internalType":"string","name":"description","type":"string"}],"internalType":"struct ClockTowerSubscribe.Subscription","name":"subscription","type":"tuple"},{"internalType":"enum ClockTowerSubscribe.Status","name":"status","type":"uint8"},{"internalType":"uint256","name":"totalSubscribers","type":"uint256"}],"internalType":"struct ClockTowerSubscribe.SubView[]","name":"","type":"tuple[]"}],"stateMutability":"view","type":"function"},{"inputs":[],"name":"remit","outputs":[],"stateMutability":"nonpayable","type":"function"},{"inputs":[{"internalType":"address","name":"erc20Contract","type":"address"}],"name":"removeERC20Contract","outputs":[],"stateMutability":"nonpayable","type":"function"},{"inputs":[{"components":[{"internalType":"bytes32","name":"id","type":"bytes32"},{"internalType":"uint256","name":"amount","type":"uint256"},{"internalType":"address","name":"provider","type":"address"},{"internalType":"address","name":"token","type":"address"},{"internalType":"bool","name":"exists","type":"bool"},{"internalType":"bool","name":"cancelled","type":"bool"},{"internalType":"enum ClockTowerSubscribe.Frequency","name":"frequency","type":"uint8"},{"internalType":"uint16","name":"dueDay","type":"uint16"},{"internalType":"string","name":"description","type":"string"}],"internalType":"struct ClockTowerSubscribe.Subscription","name":"subscription","type":"tuple"}],"name":"subscribe","outputs":[],"stateMutability":"payable","type":"function"},{"inputs":[],"name":"toggleContractActive","outputs":[],"stateMutability":"nonpayable","type":"function"},{"inputs":[{"internalType":"uint256","name":"unix","type":"uint256"}],"name":"unixToTime","outputs":[{"components":[{"internalType":"uint16","name":"day","type":"uint16"},{"internalType":"uint16","name":"weekDay","type":"uint16"},{"internalType":"uint16","name":"quarterDay","type":"uint16"},{"internalType":"uint16","name":"yearDay","type":"uint16"}],"internalType":"struct ClockTowerSubscribe.Time","name":"time","type":"tuple"}],"stateMutability":"pure","type":"function"},{"inputs":[{"components":[{"internalType":"bytes32","name":"id","type":"bytes32"},{"internalType":"uint256","name":"amount","type":"uint256"},{"internalType":"address","name":"provider","type":"address"},{"internalType":"address","name":"token","type":"address"},{"internalType":"bool","name":"exists","type":"bool"},{"internalType":"bool","name":"cancelled","type":"bool"},{"internalType":"enum ClockTowerSubscribe.Frequency","name":"frequency","type":"uint8"},{"internalType":"uint16","name":"dueDay","type":"uint16"},{"internalType":"string","name":"description","type":"string"}],"internalType":"struct ClockTowerSubscribe.Subscription","name":"subscription","type":"tuple"}],"name":"unsubscribe","outputs":[],"stateMutability":"payable","type":"function"},{"inputs":[{"components":[{"internalType":"bytes32","name":"id","type":"bytes32"},{"internalType":"uint256","name":"amount","type":"uint256"},{"internalType":"address","name":"provider","type":"address"},{"internalType":"address","name":"token","type":"address"},{"internalType":"bool","name":"exists","type":"bool"},{"internalType":"bool","name":"cancelled","type":"bool"},{"internalType":"enum ClockTowerSubscribe.Frequency","name":"frequency","type":"uint8"},{"internalType":"uint16","name":"dueDay","type":"uint16"},{"internalType":"string","name":"description","type":"string"}],"internalType":"struct ClockTowerSubscribe.Subscription","name":"subscription","type":"tuple"},{"internalType":"address","name":"subscriber","type":"address"}],"name":"unsubscribeByProvider","outputs":[],"stateMutability":"nonpayable","type":"function"},{"stateMutability":"payable","type":"receive"}],"evm":{"bytecode":{"linkReferences":{},"object":"6080604052600080546001600160a01b03191673f39fd6e51aad88f6f4ce6ab8827279cfffb922661790556127d86001908155662386f26fc10000600255640ba43b740060035560056004556009805460ff19169055620000604262000094565b6200006c9190620000ab565b600960016101000a81548164ffffffffff021916908364ffffffffff16021790555062000113565b6000620000a56201518083620000e0565b92915050565b600064ffffffffff83811690831681811015620000d857634e487b7160e01b600052601160045260246000fd5b039392505050565b600064ffffffffff808416806200010757634e487b7160e01b600052601260045260246000fd5b92169190910492915050565b61586c80620001236000396000f3fe60806040526004361061015f5760003560e01c80637507ba39116100ca578063ab7e090911610079578063e63d35be11610056578063e63d35be14610427578063ebec6eaa14610449578063fedce9401461048157005b8063ab7e0909146103bb578063bfa0caa7146103db578063ced72f871461040857005b8063a2349caf116100a7578063a2349caf14610368578063a429131a14610388578063a5af2abd1461039b57005b80637507ba39146103135780638e83ac4a146103285780638f2839701461034857005b80632d23f7e71161012657806353a6d6e21161010357806353a6d6e2146102685780636605ac0d146102c65780636a1db1bf146102f357005b80632d23f7e7146102085780633084f79e146102355780633816377e1461024857005b8063053149fa1461016857806308e93d0a14610188578063094f9977146101b35780631385d24c146101d357806327ea9773146101e857005b3661016657005b005b34801561017457600080fd5b50610166610183366004614c26565b610494565b34801561019457600080fd5b5061019d61067c565b6040516101aa9190614cff565b60405180910390f35b3480156101bf57600080fd5b506101666101ce366004614df2565b610a45565b3480156101df57600080fd5b50610166611361565b3480156101f457600080fd5b50610166610203366004614e2e565b61137d565b34801561021457600080fd5b50610228610223366004614e68565b61138a565b6040516101aa9190614fb4565b610166610243366004614fc7565b611611565b34801561025457600080fd5b50610166610263366004614e2e565b611b80565b34801561027457600080fd5b50610288610283366004614e2e565b611b8d565b6040516101aa9190815161ffff9081168252602080840151821690830152604080840151821690830152606092830151169181019190915260800190565b3480156102d257600080fd5b506102e66102e136600461508d565b611def565b6040516101aa91906150aa565b3480156102ff57600080fd5b5061016661030e366004614e2e565b6121f0565b34801561031f57600080fd5b506101666121fd565b34801561033457600080fd5b50610166610343366004614e2e565b612cc3565b34801561035457600080fd5b50610166610363366004614c26565b612cd0565b34801561037457600080fd5b506101666103833660046152c6565b612d23565b610166610396366004614df2565b613037565b3480156103a757600080fd5b506102e66103b6366004615314565b613820565b3480156103c757600080fd5b506101666103d6366004614c26565b613bf2565b3480156103e757600080fd5b506103fb6103f6366004614e2e565b613c99565b6040516101aa9190615340565b34801561041457600080fd5b506001545b6040519081526020016101aa565b34801561043357600080fd5b5061043c613d05565b6040516101aa919061538d565b34801561045557600080fd5b506104196104643660046153e5565b600c60209081526000928352604080842090915290825290205481565b61016661048f366004615408565b614100565b61049c614377565b6001600160a01b0381166104af57600080fd5b6104b8816143b6565b6104ed5760405162461bcd60e51b81526020600482015260016024820152601960f91b60448201526064015b60405180910390fd5b6000600880548060200260200160405190810160405280929190818152602001828054801561054557602002820191906000526020600020905b81546001600160a01b03168152600190910190602001808311610527575b505050505090506000805b82518110156105a657836001600160a01b03168382815181106105755761057561543d565b60200260200101516001600160a01b03161415610594578091506105a6565b8061059e81615469565b915050610550565b50805b6008546105b890600190615484565b8110156106435760086105cc82600161549b565b815481106105dc576105dc61543d565b600091825260209091200154600880546001600160a01b0390921691839081106106085761060861543d565b600091825260209091200180546001600160a01b0319166001600160a01b03929092169190911790558061063b81615469565b9150506105a9565b506008805480610655576106556154b3565b600082815260209020810160001990810180546001600160a01b0319169055019055505050565b6060610686614377565b6000600b8054806020026020016040519081016040528092919081815260200182805480156106de57602002820191906000526020600020905b81546001600160a01b031681526001909101906020018083116106c0575b505050505090506000815167ffffffffffffffff81111561070157610701615134565b60405190808252806020026020018201604052801561075c57816020015b6040805160a081018252600080825260208201526060918101829052818101829052608081019190915281526020019060019003908161071f5790505b50905060005b8251811015610a3e57600a60008483815181106107815761078161543d565b6020908102919091018101516001600160a01b039081168352828201939093526040918201600020825160a08101845281549485168152600160a01b90940460ff161515848301526001810180548451818502810185018652818152929486019383018282801561083f57602002820191906000526020600020906000905b82829054906101000a900464ffffffffff1664ffffffffff16815260200190600501906020826004010492830192600103820291508084116108005790505b5050505050815260200160028201805480602002602001604051908101604052809291908181526020016000905b82821015610923576000848152602090819020604080516080810182526002860290920180548352600181015461ffff81169484019490945291929083019062010000900460ff1660038111156108c6576108c6614c48565b60038111156108d7576108d7614c48565b81526020016001820160039054906101000a900460ff1660028111156108ff576108ff614c48565b600281111561091057610910614c48565b815250508152602001906001019061086d565b50505050815260200160038201805480602002602001604051908101604052809291908181526020016000905b82821015610a06576000848152602090819020604080516080810182526002860290920180548352600181015461ffff81169484019490945291929083019062010000900460ff1660038111156109a9576109a9614c48565b60038111156109ba576109ba614c48565b81526020016001820160039054906101000a900460ff1660028111156109e2576109e2614c48565b60028111156109f3576109f3614c48565b8152505081526020019060010190610950565b5050505081525050828281518110610a2057610a2061543d565b60200260200101819052508080610a3690615469565b915050610762565b5091505090565b610a4d614477565b610a7a8135610a63610100840160e085016154c9565b610a7360e0850160c086016154e4565b60006144a8565b610aaa5760405162461bcd60e51b81526020600482015260016024820152603760f81b60448201526064016104e4565b610aba6060820160408301614c26565b6001600160a01b0316336001600160a01b031614610aff5760405162461bcd60e51b8152602060048201526002602482015261323360f01b60448201526064016104e4565b336000908152600a6020908152604080832060030180548251818502810185019093528083529192909190849084015b82821015610be5576000848152602090819020604080516080810182526002860290920180548352600181015461ffff81169484019490945291929083019062010000900460ff166003811115610b8857610b88614c48565b6003811115610b9957610b99614c48565b81526020016001820160039054906101000a900460ff166002811115610bc157610bc1614c48565b6002811115610bd257610bd2614c48565b8152505081526020019060010190610b2f565b50505050905060005b336000908152600a6020526040902060030154811015610ca3578260000135828281518110610c1f57610c1f61543d565b6020026020010151600001511415610c9157336000908152600a6020526040902060030180546001919083908110610c5957610c5961543d565b906000526020600020906002020160010160036101000a81548160ff02191690836002811115610c8b57610c8b614c48565b02179055505b80610c9b81615469565b915050610bee565b5081356000908152600e6020908152604080832080548251818502810185019093528083529192909190830182828015610d0657602002820191906000526020600020905b81546001600160a01b03168152600190910190602001808311610ce8575b5050505050905060005b8151811015611044576000600a6000848481518110610d3157610d3161543d565b60200260200101516001600160a01b03166001600160a01b031681526020019081526020016000206002018054905067ffffffffffffffff811115610d7857610d78615134565b604051908082528060200260200182016040528015610dd357816020015b610dc060408051608081018252600080825260208201819052909182019081526020016000905290565b815260200190600190039081610d965790505b509050600a6000848481518110610dec57610dec61543d565b60200260200101516001600160a01b03166001600160a01b03168152602001908152602001600020600201805480602002602001604051908101604052809291908181526020016000905b82821015610eed576000848152602090819020604080516080810182526002860290920180548352600181015461ffff81169484019490945291929083019062010000900460ff166003811115610e9057610e90614c48565b6003811115610ea157610ea1614c48565b81526020016001820160039054906101000a900460ff166002811115610ec957610ec9614c48565b6002811115610eda57610eda614c48565b8152505081526020019060010190610e37565b50505050905060005b600a6000858581518110610f0c57610f0c61543d565b60200260200101516001600160a01b03166001600160a01b0316815260200190815260200160002060020180549050811015611009578560000135828281518110610f5957610f5961543d565b6020026020010151600001511415610ff7576001600a6000868681518110610f8357610f8361543d565b60200260200101516001600160a01b03166001600160a01b031681526020019081526020016000206002018281548110610fbf57610fbf61543d565b906000526020600020906002020160010160036101000a81548160ff02191690836002811115610ff157610ff1614c48565b02179055505b8061100181615469565b915050610ef6565b5061103185600001358484815181106110245761102461543d565b6020026020010151614533565b508061103c81615469565b915050610d10565b506000600d8161105a60e0870160c088016154e4565b600381111561106b5761106b614c48565b815260200190815260200160002060008560e001602081019061108e91906154c9565b61ffff1661ffff168152602001908152602001600020805480602002602001604051908101604052809291908181526020016000905b8282101561122e5760008481526020908190206040805161012081018252600586029092018054835260018101549383019390935260028301546001600160a01b0390811691830191909152600380840154918216606084015260ff600160a01b8304811615156080850152600160a81b83048116151560a085015292939260c0850192600160b01b9004169081111561116057611160614c48565b600381111561117157611171614c48565b81526003820154600160b81b900461ffff16602082015260048201805460409092019161119d906154ff565b80601f01602080910402602001604051908101604052809291908181526020018280546111c9906154ff565b80156112165780601f106111eb57610100808354040283529160200191611216565b820191906000526020600020905b8154815290600101906020018083116111f957829003601f168201915b505050505081525050815260200190600101906110c4565b50505050905060005b81518110156113155784600001358282815181106112575761125761543d565b6020026020010151600001511415611303576001600d600061127f60e0890160c08a016154e4565b600381111561129057611290614c48565b815260200190815260200160002060008760e00160208101906112b391906154c9565b61ffff1661ffff16815260200190815260200160002082815481106112da576112da61543d565b906000526020600020906005020160030160156101000a81548160ff0219169083151502179055505b8061130d81615469565b915050611237565b5060405133908535907fb2c608416221878976ddfef731ff33921ea021e89aa0db861bb162a67c8428cf90611353904290600190600090829061553a565b60405180910390a350505050565b611369614377565b6009805460ff19811660ff90911615179055565b611385614377565b600455565b6113d96040805161012081018252600080825260208201819052918101829052606081018290526080810182905260a081018290529060c0820190815260006020820152606060409091015290565b6000600d60008560038111156113f1576113f1614c48565b815260200190815260200160002060008461ffff1661ffff168152602001908152602001600020805480602002602001604051908101604052809291908181526020016000905b828210156115a25760008481526020908190206040805161012081018252600586029092018054835260018101549383019390935260028301546001600160a01b0390811691830191909152600380840154918216606084015260ff600160a01b8304811615156080850152600160a81b83048116151560a085015292939260c0850192600160b01b900416908111156114d4576114d4614c48565b60038111156114e5576114e5614c48565b81526003820154600160b81b900461ffff166020820152600482018054604090920191611511906154ff565b80601f016020809104026020016040519081016040528092919081815260200182805461153d906154ff565b801561158a5780601f1061155f5761010080835404028352916020019161158a565b820191906000526020600020905b81548152906001019060200180831161156d57829003601f168201915b50505050508152505081526020019060010190611438565b50505050905060005b815181101561160857858282815181106115c7576115c761543d565b60200260200101516000015114156115f6578181815181106115eb576115eb61543d565b602002602001015192505b8061160081615469565b9150506115ab565b50509392505050565b611619614477565b6001600160a01b0385166116535760405162461bcd60e51b81526020600482015260016024820152600760fb1b60448201526064016104e4565b3460025411156116895760405162461bcd60e51b81526020600482015260016024820152603560f81b60448201526064016104e4565b611692856143b6565b6116c25760405162461bcd60e51b81526020600482015260016024820152603960f81b60448201526064016104e4565b600086116116f75760405162461bcd60e51b8152602060048201526002602482015261031360f41b60448201526064016104e4565b60208311156117485760405162461bcd60e51b815260206004820152601a60248201527f537472696e67206d757374206265203c3d20333220627974657300000000000060448201526064016104e4565b600082600381111561175c5761175c614c48565b14156117c7578061ffff16600010801561177b575060078161ffff1611155b6117c75760405162461bcd60e51b815260206004820152601760248201527f4d757374206265206265747765656e203120616e64203700000000000000000060448201526064016104e4565b60018260038111156117db576117db614c48565b1415611846578061ffff1660001080156117fa5750601c8161ffff1611155b6118465760405162461bcd60e51b815260206004820152601b60248201527f4d757374757374206265206265747765656e203120616e64203238000000000060448201526064016104e4565b600282600381111561185a5761185a614c48565b14156118c5578061ffff1660001080156118795750605a8161ffff1611155b6118c55760405162461bcd60e51b815260206004820152601860248201527f4d757374206265206265747765656e203120616e64203930000000000000000060448201526064016104e4565b60038260038111156118d9576118d9614c48565b1415611945578061ffff1660001080156118f9575061016d8161ffff1611155b6119455760405162461bcd60e51b815260206004820152601960248201527f4d757374206265206265747765656e203120616e64203336350000000000000060448201526064016104e4565b600061198c878787878080601f0160208091040260200160405190810160405280939291908181526020018383808284376000920191909152508992508891506146809050565b905080600d60008560038111156119a5576119a5614c48565b81526020808201929092526040908101600090812061ffff87168252835281812080546001818101835591835291849020855160059093020191825592840151928101929092558201516002820180546001600160a01b039283166001600160a01b0319909116179055606083015160038084018054608087015160a08801511515600160a81b0260ff60a81b19911515600160a01b0274ffffffffffffffffffffffffffffffffffffffffff199093169590961694909417179283168417815560c086015193909260ff60b01b1990911661ffff60a81b199091161790600160b01b908490811115611a9a57611a9a614c48565b021790555060e082015160038201805461ffff909216600160b81b0261ffff60b81b199092169190911790556101008201518051611ae2916004840191602090910190614b71565b50905050611b326040518060800160405280836000015181526020018360e0015161ffff1681526020018360c001516003811115611b2257611b22614c48565b815260200160009052600161476e565b80516040513391907fb2c608416221878976ddfef731ff33921ea021e89aa0db861bb162a67c8428cf90611b6f904290600190600090819061553a565b60405180910390a350505050505050565b611b88614377565b600355565b604080516080810182526000808252602082018190529181018290526060810182905290611bbe6201518084615587565b90506000808281611bd28262010bd961559b565b611bdf9062253d8c61559b565b9050600062023ab1611bf28360046155db565b611bfc9190615662565b90506004611c0d8262023ab16155db565b611c1890600361559b565b611c229190615662565b611c2c9083615690565b9150600062164b09611c3f84600161559b565b611c4b90610fa06155db565b611c559190615662565b90506004611c65826105b56155db565b611c6f9190615662565b611c799084615690565b611c8490601f61559b565b9250600061098f611c968560506155db565b611ca09190615662565b905060006050611cb28361098f6155db565b611cbc9190615662565b611cc69086615690565b9050611cd3600b83615662565b9450611ce085600c6155db565b611ceb83600261559b565b611cf59190615690565b91508483611d04603187615690565b611d0f9060646155db565b611d19919061559b565b611d23919061559b565b909750915086828282600060015b838111611d7e5783811415611d5557611d4e61ffff8e168361549b565b9150611d6c565b611d5f8585614921565b611d69908361549b565b91505b80611d7681615469565b915050611d31565b50809a50611d908b61ffff16856149a7565b61ffff1660408f0152611da28f614a75565b8e6020019061ffff16908161ffff16815250508b8e6000019061ffff16908161ffff16815250508a8e6060019061ffff16908161ffff168152505050505050505050505050505050919050565b6060808215611ee657336000908152600a6020908152604080832060020180548251818502810185019093528083529193909284015b82821015611edb576000848152602090819020604080516080810182526002860290920180548352600181015461ffff81169484019490945291929083019062010000900460ff166003811115611e7e57611e7e614c48565b6003811115611e8f57611e8f614c48565b81526020016001820160039054906101000a900460ff166002811115611eb757611eb7614c48565b6002811115611ec857611ec8614c48565b8152505081526020019060010190611e25565b505050509050611fd0565b336000908152600a6020908152604080832060030180548251818502810185019093528083529193909284015b82821015611fc9576000848152602090819020604080516080810182526002860290920180548352600181015461ffff81169484019490945291929083019062010000900460ff166003811115611f6c57611f6c614c48565b6003811115611f7d57611f7d614c48565b81526020016001820160039054906101000a900460ff166002811115611fa557611fa5614c48565b6002811115611fb657611fb6614c48565b8152505081526020019060010190611f13565b5050505090505b6000815167ffffffffffffffff811115611fec57611fec615134565b60405190808252806020026020018201604052801561208757816020015b612074604080516101808101909152600060608083018281526080840183905260a0840183905260c0840183905260e08401839052610100840183905261012084018390526101408401929092526101608301528190815260200160008152602001600081525090565b81526020019060019003908161200a5790505b50905060005b82518110156121e8576120f88382815181106120ab576120ab61543d565b6020026020010151600001518483815181106120c9576120c961543d565b6020026020010151604001518584815181106120e7576120e761543d565b60200260200101516020015161138a565b82828151811061210a5761210a61543d565b60200260200101516000018190525082818151811061212b5761212b61543d565b6020026020010151606001518282815181106121495761214961543d565b602002602001015160200190600281111561216657612166614c48565b9081600281111561217957612179614c48565b81525050600e60008383815181106121935761219361543d565b602002602001015160000151600001518152602001908152602001600020805490508282815181106121c7576121c761543d565b602090810291909101015160400152806121e081615469565b91505061208d565b509392505050565b6121f8614377565b600155565b612205614377565b6003543a1061224b5760405162461bcd60e51b815260206004820152601260248201527108ec2e640e0e4d2c6ca40e8dede40d0d2ced60731b60448201526064016104e4565b600061225642614aab565b60095490915064ffffffffff61010090910481169082161161229f5760405162461bcd60e51b81526020600482015260026024820152610c4d60f21b60448201526064016104e4565b60006122aa42611b8d565b90506000805b60038111612c10576000816122c6575060208301515b60018214156122d3575082515b60028214156122e3575060408301515b60038214156122f3575060608301515b6000828152600d6020908152604080832061ffff85168452909152812054905b81811015612bfa576000848152600d6020908152604080832061ffff87168452909152902080548290811061234a5761234a61543d565b906000526020600020906005020160030160159054906101000a900460ff16612be8576000848152600d6020908152604080832061ffff87168452909152812080548390811061239c5761239c61543d565b60009182526020808320600590920290910154878352600d8252604080842061ffff89168552909252908220805491935090849081106123de576123de61543d565b6000918252602080832060036005909302019190910154888352600d8252604080842061ffff8a16855290925290822080546001600160a01b039092169350908590811061242e5761242e61543d565b6000918252602080832060016005909302019190910154898352600d8252604080842061ffff8b168552909252908220805491935090869081106124745761247461543d565b600091825260208220600260059092020101546001546001600160a01b0390911692508390612710906124a790836156cf565b6124b19190615587565b6124bb9190615484565b90506000805b6000878152600e6020526040902054811015612be0576004548c141561261c57604080518082018252888152602001829052600588905560068290556007805460ff191690555163a9059cbb60e01b8152336004820152602481018390526001600160a01b0387169063a9059cbb90604401602060405180830381600087803b15801561254d57600080fd5b505af1158015612561573d6000803e3d6000fd5b505050506040513d601f19601f8201168201806040525081019061258591906156ee565b6125b65760405162461bcd60e51b8152602060048201526002602482015261191960f11b60448201526064016104e4565b6009546040805164ffffffffff428116825261010090930492909216602083015260009082015233907f90192d7875364a53e351ae63fd2dfef8dc941735b29fb0c504d06a0e21ae602e9060600160405180910390a25050505050505050505050505050565b6005548714801561262e575060065481145b15612641576007805460ff191660011790555b6005541580612657575060075460ff1615156001145b15612bce576000878152600e6020526040812080548390811061267c5761267c61543d565b600091825260209091200154604051636eb1769f60e11b81526001600160a01b03918216600482018190523060248301529250879189169063dd62ed3e90604401602060405180830381600087803b1580156126d757600080fd5b505af11580156126eb573d6000803e3d6000fd5b505050506040513d601f19601f8201168201806040525081019061270f919061570b565b1015801561279857506040516370a0823160e01b81526001600160a01b0382811660048301528791908916906370a0823190602401602060405180830381600087803b15801561275e57600080fd5b505af1158015612772573d6000803e3d6000fd5b505050506040513d601f19601f82011682018060405250810190612796919061570b565b115b156129e4578c6127a781615469565b9d506127b59050848461549b565b6000898152600c602090815260408083206001600160a01b038616845290915290205490935084101561293d576000888152600c602090815260408083206001600160a01b038516845290915281208054869290612814908490615484565b92505081905550806001600160a01b0316886000805160206158178339815191524289600060405161284893929190615724565b60405180910390a3846001600160a01b0316887fb2c608416221878976ddfef731ff33921ea021e89aa0db861bb162a67c8428cf42600160006002604051612893949392919061553a565b60405180910390a36128a48d614aba565b6040516323b872dd60e01b81526001600160a01b0382811660048301528681166024830152604482018890528816906323b872dd906064015b602060405180830381600087803b1580156128f757600080fd5b505af115801561290b573d6000803e3d6000fd5b505050506040513d601f19601f8201168201806040525081019061292f91906156ee565b61293857600080fd5b612af9565b806001600160a01b0316886000805160206158178339815191524289600460405161296a93929190615724565b60405180910390a36000888152600c602090815260408083206001600160a01b0385168452909152812080548892906129a490849061549b565b90915550506040516323b872dd60e01b81526001600160a01b038281166004830152306024830152604482018890528816906323b872dd906064016128dd565b8c6129ee81615469565b9d506129fc9050848461549b565b6000898152600c602090815260408083206001600160a01b0386168452909152812080549295508692909190612a33908490615484565b90915550612a4390508882614533565b336001600160a01b03168860008051602061581783398151915242896003604051612a7093929190615724565b60405180910390a3806001600160a01b03168860008051602061581783398151915242896001604051612aa593929190615724565b60405180910390a3846001600160a01b0316887fb2c608416221878976ddfef731ff33921ea021e89aa0db861bb162a67c8428cf42600160006003604051612af0949392919061553a565b60405180910390a35b6000888152600e6020526040902054612b1490600190615484565b821415612bcc5760405163a9059cbb60e01b8152336004820152602481018490526001600160a01b0388169063a9059cbb90604401602060405180830381600087803b158015612b6357600080fd5b505af1158015612b77573d6000803e3d6000fd5b505050506040513d601f19601f82011682018060405250810190612b9b91906156ee565b612bcc5760405162461bcd60e51b8152602060048201526002602482015261191960f11b60448201526064016104e4565b505b80612bd881615469565b9150506124c1565b505050505050505b80612bf281615469565b915050612313565b5050508080612c0890615469565b9150506122b0565b50600060058190556006556007805460ff191690556009546040805164ffffffffff4281168252610100909304909216602083015260019082015233907f90192d7875364a53e351ae63fd2dfef8dc941735b29fb0c504d06a0e21ae602e9060600160405180910390a26001600960018282829054906101000a900464ffffffffff16612c9d9190615757565b92506101000a81548164ffffffffff021916908364ffffffffff1602179055505050505b565b612ccb614377565b600255565b612cd8614377565b336001600160a01b038216148015612cf857506001600160a01b03811615155b612d0157600080fd5b600080546001600160a01b0319166001600160a01b0392909216919091179055565b612d2b614477565b336000908152600a6020908152604080832060030180548251818502810185019093528083529192909190849084015b82821015612e11576000848152602090819020604080516080810182526002860290920180548352600181015461ffff81169484019490945291929083019062010000900460ff166003811115612db457612db4614c48565b6003811115612dc557612dc5614c48565b81526020016001820160039054906101000a900460ff166002811115612ded57612ded614c48565b6002811115612dfe57612dfe614c48565b8152505081526020019060010190612d5b565b5050505090506000805b8251811015612e64578460000151838281518110612e3b57612e3b61543d565b6020026020010151600001511415612e5257600191505b80612e5c81615469565b915050612e1b565b5080612e975760405162461bcd60e51b8152602060048201526002602482015261062760f31b60448201526064016104e4565b83516000908152600e6020908152604080832080548251818502810185019093528083529192909190830182828015612ef957602002820191906000526020600020905b81546001600160a01b03168152600190910190602001808311612edb575b505050505090506000805b8251811015612fbd57856001600160a01b0316838281518110612f2957612f2961543d565b60200260200101516001600160a01b03161415612fab576001600160a01b0386166000908152600a60205260409020600290810180546001945083908110612f7357612f7361543d565b906000526020600020906002020160010160036101000a81548160ff02191690836002811115612fa557612fa5614c48565b02179055505b80612fb581615469565b915050612f04565b5080612ff05760405162461bcd60e51b8152602060048201526002602482015261313960f01b60448201526064016104e4565b8551612ffc9086614533565b8551602087015160405133929160008051602061581783398151915291613027914291600390615724565b60405180910390a3505050505050565b61303f614477565b60208101356130546080830160608401614c26565b604051636eb1769f60e11b81523360048201523060248201526001600160a01b03919091169063dd62ed3e90604401602060405180830381600087803b15801561309d57600080fd5b505af11580156130b1573d6000803e3d6000fd5b505050506040513d601f19601f820116820180604052508101906130d5919061570b565b10158015613171575060208101356130f36080830160608401614c26565b6040516370a0823160e01b81523360048201526001600160a01b0391909116906370a0823190602401602060405180830381600087803b15801561313657600080fd5b505af115801561314a573d6000803e3d6000fd5b505050506040513d601f19601f8201168201806040525081019061316e919061570b565b10155b6131a25760405162461bcd60e51b8152602060048201526002602482015261032360f41b60448201526064016104e4565b6131b88135610a63610100840160e085016154c9565b6131e85760405162461bcd60e51b81526020600482015260016024820152603760f81b60448201526064016104e4565b80356000818152600e6020908152604080832080546001810182559084529282902090920180546001600160a01b0319163317905581516080810190925291815261327a918101613240610100850160e086016154c9565b61ffff16815260200161325960e0850160c086016154e4565b600381111561326a5761326a614c48565b815260200160009052600061476e565b600161328c60e0830160c084016154e4565b600381111561329d5761329d614c48565b14806132c9575060006132b660e0830160c084016154e4565b60038111156132c7576132c7614c48565b145b156134105780356000908152600c60209081526040808320338452825282208054918401359290916132fc90849061549b565b909155505060405133908235906000805160206158178339815191529061332d904290602087013590600290615724565b60405180910390a3604051339082359060008051602061581783398151915290613361904290602087013590600490615724565b60405180910390a36133796080820160608301614c26565b6040516323b872dd60e01b8152336004820152306024820152602083013560448201526001600160a01b0391909116906323b872dd90606401602060405180830381600087803b1580156133cc57600080fd5b505af11580156133e0573d6000803e3d6000fd5b505050506040513d601f19601f8201168201806040525081019061340491906156ee565b61340d57600080fd5b50565b600261342260e0830160c084016154e4565b600381111561343357613433614c48565b141561366e57600061344a60036020840135615587565b82356000908152600c6020908152604080832033845290915281208054929350839290919061347a90849061549b565b90915550506040513390833590600080516020615817833981519152906134ab904290602088013590600290615724565b60405180910390a36040513390833590600080516020615817833981519152906134df904290602088013590600490615724565b60405180910390a36134f76080830160608401614c26565b6040516323b872dd60e01b8152336004820152306024820152604481018390526001600160a01b0391909116906323b872dd90606401602060405180830381600087803b15801561354757600080fd5b505af115801561355b573d6000803e3d6000fd5b505050506040513d601f19601f8201168201806040525081019061357f91906156ee565b61358857600080fd5b6135986080830160608401614c26565b6001600160a01b03166323b872dd336135b76060860160408701614c26565b6135c28560026156cf565b6040517fffffffff0000000000000000000000000000000000000000000000000000000060e086901b1681526001600160a01b0393841660048201529290911660248301526044820152606401602060405180830381600087803b15801561362957600080fd5b505af115801561363d573d6000803e3d6000fd5b505050506040513d601f19601f8201168201806040525081019061366191906156ee565b61366a57600080fd5b5050565b600361368060e0830160c084016154e4565b600381111561369157613691614c48565b141561340d5760006136a8600c6020840135615587565b82356000908152600c602090815260408083203384529091528120805492935083929091906136d890849061549b565b9091555050604051339083359060008051602061581783398151915290613709904290602088013590600290615724565b60405180910390a360405133908335906000805160206158178339815191529061373d904290602088013590600490615724565b60405180910390a36137556080830160608401614c26565b6040516323b872dd60e01b8152336004820152306024820152604481018390526001600160a01b0391909116906323b872dd90606401602060405180830381600087803b1580156137a557600080fd5b505af11580156137b9573d6000803e3d6000fd5b505050506040513d601f19601f820116820180604052508101906137dd91906156ee565b6137e657600080fd5b6137f66080830160608401614c26565b6001600160a01b03166323b872dd336138156060860160408701614c26565b6135c285600b6156cf565b606061382a614377565b60608315613929576001600160a01b0383166000908152600a6020908152604080832060020180548251818502810185019093528083529193909284015b8282101561391e576000848152602090819020604080516080810182526002860290920180548352600181015461ffff81169484019490945291929083019062010000900460ff1660038111156138c1576138c1614c48565b60038111156138d2576138d2614c48565b81526020016001820160039054906101000a900460ff1660028111156138fa576138fa614c48565b600281111561390b5761390b614c48565b8152505081526020019060010190613868565b505050509050613a1c565b6001600160a01b0383166000908152600a6020908152604080832060030180548251818502810185019093528083529193909284015b82821015613a15576000848152602090819020604080516080810182526002860290920180548352600181015461ffff81169484019490945291929083019062010000900460ff1660038111156139b8576139b8614c48565b60038111156139c9576139c9614c48565b81526020016001820160039054906101000a900460ff1660028111156139f1576139f1614c48565b6002811115613a0257613a02614c48565b815250508152602001906001019061395f565b5050505090505b6000815167ffffffffffffffff811115613a3857613a38615134565b604051908082528060200260200182016040528015613ad357816020015b613ac0604080516101808101909152600060608083018281526080840183905260a0840183905260c0840183905260e08401839052610100840183905261012084018390526101408401929092526101608301528190815260200160008152602001600081525090565b815260200190600190039081613a565790505b50905060005b8251811015613be757613af78382815181106120ab576120ab61543d565b828281518110613b0957613b0961543d565b602002602001015160000181905250828181518110613b2a57613b2a61543d565b602002602001015160600151828281518110613b4857613b4861543d565b6020026020010151602001906002811115613b6557613b65614c48565b90816002811115613b7857613b78614c48565b81525050600e6000838381518110613b9257613b9261543d565b60200260200101516000015160000151815260200190815260200160002080549050828281518110613bc657613bc661543d565b60209081029190910101516040015280613bdf81615469565b915050613ad9565b509150505b92915050565b613bfa614377565b6001600160a01b038116613c0d57600080fd5b613c16816143b6565b15613c475760405162461bcd60e51b81526020600482015260016024820152603160f81b60448201526064016104e4565b600880546001810182556000919091527ff3f7a9fe364faab93b216da50a3214154f22a0a2b415b23a84c8169e8b636ee30180546001600160a01b0319166001600160a01b0392909216919091179055565b6000818152600e6020908152604091829020805483518184028101840190945280845260609392830182828015613cf957602002820191906000526020600020905b81546001600160a01b03168152600190910190602001808311613cdb575b50505050509050919050565b60606003543a10613d4d5760405162461bcd60e51b815260206004820152601260248201527108ec2e640e0e4d2c6ca40e8dede40d0d2ced60731b60448201526064016104e4565b6000613d5842614aab565b60095490915064ffffffffff610100909104811690821611613da15760405162461bcd60e51b81526020600482015260026024820152610c4d60f21b60448201526064016104e4565b6000613dac42611b8d565b9050600080600060045467ffffffffffffffff811115613dce57613dce615134565b604051908082528060200260200182016040528015613e1357816020015b6040805180820190915260008082526020820152815260200190600190039081613dec5790505b50905060005b600381116140f657600081613e2f575060208501515b6001821415613e3c575084515b6002821415613e4c575060408501515b6003821415613e5c575060608501515b60005b6000838152600d6020908152604080832061ffff861684529091529020548110156140e1576000838152600d6020908152604080832061ffff861684529091529020805482908110613eb357613eb361543d565b906000526020600020906005020160030160159054906101000a900460ff166140cf576000838152600d6020908152604080832061ffff861684529091528120805483908110613f0557613f0561543d565b60009182526020808320600590920290910154868352600d8252604080842061ffff8816855290925290822080549193509084908110613f4757613f4761543d565b6000918252602080832060036005909302019190910154878352600d8252604080842061ffff8916855290925290822080546001600160a01b0390921693509085908110613f9757613f9761543d565b9060005260206000209060050201600101549050613fd160405180604001604052806000815260200160006001600160a01b031681525090565b60008261271060015485613fe591906156cf565b613fef9190615587565b613ff99190615484565b90506000805b6000878152600e60205260409020548110156140c7576004548d14156140335750989e9d5050505050505050505050505050565b6005541580614049575060075460ff1615156001145b156140b5578c61405881615469565b9d506140669050838361549b565b91506040518060400160405280838152602001876001600160a01b03168152509350838b8d8151811061409b5761409b61543d565b60200260200101819052508b806140b190615469565b9c50505b806140bf81615469565b915050613fff565b505050505050505b806140d981615469565b915050613e5f565b505080806140ee90615469565b915050613e19565b5095945050505050565b614108614477565b336000908152600a602052604081206002015467ffffffffffffffff81111561413357614133615134565b60405190808252806020026020018201604052801561418e57816020015b61417b60408051608081018252600080825260208201819052909182019081526020016000905290565b8152602001906001900390816141515790505b50336000908152600a60209081526040808320600201805482518185028101850190935280835294955090939092909184015b82821015614277576000848152602090819020604080516080810182526002860290920180548352600181015461ffff81169484019490945291929083019062010000900460ff16600381111561421a5761421a614c48565b600381111561422b5761422b614c48565b81526020016001820160039054906101000a900460ff16600281111561425357614253614c48565b600281111561426457614264614c48565b81525050815260200190600101906141c1565b50505050905060005b336000908152600a60205260409020600201548110156143335782600001518282815181106142b1576142b161543d565b602002602001015160000151141561432157336000908152600a6020526040902060029081018054839081106142e9576142e961543d565b906000526020600020906002020160010160036101000a81548160ff0219169083600281111561431b5761431b614c48565b02179055505b8061432b81615469565b915050614280565b5081516143409033614533565b815160208301516040513392916000805160206158178339815191529161436b914291600390615724565b60405180910390a35050565b6000546001600160a01b03163314612cc15760405162461bcd60e51b8152602060048201526002602482015261189b60f11b60448201526064016104e4565b600080600880548060200260200160405190810160405280929190818152602001828054801561440f57602002820191906000526020600020905b81546001600160a01b031681526001909101906020018083116143f1575b505050505090506000915060005b8151811015614470578181815181106144385761443861543d565b60200260200101516001600160a01b0316846001600160a01b0316141561445e57600192505b8061446881615469565b91505061441d565b5050919050565b33612cc15760405162461bcd60e51b81526020600482015260016024820152603360f81b60448201526064016104e4565b60008060405180608001604052808781526020018661ffff1681526020018560038111156144d8576144d8614c48565b81526020018460028111156144ef576144ef614c48565b8152509050600061450d82600001518360400151846020015161138a565b90508060800151156145245760019250505061452b565b6000925050505b949350505050565b6000828152600e6020526040812090805b82548110156145c957836001600160a01b03168382815481106145695761456961543d565b6000918252602090912001546001600160a01b031614156145b7578091508281815481106145995761459961543d565b600091825260209091200180546001600160a01b03191690556145c9565b806145c181615469565b915050614544565b50815482906145da90600190615484565b815481106145ea576145ea61543d565b9060005260206000200160009054906101000a90046001600160a01b031682828154811061461a5761461a61543d565b9060005260206000200160006101000a8154816001600160a01b0302191690836001600160a01b0316021790555081805480614658576146586154b3565b600082815260209020810160001990810180546001600160a01b031916905501905550505050565b6146cf6040805161012081018252600080825260208201819052918101829052606081018290526080810182905260a081018290529060c0820190815260006020820152606060409091015290565b600033868487426040516020016146ea959493929190615780565b60408051601f198184030181528282528051602091820120610120840183528084529083018a905233918301919091526001600160a01b038816606083015260016080830152600060a0830152915060c0810185600381111561474f5761474f614c48565b81526020018461ffff1681526020018681525091505095945050505050565b336000908152600a6020526040902054600160a01b900460ff166147f857336000818152600a6020526040812080546001600160a01b031990811684178255600b8054600181019091557f0175b7a638427703f0dbe7bb9bbf987a2551717b34e79f33b5b1008d1fa01db901805490911684179055919052805460ff60a01b1916600160a01b1790555b80156148ae57336000908152600a60209081526040808320600390810180546001808201835591865294849020875160029096020194855592860151928401805461ffff19811661ffff9095169485178255928701518795949093919262ffffff1990921617906201000090849081111561487557614875614c48565b0217905550606082015160018201805463ff000000191663010000008360028111156148a3576148a3614c48565b021790555050505050565b336000908152600a6020908152604080832060029081018054600180820183559186529484902087519590920290910193845591850151918301805461ffff19811661ffff909416938417825591860151869493909262ffffff1916176201000083600381111561487557614875614c48565b600081600114806149325750816003145b8061493d5750816005145b806149485750816007145b806149535750816008145b8061495e575081600a145b80614969575081600c145b156149765750601f613bec565b816002146149865750601e613bec565b61498f83614b14565b61499a57601c61499d565b601d5b60ff169392505050565b6000806149b383614b14565b156149c0575060016149c4565b5060005b6149cf81605a61549b565b84116149dd57839150614a6e565b836149e982605a61549b565b108015614a0057506149fc8160b561549b565b8411155b15614a2157614a1081605a61549b565b614a1a9085615484565b9150614a6e565b83614a2d8260b561549b565b108015614a455750614a418161011161549b565b8411155b15614a5557614a108160b561549b565b614a618161011161549b565b614a6b9085615484565b91505b5092915050565b600080614a856201518084615587565b905060006007614a9683600361549b565b614aa091906157de565b61452b90600161549b565b6000613bec62015180836157f2565b61340d81604051602401614ad091815260200190565b60408051601f198184030181529190526020810180517bffffffffffffffffffffffffffffffffffffffffffffffffffffffff1663f82c50f160e01b179052614b50565b6000614b216004836157de565b158015614b375750614b346064836157de565b15155b80613bec5750614b49610190836157de565b1592915050565b80516a636f6e736f6c652e6c6f67602083016000808483855afa5050505050565b828054614b7d906154ff565b90600052602060002090601f016020900481019282614b9f5760008555614be5565b82601f10614bb857805160ff1916838001178555614be5565b82800160010185558215614be5579182015b82811115614be5578251825591602001919060010190614bca565b50614bf1929150614bf5565b5090565b5b80821115614bf15760008155600101614bf6565b80356001600160a01b0381168114614c2157600080fd5b919050565b600060208284031215614c3857600080fd5b614c4182614c0a565b9392505050565b634e487b7160e01b600052602160045260246000fd5b6004811061340d5761340d614c48565b614c7781614c5e565b9052565b60038110614c7757614c77614c48565b600081518084526020808501945080840160005b83811015614cf45781518051885261ffff848201511684890152604080820151614cc881614c5e565b9089015260609081015190614cdf818a0183614c7b565b50506080969096019590820190600101614c9f565b509495945050505050565b60006020808301818452808551808352604092508286019150828160051b8701018488016000805b84811015614de357898403603f19018652825180516001600160a01b03168552888101511515898601528781015160a0898701819052815190870181905260c08701918b019085905b80821015614d9757825164ffffffffff168452928c0192918c019160019190910190614d70565b50505060608083015187830382890152614db18382614c8b565b9250505060808083015192508682038188015250614dcf8183614c8b565b978a01979550505091870191600101614d27565b50919998505050505050505050565b600060208284031215614e0457600080fd5b813567ffffffffffffffff811115614e1b57600080fd5b82016101208185031215614c4157600080fd5b600060208284031215614e4057600080fd5b5035919050565b803560048110614c2157600080fd5b803561ffff81168114614c2157600080fd5b600080600060608486031215614e7d57600080fd5b83359250614e8d60208501614e47565b9150614e9b60408501614e56565b90509250925092565b60005b83811015614ebf578181015183820152602001614ea7565b83811115614ece576000848401525b50505050565b60008151808452614eec816020860160208601614ea4565b601f01601f19169290920160200192915050565b600061012082518452602083015160208501526001600160a01b0360408401511660408501526060830151614f4060608601826001600160a01b03169052565b506080830151614f54608086018215159052565b5060a0830151614f6860a086018215159052565b5060c0830151614f7b60c0860182614c6e565b5060e0830151614f9160e086018261ffff169052565b50610100808401518282870152614faa83870182614ed4565b9695505050505050565b602081526000614c416020830184614f00565b60008060008060008060a08789031215614fe057600080fd5b86359550614ff060208801614c0a565b9450604087013567ffffffffffffffff8082111561500d57600080fd5b818901915089601f83011261502157600080fd5b81358181111561503057600080fd5b8a602082850101111561504257600080fd5b60208301965080955050505061505a60608801614e47565b915061506860808801614e56565b90509295509295509295565b801515811461340d57600080fd5b8035614c2181615074565b60006020828403121561509f57600080fd5b8135614c4181615074565b60006020808301818452808551808352604092508286019150828160051b87010184880160005b8381101561512657603f198984030185528151606081518186526150f782870182614f00565b9150508882015161510a8a870182614c7b565b50908701519387019390935293860193908601906001016150d1565b509098975050505050505050565b634e487b7160e01b600052604160045260246000fd5b604051610120810167ffffffffffffffff8111828210171561516e5761516e615134565b60405290565b600082601f83011261518557600080fd5b813567ffffffffffffffff808211156151a0576151a0615134565b604051601f8301601f19908116603f011681019082821181831017156151c8576151c8615134565b816040528381528660208588010111156151e157600080fd5b836020870160208301376000602085830101528094505050505092915050565b6000610120828403121561521457600080fd5b61521c61514a565b9050813581526020820135602082015261523860408301614c0a565b604082015261524960608301614c0a565b606082015261525a60808301615082565b608082015261526b60a08301615082565b60a082015261527c60c08301614e47565b60c082015261528d60e08301614e56565b60e08201526101008083013567ffffffffffffffff8111156152ae57600080fd5b6152ba85828601615174565b82840152505092915050565b600080604083850312156152d957600080fd5b823567ffffffffffffffff8111156152f057600080fd5b6152fc85828601615201565b92505061530b60208401614c0a565b90509250929050565b6000806040838503121561532757600080fd5b823561533281615074565b915061530b60208401614c0a565b6020808252825182820181905260009190848201906040850190845b818110156153815783516001600160a01b03168352928401929184019160010161535c565b50909695505050505050565b602080825282518282018190526000919060409081850190868401855b828110156153d8578151805185528601516001600160a01b03168685015292840192908501906001016153aa565b5091979650505050505050565b600080604083850312156153f857600080fd5b8235915061530b60208401614c0a565b60006020828403121561541a57600080fd5b813567ffffffffffffffff81111561543157600080fd5b614a6b84828501615201565b634e487b7160e01b600052603260045260246000fd5b634e487b7160e01b600052601160045260246000fd5b600060001982141561547d5761547d615453565b5060010190565b60008282101561549657615496615453565b500390565b600082198211156154ae576154ae615453565b500190565b634e487b7160e01b600052603160045260246000fd5b6000602082840312156154db57600080fd5b614c4182614e56565b6000602082840312156154f657600080fd5b614c4182614e47565b600181811c9082168061551357607f821691505b6020821081141561553457634e487b7160e01b600052602260045260246000fd5b50919050565b64ffffffffff85168152831515602082015260ff831660408201526080810161556283614c5e565b82606083015295945050505050565b634e487b7160e01b600052601260045260246000fd5b60008261559657615596615571565b500490565b6000808212826001600160ff1b03038413811516156155bc576155bc615453565b600160ff1b83900384128116156155d5576155d5615453565b50500190565b60006001600160ff1b0360008413600084138583048511828216161561560357615603615453565b600160ff1b600087128281168783058912161561562257615622615453565b6000871292508782058712848416161561563e5761563e615453565b8785058712818416161561565457615654615453565b505050929093029392505050565b60008261567157615671615571565b600160ff1b82146000198414161561568b5761568b615453565b500590565b60008083128015600160ff1b8501841216156156ae576156ae615453565b836001600160ff1b030183138116156156c9576156c9615453565b50500390565b60008160001904831182151516156156e9576156e9615453565b500290565b60006020828403121561570057600080fd5b8151614c4181615074565b60006020828403121561571d57600080fd5b5051919050565b64ffffffffff8416815260208101839052606081016005831061574957615749614c48565b826040830152949350505050565b600064ffffffffff80831681851680830382111561577757615777615453565b01949350505050565b60006bffffffffffffffffffffffff19808860601b168352808760601b1660148401525061ffff60f01b8560f01b16602883015283516157c781602a850160208801614ea4565b602a920191820192909252604a0195945050505050565b6000826157ed576157ed615571565b500690565b600064ffffffffff8084168061580a5761580a615571565b9216919091049291505056fefcfb8f783c54c9c729957515ad137cd8832b98c21e44fd7f481e2e7603bfdb5fa2646970667358221220737a9e4a245fa19c20e4c4900cba612fd21b2e69985ff0edf9ffed7debcf6a5264736f6c63430008090033","opcodes":"PUSH1 0x80 PUSH1 0x40 MSTORE PUSH1 0x0 DUP1 SLOAD PUSH1 0x1 PUSH1 0x1 PUSH1 0xA0 SHL SUB NOT AND PUSH20 0xF39FD6E51AAD88F6F4CE6AB8827279CFFFB92266 OR SWAP1 SSTORE PUSH2 0x27D8 PUSH1 0x1 SWAP1 DUP2 SSTORE PUSH7 0x2386F26FC10000 PUSH1 0x2 SSTORE PUSH5 0xBA43B7400 PUSH1 0x3 SSTORE PUSH1 0x5 PUSH1 0x4 SSTORE PUSH1 0x9 DUP1 SLOAD PUSH1 0xFF NOT AND SWAP1 SSTORE PUSH3 0x60 TIMESTAMP PUSH3 0x94 JUMP JUMPDEST PUSH3 0x6C SWAP2 SWAP1 PUSH3 0xAB JUMP JUMPDEST PUSH1 0x9 PUSH1 0x1 PUSH2 0x100 EXP DUP2 SLOAD DUP2 PUSH5 0xFFFFFFFFFF MUL NOT AND SWAP1 DUP4 PUSH5 0xFFFFFFFFFF AND MUL OR SWAP1 SSTORE POP PUSH3 0x113 JUMP JUMPDEST PUSH1 0x0 PUSH3 0xA5 PUSH3 0x15180 DUP4 PUSH3 0xE0 JUMP JUMPDEST SWAP3 SWAP2 POP POP JUMP JUMPDEST PUSH1 0x0 PUSH5 0xFFFFFFFFFF DUP4 DUP2 AND SWAP1 DUP4 AND DUP2 DUP2 LT ISZERO PUSH3 0xD8 JUMPI PUSH4 0x4E487B71 PUSH1 0xE0 SHL PUSH1 0x0 MSTORE PUSH1 0x11 PUSH1 0x4 MSTORE PUSH1 0x24 PUSH1 0x0 REVERT JUMPDEST SUB SWAP4 SWAP3 POP POP POP JUMP JUMPDEST PUSH1 0x0 PUSH5 0xFFFFFFFFFF DUP1 DUP5 AND DUP1 PUSH3 0x107 JUMPI PUSH4 0x4E487B71 PUSH1 0xE0 SHL PUSH1 0x0 MSTORE PUSH1 0x12 PUSH1 0x4 MSTORE PUSH1 0x24 PUSH1 0x0 REVERT JUMPDEST SWAP3 AND SWAP2 SWAP1 SWAP2 DIV SWAP3 SWAP2 POP POP JUMP JUMPDEST PUSH2 0x586C DUP1 PUSH3 0x123 PUSH1 0x0 CODECOPY PUSH1 0x0 RETURN INVALID PUSH1 0x80 PUSH1 0x40 MSTORE PUSH1 0x4 CALLDATASIZE LT PUSH2 0x15F JUMPI PUSH1 0x0 CALLDATALOAD PUSH1 0xE0 SHR DUP1 PUSH4 0x7507BA39 GT PUSH2 0xCA JUMPI DUP1 PUSH4 0xAB7E0909 GT PUSH2 0x79 JUMPI DUP1 PUSH4 0xE63D35BE GT PUSH2 0x56 JUMPI DUP1 PUSH4 0xE63D35BE EQ PUSH2 0x427 JUMPI DUP1 PUSH4 0xEBEC6EAA EQ PUSH2 0x449 JUMPI DUP1 PUSH4 0xFEDCE940 EQ PUSH2 0x481 JUMPI STOP JUMPDEST DUP1 PUSH4 0xAB7E0909 EQ PUSH2 0x3BB JUMPI DUP1 PUSH4 0xBFA0CAA7 EQ PUSH2 0x3DB JUMPI DUP1 PUSH4 0xCED72F87 EQ PUSH2 0x408 JUMPI STOP JUMPDEST DUP1 PUSH4 0xA2349CAF GT PUSH2 0xA7 JUMPI DUP1 PUSH4 0xA2349CAF EQ PUSH2 0x368 JUMPI DUP1 PUSH4 0xA429131A EQ PUSH2 0x388 JUMPI DUP1 PUSH4 0xA5AF2ABD EQ PUSH2 0x39B JUMPI STOP JUMPDEST DUP1 PUSH4 0x7507BA39 EQ PUSH2 0x313 JUMPI DUP1 PUSH4 0x8E83AC4A EQ PUSH2 0x328 JUMPI DUP1 PUSH4 0x8F283970 EQ PUSH2 0x348 JUMPI STOP JUMPDEST DUP1 PUSH4 0x2D23F7E7 GT PUSH2 0x126 JUMPI DUP1 PUSH4 0x53A6D6E2 GT PUSH2 0x103 JUMPI DUP1 PUSH4 0x53A6D6E2 EQ PUSH2 0x268 JUMPI DUP1 PUSH4 0x6605AC0D EQ PUSH2 0x2C6 JUMPI DUP1 PUSH4 0x6A1DB1BF EQ PUSH2 0x2F3 JUMPI STOP JUMPDEST DUP1 PUSH4 0x2D23F7E7 EQ PUSH2 0x208 JUMPI DUP1 PUSH4 0x3084F79E EQ PUSH2 0x235 JUMPI DUP1 PUSH4 0x3816377E EQ PUSH2 0x248 JUMPI STOP JUMPDEST DUP1 PUSH4 0x53149FA EQ PUSH2 0x168 JUMPI DUP1 PUSH4 0x8E93D0A EQ PUSH2 0x188 JUMPI DUP1 PUSH4 0x94F9977 EQ PUSH2 0x1B3 JUMPI DUP1 PUSH4 0x1385D24C EQ PUSH2 0x1D3 JUMPI DUP1 PUSH4 0x27EA9773 EQ PUSH2 0x1E8 JUMPI STOP JUMPDEST CALLDATASIZE PUSH2 0x166 JUMPI STOP JUMPDEST STOP JUMPDEST CALLVALUE DUP1 ISZERO PUSH2 0x174 JUMPI PUSH1 0x0 DUP1 REVERT JUMPDEST POP PUSH2 0x166 PUSH2 0x183 CALLDATASIZE PUSH1 0x4 PUSH2 0x4C26 JUMP JUMPDEST PUSH2 0x494 JUMP JUMPDEST CALLVALUE DUP1 ISZERO PUSH2 0x194 JUMPI PUSH1 0x0 DUP1 REVERT JUMPDEST POP PUSH2 0x19D PUSH2 0x67C JUMP JUMPDEST PUSH1 0x40 MLOAD PUSH2 0x1AA SWAP2 SWAP1 PUSH2 0x4CFF JUMP JUMPDEST PUSH1 0x40 MLOAD DUP1 SWAP2 SUB SWAP1 RETURN JUMPDEST CALLVALUE DUP1 ISZERO PUSH2 0x1BF JUMPI PUSH1 0x0 DUP1 REVERT JUMPDEST POP PUSH2 0x166 PUSH2 0x1CE CALLDATASIZE PUSH1 0x4 PUSH2 0x4DF2 JUMP JUMPDEST PUSH2 0xA45 JUMP JUMPDEST CALLVALUE DUP1 ISZERO PUSH2 0x1DF JUMPI PUSH1 0x0 DUP1 REVERT JUMPDEST POP PUSH2 0x166 PUSH2 0x1361 JUMP JUMPDEST CALLVALUE DUP1 ISZERO PUSH2 0x1F4 JUMPI PUSH1 0x0 DUP1 REVERT JUMPDEST POP PUSH2 0x166 PUSH2 0x203 CALLDATASIZE PUSH1 0x4 PUSH2 0x4E2E JUMP JUMPDEST PUSH2 0x137D JUMP JUMPDEST CALLVALUE DUP1 ISZERO PUSH2 0x214 JUMPI PUSH1 0x0 DUP1 REVERT JUMPDEST POP PUSH2 0x228 PUSH2 0x223 CALLDATASIZE PUSH1 0x4 PUSH2 0x4E68 JUMP JUMPDEST PUSH2 0x138A JUMP JUMPDEST PUSH1 0x40 MLOAD PUSH2 0x1AA SWAP2 SWAP1 PUSH2 0x4FB4 JUMP JUMPDEST PUSH2 0x166 PUSH2 0x243 CALLDATASIZE PUSH1 0x4 PUSH2 0x4FC7 JUMP JUMPDEST PUSH2 0x1611 JUMP JUMPDEST CALLVALUE DUP1 ISZERO PUSH2 0x254 JUMPI PUSH1 0x0 DUP1 REVERT JUMPDEST POP PUSH2 0x166 PUSH2 0x263 CALLDATASIZE PUSH1 0x4 PUSH2 0x4E2E JUMP JUMPDEST PUSH2 0x1B80 JUMP JUMPDEST CALLVALUE DUP1 ISZERO PUSH2 0x274 JUMPI PUSH1 0x0 DUP1 REVERT JUMPDEST POP PUSH2 0x288 PUSH2 0x283 CALLDATASIZE PUSH1 0x4 PUSH2 0x4E2E JUMP JUMPDEST PUSH2 0x1B8D JUMP JUMPDEST PUSH1 0x40 MLOAD PUSH2 0x1AA SWAP2 SWAP1 DUP2 MLOAD PUSH2 0xFFFF SWAP1 DUP2 AND DUP3 MSTORE PUSH1 0x20 DUP1 DUP5 ADD MLOAD DUP3 AND SWAP1 DUP4 ADD MSTORE PUSH1 0x40 DUP1 DUP5 ADD MLOAD DUP3 AND SWAP1 DUP4 ADD MSTORE PUSH1 0x60 SWAP3 DUP4 ADD MLOAD AND SWAP2 DUP2 ADD SWAP2 SWAP1 SWAP2 MSTORE PUSH1 0x80 ADD SWAP1 JUMP JUMPDEST CALLVALUE DUP1 ISZERO PUSH2 0x2D2 JUMPI PUSH1 0x0 DUP1 REVERT JUMPDEST POP PUSH2 0x2E6 PUSH2 0x2E1 CALLDATASIZE PUSH1 0x4 PUSH2 0x508D JUMP JUMPDEST PUSH2 0x1DEF JUMP JUMPDEST PUSH1 0x40 MLOAD PUSH2 0x1AA SWAP2 SWAP1 PUSH2 0x50AA JUMP JUMPDEST CALLVALUE DUP1 ISZERO PUSH2 0x2FF JUMPI PUSH1 0x0 DUP1 REVERT JUMPDEST POP PUSH2 0x166 PUSH2 0x30E CALLDATASIZE PUSH1 0x4 PUSH2 0x4E2E JUMP JUMPDEST PUSH2 0x21F0 JUMP JUMPDEST CALLVALUE DUP1 ISZERO PUSH2 0x31F JUMPI PUSH1 0x0 DUP1 REVERT JUMPDEST POP PUSH2 0x166 PUSH2 0x21FD JUMP JUMPDEST CALLVALUE DUP1 ISZERO PUSH2 0x334 JUMPI PUSH1 0x0 DUP1 REVERT JUMPDEST POP PUSH2 0x166 PUSH2 0x343 CALLDATASIZE PUSH1 0x4 PUSH2 0x4E2E JUMP JUMPDEST PUSH2 0x2CC3 JUMP JUMPDEST CALLVALUE DUP1 ISZERO PUSH2 0x354 JUMPI PUSH1 0x0 DUP1 REVERT JUMPDEST POP PUSH2 0x166 PUSH2 0x363 CALLDATASIZE PUSH1 0x4 PUSH2 0x4C26 JUMP JUMPDEST PUSH2 0x2CD0 JUMP JUMPDEST CALLVALUE DUP1 ISZERO PUSH2 0x374 JUMPI PUSH1 0x0 DUP1 REVERT JUMPDEST POP PUSH2 0x166 PUSH2 0x383 CALLDATASIZE PUSH1 0x4 PUSH2 0x52C6 JUMP JUMPDEST PUSH2 0x2D23 JUMP JUMPDEST PUSH2 0x166 PUSH2 0x396 CALLDATASIZE PUSH1 0x4 PUSH2 0x4DF2 JUMP JUMPDEST PUSH2 0x3037 JUMP JUMPDEST CALLVALUE DUP1 ISZERO PUSH2 0x3A7 JUMPI PUSH1 0x0 DUP1 REVERT JUMPDEST POP PUSH2 0x2E6 PUSH2 0x3B6 CALLDATASIZE PUSH1 0x4 PUSH2 0x5314 JUMP JUMPDEST PUSH2 0x3820 JUMP JUMPDEST CALLVALUE DUP1 ISZERO PUSH2 0x3C7 JUMPI PUSH1 0x0 DUP1 REVERT JUMPDEST POP PUSH2 0x166 PUSH2 0x3D6 CALLDATASIZE PUSH1 0x4 PUSH2 0x4C26 JUMP JUMPDEST PUSH2 0x3BF2 JUMP JUMPDEST CALLVALUE DUP1 ISZERO PUSH2 0x3E7 JUMPI PUSH1 0x0 DUP1 REVERT JUMPDEST POP PUSH2 0x3FB PUSH2 0x3F6 CALLDATASIZE PUSH1 0x4 PUSH2 0x4E2E JUMP JUMPDEST PUSH2 0x3C99 JUMP JUMPDEST PUSH1 0x40 MLOAD PUSH2 0x1AA SWAP2 SWAP1 PUSH2 0x5340 JUMP JUMPDEST CALLVALUE DUP1 ISZERO PUSH2 0x414 JUMPI PUSH1 0x0 DUP1 REVERT JUMPDEST POP PUSH1 0x1 SLOAD JUMPDEST PUSH1 0x40 MLOAD SWAP1 DUP2 MSTORE PUSH1 0x20 ADD PUSH2 0x1AA JUMP JUMPDEST CALLVALUE DUP1 ISZERO PUSH2 0x433 JUMPI PUSH1 0x0 DUP1 REVERT JUMPDEST POP PUSH2 0x43C PUSH2 0x3D05 JUMP JUMPDEST PUSH1 0x40 MLOAD PUSH2 0x1AA SWAP2 SWAP1 PUSH2 0x538D JUMP JUMPDEST CALLVALUE DUP1 ISZERO PUSH2 0x455 JUMPI PUSH1 0x0 DUP1 REVERT JUMPDEST POP PUSH2 0x419 PUSH2 0x464 CALLDATASIZE PUSH1 0x4 PUSH2 0x53E5 JUMP JUMPDEST PUSH1 0xC PUSH1 0x20 SWAP1 DUP2 MSTORE PUSH1 0x0 SWAP3 DUP4 MSTORE PUSH1 0x40 DUP1 DUP5 KECCAK256 SWAP1 SWAP2 MSTORE SWAP1 DUP3 MSTORE SWAP1 KECCAK256 SLOAD DUP2 JUMP JUMPDEST PUSH2 0x166 PUSH2 0x48F CALLDATASIZE PUSH1 0x4 PUSH2 0x5408 JUMP JUMPDEST PUSH2 0x4100 JUMP JUMPDEST PUSH2 0x49C PUSH2 0x4377 JUMP JUMPDEST PUSH1 0x1 PUSH1 0x1 PUSH1 0xA0 SHL SUB DUP2 AND PUSH2 0x4AF JUMPI PUSH1 0x0 DUP1 REVERT JUMPDEST PUSH2 0x4B8 DUP2 PUSH2 0x43B6 JUMP JUMPDEST PUSH2 0x4ED JUMPI PUSH1 0x40 MLOAD PUSH3 0x461BCD PUSH1 0xE5 SHL DUP2 MSTORE PUSH1 0x20 PUSH1 0x4 DUP3 ADD MSTORE PUSH1 0x1 PUSH1 0x24 DUP3 ADD MSTORE PUSH1 0x19 PUSH1 0xF9 SHL PUSH1 0x44 DUP3 ADD MSTORE PUSH1 0x64 ADD JUMPDEST PUSH1 0x40 MLOAD DUP1 SWAP2 SUB SWAP1 REVERT JUMPDEST PUSH1 0x0 PUSH1 0x8 DUP1 SLOAD DUP1 PUSH1 0x20 MUL PUSH1 0x20 ADD PUSH1 0x40 MLOAD SWAP1 DUP2 ADD PUSH1 0x40 MSTORE DUP1 SWAP3 SWAP2 SWAP1 DUP2 DUP2 MSTORE PUSH1 0x20 ADD DUP3 DUP1 SLOAD DUP1 ISZERO PUSH2 0x545 JUMPI PUSH1 0x20 MUL DUP3 ADD SWAP2 SWAP1 PUSH1 0x0 MSTORE PUSH1 0x20 PUSH1 0x0 KECCAK256 SWAP1 JUMPDEST DUP2 SLOAD PUSH1 0x1 PUSH1 0x1 PUSH1 0xA0 SHL SUB AND DUP2 MSTORE PUSH1 0x1 SWAP1 SWAP2 ADD SWAP1 PUSH1 0x20 ADD DUP1 DUP4 GT PUSH2 0x527 JUMPI JUMPDEST POP POP POP POP POP SWAP1 POP PUSH1 0x0 DUP1 JUMPDEST DUP3 MLOAD DUP2 LT ISZERO PUSH2 0x5A6 JUMPI DUP4 PUSH1 0x1 PUSH1 0x1 PUSH1 0xA0 SHL SUB AND DUP4 DUP3 DUP2 MLOAD DUP2 LT PUSH2 0x575 JUMPI PUSH2 0x575 PUSH2 0x543D JUMP JUMPDEST PUSH1 0x20 MUL PUSH1 0x20 ADD ADD MLOAD PUSH1 0x1 PUSH1 0x1 PUSH1 0xA0 SHL SUB AND EQ ISZERO PUSH2 0x594 JUMPI DUP1 SWAP2 POP PUSH2 0x5A6 JUMP JUMPDEST DUP1 PUSH2 0x59E DUP2 PUSH2 0x5469 JUMP JUMPDEST SWAP2 POP POP PUSH2 0x550 JUMP JUMPDEST POP DUP1 JUMPDEST PUSH1 0x8 SLOAD PUSH2 0x5B8 SWAP1 PUSH1 0x1 SWAP1 PUSH2 0x5484 JUMP JUMPDEST DUP2 LT ISZERO PUSH2 0x643 JUMPI PUSH1 0x8 PUSH2 0x5CC DUP3 PUSH1 0x1 PUSH2 0x549B JUMP JUMPDEST DUP2 SLOAD DUP2 LT PUSH2 0x5DC JUMPI PUSH2 0x5DC PUSH2 0x543D JUMP JUMPDEST PUSH1 0x0 SWAP2 DUP3 MSTORE PUSH1 0x20 SWAP1 SWAP2 KECCAK256 ADD SLOAD PUSH1 0x8 DUP1 SLOAD PUSH1 0x1 PUSH1 0x1 PUSH1 0xA0 SHL SUB SWAP1 SWAP3 AND SWAP2 DUP4 SWAP1 DUP2 LT PUSH2 0x608 JUMPI PUSH2 0x608 PUSH2 0x543D JUMP JUMPDEST PUSH1 0x0 SWAP2 DUP3 MSTORE PUSH1 0x20 SWAP1 SWAP2 KECCAK256 ADD DUP1 SLOAD PUSH1 0x1 PUSH1 0x1 PUSH1 0xA0 SHL SUB NOT AND PUSH1 0x1 PUSH1 0x1 PUSH1 0xA0 SHL SUB SWAP3 SWAP1 SWAP3 AND SWAP2 SWAP1 SWAP2 OR SWAP1 SSTORE DUP1 PUSH2 0x63B DUP2 PUSH2 0x5469 JUMP JUMPDEST SWAP2 POP POP PUSH2 0x5A9 JUMP JUMPDEST POP PUSH1 0x8 DUP1 SLOAD DUP1 PUSH2 0x655 JUMPI PUSH2 0x655 PUSH2 0x54B3 JUMP JUMPDEST PUSH1 0x0 DUP3 DUP2 MSTORE PUSH1 0x20 SWAP1 KECCAK256 DUP2 ADD PUSH1 0x0 NOT SWAP1 DUP2 ADD DUP1 SLOAD PUSH1 0x1 PUSH1 0x1 PUSH1 0xA0 SHL SUB NOT AND SWAP1 SSTORE ADD SWAP1 SSTORE POP POP POP JUMP JUMPDEST PUSH1 0x60 PUSH2 0x686 PUSH2 0x4377 JUMP JUMPDEST PUSH1 0x0 PUSH1 0xB DUP1 SLOAD DUP1 PUSH1 0x20 MUL PUSH1 0x20 ADD PUSH1 0x40 MLOAD SWAP1 DUP2 ADD PUSH1 0x40 MSTORE DUP1 SWAP3 SWAP2 SWAP1 DUP2 DUP2 MSTORE PUSH1 0x20 ADD DUP3 DUP1 SLOAD DUP1 ISZERO PUSH2 0x6DE JUMPI PUSH1 0x20 MUL DUP3 ADD SWAP2 SWAP1 PUSH1 0x0 MSTORE PUSH1 0x20 PUSH1 0x0 KECCAK256 SWAP1 JUMPDEST DUP2 SLOAD PUSH1 0x1 PUSH1 0x1 PUSH1 0xA0 SHL SUB AND DUP2 MSTORE PUSH1 0x1 SWAP1 SWAP2 ADD SWAP1 PUSH1 0x20 ADD DUP1 DUP4 GT PUSH2 0x6C0 JUMPI JUMPDEST POP POP POP POP POP SWAP1 POP PUSH1 0x0 DUP2 MLOAD PUSH8 0xFFFFFFFFFFFFFFFF DUP2 GT ISZERO PUSH2 0x701 JUMPI PUSH2 0x701 PUSH2 0x5134 JUMP JUMPDEST PUSH1 0x40 MLOAD SWAP1 DUP1 DUP3 MSTORE DUP1 PUSH1 0x20 MUL PUSH1 0x20 ADD DUP3 ADD PUSH1 0x40 MSTORE DUP1 ISZERO PUSH2 0x75C JUMPI DUP2 PUSH1 0x20 ADD JUMPDEST PUSH1 0x40 DUP1 MLOAD PUSH1 0xA0 DUP2 ADD DUP3 MSTORE PUSH1 0x0 DUP1 DUP3 MSTORE PUSH1 0x20 DUP3 ADD MSTORE PUSH1 0x60 SWAP2 DUP2 ADD DUP3 SWAP1 MSTORE DUP2 DUP2 ADD DUP3 SWAP1 MSTORE PUSH1 0x80 DUP2 ADD SWAP2 SWAP1 SWAP2 MSTORE DUP2 MSTORE PUSH1 0x20 ADD SWAP1 PUSH1 0x1 SWAP1 SUB SWAP1 DUP2 PUSH2 0x71F JUMPI SWAP1 POP JUMPDEST POP SWAP1 POP PUSH1 0x0 JUMPDEST DUP3 MLOAD DUP2 LT ISZERO PUSH2 0xA3E JUMPI PUSH1 0xA PUSH1 0x0 DUP5 DUP4 DUP2 MLOAD DUP2 LT PUSH2 0x781 JUMPI PUSH2 0x781 PUSH2 0x543D JUMP JUMPDEST PUSH1 0x20 SWAP1 DUP2 MUL SWAP2 SWAP1 SWAP2 ADD DUP2 ADD MLOAD PUSH1 0x1 PUSH1 0x1 PUSH1 0xA0 SHL SUB SWAP1 DUP2 AND DUP4 MSTORE DUP3 DUP3 ADD SWAP4 SWAP1 SWAP4 MSTORE PUSH1 0x40 SWAP2 DUP3 ADD PUSH1 0x0 KECCAK256 DUP3 MLOAD PUSH1 0xA0 DUP2 ADD DUP5 MSTORE DUP2 SLOAD SWAP5 DUP6 AND DUP2 MSTORE PUSH1 0x1 PUSH1 0xA0 SHL SWAP1 SWAP5 DIV PUSH1 0xFF AND ISZERO ISZERO DUP5 DUP4 ADD MSTORE PUSH1 0x1 DUP2 ADD DUP1 SLOAD DUP5 MLOAD DUP2 DUP6 MUL DUP2 ADD DUP6 ADD DUP7 MSTORE DUP2 DUP2 MSTORE SWAP3 SWAP5 DUP7 ADD SWAP4 DUP4 ADD DUP3 DUP3 DUP1 ISZERO PUSH2 0x83F JUMPI PUSH1 0x20 MUL DUP3 ADD SWAP2 SWAP1 PUSH1 0x0 MSTORE PUSH1 0x20 PUSH1 0x0 KECCAK256 SWAP1 PUSH1 0x0 SWAP1 JUMPDEST DUP3 DUP3 SWAP1 SLOAD SWAP1 PUSH2 0x100 EXP SWAP1 DIV PUSH5 0xFFFFFFFFFF AND PUSH5 0xFFFFFFFFFF AND DUP2 MSTORE PUSH1 0x20 ADD SWAP1 PUSH1 0x5 ADD SWAP1 PUSH1 0x20 DUP3 PUSH1 0x4 ADD DIV SWAP3 DUP4 ADD SWAP3 PUSH1 0x1 SUB DUP3 MUL SWAP2 POP DUP1 DUP5 GT PUSH2 0x800 JUMPI SWAP1 POP JUMPDEST POP POP POP POP POP DUP2 MSTORE PUSH1 0x20 ADD PUSH1 0x2 DUP3 ADD DUP1 SLOAD DUP1 PUSH1 0x20 MUL PUSH1 0x20 ADD PUSH1 0x40 MLOAD SWAP1 DUP2 ADD PUSH1 0x40 MSTORE DUP1 SWAP3 SWAP2 SWAP1 DUP2 DUP2 MSTORE PUSH1 0x20 ADD PUSH1 0x0 SWAP1 JUMPDEST DUP3 DUP3 LT ISZERO PUSH2 0x923 JUMPI PUSH1 0x0 DUP5 DUP2 MSTORE PUSH1 0x20 SWAP1 DUP2 SWAP1 KECCAK256 PUSH1 0x40 DUP1 MLOAD PUSH1 0x80 DUP2 ADD DUP3 MSTORE PUSH1 0x2 DUP7 MUL SWAP1 SWAP3 ADD DUP1 SLOAD DUP4 MSTORE PUSH1 0x1 DUP2 ADD SLOAD PUSH2 0xFFFF DUP2 AND SWAP5 DUP5 ADD SWAP5 SWAP1 SWAP5 MSTORE SWAP2 SWAP3 SWAP1 DUP4 ADD SWAP1 PUSH3 0x10000 SWAP1 DIV PUSH1 0xFF AND PUSH1 0x3 DUP2 GT ISZERO PUSH2 0x8C6 JUMPI PUSH2 0x8C6 PUSH2 0x4C48 JUMP JUMPDEST PUSH1 0x3 DUP2 GT ISZERO PUSH2 0x8D7 JUMPI PUSH2 0x8D7 PUSH2 0x4C48 JUMP JUMPDEST DUP2 MSTORE PUSH1 0x20 ADD PUSH1 0x1 DUP3 ADD PUSH1 0x3 SWAP1 SLOAD SWAP1 PUSH2 0x100 EXP SWAP1 DIV PUSH1 0xFF AND PUSH1 0x2 DUP2 GT ISZERO PUSH2 0x8FF JUMPI PUSH2 0x8FF PUSH2 0x4C48 JUMP JUMPDEST PUSH1 0x2 DUP2 GT ISZERO PUSH2 0x910 JUMPI PUSH2 0x910 PUSH2 0x4C48 JUMP JUMPDEST DUP2 MSTORE POP POP DUP2 MSTORE PUSH1 0x20 ADD SWAP1 PUSH1 0x1 ADD SWAP1 PUSH2 0x86D JUMP JUMPDEST POP POP POP POP DUP2 MSTORE PUSH1 0x20 ADD PUSH1 0x3 DUP3 ADD DUP1 SLOAD DUP1 PUSH1 0x20 MUL PUSH1 0x20 ADD PUSH1 0x40 MLOAD SWAP1 DUP2 ADD PUSH1 0x40 MSTORE DUP1 SWAP3 SWAP2 SWAP1 DUP2 DUP2 MSTORE PUSH1 0x20 ADD PUSH1 0x0 SWAP1 JUMPDEST DUP3 DUP3 LT ISZERO PUSH2 0xA06 JUMPI PUSH1 0x0 DUP5 DUP2 MSTORE PUSH1 0x20 SWAP1 DUP2 SWAP1 KECCAK256 PUSH1 0x40 DUP1 MLOAD PUSH1 0x80 DUP2 ADD DUP3 MSTORE PUSH1 0x2 DUP7 MUL SWAP1 SWAP3 ADD DUP1 SLOAD DUP4 MSTORE PUSH1 0x1 DUP2 ADD SLOAD PUSH2 0xFFFF DUP2 AND SWAP5 DUP5 ADD SWAP5 SWAP1 SWAP5 MSTORE SWAP2 SWAP3 SWAP1 DUP4 ADD SWAP1 PUSH3 0x10000 SWAP1 DIV PUSH1 0xFF AND PUSH1 0x3 DUP2 GT ISZERO PUSH2 0x9A9 JUMPI PUSH2 0x9A9 PUSH2 0x4C48 JUMP JUMPDEST PUSH1 0x3 DUP2 GT ISZERO PUSH2 0x9BA JUMPI PUSH2 0x9BA PUSH2 0x4C48 JUMP JUMPDEST DUP2 MSTORE PUSH1 0x20 ADD PUSH1 0x1 DUP3 ADD PUSH1 0x3 SWAP1 SLOAD SWAP1 PUSH2 0x100 EXP SWAP1 DIV PUSH1 0xFF AND PUSH1 0x2 DUP2 GT ISZERO PUSH2 0x9E2 JUMPI PUSH2 0x9E2 PUSH2 0x4C48 JUMP JUMPDEST PUSH1 0x2 DUP2 GT ISZERO PUSH2 0x9F3 JUMPI PUSH2 0x9F3 PUSH2 0x4C48 JUMP JUMPDEST DUP2 MSTORE POP POP DUP2 MSTORE PUSH1 0x20 ADD SWAP1 PUSH1 0x1 ADD SWAP1 PUSH2 0x950 JUMP JUMPDEST POP POP POP POP DUP2 MSTORE POP POP DUP3 DUP3 DUP2 MLOAD DUP2 LT PUSH2 0xA20 JUMPI PUSH2 0xA20 PUSH2 0x543D JUMP JUMPDEST PUSH1 0x20 MUL PUSH1 0x20 ADD ADD DUP2 SWAP1 MSTORE POP DUP1 DUP1 PUSH2 0xA36 SWAP1 PUSH2 0x5469 JUMP JUMPDEST SWAP2 POP POP PUSH2 0x762 JUMP JUMPDEST POP SWAP2 POP POP SWAP1 JUMP JUMPDEST PUSH2 0xA4D PUSH2 0x4477 JUMP JUMPDEST PUSH2 0xA7A DUP2 CALLDATALOAD PUSH2 0xA63 PUSH2 0x100 DUP5 ADD PUSH1 0xE0 DUP6 ADD PUSH2 0x54C9 JUMP JUMPDEST PUSH2 0xA73 PUSH1 0xE0 DUP6 ADD PUSH1 0xC0 DUP7 ADD PUSH2 0x54E4 JUMP JUMPDEST PUSH1 0x0 PUSH2 0x44A8 JUMP JUMPDEST PUSH2 0xAAA JUMPI PUSH1 0x40 MLOAD PUSH3 0x461BCD PUSH1 0xE5 SHL DUP2 MSTORE PUSH1 0x20 PUSH1 0x4 DUP3 ADD MSTORE PUSH1 0x1 PUSH1 0x24 DUP3 ADD MSTORE PUSH1 0x37 PUSH1 0xF8 SHL PUSH1 0x44 DUP3 ADD MSTORE PUSH1 0x64 ADD PUSH2 0x4E4 JUMP JUMPDEST PUSH2 0xABA PUSH1 0x60 DUP3 ADD PUSH1 0x40 DUP4 ADD PUSH2 0x4C26 JUMP JUMPDEST PUSH1 0x1 PUSH1 0x1 PUSH1 0xA0 SHL SUB AND CALLER PUSH1 0x1 PUSH1 0x1 PUSH1 0xA0 SHL SUB AND EQ PUSH2 0xAFF JUMPI PUSH1 0x40 MLOAD PUSH3 0x461BCD PUSH1 0xE5 SHL DUP2 MSTORE PUSH1 0x20 PUSH1 0x4 DUP3 ADD MSTORE PUSH1 0x2 PUSH1 0x24 DUP3 ADD MSTORE PUSH2 0x3233 PUSH1 0xF0 SHL PUSH1 0x44 DUP3 ADD MSTORE PUSH1 0x64 ADD PUSH2 0x4E4 JUMP JUMPDEST CALLER PUSH1 0x0 SWAP1 DUP2 MSTORE PUSH1 0xA PUSH1 0x20 SWAP1 DUP2 MSTORE PUSH1 0x40 DUP1 DUP4 KECCAK256 PUSH1 0x3 ADD DUP1 SLOAD DUP3 MLOAD DUP2 DUP6 MUL DUP2 ADD DUP6 ADD SWAP1 SWAP4 MSTORE DUP1 DUP4 MSTORE SWAP2 SWAP3 SWAP1 SWAP2 SWAP1 DUP5 SWAP1 DUP5 ADD JUMPDEST DUP3 DUP3 LT ISZERO PUSH2 0xBE5 JUMPI PUSH1 0x0 DUP5 DUP2 MSTORE PUSH1 0x20 SWAP1 DUP2 SWAP1 KECCAK256 PUSH1 0x40 DUP1 MLOAD PUSH1 0x80 DUP2 ADD DUP3 MSTORE PUSH1 0x2 DUP7 MUL SWAP1 SWAP3 ADD DUP1 SLOAD DUP4 MSTORE PUSH1 0x1 DUP2 ADD SLOAD PUSH2 0xFFFF DUP2 AND SWAP5 DUP5 ADD SWAP5 SWAP1 SWAP5 MSTORE SWAP2 SWAP3 SWAP1 DUP4 ADD SWAP1 PUSH3 0x10000 SWAP1 DIV PUSH1 0xFF AND PUSH1 0x3 DUP2 GT ISZERO PUSH2 0xB88 JUMPI PUSH2 0xB88 PUSH2 0x4C48 JUMP JUMPDEST PUSH1 0x3 DUP2 GT ISZERO PUSH2 0xB99 JUMPI PUSH2 0xB99 PUSH2 0x4C48 JUMP JUMPDEST DUP2 MSTORE PUSH1 0x20 ADD PUSH1 0x1 DUP3 ADD PUSH1 0x3 SWAP1 SLOAD SWAP1 PUSH2 0x100 EXP SWAP1 DIV PUSH1 0xFF AND PUSH1 0x2 DUP2 GT ISZERO PUSH2 0xBC1 JUMPI PUSH2 0xBC1 PUSH2 0x4C48 JUMP JUMPDEST PUSH1 0x2 DUP2 GT ISZERO PUSH2 0xBD2 JUMPI PUSH2 0xBD2 PUSH2 0x4C48 JUMP JUMPDEST DUP2 MSTORE POP POP DUP2 MSTORE PUSH1 0x20 ADD SWAP1 PUSH1 0x1 ADD SWAP1 PUSH2 0xB2F JUMP JUMPDEST POP POP POP POP SWAP1 POP PUSH1 0x0 JUMPDEST CALLER PUSH1 0x0 SWAP1 DUP2 MSTORE PUSH1 0xA PUSH1 0x20 MSTORE PUSH1 0x40 SWAP1 KECCAK256 PUSH1 0x3 ADD SLOAD DUP2 LT ISZERO PUSH2 0xCA3 JUMPI DUP3 PUSH1 0x0 ADD CALLDATALOAD DUP3 DUP3 DUP2 MLOAD DUP2 LT PUSH2 0xC1F JUMPI PUSH2 0xC1F PUSH2 0x543D JUMP JUMPDEST PUSH1 0x20 MUL PUSH1 0x20 ADD ADD MLOAD PUSH1 0x0 ADD MLOAD EQ ISZERO PUSH2 0xC91 JUMPI CALLER PUSH1 0x0 SWAP1 DUP2 MSTORE PUSH1 0xA PUSH1 0x20 MSTORE PUSH1 0x40 SWAP1 KECCAK256 PUSH1 0x3 ADD DUP1 SLOAD PUSH1 0x1 SWAP2 SWAP1 DUP4 SWAP1 DUP2 LT PUSH2 0xC59 JUMPI PUSH2 0xC59 PUSH2 0x543D JUMP JUMPDEST SWAP1 PUSH1 0x0 MSTORE PUSH1 0x20 PUSH1 0x0 KECCAK256 SWAP1 PUSH1 0x2 MUL ADD PUSH1 0x1 ADD PUSH1 0x3 PUSH2 0x100 EXP DUP2 SLOAD DUP2 PUSH1 0xFF MUL NOT AND SWAP1 DUP4 PUSH1 0x2 DUP2 GT ISZERO PUSH2 0xC8B JUMPI PUSH2 0xC8B PUSH2 0x4C48 JUMP JUMPDEST MUL OR SWAP1 SSTORE POP JUMPDEST DUP1 PUSH2 0xC9B DUP2 PUSH2 0x5469 JUMP JUMPDEST SWAP2 POP POP PUSH2 0xBEE JUMP JUMPDEST POP DUP2 CALLDATALOAD PUSH1 0x0 SWAP1 DUP2 MSTORE PUSH1 0xE PUSH1 0x20 SWAP1 DUP2 MSTORE PUSH1 0x40 DUP1 DUP4 KECCAK256 DUP1 SLOAD DUP3 MLOAD DUP2 DUP6 MUL DUP2 ADD DUP6 ADD SWAP1 SWAP4 MSTORE DUP1 DUP4 MSTORE SWAP2 SWAP3 SWAP1 SWAP2 SWAP1 DUP4 ADD DUP3 DUP3 DUP1 ISZERO PUSH2 0xD06 JUMPI PUSH1 0x20 MUL DUP3 ADD SWAP2 SWAP1 PUSH1 0x0 MSTORE PUSH1 0x20 PUSH1 0x0 KECCAK256 SWAP1 JUMPDEST DUP2 SLOAD PUSH1 0x1 PUSH1 0x1 PUSH1 0xA0 SHL SUB AND DUP2 MSTORE PUSH1 0x1 SWAP1 SWAP2 ADD SWAP1 PUSH1 0x20 ADD DUP1 DUP4 GT PUSH2 0xCE8 JUMPI JUMPDEST POP POP POP POP POP SWAP1 POP PUSH1 0x0 JUMPDEST DUP2 MLOAD DUP2 LT ISZERO PUSH2 0x1044 JUMPI PUSH1 0x0 PUSH1 0xA PUSH1 0x0 DUP5 DUP5 DUP2 MLOAD DUP2 LT PUSH2 0xD31 JUMPI PUSH2 0xD31 PUSH2 0x543D JUMP JUMPDEST PUSH1 0x20 MUL PUSH1 0x20 ADD ADD MLOAD PUSH1 0x1 PUSH1 0x1 PUSH1 0xA0 SHL SUB AND PUSH1 0x1 PUSH1 0x1 PUSH1 0xA0 SHL SUB AND DUP2 MSTORE PUSH1 0x20 ADD SWAP1 DUP2 MSTORE PUSH1 0x20 ADD PUSH1 0x0 KECCAK256 PUSH1 0x2 ADD DUP1 SLOAD SWAP1 POP PUSH8 0xFFFFFFFFFFFFFFFF DUP2 GT ISZERO PUSH2 0xD78 JUMPI PUSH2 0xD78 PUSH2 0x5134 JUMP JUMPDEST PUSH1 0x40 MLOAD SWAP1 DUP1 DUP3 MSTORE DUP1 PUSH1 0x20 MUL PUSH1 0x20 ADD DUP3 ADD PUSH1 0x40 MSTORE DUP1 ISZERO PUSH2 0xDD3 JUMPI DUP2 PUSH1 0x20 ADD JUMPDEST PUSH2 0xDC0 PUSH1 0x40 DUP1 MLOAD PUSH1 0x80 DUP2 ADD DUP3 MSTORE PUSH1 0x0 DUP1 DUP3 MSTORE PUSH1 0x20 DUP3 ADD DUP2 SWAP1 MSTORE SWAP1 SWAP2 DUP3 ADD SWAP1 DUP2 MSTORE PUSH1 0x20 ADD PUSH1 0x0 SWAP1 MSTORE SWAP1 JUMP JUMPDEST DUP2 MSTORE PUSH1 0x20 ADD SWAP1 PUSH1 0x1 SWAP1 SUB SWAP1 DUP2 PUSH2 0xD96 JUMPI SWAP1 POP JUMPDEST POP SWAP1 POP PUSH1 0xA PUSH1 0x0 DUP5 DUP5 DUP2 MLOAD DUP2 LT PUSH2 0xDEC JUMPI PUSH2 0xDEC PUSH2 0x543D JUMP JUMPDEST PUSH1 0x20 MUL PUSH1 0x20 ADD ADD MLOAD PUSH1 0x1 PUSH1 0x1 PUSH1 0xA0 SHL SUB AND PUSH1 0x1 PUSH1 0x1 PUSH1 0xA0 SHL SUB AND DUP2 MSTORE PUSH1 0x20 ADD SWAP1 DUP2 MSTORE PUSH1 0x20 ADD PUSH1 0x0 KECCAK256 PUSH1 0x2 ADD DUP1 SLOAD DUP1 PUSH1 0x20 MUL PUSH1 0x20 ADD PUSH1 0x40 MLOAD SWAP1 DUP2 ADD PUSH1 0x40 MSTORE DUP1 SWAP3 SWAP2 SWAP1 DUP2 DUP2 MSTORE PUSH1 0x20 ADD PUSH1 0x0 SWAP1 JUMPDEST DUP3 DUP3 LT ISZERO PUSH2 0xEED JUMPI PUSH1 0x0 DUP5 DUP2 MSTORE PUSH1 0x20 SWAP1 DUP2 SWAP1 KECCAK256 PUSH1 0x40 DUP1 MLOAD PUSH1 0x80 DUP2 ADD DUP3 MSTORE PUSH1 0x2 DUP7 MUL SWAP1 SWAP3 ADD DUP1 SLOAD DUP4 MSTORE PUSH1 0x1 DUP2 ADD SLOAD PUSH2 0xFFFF DUP2 AND SWAP5 DUP5 ADD SWAP5 SWAP1 SWAP5 MSTORE SWAP2 SWAP3 SWAP1 DUP4 ADD SWAP1 PUSH3 0x10000 SWAP1 DIV PUSH1 0xFF AND PUSH1 0x3 DUP2 GT ISZERO PUSH2 0xE90 JUMPI PUSH2 0xE90 PUSH2 0x4C48 JUMP JUMPDEST PUSH1 0x3 DUP2 GT ISZERO PUSH2 0xEA1 JUMPI PUSH2 0xEA1 PUSH2 0x4C48 JUMP JUMPDEST DUP2 MSTORE PUSH1 0x20 ADD PUSH1 0x1 DUP3 ADD PUSH1 0x3 SWAP1 SLOAD SWAP1 PUSH2 0x100 EXP SWAP1 DIV PUSH1 0xFF AND PUSH1 0x2 DUP2 GT ISZERO PUSH2 0xEC9 JUMPI PUSH2 0xEC9 PUSH2 0x4C48 JUMP JUMPDEST PUSH1 0x2 DUP2 GT ISZERO PUSH2 0xEDA JUMPI PUSH2 0xEDA PUSH2 0x4C48 JUMP JUMPDEST DUP2 MSTORE POP POP DUP2 MSTORE PUSH1 0x20 ADD SWAP1 PUSH1 0x1 ADD SWAP1 PUSH2 0xE37 JUMP JUMPDEST POP POP POP POP SWAP1 POP PUSH1 0x0 JUMPDEST PUSH1 0xA PUSH1 0x0 DUP6 DUP6 DUP2 MLOAD DUP2 LT PUSH2 0xF0C JUMPI PUSH2 0xF0C PUSH2 0x543D JUMP JUMPDEST PUSH1 0x20 MUL PUSH1 0x20 ADD ADD MLOAD PUSH1 0x1 PUSH1 0x1 PUSH1 0xA0 SHL SUB AND PUSH1 0x1 PUSH1 0x1 PUSH1 0xA0 SHL SUB AND DUP2 MSTORE PUSH1 0x20 ADD SWAP1 DUP2 MSTORE PUSH1 0x20 ADD PUSH1 0x0 KECCAK256 PUSH1 0x2 ADD DUP1 SLOAD SWAP1 POP DUP2 LT ISZERO PUSH2 0x1009 JUMPI DUP6 PUSH1 0x0 ADD CALLDATALOAD DUP3 DUP3 DUP2 MLOAD DUP2 LT PUSH2 0xF59 JUMPI PUSH2 0xF59 PUSH2 0x543D JUMP JUMPDEST PUSH1 0x20 MUL PUSH1 0x20 ADD ADD MLOAD PUSH1 0x0 ADD MLOAD EQ ISZERO PUSH2 0xFF7 JUMPI PUSH1 0x1 PUSH1 0xA PUSH1 0x0 DUP7 DUP7 DUP2 MLOAD DUP2 LT PUSH2 0xF83 JUMPI PUSH2 0xF83 PUSH2 0x543D JUMP JUMPDEST PUSH1 0x20 MUL PUSH1 0x20 ADD ADD MLOAD PUSH1 0x1 PUSH1 0x1 PUSH1 0xA0 SHL SUB AND PUSH1 0x1 PUSH1 0x1 PUSH1 0xA0 SHL SUB AND DUP2 MSTORE PUSH1 0x20 ADD SWAP1 DUP2 MSTORE PUSH1 0x20 ADD PUSH1 0x0 KECCAK256 PUSH1 0x2 ADD DUP3 DUP2 SLOAD DUP2 LT PUSH2 0xFBF JUMPI PUSH2 0xFBF PUSH2 0x543D JUMP JUMPDEST SWAP1 PUSH1 0x0 MSTORE PUSH1 0x20 PUSH1 0x0 KECCAK256 SWAP1 PUSH1 0x2 MUL ADD PUSH1 0x1 ADD PUSH1 0x3 PUSH2 0x100 EXP DUP2 SLOAD DUP2 PUSH1 0xFF MUL NOT AND SWAP1 DUP4 PUSH1 0x2 DUP2 GT ISZERO PUSH2 0xFF1 JUMPI PUSH2 0xFF1 PUSH2 0x4C48 JUMP JUMPDEST MUL OR SWAP1 SSTORE POP JUMPDEST DUP1 PUSH2 0x1001 DUP2 PUSH2 0x5469 JUMP JUMPDEST SWAP2 POP POP PUSH2 0xEF6 JUMP JUMPDEST POP PUSH2 0x1031 DUP6 PUSH1 0x0 ADD CALLDATALOAD DUP5 DUP5 DUP2 MLOAD DUP2 LT PUSH2 0x1024 JUMPI PUSH2 0x1024 PUSH2 0x543D JUMP JUMPDEST PUSH1 0x20 MUL PUSH1 0x20 ADD ADD MLOAD PUSH2 0x4533 JUMP JUMPDEST POP DUP1 PUSH2 0x103C DUP2 PUSH2 0x5469 JUMP JUMPDEST SWAP2 POP POP PUSH2 0xD10 JUMP JUMPDEST POP PUSH1 0x0 PUSH1 0xD DUP2 PUSH2 0x105A PUSH1 0xE0 DUP8 ADD PUSH1 0xC0 DUP9 ADD PUSH2 0x54E4 JUMP JUMPDEST PUSH1 0x3 DUP2 GT ISZERO PUSH2 0x106B JUMPI PUSH2 0x106B PUSH2 0x4C48 JUMP JUMPDEST DUP2 MSTORE PUSH1 0x20 ADD SWAP1 DUP2 MSTORE PUSH1 0x20 ADD PUSH1 0x0 KECCAK256 PUSH1 0x0 DUP6 PUSH1 0xE0 ADD PUSH1 0x20 DUP2 ADD SWAP1 PUSH2 0x108E SWAP2 SWAP1 PUSH2 0x54C9 JUMP JUMPDEST PUSH2 0xFFFF AND PUSH2 0xFFFF AND DUP2 MSTORE PUSH1 0x20 ADD SWAP1 DUP2 MSTORE PUSH1 0x20 ADD PUSH1 0x0 KECCAK256 DUP1 SLOAD DUP1 PUSH1 0x20 MUL PUSH1 0x20 ADD PUSH1 0x40 MLOAD SWAP1 DUP2 ADD PUSH1 0x40 MSTORE DUP1 SWAP3 SWAP2 SWAP1 DUP2 DUP2 MSTORE PUSH1 0x20 ADD PUSH1 0x0 SWAP1 JUMPDEST DUP3 DUP3 LT ISZERO PUSH2 0x122E JUMPI PUSH1 0x0 DUP5 DUP2 MSTORE PUSH1 0x20 SWAP1 DUP2 SWAP1 KECCAK256 PUSH1 0x40 DUP1 MLOAD PUSH2 0x120 DUP2 ADD DUP3 MSTORE PUSH1 0x5 DUP7 MUL SWAP1 SWAP3 ADD DUP1 SLOAD DUP4 MSTORE PUSH1 0x1 DUP2 ADD SLOAD SWAP4 DUP4 ADD SWAP4 SWAP1 SWAP4 MSTORE PUSH1 0x2 DUP4 ADD SLOAD PUSH1 0x1 PUSH1 0x1 PUSH1 0xA0 SHL SUB SWAP1 DUP2 AND SWAP2 DUP4 ADD SWAP2 SWAP1 SWAP2 MSTORE PUSH1 0x3 DUP1 DUP5 ADD SLOAD SWAP2 DUP3 AND PUSH1 0x60 DUP5 ADD MSTORE PUSH1 0xFF PUSH1 0x1 PUSH1 0xA0 SHL DUP4 DIV DUP2 AND ISZERO ISZERO PUSH1 0x80 DUP6 ADD MSTORE PUSH1 0x1 PUSH1 0xA8 SHL DUP4 DIV DUP2 AND ISZERO ISZERO PUSH1 0xA0 DUP6 ADD MSTORE SWAP3 SWAP4 SWAP3 PUSH1 0xC0 DUP6 ADD SWAP3 PUSH1 0x1 PUSH1 0xB0 SHL SWAP1 DIV AND SWAP1 DUP2 GT ISZERO PUSH2 0x1160 JUMPI PUSH2 0x1160 PUSH2 0x4C48 JUMP JUMPDEST PUSH1 0x3 DUP2 GT ISZERO PUSH2 0x1171 JUMPI PUSH2 0x1171 PUSH2 0x4C48 JUMP JUMPDEST DUP2 MSTORE PUSH1 0x3 DUP3 ADD SLOAD PUSH1 0x1 PUSH1 0xB8 SHL SWAP1 DIV PUSH2 0xFFFF AND PUSH1 0x20 DUP3 ADD MSTORE PUSH1 0x4 DUP3 ADD DUP1 SLOAD PUSH1 0x40 SWAP1 SWAP3 ADD SWAP2 PUSH2 0x119D SWAP1 PUSH2 0x54FF JUMP JUMPDEST DUP1 PUSH1 0x1F ADD PUSH1 0x20 DUP1 SWAP2 DIV MUL PUSH1 0x20 ADD PUSH1 0x40 MLOAD SWAP1 DUP2 ADD PUSH1 0x40 MSTORE DUP1 SWAP3 SWAP2 SWAP1 DUP2 DUP2 MSTORE PUSH1 0x20 ADD DUP3 DUP1 SLOAD PUSH2 0x11C9 SWAP1 PUSH2 0x54FF JUMP JUMPDEST DUP1 ISZERO PUSH2 0x1216 JUMPI DUP1 PUSH1 0x1F LT PUSH2 0x11EB JUMPI PUSH2 0x100 DUP1 DUP4 SLOAD DIV MUL DUP4 MSTORE SWAP2 PUSH1 0x20 ADD SWAP2 PUSH2 0x1216 JUMP JUMPDEST DUP3 ADD SWAP2 SWAP1 PUSH1 0x0 MSTORE PUSH1 0x20 PUSH1 0x0 KECCAK256 SWAP1 JUMPDEST DUP2 SLOAD DUP2 MSTORE SWAP1 PUSH1 0x1 ADD SWAP1 PUSH1 0x20 ADD DUP1 DUP4 GT PUSH2 0x11F9 JUMPI DUP3 SWAP1 SUB PUSH1 0x1F AND DUP3 ADD SWAP2 JUMPDEST POP POP POP POP POP DUP2 MSTORE POP POP DUP2 MSTORE PUSH1 0x20 ADD SWAP1 PUSH1 0x1 ADD SWAP1 PUSH2 0x10C4 JUMP JUMPDEST POP POP POP POP SWAP1 POP PUSH1 0x0 JUMPDEST DUP2 MLOAD DUP2 LT ISZERO PUSH2 0x1315 JUMPI DUP5 PUSH1 0x0 ADD CALLDATALOAD DUP3 DUP3 DUP2 MLOAD DUP2 LT PUSH2 0x1257 JUMPI PUSH2 0x1257 PUSH2 0x543D JUMP JUMPDEST PUSH1 0x20 MUL PUSH1 0x20 ADD ADD MLOAD PUSH1 0x0 ADD MLOAD EQ ISZERO PUSH2 0x1303 JUMPI PUSH1 0x1 PUSH1 0xD PUSH1 0x0 PUSH2 0x127F PUSH1 0xE0 DUP10 ADD PUSH1 0xC0 DUP11 ADD PUSH2 0x54E4 JUMP JUMPDEST PUSH1 0x3 DUP2 GT ISZERO PUSH2 0x1290 JUMPI PUSH2 0x1290 PUSH2 0x4C48 JUMP JUMPDEST DUP2 MSTORE PUSH1 0x20 ADD SWAP1 DUP2 MSTORE PUSH1 0x20 ADD PUSH1 0x0 KECCAK256 PUSH1 0x0 DUP8 PUSH1 0xE0 ADD PUSH1 0x20 DUP2 ADD SWAP1 PUSH2 0x12B3 SWAP2 SWAP1 PUSH2 0x54C9 JUMP JUMPDEST PUSH2 0xFFFF AND PUSH2 0xFFFF AND DUP2 MSTORE PUSH1 0x20 ADD SWAP1 DUP2 MSTORE PUSH1 0x20 ADD PUSH1 0x0 KECCAK256 DUP3 DUP2 SLOAD DUP2 LT PUSH2 0x12DA JUMPI PUSH2 0x12DA PUSH2 0x543D JUMP JUMPDEST SWAP1 PUSH1 0x0 MSTORE PUSH1 0x20 PUSH1 0x0 KECCAK256 SWAP1 PUSH1 0x5 MUL ADD PUSH1 0x3 ADD PUSH1 0x15 PUSH2 0x100 EXP DUP2 SLOAD DUP2 PUSH1 0xFF MUL NOT AND SWAP1 DUP4 ISZERO ISZERO MUL OR SWAP1 SSTORE POP JUMPDEST DUP1 PUSH2 0x130D DUP2 PUSH2 0x5469 JUMP JUMPDEST SWAP2 POP POP PUSH2 0x1237 JUMP JUMPDEST POP PUSH1 0x40 MLOAD CALLER SWAP1 DUP6 CALLDATALOAD SWAP1 PUSH32 0xB2C608416221878976DDFEF731FF33921EA021E89AA0DB861BB162A67C8428CF SWAP1 PUSH2 0x1353 SWAP1 TIMESTAMP SWAP1 PUSH1 0x1 SWAP1 PUSH1 0x0 SWAP1 DUP3 SWAP1 PUSH2 0x553A JUMP JUMPDEST PUSH1 0x40 MLOAD DUP1 SWAP2 SUB SWAP1 LOG3 POP POP POP POP JUMP JUMPDEST PUSH2 0x1369 PUSH2 0x4377 JUMP JUMPDEST PUSH1 0x9 DUP1 SLOAD PUSH1 0xFF NOT DUP2 AND PUSH1 0xFF SWAP1 SWAP2 AND ISZERO OR SWAP1 SSTORE JUMP JUMPDEST PUSH2 0x1385 PUSH2 0x4377 JUMP JUMPDEST PUSH1 0x4 SSTORE JUMP JUMPDEST PUSH2 0x13D9 PUSH1 0x40 DUP1 MLOAD PUSH2 0x120 DUP2 ADD DUP3 MSTORE PUSH1 0x0 DUP1 DUP3 MSTORE PUSH1 0x20 DUP3 ADD DUP2 SWAP1 MSTORE SWAP2 DUP2 ADD DUP3 SWAP1 MSTORE PUSH1 0x60 DUP2 ADD DUP3 SWAP1 MSTORE PUSH1 0x80 DUP2 ADD DUP3 SWAP1 MSTORE PUSH1 0xA0 DUP2 ADD DUP3 SWAP1 MSTORE SWAP1 PUSH1 0xC0 DUP3 ADD SWAP1 DUP2 MSTORE PUSH1 0x0 PUSH1 0x20 DUP3 ADD MSTORE PUSH1 0x60 PUSH1 0x40 SWAP1 SWAP2 ADD MSTORE SWAP1 JUMP JUMPDEST PUSH1 0x0 PUSH1 0xD PUSH1 0x0 DUP6 PUSH1 0x3 DUP2 GT ISZERO PUSH2 0x13F1 JUMPI PUSH2 0x13F1 PUSH2 0x4C48 JUMP JUMPDEST DUP2 MSTORE PUSH1 0x20 ADD SWAP1 DUP2 MSTORE PUSH1 0x20 ADD PUSH1 0x0 KECCAK256 PUSH1 0x0 DUP5 PUSH2 0xFFFF AND PUSH2 0xFFFF AND DUP2 MSTORE PUSH1 0x20 ADD SWAP1 DUP2 MSTORE PUSH1 0x20 ADD PUSH1 0x0 KECCAK256 DUP1 SLOAD DUP1 PUSH1 0x20 MUL PUSH1 0x20 ADD PUSH1 0x40 MLOAD SWAP1 DUP2 ADD PUSH1 0x40 MSTORE DUP1 SWAP3 SWAP2 SWAP1 DUP2 DUP2 MSTORE PUSH1 0x20 ADD PUSH1 0x0 SWAP1 JUMPDEST DUP3 DUP3 LT ISZERO PUSH2 0x15A2 JUMPI PUSH1 0x0 DUP5 DUP2 MSTORE PUSH1 0x20 SWAP1 DUP2 SWAP1 KECCAK256 PUSH1 0x40 DUP1 MLOAD PUSH2 0x120 DUP2 ADD DUP3 MSTORE PUSH1 0x5 DUP7 MUL SWAP1 SWAP3 ADD DUP1 SLOAD DUP4 MSTORE PUSH1 0x1 DUP2 ADD SLOAD SWAP4 DUP4 ADD SWAP4 SWAP1 SWAP4 MSTORE PUSH1 0x2 DUP4 ADD SLOAD PUSH1 0x1 PUSH1 0x1 PUSH1 0xA0 SHL SUB SWAP1 DUP2 AND SWAP2 DUP4 ADD SWAP2 SWAP1 SWAP2 MSTORE PUSH1 0x3 DUP1 DUP5 ADD SLOAD SWAP2 DUP3 AND PUSH1 0x60 DUP5 ADD MSTORE PUSH1 0xFF PUSH1 0x1 PUSH1 0xA0 SHL DUP4 DIV DUP2 AND ISZERO ISZERO PUSH1 0x80 DUP6 ADD MSTORE PUSH1 0x1 PUSH1 0xA8 SHL DUP4 DIV DUP2 AND ISZERO ISZERO PUSH1 0xA0 DUP6 ADD MSTORE SWAP3 SWAP4 SWAP3 PUSH1 0xC0 DUP6 ADD SWAP3 PUSH1 0x1 PUSH1 0xB0 SHL SWAP1 DIV AND SWAP1 DUP2 GT ISZERO PUSH2 0x14D4 JUMPI PUSH2 0x14D4 PUSH2 0x4C48 JUMP JUMPDEST PUSH1 0x3 DUP2 GT ISZERO PUSH2 0x14E5 JUMPI PUSH2 0x14E5 PUSH2 0x4C48 JUMP JUMPDEST DUP2 MSTORE PUSH1 0x3 DUP3 ADD SLOAD PUSH1 0x1 PUSH1 0xB8 SHL SWAP1 DIV PUSH2 0xFFFF AND PUSH1 0x20 DUP3 ADD MSTORE PUSH1 0x4 DUP3 ADD DUP1 SLOAD PUSH1 0x40 SWAP1 SWAP3 ADD SWAP2 PUSH2 0x1511 SWAP1 PUSH2 0x54FF JUMP JUMPDEST DUP1 PUSH1 0x1F ADD PUSH1 0x20 DUP1 SWAP2 DIV MUL PUSH1 0x20 ADD PUSH1 0x40 MLOAD SWAP1 DUP2 ADD PUSH1 0x40 MSTORE DUP1 SWAP3 SWAP2 SWAP1 DUP2 DUP2 MSTORE PUSH1 0x20 ADD DUP3 DUP1 SLOAD PUSH2 0x153D SWAP1 PUSH2 0x54FF JUMP JUMPDEST DUP1 ISZERO PUSH2 0x158A JUMPI DUP1 PUSH1 0x1F LT PUSH2 0x155F JUMPI PUSH2 0x100 DUP1 DUP4 SLOAD DIV MUL DUP4 MSTORE SWAP2 PUSH1 0x20 ADD SWAP2 PUSH2 0x158A JUMP JUMPDEST DUP3 ADD SWAP2 SWAP1 PUSH1 0x0 MSTORE PUSH1 0x20 PUSH1 0x0 KECCAK256 SWAP1 JUMPDEST DUP2 SLOAD DUP2 MSTORE SWAP1 PUSH1 0x1 ADD SWAP1 PUSH1 0x20 ADD DUP1 DUP4 GT PUSH2 0x156D JUMPI DUP3 SWAP1 SUB PUSH1 0x1F AND DUP3 ADD SWAP2 JUMPDEST POP POP POP POP POP DUP2 MSTORE POP POP DUP2 MSTORE PUSH1 0x20 ADD SWAP1 PUSH1 0x1 ADD SWAP1 PUSH2 0x1438 JUMP JUMPDEST POP POP POP POP SWAP1 POP PUSH1 0x0 JUMPDEST DUP2 MLOAD DUP2 LT ISZERO PUSH2 0x1608 JUMPI DUP6 DUP3 DUP3 DUP2 MLOAD DUP2 LT PUSH2 0x15C7 JUMPI PUSH2 0x15C7 PUSH2 0x543D JUMP JUMPDEST PUSH1 0x20 MUL PUSH1 0x20 ADD ADD MLOAD PUSH1 0x0 ADD MLOAD EQ ISZERO PUSH2 0x15F6 JUMPI DUP2 DUP2 DUP2 MLOAD DUP2 LT PUSH2 0x15EB JUMPI PUSH2 0x15EB PUSH2 0x543D JUMP JUMPDEST PUSH1 0x20 MUL PUSH1 0x20 ADD ADD MLOAD SWAP3 POP JUMPDEST DUP1 PUSH2 0x1600 DUP2 PUSH2 0x5469 JUMP JUMPDEST SWAP2 POP POP PUSH2 0x15AB JUMP JUMPDEST POP POP SWAP4 SWAP3 POP POP POP JUMP JUMPDEST PUSH2 0x1619 PUSH2 0x4477 JUMP JUMPDEST PUSH1 0x1 PUSH1 0x1 PUSH1 0xA0 SHL SUB DUP6 AND PUSH2 0x1653 JUMPI PUSH1 0x40 MLOAD PUSH3 0x461BCD PUSH1 0xE5 SHL DUP2 MSTORE PUSH1 0x20 PUSH1 0x4 DUP3 ADD MSTORE PUSH1 0x1 PUSH1 0x24 DUP3 ADD MSTORE PUSH1 0x7 PUSH1 0xFB SHL PUSH1 0x44 DUP3 ADD MSTORE PUSH1 0x64 ADD PUSH2 0x4E4 JUMP JUMPDEST CALLVALUE PUSH1 0x2 SLOAD GT ISZERO PUSH2 0x1689 JUMPI PUSH1 0x40 MLOAD PUSH3 0x461BCD PUSH1 0xE5 SHL DUP2 MSTORE PUSH1 0x20 PUSH1 0x4 DUP3 ADD MSTORE PUSH1 0x1 PUSH1 0x24 DUP3 ADD MSTORE PUSH1 0x35 PUSH1 0xF8 SHL PUSH1 0x44 DUP3 ADD MSTORE PUSH1 0x64 ADD PUSH2 0x4E4 JUMP JUMPDEST PUSH2 0x1692 DUP6 PUSH2 0x43B6 JUMP JUMPDEST PUSH2 0x16C2 JUMPI PUSH1 0x40 MLOAD PUSH3 0x461BCD PUSH1 0xE5 SHL DUP2 MSTORE PUSH1 0x20 PUSH1 0x4 DUP3 ADD MSTORE PUSH1 0x1 PUSH1 0x24 DUP3 ADD MSTORE PUSH1 0x39 PUSH1 0xF8 SHL PUSH1 0x44 DUP3 ADD MSTORE PUSH1 0x64 ADD PUSH2 0x4E4 JUMP JUMPDEST PUSH1 0x0 DUP7 GT PUSH2 0x16F7 JUMPI PUSH1 0x40 MLOAD PUSH3 0x461BCD PUSH1 0xE5 SHL DUP2 MSTORE PUSH1 0x20 PUSH1 0x4 DUP3 ADD MSTORE PUSH1 0x2 PUSH1 0x24 DUP3 ADD MSTORE PUSH2 0x313 PUSH1 0xF4 SHL PUSH1 0x44 DUP3 ADD MSTORE PUSH1 0x64 ADD PUSH2 0x4E4 JUMP JUMPDEST PUSH1 0x20 DUP4 GT ISZERO PUSH2 0x1748 JUMPI PUSH1 0x40 MLOAD PUSH3 0x461BCD PUSH1 0xE5 SHL DUP2 MSTORE PUSH1 0x20 PUSH1 0x4 DUP3 ADD MSTORE PUSH1 0x1A PUSH1 0x24 DUP3 ADD MSTORE PUSH32 0x537472696E67206D757374206265203C3D203332206279746573000000000000 PUSH1 0x44 DUP3 ADD MSTORE PUSH1 0x64 ADD PUSH2 0x4E4 JUMP JUMPDEST PUSH1 0x0 DUP3 PUSH1 0x3 DUP2 GT ISZERO PUSH2 0x175C JUMPI PUSH2 0x175C PUSH2 0x4C48 JUMP JUMPDEST EQ ISZERO PUSH2 0x17C7 JUMPI DUP1 PUSH2 0xFFFF AND PUSH1 0x0 LT DUP1 ISZERO PUSH2 0x177B JUMPI POP PUSH1 0x7 DUP2 PUSH2 0xFFFF AND GT ISZERO JUMPDEST PUSH2 0x17C7 JUMPI PUSH1 0x40 MLOAD PUSH3 0x461BCD PUSH1 0xE5 SHL DUP2 MSTORE PUSH1 0x20 PUSH1 0x4 DUP3 ADD MSTORE PUSH1 0x17 PUSH1 0x24 DUP3 ADD MSTORE PUSH32 0x4D757374206265206265747765656E203120616E642037000000000000000000 PUSH1 0x44 DUP3 ADD MSTORE PUSH1 0x64 ADD PUSH2 0x4E4 JUMP JUMPDEST PUSH1 0x1 DUP3 PUSH1 0x3 DUP2 GT ISZERO PUSH2 0x17DB JUMPI PUSH2 0x17DB PUSH2 0x4C48 JUMP JUMPDEST EQ ISZERO PUSH2 0x1846 JUMPI DUP1 PUSH2 0xFFFF AND PUSH1 0x0 LT DUP1 ISZERO PUSH2 0x17FA JUMPI POP PUSH1 0x1C DUP2 PUSH2 0xFFFF AND GT ISZERO JUMPDEST PUSH2 0x1846 JUMPI PUSH1 0x40 MLOAD PUSH3 0x461BCD PUSH1 0xE5 SHL DUP2 MSTORE PUSH1 0x20 PUSH1 0x4 DUP3 ADD MSTORE PUSH1 0x1B PUSH1 0x24 DUP3 ADD MSTORE PUSH32 0x4D757374757374206265206265747765656E203120616E642032380000000000 PUSH1 0x44 DUP3 ADD MSTORE PUSH1 0x64 ADD PUSH2 0x4E4 JUMP JUMPDEST PUSH1 0x2 DUP3 PUSH1 0x3 DUP2 GT ISZERO PUSH2 0x185A JUMPI PUSH2 0x185A PUSH2 0x4C48 JUMP JUMPDEST EQ ISZERO PUSH2 0x18C5 JUMPI DUP1 PUSH2 0xFFFF AND PUSH1 0x0 LT DUP1 ISZERO PUSH2 0x1879 JUMPI POP PUSH1 0x5A DUP2 PUSH2 0xFFFF AND GT ISZERO JUMPDEST PUSH2 0x18C5 JUMPI PUSH1 0x40 MLOAD PUSH3 0x461BCD PUSH1 0xE5 SHL DUP2 MSTORE PUSH1 0x20 PUSH1 0x4 DUP3 ADD MSTORE PUSH1 0x18 PUSH1 0x24 DUP3 ADD MSTORE PUSH32 0x4D757374206265206265747765656E203120616E642039300000000000000000 PUSH1 0x44 DUP3 ADD MSTORE PUSH1 0x64 ADD PUSH2 0x4E4 JUMP JUMPDEST PUSH1 0x3 DUP3 PUSH1 0x3 DUP2 GT ISZERO PUSH2 0x18D9 JUMPI PUSH2 0x18D9 PUSH2 0x4C48 JUMP JUMPDEST EQ ISZERO PUSH2 0x1945 JUMPI DUP1 PUSH2 0xFFFF AND PUSH1 0x0 LT DUP1 ISZERO PUSH2 0x18F9 JUMPI POP PUSH2 0x16D DUP2 PUSH2 0xFFFF AND GT ISZERO JUMPDEST PUSH2 0x1945 JUMPI PUSH1 0x40 MLOAD PUSH3 0x461BCD PUSH1 0xE5 SHL DUP2 MSTORE PUSH1 0x20 PUSH1 0x4 DUP3 ADD MSTORE PUSH1 0x19 PUSH1 0x24 DUP3 ADD MSTORE PUSH32 0x4D757374206265206265747765656E203120616E642033363500000000000000 PUSH1 0x44 DUP3 ADD MSTORE PUSH1 0x64 ADD PUSH2 0x4E4 JUMP JUMPDEST PUSH1 0x0 PUSH2 0x198C DUP8 DUP8 DUP8 DUP8 DUP1 DUP1 PUSH1 0x1F ADD PUSH1 0x20 DUP1 SWAP2 DIV MUL PUSH1 0x20 ADD PUSH1 0x40 MLOAD SWAP1 DUP2 ADD PUSH1 0x40 MSTORE DUP1 SWAP4 SWAP3 SWAP2 SWAP1 DUP2 DUP2 MSTORE PUSH1 0x20 ADD DUP4 DUP4 DUP1 DUP3 DUP5 CALLDATACOPY PUSH1 0x0 SWAP3 ADD SWAP2 SWAP1 SWAP2 MSTORE POP DUP10 SWAP3 POP DUP9 SWAP2 POP PUSH2 0x4680 SWAP1 POP JUMP JUMPDEST SWAP1 POP DUP1 PUSH1 0xD PUSH1 0x0 DUP6 PUSH1 0x3 DUP2 GT ISZERO PUSH2 0x19A5 JUMPI PUSH2 0x19A5 PUSH2 0x4C48 JUMP JUMPDEST DUP2 MSTORE PUSH1 0x20 DUP1 DUP3 ADD SWAP3 SWAP1 SWAP3 MSTORE PUSH1 0x40 SWAP1 DUP2 ADD PUSH1 0x0 SWAP1 DUP2 KECCAK256 PUSH2 0xFFFF DUP8 AND DUP3 MSTORE DUP4 MSTORE DUP2 DUP2 KECCAK256 DUP1 SLOAD PUSH1 0x1 DUP2 DUP2 ADD DUP4 SSTORE SWAP2 DUP4 MSTORE SWAP2 DUP5 SWAP1 KECCAK256 DUP6 MLOAD PUSH1 0x5 SWAP1 SWAP4 MUL ADD SWAP2 DUP3 SSTORE SWAP3 DUP5 ADD MLOAD SWAP3 DUP2 ADD SWAP3 SWAP1 SWAP3 SSTORE DUP3 ADD MLOAD PUSH1 0x2 DUP3 ADD DUP1 SLOAD PUSH1 0x1 PUSH1 0x1 PUSH1 0xA0 SHL SUB SWAP3 DUP4 AND PUSH1 0x1 PUSH1 0x1 PUSH1 0xA0 SHL SUB NOT SWAP1 SWAP2 AND OR SWAP1 SSTORE PUSH1 0x60 DUP4 ADD MLOAD PUSH1 0x3 DUP1 DUP5 ADD DUP1 SLOAD PUSH1 0x80 DUP8 ADD MLOAD PUSH1 0xA0 DUP9 ADD MLOAD ISZERO ISZERO PUSH1 0x1 PUSH1 0xA8 SHL MUL PUSH1 0xFF PUSH1 0xA8 SHL NOT SWAP2 ISZERO ISZERO PUSH1 0x1 PUSH1 0xA0 SHL MUL PUSH21 0xFFFFFFFFFFFFFFFFFFFFFFFFFFFFFFFFFFFFFFFFFF NOT SWAP1 SWAP4 AND SWAP6 SWAP1 SWAP7 AND SWAP5 SWAP1 SWAP5 OR OR SWAP3 DUP4 AND DUP5 OR DUP2 SSTORE PUSH1 0xC0 DUP7 ADD MLOAD SWAP4 SWAP1 SWAP3 PUSH1 0xFF PUSH1 0xB0 SHL NOT SWAP1 SWAP2 AND PUSH2 0xFFFF PUSH1 0xA8 SHL NOT SWAP1 SWAP2 AND OR SWAP1 PUSH1 0x1 PUSH1 0xB0 SHL SWAP1 DUP5 SWAP1 DUP2 GT ISZERO PUSH2 0x1A9A JUMPI PUSH2 0x1A9A PUSH2 0x4C48 JUMP JUMPDEST MUL OR SWAP1 SSTORE POP PUSH1 0xE0 DUP3 ADD MLOAD PUSH1 0x3 DUP3 ADD DUP1 SLOAD PUSH2 0xFFFF SWAP1 SWAP3 AND PUSH1 0x1 PUSH1 0xB8 SHL MUL PUSH2 0xFFFF PUSH1 0xB8 SHL NOT SWAP1 SWAP3 AND SWAP2 SWAP1 SWAP2 OR SWAP1 SSTORE PUSH2 0x100 DUP3 ADD MLOAD DUP1 MLOAD PUSH2 0x1AE2 SWAP2 PUSH1 0x4 DUP5 ADD SWAP2 PUSH1 0x20 SWAP1 SWAP2 ADD SWAP1 PUSH2 0x4B71 JUMP JUMPDEST POP SWAP1 POP POP PUSH2 0x1B32 PUSH1 0x40 MLOAD DUP1 PUSH1 0x80 ADD PUSH1 0x40 MSTORE DUP1 DUP4 PUSH1 0x0 ADD MLOAD DUP2 MSTORE PUSH1 0x20 ADD DUP4 PUSH1 0xE0 ADD MLOAD PUSH2 0xFFFF AND DUP2 MSTORE PUSH1 0x20 ADD DUP4 PUSH1 0xC0 ADD MLOAD PUSH1 0x3 DUP2 GT ISZERO PUSH2 0x1B22 JUMPI PUSH2 0x1B22 PUSH2 0x4C48 JUMP JUMPDEST DUP2 MSTORE PUSH1 0x20 ADD PUSH1 0x0 SWAP1 MSTORE PUSH1 0x1 PUSH2 0x476E JUMP JUMPDEST DUP1 MLOAD PUSH1 0x40 MLOAD CALLER SWAP2 SWAP1 PUSH32 0xB2C608416221878976DDFEF731FF33921EA021E89AA0DB861BB162A67C8428CF SWAP1 PUSH2 0x1B6F SWAP1 TIMESTAMP SWAP1 PUSH1 0x1 SWAP1 PUSH1 0x0 SWAP1 DUP2 SWAP1 PUSH2 0x553A JUMP JUMPDEST PUSH1 0x40 MLOAD DUP1 SWAP2 SUB SWAP1 LOG3 POP POP POP POP POP POP POP JUMP JUMPDEST PUSH2 0x1B88 PUSH2 0x4377 JUMP JUMPDEST PUSH1 0x3 SSTORE JUMP JUMPDEST PUSH1 0x40 DUP1 MLOAD PUSH1 0x80 DUP2 ADD DUP3 MSTORE PUSH1 0x0 DUP1 DUP3 MSTORE PUSH1 0x20 DUP3 ADD DUP2 SWAP1 MSTORE SWAP2 DUP2 ADD DUP3 SWAP1 MSTORE PUSH1 0x60 DUP2 ADD DUP3 SWAP1 MSTORE SWAP1 PUSH2 0x1BBE PUSH3 0x15180 DUP5 PUSH2 0x5587 JUMP JUMPDEST SWAP1 POP PUSH1 0x0 DUP1 DUP3 DUP2 PUSH2 0x1BD2 DUP3 PUSH3 0x10BD9 PUSH2 0x559B JUMP JUMPDEST PUSH2 0x1BDF SWAP1 PUSH3 0x253D8C PUSH2 0x559B JUMP JUMPDEST SWAP1 POP PUSH1 0x0 PUSH3 0x23AB1 PUSH2 0x1BF2 DUP4 PUSH1 0x4 PUSH2 0x55DB JUMP JUMPDEST PUSH2 0x1BFC SWAP2 SWAP1 PUSH2 0x5662 JUMP JUMPDEST SWAP1 POP PUSH1 0x4 PUSH2 0x1C0D DUP3 PUSH3 0x23AB1 PUSH2 0x55DB JUMP JUMPDEST PUSH2 0x1C18 SWAP1 PUSH1 0x3 PUSH2 0x559B JUMP JUMPDEST PUSH2 0x1C22 SWAP2 SWAP1 PUSH2 0x5662 JUMP JUMPDEST PUSH2 0x1C2C SWAP1 DUP4 PUSH2 0x5690 JUMP JUMPDEST SWAP2 POP PUSH1 0x0 PUSH3 0x164B09 PUSH2 0x1C3F DUP5 PUSH1 0x1 PUSH2 0x559B JUMP JUMPDEST PUSH2 0x1C4B SWAP1 PUSH2 0xFA0 PUSH2 0x55DB JUMP JUMPDEST PUSH2 0x1C55 SWAP2 SWAP1 PUSH2 0x5662 JUMP JUMPDEST SWAP1 POP PUSH1 0x4 PUSH2 0x1C65 DUP3 PUSH2 0x5B5 PUSH2 0x55DB JUMP JUMPDEST PUSH2 0x1C6F SWAP2 SWAP1 PUSH2 0x5662 JUMP JUMPDEST PUSH2 0x1C79 SWAP1 DUP5 PUSH2 0x5690 JUMP JUMPDEST PUSH2 0x1C84 SWAP1 PUSH1 0x1F PUSH2 0x559B JUMP JUMPDEST SWAP3 POP PUSH1 0x0 PUSH2 0x98F PUSH2 0x1C96 DUP6 PUSH1 0x50 PUSH2 0x55DB JUMP JUMPDEST PUSH2 0x1CA0 SWAP2 SWAP1 PUSH2 0x5662 JUMP JUMPDEST SWAP1 POP PUSH1 0x0 PUSH1 0x50 PUSH2 0x1CB2 DUP4 PUSH2 0x98F PUSH2 0x55DB JUMP JUMPDEST PUSH2 0x1CBC SWAP2 SWAP1 PUSH2 0x5662 JUMP JUMPDEST PUSH2 0x1CC6 SWAP1 DUP7 PUSH2 0x5690 JUMP JUMPDEST SWAP1 POP PUSH2 0x1CD3 PUSH1 0xB DUP4 PUSH2 0x5662 JUMP JUMPDEST SWAP5 POP PUSH2 0x1CE0 DUP6 PUSH1 0xC PUSH2 0x55DB JUMP JUMPDEST PUSH2 0x1CEB DUP4 PUSH1 0x2 PUSH2 0x559B JUMP JUMPDEST PUSH2 0x1CF5 SWAP2 SWAP1 PUSH2 0x5690 JUMP JUMPDEST SWAP2 POP DUP5 DUP4 PUSH2 0x1D04 PUSH1 0x31 DUP8 PUSH2 0x5690 JUMP JUMPDEST PUSH2 0x1D0F SWAP1 PUSH1 0x64 PUSH2 0x55DB JUMP JUMPDEST PUSH2 0x1D19 SWAP2 SWAP1 PUSH2 0x559B JUMP JUMPDEST PUSH2 0x1D23 SWAP2 SWAP1 PUSH2 0x559B JUMP JUMPDEST SWAP1 SWAP8 POP SWAP2 POP DUP7 DUP3 DUP3 DUP3 PUSH1 0x0 PUSH1 0x1 JUMPDEST DUP4 DUP2 GT PUSH2 0x1D7E JUMPI DUP4 DUP2 EQ ISZERO PUSH2 0x1D55 JUMPI PUSH2 0x1D4E PUSH2 0xFFFF DUP15 AND DUP4 PUSH2 0x549B JUMP JUMPDEST SWAP2 POP PUSH2 0x1D6C JUMP JUMPDEST PUSH2 0x1D5F DUP6 DUP6 PUSH2 0x4921 JUMP JUMPDEST PUSH2 0x1D69 SWAP1 DUP4 PUSH2 0x549B JUMP JUMPDEST SWAP2 POP JUMPDEST DUP1 PUSH2 0x1D76 DUP2 PUSH2 0x5469 JUMP JUMPDEST SWAP2 POP POP PUSH2 0x1D31 JUMP JUMPDEST POP DUP1 SWAP11 POP PUSH2 0x1D90 DUP12 PUSH2 0xFFFF AND DUP6 PUSH2 0x49A7 JUMP JUMPDEST PUSH2 0xFFFF AND PUSH1 0x40 DUP16 ADD MSTORE PUSH2 0x1DA2 DUP16 PUSH2 0x4A75 JUMP JUMPDEST DUP15 PUSH1 0x20 ADD SWAP1 PUSH2 0xFFFF AND SWAP1 DUP2 PUSH2 0xFFFF AND DUP2 MSTORE POP POP DUP12 DUP15 PUSH1 0x0 ADD SWAP1 PUSH2 0xFFFF AND SWAP1 DUP2 PUSH2 0xFFFF AND DUP2 MSTORE POP POP DUP11 DUP15 PUSH1 0x60 ADD SWAP1 PUSH2 0xFFFF AND SWAP1 DUP2 PUSH2 0xFFFF AND DUP2 MSTORE POP POP POP POP POP POP POP POP POP POP POP POP POP POP POP SWAP2 SWAP1 POP JUMP JUMPDEST PUSH1 0x60 DUP1 DUP3 ISZERO PUSH2 0x1EE6 JUMPI CALLER PUSH1 0x0 SWAP1 DUP2 MSTORE PUSH1 0xA PUSH1 0x20 SWAP1 DUP2 MSTORE PUSH1 0x40 DUP1 DUP4 KECCAK256 PUSH1 0x2 ADD DUP1 SLOAD DUP3 MLOAD DUP2 DUP6 MUL DUP2 ADD DUP6 ADD SWAP1 SWAP4 MSTORE DUP1 DUP4 MSTORE SWAP2 SWAP4 SWAP1 SWAP3 DUP5 ADD JUMPDEST DUP3 DUP3 LT ISZERO PUSH2 0x1EDB JUMPI PUSH1 0x0 DUP5 DUP2 MSTORE PUSH1 0x20 SWAP1 DUP2 SWAP1 KECCAK256 PUSH1 0x40 DUP1 MLOAD PUSH1 0x80 DUP2 ADD DUP3 MSTORE PUSH1 0x2 DUP7 MUL SWAP1 SWAP3 ADD DUP1 SLOAD DUP4 MSTORE PUSH1 0x1 DUP2 ADD SLOAD PUSH2 0xFFFF DUP2 AND SWAP5 DUP5 ADD SWAP5 SWAP1 SWAP5 MSTORE SWAP2 SWAP3 SWAP1 DUP4 ADD SWAP1 PUSH3 0x10000 SWAP1 DIV PUSH1 0xFF AND PUSH1 0x3 DUP2 GT ISZERO PUSH2 0x1E7E JUMPI PUSH2 0x1E7E PUSH2 0x4C48 JUMP JUMPDEST PUSH1 0x3 DUP2 GT ISZERO PUSH2 0x1E8F JUMPI PUSH2 0x1E8F PUSH2 0x4C48 JUMP JUMPDEST DUP2 MSTORE PUSH1 0x20 ADD PUSH1 0x1 DUP3 ADD PUSH1 0x3 SWAP1 SLOAD SWAP1 PUSH2 0x100 EXP SWAP1 DIV PUSH1 0xFF AND PUSH1 0x2 DUP2 GT ISZERO PUSH2 0x1EB7 JUMPI PUSH2 0x1EB7 PUSH2 0x4C48 JUMP JUMPDEST PUSH1 0x2 DUP2 GT ISZERO PUSH2 0x1EC8 JUMPI PUSH2 0x1EC8 PUSH2 0x4C48 JUMP JUMPDEST DUP2 MSTORE POP POP DUP2 MSTORE PUSH1 0x20 ADD SWAP1 PUSH1 0x1 ADD SWAP1 PUSH2 0x1E25 JUMP JUMPDEST POP POP POP POP SWAP1 POP PUSH2 0x1FD0 JUMP JUMPDEST CALLER PUSH1 0x0 SWAP1 DUP2 MSTORE PUSH1 0xA PUSH1 0x20 SWAP1 DUP2 MSTORE PUSH1 0x40 DUP1 DUP4 KECCAK256 PUSH1 0x3 ADD DUP1 SLOAD DUP3 MLOAD DUP2 DUP6 MUL DUP2 ADD DUP6 ADD SWAP1 SWAP4 MSTORE DUP1 DUP4 MSTORE SWAP2 SWAP4 SWAP1 SWAP3 DUP5 ADD JUMPDEST DUP3 DUP3 LT ISZERO PUSH2 0x1FC9 JUMPI PUSH1 0x0 DUP5 DUP2 MSTORE PUSH1 0x20 SWAP1 DUP2 SWAP1 KECCAK256 PUSH1 0x40 DUP1 MLOAD PUSH1 0x80 DUP2 ADD DUP3 MSTORE PUSH1 0x2 DUP7 MUL SWAP1 SWAP3 ADD DUP1 SLOAD DUP4 MSTORE PUSH1 0x1 DUP2 ADD SLOAD PUSH2 0xFFFF DUP2 AND SWAP5 DUP5 ADD SWAP5 SWAP1 SWAP5 MSTORE SWAP2 SWAP3 SWAP1 DUP4 ADD SWAP1 PUSH3 0x10000 SWAP1 DIV PUSH1 0xFF AND PUSH1 0x3 DUP2 GT ISZERO PUSH2 0x1F6C JUMPI PUSH2 0x1F6C PUSH2 0x4C48 JUMP JUMPDEST PUSH1 0x3 DUP2 GT ISZERO PUSH2 0x1F7D JUMPI PUSH2 0x1F7D PUSH2 0x4C48 JUMP JUMPDEST DUP2 MSTORE PUSH1 0x20 ADD PUSH1 0x1 DUP3 ADD PUSH1 0x3 SWAP1 SLOAD SWAP1 PUSH2 0x100 EXP SWAP1 DIV PUSH1 0xFF AND PUSH1 0x2 DUP2 GT ISZERO PUSH2 0x1FA5 JUMPI PUSH2 0x1FA5 PUSH2 0x4C48 JUMP JUMPDEST PUSH1 0x2 DUP2 GT ISZERO PUSH2 0x1FB6 JUMPI PUSH2 0x1FB6 PUSH2 0x4C48 JUMP JUMPDEST DUP2 MSTORE POP POP DUP2 MSTORE PUSH1 0x20 ADD SWAP1 PUSH1 0x1 ADD SWAP1 PUSH2 0x1F13 JUMP JUMPDEST POP POP POP POP SWAP1 POP JUMPDEST PUSH1 0x0 DUP2 MLOAD PUSH8 0xFFFFFFFFFFFFFFFF DUP2 GT ISZERO PUSH2 0x1FEC JUMPI PUSH2 0x1FEC PUSH2 0x5134 JUMP JUMPDEST PUSH1 0x40 MLOAD SWAP1 DUP1 DUP3 MSTORE DUP1 PUSH1 0x20 MUL PUSH1 0x20 ADD DUP3 ADD PUSH1 0x40 MSTORE DUP1 ISZERO PUSH2 0x2087 JUMPI DUP2 PUSH1 0x20 ADD JUMPDEST PUSH2 0x2074 PUSH1 0x40 DUP1 MLOAD PUSH2 0x180 DUP2 ADD SWAP1 SWAP2 MSTORE PUSH1 0x0 PUSH1 0x60 DUP1 DUP4 ADD DUP3 DUP2 MSTORE PUSH1 0x80 DUP5 ADD DUP4 SWAP1 MSTORE PUSH1 0xA0 DUP5 ADD DUP4 SWAP1 MSTORE PUSH1 0xC0 DUP5 ADD DUP4 SWAP1 MSTORE PUSH1 0xE0 DUP5 ADD DUP4 SWAP1 MSTORE PUSH2 0x100 DUP5 ADD DUP4 SWAP1 MSTORE PUSH2 0x120 DUP5 ADD DUP4 SWAP1 MSTORE PUSH2 0x140 DUP5 ADD SWAP3 SWAP1 SWAP3 MSTORE PUSH2 0x160 DUP4 ADD MSTORE DUP2 SWAP1 DUP2 MSTORE PUSH1 0x20 ADD PUSH1 0x0 DUP2 MSTORE PUSH1 0x20 ADD PUSH1 0x0 DUP2 MSTORE POP SWAP1 JUMP JUMPDEST DUP2 MSTORE PUSH1 0x20 ADD SWAP1 PUSH1 0x1 SWAP1 SUB SWAP1 DUP2 PUSH2 0x200A JUMPI SWAP1 POP JUMPDEST POP SWAP1 POP PUSH1 0x0 JUMPDEST DUP3 MLOAD DUP2 LT ISZERO PUSH2 0x21E8 JUMPI PUSH2 0x20F8 DUP4 DUP3 DUP2 MLOAD DUP2 LT PUSH2 0x20AB JUMPI PUSH2 0x20AB PUSH2 0x543D JUMP JUMPDEST PUSH1 0x20 MUL PUSH1 0x20 ADD ADD MLOAD PUSH1 0x0 ADD MLOAD DUP5 DUP4 DUP2 MLOAD DUP2 LT PUSH2 0x20C9 JUMPI PUSH2 0x20C9 PUSH2 0x543D JUMP JUMPDEST PUSH1 0x20 MUL PUSH1 0x20 ADD ADD MLOAD PUSH1 0x40 ADD MLOAD DUP6 DUP5 DUP2 MLOAD DUP2 LT PUSH2 0x20E7 JUMPI PUSH2 0x20E7 PUSH2 0x543D JUMP JUMPDEST PUSH1 0x20 MUL PUSH1 0x20 ADD ADD MLOAD PUSH1 0x20 ADD MLOAD PUSH2 0x138A JUMP JUMPDEST DUP3 DUP3 DUP2 MLOAD DUP2 LT PUSH2 0x210A JUMPI PUSH2 0x210A PUSH2 0x543D JUMP JUMPDEST PUSH1 0x20 MUL PUSH1 0x20 ADD ADD MLOAD PUSH1 0x0 ADD DUP2 SWAP1 MSTORE POP DUP3 DUP2 DUP2 MLOAD DUP2 LT PUSH2 0x212B JUMPI PUSH2 0x212B PUSH2 0x543D JUMP JUMPDEST PUSH1 0x20 MUL PUSH1 0x20 ADD ADD MLOAD PUSH1 0x60 ADD MLOAD DUP3 DUP3 DUP2 MLOAD DUP2 LT PUSH2 0x2149 JUMPI PUSH2 0x2149 PUSH2 0x543D JUMP JUMPDEST PUSH1 0x20 MUL PUSH1 0x20 ADD ADD MLOAD PUSH1 0x20 ADD SWAP1 PUSH1 0x2 DUP2 GT ISZERO PUSH2 0x2166 JUMPI PUSH2 0x2166 PUSH2 0x4C48 JUMP JUMPDEST SWAP1 DUP2 PUSH1 0x2 DUP2 GT ISZERO PUSH2 0x2179 JUMPI PUSH2 0x2179 PUSH2 0x4C48 JUMP JUMPDEST DUP2 MSTORE POP POP PUSH1 0xE PUSH1 0x0 DUP4 DUP4 DUP2 MLOAD DUP2 LT PUSH2 0x2193 JUMPI PUSH2 0x2193 PUSH2 0x543D JUMP JUMPDEST PUSH1 0x20 MUL PUSH1 0x20 ADD ADD MLOAD PUSH1 0x0 ADD MLOAD PUSH1 0x0 ADD MLOAD DUP2 MSTORE PUSH1 0x20 ADD SWAP1 DUP2 MSTORE PUSH1 0x20 ADD PUSH1 0x0 KECCAK256 DUP1 SLOAD SWAP1 POP DUP3 DUP3 DUP2 MLOAD DUP2 LT PUSH2 0x21C7 JUMPI PUSH2 0x21C7 PUSH2 0x543D JUMP JUMPDEST PUSH1 0x20 SWAP1 DUP2 MUL SWAP2 SWAP1 SWAP2 ADD ADD MLOAD PUSH1 0x40 ADD MSTORE DUP1 PUSH2 0x21E0 DUP2 PUSH2 0x5469 JUMP JUMPDEST SWAP2 POP POP PUSH2 0x208D JUMP JUMPDEST POP SWAP4 SWAP3 POP POP POP JUMP JUMPDEST PUSH2 0x21F8 PUSH2 0x4377 JUMP JUMPDEST PUSH1 0x1 SSTORE JUMP JUMPDEST PUSH2 0x2205 PUSH2 0x4377 JUMP JUMPDEST PUSH1 0x3 SLOAD GASPRICE LT PUSH2 0x224B JUMPI PUSH1 0x40 MLOAD PUSH3 0x461BCD PUSH1 0xE5 SHL DUP2 MSTORE PUSH1 0x20 PUSH1 0x4 DUP3 ADD MSTORE PUSH1 0x12 PUSH1 0x24 DUP3 ADD MSTORE PUSH18 0x8EC2E640E0E4D2C6CA40E8DEDE40D0D2CED PUSH1 0x73 SHL PUSH1 0x44 DUP3 ADD MSTORE PUSH1 0x64 ADD PUSH2 0x4E4 JUMP JUMPDEST PUSH1 0x0 PUSH2 0x2256 TIMESTAMP PUSH2 0x4AAB JUMP JUMPDEST PUSH1 0x9 SLOAD SWAP1 SWAP2 POP PUSH5 0xFFFFFFFFFF PUSH2 0x100 SWAP1 SWAP2 DIV DUP2 AND SWAP1 DUP3 AND GT PUSH2 0x229F JUMPI PUSH1 0x40 MLOAD PUSH3 0x461BCD PUSH1 0xE5 SHL DUP2 MSTORE PUSH1 0x20 PUSH1 0x4 DUP3 ADD MSTORE PUSH1 0x2 PUSH1 0x24 DUP3 ADD MSTORE PUSH2 0xC4D PUSH1 0xF2 SHL PUSH1 0x44 DUP3 ADD MSTORE PUSH1 0x64 ADD PUSH2 0x4E4 JUMP JUMPDEST PUSH1 0x0 PUSH2 0x22AA TIMESTAMP PUSH2 0x1B8D JUMP JUMPDEST SWAP1 POP PUSH1 0x0 DUP1 JUMPDEST PUSH1 0x3 DUP2 GT PUSH2 0x2C10 JUMPI PUSH1 0x0 DUP2 PUSH2 0x22C6 JUMPI POP PUSH1 0x20 DUP4 ADD MLOAD JUMPDEST PUSH1 0x1 DUP3 EQ ISZERO PUSH2 0x22D3 JUMPI POP DUP3 MLOAD JUMPDEST PUSH1 0x2 DUP3 EQ ISZERO PUSH2 0x22E3 JUMPI POP PUSH1 0x40 DUP4 ADD MLOAD JUMPDEST PUSH1 0x3 DUP3 EQ ISZERO PUSH2 0x22F3 JUMPI POP PUSH1 0x60 DUP4 ADD MLOAD JUMPDEST PUSH1 0x0 DUP3 DUP2 MSTORE PUSH1 0xD PUSH1 0x20 SWAP1 DUP2 MSTORE PUSH1 0x40 DUP1 DUP4 KECCAK256 PUSH2 0xFFFF DUP6 AND DUP5 MSTORE SWAP1 SWAP2 MSTORE DUP2 KECCAK256 SLOAD SWAP1 JUMPDEST DUP2 DUP2 LT ISZERO PUSH2 0x2BFA JUMPI PUSH1 0x0 DUP5 DUP2 MSTORE PUSH1 0xD PUSH1 0x20 SWAP1 DUP2 MSTORE PUSH1 0x40 DUP1 DUP4 KECCAK256 PUSH2 0xFFFF DUP8 AND DUP5 MSTORE SWAP1 SWAP2 MSTORE SWAP1 KECCAK256 DUP1 SLOAD DUP3 SWAP1 DUP2 LT PUSH2 0x234A JUMPI PUSH2 0x234A PUSH2 0x543D JUMP JUMPDEST SWAP1 PUSH1 0x0 MSTORE PUSH1 0x20 PUSH1 0x0 KECCAK256 SWAP1 PUSH1 0x5 MUL ADD PUSH1 0x3 ADD PUSH1 0x15 SWAP1 SLOAD SWAP1 PUSH2 0x100 EXP SWAP1 DIV PUSH1 0xFF AND PUSH2 0x2BE8 JUMPI PUSH1 0x0 DUP5 DUP2 MSTORE PUSH1 0xD PUSH1 0x20 SWAP1 DUP2 MSTORE PUSH1 0x40 DUP1 DUP4 KECCAK256 PUSH2 0xFFFF DUP8 AND DUP5 MSTORE SWAP1 SWAP2 MSTORE DUP2 KECCAK256 DUP1 SLOAD DUP4 SWAP1 DUP2 LT PUSH2 0x239C JUMPI PUSH2 0x239C PUSH2 0x543D JUMP JUMPDEST PUSH1 0x0 SWAP2 DUP3 MSTORE PUSH1 0x20 DUP1 DUP4 KECCAK256 PUSH1 0x5 SWAP1 SWAP3 MUL SWAP1 SWAP2 ADD SLOAD DUP8 DUP4 MSTORE PUSH1 0xD DUP3 MSTORE PUSH1 0x40 DUP1 DUP5 KECCAK256 PUSH2 0xFFFF DUP10 AND DUP6 MSTORE SWAP1 SWAP3 MSTORE SWAP1 DUP3 KECCAK256 DUP1 SLOAD SWAP2 SWAP4 POP SWAP1 DUP5 SWAP1 DUP2 LT PUSH2 0x23DE JUMPI PUSH2 0x23DE PUSH2 0x543D JUMP JUMPDEST PUSH1 0x0 SWAP2 DUP3 MSTORE PUSH1 0x20 DUP1 DUP4 KECCAK256 PUSH1 0x3 PUSH1 0x5 SWAP1 SWAP4 MUL ADD SWAP2 SWAP1 SWAP2 ADD SLOAD DUP9 DUP4 MSTORE PUSH1 0xD DUP3 MSTORE PUSH1 0x40 DUP1 DUP5 KECCAK256 PUSH2 0xFFFF DUP11 AND DUP6 MSTORE SWAP1 SWAP3 MSTORE SWAP1 DUP3 KECCAK256 DUP1 SLOAD PUSH1 0x1 PUSH1 0x1 PUSH1 0xA0 SHL SUB SWAP1 SWAP3 AND SWAP4 POP SWAP1 DUP6 SWAP1 DUP2 LT PUSH2 0x242E JUMPI PUSH2 0x242E PUSH2 0x543D JUMP JUMPDEST PUSH1 0x0 SWAP2 DUP3 MSTORE PUSH1 0x20 DUP1 DUP4 KECCAK256 PUSH1 0x1 PUSH1 0x5 SWAP1 SWAP4 MUL ADD SWAP2 SWAP1 SWAP2 ADD SLOAD DUP10 DUP4 MSTORE PUSH1 0xD DUP3 MSTORE PUSH1 0x40 DUP1 DUP5 KECCAK256 PUSH2 0xFFFF DUP12 AND DUP6 MSTORE SWAP1 SWAP3 MSTORE SWAP1 DUP3 KECCAK256 DUP1 SLOAD SWAP2 SWAP4 POP SWAP1 DUP7 SWAP1 DUP2 LT PUSH2 0x2474 JUMPI PUSH2 0x2474 PUSH2 0x543D JUMP JUMPDEST PUSH1 0x0 SWAP2 DUP3 MSTORE PUSH1 0x20 DUP3 KECCAK256 PUSH1 0x2 PUSH1 0x5 SWAP1 SWAP3 MUL ADD ADD SLOAD PUSH1 0x1 SLOAD PUSH1 0x1 PUSH1 0x1 PUSH1 0xA0 SHL SUB SWAP1 SWAP2 AND SWAP3 POP DUP4 SWAP1 PUSH2 0x2710 SWAP1 PUSH2 0x24A7 SWAP1 DUP4 PUSH2 0x56CF JUMP JUMPDEST PUSH2 0x24B1 SWAP2 SWAP1 PUSH2 0x5587 JUMP JUMPDEST PUSH2 0x24BB SWAP2 SWAP1 PUSH2 0x5484 JUMP JUMPDEST SWAP1 POP PUSH1 0x0 DUP1 JUMPDEST PUSH1 0x0 DUP8 DUP2 MSTORE PUSH1 0xE PUSH1 0x20 MSTORE PUSH1 0x40 SWAP1 KECCAK256 SLOAD DUP2 LT ISZERO PUSH2 0x2BE0 JUMPI PUSH1 0x4 SLOAD DUP13 EQ ISZERO PUSH2 0x261C JUMPI PUSH1 0x40 DUP1 MLOAD DUP1 DUP3 ADD DUP3 MSTORE DUP9 DUP2 MSTORE PUSH1 0x20 ADD DUP3 SWAP1 MSTORE PUSH1 0x5 DUP9 SWAP1 SSTORE PUSH1 0x6 DUP3 SWAP1 SSTORE PUSH1 0x7 DUP1 SLOAD PUSH1 0xFF NOT AND SWAP1 SSTORE MLOAD PUSH4 0xA9059CBB PUSH1 0xE0 SHL DUP2 MSTORE CALLER PUSH1 0x4 DUP3 ADD MSTORE PUSH1 0x24 DUP2 ADD DUP4 SWAP1 MSTORE PUSH1 0x1 PUSH1 0x1 PUSH1 0xA0 SHL SUB DUP8 AND SWAP1 PUSH4 0xA9059CBB SWAP1 PUSH1 0x44 ADD PUSH1 0x20 PUSH1 0x40 MLOAD DUP1 DUP4 SUB DUP2 PUSH1 0x0 DUP8 DUP1 EXTCODESIZE ISZERO DUP1 ISZERO PUSH2 0x254D JUMPI PUSH1 0x0 DUP1 REVERT JUMPDEST POP GAS CALL ISZERO DUP1 ISZERO PUSH2 0x2561 JUMPI RETURNDATASIZE PUSH1 0x0 DUP1 RETURNDATACOPY RETURNDATASIZE PUSH1 0x0 REVERT JUMPDEST POP POP POP POP PUSH1 0x40 MLOAD RETURNDATASIZE PUSH1 0x1F NOT PUSH1 0x1F DUP3 ADD AND DUP3 ADD DUP1 PUSH1 0x40 MSTORE POP DUP2 ADD SWAP1 PUSH2 0x2585 SWAP2 SWAP1 PUSH2 0x56EE JUMP JUMPDEST PUSH2 0x25B6 JUMPI PUSH1 0x40 MLOAD PUSH3 0x461BCD PUSH1 0xE5 SHL DUP2 MSTORE PUSH1 0x20 PUSH1 0x4 DUP3 ADD MSTORE PUSH1 0x2 PUSH1 0x24 DUP3 ADD MSTORE PUSH2 0x1919 PUSH1 0xF1 SHL PUSH1 0x44 DUP3 ADD MSTORE PUSH1 0x64 ADD PUSH2 0x4E4 JUMP JUMPDEST PUSH1 0x9 SLOAD PUSH1 0x40 DUP1 MLOAD PUSH5 0xFFFFFFFFFF TIMESTAMP DUP2 AND DUP3 MSTORE PUSH2 0x100 SWAP1 SWAP4 DIV SWAP3 SWAP1 SWAP3 AND PUSH1 0x20 DUP4 ADD MSTORE PUSH1 0x0 SWAP1 DUP3 ADD MSTORE CALLER SWAP1 PUSH32 0x90192D7875364A53E351AE63FD2DFEF8DC941735B29FB0C504D06A0E21AE602E SWAP1 PUSH1 0x60 ADD PUSH1 0x40 MLOAD DUP1 SWAP2 SUB SWAP1 LOG2 POP POP POP POP POP POP POP POP POP POP POP POP POP POP JUMP JUMPDEST PUSH1 0x5 SLOAD DUP8 EQ DUP1 ISZERO PUSH2 0x262E JUMPI POP PUSH1 0x6 SLOAD DUP2 EQ JUMPDEST ISZERO PUSH2 0x2641 JUMPI PUSH1 0x7 DUP1 SLOAD PUSH1 0xFF NOT AND PUSH1 0x1 OR SWAP1 SSTORE JUMPDEST PUSH1 0x5 SLOAD ISZERO DUP1 PUSH2 0x2657 JUMPI POP PUSH1 0x7 SLOAD PUSH1 0xFF AND ISZERO ISZERO PUSH1 0x1 EQ JUMPDEST ISZERO PUSH2 0x2BCE JUMPI PUSH1 0x0 DUP8 DUP2 MSTORE PUSH1 0xE PUSH1 0x20 MSTORE PUSH1 0x40 DUP2 KECCAK256 DUP1 SLOAD DUP4 SWAP1 DUP2 LT PUSH2 0x267C JUMPI PUSH2 0x267C PUSH2 0x543D JUMP JUMPDEST PUSH1 0x0 SWAP2 DUP3 MSTORE PUSH1 0x20 SWAP1 SWAP2 KECCAK256 ADD SLOAD PUSH1 0x40 MLOAD PUSH4 0x6EB1769F PUSH1 0xE1 SHL DUP2 MSTORE PUSH1 0x1 PUSH1 0x1 PUSH1 0xA0 SHL SUB SWAP2 DUP3 AND PUSH1 0x4 DUP3 ADD DUP2 SWAP1 MSTORE ADDRESS PUSH1 0x24 DUP4 ADD MSTORE SWAP3 POP DUP8 SWAP2 DUP10 AND SWAP1 PUSH4 0xDD62ED3E SWAP1 PUSH1 0x44 ADD PUSH1 0x20 PUSH1 0x40 MLOAD DUP1 DUP4 SUB DUP2 PUSH1 0x0 DUP8 DUP1 EXTCODESIZE ISZERO DUP1 ISZERO PUSH2 0x26D7 JUMPI PUSH1 0x0 DUP1 REVERT JUMPDEST POP GAS CALL ISZERO DUP1 ISZERO PUSH2 0x26EB JUMPI RETURNDATASIZE PUSH1 0x0 DUP1 RETURNDATACOPY RETURNDATASIZE PUSH1 0x0 REVERT JUMPDEST POP POP POP POP PUSH1 0x40 MLOAD RETURNDATASIZE PUSH1 0x1F NOT PUSH1 0x1F DUP3 ADD AND DUP3 ADD DUP1 PUSH1 0x40 MSTORE POP DUP2 ADD SWAP1 PUSH2 0x270F SWAP2 SWAP1 PUSH2 0x570B JUMP JUMPDEST LT ISZERO DUP1 ISZERO PUSH2 0x2798 JUMPI POP PUSH1 0x40 MLOAD PUSH4 0x70A08231 PUSH1 0xE0 SHL DUP2 MSTORE PUSH1 0x1 PUSH1 0x1 PUSH1 0xA0 SHL SUB DUP3 DUP2 AND PUSH1 0x4 DUP4 ADD MSTORE DUP8 SWAP2 SWAP1 DUP10 AND SWAP1 PUSH4 0x70A08231 SWAP1 PUSH1 0x24 ADD PUSH1 0x20 PUSH1 0x40 MLOAD DUP1 DUP4 SUB DUP2 PUSH1 0x0 DUP8 DUP1 EXTCODESIZE ISZERO DUP1 ISZERO PUSH2 0x275E JUMPI PUSH1 0x0 DUP1 REVERT JUMPDEST POP GAS CALL ISZERO DUP1 ISZERO PUSH2 0x2772 JUMPI RETURNDATASIZE PUSH1 0x0 DUP1 RETURNDATACOPY RETURNDATASIZE PUSH1 0x0 REVERT JUMPDEST POP POP POP POP PUSH1 0x40 MLOAD RETURNDATASIZE PUSH1 0x1F NOT PUSH1 0x1F DUP3 ADD AND DUP3 ADD DUP1 PUSH1 0x40 MSTORE POP DUP2 ADD SWAP1 PUSH2 0x2796 SWAP2 SWAP1 PUSH2 0x570B JUMP JUMPDEST GT JUMPDEST ISZERO PUSH2 0x29E4 JUMPI DUP13 PUSH2 0x27A7 DUP2 PUSH2 0x5469 JUMP JUMPDEST SWAP14 POP PUSH2 0x27B5 SWAP1 POP DUP5 DUP5 PUSH2 0x549B JUMP JUMPDEST PUSH1 0x0 DUP10 DUP2 MSTORE PUSH1 0xC PUSH1 0x20 SWAP1 DUP2 MSTORE PUSH1 0x40 DUP1 DUP4 KECCAK256 PUSH1 0x1 PUSH1 0x1 PUSH1 0xA0 SHL SUB DUP7 AND DUP5 MSTORE SWAP1 SWAP2 MSTORE SWAP1 KECCAK256 SLOAD SWAP1 SWAP4 POP DUP5 LT ISZERO PUSH2 0x293D JUMPI PUSH1 0x0 DUP9 DUP2 MSTORE PUSH1 0xC PUSH1 0x20 SWAP1 DUP2 MSTORE PUSH1 0x40 DUP1 DUP4 KECCAK256 PUSH1 0x1 PUSH1 0x1 PUSH1 0xA0 SHL SUB DUP6 AND DUP5 MSTORE SWAP1 SWAP2 MSTORE DUP2 KECCAK256 DUP1 SLOAD DUP7 SWAP3 SWAP1 PUSH2 0x2814 SWAP1 DUP5 SWAP1 PUSH2 0x5484 JUMP JUMPDEST SWAP3 POP POP DUP2 SWAP1 SSTORE POP DUP1 PUSH1 0x1 PUSH1 0x1 PUSH1 0xA0 SHL SUB AND DUP9 PUSH1 0x0 DUP1 MLOAD PUSH1 0x20 PUSH2 0x5817 DUP4 CODECOPY DUP2 MLOAD SWAP2 MSTORE TIMESTAMP DUP10 PUSH1 0x0 PUSH1 0x40 MLOAD PUSH2 0x2848 SWAP4 SWAP3 SWAP2 SWAP1 PUSH2 0x5724 JUMP JUMPDEST PUSH1 0x40 MLOAD DUP1 SWAP2 SUB SWAP1 LOG3 DUP5 PUSH1 0x1 PUSH1 0x1 PUSH1 0xA0 SHL SUB AND DUP9 PUSH32 0xB2C608416221878976DDFEF731FF33921EA021E89AA0DB861BB162A67C8428CF TIMESTAMP PUSH1 0x1 PUSH1 0x0 PUSH1 0x2 PUSH1 0x40 MLOAD PUSH2 0x2893 SWAP5 SWAP4 SWAP3 SWAP2 SWAP1 PUSH2 0x553A JUMP JUMPDEST PUSH1 0x40 MLOAD DUP1 SWAP2 SUB SWAP1 LOG3 PUSH2 0x28A4 DUP14 PUSH2 0x4ABA JUMP JUMPDEST PUSH1 0x40 MLOAD PUSH4 0x23B872DD PUSH1 0xE0 SHL DUP2 MSTORE PUSH1 0x1 PUSH1 0x1 PUSH1 0xA0 SHL SUB DUP3 DUP2 AND PUSH1 0x4 DUP4 ADD MSTORE DUP7 DUP2 AND PUSH1 0x24 DUP4 ADD MSTORE PUSH1 0x44 DUP3 ADD DUP9 SWAP1 MSTORE DUP9 AND SWAP1 PUSH4 0x23B872DD SWAP1 PUSH1 0x64 ADD JUMPDEST PUSH1 0x20 PUSH1 0x40 MLOAD DUP1 DUP4 SUB DUP2 PUSH1 0x0 DUP8 DUP1 EXTCODESIZE ISZERO DUP1 ISZERO PUSH2 0x28F7 JUMPI PUSH1 0x0 DUP1 REVERT JUMPDEST POP GAS CALL ISZERO DUP1 ISZERO PUSH2 0x290B JUMPI RETURNDATASIZE PUSH1 0x0 DUP1 RETURNDATACOPY RETURNDATASIZE PUSH1 0x0 REVERT JUMPDEST POP POP POP POP PUSH1 0x40 MLOAD RETURNDATASIZE PUSH1 0x1F NOT PUSH1 0x1F DUP3 ADD AND DUP3 ADD DUP1 PUSH1 0x40 MSTORE POP DUP2 ADD SWAP1 PUSH2 0x292F SWAP2 SWAP1 PUSH2 0x56EE JUMP JUMPDEST PUSH2 0x2938 JUMPI PUSH1 0x0 DUP1 REVERT JUMPDEST PUSH2 0x2AF9 JUMP JUMPDEST DUP1 PUSH1 0x1 PUSH1 0x1 PUSH1 0xA0 SHL SUB AND DUP9 PUSH1 0x0 DUP1 MLOAD PUSH1 0x20 PUSH2 0x5817 DUP4 CODECOPY DUP2 MLOAD SWAP2 MSTORE TIMESTAMP DUP10 PUSH1 0x4 PUSH1 0x40 MLOAD PUSH2 0x296A SWAP4 SWAP3 SWAP2 SWAP1 PUSH2 0x5724 JUMP JUMPDEST PUSH1 0x40 MLOAD DUP1 SWAP2 SUB SWAP1 LOG3 PUSH1 0x0 DUP9 DUP2 MSTORE PUSH1 0xC PUSH1 0x20 SWAP1 DUP2 MSTORE PUSH1 0x40 DUP1 DUP4 KECCAK256 PUSH1 0x1 PUSH1 0x1 PUSH1 0xA0 SHL SUB DUP6 AND DUP5 MSTORE SWAP1 SWAP2 MSTORE DUP2 KECCAK256 DUP1 SLOAD DUP9 SWAP3 SWAP1 PUSH2 0x29A4 SWAP1 DUP5 SWAP1 PUSH2 0x549B JUMP JUMPDEST SWAP1 SWAP2 SSTORE POP POP PUSH1 0x40 MLOAD PUSH4 0x23B872DD PUSH1 0xE0 SHL DUP2 MSTORE PUSH1 0x1 PUSH1 0x1 PUSH1 0xA0 SHL SUB DUP3 DUP2 AND PUSH1 0x4 DUP4 ADD MSTORE ADDRESS PUSH1 0x24 DUP4 ADD MSTORE PUSH1 0x44 DUP3 ADD DUP9 SWAP1 MSTORE DUP9 AND SWAP1 PUSH4 0x23B872DD SWAP1 PUSH1 0x64 ADD PUSH2 0x28DD JUMP JUMPDEST DUP13 PUSH2 0x29EE DUP2 PUSH2 0x5469 JUMP JUMPDEST SWAP14 POP PUSH2 0x29FC SWAP1 POP DUP5 DUP5 PUSH2 0x549B JUMP JUMPDEST PUSH1 0x0 DUP10 DUP2 MSTORE PUSH1 0xC PUSH1 0x20 SWAP1 DUP2 MSTORE PUSH1 0x40 DUP1 DUP4 KECCAK256 PUSH1 0x1 PUSH1 0x1 PUSH1 0xA0 SHL SUB DUP7 AND DUP5 MSTORE SWAP1 SWAP2 MSTORE DUP2 KECCAK256 DUP1 SLOAD SWAP3 SWAP6 POP DUP7 SWAP3 SWAP1 SWAP2 SWAP1 PUSH2 0x2A33 SWAP1 DUP5 SWAP1 PUSH2 0x5484 JUMP JUMPDEST SWAP1 SWAP2 SSTORE POP PUSH2 0x2A43 SWAP1 POP DUP9 DUP3 PUSH2 0x4533 JUMP JUMPDEST CALLER PUSH1 0x1 PUSH1 0x1 PUSH1 0xA0 SHL SUB AND DUP9 PUSH1 0x0 DUP1 MLOAD PUSH1 0x20 PUSH2 0x5817 DUP4 CODECOPY DUP2 MLOAD SWAP2 MSTORE TIMESTAMP DUP10 PUSH1 0x3 PUSH1 0x40 MLOAD PUSH2 0x2A70 SWAP4 SWAP3 SWAP2 SWAP1 PUSH2 0x5724 JUMP JUMPDEST PUSH1 0x40 MLOAD DUP1 SWAP2 SUB SWAP1 LOG3 DUP1 PUSH1 0x1 PUSH1 0x1 PUSH1 0xA0 SHL SUB AND DUP9 PUSH1 0x0 DUP1 MLOAD PUSH1 0x20 PUSH2 0x5817 DUP4 CODECOPY DUP2 MLOAD SWAP2 MSTORE TIMESTAMP DUP10 PUSH1 0x1 PUSH1 0x40 MLOAD PUSH2 0x2AA5 SWAP4 SWAP3 SWAP2 SWAP1 PUSH2 0x5724 JUMP JUMPDEST PUSH1 0x40 MLOAD DUP1 SWAP2 SUB SWAP1 LOG3 DUP5 PUSH1 0x1 PUSH1 0x1 PUSH1 0xA0 SHL SUB AND DUP9 PUSH32 0xB2C608416221878976DDFEF731FF33921EA021E89AA0DB861BB162A67C8428CF TIMESTAMP PUSH1 0x1 PUSH1 0x0 PUSH1 0x3 PUSH1 0x40 MLOAD PUSH2 0x2AF0 SWAP5 SWAP4 SWAP3 SWAP2 SWAP1 PUSH2 0x553A JUMP JUMPDEST PUSH1 0x40 MLOAD DUP1 SWAP2 SUB SWAP1 LOG3 JUMPDEST PUSH1 0x0 DUP9 DUP2 MSTORE PUSH1 0xE PUSH1 0x20 MSTORE PUSH1 0x40 SWAP1 KECCAK256 SLOAD PUSH2 0x2B14 SWAP1 PUSH1 0x1 SWAP1 PUSH2 0x5484 JUMP JUMPDEST DUP3 EQ ISZERO PUSH2 0x2BCC JUMPI PUSH1 0x40 MLOAD PUSH4 0xA9059CBB PUSH1 0xE0 SHL DUP2 MSTORE CALLER PUSH1 0x4 DUP3 ADD MSTORE PUSH1 0x24 DUP2 ADD DUP5 SWAP1 MSTORE PUSH1 0x1 PUSH1 0x1 PUSH1 0xA0 SHL SUB DUP9 AND SWAP1 PUSH4 0xA9059CBB SWAP1 PUSH1 0x44 ADD PUSH1 0x20 PUSH1 0x40 MLOAD DUP1 DUP4 SUB DUP2 PUSH1 0x0 DUP8 DUP1 EXTCODESIZE ISZERO DUP1 ISZERO PUSH2 0x2B63 JUMPI PUSH1 0x0 DUP1 REVERT JUMPDEST POP GAS CALL ISZERO DUP1 ISZERO PUSH2 0x2B77 JUMPI RETURNDATASIZE PUSH1 0x0 DUP1 RETURNDATACOPY RETURNDATASIZE PUSH1 0x0 REVERT JUMPDEST POP POP POP POP PUSH1 0x40 MLOAD RETURNDATASIZE PUSH1 0x1F NOT PUSH1 0x1F DUP3 ADD AND DUP3 ADD DUP1 PUSH1 0x40 MSTORE POP DUP2 ADD SWAP1 PUSH2 0x2B9B SWAP2 SWAP1 PUSH2 0x56EE JUMP JUMPDEST PUSH2 0x2BCC JUMPI PUSH1 0x40 MLOAD PUSH3 0x461BCD PUSH1 0xE5 SHL DUP2 MSTORE PUSH1 0x20 PUSH1 0x4 DUP3 ADD MSTORE PUSH1 0x2 PUSH1 0x24 DUP3 ADD MSTORE PUSH2 0x1919 PUSH1 0xF1 SHL PUSH1 0x44 DUP3 ADD MSTORE PUSH1 0x64 ADD PUSH2 0x4E4 JUMP JUMPDEST POP JUMPDEST DUP1 PUSH2 0x2BD8 DUP2 PUSH2 0x5469 JUMP JUMPDEST SWAP2 POP POP PUSH2 0x24C1 JUMP JUMPDEST POP POP POP POP POP POP POP JUMPDEST DUP1 PUSH2 0x2BF2 DUP2 PUSH2 0x5469 JUMP JUMPDEST SWAP2 POP POP PUSH2 0x2313 JUMP JUMPDEST POP POP POP DUP1 DUP1 PUSH2 0x2C08 SWAP1 PUSH2 0x5469 JUMP JUMPDEST SWAP2 POP POP PUSH2 0x22B0 JUMP JUMPDEST POP PUSH1 0x0 PUSH1 0x5 DUP2 SWAP1 SSTORE PUSH1 0x6 SSTORE PUSH1 0x7 DUP1 SLOAD PUSH1 0xFF NOT AND SWAP1 SSTORE PUSH1 0x9 SLOAD PUSH1 0x40 DUP1 MLOAD PUSH5 0xFFFFFFFFFF TIMESTAMP DUP2 AND DUP3 MSTORE PUSH2 0x100 SWAP1 SWAP4 DIV SWAP1 SWAP3 AND PUSH1 0x20 DUP4 ADD MSTORE PUSH1 0x1 SWAP1 DUP3 ADD MSTORE CALLER SWAP1 PUSH32 0x90192D7875364A53E351AE63FD2DFEF8DC941735B29FB0C504D06A0E21AE602E SWAP1 PUSH1 0x60 ADD PUSH1 0x40 MLOAD DUP1 SWAP2 SUB SWAP1 LOG2 PUSH1 0x1 PUSH1 0x9 PUSH1 0x1 DUP3 DUP3 DUP3 SWAP1 SLOAD SWAP1 PUSH2 0x100 EXP SWAP1 DIV PUSH5 0xFFFFFFFFFF AND PUSH2 0x2C9D SWAP2 SWAP1 PUSH2 0x5757 JUMP JUMPDEST SWAP3 POP PUSH2 0x100 EXP DUP2 SLOAD DUP2 PUSH5 0xFFFFFFFFFF MUL NOT AND SWAP1 DUP4 PUSH5 0xFFFFFFFFFF AND MUL OR SWAP1 SSTORE POP POP POP POP JUMPDEST JUMP JUMPDEST PUSH2 0x2CCB PUSH2 0x4377 JUMP JUMPDEST PUSH1 0x2 SSTORE JUMP JUMPDEST PUSH2 0x2CD8 PUSH2 0x4377 JUMP JUMPDEST CALLER PUSH1 0x1 PUSH1 0x1 PUSH1 0xA0 SHL SUB DUP3 AND EQ DUP1 ISZERO PUSH2 0x2CF8 JUMPI POP PUSH1 0x1 PUSH1 0x1 PUSH1 0xA0 SHL SUB DUP2 AND ISZERO ISZERO JUMPDEST PUSH2 0x2D01 JUMPI PUSH1 0x0 DUP1 REVERT JUMPDEST PUSH1 0x0 DUP1 SLOAD PUSH1 0x1 PUSH1 0x1 PUSH1 0xA0 SHL SUB NOT AND PUSH1 0x1 PUSH1 0x1 PUSH1 0xA0 SHL SUB SWAP3 SWAP1 SWAP3 AND SWAP2 SWAP1 SWAP2 OR SWAP1 SSTORE JUMP JUMPDEST PUSH2 0x2D2B PUSH2 0x4477 JUMP JUMPDEST CALLER PUSH1 0x0 SWAP1 DUP2 MSTORE PUSH1 0xA PUSH1 0x20 SWAP1 DUP2 MSTORE PUSH1 0x40 DUP1 DUP4 KECCAK256 PUSH1 0x3 ADD DUP1 SLOAD DUP3 MLOAD DUP2 DUP6 MUL DUP2 ADD DUP6 ADD SWAP1 SWAP4 MSTORE DUP1 DUP4 MSTORE SWAP2 SWAP3 SWAP1 SWAP2 SWAP1 DUP5 SWAP1 DUP5 ADD JUMPDEST DUP3 DUP3 LT ISZERO PUSH2 0x2E11 JUMPI PUSH1 0x0 DUP5 DUP2 MSTORE PUSH1 0x20 SWAP1 DUP2 SWAP1 KECCAK256 PUSH1 0x40 DUP1 MLOAD PUSH1 0x80 DUP2 ADD DUP3 MSTORE PUSH1 0x2 DUP7 MUL SWAP1 SWAP3 ADD DUP1 SLOAD DUP4 MSTORE PUSH1 0x1 DUP2 ADD SLOAD PUSH2 0xFFFF DUP2 AND SWAP5 DUP5 ADD SWAP5 SWAP1 SWAP5 MSTORE SWAP2 SWAP3 SWAP1 DUP4 ADD SWAP1 PUSH3 0x10000 SWAP1 DIV PUSH1 0xFF AND PUSH1 0x3 DUP2 GT ISZERO PUSH2 0x2DB4 JUMPI PUSH2 0x2DB4 PUSH2 0x4C48 JUMP JUMPDEST PUSH1 0x3 DUP2 GT ISZERO PUSH2 0x2DC5 JUMPI PUSH2 0x2DC5 PUSH2 0x4C48 JUMP JUMPDEST DUP2 MSTORE PUSH1 0x20 ADD PUSH1 0x1 DUP3 ADD PUSH1 0x3 SWAP1 SLOAD SWAP1 PUSH2 0x100 EXP SWAP1 DIV PUSH1 0xFF AND PUSH1 0x2 DUP2 GT ISZERO PUSH2 0x2DED JUMPI PUSH2 0x2DED PUSH2 0x4C48 JUMP JUMPDEST PUSH1 0x2 DUP2 GT ISZERO PUSH2 0x2DFE JUMPI PUSH2 0x2DFE PUSH2 0x4C48 JUMP JUMPDEST DUP2 MSTORE POP POP DUP2 MSTORE PUSH1 0x20 ADD SWAP1 PUSH1 0x1 ADD SWAP1 PUSH2 0x2D5B JUMP JUMPDEST POP POP POP POP SWAP1 POP PUSH1 0x0 DUP1 JUMPDEST DUP3 MLOAD DUP2 LT ISZERO PUSH2 0x2E64 JUMPI DUP5 PUSH1 0x0 ADD MLOAD DUP4 DUP3 DUP2 MLOAD DUP2 LT PUSH2 0x2E3B JUMPI PUSH2 0x2E3B PUSH2 0x543D JUMP JUMPDEST PUSH1 0x20 MUL PUSH1 0x20 ADD ADD MLOAD PUSH1 0x0 ADD MLOAD EQ ISZERO PUSH2 0x2E52 JUMPI PUSH1 0x1 SWAP2 POP JUMPDEST DUP1 PUSH2 0x2E5C DUP2 PUSH2 0x5469 JUMP JUMPDEST SWAP2 POP POP PUSH2 0x2E1B JUMP JUMPDEST POP DUP1 PUSH2 0x2E97 JUMPI PUSH1 0x40 MLOAD PUSH3 0x461BCD PUSH1 0xE5 SHL DUP2 MSTORE PUSH1 0x20 PUSH1 0x4 DUP3 ADD MSTORE PUSH1 0x2 PUSH1 0x24 DUP3 ADD MSTORE PUSH2 0x627 PUSH1 0xF3 SHL PUSH1 0x44 DUP3 ADD MSTORE PUSH1 0x64 ADD PUSH2 0x4E4 JUMP JUMPDEST DUP4 MLOAD PUSH1 0x0 SWAP1 DUP2 MSTORE PUSH1 0xE PUSH1 0x20 SWAP1 DUP2 MSTORE PUSH1 0x40 DUP1 DUP4 KECCAK256 DUP1 SLOAD DUP3 MLOAD DUP2 DUP6 MUL DUP2 ADD DUP6 ADD SWAP1 SWAP4 MSTORE DUP1 DUP4 MSTORE SWAP2 SWAP3 SWAP1 SWAP2 SWAP1 DUP4 ADD DUP3 DUP3 DUP1 ISZERO PUSH2 0x2EF9 JUMPI PUSH1 0x20 MUL DUP3 ADD SWAP2 SWAP1 PUSH1 0x0 MSTORE PUSH1 0x20 PUSH1 0x0 KECCAK256 SWAP1 JUMPDEST DUP2 SLOAD PUSH1 0x1 PUSH1 0x1 PUSH1 0xA0 SHL SUB AND DUP2 MSTORE PUSH1 0x1 SWAP1 SWAP2 ADD SWAP1 PUSH1 0x20 ADD DUP1 DUP4 GT PUSH2 0x2EDB JUMPI JUMPDEST POP POP POP POP POP SWAP1 POP PUSH1 0x0 DUP1 JUMPDEST DUP3 MLOAD DUP2 LT ISZERO PUSH2 0x2FBD JUMPI DUP6 PUSH1 0x1 PUSH1 0x1 PUSH1 0xA0 SHL SUB AND DUP4 DUP3 DUP2 MLOAD DUP2 LT PUSH2 0x2F29 JUMPI PUSH2 0x2F29 PUSH2 0x543D JUMP JUMPDEST PUSH1 0x20 MUL PUSH1 0x20 ADD ADD MLOAD PUSH1 0x1 PUSH1 0x1 PUSH1 0xA0 SHL SUB AND EQ ISZERO PUSH2 0x2FAB JUMPI PUSH1 0x1 PUSH1 0x1 PUSH1 0xA0 SHL SUB DUP7 AND PUSH1 0x0 SWAP1 DUP2 MSTORE PUSH1 0xA PUSH1 0x20 MSTORE PUSH1 0x40 SWAP1 KECCAK256 PUSH1 0x2 SWAP1 DUP2 ADD DUP1 SLOAD PUSH1 0x1 SWAP5 POP DUP4 SWAP1 DUP2 LT PUSH2 0x2F73 JUMPI PUSH2 0x2F73 PUSH2 0x543D JUMP JUMPDEST SWAP1 PUSH1 0x0 MSTORE PUSH1 0x20 PUSH1 0x0 KECCAK256 SWAP1 PUSH1 0x2 MUL ADD PUSH1 0x1 ADD PUSH1 0x3 PUSH2 0x100 EXP DUP2 SLOAD DUP2 PUSH1 0xFF MUL NOT AND SWAP1 DUP4 PUSH1 0x2 DUP2 GT ISZERO PUSH2 0x2FA5 JUMPI PUSH2 0x2FA5 PUSH2 0x4C48 JUMP JUMPDEST MUL OR SWAP1 SSTORE POP JUMPDEST DUP1 PUSH2 0x2FB5 DUP2 PUSH2 0x5469 JUMP JUMPDEST SWAP2 POP POP PUSH2 0x2F04 JUMP JUMPDEST POP DUP1 PUSH2 0x2FF0 JUMPI PUSH1 0x40 MLOAD PUSH3 0x461BCD PUSH1 0xE5 SHL DUP2 MSTORE PUSH1 0x20 PUSH1 0x4 DUP3 ADD MSTORE PUSH1 0x2 PUSH1 0x24 DUP3 ADD MSTORE PUSH2 0x3139 PUSH1 0xF0 SHL PUSH1 0x44 DUP3 ADD MSTORE PUSH1 0x64 ADD PUSH2 0x4E4 JUMP JUMPDEST DUP6 MLOAD PUSH2 0x2FFC SWAP1 DUP7 PUSH2 0x4533 JUMP JUMPDEST DUP6 MLOAD PUSH1 0x20 DUP8 ADD MLOAD PUSH1 0x40 MLOAD CALLER SWAP3 SWAP2 PUSH1 0x0 DUP1 MLOAD PUSH1 0x20 PUSH2 0x5817 DUP4 CODECOPY DUP2 MLOAD SWAP2 MSTORE SWAP2 PUSH2 0x3027 SWAP2 TIMESTAMP SWAP2 PUSH1 0x3 SWAP1 PUSH2 0x5724 JUMP JUMPDEST PUSH1 0x40 MLOAD DUP1 SWAP2 SUB SWAP1 LOG3 POP POP POP POP POP POP JUMP JUMPDEST PUSH2 0x303F PUSH2 0x4477 JUMP JUMPDEST PUSH1 0x20 DUP2 ADD CALLDATALOAD PUSH2 0x3054 PUSH1 0x80 DUP4 ADD PUSH1 0x60 DUP5 ADD PUSH2 0x4C26 JUMP JUMPDEST PUSH1 0x40 MLOAD PUSH4 0x6EB1769F PUSH1 0xE1 SHL DUP2 MSTORE CALLER PUSH1 0x4 DUP3 ADD MSTORE ADDRESS PUSH1 0x24 DUP3 ADD MSTORE PUSH1 0x1 PUSH1 0x1 PUSH1 0xA0 SHL SUB SWAP2 SWAP1 SWAP2 AND SWAP1 PUSH4 0xDD62ED3E SWAP1 PUSH1 0x44 ADD PUSH1 0x20 PUSH1 0x40 MLOAD DUP1 DUP4 SUB DUP2 PUSH1 0x0 DUP8 DUP1 EXTCODESIZE ISZERO DUP1 ISZERO PUSH2 0x309D JUMPI PUSH1 0x0 DUP1 REVERT JUMPDEST POP GAS CALL ISZERO DUP1 ISZERO PUSH2 0x30B1 JUMPI RETURNDATASIZE PUSH1 0x0 DUP1 RETURNDATACOPY RETURNDATASIZE PUSH1 0x0 REVERT JUMPDEST POP POP POP POP PUSH1 0x40 MLOAD RETURNDATASIZE PUSH1 0x1F NOT PUSH1 0x1F DUP3 ADD AND DUP3 ADD DUP1 PUSH1 0x40 MSTORE POP DUP2 ADD SWAP1 PUSH2 0x30D5 SWAP2 SWAP1 PUSH2 0x570B JUMP JUMPDEST LT ISZERO DUP1 ISZERO PUSH2 0x3171 JUMPI POP PUSH1 0x20 DUP2 ADD CALLDATALOAD PUSH2 0x30F3 PUSH1 0x80 DUP4 ADD PUSH1 0x60 DUP5 ADD PUSH2 0x4C26 JUMP JUMPDEST PUSH1 0x40 MLOAD PUSH4 0x70A08231 PUSH1 0xE0 SHL DUP2 MSTORE CALLER PUSH1 0x4 DUP3 ADD MSTORE PUSH1 0x1 PUSH1 0x1 PUSH1 0xA0 SHL SUB SWAP2 SWAP1 SWAP2 AND SWAP1 PUSH4 0x70A08231 SWAP1 PUSH1 0x24 ADD PUSH1 0x20 PUSH1 0x40 MLOAD DUP1 DUP4 SUB DUP2 PUSH1 0x0 DUP8 DUP1 EXTCODESIZE ISZERO DUP1 ISZERO PUSH2 0x3136 JUMPI PUSH1 0x0 DUP1 REVERT JUMPDEST POP GAS CALL ISZERO DUP1 ISZERO PUSH2 0x314A JUMPI RETURNDATASIZE PUSH1 0x0 DUP1 RETURNDATACOPY RETURNDATASIZE PUSH1 0x0 REVERT JUMPDEST POP POP POP POP PUSH1 0x40 MLOAD RETURNDATASIZE PUSH1 0x1F NOT PUSH1 0x1F DUP3 ADD AND DUP3 ADD DUP1 PUSH1 0x40 MSTORE POP DUP2 ADD SWAP1 PUSH2 0x316E SWAP2 SWAP1 PUSH2 0x570B JUMP JUMPDEST LT ISZERO JUMPDEST PUSH2 0x31A2 JUMPI PUSH1 0x40 MLOAD PUSH3 0x461BCD PUSH1 0xE5 SHL DUP2 MSTORE PUSH1 0x20 PUSH1 0x4 DUP3 ADD MSTORE PUSH1 0x2 PUSH1 0x24 DUP3 ADD MSTORE PUSH2 0x323 PUSH1 0xF4 SHL PUSH1 0x44 DUP3 ADD MSTORE PUSH1 0x64 ADD PUSH2 0x4E4 JUMP JUMPDEST PUSH2 0x31B8 DUP2 CALLDATALOAD PUSH2 0xA63 PUSH2 0x100 DUP5 ADD PUSH1 0xE0 DUP6 ADD PUSH2 0x54C9 JUMP JUMPDEST PUSH2 0x31E8 JUMPI PUSH1 0x40 MLOAD PUSH3 0x461BCD PUSH1 0xE5 SHL DUP2 MSTORE PUSH1 0x20 PUSH1 0x4 DUP3 ADD MSTORE PUSH1 0x1 PUSH1 0x24 DUP3 ADD MSTORE PUSH1 0x37 PUSH1 0xF8 SHL PUSH1 0x44 DUP3 ADD MSTORE PUSH1 0x64 ADD PUSH2 0x4E4 JUMP JUMPDEST DUP1 CALLDATALOAD PUSH1 0x0 DUP2 DUP2 MSTORE PUSH1 0xE PUSH1 0x20 SWAP1 DUP2 MSTORE PUSH1 0x40 DUP1 DUP4 KECCAK256 DUP1 SLOAD PUSH1 0x1 DUP2 ADD DUP3 SSTORE SWAP1 DUP5 MSTORE SWAP3 DUP3 SWAP1 KECCAK256 SWAP1 SWAP3 ADD DUP1 SLOAD PUSH1 0x1 PUSH1 0x1 PUSH1 0xA0 SHL SUB NOT AND CALLER OR SWAP1 SSTORE DUP2 MLOAD PUSH1 0x80 DUP2 ADD SWAP1 SWAP3 MSTORE SWAP2 DUP2 MSTORE PUSH2 0x327A SWAP2 DUP2 ADD PUSH2 0x3240 PUSH2 0x100 DUP6 ADD PUSH1 0xE0 DUP7 ADD PUSH2 0x54C9 JUMP JUMPDEST PUSH2 0xFFFF AND DUP2 MSTORE PUSH1 0x20 ADD PUSH2 0x3259 PUSH1 0xE0 DUP6 ADD PUSH1 0xC0 DUP7 ADD PUSH2 0x54E4 JUMP JUMPDEST PUSH1 0x3 DUP2 GT ISZERO PUSH2 0x326A JUMPI PUSH2 0x326A PUSH2 0x4C48 JUMP JUMPDEST DUP2 MSTORE PUSH1 0x20 ADD PUSH1 0x0 SWAP1 MSTORE PUSH1 0x0 PUSH2 0x476E JUMP JUMPDEST PUSH1 0x1 PUSH2 0x328C PUSH1 0xE0 DUP4 ADD PUSH1 0xC0 DUP5 ADD PUSH2 0x54E4 JUMP JUMPDEST PUSH1 0x3 DUP2 GT ISZERO PUSH2 0x329D JUMPI PUSH2 0x329D PUSH2 0x4C48 JUMP JUMPDEST EQ DUP1 PUSH2 0x32C9 JUMPI POP PUSH1 0x0 PUSH2 0x32B6 PUSH1 0xE0 DUP4 ADD PUSH1 0xC0 DUP5 ADD PUSH2 0x54E4 JUMP JUMPDEST PUSH1 0x3 DUP2 GT ISZERO PUSH2 0x32C7 JUMPI PUSH2 0x32C7 PUSH2 0x4C48 JUMP JUMPDEST EQ JUMPDEST ISZERO PUSH2 0x3410 JUMPI DUP1 CALLDATALOAD PUSH1 0x0 SWAP1 DUP2 MSTORE PUSH1 0xC PUSH1 0x20 SWAP1 DUP2 MSTORE PUSH1 0x40 DUP1 DUP4 KECCAK256 CALLER DUP5 MSTORE DUP3 MSTORE DUP3 KECCAK256 DUP1 SLOAD SWAP2 DUP5 ADD CALLDATALOAD SWAP3 SWAP1 SWAP2 PUSH2 0x32FC SWAP1 DUP5 SWAP1 PUSH2 0x549B JUMP JUMPDEST SWAP1 SWAP2 SSTORE POP POP PUSH1 0x40 MLOAD CALLER SWAP1 DUP3 CALLDATALOAD SWAP1 PUSH1 0x0 DUP1 MLOAD PUSH1 0x20 PUSH2 0x5817 DUP4 CODECOPY DUP2 MLOAD SWAP2 MSTORE SWAP1 PUSH2 0x332D SWAP1 TIMESTAMP SWAP1 PUSH1 0x20 DUP8 ADD CALLDATALOAD SWAP1 PUSH1 0x2 SWAP1 PUSH2 0x5724 JUMP JUMPDEST PUSH1 0x40 MLOAD DUP1 SWAP2 SUB SWAP1 LOG3 PUSH1 0x40 MLOAD CALLER SWAP1 DUP3 CALLDATALOAD SWAP1 PUSH1 0x0 DUP1 MLOAD PUSH1 0x20 PUSH2 0x5817 DUP4 CODECOPY DUP2 MLOAD SWAP2 MSTORE SWAP1 PUSH2 0x3361 SWAP1 TIMESTAMP SWAP1 PUSH1 0x20 DUP8 ADD CALLDATALOAD SWAP1 PUSH1 0x4 SWAP1 PUSH2 0x5724 JUMP JUMPDEST PUSH1 0x40 MLOAD DUP1 SWAP2 SUB SWAP1 LOG3 PUSH2 0x3379 PUSH1 0x80 DUP3 ADD PUSH1 0x60 DUP4 ADD PUSH2 0x4C26 JUMP JUMPDEST PUSH1 0x40 MLOAD PUSH4 0x23B872DD PUSH1 0xE0 SHL DUP2 MSTORE CALLER PUSH1 0x4 DUP3 ADD MSTORE ADDRESS PUSH1 0x24 DUP3 ADD MSTORE PUSH1 0x20 DUP4 ADD CALLDATALOAD PUSH1 0x44 DUP3 ADD MSTORE PUSH1 0x1 PUSH1 0x1 PUSH1 0xA0 SHL SUB SWAP2 SWAP1 SWAP2 AND SWAP1 PUSH4 0x23B872DD SWAP1 PUSH1 0x64 ADD PUSH1 0x20 PUSH1 0x40 MLOAD DUP1 DUP4 SUB DUP2 PUSH1 0x0 DUP8 DUP1 EXTCODESIZE ISZERO DUP1 ISZERO PUSH2 0x33CC JUMPI PUSH1 0x0 DUP1 REVERT JUMPDEST POP GAS CALL ISZERO DUP1 ISZERO PUSH2 0x33E0 JUMPI RETURNDATASIZE PUSH1 0x0 DUP1 RETURNDATACOPY RETURNDATASIZE PUSH1 0x0 REVERT JUMPDEST POP POP POP POP PUSH1 0x40 MLOAD RETURNDATASIZE PUSH1 0x1F NOT PUSH1 0x1F DUP3 ADD AND DUP3 ADD DUP1 PUSH1 0x40 MSTORE POP DUP2 ADD SWAP1 PUSH2 0x3404 SWAP2 SWAP1 PUSH2 0x56EE JUMP JUMPDEST PUSH2 0x340D JUMPI PUSH1 0x0 DUP1 REVERT JUMPDEST POP JUMP JUMPDEST PUSH1 0x2 PUSH2 0x3422 PUSH1 0xE0 DUP4 ADD PUSH1 0xC0 DUP5 ADD PUSH2 0x54E4 JUMP JUMPDEST PUSH1 0x3 DUP2 GT ISZERO PUSH2 0x3433 JUMPI PUSH2 0x3433 PUSH2 0x4C48 JUMP JUMPDEST EQ ISZERO PUSH2 0x366E JUMPI PUSH1 0x0 PUSH2 0x344A PUSH1 0x3 PUSH1 0x20 DUP5 ADD CALLDATALOAD PUSH2 0x5587 JUMP JUMPDEST DUP3 CALLDATALOAD PUSH1 0x0 SWAP1 DUP2 MSTORE PUSH1 0xC PUSH1 0x20 SWAP1 DUP2 MSTORE PUSH1 0x40 DUP1 DUP4 KECCAK256 CALLER DUP5 MSTORE SWAP1 SWAP2 MSTORE DUP2 KECCAK256 DUP1 SLOAD SWAP3 SWAP4 POP DUP4 SWAP3 SWAP1 SWAP2 SWAP1 PUSH2 0x347A SWAP1 DUP5 SWAP1 PUSH2 0x549B JUMP JUMPDEST SWAP1 SWAP2 SSTORE POP POP PUSH1 0x40 MLOAD CALLER SWAP1 DUP4 CALLDATALOAD SWAP1 PUSH1 0x0 DUP1 MLOAD PUSH1 0x20 PUSH2 0x5817 DUP4 CODECOPY DUP2 MLOAD SWAP2 MSTORE SWAP1 PUSH2 0x34AB SWAP1 TIMESTAMP SWAP1 PUSH1 0x20 DUP9 ADD CALLDATALOAD SWAP1 PUSH1 0x2 SWAP1 PUSH2 0x5724 JUMP JUMPDEST PUSH1 0x40 MLOAD DUP1 SWAP2 SUB SWAP1 LOG3 PUSH1 0x40 MLOAD CALLER SWAP1 DUP4 CALLDATALOAD SWAP1 PUSH1 0x0 DUP1 MLOAD PUSH1 0x20 PUSH2 0x5817 DUP4 CODECOPY DUP2 MLOAD SWAP2 MSTORE SWAP1 PUSH2 0x34DF SWAP1 TIMESTAMP SWAP1 PUSH1 0x20 DUP9 ADD CALLDATALOAD SWAP1 PUSH1 0x4 SWAP1 PUSH2 0x5724 JUMP JUMPDEST PUSH1 0x40 MLOAD DUP1 SWAP2 SUB SWAP1 LOG3 PUSH2 0x34F7 PUSH1 0x80 DUP4 ADD PUSH1 0x60 DUP5 ADD PUSH2 0x4C26 JUMP JUMPDEST PUSH1 0x40 MLOAD PUSH4 0x23B872DD PUSH1 0xE0 SHL DUP2 MSTORE CALLER PUSH1 0x4 DUP3 ADD MSTORE ADDRESS PUSH1 0x24 DUP3 ADD MSTORE PUSH1 0x44 DUP2 ADD DUP4 SWAP1 MSTORE PUSH1 0x1 PUSH1 0x1 PUSH1 0xA0 SHL SUB SWAP2 SWAP1 SWAP2 AND SWAP1 PUSH4 0x23B872DD SWAP1 PUSH1 0x64 ADD PUSH1 0x20 PUSH1 0x40 MLOAD DUP1 DUP4 SUB DUP2 PUSH1 0x0 DUP8 DUP1 EXTCODESIZE ISZERO DUP1 ISZERO PUSH2 0x3547 JUMPI PUSH1 0x0 DUP1 REVERT JUMPDEST POP GAS CALL ISZERO DUP1 ISZERO PUSH2 0x355B JUMPI RETURNDATASIZE PUSH1 0x0 DUP1 RETURNDATACOPY RETURNDATASIZE PUSH1 0x0 REVERT JUMPDEST POP POP POP POP PUSH1 0x40 MLOAD RETURNDATASIZE PUSH1 0x1F NOT PUSH1 0x1F DUP3 ADD AND DUP3 ADD DUP1 PUSH1 0x40 MSTORE POP DUP2 ADD SWAP1 PUSH2 0x357F SWAP2 SWAP1 PUSH2 0x56EE JUMP JUMPDEST PUSH2 0x3588 JUMPI PUSH1 0x0 DUP1 REVERT JUMPDEST PUSH2 0x3598 PUSH1 0x80 DUP4 ADD PUSH1 0x60 DUP5 ADD PUSH2 0x4C26 JUMP JUMPDEST PUSH1 0x1 PUSH1 0x1 PUSH1 0xA0 SHL SUB AND PUSH4 0x23B872DD CALLER PUSH2 0x35B7 PUSH1 0x60 DUP7 ADD PUSH1 0x40 DUP8 ADD PUSH2 0x4C26 JUMP JUMPDEST PUSH2 0x35C2 DUP6 PUSH1 0x2 PUSH2 0x56CF JUMP JUMPDEST PUSH1 0x40 MLOAD PUSH32 0xFFFFFFFF00000000000000000000000000000000000000000000000000000000 PUSH1 0xE0 DUP7 SWAP1 SHL AND DUP2 MSTORE PUSH1 0x1 PUSH1 0x1 PUSH1 0xA0 SHL SUB SWAP4 DUP5 AND PUSH1 0x4 DUP3 ADD MSTORE SWAP3 SWAP1 SWAP2 AND PUSH1 0x24 DUP4 ADD MSTORE PUSH1 0x44 DUP3 ADD MSTORE PUSH1 0x64 ADD PUSH1 0x20 PUSH1 0x40 MLOAD DUP1 DUP4 SUB DUP2 PUSH1 0x0 DUP8 DUP1 EXTCODESIZE ISZERO DUP1 ISZERO PUSH2 0x3629 JUMPI PUSH1 0x0 DUP1 REVERT JUMPDEST POP GAS CALL ISZERO DUP1 ISZERO PUSH2 0x363D JUMPI RETURNDATASIZE PUSH1 0x0 DUP1 RETURNDATACOPY RETURNDATASIZE PUSH1 0x0 REVERT JUMPDEST POP POP POP POP PUSH1 0x40 MLOAD RETURNDATASIZE PUSH1 0x1F NOT PUSH1 0x1F DUP3 ADD AND DUP3 ADD DUP1 PUSH1 0x40 MSTORE POP DUP2 ADD SWAP1 PUSH2 0x3661 SWAP2 SWAP1 PUSH2 0x56EE JUMP JUMPDEST PUSH2 0x366A JUMPI PUSH1 0x0 DUP1 REVERT JUMPDEST POP POP JUMP JUMPDEST PUSH1 0x3 PUSH2 0x3680 PUSH1 0xE0 DUP4 ADD PUSH1 0xC0 DUP5 ADD PUSH2 0x54E4 JUMP JUMPDEST PUSH1 0x3 DUP2 GT ISZERO PUSH2 0x3691 JUMPI PUSH2 0x3691 PUSH2 0x4C48 JUMP JUMPDEST EQ ISZERO PUSH2 0x340D JUMPI PUSH1 0x0 PUSH2 0x36A8 PUSH1 0xC PUSH1 0x20 DUP5 ADD CALLDATALOAD PUSH2 0x5587 JUMP JUMPDEST DUP3 CALLDATALOAD PUSH1 0x0 SWAP1 DUP2 MSTORE PUSH1 0xC PUSH1 0x20 SWAP1 DUP2 MSTORE PUSH1 0x40 DUP1 DUP4 KECCAK256 CALLER DUP5 MSTORE SWAP1 SWAP2 MSTORE DUP2 KECCAK256 DUP1 SLOAD SWAP3 SWAP4 POP DUP4 SWAP3 SWAP1 SWAP2 SWAP1 PUSH2 0x36D8 SWAP1 DUP5 SWAP1 PUSH2 0x549B JUMP JUMPDEST SWAP1 SWAP2 SSTORE POP POP PUSH1 0x40 MLOAD CALLER SWAP1 DUP4 CALLDATALOAD SWAP1 PUSH1 0x0 DUP1 MLOAD PUSH1 0x20 PUSH2 0x5817 DUP4 CODECOPY DUP2 MLOAD SWAP2 MSTORE SWAP1 PUSH2 0x3709 SWAP1 TIMESTAMP SWAP1 PUSH1 0x20 DUP9 ADD CALLDATALOAD SWAP1 PUSH1 0x2 SWAP1 PUSH2 0x5724 JUMP JUMPDEST PUSH1 0x40 MLOAD DUP1 SWAP2 SUB SWAP1 LOG3 PUSH1 0x40 MLOAD CALLER SWAP1 DUP4 CALLDATALOAD SWAP1 PUSH1 0x0 DUP1 MLOAD PUSH1 0x20 PUSH2 0x5817 DUP4 CODECOPY DUP2 MLOAD SWAP2 MSTORE SWAP1 PUSH2 0x373D SWAP1 TIMESTAMP SWAP1 PUSH1 0x20 DUP9 ADD CALLDATALOAD SWAP1 PUSH1 0x4 SWAP1 PUSH2 0x5724 JUMP JUMPDEST PUSH1 0x40 MLOAD DUP1 SWAP2 SUB SWAP1 LOG3 PUSH2 0x3755 PUSH1 0x80 DUP4 ADD PUSH1 0x60 DUP5 ADD PUSH2 0x4C26 JUMP JUMPDEST PUSH1 0x40 MLOAD PUSH4 0x23B872DD PUSH1 0xE0 SHL DUP2 MSTORE CALLER PUSH1 0x4 DUP3 ADD MSTORE ADDRESS PUSH1 0x24 DUP3 ADD MSTORE PUSH1 0x44 DUP2 ADD DUP4 SWAP1 MSTORE PUSH1 0x1 PUSH1 0x1 PUSH1 0xA0 SHL SUB SWAP2 SWAP1 SWAP2 AND SWAP1 PUSH4 0x23B872DD SWAP1 PUSH1 0x64 ADD PUSH1 0x20 PUSH1 0x40 MLOAD DUP1 DUP4 SUB DUP2 PUSH1 0x0 DUP8 DUP1 EXTCODESIZE ISZERO DUP1 ISZERO PUSH2 0x37A5 JUMPI PUSH1 0x0 DUP1 REVERT JUMPDEST POP GAS CALL ISZERO DUP1 ISZERO PUSH2 0x37B9 JUMPI RETURNDATASIZE PUSH1 0x0 DUP1 RETURNDATACOPY RETURNDATASIZE PUSH1 0x0 REVERT JUMPDEST POP POP POP POP PUSH1 0x40 MLOAD RETURNDATASIZE PUSH1 0x1F NOT PUSH1 0x1F DUP3 ADD AND DUP3 ADD DUP1 PUSH1 0x40 MSTORE POP DUP2 ADD SWAP1 PUSH2 0x37DD SWAP2 SWAP1 PUSH2 0x56EE JUMP JUMPDEST PUSH2 0x37E6 JUMPI PUSH1 0x0 DUP1 REVERT JUMPDEST PUSH2 0x37F6 PUSH1 0x80 DUP4 ADD PUSH1 0x60 DUP5 ADD PUSH2 0x4C26 JUMP JUMPDEST PUSH1 0x1 PUSH1 0x1 PUSH1 0xA0 SHL SUB AND PUSH4 0x23B872DD CALLER PUSH2 0x3815 PUSH1 0x60 DUP7 ADD PUSH1 0x40 DUP8 ADD PUSH2 0x4C26 JUMP JUMPDEST PUSH2 0x35C2 DUP6 PUSH1 0xB PUSH2 0x56CF JUMP JUMPDEST PUSH1 0x60 PUSH2 0x382A PUSH2 0x4377 JUMP JUMPDEST PUSH1 0x60 DUP4 ISZERO PUSH2 0x3929 JUMPI PUSH1 0x1 PUSH1 0x1 PUSH1 0xA0 SHL SUB DUP4 AND PUSH1 0x0 SWAP1 DUP2 MSTORE PUSH1 0xA PUSH1 0x20 SWAP1 DUP2 MSTORE PUSH1 0x40 DUP1 DUP4 KECCAK256 PUSH1 0x2 ADD DUP1 SLOAD DUP3 MLOAD DUP2 DUP6 MUL DUP2 ADD DUP6 ADD SWAP1 SWAP4 MSTORE DUP1 DUP4 MSTORE SWAP2 SWAP4 SWAP1 SWAP3 DUP5 ADD JUMPDEST DUP3 DUP3 LT ISZERO PUSH2 0x391E JUMPI PUSH1 0x0 DUP5 DUP2 MSTORE PUSH1 0x20 SWAP1 DUP2 SWAP1 KECCAK256 PUSH1 0x40 DUP1 MLOAD PUSH1 0x80 DUP2 ADD DUP3 MSTORE PUSH1 0x2 DUP7 MUL SWAP1 SWAP3 ADD DUP1 SLOAD DUP4 MSTORE PUSH1 0x1 DUP2 ADD SLOAD PUSH2 0xFFFF DUP2 AND SWAP5 DUP5 ADD SWAP5 SWAP1 SWAP5 MSTORE SWAP2 SWAP3 SWAP1 DUP4 ADD SWAP1 PUSH3 0x10000 SWAP1 DIV PUSH1 0xFF AND PUSH1 0x3 DUP2 GT ISZERO PUSH2 0x38C1 JUMPI PUSH2 0x38C1 PUSH2 0x4C48 JUMP JUMPDEST PUSH1 0x3 DUP2 GT ISZERO PUSH2 0x38D2 JUMPI PUSH2 0x38D2 PUSH2 0x4C48 JUMP JUMPDEST DUP2 MSTORE PUSH1 0x20 ADD PUSH1 0x1 DUP3 ADD PUSH1 0x3 SWAP1 SLOAD SWAP1 PUSH2 0x100 EXP SWAP1 DIV PUSH1 0xFF AND PUSH1 0x2 DUP2 GT ISZERO PUSH2 0x38FA JUMPI PUSH2 0x38FA PUSH2 0x4C48 JUMP JUMPDEST PUSH1 0x2 DUP2 GT ISZERO PUSH2 0x390B JUMPI PUSH2 0x390B PUSH2 0x4C48 JUMP JUMPDEST DUP2 MSTORE POP POP DUP2 MSTORE PUSH1 0x20 ADD SWAP1 PUSH1 0x1 ADD SWAP1 PUSH2 0x3868 JUMP JUMPDEST POP POP POP POP SWAP1 POP PUSH2 0x3A1C JUMP JUMPDEST PUSH1 0x1 PUSH1 0x1 PUSH1 0xA0 SHL SUB DUP4 AND PUSH1 0x0 SWAP1 DUP2 MSTORE PUSH1 0xA PUSH1 0x20 SWAP1 DUP2 MSTORE PUSH1 0x40 DUP1 DUP4 KECCAK256 PUSH1 0x3 ADD DUP1 SLOAD DUP3 MLOAD DUP2 DUP6 MUL DUP2 ADD DUP6 ADD SWAP1 SWAP4 MSTORE DUP1 DUP4 MSTORE SWAP2 SWAP4 SWAP1 SWAP3 DUP5 ADD JUMPDEST DUP3 DUP3 LT ISZERO PUSH2 0x3A15 JUMPI PUSH1 0x0 DUP5 DUP2 MSTORE PUSH1 0x20 SWAP1 DUP2 SWAP1 KECCAK256 PUSH1 0x40 DUP1 MLOAD PUSH1 0x80 DUP2 ADD DUP3 MSTORE PUSH1 0x2 DUP7 MUL SWAP1 SWAP3 ADD DUP1 SLOAD DUP4 MSTORE PUSH1 0x1 DUP2 ADD SLOAD PUSH2 0xFFFF DUP2 AND SWAP5 DUP5 ADD SWAP5 SWAP1 SWAP5 MSTORE SWAP2 SWAP3 SWAP1 DUP4 ADD SWAP1 PUSH3 0x10000 SWAP1 DIV PUSH1 0xFF AND PUSH1 0x3 DUP2 GT ISZERO PUSH2 0x39B8 JUMPI PUSH2 0x39B8 PUSH2 0x4C48 JUMP JUMPDEST PUSH1 0x3 DUP2 GT ISZERO PUSH2 0x39C9 JUMPI PUSH2 0x39C9 PUSH2 0x4C48 JUMP JUMPDEST DUP2 MSTORE PUSH1 0x20 ADD PUSH1 0x1 DUP3 ADD PUSH1 0x3 SWAP1 SLOAD SWAP1 PUSH2 0x100 EXP SWAP1 DIV PUSH1 0xFF AND PUSH1 0x2 DUP2 GT ISZERO PUSH2 0x39F1 JUMPI PUSH2 0x39F1 PUSH2 0x4C48 JUMP JUMPDEST PUSH1 0x2 DUP2 GT ISZERO PUSH2 0x3A02 JUMPI PUSH2 0x3A02 PUSH2 0x4C48 JUMP JUMPDEST DUP2 MSTORE POP POP DUP2 MSTORE PUSH1 0x20 ADD SWAP1 PUSH1 0x1 ADD SWAP1 PUSH2 0x395F JUMP JUMPDEST POP POP POP POP SWAP1 POP JUMPDEST PUSH1 0x0 DUP2 MLOAD PUSH8 0xFFFFFFFFFFFFFFFF DUP2 GT ISZERO PUSH2 0x3A38 JUMPI PUSH2 0x3A38 PUSH2 0x5134 JUMP JUMPDEST PUSH1 0x40 MLOAD SWAP1 DUP1 DUP3 MSTORE DUP1 PUSH1 0x20 MUL PUSH1 0x20 ADD DUP3 ADD PUSH1 0x40 MSTORE DUP1 ISZERO PUSH2 0x3AD3 JUMPI DUP2 PUSH1 0x20 ADD JUMPDEST PUSH2 0x3AC0 PUSH1 0x40 DUP1 MLOAD PUSH2 0x180 DUP2 ADD SWAP1 SWAP2 MSTORE PUSH1 0x0 PUSH1 0x60 DUP1 DUP4 ADD DUP3 DUP2 MSTORE PUSH1 0x80 DUP5 ADD DUP4 SWAP1 MSTORE PUSH1 0xA0 DUP5 ADD DUP4 SWAP1 MSTORE PUSH1 0xC0 DUP5 ADD DUP4 SWAP1 MSTORE PUSH1 0xE0 DUP5 ADD DUP4 SWAP1 MSTORE PUSH2 0x100 DUP5 ADD DUP4 SWAP1 MSTORE PUSH2 0x120 DUP5 ADD DUP4 SWAP1 MSTORE PUSH2 0x140 DUP5 ADD SWAP3 SWAP1 SWAP3 MSTORE PUSH2 0x160 DUP4 ADD MSTORE DUP2 SWAP1 DUP2 MSTORE PUSH1 0x20 ADD PUSH1 0x0 DUP2 MSTORE PUSH1 0x20 ADD PUSH1 0x0 DUP2 MSTORE POP SWAP1 JUMP JUMPDEST DUP2 MSTORE PUSH1 0x20 ADD SWAP1 PUSH1 0x1 SWAP1 SUB SWAP1 DUP2 PUSH2 0x3A56 JUMPI SWAP1 POP JUMPDEST POP SWAP1 POP PUSH1 0x0 JUMPDEST DUP3 MLOAD DUP2 LT ISZERO PUSH2 0x3BE7 JUMPI PUSH2 0x3AF7 DUP4 DUP3 DUP2 MLOAD DUP2 LT PUSH2 0x20AB JUMPI PUSH2 0x20AB PUSH2 0x543D JUMP JUMPDEST DUP3 DUP3 DUP2 MLOAD DUP2 LT PUSH2 0x3B09 JUMPI PUSH2 0x3B09 PUSH2 0x543D JUMP JUMPDEST PUSH1 0x20 MUL PUSH1 0x20 ADD ADD MLOAD PUSH1 0x0 ADD DUP2 SWAP1 MSTORE POP DUP3 DUP2 DUP2 MLOAD DUP2 LT PUSH2 0x3B2A JUMPI PUSH2 0x3B2A PUSH2 0x543D JUMP JUMPDEST PUSH1 0x20 MUL PUSH1 0x20 ADD ADD MLOAD PUSH1 0x60 ADD MLOAD DUP3 DUP3 DUP2 MLOAD DUP2 LT PUSH2 0x3B48 JUMPI PUSH2 0x3B48 PUSH2 0x543D JUMP JUMPDEST PUSH1 0x20 MUL PUSH1 0x20 ADD ADD MLOAD PUSH1 0x20 ADD SWAP1 PUSH1 0x2 DUP2 GT ISZERO PUSH2 0x3B65 JUMPI PUSH2 0x3B65 PUSH2 0x4C48 JUMP JUMPDEST SWAP1 DUP2 PUSH1 0x2 DUP2 GT ISZERO PUSH2 0x3B78 JUMPI PUSH2 0x3B78 PUSH2 0x4C48 JUMP JUMPDEST DUP2 MSTORE POP POP PUSH1 0xE PUSH1 0x0 DUP4 DUP4 DUP2 MLOAD DUP2 LT PUSH2 0x3B92 JUMPI PUSH2 0x3B92 PUSH2 0x543D JUMP JUMPDEST PUSH1 0x20 MUL PUSH1 0x20 ADD ADD MLOAD PUSH1 0x0 ADD MLOAD PUSH1 0x0 ADD MLOAD DUP2 MSTORE PUSH1 0x20 ADD SWAP1 DUP2 MSTORE PUSH1 0x20 ADD PUSH1 0x0 KECCAK256 DUP1 SLOAD SWAP1 POP DUP3 DUP3 DUP2 MLOAD DUP2 LT PUSH2 0x3BC6 JUMPI PUSH2 0x3BC6 PUSH2 0x543D JUMP JUMPDEST PUSH1 0x20 SWAP1 DUP2 MUL SWAP2 SWAP1 SWAP2 ADD ADD MLOAD PUSH1 0x40 ADD MSTORE DUP1 PUSH2 0x3BDF DUP2 PUSH2 0x5469 JUMP JUMPDEST SWAP2 POP POP PUSH2 0x3AD9 JUMP JUMPDEST POP SWAP2 POP POP JUMPDEST SWAP3 SWAP2 POP POP JUMP JUMPDEST PUSH2 0x3BFA PUSH2 0x4377 JUMP JUMPDEST PUSH1 0x1 PUSH1 0x1 PUSH1 0xA0 SHL SUB DUP2 AND PUSH2 0x3C0D JUMPI PUSH1 0x0 DUP1 REVERT JUMPDEST PUSH2 0x3C16 DUP2 PUSH2 0x43B6 JUMP JUMPDEST ISZERO PUSH2 0x3C47 JUMPI PUSH1 0x40 MLOAD PUSH3 0x461BCD PUSH1 0xE5 SHL DUP2 MSTORE PUSH1 0x20 PUSH1 0x4 DUP3 ADD MSTORE PUSH1 0x1 PUSH1 0x24 DUP3 ADD MSTORE PUSH1 0x31 PUSH1 0xF8 SHL PUSH1 0x44 DUP3 ADD MSTORE PUSH1 0x64 ADD PUSH2 0x4E4 JUMP JUMPDEST PUSH1 0x8 DUP1 SLOAD PUSH1 0x1 DUP2 ADD DUP3 SSTORE PUSH1 0x0 SWAP2 SWAP1 SWAP2 MSTORE PUSH32 0xF3F7A9FE364FAAB93B216DA50A3214154F22A0A2B415B23A84C8169E8B636EE3 ADD DUP1 SLOAD PUSH1 0x1 PUSH1 0x1 PUSH1 0xA0 SHL SUB NOT AND PUSH1 0x1 PUSH1 0x1 PUSH1 0xA0 SHL SUB SWAP3 SWAP1 SWAP3 AND SWAP2 SWAP1 SWAP2 OR SWAP1 SSTORE JUMP JUMPDEST PUSH1 0x0 DUP2 DUP2 MSTORE PUSH1 0xE PUSH1 0x20 SWAP1 DUP2 MSTORE PUSH1 0x40 SWAP2 DUP3 SWAP1 KECCAK256 DUP1 SLOAD DUP4 MLOAD DUP2 DUP5 MUL DUP2 ADD DUP5 ADD SWAP1 SWAP5 MSTORE DUP1 DUP5 MSTORE PUSH1 0x60 SWAP4 SWAP3 DUP4 ADD DUP3 DUP3 DUP1 ISZERO PUSH2 0x3CF9 JUMPI PUSH1 0x20 MUL DUP3 ADD SWAP2 SWAP1 PUSH1 0x0 MSTORE PUSH1 0x20 PUSH1 0x0 KECCAK256 SWAP1 JUMPDEST DUP2 SLOAD PUSH1 0x1 PUSH1 0x1 PUSH1 0xA0 SHL SUB AND DUP2 MSTORE PUSH1 0x1 SWAP1 SWAP2 ADD SWAP1 PUSH1 0x20 ADD DUP1 DUP4 GT PUSH2 0x3CDB JUMPI JUMPDEST POP POP POP POP POP SWAP1 POP SWAP2 SWAP1 POP JUMP JUMPDEST PUSH1 0x60 PUSH1 0x3 SLOAD GASPRICE LT PUSH2 0x3D4D JUMPI PUSH1 0x40 MLOAD PUSH3 0x461BCD PUSH1 0xE5 SHL DUP2 MSTORE PUSH1 0x20 PUSH1 0x4 DUP3 ADD MSTORE PUSH1 0x12 PUSH1 0x24 DUP3 ADD MSTORE PUSH18 0x8EC2E640E0E4D2C6CA40E8DEDE40D0D2CED PUSH1 0x73 SHL PUSH1 0x44 DUP3 ADD MSTORE PUSH1 0x64 ADD PUSH2 0x4E4 JUMP JUMPDEST PUSH1 0x0 PUSH2 0x3D58 TIMESTAMP PUSH2 0x4AAB JUMP JUMPDEST PUSH1 0x9 SLOAD SWAP1 SWAP2 POP PUSH5 0xFFFFFFFFFF PUSH2 0x100 SWAP1 SWAP2 DIV DUP2 AND SWAP1 DUP3 AND GT PUSH2 0x3DA1 JUMPI PUSH1 0x40 MLOAD PUSH3 0x461BCD PUSH1 0xE5 SHL DUP2 MSTORE PUSH1 0x20 PUSH1 0x4 DUP3 ADD MSTORE PUSH1 0x2 PUSH1 0x24 DUP3 ADD MSTORE PUSH2 0xC4D PUSH1 0xF2 SHL PUSH1 0x44 DUP3 ADD MSTORE PUSH1 0x64 ADD PUSH2 0x4E4 JUMP JUMPDEST PUSH1 0x0 PUSH2 0x3DAC TIMESTAMP PUSH2 0x1B8D JUMP JUMPDEST SWAP1 POP PUSH1 0x0 DUP1 PUSH1 0x0 PUSH1 0x4 SLOAD PUSH8 0xFFFFFFFFFFFFFFFF DUP2 GT ISZERO PUSH2 0x3DCE JUMPI PUSH2 0x3DCE PUSH2 0x5134 JUMP JUMPDEST PUSH1 0x40 MLOAD SWAP1 DUP1 DUP3 MSTORE DUP1 PUSH1 0x20 MUL PUSH1 0x20 ADD DUP3 ADD PUSH1 0x40 MSTORE DUP1 ISZERO PUSH2 0x3E13 JUMPI DUP2 PUSH1 0x20 ADD JUMPDEST PUSH1 0x40 DUP1 MLOAD DUP1 DUP3 ADD SWAP1 SWAP2 MSTORE PUSH1 0x0 DUP1 DUP3 MSTORE PUSH1 0x20 DUP3 ADD MSTORE DUP2 MSTORE PUSH1 0x20 ADD SWAP1 PUSH1 0x1 SWAP1 SUB SWAP1 DUP2 PUSH2 0x3DEC JUMPI SWAP1 POP JUMPDEST POP SWAP1 POP PUSH1 0x0 JUMPDEST PUSH1 0x3 DUP2 GT PUSH2 0x40F6 JUMPI PUSH1 0x0 DUP2 PUSH2 0x3E2F JUMPI POP PUSH1 0x20 DUP6 ADD MLOAD JUMPDEST PUSH1 0x1 DUP3 EQ ISZERO PUSH2 0x3E3C JUMPI POP DUP5 MLOAD JUMPDEST PUSH1 0x2 DUP3 EQ ISZERO PUSH2 0x3E4C JUMPI POP PUSH1 0x40 DUP6 ADD MLOAD JUMPDEST PUSH1 0x3 DUP3 EQ ISZERO PUSH2 0x3E5C JUMPI POP PUSH1 0x60 DUP6 ADD MLOAD JUMPDEST PUSH1 0x0 JUMPDEST PUSH1 0x0 DUP4 DUP2 MSTORE PUSH1 0xD PUSH1 0x20 SWAP1 DUP2 MSTORE PUSH1 0x40 DUP1 DUP4 KECCAK256 PUSH2 0xFFFF DUP7 AND DUP5 MSTORE SWAP1 SWAP2 MSTORE SWAP1 KECCAK256 SLOAD DUP2 LT ISZERO PUSH2 0x40E1 JUMPI PUSH1 0x0 DUP4 DUP2 MSTORE PUSH1 0xD PUSH1 0x20 SWAP1 DUP2 MSTORE PUSH1 0x40 DUP1 DUP4 KECCAK256 PUSH2 0xFFFF DUP7 AND DUP5 MSTORE SWAP1 SWAP2 MSTORE SWAP1 KECCAK256 DUP1 SLOAD DUP3 SWAP1 DUP2 LT PUSH2 0x3EB3 JUMPI PUSH2 0x3EB3 PUSH2 0x543D JUMP JUMPDEST SWAP1 PUSH1 0x0 MSTORE PUSH1 0x20 PUSH1 0x0 KECCAK256 SWAP1 PUSH1 0x5 MUL ADD PUSH1 0x3 ADD PUSH1 0x15 SWAP1 SLOAD SWAP1 PUSH2 0x100 EXP SWAP1 DIV PUSH1 0xFF AND PUSH2 0x40CF JUMPI PUSH1 0x0 DUP4 DUP2 MSTORE PUSH1 0xD PUSH1 0x20 SWAP1 DUP2 MSTORE PUSH1 0x40 DUP1 DUP4 KECCAK256 PUSH2 0xFFFF DUP7 AND DUP5 MSTORE SWAP1 SWAP2 MSTORE DUP2 KECCAK256 DUP1 SLOAD DUP4 SWAP1 DUP2 LT PUSH2 0x3F05 JUMPI PUSH2 0x3F05 PUSH2 0x543D JUMP JUMPDEST PUSH1 0x0 SWAP2 DUP3 MSTORE PUSH1 0x20 DUP1 DUP4 KECCAK256 PUSH1 0x5 SWAP1 SWAP3 MUL SWAP1 SWAP2 ADD SLOAD DUP7 DUP4 MSTORE PUSH1 0xD DUP3 MSTORE PUSH1 0x40 DUP1 DUP5 KECCAK256 PUSH2 0xFFFF DUP9 AND DUP6 MSTORE SWAP1 SWAP3 MSTORE SWAP1 DUP3 KECCAK256 DUP1 SLOAD SWAP2 SWAP4 POP SWAP1 DUP5 SWAP1 DUP2 LT PUSH2 0x3F47 JUMPI PUSH2 0x3F47 PUSH2 0x543D JUMP JUMPDEST PUSH1 0x0 SWAP2 DUP3 MSTORE PUSH1 0x20 DUP1 DUP4 KECCAK256 PUSH1 0x3 PUSH1 0x5 SWAP1 SWAP4 MUL ADD SWAP2 SWAP1 SWAP2 ADD SLOAD DUP8 DUP4 MSTORE PUSH1 0xD DUP3 MSTORE PUSH1 0x40 DUP1 DUP5 KECCAK256 PUSH2 0xFFFF DUP10 AND DUP6 MSTORE SWAP1 SWAP3 MSTORE SWAP1 DUP3 KECCAK256 DUP1 SLOAD PUSH1 0x1 PUSH1 0x1 PUSH1 0xA0 SHL SUB SWAP1 SWAP3 AND SWAP4 POP SWAP1 DUP6 SWAP1 DUP2 LT PUSH2 0x3F97 JUMPI PUSH2 0x3F97 PUSH2 0x543D JUMP JUMPDEST SWAP1 PUSH1 0x0 MSTORE PUSH1 0x20 PUSH1 0x0 KECCAK256 SWAP1 PUSH1 0x5 MUL ADD PUSH1 0x1 ADD SLOAD SWAP1 POP PUSH2 0x3FD1 PUSH1 0x40 MLOAD DUP1 PUSH1 0x40 ADD PUSH1 0x40 MSTORE DUP1 PUSH1 0x0 DUP2 MSTORE PUSH1 0x20 ADD PUSH1 0x0 PUSH1 0x1 PUSH1 0x1 PUSH1 0xA0 SHL SUB AND DUP2 MSTORE POP SWAP1 JUMP JUMPDEST PUSH1 0x0 DUP3 PUSH2 0x2710 PUSH1 0x1 SLOAD DUP6 PUSH2 0x3FE5 SWAP2 SWAP1 PUSH2 0x56CF JUMP JUMPDEST PUSH2 0x3FEF SWAP2 SWAP1 PUSH2 0x5587 JUMP JUMPDEST PUSH2 0x3FF9 SWAP2 SWAP1 PUSH2 0x5484 JUMP JUMPDEST SWAP1 POP PUSH1 0x0 DUP1 JUMPDEST PUSH1 0x0 DUP8 DUP2 MSTORE PUSH1 0xE PUSH1 0x20 MSTORE PUSH1 0x40 SWAP1 KECCAK256 SLOAD DUP2 LT ISZERO PUSH2 0x40C7 JUMPI PUSH1 0x4 SLOAD DUP14 EQ ISZERO PUSH2 0x4033 JUMPI POP SWAP9 SWAP15 SWAP14 POP POP POP POP POP POP POP POP POP POP POP POP POP POP JUMP JUMPDEST PUSH1 0x5 SLOAD ISZERO DUP1 PUSH2 0x4049 JUMPI POP PUSH1 0x7 SLOAD PUSH1 0xFF AND ISZERO ISZERO PUSH1 0x1 EQ JUMPDEST ISZERO PUSH2 0x40B5 JUMPI DUP13 PUSH2 0x4058 DUP2 PUSH2 0x5469 JUMP JUMPDEST SWAP14 POP PUSH2 0x4066 SWAP1 POP DUP4 DUP4 PUSH2 0x549B JUMP JUMPDEST SWAP2 POP PUSH1 0x40 MLOAD DUP1 PUSH1 0x40 ADD PUSH1 0x40 MSTORE DUP1 DUP4 DUP2 MSTORE PUSH1 0x20 ADD DUP8 PUSH1 0x1 PUSH1 0x1 PUSH1 0xA0 SHL SUB AND DUP2 MSTORE POP SWAP4 POP DUP4 DUP12 DUP14 DUP2 MLOAD DUP2 LT PUSH2 0x409B JUMPI PUSH2 0x409B PUSH2 0x543D JUMP JUMPDEST PUSH1 0x20 MUL PUSH1 0x20 ADD ADD DUP2 SWAP1 MSTORE POP DUP12 DUP1 PUSH2 0x40B1 SWAP1 PUSH2 0x5469 JUMP JUMPDEST SWAP13 POP POP JUMPDEST DUP1 PUSH2 0x40BF DUP2 PUSH2 0x5469 JUMP JUMPDEST SWAP2 POP POP PUSH2 0x3FFF JUMP JUMPDEST POP POP POP POP POP POP POP JUMPDEST DUP1 PUSH2 0x40D9 DUP2 PUSH2 0x5469 JUMP JUMPDEST SWAP2 POP POP PUSH2 0x3E5F JUMP JUMPDEST POP POP DUP1 DUP1 PUSH2 0x40EE SWAP1 PUSH2 0x5469 JUMP JUMPDEST SWAP2 POP POP PUSH2 0x3E19 JUMP JUMPDEST POP SWAP6 SWAP5 POP POP POP POP POP JUMP JUMPDEST PUSH2 0x4108 PUSH2 0x4477 JUMP JUMPDEST CALLER PUSH1 0x0 SWAP1 DUP2 MSTORE PUSH1 0xA PUSH1 0x20 MSTORE PUSH1 0x40 DUP2 KECCAK256 PUSH1 0x2 ADD SLOAD PUSH8 0xFFFFFFFFFFFFFFFF DUP2 GT ISZERO PUSH2 0x4133 JUMPI PUSH2 0x4133 PUSH2 0x5134 JUMP JUMPDEST PUSH1 0x40 MLOAD SWAP1 DUP1 DUP3 MSTORE DUP1 PUSH1 0x20 MUL PUSH1 0x20 ADD DUP3 ADD PUSH1 0x40 MSTORE DUP1 ISZERO PUSH2 0x418E JUMPI DUP2 PUSH1 0x20 ADD JUMPDEST PUSH2 0x417B PUSH1 0x40 DUP1 MLOAD PUSH1 0x80 DUP2 ADD DUP3 MSTORE PUSH1 0x0 DUP1 DUP3 MSTORE PUSH1 0x20 DUP3 ADD DUP2 SWAP1 MSTORE SWAP1 SWAP2 DUP3 ADD SWAP1 DUP2 MSTORE PUSH1 0x20 ADD PUSH1 0x0 SWAP1 MSTORE SWAP1 JUMP JUMPDEST DUP2 MSTORE PUSH1 0x20 ADD SWAP1 PUSH1 0x1 SWAP1 SUB SWAP1 DUP2 PUSH2 0x4151 JUMPI SWAP1 POP JUMPDEST POP CALLER PUSH1 0x0 SWAP1 DUP2 MSTORE PUSH1 0xA PUSH1 0x20 SWAP1 DUP2 MSTORE PUSH1 0x40 DUP1 DUP4 KECCAK256 PUSH1 0x2 ADD DUP1 SLOAD DUP3 MLOAD DUP2 DUP6 MUL DUP2 ADD DUP6 ADD SWAP1 SWAP4 MSTORE DUP1 DUP4 MSTORE SWAP5 SWAP6 POP SWAP1 SWAP4 SWAP1 SWAP3 SWAP1 SWAP2 DUP5 ADD JUMPDEST DUP3 DUP3 LT ISZERO PUSH2 0x4277 JUMPI PUSH1 0x0 DUP5 DUP2 MSTORE PUSH1 0x20 SWAP1 DUP2 SWAP1 KECCAK256 PUSH1 0x40 DUP1 MLOAD PUSH1 0x80 DUP2 ADD DUP3 MSTORE PUSH1 0x2 DUP7 MUL SWAP1 SWAP3 ADD DUP1 SLOAD DUP4 MSTORE PUSH1 0x1 DUP2 ADD SLOAD PUSH2 0xFFFF DUP2 AND SWAP5 DUP5 ADD SWAP5 SWAP1 SWAP5 MSTORE SWAP2 SWAP3 SWAP1 DUP4 ADD SWAP1 PUSH3 0x10000 SWAP1 DIV PUSH1 0xFF AND PUSH1 0x3 DUP2 GT ISZERO PUSH2 0x421A JUMPI PUSH2 0x421A PUSH2 0x4C48 JUMP JUMPDEST PUSH1 0x3 DUP2 GT ISZERO PUSH2 0x422B JUMPI PUSH2 0x422B PUSH2 0x4C48 JUMP JUMPDEST DUP2 MSTORE PUSH1 0x20 ADD PUSH1 0x1 DUP3 ADD PUSH1 0x3 SWAP1 SLOAD SWAP1 PUSH2 0x100 EXP SWAP1 DIV PUSH1 0xFF AND PUSH1 0x2 DUP2 GT ISZERO PUSH2 0x4253 JUMPI PUSH2 0x4253 PUSH2 0x4C48 JUMP JUMPDEST PUSH1 0x2 DUP2 GT ISZERO PUSH2 0x4264 JUMPI PUSH2 0x4264 PUSH2 0x4C48 JUMP JUMPDEST DUP2 MSTORE POP POP DUP2 MSTORE PUSH1 0x20 ADD SWAP1 PUSH1 0x1 ADD SWAP1 PUSH2 0x41C1 JUMP JUMPDEST POP POP POP POP SWAP1 POP PUSH1 0x0 JUMPDEST CALLER PUSH1 0x0 SWAP1 DUP2 MSTORE PUSH1 0xA PUSH1 0x20 MSTORE PUSH1 0x40 SWAP1 KECCAK256 PUSH1 0x2 ADD SLOAD DUP2 LT ISZERO PUSH2 0x4333 JUMPI DUP3 PUSH1 0x0 ADD MLOAD DUP3 DUP3 DUP2 MLOAD DUP2 LT PUSH2 0x42B1 JUMPI PUSH2 0x42B1 PUSH2 0x543D JUMP JUMPDEST PUSH1 0x20 MUL PUSH1 0x20 ADD ADD MLOAD PUSH1 0x0 ADD MLOAD EQ ISZERO PUSH2 0x4321 JUMPI CALLER PUSH1 0x0 SWAP1 DUP2 MSTORE PUSH1 0xA PUSH1 0x20 MSTORE PUSH1 0x40 SWAP1 KECCAK256 PUSH1 0x2 SWAP1 DUP2 ADD DUP1 SLOAD DUP4 SWAP1 DUP2 LT PUSH2 0x42E9 JUMPI PUSH2 0x42E9 PUSH2 0x543D JUMP JUMPDEST SWAP1 PUSH1 0x0 MSTORE PUSH1 0x20 PUSH1 0x0 KECCAK256 SWAP1 PUSH1 0x2 MUL ADD PUSH1 0x1 ADD PUSH1 0x3 PUSH2 0x100 EXP DUP2 SLOAD DUP2 PUSH1 0xFF MUL NOT AND SWAP1 DUP4 PUSH1 0x2 DUP2 GT ISZERO PUSH2 0x431B JUMPI PUSH2 0x431B PUSH2 0x4C48 JUMP JUMPDEST MUL OR SWAP1 SSTORE POP JUMPDEST DUP1 PUSH2 0x432B DUP2 PUSH2 0x5469 JUMP JUMPDEST SWAP2 POP POP PUSH2 0x4280 JUMP JUMPDEST POP DUP2 MLOAD PUSH2 0x4340 SWAP1 CALLER PUSH2 0x4533 JUMP JUMPDEST DUP2 MLOAD PUSH1 0x20 DUP4 ADD MLOAD PUSH1 0x40 MLOAD CALLER SWAP3 SWAP2 PUSH1 0x0 DUP1 MLOAD PUSH1 0x20 PUSH2 0x5817 DUP4 CODECOPY DUP2 MLOAD SWAP2 MSTORE SWAP2 PUSH2 0x436B SWAP2 TIMESTAMP SWAP2 PUSH1 0x3 SWAP1 PUSH2 0x5724 JUMP JUMPDEST PUSH1 0x40 MLOAD DUP1 SWAP2 SUB SWAP1 LOG3 POP POP JUMP JUMPDEST PUSH1 0x0 SLOAD PUSH1 0x1 PUSH1 0x1 PUSH1 0xA0 SHL SUB AND CALLER EQ PUSH2 0x2CC1 JUMPI PUSH1 0x40 MLOAD PUSH3 0x461BCD PUSH1 0xE5 SHL DUP2 MSTORE PUSH1 0x20 PUSH1 0x4 DUP3 ADD MSTORE PUSH1 0x2 PUSH1 0x24 DUP3 ADD MSTORE PUSH2 0x189B PUSH1 0xF1 SHL PUSH1 0x44 DUP3 ADD MSTORE PUSH1 0x64 ADD PUSH2 0x4E4 JUMP JUMPDEST PUSH1 0x0 DUP1 PUSH1 0x8 DUP1 SLOAD DUP1 PUSH1 0x20 MUL PUSH1 0x20 ADD PUSH1 0x40 MLOAD SWAP1 DUP2 ADD PUSH1 0x40 MSTORE DUP1 SWAP3 SWAP2 SWAP1 DUP2 DUP2 MSTORE PUSH1 0x20 ADD DUP3 DUP1 SLOAD DUP1 ISZERO PUSH2 0x440F JUMPI PUSH1 0x20 MUL DUP3 ADD SWAP2 SWAP1 PUSH1 0x0 MSTORE PUSH1 0x20 PUSH1 0x0 KECCAK256 SWAP1 JUMPDEST DUP2 SLOAD PUSH1 0x1 PUSH1 0x1 PUSH1 0xA0 SHL SUB AND DUP2 MSTORE PUSH1 0x1 SWAP1 SWAP2 ADD SWAP1 PUSH1 0x20 ADD DUP1 DUP4 GT PUSH2 0x43F1 JUMPI JUMPDEST POP POP POP POP POP SWAP1 POP PUSH1 0x0 SWAP2 POP PUSH1 0x0 JUMPDEST DUP2 MLOAD DUP2 LT ISZERO PUSH2 0x4470 JUMPI DUP2 DUP2 DUP2 MLOAD DUP2 LT PUSH2 0x4438 JUMPI PUSH2 0x4438 PUSH2 0x543D JUMP JUMPDEST PUSH1 0x20 MUL PUSH1 0x20 ADD ADD MLOAD PUSH1 0x1 PUSH1 0x1 PUSH1 0xA0 SHL SUB AND DUP5 PUSH1 0x1 PUSH1 0x1 PUSH1 0xA0 SHL SUB AND EQ ISZERO PUSH2 0x445E JUMPI PUSH1 0x1 SWAP3 POP JUMPDEST DUP1 PUSH2 0x4468 DUP2 PUSH2 0x5469 JUMP JUMPDEST SWAP2 POP POP PUSH2 0x441D JUMP JUMPDEST POP POP SWAP2 SWAP1 POP JUMP JUMPDEST CALLER PUSH2 0x2CC1 JUMPI PUSH1 0x40 MLOAD PUSH3 0x461BCD PUSH1 0xE5 SHL DUP2 MSTORE PUSH1 0x20 PUSH1 0x4 DUP3 ADD MSTORE PUSH1 0x1 PUSH1 0x24 DUP3 ADD MSTORE PUSH1 0x33 PUSH1 0xF8 SHL PUSH1 0x44 DUP3 ADD MSTORE PUSH1 0x64 ADD PUSH2 0x4E4 JUMP JUMPDEST PUSH1 0x0 DUP1 PUSH1 0x40 MLOAD DUP1 PUSH1 0x80 ADD PUSH1 0x40 MSTORE DUP1 DUP8 DUP2 MSTORE PUSH1 0x20 ADD DUP7 PUSH2 0xFFFF AND DUP2 MSTORE PUSH1 0x20 ADD DUP6 PUSH1 0x3 DUP2 GT ISZERO PUSH2 0x44D8 JUMPI PUSH2 0x44D8 PUSH2 0x4C48 JUMP JUMPDEST DUP2 MSTORE PUSH1 0x20 ADD DUP5 PUSH1 0x2 DUP2 GT ISZERO PUSH2 0x44EF JUMPI PUSH2 0x44EF PUSH2 0x4C48 JUMP JUMPDEST DUP2 MSTORE POP SWAP1 POP PUSH1 0x0 PUSH2 0x450D DUP3 PUSH1 0x0 ADD MLOAD DUP4 PUSH1 0x40 ADD MLOAD DUP5 PUSH1 0x20 ADD MLOAD PUSH2 0x138A JUMP JUMPDEST SWAP1 POP DUP1 PUSH1 0x80 ADD MLOAD ISZERO PUSH2 0x4524 JUMPI PUSH1 0x1 SWAP3 POP POP POP PUSH2 0x452B JUMP JUMPDEST PUSH1 0x0 SWAP3 POP POP POP JUMPDEST SWAP5 SWAP4 POP POP POP POP JUMP JUMPDEST PUSH1 0x0 DUP3 DUP2 MSTORE PUSH1 0xE PUSH1 0x20 MSTORE PUSH1 0x40 DUP2 KECCAK256 SWAP1 DUP1 JUMPDEST DUP3 SLOAD DUP2 LT ISZERO PUSH2 0x45C9 JUMPI DUP4 PUSH1 0x1 PUSH1 0x1 PUSH1 0xA0 SHL SUB AND DUP4 DUP3 DUP2 SLOAD DUP2 LT PUSH2 0x4569 JUMPI PUSH2 0x4569 PUSH2 0x543D JUMP JUMPDEST PUSH1 0x0 SWAP2 DUP3 MSTORE PUSH1 0x20 SWAP1 SWAP2 KECCAK256 ADD SLOAD PUSH1 0x1 PUSH1 0x1 PUSH1 0xA0 SHL SUB AND EQ ISZERO PUSH2 0x45B7 JUMPI DUP1 SWAP2 POP DUP3 DUP2 DUP2 SLOAD DUP2 LT PUSH2 0x4599 JUMPI PUSH2 0x4599 PUSH2 0x543D JUMP JUMPDEST PUSH1 0x0 SWAP2 DUP3 MSTORE PUSH1 0x20 SWAP1 SWAP2 KECCAK256 ADD DUP1 SLOAD PUSH1 0x1 PUSH1 0x1 PUSH1 0xA0 SHL SUB NOT AND SWAP1 SSTORE PUSH2 0x45C9 JUMP JUMPDEST DUP1 PUSH2 0x45C1 DUP2 PUSH2 0x5469 JUMP JUMPDEST SWAP2 POP POP PUSH2 0x4544 JUMP JUMPDEST POP DUP2 SLOAD DUP3 SWAP1 PUSH2 0x45DA SWAP1 PUSH1 0x1 SWAP1 PUSH2 0x5484 JUMP JUMPDEST DUP2 SLOAD DUP2 LT PUSH2 0x45EA JUMPI PUSH2 0x45EA PUSH2 0x543D JUMP JUMPDEST SWAP1 PUSH1 0x0 MSTORE PUSH1 0x20 PUSH1 0x0 KECCAK256 ADD PUSH1 0x0 SWAP1 SLOAD SWAP1 PUSH2 0x100 EXP SWAP1 DIV PUSH1 0x1 PUSH1 0x1 PUSH1 0xA0 SHL SUB AND DUP3 DUP3 DUP2 SLOAD DUP2 LT PUSH2 0x461A JUMPI PUSH2 0x461A PUSH2 0x543D JUMP JUMPDEST SWAP1 PUSH1 0x0 MSTORE PUSH1 0x20 PUSH1 0x0 KECCAK256 ADD PUSH1 0x0 PUSH2 0x100 EXP DUP2 SLOAD DUP2 PUSH1 0x1 PUSH1 0x1 PUSH1 0xA0 SHL SUB MUL NOT AND SWAP1 DUP4 PUSH1 0x1 PUSH1 0x1 PUSH1 0xA0 SHL SUB AND MUL OR SWAP1 SSTORE POP DUP2 DUP1 SLOAD DUP1 PUSH2 0x4658 JUMPI PUSH2 0x4658 PUSH2 0x54B3 JUMP JUMPDEST PUSH1 0x0 DUP3 DUP2 MSTORE PUSH1 0x20 SWAP1 KECCAK256 DUP2 ADD PUSH1 0x0 NOT SWAP1 DUP2 ADD DUP1 SLOAD PUSH1 0x1 PUSH1 0x1 PUSH1 0xA0 SHL SUB NOT AND SWAP1 SSTORE ADD SWAP1 SSTORE POP POP POP POP JUMP JUMPDEST PUSH2 0x46CF PUSH1 0x40 DUP1 MLOAD PUSH2 0x120 DUP2 ADD DUP3 MSTORE PUSH1 0x0 DUP1 DUP3 MSTORE PUSH1 0x20 DUP3 ADD DUP2 SWAP1 MSTORE SWAP2 DUP2 ADD DUP3 SWAP1 MSTORE PUSH1 0x60 DUP2 ADD DUP3 SWAP1 MSTORE PUSH1 0x80 DUP2 ADD DUP3 SWAP1 MSTORE PUSH1 0xA0 DUP2 ADD DUP3 SWAP1 MSTORE SWAP1 PUSH1 0xC0 DUP3 ADD SWAP1 DUP2 MSTORE PUSH1 0x0 PUSH1 0x20 DUP3 ADD MSTORE PUSH1 0x60 PUSH1 0x40 SWAP1 SWAP2 ADD MSTORE SWAP1 JUMP JUMPDEST PUSH1 0x0 CALLER DUP7 DUP5 DUP8 TIMESTAMP PUSH1 0x40 MLOAD PUSH1 0x20 ADD PUSH2 0x46EA SWAP6 SWAP5 SWAP4 SWAP3 SWAP2 SWAP1 PUSH2 0x5780 JUMP JUMPDEST PUSH1 0x40 DUP1 MLOAD PUSH1 0x1F NOT DUP2 DUP5 SUB ADD DUP2 MSTORE DUP3 DUP3 MSTORE DUP1 MLOAD PUSH1 0x20 SWAP2 DUP3 ADD KECCAK256 PUSH2 0x120 DUP5 ADD DUP4 MSTORE DUP1 DUP5 MSTORE SWAP1 DUP4 ADD DUP11 SWAP1 MSTORE CALLER SWAP2 DUP4 ADD SWAP2 SWAP1 SWAP2 MSTORE PUSH1 0x1 PUSH1 0x1 PUSH1 0xA0 SHL SUB DUP9 AND PUSH1 0x60 DUP4 ADD MSTORE PUSH1 0x1 PUSH1 0x80 DUP4 ADD MSTORE PUSH1 0x0 PUSH1 0xA0 DUP4 ADD MSTORE SWAP2 POP PUSH1 0xC0 DUP2 ADD DUP6 PUSH1 0x3 DUP2 GT ISZERO PUSH2 0x474F JUMPI PUSH2 0x474F PUSH2 0x4C48 JUMP JUMPDEST DUP2 MSTORE PUSH1 0x20 ADD DUP5 PUSH2 0xFFFF AND DUP2 MSTORE PUSH1 0x20 ADD DUP7 DUP2 MSTORE POP SWAP2 POP POP SWAP6 SWAP5 POP POP POP POP POP JUMP JUMPDEST CALLER PUSH1 0x0 SWAP1 DUP2 MSTORE PUSH1 0xA PUSH1 0x20 MSTORE PUSH1 0x40 SWAP1 KECCAK256 SLOAD PUSH1 0x1 PUSH1 0xA0 SHL SWAP1 DIV PUSH1 0xFF AND PUSH2 0x47F8 JUMPI CALLER PUSH1 0x0 DUP2 DUP2 MSTORE PUSH1 0xA PUSH1 0x20 MSTORE PUSH1 0x40 DUP2 KECCAK256 DUP1 SLOAD PUSH1 0x1 PUSH1 0x1 PUSH1 0xA0 SHL SUB NOT SWAP1 DUP2 AND DUP5 OR DUP3 SSTORE PUSH1 0xB DUP1 SLOAD PUSH1 0x1 DUP2 ADD SWAP1 SWAP2 SSTORE PUSH32 0x175B7A638427703F0DBE7BB9BBF987A2551717B34E79F33B5B1008D1FA01DB9 ADD DUP1 SLOAD SWAP1 SWAP2 AND DUP5 OR SWAP1 SSTORE SWAP2 SWAP1 MSTORE DUP1 SLOAD PUSH1 0xFF PUSH1 0xA0 SHL NOT AND PUSH1 0x1 PUSH1 0xA0 SHL OR SWAP1 SSTORE JUMPDEST DUP1 ISZERO PUSH2 0x48AE JUMPI CALLER PUSH1 0x0 SWAP1 DUP2 MSTORE PUSH1 0xA PUSH1 0x20 SWAP1 DUP2 MSTORE PUSH1 0x40 DUP1 DUP4 KECCAK256 PUSH1 0x3 SWAP1 DUP2 ADD DUP1 SLOAD PUSH1 0x1 DUP1 DUP3 ADD DUP4 SSTORE SWAP2 DUP7 MSTORE SWAP5 DUP5 SWAP1 KECCAK256 DUP8 MLOAD PUSH1 0x2 SWAP1 SWAP7 MUL ADD SWAP5 DUP6 SSTORE SWAP3 DUP7 ADD MLOAD SWAP3 DUP5 ADD DUP1 SLOAD PUSH2 0xFFFF NOT DUP2 AND PUSH2 0xFFFF SWAP1 SWAP6 AND SWAP5 DUP6 OR DUP3 SSTORE SWAP3 DUP8 ADD MLOAD DUP8 SWAP6 SWAP5 SWAP1 SWAP4 SWAP2 SWAP3 PUSH3 0xFFFFFF NOT SWAP1 SWAP3 AND OR SWAP1 PUSH3 0x10000 SWAP1 DUP5 SWAP1 DUP2 GT ISZERO PUSH2 0x4875 JUMPI PUSH2 0x4875 PUSH2 0x4C48 JUMP JUMPDEST MUL OR SWAP1 SSTORE POP PUSH1 0x60 DUP3 ADD MLOAD PUSH1 0x1 DUP3 ADD DUP1 SLOAD PUSH4 0xFF000000 NOT AND PUSH4 0x1000000 DUP4 PUSH1 0x2 DUP2 GT ISZERO PUSH2 0x48A3 JUMPI PUSH2 0x48A3 PUSH2 0x4C48 JUMP JUMPDEST MUL OR SWAP1 SSTORE POP POP POP POP POP JUMP JUMPDEST CALLER PUSH1 0x0 SWAP1 DUP2 MSTORE PUSH1 0xA PUSH1 0x20 SWAP1 DUP2 MSTORE PUSH1 0x40 DUP1 DUP4 KECCAK256 PUSH1 0x2 SWAP1 DUP2 ADD DUP1 SLOAD PUSH1 0x1 DUP1 DUP3 ADD DUP4 SSTORE SWAP2 DUP7 MSTORE SWAP5 DUP5 SWAP1 KECCAK256 DUP8 MLOAD SWAP6 SWAP1 SWAP3 MUL SWAP1 SWAP2 ADD SWAP4 DUP5 SSTORE SWAP2 DUP6 ADD MLOAD SWAP2 DUP4 ADD DUP1 SLOAD PUSH2 0xFFFF NOT DUP2 AND PUSH2 0xFFFF SWAP1 SWAP5 AND SWAP4 DUP5 OR DUP3 SSTORE SWAP2 DUP7 ADD MLOAD DUP7 SWAP5 SWAP4 SWAP1 SWAP3 PUSH3 0xFFFFFF NOT AND OR PUSH3 0x10000 DUP4 PUSH1 0x3 DUP2 GT ISZERO PUSH2 0x4875 JUMPI PUSH2 0x4875 PUSH2 0x4C48 JUMP JUMPDEST PUSH1 0x0 DUP2 PUSH1 0x1 EQ DUP1 PUSH2 0x4932 JUMPI POP DUP2 PUSH1 0x3 EQ JUMPDEST DUP1 PUSH2 0x493D JUMPI POP DUP2 PUSH1 0x5 EQ JUMPDEST DUP1 PUSH2 0x4948 JUMPI POP DUP2 PUSH1 0x7 EQ JUMPDEST DUP1 PUSH2 0x4953 JUMPI POP DUP2 PUSH1 0x8 EQ JUMPDEST DUP1 PUSH2 0x495E JUMPI POP DUP2 PUSH1 0xA EQ JUMPDEST DUP1 PUSH2 0x4969 JUMPI POP DUP2 PUSH1 0xC EQ JUMPDEST ISZERO PUSH2 0x4976 JUMPI POP PUSH1 0x1F PUSH2 0x3BEC JUMP JUMPDEST DUP2 PUSH1 0x2 EQ PUSH2 0x4986 JUMPI POP PUSH1 0x1E PUSH2 0x3BEC JUMP JUMPDEST PUSH2 0x498F DUP4 PUSH2 0x4B14 JUMP JUMPDEST PUSH2 0x499A JUMPI PUSH1 0x1C PUSH2 0x499D JUMP JUMPDEST PUSH1 0x1D JUMPDEST PUSH1 0xFF AND SWAP4 SWAP3 POP POP POP JUMP JUMPDEST PUSH1 0x0 DUP1 PUSH2 0x49B3 DUP4 PUSH2 0x4B14 JUMP JUMPDEST ISZERO PUSH2 0x49C0 JUMPI POP PUSH1 0x1 PUSH2 0x49C4 JUMP JUMPDEST POP PUSH1 0x0 JUMPDEST PUSH2 0x49CF DUP2 PUSH1 0x5A PUSH2 0x549B JUMP JUMPDEST DUP5 GT PUSH2 0x49DD JUMPI DUP4 SWAP2 POP PUSH2 0x4A6E JUMP JUMPDEST DUP4 PUSH2 0x49E9 DUP3 PUSH1 0x5A PUSH2 0x549B JUMP JUMPDEST LT DUP1 ISZERO PUSH2 0x4A00 JUMPI POP PUSH2 0x49FC DUP2 PUSH1 0xB5 PUSH2 0x549B JUMP JUMPDEST DUP5 GT ISZERO JUMPDEST ISZERO PUSH2 0x4A21 JUMPI PUSH2 0x4A10 DUP2 PUSH1 0x5A PUSH2 0x549B JUMP JUMPDEST PUSH2 0x4A1A SWAP1 DUP6 PUSH2 0x5484 JUMP JUMPDEST SWAP2 POP PUSH2 0x4A6E JUMP JUMPDEST DUP4 PUSH2 0x4A2D DUP3 PUSH1 0xB5 PUSH2 0x549B JUMP JUMPDEST LT DUP1 ISZERO PUSH2 0x4A45 JUMPI POP PUSH2 0x4A41 DUP2 PUSH2 0x111 PUSH2 0x549B JUMP JUMPDEST DUP5 GT ISZERO JUMPDEST ISZERO PUSH2 0x4A55 JUMPI PUSH2 0x4A10 DUP2 PUSH1 0xB5 PUSH2 0x549B JUMP JUMPDEST PUSH2 0x4A61 DUP2 PUSH2 0x111 PUSH2 0x549B JUMP JUMPDEST PUSH2 0x4A6B SWAP1 DUP6 PUSH2 0x5484 JUMP JUMPDEST SWAP2 POP JUMPDEST POP SWAP3 SWAP2 POP POP JUMP JUMPDEST PUSH1 0x0 DUP1 PUSH2 0x4A85 PUSH3 0x15180 DUP5 PUSH2 0x5587 JUMP JUMPDEST SWAP1 POP PUSH1 0x0 PUSH1 0x7 PUSH2 0x4A96 DUP4 PUSH1 0x3 PUSH2 0x549B JUMP JUMPDEST PUSH2 0x4AA0 SWAP2 SWAP1 PUSH2 0x57DE JUMP JUMPDEST PUSH2 0x452B SWAP1 PUSH1 0x1 PUSH2 0x549B JUMP JUMPDEST PUSH1 0x0 PUSH2 0x3BEC PUSH3 0x15180 DUP4 PUSH2 0x57F2 JUMP JUMPDEST PUSH2 0x340D DUP2 PUSH1 0x40 MLOAD PUSH1 0x24 ADD PUSH2 0x4AD0 SWAP2 DUP2 MSTORE PUSH1 0x20 ADD SWAP1 JUMP JUMPDEST PUSH1 0x40 DUP1 MLOAD PUSH1 0x1F NOT DUP2 DUP5 SUB ADD DUP2 MSTORE SWAP2 SWAP1 MSTORE PUSH1 0x20 DUP2 ADD DUP1 MLOAD PUSH28 0xFFFFFFFFFFFFFFFFFFFFFFFFFFFFFFFFFFFFFFFFFFFFFFFFFFFFFFFF AND PUSH4 0xF82C50F1 PUSH1 0xE0 SHL OR SWAP1 MSTORE PUSH2 0x4B50 JUMP JUMPDEST PUSH1 0x0 PUSH2 0x4B21 PUSH1 0x4 DUP4 PUSH2 0x57DE JUMP JUMPDEST ISZERO DUP1 ISZERO PUSH2 0x4B37 JUMPI POP PUSH2 0x4B34 PUSH1 0x64 DUP4 PUSH2 0x57DE JUMP JUMPDEST ISZERO ISZERO JUMPDEST DUP1 PUSH2 0x3BEC JUMPI POP PUSH2 0x4B49 PUSH2 0x190 DUP4 PUSH2 0x57DE JUMP JUMPDEST ISZERO SWAP3 SWAP2 POP POP JUMP JUMPDEST DUP1 MLOAD PUSH11 0x636F6E736F6C652E6C6F67 PUSH1 0x20 DUP4 ADD PUSH1 0x0 DUP1 DUP5 DUP4 DUP6 GAS STATICCALL POP POP POP POP POP JUMP JUMPDEST DUP3 DUP1 SLOAD PUSH2 0x4B7D SWAP1 PUSH2 0x54FF JUMP JUMPDEST SWAP1 PUSH1 0x0 MSTORE PUSH1 0x20 PUSH1 0x0 KECCAK256 SWAP1 PUSH1 0x1F ADD PUSH1 0x20 SWAP1 DIV DUP2 ADD SWAP3 DUP3 PUSH2 0x4B9F JUMPI PUSH1 0x0 DUP6 SSTORE PUSH2 0x4BE5 JUMP JUMPDEST DUP3 PUSH1 0x1F LT PUSH2 0x4BB8 JUMPI DUP1 MLOAD PUSH1 0xFF NOT AND DUP4 DUP1 ADD OR DUP6 SSTORE PUSH2 0x4BE5 JUMP JUMPDEST DUP3 DUP1 ADD PUSH1 0x1 ADD DUP6 SSTORE DUP3 ISZERO PUSH2 0x4BE5 JUMPI SWAP2 DUP3 ADD JUMPDEST DUP3 DUP2 GT ISZERO PUSH2 0x4BE5 JUMPI DUP3 MLOAD DUP3 SSTORE SWAP2 PUSH1 0x20 ADD SWAP2 SWAP1 PUSH1 0x1 ADD SWAP1 PUSH2 0x4BCA JUMP JUMPDEST POP PUSH2 0x4BF1 SWAP3 SWAP2 POP PUSH2 0x4BF5 JUMP JUMPDEST POP SWAP1 JUMP JUMPDEST JUMPDEST DUP1 DUP3 GT ISZERO PUSH2 0x4BF1 JUMPI PUSH1 0x0 DUP2 SSTORE PUSH1 0x1 ADD PUSH2 0x4BF6 JUMP JUMPDEST DUP1 CALLDATALOAD PUSH1 0x1 PUSH1 0x1 PUSH1 0xA0 SHL SUB DUP2 AND DUP2 EQ PUSH2 0x4C21 JUMPI PUSH1 0x0 DUP1 REVERT JUMPDEST SWAP2 SWAP1 POP JUMP JUMPDEST PUSH1 0x0 PUSH1 0x20 DUP3 DUP5 SUB SLT ISZERO PUSH2 0x4C38 JUMPI PUSH1 0x0 DUP1 REVERT JUMPDEST PUSH2 0x4C41 DUP3 PUSH2 0x4C0A JUMP JUMPDEST SWAP4 SWAP3 POP POP POP JUMP JUMPDEST PUSH4 0x4E487B71 PUSH1 0xE0 SHL PUSH1 0x0 MSTORE PUSH1 0x21 PUSH1 0x4 MSTORE PUSH1 0x24 PUSH1 0x0 REVERT JUMPDEST PUSH1 0x4 DUP2 LT PUSH2 0x340D JUMPI PUSH2 0x340D PUSH2 0x4C48 JUMP JUMPDEST PUSH2 0x4C77 DUP2 PUSH2 0x4C5E JUMP JUMPDEST SWAP1 MSTORE JUMP JUMPDEST PUSH1 0x3 DUP2 LT PUSH2 0x4C77 JUMPI PUSH2 0x4C77 PUSH2 0x4C48 JUMP JUMPDEST PUSH1 0x0 DUP2 MLOAD DUP1 DUP5 MSTORE PUSH1 0x20 DUP1 DUP6 ADD SWAP5 POP DUP1 DUP5 ADD PUSH1 0x0 JUMPDEST DUP4 DUP2 LT ISZERO PUSH2 0x4CF4 JUMPI DUP2 MLOAD DUP1 MLOAD DUP9 MSTORE PUSH2 0xFFFF DUP5 DUP3 ADD MLOAD AND DUP5 DUP10 ADD MSTORE PUSH1 0x40 DUP1 DUP3 ADD MLOAD PUSH2 0x4CC8 DUP2 PUSH2 0x4C5E JUMP JUMPDEST SWAP1 DUP10 ADD MSTORE PUSH1 0x60 SWAP1 DUP2 ADD MLOAD SWAP1 PUSH2 0x4CDF DUP2 DUP11 ADD DUP4 PUSH2 0x4C7B JUMP JUMPDEST POP POP PUSH1 0x80 SWAP7 SWAP1 SWAP7 ADD SWAP6 SWAP1 DUP3 ADD SWAP1 PUSH1 0x1 ADD PUSH2 0x4C9F JUMP JUMPDEST POP SWAP5 SWAP6 SWAP5 POP POP POP POP POP JUMP JUMPDEST PUSH1 0x0 PUSH1 0x20 DUP1 DUP4 ADD DUP2 DUP5 MSTORE DUP1 DUP6 MLOAD DUP1 DUP4 MSTORE PUSH1 0x40 SWAP3 POP DUP3 DUP7 ADD SWAP2 POP DUP3 DUP2 PUSH1 0x5 SHL DUP8 ADD ADD DUP5 DUP9 ADD PUSH1 0x0 DUP1 JUMPDEST DUP5 DUP2 LT ISZERO PUSH2 0x4DE3 JUMPI DUP10 DUP5 SUB PUSH1 0x3F NOT ADD DUP7 MSTORE DUP3 MLOAD DUP1 MLOAD PUSH1 0x1 PUSH1 0x1 PUSH1 0xA0 SHL SUB AND DUP6 MSTORE DUP9 DUP2 ADD MLOAD ISZERO ISZERO DUP10 DUP7 ADD MSTORE DUP8 DUP2 ADD MLOAD PUSH1 0xA0 DUP10 DUP8 ADD DUP2 SWAP1 MSTORE DUP2 MLOAD SWAP1 DUP8 ADD DUP2 SWAP1 MSTORE PUSH1 0xC0 DUP8 ADD SWAP2 DUP12 ADD SWAP1 DUP6 SWAP1 JUMPDEST DUP1 DUP3 LT ISZERO PUSH2 0x4D97 JUMPI DUP3 MLOAD PUSH5 0xFFFFFFFFFF AND DUP5 MSTORE SWAP3 DUP13 ADD SWAP3 SWAP2 DUP13 ADD SWAP2 PUSH1 0x1 SWAP2 SWAP1 SWAP2 ADD SWAP1 PUSH2 0x4D70 JUMP JUMPDEST POP POP POP PUSH1 0x60 DUP1 DUP4 ADD MLOAD DUP8 DUP4 SUB DUP3 DUP10 ADD MSTORE PUSH2 0x4DB1 DUP4 DUP3 PUSH2 0x4C8B JUMP JUMPDEST SWAP3 POP POP POP PUSH1 0x80 DUP1 DUP4 ADD MLOAD SWAP3 POP DUP7 DUP3 SUB DUP2 DUP9 ADD MSTORE POP PUSH2 0x4DCF DUP2 DUP4 PUSH2 0x4C8B JUMP JUMPDEST SWAP8 DUP11 ADD SWAP8 SWAP6 POP POP POP SWAP2 DUP8 ADD SWAP2 PUSH1 0x1 ADD PUSH2 0x4D27 JUMP JUMPDEST POP SWAP2 SWAP10 SWAP9 POP POP POP POP POP POP POP POP POP JUMP JUMPDEST PUSH1 0x0 PUSH1 0x20 DUP3 DUP5 SUB SLT ISZERO PUSH2 0x4E04 JUMPI PUSH1 0x0 DUP1 REVERT JUMPDEST DUP2 CALLDATALOAD PUSH8 0xFFFFFFFFFFFFFFFF DUP2 GT ISZERO PUSH2 0x4E1B JUMPI PUSH1 0x0 DUP1 REVERT JUMPDEST DUP3 ADD PUSH2 0x120 DUP2 DUP6 SUB SLT ISZERO PUSH2 0x4C41 JUMPI PUSH1 0x0 DUP1 REVERT JUMPDEST PUSH1 0x0 PUSH1 0x20 DUP3 DUP5 SUB SLT ISZERO PUSH2 0x4E40 JUMPI PUSH1 0x0 DUP1 REVERT JUMPDEST POP CALLDATALOAD SWAP2 SWAP1 POP JUMP JUMPDEST DUP1 CALLDATALOAD PUSH1 0x4 DUP2 LT PUSH2 0x4C21 JUMPI PUSH1 0x0 DUP1 REVERT JUMPDEST DUP1 CALLDATALOAD PUSH2 0xFFFF DUP2 AND DUP2 EQ PUSH2 0x4C21 JUMPI PUSH1 0x0 DUP1 REVERT JUMPDEST PUSH1 0x0 DUP1 PUSH1 0x0 PUSH1 0x60 DUP5 DUP7 SUB SLT ISZERO PUSH2 0x4E7D JUMPI PUSH1 0x0 DUP1 REVERT JUMPDEST DUP4 CALLDATALOAD SWAP3 POP PUSH2 0x4E8D PUSH1 0x20 DUP6 ADD PUSH2 0x4E47 JUMP JUMPDEST SWAP2 POP PUSH2 0x4E9B PUSH1 0x40 DUP6 ADD PUSH2 0x4E56 JUMP JUMPDEST SWAP1 POP SWAP3 POP SWAP3 POP SWAP3 JUMP JUMPDEST PUSH1 0x0 JUMPDEST DUP4 DUP2 LT ISZERO PUSH2 0x4EBF JUMPI DUP2 DUP2 ADD MLOAD DUP4 DUP3 ADD MSTORE PUSH1 0x20 ADD PUSH2 0x4EA7 JUMP JUMPDEST DUP4 DUP2 GT ISZERO PUSH2 0x4ECE JUMPI PUSH1 0x0 DUP5 DUP5 ADD MSTORE JUMPDEST POP POP POP POP JUMP JUMPDEST PUSH1 0x0 DUP2 MLOAD DUP1 DUP5 MSTORE PUSH2 0x4EEC DUP2 PUSH1 0x20 DUP7 ADD PUSH1 0x20 DUP7 ADD PUSH2 0x4EA4 JUMP JUMPDEST PUSH1 0x1F ADD PUSH1 0x1F NOT AND SWAP3 SWAP1 SWAP3 ADD PUSH1 0x20 ADD SWAP3 SWAP2 POP POP JUMP JUMPDEST PUSH1 0x0 PUSH2 0x120 DUP3 MLOAD DUP5 MSTORE PUSH1 0x20 DUP4 ADD MLOAD PUSH1 0x20 DUP6 ADD MSTORE PUSH1 0x1 PUSH1 0x1 PUSH1 0xA0 SHL SUB PUSH1 0x40 DUP5 ADD MLOAD AND PUSH1 0x40 DUP6 ADD MSTORE PUSH1 0x60 DUP4 ADD MLOAD PUSH2 0x4F40 PUSH1 0x60 DUP7 ADD DUP3 PUSH1 0x1 PUSH1 0x1 PUSH1 0xA0 SHL SUB AND SWAP1 MSTORE JUMP JUMPDEST POP PUSH1 0x80 DUP4 ADD MLOAD PUSH2 0x4F54 PUSH1 0x80 DUP7 ADD DUP3 ISZERO ISZERO SWAP1 MSTORE JUMP JUMPDEST POP PUSH1 0xA0 DUP4 ADD MLOAD PUSH2 0x4F68 PUSH1 0xA0 DUP7 ADD DUP3 ISZERO ISZERO SWAP1 MSTORE JUMP JUMPDEST POP PUSH1 0xC0 DUP4 ADD MLOAD PUSH2 0x4F7B PUSH1 0xC0 DUP7 ADD DUP3 PUSH2 0x4C6E JUMP JUMPDEST POP PUSH1 0xE0 DUP4 ADD MLOAD PUSH2 0x4F91 PUSH1 0xE0 DUP7 ADD DUP3 PUSH2 0xFFFF AND SWAP1 MSTORE JUMP JUMPDEST POP PUSH2 0x100 DUP1 DUP5 ADD MLOAD DUP3 DUP3 DUP8 ADD MSTORE PUSH2 0x4FAA DUP4 DUP8 ADD DUP3 PUSH2 0x4ED4 JUMP JUMPDEST SWAP7 SWAP6 POP POP POP POP POP POP JUMP JUMPDEST PUSH1 0x20 DUP2 MSTORE PUSH1 0x0 PUSH2 0x4C41 PUSH1 0x20 DUP4 ADD DUP5 PUSH2 0x4F00 JUMP JUMPDEST PUSH1 0x0 DUP1 PUSH1 0x0 DUP1 PUSH1 0x0 DUP1 PUSH1 0xA0 DUP8 DUP10 SUB SLT ISZERO PUSH2 0x4FE0 JUMPI PUSH1 0x0 DUP1 REVERT JUMPDEST DUP7 CALLDATALOAD SWAP6 POP PUSH2 0x4FF0 PUSH1 0x20 DUP9 ADD PUSH2 0x4C0A JUMP JUMPDEST SWAP5 POP PUSH1 0x40 DUP8 ADD CALLDATALOAD PUSH8 0xFFFFFFFFFFFFFFFF DUP1 DUP3 GT ISZERO PUSH2 0x500D JUMPI PUSH1 0x0 DUP1 REVERT JUMPDEST DUP2 DUP10 ADD SWAP2 POP DUP10 PUSH1 0x1F DUP4 ADD SLT PUSH2 0x5021 JUMPI PUSH1 0x0 DUP1 REVERT JUMPDEST DUP2 CALLDATALOAD DUP2 DUP2 GT ISZERO PUSH2 0x5030 JUMPI PUSH1 0x0 DUP1 REVERT JUMPDEST DUP11 PUSH1 0x20 DUP3 DUP6 ADD ADD GT ISZERO PUSH2 0x5042 JUMPI PUSH1 0x0 DUP1 REVERT JUMPDEST PUSH1 0x20 DUP4 ADD SWAP7 POP DUP1 SWAP6 POP POP POP POP PUSH2 0x505A PUSH1 0x60 DUP9 ADD PUSH2 0x4E47 JUMP JUMPDEST SWAP2 POP PUSH2 0x5068 PUSH1 0x80 DUP9 ADD PUSH2 0x4E56 JUMP JUMPDEST SWAP1 POP SWAP3 SWAP6 POP SWAP3 SWAP6 POP SWAP3 SWAP6 JUMP JUMPDEST DUP1 ISZERO ISZERO DUP2 EQ PUSH2 0x340D JUMPI PUSH1 0x0 DUP1 REVERT JUMPDEST DUP1 CALLDATALOAD PUSH2 0x4C21 DUP2 PUSH2 0x5074 JUMP JUMPDEST PUSH1 0x0 PUSH1 0x20 DUP3 DUP5 SUB SLT ISZERO PUSH2 0x509F JUMPI PUSH1 0x0 DUP1 REVERT JUMPDEST DUP2 CALLDATALOAD PUSH2 0x4C41 DUP2 PUSH2 0x5074 JUMP JUMPDEST PUSH1 0x0 PUSH1 0x20 DUP1 DUP4 ADD DUP2 DUP5 MSTORE DUP1 DUP6 MLOAD DUP1 DUP4 MSTORE PUSH1 0x40 SWAP3 POP DUP3 DUP7 ADD SWAP2 POP DUP3 DUP2 PUSH1 0x5 SHL DUP8 ADD ADD DUP5 DUP9 ADD PUSH1 0x0 JUMPDEST DUP4 DUP2 LT ISZERO PUSH2 0x5126 JUMPI PUSH1 0x3F NOT DUP10 DUP5 SUB ADD DUP6 MSTORE DUP2 MLOAD PUSH1 0x60 DUP2 MLOAD DUP2 DUP7 MSTORE PUSH2 0x50F7 DUP3 DUP8 ADD DUP3 PUSH2 0x4F00 JUMP JUMPDEST SWAP2 POP POP DUP9 DUP3 ADD MLOAD PUSH2 0x510A DUP11 DUP8 ADD DUP3 PUSH2 0x4C7B JUMP JUMPDEST POP SWAP1 DUP8 ADD MLOAD SWAP4 DUP8 ADD SWAP4 SWAP1 SWAP4 MSTORE SWAP4 DUP7 ADD SWAP4 SWAP1 DUP7 ADD SWAP1 PUSH1 0x1 ADD PUSH2 0x50D1 JUMP JUMPDEST POP SWAP1 SWAP9 SWAP8 POP POP POP POP POP POP POP POP JUMP JUMPDEST PUSH4 0x4E487B71 PUSH1 0xE0 SHL PUSH1 0x0 MSTORE PUSH1 0x41 PUSH1 0x4 MSTORE PUSH1 0x24 PUSH1 0x0 REVERT JUMPDEST PUSH1 0x40 MLOAD PUSH2 0x120 DUP2 ADD PUSH8 0xFFFFFFFFFFFFFFFF DUP2 GT DUP3 DUP3 LT OR ISZERO PUSH2 0x516E JUMPI PUSH2 0x516E PUSH2 0x5134 JUMP JUMPDEST PUSH1 0x40 MSTORE SWAP1 JUMP JUMPDEST PUSH1 0x0 DUP3 PUSH1 0x1F DUP4 ADD SLT PUSH2 0x5185 JUMPI PUSH1 0x0 DUP1 REVERT JUMPDEST DUP2 CALLDATALOAD PUSH8 0xFFFFFFFFFFFFFFFF DUP1 DUP3 GT ISZERO PUSH2 0x51A0 JUMPI PUSH2 0x51A0 PUSH2 0x5134 JUMP JUMPDEST PUSH1 0x40 MLOAD PUSH1 0x1F DUP4 ADD PUSH1 0x1F NOT SWAP1 DUP2 AND PUSH1 0x3F ADD AND DUP2 ADD SWAP1 DUP3 DUP3 GT DUP2 DUP4 LT OR ISZERO PUSH2 0x51C8 JUMPI PUSH2 0x51C8 PUSH2 0x5134 JUMP JUMPDEST DUP2 PUSH1 0x40 MSTORE DUP4 DUP2 MSTORE DUP7 PUSH1 0x20 DUP6 DUP9 ADD ADD GT ISZERO PUSH2 0x51E1 JUMPI PUSH1 0x0 DUP1 REVERT JUMPDEST DUP4 PUSH1 0x20 DUP8 ADD PUSH1 0x20 DUP4 ADD CALLDATACOPY PUSH1 0x0 PUSH1 0x20 DUP6 DUP4 ADD ADD MSTORE DUP1 SWAP5 POP POP POP POP POP SWAP3 SWAP2 POP POP JUMP JUMPDEST PUSH1 0x0 PUSH2 0x120 DUP3 DUP5 SUB SLT ISZERO PUSH2 0x5214 JUMPI PUSH1 0x0 DUP1 REVERT JUMPDEST PUSH2 0x521C PUSH2 0x514A JUMP JUMPDEST SWAP1 POP DUP2 CALLDATALOAD DUP2 MSTORE PUSH1 0x20 DUP3 ADD CALLDATALOAD PUSH1 0x20 DUP3 ADD MSTORE PUSH2 0x5238 PUSH1 0x40 DUP4 ADD PUSH2 0x4C0A JUMP JUMPDEST PUSH1 0x40 DUP3 ADD MSTORE PUSH2 0x5249 PUSH1 0x60 DUP4 ADD PUSH2 0x4C0A JUMP JUMPDEST PUSH1 0x60 DUP3 ADD MSTORE PUSH2 0x525A PUSH1 0x80 DUP4 ADD PUSH2 0x5082 JUMP JUMPDEST PUSH1 0x80 DUP3 ADD MSTORE PUSH2 0x526B PUSH1 0xA0 DUP4 ADD PUSH2 0x5082 JUMP JUMPDEST PUSH1 0xA0 DUP3 ADD MSTORE PUSH2 0x527C PUSH1 0xC0 DUP4 ADD PUSH2 0x4E47 JUMP JUMPDEST PUSH1 0xC0 DUP3 ADD MSTORE PUSH2 0x528D PUSH1 0xE0 DUP4 ADD PUSH2 0x4E56 JUMP JUMPDEST PUSH1 0xE0 DUP3 ADD MSTORE PUSH2 0x100 DUP1 DUP4 ADD CALLDATALOAD PUSH8 0xFFFFFFFFFFFFFFFF DUP2 GT ISZERO PUSH2 0x52AE JUMPI PUSH1 0x0 DUP1 REVERT JUMPDEST PUSH2 0x52BA DUP6 DUP3 DUP7 ADD PUSH2 0x5174 JUMP JUMPDEST DUP3 DUP5 ADD MSTORE POP POP SWAP3 SWAP2 POP POP JUMP JUMPDEST PUSH1 0x0 DUP1 PUSH1 0x40 DUP4 DUP6 SUB SLT ISZERO PUSH2 0x52D9 JUMPI PUSH1 0x0 DUP1 REVERT JUMPDEST DUP3 CALLDATALOAD PUSH8 0xFFFFFFFFFFFFFFFF DUP2 GT ISZERO PUSH2 0x52F0 JUMPI PUSH1 0x0 DUP1 REVERT JUMPDEST PUSH2 0x52FC DUP6 DUP3 DUP7 ADD PUSH2 0x5201 JUMP JUMPDEST SWAP3 POP POP PUSH2 0x530B PUSH1 0x20 DUP5 ADD PUSH2 0x4C0A JUMP JUMPDEST SWAP1 POP SWAP3 POP SWAP3 SWAP1 POP JUMP JUMPDEST PUSH1 0x0 DUP1 PUSH1 0x40 DUP4 DUP6 SUB SLT ISZERO PUSH2 0x5327 JUMPI PUSH1 0x0 DUP1 REVERT JUMPDEST DUP3 CALLDATALOAD PUSH2 0x5332 DUP2 PUSH2 0x5074 JUMP JUMPDEST SWAP2 POP PUSH2 0x530B PUSH1 0x20 DUP5 ADD PUSH2 0x4C0A JUMP JUMPDEST PUSH1 0x20 DUP1 DUP3 MSTORE DUP3 MLOAD DUP3 DUP3 ADD DUP2 SWAP1 MSTORE PUSH1 0x0 SWAP2 SWAP1 DUP5 DUP3 ADD SWAP1 PUSH1 0x40 DUP6 ADD SWAP1 DUP5 JUMPDEST DUP2 DUP2 LT ISZERO PUSH2 0x5381 JUMPI DUP4 MLOAD PUSH1 0x1 PUSH1 0x1 PUSH1 0xA0 SHL SUB AND DUP4 MSTORE SWAP3 DUP5 ADD SWAP3 SWAP2 DUP5 ADD SWAP2 PUSH1 0x1 ADD PUSH2 0x535C JUMP JUMPDEST POP SWAP1 SWAP7 SWAP6 POP POP POP POP POP POP JUMP JUMPDEST PUSH1 0x20 DUP1 DUP3 MSTORE DUP3 MLOAD DUP3 DUP3 ADD DUP2 SWAP1 MSTORE PUSH1 0x0 SWAP2 SWAP1 PUSH1 0x40 SWAP1 DUP2 DUP6 ADD SWAP1 DUP7 DUP5 ADD DUP6 JUMPDEST DUP3 DUP2 LT ISZERO PUSH2 0x53D8 JUMPI DUP2 MLOAD DUP1 MLOAD DUP6 MSTORE DUP7 ADD MLOAD PUSH1 0x1 PUSH1 0x1 PUSH1 0xA0 SHL SUB AND DUP7 DUP6 ADD MSTORE SWAP3 DUP5 ADD SWAP3 SWAP1 DUP6 ADD SWAP1 PUSH1 0x1 ADD PUSH2 0x53AA JUMP JUMPDEST POP SWAP2 SWAP8 SWAP7 POP POP POP POP POP POP POP JUMP JUMPDEST PUSH1 0x0 DUP1 PUSH1 0x40 DUP4 DUP6 SUB SLT ISZERO PUSH2 0x53F8 JUMPI PUSH1 0x0 DUP1 REVERT JUMPDEST DUP3 CALLDATALOAD SWAP2 POP PUSH2 0x530B PUSH1 0x20 DUP5 ADD PUSH2 0x4C0A JUMP JUMPDEST PUSH1 0x0 PUSH1 0x20 DUP3 DUP5 SUB SLT ISZERO PUSH2 0x541A JUMPI PUSH1 0x0 DUP1 REVERT JUMPDEST DUP2 CALLDATALOAD PUSH8 0xFFFFFFFFFFFFFFFF DUP2 GT ISZERO PUSH2 0x5431 JUMPI PUSH1 0x0 DUP1 REVERT JUMPDEST PUSH2 0x4A6B DUP5 DUP3 DUP6 ADD PUSH2 0x5201 JUMP JUMPDEST PUSH4 0x4E487B71 PUSH1 0xE0 SHL PUSH1 0x0 MSTORE PUSH1 0x32 PUSH1 0x4 MSTORE PUSH1 0x24 PUSH1 0x0 REVERT JUMPDEST PUSH4 0x4E487B71 PUSH1 0xE0 SHL PUSH1 0x0 MSTORE PUSH1 0x11 PUSH1 0x4 MSTORE PUSH1 0x24 PUSH1 0x0 REVERT JUMPDEST PUSH1 0x0 PUSH1 0x0 NOT DUP3 EQ ISZERO PUSH2 0x547D JUMPI PUSH2 0x547D PUSH2 0x5453 JUMP JUMPDEST POP PUSH1 0x1 ADD SWAP1 JUMP JUMPDEST PUSH1 0x0 DUP3 DUP3 LT ISZERO PUSH2 0x5496 JUMPI PUSH2 0x5496 PUSH2 0x5453 JUMP JUMPDEST POP SUB SWAP1 JUMP JUMPDEST PUSH1 0x0 DUP3 NOT DUP3 GT ISZERO PUSH2 0x54AE JUMPI PUSH2 0x54AE PUSH2 0x5453 JUMP JUMPDEST POP ADD SWAP1 JUMP JUMPDEST PUSH4 0x4E487B71 PUSH1 0xE0 SHL PUSH1 0x0 MSTORE PUSH1 0x31 PUSH1 0x4 MSTORE PUSH1 0x24 PUSH1 0x0 REVERT JUMPDEST PUSH1 0x0 PUSH1 0x20 DUP3 DUP5 SUB SLT ISZERO PUSH2 0x54DB JUMPI PUSH1 0x0 DUP1 REVERT JUMPDEST PUSH2 0x4C41 DUP3 PUSH2 0x4E56 JUMP JUMPDEST PUSH1 0x0 PUSH1 0x20 DUP3 DUP5 SUB SLT ISZERO PUSH2 0x54F6 JUMPI PUSH1 0x0 DUP1 REVERT JUMPDEST PUSH2 0x4C41 DUP3 PUSH2 0x4E47 JUMP JUMPDEST PUSH1 0x1 DUP2 DUP2 SHR SWAP1 DUP3 AND DUP1 PUSH2 0x5513 JUMPI PUSH1 0x7F DUP3 AND SWAP2 POP JUMPDEST PUSH1 0x20 DUP3 LT DUP2 EQ ISZERO PUSH2 0x5534 JUMPI PUSH4 0x4E487B71 PUSH1 0xE0 SHL PUSH1 0x0 MSTORE PUSH1 0x22 PUSH1 0x4 MSTORE PUSH1 0x24 PUSH1 0x0 REVERT JUMPDEST POP SWAP2 SWAP1 POP JUMP JUMPDEST PUSH5 0xFFFFFFFFFF DUP6 AND DUP2 MSTORE DUP4 ISZERO ISZERO PUSH1 0x20 DUP3 ADD MSTORE PUSH1 0xFF DUP4 AND PUSH1 0x40 DUP3 ADD MSTORE PUSH1 0x80 DUP2 ADD PUSH2 0x5562 DUP4 PUSH2 0x4C5E JUMP JUMPDEST DUP3 PUSH1 0x60 DUP4 ADD MSTORE SWAP6 SWAP5 POP POP POP POP POP JUMP JUMPDEST PUSH4 0x4E487B71 PUSH1 0xE0 SHL PUSH1 0x0 MSTORE PUSH1 0x12 PUSH1 0x4 MSTORE PUSH1 0x24 PUSH1 0x0 REVERT JUMPDEST PUSH1 0x0 DUP3 PUSH2 0x5596 JUMPI PUSH2 0x5596 PUSH2 0x5571 JUMP JUMPDEST POP DIV SWAP1 JUMP JUMPDEST PUSH1 0x0 DUP1 DUP3 SLT DUP3 PUSH1 0x1 PUSH1 0x1 PUSH1 0xFF SHL SUB SUB DUP5 SGT DUP2 ISZERO AND ISZERO PUSH2 0x55BC JUMPI PUSH2 0x55BC PUSH2 0x5453 JUMP JUMPDEST PUSH1 0x1 PUSH1 0xFF SHL DUP4 SWAP1 SUB DUP5 SLT DUP2 AND ISZERO PUSH2 0x55D5 JUMPI PUSH2 0x55D5 PUSH2 0x5453 JUMP JUMPDEST POP POP ADD SWAP1 JUMP JUMPDEST PUSH1 0x0 PUSH1 0x1 PUSH1 0x1 PUSH1 0xFF SHL SUB PUSH1 0x0 DUP5 SGT PUSH1 0x0 DUP5 SGT DUP6 DUP4 DIV DUP6 GT DUP3 DUP3 AND AND ISZERO PUSH2 0x5603 JUMPI PUSH2 0x5603 PUSH2 0x5453 JUMP JUMPDEST PUSH1 0x1 PUSH1 0xFF SHL PUSH1 0x0 DUP8 SLT DUP3 DUP2 AND DUP8 DUP4 SDIV DUP10 SLT AND ISZERO PUSH2 0x5622 JUMPI PUSH2 0x5622 PUSH2 0x5453 JUMP JUMPDEST PUSH1 0x0 DUP8 SLT SWAP3 POP DUP8 DUP3 SDIV DUP8 SLT DUP5 DUP5 AND AND ISZERO PUSH2 0x563E JUMPI PUSH2 0x563E PUSH2 0x5453 JUMP JUMPDEST DUP8 DUP6 SDIV DUP8 SLT DUP2 DUP5 AND AND ISZERO PUSH2 0x5654 JUMPI PUSH2 0x5654 PUSH2 0x5453 JUMP JUMPDEST POP POP POP SWAP3 SWAP1 SWAP4 MUL SWAP4 SWAP3 POP POP POP JUMP JUMPDEST PUSH1 0x0 DUP3 PUSH2 0x5671 JUMPI PUSH2 0x5671 PUSH2 0x5571 JUMP JUMPDEST PUSH1 0x1 PUSH1 0xFF SHL DUP3 EQ PUSH1 0x0 NOT DUP5 EQ AND ISZERO PUSH2 0x568B JUMPI PUSH2 0x568B PUSH2 0x5453 JUMP JUMPDEST POP SDIV SWAP1 JUMP JUMPDEST PUSH1 0x0 DUP1 DUP4 SLT DUP1 ISZERO PUSH1 0x1 PUSH1 0xFF SHL DUP6 ADD DUP5 SLT AND ISZERO PUSH2 0x56AE JUMPI PUSH2 0x56AE PUSH2 0x5453 JUMP JUMPDEST DUP4 PUSH1 0x1 PUSH1 0x1 PUSH1 0xFF SHL SUB ADD DUP4 SGT DUP2 AND ISZERO PUSH2 0x56C9 JUMPI PUSH2 0x56C9 PUSH2 0x5453 JUMP JUMPDEST POP POP SUB SWAP1 JUMP JUMPDEST PUSH1 0x0 DUP2 PUSH1 0x0 NOT DIV DUP4 GT DUP3 ISZERO ISZERO AND ISZERO PUSH2 0x56E9 JUMPI PUSH2 0x56E9 PUSH2 0x5453 JUMP JUMPDEST POP MUL SWAP1 JUMP JUMPDEST PUSH1 0x0 PUSH1 0x20 DUP3 DUP5 SUB SLT ISZERO PUSH2 0x5700 JUMPI PUSH1 0x0 DUP1 REVERT JUMPDEST DUP2 MLOAD PUSH2 0x4C41 DUP2 PUSH2 0x5074 JUMP JUMPDEST PUSH1 0x0 PUSH1 0x20 DUP3 DUP5 SUB SLT ISZERO PUSH2 0x571D JUMPI PUSH1 0x0 DUP1 REVERT JUMPDEST POP MLOAD SWAP2 SWAP1 POP JUMP JUMPDEST PUSH5 0xFFFFFFFFFF DUP5 AND DUP2 MSTORE PUSH1 0x20 DUP2 ADD DUP4 SWAP1 MSTORE PUSH1 0x60 DUP2 ADD PUSH1 0x5 DUP4 LT PUSH2 0x5749 JUMPI PUSH2 0x5749 PUSH2 0x4C48 JUMP JUMPDEST DUP3 PUSH1 0x40 DUP4 ADD MSTORE SWAP5 SWAP4 POP POP POP POP JUMP JUMPDEST PUSH1 0x0 PUSH5 0xFFFFFFFFFF DUP1 DUP4 AND DUP2 DUP6 AND DUP1 DUP4 SUB DUP3 GT ISZERO PUSH2 0x5777 JUMPI PUSH2 0x5777 PUSH2 0x5453 JUMP JUMPDEST ADD SWAP5 SWAP4 POP POP POP POP JUMP JUMPDEST PUSH1 0x0 PUSH12 0xFFFFFFFFFFFFFFFFFFFFFFFF NOT DUP1 DUP9 PUSH1 0x60 SHL AND DUP4 MSTORE DUP1 DUP8 PUSH1 0x60 SHL AND PUSH1 0x14 DUP5 ADD MSTORE POP PUSH2 0xFFFF PUSH1 0xF0 SHL DUP6 PUSH1 0xF0 SHL AND PUSH1 0x28 DUP4 ADD MSTORE DUP4 MLOAD PUSH2 0x57C7 DUP2 PUSH1 0x2A DUP6 ADD PUSH1 0x20 DUP9 ADD PUSH2 0x4EA4 JUMP JUMPDEST PUSH1 0x2A SWAP3 ADD SWAP2 DUP3 ADD SWAP3 SWAP1 SWAP3 MSTORE PUSH1 0x4A ADD SWAP6 SWAP5 POP POP POP POP POP JUMP JUMPDEST PUSH1 0x0 DUP3 PUSH2 0x57ED JUMPI PUSH2 0x57ED PUSH2 0x5571 JUMP JUMPDEST POP MOD SWAP1 JUMP JUMPDEST PUSH1 0x0 PUSH5 0xFFFFFFFFFF DUP1 DUP5 AND DUP1 PUSH2 0x580A JUMPI PUSH2 0x580A PUSH2 0x5571 JUMP JUMPDEST SWAP3 AND SWAP2 SWAP1 SWAP2 DIV SWAP3 SWAP2 POP POP JUMP INVALID 0xFC 0xFB DUP16 PUSH25 0x3C54C9C729957515AD137CD8832B98C21E44FD7F481E2E7603 0xBF 0xDB 0x5F LOG2 PUSH5 0x6970667358 0x22 SLT KECCAK256 PUSH20 0x7A9E4A245FA19C20E4C4900CBA612FD21B2E6998 0x5F CREATE 0xED 0xF9 SELFDESTRUCT 0xED PUSH30 0xEBCF6A5264736F6C63430008090033000000000000000000000000000000 "},"methodIdentifiers":{"addERC20Contract(address)":"ab7e0909","cancelSubscription((bytes32,uint256,address,address,bool,bool,uint8,uint16,string))":"094f9977","changeAdmin(address)":"8f283970","changeFee(uint256)":"6a1db1bf","changeFixedFee(uint256)":"8e83ac4a","changeMaxGasPrice(uint256)":"3816377e","changeMaxRemits(uint256)":"27ea9773","createSubscription(uint256,address,string,uint8,uint16)":"3084f79e","feeBalance(bytes32,address)":"ebec6eaa","feeEstimate()":"e63d35be","getAccountSubscriptions(bool)":"6605ac0d","getAllAccounts()":"08e93d0a","getFee()":"ced72f87","getSubByIndex(bytes32,uint8,uint16)":"2d23f7e7","getSubscribers(bytes32)":"bfa0caa7","getSubscriptionsByAccount(bool,address)":"a5af2abd","remit()":"7507ba39","removeERC20Contract(address)":"053149fa","subscribe((bytes32,uint256,address,address,bool,bool,uint8,uint16,string))":"a429131a","toggleContractActive()":"1385d24c","unixToTime(uint256)":"53a6d6e2","unsubscribe((bytes32,uint256,address,address,bool,bool,uint8,uint16,string))":"fedce940","unsubscribeByProvider((bytes32,uint256,address,address,bool,bool,uint8,uint16,string),address)":"a2349caf"}}}}}