{"contracts/ClockTowerSubscribe.sol":{"ClockTowerTime":{"abi":[{"inputs":[{"internalType":"uint256","name":"unixTime","type":"uint256"}],"name":"getDayOfWeek","outputs":[{"internalType":"uint16","name":"dayOfWeek","type":"uint16"}],"stateMutability":"pure","type":"function"},{"inputs":[{"internalType":"uint256","name":"unixTime","type":"uint256"},{"internalType":"uint40","name":"dueDay","type":"uint40"},{"internalType":"uint256","name":"fee","type":"uint256"},{"internalType":"uint8","name":"frequency","type":"uint8"}],"name":"prorate","outputs":[{"internalType":"uint256","name":"","type":"uint256"}],"stateMutability":"pure","type":"function"},{"inputs":[{"internalType":"uint40","name":"unixTime","type":"uint40"}],"name":"unixToDays","outputs":[{"internalType":"uint40","name":"dayCount","type":"uint40"}],"stateMutability":"pure","type":"function"},{"inputs":[{"internalType":"uint256","name":"unix","type":"uint256"}],"name":"unixToTime","outputs":[{"components":[{"internalType":"uint16","name":"dayOfMonth","type":"uint16"},{"internalType":"uint16","name":"weekDay","type":"uint16"},{"internalType":"uint16","name":"quarterDay","type":"uint16"},{"internalType":"uint16","name":"yearDay","type":"uint16"},{"internalType":"uint16","name":"year","type":"uint16"},{"internalType":"uint16","name":"month","type":"uint16"}],"internalType":"struct ClockTowerTime.Time","name":"time","type":"tuple"}],"stateMutability":"pure","type":"function"}],"evm":{"bytecode":{"linkReferences":{},"object":"610af161003a600b82828239805160001a60731461002d57634e487b7160e01b600052600060045260246000fd5b30600052607381538281f3fe73000000000000000000000000000000000000000030146080604052600436106100565760003560e01c806322f8a2b81461005b57806353a6d6e214610086578063b14c0ed6146100f5578063cf5e4f0c1461011e575b600080fd5b61006e610069366004610803565b61013f565b60405161ffff90911681526020015b60405180910390f35b610099610094366004610803565b61017d565b60405161007d9190600060c08201905061ffff8084511683528060208501511660208401528060408501511660408401528060608501511660608401528060808501511660808401528060a08501511660a08401525092915050565b610108610103366004610836565b610415565b60405164ffffffffff909116815260200161007d565b61013161012c366004610858565b61042a565b60405190815260200161007d565b60008061014f62015180846108d2565b9050600060076101608360036108e6565b61016a91906108fe565b6101759060016108e6565b949350505050565b6040805160c081018252600080825260208201819052918101829052606081018290526080810182905260a08101829052906101bc62015180846108d2565b905060008082816101d08262010bd9610912565b6101dd9062253d8c610912565b9050600062023ab16101f0836004610952565b6101fa91906109d9565b9050600461020b8262023ab1610952565b610216906003610912565b61022091906109d9565b61022a9083610a07565b9150600062164b0961023d846001610912565b61024990610fa0610952565b61025391906109d9565b90506004610263826105b5610952565b61026d91906109d9565b6102779084610a07565b61028290601f610912565b9250600061098f610294856050610952565b61029e91906109d9565b9050600060506102b08361098f610952565b6102ba91906109d9565b6102c49086610a07565b90506102d1600b836109d9565b94506102de85600c610952565b6102e9836002610912565b6102f39190610a07565b91508483610302603187610a07565b61030d906064610952565b6103179190610912565b6103219190610912565b909750915086828282600060015b83811161037c57838114156103535761034c61ffff8e16836108e6565b915061036a565b61035d8585610673565b61036790836108e6565b91505b8061037481610a46565b91505061032f565b50809a5061038e8b61ffff16856106f9565b61ffff1660408f01526103a08f61013f565b8e6020019061ffff16908161ffff16815250508b8e6000019061ffff16908161ffff16815250508a8e6060019061ffff16908161ffff1681525050838e6080019061ffff16908161ffff1681525050828e60a0019061ffff16908161ffff168152505050505050505050505050505050919050565b60006104246201518083610a61565b92915050565b6000806104368661017d565b90506000808060ff861661045857836020015161ffff169250600791506104e2565b8560ff16600114156104905761047e846080015161ffff168560a0015161ffff16610673565b845161ffff16935091508190506104e2565b8560ff16600214156104c5576104b6846060015161ffff16856080015161ffff166106f9565b61ffff169250605a91506104e2565b8560ff16600314156104e257836060015161ffff16925061016d91505b8560ff166001141561059e57600061016d6104fe89600c610a85565b61050891906108d2565b9050838964ffffffffff161415801561052757508864ffffffffff1684115b156105585761053d64ffffffffff8a1685610aa4565b6105479084610aa4565b6105519082610a85565b9750610598565b838964ffffffffff161415801561057557508864ffffffffff1684105b156105985761058b8464ffffffffff8b16610aa4565b6105959082610a85565b97505b50610666565b60ff861615806105b157508560ff166002145b806105bf57508560ff166003145b1561066657828864ffffffffff16141580156105e157508764ffffffffff1683115b1561061c576105f764ffffffffff891684610aa4565b6106019083610aa4565b61060b83896108d2565b6106159190610a85565b9650610666565b828864ffffffffff161415801561063957508764ffffffffff1683105b156106665761064f8364ffffffffff8a16610aa4565b61065983896108d2565b6106639190610a85565b96505b5094979650505050505050565b600081600114806106845750816003145b8061068f5750816005145b8061069a5750816007145b806106a55750816008145b806106b0575081600a145b806106bb575081600c145b156106c85750601f610424565b816002146106d85750601e610424565b6106e1836107c7565b6106ec57601c6106ef565b601d5b60ff169392505050565b600080610705836107c7565b1561071257506001610716565b5060005b61072181605a6108e6565b841161072f578391506107c0565b8361073b82605a6108e6565b108015610752575061074e8160b56108e6565b8411155b156107735761076281605a6108e6565b61076c9085610aa4565b91506107c0565b8361077f8260b56108e6565b1080156107975750610793816101116108e6565b8411155b156107a7576107628160b56108e6565b6107b3816101116108e6565b6107bd9085610aa4565b91505b5092915050565b60006107d46004836108fe565b1580156107ea57506107e76064836108fe565b15155b8061042457506107fc610190836108fe565b1592915050565b60006020828403121561081557600080fd5b5035919050565b803564ffffffffff8116811461083157600080fd5b919050565b60006020828403121561084857600080fd5b6108518261081c565b9392505050565b6000806000806080858703121561086e57600080fd5b8435935061087e6020860161081c565b925060408501359150606085013560ff8116811461089b57600080fd5b939692955090935050565b634e487b7160e01b600052601260045260246000fd5b634e487b7160e01b600052601160045260246000fd5b6000826108e1576108e16108a6565b500490565b600082198211156108f9576108f96108bc565b500190565b60008261090d5761090d6108a6565b500690565b6000808212826001600160ff1b0303841381151615610933576109336108bc565b600160ff1b839003841281161561094c5761094c6108bc565b50500190565b60006001600160ff1b0360008413600084138583048511828216161561097a5761097a6108bc565b600160ff1b6000871282811687830589121615610999576109996108bc565b600087129250878205871284841616156109b5576109b56108bc565b878505871281841616156109cb576109cb6108bc565b505050929093029392505050565b6000826109e8576109e86108a6565b600160ff1b821460001984141615610a0257610a026108bc565b500590565b60008083128015600160ff1b850184121615610a2557610a256108bc565b836001600160ff1b03018313811615610a4057610a406108bc565b50500390565b6000600019821415610a5a57610a5a6108bc565b5060010190565b600064ffffffffff80841680610a7957610a796108a6565b92169190910492915050565b6000816000190483118215151615610a9f57610a9f6108bc565b500290565b600082821015610ab657610ab66108bc565b50039056fea2646970667358221220359e3c664affe21ea772b47e963cc99bee0f80d30fb466fe185135ae303ab55964736f6c63430008090033","opcodes":"PUSH2 0xAF1 PUSH2 0x3A PUSH1 0xB DUP3 DUP3 DUP3 CODECOPY DUP1 MLOAD PUSH1 0x0 BYTE PUSH1 0x73 EQ PUSH2 0x2D JUMPI PUSH4 0x4E487B71 PUSH1 0xE0 SHL PUSH1 0x0 MSTORE PUSH1 0x0 PUSH1 0x4 MSTORE PUSH1 0x24 PUSH1 0x0 REVERT JUMPDEST ADDRESS PUSH1 0x0 MSTORE PUSH1 0x73 DUP2 MSTORE8 DUP3 DUP2 RETURN INVALID PUSH20 0x0 ADDRESS EQ PUSH1 0x80 PUSH1 0x40 MSTORE PUSH1 0x4 CALLDATASIZE LT PUSH2 0x56 JUMPI PUSH1 0x0 CALLDATALOAD PUSH1 0xE0 SHR DUP1 PUSH4 0x22F8A2B8 EQ PUSH2 0x5B JUMPI DUP1 PUSH4 0x53A6D6E2 EQ PUSH2 0x86 JUMPI DUP1 PUSH4 0xB14C0ED6 EQ PUSH2 0xF5 JUMPI DUP1 PUSH4 0xCF5E4F0C EQ PUSH2 0x11E JUMPI JUMPDEST PUSH1 0x0 DUP1 REVERT JUMPDEST PUSH2 0x6E PUSH2 0x69 CALLDATASIZE PUSH1 0x4 PUSH2 0x803 JUMP JUMPDEST PUSH2 0x13F JUMP JUMPDEST PUSH1 0x40 MLOAD PUSH2 0xFFFF SWAP1 SWAP2 AND DUP2 MSTORE PUSH1 0x20 ADD JUMPDEST PUSH1 0x40 MLOAD DUP1 SWAP2 SUB SWAP1 RETURN JUMPDEST PUSH2 0x99 PUSH2 0x94 CALLDATASIZE PUSH1 0x4 PUSH2 0x803 JUMP JUMPDEST PUSH2 0x17D JUMP JUMPDEST PUSH1 0x40 MLOAD PUSH2 0x7D SWAP2 SWAP1 PUSH1 0x0 PUSH1 0xC0 DUP3 ADD SWAP1 POP PUSH2 0xFFFF DUP1 DUP5 MLOAD AND DUP4 MSTORE DUP1 PUSH1 0x20 DUP6 ADD MLOAD AND PUSH1 0x20 DUP5 ADD MSTORE DUP1 PUSH1 0x40 DUP6 ADD MLOAD AND PUSH1 0x40 DUP5 ADD MSTORE DUP1 PUSH1 0x60 DUP6 ADD MLOAD AND PUSH1 0x60 DUP5 ADD MSTORE DUP1 PUSH1 0x80 DUP6 ADD MLOAD AND PUSH1 0x80 DUP5 ADD MSTORE DUP1 PUSH1 0xA0 DUP6 ADD MLOAD AND PUSH1 0xA0 DUP5 ADD MSTORE POP SWAP3 SWAP2 POP POP JUMP JUMPDEST PUSH2 0x108 PUSH2 0x103 CALLDATASIZE PUSH1 0x4 PUSH2 0x836 JUMP JUMPDEST PUSH2 0x415 JUMP JUMPDEST PUSH1 0x40 MLOAD PUSH5 0xFFFFFFFFFF SWAP1 SWAP2 AND DUP2 MSTORE PUSH1 0x20 ADD PUSH2 0x7D JUMP JUMPDEST PUSH2 0x131 PUSH2 0x12C CALLDATASIZE PUSH1 0x4 PUSH2 0x858 JUMP JUMPDEST PUSH2 0x42A JUMP JUMPDEST PUSH1 0x40 MLOAD SWAP1 DUP2 MSTORE PUSH1 0x20 ADD PUSH2 0x7D JUMP JUMPDEST PUSH1 0x0 DUP1 PUSH2 0x14F PUSH3 0x15180 DUP5 PUSH2 0x8D2 JUMP JUMPDEST SWAP1 POP PUSH1 0x0 PUSH1 0x7 PUSH2 0x160 DUP4 PUSH1 0x3 PUSH2 0x8E6 JUMP JUMPDEST PUSH2 0x16A SWAP2 SWAP1 PUSH2 0x8FE JUMP JUMPDEST PUSH2 0x175 SWAP1 PUSH1 0x1 PUSH2 0x8E6 JUMP JUMPDEST SWAP5 SWAP4 POP POP POP POP JUMP JUMPDEST PUSH1 0x40 DUP1 MLOAD PUSH1 0xC0 DUP2 ADD DUP3 MSTORE PUSH1 0x0 DUP1 DUP3 MSTORE PUSH1 0x20 DUP3 ADD DUP2 SWAP1 MSTORE SWAP2 DUP2 ADD DUP3 SWAP1 MSTORE PUSH1 0x60 DUP2 ADD DUP3 SWAP1 MSTORE PUSH1 0x80 DUP2 ADD DUP3 SWAP1 MSTORE PUSH1 0xA0 DUP2 ADD DUP3 SWAP1 MSTORE SWAP1 PUSH2 0x1BC PUSH3 0x15180 DUP5 PUSH2 0x8D2 JUMP JUMPDEST SWAP1 POP PUSH1 0x0 DUP1 DUP3 DUP2 PUSH2 0x1D0 DUP3 PUSH3 0x10BD9 PUSH2 0x912 JUMP JUMPDEST PUSH2 0x1DD SWAP1 PUSH3 0x253D8C PUSH2 0x912 JUMP JUMPDEST SWAP1 POP PUSH1 0x0 PUSH3 0x23AB1 PUSH2 0x1F0 DUP4 PUSH1 0x4 PUSH2 0x952 JUMP JUMPDEST PUSH2 0x1FA SWAP2 SWAP1 PUSH2 0x9D9 JUMP JUMPDEST SWAP1 POP PUSH1 0x4 PUSH2 0x20B DUP3 PUSH3 0x23AB1 PUSH2 0x952 JUMP JUMPDEST PUSH2 0x216 SWAP1 PUSH1 0x3 PUSH2 0x912 JUMP JUMPDEST PUSH2 0x220 SWAP2 SWAP1 PUSH2 0x9D9 JUMP JUMPDEST PUSH2 0x22A SWAP1 DUP4 PUSH2 0xA07 JUMP JUMPDEST SWAP2 POP PUSH1 0x0 PUSH3 0x164B09 PUSH2 0x23D DUP5 PUSH1 0x1 PUSH2 0x912 JUMP JUMPDEST PUSH2 0x249 SWAP1 PUSH2 0xFA0 PUSH2 0x952 JUMP JUMPDEST PUSH2 0x253 SWAP2 SWAP1 PUSH2 0x9D9 JUMP JUMPDEST SWAP1 POP PUSH1 0x4 PUSH2 0x263 DUP3 PUSH2 0x5B5 PUSH2 0x952 JUMP JUMPDEST PUSH2 0x26D SWAP2 SWAP1 PUSH2 0x9D9 JUMP JUMPDEST PUSH2 0x277 SWAP1 DUP5 PUSH2 0xA07 JUMP JUMPDEST PUSH2 0x282 SWAP1 PUSH1 0x1F PUSH2 0x912 JUMP JUMPDEST SWAP3 POP PUSH1 0x0 PUSH2 0x98F PUSH2 0x294 DUP6 PUSH1 0x50 PUSH2 0x952 JUMP JUMPDEST PUSH2 0x29E SWAP2 SWAP1 PUSH2 0x9D9 JUMP JUMPDEST SWAP1 POP PUSH1 0x0 PUSH1 0x50 PUSH2 0x2B0 DUP4 PUSH2 0x98F PUSH2 0x952 JUMP JUMPDEST PUSH2 0x2BA SWAP2 SWAP1 PUSH2 0x9D9 JUMP JUMPDEST PUSH2 0x2C4 SWAP1 DUP7 PUSH2 0xA07 JUMP JUMPDEST SWAP1 POP PUSH2 0x2D1 PUSH1 0xB DUP4 PUSH2 0x9D9 JUMP JUMPDEST SWAP5 POP PUSH2 0x2DE DUP6 PUSH1 0xC PUSH2 0x952 JUMP JUMPDEST PUSH2 0x2E9 DUP4 PUSH1 0x2 PUSH2 0x912 JUMP JUMPDEST PUSH2 0x2F3 SWAP2 SWAP1 PUSH2 0xA07 JUMP JUMPDEST SWAP2 POP DUP5 DUP4 PUSH2 0x302 PUSH1 0x31 DUP8 PUSH2 0xA07 JUMP JUMPDEST PUSH2 0x30D SWAP1 PUSH1 0x64 PUSH2 0x952 JUMP JUMPDEST PUSH2 0x317 SWAP2 SWAP1 PUSH2 0x912 JUMP JUMPDEST PUSH2 0x321 SWAP2 SWAP1 PUSH2 0x912 JUMP JUMPDEST SWAP1 SWAP8 POP SWAP2 POP DUP7 DUP3 DUP3 DUP3 PUSH1 0x0 PUSH1 0x1 JUMPDEST DUP4 DUP2 GT PUSH2 0x37C JUMPI DUP4 DUP2 EQ ISZERO PUSH2 0x353 JUMPI PUSH2 0x34C PUSH2 0xFFFF DUP15 AND DUP4 PUSH2 0x8E6 JUMP JUMPDEST SWAP2 POP PUSH2 0x36A JUMP JUMPDEST PUSH2 0x35D DUP6 DUP6 PUSH2 0x673 JUMP JUMPDEST PUSH2 0x367 SWAP1 DUP4 PUSH2 0x8E6 JUMP JUMPDEST SWAP2 POP JUMPDEST DUP1 PUSH2 0x374 DUP2 PUSH2 0xA46 JUMP JUMPDEST SWAP2 POP POP PUSH2 0x32F JUMP JUMPDEST POP DUP1 SWAP11 POP PUSH2 0x38E DUP12 PUSH2 0xFFFF AND DUP6 PUSH2 0x6F9 JUMP JUMPDEST PUSH2 0xFFFF AND PUSH1 0x40 DUP16 ADD MSTORE PUSH2 0x3A0 DUP16 PUSH2 0x13F JUMP JUMPDEST DUP15 PUSH1 0x20 ADD SWAP1 PUSH2 0xFFFF AND SWAP1 DUP2 PUSH2 0xFFFF AND DUP2 MSTORE POP POP DUP12 DUP15 PUSH1 0x0 ADD SWAP1 PUSH2 0xFFFF AND SWAP1 DUP2 PUSH2 0xFFFF AND DUP2 MSTORE POP POP DUP11 DUP15 PUSH1 0x60 ADD SWAP1 PUSH2 0xFFFF AND SWAP1 DUP2 PUSH2 0xFFFF AND DUP2 MSTORE POP POP DUP4 DUP15 PUSH1 0x80 ADD SWAP1 PUSH2 0xFFFF AND SWAP1 DUP2 PUSH2 0xFFFF AND DUP2 MSTORE POP POP DUP3 DUP15 PUSH1 0xA0 ADD SWAP1 PUSH2 0xFFFF AND SWAP1 DUP2 PUSH2 0xFFFF AND DUP2 MSTORE POP POP POP POP POP POP POP POP POP POP POP POP POP POP POP SWAP2 SWAP1 POP JUMP JUMPDEST PUSH1 0x0 PUSH2 0x424 PUSH3 0x15180 DUP4 PUSH2 0xA61 JUMP JUMPDEST SWAP3 SWAP2 POP POP JUMP JUMPDEST PUSH1 0x0 DUP1 PUSH2 0x436 DUP7 PUSH2 0x17D JUMP JUMPDEST SWAP1 POP PUSH1 0x0 DUP1 DUP1 PUSH1 0xFF DUP7 AND PUSH2 0x458 JUMPI DUP4 PUSH1 0x20 ADD MLOAD PUSH2 0xFFFF AND SWAP3 POP PUSH1 0x7 SWAP2 POP PUSH2 0x4E2 JUMP JUMPDEST DUP6 PUSH1 0xFF AND PUSH1 0x1 EQ ISZERO PUSH2 0x490 JUMPI PUSH2 0x47E DUP5 PUSH1 0x80 ADD MLOAD PUSH2 0xFFFF AND DUP6 PUSH1 0xA0 ADD MLOAD PUSH2 0xFFFF AND PUSH2 0x673 JUMP JUMPDEST DUP5 MLOAD PUSH2 0xFFFF AND SWAP4 POP SWAP2 POP DUP2 SWAP1 POP PUSH2 0x4E2 JUMP JUMPDEST DUP6 PUSH1 0xFF AND PUSH1 0x2 EQ ISZERO PUSH2 0x4C5 JUMPI PUSH2 0x4B6 DUP5 PUSH1 0x60 ADD MLOAD PUSH2 0xFFFF AND DUP6 PUSH1 0x80 ADD MLOAD PUSH2 0xFFFF AND PUSH2 0x6F9 JUMP JUMPDEST PUSH2 0xFFFF AND SWAP3 POP PUSH1 0x5A SWAP2 POP PUSH2 0x4E2 JUMP JUMPDEST DUP6 PUSH1 0xFF AND PUSH1 0x3 EQ ISZERO PUSH2 0x4E2 JUMPI DUP4 PUSH1 0x60 ADD MLOAD PUSH2 0xFFFF AND SWAP3 POP PUSH2 0x16D SWAP2 POP JUMPDEST DUP6 PUSH1 0xFF AND PUSH1 0x1 EQ ISZERO PUSH2 0x59E JUMPI PUSH1 0x0 PUSH2 0x16D PUSH2 0x4FE DUP10 PUSH1 0xC PUSH2 0xA85 JUMP JUMPDEST PUSH2 0x508 SWAP2 SWAP1 PUSH2 0x8D2 JUMP JUMPDEST SWAP1 POP DUP4 DUP10 PUSH5 0xFFFFFFFFFF AND EQ ISZERO DUP1 ISZERO PUSH2 0x527 JUMPI POP DUP9 PUSH5 0xFFFFFFFFFF AND DUP5 GT JUMPDEST ISZERO PUSH2 0x558 JUMPI PUSH2 0x53D PUSH5 0xFFFFFFFFFF DUP11 AND DUP6 PUSH2 0xAA4 JUMP JUMPDEST PUSH2 0x547 SWAP1 DUP5 PUSH2 0xAA4 JUMP JUMPDEST PUSH2 0x551 SWAP1 DUP3 PUSH2 0xA85 JUMP JUMPDEST SWAP8 POP PUSH2 0x598 JUMP JUMPDEST DUP4 DUP10 PUSH5 0xFFFFFFFFFF AND EQ ISZERO DUP1 ISZERO PUSH2 0x575 JUMPI POP DUP9 PUSH5 0xFFFFFFFFFF AND DUP5 LT JUMPDEST ISZERO PUSH2 0x598 JUMPI PUSH2 0x58B DUP5 PUSH5 0xFFFFFFFFFF DUP12 AND PUSH2 0xAA4 JUMP JUMPDEST PUSH2 0x595 SWAP1 DUP3 PUSH2 0xA85 JUMP JUMPDEST SWAP8 POP JUMPDEST POP PUSH2 0x666 JUMP JUMPDEST PUSH1 0xFF DUP7 AND ISZERO DUP1 PUSH2 0x5B1 JUMPI POP DUP6 PUSH1 0xFF AND PUSH1 0x2 EQ JUMPDEST DUP1 PUSH2 0x5BF JUMPI POP DUP6 PUSH1 0xFF AND PUSH1 0x3 EQ JUMPDEST ISZERO PUSH2 0x666 JUMPI DUP3 DUP9 PUSH5 0xFFFFFFFFFF AND EQ ISZERO DUP1 ISZERO PUSH2 0x5E1 JUMPI POP DUP8 PUSH5 0xFFFFFFFFFF AND DUP4 GT JUMPDEST ISZERO PUSH2 0x61C JUMPI PUSH2 0x5F7 PUSH5 0xFFFFFFFFFF DUP10 AND DUP5 PUSH2 0xAA4 JUMP JUMPDEST PUSH2 0x601 SWAP1 DUP4 PUSH2 0xAA4 JUMP JUMPDEST PUSH2 0x60B DUP4 DUP10 PUSH2 0x8D2 JUMP JUMPDEST PUSH2 0x615 SWAP2 SWAP1 PUSH2 0xA85 JUMP JUMPDEST SWAP7 POP PUSH2 0x666 JUMP JUMPDEST DUP3 DUP9 PUSH5 0xFFFFFFFFFF AND EQ ISZERO DUP1 ISZERO PUSH2 0x639 JUMPI POP DUP8 PUSH5 0xFFFFFFFFFF AND DUP4 LT JUMPDEST ISZERO PUSH2 0x666 JUMPI PUSH2 0x64F DUP4 PUSH5 0xFFFFFFFFFF DUP11 AND PUSH2 0xAA4 JUMP JUMPDEST PUSH2 0x659 DUP4 DUP10 PUSH2 0x8D2 JUMP JUMPDEST PUSH2 0x663 SWAP2 SWAP1 PUSH2 0xA85 JUMP JUMPDEST SWAP7 POP JUMPDEST POP SWAP5 SWAP8 SWAP7 POP POP POP POP POP POP POP JUMP JUMPDEST PUSH1 0x0 DUP2 PUSH1 0x1 EQ DUP1 PUSH2 0x684 JUMPI POP DUP2 PUSH1 0x3 EQ JUMPDEST DUP1 PUSH2 0x68F JUMPI POP DUP2 PUSH1 0x5 EQ JUMPDEST DUP1 PUSH2 0x69A JUMPI POP DUP2 PUSH1 0x7 EQ JUMPDEST DUP1 PUSH2 0x6A5 JUMPI POP DUP2 PUSH1 0x8 EQ JUMPDEST DUP1 PUSH2 0x6B0 JUMPI POP DUP2 PUSH1 0xA EQ JUMPDEST DUP1 PUSH2 0x6BB JUMPI POP DUP2 PUSH1 0xC EQ JUMPDEST ISZERO PUSH2 0x6C8 JUMPI POP PUSH1 0x1F PUSH2 0x424 JUMP JUMPDEST DUP2 PUSH1 0x2 EQ PUSH2 0x6D8 JUMPI POP PUSH1 0x1E PUSH2 0x424 JUMP JUMPDEST PUSH2 0x6E1 DUP4 PUSH2 0x7C7 JUMP JUMPDEST PUSH2 0x6EC JUMPI PUSH1 0x1C PUSH2 0x6EF JUMP JUMPDEST PUSH1 0x1D JUMPDEST PUSH1 0xFF AND SWAP4 SWAP3 POP POP POP JUMP JUMPDEST PUSH1 0x0 DUP1 PUSH2 0x705 DUP4 PUSH2 0x7C7 JUMP JUMPDEST ISZERO PUSH2 0x712 JUMPI POP PUSH1 0x1 PUSH2 0x716 JUMP JUMPDEST POP PUSH1 0x0 JUMPDEST PUSH2 0x721 DUP2 PUSH1 0x5A PUSH2 0x8E6 JUMP JUMPDEST DUP5 GT PUSH2 0x72F JUMPI DUP4 SWAP2 POP PUSH2 0x7C0 JUMP JUMPDEST DUP4 PUSH2 0x73B DUP3 PUSH1 0x5A PUSH2 0x8E6 JUMP JUMPDEST LT DUP1 ISZERO PUSH2 0x752 JUMPI POP PUSH2 0x74E DUP2 PUSH1 0xB5 PUSH2 0x8E6 JUMP JUMPDEST DUP5 GT ISZERO JUMPDEST ISZERO PUSH2 0x773 JUMPI PUSH2 0x762 DUP2 PUSH1 0x5A PUSH2 0x8E6 JUMP JUMPDEST PUSH2 0x76C SWAP1 DUP6 PUSH2 0xAA4 JUMP JUMPDEST SWAP2 POP PUSH2 0x7C0 JUMP JUMPDEST DUP4 PUSH2 0x77F DUP3 PUSH1 0xB5 PUSH2 0x8E6 JUMP JUMPDEST LT DUP1 ISZERO PUSH2 0x797 JUMPI POP PUSH2 0x793 DUP2 PUSH2 0x111 PUSH2 0x8E6 JUMP JUMPDEST DUP5 GT ISZERO JUMPDEST ISZERO PUSH2 0x7A7 JUMPI PUSH2 0x762 DUP2 PUSH1 0xB5 PUSH2 0x8E6 JUMP JUMPDEST PUSH2 0x7B3 DUP2 PUSH2 0x111 PUSH2 0x8E6 JUMP JUMPDEST PUSH2 0x7BD SWAP1 DUP6 PUSH2 0xAA4 JUMP JUMPDEST SWAP2 POP JUMPDEST POP SWAP3 SWAP2 POP POP JUMP JUMPDEST PUSH1 0x0 PUSH2 0x7D4 PUSH1 0x4 DUP4 PUSH2 0x8FE JUMP JUMPDEST ISZERO DUP1 ISZERO PUSH2 0x7EA JUMPI POP PUSH2 0x7E7 PUSH1 0x64 DUP4 PUSH2 0x8FE JUMP JUMPDEST ISZERO ISZERO JUMPDEST DUP1 PUSH2 0x424 JUMPI POP PUSH2 0x7FC PUSH2 0x190 DUP4 PUSH2 0x8FE JUMP JUMPDEST ISZERO SWAP3 SWAP2 POP POP JUMP JUMPDEST PUSH1 0x0 PUSH1 0x20 DUP3 DUP5 SUB SLT ISZERO PUSH2 0x815 JUMPI PUSH1 0x0 DUP1 REVERT JUMPDEST POP CALLDATALOAD SWAP2 SWAP1 POP JUMP JUMPDEST DUP1 CALLDATALOAD PUSH5 0xFFFFFFFFFF DUP2 AND DUP2 EQ PUSH2 0x831 JUMPI PUSH1 0x0 DUP1 REVERT JUMPDEST SWAP2 SWAP1 POP JUMP JUMPDEST PUSH1 0x0 PUSH1 0x20 DUP3 DUP5 SUB SLT ISZERO PUSH2 0x848 JUMPI PUSH1 0x0 DUP1 REVERT JUMPDEST PUSH2 0x851 DUP3 PUSH2 0x81C JUMP JUMPDEST SWAP4 SWAP3 POP POP POP JUMP JUMPDEST PUSH1 0x0 DUP1 PUSH1 0x0 DUP1 PUSH1 0x80 DUP6 DUP8 SUB SLT ISZERO PUSH2 0x86E JUMPI PUSH1 0x0 DUP1 REVERT JUMPDEST DUP5 CALLDATALOAD SWAP4 POP PUSH2 0x87E PUSH1 0x20 DUP7 ADD PUSH2 0x81C JUMP JUMPDEST SWAP3 POP PUSH1 0x40 DUP6 ADD CALLDATALOAD SWAP2 POP PUSH1 0x60 DUP6 ADD CALLDATALOAD PUSH1 0xFF DUP2 AND DUP2 EQ PUSH2 0x89B JUMPI PUSH1 0x0 DUP1 REVERT JUMPDEST SWAP4 SWAP7 SWAP3 SWAP6 POP SWAP1 SWAP4 POP POP JUMP JUMPDEST PUSH4 0x4E487B71 PUSH1 0xE0 SHL PUSH1 0x0 MSTORE PUSH1 0x12 PUSH1 0x4 MSTORE PUSH1 0x24 PUSH1 0x0 REVERT JUMPDEST PUSH4 0x4E487B71 PUSH1 0xE0 SHL PUSH1 0x0 MSTORE PUSH1 0x11 PUSH1 0x4 MSTORE PUSH1 0x24 PUSH1 0x0 REVERT JUMPDEST PUSH1 0x0 DUP3 PUSH2 0x8E1 JUMPI PUSH2 0x8E1 PUSH2 0x8A6 JUMP JUMPDEST POP DIV SWAP1 JUMP JUMPDEST PUSH1 0x0 DUP3 NOT DUP3 GT ISZERO PUSH2 0x8F9 JUMPI PUSH2 0x8F9 PUSH2 0x8BC JUMP JUMPDEST POP ADD SWAP1 JUMP JUMPDEST PUSH1 0x0 DUP3 PUSH2 0x90D JUMPI PUSH2 0x90D PUSH2 0x8A6 JUMP JUMPDEST POP MOD SWAP1 JUMP JUMPDEST PUSH1 0x0 DUP1 DUP3 SLT DUP3 PUSH1 0x1 PUSH1 0x1 PUSH1 0xFF SHL SUB SUB DUP5 SGT DUP2 ISZERO AND ISZERO PUSH2 0x933 JUMPI PUSH2 0x933 PUSH2 0x8BC JUMP JUMPDEST PUSH1 0x1 PUSH1 0xFF SHL DUP4 SWAP1 SUB DUP5 SLT DUP2 AND ISZERO PUSH2 0x94C JUMPI PUSH2 0x94C PUSH2 0x8BC JUMP JUMPDEST POP POP ADD SWAP1 JUMP JUMPDEST PUSH1 0x0 PUSH1 0x1 PUSH1 0x1 PUSH1 0xFF SHL SUB PUSH1 0x0 DUP5 SGT PUSH1 0x0 DUP5 SGT DUP6 DUP4 DIV DUP6 GT DUP3 DUP3 AND AND ISZERO PUSH2 0x97A JUMPI PUSH2 0x97A PUSH2 0x8BC JUMP JUMPDEST PUSH1 0x1 PUSH1 0xFF SHL PUSH1 0x0 DUP8 SLT DUP3 DUP2 AND DUP8 DUP4 SDIV DUP10 SLT AND ISZERO PUSH2 0x999 JUMPI PUSH2 0x999 PUSH2 0x8BC JUMP JUMPDEST PUSH1 0x0 DUP8 SLT SWAP3 POP DUP8 DUP3 SDIV DUP8 SLT DUP5 DUP5 AND AND ISZERO PUSH2 0x9B5 JUMPI PUSH2 0x9B5 PUSH2 0x8BC JUMP JUMPDEST DUP8 DUP6 SDIV DUP8 SLT DUP2 DUP5 AND AND ISZERO PUSH2 0x9CB JUMPI PUSH2 0x9CB PUSH2 0x8BC JUMP JUMPDEST POP POP POP SWAP3 SWAP1 SWAP4 MUL SWAP4 SWAP3 POP POP POP JUMP JUMPDEST PUSH1 0x0 DUP3 PUSH2 0x9E8 JUMPI PUSH2 0x9E8 PUSH2 0x8A6 JUMP JUMPDEST PUSH1 0x1 PUSH1 0xFF SHL DUP3 EQ PUSH1 0x0 NOT DUP5 EQ AND ISZERO PUSH2 0xA02 JUMPI PUSH2 0xA02 PUSH2 0x8BC JUMP JUMPDEST POP SDIV SWAP1 JUMP JUMPDEST PUSH1 0x0 DUP1 DUP4 SLT DUP1 ISZERO PUSH1 0x1 PUSH1 0xFF SHL DUP6 ADD DUP5 SLT AND ISZERO PUSH2 0xA25 JUMPI PUSH2 0xA25 PUSH2 0x8BC JUMP JUMPDEST DUP4 PUSH1 0x1 PUSH1 0x1 PUSH1 0xFF SHL SUB ADD DUP4 SGT DUP2 AND ISZERO PUSH2 0xA40 JUMPI PUSH2 0xA40 PUSH2 0x8BC JUMP JUMPDEST POP POP SUB SWAP1 JUMP JUMPDEST PUSH1 0x0 PUSH1 0x0 NOT DUP3 EQ ISZERO PUSH2 0xA5A JUMPI PUSH2 0xA5A PUSH2 0x8BC JUMP JUMPDEST POP PUSH1 0x1 ADD SWAP1 JUMP JUMPDEST PUSH1 0x0 PUSH5 0xFFFFFFFFFF DUP1 DUP5 AND DUP1 PUSH2 0xA79 JUMPI PUSH2 0xA79 PUSH2 0x8A6 JUMP JUMPDEST SWAP3 AND SWAP2 SWAP1 SWAP2 DIV SWAP3 SWAP2 POP POP JUMP JUMPDEST PUSH1 0x0 DUP2 PUSH1 0x0 NOT DIV DUP4 GT DUP3 ISZERO ISZERO AND ISZERO PUSH2 0xA9F JUMPI PUSH2 0xA9F PUSH2 0x8BC JUMP JUMPDEST POP MUL SWAP1 JUMP JUMPDEST PUSH1 0x0 DUP3 DUP3 LT ISZERO PUSH2 0xAB6 JUMPI PUSH2 0xAB6 PUSH2 0x8BC JUMP JUMPDEST POP SUB SWAP1 JUMP INVALID LOG2 PUSH5 0x6970667358 0x22 SLT KECCAK256 CALLDATALOAD SWAP15 EXTCODECOPY PUSH7 0x4AFFE21EA772B4 PUSH31 0x963CC99BEE0F80D30FB466FE185135AE303AB55964736F6C63430008090033 "},"methodIdentifiers":{"getDayOfWeek(uint256)":"22f8a2b8","prorate(uint256,uint40,uint256,uint8)":"cf5e4f0c","unixToDays(uint40)":"b14c0ed6","unixToTime(uint256)":"53a6d6e2"}}}}}