{"contracts/ClockTowerSubscribe.sol":{"ClockTowerSubscribe":{"abi":[{"inputs":[],"stateMutability":"payable","type":"constructor"},{"stateMutability":"payable","type":"fallback"},{"inputs":[{"internalType":"address","name":"erc20Contract","type":"address"}],"name":"addERC20Contract","outputs":[],"stateMutability":"nonpayable","type":"function"},{"inputs":[{"components":[{"internalType":"bytes32","name":"id","type":"bytes32"},{"internalType":"uint256","name":"amount","type":"uint256"},{"internalType":"address","name":"provider","type":"address"},{"internalType":"address","name":"token","type":"address"},{"internalType":"bool","name":"exists","type":"bool"},{"internalType":"bool","name":"cancelled","type":"bool"},{"internalType":"enum ClockTowerSubscribe.SubType","name":"subType","type":"uint8"},{"internalType":"uint16","name":"dueDay","type":"uint16"},{"internalType":"string","name":"description","type":"string"}],"internalType":"struct ClockTowerSubscribe.Subscription","name":"subscription","type":"tuple"}],"name":"cancelSubscription","outputs":[],"stateMutability":"nonpayable","type":"function"},{"inputs":[{"internalType":"address","name":"newAddress","type":"address"}],"name":"changeAdmin","outputs":[],"stateMutability":"nonpayable","type":"function"},{"inputs":[{"internalType":"uint256","name":"_fee","type":"uint256"}],"name":"changeFee","outputs":[],"stateMutability":"nonpayable","type":"function"},{"inputs":[{"internalType":"uint256","name":"_fixed_fee","type":"uint256"}],"name":"changeFixedFee","outputs":[],"stateMutability":"nonpayable","type":"function"},{"inputs":[{"internalType":"uint256","name":"_maxGas","type":"uint256"}],"name":"changeMaxGasPrice","outputs":[],"stateMutability":"nonpayable","type":"function"},{"inputs":[{"internalType":"uint256","name":"_maxRemits","type":"uint256"}],"name":"changeMaxRemits","outputs":[],"stateMutability":"nonpayable","type":"function"},{"inputs":[],"name":"chargeSubs","outputs":[{"internalType":"bool","name":"finished","type":"bool"}],"stateMutability":"nonpayable","type":"function"},{"inputs":[{"internalType":"uint256","name":"amount","type":"uint256"},{"internalType":"address","name":"token","type":"address"},{"internalType":"string","name":"description","type":"string"},{"internalType":"enum ClockTowerSubscribe.SubType","name":"subtype","type":"uint8"},{"internalType":"uint16","name":"dueDay","type":"uint16"}],"name":"createSubscription","outputs":[],"stateMutability":"payable","type":"function"},{"inputs":[{"internalType":"bool","name":"bySubscribers","type":"bool"}],"name":"getAccountSubscriptions","outputs":[{"components":[{"internalType":"bytes32","name":"id","type":"bytes32"},{"internalType":"uint256","name":"amount","type":"uint256"},{"internalType":"address","name":"provider","type":"address"},{"internalType":"address","name":"token","type":"address"},{"internalType":"bool","name":"exists","type":"bool"},{"internalType":"bool","name":"cancelled","type":"bool"},{"internalType":"enum ClockTowerSubscribe.SubType","name":"subType","type":"uint8"},{"internalType":"uint16","name":"dueDay","type":"uint16"},{"internalType":"string","name":"description","type":"string"}],"internalType":"struct ClockTowerSubscribe.Subscription[]","name":"","type":"tuple[]"}],"stateMutability":"view","type":"function"},{"inputs":[],"name":"getFee","outputs":[{"internalType":"uint256","name":"","type":"uint256"}],"stateMutability":"view","type":"function"},{"inputs":[],"name":"getProviderSubscriptions","outputs":[{"components":[{"internalType":"bytes32","name":"id","type":"bytes32"},{"internalType":"uint256","name":"amount","type":"uint256"},{"internalType":"address","name":"provider","type":"address"},{"internalType":"address","name":"token","type":"address"},{"internalType":"bool","name":"exists","type":"bool"},{"internalType":"bool","name":"cancelled","type":"bool"},{"internalType":"enum ClockTowerSubscribe.SubType","name":"subType","type":"uint8"},{"internalType":"uint16","name":"dueDay","type":"uint16"},{"internalType":"string","name":"description","type":"string"}],"internalType":"struct ClockTowerSubscribe.Subscription[]","name":"","type":"tuple[]"}],"stateMutability":"view","type":"function"},{"inputs":[{"internalType":"address","name":"erc20Contract","type":"address"}],"name":"removeERC20Contract","outputs":[],"stateMutability":"nonpayable","type":"function"},{"inputs":[{"components":[{"internalType":"bytes32","name":"id","type":"bytes32"},{"internalType":"uint256","name":"amount","type":"uint256"},{"internalType":"address","name":"provider","type":"address"},{"internalType":"address","name":"token","type":"address"},{"internalType":"bool","name":"exists","type":"bool"},{"internalType":"bool","name":"cancelled","type":"bool"},{"internalType":"enum ClockTowerSubscribe.SubType","name":"subType","type":"uint8"},{"internalType":"uint16","name":"dueDay","type":"uint16"},{"internalType":"string","name":"description","type":"string"}],"internalType":"struct ClockTowerSubscribe.Subscription","name":"subscription","type":"tuple"}],"name":"subscribe","outputs":[],"stateMutability":"payable","type":"function"},{"inputs":[],"name":"toggleContractActive","outputs":[],"stateMutability":"nonpayable","type":"function"},{"inputs":[{"internalType":"uint256","name":"unix","type":"uint256"}],"name":"unixToDays","outputs":[{"internalType":"uint16","name":"yearDays","type":"uint16"},{"internalType":"uint16","name":"quarterDay","type":"uint16"},{"internalType":"uint16","name":"day","type":"uint16"}],"stateMutability":"pure","type":"function"},{"inputs":[{"internalType":"bytes32","name":"id","type":"bytes32"}],"name":"unsubscribe","outputs":[],"stateMutability":"payable","type":"function"},{"stateMutability":"payable","type":"receive"}],"evm":{"bytecode":{"linkReferences":{},"object":"6080604052600080546001600160a01b03191673f39fd6e51aad88f6f4ce6ab8827279cfffb922661790556127d86001908155662386f26fc10000600255640ba43b74006003556103e8600455600f805460ff19169055620000614262000095565b6200006d9190620000ab565b600f60016101000a81548164ffffffffff021916908364ffffffffff16021790555062000113565b6000620000a5610e1083620000e0565b92915050565b600064ffffffffff83811690831681811015620000d857634e487b7160e01b600052601160045260246000fd5b039392505050565b600064ffffffffff808416806200010757634e487b7160e01b600052601260045260246000fd5b92169190910492915050565b6134d380620001236000396000f3fe6080604052600436106100f65760003560e01c80638e83ac4a1161008f578063ab7e090911610061578063ab7e090914610295578063ced72f87146102b5578063dc700089146102d3578063e8763a8b146102f8578063f8c601461461030d57005b80638e83ac4a146101fd5780638f2839701461021d57806393bc84131461023d578063a429131a1461028257005b80633084f79e116100c85780633084f79e146101745780633816377e146101875780636605ac0d146101a75780636a1db1bf146101dd57005b8063053149fa146100ff578063094f99771461011f5780631385d24c1461013f57806327ea97731461015457005b366100fd57005b005b34801561010b57600080fd5b506100fd61011a366004612e62565b610320565b34801561012b57600080fd5b506100fd61013a366004612e84565b610508565b34801561014b57600080fd5b506100fd610be4565b34801561016057600080fd5b506100fd61016f366004612ec0565b610c00565b6100fd610182366004612efa565b610c0d565b34801561019357600080fd5b506100fd6101a2366004612ec0565b611129565b3480156101b357600080fd5b506101c76101c2366004612fb5565b611136565b6040516101d49190613062565b60405180910390f35b3480156101e957600080fd5b506100fd6101f8366004612ec0565b6113d5565b34801561020957600080fd5b506100fd610218366004612ec0565b6113e2565b34801561022957600080fd5b506100fd610238366004612e62565b6113ef565b34801561024957600080fd5b5061025d610258366004612ec0565b611442565b6040805161ffff948516815292841660208401529216918101919091526060016101d4565b6100fd610290366004612e84565b61163e565b3480156102a157600080fd5b506100fd6102b0366004612e62565b6117ea565b3480156102c157600080fd5b506001546040519081526020016101d4565b3480156102df57600080fd5b506102e8611891565b60405190151581526020016101d4565b34801561030457600080fd5b506101c7612024565b6100fd61031b366004612ec0565b6121bf565b6103286123fd565b6001600160a01b03811661033b57600080fd5b6103448161243d565b6103795760405162461bcd60e51b81526020600482015260016024820152601960f91b60448201526064015b60405180910390fd5b6000600e8054806020026020016040519081016040528092919081815260200182805480156103d157602002820191906000526020600020905b81546001600160a01b031681526001909101906020018083116103b3575b505050505090506000805b825181101561043257836001600160a01b031683828151811061040157610401613142565b60200260200101516001600160a01b0316141561042057809150610432565b8061042a8161316e565b9150506103dc565b50805b600e5461044490600190613189565b8110156104cf57600e6104588260016131a0565b8154811061046857610468613142565b600091825260209091200154600e80546001600160a01b03909216918390811061049457610494613142565b600091825260209091200180546001600160a01b0319166001600160a01b0392909216919091179055806104c78161316e565b915050610435565b50600e8054806104e1576104e16131b8565b600082815260209020810160001990810180546001600160a01b0319169055019055505050565b6105106124fe565b61053d8135610526610100840160e085016131ce565b61053660e0850160c086016131e9565b600061252f565b61056d5760405162461bcd60e51b81526020600482015260016024820152603760f81b6044820152606401610370565b80356000908152600c60209081526040808320805482518185028101850190935280835291929091908301828280156105cf57602002820191906000526020600020905b81546001600160a01b031681526001909101906020018083116105b1575b5050505050905060005b815181101561090d576000600960008484815181106105fa576105fa613142565b60200260200101516001600160a01b03166001600160a01b031681526020019081526020016000206002018054905067ffffffffffffffff81111561064157610641613204565b60405190808252806020026020018201604052801561069c57816020015b61068960408051608081018252600080825260208201819052909182019081526020016000905290565b81526020019060019003908161065f5790505b509050600960008484815181106106b5576106b5613142565b60200260200101516001600160a01b03166001600160a01b03168152602001908152602001600020600201805480602002602001604051908101604052809291908181526020016000905b828210156107b6576000848152602090819020604080516080810182526002860290920180548352600181015461ffff81169484019490945291929083019062010000900460ff16600381111561075957610759612fd2565b600381111561076a5761076a612fd2565b81526020016001820160039054906101000a900460ff16600281111561079257610792612fd2565b60028111156107a3576107a3612fd2565b8152505081526020019060010190610700565b50505050905060005b600960008585815181106107d5576107d5613142565b60200260200101516001600160a01b03166001600160a01b03168152602001908152602001600020600201805490508110156108d257846000013582828151811061082257610822613142565b60200260200101516000015114156108c05760016009600086868151811061084c5761084c613142565b60200260200101516001600160a01b03166001600160a01b03168152602001908152602001600020600201828154811061088857610888613142565b906000526020600020906002020160010160036101000a81548160ff021916908360028111156108ba576108ba612fd2565b02179055505b806108ca8161316e565b9150506107bf565b506108fa84600001358484815181106108ed576108ed613142565b60200260200101516125ab565b50806109058161316e565b9150506105d9565b506000600b8161092360e0860160c087016131e9565b600381111561093457610934612fd2565b815260200190815260200160002060008460e001602081019061095791906131ce565b61ffff1661ffff168152602001908152602001600020805480602002602001604051908101604052809291908181526020016000905b82821015610af75760008481526020908190206040805161012081018252600586029092018054835260018101549383019390935260028301546001600160a01b0390811691830191909152600380840154918216606084015260ff600160a01b8304811615156080850152600160a81b83048116151560a085015292939260c0850192600160b01b90041690811115610a2957610a29612fd2565b6003811115610a3a57610a3a612fd2565b81526003820154600160b81b900461ffff166020820152600482018054604090920191610a669061321a565b80601f0160208091040260200160405190810160405280929190818152602001828054610a929061321a565b8015610adf5780601f10610ab457610100808354040283529160200191610adf565b820191906000526020600020905b815481529060010190602001808311610ac257829003601f168201915b5050505050815250508152602001906001019061098d565b50505050905060005b8151811015610bde578360000135828281518110610b2057610b20613142565b6020026020010151600001511415610bcc576001600b6000610b4860e0880160c089016131e9565b6003811115610b5957610b59612fd2565b815260200190815260200160002060008660e0016020810190610b7c91906131ce565b61ffff1661ffff1681526020019081526020016000208281548110610ba357610ba3613142565b906000526020600020906005020160030160156101000a81548160ff0219169083151502179055505b80610bd68161316e565b915050610b00565b50505050565b610bec6123fd565b600f805460ff19811660ff90911615179055565b610c086123fd565b600455565b610c156124fe565b6001600160a01b038516610c4f5760405162461bcd60e51b81526020600482015260016024820152600760fb1b6044820152606401610370565b346002541115610c855760405162461bcd60e51b81526020600482015260016024820152603560f81b6044820152606401610370565b610c8e8561243d565b610cbe5760405162461bcd60e51b81526020600482015260016024820152603960f81b6044820152606401610370565b60008611610cf35760405162461bcd60e51b8152602060048201526002602482015261031360f41b6044820152606401610370565b6020831115610d445760405162461bcd60e51b815260206004820152601a60248201527f537472696e67206d757374206265203c3d2033322062797465730000000000006044820152606401610370565b6000826003811115610d5857610d58612fd2565b1415610dc3578061ffff166000108015610d77575060078161ffff1611155b610dc35760405162461bcd60e51b815260206004820152601760248201527f4d757374206265206265747765656e203120616e6420370000000000000000006044820152606401610370565b6001826003811115610dd757610dd7612fd2565b1415610e42578061ffff166000108015610df65750601c8161ffff1611155b610e425760405162461bcd60e51b815260206004820152601b60248201527f4d757374757374206265206265747765656e203120616e6420323800000000006044820152606401610370565b6002826003811115610e5657610e56612fd2565b1415610ec1578061ffff166000108015610e755750605a8161ffff1611155b610ec15760405162461bcd60e51b815260206004820152601860248201527f4d757374206265206265747765656e203120616e6420393000000000000000006044820152606401610370565b6003826003811115610ed557610ed5612fd2565b1415610f41578061ffff166000108015610ef5575061016d8161ffff1611155b610f415760405162461bcd60e51b815260206004820152601960248201527f4d757374206265206265747765656e203120616e6420333635000000000000006044820152606401610370565b6000610f88878787878080601f0160208091040260200160405190810160405280939291908181526020018383808284376000920191909152508992508891506126f89050565b905080600b6000856003811115610fa157610fa1612fd2565b81526020808201929092526040908101600090812061ffff87168252835281812080546001818101835591835291849020855160059093020191825592840151928101929092558201516002820180546001600160a01b039283166001600160a01b0319909116179055606083015160038084018054608087015160a08801511515600160a81b0260ff60a81b19911515600160a01b026001600160a81b03199093169590961694909417179283168417815560c086015193909260ff60b01b1990911661ffff60a81b199091161790600160b01b90849081111561108857611088612fd2565b021790555060e082015160038201805461ffff909216600160b81b0261ffff60b81b1990921691909117905561010082015180516110d0916004840191602090910190612d61565b509050506111206040518060800160405280836000015181526020018360e0015161ffff1681526020018360c00151600381111561111057611110612fd2565b815260200160009052600161279f565b50505050505050565b6111316123fd565b600355565b606080821561122d5733600090815260096020908152604080832060020180548251818502810185019093528083529193909284015b82821015611222576000848152602090819020604080516080810182526002860290920180548352600181015461ffff81169484019490945291929083019062010000900460ff1660038111156111c5576111c5612fd2565b60038111156111d6576111d6612fd2565b81526020016001820160039054906101000a900460ff1660028111156111fe576111fe612fd2565b600281111561120f5761120f612fd2565b815250508152602001906001019061116c565b505050509050611317565b33600090815260096020908152604080832060030180548251818502810185019093528083529193909284015b82821015611310576000848152602090819020604080516080810182526002860290920180548352600181015461ffff81169484019490945291929083019062010000900460ff1660038111156112b3576112b3612fd2565b60038111156112c4576112c4612fd2565b81526020016001820160039054906101000a900460ff1660028111156112ec576112ec612fd2565b60028111156112fd576112fd612fd2565b815250508152602001906001019061125a565b5050505090505b6000815167ffffffffffffffff81111561133357611333613204565b60405190808252806020026020018201604052801561136c57816020015b611359612de5565b8152602001906001900390816113515790505b50905060005b82518110156113cd5761139d83828151811061139057611390613142565b6020026020010151612952565b8282815181106113af576113af613142565b602002602001018190525080806113c59061316e565b915050611372565b509392505050565b6113dd6123fd565b600155565b6113ea6123fd565b600255565b6113f76123fd565b336001600160a01b03821614801561141757506001600160a01b03811615155b61142057600080fd5b600080546001600160a01b0319166001600160a01b0392909216919091179055565b6000808080611454620151808661326b565b90508060006114668262010bd961327f565b6114739062253d8c61327f565b9050600062023ab16114868360046132c0565b6114909190613345565b905060046114a18262023ab16132c0565b6114ac90600361327f565b6114b69190613345565b6114c09083613373565b9150600062164b096114d384600161327f565b6114df90610fa06132c0565b6114e99190613345565b905060046114f9826105b56132c0565b6115039190613345565b61150d9084613373565b61151890601f61327f565b9250600061098f61152a8560506132c0565b6115349190613345565b9050600060506115468361098f6132c0565b6115509190613345565b61155a9086613373565b9050611567600b83613345565b945061157485600c6132c0565b61157f83600261327f565b6115899190613373565b91508483611598603187613373565b6115a39060646132c0565b6115ad919061327f565b6115b7919061327f565b909750915086828282600060015b83811161161257838114156115e9576115e261ffff8e16836131a0565b9150611600565b6115f38585612b95565b6115fd90836131a0565b91505b8061160a8161316e565b9150506115c5565b50809d5060006116268f61ffff1686612c1d565b9050809d505050505050505050505050509193909250565b6116466124fe565b602081013561165b6080830160608401612e62565b604051636eb1769f60e11b81523360048201523060248201526001600160a01b03919091169063dd62ed3e90604401602060405180830381600087803b1580156116a457600080fd5b505af11580156116b8573d6000803e3d6000fd5b505050506040513d601f19601f820116820180604052508101906116dc91906133b2565b101561170f5760405162461bcd60e51b8152602060048201526002602482015261313360f01b6044820152606401610370565b6117258135610526610100840160e085016131ce565b6117555760405162461bcd60e51b81526020600482015260016024820152603760f81b6044820152606401610370565b80356000818152600c6020908152604080832080546001810182559084529282902090920180546001600160a01b031916331790558151608081019092529181526117e79181016117ad610100850160e086016131ce565b61ffff1681526020016117c660e0850160c086016131e9565b60038111156117d7576117d7612fd2565b815260200160009052600061279f565b50565b6117f26123fd565b6001600160a01b03811661180557600080fd5b61180e8161243d565b1561183f5760405162461bcd60e51b81526020600482015260016024820152603160f81b6044820152606401610370565b600e80546001810182556000919091527fbb7b4a454dc3493923482f07822329ed19e8244eff582cc204f8554c3620c3fd0180546001600160a01b0319166001600160a01b0392909216919091179055565b600061189b6123fd565b6003543a106118e15760405162461bcd60e51b815260206004820152601260248201527108ec2e640e0e4d2c6ca40e8dede40d0d2ced60731b6044820152606401610370565b60006118ec42612ce1565b600f5490915064ffffffffff6101009091048116908216116119355760405162461bcd60e51b81526020600482015260026024820152610c4d60f21b6044820152606401610370565b600080600061194342611442565b925092509250600061195442612cef565b90506000805b60038111611fe15760008161196c5750825b60018214156119785750845b60028214156119845750835b60038214156119905750855b60005b6000838152600b6020908152604080832061ffff86168452909152902054811015611fcc576000838152600b6020908152604080832061ffff8616845290915290208054829081106119e7576119e7613142565b906000526020600020906005020160030160159054906101000a900460ff16611fba576000838152600b6020908152604080832061ffff861684529091528120805483908110611a3957611a39613142565b60009182526020808320600590920290910154868352600b8252604080842061ffff8816855290925290822080549193509084908110611a7b57611a7b613142565b6000918252602080832060036005909302019190910154878352600b8252604080842061ffff8916855290925290822080546001600160a01b0390921693509085908110611acb57611acb613142565b906000526020600020906005020160010154905060008161271060015484611af391906133cb565b611afd919061326b565b611b079190613189565b90506000611b158284613189565b905060005b6000868152600c6020526040902054811015611fb3576004548a1115611b7a576040805180820190915286815260200181905260059590955550505060069190915550506008805460ff1916905550600097506120219650505050505050565b60055486148015611b8c575060065481145b15611b9f576008805460ff191660011790555b6005541580611bb5575060085460ff1615156001145b15611fa1576000868152600c60205260408120805483908110611bda57611bda613142565b600091825260209091200154604051636eb1769f60e11b81526001600160a01b03918216600482018190523060248301529250869188169063dd62ed3e90604401602060405180830381600087803b158015611c3557600080fd5b505af1158015611c49573d6000803e3d6000fd5b505050506040513d601f19601f82011682018060405250810190611c6d91906133b2565b10158015611d31575084866001600160a01b03166370a08231600c60008b81526020019081526020016000208581548110611caa57611caa613142565b60009182526020909120015460405160e083901b6001600160e01b03191681526001600160a01b039091166004820152602401602060405180830381600087803b158015611cf757600080fd5b505af1158015611d0b573d6000803e3d6000fd5b505050506040513d601f19601f82011682018060405250810190611d2f91906133b2565b105b15611db6578a611d408161316e565b604080516060810182528a815264ffffffffff428116602080840191825260008486018181526001600160a01b038a168252600d909252949094209251835551600192909201805493511515650100000000000265ffffffffffff1990941692909116919091179190911790559b50611f9f9050565b8a611dc08161316e565b6040516323b872dd60e01b81526001600160a01b03848116600483015233602483015260448201889052919d5090881691506323b872dd90606401602060405180830381600087803b158015611e1557600080fd5b505af1158015611e29573d6000803e3d6000fd5b505050506040513d601f19601f82011682018060405250810190611e4d91906133ea565b611e5657600080fd5b6040805160608101825288815264ffffffffff428116602080840191825260018486018181526001600160a01b038089166000908152600d855288812097518855945196909201805491511515650100000000000265ffffffffffff199092169690951695909517949094179092558d8152600b825283812061ffff8e168252909152919091208054918816916323b872dd9184918c908110611efb57611efb613142565b600091825260209091206005909102016002015460405160e084901b6001600160e01b03191681526001600160a01b0392831660048201529116602482015260448101869052606401602060405180830381600087803b158015611f5e57600080fd5b505af1158015611f72573d6000803e3d6000fd5b505050506040513d601f19601f82011682018060405250810190611f9691906133ea565b611f9f57600080fd5b505b80611fab8161316e565b915050611b1a565b5050505050505b80611fc48161316e565b915050611993565b50508080611fd99061316e565b91505061195a565b50506000600581905560065550506008805460ff191690555050600f805464ffffffffff9092166101000265ffffffffff00199092169190911790555060015b90565b336000908152600960209081526040808320600301805482518185028101850190935280835260609493849084015b82821015612109576000848152602090819020604080516080810182526002860290920180548352600181015461ffff81169484019490945291929083019062010000900460ff1660038111156120ac576120ac612fd2565b60038111156120bd576120bd612fd2565b81526020016001820160039054906101000a900460ff1660028111156120e5576120e5612fd2565b60028111156120f6576120f6612fd2565b8152505081526020019060010190612053565b5050505090506000815167ffffffffffffffff81111561212b5761212b613204565b60405190808252806020026020018201604052801561216457816020015b612151612de5565b8152602001906001900390816121495790505b50905060005b82518110156121b85761218883828151811061139057611390613142565b82828151811061219a5761219a613142565b602002602001018190525080806121b09061316e565b91505061216a565b5092915050565b6121c76124fe565b3360009081526009602052604081206002015467ffffffffffffffff8111156121f2576121f2613204565b60405190808252806020026020018201604052801561224d57816020015b61223a60408051608081018252600080825260208201819052909182019081526020016000905290565b8152602001906001900390816122105790505b50336000908152600960209081526040808320600201805482518185028101850190935280835294955090939092909184015b82821015612336576000848152602090819020604080516080810182526002860290920180548352600181015461ffff81169484019490945291929083019062010000900460ff1660038111156122d9576122d9612fd2565b60038111156122ea576122ea612fd2565b81526020016001820160039054906101000a900460ff16600281111561231257612312612fd2565b600281111561232357612323612fd2565b8152505081526020019060010190612280565b50505050905060005b336000908152600960205260409020600201548110156123ee578282828151811061236c5761236c613142565b60200260200101516000015114156123dc5733600090815260096020526040902060029081018054839081106123a4576123a4613142565b906000526020600020906002020160010160036101000a81548160ff021916908360028111156123d6576123d6612fd2565b02179055505b806123e68161316e565b91505061233f565b506123f982336125ab565b5050565b6000546001600160a01b0316331461243b5760405162461bcd60e51b81526020600482015260016024820152600360fc1b6044820152606401610370565b565b600080600e80548060200260200160405190810160405280929190818152602001828054801561249657602002820191906000526020600020905b81546001600160a01b03168152600190910190602001808311612478575b505050505090506000915060005b81518110156124f7578181815181106124bf576124bf613142565b60200260200101516001600160a01b0316846001600160a01b031614156124e557600192505b806124ef8161316e565b9150506124a4565b5050919050565b3361243b5760405162461bcd60e51b81526020600482015260016024820152603360f81b6044820152606401610370565b60008060405180608001604052808781526020018661ffff16815260200185600381111561255f5761255f612fd2565b815260200184600281111561257657612576612fd2565b90529050600061258582612952565b905080608001511561259c576001925050506125a3565b6000925050505b949350505050565b6000828152600c6020526040812090805b82548110156126f157836001600160a01b03168382815481106125e1576125e1613142565b6000918252602090912001546001600160a01b0316141561262f5780915082818154811061261157612611613142565b600091825260209091200180546001600160a01b03191690556126f1565b8254839061263f90600190613189565b8154811061264f5761264f613142565b9060005260206000200160009054906101000a90046001600160a01b031683838154811061267f5761267f613142565b9060005260206000200160006101000a8154816001600160a01b0302191690836001600160a01b03160217905550828054806126bd576126bd6131b8565b600082815260209020810160001990810180546001600160a01b0319169055019055806126e98161316e565b9150506125bc565b5050505050565b612700612de5565b6000338684874260405160200161271b959493929190613407565b60408051601f198184030181528282528051602091820120610120840183528084529083018a905233918301919091526001600160a01b038816606083015260016080830152600060a0830152915060c0810185600381111561278057612780612fd2565b81526020018461ffff1681526020018681525091505095945050505050565b33600090815260096020526040902054600160a01b900460ff166128295733600081815260096020526040812080546001600160a01b031990811684178255600a8054600181019091557fc65a7bb8d6351c1cf70c95a316cc6a92839c986682d98bc35f958f4883f9d2a801805490911684179055919052805460ff60a01b1916600160a01b1790555b80156128df57336000908152600960209081526040808320600390810180546001808201835591865294849020875160029096020194855592860151928401805461ffff19811661ffff9095169485178255928701518795949093919262ffffff199092161790620100009084908111156128a6576128a6612fd2565b0217905550606082015160018201805463ff000000191663010000008360028111156128d4576128d4612fd2565b021790555050505050565b33600090815260096020908152604080832060029081018054600180820183559186529484902087519590920290910193845591850151918301805461ffff19811661ffff909416938417825591860151869493909262ffffff191617620100008360038111156128a6576128a6612fd2565b61295a612de5565b6000600b60008460400151600381111561297657612976612fd2565b81526020019081526020016000206000846020015161ffff1661ffff168152602001908152602001600020805480602002602001604051908101604052809291908181526020016000905b82821015612b2b5760008481526020908190206040805161012081018252600586029092018054835260018101549383019390935260028301546001600160a01b0390811691830191909152600380840154918216606084015260ff600160a01b8304811615156080850152600160a81b83048116151560a085015292939260c0850192600160b01b90041690811115612a5d57612a5d612fd2565b6003811115612a6e57612a6e612fd2565b81526003820154600160b81b900461ffff166020820152600482018054604090920191612a9a9061321a565b80601f0160208091040260200160405190810160405280929190818152602001828054612ac69061321a565b8015612b135780601f10612ae857610100808354040283529160200191612b13565b820191906000526020600020905b815481529060010190602001808311612af657829003601f168201915b505050505081525050815260200190600101906129c1565b50505050905060005b81518110156124f7578360000151828281518110612b5457612b54613142565b6020026020010151600001511415612b8357818181518110612b7857612b78613142565b602002602001015192505b80612b8d8161316e565b915050612b34565b60008160011480612ba65750816003145b80612bb15750816005145b80612bbc5750816007145b80612bc75750816008145b80612bd2575081600a145b80612bdd575081600c145b15612bea5750601f612c17565b81600214612bfa5750601e612c17565b612c0383612d25565b612c0e57601c612c11565b601d5b60ff1690505b92915050565b600080612c2983612d25565b15612c3657506001612c3a565b5060005b612c4581605a6131a0565b8411612c53578391506121b8565b83612c5f82605a6131a0565b108015612c765750612c728160b56131a0565b8411155b15612c9757612c8681605a6131a0565b612c909085613189565b91506121b8565b83612ca38260b56131a0565b108015612cbb5750612cb7816101116131a0565b8411155b15612ccb57612c868160b56131a0565b612cd7816101116131a0565b6125a39085613189565b6000612c17610e1083613465565b600080612cff620151808461326b565b905060006007612d108360036131a0565b612d1a9190613489565b6125a39060016131a0565b6000612d32600483613489565b158015612d485750612d45606483613489565b15155b80612c175750612d5a61019083613489565b1592915050565b828054612d6d9061321a565b90600052602060002090601f016020900481019282612d8f5760008555612dd5565b82601f10612da857805160ff1916838001178555612dd5565b82800160010185558215612dd5579182015b82811115612dd5578251825591602001919060010190612dba565b50612de1929150612e31565b5090565b6040805161012081018252600080825260208201819052918101829052606081018290526080810182905260a081018290529060c0820190815260006020820152606060409091015290565b5b80821115612de15760008155600101612e32565b80356001600160a01b0381168114612e5d57600080fd5b919050565b600060208284031215612e7457600080fd5b612e7d82612e46565b9392505050565b600060208284031215612e9657600080fd5b813567ffffffffffffffff811115612ead57600080fd5b82016101208185031215612e7d57600080fd5b600060208284031215612ed257600080fd5b5035919050565b803560048110612e5d57600080fd5b803561ffff81168114612e5d57600080fd5b60008060008060008060a08789031215612f1357600080fd5b86359550612f2360208801612e46565b9450604087013567ffffffffffffffff80821115612f4057600080fd5b818901915089601f830112612f5457600080fd5b813581811115612f6357600080fd5b8a6020828501011115612f7557600080fd5b602083019650809550505050612f8d60608801612ed9565b9150612f9b60808801612ee8565b90509295509295509295565b80151581146117e757600080fd5b600060208284031215612fc757600080fd5b8135612e7d81612fa7565b634e487b7160e01b600052602160045260246000fd5b6004811061300657634e487b7160e01b600052602160045260246000fd5b9052565b60005b8381101561302557818101518382015260200161300d565b83811115610bde5750506000910152565b6000815180845261304e81602086016020860161300a565b601f01601f19169290920160200192915050565b60006020808301818452808551808352604092508286019150828160051b87010184880160005b8381101561313457603f198984030185528151805184528781015188850152868101516001600160a01b03908116888601526060808301519091169085015260808082015115159085015260a08082015115159085015260c08082015161012091906130f782880182612fe8565b505060e08281015161ffff16908601526101009182015191850181905261312081860183613036565b968901969450505090860190600101613089565b509098975050505050505050565b634e487b7160e01b600052603260045260246000fd5b634e487b7160e01b600052601160045260246000fd5b600060001982141561318257613182613158565b5060010190565b60008282101561319b5761319b613158565b500390565b600082198211156131b3576131b3613158565b500190565b634e487b7160e01b600052603160045260246000fd5b6000602082840312156131e057600080fd5b612e7d82612ee8565b6000602082840312156131fb57600080fd5b612e7d82612ed9565b634e487b7160e01b600052604160045260246000fd5b600181811c9082168061322e57607f821691505b6020821081141561324f57634e487b7160e01b600052602260045260246000fd5b50919050565b634e487b7160e01b600052601260045260246000fd5b60008261327a5761327a613255565b500490565b600080821280156001600160ff1b03849003851316156132a1576132a1613158565b600160ff1b83900384128116156132ba576132ba613158565b50500190565b60006001600160ff1b03818413828413808216868404861116156132e6576132e6613158565b600160ff1b600087128281168783058912161561330557613305613158565b6000871292508782058712848416161561332157613321613158565b8785058712818416161561333757613337613158565b505050929093029392505050565b60008261335457613354613255565b600160ff1b82146000198414161561336e5761336e613158565b500590565b60008083128015600160ff1b85018412161561339157613391613158565b6001600160ff1b03840183138116156133ac576133ac613158565b50500390565b6000602082840312156133c457600080fd5b5051919050565b60008160001904831182151516156133e5576133e5613158565b500290565b6000602082840312156133fc57600080fd5b8151612e7d81612fa7565b60006bffffffffffffffffffffffff19808860601b168352808760601b1660148401525061ffff60f01b8560f01b166028830152835161344e81602a85016020880161300a565b602a920191820192909252604a0195945050505050565b600064ffffffffff8084168061347d5761347d613255565b92169190910492915050565b60008261349857613498613255565b50069056fea26469706673582212209a2e543e70a248b4db85d33c916f397725397821ffd58e7c35e03fed2538112864736f6c63430008090033","opcodes":"PUSH1 0x80 PUSH1 0x40 MSTORE PUSH1 0x0 DUP1 SLOAD PUSH1 0x1 PUSH1 0x1 PUSH1 0xA0 SHL SUB NOT AND PUSH20 0xF39FD6E51AAD88F6F4CE6AB8827279CFFFB92266 OR SWAP1 SSTORE PUSH2 0x27D8 PUSH1 0x1 SWAP1 DUP2 SSTORE PUSH7 0x2386F26FC10000 PUSH1 0x2 SSTORE PUSH5 0xBA43B7400 PUSH1 0x3 SSTORE PUSH2 0x3E8 PUSH1 0x4 SSTORE PUSH1 0xF DUP1 SLOAD PUSH1 0xFF NOT AND SWAP1 SSTORE PUSH3 0x61 TIMESTAMP PUSH3 0x95 JUMP JUMPDEST PUSH3 0x6D SWAP2 SWAP1 PUSH3 0xAB JUMP JUMPDEST PUSH1 0xF PUSH1 0x1 PUSH2 0x100 EXP DUP2 SLOAD DUP2 PUSH5 0xFFFFFFFFFF MUL NOT AND SWAP1 DUP4 PUSH5 0xFFFFFFFFFF AND MUL OR SWAP1 SSTORE POP PUSH3 0x113 JUMP JUMPDEST PUSH1 0x0 PUSH3 0xA5 PUSH2 0xE10 DUP4 PUSH3 0xE0 JUMP JUMPDEST SWAP3 SWAP2 POP POP JUMP JUMPDEST PUSH1 0x0 PUSH5 0xFFFFFFFFFF DUP4 DUP2 AND SWAP1 DUP4 AND DUP2 DUP2 LT ISZERO PUSH3 0xD8 JUMPI PUSH4 0x4E487B71 PUSH1 0xE0 SHL PUSH1 0x0 MSTORE PUSH1 0x11 PUSH1 0x4 MSTORE PUSH1 0x24 PUSH1 0x0 REVERT JUMPDEST SUB SWAP4 SWAP3 POP POP POP JUMP JUMPDEST PUSH1 0x0 PUSH5 0xFFFFFFFFFF DUP1 DUP5 AND DUP1 PUSH3 0x107 JUMPI PUSH4 0x4E487B71 PUSH1 0xE0 SHL PUSH1 0x0 MSTORE PUSH1 0x12 PUSH1 0x4 MSTORE PUSH1 0x24 PUSH1 0x0 REVERT JUMPDEST SWAP3 AND SWAP2 SWAP1 SWAP2 DIV SWAP3 SWAP2 POP POP JUMP JUMPDEST PUSH2 0x34D3 DUP1 PUSH3 0x123 PUSH1 0x0 CODECOPY PUSH1 0x0 RETURN INVALID PUSH1 0x80 PUSH1 0x40 MSTORE PUSH1 0x4 CALLDATASIZE LT PUSH2 0xF6 JUMPI PUSH1 0x0 CALLDATALOAD PUSH1 0xE0 SHR DUP1 PUSH4 0x8E83AC4A GT PUSH2 0x8F JUMPI DUP1 PUSH4 0xAB7E0909 GT PUSH2 0x61 JUMPI DUP1 PUSH4 0xAB7E0909 EQ PUSH2 0x295 JUMPI DUP1 PUSH4 0xCED72F87 EQ PUSH2 0x2B5 JUMPI DUP1 PUSH4 0xDC700089 EQ PUSH2 0x2D3 JUMPI DUP1 PUSH4 0xE8763A8B EQ PUSH2 0x2F8 JUMPI DUP1 PUSH4 0xF8C60146 EQ PUSH2 0x30D JUMPI STOP JUMPDEST DUP1 PUSH4 0x8E83AC4A EQ PUSH2 0x1FD JUMPI DUP1 PUSH4 0x8F283970 EQ PUSH2 0x21D JUMPI DUP1 PUSH4 0x93BC8413 EQ PUSH2 0x23D JUMPI DUP1 PUSH4 0xA429131A EQ PUSH2 0x282 JUMPI STOP JUMPDEST DUP1 PUSH4 0x3084F79E GT PUSH2 0xC8 JUMPI DUP1 PUSH4 0x3084F79E EQ PUSH2 0x174 JUMPI DUP1 PUSH4 0x3816377E EQ PUSH2 0x187 JUMPI DUP1 PUSH4 0x6605AC0D EQ PUSH2 0x1A7 JUMPI DUP1 PUSH4 0x6A1DB1BF EQ PUSH2 0x1DD JUMPI STOP JUMPDEST DUP1 PUSH4 0x53149FA EQ PUSH2 0xFF JUMPI DUP1 PUSH4 0x94F9977 EQ PUSH2 0x11F JUMPI DUP1 PUSH4 0x1385D24C EQ PUSH2 0x13F JUMPI DUP1 PUSH4 0x27EA9773 EQ PUSH2 0x154 JUMPI STOP JUMPDEST CALLDATASIZE PUSH2 0xFD JUMPI STOP JUMPDEST STOP JUMPDEST CALLVALUE DUP1 ISZERO PUSH2 0x10B JUMPI PUSH1 0x0 DUP1 REVERT JUMPDEST POP PUSH2 0xFD PUSH2 0x11A CALLDATASIZE PUSH1 0x4 PUSH2 0x2E62 JUMP JUMPDEST PUSH2 0x320 JUMP JUMPDEST CALLVALUE DUP1 ISZERO PUSH2 0x12B JUMPI PUSH1 0x0 DUP1 REVERT JUMPDEST POP PUSH2 0xFD PUSH2 0x13A CALLDATASIZE PUSH1 0x4 PUSH2 0x2E84 JUMP JUMPDEST PUSH2 0x508 JUMP JUMPDEST CALLVALUE DUP1 ISZERO PUSH2 0x14B JUMPI PUSH1 0x0 DUP1 REVERT JUMPDEST POP PUSH2 0xFD PUSH2 0xBE4 JUMP JUMPDEST CALLVALUE DUP1 ISZERO PUSH2 0x160 JUMPI PUSH1 0x0 DUP1 REVERT JUMPDEST POP PUSH2 0xFD PUSH2 0x16F CALLDATASIZE PUSH1 0x4 PUSH2 0x2EC0 JUMP JUMPDEST PUSH2 0xC00 JUMP JUMPDEST PUSH2 0xFD PUSH2 0x182 CALLDATASIZE PUSH1 0x4 PUSH2 0x2EFA JUMP JUMPDEST PUSH2 0xC0D JUMP JUMPDEST CALLVALUE DUP1 ISZERO PUSH2 0x193 JUMPI PUSH1 0x0 DUP1 REVERT JUMPDEST POP PUSH2 0xFD PUSH2 0x1A2 CALLDATASIZE PUSH1 0x4 PUSH2 0x2EC0 JUMP JUMPDEST PUSH2 0x1129 JUMP JUMPDEST CALLVALUE DUP1 ISZERO PUSH2 0x1B3 JUMPI PUSH1 0x0 DUP1 REVERT JUMPDEST POP PUSH2 0x1C7 PUSH2 0x1C2 CALLDATASIZE PUSH1 0x4 PUSH2 0x2FB5 JUMP JUMPDEST PUSH2 0x1136 JUMP JUMPDEST PUSH1 0x40 MLOAD PUSH2 0x1D4 SWAP2 SWAP1 PUSH2 0x3062 JUMP JUMPDEST PUSH1 0x40 MLOAD DUP1 SWAP2 SUB SWAP1 RETURN JUMPDEST CALLVALUE DUP1 ISZERO PUSH2 0x1E9 JUMPI PUSH1 0x0 DUP1 REVERT JUMPDEST POP PUSH2 0xFD PUSH2 0x1F8 CALLDATASIZE PUSH1 0x4 PUSH2 0x2EC0 JUMP JUMPDEST PUSH2 0x13D5 JUMP JUMPDEST CALLVALUE DUP1 ISZERO PUSH2 0x209 JUMPI PUSH1 0x0 DUP1 REVERT JUMPDEST POP PUSH2 0xFD PUSH2 0x218 CALLDATASIZE PUSH1 0x4 PUSH2 0x2EC0 JUMP JUMPDEST PUSH2 0x13E2 JUMP JUMPDEST CALLVALUE DUP1 ISZERO PUSH2 0x229 JUMPI PUSH1 0x0 DUP1 REVERT JUMPDEST POP PUSH2 0xFD PUSH2 0x238 CALLDATASIZE PUSH1 0x4 PUSH2 0x2E62 JUMP JUMPDEST PUSH2 0x13EF JUMP JUMPDEST CALLVALUE DUP1 ISZERO PUSH2 0x249 JUMPI PUSH1 0x0 DUP1 REVERT JUMPDEST POP PUSH2 0x25D PUSH2 0x258 CALLDATASIZE PUSH1 0x4 PUSH2 0x2EC0 JUMP JUMPDEST PUSH2 0x1442 JUMP JUMPDEST PUSH1 0x40 DUP1 MLOAD PUSH2 0xFFFF SWAP5 DUP6 AND DUP2 MSTORE SWAP3 DUP5 AND PUSH1 0x20 DUP5 ADD MSTORE SWAP3 AND SWAP2 DUP2 ADD SWAP2 SWAP1 SWAP2 MSTORE PUSH1 0x60 ADD PUSH2 0x1D4 JUMP JUMPDEST PUSH2 0xFD PUSH2 0x290 CALLDATASIZE PUSH1 0x4 PUSH2 0x2E84 JUMP JUMPDEST PUSH2 0x163E JUMP JUMPDEST CALLVALUE DUP1 ISZERO PUSH2 0x2A1 JUMPI PUSH1 0x0 DUP1 REVERT JUMPDEST POP PUSH2 0xFD PUSH2 0x2B0 CALLDATASIZE PUSH1 0x4 PUSH2 0x2E62 JUMP JUMPDEST PUSH2 0x17EA JUMP JUMPDEST CALLVALUE DUP1 ISZERO PUSH2 0x2C1 JUMPI PUSH1 0x0 DUP1 REVERT JUMPDEST POP PUSH1 0x1 SLOAD PUSH1 0x40 MLOAD SWAP1 DUP2 MSTORE PUSH1 0x20 ADD PUSH2 0x1D4 JUMP JUMPDEST CALLVALUE DUP1 ISZERO PUSH2 0x2DF JUMPI PUSH1 0x0 DUP1 REVERT JUMPDEST POP PUSH2 0x2E8 PUSH2 0x1891 JUMP JUMPDEST PUSH1 0x40 MLOAD SWAP1 ISZERO ISZERO DUP2 MSTORE PUSH1 0x20 ADD PUSH2 0x1D4 JUMP JUMPDEST CALLVALUE DUP1 ISZERO PUSH2 0x304 JUMPI PUSH1 0x0 DUP1 REVERT JUMPDEST POP PUSH2 0x1C7 PUSH2 0x2024 JUMP JUMPDEST PUSH2 0xFD PUSH2 0x31B CALLDATASIZE PUSH1 0x4 PUSH2 0x2EC0 JUMP JUMPDEST PUSH2 0x21BF JUMP JUMPDEST PUSH2 0x328 PUSH2 0x23FD JUMP JUMPDEST PUSH1 0x1 PUSH1 0x1 PUSH1 0xA0 SHL SUB DUP2 AND PUSH2 0x33B JUMPI PUSH1 0x0 DUP1 REVERT JUMPDEST PUSH2 0x344 DUP2 PUSH2 0x243D JUMP JUMPDEST PUSH2 0x379 JUMPI PUSH1 0x40 MLOAD PUSH3 0x461BCD PUSH1 0xE5 SHL DUP2 MSTORE PUSH1 0x20 PUSH1 0x4 DUP3 ADD MSTORE PUSH1 0x1 PUSH1 0x24 DUP3 ADD MSTORE PUSH1 0x19 PUSH1 0xF9 SHL PUSH1 0x44 DUP3 ADD MSTORE PUSH1 0x64 ADD JUMPDEST PUSH1 0x40 MLOAD DUP1 SWAP2 SUB SWAP1 REVERT JUMPDEST PUSH1 0x0 PUSH1 0xE DUP1 SLOAD DUP1 PUSH1 0x20 MUL PUSH1 0x20 ADD PUSH1 0x40 MLOAD SWAP1 DUP2 ADD PUSH1 0x40 MSTORE DUP1 SWAP3 SWAP2 SWAP1 DUP2 DUP2 MSTORE PUSH1 0x20 ADD DUP3 DUP1 SLOAD DUP1 ISZERO PUSH2 0x3D1 JUMPI PUSH1 0x20 MUL DUP3 ADD SWAP2 SWAP1 PUSH1 0x0 MSTORE PUSH1 0x20 PUSH1 0x0 KECCAK256 SWAP1 JUMPDEST DUP2 SLOAD PUSH1 0x1 PUSH1 0x1 PUSH1 0xA0 SHL SUB AND DUP2 MSTORE PUSH1 0x1 SWAP1 SWAP2 ADD SWAP1 PUSH1 0x20 ADD DUP1 DUP4 GT PUSH2 0x3B3 JUMPI JUMPDEST POP POP POP POP POP SWAP1 POP PUSH1 0x0 DUP1 JUMPDEST DUP3 MLOAD DUP2 LT ISZERO PUSH2 0x432 JUMPI DUP4 PUSH1 0x1 PUSH1 0x1 PUSH1 0xA0 SHL SUB AND DUP4 DUP3 DUP2 MLOAD DUP2 LT PUSH2 0x401 JUMPI PUSH2 0x401 PUSH2 0x3142 JUMP JUMPDEST PUSH1 0x20 MUL PUSH1 0x20 ADD ADD MLOAD PUSH1 0x1 PUSH1 0x1 PUSH1 0xA0 SHL SUB AND EQ ISZERO PUSH2 0x420 JUMPI DUP1 SWAP2 POP PUSH2 0x432 JUMP JUMPDEST DUP1 PUSH2 0x42A DUP2 PUSH2 0x316E JUMP JUMPDEST SWAP2 POP POP PUSH2 0x3DC JUMP JUMPDEST POP DUP1 JUMPDEST PUSH1 0xE SLOAD PUSH2 0x444 SWAP1 PUSH1 0x1 SWAP1 PUSH2 0x3189 JUMP JUMPDEST DUP2 LT ISZERO PUSH2 0x4CF JUMPI PUSH1 0xE PUSH2 0x458 DUP3 PUSH1 0x1 PUSH2 0x31A0 JUMP JUMPDEST DUP2 SLOAD DUP2 LT PUSH2 0x468 JUMPI PUSH2 0x468 PUSH2 0x3142 JUMP JUMPDEST PUSH1 0x0 SWAP2 DUP3 MSTORE PUSH1 0x20 SWAP1 SWAP2 KECCAK256 ADD SLOAD PUSH1 0xE DUP1 SLOAD PUSH1 0x1 PUSH1 0x1 PUSH1 0xA0 SHL SUB SWAP1 SWAP3 AND SWAP2 DUP4 SWAP1 DUP2 LT PUSH2 0x494 JUMPI PUSH2 0x494 PUSH2 0x3142 JUMP JUMPDEST PUSH1 0x0 SWAP2 DUP3 MSTORE PUSH1 0x20 SWAP1 SWAP2 KECCAK256 ADD DUP1 SLOAD PUSH1 0x1 PUSH1 0x1 PUSH1 0xA0 SHL SUB NOT AND PUSH1 0x1 PUSH1 0x1 PUSH1 0xA0 SHL SUB SWAP3 SWAP1 SWAP3 AND SWAP2 SWAP1 SWAP2 OR SWAP1 SSTORE DUP1 PUSH2 0x4C7 DUP2 PUSH2 0x316E JUMP JUMPDEST SWAP2 POP POP PUSH2 0x435 JUMP JUMPDEST POP PUSH1 0xE DUP1 SLOAD DUP1 PUSH2 0x4E1 JUMPI PUSH2 0x4E1 PUSH2 0x31B8 JUMP JUMPDEST PUSH1 0x0 DUP3 DUP2 MSTORE PUSH1 0x20 SWAP1 KECCAK256 DUP2 ADD PUSH1 0x0 NOT SWAP1 DUP2 ADD DUP1 SLOAD PUSH1 0x1 PUSH1 0x1 PUSH1 0xA0 SHL SUB NOT AND SWAP1 SSTORE ADD SWAP1 SSTORE POP POP POP JUMP JUMPDEST PUSH2 0x510 PUSH2 0x24FE JUMP JUMPDEST PUSH2 0x53D DUP2 CALLDATALOAD PUSH2 0x526 PUSH2 0x100 DUP5 ADD PUSH1 0xE0 DUP6 ADD PUSH2 0x31CE JUMP JUMPDEST PUSH2 0x536 PUSH1 0xE0 DUP6 ADD PUSH1 0xC0 DUP7 ADD PUSH2 0x31E9 JUMP JUMPDEST PUSH1 0x0 PUSH2 0x252F JUMP JUMPDEST PUSH2 0x56D JUMPI PUSH1 0x40 MLOAD PUSH3 0x461BCD PUSH1 0xE5 SHL DUP2 MSTORE PUSH1 0x20 PUSH1 0x4 DUP3 ADD MSTORE PUSH1 0x1 PUSH1 0x24 DUP3 ADD MSTORE PUSH1 0x37 PUSH1 0xF8 SHL PUSH1 0x44 DUP3 ADD MSTORE PUSH1 0x64 ADD PUSH2 0x370 JUMP JUMPDEST DUP1 CALLDATALOAD PUSH1 0x0 SWAP1 DUP2 MSTORE PUSH1 0xC PUSH1 0x20 SWAP1 DUP2 MSTORE PUSH1 0x40 DUP1 DUP4 KECCAK256 DUP1 SLOAD DUP3 MLOAD DUP2 DUP6 MUL DUP2 ADD DUP6 ADD SWAP1 SWAP4 MSTORE DUP1 DUP4 MSTORE SWAP2 SWAP3 SWAP1 SWAP2 SWAP1 DUP4 ADD DUP3 DUP3 DUP1 ISZERO PUSH2 0x5CF JUMPI PUSH1 0x20 MUL DUP3 ADD SWAP2 SWAP1 PUSH1 0x0 MSTORE PUSH1 0x20 PUSH1 0x0 KECCAK256 SWAP1 JUMPDEST DUP2 SLOAD PUSH1 0x1 PUSH1 0x1 PUSH1 0xA0 SHL SUB AND DUP2 MSTORE PUSH1 0x1 SWAP1 SWAP2 ADD SWAP1 PUSH1 0x20 ADD DUP1 DUP4 GT PUSH2 0x5B1 JUMPI JUMPDEST POP POP POP POP POP SWAP1 POP PUSH1 0x0 JUMPDEST DUP2 MLOAD DUP2 LT ISZERO PUSH2 0x90D JUMPI PUSH1 0x0 PUSH1 0x9 PUSH1 0x0 DUP5 DUP5 DUP2 MLOAD DUP2 LT PUSH2 0x5FA JUMPI PUSH2 0x5FA PUSH2 0x3142 JUMP JUMPDEST PUSH1 0x20 MUL PUSH1 0x20 ADD ADD MLOAD PUSH1 0x1 PUSH1 0x1 PUSH1 0xA0 SHL SUB AND PUSH1 0x1 PUSH1 0x1 PUSH1 0xA0 SHL SUB AND DUP2 MSTORE PUSH1 0x20 ADD SWAP1 DUP2 MSTORE PUSH1 0x20 ADD PUSH1 0x0 KECCAK256 PUSH1 0x2 ADD DUP1 SLOAD SWAP1 POP PUSH8 0xFFFFFFFFFFFFFFFF DUP2 GT ISZERO PUSH2 0x641 JUMPI PUSH2 0x641 PUSH2 0x3204 JUMP JUMPDEST PUSH1 0x40 MLOAD SWAP1 DUP1 DUP3 MSTORE DUP1 PUSH1 0x20 MUL PUSH1 0x20 ADD DUP3 ADD PUSH1 0x40 MSTORE DUP1 ISZERO PUSH2 0x69C JUMPI DUP2 PUSH1 0x20 ADD JUMPDEST PUSH2 0x689 PUSH1 0x40 DUP1 MLOAD PUSH1 0x80 DUP2 ADD DUP3 MSTORE PUSH1 0x0 DUP1 DUP3 MSTORE PUSH1 0x20 DUP3 ADD DUP2 SWAP1 MSTORE SWAP1 SWAP2 DUP3 ADD SWAP1 DUP2 MSTORE PUSH1 0x20 ADD PUSH1 0x0 SWAP1 MSTORE SWAP1 JUMP JUMPDEST DUP2 MSTORE PUSH1 0x20 ADD SWAP1 PUSH1 0x1 SWAP1 SUB SWAP1 DUP2 PUSH2 0x65F JUMPI SWAP1 POP JUMPDEST POP SWAP1 POP PUSH1 0x9 PUSH1 0x0 DUP5 DUP5 DUP2 MLOAD DUP2 LT PUSH2 0x6B5 JUMPI PUSH2 0x6B5 PUSH2 0x3142 JUMP JUMPDEST PUSH1 0x20 MUL PUSH1 0x20 ADD ADD MLOAD PUSH1 0x1 PUSH1 0x1 PUSH1 0xA0 SHL SUB AND PUSH1 0x1 PUSH1 0x1 PUSH1 0xA0 SHL SUB AND DUP2 MSTORE PUSH1 0x20 ADD SWAP1 DUP2 MSTORE PUSH1 0x20 ADD PUSH1 0x0 KECCAK256 PUSH1 0x2 ADD DUP1 SLOAD DUP1 PUSH1 0x20 MUL PUSH1 0x20 ADD PUSH1 0x40 MLOAD SWAP1 DUP2 ADD PUSH1 0x40 MSTORE DUP1 SWAP3 SWAP2 SWAP1 DUP2 DUP2 MSTORE PUSH1 0x20 ADD PUSH1 0x0 SWAP1 JUMPDEST DUP3 DUP3 LT ISZERO PUSH2 0x7B6 JUMPI PUSH1 0x0 DUP5 DUP2 MSTORE PUSH1 0x20 SWAP1 DUP2 SWAP1 KECCAK256 PUSH1 0x40 DUP1 MLOAD PUSH1 0x80 DUP2 ADD DUP3 MSTORE PUSH1 0x2 DUP7 MUL SWAP1 SWAP3 ADD DUP1 SLOAD DUP4 MSTORE PUSH1 0x1 DUP2 ADD SLOAD PUSH2 0xFFFF DUP2 AND SWAP5 DUP5 ADD SWAP5 SWAP1 SWAP5 MSTORE SWAP2 SWAP3 SWAP1 DUP4 ADD SWAP1 PUSH3 0x10000 SWAP1 DIV PUSH1 0xFF AND PUSH1 0x3 DUP2 GT ISZERO PUSH2 0x759 JUMPI PUSH2 0x759 PUSH2 0x2FD2 JUMP JUMPDEST PUSH1 0x3 DUP2 GT ISZERO PUSH2 0x76A JUMPI PUSH2 0x76A PUSH2 0x2FD2 JUMP JUMPDEST DUP2 MSTORE PUSH1 0x20 ADD PUSH1 0x1 DUP3 ADD PUSH1 0x3 SWAP1 SLOAD SWAP1 PUSH2 0x100 EXP SWAP1 DIV PUSH1 0xFF AND PUSH1 0x2 DUP2 GT ISZERO PUSH2 0x792 JUMPI PUSH2 0x792 PUSH2 0x2FD2 JUMP JUMPDEST PUSH1 0x2 DUP2 GT ISZERO PUSH2 0x7A3 JUMPI PUSH2 0x7A3 PUSH2 0x2FD2 JUMP JUMPDEST DUP2 MSTORE POP POP DUP2 MSTORE PUSH1 0x20 ADD SWAP1 PUSH1 0x1 ADD SWAP1 PUSH2 0x700 JUMP JUMPDEST POP POP POP POP SWAP1 POP PUSH1 0x0 JUMPDEST PUSH1 0x9 PUSH1 0x0 DUP6 DUP6 DUP2 MLOAD DUP2 LT PUSH2 0x7D5 JUMPI PUSH2 0x7D5 PUSH2 0x3142 JUMP JUMPDEST PUSH1 0x20 MUL PUSH1 0x20 ADD ADD MLOAD PUSH1 0x1 PUSH1 0x1 PUSH1 0xA0 SHL SUB AND PUSH1 0x1 PUSH1 0x1 PUSH1 0xA0 SHL SUB AND DUP2 MSTORE PUSH1 0x20 ADD SWAP1 DUP2 MSTORE PUSH1 0x20 ADD PUSH1 0x0 KECCAK256 PUSH1 0x2 ADD DUP1 SLOAD SWAP1 POP DUP2 LT ISZERO PUSH2 0x8D2 JUMPI DUP5 PUSH1 0x0 ADD CALLDATALOAD DUP3 DUP3 DUP2 MLOAD DUP2 LT PUSH2 0x822 JUMPI PUSH2 0x822 PUSH2 0x3142 JUMP JUMPDEST PUSH1 0x20 MUL PUSH1 0x20 ADD ADD MLOAD PUSH1 0x0 ADD MLOAD EQ ISZERO PUSH2 0x8C0 JUMPI PUSH1 0x1 PUSH1 0x9 PUSH1 0x0 DUP7 DUP7 DUP2 MLOAD DUP2 LT PUSH2 0x84C JUMPI PUSH2 0x84C PUSH2 0x3142 JUMP JUMPDEST PUSH1 0x20 MUL PUSH1 0x20 ADD ADD MLOAD PUSH1 0x1 PUSH1 0x1 PUSH1 0xA0 SHL SUB AND PUSH1 0x1 PUSH1 0x1 PUSH1 0xA0 SHL SUB AND DUP2 MSTORE PUSH1 0x20 ADD SWAP1 DUP2 MSTORE PUSH1 0x20 ADD PUSH1 0x0 KECCAK256 PUSH1 0x2 ADD DUP3 DUP2 SLOAD DUP2 LT PUSH2 0x888 JUMPI PUSH2 0x888 PUSH2 0x3142 JUMP JUMPDEST SWAP1 PUSH1 0x0 MSTORE PUSH1 0x20 PUSH1 0x0 KECCAK256 SWAP1 PUSH1 0x2 MUL ADD PUSH1 0x1 ADD PUSH1 0x3 PUSH2 0x100 EXP DUP2 SLOAD DUP2 PUSH1 0xFF MUL NOT AND SWAP1 DUP4 PUSH1 0x2 DUP2 GT ISZERO PUSH2 0x8BA JUMPI PUSH2 0x8BA PUSH2 0x2FD2 JUMP JUMPDEST MUL OR SWAP1 SSTORE POP JUMPDEST DUP1 PUSH2 0x8CA DUP2 PUSH2 0x316E JUMP JUMPDEST SWAP2 POP POP PUSH2 0x7BF JUMP JUMPDEST POP PUSH2 0x8FA DUP5 PUSH1 0x0 ADD CALLDATALOAD DUP5 DUP5 DUP2 MLOAD DUP2 LT PUSH2 0x8ED JUMPI PUSH2 0x8ED PUSH2 0x3142 JUMP JUMPDEST PUSH1 0x20 MUL PUSH1 0x20 ADD ADD MLOAD PUSH2 0x25AB JUMP JUMPDEST POP DUP1 PUSH2 0x905 DUP2 PUSH2 0x316E JUMP JUMPDEST SWAP2 POP POP PUSH2 0x5D9 JUMP JUMPDEST POP PUSH1 0x0 PUSH1 0xB DUP2 PUSH2 0x923 PUSH1 0xE0 DUP7 ADD PUSH1 0xC0 DUP8 ADD PUSH2 0x31E9 JUMP JUMPDEST PUSH1 0x3 DUP2 GT ISZERO PUSH2 0x934 JUMPI PUSH2 0x934 PUSH2 0x2FD2 JUMP JUMPDEST DUP2 MSTORE PUSH1 0x20 ADD SWAP1 DUP2 MSTORE PUSH1 0x20 ADD PUSH1 0x0 KECCAK256 PUSH1 0x0 DUP5 PUSH1 0xE0 ADD PUSH1 0x20 DUP2 ADD SWAP1 PUSH2 0x957 SWAP2 SWAP1 PUSH2 0x31CE JUMP JUMPDEST PUSH2 0xFFFF AND PUSH2 0xFFFF AND DUP2 MSTORE PUSH1 0x20 ADD SWAP1 DUP2 MSTORE PUSH1 0x20 ADD PUSH1 0x0 KECCAK256 DUP1 SLOAD DUP1 PUSH1 0x20 MUL PUSH1 0x20 ADD PUSH1 0x40 MLOAD SWAP1 DUP2 ADD PUSH1 0x40 MSTORE DUP1 SWAP3 SWAP2 SWAP1 DUP2 DUP2 MSTORE PUSH1 0x20 ADD PUSH1 0x0 SWAP1 JUMPDEST DUP3 DUP3 LT ISZERO PUSH2 0xAF7 JUMPI PUSH1 0x0 DUP5 DUP2 MSTORE PUSH1 0x20 SWAP1 DUP2 SWAP1 KECCAK256 PUSH1 0x40 DUP1 MLOAD PUSH2 0x120 DUP2 ADD DUP3 MSTORE PUSH1 0x5 DUP7 MUL SWAP1 SWAP3 ADD DUP1 SLOAD DUP4 MSTORE PUSH1 0x1 DUP2 ADD SLOAD SWAP4 DUP4 ADD SWAP4 SWAP1 SWAP4 MSTORE PUSH1 0x2 DUP4 ADD SLOAD PUSH1 0x1 PUSH1 0x1 PUSH1 0xA0 SHL SUB SWAP1 DUP2 AND SWAP2 DUP4 ADD SWAP2 SWAP1 SWAP2 MSTORE PUSH1 0x3 DUP1 DUP5 ADD SLOAD SWAP2 DUP3 AND PUSH1 0x60 DUP5 ADD MSTORE PUSH1 0xFF PUSH1 0x1 PUSH1 0xA0 SHL DUP4 DIV DUP2 AND ISZERO ISZERO PUSH1 0x80 DUP6 ADD MSTORE PUSH1 0x1 PUSH1 0xA8 SHL DUP4 DIV DUP2 AND ISZERO ISZERO PUSH1 0xA0 DUP6 ADD MSTORE SWAP3 SWAP4 SWAP3 PUSH1 0xC0 DUP6 ADD SWAP3 PUSH1 0x1 PUSH1 0xB0 SHL SWAP1 DIV AND SWAP1 DUP2 GT ISZERO PUSH2 0xA29 JUMPI PUSH2 0xA29 PUSH2 0x2FD2 JUMP JUMPDEST PUSH1 0x3 DUP2 GT ISZERO PUSH2 0xA3A JUMPI PUSH2 0xA3A PUSH2 0x2FD2 JUMP JUMPDEST DUP2 MSTORE PUSH1 0x3 DUP3 ADD SLOAD PUSH1 0x1 PUSH1 0xB8 SHL SWAP1 DIV PUSH2 0xFFFF AND PUSH1 0x20 DUP3 ADD MSTORE PUSH1 0x4 DUP3 ADD DUP1 SLOAD PUSH1 0x40 SWAP1 SWAP3 ADD SWAP2 PUSH2 0xA66 SWAP1 PUSH2 0x321A JUMP JUMPDEST DUP1 PUSH1 0x1F ADD PUSH1 0x20 DUP1 SWAP2 DIV MUL PUSH1 0x20 ADD PUSH1 0x40 MLOAD SWAP1 DUP2 ADD PUSH1 0x40 MSTORE DUP1 SWAP3 SWAP2 SWAP1 DUP2 DUP2 MSTORE PUSH1 0x20 ADD DUP3 DUP1 SLOAD PUSH2 0xA92 SWAP1 PUSH2 0x321A JUMP JUMPDEST DUP1 ISZERO PUSH2 0xADF JUMPI DUP1 PUSH1 0x1F LT PUSH2 0xAB4 JUMPI PUSH2 0x100 DUP1 DUP4 SLOAD DIV MUL DUP4 MSTORE SWAP2 PUSH1 0x20 ADD SWAP2 PUSH2 0xADF JUMP JUMPDEST DUP3 ADD SWAP2 SWAP1 PUSH1 0x0 MSTORE PUSH1 0x20 PUSH1 0x0 KECCAK256 SWAP1 JUMPDEST DUP2 SLOAD DUP2 MSTORE SWAP1 PUSH1 0x1 ADD SWAP1 PUSH1 0x20 ADD DUP1 DUP4 GT PUSH2 0xAC2 JUMPI DUP3 SWAP1 SUB PUSH1 0x1F AND DUP3 ADD SWAP2 JUMPDEST POP POP POP POP POP DUP2 MSTORE POP POP DUP2 MSTORE PUSH1 0x20 ADD SWAP1 PUSH1 0x1 ADD SWAP1 PUSH2 0x98D JUMP JUMPDEST POP POP POP POP SWAP1 POP PUSH1 0x0 JUMPDEST DUP2 MLOAD DUP2 LT ISZERO PUSH2 0xBDE JUMPI DUP4 PUSH1 0x0 ADD CALLDATALOAD DUP3 DUP3 DUP2 MLOAD DUP2 LT PUSH2 0xB20 JUMPI PUSH2 0xB20 PUSH2 0x3142 JUMP JUMPDEST PUSH1 0x20 MUL PUSH1 0x20 ADD ADD MLOAD PUSH1 0x0 ADD MLOAD EQ ISZERO PUSH2 0xBCC JUMPI PUSH1 0x1 PUSH1 0xB PUSH1 0x0 PUSH2 0xB48 PUSH1 0xE0 DUP9 ADD PUSH1 0xC0 DUP10 ADD PUSH2 0x31E9 JUMP JUMPDEST PUSH1 0x3 DUP2 GT ISZERO PUSH2 0xB59 JUMPI PUSH2 0xB59 PUSH2 0x2FD2 JUMP JUMPDEST DUP2 MSTORE PUSH1 0x20 ADD SWAP1 DUP2 MSTORE PUSH1 0x20 ADD PUSH1 0x0 KECCAK256 PUSH1 0x0 DUP7 PUSH1 0xE0 ADD PUSH1 0x20 DUP2 ADD SWAP1 PUSH2 0xB7C SWAP2 SWAP1 PUSH2 0x31CE JUMP JUMPDEST PUSH2 0xFFFF AND PUSH2 0xFFFF AND DUP2 MSTORE PUSH1 0x20 ADD SWAP1 DUP2 MSTORE PUSH1 0x20 ADD PUSH1 0x0 KECCAK256 DUP3 DUP2 SLOAD DUP2 LT PUSH2 0xBA3 JUMPI PUSH2 0xBA3 PUSH2 0x3142 JUMP JUMPDEST SWAP1 PUSH1 0x0 MSTORE PUSH1 0x20 PUSH1 0x0 KECCAK256 SWAP1 PUSH1 0x5 MUL ADD PUSH1 0x3 ADD PUSH1 0x15 PUSH2 0x100 EXP DUP2 SLOAD DUP2 PUSH1 0xFF MUL NOT AND SWAP1 DUP4 ISZERO ISZERO MUL OR SWAP1 SSTORE POP JUMPDEST DUP1 PUSH2 0xBD6 DUP2 PUSH2 0x316E JUMP JUMPDEST SWAP2 POP POP PUSH2 0xB00 JUMP JUMPDEST POP POP POP POP JUMP JUMPDEST PUSH2 0xBEC PUSH2 0x23FD JUMP JUMPDEST PUSH1 0xF DUP1 SLOAD PUSH1 0xFF NOT DUP2 AND PUSH1 0xFF SWAP1 SWAP2 AND ISZERO OR SWAP1 SSTORE JUMP JUMPDEST PUSH2 0xC08 PUSH2 0x23FD JUMP JUMPDEST PUSH1 0x4 SSTORE JUMP JUMPDEST PUSH2 0xC15 PUSH2 0x24FE JUMP JUMPDEST PUSH1 0x1 PUSH1 0x1 PUSH1 0xA0 SHL SUB DUP6 AND PUSH2 0xC4F JUMPI PUSH1 0x40 MLOAD PUSH3 0x461BCD PUSH1 0xE5 SHL DUP2 MSTORE PUSH1 0x20 PUSH1 0x4 DUP3 ADD MSTORE PUSH1 0x1 PUSH1 0x24 DUP3 ADD MSTORE PUSH1 0x7 PUSH1 0xFB SHL PUSH1 0x44 DUP3 ADD MSTORE PUSH1 0x64 ADD PUSH2 0x370 JUMP JUMPDEST CALLVALUE PUSH1 0x2 SLOAD GT ISZERO PUSH2 0xC85 JUMPI PUSH1 0x40 MLOAD PUSH3 0x461BCD PUSH1 0xE5 SHL DUP2 MSTORE PUSH1 0x20 PUSH1 0x4 DUP3 ADD MSTORE PUSH1 0x1 PUSH1 0x24 DUP3 ADD MSTORE PUSH1 0x35 PUSH1 0xF8 SHL PUSH1 0x44 DUP3 ADD MSTORE PUSH1 0x64 ADD PUSH2 0x370 JUMP JUMPDEST PUSH2 0xC8E DUP6 PUSH2 0x243D JUMP JUMPDEST PUSH2 0xCBE JUMPI PUSH1 0x40 MLOAD PUSH3 0x461BCD PUSH1 0xE5 SHL DUP2 MSTORE PUSH1 0x20 PUSH1 0x4 DUP3 ADD MSTORE PUSH1 0x1 PUSH1 0x24 DUP3 ADD MSTORE PUSH1 0x39 PUSH1 0xF8 SHL PUSH1 0x44 DUP3 ADD MSTORE PUSH1 0x64 ADD PUSH2 0x370 JUMP JUMPDEST PUSH1 0x0 DUP7 GT PUSH2 0xCF3 JUMPI PUSH1 0x40 MLOAD PUSH3 0x461BCD PUSH1 0xE5 SHL DUP2 MSTORE PUSH1 0x20 PUSH1 0x4 DUP3 ADD MSTORE PUSH1 0x2 PUSH1 0x24 DUP3 ADD MSTORE PUSH2 0x313 PUSH1 0xF4 SHL PUSH1 0x44 DUP3 ADD MSTORE PUSH1 0x64 ADD PUSH2 0x370 JUMP JUMPDEST PUSH1 0x20 DUP4 GT ISZERO PUSH2 0xD44 JUMPI PUSH1 0x40 MLOAD PUSH3 0x461BCD PUSH1 0xE5 SHL DUP2 MSTORE PUSH1 0x20 PUSH1 0x4 DUP3 ADD MSTORE PUSH1 0x1A PUSH1 0x24 DUP3 ADD MSTORE PUSH32 0x537472696E67206D757374206265203C3D203332206279746573000000000000 PUSH1 0x44 DUP3 ADD MSTORE PUSH1 0x64 ADD PUSH2 0x370 JUMP JUMPDEST PUSH1 0x0 DUP3 PUSH1 0x3 DUP2 GT ISZERO PUSH2 0xD58 JUMPI PUSH2 0xD58 PUSH2 0x2FD2 JUMP JUMPDEST EQ ISZERO PUSH2 0xDC3 JUMPI DUP1 PUSH2 0xFFFF AND PUSH1 0x0 LT DUP1 ISZERO PUSH2 0xD77 JUMPI POP PUSH1 0x7 DUP2 PUSH2 0xFFFF AND GT ISZERO JUMPDEST PUSH2 0xDC3 JUMPI PUSH1 0x40 MLOAD PUSH3 0x461BCD PUSH1 0xE5 SHL DUP2 MSTORE PUSH1 0x20 PUSH1 0x4 DUP3 ADD MSTORE PUSH1 0x17 PUSH1 0x24 DUP3 ADD MSTORE PUSH32 0x4D757374206265206265747765656E203120616E642037000000000000000000 PUSH1 0x44 DUP3 ADD MSTORE PUSH1 0x64 ADD PUSH2 0x370 JUMP JUMPDEST PUSH1 0x1 DUP3 PUSH1 0x3 DUP2 GT ISZERO PUSH2 0xDD7 JUMPI PUSH2 0xDD7 PUSH2 0x2FD2 JUMP JUMPDEST EQ ISZERO PUSH2 0xE42 JUMPI DUP1 PUSH2 0xFFFF AND PUSH1 0x0 LT DUP1 ISZERO PUSH2 0xDF6 JUMPI POP PUSH1 0x1C DUP2 PUSH2 0xFFFF AND GT ISZERO JUMPDEST PUSH2 0xE42 JUMPI PUSH1 0x40 MLOAD PUSH3 0x461BCD PUSH1 0xE5 SHL DUP2 MSTORE PUSH1 0x20 PUSH1 0x4 DUP3 ADD MSTORE PUSH1 0x1B PUSH1 0x24 DUP3 ADD MSTORE PUSH32 0x4D757374757374206265206265747765656E203120616E642032380000000000 PUSH1 0x44 DUP3 ADD MSTORE PUSH1 0x64 ADD PUSH2 0x370 JUMP JUMPDEST PUSH1 0x2 DUP3 PUSH1 0x3 DUP2 GT ISZERO PUSH2 0xE56 JUMPI PUSH2 0xE56 PUSH2 0x2FD2 JUMP JUMPDEST EQ ISZERO PUSH2 0xEC1 JUMPI DUP1 PUSH2 0xFFFF AND PUSH1 0x0 LT DUP1 ISZERO PUSH2 0xE75 JUMPI POP PUSH1 0x5A DUP2 PUSH2 0xFFFF AND GT ISZERO JUMPDEST PUSH2 0xEC1 JUMPI PUSH1 0x40 MLOAD PUSH3 0x461BCD PUSH1 0xE5 SHL DUP2 MSTORE PUSH1 0x20 PUSH1 0x4 DUP3 ADD MSTORE PUSH1 0x18 PUSH1 0x24 DUP3 ADD MSTORE PUSH32 0x4D757374206265206265747765656E203120616E642039300000000000000000 PUSH1 0x44 DUP3 ADD MSTORE PUSH1 0x64 ADD PUSH2 0x370 JUMP JUMPDEST PUSH1 0x3 DUP3 PUSH1 0x3 DUP2 GT ISZERO PUSH2 0xED5 JUMPI PUSH2 0xED5 PUSH2 0x2FD2 JUMP JUMPDEST EQ ISZERO PUSH2 0xF41 JUMPI DUP1 PUSH2 0xFFFF AND PUSH1 0x0 LT DUP1 ISZERO PUSH2 0xEF5 JUMPI POP PUSH2 0x16D DUP2 PUSH2 0xFFFF AND GT ISZERO JUMPDEST PUSH2 0xF41 JUMPI PUSH1 0x40 MLOAD PUSH3 0x461BCD PUSH1 0xE5 SHL DUP2 MSTORE PUSH1 0x20 PUSH1 0x4 DUP3 ADD MSTORE PUSH1 0x19 PUSH1 0x24 DUP3 ADD MSTORE PUSH32 0x4D757374206265206265747765656E203120616E642033363500000000000000 PUSH1 0x44 DUP3 ADD MSTORE PUSH1 0x64 ADD PUSH2 0x370 JUMP JUMPDEST PUSH1 0x0 PUSH2 0xF88 DUP8 DUP8 DUP8 DUP8 DUP1 DUP1 PUSH1 0x1F ADD PUSH1 0x20 DUP1 SWAP2 DIV MUL PUSH1 0x20 ADD PUSH1 0x40 MLOAD SWAP1 DUP2 ADD PUSH1 0x40 MSTORE DUP1 SWAP4 SWAP3 SWAP2 SWAP1 DUP2 DUP2 MSTORE PUSH1 0x20 ADD DUP4 DUP4 DUP1 DUP3 DUP5 CALLDATACOPY PUSH1 0x0 SWAP3 ADD SWAP2 SWAP1 SWAP2 MSTORE POP DUP10 SWAP3 POP DUP9 SWAP2 POP PUSH2 0x26F8 SWAP1 POP JUMP JUMPDEST SWAP1 POP DUP1 PUSH1 0xB PUSH1 0x0 DUP6 PUSH1 0x3 DUP2 GT ISZERO PUSH2 0xFA1 JUMPI PUSH2 0xFA1 PUSH2 0x2FD2 JUMP JUMPDEST DUP2 MSTORE PUSH1 0x20 DUP1 DUP3 ADD SWAP3 SWAP1 SWAP3 MSTORE PUSH1 0x40 SWAP1 DUP2 ADD PUSH1 0x0 SWAP1 DUP2 KECCAK256 PUSH2 0xFFFF DUP8 AND DUP3 MSTORE DUP4 MSTORE DUP2 DUP2 KECCAK256 DUP1 SLOAD PUSH1 0x1 DUP2 DUP2 ADD DUP4 SSTORE SWAP2 DUP4 MSTORE SWAP2 DUP5 SWAP1 KECCAK256 DUP6 MLOAD PUSH1 0x5 SWAP1 SWAP4 MUL ADD SWAP2 DUP3 SSTORE SWAP3 DUP5 ADD MLOAD SWAP3 DUP2 ADD SWAP3 SWAP1 SWAP3 SSTORE DUP3 ADD MLOAD PUSH1 0x2 DUP3 ADD DUP1 SLOAD PUSH1 0x1 PUSH1 0x1 PUSH1 0xA0 SHL SUB SWAP3 DUP4 AND PUSH1 0x1 PUSH1 0x1 PUSH1 0xA0 SHL SUB NOT SWAP1 SWAP2 AND OR SWAP1 SSTORE PUSH1 0x60 DUP4 ADD MLOAD PUSH1 0x3 DUP1 DUP5 ADD DUP1 SLOAD PUSH1 0x80 DUP8 ADD MLOAD PUSH1 0xA0 DUP9 ADD MLOAD ISZERO ISZERO PUSH1 0x1 PUSH1 0xA8 SHL MUL PUSH1 0xFF PUSH1 0xA8 SHL NOT SWAP2 ISZERO ISZERO PUSH1 0x1 PUSH1 0xA0 SHL MUL PUSH1 0x1 PUSH1 0x1 PUSH1 0xA8 SHL SUB NOT SWAP1 SWAP4 AND SWAP6 SWAP1 SWAP7 AND SWAP5 SWAP1 SWAP5 OR OR SWAP3 DUP4 AND DUP5 OR DUP2 SSTORE PUSH1 0xC0 DUP7 ADD MLOAD SWAP4 SWAP1 SWAP3 PUSH1 0xFF PUSH1 0xB0 SHL NOT SWAP1 SWAP2 AND PUSH2 0xFFFF PUSH1 0xA8 SHL NOT SWAP1 SWAP2 AND OR SWAP1 PUSH1 0x1 PUSH1 0xB0 SHL SWAP1 DUP5 SWAP1 DUP2 GT ISZERO PUSH2 0x1088 JUMPI PUSH2 0x1088 PUSH2 0x2FD2 JUMP JUMPDEST MUL OR SWAP1 SSTORE POP PUSH1 0xE0 DUP3 ADD MLOAD PUSH1 0x3 DUP3 ADD DUP1 SLOAD PUSH2 0xFFFF SWAP1 SWAP3 AND PUSH1 0x1 PUSH1 0xB8 SHL MUL PUSH2 0xFFFF PUSH1 0xB8 SHL NOT SWAP1 SWAP3 AND SWAP2 SWAP1 SWAP2 OR SWAP1 SSTORE PUSH2 0x100 DUP3 ADD MLOAD DUP1 MLOAD PUSH2 0x10D0 SWAP2 PUSH1 0x4 DUP5 ADD SWAP2 PUSH1 0x20 SWAP1 SWAP2 ADD SWAP1 PUSH2 0x2D61 JUMP JUMPDEST POP SWAP1 POP POP PUSH2 0x1120 PUSH1 0x40 MLOAD DUP1 PUSH1 0x80 ADD PUSH1 0x40 MSTORE DUP1 DUP4 PUSH1 0x0 ADD MLOAD DUP2 MSTORE PUSH1 0x20 ADD DUP4 PUSH1 0xE0 ADD MLOAD PUSH2 0xFFFF AND DUP2 MSTORE PUSH1 0x20 ADD DUP4 PUSH1 0xC0 ADD MLOAD PUSH1 0x3 DUP2 GT ISZERO PUSH2 0x1110 JUMPI PUSH2 0x1110 PUSH2 0x2FD2 JUMP JUMPDEST DUP2 MSTORE PUSH1 0x20 ADD PUSH1 0x0 SWAP1 MSTORE PUSH1 0x1 PUSH2 0x279F JUMP JUMPDEST POP POP POP POP POP POP POP JUMP JUMPDEST PUSH2 0x1131 PUSH2 0x23FD JUMP JUMPDEST PUSH1 0x3 SSTORE JUMP JUMPDEST PUSH1 0x60 DUP1 DUP3 ISZERO PUSH2 0x122D JUMPI CALLER PUSH1 0x0 SWAP1 DUP2 MSTORE PUSH1 0x9 PUSH1 0x20 SWAP1 DUP2 MSTORE PUSH1 0x40 DUP1 DUP4 KECCAK256 PUSH1 0x2 ADD DUP1 SLOAD DUP3 MLOAD DUP2 DUP6 MUL DUP2 ADD DUP6 ADD SWAP1 SWAP4 MSTORE DUP1 DUP4 MSTORE SWAP2 SWAP4 SWAP1 SWAP3 DUP5 ADD JUMPDEST DUP3 DUP3 LT ISZERO PUSH2 0x1222 JUMPI PUSH1 0x0 DUP5 DUP2 MSTORE PUSH1 0x20 SWAP1 DUP2 SWAP1 KECCAK256 PUSH1 0x40 DUP1 MLOAD PUSH1 0x80 DUP2 ADD DUP3 MSTORE PUSH1 0x2 DUP7 MUL SWAP1 SWAP3 ADD DUP1 SLOAD DUP4 MSTORE PUSH1 0x1 DUP2 ADD SLOAD PUSH2 0xFFFF DUP2 AND SWAP5 DUP5 ADD SWAP5 SWAP1 SWAP5 MSTORE SWAP2 SWAP3 SWAP1 DUP4 ADD SWAP1 PUSH3 0x10000 SWAP1 DIV PUSH1 0xFF AND PUSH1 0x3 DUP2 GT ISZERO PUSH2 0x11C5 JUMPI PUSH2 0x11C5 PUSH2 0x2FD2 JUMP JUMPDEST PUSH1 0x3 DUP2 GT ISZERO PUSH2 0x11D6 JUMPI PUSH2 0x11D6 PUSH2 0x2FD2 JUMP JUMPDEST DUP2 MSTORE PUSH1 0x20 ADD PUSH1 0x1 DUP3 ADD PUSH1 0x3 SWAP1 SLOAD SWAP1 PUSH2 0x100 EXP SWAP1 DIV PUSH1 0xFF AND PUSH1 0x2 DUP2 GT ISZERO PUSH2 0x11FE JUMPI PUSH2 0x11FE PUSH2 0x2FD2 JUMP JUMPDEST PUSH1 0x2 DUP2 GT ISZERO PUSH2 0x120F JUMPI PUSH2 0x120F PUSH2 0x2FD2 JUMP JUMPDEST DUP2 MSTORE POP POP DUP2 MSTORE PUSH1 0x20 ADD SWAP1 PUSH1 0x1 ADD SWAP1 PUSH2 0x116C JUMP JUMPDEST POP POP POP POP SWAP1 POP PUSH2 0x1317 JUMP JUMPDEST CALLER PUSH1 0x0 SWAP1 DUP2 MSTORE PUSH1 0x9 PUSH1 0x20 SWAP1 DUP2 MSTORE PUSH1 0x40 DUP1 DUP4 KECCAK256 PUSH1 0x3 ADD DUP1 SLOAD DUP3 MLOAD DUP2 DUP6 MUL DUP2 ADD DUP6 ADD SWAP1 SWAP4 MSTORE DUP1 DUP4 MSTORE SWAP2 SWAP4 SWAP1 SWAP3 DUP5 ADD JUMPDEST DUP3 DUP3 LT ISZERO PUSH2 0x1310 JUMPI PUSH1 0x0 DUP5 DUP2 MSTORE PUSH1 0x20 SWAP1 DUP2 SWAP1 KECCAK256 PUSH1 0x40 DUP1 MLOAD PUSH1 0x80 DUP2 ADD DUP3 MSTORE PUSH1 0x2 DUP7 MUL SWAP1 SWAP3 ADD DUP1 SLOAD DUP4 MSTORE PUSH1 0x1 DUP2 ADD SLOAD PUSH2 0xFFFF DUP2 AND SWAP5 DUP5 ADD SWAP5 SWAP1 SWAP5 MSTORE SWAP2 SWAP3 SWAP1 DUP4 ADD SWAP1 PUSH3 0x10000 SWAP1 DIV PUSH1 0xFF AND PUSH1 0x3 DUP2 GT ISZERO PUSH2 0x12B3 JUMPI PUSH2 0x12B3 PUSH2 0x2FD2 JUMP JUMPDEST PUSH1 0x3 DUP2 GT ISZERO PUSH2 0x12C4 JUMPI PUSH2 0x12C4 PUSH2 0x2FD2 JUMP JUMPDEST DUP2 MSTORE PUSH1 0x20 ADD PUSH1 0x1 DUP3 ADD PUSH1 0x3 SWAP1 SLOAD SWAP1 PUSH2 0x100 EXP SWAP1 DIV PUSH1 0xFF AND PUSH1 0x2 DUP2 GT ISZERO PUSH2 0x12EC JUMPI PUSH2 0x12EC PUSH2 0x2FD2 JUMP JUMPDEST PUSH1 0x2 DUP2 GT ISZERO PUSH2 0x12FD JUMPI PUSH2 0x12FD PUSH2 0x2FD2 JUMP JUMPDEST DUP2 MSTORE POP POP DUP2 MSTORE PUSH1 0x20 ADD SWAP1 PUSH1 0x1 ADD SWAP1 PUSH2 0x125A JUMP JUMPDEST POP POP POP POP SWAP1 POP JUMPDEST PUSH1 0x0 DUP2 MLOAD PUSH8 0xFFFFFFFFFFFFFFFF DUP2 GT ISZERO PUSH2 0x1333 JUMPI PUSH2 0x1333 PUSH2 0x3204 JUMP JUMPDEST PUSH1 0x40 MLOAD SWAP1 DUP1 DUP3 MSTORE DUP1 PUSH1 0x20 MUL PUSH1 0x20 ADD DUP3 ADD PUSH1 0x40 MSTORE DUP1 ISZERO PUSH2 0x136C JUMPI DUP2 PUSH1 0x20 ADD JUMPDEST PUSH2 0x1359 PUSH2 0x2DE5 JUMP JUMPDEST DUP2 MSTORE PUSH1 0x20 ADD SWAP1 PUSH1 0x1 SWAP1 SUB SWAP1 DUP2 PUSH2 0x1351 JUMPI SWAP1 POP JUMPDEST POP SWAP1 POP PUSH1 0x0 JUMPDEST DUP3 MLOAD DUP2 LT ISZERO PUSH2 0x13CD JUMPI PUSH2 0x139D DUP4 DUP3 DUP2 MLOAD DUP2 LT PUSH2 0x1390 JUMPI PUSH2 0x1390 PUSH2 0x3142 JUMP JUMPDEST PUSH1 0x20 MUL PUSH1 0x20 ADD ADD MLOAD PUSH2 0x2952 JUMP JUMPDEST DUP3 DUP3 DUP2 MLOAD DUP2 LT PUSH2 0x13AF JUMPI PUSH2 0x13AF PUSH2 0x3142 JUMP JUMPDEST PUSH1 0x20 MUL PUSH1 0x20 ADD ADD DUP2 SWAP1 MSTORE POP DUP1 DUP1 PUSH2 0x13C5 SWAP1 PUSH2 0x316E JUMP JUMPDEST SWAP2 POP POP PUSH2 0x1372 JUMP JUMPDEST POP SWAP4 SWAP3 POP POP POP JUMP JUMPDEST PUSH2 0x13DD PUSH2 0x23FD JUMP JUMPDEST PUSH1 0x1 SSTORE JUMP JUMPDEST PUSH2 0x13EA PUSH2 0x23FD JUMP JUMPDEST PUSH1 0x2 SSTORE JUMP JUMPDEST PUSH2 0x13F7 PUSH2 0x23FD JUMP JUMPDEST CALLER PUSH1 0x1 PUSH1 0x1 PUSH1 0xA0 SHL SUB DUP3 AND EQ DUP1 ISZERO PUSH2 0x1417 JUMPI POP PUSH1 0x1 PUSH1 0x1 PUSH1 0xA0 SHL SUB DUP2 AND ISZERO ISZERO JUMPDEST PUSH2 0x1420 JUMPI PUSH1 0x0 DUP1 REVERT JUMPDEST PUSH1 0x0 DUP1 SLOAD PUSH1 0x1 PUSH1 0x1 PUSH1 0xA0 SHL SUB NOT AND PUSH1 0x1 PUSH1 0x1 PUSH1 0xA0 SHL SUB SWAP3 SWAP1 SWAP3 AND SWAP2 SWAP1 SWAP2 OR SWAP1 SSTORE JUMP JUMPDEST PUSH1 0x0 DUP1 DUP1 DUP1 PUSH2 0x1454 PUSH3 0x15180 DUP7 PUSH2 0x326B JUMP JUMPDEST SWAP1 POP DUP1 PUSH1 0x0 PUSH2 0x1466 DUP3 PUSH3 0x10BD9 PUSH2 0x327F JUMP JUMPDEST PUSH2 0x1473 SWAP1 PUSH3 0x253D8C PUSH2 0x327F JUMP JUMPDEST SWAP1 POP PUSH1 0x0 PUSH3 0x23AB1 PUSH2 0x1486 DUP4 PUSH1 0x4 PUSH2 0x32C0 JUMP JUMPDEST PUSH2 0x1490 SWAP2 SWAP1 PUSH2 0x3345 JUMP JUMPDEST SWAP1 POP PUSH1 0x4 PUSH2 0x14A1 DUP3 PUSH3 0x23AB1 PUSH2 0x32C0 JUMP JUMPDEST PUSH2 0x14AC SWAP1 PUSH1 0x3 PUSH2 0x327F JUMP JUMPDEST PUSH2 0x14B6 SWAP2 SWAP1 PUSH2 0x3345 JUMP JUMPDEST PUSH2 0x14C0 SWAP1 DUP4 PUSH2 0x3373 JUMP JUMPDEST SWAP2 POP PUSH1 0x0 PUSH3 0x164B09 PUSH2 0x14D3 DUP5 PUSH1 0x1 PUSH2 0x327F JUMP JUMPDEST PUSH2 0x14DF SWAP1 PUSH2 0xFA0 PUSH2 0x32C0 JUMP JUMPDEST PUSH2 0x14E9 SWAP2 SWAP1 PUSH2 0x3345 JUMP JUMPDEST SWAP1 POP PUSH1 0x4 PUSH2 0x14F9 DUP3 PUSH2 0x5B5 PUSH2 0x32C0 JUMP JUMPDEST PUSH2 0x1503 SWAP2 SWAP1 PUSH2 0x3345 JUMP JUMPDEST PUSH2 0x150D SWAP1 DUP5 PUSH2 0x3373 JUMP JUMPDEST PUSH2 0x1518 SWAP1 PUSH1 0x1F PUSH2 0x327F JUMP JUMPDEST SWAP3 POP PUSH1 0x0 PUSH2 0x98F PUSH2 0x152A DUP6 PUSH1 0x50 PUSH2 0x32C0 JUMP JUMPDEST PUSH2 0x1534 SWAP2 SWAP1 PUSH2 0x3345 JUMP JUMPDEST SWAP1 POP PUSH1 0x0 PUSH1 0x50 PUSH2 0x1546 DUP4 PUSH2 0x98F PUSH2 0x32C0 JUMP JUMPDEST PUSH2 0x1550 SWAP2 SWAP1 PUSH2 0x3345 JUMP JUMPDEST PUSH2 0x155A SWAP1 DUP7 PUSH2 0x3373 JUMP JUMPDEST SWAP1 POP PUSH2 0x1567 PUSH1 0xB DUP4 PUSH2 0x3345 JUMP JUMPDEST SWAP5 POP PUSH2 0x1574 DUP6 PUSH1 0xC PUSH2 0x32C0 JUMP JUMPDEST PUSH2 0x157F DUP4 PUSH1 0x2 PUSH2 0x327F JUMP JUMPDEST PUSH2 0x1589 SWAP2 SWAP1 PUSH2 0x3373 JUMP JUMPDEST SWAP2 POP DUP5 DUP4 PUSH2 0x1598 PUSH1 0x31 DUP8 PUSH2 0x3373 JUMP JUMPDEST PUSH2 0x15A3 SWAP1 PUSH1 0x64 PUSH2 0x32C0 JUMP JUMPDEST PUSH2 0x15AD SWAP2 SWAP1 PUSH2 0x327F JUMP JUMPDEST PUSH2 0x15B7 SWAP2 SWAP1 PUSH2 0x327F JUMP JUMPDEST SWAP1 SWAP8 POP SWAP2 POP DUP7 DUP3 DUP3 DUP3 PUSH1 0x0 PUSH1 0x1 JUMPDEST DUP4 DUP2 GT PUSH2 0x1612 JUMPI DUP4 DUP2 EQ ISZERO PUSH2 0x15E9 JUMPI PUSH2 0x15E2 PUSH2 0xFFFF DUP15 AND DUP4 PUSH2 0x31A0 JUMP JUMPDEST SWAP2 POP PUSH2 0x1600 JUMP JUMPDEST PUSH2 0x15F3 DUP6 DUP6 PUSH2 0x2B95 JUMP JUMPDEST PUSH2 0x15FD SWAP1 DUP4 PUSH2 0x31A0 JUMP JUMPDEST SWAP2 POP JUMPDEST DUP1 PUSH2 0x160A DUP2 PUSH2 0x316E JUMP JUMPDEST SWAP2 POP POP PUSH2 0x15C5 JUMP JUMPDEST POP DUP1 SWAP14 POP PUSH1 0x0 PUSH2 0x1626 DUP16 PUSH2 0xFFFF AND DUP7 PUSH2 0x2C1D JUMP JUMPDEST SWAP1 POP DUP1 SWAP14 POP POP POP POP POP POP POP POP POP POP POP POP POP SWAP2 SWAP4 SWAP1 SWAP3 POP JUMP JUMPDEST PUSH2 0x1646 PUSH2 0x24FE JUMP JUMPDEST PUSH1 0x20 DUP2 ADD CALLDATALOAD PUSH2 0x165B PUSH1 0x80 DUP4 ADD PUSH1 0x60 DUP5 ADD PUSH2 0x2E62 JUMP JUMPDEST PUSH1 0x40 MLOAD PUSH4 0x6EB1769F PUSH1 0xE1 SHL DUP2 MSTORE CALLER PUSH1 0x4 DUP3 ADD MSTORE ADDRESS PUSH1 0x24 DUP3 ADD MSTORE PUSH1 0x1 PUSH1 0x1 PUSH1 0xA0 SHL SUB SWAP2 SWAP1 SWAP2 AND SWAP1 PUSH4 0xDD62ED3E SWAP1 PUSH1 0x44 ADD PUSH1 0x20 PUSH1 0x40 MLOAD DUP1 DUP4 SUB DUP2 PUSH1 0x0 DUP8 DUP1 EXTCODESIZE ISZERO DUP1 ISZERO PUSH2 0x16A4 JUMPI PUSH1 0x0 DUP1 REVERT JUMPDEST POP GAS CALL ISZERO DUP1 ISZERO PUSH2 0x16B8 JUMPI RETURNDATASIZE PUSH1 0x0 DUP1 RETURNDATACOPY RETURNDATASIZE PUSH1 0x0 REVERT JUMPDEST POP POP POP POP PUSH1 0x40 MLOAD RETURNDATASIZE PUSH1 0x1F NOT PUSH1 0x1F DUP3 ADD AND DUP3 ADD DUP1 PUSH1 0x40 MSTORE POP DUP2 ADD SWAP1 PUSH2 0x16DC SWAP2 SWAP1 PUSH2 0x33B2 JUMP JUMPDEST LT ISZERO PUSH2 0x170F JUMPI PUSH1 0x40 MLOAD PUSH3 0x461BCD PUSH1 0xE5 SHL DUP2 MSTORE PUSH1 0x20 PUSH1 0x4 DUP3 ADD MSTORE PUSH1 0x2 PUSH1 0x24 DUP3 ADD MSTORE PUSH2 0x3133 PUSH1 0xF0 SHL PUSH1 0x44 DUP3 ADD MSTORE PUSH1 0x64 ADD PUSH2 0x370 JUMP JUMPDEST PUSH2 0x1725 DUP2 CALLDATALOAD PUSH2 0x526 PUSH2 0x100 DUP5 ADD PUSH1 0xE0 DUP6 ADD PUSH2 0x31CE JUMP JUMPDEST PUSH2 0x1755 JUMPI PUSH1 0x40 MLOAD PUSH3 0x461BCD PUSH1 0xE5 SHL DUP2 MSTORE PUSH1 0x20 PUSH1 0x4 DUP3 ADD MSTORE PUSH1 0x1 PUSH1 0x24 DUP3 ADD MSTORE PUSH1 0x37 PUSH1 0xF8 SHL PUSH1 0x44 DUP3 ADD MSTORE PUSH1 0x64 ADD PUSH2 0x370 JUMP JUMPDEST DUP1 CALLDATALOAD PUSH1 0x0 DUP2 DUP2 MSTORE PUSH1 0xC PUSH1 0x20 SWAP1 DUP2 MSTORE PUSH1 0x40 DUP1 DUP4 KECCAK256 DUP1 SLOAD PUSH1 0x1 DUP2 ADD DUP3 SSTORE SWAP1 DUP5 MSTORE SWAP3 DUP3 SWAP1 KECCAK256 SWAP1 SWAP3 ADD DUP1 SLOAD PUSH1 0x1 PUSH1 0x1 PUSH1 0xA0 SHL SUB NOT AND CALLER OR SWAP1 SSTORE DUP2 MLOAD PUSH1 0x80 DUP2 ADD SWAP1 SWAP3 MSTORE SWAP2 DUP2 MSTORE PUSH2 0x17E7 SWAP2 DUP2 ADD PUSH2 0x17AD PUSH2 0x100 DUP6 ADD PUSH1 0xE0 DUP7 ADD PUSH2 0x31CE JUMP JUMPDEST PUSH2 0xFFFF AND DUP2 MSTORE PUSH1 0x20 ADD PUSH2 0x17C6 PUSH1 0xE0 DUP6 ADD PUSH1 0xC0 DUP7 ADD PUSH2 0x31E9 JUMP JUMPDEST PUSH1 0x3 DUP2 GT ISZERO PUSH2 0x17D7 JUMPI PUSH2 0x17D7 PUSH2 0x2FD2 JUMP JUMPDEST DUP2 MSTORE PUSH1 0x20 ADD PUSH1 0x0 SWAP1 MSTORE PUSH1 0x0 PUSH2 0x279F JUMP JUMPDEST POP JUMP JUMPDEST PUSH2 0x17F2 PUSH2 0x23FD JUMP JUMPDEST PUSH1 0x1 PUSH1 0x1 PUSH1 0xA0 SHL SUB DUP2 AND PUSH2 0x1805 JUMPI PUSH1 0x0 DUP1 REVERT JUMPDEST PUSH2 0x180E DUP2 PUSH2 0x243D JUMP JUMPDEST ISZERO PUSH2 0x183F JUMPI PUSH1 0x40 MLOAD PUSH3 0x461BCD PUSH1 0xE5 SHL DUP2 MSTORE PUSH1 0x20 PUSH1 0x4 DUP3 ADD MSTORE PUSH1 0x1 PUSH1 0x24 DUP3 ADD MSTORE PUSH1 0x31 PUSH1 0xF8 SHL PUSH1 0x44 DUP3 ADD MSTORE PUSH1 0x64 ADD PUSH2 0x370 JUMP JUMPDEST PUSH1 0xE DUP1 SLOAD PUSH1 0x1 DUP2 ADD DUP3 SSTORE PUSH1 0x0 SWAP2 SWAP1 SWAP2 MSTORE PUSH32 0xBB7B4A454DC3493923482F07822329ED19E8244EFF582CC204F8554C3620C3FD ADD DUP1 SLOAD PUSH1 0x1 PUSH1 0x1 PUSH1 0xA0 SHL SUB NOT AND PUSH1 0x1 PUSH1 0x1 PUSH1 0xA0 SHL SUB SWAP3 SWAP1 SWAP3 AND SWAP2 SWAP1 SWAP2 OR SWAP1 SSTORE JUMP JUMPDEST PUSH1 0x0 PUSH2 0x189B PUSH2 0x23FD JUMP JUMPDEST PUSH1 0x3 SLOAD GASPRICE LT PUSH2 0x18E1 JUMPI PUSH1 0x40 MLOAD PUSH3 0x461BCD PUSH1 0xE5 SHL DUP2 MSTORE PUSH1 0x20 PUSH1 0x4 DUP3 ADD MSTORE PUSH1 0x12 PUSH1 0x24 DUP3 ADD MSTORE PUSH18 0x8EC2E640E0E4D2C6CA40E8DEDE40D0D2CED PUSH1 0x73 SHL PUSH1 0x44 DUP3 ADD MSTORE PUSH1 0x64 ADD PUSH2 0x370 JUMP JUMPDEST PUSH1 0x0 PUSH2 0x18EC TIMESTAMP PUSH2 0x2CE1 JUMP JUMPDEST PUSH1 0xF SLOAD SWAP1 SWAP2 POP PUSH5 0xFFFFFFFFFF PUSH2 0x100 SWAP1 SWAP2 DIV DUP2 AND SWAP1 DUP3 AND GT PUSH2 0x1935 JUMPI PUSH1 0x40 MLOAD PUSH3 0x461BCD PUSH1 0xE5 SHL DUP2 MSTORE PUSH1 0x20 PUSH1 0x4 DUP3 ADD MSTORE PUSH1 0x2 PUSH1 0x24 DUP3 ADD MSTORE PUSH2 0xC4D PUSH1 0xF2 SHL PUSH1 0x44 DUP3 ADD MSTORE PUSH1 0x64 ADD PUSH2 0x370 JUMP JUMPDEST PUSH1 0x0 DUP1 PUSH1 0x0 PUSH2 0x1943 TIMESTAMP PUSH2 0x1442 JUMP JUMPDEST SWAP3 POP SWAP3 POP SWAP3 POP PUSH1 0x0 PUSH2 0x1954 TIMESTAMP PUSH2 0x2CEF JUMP JUMPDEST SWAP1 POP PUSH1 0x0 DUP1 JUMPDEST PUSH1 0x3 DUP2 GT PUSH2 0x1FE1 JUMPI PUSH1 0x0 DUP2 PUSH2 0x196C JUMPI POP DUP3 JUMPDEST PUSH1 0x1 DUP3 EQ ISZERO PUSH2 0x1978 JUMPI POP DUP5 JUMPDEST PUSH1 0x2 DUP3 EQ ISZERO PUSH2 0x1984 JUMPI POP DUP4 JUMPDEST PUSH1 0x3 DUP3 EQ ISZERO PUSH2 0x1990 JUMPI POP DUP6 JUMPDEST PUSH1 0x0 JUMPDEST PUSH1 0x0 DUP4 DUP2 MSTORE PUSH1 0xB PUSH1 0x20 SWAP1 DUP2 MSTORE PUSH1 0x40 DUP1 DUP4 KECCAK256 PUSH2 0xFFFF DUP7 AND DUP5 MSTORE SWAP1 SWAP2 MSTORE SWAP1 KECCAK256 SLOAD DUP2 LT ISZERO PUSH2 0x1FCC JUMPI PUSH1 0x0 DUP4 DUP2 MSTORE PUSH1 0xB PUSH1 0x20 SWAP1 DUP2 MSTORE PUSH1 0x40 DUP1 DUP4 KECCAK256 PUSH2 0xFFFF DUP7 AND DUP5 MSTORE SWAP1 SWAP2 MSTORE SWAP1 KECCAK256 DUP1 SLOAD DUP3 SWAP1 DUP2 LT PUSH2 0x19E7 JUMPI PUSH2 0x19E7 PUSH2 0x3142 JUMP JUMPDEST SWAP1 PUSH1 0x0 MSTORE PUSH1 0x20 PUSH1 0x0 KECCAK256 SWAP1 PUSH1 0x5 MUL ADD PUSH1 0x3 ADD PUSH1 0x15 SWAP1 SLOAD SWAP1 PUSH2 0x100 EXP SWAP1 DIV PUSH1 0xFF AND PUSH2 0x1FBA JUMPI PUSH1 0x0 DUP4 DUP2 MSTORE PUSH1 0xB PUSH1 0x20 SWAP1 DUP2 MSTORE PUSH1 0x40 DUP1 DUP4 KECCAK256 PUSH2 0xFFFF DUP7 AND DUP5 MSTORE SWAP1 SWAP2 MSTORE DUP2 KECCAK256 DUP1 SLOAD DUP4 SWAP1 DUP2 LT PUSH2 0x1A39 JUMPI PUSH2 0x1A39 PUSH2 0x3142 JUMP JUMPDEST PUSH1 0x0 SWAP2 DUP3 MSTORE PUSH1 0x20 DUP1 DUP4 KECCAK256 PUSH1 0x5 SWAP1 SWAP3 MUL SWAP1 SWAP2 ADD SLOAD DUP7 DUP4 MSTORE PUSH1 0xB DUP3 MSTORE PUSH1 0x40 DUP1 DUP5 KECCAK256 PUSH2 0xFFFF DUP9 AND DUP6 MSTORE SWAP1 SWAP3 MSTORE SWAP1 DUP3 KECCAK256 DUP1 SLOAD SWAP2 SWAP4 POP SWAP1 DUP5 SWAP1 DUP2 LT PUSH2 0x1A7B JUMPI PUSH2 0x1A7B PUSH2 0x3142 JUMP JUMPDEST PUSH1 0x0 SWAP2 DUP3 MSTORE PUSH1 0x20 DUP1 DUP4 KECCAK256 PUSH1 0x3 PUSH1 0x5 SWAP1 SWAP4 MUL ADD SWAP2 SWAP1 SWAP2 ADD SLOAD DUP8 DUP4 MSTORE PUSH1 0xB DUP3 MSTORE PUSH1 0x40 DUP1 DUP5 KECCAK256 PUSH2 0xFFFF DUP10 AND DUP6 MSTORE SWAP1 SWAP3 MSTORE SWAP1 DUP3 KECCAK256 DUP1 SLOAD PUSH1 0x1 PUSH1 0x1 PUSH1 0xA0 SHL SUB SWAP1 SWAP3 AND SWAP4 POP SWAP1 DUP6 SWAP1 DUP2 LT PUSH2 0x1ACB JUMPI PUSH2 0x1ACB PUSH2 0x3142 JUMP JUMPDEST SWAP1 PUSH1 0x0 MSTORE PUSH1 0x20 PUSH1 0x0 KECCAK256 SWAP1 PUSH1 0x5 MUL ADD PUSH1 0x1 ADD SLOAD SWAP1 POP PUSH1 0x0 DUP2 PUSH2 0x2710 PUSH1 0x1 SLOAD DUP5 PUSH2 0x1AF3 SWAP2 SWAP1 PUSH2 0x33CB JUMP JUMPDEST PUSH2 0x1AFD SWAP2 SWAP1 PUSH2 0x326B JUMP JUMPDEST PUSH2 0x1B07 SWAP2 SWAP1 PUSH2 0x3189 JUMP JUMPDEST SWAP1 POP PUSH1 0x0 PUSH2 0x1B15 DUP3 DUP5 PUSH2 0x3189 JUMP JUMPDEST SWAP1 POP PUSH1 0x0 JUMPDEST PUSH1 0x0 DUP7 DUP2 MSTORE PUSH1 0xC PUSH1 0x20 MSTORE PUSH1 0x40 SWAP1 KECCAK256 SLOAD DUP2 LT ISZERO PUSH2 0x1FB3 JUMPI PUSH1 0x4 SLOAD DUP11 GT ISZERO PUSH2 0x1B7A JUMPI PUSH1 0x40 DUP1 MLOAD DUP1 DUP3 ADD SWAP1 SWAP2 MSTORE DUP7 DUP2 MSTORE PUSH1 0x20 ADD DUP2 SWAP1 MSTORE PUSH1 0x5 SWAP6 SWAP1 SWAP6 SSTORE POP POP POP PUSH1 0x6 SWAP2 SWAP1 SWAP2 SSTORE POP POP PUSH1 0x8 DUP1 SLOAD PUSH1 0xFF NOT AND SWAP1 SSTORE POP PUSH1 0x0 SWAP8 POP PUSH2 0x2021 SWAP7 POP POP POP POP POP POP POP JUMP JUMPDEST PUSH1 0x5 SLOAD DUP7 EQ DUP1 ISZERO PUSH2 0x1B8C JUMPI POP PUSH1 0x6 SLOAD DUP2 EQ JUMPDEST ISZERO PUSH2 0x1B9F JUMPI PUSH1 0x8 DUP1 SLOAD PUSH1 0xFF NOT AND PUSH1 0x1 OR SWAP1 SSTORE JUMPDEST PUSH1 0x5 SLOAD ISZERO DUP1 PUSH2 0x1BB5 JUMPI POP PUSH1 0x8 SLOAD PUSH1 0xFF AND ISZERO ISZERO PUSH1 0x1 EQ JUMPDEST ISZERO PUSH2 0x1FA1 JUMPI PUSH1 0x0 DUP7 DUP2 MSTORE PUSH1 0xC PUSH1 0x20 MSTORE PUSH1 0x40 DUP2 KECCAK256 DUP1 SLOAD DUP4 SWAP1 DUP2 LT PUSH2 0x1BDA JUMPI PUSH2 0x1BDA PUSH2 0x3142 JUMP JUMPDEST PUSH1 0x0 SWAP2 DUP3 MSTORE PUSH1 0x20 SWAP1 SWAP2 KECCAK256 ADD SLOAD PUSH1 0x40 MLOAD PUSH4 0x6EB1769F PUSH1 0xE1 SHL DUP2 MSTORE PUSH1 0x1 PUSH1 0x1 PUSH1 0xA0 SHL SUB SWAP2 DUP3 AND PUSH1 0x4 DUP3 ADD DUP2 SWAP1 MSTORE ADDRESS PUSH1 0x24 DUP4 ADD MSTORE SWAP3 POP DUP7 SWAP2 DUP9 AND SWAP1 PUSH4 0xDD62ED3E SWAP1 PUSH1 0x44 ADD PUSH1 0x20 PUSH1 0x40 MLOAD DUP1 DUP4 SUB DUP2 PUSH1 0x0 DUP8 DUP1 EXTCODESIZE ISZERO DUP1 ISZERO PUSH2 0x1C35 JUMPI PUSH1 0x0 DUP1 REVERT JUMPDEST POP GAS CALL ISZERO DUP1 ISZERO PUSH2 0x1C49 JUMPI RETURNDATASIZE PUSH1 0x0 DUP1 RETURNDATACOPY RETURNDATASIZE PUSH1 0x0 REVERT JUMPDEST POP POP POP POP PUSH1 0x40 MLOAD RETURNDATASIZE PUSH1 0x1F NOT PUSH1 0x1F DUP3 ADD AND DUP3 ADD DUP1 PUSH1 0x40 MSTORE POP DUP2 ADD SWAP1 PUSH2 0x1C6D SWAP2 SWAP1 PUSH2 0x33B2 JUMP JUMPDEST LT ISZERO DUP1 ISZERO PUSH2 0x1D31 JUMPI POP DUP5 DUP7 PUSH1 0x1 PUSH1 0x1 PUSH1 0xA0 SHL SUB AND PUSH4 0x70A08231 PUSH1 0xC PUSH1 0x0 DUP12 DUP2 MSTORE PUSH1 0x20 ADD SWAP1 DUP2 MSTORE PUSH1 0x20 ADD PUSH1 0x0 KECCAK256 DUP6 DUP2 SLOAD DUP2 LT PUSH2 0x1CAA JUMPI PUSH2 0x1CAA PUSH2 0x3142 JUMP JUMPDEST PUSH1 0x0 SWAP2 DUP3 MSTORE PUSH1 0x20 SWAP1 SWAP2 KECCAK256 ADD SLOAD PUSH1 0x40 MLOAD PUSH1 0xE0 DUP4 SWAP1 SHL PUSH1 0x1 PUSH1 0x1 PUSH1 0xE0 SHL SUB NOT AND DUP2 MSTORE PUSH1 0x1 PUSH1 0x1 PUSH1 0xA0 SHL SUB SWAP1 SWAP2 AND PUSH1 0x4 DUP3 ADD MSTORE PUSH1 0x24 ADD PUSH1 0x20 PUSH1 0x40 MLOAD DUP1 DUP4 SUB DUP2 PUSH1 0x0 DUP8 DUP1 EXTCODESIZE ISZERO DUP1 ISZERO PUSH2 0x1CF7 JUMPI PUSH1 0x0 DUP1 REVERT JUMPDEST POP GAS CALL ISZERO DUP1 ISZERO PUSH2 0x1D0B JUMPI RETURNDATASIZE PUSH1 0x0 DUP1 RETURNDATACOPY RETURNDATASIZE PUSH1 0x0 REVERT JUMPDEST POP POP POP POP PUSH1 0x40 MLOAD RETURNDATASIZE PUSH1 0x1F NOT PUSH1 0x1F DUP3 ADD AND DUP3 ADD DUP1 PUSH1 0x40 MSTORE POP DUP2 ADD SWAP1 PUSH2 0x1D2F SWAP2 SWAP1 PUSH2 0x33B2 JUMP JUMPDEST LT JUMPDEST ISZERO PUSH2 0x1DB6 JUMPI DUP11 PUSH2 0x1D40 DUP2 PUSH2 0x316E JUMP JUMPDEST PUSH1 0x40 DUP1 MLOAD PUSH1 0x60 DUP2 ADD DUP3 MSTORE DUP11 DUP2 MSTORE PUSH5 0xFFFFFFFFFF TIMESTAMP DUP2 AND PUSH1 0x20 DUP1 DUP5 ADD SWAP2 DUP3 MSTORE PUSH1 0x0 DUP5 DUP7 ADD DUP2 DUP2 MSTORE PUSH1 0x1 PUSH1 0x1 PUSH1 0xA0 SHL SUB DUP11 AND DUP3 MSTORE PUSH1 0xD SWAP1 SWAP3 MSTORE SWAP5 SWAP1 SWAP5 KECCAK256 SWAP3 MLOAD DUP4 SSTORE MLOAD PUSH1 0x1 SWAP3 SWAP1 SWAP3 ADD DUP1 SLOAD SWAP4 MLOAD ISZERO ISZERO PUSH6 0x10000000000 MUL PUSH6 0xFFFFFFFFFFFF NOT SWAP1 SWAP5 AND SWAP3 SWAP1 SWAP2 AND SWAP2 SWAP1 SWAP2 OR SWAP2 SWAP1 SWAP2 OR SWAP1 SSTORE SWAP12 POP PUSH2 0x1F9F SWAP1 POP JUMP JUMPDEST DUP11 PUSH2 0x1DC0 DUP2 PUSH2 0x316E JUMP JUMPDEST PUSH1 0x40 MLOAD PUSH4 0x23B872DD PUSH1 0xE0 SHL DUP2 MSTORE PUSH1 0x1 PUSH1 0x1 PUSH1 0xA0 SHL SUB DUP5 DUP2 AND PUSH1 0x4 DUP4 ADD MSTORE CALLER PUSH1 0x24 DUP4 ADD MSTORE PUSH1 0x44 DUP3 ADD DUP9 SWAP1 MSTORE SWAP2 SWAP14 POP SWAP1 DUP9 AND SWAP2 POP PUSH4 0x23B872DD SWAP1 PUSH1 0x64 ADD PUSH1 0x20 PUSH1 0x40 MLOAD DUP1 DUP4 SUB DUP2 PUSH1 0x0 DUP8 DUP1 EXTCODESIZE ISZERO DUP1 ISZERO PUSH2 0x1E15 JUMPI PUSH1 0x0 DUP1 REVERT JUMPDEST POP GAS CALL ISZERO DUP1 ISZERO PUSH2 0x1E29 JUMPI RETURNDATASIZE PUSH1 0x0 DUP1 RETURNDATACOPY RETURNDATASIZE PUSH1 0x0 REVERT JUMPDEST POP POP POP POP PUSH1 0x40 MLOAD RETURNDATASIZE PUSH1 0x1F NOT PUSH1 0x1F DUP3 ADD AND DUP3 ADD DUP1 PUSH1 0x40 MSTORE POP DUP2 ADD SWAP1 PUSH2 0x1E4D SWAP2 SWAP1 PUSH2 0x33EA JUMP JUMPDEST PUSH2 0x1E56 JUMPI PUSH1 0x0 DUP1 REVERT JUMPDEST PUSH1 0x40 DUP1 MLOAD PUSH1 0x60 DUP2 ADD DUP3 MSTORE DUP9 DUP2 MSTORE PUSH5 0xFFFFFFFFFF TIMESTAMP DUP2 AND PUSH1 0x20 DUP1 DUP5 ADD SWAP2 DUP3 MSTORE PUSH1 0x1 DUP5 DUP7 ADD DUP2 DUP2 MSTORE PUSH1 0x1 PUSH1 0x1 PUSH1 0xA0 SHL SUB DUP1 DUP10 AND PUSH1 0x0 SWAP1 DUP2 MSTORE PUSH1 0xD DUP6 MSTORE DUP9 DUP2 KECCAK256 SWAP8 MLOAD DUP9 SSTORE SWAP5 MLOAD SWAP7 SWAP1 SWAP3 ADD DUP1 SLOAD SWAP2 MLOAD ISZERO ISZERO PUSH6 0x10000000000 MUL PUSH6 0xFFFFFFFFFFFF NOT SWAP1 SWAP3 AND SWAP7 SWAP1 SWAP6 AND SWAP6 SWAP1 SWAP6 OR SWAP5 SWAP1 SWAP5 OR SWAP1 SWAP3 SSTORE DUP14 DUP2 MSTORE PUSH1 0xB DUP3 MSTORE DUP4 DUP2 KECCAK256 PUSH2 0xFFFF DUP15 AND DUP3 MSTORE SWAP1 SWAP2 MSTORE SWAP2 SWAP1 SWAP2 KECCAK256 DUP1 SLOAD SWAP2 DUP9 AND SWAP2 PUSH4 0x23B872DD SWAP2 DUP5 SWAP2 DUP13 SWAP1 DUP2 LT PUSH2 0x1EFB JUMPI PUSH2 0x1EFB PUSH2 0x3142 JUMP JUMPDEST PUSH1 0x0 SWAP2 DUP3 MSTORE PUSH1 0x20 SWAP1 SWAP2 KECCAK256 PUSH1 0x5 SWAP1 SWAP2 MUL ADD PUSH1 0x2 ADD SLOAD PUSH1 0x40 MLOAD PUSH1 0xE0 DUP5 SWAP1 SHL PUSH1 0x1 PUSH1 0x1 PUSH1 0xE0 SHL SUB NOT AND DUP2 MSTORE PUSH1 0x1 PUSH1 0x1 PUSH1 0xA0 SHL SUB SWAP3 DUP4 AND PUSH1 0x4 DUP3 ADD MSTORE SWAP2 AND PUSH1 0x24 DUP3 ADD MSTORE PUSH1 0x44 DUP2 ADD DUP7 SWAP1 MSTORE PUSH1 0x64 ADD PUSH1 0x20 PUSH1 0x40 MLOAD DUP1 DUP4 SUB DUP2 PUSH1 0x0 DUP8 DUP1 EXTCODESIZE ISZERO DUP1 ISZERO PUSH2 0x1F5E JUMPI PUSH1 0x0 DUP1 REVERT JUMPDEST POP GAS CALL ISZERO DUP1 ISZERO PUSH2 0x1F72 JUMPI RETURNDATASIZE PUSH1 0x0 DUP1 RETURNDATACOPY RETURNDATASIZE PUSH1 0x0 REVERT JUMPDEST POP POP POP POP PUSH1 0x40 MLOAD RETURNDATASIZE PUSH1 0x1F NOT PUSH1 0x1F DUP3 ADD AND DUP3 ADD DUP1 PUSH1 0x40 MSTORE POP DUP2 ADD SWAP1 PUSH2 0x1F96 SWAP2 SWAP1 PUSH2 0x33EA JUMP JUMPDEST PUSH2 0x1F9F JUMPI PUSH1 0x0 DUP1 REVERT JUMPDEST POP JUMPDEST DUP1 PUSH2 0x1FAB DUP2 PUSH2 0x316E JUMP JUMPDEST SWAP2 POP POP PUSH2 0x1B1A JUMP JUMPDEST POP POP POP POP POP POP JUMPDEST DUP1 PUSH2 0x1FC4 DUP2 PUSH2 0x316E JUMP JUMPDEST SWAP2 POP POP PUSH2 0x1993 JUMP JUMPDEST POP POP DUP1 DUP1 PUSH2 0x1FD9 SWAP1 PUSH2 0x316E JUMP JUMPDEST SWAP2 POP POP PUSH2 0x195A JUMP JUMPDEST POP POP PUSH1 0x0 PUSH1 0x5 DUP2 SWAP1 SSTORE PUSH1 0x6 SSTORE POP POP PUSH1 0x8 DUP1 SLOAD PUSH1 0xFF NOT AND SWAP1 SSTORE POP POP PUSH1 0xF DUP1 SLOAD PUSH5 0xFFFFFFFFFF SWAP1 SWAP3 AND PUSH2 0x100 MUL PUSH6 0xFFFFFFFFFF00 NOT SWAP1 SWAP3 AND SWAP2 SWAP1 SWAP2 OR SWAP1 SSTORE POP PUSH1 0x1 JUMPDEST SWAP1 JUMP JUMPDEST CALLER PUSH1 0x0 SWAP1 DUP2 MSTORE PUSH1 0x9 PUSH1 0x20 SWAP1 DUP2 MSTORE PUSH1 0x40 DUP1 DUP4 KECCAK256 PUSH1 0x3 ADD DUP1 SLOAD DUP3 MLOAD DUP2 DUP6 MUL DUP2 ADD DUP6 ADD SWAP1 SWAP4 MSTORE DUP1 DUP4 MSTORE PUSH1 0x60 SWAP5 SWAP4 DUP5 SWAP1 DUP5 ADD JUMPDEST DUP3 DUP3 LT ISZERO PUSH2 0x2109 JUMPI PUSH1 0x0 DUP5 DUP2 MSTORE PUSH1 0x20 SWAP1 DUP2 SWAP1 KECCAK256 PUSH1 0x40 DUP1 MLOAD PUSH1 0x80 DUP2 ADD DUP3 MSTORE PUSH1 0x2 DUP7 MUL SWAP1 SWAP3 ADD DUP1 SLOAD DUP4 MSTORE PUSH1 0x1 DUP2 ADD SLOAD PUSH2 0xFFFF DUP2 AND SWAP5 DUP5 ADD SWAP5 SWAP1 SWAP5 MSTORE SWAP2 SWAP3 SWAP1 DUP4 ADD SWAP1 PUSH3 0x10000 SWAP1 DIV PUSH1 0xFF AND PUSH1 0x3 DUP2 GT ISZERO PUSH2 0x20AC JUMPI PUSH2 0x20AC PUSH2 0x2FD2 JUMP JUMPDEST PUSH1 0x3 DUP2 GT ISZERO PUSH2 0x20BD JUMPI PUSH2 0x20BD PUSH2 0x2FD2 JUMP JUMPDEST DUP2 MSTORE PUSH1 0x20 ADD PUSH1 0x1 DUP3 ADD PUSH1 0x3 SWAP1 SLOAD SWAP1 PUSH2 0x100 EXP SWAP1 DIV PUSH1 0xFF AND PUSH1 0x2 DUP2 GT ISZERO PUSH2 0x20E5 JUMPI PUSH2 0x20E5 PUSH2 0x2FD2 JUMP JUMPDEST PUSH1 0x2 DUP2 GT ISZERO PUSH2 0x20F6 JUMPI PUSH2 0x20F6 PUSH2 0x2FD2 JUMP JUMPDEST DUP2 MSTORE POP POP DUP2 MSTORE PUSH1 0x20 ADD SWAP1 PUSH1 0x1 ADD SWAP1 PUSH2 0x2053 JUMP JUMPDEST POP POP POP POP SWAP1 POP PUSH1 0x0 DUP2 MLOAD PUSH8 0xFFFFFFFFFFFFFFFF DUP2 GT ISZERO PUSH2 0x212B JUMPI PUSH2 0x212B PUSH2 0x3204 JUMP JUMPDEST PUSH1 0x40 MLOAD SWAP1 DUP1 DUP3 MSTORE DUP1 PUSH1 0x20 MUL PUSH1 0x20 ADD DUP3 ADD PUSH1 0x40 MSTORE DUP1 ISZERO PUSH2 0x2164 JUMPI DUP2 PUSH1 0x20 ADD JUMPDEST PUSH2 0x2151 PUSH2 0x2DE5 JUMP JUMPDEST DUP2 MSTORE PUSH1 0x20 ADD SWAP1 PUSH1 0x1 SWAP1 SUB SWAP1 DUP2 PUSH2 0x2149 JUMPI SWAP1 POP JUMPDEST POP SWAP1 POP PUSH1 0x0 JUMPDEST DUP3 MLOAD DUP2 LT ISZERO PUSH2 0x21B8 JUMPI PUSH2 0x2188 DUP4 DUP3 DUP2 MLOAD DUP2 LT PUSH2 0x1390 JUMPI PUSH2 0x1390 PUSH2 0x3142 JUMP JUMPDEST DUP3 DUP3 DUP2 MLOAD DUP2 LT PUSH2 0x219A JUMPI PUSH2 0x219A PUSH2 0x3142 JUMP JUMPDEST PUSH1 0x20 MUL PUSH1 0x20 ADD ADD DUP2 SWAP1 MSTORE POP DUP1 DUP1 PUSH2 0x21B0 SWAP1 PUSH2 0x316E JUMP JUMPDEST SWAP2 POP POP PUSH2 0x216A JUMP JUMPDEST POP SWAP3 SWAP2 POP POP JUMP JUMPDEST PUSH2 0x21C7 PUSH2 0x24FE JUMP JUMPDEST CALLER PUSH1 0x0 SWAP1 DUP2 MSTORE PUSH1 0x9 PUSH1 0x20 MSTORE PUSH1 0x40 DUP2 KECCAK256 PUSH1 0x2 ADD SLOAD PUSH8 0xFFFFFFFFFFFFFFFF DUP2 GT ISZERO PUSH2 0x21F2 JUMPI PUSH2 0x21F2 PUSH2 0x3204 JUMP JUMPDEST PUSH1 0x40 MLOAD SWAP1 DUP1 DUP3 MSTORE DUP1 PUSH1 0x20 MUL PUSH1 0x20 ADD DUP3 ADD PUSH1 0x40 MSTORE DUP1 ISZERO PUSH2 0x224D JUMPI DUP2 PUSH1 0x20 ADD JUMPDEST PUSH2 0x223A PUSH1 0x40 DUP1 MLOAD PUSH1 0x80 DUP2 ADD DUP3 MSTORE PUSH1 0x0 DUP1 DUP3 MSTORE PUSH1 0x20 DUP3 ADD DUP2 SWAP1 MSTORE SWAP1 SWAP2 DUP3 ADD SWAP1 DUP2 MSTORE PUSH1 0x20 ADD PUSH1 0x0 SWAP1 MSTORE SWAP1 JUMP JUMPDEST DUP2 MSTORE PUSH1 0x20 ADD SWAP1 PUSH1 0x1 SWAP1 SUB SWAP1 DUP2 PUSH2 0x2210 JUMPI SWAP1 POP JUMPDEST POP CALLER PUSH1 0x0 SWAP1 DUP2 MSTORE PUSH1 0x9 PUSH1 0x20 SWAP1 DUP2 MSTORE PUSH1 0x40 DUP1 DUP4 KECCAK256 PUSH1 0x2 ADD DUP1 SLOAD DUP3 MLOAD DUP2 DUP6 MUL DUP2 ADD DUP6 ADD SWAP1 SWAP4 MSTORE DUP1 DUP4 MSTORE SWAP5 SWAP6 POP SWAP1 SWAP4 SWAP1 SWAP3 SWAP1 SWAP2 DUP5 ADD JUMPDEST DUP3 DUP3 LT ISZERO PUSH2 0x2336 JUMPI PUSH1 0x0 DUP5 DUP2 MSTORE PUSH1 0x20 SWAP1 DUP2 SWAP1 KECCAK256 PUSH1 0x40 DUP1 MLOAD PUSH1 0x80 DUP2 ADD DUP3 MSTORE PUSH1 0x2 DUP7 MUL SWAP1 SWAP3 ADD DUP1 SLOAD DUP4 MSTORE PUSH1 0x1 DUP2 ADD SLOAD PUSH2 0xFFFF DUP2 AND SWAP5 DUP5 ADD SWAP5 SWAP1 SWAP5 MSTORE SWAP2 SWAP3 SWAP1 DUP4 ADD SWAP1 PUSH3 0x10000 SWAP1 DIV PUSH1 0xFF AND PUSH1 0x3 DUP2 GT ISZERO PUSH2 0x22D9 JUMPI PUSH2 0x22D9 PUSH2 0x2FD2 JUMP JUMPDEST PUSH1 0x3 DUP2 GT ISZERO PUSH2 0x22EA JUMPI PUSH2 0x22EA PUSH2 0x2FD2 JUMP JUMPDEST DUP2 MSTORE PUSH1 0x20 ADD PUSH1 0x1 DUP3 ADD PUSH1 0x3 SWAP1 SLOAD SWAP1 PUSH2 0x100 EXP SWAP1 DIV PUSH1 0xFF AND PUSH1 0x2 DUP2 GT ISZERO PUSH2 0x2312 JUMPI PUSH2 0x2312 PUSH2 0x2FD2 JUMP JUMPDEST PUSH1 0x2 DUP2 GT ISZERO PUSH2 0x2323 JUMPI PUSH2 0x2323 PUSH2 0x2FD2 JUMP JUMPDEST DUP2 MSTORE POP POP DUP2 MSTORE PUSH1 0x20 ADD SWAP1 PUSH1 0x1 ADD SWAP1 PUSH2 0x2280 JUMP JUMPDEST POP POP POP POP SWAP1 POP PUSH1 0x0 JUMPDEST CALLER PUSH1 0x0 SWAP1 DUP2 MSTORE PUSH1 0x9 PUSH1 0x20 MSTORE PUSH1 0x40 SWAP1 KECCAK256 PUSH1 0x2 ADD SLOAD DUP2 LT ISZERO PUSH2 0x23EE JUMPI DUP3 DUP3 DUP3 DUP2 MLOAD DUP2 LT PUSH2 0x236C JUMPI PUSH2 0x236C PUSH2 0x3142 JUMP JUMPDEST PUSH1 0x20 MUL PUSH1 0x20 ADD ADD MLOAD PUSH1 0x0 ADD MLOAD EQ ISZERO PUSH2 0x23DC JUMPI CALLER PUSH1 0x0 SWAP1 DUP2 MSTORE PUSH1 0x9 PUSH1 0x20 MSTORE PUSH1 0x40 SWAP1 KECCAK256 PUSH1 0x2 SWAP1 DUP2 ADD DUP1 SLOAD DUP4 SWAP1 DUP2 LT PUSH2 0x23A4 JUMPI PUSH2 0x23A4 PUSH2 0x3142 JUMP JUMPDEST SWAP1 PUSH1 0x0 MSTORE PUSH1 0x20 PUSH1 0x0 KECCAK256 SWAP1 PUSH1 0x2 MUL ADD PUSH1 0x1 ADD PUSH1 0x3 PUSH2 0x100 EXP DUP2 SLOAD DUP2 PUSH1 0xFF MUL NOT AND SWAP1 DUP4 PUSH1 0x2 DUP2 GT ISZERO PUSH2 0x23D6 JUMPI PUSH2 0x23D6 PUSH2 0x2FD2 JUMP JUMPDEST MUL OR SWAP1 SSTORE POP JUMPDEST DUP1 PUSH2 0x23E6 DUP2 PUSH2 0x316E JUMP JUMPDEST SWAP2 POP POP PUSH2 0x233F JUMP JUMPDEST POP PUSH2 0x23F9 DUP3 CALLER PUSH2 0x25AB JUMP JUMPDEST POP POP JUMP JUMPDEST PUSH1 0x0 SLOAD PUSH1 0x1 PUSH1 0x1 PUSH1 0xA0 SHL SUB AND CALLER EQ PUSH2 0x243B JUMPI PUSH1 0x40 MLOAD PUSH3 0x461BCD PUSH1 0xE5 SHL DUP2 MSTORE PUSH1 0x20 PUSH1 0x4 DUP3 ADD MSTORE PUSH1 0x1 PUSH1 0x24 DUP3 ADD MSTORE PUSH1 0x3 PUSH1 0xFC SHL PUSH1 0x44 DUP3 ADD MSTORE PUSH1 0x64 ADD PUSH2 0x370 JUMP JUMPDEST JUMP JUMPDEST PUSH1 0x0 DUP1 PUSH1 0xE DUP1 SLOAD DUP1 PUSH1 0x20 MUL PUSH1 0x20 ADD PUSH1 0x40 MLOAD SWAP1 DUP2 ADD PUSH1 0x40 MSTORE DUP1 SWAP3 SWAP2 SWAP1 DUP2 DUP2 MSTORE PUSH1 0x20 ADD DUP3 DUP1 SLOAD DUP1 ISZERO PUSH2 0x2496 JUMPI PUSH1 0x20 MUL DUP3 ADD SWAP2 SWAP1 PUSH1 0x0 MSTORE PUSH1 0x20 PUSH1 0x0 KECCAK256 SWAP1 JUMPDEST DUP2 SLOAD PUSH1 0x1 PUSH1 0x1 PUSH1 0xA0 SHL SUB AND DUP2 MSTORE PUSH1 0x1 SWAP1 SWAP2 ADD SWAP1 PUSH1 0x20 ADD DUP1 DUP4 GT PUSH2 0x2478 JUMPI JUMPDEST POP POP POP POP POP SWAP1 POP PUSH1 0x0 SWAP2 POP PUSH1 0x0 JUMPDEST DUP2 MLOAD DUP2 LT ISZERO PUSH2 0x24F7 JUMPI DUP2 DUP2 DUP2 MLOAD DUP2 LT PUSH2 0x24BF JUMPI PUSH2 0x24BF PUSH2 0x3142 JUMP JUMPDEST PUSH1 0x20 MUL PUSH1 0x20 ADD ADD MLOAD PUSH1 0x1 PUSH1 0x1 PUSH1 0xA0 SHL SUB AND DUP5 PUSH1 0x1 PUSH1 0x1 PUSH1 0xA0 SHL SUB AND EQ ISZERO PUSH2 0x24E5 JUMPI PUSH1 0x1 SWAP3 POP JUMPDEST DUP1 PUSH2 0x24EF DUP2 PUSH2 0x316E JUMP JUMPDEST SWAP2 POP POP PUSH2 0x24A4 JUMP JUMPDEST POP POP SWAP2 SWAP1 POP JUMP JUMPDEST CALLER PUSH2 0x243B JUMPI PUSH1 0x40 MLOAD PUSH3 0x461BCD PUSH1 0xE5 SHL DUP2 MSTORE PUSH1 0x20 PUSH1 0x4 DUP3 ADD MSTORE PUSH1 0x1 PUSH1 0x24 DUP3 ADD MSTORE PUSH1 0x33 PUSH1 0xF8 SHL PUSH1 0x44 DUP3 ADD MSTORE PUSH1 0x64 ADD PUSH2 0x370 JUMP JUMPDEST PUSH1 0x0 DUP1 PUSH1 0x40 MLOAD DUP1 PUSH1 0x80 ADD PUSH1 0x40 MSTORE DUP1 DUP8 DUP2 MSTORE PUSH1 0x20 ADD DUP7 PUSH2 0xFFFF AND DUP2 MSTORE PUSH1 0x20 ADD DUP6 PUSH1 0x3 DUP2 GT ISZERO PUSH2 0x255F JUMPI PUSH2 0x255F PUSH2 0x2FD2 JUMP JUMPDEST DUP2 MSTORE PUSH1 0x20 ADD DUP5 PUSH1 0x2 DUP2 GT ISZERO PUSH2 0x2576 JUMPI PUSH2 0x2576 PUSH2 0x2FD2 JUMP JUMPDEST SWAP1 MSTORE SWAP1 POP PUSH1 0x0 PUSH2 0x2585 DUP3 PUSH2 0x2952 JUMP JUMPDEST SWAP1 POP DUP1 PUSH1 0x80 ADD MLOAD ISZERO PUSH2 0x259C JUMPI PUSH1 0x1 SWAP3 POP POP POP PUSH2 0x25A3 JUMP JUMPDEST PUSH1 0x0 SWAP3 POP POP POP JUMPDEST SWAP5 SWAP4 POP POP POP POP JUMP JUMPDEST PUSH1 0x0 DUP3 DUP2 MSTORE PUSH1 0xC PUSH1 0x20 MSTORE PUSH1 0x40 DUP2 KECCAK256 SWAP1 DUP1 JUMPDEST DUP3 SLOAD DUP2 LT ISZERO PUSH2 0x26F1 JUMPI DUP4 PUSH1 0x1 PUSH1 0x1 PUSH1 0xA0 SHL SUB AND DUP4 DUP3 DUP2 SLOAD DUP2 LT PUSH2 0x25E1 JUMPI PUSH2 0x25E1 PUSH2 0x3142 JUMP JUMPDEST PUSH1 0x0 SWAP2 DUP3 MSTORE PUSH1 0x20 SWAP1 SWAP2 KECCAK256 ADD SLOAD PUSH1 0x1 PUSH1 0x1 PUSH1 0xA0 SHL SUB AND EQ ISZERO PUSH2 0x262F JUMPI DUP1 SWAP2 POP DUP3 DUP2 DUP2 SLOAD DUP2 LT PUSH2 0x2611 JUMPI PUSH2 0x2611 PUSH2 0x3142 JUMP JUMPDEST PUSH1 0x0 SWAP2 DUP3 MSTORE PUSH1 0x20 SWAP1 SWAP2 KECCAK256 ADD DUP1 SLOAD PUSH1 0x1 PUSH1 0x1 PUSH1 0xA0 SHL SUB NOT AND SWAP1 SSTORE PUSH2 0x26F1 JUMP JUMPDEST DUP3 SLOAD DUP4 SWAP1 PUSH2 0x263F SWAP1 PUSH1 0x1 SWAP1 PUSH2 0x3189 JUMP JUMPDEST DUP2 SLOAD DUP2 LT PUSH2 0x264F JUMPI PUSH2 0x264F PUSH2 0x3142 JUMP JUMPDEST SWAP1 PUSH1 0x0 MSTORE PUSH1 0x20 PUSH1 0x0 KECCAK256 ADD PUSH1 0x0 SWAP1 SLOAD SWAP1 PUSH2 0x100 EXP SWAP1 DIV PUSH1 0x1 PUSH1 0x1 PUSH1 0xA0 SHL SUB AND DUP4 DUP4 DUP2 SLOAD DUP2 LT PUSH2 0x267F JUMPI PUSH2 0x267F PUSH2 0x3142 JUMP JUMPDEST SWAP1 PUSH1 0x0 MSTORE PUSH1 0x20 PUSH1 0x0 KECCAK256 ADD PUSH1 0x0 PUSH2 0x100 EXP DUP2 SLOAD DUP2 PUSH1 0x1 PUSH1 0x1 PUSH1 0xA0 SHL SUB MUL NOT AND SWAP1 DUP4 PUSH1 0x1 PUSH1 0x1 PUSH1 0xA0 SHL SUB AND MUL OR SWAP1 SSTORE POP DUP3 DUP1 SLOAD DUP1 PUSH2 0x26BD JUMPI PUSH2 0x26BD PUSH2 0x31B8 JUMP JUMPDEST PUSH1 0x0 DUP3 DUP2 MSTORE PUSH1 0x20 SWAP1 KECCAK256 DUP2 ADD PUSH1 0x0 NOT SWAP1 DUP2 ADD DUP1 SLOAD PUSH1 0x1 PUSH1 0x1 PUSH1 0xA0 SHL SUB NOT AND SWAP1 SSTORE ADD SWAP1 SSTORE DUP1 PUSH2 0x26E9 DUP2 PUSH2 0x316E JUMP JUMPDEST SWAP2 POP POP PUSH2 0x25BC JUMP JUMPDEST POP POP POP POP POP JUMP JUMPDEST PUSH2 0x2700 PUSH2 0x2DE5 JUMP JUMPDEST PUSH1 0x0 CALLER DUP7 DUP5 DUP8 TIMESTAMP PUSH1 0x40 MLOAD PUSH1 0x20 ADD PUSH2 0x271B SWAP6 SWAP5 SWAP4 SWAP3 SWAP2 SWAP1 PUSH2 0x3407 JUMP JUMPDEST PUSH1 0x40 DUP1 MLOAD PUSH1 0x1F NOT DUP2 DUP5 SUB ADD DUP2 MSTORE DUP3 DUP3 MSTORE DUP1 MLOAD PUSH1 0x20 SWAP2 DUP3 ADD KECCAK256 PUSH2 0x120 DUP5 ADD DUP4 MSTORE DUP1 DUP5 MSTORE SWAP1 DUP4 ADD DUP11 SWAP1 MSTORE CALLER SWAP2 DUP4 ADD SWAP2 SWAP1 SWAP2 MSTORE PUSH1 0x1 PUSH1 0x1 PUSH1 0xA0 SHL SUB DUP9 AND PUSH1 0x60 DUP4 ADD MSTORE PUSH1 0x1 PUSH1 0x80 DUP4 ADD MSTORE PUSH1 0x0 PUSH1 0xA0 DUP4 ADD MSTORE SWAP2 POP PUSH1 0xC0 DUP2 ADD DUP6 PUSH1 0x3 DUP2 GT ISZERO PUSH2 0x2780 JUMPI PUSH2 0x2780 PUSH2 0x2FD2 JUMP JUMPDEST DUP2 MSTORE PUSH1 0x20 ADD DUP5 PUSH2 0xFFFF AND DUP2 MSTORE PUSH1 0x20 ADD DUP7 DUP2 MSTORE POP SWAP2 POP POP SWAP6 SWAP5 POP POP POP POP POP JUMP JUMPDEST CALLER PUSH1 0x0 SWAP1 DUP2 MSTORE PUSH1 0x9 PUSH1 0x20 MSTORE PUSH1 0x40 SWAP1 KECCAK256 SLOAD PUSH1 0x1 PUSH1 0xA0 SHL SWAP1 DIV PUSH1 0xFF AND PUSH2 0x2829 JUMPI CALLER PUSH1 0x0 DUP2 DUP2 MSTORE PUSH1 0x9 PUSH1 0x20 MSTORE PUSH1 0x40 DUP2 KECCAK256 DUP1 SLOAD PUSH1 0x1 PUSH1 0x1 PUSH1 0xA0 SHL SUB NOT SWAP1 DUP2 AND DUP5 OR DUP3 SSTORE PUSH1 0xA DUP1 SLOAD PUSH1 0x1 DUP2 ADD SWAP1 SWAP2 SSTORE PUSH32 0xC65A7BB8D6351C1CF70C95A316CC6A92839C986682D98BC35F958F4883F9D2A8 ADD DUP1 SLOAD SWAP1 SWAP2 AND DUP5 OR SWAP1 SSTORE SWAP2 SWAP1 MSTORE DUP1 SLOAD PUSH1 0xFF PUSH1 0xA0 SHL NOT AND PUSH1 0x1 PUSH1 0xA0 SHL OR SWAP1 SSTORE JUMPDEST DUP1 ISZERO PUSH2 0x28DF JUMPI CALLER PUSH1 0x0 SWAP1 DUP2 MSTORE PUSH1 0x9 PUSH1 0x20 SWAP1 DUP2 MSTORE PUSH1 0x40 DUP1 DUP4 KECCAK256 PUSH1 0x3 SWAP1 DUP2 ADD DUP1 SLOAD PUSH1 0x1 DUP1 DUP3 ADD DUP4 SSTORE SWAP2 DUP7 MSTORE SWAP5 DUP5 SWAP1 KECCAK256 DUP8 MLOAD PUSH1 0x2 SWAP1 SWAP7 MUL ADD SWAP5 DUP6 SSTORE SWAP3 DUP7 ADD MLOAD SWAP3 DUP5 ADD DUP1 SLOAD PUSH2 0xFFFF NOT DUP2 AND PUSH2 0xFFFF SWAP1 SWAP6 AND SWAP5 DUP6 OR DUP3 SSTORE SWAP3 DUP8 ADD MLOAD DUP8 SWAP6 SWAP5 SWAP1 SWAP4 SWAP2 SWAP3 PUSH3 0xFFFFFF NOT SWAP1 SWAP3 AND OR SWAP1 PUSH3 0x10000 SWAP1 DUP5 SWAP1 DUP2 GT ISZERO PUSH2 0x28A6 JUMPI PUSH2 0x28A6 PUSH2 0x2FD2 JUMP JUMPDEST MUL OR SWAP1 SSTORE POP PUSH1 0x60 DUP3 ADD MLOAD PUSH1 0x1 DUP3 ADD DUP1 SLOAD PUSH4 0xFF000000 NOT AND PUSH4 0x1000000 DUP4 PUSH1 0x2 DUP2 GT ISZERO PUSH2 0x28D4 JUMPI PUSH2 0x28D4 PUSH2 0x2FD2 JUMP JUMPDEST MUL OR SWAP1 SSTORE POP POP POP POP POP JUMP JUMPDEST CALLER PUSH1 0x0 SWAP1 DUP2 MSTORE PUSH1 0x9 PUSH1 0x20 SWAP1 DUP2 MSTORE PUSH1 0x40 DUP1 DUP4 KECCAK256 PUSH1 0x2 SWAP1 DUP2 ADD DUP1 SLOAD PUSH1 0x1 DUP1 DUP3 ADD DUP4 SSTORE SWAP2 DUP7 MSTORE SWAP5 DUP5 SWAP1 KECCAK256 DUP8 MLOAD SWAP6 SWAP1 SWAP3 MUL SWAP1 SWAP2 ADD SWAP4 DUP5 SSTORE SWAP2 DUP6 ADD MLOAD SWAP2 DUP4 ADD DUP1 SLOAD PUSH2 0xFFFF NOT DUP2 AND PUSH2 0xFFFF SWAP1 SWAP5 AND SWAP4 DUP5 OR DUP3 SSTORE SWAP2 DUP7 ADD MLOAD DUP7 SWAP5 SWAP4 SWAP1 SWAP3 PUSH3 0xFFFFFF NOT AND OR PUSH3 0x10000 DUP4 PUSH1 0x3 DUP2 GT ISZERO PUSH2 0x28A6 JUMPI PUSH2 0x28A6 PUSH2 0x2FD2 JUMP JUMPDEST PUSH2 0x295A PUSH2 0x2DE5 JUMP JUMPDEST PUSH1 0x0 PUSH1 0xB PUSH1 0x0 DUP5 PUSH1 0x40 ADD MLOAD PUSH1 0x3 DUP2 GT ISZERO PUSH2 0x2976 JUMPI PUSH2 0x2976 PUSH2 0x2FD2 JUMP JUMPDEST DUP2 MSTORE PUSH1 0x20 ADD SWAP1 DUP2 MSTORE PUSH1 0x20 ADD PUSH1 0x0 KECCAK256 PUSH1 0x0 DUP5 PUSH1 0x20 ADD MLOAD PUSH2 0xFFFF AND PUSH2 0xFFFF AND DUP2 MSTORE PUSH1 0x20 ADD SWAP1 DUP2 MSTORE PUSH1 0x20 ADD PUSH1 0x0 KECCAK256 DUP1 SLOAD DUP1 PUSH1 0x20 MUL PUSH1 0x20 ADD PUSH1 0x40 MLOAD SWAP1 DUP2 ADD PUSH1 0x40 MSTORE DUP1 SWAP3 SWAP2 SWAP1 DUP2 DUP2 MSTORE PUSH1 0x20 ADD PUSH1 0x0 SWAP1 JUMPDEST DUP3 DUP3 LT ISZERO PUSH2 0x2B2B JUMPI PUSH1 0x0 DUP5 DUP2 MSTORE PUSH1 0x20 SWAP1 DUP2 SWAP1 KECCAK256 PUSH1 0x40 DUP1 MLOAD PUSH2 0x120 DUP2 ADD DUP3 MSTORE PUSH1 0x5 DUP7 MUL SWAP1 SWAP3 ADD DUP1 SLOAD DUP4 MSTORE PUSH1 0x1 DUP2 ADD SLOAD SWAP4 DUP4 ADD SWAP4 SWAP1 SWAP4 MSTORE PUSH1 0x2 DUP4 ADD SLOAD PUSH1 0x1 PUSH1 0x1 PUSH1 0xA0 SHL SUB SWAP1 DUP2 AND SWAP2 DUP4 ADD SWAP2 SWAP1 SWAP2 MSTORE PUSH1 0x3 DUP1 DUP5 ADD SLOAD SWAP2 DUP3 AND PUSH1 0x60 DUP5 ADD MSTORE PUSH1 0xFF PUSH1 0x1 PUSH1 0xA0 SHL DUP4 DIV DUP2 AND ISZERO ISZERO PUSH1 0x80 DUP6 ADD MSTORE PUSH1 0x1 PUSH1 0xA8 SHL DUP4 DIV DUP2 AND ISZERO ISZERO PUSH1 0xA0 DUP6 ADD MSTORE SWAP3 SWAP4 SWAP3 PUSH1 0xC0 DUP6 ADD SWAP3 PUSH1 0x1 PUSH1 0xB0 SHL SWAP1 DIV AND SWAP1 DUP2 GT ISZERO PUSH2 0x2A5D JUMPI PUSH2 0x2A5D PUSH2 0x2FD2 JUMP JUMPDEST PUSH1 0x3 DUP2 GT ISZERO PUSH2 0x2A6E JUMPI PUSH2 0x2A6E PUSH2 0x2FD2 JUMP JUMPDEST DUP2 MSTORE PUSH1 0x3 DUP3 ADD SLOAD PUSH1 0x1 PUSH1 0xB8 SHL SWAP1 DIV PUSH2 0xFFFF AND PUSH1 0x20 DUP3 ADD MSTORE PUSH1 0x4 DUP3 ADD DUP1 SLOAD PUSH1 0x40 SWAP1 SWAP3 ADD SWAP2 PUSH2 0x2A9A SWAP1 PUSH2 0x321A JUMP JUMPDEST DUP1 PUSH1 0x1F ADD PUSH1 0x20 DUP1 SWAP2 DIV MUL PUSH1 0x20 ADD PUSH1 0x40 MLOAD SWAP1 DUP2 ADD PUSH1 0x40 MSTORE DUP1 SWAP3 SWAP2 SWAP1 DUP2 DUP2 MSTORE PUSH1 0x20 ADD DUP3 DUP1 SLOAD PUSH2 0x2AC6 SWAP1 PUSH2 0x321A JUMP JUMPDEST DUP1 ISZERO PUSH2 0x2B13 JUMPI DUP1 PUSH1 0x1F LT PUSH2 0x2AE8 JUMPI PUSH2 0x100 DUP1 DUP4 SLOAD DIV MUL DUP4 MSTORE SWAP2 PUSH1 0x20 ADD SWAP2 PUSH2 0x2B13 JUMP JUMPDEST DUP3 ADD SWAP2 SWAP1 PUSH1 0x0 MSTORE PUSH1 0x20 PUSH1 0x0 KECCAK256 SWAP1 JUMPDEST DUP2 SLOAD DUP2 MSTORE SWAP1 PUSH1 0x1 ADD SWAP1 PUSH1 0x20 ADD DUP1 DUP4 GT PUSH2 0x2AF6 JUMPI DUP3 SWAP1 SUB PUSH1 0x1F AND DUP3 ADD SWAP2 JUMPDEST POP POP POP POP POP DUP2 MSTORE POP POP DUP2 MSTORE PUSH1 0x20 ADD SWAP1 PUSH1 0x1 ADD SWAP1 PUSH2 0x29C1 JUMP JUMPDEST POP POP POP POP SWAP1 POP PUSH1 0x0 JUMPDEST DUP2 MLOAD DUP2 LT ISZERO PUSH2 0x24F7 JUMPI DUP4 PUSH1 0x0 ADD MLOAD DUP3 DUP3 DUP2 MLOAD DUP2 LT PUSH2 0x2B54 JUMPI PUSH2 0x2B54 PUSH2 0x3142 JUMP JUMPDEST PUSH1 0x20 MUL PUSH1 0x20 ADD ADD MLOAD PUSH1 0x0 ADD MLOAD EQ ISZERO PUSH2 0x2B83 JUMPI DUP2 DUP2 DUP2 MLOAD DUP2 LT PUSH2 0x2B78 JUMPI PUSH2 0x2B78 PUSH2 0x3142 JUMP JUMPDEST PUSH1 0x20 MUL PUSH1 0x20 ADD ADD MLOAD SWAP3 POP JUMPDEST DUP1 PUSH2 0x2B8D DUP2 PUSH2 0x316E JUMP JUMPDEST SWAP2 POP POP PUSH2 0x2B34 JUMP JUMPDEST PUSH1 0x0 DUP2 PUSH1 0x1 EQ DUP1 PUSH2 0x2BA6 JUMPI POP DUP2 PUSH1 0x3 EQ JUMPDEST DUP1 PUSH2 0x2BB1 JUMPI POP DUP2 PUSH1 0x5 EQ JUMPDEST DUP1 PUSH2 0x2BBC JUMPI POP DUP2 PUSH1 0x7 EQ JUMPDEST DUP1 PUSH2 0x2BC7 JUMPI POP DUP2 PUSH1 0x8 EQ JUMPDEST DUP1 PUSH2 0x2BD2 JUMPI POP DUP2 PUSH1 0xA EQ JUMPDEST DUP1 PUSH2 0x2BDD JUMPI POP DUP2 PUSH1 0xC EQ JUMPDEST ISZERO PUSH2 0x2BEA JUMPI POP PUSH1 0x1F PUSH2 0x2C17 JUMP JUMPDEST DUP2 PUSH1 0x2 EQ PUSH2 0x2BFA JUMPI POP PUSH1 0x1E PUSH2 0x2C17 JUMP JUMPDEST PUSH2 0x2C03 DUP4 PUSH2 0x2D25 JUMP JUMPDEST PUSH2 0x2C0E JUMPI PUSH1 0x1C PUSH2 0x2C11 JUMP JUMPDEST PUSH1 0x1D JUMPDEST PUSH1 0xFF AND SWAP1 POP JUMPDEST SWAP3 SWAP2 POP POP JUMP JUMPDEST PUSH1 0x0 DUP1 PUSH2 0x2C29 DUP4 PUSH2 0x2D25 JUMP JUMPDEST ISZERO PUSH2 0x2C36 JUMPI POP PUSH1 0x1 PUSH2 0x2C3A JUMP JUMPDEST POP PUSH1 0x0 JUMPDEST PUSH2 0x2C45 DUP2 PUSH1 0x5A PUSH2 0x31A0 JUMP JUMPDEST DUP5 GT PUSH2 0x2C53 JUMPI DUP4 SWAP2 POP PUSH2 0x21B8 JUMP JUMPDEST DUP4 PUSH2 0x2C5F DUP3 PUSH1 0x5A PUSH2 0x31A0 JUMP JUMPDEST LT DUP1 ISZERO PUSH2 0x2C76 JUMPI POP PUSH2 0x2C72 DUP2 PUSH1 0xB5 PUSH2 0x31A0 JUMP JUMPDEST DUP5 GT ISZERO JUMPDEST ISZERO PUSH2 0x2C97 JUMPI PUSH2 0x2C86 DUP2 PUSH1 0x5A PUSH2 0x31A0 JUMP JUMPDEST PUSH2 0x2C90 SWAP1 DUP6 PUSH2 0x3189 JUMP JUMPDEST SWAP2 POP PUSH2 0x21B8 JUMP JUMPDEST DUP4 PUSH2 0x2CA3 DUP3 PUSH1 0xB5 PUSH2 0x31A0 JUMP JUMPDEST LT DUP1 ISZERO PUSH2 0x2CBB JUMPI POP PUSH2 0x2CB7 DUP2 PUSH2 0x111 PUSH2 0x31A0 JUMP JUMPDEST DUP5 GT ISZERO JUMPDEST ISZERO PUSH2 0x2CCB JUMPI PUSH2 0x2C86 DUP2 PUSH1 0xB5 PUSH2 0x31A0 JUMP JUMPDEST PUSH2 0x2CD7 DUP2 PUSH2 0x111 PUSH2 0x31A0 JUMP JUMPDEST PUSH2 0x25A3 SWAP1 DUP6 PUSH2 0x3189 JUMP JUMPDEST PUSH1 0x0 PUSH2 0x2C17 PUSH2 0xE10 DUP4 PUSH2 0x3465 JUMP JUMPDEST PUSH1 0x0 DUP1 PUSH2 0x2CFF PUSH3 0x15180 DUP5 PUSH2 0x326B JUMP JUMPDEST SWAP1 POP PUSH1 0x0 PUSH1 0x7 PUSH2 0x2D10 DUP4 PUSH1 0x3 PUSH2 0x31A0 JUMP JUMPDEST PUSH2 0x2D1A SWAP2 SWAP1 PUSH2 0x3489 JUMP JUMPDEST PUSH2 0x25A3 SWAP1 PUSH1 0x1 PUSH2 0x31A0 JUMP JUMPDEST PUSH1 0x0 PUSH2 0x2D32 PUSH1 0x4 DUP4 PUSH2 0x3489 JUMP JUMPDEST ISZERO DUP1 ISZERO PUSH2 0x2D48 JUMPI POP PUSH2 0x2D45 PUSH1 0x64 DUP4 PUSH2 0x3489 JUMP JUMPDEST ISZERO ISZERO JUMPDEST DUP1 PUSH2 0x2C17 JUMPI POP PUSH2 0x2D5A PUSH2 0x190 DUP4 PUSH2 0x3489 JUMP JUMPDEST ISZERO SWAP3 SWAP2 POP POP JUMP JUMPDEST DUP3 DUP1 SLOAD PUSH2 0x2D6D SWAP1 PUSH2 0x321A JUMP JUMPDEST SWAP1 PUSH1 0x0 MSTORE PUSH1 0x20 PUSH1 0x0 KECCAK256 SWAP1 PUSH1 0x1F ADD PUSH1 0x20 SWAP1 DIV DUP2 ADD SWAP3 DUP3 PUSH2 0x2D8F JUMPI PUSH1 0x0 DUP6 SSTORE PUSH2 0x2DD5 JUMP JUMPDEST DUP3 PUSH1 0x1F LT PUSH2 0x2DA8 JUMPI DUP1 MLOAD PUSH1 0xFF NOT AND DUP4 DUP1 ADD OR DUP6 SSTORE PUSH2 0x2DD5 JUMP JUMPDEST DUP3 DUP1 ADD PUSH1 0x1 ADD DUP6 SSTORE DUP3 ISZERO PUSH2 0x2DD5 JUMPI SWAP2 DUP3 ADD JUMPDEST DUP3 DUP2 GT ISZERO PUSH2 0x2DD5 JUMPI DUP3 MLOAD DUP3 SSTORE SWAP2 PUSH1 0x20 ADD SWAP2 SWAP1 PUSH1 0x1 ADD SWAP1 PUSH2 0x2DBA JUMP JUMPDEST POP PUSH2 0x2DE1 SWAP3 SWAP2 POP PUSH2 0x2E31 JUMP JUMPDEST POP SWAP1 JUMP JUMPDEST PUSH1 0x40 DUP1 MLOAD PUSH2 0x120 DUP2 ADD DUP3 MSTORE PUSH1 0x0 DUP1 DUP3 MSTORE PUSH1 0x20 DUP3 ADD DUP2 SWAP1 MSTORE SWAP2 DUP2 ADD DUP3 SWAP1 MSTORE PUSH1 0x60 DUP2 ADD DUP3 SWAP1 MSTORE PUSH1 0x80 DUP2 ADD DUP3 SWAP1 MSTORE PUSH1 0xA0 DUP2 ADD DUP3 SWAP1 MSTORE SWAP1 PUSH1 0xC0 DUP3 ADD SWAP1 DUP2 MSTORE PUSH1 0x0 PUSH1 0x20 DUP3 ADD MSTORE PUSH1 0x60 PUSH1 0x40 SWAP1 SWAP2 ADD MSTORE SWAP1 JUMP JUMPDEST JUMPDEST DUP1 DUP3 GT ISZERO PUSH2 0x2DE1 JUMPI PUSH1 0x0 DUP2 SSTORE PUSH1 0x1 ADD PUSH2 0x2E32 JUMP JUMPDEST DUP1 CALLDATALOAD PUSH1 0x1 PUSH1 0x1 PUSH1 0xA0 SHL SUB DUP2 AND DUP2 EQ PUSH2 0x2E5D JUMPI PUSH1 0x0 DUP1 REVERT JUMPDEST SWAP2 SWAP1 POP JUMP JUMPDEST PUSH1 0x0 PUSH1 0x20 DUP3 DUP5 SUB SLT ISZERO PUSH2 0x2E74 JUMPI PUSH1 0x0 DUP1 REVERT JUMPDEST PUSH2 0x2E7D DUP3 PUSH2 0x2E46 JUMP JUMPDEST SWAP4 SWAP3 POP POP POP JUMP JUMPDEST PUSH1 0x0 PUSH1 0x20 DUP3 DUP5 SUB SLT ISZERO PUSH2 0x2E96 JUMPI PUSH1 0x0 DUP1 REVERT JUMPDEST DUP2 CALLDATALOAD PUSH8 0xFFFFFFFFFFFFFFFF DUP2 GT ISZERO PUSH2 0x2EAD JUMPI PUSH1 0x0 DUP1 REVERT JUMPDEST DUP3 ADD PUSH2 0x120 DUP2 DUP6 SUB SLT ISZERO PUSH2 0x2E7D JUMPI PUSH1 0x0 DUP1 REVERT JUMPDEST PUSH1 0x0 PUSH1 0x20 DUP3 DUP5 SUB SLT ISZERO PUSH2 0x2ED2 JUMPI PUSH1 0x0 DUP1 REVERT JUMPDEST POP CALLDATALOAD SWAP2 SWAP1 POP JUMP JUMPDEST DUP1 CALLDATALOAD PUSH1 0x4 DUP2 LT PUSH2 0x2E5D JUMPI PUSH1 0x0 DUP1 REVERT JUMPDEST DUP1 CALLDATALOAD PUSH2 0xFFFF DUP2 AND DUP2 EQ PUSH2 0x2E5D JUMPI PUSH1 0x0 DUP1 REVERT JUMPDEST PUSH1 0x0 DUP1 PUSH1 0x0 DUP1 PUSH1 0x0 DUP1 PUSH1 0xA0 DUP8 DUP10 SUB SLT ISZERO PUSH2 0x2F13 JUMPI PUSH1 0x0 DUP1 REVERT JUMPDEST DUP7 CALLDATALOAD SWAP6 POP PUSH2 0x2F23 PUSH1 0x20 DUP9 ADD PUSH2 0x2E46 JUMP JUMPDEST SWAP5 POP PUSH1 0x40 DUP8 ADD CALLDATALOAD PUSH8 0xFFFFFFFFFFFFFFFF DUP1 DUP3 GT ISZERO PUSH2 0x2F40 JUMPI PUSH1 0x0 DUP1 REVERT JUMPDEST DUP2 DUP10 ADD SWAP2 POP DUP10 PUSH1 0x1F DUP4 ADD SLT PUSH2 0x2F54 JUMPI PUSH1 0x0 DUP1 REVERT JUMPDEST DUP2 CALLDATALOAD DUP2 DUP2 GT ISZERO PUSH2 0x2F63 JUMPI PUSH1 0x0 DUP1 REVERT JUMPDEST DUP11 PUSH1 0x20 DUP3 DUP6 ADD ADD GT ISZERO PUSH2 0x2F75 JUMPI PUSH1 0x0 DUP1 REVERT JUMPDEST PUSH1 0x20 DUP4 ADD SWAP7 POP DUP1 SWAP6 POP POP POP POP PUSH2 0x2F8D PUSH1 0x60 DUP9 ADD PUSH2 0x2ED9 JUMP JUMPDEST SWAP2 POP PUSH2 0x2F9B PUSH1 0x80 DUP9 ADD PUSH2 0x2EE8 JUMP JUMPDEST SWAP1 POP SWAP3 SWAP6 POP SWAP3 SWAP6 POP SWAP3 SWAP6 JUMP JUMPDEST DUP1 ISZERO ISZERO DUP2 EQ PUSH2 0x17E7 JUMPI PUSH1 0x0 DUP1 REVERT JUMPDEST PUSH1 0x0 PUSH1 0x20 DUP3 DUP5 SUB SLT ISZERO PUSH2 0x2FC7 JUMPI PUSH1 0x0 DUP1 REVERT JUMPDEST DUP2 CALLDATALOAD PUSH2 0x2E7D DUP2 PUSH2 0x2FA7 JUMP JUMPDEST PUSH4 0x4E487B71 PUSH1 0xE0 SHL PUSH1 0x0 MSTORE PUSH1 0x21 PUSH1 0x4 MSTORE PUSH1 0x24 PUSH1 0x0 REVERT JUMPDEST PUSH1 0x4 DUP2 LT PUSH2 0x3006 JUMPI PUSH4 0x4E487B71 PUSH1 0xE0 SHL PUSH1 0x0 MSTORE PUSH1 0x21 PUSH1 0x4 MSTORE PUSH1 0x24 PUSH1 0x0 REVERT JUMPDEST SWAP1 MSTORE JUMP JUMPDEST PUSH1 0x0 JUMPDEST DUP4 DUP2 LT ISZERO PUSH2 0x3025 JUMPI DUP2 DUP2 ADD MLOAD DUP4 DUP3 ADD MSTORE PUSH1 0x20 ADD PUSH2 0x300D JUMP JUMPDEST DUP4 DUP2 GT ISZERO PUSH2 0xBDE JUMPI POP POP PUSH1 0x0 SWAP2 ADD MSTORE JUMP JUMPDEST PUSH1 0x0 DUP2 MLOAD DUP1 DUP5 MSTORE PUSH2 0x304E DUP2 PUSH1 0x20 DUP7 ADD PUSH1 0x20 DUP7 ADD PUSH2 0x300A JUMP JUMPDEST PUSH1 0x1F ADD PUSH1 0x1F NOT AND SWAP3 SWAP1 SWAP3 ADD PUSH1 0x20 ADD SWAP3 SWAP2 POP POP JUMP JUMPDEST PUSH1 0x0 PUSH1 0x20 DUP1 DUP4 ADD DUP2 DUP5 MSTORE DUP1 DUP6 MLOAD DUP1 DUP4 MSTORE PUSH1 0x40 SWAP3 POP DUP3 DUP7 ADD SWAP2 POP DUP3 DUP2 PUSH1 0x5 SHL DUP8 ADD ADD DUP5 DUP9 ADD PUSH1 0x0 JUMPDEST DUP4 DUP2 LT ISZERO PUSH2 0x3134 JUMPI PUSH1 0x3F NOT DUP10 DUP5 SUB ADD DUP6 MSTORE DUP2 MLOAD DUP1 MLOAD DUP5 MSTORE DUP8 DUP2 ADD MLOAD DUP9 DUP6 ADD MSTORE DUP7 DUP2 ADD MLOAD PUSH1 0x1 PUSH1 0x1 PUSH1 0xA0 SHL SUB SWAP1 DUP2 AND DUP9 DUP7 ADD MSTORE PUSH1 0x60 DUP1 DUP4 ADD MLOAD SWAP1 SWAP2 AND SWAP1 DUP6 ADD MSTORE PUSH1 0x80 DUP1 DUP3 ADD MLOAD ISZERO ISZERO SWAP1 DUP6 ADD MSTORE PUSH1 0xA0 DUP1 DUP3 ADD MLOAD ISZERO ISZERO SWAP1 DUP6 ADD MSTORE PUSH1 0xC0 DUP1 DUP3 ADD MLOAD PUSH2 0x120 SWAP2 SWAP1 PUSH2 0x30F7 DUP3 DUP9 ADD DUP3 PUSH2 0x2FE8 JUMP JUMPDEST POP POP PUSH1 0xE0 DUP3 DUP2 ADD MLOAD PUSH2 0xFFFF AND SWAP1 DUP7 ADD MSTORE PUSH2 0x100 SWAP2 DUP3 ADD MLOAD SWAP2 DUP6 ADD DUP2 SWAP1 MSTORE PUSH2 0x3120 DUP2 DUP7 ADD DUP4 PUSH2 0x3036 JUMP JUMPDEST SWAP7 DUP10 ADD SWAP7 SWAP5 POP POP POP SWAP1 DUP7 ADD SWAP1 PUSH1 0x1 ADD PUSH2 0x3089 JUMP JUMPDEST POP SWAP1 SWAP9 SWAP8 POP POP POP POP POP POP POP POP JUMP JUMPDEST PUSH4 0x4E487B71 PUSH1 0xE0 SHL PUSH1 0x0 MSTORE PUSH1 0x32 PUSH1 0x4 MSTORE PUSH1 0x24 PUSH1 0x0 REVERT JUMPDEST PUSH4 0x4E487B71 PUSH1 0xE0 SHL PUSH1 0x0 MSTORE PUSH1 0x11 PUSH1 0x4 MSTORE PUSH1 0x24 PUSH1 0x0 REVERT JUMPDEST PUSH1 0x0 PUSH1 0x0 NOT DUP3 EQ ISZERO PUSH2 0x3182 JUMPI PUSH2 0x3182 PUSH2 0x3158 JUMP JUMPDEST POP PUSH1 0x1 ADD SWAP1 JUMP JUMPDEST PUSH1 0x0 DUP3 DUP3 LT ISZERO PUSH2 0x319B JUMPI PUSH2 0x319B PUSH2 0x3158 JUMP JUMPDEST POP SUB SWAP1 JUMP JUMPDEST PUSH1 0x0 DUP3 NOT DUP3 GT ISZERO PUSH2 0x31B3 JUMPI PUSH2 0x31B3 PUSH2 0x3158 JUMP JUMPDEST POP ADD SWAP1 JUMP JUMPDEST PUSH4 0x4E487B71 PUSH1 0xE0 SHL PUSH1 0x0 MSTORE PUSH1 0x31 PUSH1 0x4 MSTORE PUSH1 0x24 PUSH1 0x0 REVERT JUMPDEST PUSH1 0x0 PUSH1 0x20 DUP3 DUP5 SUB SLT ISZERO PUSH2 0x31E0 JUMPI PUSH1 0x0 DUP1 REVERT JUMPDEST PUSH2 0x2E7D DUP3 PUSH2 0x2EE8 JUMP JUMPDEST PUSH1 0x0 PUSH1 0x20 DUP3 DUP5 SUB SLT ISZERO PUSH2 0x31FB JUMPI PUSH1 0x0 DUP1 REVERT JUMPDEST PUSH2 0x2E7D DUP3 PUSH2 0x2ED9 JUMP JUMPDEST PUSH4 0x4E487B71 PUSH1 0xE0 SHL PUSH1 0x0 MSTORE PUSH1 0x41 PUSH1 0x4 MSTORE PUSH1 0x24 PUSH1 0x0 REVERT JUMPDEST PUSH1 0x1 DUP2 DUP2 SHR SWAP1 DUP3 AND DUP1 PUSH2 0x322E JUMPI PUSH1 0x7F DUP3 AND SWAP2 POP JUMPDEST PUSH1 0x20 DUP3 LT DUP2 EQ ISZERO PUSH2 0x324F JUMPI PUSH4 0x4E487B71 PUSH1 0xE0 SHL PUSH1 0x0 MSTORE PUSH1 0x22 PUSH1 0x4 MSTORE PUSH1 0x24 PUSH1 0x0 REVERT JUMPDEST POP SWAP2 SWAP1 POP JUMP JUMPDEST PUSH4 0x4E487B71 PUSH1 0xE0 SHL PUSH1 0x0 MSTORE PUSH1 0x12 PUSH1 0x4 MSTORE PUSH1 0x24 PUSH1 0x0 REVERT JUMPDEST PUSH1 0x0 DUP3 PUSH2 0x327A JUMPI PUSH2 0x327A PUSH2 0x3255 JUMP JUMPDEST POP DIV SWAP1 JUMP JUMPDEST PUSH1 0x0 DUP1 DUP3 SLT DUP1 ISZERO PUSH1 0x1 PUSH1 0x1 PUSH1 0xFF SHL SUB DUP5 SWAP1 SUB DUP6 SGT AND ISZERO PUSH2 0x32A1 JUMPI PUSH2 0x32A1 PUSH2 0x3158 JUMP JUMPDEST PUSH1 0x1 PUSH1 0xFF SHL DUP4 SWAP1 SUB DUP5 SLT DUP2 AND ISZERO PUSH2 0x32BA JUMPI PUSH2 0x32BA PUSH2 0x3158 JUMP JUMPDEST POP POP ADD SWAP1 JUMP JUMPDEST PUSH1 0x0 PUSH1 0x1 PUSH1 0x1 PUSH1 0xFF SHL SUB DUP2 DUP5 SGT DUP3 DUP5 SGT DUP1 DUP3 AND DUP7 DUP5 DIV DUP7 GT AND ISZERO PUSH2 0x32E6 JUMPI PUSH2 0x32E6 PUSH2 0x3158 JUMP JUMPDEST PUSH1 0x1 PUSH1 0xFF SHL PUSH1 0x0 DUP8 SLT DUP3 DUP2 AND DUP8 DUP4 SDIV DUP10 SLT AND ISZERO PUSH2 0x3305 JUMPI PUSH2 0x3305 PUSH2 0x3158 JUMP JUMPDEST PUSH1 0x0 DUP8 SLT SWAP3 POP DUP8 DUP3 SDIV DUP8 SLT DUP5 DUP5 AND AND ISZERO PUSH2 0x3321 JUMPI PUSH2 0x3321 PUSH2 0x3158 JUMP JUMPDEST DUP8 DUP6 SDIV DUP8 SLT DUP2 DUP5 AND AND ISZERO PUSH2 0x3337 JUMPI PUSH2 0x3337 PUSH2 0x3158 JUMP JUMPDEST POP POP POP SWAP3 SWAP1 SWAP4 MUL SWAP4 SWAP3 POP POP POP JUMP JUMPDEST PUSH1 0x0 DUP3 PUSH2 0x3354 JUMPI PUSH2 0x3354 PUSH2 0x3255 JUMP JUMPDEST PUSH1 0x1 PUSH1 0xFF SHL DUP3 EQ PUSH1 0x0 NOT DUP5 EQ AND ISZERO PUSH2 0x336E JUMPI PUSH2 0x336E PUSH2 0x3158 JUMP JUMPDEST POP SDIV SWAP1 JUMP JUMPDEST PUSH1 0x0 DUP1 DUP4 SLT DUP1 ISZERO PUSH1 0x1 PUSH1 0xFF SHL DUP6 ADD DUP5 SLT AND ISZERO PUSH2 0x3391 JUMPI PUSH2 0x3391 PUSH2 0x3158 JUMP JUMPDEST PUSH1 0x1 PUSH1 0x1 PUSH1 0xFF SHL SUB DUP5 ADD DUP4 SGT DUP2 AND ISZERO PUSH2 0x33AC JUMPI PUSH2 0x33AC PUSH2 0x3158 JUMP JUMPDEST POP POP SUB SWAP1 JUMP JUMPDEST PUSH1 0x0 PUSH1 0x20 DUP3 DUP5 SUB SLT ISZERO PUSH2 0x33C4 JUMPI PUSH1 0x0 DUP1 REVERT JUMPDEST POP MLOAD SWAP2 SWAP1 POP JUMP JUMPDEST PUSH1 0x0 DUP2 PUSH1 0x0 NOT DIV DUP4 GT DUP3 ISZERO ISZERO AND ISZERO PUSH2 0x33E5 JUMPI PUSH2 0x33E5 PUSH2 0x3158 JUMP JUMPDEST POP MUL SWAP1 JUMP JUMPDEST PUSH1 0x0 PUSH1 0x20 DUP3 DUP5 SUB SLT ISZERO PUSH2 0x33FC JUMPI PUSH1 0x0 DUP1 REVERT JUMPDEST DUP2 MLOAD PUSH2 0x2E7D DUP2 PUSH2 0x2FA7 JUMP JUMPDEST PUSH1 0x0 PUSH12 0xFFFFFFFFFFFFFFFFFFFFFFFF NOT DUP1 DUP9 PUSH1 0x60 SHL AND DUP4 MSTORE DUP1 DUP8 PUSH1 0x60 SHL AND PUSH1 0x14 DUP5 ADD MSTORE POP PUSH2 0xFFFF PUSH1 0xF0 SHL DUP6 PUSH1 0xF0 SHL AND PUSH1 0x28 DUP4 ADD MSTORE DUP4 MLOAD PUSH2 0x344E DUP2 PUSH1 0x2A DUP6 ADD PUSH1 0x20 DUP9 ADD PUSH2 0x300A JUMP JUMPDEST PUSH1 0x2A SWAP3 ADD SWAP2 DUP3 ADD SWAP3 SWAP1 SWAP3 MSTORE PUSH1 0x4A ADD SWAP6 SWAP5 POP POP POP POP POP JUMP JUMPDEST PUSH1 0x0 PUSH5 0xFFFFFFFFFF DUP1 DUP5 AND DUP1 PUSH2 0x347D JUMPI PUSH2 0x347D PUSH2 0x3255 JUMP JUMPDEST SWAP3 AND SWAP2 SWAP1 SWAP2 DIV SWAP3 SWAP2 POP POP JUMP JUMPDEST PUSH1 0x0 DUP3 PUSH2 0x3498 JUMPI PUSH2 0x3498 PUSH2 0x3255 JUMP JUMPDEST POP MOD SWAP1 JUMP INVALID LOG2 PUSH5 0x6970667358 0x22 SLT KECCAK256 SWAP11 0x2E SLOAD RETURNDATACOPY PUSH17 0xA248B4DB85D33C916F397725397821FFD5 DUP15 PUSH29 0x35E03FED2538112864736F6C6343000809003300000000000000000000 "},"methodIdentifiers":{"addERC20Contract(address)":"ab7e0909","cancelSubscription((bytes32,uint256,address,address,bool,bool,uint8,uint16,string))":"094f9977","changeAdmin(address)":"8f283970","changeFee(uint256)":"6a1db1bf","changeFixedFee(uint256)":"8e83ac4a","changeMaxGasPrice(uint256)":"3816377e","changeMaxRemits(uint256)":"27ea9773","chargeSubs()":"dc700089","createSubscription(uint256,address,string,uint8,uint16)":"3084f79e","getAccountSubscriptions(bool)":"6605ac0d","getFee()":"ced72f87","getProviderSubscriptions()":"e8763a8b","removeERC20Contract(address)":"053149fa","subscribe((bytes32,uint256,address,address,bool,bool,uint8,uint16,string))":"a429131a","toggleContractActive()":"1385d24c","unixToDays(uint256)":"93bc8413","unsubscribe(bytes32)":"f8c60146"}}}}}