{"contracts/Clocktower.sol":{"Clocktower":{"abi":[{"inputs":[],"stateMutability":"payable","type":"constructor"},{"anonymous":false,"inputs":[{"indexed":false,"internalType":"string","name":"output4","type":"string"}],"name":"AccountCreated","type":"event"},{"anonymous":false,"inputs":[{"indexed":false,"internalType":"string","name":"output2","type":"string"}],"name":"CheckStatus","type":"event"},{"anonymous":false,"inputs":[{"indexed":false,"internalType":"address","name":"user","type":"address"},{"indexed":false,"internalType":"uint256","name":"amount","type":"uint256"}],"name":"ReceiveETH","type":"event"},{"anonymous":false,"inputs":[{"indexed":false,"internalType":"string","name":"output","type":"string"}],"name":"StatusEmit","type":"event"},{"anonymous":false,"inputs":[{"indexed":false,"internalType":"address","name":"sender","type":"address"},{"indexed":false,"internalType":"address","name":"receiver","type":"address"},{"indexed":false,"internalType":"uint40","name":"timeTrigger","type":"uint40"},{"indexed":false,"internalType":"uint256","name":"payload","type":"uint256"}],"name":"TransactionAdd","type":"event"},{"anonymous":false,"inputs":[{"indexed":false,"internalType":"bool","name":"sent","type":"bool"}],"name":"TransactionSent","type":"event"},{"anonymous":false,"inputs":[{"indexed":false,"internalType":"string","name":"output3","type":"string"}],"name":"UnknownFunction","type":"event"},{"stateMutability":"payable","type":"fallback"},{"inputs":[{"components":[{"internalType":"address payable","name":"receiver","type":"address"},{"internalType":"uint40","name":"unixTime","type":"uint40"},{"internalType":"uint256","name":"payload","type":"uint256"},{"internalType":"address","name":"token","type":"address"}],"internalType":"struct Clocktower.Batch[]","name":"batch","type":"tuple[]"}],"name":"addBatchTransactions","outputs":[],"stateMutability":"payable","type":"function"},{"inputs":[{"internalType":"address","name":"erc20Contract","type":"address"}],"name":"addERC20Contract","outputs":[],"stateMutability":"nonpayable","type":"function"},{"inputs":[{"internalType":"address payable","name":"receiver","type":"address"},{"internalType":"uint40","name":"unixTime","type":"uint40"},{"internalType":"uint256","name":"payload","type":"uint256"},{"internalType":"address","name":"token","type":"address"},{"components":[{"internalType":"address","name":"owner","type":"address"},{"internalType":"address","name":"spender","type":"address"},{"internalType":"uint256","name":"value","type":"uint256"},{"internalType":"uint256","name":"deadline","type":"uint256"},{"internalType":"uint8","name":"v","type":"uint8"},{"internalType":"bytes32","name":"r","type":"bytes32"},{"internalType":"bytes32","name":"s","type":"bytes32"}],"internalType":"struct Clocktower.Permit","name":"permit","type":"tuple"}],"name":"addPermitTransaction","outputs":[],"stateMutability":"payable","type":"function"},{"inputs":[{"internalType":"address payable","name":"receiver","type":"address"},{"internalType":"uint40","name":"unixTime","type":"uint40"},{"internalType":"uint256","name":"payload","type":"uint256"},{"internalType":"address","name":"token","type":"address"}],"name":"addTransaction","outputs":[],"stateMutability":"payable","type":"function"},{"inputs":[],"name":"allAccounts","outputs":[{"components":[{"internalType":"address","name":"accountAddress","type":"address"},{"internalType":"bool","name":"exists","type":"bool"},{"internalType":"uint40[]","name":"timeTriggers","type":"uint40[]"}],"internalType":"struct Clocktower.Account[]","name":"","type":"tuple[]"}],"stateMutability":"view","type":"function"},{"inputs":[],"name":"allTransactions","outputs":[{"components":[{"internalType":"bytes32","name":"id","type":"bytes32"},{"internalType":"address","name":"sender","type":"address"},{"internalType":"address payable","name":"receiver","type":"address"},{"internalType":"address","name":"token","type":"address"},{"internalType":"uint40","name":"timeTrigger","type":"uint40"},{"internalType":"enum Clocktower.Status","name":"status","type":"uint8"},{"internalType":"uint256","name":"payload","type":"uint256"}],"internalType":"struct Clocktower.Transaction[]","name":"","type":"tuple[]"}],"stateMutability":"view","type":"function"},{"inputs":[{"internalType":"bytes32","name":"id","type":"bytes32"},{"internalType":"uint40","name":"unixTrigger","type":"uint40"},{"internalType":"address","name":"token","type":"address"}],"name":"cancelTransaction","outputs":[],"stateMutability":"payable","type":"function"},{"inputs":[{"internalType":"address","name":"newAddress","type":"address"}],"name":"changeAdmin","outputs":[],"stateMutability":"nonpayable","type":"function"},{"inputs":[{"internalType":"uint256","name":"_fee","type":"uint256"}],"name":"changeFee","outputs":[],"stateMutability":"nonpayable","type":"function"},{"inputs":[{"internalType":"uint256","name":"_fixed_fee","type":"uint256"}],"name":"changeFixedFee","outputs":[],"stateMutability":"nonpayable","type":"function"},{"inputs":[],"name":"checkTime","outputs":[{"internalType":"bool","name":"","type":"bool"}],"stateMutability":"view","type":"function"},{"inputs":[],"name":"getAccountTransactions","outputs":[{"components":[{"internalType":"bytes32","name":"id","type":"bytes32"},{"internalType":"address","name":"sender","type":"address"},{"internalType":"address payable","name":"receiver","type":"address"},{"internalType":"address","name":"token","type":"address"},{"internalType":"uint40","name":"timeTrigger","type":"uint40"},{"internalType":"enum Clocktower.Status","name":"status","type":"uint8"},{"internalType":"uint256","name":"payload","type":"uint256"}],"internalType":"struct Clocktower.Transaction[]","name":"","type":"tuple[]"}],"stateMutability":"view","type":"function"},{"inputs":[],"name":"getFee","outputs":[{"internalType":"uint256","name":"","type":"uint256"}],"stateMutability":"view","type":"function"},{"inputs":[],"name":"getTime","outputs":[{"internalType":"uint256","name":"","type":"uint256"}],"stateMutability":"view","type":"function"},{"inputs":[{"internalType":"address","name":"token","type":"address"}],"name":"getTotalClaims","outputs":[{"internalType":"uint256","name":"","type":"uint256"}],"stateMutability":"view","type":"function"},{"inputs":[{"internalType":"address","name":"account","type":"address"}],"name":"getTransactionsByAccount","outputs":[{"components":[{"internalType":"bytes32","name":"id","type":"bytes32"},{"internalType":"address","name":"sender","type":"address"},{"internalType":"address payable","name":"receiver","type":"address"},{"internalType":"address","name":"token","type":"address"},{"internalType":"uint40","name":"timeTrigger","type":"uint40"},{"internalType":"enum Clocktower.Status","name":"status","type":"uint8"},{"internalType":"uint256","name":"payload","type":"uint256"}],"internalType":"struct Clocktower.Transaction[]","name":"","type":"tuple[]"}],"stateMutability":"view","type":"function"},{"inputs":[{"internalType":"address","name":"erc20Contract","type":"address"}],"name":"removeERC20Contract","outputs":[],"stateMutability":"nonpayable","type":"function"},{"inputs":[],"name":"sendTime","outputs":[],"stateMutability":"nonpayable","type":"function"},{"inputs":[],"name":"toggleContractActive","outputs":[],"stateMutability":"nonpayable","type":"function"},{"stateMutability":"payable","type":"receive"}],"evm":{"bytecode":{"linkReferences":{},"object":"6080604052600080546001600160a01b03191673f39fd6e51aad88f6f4ce6ab8827279cfffb9226617905560646001908155662386f26fc10000600255600b805460ff19169055620000514262000085565b6200005d91906200009b565b600b60016101000a81548164ffffffffff021916908364ffffffffff16021790555062000103565b600062000095610e1083620000d0565b92915050565b600064ffffffffff83811690831681811015620000c857634e487b7160e01b600052601160045260246000fd5b039392505050565b600064ffffffffff80841680620000f757634e487b7160e01b600052601260045260246000fd5b92169190910492915050565b6149af80620001136000396000f3fe6080604052600436106101185760003560e01c80638f283970116100a0578063ced72f8711610064578063ced72f871461034f578063cf783d8a14610364578063d10fa14414610386578063dc9961eb14610399578063e0c6190d146103b957610158565b80638f283970146102d2578063a1c06d34146102f2578063aa58a5b014610305578063ab7e09091461031a578063c682cce41461033a57610158565b80632a2b3690116100e75780632a2b369014610259578063557ed1ba1461026c5780636a1db1bf1461027f578063804234441461029f5780638e83ac4a146102b257610158565b8063053149fa146101aa5780631385d24c146101cc57806313b51234146101e15780631ccb33711461023757610158565b3661015857604080513381523460208201527f830d2d700a97af574b186c80d40429385d24241565b08a7c559ba283a964d9b191015b60405180910390a1005b7f19525a32afaad9a5491805c356597487a306fc2f4e8541d8d55e1fe951091e6060405161014e9060208082526010908201526f2ab735b737bbb710333ab731ba34b7b760811b604082015260600190565b3480156101b657600080fd5b506101ca6101c5366004614183565b6103de565b005b3480156101d857600080fd5b506101ca610608565b3480156101ed57600080fd5b506102246101fc366004614183565b3360009081526007602090815260408083206001600160a01b03949094168352929052205490565b6040519081526020015b60405180910390f35b34801561024357600080fd5b5061024c610646565b60405161022e91906141bd565b6101ca61026736600461428a565b610790565b34801561027857600080fd5b5042610224565b34801561028b57600080fd5b506101ca61029a3660046142ca565b6109f6565b6101ca6102ad3660046142e3565b610a25565b3480156102be57600080fd5b506101ca6102cd3660046142ca565b610e06565b3480156102de57600080fd5b506101ca6102ed366004614183565b610e35565b6101ca610300366004614334565b610eaa565b34801561031157600080fd5b506101ca611313565b34801561032657600080fd5b506101ca610335366004614183565b6114e5565b34801561034657600080fd5b5061024c6115ca565b34801561035b57600080fd5b50600154610224565b34801561037057600080fd5b50610379611aae565b60405161022e91906143a3565b6101ca6103943660046144cf565b611c6d565b3480156103a557600080fd5b5061024c6103b4366004614183565b61286c565b3480156103c557600080fd5b506103ce612d79565b604051901515815260200161022e565b6000546001600160a01b031633146104115760405162461bcd60e51b8152600401610408906145ca565b60405180910390fd5b6001600160a01b03811661042457600080fd5b61042d81612f31565b6104795760405162461bcd60e51b815260206004820152601960248201527f455243323020746f6b656e206e6f7420616464656420796574000000000000006044820152606401610408565b6000600a8054806020026020016040519081016040528092919081815260200182805480156104d157602002820191906000526020600020905b81546001600160a01b031681526001909101906020018083116104b3575b505050505090506000805b825181101561053257836001600160a01b031683828151811061050157610501614601565b60200260200101516001600160a01b0316141561052057809150610532565b8061052a8161462d565b9150506104dc565b50805b600a5461054490600190614648565b8110156105cf57600a61055882600161465f565b8154811061056857610568614601565b600091825260209091200154600a80546001600160a01b03909216918390811061059457610594614601565b600091825260209091200180546001600160a01b0319166001600160a01b0392909216919091179055806105c78161462d565b915050610535565b50600a8054806105e1576105e1614677565b600082815260209020810160001990810180546001600160a01b0319169055019055505050565b6000546001600160a01b031633146106325760405162461bcd60e51b8152600401610408906145ca565b600b805460ff19811660ff90911615179055565b6000546060906001600160a01b031633146106735760405162461bcd60e51b8152600401610408906145ca565b60065460009067ffffffffffffffff8111156106915761069161445f565b6040519080825280602002602001820160405280156106ca57816020015b6106b7614085565b8152602001906001900390816106af5790505b5090506000805b60045481101561078857600061070d600483815481106106f3576106f3614601565b6000918252602090912001546001600160a01b031661286c565b905060005b81518110156107735781818151811061072d5761072d614601565b602002602001015185858151811061074757610747614601565b6020026020010181905250838061075d9061462d565b945050808061076b9061462d565b915050610712565b505080806107809061462d565b9150506106d1565b509091505090565b600061079b83612ff2565b64ffffffffff8116600090815260056020908152604080832080548251818502810185019093528083529495509293909291849084015b828210156108915760008481526020908190206040805160e081018252600586029092018054835260018101546001600160a01b039081169484019490945260028101548416918301919091526003808201549384166060840152600160a01b840464ffffffffff1660808401529192909160a0840191600160c81b900460ff1690811115610863576108636141a7565b6003811115610874576108746141a7565b8152602001600482015481525050815260200190600101906107d2565b50505050905061089f614085565b60005b825181101561090357868382815181106108be576108be614601565b60200260200101516000015114156108f1578281815181106108e2576108e2614601565b60200260200101519150610903565b806108fb8161462d565b9150506108a2565b5061091681600001518260800151613006565b6001600160a01b038416156109685760c08101513360009081526007602090815260408083206001600160a01b03891684529091528120805490919061095d908490614648565b909155506109ee9050565b60c08101513360009081526007602090815260408083206001600160a01b0389168452909152812080549091906109a0908490614648565b909155505060c081015147116109b557600080fd5b80602001516001600160a01b03166108fc8260c001519081150290604051600060405180830381858888f193505050506109ee57600080fd5b505050505050565b6000546001600160a01b03163314610a205760405162461bcd60e51b8152600401610408906145ca565b600155565b600b5460ff16610e0057428364ffffffffff1611610a555760405162461bcd60e51b81526004016104089061468d565b610a61610e10846146da565b64ffffffffff1615610a855760405162461bcd60e51b8152600401610408906146fe565b6001600160a01b038116610ad15734606460015484610aa49190614735565b610aae9190614754565b1115610acc5760405162461bcd60e51b815260040161040890614768565b610be4565b346002541115610af35760405162461bcd60e51b815260040161040890614768565b610afc81612f31565b610b185760405162461bcd60e51b8152600401610408906147ac565b3360009081526007602090815260408083206001600160a01b0385168452909152902054610b4790839061465f565b604051636eb1769f60e11b81523360048201523060248201526001600160a01b0383169063dd62ed3e90604401602060405180830381600087803b158015610b8e57600080fd5b505af1158015610ba2573d6000803e3d6000fd5b505050506040513d601f19601f82011682018060405250810190610bc691906147f1565b1015610be45760405162461bcd60e51b81526004016104089061480a565b6000610bef84612ff2565b90506000610c0033878585886133a2565b64ffffffffff8084166000908152600560208181526040808420805460018181018355918652948390208751959094029093019384559085015191830180546001600160a01b039384166001600160a01b03199182161790915590850151600284018054918416919092161790556060840151600380840180546080880151909616600160a01b026001600160c81b031990961692909316919091179390931780825560a08501519495508594929360ff60c81b1990911690600160c81b908490811115610cd057610cd06141a7565b021790555060c09190910151600490910155604080513381526001600160a01b038816602082015264ffffffffff8416818301526060810186905290517f6e643cb89831cd75ded50b4ecee0e313701b6002fc48e8b80a3c05447ab066e89181900360800190a17f2c06bed8138ca0b30c30e7fa7c205e13fbb1c8678af7ff308ebd77eee8459c87604051610d7f90602080825260069082015265141d5cda195960d21b604082015260600190565b60405180910390a18051600680546001810182556000919091527ff652222313e28459528d920b65115c16c04f3efc82aaedc97be59f3f377c0d3f0155610dc582613470565b3360009081526007602090815260408083206001600160a01b038716845290915281208054869290610df890849061465f565b909155505050505b50505050565b6000546001600160a01b03163314610e305760405162461bcd60e51b8152600401610408906145ca565b600255565b6000546001600160a01b03163314610e5f5760405162461bcd60e51b8152600401610408906145ca565b336001600160a01b038216148015610e7f57506001600160a01b03811615155b610e8857600080fd5b600080546001600160a01b0319166001600160a01b0392909216919091179055565b600b5460ff1661130c57428464ffffffffff1611610eda5760405162461bcd60e51b81526004016104089061468d565b610ee6610e10856146da565b64ffffffffff1615610f0a5760405162461bcd60e51b8152600401610408906146fe565b6001600160a01b038216610f565734606460015485610f299190614735565b610f339190614754565b1115610f515760405162461bcd60e51b815260040161040890614768565b61100f565b346002541115610f785760405162461bcd60e51b815260040161040890614768565b610f8182612f31565b610f9d5760405162461bcd60e51b8152600401610408906147ac565b806040013583111561100f5760405162461bcd60e51b815260206004820152603560248201527f5061796c6f6164206d757374206265206c657373207468616e206f7220657175604482015274185b081d1bc81d985b1d59481c195c9b5a5d1d1959605a1b6064820152608401610408565b600061101a85612ff2565b9050600061102b33888685896133a2565b64ffffffffff8084166000908152600560208181526040808420805460018181018355918652948390208751959094029093019384559085015191830180546001600160a01b039384166001600160a01b03199182161790915590850151600284018054918416919092161790556060840151600380840180546080880151909616600160a01b026001600160c81b031990961692909316919091179390931780825560a08501519495508594929360ff60c81b1990911690600160c81b9084908111156110fb576110fb6141a7565b021790555060c09190910151600490910155604080513381526001600160a01b038916602082015264ffffffffff8416818301526060810187905290517f6e643cb89831cd75ded50b4ecee0e313701b6002fc48e8b80a3c05447ab066e89181900360800190a17f2c06bed8138ca0b30c30e7fa7c205e13fbb1c8678af7ff308ebd77eee8459c876040516111aa90602080825260069082015265141d5cda195960d21b604082015260600190565b60405180910390a18051600680546001810182556000919091527ff652222313e28459528d920b65115c16c04f3efc82aaedc97be59f3f377c0d3f01556111f082613470565b3360009081526007602090815260408083206001600160a01b03881684529091528120805487929061122390849061465f565b90915550506001600160a01b03841615611309576001600160a01b03841663d505accf6112536020860186614183565b6112636040870160208801614183565b6040870135606088013561127d60a08a0160808b0161485f565b6040516001600160e01b031960e088901b1681526001600160a01b0395861660048201529490931660248501526044840191909152606483015260ff16608482015260a086013560a482015260c086013560c482015260e401600060405180830381600087803b1580156112f057600080fd5b505af1158015611304573d6000803e3d6000fd5b505050505b50505b5050505050565b6000546001600160a01b0316331461133d5760405162461bcd60e51b8152600401610408906145ca565b600061134842612ff2565b600b5490915064ffffffffff61010090910481169082161161137c5760405162461bcd60e51b815260040161040890614882565b600b54610100900464ffffffffff165b8164ffffffffff168164ffffffffff16116114c05764ffffffffff8116600090815260056020908152604080832080548251818502810185019093528083529192909190849084015b828210156114945760008481526020908190206040805160e081018252600586029092018054835260018101546001600160a01b039081169484019490945260028101548416918301919091526003808201549384166060840152600160a01b840464ffffffffff1660808401529192909160a0840191600160c81b900460ff1690811115611466576114666141a7565b6003811115611477576114776141a7565b8152602001600482015481525050815260200190600101906113d5565b5050505090506000815111156114ad576114ad81613626565b50806114b8816148c9565b91505061138c565b50600b805464ffffffffff9092166101000265ffffffffff0019909216919091179055565b6000546001600160a01b0316331461150f5760405162461bcd60e51b8152600401610408906145ca565b6001600160a01b03811661152257600080fd5b61152b81612f31565b156115785760405162461bcd60e51b815260206004820152601960248201527f455243323020746f6b656e20616c7265616479206164646564000000000000006044820152606401610408565b600a80546001810182556000919091527fc65a7bb8d6351c1cf70c95a316cc6a92839c986682d98bc35f958f4883f9d2a80180546001600160a01b0319166001600160a01b0392909216919091179055565b33600090815260036020908152604080832060010180548251818502810185019093528083526060949383018282801561165157602002820191906000526020600020906000905b82829054906101000a900464ffffffffff1664ffffffffff16815260200190600501906020826004010492830192600103820291508084116116125790505b505050505090506000805b82518110156117a95760006005600085848151811061167d5761167d614601565b602002602001015164ffffffffff1664ffffffffff168152602001908152602001600020805480602002602001604051908101604052809291908181526020016000905b828210156117805760008481526020908190206040805160e081018252600586029092018054835260018101546001600160a01b039081169484019490945260028101548416918301919091526003808201549384166060840152600160a01b840464ffffffffff1660808401529192909160a0840191600160c81b900460ff1690811115611752576117526141a7565b6003811115611763576117636141a7565b8152602001600482015481525050815260200190600101906116c1565b505050509050805183611793919061465f565b92505080806117a19061462d565b91505061165c565b5060008167ffffffffffffffff8111156117c5576117c561445f565b6040519080825280602002602001820160405280156117fe57816020015b6117eb614085565b8152602001906001900390816117e35790505b50905060008267ffffffffffffffff81111561181c5761181c61445f565b60405190808252806020026020018201604052801561185557816020015b611842614085565b81526020019060019003908161183a5790505b5090506000805b8551811015611a32576005600087838151811061187b5761187b614601565b602002602001015164ffffffffff1664ffffffffff168152602001908152602001600020805480602002602001604051908101604052809291908181526020016000905b8282101561197e5760008481526020908190206040805160e081018252600586029092018054835260018101546001600160a01b039081169484019490945260028101548416918301919091526003808201549384166060840152600160a01b840464ffffffffff1660808401529192909160a0840191600160c81b900460ff1690811115611950576119506141a7565b6003811115611961576119616141a7565b8152602001600482015481525050815260200190600101906118bf565b50505050935060005b8451811015611a1f57336001600160a01b03168582815181106119ac576119ac614601565b6020026020010151602001516001600160a01b03161415611a0d578481815181106119d9576119d9614601565b60200260200101518484815181106119f3576119f3614601565b60200260200101819052508280611a099061462d565b9350505b80611a178161462d565b915050611987565b5080611a2a8161462d565b91505061185c565b5060005b8251811015611aa357611a65838281518110611a5457611a54614601565b602002602001015160800151613dea565b838281518110611a7757611a77614601565b602090810291909101015164ffffffffff90911660809091015280611a9b8161462d565b915050611a36565b509095945050505050565b6000546060906001600160a01b03163314611adb5760405162461bcd60e51b8152600401610408906145ca565b60045460009067ffffffffffffffff811115611af957611af961445f565b604051908082528060200260200182016040528015611b4657816020015b60408051606080820183526000808352602083015291810191909152815260200190600190039081611b175790505b50905060005b600454811015611c67576003600060048381548110611b6d57611b6d614601565b6000918252602080832091909101546001600160a01b039081168452838201949094526040928301909120825160608101845281549485168152600160a01b90940460ff1615158483015260018101805484518185028101850186528181529294860193830182828015611c2e57602002820191906000526020600020906000905b82829054906101000a900464ffffffffff1664ffffffffff1681526020019060050190602082600401049283019260010382029150808411611bef5790505b505050505081525050828281518110611c4957611c49614601565b60200260200101819052508080611c5f9061462d565b915050611b4c565b50905090565b600b5460ff166128695760018151118015611c89575060648151105b611cfb5760405162461bcd60e51b815260206004820152603b60248201527f4261746368206d7573742068617665206d6f7265207468616e206f6e6520747260448201527f616e73616374696f6e20616e64206c657373207468616e2031303000000000006064820152608401610408565b611d266040518060800160405280600081526020016000815260200160008152602001606081525090565b348251600254611d369190614735565b1115611d545760405162461bcd60e51b815260040161040890614768565b600a5460009067ffffffffffffffff811115611d7257611d7261445f565b604051908082528060200260200182016040528015611d9b578160200160208202803683370190505b503360009081526003602052604081206001015491925090611dbe90606461465f565b67ffffffffffffffff811115611dd657611dd661445f565b604051908082528060200260200182016040528015611dff578160200160208202803683370190505b50905060005b84518110156122d85742858281518110611e2157611e21614601565b60200260200101516020015164ffffffffff1611611e515760405162461bcd60e51b81526004016104089061468d565b610e10858281518110611e6657611e66614601565b602002602001015160200151611e7c91906146da565b64ffffffffff1615611ea05760405162461bcd60e51b8152600401610408906146fe565b6000611ec8868381518110611eb757611eb7614601565b602002602001015160200151612ff2565b9050611ed48184613df8565b611f22578083866040015181518110611eef57611eef614601565b602002602001019064ffffffffff16908164ffffffffff1681525050600185604001818151611f1e919061465f565b9052505b60006001600160a01b0316868381518110611f3f57611f3f614601565b6020026020010151606001516001600160a01b03161415611f9157858281518110611f6c57611f6c614601565b60200260200101516040015185600001818151611f89919061465f565b9052506121b6565b611fb7868381518110611fa657611fa6614601565b602002602001015160600151612f31565b611fd35760405162461bcd60e51b8152600401610408906147ac565b858281518110611fe557611fe5614601565b60200260200101516040015160076000336001600160a01b03166001600160a01b03168152602001908152602001600020600088858151811061202a5761202a614601565b6020026020010151606001516001600160a01b03166001600160a01b0316815260200190815260200160002054612061919061465f565b86838151811061207357612073614601565b602090810291909101015160600151604051636eb1769f60e11b81523360048201523060248201526001600160a01b039091169063dd62ed3e90604401602060405180830381600087803b1580156120ca57600080fd5b505af11580156120de573d6000803e3d6000fd5b505050506040513d601f19601f8201168201806040525081019061210291906147f1565b10156121205760405162461bcd60e51b81526004016104089061480a565b61214786838151811061213557612135614601565b60200260200101516060015185613e5a565b6121b65785828151811061215d5761215d614601565b6020026020010151606001518486602001518151811061217f5761217f614601565b60200260200101906001600160a01b031690816001600160a01b0316815250506001856020018181516121b2919061465f565b9052505b8582815181106121c8576121c8614601565b602002602001015160400151600860008885815181106121ea576121ea614601565b6020026020010151606001516001600160a01b03166001600160a01b031681526020019081526020016000206000828254612225919061465f565b9250508190555085828151811061223e5761223e614601565b60200260200101516040015160076000336001600160a01b03166001600160a01b03168152602001908152602001600020600088858151811061228357612283614601565b6020026020010151606001516001600160a01b03166001600160a01b0316815260200190815260200160002060008282546122be919061465f565b909155508291506122d090508161462d565b915050611e05565b34606460015486600001516122ed9190614735565b6122f79190614754565b11156123155760405162461bcd60e51b815260040161040890614768565b5060005b815181101561257d5781818151811061233457612334614601565b602002602001015164ffffffffff16600014156123505761257d565b60005b85518161ffff16101561256a57600061237b878361ffff1681518110611eb757611eb7614601565b905083838151811061238f5761238f614601565b602002602001015164ffffffffff168164ffffffffff16141561255757600061241e33898561ffff16815181106123c8576123c8614601565b6020026020010151600001518a8661ffff16815181106123ea576123ea614601565b602002602001015160600151858c8861ffff168151811061240d5761240d614601565b6020026020010151604001516133a2565b9050806005600087878151811061243757612437614601565b60209081029190910181015164ffffffffff908116835282820193909352604091820160009081208054600181810183559183529183902086516005909302019182559185015191810180546001600160a01b039384166001600160a01b0319918216179091559285015160028201805491841691909416179092556060840151600380840180546080880151909616600160a01b026001600160c81b031990961692909316919091179390931780825560a0850151929360ff60c81b1990911690600160c81b908490811115612510576125106141a7565b021790555060c0919091015160049091015551600680546001810182556000919091527ff652222313e28459528d920b65115c16c04f3efc82aaedc97be59f3f377c0d3f01555b5080612562816148ee565b915050612353565b50806125758161462d565b915050612319565b5060005b82518110156127db5760006001600160a01b03168382815181106125a7576125a7614601565b60200260200101516001600160a01b03161461278457600860008483815181106125d3576125d3614601565b60200260200101516001600160a01b03166001600160a01b031681526020019081526020016000205483828151811061260e5761260e614601565b6020908102919091010151604051636eb1769f60e11b81523360048201523060248201526001600160a01b039091169063dd62ed3e90604401602060405180830381600087803b15801561266157600080fd5b505af1158015612675573d6000803e3d6000fd5b505050506040513d601f19601f8201168201806040525081019061269991906147f1565b1015801561277b5750600860008483815181106126b8576126b8614601565b60200260200101516001600160a01b03166001600160a01b03168152602001908152602001600020548382815181106126f3576126f3614601565b60209081029190910101516040516370a0823160e01b81523360048201526001600160a01b03909116906370a0823190602401602060405180830381600087803b15801561274057600080fd5b505af1158015612754573d6000803e3d6000fd5b505050506040513d601f19601f8201168201806040525081019061277891906147f1565b10155b61278457600080fd5b60006008600085848151811061279c5761279c614601565b60200260200101516001600160a01b03166001600160a01b031681526020019081526020016000208190555080806127d39061462d565b915050612581565b33600090815260036020526040902054600160a01b900460ff1661130c5733600081815260036020526040812080546001600160a01b03199081168417825560048054600181019091557f8a35acfbc15ff81a39ae7d344fd709f28e8600b4aa8c65c6b64bfe7fe36bd19b01805490911684179055919052805460ff60a01b1916600160a01b179055505050505b50565b6000546060906001600160a01b031633146128995760405162461bcd60e51b8152600401610408906145ca565b6001600160a01b03821660009081526003602090815260408083206001018054825181850281018501909352808352919290919083018282801561292a57602002820191906000526020600020906000905b82829054906101000a900464ffffffffff1664ffffffffff16815260200190600501906020826004010492830192600103820291508084116128eb5790505b505050505090506000805b8251811015612a825760006005600085848151811061295657612956614601565b602002602001015164ffffffffff1664ffffffffff168152602001908152602001600020805480602002602001604051908101604052809291908181526020016000905b82821015612a595760008481526020908190206040805160e081018252600586029092018054835260018101546001600160a01b039081169484019490945260028101548416918301919091526003808201549384166060840152600160a01b840464ffffffffff1660808401529192909160a0840191600160c81b900460ff1690811115612a2b57612a2b6141a7565b6003811115612a3c57612a3c6141a7565b81526020016004820154815250508152602001906001019061299a565b505050509050805183612a6c919061465f565b9250508080612a7a9061462d565b915050612935565b5060008167ffffffffffffffff811115612a9e57612a9e61445f565b604051908082528060200260200182016040528015612ad757816020015b612ac4614085565b815260200190600190039081612abc5790505b50905060008267ffffffffffffffff811115612af557612af561445f565b604051908082528060200260200182016040528015612b2e57816020015b612b1b614085565b815260200190600190039081612b135790505b5090506000805b8551811015612d0b5760056000878381518110612b5457612b54614601565b602002602001015164ffffffffff1664ffffffffff168152602001908152602001600020805480602002602001604051908101604052809291908181526020016000905b82821015612c575760008481526020908190206040805160e081018252600586029092018054835260018101546001600160a01b039081169484019490945260028101548416918301919091526003808201549384166060840152600160a01b840464ffffffffff1660808401529192909160a0840191600160c81b900460ff1690811115612c2957612c296141a7565b6003811115612c3a57612c3a6141a7565b815260200160048201548152505081526020019060010190612b98565b50505050935060005b8451811015612cf857886001600160a01b0316858281518110612c8557612c85614601565b6020026020010151602001516001600160a01b03161415612ce657848181518110612cb257612cb2614601565b6020026020010151848481518110612ccc57612ccc614601565b60200260200101819052508280612ce29061462d565b9350505b80612cf08161462d565b915050612c60565b5080612d038161462d565b915050612b35565b5060005b8251811015612d6b57612d2d838281518110611a5457611a54614601565b838281518110612d3f57612d3f614601565b602090810291909101015164ffffffffff90911660809091015280612d638161462d565b915050612d0f565b50909450505050505b919050565b600080546001600160a01b03163314612da45760405162461bcd60e51b8152600401610408906145ca565b6000612daf42612ff2565b600b5490915064ffffffffff610100909104811690821611612de35760405162461bcd60e51b815260040161040890614882565b600b54610100900464ffffffffff165b8164ffffffffff168164ffffffffff1611612f285764ffffffffff8116600090815260056020908152604080832080548251818502810185019093528083529192909190849084015b82821015612efb5760008481526020908190206040805160e081018252600586029092018054835260018101546001600160a01b039081169484019490945260028101548416918301919091526003808201549384166060840152600160a01b840464ffffffffff1660808401529192909160a0840191600160c81b900460ff1690811115612ecd57612ecd6141a7565b6003811115612ede57612ede6141a7565b815260200160048201548152505081526020019060010190612e3c565b505050509050600081511115612f15576001935050505090565b5080612f20816148c9565b915050612df3565b50600091505090565b600080600a805480602002602001604051908101604052809291908181526020018280548015612f8a57602002820191906000526020600020905b81546001600160a01b03168152600190910190602001808311612f6c575b505050505090506000915060005b8151811015612feb57818181518110612fb357612fb3614601565b60200260200101516001600160a01b0316846001600160a01b03161415612fd957600192505b80612fe38161462d565b915050612f98565b5050919050565b6000613000610e1083614906565b92915050565b64ffffffffff8116600090815260056020526040902054600114156130515764ffffffffff81166000908152600560205260408120613044916140c2565b61304d81613eb6565b5050565b64ffffffffff811660009081526005602052604081209080805b835481101561315c57336001600160a01b031684828154811061309057613090614601565b60009182526020909120600160059092020101546001600160a01b031614156130c157816130bd8161462d565b9250505b858482815481106130d4576130d4614601565b906000526020600020906005020160000154141561314a5780925083818154811061310157613101614601565b6000918252602082206005909102018181556001810180546001600160a01b031990811690915560028201805490911690556003810180546001600160d01b0319169055600401555b806131548161462d565b91505061306b565b508254839061316d90600190614648565b8154811061317d5761317d614601565b906000526020600020906005020183838154811061319d5761319d614601565b60009182526020909120825460059092020190815560018083015490820180546001600160a01b03199081166001600160a01b039384161790915560028085015490840180548316918416919091179055600380850180548286018054948516919095169081178555815464ffffffffff600160a01b9182900416026001600160c81b03199094161792909217808455915460ff600160c81b9182900416939260ff60c81b1916918490811115613256576132566141a7565b0217905550600491820154910155825483908061327557613275614677565b600082815260208120600560001990930192830201818155600181810180546001600160a01b031990811690915560028301805490911690556003820180546001600160d01b031916905560049091019190915591558114156132db576132db84613eb6565b6000805b6006548110156133285786600682815481106132fd576132fd614601565b9060005260206000200154141561331657809150613328565b806133208161462d565b9150506132df565b506006805461333990600190614648565b8154811061334957613349614601565b90600052602060002001546006828154811061336757613367614601565b600091825260209091200155600680548061338457613384614677565b60019003818190600052602060002001600090559055505050505050565b6133aa614085565b6040516bffffffffffffffffffffffff19606088901b1660208201526001600160d81b031960d885901b1660348201524260398201526000906059016040516020818303038152906040528051906020012090506040518060e00160405280828152602001886001600160a01b03168152602001876001600160a01b03168152602001866001600160a01b031681526020018564ffffffffff1681526020016000600381111561345c5761345c6141a7565b815260200184905291505095945050505050565b33600090815260036020526040902054600160a01b900460ff1661353857336000818152600360209081526040822080546001600160a01b0319908116851782556004805460018181019092557f8a35acfbc15ff81a39ae7d344fd709f28e8600b4aa8c65c6b64bfe7fe36bd19b01805490921690951790558054600160a01b60ff60a01b199091161781558301805493840181558252902060068083049091018054919092066005026101000a64ffffffffff818102199092169390911602919091179055565b336000908152600360209081526040808320600101805482518185028101850190935280835291929091908301828280156135c057602002820191906000526020600020906000905b82829054906101000a900464ffffffffff1664ffffffffff16815260200190600501906020826004010492830192600103820291508084116135815790505b505050505090506135d18282613df8565b61304d575033600090815260036020908152604082206001908101805491820181558352912060068083049091018054919092066005026101000a64ffffffffff818102199092169390911602919091179055565b600b5460ff16612869576000806000835167ffffffffffffffff81111561364f5761364f61445f565b60405190808252806020026020018201604052801561368857816020015b613675614085565b81526020019060019003908161366d5790505b50905060005b8451811015613a8d5760006001600160a01b03168582815181106136b4576136b4614601565b6020026020010151606001516001600160a01b03161415613744578481815181106136e1576136e1614601565b602002602001015160c00151846136f8919061465f565b935084818151811061370c5761370c614601565b602002602001015182848151811061372657613726614601565b6020026020010181905250828061373c9061462d565b935050613a7b565b84818151811061375657613756614601565b602002602001015160c0015185828151811061377457613774614601565b6020026020010151606001516001600160a01b031663dd62ed3e8784815181106137a0576137a0614601565b60209081029190910181015101516040516001600160e01b031960e084901b1681526001600160a01b039091166004820152306024820152604401602060405180830381600087803b1580156137f557600080fd5b505af1158015613809573d6000803e3d6000fd5b505050506040513d601f19601f8201168201806040525081019061382d91906147f1565b108061391b575084818151811061384657613846614601565b602002602001015160c0015185828151811061386457613864614601565b6020026020010151606001516001600160a01b03166370a0823187848151811061389057613890614601565b6020026020010151602001516040518263ffffffff1660e01b81526004016138c791906001600160a01b0391909116815260200190565b602060405180830381600087803b1580156138e157600080fd5b505af11580156138f5573d6000803e3d6000fd5b505050506040513d601f19601f8201168201806040525081019061391991906147f1565b105b156139ad5760026005600087848151811061393857613938614601565b60200260200101516080015164ffffffffff1664ffffffffff168152602001908152602001600020828154811061397157613971614601565b906000526020600020906005020160030160196101000a81548160ff021916908360038111156139a3576139a36141a7565b0217905550613a7b565b8481815181106139bf576139bf614601565b60200260200101518284815181106139d9576139d9614601565b602002602001018190525082806139ef9061462d565b935050600160056000878481518110613a0a57613a0a614601565b60200260200101516080015164ffffffffff1664ffffffffff1681526020019081526020016000208281548110613a4357613a43614601565b906000526020600020906005020160030160196101000a81548160ff02191690836003811115613a7557613a756141a7565b02179055505b80613a858161462d565b91505061368e565b50824711613aed5760405162461bcd60e51b815260206004820152602760248201527f4e6f7420656e6f7567682045544820746f20636f6d706c657465207472616e73604482015266616374696f6e7360c81b6064820152608401610408565b60005b815181101561130c57818181518110613b0b57613b0b614601565b602002602001015160c0015160076000848481518110613b2d57613b2d614601565b6020026020010151602001516001600160a01b03166001600160a01b031681526020019081526020016000206000848481518110613b6d57613b6d614601565b6020026020010151606001516001600160a01b03166001600160a01b031681526020019081526020016000206000828254613ba89190614648565b90915550508151600090839083908110613bc457613bc4614601565b6020026020010151606001516001600160a01b03161415613cbf576000828281518110613bf357613bf3614601565b6020026020010151604001516001600160a01b03166108fc848481518110613c1d57613c1d614601565b602002602001015160c001519081150290604051600060405180830381858888f19350505050905080613c855760405162461bcd60e51b815260206004820152601060248201526f2a3930b739b332b9103330b4b632b21760811b6044820152606401610408565b604051600181527fa2ea5b0db1d57b0e32df654aa9a1a97bc8066881e37669ff488d2bebe87c9f879060200160405180910390a150613dd8565b818181518110613cd157613cd1614601565b6020026020010151606001516001600160a01b03166323b872dd838381518110613cfd57613cfd614601565b602002602001015160200151848481518110613d1b57613d1b614601565b602002602001015160400151858581518110613d3957613d39614601565b602090810291909101015160c001516040516001600160e01b031960e086901b1681526001600160a01b0393841660048201529290911660248301526044820152606401602060405180830381600087803b158015613d9757600080fd5b505af1158015613dab573d6000803e3d6000fd5b505050506040513d601f19601f82011682018060405250810190613dcf919061492a565b613dd857600080fd5b80613de28161462d565b915050613af0565b600061300082610e1061494c565b6000805b8251811015613e50578364ffffffffff16838281518110613e1f57613e1f614601565b602002602001015164ffffffffff161415613e3e576001915050613000565b80613e488161462d565b915050613dfc565b5060009392505050565b6000805b8251811015613e5057836001600160a01b0316838281518110613e8357613e83614601565b60200260200101516001600160a01b03161415613ea4576001915050613000565b80613eae8161462d565b915050613e5e565b3360009081526003602052604090206001908101541415613eef57336000908152600360205260408120612869916001909101906140e3565b33600090815260036020526040812060010190805b8254811015613fb0578364ffffffffff16838281548110613f2757613f27614601565b90600052602060002090600691828204019190066005029054906101000a900464ffffffffff1664ffffffffff161415613f9e57809150828181548110613f7057613f70614601565b90600052602060002090600691828204019190066005026101000a81549064ffffffffff0219169055613fb0565b80613fa88161462d565b915050613f04565b5081548290613fc190600190614648565b81548110613fd157613fd1614601565b90600052602060002090600691828204019190066005029054906101000a900464ffffffffff1682828154811061400a5761400a614601565b90600052602060002090600691828204019190066005026101000a81548164ffffffffff021916908364ffffffffff1602179055508180548061404f5761404f614677565b60019003818190600052602060002090600691828204019190066005026101000a81549064ffffffffff02191690559055505050565b6040805160e08101825260008082526020820181905291810182905260608101829052608081018290529060a08201908152602001600081525090565b50805460008255600502906000526020600020908101906128699190614108565b5080546000825560050160069004906000526020600020908101906128699190614159565b5b808211156141555760008082556001820180546001600160a01b031990811690915560028301805490911690556003820180546001600160d01b03191690556004820155600501614109565b5090565b5b80821115614155576000815560010161415a565b6001600160a01b038116811461286957600080fd5b60006020828403121561419557600080fd5b81356141a08161416e565b9392505050565b634e487b7160e01b600052602160045260246000fd5b60208082528251828201819052600091906040908185019086840185805b8381101561426757825180518652878101516001600160a01b0390811689880152878201518116888801526060808301519091169087015260808082015164ffffffffff169087015260a080820151600480821061424657634e487b7160e01b865260218152602486fd5b509087015260c0908101519086015260e090940193918601916001016141db565b509298975050505050505050565b803564ffffffffff81168114612d7457600080fd5b60008060006060848603121561429f57600080fd5b833592506142af60208501614275565b915060408401356142bf8161416e565b809150509250925092565b6000602082840312156142dc57600080fd5b5035919050565b600080600080608085870312156142f957600080fd5b84356143048161416e565b935061431260208601614275565b92506040850135915060608501356143298161416e565b939692955090935050565b600080600080600085870361016081121561434e57600080fd5b86356143598161416e565b955061436760208801614275565b945060408701359350606087013561437e8161416e565b925060e0607f198201121561439257600080fd5b506080860190509295509295909350565b60006020808301818452808551808352604092508286019150828160051b8701018488016000805b8481101561445057898403603f19018652825180516001600160a01b03168552888101511515898601528701516060888601819052815190860181905290890190608086019084905b8082101561443b57835164ffffffffff168352928b0192918b019160019190910190614414565b505096890196945050918701916001016143cb565b50919998505050505050505050565b634e487b7160e01b600052604160045260246000fd5b6040516080810167ffffffffffffffff811182821017156144985761449861445f565b60405290565b604051601f8201601f1916810167ffffffffffffffff811182821017156144c7576144c761445f565b604052919050565b600060208083850312156144e257600080fd5b823567ffffffffffffffff808211156144fa57600080fd5b818501915085601f83011261450e57600080fd5b8135818111156145205761452061445f565b61452e848260051b0161449e565b818152848101925060079190911b83018401908782111561454e57600080fd5b928401925b818410156145bf576080848903121561456c5760008081fd5b614574614475565b843561457f8161416e565b815261458c858701614275565b81870152604085810135908201526060808601356145a98161416e565b9082015283526080939093019291840191614553565b979650505050505050565b6020808252601a908201527f4d75737420686176652061646d696e2070726976696c65676573000000000000604082015260600190565b634e487b7160e01b600052603260045260246000fd5b634e487b7160e01b600052601160045260246000fd5b600060001982141561464157614641614617565b5060010190565b60008282101561465a5761465a614617565b500390565b6000821982111561467257614672614617565b500190565b634e487b7160e01b600052603160045260246000fd5b6020808252601f908201527f54696d652064617461206d75737420626520696e207468652066757475726500604082015260600190565b634e487b7160e01b600052601260045260246000fd5b600064ffffffffff808416806146f2576146f26146c4565b92169190910692915050565b60208082526018908201527f54696d65206d757374206265206f6e2074686520686f75720000000000000000604082015260600190565b600081600019048311821515161561474f5761474f614617565b500290565b600082614763576147636146c4565b500490565b60208082526024908201527f4e6f7420656e6f756768204554482073656e742077697468207472616e7361636040820152633a34b7b760e11b606082015260800190565b60208082526025908201527f20546f6b656e206e6f7420617070726f76656420666f72207468697320636f6e6040820152641d1c9858dd60da1b606082015260800190565b60006020828403121561480357600080fd5b5051919050565b60208082526035908201527f526571756972657320746f6b656e20616c6c6f77616e636520746f20626520696040820152741b98dc99585cd95908199bdc8818dbdb9d1c9858dd605a1b606082015260800190565b60006020828403121561487157600080fd5b813560ff811681146141a057600080fd5b60208082526027908201527f54696d6520616c726561647920636865636b656420666f7220746869732074696040820152661b59481cdb1bdd60ca1b606082015260800190565b600064ffffffffff808316818114156148e4576148e4614617565b6001019392505050565b600061ffff808316818114156148e4576148e4614617565b600064ffffffffff8084168061491e5761491e6146c4565b92169190910492915050565b60006020828403121561493c57600080fd5b815180151581146141a057600080fd5b600064ffffffffff8083168185168183048111821515161561497057614970614617565b0294935050505056fea2646970667358221220b3138a5d7afd0c1862067510633306e522f50f4a6b25ed40d5fe511b128879b064736f6c63430008090033","opcodes":"PUSH1 0x80 PUSH1 0x40 MSTORE PUSH1 0x0 DUP1 SLOAD PUSH1 0x1 PUSH1 0x1 PUSH1 0xA0 SHL SUB NOT AND PUSH20 0xF39FD6E51AAD88F6F4CE6AB8827279CFFFB92266 OR SWAP1 SSTORE PUSH1 0x64 PUSH1 0x1 SWAP1 DUP2 SSTORE PUSH7 0x2386F26FC10000 PUSH1 0x2 SSTORE PUSH1 0xB DUP1 SLOAD PUSH1 0xFF NOT AND SWAP1 SSTORE PUSH3 0x51 TIMESTAMP PUSH3 0x85 JUMP JUMPDEST PUSH3 0x5D SWAP2 SWAP1 PUSH3 0x9B JUMP JUMPDEST PUSH1 0xB PUSH1 0x1 PUSH2 0x100 EXP DUP2 SLOAD DUP2 PUSH5 0xFFFFFFFFFF MUL NOT AND SWAP1 DUP4 PUSH5 0xFFFFFFFFFF AND MUL OR SWAP1 SSTORE POP PUSH3 0x103 JUMP JUMPDEST PUSH1 0x0 PUSH3 0x95 PUSH2 0xE10 DUP4 PUSH3 0xD0 JUMP JUMPDEST SWAP3 SWAP2 POP POP JUMP JUMPDEST PUSH1 0x0 PUSH5 0xFFFFFFFFFF DUP4 DUP2 AND SWAP1 DUP4 AND DUP2 DUP2 LT ISZERO PUSH3 0xC8 JUMPI PUSH4 0x4E487B71 PUSH1 0xE0 SHL PUSH1 0x0 MSTORE PUSH1 0x11 PUSH1 0x4 MSTORE PUSH1 0x24 PUSH1 0x0 REVERT JUMPDEST SUB SWAP4 SWAP3 POP POP POP JUMP JUMPDEST PUSH1 0x0 PUSH5 0xFFFFFFFFFF DUP1 DUP5 AND DUP1 PUSH3 0xF7 JUMPI PUSH4 0x4E487B71 PUSH1 0xE0 SHL PUSH1 0x0 MSTORE PUSH1 0x12 PUSH1 0x4 MSTORE PUSH1 0x24 PUSH1 0x0 REVERT JUMPDEST SWAP3 AND SWAP2 SWAP1 SWAP2 DIV SWAP3 SWAP2 POP POP JUMP JUMPDEST PUSH2 0x49AF DUP1 PUSH3 0x113 PUSH1 0x0 CODECOPY PUSH1 0x0 RETURN INVALID PUSH1 0x80 PUSH1 0x40 MSTORE PUSH1 0x4 CALLDATASIZE LT PUSH2 0x118 JUMPI PUSH1 0x0 CALLDATALOAD PUSH1 0xE0 SHR DUP1 PUSH4 0x8F283970 GT PUSH2 0xA0 JUMPI DUP1 PUSH4 0xCED72F87 GT PUSH2 0x64 JUMPI DUP1 PUSH4 0xCED72F87 EQ PUSH2 0x34F JUMPI DUP1 PUSH4 0xCF783D8A EQ PUSH2 0x364 JUMPI DUP1 PUSH4 0xD10FA144 EQ PUSH2 0x386 JUMPI DUP1 PUSH4 0xDC9961EB EQ PUSH2 0x399 JUMPI DUP1 PUSH4 0xE0C6190D EQ PUSH2 0x3B9 JUMPI PUSH2 0x158 JUMP JUMPDEST DUP1 PUSH4 0x8F283970 EQ PUSH2 0x2D2 JUMPI DUP1 PUSH4 0xA1C06D34 EQ PUSH2 0x2F2 JUMPI DUP1 PUSH4 0xAA58A5B0 EQ PUSH2 0x305 JUMPI DUP1 PUSH4 0xAB7E0909 EQ PUSH2 0x31A JUMPI DUP1 PUSH4 0xC682CCE4 EQ PUSH2 0x33A JUMPI PUSH2 0x158 JUMP JUMPDEST DUP1 PUSH4 0x2A2B3690 GT PUSH2 0xE7 JUMPI DUP1 PUSH4 0x2A2B3690 EQ PUSH2 0x259 JUMPI DUP1 PUSH4 0x557ED1BA EQ PUSH2 0x26C JUMPI DUP1 PUSH4 0x6A1DB1BF EQ PUSH2 0x27F JUMPI DUP1 PUSH4 0x80423444 EQ PUSH2 0x29F JUMPI DUP1 PUSH4 0x8E83AC4A EQ PUSH2 0x2B2 JUMPI PUSH2 0x158 JUMP JUMPDEST DUP1 PUSH4 0x53149FA EQ PUSH2 0x1AA JUMPI DUP1 PUSH4 0x1385D24C EQ PUSH2 0x1CC JUMPI DUP1 PUSH4 0x13B51234 EQ PUSH2 0x1E1 JUMPI DUP1 PUSH4 0x1CCB3371 EQ PUSH2 0x237 JUMPI PUSH2 0x158 JUMP JUMPDEST CALLDATASIZE PUSH2 0x158 JUMPI PUSH1 0x40 DUP1 MLOAD CALLER DUP2 MSTORE CALLVALUE PUSH1 0x20 DUP3 ADD MSTORE PUSH32 0x830D2D700A97AF574B186C80D40429385D24241565B08A7C559BA283A964D9B1 SWAP2 ADD JUMPDEST PUSH1 0x40 MLOAD DUP1 SWAP2 SUB SWAP1 LOG1 STOP JUMPDEST PUSH32 0x19525A32AFAAD9A5491805C356597487A306FC2F4E8541D8D55E1FE951091E60 PUSH1 0x40 MLOAD PUSH2 0x14E SWAP1 PUSH1 0x20 DUP1 DUP3 MSTORE PUSH1 0x10 SWAP1 DUP3 ADD MSTORE PUSH16 0x2AB735B737BBB710333AB731BA34B7B7 PUSH1 0x81 SHL PUSH1 0x40 DUP3 ADD MSTORE PUSH1 0x60 ADD SWAP1 JUMP JUMPDEST CALLVALUE DUP1 ISZERO PUSH2 0x1B6 JUMPI PUSH1 0x0 DUP1 REVERT JUMPDEST POP PUSH2 0x1CA PUSH2 0x1C5 CALLDATASIZE PUSH1 0x4 PUSH2 0x4183 JUMP JUMPDEST PUSH2 0x3DE JUMP JUMPDEST STOP JUMPDEST CALLVALUE DUP1 ISZERO PUSH2 0x1D8 JUMPI PUSH1 0x0 DUP1 REVERT JUMPDEST POP PUSH2 0x1CA PUSH2 0x608 JUMP JUMPDEST CALLVALUE DUP1 ISZERO PUSH2 0x1ED JUMPI PUSH1 0x0 DUP1 REVERT JUMPDEST POP PUSH2 0x224 PUSH2 0x1FC CALLDATASIZE PUSH1 0x4 PUSH2 0x4183 JUMP JUMPDEST CALLER PUSH1 0x0 SWAP1 DUP2 MSTORE PUSH1 0x7 PUSH1 0x20 SWAP1 DUP2 MSTORE PUSH1 0x40 DUP1 DUP4 KECCAK256 PUSH1 0x1 PUSH1 0x1 PUSH1 0xA0 SHL SUB SWAP5 SWAP1 SWAP5 AND DUP4 MSTORE SWAP3 SWAP1 MSTORE KECCAK256 SLOAD SWAP1 JUMP JUMPDEST PUSH1 0x40 MLOAD SWAP1 DUP2 MSTORE PUSH1 0x20 ADD JUMPDEST PUSH1 0x40 MLOAD DUP1 SWAP2 SUB SWAP1 RETURN JUMPDEST CALLVALUE DUP1 ISZERO PUSH2 0x243 JUMPI PUSH1 0x0 DUP1 REVERT JUMPDEST POP PUSH2 0x24C PUSH2 0x646 JUMP JUMPDEST PUSH1 0x40 MLOAD PUSH2 0x22E SWAP2 SWAP1 PUSH2 0x41BD JUMP JUMPDEST PUSH2 0x1CA PUSH2 0x267 CALLDATASIZE PUSH1 0x4 PUSH2 0x428A JUMP JUMPDEST PUSH2 0x790 JUMP JUMPDEST CALLVALUE DUP1 ISZERO PUSH2 0x278 JUMPI PUSH1 0x0 DUP1 REVERT JUMPDEST POP TIMESTAMP PUSH2 0x224 JUMP JUMPDEST CALLVALUE DUP1 ISZERO PUSH2 0x28B JUMPI PUSH1 0x0 DUP1 REVERT JUMPDEST POP PUSH2 0x1CA PUSH2 0x29A CALLDATASIZE PUSH1 0x4 PUSH2 0x42CA JUMP JUMPDEST PUSH2 0x9F6 JUMP JUMPDEST PUSH2 0x1CA PUSH2 0x2AD CALLDATASIZE PUSH1 0x4 PUSH2 0x42E3 JUMP JUMPDEST PUSH2 0xA25 JUMP JUMPDEST CALLVALUE DUP1 ISZERO PUSH2 0x2BE JUMPI PUSH1 0x0 DUP1 REVERT JUMPDEST POP PUSH2 0x1CA PUSH2 0x2CD CALLDATASIZE PUSH1 0x4 PUSH2 0x42CA JUMP JUMPDEST PUSH2 0xE06 JUMP JUMPDEST CALLVALUE DUP1 ISZERO PUSH2 0x2DE JUMPI PUSH1 0x0 DUP1 REVERT JUMPDEST POP PUSH2 0x1CA PUSH2 0x2ED CALLDATASIZE PUSH1 0x4 PUSH2 0x4183 JUMP JUMPDEST PUSH2 0xE35 JUMP JUMPDEST PUSH2 0x1CA PUSH2 0x300 CALLDATASIZE PUSH1 0x4 PUSH2 0x4334 JUMP JUMPDEST PUSH2 0xEAA JUMP JUMPDEST CALLVALUE DUP1 ISZERO PUSH2 0x311 JUMPI PUSH1 0x0 DUP1 REVERT JUMPDEST POP PUSH2 0x1CA PUSH2 0x1313 JUMP JUMPDEST CALLVALUE DUP1 ISZERO PUSH2 0x326 JUMPI PUSH1 0x0 DUP1 REVERT JUMPDEST POP PUSH2 0x1CA PUSH2 0x335 CALLDATASIZE PUSH1 0x4 PUSH2 0x4183 JUMP JUMPDEST PUSH2 0x14E5 JUMP JUMPDEST CALLVALUE DUP1 ISZERO PUSH2 0x346 JUMPI PUSH1 0x0 DUP1 REVERT JUMPDEST POP PUSH2 0x24C PUSH2 0x15CA JUMP JUMPDEST CALLVALUE DUP1 ISZERO PUSH2 0x35B JUMPI PUSH1 0x0 DUP1 REVERT JUMPDEST POP PUSH1 0x1 SLOAD PUSH2 0x224 JUMP JUMPDEST CALLVALUE DUP1 ISZERO PUSH2 0x370 JUMPI PUSH1 0x0 DUP1 REVERT JUMPDEST POP PUSH2 0x379 PUSH2 0x1AAE JUMP JUMPDEST PUSH1 0x40 MLOAD PUSH2 0x22E SWAP2 SWAP1 PUSH2 0x43A3 JUMP JUMPDEST PUSH2 0x1CA PUSH2 0x394 CALLDATASIZE PUSH1 0x4 PUSH2 0x44CF JUMP JUMPDEST PUSH2 0x1C6D JUMP JUMPDEST CALLVALUE DUP1 ISZERO PUSH2 0x3A5 JUMPI PUSH1 0x0 DUP1 REVERT JUMPDEST POP PUSH2 0x24C PUSH2 0x3B4 CALLDATASIZE PUSH1 0x4 PUSH2 0x4183 JUMP JUMPDEST PUSH2 0x286C JUMP JUMPDEST CALLVALUE DUP1 ISZERO PUSH2 0x3C5 JUMPI PUSH1 0x0 DUP1 REVERT JUMPDEST POP PUSH2 0x3CE PUSH2 0x2D79 JUMP JUMPDEST PUSH1 0x40 MLOAD SWAP1 ISZERO ISZERO DUP2 MSTORE PUSH1 0x20 ADD PUSH2 0x22E JUMP JUMPDEST PUSH1 0x0 SLOAD PUSH1 0x1 PUSH1 0x1 PUSH1 0xA0 SHL SUB AND CALLER EQ PUSH2 0x411 JUMPI PUSH1 0x40 MLOAD PUSH3 0x461BCD PUSH1 0xE5 SHL DUP2 MSTORE PUSH1 0x4 ADD PUSH2 0x408 SWAP1 PUSH2 0x45CA JUMP JUMPDEST PUSH1 0x40 MLOAD DUP1 SWAP2 SUB SWAP1 REVERT JUMPDEST PUSH1 0x1 PUSH1 0x1 PUSH1 0xA0 SHL SUB DUP2 AND PUSH2 0x424 JUMPI PUSH1 0x0 DUP1 REVERT JUMPDEST PUSH2 0x42D DUP2 PUSH2 0x2F31 JUMP JUMPDEST PUSH2 0x479 JUMPI PUSH1 0x40 MLOAD PUSH3 0x461BCD PUSH1 0xE5 SHL DUP2 MSTORE PUSH1 0x20 PUSH1 0x4 DUP3 ADD MSTORE PUSH1 0x19 PUSH1 0x24 DUP3 ADD MSTORE PUSH32 0x455243323020746F6B656E206E6F742061646465642079657400000000000000 PUSH1 0x44 DUP3 ADD MSTORE PUSH1 0x64 ADD PUSH2 0x408 JUMP JUMPDEST PUSH1 0x0 PUSH1 0xA DUP1 SLOAD DUP1 PUSH1 0x20 MUL PUSH1 0x20 ADD PUSH1 0x40 MLOAD SWAP1 DUP2 ADD PUSH1 0x40 MSTORE DUP1 SWAP3 SWAP2 SWAP1 DUP2 DUP2 MSTORE PUSH1 0x20 ADD DUP3 DUP1 SLOAD DUP1 ISZERO PUSH2 0x4D1 JUMPI PUSH1 0x20 MUL DUP3 ADD SWAP2 SWAP1 PUSH1 0x0 MSTORE PUSH1 0x20 PUSH1 0x0 KECCAK256 SWAP1 JUMPDEST DUP2 SLOAD PUSH1 0x1 PUSH1 0x1 PUSH1 0xA0 SHL SUB AND DUP2 MSTORE PUSH1 0x1 SWAP1 SWAP2 ADD SWAP1 PUSH1 0x20 ADD DUP1 DUP4 GT PUSH2 0x4B3 JUMPI JUMPDEST POP POP POP POP POP SWAP1 POP PUSH1 0x0 DUP1 JUMPDEST DUP3 MLOAD DUP2 LT ISZERO PUSH2 0x532 JUMPI DUP4 PUSH1 0x1 PUSH1 0x1 PUSH1 0xA0 SHL SUB AND DUP4 DUP3 DUP2 MLOAD DUP2 LT PUSH2 0x501 JUMPI PUSH2 0x501 PUSH2 0x4601 JUMP JUMPDEST PUSH1 0x20 MUL PUSH1 0x20 ADD ADD MLOAD PUSH1 0x1 PUSH1 0x1 PUSH1 0xA0 SHL SUB AND EQ ISZERO PUSH2 0x520 JUMPI DUP1 SWAP2 POP PUSH2 0x532 JUMP JUMPDEST DUP1 PUSH2 0x52A DUP2 PUSH2 0x462D JUMP JUMPDEST SWAP2 POP POP PUSH2 0x4DC JUMP JUMPDEST POP DUP1 JUMPDEST PUSH1 0xA SLOAD PUSH2 0x544 SWAP1 PUSH1 0x1 SWAP1 PUSH2 0x4648 JUMP JUMPDEST DUP2 LT ISZERO PUSH2 0x5CF JUMPI PUSH1 0xA PUSH2 0x558 DUP3 PUSH1 0x1 PUSH2 0x465F JUMP JUMPDEST DUP2 SLOAD DUP2 LT PUSH2 0x568 JUMPI PUSH2 0x568 PUSH2 0x4601 JUMP JUMPDEST PUSH1 0x0 SWAP2 DUP3 MSTORE PUSH1 0x20 SWAP1 SWAP2 KECCAK256 ADD SLOAD PUSH1 0xA DUP1 SLOAD PUSH1 0x1 PUSH1 0x1 PUSH1 0xA0 SHL SUB SWAP1 SWAP3 AND SWAP2 DUP4 SWAP1 DUP2 LT PUSH2 0x594 JUMPI PUSH2 0x594 PUSH2 0x4601 JUMP JUMPDEST PUSH1 0x0 SWAP2 DUP3 MSTORE PUSH1 0x20 SWAP1 SWAP2 KECCAK256 ADD DUP1 SLOAD PUSH1 0x1 PUSH1 0x1 PUSH1 0xA0 SHL SUB NOT AND PUSH1 0x1 PUSH1 0x1 PUSH1 0xA0 SHL SUB SWAP3 SWAP1 SWAP3 AND SWAP2 SWAP1 SWAP2 OR SWAP1 SSTORE DUP1 PUSH2 0x5C7 DUP2 PUSH2 0x462D JUMP JUMPDEST SWAP2 POP POP PUSH2 0x535 JUMP JUMPDEST POP PUSH1 0xA DUP1 SLOAD DUP1 PUSH2 0x5E1 JUMPI PUSH2 0x5E1 PUSH2 0x4677 JUMP JUMPDEST PUSH1 0x0 DUP3 DUP2 MSTORE PUSH1 0x20 SWAP1 KECCAK256 DUP2 ADD PUSH1 0x0 NOT SWAP1 DUP2 ADD DUP1 SLOAD PUSH1 0x1 PUSH1 0x1 PUSH1 0xA0 SHL SUB NOT AND SWAP1 SSTORE ADD SWAP1 SSTORE POP POP POP JUMP JUMPDEST PUSH1 0x0 SLOAD PUSH1 0x1 PUSH1 0x1 PUSH1 0xA0 SHL SUB AND CALLER EQ PUSH2 0x632 JUMPI PUSH1 0x40 MLOAD PUSH3 0x461BCD PUSH1 0xE5 SHL DUP2 MSTORE PUSH1 0x4 ADD PUSH2 0x408 SWAP1 PUSH2 0x45CA JUMP JUMPDEST PUSH1 0xB DUP1 SLOAD PUSH1 0xFF NOT DUP2 AND PUSH1 0xFF SWAP1 SWAP2 AND ISZERO OR SWAP1 SSTORE JUMP JUMPDEST PUSH1 0x0 SLOAD PUSH1 0x60 SWAP1 PUSH1 0x1 PUSH1 0x1 PUSH1 0xA0 SHL SUB AND CALLER EQ PUSH2 0x673 JUMPI PUSH1 0x40 MLOAD PUSH3 0x461BCD PUSH1 0xE5 SHL DUP2 MSTORE PUSH1 0x4 ADD PUSH2 0x408 SWAP1 PUSH2 0x45CA JUMP JUMPDEST PUSH1 0x6 SLOAD PUSH1 0x0 SWAP1 PUSH8 0xFFFFFFFFFFFFFFFF DUP2 GT ISZERO PUSH2 0x691 JUMPI PUSH2 0x691 PUSH2 0x445F JUMP JUMPDEST PUSH1 0x40 MLOAD SWAP1 DUP1 DUP3 MSTORE DUP1 PUSH1 0x20 MUL PUSH1 0x20 ADD DUP3 ADD PUSH1 0x40 MSTORE DUP1 ISZERO PUSH2 0x6CA JUMPI DUP2 PUSH1 0x20 ADD JUMPDEST PUSH2 0x6B7 PUSH2 0x4085 JUMP JUMPDEST DUP2 MSTORE PUSH1 0x20 ADD SWAP1 PUSH1 0x1 SWAP1 SUB SWAP1 DUP2 PUSH2 0x6AF JUMPI SWAP1 POP JUMPDEST POP SWAP1 POP PUSH1 0x0 DUP1 JUMPDEST PUSH1 0x4 SLOAD DUP2 LT ISZERO PUSH2 0x788 JUMPI PUSH1 0x0 PUSH2 0x70D PUSH1 0x4 DUP4 DUP2 SLOAD DUP2 LT PUSH2 0x6F3 JUMPI PUSH2 0x6F3 PUSH2 0x4601 JUMP JUMPDEST PUSH1 0x0 SWAP2 DUP3 MSTORE PUSH1 0x20 SWAP1 SWAP2 KECCAK256 ADD SLOAD PUSH1 0x1 PUSH1 0x1 PUSH1 0xA0 SHL SUB AND PUSH2 0x286C JUMP JUMPDEST SWAP1 POP PUSH1 0x0 JUMPDEST DUP2 MLOAD DUP2 LT ISZERO PUSH2 0x773 JUMPI DUP2 DUP2 DUP2 MLOAD DUP2 LT PUSH2 0x72D JUMPI PUSH2 0x72D PUSH2 0x4601 JUMP JUMPDEST PUSH1 0x20 MUL PUSH1 0x20 ADD ADD MLOAD DUP6 DUP6 DUP2 MLOAD DUP2 LT PUSH2 0x747 JUMPI PUSH2 0x747 PUSH2 0x4601 JUMP JUMPDEST PUSH1 0x20 MUL PUSH1 0x20 ADD ADD DUP2 SWAP1 MSTORE POP DUP4 DUP1 PUSH2 0x75D SWAP1 PUSH2 0x462D JUMP JUMPDEST SWAP5 POP POP DUP1 DUP1 PUSH2 0x76B SWAP1 PUSH2 0x462D JUMP JUMPDEST SWAP2 POP POP PUSH2 0x712 JUMP JUMPDEST POP POP DUP1 DUP1 PUSH2 0x780 SWAP1 PUSH2 0x462D JUMP JUMPDEST SWAP2 POP POP PUSH2 0x6D1 JUMP JUMPDEST POP SWAP1 SWAP2 POP POP SWAP1 JUMP JUMPDEST PUSH1 0x0 PUSH2 0x79B DUP4 PUSH2 0x2FF2 JUMP JUMPDEST PUSH5 0xFFFFFFFFFF DUP2 AND PUSH1 0x0 SWAP1 DUP2 MSTORE PUSH1 0x5 PUSH1 0x20 SWAP1 DUP2 MSTORE PUSH1 0x40 DUP1 DUP4 KECCAK256 DUP1 SLOAD DUP3 MLOAD DUP2 DUP6 MUL DUP2 ADD DUP6 ADD SWAP1 SWAP4 MSTORE DUP1 DUP4 MSTORE SWAP5 SWAP6 POP SWAP3 SWAP4 SWAP1 SWAP3 SWAP2 DUP5 SWAP1 DUP5 ADD JUMPDEST DUP3 DUP3 LT ISZERO PUSH2 0x891 JUMPI PUSH1 0x0 DUP5 DUP2 MSTORE PUSH1 0x20 SWAP1 DUP2 SWAP1 KECCAK256 PUSH1 0x40 DUP1 MLOAD PUSH1 0xE0 DUP2 ADD DUP3 MSTORE PUSH1 0x5 DUP7 MUL SWAP1 SWAP3 ADD DUP1 SLOAD DUP4 MSTORE PUSH1 0x1 DUP2 ADD SLOAD PUSH1 0x1 PUSH1 0x1 PUSH1 0xA0 SHL SUB SWAP1 DUP2 AND SWAP5 DUP5 ADD SWAP5 SWAP1 SWAP5 MSTORE PUSH1 0x2 DUP2 ADD SLOAD DUP5 AND SWAP2 DUP4 ADD SWAP2 SWAP1 SWAP2 MSTORE PUSH1 0x3 DUP1 DUP3 ADD SLOAD SWAP4 DUP5 AND PUSH1 0x60 DUP5 ADD MSTORE PUSH1 0x1 PUSH1 0xA0 SHL DUP5 DIV PUSH5 0xFFFFFFFFFF AND PUSH1 0x80 DUP5 ADD MSTORE SWAP2 SWAP3 SWAP1 SWAP2 PUSH1 0xA0 DUP5 ADD SWAP2 PUSH1 0x1 PUSH1 0xC8 SHL SWAP1 DIV PUSH1 0xFF AND SWAP1 DUP2 GT ISZERO PUSH2 0x863 JUMPI PUSH2 0x863 PUSH2 0x41A7 JUMP JUMPDEST PUSH1 0x3 DUP2 GT ISZERO PUSH2 0x874 JUMPI PUSH2 0x874 PUSH2 0x41A7 JUMP JUMPDEST DUP2 MSTORE PUSH1 0x20 ADD PUSH1 0x4 DUP3 ADD SLOAD DUP2 MSTORE POP POP DUP2 MSTORE PUSH1 0x20 ADD SWAP1 PUSH1 0x1 ADD SWAP1 PUSH2 0x7D2 JUMP JUMPDEST POP POP POP POP SWAP1 POP PUSH2 0x89F PUSH2 0x4085 JUMP JUMPDEST PUSH1 0x0 JUMPDEST DUP3 MLOAD DUP2 LT ISZERO PUSH2 0x903 JUMPI DUP7 DUP4 DUP3 DUP2 MLOAD DUP2 LT PUSH2 0x8BE JUMPI PUSH2 0x8BE PUSH2 0x4601 JUMP JUMPDEST PUSH1 0x20 MUL PUSH1 0x20 ADD ADD MLOAD PUSH1 0x0 ADD MLOAD EQ ISZERO PUSH2 0x8F1 JUMPI DUP3 DUP2 DUP2 MLOAD DUP2 LT PUSH2 0x8E2 JUMPI PUSH2 0x8E2 PUSH2 0x4601 JUMP JUMPDEST PUSH1 0x20 MUL PUSH1 0x20 ADD ADD MLOAD SWAP2 POP PUSH2 0x903 JUMP JUMPDEST DUP1 PUSH2 0x8FB DUP2 PUSH2 0x462D JUMP JUMPDEST SWAP2 POP POP PUSH2 0x8A2 JUMP JUMPDEST POP PUSH2 0x916 DUP2 PUSH1 0x0 ADD MLOAD DUP3 PUSH1 0x80 ADD MLOAD PUSH2 0x3006 JUMP JUMPDEST PUSH1 0x1 PUSH1 0x1 PUSH1 0xA0 SHL SUB DUP5 AND ISZERO PUSH2 0x968 JUMPI PUSH1 0xC0 DUP2 ADD MLOAD CALLER PUSH1 0x0 SWAP1 DUP2 MSTORE PUSH1 0x7 PUSH1 0x20 SWAP1 DUP2 MSTORE PUSH1 0x40 DUP1 DUP4 KECCAK256 PUSH1 0x1 PUSH1 0x1 PUSH1 0xA0 SHL SUB DUP10 AND DUP5 MSTORE SWAP1 SWAP2 MSTORE DUP2 KECCAK256 DUP1 SLOAD SWAP1 SWAP2 SWAP1 PUSH2 0x95D SWAP1 DUP5 SWAP1 PUSH2 0x4648 JUMP JUMPDEST SWAP1 SWAP2 SSTORE POP PUSH2 0x9EE SWAP1 POP JUMP JUMPDEST PUSH1 0xC0 DUP2 ADD MLOAD CALLER PUSH1 0x0 SWAP1 DUP2 MSTORE PUSH1 0x7 PUSH1 0x20 SWAP1 DUP2 MSTORE PUSH1 0x40 DUP1 DUP4 KECCAK256 PUSH1 0x1 PUSH1 0x1 PUSH1 0xA0 SHL SUB DUP10 AND DUP5 MSTORE SWAP1 SWAP2 MSTORE DUP2 KECCAK256 DUP1 SLOAD SWAP1 SWAP2 SWAP1 PUSH2 0x9A0 SWAP1 DUP5 SWAP1 PUSH2 0x4648 JUMP JUMPDEST SWAP1 SWAP2 SSTORE POP POP PUSH1 0xC0 DUP2 ADD MLOAD SELFBALANCE GT PUSH2 0x9B5 JUMPI PUSH1 0x0 DUP1 REVERT JUMPDEST DUP1 PUSH1 0x20 ADD MLOAD PUSH1 0x1 PUSH1 0x1 PUSH1 0xA0 SHL SUB AND PUSH2 0x8FC DUP3 PUSH1 0xC0 ADD MLOAD SWAP1 DUP2 ISZERO MUL SWAP1 PUSH1 0x40 MLOAD PUSH1 0x0 PUSH1 0x40 MLOAD DUP1 DUP4 SUB DUP2 DUP6 DUP9 DUP9 CALL SWAP4 POP POP POP POP PUSH2 0x9EE JUMPI PUSH1 0x0 DUP1 REVERT JUMPDEST POP POP POP POP POP POP JUMP JUMPDEST PUSH1 0x0 SLOAD PUSH1 0x1 PUSH1 0x1 PUSH1 0xA0 SHL SUB AND CALLER EQ PUSH2 0xA20 JUMPI PUSH1 0x40 MLOAD PUSH3 0x461BCD PUSH1 0xE5 SHL DUP2 MSTORE PUSH1 0x4 ADD PUSH2 0x408 SWAP1 PUSH2 0x45CA JUMP JUMPDEST PUSH1 0x1 SSTORE JUMP JUMPDEST PUSH1 0xB SLOAD PUSH1 0xFF AND PUSH2 0xE00 JUMPI TIMESTAMP DUP4 PUSH5 0xFFFFFFFFFF AND GT PUSH2 0xA55 JUMPI PUSH1 0x40 MLOAD PUSH3 0x461BCD PUSH1 0xE5 SHL DUP2 MSTORE PUSH1 0x4 ADD PUSH2 0x408 SWAP1 PUSH2 0x468D JUMP JUMPDEST PUSH2 0xA61 PUSH2 0xE10 DUP5 PUSH2 0x46DA JUMP JUMPDEST PUSH5 0xFFFFFFFFFF AND ISZERO PUSH2 0xA85 JUMPI PUSH1 0x40 MLOAD PUSH3 0x461BCD PUSH1 0xE5 SHL DUP2 MSTORE PUSH1 0x4 ADD PUSH2 0x408 SWAP1 PUSH2 0x46FE JUMP JUMPDEST PUSH1 0x1 PUSH1 0x1 PUSH1 0xA0 SHL SUB DUP2 AND PUSH2 0xAD1 JUMPI CALLVALUE PUSH1 0x64 PUSH1 0x1 SLOAD DUP5 PUSH2 0xAA4 SWAP2 SWAP1 PUSH2 0x4735 JUMP JUMPDEST PUSH2 0xAAE SWAP2 SWAP1 PUSH2 0x4754 JUMP JUMPDEST GT ISZERO PUSH2 0xACC JUMPI PUSH1 0x40 MLOAD PUSH3 0x461BCD PUSH1 0xE5 SHL DUP2 MSTORE PUSH1 0x4 ADD PUSH2 0x408 SWAP1 PUSH2 0x4768 JUMP JUMPDEST PUSH2 0xBE4 JUMP JUMPDEST CALLVALUE PUSH1 0x2 SLOAD GT ISZERO PUSH2 0xAF3 JUMPI PUSH1 0x40 MLOAD PUSH3 0x461BCD PUSH1 0xE5 SHL DUP2 MSTORE PUSH1 0x4 ADD PUSH2 0x408 SWAP1 PUSH2 0x4768 JUMP JUMPDEST PUSH2 0xAFC DUP2 PUSH2 0x2F31 JUMP JUMPDEST PUSH2 0xB18 JUMPI PUSH1 0x40 MLOAD PUSH3 0x461BCD PUSH1 0xE5 SHL DUP2 MSTORE PUSH1 0x4 ADD PUSH2 0x408 SWAP1 PUSH2 0x47AC JUMP JUMPDEST CALLER PUSH1 0x0 SWAP1 DUP2 MSTORE PUSH1 0x7 PUSH1 0x20 SWAP1 DUP2 MSTORE PUSH1 0x40 DUP1 DUP4 KECCAK256 PUSH1 0x1 PUSH1 0x1 PUSH1 0xA0 SHL SUB DUP6 AND DUP5 MSTORE SWAP1 SWAP2 MSTORE SWAP1 KECCAK256 SLOAD PUSH2 0xB47 SWAP1 DUP4 SWAP1 PUSH2 0x465F JUMP JUMPDEST PUSH1 0x40 MLOAD PUSH4 0x6EB1769F PUSH1 0xE1 SHL DUP2 MSTORE CALLER PUSH1 0x4 DUP3 ADD MSTORE ADDRESS PUSH1 0x24 DUP3 ADD MSTORE PUSH1 0x1 PUSH1 0x1 PUSH1 0xA0 SHL SUB DUP4 AND SWAP1 PUSH4 0xDD62ED3E SWAP1 PUSH1 0x44 ADD PUSH1 0x20 PUSH1 0x40 MLOAD DUP1 DUP4 SUB DUP2 PUSH1 0x0 DUP8 DUP1 EXTCODESIZE ISZERO DUP1 ISZERO PUSH2 0xB8E JUMPI PUSH1 0x0 DUP1 REVERT JUMPDEST POP GAS CALL ISZERO DUP1 ISZERO PUSH2 0xBA2 JUMPI RETURNDATASIZE PUSH1 0x0 DUP1 RETURNDATACOPY RETURNDATASIZE PUSH1 0x0 REVERT JUMPDEST POP POP POP POP PUSH1 0x40 MLOAD RETURNDATASIZE PUSH1 0x1F NOT PUSH1 0x1F DUP3 ADD AND DUP3 ADD DUP1 PUSH1 0x40 MSTORE POP DUP2 ADD SWAP1 PUSH2 0xBC6 SWAP2 SWAP1 PUSH2 0x47F1 JUMP JUMPDEST LT ISZERO PUSH2 0xBE4 JUMPI PUSH1 0x40 MLOAD PUSH3 0x461BCD PUSH1 0xE5 SHL DUP2 MSTORE PUSH1 0x4 ADD PUSH2 0x408 SWAP1 PUSH2 0x480A JUMP JUMPDEST PUSH1 0x0 PUSH2 0xBEF DUP5 PUSH2 0x2FF2 JUMP JUMPDEST SWAP1 POP PUSH1 0x0 PUSH2 0xC00 CALLER DUP8 DUP6 DUP6 DUP9 PUSH2 0x33A2 JUMP JUMPDEST PUSH5 0xFFFFFFFFFF DUP1 DUP5 AND PUSH1 0x0 SWAP1 DUP2 MSTORE PUSH1 0x5 PUSH1 0x20 DUP2 DUP2 MSTORE PUSH1 0x40 DUP1 DUP5 KECCAK256 DUP1 SLOAD PUSH1 0x1 DUP2 DUP2 ADD DUP4 SSTORE SWAP2 DUP7 MSTORE SWAP5 DUP4 SWAP1 KECCAK256 DUP8 MLOAD SWAP6 SWAP1 SWAP5 MUL SWAP1 SWAP4 ADD SWAP4 DUP5 SSTORE SWAP1 DUP6 ADD MLOAD SWAP2 DUP4 ADD DUP1 SLOAD PUSH1 0x1 PUSH1 0x1 PUSH1 0xA0 SHL SUB SWAP4 DUP5 AND PUSH1 0x1 PUSH1 0x1 PUSH1 0xA0 SHL SUB NOT SWAP2 DUP3 AND OR SWAP1 SWAP2 SSTORE SWAP1 DUP6 ADD MLOAD PUSH1 0x2 DUP5 ADD DUP1 SLOAD SWAP2 DUP5 AND SWAP2 SWAP1 SWAP3 AND OR SWAP1 SSTORE PUSH1 0x60 DUP5 ADD MLOAD PUSH1 0x3 DUP1 DUP5 ADD DUP1 SLOAD PUSH1 0x80 DUP9 ADD MLOAD SWAP1 SWAP7 AND PUSH1 0x1 PUSH1 0xA0 SHL MUL PUSH1 0x1 PUSH1 0x1 PUSH1 0xC8 SHL SUB NOT SWAP1 SWAP7 AND SWAP3 SWAP1 SWAP4 AND SWAP2 SWAP1 SWAP2 OR SWAP4 SWAP1 SWAP4 OR DUP1 DUP3 SSTORE PUSH1 0xA0 DUP6 ADD MLOAD SWAP5 SWAP6 POP DUP6 SWAP5 SWAP3 SWAP4 PUSH1 0xFF PUSH1 0xC8 SHL NOT SWAP1 SWAP2 AND SWAP1 PUSH1 0x1 PUSH1 0xC8 SHL SWAP1 DUP5 SWAP1 DUP2 GT ISZERO PUSH2 0xCD0 JUMPI PUSH2 0xCD0 PUSH2 0x41A7 JUMP JUMPDEST MUL OR SWAP1 SSTORE POP PUSH1 0xC0 SWAP2 SWAP1 SWAP2 ADD MLOAD PUSH1 0x4 SWAP1 SWAP2 ADD SSTORE PUSH1 0x40 DUP1 MLOAD CALLER DUP2 MSTORE PUSH1 0x1 PUSH1 0x1 PUSH1 0xA0 SHL SUB DUP9 AND PUSH1 0x20 DUP3 ADD MSTORE PUSH5 0xFFFFFFFFFF DUP5 AND DUP2 DUP4 ADD MSTORE PUSH1 0x60 DUP2 ADD DUP7 SWAP1 MSTORE SWAP1 MLOAD PUSH32 0x6E643CB89831CD75DED50B4ECEE0E313701B6002FC48E8B80A3C05447AB066E8 SWAP2 DUP2 SWAP1 SUB PUSH1 0x80 ADD SWAP1 LOG1 PUSH32 0x2C06BED8138CA0B30C30E7FA7C205E13FBB1C8678AF7FF308EBD77EEE8459C87 PUSH1 0x40 MLOAD PUSH2 0xD7F SWAP1 PUSH1 0x20 DUP1 DUP3 MSTORE PUSH1 0x6 SWAP1 DUP3 ADD MSTORE PUSH6 0x141D5CDA1959 PUSH1 0xD2 SHL PUSH1 0x40 DUP3 ADD MSTORE PUSH1 0x60 ADD SWAP1 JUMP JUMPDEST PUSH1 0x40 MLOAD DUP1 SWAP2 SUB SWAP1 LOG1 DUP1 MLOAD PUSH1 0x6 DUP1 SLOAD PUSH1 0x1 DUP2 ADD DUP3 SSTORE PUSH1 0x0 SWAP2 SWAP1 SWAP2 MSTORE PUSH32 0xF652222313E28459528D920B65115C16C04F3EFC82AAEDC97BE59F3F377C0D3F ADD SSTORE PUSH2 0xDC5 DUP3 PUSH2 0x3470 JUMP JUMPDEST CALLER PUSH1 0x0 SWAP1 DUP2 MSTORE PUSH1 0x7 PUSH1 0x20 SWAP1 DUP2 MSTORE PUSH1 0x40 DUP1 DUP4 KECCAK256 PUSH1 0x1 PUSH1 0x1 PUSH1 0xA0 SHL SUB DUP8 AND DUP5 MSTORE SWAP1 SWAP2 MSTORE DUP2 KECCAK256 DUP1 SLOAD DUP7 SWAP3 SWAP1 PUSH2 0xDF8 SWAP1 DUP5 SWAP1 PUSH2 0x465F JUMP JUMPDEST SWAP1 SWAP2 SSTORE POP POP POP POP JUMPDEST POP POP POP POP JUMP JUMPDEST PUSH1 0x0 SLOAD PUSH1 0x1 PUSH1 0x1 PUSH1 0xA0 SHL SUB AND CALLER EQ PUSH2 0xE30 JUMPI PUSH1 0x40 MLOAD PUSH3 0x461BCD PUSH1 0xE5 SHL DUP2 MSTORE PUSH1 0x4 ADD PUSH2 0x408 SWAP1 PUSH2 0x45CA JUMP JUMPDEST PUSH1 0x2 SSTORE JUMP JUMPDEST PUSH1 0x0 SLOAD PUSH1 0x1 PUSH1 0x1 PUSH1 0xA0 SHL SUB AND CALLER EQ PUSH2 0xE5F JUMPI PUSH1 0x40 MLOAD PUSH3 0x461BCD PUSH1 0xE5 SHL DUP2 MSTORE PUSH1 0x4 ADD PUSH2 0x408 SWAP1 PUSH2 0x45CA JUMP JUMPDEST CALLER PUSH1 0x1 PUSH1 0x1 PUSH1 0xA0 SHL SUB DUP3 AND EQ DUP1 ISZERO PUSH2 0xE7F JUMPI POP PUSH1 0x1 PUSH1 0x1 PUSH1 0xA0 SHL SUB DUP2 AND ISZERO ISZERO JUMPDEST PUSH2 0xE88 JUMPI PUSH1 0x0 DUP1 REVERT JUMPDEST PUSH1 0x0 DUP1 SLOAD PUSH1 0x1 PUSH1 0x1 PUSH1 0xA0 SHL SUB NOT AND PUSH1 0x1 PUSH1 0x1 PUSH1 0xA0 SHL SUB SWAP3 SWAP1 SWAP3 AND SWAP2 SWAP1 SWAP2 OR SWAP1 SSTORE JUMP JUMPDEST PUSH1 0xB SLOAD PUSH1 0xFF AND PUSH2 0x130C JUMPI TIMESTAMP DUP5 PUSH5 0xFFFFFFFFFF AND GT PUSH2 0xEDA JUMPI PUSH1 0x40 MLOAD PUSH3 0x461BCD PUSH1 0xE5 SHL DUP2 MSTORE PUSH1 0x4 ADD PUSH2 0x408 SWAP1 PUSH2 0x468D JUMP JUMPDEST PUSH2 0xEE6 PUSH2 0xE10 DUP6 PUSH2 0x46DA JUMP JUMPDEST PUSH5 0xFFFFFFFFFF AND ISZERO PUSH2 0xF0A JUMPI PUSH1 0x40 MLOAD PUSH3 0x461BCD PUSH1 0xE5 SHL DUP2 MSTORE PUSH1 0x4 ADD PUSH2 0x408 SWAP1 PUSH2 0x46FE JUMP JUMPDEST PUSH1 0x1 PUSH1 0x1 PUSH1 0xA0 SHL SUB DUP3 AND PUSH2 0xF56 JUMPI CALLVALUE PUSH1 0x64 PUSH1 0x1 SLOAD DUP6 PUSH2 0xF29 SWAP2 SWAP1 PUSH2 0x4735 JUMP JUMPDEST PUSH2 0xF33 SWAP2 SWAP1 PUSH2 0x4754 JUMP JUMPDEST GT ISZERO PUSH2 0xF51 JUMPI PUSH1 0x40 MLOAD PUSH3 0x461BCD PUSH1 0xE5 SHL DUP2 MSTORE PUSH1 0x4 ADD PUSH2 0x408 SWAP1 PUSH2 0x4768 JUMP JUMPDEST PUSH2 0x100F JUMP JUMPDEST CALLVALUE PUSH1 0x2 SLOAD GT ISZERO PUSH2 0xF78 JUMPI PUSH1 0x40 MLOAD PUSH3 0x461BCD PUSH1 0xE5 SHL DUP2 MSTORE PUSH1 0x4 ADD PUSH2 0x408 SWAP1 PUSH2 0x4768 JUMP JUMPDEST PUSH2 0xF81 DUP3 PUSH2 0x2F31 JUMP JUMPDEST PUSH2 0xF9D JUMPI PUSH1 0x40 MLOAD PUSH3 0x461BCD PUSH1 0xE5 SHL DUP2 MSTORE PUSH1 0x4 ADD PUSH2 0x408 SWAP1 PUSH2 0x47AC JUMP JUMPDEST DUP1 PUSH1 0x40 ADD CALLDATALOAD DUP4 GT ISZERO PUSH2 0x100F JUMPI PUSH1 0x40 MLOAD PUSH3 0x461BCD PUSH1 0xE5 SHL DUP2 MSTORE PUSH1 0x20 PUSH1 0x4 DUP3 ADD MSTORE PUSH1 0x35 PUSH1 0x24 DUP3 ADD MSTORE PUSH32 0x5061796C6F6164206D757374206265206C657373207468616E206F7220657175 PUSH1 0x44 DUP3 ADD MSTORE PUSH21 0x185B081D1BC81D985B1D59481C195C9B5A5D1D1959 PUSH1 0x5A SHL PUSH1 0x64 DUP3 ADD MSTORE PUSH1 0x84 ADD PUSH2 0x408 JUMP JUMPDEST PUSH1 0x0 PUSH2 0x101A DUP6 PUSH2 0x2FF2 JUMP JUMPDEST SWAP1 POP PUSH1 0x0 PUSH2 0x102B CALLER DUP9 DUP7 DUP6 DUP10 PUSH2 0x33A2 JUMP JUMPDEST PUSH5 0xFFFFFFFFFF DUP1 DUP5 AND PUSH1 0x0 SWAP1 DUP2 MSTORE PUSH1 0x5 PUSH1 0x20 DUP2 DUP2 MSTORE PUSH1 0x40 DUP1 DUP5 KECCAK256 DUP1 SLOAD PUSH1 0x1 DUP2 DUP2 ADD DUP4 SSTORE SWAP2 DUP7 MSTORE SWAP5 DUP4 SWAP1 KECCAK256 DUP8 MLOAD SWAP6 SWAP1 SWAP5 MUL SWAP1 SWAP4 ADD SWAP4 DUP5 SSTORE SWAP1 DUP6 ADD MLOAD SWAP2 DUP4 ADD DUP1 SLOAD PUSH1 0x1 PUSH1 0x1 PUSH1 0xA0 SHL SUB SWAP4 DUP5 AND PUSH1 0x1 PUSH1 0x1 PUSH1 0xA0 SHL SUB NOT SWAP2 DUP3 AND OR SWAP1 SWAP2 SSTORE SWAP1 DUP6 ADD MLOAD PUSH1 0x2 DUP5 ADD DUP1 SLOAD SWAP2 DUP5 AND SWAP2 SWAP1 SWAP3 AND OR SWAP1 SSTORE PUSH1 0x60 DUP5 ADD MLOAD PUSH1 0x3 DUP1 DUP5 ADD DUP1 SLOAD PUSH1 0x80 DUP9 ADD MLOAD SWAP1 SWAP7 AND PUSH1 0x1 PUSH1 0xA0 SHL MUL PUSH1 0x1 PUSH1 0x1 PUSH1 0xC8 SHL SUB NOT SWAP1 SWAP7 AND SWAP3 SWAP1 SWAP4 AND SWAP2 SWAP1 SWAP2 OR SWAP4 SWAP1 SWAP4 OR DUP1 DUP3 SSTORE PUSH1 0xA0 DUP6 ADD MLOAD SWAP5 SWAP6 POP DUP6 SWAP5 SWAP3 SWAP4 PUSH1 0xFF PUSH1 0xC8 SHL NOT SWAP1 SWAP2 AND SWAP1 PUSH1 0x1 PUSH1 0xC8 SHL SWAP1 DUP5 SWAP1 DUP2 GT ISZERO PUSH2 0x10FB JUMPI PUSH2 0x10FB PUSH2 0x41A7 JUMP JUMPDEST MUL OR SWAP1 SSTORE POP PUSH1 0xC0 SWAP2 SWAP1 SWAP2 ADD MLOAD PUSH1 0x4 SWAP1 SWAP2 ADD SSTORE PUSH1 0x40 DUP1 MLOAD CALLER DUP2 MSTORE PUSH1 0x1 PUSH1 0x1 PUSH1 0xA0 SHL SUB DUP10 AND PUSH1 0x20 DUP3 ADD MSTORE PUSH5 0xFFFFFFFFFF DUP5 AND DUP2 DUP4 ADD MSTORE PUSH1 0x60 DUP2 ADD DUP8 SWAP1 MSTORE SWAP1 MLOAD PUSH32 0x6E643CB89831CD75DED50B4ECEE0E313701B6002FC48E8B80A3C05447AB066E8 SWAP2 DUP2 SWAP1 SUB PUSH1 0x80 ADD SWAP1 LOG1 PUSH32 0x2C06BED8138CA0B30C30E7FA7C205E13FBB1C8678AF7FF308EBD77EEE8459C87 PUSH1 0x40 MLOAD PUSH2 0x11AA SWAP1 PUSH1 0x20 DUP1 DUP3 MSTORE PUSH1 0x6 SWAP1 DUP3 ADD MSTORE PUSH6 0x141D5CDA1959 PUSH1 0xD2 SHL PUSH1 0x40 DUP3 ADD MSTORE PUSH1 0x60 ADD SWAP1 JUMP JUMPDEST PUSH1 0x40 MLOAD DUP1 SWAP2 SUB SWAP1 LOG1 DUP1 MLOAD PUSH1 0x6 DUP1 SLOAD PUSH1 0x1 DUP2 ADD DUP3 SSTORE PUSH1 0x0 SWAP2 SWAP1 SWAP2 MSTORE PUSH32 0xF652222313E28459528D920B65115C16C04F3EFC82AAEDC97BE59F3F377C0D3F ADD SSTORE PUSH2 0x11F0 DUP3 PUSH2 0x3470 JUMP JUMPDEST CALLER PUSH1 0x0 SWAP1 DUP2 MSTORE PUSH1 0x7 PUSH1 0x20 SWAP1 DUP2 MSTORE PUSH1 0x40 DUP1 DUP4 KECCAK256 PUSH1 0x1 PUSH1 0x1 PUSH1 0xA0 SHL SUB DUP9 AND DUP5 MSTORE SWAP1 SWAP2 MSTORE DUP2 KECCAK256 DUP1 SLOAD DUP8 SWAP3 SWAP1 PUSH2 0x1223 SWAP1 DUP5 SWAP1 PUSH2 0x465F JUMP JUMPDEST SWAP1 SWAP2 SSTORE POP POP PUSH1 0x1 PUSH1 0x1 PUSH1 0xA0 SHL SUB DUP5 AND ISZERO PUSH2 0x1309 JUMPI PUSH1 0x1 PUSH1 0x1 PUSH1 0xA0 SHL SUB DUP5 AND PUSH4 0xD505ACCF PUSH2 0x1253 PUSH1 0x20 DUP7 ADD DUP7 PUSH2 0x4183 JUMP JUMPDEST PUSH2 0x1263 PUSH1 0x40 DUP8 ADD PUSH1 0x20 DUP9 ADD PUSH2 0x4183 JUMP JUMPDEST PUSH1 0x40 DUP8 ADD CALLDATALOAD PUSH1 0x60 DUP9 ADD CALLDATALOAD PUSH2 0x127D PUSH1 0xA0 DUP11 ADD PUSH1 0x80 DUP12 ADD PUSH2 0x485F JUMP JUMPDEST PUSH1 0x40 MLOAD PUSH1 0x1 PUSH1 0x1 PUSH1 0xE0 SHL SUB NOT PUSH1 0xE0 DUP9 SWAP1 SHL AND DUP2 MSTORE PUSH1 0x1 PUSH1 0x1 PUSH1 0xA0 SHL SUB SWAP6 DUP7 AND PUSH1 0x4 DUP3 ADD MSTORE SWAP5 SWAP1 SWAP4 AND PUSH1 0x24 DUP6 ADD MSTORE PUSH1 0x44 DUP5 ADD SWAP2 SWAP1 SWAP2 MSTORE PUSH1 0x64 DUP4 ADD MSTORE PUSH1 0xFF AND PUSH1 0x84 DUP3 ADD MSTORE PUSH1 0xA0 DUP7 ADD CALLDATALOAD PUSH1 0xA4 DUP3 ADD MSTORE PUSH1 0xC0 DUP7 ADD CALLDATALOAD PUSH1 0xC4 DUP3 ADD MSTORE PUSH1 0xE4 ADD PUSH1 0x0 PUSH1 0x40 MLOAD DUP1 DUP4 SUB DUP2 PUSH1 0x0 DUP8 DUP1 EXTCODESIZE ISZERO DUP1 ISZERO PUSH2 0x12F0 JUMPI PUSH1 0x0 DUP1 REVERT JUMPDEST POP GAS CALL ISZERO DUP1 ISZERO PUSH2 0x1304 JUMPI RETURNDATASIZE PUSH1 0x0 DUP1 RETURNDATACOPY RETURNDATASIZE PUSH1 0x0 REVERT JUMPDEST POP POP POP POP JUMPDEST POP POP JUMPDEST POP POP POP POP POP JUMP JUMPDEST PUSH1 0x0 SLOAD PUSH1 0x1 PUSH1 0x1 PUSH1 0xA0 SHL SUB AND CALLER EQ PUSH2 0x133D JUMPI PUSH1 0x40 MLOAD PUSH3 0x461BCD PUSH1 0xE5 SHL DUP2 MSTORE PUSH1 0x4 ADD PUSH2 0x408 SWAP1 PUSH2 0x45CA JUMP JUMPDEST PUSH1 0x0 PUSH2 0x1348 TIMESTAMP PUSH2 0x2FF2 JUMP JUMPDEST PUSH1 0xB SLOAD SWAP1 SWAP2 POP PUSH5 0xFFFFFFFFFF PUSH2 0x100 SWAP1 SWAP2 DIV DUP2 AND SWAP1 DUP3 AND GT PUSH2 0x137C JUMPI PUSH1 0x40 MLOAD PUSH3 0x461BCD PUSH1 0xE5 SHL DUP2 MSTORE PUSH1 0x4 ADD PUSH2 0x408 SWAP1 PUSH2 0x4882 JUMP JUMPDEST PUSH1 0xB SLOAD PUSH2 0x100 SWAP1 DIV PUSH5 0xFFFFFFFFFF AND JUMPDEST DUP2 PUSH5 0xFFFFFFFFFF AND DUP2 PUSH5 0xFFFFFFFFFF AND GT PUSH2 0x14C0 JUMPI PUSH5 0xFFFFFFFFFF DUP2 AND PUSH1 0x0 SWAP1 DUP2 MSTORE PUSH1 0x5 PUSH1 0x20 SWAP1 DUP2 MSTORE PUSH1 0x40 DUP1 DUP4 KECCAK256 DUP1 SLOAD DUP3 MLOAD DUP2 DUP6 MUL DUP2 ADD DUP6 ADD SWAP1 SWAP4 MSTORE DUP1 DUP4 MSTORE SWAP2 SWAP3 SWAP1 SWAP2 SWAP1 DUP5 SWAP1 DUP5 ADD JUMPDEST DUP3 DUP3 LT ISZERO PUSH2 0x1494 JUMPI PUSH1 0x0 DUP5 DUP2 MSTORE PUSH1 0x20 SWAP1 DUP2 SWAP1 KECCAK256 PUSH1 0x40 DUP1 MLOAD PUSH1 0xE0 DUP2 ADD DUP3 MSTORE PUSH1 0x5 DUP7 MUL SWAP1 SWAP3 ADD DUP1 SLOAD DUP4 MSTORE PUSH1 0x1 DUP2 ADD SLOAD PUSH1 0x1 PUSH1 0x1 PUSH1 0xA0 SHL SUB SWAP1 DUP2 AND SWAP5 DUP5 ADD SWAP5 SWAP1 SWAP5 MSTORE PUSH1 0x2 DUP2 ADD SLOAD DUP5 AND SWAP2 DUP4 ADD SWAP2 SWAP1 SWAP2 MSTORE PUSH1 0x3 DUP1 DUP3 ADD SLOAD SWAP4 DUP5 AND PUSH1 0x60 DUP5 ADD MSTORE PUSH1 0x1 PUSH1 0xA0 SHL DUP5 DIV PUSH5 0xFFFFFFFFFF AND PUSH1 0x80 DUP5 ADD MSTORE SWAP2 SWAP3 SWAP1 SWAP2 PUSH1 0xA0 DUP5 ADD SWAP2 PUSH1 0x1 PUSH1 0xC8 SHL SWAP1 DIV PUSH1 0xFF AND SWAP1 DUP2 GT ISZERO PUSH2 0x1466 JUMPI PUSH2 0x1466 PUSH2 0x41A7 JUMP JUMPDEST PUSH1 0x3 DUP2 GT ISZERO PUSH2 0x1477 JUMPI PUSH2 0x1477 PUSH2 0x41A7 JUMP JUMPDEST DUP2 MSTORE PUSH1 0x20 ADD PUSH1 0x4 DUP3 ADD SLOAD DUP2 MSTORE POP POP DUP2 MSTORE PUSH1 0x20 ADD SWAP1 PUSH1 0x1 ADD SWAP1 PUSH2 0x13D5 JUMP JUMPDEST POP POP POP POP SWAP1 POP PUSH1 0x0 DUP2 MLOAD GT ISZERO PUSH2 0x14AD JUMPI PUSH2 0x14AD DUP2 PUSH2 0x3626 JUMP JUMPDEST POP DUP1 PUSH2 0x14B8 DUP2 PUSH2 0x48C9 JUMP JUMPDEST SWAP2 POP POP PUSH2 0x138C JUMP JUMPDEST POP PUSH1 0xB DUP1 SLOAD PUSH5 0xFFFFFFFFFF SWAP1 SWAP3 AND PUSH2 0x100 MUL PUSH6 0xFFFFFFFFFF00 NOT SWAP1 SWAP3 AND SWAP2 SWAP1 SWAP2 OR SWAP1 SSTORE JUMP JUMPDEST PUSH1 0x0 SLOAD PUSH1 0x1 PUSH1 0x1 PUSH1 0xA0 SHL SUB AND CALLER EQ PUSH2 0x150F JUMPI PUSH1 0x40 MLOAD PUSH3 0x461BCD PUSH1 0xE5 SHL DUP2 MSTORE PUSH1 0x4 ADD PUSH2 0x408 SWAP1 PUSH2 0x45CA JUMP JUMPDEST PUSH1 0x1 PUSH1 0x1 PUSH1 0xA0 SHL SUB DUP2 AND PUSH2 0x1522 JUMPI PUSH1 0x0 DUP1 REVERT JUMPDEST PUSH2 0x152B DUP2 PUSH2 0x2F31 JUMP JUMPDEST ISZERO PUSH2 0x1578 JUMPI PUSH1 0x40 MLOAD PUSH3 0x461BCD PUSH1 0xE5 SHL DUP2 MSTORE PUSH1 0x20 PUSH1 0x4 DUP3 ADD MSTORE PUSH1 0x19 PUSH1 0x24 DUP3 ADD MSTORE PUSH32 0x455243323020746F6B656E20616C726561647920616464656400000000000000 PUSH1 0x44 DUP3 ADD MSTORE PUSH1 0x64 ADD PUSH2 0x408 JUMP JUMPDEST PUSH1 0xA DUP1 SLOAD PUSH1 0x1 DUP2 ADD DUP3 SSTORE PUSH1 0x0 SWAP2 SWAP1 SWAP2 MSTORE PUSH32 0xC65A7BB8D6351C1CF70C95A316CC6A92839C986682D98BC35F958F4883F9D2A8 ADD DUP1 SLOAD PUSH1 0x1 PUSH1 0x1 PUSH1 0xA0 SHL SUB NOT AND PUSH1 0x1 PUSH1 0x1 PUSH1 0xA0 SHL SUB SWAP3 SWAP1 SWAP3 AND SWAP2 SWAP1 SWAP2 OR SWAP1 SSTORE JUMP JUMPDEST CALLER PUSH1 0x0 SWAP1 DUP2 MSTORE PUSH1 0x3 PUSH1 0x20 SWAP1 DUP2 MSTORE PUSH1 0x40 DUP1 DUP4 KECCAK256 PUSH1 0x1 ADD DUP1 SLOAD DUP3 MLOAD DUP2 DUP6 MUL DUP2 ADD DUP6 ADD SWAP1 SWAP4 MSTORE DUP1 DUP4 MSTORE PUSH1 0x60 SWAP5 SWAP4 DUP4 ADD DUP3 DUP3 DUP1 ISZERO PUSH2 0x1651 JUMPI PUSH1 0x20 MUL DUP3 ADD SWAP2 SWAP1 PUSH1 0x0 MSTORE PUSH1 0x20 PUSH1 0x0 KECCAK256 SWAP1 PUSH1 0x0 SWAP1 JUMPDEST DUP3 DUP3 SWAP1 SLOAD SWAP1 PUSH2 0x100 EXP SWAP1 DIV PUSH5 0xFFFFFFFFFF AND PUSH5 0xFFFFFFFFFF AND DUP2 MSTORE PUSH1 0x20 ADD SWAP1 PUSH1 0x5 ADD SWAP1 PUSH1 0x20 DUP3 PUSH1 0x4 ADD DIV SWAP3 DUP4 ADD SWAP3 PUSH1 0x1 SUB DUP3 MUL SWAP2 POP DUP1 DUP5 GT PUSH2 0x1612 JUMPI SWAP1 POP JUMPDEST POP POP POP POP POP SWAP1 POP PUSH1 0x0 DUP1 JUMPDEST DUP3 MLOAD DUP2 LT ISZERO PUSH2 0x17A9 JUMPI PUSH1 0x0 PUSH1 0x5 PUSH1 0x0 DUP6 DUP5 DUP2 MLOAD DUP2 LT PUSH2 0x167D JUMPI PUSH2 0x167D PUSH2 0x4601 JUMP JUMPDEST PUSH1 0x20 MUL PUSH1 0x20 ADD ADD MLOAD PUSH5 0xFFFFFFFFFF AND PUSH5 0xFFFFFFFFFF AND DUP2 MSTORE PUSH1 0x20 ADD SWAP1 DUP2 MSTORE PUSH1 0x20 ADD PUSH1 0x0 KECCAK256 DUP1 SLOAD DUP1 PUSH1 0x20 MUL PUSH1 0x20 ADD PUSH1 0x40 MLOAD SWAP1 DUP2 ADD PUSH1 0x40 MSTORE DUP1 SWAP3 SWAP2 SWAP1 DUP2 DUP2 MSTORE PUSH1 0x20 ADD PUSH1 0x0 SWAP1 JUMPDEST DUP3 DUP3 LT ISZERO PUSH2 0x1780 JUMPI PUSH1 0x0 DUP5 DUP2 MSTORE PUSH1 0x20 SWAP1 DUP2 SWAP1 KECCAK256 PUSH1 0x40 DUP1 MLOAD PUSH1 0xE0 DUP2 ADD DUP3 MSTORE PUSH1 0x5 DUP7 MUL SWAP1 SWAP3 ADD DUP1 SLOAD DUP4 MSTORE PUSH1 0x1 DUP2 ADD SLOAD PUSH1 0x1 PUSH1 0x1 PUSH1 0xA0 SHL SUB SWAP1 DUP2 AND SWAP5 DUP5 ADD SWAP5 SWAP1 SWAP5 MSTORE PUSH1 0x2 DUP2 ADD SLOAD DUP5 AND SWAP2 DUP4 ADD SWAP2 SWAP1 SWAP2 MSTORE PUSH1 0x3 DUP1 DUP3 ADD SLOAD SWAP4 DUP5 AND PUSH1 0x60 DUP5 ADD MSTORE PUSH1 0x1 PUSH1 0xA0 SHL DUP5 DIV PUSH5 0xFFFFFFFFFF AND PUSH1 0x80 DUP5 ADD MSTORE SWAP2 SWAP3 SWAP1 SWAP2 PUSH1 0xA0 DUP5 ADD SWAP2 PUSH1 0x1 PUSH1 0xC8 SHL SWAP1 DIV PUSH1 0xFF AND SWAP1 DUP2 GT ISZERO PUSH2 0x1752 JUMPI PUSH2 0x1752 PUSH2 0x41A7 JUMP JUMPDEST PUSH1 0x3 DUP2 GT ISZERO PUSH2 0x1763 JUMPI PUSH2 0x1763 PUSH2 0x41A7 JUMP JUMPDEST DUP2 MSTORE PUSH1 0x20 ADD PUSH1 0x4 DUP3 ADD SLOAD DUP2 MSTORE POP POP DUP2 MSTORE PUSH1 0x20 ADD SWAP1 PUSH1 0x1 ADD SWAP1 PUSH2 0x16C1 JUMP JUMPDEST POP POP POP POP SWAP1 POP DUP1 MLOAD DUP4 PUSH2 0x1793 SWAP2 SWAP1 PUSH2 0x465F JUMP JUMPDEST SWAP3 POP POP DUP1 DUP1 PUSH2 0x17A1 SWAP1 PUSH2 0x462D JUMP JUMPDEST SWAP2 POP POP PUSH2 0x165C JUMP JUMPDEST POP PUSH1 0x0 DUP2 PUSH8 0xFFFFFFFFFFFFFFFF DUP2 GT ISZERO PUSH2 0x17C5 JUMPI PUSH2 0x17C5 PUSH2 0x445F JUMP JUMPDEST PUSH1 0x40 MLOAD SWAP1 DUP1 DUP3 MSTORE DUP1 PUSH1 0x20 MUL PUSH1 0x20 ADD DUP3 ADD PUSH1 0x40 MSTORE DUP1 ISZERO PUSH2 0x17FE JUMPI DUP2 PUSH1 0x20 ADD JUMPDEST PUSH2 0x17EB PUSH2 0x4085 JUMP JUMPDEST DUP2 MSTORE PUSH1 0x20 ADD SWAP1 PUSH1 0x1 SWAP1 SUB SWAP1 DUP2 PUSH2 0x17E3 JUMPI SWAP1 POP JUMPDEST POP SWAP1 POP PUSH1 0x0 DUP3 PUSH8 0xFFFFFFFFFFFFFFFF DUP2 GT ISZERO PUSH2 0x181C JUMPI PUSH2 0x181C PUSH2 0x445F JUMP JUMPDEST PUSH1 0x40 MLOAD SWAP1 DUP1 DUP3 MSTORE DUP1 PUSH1 0x20 MUL PUSH1 0x20 ADD DUP3 ADD PUSH1 0x40 MSTORE DUP1 ISZERO PUSH2 0x1855 JUMPI DUP2 PUSH1 0x20 ADD JUMPDEST PUSH2 0x1842 PUSH2 0x4085 JUMP JUMPDEST DUP2 MSTORE PUSH1 0x20 ADD SWAP1 PUSH1 0x1 SWAP1 SUB SWAP1 DUP2 PUSH2 0x183A JUMPI SWAP1 POP JUMPDEST POP SWAP1 POP PUSH1 0x0 DUP1 JUMPDEST DUP6 MLOAD DUP2 LT ISZERO PUSH2 0x1A32 JUMPI PUSH1 0x5 PUSH1 0x0 DUP8 DUP4 DUP2 MLOAD DUP2 LT PUSH2 0x187B JUMPI PUSH2 0x187B PUSH2 0x4601 JUMP JUMPDEST PUSH1 0x20 MUL PUSH1 0x20 ADD ADD MLOAD PUSH5 0xFFFFFFFFFF AND PUSH5 0xFFFFFFFFFF AND DUP2 MSTORE PUSH1 0x20 ADD SWAP1 DUP2 MSTORE PUSH1 0x20 ADD PUSH1 0x0 KECCAK256 DUP1 SLOAD DUP1 PUSH1 0x20 MUL PUSH1 0x20 ADD PUSH1 0x40 MLOAD SWAP1 DUP2 ADD PUSH1 0x40 MSTORE DUP1 SWAP3 SWAP2 SWAP1 DUP2 DUP2 MSTORE PUSH1 0x20 ADD PUSH1 0x0 SWAP1 JUMPDEST DUP3 DUP3 LT ISZERO PUSH2 0x197E JUMPI PUSH1 0x0 DUP5 DUP2 MSTORE PUSH1 0x20 SWAP1 DUP2 SWAP1 KECCAK256 PUSH1 0x40 DUP1 MLOAD PUSH1 0xE0 DUP2 ADD DUP3 MSTORE PUSH1 0x5 DUP7 MUL SWAP1 SWAP3 ADD DUP1 SLOAD DUP4 MSTORE PUSH1 0x1 DUP2 ADD SLOAD PUSH1 0x1 PUSH1 0x1 PUSH1 0xA0 SHL SUB SWAP1 DUP2 AND SWAP5 DUP5 ADD SWAP5 SWAP1 SWAP5 MSTORE PUSH1 0x2 DUP2 ADD SLOAD DUP5 AND SWAP2 DUP4 ADD SWAP2 SWAP1 SWAP2 MSTORE PUSH1 0x3 DUP1 DUP3 ADD SLOAD SWAP4 DUP5 AND PUSH1 0x60 DUP5 ADD MSTORE PUSH1 0x1 PUSH1 0xA0 SHL DUP5 DIV PUSH5 0xFFFFFFFFFF AND PUSH1 0x80 DUP5 ADD MSTORE SWAP2 SWAP3 SWAP1 SWAP2 PUSH1 0xA0 DUP5 ADD SWAP2 PUSH1 0x1 PUSH1 0xC8 SHL SWAP1 DIV PUSH1 0xFF AND SWAP1 DUP2 GT ISZERO PUSH2 0x1950 JUMPI PUSH2 0x1950 PUSH2 0x41A7 JUMP JUMPDEST PUSH1 0x3 DUP2 GT ISZERO PUSH2 0x1961 JUMPI PUSH2 0x1961 PUSH2 0x41A7 JUMP JUMPDEST DUP2 MSTORE PUSH1 0x20 ADD PUSH1 0x4 DUP3 ADD SLOAD DUP2 MSTORE POP POP DUP2 MSTORE PUSH1 0x20 ADD SWAP1 PUSH1 0x1 ADD SWAP1 PUSH2 0x18BF JUMP JUMPDEST POP POP POP POP SWAP4 POP PUSH1 0x0 JUMPDEST DUP5 MLOAD DUP2 LT ISZERO PUSH2 0x1A1F JUMPI CALLER PUSH1 0x1 PUSH1 0x1 PUSH1 0xA0 SHL SUB AND DUP6 DUP3 DUP2 MLOAD DUP2 LT PUSH2 0x19AC JUMPI PUSH2 0x19AC PUSH2 0x4601 JUMP JUMPDEST PUSH1 0x20 MUL PUSH1 0x20 ADD ADD MLOAD PUSH1 0x20 ADD MLOAD PUSH1 0x1 PUSH1 0x1 PUSH1 0xA0 SHL SUB AND EQ ISZERO PUSH2 0x1A0D JUMPI DUP5 DUP2 DUP2 MLOAD DUP2 LT PUSH2 0x19D9 JUMPI PUSH2 0x19D9 PUSH2 0x4601 JUMP JUMPDEST PUSH1 0x20 MUL PUSH1 0x20 ADD ADD MLOAD DUP5 DUP5 DUP2 MLOAD DUP2 LT PUSH2 0x19F3 JUMPI PUSH2 0x19F3 PUSH2 0x4601 JUMP JUMPDEST PUSH1 0x20 MUL PUSH1 0x20 ADD ADD DUP2 SWAP1 MSTORE POP DUP3 DUP1 PUSH2 0x1A09 SWAP1 PUSH2 0x462D JUMP JUMPDEST SWAP4 POP POP JUMPDEST DUP1 PUSH2 0x1A17 DUP2 PUSH2 0x462D JUMP JUMPDEST SWAP2 POP POP PUSH2 0x1987 JUMP JUMPDEST POP DUP1 PUSH2 0x1A2A DUP2 PUSH2 0x462D JUMP JUMPDEST SWAP2 POP POP PUSH2 0x185C JUMP JUMPDEST POP PUSH1 0x0 JUMPDEST DUP3 MLOAD DUP2 LT ISZERO PUSH2 0x1AA3 JUMPI PUSH2 0x1A65 DUP4 DUP3 DUP2 MLOAD DUP2 LT PUSH2 0x1A54 JUMPI PUSH2 0x1A54 PUSH2 0x4601 JUMP JUMPDEST PUSH1 0x20 MUL PUSH1 0x20 ADD ADD MLOAD PUSH1 0x80 ADD MLOAD PUSH2 0x3DEA JUMP JUMPDEST DUP4 DUP3 DUP2 MLOAD DUP2 LT PUSH2 0x1A77 JUMPI PUSH2 0x1A77 PUSH2 0x4601 JUMP JUMPDEST PUSH1 0x20 SWAP1 DUP2 MUL SWAP2 SWAP1 SWAP2 ADD ADD MLOAD PUSH5 0xFFFFFFFFFF SWAP1 SWAP2 AND PUSH1 0x80 SWAP1 SWAP2 ADD MSTORE DUP1 PUSH2 0x1A9B DUP2 PUSH2 0x462D JUMP JUMPDEST SWAP2 POP POP PUSH2 0x1A36 JUMP JUMPDEST POP SWAP1 SWAP6 SWAP5 POP POP POP POP POP JUMP JUMPDEST PUSH1 0x0 SLOAD PUSH1 0x60 SWAP1 PUSH1 0x1 PUSH1 0x1 PUSH1 0xA0 SHL SUB AND CALLER EQ PUSH2 0x1ADB JUMPI PUSH1 0x40 MLOAD PUSH3 0x461BCD PUSH1 0xE5 SHL DUP2 MSTORE PUSH1 0x4 ADD PUSH2 0x408 SWAP1 PUSH2 0x45CA JUMP JUMPDEST PUSH1 0x4 SLOAD PUSH1 0x0 SWAP1 PUSH8 0xFFFFFFFFFFFFFFFF DUP2 GT ISZERO PUSH2 0x1AF9 JUMPI PUSH2 0x1AF9 PUSH2 0x445F JUMP JUMPDEST PUSH1 0x40 MLOAD SWAP1 DUP1 DUP3 MSTORE DUP1 PUSH1 0x20 MUL PUSH1 0x20 ADD DUP3 ADD PUSH1 0x40 MSTORE DUP1 ISZERO PUSH2 0x1B46 JUMPI DUP2 PUSH1 0x20 ADD JUMPDEST PUSH1 0x40 DUP1 MLOAD PUSH1 0x60 DUP1 DUP3 ADD DUP4 MSTORE PUSH1 0x0 DUP1 DUP4 MSTORE PUSH1 0x20 DUP4 ADD MSTORE SWAP2 DUP2 ADD SWAP2 SWAP1 SWAP2 MSTORE DUP2 MSTORE PUSH1 0x20 ADD SWAP1 PUSH1 0x1 SWAP1 SUB SWAP1 DUP2 PUSH2 0x1B17 JUMPI SWAP1 POP JUMPDEST POP SWAP1 POP PUSH1 0x0 JUMPDEST PUSH1 0x4 SLOAD DUP2 LT ISZERO PUSH2 0x1C67 JUMPI PUSH1 0x3 PUSH1 0x0 PUSH1 0x4 DUP4 DUP2 SLOAD DUP2 LT PUSH2 0x1B6D JUMPI PUSH2 0x1B6D PUSH2 0x4601 JUMP JUMPDEST PUSH1 0x0 SWAP2 DUP3 MSTORE PUSH1 0x20 DUP1 DUP4 KECCAK256 SWAP2 SWAP1 SWAP2 ADD SLOAD PUSH1 0x1 PUSH1 0x1 PUSH1 0xA0 SHL SUB SWAP1 DUP2 AND DUP5 MSTORE DUP4 DUP3 ADD SWAP5 SWAP1 SWAP5 MSTORE PUSH1 0x40 SWAP3 DUP4 ADD SWAP1 SWAP2 KECCAK256 DUP3 MLOAD PUSH1 0x60 DUP2 ADD DUP5 MSTORE DUP2 SLOAD SWAP5 DUP6 AND DUP2 MSTORE PUSH1 0x1 PUSH1 0xA0 SHL SWAP1 SWAP5 DIV PUSH1 0xFF AND ISZERO ISZERO DUP5 DUP4 ADD MSTORE PUSH1 0x1 DUP2 ADD DUP1 SLOAD DUP5 MLOAD DUP2 DUP6 MUL DUP2 ADD DUP6 ADD DUP7 MSTORE DUP2 DUP2 MSTORE SWAP3 SWAP5 DUP7 ADD SWAP4 DUP4 ADD DUP3 DUP3 DUP1 ISZERO PUSH2 0x1C2E JUMPI PUSH1 0x20 MUL DUP3 ADD SWAP2 SWAP1 PUSH1 0x0 MSTORE PUSH1 0x20 PUSH1 0x0 KECCAK256 SWAP1 PUSH1 0x0 SWAP1 JUMPDEST DUP3 DUP3 SWAP1 SLOAD SWAP1 PUSH2 0x100 EXP SWAP1 DIV PUSH5 0xFFFFFFFFFF AND PUSH5 0xFFFFFFFFFF AND DUP2 MSTORE PUSH1 0x20 ADD SWAP1 PUSH1 0x5 ADD SWAP1 PUSH1 0x20 DUP3 PUSH1 0x4 ADD DIV SWAP3 DUP4 ADD SWAP3 PUSH1 0x1 SUB DUP3 MUL SWAP2 POP DUP1 DUP5 GT PUSH2 0x1BEF JUMPI SWAP1 POP JUMPDEST POP POP POP POP POP DUP2 MSTORE POP POP DUP3 DUP3 DUP2 MLOAD DUP2 LT PUSH2 0x1C49 JUMPI PUSH2 0x1C49 PUSH2 0x4601 JUMP JUMPDEST PUSH1 0x20 MUL PUSH1 0x20 ADD ADD DUP2 SWAP1 MSTORE POP DUP1 DUP1 PUSH2 0x1C5F SWAP1 PUSH2 0x462D JUMP JUMPDEST SWAP2 POP POP PUSH2 0x1B4C JUMP JUMPDEST POP SWAP1 POP SWAP1 JUMP JUMPDEST PUSH1 0xB SLOAD PUSH1 0xFF AND PUSH2 0x2869 JUMPI PUSH1 0x1 DUP2 MLOAD GT DUP1 ISZERO PUSH2 0x1C89 JUMPI POP PUSH1 0x64 DUP2 MLOAD LT JUMPDEST PUSH2 0x1CFB JUMPI PUSH1 0x40 MLOAD PUSH3 0x461BCD PUSH1 0xE5 SHL DUP2 MSTORE PUSH1 0x20 PUSH1 0x4 DUP3 ADD MSTORE PUSH1 0x3B PUSH1 0x24 DUP3 ADD MSTORE PUSH32 0x4261746368206D7573742068617665206D6F7265207468616E206F6E65207472 PUSH1 0x44 DUP3 ADD MSTORE PUSH32 0x616E73616374696F6E20616E64206C657373207468616E203130300000000000 PUSH1 0x64 DUP3 ADD MSTORE PUSH1 0x84 ADD PUSH2 0x408 JUMP JUMPDEST PUSH2 0x1D26 PUSH1 0x40 MLOAD DUP1 PUSH1 0x80 ADD PUSH1 0x40 MSTORE DUP1 PUSH1 0x0 DUP2 MSTORE PUSH1 0x20 ADD PUSH1 0x0 DUP2 MSTORE PUSH1 0x20 ADD PUSH1 0x0 DUP2 MSTORE PUSH1 0x20 ADD PUSH1 0x60 DUP2 MSTORE POP SWAP1 JUMP JUMPDEST CALLVALUE DUP3 MLOAD PUSH1 0x2 SLOAD PUSH2 0x1D36 SWAP2 SWAP1 PUSH2 0x4735 JUMP JUMPDEST GT ISZERO PUSH2 0x1D54 JUMPI PUSH1 0x40 MLOAD PUSH3 0x461BCD PUSH1 0xE5 SHL DUP2 MSTORE PUSH1 0x4 ADD PUSH2 0x408 SWAP1 PUSH2 0x4768 JUMP JUMPDEST PUSH1 0xA SLOAD PUSH1 0x0 SWAP1 PUSH8 0xFFFFFFFFFFFFFFFF DUP2 GT ISZERO PUSH2 0x1D72 JUMPI PUSH2 0x1D72 PUSH2 0x445F JUMP JUMPDEST PUSH1 0x40 MLOAD SWAP1 DUP1 DUP3 MSTORE DUP1 PUSH1 0x20 MUL PUSH1 0x20 ADD DUP3 ADD PUSH1 0x40 MSTORE DUP1 ISZERO PUSH2 0x1D9B JUMPI DUP2 PUSH1 0x20 ADD PUSH1 0x20 DUP3 MUL DUP1 CALLDATASIZE DUP4 CALLDATACOPY ADD SWAP1 POP JUMPDEST POP CALLER PUSH1 0x0 SWAP1 DUP2 MSTORE PUSH1 0x3 PUSH1 0x20 MSTORE PUSH1 0x40 DUP2 KECCAK256 PUSH1 0x1 ADD SLOAD SWAP2 SWAP3 POP SWAP1 PUSH2 0x1DBE SWAP1 PUSH1 0x64 PUSH2 0x465F JUMP JUMPDEST PUSH8 0xFFFFFFFFFFFFFFFF DUP2 GT ISZERO PUSH2 0x1DD6 JUMPI PUSH2 0x1DD6 PUSH2 0x445F JUMP JUMPDEST PUSH1 0x40 MLOAD SWAP1 DUP1 DUP3 MSTORE DUP1 PUSH1 0x20 MUL PUSH1 0x20 ADD DUP3 ADD PUSH1 0x40 MSTORE DUP1 ISZERO PUSH2 0x1DFF JUMPI DUP2 PUSH1 0x20 ADD PUSH1 0x20 DUP3 MUL DUP1 CALLDATASIZE DUP4 CALLDATACOPY ADD SWAP1 POP JUMPDEST POP SWAP1 POP PUSH1 0x0 JUMPDEST DUP5 MLOAD DUP2 LT ISZERO PUSH2 0x22D8 JUMPI TIMESTAMP DUP6 DUP3 DUP2 MLOAD DUP2 LT PUSH2 0x1E21 JUMPI PUSH2 0x1E21 PUSH2 0x4601 JUMP JUMPDEST PUSH1 0x20 MUL PUSH1 0x20 ADD ADD MLOAD PUSH1 0x20 ADD MLOAD PUSH5 0xFFFFFFFFFF AND GT PUSH2 0x1E51 JUMPI PUSH1 0x40 MLOAD PUSH3 0x461BCD PUSH1 0xE5 SHL DUP2 MSTORE PUSH1 0x4 ADD PUSH2 0x408 SWAP1 PUSH2 0x468D JUMP JUMPDEST PUSH2 0xE10 DUP6 DUP3 DUP2 MLOAD DUP2 LT PUSH2 0x1E66 JUMPI PUSH2 0x1E66 PUSH2 0x4601 JUMP JUMPDEST PUSH1 0x20 MUL PUSH1 0x20 ADD ADD MLOAD PUSH1 0x20 ADD MLOAD PUSH2 0x1E7C SWAP2 SWAP1 PUSH2 0x46DA JUMP JUMPDEST PUSH5 0xFFFFFFFFFF AND ISZERO PUSH2 0x1EA0 JUMPI PUSH1 0x40 MLOAD PUSH3 0x461BCD PUSH1 0xE5 SHL DUP2 MSTORE PUSH1 0x4 ADD PUSH2 0x408 SWAP1 PUSH2 0x46FE JUMP JUMPDEST PUSH1 0x0 PUSH2 0x1EC8 DUP7 DUP4 DUP2 MLOAD DUP2 LT PUSH2 0x1EB7 JUMPI PUSH2 0x1EB7 PUSH2 0x4601 JUMP JUMPDEST PUSH1 0x20 MUL PUSH1 0x20 ADD ADD MLOAD PUSH1 0x20 ADD MLOAD PUSH2 0x2FF2 JUMP JUMPDEST SWAP1 POP PUSH2 0x1ED4 DUP2 DUP5 PUSH2 0x3DF8 JUMP JUMPDEST PUSH2 0x1F22 JUMPI DUP1 DUP4 DUP7 PUSH1 0x40 ADD MLOAD DUP2 MLOAD DUP2 LT PUSH2 0x1EEF JUMPI PUSH2 0x1EEF PUSH2 0x4601 JUMP JUMPDEST PUSH1 0x20 MUL PUSH1 0x20 ADD ADD SWAP1 PUSH5 0xFFFFFFFFFF AND SWAP1 DUP2 PUSH5 0xFFFFFFFFFF AND DUP2 MSTORE POP POP PUSH1 0x1 DUP6 PUSH1 0x40 ADD DUP2 DUP2 MLOAD PUSH2 0x1F1E SWAP2 SWAP1 PUSH2 0x465F JUMP JUMPDEST SWAP1 MSTORE POP JUMPDEST PUSH1 0x0 PUSH1 0x1 PUSH1 0x1 PUSH1 0xA0 SHL SUB AND DUP7 DUP4 DUP2 MLOAD DUP2 LT PUSH2 0x1F3F JUMPI PUSH2 0x1F3F PUSH2 0x4601 JUMP JUMPDEST PUSH1 0x20 MUL PUSH1 0x20 ADD ADD MLOAD PUSH1 0x60 ADD MLOAD PUSH1 0x1 PUSH1 0x1 PUSH1 0xA0 SHL SUB AND EQ ISZERO PUSH2 0x1F91 JUMPI DUP6 DUP3 DUP2 MLOAD DUP2 LT PUSH2 0x1F6C JUMPI PUSH2 0x1F6C PUSH2 0x4601 JUMP JUMPDEST PUSH1 0x20 MUL PUSH1 0x20 ADD ADD MLOAD PUSH1 0x40 ADD MLOAD DUP6 PUSH1 0x0 ADD DUP2 DUP2 MLOAD PUSH2 0x1F89 SWAP2 SWAP1 PUSH2 0x465F JUMP JUMPDEST SWAP1 MSTORE POP PUSH2 0x21B6 JUMP JUMPDEST PUSH2 0x1FB7 DUP7 DUP4 DUP2 MLOAD DUP2 LT PUSH2 0x1FA6 JUMPI PUSH2 0x1FA6 PUSH2 0x4601 JUMP JUMPDEST PUSH1 0x20 MUL PUSH1 0x20 ADD ADD MLOAD PUSH1 0x60 ADD MLOAD PUSH2 0x2F31 JUMP JUMPDEST PUSH2 0x1FD3 JUMPI PUSH1 0x40 MLOAD PUSH3 0x461BCD PUSH1 0xE5 SHL DUP2 MSTORE PUSH1 0x4 ADD PUSH2 0x408 SWAP1 PUSH2 0x47AC JUMP JUMPDEST DUP6 DUP3 DUP2 MLOAD DUP2 LT PUSH2 0x1FE5 JUMPI PUSH2 0x1FE5 PUSH2 0x4601 JUMP JUMPDEST PUSH1 0x20 MUL PUSH1 0x20 ADD ADD MLOAD PUSH1 0x40 ADD MLOAD PUSH1 0x7 PUSH1 0x0 CALLER PUSH1 0x1 PUSH1 0x1 PUSH1 0xA0 SHL SUB AND PUSH1 0x1 PUSH1 0x1 PUSH1 0xA0 SHL SUB AND DUP2 MSTORE PUSH1 0x20 ADD SWAP1 DUP2 MSTORE PUSH1 0x20 ADD PUSH1 0x0 KECCAK256 PUSH1 0x0 DUP9 DUP6 DUP2 MLOAD DUP2 LT PUSH2 0x202A JUMPI PUSH2 0x202A PUSH2 0x4601 JUMP JUMPDEST PUSH1 0x20 MUL PUSH1 0x20 ADD ADD MLOAD PUSH1 0x60 ADD MLOAD PUSH1 0x1 PUSH1 0x1 PUSH1 0xA0 SHL SUB AND PUSH1 0x1 PUSH1 0x1 PUSH1 0xA0 SHL SUB AND DUP2 MSTORE PUSH1 0x20 ADD SWAP1 DUP2 MSTORE PUSH1 0x20 ADD PUSH1 0x0 KECCAK256 SLOAD PUSH2 0x2061 SWAP2 SWAP1 PUSH2 0x465F JUMP JUMPDEST DUP7 DUP4 DUP2 MLOAD DUP2 LT PUSH2 0x2073 JUMPI PUSH2 0x2073 PUSH2 0x4601 JUMP JUMPDEST PUSH1 0x20 SWAP1 DUP2 MUL SWAP2 SWAP1 SWAP2 ADD ADD MLOAD PUSH1 0x60 ADD MLOAD PUSH1 0x40 MLOAD PUSH4 0x6EB1769F PUSH1 0xE1 SHL DUP2 MSTORE CALLER PUSH1 0x4 DUP3 ADD MSTORE ADDRESS PUSH1 0x24 DUP3 ADD MSTORE PUSH1 0x1 PUSH1 0x1 PUSH1 0xA0 SHL SUB SWAP1 SWAP2 AND SWAP1 PUSH4 0xDD62ED3E SWAP1 PUSH1 0x44 ADD PUSH1 0x20 PUSH1 0x40 MLOAD DUP1 DUP4 SUB DUP2 PUSH1 0x0 DUP8 DUP1 EXTCODESIZE ISZERO DUP1 ISZERO PUSH2 0x20CA JUMPI PUSH1 0x0 DUP1 REVERT JUMPDEST POP GAS CALL ISZERO DUP1 ISZERO PUSH2 0x20DE JUMPI RETURNDATASIZE PUSH1 0x0 DUP1 RETURNDATACOPY RETURNDATASIZE PUSH1 0x0 REVERT JUMPDEST POP POP POP POP PUSH1 0x40 MLOAD RETURNDATASIZE PUSH1 0x1F NOT PUSH1 0x1F DUP3 ADD AND DUP3 ADD DUP1 PUSH1 0x40 MSTORE POP DUP2 ADD SWAP1 PUSH2 0x2102 SWAP2 SWAP1 PUSH2 0x47F1 JUMP JUMPDEST LT ISZERO PUSH2 0x2120 JUMPI PUSH1 0x40 MLOAD PUSH3 0x461BCD PUSH1 0xE5 SHL DUP2 MSTORE PUSH1 0x4 ADD PUSH2 0x408 SWAP1 PUSH2 0x480A JUMP JUMPDEST PUSH2 0x2147 DUP7 DUP4 DUP2 MLOAD DUP2 LT PUSH2 0x2135 JUMPI PUSH2 0x2135 PUSH2 0x4601 JUMP JUMPDEST PUSH1 0x20 MUL PUSH1 0x20 ADD ADD MLOAD PUSH1 0x60 ADD MLOAD DUP6 PUSH2 0x3E5A JUMP JUMPDEST PUSH2 0x21B6 JUMPI DUP6 DUP3 DUP2 MLOAD DUP2 LT PUSH2 0x215D JUMPI PUSH2 0x215D PUSH2 0x4601 JUMP JUMPDEST PUSH1 0x20 MUL PUSH1 0x20 ADD ADD MLOAD PUSH1 0x60 ADD MLOAD DUP5 DUP7 PUSH1 0x20 ADD MLOAD DUP2 MLOAD DUP2 LT PUSH2 0x217F JUMPI PUSH2 0x217F PUSH2 0x4601 JUMP JUMPDEST PUSH1 0x20 MUL PUSH1 0x20 ADD ADD SWAP1 PUSH1 0x1 PUSH1 0x1 PUSH1 0xA0 SHL SUB AND SWAP1 DUP2 PUSH1 0x1 PUSH1 0x1 PUSH1 0xA0 SHL SUB AND DUP2 MSTORE POP POP PUSH1 0x1 DUP6 PUSH1 0x20 ADD DUP2 DUP2 MLOAD PUSH2 0x21B2 SWAP2 SWAP1 PUSH2 0x465F JUMP JUMPDEST SWAP1 MSTORE POP JUMPDEST DUP6 DUP3 DUP2 MLOAD DUP2 LT PUSH2 0x21C8 JUMPI PUSH2 0x21C8 PUSH2 0x4601 JUMP JUMPDEST PUSH1 0x20 MUL PUSH1 0x20 ADD ADD MLOAD PUSH1 0x40 ADD MLOAD PUSH1 0x8 PUSH1 0x0 DUP9 DUP6 DUP2 MLOAD DUP2 LT PUSH2 0x21EA JUMPI PUSH2 0x21EA PUSH2 0x4601 JUMP JUMPDEST PUSH1 0x20 MUL PUSH1 0x20 ADD ADD MLOAD PUSH1 0x60 ADD MLOAD PUSH1 0x1 PUSH1 0x1 PUSH1 0xA0 SHL SUB AND PUSH1 0x1 PUSH1 0x1 PUSH1 0xA0 SHL SUB AND DUP2 MSTORE PUSH1 0x20 ADD SWAP1 DUP2 MSTORE PUSH1 0x20 ADD PUSH1 0x0 KECCAK256 PUSH1 0x0 DUP3 DUP3 SLOAD PUSH2 0x2225 SWAP2 SWAP1 PUSH2 0x465F JUMP JUMPDEST SWAP3 POP POP DUP2 SWAP1 SSTORE POP DUP6 DUP3 DUP2 MLOAD DUP2 LT PUSH2 0x223E JUMPI PUSH2 0x223E PUSH2 0x4601 JUMP JUMPDEST PUSH1 0x20 MUL PUSH1 0x20 ADD ADD MLOAD PUSH1 0x40 ADD MLOAD PUSH1 0x7 PUSH1 0x0 CALLER PUSH1 0x1 PUSH1 0x1 PUSH1 0xA0 SHL SUB AND PUSH1 0x1 PUSH1 0x1 PUSH1 0xA0 SHL SUB AND DUP2 MSTORE PUSH1 0x20 ADD SWAP1 DUP2 MSTORE PUSH1 0x20 ADD PUSH1 0x0 KECCAK256 PUSH1 0x0 DUP9 DUP6 DUP2 MLOAD DUP2 LT PUSH2 0x2283 JUMPI PUSH2 0x2283 PUSH2 0x4601 JUMP JUMPDEST PUSH1 0x20 MUL PUSH1 0x20 ADD ADD MLOAD PUSH1 0x60 ADD MLOAD PUSH1 0x1 PUSH1 0x1 PUSH1 0xA0 SHL SUB AND PUSH1 0x1 PUSH1 0x1 PUSH1 0xA0 SHL SUB AND DUP2 MSTORE PUSH1 0x20 ADD SWAP1 DUP2 MSTORE PUSH1 0x20 ADD PUSH1 0x0 KECCAK256 PUSH1 0x0 DUP3 DUP3 SLOAD PUSH2 0x22BE SWAP2 SWAP1 PUSH2 0x465F JUMP JUMPDEST SWAP1 SWAP2 SSTORE POP DUP3 SWAP2 POP PUSH2 0x22D0 SWAP1 POP DUP2 PUSH2 0x462D JUMP JUMPDEST SWAP2 POP POP PUSH2 0x1E05 JUMP JUMPDEST CALLVALUE PUSH1 0x64 PUSH1 0x1 SLOAD DUP7 PUSH1 0x0 ADD MLOAD PUSH2 0x22ED SWAP2 SWAP1 PUSH2 0x4735 JUMP JUMPDEST PUSH2 0x22F7 SWAP2 SWAP1 PUSH2 0x4754 JUMP JUMPDEST GT ISZERO PUSH2 0x2315 JUMPI PUSH1 0x40 MLOAD PUSH3 0x461BCD PUSH1 0xE5 SHL DUP2 MSTORE PUSH1 0x4 ADD PUSH2 0x408 SWAP1 PUSH2 0x4768 JUMP JUMPDEST POP PUSH1 0x0 JUMPDEST DUP2 MLOAD DUP2 LT ISZERO PUSH2 0x257D JUMPI DUP2 DUP2 DUP2 MLOAD DUP2 LT PUSH2 0x2334 JUMPI PUSH2 0x2334 PUSH2 0x4601 JUMP JUMPDEST PUSH1 0x20 MUL PUSH1 0x20 ADD ADD MLOAD PUSH5 0xFFFFFFFFFF AND PUSH1 0x0 EQ ISZERO PUSH2 0x2350 JUMPI PUSH2 0x257D JUMP JUMPDEST PUSH1 0x0 JUMPDEST DUP6 MLOAD DUP2 PUSH2 0xFFFF AND LT ISZERO PUSH2 0x256A JUMPI PUSH1 0x0 PUSH2 0x237B DUP8 DUP4 PUSH2 0xFFFF AND DUP2 MLOAD DUP2 LT PUSH2 0x1EB7 JUMPI PUSH2 0x1EB7 PUSH2 0x4601 JUMP JUMPDEST SWAP1 POP DUP4 DUP4 DUP2 MLOAD DUP2 LT PUSH2 0x238F JUMPI PUSH2 0x238F PUSH2 0x4601 JUMP JUMPDEST PUSH1 0x20 MUL PUSH1 0x20 ADD ADD MLOAD PUSH5 0xFFFFFFFFFF AND DUP2 PUSH5 0xFFFFFFFFFF AND EQ ISZERO PUSH2 0x2557 JUMPI PUSH1 0x0 PUSH2 0x241E CALLER DUP10 DUP6 PUSH2 0xFFFF AND DUP2 MLOAD DUP2 LT PUSH2 0x23C8 JUMPI PUSH2 0x23C8 PUSH2 0x4601 JUMP JUMPDEST PUSH1 0x20 MUL PUSH1 0x20 ADD ADD MLOAD PUSH1 0x0 ADD MLOAD DUP11 DUP7 PUSH2 0xFFFF AND DUP2 MLOAD DUP2 LT PUSH2 0x23EA JUMPI PUSH2 0x23EA PUSH2 0x4601 JUMP JUMPDEST PUSH1 0x20 MUL PUSH1 0x20 ADD ADD MLOAD PUSH1 0x60 ADD MLOAD DUP6 DUP13 DUP9 PUSH2 0xFFFF AND DUP2 MLOAD DUP2 LT PUSH2 0x240D JUMPI PUSH2 0x240D PUSH2 0x4601 JUMP JUMPDEST PUSH1 0x20 MUL PUSH1 0x20 ADD ADD MLOAD PUSH1 0x40 ADD MLOAD PUSH2 0x33A2 JUMP JUMPDEST SWAP1 POP DUP1 PUSH1 0x5 PUSH1 0x0 DUP8 DUP8 DUP2 MLOAD DUP2 LT PUSH2 0x2437 JUMPI PUSH2 0x2437 PUSH2 0x4601 JUMP JUMPDEST PUSH1 0x20 SWAP1 DUP2 MUL SWAP2 SWAP1 SWAP2 ADD DUP2 ADD MLOAD PUSH5 0xFFFFFFFFFF SWAP1 DUP2 AND DUP4 MSTORE DUP3 DUP3 ADD SWAP4 SWAP1 SWAP4 MSTORE PUSH1 0x40 SWAP2 DUP3 ADD PUSH1 0x0 SWAP1 DUP2 KECCAK256 DUP1 SLOAD PUSH1 0x1 DUP2 DUP2 ADD DUP4 SSTORE SWAP2 DUP4 MSTORE SWAP2 DUP4 SWAP1 KECCAK256 DUP7 MLOAD PUSH1 0x5 SWAP1 SWAP4 MUL ADD SWAP2 DUP3 SSTORE SWAP2 DUP6 ADD MLOAD SWAP2 DUP2 ADD DUP1 SLOAD PUSH1 0x1 PUSH1 0x1 PUSH1 0xA0 SHL SUB SWAP4 DUP5 AND PUSH1 0x1 PUSH1 0x1 PUSH1 0xA0 SHL SUB NOT SWAP2 DUP3 AND OR SWAP1 SWAP2 SSTORE SWAP3 DUP6 ADD MLOAD PUSH1 0x2 DUP3 ADD DUP1 SLOAD SWAP2 DUP5 AND SWAP2 SWAP1 SWAP5 AND OR SWAP1 SWAP3 SSTORE PUSH1 0x60 DUP5 ADD MLOAD PUSH1 0x3 DUP1 DUP5 ADD DUP1 SLOAD PUSH1 0x80 DUP9 ADD MLOAD SWAP1 SWAP7 AND PUSH1 0x1 PUSH1 0xA0 SHL MUL PUSH1 0x1 PUSH1 0x1 PUSH1 0xC8 SHL SUB NOT SWAP1 SWAP7 AND SWAP3 SWAP1 SWAP4 AND SWAP2 SWAP1 SWAP2 OR SWAP4 SWAP1 SWAP4 OR DUP1 DUP3 SSTORE PUSH1 0xA0 DUP6 ADD MLOAD SWAP3 SWAP4 PUSH1 0xFF PUSH1 0xC8 SHL NOT SWAP1 SWAP2 AND SWAP1 PUSH1 0x1 PUSH1 0xC8 SHL SWAP1 DUP5 SWAP1 DUP2 GT ISZERO PUSH2 0x2510 JUMPI PUSH2 0x2510 PUSH2 0x41A7 JUMP JUMPDEST MUL OR SWAP1 SSTORE POP PUSH1 0xC0 SWAP2 SWAP1 SWAP2 ADD MLOAD PUSH1 0x4 SWAP1 SWAP2 ADD SSTORE MLOAD PUSH1 0x6 DUP1 SLOAD PUSH1 0x1 DUP2 ADD DUP3 SSTORE PUSH1 0x0 SWAP2 SWAP1 SWAP2 MSTORE PUSH32 0xF652222313E28459528D920B65115C16C04F3EFC82AAEDC97BE59F3F377C0D3F ADD SSTORE JUMPDEST POP DUP1 PUSH2 0x2562 DUP2 PUSH2 0x48EE JUMP JUMPDEST SWAP2 POP POP PUSH2 0x2353 JUMP JUMPDEST POP DUP1 PUSH2 0x2575 DUP2 PUSH2 0x462D JUMP JUMPDEST SWAP2 POP POP PUSH2 0x2319 JUMP JUMPDEST POP PUSH1 0x0 JUMPDEST DUP3 MLOAD DUP2 LT ISZERO PUSH2 0x27DB JUMPI PUSH1 0x0 PUSH1 0x1 PUSH1 0x1 PUSH1 0xA0 SHL SUB AND DUP4 DUP3 DUP2 MLOAD DUP2 LT PUSH2 0x25A7 JUMPI PUSH2 0x25A7 PUSH2 0x4601 JUMP JUMPDEST PUSH1 0x20 MUL PUSH1 0x20 ADD ADD MLOAD PUSH1 0x1 PUSH1 0x1 PUSH1 0xA0 SHL SUB AND EQ PUSH2 0x2784 JUMPI PUSH1 0x8 PUSH1 0x0 DUP5 DUP4 DUP2 MLOAD DUP2 LT PUSH2 0x25D3 JUMPI PUSH2 0x25D3 PUSH2 0x4601 JUMP JUMPDEST PUSH1 0x20 MUL PUSH1 0x20 ADD ADD MLOAD PUSH1 0x1 PUSH1 0x1 PUSH1 0xA0 SHL SUB AND PUSH1 0x1 PUSH1 0x1 PUSH1 0xA0 SHL SUB AND DUP2 MSTORE PUSH1 0x20 ADD SWAP1 DUP2 MSTORE PUSH1 0x20 ADD PUSH1 0x0 KECCAK256 SLOAD DUP4 DUP3 DUP2 MLOAD DUP2 LT PUSH2 0x260E JUMPI PUSH2 0x260E PUSH2 0x4601 JUMP JUMPDEST PUSH1 0x20 SWAP1 DUP2 MUL SWAP2 SWAP1 SWAP2 ADD ADD MLOAD PUSH1 0x40 MLOAD PUSH4 0x6EB1769F PUSH1 0xE1 SHL DUP2 MSTORE CALLER PUSH1 0x4 DUP3 ADD MSTORE ADDRESS PUSH1 0x24 DUP3 ADD MSTORE PUSH1 0x1 PUSH1 0x1 PUSH1 0xA0 SHL SUB SWAP1 SWAP2 AND SWAP1 PUSH4 0xDD62ED3E SWAP1 PUSH1 0x44 ADD PUSH1 0x20 PUSH1 0x40 MLOAD DUP1 DUP4 SUB DUP2 PUSH1 0x0 DUP8 DUP1 EXTCODESIZE ISZERO DUP1 ISZERO PUSH2 0x2661 JUMPI PUSH1 0x0 DUP1 REVERT JUMPDEST POP GAS CALL ISZERO DUP1 ISZERO PUSH2 0x2675 JUMPI RETURNDATASIZE PUSH1 0x0 DUP1 RETURNDATACOPY RETURNDATASIZE PUSH1 0x0 REVERT JUMPDEST POP POP POP POP PUSH1 0x40 MLOAD RETURNDATASIZE PUSH1 0x1F NOT PUSH1 0x1F DUP3 ADD AND DUP3 ADD DUP1 PUSH1 0x40 MSTORE POP DUP2 ADD SWAP1 PUSH2 0x2699 SWAP2 SWAP1 PUSH2 0x47F1 JUMP JUMPDEST LT ISZERO DUP1 ISZERO PUSH2 0x277B JUMPI POP PUSH1 0x8 PUSH1 0x0 DUP5 DUP4 DUP2 MLOAD DUP2 LT PUSH2 0x26B8 JUMPI PUSH2 0x26B8 PUSH2 0x4601 JUMP JUMPDEST PUSH1 0x20 MUL PUSH1 0x20 ADD ADD MLOAD PUSH1 0x1 PUSH1 0x1 PUSH1 0xA0 SHL SUB AND PUSH1 0x1 PUSH1 0x1 PUSH1 0xA0 SHL SUB AND DUP2 MSTORE PUSH1 0x20 ADD SWAP1 DUP2 MSTORE PUSH1 0x20 ADD PUSH1 0x0 KECCAK256 SLOAD DUP4 DUP3 DUP2 MLOAD DUP2 LT PUSH2 0x26F3 JUMPI PUSH2 0x26F3 PUSH2 0x4601 JUMP JUMPDEST PUSH1 0x20 SWAP1 DUP2 MUL SWAP2 SWAP1 SWAP2 ADD ADD MLOAD PUSH1 0x40 MLOAD PUSH4 0x70A08231 PUSH1 0xE0 SHL DUP2 MSTORE CALLER PUSH1 0x4 DUP3 ADD MSTORE PUSH1 0x1 PUSH1 0x1 PUSH1 0xA0 SHL SUB SWAP1 SWAP2 AND SWAP1 PUSH4 0x70A08231 SWAP1 PUSH1 0x24 ADD PUSH1 0x20 PUSH1 0x40 MLOAD DUP1 DUP4 SUB DUP2 PUSH1 0x0 DUP8 DUP1 EXTCODESIZE ISZERO DUP1 ISZERO PUSH2 0x2740 JUMPI PUSH1 0x0 DUP1 REVERT JUMPDEST POP GAS CALL ISZERO DUP1 ISZERO PUSH2 0x2754 JUMPI RETURNDATASIZE PUSH1 0x0 DUP1 RETURNDATACOPY RETURNDATASIZE PUSH1 0x0 REVERT JUMPDEST POP POP POP POP PUSH1 0x40 MLOAD RETURNDATASIZE PUSH1 0x1F NOT PUSH1 0x1F DUP3 ADD AND DUP3 ADD DUP1 PUSH1 0x40 MSTORE POP DUP2 ADD SWAP1 PUSH2 0x2778 SWAP2 SWAP1 PUSH2 0x47F1 JUMP JUMPDEST LT ISZERO JUMPDEST PUSH2 0x2784 JUMPI PUSH1 0x0 DUP1 REVERT JUMPDEST PUSH1 0x0 PUSH1 0x8 PUSH1 0x0 DUP6 DUP5 DUP2 MLOAD DUP2 LT PUSH2 0x279C JUMPI PUSH2 0x279C PUSH2 0x4601 JUMP JUMPDEST PUSH1 0x20 MUL PUSH1 0x20 ADD ADD MLOAD PUSH1 0x1 PUSH1 0x1 PUSH1 0xA0 SHL SUB AND PUSH1 0x1 PUSH1 0x1 PUSH1 0xA0 SHL SUB AND DUP2 MSTORE PUSH1 0x20 ADD SWAP1 DUP2 MSTORE PUSH1 0x20 ADD PUSH1 0x0 KECCAK256 DUP2 SWAP1 SSTORE POP DUP1 DUP1 PUSH2 0x27D3 SWAP1 PUSH2 0x462D JUMP JUMPDEST SWAP2 POP POP PUSH2 0x2581 JUMP JUMPDEST CALLER PUSH1 0x0 SWAP1 DUP2 MSTORE PUSH1 0x3 PUSH1 0x20 MSTORE PUSH1 0x40 SWAP1 KECCAK256 SLOAD PUSH1 0x1 PUSH1 0xA0 SHL SWAP1 DIV PUSH1 0xFF AND PUSH2 0x130C JUMPI CALLER PUSH1 0x0 DUP2 DUP2 MSTORE PUSH1 0x3 PUSH1 0x20 MSTORE PUSH1 0x40 DUP2 KECCAK256 DUP1 SLOAD PUSH1 0x1 PUSH1 0x1 PUSH1 0xA0 SHL SUB NOT SWAP1 DUP2 AND DUP5 OR DUP3 SSTORE PUSH1 0x4 DUP1 SLOAD PUSH1 0x1 DUP2 ADD SWAP1 SWAP2 SSTORE PUSH32 0x8A35ACFBC15FF81A39AE7D344FD709F28E8600B4AA8C65C6B64BFE7FE36BD19B ADD DUP1 SLOAD SWAP1 SWAP2 AND DUP5 OR SWAP1 SSTORE SWAP2 SWAP1 MSTORE DUP1 SLOAD PUSH1 0xFF PUSH1 0xA0 SHL NOT AND PUSH1 0x1 PUSH1 0xA0 SHL OR SWAP1 SSTORE POP POP POP POP JUMPDEST POP JUMP JUMPDEST PUSH1 0x0 SLOAD PUSH1 0x60 SWAP1 PUSH1 0x1 PUSH1 0x1 PUSH1 0xA0 SHL SUB AND CALLER EQ PUSH2 0x2899 JUMPI PUSH1 0x40 MLOAD PUSH3 0x461BCD PUSH1 0xE5 SHL DUP2 MSTORE PUSH1 0x4 ADD PUSH2 0x408 SWAP1 PUSH2 0x45CA JUMP JUMPDEST PUSH1 0x1 PUSH1 0x1 PUSH1 0xA0 SHL SUB DUP3 AND PUSH1 0x0 SWAP1 DUP2 MSTORE PUSH1 0x3 PUSH1 0x20 SWAP1 DUP2 MSTORE PUSH1 0x40 DUP1 DUP4 KECCAK256 PUSH1 0x1 ADD DUP1 SLOAD DUP3 MLOAD DUP2 DUP6 MUL DUP2 ADD DUP6 ADD SWAP1 SWAP4 MSTORE DUP1 DUP4 MSTORE SWAP2 SWAP3 SWAP1 SWAP2 SWAP1 DUP4 ADD DUP3 DUP3 DUP1 ISZERO PUSH2 0x292A JUMPI PUSH1 0x20 MUL DUP3 ADD SWAP2 SWAP1 PUSH1 0x0 MSTORE PUSH1 0x20 PUSH1 0x0 KECCAK256 SWAP1 PUSH1 0x0 SWAP1 JUMPDEST DUP3 DUP3 SWAP1 SLOAD SWAP1 PUSH2 0x100 EXP SWAP1 DIV PUSH5 0xFFFFFFFFFF AND PUSH5 0xFFFFFFFFFF AND DUP2 MSTORE PUSH1 0x20 ADD SWAP1 PUSH1 0x5 ADD SWAP1 PUSH1 0x20 DUP3 PUSH1 0x4 ADD DIV SWAP3 DUP4 ADD SWAP3 PUSH1 0x1 SUB DUP3 MUL SWAP2 POP DUP1 DUP5 GT PUSH2 0x28EB JUMPI SWAP1 POP JUMPDEST POP POP POP POP POP SWAP1 POP PUSH1 0x0 DUP1 JUMPDEST DUP3 MLOAD DUP2 LT ISZERO PUSH2 0x2A82 JUMPI PUSH1 0x0 PUSH1 0x5 PUSH1 0x0 DUP6 DUP5 DUP2 MLOAD DUP2 LT PUSH2 0x2956 JUMPI PUSH2 0x2956 PUSH2 0x4601 JUMP JUMPDEST PUSH1 0x20 MUL PUSH1 0x20 ADD ADD MLOAD PUSH5 0xFFFFFFFFFF AND PUSH5 0xFFFFFFFFFF AND DUP2 MSTORE PUSH1 0x20 ADD SWAP1 DUP2 MSTORE PUSH1 0x20 ADD PUSH1 0x0 KECCAK256 DUP1 SLOAD DUP1 PUSH1 0x20 MUL PUSH1 0x20 ADD PUSH1 0x40 MLOAD SWAP1 DUP2 ADD PUSH1 0x40 MSTORE DUP1 SWAP3 SWAP2 SWAP1 DUP2 DUP2 MSTORE PUSH1 0x20 ADD PUSH1 0x0 SWAP1 JUMPDEST DUP3 DUP3 LT ISZERO PUSH2 0x2A59 JUMPI PUSH1 0x0 DUP5 DUP2 MSTORE PUSH1 0x20 SWAP1 DUP2 SWAP1 KECCAK256 PUSH1 0x40 DUP1 MLOAD PUSH1 0xE0 DUP2 ADD DUP3 MSTORE PUSH1 0x5 DUP7 MUL SWAP1 SWAP3 ADD DUP1 SLOAD DUP4 MSTORE PUSH1 0x1 DUP2 ADD SLOAD PUSH1 0x1 PUSH1 0x1 PUSH1 0xA0 SHL SUB SWAP1 DUP2 AND SWAP5 DUP5 ADD SWAP5 SWAP1 SWAP5 MSTORE PUSH1 0x2 DUP2 ADD SLOAD DUP5 AND SWAP2 DUP4 ADD SWAP2 SWAP1 SWAP2 MSTORE PUSH1 0x3 DUP1 DUP3 ADD SLOAD SWAP4 DUP5 AND PUSH1 0x60 DUP5 ADD MSTORE PUSH1 0x1 PUSH1 0xA0 SHL DUP5 DIV PUSH5 0xFFFFFFFFFF AND PUSH1 0x80 DUP5 ADD MSTORE SWAP2 SWAP3 SWAP1 SWAP2 PUSH1 0xA0 DUP5 ADD SWAP2 PUSH1 0x1 PUSH1 0xC8 SHL SWAP1 DIV PUSH1 0xFF AND SWAP1 DUP2 GT ISZERO PUSH2 0x2A2B JUMPI PUSH2 0x2A2B PUSH2 0x41A7 JUMP JUMPDEST PUSH1 0x3 DUP2 GT ISZERO PUSH2 0x2A3C JUMPI PUSH2 0x2A3C PUSH2 0x41A7 JUMP JUMPDEST DUP2 MSTORE PUSH1 0x20 ADD PUSH1 0x4 DUP3 ADD SLOAD DUP2 MSTORE POP POP DUP2 MSTORE PUSH1 0x20 ADD SWAP1 PUSH1 0x1 ADD SWAP1 PUSH2 0x299A JUMP JUMPDEST POP POP POP POP SWAP1 POP DUP1 MLOAD DUP4 PUSH2 0x2A6C SWAP2 SWAP1 PUSH2 0x465F JUMP JUMPDEST SWAP3 POP POP DUP1 DUP1 PUSH2 0x2A7A SWAP1 PUSH2 0x462D JUMP JUMPDEST SWAP2 POP POP PUSH2 0x2935 JUMP JUMPDEST POP PUSH1 0x0 DUP2 PUSH8 0xFFFFFFFFFFFFFFFF DUP2 GT ISZERO PUSH2 0x2A9E JUMPI PUSH2 0x2A9E PUSH2 0x445F JUMP JUMPDEST PUSH1 0x40 MLOAD SWAP1 DUP1 DUP3 MSTORE DUP1 PUSH1 0x20 MUL PUSH1 0x20 ADD DUP3 ADD PUSH1 0x40 MSTORE DUP1 ISZERO PUSH2 0x2AD7 JUMPI DUP2 PUSH1 0x20 ADD JUMPDEST PUSH2 0x2AC4 PUSH2 0x4085 JUMP JUMPDEST DUP2 MSTORE PUSH1 0x20 ADD SWAP1 PUSH1 0x1 SWAP1 SUB SWAP1 DUP2 PUSH2 0x2ABC JUMPI SWAP1 POP JUMPDEST POP SWAP1 POP PUSH1 0x0 DUP3 PUSH8 0xFFFFFFFFFFFFFFFF DUP2 GT ISZERO PUSH2 0x2AF5 JUMPI PUSH2 0x2AF5 PUSH2 0x445F JUMP JUMPDEST PUSH1 0x40 MLOAD SWAP1 DUP1 DUP3 MSTORE DUP1 PUSH1 0x20 MUL PUSH1 0x20 ADD DUP3 ADD PUSH1 0x40 MSTORE DUP1 ISZERO PUSH2 0x2B2E JUMPI DUP2 PUSH1 0x20 ADD JUMPDEST PUSH2 0x2B1B PUSH2 0x4085 JUMP JUMPDEST DUP2 MSTORE PUSH1 0x20 ADD SWAP1 PUSH1 0x1 SWAP1 SUB SWAP1 DUP2 PUSH2 0x2B13 JUMPI SWAP1 POP JUMPDEST POP SWAP1 POP PUSH1 0x0 DUP1 JUMPDEST DUP6 MLOAD DUP2 LT ISZERO PUSH2 0x2D0B JUMPI PUSH1 0x5 PUSH1 0x0 DUP8 DUP4 DUP2 MLOAD DUP2 LT PUSH2 0x2B54 JUMPI PUSH2 0x2B54 PUSH2 0x4601 JUMP JUMPDEST PUSH1 0x20 MUL PUSH1 0x20 ADD ADD MLOAD PUSH5 0xFFFFFFFFFF AND PUSH5 0xFFFFFFFFFF AND DUP2 MSTORE PUSH1 0x20 ADD SWAP1 DUP2 MSTORE PUSH1 0x20 ADD PUSH1 0x0 KECCAK256 DUP1 SLOAD DUP1 PUSH1 0x20 MUL PUSH1 0x20 ADD PUSH1 0x40 MLOAD SWAP1 DUP2 ADD PUSH1 0x40 MSTORE DUP1 SWAP3 SWAP2 SWAP1 DUP2 DUP2 MSTORE PUSH1 0x20 ADD PUSH1 0x0 SWAP1 JUMPDEST DUP3 DUP3 LT ISZERO PUSH2 0x2C57 JUMPI PUSH1 0x0 DUP5 DUP2 MSTORE PUSH1 0x20 SWAP1 DUP2 SWAP1 KECCAK256 PUSH1 0x40 DUP1 MLOAD PUSH1 0xE0 DUP2 ADD DUP3 MSTORE PUSH1 0x5 DUP7 MUL SWAP1 SWAP3 ADD DUP1 SLOAD DUP4 MSTORE PUSH1 0x1 DUP2 ADD SLOAD PUSH1 0x1 PUSH1 0x1 PUSH1 0xA0 SHL SUB SWAP1 DUP2 AND SWAP5 DUP5 ADD SWAP5 SWAP1 SWAP5 MSTORE PUSH1 0x2 DUP2 ADD SLOAD DUP5 AND SWAP2 DUP4 ADD SWAP2 SWAP1 SWAP2 MSTORE PUSH1 0x3 DUP1 DUP3 ADD SLOAD SWAP4 DUP5 AND PUSH1 0x60 DUP5 ADD MSTORE PUSH1 0x1 PUSH1 0xA0 SHL DUP5 DIV PUSH5 0xFFFFFFFFFF AND PUSH1 0x80 DUP5 ADD MSTORE SWAP2 SWAP3 SWAP1 SWAP2 PUSH1 0xA0 DUP5 ADD SWAP2 PUSH1 0x1 PUSH1 0xC8 SHL SWAP1 DIV PUSH1 0xFF AND SWAP1 DUP2 GT ISZERO PUSH2 0x2C29 JUMPI PUSH2 0x2C29 PUSH2 0x41A7 JUMP JUMPDEST PUSH1 0x3 DUP2 GT ISZERO PUSH2 0x2C3A JUMPI PUSH2 0x2C3A PUSH2 0x41A7 JUMP JUMPDEST DUP2 MSTORE PUSH1 0x20 ADD PUSH1 0x4 DUP3 ADD SLOAD DUP2 MSTORE POP POP DUP2 MSTORE PUSH1 0x20 ADD SWAP1 PUSH1 0x1 ADD SWAP1 PUSH2 0x2B98 JUMP JUMPDEST POP POP POP POP SWAP4 POP PUSH1 0x0 JUMPDEST DUP5 MLOAD DUP2 LT ISZERO PUSH2 0x2CF8 JUMPI DUP9 PUSH1 0x1 PUSH1 0x1 PUSH1 0xA0 SHL SUB AND DUP6 DUP3 DUP2 MLOAD DUP2 LT PUSH2 0x2C85 JUMPI PUSH2 0x2C85 PUSH2 0x4601 JUMP JUMPDEST PUSH1 0x20 MUL PUSH1 0x20 ADD ADD MLOAD PUSH1 0x20 ADD MLOAD PUSH1 0x1 PUSH1 0x1 PUSH1 0xA0 SHL SUB AND EQ ISZERO PUSH2 0x2CE6 JUMPI DUP5 DUP2 DUP2 MLOAD DUP2 LT PUSH2 0x2CB2 JUMPI PUSH2 0x2CB2 PUSH2 0x4601 JUMP JUMPDEST PUSH1 0x20 MUL PUSH1 0x20 ADD ADD MLOAD DUP5 DUP5 DUP2 MLOAD DUP2 LT PUSH2 0x2CCC JUMPI PUSH2 0x2CCC PUSH2 0x4601 JUMP JUMPDEST PUSH1 0x20 MUL PUSH1 0x20 ADD ADD DUP2 SWAP1 MSTORE POP DUP3 DUP1 PUSH2 0x2CE2 SWAP1 PUSH2 0x462D JUMP JUMPDEST SWAP4 POP POP JUMPDEST DUP1 PUSH2 0x2CF0 DUP2 PUSH2 0x462D JUMP JUMPDEST SWAP2 POP POP PUSH2 0x2C60 JUMP JUMPDEST POP DUP1 PUSH2 0x2D03 DUP2 PUSH2 0x462D JUMP JUMPDEST SWAP2 POP POP PUSH2 0x2B35 JUMP JUMPDEST POP PUSH1 0x0 JUMPDEST DUP3 MLOAD DUP2 LT ISZERO PUSH2 0x2D6B JUMPI PUSH2 0x2D2D DUP4 DUP3 DUP2 MLOAD DUP2 LT PUSH2 0x1A54 JUMPI PUSH2 0x1A54 PUSH2 0x4601 JUMP JUMPDEST DUP4 DUP3 DUP2 MLOAD DUP2 LT PUSH2 0x2D3F JUMPI PUSH2 0x2D3F PUSH2 0x4601 JUMP JUMPDEST PUSH1 0x20 SWAP1 DUP2 MUL SWAP2 SWAP1 SWAP2 ADD ADD MLOAD PUSH5 0xFFFFFFFFFF SWAP1 SWAP2 AND PUSH1 0x80 SWAP1 SWAP2 ADD MSTORE DUP1 PUSH2 0x2D63 DUP2 PUSH2 0x462D JUMP JUMPDEST SWAP2 POP POP PUSH2 0x2D0F JUMP JUMPDEST POP SWAP1 SWAP5 POP POP POP POP POP JUMPDEST SWAP2 SWAP1 POP JUMP JUMPDEST PUSH1 0x0 DUP1 SLOAD PUSH1 0x1 PUSH1 0x1 PUSH1 0xA0 SHL SUB AND CALLER EQ PUSH2 0x2DA4 JUMPI PUSH1 0x40 MLOAD PUSH3 0x461BCD PUSH1 0xE5 SHL DUP2 MSTORE PUSH1 0x4 ADD PUSH2 0x408 SWAP1 PUSH2 0x45CA JUMP JUMPDEST PUSH1 0x0 PUSH2 0x2DAF TIMESTAMP PUSH2 0x2FF2 JUMP JUMPDEST PUSH1 0xB SLOAD SWAP1 SWAP2 POP PUSH5 0xFFFFFFFFFF PUSH2 0x100 SWAP1 SWAP2 DIV DUP2 AND SWAP1 DUP3 AND GT PUSH2 0x2DE3 JUMPI PUSH1 0x40 MLOAD PUSH3 0x461BCD PUSH1 0xE5 SHL DUP2 MSTORE PUSH1 0x4 ADD PUSH2 0x408 SWAP1 PUSH2 0x4882 JUMP JUMPDEST PUSH1 0xB SLOAD PUSH2 0x100 SWAP1 DIV PUSH5 0xFFFFFFFFFF AND JUMPDEST DUP2 PUSH5 0xFFFFFFFFFF AND DUP2 PUSH5 0xFFFFFFFFFF AND GT PUSH2 0x2F28 JUMPI PUSH5 0xFFFFFFFFFF DUP2 AND PUSH1 0x0 SWAP1 DUP2 MSTORE PUSH1 0x5 PUSH1 0x20 SWAP1 DUP2 MSTORE PUSH1 0x40 DUP1 DUP4 KECCAK256 DUP1 SLOAD DUP3 MLOAD DUP2 DUP6 MUL DUP2 ADD DUP6 ADD SWAP1 SWAP4 MSTORE DUP1 DUP4 MSTORE SWAP2 SWAP3 SWAP1 SWAP2 SWAP1 DUP5 SWAP1 DUP5 ADD JUMPDEST DUP3 DUP3 LT ISZERO PUSH2 0x2EFB JUMPI PUSH1 0x0 DUP5 DUP2 MSTORE PUSH1 0x20 SWAP1 DUP2 SWAP1 KECCAK256 PUSH1 0x40 DUP1 MLOAD PUSH1 0xE0 DUP2 ADD DUP3 MSTORE PUSH1 0x5 DUP7 MUL SWAP1 SWAP3 ADD DUP1 SLOAD DUP4 MSTORE PUSH1 0x1 DUP2 ADD SLOAD PUSH1 0x1 PUSH1 0x1 PUSH1 0xA0 SHL SUB SWAP1 DUP2 AND SWAP5 DUP5 ADD SWAP5 SWAP1 SWAP5 MSTORE PUSH1 0x2 DUP2 ADD SLOAD DUP5 AND SWAP2 DUP4 ADD SWAP2 SWAP1 SWAP2 MSTORE PUSH1 0x3 DUP1 DUP3 ADD SLOAD SWAP4 DUP5 AND PUSH1 0x60 DUP5 ADD MSTORE PUSH1 0x1 PUSH1 0xA0 SHL DUP5 DIV PUSH5 0xFFFFFFFFFF AND PUSH1 0x80 DUP5 ADD MSTORE SWAP2 SWAP3 SWAP1 SWAP2 PUSH1 0xA0 DUP5 ADD SWAP2 PUSH1 0x1 PUSH1 0xC8 SHL SWAP1 DIV PUSH1 0xFF AND SWAP1 DUP2 GT ISZERO PUSH2 0x2ECD JUMPI PUSH2 0x2ECD PUSH2 0x41A7 JUMP JUMPDEST PUSH1 0x3 DUP2 GT ISZERO PUSH2 0x2EDE JUMPI PUSH2 0x2EDE PUSH2 0x41A7 JUMP JUMPDEST DUP2 MSTORE PUSH1 0x20 ADD PUSH1 0x4 DUP3 ADD SLOAD DUP2 MSTORE POP POP DUP2 MSTORE PUSH1 0x20 ADD SWAP1 PUSH1 0x1 ADD SWAP1 PUSH2 0x2E3C JUMP JUMPDEST POP POP POP POP SWAP1 POP PUSH1 0x0 DUP2 MLOAD GT ISZERO PUSH2 0x2F15 JUMPI PUSH1 0x1 SWAP4 POP POP POP POP SWAP1 JUMP JUMPDEST POP DUP1 PUSH2 0x2F20 DUP2 PUSH2 0x48C9 JUMP JUMPDEST SWAP2 POP POP PUSH2 0x2DF3 JUMP JUMPDEST POP PUSH1 0x0 SWAP2 POP POP SWAP1 JUMP JUMPDEST PUSH1 0x0 DUP1 PUSH1 0xA DUP1 SLOAD DUP1 PUSH1 0x20 MUL PUSH1 0x20 ADD PUSH1 0x40 MLOAD SWAP1 DUP2 ADD PUSH1 0x40 MSTORE DUP1 SWAP3 SWAP2 SWAP1 DUP2 DUP2 MSTORE PUSH1 0x20 ADD DUP3 DUP1 SLOAD DUP1 ISZERO PUSH2 0x2F8A JUMPI PUSH1 0x20 MUL DUP3 ADD SWAP2 SWAP1 PUSH1 0x0 MSTORE PUSH1 0x20 PUSH1 0x0 KECCAK256 SWAP1 JUMPDEST DUP2 SLOAD PUSH1 0x1 PUSH1 0x1 PUSH1 0xA0 SHL SUB AND DUP2 MSTORE PUSH1 0x1 SWAP1 SWAP2 ADD SWAP1 PUSH1 0x20 ADD DUP1 DUP4 GT PUSH2 0x2F6C JUMPI JUMPDEST POP POP POP POP POP SWAP1 POP PUSH1 0x0 SWAP2 POP PUSH1 0x0 JUMPDEST DUP2 MLOAD DUP2 LT ISZERO PUSH2 0x2FEB JUMPI DUP2 DUP2 DUP2 MLOAD DUP2 LT PUSH2 0x2FB3 JUMPI PUSH2 0x2FB3 PUSH2 0x4601 JUMP JUMPDEST PUSH1 0x20 MUL PUSH1 0x20 ADD ADD MLOAD PUSH1 0x1 PUSH1 0x1 PUSH1 0xA0 SHL SUB AND DUP5 PUSH1 0x1 PUSH1 0x1 PUSH1 0xA0 SHL SUB AND EQ ISZERO PUSH2 0x2FD9 JUMPI PUSH1 0x1 SWAP3 POP JUMPDEST DUP1 PUSH2 0x2FE3 DUP2 PUSH2 0x462D JUMP JUMPDEST SWAP2 POP POP PUSH2 0x2F98 JUMP JUMPDEST POP POP SWAP2 SWAP1 POP JUMP JUMPDEST PUSH1 0x0 PUSH2 0x3000 PUSH2 0xE10 DUP4 PUSH2 0x4906 JUMP JUMPDEST SWAP3 SWAP2 POP POP JUMP JUMPDEST PUSH5 0xFFFFFFFFFF DUP2 AND PUSH1 0x0 SWAP1 DUP2 MSTORE PUSH1 0x5 PUSH1 0x20 MSTORE PUSH1 0x40 SWAP1 KECCAK256 SLOAD PUSH1 0x1 EQ ISZERO PUSH2 0x3051 JUMPI PUSH5 0xFFFFFFFFFF DUP2 AND PUSH1 0x0 SWAP1 DUP2 MSTORE PUSH1 0x5 PUSH1 0x20 MSTORE PUSH1 0x40 DUP2 KECCAK256 PUSH2 0x3044 SWAP2 PUSH2 0x40C2 JUMP JUMPDEST PUSH2 0x304D DUP2 PUSH2 0x3EB6 JUMP JUMPDEST POP POP JUMP JUMPDEST PUSH5 0xFFFFFFFFFF DUP2 AND PUSH1 0x0 SWAP1 DUP2 MSTORE PUSH1 0x5 PUSH1 0x20 MSTORE PUSH1 0x40 DUP2 KECCAK256 SWAP1 DUP1 DUP1 JUMPDEST DUP4 SLOAD DUP2 LT ISZERO PUSH2 0x315C JUMPI CALLER PUSH1 0x1 PUSH1 0x1 PUSH1 0xA0 SHL SUB AND DUP5 DUP3 DUP2 SLOAD DUP2 LT PUSH2 0x3090 JUMPI PUSH2 0x3090 PUSH2 0x4601 JUMP JUMPDEST PUSH1 0x0 SWAP2 DUP3 MSTORE PUSH1 0x20 SWAP1 SWAP2 KECCAK256 PUSH1 0x1 PUSH1 0x5 SWAP1 SWAP3 MUL ADD ADD SLOAD PUSH1 0x1 PUSH1 0x1 PUSH1 0xA0 SHL SUB AND EQ ISZERO PUSH2 0x30C1 JUMPI DUP2 PUSH2 0x30BD DUP2 PUSH2 0x462D JUMP JUMPDEST SWAP3 POP POP JUMPDEST DUP6 DUP5 DUP3 DUP2 SLOAD DUP2 LT PUSH2 0x30D4 JUMPI PUSH2 0x30D4 PUSH2 0x4601 JUMP JUMPDEST SWAP1 PUSH1 0x0 MSTORE PUSH1 0x20 PUSH1 0x0 KECCAK256 SWAP1 PUSH1 0x5 MUL ADD PUSH1 0x0 ADD SLOAD EQ ISZERO PUSH2 0x314A JUMPI DUP1 SWAP3 POP DUP4 DUP2 DUP2 SLOAD DUP2 LT PUSH2 0x3101 JUMPI PUSH2 0x3101 PUSH2 0x4601 JUMP JUMPDEST PUSH1 0x0 SWAP2 DUP3 MSTORE PUSH1 0x20 DUP3 KECCAK256 PUSH1 0x5 SWAP1 SWAP2 MUL ADD DUP2 DUP2 SSTORE PUSH1 0x1 DUP2 ADD DUP1 SLOAD PUSH1 0x1 PUSH1 0x1 PUSH1 0xA0 SHL SUB NOT SWAP1 DUP2 AND SWAP1 SWAP2 SSTORE PUSH1 0x2 DUP3 ADD DUP1 SLOAD SWAP1 SWAP2 AND SWAP1 SSTORE PUSH1 0x3 DUP2 ADD DUP1 SLOAD PUSH1 0x1 PUSH1 0x1 PUSH1 0xD0 SHL SUB NOT AND SWAP1 SSTORE PUSH1 0x4 ADD SSTORE JUMPDEST DUP1 PUSH2 0x3154 DUP2 PUSH2 0x462D JUMP JUMPDEST SWAP2 POP POP PUSH2 0x306B JUMP JUMPDEST POP DUP3 SLOAD DUP4 SWAP1 PUSH2 0x316D SWAP1 PUSH1 0x1 SWAP1 PUSH2 0x4648 JUMP JUMPDEST DUP2 SLOAD DUP2 LT PUSH2 0x317D JUMPI PUSH2 0x317D PUSH2 0x4601 JUMP JUMPDEST SWAP1 PUSH1 0x0 MSTORE PUSH1 0x20 PUSH1 0x0 KECCAK256 SWAP1 PUSH1 0x5 MUL ADD DUP4 DUP4 DUP2 SLOAD DUP2 LT PUSH2 0x319D JUMPI PUSH2 0x319D PUSH2 0x4601 JUMP JUMPDEST PUSH1 0x0 SWAP2 DUP3 MSTORE PUSH1 0x20 SWAP1 SWAP2 KECCAK256 DUP3 SLOAD PUSH1 0x5 SWAP1 SWAP3 MUL ADD SWAP1 DUP2 SSTORE PUSH1 0x1 DUP1 DUP4 ADD SLOAD SWAP1 DUP3 ADD DUP1 SLOAD PUSH1 0x1 PUSH1 0x1 PUSH1 0xA0 SHL SUB NOT SWAP1 DUP2 AND PUSH1 0x1 PUSH1 0x1 PUSH1 0xA0 SHL SUB SWAP4 DUP5 AND OR SWAP1 SWAP2 SSTORE PUSH1 0x2 DUP1 DUP6 ADD SLOAD SWAP1 DUP5 ADD DUP1 SLOAD DUP4 AND SWAP2 DUP5 AND SWAP2 SWAP1 SWAP2 OR SWAP1 SSTORE PUSH1 0x3 DUP1 DUP6 ADD DUP1 SLOAD DUP3 DUP7 ADD DUP1 SLOAD SWAP5 DUP6 AND SWAP2 SWAP1 SWAP6 AND SWAP1 DUP2 OR DUP6 SSTORE DUP2 SLOAD PUSH5 0xFFFFFFFFFF PUSH1 0x1 PUSH1 0xA0 SHL SWAP2 DUP3 SWAP1 DIV AND MUL PUSH1 0x1 PUSH1 0x1 PUSH1 0xC8 SHL SUB NOT SWAP1 SWAP5 AND OR SWAP3 SWAP1 SWAP3 OR DUP1 DUP5 SSTORE SWAP2 SLOAD PUSH1 0xFF PUSH1 0x1 PUSH1 0xC8 SHL SWAP2 DUP3 SWAP1 DIV AND SWAP4 SWAP3 PUSH1 0xFF PUSH1 0xC8 SHL NOT AND SWAP2 DUP5 SWAP1 DUP2 GT ISZERO PUSH2 0x3256 JUMPI PUSH2 0x3256 PUSH2 0x41A7 JUMP JUMPDEST MUL OR SWAP1 SSTORE POP PUSH1 0x4 SWAP2 DUP3 ADD SLOAD SWAP2 ADD SSTORE DUP3 SLOAD DUP4 SWAP1 DUP1 PUSH2 0x3275 JUMPI PUSH2 0x3275 PUSH2 0x4677 JUMP JUMPDEST PUSH1 0x0 DUP3 DUP2 MSTORE PUSH1 0x20 DUP2 KECCAK256 PUSH1 0x5 PUSH1 0x0 NOT SWAP1 SWAP4 ADD SWAP3 DUP4 MUL ADD DUP2 DUP2 SSTORE PUSH1 0x1 DUP2 DUP2 ADD DUP1 SLOAD PUSH1 0x1 PUSH1 0x1 PUSH1 0xA0 SHL SUB NOT SWAP1 DUP2 AND SWAP1 SWAP2 SSTORE PUSH1 0x2 DUP4 ADD DUP1 SLOAD SWAP1 SWAP2 AND SWAP1 SSTORE PUSH1 0x3 DUP3 ADD DUP1 SLOAD PUSH1 0x1 PUSH1 0x1 PUSH1 0xD0 SHL SUB NOT AND SWAP1 SSTORE PUSH1 0x4 SWAP1 SWAP2 ADD SWAP2 SWAP1 SWAP2 SSTORE SWAP2 SSTORE DUP2 EQ ISZERO PUSH2 0x32DB JUMPI PUSH2 0x32DB DUP5 PUSH2 0x3EB6 JUMP JUMPDEST PUSH1 0x0 DUP1 JUMPDEST PUSH1 0x6 SLOAD DUP2 LT ISZERO PUSH2 0x3328 JUMPI DUP7 PUSH1 0x6 DUP3 DUP2 SLOAD DUP2 LT PUSH2 0x32FD JUMPI PUSH2 0x32FD PUSH2 0x4601 JUMP JUMPDEST SWAP1 PUSH1 0x0 MSTORE PUSH1 0x20 PUSH1 0x0 KECCAK256 ADD SLOAD EQ ISZERO PUSH2 0x3316 JUMPI DUP1 SWAP2 POP PUSH2 0x3328 JUMP JUMPDEST DUP1 PUSH2 0x3320 DUP2 PUSH2 0x462D JUMP JUMPDEST SWAP2 POP POP PUSH2 0x32DF JUMP JUMPDEST POP PUSH1 0x6 DUP1 SLOAD PUSH2 0x3339 SWAP1 PUSH1 0x1 SWAP1 PUSH2 0x4648 JUMP JUMPDEST DUP2 SLOAD DUP2 LT PUSH2 0x3349 JUMPI PUSH2 0x3349 PUSH2 0x4601 JUMP JUMPDEST SWAP1 PUSH1 0x0 MSTORE PUSH1 0x20 PUSH1 0x0 KECCAK256 ADD SLOAD PUSH1 0x6 DUP3 DUP2 SLOAD DUP2 LT PUSH2 0x3367 JUMPI PUSH2 0x3367 PUSH2 0x4601 JUMP JUMPDEST PUSH1 0x0 SWAP2 DUP3 MSTORE PUSH1 0x20 SWAP1 SWAP2 KECCAK256 ADD SSTORE PUSH1 0x6 DUP1 SLOAD DUP1 PUSH2 0x3384 JUMPI PUSH2 0x3384 PUSH2 0x4677 JUMP JUMPDEST PUSH1 0x1 SWAP1 SUB DUP2 DUP2 SWAP1 PUSH1 0x0 MSTORE PUSH1 0x20 PUSH1 0x0 KECCAK256 ADD PUSH1 0x0 SWAP1 SSTORE SWAP1 SSTORE POP POP POP POP POP POP JUMP JUMPDEST PUSH2 0x33AA PUSH2 0x4085 JUMP JUMPDEST PUSH1 0x40 MLOAD PUSH12 0xFFFFFFFFFFFFFFFFFFFFFFFF NOT PUSH1 0x60 DUP9 SWAP1 SHL AND PUSH1 0x20 DUP3 ADD MSTORE PUSH1 0x1 PUSH1 0x1 PUSH1 0xD8 SHL SUB NOT PUSH1 0xD8 DUP6 SWAP1 SHL AND PUSH1 0x34 DUP3 ADD MSTORE TIMESTAMP PUSH1 0x39 DUP3 ADD MSTORE PUSH1 0x0 SWAP1 PUSH1 0x59 ADD PUSH1 0x40 MLOAD PUSH1 0x20 DUP2 DUP4 SUB SUB DUP2 MSTORE SWAP1 PUSH1 0x40 MSTORE DUP1 MLOAD SWAP1 PUSH1 0x20 ADD KECCAK256 SWAP1 POP PUSH1 0x40 MLOAD DUP1 PUSH1 0xE0 ADD PUSH1 0x40 MSTORE DUP1 DUP3 DUP2 MSTORE PUSH1 0x20 ADD DUP9 PUSH1 0x1 PUSH1 0x1 PUSH1 0xA0 SHL SUB AND DUP2 MSTORE PUSH1 0x20 ADD DUP8 PUSH1 0x1 PUSH1 0x1 PUSH1 0xA0 SHL SUB AND DUP2 MSTORE PUSH1 0x20 ADD DUP7 PUSH1 0x1 PUSH1 0x1 PUSH1 0xA0 SHL SUB AND DUP2 MSTORE PUSH1 0x20 ADD DUP6 PUSH5 0xFFFFFFFFFF AND DUP2 MSTORE PUSH1 0x20 ADD PUSH1 0x0 PUSH1 0x3 DUP2 GT ISZERO PUSH2 0x345C JUMPI PUSH2 0x345C PUSH2 0x41A7 JUMP JUMPDEST DUP2 MSTORE PUSH1 0x20 ADD DUP5 SWAP1 MSTORE SWAP2 POP POP SWAP6 SWAP5 POP POP POP POP POP JUMP JUMPDEST CALLER PUSH1 0x0 SWAP1 DUP2 MSTORE PUSH1 0x3 PUSH1 0x20 MSTORE PUSH1 0x40 SWAP1 KECCAK256 SLOAD PUSH1 0x1 PUSH1 0xA0 SHL SWAP1 DIV PUSH1 0xFF AND PUSH2 0x3538 JUMPI CALLER PUSH1 0x0 DUP2 DUP2 MSTORE PUSH1 0x3 PUSH1 0x20 SWAP1 DUP2 MSTORE PUSH1 0x40 DUP3 KECCAK256 DUP1 SLOAD PUSH1 0x1 PUSH1 0x1 PUSH1 0xA0 SHL SUB NOT SWAP1 DUP2 AND DUP6 OR DUP3 SSTORE PUSH1 0x4 DUP1 SLOAD PUSH1 0x1 DUP2 DUP2 ADD SWAP1 SWAP3 SSTORE PUSH32 0x8A35ACFBC15FF81A39AE7D344FD709F28E8600B4AA8C65C6B64BFE7FE36BD19B ADD DUP1 SLOAD SWAP1 SWAP3 AND SWAP1 SWAP6 OR SWAP1 SSTORE DUP1 SLOAD PUSH1 0x1 PUSH1 0xA0 SHL PUSH1 0xFF PUSH1 0xA0 SHL NOT SWAP1 SWAP2 AND OR DUP2 SSTORE DUP4 ADD DUP1 SLOAD SWAP4 DUP5 ADD DUP2 SSTORE DUP3 MSTORE SWAP1 KECCAK256 PUSH1 0x6 DUP1 DUP4 DIV SWAP1 SWAP2 ADD DUP1 SLOAD SWAP2 SWAP1 SWAP3 MOD PUSH1 0x5 MUL PUSH2 0x100 EXP PUSH5 0xFFFFFFFFFF DUP2 DUP2 MUL NOT SWAP1 SWAP3 AND SWAP4 SWAP1 SWAP2 AND MUL SWAP2 SWAP1 SWAP2 OR SWAP1 SSTORE JUMP JUMPDEST CALLER PUSH1 0x0 SWAP1 DUP2 MSTORE PUSH1 0x3 PUSH1 0x20 SWAP1 DUP2 MSTORE PUSH1 0x40 DUP1 DUP4 KECCAK256 PUSH1 0x1 ADD DUP1 SLOAD DUP3 MLOAD DUP2 DUP6 MUL DUP2 ADD DUP6 ADD SWAP1 SWAP4 MSTORE DUP1 DUP4 MSTORE SWAP2 SWAP3 SWAP1 SWAP2 SWAP1 DUP4 ADD DUP3 DUP3 DUP1 ISZERO PUSH2 0x35C0 JUMPI PUSH1 0x20 MUL DUP3 ADD SWAP2 SWAP1 PUSH1 0x0 MSTORE PUSH1 0x20 PUSH1 0x0 KECCAK256 SWAP1 PUSH1 0x0 SWAP1 JUMPDEST DUP3 DUP3 SWAP1 SLOAD SWAP1 PUSH2 0x100 EXP SWAP1 DIV PUSH5 0xFFFFFFFFFF AND PUSH5 0xFFFFFFFFFF AND DUP2 MSTORE PUSH1 0x20 ADD SWAP1 PUSH1 0x5 ADD SWAP1 PUSH1 0x20 DUP3 PUSH1 0x4 ADD DIV SWAP3 DUP4 ADD SWAP3 PUSH1 0x1 SUB DUP3 MUL SWAP2 POP DUP1 DUP5 GT PUSH2 0x3581 JUMPI SWAP1 POP JUMPDEST POP POP POP POP POP SWAP1 POP PUSH2 0x35D1 DUP3 DUP3 PUSH2 0x3DF8 JUMP JUMPDEST PUSH2 0x304D JUMPI POP CALLER PUSH1 0x0 SWAP1 DUP2 MSTORE PUSH1 0x3 PUSH1 0x20 SWAP1 DUP2 MSTORE PUSH1 0x40 DUP3 KECCAK256 PUSH1 0x1 SWAP1 DUP2 ADD DUP1 SLOAD SWAP2 DUP3 ADD DUP2 SSTORE DUP4 MSTORE SWAP2 KECCAK256 PUSH1 0x6 DUP1 DUP4 DIV SWAP1 SWAP2 ADD DUP1 SLOAD SWAP2 SWAP1 SWAP3 MOD PUSH1 0x5 MUL PUSH2 0x100 EXP PUSH5 0xFFFFFFFFFF DUP2 DUP2 MUL NOT SWAP1 SWAP3 AND SWAP4 SWAP1 SWAP2 AND MUL SWAP2 SWAP1 SWAP2 OR SWAP1 SSTORE JUMP JUMPDEST PUSH1 0xB SLOAD PUSH1 0xFF AND PUSH2 0x2869 JUMPI PUSH1 0x0 DUP1 PUSH1 0x0 DUP4 MLOAD PUSH8 0xFFFFFFFFFFFFFFFF DUP2 GT ISZERO PUSH2 0x364F JUMPI PUSH2 0x364F PUSH2 0x445F JUMP JUMPDEST PUSH1 0x40 MLOAD SWAP1 DUP1 DUP3 MSTORE DUP1 PUSH1 0x20 MUL PUSH1 0x20 ADD DUP3 ADD PUSH1 0x40 MSTORE DUP1 ISZERO PUSH2 0x3688 JUMPI DUP2 PUSH1 0x20 ADD JUMPDEST PUSH2 0x3675 PUSH2 0x4085 JUMP JUMPDEST DUP2 MSTORE PUSH1 0x20 ADD SWAP1 PUSH1 0x1 SWAP1 SUB SWAP1 DUP2 PUSH2 0x366D JUMPI SWAP1 POP JUMPDEST POP SWAP1 POP PUSH1 0x0 JUMPDEST DUP5 MLOAD DUP2 LT ISZERO PUSH2 0x3A8D JUMPI PUSH1 0x0 PUSH1 0x1 PUSH1 0x1 PUSH1 0xA0 SHL SUB AND DUP6 DUP3 DUP2 MLOAD DUP2 LT PUSH2 0x36B4 JUMPI PUSH2 0x36B4 PUSH2 0x4601 JUMP JUMPDEST PUSH1 0x20 MUL PUSH1 0x20 ADD ADD MLOAD PUSH1 0x60 ADD MLOAD PUSH1 0x1 PUSH1 0x1 PUSH1 0xA0 SHL SUB AND EQ ISZERO PUSH2 0x3744 JUMPI DUP5 DUP2 DUP2 MLOAD DUP2 LT PUSH2 0x36E1 JUMPI PUSH2 0x36E1 PUSH2 0x4601 JUMP JUMPDEST PUSH1 0x20 MUL PUSH1 0x20 ADD ADD MLOAD PUSH1 0xC0 ADD MLOAD DUP5 PUSH2 0x36F8 SWAP2 SWAP1 PUSH2 0x465F JUMP JUMPDEST SWAP4 POP DUP5 DUP2 DUP2 MLOAD DUP2 LT PUSH2 0x370C JUMPI PUSH2 0x370C PUSH2 0x4601 JUMP JUMPDEST PUSH1 0x20 MUL PUSH1 0x20 ADD ADD MLOAD DUP3 DUP5 DUP2 MLOAD DUP2 LT PUSH2 0x3726 JUMPI PUSH2 0x3726 PUSH2 0x4601 JUMP JUMPDEST PUSH1 0x20 MUL PUSH1 0x20 ADD ADD DUP2 SWAP1 MSTORE POP DUP3 DUP1 PUSH2 0x373C SWAP1 PUSH2 0x462D JUMP JUMPDEST SWAP4 POP POP PUSH2 0x3A7B JUMP JUMPDEST DUP5 DUP2 DUP2 MLOAD DUP2 LT PUSH2 0x3756 JUMPI PUSH2 0x3756 PUSH2 0x4601 JUMP JUMPDEST PUSH1 0x20 MUL PUSH1 0x20 ADD ADD MLOAD PUSH1 0xC0 ADD MLOAD DUP6 DUP3 DUP2 MLOAD DUP2 LT PUSH2 0x3774 JUMPI PUSH2 0x3774 PUSH2 0x4601 JUMP JUMPDEST PUSH1 0x20 MUL PUSH1 0x20 ADD ADD MLOAD PUSH1 0x60 ADD MLOAD PUSH1 0x1 PUSH1 0x1 PUSH1 0xA0 SHL SUB AND PUSH4 0xDD62ED3E DUP8 DUP5 DUP2 MLOAD DUP2 LT PUSH2 0x37A0 JUMPI PUSH2 0x37A0 PUSH2 0x4601 JUMP JUMPDEST PUSH1 0x20 SWAP1 DUP2 MUL SWAP2 SWAP1 SWAP2 ADD DUP2 ADD MLOAD ADD MLOAD PUSH1 0x40 MLOAD PUSH1 0x1 PUSH1 0x1 PUSH1 0xE0 SHL SUB NOT PUSH1 0xE0 DUP5 SWAP1 SHL AND DUP2 MSTORE PUSH1 0x1 PUSH1 0x1 PUSH1 0xA0 SHL SUB SWAP1 SWAP2 AND PUSH1 0x4 DUP3 ADD MSTORE ADDRESS PUSH1 0x24 DUP3 ADD MSTORE PUSH1 0x44 ADD PUSH1 0x20 PUSH1 0x40 MLOAD DUP1 DUP4 SUB DUP2 PUSH1 0x0 DUP8 DUP1 EXTCODESIZE ISZERO DUP1 ISZERO PUSH2 0x37F5 JUMPI PUSH1 0x0 DUP1 REVERT JUMPDEST POP GAS CALL ISZERO DUP1 ISZERO PUSH2 0x3809 JUMPI RETURNDATASIZE PUSH1 0x0 DUP1 RETURNDATACOPY RETURNDATASIZE PUSH1 0x0 REVERT JUMPDEST POP POP POP POP PUSH1 0x40 MLOAD RETURNDATASIZE PUSH1 0x1F NOT PUSH1 0x1F DUP3 ADD AND DUP3 ADD DUP1 PUSH1 0x40 MSTORE POP DUP2 ADD SWAP1 PUSH2 0x382D SWAP2 SWAP1 PUSH2 0x47F1 JUMP JUMPDEST LT DUP1 PUSH2 0x391B JUMPI POP DUP5 DUP2 DUP2 MLOAD DUP2 LT PUSH2 0x3846 JUMPI PUSH2 0x3846 PUSH2 0x4601 JUMP JUMPDEST PUSH1 0x20 MUL PUSH1 0x20 ADD ADD MLOAD PUSH1 0xC0 ADD MLOAD DUP6 DUP3 DUP2 MLOAD DUP2 LT PUSH2 0x3864 JUMPI PUSH2 0x3864 PUSH2 0x4601 JUMP JUMPDEST PUSH1 0x20 MUL PUSH1 0x20 ADD ADD MLOAD PUSH1 0x60 ADD MLOAD PUSH1 0x1 PUSH1 0x1 PUSH1 0xA0 SHL SUB AND PUSH4 0x70A08231 DUP8 DUP5 DUP2 MLOAD DUP2 LT PUSH2 0x3890 JUMPI PUSH2 0x3890 PUSH2 0x4601 JUMP JUMPDEST PUSH1 0x20 MUL PUSH1 0x20 ADD ADD MLOAD PUSH1 0x20 ADD MLOAD PUSH1 0x40 MLOAD DUP3 PUSH4 0xFFFFFFFF AND PUSH1 0xE0 SHL DUP2 MSTORE PUSH1 0x4 ADD PUSH2 0x38C7 SWAP2 SWAP1 PUSH1 0x1 PUSH1 0x1 PUSH1 0xA0 SHL SUB SWAP2 SWAP1 SWAP2 AND DUP2 MSTORE PUSH1 0x20 ADD SWAP1 JUMP JUMPDEST PUSH1 0x20 PUSH1 0x40 MLOAD DUP1 DUP4 SUB DUP2 PUSH1 0x0 DUP8 DUP1 EXTCODESIZE ISZERO DUP1 ISZERO PUSH2 0x38E1 JUMPI PUSH1 0x0 DUP1 REVERT JUMPDEST POP GAS CALL ISZERO DUP1 ISZERO PUSH2 0x38F5 JUMPI RETURNDATASIZE PUSH1 0x0 DUP1 RETURNDATACOPY RETURNDATASIZE PUSH1 0x0 REVERT JUMPDEST POP POP POP POP PUSH1 0x40 MLOAD RETURNDATASIZE PUSH1 0x1F NOT PUSH1 0x1F DUP3 ADD AND DUP3 ADD DUP1 PUSH1 0x40 MSTORE POP DUP2 ADD SWAP1 PUSH2 0x3919 SWAP2 SWAP1 PUSH2 0x47F1 JUMP JUMPDEST LT JUMPDEST ISZERO PUSH2 0x39AD JUMPI PUSH1 0x2 PUSH1 0x5 PUSH1 0x0 DUP8 DUP5 DUP2 MLOAD DUP2 LT PUSH2 0x3938 JUMPI PUSH2 0x3938 PUSH2 0x4601 JUMP JUMPDEST PUSH1 0x20 MUL PUSH1 0x20 ADD ADD MLOAD PUSH1 0x80 ADD MLOAD PUSH5 0xFFFFFFFFFF AND PUSH5 0xFFFFFFFFFF AND DUP2 MSTORE PUSH1 0x20 ADD SWAP1 DUP2 MSTORE PUSH1 0x20 ADD PUSH1 0x0 KECCAK256 DUP3 DUP2 SLOAD DUP2 LT PUSH2 0x3971 JUMPI PUSH2 0x3971 PUSH2 0x4601 JUMP JUMPDEST SWAP1 PUSH1 0x0 MSTORE PUSH1 0x20 PUSH1 0x0 KECCAK256 SWAP1 PUSH1 0x5 MUL ADD PUSH1 0x3 ADD PUSH1 0x19 PUSH2 0x100 EXP DUP2 SLOAD DUP2 PUSH1 0xFF MUL NOT AND SWAP1 DUP4 PUSH1 0x3 DUP2 GT ISZERO PUSH2 0x39A3 JUMPI PUSH2 0x39A3 PUSH2 0x41A7 JUMP JUMPDEST MUL OR SWAP1 SSTORE POP PUSH2 0x3A7B JUMP JUMPDEST DUP5 DUP2 DUP2 MLOAD DUP2 LT PUSH2 0x39BF JUMPI PUSH2 0x39BF PUSH2 0x4601 JUMP JUMPDEST PUSH1 0x20 MUL PUSH1 0x20 ADD ADD MLOAD DUP3 DUP5 DUP2 MLOAD DUP2 LT PUSH2 0x39D9 JUMPI PUSH2 0x39D9 PUSH2 0x4601 JUMP JUMPDEST PUSH1 0x20 MUL PUSH1 0x20 ADD ADD DUP2 SWAP1 MSTORE POP DUP3 DUP1 PUSH2 0x39EF SWAP1 PUSH2 0x462D JUMP JUMPDEST SWAP4 POP POP PUSH1 0x1 PUSH1 0x5 PUSH1 0x0 DUP8 DUP5 DUP2 MLOAD DUP2 LT PUSH2 0x3A0A JUMPI PUSH2 0x3A0A PUSH2 0x4601 JUMP JUMPDEST PUSH1 0x20 MUL PUSH1 0x20 ADD ADD MLOAD PUSH1 0x80 ADD MLOAD PUSH5 0xFFFFFFFFFF AND PUSH5 0xFFFFFFFFFF AND DUP2 MSTORE PUSH1 0x20 ADD SWAP1 DUP2 MSTORE PUSH1 0x20 ADD PUSH1 0x0 KECCAK256 DUP3 DUP2 SLOAD DUP2 LT PUSH2 0x3A43 JUMPI PUSH2 0x3A43 PUSH2 0x4601 JUMP JUMPDEST SWAP1 PUSH1 0x0 MSTORE PUSH1 0x20 PUSH1 0x0 KECCAK256 SWAP1 PUSH1 0x5 MUL ADD PUSH1 0x3 ADD PUSH1 0x19 PUSH2 0x100 EXP DUP2 SLOAD DUP2 PUSH1 0xFF MUL NOT AND SWAP1 DUP4 PUSH1 0x3 DUP2 GT ISZERO PUSH2 0x3A75 JUMPI PUSH2 0x3A75 PUSH2 0x41A7 JUMP JUMPDEST MUL OR SWAP1 SSTORE POP JUMPDEST DUP1 PUSH2 0x3A85 DUP2 PUSH2 0x462D JUMP JUMPDEST SWAP2 POP POP PUSH2 0x368E JUMP JUMPDEST POP DUP3 SELFBALANCE GT PUSH2 0x3AED JUMPI PUSH1 0x40 MLOAD PUSH3 0x461BCD PUSH1 0xE5 SHL DUP2 MSTORE PUSH1 0x20 PUSH1 0x4 DUP3 ADD MSTORE PUSH1 0x27 PUSH1 0x24 DUP3 ADD MSTORE PUSH32 0x4E6F7420656E6F7567682045544820746F20636F6D706C657465207472616E73 PUSH1 0x44 DUP3 ADD MSTORE PUSH7 0x616374696F6E73 PUSH1 0xC8 SHL PUSH1 0x64 DUP3 ADD MSTORE PUSH1 0x84 ADD PUSH2 0x408 JUMP JUMPDEST PUSH1 0x0 JUMPDEST DUP2 MLOAD DUP2 LT ISZERO PUSH2 0x130C JUMPI DUP2 DUP2 DUP2 MLOAD DUP2 LT PUSH2 0x3B0B JUMPI PUSH2 0x3B0B PUSH2 0x4601 JUMP JUMPDEST PUSH1 0x20 MUL PUSH1 0x20 ADD ADD MLOAD PUSH1 0xC0 ADD MLOAD PUSH1 0x7 PUSH1 0x0 DUP5 DUP5 DUP2 MLOAD DUP2 LT PUSH2 0x3B2D JUMPI PUSH2 0x3B2D PUSH2 0x4601 JUMP JUMPDEST PUSH1 0x20 MUL PUSH1 0x20 ADD ADD MLOAD PUSH1 0x20 ADD MLOAD PUSH1 0x1 PUSH1 0x1 PUSH1 0xA0 SHL SUB AND PUSH1 0x1 PUSH1 0x1 PUSH1 0xA0 SHL SUB AND DUP2 MSTORE PUSH1 0x20 ADD SWAP1 DUP2 MSTORE PUSH1 0x20 ADD PUSH1 0x0 KECCAK256 PUSH1 0x0 DUP5 DUP5 DUP2 MLOAD DUP2 LT PUSH2 0x3B6D JUMPI PUSH2 0x3B6D PUSH2 0x4601 JUMP JUMPDEST PUSH1 0x20 MUL PUSH1 0x20 ADD ADD MLOAD PUSH1 0x60 ADD MLOAD PUSH1 0x1 PUSH1 0x1 PUSH1 0xA0 SHL SUB AND PUSH1 0x1 PUSH1 0x1 PUSH1 0xA0 SHL SUB AND DUP2 MSTORE PUSH1 0x20 ADD SWAP1 DUP2 MSTORE PUSH1 0x20 ADD PUSH1 0x0 KECCAK256 PUSH1 0x0 DUP3 DUP3 SLOAD PUSH2 0x3BA8 SWAP2 SWAP1 PUSH2 0x4648 JUMP JUMPDEST SWAP1 SWAP2 SSTORE POP POP DUP2 MLOAD PUSH1 0x0 SWAP1 DUP4 SWAP1 DUP4 SWAP1 DUP2 LT PUSH2 0x3BC4 JUMPI PUSH2 0x3BC4 PUSH2 0x4601 JUMP JUMPDEST PUSH1 0x20 MUL PUSH1 0x20 ADD ADD MLOAD PUSH1 0x60 ADD MLOAD PUSH1 0x1 PUSH1 0x1 PUSH1 0xA0 SHL SUB AND EQ ISZERO PUSH2 0x3CBF JUMPI PUSH1 0x0 DUP3 DUP3 DUP2 MLOAD DUP2 LT PUSH2 0x3BF3 JUMPI PUSH2 0x3BF3 PUSH2 0x4601 JUMP JUMPDEST PUSH1 0x20 MUL PUSH1 0x20 ADD ADD MLOAD PUSH1 0x40 ADD MLOAD PUSH1 0x1 PUSH1 0x1 PUSH1 0xA0 SHL SUB AND PUSH2 0x8FC DUP5 DUP5 DUP2 MLOAD DUP2 LT PUSH2 0x3C1D JUMPI PUSH2 0x3C1D PUSH2 0x4601 JUMP JUMPDEST PUSH1 0x20 MUL PUSH1 0x20 ADD ADD MLOAD PUSH1 0xC0 ADD MLOAD SWAP1 DUP2 ISZERO MUL SWAP1 PUSH1 0x40 MLOAD PUSH1 0x0 PUSH1 0x40 MLOAD DUP1 DUP4 SUB DUP2 DUP6 DUP9 DUP9 CALL SWAP4 POP POP POP POP SWAP1 POP DUP1 PUSH2 0x3C85 JUMPI PUSH1 0x40 MLOAD PUSH3 0x461BCD PUSH1 0xE5 SHL DUP2 MSTORE PUSH1 0x20 PUSH1 0x4 DUP3 ADD MSTORE PUSH1 0x10 PUSH1 0x24 DUP3 ADD MSTORE PUSH16 0x2A3930B739B332B9103330B4B632B217 PUSH1 0x81 SHL PUSH1 0x44 DUP3 ADD MSTORE PUSH1 0x64 ADD PUSH2 0x408 JUMP JUMPDEST PUSH1 0x40 MLOAD PUSH1 0x1 DUP2 MSTORE PUSH32 0xA2EA5B0DB1D57B0E32DF654AA9A1A97BC8066881E37669FF488D2BEBE87C9F87 SWAP1 PUSH1 0x20 ADD PUSH1 0x40 MLOAD DUP1 SWAP2 SUB SWAP1 LOG1 POP PUSH2 0x3DD8 JUMP JUMPDEST DUP2 DUP2 DUP2 MLOAD DUP2 LT PUSH2 0x3CD1 JUMPI PUSH2 0x3CD1 PUSH2 0x4601 JUMP JUMPDEST PUSH1 0x20 MUL PUSH1 0x20 ADD ADD MLOAD PUSH1 0x60 ADD MLOAD PUSH1 0x1 PUSH1 0x1 PUSH1 0xA0 SHL SUB AND PUSH4 0x23B872DD DUP4 DUP4 DUP2 MLOAD DUP2 LT PUSH2 0x3CFD JUMPI PUSH2 0x3CFD PUSH2 0x4601 JUMP JUMPDEST PUSH1 0x20 MUL PUSH1 0x20 ADD ADD MLOAD PUSH1 0x20 ADD MLOAD DUP5 DUP5 DUP2 MLOAD DUP2 LT PUSH2 0x3D1B JUMPI PUSH2 0x3D1B PUSH2 0x4601 JUMP JUMPDEST PUSH1 0x20 MUL PUSH1 0x20 ADD ADD MLOAD PUSH1 0x40 ADD MLOAD DUP6 DUP6 DUP2 MLOAD DUP2 LT PUSH2 0x3D39 JUMPI PUSH2 0x3D39 PUSH2 0x4601 JUMP JUMPDEST PUSH1 0x20 SWAP1 DUP2 MUL SWAP2 SWAP1 SWAP2 ADD ADD MLOAD PUSH1 0xC0 ADD MLOAD PUSH1 0x40 MLOAD PUSH1 0x1 PUSH1 0x1 PUSH1 0xE0 SHL SUB NOT PUSH1 0xE0 DUP7 SWAP1 SHL AND DUP2 MSTORE PUSH1 0x1 PUSH1 0x1 PUSH1 0xA0 SHL SUB SWAP4 DUP5 AND PUSH1 0x4 DUP3 ADD MSTORE SWAP3 SWAP1 SWAP2 AND PUSH1 0x24 DUP4 ADD MSTORE PUSH1 0x44 DUP3 ADD MSTORE PUSH1 0x64 ADD PUSH1 0x20 PUSH1 0x40 MLOAD DUP1 DUP4 SUB DUP2 PUSH1 0x0 DUP8 DUP1 EXTCODESIZE ISZERO DUP1 ISZERO PUSH2 0x3D97 JUMPI PUSH1 0x0 DUP1 REVERT JUMPDEST POP GAS CALL ISZERO DUP1 ISZERO PUSH2 0x3DAB JUMPI RETURNDATASIZE PUSH1 0x0 DUP1 RETURNDATACOPY RETURNDATASIZE PUSH1 0x0 REVERT JUMPDEST POP POP POP POP PUSH1 0x40 MLOAD RETURNDATASIZE PUSH1 0x1F NOT PUSH1 0x1F DUP3 ADD AND DUP3 ADD DUP1 PUSH1 0x40 MSTORE POP DUP2 ADD SWAP1 PUSH2 0x3DCF SWAP2 SWAP1 PUSH2 0x492A JUMP JUMPDEST PUSH2 0x3DD8 JUMPI PUSH1 0x0 DUP1 REVERT JUMPDEST DUP1 PUSH2 0x3DE2 DUP2 PUSH2 0x462D JUMP JUMPDEST SWAP2 POP POP PUSH2 0x3AF0 JUMP JUMPDEST PUSH1 0x0 PUSH2 0x3000 DUP3 PUSH2 0xE10 PUSH2 0x494C JUMP JUMPDEST PUSH1 0x0 DUP1 JUMPDEST DUP3 MLOAD DUP2 LT ISZERO PUSH2 0x3E50 JUMPI DUP4 PUSH5 0xFFFFFFFFFF AND DUP4 DUP3 DUP2 MLOAD DUP2 LT PUSH2 0x3E1F JUMPI PUSH2 0x3E1F PUSH2 0x4601 JUMP JUMPDEST PUSH1 0x20 MUL PUSH1 0x20 ADD ADD MLOAD PUSH5 0xFFFFFFFFFF AND EQ ISZERO PUSH2 0x3E3E JUMPI PUSH1 0x1 SWAP2 POP POP PUSH2 0x3000 JUMP JUMPDEST DUP1 PUSH2 0x3E48 DUP2 PUSH2 0x462D JUMP JUMPDEST SWAP2 POP POP PUSH2 0x3DFC JUMP JUMPDEST POP PUSH1 0x0 SWAP4 SWAP3 POP POP POP JUMP JUMPDEST PUSH1 0x0 DUP1 JUMPDEST DUP3 MLOAD DUP2 LT ISZERO PUSH2 0x3E50 JUMPI DUP4 PUSH1 0x1 PUSH1 0x1 PUSH1 0xA0 SHL SUB AND DUP4 DUP3 DUP2 MLOAD DUP2 LT PUSH2 0x3E83 JUMPI PUSH2 0x3E83 PUSH2 0x4601 JUMP JUMPDEST PUSH1 0x20 MUL PUSH1 0x20 ADD ADD MLOAD PUSH1 0x1 PUSH1 0x1 PUSH1 0xA0 SHL SUB AND EQ ISZERO PUSH2 0x3EA4 JUMPI PUSH1 0x1 SWAP2 POP POP PUSH2 0x3000 JUMP JUMPDEST DUP1 PUSH2 0x3EAE DUP2 PUSH2 0x462D JUMP JUMPDEST SWAP2 POP POP PUSH2 0x3E5E JUMP JUMPDEST CALLER PUSH1 0x0 SWAP1 DUP2 MSTORE PUSH1 0x3 PUSH1 0x20 MSTORE PUSH1 0x40 SWAP1 KECCAK256 PUSH1 0x1 SWAP1 DUP2 ADD SLOAD EQ ISZERO PUSH2 0x3EEF JUMPI CALLER PUSH1 0x0 SWAP1 DUP2 MSTORE PUSH1 0x3 PUSH1 0x20 MSTORE PUSH1 0x40 DUP2 KECCAK256 PUSH2 0x2869 SWAP2 PUSH1 0x1 SWAP1 SWAP2 ADD SWAP1 PUSH2 0x40E3 JUMP JUMPDEST CALLER PUSH1 0x0 SWAP1 DUP2 MSTORE PUSH1 0x3 PUSH1 0x20 MSTORE PUSH1 0x40 DUP2 KECCAK256 PUSH1 0x1 ADD SWAP1 DUP1 JUMPDEST DUP3 SLOAD DUP2 LT ISZERO PUSH2 0x3FB0 JUMPI DUP4 PUSH5 0xFFFFFFFFFF AND DUP4 DUP3 DUP2 SLOAD DUP2 LT PUSH2 0x3F27 JUMPI PUSH2 0x3F27 PUSH2 0x4601 JUMP JUMPDEST SWAP1 PUSH1 0x0 MSTORE PUSH1 0x20 PUSH1 0x0 KECCAK256 SWAP1 PUSH1 0x6 SWAP2 DUP3 DUP3 DIV ADD SWAP2 SWAP1 MOD PUSH1 0x5 MUL SWAP1 SLOAD SWAP1 PUSH2 0x100 EXP SWAP1 DIV PUSH5 0xFFFFFFFFFF AND PUSH5 0xFFFFFFFFFF AND EQ ISZERO PUSH2 0x3F9E JUMPI DUP1 SWAP2 POP DUP3 DUP2 DUP2 SLOAD DUP2 LT PUSH2 0x3F70 JUMPI PUSH2 0x3F70 PUSH2 0x4601 JUMP JUMPDEST SWAP1 PUSH1 0x0 MSTORE PUSH1 0x20 PUSH1 0x0 KECCAK256 SWAP1 PUSH1 0x6 SWAP2 DUP3 DUP3 DIV ADD SWAP2 SWAP1 MOD PUSH1 0x5 MUL PUSH2 0x100 EXP DUP2 SLOAD SWAP1 PUSH5 0xFFFFFFFFFF MUL NOT AND SWAP1 SSTORE PUSH2 0x3FB0 JUMP JUMPDEST DUP1 PUSH2 0x3FA8 DUP2 PUSH2 0x462D JUMP JUMPDEST SWAP2 POP POP PUSH2 0x3F04 JUMP JUMPDEST POP DUP2 SLOAD DUP3 SWAP1 PUSH2 0x3FC1 SWAP1 PUSH1 0x1 SWAP1 PUSH2 0x4648 JUMP JUMPDEST DUP2 SLOAD DUP2 LT PUSH2 0x3FD1 JUMPI PUSH2 0x3FD1 PUSH2 0x4601 JUMP JUMPDEST SWAP1 PUSH1 0x0 MSTORE PUSH1 0x20 PUSH1 0x0 KECCAK256 SWAP1 PUSH1 0x6 SWAP2 DUP3 DUP3 DIV ADD SWAP2 SWAP1 MOD PUSH1 0x5 MUL SWAP1 SLOAD SWAP1 PUSH2 0x100 EXP SWAP1 DIV PUSH5 0xFFFFFFFFFF AND DUP3 DUP3 DUP2 SLOAD DUP2 LT PUSH2 0x400A JUMPI PUSH2 0x400A PUSH2 0x4601 JUMP JUMPDEST SWAP1 PUSH1 0x0 MSTORE PUSH1 0x20 PUSH1 0x0 KECCAK256 SWAP1 PUSH1 0x6 SWAP2 DUP3 DUP3 DIV ADD SWAP2 SWAP1 MOD PUSH1 0x5 MUL PUSH2 0x100 EXP DUP2 SLOAD DUP2 PUSH5 0xFFFFFFFFFF MUL NOT AND SWAP1 DUP4 PUSH5 0xFFFFFFFFFF AND MUL OR SWAP1 SSTORE POP DUP2 DUP1 SLOAD DUP1 PUSH2 0x404F JUMPI PUSH2 0x404F PUSH2 0x4677 JUMP JUMPDEST PUSH1 0x1 SWAP1 SUB DUP2 DUP2 SWAP1 PUSH1 0x0 MSTORE PUSH1 0x20 PUSH1 0x0 KECCAK256 SWAP1 PUSH1 0x6 SWAP2 DUP3 DUP3 DIV ADD SWAP2 SWAP1 MOD PUSH1 0x5 MUL PUSH2 0x100 EXP DUP2 SLOAD SWAP1 PUSH5 0xFFFFFFFFFF MUL NOT AND SWAP1 SSTORE SWAP1 SSTORE POP POP POP JUMP JUMPDEST PUSH1 0x40 DUP1 MLOAD PUSH1 0xE0 DUP2 ADD DUP3 MSTORE PUSH1 0x0 DUP1 DUP3 MSTORE PUSH1 0x20 DUP3 ADD DUP2 SWAP1 MSTORE SWAP2 DUP2 ADD DUP3 SWAP1 MSTORE PUSH1 0x60 DUP2 ADD DUP3 SWAP1 MSTORE PUSH1 0x80 DUP2 ADD DUP3 SWAP1 MSTORE SWAP1 PUSH1 0xA0 DUP3 ADD SWAP1 DUP2 MSTORE PUSH1 0x20 ADD PUSH1 0x0 DUP2 MSTORE POP SWAP1 JUMP JUMPDEST POP DUP1 SLOAD PUSH1 0x0 DUP3 SSTORE PUSH1 0x5 MUL SWAP1 PUSH1 0x0 MSTORE PUSH1 0x20 PUSH1 0x0 KECCAK256 SWAP1 DUP2 ADD SWAP1 PUSH2 0x2869 SWAP2 SWAP1 PUSH2 0x4108 JUMP JUMPDEST POP DUP1 SLOAD PUSH1 0x0 DUP3 SSTORE PUSH1 0x5 ADD PUSH1 0x6 SWAP1 DIV SWAP1 PUSH1 0x0 MSTORE PUSH1 0x20 PUSH1 0x0 KECCAK256 SWAP1 DUP2 ADD SWAP1 PUSH2 0x2869 SWAP2 SWAP1 PUSH2 0x4159 JUMP JUMPDEST JUMPDEST DUP1 DUP3 GT ISZERO PUSH2 0x4155 JUMPI PUSH1 0x0 DUP1 DUP3 SSTORE PUSH1 0x1 DUP3 ADD DUP1 SLOAD PUSH1 0x1 PUSH1 0x1 PUSH1 0xA0 SHL SUB NOT SWAP1 DUP2 AND SWAP1 SWAP2 SSTORE PUSH1 0x2 DUP4 ADD DUP1 SLOAD SWAP1 SWAP2 AND SWAP1 SSTORE PUSH1 0x3 DUP3 ADD DUP1 SLOAD PUSH1 0x1 PUSH1 0x1 PUSH1 0xD0 SHL SUB NOT AND SWAP1 SSTORE PUSH1 0x4 DUP3 ADD SSTORE PUSH1 0x5 ADD PUSH2 0x4109 JUMP JUMPDEST POP SWAP1 JUMP JUMPDEST JUMPDEST DUP1 DUP3 GT ISZERO PUSH2 0x4155 JUMPI PUSH1 0x0 DUP2 SSTORE PUSH1 0x1 ADD PUSH2 0x415A JUMP JUMPDEST PUSH1 0x1 PUSH1 0x1 PUSH1 0xA0 SHL SUB DUP2 AND DUP2 EQ PUSH2 0x2869 JUMPI PUSH1 0x0 DUP1 REVERT JUMPDEST PUSH1 0x0 PUSH1 0x20 DUP3 DUP5 SUB SLT ISZERO PUSH2 0x4195 JUMPI PUSH1 0x0 DUP1 REVERT JUMPDEST DUP2 CALLDATALOAD PUSH2 0x41A0 DUP2 PUSH2 0x416E JUMP JUMPDEST SWAP4 SWAP3 POP POP POP JUMP JUMPDEST PUSH4 0x4E487B71 PUSH1 0xE0 SHL PUSH1 0x0 MSTORE PUSH1 0x21 PUSH1 0x4 MSTORE PUSH1 0x24 PUSH1 0x0 REVERT JUMPDEST PUSH1 0x20 DUP1 DUP3 MSTORE DUP3 MLOAD DUP3 DUP3 ADD DUP2 SWAP1 MSTORE PUSH1 0x0 SWAP2 SWAP1 PUSH1 0x40 SWAP1 DUP2 DUP6 ADD SWAP1 DUP7 DUP5 ADD DUP6 DUP1 JUMPDEST DUP4 DUP2 LT ISZERO PUSH2 0x4267 JUMPI DUP3 MLOAD DUP1 MLOAD DUP7 MSTORE DUP8 DUP2 ADD MLOAD PUSH1 0x1 PUSH1 0x1 PUSH1 0xA0 SHL SUB SWAP1 DUP2 AND DUP10 DUP9 ADD MSTORE DUP8 DUP3 ADD MLOAD DUP2 AND DUP9 DUP9 ADD MSTORE PUSH1 0x60 DUP1 DUP4 ADD MLOAD SWAP1 SWAP2 AND SWAP1 DUP8 ADD MSTORE PUSH1 0x80 DUP1 DUP3 ADD MLOAD PUSH5 0xFFFFFFFFFF AND SWAP1 DUP8 ADD MSTORE PUSH1 0xA0 DUP1 DUP3 ADD MLOAD PUSH1 0x4 DUP1 DUP3 LT PUSH2 0x4246 JUMPI PUSH4 0x4E487B71 PUSH1 0xE0 SHL DUP7 MSTORE PUSH1 0x21 DUP2 MSTORE PUSH1 0x24 DUP7 REVERT JUMPDEST POP SWAP1 DUP8 ADD MSTORE PUSH1 0xC0 SWAP1 DUP2 ADD MLOAD SWAP1 DUP7 ADD MSTORE PUSH1 0xE0 SWAP1 SWAP5 ADD SWAP4 SWAP2 DUP7 ADD SWAP2 PUSH1 0x1 ADD PUSH2 0x41DB JUMP JUMPDEST POP SWAP3 SWAP9 SWAP8 POP POP POP POP POP POP POP POP JUMP JUMPDEST DUP1 CALLDATALOAD PUSH5 0xFFFFFFFFFF DUP2 AND DUP2 EQ PUSH2 0x2D74 JUMPI PUSH1 0x0 DUP1 REVERT JUMPDEST PUSH1 0x0 DUP1 PUSH1 0x0 PUSH1 0x60 DUP5 DUP7 SUB SLT ISZERO PUSH2 0x429F JUMPI PUSH1 0x0 DUP1 REVERT JUMPDEST DUP4 CALLDATALOAD SWAP3 POP PUSH2 0x42AF PUSH1 0x20 DUP6 ADD PUSH2 0x4275 JUMP JUMPDEST SWAP2 POP PUSH1 0x40 DUP5 ADD CALLDATALOAD PUSH2 0x42BF DUP2 PUSH2 0x416E JUMP JUMPDEST DUP1 SWAP2 POP POP SWAP3 POP SWAP3 POP SWAP3 JUMP JUMPDEST PUSH1 0x0 PUSH1 0x20 DUP3 DUP5 SUB SLT ISZERO PUSH2 0x42DC JUMPI PUSH1 0x0 DUP1 REVERT JUMPDEST POP CALLDATALOAD SWAP2 SWAP1 POP JUMP JUMPDEST PUSH1 0x0 DUP1 PUSH1 0x0 DUP1 PUSH1 0x80 DUP6 DUP8 SUB SLT ISZERO PUSH2 0x42F9 JUMPI PUSH1 0x0 DUP1 REVERT JUMPDEST DUP5 CALLDATALOAD PUSH2 0x4304 DUP2 PUSH2 0x416E JUMP JUMPDEST SWAP4 POP PUSH2 0x4312 PUSH1 0x20 DUP7 ADD PUSH2 0x4275 JUMP JUMPDEST SWAP3 POP PUSH1 0x40 DUP6 ADD CALLDATALOAD SWAP2 POP PUSH1 0x60 DUP6 ADD CALLDATALOAD PUSH2 0x4329 DUP2 PUSH2 0x416E JUMP JUMPDEST SWAP4 SWAP7 SWAP3 SWAP6 POP SWAP1 SWAP4 POP POP JUMP JUMPDEST PUSH1 0x0 DUP1 PUSH1 0x0 DUP1 PUSH1 0x0 DUP6 DUP8 SUB PUSH2 0x160 DUP2 SLT ISZERO PUSH2 0x434E JUMPI PUSH1 0x0 DUP1 REVERT JUMPDEST DUP7 CALLDATALOAD PUSH2 0x4359 DUP2 PUSH2 0x416E JUMP JUMPDEST SWAP6 POP PUSH2 0x4367 PUSH1 0x20 DUP9 ADD PUSH2 0x4275 JUMP JUMPDEST SWAP5 POP PUSH1 0x40 DUP8 ADD CALLDATALOAD SWAP4 POP PUSH1 0x60 DUP8 ADD CALLDATALOAD PUSH2 0x437E DUP2 PUSH2 0x416E JUMP JUMPDEST SWAP3 POP PUSH1 0xE0 PUSH1 0x7F NOT DUP3 ADD SLT ISZERO PUSH2 0x4392 JUMPI PUSH1 0x0 DUP1 REVERT JUMPDEST POP PUSH1 0x80 DUP7 ADD SWAP1 POP SWAP3 SWAP6 POP SWAP3 SWAP6 SWAP1 SWAP4 POP JUMP JUMPDEST PUSH1 0x0 PUSH1 0x20 DUP1 DUP4 ADD DUP2 DUP5 MSTORE DUP1 DUP6 MLOAD DUP1 DUP4 MSTORE PUSH1 0x40 SWAP3 POP DUP3 DUP7 ADD SWAP2 POP DUP3 DUP2 PUSH1 0x5 SHL DUP8 ADD ADD DUP5 DUP9 ADD PUSH1 0x0 DUP1 JUMPDEST DUP5 DUP2 LT ISZERO PUSH2 0x4450 JUMPI DUP10 DUP5 SUB PUSH1 0x3F NOT ADD DUP7 MSTORE DUP3 MLOAD DUP1 MLOAD PUSH1 0x1 PUSH1 0x1 PUSH1 0xA0 SHL SUB AND DUP6 MSTORE DUP9 DUP2 ADD MLOAD ISZERO ISZERO DUP10 DUP7 ADD MSTORE DUP8 ADD MLOAD PUSH1 0x60 DUP9 DUP7 ADD DUP2 SWAP1 MSTORE DUP2 MLOAD SWAP1 DUP7 ADD DUP2 SWAP1 MSTORE SWAP1 DUP10 ADD SWAP1 PUSH1 0x80 DUP7 ADD SWAP1 DUP5 SWAP1 JUMPDEST DUP1 DUP3 LT ISZERO PUSH2 0x443B JUMPI DUP4 MLOAD PUSH5 0xFFFFFFFFFF AND DUP4 MSTORE SWAP3 DUP12 ADD SWAP3 SWAP2 DUP12 ADD SWAP2 PUSH1 0x1 SWAP2 SWAP1 SWAP2 ADD SWAP1 PUSH2 0x4414 JUMP JUMPDEST POP POP SWAP7 DUP10 ADD SWAP7 SWAP5 POP POP SWAP2 DUP8 ADD SWAP2 PUSH1 0x1 ADD PUSH2 0x43CB JUMP JUMPDEST POP SWAP2 SWAP10 SWAP9 POP POP POP POP POP POP POP POP POP JUMP JUMPDEST PUSH4 0x4E487B71 PUSH1 0xE0 SHL PUSH1 0x0 MSTORE PUSH1 0x41 PUSH1 0x4 MSTORE PUSH1 0x24 PUSH1 0x0 REVERT JUMPDEST PUSH1 0x40 MLOAD PUSH1 0x80 DUP2 ADD PUSH8 0xFFFFFFFFFFFFFFFF DUP2 GT DUP3 DUP3 LT OR ISZERO PUSH2 0x4498 JUMPI PUSH2 0x4498 PUSH2 0x445F JUMP JUMPDEST PUSH1 0x40 MSTORE SWAP1 JUMP JUMPDEST PUSH1 0x40 MLOAD PUSH1 0x1F DUP3 ADD PUSH1 0x1F NOT AND DUP2 ADD PUSH8 0xFFFFFFFFFFFFFFFF DUP2 GT DUP3 DUP3 LT OR ISZERO PUSH2 0x44C7 JUMPI PUSH2 0x44C7 PUSH2 0x445F JUMP JUMPDEST PUSH1 0x40 MSTORE SWAP2 SWAP1 POP JUMP JUMPDEST PUSH1 0x0 PUSH1 0x20 DUP1 DUP4 DUP6 SUB SLT ISZERO PUSH2 0x44E2 JUMPI PUSH1 0x0 DUP1 REVERT JUMPDEST DUP3 CALLDATALOAD PUSH8 0xFFFFFFFFFFFFFFFF DUP1 DUP3 GT ISZERO PUSH2 0x44FA JUMPI PUSH1 0x0 DUP1 REVERT JUMPDEST DUP2 DUP6 ADD SWAP2 POP DUP6 PUSH1 0x1F DUP4 ADD SLT PUSH2 0x450E JUMPI PUSH1 0x0 DUP1 REVERT JUMPDEST DUP2 CALLDATALOAD DUP2 DUP2 GT ISZERO PUSH2 0x4520 JUMPI PUSH2 0x4520 PUSH2 0x445F JUMP JUMPDEST PUSH2 0x452E DUP5 DUP3 PUSH1 0x5 SHL ADD PUSH2 0x449E JUMP JUMPDEST DUP2 DUP2 MSTORE DUP5 DUP2 ADD SWAP3 POP PUSH1 0x7 SWAP2 SWAP1 SWAP2 SHL DUP4 ADD DUP5 ADD SWAP1 DUP8 DUP3 GT ISZERO PUSH2 0x454E JUMPI PUSH1 0x0 DUP1 REVERT JUMPDEST SWAP3 DUP5 ADD SWAP3 JUMPDEST DUP2 DUP5 LT ISZERO PUSH2 0x45BF JUMPI PUSH1 0x80 DUP5 DUP10 SUB SLT ISZERO PUSH2 0x456C JUMPI PUSH1 0x0 DUP1 DUP2 REVERT JUMPDEST PUSH2 0x4574 PUSH2 0x4475 JUMP JUMPDEST DUP5 CALLDATALOAD PUSH2 0x457F DUP2 PUSH2 0x416E JUMP JUMPDEST DUP2 MSTORE PUSH2 0x458C DUP6 DUP8 ADD PUSH2 0x4275 JUMP JUMPDEST DUP2 DUP8 ADD MSTORE PUSH1 0x40 DUP6 DUP2 ADD CALLDATALOAD SWAP1 DUP3 ADD MSTORE PUSH1 0x60 DUP1 DUP7 ADD CALLDATALOAD PUSH2 0x45A9 DUP2 PUSH2 0x416E JUMP JUMPDEST SWAP1 DUP3 ADD MSTORE DUP4 MSTORE PUSH1 0x80 SWAP4 SWAP1 SWAP4 ADD SWAP3 SWAP2 DUP5 ADD SWAP2 PUSH2 0x4553 JUMP JUMPDEST SWAP8 SWAP7 POP POP POP POP POP POP POP JUMP JUMPDEST PUSH1 0x20 DUP1 DUP3 MSTORE PUSH1 0x1A SWAP1 DUP3 ADD MSTORE PUSH32 0x4D75737420686176652061646D696E2070726976696C65676573000000000000 PUSH1 0x40 DUP3 ADD MSTORE PUSH1 0x60 ADD SWAP1 JUMP JUMPDEST PUSH4 0x4E487B71 PUSH1 0xE0 SHL PUSH1 0x0 MSTORE PUSH1 0x32 PUSH1 0x4 MSTORE PUSH1 0x24 PUSH1 0x0 REVERT JUMPDEST PUSH4 0x4E487B71 PUSH1 0xE0 SHL PUSH1 0x0 MSTORE PUSH1 0x11 PUSH1 0x4 MSTORE PUSH1 0x24 PUSH1 0x0 REVERT JUMPDEST PUSH1 0x0 PUSH1 0x0 NOT DUP3 EQ ISZERO PUSH2 0x4641 JUMPI PUSH2 0x4641 PUSH2 0x4617 JUMP JUMPDEST POP PUSH1 0x1 ADD SWAP1 JUMP JUMPDEST PUSH1 0x0 DUP3 DUP3 LT ISZERO PUSH2 0x465A JUMPI PUSH2 0x465A PUSH2 0x4617 JUMP JUMPDEST POP SUB SWAP1 JUMP JUMPDEST PUSH1 0x0 DUP3 NOT DUP3 GT ISZERO PUSH2 0x4672 JUMPI PUSH2 0x4672 PUSH2 0x4617 JUMP JUMPDEST POP ADD SWAP1 JUMP JUMPDEST PUSH4 0x4E487B71 PUSH1 0xE0 SHL PUSH1 0x0 MSTORE PUSH1 0x31 PUSH1 0x4 MSTORE PUSH1 0x24 PUSH1 0x0 REVERT JUMPDEST PUSH1 0x20 DUP1 DUP3 MSTORE PUSH1 0x1F SWAP1 DUP3 ADD MSTORE PUSH32 0x54696D652064617461206D75737420626520696E207468652066757475726500 PUSH1 0x40 DUP3 ADD MSTORE PUSH1 0x60 ADD SWAP1 JUMP JUMPDEST PUSH4 0x4E487B71 PUSH1 0xE0 SHL PUSH1 0x0 MSTORE PUSH1 0x12 PUSH1 0x4 MSTORE PUSH1 0x24 PUSH1 0x0 REVERT JUMPDEST PUSH1 0x0 PUSH5 0xFFFFFFFFFF DUP1 DUP5 AND DUP1 PUSH2 0x46F2 JUMPI PUSH2 0x46F2 PUSH2 0x46C4 JUMP JUMPDEST SWAP3 AND SWAP2 SWAP1 SWAP2 MOD SWAP3 SWAP2 POP POP JUMP JUMPDEST PUSH1 0x20 DUP1 DUP3 MSTORE PUSH1 0x18 SWAP1 DUP3 ADD MSTORE PUSH32 0x54696D65206D757374206265206F6E2074686520686F75720000000000000000 PUSH1 0x40 DUP3 ADD MSTORE PUSH1 0x60 ADD SWAP1 JUMP JUMPDEST PUSH1 0x0 DUP2 PUSH1 0x0 NOT DIV DUP4 GT DUP3 ISZERO ISZERO AND ISZERO PUSH2 0x474F JUMPI PUSH2 0x474F PUSH2 0x4617 JUMP JUMPDEST POP MUL SWAP1 JUMP JUMPDEST PUSH1 0x0 DUP3 PUSH2 0x4763 JUMPI PUSH2 0x4763 PUSH2 0x46C4 JUMP JUMPDEST POP DIV SWAP1 JUMP JUMPDEST PUSH1 0x20 DUP1 DUP3 MSTORE PUSH1 0x24 SWAP1 DUP3 ADD MSTORE PUSH32 0x4E6F7420656E6F756768204554482073656E742077697468207472616E736163 PUSH1 0x40 DUP3 ADD MSTORE PUSH4 0x3A34B7B7 PUSH1 0xE1 SHL PUSH1 0x60 DUP3 ADD MSTORE PUSH1 0x80 ADD SWAP1 JUMP JUMPDEST PUSH1 0x20 DUP1 DUP3 MSTORE PUSH1 0x25 SWAP1 DUP3 ADD MSTORE PUSH32 0x20546F6B656E206E6F7420617070726F76656420666F72207468697320636F6E PUSH1 0x40 DUP3 ADD MSTORE PUSH5 0x1D1C9858DD PUSH1 0xDA SHL PUSH1 0x60 DUP3 ADD MSTORE PUSH1 0x80 ADD SWAP1 JUMP JUMPDEST PUSH1 0x0 PUSH1 0x20 DUP3 DUP5 SUB SLT ISZERO PUSH2 0x4803 JUMPI PUSH1 0x0 DUP1 REVERT JUMPDEST POP MLOAD SWAP2 SWAP1 POP JUMP JUMPDEST PUSH1 0x20 DUP1 DUP3 MSTORE PUSH1 0x35 SWAP1 DUP3 ADD MSTORE PUSH32 0x526571756972657320746F6B656E20616C6C6F77616E636520746F2062652069 PUSH1 0x40 DUP3 ADD MSTORE PUSH21 0x1B98DC99585CD95908199BDC8818DBDB9D1C9858DD PUSH1 0x5A SHL PUSH1 0x60 DUP3 ADD MSTORE PUSH1 0x80 ADD SWAP1 JUMP JUMPDEST PUSH1 0x0 PUSH1 0x20 DUP3 DUP5 SUB SLT ISZERO PUSH2 0x4871 JUMPI PUSH1 0x0 DUP1 REVERT JUMPDEST DUP2 CALLDATALOAD PUSH1 0xFF DUP2 AND DUP2 EQ PUSH2 0x41A0 JUMPI PUSH1 0x0 DUP1 REVERT JUMPDEST PUSH1 0x20 DUP1 DUP3 MSTORE PUSH1 0x27 SWAP1 DUP3 ADD MSTORE PUSH32 0x54696D6520616C726561647920636865636B656420666F722074686973207469 PUSH1 0x40 DUP3 ADD MSTORE PUSH7 0x1B59481CDB1BDD PUSH1 0xCA SHL PUSH1 0x60 DUP3 ADD MSTORE PUSH1 0x80 ADD SWAP1 JUMP JUMPDEST PUSH1 0x0 PUSH5 0xFFFFFFFFFF DUP1 DUP4 AND DUP2 DUP2 EQ ISZERO PUSH2 0x48E4 JUMPI PUSH2 0x48E4 PUSH2 0x4617 JUMP JUMPDEST PUSH1 0x1 ADD SWAP4 SWAP3 POP POP POP JUMP JUMPDEST PUSH1 0x0 PUSH2 0xFFFF DUP1 DUP4 AND DUP2 DUP2 EQ ISZERO PUSH2 0x48E4 JUMPI PUSH2 0x48E4 PUSH2 0x4617 JUMP JUMPDEST PUSH1 0x0 PUSH5 0xFFFFFFFFFF DUP1 DUP5 AND DUP1 PUSH2 0x491E JUMPI PUSH2 0x491E PUSH2 0x46C4 JUMP JUMPDEST SWAP3 AND SWAP2 SWAP1 SWAP2 DIV SWAP3 SWAP2 POP POP JUMP JUMPDEST PUSH1 0x0 PUSH1 0x20 DUP3 DUP5 SUB SLT ISZERO PUSH2 0x493C JUMPI PUSH1 0x0 DUP1 REVERT JUMPDEST DUP2 MLOAD DUP1 ISZERO ISZERO DUP2 EQ PUSH2 0x41A0 JUMPI PUSH1 0x0 DUP1 REVERT JUMPDEST PUSH1 0x0 PUSH5 0xFFFFFFFFFF DUP1 DUP4 AND DUP2 DUP6 AND DUP2 DUP4 DIV DUP2 GT DUP3 ISZERO ISZERO AND ISZERO PUSH2 0x4970 JUMPI PUSH2 0x4970 PUSH2 0x4617 JUMP JUMPDEST MUL SWAP5 SWAP4 POP POP POP POP JUMP INVALID LOG2 PUSH5 0x6970667358 0x22 SLT KECCAK256 0xB3 SGT DUP11 0x5D PUSH27 0xFD0C1862067510633306E522F50F4A6B25ED40D5FE511B128879B0 PUSH5 0x736F6C6343 STOP ADDMOD MULMOD STOP CALLER "},"methodIdentifiers":{"addBatchTransactions((address,uint40,uint256,address)[])":"d10fa144","addERC20Contract(address)":"ab7e0909","addPermitTransaction(address,uint40,uint256,address,(address,address,uint256,uint256,uint8,bytes32,bytes32))":"a1c06d34","addTransaction(address,uint40,uint256,address)":"80423444","allAccounts()":"cf783d8a","allTransactions()":"1ccb3371","cancelTransaction(bytes32,uint40,address)":"2a2b3690","changeAdmin(address)":"8f283970","changeFee(uint256)":"6a1db1bf","changeFixedFee(uint256)":"8e83ac4a","checkTime()":"e0c6190d","getAccountTransactions()":"c682cce4","getFee()":"ced72f87","getTime()":"557ed1ba","getTotalClaims(address)":"13b51234","getTransactionsByAccount(address)":"dc9961eb","removeERC20Contract(address)":"053149fa","sendTime()":"aa58a5b0","toggleContractActive()":"1385d24c"}}}}}