{"contracts/Clocktower.sol":{"Clocktower":{"abi":[{"inputs":[],"stateMutability":"payable","type":"constructor"},{"anonymous":false,"inputs":[{"indexed":false,"internalType":"string","name":"output4","type":"string"}],"name":"AccountCreated","type":"event"},{"anonymous":false,"inputs":[{"indexed":false,"internalType":"string","name":"output2","type":"string"}],"name":"CheckStatus","type":"event"},{"anonymous":false,"inputs":[{"indexed":false,"internalType":"address","name":"user","type":"address"},{"indexed":false,"internalType":"uint256","name":"amount","type":"uint256"}],"name":"ReceiveETH","type":"event"},{"anonymous":false,"inputs":[{"indexed":false,"internalType":"string","name":"output","type":"string"}],"name":"Status","type":"event"},{"anonymous":false,"inputs":[{"indexed":false,"internalType":"address","name":"sender","type":"address"},{"indexed":false,"internalType":"address","name":"receiver","type":"address"},{"indexed":false,"internalType":"uint40","name":"timeTrigger","type":"uint40"},{"indexed":false,"internalType":"uint256","name":"payload","type":"uint256"}],"name":"TransactionAdd","type":"event"},{"anonymous":false,"inputs":[{"indexed":false,"internalType":"bool","name":"sent","type":"bool"}],"name":"TransactionSent","type":"event"},{"anonymous":false,"inputs":[{"indexed":false,"internalType":"string","name":"output3","type":"string"}],"name":"UnknownFunction","type":"event"},{"stateMutability":"payable","type":"fallback"},{"inputs":[{"components":[{"internalType":"address payable","name":"receiver","type":"address"},{"internalType":"uint40","name":"unixTime","type":"uint40"},{"internalType":"uint256","name":"payload","type":"uint256"},{"internalType":"address","name":"token","type":"address"}],"internalType":"struct Clocktower.Batch[]","name":"batch","type":"tuple[]"}],"name":"addBatchTransactions","outputs":[],"stateMutability":"payable","type":"function"},{"inputs":[{"internalType":"address","name":"erc20Contract","type":"address"}],"name":"addERC20Contract","outputs":[],"stateMutability":"nonpayable","type":"function"},{"inputs":[{"internalType":"address payable","name":"receiver","type":"address"},{"internalType":"uint40","name":"unixTime","type":"uint40"},{"internalType":"uint256","name":"payload","type":"uint256"},{"internalType":"address","name":"token","type":"address"},{"components":[{"internalType":"address","name":"owner","type":"address"},{"internalType":"address","name":"spender","type":"address"},{"internalType":"uint256","name":"value","type":"uint256"},{"internalType":"uint256","name":"deadline","type":"uint256"},{"internalType":"uint8","name":"v","type":"uint8"},{"internalType":"bytes32","name":"r","type":"bytes32"},{"internalType":"bytes32","name":"s","type":"bytes32"}],"internalType":"struct Clocktower.Permit","name":"permit","type":"tuple"}],"name":"addTransaction","outputs":[],"stateMutability":"payable","type":"function"},{"inputs":[],"name":"allAccounts","outputs":[{"components":[{"internalType":"address","name":"accountAddress","type":"address"},{"internalType":"bool","name":"exists","type":"bool"},{"internalType":"uint40[]","name":"timeTriggers","type":"uint40[]"},{"internalType":"address[]","name":"tokens","type":"address[]"}],"internalType":"struct Clocktower.Account[]","name":"","type":"tuple[]"}],"stateMutability":"view","type":"function"},{"inputs":[],"name":"allTransactions","outputs":[{"components":[{"internalType":"bytes32","name":"id","type":"bytes32"},{"internalType":"address","name":"sender","type":"address"},{"internalType":"address payable","name":"receiver","type":"address"},{"internalType":"address","name":"token","type":"address"},{"internalType":"uint40","name":"timeTrigger","type":"uint40"},{"internalType":"bool","name":"sent","type":"bool"},{"internalType":"bool","name":"cancelled","type":"bool"},{"internalType":"uint256","name":"payload","type":"uint256"}],"internalType":"struct Clocktower.Transaction[]","name":"","type":"tuple[]"}],"stateMutability":"view","type":"function"},{"inputs":[{"internalType":"bytes32","name":"id","type":"bytes32"},{"internalType":"uint40","name":"timeTrigger","type":"uint40"}],"name":"cancelTransaction","outputs":[],"stateMutability":"payable","type":"function"},{"inputs":[{"internalType":"address","name":"newAddress","type":"address"}],"name":"changeAdmin","outputs":[],"stateMutability":"nonpayable","type":"function"},{"inputs":[{"internalType":"uint256","name":"_fee","type":"uint256"}],"name":"changeFee","outputs":[],"stateMutability":"nonpayable","type":"function"},{"inputs":[],"name":"checkTime","outputs":[{"internalType":"bool","name":"","type":"bool"}],"stateMutability":"view","type":"function"},{"inputs":[],"name":"getAccountTransactions","outputs":[{"components":[{"internalType":"bytes32","name":"id","type":"bytes32"},{"internalType":"address","name":"sender","type":"address"},{"internalType":"address payable","name":"receiver","type":"address"},{"internalType":"address","name":"token","type":"address"},{"internalType":"uint40","name":"timeTrigger","type":"uint40"},{"internalType":"bool","name":"sent","type":"bool"},{"internalType":"bool","name":"cancelled","type":"bool"},{"internalType":"uint256","name":"payload","type":"uint256"}],"internalType":"struct Clocktower.Transaction[]","name":"","type":"tuple[]"}],"stateMutability":"view","type":"function"},{"inputs":[],"name":"getFee","outputs":[{"internalType":"uint256","name":"","type":"uint256"}],"stateMutability":"view","type":"function"},{"inputs":[],"name":"getTime","outputs":[{"internalType":"uint256","name":"","type":"uint256"}],"stateMutability":"view","type":"function"},{"inputs":[{"internalType":"address","name":"account","type":"address"}],"name":"getTransactionsByAccount","outputs":[{"components":[{"internalType":"bytes32","name":"id","type":"bytes32"},{"internalType":"address","name":"sender","type":"address"},{"internalType":"address payable","name":"receiver","type":"address"},{"internalType":"address","name":"token","type":"address"},{"internalType":"uint40","name":"timeTrigger","type":"uint40"},{"internalType":"bool","name":"sent","type":"bool"},{"internalType":"bool","name":"cancelled","type":"bool"},{"internalType":"uint256","name":"payload","type":"uint256"}],"internalType":"struct Clocktower.Transaction[]","name":"","type":"tuple[]"}],"stateMutability":"view","type":"function"},{"inputs":[{"internalType":"address","name":"erc20Contract","type":"address"}],"name":"removeERC20Contract","outputs":[],"stateMutability":"nonpayable","type":"function"},{"inputs":[],"name":"sendTime","outputs":[],"stateMutability":"nonpayable","type":"function"},{"inputs":[],"name":"toggleContractActive","outputs":[],"stateMutability":"nonpayable","type":"function"},{"stateMutability":"payable","type":"receive"}],"evm":{"bytecode":{"linkReferences":{},"object":"6080604052600580546001600160a01b03191673f39fd6e51aad88f6f4ce6ab8827279cfffb922661790556007805460ff1916905560646008556001620000464262000074565b6200005291906200009b565b6009805464ffffffffff191664ffffffffff9290921691909117905562000103565b6000610e10620000896363236820846200009b565b620000959190620000d0565b92915050565b600064ffffffffff83811690831681811015620000c857634e487b7160e01b600052601160045260246000fd5b039392505050565b600064ffffffffff80841680620000f757634e487b7160e01b600052601260045260246000fd5b92169190910492915050565b61429580620001136000396000f3fe6080604052600436106100f75760003560e01c8063c682cce41161008a578063d10fa14411610059578063d10fa144146102dc578063dc9961eb146102ef578063e0c6190d1461030f578063e9e1dbef1461033457610137565b8063c682cce41461027d578063ced72f8714610292578063cf0b5e45146102a7578063cf783d8a146102ba57610137565b80636a1db1bf116100c65780636a1db1bf146102085780638f28397014610228578063aa58a5b014610248578063ab7e09091461025d57610137565b8063053149fa146101895780631385d24c146101ab5780631ccb3371146101c0578063557ed1ba146101eb57610137565b3661013757604080513381523460208201527f830d2d700a97af574b186c80d40429385d24241565b08a7c559ba283a964d9b191015b60405180910390a1005b7f19525a32afaad9a5491805c356597487a306fc2f4e8541d8d55e1fe951091e6060405161012d9060208082526010908201526f2ab735b737bbb710333ab731ba34b7b760811b604082015260600190565b34801561019557600080fd5b506101a96101a4366004613ae4565b610347565b005b3480156101b757600080fd5b506101a9610571565b3480156101cc57600080fd5b506101d56105af565b6040516101e29190613b08565b60405180910390f35b3480156101f757600080fd5b50425b6040519081526020016101e2565b34801561021457600080fd5b506101a9610223366004613bb0565b6106f9565b34801561023457600080fd5b506101a9610243366004613ae4565b610728565b34801561025457600080fd5b506101a961079d565b34801561026957600080fd5b506101a9610278366004613ae4565b6109a1565b34801561028957600080fd5b506101d5610a86565b34801561029e57600080fd5b506008546101fa565b6101a96102b5366004613bde565b610f36565b3480156102c657600080fd5b506102cf611455565b6040516101e29190613c91565b6101a96102ea366004613dd9565b61167c565b3480156102fb57600080fd5b506101d561030a366004613ae4565b6122ad565b34801561031b57600080fd5b50610324612786565b60405190151581526020016101e2565b6101a9610342366004613ed4565b61291d565b6005546001600160a01b0316331461037a5760405162461bcd60e51b815260040161037190613f00565b60405180910390fd5b6001600160a01b03811661038d57600080fd5b61039681612db3565b6103e25760405162461bcd60e51b815260206004820152601960248201527f455243323020746f6b656e206e6f7420616464656420796574000000000000006044820152606401610371565b6000600680548060200260200160405190810160405280929190818152602001828054801561043a57602002820191906000526020600020905b81546001600160a01b0316815260019091019060200180831161041c575b505050505090506000805b825181101561049b57836001600160a01b031683828151811061046a5761046a613f37565b60200260200101516001600160a01b031614156104895780915061049b565b8061049381613f63565b915050610445565b50805b6006546104ad90600190613f7e565b8110156105385760066104c1826001613f95565b815481106104d1576104d1613f37565b600091825260209091200154600680546001600160a01b0390921691839081106104fd576104fd613f37565b600091825260209091200180546001600160a01b0319166001600160a01b03929092169190911790558061053081613f63565b91505061049e565b50600680548061054a5761054a613fad565b600082815260209020810160001990810180546001600160a01b0319169055019055505050565b6005546001600160a01b0316331461059b5760405162461bcd60e51b815260040161037190613f00565b6007805460ff19811660ff90911615179055565b6005546060906001600160a01b031633146105dc5760405162461bcd60e51b815260040161037190613f00565b60035460009067ffffffffffffffff8111156105fa576105fa613d69565b60405190808252806020026020018201604052801561063357816020015b61062061386b565b8152602001906001900390816106185790505b5090506000805b6001548110156106f15760006106766001838154811061065c5761065c613f37565b6000918252602090912001546001600160a01b03166122ad565b905060005b81518110156106dc5781818151811061069657610696613f37565b60200260200101518585815181106106b0576106b0613f37565b602002602001018190525083806106c690613f63565b94505080806106d490613f63565b91505061067b565b505080806106e990613f63565b91505061063a565b509091505090565b6005546001600160a01b031633146107235760405162461bcd60e51b815260040161037190613f00565b600855565b6005546001600160a01b031633146107525760405162461bcd60e51b815260040161037190613f00565b336001600160a01b03821614801561077257506001600160a01b03811615155b61077b57600080fd5b600580546001600160a01b0319166001600160a01b0392909216919091179055565b6005546001600160a01b031633146107c75760405162461bcd60e51b815260040161037190613f00565b60006107d242612e74565b60095490915064ffffffffff908116908216116108015760405162461bcd60e51b815260040161037190613fc3565b60095464ffffffffff165b8164ffffffffff168164ffffffffff16116109825764ffffffffff8116600090815260026020908152604080832080548251818502810185019093528083529192909190849084015b828210156108fb576000848152602090819020604080516101008101825260058602909201805483526001808201546001600160a01b039081168587015260028301548116938501939093526003820154928316606085015264ffffffffff600160a01b840416608085015260ff600160c81b84048116151560a0860152600160d01b909304909216151560c08401526004015460e08301529083529092019101610855565b50505050905060008151111561096f5760005b815181101561096d5781818151811061092957610929613f37565b602002602001015160c0015161095b5761095b82828151811061094e5761094e613f37565b6020026020010151612e97565b8061096581613f63565b91505061090e565b505b508061097a8161400a565b91505061080c565b506009805464ffffffffff191664ffffffffff92909216919091179055565b6005546001600160a01b031633146109cb5760405162461bcd60e51b815260040161037190613f00565b6001600160a01b0381166109de57600080fd5b6109e781612db3565b15610a345760405162461bcd60e51b815260206004820152601960248201527f455243323020746f6b656e20616c7265616479206164646564000000000000006044820152606401610371565b600680546001810182556000919091527ff652222313e28459528d920b65115c16c04f3efc82aaedc97be59f3f377c0d3f0180546001600160a01b0319166001600160a01b0392909216919091179055565b33600090815260208181526040808320600101805482518185028101850190935280835260609493830182828015610b0b57602002820191906000526020600020906000905b82829054906101000a900464ffffffffff1664ffffffffff1681526020019060050190602082600401049283019260010382029150808411610acc5790505b505050505090506000805b8251811015610c4a57600060026000858481518110610b3757610b37613f37565b602002602001015164ffffffffff1664ffffffffff168152602001908152602001600020805480602002602001604051908101604052809291908181526020016000905b82821015610c21576000848152602090819020604080516101008101825260058602909201805483526001808201546001600160a01b039081168587015260028301548116938501939093526003820154928316606085015264ffffffffff600160a01b840416608085015260ff600160c81b84048116151560a0860152600160d01b909304909216151560c08401526004015460e08301529083529092019101610b7b565b505050509050805183610c349190613f95565b9250508080610c4290613f63565b915050610b16565b5060008167ffffffffffffffff811115610c6657610c66613d69565b604051908082528060200260200182016040528015610c9f57816020015b610c8c61386b565b815260200190600190039081610c845790505b50905060008267ffffffffffffffff811115610cbd57610cbd613d69565b604051908082528060200260200182016040528015610cf657816020015b610ce361386b565b815260200190600190039081610cdb5790505b5090506000805b8551811015610eba5760026000878381518110610d1c57610d1c613f37565b602002602001015164ffffffffff1664ffffffffff168152602001908152602001600020805480602002602001604051908101604052809291908181526020016000905b82821015610e06576000848152602090819020604080516101008101825260058602909201805483526001808201546001600160a01b039081168587015260028301548116938501939093526003820154928316606085015264ffffffffff600160a01b840416608085015260ff600160c81b84048116151560a0860152600160d01b909304909216151560c08401526004015460e08301529083529092019101610d60565b50505050935060005b8451811015610ea757336001600160a01b0316858281518110610e3457610e34613f37565b6020026020010151602001516001600160a01b03161415610e9557848181518110610e6157610e61613f37565b6020026020010151848481518110610e7b57610e7b613f37565b60200260200101819052508280610e9190613f63565b9350505b80610e9f81613f63565b915050610e0f565b5080610eb281613f63565b915050610cfd565b5060005b8251811015610f2b57610eed838281518110610edc57610edc613f37565b6020026020010151608001516133fd565b838281518110610eff57610eff613f37565b602090810291909101015164ffffffffff90911660809091015280610f2381613f63565b915050610ebe565b509095945050505050565b60075460ff1661144e57428464ffffffffff1611610f965760405162461bcd60e51b815260206004820152601f60248201527f54696d652064617461206d75737420626520696e2074686520667574757265006044820152606401610371565b610fa2610e1085614045565b64ffffffffff1615610ff15760405162461bcd60e51b81526020600482015260186024820152772a34b6b29036bab9ba1031329037b7103a3432903437bab960411b6044820152606401610371565b6001600160a01b03821661103d57346064600854856110109190614069565b61101a9190614088565b11156110385760405162461bcd60e51b81526004016103719061409c565b611062565b61104682612db3565b6110625760405162461bcd60e51b8152600401610371906140e0565b600061106d85612e74565b64ffffffffff81166000908152600260205260408120919250611093338987868a613419565b825460018082018555600085815260209081902084516005909402019283558381015191830180546001600160a01b03199081166001600160a01b0394851617909155604080860151600286018054909316908516179091556060808601516003860180546080808a015160a08b015160c08c0151958a166001600160c81b031990941693909317600160a01b64ffffffffff928316021761ffff60c81b1916600160c81b9315159390930260ff60d01b191692909217600160d01b941515949094029390931790915560e08801516004909701969096558251338152948f1693850193909352938816908301529181018990529192507f6e643cb89831cd75ded50b4ecee0e313701b6002fc48e8b80a3c05447ab066e8910160405180910390a17f2844c95bf1b4598da931d527f903501abc60fe0199c65da52d5ce818c6c5e9616040516111fd90602080825260069082015265141d5cda195960d21b604082015260600190565b60405180910390a1805160038054600181019091557fc2575a0e9e593c00f959f8c92f12db2869c3395a3b0502d05e2516446f71f85b015564ffffffffff831660009081526002602052604090208254611259919084906138af565b5061126483866134c9565b3360009081526004602090815260408083206001600160a01b038916845290915281208054889290611297908490613f95565b90915550506001600160a01b0385161561144a576001600160a01b03851663d505accf6112c76020870187613ae4565b6112d76040880160208901613ae4565b604088013560608901356112f160a08b0160808c01614125565b6040516001600160e01b031960e088901b1681526001600160a01b0395861660048201529490931660248501526044840191909152606483015260ff16608482015260a087013560a482015260c087013560c482015260e401600060405180830381600087803b15801561136457600080fd5b505af1158015611378573d6000803e3d6000fd5b50506040516323b872dd60e01b81526001600160a01b03881692506323b872dd91506113ac90339030908b90600401614148565b602060405180830381600087803b1580156113c657600080fd5b505af11580156113da573d6000803e3d6000fd5b505050506040513d601f19601f820116820180604052508101906113fe919061416c565b61144a5760405162461bcd60e51b815260206004820152601a60248201527f50726f626c656d207472616e7366657272696e6720746f6b656e0000000000006044820152606401610371565b5050505b5050505050565b6005546060906001600160a01b031633146114825760405162461bcd60e51b815260040161037190613f00565b60015460009067ffffffffffffffff8111156114a0576114a0613d69565b6040519080825280602002602001820160405280156114f457816020015b60408051608081018252600080825260208201526060918101829052818101919091528152602001906001900390816114be5790505b50905060005b600154811015611676576000806001838154811061151a5761151a613f37565b6000918252602080832091909101546001600160a01b039081168452838201949094526040928301909120825160808101845281549485168152600160a01b90940460ff16151584830152600181018054845181850281018501865281815292948601938301828280156115db57602002820191906000526020600020906000905b82829054906101000a900464ffffffffff1664ffffffffff168152602001906005019060208260040104928301926001038202915080841161159c5790505b505050505081526020016002820180548060200260200160405190810160405280929190818152602001828054801561163d57602002820191906000526020600020905b81546001600160a01b0316815260019091019060200180831161161f575b50505050508152505082828151811061165857611658613f37565b6020026020010181905250808061166e90613f63565b9150506114fa565b50905090565b60075460ff166122aa5760018151118015611698575060648151105b61170a5760405162461bcd60e51b815260206004820152603b60248201527f4261746368206d7573742068617665206d6f7265207468616e206f6e6520747260448201527f616e73616374696f6e20616e64206c657373207468616e2031303000000000006064820152608401610371565b61172e60405180606001604052806000815260200160008152602001600081525090565b336000908152602081815260408083206001810180548351818602810186019094528084529194939091908301828280156117b657602002820191906000526020600020906000905b82829054906101000a900464ffffffffff1664ffffffffff16815260200190600501906020826004010492830192600103820291508084116117775790505b50505050509050600060068054905067ffffffffffffffff8111156117dd576117dd613d69565b604051908082528060200260200182016040528015611806578160200160208202803683370190505b50600184015490915060009061181d906064613f95565b67ffffffffffffffff81111561183557611835613d69565b60405190808252806020026020018201604052801561185e578160200160208202803683370190505b50905060005b8651811015611b36574287828151811061188057611880613f37565b60200260200101516020015164ffffffffff16116118e05760405162461bcd60e51b815260206004820152601f60248201527f54696d652064617461206d75737420626520696e2074686520667574757265006044820152606401610371565b610e108782815181106118f5576118f5613f37565b60200260200101516020015161190b9190614045565b64ffffffffff161561195a5760405162461bcd60e51b81526020600482015260186024820152772a34b6b29036bab9ba1031329037b7103a3432903437bab960411b6044820152606401610371565b600061198288838151811061197157611971613f37565b602002602001015160200151612e74565b905061198e81846137ad565b6119dc5780838860400151815181106119a9576119a9613f37565b602002602001019064ffffffffff16908164ffffffffff16815250506001876040018181516119d89190613f95565b9052505b60006001600160a01b03168883815181106119f9576119f9613f37565b6020026020010151606001516001600160a01b03161415611a4b57878281518110611a2657611a26613f37565b60200260200101516040015187600001818151611a439190613f95565b905250611b23565b611a71888381518110611a6057611a60613f37565b602002602001015160600151612db3565b611a8d5760405162461bcd60e51b8152600401610371906140e0565b611ab4888381518110611aa257611aa2613f37565b6020026020010151606001518561380f565b611b2357878281518110611aca57611aca613f37565b60200260200101516060015184886020015181518110611aec57611aec613f37565b60200260200101906001600160a01b031690816001600160a01b031681525050600187602001818151611b1f9190613f95565b9052505b5080611b2e81613f63565b915050611864565b3460646008548860000151611b4b9190614069565b611b559190614088565b1115611b735760405162461bcd60e51b81526004016103719061409c565b5060005b8151811015611ebb57818181518110611b9257611b92613f37565b602002602001015164ffffffffff1660001415611bae57611ebb565b600060026000848481518110611bc657611bc6613f37565b602002602001015164ffffffffff1664ffffffffff168152602001908152602001600020905060005b88518161ffff161015611dd2576000611c178a8361ffff168151811061197157611971613f37565b9050848481518110611c2b57611c2b613f37565b602002602001015164ffffffffff168164ffffffffff161415611dbf576000611cba338c8561ffff1681518110611c6457611c64613f37565b6020026020010151600001518d8661ffff1681518110611c8657611c86613f37565b602002602001015160600151858f8861ffff1681518110611ca957611ca9613f37565b602002602001015160400151613419565b8454600181810187556000878152602080822085516005909502018481559085015181840180546001600160a01b039283166001600160a01b03199182161790915560408701516002840180549184169190921617905560608601516003808401805460808a015160a08b015160c08c01511515600160d01b0260ff60d01b19911515600160c81b029190911661ffff60c81b1964ffffffffff909316600160a01b026001600160c81b031990941696909716959095179190911716939093179190911790915560e09095015160049091015583549182018455929092527fc2575a0e9e593c00f959f8c92f12db2869c3395a3b0502d05e2516446f71f85b90910155505b5080611dca8161418e565b915050611bef565b508060026000858581518110611dea57611dea613f37565b602002602001015164ffffffffff1664ffffffffff168152602001908152602001600020908054611e1c9291906138af565b50611e40838381518110611e3257611e32613f37565b6020026020010151866137ad565b611ea857828281518110611e5657611e56613f37565b6020026020010151866001016001816001815401808255809150500390600052602060002090600691828204019190066005026101000a81548164ffffffffff021916908364ffffffffff1602179055505b5080611eb381613f63565b915050611b77565b600085600201805480602002602001604051908101604052809291908181526020018280548015611f1557602002820191906000526020600020905b81546001600160a01b03168152600190910190602001808311611ef7575b50505050509050600091505b8351821015611fb657611f4d848381518110611f3f57611f3f613f37565b60200260200101518261380f565b611fa457838281518110611f6357611f63613f37565b602090810291909101810151600288018054600181018255600091825292902090910180546001600160a01b0319166001600160a01b039092169190911790555b81611fae81613f63565b925050611f21565b33600090815260208190526040902054600160a01b900460ff166120335785546001600160a01b03199081163390811788556001805480820182556000919091527fb10e2d527612073b26eecdfd717e6a320cf44b4afac2b0732d9fcbe2b7fa0cf6018054909216179055855460ff60a01b1916600160a01b1786555b336000908152602081905260409020865481546001600160a01b039091166001600160a01b031982168117835588546001600160a81b031990921617600160a01b9182900460ff1615159091021781556001808801805489939261209a92908401916139d4565b50600282810180546120af9284019190613a2e565b5090505060005b88518110156122a1578881815181106120d1576120d1613f37565b60200260200101516040015160046000336001600160a01b03166001600160a01b0316815260200190815260200160002060008b848151811061211657612116613f37565b6020026020010151606001516001600160a01b03166001600160a01b0316815260200190815260200160002060008282546121519190613f95565b909155505088516000908a908390811061216d5761216d613f37565b6020026020010151606001516001600160a01b03161461228f5788818151811061219957612199613f37565b6020026020010151606001516001600160a01b03166323b872dd33308c85815181106121c7576121c7613f37565b6020026020010151604001516040518463ffffffff1660e01b81526004016121f193929190614148565b602060405180830381600087803b15801561220b57600080fd5b505af115801561221f573d6000803e3d6000fd5b505050506040513d601f19601f82011682018060405250810190612243919061416c565b61228f5760405162461bcd60e51b815260206004820152601a60248201527f50726f626c656d207472616e7366657272696e6720746f6b656e0000000000006044820152606401610371565b8061229981613f63565b9150506120b6565b50505050505050505b50565b6005546060906001600160a01b031633146122da5760405162461bcd60e51b815260040161037190613f00565b6001600160a01b0382166000908152602081815260408083206001018054825181850281018501909352808352919290919083018282801561236957602002820191906000526020600020906000905b82829054906101000a900464ffffffffff1664ffffffffff168152602001906005019060208260040104928301926001038202915080841161232a5790505b505050505090506000805b82518110156124a85760006002600085848151811061239557612395613f37565b602002602001015164ffffffffff1664ffffffffff168152602001908152602001600020805480602002602001604051908101604052809291908181526020016000905b8282101561247f576000848152602090819020604080516101008101825260058602909201805483526001808201546001600160a01b039081168587015260028301548116938501939093526003820154928316606085015264ffffffffff600160a01b840416608085015260ff600160c81b84048116151560a0860152600160d01b909304909216151560c08401526004015460e083015290835290920191016123d9565b5050505090508051836124929190613f95565b92505080806124a090613f63565b915050612374565b5060008167ffffffffffffffff8111156124c4576124c4613d69565b6040519080825280602002602001820160405280156124fd57816020015b6124ea61386b565b8152602001906001900390816124e25790505b50905060008267ffffffffffffffff81111561251b5761251b613d69565b60405190808252806020026020018201604052801561255457816020015b61254161386b565b8152602001906001900390816125395790505b5090506000805b8551811015612718576002600087838151811061257a5761257a613f37565b602002602001015164ffffffffff1664ffffffffff168152602001908152602001600020805480602002602001604051908101604052809291908181526020016000905b82821015612664576000848152602090819020604080516101008101825260058602909201805483526001808201546001600160a01b039081168587015260028301548116938501939093526003820154928316606085015264ffffffffff600160a01b840416608085015260ff600160c81b84048116151560a0860152600160d01b909304909216151560c08401526004015460e083015290835290920191016125be565b50505050935060005b845181101561270557886001600160a01b031685828151811061269257612692613f37565b6020026020010151602001516001600160a01b031614156126f3578481815181106126bf576126bf613f37565b60200260200101518484815181106126d9576126d9613f37565b602002602001018190525082806126ef90613f63565b9350505b806126fd81613f63565b91505061266d565b508061271081613f63565b91505061255b565b5060005b82518110156127785761273a838281518110610edc57610edc613f37565b83828151811061274c5761274c613f37565b602090810291909101015164ffffffffff9091166080909101528061277081613f63565b91505061271c565b50909450505050505b919050565b6005546000906001600160a01b031633146127b35760405162461bcd60e51b815260040161037190613f00565b60006127be42612e74565b60095490915064ffffffffff908116908216116127ed5760405162461bcd60e51b815260040161037190613fc3565b60095464ffffffffff165b8164ffffffffff168164ffffffffff16116129145764ffffffffff8116600090815260026020908152604080832080548251818502810185019093528083529192909190849084015b828210156128e7576000848152602090819020604080516101008101825260058602909201805483526001808201546001600160a01b039081168587015260028301548116938501939093526003820154928316606085015264ffffffffff600160a01b840416608085015260ff600160c81b84048116151560a0860152600160d01b909304909216151560c08401526004015460e08301529083529092019101612841565b505050509050600081511115612901576001935050505090565b508061290c8161400a565b9150506127f8565b50600091505090565b61292681612e74565b64ffffffffff8116600090815260026020908152604080832080548251818502810185019093528083529495509293909291849084015b82821015612a03576000848152602090819020604080516101008101825260058602909201805483526001808201546001600160a01b039081168587015260028301548116938501939093526003820154928316606085015264ffffffffff600160a01b840416608085015260ff600160c81b84048116151560a0860152600160d01b909304909216151560c08401526004015460e0830152908352909201910161295d565b5050505064ffffffffff83166000908152600260205260409020909150612a2861386b565b60005b8351811015612b745785848281518110612a4757612a47613f37565b6020026020010151600001511415612b6257838181518110612a6b57612a6b613f37565b6020908102919091010151600160c082015283549092508290849083908110612a9657612a96613f37565b60009182526020918290208351600590920201908155908201516001820180546001600160a01b039283166001600160a01b0319918216179091556040840151600284018054918416919092161790556060830151600383018054608086015160a087015160c08801511515600160d01b0260ff60d01b19911515600160c81b029190911661ffff60c81b1964ffffffffff909316600160a01b026001600160c81b0319909416959096169490941791909117169290921717905560e090910151600490910155612b74565b80612b6c81613f63565b915050612a2b565b5064ffffffffff841660009081526002602052604090208254612b99919084906138af565b5060608101516001600160a01b0316612bfa5760e08101514711612bbc57600080fd5b80602001516001600160a01b03166108fc8260e001519081150290604051600060405180830381858888f19350505050612bf557600080fd5b61144e565b60e081015160608201516040516370a0823160e01b81523060048201526001600160a01b03909116906370a0823190602401602060405180830381600087803b158015612c4657600080fd5b505af1158015612c5a573d6000803e3d6000fd5b505050506040513d601f19601f82011682018060405250810190612c7e91906141a6565b1015612c8957600080fd5b606081015160e082015160405163095ea7b360e01b815230600482015260248101919091526001600160a01b039091169063095ea7b390604401602060405180830381600087803b158015612cdd57600080fd5b505af1158015612cf1573d6000803e3d6000fd5b505050506040513d601f19601f82011682018060405250810190612d15919061416c565b8015612daa575080606001516001600160a01b03166323b872dd3083604001518460e001516040518463ffffffff1660e01b8152600401612d5893929190614148565b602060405180830381600087803b158015612d7257600080fd5b505af1158015612d86573d6000803e3d6000fd5b505050506040513d601f19601f82011682018060405250810190612daa919061416c565b61144e57600080fd5b6000806006805480602002602001604051908101604052809291908181526020018280548015612e0c57602002820191906000526020600020905b81546001600160a01b03168152600190910190602001808311612dee575b505050505090506000915060005b8151811015612e6d57818181518110612e3557612e35613f37565b60200260200101516001600160a01b0316846001600160a01b03161415612e5b57600192505b80612e6581613f63565b915050612e1a565b5050919050565b6000610e10612e876363236820846141bf565b612e9191906141e5565b92915050565b60075460ff166122aa5760e081015160208083015160608401516001600160a01b0391821660009081526004845260408082209390921681529190925220541015612ee157600080fd5b60608101516001600160a01b0316612f085760e08101514711612f0357600080fd5b612f97565b60e081015160608201516040516370a0823160e01b81523060048201526001600160a01b03909116906370a0823190602401602060405180830381600087803b158015612f5457600080fd5b505af1158015612f68573d6000803e3d6000fd5b505050506040513d601f19601f82011682018060405250810190612f8c91906141a6565b1015612f9757600080fd5b608081015164ffffffffff16600090815260026020908152604080832080548251818502810185019093528083529192909190849084015b82821015613075576000848152602090819020604080516101008101825260058602909201805483526001808201546001600160a01b039081168587015260028301548116938501939093526003820154928316606085015264ffffffffff600160a01b840416608085015260ff600160c81b84048116151560a0860152600160d01b909304909216151560c08401526004015460e08301529083529092019101612fcf565b50505050608083015164ffffffffff1660009081526002602052604081209192505b82518110156131e45783600001518382815181106130b7576130b7613f37565b60200260200101516000015114156131d2578281815181106130db576130db613f37565b6020908102919091010151600160a08201528254909450849083908390811061310657613106613f37565b60009182526020918290208351600590920201908155908201516001820180546001600160a01b039283166001600160a01b0319918216179091556040840151600284018054918416919092161790556060830151600383018054608086015160a087015160c08801511515600160d01b0260ff60d01b19911515600160c81b029190911661ffff60c81b1964ffffffffff909316600160a01b026001600160c81b0319909416959096169490941791909117169290921717905560e0909101516004909101556131e4565b806131dc81613f63565b915050613097565b50608083015164ffffffffff166000908152600260205260409020815461320d919083906138af565b5060608301516001600160a01b03166132ce57600083604001516001600160a01b03166108fc8560e001519081150290604051600060405180830381858888f193505050509050806132945760405162461bcd60e51b815260206004820152601060248201526f2a3930b739b332b9103330b4b632b21760811b6044820152606401610371565b604051600181527fa2ea5b0db1d57b0e32df654aa9a1a97bc8066881e37669ff488d2bebe87c9f879060200160405180910390a150505050565b606083015160e084015160405163095ea7b360e01b815230600482015260248101919091526001600160a01b039091169063095ea7b390604401602060405180830381600087803b15801561332257600080fd5b505af1158015613336573d6000803e3d6000fd5b505050506040513d601f19601f8201168201806040525081019061335a919061416c565b80156133ef575082606001516001600160a01b03166323b872dd3085604001518660e001516040518463ffffffff1660e01b815260040161339d93929190614148565b602060405180830381600087803b1580156133b757600080fd5b505af11580156133cb573d6000803e3d6000fd5b505050506040513d601f19601f820116820180604052508101906133ef919061416c565b6133f857600080fd5b505050565b600061340b82610e10614209565b612e91906363236820614236565b61342161386b565b6040516bffffffffffffffffffffffff19606088901b1660208201526001600160d81b031960d885901b16603482015242603982015260009060590160408051601f1981840301815282825280516020918201206101008401835283526001600160a01b03998a169083015296881696810196909652505091909316606083015264ffffffffff9092166080820152600060a0820181905260c082015260e081019190915290565b3360009081526020819052604090208054600160a01b900460ff166135a8578054336001600160a01b0319918216811783556001805480820182557fb10e2d527612073b26eecdfd717e6a320cf44b4afac2b0732d9fcbe2b7fa0cf601805484169092179091558254600160a01b60ff60a01b19909116178355808301805480830182556000918252602080832060068084049091018054919093066005026101000a64ffffffffff81810219909216918a1602179091556002850180549384018155825290200180549091166001600160a01b038416179055613729565b60008160010180548060200260200160405190810160405280929190818152602001828054801561362657602002820191906000526020600020906000905b82829054906101000a900464ffffffffff1664ffffffffff16815260200190600501906020826004010492830192600103820291508084116135e75790505b5050505050905060008260020180548060200260200160405190810160405280929190818152602001828054801561368757602002820191906000526020600020905b81546001600160a01b03168152600190910190602001808311613669575b5050505050905061369885836137ad565b6136e75784836001016001816001815401808255809150500390600052602060002090600691828204019190066005026101000a81548164ffffffffff021916908364ffffffffff1602179055505b6136f1848261380f565b61372657600283018054600181018255600091825260209091200180546001600160a01b0319166001600160a01b0386161790555b50505b336000908152602081905260409020815481546001600160a01b039091166001600160a01b031982168117835583546001600160a81b031990921617600160a01b9182900460ff1615159091021781556001808301805484939261379092908401916139d4565b50600282810180546137a59284019190613a2e565b505050505050565b6000805b8251811015613805578364ffffffffff168382815181106137d4576137d4613f37565b602002602001015164ffffffffff1614156137f3576001915050612e91565b806137fd81613f63565b9150506137b1565b5060009392505050565b6000805b825181101561380557836001600160a01b031683828151811061383857613838613f37565b60200260200101516001600160a01b03161415613859576001915050612e91565b8061386381613f63565b915050613813565b6040805161010081018252600080825260208201819052918101829052606081018290526080810182905260a0810182905260c0810182905260e081019190915290565b8280548282559060005260206000209060050281019282156139c45760005260206000209160050282015b828111156139c4578254825560018084015490830180546001600160a01b03199081166001600160a01b039384161790915560028086015490850180548316918416919091179055600380860180549186018054938416929094169182178455805464ffffffffff600160a01b9182900416026001600160c81b031990931690911791909117808355815460ff600160c81b918290048116151590910260ff60c81b198316811785559254600160d01b9081900490911615150260ff60d01b1990921661ffff60c81b199091161717905560048084015490830155600592830192909101906138da565b506139d0929150613a6d565b5090565b82805482825590600052602060002090600501600690048101928215613a22576000526020600020916005016006900482015b82811115613a22578254825591600101919060010190613a07565b506139d0929150613aba565b828054828255906000526020600020908101928215613a2257600052602060002091820182811115613a22578254825591600101919060010190613a07565b5b808211156139d05760008082556001820180546001600160a01b031990811690915560028301805490911690556003820180546001600160d81b03191690556004820155600501613a6e565b5b808211156139d05760008155600101613abb565b6001600160a01b03811681146122aa57600080fd5b600060208284031215613af657600080fd5b8135613b0181613acf565b9392505050565b602080825282518282018190526000919060409081850190868401855b82811015613ba357815180518552868101516001600160a01b0390811688870152868201518116878701526060808301519091169086015260808082015164ffffffffff169086015260a08082015115159086015260c08082015115159086015260e090810151908501526101009093019290850190600101613b25565b5091979650505050505050565b600060208284031215613bc257600080fd5b5035919050565b803564ffffffffff8116811461278157600080fd5b6000806000806000858703610160811215613bf857600080fd5b8635613c0381613acf565b9550613c1160208801613bc9565b9450604087013593506060870135613c2881613acf565b925060e0607f1982011215613c3c57600080fd5b506080860190509295509295909350565b600081518084526020808501945080840160005b83811015613c865781516001600160a01b031687529582019590820190600101613c61565b509495945050505050565b60006020808301818452808551808352604092508286019150828160051b8701018488016000805b84811015613d5a57898403603f19018652825180516001600160a01b0316855288810151151589860152878101516080898701819052815190870181905260a08701918b019085905b80821015613d2957825164ffffffffff168452928c0192918c019160019190910190613d02565b50505060608083015192508682038188015250613d468183613c4d565b978a01979550505091870191600101613cb9565b50919998505050505050505050565b634e487b7160e01b600052604160045260246000fd5b6040516080810167ffffffffffffffff81118282101715613da257613da2613d69565b60405290565b604051601f8201601f1916810167ffffffffffffffff81118282101715613dd157613dd1613d69565b604052919050565b60006020808385031215613dec57600080fd5b823567ffffffffffffffff80821115613e0457600080fd5b818501915085601f830112613e1857600080fd5b813581811115613e2a57613e2a613d69565b613e38848260051b01613da8565b818152848101925060079190911b830184019087821115613e5857600080fd5b928401925b81841015613ec95760808489031215613e765760008081fd5b613e7e613d7f565b8435613e8981613acf565b8152613e96858701613bc9565b8187015260408581013590820152606080860135613eb381613acf565b9082015283526080939093019291840191613e5d565b979650505050505050565b60008060408385031215613ee757600080fd5b82359150613ef760208401613bc9565b90509250929050565b6020808252601a908201527f4d75737420686176652061646d696e2070726976696c65676573000000000000604082015260600190565b634e487b7160e01b600052603260045260246000fd5b634e487b7160e01b600052601160045260246000fd5b6000600019821415613f7757613f77613f4d565b5060010190565b600082821015613f9057613f90613f4d565b500390565b60008219821115613fa857613fa8613f4d565b500190565b634e487b7160e01b600052603160045260246000fd5b60208082526027908201527f54696d6520616c726561647920636865636b656420666f7220746869732074696040820152661b59481cdb1bdd60ca1b606082015260800190565b600064ffffffffff8083168181141561402557614025613f4d565b6001019392505050565b634e487b7160e01b600052601260045260246000fd5b600064ffffffffff8084168061405d5761405d61402f565b92169190910692915050565b600081600019048311821515161561408357614083613f4d565b500290565b6000826140975761409761402f565b500490565b60208082526024908201527f4e6f7420656e6f756768204554482073656e742077697468207472616e7361636040820152633a34b7b760e11b606082015260800190565b60208082526025908201527f20546f6b656e206e6f7420617070726f76656420666f72207468697320636f6e6040820152641d1c9858dd60da1b606082015260800190565b60006020828403121561413757600080fd5b813560ff81168114613b0157600080fd5b6001600160a01b039384168152919092166020820152604081019190915260600190565b60006020828403121561417e57600080fd5b81518015158114613b0157600080fd5b600061ffff8083168181141561402557614025613f4d565b6000602082840312156141b857600080fd5b5051919050565b600064ffffffffff838116908316818110156141dd576141dd613f4d565b039392505050565b600064ffffffffff808416806141fd576141fd61402f565b92169190910492915050565b600064ffffffffff8083168185168183048111821515161561422d5761422d613f4d565b02949350505050565b600064ffffffffff80831681851680830382111561425657614256613f4d565b0194935050505056fea26469706673582212203cabd318366e88fe7d1f7fb9ca9e40b94464d8b47519ee180810ab6370a3241e64736f6c63430008090033","opcodes":"PUSH1 0x80 PUSH1 0x40 MSTORE PUSH1 0x5 DUP1 SLOAD PUSH1 0x1 PUSH1 0x1 PUSH1 0xA0 SHL SUB NOT AND PUSH20 0xF39FD6E51AAD88F6F4CE6AB8827279CFFFB92266 OR SWAP1 SSTORE PUSH1 0x7 DUP1 SLOAD PUSH1 0xFF NOT AND SWAP1 SSTORE PUSH1 0x64 PUSH1 0x8 SSTORE PUSH1 0x1 PUSH3 0x46 TIMESTAMP PUSH3 0x74 JUMP JUMPDEST PUSH3 0x52 SWAP2 SWAP1 PUSH3 0x9B JUMP JUMPDEST PUSH1 0x9 DUP1 SLOAD PUSH5 0xFFFFFFFFFF NOT AND PUSH5 0xFFFFFFFFFF SWAP3 SWAP1 SWAP3 AND SWAP2 SWAP1 SWAP2 OR SWAP1 SSTORE PUSH3 0x103 JUMP JUMPDEST PUSH1 0x0 PUSH2 0xE10 PUSH3 0x89 PUSH4 0x63236820 DUP5 PUSH3 0x9B JUMP JUMPDEST PUSH3 0x95 SWAP2 SWAP1 PUSH3 0xD0 JUMP JUMPDEST SWAP3 SWAP2 POP POP JUMP JUMPDEST PUSH1 0x0 PUSH5 0xFFFFFFFFFF DUP4 DUP2 AND SWAP1 DUP4 AND DUP2 DUP2 LT ISZERO PUSH3 0xC8 JUMPI PUSH4 0x4E487B71 PUSH1 0xE0 SHL PUSH1 0x0 MSTORE PUSH1 0x11 PUSH1 0x4 MSTORE PUSH1 0x24 PUSH1 0x0 REVERT JUMPDEST SUB SWAP4 SWAP3 POP POP POP JUMP JUMPDEST PUSH1 0x0 PUSH5 0xFFFFFFFFFF DUP1 DUP5 AND DUP1 PUSH3 0xF7 JUMPI PUSH4 0x4E487B71 PUSH1 0xE0 SHL PUSH1 0x0 MSTORE PUSH1 0x12 PUSH1 0x4 MSTORE PUSH1 0x24 PUSH1 0x0 REVERT JUMPDEST SWAP3 AND SWAP2 SWAP1 SWAP2 DIV SWAP3 SWAP2 POP POP JUMP JUMPDEST PUSH2 0x4295 DUP1 PUSH3 0x113 PUSH1 0x0 CODECOPY PUSH1 0x0 RETURN INVALID PUSH1 0x80 PUSH1 0x40 MSTORE PUSH1 0x4 CALLDATASIZE LT PUSH2 0xF7 JUMPI PUSH1 0x0 CALLDATALOAD PUSH1 0xE0 SHR DUP1 PUSH4 0xC682CCE4 GT PUSH2 0x8A JUMPI DUP1 PUSH4 0xD10FA144 GT PUSH2 0x59 JUMPI DUP1 PUSH4 0xD10FA144 EQ PUSH2 0x2DC JUMPI DUP1 PUSH4 0xDC9961EB EQ PUSH2 0x2EF JUMPI DUP1 PUSH4 0xE0C6190D EQ PUSH2 0x30F JUMPI DUP1 PUSH4 0xE9E1DBEF EQ PUSH2 0x334 JUMPI PUSH2 0x137 JUMP JUMPDEST DUP1 PUSH4 0xC682CCE4 EQ PUSH2 0x27D JUMPI DUP1 PUSH4 0xCED72F87 EQ PUSH2 0x292 JUMPI DUP1 PUSH4 0xCF0B5E45 EQ PUSH2 0x2A7 JUMPI DUP1 PUSH4 0xCF783D8A EQ PUSH2 0x2BA JUMPI PUSH2 0x137 JUMP JUMPDEST DUP1 PUSH4 0x6A1DB1BF GT PUSH2 0xC6 JUMPI DUP1 PUSH4 0x6A1DB1BF EQ PUSH2 0x208 JUMPI DUP1 PUSH4 0x8F283970 EQ PUSH2 0x228 JUMPI DUP1 PUSH4 0xAA58A5B0 EQ PUSH2 0x248 JUMPI DUP1 PUSH4 0xAB7E0909 EQ PUSH2 0x25D JUMPI PUSH2 0x137 JUMP JUMPDEST DUP1 PUSH4 0x53149FA EQ PUSH2 0x189 JUMPI DUP1 PUSH4 0x1385D24C EQ PUSH2 0x1AB JUMPI DUP1 PUSH4 0x1CCB3371 EQ PUSH2 0x1C0 JUMPI DUP1 PUSH4 0x557ED1BA EQ PUSH2 0x1EB JUMPI PUSH2 0x137 JUMP JUMPDEST CALLDATASIZE PUSH2 0x137 JUMPI PUSH1 0x40 DUP1 MLOAD CALLER DUP2 MSTORE CALLVALUE PUSH1 0x20 DUP3 ADD MSTORE PUSH32 0x830D2D700A97AF574B186C80D40429385D24241565B08A7C559BA283A964D9B1 SWAP2 ADD JUMPDEST PUSH1 0x40 MLOAD DUP1 SWAP2 SUB SWAP1 LOG1 STOP JUMPDEST PUSH32 0x19525A32AFAAD9A5491805C356597487A306FC2F4E8541D8D55E1FE951091E60 PUSH1 0x40 MLOAD PUSH2 0x12D SWAP1 PUSH1 0x20 DUP1 DUP3 MSTORE PUSH1 0x10 SWAP1 DUP3 ADD MSTORE PUSH16 0x2AB735B737BBB710333AB731BA34B7B7 PUSH1 0x81 SHL PUSH1 0x40 DUP3 ADD MSTORE PUSH1 0x60 ADD SWAP1 JUMP JUMPDEST CALLVALUE DUP1 ISZERO PUSH2 0x195 JUMPI PUSH1 0x0 DUP1 REVERT JUMPDEST POP PUSH2 0x1A9 PUSH2 0x1A4 CALLDATASIZE PUSH1 0x4 PUSH2 0x3AE4 JUMP JUMPDEST PUSH2 0x347 JUMP JUMPDEST STOP JUMPDEST CALLVALUE DUP1 ISZERO PUSH2 0x1B7 JUMPI PUSH1 0x0 DUP1 REVERT JUMPDEST POP PUSH2 0x1A9 PUSH2 0x571 JUMP JUMPDEST CALLVALUE DUP1 ISZERO PUSH2 0x1CC JUMPI PUSH1 0x0 DUP1 REVERT JUMPDEST POP PUSH2 0x1D5 PUSH2 0x5AF JUMP JUMPDEST PUSH1 0x40 MLOAD PUSH2 0x1E2 SWAP2 SWAP1 PUSH2 0x3B08 JUMP JUMPDEST PUSH1 0x40 MLOAD DUP1 SWAP2 SUB SWAP1 RETURN JUMPDEST CALLVALUE DUP1 ISZERO PUSH2 0x1F7 JUMPI PUSH1 0x0 DUP1 REVERT JUMPDEST POP TIMESTAMP JUMPDEST PUSH1 0x40 MLOAD SWAP1 DUP2 MSTORE PUSH1 0x20 ADD PUSH2 0x1E2 JUMP JUMPDEST CALLVALUE DUP1 ISZERO PUSH2 0x214 JUMPI PUSH1 0x0 DUP1 REVERT JUMPDEST POP PUSH2 0x1A9 PUSH2 0x223 CALLDATASIZE PUSH1 0x4 PUSH2 0x3BB0 JUMP JUMPDEST PUSH2 0x6F9 JUMP JUMPDEST CALLVALUE DUP1 ISZERO PUSH2 0x234 JUMPI PUSH1 0x0 DUP1 REVERT JUMPDEST POP PUSH2 0x1A9 PUSH2 0x243 CALLDATASIZE PUSH1 0x4 PUSH2 0x3AE4 JUMP JUMPDEST PUSH2 0x728 JUMP JUMPDEST CALLVALUE DUP1 ISZERO PUSH2 0x254 JUMPI PUSH1 0x0 DUP1 REVERT JUMPDEST POP PUSH2 0x1A9 PUSH2 0x79D JUMP JUMPDEST CALLVALUE DUP1 ISZERO PUSH2 0x269 JUMPI PUSH1 0x0 DUP1 REVERT JUMPDEST POP PUSH2 0x1A9 PUSH2 0x278 CALLDATASIZE PUSH1 0x4 PUSH2 0x3AE4 JUMP JUMPDEST PUSH2 0x9A1 JUMP JUMPDEST CALLVALUE DUP1 ISZERO PUSH2 0x289 JUMPI PUSH1 0x0 DUP1 REVERT JUMPDEST POP PUSH2 0x1D5 PUSH2 0xA86 JUMP JUMPDEST CALLVALUE DUP1 ISZERO PUSH2 0x29E JUMPI PUSH1 0x0 DUP1 REVERT JUMPDEST POP PUSH1 0x8 SLOAD PUSH2 0x1FA JUMP JUMPDEST PUSH2 0x1A9 PUSH2 0x2B5 CALLDATASIZE PUSH1 0x4 PUSH2 0x3BDE JUMP JUMPDEST PUSH2 0xF36 JUMP JUMPDEST CALLVALUE DUP1 ISZERO PUSH2 0x2C6 JUMPI PUSH1 0x0 DUP1 REVERT JUMPDEST POP PUSH2 0x2CF PUSH2 0x1455 JUMP JUMPDEST PUSH1 0x40 MLOAD PUSH2 0x1E2 SWAP2 SWAP1 PUSH2 0x3C91 JUMP JUMPDEST PUSH2 0x1A9 PUSH2 0x2EA CALLDATASIZE PUSH1 0x4 PUSH2 0x3DD9 JUMP JUMPDEST PUSH2 0x167C JUMP JUMPDEST CALLVALUE DUP1 ISZERO PUSH2 0x2FB JUMPI PUSH1 0x0 DUP1 REVERT JUMPDEST POP PUSH2 0x1D5 PUSH2 0x30A CALLDATASIZE PUSH1 0x4 PUSH2 0x3AE4 JUMP JUMPDEST PUSH2 0x22AD JUMP JUMPDEST CALLVALUE DUP1 ISZERO PUSH2 0x31B JUMPI PUSH1 0x0 DUP1 REVERT JUMPDEST POP PUSH2 0x324 PUSH2 0x2786 JUMP JUMPDEST PUSH1 0x40 MLOAD SWAP1 ISZERO ISZERO DUP2 MSTORE PUSH1 0x20 ADD PUSH2 0x1E2 JUMP JUMPDEST PUSH2 0x1A9 PUSH2 0x342 CALLDATASIZE PUSH1 0x4 PUSH2 0x3ED4 JUMP JUMPDEST PUSH2 0x291D JUMP JUMPDEST PUSH1 0x5 SLOAD PUSH1 0x1 PUSH1 0x1 PUSH1 0xA0 SHL SUB AND CALLER EQ PUSH2 0x37A JUMPI PUSH1 0x40 MLOAD PUSH3 0x461BCD PUSH1 0xE5 SHL DUP2 MSTORE PUSH1 0x4 ADD PUSH2 0x371 SWAP1 PUSH2 0x3F00 JUMP JUMPDEST PUSH1 0x40 MLOAD DUP1 SWAP2 SUB SWAP1 REVERT JUMPDEST PUSH1 0x1 PUSH1 0x1 PUSH1 0xA0 SHL SUB DUP2 AND PUSH2 0x38D JUMPI PUSH1 0x0 DUP1 REVERT JUMPDEST PUSH2 0x396 DUP2 PUSH2 0x2DB3 JUMP JUMPDEST PUSH2 0x3E2 JUMPI PUSH1 0x40 MLOAD PUSH3 0x461BCD PUSH1 0xE5 SHL DUP2 MSTORE PUSH1 0x20 PUSH1 0x4 DUP3 ADD MSTORE PUSH1 0x19 PUSH1 0x24 DUP3 ADD MSTORE PUSH32 0x455243323020746F6B656E206E6F742061646465642079657400000000000000 PUSH1 0x44 DUP3 ADD MSTORE PUSH1 0x64 ADD PUSH2 0x371 JUMP JUMPDEST PUSH1 0x0 PUSH1 0x6 DUP1 SLOAD DUP1 PUSH1 0x20 MUL PUSH1 0x20 ADD PUSH1 0x40 MLOAD SWAP1 DUP2 ADD PUSH1 0x40 MSTORE DUP1 SWAP3 SWAP2 SWAP1 DUP2 DUP2 MSTORE PUSH1 0x20 ADD DUP3 DUP1 SLOAD DUP1 ISZERO PUSH2 0x43A JUMPI PUSH1 0x20 MUL DUP3 ADD SWAP2 SWAP1 PUSH1 0x0 MSTORE PUSH1 0x20 PUSH1 0x0 KECCAK256 SWAP1 JUMPDEST DUP2 SLOAD PUSH1 0x1 PUSH1 0x1 PUSH1 0xA0 SHL SUB AND DUP2 MSTORE PUSH1 0x1 SWAP1 SWAP2 ADD SWAP1 PUSH1 0x20 ADD DUP1 DUP4 GT PUSH2 0x41C JUMPI JUMPDEST POP POP POP POP POP SWAP1 POP PUSH1 0x0 DUP1 JUMPDEST DUP3 MLOAD DUP2 LT ISZERO PUSH2 0x49B JUMPI DUP4 PUSH1 0x1 PUSH1 0x1 PUSH1 0xA0 SHL SUB AND DUP4 DUP3 DUP2 MLOAD DUP2 LT PUSH2 0x46A JUMPI PUSH2 0x46A PUSH2 0x3F37 JUMP JUMPDEST PUSH1 0x20 MUL PUSH1 0x20 ADD ADD MLOAD PUSH1 0x1 PUSH1 0x1 PUSH1 0xA0 SHL SUB AND EQ ISZERO PUSH2 0x489 JUMPI DUP1 SWAP2 POP PUSH2 0x49B JUMP JUMPDEST DUP1 PUSH2 0x493 DUP2 PUSH2 0x3F63 JUMP JUMPDEST SWAP2 POP POP PUSH2 0x445 JUMP JUMPDEST POP DUP1 JUMPDEST PUSH1 0x6 SLOAD PUSH2 0x4AD SWAP1 PUSH1 0x1 SWAP1 PUSH2 0x3F7E JUMP JUMPDEST DUP2 LT ISZERO PUSH2 0x538 JUMPI PUSH1 0x6 PUSH2 0x4C1 DUP3 PUSH1 0x1 PUSH2 0x3F95 JUMP JUMPDEST DUP2 SLOAD DUP2 LT PUSH2 0x4D1 JUMPI PUSH2 0x4D1 PUSH2 0x3F37 JUMP JUMPDEST PUSH1 0x0 SWAP2 DUP3 MSTORE PUSH1 0x20 SWAP1 SWAP2 KECCAK256 ADD SLOAD PUSH1 0x6 DUP1 SLOAD PUSH1 0x1 PUSH1 0x1 PUSH1 0xA0 SHL SUB SWAP1 SWAP3 AND SWAP2 DUP4 SWAP1 DUP2 LT PUSH2 0x4FD JUMPI PUSH2 0x4FD PUSH2 0x3F37 JUMP JUMPDEST PUSH1 0x0 SWAP2 DUP3 MSTORE PUSH1 0x20 SWAP1 SWAP2 KECCAK256 ADD DUP1 SLOAD PUSH1 0x1 PUSH1 0x1 PUSH1 0xA0 SHL SUB NOT AND PUSH1 0x1 PUSH1 0x1 PUSH1 0xA0 SHL SUB SWAP3 SWAP1 SWAP3 AND SWAP2 SWAP1 SWAP2 OR SWAP1 SSTORE DUP1 PUSH2 0x530 DUP2 PUSH2 0x3F63 JUMP JUMPDEST SWAP2 POP POP PUSH2 0x49E JUMP JUMPDEST POP PUSH1 0x6 DUP1 SLOAD DUP1 PUSH2 0x54A JUMPI PUSH2 0x54A PUSH2 0x3FAD JUMP JUMPDEST PUSH1 0x0 DUP3 DUP2 MSTORE PUSH1 0x20 SWAP1 KECCAK256 DUP2 ADD PUSH1 0x0 NOT SWAP1 DUP2 ADD DUP1 SLOAD PUSH1 0x1 PUSH1 0x1 PUSH1 0xA0 SHL SUB NOT AND SWAP1 SSTORE ADD SWAP1 SSTORE POP POP POP JUMP JUMPDEST PUSH1 0x5 SLOAD PUSH1 0x1 PUSH1 0x1 PUSH1 0xA0 SHL SUB AND CALLER EQ PUSH2 0x59B JUMPI PUSH1 0x40 MLOAD PUSH3 0x461BCD PUSH1 0xE5 SHL DUP2 MSTORE PUSH1 0x4 ADD PUSH2 0x371 SWAP1 PUSH2 0x3F00 JUMP JUMPDEST PUSH1 0x7 DUP1 SLOAD PUSH1 0xFF NOT DUP2 AND PUSH1 0xFF SWAP1 SWAP2 AND ISZERO OR SWAP1 SSTORE JUMP JUMPDEST PUSH1 0x5 SLOAD PUSH1 0x60 SWAP1 PUSH1 0x1 PUSH1 0x1 PUSH1 0xA0 SHL SUB AND CALLER EQ PUSH2 0x5DC JUMPI PUSH1 0x40 MLOAD PUSH3 0x461BCD PUSH1 0xE5 SHL DUP2 MSTORE PUSH1 0x4 ADD PUSH2 0x371 SWAP1 PUSH2 0x3F00 JUMP JUMPDEST PUSH1 0x3 SLOAD PUSH1 0x0 SWAP1 PUSH8 0xFFFFFFFFFFFFFFFF DUP2 GT ISZERO PUSH2 0x5FA JUMPI PUSH2 0x5FA PUSH2 0x3D69 JUMP JUMPDEST PUSH1 0x40 MLOAD SWAP1 DUP1 DUP3 MSTORE DUP1 PUSH1 0x20 MUL PUSH1 0x20 ADD DUP3 ADD PUSH1 0x40 MSTORE DUP1 ISZERO PUSH2 0x633 JUMPI DUP2 PUSH1 0x20 ADD JUMPDEST PUSH2 0x620 PUSH2 0x386B JUMP JUMPDEST DUP2 MSTORE PUSH1 0x20 ADD SWAP1 PUSH1 0x1 SWAP1 SUB SWAP1 DUP2 PUSH2 0x618 JUMPI SWAP1 POP JUMPDEST POP SWAP1 POP PUSH1 0x0 DUP1 JUMPDEST PUSH1 0x1 SLOAD DUP2 LT ISZERO PUSH2 0x6F1 JUMPI PUSH1 0x0 PUSH2 0x676 PUSH1 0x1 DUP4 DUP2 SLOAD DUP2 LT PUSH2 0x65C JUMPI PUSH2 0x65C PUSH2 0x3F37 JUMP JUMPDEST PUSH1 0x0 SWAP2 DUP3 MSTORE PUSH1 0x20 SWAP1 SWAP2 KECCAK256 ADD SLOAD PUSH1 0x1 PUSH1 0x1 PUSH1 0xA0 SHL SUB AND PUSH2 0x22AD JUMP JUMPDEST SWAP1 POP PUSH1 0x0 JUMPDEST DUP2 MLOAD DUP2 LT ISZERO PUSH2 0x6DC JUMPI DUP2 DUP2 DUP2 MLOAD DUP2 LT PUSH2 0x696 JUMPI PUSH2 0x696 PUSH2 0x3F37 JUMP JUMPDEST PUSH1 0x20 MUL PUSH1 0x20 ADD ADD MLOAD DUP6 DUP6 DUP2 MLOAD DUP2 LT PUSH2 0x6B0 JUMPI PUSH2 0x6B0 PUSH2 0x3F37 JUMP JUMPDEST PUSH1 0x20 MUL PUSH1 0x20 ADD ADD DUP2 SWAP1 MSTORE POP DUP4 DUP1 PUSH2 0x6C6 SWAP1 PUSH2 0x3F63 JUMP JUMPDEST SWAP5 POP POP DUP1 DUP1 PUSH2 0x6D4 SWAP1 PUSH2 0x3F63 JUMP JUMPDEST SWAP2 POP POP PUSH2 0x67B JUMP JUMPDEST POP POP DUP1 DUP1 PUSH2 0x6E9 SWAP1 PUSH2 0x3F63 JUMP JUMPDEST SWAP2 POP POP PUSH2 0x63A JUMP JUMPDEST POP SWAP1 SWAP2 POP POP SWAP1 JUMP JUMPDEST PUSH1 0x5 SLOAD PUSH1 0x1 PUSH1 0x1 PUSH1 0xA0 SHL SUB AND CALLER EQ PUSH2 0x723 JUMPI PUSH1 0x40 MLOAD PUSH3 0x461BCD PUSH1 0xE5 SHL DUP2 MSTORE PUSH1 0x4 ADD PUSH2 0x371 SWAP1 PUSH2 0x3F00 JUMP JUMPDEST PUSH1 0x8 SSTORE JUMP JUMPDEST PUSH1 0x5 SLOAD PUSH1 0x1 PUSH1 0x1 PUSH1 0xA0 SHL SUB AND CALLER EQ PUSH2 0x752 JUMPI PUSH1 0x40 MLOAD PUSH3 0x461BCD PUSH1 0xE5 SHL DUP2 MSTORE PUSH1 0x4 ADD PUSH2 0x371 SWAP1 PUSH2 0x3F00 JUMP JUMPDEST CALLER PUSH1 0x1 PUSH1 0x1 PUSH1 0xA0 SHL SUB DUP3 AND EQ DUP1 ISZERO PUSH2 0x772 JUMPI POP PUSH1 0x1 PUSH1 0x1 PUSH1 0xA0 SHL SUB DUP2 AND ISZERO ISZERO JUMPDEST PUSH2 0x77B JUMPI PUSH1 0x0 DUP1 REVERT JUMPDEST PUSH1 0x5 DUP1 SLOAD PUSH1 0x1 PUSH1 0x1 PUSH1 0xA0 SHL SUB NOT AND PUSH1 0x1 PUSH1 0x1 PUSH1 0xA0 SHL SUB SWAP3 SWAP1 SWAP3 AND SWAP2 SWAP1 SWAP2 OR SWAP1 SSTORE JUMP JUMPDEST PUSH1 0x5 SLOAD PUSH1 0x1 PUSH1 0x1 PUSH1 0xA0 SHL SUB AND CALLER EQ PUSH2 0x7C7 JUMPI PUSH1 0x40 MLOAD PUSH3 0x461BCD PUSH1 0xE5 SHL DUP2 MSTORE PUSH1 0x4 ADD PUSH2 0x371 SWAP1 PUSH2 0x3F00 JUMP JUMPDEST PUSH1 0x0 PUSH2 0x7D2 TIMESTAMP PUSH2 0x2E74 JUMP JUMPDEST PUSH1 0x9 SLOAD SWAP1 SWAP2 POP PUSH5 0xFFFFFFFFFF SWAP1 DUP2 AND SWAP1 DUP3 AND GT PUSH2 0x801 JUMPI PUSH1 0x40 MLOAD PUSH3 0x461BCD PUSH1 0xE5 SHL DUP2 MSTORE PUSH1 0x4 ADD PUSH2 0x371 SWAP1 PUSH2 0x3FC3 JUMP JUMPDEST PUSH1 0x9 SLOAD PUSH5 0xFFFFFFFFFF AND JUMPDEST DUP2 PUSH5 0xFFFFFFFFFF AND DUP2 PUSH5 0xFFFFFFFFFF AND GT PUSH2 0x982 JUMPI PUSH5 0xFFFFFFFFFF DUP2 AND PUSH1 0x0 SWAP1 DUP2 MSTORE PUSH1 0x2 PUSH1 0x20 SWAP1 DUP2 MSTORE PUSH1 0x40 DUP1 DUP4 KECCAK256 DUP1 SLOAD DUP3 MLOAD DUP2 DUP6 MUL DUP2 ADD DUP6 ADD SWAP1 SWAP4 MSTORE DUP1 DUP4 MSTORE SWAP2 SWAP3 SWAP1 SWAP2 SWAP1 DUP5 SWAP1 DUP5 ADD JUMPDEST DUP3 DUP3 LT ISZERO PUSH2 0x8FB JUMPI PUSH1 0x0 DUP5 DUP2 MSTORE PUSH1 0x20 SWAP1 DUP2 SWAP1 KECCAK256 PUSH1 0x40 DUP1 MLOAD PUSH2 0x100 DUP2 ADD DUP3 MSTORE PUSH1 0x5 DUP7 MUL SWAP1 SWAP3 ADD DUP1 SLOAD DUP4 MSTORE PUSH1 0x1 DUP1 DUP3 ADD SLOAD PUSH1 0x1 PUSH1 0x1 PUSH1 0xA0 SHL SUB SWAP1 DUP2 AND DUP6 DUP8 ADD MSTORE PUSH1 0x2 DUP4 ADD SLOAD DUP2 AND SWAP4 DUP6 ADD SWAP4 SWAP1 SWAP4 MSTORE PUSH1 0x3 DUP3 ADD SLOAD SWAP3 DUP4 AND PUSH1 0x60 DUP6 ADD MSTORE PUSH5 0xFFFFFFFFFF PUSH1 0x1 PUSH1 0xA0 SHL DUP5 DIV AND PUSH1 0x80 DUP6 ADD MSTORE PUSH1 0xFF PUSH1 0x1 PUSH1 0xC8 SHL DUP5 DIV DUP2 AND ISZERO ISZERO PUSH1 0xA0 DUP7 ADD MSTORE PUSH1 0x1 PUSH1 0xD0 SHL SWAP1 SWAP4 DIV SWAP1 SWAP3 AND ISZERO ISZERO PUSH1 0xC0 DUP5 ADD MSTORE PUSH1 0x4 ADD SLOAD PUSH1 0xE0 DUP4 ADD MSTORE SWAP1 DUP4 MSTORE SWAP1 SWAP3 ADD SWAP2 ADD PUSH2 0x855 JUMP JUMPDEST POP POP POP POP SWAP1 POP PUSH1 0x0 DUP2 MLOAD GT ISZERO PUSH2 0x96F JUMPI PUSH1 0x0 JUMPDEST DUP2 MLOAD DUP2 LT ISZERO PUSH2 0x96D JUMPI DUP2 DUP2 DUP2 MLOAD DUP2 LT PUSH2 0x929 JUMPI PUSH2 0x929 PUSH2 0x3F37 JUMP JUMPDEST PUSH1 0x20 MUL PUSH1 0x20 ADD ADD MLOAD PUSH1 0xC0 ADD MLOAD PUSH2 0x95B JUMPI PUSH2 0x95B DUP3 DUP3 DUP2 MLOAD DUP2 LT PUSH2 0x94E JUMPI PUSH2 0x94E PUSH2 0x3F37 JUMP JUMPDEST PUSH1 0x20 MUL PUSH1 0x20 ADD ADD MLOAD PUSH2 0x2E97 JUMP JUMPDEST DUP1 PUSH2 0x965 DUP2 PUSH2 0x3F63 JUMP JUMPDEST SWAP2 POP POP PUSH2 0x90E JUMP JUMPDEST POP JUMPDEST POP DUP1 PUSH2 0x97A DUP2 PUSH2 0x400A JUMP JUMPDEST SWAP2 POP POP PUSH2 0x80C JUMP JUMPDEST POP PUSH1 0x9 DUP1 SLOAD PUSH5 0xFFFFFFFFFF NOT AND PUSH5 0xFFFFFFFFFF SWAP3 SWAP1 SWAP3 AND SWAP2 SWAP1 SWAP2 OR SWAP1 SSTORE JUMP JUMPDEST PUSH1 0x5 SLOAD PUSH1 0x1 PUSH1 0x1 PUSH1 0xA0 SHL SUB AND CALLER EQ PUSH2 0x9CB JUMPI PUSH1 0x40 MLOAD PUSH3 0x461BCD PUSH1 0xE5 SHL DUP2 MSTORE PUSH1 0x4 ADD PUSH2 0x371 SWAP1 PUSH2 0x3F00 JUMP JUMPDEST PUSH1 0x1 PUSH1 0x1 PUSH1 0xA0 SHL SUB DUP2 AND PUSH2 0x9DE JUMPI PUSH1 0x0 DUP1 REVERT JUMPDEST PUSH2 0x9E7 DUP2 PUSH2 0x2DB3 JUMP JUMPDEST ISZERO PUSH2 0xA34 JUMPI PUSH1 0x40 MLOAD PUSH3 0x461BCD PUSH1 0xE5 SHL DUP2 MSTORE PUSH1 0x20 PUSH1 0x4 DUP3 ADD MSTORE PUSH1 0x19 PUSH1 0x24 DUP3 ADD MSTORE PUSH32 0x455243323020746F6B656E20616C726561647920616464656400000000000000 PUSH1 0x44 DUP3 ADD MSTORE PUSH1 0x64 ADD PUSH2 0x371 JUMP JUMPDEST PUSH1 0x6 DUP1 SLOAD PUSH1 0x1 DUP2 ADD DUP3 SSTORE PUSH1 0x0 SWAP2 SWAP1 SWAP2 MSTORE PUSH32 0xF652222313E28459528D920B65115C16C04F3EFC82AAEDC97BE59F3F377C0D3F ADD DUP1 SLOAD PUSH1 0x1 PUSH1 0x1 PUSH1 0xA0 SHL SUB NOT AND PUSH1 0x1 PUSH1 0x1 PUSH1 0xA0 SHL SUB SWAP3 SWAP1 SWAP3 AND SWAP2 SWAP1 SWAP2 OR SWAP1 SSTORE JUMP JUMPDEST CALLER PUSH1 0x0 SWAP1 DUP2 MSTORE PUSH1 0x20 DUP2 DUP2 MSTORE PUSH1 0x40 DUP1 DUP4 KECCAK256 PUSH1 0x1 ADD DUP1 SLOAD DUP3 MLOAD DUP2 DUP6 MUL DUP2 ADD DUP6 ADD SWAP1 SWAP4 MSTORE DUP1 DUP4 MSTORE PUSH1 0x60 SWAP5 SWAP4 DUP4 ADD DUP3 DUP3 DUP1 ISZERO PUSH2 0xB0B JUMPI PUSH1 0x20 MUL DUP3 ADD SWAP2 SWAP1 PUSH1 0x0 MSTORE PUSH1 0x20 PUSH1 0x0 KECCAK256 SWAP1 PUSH1 0x0 SWAP1 JUMPDEST DUP3 DUP3 SWAP1 SLOAD SWAP1 PUSH2 0x100 EXP SWAP1 DIV PUSH5 0xFFFFFFFFFF AND PUSH5 0xFFFFFFFFFF AND DUP2 MSTORE PUSH1 0x20 ADD SWAP1 PUSH1 0x5 ADD SWAP1 PUSH1 0x20 DUP3 PUSH1 0x4 ADD DIV SWAP3 DUP4 ADD SWAP3 PUSH1 0x1 SUB DUP3 MUL SWAP2 POP DUP1 DUP5 GT PUSH2 0xACC JUMPI SWAP1 POP JUMPDEST POP POP POP POP POP SWAP1 POP PUSH1 0x0 DUP1 JUMPDEST DUP3 MLOAD DUP2 LT ISZERO PUSH2 0xC4A JUMPI PUSH1 0x0 PUSH1 0x2 PUSH1 0x0 DUP6 DUP5 DUP2 MLOAD DUP2 LT PUSH2 0xB37 JUMPI PUSH2 0xB37 PUSH2 0x3F37 JUMP JUMPDEST PUSH1 0x20 MUL PUSH1 0x20 ADD ADD MLOAD PUSH5 0xFFFFFFFFFF AND PUSH5 0xFFFFFFFFFF AND DUP2 MSTORE PUSH1 0x20 ADD SWAP1 DUP2 MSTORE PUSH1 0x20 ADD PUSH1 0x0 KECCAK256 DUP1 SLOAD DUP1 PUSH1 0x20 MUL PUSH1 0x20 ADD PUSH1 0x40 MLOAD SWAP1 DUP2 ADD PUSH1 0x40 MSTORE DUP1 SWAP3 SWAP2 SWAP1 DUP2 DUP2 MSTORE PUSH1 0x20 ADD PUSH1 0x0 SWAP1 JUMPDEST DUP3 DUP3 LT ISZERO PUSH2 0xC21 JUMPI PUSH1 0x0 DUP5 DUP2 MSTORE PUSH1 0x20 SWAP1 DUP2 SWAP1 KECCAK256 PUSH1 0x40 DUP1 MLOAD PUSH2 0x100 DUP2 ADD DUP3 MSTORE PUSH1 0x5 DUP7 MUL SWAP1 SWAP3 ADD DUP1 SLOAD DUP4 MSTORE PUSH1 0x1 DUP1 DUP3 ADD SLOAD PUSH1 0x1 PUSH1 0x1 PUSH1 0xA0 SHL SUB SWAP1 DUP2 AND DUP6 DUP8 ADD MSTORE PUSH1 0x2 DUP4 ADD SLOAD DUP2 AND SWAP4 DUP6 ADD SWAP4 SWAP1 SWAP4 MSTORE PUSH1 0x3 DUP3 ADD SLOAD SWAP3 DUP4 AND PUSH1 0x60 DUP6 ADD MSTORE PUSH5 0xFFFFFFFFFF PUSH1 0x1 PUSH1 0xA0 SHL DUP5 DIV AND PUSH1 0x80 DUP6 ADD MSTORE PUSH1 0xFF PUSH1 0x1 PUSH1 0xC8 SHL DUP5 DIV DUP2 AND ISZERO ISZERO PUSH1 0xA0 DUP7 ADD MSTORE PUSH1 0x1 PUSH1 0xD0 SHL SWAP1 SWAP4 DIV SWAP1 SWAP3 AND ISZERO ISZERO PUSH1 0xC0 DUP5 ADD MSTORE PUSH1 0x4 ADD SLOAD PUSH1 0xE0 DUP4 ADD MSTORE SWAP1 DUP4 MSTORE SWAP1 SWAP3 ADD SWAP2 ADD PUSH2 0xB7B JUMP JUMPDEST POP POP POP POP SWAP1 POP DUP1 MLOAD DUP4 PUSH2 0xC34 SWAP2 SWAP1 PUSH2 0x3F95 JUMP JUMPDEST SWAP3 POP POP DUP1 DUP1 PUSH2 0xC42 SWAP1 PUSH2 0x3F63 JUMP JUMPDEST SWAP2 POP POP PUSH2 0xB16 JUMP JUMPDEST POP PUSH1 0x0 DUP2 PUSH8 0xFFFFFFFFFFFFFFFF DUP2 GT ISZERO PUSH2 0xC66 JUMPI PUSH2 0xC66 PUSH2 0x3D69 JUMP JUMPDEST PUSH1 0x40 MLOAD SWAP1 DUP1 DUP3 MSTORE DUP1 PUSH1 0x20 MUL PUSH1 0x20 ADD DUP3 ADD PUSH1 0x40 MSTORE DUP1 ISZERO PUSH2 0xC9F JUMPI DUP2 PUSH1 0x20 ADD JUMPDEST PUSH2 0xC8C PUSH2 0x386B JUMP JUMPDEST DUP2 MSTORE PUSH1 0x20 ADD SWAP1 PUSH1 0x1 SWAP1 SUB SWAP1 DUP2 PUSH2 0xC84 JUMPI SWAP1 POP JUMPDEST POP SWAP1 POP PUSH1 0x0 DUP3 PUSH8 0xFFFFFFFFFFFFFFFF DUP2 GT ISZERO PUSH2 0xCBD JUMPI PUSH2 0xCBD PUSH2 0x3D69 JUMP JUMPDEST PUSH1 0x40 MLOAD SWAP1 DUP1 DUP3 MSTORE DUP1 PUSH1 0x20 MUL PUSH1 0x20 ADD DUP3 ADD PUSH1 0x40 MSTORE DUP1 ISZERO PUSH2 0xCF6 JUMPI DUP2 PUSH1 0x20 ADD JUMPDEST PUSH2 0xCE3 PUSH2 0x386B JUMP JUMPDEST DUP2 MSTORE PUSH1 0x20 ADD SWAP1 PUSH1 0x1 SWAP1 SUB SWAP1 DUP2 PUSH2 0xCDB JUMPI SWAP1 POP JUMPDEST POP SWAP1 POP PUSH1 0x0 DUP1 JUMPDEST DUP6 MLOAD DUP2 LT ISZERO PUSH2 0xEBA JUMPI PUSH1 0x2 PUSH1 0x0 DUP8 DUP4 DUP2 MLOAD DUP2 LT PUSH2 0xD1C JUMPI PUSH2 0xD1C PUSH2 0x3F37 JUMP JUMPDEST PUSH1 0x20 MUL PUSH1 0x20 ADD ADD MLOAD PUSH5 0xFFFFFFFFFF AND PUSH5 0xFFFFFFFFFF AND DUP2 MSTORE PUSH1 0x20 ADD SWAP1 DUP2 MSTORE PUSH1 0x20 ADD PUSH1 0x0 KECCAK256 DUP1 SLOAD DUP1 PUSH1 0x20 MUL PUSH1 0x20 ADD PUSH1 0x40 MLOAD SWAP1 DUP2 ADD PUSH1 0x40 MSTORE DUP1 SWAP3 SWAP2 SWAP1 DUP2 DUP2 MSTORE PUSH1 0x20 ADD PUSH1 0x0 SWAP1 JUMPDEST DUP3 DUP3 LT ISZERO PUSH2 0xE06 JUMPI PUSH1 0x0 DUP5 DUP2 MSTORE PUSH1 0x20 SWAP1 DUP2 SWAP1 KECCAK256 PUSH1 0x40 DUP1 MLOAD PUSH2 0x100 DUP2 ADD DUP3 MSTORE PUSH1 0x5 DUP7 MUL SWAP1 SWAP3 ADD DUP1 SLOAD DUP4 MSTORE PUSH1 0x1 DUP1 DUP3 ADD SLOAD PUSH1 0x1 PUSH1 0x1 PUSH1 0xA0 SHL SUB SWAP1 DUP2 AND DUP6 DUP8 ADD MSTORE PUSH1 0x2 DUP4 ADD SLOAD DUP2 AND SWAP4 DUP6 ADD SWAP4 SWAP1 SWAP4 MSTORE PUSH1 0x3 DUP3 ADD SLOAD SWAP3 DUP4 AND PUSH1 0x60 DUP6 ADD MSTORE PUSH5 0xFFFFFFFFFF PUSH1 0x1 PUSH1 0xA0 SHL DUP5 DIV AND PUSH1 0x80 DUP6 ADD MSTORE PUSH1 0xFF PUSH1 0x1 PUSH1 0xC8 SHL DUP5 DIV DUP2 AND ISZERO ISZERO PUSH1 0xA0 DUP7 ADD MSTORE PUSH1 0x1 PUSH1 0xD0 SHL SWAP1 SWAP4 DIV SWAP1 SWAP3 AND ISZERO ISZERO PUSH1 0xC0 DUP5 ADD MSTORE PUSH1 0x4 ADD SLOAD PUSH1 0xE0 DUP4 ADD MSTORE SWAP1 DUP4 MSTORE SWAP1 SWAP3 ADD SWAP2 ADD PUSH2 0xD60 JUMP JUMPDEST POP POP POP POP SWAP4 POP PUSH1 0x0 JUMPDEST DUP5 MLOAD DUP2 LT ISZERO PUSH2 0xEA7 JUMPI CALLER PUSH1 0x1 PUSH1 0x1 PUSH1 0xA0 SHL SUB AND DUP6 DUP3 DUP2 MLOAD DUP2 LT PUSH2 0xE34 JUMPI PUSH2 0xE34 PUSH2 0x3F37 JUMP JUMPDEST PUSH1 0x20 MUL PUSH1 0x20 ADD ADD MLOAD PUSH1 0x20 ADD MLOAD PUSH1 0x1 PUSH1 0x1 PUSH1 0xA0 SHL SUB AND EQ ISZERO PUSH2 0xE95 JUMPI DUP5 DUP2 DUP2 MLOAD DUP2 LT PUSH2 0xE61 JUMPI PUSH2 0xE61 PUSH2 0x3F37 JUMP JUMPDEST PUSH1 0x20 MUL PUSH1 0x20 ADD ADD MLOAD DUP5 DUP5 DUP2 MLOAD DUP2 LT PUSH2 0xE7B JUMPI PUSH2 0xE7B PUSH2 0x3F37 JUMP JUMPDEST PUSH1 0x20 MUL PUSH1 0x20 ADD ADD DUP2 SWAP1 MSTORE POP DUP3 DUP1 PUSH2 0xE91 SWAP1 PUSH2 0x3F63 JUMP JUMPDEST SWAP4 POP POP JUMPDEST DUP1 PUSH2 0xE9F DUP2 PUSH2 0x3F63 JUMP JUMPDEST SWAP2 POP POP PUSH2 0xE0F JUMP JUMPDEST POP DUP1 PUSH2 0xEB2 DUP2 PUSH2 0x3F63 JUMP JUMPDEST SWAP2 POP POP PUSH2 0xCFD JUMP JUMPDEST POP PUSH1 0x0 JUMPDEST DUP3 MLOAD DUP2 LT ISZERO PUSH2 0xF2B JUMPI PUSH2 0xEED DUP4 DUP3 DUP2 MLOAD DUP2 LT PUSH2 0xEDC JUMPI PUSH2 0xEDC PUSH2 0x3F37 JUMP JUMPDEST PUSH1 0x20 MUL PUSH1 0x20 ADD ADD MLOAD PUSH1 0x80 ADD MLOAD PUSH2 0x33FD JUMP JUMPDEST DUP4 DUP3 DUP2 MLOAD DUP2 LT PUSH2 0xEFF JUMPI PUSH2 0xEFF PUSH2 0x3F37 JUMP JUMPDEST PUSH1 0x20 SWAP1 DUP2 MUL SWAP2 SWAP1 SWAP2 ADD ADD MLOAD PUSH5 0xFFFFFFFFFF SWAP1 SWAP2 AND PUSH1 0x80 SWAP1 SWAP2 ADD MSTORE DUP1 PUSH2 0xF23 DUP2 PUSH2 0x3F63 JUMP JUMPDEST SWAP2 POP POP PUSH2 0xEBE JUMP JUMPDEST POP SWAP1 SWAP6 SWAP5 POP POP POP POP POP JUMP JUMPDEST PUSH1 0x7 SLOAD PUSH1 0xFF AND PUSH2 0x144E JUMPI TIMESTAMP DUP5 PUSH5 0xFFFFFFFFFF AND GT PUSH2 0xF96 JUMPI PUSH1 0x40 MLOAD PUSH3 0x461BCD PUSH1 0xE5 SHL DUP2 MSTORE PUSH1 0x20 PUSH1 0x4 DUP3 ADD MSTORE PUSH1 0x1F PUSH1 0x24 DUP3 ADD MSTORE PUSH32 0x54696D652064617461206D75737420626520696E207468652066757475726500 PUSH1 0x44 DUP3 ADD MSTORE PUSH1 0x64 ADD PUSH2 0x371 JUMP JUMPDEST PUSH2 0xFA2 PUSH2 0xE10 DUP6 PUSH2 0x4045 JUMP JUMPDEST PUSH5 0xFFFFFFFFFF AND ISZERO PUSH2 0xFF1 JUMPI PUSH1 0x40 MLOAD PUSH3 0x461BCD PUSH1 0xE5 SHL DUP2 MSTORE PUSH1 0x20 PUSH1 0x4 DUP3 ADD MSTORE PUSH1 0x18 PUSH1 0x24 DUP3 ADD MSTORE PUSH24 0x2A34B6B29036BAB9BA1031329037B7103A3432903437BAB9 PUSH1 0x41 SHL PUSH1 0x44 DUP3 ADD MSTORE PUSH1 0x64 ADD PUSH2 0x371 JUMP JUMPDEST PUSH1 0x1 PUSH1 0x1 PUSH1 0xA0 SHL SUB DUP3 AND PUSH2 0x103D JUMPI CALLVALUE PUSH1 0x64 PUSH1 0x8 SLOAD DUP6 PUSH2 0x1010 SWAP2 SWAP1 PUSH2 0x4069 JUMP JUMPDEST PUSH2 0x101A SWAP2 SWAP1 PUSH2 0x4088 JUMP JUMPDEST GT ISZERO PUSH2 0x1038 JUMPI PUSH1 0x40 MLOAD PUSH3 0x461BCD PUSH1 0xE5 SHL DUP2 MSTORE PUSH1 0x4 ADD PUSH2 0x371 SWAP1 PUSH2 0x409C JUMP JUMPDEST PUSH2 0x1062 JUMP JUMPDEST PUSH2 0x1046 DUP3 PUSH2 0x2DB3 JUMP JUMPDEST PUSH2 0x1062 JUMPI PUSH1 0x40 MLOAD PUSH3 0x461BCD PUSH1 0xE5 SHL DUP2 MSTORE PUSH1 0x4 ADD PUSH2 0x371 SWAP1 PUSH2 0x40E0 JUMP JUMPDEST PUSH1 0x0 PUSH2 0x106D DUP6 PUSH2 0x2E74 JUMP JUMPDEST PUSH5 0xFFFFFFFFFF DUP2 AND PUSH1 0x0 SWAP1 DUP2 MSTORE PUSH1 0x2 PUSH1 0x20 MSTORE PUSH1 0x40 DUP2 KECCAK256 SWAP2 SWAP3 POP PUSH2 0x1093 CALLER DUP10 DUP8 DUP7 DUP11 PUSH2 0x3419 JUMP JUMPDEST DUP3 SLOAD PUSH1 0x1 DUP1 DUP3 ADD DUP6 SSTORE PUSH1 0x0 DUP6 DUP2 MSTORE PUSH1 0x20 SWAP1 DUP2 SWAP1 KECCAK256 DUP5 MLOAD PUSH1 0x5 SWAP1 SWAP5 MUL ADD SWAP3 DUP4 SSTORE DUP4 DUP2 ADD MLOAD SWAP2 DUP4 ADD DUP1 SLOAD PUSH1 0x1 PUSH1 0x1 PUSH1 0xA0 SHL SUB NOT SWAP1 DUP2 AND PUSH1 0x1 PUSH1 0x1 PUSH1 0xA0 SHL SUB SWAP5 DUP6 AND OR SWAP1 SWAP2 SSTORE PUSH1 0x40 DUP1 DUP7 ADD MLOAD PUSH1 0x2 DUP7 ADD DUP1 SLOAD SWAP1 SWAP4 AND SWAP1 DUP6 AND OR SWAP1 SWAP2 SSTORE PUSH1 0x60 DUP1 DUP7 ADD MLOAD PUSH1 0x3 DUP7 ADD DUP1 SLOAD PUSH1 0x80 DUP1 DUP11 ADD MLOAD PUSH1 0xA0 DUP12 ADD MLOAD PUSH1 0xC0 DUP13 ADD MLOAD SWAP6 DUP11 AND PUSH1 0x1 PUSH1 0x1 PUSH1 0xC8 SHL SUB NOT SWAP1 SWAP5 AND SWAP4 SWAP1 SWAP4 OR PUSH1 0x1 PUSH1 0xA0 SHL PUSH5 0xFFFFFFFFFF SWAP3 DUP4 AND MUL OR PUSH2 0xFFFF PUSH1 0xC8 SHL NOT AND PUSH1 0x1 PUSH1 0xC8 SHL SWAP4 ISZERO ISZERO SWAP4 SWAP1 SWAP4 MUL PUSH1 0xFF PUSH1 0xD0 SHL NOT AND SWAP3 SWAP1 SWAP3 OR PUSH1 0x1 PUSH1 0xD0 SHL SWAP5 ISZERO ISZERO SWAP5 SWAP1 SWAP5 MUL SWAP4 SWAP1 SWAP4 OR SWAP1 SWAP2 SSTORE PUSH1 0xE0 DUP9 ADD MLOAD PUSH1 0x4 SWAP1 SWAP8 ADD SWAP7 SWAP1 SWAP7 SSTORE DUP3 MLOAD CALLER DUP2 MSTORE SWAP5 DUP16 AND SWAP4 DUP6 ADD SWAP4 SWAP1 SWAP4 MSTORE SWAP4 DUP9 AND SWAP1 DUP4 ADD MSTORE SWAP2 DUP2 ADD DUP10 SWAP1 MSTORE SWAP2 SWAP3 POP PUSH32 0x6E643CB89831CD75DED50B4ECEE0E313701B6002FC48E8B80A3C05447AB066E8 SWAP2 ADD PUSH1 0x40 MLOAD DUP1 SWAP2 SUB SWAP1 LOG1 PUSH32 0x2844C95BF1B4598DA931D527F903501ABC60FE0199C65DA52D5CE818C6C5E961 PUSH1 0x40 MLOAD PUSH2 0x11FD SWAP1 PUSH1 0x20 DUP1 DUP3 MSTORE PUSH1 0x6 SWAP1 DUP3 ADD MSTORE PUSH6 0x141D5CDA1959 PUSH1 0xD2 SHL PUSH1 0x40 DUP3 ADD MSTORE PUSH1 0x60 ADD SWAP1 JUMP JUMPDEST PUSH1 0x40 MLOAD DUP1 SWAP2 SUB SWAP1 LOG1 DUP1 MLOAD PUSH1 0x3 DUP1 SLOAD PUSH1 0x1 DUP2 ADD SWAP1 SWAP2 SSTORE PUSH32 0xC2575A0E9E593C00F959F8C92F12DB2869C3395A3B0502D05E2516446F71F85B ADD SSTORE PUSH5 0xFFFFFFFFFF DUP4 AND PUSH1 0x0 SWAP1 DUP2 MSTORE PUSH1 0x2 PUSH1 0x20 MSTORE PUSH1 0x40 SWAP1 KECCAK256 DUP3 SLOAD PUSH2 0x1259 SWAP2 SWAP1 DUP5 SWAP1 PUSH2 0x38AF JUMP JUMPDEST POP PUSH2 0x1264 DUP4 DUP7 PUSH2 0x34C9 JUMP JUMPDEST CALLER PUSH1 0x0 SWAP1 DUP2 MSTORE PUSH1 0x4 PUSH1 0x20 SWAP1 DUP2 MSTORE PUSH1 0x40 DUP1 DUP4 KECCAK256 PUSH1 0x1 PUSH1 0x1 PUSH1 0xA0 SHL SUB DUP10 AND DUP5 MSTORE SWAP1 SWAP2 MSTORE DUP2 KECCAK256 DUP1 SLOAD DUP9 SWAP3 SWAP1 PUSH2 0x1297 SWAP1 DUP5 SWAP1 PUSH2 0x3F95 JUMP JUMPDEST SWAP1 SWAP2 SSTORE POP POP PUSH1 0x1 PUSH1 0x1 PUSH1 0xA0 SHL SUB DUP6 AND ISZERO PUSH2 0x144A JUMPI PUSH1 0x1 PUSH1 0x1 PUSH1 0xA0 SHL SUB DUP6 AND PUSH4 0xD505ACCF PUSH2 0x12C7 PUSH1 0x20 DUP8 ADD DUP8 PUSH2 0x3AE4 JUMP JUMPDEST PUSH2 0x12D7 PUSH1 0x40 DUP9 ADD PUSH1 0x20 DUP10 ADD PUSH2 0x3AE4 JUMP JUMPDEST PUSH1 0x40 DUP9 ADD CALLDATALOAD PUSH1 0x60 DUP10 ADD CALLDATALOAD PUSH2 0x12F1 PUSH1 0xA0 DUP12 ADD PUSH1 0x80 DUP13 ADD PUSH2 0x4125 JUMP JUMPDEST PUSH1 0x40 MLOAD PUSH1 0x1 PUSH1 0x1 PUSH1 0xE0 SHL SUB NOT PUSH1 0xE0 DUP9 SWAP1 SHL AND DUP2 MSTORE PUSH1 0x1 PUSH1 0x1 PUSH1 0xA0 SHL SUB SWAP6 DUP7 AND PUSH1 0x4 DUP3 ADD MSTORE SWAP5 SWAP1 SWAP4 AND PUSH1 0x24 DUP6 ADD MSTORE PUSH1 0x44 DUP5 ADD SWAP2 SWAP1 SWAP2 MSTORE PUSH1 0x64 DUP4 ADD MSTORE PUSH1 0xFF AND PUSH1 0x84 DUP3 ADD MSTORE PUSH1 0xA0 DUP8 ADD CALLDATALOAD PUSH1 0xA4 DUP3 ADD MSTORE PUSH1 0xC0 DUP8 ADD CALLDATALOAD PUSH1 0xC4 DUP3 ADD MSTORE PUSH1 0xE4 ADD PUSH1 0x0 PUSH1 0x40 MLOAD DUP1 DUP4 SUB DUP2 PUSH1 0x0 DUP8 DUP1 EXTCODESIZE ISZERO DUP1 ISZERO PUSH2 0x1364 JUMPI PUSH1 0x0 DUP1 REVERT JUMPDEST POP GAS CALL ISZERO DUP1 ISZERO PUSH2 0x1378 JUMPI RETURNDATASIZE PUSH1 0x0 DUP1 RETURNDATACOPY RETURNDATASIZE PUSH1 0x0 REVERT JUMPDEST POP POP PUSH1 0x40 MLOAD PUSH4 0x23B872DD PUSH1 0xE0 SHL DUP2 MSTORE PUSH1 0x1 PUSH1 0x1 PUSH1 0xA0 SHL SUB DUP9 AND SWAP3 POP PUSH4 0x23B872DD SWAP2 POP PUSH2 0x13AC SWAP1 CALLER SWAP1 ADDRESS SWAP1 DUP12 SWAP1 PUSH1 0x4 ADD PUSH2 0x4148 JUMP JUMPDEST PUSH1 0x20 PUSH1 0x40 MLOAD DUP1 DUP4 SUB DUP2 PUSH1 0x0 DUP8 DUP1 EXTCODESIZE ISZERO DUP1 ISZERO PUSH2 0x13C6 JUMPI PUSH1 0x0 DUP1 REVERT JUMPDEST POP GAS CALL ISZERO DUP1 ISZERO PUSH2 0x13DA JUMPI RETURNDATASIZE PUSH1 0x0 DUP1 RETURNDATACOPY RETURNDATASIZE PUSH1 0x0 REVERT JUMPDEST POP POP POP POP PUSH1 0x40 MLOAD RETURNDATASIZE PUSH1 0x1F NOT PUSH1 0x1F DUP3 ADD AND DUP3 ADD DUP1 PUSH1 0x40 MSTORE POP DUP2 ADD SWAP1 PUSH2 0x13FE SWAP2 SWAP1 PUSH2 0x416C JUMP JUMPDEST PUSH2 0x144A JUMPI PUSH1 0x40 MLOAD PUSH3 0x461BCD PUSH1 0xE5 SHL DUP2 MSTORE PUSH1 0x20 PUSH1 0x4 DUP3 ADD MSTORE PUSH1 0x1A PUSH1 0x24 DUP3 ADD MSTORE PUSH32 0x50726F626C656D207472616E7366657272696E6720746F6B656E000000000000 PUSH1 0x44 DUP3 ADD MSTORE PUSH1 0x64 ADD PUSH2 0x371 JUMP JUMPDEST POP POP POP JUMPDEST POP POP POP POP POP JUMP JUMPDEST PUSH1 0x5 SLOAD PUSH1 0x60 SWAP1 PUSH1 0x1 PUSH1 0x1 PUSH1 0xA0 SHL SUB AND CALLER EQ PUSH2 0x1482 JUMPI PUSH1 0x40 MLOAD PUSH3 0x461BCD PUSH1 0xE5 SHL DUP2 MSTORE PUSH1 0x4 ADD PUSH2 0x371 SWAP1 PUSH2 0x3F00 JUMP JUMPDEST PUSH1 0x1 SLOAD PUSH1 0x0 SWAP1 PUSH8 0xFFFFFFFFFFFFFFFF DUP2 GT ISZERO PUSH2 0x14A0 JUMPI PUSH2 0x14A0 PUSH2 0x3D69 JUMP JUMPDEST PUSH1 0x40 MLOAD SWAP1 DUP1 DUP3 MSTORE DUP1 PUSH1 0x20 MUL PUSH1 0x20 ADD DUP3 ADD PUSH1 0x40 MSTORE DUP1 ISZERO PUSH2 0x14F4 JUMPI DUP2 PUSH1 0x20 ADD JUMPDEST PUSH1 0x40 DUP1 MLOAD PUSH1 0x80 DUP2 ADD DUP3 MSTORE PUSH1 0x0 DUP1 DUP3 MSTORE PUSH1 0x20 DUP3 ADD MSTORE PUSH1 0x60 SWAP2 DUP2 ADD DUP3 SWAP1 MSTORE DUP2 DUP2 ADD SWAP2 SWAP1 SWAP2 MSTORE DUP2 MSTORE PUSH1 0x20 ADD SWAP1 PUSH1 0x1 SWAP1 SUB SWAP1 DUP2 PUSH2 0x14BE JUMPI SWAP1 POP JUMPDEST POP SWAP1 POP PUSH1 0x0 JUMPDEST PUSH1 0x1 SLOAD DUP2 LT ISZERO PUSH2 0x1676 JUMPI PUSH1 0x0 DUP1 PUSH1 0x1 DUP4 DUP2 SLOAD DUP2 LT PUSH2 0x151A JUMPI PUSH2 0x151A PUSH2 0x3F37 JUMP JUMPDEST PUSH1 0x0 SWAP2 DUP3 MSTORE PUSH1 0x20 DUP1 DUP4 KECCAK256 SWAP2 SWAP1 SWAP2 ADD SLOAD PUSH1 0x1 PUSH1 0x1 PUSH1 0xA0 SHL SUB SWAP1 DUP2 AND DUP5 MSTORE DUP4 DUP3 ADD SWAP5 SWAP1 SWAP5 MSTORE PUSH1 0x40 SWAP3 DUP4 ADD SWAP1 SWAP2 KECCAK256 DUP3 MLOAD PUSH1 0x80 DUP2 ADD DUP5 MSTORE DUP2 SLOAD SWAP5 DUP6 AND DUP2 MSTORE PUSH1 0x1 PUSH1 0xA0 SHL SWAP1 SWAP5 DIV PUSH1 0xFF AND ISZERO ISZERO DUP5 DUP4 ADD MSTORE PUSH1 0x1 DUP2 ADD DUP1 SLOAD DUP5 MLOAD DUP2 DUP6 MUL DUP2 ADD DUP6 ADD DUP7 MSTORE DUP2 DUP2 MSTORE SWAP3 SWAP5 DUP7 ADD SWAP4 DUP4 ADD DUP3 DUP3 DUP1 ISZERO PUSH2 0x15DB JUMPI PUSH1 0x20 MUL DUP3 ADD SWAP2 SWAP1 PUSH1 0x0 MSTORE PUSH1 0x20 PUSH1 0x0 KECCAK256 SWAP1 PUSH1 0x0 SWAP1 JUMPDEST DUP3 DUP3 SWAP1 SLOAD SWAP1 PUSH2 0x100 EXP SWAP1 DIV PUSH5 0xFFFFFFFFFF AND PUSH5 0xFFFFFFFFFF AND DUP2 MSTORE PUSH1 0x20 ADD SWAP1 PUSH1 0x5 ADD SWAP1 PUSH1 0x20 DUP3 PUSH1 0x4 ADD DIV SWAP3 DUP4 ADD SWAP3 PUSH1 0x1 SUB DUP3 MUL SWAP2 POP DUP1 DUP5 GT PUSH2 0x159C JUMPI SWAP1 POP JUMPDEST POP POP POP POP POP DUP2 MSTORE PUSH1 0x20 ADD PUSH1 0x2 DUP3 ADD DUP1 SLOAD DUP1 PUSH1 0x20 MUL PUSH1 0x20 ADD PUSH1 0x40 MLOAD SWAP1 DUP2 ADD PUSH1 0x40 MSTORE DUP1 SWAP3 SWAP2 SWAP1 DUP2 DUP2 MSTORE PUSH1 0x20 ADD DUP3 DUP1 SLOAD DUP1 ISZERO PUSH2 0x163D JUMPI PUSH1 0x20 MUL DUP3 ADD SWAP2 SWAP1 PUSH1 0x0 MSTORE PUSH1 0x20 PUSH1 0x0 KECCAK256 SWAP1 JUMPDEST DUP2 SLOAD PUSH1 0x1 PUSH1 0x1 PUSH1 0xA0 SHL SUB AND DUP2 MSTORE PUSH1 0x1 SWAP1 SWAP2 ADD SWAP1 PUSH1 0x20 ADD DUP1 DUP4 GT PUSH2 0x161F JUMPI JUMPDEST POP POP POP POP POP DUP2 MSTORE POP POP DUP3 DUP3 DUP2 MLOAD DUP2 LT PUSH2 0x1658 JUMPI PUSH2 0x1658 PUSH2 0x3F37 JUMP JUMPDEST PUSH1 0x20 MUL PUSH1 0x20 ADD ADD DUP2 SWAP1 MSTORE POP DUP1 DUP1 PUSH2 0x166E SWAP1 PUSH2 0x3F63 JUMP JUMPDEST SWAP2 POP POP PUSH2 0x14FA JUMP JUMPDEST POP SWAP1 POP SWAP1 JUMP JUMPDEST PUSH1 0x7 SLOAD PUSH1 0xFF AND PUSH2 0x22AA JUMPI PUSH1 0x1 DUP2 MLOAD GT DUP1 ISZERO PUSH2 0x1698 JUMPI POP PUSH1 0x64 DUP2 MLOAD LT JUMPDEST PUSH2 0x170A JUMPI PUSH1 0x40 MLOAD PUSH3 0x461BCD PUSH1 0xE5 SHL DUP2 MSTORE PUSH1 0x20 PUSH1 0x4 DUP3 ADD MSTORE PUSH1 0x3B PUSH1 0x24 DUP3 ADD MSTORE PUSH32 0x4261746368206D7573742068617665206D6F7265207468616E206F6E65207472 PUSH1 0x44 DUP3 ADD MSTORE PUSH32 0x616E73616374696F6E20616E64206C657373207468616E203130300000000000 PUSH1 0x64 DUP3 ADD MSTORE PUSH1 0x84 ADD PUSH2 0x371 JUMP JUMPDEST PUSH2 0x172E PUSH1 0x40 MLOAD DUP1 PUSH1 0x60 ADD PUSH1 0x40 MSTORE DUP1 PUSH1 0x0 DUP2 MSTORE PUSH1 0x20 ADD PUSH1 0x0 DUP2 MSTORE PUSH1 0x20 ADD PUSH1 0x0 DUP2 MSTORE POP SWAP1 JUMP JUMPDEST CALLER PUSH1 0x0 SWAP1 DUP2 MSTORE PUSH1 0x20 DUP2 DUP2 MSTORE PUSH1 0x40 DUP1 DUP4 KECCAK256 PUSH1 0x1 DUP2 ADD DUP1 SLOAD DUP4 MLOAD DUP2 DUP7 MUL DUP2 ADD DUP7 ADD SWAP1 SWAP5 MSTORE DUP1 DUP5 MSTORE SWAP2 SWAP5 SWAP4 SWAP1 SWAP2 SWAP1 DUP4 ADD DUP3 DUP3 DUP1 ISZERO PUSH2 0x17B6 JUMPI PUSH1 0x20 MUL DUP3 ADD SWAP2 SWAP1 PUSH1 0x0 MSTORE PUSH1 0x20 PUSH1 0x0 KECCAK256 SWAP1 PUSH1 0x0 SWAP1 JUMPDEST DUP3 DUP3 SWAP1 SLOAD SWAP1 PUSH2 0x100 EXP SWAP1 DIV PUSH5 0xFFFFFFFFFF AND PUSH5 0xFFFFFFFFFF AND DUP2 MSTORE PUSH1 0x20 ADD SWAP1 PUSH1 0x5 ADD SWAP1 PUSH1 0x20 DUP3 PUSH1 0x4 ADD DIV SWAP3 DUP4 ADD SWAP3 PUSH1 0x1 SUB DUP3 MUL SWAP2 POP DUP1 DUP5 GT PUSH2 0x1777 JUMPI SWAP1 POP JUMPDEST POP POP POP POP POP SWAP1 POP PUSH1 0x0 PUSH1 0x6 DUP1 SLOAD SWAP1 POP PUSH8 0xFFFFFFFFFFFFFFFF DUP2 GT ISZERO PUSH2 0x17DD JUMPI PUSH2 0x17DD PUSH2 0x3D69 JUMP JUMPDEST PUSH1 0x40 MLOAD SWAP1 DUP1 DUP3 MSTORE DUP1 PUSH1 0x20 MUL PUSH1 0x20 ADD DUP3 ADD PUSH1 0x40 MSTORE DUP1 ISZERO PUSH2 0x1806 JUMPI DUP2 PUSH1 0x20 ADD PUSH1 0x20 DUP3 MUL DUP1 CALLDATASIZE DUP4 CALLDATACOPY ADD SWAP1 POP JUMPDEST POP PUSH1 0x1 DUP5 ADD SLOAD SWAP1 SWAP2 POP PUSH1 0x0 SWAP1 PUSH2 0x181D SWAP1 PUSH1 0x64 PUSH2 0x3F95 JUMP JUMPDEST PUSH8 0xFFFFFFFFFFFFFFFF DUP2 GT ISZERO PUSH2 0x1835 JUMPI PUSH2 0x1835 PUSH2 0x3D69 JUMP JUMPDEST PUSH1 0x40 MLOAD SWAP1 DUP1 DUP3 MSTORE DUP1 PUSH1 0x20 MUL PUSH1 0x20 ADD DUP3 ADD PUSH1 0x40 MSTORE DUP1 ISZERO PUSH2 0x185E JUMPI DUP2 PUSH1 0x20 ADD PUSH1 0x20 DUP3 MUL DUP1 CALLDATASIZE DUP4 CALLDATACOPY ADD SWAP1 POP JUMPDEST POP SWAP1 POP PUSH1 0x0 JUMPDEST DUP7 MLOAD DUP2 LT ISZERO PUSH2 0x1B36 JUMPI TIMESTAMP DUP8 DUP3 DUP2 MLOAD DUP2 LT PUSH2 0x1880 JUMPI PUSH2 0x1880 PUSH2 0x3F37 JUMP JUMPDEST PUSH1 0x20 MUL PUSH1 0x20 ADD ADD MLOAD PUSH1 0x20 ADD MLOAD PUSH5 0xFFFFFFFFFF AND GT PUSH2 0x18E0 JUMPI PUSH1 0x40 MLOAD PUSH3 0x461BCD PUSH1 0xE5 SHL DUP2 MSTORE PUSH1 0x20 PUSH1 0x4 DUP3 ADD MSTORE PUSH1 0x1F PUSH1 0x24 DUP3 ADD MSTORE PUSH32 0x54696D652064617461206D75737420626520696E207468652066757475726500 PUSH1 0x44 DUP3 ADD MSTORE PUSH1 0x64 ADD PUSH2 0x371 JUMP JUMPDEST PUSH2 0xE10 DUP8 DUP3 DUP2 MLOAD DUP2 LT PUSH2 0x18F5 JUMPI PUSH2 0x18F5 PUSH2 0x3F37 JUMP JUMPDEST PUSH1 0x20 MUL PUSH1 0x20 ADD ADD MLOAD PUSH1 0x20 ADD MLOAD PUSH2 0x190B SWAP2 SWAP1 PUSH2 0x4045 JUMP JUMPDEST PUSH5 0xFFFFFFFFFF AND ISZERO PUSH2 0x195A JUMPI PUSH1 0x40 MLOAD PUSH3 0x461BCD PUSH1 0xE5 SHL DUP2 MSTORE PUSH1 0x20 PUSH1 0x4 DUP3 ADD MSTORE PUSH1 0x18 PUSH1 0x24 DUP3 ADD MSTORE PUSH24 0x2A34B6B29036BAB9BA1031329037B7103A3432903437BAB9 PUSH1 0x41 SHL PUSH1 0x44 DUP3 ADD MSTORE PUSH1 0x64 ADD PUSH2 0x371 JUMP JUMPDEST PUSH1 0x0 PUSH2 0x1982 DUP9 DUP4 DUP2 MLOAD DUP2 LT PUSH2 0x1971 JUMPI PUSH2 0x1971 PUSH2 0x3F37 JUMP JUMPDEST PUSH1 0x20 MUL PUSH1 0x20 ADD ADD MLOAD PUSH1 0x20 ADD MLOAD PUSH2 0x2E74 JUMP JUMPDEST SWAP1 POP PUSH2 0x198E DUP2 DUP5 PUSH2 0x37AD JUMP JUMPDEST PUSH2 0x19DC JUMPI DUP1 DUP4 DUP9 PUSH1 0x40 ADD MLOAD DUP2 MLOAD DUP2 LT PUSH2 0x19A9 JUMPI PUSH2 0x19A9 PUSH2 0x3F37 JUMP JUMPDEST PUSH1 0x20 MUL PUSH1 0x20 ADD ADD SWAP1 PUSH5 0xFFFFFFFFFF AND SWAP1 DUP2 PUSH5 0xFFFFFFFFFF AND DUP2 MSTORE POP POP PUSH1 0x1 DUP8 PUSH1 0x40 ADD DUP2 DUP2 MLOAD PUSH2 0x19D8 SWAP2 SWAP1 PUSH2 0x3F95 JUMP JUMPDEST SWAP1 MSTORE POP JUMPDEST PUSH1 0x0 PUSH1 0x1 PUSH1 0x1 PUSH1 0xA0 SHL SUB AND DUP9 DUP4 DUP2 MLOAD DUP2 LT PUSH2 0x19F9 JUMPI PUSH2 0x19F9 PUSH2 0x3F37 JUMP JUMPDEST PUSH1 0x20 MUL PUSH1 0x20 ADD ADD MLOAD PUSH1 0x60 ADD MLOAD PUSH1 0x1 PUSH1 0x1 PUSH1 0xA0 SHL SUB AND EQ ISZERO PUSH2 0x1A4B JUMPI DUP8 DUP3 DUP2 MLOAD DUP2 LT PUSH2 0x1A26 JUMPI PUSH2 0x1A26 PUSH2 0x3F37 JUMP JUMPDEST PUSH1 0x20 MUL PUSH1 0x20 ADD ADD MLOAD PUSH1 0x40 ADD MLOAD DUP8 PUSH1 0x0 ADD DUP2 DUP2 MLOAD PUSH2 0x1A43 SWAP2 SWAP1 PUSH2 0x3F95 JUMP JUMPDEST SWAP1 MSTORE POP PUSH2 0x1B23 JUMP JUMPDEST PUSH2 0x1A71 DUP9 DUP4 DUP2 MLOAD DUP2 LT PUSH2 0x1A60 JUMPI PUSH2 0x1A60 PUSH2 0x3F37 JUMP JUMPDEST PUSH1 0x20 MUL PUSH1 0x20 ADD ADD MLOAD PUSH1 0x60 ADD MLOAD PUSH2 0x2DB3 JUMP JUMPDEST PUSH2 0x1A8D JUMPI PUSH1 0x40 MLOAD PUSH3 0x461BCD PUSH1 0xE5 SHL DUP2 MSTORE PUSH1 0x4 ADD PUSH2 0x371 SWAP1 PUSH2 0x40E0 JUMP JUMPDEST PUSH2 0x1AB4 DUP9 DUP4 DUP2 MLOAD DUP2 LT PUSH2 0x1AA2 JUMPI PUSH2 0x1AA2 PUSH2 0x3F37 JUMP JUMPDEST PUSH1 0x20 MUL PUSH1 0x20 ADD ADD MLOAD PUSH1 0x60 ADD MLOAD DUP6 PUSH2 0x380F JUMP JUMPDEST PUSH2 0x1B23 JUMPI DUP8 DUP3 DUP2 MLOAD DUP2 LT PUSH2 0x1ACA JUMPI PUSH2 0x1ACA PUSH2 0x3F37 JUMP JUMPDEST PUSH1 0x20 MUL PUSH1 0x20 ADD ADD MLOAD PUSH1 0x60 ADD MLOAD DUP5 DUP9 PUSH1 0x20 ADD MLOAD DUP2 MLOAD DUP2 LT PUSH2 0x1AEC JUMPI PUSH2 0x1AEC PUSH2 0x3F37 JUMP JUMPDEST PUSH1 0x20 MUL PUSH1 0x20 ADD ADD SWAP1 PUSH1 0x1 PUSH1 0x1 PUSH1 0xA0 SHL SUB AND SWAP1 DUP2 PUSH1 0x1 PUSH1 0x1 PUSH1 0xA0 SHL SUB AND DUP2 MSTORE POP POP PUSH1 0x1 DUP8 PUSH1 0x20 ADD DUP2 DUP2 MLOAD PUSH2 0x1B1F SWAP2 SWAP1 PUSH2 0x3F95 JUMP JUMPDEST SWAP1 MSTORE POP JUMPDEST POP DUP1 PUSH2 0x1B2E DUP2 PUSH2 0x3F63 JUMP JUMPDEST SWAP2 POP POP PUSH2 0x1864 JUMP JUMPDEST CALLVALUE PUSH1 0x64 PUSH1 0x8 SLOAD DUP9 PUSH1 0x0 ADD MLOAD PUSH2 0x1B4B SWAP2 SWAP1 PUSH2 0x4069 JUMP JUMPDEST PUSH2 0x1B55 SWAP2 SWAP1 PUSH2 0x4088 JUMP JUMPDEST GT ISZERO PUSH2 0x1B73 JUMPI PUSH1 0x40 MLOAD PUSH3 0x461BCD PUSH1 0xE5 SHL DUP2 MSTORE PUSH1 0x4 ADD PUSH2 0x371 SWAP1 PUSH2 0x409C JUMP JUMPDEST POP PUSH1 0x0 JUMPDEST DUP2 MLOAD DUP2 LT ISZERO PUSH2 0x1EBB JUMPI DUP2 DUP2 DUP2 MLOAD DUP2 LT PUSH2 0x1B92 JUMPI PUSH2 0x1B92 PUSH2 0x3F37 JUMP JUMPDEST PUSH1 0x20 MUL PUSH1 0x20 ADD ADD MLOAD PUSH5 0xFFFFFFFFFF AND PUSH1 0x0 EQ ISZERO PUSH2 0x1BAE JUMPI PUSH2 0x1EBB JUMP JUMPDEST PUSH1 0x0 PUSH1 0x2 PUSH1 0x0 DUP5 DUP5 DUP2 MLOAD DUP2 LT PUSH2 0x1BC6 JUMPI PUSH2 0x1BC6 PUSH2 0x3F37 JUMP JUMPDEST PUSH1 0x20 MUL PUSH1 0x20 ADD ADD MLOAD PUSH5 0xFFFFFFFFFF AND PUSH5 0xFFFFFFFFFF AND DUP2 MSTORE PUSH1 0x20 ADD SWAP1 DUP2 MSTORE PUSH1 0x20 ADD PUSH1 0x0 KECCAK256 SWAP1 POP PUSH1 0x0 JUMPDEST DUP9 MLOAD DUP2 PUSH2 0xFFFF AND LT ISZERO PUSH2 0x1DD2 JUMPI PUSH1 0x0 PUSH2 0x1C17 DUP11 DUP4 PUSH2 0xFFFF AND DUP2 MLOAD DUP2 LT PUSH2 0x1971 JUMPI PUSH2 0x1971 PUSH2 0x3F37 JUMP JUMPDEST SWAP1 POP DUP5 DUP5 DUP2 MLOAD DUP2 LT PUSH2 0x1C2B JUMPI PUSH2 0x1C2B PUSH2 0x3F37 JUMP JUMPDEST PUSH1 0x20 MUL PUSH1 0x20 ADD ADD MLOAD PUSH5 0xFFFFFFFFFF AND DUP2 PUSH5 0xFFFFFFFFFF AND EQ ISZERO PUSH2 0x1DBF JUMPI PUSH1 0x0 PUSH2 0x1CBA CALLER DUP13 DUP6 PUSH2 0xFFFF AND DUP2 MLOAD DUP2 LT PUSH2 0x1C64 JUMPI PUSH2 0x1C64 PUSH2 0x3F37 JUMP JUMPDEST PUSH1 0x20 MUL PUSH1 0x20 ADD ADD MLOAD PUSH1 0x0 ADD MLOAD DUP14 DUP7 PUSH2 0xFFFF AND DUP2 MLOAD DUP2 LT PUSH2 0x1C86 JUMPI PUSH2 0x1C86 PUSH2 0x3F37 JUMP JUMPDEST PUSH1 0x20 MUL PUSH1 0x20 ADD ADD MLOAD PUSH1 0x60 ADD MLOAD DUP6 DUP16 DUP9 PUSH2 0xFFFF AND DUP2 MLOAD DUP2 LT PUSH2 0x1CA9 JUMPI PUSH2 0x1CA9 PUSH2 0x3F37 JUMP JUMPDEST PUSH1 0x20 MUL PUSH1 0x20 ADD ADD MLOAD PUSH1 0x40 ADD MLOAD PUSH2 0x3419 JUMP JUMPDEST DUP5 SLOAD PUSH1 0x1 DUP2 DUP2 ADD DUP8 SSTORE PUSH1 0x0 DUP8 DUP2 MSTORE PUSH1 0x20 DUP1 DUP3 KECCAK256 DUP6 MLOAD PUSH1 0x5 SWAP1 SWAP6 MUL ADD DUP5 DUP2 SSTORE SWAP1 DUP6 ADD MLOAD DUP2 DUP5 ADD DUP1 SLOAD PUSH1 0x1 PUSH1 0x1 PUSH1 0xA0 SHL SUB SWAP3 DUP4 AND PUSH1 0x1 PUSH1 0x1 PUSH1 0xA0 SHL SUB NOT SWAP2 DUP3 AND OR SWAP1 SWAP2 SSTORE PUSH1 0x40 DUP8 ADD MLOAD PUSH1 0x2 DUP5 ADD DUP1 SLOAD SWAP2 DUP5 AND SWAP2 SWAP1 SWAP3 AND OR SWAP1 SSTORE PUSH1 0x60 DUP7 ADD MLOAD PUSH1 0x3 DUP1 DUP5 ADD DUP1 SLOAD PUSH1 0x80 DUP11 ADD MLOAD PUSH1 0xA0 DUP12 ADD MLOAD PUSH1 0xC0 DUP13 ADD MLOAD ISZERO ISZERO PUSH1 0x1 PUSH1 0xD0 SHL MUL PUSH1 0xFF PUSH1 0xD0 SHL NOT SWAP2 ISZERO ISZERO PUSH1 0x1 PUSH1 0xC8 SHL MUL SWAP2 SWAP1 SWAP2 AND PUSH2 0xFFFF PUSH1 0xC8 SHL NOT PUSH5 0xFFFFFFFFFF SWAP1 SWAP4 AND PUSH1 0x1 PUSH1 0xA0 SHL MUL PUSH1 0x1 PUSH1 0x1 PUSH1 0xC8 SHL SUB NOT SWAP1 SWAP5 AND SWAP7 SWAP1 SWAP8 AND SWAP6 SWAP1 SWAP6 OR SWAP2 SWAP1 SWAP2 OR AND SWAP4 SWAP1 SWAP4 OR SWAP2 SWAP1 SWAP2 OR SWAP1 SWAP2 SSTORE PUSH1 0xE0 SWAP1 SWAP6 ADD MLOAD PUSH1 0x4 SWAP1 SWAP2 ADD SSTORE DUP4 SLOAD SWAP2 DUP3 ADD DUP5 SSTORE SWAP3 SWAP1 SWAP3 MSTORE PUSH32 0xC2575A0E9E593C00F959F8C92F12DB2869C3395A3B0502D05E2516446F71F85B SWAP1 SWAP2 ADD SSTORE POP JUMPDEST POP DUP1 PUSH2 0x1DCA DUP2 PUSH2 0x418E JUMP JUMPDEST SWAP2 POP POP PUSH2 0x1BEF JUMP JUMPDEST POP DUP1 PUSH1 0x2 PUSH1 0x0 DUP6 DUP6 DUP2 MLOAD DUP2 LT PUSH2 0x1DEA JUMPI PUSH2 0x1DEA PUSH2 0x3F37 JUMP JUMPDEST PUSH1 0x20 MUL PUSH1 0x20 ADD ADD MLOAD PUSH5 0xFFFFFFFFFF AND PUSH5 0xFFFFFFFFFF AND DUP2 MSTORE PUSH1 0x20 ADD SWAP1 DUP2 MSTORE PUSH1 0x20 ADD PUSH1 0x0 KECCAK256 SWAP1 DUP1 SLOAD PUSH2 0x1E1C SWAP3 SWAP2 SWAP1 PUSH2 0x38AF JUMP JUMPDEST POP PUSH2 0x1E40 DUP4 DUP4 DUP2 MLOAD DUP2 LT PUSH2 0x1E32 JUMPI PUSH2 0x1E32 PUSH2 0x3F37 JUMP JUMPDEST PUSH1 0x20 MUL PUSH1 0x20 ADD ADD MLOAD DUP7 PUSH2 0x37AD JUMP JUMPDEST PUSH2 0x1EA8 JUMPI DUP3 DUP3 DUP2 MLOAD DUP2 LT PUSH2 0x1E56 JUMPI PUSH2 0x1E56 PUSH2 0x3F37 JUMP JUMPDEST PUSH1 0x20 MUL PUSH1 0x20 ADD ADD MLOAD DUP7 PUSH1 0x1 ADD PUSH1 0x1 DUP2 PUSH1 0x1 DUP2 SLOAD ADD DUP1 DUP3 SSTORE DUP1 SWAP2 POP POP SUB SWAP1 PUSH1 0x0 MSTORE PUSH1 0x20 PUSH1 0x0 KECCAK256 SWAP1 PUSH1 0x6 SWAP2 DUP3 DUP3 DIV ADD SWAP2 SWAP1 MOD PUSH1 0x5 MUL PUSH2 0x100 EXP DUP2 SLOAD DUP2 PUSH5 0xFFFFFFFFFF MUL NOT AND SWAP1 DUP4 PUSH5 0xFFFFFFFFFF AND MUL OR SWAP1 SSTORE POP JUMPDEST POP DUP1 PUSH2 0x1EB3 DUP2 PUSH2 0x3F63 JUMP JUMPDEST SWAP2 POP POP PUSH2 0x1B77 JUMP JUMPDEST PUSH1 0x0 DUP6 PUSH1 0x2 ADD DUP1 SLOAD DUP1 PUSH1 0x20 MUL PUSH1 0x20 ADD PUSH1 0x40 MLOAD SWAP1 DUP2 ADD PUSH1 0x40 MSTORE DUP1 SWAP3 SWAP2 SWAP1 DUP2 DUP2 MSTORE PUSH1 0x20 ADD DUP3 DUP1 SLOAD DUP1 ISZERO PUSH2 0x1F15 JUMPI PUSH1 0x20 MUL DUP3 ADD SWAP2 SWAP1 PUSH1 0x0 MSTORE PUSH1 0x20 PUSH1 0x0 KECCAK256 SWAP1 JUMPDEST DUP2 SLOAD PUSH1 0x1 PUSH1 0x1 PUSH1 0xA0 SHL SUB AND DUP2 MSTORE PUSH1 0x1 SWAP1 SWAP2 ADD SWAP1 PUSH1 0x20 ADD DUP1 DUP4 GT PUSH2 0x1EF7 JUMPI JUMPDEST POP POP POP POP POP SWAP1 POP PUSH1 0x0 SWAP2 POP JUMPDEST DUP4 MLOAD DUP3 LT ISZERO PUSH2 0x1FB6 JUMPI PUSH2 0x1F4D DUP5 DUP4 DUP2 MLOAD DUP2 LT PUSH2 0x1F3F JUMPI PUSH2 0x1F3F PUSH2 0x3F37 JUMP JUMPDEST PUSH1 0x20 MUL PUSH1 0x20 ADD ADD MLOAD DUP3 PUSH2 0x380F JUMP JUMPDEST PUSH2 0x1FA4 JUMPI DUP4 DUP3 DUP2 MLOAD DUP2 LT PUSH2 0x1F63 JUMPI PUSH2 0x1F63 PUSH2 0x3F37 JUMP JUMPDEST PUSH1 0x20 SWAP1 DUP2 MUL SWAP2 SWAP1 SWAP2 ADD DUP2 ADD MLOAD PUSH1 0x2 DUP9 ADD DUP1 SLOAD PUSH1 0x1 DUP2 ADD DUP3 SSTORE PUSH1 0x0 SWAP2 DUP3 MSTORE SWAP3 SWAP1 KECCAK256 SWAP1 SWAP2 ADD DUP1 SLOAD PUSH1 0x1 PUSH1 0x1 PUSH1 0xA0 SHL SUB NOT AND PUSH1 0x1 PUSH1 0x1 PUSH1 0xA0 SHL SUB SWAP1 SWAP3 AND SWAP2 SWAP1 SWAP2 OR SWAP1 SSTORE JUMPDEST DUP2 PUSH2 0x1FAE DUP2 PUSH2 0x3F63 JUMP JUMPDEST SWAP3 POP POP PUSH2 0x1F21 JUMP JUMPDEST CALLER PUSH1 0x0 SWAP1 DUP2 MSTORE PUSH1 0x20 DUP2 SWAP1 MSTORE PUSH1 0x40 SWAP1 KECCAK256 SLOAD PUSH1 0x1 PUSH1 0xA0 SHL SWAP1 DIV PUSH1 0xFF AND PUSH2 0x2033 JUMPI DUP6 SLOAD PUSH1 0x1 PUSH1 0x1 PUSH1 0xA0 SHL SUB NOT SWAP1 DUP2 AND CALLER SWAP1 DUP2 OR DUP9 SSTORE PUSH1 0x1 DUP1 SLOAD DUP1 DUP3 ADD DUP3 SSTORE PUSH1 0x0 SWAP2 SWAP1 SWAP2 MSTORE PUSH32 0xB10E2D527612073B26EECDFD717E6A320CF44B4AFAC2B0732D9FCBE2B7FA0CF6 ADD DUP1 SLOAD SWAP1 SWAP3 AND OR SWAP1 SSTORE DUP6 SLOAD PUSH1 0xFF PUSH1 0xA0 SHL NOT AND PUSH1 0x1 PUSH1 0xA0 SHL OR DUP7 SSTORE JUMPDEST CALLER PUSH1 0x0 SWAP1 DUP2 MSTORE PUSH1 0x20 DUP2 SWAP1 MSTORE PUSH1 0x40 SWAP1 KECCAK256 DUP7 SLOAD DUP2 SLOAD PUSH1 0x1 PUSH1 0x1 PUSH1 0xA0 SHL SUB SWAP1 SWAP2 AND PUSH1 0x1 PUSH1 0x1 PUSH1 0xA0 SHL SUB NOT DUP3 AND DUP2 OR DUP4 SSTORE DUP9 SLOAD PUSH1 0x1 PUSH1 0x1 PUSH1 0xA8 SHL SUB NOT SWAP1 SWAP3 AND OR PUSH1 0x1 PUSH1 0xA0 SHL SWAP2 DUP3 SWAP1 DIV PUSH1 0xFF AND ISZERO ISZERO SWAP1 SWAP2 MUL OR DUP2 SSTORE PUSH1 0x1 DUP1 DUP9 ADD DUP1 SLOAD DUP10 SWAP4 SWAP3 PUSH2 0x209A SWAP3 SWAP1 DUP5 ADD SWAP2 PUSH2 0x39D4 JUMP JUMPDEST POP PUSH1 0x2 DUP3 DUP2 ADD DUP1 SLOAD PUSH2 0x20AF SWAP3 DUP5 ADD SWAP2 SWAP1 PUSH2 0x3A2E JUMP JUMPDEST POP SWAP1 POP POP PUSH1 0x0 JUMPDEST DUP9 MLOAD DUP2 LT ISZERO PUSH2 0x22A1 JUMPI DUP9 DUP2 DUP2 MLOAD DUP2 LT PUSH2 0x20D1 JUMPI PUSH2 0x20D1 PUSH2 0x3F37 JUMP JUMPDEST PUSH1 0x20 MUL PUSH1 0x20 ADD ADD MLOAD PUSH1 0x40 ADD MLOAD PUSH1 0x4 PUSH1 0x0 CALLER PUSH1 0x1 PUSH1 0x1 PUSH1 0xA0 SHL SUB AND PUSH1 0x1 PUSH1 0x1 PUSH1 0xA0 SHL SUB AND DUP2 MSTORE PUSH1 0x20 ADD SWAP1 DUP2 MSTORE PUSH1 0x20 ADD PUSH1 0x0 KECCAK256 PUSH1 0x0 DUP12 DUP5 DUP2 MLOAD DUP2 LT PUSH2 0x2116 JUMPI PUSH2 0x2116 PUSH2 0x3F37 JUMP JUMPDEST PUSH1 0x20 MUL PUSH1 0x20 ADD ADD MLOAD PUSH1 0x60 ADD MLOAD PUSH1 0x1 PUSH1 0x1 PUSH1 0xA0 SHL SUB AND PUSH1 0x1 PUSH1 0x1 PUSH1 0xA0 SHL SUB AND DUP2 MSTORE PUSH1 0x20 ADD SWAP1 DUP2 MSTORE PUSH1 0x20 ADD PUSH1 0x0 KECCAK256 PUSH1 0x0 DUP3 DUP3 SLOAD PUSH2 0x2151 SWAP2 SWAP1 PUSH2 0x3F95 JUMP JUMPDEST SWAP1 SWAP2 SSTORE POP POP DUP9 MLOAD PUSH1 0x0 SWAP1 DUP11 SWAP1 DUP4 SWAP1 DUP2 LT PUSH2 0x216D JUMPI PUSH2 0x216D PUSH2 0x3F37 JUMP JUMPDEST PUSH1 0x20 MUL PUSH1 0x20 ADD ADD MLOAD PUSH1 0x60 ADD MLOAD PUSH1 0x1 PUSH1 0x1 PUSH1 0xA0 SHL SUB AND EQ PUSH2 0x228F JUMPI DUP9 DUP2 DUP2 MLOAD DUP2 LT PUSH2 0x2199 JUMPI PUSH2 0x2199 PUSH2 0x3F37 JUMP JUMPDEST PUSH1 0x20 MUL PUSH1 0x20 ADD ADD MLOAD PUSH1 0x60 ADD MLOAD PUSH1 0x1 PUSH1 0x1 PUSH1 0xA0 SHL SUB AND PUSH4 0x23B872DD CALLER ADDRESS DUP13 DUP6 DUP2 MLOAD DUP2 LT PUSH2 0x21C7 JUMPI PUSH2 0x21C7 PUSH2 0x3F37 JUMP JUMPDEST PUSH1 0x20 MUL PUSH1 0x20 ADD ADD MLOAD PUSH1 0x40 ADD MLOAD PUSH1 0x40 MLOAD DUP5 PUSH4 0xFFFFFFFF AND PUSH1 0xE0 SHL DUP2 MSTORE PUSH1 0x4 ADD PUSH2 0x21F1 SWAP4 SWAP3 SWAP2 SWAP1 PUSH2 0x4148 JUMP JUMPDEST PUSH1 0x20 PUSH1 0x40 MLOAD DUP1 DUP4 SUB DUP2 PUSH1 0x0 DUP8 DUP1 EXTCODESIZE ISZERO DUP1 ISZERO PUSH2 0x220B JUMPI PUSH1 0x0 DUP1 REVERT JUMPDEST POP GAS CALL ISZERO DUP1 ISZERO PUSH2 0x221F JUMPI RETURNDATASIZE PUSH1 0x0 DUP1 RETURNDATACOPY RETURNDATASIZE PUSH1 0x0 REVERT JUMPDEST POP POP POP POP PUSH1 0x40 MLOAD RETURNDATASIZE PUSH1 0x1F NOT PUSH1 0x1F DUP3 ADD AND DUP3 ADD DUP1 PUSH1 0x40 MSTORE POP DUP2 ADD SWAP1 PUSH2 0x2243 SWAP2 SWAP1 PUSH2 0x416C JUMP JUMPDEST PUSH2 0x228F JUMPI PUSH1 0x40 MLOAD PUSH3 0x461BCD PUSH1 0xE5 SHL DUP2 MSTORE PUSH1 0x20 PUSH1 0x4 DUP3 ADD MSTORE PUSH1 0x1A PUSH1 0x24 DUP3 ADD MSTORE PUSH32 0x50726F626C656D207472616E7366657272696E6720746F6B656E000000000000 PUSH1 0x44 DUP3 ADD MSTORE PUSH1 0x64 ADD PUSH2 0x371 JUMP JUMPDEST DUP1 PUSH2 0x2299 DUP2 PUSH2 0x3F63 JUMP JUMPDEST SWAP2 POP POP PUSH2 0x20B6 JUMP JUMPDEST POP POP POP POP POP POP POP POP JUMPDEST POP JUMP JUMPDEST PUSH1 0x5 SLOAD PUSH1 0x60 SWAP1 PUSH1 0x1 PUSH1 0x1 PUSH1 0xA0 SHL SUB AND CALLER EQ PUSH2 0x22DA JUMPI PUSH1 0x40 MLOAD PUSH3 0x461BCD PUSH1 0xE5 SHL DUP2 MSTORE PUSH1 0x4 ADD PUSH2 0x371 SWAP1 PUSH2 0x3F00 JUMP JUMPDEST PUSH1 0x1 PUSH1 0x1 PUSH1 0xA0 SHL SUB DUP3 AND PUSH1 0x0 SWAP1 DUP2 MSTORE PUSH1 0x20 DUP2 DUP2 MSTORE PUSH1 0x40 DUP1 DUP4 KECCAK256 PUSH1 0x1 ADD DUP1 SLOAD DUP3 MLOAD DUP2 DUP6 MUL DUP2 ADD DUP6 ADD SWAP1 SWAP4 MSTORE DUP1 DUP4 MSTORE SWAP2 SWAP3 SWAP1 SWAP2 SWAP1 DUP4 ADD DUP3 DUP3 DUP1 ISZERO PUSH2 0x2369 JUMPI PUSH1 0x20 MUL DUP3 ADD SWAP2 SWAP1 PUSH1 0x0 MSTORE PUSH1 0x20 PUSH1 0x0 KECCAK256 SWAP1 PUSH1 0x0 SWAP1 JUMPDEST DUP3 DUP3 SWAP1 SLOAD SWAP1 PUSH2 0x100 EXP SWAP1 DIV PUSH5 0xFFFFFFFFFF AND PUSH5 0xFFFFFFFFFF AND DUP2 MSTORE PUSH1 0x20 ADD SWAP1 PUSH1 0x5 ADD SWAP1 PUSH1 0x20 DUP3 PUSH1 0x4 ADD DIV SWAP3 DUP4 ADD SWAP3 PUSH1 0x1 SUB DUP3 MUL SWAP2 POP DUP1 DUP5 GT PUSH2 0x232A JUMPI SWAP1 POP JUMPDEST POP POP POP POP POP SWAP1 POP PUSH1 0x0 DUP1 JUMPDEST DUP3 MLOAD DUP2 LT ISZERO PUSH2 0x24A8 JUMPI PUSH1 0x0 PUSH1 0x2 PUSH1 0x0 DUP6 DUP5 DUP2 MLOAD DUP2 LT PUSH2 0x2395 JUMPI PUSH2 0x2395 PUSH2 0x3F37 JUMP JUMPDEST PUSH1 0x20 MUL PUSH1 0x20 ADD ADD MLOAD PUSH5 0xFFFFFFFFFF AND PUSH5 0xFFFFFFFFFF AND DUP2 MSTORE PUSH1 0x20 ADD SWAP1 DUP2 MSTORE PUSH1 0x20 ADD PUSH1 0x0 KECCAK256 DUP1 SLOAD DUP1 PUSH1 0x20 MUL PUSH1 0x20 ADD PUSH1 0x40 MLOAD SWAP1 DUP2 ADD PUSH1 0x40 MSTORE DUP1 SWAP3 SWAP2 SWAP1 DUP2 DUP2 MSTORE PUSH1 0x20 ADD PUSH1 0x0 SWAP1 JUMPDEST DUP3 DUP3 LT ISZERO PUSH2 0x247F JUMPI PUSH1 0x0 DUP5 DUP2 MSTORE PUSH1 0x20 SWAP1 DUP2 SWAP1 KECCAK256 PUSH1 0x40 DUP1 MLOAD PUSH2 0x100 DUP2 ADD DUP3 MSTORE PUSH1 0x5 DUP7 MUL SWAP1 SWAP3 ADD DUP1 SLOAD DUP4 MSTORE PUSH1 0x1 DUP1 DUP3 ADD SLOAD PUSH1 0x1 PUSH1 0x1 PUSH1 0xA0 SHL SUB SWAP1 DUP2 AND DUP6 DUP8 ADD MSTORE PUSH1 0x2 DUP4 ADD SLOAD DUP2 AND SWAP4 DUP6 ADD SWAP4 SWAP1 SWAP4 MSTORE PUSH1 0x3 DUP3 ADD SLOAD SWAP3 DUP4 AND PUSH1 0x60 DUP6 ADD MSTORE PUSH5 0xFFFFFFFFFF PUSH1 0x1 PUSH1 0xA0 SHL DUP5 DIV AND PUSH1 0x80 DUP6 ADD MSTORE PUSH1 0xFF PUSH1 0x1 PUSH1 0xC8 SHL DUP5 DIV DUP2 AND ISZERO ISZERO PUSH1 0xA0 DUP7 ADD MSTORE PUSH1 0x1 PUSH1 0xD0 SHL SWAP1 SWAP4 DIV SWAP1 SWAP3 AND ISZERO ISZERO PUSH1 0xC0 DUP5 ADD MSTORE PUSH1 0x4 ADD SLOAD PUSH1 0xE0 DUP4 ADD MSTORE SWAP1 DUP4 MSTORE SWAP1 SWAP3 ADD SWAP2 ADD PUSH2 0x23D9 JUMP JUMPDEST POP POP POP POP SWAP1 POP DUP1 MLOAD DUP4 PUSH2 0x2492 SWAP2 SWAP1 PUSH2 0x3F95 JUMP JUMPDEST SWAP3 POP POP DUP1 DUP1 PUSH2 0x24A0 SWAP1 PUSH2 0x3F63 JUMP JUMPDEST SWAP2 POP POP PUSH2 0x2374 JUMP JUMPDEST POP PUSH1 0x0 DUP2 PUSH8 0xFFFFFFFFFFFFFFFF DUP2 GT ISZERO PUSH2 0x24C4 JUMPI PUSH2 0x24C4 PUSH2 0x3D69 JUMP JUMPDEST PUSH1 0x40 MLOAD SWAP1 DUP1 DUP3 MSTORE DUP1 PUSH1 0x20 MUL PUSH1 0x20 ADD DUP3 ADD PUSH1 0x40 MSTORE DUP1 ISZERO PUSH2 0x24FD JUMPI DUP2 PUSH1 0x20 ADD JUMPDEST PUSH2 0x24EA PUSH2 0x386B JUMP JUMPDEST DUP2 MSTORE PUSH1 0x20 ADD SWAP1 PUSH1 0x1 SWAP1 SUB SWAP1 DUP2 PUSH2 0x24E2 JUMPI SWAP1 POP JUMPDEST POP SWAP1 POP PUSH1 0x0 DUP3 PUSH8 0xFFFFFFFFFFFFFFFF DUP2 GT ISZERO PUSH2 0x251B JUMPI PUSH2 0x251B PUSH2 0x3D69 JUMP JUMPDEST PUSH1 0x40 MLOAD SWAP1 DUP1 DUP3 MSTORE DUP1 PUSH1 0x20 MUL PUSH1 0x20 ADD DUP3 ADD PUSH1 0x40 MSTORE DUP1 ISZERO PUSH2 0x2554 JUMPI DUP2 PUSH1 0x20 ADD JUMPDEST PUSH2 0x2541 PUSH2 0x386B JUMP JUMPDEST DUP2 MSTORE PUSH1 0x20 ADD SWAP1 PUSH1 0x1 SWAP1 SUB SWAP1 DUP2 PUSH2 0x2539 JUMPI SWAP1 POP JUMPDEST POP SWAP1 POP PUSH1 0x0 DUP1 JUMPDEST DUP6 MLOAD DUP2 LT ISZERO PUSH2 0x2718 JUMPI PUSH1 0x2 PUSH1 0x0 DUP8 DUP4 DUP2 MLOAD DUP2 LT PUSH2 0x257A JUMPI PUSH2 0x257A PUSH2 0x3F37 JUMP JUMPDEST PUSH1 0x20 MUL PUSH1 0x20 ADD ADD MLOAD PUSH5 0xFFFFFFFFFF AND PUSH5 0xFFFFFFFFFF AND DUP2 MSTORE PUSH1 0x20 ADD SWAP1 DUP2 MSTORE PUSH1 0x20 ADD PUSH1 0x0 KECCAK256 DUP1 SLOAD DUP1 PUSH1 0x20 MUL PUSH1 0x20 ADD PUSH1 0x40 MLOAD SWAP1 DUP2 ADD PUSH1 0x40 MSTORE DUP1 SWAP3 SWAP2 SWAP1 DUP2 DUP2 MSTORE PUSH1 0x20 ADD PUSH1 0x0 SWAP1 JUMPDEST DUP3 DUP3 LT ISZERO PUSH2 0x2664 JUMPI PUSH1 0x0 DUP5 DUP2 MSTORE PUSH1 0x20 SWAP1 DUP2 SWAP1 KECCAK256 PUSH1 0x40 DUP1 MLOAD PUSH2 0x100 DUP2 ADD DUP3 MSTORE PUSH1 0x5 DUP7 MUL SWAP1 SWAP3 ADD DUP1 SLOAD DUP4 MSTORE PUSH1 0x1 DUP1 DUP3 ADD SLOAD PUSH1 0x1 PUSH1 0x1 PUSH1 0xA0 SHL SUB SWAP1 DUP2 AND DUP6 DUP8 ADD MSTORE PUSH1 0x2 DUP4 ADD SLOAD DUP2 AND SWAP4 DUP6 ADD SWAP4 SWAP1 SWAP4 MSTORE PUSH1 0x3 DUP3 ADD SLOAD SWAP3 DUP4 AND PUSH1 0x60 DUP6 ADD MSTORE PUSH5 0xFFFFFFFFFF PUSH1 0x1 PUSH1 0xA0 SHL DUP5 DIV AND PUSH1 0x80 DUP6 ADD MSTORE PUSH1 0xFF PUSH1 0x1 PUSH1 0xC8 SHL DUP5 DIV DUP2 AND ISZERO ISZERO PUSH1 0xA0 DUP7 ADD MSTORE PUSH1 0x1 PUSH1 0xD0 SHL SWAP1 SWAP4 DIV SWAP1 SWAP3 AND ISZERO ISZERO PUSH1 0xC0 DUP5 ADD MSTORE PUSH1 0x4 ADD SLOAD PUSH1 0xE0 DUP4 ADD MSTORE SWAP1 DUP4 MSTORE SWAP1 SWAP3 ADD SWAP2 ADD PUSH2 0x25BE JUMP JUMPDEST POP POP POP POP SWAP4 POP PUSH1 0x0 JUMPDEST DUP5 MLOAD DUP2 LT ISZERO PUSH2 0x2705 JUMPI DUP9 PUSH1 0x1 PUSH1 0x1 PUSH1 0xA0 SHL SUB AND DUP6 DUP3 DUP2 MLOAD DUP2 LT PUSH2 0x2692 JUMPI PUSH2 0x2692 PUSH2 0x3F37 JUMP JUMPDEST PUSH1 0x20 MUL PUSH1 0x20 ADD ADD MLOAD PUSH1 0x20 ADD MLOAD PUSH1 0x1 PUSH1 0x1 PUSH1 0xA0 SHL SUB AND EQ ISZERO PUSH2 0x26F3 JUMPI DUP5 DUP2 DUP2 MLOAD DUP2 LT PUSH2 0x26BF JUMPI PUSH2 0x26BF PUSH2 0x3F37 JUMP JUMPDEST PUSH1 0x20 MUL PUSH1 0x20 ADD ADD MLOAD DUP5 DUP5 DUP2 MLOAD DUP2 LT PUSH2 0x26D9 JUMPI PUSH2 0x26D9 PUSH2 0x3F37 JUMP JUMPDEST PUSH1 0x20 MUL PUSH1 0x20 ADD ADD DUP2 SWAP1 MSTORE POP DUP3 DUP1 PUSH2 0x26EF SWAP1 PUSH2 0x3F63 JUMP JUMPDEST SWAP4 POP POP JUMPDEST DUP1 PUSH2 0x26FD DUP2 PUSH2 0x3F63 JUMP JUMPDEST SWAP2 POP POP PUSH2 0x266D JUMP JUMPDEST POP DUP1 PUSH2 0x2710 DUP2 PUSH2 0x3F63 JUMP JUMPDEST SWAP2 POP POP PUSH2 0x255B JUMP JUMPDEST POP PUSH1 0x0 JUMPDEST DUP3 MLOAD DUP2 LT ISZERO PUSH2 0x2778 JUMPI PUSH2 0x273A DUP4 DUP3 DUP2 MLOAD DUP2 LT PUSH2 0xEDC JUMPI PUSH2 0xEDC PUSH2 0x3F37 JUMP JUMPDEST DUP4 DUP3 DUP2 MLOAD DUP2 LT PUSH2 0x274C JUMPI PUSH2 0x274C PUSH2 0x3F37 JUMP JUMPDEST PUSH1 0x20 SWAP1 DUP2 MUL SWAP2 SWAP1 SWAP2 ADD ADD MLOAD PUSH5 0xFFFFFFFFFF SWAP1 SWAP2 AND PUSH1 0x80 SWAP1 SWAP2 ADD MSTORE DUP1 PUSH2 0x2770 DUP2 PUSH2 0x3F63 JUMP JUMPDEST SWAP2 POP POP PUSH2 0x271C JUMP JUMPDEST POP SWAP1 SWAP5 POP POP POP POP POP JUMPDEST SWAP2 SWAP1 POP JUMP JUMPDEST PUSH1 0x5 SLOAD PUSH1 0x0 SWAP1 PUSH1 0x1 PUSH1 0x1 PUSH1 0xA0 SHL SUB AND CALLER EQ PUSH2 0x27B3 JUMPI PUSH1 0x40 MLOAD PUSH3 0x461BCD PUSH1 0xE5 SHL DUP2 MSTORE PUSH1 0x4 ADD PUSH2 0x371 SWAP1 PUSH2 0x3F00 JUMP JUMPDEST PUSH1 0x0 PUSH2 0x27BE TIMESTAMP PUSH2 0x2E74 JUMP JUMPDEST PUSH1 0x9 SLOAD SWAP1 SWAP2 POP PUSH5 0xFFFFFFFFFF SWAP1 DUP2 AND SWAP1 DUP3 AND GT PUSH2 0x27ED JUMPI PUSH1 0x40 MLOAD PUSH3 0x461BCD PUSH1 0xE5 SHL DUP2 MSTORE PUSH1 0x4 ADD PUSH2 0x371 SWAP1 PUSH2 0x3FC3 JUMP JUMPDEST PUSH1 0x9 SLOAD PUSH5 0xFFFFFFFFFF AND JUMPDEST DUP2 PUSH5 0xFFFFFFFFFF AND DUP2 PUSH5 0xFFFFFFFFFF AND GT PUSH2 0x2914 JUMPI PUSH5 0xFFFFFFFFFF DUP2 AND PUSH1 0x0 SWAP1 DUP2 MSTORE PUSH1 0x2 PUSH1 0x20 SWAP1 DUP2 MSTORE PUSH1 0x40 DUP1 DUP4 KECCAK256 DUP1 SLOAD DUP3 MLOAD DUP2 DUP6 MUL DUP2 ADD DUP6 ADD SWAP1 SWAP4 MSTORE DUP1 DUP4 MSTORE SWAP2 SWAP3 SWAP1 SWAP2 SWAP1 DUP5 SWAP1 DUP5 ADD JUMPDEST DUP3 DUP3 LT ISZERO PUSH2 0x28E7 JUMPI PUSH1 0x0 DUP5 DUP2 MSTORE PUSH1 0x20 SWAP1 DUP2 SWAP1 KECCAK256 PUSH1 0x40 DUP1 MLOAD PUSH2 0x100 DUP2 ADD DUP3 MSTORE PUSH1 0x5 DUP7 MUL SWAP1 SWAP3 ADD DUP1 SLOAD DUP4 MSTORE PUSH1 0x1 DUP1 DUP3 ADD SLOAD PUSH1 0x1 PUSH1 0x1 PUSH1 0xA0 SHL SUB SWAP1 DUP2 AND DUP6 DUP8 ADD MSTORE PUSH1 0x2 DUP4 ADD SLOAD DUP2 AND SWAP4 DUP6 ADD SWAP4 SWAP1 SWAP4 MSTORE PUSH1 0x3 DUP3 ADD SLOAD SWAP3 DUP4 AND PUSH1 0x60 DUP6 ADD MSTORE PUSH5 0xFFFFFFFFFF PUSH1 0x1 PUSH1 0xA0 SHL DUP5 DIV AND PUSH1 0x80 DUP6 ADD MSTORE PUSH1 0xFF PUSH1 0x1 PUSH1 0xC8 SHL DUP5 DIV DUP2 AND ISZERO ISZERO PUSH1 0xA0 DUP7 ADD MSTORE PUSH1 0x1 PUSH1 0xD0 SHL SWAP1 SWAP4 DIV SWAP1 SWAP3 AND ISZERO ISZERO PUSH1 0xC0 DUP5 ADD MSTORE PUSH1 0x4 ADD SLOAD PUSH1 0xE0 DUP4 ADD MSTORE SWAP1 DUP4 MSTORE SWAP1 SWAP3 ADD SWAP2 ADD PUSH2 0x2841 JUMP JUMPDEST POP POP POP POP SWAP1 POP PUSH1 0x0 DUP2 MLOAD GT ISZERO PUSH2 0x2901 JUMPI PUSH1 0x1 SWAP4 POP POP POP POP SWAP1 JUMP JUMPDEST POP DUP1 PUSH2 0x290C DUP2 PUSH2 0x400A JUMP JUMPDEST SWAP2 POP POP PUSH2 0x27F8 JUMP JUMPDEST POP PUSH1 0x0 SWAP2 POP POP SWAP1 JUMP JUMPDEST PUSH2 0x2926 DUP2 PUSH2 0x2E74 JUMP JUMPDEST PUSH5 0xFFFFFFFFFF DUP2 AND PUSH1 0x0 SWAP1 DUP2 MSTORE PUSH1 0x2 PUSH1 0x20 SWAP1 DUP2 MSTORE PUSH1 0x40 DUP1 DUP4 KECCAK256 DUP1 SLOAD DUP3 MLOAD DUP2 DUP6 MUL DUP2 ADD DUP6 ADD SWAP1 SWAP4 MSTORE DUP1 DUP4 MSTORE SWAP5 SWAP6 POP SWAP3 SWAP4 SWAP1 SWAP3 SWAP2 DUP5 SWAP1 DUP5 ADD JUMPDEST DUP3 DUP3 LT ISZERO PUSH2 0x2A03 JUMPI PUSH1 0x0 DUP5 DUP2 MSTORE PUSH1 0x20 SWAP1 DUP2 SWAP1 KECCAK256 PUSH1 0x40 DUP1 MLOAD PUSH2 0x100 DUP2 ADD DUP3 MSTORE PUSH1 0x5 DUP7 MUL SWAP1 SWAP3 ADD DUP1 SLOAD DUP4 MSTORE PUSH1 0x1 DUP1 DUP3 ADD SLOAD PUSH1 0x1 PUSH1 0x1 PUSH1 0xA0 SHL SUB SWAP1 DUP2 AND DUP6 DUP8 ADD MSTORE PUSH1 0x2 DUP4 ADD SLOAD DUP2 AND SWAP4 DUP6 ADD SWAP4 SWAP1 SWAP4 MSTORE PUSH1 0x3 DUP3 ADD SLOAD SWAP3 DUP4 AND PUSH1 0x60 DUP6 ADD MSTORE PUSH5 0xFFFFFFFFFF PUSH1 0x1 PUSH1 0xA0 SHL DUP5 DIV AND PUSH1 0x80 DUP6 ADD MSTORE PUSH1 0xFF PUSH1 0x1 PUSH1 0xC8 SHL DUP5 DIV DUP2 AND ISZERO ISZERO PUSH1 0xA0 DUP7 ADD MSTORE PUSH1 0x1 PUSH1 0xD0 SHL SWAP1 SWAP4 DIV SWAP1 SWAP3 AND ISZERO ISZERO PUSH1 0xC0 DUP5 ADD MSTORE PUSH1 0x4 ADD SLOAD PUSH1 0xE0 DUP4 ADD MSTORE SWAP1 DUP4 MSTORE SWAP1 SWAP3 ADD SWAP2 ADD PUSH2 0x295D JUMP JUMPDEST POP POP POP POP PUSH5 0xFFFFFFFFFF DUP4 AND PUSH1 0x0 SWAP1 DUP2 MSTORE PUSH1 0x2 PUSH1 0x20 MSTORE PUSH1 0x40 SWAP1 KECCAK256 SWAP1 SWAP2 POP PUSH2 0x2A28 PUSH2 0x386B JUMP JUMPDEST PUSH1 0x0 JUMPDEST DUP4 MLOAD DUP2 LT ISZERO PUSH2 0x2B74 JUMPI DUP6 DUP5 DUP3 DUP2 MLOAD DUP2 LT PUSH2 0x2A47 JUMPI PUSH2 0x2A47 PUSH2 0x3F37 JUMP JUMPDEST PUSH1 0x20 MUL PUSH1 0x20 ADD ADD MLOAD PUSH1 0x0 ADD MLOAD EQ ISZERO PUSH2 0x2B62 JUMPI DUP4 DUP2 DUP2 MLOAD DUP2 LT PUSH2 0x2A6B JUMPI PUSH2 0x2A6B PUSH2 0x3F37 JUMP JUMPDEST PUSH1 0x20 SWAP1 DUP2 MUL SWAP2 SWAP1 SWAP2 ADD ADD MLOAD PUSH1 0x1 PUSH1 0xC0 DUP3 ADD MSTORE DUP4 SLOAD SWAP1 SWAP3 POP DUP3 SWAP1 DUP5 SWAP1 DUP4 SWAP1 DUP2 LT PUSH2 0x2A96 JUMPI PUSH2 0x2A96 PUSH2 0x3F37 JUMP JUMPDEST PUSH1 0x0 SWAP2 DUP3 MSTORE PUSH1 0x20 SWAP2 DUP3 SWAP1 KECCAK256 DUP4 MLOAD PUSH1 0x5 SWAP1 SWAP3 MUL ADD SWAP1 DUP2 SSTORE SWAP1 DUP3 ADD MLOAD PUSH1 0x1 DUP3 ADD DUP1 SLOAD PUSH1 0x1 PUSH1 0x1 PUSH1 0xA0 SHL SUB SWAP3 DUP4 AND PUSH1 0x1 PUSH1 0x1 PUSH1 0xA0 SHL SUB NOT SWAP2 DUP3 AND OR SWAP1 SWAP2 SSTORE PUSH1 0x40 DUP5 ADD MLOAD PUSH1 0x2 DUP5 ADD DUP1 SLOAD SWAP2 DUP5 AND SWAP2 SWAP1 SWAP3 AND OR SWAP1 SSTORE PUSH1 0x60 DUP4 ADD MLOAD PUSH1 0x3 DUP4 ADD DUP1 SLOAD PUSH1 0x80 DUP7 ADD MLOAD PUSH1 0xA0 DUP8 ADD MLOAD PUSH1 0xC0 DUP9 ADD MLOAD ISZERO ISZERO PUSH1 0x1 PUSH1 0xD0 SHL MUL PUSH1 0xFF PUSH1 0xD0 SHL NOT SWAP2 ISZERO ISZERO PUSH1 0x1 PUSH1 0xC8 SHL MUL SWAP2 SWAP1 SWAP2 AND PUSH2 0xFFFF PUSH1 0xC8 SHL NOT PUSH5 0xFFFFFFFFFF SWAP1 SWAP4 AND PUSH1 0x1 PUSH1 0xA0 SHL MUL PUSH1 0x1 PUSH1 0x1 PUSH1 0xC8 SHL SUB NOT SWAP1 SWAP5 AND SWAP6 SWAP1 SWAP7 AND SWAP5 SWAP1 SWAP5 OR SWAP2 SWAP1 SWAP2 OR AND SWAP3 SWAP1 SWAP3 OR OR SWAP1 SSTORE PUSH1 0xE0 SWAP1 SWAP2 ADD MLOAD PUSH1 0x4 SWAP1 SWAP2 ADD SSTORE PUSH2 0x2B74 JUMP JUMPDEST DUP1 PUSH2 0x2B6C DUP2 PUSH2 0x3F63 JUMP JUMPDEST SWAP2 POP POP PUSH2 0x2A2B JUMP JUMPDEST POP PUSH5 0xFFFFFFFFFF DUP5 AND PUSH1 0x0 SWAP1 DUP2 MSTORE PUSH1 0x2 PUSH1 0x20 MSTORE PUSH1 0x40 SWAP1 KECCAK256 DUP3 SLOAD PUSH2 0x2B99 SWAP2 SWAP1 DUP5 SWAP1 PUSH2 0x38AF JUMP JUMPDEST POP PUSH1 0x60 DUP2 ADD MLOAD PUSH1 0x1 PUSH1 0x1 PUSH1 0xA0 SHL SUB AND PUSH2 0x2BFA JUMPI PUSH1 0xE0 DUP2 ADD MLOAD SELFBALANCE GT PUSH2 0x2BBC JUMPI PUSH1 0x0 DUP1 REVERT JUMPDEST DUP1 PUSH1 0x20 ADD MLOAD PUSH1 0x1 PUSH1 0x1 PUSH1 0xA0 SHL SUB AND PUSH2 0x8FC DUP3 PUSH1 0xE0 ADD MLOAD SWAP1 DUP2 ISZERO MUL SWAP1 PUSH1 0x40 MLOAD PUSH1 0x0 PUSH1 0x40 MLOAD DUP1 DUP4 SUB DUP2 DUP6 DUP9 DUP9 CALL SWAP4 POP POP POP POP PUSH2 0x2BF5 JUMPI PUSH1 0x0 DUP1 REVERT JUMPDEST PUSH2 0x144E JUMP JUMPDEST PUSH1 0xE0 DUP2 ADD MLOAD PUSH1 0x60 DUP3 ADD MLOAD PUSH1 0x40 MLOAD PUSH4 0x70A08231 PUSH1 0xE0 SHL DUP2 MSTORE ADDRESS PUSH1 0x4 DUP3 ADD MSTORE PUSH1 0x1 PUSH1 0x1 PUSH1 0xA0 SHL SUB SWAP1 SWAP2 AND SWAP1 PUSH4 0x70A08231 SWAP1 PUSH1 0x24 ADD PUSH1 0x20 PUSH1 0x40 MLOAD DUP1 DUP4 SUB DUP2 PUSH1 0x0 DUP8 DUP1 EXTCODESIZE ISZERO DUP1 ISZERO PUSH2 0x2C46 JUMPI PUSH1 0x0 DUP1 REVERT JUMPDEST POP GAS CALL ISZERO DUP1 ISZERO PUSH2 0x2C5A JUMPI RETURNDATASIZE PUSH1 0x0 DUP1 RETURNDATACOPY RETURNDATASIZE PUSH1 0x0 REVERT JUMPDEST POP POP POP POP PUSH1 0x40 MLOAD RETURNDATASIZE PUSH1 0x1F NOT PUSH1 0x1F DUP3 ADD AND DUP3 ADD DUP1 PUSH1 0x40 MSTORE POP DUP2 ADD SWAP1 PUSH2 0x2C7E SWAP2 SWAP1 PUSH2 0x41A6 JUMP JUMPDEST LT ISZERO PUSH2 0x2C89 JUMPI PUSH1 0x0 DUP1 REVERT JUMPDEST PUSH1 0x60 DUP2 ADD MLOAD PUSH1 0xE0 DUP3 ADD MLOAD PUSH1 0x40 MLOAD PUSH4 0x95EA7B3 PUSH1 0xE0 SHL DUP2 MSTORE ADDRESS PUSH1 0x4 DUP3 ADD MSTORE PUSH1 0x24 DUP2 ADD SWAP2 SWAP1 SWAP2 MSTORE PUSH1 0x1 PUSH1 0x1 PUSH1 0xA0 SHL SUB SWAP1 SWAP2 AND SWAP1 PUSH4 0x95EA7B3 SWAP1 PUSH1 0x44 ADD PUSH1 0x20 PUSH1 0x40 MLOAD DUP1 DUP4 SUB DUP2 PUSH1 0x0 DUP8 DUP1 EXTCODESIZE ISZERO DUP1 ISZERO PUSH2 0x2CDD JUMPI PUSH1 0x0 DUP1 REVERT JUMPDEST POP GAS CALL ISZERO DUP1 ISZERO PUSH2 0x2CF1 JUMPI RETURNDATASIZE PUSH1 0x0 DUP1 RETURNDATACOPY RETURNDATASIZE PUSH1 0x0 REVERT JUMPDEST POP POP POP POP PUSH1 0x40 MLOAD RETURNDATASIZE PUSH1 0x1F NOT PUSH1 0x1F DUP3 ADD AND DUP3 ADD DUP1 PUSH1 0x40 MSTORE POP DUP2 ADD SWAP1 PUSH2 0x2D15 SWAP2 SWAP1 PUSH2 0x416C JUMP JUMPDEST DUP1 ISZERO PUSH2 0x2DAA JUMPI POP DUP1 PUSH1 0x60 ADD MLOAD PUSH1 0x1 PUSH1 0x1 PUSH1 0xA0 SHL SUB AND PUSH4 0x23B872DD ADDRESS DUP4 PUSH1 0x40 ADD MLOAD DUP5 PUSH1 0xE0 ADD MLOAD PUSH1 0x40 MLOAD DUP5 PUSH4 0xFFFFFFFF AND PUSH1 0xE0 SHL DUP2 MSTORE PUSH1 0x4 ADD PUSH2 0x2D58 SWAP4 SWAP3 SWAP2 SWAP1 PUSH2 0x4148 JUMP JUMPDEST PUSH1 0x20 PUSH1 0x40 MLOAD DUP1 DUP4 SUB DUP2 PUSH1 0x0 DUP8 DUP1 EXTCODESIZE ISZERO DUP1 ISZERO PUSH2 0x2D72 JUMPI PUSH1 0x0 DUP1 REVERT JUMPDEST POP GAS CALL ISZERO DUP1 ISZERO PUSH2 0x2D86 JUMPI RETURNDATASIZE PUSH1 0x0 DUP1 RETURNDATACOPY RETURNDATASIZE PUSH1 0x0 REVERT JUMPDEST POP POP POP POP PUSH1 0x40 MLOAD RETURNDATASIZE PUSH1 0x1F NOT PUSH1 0x1F DUP3 ADD AND DUP3 ADD DUP1 PUSH1 0x40 MSTORE POP DUP2 ADD SWAP1 PUSH2 0x2DAA SWAP2 SWAP1 PUSH2 0x416C JUMP JUMPDEST PUSH2 0x144E JUMPI PUSH1 0x0 DUP1 REVERT JUMPDEST PUSH1 0x0 DUP1 PUSH1 0x6 DUP1 SLOAD DUP1 PUSH1 0x20 MUL PUSH1 0x20 ADD PUSH1 0x40 MLOAD SWAP1 DUP2 ADD PUSH1 0x40 MSTORE DUP1 SWAP3 SWAP2 SWAP1 DUP2 DUP2 MSTORE PUSH1 0x20 ADD DUP3 DUP1 SLOAD DUP1 ISZERO PUSH2 0x2E0C JUMPI PUSH1 0x20 MUL DUP3 ADD SWAP2 SWAP1 PUSH1 0x0 MSTORE PUSH1 0x20 PUSH1 0x0 KECCAK256 SWAP1 JUMPDEST DUP2 SLOAD PUSH1 0x1 PUSH1 0x1 PUSH1 0xA0 SHL SUB AND DUP2 MSTORE PUSH1 0x1 SWAP1 SWAP2 ADD SWAP1 PUSH1 0x20 ADD DUP1 DUP4 GT PUSH2 0x2DEE JUMPI JUMPDEST POP POP POP POP POP SWAP1 POP PUSH1 0x0 SWAP2 POP PUSH1 0x0 JUMPDEST DUP2 MLOAD DUP2 LT ISZERO PUSH2 0x2E6D JUMPI DUP2 DUP2 DUP2 MLOAD DUP2 LT PUSH2 0x2E35 JUMPI PUSH2 0x2E35 PUSH2 0x3F37 JUMP JUMPDEST PUSH1 0x20 MUL PUSH1 0x20 ADD ADD MLOAD PUSH1 0x1 PUSH1 0x1 PUSH1 0xA0 SHL SUB AND DUP5 PUSH1 0x1 PUSH1 0x1 PUSH1 0xA0 SHL SUB AND EQ ISZERO PUSH2 0x2E5B JUMPI PUSH1 0x1 SWAP3 POP JUMPDEST DUP1 PUSH2 0x2E65 DUP2 PUSH2 0x3F63 JUMP JUMPDEST SWAP2 POP POP PUSH2 0x2E1A JUMP JUMPDEST POP POP SWAP2 SWAP1 POP JUMP JUMPDEST PUSH1 0x0 PUSH2 0xE10 PUSH2 0x2E87 PUSH4 0x63236820 DUP5 PUSH2 0x41BF JUMP JUMPDEST PUSH2 0x2E91 SWAP2 SWAP1 PUSH2 0x41E5 JUMP JUMPDEST SWAP3 SWAP2 POP POP JUMP JUMPDEST PUSH1 0x7 SLOAD PUSH1 0xFF AND PUSH2 0x22AA JUMPI PUSH1 0xE0 DUP2 ADD MLOAD PUSH1 0x20 DUP1 DUP4 ADD MLOAD PUSH1 0x60 DUP5 ADD MLOAD PUSH1 0x1 PUSH1 0x1 PUSH1 0xA0 SHL SUB SWAP2 DUP3 AND PUSH1 0x0 SWAP1 DUP2 MSTORE PUSH1 0x4 DUP5 MSTORE PUSH1 0x40 DUP1 DUP3 KECCAK256 SWAP4 SWAP1 SWAP3 AND DUP2 MSTORE SWAP2 SWAP1 SWAP3 MSTORE KECCAK256 SLOAD LT ISZERO PUSH2 0x2EE1 JUMPI PUSH1 0x0 DUP1 REVERT JUMPDEST PUSH1 0x60 DUP2 ADD MLOAD PUSH1 0x1 PUSH1 0x1 PUSH1 0xA0 SHL SUB AND PUSH2 0x2F08 JUMPI PUSH1 0xE0 DUP2 ADD MLOAD SELFBALANCE GT PUSH2 0x2F03 JUMPI PUSH1 0x0 DUP1 REVERT JUMPDEST PUSH2 0x2F97 JUMP JUMPDEST PUSH1 0xE0 DUP2 ADD MLOAD PUSH1 0x60 DUP3 ADD MLOAD PUSH1 0x40 MLOAD PUSH4 0x70A08231 PUSH1 0xE0 SHL DUP2 MSTORE ADDRESS PUSH1 0x4 DUP3 ADD MSTORE PUSH1 0x1 PUSH1 0x1 PUSH1 0xA0 SHL SUB SWAP1 SWAP2 AND SWAP1 PUSH4 0x70A08231 SWAP1 PUSH1 0x24 ADD PUSH1 0x20 PUSH1 0x40 MLOAD DUP1 DUP4 SUB DUP2 PUSH1 0x0 DUP8 DUP1 EXTCODESIZE ISZERO DUP1 ISZERO PUSH2 0x2F54 JUMPI PUSH1 0x0 DUP1 REVERT JUMPDEST POP GAS CALL ISZERO DUP1 ISZERO PUSH2 0x2F68 JUMPI RETURNDATASIZE PUSH1 0x0 DUP1 RETURNDATACOPY RETURNDATASIZE PUSH1 0x0 REVERT JUMPDEST POP POP POP POP PUSH1 0x40 MLOAD RETURNDATASIZE PUSH1 0x1F NOT PUSH1 0x1F DUP3 ADD AND DUP3 ADD DUP1 PUSH1 0x40 MSTORE POP DUP2 ADD SWAP1 PUSH2 0x2F8C SWAP2 SWAP1 PUSH2 0x41A6 JUMP JUMPDEST LT ISZERO PUSH2 0x2F97 JUMPI PUSH1 0x0 DUP1 REVERT JUMPDEST PUSH1 0x80 DUP2 ADD MLOAD PUSH5 0xFFFFFFFFFF AND PUSH1 0x0 SWAP1 DUP2 MSTORE PUSH1 0x2 PUSH1 0x20 SWAP1 DUP2 MSTORE PUSH1 0x40 DUP1 DUP4 KECCAK256 DUP1 SLOAD DUP3 MLOAD DUP2 DUP6 MUL DUP2 ADD DUP6 ADD SWAP1 SWAP4 MSTORE DUP1 DUP4 MSTORE SWAP2 SWAP3 SWAP1 SWAP2 SWAP1 DUP5 SWAP1 DUP5 ADD JUMPDEST DUP3 DUP3 LT ISZERO PUSH2 0x3075 JUMPI PUSH1 0x0 DUP5 DUP2 MSTORE PUSH1 0x20 SWAP1 DUP2 SWAP1 KECCAK256 PUSH1 0x40 DUP1 MLOAD PUSH2 0x100 DUP2 ADD DUP3 MSTORE PUSH1 0x5 DUP7 MUL SWAP1 SWAP3 ADD DUP1 SLOAD DUP4 MSTORE PUSH1 0x1 DUP1 DUP3 ADD SLOAD PUSH1 0x1 PUSH1 0x1 PUSH1 0xA0 SHL SUB SWAP1 DUP2 AND DUP6 DUP8 ADD MSTORE PUSH1 0x2 DUP4 ADD SLOAD DUP2 AND SWAP4 DUP6 ADD SWAP4 SWAP1 SWAP4 MSTORE PUSH1 0x3 DUP3 ADD SLOAD SWAP3 DUP4 AND PUSH1 0x60 DUP6 ADD MSTORE PUSH5 0xFFFFFFFFFF PUSH1 0x1 PUSH1 0xA0 SHL DUP5 DIV AND PUSH1 0x80 DUP6 ADD MSTORE PUSH1 0xFF PUSH1 0x1 PUSH1 0xC8 SHL DUP5 DIV DUP2 AND ISZERO ISZERO PUSH1 0xA0 DUP7 ADD MSTORE PUSH1 0x1 PUSH1 0xD0 SHL SWAP1 SWAP4 DIV SWAP1 SWAP3 AND ISZERO ISZERO PUSH1 0xC0 DUP5 ADD MSTORE PUSH1 0x4 ADD SLOAD PUSH1 0xE0 DUP4 ADD MSTORE SWAP1 DUP4 MSTORE SWAP1 SWAP3 ADD SWAP2 ADD PUSH2 0x2FCF JUMP JUMPDEST POP POP POP POP PUSH1 0x80 DUP4 ADD MLOAD PUSH5 0xFFFFFFFFFF AND PUSH1 0x0 SWAP1 DUP2 MSTORE PUSH1 0x2 PUSH1 0x20 MSTORE PUSH1 0x40 DUP2 KECCAK256 SWAP2 SWAP3 POP JUMPDEST DUP3 MLOAD DUP2 LT ISZERO PUSH2 0x31E4 JUMPI DUP4 PUSH1 0x0 ADD MLOAD DUP4 DUP3 DUP2 MLOAD DUP2 LT PUSH2 0x30B7 JUMPI PUSH2 0x30B7 PUSH2 0x3F37 JUMP JUMPDEST PUSH1 0x20 MUL PUSH1 0x20 ADD ADD MLOAD PUSH1 0x0 ADD MLOAD EQ ISZERO PUSH2 0x31D2 JUMPI DUP3 DUP2 DUP2 MLOAD DUP2 LT PUSH2 0x30DB JUMPI PUSH2 0x30DB PUSH2 0x3F37 JUMP JUMPDEST PUSH1 0x20 SWAP1 DUP2 MUL SWAP2 SWAP1 SWAP2 ADD ADD MLOAD PUSH1 0x1 PUSH1 0xA0 DUP3 ADD MSTORE DUP3 SLOAD SWAP1 SWAP5 POP DUP5 SWAP1 DUP4 SWAP1 DUP4 SWAP1 DUP2 LT PUSH2 0x3106 JUMPI PUSH2 0x3106 PUSH2 0x3F37 JUMP JUMPDEST PUSH1 0x0 SWAP2 DUP3 MSTORE PUSH1 0x20 SWAP2 DUP3 SWAP1 KECCAK256 DUP4 MLOAD PUSH1 0x5 SWAP1 SWAP3 MUL ADD SWAP1 DUP2 SSTORE SWAP1 DUP3 ADD MLOAD PUSH1 0x1 DUP3 ADD DUP1 SLOAD PUSH1 0x1 PUSH1 0x1 PUSH1 0xA0 SHL SUB SWAP3 DUP4 AND PUSH1 0x1 PUSH1 0x1 PUSH1 0xA0 SHL SUB NOT SWAP2 DUP3 AND OR SWAP1 SWAP2 SSTORE PUSH1 0x40 DUP5 ADD MLOAD PUSH1 0x2 DUP5 ADD DUP1 SLOAD SWAP2 DUP5 AND SWAP2 SWAP1 SWAP3 AND OR SWAP1 SSTORE PUSH1 0x60 DUP4 ADD MLOAD PUSH1 0x3 DUP4 ADD DUP1 SLOAD PUSH1 0x80 DUP7 ADD MLOAD PUSH1 0xA0 DUP8 ADD MLOAD PUSH1 0xC0 DUP9 ADD MLOAD ISZERO ISZERO PUSH1 0x1 PUSH1 0xD0 SHL MUL PUSH1 0xFF PUSH1 0xD0 SHL NOT SWAP2 ISZERO ISZERO PUSH1 0x1 PUSH1 0xC8 SHL MUL SWAP2 SWAP1 SWAP2 AND PUSH2 0xFFFF PUSH1 0xC8 SHL NOT PUSH5 0xFFFFFFFFFF SWAP1 SWAP4 AND PUSH1 0x1 PUSH1 0xA0 SHL MUL PUSH1 0x1 PUSH1 0x1 PUSH1 0xC8 SHL SUB NOT SWAP1 SWAP5 AND SWAP6 SWAP1 SWAP7 AND SWAP5 SWAP1 SWAP5 OR SWAP2 SWAP1 SWAP2 OR AND SWAP3 SWAP1 SWAP3 OR OR SWAP1 SSTORE PUSH1 0xE0 SWAP1 SWAP2 ADD MLOAD PUSH1 0x4 SWAP1 SWAP2 ADD SSTORE PUSH2 0x31E4 JUMP JUMPDEST DUP1 PUSH2 0x31DC DUP2 PUSH2 0x3F63 JUMP JUMPDEST SWAP2 POP POP PUSH2 0x3097 JUMP JUMPDEST POP PUSH1 0x80 DUP4 ADD MLOAD PUSH5 0xFFFFFFFFFF AND PUSH1 0x0 SWAP1 DUP2 MSTORE PUSH1 0x2 PUSH1 0x20 MSTORE PUSH1 0x40 SWAP1 KECCAK256 DUP2 SLOAD PUSH2 0x320D SWAP2 SWAP1 DUP4 SWAP1 PUSH2 0x38AF JUMP JUMPDEST POP PUSH1 0x60 DUP4 ADD MLOAD PUSH1 0x1 PUSH1 0x1 PUSH1 0xA0 SHL SUB AND PUSH2 0x32CE JUMPI PUSH1 0x0 DUP4 PUSH1 0x40 ADD MLOAD PUSH1 0x1 PUSH1 0x1 PUSH1 0xA0 SHL SUB AND PUSH2 0x8FC DUP6 PUSH1 0xE0 ADD MLOAD SWAP1 DUP2 ISZERO MUL SWAP1 PUSH1 0x40 MLOAD PUSH1 0x0 PUSH1 0x40 MLOAD DUP1 DUP4 SUB DUP2 DUP6 DUP9 DUP9 CALL SWAP4 POP POP POP POP SWAP1 POP DUP1 PUSH2 0x3294 JUMPI PUSH1 0x40 MLOAD PUSH3 0x461BCD PUSH1 0xE5 SHL DUP2 MSTORE PUSH1 0x20 PUSH1 0x4 DUP3 ADD MSTORE PUSH1 0x10 PUSH1 0x24 DUP3 ADD MSTORE PUSH16 0x2A3930B739B332B9103330B4B632B217 PUSH1 0x81 SHL PUSH1 0x44 DUP3 ADD MSTORE PUSH1 0x64 ADD PUSH2 0x371 JUMP JUMPDEST PUSH1 0x40 MLOAD PUSH1 0x1 DUP2 MSTORE PUSH32 0xA2EA5B0DB1D57B0E32DF654AA9A1A97BC8066881E37669FF488D2BEBE87C9F87 SWAP1 PUSH1 0x20 ADD PUSH1 0x40 MLOAD DUP1 SWAP2 SUB SWAP1 LOG1 POP POP POP POP JUMP JUMPDEST PUSH1 0x60 DUP4 ADD MLOAD PUSH1 0xE0 DUP5 ADD MLOAD PUSH1 0x40 MLOAD PUSH4 0x95EA7B3 PUSH1 0xE0 SHL DUP2 MSTORE ADDRESS PUSH1 0x4 DUP3 ADD MSTORE PUSH1 0x24 DUP2 ADD SWAP2 SWAP1 SWAP2 MSTORE PUSH1 0x1 PUSH1 0x1 PUSH1 0xA0 SHL SUB SWAP1 SWAP2 AND SWAP1 PUSH4 0x95EA7B3 SWAP1 PUSH1 0x44 ADD PUSH1 0x20 PUSH1 0x40 MLOAD DUP1 DUP4 SUB DUP2 PUSH1 0x0 DUP8 DUP1 EXTCODESIZE ISZERO DUP1 ISZERO PUSH2 0x3322 JUMPI PUSH1 0x0 DUP1 REVERT JUMPDEST POP GAS CALL ISZERO DUP1 ISZERO PUSH2 0x3336 JUMPI RETURNDATASIZE PUSH1 0x0 DUP1 RETURNDATACOPY RETURNDATASIZE PUSH1 0x0 REVERT JUMPDEST POP POP POP POP PUSH1 0x40 MLOAD RETURNDATASIZE PUSH1 0x1F NOT PUSH1 0x1F DUP3 ADD AND DUP3 ADD DUP1 PUSH1 0x40 MSTORE POP DUP2 ADD SWAP1 PUSH2 0x335A SWAP2 SWAP1 PUSH2 0x416C JUMP JUMPDEST DUP1 ISZERO PUSH2 0x33EF JUMPI POP DUP3 PUSH1 0x60 ADD MLOAD PUSH1 0x1 PUSH1 0x1 PUSH1 0xA0 SHL SUB AND PUSH4 0x23B872DD ADDRESS DUP6 PUSH1 0x40 ADD MLOAD DUP7 PUSH1 0xE0 ADD MLOAD PUSH1 0x40 MLOAD DUP5 PUSH4 0xFFFFFFFF AND PUSH1 0xE0 SHL DUP2 MSTORE PUSH1 0x4 ADD PUSH2 0x339D SWAP4 SWAP3 SWAP2 SWAP1 PUSH2 0x4148 JUMP JUMPDEST PUSH1 0x20 PUSH1 0x40 MLOAD DUP1 DUP4 SUB DUP2 PUSH1 0x0 DUP8 DUP1 EXTCODESIZE ISZERO DUP1 ISZERO PUSH2 0x33B7 JUMPI PUSH1 0x0 DUP1 REVERT JUMPDEST POP GAS CALL ISZERO DUP1 ISZERO PUSH2 0x33CB JUMPI RETURNDATASIZE PUSH1 0x0 DUP1 RETURNDATACOPY RETURNDATASIZE PUSH1 0x0 REVERT JUMPDEST POP POP POP POP PUSH1 0x40 MLOAD RETURNDATASIZE PUSH1 0x1F NOT PUSH1 0x1F DUP3 ADD AND DUP3 ADD DUP1 PUSH1 0x40 MSTORE POP DUP2 ADD SWAP1 PUSH2 0x33EF SWAP2 SWAP1 PUSH2 0x416C JUMP JUMPDEST PUSH2 0x33F8 JUMPI PUSH1 0x0 DUP1 REVERT JUMPDEST POP POP POP JUMP JUMPDEST PUSH1 0x0 PUSH2 0x340B DUP3 PUSH2 0xE10 PUSH2 0x4209 JUMP JUMPDEST PUSH2 0x2E91 SWAP1 PUSH4 0x63236820 PUSH2 0x4236 JUMP JUMPDEST PUSH2 0x3421 PUSH2 0x386B JUMP JUMPDEST PUSH1 0x40 MLOAD PUSH12 0xFFFFFFFFFFFFFFFFFFFFFFFF NOT PUSH1 0x60 DUP9 SWAP1 SHL AND PUSH1 0x20 DUP3 ADD MSTORE PUSH1 0x1 PUSH1 0x1 PUSH1 0xD8 SHL SUB NOT PUSH1 0xD8 DUP6 SWAP1 SHL AND PUSH1 0x34 DUP3 ADD MSTORE TIMESTAMP PUSH1 0x39 DUP3 ADD MSTORE PUSH1 0x0 SWAP1 PUSH1 0x59 ADD PUSH1 0x40 DUP1 MLOAD PUSH1 0x1F NOT DUP2 DUP5 SUB ADD DUP2 MSTORE DUP3 DUP3 MSTORE DUP1 MLOAD PUSH1 0x20 SWAP2 DUP3 ADD KECCAK256 PUSH2 0x100 DUP5 ADD DUP4 MSTORE DUP4 MSTORE PUSH1 0x1 PUSH1 0x1 PUSH1 0xA0 SHL SUB SWAP10 DUP11 AND SWAP1 DUP4 ADD MSTORE SWAP7 DUP9 AND SWAP7 DUP2 ADD SWAP7 SWAP1 SWAP7 MSTORE POP POP SWAP2 SWAP1 SWAP4 AND PUSH1 0x60 DUP4 ADD MSTORE PUSH5 0xFFFFFFFFFF SWAP1 SWAP3 AND PUSH1 0x80 DUP3 ADD MSTORE PUSH1 0x0 PUSH1 0xA0 DUP3 ADD DUP2 SWAP1 MSTORE PUSH1 0xC0 DUP3 ADD MSTORE PUSH1 0xE0 DUP2 ADD SWAP2 SWAP1 SWAP2 MSTORE SWAP1 JUMP JUMPDEST CALLER PUSH1 0x0 SWAP1 DUP2 MSTORE PUSH1 0x20 DUP2 SWAP1 MSTORE PUSH1 0x40 SWAP1 KECCAK256 DUP1 SLOAD PUSH1 0x1 PUSH1 0xA0 SHL SWAP1 DIV PUSH1 0xFF AND PUSH2 0x35A8 JUMPI DUP1 SLOAD CALLER PUSH1 0x1 PUSH1 0x1 PUSH1 0xA0 SHL SUB NOT SWAP2 DUP3 AND DUP2 OR DUP4 SSTORE PUSH1 0x1 DUP1 SLOAD DUP1 DUP3 ADD DUP3 SSTORE PUSH32 0xB10E2D527612073B26EECDFD717E6A320CF44B4AFAC2B0732D9FCBE2B7FA0CF6 ADD DUP1 SLOAD DUP5 AND SWAP1 SWAP3 OR SWAP1 SWAP2 SSTORE DUP3 SLOAD PUSH1 0x1 PUSH1 0xA0 SHL PUSH1 0xFF PUSH1 0xA0 SHL NOT SWAP1 SWAP2 AND OR DUP4 SSTORE DUP1 DUP4 ADD DUP1 SLOAD DUP1 DUP4 ADD DUP3 SSTORE PUSH1 0x0 SWAP2 DUP3 MSTORE PUSH1 0x20 DUP1 DUP4 KECCAK256 PUSH1 0x6 DUP1 DUP5 DIV SWAP1 SWAP2 ADD DUP1 SLOAD SWAP2 SWAP1 SWAP4 MOD PUSH1 0x5 MUL PUSH2 0x100 EXP PUSH5 0xFFFFFFFFFF DUP2 DUP2 MUL NOT SWAP1 SWAP3 AND SWAP2 DUP11 AND MUL OR SWAP1 SWAP2 SSTORE PUSH1 0x2 DUP6 ADD DUP1 SLOAD SWAP4 DUP5 ADD DUP2 SSTORE DUP3 MSTORE SWAP1 KECCAK256 ADD DUP1 SLOAD SWAP1 SWAP2 AND PUSH1 0x1 PUSH1 0x1 PUSH1 0xA0 SHL SUB DUP5 AND OR SWAP1 SSTORE PUSH2 0x3729 JUMP JUMPDEST PUSH1 0x0 DUP2 PUSH1 0x1 ADD DUP1 SLOAD DUP1 PUSH1 0x20 MUL PUSH1 0x20 ADD PUSH1 0x40 MLOAD SWAP1 DUP2 ADD PUSH1 0x40 MSTORE DUP1 SWAP3 SWAP2 SWAP1 DUP2 DUP2 MSTORE PUSH1 0x20 ADD DUP3 DUP1 SLOAD DUP1 ISZERO PUSH2 0x3626 JUMPI PUSH1 0x20 MUL DUP3 ADD SWAP2 SWAP1 PUSH1 0x0 MSTORE PUSH1 0x20 PUSH1 0x0 KECCAK256 SWAP1 PUSH1 0x0 SWAP1 JUMPDEST DUP3 DUP3 SWAP1 SLOAD SWAP1 PUSH2 0x100 EXP SWAP1 DIV PUSH5 0xFFFFFFFFFF AND PUSH5 0xFFFFFFFFFF AND DUP2 MSTORE PUSH1 0x20 ADD SWAP1 PUSH1 0x5 ADD SWAP1 PUSH1 0x20 DUP3 PUSH1 0x4 ADD DIV SWAP3 DUP4 ADD SWAP3 PUSH1 0x1 SUB DUP3 MUL SWAP2 POP DUP1 DUP5 GT PUSH2 0x35E7 JUMPI SWAP1 POP JUMPDEST POP POP POP POP POP SWAP1 POP PUSH1 0x0 DUP3 PUSH1 0x2 ADD DUP1 SLOAD DUP1 PUSH1 0x20 MUL PUSH1 0x20 ADD PUSH1 0x40 MLOAD SWAP1 DUP2 ADD PUSH1 0x40 MSTORE DUP1 SWAP3 SWAP2 SWAP1 DUP2 DUP2 MSTORE PUSH1 0x20 ADD DUP3 DUP1 SLOAD DUP1 ISZERO PUSH2 0x3687 JUMPI PUSH1 0x20 MUL DUP3 ADD SWAP2 SWAP1 PUSH1 0x0 MSTORE PUSH1 0x20 PUSH1 0x0 KECCAK256 SWAP1 JUMPDEST DUP2 SLOAD PUSH1 0x1 PUSH1 0x1 PUSH1 0xA0 SHL SUB AND DUP2 MSTORE PUSH1 0x1 SWAP1 SWAP2 ADD SWAP1 PUSH1 0x20 ADD DUP1 DUP4 GT PUSH2 0x3669 JUMPI JUMPDEST POP POP POP POP POP SWAP1 POP PUSH2 0x3698 DUP6 DUP4 PUSH2 0x37AD JUMP JUMPDEST PUSH2 0x36E7 JUMPI DUP5 DUP4 PUSH1 0x1 ADD PUSH1 0x1 DUP2 PUSH1 0x1 DUP2 SLOAD ADD DUP1 DUP3 SSTORE DUP1 SWAP2 POP POP SUB SWAP1 PUSH1 0x0 MSTORE PUSH1 0x20 PUSH1 0x0 KECCAK256 SWAP1 PUSH1 0x6 SWAP2 DUP3 DUP3 DIV ADD SWAP2 SWAP1 MOD PUSH1 0x5 MUL PUSH2 0x100 EXP DUP2 SLOAD DUP2 PUSH5 0xFFFFFFFFFF MUL NOT AND SWAP1 DUP4 PUSH5 0xFFFFFFFFFF AND MUL OR SWAP1 SSTORE POP JUMPDEST PUSH2 0x36F1 DUP5 DUP3 PUSH2 0x380F JUMP JUMPDEST PUSH2 0x3726 JUMPI PUSH1 0x2 DUP4 ADD DUP1 SLOAD PUSH1 0x1 DUP2 ADD DUP3 SSTORE PUSH1 0x0 SWAP2 DUP3 MSTORE PUSH1 0x20 SWAP1 SWAP2 KECCAK256 ADD DUP1 SLOAD PUSH1 0x1 PUSH1 0x1 PUSH1 0xA0 SHL SUB NOT AND PUSH1 0x1 PUSH1 0x1 PUSH1 0xA0 SHL SUB DUP7 AND OR SWAP1 SSTORE JUMPDEST POP POP JUMPDEST CALLER PUSH1 0x0 SWAP1 DUP2 MSTORE PUSH1 0x20 DUP2 SWAP1 MSTORE PUSH1 0x40 SWAP1 KECCAK256 DUP2 SLOAD DUP2 SLOAD PUSH1 0x1 PUSH1 0x1 PUSH1 0xA0 SHL SUB SWAP1 SWAP2 AND PUSH1 0x1 PUSH1 0x1 PUSH1 0xA0 SHL SUB NOT DUP3 AND DUP2 OR DUP4 SSTORE DUP4 SLOAD PUSH1 0x1 PUSH1 0x1 PUSH1 0xA8 SHL SUB NOT SWAP1 SWAP3 AND OR PUSH1 0x1 PUSH1 0xA0 SHL SWAP2 DUP3 SWAP1 DIV PUSH1 0xFF AND ISZERO ISZERO SWAP1 SWAP2 MUL OR DUP2 SSTORE PUSH1 0x1 DUP1 DUP4 ADD DUP1 SLOAD DUP5 SWAP4 SWAP3 PUSH2 0x3790 SWAP3 SWAP1 DUP5 ADD SWAP2 PUSH2 0x39D4 JUMP JUMPDEST POP PUSH1 0x2 DUP3 DUP2 ADD DUP1 SLOAD PUSH2 0x37A5 SWAP3 DUP5 ADD SWAP2 SWAP1 PUSH2 0x3A2E JUMP JUMPDEST POP POP POP POP POP POP JUMP JUMPDEST PUSH1 0x0 DUP1 JUMPDEST DUP3 MLOAD DUP2 LT ISZERO PUSH2 0x3805 JUMPI DUP4 PUSH5 0xFFFFFFFFFF AND DUP4 DUP3 DUP2 MLOAD DUP2 LT PUSH2 0x37D4 JUMPI PUSH2 0x37D4 PUSH2 0x3F37 JUMP JUMPDEST PUSH1 0x20 MUL PUSH1 0x20 ADD ADD MLOAD PUSH5 0xFFFFFFFFFF AND EQ ISZERO PUSH2 0x37F3 JUMPI PUSH1 0x1 SWAP2 POP POP PUSH2 0x2E91 JUMP JUMPDEST DUP1 PUSH2 0x37FD DUP2 PUSH2 0x3F63 JUMP JUMPDEST SWAP2 POP POP PUSH2 0x37B1 JUMP JUMPDEST POP PUSH1 0x0 SWAP4 SWAP3 POP POP POP JUMP JUMPDEST PUSH1 0x0 DUP1 JUMPDEST DUP3 MLOAD DUP2 LT ISZERO PUSH2 0x3805 JUMPI DUP4 PUSH1 0x1 PUSH1 0x1 PUSH1 0xA0 SHL SUB AND DUP4 DUP3 DUP2 MLOAD DUP2 LT PUSH2 0x3838 JUMPI PUSH2 0x3838 PUSH2 0x3F37 JUMP JUMPDEST PUSH1 0x20 MUL PUSH1 0x20 ADD ADD MLOAD PUSH1 0x1 PUSH1 0x1 PUSH1 0xA0 SHL SUB AND EQ ISZERO PUSH2 0x3859 JUMPI PUSH1 0x1 SWAP2 POP POP PUSH2 0x2E91 JUMP JUMPDEST DUP1 PUSH2 0x3863 DUP2 PUSH2 0x3F63 JUMP JUMPDEST SWAP2 POP POP PUSH2 0x3813 JUMP JUMPDEST PUSH1 0x40 DUP1 MLOAD PUSH2 0x100 DUP2 ADD DUP3 MSTORE PUSH1 0x0 DUP1 DUP3 MSTORE PUSH1 0x20 DUP3 ADD DUP2 SWAP1 MSTORE SWAP2 DUP2 ADD DUP3 SWAP1 MSTORE PUSH1 0x60 DUP2 ADD DUP3 SWAP1 MSTORE PUSH1 0x80 DUP2 ADD DUP3 SWAP1 MSTORE PUSH1 0xA0 DUP2 ADD DUP3 SWAP1 MSTORE PUSH1 0xC0 DUP2 ADD DUP3 SWAP1 MSTORE PUSH1 0xE0 DUP2 ADD SWAP2 SWAP1 SWAP2 MSTORE SWAP1 JUMP JUMPDEST DUP3 DUP1 SLOAD DUP3 DUP3 SSTORE SWAP1 PUSH1 0x0 MSTORE PUSH1 0x20 PUSH1 0x0 KECCAK256 SWAP1 PUSH1 0x5 MUL DUP2 ADD SWAP3 DUP3 ISZERO PUSH2 0x39C4 JUMPI PUSH1 0x0 MSTORE PUSH1 0x20 PUSH1 0x0 KECCAK256 SWAP2 PUSH1 0x5 MUL DUP3 ADD JUMPDEST DUP3 DUP2 GT ISZERO PUSH2 0x39C4 JUMPI DUP3 SLOAD DUP3 SSTORE PUSH1 0x1 DUP1 DUP5 ADD SLOAD SWAP1 DUP4 ADD DUP1 SLOAD PUSH1 0x1 PUSH1 0x1 PUSH1 0xA0 SHL SUB NOT SWAP1 DUP2 AND PUSH1 0x1 PUSH1 0x1 PUSH1 0xA0 SHL SUB SWAP4 DUP5 AND OR SWAP1 SWAP2 SSTORE PUSH1 0x2 DUP1 DUP7 ADD SLOAD SWAP1 DUP6 ADD DUP1 SLOAD DUP4 AND SWAP2 DUP5 AND SWAP2 SWAP1 SWAP2 OR SWAP1 SSTORE PUSH1 0x3 DUP1 DUP7 ADD DUP1 SLOAD SWAP2 DUP7 ADD DUP1 SLOAD SWAP4 DUP5 AND SWAP3 SWAP1 SWAP5 AND SWAP2 DUP3 OR DUP5 SSTORE DUP1 SLOAD PUSH5 0xFFFFFFFFFF PUSH1 0x1 PUSH1 0xA0 SHL SWAP2 DUP3 SWAP1 DIV AND MUL PUSH1 0x1 PUSH1 0x1 PUSH1 0xC8 SHL SUB NOT SWAP1 SWAP4 AND SWAP1 SWAP2 OR SWAP2 SWAP1 SWAP2 OR DUP1 DUP4 SSTORE DUP2 SLOAD PUSH1 0xFF PUSH1 0x1 PUSH1 0xC8 SHL SWAP2 DUP3 SWAP1 DIV DUP2 AND ISZERO ISZERO SWAP1 SWAP2 MUL PUSH1 0xFF PUSH1 0xC8 SHL NOT DUP4 AND DUP2 OR DUP6 SSTORE SWAP3 SLOAD PUSH1 0x1 PUSH1 0xD0 SHL SWAP1 DUP2 SWAP1 DIV SWAP1 SWAP2 AND ISZERO ISZERO MUL PUSH1 0xFF PUSH1 0xD0 SHL NOT SWAP1 SWAP3 AND PUSH2 0xFFFF PUSH1 0xC8 SHL NOT SWAP1 SWAP2 AND OR OR SWAP1 SSTORE PUSH1 0x4 DUP1 DUP5 ADD SLOAD SWAP1 DUP4 ADD SSTORE PUSH1 0x5 SWAP3 DUP4 ADD SWAP3 SWAP1 SWAP2 ADD SWAP1 PUSH2 0x38DA JUMP JUMPDEST POP PUSH2 0x39D0 SWAP3 SWAP2 POP PUSH2 0x3A6D JUMP JUMPDEST POP SWAP1 JUMP JUMPDEST DUP3 DUP1 SLOAD DUP3 DUP3 SSTORE SWAP1 PUSH1 0x0 MSTORE PUSH1 0x20 PUSH1 0x0 KECCAK256 SWAP1 PUSH1 0x5 ADD PUSH1 0x6 SWAP1 DIV DUP2 ADD SWAP3 DUP3 ISZERO PUSH2 0x3A22 JUMPI PUSH1 0x0 MSTORE PUSH1 0x20 PUSH1 0x0 KECCAK256 SWAP2 PUSH1 0x5 ADD PUSH1 0x6 SWAP1 DIV DUP3 ADD JUMPDEST DUP3 DUP2 GT ISZERO PUSH2 0x3A22 JUMPI DUP3 SLOAD DUP3 SSTORE SWAP2 PUSH1 0x1 ADD SWAP2 SWAP1 PUSH1 0x1 ADD SWAP1 PUSH2 0x3A07 JUMP JUMPDEST POP PUSH2 0x39D0 SWAP3 SWAP2 POP PUSH2 0x3ABA JUMP JUMPDEST DUP3 DUP1 SLOAD DUP3 DUP3 SSTORE SWAP1 PUSH1 0x0 MSTORE PUSH1 0x20 PUSH1 0x0 KECCAK256 SWAP1 DUP2 ADD SWAP3 DUP3 ISZERO PUSH2 0x3A22 JUMPI PUSH1 0x0 MSTORE PUSH1 0x20 PUSH1 0x0 KECCAK256 SWAP2 DUP3 ADD DUP3 DUP2 GT ISZERO PUSH2 0x3A22 JUMPI DUP3 SLOAD DUP3 SSTORE SWAP2 PUSH1 0x1 ADD SWAP2 SWAP1 PUSH1 0x1 ADD SWAP1 PUSH2 0x3A07 JUMP JUMPDEST JUMPDEST DUP1 DUP3 GT ISZERO PUSH2 0x39D0 JUMPI PUSH1 0x0 DUP1 DUP3 SSTORE PUSH1 0x1 DUP3 ADD DUP1 SLOAD PUSH1 0x1 PUSH1 0x1 PUSH1 0xA0 SHL SUB NOT SWAP1 DUP2 AND SWAP1 SWAP2 SSTORE PUSH1 0x2 DUP4 ADD DUP1 SLOAD SWAP1 SWAP2 AND SWAP1 SSTORE PUSH1 0x3 DUP3 ADD DUP1 SLOAD PUSH1 0x1 PUSH1 0x1 PUSH1 0xD8 SHL SUB NOT AND SWAP1 SSTORE PUSH1 0x4 DUP3 ADD SSTORE PUSH1 0x5 ADD PUSH2 0x3A6E JUMP JUMPDEST JUMPDEST DUP1 DUP3 GT ISZERO PUSH2 0x39D0 JUMPI PUSH1 0x0 DUP2 SSTORE PUSH1 0x1 ADD PUSH2 0x3ABB JUMP JUMPDEST PUSH1 0x1 PUSH1 0x1 PUSH1 0xA0 SHL SUB DUP2 AND DUP2 EQ PUSH2 0x22AA JUMPI PUSH1 0x0 DUP1 REVERT JUMPDEST PUSH1 0x0 PUSH1 0x20 DUP3 DUP5 SUB SLT ISZERO PUSH2 0x3AF6 JUMPI PUSH1 0x0 DUP1 REVERT JUMPDEST DUP2 CALLDATALOAD PUSH2 0x3B01 DUP2 PUSH2 0x3ACF JUMP JUMPDEST SWAP4 SWAP3 POP POP POP JUMP JUMPDEST PUSH1 0x20 DUP1 DUP3 MSTORE DUP3 MLOAD DUP3 DUP3 ADD DUP2 SWAP1 MSTORE PUSH1 0x0 SWAP2 SWAP1 PUSH1 0x40 SWAP1 DUP2 DUP6 ADD SWAP1 DUP7 DUP5 ADD DUP6 JUMPDEST DUP3 DUP2 LT ISZERO PUSH2 0x3BA3 JUMPI DUP2 MLOAD DUP1 MLOAD DUP6 MSTORE DUP7 DUP2 ADD MLOAD PUSH1 0x1 PUSH1 0x1 PUSH1 0xA0 SHL SUB SWAP1 DUP2 AND DUP9 DUP8 ADD MSTORE DUP7 DUP3 ADD MLOAD DUP2 AND DUP8 DUP8 ADD MSTORE PUSH1 0x60 DUP1 DUP4 ADD MLOAD SWAP1 SWAP2 AND SWAP1 DUP7 ADD MSTORE PUSH1 0x80 DUP1 DUP3 ADD MLOAD PUSH5 0xFFFFFFFFFF AND SWAP1 DUP7 ADD MSTORE PUSH1 0xA0 DUP1 DUP3 ADD MLOAD ISZERO ISZERO SWAP1 DUP7 ADD MSTORE PUSH1 0xC0 DUP1 DUP3 ADD MLOAD ISZERO ISZERO SWAP1 DUP7 ADD MSTORE PUSH1 0xE0 SWAP1 DUP2 ADD MLOAD SWAP1 DUP6 ADD MSTORE PUSH2 0x100 SWAP1 SWAP4 ADD SWAP3 SWAP1 DUP6 ADD SWAP1 PUSH1 0x1 ADD PUSH2 0x3B25 JUMP JUMPDEST POP SWAP2 SWAP8 SWAP7 POP POP POP POP POP POP POP JUMP JUMPDEST PUSH1 0x0 PUSH1 0x20 DUP3 DUP5 SUB SLT ISZERO PUSH2 0x3BC2 JUMPI PUSH1 0x0 DUP1 REVERT JUMPDEST POP CALLDATALOAD SWAP2 SWAP1 POP JUMP JUMPDEST DUP1 CALLDATALOAD PUSH5 0xFFFFFFFFFF DUP2 AND DUP2 EQ PUSH2 0x2781 JUMPI PUSH1 0x0 DUP1 REVERT JUMPDEST PUSH1 0x0 DUP1 PUSH1 0x0 DUP1 PUSH1 0x0 DUP6 DUP8 SUB PUSH2 0x160 DUP2 SLT ISZERO PUSH2 0x3BF8 JUMPI PUSH1 0x0 DUP1 REVERT JUMPDEST DUP7 CALLDATALOAD PUSH2 0x3C03 DUP2 PUSH2 0x3ACF JUMP JUMPDEST SWAP6 POP PUSH2 0x3C11 PUSH1 0x20 DUP9 ADD PUSH2 0x3BC9 JUMP JUMPDEST SWAP5 POP PUSH1 0x40 DUP8 ADD CALLDATALOAD SWAP4 POP PUSH1 0x60 DUP8 ADD CALLDATALOAD PUSH2 0x3C28 DUP2 PUSH2 0x3ACF JUMP JUMPDEST SWAP3 POP PUSH1 0xE0 PUSH1 0x7F NOT DUP3 ADD SLT ISZERO PUSH2 0x3C3C JUMPI PUSH1 0x0 DUP1 REVERT JUMPDEST POP PUSH1 0x80 DUP7 ADD SWAP1 POP SWAP3 SWAP6 POP SWAP3 SWAP6 SWAP1 SWAP4 POP JUMP JUMPDEST PUSH1 0x0 DUP2 MLOAD DUP1 DUP5 MSTORE PUSH1 0x20 DUP1 DUP6 ADD SWAP5 POP DUP1 DUP5 ADD PUSH1 0x0 JUMPDEST DUP4 DUP2 LT ISZERO PUSH2 0x3C86 JUMPI DUP2 MLOAD PUSH1 0x1 PUSH1 0x1 PUSH1 0xA0 SHL SUB AND DUP8 MSTORE SWAP6 DUP3 ADD SWAP6 SWAP1 DUP3 ADD SWAP1 PUSH1 0x1 ADD PUSH2 0x3C61 JUMP JUMPDEST POP SWAP5 SWAP6 SWAP5 POP POP POP POP POP JUMP JUMPDEST PUSH1 0x0 PUSH1 0x20 DUP1 DUP4 ADD DUP2 DUP5 MSTORE DUP1 DUP6 MLOAD DUP1 DUP4 MSTORE PUSH1 0x40 SWAP3 POP DUP3 DUP7 ADD SWAP2 POP DUP3 DUP2 PUSH1 0x5 SHL DUP8 ADD ADD DUP5 DUP9 ADD PUSH1 0x0 DUP1 JUMPDEST DUP5 DUP2 LT ISZERO PUSH2 0x3D5A JUMPI DUP10 DUP5 SUB PUSH1 0x3F NOT ADD DUP7 MSTORE DUP3 MLOAD DUP1 MLOAD PUSH1 0x1 PUSH1 0x1 PUSH1 0xA0 SHL SUB AND DUP6 MSTORE DUP9 DUP2 ADD MLOAD ISZERO ISZERO DUP10 DUP7 ADD MSTORE DUP8 DUP2 ADD MLOAD PUSH1 0x80 DUP10 DUP8 ADD DUP2 SWAP1 MSTORE DUP2 MLOAD SWAP1 DUP8 ADD DUP2 SWAP1 MSTORE PUSH1 0xA0 DUP8 ADD SWAP2 DUP12 ADD SWAP1 DUP6 SWAP1 JUMPDEST DUP1 DUP3 LT ISZERO PUSH2 0x3D29 JUMPI DUP3 MLOAD PUSH5 0xFFFFFFFFFF AND DUP5 MSTORE SWAP3 DUP13 ADD SWAP3 SWAP2 DUP13 ADD SWAP2 PUSH1 0x1 SWAP2 SWAP1 SWAP2 ADD SWAP1 PUSH2 0x3D02 JUMP JUMPDEST POP POP POP PUSH1 0x60 DUP1 DUP4 ADD MLOAD SWAP3 POP DUP7 DUP3 SUB DUP2 DUP9 ADD MSTORE POP PUSH2 0x3D46 DUP2 DUP4 PUSH2 0x3C4D JUMP JUMPDEST SWAP8 DUP11 ADD SWAP8 SWAP6 POP POP POP SWAP2 DUP8 ADD SWAP2 PUSH1 0x1 ADD PUSH2 0x3CB9 JUMP JUMPDEST POP SWAP2 SWAP10 SWAP9 POP POP POP POP POP POP POP POP POP JUMP JUMPDEST PUSH4 0x4E487B71 PUSH1 0xE0 SHL PUSH1 0x0 MSTORE PUSH1 0x41 PUSH1 0x4 MSTORE PUSH1 0x24 PUSH1 0x0 REVERT JUMPDEST PUSH1 0x40 MLOAD PUSH1 0x80 DUP2 ADD PUSH8 0xFFFFFFFFFFFFFFFF DUP2 GT DUP3 DUP3 LT OR ISZERO PUSH2 0x3DA2 JUMPI PUSH2 0x3DA2 PUSH2 0x3D69 JUMP JUMPDEST PUSH1 0x40 MSTORE SWAP1 JUMP JUMPDEST PUSH1 0x40 MLOAD PUSH1 0x1F DUP3 ADD PUSH1 0x1F NOT AND DUP2 ADD PUSH8 0xFFFFFFFFFFFFFFFF DUP2 GT DUP3 DUP3 LT OR ISZERO PUSH2 0x3DD1 JUMPI PUSH2 0x3DD1 PUSH2 0x3D69 JUMP JUMPDEST PUSH1 0x40 MSTORE SWAP2 SWAP1 POP JUMP JUMPDEST PUSH1 0x0 PUSH1 0x20 DUP1 DUP4 DUP6 SUB SLT ISZERO PUSH2 0x3DEC JUMPI PUSH1 0x0 DUP1 REVERT JUMPDEST DUP3 CALLDATALOAD PUSH8 0xFFFFFFFFFFFFFFFF DUP1 DUP3 GT ISZERO PUSH2 0x3E04 JUMPI PUSH1 0x0 DUP1 REVERT JUMPDEST DUP2 DUP6 ADD SWAP2 POP DUP6 PUSH1 0x1F DUP4 ADD SLT PUSH2 0x3E18 JUMPI PUSH1 0x0 DUP1 REVERT JUMPDEST DUP2 CALLDATALOAD DUP2 DUP2 GT ISZERO PUSH2 0x3E2A JUMPI PUSH2 0x3E2A PUSH2 0x3D69 JUMP JUMPDEST PUSH2 0x3E38 DUP5 DUP3 PUSH1 0x5 SHL ADD PUSH2 0x3DA8 JUMP JUMPDEST DUP2 DUP2 MSTORE DUP5 DUP2 ADD SWAP3 POP PUSH1 0x7 SWAP2 SWAP1 SWAP2 SHL DUP4 ADD DUP5 ADD SWAP1 DUP8 DUP3 GT ISZERO PUSH2 0x3E58 JUMPI PUSH1 0x0 DUP1 REVERT JUMPDEST SWAP3 DUP5 ADD SWAP3 JUMPDEST DUP2 DUP5 LT ISZERO PUSH2 0x3EC9 JUMPI PUSH1 0x80 DUP5 DUP10 SUB SLT ISZERO PUSH2 0x3E76 JUMPI PUSH1 0x0 DUP1 DUP2 REVERT JUMPDEST PUSH2 0x3E7E PUSH2 0x3D7F JUMP JUMPDEST DUP5 CALLDATALOAD PUSH2 0x3E89 DUP2 PUSH2 0x3ACF JUMP JUMPDEST DUP2 MSTORE PUSH2 0x3E96 DUP6 DUP8 ADD PUSH2 0x3BC9 JUMP JUMPDEST DUP2 DUP8 ADD MSTORE PUSH1 0x40 DUP6 DUP2 ADD CALLDATALOAD SWAP1 DUP3 ADD MSTORE PUSH1 0x60 DUP1 DUP7 ADD CALLDATALOAD PUSH2 0x3EB3 DUP2 PUSH2 0x3ACF JUMP JUMPDEST SWAP1 DUP3 ADD MSTORE DUP4 MSTORE PUSH1 0x80 SWAP4 SWAP1 SWAP4 ADD SWAP3 SWAP2 DUP5 ADD SWAP2 PUSH2 0x3E5D JUMP JUMPDEST SWAP8 SWAP7 POP POP POP POP POP POP POP JUMP JUMPDEST PUSH1 0x0 DUP1 PUSH1 0x40 DUP4 DUP6 SUB SLT ISZERO PUSH2 0x3EE7 JUMPI PUSH1 0x0 DUP1 REVERT JUMPDEST DUP3 CALLDATALOAD SWAP2 POP PUSH2 0x3EF7 PUSH1 0x20 DUP5 ADD PUSH2 0x3BC9 JUMP JUMPDEST SWAP1 POP SWAP3 POP SWAP3 SWAP1 POP JUMP JUMPDEST PUSH1 0x20 DUP1 DUP3 MSTORE PUSH1 0x1A SWAP1 DUP3 ADD MSTORE PUSH32 0x4D75737420686176652061646D696E2070726976696C65676573000000000000 PUSH1 0x40 DUP3 ADD MSTORE PUSH1 0x60 ADD SWAP1 JUMP JUMPDEST PUSH4 0x4E487B71 PUSH1 0xE0 SHL PUSH1 0x0 MSTORE PUSH1 0x32 PUSH1 0x4 MSTORE PUSH1 0x24 PUSH1 0x0 REVERT JUMPDEST PUSH4 0x4E487B71 PUSH1 0xE0 SHL PUSH1 0x0 MSTORE PUSH1 0x11 PUSH1 0x4 MSTORE PUSH1 0x24 PUSH1 0x0 REVERT JUMPDEST PUSH1 0x0 PUSH1 0x0 NOT DUP3 EQ ISZERO PUSH2 0x3F77 JUMPI PUSH2 0x3F77 PUSH2 0x3F4D JUMP JUMPDEST POP PUSH1 0x1 ADD SWAP1 JUMP JUMPDEST PUSH1 0x0 DUP3 DUP3 LT ISZERO PUSH2 0x3F90 JUMPI PUSH2 0x3F90 PUSH2 0x3F4D JUMP JUMPDEST POP SUB SWAP1 JUMP JUMPDEST PUSH1 0x0 DUP3 NOT DUP3 GT ISZERO PUSH2 0x3FA8 JUMPI PUSH2 0x3FA8 PUSH2 0x3F4D JUMP JUMPDEST POP ADD SWAP1 JUMP JUMPDEST PUSH4 0x4E487B71 PUSH1 0xE0 SHL PUSH1 0x0 MSTORE PUSH1 0x31 PUSH1 0x4 MSTORE PUSH1 0x24 PUSH1 0x0 REVERT JUMPDEST PUSH1 0x20 DUP1 DUP3 MSTORE PUSH1 0x27 SWAP1 DUP3 ADD MSTORE PUSH32 0x54696D6520616C726561647920636865636B656420666F722074686973207469 PUSH1 0x40 DUP3 ADD MSTORE PUSH7 0x1B59481CDB1BDD PUSH1 0xCA SHL PUSH1 0x60 DUP3 ADD MSTORE PUSH1 0x80 ADD SWAP1 JUMP JUMPDEST PUSH1 0x0 PUSH5 0xFFFFFFFFFF DUP1 DUP4 AND DUP2 DUP2 EQ ISZERO PUSH2 0x4025 JUMPI PUSH2 0x4025 PUSH2 0x3F4D JUMP JUMPDEST PUSH1 0x1 ADD SWAP4 SWAP3 POP POP POP JUMP JUMPDEST PUSH4 0x4E487B71 PUSH1 0xE0 SHL PUSH1 0x0 MSTORE PUSH1 0x12 PUSH1 0x4 MSTORE PUSH1 0x24 PUSH1 0x0 REVERT JUMPDEST PUSH1 0x0 PUSH5 0xFFFFFFFFFF DUP1 DUP5 AND DUP1 PUSH2 0x405D JUMPI PUSH2 0x405D PUSH2 0x402F JUMP JUMPDEST SWAP3 AND SWAP2 SWAP1 SWAP2 MOD SWAP3 SWAP2 POP POP JUMP JUMPDEST PUSH1 0x0 DUP2 PUSH1 0x0 NOT DIV DUP4 GT DUP3 ISZERO ISZERO AND ISZERO PUSH2 0x4083 JUMPI PUSH2 0x4083 PUSH2 0x3F4D JUMP JUMPDEST POP MUL SWAP1 JUMP JUMPDEST PUSH1 0x0 DUP3 PUSH2 0x4097 JUMPI PUSH2 0x4097 PUSH2 0x402F JUMP JUMPDEST POP DIV SWAP1 JUMP JUMPDEST PUSH1 0x20 DUP1 DUP3 MSTORE PUSH1 0x24 SWAP1 DUP3 ADD MSTORE PUSH32 0x4E6F7420656E6F756768204554482073656E742077697468207472616E736163 PUSH1 0x40 DUP3 ADD MSTORE PUSH4 0x3A34B7B7 PUSH1 0xE1 SHL PUSH1 0x60 DUP3 ADD MSTORE PUSH1 0x80 ADD SWAP1 JUMP JUMPDEST PUSH1 0x20 DUP1 DUP3 MSTORE PUSH1 0x25 SWAP1 DUP3 ADD MSTORE PUSH32 0x20546F6B656E206E6F7420617070726F76656420666F72207468697320636F6E PUSH1 0x40 DUP3 ADD MSTORE PUSH5 0x1D1C9858DD PUSH1 0xDA SHL PUSH1 0x60 DUP3 ADD MSTORE PUSH1 0x80 ADD SWAP1 JUMP JUMPDEST PUSH1 0x0 PUSH1 0x20 DUP3 DUP5 SUB SLT ISZERO PUSH2 0x4137 JUMPI PUSH1 0x0 DUP1 REVERT JUMPDEST DUP2 CALLDATALOAD PUSH1 0xFF DUP2 AND DUP2 EQ PUSH2 0x3B01 JUMPI PUSH1 0x0 DUP1 REVERT JUMPDEST PUSH1 0x1 PUSH1 0x1 PUSH1 0xA0 SHL SUB SWAP4 DUP5 AND DUP2 MSTORE SWAP2 SWAP1 SWAP3 AND PUSH1 0x20 DUP3 ADD MSTORE PUSH1 0x40 DUP2 ADD SWAP2 SWAP1 SWAP2 MSTORE PUSH1 0x60 ADD SWAP1 JUMP JUMPDEST PUSH1 0x0 PUSH1 0x20 DUP3 DUP5 SUB SLT ISZERO PUSH2 0x417E JUMPI PUSH1 0x0 DUP1 REVERT JUMPDEST DUP2 MLOAD DUP1 ISZERO ISZERO DUP2 EQ PUSH2 0x3B01 JUMPI PUSH1 0x0 DUP1 REVERT JUMPDEST PUSH1 0x0 PUSH2 0xFFFF DUP1 DUP4 AND DUP2 DUP2 EQ ISZERO PUSH2 0x4025 JUMPI PUSH2 0x4025 PUSH2 0x3F4D JUMP JUMPDEST PUSH1 0x0 PUSH1 0x20 DUP3 DUP5 SUB SLT ISZERO PUSH2 0x41B8 JUMPI PUSH1 0x0 DUP1 REVERT JUMPDEST POP MLOAD SWAP2 SWAP1 POP JUMP JUMPDEST PUSH1 0x0 PUSH5 0xFFFFFFFFFF DUP4 DUP2 AND SWAP1 DUP4 AND DUP2 DUP2 LT ISZERO PUSH2 0x41DD JUMPI PUSH2 0x41DD PUSH2 0x3F4D JUMP JUMPDEST SUB SWAP4 SWAP3 POP POP POP JUMP JUMPDEST PUSH1 0x0 PUSH5 0xFFFFFFFFFF DUP1 DUP5 AND DUP1 PUSH2 0x41FD JUMPI PUSH2 0x41FD PUSH2 0x402F JUMP JUMPDEST SWAP3 AND SWAP2 SWAP1 SWAP2 DIV SWAP3 SWAP2 POP POP JUMP JUMPDEST PUSH1 0x0 PUSH5 0xFFFFFFFFFF DUP1 DUP4 AND DUP2 DUP6 AND DUP2 DUP4 DIV DUP2 GT DUP3 ISZERO ISZERO AND ISZERO PUSH2 0x422D JUMPI PUSH2 0x422D PUSH2 0x3F4D JUMP JUMPDEST MUL SWAP5 SWAP4 POP POP POP POP JUMP JUMPDEST PUSH1 0x0 PUSH5 0xFFFFFFFFFF DUP1 DUP4 AND DUP2 DUP6 AND DUP1 DUP4 SUB DUP3 GT ISZERO PUSH2 0x4256 JUMPI PUSH2 0x4256 PUSH2 0x3F4D JUMP JUMPDEST ADD SWAP5 SWAP4 POP POP POP POP JUMP INVALID LOG2 PUSH5 0x6970667358 0x22 SLT KECCAK256 EXTCODECOPY 0xAB 0xD3 XOR CALLDATASIZE PUSH15 0x88FE7D1F7FB9CA9E40B94464D8B475 NOT 0xEE XOR ADDMOD LT 0xAB PUSH4 0x70A3241E PUSH5 0x736F6C6343 STOP ADDMOD MULMOD STOP CALLER "},"methodIdentifiers":{"addBatchTransactions((address,uint40,uint256,address)[])":"d10fa144","addERC20Contract(address)":"ab7e0909","addTransaction(address,uint40,uint256,address,(address,address,uint256,uint256,uint8,bytes32,bytes32))":"cf0b5e45","allAccounts()":"cf783d8a","allTransactions()":"1ccb3371","cancelTransaction(bytes32,uint40)":"e9e1dbef","changeAdmin(address)":"8f283970","changeFee(uint256)":"6a1db1bf","checkTime()":"e0c6190d","getAccountTransactions()":"c682cce4","getFee()":"ced72f87","getTime()":"557ed1ba","getTransactionsByAccount(address)":"dc9961eb","removeERC20Contract(address)":"053149fa","sendTime()":"aa58a5b0","toggleContractActive()":"1385d24c"}}}}}