{"contracts/ClockTowerVerify.sol":{"ClockTowerVerify":{"abi":[{"inputs":[],"stateMutability":"payable","type":"constructor"},{"anonymous":false,"inputs":[{"indexed":true,"internalType":"bytes32","name":"id","type":"bytes32"},{"indexed":true,"internalType":"address","name":"provider","type":"address"},{"indexed":false,"internalType":"string","name":"domain","type":"string"},{"indexed":false,"internalType":"string","name":"url","type":"string"},{"indexed":false,"internalType":"string","name":"email","type":"string"},{"indexed":false,"internalType":"string","name":"phone","type":"string"}],"name":"Verify","type":"event"},{"stateMutability":"payable","type":"fallback"},{"inputs":[{"internalType":"address payable","name":"newAddress","type":"address"}],"name":"changeAdmin","outputs":[],"stateMutability":"nonpayable","type":"function"},{"inputs":[{"internalType":"uint256","name":"_fixed_fee","type":"uint256"}],"name":"changeSystemFee","outputs":[],"stateMutability":"nonpayable","type":"function"},{"inputs":[{"internalType":"address","name":"provider","type":"address"},{"internalType":"bytes32","name":"id","type":"bytes32"}],"name":"checkIfProvider","outputs":[{"internalType":"bool","name":"","type":"bool"}],"stateMutability":"view","type":"function"},{"inputs":[],"name":"collectFees","outputs":[],"stateMutability":"nonpayable","type":"function"},{"inputs":[],"name":"systemFee","outputs":[{"internalType":"uint256","name":"","type":"uint256"}],"stateMutability":"view","type":"function"},{"inputs":[{"internalType":"bool","name":"status","type":"bool"}],"name":"systemFeeActivate","outputs":[],"stateMutability":"nonpayable","type":"function"},{"stateMutability":"payable","type":"receive"}],"evm":{"bytecode":{"linkReferences":{},"object":"6080604052662386f26fc100005f55600180546001600160a81b03191673f39fd6e51aad88f6f4ce6ab8827279cfffb92266179055600280546001600160a01b03191673e7f1725e7734ce288f8367e1bb143e90bb3f05121790556105c9806100675f395ff3fe608060405260043610610062575f3560e01c80639889552e1161003f5780639889552e146100d0578063c8796572146100ef578063f82ac7a31461010357005b80630bec99e81461006b5780631f17ee551461008a5780638f283970146100b157005b3661006957005b005b348015610076575f80fd5b506100696100853660046102d8565b610132565b348015610095575f80fd5b5061009e5f5481565b6040519081526020015b60405180910390f35b3480156100bc575f80fd5b506100696100cb366004610303565b61013e565b3480156100db575f80fd5b506100696100ea366004610332565b610187565b3480156100fa575f80fd5b506100696101ad565b34801561010e575f80fd5b5061012261011d36600461034d565b610203565b60405190151581526020016100a8565b61013a610295565b5f55565b610146610295565b6001600160a01b038116610158575f80fd5b6001805473ffffffffffffffffffffffffffffffffffffffff19166001600160a01b0392909216919091179055565b61018f610295565b60018054911515600160a01b0260ff60a01b19909216919091179055565b6101b5610295565b611388471115610201576001546001600160a01b03166108fc6101da61138847610377565b6040518115909202915f818181858888f193505050501580156101ff573d5f803e3d5ffd5b505b565b60025460405163fbcbc0f160e01b81526001600160a01b0384811660048301525f92839291169063fbcbc0f1906024015f60405180830381865afa15801561024d573d5f803e3d5ffd5b505050506040513d5f823e601f3d908101601f1916820160405261027491908101906104e2565b905080602001511561028a57600191505061028f565b5f9150505b92915050565b6001546001600160a01b031633146102015760405162461bcd60e51b8152602060048201526002602482015261189b60f11b604482015260640160405180910390fd5b5f602082840312156102e8575f80fd5b5035919050565b6001600160a01b03811681146101ff575f80fd5b5f60208284031215610313575f80fd5b813561031e816102ef565b9392505050565b80151581146101ff575f80fd5b5f60208284031215610342575f80fd5b813561031e81610325565b5f806040838503121561035e575f80fd5b8235610369816102ef565b946020939093013593505050565b8181038181111561028f57634e487b7160e01b5f52601160045260245ffd5b634e487b7160e01b5f52604160045260245ffd5b6040516080810167ffffffffffffffff811182821017156103cd576103cd610396565b60405290565b604051601f8201601f1916810167ffffffffffffffff811182821017156103fc576103fc610396565b604052919050565b5f82601f830112610413575f80fd5b8151602067ffffffffffffffff82111561042f5761042f610396565b61043d818360051b016103d3565b82815260079290921b8401810191818101908684111561045b575f80fd5b8286015b848110156104d75760808189031215610477575f8081fd5b61047f6103aa565b815181528482015161ffff81168114610497575f8081fd5b81860152604082810151600481106104ae575f8081fd5b90820152606082810151600381106104c5575f8081fd5b9082015283529183019160800161045f565b509695505050505050565b5f602082840312156104f2575f80fd5b815167ffffffffffffffff80821115610509575f80fd5b908301906080828603121561051c575f80fd5b6105246103aa565b825161052f816102ef565b8152602083015161053f81610325565b6020820152604083015182811115610555575f80fd5b61056187828601610404565b604083015250606083015182811115610578575f80fd5b61058487828601610404565b6060830152509594505050505056fea2646970667358221220ccbfc4bbe8034b545fe4d98f96d702fe455bfd8f51f8e90fe35a1fd4b0e79f1d64736f6c63430008150033","opcodes":"PUSH1 0x80 PUSH1 0x40 MSTORE PUSH7 0x2386F26FC10000 PUSH0 SSTORE PUSH1 0x1 DUP1 SLOAD PUSH1 0x1 PUSH1 0x1 PUSH1 0xA8 SHL SUB NOT AND PUSH20 0xF39FD6E51AAD88F6F4CE6AB8827279CFFFB92266 OR SWAP1 SSTORE PUSH1 0x2 DUP1 SLOAD PUSH1 0x1 PUSH1 0x1 PUSH1 0xA0 SHL SUB NOT AND PUSH20 0xE7F1725E7734CE288F8367E1BB143E90BB3F0512 OR SWAP1 SSTORE PUSH2 0x5C9 DUP1 PUSH2 0x67 PUSH0 CODECOPY PUSH0 RETURN INVALID PUSH1 0x80 PUSH1 0x40 MSTORE PUSH1 0x4 CALLDATASIZE LT PUSH2 0x62 JUMPI PUSH0 CALLDATALOAD PUSH1 0xE0 SHR DUP1 PUSH4 0x9889552E GT PUSH2 0x3F JUMPI DUP1 PUSH4 0x9889552E EQ PUSH2 0xD0 JUMPI DUP1 PUSH4 0xC8796572 EQ PUSH2 0xEF JUMPI DUP1 PUSH4 0xF82AC7A3 EQ PUSH2 0x103 JUMPI STOP JUMPDEST DUP1 PUSH4 0xBEC99E8 EQ PUSH2 0x6B JUMPI DUP1 PUSH4 0x1F17EE55 EQ PUSH2 0x8A JUMPI DUP1 PUSH4 0x8F283970 EQ PUSH2 0xB1 JUMPI STOP JUMPDEST CALLDATASIZE PUSH2 0x69 JUMPI STOP JUMPDEST STOP JUMPDEST CALLVALUE DUP1 ISZERO PUSH2 0x76 JUMPI PUSH0 DUP1 REVERT JUMPDEST POP PUSH2 0x69 PUSH2 0x85 CALLDATASIZE PUSH1 0x4 PUSH2 0x2D8 JUMP JUMPDEST PUSH2 0x132 JUMP JUMPDEST CALLVALUE DUP1 ISZERO PUSH2 0x95 JUMPI PUSH0 DUP1 REVERT JUMPDEST POP PUSH2 0x9E PUSH0 SLOAD DUP2 JUMP JUMPDEST PUSH1 0x40 MLOAD SWAP1 DUP2 MSTORE PUSH1 0x20 ADD JUMPDEST PUSH1 0x40 MLOAD DUP1 SWAP2 SUB SWAP1 RETURN JUMPDEST CALLVALUE DUP1 ISZERO PUSH2 0xBC JUMPI PUSH0 DUP1 REVERT JUMPDEST POP PUSH2 0x69 PUSH2 0xCB CALLDATASIZE PUSH1 0x4 PUSH2 0x303 JUMP JUMPDEST PUSH2 0x13E JUMP JUMPDEST CALLVALUE DUP1 ISZERO PUSH2 0xDB JUMPI PUSH0 DUP1 REVERT JUMPDEST POP PUSH2 0x69 PUSH2 0xEA CALLDATASIZE PUSH1 0x4 PUSH2 0x332 JUMP JUMPDEST PUSH2 0x187 JUMP JUMPDEST CALLVALUE DUP1 ISZERO PUSH2 0xFA JUMPI PUSH0 DUP1 REVERT JUMPDEST POP PUSH2 0x69 PUSH2 0x1AD JUMP JUMPDEST CALLVALUE DUP1 ISZERO PUSH2 0x10E JUMPI PUSH0 DUP1 REVERT JUMPDEST POP PUSH2 0x122 PUSH2 0x11D CALLDATASIZE PUSH1 0x4 PUSH2 0x34D JUMP JUMPDEST PUSH2 0x203 JUMP JUMPDEST PUSH1 0x40 MLOAD SWAP1 ISZERO ISZERO DUP2 MSTORE PUSH1 0x20 ADD PUSH2 0xA8 JUMP JUMPDEST PUSH2 0x13A PUSH2 0x295 JUMP JUMPDEST PUSH0 SSTORE JUMP JUMPDEST PUSH2 0x146 PUSH2 0x295 JUMP JUMPDEST PUSH1 0x1 PUSH1 0x1 PUSH1 0xA0 SHL SUB DUP2 AND PUSH2 0x158 JUMPI PUSH0 DUP1 REVERT JUMPDEST PUSH1 0x1 DUP1 SLOAD PUSH20 0xFFFFFFFFFFFFFFFFFFFFFFFFFFFFFFFFFFFFFFFF NOT AND PUSH1 0x1 PUSH1 0x1 PUSH1 0xA0 SHL SUB SWAP3 SWAP1 SWAP3 AND SWAP2 SWAP1 SWAP2 OR SWAP1 SSTORE JUMP JUMPDEST PUSH2 0x18F PUSH2 0x295 JUMP JUMPDEST PUSH1 0x1 DUP1 SLOAD SWAP2 ISZERO ISZERO PUSH1 0x1 PUSH1 0xA0 SHL MUL PUSH1 0xFF PUSH1 0xA0 SHL NOT SWAP1 SWAP3 AND SWAP2 SWAP1 SWAP2 OR SWAP1 SSTORE JUMP JUMPDEST PUSH2 0x1B5 PUSH2 0x295 JUMP JUMPDEST PUSH2 0x1388 SELFBALANCE GT ISZERO PUSH2 0x201 JUMPI PUSH1 0x1 SLOAD PUSH1 0x1 PUSH1 0x1 PUSH1 0xA0 SHL SUB AND PUSH2 0x8FC PUSH2 0x1DA PUSH2 0x1388 SELFBALANCE PUSH2 0x377 JUMP JUMPDEST PUSH1 0x40 MLOAD DUP2 ISZERO SWAP1 SWAP3 MUL SWAP2 PUSH0 DUP2 DUP2 DUP2 DUP6 DUP9 DUP9 CALL SWAP4 POP POP POP POP ISZERO DUP1 ISZERO PUSH2 0x1FF JUMPI RETURNDATASIZE PUSH0 DUP1 RETURNDATACOPY RETURNDATASIZE PUSH0 REVERT JUMPDEST POP JUMPDEST JUMP JUMPDEST PUSH1 0x2 SLOAD PUSH1 0x40 MLOAD PUSH4 0xFBCBC0F1 PUSH1 0xE0 SHL DUP2 MSTORE PUSH1 0x1 PUSH1 0x1 PUSH1 0xA0 SHL SUB DUP5 DUP2 AND PUSH1 0x4 DUP4 ADD MSTORE PUSH0 SWAP3 DUP4 SWAP3 SWAP2 AND SWAP1 PUSH4 0xFBCBC0F1 SWAP1 PUSH1 0x24 ADD PUSH0 PUSH1 0x40 MLOAD DUP1 DUP4 SUB DUP2 DUP7 GAS STATICCALL ISZERO DUP1 ISZERO PUSH2 0x24D JUMPI RETURNDATASIZE PUSH0 DUP1 RETURNDATACOPY RETURNDATASIZE PUSH0 REVERT JUMPDEST POP POP POP POP PUSH1 0x40 MLOAD RETURNDATASIZE PUSH0 DUP3 RETURNDATACOPY PUSH1 0x1F RETURNDATASIZE SWAP1 DUP2 ADD PUSH1 0x1F NOT AND DUP3 ADD PUSH1 0x40 MSTORE PUSH2 0x274 SWAP2 SWAP1 DUP2 ADD SWAP1 PUSH2 0x4E2 JUMP JUMPDEST SWAP1 POP DUP1 PUSH1 0x20 ADD MLOAD ISZERO PUSH2 0x28A JUMPI PUSH1 0x1 SWAP2 POP POP PUSH2 0x28F JUMP JUMPDEST PUSH0 SWAP2 POP POP JUMPDEST SWAP3 SWAP2 POP POP JUMP JUMPDEST PUSH1 0x1 SLOAD PUSH1 0x1 PUSH1 0x1 PUSH1 0xA0 SHL SUB AND CALLER EQ PUSH2 0x201 JUMPI PUSH1 0x40 MLOAD PUSH3 0x461BCD PUSH1 0xE5 SHL DUP2 MSTORE PUSH1 0x20 PUSH1 0x4 DUP3 ADD MSTORE PUSH1 0x2 PUSH1 0x24 DUP3 ADD MSTORE PUSH2 0x189B PUSH1 0xF1 SHL PUSH1 0x44 DUP3 ADD MSTORE PUSH1 0x64 ADD PUSH1 0x40 MLOAD DUP1 SWAP2 SUB SWAP1 REVERT JUMPDEST PUSH0 PUSH1 0x20 DUP3 DUP5 SUB SLT ISZERO PUSH2 0x2E8 JUMPI PUSH0 DUP1 REVERT JUMPDEST POP CALLDATALOAD SWAP2 SWAP1 POP JUMP JUMPDEST PUSH1 0x1 PUSH1 0x1 PUSH1 0xA0 SHL SUB DUP2 AND DUP2 EQ PUSH2 0x1FF JUMPI PUSH0 DUP1 REVERT JUMPDEST PUSH0 PUSH1 0x20 DUP3 DUP5 SUB SLT ISZERO PUSH2 0x313 JUMPI PUSH0 DUP1 REVERT JUMPDEST DUP2 CALLDATALOAD PUSH2 0x31E DUP2 PUSH2 0x2EF JUMP JUMPDEST SWAP4 SWAP3 POP POP POP JUMP JUMPDEST DUP1 ISZERO ISZERO DUP2 EQ PUSH2 0x1FF JUMPI PUSH0 DUP1 REVERT JUMPDEST PUSH0 PUSH1 0x20 DUP3 DUP5 SUB SLT ISZERO PUSH2 0x342 JUMPI PUSH0 DUP1 REVERT JUMPDEST DUP2 CALLDATALOAD PUSH2 0x31E DUP2 PUSH2 0x325 JUMP JUMPDEST PUSH0 DUP1 PUSH1 0x40 DUP4 DUP6 SUB SLT ISZERO PUSH2 0x35E JUMPI PUSH0 DUP1 REVERT JUMPDEST DUP3 CALLDATALOAD PUSH2 0x369 DUP2 PUSH2 0x2EF JUMP JUMPDEST SWAP5 PUSH1 0x20 SWAP4 SWAP1 SWAP4 ADD CALLDATALOAD SWAP4 POP POP POP JUMP JUMPDEST DUP2 DUP2 SUB DUP2 DUP2 GT ISZERO PUSH2 0x28F JUMPI PUSH4 0x4E487B71 PUSH1 0xE0 SHL PUSH0 MSTORE PUSH1 0x11 PUSH1 0x4 MSTORE PUSH1 0x24 PUSH0 REVERT JUMPDEST PUSH4 0x4E487B71 PUSH1 0xE0 SHL PUSH0 MSTORE PUSH1 0x41 PUSH1 0x4 MSTORE PUSH1 0x24 PUSH0 REVERT JUMPDEST PUSH1 0x40 MLOAD PUSH1 0x80 DUP2 ADD PUSH8 0xFFFFFFFFFFFFFFFF DUP2 GT DUP3 DUP3 LT OR ISZERO PUSH2 0x3CD JUMPI PUSH2 0x3CD PUSH2 0x396 JUMP JUMPDEST PUSH1 0x40 MSTORE SWAP1 JUMP JUMPDEST PUSH1 0x40 MLOAD PUSH1 0x1F DUP3 ADD PUSH1 0x1F NOT AND DUP2 ADD PUSH8 0xFFFFFFFFFFFFFFFF DUP2 GT DUP3 DUP3 LT OR ISZERO PUSH2 0x3FC JUMPI PUSH2 0x3FC PUSH2 0x396 JUMP JUMPDEST PUSH1 0x40 MSTORE SWAP2 SWAP1 POP JUMP JUMPDEST PUSH0 DUP3 PUSH1 0x1F DUP4 ADD SLT PUSH2 0x413 JUMPI PUSH0 DUP1 REVERT JUMPDEST DUP2 MLOAD PUSH1 0x20 PUSH8 0xFFFFFFFFFFFFFFFF DUP3 GT ISZERO PUSH2 0x42F JUMPI PUSH2 0x42F PUSH2 0x396 JUMP JUMPDEST PUSH2 0x43D DUP2 DUP4 PUSH1 0x5 SHL ADD PUSH2 0x3D3 JUMP JUMPDEST DUP3 DUP2 MSTORE PUSH1 0x7 SWAP3 SWAP1 SWAP3 SHL DUP5 ADD DUP2 ADD SWAP2 DUP2 DUP2 ADD SWAP1 DUP7 DUP5 GT ISZERO PUSH2 0x45B JUMPI PUSH0 DUP1 REVERT JUMPDEST DUP3 DUP7 ADD JUMPDEST DUP5 DUP2 LT ISZERO PUSH2 0x4D7 JUMPI PUSH1 0x80 DUP2 DUP10 SUB SLT ISZERO PUSH2 0x477 JUMPI PUSH0 DUP1 DUP2 REVERT JUMPDEST PUSH2 0x47F PUSH2 0x3AA JUMP JUMPDEST DUP2 MLOAD DUP2 MSTORE DUP5 DUP3 ADD MLOAD PUSH2 0xFFFF DUP2 AND DUP2 EQ PUSH2 0x497 JUMPI PUSH0 DUP1 DUP2 REVERT JUMPDEST DUP2 DUP7 ADD MSTORE PUSH1 0x40 DUP3 DUP2 ADD MLOAD PUSH1 0x4 DUP2 LT PUSH2 0x4AE JUMPI PUSH0 DUP1 DUP2 REVERT JUMPDEST SWAP1 DUP3 ADD MSTORE PUSH1 0x60 DUP3 DUP2 ADD MLOAD PUSH1 0x3 DUP2 LT PUSH2 0x4C5 JUMPI PUSH0 DUP1 DUP2 REVERT JUMPDEST SWAP1 DUP3 ADD MSTORE DUP4 MSTORE SWAP2 DUP4 ADD SWAP2 PUSH1 0x80 ADD PUSH2 0x45F JUMP JUMPDEST POP SWAP7 SWAP6 POP POP POP POP POP POP JUMP JUMPDEST PUSH0 PUSH1 0x20 DUP3 DUP5 SUB SLT ISZERO PUSH2 0x4F2 JUMPI PUSH0 DUP1 REVERT JUMPDEST DUP2 MLOAD PUSH8 0xFFFFFFFFFFFFFFFF DUP1 DUP3 GT ISZERO PUSH2 0x509 JUMPI PUSH0 DUP1 REVERT JUMPDEST SWAP1 DUP4 ADD SWAP1 PUSH1 0x80 DUP3 DUP7 SUB SLT ISZERO PUSH2 0x51C JUMPI PUSH0 DUP1 REVERT JUMPDEST PUSH2 0x524 PUSH2 0x3AA JUMP JUMPDEST DUP3 MLOAD PUSH2 0x52F DUP2 PUSH2 0x2EF JUMP JUMPDEST DUP2 MSTORE PUSH1 0x20 DUP4 ADD MLOAD PUSH2 0x53F DUP2 PUSH2 0x325 JUMP JUMPDEST PUSH1 0x20 DUP3 ADD MSTORE PUSH1 0x40 DUP4 ADD MLOAD DUP3 DUP2 GT ISZERO PUSH2 0x555 JUMPI PUSH0 DUP1 REVERT JUMPDEST PUSH2 0x561 DUP8 DUP3 DUP7 ADD PUSH2 0x404 JUMP JUMPDEST PUSH1 0x40 DUP4 ADD MSTORE POP PUSH1 0x60 DUP4 ADD MLOAD DUP3 DUP2 GT ISZERO PUSH2 0x578 JUMPI PUSH0 DUP1 REVERT JUMPDEST PUSH2 0x584 DUP8 DUP3 DUP7 ADD PUSH2 0x404 JUMP JUMPDEST PUSH1 0x60 DUP4 ADD MSTORE POP SWAP6 SWAP5 POP POP POP POP POP JUMP INVALID LOG2 PUSH5 0x6970667358 0x22 SLT KECCAK256 0xCC 0xBF 0xC4 0xBB 0xE8 SUB 0x4B SLOAD PUSH0 0xE4 0xD9 DUP16 SWAP7 0xD7 MUL INVALID GASLIMIT JUMPDEST REVERT DUP16 MLOAD 0xF8 0xE9 0xF 0xE3 GAS 0x1F 0xD4 0xB0 0xE7 SWAP16 SAR PUSH5 0x736F6C6343 STOP ADDMOD ISZERO STOP CALLER "},"methodIdentifiers":{"changeAdmin(address)":"8f283970","changeSystemFee(uint256)":"0bec99e8","checkIfProvider(address,bytes32)":"f82ac7a3","collectFees()":"c8796572","systemFee()":"1f17ee55","systemFeeActivate(bool)":"9889552e"}}}}}