{"contracts/ClockTowerSubscribe.sol":{"ClockTowerSubscribe":{"abi":[{"inputs":[{"internalType":"uint256","name":"callerFee_","type":"uint256"},{"internalType":"uint256","name":"systemFee_","type":"uint256"},{"internalType":"uint256","name":"maxRemits_","type":"uint256"},{"internalType":"bool","name":"allowSystemFee_","type":"bool"},{"internalType":"address","name":"admin_","type":"address"}],"stateMutability":"payable","type":"constructor"},{"anonymous":false,"inputs":[{"indexed":false,"internalType":"uint40","name":"timestamp","type":"uint40"},{"indexed":false,"internalType":"uint40","name":"checkedDay","type":"uint40"},{"indexed":true,"internalType":"address","name":"caller","type":"address"},{"indexed":false,"internalType":"bool","name":"isFinished","type":"bool"}],"name":"CallerLog","type":"event"},{"anonymous":false,"inputs":[{"indexed":true,"internalType":"bytes32","name":"id","type":"bytes32"},{"indexed":true,"internalType":"address","name":"provider","type":"address"},{"indexed":true,"internalType":"uint40","name":"timestamp","type":"uint40"},{"indexed":false,"internalType":"string","name":"url","type":"string"},{"indexed":false,"internalType":"string","name":"description","type":"string"}],"name":"DetailsLog","type":"event"},{"anonymous":false,"inputs":[{"indexed":true,"internalType":"address","name":"provider","type":"address"},{"indexed":true,"internalType":"uint40","name":"timestamp","type":"uint40"},{"indexed":false,"internalType":"string","name":"description","type":"string"},{"indexed":false,"internalType":"string","name":"company","type":"string"},{"indexed":false,"internalType":"string","name":"url","type":"string"},{"indexed":false,"internalType":"string","name":"domain","type":"string"},{"indexed":false,"internalType":"string","name":"email","type":"string"},{"indexed":false,"internalType":"string","name":"misc","type":"string"}],"name":"ProvDetailsLog","type":"event"},{"anonymous":false,"inputs":[{"indexed":true,"internalType":"bytes32","name":"id","type":"bytes32"},{"indexed":true,"internalType":"address","name":"provider","type":"address"},{"indexed":true,"internalType":"address","name":"subscriber","type":"address"},{"indexed":false,"internalType":"uint40","name":"timestamp","type":"uint40"},{"indexed":false,"internalType":"uint256","name":"amount","type":"uint256"},{"indexed":false,"internalType":"address","name":"token","type":"address"},{"indexed":false,"internalType":"enum ClockTowerSubscribe.SubscriptEvent","name":"subScriptEvent","type":"uint8"}],"name":"SubLog","type":"event"},{"stateMutability":"payable","type":"fallback"},{"inputs":[{"internalType":"uint256","name":"","type":"uint256"}],"name":"accountLookup","outputs":[{"internalType":"address","name":"","type":"address"}],"stateMutability":"view","type":"function"},{"inputs":[{"internalType":"address","name":"erc20Contract","type":"address"},{"internalType":"uint256","name":"minimum","type":"uint256"},{"internalType":"uint8","name":"decimals","type":"uint8"}],"name":"addERC20Contract","outputs":[],"stateMutability":"nonpayable","type":"function"},{"inputs":[{"internalType":"address","name":"","type":"address"}],"name":"approvedERC20","outputs":[{"internalType":"address","name":"tokenAddress","type":"address"},{"internalType":"uint256","name":"minimum","type":"uint256"},{"internalType":"uint8","name":"decimals","type":"uint8"},{"internalType":"bool","name":"exists","type":"bool"}],"stateMutability":"view","type":"function"},{"inputs":[],"name":"callerFee","outputs":[{"internalType":"uint256","name":"","type":"uint256"}],"stateMutability":"view","type":"function"},{"inputs":[{"components":[{"internalType":"bytes32","name":"id","type":"bytes32"},{"internalType":"uint256","name":"amount","type":"uint256"},{"internalType":"address","name":"provider","type":"address"},{"internalType":"address","name":"token","type":"address"},{"internalType":"bool","name":"exists","type":"bool"},{"internalType":"bool","name":"cancelled","type":"bool"},{"internalType":"enum ClockTowerSubscribe.Frequency","name":"frequency","type":"uint8"},{"internalType":"uint16","name":"dueDay","type":"uint16"}],"internalType":"struct ClockTowerSubscribe.Subscription","name":"subscription","type":"tuple"}],"name":"cancelSubscription","outputs":[],"stateMutability":"nonpayable","type":"function"},{"inputs":[{"internalType":"address payable","name":"newAddress","type":"address"}],"name":"changeAdmin","outputs":[],"stateMutability":"nonpayable","type":"function"},{"inputs":[{"internalType":"uint256","name":"_fee","type":"uint256"}],"name":"changeCallerFee","outputs":[],"stateMutability":"nonpayable","type":"function"},{"inputs":[{"internalType":"uint256","name":"_maxRemits","type":"uint256"}],"name":"changeMaxRemits","outputs":[],"stateMutability":"nonpayable","type":"function"},{"inputs":[{"internalType":"uint256","name":"_fixed_fee","type":"uint256"}],"name":"changeSystemFee","outputs":[],"stateMutability":"nonpayable","type":"function"},{"inputs":[],"name":"collectFees","outputs":[],"stateMutability":"nonpayable","type":"function"},{"inputs":[{"internalType":"uint256","name":"amount","type":"uint256"},{"internalType":"address","name":"token","type":"address"},{"components":[{"internalType":"string","name":"url","type":"string"},{"internalType":"string","name":"description","type":"string"}],"internalType":"struct ClockTowerSubscribe.Details","name":"details","type":"tuple"},{"internalType":"enum ClockTowerSubscribe.Frequency","name":"frequency","type":"uint8"},{"internalType":"uint16","name":"dueDay","type":"uint16"}],"name":"createSubscription","outputs":[],"stateMutability":"payable","type":"function"},{"inputs":[{"components":[{"internalType":"string","name":"url","type":"string"},{"internalType":"string","name":"description","type":"string"}],"internalType":"struct ClockTowerSubscribe.Details","name":"details","type":"tuple"},{"internalType":"bytes32","name":"id","type":"bytes32"}],"name":"editDetails","outputs":[],"stateMutability":"nonpayable","type":"function"},{"inputs":[{"components":[{"internalType":"string","name":"description","type":"string"},{"internalType":"string","name":"company","type":"string"},{"internalType":"string","name":"url","type":"string"},{"internalType":"string","name":"domain","type":"string"},{"internalType":"string","name":"email","type":"string"},{"internalType":"string","name":"misc","type":"string"}],"internalType":"struct ClockTowerSubscribe.ProviderDetails","name":"details","type":"tuple"}],"name":"editProvDetails","outputs":[],"stateMutability":"nonpayable","type":"function"},{"inputs":[{"internalType":"bytes32","name":"","type":"bytes32"},{"internalType":"address","name":"","type":"address"}],"name":"feeBalance","outputs":[{"internalType":"uint256","name":"","type":"uint256"}],"stateMutability":"view","type":"function"},{"inputs":[],"name":"feeEstimate","outputs":[{"components":[{"internalType":"uint256","name":"fee","type":"uint256"},{"internalType":"address","name":"token","type":"address"}],"internalType":"struct ClockTowerSubscribe.FeeEstimate[]","name":"","type":"tuple[]"}],"stateMutability":"view","type":"function"},{"inputs":[{"internalType":"address","name":"account","type":"address"}],"name":"getAccount","outputs":[{"components":[{"internalType":"address","name":"accountAddress","type":"address"},{"internalType":"bool","name":"exists","type":"bool"},{"components":[{"internalType":"bytes32","name":"id","type":"bytes32"},{"internalType":"uint16","name":"dueDay","type":"uint16"},{"internalType":"enum ClockTowerSubscribe.Frequency","name":"frequency","type":"uint8"},{"internalType":"enum ClockTowerSubscribe.Status","name":"status","type":"uint8"}],"internalType":"struct ClockTowerSubscribe.SubIndex[]","name":"subscriptions","type":"tuple[]"},{"components":[{"internalType":"bytes32","name":"id","type":"bytes32"},{"internalType":"uint16","name":"dueDay","type":"uint16"},{"internalType":"enum ClockTowerSubscribe.Frequency","name":"frequency","type":"uint8"},{"internalType":"enum ClockTowerSubscribe.Status","name":"status","type":"uint8"}],"internalType":"struct ClockTowerSubscribe.SubIndex[]","name":"provSubs","type":"tuple[]"}],"internalType":"struct ClockTowerSubscribe.Account","name":"","type":"tuple"}],"stateMutability":"view","type":"function"},{"inputs":[{"internalType":"bool","name":"bySubscriber","type":"bool"},{"internalType":"address","name":"account","type":"address"}],"name":"getAccountSubscriptions","outputs":[{"components":[{"components":[{"internalType":"bytes32","name":"id","type":"bytes32"},{"internalType":"uint256","name":"amount","type":"uint256"},{"internalType":"address","name":"provider","type":"address"},{"internalType":"address","name":"token","type":"address"},{"internalType":"bool","name":"exists","type":"bool"},{"internalType":"bool","name":"cancelled","type":"bool"},{"internalType":"enum ClockTowerSubscribe.Frequency","name":"frequency","type":"uint8"},{"internalType":"uint16","name":"dueDay","type":"uint16"}],"internalType":"struct ClockTowerSubscribe.Subscription","name":"subscription","type":"tuple"},{"internalType":"enum ClockTowerSubscribe.Status","name":"status","type":"uint8"},{"internalType":"uint256","name":"totalSubscribers","type":"uint256"}],"internalType":"struct ClockTowerSubscribe.SubView[]","name":"","type":"tuple[]"}],"stateMutability":"view","type":"function"},{"inputs":[{"internalType":"bytes32","name":"id","type":"bytes32"},{"internalType":"enum ClockTowerSubscribe.Frequency","name":"frequency","type":"uint8"},{"internalType":"uint16","name":"dueDay","type":"uint16"}],"name":"getSubByIndex","outputs":[{"components":[{"internalType":"bytes32","name":"id","type":"bytes32"},{"internalType":"uint256","name":"amount","type":"uint256"},{"internalType":"address","name":"provider","type":"address"},{"internalType":"address","name":"token","type":"address"},{"internalType":"bool","name":"exists","type":"bool"},{"internalType":"bool","name":"cancelled","type":"bool"},{"internalType":"enum ClockTowerSubscribe.Frequency","name":"frequency","type":"uint8"},{"internalType":"uint16","name":"dueDay","type":"uint16"}],"internalType":"struct ClockTowerSubscribe.Subscription","name":"subscription","type":"tuple"}],"stateMutability":"view","type":"function"},{"inputs":[{"internalType":"bytes32","name":"id","type":"bytes32"}],"name":"getSubscribersById","outputs":[{"components":[{"internalType":"address","name":"subscriber","type":"address"},{"internalType":"uint256","name":"feeBalance","type":"uint256"}],"internalType":"struct ClockTowerSubscribe.SubscriberView[]","name":"","type":"tuple[]"}],"stateMutability":"view","type":"function"},{"inputs":[],"name":"getTotalSubscribers","outputs":[{"internalType":"uint256","name":"","type":"uint256"}],"stateMutability":"view","type":"function"},{"inputs":[],"name":"maxRemits","outputs":[{"internalType":"uint256","name":"","type":"uint256"}],"stateMutability":"view","type":"function"},{"inputs":[],"name":"nextUncheckedDay","outputs":[{"internalType":"uint40","name":"","type":"uint40"}],"stateMutability":"view","type":"function"},{"inputs":[],"name":"remit","outputs":[],"stateMutability":"payable","type":"function"},{"inputs":[{"internalType":"address","name":"erc20Contract","type":"address"}],"name":"removeERC20Contract","outputs":[],"stateMutability":"nonpayable","type":"function"},{"inputs":[{"internalType":"bool","name":"status","type":"bool"}],"name":"setExternalCallers","outputs":[],"stateMutability":"nonpayable","type":"function"},{"inputs":[{"components":[{"internalType":"bytes32","name":"id","type":"bytes32"},{"internalType":"uint256","name":"amount","type":"uint256"},{"internalType":"address","name":"provider","type":"address"},{"internalType":"address","name":"token","type":"address"},{"internalType":"bool","name":"exists","type":"bool"},{"internalType":"bool","name":"cancelled","type":"bool"},{"internalType":"enum ClockTowerSubscribe.Frequency","name":"frequency","type":"uint8"},{"internalType":"uint16","name":"dueDay","type":"uint16"}],"internalType":"struct ClockTowerSubscribe.Subscription","name":"subscription","type":"tuple"}],"name":"subscribe","outputs":[],"stateMutability":"payable","type":"function"},{"inputs":[],"name":"systemFee","outputs":[{"internalType":"uint256","name":"","type":"uint256"}],"stateMutability":"view","type":"function"},{"inputs":[{"internalType":"bool","name":"status","type":"bool"}],"name":"systemFeeActivate","outputs":[],"stateMutability":"nonpayable","type":"function"},{"inputs":[{"components":[{"internalType":"bytes32","name":"id","type":"bytes32"},{"internalType":"uint256","name":"amount","type":"uint256"},{"internalType":"address","name":"provider","type":"address"},{"internalType":"address","name":"token","type":"address"},{"internalType":"bool","name":"exists","type":"bool"},{"internalType":"bool","name":"cancelled","type":"bool"},{"internalType":"enum ClockTowerSubscribe.Frequency","name":"frequency","type":"uint8"},{"internalType":"uint16","name":"dueDay","type":"uint16"}],"internalType":"struct ClockTowerSubscribe.Subscription","name":"subscription","type":"tuple"}],"name":"unsubscribe","outputs":[],"stateMutability":"payable","type":"function"},{"inputs":[{"components":[{"internalType":"bytes32","name":"id","type":"bytes32"},{"internalType":"uint256","name":"amount","type":"uint256"},{"internalType":"address","name":"provider","type":"address"},{"internalType":"address","name":"token","type":"address"},{"internalType":"bool","name":"exists","type":"bool"},{"internalType":"bool","name":"cancelled","type":"bool"},{"internalType":"enum ClockTowerSubscribe.Frequency","name":"frequency","type":"uint8"},{"internalType":"uint16","name":"dueDay","type":"uint16"}],"internalType":"struct ClockTowerSubscribe.Subscription","name":"subscription","type":"tuple"},{"internalType":"address","name":"subscriber","type":"address"}],"name":"unsubscribeByProvider","outputs":[],"stateMutability":"nonpayable","type":"function"},{"stateMutability":"payable","type":"receive"}],"evm":{"bytecode":{"linkReferences":{},"object":"608060405260405161616d38038061616d833981016040819052610022916100c4565b6000859055600184905560028381556006805460ff60d81b1916600160d81b85151502179055610051426100af565b61005b919061012e565b600680546001600160a01b03909316660100000000000002600160301b600160d01b031964ffffffffff939093166101000292909216610100600160d01b0319909316929092171790555061019192505050565b60006100be6201518083610159565b92915050565b600080600080600060a086880312156100dc57600080fd5b85516020870151604088015160608901519297509095509350801515811461010357600080fd5b60808701519092506001600160a01b038116811461012057600080fd5b809150509295509295909350565b64ffffffffff82811682821603908111156100be57634e487b7160e01b600052601160045260246000fd5b600064ffffffffff83168061017e57634e487b7160e01b600052601260045260246000fd5b8064ffffffffff84160491505092915050565b615fcd806101a06000396000f3fe6080604052600436106101b95760003560e01c80638f283970116100eb578063cab1c9651161008f578063ebec6eaa11610061578063ebec6eaa1461054a578063ed601d2814610582578063f4a2a200146105a2578063fbcbc0f1146105da57005b8063cab1c965146104b9578063d10f9e69146104cf578063da854a96146104ef578063e63d35be1461052857005b8063b25ae32c116100c8578063b25ae32c146103e9578063b4761de9146103fe578063bd7438861461041e578063c8796572146104a457005b80638f28397014610389578063907cedb2146103a95780639889552e146103c957005b80633c95dad51161015d5780637bbf5a6e1161012f5780637bbf5a6e146102ef57806386525a001461031c57806387d888d3146103495780638ef0ef1c1461036957005b80633c95dad5146102a157806344e49769146102b45780634a1268b8146102c75780637507ba39146102e757005b80631f17ee55116101965780631f17ee551461021557806327ea97731461023e5780632d23f7e71461025e57806334d441d01461028b57005b8063053149fa146101c25780630b8590c7146101e25780630bec99e8146101f557005b366101c057005b005b3480156101ce57600080fd5b506101c06101dd366004615233565b610607565b6101c06101f0366004615290565b61069b565b34801561020157600080fd5b506101c061021036600461530b565b610b64565b34801561022157600080fd5b5061022b60015481565b6040519081526020015b60405180910390f35b34801561024a57600080fd5b506101c061025936600461530b565b610b71565b34801561026a57600080fd5b5061027e610279366004615324565b610b7e565b6040516102359190615406565b34801561029757600080fd5b5061022b60005481565b6101c06102af366004615415565b610d56565b6101c06102c2366004615546565b611427565b3480156102d357600080fd5b506101c06102e2366004615563565b61180a565b6101c06118e9565b3480156102fb57600080fd5b5061030f61030a36600461530b565b6127e1565b60405161023591906155ab565b34801561032857600080fd5b5061033c610337366004615603565b6129d7565b604051610235919061564c565b34801561035557600080fd5b506101c0610364366004615415565b612dce565b34801561037557600080fd5b506101c061038436600461530b565b613829565b34801561039557600080fd5b506101c06103a4366004615233565b613836565b3480156103b557600080fd5b506101c06103c43660046156af565b613895565b3480156103d557600080fd5b506101c06103e43660046156de565b613d09565b3480156103f557600080fd5b5060085461022b565b34801561040a57600080fd5b506101c06104193660046156de565b613d2f565b34801561042a57600080fd5b50610470610439366004615233565b6005602052600090815260409020805460018201546002909201546001600160a01b03909116919060ff8082169161010090041684565b604080516001600160a01b039095168552602085019390935260ff9091169183019190915215156060820152608001610235565b3480156104b057600080fd5b506101c0613d55565b3480156104c557600080fd5b5061022b60025481565b3480156104db57600080fd5b506101c06104ea3660046156fb565b613db8565b3480156104fb57600080fd5b5060065461051290610100900464ffffffffff1681565b60405164ffffffffff9091168152602001610235565b34801561053457600080fd5b5061053d613e6f565b6040516102359190615740565b34801561055657600080fd5b5061022b61056536600461578d565b600960209081526000928352604080842090915290825290205481565b34801561058e57600080fd5b506101c061059d366004615841565b614311565b3480156105ae57600080fd5b506105c26105bd36600461530b565b61437f565b6040516001600160a01b039091168152602001610235565b3480156105e657600080fd5b506105fa6105f5366004615233565b6143a9565b6040516102359190615a06565b61060f6145d3565b6001600160a01b03811661062257600080fd5b61062b8161461c565b6106605760405162461bcd60e51b81526020600482015260016024820152601960f91b60448201526064015b60405180910390fd5b6001600160a01b0316600090815260056020526040812080546001600160a01b03191681556001810191909155600201805461ffff19169055565b6106a3614653565b6001600160a01b0384166106dd5760405162461bcd60e51b81526020600482015260016024820152600760fb1b6044820152606401610657565b600654600160d81b900460ff1615610725573460015411156107255760405162461bcd60e51b81526020600482015260016024820152603560f81b6044820152606401610657565b61072e8461461c565b61075e5760405162461bcd60e51b81526020600482015260016024820152603960f81b6044820152606401610657565b600082600381111561077257610772615360565b036107c1578061ffff166000108015610790575060078161ffff1611155b6107c15760405162461bcd60e51b8152602060048201526002602482015261191b60f11b6044820152606401610657565b60018260038111156107d5576107d5615360565b03610824578061ffff1660001080156107f35750601c8161ffff1611155b6108245760405162461bcd60e51b8152602060048201526002602482015261323760f01b6044820152606401610657565b600282600381111561083857610838615360565b03610887578061ffff1660001080156108565750605a8161ffff1611155b6108875760405162461bcd60e51b8152602060048201526002602482015261064760f31b6044820152606401610657565b600382600381111561089b5761089b615360565b036108eb578061ffff1660001080156108ba575061016d8161ffff1611155b6108eb5760405162461bcd60e51b8152602060048201526002602482015261323960f01b6044820152606401610657565b6001600160a01b03841660009081526005602052604090206001015485101561093b5760405162461bcd60e51b8152602060048201526002602482015261033360f41b6044820152606401610657565b600061094986868585614684565b905080600a600085600381111561096257610962615360565b81526020808201929092526040908101600090812061ffff87168252835281812080546001818101835591835291849020855160049093020191825592840151928101929092558201516002820180546001600160a01b039283166001600160a01b0319909116179055606083015160038084018054608087015160a08801511515600160a81b0260ff60a81b19911515600160a01b0274ffffffffffffffffffffffffffffffffffffffffff199093169590961694909417179283168417815560c086015193909260ff60b01b1990911661ffff60a81b199091161790600160b01b908490811115610a5757610a57615360565b021790555060e0918201516003918201805461ffff60b81b1916600160b81b61ffff93841602179055604080516080810182528551815293850151909116602084015260c0840151610ac7939291830191811115610ab757610ab7615360565b815260200160009052600161476f565b805164ffffffffff42169033907f93cda0785d40b289a535b99dc76d4c9cbb6d8146182861ac3ad40509398b1865610aff8880615a67565b610b0c60208b018b615a67565b604051610b1c9493929190615ade565b60405180910390a48051606082015160405160009233929091600080516020615f7883398151915291610b549142918d918890615b20565b60405180910390a4505050505050565b610b6c6145d3565b600155565b610b796145d3565b600255565b6040805161010081018252600080825260208201819052918101829052606081018290526080810182905260a0810182905260c0810182905260e0810182905290600a81856003811115610bd457610bd4615360565b815260200190815260200160002060008461ffff1661ffff168152602001908152602001600020805480602002602001604051908101604052809291908181526020016000905b82821015610cf25760008481526020908190206040805161010081018252600486029092018054835260018101549383019390935260028301546001600160a01b0390811691830191909152600380840154918216606084015260ff600160a01b8304811615156080850152600160a81b83048116151560a085015292939260c0850192600160b01b90041690811115610cb757610cb7615360565b6003811115610cc857610cc8615360565b81526003919091015461ffff600160b81b9091041660209182015290825260019092019101610c1b565b50505050905060005b8151811015610d4d5785828281518110610d1757610d17615b51565b60200260200101516000015103610d4557818181518110610d3a57610d3a615b51565b602002602001015192505b600101610cfb565b50509392505050565b610d5e614653565b610d8b8135610d74610100840160e08501615b67565b610d8460e0850160c08601615b82565b600061491f565b610dbb5760405162461bcd60e51b81526020600482015260016024820152603760f81b6044820152606401610657565b6000610dfd6020830135600583610dd86080870160608801615233565b6001600160a01b0316815260208101919091526040016000206002015460ff166149aa565b905080610e106080840160608501615233565b604051636eb1769f60e11b81523360048201523060248201526001600160a01b03919091169063dd62ed3e906044016020604051808303816000875af1158015610e5e573d6000803e3d6000fd5b505050506040513d601f19601f82011682018060405250810190610e829190615b9d565b10158015610f0b575080610e9c6080840160608501615233565b6040516370a0823160e01b81523360048201526001600160a01b0391909116906370a08231906024016020604051808303816000875af1158015610ee4573d6000803e3d6000fd5b505050506040513d601f19601f82011682018060405250810190610f089190615b9d565b10155b610f3c5760405162461bcd60e51b8152602060048201526002602482015261032360f41b6044820152606401610657565b610f4c6060830160408401615233565b6001600160a01b03163303610f875760405162461bcd60e51b81526020600482015260016024820152600360fc1b6044820152606401610657565b81356000818152600b6020908152604080832080546001810182559084529282902090920180546001600160a01b03191633179055815160808101909252918152611019918101610fdf610100860160e08701615b67565b61ffff168152602001610ff860e0860160c08701615b82565b600381111561100957611009615360565b815260200160009052600061476f565b602082013560018061103160e0860160c08701615b82565b600381111561104257611042615360565b148061106e5750600061105b60e0860160c08701615b82565b600381111561106c5761106c615360565b145b156110ba576110b342611088610100870160e08801615b67565b61ffff168461109d60e0890160c08a01615b82565b60038111156110ae576110ae615360565b614a1d565b9150611160565b60026110cc60e0860160c08701615b82565b60038111156110dd576110dd615360565b0361110f576110f742611088610100870160e08801615b67565b9150611104600383615be2565b915060029050611160565b600361112160e0860160c08701615b82565b600381111561113257611132615360565b036111605761114c42611088610100870160e08801615b67565b9150611159600c83615be2565b9150600b90505b833560009081526009602090815260408083203384529091528120805484929061118b908490615bf6565b909155503390506111a26060860160408701615233565b6001600160a01b03168535600080516020615f788339815191524260208901356111d260808b0160608c01615233565b60066040516111e49493929190615b20565b60405180910390a4336111fd6060860160408701615233565b6001600160a01b03168535600080516020615f78833981519152428661122960808b0160608c01615233565b600860405161123b9493929190615b20565b60405180910390a46112536080850160608601615233565b6001600160a01b03166323b872dd333061127b8660056000610dd860808d0160608e01615233565b6040516001600160e01b031960e086901b1681526001600160a01b03938416600482015292909116602483015260448201526064016020604051808303816000875af11580156112cf573d6000803e3d6000fd5b505050506040513d601f19601f820116820180604052508101906112f39190615c09565b6112fc57600080fd5b600261130e60e0860160c08701615b82565b600381111561131f5761131f615360565b148061134b5750600361133860e0860160c08701615b82565b600381111561134957611349615360565b145b15611421576113606080850160608601615233565b6001600160a01b03166323b872dd3361137f6060880160408901615233565b6113a061138c8688615c26565b60056000610dd860808d0160608e01615233565b6040516001600160e01b031960e086901b1681526001600160a01b03938416600482015292909116602483015260448201526064016020604051808303816000875af11580156113f4573d6000803e3d6000fd5b505050506040513d601f19601f820116820180604052508101906114189190615c09565b61142157600080fd5b50505050565b61142f614653565b3360009081526007602052604081206001015467ffffffffffffffff81111561145a5761145a615431565b6040519080825280602002602001820160405280156114b557816020015b6114a260408051608081018252600080825260208201819052909182019081526020016000905290565b8152602001906001900390816114785790505b50336000908152600760209081526040808320600101805482518185028101850190935280835294955090939092909184015b8282101561159e576000848152602090819020604080516080810182526002860290920180548352600181015461ffff81169484019490945291929083019062010000900460ff16600381111561154157611541615360565b600381111561155257611552615360565b81526020016001820160039054906101000a900460ff16600281111561157a5761157a615360565b600281111561158b5761158b615360565b81525050815260200190600101906114e8565b5050336000908152600760205260408120600101549394509150505b818110156116525783600001518382815181106115d9576115d9615b51565b6020026020010151600001510361164a573360009081526007602052604090206001018054600291908390811061161257611612615b51565b906000526020600020906002020160010160036101000a81548160ff0219169083600281111561164457611644615360565b02179055505b6001016115ba565b50825161165f9033614c66565b336001600160a01b031683604001516001600160a01b03168460000151600080516020615f78833981519152428760200151886060015160076040516116a89493929190615b20565b60405180910390a4825160009081526009602081815260408084203380865290835281852054885186529383528185208186529092528084209390935582860151865160608801519451939492936001600160a01b03909216929091600080516020615f78833981519152916117249142918891600490615b20565b60405180910390a460608401516040808601516001600160a01b03909216600081815260056020529190912060020154909163a9059cbb9161176a90859060ff166149aa565b6040516001600160e01b031960e085901b1681526001600160a01b03909216600483015260248201526044016020604051808303816000875af11580156117b5573d6000803e3d6000fd5b505050506040513d601f19601f820116820180604052508101906117d99190615c09565b6114215760405162461bcd60e51b8152602060048201526002602482015261323160f01b6044820152606401610657565b6118126145d3565b6001600160a01b03831661182557600080fd5b61182e8361461c565b1561185f5760405162461bcd60e51b81526020600482015260016024820152603160f81b6044820152606401610657565b604080516080810182526001600160a01b03948516808252602080830195865260ff9485168385019081526001606085018181526000948552600590935294909220925183546001600160a01b031916971696909617825593519181019190915591516002909201805493519290911661ffff199093169290921761010091151591909102179055565b600654600160d01b900460ff16611902576119026145d3565b600654600160d81b900460ff161561194a5734600154111561194a5760405162461bcd60e51b81526020600482015260016024820152603560f81b6044820152606401610657565b600061195542614dac565b60065490915064ffffffffff6101009091048116908216101561199f5760405162461bcd60e51b81526020600482015260026024820152610c4d60f21b6044820152606401610657565b6040805160c081018252600080825260208201819052918101829052606081018290526080810182905260a081019190915260019060065464ffffffffff8481166101009092041614611a1f57600654611a1890611a0c90610100900464ffffffffff1662015180615c3d565b64ffffffffff16614dbb565b9050611a2b565b611a2842614dbb565b90505b6000805b6003811161272757600081611a45575060208301515b60018203611a51575082515b60028203611a60575060408301515b60038203611a6f575060608301515b6000828152600a6020908152604080832061ffff85168452909152812054905b81811015612711576000848152600a6020908152604080832061ffff87168452909152812080549198509082908110611aca57611aca615b51565b906000526020600020906004020160030160159054906101000a900460ff1661270957604080516080810182526000868152600a602090815283822061ffff881683529052918220805482919085908110611b2757611b27615b51565b600091825260208083206004909202909101548352888252600a8152604080832061ffff8a16845282529091208054929091019185908110611b6b57611b6b615b51565b60009182526020808320600360049093020191909101546001600160a01b03168352888252600a8152604080832061ffff8a16845282529091208054929091019185908110611bbc57611bbc615b51565b60009182526020808320600260049093020191909101546001600160a01b03168352888252600a8152604080832061ffff8a1684528252822080549390910192600592919087908110611c1157611c11615b51565b60009182526020808320600360049093020191909101546001600160a01b0316835282810193909352604091820181206002015460ff16909352888352600a825280832061ffff89168452909152812080549293509091611c99919085908110611c7d57611c7d615b51565b90600052602060002090600402016001015483606001516149aa565b905060008161271060005484611caf9190615c26565b611cb99190615be2565b611cc39190615c5d565b83516000908152600b602052604081205491925090818115611ced57611cea600183615c5d565b90505b60005b82811015612701576002548c03611e5857604080518082019091528751808252602091820183905260035560048290556006805460ff1916905587015160608801516001600160a01b039091169063a9059cbb903390611d519088906149aa565b6040516001600160e01b031960e085901b1681526001600160a01b03909216600483015260248201526044016020604051808303816000875af1158015611d9c573d6000803e3d6000fd5b505050506040513d601f19601f82011682018060405250810190611dc09190615c09565b611df15760405162461bcd60e51b8152602060048201526002602482015261191960f11b6044820152606401610657565b6006546040805164ffffffffff428116825261010090930492909216602083015260009082015233907f90192d7875364a53e351ae63fd2dfef8dc941735b29fb0c504d06a0e21ae602e9060600160405180910390a2505050505050505050505050505050565b6003548751148015611e6b575060045481145b15611e7e576006805460ff191660011790555b6003541580611e94575060065460ff1615156001145b156126f95786516000908152600b60205260408120805483908110611ebb57611ebb615b51565b6000918252602091829020015490890151604051636eb1769f60e11b81526001600160a01b0392831660048201819052306024830152935089929091169063dd62ed3e906044016020604051808303816000875af1158015611f21573d6000803e3d6000fd5b505050506040513d601f19601f82011682018060405250810190611f459190615b9d565b10158015611fc2575060208801516040516370a0823160e01b81526001600160a01b038381166004830152899216906370a08231906024016020604051808303816000875af1158015611f9c573d6000803e3d6000fd5b505050506040513d601f19601f82011682018060405250810190611fc09190615b9d565b115b156123f9578c611fd181615c70565b895160009081526009602090815260408083206001600160a01b0387168452909152902054909e50871015905061217a5761200c8686615bf6565b885160009081526009602090815260408083206001600160a01b0386168452909152812080549297508892909190612045908490615c5d565b92505081905550806001600160a01b031688604001516001600160a01b03168960000151600080516020615f78833981519152428b8d6020015160056040516120919493929190615b20565b60405180910390a4806001600160a01b031688604001516001600160a01b03168960000151600080516020615f788339815191524260008d6020015160026040516120df9493929190615b20565b60405180910390a460208801516040808a015190516323b872dd60e01b81526001600160a01b0384811660048301529182166024820152604481018a90529116906323b872dd906064016020604051808303816000875af1158015612148573d6000803e3d6000fd5b505050506040513d601f19601f8201168201806040525081019061216c9190615c09565b61217557600080fd5b612621565b875160009081526009602090815260408083206001600160a01b03851684529091529020546121a99086615bf6565b885160009081526009602090815260408083206001600160a01b0380871680865291845282852094909455818d01518d51938e01519251959a509094931692600080516020615f78833981519152916122089142918e91600890615b20565b60405180910390a486600160028e900361223257612227600383615be2565b91506002905061224c565b8d60030361224c57612245600c83615be2565b9150600b90505b895160009081526009602090815260408083206001600160a01b038716845290915281208054849290612280908490615bf6565b9250508190555089602001516001600160a01b03166323b872dd84306122aa868f606001516149aa565b6040516001600160e01b031960e086901b1681526001600160a01b03938416600482015292909116602483015260448201526064016020604051808303816000875af11580156122fe573d6000803e3d6000fd5b505050506040513d601f19601f820116820180604052508101906123229190615c09565b61232b57600080fd5b8d6002148061233a57508d6003145b156123f25789602001516001600160a01b03166323b872dd848c6040015161237185876123679190615c26565b8f606001516149aa565b6040516001600160e01b031960e086901b1681526001600160a01b03938416600482015292909116602483015260448201526064016020604051808303816000875af11580156123c5573d6000803e3d6000fd5b505050506040513d601f19601f820116820180604052508101906123e99190615c09565b6123f257600080fd5b5050612621565b8c61240381615c70565b895160009081526009602090815260408083206001600160a01b0387168452909152902054909e5087101590506125795761243e8686615bf6565b885160009081526009602090815260408083206001600160a01b038616845290915281205491965090612472908890615c5d565b895160009081526009602090815260408083206001600160a01b0380881680865291845282852094909455818e01518e51938f015192519596509094931692600080516020615f78833981519152916124d19142918891600490615b20565b60405180910390a488602001516001600160a01b031663a9059cbb8a604001516124ff848d606001516149aa565b6040516001600160e01b031960e085901b1681526001600160a01b03909216600483015260248201526044016020604051808303816000875af115801561254a573d6000803e3d6000fd5b505050506040513d601f19601f8201168201806040525081019061256e9190615c09565b61257757600080fd5b505b87516125859082614c66565b806001600160a01b031688604001516001600160a01b03168960000151600080516020615f78833981519152428b8d6020015160076040516125ca9493929190615b20565b60405180910390a4806001600160a01b031688604001516001600160a01b03168960000151600080516020615f788339815191524260008d6020015160036040516126189493929190615b20565b60405180910390a45b82821480156126305750600084115b156126f75787602001516001600160a01b031663a9059cbb33612657888c606001516149aa565b6040516001600160e01b031960e085901b1681526001600160a01b03909216600483015260248201526044016020604051808303816000875af11580156126a2573d6000803e3d6000fd5b505050506040513d601f19601f820116820180604052508101906126c69190615c09565b6126f75760405162461bcd60e51b8152602060048201526002602482015261191960f11b6044820152606401610657565b505b600101611cf0565b505050505050505b600101611a8f565b505050808061271f90615c70565b915050611a2f565b50600060038190556004556006805460ff1916908190556040805164ffffffffff4281168252610100909304909216602083015260019082015233907f90192d7875364a53e351ae63fd2dfef8dc941735b29fb0c504d06a0e21ae602e9060600160405180910390a26001600660018282829054906101000a900464ffffffffff166127b39190615c89565b92506101000a81548164ffffffffff021916908364ffffffffff1602179055508215611421576114216118e9565b6000818152600b60205260408120546060919067ffffffffffffffff81111561280c5761280c615431565b604051908082528060200260200182016040528015612835578160200160208202803683370190505b506000848152600b6020908152604091829020805483518184028101840190945280845293945091929083018282801561289857602002820191906000526020600020905b81546001600160a01b0316815260019091019060200180831161287a575b5050506000868152600b60205260408120549394509291505067ffffffffffffffff8111156128c9576128c9615431565b60405190808252806020026020018201604052801561290e57816020015b60408051808201909152600080825260208201528152602001906001900390816128e75790505b50905060005b82518110156129cf5760008581526009602052604081208451829086908590811061294157612941615b51565b60200260200101516001600160a01b03166001600160a01b031681526020019081526020016000205490506000604051806040016040528086858151811061298b5761298b615b51565b60200260200101516001600160a01b03168152602001838152509050808484815181106129ba576129ba615b51565b60209081029190910101525050600101612914565b509392505050565b6060808315612ad7576001600160a01b038316600090815260076020908152604080832060010180548251818502810185019093528083529193909284015b82821015612acc576000848152602090819020604080516080810182526002860290920180548352600181015461ffff81169484019490945291929083019062010000900460ff166003811115612a6f57612a6f615360565b6003811115612a8057612a80615360565b81526020016001820160039054906101000a900460ff166002811115612aa857612aa8615360565b6002811115612ab957612ab9615360565b8152505081526020019060010190612a16565b505050509050612bca565b6001600160a01b038316600090815260076020908152604080832060020180548251818502810185019093528083529193909284015b82821015612bc3576000848152602090819020604080516080810182526002860290920180548352600181015461ffff81169484019490945291929083019062010000900460ff166003811115612b6657612b66615360565b6003811115612b7757612b77615360565b81526020016001820160039054906101000a900460ff166002811115612b9f57612b9f615360565b6002811115612bb057612bb0615360565b8152505081526020019060010190612b0d565b5050505090505b6000815167ffffffffffffffff811115612be657612be6615431565b604051908082528060200260200182016040528015612c6c57816020015b60408051610160810182526000606082018181526080830182905260a0830182905260c0830182905260e0830182905261010083018290526101208301829052610140830182905282526020808301829052928201528252600019909201910181612c045790505b50905060005b8251811015612dc357612cdd838281518110612c9057612c90615b51565b602002602001015160000151848381518110612cae57612cae615b51565b602002602001015160400151858481518110612ccc57612ccc615b51565b602002602001015160200151610b7e565b828281518110612cef57612cef615b51565b602002602001015160000181905250828181518110612d1057612d10615b51565b602002602001015160600151828281518110612d2e57612d2e615b51565b6020026020010151602001906002811115612d4b57612d4b615360565b90816002811115612d5e57612d5e615360565b81525050600b6000838381518110612d7857612d78615b51565b60200260200101516000015160000151815260200190815260200160002080549050828281518110612dac57612dac615b51565b602090810291909101015160400152600101612c72565b509150505b92915050565b612dd6614653565b612dec8135610d74610100840160e08501615b67565b612e1c5760405162461bcd60e51b81526020600482015260016024820152603760f81b6044820152606401610657565b612e2c6060820160408301615233565b6001600160a01b0316336001600160a01b031614612e715760405162461bcd60e51b8152602060048201526002602482015261323360f01b6044820152606401610657565b33600090815260076020908152604080832060020180548251818502810185019093528083529192909190849084015b82821015612f57576000848152602090819020604080516080810182526002860290920180548352600181015461ffff81169484019490945291929083019062010000900460ff166003811115612efa57612efa615360565b6003811115612f0b57612f0b615360565b81526020016001820160039054906101000a900460ff166002811115612f3357612f33615360565b6002811115612f4457612f44615360565b8152505081526020019060010190612ea1565b5050336000908152600760205260408120600201549394509150505b8181101561300b578360000135838281518110612f9257612f92615b51565b602002602001015160000151036130035733600090815260076020526040902060020180546001919083908110612fcb57612fcb615b51565b906000526020600020906002020160010160036101000a81548160ff02191690836002811115612ffd57612ffd615360565b02179055505b600101612f73565b5082356000908152600b602090815260408083208054825181850281018501909352808352919290919083018282801561306e57602002820191906000526020600020905b81546001600160a01b03168152600190910190602001808311613050575b5050505050905060005b81518110156135ae5784356000908152600960205260408120835182908590859081106130a7576130a7615b51565b60200260200101516001600160a01b03166001600160a01b031681526020019081526020016000205490508282815181106130e4576130e4615b51565b60200260200101516001600160a01b03168660400160208101906131089190615233565b6001600160a01b03168735600080516020615f78833981519152428561313460808d0160608e01615233565b60096040516131469493929190615b20565b60405180910390a485356000908152600960205260408120845190919085908590811061317557613175615b51565b60200260200101516001600160a01b03166001600160a01b03168152602001908152602001600020600090558560600160208101906131b49190615233565b6001600160a01b031663a9059cbb8484815181106131d4576131d4615b51565b60200260200101516131f784600560008c6060016020810190610dd89190615233565b6040516001600160e01b031960e085901b1681526001600160a01b03909216600483015260248201526044016020604051808303816000875af1158015613242573d6000803e3d6000fd5b505050506040513d601f19601f820116820180604052508101906132669190615c09565b6132975760405162461bcd60e51b8152602060048201526002602482015261323160f01b6044820152606401610657565b6000600760008585815181106132af576132af615b51565b60200260200101516001600160a01b03166001600160a01b031681526020019081526020016000206001018054905067ffffffffffffffff8111156132f6576132f6615431565b60405190808252806020026020018201604052801561335157816020015b61333e60408051608081018252600080825260208201819052909182019081526020016000905290565b8152602001906001900390816133145790505b5090506007600085858151811061336a5761336a615b51565b60200260200101516001600160a01b03166001600160a01b03168152602001908152602001600020600101805480602002602001604051908101604052809291908181526020016000905b8282101561346b576000848152602090819020604080516080810182526002860290920180548352600181015461ffff81169484019490945291929083019062010000900460ff16600381111561340e5761340e615360565b600381111561341f5761341f615360565b81526020016001820160039054906101000a900460ff16600281111561344757613447615360565b600281111561345857613458615360565b81525050815260200190600101906133b5565b50505050905060005b6007600086868151811061348a5761348a615b51565b60200260200101516001600160a01b03166001600160a01b031681526020019081526020016000206001018054905081101561357c5787600001358282815181106134d7576134d7615b51565b602002602001015160000151036135745760016007600087878151811061350057613500615b51565b60200260200101516001600160a01b03166001600160a01b03168152602001908152602001600020600101828154811061353c5761353c615b51565b906000526020600020906002020160010160036101000a81548160ff0219169083600281111561356e5761356e615360565b02179055505b600101613474565b506135a4876000013585858151811061359757613597615b51565b6020026020010151614c66565b5050600101613078565b506000600a816135c460e0880160c08901615b82565b60038111156135d5576135d5615360565b815260200190815260200160002060008660e00160208101906135f89190615b67565b61ffff1661ffff168152602001908152602001600020805480602002602001604051908101604052809291908181526020016000905b828210156137055760008481526020908190206040805161010081018252600486029092018054835260018101549383019390935260028301546001600160a01b0390811691830191909152600380840154918216606084015260ff600160a01b8304811615156080850152600160a81b83048116151560a085015292939260c0850192600160b01b900416908111156136ca576136ca615360565b60038111156136db576136db615360565b81526003919091015461ffff600160b81b909104166020918201529082526001909201910161362e565b50505050905060005b81518110156137e157856000013582828151811061372e5761372e615b51565b602002602001015160000151036137d9576001600a600061375560e08a0160c08b01615b82565b600381111561376657613766615360565b815260200190815260200160002060008860e00160208101906137899190615b67565b61ffff1661ffff16815260200190815260200160002082815481106137b0576137b0615b51565b906000526020600020906004020160030160156101000a81548160ff0219169083151502179055505b60010161370e565b506000338635600080516020615f78833981519152428461380860808c0160608d01615233565b600160405161381a9493929190615b20565b60405180910390a45050505050565b6138316145d3565b600055565b61383e6145d3565b6001600160a01b03811661385157600080fd5b600680546001600160a01b039092166601000000000000027fffffffffffff0000000000000000000000000000000000000000ffffffffffff909216919091179055565b61389d614653565b33600090815260076020908152604080832060020180548251818502810185019093528083529192909190849084015b82821015613983576000848152602090819020604080516080810182526002860290920180548352600181015461ffff81169484019490945291929083019062010000900460ff16600381111561392657613926615360565b600381111561393757613937615360565b81526020016001820160039054906101000a900460ff16600281111561395f5761395f615360565b600281111561397057613970615360565b81525050815260200190600101906138cd565b5050505090506000805b82518110156139cb5784600001518382815181106139ad576139ad615b51565b602002602001015160000151036139c357600191505b60010161398d565b50806139fe5760405162461bcd60e51b8152602060048201526002602482015261062760f31b6044820152606401610657565b83516000908152600b6020908152604080832080548251818502810185019093528083529192909190830182828015613a6057602002820191906000526020600020905b81546001600160a01b03168152600190910190602001808311613a42575b505050505090506000805b8251811015613b1b57856001600160a01b0316838281518110613a9057613a90615b51565b60200260200101516001600160a01b031603613b13576001600160a01b03861660009081526007602052604090206001908101805491935060029183908110613adb57613adb615b51565b906000526020600020906002020160010160036101000a81548160ff02191690836002811115613b0d57613b0d615360565b02179055505b600101613a6b565b5080613b4e5760405162461bcd60e51b8152602060048201526002602482015261313960f01b6044820152606401610657565b8551613b5a9086614c66565b846001600160a01b031686604001516001600160a01b03168760000151600080516020615f78833981519152428a602001518b606001516007604051613ba39493929190615b20565b60405180910390a4855160009081526009602081815260408084206001600160a01b03808b16808752918452828620548c51875285855283872083885290945282862095909555818b01518b5160608d015193519496929591909216939192600080516020615f7883398151915292613c229242928992909190615b20565b60405180910390a460608701516001600160a01b031660008181526005602052604090206002015463a9059cbb908890613c6090859060ff166149aa565b6040516001600160e01b031960e085901b1681526001600160a01b03909216600483015260248201526044016020604051808303816000875af1158015613cab573d6000803e3d6000fd5b505050506040513d601f19601f82011682018060405250810190613ccf9190615c09565b613d005760405162461bcd60e51b8152602060048201526002602482015261323160f01b6044820152606401610657565b50505050505050565b613d116145d3565b60068054911515600160d81b0260ff60d81b19909216919091179055565b613d376145d3565b60068054911515600160d01b0260ff60d01b19909216919091179055565b613d5d6145d3565b611388471115613db657600654660100000000000090046001600160a01b03166108fc613d8c61138847615c5d565b6040518115909202916000818181858888f19350505050158015613db4573d6000803e3d6000fd5b505b565b6000613dc3336143a9565b9050806020015115613e6a5760005b816060015151811015611421578282606001518281518110613df657613df6615b51565b60200260200101516000015103613e625764ffffffffff421633847f93cda0785d40b289a535b99dc76d4c9cbb6d8146182861ac3ad40509398b1865613e3c8880615a67565b613e4960208b018b615a67565b604051613e599493929190615ade565b60405180910390a45b600101613dd2565b505050565b60606000613e7c42614dac565b60065490915064ffffffffff610100909104811690821611613ec55760405162461bcd60e51b81526020600482015260026024820152610c4d60f21b6044820152606401610657565b6000613ed042614dbb565b9050600080600060025467ffffffffffffffff811115613ef257613ef2615431565b604051908082528060200260200182016040528015613f3757816020015b6040805180820190915260008082526020820152815260200190600190039081613f105790505b50905060005b6003811161420257600081613f53575060208501515b60018203613f5f575084515b60028203613f6e575060408501515b60038203613f7d575060608501515b60005b6000838152600a6020908152604080832061ffff861684529091529020548110156141ed576000838152600a6020908152604080832061ffff861684529091529020805482908110613fd457613fd4615b51565b906000526020600020906004020160030160159054906101000a900460ff166141e5576000838152600a6020908152604080832061ffff86168452909152812080548390811061402657614026615b51565b60009182526020808320600490920290910154868352600a8252604080842061ffff881685529092529082208054919350908490811061406857614068615b51565b6000918252602080832060036004909302019190910154878352600a8252604080842061ffff8916855290925290822080546001600160a01b03909216935090859081106140b8576140b8615b51565b90600052602060002090600402016001015490506140f260405180604001604052806000815260200160006001600160a01b031681525090565b600082612710600054856141069190615c26565b6141109190615be2565b61411a9190615c5d565b90506000805b6000878152600b60205260409020548110156141dd576002548d036141535750989e9d5050505050505050505050505050565b6003541580614169575060065460ff1615156001145b156141d5578c61417881615c70565b9d5061418690508383615bf6565b91506040518060400160405280838152602001876001600160a01b03168152509350838b8d815181106141bb576141bb615b51565b60200260200101819052508b806141d190615c70565b9c50505b600101614120565b505050505050505b600101613f80565b505080806141fa90615c70565b915050613f3d565b506000805b82518110156142575760006001600160a01b031683828151811061422d5761422d615b51565b6020026020010151602001516001600160a01b03160361424f57809150614257565b600101614207565b5060008167ffffffffffffffff81111561427357614273615431565b6040519080825280602002602001820160405280156142b857816020015b60408051808201909152600080825260208201528152602001906001900390816142915790505b50905060005b82811015614305578381815181106142d8576142d8615b51565b60200260200101518282815181106142f2576142f2615b51565b60209081029190910101526001016142be565b50979650505050505050565b4264ffffffffff16336001600160a01b03167f34f43abf7a52b609b04511ed963a29ebb76ae3e0ca0ff5594be1c2a84ebd03f2836000015184602001518560400151866060015187608001518860a0015160405161437496959493929190615cec565b60405180910390a350565b6008818154811061438f57600080fd5b6000918252602090912001546001600160a01b0316905081565b60408051608081018252600080825260208201526060918101829052818101919091526001600160a01b038281166000908152600760209081526040808320815160808101835281549586168152600160a01b90950460ff1615158584015260018101805483518186028101860185528181529295938701949293919290919084015b828210156144e2576000848152602090819020604080516080810182526002860290920180548352600181015461ffff81169484019490945291929083019062010000900460ff16600381111561448557614485615360565b600381111561449657614496615360565b81526020016001820160039054906101000a900460ff1660028111156144be576144be615360565b60028111156144cf576144cf615360565b815250508152602001906001019061442c565b50505050815260200160028201805480602002602001604051908101604052809291908181526020016000905b828210156145c5576000848152602090819020604080516080810182526002860290920180548352600181015461ffff81169484019490945291929083019062010000900460ff16600381111561456857614568615360565b600381111561457957614579615360565b81526020016001820160039054906101000a900460ff1660028111156145a1576145a1615360565b60028111156145b2576145b2615360565b815250508152602001906001019061450f565b505050915250909392505050565b600654660100000000000090046001600160a01b03163314613db65760405162461bcd60e51b8152602060048201526002602482015261189b60f11b6044820152606401610657565b6001600160a01b038116600090815260056020526040812060020154610100900460ff1661464b576000612dc8565b600192915050565b33613db65760405162461bcd60e51b81526020600482015260016024820152603360f81b6044820152606401610657565b6040805161010081018252600080825260208201819052918101829052606081018290526080810182905260a0810182905260c0810182905260e08101919091526040516bffffffffffffffffffffffff193360601b16602082015244603482015242605482015260009060740160408051601f1981840301815282825280516020918201206101008401835280845290830189905233918301919091526001600160a01b038716606083015260016080830152600060a0830152915060c0810185600381111561475757614757615360565b81526020018461ffff16815250915050949350505050565b33600090815260076020526040812054600160a01b900460ff16151590036147fd5733600081815260076020526040812080546001600160a01b03199081168417825560088054600181019091557ff3f7a9fe364faab93b216da50a3214154f22a0a2b415b23a84c8169e8b636ee301805490911684179055919052805460ff60a01b1916600160a01b1790555b80156148af5733600090815260076020908152604080832060029081018054600180820183559186529484902087519590920290910193845591850151918301805461ffff19811661ffff909416938417825591860151869493909262ffffff1916176201000083600381111561487657614876615360565b0217905550606082015160018201805463ff000000191663010000008360028111156148a4576148a4615360565b021790555050505050565b33600090815260076020908152604080832060019081018054808301825590855293839020865160029095020193845591850151918301805461ffff19811661ffff909416938417825591860151869493909262ffffff1916176201000083600381111561487657614876615360565b60008060405180608001604052808781526020018661ffff16815260200185600381111561494f5761494f615360565b815260200184600281111561496657614966615360565b81525090506000614984826000015183604001518460200151610b7e565b905080608001511561499b576001925050506149a2565b6000925050505b949350505050565b6000601260ff83168110156149e0576149c38184615d6e565b6149ce90600a615e6e565b6149d89085615c26565b915050612dc8565b8060ff168360ff161015614a0d576149f88382615d6e565b614a0390600a615e6e565b6149d89085615be2565b83915050612dc8565b5092915050565b600080614a2986614dbb565b905060008060008560ff16600003614a4f57836020015161ffff16925060079150614ad6565b8560ff16600103614a8657614a74846080015161ffff168560a0015161ffff16615052565b845161ffff1693509150819050614ad6565b8560ff16600203614aba57614aab846060015161ffff16856080015161ffff166150d8565b61ffff169250605a9150614ad6565b8560ff16600303614ad657836060015161ffff16925061016d91505b8560ff16600103614b9157600061016d614af189600c615c26565b614afb9190615be2565b9050838964ffffffffff1614158015614b1a57508864ffffffffff1684115b15614b4b57614b3064ffffffffff8a1685615c5d565b614b3a9084615c5d565b614b449082615c26565b9750614b8b565b838964ffffffffff1614158015614b6857508864ffffffffff1684105b15614b8b57614b7e8464ffffffffff8b16615c5d565b614b889082615c26565b97505b50614c59565b60ff86161580614ba457508560ff166002145b80614bb257508560ff166003145b15614c5957828864ffffffffff1614158015614bd457508764ffffffffff1683115b15614c0f57614bea64ffffffffff891684615c5d565b614bf49083615c5d565b614bfe8389615be2565b614c089190615c26565b9650614c59565b828864ffffffffff1614158015614c2c57508764ffffffffff1683105b15614c5957614c428364ffffffffff8a16615c5d565b614c4c8389615be2565b614c569190615c26565b96505b5094979650505050505050565b6000828152600b602052604081208054909190815b81811015614cf457846001600160a01b0316848281548110614c9f57614c9f615b51565b6000918252602090912001546001600160a01b031603614cec57809250838181548110614cce57614cce615b51565b600091825260209091200180546001600160a01b0319169055614cf4565b600101614c7b565b5082548390614d0590600190615c5d565b81548110614d1557614d15615b51565b9060005260206000200160009054906101000a90046001600160a01b0316838381548110614d4557614d45615b51565b9060005260206000200160006101000a8154816001600160a01b0302191690836001600160a01b0316021790555082805480614d8357614d83615e7d565b600082815260209020810160001990810180546001600160a01b03191690550190555050505050565b6000612dc86201518083615e93565b6040805160c081018252600080825260208201819052918101829052606081018290526080810182905260a0810182905290614dfa6201518084615be2565b90506000808281614e0e8262010bd9615ebd565b614e1b9062253d8c615ebd565b9050600062023ab1614e2e836004615ee5565b614e389190615f15565b90506004614e498262023ab1615ee5565b614e54906003615ebd565b614e5e9190615f15565b614e689083615f43565b9150600062164b09614e7b846001615ebd565b614e8790610fa0615ee5565b614e919190615f15565b90506004614ea1826105b5615ee5565b614eab9190615f15565b614eb59084615f43565b614ec090601f615ebd565b9250600061098f614ed2856050615ee5565b614edc9190615f15565b905060006050614eee8361098f615ee5565b614ef89190615f15565b614f029086615f43565b9050614f0f600b83615f15565b9450614f1c85600c615ee5565b614f27836002615ebd565b614f319190615f43565b91508483614f40603187615f43565b614f4b906064615ee5565b614f559190615ebd565b614f5f9190615ebd565b909750915086828282600060015b838111614fb957838103614f9057614f8961ffff8e1683615bf6565b9150614fa7565b614f9a8585615052565b614fa49083615bf6565b91505b80614fb181615c70565b915050614f6d565b50809a50614fcb8b61ffff16856150d8565b61ffff1660408f0152614fdd8f61519c565b8e6020019061ffff16908161ffff16815250508b8e6000019061ffff16908161ffff16815250508a8e6060019061ffff16908161ffff1681525050838e6080019061ffff16908161ffff1681525050828e60a0019061ffff16908161ffff168152505050505050505050505050505050919050565b600081600114806150635750816003145b8061506e5750816005145b806150795750816007145b806150845750816008145b8061508f575081600a145b8061509a575081600c145b156150a75750601f612dc8565b816002146150b75750601e612dc8565b6150c0836151d2565b6150cb57601c6150ce565b601d5b60ff169392505050565b6000806150e4836151d2565b156150f1575060016150f5565b5060005b61510081605a615bf6565b841161510e57839150614a16565b8361511a82605a615bf6565b108015615131575061512d8160b5615bf6565b8411155b156151525761514181605a615bf6565b61514b9085615c5d565b9150614a16565b8361515e8260b5615bf6565b108015615176575061517281610111615bf6565b8411155b15615186576151418160b5615bf6565b61519281610111615bf6565b6149a29085615c5d565b6000806151ac6201518084615be2565b9050600060076151bd836003615bf6565b6151c79190615f63565b6149a2906001615bf6565b60006151df600483615f63565b1580156151f557506151f2606483615f63565b15155b80612dc8575061520761019083615f63565b1592915050565b6001600160a01b0381168114613db457600080fd5b803561522e8161520e565b919050565b60006020828403121561524557600080fd5b81356152508161520e565b9392505050565b60006040828403121561526957600080fd5b50919050565b80356004811061522e57600080fd5b803561ffff8116811461522e57600080fd5b600080600080600060a086880312156152a857600080fd5b8535945060208601356152ba8161520e565b9350604086013567ffffffffffffffff8111156152d657600080fd5b6152e288828901615257565b9350506152f16060870161526f565b91506152ff6080870161527e565b90509295509295909350565b60006020828403121561531d57600080fd5b5035919050565b60008060006060848603121561533957600080fd5b833592506153496020850161526f565b91506153576040850161527e565b90509250925092565b634e487b7160e01b600052602160045260246000fd5b6004811061538657615386615360565b9052565b80518252602081015160208301526001600160a01b0360408201511660408301526001600160a01b03606082015116606083015260808101511515608083015260a08101516153dd60a084018215159052565b5060c08101516153f060c0840182615376565b5060e0810151613e6a60e084018261ffff169052565b6101008101612dc8828461538a565b600061010082840312801561542957600080fd5b509092915050565b634e487b7160e01b600052604160045260246000fd5b604051610100810167ffffffffffffffff8111828210171561546b5761546b615431565b60405290565b60405160c0810167ffffffffffffffff8111828210171561546b5761546b615431565b8015158114613db457600080fd5b803561522e81615494565b600061010082840312156154c057600080fd5b6154c8615447565b8235815260208084013590820152905060408201356154e68161520e565b60408201526154f760608301615223565b6060820152615508608083016154a2565b608082015261551960a083016154a2565b60a082015261552a60c0830161526f565b60c082015261553b60e0830161527e565b60e082015292915050565b6000610100828403121561555957600080fd5b61525083836154ad565b60008060006060848603121561557857600080fd5b83356155838161520e565b925060208401359150604084013560ff811681146155a057600080fd5b809150509250925092565b602080825282518282018190526000918401906040840190835b818110156155f857835180516001600160a01b0316845260209081015181850152909301926040909201916001016155c5565b509095945050505050565b6000806040838503121561561657600080fd5b823561562181615494565b915060208301356156318161520e565b809150509250929050565b6003811061538657615386615360565b602080825282518282018190526000918401906040840190835b818110156155f857835161567b84825161538a565b602081015161568e61010086018261563c565b50604001516101208401526020939093019261014090920191600101615666565b60008061012083850312156156c357600080fd5b6156cd84846154ad565b91506101008301356156318161520e565b6000602082840312156156f057600080fd5b813561525081615494565b6000806040838503121561570e57600080fd5b823567ffffffffffffffff81111561572557600080fd5b61573185828601615257565b95602094909401359450505050565b602080825282518282018190526000918401906040840190835b818110156155f8578351805184526020908101516001600160a01b0316818501529093019260409092019160010161575a565b600080604083850312156157a057600080fd5b8235915060208301356156318161520e565b600082601f8301126157c357600080fd5b813567ffffffffffffffff8111156157dd576157dd615431565b604051601f8201601f19908116603f0116810167ffffffffffffffff8111828210171561580c5761580c615431565b60405281815283820160200185101561582457600080fd5b816020850160208301376000918101602001919091529392505050565b60006020828403121561585357600080fd5b813567ffffffffffffffff81111561586a57600080fd5b820160c0818503121561587c57600080fd5b615884615471565b813567ffffffffffffffff81111561589b57600080fd5b6158a7868285016157b2565b825250602082013567ffffffffffffffff8111156158c457600080fd5b6158d0868285016157b2565b602083015250604082013567ffffffffffffffff8111156158f057600080fd5b6158fc868285016157b2565b604083015250606082013567ffffffffffffffff81111561591c57600080fd5b615928868285016157b2565b606083015250608082013567ffffffffffffffff81111561594857600080fd5b615954868285016157b2565b60808301525060a082013567ffffffffffffffff81111561597457600080fd5b615980868285016157b2565b60a083015250949350505050565b600081518084526020840193506020830160005b828110156159fc5781518051875261ffff602082015116602088015260408101516159d06040890182615376565b50606081015190506159e5606088018261563c565b5060809590950194602091909101906001016159a2565b5093949350505050565b602081526001600160a01b0382511660208201526020820151151560408201526000604083015160806060840152615a4160a084018261598e565b90506060840151601f19848303016080850152615a5e828261598e565b95945050505050565b6000808335601e19843603018112615a7e57600080fd5b83018035915067ffffffffffffffff821115615a9957600080fd5b602001915036819003821315615aae57600080fd5b9250929050565b81835281816020850137506000828201602090810191909152601f909101601f19169091010190565b604081526000615af2604083018688615ab5565b8281036020840152615b05818587615ab5565b979650505050505050565b600a811061538657615386615360565b64ffffffffff85168152602081018490526001600160a01b038316604082015260808101615a5e6060830184615b10565b634e487b7160e01b600052603260045260246000fd5b600060208284031215615b7957600080fd5b6152508261527e565b600060208284031215615b9457600080fd5b6152508261526f565b600060208284031215615baf57600080fd5b5051919050565b634e487b7160e01b600052601260045260246000fd5b634e487b7160e01b600052601160045260246000fd5b600082615bf157615bf1615bb6565b500490565b80820180821115612dc857612dc8615bcc565b600060208284031215615c1b57600080fd5b815161525081615494565b8082028115828204841417612dc857612dc8615bcc565b64ffffffffff8181168382160290811690818114614a1657614a16615bcc565b81810381811115612dc857612dc8615bcc565b600060018201615c8257615c82615bcc565b5060010190565b64ffffffffff8181168382160190811115612dc857612dc8615bcc565b6000815180845260005b81811015615ccc57602081850181015186830182015201615cb0565b506000602082860101526020601f19601f83011685010191505092915050565b60c081526000615cff60c0830189615ca6565b8281036020840152615d118189615ca6565b90508281036040840152615d258188615ca6565b90508281036060840152615d398187615ca6565b90508281036080840152615d4d8186615ca6565b905082810360a0840152615d618185615ca6565b9998505050505050505050565b60ff8281168282160390811115612dc857612dc8615bcc565b6001815b6001841115615dc257808504811115615da657615da6615bcc565b6001841615615db457908102905b60019390931c928002615d8b565b935093915050565b600082615dd957506001612dc8565b81615de657506000612dc8565b8160018114615dfc5760028114615e0657615e22565b6001915050612dc8565b60ff841115615e1757615e17615bcc565b50506001821b612dc8565b5060208310610133831016604e8410600b8410161715615e45575081810a612dc8565b615e526000198484615d87565b8060001904821115615e6657615e66615bcc565b029392505050565b600061525060ff841683615dca565b634e487b7160e01b600052603160045260246000fd5b600064ffffffffff831680615eaa57615eaa615bb6565b8064ffffffffff84160491505092915050565b8082018281126000831280158216821582161715615edd57615edd615bcc565b505092915050565b80820260008212600160ff1b84141615615f0157615f01615bcc565b8181058314821517612dc857612dc8615bcc565b600082615f2457615f24615bb6565b600160ff1b821460001984141615615f3e57615f3e615bcc565b500590565b8181036000831280158383131683831282161715614a1657614a16615bcc565b600082615f7257615f72615bb6565b50069056feca6b824caf1a48ea2ad039dbb063460fa30e9c3cc255eeb52240d638ec6de65ea264697066735822122031d1d9abb1d305f7a352cce56c14f5999e7f629c783f9a0433033d649935d56e64736f6c634300081a0033","opcodes":"PUSH1 0x80 PUSH1 0x40 MSTORE PUSH1 0x40 MLOAD PUSH2 0x616D CODESIZE SUB DUP1 PUSH2 0x616D DUP4 CODECOPY DUP2 ADD PUSH1 0x40 DUP2 SWAP1 MSTORE PUSH2 0x22 SWAP2 PUSH2 0xC4 JUMP JUMPDEST PUSH1 0x0 DUP6 SWAP1 SSTORE PUSH1 0x1 DUP5 SWAP1 SSTORE PUSH1 0x2 DUP4 DUP2 SSTORE PUSH1 0x6 DUP1 SLOAD PUSH1 0xFF PUSH1 0xD8 SHL NOT AND PUSH1 0x1 PUSH1 0xD8 SHL DUP6 ISZERO ISZERO MUL OR SWAP1 SSTORE PUSH2 0x51 TIMESTAMP PUSH2 0xAF JUMP JUMPDEST PUSH2 0x5B SWAP2 SWAP1 PUSH2 0x12E JUMP JUMPDEST PUSH1 0x6 DUP1 SLOAD PUSH1 0x1 PUSH1 0x1 PUSH1 0xA0 SHL SUB SWAP1 SWAP4 AND PUSH7 0x1000000000000 MUL PUSH1 0x1 PUSH1 0x30 SHL PUSH1 0x1 PUSH1 0xD0 SHL SUB NOT PUSH5 0xFFFFFFFFFF SWAP4 SWAP1 SWAP4 AND PUSH2 0x100 MUL SWAP3 SWAP1 SWAP3 AND PUSH2 0x100 PUSH1 0x1 PUSH1 0xD0 SHL SUB NOT SWAP1 SWAP4 AND SWAP3 SWAP1 SWAP3 OR OR SWAP1 SSTORE POP PUSH2 0x191 SWAP3 POP POP POP JUMP JUMPDEST PUSH1 0x0 PUSH2 0xBE PUSH3 0x15180 DUP4 PUSH2 0x159 JUMP JUMPDEST SWAP3 SWAP2 POP POP JUMP JUMPDEST PUSH1 0x0 DUP1 PUSH1 0x0 DUP1 PUSH1 0x0 PUSH1 0xA0 DUP7 DUP9 SUB SLT ISZERO PUSH2 0xDC JUMPI PUSH1 0x0 DUP1 REVERT JUMPDEST DUP6 MLOAD PUSH1 0x20 DUP8 ADD MLOAD PUSH1 0x40 DUP9 ADD MLOAD PUSH1 0x60 DUP10 ADD MLOAD SWAP3 SWAP8 POP SWAP1 SWAP6 POP SWAP4 POP DUP1 ISZERO ISZERO DUP2 EQ PUSH2 0x103 JUMPI PUSH1 0x0 DUP1 REVERT JUMPDEST PUSH1 0x80 DUP8 ADD MLOAD SWAP1 SWAP3 POP PUSH1 0x1 PUSH1 0x1 PUSH1 0xA0 SHL SUB DUP2 AND DUP2 EQ PUSH2 0x120 JUMPI PUSH1 0x0 DUP1 REVERT JUMPDEST DUP1 SWAP2 POP POP SWAP3 SWAP6 POP SWAP3 SWAP6 SWAP1 SWAP4 POP JUMP JUMPDEST PUSH5 0xFFFFFFFFFF DUP3 DUP2 AND DUP3 DUP3 AND SUB SWAP1 DUP2 GT ISZERO PUSH2 0xBE JUMPI PUSH4 0x4E487B71 PUSH1 0xE0 SHL PUSH1 0x0 MSTORE PUSH1 0x11 PUSH1 0x4 MSTORE PUSH1 0x24 PUSH1 0x0 REVERT JUMPDEST PUSH1 0x0 PUSH5 0xFFFFFFFFFF DUP4 AND DUP1 PUSH2 0x17E JUMPI PUSH4 0x4E487B71 PUSH1 0xE0 SHL PUSH1 0x0 MSTORE PUSH1 0x12 PUSH1 0x4 MSTORE PUSH1 0x24 PUSH1 0x0 REVERT JUMPDEST DUP1 PUSH5 0xFFFFFFFFFF DUP5 AND DIV SWAP2 POP POP SWAP3 SWAP2 POP POP JUMP JUMPDEST PUSH2 0x5FCD DUP1 PUSH2 0x1A0 PUSH1 0x0 CODECOPY PUSH1 0x0 RETURN INVALID PUSH1 0x80 PUSH1 0x40 MSTORE PUSH1 0x4 CALLDATASIZE LT PUSH2 0x1B9 JUMPI PUSH1 0x0 CALLDATALOAD PUSH1 0xE0 SHR DUP1 PUSH4 0x8F283970 GT PUSH2 0xEB JUMPI DUP1 PUSH4 0xCAB1C965 GT PUSH2 0x8F JUMPI DUP1 PUSH4 0xEBEC6EAA GT PUSH2 0x61 JUMPI DUP1 PUSH4 0xEBEC6EAA EQ PUSH2 0x54A JUMPI DUP1 PUSH4 0xED601D28 EQ PUSH2 0x582 JUMPI DUP1 PUSH4 0xF4A2A200 EQ PUSH2 0x5A2 JUMPI DUP1 PUSH4 0xFBCBC0F1 EQ PUSH2 0x5DA JUMPI STOP JUMPDEST DUP1 PUSH4 0xCAB1C965 EQ PUSH2 0x4B9 JUMPI DUP1 PUSH4 0xD10F9E69 EQ PUSH2 0x4CF JUMPI DUP1 PUSH4 0xDA854A96 EQ PUSH2 0x4EF JUMPI DUP1 PUSH4 0xE63D35BE EQ PUSH2 0x528 JUMPI STOP JUMPDEST DUP1 PUSH4 0xB25AE32C GT PUSH2 0xC8 JUMPI DUP1 PUSH4 0xB25AE32C EQ PUSH2 0x3E9 JUMPI DUP1 PUSH4 0xB4761DE9 EQ PUSH2 0x3FE JUMPI DUP1 PUSH4 0xBD743886 EQ PUSH2 0x41E JUMPI DUP1 PUSH4 0xC8796572 EQ PUSH2 0x4A4 JUMPI STOP JUMPDEST DUP1 PUSH4 0x8F283970 EQ PUSH2 0x389 JUMPI DUP1 PUSH4 0x907CEDB2 EQ PUSH2 0x3A9 JUMPI DUP1 PUSH4 0x9889552E EQ PUSH2 0x3C9 JUMPI STOP JUMPDEST DUP1 PUSH4 0x3C95DAD5 GT PUSH2 0x15D JUMPI DUP1 PUSH4 0x7BBF5A6E GT PUSH2 0x12F JUMPI DUP1 PUSH4 0x7BBF5A6E EQ PUSH2 0x2EF JUMPI DUP1 PUSH4 0x86525A00 EQ PUSH2 0x31C JUMPI DUP1 PUSH4 0x87D888D3 EQ PUSH2 0x349 JUMPI DUP1 PUSH4 0x8EF0EF1C EQ PUSH2 0x369 JUMPI STOP JUMPDEST DUP1 PUSH4 0x3C95DAD5 EQ PUSH2 0x2A1 JUMPI DUP1 PUSH4 0x44E49769 EQ PUSH2 0x2B4 JUMPI DUP1 PUSH4 0x4A1268B8 EQ PUSH2 0x2C7 JUMPI DUP1 PUSH4 0x7507BA39 EQ PUSH2 0x2E7 JUMPI STOP JUMPDEST DUP1 PUSH4 0x1F17EE55 GT PUSH2 0x196 JUMPI DUP1 PUSH4 0x1F17EE55 EQ PUSH2 0x215 JUMPI DUP1 PUSH4 0x27EA9773 EQ PUSH2 0x23E JUMPI DUP1 PUSH4 0x2D23F7E7 EQ PUSH2 0x25E JUMPI DUP1 PUSH4 0x34D441D0 EQ PUSH2 0x28B JUMPI STOP JUMPDEST DUP1 PUSH4 0x53149FA EQ PUSH2 0x1C2 JUMPI DUP1 PUSH4 0xB8590C7 EQ PUSH2 0x1E2 JUMPI DUP1 PUSH4 0xBEC99E8 EQ PUSH2 0x1F5 JUMPI STOP JUMPDEST CALLDATASIZE PUSH2 0x1C0 JUMPI STOP JUMPDEST STOP JUMPDEST CALLVALUE DUP1 ISZERO PUSH2 0x1CE JUMPI PUSH1 0x0 DUP1 REVERT JUMPDEST POP PUSH2 0x1C0 PUSH2 0x1DD CALLDATASIZE PUSH1 0x4 PUSH2 0x5233 JUMP JUMPDEST PUSH2 0x607 JUMP JUMPDEST PUSH2 0x1C0 PUSH2 0x1F0 CALLDATASIZE PUSH1 0x4 PUSH2 0x5290 JUMP JUMPDEST PUSH2 0x69B JUMP JUMPDEST CALLVALUE DUP1 ISZERO PUSH2 0x201 JUMPI PUSH1 0x0 DUP1 REVERT JUMPDEST POP PUSH2 0x1C0 PUSH2 0x210 CALLDATASIZE PUSH1 0x4 PUSH2 0x530B JUMP JUMPDEST PUSH2 0xB64 JUMP JUMPDEST CALLVALUE DUP1 ISZERO PUSH2 0x221 JUMPI PUSH1 0x0 DUP1 REVERT JUMPDEST POP PUSH2 0x22B PUSH1 0x1 SLOAD DUP2 JUMP JUMPDEST PUSH1 0x40 MLOAD SWAP1 DUP2 MSTORE PUSH1 0x20 ADD JUMPDEST PUSH1 0x40 MLOAD DUP1 SWAP2 SUB SWAP1 RETURN JUMPDEST CALLVALUE DUP1 ISZERO PUSH2 0x24A JUMPI PUSH1 0x0 DUP1 REVERT JUMPDEST POP PUSH2 0x1C0 PUSH2 0x259 CALLDATASIZE PUSH1 0x4 PUSH2 0x530B JUMP JUMPDEST PUSH2 0xB71 JUMP JUMPDEST CALLVALUE DUP1 ISZERO PUSH2 0x26A JUMPI PUSH1 0x0 DUP1 REVERT JUMPDEST POP PUSH2 0x27E PUSH2 0x279 CALLDATASIZE PUSH1 0x4 PUSH2 0x5324 JUMP JUMPDEST PUSH2 0xB7E JUMP JUMPDEST PUSH1 0x40 MLOAD PUSH2 0x235 SWAP2 SWAP1 PUSH2 0x5406 JUMP JUMPDEST CALLVALUE DUP1 ISZERO PUSH2 0x297 JUMPI PUSH1 0x0 DUP1 REVERT JUMPDEST POP PUSH2 0x22B PUSH1 0x0 SLOAD DUP2 JUMP JUMPDEST PUSH2 0x1C0 PUSH2 0x2AF CALLDATASIZE PUSH1 0x4 PUSH2 0x5415 JUMP JUMPDEST PUSH2 0xD56 JUMP JUMPDEST PUSH2 0x1C0 PUSH2 0x2C2 CALLDATASIZE PUSH1 0x4 PUSH2 0x5546 JUMP JUMPDEST PUSH2 0x1427 JUMP JUMPDEST CALLVALUE DUP1 ISZERO PUSH2 0x2D3 JUMPI PUSH1 0x0 DUP1 REVERT JUMPDEST POP PUSH2 0x1C0 PUSH2 0x2E2 CALLDATASIZE PUSH1 0x4 PUSH2 0x5563 JUMP JUMPDEST PUSH2 0x180A JUMP JUMPDEST PUSH2 0x1C0 PUSH2 0x18E9 JUMP JUMPDEST CALLVALUE DUP1 ISZERO PUSH2 0x2FB JUMPI PUSH1 0x0 DUP1 REVERT JUMPDEST POP PUSH2 0x30F PUSH2 0x30A CALLDATASIZE PUSH1 0x4 PUSH2 0x530B JUMP JUMPDEST PUSH2 0x27E1 JUMP JUMPDEST PUSH1 0x40 MLOAD PUSH2 0x235 SWAP2 SWAP1 PUSH2 0x55AB JUMP JUMPDEST CALLVALUE DUP1 ISZERO PUSH2 0x328 JUMPI PUSH1 0x0 DUP1 REVERT JUMPDEST POP PUSH2 0x33C PUSH2 0x337 CALLDATASIZE PUSH1 0x4 PUSH2 0x5603 JUMP JUMPDEST PUSH2 0x29D7 JUMP JUMPDEST PUSH1 0x40 MLOAD PUSH2 0x235 SWAP2 SWAP1 PUSH2 0x564C JUMP JUMPDEST CALLVALUE DUP1 ISZERO PUSH2 0x355 JUMPI PUSH1 0x0 DUP1 REVERT JUMPDEST POP PUSH2 0x1C0 PUSH2 0x364 CALLDATASIZE PUSH1 0x4 PUSH2 0x5415 JUMP JUMPDEST PUSH2 0x2DCE JUMP JUMPDEST CALLVALUE DUP1 ISZERO PUSH2 0x375 JUMPI PUSH1 0x0 DUP1 REVERT JUMPDEST POP PUSH2 0x1C0 PUSH2 0x384 CALLDATASIZE PUSH1 0x4 PUSH2 0x530B JUMP JUMPDEST PUSH2 0x3829 JUMP JUMPDEST CALLVALUE DUP1 ISZERO PUSH2 0x395 JUMPI PUSH1 0x0 DUP1 REVERT JUMPDEST POP PUSH2 0x1C0 PUSH2 0x3A4 CALLDATASIZE PUSH1 0x4 PUSH2 0x5233 JUMP JUMPDEST PUSH2 0x3836 JUMP JUMPDEST CALLVALUE DUP1 ISZERO PUSH2 0x3B5 JUMPI PUSH1 0x0 DUP1 REVERT JUMPDEST POP PUSH2 0x1C0 PUSH2 0x3C4 CALLDATASIZE PUSH1 0x4 PUSH2 0x56AF JUMP JUMPDEST PUSH2 0x3895 JUMP JUMPDEST CALLVALUE DUP1 ISZERO PUSH2 0x3D5 JUMPI PUSH1 0x0 DUP1 REVERT JUMPDEST POP PUSH2 0x1C0 PUSH2 0x3E4 CALLDATASIZE PUSH1 0x4 PUSH2 0x56DE JUMP JUMPDEST PUSH2 0x3D09 JUMP JUMPDEST CALLVALUE DUP1 ISZERO PUSH2 0x3F5 JUMPI PUSH1 0x0 DUP1 REVERT JUMPDEST POP PUSH1 0x8 SLOAD PUSH2 0x22B JUMP JUMPDEST CALLVALUE DUP1 ISZERO PUSH2 0x40A JUMPI PUSH1 0x0 DUP1 REVERT JUMPDEST POP PUSH2 0x1C0 PUSH2 0x419 CALLDATASIZE PUSH1 0x4 PUSH2 0x56DE JUMP JUMPDEST PUSH2 0x3D2F JUMP JUMPDEST CALLVALUE DUP1 ISZERO PUSH2 0x42A JUMPI PUSH1 0x0 DUP1 REVERT JUMPDEST POP PUSH2 0x470 PUSH2 0x439 CALLDATASIZE PUSH1 0x4 PUSH2 0x5233 JUMP JUMPDEST PUSH1 0x5 PUSH1 0x20 MSTORE PUSH1 0x0 SWAP1 DUP2 MSTORE PUSH1 0x40 SWAP1 KECCAK256 DUP1 SLOAD PUSH1 0x1 DUP3 ADD SLOAD PUSH1 0x2 SWAP1 SWAP3 ADD SLOAD PUSH1 0x1 PUSH1 0x1 PUSH1 0xA0 SHL SUB SWAP1 SWAP2 AND SWAP2 SWAP1 PUSH1 0xFF DUP1 DUP3 AND SWAP2 PUSH2 0x100 SWAP1 DIV AND DUP5 JUMP JUMPDEST PUSH1 0x40 DUP1 MLOAD PUSH1 0x1 PUSH1 0x1 PUSH1 0xA0 SHL SUB SWAP1 SWAP6 AND DUP6 MSTORE PUSH1 0x20 DUP6 ADD SWAP4 SWAP1 SWAP4 MSTORE PUSH1 0xFF SWAP1 SWAP2 AND SWAP2 DUP4 ADD SWAP2 SWAP1 SWAP2 MSTORE ISZERO ISZERO PUSH1 0x60 DUP3 ADD MSTORE PUSH1 0x80 ADD PUSH2 0x235 JUMP JUMPDEST CALLVALUE DUP1 ISZERO PUSH2 0x4B0 JUMPI PUSH1 0x0 DUP1 REVERT JUMPDEST POP PUSH2 0x1C0 PUSH2 0x3D55 JUMP JUMPDEST CALLVALUE DUP1 ISZERO PUSH2 0x4C5 JUMPI PUSH1 0x0 DUP1 REVERT JUMPDEST POP PUSH2 0x22B PUSH1 0x2 SLOAD DUP2 JUMP JUMPDEST CALLVALUE DUP1 ISZERO PUSH2 0x4DB JUMPI PUSH1 0x0 DUP1 REVERT JUMPDEST POP PUSH2 0x1C0 PUSH2 0x4EA CALLDATASIZE PUSH1 0x4 PUSH2 0x56FB JUMP JUMPDEST PUSH2 0x3DB8 JUMP JUMPDEST CALLVALUE DUP1 ISZERO PUSH2 0x4FB JUMPI PUSH1 0x0 DUP1 REVERT JUMPDEST POP PUSH1 0x6 SLOAD PUSH2 0x512 SWAP1 PUSH2 0x100 SWAP1 DIV PUSH5 0xFFFFFFFFFF AND DUP2 JUMP JUMPDEST PUSH1 0x40 MLOAD PUSH5 0xFFFFFFFFFF SWAP1 SWAP2 AND DUP2 MSTORE PUSH1 0x20 ADD PUSH2 0x235 JUMP JUMPDEST CALLVALUE DUP1 ISZERO PUSH2 0x534 JUMPI PUSH1 0x0 DUP1 REVERT JUMPDEST POP PUSH2 0x53D PUSH2 0x3E6F JUMP JUMPDEST PUSH1 0x40 MLOAD PUSH2 0x235 SWAP2 SWAP1 PUSH2 0x5740 JUMP JUMPDEST CALLVALUE DUP1 ISZERO PUSH2 0x556 JUMPI PUSH1 0x0 DUP1 REVERT JUMPDEST POP PUSH2 0x22B PUSH2 0x565 CALLDATASIZE PUSH1 0x4 PUSH2 0x578D JUMP JUMPDEST PUSH1 0x9 PUSH1 0x20 SWAP1 DUP2 MSTORE PUSH1 0x0 SWAP3 DUP4 MSTORE PUSH1 0x40 DUP1 DUP5 KECCAK256 SWAP1 SWAP2 MSTORE SWAP1 DUP3 MSTORE SWAP1 KECCAK256 SLOAD DUP2 JUMP JUMPDEST CALLVALUE DUP1 ISZERO PUSH2 0x58E JUMPI PUSH1 0x0 DUP1 REVERT JUMPDEST POP PUSH2 0x1C0 PUSH2 0x59D CALLDATASIZE PUSH1 0x4 PUSH2 0x5841 JUMP JUMPDEST PUSH2 0x4311 JUMP JUMPDEST CALLVALUE DUP1 ISZERO PUSH2 0x5AE JUMPI PUSH1 0x0 DUP1 REVERT JUMPDEST POP PUSH2 0x5C2 PUSH2 0x5BD CALLDATASIZE PUSH1 0x4 PUSH2 0x530B JUMP JUMPDEST PUSH2 0x437F JUMP JUMPDEST PUSH1 0x40 MLOAD PUSH1 0x1 PUSH1 0x1 PUSH1 0xA0 SHL SUB SWAP1 SWAP2 AND DUP2 MSTORE PUSH1 0x20 ADD PUSH2 0x235 JUMP JUMPDEST CALLVALUE DUP1 ISZERO PUSH2 0x5E6 JUMPI PUSH1 0x0 DUP1 REVERT JUMPDEST POP PUSH2 0x5FA PUSH2 0x5F5 CALLDATASIZE PUSH1 0x4 PUSH2 0x5233 JUMP JUMPDEST PUSH2 0x43A9 JUMP JUMPDEST PUSH1 0x40 MLOAD PUSH2 0x235 SWAP2 SWAP1 PUSH2 0x5A06 JUMP JUMPDEST PUSH2 0x60F PUSH2 0x45D3 JUMP JUMPDEST PUSH1 0x1 PUSH1 0x1 PUSH1 0xA0 SHL SUB DUP2 AND PUSH2 0x622 JUMPI PUSH1 0x0 DUP1 REVERT JUMPDEST PUSH2 0x62B DUP2 PUSH2 0x461C JUMP JUMPDEST PUSH2 0x660 JUMPI PUSH1 0x40 MLOAD PUSH3 0x461BCD PUSH1 0xE5 SHL DUP2 MSTORE PUSH1 0x20 PUSH1 0x4 DUP3 ADD MSTORE PUSH1 0x1 PUSH1 0x24 DUP3 ADD MSTORE PUSH1 0x19 PUSH1 0xF9 SHL PUSH1 0x44 DUP3 ADD MSTORE PUSH1 0x64 ADD JUMPDEST PUSH1 0x40 MLOAD DUP1 SWAP2 SUB SWAP1 REVERT JUMPDEST PUSH1 0x1 PUSH1 0x1 PUSH1 0xA0 SHL SUB AND PUSH1 0x0 SWAP1 DUP2 MSTORE PUSH1 0x5 PUSH1 0x20 MSTORE PUSH1 0x40 DUP2 KECCAK256 DUP1 SLOAD PUSH1 0x1 PUSH1 0x1 PUSH1 0xA0 SHL SUB NOT AND DUP2 SSTORE PUSH1 0x1 DUP2 ADD SWAP2 SWAP1 SWAP2 SSTORE PUSH1 0x2 ADD DUP1 SLOAD PUSH2 0xFFFF NOT AND SWAP1 SSTORE JUMP JUMPDEST PUSH2 0x6A3 PUSH2 0x4653 JUMP JUMPDEST PUSH1 0x1 PUSH1 0x1 PUSH1 0xA0 SHL SUB DUP5 AND PUSH2 0x6DD JUMPI PUSH1 0x40 MLOAD PUSH3 0x461BCD PUSH1 0xE5 SHL DUP2 MSTORE PUSH1 0x20 PUSH1 0x4 DUP3 ADD MSTORE PUSH1 0x1 PUSH1 0x24 DUP3 ADD MSTORE PUSH1 0x7 PUSH1 0xFB SHL PUSH1 0x44 DUP3 ADD MSTORE PUSH1 0x64 ADD PUSH2 0x657 JUMP JUMPDEST PUSH1 0x6 SLOAD PUSH1 0x1 PUSH1 0xD8 SHL SWAP1 DIV PUSH1 0xFF AND ISZERO PUSH2 0x725 JUMPI CALLVALUE PUSH1 0x1 SLOAD GT ISZERO PUSH2 0x725 JUMPI PUSH1 0x40 MLOAD PUSH3 0x461BCD PUSH1 0xE5 SHL DUP2 MSTORE PUSH1 0x20 PUSH1 0x4 DUP3 ADD MSTORE PUSH1 0x1 PUSH1 0x24 DUP3 ADD MSTORE PUSH1 0x35 PUSH1 0xF8 SHL PUSH1 0x44 DUP3 ADD MSTORE PUSH1 0x64 ADD PUSH2 0x657 JUMP JUMPDEST PUSH2 0x72E DUP5 PUSH2 0x461C JUMP JUMPDEST PUSH2 0x75E JUMPI PUSH1 0x40 MLOAD PUSH3 0x461BCD PUSH1 0xE5 SHL DUP2 MSTORE PUSH1 0x20 PUSH1 0x4 DUP3 ADD MSTORE PUSH1 0x1 PUSH1 0x24 DUP3 ADD MSTORE PUSH1 0x39 PUSH1 0xF8 SHL PUSH1 0x44 DUP3 ADD MSTORE PUSH1 0x64 ADD PUSH2 0x657 JUMP JUMPDEST PUSH1 0x0 DUP3 PUSH1 0x3 DUP2 GT ISZERO PUSH2 0x772 JUMPI PUSH2 0x772 PUSH2 0x5360 JUMP JUMPDEST SUB PUSH2 0x7C1 JUMPI DUP1 PUSH2 0xFFFF AND PUSH1 0x0 LT DUP1 ISZERO PUSH2 0x790 JUMPI POP PUSH1 0x7 DUP2 PUSH2 0xFFFF AND GT ISZERO JUMPDEST PUSH2 0x7C1 JUMPI PUSH1 0x40 MLOAD PUSH3 0x461BCD PUSH1 0xE5 SHL DUP2 MSTORE PUSH1 0x20 PUSH1 0x4 DUP3 ADD MSTORE PUSH1 0x2 PUSH1 0x24 DUP3 ADD MSTORE PUSH2 0x191B PUSH1 0xF1 SHL PUSH1 0x44 DUP3 ADD MSTORE PUSH1 0x64 ADD PUSH2 0x657 JUMP JUMPDEST PUSH1 0x1 DUP3 PUSH1 0x3 DUP2 GT ISZERO PUSH2 0x7D5 JUMPI PUSH2 0x7D5 PUSH2 0x5360 JUMP JUMPDEST SUB PUSH2 0x824 JUMPI DUP1 PUSH2 0xFFFF AND PUSH1 0x0 LT DUP1 ISZERO PUSH2 0x7F3 JUMPI POP PUSH1 0x1C DUP2 PUSH2 0xFFFF AND GT ISZERO JUMPDEST PUSH2 0x824 JUMPI PUSH1 0x40 MLOAD PUSH3 0x461BCD PUSH1 0xE5 SHL DUP2 MSTORE PUSH1 0x20 PUSH1 0x4 DUP3 ADD MSTORE PUSH1 0x2 PUSH1 0x24 DUP3 ADD MSTORE PUSH2 0x3237 PUSH1 0xF0 SHL PUSH1 0x44 DUP3 ADD MSTORE PUSH1 0x64 ADD PUSH2 0x657 JUMP JUMPDEST PUSH1 0x2 DUP3 PUSH1 0x3 DUP2 GT ISZERO PUSH2 0x838 JUMPI PUSH2 0x838 PUSH2 0x5360 JUMP JUMPDEST SUB PUSH2 0x887 JUMPI DUP1 PUSH2 0xFFFF AND PUSH1 0x0 LT DUP1 ISZERO PUSH2 0x856 JUMPI POP PUSH1 0x5A DUP2 PUSH2 0xFFFF AND GT ISZERO JUMPDEST PUSH2 0x887 JUMPI PUSH1 0x40 MLOAD PUSH3 0x461BCD PUSH1 0xE5 SHL DUP2 MSTORE PUSH1 0x20 PUSH1 0x4 DUP3 ADD MSTORE PUSH1 0x2 PUSH1 0x24 DUP3 ADD MSTORE PUSH2 0x647 PUSH1 0xF3 SHL PUSH1 0x44 DUP3 ADD MSTORE PUSH1 0x64 ADD PUSH2 0x657 JUMP JUMPDEST PUSH1 0x3 DUP3 PUSH1 0x3 DUP2 GT ISZERO PUSH2 0x89B JUMPI PUSH2 0x89B PUSH2 0x5360 JUMP JUMPDEST SUB PUSH2 0x8EB JUMPI DUP1 PUSH2 0xFFFF AND PUSH1 0x0 LT DUP1 ISZERO PUSH2 0x8BA JUMPI POP PUSH2 0x16D DUP2 PUSH2 0xFFFF AND GT ISZERO JUMPDEST PUSH2 0x8EB JUMPI PUSH1 0x40 MLOAD PUSH3 0x461BCD PUSH1 0xE5 SHL DUP2 MSTORE PUSH1 0x20 PUSH1 0x4 DUP3 ADD MSTORE PUSH1 0x2 PUSH1 0x24 DUP3 ADD MSTORE PUSH2 0x3239 PUSH1 0xF0 SHL PUSH1 0x44 DUP3 ADD MSTORE PUSH1 0x64 ADD PUSH2 0x657 JUMP JUMPDEST PUSH1 0x1 PUSH1 0x1 PUSH1 0xA0 SHL SUB DUP5 AND PUSH1 0x0 SWAP1 DUP2 MSTORE PUSH1 0x5 PUSH1 0x20 MSTORE PUSH1 0x40 SWAP1 KECCAK256 PUSH1 0x1 ADD SLOAD DUP6 LT ISZERO PUSH2 0x93B JUMPI PUSH1 0x40 MLOAD PUSH3 0x461BCD PUSH1 0xE5 SHL DUP2 MSTORE PUSH1 0x20 PUSH1 0x4 DUP3 ADD MSTORE PUSH1 0x2 PUSH1 0x24 DUP3 ADD MSTORE PUSH2 0x333 PUSH1 0xF4 SHL PUSH1 0x44 DUP3 ADD MSTORE PUSH1 0x64 ADD PUSH2 0x657 JUMP JUMPDEST PUSH1 0x0 PUSH2 0x949 DUP7 DUP7 DUP6 DUP6 PUSH2 0x4684 JUMP JUMPDEST SWAP1 POP DUP1 PUSH1 0xA PUSH1 0x0 DUP6 PUSH1 0x3 DUP2 GT ISZERO PUSH2 0x962 JUMPI PUSH2 0x962 PUSH2 0x5360 JUMP JUMPDEST DUP2 MSTORE PUSH1 0x20 DUP1 DUP3 ADD SWAP3 SWAP1 SWAP3 MSTORE PUSH1 0x40 SWAP1 DUP2 ADD PUSH1 0x0 SWAP1 DUP2 KECCAK256 PUSH2 0xFFFF DUP8 AND DUP3 MSTORE DUP4 MSTORE DUP2 DUP2 KECCAK256 DUP1 SLOAD PUSH1 0x1 DUP2 DUP2 ADD DUP4 SSTORE SWAP2 DUP4 MSTORE SWAP2 DUP5 SWAP1 KECCAK256 DUP6 MLOAD PUSH1 0x4 SWAP1 SWAP4 MUL ADD SWAP2 DUP3 SSTORE SWAP3 DUP5 ADD MLOAD SWAP3 DUP2 ADD SWAP3 SWAP1 SWAP3 SSTORE DUP3 ADD MLOAD PUSH1 0x2 DUP3 ADD DUP1 SLOAD PUSH1 0x1 PUSH1 0x1 PUSH1 0xA0 SHL SUB SWAP3 DUP4 AND PUSH1 0x1 PUSH1 0x1 PUSH1 0xA0 SHL SUB NOT SWAP1 SWAP2 AND OR SWAP1 SSTORE PUSH1 0x60 DUP4 ADD MLOAD PUSH1 0x3 DUP1 DUP5 ADD DUP1 SLOAD PUSH1 0x80 DUP8 ADD MLOAD PUSH1 0xA0 DUP9 ADD MLOAD ISZERO ISZERO PUSH1 0x1 PUSH1 0xA8 SHL MUL PUSH1 0xFF PUSH1 0xA8 SHL NOT SWAP2 ISZERO ISZERO PUSH1 0x1 PUSH1 0xA0 SHL MUL PUSH21 0xFFFFFFFFFFFFFFFFFFFFFFFFFFFFFFFFFFFFFFFFFF NOT SWAP1 SWAP4 AND SWAP6 SWAP1 SWAP7 AND SWAP5 SWAP1 SWAP5 OR OR SWAP3 DUP4 AND DUP5 OR DUP2 SSTORE PUSH1 0xC0 DUP7 ADD MLOAD SWAP4 SWAP1 SWAP3 PUSH1 0xFF PUSH1 0xB0 SHL NOT SWAP1 SWAP2 AND PUSH2 0xFFFF PUSH1 0xA8 SHL NOT SWAP1 SWAP2 AND OR SWAP1 PUSH1 0x1 PUSH1 0xB0 SHL SWAP1 DUP5 SWAP1 DUP2 GT ISZERO PUSH2 0xA57 JUMPI PUSH2 0xA57 PUSH2 0x5360 JUMP JUMPDEST MUL OR SWAP1 SSTORE POP PUSH1 0xE0 SWAP2 DUP3 ADD MLOAD PUSH1 0x3 SWAP2 DUP3 ADD DUP1 SLOAD PUSH2 0xFFFF PUSH1 0xB8 SHL NOT AND PUSH1 0x1 PUSH1 0xB8 SHL PUSH2 0xFFFF SWAP4 DUP5 AND MUL OR SWAP1 SSTORE PUSH1 0x40 DUP1 MLOAD PUSH1 0x80 DUP2 ADD DUP3 MSTORE DUP6 MLOAD DUP2 MSTORE SWAP4 DUP6 ADD MLOAD SWAP1 SWAP2 AND PUSH1 0x20 DUP5 ADD MSTORE PUSH1 0xC0 DUP5 ADD MLOAD PUSH2 0xAC7 SWAP4 SWAP3 SWAP2 DUP4 ADD SWAP2 DUP2 GT ISZERO PUSH2 0xAB7 JUMPI PUSH2 0xAB7 PUSH2 0x5360 JUMP JUMPDEST DUP2 MSTORE PUSH1 0x20 ADD PUSH1 0x0 SWAP1 MSTORE PUSH1 0x1 PUSH2 0x476F JUMP JUMPDEST DUP1 MLOAD PUSH5 0xFFFFFFFFFF TIMESTAMP AND SWAP1 CALLER SWAP1 PUSH32 0x93CDA0785D40B289A535B99DC76D4C9CBB6D8146182861AC3AD40509398B1865 PUSH2 0xAFF DUP9 DUP1 PUSH2 0x5A67 JUMP JUMPDEST PUSH2 0xB0C PUSH1 0x20 DUP12 ADD DUP12 PUSH2 0x5A67 JUMP JUMPDEST PUSH1 0x40 MLOAD PUSH2 0xB1C SWAP5 SWAP4 SWAP3 SWAP2 SWAP1 PUSH2 0x5ADE JUMP JUMPDEST PUSH1 0x40 MLOAD DUP1 SWAP2 SUB SWAP1 LOG4 DUP1 MLOAD PUSH1 0x60 DUP3 ADD MLOAD PUSH1 0x40 MLOAD PUSH1 0x0 SWAP3 CALLER SWAP3 SWAP1 SWAP2 PUSH1 0x0 DUP1 MLOAD PUSH1 0x20 PUSH2 0x5F78 DUP4 CODECOPY DUP2 MLOAD SWAP2 MSTORE SWAP2 PUSH2 0xB54 SWAP2 TIMESTAMP SWAP2 DUP14 SWAP2 DUP9 SWAP1 PUSH2 0x5B20 JUMP JUMPDEST PUSH1 0x40 MLOAD DUP1 SWAP2 SUB SWAP1 LOG4 POP POP POP POP POP POP JUMP JUMPDEST PUSH2 0xB6C PUSH2 0x45D3 JUMP JUMPDEST PUSH1 0x1 SSTORE JUMP JUMPDEST PUSH2 0xB79 PUSH2 0x45D3 JUMP JUMPDEST PUSH1 0x2 SSTORE JUMP JUMPDEST PUSH1 0x40 DUP1 MLOAD PUSH2 0x100 DUP2 ADD DUP3 MSTORE PUSH1 0x0 DUP1 DUP3 MSTORE PUSH1 0x20 DUP3 ADD DUP2 SWAP1 MSTORE SWAP2 DUP2 ADD DUP3 SWAP1 MSTORE PUSH1 0x60 DUP2 ADD DUP3 SWAP1 MSTORE PUSH1 0x80 DUP2 ADD DUP3 SWAP1 MSTORE PUSH1 0xA0 DUP2 ADD DUP3 SWAP1 MSTORE PUSH1 0xC0 DUP2 ADD DUP3 SWAP1 MSTORE PUSH1 0xE0 DUP2 ADD DUP3 SWAP1 MSTORE SWAP1 PUSH1 0xA DUP2 DUP6 PUSH1 0x3 DUP2 GT ISZERO PUSH2 0xBD4 JUMPI PUSH2 0xBD4 PUSH2 0x5360 JUMP JUMPDEST DUP2 MSTORE PUSH1 0x20 ADD SWAP1 DUP2 MSTORE PUSH1 0x20 ADD PUSH1 0x0 KECCAK256 PUSH1 0x0 DUP5 PUSH2 0xFFFF AND PUSH2 0xFFFF AND DUP2 MSTORE PUSH1 0x20 ADD SWAP1 DUP2 MSTORE PUSH1 0x20 ADD PUSH1 0x0 KECCAK256 DUP1 SLOAD DUP1 PUSH1 0x20 MUL PUSH1 0x20 ADD PUSH1 0x40 MLOAD SWAP1 DUP2 ADD PUSH1 0x40 MSTORE DUP1 SWAP3 SWAP2 SWAP1 DUP2 DUP2 MSTORE PUSH1 0x20 ADD PUSH1 0x0 SWAP1 JUMPDEST DUP3 DUP3 LT ISZERO PUSH2 0xCF2 JUMPI PUSH1 0x0 DUP5 DUP2 MSTORE PUSH1 0x20 SWAP1 DUP2 SWAP1 KECCAK256 PUSH1 0x40 DUP1 MLOAD PUSH2 0x100 DUP2 ADD DUP3 MSTORE PUSH1 0x4 DUP7 MUL SWAP1 SWAP3 ADD DUP1 SLOAD DUP4 MSTORE PUSH1 0x1 DUP2 ADD SLOAD SWAP4 DUP4 ADD SWAP4 SWAP1 SWAP4 MSTORE PUSH1 0x2 DUP4 ADD SLOAD PUSH1 0x1 PUSH1 0x1 PUSH1 0xA0 SHL SUB SWAP1 DUP2 AND SWAP2 DUP4 ADD SWAP2 SWAP1 SWAP2 MSTORE PUSH1 0x3 DUP1 DUP5 ADD SLOAD SWAP2 DUP3 AND PUSH1 0x60 DUP5 ADD MSTORE PUSH1 0xFF PUSH1 0x1 PUSH1 0xA0 SHL DUP4 DIV DUP2 AND ISZERO ISZERO PUSH1 0x80 DUP6 ADD MSTORE PUSH1 0x1 PUSH1 0xA8 SHL DUP4 DIV DUP2 AND ISZERO ISZERO PUSH1 0xA0 DUP6 ADD MSTORE SWAP3 SWAP4 SWAP3 PUSH1 0xC0 DUP6 ADD SWAP3 PUSH1 0x1 PUSH1 0xB0 SHL SWAP1 DIV AND SWAP1 DUP2 GT ISZERO PUSH2 0xCB7 JUMPI PUSH2 0xCB7 PUSH2 0x5360 JUMP JUMPDEST PUSH1 0x3 DUP2 GT ISZERO PUSH2 0xCC8 JUMPI PUSH2 0xCC8 PUSH2 0x5360 JUMP JUMPDEST DUP2 MSTORE PUSH1 0x3 SWAP2 SWAP1 SWAP2 ADD SLOAD PUSH2 0xFFFF PUSH1 0x1 PUSH1 0xB8 SHL SWAP1 SWAP2 DIV AND PUSH1 0x20 SWAP2 DUP3 ADD MSTORE SWAP1 DUP3 MSTORE PUSH1 0x1 SWAP1 SWAP3 ADD SWAP2 ADD PUSH2 0xC1B JUMP JUMPDEST POP POP POP POP SWAP1 POP PUSH1 0x0 JUMPDEST DUP2 MLOAD DUP2 LT ISZERO PUSH2 0xD4D JUMPI DUP6 DUP3 DUP3 DUP2 MLOAD DUP2 LT PUSH2 0xD17 JUMPI PUSH2 0xD17 PUSH2 0x5B51 JUMP JUMPDEST PUSH1 0x20 MUL PUSH1 0x20 ADD ADD MLOAD PUSH1 0x0 ADD MLOAD SUB PUSH2 0xD45 JUMPI DUP2 DUP2 DUP2 MLOAD DUP2 LT PUSH2 0xD3A JUMPI PUSH2 0xD3A PUSH2 0x5B51 JUMP JUMPDEST PUSH1 0x20 MUL PUSH1 0x20 ADD ADD MLOAD SWAP3 POP JUMPDEST PUSH1 0x1 ADD PUSH2 0xCFB JUMP JUMPDEST POP POP SWAP4 SWAP3 POP POP POP JUMP JUMPDEST PUSH2 0xD5E PUSH2 0x4653 JUMP JUMPDEST PUSH2 0xD8B DUP2 CALLDATALOAD PUSH2 0xD74 PUSH2 0x100 DUP5 ADD PUSH1 0xE0 DUP6 ADD PUSH2 0x5B67 JUMP JUMPDEST PUSH2 0xD84 PUSH1 0xE0 DUP6 ADD PUSH1 0xC0 DUP7 ADD PUSH2 0x5B82 JUMP JUMPDEST PUSH1 0x0 PUSH2 0x491F JUMP JUMPDEST PUSH2 0xDBB JUMPI PUSH1 0x40 MLOAD PUSH3 0x461BCD PUSH1 0xE5 SHL DUP2 MSTORE PUSH1 0x20 PUSH1 0x4 DUP3 ADD MSTORE PUSH1 0x1 PUSH1 0x24 DUP3 ADD MSTORE PUSH1 0x37 PUSH1 0xF8 SHL PUSH1 0x44 DUP3 ADD MSTORE PUSH1 0x64 ADD PUSH2 0x657 JUMP JUMPDEST PUSH1 0x0 PUSH2 0xDFD PUSH1 0x20 DUP4 ADD CALLDATALOAD PUSH1 0x5 DUP4 PUSH2 0xDD8 PUSH1 0x80 DUP8 ADD PUSH1 0x60 DUP9 ADD PUSH2 0x5233 JUMP JUMPDEST PUSH1 0x1 PUSH1 0x1 PUSH1 0xA0 SHL SUB AND DUP2 MSTORE PUSH1 0x20 DUP2 ADD SWAP2 SWAP1 SWAP2 MSTORE PUSH1 0x40 ADD PUSH1 0x0 KECCAK256 PUSH1 0x2 ADD SLOAD PUSH1 0xFF AND PUSH2 0x49AA JUMP JUMPDEST SWAP1 POP DUP1 PUSH2 0xE10 PUSH1 0x80 DUP5 ADD PUSH1 0x60 DUP6 ADD PUSH2 0x5233 JUMP JUMPDEST PUSH1 0x40 MLOAD PUSH4 0x6EB1769F PUSH1 0xE1 SHL DUP2 MSTORE CALLER PUSH1 0x4 DUP3 ADD MSTORE ADDRESS PUSH1 0x24 DUP3 ADD MSTORE PUSH1 0x1 PUSH1 0x1 PUSH1 0xA0 SHL SUB SWAP2 SWAP1 SWAP2 AND SWAP1 PUSH4 0xDD62ED3E SWAP1 PUSH1 0x44 ADD PUSH1 0x20 PUSH1 0x40 MLOAD DUP1 DUP4 SUB DUP2 PUSH1 0x0 DUP8 GAS CALL ISZERO DUP1 ISZERO PUSH2 0xE5E JUMPI RETURNDATASIZE PUSH1 0x0 DUP1 RETURNDATACOPY RETURNDATASIZE PUSH1 0x0 REVERT JUMPDEST POP POP POP POP PUSH1 0x40 MLOAD RETURNDATASIZE PUSH1 0x1F NOT PUSH1 0x1F DUP3 ADD AND DUP3 ADD DUP1 PUSH1 0x40 MSTORE POP DUP2 ADD SWAP1 PUSH2 0xE82 SWAP2 SWAP1 PUSH2 0x5B9D JUMP JUMPDEST LT ISZERO DUP1 ISZERO PUSH2 0xF0B JUMPI POP DUP1 PUSH2 0xE9C PUSH1 0x80 DUP5 ADD PUSH1 0x60 DUP6 ADD PUSH2 0x5233 JUMP JUMPDEST PUSH1 0x40 MLOAD PUSH4 0x70A08231 PUSH1 0xE0 SHL DUP2 MSTORE CALLER PUSH1 0x4 DUP3 ADD MSTORE PUSH1 0x1 PUSH1 0x1 PUSH1 0xA0 SHL SUB SWAP2 SWAP1 SWAP2 AND SWAP1 PUSH4 0x70A08231 SWAP1 PUSH1 0x24 ADD PUSH1 0x20 PUSH1 0x40 MLOAD DUP1 DUP4 SUB DUP2 PUSH1 0x0 DUP8 GAS CALL ISZERO DUP1 ISZERO PUSH2 0xEE4 JUMPI RETURNDATASIZE PUSH1 0x0 DUP1 RETURNDATACOPY RETURNDATASIZE PUSH1 0x0 REVERT JUMPDEST POP POP POP POP PUSH1 0x40 MLOAD RETURNDATASIZE PUSH1 0x1F NOT PUSH1 0x1F DUP3 ADD AND DUP3 ADD DUP1 PUSH1 0x40 MSTORE POP DUP2 ADD SWAP1 PUSH2 0xF08 SWAP2 SWAP1 PUSH2 0x5B9D JUMP JUMPDEST LT ISZERO JUMPDEST PUSH2 0xF3C JUMPI PUSH1 0x40 MLOAD PUSH3 0x461BCD PUSH1 0xE5 SHL DUP2 MSTORE PUSH1 0x20 PUSH1 0x4 DUP3 ADD MSTORE PUSH1 0x2 PUSH1 0x24 DUP3 ADD MSTORE PUSH2 0x323 PUSH1 0xF4 SHL PUSH1 0x44 DUP3 ADD MSTORE PUSH1 0x64 ADD PUSH2 0x657 JUMP JUMPDEST PUSH2 0xF4C PUSH1 0x60 DUP4 ADD PUSH1 0x40 DUP5 ADD PUSH2 0x5233 JUMP JUMPDEST PUSH1 0x1 PUSH1 0x1 PUSH1 0xA0 SHL SUB AND CALLER SUB PUSH2 0xF87 JUMPI PUSH1 0x40 MLOAD PUSH3 0x461BCD PUSH1 0xE5 SHL DUP2 MSTORE PUSH1 0x20 PUSH1 0x4 DUP3 ADD MSTORE PUSH1 0x1 PUSH1 0x24 DUP3 ADD MSTORE PUSH1 0x3 PUSH1 0xFC SHL PUSH1 0x44 DUP3 ADD MSTORE PUSH1 0x64 ADD PUSH2 0x657 JUMP JUMPDEST DUP2 CALLDATALOAD PUSH1 0x0 DUP2 DUP2 MSTORE PUSH1 0xB PUSH1 0x20 SWAP1 DUP2 MSTORE PUSH1 0x40 DUP1 DUP4 KECCAK256 DUP1 SLOAD PUSH1 0x1 DUP2 ADD DUP3 SSTORE SWAP1 DUP5 MSTORE SWAP3 DUP3 SWAP1 KECCAK256 SWAP1 SWAP3 ADD DUP1 SLOAD PUSH1 0x1 PUSH1 0x1 PUSH1 0xA0 SHL SUB NOT AND CALLER OR SWAP1 SSTORE DUP2 MLOAD PUSH1 0x80 DUP2 ADD SWAP1 SWAP3 MSTORE SWAP2 DUP2 MSTORE PUSH2 0x1019 SWAP2 DUP2 ADD PUSH2 0xFDF PUSH2 0x100 DUP7 ADD PUSH1 0xE0 DUP8 ADD PUSH2 0x5B67 JUMP JUMPDEST PUSH2 0xFFFF AND DUP2 MSTORE PUSH1 0x20 ADD PUSH2 0xFF8 PUSH1 0xE0 DUP7 ADD PUSH1 0xC0 DUP8 ADD PUSH2 0x5B82 JUMP JUMPDEST PUSH1 0x3 DUP2 GT ISZERO PUSH2 0x1009 JUMPI PUSH2 0x1009 PUSH2 0x5360 JUMP JUMPDEST DUP2 MSTORE PUSH1 0x20 ADD PUSH1 0x0 SWAP1 MSTORE PUSH1 0x0 PUSH2 0x476F JUMP JUMPDEST PUSH1 0x20 DUP3 ADD CALLDATALOAD PUSH1 0x1 DUP1 PUSH2 0x1031 PUSH1 0xE0 DUP7 ADD PUSH1 0xC0 DUP8 ADD PUSH2 0x5B82 JUMP JUMPDEST PUSH1 0x3 DUP2 GT ISZERO PUSH2 0x1042 JUMPI PUSH2 0x1042 PUSH2 0x5360 JUMP JUMPDEST EQ DUP1 PUSH2 0x106E JUMPI POP PUSH1 0x0 PUSH2 0x105B PUSH1 0xE0 DUP7 ADD PUSH1 0xC0 DUP8 ADD PUSH2 0x5B82 JUMP JUMPDEST PUSH1 0x3 DUP2 GT ISZERO PUSH2 0x106C JUMPI PUSH2 0x106C PUSH2 0x5360 JUMP JUMPDEST EQ JUMPDEST ISZERO PUSH2 0x10BA JUMPI PUSH2 0x10B3 TIMESTAMP PUSH2 0x1088 PUSH2 0x100 DUP8 ADD PUSH1 0xE0 DUP9 ADD PUSH2 0x5B67 JUMP JUMPDEST PUSH2 0xFFFF AND DUP5 PUSH2 0x109D PUSH1 0xE0 DUP10 ADD PUSH1 0xC0 DUP11 ADD PUSH2 0x5B82 JUMP JUMPDEST PUSH1 0x3 DUP2 GT ISZERO PUSH2 0x10AE JUMPI PUSH2 0x10AE PUSH2 0x5360 JUMP JUMPDEST PUSH2 0x4A1D JUMP JUMPDEST SWAP2 POP PUSH2 0x1160 JUMP JUMPDEST PUSH1 0x2 PUSH2 0x10CC PUSH1 0xE0 DUP7 ADD PUSH1 0xC0 DUP8 ADD PUSH2 0x5B82 JUMP JUMPDEST PUSH1 0x3 DUP2 GT ISZERO PUSH2 0x10DD JUMPI PUSH2 0x10DD PUSH2 0x5360 JUMP JUMPDEST SUB PUSH2 0x110F JUMPI PUSH2 0x10F7 TIMESTAMP PUSH2 0x1088 PUSH2 0x100 DUP8 ADD PUSH1 0xE0 DUP9 ADD PUSH2 0x5B67 JUMP JUMPDEST SWAP2 POP PUSH2 0x1104 PUSH1 0x3 DUP4 PUSH2 0x5BE2 JUMP JUMPDEST SWAP2 POP PUSH1 0x2 SWAP1 POP PUSH2 0x1160 JUMP JUMPDEST PUSH1 0x3 PUSH2 0x1121 PUSH1 0xE0 DUP7 ADD PUSH1 0xC0 DUP8 ADD PUSH2 0x5B82 JUMP JUMPDEST PUSH1 0x3 DUP2 GT ISZERO PUSH2 0x1132 JUMPI PUSH2 0x1132 PUSH2 0x5360 JUMP JUMPDEST SUB PUSH2 0x1160 JUMPI PUSH2 0x114C TIMESTAMP PUSH2 0x1088 PUSH2 0x100 DUP8 ADD PUSH1 0xE0 DUP9 ADD PUSH2 0x5B67 JUMP JUMPDEST SWAP2 POP PUSH2 0x1159 PUSH1 0xC DUP4 PUSH2 0x5BE2 JUMP JUMPDEST SWAP2 POP PUSH1 0xB SWAP1 POP JUMPDEST DUP4 CALLDATALOAD PUSH1 0x0 SWAP1 DUP2 MSTORE PUSH1 0x9 PUSH1 0x20 SWAP1 DUP2 MSTORE PUSH1 0x40 DUP1 DUP4 KECCAK256 CALLER DUP5 MSTORE SWAP1 SWAP2 MSTORE DUP2 KECCAK256 DUP1 SLOAD DUP5 SWAP3 SWAP1 PUSH2 0x118B SWAP1 DUP5 SWAP1 PUSH2 0x5BF6 JUMP JUMPDEST SWAP1 SWAP2 SSTORE POP CALLER SWAP1 POP PUSH2 0x11A2 PUSH1 0x60 DUP7 ADD PUSH1 0x40 DUP8 ADD PUSH2 0x5233 JUMP JUMPDEST PUSH1 0x1 PUSH1 0x1 PUSH1 0xA0 SHL SUB AND DUP6 CALLDATALOAD PUSH1 0x0 DUP1 MLOAD PUSH1 0x20 PUSH2 0x5F78 DUP4 CODECOPY DUP2 MLOAD SWAP2 MSTORE TIMESTAMP PUSH1 0x20 DUP10 ADD CALLDATALOAD PUSH2 0x11D2 PUSH1 0x80 DUP12 ADD PUSH1 0x60 DUP13 ADD PUSH2 0x5233 JUMP JUMPDEST PUSH1 0x6 PUSH1 0x40 MLOAD PUSH2 0x11E4 SWAP5 SWAP4 SWAP3 SWAP2 SWAP1 PUSH2 0x5B20 JUMP JUMPDEST PUSH1 0x40 MLOAD DUP1 SWAP2 SUB SWAP1 LOG4 CALLER PUSH2 0x11FD PUSH1 0x60 DUP7 ADD PUSH1 0x40 DUP8 ADD PUSH2 0x5233 JUMP JUMPDEST PUSH1 0x1 PUSH1 0x1 PUSH1 0xA0 SHL SUB AND DUP6 CALLDATALOAD PUSH1 0x0 DUP1 MLOAD PUSH1 0x20 PUSH2 0x5F78 DUP4 CODECOPY DUP2 MLOAD SWAP2 MSTORE TIMESTAMP DUP7 PUSH2 0x1229 PUSH1 0x80 DUP12 ADD PUSH1 0x60 DUP13 ADD PUSH2 0x5233 JUMP JUMPDEST PUSH1 0x8 PUSH1 0x40 MLOAD PUSH2 0x123B SWAP5 SWAP4 SWAP3 SWAP2 SWAP1 PUSH2 0x5B20 JUMP JUMPDEST PUSH1 0x40 MLOAD DUP1 SWAP2 SUB SWAP1 LOG4 PUSH2 0x1253 PUSH1 0x80 DUP6 ADD PUSH1 0x60 DUP7 ADD PUSH2 0x5233 JUMP JUMPDEST PUSH1 0x1 PUSH1 0x1 PUSH1 0xA0 SHL SUB AND PUSH4 0x23B872DD CALLER ADDRESS PUSH2 0x127B DUP7 PUSH1 0x5 PUSH1 0x0 PUSH2 0xDD8 PUSH1 0x80 DUP14 ADD PUSH1 0x60 DUP15 ADD PUSH2 0x5233 JUMP JUMPDEST PUSH1 0x40 MLOAD PUSH1 0x1 PUSH1 0x1 PUSH1 0xE0 SHL SUB NOT PUSH1 0xE0 DUP7 SWAP1 SHL AND DUP2 MSTORE PUSH1 0x1 PUSH1 0x1 PUSH1 0xA0 SHL SUB SWAP4 DUP5 AND PUSH1 0x4 DUP3 ADD MSTORE SWAP3 SWAP1 SWAP2 AND PUSH1 0x24 DUP4 ADD MSTORE PUSH1 0x44 DUP3 ADD MSTORE PUSH1 0x64 ADD PUSH1 0x20 PUSH1 0x40 MLOAD DUP1 DUP4 SUB DUP2 PUSH1 0x0 DUP8 GAS CALL ISZERO DUP1 ISZERO PUSH2 0x12CF JUMPI RETURNDATASIZE PUSH1 0x0 DUP1 RETURNDATACOPY RETURNDATASIZE PUSH1 0x0 REVERT JUMPDEST POP POP POP POP PUSH1 0x40 MLOAD RETURNDATASIZE PUSH1 0x1F NOT PUSH1 0x1F DUP3 ADD AND DUP3 ADD DUP1 PUSH1 0x40 MSTORE POP DUP2 ADD SWAP1 PUSH2 0x12F3 SWAP2 SWAP1 PUSH2 0x5C09 JUMP JUMPDEST PUSH2 0x12FC JUMPI PUSH1 0x0 DUP1 REVERT JUMPDEST PUSH1 0x2 PUSH2 0x130E PUSH1 0xE0 DUP7 ADD PUSH1 0xC0 DUP8 ADD PUSH2 0x5B82 JUMP JUMPDEST PUSH1 0x3 DUP2 GT ISZERO PUSH2 0x131F JUMPI PUSH2 0x131F PUSH2 0x5360 JUMP JUMPDEST EQ DUP1 PUSH2 0x134B JUMPI POP PUSH1 0x3 PUSH2 0x1338 PUSH1 0xE0 DUP7 ADD PUSH1 0xC0 DUP8 ADD PUSH2 0x5B82 JUMP JUMPDEST PUSH1 0x3 DUP2 GT ISZERO PUSH2 0x1349 JUMPI PUSH2 0x1349 PUSH2 0x5360 JUMP JUMPDEST EQ JUMPDEST ISZERO PUSH2 0x1421 JUMPI PUSH2 0x1360 PUSH1 0x80 DUP6 ADD PUSH1 0x60 DUP7 ADD PUSH2 0x5233 JUMP JUMPDEST PUSH1 0x1 PUSH1 0x1 PUSH1 0xA0 SHL SUB AND PUSH4 0x23B872DD CALLER PUSH2 0x137F PUSH1 0x60 DUP9 ADD PUSH1 0x40 DUP10 ADD PUSH2 0x5233 JUMP JUMPDEST PUSH2 0x13A0 PUSH2 0x138C DUP7 DUP9 PUSH2 0x5C26 JUMP JUMPDEST PUSH1 0x5 PUSH1 0x0 PUSH2 0xDD8 PUSH1 0x80 DUP14 ADD PUSH1 0x60 DUP15 ADD PUSH2 0x5233 JUMP JUMPDEST PUSH1 0x40 MLOAD PUSH1 0x1 PUSH1 0x1 PUSH1 0xE0 SHL SUB NOT PUSH1 0xE0 DUP7 SWAP1 SHL AND DUP2 MSTORE PUSH1 0x1 PUSH1 0x1 PUSH1 0xA0 SHL SUB SWAP4 DUP5 AND PUSH1 0x4 DUP3 ADD MSTORE SWAP3 SWAP1 SWAP2 AND PUSH1 0x24 DUP4 ADD MSTORE PUSH1 0x44 DUP3 ADD MSTORE PUSH1 0x64 ADD PUSH1 0x20 PUSH1 0x40 MLOAD DUP1 DUP4 SUB DUP2 PUSH1 0x0 DUP8 GAS CALL ISZERO DUP1 ISZERO PUSH2 0x13F4 JUMPI RETURNDATASIZE PUSH1 0x0 DUP1 RETURNDATACOPY RETURNDATASIZE PUSH1 0x0 REVERT JUMPDEST POP POP POP POP PUSH1 0x40 MLOAD RETURNDATASIZE PUSH1 0x1F NOT PUSH1 0x1F DUP3 ADD AND DUP3 ADD DUP1 PUSH1 0x40 MSTORE POP DUP2 ADD SWAP1 PUSH2 0x1418 SWAP2 SWAP1 PUSH2 0x5C09 JUMP JUMPDEST PUSH2 0x1421 JUMPI PUSH1 0x0 DUP1 REVERT JUMPDEST POP POP POP POP JUMP JUMPDEST PUSH2 0x142F PUSH2 0x4653 JUMP JUMPDEST CALLER PUSH1 0x0 SWAP1 DUP2 MSTORE PUSH1 0x7 PUSH1 0x20 MSTORE PUSH1 0x40 DUP2 KECCAK256 PUSH1 0x1 ADD SLOAD PUSH8 0xFFFFFFFFFFFFFFFF DUP2 GT ISZERO PUSH2 0x145A JUMPI PUSH2 0x145A PUSH2 0x5431 JUMP JUMPDEST PUSH1 0x40 MLOAD SWAP1 DUP1 DUP3 MSTORE DUP1 PUSH1 0x20 MUL PUSH1 0x20 ADD DUP3 ADD PUSH1 0x40 MSTORE DUP1 ISZERO PUSH2 0x14B5 JUMPI DUP2 PUSH1 0x20 ADD JUMPDEST PUSH2 0x14A2 PUSH1 0x40 DUP1 MLOAD PUSH1 0x80 DUP2 ADD DUP3 MSTORE PUSH1 0x0 DUP1 DUP3 MSTORE PUSH1 0x20 DUP3 ADD DUP2 SWAP1 MSTORE SWAP1 SWAP2 DUP3 ADD SWAP1 DUP2 MSTORE PUSH1 0x20 ADD PUSH1 0x0 SWAP1 MSTORE SWAP1 JUMP JUMPDEST DUP2 MSTORE PUSH1 0x20 ADD SWAP1 PUSH1 0x1 SWAP1 SUB SWAP1 DUP2 PUSH2 0x1478 JUMPI SWAP1 POP JUMPDEST POP CALLER PUSH1 0x0 SWAP1 DUP2 MSTORE PUSH1 0x7 PUSH1 0x20 SWAP1 DUP2 MSTORE PUSH1 0x40 DUP1 DUP4 KECCAK256 PUSH1 0x1 ADD DUP1 SLOAD DUP3 MLOAD DUP2 DUP6 MUL DUP2 ADD DUP6 ADD SWAP1 SWAP4 MSTORE DUP1 DUP4 MSTORE SWAP5 SWAP6 POP SWAP1 SWAP4 SWAP1 SWAP3 SWAP1 SWAP2 DUP5 ADD JUMPDEST DUP3 DUP3 LT ISZERO PUSH2 0x159E JUMPI PUSH1 0x0 DUP5 DUP2 MSTORE PUSH1 0x20 SWAP1 DUP2 SWAP1 KECCAK256 PUSH1 0x40 DUP1 MLOAD PUSH1 0x80 DUP2 ADD DUP3 MSTORE PUSH1 0x2 DUP7 MUL SWAP1 SWAP3 ADD DUP1 SLOAD DUP4 MSTORE PUSH1 0x1 DUP2 ADD SLOAD PUSH2 0xFFFF DUP2 AND SWAP5 DUP5 ADD SWAP5 SWAP1 SWAP5 MSTORE SWAP2 SWAP3 SWAP1 DUP4 ADD SWAP1 PUSH3 0x10000 SWAP1 DIV PUSH1 0xFF AND PUSH1 0x3 DUP2 GT ISZERO PUSH2 0x1541 JUMPI PUSH2 0x1541 PUSH2 0x5360 JUMP JUMPDEST PUSH1 0x3 DUP2 GT ISZERO PUSH2 0x1552 JUMPI PUSH2 0x1552 PUSH2 0x5360 JUMP JUMPDEST DUP2 MSTORE PUSH1 0x20 ADD PUSH1 0x1 DUP3 ADD PUSH1 0x3 SWAP1 SLOAD SWAP1 PUSH2 0x100 EXP SWAP1 DIV PUSH1 0xFF AND PUSH1 0x2 DUP2 GT ISZERO PUSH2 0x157A JUMPI PUSH2 0x157A PUSH2 0x5360 JUMP JUMPDEST PUSH1 0x2 DUP2 GT ISZERO PUSH2 0x158B JUMPI PUSH2 0x158B PUSH2 0x5360 JUMP JUMPDEST DUP2 MSTORE POP POP DUP2 MSTORE PUSH1 0x20 ADD SWAP1 PUSH1 0x1 ADD SWAP1 PUSH2 0x14E8 JUMP JUMPDEST POP POP CALLER PUSH1 0x0 SWAP1 DUP2 MSTORE PUSH1 0x7 PUSH1 0x20 MSTORE PUSH1 0x40 DUP2 KECCAK256 PUSH1 0x1 ADD SLOAD SWAP4 SWAP5 POP SWAP2 POP POP JUMPDEST DUP2 DUP2 LT ISZERO PUSH2 0x1652 JUMPI DUP4 PUSH1 0x0 ADD MLOAD DUP4 DUP3 DUP2 MLOAD DUP2 LT PUSH2 0x15D9 JUMPI PUSH2 0x15D9 PUSH2 0x5B51 JUMP JUMPDEST PUSH1 0x20 MUL PUSH1 0x20 ADD ADD MLOAD PUSH1 0x0 ADD MLOAD SUB PUSH2 0x164A JUMPI CALLER PUSH1 0x0 SWAP1 DUP2 MSTORE PUSH1 0x7 PUSH1 0x20 MSTORE PUSH1 0x40 SWAP1 KECCAK256 PUSH1 0x1 ADD DUP1 SLOAD PUSH1 0x2 SWAP2 SWAP1 DUP4 SWAP1 DUP2 LT PUSH2 0x1612 JUMPI PUSH2 0x1612 PUSH2 0x5B51 JUMP JUMPDEST SWAP1 PUSH1 0x0 MSTORE PUSH1 0x20 PUSH1 0x0 KECCAK256 SWAP1 PUSH1 0x2 MUL ADD PUSH1 0x1 ADD PUSH1 0x3 PUSH2 0x100 EXP DUP2 SLOAD DUP2 PUSH1 0xFF MUL NOT AND SWAP1 DUP4 PUSH1 0x2 DUP2 GT ISZERO PUSH2 0x1644 JUMPI PUSH2 0x1644 PUSH2 0x5360 JUMP JUMPDEST MUL OR SWAP1 SSTORE POP JUMPDEST PUSH1 0x1 ADD PUSH2 0x15BA JUMP JUMPDEST POP DUP3 MLOAD PUSH2 0x165F SWAP1 CALLER PUSH2 0x4C66 JUMP JUMPDEST CALLER PUSH1 0x1 PUSH1 0x1 PUSH1 0xA0 SHL SUB AND DUP4 PUSH1 0x40 ADD MLOAD PUSH1 0x1 PUSH1 0x1 PUSH1 0xA0 SHL SUB AND DUP5 PUSH1 0x0 ADD MLOAD PUSH1 0x0 DUP1 MLOAD PUSH1 0x20 PUSH2 0x5F78 DUP4 CODECOPY DUP2 MLOAD SWAP2 MSTORE TIMESTAMP DUP8 PUSH1 0x20 ADD MLOAD DUP9 PUSH1 0x60 ADD MLOAD PUSH1 0x7 PUSH1 0x40 MLOAD PUSH2 0x16A8 SWAP5 SWAP4 SWAP3 SWAP2 SWAP1 PUSH2 0x5B20 JUMP JUMPDEST PUSH1 0x40 MLOAD DUP1 SWAP2 SUB SWAP1 LOG4 DUP3 MLOAD PUSH1 0x0 SWAP1 DUP2 MSTORE PUSH1 0x9 PUSH1 0x20 DUP2 DUP2 MSTORE PUSH1 0x40 DUP1 DUP5 KECCAK256 CALLER DUP1 DUP7 MSTORE SWAP1 DUP4 MSTORE DUP2 DUP6 KECCAK256 SLOAD DUP9 MLOAD DUP7 MSTORE SWAP4 DUP4 MSTORE DUP2 DUP6 KECCAK256 DUP2 DUP7 MSTORE SWAP1 SWAP3 MSTORE DUP1 DUP5 KECCAK256 SWAP4 SWAP1 SWAP4 SSTORE DUP3 DUP7 ADD MLOAD DUP7 MLOAD PUSH1 0x60 DUP9 ADD MLOAD SWAP5 MLOAD SWAP4 SWAP5 SWAP3 SWAP4 PUSH1 0x1 PUSH1 0x1 PUSH1 0xA0 SHL SUB SWAP1 SWAP3 AND SWAP3 SWAP1 SWAP2 PUSH1 0x0 DUP1 MLOAD PUSH1 0x20 PUSH2 0x5F78 DUP4 CODECOPY DUP2 MLOAD SWAP2 MSTORE SWAP2 PUSH2 0x1724 SWAP2 TIMESTAMP SWAP2 DUP9 SWAP2 PUSH1 0x4 SWAP1 PUSH2 0x5B20 JUMP JUMPDEST PUSH1 0x40 MLOAD DUP1 SWAP2 SUB SWAP1 LOG4 PUSH1 0x60 DUP5 ADD MLOAD PUSH1 0x40 DUP1 DUP7 ADD MLOAD PUSH1 0x1 PUSH1 0x1 PUSH1 0xA0 SHL SUB SWAP1 SWAP3 AND PUSH1 0x0 DUP2 DUP2 MSTORE PUSH1 0x5 PUSH1 0x20 MSTORE SWAP2 SWAP1 SWAP2 KECCAK256 PUSH1 0x2 ADD SLOAD SWAP1 SWAP2 PUSH4 0xA9059CBB SWAP2 PUSH2 0x176A SWAP1 DUP6 SWAP1 PUSH1 0xFF AND PUSH2 0x49AA JUMP JUMPDEST PUSH1 0x40 MLOAD PUSH1 0x1 PUSH1 0x1 PUSH1 0xE0 SHL SUB NOT PUSH1 0xE0 DUP6 SWAP1 SHL AND DUP2 MSTORE PUSH1 0x1 PUSH1 0x1 PUSH1 0xA0 SHL SUB SWAP1 SWAP3 AND PUSH1 0x4 DUP4 ADD MSTORE PUSH1 0x24 DUP3 ADD MSTORE PUSH1 0x44 ADD PUSH1 0x20 PUSH1 0x40 MLOAD DUP1 DUP4 SUB DUP2 PUSH1 0x0 DUP8 GAS CALL ISZERO DUP1 ISZERO PUSH2 0x17B5 JUMPI RETURNDATASIZE PUSH1 0x0 DUP1 RETURNDATACOPY RETURNDATASIZE PUSH1 0x0 REVERT JUMPDEST POP POP POP POP PUSH1 0x40 MLOAD RETURNDATASIZE PUSH1 0x1F NOT PUSH1 0x1F DUP3 ADD AND DUP3 ADD DUP1 PUSH1 0x40 MSTORE POP DUP2 ADD SWAP1 PUSH2 0x17D9 SWAP2 SWAP1 PUSH2 0x5C09 JUMP JUMPDEST PUSH2 0x1421 JUMPI PUSH1 0x40 MLOAD PUSH3 0x461BCD PUSH1 0xE5 SHL DUP2 MSTORE PUSH1 0x20 PUSH1 0x4 DUP3 ADD MSTORE PUSH1 0x2 PUSH1 0x24 DUP3 ADD MSTORE PUSH2 0x3231 PUSH1 0xF0 SHL PUSH1 0x44 DUP3 ADD MSTORE PUSH1 0x64 ADD PUSH2 0x657 JUMP JUMPDEST PUSH2 0x1812 PUSH2 0x45D3 JUMP JUMPDEST PUSH1 0x1 PUSH1 0x1 PUSH1 0xA0 SHL SUB DUP4 AND PUSH2 0x1825 JUMPI PUSH1 0x0 DUP1 REVERT JUMPDEST PUSH2 0x182E DUP4 PUSH2 0x461C JUMP JUMPDEST ISZERO PUSH2 0x185F JUMPI PUSH1 0x40 MLOAD PUSH3 0x461BCD PUSH1 0xE5 SHL DUP2 MSTORE PUSH1 0x20 PUSH1 0x4 DUP3 ADD MSTORE PUSH1 0x1 PUSH1 0x24 DUP3 ADD MSTORE PUSH1 0x31 PUSH1 0xF8 SHL PUSH1 0x44 DUP3 ADD MSTORE PUSH1 0x64 ADD PUSH2 0x657 JUMP JUMPDEST PUSH1 0x40 DUP1 MLOAD PUSH1 0x80 DUP2 ADD DUP3 MSTORE PUSH1 0x1 PUSH1 0x1 PUSH1 0xA0 SHL SUB SWAP5 DUP6 AND DUP1 DUP3 MSTORE PUSH1 0x20 DUP1 DUP4 ADD SWAP6 DUP7 MSTORE PUSH1 0xFF SWAP5 DUP6 AND DUP4 DUP6 ADD SWAP1 DUP2 MSTORE PUSH1 0x1 PUSH1 0x60 DUP6 ADD DUP2 DUP2 MSTORE PUSH1 0x0 SWAP5 DUP6 MSTORE PUSH1 0x5 SWAP1 SWAP4 MSTORE SWAP5 SWAP1 SWAP3 KECCAK256 SWAP3 MLOAD DUP4 SLOAD PUSH1 0x1 PUSH1 0x1 PUSH1 0xA0 SHL SUB NOT AND SWAP8 AND SWAP7 SWAP1 SWAP7 OR DUP3 SSTORE SWAP4 MLOAD SWAP2 DUP2 ADD SWAP2 SWAP1 SWAP2 SSTORE SWAP2 MLOAD PUSH1 0x2 SWAP1 SWAP3 ADD DUP1 SLOAD SWAP4 MLOAD SWAP3 SWAP1 SWAP2 AND PUSH2 0xFFFF NOT SWAP1 SWAP4 AND SWAP3 SWAP1 SWAP3 OR PUSH2 0x100 SWAP2 ISZERO ISZERO SWAP2 SWAP1 SWAP2 MUL OR SWAP1 SSTORE JUMP JUMPDEST PUSH1 0x6 SLOAD PUSH1 0x1 PUSH1 0xD0 SHL SWAP1 DIV PUSH1 0xFF AND PUSH2 0x1902 JUMPI PUSH2 0x1902 PUSH2 0x45D3 JUMP JUMPDEST PUSH1 0x6 SLOAD PUSH1 0x1 PUSH1 0xD8 SHL SWAP1 DIV PUSH1 0xFF AND ISZERO PUSH2 0x194A JUMPI CALLVALUE PUSH1 0x1 SLOAD GT ISZERO PUSH2 0x194A JUMPI PUSH1 0x40 MLOAD PUSH3 0x461BCD PUSH1 0xE5 SHL DUP2 MSTORE PUSH1 0x20 PUSH1 0x4 DUP3 ADD MSTORE PUSH1 0x1 PUSH1 0x24 DUP3 ADD MSTORE PUSH1 0x35 PUSH1 0xF8 SHL PUSH1 0x44 DUP3 ADD MSTORE PUSH1 0x64 ADD PUSH2 0x657 JUMP JUMPDEST PUSH1 0x0 PUSH2 0x1955 TIMESTAMP PUSH2 0x4DAC JUMP JUMPDEST PUSH1 0x6 SLOAD SWAP1 SWAP2 POP PUSH5 0xFFFFFFFFFF PUSH2 0x100 SWAP1 SWAP2 DIV DUP2 AND SWAP1 DUP3 AND LT ISZERO PUSH2 0x199F JUMPI PUSH1 0x40 MLOAD PUSH3 0x461BCD PUSH1 0xE5 SHL DUP2 MSTORE PUSH1 0x20 PUSH1 0x4 DUP3 ADD MSTORE PUSH1 0x2 PUSH1 0x24 DUP3 ADD MSTORE PUSH2 0xC4D PUSH1 0xF2 SHL PUSH1 0x44 DUP3 ADD MSTORE PUSH1 0x64 ADD PUSH2 0x657 JUMP JUMPDEST PUSH1 0x40 DUP1 MLOAD PUSH1 0xC0 DUP2 ADD DUP3 MSTORE PUSH1 0x0 DUP1 DUP3 MSTORE PUSH1 0x20 DUP3 ADD DUP2 SWAP1 MSTORE SWAP2 DUP2 ADD DUP3 SWAP1 MSTORE PUSH1 0x60 DUP2 ADD DUP3 SWAP1 MSTORE PUSH1 0x80 DUP2 ADD DUP3 SWAP1 MSTORE PUSH1 0xA0 DUP2 ADD SWAP2 SWAP1 SWAP2 MSTORE PUSH1 0x1 SWAP1 PUSH1 0x6 SLOAD PUSH5 0xFFFFFFFFFF DUP5 DUP2 AND PUSH2 0x100 SWAP1 SWAP3 DIV AND EQ PUSH2 0x1A1F JUMPI PUSH1 0x6 SLOAD PUSH2 0x1A18 SWAP1 PUSH2 0x1A0C SWAP1 PUSH2 0x100 SWAP1 DIV PUSH5 0xFFFFFFFFFF AND PUSH3 0x15180 PUSH2 0x5C3D JUMP JUMPDEST PUSH5 0xFFFFFFFFFF AND PUSH2 0x4DBB JUMP JUMPDEST SWAP1 POP PUSH2 0x1A2B JUMP JUMPDEST PUSH2 0x1A28 TIMESTAMP PUSH2 0x4DBB JUMP JUMPDEST SWAP1 POP JUMPDEST PUSH1 0x0 DUP1 JUMPDEST PUSH1 0x3 DUP2 GT PUSH2 0x2727 JUMPI PUSH1 0x0 DUP2 PUSH2 0x1A45 JUMPI POP PUSH1 0x20 DUP4 ADD MLOAD JUMPDEST PUSH1 0x1 DUP3 SUB PUSH2 0x1A51 JUMPI POP DUP3 MLOAD JUMPDEST PUSH1 0x2 DUP3 SUB PUSH2 0x1A60 JUMPI POP PUSH1 0x40 DUP4 ADD MLOAD JUMPDEST PUSH1 0x3 DUP3 SUB PUSH2 0x1A6F JUMPI POP PUSH1 0x60 DUP4 ADD MLOAD JUMPDEST PUSH1 0x0 DUP3 DUP2 MSTORE PUSH1 0xA PUSH1 0x20 SWAP1 DUP2 MSTORE PUSH1 0x40 DUP1 DUP4 KECCAK256 PUSH2 0xFFFF DUP6 AND DUP5 MSTORE SWAP1 SWAP2 MSTORE DUP2 KECCAK256 SLOAD SWAP1 JUMPDEST DUP2 DUP2 LT ISZERO PUSH2 0x2711 JUMPI PUSH1 0x0 DUP5 DUP2 MSTORE PUSH1 0xA PUSH1 0x20 SWAP1 DUP2 MSTORE PUSH1 0x40 DUP1 DUP4 KECCAK256 PUSH2 0xFFFF DUP8 AND DUP5 MSTORE SWAP1 SWAP2 MSTORE DUP2 KECCAK256 DUP1 SLOAD SWAP2 SWAP9 POP SWAP1 DUP3 SWAP1 DUP2 LT PUSH2 0x1ACA JUMPI PUSH2 0x1ACA PUSH2 0x5B51 JUMP JUMPDEST SWAP1 PUSH1 0x0 MSTORE PUSH1 0x20 PUSH1 0x0 KECCAK256 SWAP1 PUSH1 0x4 MUL ADD PUSH1 0x3 ADD PUSH1 0x15 SWAP1 SLOAD SWAP1 PUSH2 0x100 EXP SWAP1 DIV PUSH1 0xFF AND PUSH2 0x2709 JUMPI PUSH1 0x40 DUP1 MLOAD PUSH1 0x80 DUP2 ADD DUP3 MSTORE PUSH1 0x0 DUP7 DUP2 MSTORE PUSH1 0xA PUSH1 0x20 SWAP1 DUP2 MSTORE DUP4 DUP3 KECCAK256 PUSH2 0xFFFF DUP9 AND DUP4 MSTORE SWAP1 MSTORE SWAP2 DUP3 KECCAK256 DUP1 SLOAD DUP3 SWAP2 SWAP1 DUP6 SWAP1 DUP2 LT PUSH2 0x1B27 JUMPI PUSH2 0x1B27 PUSH2 0x5B51 JUMP JUMPDEST PUSH1 0x0 SWAP2 DUP3 MSTORE PUSH1 0x20 DUP1 DUP4 KECCAK256 PUSH1 0x4 SWAP1 SWAP3 MUL SWAP1 SWAP2 ADD SLOAD DUP4 MSTORE DUP9 DUP3 MSTORE PUSH1 0xA DUP2 MSTORE PUSH1 0x40 DUP1 DUP4 KECCAK256 PUSH2 0xFFFF DUP11 AND DUP5 MSTORE DUP3 MSTORE SWAP1 SWAP2 KECCAK256 DUP1 SLOAD SWAP3 SWAP1 SWAP2 ADD SWAP2 DUP6 SWAP1 DUP2 LT PUSH2 0x1B6B JUMPI PUSH2 0x1B6B PUSH2 0x5B51 JUMP JUMPDEST PUSH1 0x0 SWAP2 DUP3 MSTORE PUSH1 0x20 DUP1 DUP4 KECCAK256 PUSH1 0x3 PUSH1 0x4 SWAP1 SWAP4 MUL ADD SWAP2 SWAP1 SWAP2 ADD SLOAD PUSH1 0x1 PUSH1 0x1 PUSH1 0xA0 SHL SUB AND DUP4 MSTORE DUP9 DUP3 MSTORE PUSH1 0xA DUP2 MSTORE PUSH1 0x40 DUP1 DUP4 KECCAK256 PUSH2 0xFFFF DUP11 AND DUP5 MSTORE DUP3 MSTORE SWAP1 SWAP2 KECCAK256 DUP1 SLOAD SWAP3 SWAP1 SWAP2 ADD SWAP2 DUP6 SWAP1 DUP2 LT PUSH2 0x1BBC JUMPI PUSH2 0x1BBC PUSH2 0x5B51 JUMP JUMPDEST PUSH1 0x0 SWAP2 DUP3 MSTORE PUSH1 0x20 DUP1 DUP4 KECCAK256 PUSH1 0x2 PUSH1 0x4 SWAP1 SWAP4 MUL ADD SWAP2 SWAP1 SWAP2 ADD SLOAD PUSH1 0x1 PUSH1 0x1 PUSH1 0xA0 SHL SUB AND DUP4 MSTORE DUP9 DUP3 MSTORE PUSH1 0xA DUP2 MSTORE PUSH1 0x40 DUP1 DUP4 KECCAK256 PUSH2 0xFFFF DUP11 AND DUP5 MSTORE DUP3 MSTORE DUP3 KECCAK256 DUP1 SLOAD SWAP4 SWAP1 SWAP2 ADD SWAP3 PUSH1 0x5 SWAP3 SWAP2 SWAP1 DUP8 SWAP1 DUP2 LT PUSH2 0x1C11 JUMPI PUSH2 0x1C11 PUSH2 0x5B51 JUMP JUMPDEST PUSH1 0x0 SWAP2 DUP3 MSTORE PUSH1 0x20 DUP1 DUP4 KECCAK256 PUSH1 0x3 PUSH1 0x4 SWAP1 SWAP4 MUL ADD SWAP2 SWAP1 SWAP2 ADD SLOAD PUSH1 0x1 PUSH1 0x1 PUSH1 0xA0 SHL SUB AND DUP4 MSTORE DUP3 DUP2 ADD SWAP4 SWAP1 SWAP4 MSTORE PUSH1 0x40 SWAP2 DUP3 ADD DUP2 KECCAK256 PUSH1 0x2 ADD SLOAD PUSH1 0xFF AND SWAP1 SWAP4 MSTORE DUP9 DUP4 MSTORE PUSH1 0xA DUP3 MSTORE DUP1 DUP4 KECCAK256 PUSH2 0xFFFF DUP10 AND DUP5 MSTORE SWAP1 SWAP2 MSTORE DUP2 KECCAK256 DUP1 SLOAD SWAP3 SWAP4 POP SWAP1 SWAP2 PUSH2 0x1C99 SWAP2 SWAP1 DUP6 SWAP1 DUP2 LT PUSH2 0x1C7D JUMPI PUSH2 0x1C7D PUSH2 0x5B51 JUMP JUMPDEST SWAP1 PUSH1 0x0 MSTORE PUSH1 0x20 PUSH1 0x0 KECCAK256 SWAP1 PUSH1 0x4 MUL ADD PUSH1 0x1 ADD SLOAD DUP4 PUSH1 0x60 ADD MLOAD PUSH2 0x49AA JUMP JUMPDEST SWAP1 POP PUSH1 0x0 DUP2 PUSH2 0x2710 PUSH1 0x0 SLOAD DUP5 PUSH2 0x1CAF SWAP2 SWAP1 PUSH2 0x5C26 JUMP JUMPDEST PUSH2 0x1CB9 SWAP2 SWAP1 PUSH2 0x5BE2 JUMP JUMPDEST PUSH2 0x1CC3 SWAP2 SWAP1 PUSH2 0x5C5D JUMP JUMPDEST DUP4 MLOAD PUSH1 0x0 SWAP1 DUP2 MSTORE PUSH1 0xB PUSH1 0x20 MSTORE PUSH1 0x40 DUP2 KECCAK256 SLOAD SWAP2 SWAP3 POP SWAP1 DUP2 DUP2 ISZERO PUSH2 0x1CED JUMPI PUSH2 0x1CEA PUSH1 0x1 DUP4 PUSH2 0x5C5D JUMP JUMPDEST SWAP1 POP JUMPDEST PUSH1 0x0 JUMPDEST DUP3 DUP2 LT ISZERO PUSH2 0x2701 JUMPI PUSH1 0x2 SLOAD DUP13 SUB PUSH2 0x1E58 JUMPI PUSH1 0x40 DUP1 MLOAD DUP1 DUP3 ADD SWAP1 SWAP2 MSTORE DUP8 MLOAD DUP1 DUP3 MSTORE PUSH1 0x20 SWAP2 DUP3 ADD DUP4 SWAP1 MSTORE PUSH1 0x3 SSTORE PUSH1 0x4 DUP3 SWAP1 SSTORE PUSH1 0x6 DUP1 SLOAD PUSH1 0xFF NOT AND SWAP1 SSTORE DUP8 ADD MLOAD PUSH1 0x60 DUP9 ADD MLOAD PUSH1 0x1 PUSH1 0x1 PUSH1 0xA0 SHL SUB SWAP1 SWAP2 AND SWAP1 PUSH4 0xA9059CBB SWAP1 CALLER SWAP1 PUSH2 0x1D51 SWAP1 DUP9 SWAP1 PUSH2 0x49AA JUMP JUMPDEST PUSH1 0x40 MLOAD PUSH1 0x1 PUSH1 0x1 PUSH1 0xE0 SHL SUB NOT PUSH1 0xE0 DUP6 SWAP1 SHL AND DUP2 MSTORE PUSH1 0x1 PUSH1 0x1 PUSH1 0xA0 SHL SUB SWAP1 SWAP3 AND PUSH1 0x4 DUP4 ADD MSTORE PUSH1 0x24 DUP3 ADD MSTORE PUSH1 0x44 ADD PUSH1 0x20 PUSH1 0x40 MLOAD DUP1 DUP4 SUB DUP2 PUSH1 0x0 DUP8 GAS CALL ISZERO DUP1 ISZERO PUSH2 0x1D9C JUMPI RETURNDATASIZE PUSH1 0x0 DUP1 RETURNDATACOPY RETURNDATASIZE PUSH1 0x0 REVERT JUMPDEST POP POP POP POP PUSH1 0x40 MLOAD RETURNDATASIZE PUSH1 0x1F NOT PUSH1 0x1F DUP3 ADD AND DUP3 ADD DUP1 PUSH1 0x40 MSTORE POP DUP2 ADD SWAP1 PUSH2 0x1DC0 SWAP2 SWAP1 PUSH2 0x5C09 JUMP JUMPDEST PUSH2 0x1DF1 JUMPI PUSH1 0x40 MLOAD PUSH3 0x461BCD PUSH1 0xE5 SHL DUP2 MSTORE PUSH1 0x20 PUSH1 0x4 DUP3 ADD MSTORE PUSH1 0x2 PUSH1 0x24 DUP3 ADD MSTORE PUSH2 0x1919 PUSH1 0xF1 SHL PUSH1 0x44 DUP3 ADD MSTORE PUSH1 0x64 ADD PUSH2 0x657 JUMP JUMPDEST PUSH1 0x6 SLOAD PUSH1 0x40 DUP1 MLOAD PUSH5 0xFFFFFFFFFF TIMESTAMP DUP2 AND DUP3 MSTORE PUSH2 0x100 SWAP1 SWAP4 DIV SWAP3 SWAP1 SWAP3 AND PUSH1 0x20 DUP4 ADD MSTORE PUSH1 0x0 SWAP1 DUP3 ADD MSTORE CALLER SWAP1 PUSH32 0x90192D7875364A53E351AE63FD2DFEF8DC941735B29FB0C504D06A0E21AE602E SWAP1 PUSH1 0x60 ADD PUSH1 0x40 MLOAD DUP1 SWAP2 SUB SWAP1 LOG2 POP POP POP POP POP POP POP POP POP POP POP POP POP POP POP JUMP JUMPDEST PUSH1 0x3 SLOAD DUP8 MLOAD EQ DUP1 ISZERO PUSH2 0x1E6B JUMPI POP PUSH1 0x4 SLOAD DUP2 EQ JUMPDEST ISZERO PUSH2 0x1E7E JUMPI PUSH1 0x6 DUP1 SLOAD PUSH1 0xFF NOT AND PUSH1 0x1 OR SWAP1 SSTORE JUMPDEST PUSH1 0x3 SLOAD ISZERO DUP1 PUSH2 0x1E94 JUMPI POP PUSH1 0x6 SLOAD PUSH1 0xFF AND ISZERO ISZERO PUSH1 0x1 EQ JUMPDEST ISZERO PUSH2 0x26F9 JUMPI DUP7 MLOAD PUSH1 0x0 SWAP1 DUP2 MSTORE PUSH1 0xB PUSH1 0x20 MSTORE PUSH1 0x40 DUP2 KECCAK256 DUP1 SLOAD DUP4 SWAP1 DUP2 LT PUSH2 0x1EBB JUMPI PUSH2 0x1EBB PUSH2 0x5B51 JUMP JUMPDEST PUSH1 0x0 SWAP2 DUP3 MSTORE PUSH1 0x20 SWAP2 DUP3 SWAP1 KECCAK256 ADD SLOAD SWAP1 DUP10 ADD MLOAD PUSH1 0x40 MLOAD PUSH4 0x6EB1769F PUSH1 0xE1 SHL DUP2 MSTORE PUSH1 0x1 PUSH1 0x1 PUSH1 0xA0 SHL SUB SWAP3 DUP4 AND PUSH1 0x4 DUP3 ADD DUP2 SWAP1 MSTORE ADDRESS PUSH1 0x24 DUP4 ADD MSTORE SWAP4 POP DUP10 SWAP3 SWAP1 SWAP2 AND SWAP1 PUSH4 0xDD62ED3E SWAP1 PUSH1 0x44 ADD PUSH1 0x20 PUSH1 0x40 MLOAD DUP1 DUP4 SUB DUP2 PUSH1 0x0 DUP8 GAS CALL ISZERO DUP1 ISZERO PUSH2 0x1F21 JUMPI RETURNDATASIZE PUSH1 0x0 DUP1 RETURNDATACOPY RETURNDATASIZE PUSH1 0x0 REVERT JUMPDEST POP POP POP POP PUSH1 0x40 MLOAD RETURNDATASIZE PUSH1 0x1F NOT PUSH1 0x1F DUP3 ADD AND DUP3 ADD DUP1 PUSH1 0x40 MSTORE POP DUP2 ADD SWAP1 PUSH2 0x1F45 SWAP2 SWAP1 PUSH2 0x5B9D JUMP JUMPDEST LT ISZERO DUP1 ISZERO PUSH2 0x1FC2 JUMPI POP PUSH1 0x20 DUP9 ADD MLOAD PUSH1 0x40 MLOAD PUSH4 0x70A08231 PUSH1 0xE0 SHL DUP2 MSTORE PUSH1 0x1 PUSH1 0x1 PUSH1 0xA0 SHL SUB DUP4 DUP2 AND PUSH1 0x4 DUP4 ADD MSTORE DUP10 SWAP3 AND SWAP1 PUSH4 0x70A08231 SWAP1 PUSH1 0x24 ADD PUSH1 0x20 PUSH1 0x40 MLOAD DUP1 DUP4 SUB DUP2 PUSH1 0x0 DUP8 GAS CALL ISZERO DUP1 ISZERO PUSH2 0x1F9C JUMPI RETURNDATASIZE PUSH1 0x0 DUP1 RETURNDATACOPY RETURNDATASIZE PUSH1 0x0 REVERT JUMPDEST POP POP POP POP PUSH1 0x40 MLOAD RETURNDATASIZE PUSH1 0x1F NOT PUSH1 0x1F DUP3 ADD AND DUP3 ADD DUP1 PUSH1 0x40 MSTORE POP DUP2 ADD SWAP1 PUSH2 0x1FC0 SWAP2 SWAP1 PUSH2 0x5B9D JUMP JUMPDEST GT JUMPDEST ISZERO PUSH2 0x23F9 JUMPI DUP13 PUSH2 0x1FD1 DUP2 PUSH2 0x5C70 JUMP JUMPDEST DUP10 MLOAD PUSH1 0x0 SWAP1 DUP2 MSTORE PUSH1 0x9 PUSH1 0x20 SWAP1 DUP2 MSTORE PUSH1 0x40 DUP1 DUP4 KECCAK256 PUSH1 0x1 PUSH1 0x1 PUSH1 0xA0 SHL SUB DUP8 AND DUP5 MSTORE SWAP1 SWAP2 MSTORE SWAP1 KECCAK256 SLOAD SWAP1 SWAP15 POP DUP8 LT ISZERO SWAP1 POP PUSH2 0x217A JUMPI PUSH2 0x200C DUP7 DUP7 PUSH2 0x5BF6 JUMP JUMPDEST DUP9 MLOAD PUSH1 0x0 SWAP1 DUP2 MSTORE PUSH1 0x9 PUSH1 0x20 SWAP1 DUP2 MSTORE PUSH1 0x40 DUP1 DUP4 KECCAK256 PUSH1 0x1 PUSH1 0x1 PUSH1 0xA0 SHL SUB DUP7 AND DUP5 MSTORE SWAP1 SWAP2 MSTORE DUP2 KECCAK256 DUP1 SLOAD SWAP3 SWAP8 POP DUP9 SWAP3 SWAP1 SWAP2 SWAP1 PUSH2 0x2045 SWAP1 DUP5 SWAP1 PUSH2 0x5C5D JUMP JUMPDEST SWAP3 POP POP DUP2 SWAP1 SSTORE POP DUP1 PUSH1 0x1 PUSH1 0x1 PUSH1 0xA0 SHL SUB AND DUP9 PUSH1 0x40 ADD MLOAD PUSH1 0x1 PUSH1 0x1 PUSH1 0xA0 SHL SUB AND DUP10 PUSH1 0x0 ADD MLOAD PUSH1 0x0 DUP1 MLOAD PUSH1 0x20 PUSH2 0x5F78 DUP4 CODECOPY DUP2 MLOAD SWAP2 MSTORE TIMESTAMP DUP12 DUP14 PUSH1 0x20 ADD MLOAD PUSH1 0x5 PUSH1 0x40 MLOAD PUSH2 0x2091 SWAP5 SWAP4 SWAP3 SWAP2 SWAP1 PUSH2 0x5B20 JUMP JUMPDEST PUSH1 0x40 MLOAD DUP1 SWAP2 SUB SWAP1 LOG4 DUP1 PUSH1 0x1 PUSH1 0x1 PUSH1 0xA0 SHL SUB AND DUP9 PUSH1 0x40 ADD MLOAD PUSH1 0x1 PUSH1 0x1 PUSH1 0xA0 SHL SUB AND DUP10 PUSH1 0x0 ADD MLOAD PUSH1 0x0 DUP1 MLOAD PUSH1 0x20 PUSH2 0x5F78 DUP4 CODECOPY DUP2 MLOAD SWAP2 MSTORE TIMESTAMP PUSH1 0x0 DUP14 PUSH1 0x20 ADD MLOAD PUSH1 0x2 PUSH1 0x40 MLOAD PUSH2 0x20DF SWAP5 SWAP4 SWAP3 SWAP2 SWAP1 PUSH2 0x5B20 JUMP JUMPDEST PUSH1 0x40 MLOAD DUP1 SWAP2 SUB SWAP1 LOG4 PUSH1 0x20 DUP9 ADD MLOAD PUSH1 0x40 DUP1 DUP11 ADD MLOAD SWAP1 MLOAD PUSH4 0x23B872DD PUSH1 0xE0 SHL DUP2 MSTORE PUSH1 0x1 PUSH1 0x1 PUSH1 0xA0 SHL SUB DUP5 DUP2 AND PUSH1 0x4 DUP4 ADD MSTORE SWAP2 DUP3 AND PUSH1 0x24 DUP3 ADD MSTORE PUSH1 0x44 DUP2 ADD DUP11 SWAP1 MSTORE SWAP2 AND SWAP1 PUSH4 0x23B872DD SWAP1 PUSH1 0x64 ADD PUSH1 0x20 PUSH1 0x40 MLOAD DUP1 DUP4 SUB DUP2 PUSH1 0x0 DUP8 GAS CALL ISZERO DUP1 ISZERO PUSH2 0x2148 JUMPI RETURNDATASIZE PUSH1 0x0 DUP1 RETURNDATACOPY RETURNDATASIZE PUSH1 0x0 REVERT JUMPDEST POP POP POP POP PUSH1 0x40 MLOAD RETURNDATASIZE PUSH1 0x1F NOT PUSH1 0x1F DUP3 ADD AND DUP3 ADD DUP1 PUSH1 0x40 MSTORE POP DUP2 ADD SWAP1 PUSH2 0x216C SWAP2 SWAP1 PUSH2 0x5C09 JUMP JUMPDEST PUSH2 0x2175 JUMPI PUSH1 0x0 DUP1 REVERT JUMPDEST PUSH2 0x2621 JUMP JUMPDEST DUP8 MLOAD PUSH1 0x0 SWAP1 DUP2 MSTORE PUSH1 0x9 PUSH1 0x20 SWAP1 DUP2 MSTORE PUSH1 0x40 DUP1 DUP4 KECCAK256 PUSH1 0x1 PUSH1 0x1 PUSH1 0xA0 SHL SUB DUP6 AND DUP5 MSTORE SWAP1 SWAP2 MSTORE SWAP1 KECCAK256 SLOAD PUSH2 0x21A9 SWAP1 DUP7 PUSH2 0x5BF6 JUMP JUMPDEST DUP9 MLOAD PUSH1 0x0 SWAP1 DUP2 MSTORE PUSH1 0x9 PUSH1 0x20 SWAP1 DUP2 MSTORE PUSH1 0x40 DUP1 DUP4 KECCAK256 PUSH1 0x1 PUSH1 0x1 PUSH1 0xA0 SHL SUB DUP1 DUP8 AND DUP1 DUP7 MSTORE SWAP2 DUP5 MSTORE DUP3 DUP6 KECCAK256 SWAP5 SWAP1 SWAP5 SSTORE DUP2 DUP14 ADD MLOAD DUP14 MLOAD SWAP4 DUP15 ADD MLOAD SWAP3 MLOAD SWAP6 SWAP11 POP SWAP1 SWAP5 SWAP4 AND SWAP3 PUSH1 0x0 DUP1 MLOAD PUSH1 0x20 PUSH2 0x5F78 DUP4 CODECOPY DUP2 MLOAD SWAP2 MSTORE SWAP2 PUSH2 0x2208 SWAP2 TIMESTAMP SWAP2 DUP15 SWAP2 PUSH1 0x8 SWAP1 PUSH2 0x5B20 JUMP JUMPDEST PUSH1 0x40 MLOAD DUP1 SWAP2 SUB SWAP1 LOG4 DUP7 PUSH1 0x1 PUSH1 0x2 DUP15 SWAP1 SUB PUSH2 0x2232 JUMPI PUSH2 0x2227 PUSH1 0x3 DUP4 PUSH2 0x5BE2 JUMP JUMPDEST SWAP2 POP PUSH1 0x2 SWAP1 POP PUSH2 0x224C JUMP JUMPDEST DUP14 PUSH1 0x3 SUB PUSH2 0x224C JUMPI PUSH2 0x2245 PUSH1 0xC DUP4 PUSH2 0x5BE2 JUMP JUMPDEST SWAP2 POP PUSH1 0xB SWAP1 POP JUMPDEST DUP10 MLOAD PUSH1 0x0 SWAP1 DUP2 MSTORE PUSH1 0x9 PUSH1 0x20 SWAP1 DUP2 MSTORE PUSH1 0x40 DUP1 DUP4 KECCAK256 PUSH1 0x1 PUSH1 0x1 PUSH1 0xA0 SHL SUB DUP8 AND DUP5 MSTORE SWAP1 SWAP2 MSTORE DUP2 KECCAK256 DUP1 SLOAD DUP5 SWAP3 SWAP1 PUSH2 0x2280 SWAP1 DUP5 SWAP1 PUSH2 0x5BF6 JUMP JUMPDEST SWAP3 POP POP DUP2 SWAP1 SSTORE POP DUP10 PUSH1 0x20 ADD MLOAD PUSH1 0x1 PUSH1 0x1 PUSH1 0xA0 SHL SUB AND PUSH4 0x23B872DD DUP5 ADDRESS PUSH2 0x22AA DUP7 DUP16 PUSH1 0x60 ADD MLOAD PUSH2 0x49AA JUMP JUMPDEST PUSH1 0x40 MLOAD PUSH1 0x1 PUSH1 0x1 PUSH1 0xE0 SHL SUB NOT PUSH1 0xE0 DUP7 SWAP1 SHL AND DUP2 MSTORE PUSH1 0x1 PUSH1 0x1 PUSH1 0xA0 SHL SUB SWAP4 DUP5 AND PUSH1 0x4 DUP3 ADD MSTORE SWAP3 SWAP1 SWAP2 AND PUSH1 0x24 DUP4 ADD MSTORE PUSH1 0x44 DUP3 ADD MSTORE PUSH1 0x64 ADD PUSH1 0x20 PUSH1 0x40 MLOAD DUP1 DUP4 SUB DUP2 PUSH1 0x0 DUP8 GAS CALL ISZERO DUP1 ISZERO PUSH2 0x22FE JUMPI RETURNDATASIZE PUSH1 0x0 DUP1 RETURNDATACOPY RETURNDATASIZE PUSH1 0x0 REVERT JUMPDEST POP POP POP POP PUSH1 0x40 MLOAD RETURNDATASIZE PUSH1 0x1F NOT PUSH1 0x1F DUP3 ADD AND DUP3 ADD DUP1 PUSH1 0x40 MSTORE POP DUP2 ADD SWAP1 PUSH2 0x2322 SWAP2 SWAP1 PUSH2 0x5C09 JUMP JUMPDEST PUSH2 0x232B JUMPI PUSH1 0x0 DUP1 REVERT JUMPDEST DUP14 PUSH1 0x2 EQ DUP1 PUSH2 0x233A JUMPI POP DUP14 PUSH1 0x3 EQ JUMPDEST ISZERO PUSH2 0x23F2 JUMPI DUP10 PUSH1 0x20 ADD MLOAD PUSH1 0x1 PUSH1 0x1 PUSH1 0xA0 SHL SUB AND PUSH4 0x23B872DD DUP5 DUP13 PUSH1 0x40 ADD MLOAD PUSH2 0x2371 DUP6 DUP8 PUSH2 0x2367 SWAP2 SWAP1 PUSH2 0x5C26 JUMP JUMPDEST DUP16 PUSH1 0x60 ADD MLOAD PUSH2 0x49AA JUMP JUMPDEST PUSH1 0x40 MLOAD PUSH1 0x1 PUSH1 0x1 PUSH1 0xE0 SHL SUB NOT PUSH1 0xE0 DUP7 SWAP1 SHL AND DUP2 MSTORE PUSH1 0x1 PUSH1 0x1 PUSH1 0xA0 SHL SUB SWAP4 DUP5 AND PUSH1 0x4 DUP3 ADD MSTORE SWAP3 SWAP1 SWAP2 AND PUSH1 0x24 DUP4 ADD MSTORE PUSH1 0x44 DUP3 ADD MSTORE PUSH1 0x64 ADD PUSH1 0x20 PUSH1 0x40 MLOAD DUP1 DUP4 SUB DUP2 PUSH1 0x0 DUP8 GAS CALL ISZERO DUP1 ISZERO PUSH2 0x23C5 JUMPI RETURNDATASIZE PUSH1 0x0 DUP1 RETURNDATACOPY RETURNDATASIZE PUSH1 0x0 REVERT JUMPDEST POP POP POP POP PUSH1 0x40 MLOAD RETURNDATASIZE PUSH1 0x1F NOT PUSH1 0x1F DUP3 ADD AND DUP3 ADD DUP1 PUSH1 0x40 MSTORE POP DUP2 ADD SWAP1 PUSH2 0x23E9 SWAP2 SWAP1 PUSH2 0x5C09 JUMP JUMPDEST PUSH2 0x23F2 JUMPI PUSH1 0x0 DUP1 REVERT JUMPDEST POP POP PUSH2 0x2621 JUMP JUMPDEST DUP13 PUSH2 0x2403 DUP2 PUSH2 0x5C70 JUMP JUMPDEST DUP10 MLOAD PUSH1 0x0 SWAP1 DUP2 MSTORE PUSH1 0x9 PUSH1 0x20 SWAP1 DUP2 MSTORE PUSH1 0x40 DUP1 DUP4 KECCAK256 PUSH1 0x1 PUSH1 0x1 PUSH1 0xA0 SHL SUB DUP8 AND DUP5 MSTORE SWAP1 SWAP2 MSTORE SWAP1 KECCAK256 SLOAD SWAP1 SWAP15 POP DUP8 LT ISZERO SWAP1 POP PUSH2 0x2579 JUMPI PUSH2 0x243E DUP7 DUP7 PUSH2 0x5BF6 JUMP JUMPDEST DUP9 MLOAD PUSH1 0x0 SWAP1 DUP2 MSTORE PUSH1 0x9 PUSH1 0x20 SWAP1 DUP2 MSTORE PUSH1 0x40 DUP1 DUP4 KECCAK256 PUSH1 0x1 PUSH1 0x1 PUSH1 0xA0 SHL SUB DUP7 AND DUP5 MSTORE SWAP1 SWAP2 MSTORE DUP2 KECCAK256 SLOAD SWAP2 SWAP7 POP SWAP1 PUSH2 0x2472 SWAP1 DUP9 SWAP1 PUSH2 0x5C5D JUMP JUMPDEST DUP10 MLOAD PUSH1 0x0 SWAP1 DUP2 MSTORE PUSH1 0x9 PUSH1 0x20 SWAP1 DUP2 MSTORE PUSH1 0x40 DUP1 DUP4 KECCAK256 PUSH1 0x1 PUSH1 0x1 PUSH1 0xA0 SHL SUB DUP1 DUP9 AND DUP1 DUP7 MSTORE SWAP2 DUP5 MSTORE DUP3 DUP6 KECCAK256 SWAP5 SWAP1 SWAP5 SSTORE DUP2 DUP15 ADD MLOAD DUP15 MLOAD SWAP4 DUP16 ADD MLOAD SWAP3 MLOAD SWAP6 SWAP7 POP SWAP1 SWAP5 SWAP4 AND SWAP3 PUSH1 0x0 DUP1 MLOAD PUSH1 0x20 PUSH2 0x5F78 DUP4 CODECOPY DUP2 MLOAD SWAP2 MSTORE SWAP2 PUSH2 0x24D1 SWAP2 TIMESTAMP SWAP2 DUP9 SWAP2 PUSH1 0x4 SWAP1 PUSH2 0x5B20 JUMP JUMPDEST PUSH1 0x40 MLOAD DUP1 SWAP2 SUB SWAP1 LOG4 DUP9 PUSH1 0x20 ADD MLOAD PUSH1 0x1 PUSH1 0x1 PUSH1 0xA0 SHL SUB AND PUSH4 0xA9059CBB DUP11 PUSH1 0x40 ADD MLOAD PUSH2 0x24FF DUP5 DUP14 PUSH1 0x60 ADD MLOAD PUSH2 0x49AA JUMP JUMPDEST PUSH1 0x40 MLOAD PUSH1 0x1 PUSH1 0x1 PUSH1 0xE0 SHL SUB NOT PUSH1 0xE0 DUP6 SWAP1 SHL AND DUP2 MSTORE PUSH1 0x1 PUSH1 0x1 PUSH1 0xA0 SHL SUB SWAP1 SWAP3 AND PUSH1 0x4 DUP4 ADD MSTORE PUSH1 0x24 DUP3 ADD MSTORE PUSH1 0x44 ADD PUSH1 0x20 PUSH1 0x40 MLOAD DUP1 DUP4 SUB DUP2 PUSH1 0x0 DUP8 GAS CALL ISZERO DUP1 ISZERO PUSH2 0x254A JUMPI RETURNDATASIZE PUSH1 0x0 DUP1 RETURNDATACOPY RETURNDATASIZE PUSH1 0x0 REVERT JUMPDEST POP POP POP POP PUSH1 0x40 MLOAD RETURNDATASIZE PUSH1 0x1F NOT PUSH1 0x1F DUP3 ADD AND DUP3 ADD DUP1 PUSH1 0x40 MSTORE POP DUP2 ADD SWAP1 PUSH2 0x256E SWAP2 SWAP1 PUSH2 0x5C09 JUMP JUMPDEST PUSH2 0x2577 JUMPI PUSH1 0x0 DUP1 REVERT JUMPDEST POP JUMPDEST DUP8 MLOAD PUSH2 0x2585 SWAP1 DUP3 PUSH2 0x4C66 JUMP JUMPDEST DUP1 PUSH1 0x1 PUSH1 0x1 PUSH1 0xA0 SHL SUB AND DUP9 PUSH1 0x40 ADD MLOAD PUSH1 0x1 PUSH1 0x1 PUSH1 0xA0 SHL SUB AND DUP10 PUSH1 0x0 ADD MLOAD PUSH1 0x0 DUP1 MLOAD PUSH1 0x20 PUSH2 0x5F78 DUP4 CODECOPY DUP2 MLOAD SWAP2 MSTORE TIMESTAMP DUP12 DUP14 PUSH1 0x20 ADD MLOAD PUSH1 0x7 PUSH1 0x40 MLOAD PUSH2 0x25CA SWAP5 SWAP4 SWAP3 SWAP2 SWAP1 PUSH2 0x5B20 JUMP JUMPDEST PUSH1 0x40 MLOAD DUP1 SWAP2 SUB SWAP1 LOG4 DUP1 PUSH1 0x1 PUSH1 0x1 PUSH1 0xA0 SHL SUB AND DUP9 PUSH1 0x40 ADD MLOAD PUSH1 0x1 PUSH1 0x1 PUSH1 0xA0 SHL SUB AND DUP10 PUSH1 0x0 ADD MLOAD PUSH1 0x0 DUP1 MLOAD PUSH1 0x20 PUSH2 0x5F78 DUP4 CODECOPY DUP2 MLOAD SWAP2 MSTORE TIMESTAMP PUSH1 0x0 DUP14 PUSH1 0x20 ADD MLOAD PUSH1 0x3 PUSH1 0x40 MLOAD PUSH2 0x2618 SWAP5 SWAP4 SWAP3 SWAP2 SWAP1 PUSH2 0x5B20 JUMP JUMPDEST PUSH1 0x40 MLOAD DUP1 SWAP2 SUB SWAP1 LOG4 JUMPDEST DUP3 DUP3 EQ DUP1 ISZERO PUSH2 0x2630 JUMPI POP PUSH1 0x0 DUP5 GT JUMPDEST ISZERO PUSH2 0x26F7 JUMPI DUP8 PUSH1 0x20 ADD MLOAD PUSH1 0x1 PUSH1 0x1 PUSH1 0xA0 SHL SUB AND PUSH4 0xA9059CBB CALLER PUSH2 0x2657 DUP9 DUP13 PUSH1 0x60 ADD MLOAD PUSH2 0x49AA JUMP JUMPDEST PUSH1 0x40 MLOAD PUSH1 0x1 PUSH1 0x1 PUSH1 0xE0 SHL SUB NOT PUSH1 0xE0 DUP6 SWAP1 SHL AND DUP2 MSTORE PUSH1 0x1 PUSH1 0x1 PUSH1 0xA0 SHL SUB SWAP1 SWAP3 AND PUSH1 0x4 DUP4 ADD MSTORE PUSH1 0x24 DUP3 ADD MSTORE PUSH1 0x44 ADD PUSH1 0x20 PUSH1 0x40 MLOAD DUP1 DUP4 SUB DUP2 PUSH1 0x0 DUP8 GAS CALL ISZERO DUP1 ISZERO PUSH2 0x26A2 JUMPI RETURNDATASIZE PUSH1 0x0 DUP1 RETURNDATACOPY RETURNDATASIZE PUSH1 0x0 REVERT JUMPDEST POP POP POP POP PUSH1 0x40 MLOAD RETURNDATASIZE PUSH1 0x1F NOT PUSH1 0x1F DUP3 ADD AND DUP3 ADD DUP1 PUSH1 0x40 MSTORE POP DUP2 ADD SWAP1 PUSH2 0x26C6 SWAP2 SWAP1 PUSH2 0x5C09 JUMP JUMPDEST PUSH2 0x26F7 JUMPI PUSH1 0x40 MLOAD PUSH3 0x461BCD PUSH1 0xE5 SHL DUP2 MSTORE PUSH1 0x20 PUSH1 0x4 DUP3 ADD MSTORE PUSH1 0x2 PUSH1 0x24 DUP3 ADD MSTORE PUSH2 0x1919 PUSH1 0xF1 SHL PUSH1 0x44 DUP3 ADD MSTORE PUSH1 0x64 ADD PUSH2 0x657 JUMP JUMPDEST POP JUMPDEST PUSH1 0x1 ADD PUSH2 0x1CF0 JUMP JUMPDEST POP POP POP POP POP POP POP JUMPDEST PUSH1 0x1 ADD PUSH2 0x1A8F JUMP JUMPDEST POP POP POP DUP1 DUP1 PUSH2 0x271F SWAP1 PUSH2 0x5C70 JUMP JUMPDEST SWAP2 POP POP PUSH2 0x1A2F JUMP JUMPDEST POP PUSH1 0x0 PUSH1 0x3 DUP2 SWAP1 SSTORE PUSH1 0x4 SSTORE PUSH1 0x6 DUP1 SLOAD PUSH1 0xFF NOT AND SWAP1 DUP2 SWAP1 SSTORE PUSH1 0x40 DUP1 MLOAD PUSH5 0xFFFFFFFFFF TIMESTAMP DUP2 AND DUP3 MSTORE PUSH2 0x100 SWAP1 SWAP4 DIV SWAP1 SWAP3 AND PUSH1 0x20 DUP4 ADD MSTORE PUSH1 0x1 SWAP1 DUP3 ADD MSTORE CALLER SWAP1 PUSH32 0x90192D7875364A53E351AE63FD2DFEF8DC941735B29FB0C504D06A0E21AE602E SWAP1 PUSH1 0x60 ADD PUSH1 0x40 MLOAD DUP1 SWAP2 SUB SWAP1 LOG2 PUSH1 0x1 PUSH1 0x6 PUSH1 0x1 DUP3 DUP3 DUP3 SWAP1 SLOAD SWAP1 PUSH2 0x100 EXP SWAP1 DIV PUSH5 0xFFFFFFFFFF AND PUSH2 0x27B3 SWAP2 SWAP1 PUSH2 0x5C89 JUMP JUMPDEST SWAP3 POP PUSH2 0x100 EXP DUP2 SLOAD DUP2 PUSH5 0xFFFFFFFFFF MUL NOT AND SWAP1 DUP4 PUSH5 0xFFFFFFFFFF AND MUL OR SWAP1 SSTORE POP DUP3 ISZERO PUSH2 0x1421 JUMPI PUSH2 0x1421 PUSH2 0x18E9 JUMP JUMPDEST PUSH1 0x0 DUP2 DUP2 MSTORE PUSH1 0xB PUSH1 0x20 MSTORE PUSH1 0x40 DUP2 KECCAK256 SLOAD PUSH1 0x60 SWAP2 SWAP1 PUSH8 0xFFFFFFFFFFFFFFFF DUP2 GT ISZERO PUSH2 0x280C JUMPI PUSH2 0x280C PUSH2 0x5431 JUMP JUMPDEST PUSH1 0x40 MLOAD SWAP1 DUP1 DUP3 MSTORE DUP1 PUSH1 0x20 MUL PUSH1 0x20 ADD DUP3 ADD PUSH1 0x40 MSTORE DUP1 ISZERO PUSH2 0x2835 JUMPI DUP2 PUSH1 0x20 ADD PUSH1 0x20 DUP3 MUL DUP1 CALLDATASIZE DUP4 CALLDATACOPY ADD SWAP1 POP JUMPDEST POP PUSH1 0x0 DUP5 DUP2 MSTORE PUSH1 0xB PUSH1 0x20 SWAP1 DUP2 MSTORE PUSH1 0x40 SWAP2 DUP3 SWAP1 KECCAK256 DUP1 SLOAD DUP4 MLOAD DUP2 DUP5 MUL DUP2 ADD DUP5 ADD SWAP1 SWAP5 MSTORE DUP1 DUP5 MSTORE SWAP4 SWAP5 POP SWAP2 SWAP3 SWAP1 DUP4 ADD DUP3 DUP3 DUP1 ISZERO PUSH2 0x2898 JUMPI PUSH1 0x20 MUL DUP3 ADD SWAP2 SWAP1 PUSH1 0x0 MSTORE PUSH1 0x20 PUSH1 0x0 KECCAK256 SWAP1 JUMPDEST DUP2 SLOAD PUSH1 0x1 PUSH1 0x1 PUSH1 0xA0 SHL SUB AND DUP2 MSTORE PUSH1 0x1 SWAP1 SWAP2 ADD SWAP1 PUSH1 0x20 ADD DUP1 DUP4 GT PUSH2 0x287A JUMPI JUMPDEST POP POP POP PUSH1 0x0 DUP7 DUP2 MSTORE PUSH1 0xB PUSH1 0x20 MSTORE PUSH1 0x40 DUP2 KECCAK256 SLOAD SWAP4 SWAP5 POP SWAP3 SWAP2 POP POP PUSH8 0xFFFFFFFFFFFFFFFF DUP2 GT ISZERO PUSH2 0x28C9 JUMPI PUSH2 0x28C9 PUSH2 0x5431 JUMP JUMPDEST PUSH1 0x40 MLOAD SWAP1 DUP1 DUP3 MSTORE DUP1 PUSH1 0x20 MUL PUSH1 0x20 ADD DUP3 ADD PUSH1 0x40 MSTORE DUP1 ISZERO PUSH2 0x290E JUMPI DUP2 PUSH1 0x20 ADD JUMPDEST PUSH1 0x40 DUP1 MLOAD DUP1 DUP3 ADD SWAP1 SWAP2 MSTORE PUSH1 0x0 DUP1 DUP3 MSTORE PUSH1 0x20 DUP3 ADD MSTORE DUP2 MSTORE PUSH1 0x20 ADD SWAP1 PUSH1 0x1 SWAP1 SUB SWAP1 DUP2 PUSH2 0x28E7 JUMPI SWAP1 POP JUMPDEST POP SWAP1 POP PUSH1 0x0 JUMPDEST DUP3 MLOAD DUP2 LT ISZERO PUSH2 0x29CF JUMPI PUSH1 0x0 DUP6 DUP2 MSTORE PUSH1 0x9 PUSH1 0x20 MSTORE PUSH1 0x40 DUP2 KECCAK256 DUP5 MLOAD DUP3 SWAP1 DUP7 SWAP1 DUP6 SWAP1 DUP2 LT PUSH2 0x2941 JUMPI PUSH2 0x2941 PUSH2 0x5B51 JUMP JUMPDEST PUSH1 0x20 MUL PUSH1 0x20 ADD ADD MLOAD PUSH1 0x1 PUSH1 0x1 PUSH1 0xA0 SHL SUB AND PUSH1 0x1 PUSH1 0x1 PUSH1 0xA0 SHL SUB AND DUP2 MSTORE PUSH1 0x20 ADD SWAP1 DUP2 MSTORE PUSH1 0x20 ADD PUSH1 0x0 KECCAK256 SLOAD SWAP1 POP PUSH1 0x0 PUSH1 0x40 MLOAD DUP1 PUSH1 0x40 ADD PUSH1 0x40 MSTORE DUP1 DUP7 DUP6 DUP2 MLOAD DUP2 LT PUSH2 0x298B JUMPI PUSH2 0x298B PUSH2 0x5B51 JUMP JUMPDEST PUSH1 0x20 MUL PUSH1 0x20 ADD ADD MLOAD PUSH1 0x1 PUSH1 0x1 PUSH1 0xA0 SHL SUB AND DUP2 MSTORE PUSH1 0x20 ADD DUP4 DUP2 MSTORE POP SWAP1 POP DUP1 DUP5 DUP5 DUP2 MLOAD DUP2 LT PUSH2 0x29BA JUMPI PUSH2 0x29BA PUSH2 0x5B51 JUMP JUMPDEST PUSH1 0x20 SWAP1 DUP2 MUL SWAP2 SWAP1 SWAP2 ADD ADD MSTORE POP POP PUSH1 0x1 ADD PUSH2 0x2914 JUMP JUMPDEST POP SWAP4 SWAP3 POP POP POP JUMP JUMPDEST PUSH1 0x60 DUP1 DUP4 ISZERO PUSH2 0x2AD7 JUMPI PUSH1 0x1 PUSH1 0x1 PUSH1 0xA0 SHL SUB DUP4 AND PUSH1 0x0 SWAP1 DUP2 MSTORE PUSH1 0x7 PUSH1 0x20 SWAP1 DUP2 MSTORE PUSH1 0x40 DUP1 DUP4 KECCAK256 PUSH1 0x1 ADD DUP1 SLOAD DUP3 MLOAD DUP2 DUP6 MUL DUP2 ADD DUP6 ADD SWAP1 SWAP4 MSTORE DUP1 DUP4 MSTORE SWAP2 SWAP4 SWAP1 SWAP3 DUP5 ADD JUMPDEST DUP3 DUP3 LT ISZERO PUSH2 0x2ACC JUMPI PUSH1 0x0 DUP5 DUP2 MSTORE PUSH1 0x20 SWAP1 DUP2 SWAP1 KECCAK256 PUSH1 0x40 DUP1 MLOAD PUSH1 0x80 DUP2 ADD DUP3 MSTORE PUSH1 0x2 DUP7 MUL SWAP1 SWAP3 ADD DUP1 SLOAD DUP4 MSTORE PUSH1 0x1 DUP2 ADD SLOAD PUSH2 0xFFFF DUP2 AND SWAP5 DUP5 ADD SWAP5 SWAP1 SWAP5 MSTORE SWAP2 SWAP3 SWAP1 DUP4 ADD SWAP1 PUSH3 0x10000 SWAP1 DIV PUSH1 0xFF AND PUSH1 0x3 DUP2 GT ISZERO PUSH2 0x2A6F JUMPI PUSH2 0x2A6F PUSH2 0x5360 JUMP JUMPDEST PUSH1 0x3 DUP2 GT ISZERO PUSH2 0x2A80 JUMPI PUSH2 0x2A80 PUSH2 0x5360 JUMP JUMPDEST DUP2 MSTORE PUSH1 0x20 ADD PUSH1 0x1 DUP3 ADD PUSH1 0x3 SWAP1 SLOAD SWAP1 PUSH2 0x100 EXP SWAP1 DIV PUSH1 0xFF AND PUSH1 0x2 DUP2 GT ISZERO PUSH2 0x2AA8 JUMPI PUSH2 0x2AA8 PUSH2 0x5360 JUMP JUMPDEST PUSH1 0x2 DUP2 GT ISZERO PUSH2 0x2AB9 JUMPI PUSH2 0x2AB9 PUSH2 0x5360 JUMP JUMPDEST DUP2 MSTORE POP POP DUP2 MSTORE PUSH1 0x20 ADD SWAP1 PUSH1 0x1 ADD SWAP1 PUSH2 0x2A16 JUMP JUMPDEST POP POP POP POP SWAP1 POP PUSH2 0x2BCA JUMP JUMPDEST PUSH1 0x1 PUSH1 0x1 PUSH1 0xA0 SHL SUB DUP4 AND PUSH1 0x0 SWAP1 DUP2 MSTORE PUSH1 0x7 PUSH1 0x20 SWAP1 DUP2 MSTORE PUSH1 0x40 DUP1 DUP4 KECCAK256 PUSH1 0x2 ADD DUP1 SLOAD DUP3 MLOAD DUP2 DUP6 MUL DUP2 ADD DUP6 ADD SWAP1 SWAP4 MSTORE DUP1 DUP4 MSTORE SWAP2 SWAP4 SWAP1 SWAP3 DUP5 ADD JUMPDEST DUP3 DUP3 LT ISZERO PUSH2 0x2BC3 JUMPI PUSH1 0x0 DUP5 DUP2 MSTORE PUSH1 0x20 SWAP1 DUP2 SWAP1 KECCAK256 PUSH1 0x40 DUP1 MLOAD PUSH1 0x80 DUP2 ADD DUP3 MSTORE PUSH1 0x2 DUP7 MUL SWAP1 SWAP3 ADD DUP1 SLOAD DUP4 MSTORE PUSH1 0x1 DUP2 ADD SLOAD PUSH2 0xFFFF DUP2 AND SWAP5 DUP5 ADD SWAP5 SWAP1 SWAP5 MSTORE SWAP2 SWAP3 SWAP1 DUP4 ADD SWAP1 PUSH3 0x10000 SWAP1 DIV PUSH1 0xFF AND PUSH1 0x3 DUP2 GT ISZERO PUSH2 0x2B66 JUMPI PUSH2 0x2B66 PUSH2 0x5360 JUMP JUMPDEST PUSH1 0x3 DUP2 GT ISZERO PUSH2 0x2B77 JUMPI PUSH2 0x2B77 PUSH2 0x5360 JUMP JUMPDEST DUP2 MSTORE PUSH1 0x20 ADD PUSH1 0x1 DUP3 ADD PUSH1 0x3 SWAP1 SLOAD SWAP1 PUSH2 0x100 EXP SWAP1 DIV PUSH1 0xFF AND PUSH1 0x2 DUP2 GT ISZERO PUSH2 0x2B9F JUMPI PUSH2 0x2B9F PUSH2 0x5360 JUMP JUMPDEST PUSH1 0x2 DUP2 GT ISZERO PUSH2 0x2BB0 JUMPI PUSH2 0x2BB0 PUSH2 0x5360 JUMP JUMPDEST DUP2 MSTORE POP POP DUP2 MSTORE PUSH1 0x20 ADD SWAP1 PUSH1 0x1 ADD SWAP1 PUSH2 0x2B0D JUMP JUMPDEST POP POP POP POP SWAP1 POP JUMPDEST PUSH1 0x0 DUP2 MLOAD PUSH8 0xFFFFFFFFFFFFFFFF DUP2 GT ISZERO PUSH2 0x2BE6 JUMPI PUSH2 0x2BE6 PUSH2 0x5431 JUMP JUMPDEST PUSH1 0x40 MLOAD SWAP1 DUP1 DUP3 MSTORE DUP1 PUSH1 0x20 MUL PUSH1 0x20 ADD DUP3 ADD PUSH1 0x40 MSTORE DUP1 ISZERO PUSH2 0x2C6C JUMPI DUP2 PUSH1 0x20 ADD JUMPDEST PUSH1 0x40 DUP1 MLOAD PUSH2 0x160 DUP2 ADD DUP3 MSTORE PUSH1 0x0 PUSH1 0x60 DUP3 ADD DUP2 DUP2 MSTORE PUSH1 0x80 DUP4 ADD DUP3 SWAP1 MSTORE PUSH1 0xA0 DUP4 ADD DUP3 SWAP1 MSTORE PUSH1 0xC0 DUP4 ADD DUP3 SWAP1 MSTORE PUSH1 0xE0 DUP4 ADD DUP3 SWAP1 MSTORE PUSH2 0x100 DUP4 ADD DUP3 SWAP1 MSTORE PUSH2 0x120 DUP4 ADD DUP3 SWAP1 MSTORE PUSH2 0x140 DUP4 ADD DUP3 SWAP1 MSTORE DUP3 MSTORE PUSH1 0x20 DUP1 DUP4 ADD DUP3 SWAP1 MSTORE SWAP3 DUP3 ADD MSTORE DUP3 MSTORE PUSH1 0x0 NOT SWAP1 SWAP3 ADD SWAP2 ADD DUP2 PUSH2 0x2C04 JUMPI SWAP1 POP JUMPDEST POP SWAP1 POP PUSH1 0x0 JUMPDEST DUP3 MLOAD DUP2 LT ISZERO PUSH2 0x2DC3 JUMPI PUSH2 0x2CDD DUP4 DUP3 DUP2 MLOAD DUP2 LT PUSH2 0x2C90 JUMPI PUSH2 0x2C90 PUSH2 0x5B51 JUMP JUMPDEST PUSH1 0x20 MUL PUSH1 0x20 ADD ADD MLOAD PUSH1 0x0 ADD MLOAD DUP5 DUP4 DUP2 MLOAD DUP2 LT PUSH2 0x2CAE JUMPI PUSH2 0x2CAE PUSH2 0x5B51 JUMP JUMPDEST PUSH1 0x20 MUL PUSH1 0x20 ADD ADD MLOAD PUSH1 0x40 ADD MLOAD DUP6 DUP5 DUP2 MLOAD DUP2 LT PUSH2 0x2CCC JUMPI PUSH2 0x2CCC PUSH2 0x5B51 JUMP JUMPDEST PUSH1 0x20 MUL PUSH1 0x20 ADD ADD MLOAD PUSH1 0x20 ADD MLOAD PUSH2 0xB7E JUMP JUMPDEST DUP3 DUP3 DUP2 MLOAD DUP2 LT PUSH2 0x2CEF JUMPI PUSH2 0x2CEF PUSH2 0x5B51 JUMP JUMPDEST PUSH1 0x20 MUL PUSH1 0x20 ADD ADD MLOAD PUSH1 0x0 ADD DUP2 SWAP1 MSTORE POP DUP3 DUP2 DUP2 MLOAD DUP2 LT PUSH2 0x2D10 JUMPI PUSH2 0x2D10 PUSH2 0x5B51 JUMP JUMPDEST PUSH1 0x20 MUL PUSH1 0x20 ADD ADD MLOAD PUSH1 0x60 ADD MLOAD DUP3 DUP3 DUP2 MLOAD DUP2 LT PUSH2 0x2D2E JUMPI PUSH2 0x2D2E PUSH2 0x5B51 JUMP JUMPDEST PUSH1 0x20 MUL PUSH1 0x20 ADD ADD MLOAD PUSH1 0x20 ADD SWAP1 PUSH1 0x2 DUP2 GT ISZERO PUSH2 0x2D4B JUMPI PUSH2 0x2D4B PUSH2 0x5360 JUMP JUMPDEST SWAP1 DUP2 PUSH1 0x2 DUP2 GT ISZERO PUSH2 0x2D5E JUMPI PUSH2 0x2D5E PUSH2 0x5360 JUMP JUMPDEST DUP2 MSTORE POP POP PUSH1 0xB PUSH1 0x0 DUP4 DUP4 DUP2 MLOAD DUP2 LT PUSH2 0x2D78 JUMPI PUSH2 0x2D78 PUSH2 0x5B51 JUMP JUMPDEST PUSH1 0x20 MUL PUSH1 0x20 ADD ADD MLOAD PUSH1 0x0 ADD MLOAD PUSH1 0x0 ADD MLOAD DUP2 MSTORE PUSH1 0x20 ADD SWAP1 DUP2 MSTORE PUSH1 0x20 ADD PUSH1 0x0 KECCAK256 DUP1 SLOAD SWAP1 POP DUP3 DUP3 DUP2 MLOAD DUP2 LT PUSH2 0x2DAC JUMPI PUSH2 0x2DAC PUSH2 0x5B51 JUMP JUMPDEST PUSH1 0x20 SWAP1 DUP2 MUL SWAP2 SWAP1 SWAP2 ADD ADD MLOAD PUSH1 0x40 ADD MSTORE PUSH1 0x1 ADD PUSH2 0x2C72 JUMP JUMPDEST POP SWAP2 POP POP JUMPDEST SWAP3 SWAP2 POP POP JUMP JUMPDEST PUSH2 0x2DD6 PUSH2 0x4653 JUMP JUMPDEST PUSH2 0x2DEC DUP2 CALLDATALOAD PUSH2 0xD74 PUSH2 0x100 DUP5 ADD PUSH1 0xE0 DUP6 ADD PUSH2 0x5B67 JUMP JUMPDEST PUSH2 0x2E1C JUMPI PUSH1 0x40 MLOAD PUSH3 0x461BCD PUSH1 0xE5 SHL DUP2 MSTORE PUSH1 0x20 PUSH1 0x4 DUP3 ADD MSTORE PUSH1 0x1 PUSH1 0x24 DUP3 ADD MSTORE PUSH1 0x37 PUSH1 0xF8 SHL PUSH1 0x44 DUP3 ADD MSTORE PUSH1 0x64 ADD PUSH2 0x657 JUMP JUMPDEST PUSH2 0x2E2C PUSH1 0x60 DUP3 ADD PUSH1 0x40 DUP4 ADD PUSH2 0x5233 JUMP JUMPDEST PUSH1 0x1 PUSH1 0x1 PUSH1 0xA0 SHL SUB AND CALLER PUSH1 0x1 PUSH1 0x1 PUSH1 0xA0 SHL SUB AND EQ PUSH2 0x2E71 JUMPI PUSH1 0x40 MLOAD PUSH3 0x461BCD PUSH1 0xE5 SHL DUP2 MSTORE PUSH1 0x20 PUSH1 0x4 DUP3 ADD MSTORE PUSH1 0x2 PUSH1 0x24 DUP3 ADD MSTORE PUSH2 0x3233 PUSH1 0xF0 SHL PUSH1 0x44 DUP3 ADD MSTORE PUSH1 0x64 ADD PUSH2 0x657 JUMP JUMPDEST CALLER PUSH1 0x0 SWAP1 DUP2 MSTORE PUSH1 0x7 PUSH1 0x20 SWAP1 DUP2 MSTORE PUSH1 0x40 DUP1 DUP4 KECCAK256 PUSH1 0x2 ADD DUP1 SLOAD DUP3 MLOAD DUP2 DUP6 MUL DUP2 ADD DUP6 ADD SWAP1 SWAP4 MSTORE DUP1 DUP4 MSTORE SWAP2 SWAP3 SWAP1 SWAP2 SWAP1 DUP5 SWAP1 DUP5 ADD JUMPDEST DUP3 DUP3 LT ISZERO PUSH2 0x2F57 JUMPI PUSH1 0x0 DUP5 DUP2 MSTORE PUSH1 0x20 SWAP1 DUP2 SWAP1 KECCAK256 PUSH1 0x40 DUP1 MLOAD PUSH1 0x80 DUP2 ADD DUP3 MSTORE PUSH1 0x2 DUP7 MUL SWAP1 SWAP3 ADD DUP1 SLOAD DUP4 MSTORE PUSH1 0x1 DUP2 ADD SLOAD PUSH2 0xFFFF DUP2 AND SWAP5 DUP5 ADD SWAP5 SWAP1 SWAP5 MSTORE SWAP2 SWAP3 SWAP1 DUP4 ADD SWAP1 PUSH3 0x10000 SWAP1 DIV PUSH1 0xFF AND PUSH1 0x3 DUP2 GT ISZERO PUSH2 0x2EFA JUMPI PUSH2 0x2EFA PUSH2 0x5360 JUMP JUMPDEST PUSH1 0x3 DUP2 GT ISZERO PUSH2 0x2F0B JUMPI PUSH2 0x2F0B PUSH2 0x5360 JUMP JUMPDEST DUP2 MSTORE PUSH1 0x20 ADD PUSH1 0x1 DUP3 ADD PUSH1 0x3 SWAP1 SLOAD SWAP1 PUSH2 0x100 EXP SWAP1 DIV PUSH1 0xFF AND PUSH1 0x2 DUP2 GT ISZERO PUSH2 0x2F33 JUMPI PUSH2 0x2F33 PUSH2 0x5360 JUMP JUMPDEST PUSH1 0x2 DUP2 GT ISZERO PUSH2 0x2F44 JUMPI PUSH2 0x2F44 PUSH2 0x5360 JUMP JUMPDEST DUP2 MSTORE POP POP DUP2 MSTORE PUSH1 0x20 ADD SWAP1 PUSH1 0x1 ADD SWAP1 PUSH2 0x2EA1 JUMP JUMPDEST POP POP CALLER PUSH1 0x0 SWAP1 DUP2 MSTORE PUSH1 0x7 PUSH1 0x20 MSTORE PUSH1 0x40 DUP2 KECCAK256 PUSH1 0x2 ADD SLOAD SWAP4 SWAP5 POP SWAP2 POP POP JUMPDEST DUP2 DUP2 LT ISZERO PUSH2 0x300B JUMPI DUP4 PUSH1 0x0 ADD CALLDATALOAD DUP4 DUP3 DUP2 MLOAD DUP2 LT PUSH2 0x2F92 JUMPI PUSH2 0x2F92 PUSH2 0x5B51 JUMP JUMPDEST PUSH1 0x20 MUL PUSH1 0x20 ADD ADD MLOAD PUSH1 0x0 ADD MLOAD SUB PUSH2 0x3003 JUMPI CALLER PUSH1 0x0 SWAP1 DUP2 MSTORE PUSH1 0x7 PUSH1 0x20 MSTORE PUSH1 0x40 SWAP1 KECCAK256 PUSH1 0x2 ADD DUP1 SLOAD PUSH1 0x1 SWAP2 SWAP1 DUP4 SWAP1 DUP2 LT PUSH2 0x2FCB JUMPI PUSH2 0x2FCB PUSH2 0x5B51 JUMP JUMPDEST SWAP1 PUSH1 0x0 MSTORE PUSH1 0x20 PUSH1 0x0 KECCAK256 SWAP1 PUSH1 0x2 MUL ADD PUSH1 0x1 ADD PUSH1 0x3 PUSH2 0x100 EXP DUP2 SLOAD DUP2 PUSH1 0xFF MUL NOT AND SWAP1 DUP4 PUSH1 0x2 DUP2 GT ISZERO PUSH2 0x2FFD JUMPI PUSH2 0x2FFD PUSH2 0x5360 JUMP JUMPDEST MUL OR SWAP1 SSTORE POP JUMPDEST PUSH1 0x1 ADD PUSH2 0x2F73 JUMP JUMPDEST POP DUP3 CALLDATALOAD PUSH1 0x0 SWAP1 DUP2 MSTORE PUSH1 0xB PUSH1 0x20 SWAP1 DUP2 MSTORE PUSH1 0x40 DUP1 DUP4 KECCAK256 DUP1 SLOAD DUP3 MLOAD DUP2 DUP6 MUL DUP2 ADD DUP6 ADD SWAP1 SWAP4 MSTORE DUP1 DUP4 MSTORE SWAP2 SWAP3 SWAP1 SWAP2 SWAP1 DUP4 ADD DUP3 DUP3 DUP1 ISZERO PUSH2 0x306E JUMPI PUSH1 0x20 MUL DUP3 ADD SWAP2 SWAP1 PUSH1 0x0 MSTORE PUSH1 0x20 PUSH1 0x0 KECCAK256 SWAP1 JUMPDEST DUP2 SLOAD PUSH1 0x1 PUSH1 0x1 PUSH1 0xA0 SHL SUB AND DUP2 MSTORE PUSH1 0x1 SWAP1 SWAP2 ADD SWAP1 PUSH1 0x20 ADD DUP1 DUP4 GT PUSH2 0x3050 JUMPI JUMPDEST POP POP POP POP POP SWAP1 POP PUSH1 0x0 JUMPDEST DUP2 MLOAD DUP2 LT ISZERO PUSH2 0x35AE JUMPI DUP5 CALLDATALOAD PUSH1 0x0 SWAP1 DUP2 MSTORE PUSH1 0x9 PUSH1 0x20 MSTORE PUSH1 0x40 DUP2 KECCAK256 DUP4 MLOAD DUP3 SWAP1 DUP6 SWAP1 DUP6 SWAP1 DUP2 LT PUSH2 0x30A7 JUMPI PUSH2 0x30A7 PUSH2 0x5B51 JUMP JUMPDEST PUSH1 0x20 MUL PUSH1 0x20 ADD ADD MLOAD PUSH1 0x1 PUSH1 0x1 PUSH1 0xA0 SHL SUB AND PUSH1 0x1 PUSH1 0x1 PUSH1 0xA0 SHL SUB AND DUP2 MSTORE PUSH1 0x20 ADD SWAP1 DUP2 MSTORE PUSH1 0x20 ADD PUSH1 0x0 KECCAK256 SLOAD SWAP1 POP DUP3 DUP3 DUP2 MLOAD DUP2 LT PUSH2 0x30E4 JUMPI PUSH2 0x30E4 PUSH2 0x5B51 JUMP JUMPDEST PUSH1 0x20 MUL PUSH1 0x20 ADD ADD MLOAD PUSH1 0x1 PUSH1 0x1 PUSH1 0xA0 SHL SUB AND DUP7 PUSH1 0x40 ADD PUSH1 0x20 DUP2 ADD SWAP1 PUSH2 0x3108 SWAP2 SWAP1 PUSH2 0x5233 JUMP JUMPDEST PUSH1 0x1 PUSH1 0x1 PUSH1 0xA0 SHL SUB AND DUP8 CALLDATALOAD PUSH1 0x0 DUP1 MLOAD PUSH1 0x20 PUSH2 0x5F78 DUP4 CODECOPY DUP2 MLOAD SWAP2 MSTORE TIMESTAMP DUP6 PUSH2 0x3134 PUSH1 0x80 DUP14 ADD PUSH1 0x60 DUP15 ADD PUSH2 0x5233 JUMP JUMPDEST PUSH1 0x9 PUSH1 0x40 MLOAD PUSH2 0x3146 SWAP5 SWAP4 SWAP3 SWAP2 SWAP1 PUSH2 0x5B20 JUMP JUMPDEST PUSH1 0x40 MLOAD DUP1 SWAP2 SUB SWAP1 LOG4 DUP6 CALLDATALOAD PUSH1 0x0 SWAP1 DUP2 MSTORE PUSH1 0x9 PUSH1 0x20 MSTORE PUSH1 0x40 DUP2 KECCAK256 DUP5 MLOAD SWAP1 SWAP2 SWAP1 DUP6 SWAP1 DUP6 SWAP1 DUP2 LT PUSH2 0x3175 JUMPI PUSH2 0x3175 PUSH2 0x5B51 JUMP JUMPDEST PUSH1 0x20 MUL PUSH1 0x20 ADD ADD MLOAD PUSH1 0x1 PUSH1 0x1 PUSH1 0xA0 SHL SUB AND PUSH1 0x1 PUSH1 0x1 PUSH1 0xA0 SHL SUB AND DUP2 MSTORE PUSH1 0x20 ADD SWAP1 DUP2 MSTORE PUSH1 0x20 ADD PUSH1 0x0 KECCAK256 PUSH1 0x0 SWAP1 SSTORE DUP6 PUSH1 0x60 ADD PUSH1 0x20 DUP2 ADD SWAP1 PUSH2 0x31B4 SWAP2 SWAP1 PUSH2 0x5233 JUMP JUMPDEST PUSH1 0x1 PUSH1 0x1 PUSH1 0xA0 SHL SUB AND PUSH4 0xA9059CBB DUP5 DUP5 DUP2 MLOAD DUP2 LT PUSH2 0x31D4 JUMPI PUSH2 0x31D4 PUSH2 0x5B51 JUMP JUMPDEST PUSH1 0x20 MUL PUSH1 0x20 ADD ADD MLOAD PUSH2 0x31F7 DUP5 PUSH1 0x5 PUSH1 0x0 DUP13 PUSH1 0x60 ADD PUSH1 0x20 DUP2 ADD SWAP1 PUSH2 0xDD8 SWAP2 SWAP1 PUSH2 0x5233 JUMP JUMPDEST PUSH1 0x40 MLOAD PUSH1 0x1 PUSH1 0x1 PUSH1 0xE0 SHL SUB NOT PUSH1 0xE0 DUP6 SWAP1 SHL AND DUP2 MSTORE PUSH1 0x1 PUSH1 0x1 PUSH1 0xA0 SHL SUB SWAP1 SWAP3 AND PUSH1 0x4 DUP4 ADD MSTORE PUSH1 0x24 DUP3 ADD MSTORE PUSH1 0x44 ADD PUSH1 0x20 PUSH1 0x40 MLOAD DUP1 DUP4 SUB DUP2 PUSH1 0x0 DUP8 GAS CALL ISZERO DUP1 ISZERO PUSH2 0x3242 JUMPI RETURNDATASIZE PUSH1 0x0 DUP1 RETURNDATACOPY RETURNDATASIZE PUSH1 0x0 REVERT JUMPDEST POP POP POP POP PUSH1 0x40 MLOAD RETURNDATASIZE PUSH1 0x1F NOT PUSH1 0x1F DUP3 ADD AND DUP3 ADD DUP1 PUSH1 0x40 MSTORE POP DUP2 ADD SWAP1 PUSH2 0x3266 SWAP2 SWAP1 PUSH2 0x5C09 JUMP JUMPDEST PUSH2 0x3297 JUMPI PUSH1 0x40 MLOAD PUSH3 0x461BCD PUSH1 0xE5 SHL DUP2 MSTORE PUSH1 0x20 PUSH1 0x4 DUP3 ADD MSTORE PUSH1 0x2 PUSH1 0x24 DUP3 ADD MSTORE PUSH2 0x3231 PUSH1 0xF0 SHL PUSH1 0x44 DUP3 ADD MSTORE PUSH1 0x64 ADD PUSH2 0x657 JUMP JUMPDEST PUSH1 0x0 PUSH1 0x7 PUSH1 0x0 DUP6 DUP6 DUP2 MLOAD DUP2 LT PUSH2 0x32AF JUMPI PUSH2 0x32AF PUSH2 0x5B51 JUMP JUMPDEST PUSH1 0x20 MUL PUSH1 0x20 ADD ADD MLOAD PUSH1 0x1 PUSH1 0x1 PUSH1 0xA0 SHL SUB AND PUSH1 0x1 PUSH1 0x1 PUSH1 0xA0 SHL SUB AND DUP2 MSTORE PUSH1 0x20 ADD SWAP1 DUP2 MSTORE PUSH1 0x20 ADD PUSH1 0x0 KECCAK256 PUSH1 0x1 ADD DUP1 SLOAD SWAP1 POP PUSH8 0xFFFFFFFFFFFFFFFF DUP2 GT ISZERO PUSH2 0x32F6 JUMPI PUSH2 0x32F6 PUSH2 0x5431 JUMP JUMPDEST PUSH1 0x40 MLOAD SWAP1 DUP1 DUP3 MSTORE DUP1 PUSH1 0x20 MUL PUSH1 0x20 ADD DUP3 ADD PUSH1 0x40 MSTORE DUP1 ISZERO PUSH2 0x3351 JUMPI DUP2 PUSH1 0x20 ADD JUMPDEST PUSH2 0x333E PUSH1 0x40 DUP1 MLOAD PUSH1 0x80 DUP2 ADD DUP3 MSTORE PUSH1 0x0 DUP1 DUP3 MSTORE PUSH1 0x20 DUP3 ADD DUP2 SWAP1 MSTORE SWAP1 SWAP2 DUP3 ADD SWAP1 DUP2 MSTORE PUSH1 0x20 ADD PUSH1 0x0 SWAP1 MSTORE SWAP1 JUMP JUMPDEST DUP2 MSTORE PUSH1 0x20 ADD SWAP1 PUSH1 0x1 SWAP1 SUB SWAP1 DUP2 PUSH2 0x3314 JUMPI SWAP1 POP JUMPDEST POP SWAP1 POP PUSH1 0x7 PUSH1 0x0 DUP6 DUP6 DUP2 MLOAD DUP2 LT PUSH2 0x336A JUMPI PUSH2 0x336A PUSH2 0x5B51 JUMP JUMPDEST PUSH1 0x20 MUL PUSH1 0x20 ADD ADD MLOAD PUSH1 0x1 PUSH1 0x1 PUSH1 0xA0 SHL SUB AND PUSH1 0x1 PUSH1 0x1 PUSH1 0xA0 SHL SUB AND DUP2 MSTORE PUSH1 0x20 ADD SWAP1 DUP2 MSTORE PUSH1 0x20 ADD PUSH1 0x0 KECCAK256 PUSH1 0x1 ADD DUP1 SLOAD DUP1 PUSH1 0x20 MUL PUSH1 0x20 ADD PUSH1 0x40 MLOAD SWAP1 DUP2 ADD PUSH1 0x40 MSTORE DUP1 SWAP3 SWAP2 SWAP1 DUP2 DUP2 MSTORE PUSH1 0x20 ADD PUSH1 0x0 SWAP1 JUMPDEST DUP3 DUP3 LT ISZERO PUSH2 0x346B JUMPI PUSH1 0x0 DUP5 DUP2 MSTORE PUSH1 0x20 SWAP1 DUP2 SWAP1 KECCAK256 PUSH1 0x40 DUP1 MLOAD PUSH1 0x80 DUP2 ADD DUP3 MSTORE PUSH1 0x2 DUP7 MUL SWAP1 SWAP3 ADD DUP1 SLOAD DUP4 MSTORE PUSH1 0x1 DUP2 ADD SLOAD PUSH2 0xFFFF DUP2 AND SWAP5 DUP5 ADD SWAP5 SWAP1 SWAP5 MSTORE SWAP2 SWAP3 SWAP1 DUP4 ADD SWAP1 PUSH3 0x10000 SWAP1 DIV PUSH1 0xFF AND PUSH1 0x3 DUP2 GT ISZERO PUSH2 0x340E JUMPI PUSH2 0x340E PUSH2 0x5360 JUMP JUMPDEST PUSH1 0x3 DUP2 GT ISZERO PUSH2 0x341F JUMPI PUSH2 0x341F PUSH2 0x5360 JUMP JUMPDEST DUP2 MSTORE PUSH1 0x20 ADD PUSH1 0x1 DUP3 ADD PUSH1 0x3 SWAP1 SLOAD SWAP1 PUSH2 0x100 EXP SWAP1 DIV PUSH1 0xFF AND PUSH1 0x2 DUP2 GT ISZERO PUSH2 0x3447 JUMPI PUSH2 0x3447 PUSH2 0x5360 JUMP JUMPDEST PUSH1 0x2 DUP2 GT ISZERO PUSH2 0x3458 JUMPI PUSH2 0x3458 PUSH2 0x5360 JUMP JUMPDEST DUP2 MSTORE POP POP DUP2 MSTORE PUSH1 0x20 ADD SWAP1 PUSH1 0x1 ADD SWAP1 PUSH2 0x33B5 JUMP JUMPDEST POP POP POP POP SWAP1 POP PUSH1 0x0 JUMPDEST PUSH1 0x7 PUSH1 0x0 DUP7 DUP7 DUP2 MLOAD DUP2 LT PUSH2 0x348A JUMPI PUSH2 0x348A PUSH2 0x5B51 JUMP JUMPDEST PUSH1 0x20 MUL PUSH1 0x20 ADD ADD MLOAD PUSH1 0x1 PUSH1 0x1 PUSH1 0xA0 SHL SUB AND PUSH1 0x1 PUSH1 0x1 PUSH1 0xA0 SHL SUB AND DUP2 MSTORE PUSH1 0x20 ADD SWAP1 DUP2 MSTORE PUSH1 0x20 ADD PUSH1 0x0 KECCAK256 PUSH1 0x1 ADD DUP1 SLOAD SWAP1 POP DUP2 LT ISZERO PUSH2 0x357C JUMPI DUP8 PUSH1 0x0 ADD CALLDATALOAD DUP3 DUP3 DUP2 MLOAD DUP2 LT PUSH2 0x34D7 JUMPI PUSH2 0x34D7 PUSH2 0x5B51 JUMP JUMPDEST PUSH1 0x20 MUL PUSH1 0x20 ADD ADD MLOAD PUSH1 0x0 ADD MLOAD SUB PUSH2 0x3574 JUMPI PUSH1 0x1 PUSH1 0x7 PUSH1 0x0 DUP8 DUP8 DUP2 MLOAD DUP2 LT PUSH2 0x3500 JUMPI PUSH2 0x3500 PUSH2 0x5B51 JUMP JUMPDEST PUSH1 0x20 MUL PUSH1 0x20 ADD ADD MLOAD PUSH1 0x1 PUSH1 0x1 PUSH1 0xA0 SHL SUB AND PUSH1 0x1 PUSH1 0x1 PUSH1 0xA0 SHL SUB AND DUP2 MSTORE PUSH1 0x20 ADD SWAP1 DUP2 MSTORE PUSH1 0x20 ADD PUSH1 0x0 KECCAK256 PUSH1 0x1 ADD DUP3 DUP2 SLOAD DUP2 LT PUSH2 0x353C JUMPI PUSH2 0x353C PUSH2 0x5B51 JUMP JUMPDEST SWAP1 PUSH1 0x0 MSTORE PUSH1 0x20 PUSH1 0x0 KECCAK256 SWAP1 PUSH1 0x2 MUL ADD PUSH1 0x1 ADD PUSH1 0x3 PUSH2 0x100 EXP DUP2 SLOAD DUP2 PUSH1 0xFF MUL NOT AND SWAP1 DUP4 PUSH1 0x2 DUP2 GT ISZERO PUSH2 0x356E JUMPI PUSH2 0x356E PUSH2 0x5360 JUMP JUMPDEST MUL OR SWAP1 SSTORE POP JUMPDEST PUSH1 0x1 ADD PUSH2 0x3474 JUMP JUMPDEST POP PUSH2 0x35A4 DUP8 PUSH1 0x0 ADD CALLDATALOAD DUP6 DUP6 DUP2 MLOAD DUP2 LT PUSH2 0x3597 JUMPI PUSH2 0x3597 PUSH2 0x5B51 JUMP JUMPDEST PUSH1 0x20 MUL PUSH1 0x20 ADD ADD MLOAD PUSH2 0x4C66 JUMP JUMPDEST POP POP PUSH1 0x1 ADD PUSH2 0x3078 JUMP JUMPDEST POP PUSH1 0x0 PUSH1 0xA DUP2 PUSH2 0x35C4 PUSH1 0xE0 DUP9 ADD PUSH1 0xC0 DUP10 ADD PUSH2 0x5B82 JUMP JUMPDEST PUSH1 0x3 DUP2 GT ISZERO PUSH2 0x35D5 JUMPI PUSH2 0x35D5 PUSH2 0x5360 JUMP JUMPDEST DUP2 MSTORE PUSH1 0x20 ADD SWAP1 DUP2 MSTORE PUSH1 0x20 ADD PUSH1 0x0 KECCAK256 PUSH1 0x0 DUP7 PUSH1 0xE0 ADD PUSH1 0x20 DUP2 ADD SWAP1 PUSH2 0x35F8 SWAP2 SWAP1 PUSH2 0x5B67 JUMP JUMPDEST PUSH2 0xFFFF AND PUSH2 0xFFFF AND DUP2 MSTORE PUSH1 0x20 ADD SWAP1 DUP2 MSTORE PUSH1 0x20 ADD PUSH1 0x0 KECCAK256 DUP1 SLOAD DUP1 PUSH1 0x20 MUL PUSH1 0x20 ADD PUSH1 0x40 MLOAD SWAP1 DUP2 ADD PUSH1 0x40 MSTORE DUP1 SWAP3 SWAP2 SWAP1 DUP2 DUP2 MSTORE PUSH1 0x20 ADD PUSH1 0x0 SWAP1 JUMPDEST DUP3 DUP3 LT ISZERO PUSH2 0x3705 JUMPI PUSH1 0x0 DUP5 DUP2 MSTORE PUSH1 0x20 SWAP1 DUP2 SWAP1 KECCAK256 PUSH1 0x40 DUP1 MLOAD PUSH2 0x100 DUP2 ADD DUP3 MSTORE PUSH1 0x4 DUP7 MUL SWAP1 SWAP3 ADD DUP1 SLOAD DUP4 MSTORE PUSH1 0x1 DUP2 ADD SLOAD SWAP4 DUP4 ADD SWAP4 SWAP1 SWAP4 MSTORE PUSH1 0x2 DUP4 ADD SLOAD PUSH1 0x1 PUSH1 0x1 PUSH1 0xA0 SHL SUB SWAP1 DUP2 AND SWAP2 DUP4 ADD SWAP2 SWAP1 SWAP2 MSTORE PUSH1 0x3 DUP1 DUP5 ADD SLOAD SWAP2 DUP3 AND PUSH1 0x60 DUP5 ADD MSTORE PUSH1 0xFF PUSH1 0x1 PUSH1 0xA0 SHL DUP4 DIV DUP2 AND ISZERO ISZERO PUSH1 0x80 DUP6 ADD MSTORE PUSH1 0x1 PUSH1 0xA8 SHL DUP4 DIV DUP2 AND ISZERO ISZERO PUSH1 0xA0 DUP6 ADD MSTORE SWAP3 SWAP4 SWAP3 PUSH1 0xC0 DUP6 ADD SWAP3 PUSH1 0x1 PUSH1 0xB0 SHL SWAP1 DIV AND SWAP1 DUP2 GT ISZERO PUSH2 0x36CA JUMPI PUSH2 0x36CA PUSH2 0x5360 JUMP JUMPDEST PUSH1 0x3 DUP2 GT ISZERO PUSH2 0x36DB JUMPI PUSH2 0x36DB PUSH2 0x5360 JUMP JUMPDEST DUP2 MSTORE PUSH1 0x3 SWAP2 SWAP1 SWAP2 ADD SLOAD PUSH2 0xFFFF PUSH1 0x1 PUSH1 0xB8 SHL SWAP1 SWAP2 DIV AND PUSH1 0x20 SWAP2 DUP3 ADD MSTORE SWAP1 DUP3 MSTORE PUSH1 0x1 SWAP1 SWAP3 ADD SWAP2 ADD PUSH2 0x362E JUMP JUMPDEST POP POP POP POP SWAP1 POP PUSH1 0x0 JUMPDEST DUP2 MLOAD DUP2 LT ISZERO PUSH2 0x37E1 JUMPI DUP6 PUSH1 0x0 ADD CALLDATALOAD DUP3 DUP3 DUP2 MLOAD DUP2 LT PUSH2 0x372E JUMPI PUSH2 0x372E PUSH2 0x5B51 JUMP JUMPDEST PUSH1 0x20 MUL PUSH1 0x20 ADD ADD MLOAD PUSH1 0x0 ADD MLOAD SUB PUSH2 0x37D9 JUMPI PUSH1 0x1 PUSH1 0xA PUSH1 0x0 PUSH2 0x3755 PUSH1 0xE0 DUP11 ADD PUSH1 0xC0 DUP12 ADD PUSH2 0x5B82 JUMP JUMPDEST PUSH1 0x3 DUP2 GT ISZERO PUSH2 0x3766 JUMPI PUSH2 0x3766 PUSH2 0x5360 JUMP JUMPDEST DUP2 MSTORE PUSH1 0x20 ADD SWAP1 DUP2 MSTORE PUSH1 0x20 ADD PUSH1 0x0 KECCAK256 PUSH1 0x0 DUP9 PUSH1 0xE0 ADD PUSH1 0x20 DUP2 ADD SWAP1 PUSH2 0x3789 SWAP2 SWAP1 PUSH2 0x5B67 JUMP JUMPDEST PUSH2 0xFFFF AND PUSH2 0xFFFF AND DUP2 MSTORE PUSH1 0x20 ADD SWAP1 DUP2 MSTORE PUSH1 0x20 ADD PUSH1 0x0 KECCAK256 DUP3 DUP2 SLOAD DUP2 LT PUSH2 0x37B0 JUMPI PUSH2 0x37B0 PUSH2 0x5B51 JUMP JUMPDEST SWAP1 PUSH1 0x0 MSTORE PUSH1 0x20 PUSH1 0x0 KECCAK256 SWAP1 PUSH1 0x4 MUL ADD PUSH1 0x3 ADD PUSH1 0x15 PUSH2 0x100 EXP DUP2 SLOAD DUP2 PUSH1 0xFF MUL NOT AND SWAP1 DUP4 ISZERO ISZERO MUL OR SWAP1 SSTORE POP JUMPDEST PUSH1 0x1 ADD PUSH2 0x370E JUMP JUMPDEST POP PUSH1 0x0 CALLER DUP7 CALLDATALOAD PUSH1 0x0 DUP1 MLOAD PUSH1 0x20 PUSH2 0x5F78 DUP4 CODECOPY DUP2 MLOAD SWAP2 MSTORE TIMESTAMP DUP5 PUSH2 0x3808 PUSH1 0x80 DUP13 ADD PUSH1 0x60 DUP14 ADD PUSH2 0x5233 JUMP JUMPDEST PUSH1 0x1 PUSH1 0x40 MLOAD PUSH2 0x381A SWAP5 SWAP4 SWAP3 SWAP2 SWAP1 PUSH2 0x5B20 JUMP JUMPDEST PUSH1 0x40 MLOAD DUP1 SWAP2 SUB SWAP1 LOG4 POP POP POP POP POP JUMP JUMPDEST PUSH2 0x3831 PUSH2 0x45D3 JUMP JUMPDEST PUSH1 0x0 SSTORE JUMP JUMPDEST PUSH2 0x383E PUSH2 0x45D3 JUMP JUMPDEST PUSH1 0x1 PUSH1 0x1 PUSH1 0xA0 SHL SUB DUP2 AND PUSH2 0x3851 JUMPI PUSH1 0x0 DUP1 REVERT JUMPDEST PUSH1 0x6 DUP1 SLOAD PUSH1 0x1 PUSH1 0x1 PUSH1 0xA0 SHL SUB SWAP1 SWAP3 AND PUSH7 0x1000000000000 MUL PUSH32 0xFFFFFFFFFFFF0000000000000000000000000000000000000000FFFFFFFFFFFF SWAP1 SWAP3 AND SWAP2 SWAP1 SWAP2 OR SWAP1 SSTORE JUMP JUMPDEST PUSH2 0x389D PUSH2 0x4653 JUMP JUMPDEST CALLER PUSH1 0x0 SWAP1 DUP2 MSTORE PUSH1 0x7 PUSH1 0x20 SWAP1 DUP2 MSTORE PUSH1 0x40 DUP1 DUP4 KECCAK256 PUSH1 0x2 ADD DUP1 SLOAD DUP3 MLOAD DUP2 DUP6 MUL DUP2 ADD DUP6 ADD SWAP1 SWAP4 MSTORE DUP1 DUP4 MSTORE SWAP2 SWAP3 SWAP1 SWAP2 SWAP1 DUP5 SWAP1 DUP5 ADD JUMPDEST DUP3 DUP3 LT ISZERO PUSH2 0x3983 JUMPI PUSH1 0x0 DUP5 DUP2 MSTORE PUSH1 0x20 SWAP1 DUP2 SWAP1 KECCAK256 PUSH1 0x40 DUP1 MLOAD PUSH1 0x80 DUP2 ADD DUP3 MSTORE PUSH1 0x2 DUP7 MUL SWAP1 SWAP3 ADD DUP1 SLOAD DUP4 MSTORE PUSH1 0x1 DUP2 ADD SLOAD PUSH2 0xFFFF DUP2 AND SWAP5 DUP5 ADD SWAP5 SWAP1 SWAP5 MSTORE SWAP2 SWAP3 SWAP1 DUP4 ADD SWAP1 PUSH3 0x10000 SWAP1 DIV PUSH1 0xFF AND PUSH1 0x3 DUP2 GT ISZERO PUSH2 0x3926 JUMPI PUSH2 0x3926 PUSH2 0x5360 JUMP JUMPDEST PUSH1 0x3 DUP2 GT ISZERO PUSH2 0x3937 JUMPI PUSH2 0x3937 PUSH2 0x5360 JUMP JUMPDEST DUP2 MSTORE PUSH1 0x20 ADD PUSH1 0x1 DUP3 ADD PUSH1 0x3 SWAP1 SLOAD SWAP1 PUSH2 0x100 EXP SWAP1 DIV PUSH1 0xFF AND PUSH1 0x2 DUP2 GT ISZERO PUSH2 0x395F JUMPI PUSH2 0x395F PUSH2 0x5360 JUMP JUMPDEST PUSH1 0x2 DUP2 GT ISZERO PUSH2 0x3970 JUMPI PUSH2 0x3970 PUSH2 0x5360 JUMP JUMPDEST DUP2 MSTORE POP POP DUP2 MSTORE PUSH1 0x20 ADD SWAP1 PUSH1 0x1 ADD SWAP1 PUSH2 0x38CD JUMP JUMPDEST POP POP POP POP SWAP1 POP PUSH1 0x0 DUP1 JUMPDEST DUP3 MLOAD DUP2 LT ISZERO PUSH2 0x39CB JUMPI DUP5 PUSH1 0x0 ADD MLOAD DUP4 DUP3 DUP2 MLOAD DUP2 LT PUSH2 0x39AD JUMPI PUSH2 0x39AD PUSH2 0x5B51 JUMP JUMPDEST PUSH1 0x20 MUL PUSH1 0x20 ADD ADD MLOAD PUSH1 0x0 ADD MLOAD SUB PUSH2 0x39C3 JUMPI PUSH1 0x1 SWAP2 POP JUMPDEST PUSH1 0x1 ADD PUSH2 0x398D JUMP JUMPDEST POP DUP1 PUSH2 0x39FE JUMPI PUSH1 0x40 MLOAD PUSH3 0x461BCD PUSH1 0xE5 SHL DUP2 MSTORE PUSH1 0x20 PUSH1 0x4 DUP3 ADD MSTORE PUSH1 0x2 PUSH1 0x24 DUP3 ADD MSTORE PUSH2 0x627 PUSH1 0xF3 SHL PUSH1 0x44 DUP3 ADD MSTORE PUSH1 0x64 ADD PUSH2 0x657 JUMP JUMPDEST DUP4 MLOAD PUSH1 0x0 SWAP1 DUP2 MSTORE PUSH1 0xB PUSH1 0x20 SWAP1 DUP2 MSTORE PUSH1 0x40 DUP1 DUP4 KECCAK256 DUP1 SLOAD DUP3 MLOAD DUP2 DUP6 MUL DUP2 ADD DUP6 ADD SWAP1 SWAP4 MSTORE DUP1 DUP4 MSTORE SWAP2 SWAP3 SWAP1 SWAP2 SWAP1 DUP4 ADD DUP3 DUP3 DUP1 ISZERO PUSH2 0x3A60 JUMPI PUSH1 0x20 MUL DUP3 ADD SWAP2 SWAP1 PUSH1 0x0 MSTORE PUSH1 0x20 PUSH1 0x0 KECCAK256 SWAP1 JUMPDEST DUP2 SLOAD PUSH1 0x1 PUSH1 0x1 PUSH1 0xA0 SHL SUB AND DUP2 MSTORE PUSH1 0x1 SWAP1 SWAP2 ADD SWAP1 PUSH1 0x20 ADD DUP1 DUP4 GT PUSH2 0x3A42 JUMPI JUMPDEST POP POP POP POP POP SWAP1 POP PUSH1 0x0 DUP1 JUMPDEST DUP3 MLOAD DUP2 LT ISZERO PUSH2 0x3B1B JUMPI DUP6 PUSH1 0x1 PUSH1 0x1 PUSH1 0xA0 SHL SUB AND DUP4 DUP3 DUP2 MLOAD DUP2 LT PUSH2 0x3A90 JUMPI PUSH2 0x3A90 PUSH2 0x5B51 JUMP JUMPDEST PUSH1 0x20 MUL PUSH1 0x20 ADD ADD MLOAD PUSH1 0x1 PUSH1 0x1 PUSH1 0xA0 SHL SUB AND SUB PUSH2 0x3B13 JUMPI PUSH1 0x1 PUSH1 0x1 PUSH1 0xA0 SHL SUB DUP7 AND PUSH1 0x0 SWAP1 DUP2 MSTORE PUSH1 0x7 PUSH1 0x20 MSTORE PUSH1 0x40 SWAP1 KECCAK256 PUSH1 0x1 SWAP1 DUP2 ADD DUP1 SLOAD SWAP2 SWAP4 POP PUSH1 0x2 SWAP2 DUP4 SWAP1 DUP2 LT PUSH2 0x3ADB JUMPI PUSH2 0x3ADB PUSH2 0x5B51 JUMP JUMPDEST SWAP1 PUSH1 0x0 MSTORE PUSH1 0x20 PUSH1 0x0 KECCAK256 SWAP1 PUSH1 0x2 MUL ADD PUSH1 0x1 ADD PUSH1 0x3 PUSH2 0x100 EXP DUP2 SLOAD DUP2 PUSH1 0xFF MUL NOT AND SWAP1 DUP4 PUSH1 0x2 DUP2 GT ISZERO PUSH2 0x3B0D JUMPI PUSH2 0x3B0D PUSH2 0x5360 JUMP JUMPDEST MUL OR SWAP1 SSTORE POP JUMPDEST PUSH1 0x1 ADD PUSH2 0x3A6B JUMP JUMPDEST POP DUP1 PUSH2 0x3B4E JUMPI PUSH1 0x40 MLOAD PUSH3 0x461BCD PUSH1 0xE5 SHL DUP2 MSTORE PUSH1 0x20 PUSH1 0x4 DUP3 ADD MSTORE PUSH1 0x2 PUSH1 0x24 DUP3 ADD MSTORE PUSH2 0x3139 PUSH1 0xF0 SHL PUSH1 0x44 DUP3 ADD MSTORE PUSH1 0x64 ADD PUSH2 0x657 JUMP JUMPDEST DUP6 MLOAD PUSH2 0x3B5A SWAP1 DUP7 PUSH2 0x4C66 JUMP JUMPDEST DUP5 PUSH1 0x1 PUSH1 0x1 PUSH1 0xA0 SHL SUB AND DUP7 PUSH1 0x40 ADD MLOAD PUSH1 0x1 PUSH1 0x1 PUSH1 0xA0 SHL SUB AND DUP8 PUSH1 0x0 ADD MLOAD PUSH1 0x0 DUP1 MLOAD PUSH1 0x20 PUSH2 0x5F78 DUP4 CODECOPY DUP2 MLOAD SWAP2 MSTORE TIMESTAMP DUP11 PUSH1 0x20 ADD MLOAD DUP12 PUSH1 0x60 ADD MLOAD PUSH1 0x7 PUSH1 0x40 MLOAD PUSH2 0x3BA3 SWAP5 SWAP4 SWAP3 SWAP2 SWAP1 PUSH2 0x5B20 JUMP JUMPDEST PUSH1 0x40 MLOAD DUP1 SWAP2 SUB SWAP1 LOG4 DUP6 MLOAD PUSH1 0x0 SWAP1 DUP2 MSTORE PUSH1 0x9 PUSH1 0x20 DUP2 DUP2 MSTORE PUSH1 0x40 DUP1 DUP5 KECCAK256 PUSH1 0x1 PUSH1 0x1 PUSH1 0xA0 SHL SUB DUP1 DUP12 AND DUP1 DUP8 MSTORE SWAP2 DUP5 MSTORE DUP3 DUP7 KECCAK256 SLOAD DUP13 MLOAD DUP8 MSTORE DUP6 DUP6 MSTORE DUP4 DUP8 KECCAK256 DUP4 DUP9 MSTORE SWAP1 SWAP5 MSTORE DUP3 DUP7 KECCAK256 SWAP6 SWAP1 SWAP6 SSTORE DUP2 DUP12 ADD MLOAD DUP12 MLOAD PUSH1 0x60 DUP14 ADD MLOAD SWAP4 MLOAD SWAP5 SWAP7 SWAP3 SWAP6 SWAP2 SWAP1 SWAP3 AND SWAP4 SWAP2 SWAP3 PUSH1 0x0 DUP1 MLOAD PUSH1 0x20 PUSH2 0x5F78 DUP4 CODECOPY DUP2 MLOAD SWAP2 MSTORE SWAP3 PUSH2 0x3C22 SWAP3 TIMESTAMP SWAP3 DUP10 SWAP3 SWAP1 SWAP2 SWAP1 PUSH2 0x5B20 JUMP JUMPDEST PUSH1 0x40 MLOAD DUP1 SWAP2 SUB SWAP1 LOG4 PUSH1 0x60 DUP8 ADD MLOAD PUSH1 0x1 PUSH1 0x1 PUSH1 0xA0 SHL SUB AND PUSH1 0x0 DUP2 DUP2 MSTORE PUSH1 0x5 PUSH1 0x20 MSTORE PUSH1 0x40 SWAP1 KECCAK256 PUSH1 0x2 ADD SLOAD PUSH4 0xA9059CBB SWAP1 DUP9 SWAP1 PUSH2 0x3C60 SWAP1 DUP6 SWAP1 PUSH1 0xFF AND PUSH2 0x49AA JUMP JUMPDEST PUSH1 0x40 MLOAD PUSH1 0x1 PUSH1 0x1 PUSH1 0xE0 SHL SUB NOT PUSH1 0xE0 DUP6 SWAP1 SHL AND DUP2 MSTORE PUSH1 0x1 PUSH1 0x1 PUSH1 0xA0 SHL SUB SWAP1 SWAP3 AND PUSH1 0x4 DUP4 ADD MSTORE PUSH1 0x24 DUP3 ADD MSTORE PUSH1 0x44 ADD PUSH1 0x20 PUSH1 0x40 MLOAD DUP1 DUP4 SUB DUP2 PUSH1 0x0 DUP8 GAS CALL ISZERO DUP1 ISZERO PUSH2 0x3CAB JUMPI RETURNDATASIZE PUSH1 0x0 DUP1 RETURNDATACOPY RETURNDATASIZE PUSH1 0x0 REVERT JUMPDEST POP POP POP POP PUSH1 0x40 MLOAD RETURNDATASIZE PUSH1 0x1F NOT PUSH1 0x1F DUP3 ADD AND DUP3 ADD DUP1 PUSH1 0x40 MSTORE POP DUP2 ADD SWAP1 PUSH2 0x3CCF SWAP2 SWAP1 PUSH2 0x5C09 JUMP JUMPDEST PUSH2 0x3D00 JUMPI PUSH1 0x40 MLOAD PUSH3 0x461BCD PUSH1 0xE5 SHL DUP2 MSTORE PUSH1 0x20 PUSH1 0x4 DUP3 ADD MSTORE PUSH1 0x2 PUSH1 0x24 DUP3 ADD MSTORE PUSH2 0x3231 PUSH1 0xF0 SHL PUSH1 0x44 DUP3 ADD MSTORE PUSH1 0x64 ADD PUSH2 0x657 JUMP JUMPDEST POP POP POP POP POP POP POP JUMP JUMPDEST PUSH2 0x3D11 PUSH2 0x45D3 JUMP JUMPDEST PUSH1 0x6 DUP1 SLOAD SWAP2 ISZERO ISZERO PUSH1 0x1 PUSH1 0xD8 SHL MUL PUSH1 0xFF PUSH1 0xD8 SHL NOT SWAP1 SWAP3 AND SWAP2 SWAP1 SWAP2 OR SWAP1 SSTORE JUMP JUMPDEST PUSH2 0x3D37 PUSH2 0x45D3 JUMP JUMPDEST PUSH1 0x6 DUP1 SLOAD SWAP2 ISZERO ISZERO PUSH1 0x1 PUSH1 0xD0 SHL MUL PUSH1 0xFF PUSH1 0xD0 SHL NOT SWAP1 SWAP3 AND SWAP2 SWAP1 SWAP2 OR SWAP1 SSTORE JUMP JUMPDEST PUSH2 0x3D5D PUSH2 0x45D3 JUMP JUMPDEST PUSH2 0x1388 SELFBALANCE GT ISZERO PUSH2 0x3DB6 JUMPI PUSH1 0x6 SLOAD PUSH7 0x1000000000000 SWAP1 DIV PUSH1 0x1 PUSH1 0x1 PUSH1 0xA0 SHL SUB AND PUSH2 0x8FC PUSH2 0x3D8C PUSH2 0x1388 SELFBALANCE PUSH2 0x5C5D JUMP JUMPDEST PUSH1 0x40 MLOAD DUP2 ISZERO SWAP1 SWAP3 MUL SWAP2 PUSH1 0x0 DUP2 DUP2 DUP2 DUP6 DUP9 DUP9 CALL SWAP4 POP POP POP POP ISZERO DUP1 ISZERO PUSH2 0x3DB4 JUMPI RETURNDATASIZE PUSH1 0x0 DUP1 RETURNDATACOPY RETURNDATASIZE PUSH1 0x0 REVERT JUMPDEST POP JUMPDEST JUMP JUMPDEST PUSH1 0x0 PUSH2 0x3DC3 CALLER PUSH2 0x43A9 JUMP JUMPDEST SWAP1 POP DUP1 PUSH1 0x20 ADD MLOAD ISZERO PUSH2 0x3E6A JUMPI PUSH1 0x0 JUMPDEST DUP2 PUSH1 0x60 ADD MLOAD MLOAD DUP2 LT ISZERO PUSH2 0x1421 JUMPI DUP3 DUP3 PUSH1 0x60 ADD MLOAD DUP3 DUP2 MLOAD DUP2 LT PUSH2 0x3DF6 JUMPI PUSH2 0x3DF6 PUSH2 0x5B51 JUMP JUMPDEST PUSH1 0x20 MUL PUSH1 0x20 ADD ADD MLOAD PUSH1 0x0 ADD MLOAD SUB PUSH2 0x3E62 JUMPI PUSH5 0xFFFFFFFFFF TIMESTAMP AND CALLER DUP5 PUSH32 0x93CDA0785D40B289A535B99DC76D4C9CBB6D8146182861AC3AD40509398B1865 PUSH2 0x3E3C DUP9 DUP1 PUSH2 0x5A67 JUMP JUMPDEST PUSH2 0x3E49 PUSH1 0x20 DUP12 ADD DUP12 PUSH2 0x5A67 JUMP JUMPDEST PUSH1 0x40 MLOAD PUSH2 0x3E59 SWAP5 SWAP4 SWAP3 SWAP2 SWAP1 PUSH2 0x5ADE JUMP JUMPDEST PUSH1 0x40 MLOAD DUP1 SWAP2 SUB SWAP1 LOG4 JUMPDEST PUSH1 0x1 ADD PUSH2 0x3DD2 JUMP JUMPDEST POP POP POP JUMP JUMPDEST PUSH1 0x60 PUSH1 0x0 PUSH2 0x3E7C TIMESTAMP PUSH2 0x4DAC JUMP JUMPDEST PUSH1 0x6 SLOAD SWAP1 SWAP2 POP PUSH5 0xFFFFFFFFFF PUSH2 0x100 SWAP1 SWAP2 DIV DUP2 AND SWAP1 DUP3 AND GT PUSH2 0x3EC5 JUMPI PUSH1 0x40 MLOAD PUSH3 0x461BCD PUSH1 0xE5 SHL DUP2 MSTORE PUSH1 0x20 PUSH1 0x4 DUP3 ADD MSTORE PUSH1 0x2 PUSH1 0x24 DUP3 ADD MSTORE PUSH2 0xC4D PUSH1 0xF2 SHL PUSH1 0x44 DUP3 ADD MSTORE PUSH1 0x64 ADD PUSH2 0x657 JUMP JUMPDEST PUSH1 0x0 PUSH2 0x3ED0 TIMESTAMP PUSH2 0x4DBB JUMP JUMPDEST SWAP1 POP PUSH1 0x0 DUP1 PUSH1 0x0 PUSH1 0x2 SLOAD PUSH8 0xFFFFFFFFFFFFFFFF DUP2 GT ISZERO PUSH2 0x3EF2 JUMPI PUSH2 0x3EF2 PUSH2 0x5431 JUMP JUMPDEST PUSH1 0x40 MLOAD SWAP1 DUP1 DUP3 MSTORE DUP1 PUSH1 0x20 MUL PUSH1 0x20 ADD DUP3 ADD PUSH1 0x40 MSTORE DUP1 ISZERO PUSH2 0x3F37 JUMPI DUP2 PUSH1 0x20 ADD JUMPDEST PUSH1 0x40 DUP1 MLOAD DUP1 DUP3 ADD SWAP1 SWAP2 MSTORE PUSH1 0x0 DUP1 DUP3 MSTORE PUSH1 0x20 DUP3 ADD MSTORE DUP2 MSTORE PUSH1 0x20 ADD SWAP1 PUSH1 0x1 SWAP1 SUB SWAP1 DUP2 PUSH2 0x3F10 JUMPI SWAP1 POP JUMPDEST POP SWAP1 POP PUSH1 0x0 JUMPDEST PUSH1 0x3 DUP2 GT PUSH2 0x4202 JUMPI PUSH1 0x0 DUP2 PUSH2 0x3F53 JUMPI POP PUSH1 0x20 DUP6 ADD MLOAD JUMPDEST PUSH1 0x1 DUP3 SUB PUSH2 0x3F5F JUMPI POP DUP5 MLOAD JUMPDEST PUSH1 0x2 DUP3 SUB PUSH2 0x3F6E JUMPI POP PUSH1 0x40 DUP6 ADD MLOAD JUMPDEST PUSH1 0x3 DUP3 SUB PUSH2 0x3F7D JUMPI POP PUSH1 0x60 DUP6 ADD MLOAD JUMPDEST PUSH1 0x0 JUMPDEST PUSH1 0x0 DUP4 DUP2 MSTORE PUSH1 0xA PUSH1 0x20 SWAP1 DUP2 MSTORE PUSH1 0x40 DUP1 DUP4 KECCAK256 PUSH2 0xFFFF DUP7 AND DUP5 MSTORE SWAP1 SWAP2 MSTORE SWAP1 KECCAK256 SLOAD DUP2 LT ISZERO PUSH2 0x41ED JUMPI PUSH1 0x0 DUP4 DUP2 MSTORE PUSH1 0xA PUSH1 0x20 SWAP1 DUP2 MSTORE PUSH1 0x40 DUP1 DUP4 KECCAK256 PUSH2 0xFFFF DUP7 AND DUP5 MSTORE SWAP1 SWAP2 MSTORE SWAP1 KECCAK256 DUP1 SLOAD DUP3 SWAP1 DUP2 LT PUSH2 0x3FD4 JUMPI PUSH2 0x3FD4 PUSH2 0x5B51 JUMP JUMPDEST SWAP1 PUSH1 0x0 MSTORE PUSH1 0x20 PUSH1 0x0 KECCAK256 SWAP1 PUSH1 0x4 MUL ADD PUSH1 0x3 ADD PUSH1 0x15 SWAP1 SLOAD SWAP1 PUSH2 0x100 EXP SWAP1 DIV PUSH1 0xFF AND PUSH2 0x41E5 JUMPI PUSH1 0x0 DUP4 DUP2 MSTORE PUSH1 0xA PUSH1 0x20 SWAP1 DUP2 MSTORE PUSH1 0x40 DUP1 DUP4 KECCAK256 PUSH2 0xFFFF DUP7 AND DUP5 MSTORE SWAP1 SWAP2 MSTORE DUP2 KECCAK256 DUP1 SLOAD DUP4 SWAP1 DUP2 LT PUSH2 0x4026 JUMPI PUSH2 0x4026 PUSH2 0x5B51 JUMP JUMPDEST PUSH1 0x0 SWAP2 DUP3 MSTORE PUSH1 0x20 DUP1 DUP4 KECCAK256 PUSH1 0x4 SWAP1 SWAP3 MUL SWAP1 SWAP2 ADD SLOAD DUP7 DUP4 MSTORE PUSH1 0xA DUP3 MSTORE PUSH1 0x40 DUP1 DUP5 KECCAK256 PUSH2 0xFFFF DUP9 AND DUP6 MSTORE SWAP1 SWAP3 MSTORE SWAP1 DUP3 KECCAK256 DUP1 SLOAD SWAP2 SWAP4 POP SWAP1 DUP5 SWAP1 DUP2 LT PUSH2 0x4068 JUMPI PUSH2 0x4068 PUSH2 0x5B51 JUMP JUMPDEST PUSH1 0x0 SWAP2 DUP3 MSTORE PUSH1 0x20 DUP1 DUP4 KECCAK256 PUSH1 0x3 PUSH1 0x4 SWAP1 SWAP4 MUL ADD SWAP2 SWAP1 SWAP2 ADD SLOAD DUP8 DUP4 MSTORE PUSH1 0xA DUP3 MSTORE PUSH1 0x40 DUP1 DUP5 KECCAK256 PUSH2 0xFFFF DUP10 AND DUP6 MSTORE SWAP1 SWAP3 MSTORE SWAP1 DUP3 KECCAK256 DUP1 SLOAD PUSH1 0x1 PUSH1 0x1 PUSH1 0xA0 SHL SUB SWAP1 SWAP3 AND SWAP4 POP SWAP1 DUP6 SWAP1 DUP2 LT PUSH2 0x40B8 JUMPI PUSH2 0x40B8 PUSH2 0x5B51 JUMP JUMPDEST SWAP1 PUSH1 0x0 MSTORE PUSH1 0x20 PUSH1 0x0 KECCAK256 SWAP1 PUSH1 0x4 MUL ADD PUSH1 0x1 ADD SLOAD SWAP1 POP PUSH2 0x40F2 PUSH1 0x40 MLOAD DUP1 PUSH1 0x40 ADD PUSH1 0x40 MSTORE DUP1 PUSH1 0x0 DUP2 MSTORE PUSH1 0x20 ADD PUSH1 0x0 PUSH1 0x1 PUSH1 0x1 PUSH1 0xA0 SHL SUB AND DUP2 MSTORE POP SWAP1 JUMP JUMPDEST PUSH1 0x0 DUP3 PUSH2 0x2710 PUSH1 0x0 SLOAD DUP6 PUSH2 0x4106 SWAP2 SWAP1 PUSH2 0x5C26 JUMP JUMPDEST PUSH2 0x4110 SWAP2 SWAP1 PUSH2 0x5BE2 JUMP JUMPDEST PUSH2 0x411A SWAP2 SWAP1 PUSH2 0x5C5D JUMP JUMPDEST SWAP1 POP PUSH1 0x0 DUP1 JUMPDEST PUSH1 0x0 DUP8 DUP2 MSTORE PUSH1 0xB PUSH1 0x20 MSTORE PUSH1 0x40 SWAP1 KECCAK256 SLOAD DUP2 LT ISZERO PUSH2 0x41DD JUMPI PUSH1 0x2 SLOAD DUP14 SUB PUSH2 0x4153 JUMPI POP SWAP9 SWAP15 SWAP14 POP POP POP POP POP POP POP POP POP POP POP POP POP POP JUMP JUMPDEST PUSH1 0x3 SLOAD ISZERO DUP1 PUSH2 0x4169 JUMPI POP PUSH1 0x6 SLOAD PUSH1 0xFF AND ISZERO ISZERO PUSH1 0x1 EQ JUMPDEST ISZERO PUSH2 0x41D5 JUMPI DUP13 PUSH2 0x4178 DUP2 PUSH2 0x5C70 JUMP JUMPDEST SWAP14 POP PUSH2 0x4186 SWAP1 POP DUP4 DUP4 PUSH2 0x5BF6 JUMP JUMPDEST SWAP2 POP PUSH1 0x40 MLOAD DUP1 PUSH1 0x40 ADD PUSH1 0x40 MSTORE DUP1 DUP4 DUP2 MSTORE PUSH1 0x20 ADD DUP8 PUSH1 0x1 PUSH1 0x1 PUSH1 0xA0 SHL SUB AND DUP2 MSTORE POP SWAP4 POP DUP4 DUP12 DUP14 DUP2 MLOAD DUP2 LT PUSH2 0x41BB JUMPI PUSH2 0x41BB PUSH2 0x5B51 JUMP JUMPDEST PUSH1 0x20 MUL PUSH1 0x20 ADD ADD DUP2 SWAP1 MSTORE POP DUP12 DUP1 PUSH2 0x41D1 SWAP1 PUSH2 0x5C70 JUMP JUMPDEST SWAP13 POP POP JUMPDEST PUSH1 0x1 ADD PUSH2 0x4120 JUMP JUMPDEST POP POP POP POP POP POP POP JUMPDEST PUSH1 0x1 ADD PUSH2 0x3F80 JUMP JUMPDEST POP POP DUP1 DUP1 PUSH2 0x41FA SWAP1 PUSH2 0x5C70 JUMP JUMPDEST SWAP2 POP POP PUSH2 0x3F3D JUMP JUMPDEST POP PUSH1 0x0 DUP1 JUMPDEST DUP3 MLOAD DUP2 LT ISZERO PUSH2 0x4257 JUMPI PUSH1 0x0 PUSH1 0x1 PUSH1 0x1 PUSH1 0xA0 SHL SUB AND DUP4 DUP3 DUP2 MLOAD DUP2 LT PUSH2 0x422D JUMPI PUSH2 0x422D PUSH2 0x5B51 JUMP JUMPDEST PUSH1 0x20 MUL PUSH1 0x20 ADD ADD MLOAD PUSH1 0x20 ADD MLOAD PUSH1 0x1 PUSH1 0x1 PUSH1 0xA0 SHL SUB AND SUB PUSH2 0x424F JUMPI DUP1 SWAP2 POP PUSH2 0x4257 JUMP JUMPDEST PUSH1 0x1 ADD PUSH2 0x4207 JUMP JUMPDEST POP PUSH1 0x0 DUP2 PUSH8 0xFFFFFFFFFFFFFFFF DUP2 GT ISZERO PUSH2 0x4273 JUMPI PUSH2 0x4273 PUSH2 0x5431 JUMP JUMPDEST PUSH1 0x40 MLOAD SWAP1 DUP1 DUP3 MSTORE DUP1 PUSH1 0x20 MUL PUSH1 0x20 ADD DUP3 ADD PUSH1 0x40 MSTORE DUP1 ISZERO PUSH2 0x42B8 JUMPI DUP2 PUSH1 0x20 ADD JUMPDEST PUSH1 0x40 DUP1 MLOAD DUP1 DUP3 ADD SWAP1 SWAP2 MSTORE PUSH1 0x0 DUP1 DUP3 MSTORE PUSH1 0x20 DUP3 ADD MSTORE DUP2 MSTORE PUSH1 0x20 ADD SWAP1 PUSH1 0x1 SWAP1 SUB SWAP1 DUP2 PUSH2 0x4291 JUMPI SWAP1 POP JUMPDEST POP SWAP1 POP PUSH1 0x0 JUMPDEST DUP3 DUP2 LT ISZERO PUSH2 0x4305 JUMPI DUP4 DUP2 DUP2 MLOAD DUP2 LT PUSH2 0x42D8 JUMPI PUSH2 0x42D8 PUSH2 0x5B51 JUMP JUMPDEST PUSH1 0x20 MUL PUSH1 0x20 ADD ADD MLOAD DUP3 DUP3 DUP2 MLOAD DUP2 LT PUSH2 0x42F2 JUMPI PUSH2 0x42F2 PUSH2 0x5B51 JUMP JUMPDEST PUSH1 0x20 SWAP1 DUP2 MUL SWAP2 SWAP1 SWAP2 ADD ADD MSTORE PUSH1 0x1 ADD PUSH2 0x42BE JUMP JUMPDEST POP SWAP8 SWAP7 POP POP POP POP POP POP POP JUMP JUMPDEST TIMESTAMP PUSH5 0xFFFFFFFFFF AND CALLER PUSH1 0x1 PUSH1 0x1 PUSH1 0xA0 SHL SUB AND PUSH32 0x34F43ABF7A52B609B04511ED963A29EBB76AE3E0CA0FF5594BE1C2A84EBD03F2 DUP4 PUSH1 0x0 ADD MLOAD DUP5 PUSH1 0x20 ADD MLOAD DUP6 PUSH1 0x40 ADD MLOAD DUP7 PUSH1 0x60 ADD MLOAD DUP8 PUSH1 0x80 ADD MLOAD DUP9 PUSH1 0xA0 ADD MLOAD PUSH1 0x40 MLOAD PUSH2 0x4374 SWAP7 SWAP6 SWAP5 SWAP4 SWAP3 SWAP2 SWAP1 PUSH2 0x5CEC JUMP JUMPDEST PUSH1 0x40 MLOAD DUP1 SWAP2 SUB SWAP1 LOG3 POP JUMP JUMPDEST PUSH1 0x8 DUP2 DUP2 SLOAD DUP2 LT PUSH2 0x438F JUMPI PUSH1 0x0 DUP1 REVERT JUMPDEST PUSH1 0x0 SWAP2 DUP3 MSTORE PUSH1 0x20 SWAP1 SWAP2 KECCAK256 ADD SLOAD PUSH1 0x1 PUSH1 0x1 PUSH1 0xA0 SHL SUB AND SWAP1 POP DUP2 JUMP JUMPDEST PUSH1 0x40 DUP1 MLOAD PUSH1 0x80 DUP2 ADD DUP3 MSTORE PUSH1 0x0 DUP1 DUP3 MSTORE PUSH1 0x20 DUP3 ADD MSTORE PUSH1 0x60 SWAP2 DUP2 ADD DUP3 SWAP1 MSTORE DUP2 DUP2 ADD SWAP2 SWAP1 SWAP2 MSTORE PUSH1 0x1 PUSH1 0x1 PUSH1 0xA0 SHL SUB DUP3 DUP2 AND PUSH1 0x0 SWAP1 DUP2 MSTORE PUSH1 0x7 PUSH1 0x20 SWAP1 DUP2 MSTORE PUSH1 0x40 DUP1 DUP4 KECCAK256 DUP2 MLOAD PUSH1 0x80 DUP2 ADD DUP4 MSTORE DUP2 SLOAD SWAP6 DUP7 AND DUP2 MSTORE PUSH1 0x1 PUSH1 0xA0 SHL SWAP1 SWAP6 DIV PUSH1 0xFF AND ISZERO ISZERO DUP6 DUP5 ADD MSTORE PUSH1 0x1 DUP2 ADD DUP1 SLOAD DUP4 MLOAD DUP2 DUP7 MUL DUP2 ADD DUP7 ADD DUP6 MSTORE DUP2 DUP2 MSTORE SWAP3 SWAP6 SWAP4 DUP8 ADD SWAP5 SWAP3 SWAP4 SWAP2 SWAP3 SWAP1 SWAP2 SWAP1 DUP5 ADD JUMPDEST DUP3 DUP3 LT ISZERO PUSH2 0x44E2 JUMPI PUSH1 0x0 DUP5 DUP2 MSTORE PUSH1 0x20 SWAP1 DUP2 SWAP1 KECCAK256 PUSH1 0x40 DUP1 MLOAD PUSH1 0x80 DUP2 ADD DUP3 MSTORE PUSH1 0x2 DUP7 MUL SWAP1 SWAP3 ADD DUP1 SLOAD DUP4 MSTORE PUSH1 0x1 DUP2 ADD SLOAD PUSH2 0xFFFF DUP2 AND SWAP5 DUP5 ADD SWAP5 SWAP1 SWAP5 MSTORE SWAP2 SWAP3 SWAP1 DUP4 ADD SWAP1 PUSH3 0x10000 SWAP1 DIV PUSH1 0xFF AND PUSH1 0x3 DUP2 GT ISZERO PUSH2 0x4485 JUMPI PUSH2 0x4485 PUSH2 0x5360 JUMP JUMPDEST PUSH1 0x3 DUP2 GT ISZERO PUSH2 0x4496 JUMPI PUSH2 0x4496 PUSH2 0x5360 JUMP JUMPDEST DUP2 MSTORE PUSH1 0x20 ADD PUSH1 0x1 DUP3 ADD PUSH1 0x3 SWAP1 SLOAD SWAP1 PUSH2 0x100 EXP SWAP1 DIV PUSH1 0xFF AND PUSH1 0x2 DUP2 GT ISZERO PUSH2 0x44BE JUMPI PUSH2 0x44BE PUSH2 0x5360 JUMP JUMPDEST PUSH1 0x2 DUP2 GT ISZERO PUSH2 0x44CF JUMPI PUSH2 0x44CF PUSH2 0x5360 JUMP JUMPDEST DUP2 MSTORE POP POP DUP2 MSTORE PUSH1 0x20 ADD SWAP1 PUSH1 0x1 ADD SWAP1 PUSH2 0x442C JUMP JUMPDEST POP POP POP POP DUP2 MSTORE PUSH1 0x20 ADD PUSH1 0x2 DUP3 ADD DUP1 SLOAD DUP1 PUSH1 0x20 MUL PUSH1 0x20 ADD PUSH1 0x40 MLOAD SWAP1 DUP2 ADD PUSH1 0x40 MSTORE DUP1 SWAP3 SWAP2 SWAP1 DUP2 DUP2 MSTORE PUSH1 0x20 ADD PUSH1 0x0 SWAP1 JUMPDEST DUP3 DUP3 LT ISZERO PUSH2 0x45C5 JUMPI PUSH1 0x0 DUP5 DUP2 MSTORE PUSH1 0x20 SWAP1 DUP2 SWAP1 KECCAK256 PUSH1 0x40 DUP1 MLOAD PUSH1 0x80 DUP2 ADD DUP3 MSTORE PUSH1 0x2 DUP7 MUL SWAP1 SWAP3 ADD DUP1 SLOAD DUP4 MSTORE PUSH1 0x1 DUP2 ADD SLOAD PUSH2 0xFFFF DUP2 AND SWAP5 DUP5 ADD SWAP5 SWAP1 SWAP5 MSTORE SWAP2 SWAP3 SWAP1 DUP4 ADD SWAP1 PUSH3 0x10000 SWAP1 DIV PUSH1 0xFF AND PUSH1 0x3 DUP2 GT ISZERO PUSH2 0x4568 JUMPI PUSH2 0x4568 PUSH2 0x5360 JUMP JUMPDEST PUSH1 0x3 DUP2 GT ISZERO PUSH2 0x4579 JUMPI PUSH2 0x4579 PUSH2 0x5360 JUMP JUMPDEST DUP2 MSTORE PUSH1 0x20 ADD PUSH1 0x1 DUP3 ADD PUSH1 0x3 SWAP1 SLOAD SWAP1 PUSH2 0x100 EXP SWAP1 DIV PUSH1 0xFF AND PUSH1 0x2 DUP2 GT ISZERO PUSH2 0x45A1 JUMPI PUSH2 0x45A1 PUSH2 0x5360 JUMP JUMPDEST PUSH1 0x2 DUP2 GT ISZERO PUSH2 0x45B2 JUMPI PUSH2 0x45B2 PUSH2 0x5360 JUMP JUMPDEST DUP2 MSTORE POP POP DUP2 MSTORE PUSH1 0x20 ADD SWAP1 PUSH1 0x1 ADD SWAP1 PUSH2 0x450F JUMP JUMPDEST POP POP POP SWAP2 MSTORE POP SWAP1 SWAP4 SWAP3 POP POP POP JUMP JUMPDEST PUSH1 0x6 SLOAD PUSH7 0x1000000000000 SWAP1 DIV PUSH1 0x1 PUSH1 0x1 PUSH1 0xA0 SHL SUB AND CALLER EQ PUSH2 0x3DB6 JUMPI PUSH1 0x40 MLOAD PUSH3 0x461BCD PUSH1 0xE5 SHL DUP2 MSTORE PUSH1 0x20 PUSH1 0x4 DUP3 ADD MSTORE PUSH1 0x2 PUSH1 0x24 DUP3 ADD MSTORE PUSH2 0x189B PUSH1 0xF1 SHL PUSH1 0x44 DUP3 ADD MSTORE PUSH1 0x64 ADD PUSH2 0x657 JUMP JUMPDEST PUSH1 0x1 PUSH1 0x1 PUSH1 0xA0 SHL SUB DUP2 AND PUSH1 0x0 SWAP1 DUP2 MSTORE PUSH1 0x5 PUSH1 0x20 MSTORE PUSH1 0x40 DUP2 KECCAK256 PUSH1 0x2 ADD SLOAD PUSH2 0x100 SWAP1 DIV PUSH1 0xFF AND PUSH2 0x464B JUMPI PUSH1 0x0 PUSH2 0x2DC8 JUMP JUMPDEST PUSH1 0x1 SWAP3 SWAP2 POP POP JUMP JUMPDEST CALLER PUSH2 0x3DB6 JUMPI PUSH1 0x40 MLOAD PUSH3 0x461BCD PUSH1 0xE5 SHL DUP2 MSTORE PUSH1 0x20 PUSH1 0x4 DUP3 ADD MSTORE PUSH1 0x1 PUSH1 0x24 DUP3 ADD MSTORE PUSH1 0x33 PUSH1 0xF8 SHL PUSH1 0x44 DUP3 ADD MSTORE PUSH1 0x64 ADD PUSH2 0x657 JUMP JUMPDEST PUSH1 0x40 DUP1 MLOAD PUSH2 0x100 DUP2 ADD DUP3 MSTORE PUSH1 0x0 DUP1 DUP3 MSTORE PUSH1 0x20 DUP3 ADD DUP2 SWAP1 MSTORE SWAP2 DUP2 ADD DUP3 SWAP1 MSTORE PUSH1 0x60 DUP2 ADD DUP3 SWAP1 MSTORE PUSH1 0x80 DUP2 ADD DUP3 SWAP1 MSTORE PUSH1 0xA0 DUP2 ADD DUP3 SWAP1 MSTORE PUSH1 0xC0 DUP2 ADD DUP3 SWAP1 MSTORE PUSH1 0xE0 DUP2 ADD SWAP2 SWAP1 SWAP2 MSTORE PUSH1 0x40 MLOAD PUSH12 0xFFFFFFFFFFFFFFFFFFFFFFFF NOT CALLER PUSH1 0x60 SHL AND PUSH1 0x20 DUP3 ADD MSTORE PREVRANDAO PUSH1 0x34 DUP3 ADD MSTORE TIMESTAMP PUSH1 0x54 DUP3 ADD MSTORE PUSH1 0x0 SWAP1 PUSH1 0x74 ADD PUSH1 0x40 DUP1 MLOAD PUSH1 0x1F NOT DUP2 DUP5 SUB ADD DUP2 MSTORE DUP3 DUP3 MSTORE DUP1 MLOAD PUSH1 0x20 SWAP2 DUP3 ADD KECCAK256 PUSH2 0x100 DUP5 ADD DUP4 MSTORE DUP1 DUP5 MSTORE SWAP1 DUP4 ADD DUP10 SWAP1 MSTORE CALLER SWAP2 DUP4 ADD SWAP2 SWAP1 SWAP2 MSTORE PUSH1 0x1 PUSH1 0x1 PUSH1 0xA0 SHL SUB DUP8 AND PUSH1 0x60 DUP4 ADD MSTORE PUSH1 0x1 PUSH1 0x80 DUP4 ADD MSTORE PUSH1 0x0 PUSH1 0xA0 DUP4 ADD MSTORE SWAP2 POP PUSH1 0xC0 DUP2 ADD DUP6 PUSH1 0x3 DUP2 GT ISZERO PUSH2 0x4757 JUMPI PUSH2 0x4757 PUSH2 0x5360 JUMP JUMPDEST DUP2 MSTORE PUSH1 0x20 ADD DUP5 PUSH2 0xFFFF AND DUP2 MSTORE POP SWAP2 POP POP SWAP5 SWAP4 POP POP POP POP JUMP JUMPDEST CALLER PUSH1 0x0 SWAP1 DUP2 MSTORE PUSH1 0x7 PUSH1 0x20 MSTORE PUSH1 0x40 DUP2 KECCAK256 SLOAD PUSH1 0x1 PUSH1 0xA0 SHL SWAP1 DIV PUSH1 0xFF AND ISZERO ISZERO SWAP1 SUB PUSH2 0x47FD JUMPI CALLER PUSH1 0x0 DUP2 DUP2 MSTORE PUSH1 0x7 PUSH1 0x20 MSTORE PUSH1 0x40 DUP2 KECCAK256 DUP1 SLOAD PUSH1 0x1 PUSH1 0x1 PUSH1 0xA0 SHL SUB NOT SWAP1 DUP2 AND DUP5 OR DUP3 SSTORE PUSH1 0x8 DUP1 SLOAD PUSH1 0x1 DUP2 ADD SWAP1 SWAP2 SSTORE PUSH32 0xF3F7A9FE364FAAB93B216DA50A3214154F22A0A2B415B23A84C8169E8B636EE3 ADD DUP1 SLOAD SWAP1 SWAP2 AND DUP5 OR SWAP1 SSTORE SWAP2 SWAP1 MSTORE DUP1 SLOAD PUSH1 0xFF PUSH1 0xA0 SHL NOT AND PUSH1 0x1 PUSH1 0xA0 SHL OR SWAP1 SSTORE JUMPDEST DUP1 ISZERO PUSH2 0x48AF JUMPI CALLER PUSH1 0x0 SWAP1 DUP2 MSTORE PUSH1 0x7 PUSH1 0x20 SWAP1 DUP2 MSTORE PUSH1 0x40 DUP1 DUP4 KECCAK256 PUSH1 0x2 SWAP1 DUP2 ADD DUP1 SLOAD PUSH1 0x1 DUP1 DUP3 ADD DUP4 SSTORE SWAP2 DUP7 MSTORE SWAP5 DUP5 SWAP1 KECCAK256 DUP8 MLOAD SWAP6 SWAP1 SWAP3 MUL SWAP1 SWAP2 ADD SWAP4 DUP5 SSTORE SWAP2 DUP6 ADD MLOAD SWAP2 DUP4 ADD DUP1 SLOAD PUSH2 0xFFFF NOT DUP2 AND PUSH2 0xFFFF SWAP1 SWAP5 AND SWAP4 DUP5 OR DUP3 SSTORE SWAP2 DUP7 ADD MLOAD DUP7 SWAP5 SWAP4 SWAP1 SWAP3 PUSH3 0xFFFFFF NOT AND OR PUSH3 0x10000 DUP4 PUSH1 0x3 DUP2 GT ISZERO PUSH2 0x4876 JUMPI PUSH2 0x4876 PUSH2 0x5360 JUMP JUMPDEST MUL OR SWAP1 SSTORE POP PUSH1 0x60 DUP3 ADD MLOAD PUSH1 0x1 DUP3 ADD DUP1 SLOAD PUSH4 0xFF000000 NOT AND PUSH4 0x1000000 DUP4 PUSH1 0x2 DUP2 GT ISZERO PUSH2 0x48A4 JUMPI PUSH2 0x48A4 PUSH2 0x5360 JUMP JUMPDEST MUL OR SWAP1 SSTORE POP POP POP POP POP JUMP JUMPDEST CALLER PUSH1 0x0 SWAP1 DUP2 MSTORE PUSH1 0x7 PUSH1 0x20 SWAP1 DUP2 MSTORE PUSH1 0x40 DUP1 DUP4 KECCAK256 PUSH1 0x1 SWAP1 DUP2 ADD DUP1 SLOAD DUP1 DUP4 ADD DUP3 SSTORE SWAP1 DUP6 MSTORE SWAP4 DUP4 SWAP1 KECCAK256 DUP7 MLOAD PUSH1 0x2 SWAP1 SWAP6 MUL ADD SWAP4 DUP5 SSTORE SWAP2 DUP6 ADD MLOAD SWAP2 DUP4 ADD DUP1 SLOAD PUSH2 0xFFFF NOT DUP2 AND PUSH2 0xFFFF SWAP1 SWAP5 AND SWAP4 DUP5 OR DUP3 SSTORE SWAP2 DUP7 ADD MLOAD DUP7 SWAP5 SWAP4 SWAP1 SWAP3 PUSH3 0xFFFFFF NOT AND OR PUSH3 0x10000 DUP4 PUSH1 0x3 DUP2 GT ISZERO PUSH2 0x4876 JUMPI PUSH2 0x4876 PUSH2 0x5360 JUMP JUMPDEST PUSH1 0x0 DUP1 PUSH1 0x40 MLOAD DUP1 PUSH1 0x80 ADD PUSH1 0x40 MSTORE DUP1 DUP8 DUP2 MSTORE PUSH1 0x20 ADD DUP7 PUSH2 0xFFFF AND DUP2 MSTORE PUSH1 0x20 ADD DUP6 PUSH1 0x3 DUP2 GT ISZERO PUSH2 0x494F JUMPI PUSH2 0x494F PUSH2 0x5360 JUMP JUMPDEST DUP2 MSTORE PUSH1 0x20 ADD DUP5 PUSH1 0x2 DUP2 GT ISZERO PUSH2 0x4966 JUMPI PUSH2 0x4966 PUSH2 0x5360 JUMP JUMPDEST DUP2 MSTORE POP SWAP1 POP PUSH1 0x0 PUSH2 0x4984 DUP3 PUSH1 0x0 ADD MLOAD DUP4 PUSH1 0x40 ADD MLOAD DUP5 PUSH1 0x20 ADD MLOAD PUSH2 0xB7E JUMP JUMPDEST SWAP1 POP DUP1 PUSH1 0x80 ADD MLOAD ISZERO PUSH2 0x499B JUMPI PUSH1 0x1 SWAP3 POP POP POP PUSH2 0x49A2 JUMP JUMPDEST PUSH1 0x0 SWAP3 POP POP POP JUMPDEST SWAP5 SWAP4 POP POP POP POP JUMP JUMPDEST PUSH1 0x0 PUSH1 0x12 PUSH1 0xFF DUP4 AND DUP2 LT ISZERO PUSH2 0x49E0 JUMPI PUSH2 0x49C3 DUP2 DUP5 PUSH2 0x5D6E JUMP JUMPDEST PUSH2 0x49CE SWAP1 PUSH1 0xA PUSH2 0x5E6E JUMP JUMPDEST PUSH2 0x49D8 SWAP1 DUP6 PUSH2 0x5C26 JUMP JUMPDEST SWAP2 POP POP PUSH2 0x2DC8 JUMP JUMPDEST DUP1 PUSH1 0xFF AND DUP4 PUSH1 0xFF AND LT ISZERO PUSH2 0x4A0D JUMPI PUSH2 0x49F8 DUP4 DUP3 PUSH2 0x5D6E JUMP JUMPDEST PUSH2 0x4A03 SWAP1 PUSH1 0xA PUSH2 0x5E6E JUMP JUMPDEST PUSH2 0x49D8 SWAP1 DUP6 PUSH2 0x5BE2 JUMP JUMPDEST DUP4 SWAP2 POP POP PUSH2 0x2DC8 JUMP JUMPDEST POP SWAP3 SWAP2 POP POP JUMP JUMPDEST PUSH1 0x0 DUP1 PUSH2 0x4A29 DUP7 PUSH2 0x4DBB JUMP JUMPDEST SWAP1 POP PUSH1 0x0 DUP1 PUSH1 0x0 DUP6 PUSH1 0xFF AND PUSH1 0x0 SUB PUSH2 0x4A4F JUMPI DUP4 PUSH1 0x20 ADD MLOAD PUSH2 0xFFFF AND SWAP3 POP PUSH1 0x7 SWAP2 POP PUSH2 0x4AD6 JUMP JUMPDEST DUP6 PUSH1 0xFF AND PUSH1 0x1 SUB PUSH2 0x4A86 JUMPI PUSH2 0x4A74 DUP5 PUSH1 0x80 ADD MLOAD PUSH2 0xFFFF AND DUP6 PUSH1 0xA0 ADD MLOAD PUSH2 0xFFFF AND PUSH2 0x5052 JUMP JUMPDEST DUP5 MLOAD PUSH2 0xFFFF AND SWAP4 POP SWAP2 POP DUP2 SWAP1 POP PUSH2 0x4AD6 JUMP JUMPDEST DUP6 PUSH1 0xFF AND PUSH1 0x2 SUB PUSH2 0x4ABA JUMPI PUSH2 0x4AAB DUP5 PUSH1 0x60 ADD MLOAD PUSH2 0xFFFF AND DUP6 PUSH1 0x80 ADD MLOAD PUSH2 0xFFFF AND PUSH2 0x50D8 JUMP JUMPDEST PUSH2 0xFFFF AND SWAP3 POP PUSH1 0x5A SWAP2 POP PUSH2 0x4AD6 JUMP JUMPDEST DUP6 PUSH1 0xFF AND PUSH1 0x3 SUB PUSH2 0x4AD6 JUMPI DUP4 PUSH1 0x60 ADD MLOAD PUSH2 0xFFFF AND SWAP3 POP PUSH2 0x16D SWAP2 POP JUMPDEST DUP6 PUSH1 0xFF AND PUSH1 0x1 SUB PUSH2 0x4B91 JUMPI PUSH1 0x0 PUSH2 0x16D PUSH2 0x4AF1 DUP10 PUSH1 0xC PUSH2 0x5C26 JUMP JUMPDEST PUSH2 0x4AFB SWAP2 SWAP1 PUSH2 0x5BE2 JUMP JUMPDEST SWAP1 POP DUP4 DUP10 PUSH5 0xFFFFFFFFFF AND EQ ISZERO DUP1 ISZERO PUSH2 0x4B1A JUMPI POP DUP9 PUSH5 0xFFFFFFFFFF AND DUP5 GT JUMPDEST ISZERO PUSH2 0x4B4B JUMPI PUSH2 0x4B30 PUSH5 0xFFFFFFFFFF DUP11 AND DUP6 PUSH2 0x5C5D JUMP JUMPDEST PUSH2 0x4B3A SWAP1 DUP5 PUSH2 0x5C5D JUMP JUMPDEST PUSH2 0x4B44 SWAP1 DUP3 PUSH2 0x5C26 JUMP JUMPDEST SWAP8 POP PUSH2 0x4B8B JUMP JUMPDEST DUP4 DUP10 PUSH5 0xFFFFFFFFFF AND EQ ISZERO DUP1 ISZERO PUSH2 0x4B68 JUMPI POP DUP9 PUSH5 0xFFFFFFFFFF AND DUP5 LT JUMPDEST ISZERO PUSH2 0x4B8B JUMPI PUSH2 0x4B7E DUP5 PUSH5 0xFFFFFFFFFF DUP12 AND PUSH2 0x5C5D JUMP JUMPDEST PUSH2 0x4B88 SWAP1 DUP3 PUSH2 0x5C26 JUMP JUMPDEST SWAP8 POP JUMPDEST POP PUSH2 0x4C59 JUMP JUMPDEST PUSH1 0xFF DUP7 AND ISZERO DUP1 PUSH2 0x4BA4 JUMPI POP DUP6 PUSH1 0xFF AND PUSH1 0x2 EQ JUMPDEST DUP1 PUSH2 0x4BB2 JUMPI POP DUP6 PUSH1 0xFF AND PUSH1 0x3 EQ JUMPDEST ISZERO PUSH2 0x4C59 JUMPI DUP3 DUP9 PUSH5 0xFFFFFFFFFF AND EQ ISZERO DUP1 ISZERO PUSH2 0x4BD4 JUMPI POP DUP8 PUSH5 0xFFFFFFFFFF AND DUP4 GT JUMPDEST ISZERO PUSH2 0x4C0F JUMPI PUSH2 0x4BEA PUSH5 0xFFFFFFFFFF DUP10 AND DUP5 PUSH2 0x5C5D JUMP JUMPDEST PUSH2 0x4BF4 SWAP1 DUP4 PUSH2 0x5C5D JUMP JUMPDEST PUSH2 0x4BFE DUP4 DUP10 PUSH2 0x5BE2 JUMP JUMPDEST PUSH2 0x4C08 SWAP2 SWAP1 PUSH2 0x5C26 JUMP JUMPDEST SWAP7 POP PUSH2 0x4C59 JUMP JUMPDEST DUP3 DUP9 PUSH5 0xFFFFFFFFFF AND EQ ISZERO DUP1 ISZERO PUSH2 0x4C2C JUMPI POP DUP8 PUSH5 0xFFFFFFFFFF AND DUP4 LT JUMPDEST ISZERO PUSH2 0x4C59 JUMPI PUSH2 0x4C42 DUP4 PUSH5 0xFFFFFFFFFF DUP11 AND PUSH2 0x5C5D JUMP JUMPDEST PUSH2 0x4C4C DUP4 DUP10 PUSH2 0x5BE2 JUMP JUMPDEST PUSH2 0x4C56 SWAP2 SWAP1 PUSH2 0x5C26 JUMP JUMPDEST SWAP7 POP JUMPDEST POP SWAP5 SWAP8 SWAP7 POP POP POP POP POP POP POP JUMP JUMPDEST PUSH1 0x0 DUP3 DUP2 MSTORE PUSH1 0xB PUSH1 0x20 MSTORE PUSH1 0x40 DUP2 KECCAK256 DUP1 SLOAD SWAP1 SWAP2 SWAP1 DUP2 JUMPDEST DUP2 DUP2 LT ISZERO PUSH2 0x4CF4 JUMPI DUP5 PUSH1 0x1 PUSH1 0x1 PUSH1 0xA0 SHL SUB AND DUP5 DUP3 DUP2 SLOAD DUP2 LT PUSH2 0x4C9F JUMPI PUSH2 0x4C9F PUSH2 0x5B51 JUMP JUMPDEST PUSH1 0x0 SWAP2 DUP3 MSTORE PUSH1 0x20 SWAP1 SWAP2 KECCAK256 ADD SLOAD PUSH1 0x1 PUSH1 0x1 PUSH1 0xA0 SHL SUB AND SUB PUSH2 0x4CEC JUMPI DUP1 SWAP3 POP DUP4 DUP2 DUP2 SLOAD DUP2 LT PUSH2 0x4CCE JUMPI PUSH2 0x4CCE PUSH2 0x5B51 JUMP JUMPDEST PUSH1 0x0 SWAP2 DUP3 MSTORE PUSH1 0x20 SWAP1 SWAP2 KECCAK256 ADD DUP1 SLOAD PUSH1 0x1 PUSH1 0x1 PUSH1 0xA0 SHL SUB NOT AND SWAP1 SSTORE PUSH2 0x4CF4 JUMP JUMPDEST PUSH1 0x1 ADD PUSH2 0x4C7B JUMP JUMPDEST POP DUP3 SLOAD DUP4 SWAP1 PUSH2 0x4D05 SWAP1 PUSH1 0x1 SWAP1 PUSH2 0x5C5D JUMP JUMPDEST DUP2 SLOAD DUP2 LT PUSH2 0x4D15 JUMPI PUSH2 0x4D15 PUSH2 0x5B51 JUMP JUMPDEST SWAP1 PUSH1 0x0 MSTORE PUSH1 0x20 PUSH1 0x0 KECCAK256 ADD PUSH1 0x0 SWAP1 SLOAD SWAP1 PUSH2 0x100 EXP SWAP1 DIV PUSH1 0x1 PUSH1 0x1 PUSH1 0xA0 SHL SUB AND DUP4 DUP4 DUP2 SLOAD DUP2 LT PUSH2 0x4D45 JUMPI PUSH2 0x4D45 PUSH2 0x5B51 JUMP JUMPDEST SWAP1 PUSH1 0x0 MSTORE PUSH1 0x20 PUSH1 0x0 KECCAK256 ADD PUSH1 0x0 PUSH2 0x100 EXP DUP2 SLOAD DUP2 PUSH1 0x1 PUSH1 0x1 PUSH1 0xA0 SHL SUB MUL NOT AND SWAP1 DUP4 PUSH1 0x1 PUSH1 0x1 PUSH1 0xA0 SHL SUB AND MUL OR SWAP1 SSTORE POP DUP3 DUP1 SLOAD DUP1 PUSH2 0x4D83 JUMPI PUSH2 0x4D83 PUSH2 0x5E7D JUMP JUMPDEST PUSH1 0x0 DUP3 DUP2 MSTORE PUSH1 0x20 SWAP1 KECCAK256 DUP2 ADD PUSH1 0x0 NOT SWAP1 DUP2 ADD DUP1 SLOAD PUSH1 0x1 PUSH1 0x1 PUSH1 0xA0 SHL SUB NOT AND SWAP1 SSTORE ADD SWAP1 SSTORE POP POP POP POP POP JUMP JUMPDEST PUSH1 0x0 PUSH2 0x2DC8 PUSH3 0x15180 DUP4 PUSH2 0x5E93 JUMP JUMPDEST PUSH1 0x40 DUP1 MLOAD PUSH1 0xC0 DUP2 ADD DUP3 MSTORE PUSH1 0x0 DUP1 DUP3 MSTORE PUSH1 0x20 DUP3 ADD DUP2 SWAP1 MSTORE SWAP2 DUP2 ADD DUP3 SWAP1 MSTORE PUSH1 0x60 DUP2 ADD DUP3 SWAP1 MSTORE PUSH1 0x80 DUP2 ADD DUP3 SWAP1 MSTORE PUSH1 0xA0 DUP2 ADD DUP3 SWAP1 MSTORE SWAP1 PUSH2 0x4DFA PUSH3 0x15180 DUP5 PUSH2 0x5BE2 JUMP JUMPDEST SWAP1 POP PUSH1 0x0 DUP1 DUP3 DUP2 PUSH2 0x4E0E DUP3 PUSH3 0x10BD9 PUSH2 0x5EBD JUMP JUMPDEST PUSH2 0x4E1B SWAP1 PUSH3 0x253D8C PUSH2 0x5EBD JUMP JUMPDEST SWAP1 POP PUSH1 0x0 PUSH3 0x23AB1 PUSH2 0x4E2E DUP4 PUSH1 0x4 PUSH2 0x5EE5 JUMP JUMPDEST PUSH2 0x4E38 SWAP2 SWAP1 PUSH2 0x5F15 JUMP JUMPDEST SWAP1 POP PUSH1 0x4 PUSH2 0x4E49 DUP3 PUSH3 0x23AB1 PUSH2 0x5EE5 JUMP JUMPDEST PUSH2 0x4E54 SWAP1 PUSH1 0x3 PUSH2 0x5EBD JUMP JUMPDEST PUSH2 0x4E5E SWAP2 SWAP1 PUSH2 0x5F15 JUMP JUMPDEST PUSH2 0x4E68 SWAP1 DUP4 PUSH2 0x5F43 JUMP JUMPDEST SWAP2 POP PUSH1 0x0 PUSH3 0x164B09 PUSH2 0x4E7B DUP5 PUSH1 0x1 PUSH2 0x5EBD JUMP JUMPDEST PUSH2 0x4E87 SWAP1 PUSH2 0xFA0 PUSH2 0x5EE5 JUMP JUMPDEST PUSH2 0x4E91 SWAP2 SWAP1 PUSH2 0x5F15 JUMP JUMPDEST SWAP1 POP PUSH1 0x4 PUSH2 0x4EA1 DUP3 PUSH2 0x5B5 PUSH2 0x5EE5 JUMP JUMPDEST PUSH2 0x4EAB SWAP2 SWAP1 PUSH2 0x5F15 JUMP JUMPDEST PUSH2 0x4EB5 SWAP1 DUP5 PUSH2 0x5F43 JUMP JUMPDEST PUSH2 0x4EC0 SWAP1 PUSH1 0x1F PUSH2 0x5EBD JUMP JUMPDEST SWAP3 POP PUSH1 0x0 PUSH2 0x98F PUSH2 0x4ED2 DUP6 PUSH1 0x50 PUSH2 0x5EE5 JUMP JUMPDEST PUSH2 0x4EDC SWAP2 SWAP1 PUSH2 0x5F15 JUMP JUMPDEST SWAP1 POP PUSH1 0x0 PUSH1 0x50 PUSH2 0x4EEE DUP4 PUSH2 0x98F PUSH2 0x5EE5 JUMP JUMPDEST PUSH2 0x4EF8 SWAP2 SWAP1 PUSH2 0x5F15 JUMP JUMPDEST PUSH2 0x4F02 SWAP1 DUP7 PUSH2 0x5F43 JUMP JUMPDEST SWAP1 POP PUSH2 0x4F0F PUSH1 0xB DUP4 PUSH2 0x5F15 JUMP JUMPDEST SWAP5 POP PUSH2 0x4F1C DUP6 PUSH1 0xC PUSH2 0x5EE5 JUMP JUMPDEST PUSH2 0x4F27 DUP4 PUSH1 0x2 PUSH2 0x5EBD JUMP JUMPDEST PUSH2 0x4F31 SWAP2 SWAP1 PUSH2 0x5F43 JUMP JUMPDEST SWAP2 POP DUP5 DUP4 PUSH2 0x4F40 PUSH1 0x31 DUP8 PUSH2 0x5F43 JUMP JUMPDEST PUSH2 0x4F4B SWAP1 PUSH1 0x64 PUSH2 0x5EE5 JUMP JUMPDEST PUSH2 0x4F55 SWAP2 SWAP1 PUSH2 0x5EBD JUMP JUMPDEST PUSH2 0x4F5F SWAP2 SWAP1 PUSH2 0x5EBD JUMP JUMPDEST SWAP1 SWAP8 POP SWAP2 POP DUP7 DUP3 DUP3 DUP3 PUSH1 0x0 PUSH1 0x1 JUMPDEST DUP4 DUP2 GT PUSH2 0x4FB9 JUMPI DUP4 DUP2 SUB PUSH2 0x4F90 JUMPI PUSH2 0x4F89 PUSH2 0xFFFF DUP15 AND DUP4 PUSH2 0x5BF6 JUMP JUMPDEST SWAP2 POP PUSH2 0x4FA7 JUMP JUMPDEST PUSH2 0x4F9A DUP6 DUP6 PUSH2 0x5052 JUMP JUMPDEST PUSH2 0x4FA4 SWAP1 DUP4 PUSH2 0x5BF6 JUMP JUMPDEST SWAP2 POP JUMPDEST DUP1 PUSH2 0x4FB1 DUP2 PUSH2 0x5C70 JUMP JUMPDEST SWAP2 POP POP PUSH2 0x4F6D JUMP JUMPDEST POP DUP1 SWAP11 POP PUSH2 0x4FCB DUP12 PUSH2 0xFFFF AND DUP6 PUSH2 0x50D8 JUMP JUMPDEST PUSH2 0xFFFF AND PUSH1 0x40 DUP16 ADD MSTORE PUSH2 0x4FDD DUP16 PUSH2 0x519C JUMP JUMPDEST DUP15 PUSH1 0x20 ADD SWAP1 PUSH2 0xFFFF AND SWAP1 DUP2 PUSH2 0xFFFF AND DUP2 MSTORE POP POP DUP12 DUP15 PUSH1 0x0 ADD SWAP1 PUSH2 0xFFFF AND SWAP1 DUP2 PUSH2 0xFFFF AND DUP2 MSTORE POP POP DUP11 DUP15 PUSH1 0x60 ADD SWAP1 PUSH2 0xFFFF AND SWAP1 DUP2 PUSH2 0xFFFF AND DUP2 MSTORE POP POP DUP4 DUP15 PUSH1 0x80 ADD SWAP1 PUSH2 0xFFFF AND SWAP1 DUP2 PUSH2 0xFFFF AND DUP2 MSTORE POP POP DUP3 DUP15 PUSH1 0xA0 ADD SWAP1 PUSH2 0xFFFF AND SWAP1 DUP2 PUSH2 0xFFFF AND DUP2 MSTORE POP POP POP POP POP POP POP POP POP POP POP POP POP POP POP SWAP2 SWAP1 POP JUMP JUMPDEST PUSH1 0x0 DUP2 PUSH1 0x1 EQ DUP1 PUSH2 0x5063 JUMPI POP DUP2 PUSH1 0x3 EQ JUMPDEST DUP1 PUSH2 0x506E JUMPI POP DUP2 PUSH1 0x5 EQ JUMPDEST DUP1 PUSH2 0x5079 JUMPI POP DUP2 PUSH1 0x7 EQ JUMPDEST DUP1 PUSH2 0x5084 JUMPI POP DUP2 PUSH1 0x8 EQ JUMPDEST DUP1 PUSH2 0x508F JUMPI POP DUP2 PUSH1 0xA EQ JUMPDEST DUP1 PUSH2 0x509A JUMPI POP DUP2 PUSH1 0xC EQ JUMPDEST ISZERO PUSH2 0x50A7 JUMPI POP PUSH1 0x1F PUSH2 0x2DC8 JUMP JUMPDEST DUP2 PUSH1 0x2 EQ PUSH2 0x50B7 JUMPI POP PUSH1 0x1E PUSH2 0x2DC8 JUMP JUMPDEST PUSH2 0x50C0 DUP4 PUSH2 0x51D2 JUMP JUMPDEST PUSH2 0x50CB JUMPI PUSH1 0x1C PUSH2 0x50CE JUMP JUMPDEST PUSH1 0x1D JUMPDEST PUSH1 0xFF AND SWAP4 SWAP3 POP POP POP JUMP JUMPDEST PUSH1 0x0 DUP1 PUSH2 0x50E4 DUP4 PUSH2 0x51D2 JUMP JUMPDEST ISZERO PUSH2 0x50F1 JUMPI POP PUSH1 0x1 PUSH2 0x50F5 JUMP JUMPDEST POP PUSH1 0x0 JUMPDEST PUSH2 0x5100 DUP2 PUSH1 0x5A PUSH2 0x5BF6 JUMP JUMPDEST DUP5 GT PUSH2 0x510E JUMPI DUP4 SWAP2 POP PUSH2 0x4A16 JUMP JUMPDEST DUP4 PUSH2 0x511A DUP3 PUSH1 0x5A PUSH2 0x5BF6 JUMP JUMPDEST LT DUP1 ISZERO PUSH2 0x5131 JUMPI POP PUSH2 0x512D DUP2 PUSH1 0xB5 PUSH2 0x5BF6 JUMP JUMPDEST DUP5 GT ISZERO JUMPDEST ISZERO PUSH2 0x5152 JUMPI PUSH2 0x5141 DUP2 PUSH1 0x5A PUSH2 0x5BF6 JUMP JUMPDEST PUSH2 0x514B SWAP1 DUP6 PUSH2 0x5C5D JUMP JUMPDEST SWAP2 POP PUSH2 0x4A16 JUMP JUMPDEST DUP4 PUSH2 0x515E DUP3 PUSH1 0xB5 PUSH2 0x5BF6 JUMP JUMPDEST LT DUP1 ISZERO PUSH2 0x5176 JUMPI POP PUSH2 0x5172 DUP2 PUSH2 0x111 PUSH2 0x5BF6 JUMP JUMPDEST DUP5 GT ISZERO JUMPDEST ISZERO PUSH2 0x5186 JUMPI PUSH2 0x5141 DUP2 PUSH1 0xB5 PUSH2 0x5BF6 JUMP JUMPDEST PUSH2 0x5192 DUP2 PUSH2 0x111 PUSH2 0x5BF6 JUMP JUMPDEST PUSH2 0x49A2 SWAP1 DUP6 PUSH2 0x5C5D JUMP JUMPDEST PUSH1 0x0 DUP1 PUSH2 0x51AC PUSH3 0x15180 DUP5 PUSH2 0x5BE2 JUMP JUMPDEST SWAP1 POP PUSH1 0x0 PUSH1 0x7 PUSH2 0x51BD DUP4 PUSH1 0x3 PUSH2 0x5BF6 JUMP JUMPDEST PUSH2 0x51C7 SWAP2 SWAP1 PUSH2 0x5F63 JUMP JUMPDEST PUSH2 0x49A2 SWAP1 PUSH1 0x1 PUSH2 0x5BF6 JUMP JUMPDEST PUSH1 0x0 PUSH2 0x51DF PUSH1 0x4 DUP4 PUSH2 0x5F63 JUMP JUMPDEST ISZERO DUP1 ISZERO PUSH2 0x51F5 JUMPI POP PUSH2 0x51F2 PUSH1 0x64 DUP4 PUSH2 0x5F63 JUMP JUMPDEST ISZERO ISZERO JUMPDEST DUP1 PUSH2 0x2DC8 JUMPI POP PUSH2 0x5207 PUSH2 0x190 DUP4 PUSH2 0x5F63 JUMP JUMPDEST ISZERO SWAP3 SWAP2 POP POP JUMP JUMPDEST PUSH1 0x1 PUSH1 0x1 PUSH1 0xA0 SHL SUB DUP2 AND DUP2 EQ PUSH2 0x3DB4 JUMPI PUSH1 0x0 DUP1 REVERT JUMPDEST DUP1 CALLDATALOAD PUSH2 0x522E DUP2 PUSH2 0x520E JUMP JUMPDEST SWAP2 SWAP1 POP JUMP JUMPDEST PUSH1 0x0 PUSH1 0x20 DUP3 DUP5 SUB SLT ISZERO PUSH2 0x5245 JUMPI PUSH1 0x0 DUP1 REVERT JUMPDEST DUP2 CALLDATALOAD PUSH2 0x5250 DUP2 PUSH2 0x520E JUMP JUMPDEST SWAP4 SWAP3 POP POP POP JUMP JUMPDEST PUSH1 0x0 PUSH1 0x40 DUP3 DUP5 SUB SLT ISZERO PUSH2 0x5269 JUMPI PUSH1 0x0 DUP1 REVERT JUMPDEST POP SWAP2 SWAP1 POP JUMP JUMPDEST DUP1 CALLDATALOAD PUSH1 0x4 DUP2 LT PUSH2 0x522E JUMPI PUSH1 0x0 DUP1 REVERT JUMPDEST DUP1 CALLDATALOAD PUSH2 0xFFFF DUP2 AND DUP2 EQ PUSH2 0x522E JUMPI PUSH1 0x0 DUP1 REVERT JUMPDEST PUSH1 0x0 DUP1 PUSH1 0x0 DUP1 PUSH1 0x0 PUSH1 0xA0 DUP7 DUP9 SUB SLT ISZERO PUSH2 0x52A8 JUMPI PUSH1 0x0 DUP1 REVERT JUMPDEST DUP6 CALLDATALOAD SWAP5 POP PUSH1 0x20 DUP7 ADD CALLDATALOAD PUSH2 0x52BA DUP2 PUSH2 0x520E JUMP JUMPDEST SWAP4 POP PUSH1 0x40 DUP7 ADD CALLDATALOAD PUSH8 0xFFFFFFFFFFFFFFFF DUP2 GT ISZERO PUSH2 0x52D6 JUMPI PUSH1 0x0 DUP1 REVERT JUMPDEST PUSH2 0x52E2 DUP9 DUP3 DUP10 ADD PUSH2 0x5257 JUMP JUMPDEST SWAP4 POP POP PUSH2 0x52F1 PUSH1 0x60 DUP8 ADD PUSH2 0x526F JUMP JUMPDEST SWAP2 POP PUSH2 0x52FF PUSH1 0x80 DUP8 ADD PUSH2 0x527E JUMP JUMPDEST SWAP1 POP SWAP3 SWAP6 POP SWAP3 SWAP6 SWAP1 SWAP4 POP JUMP JUMPDEST PUSH1 0x0 PUSH1 0x20 DUP3 DUP5 SUB SLT ISZERO PUSH2 0x531D JUMPI PUSH1 0x0 DUP1 REVERT JUMPDEST POP CALLDATALOAD SWAP2 SWAP1 POP JUMP JUMPDEST PUSH1 0x0 DUP1 PUSH1 0x0 PUSH1 0x60 DUP5 DUP7 SUB SLT ISZERO PUSH2 0x5339 JUMPI PUSH1 0x0 DUP1 REVERT JUMPDEST DUP4 CALLDATALOAD SWAP3 POP PUSH2 0x5349 PUSH1 0x20 DUP6 ADD PUSH2 0x526F JUMP JUMPDEST SWAP2 POP PUSH2 0x5357 PUSH1 0x40 DUP6 ADD PUSH2 0x527E JUMP JUMPDEST SWAP1 POP SWAP3 POP SWAP3 POP SWAP3 JUMP JUMPDEST PUSH4 0x4E487B71 PUSH1 0xE0 SHL PUSH1 0x0 MSTORE PUSH1 0x21 PUSH1 0x4 MSTORE PUSH1 0x24 PUSH1 0x0 REVERT JUMPDEST PUSH1 0x4 DUP2 LT PUSH2 0x5386 JUMPI PUSH2 0x5386 PUSH2 0x5360 JUMP JUMPDEST SWAP1 MSTORE JUMP JUMPDEST DUP1 MLOAD DUP3 MSTORE PUSH1 0x20 DUP2 ADD MLOAD PUSH1 0x20 DUP4 ADD MSTORE PUSH1 0x1 PUSH1 0x1 PUSH1 0xA0 SHL SUB PUSH1 0x40 DUP3 ADD MLOAD AND PUSH1 0x40 DUP4 ADD MSTORE PUSH1 0x1 PUSH1 0x1 PUSH1 0xA0 SHL SUB PUSH1 0x60 DUP3 ADD MLOAD AND PUSH1 0x60 DUP4 ADD MSTORE PUSH1 0x80 DUP2 ADD MLOAD ISZERO ISZERO PUSH1 0x80 DUP4 ADD MSTORE PUSH1 0xA0 DUP2 ADD MLOAD PUSH2 0x53DD PUSH1 0xA0 DUP5 ADD DUP3 ISZERO ISZERO SWAP1 MSTORE JUMP JUMPDEST POP PUSH1 0xC0 DUP2 ADD MLOAD PUSH2 0x53F0 PUSH1 0xC0 DUP5 ADD DUP3 PUSH2 0x5376 JUMP JUMPDEST POP PUSH1 0xE0 DUP2 ADD MLOAD PUSH2 0x3E6A PUSH1 0xE0 DUP5 ADD DUP3 PUSH2 0xFFFF AND SWAP1 MSTORE JUMP JUMPDEST PUSH2 0x100 DUP2 ADD PUSH2 0x2DC8 DUP3 DUP5 PUSH2 0x538A JUMP JUMPDEST PUSH1 0x0 PUSH2 0x100 DUP3 DUP5 SUB SLT DUP1 ISZERO PUSH2 0x5429 JUMPI PUSH1 0x0 DUP1 REVERT JUMPDEST POP SWAP1 SWAP3 SWAP2 POP POP JUMP JUMPDEST PUSH4 0x4E487B71 PUSH1 0xE0 SHL PUSH1 0x0 MSTORE PUSH1 0x41 PUSH1 0x4 MSTORE PUSH1 0x24 PUSH1 0x0 REVERT JUMPDEST PUSH1 0x40 MLOAD PUSH2 0x100 DUP2 ADD PUSH8 0xFFFFFFFFFFFFFFFF DUP2 GT DUP3 DUP3 LT OR ISZERO PUSH2 0x546B JUMPI PUSH2 0x546B PUSH2 0x5431 JUMP JUMPDEST PUSH1 0x40 MSTORE SWAP1 JUMP JUMPDEST PUSH1 0x40 MLOAD PUSH1 0xC0 DUP2 ADD PUSH8 0xFFFFFFFFFFFFFFFF DUP2 GT DUP3 DUP3 LT OR ISZERO PUSH2 0x546B JUMPI PUSH2 0x546B PUSH2 0x5431 JUMP JUMPDEST DUP1 ISZERO ISZERO DUP2 EQ PUSH2 0x3DB4 JUMPI PUSH1 0x0 DUP1 REVERT JUMPDEST DUP1 CALLDATALOAD PUSH2 0x522E DUP2 PUSH2 0x5494 JUMP JUMPDEST PUSH1 0x0 PUSH2 0x100 DUP3 DUP5 SUB SLT ISZERO PUSH2 0x54C0 JUMPI PUSH1 0x0 DUP1 REVERT JUMPDEST PUSH2 0x54C8 PUSH2 0x5447 JUMP JUMPDEST DUP3 CALLDATALOAD DUP2 MSTORE PUSH1 0x20 DUP1 DUP5 ADD CALLDATALOAD SWAP1 DUP3 ADD MSTORE SWAP1 POP PUSH1 0x40 DUP3 ADD CALLDATALOAD PUSH2 0x54E6 DUP2 PUSH2 0x520E JUMP JUMPDEST PUSH1 0x40 DUP3 ADD MSTORE PUSH2 0x54F7 PUSH1 0x60 DUP4 ADD PUSH2 0x5223 JUMP JUMPDEST PUSH1 0x60 DUP3 ADD MSTORE PUSH2 0x5508 PUSH1 0x80 DUP4 ADD PUSH2 0x54A2 JUMP JUMPDEST PUSH1 0x80 DUP3 ADD MSTORE PUSH2 0x5519 PUSH1 0xA0 DUP4 ADD PUSH2 0x54A2 JUMP JUMPDEST PUSH1 0xA0 DUP3 ADD MSTORE PUSH2 0x552A PUSH1 0xC0 DUP4 ADD PUSH2 0x526F JUMP JUMPDEST PUSH1 0xC0 DUP3 ADD MSTORE PUSH2 0x553B PUSH1 0xE0 DUP4 ADD PUSH2 0x527E JUMP JUMPDEST PUSH1 0xE0 DUP3 ADD MSTORE SWAP3 SWAP2 POP POP JUMP JUMPDEST PUSH1 0x0 PUSH2 0x100 DUP3 DUP5 SUB SLT ISZERO PUSH2 0x5559 JUMPI PUSH1 0x0 DUP1 REVERT JUMPDEST PUSH2 0x5250 DUP4 DUP4 PUSH2 0x54AD JUMP JUMPDEST PUSH1 0x0 DUP1 PUSH1 0x0 PUSH1 0x60 DUP5 DUP7 SUB SLT ISZERO PUSH2 0x5578 JUMPI PUSH1 0x0 DUP1 REVERT JUMPDEST DUP4 CALLDATALOAD PUSH2 0x5583 DUP2 PUSH2 0x520E JUMP JUMPDEST SWAP3 POP PUSH1 0x20 DUP5 ADD CALLDATALOAD SWAP2 POP PUSH1 0x40 DUP5 ADD CALLDATALOAD PUSH1 0xFF DUP2 AND DUP2 EQ PUSH2 0x55A0 JUMPI PUSH1 0x0 DUP1 REVERT JUMPDEST DUP1 SWAP2 POP POP SWAP3 POP SWAP3 POP SWAP3 JUMP JUMPDEST PUSH1 0x20 DUP1 DUP3 MSTORE DUP3 MLOAD DUP3 DUP3 ADD DUP2 SWAP1 MSTORE PUSH1 0x0 SWAP2 DUP5 ADD SWAP1 PUSH1 0x40 DUP5 ADD SWAP1 DUP4 JUMPDEST DUP2 DUP2 LT ISZERO PUSH2 0x55F8 JUMPI DUP4 MLOAD DUP1 MLOAD PUSH1 0x1 PUSH1 0x1 PUSH1 0xA0 SHL SUB AND DUP5 MSTORE PUSH1 0x20 SWAP1 DUP2 ADD MLOAD DUP2 DUP6 ADD MSTORE SWAP1 SWAP4 ADD SWAP3 PUSH1 0x40 SWAP1 SWAP3 ADD SWAP2 PUSH1 0x1 ADD PUSH2 0x55C5 JUMP JUMPDEST POP SWAP1 SWAP6 SWAP5 POP POP POP POP POP JUMP JUMPDEST PUSH1 0x0 DUP1 PUSH1 0x40 DUP4 DUP6 SUB SLT ISZERO PUSH2 0x5616 JUMPI PUSH1 0x0 DUP1 REVERT JUMPDEST DUP3 CALLDATALOAD PUSH2 0x5621 DUP2 PUSH2 0x5494 JUMP JUMPDEST SWAP2 POP PUSH1 0x20 DUP4 ADD CALLDATALOAD PUSH2 0x5631 DUP2 PUSH2 0x520E JUMP JUMPDEST DUP1 SWAP2 POP POP SWAP3 POP SWAP3 SWAP1 POP JUMP JUMPDEST PUSH1 0x3 DUP2 LT PUSH2 0x5386 JUMPI PUSH2 0x5386 PUSH2 0x5360 JUMP JUMPDEST PUSH1 0x20 DUP1 DUP3 MSTORE DUP3 MLOAD DUP3 DUP3 ADD DUP2 SWAP1 MSTORE PUSH1 0x0 SWAP2 DUP5 ADD SWAP1 PUSH1 0x40 DUP5 ADD SWAP1 DUP4 JUMPDEST DUP2 DUP2 LT ISZERO PUSH2 0x55F8 JUMPI DUP4 MLOAD PUSH2 0x567B DUP5 DUP3 MLOAD PUSH2 0x538A JUMP JUMPDEST PUSH1 0x20 DUP2 ADD MLOAD PUSH2 0x568E PUSH2 0x100 DUP7 ADD DUP3 PUSH2 0x563C JUMP JUMPDEST POP PUSH1 0x40 ADD MLOAD PUSH2 0x120 DUP5 ADD MSTORE PUSH1 0x20 SWAP4 SWAP1 SWAP4 ADD SWAP3 PUSH2 0x140 SWAP1 SWAP3 ADD SWAP2 PUSH1 0x1 ADD PUSH2 0x5666 JUMP JUMPDEST PUSH1 0x0 DUP1 PUSH2 0x120 DUP4 DUP6 SUB SLT ISZERO PUSH2 0x56C3 JUMPI PUSH1 0x0 DUP1 REVERT JUMPDEST PUSH2 0x56CD DUP5 DUP5 PUSH2 0x54AD JUMP JUMPDEST SWAP2 POP PUSH2 0x100 DUP4 ADD CALLDATALOAD PUSH2 0x5631 DUP2 PUSH2 0x520E JUMP JUMPDEST PUSH1 0x0 PUSH1 0x20 DUP3 DUP5 SUB SLT ISZERO PUSH2 0x56F0 JUMPI PUSH1 0x0 DUP1 REVERT JUMPDEST DUP2 CALLDATALOAD PUSH2 0x5250 DUP2 PUSH2 0x5494 JUMP JUMPDEST PUSH1 0x0 DUP1 PUSH1 0x40 DUP4 DUP6 SUB SLT ISZERO PUSH2 0x570E JUMPI PUSH1 0x0 DUP1 REVERT JUMPDEST DUP3 CALLDATALOAD PUSH8 0xFFFFFFFFFFFFFFFF DUP2 GT ISZERO PUSH2 0x5725 JUMPI PUSH1 0x0 DUP1 REVERT JUMPDEST PUSH2 0x5731 DUP6 DUP3 DUP7 ADD PUSH2 0x5257 JUMP JUMPDEST SWAP6 PUSH1 0x20 SWAP5 SWAP1 SWAP5 ADD CALLDATALOAD SWAP5 POP POP POP POP JUMP JUMPDEST PUSH1 0x20 DUP1 DUP3 MSTORE DUP3 MLOAD DUP3 DUP3 ADD DUP2 SWAP1 MSTORE PUSH1 0x0 SWAP2 DUP5 ADD SWAP1 PUSH1 0x40 DUP5 ADD SWAP1 DUP4 JUMPDEST DUP2 DUP2 LT ISZERO PUSH2 0x55F8 JUMPI DUP4 MLOAD DUP1 MLOAD DUP5 MSTORE PUSH1 0x20 SWAP1 DUP2 ADD MLOAD PUSH1 0x1 PUSH1 0x1 PUSH1 0xA0 SHL SUB AND DUP2 DUP6 ADD MSTORE SWAP1 SWAP4 ADD SWAP3 PUSH1 0x40 SWAP1 SWAP3 ADD SWAP2 PUSH1 0x1 ADD PUSH2 0x575A JUMP JUMPDEST PUSH1 0x0 DUP1 PUSH1 0x40 DUP4 DUP6 SUB SLT ISZERO PUSH2 0x57A0 JUMPI PUSH1 0x0 DUP1 REVERT JUMPDEST DUP3 CALLDATALOAD SWAP2 POP PUSH1 0x20 DUP4 ADD CALLDATALOAD PUSH2 0x5631 DUP2 PUSH2 0x520E JUMP JUMPDEST PUSH1 0x0 DUP3 PUSH1 0x1F DUP4 ADD SLT PUSH2 0x57C3 JUMPI PUSH1 0x0 DUP1 REVERT JUMPDEST DUP2 CALLDATALOAD PUSH8 0xFFFFFFFFFFFFFFFF DUP2 GT ISZERO PUSH2 0x57DD JUMPI PUSH2 0x57DD PUSH2 0x5431 JUMP JUMPDEST PUSH1 0x40 MLOAD PUSH1 0x1F DUP3 ADD PUSH1 0x1F NOT SWAP1 DUP2 AND PUSH1 0x3F ADD AND DUP2 ADD PUSH8 0xFFFFFFFFFFFFFFFF DUP2 GT DUP3 DUP3 LT OR ISZERO PUSH2 0x580C JUMPI PUSH2 0x580C PUSH2 0x5431 JUMP JUMPDEST PUSH1 0x40 MSTORE DUP2 DUP2 MSTORE DUP4 DUP3 ADD PUSH1 0x20 ADD DUP6 LT ISZERO PUSH2 0x5824 JUMPI PUSH1 0x0 DUP1 REVERT JUMPDEST DUP2 PUSH1 0x20 DUP6 ADD PUSH1 0x20 DUP4 ADD CALLDATACOPY PUSH1 0x0 SWAP2 DUP2 ADD PUSH1 0x20 ADD SWAP2 SWAP1 SWAP2 MSTORE SWAP4 SWAP3 POP POP POP JUMP JUMPDEST PUSH1 0x0 PUSH1 0x20 DUP3 DUP5 SUB SLT ISZERO PUSH2 0x5853 JUMPI PUSH1 0x0 DUP1 REVERT JUMPDEST DUP2 CALLDATALOAD PUSH8 0xFFFFFFFFFFFFFFFF DUP2 GT ISZERO PUSH2 0x586A JUMPI PUSH1 0x0 DUP1 REVERT JUMPDEST DUP3 ADD PUSH1 0xC0 DUP2 DUP6 SUB SLT ISZERO PUSH2 0x587C JUMPI PUSH1 0x0 DUP1 REVERT JUMPDEST PUSH2 0x5884 PUSH2 0x5471 JUMP JUMPDEST DUP2 CALLDATALOAD PUSH8 0xFFFFFFFFFFFFFFFF DUP2 GT ISZERO PUSH2 0x589B JUMPI PUSH1 0x0 DUP1 REVERT JUMPDEST PUSH2 0x58A7 DUP7 DUP3 DUP6 ADD PUSH2 0x57B2 JUMP JUMPDEST DUP3 MSTORE POP PUSH1 0x20 DUP3 ADD CALLDATALOAD PUSH8 0xFFFFFFFFFFFFFFFF DUP2 GT ISZERO PUSH2 0x58C4 JUMPI PUSH1 0x0 DUP1 REVERT JUMPDEST PUSH2 0x58D0 DUP7 DUP3 DUP6 ADD PUSH2 0x57B2 JUMP JUMPDEST PUSH1 0x20 DUP4 ADD MSTORE POP PUSH1 0x40 DUP3 ADD CALLDATALOAD PUSH8 0xFFFFFFFFFFFFFFFF DUP2 GT ISZERO PUSH2 0x58F0 JUMPI PUSH1 0x0 DUP1 REVERT JUMPDEST PUSH2 0x58FC DUP7 DUP3 DUP6 ADD PUSH2 0x57B2 JUMP JUMPDEST PUSH1 0x40 DUP4 ADD MSTORE POP PUSH1 0x60 DUP3 ADD CALLDATALOAD PUSH8 0xFFFFFFFFFFFFFFFF DUP2 GT ISZERO PUSH2 0x591C JUMPI PUSH1 0x0 DUP1 REVERT JUMPDEST PUSH2 0x5928 DUP7 DUP3 DUP6 ADD PUSH2 0x57B2 JUMP JUMPDEST PUSH1 0x60 DUP4 ADD MSTORE POP PUSH1 0x80 DUP3 ADD CALLDATALOAD PUSH8 0xFFFFFFFFFFFFFFFF DUP2 GT ISZERO PUSH2 0x5948 JUMPI PUSH1 0x0 DUP1 REVERT JUMPDEST PUSH2 0x5954 DUP7 DUP3 DUP6 ADD PUSH2 0x57B2 JUMP JUMPDEST PUSH1 0x80 DUP4 ADD MSTORE POP PUSH1 0xA0 DUP3 ADD CALLDATALOAD PUSH8 0xFFFFFFFFFFFFFFFF DUP2 GT ISZERO PUSH2 0x5974 JUMPI PUSH1 0x0 DUP1 REVERT JUMPDEST PUSH2 0x5980 DUP7 DUP3 DUP6 ADD PUSH2 0x57B2 JUMP JUMPDEST PUSH1 0xA0 DUP4 ADD MSTORE POP SWAP5 SWAP4 POP POP POP POP JUMP JUMPDEST PUSH1 0x0 DUP2 MLOAD DUP1 DUP5 MSTORE PUSH1 0x20 DUP5 ADD SWAP4 POP PUSH1 0x20 DUP4 ADD PUSH1 0x0 JUMPDEST DUP3 DUP2 LT ISZERO PUSH2 0x59FC JUMPI DUP2 MLOAD DUP1 MLOAD DUP8 MSTORE PUSH2 0xFFFF PUSH1 0x20 DUP3 ADD MLOAD AND PUSH1 0x20 DUP9 ADD MSTORE PUSH1 0x40 DUP2 ADD MLOAD PUSH2 0x59D0 PUSH1 0x40 DUP10 ADD DUP3 PUSH2 0x5376 JUMP JUMPDEST POP PUSH1 0x60 DUP2 ADD MLOAD SWAP1 POP PUSH2 0x59E5 PUSH1 0x60 DUP9 ADD DUP3 PUSH2 0x563C JUMP JUMPDEST POP PUSH1 0x80 SWAP6 SWAP1 SWAP6 ADD SWAP5 PUSH1 0x20 SWAP2 SWAP1 SWAP2 ADD SWAP1 PUSH1 0x1 ADD PUSH2 0x59A2 JUMP JUMPDEST POP SWAP4 SWAP5 SWAP4 POP POP POP POP JUMP JUMPDEST PUSH1 0x20 DUP2 MSTORE PUSH1 0x1 PUSH1 0x1 PUSH1 0xA0 SHL SUB DUP3 MLOAD AND PUSH1 0x20 DUP3 ADD MSTORE PUSH1 0x20 DUP3 ADD MLOAD ISZERO ISZERO PUSH1 0x40 DUP3 ADD MSTORE PUSH1 0x0 PUSH1 0x40 DUP4 ADD MLOAD PUSH1 0x80 PUSH1 0x60 DUP5 ADD MSTORE PUSH2 0x5A41 PUSH1 0xA0 DUP5 ADD DUP3 PUSH2 0x598E JUMP JUMPDEST SWAP1 POP PUSH1 0x60 DUP5 ADD MLOAD PUSH1 0x1F NOT DUP5 DUP4 SUB ADD PUSH1 0x80 DUP6 ADD MSTORE PUSH2 0x5A5E DUP3 DUP3 PUSH2 0x598E JUMP JUMPDEST SWAP6 SWAP5 POP POP POP POP POP JUMP JUMPDEST PUSH1 0x0 DUP1 DUP4 CALLDATALOAD PUSH1 0x1E NOT DUP5 CALLDATASIZE SUB ADD DUP2 SLT PUSH2 0x5A7E JUMPI PUSH1 0x0 DUP1 REVERT JUMPDEST DUP4 ADD DUP1 CALLDATALOAD SWAP2 POP PUSH8 0xFFFFFFFFFFFFFFFF DUP3 GT ISZERO PUSH2 0x5A99 JUMPI PUSH1 0x0 DUP1 REVERT JUMPDEST PUSH1 0x20 ADD SWAP2 POP CALLDATASIZE DUP2 SWAP1 SUB DUP3 SGT ISZERO PUSH2 0x5AAE JUMPI PUSH1 0x0 DUP1 REVERT JUMPDEST SWAP3 POP SWAP3 SWAP1 POP JUMP JUMPDEST DUP2 DUP4 MSTORE DUP2 DUP2 PUSH1 0x20 DUP6 ADD CALLDATACOPY POP PUSH1 0x0 DUP3 DUP3 ADD PUSH1 0x20 SWAP1 DUP2 ADD SWAP2 SWAP1 SWAP2 MSTORE PUSH1 0x1F SWAP1 SWAP2 ADD PUSH1 0x1F NOT AND SWAP1 SWAP2 ADD ADD SWAP1 JUMP JUMPDEST PUSH1 0x40 DUP2 MSTORE PUSH1 0x0 PUSH2 0x5AF2 PUSH1 0x40 DUP4 ADD DUP7 DUP9 PUSH2 0x5AB5 JUMP JUMPDEST DUP3 DUP2 SUB PUSH1 0x20 DUP5 ADD MSTORE PUSH2 0x5B05 DUP2 DUP6 DUP8 PUSH2 0x5AB5 JUMP JUMPDEST SWAP8 SWAP7 POP POP POP POP POP POP POP JUMP JUMPDEST PUSH1 0xA DUP2 LT PUSH2 0x5386 JUMPI PUSH2 0x5386 PUSH2 0x5360 JUMP JUMPDEST PUSH5 0xFFFFFFFFFF DUP6 AND DUP2 MSTORE PUSH1 0x20 DUP2 ADD DUP5 SWAP1 MSTORE PUSH1 0x1 PUSH1 0x1 PUSH1 0xA0 SHL SUB DUP4 AND PUSH1 0x40 DUP3 ADD MSTORE PUSH1 0x80 DUP2 ADD PUSH2 0x5A5E PUSH1 0x60 DUP4 ADD DUP5 PUSH2 0x5B10 JUMP JUMPDEST PUSH4 0x4E487B71 PUSH1 0xE0 SHL PUSH1 0x0 MSTORE PUSH1 0x32 PUSH1 0x4 MSTORE PUSH1 0x24 PUSH1 0x0 REVERT JUMPDEST PUSH1 0x0 PUSH1 0x20 DUP3 DUP5 SUB SLT ISZERO PUSH2 0x5B79 JUMPI PUSH1 0x0 DUP1 REVERT JUMPDEST PUSH2 0x5250 DUP3 PUSH2 0x527E JUMP JUMPDEST PUSH1 0x0 PUSH1 0x20 DUP3 DUP5 SUB SLT ISZERO PUSH2 0x5B94 JUMPI PUSH1 0x0 DUP1 REVERT JUMPDEST PUSH2 0x5250 DUP3 PUSH2 0x526F JUMP JUMPDEST PUSH1 0x0 PUSH1 0x20 DUP3 DUP5 SUB SLT ISZERO PUSH2 0x5BAF JUMPI PUSH1 0x0 DUP1 REVERT JUMPDEST POP MLOAD SWAP2 SWAP1 POP JUMP JUMPDEST PUSH4 0x4E487B71 PUSH1 0xE0 SHL PUSH1 0x0 MSTORE PUSH1 0x12 PUSH1 0x4 MSTORE PUSH1 0x24 PUSH1 0x0 REVERT JUMPDEST PUSH4 0x4E487B71 PUSH1 0xE0 SHL PUSH1 0x0 MSTORE PUSH1 0x11 PUSH1 0x4 MSTORE PUSH1 0x24 PUSH1 0x0 REVERT JUMPDEST PUSH1 0x0 DUP3 PUSH2 0x5BF1 JUMPI PUSH2 0x5BF1 PUSH2 0x5BB6 JUMP JUMPDEST POP DIV SWAP1 JUMP JUMPDEST DUP1 DUP3 ADD DUP1 DUP3 GT ISZERO PUSH2 0x2DC8 JUMPI PUSH2 0x2DC8 PUSH2 0x5BCC JUMP JUMPDEST PUSH1 0x0 PUSH1 0x20 DUP3 DUP5 SUB SLT ISZERO PUSH2 0x5C1B JUMPI PUSH1 0x0 DUP1 REVERT JUMPDEST DUP2 MLOAD PUSH2 0x5250 DUP2 PUSH2 0x5494 JUMP JUMPDEST DUP1 DUP3 MUL DUP2 ISZERO DUP3 DUP3 DIV DUP5 EQ OR PUSH2 0x2DC8 JUMPI PUSH2 0x2DC8 PUSH2 0x5BCC JUMP JUMPDEST PUSH5 0xFFFFFFFFFF DUP2 DUP2 AND DUP4 DUP3 AND MUL SWAP1 DUP2 AND SWAP1 DUP2 DUP2 EQ PUSH2 0x4A16 JUMPI PUSH2 0x4A16 PUSH2 0x5BCC JUMP JUMPDEST DUP2 DUP2 SUB DUP2 DUP2 GT ISZERO PUSH2 0x2DC8 JUMPI PUSH2 0x2DC8 PUSH2 0x5BCC JUMP JUMPDEST PUSH1 0x0 PUSH1 0x1 DUP3 ADD PUSH2 0x5C82 JUMPI PUSH2 0x5C82 PUSH2 0x5BCC JUMP JUMPDEST POP PUSH1 0x1 ADD SWAP1 JUMP JUMPDEST PUSH5 0xFFFFFFFFFF DUP2 DUP2 AND DUP4 DUP3 AND ADD SWAP1 DUP2 GT ISZERO PUSH2 0x2DC8 JUMPI PUSH2 0x2DC8 PUSH2 0x5BCC JUMP JUMPDEST PUSH1 0x0 DUP2 MLOAD DUP1 DUP5 MSTORE PUSH1 0x0 JUMPDEST DUP2 DUP2 LT ISZERO PUSH2 0x5CCC JUMPI PUSH1 0x20 DUP2 DUP6 ADD DUP2 ADD MLOAD DUP7 DUP4 ADD DUP3 ADD MSTORE ADD PUSH2 0x5CB0 JUMP JUMPDEST POP PUSH1 0x0 PUSH1 0x20 DUP3 DUP7 ADD ADD MSTORE PUSH1 0x20 PUSH1 0x1F NOT PUSH1 0x1F DUP4 ADD AND DUP6 ADD ADD SWAP2 POP POP SWAP3 SWAP2 POP POP JUMP JUMPDEST PUSH1 0xC0 DUP2 MSTORE PUSH1 0x0 PUSH2 0x5CFF PUSH1 0xC0 DUP4 ADD DUP10 PUSH2 0x5CA6 JUMP JUMPDEST DUP3 DUP2 SUB PUSH1 0x20 DUP5 ADD MSTORE PUSH2 0x5D11 DUP2 DUP10 PUSH2 0x5CA6 JUMP JUMPDEST SWAP1 POP DUP3 DUP2 SUB PUSH1 0x40 DUP5 ADD MSTORE PUSH2 0x5D25 DUP2 DUP9 PUSH2 0x5CA6 JUMP JUMPDEST SWAP1 POP DUP3 DUP2 SUB PUSH1 0x60 DUP5 ADD MSTORE PUSH2 0x5D39 DUP2 DUP8 PUSH2 0x5CA6 JUMP JUMPDEST SWAP1 POP DUP3 DUP2 SUB PUSH1 0x80 DUP5 ADD MSTORE PUSH2 0x5D4D DUP2 DUP7 PUSH2 0x5CA6 JUMP JUMPDEST SWAP1 POP DUP3 DUP2 SUB PUSH1 0xA0 DUP5 ADD MSTORE PUSH2 0x5D61 DUP2 DUP6 PUSH2 0x5CA6 JUMP JUMPDEST SWAP10 SWAP9 POP POP POP POP POP POP POP POP POP JUMP JUMPDEST PUSH1 0xFF DUP3 DUP2 AND DUP3 DUP3 AND SUB SWAP1 DUP2 GT ISZERO PUSH2 0x2DC8 JUMPI PUSH2 0x2DC8 PUSH2 0x5BCC JUMP JUMPDEST PUSH1 0x1 DUP2 JUMPDEST PUSH1 0x1 DUP5 GT ISZERO PUSH2 0x5DC2 JUMPI DUP1 DUP6 DIV DUP2 GT ISZERO PUSH2 0x5DA6 JUMPI PUSH2 0x5DA6 PUSH2 0x5BCC JUMP JUMPDEST PUSH1 0x1 DUP5 AND ISZERO PUSH2 0x5DB4 JUMPI SWAP1 DUP2 MUL SWAP1 JUMPDEST PUSH1 0x1 SWAP4 SWAP1 SWAP4 SHR SWAP3 DUP1 MUL PUSH2 0x5D8B JUMP JUMPDEST SWAP4 POP SWAP4 SWAP2 POP POP JUMP JUMPDEST PUSH1 0x0 DUP3 PUSH2 0x5DD9 JUMPI POP PUSH1 0x1 PUSH2 0x2DC8 JUMP JUMPDEST DUP2 PUSH2 0x5DE6 JUMPI POP PUSH1 0x0 PUSH2 0x2DC8 JUMP JUMPDEST DUP2 PUSH1 0x1 DUP2 EQ PUSH2 0x5DFC JUMPI PUSH1 0x2 DUP2 EQ PUSH2 0x5E06 JUMPI PUSH2 0x5E22 JUMP JUMPDEST PUSH1 0x1 SWAP2 POP POP PUSH2 0x2DC8 JUMP JUMPDEST PUSH1 0xFF DUP5 GT ISZERO PUSH2 0x5E17 JUMPI PUSH2 0x5E17 PUSH2 0x5BCC JUMP JUMPDEST POP POP PUSH1 0x1 DUP3 SHL PUSH2 0x2DC8 JUMP JUMPDEST POP PUSH1 0x20 DUP4 LT PUSH2 0x133 DUP4 LT AND PUSH1 0x4E DUP5 LT PUSH1 0xB DUP5 LT AND OR ISZERO PUSH2 0x5E45 JUMPI POP DUP2 DUP2 EXP PUSH2 0x2DC8 JUMP JUMPDEST PUSH2 0x5E52 PUSH1 0x0 NOT DUP5 DUP5 PUSH2 0x5D87 JUMP JUMPDEST DUP1 PUSH1 0x0 NOT DIV DUP3 GT ISZERO PUSH2 0x5E66 JUMPI PUSH2 0x5E66 PUSH2 0x5BCC JUMP JUMPDEST MUL SWAP4 SWAP3 POP POP POP JUMP JUMPDEST PUSH1 0x0 PUSH2 0x5250 PUSH1 0xFF DUP5 AND DUP4 PUSH2 0x5DCA JUMP JUMPDEST PUSH4 0x4E487B71 PUSH1 0xE0 SHL PUSH1 0x0 MSTORE PUSH1 0x31 PUSH1 0x4 MSTORE PUSH1 0x24 PUSH1 0x0 REVERT JUMPDEST PUSH1 0x0 PUSH5 0xFFFFFFFFFF DUP4 AND DUP1 PUSH2 0x5EAA JUMPI PUSH2 0x5EAA PUSH2 0x5BB6 JUMP JUMPDEST DUP1 PUSH5 0xFFFFFFFFFF DUP5 AND DIV SWAP2 POP POP SWAP3 SWAP2 POP POP JUMP JUMPDEST DUP1 DUP3 ADD DUP3 DUP2 SLT PUSH1 0x0 DUP4 SLT DUP1 ISZERO DUP3 AND DUP3 ISZERO DUP3 AND OR ISZERO PUSH2 0x5EDD JUMPI PUSH2 0x5EDD PUSH2 0x5BCC JUMP JUMPDEST POP POP SWAP3 SWAP2 POP POP JUMP JUMPDEST DUP1 DUP3 MUL PUSH1 0x0 DUP3 SLT PUSH1 0x1 PUSH1 0xFF SHL DUP5 EQ AND ISZERO PUSH2 0x5F01 JUMPI PUSH2 0x5F01 PUSH2 0x5BCC JUMP JUMPDEST DUP2 DUP2 SDIV DUP4 EQ DUP3 ISZERO OR PUSH2 0x2DC8 JUMPI PUSH2 0x2DC8 PUSH2 0x5BCC JUMP JUMPDEST PUSH1 0x0 DUP3 PUSH2 0x5F24 JUMPI PUSH2 0x5F24 PUSH2 0x5BB6 JUMP JUMPDEST PUSH1 0x1 PUSH1 0xFF SHL DUP3 EQ PUSH1 0x0 NOT DUP5 EQ AND ISZERO PUSH2 0x5F3E JUMPI PUSH2 0x5F3E PUSH2 0x5BCC JUMP JUMPDEST POP SDIV SWAP1 JUMP JUMPDEST DUP2 DUP2 SUB PUSH1 0x0 DUP4 SLT DUP1 ISZERO DUP4 DUP4 SGT AND DUP4 DUP4 SLT DUP3 AND OR ISZERO PUSH2 0x4A16 JUMPI PUSH2 0x4A16 PUSH2 0x5BCC JUMP JUMPDEST PUSH1 0x0 DUP3 PUSH2 0x5F72 JUMPI PUSH2 0x5F72 PUSH2 0x5BB6 JUMP JUMPDEST POP MOD SWAP1 JUMP INVALID 0xCA PUSH12 0x824CAF1A48EA2AD039DBB063 CHAINID 0xF LOG3 0xE SWAP13 EXTCODECOPY 0xC2 SSTORE 0xEE 0xB5 0x22 BLOCKHASH 0xD6 CODESIZE 0xEC PUSH14 0xE65EA264697066735822122031D1 0xD9 0xAB 0xB1 0xD3 SDIV 0xF7 LOG3 MSTORE 0xCC 0xE5 PUSH13 0x14F5999E7F629C783F9A043303 RETURNDATASIZE PUSH5 0x9935D56E64 PUSH20 0x6F6C634300081A00330000000000000000000000 "},"methodIdentifiers":{"accountLookup(uint256)":"f4a2a200","addERC20Contract(address,uint256,uint8)":"4a1268b8","approvedERC20(address)":"bd743886","callerFee()":"34d441d0","cancelSubscription((bytes32,uint256,address,address,bool,bool,uint8,uint16))":"87d888d3","changeAdmin(address)":"8f283970","changeCallerFee(uint256)":"8ef0ef1c","changeMaxRemits(uint256)":"27ea9773","changeSystemFee(uint256)":"0bec99e8","collectFees()":"c8796572","createSubscription(uint256,address,(string,string),uint8,uint16)":"0b8590c7","editDetails((string,string),bytes32)":"d10f9e69","editProvDetails((string,string,string,string,string,string))":"ed601d28","feeBalance(bytes32,address)":"ebec6eaa","feeEstimate()":"e63d35be","getAccount(address)":"fbcbc0f1","getAccountSubscriptions(bool,address)":"86525a00","getSubByIndex(bytes32,uint8,uint16)":"2d23f7e7","getSubscribersById(bytes32)":"7bbf5a6e","getTotalSubscribers()":"b25ae32c","maxRemits()":"cab1c965","nextUncheckedDay()":"da854a96","remit()":"7507ba39","removeERC20Contract(address)":"053149fa","setExternalCallers(bool)":"b4761de9","subscribe((bytes32,uint256,address,address,bool,bool,uint8,uint16))":"3c95dad5","systemFee()":"1f17ee55","systemFeeActivate(bool)":"9889552e","unsubscribe((bytes32,uint256,address,address,bool,bool,uint8,uint16))":"44e49769","unsubscribeByProvider((bytes32,uint256,address,address,bool,bool,uint8,uint16),address)":"907cedb2"}}}}}