{"contracts/ClockTowerSubscribe.sol":{"ClockTowerSubscribe":{"abi":[{"inputs":[],"stateMutability":"payable","type":"constructor"},{"anonymous":false,"inputs":[{"indexed":false,"internalType":"uint40","name":"timestamp","type":"uint40"},{"indexed":false,"internalType":"uint40","name":"checkedDay","type":"uint40"},{"indexed":true,"internalType":"address","name":"caller","type":"address"},{"indexed":false,"internalType":"bool","name":"isFinished","type":"bool"}],"name":"CallerLog","type":"event"},{"anonymous":false,"inputs":[{"indexed":true,"internalType":"bytes32","name":"id","type":"bytes32"},{"indexed":true,"internalType":"address","name":"provider","type":"address"},{"indexed":true,"internalType":"uint40","name":"timestamp","type":"uint40"},{"indexed":false,"internalType":"string","name":"url","type":"string"},{"indexed":false,"internalType":"string","name":"description","type":"string"}],"name":"DetailsLog","type":"event"},{"anonymous":false,"inputs":[{"indexed":true,"internalType":"address","name":"provider","type":"address"},{"indexed":true,"internalType":"uint40","name":"timestamp","type":"uint40"},{"indexed":false,"internalType":"string","name":"description","type":"string"},{"indexed":false,"internalType":"string","name":"company","type":"string"},{"indexed":false,"internalType":"string","name":"url","type":"string"},{"indexed":false,"internalType":"string","name":"domain","type":"string"},{"indexed":false,"internalType":"string","name":"email","type":"string"},{"indexed":false,"internalType":"string","name":"misc","type":"string"}],"name":"ProvDetailsLog","type":"event"},{"anonymous":false,"inputs":[{"indexed":true,"internalType":"bytes32","name":"id","type":"bytes32"},{"indexed":true,"internalType":"address","name":"provider","type":"address"},{"indexed":true,"internalType":"address","name":"subscriber","type":"address"},{"indexed":false,"internalType":"uint40","name":"timestamp","type":"uint40"},{"indexed":false,"internalType":"uint256","name":"amount","type":"uint256"},{"indexed":false,"internalType":"address","name":"token","type":"address"},{"indexed":false,"internalType":"enum ClockTowerSubscribe.SubscriptEvent","name":"subScriptEvent","type":"uint8"}],"name":"SubLog","type":"event"},{"stateMutability":"payable","type":"fallback"},{"inputs":[{"internalType":"uint256","name":"","type":"uint256"}],"name":"accountLookup","outputs":[{"internalType":"address","name":"","type":"address"}],"stateMutability":"view","type":"function"},{"inputs":[{"internalType":"address","name":"erc20Contract","type":"address"},{"internalType":"uint256","name":"minimum","type":"uint256"}],"name":"addERC20Contract","outputs":[],"stateMutability":"nonpayable","type":"function"},{"inputs":[{"internalType":"address","name":"","type":"address"}],"name":"approvedERC20","outputs":[{"internalType":"address","name":"tokenAddress","type":"address"},{"internalType":"uint256","name":"minimum","type":"uint256"},{"internalType":"bool","name":"exists","type":"bool"}],"stateMutability":"view","type":"function"},{"inputs":[],"name":"callerFee","outputs":[{"internalType":"uint256","name":"","type":"uint256"}],"stateMutability":"view","type":"function"},{"inputs":[{"components":[{"internalType":"bytes32","name":"id","type":"bytes32"},{"internalType":"uint256","name":"amount","type":"uint256"},{"internalType":"address","name":"provider","type":"address"},{"internalType":"address","name":"token","type":"address"},{"internalType":"bool","name":"exists","type":"bool"},{"internalType":"bool","name":"cancelled","type":"bool"},{"internalType":"enum ClockTowerSubscribe.Frequency","name":"frequency","type":"uint8"},{"internalType":"uint16","name":"dueDay","type":"uint16"}],"internalType":"struct ClockTowerSubscribe.Subscription","name":"subscription","type":"tuple"}],"name":"cancelSubscription","outputs":[],"stateMutability":"nonpayable","type":"function"},{"inputs":[{"internalType":"address payable","name":"newAddress","type":"address"}],"name":"changeAdmin","outputs":[],"stateMutability":"nonpayable","type":"function"},{"inputs":[{"internalType":"uint256","name":"_fee","type":"uint256"}],"name":"changeCallerFee","outputs":[],"stateMutability":"nonpayable","type":"function"},{"inputs":[{"internalType":"uint256","name":"_maxRemits","type":"uint256"}],"name":"changeMaxRemits","outputs":[],"stateMutability":"nonpayable","type":"function"},{"inputs":[{"internalType":"uint256","name":"_fixed_fee","type":"uint256"}],"name":"changeSystemFee","outputs":[],"stateMutability":"nonpayable","type":"function"},{"inputs":[],"name":"collectFees","outputs":[],"stateMutability":"nonpayable","type":"function"},{"inputs":[{"internalType":"uint256","name":"amount","type":"uint256"},{"internalType":"address","name":"token","type":"address"},{"components":[{"internalType":"string","name":"url","type":"string"},{"internalType":"string","name":"description","type":"string"}],"internalType":"struct ClockTowerSubscribe.Details","name":"details","type":"tuple"},{"internalType":"enum ClockTowerSubscribe.Frequency","name":"frequency","type":"uint8"},{"internalType":"uint16","name":"dueDay","type":"uint16"}],"name":"createSubscription","outputs":[],"stateMutability":"payable","type":"function"},{"inputs":[{"components":[{"internalType":"string","name":"url","type":"string"},{"internalType":"string","name":"description","type":"string"}],"internalType":"struct ClockTowerSubscribe.Details","name":"details","type":"tuple"},{"internalType":"bytes32","name":"id","type":"bytes32"}],"name":"editDetails","outputs":[],"stateMutability":"nonpayable","type":"function"},{"inputs":[{"components":[{"internalType":"string","name":"description","type":"string"},{"internalType":"string","name":"company","type":"string"},{"internalType":"string","name":"url","type":"string"},{"internalType":"string","name":"domain","type":"string"},{"internalType":"string","name":"email","type":"string"},{"internalType":"string","name":"misc","type":"string"}],"internalType":"struct ClockTowerSubscribe.ProviderDetails","name":"details","type":"tuple"}],"name":"editProvDetails","outputs":[],"stateMutability":"nonpayable","type":"function"},{"inputs":[{"internalType":"bytes32","name":"","type":"bytes32"},{"internalType":"address","name":"","type":"address"}],"name":"feeBalance","outputs":[{"internalType":"uint256","name":"","type":"uint256"}],"stateMutability":"view","type":"function"},{"inputs":[],"name":"feeEstimate","outputs":[{"components":[{"internalType":"uint256","name":"fee","type":"uint256"},{"internalType":"address","name":"token","type":"address"}],"internalType":"struct ClockTowerSubscribe.FeeEstimate[]","name":"","type":"tuple[]"}],"stateMutability":"view","type":"function"},{"inputs":[{"internalType":"address","name":"account","type":"address"}],"name":"getAccount","outputs":[{"components":[{"internalType":"address","name":"accountAddress","type":"address"},{"internalType":"bool","name":"exists","type":"bool"},{"components":[{"internalType":"bytes32","name":"id","type":"bytes32"},{"internalType":"uint16","name":"dueDay","type":"uint16"},{"internalType":"enum ClockTowerSubscribe.Frequency","name":"frequency","type":"uint8"},{"internalType":"enum ClockTowerSubscribe.Status","name":"status","type":"uint8"}],"internalType":"struct ClockTowerSubscribe.SubIndex[]","name":"subscriptions","type":"tuple[]"},{"components":[{"internalType":"bytes32","name":"id","type":"bytes32"},{"internalType":"uint16","name":"dueDay","type":"uint16"},{"internalType":"enum ClockTowerSubscribe.Frequency","name":"frequency","type":"uint8"},{"internalType":"enum ClockTowerSubscribe.Status","name":"status","type":"uint8"}],"internalType":"struct ClockTowerSubscribe.SubIndex[]","name":"provSubs","type":"tuple[]"}],"internalType":"struct ClockTowerSubscribe.Account","name":"","type":"tuple"}],"stateMutability":"view","type":"function"},{"inputs":[{"internalType":"bool","name":"bySubscriber","type":"bool"},{"internalType":"address","name":"account","type":"address"}],"name":"getAccountSubscriptions","outputs":[{"components":[{"components":[{"internalType":"bytes32","name":"id","type":"bytes32"},{"internalType":"uint256","name":"amount","type":"uint256"},{"internalType":"address","name":"provider","type":"address"},{"internalType":"address","name":"token","type":"address"},{"internalType":"bool","name":"exists","type":"bool"},{"internalType":"bool","name":"cancelled","type":"bool"},{"internalType":"enum ClockTowerSubscribe.Frequency","name":"frequency","type":"uint8"},{"internalType":"uint16","name":"dueDay","type":"uint16"}],"internalType":"struct ClockTowerSubscribe.Subscription","name":"subscription","type":"tuple"},{"internalType":"enum ClockTowerSubscribe.Status","name":"status","type":"uint8"},{"internalType":"uint256","name":"totalSubscribers","type":"uint256"}],"internalType":"struct ClockTowerSubscribe.SubView[]","name":"","type":"tuple[]"}],"stateMutability":"view","type":"function"},{"inputs":[{"internalType":"bytes32","name":"id","type":"bytes32"},{"internalType":"enum ClockTowerSubscribe.Frequency","name":"frequency","type":"uint8"},{"internalType":"uint16","name":"dueDay","type":"uint16"}],"name":"getSubByIndex","outputs":[{"components":[{"internalType":"bytes32","name":"id","type":"bytes32"},{"internalType":"uint256","name":"amount","type":"uint256"},{"internalType":"address","name":"provider","type":"address"},{"internalType":"address","name":"token","type":"address"},{"internalType":"bool","name":"exists","type":"bool"},{"internalType":"bool","name":"cancelled","type":"bool"},{"internalType":"enum ClockTowerSubscribe.Frequency","name":"frequency","type":"uint8"},{"internalType":"uint16","name":"dueDay","type":"uint16"}],"internalType":"struct ClockTowerSubscribe.Subscription","name":"subscription","type":"tuple"}],"stateMutability":"view","type":"function"},{"inputs":[{"internalType":"bytes32","name":"id","type":"bytes32"}],"name":"getSubscribersById","outputs":[{"components":[{"internalType":"address","name":"subscriber","type":"address"},{"internalType":"uint256","name":"feeBalance","type":"uint256"}],"internalType":"struct ClockTowerSubscribe.SubscriberView[]","name":"","type":"tuple[]"}],"stateMutability":"view","type":"function"},{"inputs":[],"name":"getTotalSubscribers","outputs":[{"internalType":"uint256","name":"","type":"uint256"}],"stateMutability":"view","type":"function"},{"inputs":[],"name":"maxRemits","outputs":[{"internalType":"uint256","name":"","type":"uint256"}],"stateMutability":"view","type":"function"},{"inputs":[],"name":"nextUncheckedDay","outputs":[{"internalType":"uint40","name":"","type":"uint40"}],"stateMutability":"view","type":"function"},{"inputs":[],"name":"remit","outputs":[],"stateMutability":"payable","type":"function"},{"inputs":[{"internalType":"address","name":"erc20Contract","type":"address"}],"name":"removeERC20Contract","outputs":[],"stateMutability":"nonpayable","type":"function"},{"inputs":[{"internalType":"bool","name":"status","type":"bool"}],"name":"setExternalCallers","outputs":[],"stateMutability":"nonpayable","type":"function"},{"inputs":[{"components":[{"internalType":"bytes32","name":"id","type":"bytes32"},{"internalType":"uint256","name":"amount","type":"uint256"},{"internalType":"address","name":"provider","type":"address"},{"internalType":"address","name":"token","type":"address"},{"internalType":"bool","name":"exists","type":"bool"},{"internalType":"bool","name":"cancelled","type":"bool"},{"internalType":"enum ClockTowerSubscribe.Frequency","name":"frequency","type":"uint8"},{"internalType":"uint16","name":"dueDay","type":"uint16"}],"internalType":"struct ClockTowerSubscribe.Subscription","name":"subscription","type":"tuple"}],"name":"subscribe","outputs":[],"stateMutability":"payable","type":"function"},{"inputs":[],"name":"systemFee","outputs":[{"internalType":"uint256","name":"","type":"uint256"}],"stateMutability":"view","type":"function"},{"inputs":[{"internalType":"bool","name":"status","type":"bool"}],"name":"systemFeeActivate","outputs":[],"stateMutability":"nonpayable","type":"function"},{"inputs":[{"components":[{"internalType":"bytes32","name":"id","type":"bytes32"},{"internalType":"uint256","name":"amount","type":"uint256"},{"internalType":"address","name":"provider","type":"address"},{"internalType":"address","name":"token","type":"address"},{"internalType":"bool","name":"exists","type":"bool"},{"internalType":"bool","name":"cancelled","type":"bool"},{"internalType":"enum ClockTowerSubscribe.Frequency","name":"frequency","type":"uint8"},{"internalType":"uint16","name":"dueDay","type":"uint16"}],"internalType":"struct ClockTowerSubscribe.Subscription","name":"subscription","type":"tuple"}],"name":"unsubscribe","outputs":[],"stateMutability":"payable","type":"function"},{"inputs":[{"components":[{"internalType":"bytes32","name":"id","type":"bytes32"},{"internalType":"uint256","name":"amount","type":"uint256"},{"internalType":"address","name":"provider","type":"address"},{"internalType":"address","name":"token","type":"address"},{"internalType":"bool","name":"exists","type":"bool"},{"internalType":"bool","name":"cancelled","type":"bool"},{"internalType":"enum ClockTowerSubscribe.Frequency","name":"frequency","type":"uint8"},{"internalType":"uint16","name":"dueDay","type":"uint16"}],"internalType":"struct ClockTowerSubscribe.Subscription","name":"subscription","type":"tuple"},{"internalType":"address","name":"subscriber","type":"address"}],"name":"unsubscribeByProvider","outputs":[],"stateMutability":"nonpayable","type":"function"},{"stateMutability":"payable","type":"receive"}],"evm":{"bytecode":{"linkReferences":{},"object":"60806040526127d8600055662386f26fc10000600155600560029081556006805460ff60d81b19169055620000344262000095565b620000409190620000ac565b60068054610100600160d01b03191661010064ffffffffff9390931692909202600160301b600160d01b0319169190911779f39fd6e51aad88f6f4ce6ab8827279cfffb9226600000000000017905562000113565b6000620000a66201518083620000e0565b92915050565b64ffffffffff828116828216039080821115620000d957634e487b7160e01b600052601160045260246000fd5b5092915050565b600064ffffffffff808416806200010757634e487b7160e01b600052601260045260246000fd5b92169190910492915050565b615c4d80620001236000396000f3fe6080604052600436106101b95760003560e01c8063907cedb2116100eb578063d10f9e691161008f578063ed601d2811610061578063ed601d281461054c578063f25e13c91461056c578063f4a2a2001461058c578063fbcbc0f1146105c457005b8063d10f9e6914610499578063da854a96146104b9578063e63d35be146104f2578063ebec6eaa1461051457005b8063b4761de9116100c8578063b4761de9146103de578063bd743886146103fe578063c87965721461046e578063cab1c9651461048357005b8063907cedb2146103895780639889552e146103a9578063b25ae32c146103c957005b80633c95dad51161015d57806386525a001161012f57806386525a00146102fc57806387d888d3146103295780638ef0ef1c146103495780638f2839701461036957005b80633c95dad5146102a157806344e49769146102b45780637507ba39146102c75780637bbf5a6e146102cf57005b80631f17ee55116101965780631f17ee551461021557806327ea97731461023e5780632d23f7e71461025e57806334d441d01461028b57005b8063053149fa146101c25780630b8590c7146101e25780630bec99e8146101f557005b366101c057005b005b3480156101ce57600080fd5b506101c06101dd366004615032565b6105f1565b6101c06101f036600461508f565b610684565b34801561020157600080fd5b506101c061021036600461510a565b610b4d565b34801561022157600080fd5b5061022b60015481565b6040519081526020015b60405180910390f35b34801561024a57600080fd5b506101c061025936600461510a565b610b5a565b34801561026a57600080fd5b5061027e610279366004615123565b610b67565b60405161023591906151f4565b34801561029757600080fd5b5061022b60005481565b6101c06102af366004615203565b610d49565b6101c06102c236600461532a565b61139f565b6101c0611762565b3480156102db57600080fd5b506102ef6102ea36600461510a565b612546565b6040516102359190615347565b34801561030857600080fd5b5061031c61031736600461539f565b612747565b60405161023591906153e8565b34801561033557600080fd5b506101c0610344366004615203565b612b48565b34801561035557600080fd5b506101c061036436600461510a565b6135b7565b34801561037557600080fd5b506101c0610384366004615032565b6135c4565b34801561039557600080fd5b506101c06103a4366004615449565b613623565b3480156103b557600080fd5b506101c06103c4366004615478565b613a7f565b3480156103d557600080fd5b5060085461022b565b3480156103ea57600080fd5b506101c06103f9366004615478565b613aa5565b34801561040a57600080fd5b50610447610419366004615032565b6005602052600090815260409020805460018201546002909201546001600160a01b03909116919060ff1683565b604080516001600160a01b0390941684526020840192909252151590820152606001610235565b34801561047a57600080fd5b506101c0613acb565b34801561048f57600080fd5b5061022b60025481565b3480156104a557600080fd5b506101c06104b4366004615495565b613b2e565b3480156104c557600080fd5b506006546104dc90610100900464ffffffffff1681565b60405164ffffffffff9091168152602001610235565b3480156104fe57600080fd5b50610507613bea565b60405161023591906154da565b34801561052057600080fd5b5061022b61052f366004615525565b600960209081526000928352604080842090915290825290205481565b34801561055857600080fd5b506101c06105673660046155d7565b6140b5565b34801561057857600080fd5b506101c06105873660046156f8565b614123565b34801561059857600080fd5b506105ac6105a736600461510a565b6141e2565b6040516001600160a01b039091168152602001610235565b3480156105d057600080fd5b506105e46105df366004615032565b61420c565b6040516102359190615799565b6105f9614436565b6001600160a01b03811661060c57600080fd5b6106158161447f565b61064a5760405162461bcd60e51b81526020600482015260016024820152601960f91b60448201526064015b60405180910390fd5b6001600160a01b0316600090815260056020526040812080546001600160a01b03191681556001810191909155600201805460ff19169055565b61068c6144b1565b6001600160a01b0384166106c65760405162461bcd60e51b81526020600482015260016024820152600760fb1b6044820152606401610641565b600654600160d81b900460ff161561070e5734600154111561070e5760405162461bcd60e51b81526020600482015260016024820152603560f81b6044820152606401610641565b6107178461447f565b6107475760405162461bcd60e51b81526020600482015260016024820152603960f81b6044820152606401610641565b600082600381111561075b5761075b61515f565b036107aa578061ffff166000108015610779575060078161ffff1611155b6107aa5760405162461bcd60e51b8152602060048201526002602482015261191b60f11b6044820152606401610641565b60018260038111156107be576107be61515f565b0361080d578061ffff1660001080156107dc5750601c8161ffff1611155b61080d5760405162461bcd60e51b8152602060048201526002602482015261323760f01b6044820152606401610641565b60028260038111156108215761082161515f565b03610870578061ffff16600010801561083f5750605a8161ffff1611155b6108705760405162461bcd60e51b8152602060048201526002602482015261064760f31b6044820152606401610641565b60038260038111156108845761088461515f565b036108d4578061ffff1660001080156108a3575061016d8161ffff1611155b6108d45760405162461bcd60e51b8152602060048201526002602482015261323960f01b6044820152606401610641565b6001600160a01b0384166000908152600560205260409020600101548510156109245760405162461bcd60e51b8152602060048201526002602482015261033360f41b6044820152606401610641565b6000610932868685856144e2565b905080600a600085600381111561094b5761094b61515f565b81526020808201929092526040908101600090812061ffff87168252835281812080546001818101835591835291849020855160049093020191825592840151928101929092558201516002820180546001600160a01b039283166001600160a01b0319909116179055606083015160038084018054608087015160a08801511515600160a81b0260ff60a81b19911515600160a01b0274ffffffffffffffffffffffffffffffffffffffffff199093169590961694909417179283168417815560c086015193909260ff60b01b1990911661ffff60a81b199091161790600160b01b908490811115610a4057610a4061515f565b021790555060e0918201516003918201805461ffff60b81b1916600160b81b61ffff93841602179055604080516080810182528551815293850151909116602084015260c0840151610ab0939291830191811115610aa057610aa061515f565b81526020016000905260016145cd565b805164ffffffffff42169033907f93cda0785d40b289a535b99dc76d4c9cbb6d8146182861ac3ad40509398b1865610ae888806157fa565b610af560208b018b6157fa565b604051610b059493929190615871565b60405180910390a48051606082015160405160009233929091600080516020615bf883398151915291610b3d9142918d9188906158b3565b60405180910390a4505050505050565b610b55614436565b600155565b610b62614436565b600255565b6040805161010081018252600080825260208201819052918101829052606081018290526080810182905260a0810182905260c0810182905260e0810182905290600a81856003811115610bbd57610bbd61515f565b815260200190815260200160002060008461ffff1661ffff168152602001908152602001600020805480602002602001604051908101604052809291908181526020016000905b82821015610cdb5760008481526020908190206040805161010081018252600486029092018054835260018101549383019390935260028301546001600160a01b0390811691830191909152600380840154918216606084015260ff600160a01b8304811615156080850152600160a81b83048116151560a085015292939260c0850192600160b01b90041690811115610ca057610ca061515f565b6003811115610cb157610cb161515f565b81526003919091015461ffff600160b81b9091041660209182015290825260019092019101610c04565b50505050905060005b8151811015610d405785828281518110610d0057610d006158e4565b60200260200101516000015103610d2e57818181518110610d2357610d236158e4565b602002602001015192505b80610d3881615910565b915050610ce4565b50509392505050565b610d516144b1565b6020810135610d666080830160608401615032565b604051636eb1769f60e11b81523360048201523060248201526001600160a01b03919091169063dd62ed3e906044016020604051808303816000875af1158015610db4573d6000803e3d6000fd5b505050506040513d601f19601f82011682018060405250810190610dd89190615929565b10158015610e6557506020810135610df66080830160608401615032565b6040516370a0823160e01b81523360048201526001600160a01b0391909116906370a08231906024016020604051808303816000875af1158015610e3e573d6000803e3d6000fd5b505050506040513d601f19601f82011682018060405250810190610e629190615929565b10155b610e965760405162461bcd60e51b8152602060048201526002602482015261032360f41b6044820152606401610641565b610ea66060820160408301615032565b6001600160a01b03163303610ee15760405162461bcd60e51b81526020600482015260016024820152600360fc1b6044820152606401610641565b610f0e8135610ef7610100840160e08501615942565b610f0760e0850160c0860161595d565b600061477d565b610f3e5760405162461bcd60e51b81526020600482015260016024820152603760f81b6044820152606401610641565b80356000818152600b6020908152604080832080546001810182559084529282902090920180546001600160a01b03191633179055815160808101909252918152610fd0918101610f96610100850160e08601615942565b61ffff168152602001610faf60e0850160c0860161595d565b6003811115610fc057610fc061515f565b81526020016000905260006145cd565b6020810135600180610fe860e0850160c0860161595d565b6003811115610ff957610ff961515f565b14806110255750600061101260e0850160c0860161595d565b60038111156110235761102361515f565b145b156110715761106a4261103f610100860160e08701615942565b61ffff168461105460e0880160c0890161595d565b60038111156110655761106561515f565b614808565b9150611117565b600261108360e0850160c0860161595d565b60038111156110945761109461515f565b036110c6576110ae4261103f610100860160e08701615942565b91506110bb60038361598e565b915060029050611117565b60036110d860e0850160c0860161595d565b60038111156110e9576110e961515f565b03611117576111034261103f610100860160e08701615942565b9150611110600c8361598e565b9150600b90505b82356000908152600960209081526040808320338452909152812080548492906111429084906159a2565b909155503390506111596060850160408601615032565b6001600160a01b03168435600080516020615bf883398151915242602088013561118960808a0160608b01615032565b600660405161119b94939291906158b3565b60405180910390a4336111b46060850160408601615032565b6001600160a01b03168435600080516020615bf883398151915242866111e060808a0160608b01615032565b60086040516111f294939291906158b3565b60405180910390a461120a6080840160608501615032565b6040516323b872dd60e01b8152336004820152306024820152604481018490526001600160a01b0391909116906323b872dd906064016020604051808303816000875af115801561125f573d6000803e3d6000fd5b505050506040513d601f19601f8201168201806040525081019061128391906159b5565b61128c57600080fd5b600261129e60e0850160c0860161595d565b60038111156112af576112af61515f565b14806112db575060036112c860e0850160c0860161595d565b60038111156112d9576112d961515f565b145b1561139a576112f06080840160608501615032565b6001600160a01b03166323b872dd3361130f6060870160408801615032565b61131985876159d2565b6040516001600160e01b031960e086901b1681526001600160a01b03938416600482015292909116602483015260448201526064016020604051808303816000875af115801561136d573d6000803e3d6000fd5b505050506040513d601f19601f8201168201806040525081019061139191906159b5565b61139a57600080fd5b505050565b6113a76144b1565b3360009081526007602052604081206001015467ffffffffffffffff8111156113d2576113d2615216565b60405190808252806020026020018201604052801561142d57816020015b61141a60408051608081018252600080825260208201819052909182019081526020016000905290565b8152602001906001900390816113f05790505b50336000908152600760209081526040808320600101805482518185028101850190935280835294955090939092909184015b82821015611516576000848152602090819020604080516080810182526002860290920180548352600181015461ffff81169484019490945291929083019062010000900460ff1660038111156114b9576114b961515f565b60038111156114ca576114ca61515f565b81526020016001820160039054906101000a900460ff1660028111156114f2576114f261515f565b60028111156115035761150361515f565b8152505081526020019060010190611460565b5050336000908152600760205260408120600101549394509150505b818110156115d4578360000151838281518110611551576115516158e4565b602002602001015160000151036115c2573360009081526007602052604090206001018054600291908390811061158a5761158a6158e4565b906000526020600020906002020160010160036101000a81548160ff021916908360028111156115bc576115bc61515f565b02179055505b806115cc81615910565b915050611532565b5082516115e19033614a51565b336001600160a01b031683604001516001600160a01b03168460000151600080516020615bf88339815191524287602001518860600151600760405161162a94939291906158b3565b60405180910390a4825160009081526009602081815260408084203380865290835281852054885186529383528185208186529092528084209390935582860151865160608801519451939492936001600160a01b03909216929091600080516020615bf8833981519152916116a691429188916004906158b3565b60405180910390a46060840151604080860151905163a9059cbb60e01b81526001600160a01b0391821660048201526024810184905291169063a9059cbb906044016020604051808303816000875af1158015611707573d6000803e3d6000fd5b505050506040513d601f19601f8201168201806040525081019061172b91906159b5565b61175c5760405162461bcd60e51b8152602060048201526002602482015261323160f01b6044820152606401610641565b50505050565b600654600160d01b900460ff1661177b5761177b614436565b600654600160d81b900460ff16156117c3573460015411156117c35760405162461bcd60e51b81526020600482015260016024820152603560f81b6044820152606401610641565b60006117ce42614ba1565b60065490915064ffffffffff610100909104811690821610156118185760405162461bcd60e51b81526020600482015260026024820152610c4d60f21b6044820152606401610641565b6040805160c081018252600080825260208201819052918101829052606081018290526080810182905260a081019190915260019060065464ffffffffff8481166101009092041614611898576006546118919061188590610100900464ffffffffff16620151806159e9565b64ffffffffff16614bb0565b90506118a4565b6118a142614bb0565b90505b6000805b6003811161248c576000816118be575060208301515b600182036118ca575082515b600282036118d9575060408301515b600382036118e8575060608301515b6000828152600a6020908152604080832061ffff85168452909152812054905b81811015612476576000848152600a6020908152604080832061ffff87168452909152812080549198509082908110611943576119436158e4565b906000526020600020906004020160030160159054906101000a900460ff16612464576000848152600a6020908152604080832061ffff871684529091528120805483908110611995576119956158e4565b60009182526020808320600490920290910154878352600a8252604080842061ffff89168552909252908220805491935090849081106119d7576119d76158e4565b6000918252602080832060036004909302019190910154888352600a8252604080842061ffff8a16855290925290822080546001600160a01b0390921693509085908110611a2757611a276158e4565b6000918252602080832060016004909302019190910154898352600a8252604080842061ffff8b16855290925290822080549193509086908110611a6d57611a6d6158e4565b6000918252602082206002600490920201015481546001600160a01b039091169250839061271090611a9f90836159d2565b611aa9919061598e565b611ab39190615a12565b6000868152600b602052604081205491925090818115611adb57611ad8600183615a12565b90505b60005b8281101561245a576002548e03611c21576040805180820182528a815260200182905260038a905560048281556006805460ff19169055905163a9059cbb60e01b81523391810191909152602481018590526001600160a01b0389169063a9059cbb906044016020604051808303816000875af1158015611b63573d6000803e3d6000fd5b505050506040513d601f19601f82011682018060405250810190611b8791906159b5565b611bb85760405162461bcd60e51b8152602060048201526002602482015261191960f11b6044820152606401610641565b6006546040805164ffffffffff428116825261010090930492909216602083015260009082015233907f90192d7875364a53e351ae63fd2dfef8dc941735b29fb0c504d06a0e21ae602e9060600160405180910390a25050505050505050505050505050505050565b60035489148015611c33575060045481145b15611c46576006805460ff191660011790555b6003541580611c5c575060065460ff1615156001145b15612448576000898152600b60205260408120805483908110611c8157611c816158e4565b600091825260209091200154604051636eb1769f60e11b81526001600160a01b0391821660048201819052306024830152925089918b169063dd62ed3e906044016020604051808303816000875af1158015611ce1573d6000803e3d6000fd5b505050506040513d601f19601f82011682018060405250810190611d059190615929565b10158015611d7f57506040516370a0823160e01b81526001600160a01b0382811660048301528991908b16906370a08231906024016020604051808303816000875af1158015611d59573d6000803e3d6000fd5b505050506040513d601f19601f82011682018060405250810190611d7d9190615929565b115b15612180578e611d8e81615910565b9f505085600960008c81526020019081526020016000206000836001600160a01b03166001600160a01b03168152602001908152602001600020541115611f2357611dd986866159a2565b60008b81526009602090815260408083206001600160a01b0386168452909152812080549297508892909190611e10908490615a12565b92505081905550806001600160a01b0316876001600160a01b03168b600080516020615bf8833981519152428c8e6005604051611e5094939291906158b3565b60405180910390a4806001600160a01b0316876001600160a01b03168b600080516020615bf88339815191524260008e6002604051611e9294939291906158b3565b60405180910390a46040516323b872dd60e01b81526001600160a01b0382811660048301528881166024830152604482018a90528a16906323b872dd906064016020604051808303816000875af1158015611ef1573d6000803e3d6000fd5b505050506040513d601f19601f82011682018060405250810190611f1591906159b5565b611f1e57600080fd5b612390565b60008a81526009602090815260408083206001600160a01b0385168452909152902054611f5090866159a2565b9450600960008b81526020019081526020016000206000826001600160a01b03166001600160a01b0316815260200190815260200160002060009055806001600160a01b0316876001600160a01b03168b600080516020615bf8833981519152428c8e6008604051611fc594939291906158b3565b60405180910390a460008890506000600190508f600203611ff657611feb60038361598e565b915060029050612010565b8f60030361201057612009600c8361598e565b9150600b90505b60008c81526009602090815260408083206001600160a01b0387168452909152812080548492906120429084906159a2565b90915550506040516323b872dd60e01b81526001600160a01b038481166004830152306024830152604482018490528c16906323b872dd906064016020604051808303816000875af115801561209c573d6000803e3d6000fd5b505050506040513d601f19601f820116820180604052508101906120c091906159b5565b6120c957600080fd5b8f600214806120d857508f6003145b15612179576001600160a01b038b166323b872dd848b6120f885876159d2565b6040516001600160e01b031960e086901b1681526001600160a01b03938416600482015292909116602483015260448201526064016020604051808303816000875af115801561214c573d6000803e3d6000fd5b505050506040513d601f19601f8201168201806040525081019061217091906159b5565b61217957600080fd5b5050612390565b8e61218a81615910565b9f505085600960008c81526020019081526020016000206000836001600160a01b03166001600160a01b03168152602001908152602001600020541115612302576121d586866159a2565b60008b81526009602090815260408083206001600160a01b038616845290915281205491965090612207908890615a12565b9050600960008c81526020019081526020016000206000836001600160a01b03166001600160a01b0316815260200190815260200160002060009055816001600160a01b0316886001600160a01b03168c600080516020615bf883398151915242858f600460405161227c94939291906158b3565b60405180910390a460405163a9059cbb60e01b81526001600160a01b038981166004830152602482018390528b169063a9059cbb906044016020604051808303816000875af11580156122d3573d6000803e3d6000fd5b505050506040513d601f19601f820116820180604052508101906122f791906159b5565b61230057600080fd5b505b61230c8a82614a51565b806001600160a01b0316876001600160a01b03168b600080516020615bf8833981519152428c8e600760405161234594939291906158b3565b60405180910390a4806001600160a01b0316876001600160a01b03168b600080516020615bf88339815191524260008e600360405161238794939291906158b3565b60405180910390a45b828214801561239f5750600084115b156124465760405163a9059cbb60e01b8152336004820152602481018690526001600160a01b038a169063a9059cbb906044016020604051808303816000875af11580156123f1573d6000803e3d6000fd5b505050506040513d601f19601f8201168201806040525081019061241591906159b5565b6124465760405162461bcd60e51b8152602060048201526002602482015261191960f11b6044820152606401610641565b505b8061245281615910565b915050611ade565b5050505050505050505b8061246e81615910565b915050611908565b505050808061248490615910565b9150506118a8565b50600060038190556004556006805460ff1916908190556040805164ffffffffff4281168252610100909304909216602083015260019082015233907f90192d7875364a53e351ae63fd2dfef8dc941735b29fb0c504d06a0e21ae602e9060600160405180910390a26001600660018282829054906101000a900464ffffffffff166125189190615a25565b92506101000a81548164ffffffffff021916908364ffffffffff160217905550821561175c5761175c611762565b6000818152600b60205260408120546060919067ffffffffffffffff81111561257157612571615216565b60405190808252806020026020018201604052801561259a578160200160208202803683370190505b506000848152600b602090815260409182902080548351818402810184019094528084529394509192908301828280156125fd57602002820191906000526020600020905b81546001600160a01b031681526001909101906020018083116125df575b5050506000868152600b60205260408120549394509291505067ffffffffffffffff81111561262e5761262e615216565b60405190808252806020026020018201604052801561267357816020015b604080518082019091526000808252602082015281526020019060019003908161264c5790505b50905060005b825181101561273f576000858152600960205260408120845182908690859081106126a6576126a66158e4565b60200260200101516001600160a01b03166001600160a01b03168152602001908152602001600020549050600060405180604001604052808685815181106126f0576126f06158e4565b60200260200101516001600160a01b031681526020018381525090508084848151811061271f5761271f6158e4565b60200260200101819052505050808061273790615910565b915050612679565b509392505050565b6060808315612847576001600160a01b038316600090815260076020908152604080832060010180548251818502810185019093528083529193909284015b8282101561283c576000848152602090819020604080516080810182526002860290920180548352600181015461ffff81169484019490945291929083019062010000900460ff1660038111156127df576127df61515f565b60038111156127f0576127f061515f565b81526020016001820160039054906101000a900460ff1660028111156128185761281861515f565b60028111156128295761282961515f565b8152505081526020019060010190612786565b50505050905061293a565b6001600160a01b038316600090815260076020908152604080832060020180548251818502810185019093528083529193909284015b82821015612933576000848152602090819020604080516080810182526002860290920180548352600181015461ffff81169484019490945291929083019062010000900460ff1660038111156128d6576128d661515f565b60038111156128e7576128e761515f565b81526020016001820160039054906101000a900460ff16600281111561290f5761290f61515f565b60028111156129205761292061515f565b815250508152602001906001019061287d565b5050505090505b6000815167ffffffffffffffff81111561295657612956615216565b6040519080825280602002602001820160405280156129dc57816020015b60408051610160810182526000606082018181526080830182905260a0830182905260c0830182905260e08301829052610100830182905261012083018290526101408301829052825260208083018290529282015282526000199092019101816129745790505b50905060005b8251811015612b3d57612a4d838281518110612a0057612a006158e4565b602002602001015160000151848381518110612a1e57612a1e6158e4565b602002602001015160400151858481518110612a3c57612a3c6158e4565b602002602001015160200151610b67565b828281518110612a5f57612a5f6158e4565b602002602001015160000181905250828181518110612a8057612a806158e4565b602002602001015160600151828281518110612a9e57612a9e6158e4565b6020026020010151602001906002811115612abb57612abb61515f565b90816002811115612ace57612ace61515f565b81525050600b6000838381518110612ae857612ae86158e4565b60200260200101516000015160000151815260200190815260200160002080549050828281518110612b1c57612b1c6158e4565b60209081029190910101516040015280612b3581615910565b9150506129e2565b509150505b92915050565b612b506144b1565b612b668135610ef7610100840160e08501615942565b612b965760405162461bcd60e51b81526020600482015260016024820152603760f81b6044820152606401610641565b612ba66060820160408301615032565b6001600160a01b0316336001600160a01b031614612beb5760405162461bcd60e51b8152602060048201526002602482015261323360f01b6044820152606401610641565b33600090815260076020908152604080832060020180548251818502810185019093528083529192909190849084015b82821015612cd1576000848152602090819020604080516080810182526002860290920180548352600181015461ffff81169484019490945291929083019062010000900460ff166003811115612c7457612c7461515f565b6003811115612c8557612c8561515f565b81526020016001820160039054906101000a900460ff166002811115612cad57612cad61515f565b6002811115612cbe57612cbe61515f565b8152505081526020019060010190612c1b565b5050336000908152600760205260408120600201549394509150505b81811015612d8f578360000135838281518110612d0c57612d0c6158e4565b60200260200101516000015103612d7d5733600090815260076020526040902060020180546001919083908110612d4557612d456158e4565b906000526020600020906002020160010160036101000a81548160ff02191690836002811115612d7757612d7761515f565b02179055505b80612d8781615910565b915050612ced565b5082356000908152600b6020908152604080832080548251818502810185019093528083529192909190830182828015612df257602002820191906000526020600020905b81546001600160a01b03168152600190910190602001808311612dd4575b5050505050905060005b8151811015613332578435600090815260096020526040812083518290859085908110612e2b57612e2b6158e4565b60200260200101516001600160a01b03166001600160a01b03168152602001908152602001600020549050828281518110612e6857612e686158e4565b60200260200101516001600160a01b0316866040016020810190612e8c9190615032565b6001600160a01b03168735600080516020615bf88339815191524285612eb860808d0160608e01615032565b6009604051612eca94939291906158b3565b60405180910390a4853560009081526009602052604081208451909190859085908110612ef957612ef96158e4565b60200260200101516001600160a01b03166001600160a01b0316815260200190815260200160002060009055856060016020810190612f389190615032565b6001600160a01b031663a9059cbb848481518110612f5857612f586158e4565b6020026020010151836040518363ffffffff1660e01b8152600401612f929291906001600160a01b03929092168252602082015260400190565b6020604051808303816000875af1158015612fb1573d6000803e3d6000fd5b505050506040513d601f19601f82011682018060405250810190612fd591906159b5565b6130065760405162461bcd60e51b8152602060048201526002602482015261323160f01b6044820152606401610641565b60006007600085858151811061301e5761301e6158e4565b60200260200101516001600160a01b03166001600160a01b031681526020019081526020016000206001018054905067ffffffffffffffff81111561306557613065615216565b6040519080825280602002602001820160405280156130c057816020015b6130ad60408051608081018252600080825260208201819052909182019081526020016000905290565b8152602001906001900390816130835790505b509050600760008585815181106130d9576130d96158e4565b60200260200101516001600160a01b03166001600160a01b03168152602001908152602001600020600101805480602002602001604051908101604052809291908181526020016000905b828210156131da576000848152602090819020604080516080810182526002860290920180548352600181015461ffff81169484019490945291929083019062010000900460ff16600381111561317d5761317d61515f565b600381111561318e5761318e61515f565b81526020016001820160039054906101000a900460ff1660028111156131b6576131b661515f565b60028111156131c7576131c761515f565b8152505081526020019060010190613124565b50505050905060005b600760008686815181106131f9576131f96158e4565b60200260200101516001600160a01b03166001600160a01b03168152602001908152602001600020600101805490508110156132f5578760000135828281518110613246576132466158e4565b602002602001015160000151036132e35760016007600087878151811061326f5761326f6158e4565b60200260200101516001600160a01b03166001600160a01b0316815260200190815260200160002060010182815481106132ab576132ab6158e4565b906000526020600020906002020160010160036101000a81548160ff021916908360028111156132dd576132dd61515f565b02179055505b806132ed81615910565b9150506131e3565b5061331d8760000135858581518110613310576133106158e4565b6020026020010151614a51565b5050808061332a90615910565b915050612dfc565b506000600a8161334860e0880160c0890161595d565b60038111156133595761335961515f565b815260200190815260200160002060008660e001602081019061337c9190615942565b61ffff1661ffff168152602001908152602001600020805480602002602001604051908101604052809291908181526020016000905b828210156134895760008481526020908190206040805161010081018252600486029092018054835260018101549383019390935260028301546001600160a01b0390811691830191909152600380840154918216606084015260ff600160a01b8304811615156080850152600160a81b83048116151560a085015292939260c0850192600160b01b9004169081111561344e5761344e61515f565b600381111561345f5761345f61515f565b81526003919091015461ffff600160b81b90910416602091820152908252600190920191016133b2565b50505050905060005b815181101561356f5785600001358282815181106134b2576134b26158e4565b6020026020010151600001510361355d576001600a60006134d960e08a0160c08b0161595d565b60038111156134ea576134ea61515f565b815260200190815260200160002060008860e001602081019061350d9190615942565b61ffff1661ffff1681526020019081526020016000208281548110613534576135346158e4565b906000526020600020906004020160030160156101000a81548160ff0219169083151502179055505b8061356781615910565b915050613492565b506000338635600080516020615bf8833981519152428461359660808c0160608d01615032565b60016040516135a894939291906158b3565b60405180910390a45050505050565b6135bf614436565b600055565b6135cc614436565b6001600160a01b0381166135df57600080fd5b600680546001600160a01b039092166601000000000000027fffffffffffff0000000000000000000000000000000000000000ffffffffffff909216919091179055565b61362b6144b1565b33600090815260076020908152604080832060020180548251818502810185019093528083529192909190849084015b82821015613711576000848152602090819020604080516080810182526002860290920180548352600181015461ffff81169484019490945291929083019062010000900460ff1660038111156136b4576136b461515f565b60038111156136c5576136c561515f565b81526020016001820160039054906101000a900460ff1660028111156136ed576136ed61515f565b60028111156136fe576136fe61515f565b815250508152602001906001019061365b565b5050505090506000805b825181101561376357846000015183828151811061373b5761373b6158e4565b6020026020010151600001510361375157600191505b8061375b81615910565b91505061371b565b50806137965760405162461bcd60e51b8152602060048201526002602482015261062760f31b6044820152606401610641565b83516000908152600b60209081526040808320805482518185028101850190935280835291929091908301828280156137f857602002820191906000526020600020905b81546001600160a01b031681526001909101906020018083116137da575b505050505090506000805b82518110156138bd57856001600160a01b0316838281518110613828576138286158e4565b60200260200101516001600160a01b0316036138ab576001600160a01b03861660009081526007602052604090206001908101805491935060029183908110613873576138736158e4565b906000526020600020906002020160010160036101000a81548160ff021916908360028111156138a5576138a561515f565b02179055505b806138b581615910565b915050613803565b50806138f05760405162461bcd60e51b8152602060048201526002602482015261313960f01b6044820152606401610641565b85516138fc9086614a51565b846001600160a01b031686604001516001600160a01b03168760000151600080516020615bf8833981519152428a602001518b60600151600760405161394594939291906158b3565b60405180910390a4855160009081526009602081815260408084206001600160a01b03808b16808752918452828620548c51875285855283872083885290945282862095909555818b01518b5160608d015193519496929591909216939192600080516020615bf8833981519152926139c492429289929091906158b3565b60405180910390a4606087015160405163a9059cbb60e01b81526001600160a01b038881166004830152602482018490529091169063a9059cbb906044016020604051808303816000875af1158015613a21573d6000803e3d6000fd5b505050506040513d601f19601f82011682018060405250810190613a4591906159b5565b613a765760405162461bcd60e51b8152602060048201526002602482015261323160f01b6044820152606401610641565b50505050505050565b613a87614436565b60068054911515600160d81b0260ff60d81b19909216919091179055565b613aad614436565b60068054911515600160d01b0260ff60d01b19909216919091179055565b613ad3614436565b611388471115613b2c57600654660100000000000090046001600160a01b03166108fc613b0261138847615a12565b6040518115909202916000818181858888f19350505050158015613b2a573d6000803e3d6000fd5b505b565b6000613b393361420c565b905080602001511561139a5760005b81606001515181101561175c578282606001518281518110613b6c57613b6c6158e4565b60200260200101516000015103613bd85764ffffffffff421633847f93cda0785d40b289a535b99dc76d4c9cbb6d8146182861ac3ad40509398b1865613bb288806157fa565b613bbf60208b018b6157fa565b604051613bcf9493929190615871565b60405180910390a45b80613be281615910565b915050613b48565b60606000613bf742614ba1565b60065490915064ffffffffff610100909104811690821611613c405760405162461bcd60e51b81526020600482015260026024820152610c4d60f21b6044820152606401610641565b6000613c4b42614bb0565b9050600080600060025467ffffffffffffffff811115613c6d57613c6d615216565b604051908082528060200260200182016040528015613cb257816020015b6040805180820190915260008082526020820152815260200190600190039081613c8b5790505b50905060005b60038111613f9157600081613cce575060208501515b60018203613cda575084515b60028203613ce9575060408501515b60038203613cf8575060608501515b60005b6000838152600a6020908152604080832061ffff86168452909152902054811015613f7c576000838152600a6020908152604080832061ffff861684529091529020805482908110613d4f57613d4f6158e4565b906000526020600020906004020160030160159054906101000a900460ff16613f6a576000838152600a6020908152604080832061ffff861684529091528120805483908110613da157613da16158e4565b60009182526020808320600490920290910154868352600a8252604080842061ffff8816855290925290822080549193509084908110613de357613de36158e4565b6000918252602080832060036004909302019190910154878352600a8252604080842061ffff8916855290925290822080546001600160a01b0390921693509085908110613e3357613e336158e4565b9060005260206000209060040201600101549050613e6d60405180604001604052806000815260200160006001600160a01b031681525090565b60008261271060005485613e8191906159d2565b613e8b919061598e565b613e959190615a12565b90506000805b6000878152600b6020526040902054811015613f62576002548d03613ece5750989e9d5050505050505050505050505050565b6003541580613ee4575060065460ff1615156001145b15613f50578c613ef381615910565b9d50613f01905083836159a2565b91506040518060400160405280838152602001876001600160a01b03168152509350838b8d81518110613f3657613f366158e4565b60200260200101819052508b80613f4c90615910565b9c50505b80613f5a81615910565b915050613e9b565b505050505050505b80613f7481615910565b915050613cfb565b50508080613f8990615910565b915050613cb8565b506000805b8251811015613ff05760006001600160a01b0316838281518110613fbc57613fbc6158e4565b6020026020010151602001516001600160a01b031603613fde57809150613ff0565b80613fe881615910565b915050613f96565b5060008167ffffffffffffffff81111561400c5761400c615216565b60405190808252806020026020018201604052801561405157816020015b604080518082019091526000808252602082015281526020019060019003908161402a5790505b50905060005b828110156140a957838181518110614071576140716158e4565b602002602001015182828151811061408b5761408b6158e4565b602002602001018190525080806140a190615910565b915050614057565b50979650505050505050565b4264ffffffffff16336001600160a01b03167f34f43abf7a52b609b04511ed963a29ebb76ae3e0ca0ff5594be1c2a84ebd03f2836000015184602001518560400151866060015187608001518860a0015160405161411896959493929190615a89565b60405180910390a350565b61412b614436565b6001600160a01b03821661413e57600080fd5b6141478261447f565b156141785760405162461bcd60e51b81526020600482015260016024820152603160f81b6044820152606401610641565b604080516060810182526001600160a01b03938416808252602080830194855260018385018181526000938452600590925293909120915182546001600160a01b031916951694909417815591519082015590516002909101805460ff1916911515919091179055565b600881815481106141f257600080fd5b6000918252602090912001546001600160a01b0316905081565b60408051608081018252600080825260208201526060918101829052818101919091526001600160a01b038281166000908152600760209081526040808320815160808101835281549586168152600160a01b90950460ff1615158584015260018101805483518186028101860185528181529295938701949293919290919084015b82821015614345576000848152602090819020604080516080810182526002860290920180548352600181015461ffff81169484019490945291929083019062010000900460ff1660038111156142e8576142e861515f565b60038111156142f9576142f961515f565b81526020016001820160039054906101000a900460ff1660028111156143215761432161515f565b60028111156143325761433261515f565b815250508152602001906001019061428f565b50505050815260200160028201805480602002602001604051908101604052809291908181526020016000905b82821015614428576000848152602090819020604080516080810182526002860290920180548352600181015461ffff81169484019490945291929083019062010000900460ff1660038111156143cb576143cb61515f565b60038111156143dc576143dc61515f565b81526020016001820160039054906101000a900460ff1660028111156144045761440461515f565b60028111156144155761441561515f565b8152505081526020019060010190614372565b505050915250909392505050565b600654660100000000000090046001600160a01b03163314613b2c5760405162461bcd60e51b8152602060048201526002602482015261189b60f11b6044820152606401610641565b6001600160a01b03811660009081526005602052604081206002015460ff166144a9576000612b42565b600192915050565b33613b2c5760405162461bcd60e51b81526020600482015260016024820152603360f81b6044820152606401610641565b6040805161010081018252600080825260208201819052918101829052606081018290526080810182905260a0810182905260c0810182905260e08101919091526040516bffffffffffffffffffffffff193360601b16602082015244603482015242605482015260009060740160408051601f1981840301815282825280516020918201206101008401835280845290830189905233918301919091526001600160a01b038716606083015260016080830152600060a0830152915060c081018560038111156145b5576145b561515f565b81526020018461ffff16815250915050949350505050565b33600090815260076020526040812054600160a01b900460ff161515900361465b5733600081815260076020526040812080546001600160a01b03199081168417825560088054600181019091557ff3f7a9fe364faab93b216da50a3214154f22a0a2b415b23a84c8169e8b636ee301805490911684179055919052805460ff60a01b1916600160a01b1790555b801561470d5733600090815260076020908152604080832060029081018054600180820183559186529484902087519590920290910193845591850151918301805461ffff19811661ffff909416938417825591860151869493909262ffffff191617620100008360038111156146d4576146d461515f565b0217905550606082015160018201805463ff000000191663010000008360028111156147025761470261515f565b021790555050505050565b33600090815260076020908152604080832060019081018054808301825590855293839020865160029095020193845591850151918301805461ffff19811661ffff909416938417825591860151869493909262ffffff191617620100008360038111156146d4576146d461515f565b60008060405180608001604052808781526020018661ffff1681526020018560038111156147ad576147ad61515f565b81526020018460028111156147c4576147c461515f565b815250905060006147e2826000015183604001518460200151610b67565b90508060800151156147f957600192505050614800565b6000925050505b949350505050565b60008061481486614bb0565b905060008060008560ff1660000361483a57836020015161ffff169250600791506148c1565b8560ff166001036148715761485f846080015161ffff168560a0015161ffff16614e47565b845161ffff16935091508190506148c1565b8560ff166002036148a557614896846060015161ffff16856080015161ffff16614ecd565b61ffff169250605a91506148c1565b8560ff166003036148c157836060015161ffff16925061016d91505b8560ff1660010361497c57600061016d6148dc89600c6159d2565b6148e6919061598e565b9050838964ffffffffff161415801561490557508864ffffffffff1684115b156149365761491b64ffffffffff8a1685615a12565b6149259084615a12565b61492f90826159d2565b9750614976565b838964ffffffffff161415801561495357508864ffffffffff1684105b15614976576149698464ffffffffff8b16615a12565b61497390826159d2565b97505b50614a44565b60ff8616158061498f57508560ff166002145b8061499d57508560ff166003145b15614a4457828864ffffffffff16141580156149bf57508764ffffffffff1683115b156149fa576149d564ffffffffff891684615a12565b6149df9083615a12565b6149e9838961598e565b6149f391906159d2565b9650614a44565b828864ffffffffff1614158015614a1757508764ffffffffff1683105b15614a4457614a2d8364ffffffffff8a16615a12565b614a37838961598e565b614a4191906159d2565b96505b5094979650505050505050565b6000828152600b602052604081208054909190815b81811015614ae957846001600160a01b0316848281548110614a8a57614a8a6158e4565b6000918252602090912001546001600160a01b031603614ad757809250838181548110614ab957614ab96158e4565b600091825260209091200180546001600160a01b0319169055614ae9565b80614ae181615910565b915050614a66565b5082548390614afa90600190615a12565b81548110614b0a57614b0a6158e4565b9060005260206000200160009054906101000a90046001600160a01b0316838381548110614b3a57614b3a6158e4565b9060005260206000200160006101000a8154816001600160a01b0302191690836001600160a01b0316021790555082805480614b7857614b78615b0b565b600082815260209020810160001990810180546001600160a01b03191690550190555050505050565b6000612b426201518083615b21565b6040805160c081018252600080825260208201819052918101829052606081018290526080810182905260a0810182905290614bef620151808461598e565b90506000808281614c038262010bd9615b45565b614c109062253d8c615b45565b9050600062023ab1614c23836004615b65565b614c2d9190615b95565b90506004614c3e8262023ab1615b65565b614c49906003615b45565b614c539190615b95565b614c5d9083615bc3565b9150600062164b09614c70846001615b45565b614c7c90610fa0615b65565b614c869190615b95565b90506004614c96826105b5615b65565b614ca09190615b95565b614caa9084615bc3565b614cb590601f615b45565b9250600061098f614cc7856050615b65565b614cd19190615b95565b905060006050614ce38361098f615b65565b614ced9190615b95565b614cf79086615bc3565b9050614d04600b83615b95565b9450614d1185600c615b65565b614d1c836002615b45565b614d269190615bc3565b91508483614d35603187615bc3565b614d40906064615b65565b614d4a9190615b45565b614d549190615b45565b909750915086828282600060015b838111614dae57838103614d8557614d7e61ffff8e16836159a2565b9150614d9c565b614d8f8585614e47565b614d9990836159a2565b91505b80614da681615910565b915050614d62565b50809a50614dc08b61ffff1685614ecd565b61ffff1660408f0152614dd28f614f9b565b8e6020019061ffff16908161ffff16815250508b8e6000019061ffff16908161ffff16815250508a8e6060019061ffff16908161ffff1681525050838e6080019061ffff16908161ffff1681525050828e60a0019061ffff16908161ffff168152505050505050505050505050505050919050565b60008160011480614e585750816003145b80614e635750816005145b80614e6e5750816007145b80614e795750816008145b80614e84575081600a145b80614e8f575081600c145b15614e9c5750601f612b42565b81600214614eac5750601e612b42565b614eb583614fd1565b614ec057601c614ec3565b601d5b60ff169392505050565b600080614ed983614fd1565b15614ee657506001614eea565b5060005b614ef581605a6159a2565b8411614f0357839150614f94565b83614f0f82605a6159a2565b108015614f265750614f228160b56159a2565b8411155b15614f4757614f3681605a6159a2565b614f409085615a12565b9150614f94565b83614f538260b56159a2565b108015614f6b5750614f67816101116159a2565b8411155b15614f7b57614f368160b56159a2565b614f87816101116159a2565b614f919085615a12565b91505b5092915050565b600080614fab620151808461598e565b905060006007614fbc8360036159a2565b614fc69190615be3565b6148009060016159a2565b6000614fde600483615be3565b158015614ff45750614ff1606483615be3565b15155b80612b42575061500661019083615be3565b1592915050565b6001600160a01b0381168114613b2a57600080fd5b803561502d8161500d565b919050565b60006020828403121561504457600080fd5b813561504f8161500d565b9392505050565b60006040828403121561506857600080fd5b50919050565b80356004811061502d57600080fd5b803561ffff8116811461502d57600080fd5b600080600080600060a086880312156150a757600080fd5b8535945060208601356150b98161500d565b9350604086013567ffffffffffffffff8111156150d557600080fd5b6150e188828901615056565b9350506150f06060870161506e565b91506150fe6080870161507d565b90509295509295909350565b60006020828403121561511c57600080fd5b5035919050565b60008060006060848603121561513857600080fd5b833592506151486020850161506e565b91506151566040850161507d565b90509250925092565b634e487b7160e01b600052602160045260246000fd5b600481106151855761518561515f565b9052565b805182526020810151602083015260408101516001600160a01b038082166040850152806060840151166060850152505060808101511515608083015260a0810151151560a083015260c08101516151e460c0840182615175565b5060e09081015161ffff16910152565b6101008101612b428284615189565b6000610100828403121561506857600080fd5b634e487b7160e01b600052604160045260246000fd5b60405160c0810167ffffffffffffffff8111828210171561524f5761524f615216565b60405290565b8015158114613b2a57600080fd5b803561502d81615255565b600061010080838503121561528257600080fd5b6040519081019067ffffffffffffffff821181831017156152a5576152a5615216565b604091825283358152602080850135908201529150820135816152c78261500d565b8160408201526152d960608501615022565b60608201526152ea60808501615263565b60808201526152fb60a08501615263565b60a082015261530c60c0850161506e565b60c082015261531d60e0850161507d565b60e0820152505092915050565b6000610100828403121561533d57600080fd5b61504f838361526e565b602080825282518282018190526000919060409081850190868401855b8281101561539257815180516001600160a01b03168552860151868501529284019290850190600101615364565b5091979650505050505050565b600080604083850312156153b257600080fd5b82356153bd81615255565b915060208301356153cd8161500d565b809150509250929050565b600381106151855761518561515f565b602080825282518282018190526000919060409081850190868401855b8281101561539257815161541a858251615189565b8681015161542c6101008701826153d8565b508501516101208501526101409093019290850190600101615405565b600080610120838503121561545d57600080fd5b615467848461526e565b91506101008301356153cd8161500d565b60006020828403121561548a57600080fd5b813561504f81615255565b600080604083850312156154a857600080fd5b823567ffffffffffffffff8111156154bf57600080fd5b6154cb85828601615056565b95602094909401359450505050565b602080825282518282018190526000919060409081850190868401855b82811015615392578151805185528601516001600160a01b03168685015292840192908501906001016154f7565b6000806040838503121561553857600080fd5b8235915060208301356153cd8161500d565b600082601f83011261555b57600080fd5b813567ffffffffffffffff8082111561557657615576615216565b604051601f8301601f19908116603f0116810190828211818310171561559e5761559e615216565b816040528381528660208588010111156155b757600080fd5b836020870160208301376000602085830101528094505050505092915050565b6000602082840312156155e957600080fd5b813567ffffffffffffffff8082111561560157600080fd5b9083019060c0828603121561561557600080fd5b61561d61522c565b82358281111561562c57600080fd5b6156388782860161554a565b82525060208301358281111561564d57600080fd5b6156598782860161554a565b60208301525060408301358281111561567157600080fd5b61567d8782860161554a565b60408301525060608301358281111561569557600080fd5b6156a18782860161554a565b6060830152506080830135828111156156b957600080fd5b6156c58782860161554a565b60808301525060a0830135828111156156dd57600080fd5b6156e98782860161554a565b60a08301525095945050505050565b6000806040838503121561570b57600080fd5b82356157168161500d565b946020939093013593505050565b600081518084526020808501945080840160005b8381101561578e5781518051885261ffff848201511684890152604080820151615764828b0182615175565b505060609081015190615779898201836153d8565b50506080969096019590820190600101615738565b509495945050505050565b602081526001600160a01b03825116602082015260208201511515604082015260006040830151608060608401526157d460a0840182615724565b90506060840151601f198483030160808501526157f18282615724565b95945050505050565b6000808335601e1984360301811261581157600080fd5b83018035915067ffffffffffffffff82111561582c57600080fd5b60200191503681900382131561584157600080fd5b9250929050565b81835281816020850137506000828201602090810191909152601f909101601f19169091010190565b604081526000615885604083018688615848565b8281036020840152615898818587615848565b979650505050505050565b600a81106151855761518561515f565b64ffffffffff85168152602081018490526001600160a01b0383166040820152608081016157f160608301846158a3565b634e487b7160e01b600052603260045260246000fd5b634e487b7160e01b600052601160045260246000fd5b600060018201615922576159226158fa565b5060010190565b60006020828403121561593b57600080fd5b5051919050565b60006020828403121561595457600080fd5b61504f8261507d565b60006020828403121561596f57600080fd5b61504f8261506e565b634e487b7160e01b600052601260045260246000fd5b60008261599d5761599d615978565b500490565b80820180821115612b4257612b426158fa565b6000602082840312156159c757600080fd5b815161504f81615255565b8082028115828204841417612b4257612b426158fa565b64ffffffffff818116838216028082169190828114615a0a57615a0a6158fa565b505092915050565b81810381811115612b4257612b426158fa565b64ffffffffff818116838216019080821115614f9457614f946158fa565b6000815180845260005b81811015615a6957602081850181015186830182015201615a4d565b506000602082860101526020601f19601f83011685010191505092915050565b60c081526000615a9c60c0830189615a43565b8281036020840152615aae8189615a43565b90508281036040840152615ac28188615a43565b90508281036060840152615ad68187615a43565b90508281036080840152615aea8186615a43565b905082810360a0840152615afe8185615a43565b9998505050505050505050565b634e487b7160e01b600052603160045260246000fd5b600064ffffffffff80841680615b3957615b39615978565b92169190910492915050565b8082018281126000831280158216821582161715615a0a57615a0a6158fa565b80820260008212600160ff1b84141615615b8157615b816158fa565b8181058314821517612b4257612b426158fa565b600082615ba457615ba4615978565b600160ff1b821460001984141615615bbe57615bbe6158fa565b500590565b8181036000831280158383131683831282161715614f9457614f946158fa565b600082615bf257615bf2615978565b50069056feca6b824caf1a48ea2ad039dbb063460fa30e9c3cc255eeb52240d638ec6de65ea26469706673582212208f957fd97f68da958895cbc348effcdd8e15f041b5d3415772e65e76d08be0ea64736f6c63430008150033","opcodes":"PUSH1 0x80 PUSH1 0x40 MSTORE PUSH2 0x27D8 PUSH1 0x0 SSTORE PUSH7 0x2386F26FC10000 PUSH1 0x1 SSTORE PUSH1 0x5 PUSH1 0x2 SWAP1 DUP2 SSTORE PUSH1 0x6 DUP1 SLOAD PUSH1 0xFF PUSH1 0xD8 SHL NOT AND SWAP1 SSTORE PUSH3 0x34 TIMESTAMP PUSH3 0x95 JUMP JUMPDEST PUSH3 0x40 SWAP2 SWAP1 PUSH3 0xAC JUMP JUMPDEST PUSH1 0x6 DUP1 SLOAD PUSH2 0x100 PUSH1 0x1 PUSH1 0xD0 SHL SUB NOT AND PUSH2 0x100 PUSH5 0xFFFFFFFFFF SWAP4 SWAP1 SWAP4 AND SWAP3 SWAP1 SWAP3 MUL PUSH1 0x1 PUSH1 0x30 SHL PUSH1 0x1 PUSH1 0xD0 SHL SUB NOT AND SWAP2 SWAP1 SWAP2 OR PUSH26 0xF39FD6E51AAD88F6F4CE6AB8827279CFFFB92266000000000000 OR SWAP1 SSTORE PUSH3 0x113 JUMP JUMPDEST PUSH1 0x0 PUSH3 0xA6 PUSH3 0x15180 DUP4 PUSH3 0xE0 JUMP JUMPDEST SWAP3 SWAP2 POP POP JUMP JUMPDEST PUSH5 0xFFFFFFFFFF DUP3 DUP2 AND DUP3 DUP3 AND SUB SWAP1 DUP1 DUP3 GT ISZERO PUSH3 0xD9 JUMPI PUSH4 0x4E487B71 PUSH1 0xE0 SHL PUSH1 0x0 MSTORE PUSH1 0x11 PUSH1 0x4 MSTORE PUSH1 0x24 PUSH1 0x0 REVERT JUMPDEST POP SWAP3 SWAP2 POP POP JUMP JUMPDEST PUSH1 0x0 PUSH5 0xFFFFFFFFFF DUP1 DUP5 AND DUP1 PUSH3 0x107 JUMPI PUSH4 0x4E487B71 PUSH1 0xE0 SHL PUSH1 0x0 MSTORE PUSH1 0x12 PUSH1 0x4 MSTORE PUSH1 0x24 PUSH1 0x0 REVERT JUMPDEST SWAP3 AND SWAP2 SWAP1 SWAP2 DIV SWAP3 SWAP2 POP POP JUMP JUMPDEST PUSH2 0x5C4D DUP1 PUSH3 0x123 PUSH1 0x0 CODECOPY PUSH1 0x0 RETURN INVALID PUSH1 0x80 PUSH1 0x40 MSTORE PUSH1 0x4 CALLDATASIZE LT PUSH2 0x1B9 JUMPI PUSH1 0x0 CALLDATALOAD PUSH1 0xE0 SHR DUP1 PUSH4 0x907CEDB2 GT PUSH2 0xEB JUMPI DUP1 PUSH4 0xD10F9E69 GT PUSH2 0x8F JUMPI DUP1 PUSH4 0xED601D28 GT PUSH2 0x61 JUMPI DUP1 PUSH4 0xED601D28 EQ PUSH2 0x54C JUMPI DUP1 PUSH4 0xF25E13C9 EQ PUSH2 0x56C JUMPI DUP1 PUSH4 0xF4A2A200 EQ PUSH2 0x58C JUMPI DUP1 PUSH4 0xFBCBC0F1 EQ PUSH2 0x5C4 JUMPI STOP JUMPDEST DUP1 PUSH4 0xD10F9E69 EQ PUSH2 0x499 JUMPI DUP1 PUSH4 0xDA854A96 EQ PUSH2 0x4B9 JUMPI DUP1 PUSH4 0xE63D35BE EQ PUSH2 0x4F2 JUMPI DUP1 PUSH4 0xEBEC6EAA EQ PUSH2 0x514 JUMPI STOP JUMPDEST DUP1 PUSH4 0xB4761DE9 GT PUSH2 0xC8 JUMPI DUP1 PUSH4 0xB4761DE9 EQ PUSH2 0x3DE JUMPI DUP1 PUSH4 0xBD743886 EQ PUSH2 0x3FE JUMPI DUP1 PUSH4 0xC8796572 EQ PUSH2 0x46E JUMPI DUP1 PUSH4 0xCAB1C965 EQ PUSH2 0x483 JUMPI STOP JUMPDEST DUP1 PUSH4 0x907CEDB2 EQ PUSH2 0x389 JUMPI DUP1 PUSH4 0x9889552E EQ PUSH2 0x3A9 JUMPI DUP1 PUSH4 0xB25AE32C EQ PUSH2 0x3C9 JUMPI STOP JUMPDEST DUP1 PUSH4 0x3C95DAD5 GT PUSH2 0x15D JUMPI DUP1 PUSH4 0x86525A00 GT PUSH2 0x12F JUMPI DUP1 PUSH4 0x86525A00 EQ PUSH2 0x2FC JUMPI DUP1 PUSH4 0x87D888D3 EQ PUSH2 0x329 JUMPI DUP1 PUSH4 0x8EF0EF1C EQ PUSH2 0x349 JUMPI DUP1 PUSH4 0x8F283970 EQ PUSH2 0x369 JUMPI STOP JUMPDEST DUP1 PUSH4 0x3C95DAD5 EQ PUSH2 0x2A1 JUMPI DUP1 PUSH4 0x44E49769 EQ PUSH2 0x2B4 JUMPI DUP1 PUSH4 0x7507BA39 EQ PUSH2 0x2C7 JUMPI DUP1 PUSH4 0x7BBF5A6E EQ PUSH2 0x2CF JUMPI STOP JUMPDEST DUP1 PUSH4 0x1F17EE55 GT PUSH2 0x196 JUMPI DUP1 PUSH4 0x1F17EE55 EQ PUSH2 0x215 JUMPI DUP1 PUSH4 0x27EA9773 EQ PUSH2 0x23E JUMPI DUP1 PUSH4 0x2D23F7E7 EQ PUSH2 0x25E JUMPI DUP1 PUSH4 0x34D441D0 EQ PUSH2 0x28B JUMPI STOP JUMPDEST DUP1 PUSH4 0x53149FA EQ PUSH2 0x1C2 JUMPI DUP1 PUSH4 0xB8590C7 EQ PUSH2 0x1E2 JUMPI DUP1 PUSH4 0xBEC99E8 EQ PUSH2 0x1F5 JUMPI STOP JUMPDEST CALLDATASIZE PUSH2 0x1C0 JUMPI STOP JUMPDEST STOP JUMPDEST CALLVALUE DUP1 ISZERO PUSH2 0x1CE JUMPI PUSH1 0x0 DUP1 REVERT JUMPDEST POP PUSH2 0x1C0 PUSH2 0x1DD CALLDATASIZE PUSH1 0x4 PUSH2 0x5032 JUMP JUMPDEST PUSH2 0x5F1 JUMP JUMPDEST PUSH2 0x1C0 PUSH2 0x1F0 CALLDATASIZE PUSH1 0x4 PUSH2 0x508F JUMP JUMPDEST PUSH2 0x684 JUMP JUMPDEST CALLVALUE DUP1 ISZERO PUSH2 0x201 JUMPI PUSH1 0x0 DUP1 REVERT JUMPDEST POP PUSH2 0x1C0 PUSH2 0x210 CALLDATASIZE PUSH1 0x4 PUSH2 0x510A JUMP JUMPDEST PUSH2 0xB4D JUMP JUMPDEST CALLVALUE DUP1 ISZERO PUSH2 0x221 JUMPI PUSH1 0x0 DUP1 REVERT JUMPDEST POP PUSH2 0x22B PUSH1 0x1 SLOAD DUP2 JUMP JUMPDEST PUSH1 0x40 MLOAD SWAP1 DUP2 MSTORE PUSH1 0x20 ADD JUMPDEST PUSH1 0x40 MLOAD DUP1 SWAP2 SUB SWAP1 RETURN JUMPDEST CALLVALUE DUP1 ISZERO PUSH2 0x24A JUMPI PUSH1 0x0 DUP1 REVERT JUMPDEST POP PUSH2 0x1C0 PUSH2 0x259 CALLDATASIZE PUSH1 0x4 PUSH2 0x510A JUMP JUMPDEST PUSH2 0xB5A JUMP JUMPDEST CALLVALUE DUP1 ISZERO PUSH2 0x26A JUMPI PUSH1 0x0 DUP1 REVERT JUMPDEST POP PUSH2 0x27E PUSH2 0x279 CALLDATASIZE PUSH1 0x4 PUSH2 0x5123 JUMP JUMPDEST PUSH2 0xB67 JUMP JUMPDEST PUSH1 0x40 MLOAD PUSH2 0x235 SWAP2 SWAP1 PUSH2 0x51F4 JUMP JUMPDEST CALLVALUE DUP1 ISZERO PUSH2 0x297 JUMPI PUSH1 0x0 DUP1 REVERT JUMPDEST POP PUSH2 0x22B PUSH1 0x0 SLOAD DUP2 JUMP JUMPDEST PUSH2 0x1C0 PUSH2 0x2AF CALLDATASIZE PUSH1 0x4 PUSH2 0x5203 JUMP JUMPDEST PUSH2 0xD49 JUMP JUMPDEST PUSH2 0x1C0 PUSH2 0x2C2 CALLDATASIZE PUSH1 0x4 PUSH2 0x532A JUMP JUMPDEST PUSH2 0x139F JUMP JUMPDEST PUSH2 0x1C0 PUSH2 0x1762 JUMP JUMPDEST CALLVALUE DUP1 ISZERO PUSH2 0x2DB JUMPI PUSH1 0x0 DUP1 REVERT JUMPDEST POP PUSH2 0x2EF PUSH2 0x2EA CALLDATASIZE PUSH1 0x4 PUSH2 0x510A JUMP JUMPDEST PUSH2 0x2546 JUMP JUMPDEST PUSH1 0x40 MLOAD PUSH2 0x235 SWAP2 SWAP1 PUSH2 0x5347 JUMP JUMPDEST CALLVALUE DUP1 ISZERO PUSH2 0x308 JUMPI PUSH1 0x0 DUP1 REVERT JUMPDEST POP PUSH2 0x31C PUSH2 0x317 CALLDATASIZE PUSH1 0x4 PUSH2 0x539F JUMP JUMPDEST PUSH2 0x2747 JUMP JUMPDEST PUSH1 0x40 MLOAD PUSH2 0x235 SWAP2 SWAP1 PUSH2 0x53E8 JUMP JUMPDEST CALLVALUE DUP1 ISZERO PUSH2 0x335 JUMPI PUSH1 0x0 DUP1 REVERT JUMPDEST POP PUSH2 0x1C0 PUSH2 0x344 CALLDATASIZE PUSH1 0x4 PUSH2 0x5203 JUMP JUMPDEST PUSH2 0x2B48 JUMP JUMPDEST CALLVALUE DUP1 ISZERO PUSH2 0x355 JUMPI PUSH1 0x0 DUP1 REVERT JUMPDEST POP PUSH2 0x1C0 PUSH2 0x364 CALLDATASIZE PUSH1 0x4 PUSH2 0x510A JUMP JUMPDEST PUSH2 0x35B7 JUMP JUMPDEST CALLVALUE DUP1 ISZERO PUSH2 0x375 JUMPI PUSH1 0x0 DUP1 REVERT JUMPDEST POP PUSH2 0x1C0 PUSH2 0x384 CALLDATASIZE PUSH1 0x4 PUSH2 0x5032 JUMP JUMPDEST PUSH2 0x35C4 JUMP JUMPDEST CALLVALUE DUP1 ISZERO PUSH2 0x395 JUMPI PUSH1 0x0 DUP1 REVERT JUMPDEST POP PUSH2 0x1C0 PUSH2 0x3A4 CALLDATASIZE PUSH1 0x4 PUSH2 0x5449 JUMP JUMPDEST PUSH2 0x3623 JUMP JUMPDEST CALLVALUE DUP1 ISZERO PUSH2 0x3B5 JUMPI PUSH1 0x0 DUP1 REVERT JUMPDEST POP PUSH2 0x1C0 PUSH2 0x3C4 CALLDATASIZE PUSH1 0x4 PUSH2 0x5478 JUMP JUMPDEST PUSH2 0x3A7F JUMP JUMPDEST CALLVALUE DUP1 ISZERO PUSH2 0x3D5 JUMPI PUSH1 0x0 DUP1 REVERT JUMPDEST POP PUSH1 0x8 SLOAD PUSH2 0x22B JUMP JUMPDEST CALLVALUE DUP1 ISZERO PUSH2 0x3EA JUMPI PUSH1 0x0 DUP1 REVERT JUMPDEST POP PUSH2 0x1C0 PUSH2 0x3F9 CALLDATASIZE PUSH1 0x4 PUSH2 0x5478 JUMP JUMPDEST PUSH2 0x3AA5 JUMP JUMPDEST CALLVALUE DUP1 ISZERO PUSH2 0x40A JUMPI PUSH1 0x0 DUP1 REVERT JUMPDEST POP PUSH2 0x447 PUSH2 0x419 CALLDATASIZE PUSH1 0x4 PUSH2 0x5032 JUMP JUMPDEST PUSH1 0x5 PUSH1 0x20 MSTORE PUSH1 0x0 SWAP1 DUP2 MSTORE PUSH1 0x40 SWAP1 KECCAK256 DUP1 SLOAD PUSH1 0x1 DUP3 ADD SLOAD PUSH1 0x2 SWAP1 SWAP3 ADD SLOAD PUSH1 0x1 PUSH1 0x1 PUSH1 0xA0 SHL SUB SWAP1 SWAP2 AND SWAP2 SWAP1 PUSH1 0xFF AND DUP4 JUMP JUMPDEST PUSH1 0x40 DUP1 MLOAD PUSH1 0x1 PUSH1 0x1 PUSH1 0xA0 SHL SUB SWAP1 SWAP5 AND DUP5 MSTORE PUSH1 0x20 DUP5 ADD SWAP3 SWAP1 SWAP3 MSTORE ISZERO ISZERO SWAP1 DUP3 ADD MSTORE PUSH1 0x60 ADD PUSH2 0x235 JUMP JUMPDEST CALLVALUE DUP1 ISZERO PUSH2 0x47A JUMPI PUSH1 0x0 DUP1 REVERT JUMPDEST POP PUSH2 0x1C0 PUSH2 0x3ACB JUMP JUMPDEST CALLVALUE DUP1 ISZERO PUSH2 0x48F JUMPI PUSH1 0x0 DUP1 REVERT JUMPDEST POP PUSH2 0x22B PUSH1 0x2 SLOAD DUP2 JUMP JUMPDEST CALLVALUE DUP1 ISZERO PUSH2 0x4A5 JUMPI PUSH1 0x0 DUP1 REVERT JUMPDEST POP PUSH2 0x1C0 PUSH2 0x4B4 CALLDATASIZE PUSH1 0x4 PUSH2 0x5495 JUMP JUMPDEST PUSH2 0x3B2E JUMP JUMPDEST CALLVALUE DUP1 ISZERO PUSH2 0x4C5 JUMPI PUSH1 0x0 DUP1 REVERT JUMPDEST POP PUSH1 0x6 SLOAD PUSH2 0x4DC SWAP1 PUSH2 0x100 SWAP1 DIV PUSH5 0xFFFFFFFFFF AND DUP2 JUMP JUMPDEST PUSH1 0x40 MLOAD PUSH5 0xFFFFFFFFFF SWAP1 SWAP2 AND DUP2 MSTORE PUSH1 0x20 ADD PUSH2 0x235 JUMP JUMPDEST CALLVALUE DUP1 ISZERO PUSH2 0x4FE JUMPI PUSH1 0x0 DUP1 REVERT JUMPDEST POP PUSH2 0x507 PUSH2 0x3BEA JUMP JUMPDEST PUSH1 0x40 MLOAD PUSH2 0x235 SWAP2 SWAP1 PUSH2 0x54DA JUMP JUMPDEST CALLVALUE DUP1 ISZERO PUSH2 0x520 JUMPI PUSH1 0x0 DUP1 REVERT JUMPDEST POP PUSH2 0x22B PUSH2 0x52F CALLDATASIZE PUSH1 0x4 PUSH2 0x5525 JUMP JUMPDEST PUSH1 0x9 PUSH1 0x20 SWAP1 DUP2 MSTORE PUSH1 0x0 SWAP3 DUP4 MSTORE PUSH1 0x40 DUP1 DUP5 KECCAK256 SWAP1 SWAP2 MSTORE SWAP1 DUP3 MSTORE SWAP1 KECCAK256 SLOAD DUP2 JUMP JUMPDEST CALLVALUE DUP1 ISZERO PUSH2 0x558 JUMPI PUSH1 0x0 DUP1 REVERT JUMPDEST POP PUSH2 0x1C0 PUSH2 0x567 CALLDATASIZE PUSH1 0x4 PUSH2 0x55D7 JUMP JUMPDEST PUSH2 0x40B5 JUMP JUMPDEST CALLVALUE DUP1 ISZERO PUSH2 0x578 JUMPI PUSH1 0x0 DUP1 REVERT JUMPDEST POP PUSH2 0x1C0 PUSH2 0x587 CALLDATASIZE PUSH1 0x4 PUSH2 0x56F8 JUMP JUMPDEST PUSH2 0x4123 JUMP JUMPDEST CALLVALUE DUP1 ISZERO PUSH2 0x598 JUMPI PUSH1 0x0 DUP1 REVERT JUMPDEST POP PUSH2 0x5AC PUSH2 0x5A7 CALLDATASIZE PUSH1 0x4 PUSH2 0x510A JUMP JUMPDEST PUSH2 0x41E2 JUMP JUMPDEST PUSH1 0x40 MLOAD PUSH1 0x1 PUSH1 0x1 PUSH1 0xA0 SHL SUB SWAP1 SWAP2 AND DUP2 MSTORE PUSH1 0x20 ADD PUSH2 0x235 JUMP JUMPDEST CALLVALUE DUP1 ISZERO PUSH2 0x5D0 JUMPI PUSH1 0x0 DUP1 REVERT JUMPDEST POP PUSH2 0x5E4 PUSH2 0x5DF CALLDATASIZE PUSH1 0x4 PUSH2 0x5032 JUMP JUMPDEST PUSH2 0x420C JUMP JUMPDEST PUSH1 0x40 MLOAD PUSH2 0x235 SWAP2 SWAP1 PUSH2 0x5799 JUMP JUMPDEST PUSH2 0x5F9 PUSH2 0x4436 JUMP JUMPDEST PUSH1 0x1 PUSH1 0x1 PUSH1 0xA0 SHL SUB DUP2 AND PUSH2 0x60C JUMPI PUSH1 0x0 DUP1 REVERT JUMPDEST PUSH2 0x615 DUP2 PUSH2 0x447F JUMP JUMPDEST PUSH2 0x64A JUMPI PUSH1 0x40 MLOAD PUSH3 0x461BCD PUSH1 0xE5 SHL DUP2 MSTORE PUSH1 0x20 PUSH1 0x4 DUP3 ADD MSTORE PUSH1 0x1 PUSH1 0x24 DUP3 ADD MSTORE PUSH1 0x19 PUSH1 0xF9 SHL PUSH1 0x44 DUP3 ADD MSTORE PUSH1 0x64 ADD JUMPDEST PUSH1 0x40 MLOAD DUP1 SWAP2 SUB SWAP1 REVERT JUMPDEST PUSH1 0x1 PUSH1 0x1 PUSH1 0xA0 SHL SUB AND PUSH1 0x0 SWAP1 DUP2 MSTORE PUSH1 0x5 PUSH1 0x20 MSTORE PUSH1 0x40 DUP2 KECCAK256 DUP1 SLOAD PUSH1 0x1 PUSH1 0x1 PUSH1 0xA0 SHL SUB NOT AND DUP2 SSTORE PUSH1 0x1 DUP2 ADD SWAP2 SWAP1 SWAP2 SSTORE PUSH1 0x2 ADD DUP1 SLOAD PUSH1 0xFF NOT AND SWAP1 SSTORE JUMP JUMPDEST PUSH2 0x68C PUSH2 0x44B1 JUMP JUMPDEST PUSH1 0x1 PUSH1 0x1 PUSH1 0xA0 SHL SUB DUP5 AND PUSH2 0x6C6 JUMPI PUSH1 0x40 MLOAD PUSH3 0x461BCD PUSH1 0xE5 SHL DUP2 MSTORE PUSH1 0x20 PUSH1 0x4 DUP3 ADD MSTORE PUSH1 0x1 PUSH1 0x24 DUP3 ADD MSTORE PUSH1 0x7 PUSH1 0xFB SHL PUSH1 0x44 DUP3 ADD MSTORE PUSH1 0x64 ADD PUSH2 0x641 JUMP JUMPDEST PUSH1 0x6 SLOAD PUSH1 0x1 PUSH1 0xD8 SHL SWAP1 DIV PUSH1 0xFF AND ISZERO PUSH2 0x70E JUMPI CALLVALUE PUSH1 0x1 SLOAD GT ISZERO PUSH2 0x70E JUMPI PUSH1 0x40 MLOAD PUSH3 0x461BCD PUSH1 0xE5 SHL DUP2 MSTORE PUSH1 0x20 PUSH1 0x4 DUP3 ADD MSTORE PUSH1 0x1 PUSH1 0x24 DUP3 ADD MSTORE PUSH1 0x35 PUSH1 0xF8 SHL PUSH1 0x44 DUP3 ADD MSTORE PUSH1 0x64 ADD PUSH2 0x641 JUMP JUMPDEST PUSH2 0x717 DUP5 PUSH2 0x447F JUMP JUMPDEST PUSH2 0x747 JUMPI PUSH1 0x40 MLOAD PUSH3 0x461BCD PUSH1 0xE5 SHL DUP2 MSTORE PUSH1 0x20 PUSH1 0x4 DUP3 ADD MSTORE PUSH1 0x1 PUSH1 0x24 DUP3 ADD MSTORE PUSH1 0x39 PUSH1 0xF8 SHL PUSH1 0x44 DUP3 ADD MSTORE PUSH1 0x64 ADD PUSH2 0x641 JUMP JUMPDEST PUSH1 0x0 DUP3 PUSH1 0x3 DUP2 GT ISZERO PUSH2 0x75B JUMPI PUSH2 0x75B PUSH2 0x515F JUMP JUMPDEST SUB PUSH2 0x7AA JUMPI DUP1 PUSH2 0xFFFF AND PUSH1 0x0 LT DUP1 ISZERO PUSH2 0x779 JUMPI POP PUSH1 0x7 DUP2 PUSH2 0xFFFF AND GT ISZERO JUMPDEST PUSH2 0x7AA JUMPI PUSH1 0x40 MLOAD PUSH3 0x461BCD PUSH1 0xE5 SHL DUP2 MSTORE PUSH1 0x20 PUSH1 0x4 DUP3 ADD MSTORE PUSH1 0x2 PUSH1 0x24 DUP3 ADD MSTORE PUSH2 0x191B PUSH1 0xF1 SHL PUSH1 0x44 DUP3 ADD MSTORE PUSH1 0x64 ADD PUSH2 0x641 JUMP JUMPDEST PUSH1 0x1 DUP3 PUSH1 0x3 DUP2 GT ISZERO PUSH2 0x7BE JUMPI PUSH2 0x7BE PUSH2 0x515F JUMP JUMPDEST SUB PUSH2 0x80D JUMPI DUP1 PUSH2 0xFFFF AND PUSH1 0x0 LT DUP1 ISZERO PUSH2 0x7DC JUMPI POP PUSH1 0x1C DUP2 PUSH2 0xFFFF AND GT ISZERO JUMPDEST PUSH2 0x80D JUMPI PUSH1 0x40 MLOAD PUSH3 0x461BCD PUSH1 0xE5 SHL DUP2 MSTORE PUSH1 0x20 PUSH1 0x4 DUP3 ADD MSTORE PUSH1 0x2 PUSH1 0x24 DUP3 ADD MSTORE PUSH2 0x3237 PUSH1 0xF0 SHL PUSH1 0x44 DUP3 ADD MSTORE PUSH1 0x64 ADD PUSH2 0x641 JUMP JUMPDEST PUSH1 0x2 DUP3 PUSH1 0x3 DUP2 GT ISZERO PUSH2 0x821 JUMPI PUSH2 0x821 PUSH2 0x515F JUMP JUMPDEST SUB PUSH2 0x870 JUMPI DUP1 PUSH2 0xFFFF AND PUSH1 0x0 LT DUP1 ISZERO PUSH2 0x83F JUMPI POP PUSH1 0x5A DUP2 PUSH2 0xFFFF AND GT ISZERO JUMPDEST PUSH2 0x870 JUMPI PUSH1 0x40 MLOAD PUSH3 0x461BCD PUSH1 0xE5 SHL DUP2 MSTORE PUSH1 0x20 PUSH1 0x4 DUP3 ADD MSTORE PUSH1 0x2 PUSH1 0x24 DUP3 ADD MSTORE PUSH2 0x647 PUSH1 0xF3 SHL PUSH1 0x44 DUP3 ADD MSTORE PUSH1 0x64 ADD PUSH2 0x641 JUMP JUMPDEST PUSH1 0x3 DUP3 PUSH1 0x3 DUP2 GT ISZERO PUSH2 0x884 JUMPI PUSH2 0x884 PUSH2 0x515F JUMP JUMPDEST SUB PUSH2 0x8D4 JUMPI DUP1 PUSH2 0xFFFF AND PUSH1 0x0 LT DUP1 ISZERO PUSH2 0x8A3 JUMPI POP PUSH2 0x16D DUP2 PUSH2 0xFFFF AND GT ISZERO JUMPDEST PUSH2 0x8D4 JUMPI PUSH1 0x40 MLOAD PUSH3 0x461BCD PUSH1 0xE5 SHL DUP2 MSTORE PUSH1 0x20 PUSH1 0x4 DUP3 ADD MSTORE PUSH1 0x2 PUSH1 0x24 DUP3 ADD MSTORE PUSH2 0x3239 PUSH1 0xF0 SHL PUSH1 0x44 DUP3 ADD MSTORE PUSH1 0x64 ADD PUSH2 0x641 JUMP JUMPDEST PUSH1 0x1 PUSH1 0x1 PUSH1 0xA0 SHL SUB DUP5 AND PUSH1 0x0 SWAP1 DUP2 MSTORE PUSH1 0x5 PUSH1 0x20 MSTORE PUSH1 0x40 SWAP1 KECCAK256 PUSH1 0x1 ADD SLOAD DUP6 LT ISZERO PUSH2 0x924 JUMPI PUSH1 0x40 MLOAD PUSH3 0x461BCD PUSH1 0xE5 SHL DUP2 MSTORE PUSH1 0x20 PUSH1 0x4 DUP3 ADD MSTORE PUSH1 0x2 PUSH1 0x24 DUP3 ADD MSTORE PUSH2 0x333 PUSH1 0xF4 SHL PUSH1 0x44 DUP3 ADD MSTORE PUSH1 0x64 ADD PUSH2 0x641 JUMP JUMPDEST PUSH1 0x0 PUSH2 0x932 DUP7 DUP7 DUP6 DUP6 PUSH2 0x44E2 JUMP JUMPDEST SWAP1 POP DUP1 PUSH1 0xA PUSH1 0x0 DUP6 PUSH1 0x3 DUP2 GT ISZERO PUSH2 0x94B JUMPI PUSH2 0x94B PUSH2 0x515F JUMP JUMPDEST DUP2 MSTORE PUSH1 0x20 DUP1 DUP3 ADD SWAP3 SWAP1 SWAP3 MSTORE PUSH1 0x40 SWAP1 DUP2 ADD PUSH1 0x0 SWAP1 DUP2 KECCAK256 PUSH2 0xFFFF DUP8 AND DUP3 MSTORE DUP4 MSTORE DUP2 DUP2 KECCAK256 DUP1 SLOAD PUSH1 0x1 DUP2 DUP2 ADD DUP4 SSTORE SWAP2 DUP4 MSTORE SWAP2 DUP5 SWAP1 KECCAK256 DUP6 MLOAD PUSH1 0x4 SWAP1 SWAP4 MUL ADD SWAP2 DUP3 SSTORE SWAP3 DUP5 ADD MLOAD SWAP3 DUP2 ADD SWAP3 SWAP1 SWAP3 SSTORE DUP3 ADD MLOAD PUSH1 0x2 DUP3 ADD DUP1 SLOAD PUSH1 0x1 PUSH1 0x1 PUSH1 0xA0 SHL SUB SWAP3 DUP4 AND PUSH1 0x1 PUSH1 0x1 PUSH1 0xA0 SHL SUB NOT SWAP1 SWAP2 AND OR SWAP1 SSTORE PUSH1 0x60 DUP4 ADD MLOAD PUSH1 0x3 DUP1 DUP5 ADD DUP1 SLOAD PUSH1 0x80 DUP8 ADD MLOAD PUSH1 0xA0 DUP9 ADD MLOAD ISZERO ISZERO PUSH1 0x1 PUSH1 0xA8 SHL MUL PUSH1 0xFF PUSH1 0xA8 SHL NOT SWAP2 ISZERO ISZERO PUSH1 0x1 PUSH1 0xA0 SHL MUL PUSH21 0xFFFFFFFFFFFFFFFFFFFFFFFFFFFFFFFFFFFFFFFFFF NOT SWAP1 SWAP4 AND SWAP6 SWAP1 SWAP7 AND SWAP5 SWAP1 SWAP5 OR OR SWAP3 DUP4 AND DUP5 OR DUP2 SSTORE PUSH1 0xC0 DUP7 ADD MLOAD SWAP4 SWAP1 SWAP3 PUSH1 0xFF PUSH1 0xB0 SHL NOT SWAP1 SWAP2 AND PUSH2 0xFFFF PUSH1 0xA8 SHL NOT SWAP1 SWAP2 AND OR SWAP1 PUSH1 0x1 PUSH1 0xB0 SHL SWAP1 DUP5 SWAP1 DUP2 GT ISZERO PUSH2 0xA40 JUMPI PUSH2 0xA40 PUSH2 0x515F JUMP JUMPDEST MUL OR SWAP1 SSTORE POP PUSH1 0xE0 SWAP2 DUP3 ADD MLOAD PUSH1 0x3 SWAP2 DUP3 ADD DUP1 SLOAD PUSH2 0xFFFF PUSH1 0xB8 SHL NOT AND PUSH1 0x1 PUSH1 0xB8 SHL PUSH2 0xFFFF SWAP4 DUP5 AND MUL OR SWAP1 SSTORE PUSH1 0x40 DUP1 MLOAD PUSH1 0x80 DUP2 ADD DUP3 MSTORE DUP6 MLOAD DUP2 MSTORE SWAP4 DUP6 ADD MLOAD SWAP1 SWAP2 AND PUSH1 0x20 DUP5 ADD MSTORE PUSH1 0xC0 DUP5 ADD MLOAD PUSH2 0xAB0 SWAP4 SWAP3 SWAP2 DUP4 ADD SWAP2 DUP2 GT ISZERO PUSH2 0xAA0 JUMPI PUSH2 0xAA0 PUSH2 0x515F JUMP JUMPDEST DUP2 MSTORE PUSH1 0x20 ADD PUSH1 0x0 SWAP1 MSTORE PUSH1 0x1 PUSH2 0x45CD JUMP JUMPDEST DUP1 MLOAD PUSH5 0xFFFFFFFFFF TIMESTAMP AND SWAP1 CALLER SWAP1 PUSH32 0x93CDA0785D40B289A535B99DC76D4C9CBB6D8146182861AC3AD40509398B1865 PUSH2 0xAE8 DUP9 DUP1 PUSH2 0x57FA JUMP JUMPDEST PUSH2 0xAF5 PUSH1 0x20 DUP12 ADD DUP12 PUSH2 0x57FA JUMP JUMPDEST PUSH1 0x40 MLOAD PUSH2 0xB05 SWAP5 SWAP4 SWAP3 SWAP2 SWAP1 PUSH2 0x5871 JUMP JUMPDEST PUSH1 0x40 MLOAD DUP1 SWAP2 SUB SWAP1 LOG4 DUP1 MLOAD PUSH1 0x60 DUP3 ADD MLOAD PUSH1 0x40 MLOAD PUSH1 0x0 SWAP3 CALLER SWAP3 SWAP1 SWAP2 PUSH1 0x0 DUP1 MLOAD PUSH1 0x20 PUSH2 0x5BF8 DUP4 CODECOPY DUP2 MLOAD SWAP2 MSTORE SWAP2 PUSH2 0xB3D SWAP2 TIMESTAMP SWAP2 DUP14 SWAP2 DUP9 SWAP1 PUSH2 0x58B3 JUMP JUMPDEST PUSH1 0x40 MLOAD DUP1 SWAP2 SUB SWAP1 LOG4 POP POP POP POP POP POP JUMP JUMPDEST PUSH2 0xB55 PUSH2 0x4436 JUMP JUMPDEST PUSH1 0x1 SSTORE JUMP JUMPDEST PUSH2 0xB62 PUSH2 0x4436 JUMP JUMPDEST PUSH1 0x2 SSTORE JUMP JUMPDEST PUSH1 0x40 DUP1 MLOAD PUSH2 0x100 DUP2 ADD DUP3 MSTORE PUSH1 0x0 DUP1 DUP3 MSTORE PUSH1 0x20 DUP3 ADD DUP2 SWAP1 MSTORE SWAP2 DUP2 ADD DUP3 SWAP1 MSTORE PUSH1 0x60 DUP2 ADD DUP3 SWAP1 MSTORE PUSH1 0x80 DUP2 ADD DUP3 SWAP1 MSTORE PUSH1 0xA0 DUP2 ADD DUP3 SWAP1 MSTORE PUSH1 0xC0 DUP2 ADD DUP3 SWAP1 MSTORE PUSH1 0xE0 DUP2 ADD DUP3 SWAP1 MSTORE SWAP1 PUSH1 0xA DUP2 DUP6 PUSH1 0x3 DUP2 GT ISZERO PUSH2 0xBBD JUMPI PUSH2 0xBBD PUSH2 0x515F JUMP JUMPDEST DUP2 MSTORE PUSH1 0x20 ADD SWAP1 DUP2 MSTORE PUSH1 0x20 ADD PUSH1 0x0 KECCAK256 PUSH1 0x0 DUP5 PUSH2 0xFFFF AND PUSH2 0xFFFF AND DUP2 MSTORE PUSH1 0x20 ADD SWAP1 DUP2 MSTORE PUSH1 0x20 ADD PUSH1 0x0 KECCAK256 DUP1 SLOAD DUP1 PUSH1 0x20 MUL PUSH1 0x20 ADD PUSH1 0x40 MLOAD SWAP1 DUP2 ADD PUSH1 0x40 MSTORE DUP1 SWAP3 SWAP2 SWAP1 DUP2 DUP2 MSTORE PUSH1 0x20 ADD PUSH1 0x0 SWAP1 JUMPDEST DUP3 DUP3 LT ISZERO PUSH2 0xCDB JUMPI PUSH1 0x0 DUP5 DUP2 MSTORE PUSH1 0x20 SWAP1 DUP2 SWAP1 KECCAK256 PUSH1 0x40 DUP1 MLOAD PUSH2 0x100 DUP2 ADD DUP3 MSTORE PUSH1 0x4 DUP7 MUL SWAP1 SWAP3 ADD DUP1 SLOAD DUP4 MSTORE PUSH1 0x1 DUP2 ADD SLOAD SWAP4 DUP4 ADD SWAP4 SWAP1 SWAP4 MSTORE PUSH1 0x2 DUP4 ADD SLOAD PUSH1 0x1 PUSH1 0x1 PUSH1 0xA0 SHL SUB SWAP1 DUP2 AND SWAP2 DUP4 ADD SWAP2 SWAP1 SWAP2 MSTORE PUSH1 0x3 DUP1 DUP5 ADD SLOAD SWAP2 DUP3 AND PUSH1 0x60 DUP5 ADD MSTORE PUSH1 0xFF PUSH1 0x1 PUSH1 0xA0 SHL DUP4 DIV DUP2 AND ISZERO ISZERO PUSH1 0x80 DUP6 ADD MSTORE PUSH1 0x1 PUSH1 0xA8 SHL DUP4 DIV DUP2 AND ISZERO ISZERO PUSH1 0xA0 DUP6 ADD MSTORE SWAP3 SWAP4 SWAP3 PUSH1 0xC0 DUP6 ADD SWAP3 PUSH1 0x1 PUSH1 0xB0 SHL SWAP1 DIV AND SWAP1 DUP2 GT ISZERO PUSH2 0xCA0 JUMPI PUSH2 0xCA0 PUSH2 0x515F JUMP JUMPDEST PUSH1 0x3 DUP2 GT ISZERO PUSH2 0xCB1 JUMPI PUSH2 0xCB1 PUSH2 0x515F JUMP JUMPDEST DUP2 MSTORE PUSH1 0x3 SWAP2 SWAP1 SWAP2 ADD SLOAD PUSH2 0xFFFF PUSH1 0x1 PUSH1 0xB8 SHL SWAP1 SWAP2 DIV AND PUSH1 0x20 SWAP2 DUP3 ADD MSTORE SWAP1 DUP3 MSTORE PUSH1 0x1 SWAP1 SWAP3 ADD SWAP2 ADD PUSH2 0xC04 JUMP JUMPDEST POP POP POP POP SWAP1 POP PUSH1 0x0 JUMPDEST DUP2 MLOAD DUP2 LT ISZERO PUSH2 0xD40 JUMPI DUP6 DUP3 DUP3 DUP2 MLOAD DUP2 LT PUSH2 0xD00 JUMPI PUSH2 0xD00 PUSH2 0x58E4 JUMP JUMPDEST PUSH1 0x20 MUL PUSH1 0x20 ADD ADD MLOAD PUSH1 0x0 ADD MLOAD SUB PUSH2 0xD2E JUMPI DUP2 DUP2 DUP2 MLOAD DUP2 LT PUSH2 0xD23 JUMPI PUSH2 0xD23 PUSH2 0x58E4 JUMP JUMPDEST PUSH1 0x20 MUL PUSH1 0x20 ADD ADD MLOAD SWAP3 POP JUMPDEST DUP1 PUSH2 0xD38 DUP2 PUSH2 0x5910 JUMP JUMPDEST SWAP2 POP POP PUSH2 0xCE4 JUMP JUMPDEST POP POP SWAP4 SWAP3 POP POP POP JUMP JUMPDEST PUSH2 0xD51 PUSH2 0x44B1 JUMP JUMPDEST PUSH1 0x20 DUP2 ADD CALLDATALOAD PUSH2 0xD66 PUSH1 0x80 DUP4 ADD PUSH1 0x60 DUP5 ADD PUSH2 0x5032 JUMP JUMPDEST PUSH1 0x40 MLOAD PUSH4 0x6EB1769F PUSH1 0xE1 SHL DUP2 MSTORE CALLER PUSH1 0x4 DUP3 ADD MSTORE ADDRESS PUSH1 0x24 DUP3 ADD MSTORE PUSH1 0x1 PUSH1 0x1 PUSH1 0xA0 SHL SUB SWAP2 SWAP1 SWAP2 AND SWAP1 PUSH4 0xDD62ED3E SWAP1 PUSH1 0x44 ADD PUSH1 0x20 PUSH1 0x40 MLOAD DUP1 DUP4 SUB DUP2 PUSH1 0x0 DUP8 GAS CALL ISZERO DUP1 ISZERO PUSH2 0xDB4 JUMPI RETURNDATASIZE PUSH1 0x0 DUP1 RETURNDATACOPY RETURNDATASIZE PUSH1 0x0 REVERT JUMPDEST POP POP POP POP PUSH1 0x40 MLOAD RETURNDATASIZE PUSH1 0x1F NOT PUSH1 0x1F DUP3 ADD AND DUP3 ADD DUP1 PUSH1 0x40 MSTORE POP DUP2 ADD SWAP1 PUSH2 0xDD8 SWAP2 SWAP1 PUSH2 0x5929 JUMP JUMPDEST LT ISZERO DUP1 ISZERO PUSH2 0xE65 JUMPI POP PUSH1 0x20 DUP2 ADD CALLDATALOAD PUSH2 0xDF6 PUSH1 0x80 DUP4 ADD PUSH1 0x60 DUP5 ADD PUSH2 0x5032 JUMP JUMPDEST PUSH1 0x40 MLOAD PUSH4 0x70A08231 PUSH1 0xE0 SHL DUP2 MSTORE CALLER PUSH1 0x4 DUP3 ADD MSTORE PUSH1 0x1 PUSH1 0x1 PUSH1 0xA0 SHL SUB SWAP2 SWAP1 SWAP2 AND SWAP1 PUSH4 0x70A08231 SWAP1 PUSH1 0x24 ADD PUSH1 0x20 PUSH1 0x40 MLOAD DUP1 DUP4 SUB DUP2 PUSH1 0x0 DUP8 GAS CALL ISZERO DUP1 ISZERO PUSH2 0xE3E JUMPI RETURNDATASIZE PUSH1 0x0 DUP1 RETURNDATACOPY RETURNDATASIZE PUSH1 0x0 REVERT JUMPDEST POP POP POP POP PUSH1 0x40 MLOAD RETURNDATASIZE PUSH1 0x1F NOT PUSH1 0x1F DUP3 ADD AND DUP3 ADD DUP1 PUSH1 0x40 MSTORE POP DUP2 ADD SWAP1 PUSH2 0xE62 SWAP2 SWAP1 PUSH2 0x5929 JUMP JUMPDEST LT ISZERO JUMPDEST PUSH2 0xE96 JUMPI PUSH1 0x40 MLOAD PUSH3 0x461BCD PUSH1 0xE5 SHL DUP2 MSTORE PUSH1 0x20 PUSH1 0x4 DUP3 ADD MSTORE PUSH1 0x2 PUSH1 0x24 DUP3 ADD MSTORE PUSH2 0x323 PUSH1 0xF4 SHL PUSH1 0x44 DUP3 ADD MSTORE PUSH1 0x64 ADD PUSH2 0x641 JUMP JUMPDEST PUSH2 0xEA6 PUSH1 0x60 DUP3 ADD PUSH1 0x40 DUP4 ADD PUSH2 0x5032 JUMP JUMPDEST PUSH1 0x1 PUSH1 0x1 PUSH1 0xA0 SHL SUB AND CALLER SUB PUSH2 0xEE1 JUMPI PUSH1 0x40 MLOAD PUSH3 0x461BCD PUSH1 0xE5 SHL DUP2 MSTORE PUSH1 0x20 PUSH1 0x4 DUP3 ADD MSTORE PUSH1 0x1 PUSH1 0x24 DUP3 ADD MSTORE PUSH1 0x3 PUSH1 0xFC SHL PUSH1 0x44 DUP3 ADD MSTORE PUSH1 0x64 ADD PUSH2 0x641 JUMP JUMPDEST PUSH2 0xF0E DUP2 CALLDATALOAD PUSH2 0xEF7 PUSH2 0x100 DUP5 ADD PUSH1 0xE0 DUP6 ADD PUSH2 0x5942 JUMP JUMPDEST PUSH2 0xF07 PUSH1 0xE0 DUP6 ADD PUSH1 0xC0 DUP7 ADD PUSH2 0x595D JUMP JUMPDEST PUSH1 0x0 PUSH2 0x477D JUMP JUMPDEST PUSH2 0xF3E JUMPI PUSH1 0x40 MLOAD PUSH3 0x461BCD PUSH1 0xE5 SHL DUP2 MSTORE PUSH1 0x20 PUSH1 0x4 DUP3 ADD MSTORE PUSH1 0x1 PUSH1 0x24 DUP3 ADD MSTORE PUSH1 0x37 PUSH1 0xF8 SHL PUSH1 0x44 DUP3 ADD MSTORE PUSH1 0x64 ADD PUSH2 0x641 JUMP JUMPDEST DUP1 CALLDATALOAD PUSH1 0x0 DUP2 DUP2 MSTORE PUSH1 0xB PUSH1 0x20 SWAP1 DUP2 MSTORE PUSH1 0x40 DUP1 DUP4 KECCAK256 DUP1 SLOAD PUSH1 0x1 DUP2 ADD DUP3 SSTORE SWAP1 DUP5 MSTORE SWAP3 DUP3 SWAP1 KECCAK256 SWAP1 SWAP3 ADD DUP1 SLOAD PUSH1 0x1 PUSH1 0x1 PUSH1 0xA0 SHL SUB NOT AND CALLER OR SWAP1 SSTORE DUP2 MLOAD PUSH1 0x80 DUP2 ADD SWAP1 SWAP3 MSTORE SWAP2 DUP2 MSTORE PUSH2 0xFD0 SWAP2 DUP2 ADD PUSH2 0xF96 PUSH2 0x100 DUP6 ADD PUSH1 0xE0 DUP7 ADD PUSH2 0x5942 JUMP JUMPDEST PUSH2 0xFFFF AND DUP2 MSTORE PUSH1 0x20 ADD PUSH2 0xFAF PUSH1 0xE0 DUP6 ADD PUSH1 0xC0 DUP7 ADD PUSH2 0x595D JUMP JUMPDEST PUSH1 0x3 DUP2 GT ISZERO PUSH2 0xFC0 JUMPI PUSH2 0xFC0 PUSH2 0x515F JUMP JUMPDEST DUP2 MSTORE PUSH1 0x20 ADD PUSH1 0x0 SWAP1 MSTORE PUSH1 0x0 PUSH2 0x45CD JUMP JUMPDEST PUSH1 0x20 DUP2 ADD CALLDATALOAD PUSH1 0x1 DUP1 PUSH2 0xFE8 PUSH1 0xE0 DUP6 ADD PUSH1 0xC0 DUP7 ADD PUSH2 0x595D JUMP JUMPDEST PUSH1 0x3 DUP2 GT ISZERO PUSH2 0xFF9 JUMPI PUSH2 0xFF9 PUSH2 0x515F JUMP JUMPDEST EQ DUP1 PUSH2 0x1025 JUMPI POP PUSH1 0x0 PUSH2 0x1012 PUSH1 0xE0 DUP6 ADD PUSH1 0xC0 DUP7 ADD PUSH2 0x595D JUMP JUMPDEST PUSH1 0x3 DUP2 GT ISZERO PUSH2 0x1023 JUMPI PUSH2 0x1023 PUSH2 0x515F JUMP JUMPDEST EQ JUMPDEST ISZERO PUSH2 0x1071 JUMPI PUSH2 0x106A TIMESTAMP PUSH2 0x103F PUSH2 0x100 DUP7 ADD PUSH1 0xE0 DUP8 ADD PUSH2 0x5942 JUMP JUMPDEST PUSH2 0xFFFF AND DUP5 PUSH2 0x1054 PUSH1 0xE0 DUP9 ADD PUSH1 0xC0 DUP10 ADD PUSH2 0x595D JUMP JUMPDEST PUSH1 0x3 DUP2 GT ISZERO PUSH2 0x1065 JUMPI PUSH2 0x1065 PUSH2 0x515F JUMP JUMPDEST PUSH2 0x4808 JUMP JUMPDEST SWAP2 POP PUSH2 0x1117 JUMP JUMPDEST PUSH1 0x2 PUSH2 0x1083 PUSH1 0xE0 DUP6 ADD PUSH1 0xC0 DUP7 ADD PUSH2 0x595D JUMP JUMPDEST PUSH1 0x3 DUP2 GT ISZERO PUSH2 0x1094 JUMPI PUSH2 0x1094 PUSH2 0x515F JUMP JUMPDEST SUB PUSH2 0x10C6 JUMPI PUSH2 0x10AE TIMESTAMP PUSH2 0x103F PUSH2 0x100 DUP7 ADD PUSH1 0xE0 DUP8 ADD PUSH2 0x5942 JUMP JUMPDEST SWAP2 POP PUSH2 0x10BB PUSH1 0x3 DUP4 PUSH2 0x598E JUMP JUMPDEST SWAP2 POP PUSH1 0x2 SWAP1 POP PUSH2 0x1117 JUMP JUMPDEST PUSH1 0x3 PUSH2 0x10D8 PUSH1 0xE0 DUP6 ADD PUSH1 0xC0 DUP7 ADD PUSH2 0x595D JUMP JUMPDEST PUSH1 0x3 DUP2 GT ISZERO PUSH2 0x10E9 JUMPI PUSH2 0x10E9 PUSH2 0x515F JUMP JUMPDEST SUB PUSH2 0x1117 JUMPI PUSH2 0x1103 TIMESTAMP PUSH2 0x103F PUSH2 0x100 DUP7 ADD PUSH1 0xE0 DUP8 ADD PUSH2 0x5942 JUMP JUMPDEST SWAP2 POP PUSH2 0x1110 PUSH1 0xC DUP4 PUSH2 0x598E JUMP JUMPDEST SWAP2 POP PUSH1 0xB SWAP1 POP JUMPDEST DUP3 CALLDATALOAD PUSH1 0x0 SWAP1 DUP2 MSTORE PUSH1 0x9 PUSH1 0x20 SWAP1 DUP2 MSTORE PUSH1 0x40 DUP1 DUP4 KECCAK256 CALLER DUP5 MSTORE SWAP1 SWAP2 MSTORE DUP2 KECCAK256 DUP1 SLOAD DUP5 SWAP3 SWAP1 PUSH2 0x1142 SWAP1 DUP5 SWAP1 PUSH2 0x59A2 JUMP JUMPDEST SWAP1 SWAP2 SSTORE POP CALLER SWAP1 POP PUSH2 0x1159 PUSH1 0x60 DUP6 ADD PUSH1 0x40 DUP7 ADD PUSH2 0x5032 JUMP JUMPDEST PUSH1 0x1 PUSH1 0x1 PUSH1 0xA0 SHL SUB AND DUP5 CALLDATALOAD PUSH1 0x0 DUP1 MLOAD PUSH1 0x20 PUSH2 0x5BF8 DUP4 CODECOPY DUP2 MLOAD SWAP2 MSTORE TIMESTAMP PUSH1 0x20 DUP9 ADD CALLDATALOAD PUSH2 0x1189 PUSH1 0x80 DUP11 ADD PUSH1 0x60 DUP12 ADD PUSH2 0x5032 JUMP JUMPDEST PUSH1 0x6 PUSH1 0x40 MLOAD PUSH2 0x119B SWAP5 SWAP4 SWAP3 SWAP2 SWAP1 PUSH2 0x58B3 JUMP JUMPDEST PUSH1 0x40 MLOAD DUP1 SWAP2 SUB SWAP1 LOG4 CALLER PUSH2 0x11B4 PUSH1 0x60 DUP6 ADD PUSH1 0x40 DUP7 ADD PUSH2 0x5032 JUMP JUMPDEST PUSH1 0x1 PUSH1 0x1 PUSH1 0xA0 SHL SUB AND DUP5 CALLDATALOAD PUSH1 0x0 DUP1 MLOAD PUSH1 0x20 PUSH2 0x5BF8 DUP4 CODECOPY DUP2 MLOAD SWAP2 MSTORE TIMESTAMP DUP7 PUSH2 0x11E0 PUSH1 0x80 DUP11 ADD PUSH1 0x60 DUP12 ADD PUSH2 0x5032 JUMP JUMPDEST PUSH1 0x8 PUSH1 0x40 MLOAD PUSH2 0x11F2 SWAP5 SWAP4 SWAP3 SWAP2 SWAP1 PUSH2 0x58B3 JUMP JUMPDEST PUSH1 0x40 MLOAD DUP1 SWAP2 SUB SWAP1 LOG4 PUSH2 0x120A PUSH1 0x80 DUP5 ADD PUSH1 0x60 DUP6 ADD PUSH2 0x5032 JUMP JUMPDEST PUSH1 0x40 MLOAD PUSH4 0x23B872DD PUSH1 0xE0 SHL DUP2 MSTORE CALLER PUSH1 0x4 DUP3 ADD MSTORE ADDRESS PUSH1 0x24 DUP3 ADD MSTORE PUSH1 0x44 DUP2 ADD DUP5 SWAP1 MSTORE PUSH1 0x1 PUSH1 0x1 PUSH1 0xA0 SHL SUB SWAP2 SWAP1 SWAP2 AND SWAP1 PUSH4 0x23B872DD SWAP1 PUSH1 0x64 ADD PUSH1 0x20 PUSH1 0x40 MLOAD DUP1 DUP4 SUB DUP2 PUSH1 0x0 DUP8 GAS CALL ISZERO DUP1 ISZERO PUSH2 0x125F JUMPI RETURNDATASIZE PUSH1 0x0 DUP1 RETURNDATACOPY RETURNDATASIZE PUSH1 0x0 REVERT JUMPDEST POP POP POP POP PUSH1 0x40 MLOAD RETURNDATASIZE PUSH1 0x1F NOT PUSH1 0x1F DUP3 ADD AND DUP3 ADD DUP1 PUSH1 0x40 MSTORE POP DUP2 ADD SWAP1 PUSH2 0x1283 SWAP2 SWAP1 PUSH2 0x59B5 JUMP JUMPDEST PUSH2 0x128C JUMPI PUSH1 0x0 DUP1 REVERT JUMPDEST PUSH1 0x2 PUSH2 0x129E PUSH1 0xE0 DUP6 ADD PUSH1 0xC0 DUP7 ADD PUSH2 0x595D JUMP JUMPDEST PUSH1 0x3 DUP2 GT ISZERO PUSH2 0x12AF JUMPI PUSH2 0x12AF PUSH2 0x515F JUMP JUMPDEST EQ DUP1 PUSH2 0x12DB JUMPI POP PUSH1 0x3 PUSH2 0x12C8 PUSH1 0xE0 DUP6 ADD PUSH1 0xC0 DUP7 ADD PUSH2 0x595D JUMP JUMPDEST PUSH1 0x3 DUP2 GT ISZERO PUSH2 0x12D9 JUMPI PUSH2 0x12D9 PUSH2 0x515F JUMP JUMPDEST EQ JUMPDEST ISZERO PUSH2 0x139A JUMPI PUSH2 0x12F0 PUSH1 0x80 DUP5 ADD PUSH1 0x60 DUP6 ADD PUSH2 0x5032 JUMP JUMPDEST PUSH1 0x1 PUSH1 0x1 PUSH1 0xA0 SHL SUB AND PUSH4 0x23B872DD CALLER PUSH2 0x130F PUSH1 0x60 DUP8 ADD PUSH1 0x40 DUP9 ADD PUSH2 0x5032 JUMP JUMPDEST PUSH2 0x1319 DUP6 DUP8 PUSH2 0x59D2 JUMP JUMPDEST PUSH1 0x40 MLOAD PUSH1 0x1 PUSH1 0x1 PUSH1 0xE0 SHL SUB NOT PUSH1 0xE0 DUP7 SWAP1 SHL AND DUP2 MSTORE PUSH1 0x1 PUSH1 0x1 PUSH1 0xA0 SHL SUB SWAP4 DUP5 AND PUSH1 0x4 DUP3 ADD MSTORE SWAP3 SWAP1 SWAP2 AND PUSH1 0x24 DUP4 ADD MSTORE PUSH1 0x44 DUP3 ADD MSTORE PUSH1 0x64 ADD PUSH1 0x20 PUSH1 0x40 MLOAD DUP1 DUP4 SUB DUP2 PUSH1 0x0 DUP8 GAS CALL ISZERO DUP1 ISZERO PUSH2 0x136D JUMPI RETURNDATASIZE PUSH1 0x0 DUP1 RETURNDATACOPY RETURNDATASIZE PUSH1 0x0 REVERT JUMPDEST POP POP POP POP PUSH1 0x40 MLOAD RETURNDATASIZE PUSH1 0x1F NOT PUSH1 0x1F DUP3 ADD AND DUP3 ADD DUP1 PUSH1 0x40 MSTORE POP DUP2 ADD SWAP1 PUSH2 0x1391 SWAP2 SWAP1 PUSH2 0x59B5 JUMP JUMPDEST PUSH2 0x139A JUMPI PUSH1 0x0 DUP1 REVERT JUMPDEST POP POP POP JUMP JUMPDEST PUSH2 0x13A7 PUSH2 0x44B1 JUMP JUMPDEST CALLER PUSH1 0x0 SWAP1 DUP2 MSTORE PUSH1 0x7 PUSH1 0x20 MSTORE PUSH1 0x40 DUP2 KECCAK256 PUSH1 0x1 ADD SLOAD PUSH8 0xFFFFFFFFFFFFFFFF DUP2 GT ISZERO PUSH2 0x13D2 JUMPI PUSH2 0x13D2 PUSH2 0x5216 JUMP JUMPDEST PUSH1 0x40 MLOAD SWAP1 DUP1 DUP3 MSTORE DUP1 PUSH1 0x20 MUL PUSH1 0x20 ADD DUP3 ADD PUSH1 0x40 MSTORE DUP1 ISZERO PUSH2 0x142D JUMPI DUP2 PUSH1 0x20 ADD JUMPDEST PUSH2 0x141A PUSH1 0x40 DUP1 MLOAD PUSH1 0x80 DUP2 ADD DUP3 MSTORE PUSH1 0x0 DUP1 DUP3 MSTORE PUSH1 0x20 DUP3 ADD DUP2 SWAP1 MSTORE SWAP1 SWAP2 DUP3 ADD SWAP1 DUP2 MSTORE PUSH1 0x20 ADD PUSH1 0x0 SWAP1 MSTORE SWAP1 JUMP JUMPDEST DUP2 MSTORE PUSH1 0x20 ADD SWAP1 PUSH1 0x1 SWAP1 SUB SWAP1 DUP2 PUSH2 0x13F0 JUMPI SWAP1 POP JUMPDEST POP CALLER PUSH1 0x0 SWAP1 DUP2 MSTORE PUSH1 0x7 PUSH1 0x20 SWAP1 DUP2 MSTORE PUSH1 0x40 DUP1 DUP4 KECCAK256 PUSH1 0x1 ADD DUP1 SLOAD DUP3 MLOAD DUP2 DUP6 MUL DUP2 ADD DUP6 ADD SWAP1 SWAP4 MSTORE DUP1 DUP4 MSTORE SWAP5 SWAP6 POP SWAP1 SWAP4 SWAP1 SWAP3 SWAP1 SWAP2 DUP5 ADD JUMPDEST DUP3 DUP3 LT ISZERO PUSH2 0x1516 JUMPI PUSH1 0x0 DUP5 DUP2 MSTORE PUSH1 0x20 SWAP1 DUP2 SWAP1 KECCAK256 PUSH1 0x40 DUP1 MLOAD PUSH1 0x80 DUP2 ADD DUP3 MSTORE PUSH1 0x2 DUP7 MUL SWAP1 SWAP3 ADD DUP1 SLOAD DUP4 MSTORE PUSH1 0x1 DUP2 ADD SLOAD PUSH2 0xFFFF DUP2 AND SWAP5 DUP5 ADD SWAP5 SWAP1 SWAP5 MSTORE SWAP2 SWAP3 SWAP1 DUP4 ADD SWAP1 PUSH3 0x10000 SWAP1 DIV PUSH1 0xFF AND PUSH1 0x3 DUP2 GT ISZERO PUSH2 0x14B9 JUMPI PUSH2 0x14B9 PUSH2 0x515F JUMP JUMPDEST PUSH1 0x3 DUP2 GT ISZERO PUSH2 0x14CA JUMPI PUSH2 0x14CA PUSH2 0x515F JUMP JUMPDEST DUP2 MSTORE PUSH1 0x20 ADD PUSH1 0x1 DUP3 ADD PUSH1 0x3 SWAP1 SLOAD SWAP1 PUSH2 0x100 EXP SWAP1 DIV PUSH1 0xFF AND PUSH1 0x2 DUP2 GT ISZERO PUSH2 0x14F2 JUMPI PUSH2 0x14F2 PUSH2 0x515F JUMP JUMPDEST PUSH1 0x2 DUP2 GT ISZERO PUSH2 0x1503 JUMPI PUSH2 0x1503 PUSH2 0x515F JUMP JUMPDEST DUP2 MSTORE POP POP DUP2 MSTORE PUSH1 0x20 ADD SWAP1 PUSH1 0x1 ADD SWAP1 PUSH2 0x1460 JUMP JUMPDEST POP POP CALLER PUSH1 0x0 SWAP1 DUP2 MSTORE PUSH1 0x7 PUSH1 0x20 MSTORE PUSH1 0x40 DUP2 KECCAK256 PUSH1 0x1 ADD SLOAD SWAP4 SWAP5 POP SWAP2 POP POP JUMPDEST DUP2 DUP2 LT ISZERO PUSH2 0x15D4 JUMPI DUP4 PUSH1 0x0 ADD MLOAD DUP4 DUP3 DUP2 MLOAD DUP2 LT PUSH2 0x1551 JUMPI PUSH2 0x1551 PUSH2 0x58E4 JUMP JUMPDEST PUSH1 0x20 MUL PUSH1 0x20 ADD ADD MLOAD PUSH1 0x0 ADD MLOAD SUB PUSH2 0x15C2 JUMPI CALLER PUSH1 0x0 SWAP1 DUP2 MSTORE PUSH1 0x7 PUSH1 0x20 MSTORE PUSH1 0x40 SWAP1 KECCAK256 PUSH1 0x1 ADD DUP1 SLOAD PUSH1 0x2 SWAP2 SWAP1 DUP4 SWAP1 DUP2 LT PUSH2 0x158A JUMPI PUSH2 0x158A PUSH2 0x58E4 JUMP JUMPDEST SWAP1 PUSH1 0x0 MSTORE PUSH1 0x20 PUSH1 0x0 KECCAK256 SWAP1 PUSH1 0x2 MUL ADD PUSH1 0x1 ADD PUSH1 0x3 PUSH2 0x100 EXP DUP2 SLOAD DUP2 PUSH1 0xFF MUL NOT AND SWAP1 DUP4 PUSH1 0x2 DUP2 GT ISZERO PUSH2 0x15BC JUMPI PUSH2 0x15BC PUSH2 0x515F JUMP JUMPDEST MUL OR SWAP1 SSTORE POP JUMPDEST DUP1 PUSH2 0x15CC DUP2 PUSH2 0x5910 JUMP JUMPDEST SWAP2 POP POP PUSH2 0x1532 JUMP JUMPDEST POP DUP3 MLOAD PUSH2 0x15E1 SWAP1 CALLER PUSH2 0x4A51 JUMP JUMPDEST CALLER PUSH1 0x1 PUSH1 0x1 PUSH1 0xA0 SHL SUB AND DUP4 PUSH1 0x40 ADD MLOAD PUSH1 0x1 PUSH1 0x1 PUSH1 0xA0 SHL SUB AND DUP5 PUSH1 0x0 ADD MLOAD PUSH1 0x0 DUP1 MLOAD PUSH1 0x20 PUSH2 0x5BF8 DUP4 CODECOPY DUP2 MLOAD SWAP2 MSTORE TIMESTAMP DUP8 PUSH1 0x20 ADD MLOAD DUP9 PUSH1 0x60 ADD MLOAD PUSH1 0x7 PUSH1 0x40 MLOAD PUSH2 0x162A SWAP5 SWAP4 SWAP3 SWAP2 SWAP1 PUSH2 0x58B3 JUMP JUMPDEST PUSH1 0x40 MLOAD DUP1 SWAP2 SUB SWAP1 LOG4 DUP3 MLOAD PUSH1 0x0 SWAP1 DUP2 MSTORE PUSH1 0x9 PUSH1 0x20 DUP2 DUP2 MSTORE PUSH1 0x40 DUP1 DUP5 KECCAK256 CALLER DUP1 DUP7 MSTORE SWAP1 DUP4 MSTORE DUP2 DUP6 KECCAK256 SLOAD DUP9 MLOAD DUP7 MSTORE SWAP4 DUP4 MSTORE DUP2 DUP6 KECCAK256 DUP2 DUP7 MSTORE SWAP1 SWAP3 MSTORE DUP1 DUP5 KECCAK256 SWAP4 SWAP1 SWAP4 SSTORE DUP3 DUP7 ADD MLOAD DUP7 MLOAD PUSH1 0x60 DUP9 ADD MLOAD SWAP5 MLOAD SWAP4 SWAP5 SWAP3 SWAP4 PUSH1 0x1 PUSH1 0x1 PUSH1 0xA0 SHL SUB SWAP1 SWAP3 AND SWAP3 SWAP1 SWAP2 PUSH1 0x0 DUP1 MLOAD PUSH1 0x20 PUSH2 0x5BF8 DUP4 CODECOPY DUP2 MLOAD SWAP2 MSTORE SWAP2 PUSH2 0x16A6 SWAP2 TIMESTAMP SWAP2 DUP9 SWAP2 PUSH1 0x4 SWAP1 PUSH2 0x58B3 JUMP JUMPDEST PUSH1 0x40 MLOAD DUP1 SWAP2 SUB SWAP1 LOG4 PUSH1 0x60 DUP5 ADD MLOAD PUSH1 0x40 DUP1 DUP7 ADD MLOAD SWAP1 MLOAD PUSH4 0xA9059CBB PUSH1 0xE0 SHL DUP2 MSTORE PUSH1 0x1 PUSH1 0x1 PUSH1 0xA0 SHL SUB SWAP2 DUP3 AND PUSH1 0x4 DUP3 ADD MSTORE PUSH1 0x24 DUP2 ADD DUP5 SWAP1 MSTORE SWAP2 AND SWAP1 PUSH4 0xA9059CBB SWAP1 PUSH1 0x44 ADD PUSH1 0x20 PUSH1 0x40 MLOAD DUP1 DUP4 SUB DUP2 PUSH1 0x0 DUP8 GAS CALL ISZERO DUP1 ISZERO PUSH2 0x1707 JUMPI RETURNDATASIZE PUSH1 0x0 DUP1 RETURNDATACOPY RETURNDATASIZE PUSH1 0x0 REVERT JUMPDEST POP POP POP POP PUSH1 0x40 MLOAD RETURNDATASIZE PUSH1 0x1F NOT PUSH1 0x1F DUP3 ADD AND DUP3 ADD DUP1 PUSH1 0x40 MSTORE POP DUP2 ADD SWAP1 PUSH2 0x172B SWAP2 SWAP1 PUSH2 0x59B5 JUMP JUMPDEST PUSH2 0x175C JUMPI PUSH1 0x40 MLOAD PUSH3 0x461BCD PUSH1 0xE5 SHL DUP2 MSTORE PUSH1 0x20 PUSH1 0x4 DUP3 ADD MSTORE PUSH1 0x2 PUSH1 0x24 DUP3 ADD MSTORE PUSH2 0x3231 PUSH1 0xF0 SHL PUSH1 0x44 DUP3 ADD MSTORE PUSH1 0x64 ADD PUSH2 0x641 JUMP JUMPDEST POP POP POP POP JUMP JUMPDEST PUSH1 0x6 SLOAD PUSH1 0x1 PUSH1 0xD0 SHL SWAP1 DIV PUSH1 0xFF AND PUSH2 0x177B JUMPI PUSH2 0x177B PUSH2 0x4436 JUMP JUMPDEST PUSH1 0x6 SLOAD PUSH1 0x1 PUSH1 0xD8 SHL SWAP1 DIV PUSH1 0xFF AND ISZERO PUSH2 0x17C3 JUMPI CALLVALUE PUSH1 0x1 SLOAD GT ISZERO PUSH2 0x17C3 JUMPI PUSH1 0x40 MLOAD PUSH3 0x461BCD PUSH1 0xE5 SHL DUP2 MSTORE PUSH1 0x20 PUSH1 0x4 DUP3 ADD MSTORE PUSH1 0x1 PUSH1 0x24 DUP3 ADD MSTORE PUSH1 0x35 PUSH1 0xF8 SHL PUSH1 0x44 DUP3 ADD MSTORE PUSH1 0x64 ADD PUSH2 0x641 JUMP JUMPDEST PUSH1 0x0 PUSH2 0x17CE TIMESTAMP PUSH2 0x4BA1 JUMP JUMPDEST PUSH1 0x6 SLOAD SWAP1 SWAP2 POP PUSH5 0xFFFFFFFFFF PUSH2 0x100 SWAP1 SWAP2 DIV DUP2 AND SWAP1 DUP3 AND LT ISZERO PUSH2 0x1818 JUMPI PUSH1 0x40 MLOAD PUSH3 0x461BCD PUSH1 0xE5 SHL DUP2 MSTORE PUSH1 0x20 PUSH1 0x4 DUP3 ADD MSTORE PUSH1 0x2 PUSH1 0x24 DUP3 ADD MSTORE PUSH2 0xC4D PUSH1 0xF2 SHL PUSH1 0x44 DUP3 ADD MSTORE PUSH1 0x64 ADD PUSH2 0x641 JUMP JUMPDEST PUSH1 0x40 DUP1 MLOAD PUSH1 0xC0 DUP2 ADD DUP3 MSTORE PUSH1 0x0 DUP1 DUP3 MSTORE PUSH1 0x20 DUP3 ADD DUP2 SWAP1 MSTORE SWAP2 DUP2 ADD DUP3 SWAP1 MSTORE PUSH1 0x60 DUP2 ADD DUP3 SWAP1 MSTORE PUSH1 0x80 DUP2 ADD DUP3 SWAP1 MSTORE PUSH1 0xA0 DUP2 ADD SWAP2 SWAP1 SWAP2 MSTORE PUSH1 0x1 SWAP1 PUSH1 0x6 SLOAD PUSH5 0xFFFFFFFFFF DUP5 DUP2 AND PUSH2 0x100 SWAP1 SWAP3 DIV AND EQ PUSH2 0x1898 JUMPI PUSH1 0x6 SLOAD PUSH2 0x1891 SWAP1 PUSH2 0x1885 SWAP1 PUSH2 0x100 SWAP1 DIV PUSH5 0xFFFFFFFFFF AND PUSH3 0x15180 PUSH2 0x59E9 JUMP JUMPDEST PUSH5 0xFFFFFFFFFF AND PUSH2 0x4BB0 JUMP JUMPDEST SWAP1 POP PUSH2 0x18A4 JUMP JUMPDEST PUSH2 0x18A1 TIMESTAMP PUSH2 0x4BB0 JUMP JUMPDEST SWAP1 POP JUMPDEST PUSH1 0x0 DUP1 JUMPDEST PUSH1 0x3 DUP2 GT PUSH2 0x248C JUMPI PUSH1 0x0 DUP2 PUSH2 0x18BE JUMPI POP PUSH1 0x20 DUP4 ADD MLOAD JUMPDEST PUSH1 0x1 DUP3 SUB PUSH2 0x18CA JUMPI POP DUP3 MLOAD JUMPDEST PUSH1 0x2 DUP3 SUB PUSH2 0x18D9 JUMPI POP PUSH1 0x40 DUP4 ADD MLOAD JUMPDEST PUSH1 0x3 DUP3 SUB PUSH2 0x18E8 JUMPI POP PUSH1 0x60 DUP4 ADD MLOAD JUMPDEST PUSH1 0x0 DUP3 DUP2 MSTORE PUSH1 0xA PUSH1 0x20 SWAP1 DUP2 MSTORE PUSH1 0x40 DUP1 DUP4 KECCAK256 PUSH2 0xFFFF DUP6 AND DUP5 MSTORE SWAP1 SWAP2 MSTORE DUP2 KECCAK256 SLOAD SWAP1 JUMPDEST DUP2 DUP2 LT ISZERO PUSH2 0x2476 JUMPI PUSH1 0x0 DUP5 DUP2 MSTORE PUSH1 0xA PUSH1 0x20 SWAP1 DUP2 MSTORE PUSH1 0x40 DUP1 DUP4 KECCAK256 PUSH2 0xFFFF DUP8 AND DUP5 MSTORE SWAP1 SWAP2 MSTORE DUP2 KECCAK256 DUP1 SLOAD SWAP2 SWAP9 POP SWAP1 DUP3 SWAP1 DUP2 LT PUSH2 0x1943 JUMPI PUSH2 0x1943 PUSH2 0x58E4 JUMP JUMPDEST SWAP1 PUSH1 0x0 MSTORE PUSH1 0x20 PUSH1 0x0 KECCAK256 SWAP1 PUSH1 0x4 MUL ADD PUSH1 0x3 ADD PUSH1 0x15 SWAP1 SLOAD SWAP1 PUSH2 0x100 EXP SWAP1 DIV PUSH1 0xFF AND PUSH2 0x2464 JUMPI PUSH1 0x0 DUP5 DUP2 MSTORE PUSH1 0xA PUSH1 0x20 SWAP1 DUP2 MSTORE PUSH1 0x40 DUP1 DUP4 KECCAK256 PUSH2 0xFFFF DUP8 AND DUP5 MSTORE SWAP1 SWAP2 MSTORE DUP2 KECCAK256 DUP1 SLOAD DUP4 SWAP1 DUP2 LT PUSH2 0x1995 JUMPI PUSH2 0x1995 PUSH2 0x58E4 JUMP JUMPDEST PUSH1 0x0 SWAP2 DUP3 MSTORE PUSH1 0x20 DUP1 DUP4 KECCAK256 PUSH1 0x4 SWAP1 SWAP3 MUL SWAP1 SWAP2 ADD SLOAD DUP8 DUP4 MSTORE PUSH1 0xA DUP3 MSTORE PUSH1 0x40 DUP1 DUP5 KECCAK256 PUSH2 0xFFFF DUP10 AND DUP6 MSTORE SWAP1 SWAP3 MSTORE SWAP1 DUP3 KECCAK256 DUP1 SLOAD SWAP2 SWAP4 POP SWAP1 DUP5 SWAP1 DUP2 LT PUSH2 0x19D7 JUMPI PUSH2 0x19D7 PUSH2 0x58E4 JUMP JUMPDEST PUSH1 0x0 SWAP2 DUP3 MSTORE PUSH1 0x20 DUP1 DUP4 KECCAK256 PUSH1 0x3 PUSH1 0x4 SWAP1 SWAP4 MUL ADD SWAP2 SWAP1 SWAP2 ADD SLOAD DUP9 DUP4 MSTORE PUSH1 0xA DUP3 MSTORE PUSH1 0x40 DUP1 DUP5 KECCAK256 PUSH2 0xFFFF DUP11 AND DUP6 MSTORE SWAP1 SWAP3 MSTORE SWAP1 DUP3 KECCAK256 DUP1 SLOAD PUSH1 0x1 PUSH1 0x1 PUSH1 0xA0 SHL SUB SWAP1 SWAP3 AND SWAP4 POP SWAP1 DUP6 SWAP1 DUP2 LT PUSH2 0x1A27 JUMPI PUSH2 0x1A27 PUSH2 0x58E4 JUMP JUMPDEST PUSH1 0x0 SWAP2 DUP3 MSTORE PUSH1 0x20 DUP1 DUP4 KECCAK256 PUSH1 0x1 PUSH1 0x4 SWAP1 SWAP4 MUL ADD SWAP2 SWAP1 SWAP2 ADD SLOAD DUP10 DUP4 MSTORE PUSH1 0xA DUP3 MSTORE PUSH1 0x40 DUP1 DUP5 KECCAK256 PUSH2 0xFFFF DUP12 AND DUP6 MSTORE SWAP1 SWAP3 MSTORE SWAP1 DUP3 KECCAK256 DUP1 SLOAD SWAP2 SWAP4 POP SWAP1 DUP7 SWAP1 DUP2 LT PUSH2 0x1A6D JUMPI PUSH2 0x1A6D PUSH2 0x58E4 JUMP JUMPDEST PUSH1 0x0 SWAP2 DUP3 MSTORE PUSH1 0x20 DUP3 KECCAK256 PUSH1 0x2 PUSH1 0x4 SWAP1 SWAP3 MUL ADD ADD SLOAD DUP2 SLOAD PUSH1 0x1 PUSH1 0x1 PUSH1 0xA0 SHL SUB SWAP1 SWAP2 AND SWAP3 POP DUP4 SWAP1 PUSH2 0x2710 SWAP1 PUSH2 0x1A9F SWAP1 DUP4 PUSH2 0x59D2 JUMP JUMPDEST PUSH2 0x1AA9 SWAP2 SWAP1 PUSH2 0x598E JUMP JUMPDEST PUSH2 0x1AB3 SWAP2 SWAP1 PUSH2 0x5A12 JUMP JUMPDEST PUSH1 0x0 DUP7 DUP2 MSTORE PUSH1 0xB PUSH1 0x20 MSTORE PUSH1 0x40 DUP2 KECCAK256 SLOAD SWAP2 SWAP3 POP SWAP1 DUP2 DUP2 ISZERO PUSH2 0x1ADB JUMPI PUSH2 0x1AD8 PUSH1 0x1 DUP4 PUSH2 0x5A12 JUMP JUMPDEST SWAP1 POP JUMPDEST PUSH1 0x0 JUMPDEST DUP3 DUP2 LT ISZERO PUSH2 0x245A JUMPI PUSH1 0x2 SLOAD DUP15 SUB PUSH2 0x1C21 JUMPI PUSH1 0x40 DUP1 MLOAD DUP1 DUP3 ADD DUP3 MSTORE DUP11 DUP2 MSTORE PUSH1 0x20 ADD DUP3 SWAP1 MSTORE PUSH1 0x3 DUP11 SWAP1 SSTORE PUSH1 0x4 DUP3 DUP2 SSTORE PUSH1 0x6 DUP1 SLOAD PUSH1 0xFF NOT AND SWAP1 SSTORE SWAP1 MLOAD PUSH4 0xA9059CBB PUSH1 0xE0 SHL DUP2 MSTORE CALLER SWAP2 DUP2 ADD SWAP2 SWAP1 SWAP2 MSTORE PUSH1 0x24 DUP2 ADD DUP6 SWAP1 MSTORE PUSH1 0x1 PUSH1 0x1 PUSH1 0xA0 SHL SUB DUP10 AND SWAP1 PUSH4 0xA9059CBB SWAP1 PUSH1 0x44 ADD PUSH1 0x20 PUSH1 0x40 MLOAD DUP1 DUP4 SUB DUP2 PUSH1 0x0 DUP8 GAS CALL ISZERO DUP1 ISZERO PUSH2 0x1B63 JUMPI RETURNDATASIZE PUSH1 0x0 DUP1 RETURNDATACOPY RETURNDATASIZE PUSH1 0x0 REVERT JUMPDEST POP POP POP POP PUSH1 0x40 MLOAD RETURNDATASIZE PUSH1 0x1F NOT PUSH1 0x1F DUP3 ADD AND DUP3 ADD DUP1 PUSH1 0x40 MSTORE POP DUP2 ADD SWAP1 PUSH2 0x1B87 SWAP2 SWAP1 PUSH2 0x59B5 JUMP JUMPDEST PUSH2 0x1BB8 JUMPI PUSH1 0x40 MLOAD PUSH3 0x461BCD PUSH1 0xE5 SHL DUP2 MSTORE PUSH1 0x20 PUSH1 0x4 DUP3 ADD MSTORE PUSH1 0x2 PUSH1 0x24 DUP3 ADD MSTORE PUSH2 0x1919 PUSH1 0xF1 SHL PUSH1 0x44 DUP3 ADD MSTORE PUSH1 0x64 ADD PUSH2 0x641 JUMP JUMPDEST PUSH1 0x6 SLOAD PUSH1 0x40 DUP1 MLOAD PUSH5 0xFFFFFFFFFF TIMESTAMP DUP2 AND DUP3 MSTORE PUSH2 0x100 SWAP1 SWAP4 DIV SWAP3 SWAP1 SWAP3 AND PUSH1 0x20 DUP4 ADD MSTORE PUSH1 0x0 SWAP1 DUP3 ADD MSTORE CALLER SWAP1 PUSH32 0x90192D7875364A53E351AE63FD2DFEF8DC941735B29FB0C504D06A0E21AE602E SWAP1 PUSH1 0x60 ADD PUSH1 0x40 MLOAD DUP1 SWAP2 SUB SWAP1 LOG2 POP POP POP POP POP POP POP POP POP POP POP POP POP POP POP POP POP JUMP JUMPDEST PUSH1 0x3 SLOAD DUP10 EQ DUP1 ISZERO PUSH2 0x1C33 JUMPI POP PUSH1 0x4 SLOAD DUP2 EQ JUMPDEST ISZERO PUSH2 0x1C46 JUMPI PUSH1 0x6 DUP1 SLOAD PUSH1 0xFF NOT AND PUSH1 0x1 OR SWAP1 SSTORE JUMPDEST PUSH1 0x3 SLOAD ISZERO DUP1 PUSH2 0x1C5C JUMPI POP PUSH1 0x6 SLOAD PUSH1 0xFF AND ISZERO ISZERO PUSH1 0x1 EQ JUMPDEST ISZERO PUSH2 0x2448 JUMPI PUSH1 0x0 DUP10 DUP2 MSTORE PUSH1 0xB PUSH1 0x20 MSTORE PUSH1 0x40 DUP2 KECCAK256 DUP1 SLOAD DUP4 SWAP1 DUP2 LT PUSH2 0x1C81 JUMPI PUSH2 0x1C81 PUSH2 0x58E4 JUMP JUMPDEST PUSH1 0x0 SWAP2 DUP3 MSTORE PUSH1 0x20 SWAP1 SWAP2 KECCAK256 ADD SLOAD PUSH1 0x40 MLOAD PUSH4 0x6EB1769F PUSH1 0xE1 SHL DUP2 MSTORE PUSH1 0x1 PUSH1 0x1 PUSH1 0xA0 SHL SUB SWAP2 DUP3 AND PUSH1 0x4 DUP3 ADD DUP2 SWAP1 MSTORE ADDRESS PUSH1 0x24 DUP4 ADD MSTORE SWAP3 POP DUP10 SWAP2 DUP12 AND SWAP1 PUSH4 0xDD62ED3E SWAP1 PUSH1 0x44 ADD PUSH1 0x20 PUSH1 0x40 MLOAD DUP1 DUP4 SUB DUP2 PUSH1 0x0 DUP8 GAS CALL ISZERO DUP1 ISZERO PUSH2 0x1CE1 JUMPI RETURNDATASIZE PUSH1 0x0 DUP1 RETURNDATACOPY RETURNDATASIZE PUSH1 0x0 REVERT JUMPDEST POP POP POP POP PUSH1 0x40 MLOAD RETURNDATASIZE PUSH1 0x1F NOT PUSH1 0x1F DUP3 ADD AND DUP3 ADD DUP1 PUSH1 0x40 MSTORE POP DUP2 ADD SWAP1 PUSH2 0x1D05 SWAP2 SWAP1 PUSH2 0x5929 JUMP JUMPDEST LT ISZERO DUP1 ISZERO PUSH2 0x1D7F JUMPI POP PUSH1 0x40 MLOAD PUSH4 0x70A08231 PUSH1 0xE0 SHL DUP2 MSTORE PUSH1 0x1 PUSH1 0x1 PUSH1 0xA0 SHL SUB DUP3 DUP2 AND PUSH1 0x4 DUP4 ADD MSTORE DUP10 SWAP2 SWAP1 DUP12 AND SWAP1 PUSH4 0x70A08231 SWAP1 PUSH1 0x24 ADD PUSH1 0x20 PUSH1 0x40 MLOAD DUP1 DUP4 SUB DUP2 PUSH1 0x0 DUP8 GAS CALL ISZERO DUP1 ISZERO PUSH2 0x1D59 JUMPI RETURNDATASIZE PUSH1 0x0 DUP1 RETURNDATACOPY RETURNDATASIZE PUSH1 0x0 REVERT JUMPDEST POP POP POP POP PUSH1 0x40 MLOAD RETURNDATASIZE PUSH1 0x1F NOT PUSH1 0x1F DUP3 ADD AND DUP3 ADD DUP1 PUSH1 0x40 MSTORE POP DUP2 ADD SWAP1 PUSH2 0x1D7D SWAP2 SWAP1 PUSH2 0x5929 JUMP JUMPDEST GT JUMPDEST ISZERO PUSH2 0x2180 JUMPI DUP15 PUSH2 0x1D8E DUP2 PUSH2 0x5910 JUMP JUMPDEST SWAP16 POP POP DUP6 PUSH1 0x9 PUSH1 0x0 DUP13 DUP2 MSTORE PUSH1 0x20 ADD SWAP1 DUP2 MSTORE PUSH1 0x20 ADD PUSH1 0x0 KECCAK256 PUSH1 0x0 DUP4 PUSH1 0x1 PUSH1 0x1 PUSH1 0xA0 SHL SUB AND PUSH1 0x1 PUSH1 0x1 PUSH1 0xA0 SHL SUB AND DUP2 MSTORE PUSH1 0x20 ADD SWAP1 DUP2 MSTORE PUSH1 0x20 ADD PUSH1 0x0 KECCAK256 SLOAD GT ISZERO PUSH2 0x1F23 JUMPI PUSH2 0x1DD9 DUP7 DUP7 PUSH2 0x59A2 JUMP JUMPDEST PUSH1 0x0 DUP12 DUP2 MSTORE PUSH1 0x9 PUSH1 0x20 SWAP1 DUP2 MSTORE PUSH1 0x40 DUP1 DUP4 KECCAK256 PUSH1 0x1 PUSH1 0x1 PUSH1 0xA0 SHL SUB DUP7 AND DUP5 MSTORE SWAP1 SWAP2 MSTORE DUP2 KECCAK256 DUP1 SLOAD SWAP3 SWAP8 POP DUP9 SWAP3 SWAP1 SWAP2 SWAP1 PUSH2 0x1E10 SWAP1 DUP5 SWAP1 PUSH2 0x5A12 JUMP JUMPDEST SWAP3 POP POP DUP2 SWAP1 SSTORE POP DUP1 PUSH1 0x1 PUSH1 0x1 PUSH1 0xA0 SHL SUB AND DUP8 PUSH1 0x1 PUSH1 0x1 PUSH1 0xA0 SHL SUB AND DUP12 PUSH1 0x0 DUP1 MLOAD PUSH1 0x20 PUSH2 0x5BF8 DUP4 CODECOPY DUP2 MLOAD SWAP2 MSTORE TIMESTAMP DUP13 DUP15 PUSH1 0x5 PUSH1 0x40 MLOAD PUSH2 0x1E50 SWAP5 SWAP4 SWAP3 SWAP2 SWAP1 PUSH2 0x58B3 JUMP JUMPDEST PUSH1 0x40 MLOAD DUP1 SWAP2 SUB SWAP1 LOG4 DUP1 PUSH1 0x1 PUSH1 0x1 PUSH1 0xA0 SHL SUB AND DUP8 PUSH1 0x1 PUSH1 0x1 PUSH1 0xA0 SHL SUB AND DUP12 PUSH1 0x0 DUP1 MLOAD PUSH1 0x20 PUSH2 0x5BF8 DUP4 CODECOPY DUP2 MLOAD SWAP2 MSTORE TIMESTAMP PUSH1 0x0 DUP15 PUSH1 0x2 PUSH1 0x40 MLOAD PUSH2 0x1E92 SWAP5 SWAP4 SWAP3 SWAP2 SWAP1 PUSH2 0x58B3 JUMP JUMPDEST PUSH1 0x40 MLOAD DUP1 SWAP2 SUB SWAP1 LOG4 PUSH1 0x40 MLOAD PUSH4 0x23B872DD PUSH1 0xE0 SHL DUP2 MSTORE PUSH1 0x1 PUSH1 0x1 PUSH1 0xA0 SHL SUB DUP3 DUP2 AND PUSH1 0x4 DUP4 ADD MSTORE DUP9 DUP2 AND PUSH1 0x24 DUP4 ADD MSTORE PUSH1 0x44 DUP3 ADD DUP11 SWAP1 MSTORE DUP11 AND SWAP1 PUSH4 0x23B872DD SWAP1 PUSH1 0x64 ADD PUSH1 0x20 PUSH1 0x40 MLOAD DUP1 DUP4 SUB DUP2 PUSH1 0x0 DUP8 GAS CALL ISZERO DUP1 ISZERO PUSH2 0x1EF1 JUMPI RETURNDATASIZE PUSH1 0x0 DUP1 RETURNDATACOPY RETURNDATASIZE PUSH1 0x0 REVERT JUMPDEST POP POP POP POP PUSH1 0x40 MLOAD RETURNDATASIZE PUSH1 0x1F NOT PUSH1 0x1F DUP3 ADD AND DUP3 ADD DUP1 PUSH1 0x40 MSTORE POP DUP2 ADD SWAP1 PUSH2 0x1F15 SWAP2 SWAP1 PUSH2 0x59B5 JUMP JUMPDEST PUSH2 0x1F1E JUMPI PUSH1 0x0 DUP1 REVERT JUMPDEST PUSH2 0x2390 JUMP JUMPDEST PUSH1 0x0 DUP11 DUP2 MSTORE PUSH1 0x9 PUSH1 0x20 SWAP1 DUP2 MSTORE PUSH1 0x40 DUP1 DUP4 KECCAK256 PUSH1 0x1 PUSH1 0x1 PUSH1 0xA0 SHL SUB DUP6 AND DUP5 MSTORE SWAP1 SWAP2 MSTORE SWAP1 KECCAK256 SLOAD PUSH2 0x1F50 SWAP1 DUP7 PUSH2 0x59A2 JUMP JUMPDEST SWAP5 POP PUSH1 0x9 PUSH1 0x0 DUP12 DUP2 MSTORE PUSH1 0x20 ADD SWAP1 DUP2 MSTORE PUSH1 0x20 ADD PUSH1 0x0 KECCAK256 PUSH1 0x0 DUP3 PUSH1 0x1 PUSH1 0x1 PUSH1 0xA0 SHL SUB AND PUSH1 0x1 PUSH1 0x1 PUSH1 0xA0 SHL SUB AND DUP2 MSTORE PUSH1 0x20 ADD SWAP1 DUP2 MSTORE PUSH1 0x20 ADD PUSH1 0x0 KECCAK256 PUSH1 0x0 SWAP1 SSTORE DUP1 PUSH1 0x1 PUSH1 0x1 PUSH1 0xA0 SHL SUB AND DUP8 PUSH1 0x1 PUSH1 0x1 PUSH1 0xA0 SHL SUB AND DUP12 PUSH1 0x0 DUP1 MLOAD PUSH1 0x20 PUSH2 0x5BF8 DUP4 CODECOPY DUP2 MLOAD SWAP2 MSTORE TIMESTAMP DUP13 DUP15 PUSH1 0x8 PUSH1 0x40 MLOAD PUSH2 0x1FC5 SWAP5 SWAP4 SWAP3 SWAP2 SWAP1 PUSH2 0x58B3 JUMP JUMPDEST PUSH1 0x40 MLOAD DUP1 SWAP2 SUB SWAP1 LOG4 PUSH1 0x0 DUP9 SWAP1 POP PUSH1 0x0 PUSH1 0x1 SWAP1 POP DUP16 PUSH1 0x2 SUB PUSH2 0x1FF6 JUMPI PUSH2 0x1FEB PUSH1 0x3 DUP4 PUSH2 0x598E JUMP JUMPDEST SWAP2 POP PUSH1 0x2 SWAP1 POP PUSH2 0x2010 JUMP JUMPDEST DUP16 PUSH1 0x3 SUB PUSH2 0x2010 JUMPI PUSH2 0x2009 PUSH1 0xC DUP4 PUSH2 0x598E JUMP JUMPDEST SWAP2 POP PUSH1 0xB SWAP1 POP JUMPDEST PUSH1 0x0 DUP13 DUP2 MSTORE PUSH1 0x9 PUSH1 0x20 SWAP1 DUP2 MSTORE PUSH1 0x40 DUP1 DUP4 KECCAK256 PUSH1 0x1 PUSH1 0x1 PUSH1 0xA0 SHL SUB DUP8 AND DUP5 MSTORE SWAP1 SWAP2 MSTORE DUP2 KECCAK256 DUP1 SLOAD DUP5 SWAP3 SWAP1 PUSH2 0x2042 SWAP1 DUP5 SWAP1 PUSH2 0x59A2 JUMP JUMPDEST SWAP1 SWAP2 SSTORE POP POP PUSH1 0x40 MLOAD PUSH4 0x23B872DD PUSH1 0xE0 SHL DUP2 MSTORE PUSH1 0x1 PUSH1 0x1 PUSH1 0xA0 SHL SUB DUP5 DUP2 AND PUSH1 0x4 DUP4 ADD MSTORE ADDRESS PUSH1 0x24 DUP4 ADD MSTORE PUSH1 0x44 DUP3 ADD DUP5 SWAP1 MSTORE DUP13 AND SWAP1 PUSH4 0x23B872DD SWAP1 PUSH1 0x64 ADD PUSH1 0x20 PUSH1 0x40 MLOAD DUP1 DUP4 SUB DUP2 PUSH1 0x0 DUP8 GAS CALL ISZERO DUP1 ISZERO PUSH2 0x209C JUMPI RETURNDATASIZE PUSH1 0x0 DUP1 RETURNDATACOPY RETURNDATASIZE PUSH1 0x0 REVERT JUMPDEST POP POP POP POP PUSH1 0x40 MLOAD RETURNDATASIZE PUSH1 0x1F NOT PUSH1 0x1F DUP3 ADD AND DUP3 ADD DUP1 PUSH1 0x40 MSTORE POP DUP2 ADD SWAP1 PUSH2 0x20C0 SWAP2 SWAP1 PUSH2 0x59B5 JUMP JUMPDEST PUSH2 0x20C9 JUMPI PUSH1 0x0 DUP1 REVERT JUMPDEST DUP16 PUSH1 0x2 EQ DUP1 PUSH2 0x20D8 JUMPI POP DUP16 PUSH1 0x3 EQ JUMPDEST ISZERO PUSH2 0x2179 JUMPI PUSH1 0x1 PUSH1 0x1 PUSH1 0xA0 SHL SUB DUP12 AND PUSH4 0x23B872DD DUP5 DUP12 PUSH2 0x20F8 DUP6 DUP8 PUSH2 0x59D2 JUMP JUMPDEST PUSH1 0x40 MLOAD PUSH1 0x1 PUSH1 0x1 PUSH1 0xE0 SHL SUB NOT PUSH1 0xE0 DUP7 SWAP1 SHL AND DUP2 MSTORE PUSH1 0x1 PUSH1 0x1 PUSH1 0xA0 SHL SUB SWAP4 DUP5 AND PUSH1 0x4 DUP3 ADD MSTORE SWAP3 SWAP1 SWAP2 AND PUSH1 0x24 DUP4 ADD MSTORE PUSH1 0x44 DUP3 ADD MSTORE PUSH1 0x64 ADD PUSH1 0x20 PUSH1 0x40 MLOAD DUP1 DUP4 SUB DUP2 PUSH1 0x0 DUP8 GAS CALL ISZERO DUP1 ISZERO PUSH2 0x214C JUMPI RETURNDATASIZE PUSH1 0x0 DUP1 RETURNDATACOPY RETURNDATASIZE PUSH1 0x0 REVERT JUMPDEST POP POP POP POP PUSH1 0x40 MLOAD RETURNDATASIZE PUSH1 0x1F NOT PUSH1 0x1F DUP3 ADD AND DUP3 ADD DUP1 PUSH1 0x40 MSTORE POP DUP2 ADD SWAP1 PUSH2 0x2170 SWAP2 SWAP1 PUSH2 0x59B5 JUMP JUMPDEST PUSH2 0x2179 JUMPI PUSH1 0x0 DUP1 REVERT JUMPDEST POP POP PUSH2 0x2390 JUMP JUMPDEST DUP15 PUSH2 0x218A DUP2 PUSH2 0x5910 JUMP JUMPDEST SWAP16 POP POP DUP6 PUSH1 0x9 PUSH1 0x0 DUP13 DUP2 MSTORE PUSH1 0x20 ADD SWAP1 DUP2 MSTORE PUSH1 0x20 ADD PUSH1 0x0 KECCAK256 PUSH1 0x0 DUP4 PUSH1 0x1 PUSH1 0x1 PUSH1 0xA0 SHL SUB AND PUSH1 0x1 PUSH1 0x1 PUSH1 0xA0 SHL SUB AND DUP2 MSTORE PUSH1 0x20 ADD SWAP1 DUP2 MSTORE PUSH1 0x20 ADD PUSH1 0x0 KECCAK256 SLOAD GT ISZERO PUSH2 0x2302 JUMPI PUSH2 0x21D5 DUP7 DUP7 PUSH2 0x59A2 JUMP JUMPDEST PUSH1 0x0 DUP12 DUP2 MSTORE PUSH1 0x9 PUSH1 0x20 SWAP1 DUP2 MSTORE PUSH1 0x40 DUP1 DUP4 KECCAK256 PUSH1 0x1 PUSH1 0x1 PUSH1 0xA0 SHL SUB DUP7 AND DUP5 MSTORE SWAP1 SWAP2 MSTORE DUP2 KECCAK256 SLOAD SWAP2 SWAP7 POP SWAP1 PUSH2 0x2207 SWAP1 DUP9 SWAP1 PUSH2 0x5A12 JUMP JUMPDEST SWAP1 POP PUSH1 0x9 PUSH1 0x0 DUP13 DUP2 MSTORE PUSH1 0x20 ADD SWAP1 DUP2 MSTORE PUSH1 0x20 ADD PUSH1 0x0 KECCAK256 PUSH1 0x0 DUP4 PUSH1 0x1 PUSH1 0x1 PUSH1 0xA0 SHL SUB AND PUSH1 0x1 PUSH1 0x1 PUSH1 0xA0 SHL SUB AND DUP2 MSTORE PUSH1 0x20 ADD SWAP1 DUP2 MSTORE PUSH1 0x20 ADD PUSH1 0x0 KECCAK256 PUSH1 0x0 SWAP1 SSTORE DUP2 PUSH1 0x1 PUSH1 0x1 PUSH1 0xA0 SHL SUB AND DUP9 PUSH1 0x1 PUSH1 0x1 PUSH1 0xA0 SHL SUB AND DUP13 PUSH1 0x0 DUP1 MLOAD PUSH1 0x20 PUSH2 0x5BF8 DUP4 CODECOPY DUP2 MLOAD SWAP2 MSTORE TIMESTAMP DUP6 DUP16 PUSH1 0x4 PUSH1 0x40 MLOAD PUSH2 0x227C SWAP5 SWAP4 SWAP3 SWAP2 SWAP1 PUSH2 0x58B3 JUMP JUMPDEST PUSH1 0x40 MLOAD DUP1 SWAP2 SUB SWAP1 LOG4 PUSH1 0x40 MLOAD PUSH4 0xA9059CBB PUSH1 0xE0 SHL DUP2 MSTORE PUSH1 0x1 PUSH1 0x1 PUSH1 0xA0 SHL SUB DUP10 DUP2 AND PUSH1 0x4 DUP4 ADD MSTORE PUSH1 0x24 DUP3 ADD DUP4 SWAP1 MSTORE DUP12 AND SWAP1 PUSH4 0xA9059CBB SWAP1 PUSH1 0x44 ADD PUSH1 0x20 PUSH1 0x40 MLOAD DUP1 DUP4 SUB DUP2 PUSH1 0x0 DUP8 GAS CALL ISZERO DUP1 ISZERO PUSH2 0x22D3 JUMPI RETURNDATASIZE PUSH1 0x0 DUP1 RETURNDATACOPY RETURNDATASIZE PUSH1 0x0 REVERT JUMPDEST POP POP POP POP PUSH1 0x40 MLOAD RETURNDATASIZE PUSH1 0x1F NOT PUSH1 0x1F DUP3 ADD AND DUP3 ADD DUP1 PUSH1 0x40 MSTORE POP DUP2 ADD SWAP1 PUSH2 0x22F7 SWAP2 SWAP1 PUSH2 0x59B5 JUMP JUMPDEST PUSH2 0x2300 JUMPI PUSH1 0x0 DUP1 REVERT JUMPDEST POP JUMPDEST PUSH2 0x230C DUP11 DUP3 PUSH2 0x4A51 JUMP JUMPDEST DUP1 PUSH1 0x1 PUSH1 0x1 PUSH1 0xA0 SHL SUB AND DUP8 PUSH1 0x1 PUSH1 0x1 PUSH1 0xA0 SHL SUB AND DUP12 PUSH1 0x0 DUP1 MLOAD PUSH1 0x20 PUSH2 0x5BF8 DUP4 CODECOPY DUP2 MLOAD SWAP2 MSTORE TIMESTAMP DUP13 DUP15 PUSH1 0x7 PUSH1 0x40 MLOAD PUSH2 0x2345 SWAP5 SWAP4 SWAP3 SWAP2 SWAP1 PUSH2 0x58B3 JUMP JUMPDEST PUSH1 0x40 MLOAD DUP1 SWAP2 SUB SWAP1 LOG4 DUP1 PUSH1 0x1 PUSH1 0x1 PUSH1 0xA0 SHL SUB AND DUP8 PUSH1 0x1 PUSH1 0x1 PUSH1 0xA0 SHL SUB AND DUP12 PUSH1 0x0 DUP1 MLOAD PUSH1 0x20 PUSH2 0x5BF8 DUP4 CODECOPY DUP2 MLOAD SWAP2 MSTORE TIMESTAMP PUSH1 0x0 DUP15 PUSH1 0x3 PUSH1 0x40 MLOAD PUSH2 0x2387 SWAP5 SWAP4 SWAP3 SWAP2 SWAP1 PUSH2 0x58B3 JUMP JUMPDEST PUSH1 0x40 MLOAD DUP1 SWAP2 SUB SWAP1 LOG4 JUMPDEST DUP3 DUP3 EQ DUP1 ISZERO PUSH2 0x239F JUMPI POP PUSH1 0x0 DUP5 GT JUMPDEST ISZERO PUSH2 0x2446 JUMPI PUSH1 0x40 MLOAD PUSH4 0xA9059CBB PUSH1 0xE0 SHL DUP2 MSTORE CALLER PUSH1 0x4 DUP3 ADD MSTORE PUSH1 0x24 DUP2 ADD DUP7 SWAP1 MSTORE PUSH1 0x1 PUSH1 0x1 PUSH1 0xA0 SHL SUB DUP11 AND SWAP1 PUSH4 0xA9059CBB SWAP1 PUSH1 0x44 ADD PUSH1 0x20 PUSH1 0x40 MLOAD DUP1 DUP4 SUB DUP2 PUSH1 0x0 DUP8 GAS CALL ISZERO DUP1 ISZERO PUSH2 0x23F1 JUMPI RETURNDATASIZE PUSH1 0x0 DUP1 RETURNDATACOPY RETURNDATASIZE PUSH1 0x0 REVERT JUMPDEST POP POP POP POP PUSH1 0x40 MLOAD RETURNDATASIZE PUSH1 0x1F NOT PUSH1 0x1F DUP3 ADD AND DUP3 ADD DUP1 PUSH1 0x40 MSTORE POP DUP2 ADD SWAP1 PUSH2 0x2415 SWAP2 SWAP1 PUSH2 0x59B5 JUMP JUMPDEST PUSH2 0x2446 JUMPI PUSH1 0x40 MLOAD PUSH3 0x461BCD PUSH1 0xE5 SHL DUP2 MSTORE PUSH1 0x20 PUSH1 0x4 DUP3 ADD MSTORE PUSH1 0x2 PUSH1 0x24 DUP3 ADD MSTORE PUSH2 0x1919 PUSH1 0xF1 SHL PUSH1 0x44 DUP3 ADD MSTORE PUSH1 0x64 ADD PUSH2 0x641 JUMP JUMPDEST POP JUMPDEST DUP1 PUSH2 0x2452 DUP2 PUSH2 0x5910 JUMP JUMPDEST SWAP2 POP POP PUSH2 0x1ADE JUMP JUMPDEST POP POP POP POP POP POP POP POP POP JUMPDEST DUP1 PUSH2 0x246E DUP2 PUSH2 0x5910 JUMP JUMPDEST SWAP2 POP POP PUSH2 0x1908 JUMP JUMPDEST POP POP POP DUP1 DUP1 PUSH2 0x2484 SWAP1 PUSH2 0x5910 JUMP JUMPDEST SWAP2 POP POP PUSH2 0x18A8 JUMP JUMPDEST POP PUSH1 0x0 PUSH1 0x3 DUP2 SWAP1 SSTORE PUSH1 0x4 SSTORE PUSH1 0x6 DUP1 SLOAD PUSH1 0xFF NOT AND SWAP1 DUP2 SWAP1 SSTORE PUSH1 0x40 DUP1 MLOAD PUSH5 0xFFFFFFFFFF TIMESTAMP DUP2 AND DUP3 MSTORE PUSH2 0x100 SWAP1 SWAP4 DIV SWAP1 SWAP3 AND PUSH1 0x20 DUP4 ADD MSTORE PUSH1 0x1 SWAP1 DUP3 ADD MSTORE CALLER SWAP1 PUSH32 0x90192D7875364A53E351AE63FD2DFEF8DC941735B29FB0C504D06A0E21AE602E SWAP1 PUSH1 0x60 ADD PUSH1 0x40 MLOAD DUP1 SWAP2 SUB SWAP1 LOG2 PUSH1 0x1 PUSH1 0x6 PUSH1 0x1 DUP3 DUP3 DUP3 SWAP1 SLOAD SWAP1 PUSH2 0x100 EXP SWAP1 DIV PUSH5 0xFFFFFFFFFF AND PUSH2 0x2518 SWAP2 SWAP1 PUSH2 0x5A25 JUMP JUMPDEST SWAP3 POP PUSH2 0x100 EXP DUP2 SLOAD DUP2 PUSH5 0xFFFFFFFFFF MUL NOT AND SWAP1 DUP4 PUSH5 0xFFFFFFFFFF AND MUL OR SWAP1 SSTORE POP DUP3 ISZERO PUSH2 0x175C JUMPI PUSH2 0x175C PUSH2 0x1762 JUMP JUMPDEST PUSH1 0x0 DUP2 DUP2 MSTORE PUSH1 0xB PUSH1 0x20 MSTORE PUSH1 0x40 DUP2 KECCAK256 SLOAD PUSH1 0x60 SWAP2 SWAP1 PUSH8 0xFFFFFFFFFFFFFFFF DUP2 GT ISZERO PUSH2 0x2571 JUMPI PUSH2 0x2571 PUSH2 0x5216 JUMP JUMPDEST PUSH1 0x40 MLOAD SWAP1 DUP1 DUP3 MSTORE DUP1 PUSH1 0x20 MUL PUSH1 0x20 ADD DUP3 ADD PUSH1 0x40 MSTORE DUP1 ISZERO PUSH2 0x259A JUMPI DUP2 PUSH1 0x20 ADD PUSH1 0x20 DUP3 MUL DUP1 CALLDATASIZE DUP4 CALLDATACOPY ADD SWAP1 POP JUMPDEST POP PUSH1 0x0 DUP5 DUP2 MSTORE PUSH1 0xB PUSH1 0x20 SWAP1 DUP2 MSTORE PUSH1 0x40 SWAP2 DUP3 SWAP1 KECCAK256 DUP1 SLOAD DUP4 MLOAD DUP2 DUP5 MUL DUP2 ADD DUP5 ADD SWAP1 SWAP5 MSTORE DUP1 DUP5 MSTORE SWAP4 SWAP5 POP SWAP2 SWAP3 SWAP1 DUP4 ADD DUP3 DUP3 DUP1 ISZERO PUSH2 0x25FD JUMPI PUSH1 0x20 MUL DUP3 ADD SWAP2 SWAP1 PUSH1 0x0 MSTORE PUSH1 0x20 PUSH1 0x0 KECCAK256 SWAP1 JUMPDEST DUP2 SLOAD PUSH1 0x1 PUSH1 0x1 PUSH1 0xA0 SHL SUB AND DUP2 MSTORE PUSH1 0x1 SWAP1 SWAP2 ADD SWAP1 PUSH1 0x20 ADD DUP1 DUP4 GT PUSH2 0x25DF JUMPI JUMPDEST POP POP POP PUSH1 0x0 DUP7 DUP2 MSTORE PUSH1 0xB PUSH1 0x20 MSTORE PUSH1 0x40 DUP2 KECCAK256 SLOAD SWAP4 SWAP5 POP SWAP3 SWAP2 POP POP PUSH8 0xFFFFFFFFFFFFFFFF DUP2 GT ISZERO PUSH2 0x262E JUMPI PUSH2 0x262E PUSH2 0x5216 JUMP JUMPDEST PUSH1 0x40 MLOAD SWAP1 DUP1 DUP3 MSTORE DUP1 PUSH1 0x20 MUL PUSH1 0x20 ADD DUP3 ADD PUSH1 0x40 MSTORE DUP1 ISZERO PUSH2 0x2673 JUMPI DUP2 PUSH1 0x20 ADD JUMPDEST PUSH1 0x40 DUP1 MLOAD DUP1 DUP3 ADD SWAP1 SWAP2 MSTORE PUSH1 0x0 DUP1 DUP3 MSTORE PUSH1 0x20 DUP3 ADD MSTORE DUP2 MSTORE PUSH1 0x20 ADD SWAP1 PUSH1 0x1 SWAP1 SUB SWAP1 DUP2 PUSH2 0x264C JUMPI SWAP1 POP JUMPDEST POP SWAP1 POP PUSH1 0x0 JUMPDEST DUP3 MLOAD DUP2 LT ISZERO PUSH2 0x273F JUMPI PUSH1 0x0 DUP6 DUP2 MSTORE PUSH1 0x9 PUSH1 0x20 MSTORE PUSH1 0x40 DUP2 KECCAK256 DUP5 MLOAD DUP3 SWAP1 DUP7 SWAP1 DUP6 SWAP1 DUP2 LT PUSH2 0x26A6 JUMPI PUSH2 0x26A6 PUSH2 0x58E4 JUMP JUMPDEST PUSH1 0x20 MUL PUSH1 0x20 ADD ADD MLOAD PUSH1 0x1 PUSH1 0x1 PUSH1 0xA0 SHL SUB AND PUSH1 0x1 PUSH1 0x1 PUSH1 0xA0 SHL SUB AND DUP2 MSTORE PUSH1 0x20 ADD SWAP1 DUP2 MSTORE PUSH1 0x20 ADD PUSH1 0x0 KECCAK256 SLOAD SWAP1 POP PUSH1 0x0 PUSH1 0x40 MLOAD DUP1 PUSH1 0x40 ADD PUSH1 0x40 MSTORE DUP1 DUP7 DUP6 DUP2 MLOAD DUP2 LT PUSH2 0x26F0 JUMPI PUSH2 0x26F0 PUSH2 0x58E4 JUMP JUMPDEST PUSH1 0x20 MUL PUSH1 0x20 ADD ADD MLOAD PUSH1 0x1 PUSH1 0x1 PUSH1 0xA0 SHL SUB AND DUP2 MSTORE PUSH1 0x20 ADD DUP4 DUP2 MSTORE POP SWAP1 POP DUP1 DUP5 DUP5 DUP2 MLOAD DUP2 LT PUSH2 0x271F JUMPI PUSH2 0x271F PUSH2 0x58E4 JUMP JUMPDEST PUSH1 0x20 MUL PUSH1 0x20 ADD ADD DUP2 SWAP1 MSTORE POP POP POP DUP1 DUP1 PUSH2 0x2737 SWAP1 PUSH2 0x5910 JUMP JUMPDEST SWAP2 POP POP PUSH2 0x2679 JUMP JUMPDEST POP SWAP4 SWAP3 POP POP POP JUMP JUMPDEST PUSH1 0x60 DUP1 DUP4 ISZERO PUSH2 0x2847 JUMPI PUSH1 0x1 PUSH1 0x1 PUSH1 0xA0 SHL SUB DUP4 AND PUSH1 0x0 SWAP1 DUP2 MSTORE PUSH1 0x7 PUSH1 0x20 SWAP1 DUP2 MSTORE PUSH1 0x40 DUP1 DUP4 KECCAK256 PUSH1 0x1 ADD DUP1 SLOAD DUP3 MLOAD DUP2 DUP6 MUL DUP2 ADD DUP6 ADD SWAP1 SWAP4 MSTORE DUP1 DUP4 MSTORE SWAP2 SWAP4 SWAP1 SWAP3 DUP5 ADD JUMPDEST DUP3 DUP3 LT ISZERO PUSH2 0x283C JUMPI PUSH1 0x0 DUP5 DUP2 MSTORE PUSH1 0x20 SWAP1 DUP2 SWAP1 KECCAK256 PUSH1 0x40 DUP1 MLOAD PUSH1 0x80 DUP2 ADD DUP3 MSTORE PUSH1 0x2 DUP7 MUL SWAP1 SWAP3 ADD DUP1 SLOAD DUP4 MSTORE PUSH1 0x1 DUP2 ADD SLOAD PUSH2 0xFFFF DUP2 AND SWAP5 DUP5 ADD SWAP5 SWAP1 SWAP5 MSTORE SWAP2 SWAP3 SWAP1 DUP4 ADD SWAP1 PUSH3 0x10000 SWAP1 DIV PUSH1 0xFF AND PUSH1 0x3 DUP2 GT ISZERO PUSH2 0x27DF JUMPI PUSH2 0x27DF PUSH2 0x515F JUMP JUMPDEST PUSH1 0x3 DUP2 GT ISZERO PUSH2 0x27F0 JUMPI PUSH2 0x27F0 PUSH2 0x515F JUMP JUMPDEST DUP2 MSTORE PUSH1 0x20 ADD PUSH1 0x1 DUP3 ADD PUSH1 0x3 SWAP1 SLOAD SWAP1 PUSH2 0x100 EXP SWAP1 DIV PUSH1 0xFF AND PUSH1 0x2 DUP2 GT ISZERO PUSH2 0x2818 JUMPI PUSH2 0x2818 PUSH2 0x515F JUMP JUMPDEST PUSH1 0x2 DUP2 GT ISZERO PUSH2 0x2829 JUMPI PUSH2 0x2829 PUSH2 0x515F JUMP JUMPDEST DUP2 MSTORE POP POP DUP2 MSTORE PUSH1 0x20 ADD SWAP1 PUSH1 0x1 ADD SWAP1 PUSH2 0x2786 JUMP JUMPDEST POP POP POP POP SWAP1 POP PUSH2 0x293A JUMP JUMPDEST PUSH1 0x1 PUSH1 0x1 PUSH1 0xA0 SHL SUB DUP4 AND PUSH1 0x0 SWAP1 DUP2 MSTORE PUSH1 0x7 PUSH1 0x20 SWAP1 DUP2 MSTORE PUSH1 0x40 DUP1 DUP4 KECCAK256 PUSH1 0x2 ADD DUP1 SLOAD DUP3 MLOAD DUP2 DUP6 MUL DUP2 ADD DUP6 ADD SWAP1 SWAP4 MSTORE DUP1 DUP4 MSTORE SWAP2 SWAP4 SWAP1 SWAP3 DUP5 ADD JUMPDEST DUP3 DUP3 LT ISZERO PUSH2 0x2933 JUMPI PUSH1 0x0 DUP5 DUP2 MSTORE PUSH1 0x20 SWAP1 DUP2 SWAP1 KECCAK256 PUSH1 0x40 DUP1 MLOAD PUSH1 0x80 DUP2 ADD DUP3 MSTORE PUSH1 0x2 DUP7 MUL SWAP1 SWAP3 ADD DUP1 SLOAD DUP4 MSTORE PUSH1 0x1 DUP2 ADD SLOAD PUSH2 0xFFFF DUP2 AND SWAP5 DUP5 ADD SWAP5 SWAP1 SWAP5 MSTORE SWAP2 SWAP3 SWAP1 DUP4 ADD SWAP1 PUSH3 0x10000 SWAP1 DIV PUSH1 0xFF AND PUSH1 0x3 DUP2 GT ISZERO PUSH2 0x28D6 JUMPI PUSH2 0x28D6 PUSH2 0x515F JUMP JUMPDEST PUSH1 0x3 DUP2 GT ISZERO PUSH2 0x28E7 JUMPI PUSH2 0x28E7 PUSH2 0x515F JUMP JUMPDEST DUP2 MSTORE PUSH1 0x20 ADD PUSH1 0x1 DUP3 ADD PUSH1 0x3 SWAP1 SLOAD SWAP1 PUSH2 0x100 EXP SWAP1 DIV PUSH1 0xFF AND PUSH1 0x2 DUP2 GT ISZERO PUSH2 0x290F JUMPI PUSH2 0x290F PUSH2 0x515F JUMP JUMPDEST PUSH1 0x2 DUP2 GT ISZERO PUSH2 0x2920 JUMPI PUSH2 0x2920 PUSH2 0x515F JUMP JUMPDEST DUP2 MSTORE POP POP DUP2 MSTORE PUSH1 0x20 ADD SWAP1 PUSH1 0x1 ADD SWAP1 PUSH2 0x287D JUMP JUMPDEST POP POP POP POP SWAP1 POP JUMPDEST PUSH1 0x0 DUP2 MLOAD PUSH8 0xFFFFFFFFFFFFFFFF DUP2 GT ISZERO PUSH2 0x2956 JUMPI PUSH2 0x2956 PUSH2 0x5216 JUMP JUMPDEST PUSH1 0x40 MLOAD SWAP1 DUP1 DUP3 MSTORE DUP1 PUSH1 0x20 MUL PUSH1 0x20 ADD DUP3 ADD PUSH1 0x40 MSTORE DUP1 ISZERO PUSH2 0x29DC JUMPI DUP2 PUSH1 0x20 ADD JUMPDEST PUSH1 0x40 DUP1 MLOAD PUSH2 0x160 DUP2 ADD DUP3 MSTORE PUSH1 0x0 PUSH1 0x60 DUP3 ADD DUP2 DUP2 MSTORE PUSH1 0x80 DUP4 ADD DUP3 SWAP1 MSTORE PUSH1 0xA0 DUP4 ADD DUP3 SWAP1 MSTORE PUSH1 0xC0 DUP4 ADD DUP3 SWAP1 MSTORE PUSH1 0xE0 DUP4 ADD DUP3 SWAP1 MSTORE PUSH2 0x100 DUP4 ADD DUP3 SWAP1 MSTORE PUSH2 0x120 DUP4 ADD DUP3 SWAP1 MSTORE PUSH2 0x140 DUP4 ADD DUP3 SWAP1 MSTORE DUP3 MSTORE PUSH1 0x20 DUP1 DUP4 ADD DUP3 SWAP1 MSTORE SWAP3 DUP3 ADD MSTORE DUP3 MSTORE PUSH1 0x0 NOT SWAP1 SWAP3 ADD SWAP2 ADD DUP2 PUSH2 0x2974 JUMPI SWAP1 POP JUMPDEST POP SWAP1 POP PUSH1 0x0 JUMPDEST DUP3 MLOAD DUP2 LT ISZERO PUSH2 0x2B3D JUMPI PUSH2 0x2A4D DUP4 DUP3 DUP2 MLOAD DUP2 LT PUSH2 0x2A00 JUMPI PUSH2 0x2A00 PUSH2 0x58E4 JUMP JUMPDEST PUSH1 0x20 MUL PUSH1 0x20 ADD ADD MLOAD PUSH1 0x0 ADD MLOAD DUP5 DUP4 DUP2 MLOAD DUP2 LT PUSH2 0x2A1E JUMPI PUSH2 0x2A1E PUSH2 0x58E4 JUMP JUMPDEST PUSH1 0x20 MUL PUSH1 0x20 ADD ADD MLOAD PUSH1 0x40 ADD MLOAD DUP6 DUP5 DUP2 MLOAD DUP2 LT PUSH2 0x2A3C JUMPI PUSH2 0x2A3C PUSH2 0x58E4 JUMP JUMPDEST PUSH1 0x20 MUL PUSH1 0x20 ADD ADD MLOAD PUSH1 0x20 ADD MLOAD PUSH2 0xB67 JUMP JUMPDEST DUP3 DUP3 DUP2 MLOAD DUP2 LT PUSH2 0x2A5F JUMPI PUSH2 0x2A5F PUSH2 0x58E4 JUMP JUMPDEST PUSH1 0x20 MUL PUSH1 0x20 ADD ADD MLOAD PUSH1 0x0 ADD DUP2 SWAP1 MSTORE POP DUP3 DUP2 DUP2 MLOAD DUP2 LT PUSH2 0x2A80 JUMPI PUSH2 0x2A80 PUSH2 0x58E4 JUMP JUMPDEST PUSH1 0x20 MUL PUSH1 0x20 ADD ADD MLOAD PUSH1 0x60 ADD MLOAD DUP3 DUP3 DUP2 MLOAD DUP2 LT PUSH2 0x2A9E JUMPI PUSH2 0x2A9E PUSH2 0x58E4 JUMP JUMPDEST PUSH1 0x20 MUL PUSH1 0x20 ADD ADD MLOAD PUSH1 0x20 ADD SWAP1 PUSH1 0x2 DUP2 GT ISZERO PUSH2 0x2ABB JUMPI PUSH2 0x2ABB PUSH2 0x515F JUMP JUMPDEST SWAP1 DUP2 PUSH1 0x2 DUP2 GT ISZERO PUSH2 0x2ACE JUMPI PUSH2 0x2ACE PUSH2 0x515F JUMP JUMPDEST DUP2 MSTORE POP POP PUSH1 0xB PUSH1 0x0 DUP4 DUP4 DUP2 MLOAD DUP2 LT PUSH2 0x2AE8 JUMPI PUSH2 0x2AE8 PUSH2 0x58E4 JUMP JUMPDEST PUSH1 0x20 MUL PUSH1 0x20 ADD ADD MLOAD PUSH1 0x0 ADD MLOAD PUSH1 0x0 ADD MLOAD DUP2 MSTORE PUSH1 0x20 ADD SWAP1 DUP2 MSTORE PUSH1 0x20 ADD PUSH1 0x0 KECCAK256 DUP1 SLOAD SWAP1 POP DUP3 DUP3 DUP2 MLOAD DUP2 LT PUSH2 0x2B1C JUMPI PUSH2 0x2B1C PUSH2 0x58E4 JUMP JUMPDEST PUSH1 0x20 SWAP1 DUP2 MUL SWAP2 SWAP1 SWAP2 ADD ADD MLOAD PUSH1 0x40 ADD MSTORE DUP1 PUSH2 0x2B35 DUP2 PUSH2 0x5910 JUMP JUMPDEST SWAP2 POP POP PUSH2 0x29E2 JUMP JUMPDEST POP SWAP2 POP POP JUMPDEST SWAP3 SWAP2 POP POP JUMP JUMPDEST PUSH2 0x2B50 PUSH2 0x44B1 JUMP JUMPDEST PUSH2 0x2B66 DUP2 CALLDATALOAD PUSH2 0xEF7 PUSH2 0x100 DUP5 ADD PUSH1 0xE0 DUP6 ADD PUSH2 0x5942 JUMP JUMPDEST PUSH2 0x2B96 JUMPI PUSH1 0x40 MLOAD PUSH3 0x461BCD PUSH1 0xE5 SHL DUP2 MSTORE PUSH1 0x20 PUSH1 0x4 DUP3 ADD MSTORE PUSH1 0x1 PUSH1 0x24 DUP3 ADD MSTORE PUSH1 0x37 PUSH1 0xF8 SHL PUSH1 0x44 DUP3 ADD MSTORE PUSH1 0x64 ADD PUSH2 0x641 JUMP JUMPDEST PUSH2 0x2BA6 PUSH1 0x60 DUP3 ADD PUSH1 0x40 DUP4 ADD PUSH2 0x5032 JUMP JUMPDEST PUSH1 0x1 PUSH1 0x1 PUSH1 0xA0 SHL SUB AND CALLER PUSH1 0x1 PUSH1 0x1 PUSH1 0xA0 SHL SUB AND EQ PUSH2 0x2BEB JUMPI PUSH1 0x40 MLOAD PUSH3 0x461BCD PUSH1 0xE5 SHL DUP2 MSTORE PUSH1 0x20 PUSH1 0x4 DUP3 ADD MSTORE PUSH1 0x2 PUSH1 0x24 DUP3 ADD MSTORE PUSH2 0x3233 PUSH1 0xF0 SHL PUSH1 0x44 DUP3 ADD MSTORE PUSH1 0x64 ADD PUSH2 0x641 JUMP JUMPDEST CALLER PUSH1 0x0 SWAP1 DUP2 MSTORE PUSH1 0x7 PUSH1 0x20 SWAP1 DUP2 MSTORE PUSH1 0x40 DUP1 DUP4 KECCAK256 PUSH1 0x2 ADD DUP1 SLOAD DUP3 MLOAD DUP2 DUP6 MUL DUP2 ADD DUP6 ADD SWAP1 SWAP4 MSTORE DUP1 DUP4 MSTORE SWAP2 SWAP3 SWAP1 SWAP2 SWAP1 DUP5 SWAP1 DUP5 ADD JUMPDEST DUP3 DUP3 LT ISZERO PUSH2 0x2CD1 JUMPI PUSH1 0x0 DUP5 DUP2 MSTORE PUSH1 0x20 SWAP1 DUP2 SWAP1 KECCAK256 PUSH1 0x40 DUP1 MLOAD PUSH1 0x80 DUP2 ADD DUP3 MSTORE PUSH1 0x2 DUP7 MUL SWAP1 SWAP3 ADD DUP1 SLOAD DUP4 MSTORE PUSH1 0x1 DUP2 ADD SLOAD PUSH2 0xFFFF DUP2 AND SWAP5 DUP5 ADD SWAP5 SWAP1 SWAP5 MSTORE SWAP2 SWAP3 SWAP1 DUP4 ADD SWAP1 PUSH3 0x10000 SWAP1 DIV PUSH1 0xFF AND PUSH1 0x3 DUP2 GT ISZERO PUSH2 0x2C74 JUMPI PUSH2 0x2C74 PUSH2 0x515F JUMP JUMPDEST PUSH1 0x3 DUP2 GT ISZERO PUSH2 0x2C85 JUMPI PUSH2 0x2C85 PUSH2 0x515F JUMP JUMPDEST DUP2 MSTORE PUSH1 0x20 ADD PUSH1 0x1 DUP3 ADD PUSH1 0x3 SWAP1 SLOAD SWAP1 PUSH2 0x100 EXP SWAP1 DIV PUSH1 0xFF AND PUSH1 0x2 DUP2 GT ISZERO PUSH2 0x2CAD JUMPI PUSH2 0x2CAD PUSH2 0x515F JUMP JUMPDEST PUSH1 0x2 DUP2 GT ISZERO PUSH2 0x2CBE JUMPI PUSH2 0x2CBE PUSH2 0x515F JUMP JUMPDEST DUP2 MSTORE POP POP DUP2 MSTORE PUSH1 0x20 ADD SWAP1 PUSH1 0x1 ADD SWAP1 PUSH2 0x2C1B JUMP JUMPDEST POP POP CALLER PUSH1 0x0 SWAP1 DUP2 MSTORE PUSH1 0x7 PUSH1 0x20 MSTORE PUSH1 0x40 DUP2 KECCAK256 PUSH1 0x2 ADD SLOAD SWAP4 SWAP5 POP SWAP2 POP POP JUMPDEST DUP2 DUP2 LT ISZERO PUSH2 0x2D8F JUMPI DUP4 PUSH1 0x0 ADD CALLDATALOAD DUP4 DUP3 DUP2 MLOAD DUP2 LT PUSH2 0x2D0C JUMPI PUSH2 0x2D0C PUSH2 0x58E4 JUMP JUMPDEST PUSH1 0x20 MUL PUSH1 0x20 ADD ADD MLOAD PUSH1 0x0 ADD MLOAD SUB PUSH2 0x2D7D JUMPI CALLER PUSH1 0x0 SWAP1 DUP2 MSTORE PUSH1 0x7 PUSH1 0x20 MSTORE PUSH1 0x40 SWAP1 KECCAK256 PUSH1 0x2 ADD DUP1 SLOAD PUSH1 0x1 SWAP2 SWAP1 DUP4 SWAP1 DUP2 LT PUSH2 0x2D45 JUMPI PUSH2 0x2D45 PUSH2 0x58E4 JUMP JUMPDEST SWAP1 PUSH1 0x0 MSTORE PUSH1 0x20 PUSH1 0x0 KECCAK256 SWAP1 PUSH1 0x2 MUL ADD PUSH1 0x1 ADD PUSH1 0x3 PUSH2 0x100 EXP DUP2 SLOAD DUP2 PUSH1 0xFF MUL NOT AND SWAP1 DUP4 PUSH1 0x2 DUP2 GT ISZERO PUSH2 0x2D77 JUMPI PUSH2 0x2D77 PUSH2 0x515F JUMP JUMPDEST MUL OR SWAP1 SSTORE POP JUMPDEST DUP1 PUSH2 0x2D87 DUP2 PUSH2 0x5910 JUMP JUMPDEST SWAP2 POP POP PUSH2 0x2CED JUMP JUMPDEST POP DUP3 CALLDATALOAD PUSH1 0x0 SWAP1 DUP2 MSTORE PUSH1 0xB PUSH1 0x20 SWAP1 DUP2 MSTORE PUSH1 0x40 DUP1 DUP4 KECCAK256 DUP1 SLOAD DUP3 MLOAD DUP2 DUP6 MUL DUP2 ADD DUP6 ADD SWAP1 SWAP4 MSTORE DUP1 DUP4 MSTORE SWAP2 SWAP3 SWAP1 SWAP2 SWAP1 DUP4 ADD DUP3 DUP3 DUP1 ISZERO PUSH2 0x2DF2 JUMPI PUSH1 0x20 MUL DUP3 ADD SWAP2 SWAP1 PUSH1 0x0 MSTORE PUSH1 0x20 PUSH1 0x0 KECCAK256 SWAP1 JUMPDEST DUP2 SLOAD PUSH1 0x1 PUSH1 0x1 PUSH1 0xA0 SHL SUB AND DUP2 MSTORE PUSH1 0x1 SWAP1 SWAP2 ADD SWAP1 PUSH1 0x20 ADD DUP1 DUP4 GT PUSH2 0x2DD4 JUMPI JUMPDEST POP POP POP POP POP SWAP1 POP PUSH1 0x0 JUMPDEST DUP2 MLOAD DUP2 LT ISZERO PUSH2 0x3332 JUMPI DUP5 CALLDATALOAD PUSH1 0x0 SWAP1 DUP2 MSTORE PUSH1 0x9 PUSH1 0x20 MSTORE PUSH1 0x40 DUP2 KECCAK256 DUP4 MLOAD DUP3 SWAP1 DUP6 SWAP1 DUP6 SWAP1 DUP2 LT PUSH2 0x2E2B JUMPI PUSH2 0x2E2B PUSH2 0x58E4 JUMP JUMPDEST PUSH1 0x20 MUL PUSH1 0x20 ADD ADD MLOAD PUSH1 0x1 PUSH1 0x1 PUSH1 0xA0 SHL SUB AND PUSH1 0x1 PUSH1 0x1 PUSH1 0xA0 SHL SUB AND DUP2 MSTORE PUSH1 0x20 ADD SWAP1 DUP2 MSTORE PUSH1 0x20 ADD PUSH1 0x0 KECCAK256 SLOAD SWAP1 POP DUP3 DUP3 DUP2 MLOAD DUP2 LT PUSH2 0x2E68 JUMPI PUSH2 0x2E68 PUSH2 0x58E4 JUMP JUMPDEST PUSH1 0x20 MUL PUSH1 0x20 ADD ADD MLOAD PUSH1 0x1 PUSH1 0x1 PUSH1 0xA0 SHL SUB AND DUP7 PUSH1 0x40 ADD PUSH1 0x20 DUP2 ADD SWAP1 PUSH2 0x2E8C SWAP2 SWAP1 PUSH2 0x5032 JUMP JUMPDEST PUSH1 0x1 PUSH1 0x1 PUSH1 0xA0 SHL SUB AND DUP8 CALLDATALOAD PUSH1 0x0 DUP1 MLOAD PUSH1 0x20 PUSH2 0x5BF8 DUP4 CODECOPY DUP2 MLOAD SWAP2 MSTORE TIMESTAMP DUP6 PUSH2 0x2EB8 PUSH1 0x80 DUP14 ADD PUSH1 0x60 DUP15 ADD PUSH2 0x5032 JUMP JUMPDEST PUSH1 0x9 PUSH1 0x40 MLOAD PUSH2 0x2ECA SWAP5 SWAP4 SWAP3 SWAP2 SWAP1 PUSH2 0x58B3 JUMP JUMPDEST PUSH1 0x40 MLOAD DUP1 SWAP2 SUB SWAP1 LOG4 DUP6 CALLDATALOAD PUSH1 0x0 SWAP1 DUP2 MSTORE PUSH1 0x9 PUSH1 0x20 MSTORE PUSH1 0x40 DUP2 KECCAK256 DUP5 MLOAD SWAP1 SWAP2 SWAP1 DUP6 SWAP1 DUP6 SWAP1 DUP2 LT PUSH2 0x2EF9 JUMPI PUSH2 0x2EF9 PUSH2 0x58E4 JUMP JUMPDEST PUSH1 0x20 MUL PUSH1 0x20 ADD ADD MLOAD PUSH1 0x1 PUSH1 0x1 PUSH1 0xA0 SHL SUB AND PUSH1 0x1 PUSH1 0x1 PUSH1 0xA0 SHL SUB AND DUP2 MSTORE PUSH1 0x20 ADD SWAP1 DUP2 MSTORE PUSH1 0x20 ADD PUSH1 0x0 KECCAK256 PUSH1 0x0 SWAP1 SSTORE DUP6 PUSH1 0x60 ADD PUSH1 0x20 DUP2 ADD SWAP1 PUSH2 0x2F38 SWAP2 SWAP1 PUSH2 0x5032 JUMP JUMPDEST PUSH1 0x1 PUSH1 0x1 PUSH1 0xA0 SHL SUB AND PUSH4 0xA9059CBB DUP5 DUP5 DUP2 MLOAD DUP2 LT PUSH2 0x2F58 JUMPI PUSH2 0x2F58 PUSH2 0x58E4 JUMP JUMPDEST PUSH1 0x20 MUL PUSH1 0x20 ADD ADD MLOAD DUP4 PUSH1 0x40 MLOAD DUP4 PUSH4 0xFFFFFFFF AND PUSH1 0xE0 SHL DUP2 MSTORE PUSH1 0x4 ADD PUSH2 0x2F92 SWAP3 SWAP2 SWAP1 PUSH1 0x1 PUSH1 0x1 PUSH1 0xA0 SHL SUB SWAP3 SWAP1 SWAP3 AND DUP3 MSTORE PUSH1 0x20 DUP3 ADD MSTORE PUSH1 0x40 ADD SWAP1 JUMP JUMPDEST PUSH1 0x20 PUSH1 0x40 MLOAD DUP1 DUP4 SUB DUP2 PUSH1 0x0 DUP8 GAS CALL ISZERO DUP1 ISZERO PUSH2 0x2FB1 JUMPI RETURNDATASIZE PUSH1 0x0 DUP1 RETURNDATACOPY RETURNDATASIZE PUSH1 0x0 REVERT JUMPDEST POP POP POP POP PUSH1 0x40 MLOAD RETURNDATASIZE PUSH1 0x1F NOT PUSH1 0x1F DUP3 ADD AND DUP3 ADD DUP1 PUSH1 0x40 MSTORE POP DUP2 ADD SWAP1 PUSH2 0x2FD5 SWAP2 SWAP1 PUSH2 0x59B5 JUMP JUMPDEST PUSH2 0x3006 JUMPI PUSH1 0x40 MLOAD PUSH3 0x461BCD PUSH1 0xE5 SHL DUP2 MSTORE PUSH1 0x20 PUSH1 0x4 DUP3 ADD MSTORE PUSH1 0x2 PUSH1 0x24 DUP3 ADD MSTORE PUSH2 0x3231 PUSH1 0xF0 SHL PUSH1 0x44 DUP3 ADD MSTORE PUSH1 0x64 ADD PUSH2 0x641 JUMP JUMPDEST PUSH1 0x0 PUSH1 0x7 PUSH1 0x0 DUP6 DUP6 DUP2 MLOAD DUP2 LT PUSH2 0x301E JUMPI PUSH2 0x301E PUSH2 0x58E4 JUMP JUMPDEST PUSH1 0x20 MUL PUSH1 0x20 ADD ADD MLOAD PUSH1 0x1 PUSH1 0x1 PUSH1 0xA0 SHL SUB AND PUSH1 0x1 PUSH1 0x1 PUSH1 0xA0 SHL SUB AND DUP2 MSTORE PUSH1 0x20 ADD SWAP1 DUP2 MSTORE PUSH1 0x20 ADD PUSH1 0x0 KECCAK256 PUSH1 0x1 ADD DUP1 SLOAD SWAP1 POP PUSH8 0xFFFFFFFFFFFFFFFF DUP2 GT ISZERO PUSH2 0x3065 JUMPI PUSH2 0x3065 PUSH2 0x5216 JUMP JUMPDEST PUSH1 0x40 MLOAD SWAP1 DUP1 DUP3 MSTORE DUP1 PUSH1 0x20 MUL PUSH1 0x20 ADD DUP3 ADD PUSH1 0x40 MSTORE DUP1 ISZERO PUSH2 0x30C0 JUMPI DUP2 PUSH1 0x20 ADD JUMPDEST PUSH2 0x30AD PUSH1 0x40 DUP1 MLOAD PUSH1 0x80 DUP2 ADD DUP3 MSTORE PUSH1 0x0 DUP1 DUP3 MSTORE PUSH1 0x20 DUP3 ADD DUP2 SWAP1 MSTORE SWAP1 SWAP2 DUP3 ADD SWAP1 DUP2 MSTORE PUSH1 0x20 ADD PUSH1 0x0 SWAP1 MSTORE SWAP1 JUMP JUMPDEST DUP2 MSTORE PUSH1 0x20 ADD SWAP1 PUSH1 0x1 SWAP1 SUB SWAP1 DUP2 PUSH2 0x3083 JUMPI SWAP1 POP JUMPDEST POP SWAP1 POP PUSH1 0x7 PUSH1 0x0 DUP6 DUP6 DUP2 MLOAD DUP2 LT PUSH2 0x30D9 JUMPI PUSH2 0x30D9 PUSH2 0x58E4 JUMP JUMPDEST PUSH1 0x20 MUL PUSH1 0x20 ADD ADD MLOAD PUSH1 0x1 PUSH1 0x1 PUSH1 0xA0 SHL SUB AND PUSH1 0x1 PUSH1 0x1 PUSH1 0xA0 SHL SUB AND DUP2 MSTORE PUSH1 0x20 ADD SWAP1 DUP2 MSTORE PUSH1 0x20 ADD PUSH1 0x0 KECCAK256 PUSH1 0x1 ADD DUP1 SLOAD DUP1 PUSH1 0x20 MUL PUSH1 0x20 ADD PUSH1 0x40 MLOAD SWAP1 DUP2 ADD PUSH1 0x40 MSTORE DUP1 SWAP3 SWAP2 SWAP1 DUP2 DUP2 MSTORE PUSH1 0x20 ADD PUSH1 0x0 SWAP1 JUMPDEST DUP3 DUP3 LT ISZERO PUSH2 0x31DA JUMPI PUSH1 0x0 DUP5 DUP2 MSTORE PUSH1 0x20 SWAP1 DUP2 SWAP1 KECCAK256 PUSH1 0x40 DUP1 MLOAD PUSH1 0x80 DUP2 ADD DUP3 MSTORE PUSH1 0x2 DUP7 MUL SWAP1 SWAP3 ADD DUP1 SLOAD DUP4 MSTORE PUSH1 0x1 DUP2 ADD SLOAD PUSH2 0xFFFF DUP2 AND SWAP5 DUP5 ADD SWAP5 SWAP1 SWAP5 MSTORE SWAP2 SWAP3 SWAP1 DUP4 ADD SWAP1 PUSH3 0x10000 SWAP1 DIV PUSH1 0xFF AND PUSH1 0x3 DUP2 GT ISZERO PUSH2 0x317D JUMPI PUSH2 0x317D PUSH2 0x515F JUMP JUMPDEST PUSH1 0x3 DUP2 GT ISZERO PUSH2 0x318E JUMPI PUSH2 0x318E PUSH2 0x515F JUMP JUMPDEST DUP2 MSTORE PUSH1 0x20 ADD PUSH1 0x1 DUP3 ADD PUSH1 0x3 SWAP1 SLOAD SWAP1 PUSH2 0x100 EXP SWAP1 DIV PUSH1 0xFF AND PUSH1 0x2 DUP2 GT ISZERO PUSH2 0x31B6 JUMPI PUSH2 0x31B6 PUSH2 0x515F JUMP JUMPDEST PUSH1 0x2 DUP2 GT ISZERO PUSH2 0x31C7 JUMPI PUSH2 0x31C7 PUSH2 0x515F JUMP JUMPDEST DUP2 MSTORE POP POP DUP2 MSTORE PUSH1 0x20 ADD SWAP1 PUSH1 0x1 ADD SWAP1 PUSH2 0x3124 JUMP JUMPDEST POP POP POP POP SWAP1 POP PUSH1 0x0 JUMPDEST PUSH1 0x7 PUSH1 0x0 DUP7 DUP7 DUP2 MLOAD DUP2 LT PUSH2 0x31F9 JUMPI PUSH2 0x31F9 PUSH2 0x58E4 JUMP JUMPDEST PUSH1 0x20 MUL PUSH1 0x20 ADD ADD MLOAD PUSH1 0x1 PUSH1 0x1 PUSH1 0xA0 SHL SUB AND PUSH1 0x1 PUSH1 0x1 PUSH1 0xA0 SHL SUB AND DUP2 MSTORE PUSH1 0x20 ADD SWAP1 DUP2 MSTORE PUSH1 0x20 ADD PUSH1 0x0 KECCAK256 PUSH1 0x1 ADD DUP1 SLOAD SWAP1 POP DUP2 LT ISZERO PUSH2 0x32F5 JUMPI DUP8 PUSH1 0x0 ADD CALLDATALOAD DUP3 DUP3 DUP2 MLOAD DUP2 LT PUSH2 0x3246 JUMPI PUSH2 0x3246 PUSH2 0x58E4 JUMP JUMPDEST PUSH1 0x20 MUL PUSH1 0x20 ADD ADD MLOAD PUSH1 0x0 ADD MLOAD SUB PUSH2 0x32E3 JUMPI PUSH1 0x1 PUSH1 0x7 PUSH1 0x0 DUP8 DUP8 DUP2 MLOAD DUP2 LT PUSH2 0x326F JUMPI PUSH2 0x326F PUSH2 0x58E4 JUMP JUMPDEST PUSH1 0x20 MUL PUSH1 0x20 ADD ADD MLOAD PUSH1 0x1 PUSH1 0x1 PUSH1 0xA0 SHL SUB AND PUSH1 0x1 PUSH1 0x1 PUSH1 0xA0 SHL SUB AND DUP2 MSTORE PUSH1 0x20 ADD SWAP1 DUP2 MSTORE PUSH1 0x20 ADD PUSH1 0x0 KECCAK256 PUSH1 0x1 ADD DUP3 DUP2 SLOAD DUP2 LT PUSH2 0x32AB JUMPI PUSH2 0x32AB PUSH2 0x58E4 JUMP JUMPDEST SWAP1 PUSH1 0x0 MSTORE PUSH1 0x20 PUSH1 0x0 KECCAK256 SWAP1 PUSH1 0x2 MUL ADD PUSH1 0x1 ADD PUSH1 0x3 PUSH2 0x100 EXP DUP2 SLOAD DUP2 PUSH1 0xFF MUL NOT AND SWAP1 DUP4 PUSH1 0x2 DUP2 GT ISZERO PUSH2 0x32DD JUMPI PUSH2 0x32DD PUSH2 0x515F JUMP JUMPDEST MUL OR SWAP1 SSTORE POP JUMPDEST DUP1 PUSH2 0x32ED DUP2 PUSH2 0x5910 JUMP JUMPDEST SWAP2 POP POP PUSH2 0x31E3 JUMP JUMPDEST POP PUSH2 0x331D DUP8 PUSH1 0x0 ADD CALLDATALOAD DUP6 DUP6 DUP2 MLOAD DUP2 LT PUSH2 0x3310 JUMPI PUSH2 0x3310 PUSH2 0x58E4 JUMP JUMPDEST PUSH1 0x20 MUL PUSH1 0x20 ADD ADD MLOAD PUSH2 0x4A51 JUMP JUMPDEST POP POP DUP1 DUP1 PUSH2 0x332A SWAP1 PUSH2 0x5910 JUMP JUMPDEST SWAP2 POP POP PUSH2 0x2DFC JUMP JUMPDEST POP PUSH1 0x0 PUSH1 0xA DUP2 PUSH2 0x3348 PUSH1 0xE0 DUP9 ADD PUSH1 0xC0 DUP10 ADD PUSH2 0x595D JUMP JUMPDEST PUSH1 0x3 DUP2 GT ISZERO PUSH2 0x3359 JUMPI PUSH2 0x3359 PUSH2 0x515F JUMP JUMPDEST DUP2 MSTORE PUSH1 0x20 ADD SWAP1 DUP2 MSTORE PUSH1 0x20 ADD PUSH1 0x0 KECCAK256 PUSH1 0x0 DUP7 PUSH1 0xE0 ADD PUSH1 0x20 DUP2 ADD SWAP1 PUSH2 0x337C SWAP2 SWAP1 PUSH2 0x5942 JUMP JUMPDEST PUSH2 0xFFFF AND PUSH2 0xFFFF AND DUP2 MSTORE PUSH1 0x20 ADD SWAP1 DUP2 MSTORE PUSH1 0x20 ADD PUSH1 0x0 KECCAK256 DUP1 SLOAD DUP1 PUSH1 0x20 MUL PUSH1 0x20 ADD PUSH1 0x40 MLOAD SWAP1 DUP2 ADD PUSH1 0x40 MSTORE DUP1 SWAP3 SWAP2 SWAP1 DUP2 DUP2 MSTORE PUSH1 0x20 ADD PUSH1 0x0 SWAP1 JUMPDEST DUP3 DUP3 LT ISZERO PUSH2 0x3489 JUMPI PUSH1 0x0 DUP5 DUP2 MSTORE PUSH1 0x20 SWAP1 DUP2 SWAP1 KECCAK256 PUSH1 0x40 DUP1 MLOAD PUSH2 0x100 DUP2 ADD DUP3 MSTORE PUSH1 0x4 DUP7 MUL SWAP1 SWAP3 ADD DUP1 SLOAD DUP4 MSTORE PUSH1 0x1 DUP2 ADD SLOAD SWAP4 DUP4 ADD SWAP4 SWAP1 SWAP4 MSTORE PUSH1 0x2 DUP4 ADD SLOAD PUSH1 0x1 PUSH1 0x1 PUSH1 0xA0 SHL SUB SWAP1 DUP2 AND SWAP2 DUP4 ADD SWAP2 SWAP1 SWAP2 MSTORE PUSH1 0x3 DUP1 DUP5 ADD SLOAD SWAP2 DUP3 AND PUSH1 0x60 DUP5 ADD MSTORE PUSH1 0xFF PUSH1 0x1 PUSH1 0xA0 SHL DUP4 DIV DUP2 AND ISZERO ISZERO PUSH1 0x80 DUP6 ADD MSTORE PUSH1 0x1 PUSH1 0xA8 SHL DUP4 DIV DUP2 AND ISZERO ISZERO PUSH1 0xA0 DUP6 ADD MSTORE SWAP3 SWAP4 SWAP3 PUSH1 0xC0 DUP6 ADD SWAP3 PUSH1 0x1 PUSH1 0xB0 SHL SWAP1 DIV AND SWAP1 DUP2 GT ISZERO PUSH2 0x344E JUMPI PUSH2 0x344E PUSH2 0x515F JUMP JUMPDEST PUSH1 0x3 DUP2 GT ISZERO PUSH2 0x345F JUMPI PUSH2 0x345F PUSH2 0x515F JUMP JUMPDEST DUP2 MSTORE PUSH1 0x3 SWAP2 SWAP1 SWAP2 ADD SLOAD PUSH2 0xFFFF PUSH1 0x1 PUSH1 0xB8 SHL SWAP1 SWAP2 DIV AND PUSH1 0x20 SWAP2 DUP3 ADD MSTORE SWAP1 DUP3 MSTORE PUSH1 0x1 SWAP1 SWAP3 ADD SWAP2 ADD PUSH2 0x33B2 JUMP JUMPDEST POP POP POP POP SWAP1 POP PUSH1 0x0 JUMPDEST DUP2 MLOAD DUP2 LT ISZERO PUSH2 0x356F JUMPI DUP6 PUSH1 0x0 ADD CALLDATALOAD DUP3 DUP3 DUP2 MLOAD DUP2 LT PUSH2 0x34B2 JUMPI PUSH2 0x34B2 PUSH2 0x58E4 JUMP JUMPDEST PUSH1 0x20 MUL PUSH1 0x20 ADD ADD MLOAD PUSH1 0x0 ADD MLOAD SUB PUSH2 0x355D JUMPI PUSH1 0x1 PUSH1 0xA PUSH1 0x0 PUSH2 0x34D9 PUSH1 0xE0 DUP11 ADD PUSH1 0xC0 DUP12 ADD PUSH2 0x595D JUMP JUMPDEST PUSH1 0x3 DUP2 GT ISZERO PUSH2 0x34EA JUMPI PUSH2 0x34EA PUSH2 0x515F JUMP JUMPDEST DUP2 MSTORE PUSH1 0x20 ADD SWAP1 DUP2 MSTORE PUSH1 0x20 ADD PUSH1 0x0 KECCAK256 PUSH1 0x0 DUP9 PUSH1 0xE0 ADD PUSH1 0x20 DUP2 ADD SWAP1 PUSH2 0x350D SWAP2 SWAP1 PUSH2 0x5942 JUMP JUMPDEST PUSH2 0xFFFF AND PUSH2 0xFFFF AND DUP2 MSTORE PUSH1 0x20 ADD SWAP1 DUP2 MSTORE PUSH1 0x20 ADD PUSH1 0x0 KECCAK256 DUP3 DUP2 SLOAD DUP2 LT PUSH2 0x3534 JUMPI PUSH2 0x3534 PUSH2 0x58E4 JUMP JUMPDEST SWAP1 PUSH1 0x0 MSTORE PUSH1 0x20 PUSH1 0x0 KECCAK256 SWAP1 PUSH1 0x4 MUL ADD PUSH1 0x3 ADD PUSH1 0x15 PUSH2 0x100 EXP DUP2 SLOAD DUP2 PUSH1 0xFF MUL NOT AND SWAP1 DUP4 ISZERO ISZERO MUL OR SWAP1 SSTORE POP JUMPDEST DUP1 PUSH2 0x3567 DUP2 PUSH2 0x5910 JUMP JUMPDEST SWAP2 POP POP PUSH2 0x3492 JUMP JUMPDEST POP PUSH1 0x0 CALLER DUP7 CALLDATALOAD PUSH1 0x0 DUP1 MLOAD PUSH1 0x20 PUSH2 0x5BF8 DUP4 CODECOPY DUP2 MLOAD SWAP2 MSTORE TIMESTAMP DUP5 PUSH2 0x3596 PUSH1 0x80 DUP13 ADD PUSH1 0x60 DUP14 ADD PUSH2 0x5032 JUMP JUMPDEST PUSH1 0x1 PUSH1 0x40 MLOAD PUSH2 0x35A8 SWAP5 SWAP4 SWAP3 SWAP2 SWAP1 PUSH2 0x58B3 JUMP JUMPDEST PUSH1 0x40 MLOAD DUP1 SWAP2 SUB SWAP1 LOG4 POP POP POP POP POP JUMP JUMPDEST PUSH2 0x35BF PUSH2 0x4436 JUMP JUMPDEST PUSH1 0x0 SSTORE JUMP JUMPDEST PUSH2 0x35CC PUSH2 0x4436 JUMP JUMPDEST PUSH1 0x1 PUSH1 0x1 PUSH1 0xA0 SHL SUB DUP2 AND PUSH2 0x35DF JUMPI PUSH1 0x0 DUP1 REVERT JUMPDEST PUSH1 0x6 DUP1 SLOAD PUSH1 0x1 PUSH1 0x1 PUSH1 0xA0 SHL SUB SWAP1 SWAP3 AND PUSH7 0x1000000000000 MUL PUSH32 0xFFFFFFFFFFFF0000000000000000000000000000000000000000FFFFFFFFFFFF SWAP1 SWAP3 AND SWAP2 SWAP1 SWAP2 OR SWAP1 SSTORE JUMP JUMPDEST PUSH2 0x362B PUSH2 0x44B1 JUMP JUMPDEST CALLER PUSH1 0x0 SWAP1 DUP2 MSTORE PUSH1 0x7 PUSH1 0x20 SWAP1 DUP2 MSTORE PUSH1 0x40 DUP1 DUP4 KECCAK256 PUSH1 0x2 ADD DUP1 SLOAD DUP3 MLOAD DUP2 DUP6 MUL DUP2 ADD DUP6 ADD SWAP1 SWAP4 MSTORE DUP1 DUP4 MSTORE SWAP2 SWAP3 SWAP1 SWAP2 SWAP1 DUP5 SWAP1 DUP5 ADD JUMPDEST DUP3 DUP3 LT ISZERO PUSH2 0x3711 JUMPI PUSH1 0x0 DUP5 DUP2 MSTORE PUSH1 0x20 SWAP1 DUP2 SWAP1 KECCAK256 PUSH1 0x40 DUP1 MLOAD PUSH1 0x80 DUP2 ADD DUP3 MSTORE PUSH1 0x2 DUP7 MUL SWAP1 SWAP3 ADD DUP1 SLOAD DUP4 MSTORE PUSH1 0x1 DUP2 ADD SLOAD PUSH2 0xFFFF DUP2 AND SWAP5 DUP5 ADD SWAP5 SWAP1 SWAP5 MSTORE SWAP2 SWAP3 SWAP1 DUP4 ADD SWAP1 PUSH3 0x10000 SWAP1 DIV PUSH1 0xFF AND PUSH1 0x3 DUP2 GT ISZERO PUSH2 0x36B4 JUMPI PUSH2 0x36B4 PUSH2 0x515F JUMP JUMPDEST PUSH1 0x3 DUP2 GT ISZERO PUSH2 0x36C5 JUMPI PUSH2 0x36C5 PUSH2 0x515F JUMP JUMPDEST DUP2 MSTORE PUSH1 0x20 ADD PUSH1 0x1 DUP3 ADD PUSH1 0x3 SWAP1 SLOAD SWAP1 PUSH2 0x100 EXP SWAP1 DIV PUSH1 0xFF AND PUSH1 0x2 DUP2 GT ISZERO PUSH2 0x36ED JUMPI PUSH2 0x36ED PUSH2 0x515F JUMP JUMPDEST PUSH1 0x2 DUP2 GT ISZERO PUSH2 0x36FE JUMPI PUSH2 0x36FE PUSH2 0x515F JUMP JUMPDEST DUP2 MSTORE POP POP DUP2 MSTORE PUSH1 0x20 ADD SWAP1 PUSH1 0x1 ADD SWAP1 PUSH2 0x365B JUMP JUMPDEST POP POP POP POP SWAP1 POP PUSH1 0x0 DUP1 JUMPDEST DUP3 MLOAD DUP2 LT ISZERO PUSH2 0x3763 JUMPI DUP5 PUSH1 0x0 ADD MLOAD DUP4 DUP3 DUP2 MLOAD DUP2 LT PUSH2 0x373B JUMPI PUSH2 0x373B PUSH2 0x58E4 JUMP JUMPDEST PUSH1 0x20 MUL PUSH1 0x20 ADD ADD MLOAD PUSH1 0x0 ADD MLOAD SUB PUSH2 0x3751 JUMPI PUSH1 0x1 SWAP2 POP JUMPDEST DUP1 PUSH2 0x375B DUP2 PUSH2 0x5910 JUMP JUMPDEST SWAP2 POP POP PUSH2 0x371B JUMP JUMPDEST POP DUP1 PUSH2 0x3796 JUMPI PUSH1 0x40 MLOAD PUSH3 0x461BCD PUSH1 0xE5 SHL DUP2 MSTORE PUSH1 0x20 PUSH1 0x4 DUP3 ADD MSTORE PUSH1 0x2 PUSH1 0x24 DUP3 ADD MSTORE PUSH2 0x627 PUSH1 0xF3 SHL PUSH1 0x44 DUP3 ADD MSTORE PUSH1 0x64 ADD PUSH2 0x641 JUMP JUMPDEST DUP4 MLOAD PUSH1 0x0 SWAP1 DUP2 MSTORE PUSH1 0xB PUSH1 0x20 SWAP1 DUP2 MSTORE PUSH1 0x40 DUP1 DUP4 KECCAK256 DUP1 SLOAD DUP3 MLOAD DUP2 DUP6 MUL DUP2 ADD DUP6 ADD SWAP1 SWAP4 MSTORE DUP1 DUP4 MSTORE SWAP2 SWAP3 SWAP1 SWAP2 SWAP1 DUP4 ADD DUP3 DUP3 DUP1 ISZERO PUSH2 0x37F8 JUMPI PUSH1 0x20 MUL DUP3 ADD SWAP2 SWAP1 PUSH1 0x0 MSTORE PUSH1 0x20 PUSH1 0x0 KECCAK256 SWAP1 JUMPDEST DUP2 SLOAD PUSH1 0x1 PUSH1 0x1 PUSH1 0xA0 SHL SUB AND DUP2 MSTORE PUSH1 0x1 SWAP1 SWAP2 ADD SWAP1 PUSH1 0x20 ADD DUP1 DUP4 GT PUSH2 0x37DA JUMPI JUMPDEST POP POP POP POP POP SWAP1 POP PUSH1 0x0 DUP1 JUMPDEST DUP3 MLOAD DUP2 LT ISZERO PUSH2 0x38BD JUMPI DUP6 PUSH1 0x1 PUSH1 0x1 PUSH1 0xA0 SHL SUB AND DUP4 DUP3 DUP2 MLOAD DUP2 LT PUSH2 0x3828 JUMPI PUSH2 0x3828 PUSH2 0x58E4 JUMP JUMPDEST PUSH1 0x20 MUL PUSH1 0x20 ADD ADD MLOAD PUSH1 0x1 PUSH1 0x1 PUSH1 0xA0 SHL SUB AND SUB PUSH2 0x38AB JUMPI PUSH1 0x1 PUSH1 0x1 PUSH1 0xA0 SHL SUB DUP7 AND PUSH1 0x0 SWAP1 DUP2 MSTORE PUSH1 0x7 PUSH1 0x20 MSTORE PUSH1 0x40 SWAP1 KECCAK256 PUSH1 0x1 SWAP1 DUP2 ADD DUP1 SLOAD SWAP2 SWAP4 POP PUSH1 0x2 SWAP2 DUP4 SWAP1 DUP2 LT PUSH2 0x3873 JUMPI PUSH2 0x3873 PUSH2 0x58E4 JUMP JUMPDEST SWAP1 PUSH1 0x0 MSTORE PUSH1 0x20 PUSH1 0x0 KECCAK256 SWAP1 PUSH1 0x2 MUL ADD PUSH1 0x1 ADD PUSH1 0x3 PUSH2 0x100 EXP DUP2 SLOAD DUP2 PUSH1 0xFF MUL NOT AND SWAP1 DUP4 PUSH1 0x2 DUP2 GT ISZERO PUSH2 0x38A5 JUMPI PUSH2 0x38A5 PUSH2 0x515F JUMP JUMPDEST MUL OR SWAP1 SSTORE POP JUMPDEST DUP1 PUSH2 0x38B5 DUP2 PUSH2 0x5910 JUMP JUMPDEST SWAP2 POP POP PUSH2 0x3803 JUMP JUMPDEST POP DUP1 PUSH2 0x38F0 JUMPI PUSH1 0x40 MLOAD PUSH3 0x461BCD PUSH1 0xE5 SHL DUP2 MSTORE PUSH1 0x20 PUSH1 0x4 DUP3 ADD MSTORE PUSH1 0x2 PUSH1 0x24 DUP3 ADD MSTORE PUSH2 0x3139 PUSH1 0xF0 SHL PUSH1 0x44 DUP3 ADD MSTORE PUSH1 0x64 ADD PUSH2 0x641 JUMP JUMPDEST DUP6 MLOAD PUSH2 0x38FC SWAP1 DUP7 PUSH2 0x4A51 JUMP JUMPDEST DUP5 PUSH1 0x1 PUSH1 0x1 PUSH1 0xA0 SHL SUB AND DUP7 PUSH1 0x40 ADD MLOAD PUSH1 0x1 PUSH1 0x1 PUSH1 0xA0 SHL SUB AND DUP8 PUSH1 0x0 ADD MLOAD PUSH1 0x0 DUP1 MLOAD PUSH1 0x20 PUSH2 0x5BF8 DUP4 CODECOPY DUP2 MLOAD SWAP2 MSTORE TIMESTAMP DUP11 PUSH1 0x20 ADD MLOAD DUP12 PUSH1 0x60 ADD MLOAD PUSH1 0x7 PUSH1 0x40 MLOAD PUSH2 0x3945 SWAP5 SWAP4 SWAP3 SWAP2 SWAP1 PUSH2 0x58B3 JUMP JUMPDEST PUSH1 0x40 MLOAD DUP1 SWAP2 SUB SWAP1 LOG4 DUP6 MLOAD PUSH1 0x0 SWAP1 DUP2 MSTORE PUSH1 0x9 PUSH1 0x20 DUP2 DUP2 MSTORE PUSH1 0x40 DUP1 DUP5 KECCAK256 PUSH1 0x1 PUSH1 0x1 PUSH1 0xA0 SHL SUB DUP1 DUP12 AND DUP1 DUP8 MSTORE SWAP2 DUP5 MSTORE DUP3 DUP7 KECCAK256 SLOAD DUP13 MLOAD DUP8 MSTORE DUP6 DUP6 MSTORE DUP4 DUP8 KECCAK256 DUP4 DUP9 MSTORE SWAP1 SWAP5 MSTORE DUP3 DUP7 KECCAK256 SWAP6 SWAP1 SWAP6 SSTORE DUP2 DUP12 ADD MLOAD DUP12 MLOAD PUSH1 0x60 DUP14 ADD MLOAD SWAP4 MLOAD SWAP5 SWAP7 SWAP3 SWAP6 SWAP2 SWAP1 SWAP3 AND SWAP4 SWAP2 SWAP3 PUSH1 0x0 DUP1 MLOAD PUSH1 0x20 PUSH2 0x5BF8 DUP4 CODECOPY DUP2 MLOAD SWAP2 MSTORE SWAP3 PUSH2 0x39C4 SWAP3 TIMESTAMP SWAP3 DUP10 SWAP3 SWAP1 SWAP2 SWAP1 PUSH2 0x58B3 JUMP JUMPDEST PUSH1 0x40 MLOAD DUP1 SWAP2 SUB SWAP1 LOG4 PUSH1 0x60 DUP8 ADD MLOAD PUSH1 0x40 MLOAD PUSH4 0xA9059CBB PUSH1 0xE0 SHL DUP2 MSTORE PUSH1 0x1 PUSH1 0x1 PUSH1 0xA0 SHL SUB DUP9 DUP2 AND PUSH1 0x4 DUP4 ADD MSTORE PUSH1 0x24 DUP3 ADD DUP5 SWAP1 MSTORE SWAP1 SWAP2 AND SWAP1 PUSH4 0xA9059CBB SWAP1 PUSH1 0x44 ADD PUSH1 0x20 PUSH1 0x40 MLOAD DUP1 DUP4 SUB DUP2 PUSH1 0x0 DUP8 GAS CALL ISZERO DUP1 ISZERO PUSH2 0x3A21 JUMPI RETURNDATASIZE PUSH1 0x0 DUP1 RETURNDATACOPY RETURNDATASIZE PUSH1 0x0 REVERT JUMPDEST POP POP POP POP PUSH1 0x40 MLOAD RETURNDATASIZE PUSH1 0x1F NOT PUSH1 0x1F DUP3 ADD AND DUP3 ADD DUP1 PUSH1 0x40 MSTORE POP DUP2 ADD SWAP1 PUSH2 0x3A45 SWAP2 SWAP1 PUSH2 0x59B5 JUMP JUMPDEST PUSH2 0x3A76 JUMPI PUSH1 0x40 MLOAD PUSH3 0x461BCD PUSH1 0xE5 SHL DUP2 MSTORE PUSH1 0x20 PUSH1 0x4 DUP3 ADD MSTORE PUSH1 0x2 PUSH1 0x24 DUP3 ADD MSTORE PUSH2 0x3231 PUSH1 0xF0 SHL PUSH1 0x44 DUP3 ADD MSTORE PUSH1 0x64 ADD PUSH2 0x641 JUMP JUMPDEST POP POP POP POP POP POP POP JUMP JUMPDEST PUSH2 0x3A87 PUSH2 0x4436 JUMP JUMPDEST PUSH1 0x6 DUP1 SLOAD SWAP2 ISZERO ISZERO PUSH1 0x1 PUSH1 0xD8 SHL MUL PUSH1 0xFF PUSH1 0xD8 SHL NOT SWAP1 SWAP3 AND SWAP2 SWAP1 SWAP2 OR SWAP1 SSTORE JUMP JUMPDEST PUSH2 0x3AAD PUSH2 0x4436 JUMP JUMPDEST PUSH1 0x6 DUP1 SLOAD SWAP2 ISZERO ISZERO PUSH1 0x1 PUSH1 0xD0 SHL MUL PUSH1 0xFF PUSH1 0xD0 SHL NOT SWAP1 SWAP3 AND SWAP2 SWAP1 SWAP2 OR SWAP1 SSTORE JUMP JUMPDEST PUSH2 0x3AD3 PUSH2 0x4436 JUMP JUMPDEST PUSH2 0x1388 SELFBALANCE GT ISZERO PUSH2 0x3B2C JUMPI PUSH1 0x6 SLOAD PUSH7 0x1000000000000 SWAP1 DIV PUSH1 0x1 PUSH1 0x1 PUSH1 0xA0 SHL SUB AND PUSH2 0x8FC PUSH2 0x3B02 PUSH2 0x1388 SELFBALANCE PUSH2 0x5A12 JUMP JUMPDEST PUSH1 0x40 MLOAD DUP2 ISZERO SWAP1 SWAP3 MUL SWAP2 PUSH1 0x0 DUP2 DUP2 DUP2 DUP6 DUP9 DUP9 CALL SWAP4 POP POP POP POP ISZERO DUP1 ISZERO PUSH2 0x3B2A JUMPI RETURNDATASIZE PUSH1 0x0 DUP1 RETURNDATACOPY RETURNDATASIZE PUSH1 0x0 REVERT JUMPDEST POP JUMPDEST JUMP JUMPDEST PUSH1 0x0 PUSH2 0x3B39 CALLER PUSH2 0x420C JUMP JUMPDEST SWAP1 POP DUP1 PUSH1 0x20 ADD MLOAD ISZERO PUSH2 0x139A JUMPI PUSH1 0x0 JUMPDEST DUP2 PUSH1 0x60 ADD MLOAD MLOAD DUP2 LT ISZERO PUSH2 0x175C JUMPI DUP3 DUP3 PUSH1 0x60 ADD MLOAD DUP3 DUP2 MLOAD DUP2 LT PUSH2 0x3B6C JUMPI PUSH2 0x3B6C PUSH2 0x58E4 JUMP JUMPDEST PUSH1 0x20 MUL PUSH1 0x20 ADD ADD MLOAD PUSH1 0x0 ADD MLOAD SUB PUSH2 0x3BD8 JUMPI PUSH5 0xFFFFFFFFFF TIMESTAMP AND CALLER DUP5 PUSH32 0x93CDA0785D40B289A535B99DC76D4C9CBB6D8146182861AC3AD40509398B1865 PUSH2 0x3BB2 DUP9 DUP1 PUSH2 0x57FA JUMP JUMPDEST PUSH2 0x3BBF PUSH1 0x20 DUP12 ADD DUP12 PUSH2 0x57FA JUMP JUMPDEST PUSH1 0x40 MLOAD PUSH2 0x3BCF SWAP5 SWAP4 SWAP3 SWAP2 SWAP1 PUSH2 0x5871 JUMP JUMPDEST PUSH1 0x40 MLOAD DUP1 SWAP2 SUB SWAP1 LOG4 JUMPDEST DUP1 PUSH2 0x3BE2 DUP2 PUSH2 0x5910 JUMP JUMPDEST SWAP2 POP POP PUSH2 0x3B48 JUMP JUMPDEST PUSH1 0x60 PUSH1 0x0 PUSH2 0x3BF7 TIMESTAMP PUSH2 0x4BA1 JUMP JUMPDEST PUSH1 0x6 SLOAD SWAP1 SWAP2 POP PUSH5 0xFFFFFFFFFF PUSH2 0x100 SWAP1 SWAP2 DIV DUP2 AND SWAP1 DUP3 AND GT PUSH2 0x3C40 JUMPI PUSH1 0x40 MLOAD PUSH3 0x461BCD PUSH1 0xE5 SHL DUP2 MSTORE PUSH1 0x20 PUSH1 0x4 DUP3 ADD MSTORE PUSH1 0x2 PUSH1 0x24 DUP3 ADD MSTORE PUSH2 0xC4D PUSH1 0xF2 SHL PUSH1 0x44 DUP3 ADD MSTORE PUSH1 0x64 ADD PUSH2 0x641 JUMP JUMPDEST PUSH1 0x0 PUSH2 0x3C4B TIMESTAMP PUSH2 0x4BB0 JUMP JUMPDEST SWAP1 POP PUSH1 0x0 DUP1 PUSH1 0x0 PUSH1 0x2 SLOAD PUSH8 0xFFFFFFFFFFFFFFFF DUP2 GT ISZERO PUSH2 0x3C6D JUMPI PUSH2 0x3C6D PUSH2 0x5216 JUMP JUMPDEST PUSH1 0x40 MLOAD SWAP1 DUP1 DUP3 MSTORE DUP1 PUSH1 0x20 MUL PUSH1 0x20 ADD DUP3 ADD PUSH1 0x40 MSTORE DUP1 ISZERO PUSH2 0x3CB2 JUMPI DUP2 PUSH1 0x20 ADD JUMPDEST PUSH1 0x40 DUP1 MLOAD DUP1 DUP3 ADD SWAP1 SWAP2 MSTORE PUSH1 0x0 DUP1 DUP3 MSTORE PUSH1 0x20 DUP3 ADD MSTORE DUP2 MSTORE PUSH1 0x20 ADD SWAP1 PUSH1 0x1 SWAP1 SUB SWAP1 DUP2 PUSH2 0x3C8B JUMPI SWAP1 POP JUMPDEST POP SWAP1 POP PUSH1 0x0 JUMPDEST PUSH1 0x3 DUP2 GT PUSH2 0x3F91 JUMPI PUSH1 0x0 DUP2 PUSH2 0x3CCE JUMPI POP PUSH1 0x20 DUP6 ADD MLOAD JUMPDEST PUSH1 0x1 DUP3 SUB PUSH2 0x3CDA JUMPI POP DUP5 MLOAD JUMPDEST PUSH1 0x2 DUP3 SUB PUSH2 0x3CE9 JUMPI POP PUSH1 0x40 DUP6 ADD MLOAD JUMPDEST PUSH1 0x3 DUP3 SUB PUSH2 0x3CF8 JUMPI POP PUSH1 0x60 DUP6 ADD MLOAD JUMPDEST PUSH1 0x0 JUMPDEST PUSH1 0x0 DUP4 DUP2 MSTORE PUSH1 0xA PUSH1 0x20 SWAP1 DUP2 MSTORE PUSH1 0x40 DUP1 DUP4 KECCAK256 PUSH2 0xFFFF DUP7 AND DUP5 MSTORE SWAP1 SWAP2 MSTORE SWAP1 KECCAK256 SLOAD DUP2 LT ISZERO PUSH2 0x3F7C JUMPI PUSH1 0x0 DUP4 DUP2 MSTORE PUSH1 0xA PUSH1 0x20 SWAP1 DUP2 MSTORE PUSH1 0x40 DUP1 DUP4 KECCAK256 PUSH2 0xFFFF DUP7 AND DUP5 MSTORE SWAP1 SWAP2 MSTORE SWAP1 KECCAK256 DUP1 SLOAD DUP3 SWAP1 DUP2 LT PUSH2 0x3D4F JUMPI PUSH2 0x3D4F PUSH2 0x58E4 JUMP JUMPDEST SWAP1 PUSH1 0x0 MSTORE PUSH1 0x20 PUSH1 0x0 KECCAK256 SWAP1 PUSH1 0x4 MUL ADD PUSH1 0x3 ADD PUSH1 0x15 SWAP1 SLOAD SWAP1 PUSH2 0x100 EXP SWAP1 DIV PUSH1 0xFF AND PUSH2 0x3F6A JUMPI PUSH1 0x0 DUP4 DUP2 MSTORE PUSH1 0xA PUSH1 0x20 SWAP1 DUP2 MSTORE PUSH1 0x40 DUP1 DUP4 KECCAK256 PUSH2 0xFFFF DUP7 AND DUP5 MSTORE SWAP1 SWAP2 MSTORE DUP2 KECCAK256 DUP1 SLOAD DUP4 SWAP1 DUP2 LT PUSH2 0x3DA1 JUMPI PUSH2 0x3DA1 PUSH2 0x58E4 JUMP JUMPDEST PUSH1 0x0 SWAP2 DUP3 MSTORE PUSH1 0x20 DUP1 DUP4 KECCAK256 PUSH1 0x4 SWAP1 SWAP3 MUL SWAP1 SWAP2 ADD SLOAD DUP7 DUP4 MSTORE PUSH1 0xA DUP3 MSTORE PUSH1 0x40 DUP1 DUP5 KECCAK256 PUSH2 0xFFFF DUP9 AND DUP6 MSTORE SWAP1 SWAP3 MSTORE SWAP1 DUP3 KECCAK256 DUP1 SLOAD SWAP2 SWAP4 POP SWAP1 DUP5 SWAP1 DUP2 LT PUSH2 0x3DE3 JUMPI PUSH2 0x3DE3 PUSH2 0x58E4 JUMP JUMPDEST PUSH1 0x0 SWAP2 DUP3 MSTORE PUSH1 0x20 DUP1 DUP4 KECCAK256 PUSH1 0x3 PUSH1 0x4 SWAP1 SWAP4 MUL ADD SWAP2 SWAP1 SWAP2 ADD SLOAD DUP8 DUP4 MSTORE PUSH1 0xA DUP3 MSTORE PUSH1 0x40 DUP1 DUP5 KECCAK256 PUSH2 0xFFFF DUP10 AND DUP6 MSTORE SWAP1 SWAP3 MSTORE SWAP1 DUP3 KECCAK256 DUP1 SLOAD PUSH1 0x1 PUSH1 0x1 PUSH1 0xA0 SHL SUB SWAP1 SWAP3 AND SWAP4 POP SWAP1 DUP6 SWAP1 DUP2 LT PUSH2 0x3E33 JUMPI PUSH2 0x3E33 PUSH2 0x58E4 JUMP JUMPDEST SWAP1 PUSH1 0x0 MSTORE PUSH1 0x20 PUSH1 0x0 KECCAK256 SWAP1 PUSH1 0x4 MUL ADD PUSH1 0x1 ADD SLOAD SWAP1 POP PUSH2 0x3E6D PUSH1 0x40 MLOAD DUP1 PUSH1 0x40 ADD PUSH1 0x40 MSTORE DUP1 PUSH1 0x0 DUP2 MSTORE PUSH1 0x20 ADD PUSH1 0x0 PUSH1 0x1 PUSH1 0x1 PUSH1 0xA0 SHL SUB AND DUP2 MSTORE POP SWAP1 JUMP JUMPDEST PUSH1 0x0 DUP3 PUSH2 0x2710 PUSH1 0x0 SLOAD DUP6 PUSH2 0x3E81 SWAP2 SWAP1 PUSH2 0x59D2 JUMP JUMPDEST PUSH2 0x3E8B SWAP2 SWAP1 PUSH2 0x598E JUMP JUMPDEST PUSH2 0x3E95 SWAP2 SWAP1 PUSH2 0x5A12 JUMP JUMPDEST SWAP1 POP PUSH1 0x0 DUP1 JUMPDEST PUSH1 0x0 DUP8 DUP2 MSTORE PUSH1 0xB PUSH1 0x20 MSTORE PUSH1 0x40 SWAP1 KECCAK256 SLOAD DUP2 LT ISZERO PUSH2 0x3F62 JUMPI PUSH1 0x2 SLOAD DUP14 SUB PUSH2 0x3ECE JUMPI POP SWAP9 SWAP15 SWAP14 POP POP POP POP POP POP POP POP POP POP POP POP POP POP JUMP JUMPDEST PUSH1 0x3 SLOAD ISZERO DUP1 PUSH2 0x3EE4 JUMPI POP PUSH1 0x6 SLOAD PUSH1 0xFF AND ISZERO ISZERO PUSH1 0x1 EQ JUMPDEST ISZERO PUSH2 0x3F50 JUMPI DUP13 PUSH2 0x3EF3 DUP2 PUSH2 0x5910 JUMP JUMPDEST SWAP14 POP PUSH2 0x3F01 SWAP1 POP DUP4 DUP4 PUSH2 0x59A2 JUMP JUMPDEST SWAP2 POP PUSH1 0x40 MLOAD DUP1 PUSH1 0x40 ADD PUSH1 0x40 MSTORE DUP1 DUP4 DUP2 MSTORE PUSH1 0x20 ADD DUP8 PUSH1 0x1 PUSH1 0x1 PUSH1 0xA0 SHL SUB AND DUP2 MSTORE POP SWAP4 POP DUP4 DUP12 DUP14 DUP2 MLOAD DUP2 LT PUSH2 0x3F36 JUMPI PUSH2 0x3F36 PUSH2 0x58E4 JUMP JUMPDEST PUSH1 0x20 MUL PUSH1 0x20 ADD ADD DUP2 SWAP1 MSTORE POP DUP12 DUP1 PUSH2 0x3F4C SWAP1 PUSH2 0x5910 JUMP JUMPDEST SWAP13 POP POP JUMPDEST DUP1 PUSH2 0x3F5A DUP2 PUSH2 0x5910 JUMP JUMPDEST SWAP2 POP POP PUSH2 0x3E9B JUMP JUMPDEST POP POP POP POP POP POP POP JUMPDEST DUP1 PUSH2 0x3F74 DUP2 PUSH2 0x5910 JUMP JUMPDEST SWAP2 POP POP PUSH2 0x3CFB JUMP JUMPDEST POP POP DUP1 DUP1 PUSH2 0x3F89 SWAP1 PUSH2 0x5910 JUMP JUMPDEST SWAP2 POP POP PUSH2 0x3CB8 JUMP JUMPDEST POP PUSH1 0x0 DUP1 JUMPDEST DUP3 MLOAD DUP2 LT ISZERO PUSH2 0x3FF0 JUMPI PUSH1 0x0 PUSH1 0x1 PUSH1 0x1 PUSH1 0xA0 SHL SUB AND DUP4 DUP3 DUP2 MLOAD DUP2 LT PUSH2 0x3FBC JUMPI PUSH2 0x3FBC PUSH2 0x58E4 JUMP JUMPDEST PUSH1 0x20 MUL PUSH1 0x20 ADD ADD MLOAD PUSH1 0x20 ADD MLOAD PUSH1 0x1 PUSH1 0x1 PUSH1 0xA0 SHL SUB AND SUB PUSH2 0x3FDE JUMPI DUP1 SWAP2 POP PUSH2 0x3FF0 JUMP JUMPDEST DUP1 PUSH2 0x3FE8 DUP2 PUSH2 0x5910 JUMP JUMPDEST SWAP2 POP POP PUSH2 0x3F96 JUMP JUMPDEST POP PUSH1 0x0 DUP2 PUSH8 0xFFFFFFFFFFFFFFFF DUP2 GT ISZERO PUSH2 0x400C JUMPI PUSH2 0x400C PUSH2 0x5216 JUMP JUMPDEST PUSH1 0x40 MLOAD SWAP1 DUP1 DUP3 MSTORE DUP1 PUSH1 0x20 MUL PUSH1 0x20 ADD DUP3 ADD PUSH1 0x40 MSTORE DUP1 ISZERO PUSH2 0x4051 JUMPI DUP2 PUSH1 0x20 ADD JUMPDEST PUSH1 0x40 DUP1 MLOAD DUP1 DUP3 ADD SWAP1 SWAP2 MSTORE PUSH1 0x0 DUP1 DUP3 MSTORE PUSH1 0x20 DUP3 ADD MSTORE DUP2 MSTORE PUSH1 0x20 ADD SWAP1 PUSH1 0x1 SWAP1 SUB SWAP1 DUP2 PUSH2 0x402A JUMPI SWAP1 POP JUMPDEST POP SWAP1 POP PUSH1 0x0 JUMPDEST DUP3 DUP2 LT ISZERO PUSH2 0x40A9 JUMPI DUP4 DUP2 DUP2 MLOAD DUP2 LT PUSH2 0x4071 JUMPI PUSH2 0x4071 PUSH2 0x58E4 JUMP JUMPDEST PUSH1 0x20 MUL PUSH1 0x20 ADD ADD MLOAD DUP3 DUP3 DUP2 MLOAD DUP2 LT PUSH2 0x408B JUMPI PUSH2 0x408B PUSH2 0x58E4 JUMP JUMPDEST PUSH1 0x20 MUL PUSH1 0x20 ADD ADD DUP2 SWAP1 MSTORE POP DUP1 DUP1 PUSH2 0x40A1 SWAP1 PUSH2 0x5910 JUMP JUMPDEST SWAP2 POP POP PUSH2 0x4057 JUMP JUMPDEST POP SWAP8 SWAP7 POP POP POP POP POP POP POP JUMP JUMPDEST TIMESTAMP PUSH5 0xFFFFFFFFFF AND CALLER PUSH1 0x1 PUSH1 0x1 PUSH1 0xA0 SHL SUB AND PUSH32 0x34F43ABF7A52B609B04511ED963A29EBB76AE3E0CA0FF5594BE1C2A84EBD03F2 DUP4 PUSH1 0x0 ADD MLOAD DUP5 PUSH1 0x20 ADD MLOAD DUP6 PUSH1 0x40 ADD MLOAD DUP7 PUSH1 0x60 ADD MLOAD DUP8 PUSH1 0x80 ADD MLOAD DUP9 PUSH1 0xA0 ADD MLOAD PUSH1 0x40 MLOAD PUSH2 0x4118 SWAP7 SWAP6 SWAP5 SWAP4 SWAP3 SWAP2 SWAP1 PUSH2 0x5A89 JUMP JUMPDEST PUSH1 0x40 MLOAD DUP1 SWAP2 SUB SWAP1 LOG3 POP JUMP JUMPDEST PUSH2 0x412B PUSH2 0x4436 JUMP JUMPDEST PUSH1 0x1 PUSH1 0x1 PUSH1 0xA0 SHL SUB DUP3 AND PUSH2 0x413E JUMPI PUSH1 0x0 DUP1 REVERT JUMPDEST PUSH2 0x4147 DUP3 PUSH2 0x447F JUMP JUMPDEST ISZERO PUSH2 0x4178 JUMPI PUSH1 0x40 MLOAD PUSH3 0x461BCD PUSH1 0xE5 SHL DUP2 MSTORE PUSH1 0x20 PUSH1 0x4 DUP3 ADD MSTORE PUSH1 0x1 PUSH1 0x24 DUP3 ADD MSTORE PUSH1 0x31 PUSH1 0xF8 SHL PUSH1 0x44 DUP3 ADD MSTORE PUSH1 0x64 ADD PUSH2 0x641 JUMP JUMPDEST PUSH1 0x40 DUP1 MLOAD PUSH1 0x60 DUP2 ADD DUP3 MSTORE PUSH1 0x1 PUSH1 0x1 PUSH1 0xA0 SHL SUB SWAP4 DUP5 AND DUP1 DUP3 MSTORE PUSH1 0x20 DUP1 DUP4 ADD SWAP5 DUP6 MSTORE PUSH1 0x1 DUP4 DUP6 ADD DUP2 DUP2 MSTORE PUSH1 0x0 SWAP4 DUP5 MSTORE PUSH1 0x5 SWAP1 SWAP3 MSTORE SWAP4 SWAP1 SWAP2 KECCAK256 SWAP2 MLOAD DUP3 SLOAD PUSH1 0x1 PUSH1 0x1 PUSH1 0xA0 SHL SUB NOT AND SWAP6 AND SWAP5 SWAP1 SWAP5 OR DUP2 SSTORE SWAP2 MLOAD SWAP1 DUP3 ADD SSTORE SWAP1 MLOAD PUSH1 0x2 SWAP1 SWAP2 ADD DUP1 SLOAD PUSH1 0xFF NOT AND SWAP2 ISZERO ISZERO SWAP2 SWAP1 SWAP2 OR SWAP1 SSTORE JUMP JUMPDEST PUSH1 0x8 DUP2 DUP2 SLOAD DUP2 LT PUSH2 0x41F2 JUMPI PUSH1 0x0 DUP1 REVERT JUMPDEST PUSH1 0x0 SWAP2 DUP3 MSTORE PUSH1 0x20 SWAP1 SWAP2 KECCAK256 ADD SLOAD PUSH1 0x1 PUSH1 0x1 PUSH1 0xA0 SHL SUB AND SWAP1 POP DUP2 JUMP JUMPDEST PUSH1 0x40 DUP1 MLOAD PUSH1 0x80 DUP2 ADD DUP3 MSTORE PUSH1 0x0 DUP1 DUP3 MSTORE PUSH1 0x20 DUP3 ADD MSTORE PUSH1 0x60 SWAP2 DUP2 ADD DUP3 SWAP1 MSTORE DUP2 DUP2 ADD SWAP2 SWAP1 SWAP2 MSTORE PUSH1 0x1 PUSH1 0x1 PUSH1 0xA0 SHL SUB DUP3 DUP2 AND PUSH1 0x0 SWAP1 DUP2 MSTORE PUSH1 0x7 PUSH1 0x20 SWAP1 DUP2 MSTORE PUSH1 0x40 DUP1 DUP4 KECCAK256 DUP2 MLOAD PUSH1 0x80 DUP2 ADD DUP4 MSTORE DUP2 SLOAD SWAP6 DUP7 AND DUP2 MSTORE PUSH1 0x1 PUSH1 0xA0 SHL SWAP1 SWAP6 DIV PUSH1 0xFF AND ISZERO ISZERO DUP6 DUP5 ADD MSTORE PUSH1 0x1 DUP2 ADD DUP1 SLOAD DUP4 MLOAD DUP2 DUP7 MUL DUP2 ADD DUP7 ADD DUP6 MSTORE DUP2 DUP2 MSTORE SWAP3 SWAP6 SWAP4 DUP8 ADD SWAP5 SWAP3 SWAP4 SWAP2 SWAP3 SWAP1 SWAP2 SWAP1 DUP5 ADD JUMPDEST DUP3 DUP3 LT ISZERO PUSH2 0x4345 JUMPI PUSH1 0x0 DUP5 DUP2 MSTORE PUSH1 0x20 SWAP1 DUP2 SWAP1 KECCAK256 PUSH1 0x40 DUP1 MLOAD PUSH1 0x80 DUP2 ADD DUP3 MSTORE PUSH1 0x2 DUP7 MUL SWAP1 SWAP3 ADD DUP1 SLOAD DUP4 MSTORE PUSH1 0x1 DUP2 ADD SLOAD PUSH2 0xFFFF DUP2 AND SWAP5 DUP5 ADD SWAP5 SWAP1 SWAP5 MSTORE SWAP2 SWAP3 SWAP1 DUP4 ADD SWAP1 PUSH3 0x10000 SWAP1 DIV PUSH1 0xFF AND PUSH1 0x3 DUP2 GT ISZERO PUSH2 0x42E8 JUMPI PUSH2 0x42E8 PUSH2 0x515F JUMP JUMPDEST PUSH1 0x3 DUP2 GT ISZERO PUSH2 0x42F9 JUMPI PUSH2 0x42F9 PUSH2 0x515F JUMP JUMPDEST DUP2 MSTORE PUSH1 0x20 ADD PUSH1 0x1 DUP3 ADD PUSH1 0x3 SWAP1 SLOAD SWAP1 PUSH2 0x100 EXP SWAP1 DIV PUSH1 0xFF AND PUSH1 0x2 DUP2 GT ISZERO PUSH2 0x4321 JUMPI PUSH2 0x4321 PUSH2 0x515F JUMP JUMPDEST PUSH1 0x2 DUP2 GT ISZERO PUSH2 0x4332 JUMPI PUSH2 0x4332 PUSH2 0x515F JUMP JUMPDEST DUP2 MSTORE POP POP DUP2 MSTORE PUSH1 0x20 ADD SWAP1 PUSH1 0x1 ADD SWAP1 PUSH2 0x428F JUMP JUMPDEST POP POP POP POP DUP2 MSTORE PUSH1 0x20 ADD PUSH1 0x2 DUP3 ADD DUP1 SLOAD DUP1 PUSH1 0x20 MUL PUSH1 0x20 ADD PUSH1 0x40 MLOAD SWAP1 DUP2 ADD PUSH1 0x40 MSTORE DUP1 SWAP3 SWAP2 SWAP1 DUP2 DUP2 MSTORE PUSH1 0x20 ADD PUSH1 0x0 SWAP1 JUMPDEST DUP3 DUP3 LT ISZERO PUSH2 0x4428 JUMPI PUSH1 0x0 DUP5 DUP2 MSTORE PUSH1 0x20 SWAP1 DUP2 SWAP1 KECCAK256 PUSH1 0x40 DUP1 MLOAD PUSH1 0x80 DUP2 ADD DUP3 MSTORE PUSH1 0x2 DUP7 MUL SWAP1 SWAP3 ADD DUP1 SLOAD DUP4 MSTORE PUSH1 0x1 DUP2 ADD SLOAD PUSH2 0xFFFF DUP2 AND SWAP5 DUP5 ADD SWAP5 SWAP1 SWAP5 MSTORE SWAP2 SWAP3 SWAP1 DUP4 ADD SWAP1 PUSH3 0x10000 SWAP1 DIV PUSH1 0xFF AND PUSH1 0x3 DUP2 GT ISZERO PUSH2 0x43CB JUMPI PUSH2 0x43CB PUSH2 0x515F JUMP JUMPDEST PUSH1 0x3 DUP2 GT ISZERO PUSH2 0x43DC JUMPI PUSH2 0x43DC PUSH2 0x515F JUMP JUMPDEST DUP2 MSTORE PUSH1 0x20 ADD PUSH1 0x1 DUP3 ADD PUSH1 0x3 SWAP1 SLOAD SWAP1 PUSH2 0x100 EXP SWAP1 DIV PUSH1 0xFF AND PUSH1 0x2 DUP2 GT ISZERO PUSH2 0x4404 JUMPI PUSH2 0x4404 PUSH2 0x515F JUMP JUMPDEST PUSH1 0x2 DUP2 GT ISZERO PUSH2 0x4415 JUMPI PUSH2 0x4415 PUSH2 0x515F JUMP JUMPDEST DUP2 MSTORE POP POP DUP2 MSTORE PUSH1 0x20 ADD SWAP1 PUSH1 0x1 ADD SWAP1 PUSH2 0x4372 JUMP JUMPDEST POP POP POP SWAP2 MSTORE POP SWAP1 SWAP4 SWAP3 POP POP POP JUMP JUMPDEST PUSH1 0x6 SLOAD PUSH7 0x1000000000000 SWAP1 DIV PUSH1 0x1 PUSH1 0x1 PUSH1 0xA0 SHL SUB AND CALLER EQ PUSH2 0x3B2C JUMPI PUSH1 0x40 MLOAD PUSH3 0x461BCD PUSH1 0xE5 SHL DUP2 MSTORE PUSH1 0x20 PUSH1 0x4 DUP3 ADD MSTORE PUSH1 0x2 PUSH1 0x24 DUP3 ADD MSTORE PUSH2 0x189B PUSH1 0xF1 SHL PUSH1 0x44 DUP3 ADD MSTORE PUSH1 0x64 ADD PUSH2 0x641 JUMP JUMPDEST PUSH1 0x1 PUSH1 0x1 PUSH1 0xA0 SHL SUB DUP2 AND PUSH1 0x0 SWAP1 DUP2 MSTORE PUSH1 0x5 PUSH1 0x20 MSTORE PUSH1 0x40 DUP2 KECCAK256 PUSH1 0x2 ADD SLOAD PUSH1 0xFF AND PUSH2 0x44A9 JUMPI PUSH1 0x0 PUSH2 0x2B42 JUMP JUMPDEST PUSH1 0x1 SWAP3 SWAP2 POP POP JUMP JUMPDEST CALLER PUSH2 0x3B2C JUMPI PUSH1 0x40 MLOAD PUSH3 0x461BCD PUSH1 0xE5 SHL DUP2 MSTORE PUSH1 0x20 PUSH1 0x4 DUP3 ADD MSTORE PUSH1 0x1 PUSH1 0x24 DUP3 ADD MSTORE PUSH1 0x33 PUSH1 0xF8 SHL PUSH1 0x44 DUP3 ADD MSTORE PUSH1 0x64 ADD PUSH2 0x641 JUMP JUMPDEST PUSH1 0x40 DUP1 MLOAD PUSH2 0x100 DUP2 ADD DUP3 MSTORE PUSH1 0x0 DUP1 DUP3 MSTORE PUSH1 0x20 DUP3 ADD DUP2 SWAP1 MSTORE SWAP2 DUP2 ADD DUP3 SWAP1 MSTORE PUSH1 0x60 DUP2 ADD DUP3 SWAP1 MSTORE PUSH1 0x80 DUP2 ADD DUP3 SWAP1 MSTORE PUSH1 0xA0 DUP2 ADD DUP3 SWAP1 MSTORE PUSH1 0xC0 DUP2 ADD DUP3 SWAP1 MSTORE PUSH1 0xE0 DUP2 ADD SWAP2 SWAP1 SWAP2 MSTORE PUSH1 0x40 MLOAD PUSH12 0xFFFFFFFFFFFFFFFFFFFFFFFF NOT CALLER PUSH1 0x60 SHL AND PUSH1 0x20 DUP3 ADD MSTORE PREVRANDAO PUSH1 0x34 DUP3 ADD MSTORE TIMESTAMP PUSH1 0x54 DUP3 ADD MSTORE PUSH1 0x0 SWAP1 PUSH1 0x74 ADD PUSH1 0x40 DUP1 MLOAD PUSH1 0x1F NOT DUP2 DUP5 SUB ADD DUP2 MSTORE DUP3 DUP3 MSTORE DUP1 MLOAD PUSH1 0x20 SWAP2 DUP3 ADD KECCAK256 PUSH2 0x100 DUP5 ADD DUP4 MSTORE DUP1 DUP5 MSTORE SWAP1 DUP4 ADD DUP10 SWAP1 MSTORE CALLER SWAP2 DUP4 ADD SWAP2 SWAP1 SWAP2 MSTORE PUSH1 0x1 PUSH1 0x1 PUSH1 0xA0 SHL SUB DUP8 AND PUSH1 0x60 DUP4 ADD MSTORE PUSH1 0x1 PUSH1 0x80 DUP4 ADD MSTORE PUSH1 0x0 PUSH1 0xA0 DUP4 ADD MSTORE SWAP2 POP PUSH1 0xC0 DUP2 ADD DUP6 PUSH1 0x3 DUP2 GT ISZERO PUSH2 0x45B5 JUMPI PUSH2 0x45B5 PUSH2 0x515F JUMP JUMPDEST DUP2 MSTORE PUSH1 0x20 ADD DUP5 PUSH2 0xFFFF AND DUP2 MSTORE POP SWAP2 POP POP SWAP5 SWAP4 POP POP POP POP JUMP JUMPDEST CALLER PUSH1 0x0 SWAP1 DUP2 MSTORE PUSH1 0x7 PUSH1 0x20 MSTORE PUSH1 0x40 DUP2 KECCAK256 SLOAD PUSH1 0x1 PUSH1 0xA0 SHL SWAP1 DIV PUSH1 0xFF AND ISZERO ISZERO SWAP1 SUB PUSH2 0x465B JUMPI CALLER PUSH1 0x0 DUP2 DUP2 MSTORE PUSH1 0x7 PUSH1 0x20 MSTORE PUSH1 0x40 DUP2 KECCAK256 DUP1 SLOAD PUSH1 0x1 PUSH1 0x1 PUSH1 0xA0 SHL SUB NOT SWAP1 DUP2 AND DUP5 OR DUP3 SSTORE PUSH1 0x8 DUP1 SLOAD PUSH1 0x1 DUP2 ADD SWAP1 SWAP2 SSTORE PUSH32 0xF3F7A9FE364FAAB93B216DA50A3214154F22A0A2B415B23A84C8169E8B636EE3 ADD DUP1 SLOAD SWAP1 SWAP2 AND DUP5 OR SWAP1 SSTORE SWAP2 SWAP1 MSTORE DUP1 SLOAD PUSH1 0xFF PUSH1 0xA0 SHL NOT AND PUSH1 0x1 PUSH1 0xA0 SHL OR SWAP1 SSTORE JUMPDEST DUP1 ISZERO PUSH2 0x470D JUMPI CALLER PUSH1 0x0 SWAP1 DUP2 MSTORE PUSH1 0x7 PUSH1 0x20 SWAP1 DUP2 MSTORE PUSH1 0x40 DUP1 DUP4 KECCAK256 PUSH1 0x2 SWAP1 DUP2 ADD DUP1 SLOAD PUSH1 0x1 DUP1 DUP3 ADD DUP4 SSTORE SWAP2 DUP7 MSTORE SWAP5 DUP5 SWAP1 KECCAK256 DUP8 MLOAD SWAP6 SWAP1 SWAP3 MUL SWAP1 SWAP2 ADD SWAP4 DUP5 SSTORE SWAP2 DUP6 ADD MLOAD SWAP2 DUP4 ADD DUP1 SLOAD PUSH2 0xFFFF NOT DUP2 AND PUSH2 0xFFFF SWAP1 SWAP5 AND SWAP4 DUP5 OR DUP3 SSTORE SWAP2 DUP7 ADD MLOAD DUP7 SWAP5 SWAP4 SWAP1 SWAP3 PUSH3 0xFFFFFF NOT AND OR PUSH3 0x10000 DUP4 PUSH1 0x3 DUP2 GT ISZERO PUSH2 0x46D4 JUMPI PUSH2 0x46D4 PUSH2 0x515F JUMP JUMPDEST MUL OR SWAP1 SSTORE POP PUSH1 0x60 DUP3 ADD MLOAD PUSH1 0x1 DUP3 ADD DUP1 SLOAD PUSH4 0xFF000000 NOT AND PUSH4 0x1000000 DUP4 PUSH1 0x2 DUP2 GT ISZERO PUSH2 0x4702 JUMPI PUSH2 0x4702 PUSH2 0x515F JUMP JUMPDEST MUL OR SWAP1 SSTORE POP POP POP POP POP JUMP JUMPDEST CALLER PUSH1 0x0 SWAP1 DUP2 MSTORE PUSH1 0x7 PUSH1 0x20 SWAP1 DUP2 MSTORE PUSH1 0x40 DUP1 DUP4 KECCAK256 PUSH1 0x1 SWAP1 DUP2 ADD DUP1 SLOAD DUP1 DUP4 ADD DUP3 SSTORE SWAP1 DUP6 MSTORE SWAP4 DUP4 SWAP1 KECCAK256 DUP7 MLOAD PUSH1 0x2 SWAP1 SWAP6 MUL ADD SWAP4 DUP5 SSTORE SWAP2 DUP6 ADD MLOAD SWAP2 DUP4 ADD DUP1 SLOAD PUSH2 0xFFFF NOT DUP2 AND PUSH2 0xFFFF SWAP1 SWAP5 AND SWAP4 DUP5 OR DUP3 SSTORE SWAP2 DUP7 ADD MLOAD DUP7 SWAP5 SWAP4 SWAP1 SWAP3 PUSH3 0xFFFFFF NOT AND OR PUSH3 0x10000 DUP4 PUSH1 0x3 DUP2 GT ISZERO PUSH2 0x46D4 JUMPI PUSH2 0x46D4 PUSH2 0x515F JUMP JUMPDEST PUSH1 0x0 DUP1 PUSH1 0x40 MLOAD DUP1 PUSH1 0x80 ADD PUSH1 0x40 MSTORE DUP1 DUP8 DUP2 MSTORE PUSH1 0x20 ADD DUP7 PUSH2 0xFFFF AND DUP2 MSTORE PUSH1 0x20 ADD DUP6 PUSH1 0x3 DUP2 GT ISZERO PUSH2 0x47AD JUMPI PUSH2 0x47AD PUSH2 0x515F JUMP JUMPDEST DUP2 MSTORE PUSH1 0x20 ADD DUP5 PUSH1 0x2 DUP2 GT ISZERO PUSH2 0x47C4 JUMPI PUSH2 0x47C4 PUSH2 0x515F JUMP JUMPDEST DUP2 MSTORE POP SWAP1 POP PUSH1 0x0 PUSH2 0x47E2 DUP3 PUSH1 0x0 ADD MLOAD DUP4 PUSH1 0x40 ADD MLOAD DUP5 PUSH1 0x20 ADD MLOAD PUSH2 0xB67 JUMP JUMPDEST SWAP1 POP DUP1 PUSH1 0x80 ADD MLOAD ISZERO PUSH2 0x47F9 JUMPI PUSH1 0x1 SWAP3 POP POP POP PUSH2 0x4800 JUMP JUMPDEST PUSH1 0x0 SWAP3 POP POP POP JUMPDEST SWAP5 SWAP4 POP POP POP POP JUMP JUMPDEST PUSH1 0x0 DUP1 PUSH2 0x4814 DUP7 PUSH2 0x4BB0 JUMP JUMPDEST SWAP1 POP PUSH1 0x0 DUP1 PUSH1 0x0 DUP6 PUSH1 0xFF AND PUSH1 0x0 SUB PUSH2 0x483A JUMPI DUP4 PUSH1 0x20 ADD MLOAD PUSH2 0xFFFF AND SWAP3 POP PUSH1 0x7 SWAP2 POP PUSH2 0x48C1 JUMP JUMPDEST DUP6 PUSH1 0xFF AND PUSH1 0x1 SUB PUSH2 0x4871 JUMPI PUSH2 0x485F DUP5 PUSH1 0x80 ADD MLOAD PUSH2 0xFFFF AND DUP6 PUSH1 0xA0 ADD MLOAD PUSH2 0xFFFF AND PUSH2 0x4E47 JUMP JUMPDEST DUP5 MLOAD PUSH2 0xFFFF AND SWAP4 POP SWAP2 POP DUP2 SWAP1 POP PUSH2 0x48C1 JUMP JUMPDEST DUP6 PUSH1 0xFF AND PUSH1 0x2 SUB PUSH2 0x48A5 JUMPI PUSH2 0x4896 DUP5 PUSH1 0x60 ADD MLOAD PUSH2 0xFFFF AND DUP6 PUSH1 0x80 ADD MLOAD PUSH2 0xFFFF AND PUSH2 0x4ECD JUMP JUMPDEST PUSH2 0xFFFF AND SWAP3 POP PUSH1 0x5A SWAP2 POP PUSH2 0x48C1 JUMP JUMPDEST DUP6 PUSH1 0xFF AND PUSH1 0x3 SUB PUSH2 0x48C1 JUMPI DUP4 PUSH1 0x60 ADD MLOAD PUSH2 0xFFFF AND SWAP3 POP PUSH2 0x16D SWAP2 POP JUMPDEST DUP6 PUSH1 0xFF AND PUSH1 0x1 SUB PUSH2 0x497C JUMPI PUSH1 0x0 PUSH2 0x16D PUSH2 0x48DC DUP10 PUSH1 0xC PUSH2 0x59D2 JUMP JUMPDEST PUSH2 0x48E6 SWAP2 SWAP1 PUSH2 0x598E JUMP JUMPDEST SWAP1 POP DUP4 DUP10 PUSH5 0xFFFFFFFFFF AND EQ ISZERO DUP1 ISZERO PUSH2 0x4905 JUMPI POP DUP9 PUSH5 0xFFFFFFFFFF AND DUP5 GT JUMPDEST ISZERO PUSH2 0x4936 JUMPI PUSH2 0x491B PUSH5 0xFFFFFFFFFF DUP11 AND DUP6 PUSH2 0x5A12 JUMP JUMPDEST PUSH2 0x4925 SWAP1 DUP5 PUSH2 0x5A12 JUMP JUMPDEST PUSH2 0x492F SWAP1 DUP3 PUSH2 0x59D2 JUMP JUMPDEST SWAP8 POP PUSH2 0x4976 JUMP JUMPDEST DUP4 DUP10 PUSH5 0xFFFFFFFFFF AND EQ ISZERO DUP1 ISZERO PUSH2 0x4953 JUMPI POP DUP9 PUSH5 0xFFFFFFFFFF AND DUP5 LT JUMPDEST ISZERO PUSH2 0x4976 JUMPI PUSH2 0x4969 DUP5 PUSH5 0xFFFFFFFFFF DUP12 AND PUSH2 0x5A12 JUMP JUMPDEST PUSH2 0x4973 SWAP1 DUP3 PUSH2 0x59D2 JUMP JUMPDEST SWAP8 POP JUMPDEST POP PUSH2 0x4A44 JUMP JUMPDEST PUSH1 0xFF DUP7 AND ISZERO DUP1 PUSH2 0x498F JUMPI POP DUP6 PUSH1 0xFF AND PUSH1 0x2 EQ JUMPDEST DUP1 PUSH2 0x499D JUMPI POP DUP6 PUSH1 0xFF AND PUSH1 0x3 EQ JUMPDEST ISZERO PUSH2 0x4A44 JUMPI DUP3 DUP9 PUSH5 0xFFFFFFFFFF AND EQ ISZERO DUP1 ISZERO PUSH2 0x49BF JUMPI POP DUP8 PUSH5 0xFFFFFFFFFF AND DUP4 GT JUMPDEST ISZERO PUSH2 0x49FA JUMPI PUSH2 0x49D5 PUSH5 0xFFFFFFFFFF DUP10 AND DUP5 PUSH2 0x5A12 JUMP JUMPDEST PUSH2 0x49DF SWAP1 DUP4 PUSH2 0x5A12 JUMP JUMPDEST PUSH2 0x49E9 DUP4 DUP10 PUSH2 0x598E JUMP JUMPDEST PUSH2 0x49F3 SWAP2 SWAP1 PUSH2 0x59D2 JUMP JUMPDEST SWAP7 POP PUSH2 0x4A44 JUMP JUMPDEST DUP3 DUP9 PUSH5 0xFFFFFFFFFF AND EQ ISZERO DUP1 ISZERO PUSH2 0x4A17 JUMPI POP DUP8 PUSH5 0xFFFFFFFFFF AND DUP4 LT JUMPDEST ISZERO PUSH2 0x4A44 JUMPI PUSH2 0x4A2D DUP4 PUSH5 0xFFFFFFFFFF DUP11 AND PUSH2 0x5A12 JUMP JUMPDEST PUSH2 0x4A37 DUP4 DUP10 PUSH2 0x598E JUMP JUMPDEST PUSH2 0x4A41 SWAP2 SWAP1 PUSH2 0x59D2 JUMP JUMPDEST SWAP7 POP JUMPDEST POP SWAP5 SWAP8 SWAP7 POP POP POP POP POP POP POP JUMP JUMPDEST PUSH1 0x0 DUP3 DUP2 MSTORE PUSH1 0xB PUSH1 0x20 MSTORE PUSH1 0x40 DUP2 KECCAK256 DUP1 SLOAD SWAP1 SWAP2 SWAP1 DUP2 JUMPDEST DUP2 DUP2 LT ISZERO PUSH2 0x4AE9 JUMPI DUP5 PUSH1 0x1 PUSH1 0x1 PUSH1 0xA0 SHL SUB AND DUP5 DUP3 DUP2 SLOAD DUP2 LT PUSH2 0x4A8A JUMPI PUSH2 0x4A8A PUSH2 0x58E4 JUMP JUMPDEST PUSH1 0x0 SWAP2 DUP3 MSTORE PUSH1 0x20 SWAP1 SWAP2 KECCAK256 ADD SLOAD PUSH1 0x1 PUSH1 0x1 PUSH1 0xA0 SHL SUB AND SUB PUSH2 0x4AD7 JUMPI DUP1 SWAP3 POP DUP4 DUP2 DUP2 SLOAD DUP2 LT PUSH2 0x4AB9 JUMPI PUSH2 0x4AB9 PUSH2 0x58E4 JUMP JUMPDEST PUSH1 0x0 SWAP2 DUP3 MSTORE PUSH1 0x20 SWAP1 SWAP2 KECCAK256 ADD DUP1 SLOAD PUSH1 0x1 PUSH1 0x1 PUSH1 0xA0 SHL SUB NOT AND SWAP1 SSTORE PUSH2 0x4AE9 JUMP JUMPDEST DUP1 PUSH2 0x4AE1 DUP2 PUSH2 0x5910 JUMP JUMPDEST SWAP2 POP POP PUSH2 0x4A66 JUMP JUMPDEST POP DUP3 SLOAD DUP4 SWAP1 PUSH2 0x4AFA SWAP1 PUSH1 0x1 SWAP1 PUSH2 0x5A12 JUMP JUMPDEST DUP2 SLOAD DUP2 LT PUSH2 0x4B0A JUMPI PUSH2 0x4B0A PUSH2 0x58E4 JUMP JUMPDEST SWAP1 PUSH1 0x0 MSTORE PUSH1 0x20 PUSH1 0x0 KECCAK256 ADD PUSH1 0x0 SWAP1 SLOAD SWAP1 PUSH2 0x100 EXP SWAP1 DIV PUSH1 0x1 PUSH1 0x1 PUSH1 0xA0 SHL SUB AND DUP4 DUP4 DUP2 SLOAD DUP2 LT PUSH2 0x4B3A JUMPI PUSH2 0x4B3A PUSH2 0x58E4 JUMP JUMPDEST SWAP1 PUSH1 0x0 MSTORE PUSH1 0x20 PUSH1 0x0 KECCAK256 ADD PUSH1 0x0 PUSH2 0x100 EXP DUP2 SLOAD DUP2 PUSH1 0x1 PUSH1 0x1 PUSH1 0xA0 SHL SUB MUL NOT AND SWAP1 DUP4 PUSH1 0x1 PUSH1 0x1 PUSH1 0xA0 SHL SUB AND MUL OR SWAP1 SSTORE POP DUP3 DUP1 SLOAD DUP1 PUSH2 0x4B78 JUMPI PUSH2 0x4B78 PUSH2 0x5B0B JUMP JUMPDEST PUSH1 0x0 DUP3 DUP2 MSTORE PUSH1 0x20 SWAP1 KECCAK256 DUP2 ADD PUSH1 0x0 NOT SWAP1 DUP2 ADD DUP1 SLOAD PUSH1 0x1 PUSH1 0x1 PUSH1 0xA0 SHL SUB NOT AND SWAP1 SSTORE ADD SWAP1 SSTORE POP POP POP POP POP JUMP JUMPDEST PUSH1 0x0 PUSH2 0x2B42 PUSH3 0x15180 DUP4 PUSH2 0x5B21 JUMP JUMPDEST PUSH1 0x40 DUP1 MLOAD PUSH1 0xC0 DUP2 ADD DUP3 MSTORE PUSH1 0x0 DUP1 DUP3 MSTORE PUSH1 0x20 DUP3 ADD DUP2 SWAP1 MSTORE SWAP2 DUP2 ADD DUP3 SWAP1 MSTORE PUSH1 0x60 DUP2 ADD DUP3 SWAP1 MSTORE PUSH1 0x80 DUP2 ADD DUP3 SWAP1 MSTORE PUSH1 0xA0 DUP2 ADD DUP3 SWAP1 MSTORE SWAP1 PUSH2 0x4BEF PUSH3 0x15180 DUP5 PUSH2 0x598E JUMP JUMPDEST SWAP1 POP PUSH1 0x0 DUP1 DUP3 DUP2 PUSH2 0x4C03 DUP3 PUSH3 0x10BD9 PUSH2 0x5B45 JUMP JUMPDEST PUSH2 0x4C10 SWAP1 PUSH3 0x253D8C PUSH2 0x5B45 JUMP JUMPDEST SWAP1 POP PUSH1 0x0 PUSH3 0x23AB1 PUSH2 0x4C23 DUP4 PUSH1 0x4 PUSH2 0x5B65 JUMP JUMPDEST PUSH2 0x4C2D SWAP2 SWAP1 PUSH2 0x5B95 JUMP JUMPDEST SWAP1 POP PUSH1 0x4 PUSH2 0x4C3E DUP3 PUSH3 0x23AB1 PUSH2 0x5B65 JUMP JUMPDEST PUSH2 0x4C49 SWAP1 PUSH1 0x3 PUSH2 0x5B45 JUMP JUMPDEST PUSH2 0x4C53 SWAP2 SWAP1 PUSH2 0x5B95 JUMP JUMPDEST PUSH2 0x4C5D SWAP1 DUP4 PUSH2 0x5BC3 JUMP JUMPDEST SWAP2 POP PUSH1 0x0 PUSH3 0x164B09 PUSH2 0x4C70 DUP5 PUSH1 0x1 PUSH2 0x5B45 JUMP JUMPDEST PUSH2 0x4C7C SWAP1 PUSH2 0xFA0 PUSH2 0x5B65 JUMP JUMPDEST PUSH2 0x4C86 SWAP2 SWAP1 PUSH2 0x5B95 JUMP JUMPDEST SWAP1 POP PUSH1 0x4 PUSH2 0x4C96 DUP3 PUSH2 0x5B5 PUSH2 0x5B65 JUMP JUMPDEST PUSH2 0x4CA0 SWAP2 SWAP1 PUSH2 0x5B95 JUMP JUMPDEST PUSH2 0x4CAA SWAP1 DUP5 PUSH2 0x5BC3 JUMP JUMPDEST PUSH2 0x4CB5 SWAP1 PUSH1 0x1F PUSH2 0x5B45 JUMP JUMPDEST SWAP3 POP PUSH1 0x0 PUSH2 0x98F PUSH2 0x4CC7 DUP6 PUSH1 0x50 PUSH2 0x5B65 JUMP JUMPDEST PUSH2 0x4CD1 SWAP2 SWAP1 PUSH2 0x5B95 JUMP JUMPDEST SWAP1 POP PUSH1 0x0 PUSH1 0x50 PUSH2 0x4CE3 DUP4 PUSH2 0x98F PUSH2 0x5B65 JUMP JUMPDEST PUSH2 0x4CED SWAP2 SWAP1 PUSH2 0x5B95 JUMP JUMPDEST PUSH2 0x4CF7 SWAP1 DUP7 PUSH2 0x5BC3 JUMP JUMPDEST SWAP1 POP PUSH2 0x4D04 PUSH1 0xB DUP4 PUSH2 0x5B95 JUMP JUMPDEST SWAP5 POP PUSH2 0x4D11 DUP6 PUSH1 0xC PUSH2 0x5B65 JUMP JUMPDEST PUSH2 0x4D1C DUP4 PUSH1 0x2 PUSH2 0x5B45 JUMP JUMPDEST PUSH2 0x4D26 SWAP2 SWAP1 PUSH2 0x5BC3 JUMP JUMPDEST SWAP2 POP DUP5 DUP4 PUSH2 0x4D35 PUSH1 0x31 DUP8 PUSH2 0x5BC3 JUMP JUMPDEST PUSH2 0x4D40 SWAP1 PUSH1 0x64 PUSH2 0x5B65 JUMP JUMPDEST PUSH2 0x4D4A SWAP2 SWAP1 PUSH2 0x5B45 JUMP JUMPDEST PUSH2 0x4D54 SWAP2 SWAP1 PUSH2 0x5B45 JUMP JUMPDEST SWAP1 SWAP8 POP SWAP2 POP DUP7 DUP3 DUP3 DUP3 PUSH1 0x0 PUSH1 0x1 JUMPDEST DUP4 DUP2 GT PUSH2 0x4DAE JUMPI DUP4 DUP2 SUB PUSH2 0x4D85 JUMPI PUSH2 0x4D7E PUSH2 0xFFFF DUP15 AND DUP4 PUSH2 0x59A2 JUMP JUMPDEST SWAP2 POP PUSH2 0x4D9C JUMP JUMPDEST PUSH2 0x4D8F DUP6 DUP6 PUSH2 0x4E47 JUMP JUMPDEST PUSH2 0x4D99 SWAP1 DUP4 PUSH2 0x59A2 JUMP JUMPDEST SWAP2 POP JUMPDEST DUP1 PUSH2 0x4DA6 DUP2 PUSH2 0x5910 JUMP JUMPDEST SWAP2 POP POP PUSH2 0x4D62 JUMP JUMPDEST POP DUP1 SWAP11 POP PUSH2 0x4DC0 DUP12 PUSH2 0xFFFF AND DUP6 PUSH2 0x4ECD JUMP JUMPDEST PUSH2 0xFFFF AND PUSH1 0x40 DUP16 ADD MSTORE PUSH2 0x4DD2 DUP16 PUSH2 0x4F9B JUMP JUMPDEST DUP15 PUSH1 0x20 ADD SWAP1 PUSH2 0xFFFF AND SWAP1 DUP2 PUSH2 0xFFFF AND DUP2 MSTORE POP POP DUP12 DUP15 PUSH1 0x0 ADD SWAP1 PUSH2 0xFFFF AND SWAP1 DUP2 PUSH2 0xFFFF AND DUP2 MSTORE POP POP DUP11 DUP15 PUSH1 0x60 ADD SWAP1 PUSH2 0xFFFF AND SWAP1 DUP2 PUSH2 0xFFFF AND DUP2 MSTORE POP POP DUP4 DUP15 PUSH1 0x80 ADD SWAP1 PUSH2 0xFFFF AND SWAP1 DUP2 PUSH2 0xFFFF AND DUP2 MSTORE POP POP DUP3 DUP15 PUSH1 0xA0 ADD SWAP1 PUSH2 0xFFFF AND SWAP1 DUP2 PUSH2 0xFFFF AND DUP2 MSTORE POP POP POP POP POP POP POP POP POP POP POP POP POP POP POP SWAP2 SWAP1 POP JUMP JUMPDEST PUSH1 0x0 DUP2 PUSH1 0x1 EQ DUP1 PUSH2 0x4E58 JUMPI POP DUP2 PUSH1 0x3 EQ JUMPDEST DUP1 PUSH2 0x4E63 JUMPI POP DUP2 PUSH1 0x5 EQ JUMPDEST DUP1 PUSH2 0x4E6E JUMPI POP DUP2 PUSH1 0x7 EQ JUMPDEST DUP1 PUSH2 0x4E79 JUMPI POP DUP2 PUSH1 0x8 EQ JUMPDEST DUP1 PUSH2 0x4E84 JUMPI POP DUP2 PUSH1 0xA EQ JUMPDEST DUP1 PUSH2 0x4E8F JUMPI POP DUP2 PUSH1 0xC EQ JUMPDEST ISZERO PUSH2 0x4E9C JUMPI POP PUSH1 0x1F PUSH2 0x2B42 JUMP JUMPDEST DUP2 PUSH1 0x2 EQ PUSH2 0x4EAC JUMPI POP PUSH1 0x1E PUSH2 0x2B42 JUMP JUMPDEST PUSH2 0x4EB5 DUP4 PUSH2 0x4FD1 JUMP JUMPDEST PUSH2 0x4EC0 JUMPI PUSH1 0x1C PUSH2 0x4EC3 JUMP JUMPDEST PUSH1 0x1D JUMPDEST PUSH1 0xFF AND SWAP4 SWAP3 POP POP POP JUMP JUMPDEST PUSH1 0x0 DUP1 PUSH2 0x4ED9 DUP4 PUSH2 0x4FD1 JUMP JUMPDEST ISZERO PUSH2 0x4EE6 JUMPI POP PUSH1 0x1 PUSH2 0x4EEA JUMP JUMPDEST POP PUSH1 0x0 JUMPDEST PUSH2 0x4EF5 DUP2 PUSH1 0x5A PUSH2 0x59A2 JUMP JUMPDEST DUP5 GT PUSH2 0x4F03 JUMPI DUP4 SWAP2 POP PUSH2 0x4F94 JUMP JUMPDEST DUP4 PUSH2 0x4F0F DUP3 PUSH1 0x5A PUSH2 0x59A2 JUMP JUMPDEST LT DUP1 ISZERO PUSH2 0x4F26 JUMPI POP PUSH2 0x4F22 DUP2 PUSH1 0xB5 PUSH2 0x59A2 JUMP JUMPDEST DUP5 GT ISZERO JUMPDEST ISZERO PUSH2 0x4F47 JUMPI PUSH2 0x4F36 DUP2 PUSH1 0x5A PUSH2 0x59A2 JUMP JUMPDEST PUSH2 0x4F40 SWAP1 DUP6 PUSH2 0x5A12 JUMP JUMPDEST SWAP2 POP PUSH2 0x4F94 JUMP JUMPDEST DUP4 PUSH2 0x4F53 DUP3 PUSH1 0xB5 PUSH2 0x59A2 JUMP JUMPDEST LT DUP1 ISZERO PUSH2 0x4F6B JUMPI POP PUSH2 0x4F67 DUP2 PUSH2 0x111 PUSH2 0x59A2 JUMP JUMPDEST DUP5 GT ISZERO JUMPDEST ISZERO PUSH2 0x4F7B JUMPI PUSH2 0x4F36 DUP2 PUSH1 0xB5 PUSH2 0x59A2 JUMP JUMPDEST PUSH2 0x4F87 DUP2 PUSH2 0x111 PUSH2 0x59A2 JUMP JUMPDEST PUSH2 0x4F91 SWAP1 DUP6 PUSH2 0x5A12 JUMP JUMPDEST SWAP2 POP JUMPDEST POP SWAP3 SWAP2 POP POP JUMP JUMPDEST PUSH1 0x0 DUP1 PUSH2 0x4FAB PUSH3 0x15180 DUP5 PUSH2 0x598E JUMP JUMPDEST SWAP1 POP PUSH1 0x0 PUSH1 0x7 PUSH2 0x4FBC DUP4 PUSH1 0x3 PUSH2 0x59A2 JUMP JUMPDEST PUSH2 0x4FC6 SWAP2 SWAP1 PUSH2 0x5BE3 JUMP JUMPDEST PUSH2 0x4800 SWAP1 PUSH1 0x1 PUSH2 0x59A2 JUMP JUMPDEST PUSH1 0x0 PUSH2 0x4FDE PUSH1 0x4 DUP4 PUSH2 0x5BE3 JUMP JUMPDEST ISZERO DUP1 ISZERO PUSH2 0x4FF4 JUMPI POP PUSH2 0x4FF1 PUSH1 0x64 DUP4 PUSH2 0x5BE3 JUMP JUMPDEST ISZERO ISZERO JUMPDEST DUP1 PUSH2 0x2B42 JUMPI POP PUSH2 0x5006 PUSH2 0x190 DUP4 PUSH2 0x5BE3 JUMP JUMPDEST ISZERO SWAP3 SWAP2 POP POP JUMP JUMPDEST PUSH1 0x1 PUSH1 0x1 PUSH1 0xA0 SHL SUB DUP2 AND DUP2 EQ PUSH2 0x3B2A JUMPI PUSH1 0x0 DUP1 REVERT JUMPDEST DUP1 CALLDATALOAD PUSH2 0x502D DUP2 PUSH2 0x500D JUMP JUMPDEST SWAP2 SWAP1 POP JUMP JUMPDEST PUSH1 0x0 PUSH1 0x20 DUP3 DUP5 SUB SLT ISZERO PUSH2 0x5044 JUMPI PUSH1 0x0 DUP1 REVERT JUMPDEST DUP2 CALLDATALOAD PUSH2 0x504F DUP2 PUSH2 0x500D JUMP JUMPDEST SWAP4 SWAP3 POP POP POP JUMP JUMPDEST PUSH1 0x0 PUSH1 0x40 DUP3 DUP5 SUB SLT ISZERO PUSH2 0x5068 JUMPI PUSH1 0x0 DUP1 REVERT JUMPDEST POP SWAP2 SWAP1 POP JUMP JUMPDEST DUP1 CALLDATALOAD PUSH1 0x4 DUP2 LT PUSH2 0x502D JUMPI PUSH1 0x0 DUP1 REVERT JUMPDEST DUP1 CALLDATALOAD PUSH2 0xFFFF DUP2 AND DUP2 EQ PUSH2 0x502D JUMPI PUSH1 0x0 DUP1 REVERT JUMPDEST PUSH1 0x0 DUP1 PUSH1 0x0 DUP1 PUSH1 0x0 PUSH1 0xA0 DUP7 DUP9 SUB SLT ISZERO PUSH2 0x50A7 JUMPI PUSH1 0x0 DUP1 REVERT JUMPDEST DUP6 CALLDATALOAD SWAP5 POP PUSH1 0x20 DUP7 ADD CALLDATALOAD PUSH2 0x50B9 DUP2 PUSH2 0x500D JUMP JUMPDEST SWAP4 POP PUSH1 0x40 DUP7 ADD CALLDATALOAD PUSH8 0xFFFFFFFFFFFFFFFF DUP2 GT ISZERO PUSH2 0x50D5 JUMPI PUSH1 0x0 DUP1 REVERT JUMPDEST PUSH2 0x50E1 DUP9 DUP3 DUP10 ADD PUSH2 0x5056 JUMP JUMPDEST SWAP4 POP POP PUSH2 0x50F0 PUSH1 0x60 DUP8 ADD PUSH2 0x506E JUMP JUMPDEST SWAP2 POP PUSH2 0x50FE PUSH1 0x80 DUP8 ADD PUSH2 0x507D JUMP JUMPDEST SWAP1 POP SWAP3 SWAP6 POP SWAP3 SWAP6 SWAP1 SWAP4 POP JUMP JUMPDEST PUSH1 0x0 PUSH1 0x20 DUP3 DUP5 SUB SLT ISZERO PUSH2 0x511C JUMPI PUSH1 0x0 DUP1 REVERT JUMPDEST POP CALLDATALOAD SWAP2 SWAP1 POP JUMP JUMPDEST PUSH1 0x0 DUP1 PUSH1 0x0 PUSH1 0x60 DUP5 DUP7 SUB SLT ISZERO PUSH2 0x5138 JUMPI PUSH1 0x0 DUP1 REVERT JUMPDEST DUP4 CALLDATALOAD SWAP3 POP PUSH2 0x5148 PUSH1 0x20 DUP6 ADD PUSH2 0x506E JUMP JUMPDEST SWAP2 POP PUSH2 0x5156 PUSH1 0x40 DUP6 ADD PUSH2 0x507D JUMP JUMPDEST SWAP1 POP SWAP3 POP SWAP3 POP SWAP3 JUMP JUMPDEST PUSH4 0x4E487B71 PUSH1 0xE0 SHL PUSH1 0x0 MSTORE PUSH1 0x21 PUSH1 0x4 MSTORE PUSH1 0x24 PUSH1 0x0 REVERT JUMPDEST PUSH1 0x4 DUP2 LT PUSH2 0x5185 JUMPI PUSH2 0x5185 PUSH2 0x515F JUMP JUMPDEST SWAP1 MSTORE JUMP JUMPDEST DUP1 MLOAD DUP3 MSTORE PUSH1 0x20 DUP2 ADD MLOAD PUSH1 0x20 DUP4 ADD MSTORE PUSH1 0x40 DUP2 ADD MLOAD PUSH1 0x1 PUSH1 0x1 PUSH1 0xA0 SHL SUB DUP1 DUP3 AND PUSH1 0x40 DUP6 ADD MSTORE DUP1 PUSH1 0x60 DUP5 ADD MLOAD AND PUSH1 0x60 DUP6 ADD MSTORE POP POP PUSH1 0x80 DUP2 ADD MLOAD ISZERO ISZERO PUSH1 0x80 DUP4 ADD MSTORE PUSH1 0xA0 DUP2 ADD MLOAD ISZERO ISZERO PUSH1 0xA0 DUP4 ADD MSTORE PUSH1 0xC0 DUP2 ADD MLOAD PUSH2 0x51E4 PUSH1 0xC0 DUP5 ADD DUP3 PUSH2 0x5175 JUMP JUMPDEST POP PUSH1 0xE0 SWAP1 DUP2 ADD MLOAD PUSH2 0xFFFF AND SWAP2 ADD MSTORE JUMP JUMPDEST PUSH2 0x100 DUP2 ADD PUSH2 0x2B42 DUP3 DUP5 PUSH2 0x5189 JUMP JUMPDEST PUSH1 0x0 PUSH2 0x100 DUP3 DUP5 SUB SLT ISZERO PUSH2 0x5068 JUMPI PUSH1 0x0 DUP1 REVERT JUMPDEST PUSH4 0x4E487B71 PUSH1 0xE0 SHL PUSH1 0x0 MSTORE PUSH1 0x41 PUSH1 0x4 MSTORE PUSH1 0x24 PUSH1 0x0 REVERT JUMPDEST PUSH1 0x40 MLOAD PUSH1 0xC0 DUP2 ADD PUSH8 0xFFFFFFFFFFFFFFFF DUP2 GT DUP3 DUP3 LT OR ISZERO PUSH2 0x524F JUMPI PUSH2 0x524F PUSH2 0x5216 JUMP JUMPDEST PUSH1 0x40 MSTORE SWAP1 JUMP JUMPDEST DUP1 ISZERO ISZERO DUP2 EQ PUSH2 0x3B2A JUMPI PUSH1 0x0 DUP1 REVERT JUMPDEST DUP1 CALLDATALOAD PUSH2 0x502D DUP2 PUSH2 0x5255 JUMP JUMPDEST PUSH1 0x0 PUSH2 0x100 DUP1 DUP4 DUP6 SUB SLT ISZERO PUSH2 0x5282 JUMPI PUSH1 0x0 DUP1 REVERT JUMPDEST PUSH1 0x40 MLOAD SWAP1 DUP2 ADD SWAP1 PUSH8 0xFFFFFFFFFFFFFFFF DUP3 GT DUP2 DUP4 LT OR ISZERO PUSH2 0x52A5 JUMPI PUSH2 0x52A5 PUSH2 0x5216 JUMP JUMPDEST PUSH1 0x40 SWAP2 DUP3 MSTORE DUP4 CALLDATALOAD DUP2 MSTORE PUSH1 0x20 DUP1 DUP6 ADD CALLDATALOAD SWAP1 DUP3 ADD MSTORE SWAP2 POP DUP3 ADD CALLDATALOAD DUP2 PUSH2 0x52C7 DUP3 PUSH2 0x500D JUMP JUMPDEST DUP2 PUSH1 0x40 DUP3 ADD MSTORE PUSH2 0x52D9 PUSH1 0x60 DUP6 ADD PUSH2 0x5022 JUMP JUMPDEST PUSH1 0x60 DUP3 ADD MSTORE PUSH2 0x52EA PUSH1 0x80 DUP6 ADD PUSH2 0x5263 JUMP JUMPDEST PUSH1 0x80 DUP3 ADD MSTORE PUSH2 0x52FB PUSH1 0xA0 DUP6 ADD PUSH2 0x5263 JUMP JUMPDEST PUSH1 0xA0 DUP3 ADD MSTORE PUSH2 0x530C PUSH1 0xC0 DUP6 ADD PUSH2 0x506E JUMP JUMPDEST PUSH1 0xC0 DUP3 ADD MSTORE PUSH2 0x531D PUSH1 0xE0 DUP6 ADD PUSH2 0x507D JUMP JUMPDEST PUSH1 0xE0 DUP3 ADD MSTORE POP POP SWAP3 SWAP2 POP POP JUMP JUMPDEST PUSH1 0x0 PUSH2 0x100 DUP3 DUP5 SUB SLT ISZERO PUSH2 0x533D JUMPI PUSH1 0x0 DUP1 REVERT JUMPDEST PUSH2 0x504F DUP4 DUP4 PUSH2 0x526E JUMP JUMPDEST PUSH1 0x20 DUP1 DUP3 MSTORE DUP3 MLOAD DUP3 DUP3 ADD DUP2 SWAP1 MSTORE PUSH1 0x0 SWAP2 SWAP1 PUSH1 0x40 SWAP1 DUP2 DUP6 ADD SWAP1 DUP7 DUP5 ADD DUP6 JUMPDEST DUP3 DUP2 LT ISZERO PUSH2 0x5392 JUMPI DUP2 MLOAD DUP1 MLOAD PUSH1 0x1 PUSH1 0x1 PUSH1 0xA0 SHL SUB AND DUP6 MSTORE DUP7 ADD MLOAD DUP7 DUP6 ADD MSTORE SWAP3 DUP5 ADD SWAP3 SWAP1 DUP6 ADD SWAP1 PUSH1 0x1 ADD PUSH2 0x5364 JUMP JUMPDEST POP SWAP2 SWAP8 SWAP7 POP POP POP POP POP POP POP JUMP JUMPDEST PUSH1 0x0 DUP1 PUSH1 0x40 DUP4 DUP6 SUB SLT ISZERO PUSH2 0x53B2 JUMPI PUSH1 0x0 DUP1 REVERT JUMPDEST DUP3 CALLDATALOAD PUSH2 0x53BD DUP2 PUSH2 0x5255 JUMP JUMPDEST SWAP2 POP PUSH1 0x20 DUP4 ADD CALLDATALOAD PUSH2 0x53CD DUP2 PUSH2 0x500D JUMP JUMPDEST DUP1 SWAP2 POP POP SWAP3 POP SWAP3 SWAP1 POP JUMP JUMPDEST PUSH1 0x3 DUP2 LT PUSH2 0x5185 JUMPI PUSH2 0x5185 PUSH2 0x515F JUMP JUMPDEST PUSH1 0x20 DUP1 DUP3 MSTORE DUP3 MLOAD DUP3 DUP3 ADD DUP2 SWAP1 MSTORE PUSH1 0x0 SWAP2 SWAP1 PUSH1 0x40 SWAP1 DUP2 DUP6 ADD SWAP1 DUP7 DUP5 ADD DUP6 JUMPDEST DUP3 DUP2 LT ISZERO PUSH2 0x5392 JUMPI DUP2 MLOAD PUSH2 0x541A DUP6 DUP3 MLOAD PUSH2 0x5189 JUMP JUMPDEST DUP7 DUP2 ADD MLOAD PUSH2 0x542C PUSH2 0x100 DUP8 ADD DUP3 PUSH2 0x53D8 JUMP JUMPDEST POP DUP6 ADD MLOAD PUSH2 0x120 DUP6 ADD MSTORE PUSH2 0x140 SWAP1 SWAP4 ADD SWAP3 SWAP1 DUP6 ADD SWAP1 PUSH1 0x1 ADD PUSH2 0x5405 JUMP JUMPDEST PUSH1 0x0 DUP1 PUSH2 0x120 DUP4 DUP6 SUB SLT ISZERO PUSH2 0x545D JUMPI PUSH1 0x0 DUP1 REVERT JUMPDEST PUSH2 0x5467 DUP5 DUP5 PUSH2 0x526E JUMP JUMPDEST SWAP2 POP PUSH2 0x100 DUP4 ADD CALLDATALOAD PUSH2 0x53CD DUP2 PUSH2 0x500D JUMP JUMPDEST PUSH1 0x0 PUSH1 0x20 DUP3 DUP5 SUB SLT ISZERO PUSH2 0x548A JUMPI PUSH1 0x0 DUP1 REVERT JUMPDEST DUP2 CALLDATALOAD PUSH2 0x504F DUP2 PUSH2 0x5255 JUMP JUMPDEST PUSH1 0x0 DUP1 PUSH1 0x40 DUP4 DUP6 SUB SLT ISZERO PUSH2 0x54A8 JUMPI PUSH1 0x0 DUP1 REVERT JUMPDEST DUP3 CALLDATALOAD PUSH8 0xFFFFFFFFFFFFFFFF DUP2 GT ISZERO PUSH2 0x54BF JUMPI PUSH1 0x0 DUP1 REVERT JUMPDEST PUSH2 0x54CB DUP6 DUP3 DUP7 ADD PUSH2 0x5056 JUMP JUMPDEST SWAP6 PUSH1 0x20 SWAP5 SWAP1 SWAP5 ADD CALLDATALOAD SWAP5 POP POP POP POP JUMP JUMPDEST PUSH1 0x20 DUP1 DUP3 MSTORE DUP3 MLOAD DUP3 DUP3 ADD DUP2 SWAP1 MSTORE PUSH1 0x0 SWAP2 SWAP1 PUSH1 0x40 SWAP1 DUP2 DUP6 ADD SWAP1 DUP7 DUP5 ADD DUP6 JUMPDEST DUP3 DUP2 LT ISZERO PUSH2 0x5392 JUMPI DUP2 MLOAD DUP1 MLOAD DUP6 MSTORE DUP7 ADD MLOAD PUSH1 0x1 PUSH1 0x1 PUSH1 0xA0 SHL SUB AND DUP7 DUP6 ADD MSTORE SWAP3 DUP5 ADD SWAP3 SWAP1 DUP6 ADD SWAP1 PUSH1 0x1 ADD PUSH2 0x54F7 JUMP JUMPDEST PUSH1 0x0 DUP1 PUSH1 0x40 DUP4 DUP6 SUB SLT ISZERO PUSH2 0x5538 JUMPI PUSH1 0x0 DUP1 REVERT JUMPDEST DUP3 CALLDATALOAD SWAP2 POP PUSH1 0x20 DUP4 ADD CALLDATALOAD PUSH2 0x53CD DUP2 PUSH2 0x500D JUMP JUMPDEST PUSH1 0x0 DUP3 PUSH1 0x1F DUP4 ADD SLT PUSH2 0x555B JUMPI PUSH1 0x0 DUP1 REVERT JUMPDEST DUP2 CALLDATALOAD PUSH8 0xFFFFFFFFFFFFFFFF DUP1 DUP3 GT ISZERO PUSH2 0x5576 JUMPI PUSH2 0x5576 PUSH2 0x5216 JUMP JUMPDEST PUSH1 0x40 MLOAD PUSH1 0x1F DUP4 ADD PUSH1 0x1F NOT SWAP1 DUP2 AND PUSH1 0x3F ADD AND DUP2 ADD SWAP1 DUP3 DUP3 GT DUP2 DUP4 LT OR ISZERO PUSH2 0x559E JUMPI PUSH2 0x559E PUSH2 0x5216 JUMP JUMPDEST DUP2 PUSH1 0x40 MSTORE DUP4 DUP2 MSTORE DUP7 PUSH1 0x20 DUP6 DUP9 ADD ADD GT ISZERO PUSH2 0x55B7 JUMPI PUSH1 0x0 DUP1 REVERT JUMPDEST DUP4 PUSH1 0x20 DUP8 ADD PUSH1 0x20 DUP4 ADD CALLDATACOPY PUSH1 0x0 PUSH1 0x20 DUP6 DUP4 ADD ADD MSTORE DUP1 SWAP5 POP POP POP POP POP SWAP3 SWAP2 POP POP JUMP JUMPDEST PUSH1 0x0 PUSH1 0x20 DUP3 DUP5 SUB SLT ISZERO PUSH2 0x55E9 JUMPI PUSH1 0x0 DUP1 REVERT JUMPDEST DUP2 CALLDATALOAD PUSH8 0xFFFFFFFFFFFFFFFF DUP1 DUP3 GT ISZERO PUSH2 0x5601 JUMPI PUSH1 0x0 DUP1 REVERT JUMPDEST SWAP1 DUP4 ADD SWAP1 PUSH1 0xC0 DUP3 DUP7 SUB SLT ISZERO PUSH2 0x5615 JUMPI PUSH1 0x0 DUP1 REVERT JUMPDEST PUSH2 0x561D PUSH2 0x522C JUMP JUMPDEST DUP3 CALLDATALOAD DUP3 DUP2 GT ISZERO PUSH2 0x562C JUMPI PUSH1 0x0 DUP1 REVERT JUMPDEST PUSH2 0x5638 DUP8 DUP3 DUP7 ADD PUSH2 0x554A JUMP JUMPDEST DUP3 MSTORE POP PUSH1 0x20 DUP4 ADD CALLDATALOAD DUP3 DUP2 GT ISZERO PUSH2 0x564D JUMPI PUSH1 0x0 DUP1 REVERT JUMPDEST PUSH2 0x5659 DUP8 DUP3 DUP7 ADD PUSH2 0x554A JUMP JUMPDEST PUSH1 0x20 DUP4 ADD MSTORE POP PUSH1 0x40 DUP4 ADD CALLDATALOAD DUP3 DUP2 GT ISZERO PUSH2 0x5671 JUMPI PUSH1 0x0 DUP1 REVERT JUMPDEST PUSH2 0x567D DUP8 DUP3 DUP7 ADD PUSH2 0x554A JUMP JUMPDEST PUSH1 0x40 DUP4 ADD MSTORE POP PUSH1 0x60 DUP4 ADD CALLDATALOAD DUP3 DUP2 GT ISZERO PUSH2 0x5695 JUMPI PUSH1 0x0 DUP1 REVERT JUMPDEST PUSH2 0x56A1 DUP8 DUP3 DUP7 ADD PUSH2 0x554A JUMP JUMPDEST PUSH1 0x60 DUP4 ADD MSTORE POP PUSH1 0x80 DUP4 ADD CALLDATALOAD DUP3 DUP2 GT ISZERO PUSH2 0x56B9 JUMPI PUSH1 0x0 DUP1 REVERT JUMPDEST PUSH2 0x56C5 DUP8 DUP3 DUP7 ADD PUSH2 0x554A JUMP JUMPDEST PUSH1 0x80 DUP4 ADD MSTORE POP PUSH1 0xA0 DUP4 ADD CALLDATALOAD DUP3 DUP2 GT ISZERO PUSH2 0x56DD JUMPI PUSH1 0x0 DUP1 REVERT JUMPDEST PUSH2 0x56E9 DUP8 DUP3 DUP7 ADD PUSH2 0x554A JUMP JUMPDEST PUSH1 0xA0 DUP4 ADD MSTORE POP SWAP6 SWAP5 POP POP POP POP POP JUMP JUMPDEST PUSH1 0x0 DUP1 PUSH1 0x40 DUP4 DUP6 SUB SLT ISZERO PUSH2 0x570B JUMPI PUSH1 0x0 DUP1 REVERT JUMPDEST DUP3 CALLDATALOAD PUSH2 0x5716 DUP2 PUSH2 0x500D JUMP JUMPDEST SWAP5 PUSH1 0x20 SWAP4 SWAP1 SWAP4 ADD CALLDATALOAD SWAP4 POP POP POP JUMP JUMPDEST PUSH1 0x0 DUP2 MLOAD DUP1 DUP5 MSTORE PUSH1 0x20 DUP1 DUP6 ADD SWAP5 POP DUP1 DUP5 ADD PUSH1 0x0 JUMPDEST DUP4 DUP2 LT ISZERO PUSH2 0x578E JUMPI DUP2 MLOAD DUP1 MLOAD DUP9 MSTORE PUSH2 0xFFFF DUP5 DUP3 ADD MLOAD AND DUP5 DUP10 ADD MSTORE PUSH1 0x40 DUP1 DUP3 ADD MLOAD PUSH2 0x5764 DUP3 DUP12 ADD DUP3 PUSH2 0x5175 JUMP JUMPDEST POP POP PUSH1 0x60 SWAP1 DUP2 ADD MLOAD SWAP1 PUSH2 0x5779 DUP10 DUP3 ADD DUP4 PUSH2 0x53D8 JUMP JUMPDEST POP POP PUSH1 0x80 SWAP7 SWAP1 SWAP7 ADD SWAP6 SWAP1 DUP3 ADD SWAP1 PUSH1 0x1 ADD PUSH2 0x5738 JUMP JUMPDEST POP SWAP5 SWAP6 SWAP5 POP POP POP POP POP JUMP JUMPDEST PUSH1 0x20 DUP2 MSTORE PUSH1 0x1 PUSH1 0x1 PUSH1 0xA0 SHL SUB DUP3 MLOAD AND PUSH1 0x20 DUP3 ADD MSTORE PUSH1 0x20 DUP3 ADD MLOAD ISZERO ISZERO PUSH1 0x40 DUP3 ADD MSTORE PUSH1 0x0 PUSH1 0x40 DUP4 ADD MLOAD PUSH1 0x80 PUSH1 0x60 DUP5 ADD MSTORE PUSH2 0x57D4 PUSH1 0xA0 DUP5 ADD DUP3 PUSH2 0x5724 JUMP JUMPDEST SWAP1 POP PUSH1 0x60 DUP5 ADD MLOAD PUSH1 0x1F NOT DUP5 DUP4 SUB ADD PUSH1 0x80 DUP6 ADD MSTORE PUSH2 0x57F1 DUP3 DUP3 PUSH2 0x5724 JUMP JUMPDEST SWAP6 SWAP5 POP POP POP POP POP JUMP JUMPDEST PUSH1 0x0 DUP1 DUP4 CALLDATALOAD PUSH1 0x1E NOT DUP5 CALLDATASIZE SUB ADD DUP2 SLT PUSH2 0x5811 JUMPI PUSH1 0x0 DUP1 REVERT JUMPDEST DUP4 ADD DUP1 CALLDATALOAD SWAP2 POP PUSH8 0xFFFFFFFFFFFFFFFF DUP3 GT ISZERO PUSH2 0x582C JUMPI PUSH1 0x0 DUP1 REVERT JUMPDEST PUSH1 0x20 ADD SWAP2 POP CALLDATASIZE DUP2 SWAP1 SUB DUP3 SGT ISZERO PUSH2 0x5841 JUMPI PUSH1 0x0 DUP1 REVERT JUMPDEST SWAP3 POP SWAP3 SWAP1 POP JUMP JUMPDEST DUP2 DUP4 MSTORE DUP2 DUP2 PUSH1 0x20 DUP6 ADD CALLDATACOPY POP PUSH1 0x0 DUP3 DUP3 ADD PUSH1 0x20 SWAP1 DUP2 ADD SWAP2 SWAP1 SWAP2 MSTORE PUSH1 0x1F SWAP1 SWAP2 ADD PUSH1 0x1F NOT AND SWAP1 SWAP2 ADD ADD SWAP1 JUMP JUMPDEST PUSH1 0x40 DUP2 MSTORE PUSH1 0x0 PUSH2 0x5885 PUSH1 0x40 DUP4 ADD DUP7 DUP9 PUSH2 0x5848 JUMP JUMPDEST DUP3 DUP2 SUB PUSH1 0x20 DUP5 ADD MSTORE PUSH2 0x5898 DUP2 DUP6 DUP8 PUSH2 0x5848 JUMP JUMPDEST SWAP8 SWAP7 POP POP POP POP POP POP POP JUMP JUMPDEST PUSH1 0xA DUP2 LT PUSH2 0x5185 JUMPI PUSH2 0x5185 PUSH2 0x515F JUMP JUMPDEST PUSH5 0xFFFFFFFFFF DUP6 AND DUP2 MSTORE PUSH1 0x20 DUP2 ADD DUP5 SWAP1 MSTORE PUSH1 0x1 PUSH1 0x1 PUSH1 0xA0 SHL SUB DUP4 AND PUSH1 0x40 DUP3 ADD MSTORE PUSH1 0x80 DUP2 ADD PUSH2 0x57F1 PUSH1 0x60 DUP4 ADD DUP5 PUSH2 0x58A3 JUMP JUMPDEST PUSH4 0x4E487B71 PUSH1 0xE0 SHL PUSH1 0x0 MSTORE PUSH1 0x32 PUSH1 0x4 MSTORE PUSH1 0x24 PUSH1 0x0 REVERT JUMPDEST PUSH4 0x4E487B71 PUSH1 0xE0 SHL PUSH1 0x0 MSTORE PUSH1 0x11 PUSH1 0x4 MSTORE PUSH1 0x24 PUSH1 0x0 REVERT JUMPDEST PUSH1 0x0 PUSH1 0x1 DUP3 ADD PUSH2 0x5922 JUMPI PUSH2 0x5922 PUSH2 0x58FA JUMP JUMPDEST POP PUSH1 0x1 ADD SWAP1 JUMP JUMPDEST PUSH1 0x0 PUSH1 0x20 DUP3 DUP5 SUB SLT ISZERO PUSH2 0x593B JUMPI PUSH1 0x0 DUP1 REVERT JUMPDEST POP MLOAD SWAP2 SWAP1 POP JUMP JUMPDEST PUSH1 0x0 PUSH1 0x20 DUP3 DUP5 SUB SLT ISZERO PUSH2 0x5954 JUMPI PUSH1 0x0 DUP1 REVERT JUMPDEST PUSH2 0x504F DUP3 PUSH2 0x507D JUMP JUMPDEST PUSH1 0x0 PUSH1 0x20 DUP3 DUP5 SUB SLT ISZERO PUSH2 0x596F JUMPI PUSH1 0x0 DUP1 REVERT JUMPDEST PUSH2 0x504F DUP3 PUSH2 0x506E JUMP JUMPDEST PUSH4 0x4E487B71 PUSH1 0xE0 SHL PUSH1 0x0 MSTORE PUSH1 0x12 PUSH1 0x4 MSTORE PUSH1 0x24 PUSH1 0x0 REVERT JUMPDEST PUSH1 0x0 DUP3 PUSH2 0x599D JUMPI PUSH2 0x599D PUSH2 0x5978 JUMP JUMPDEST POP DIV SWAP1 JUMP JUMPDEST DUP1 DUP3 ADD DUP1 DUP3 GT ISZERO PUSH2 0x2B42 JUMPI PUSH2 0x2B42 PUSH2 0x58FA JUMP JUMPDEST PUSH1 0x0 PUSH1 0x20 DUP3 DUP5 SUB SLT ISZERO PUSH2 0x59C7 JUMPI PUSH1 0x0 DUP1 REVERT JUMPDEST DUP2 MLOAD PUSH2 0x504F DUP2 PUSH2 0x5255 JUMP JUMPDEST DUP1 DUP3 MUL DUP2 ISZERO DUP3 DUP3 DIV DUP5 EQ OR PUSH2 0x2B42 JUMPI PUSH2 0x2B42 PUSH2 0x58FA JUMP JUMPDEST PUSH5 0xFFFFFFFFFF DUP2 DUP2 AND DUP4 DUP3 AND MUL DUP1 DUP3 AND SWAP2 SWAP1 DUP3 DUP2 EQ PUSH2 0x5A0A JUMPI PUSH2 0x5A0A PUSH2 0x58FA JUMP JUMPDEST POP POP SWAP3 SWAP2 POP POP JUMP JUMPDEST DUP2 DUP2 SUB DUP2 DUP2 GT ISZERO PUSH2 0x2B42 JUMPI PUSH2 0x2B42 PUSH2 0x58FA JUMP JUMPDEST PUSH5 0xFFFFFFFFFF DUP2 DUP2 AND DUP4 DUP3 AND ADD SWAP1 DUP1 DUP3 GT ISZERO PUSH2 0x4F94 JUMPI PUSH2 0x4F94 PUSH2 0x58FA JUMP JUMPDEST PUSH1 0x0 DUP2 MLOAD DUP1 DUP5 MSTORE PUSH1 0x0 JUMPDEST DUP2 DUP2 LT ISZERO PUSH2 0x5A69 JUMPI PUSH1 0x20 DUP2 DUP6 ADD DUP2 ADD MLOAD DUP7 DUP4 ADD DUP3 ADD MSTORE ADD PUSH2 0x5A4D JUMP JUMPDEST POP PUSH1 0x0 PUSH1 0x20 DUP3 DUP7 ADD ADD MSTORE PUSH1 0x20 PUSH1 0x1F NOT PUSH1 0x1F DUP4 ADD AND DUP6 ADD ADD SWAP2 POP POP SWAP3 SWAP2 POP POP JUMP JUMPDEST PUSH1 0xC0 DUP2 MSTORE PUSH1 0x0 PUSH2 0x5A9C PUSH1 0xC0 DUP4 ADD DUP10 PUSH2 0x5A43 JUMP JUMPDEST DUP3 DUP2 SUB PUSH1 0x20 DUP5 ADD MSTORE PUSH2 0x5AAE DUP2 DUP10 PUSH2 0x5A43 JUMP JUMPDEST SWAP1 POP DUP3 DUP2 SUB PUSH1 0x40 DUP5 ADD MSTORE PUSH2 0x5AC2 DUP2 DUP9 PUSH2 0x5A43 JUMP JUMPDEST SWAP1 POP DUP3 DUP2 SUB PUSH1 0x60 DUP5 ADD MSTORE PUSH2 0x5AD6 DUP2 DUP8 PUSH2 0x5A43 JUMP JUMPDEST SWAP1 POP DUP3 DUP2 SUB PUSH1 0x80 DUP5 ADD MSTORE PUSH2 0x5AEA DUP2 DUP7 PUSH2 0x5A43 JUMP JUMPDEST SWAP1 POP DUP3 DUP2 SUB PUSH1 0xA0 DUP5 ADD MSTORE PUSH2 0x5AFE DUP2 DUP6 PUSH2 0x5A43 JUMP JUMPDEST SWAP10 SWAP9 POP POP POP POP POP POP POP POP POP JUMP JUMPDEST PUSH4 0x4E487B71 PUSH1 0xE0 SHL PUSH1 0x0 MSTORE PUSH1 0x31 PUSH1 0x4 MSTORE PUSH1 0x24 PUSH1 0x0 REVERT JUMPDEST PUSH1 0x0 PUSH5 0xFFFFFFFFFF DUP1 DUP5 AND DUP1 PUSH2 0x5B39 JUMPI PUSH2 0x5B39 PUSH2 0x5978 JUMP JUMPDEST SWAP3 AND SWAP2 SWAP1 SWAP2 DIV SWAP3 SWAP2 POP POP JUMP JUMPDEST DUP1 DUP3 ADD DUP3 DUP2 SLT PUSH1 0x0 DUP4 SLT DUP1 ISZERO DUP3 AND DUP3 ISZERO DUP3 AND OR ISZERO PUSH2 0x5A0A JUMPI PUSH2 0x5A0A PUSH2 0x58FA JUMP JUMPDEST DUP1 DUP3 MUL PUSH1 0x0 DUP3 SLT PUSH1 0x1 PUSH1 0xFF SHL DUP5 EQ AND ISZERO PUSH2 0x5B81 JUMPI PUSH2 0x5B81 PUSH2 0x58FA JUMP JUMPDEST DUP2 DUP2 SDIV DUP4 EQ DUP3 ISZERO OR PUSH2 0x2B42 JUMPI PUSH2 0x2B42 PUSH2 0x58FA JUMP JUMPDEST PUSH1 0x0 DUP3 PUSH2 0x5BA4 JUMPI PUSH2 0x5BA4 PUSH2 0x5978 JUMP JUMPDEST PUSH1 0x1 PUSH1 0xFF SHL DUP3 EQ PUSH1 0x0 NOT DUP5 EQ AND ISZERO PUSH2 0x5BBE JUMPI PUSH2 0x5BBE PUSH2 0x58FA JUMP JUMPDEST POP SDIV SWAP1 JUMP JUMPDEST DUP2 DUP2 SUB PUSH1 0x0 DUP4 SLT DUP1 ISZERO DUP4 DUP4 SGT AND DUP4 DUP4 SLT DUP3 AND OR ISZERO PUSH2 0x4F94 JUMPI PUSH2 0x4F94 PUSH2 0x58FA JUMP JUMPDEST PUSH1 0x0 DUP3 PUSH2 0x5BF2 JUMPI PUSH2 0x5BF2 PUSH2 0x5978 JUMP JUMPDEST POP MOD SWAP1 JUMP INVALID 0xCA PUSH12 0x824CAF1A48EA2AD039DBB063 CHAINID 0xF LOG3 0xE SWAP13 EXTCODECOPY 0xC2 SSTORE 0xEE 0xB5 0x22 BLOCKHASH 0xD6 CODESIZE 0xEC PUSH14 0xE65EA26469706673582212208F95 PUSH32 0xD97F68DA958895CBC348EFFCDD8E15F041B5D3415772E65E76D08BE0EA64736F PUSH13 0x63430008150033000000000000 "},"methodIdentifiers":{"accountLookup(uint256)":"f4a2a200","addERC20Contract(address,uint256)":"f25e13c9","approvedERC20(address)":"bd743886","callerFee()":"34d441d0","cancelSubscription((bytes32,uint256,address,address,bool,bool,uint8,uint16))":"87d888d3","changeAdmin(address)":"8f283970","changeCallerFee(uint256)":"8ef0ef1c","changeMaxRemits(uint256)":"27ea9773","changeSystemFee(uint256)":"0bec99e8","collectFees()":"c8796572","createSubscription(uint256,address,(string,string),uint8,uint16)":"0b8590c7","editDetails((string,string),bytes32)":"d10f9e69","editProvDetails((string,string,string,string,string,string))":"ed601d28","feeBalance(bytes32,address)":"ebec6eaa","feeEstimate()":"e63d35be","getAccount(address)":"fbcbc0f1","getAccountSubscriptions(bool,address)":"86525a00","getSubByIndex(bytes32,uint8,uint16)":"2d23f7e7","getSubscribersById(bytes32)":"7bbf5a6e","getTotalSubscribers()":"b25ae32c","maxRemits()":"cab1c965","nextUncheckedDay()":"da854a96","remit()":"7507ba39","removeERC20Contract(address)":"053149fa","setExternalCallers(bool)":"b4761de9","subscribe((bytes32,uint256,address,address,bool,bool,uint8,uint16))":"3c95dad5","systemFee()":"1f17ee55","systemFeeActivate(bool)":"9889552e","unsubscribe((bytes32,uint256,address,address,bool,bool,uint8,uint16))":"44e49769","unsubscribeByProvider((bytes32,uint256,address,address,bool,bool,uint8,uint16),address)":"907cedb2"}}}}}