{"contracts/ClockTowerSubscribe.sol":{"ClockTowerTime":{"abi":[{"inputs":[{"internalType":"uint40","name":"unixTime","type":"uint40"}],"name":"unixToDays","outputs":[{"internalType":"uint40","name":"dayCount","type":"uint40"}],"stateMutability":"pure","type":"function"},{"inputs":[{"internalType":"uint256","name":"unix","type":"uint256"}],"name":"unixToTime","outputs":[{"components":[{"internalType":"uint16","name":"day","type":"uint16"},{"internalType":"uint16","name":"weekDay","type":"uint16"},{"internalType":"uint16","name":"quarterDay","type":"uint16"},{"internalType":"uint16","name":"yearDay","type":"uint16"}],"internalType":"struct ClockTowerTime.Time","name":"time","type":"tuple"}],"stateMutability":"pure","type":"function"}],"evm":{"bytecode":{"linkReferences":{},"object":"61078061003a600b82828239805160001a60731461002d57634e487b7160e01b600052600060045260246000fd5b30600052607381538281f3fe73000000000000000000000000000000000000000030146080604052600436106100405760003560e01c806353a6d6e214610045578063b14c0ed61461009f575b600080fd5b61005861005336600461050d565b6100c8565b6040516100969190815161ffff9081168252602080840151821690830152604080840151821690830152606092830151169181019190915260800190565b60405180910390f35b6100b26100ad366004610526565b61032a565b60405164ffffffffff9091168152602001610096565b6040805160808101825260008082526020820181905291810182905260608101829052906100f96201518084610580565b9050600080828161010d8262010bd9610594565b61011a9062253d8c610594565b9050600062023ab161012d8360046105d4565b610137919061065b565b905060046101488262023ab16105d4565b610153906003610594565b61015d919061065b565b6101679083610689565b9150600062164b0961017a846001610594565b61018690610fa06105d4565b610190919061065b565b905060046101a0826105b56105d4565b6101aa919061065b565b6101b49084610689565b6101bf90601f610594565b9250600061098f6101d18560506105d4565b6101db919061065b565b9050600060506101ed8361098f6105d4565b6101f7919061065b565b6102019086610689565b905061020e600b8361065b565b945061021b85600c6105d4565b610226836002610594565b6102309190610689565b9150848361023f603187610689565b61024a9060646105d4565b6102549190610594565b61025e9190610594565b909750915086828282600060015b8381116102b957838114156102905761028961ffff8e16836106c8565b91506102a7565b61029a858561033f565b6102a490836106c8565b91505b806102b1816106e0565b91505061026c565b50809a506102cb8b61ffff16856103c5565b61ffff1660408f01526102dd8f610493565b8e6020019061ffff16908161ffff16815250508b8e6000019061ffff16908161ffff16815250508a8e6060019061ffff16908161ffff168152505050505050505050505050505050919050565b600061033962015180836106fb565b92915050565b600081600114806103505750816003145b8061035b5750816005145b806103665750816007145b806103715750816008145b8061037c575081600a145b80610387575081600c145b156103945750601f610339565b816002146103a45750601e610339565b6103ad836104d1565b6103b857601c6103bb565b601d5b60ff169392505050565b6000806103d1836104d1565b156103de575060016103e2565b5060005b6103ed81605a6106c8565b84116103fb5783915061048c565b8361040782605a6106c8565b10801561041e575061041a8160b56106c8565b8411155b1561043f5761042e81605a6106c8565b610438908561071f565b915061048c565b8361044b8260b56106c8565b108015610463575061045f816101116106c8565b8411155b156104735761042e8160b56106c8565b61047f816101116106c8565b610489908561071f565b91505b5092915050565b6000806104a36201518084610580565b9050600060076104b48360036106c8565b6104be9190610736565b6104c99060016106c8565b949350505050565b60006104de600483610736565b1580156104f457506104f1606483610736565b15155b80610339575061050661019083610736565b1592915050565b60006020828403121561051f57600080fd5b5035919050565b60006020828403121561053857600080fd5b813564ffffffffff8116811461054d57600080fd5b9392505050565b634e487b7160e01b600052601260045260246000fd5b634e487b7160e01b600052601160045260246000fd5b60008261058f5761058f610554565b500490565b6000808212826001600160ff1b03038413811516156105b5576105b561056a565b600160ff1b83900384128116156105ce576105ce61056a565b50500190565b60006001600160ff1b036000841360008413858304851182821616156105fc576105fc61056a565b600160ff1b600087128281168783058912161561061b5761061b61056a565b600087129250878205871284841616156106375761063761056a565b8785058712818416161561064d5761064d61056a565b505050929093029392505050565b60008261066a5761066a610554565b600160ff1b8214600019841416156106845761068461056a565b500590565b60008083128015600160ff1b8501841216156106a7576106a761056a565b836001600160ff1b030183138116156106c2576106c261056a565b50500390565b600082198211156106db576106db61056a565b500190565b60006000198214156106f4576106f461056a565b5060010190565b600064ffffffffff8084168061071357610713610554565b92169190910492915050565b6000828210156107315761073161056a565b500390565b60008261074557610745610554565b50069056fea26469706673582212206595dcf2be1620469e054993453fb334a7d3b74699e425d9b820f785143c162464736f6c63430008090033","opcodes":"PUSH2 0x780 PUSH2 0x3A PUSH1 0xB DUP3 DUP3 DUP3 CODECOPY DUP1 MLOAD PUSH1 0x0 BYTE PUSH1 0x73 EQ PUSH2 0x2D JUMPI PUSH4 0x4E487B71 PUSH1 0xE0 SHL PUSH1 0x0 MSTORE PUSH1 0x0 PUSH1 0x4 MSTORE PUSH1 0x24 PUSH1 0x0 REVERT JUMPDEST ADDRESS PUSH1 0x0 MSTORE PUSH1 0x73 DUP2 MSTORE8 DUP3 DUP2 RETURN INVALID PUSH20 0x0 ADDRESS EQ PUSH1 0x80 PUSH1 0x40 MSTORE PUSH1 0x4 CALLDATASIZE LT PUSH2 0x40 JUMPI PUSH1 0x0 CALLDATALOAD PUSH1 0xE0 SHR DUP1 PUSH4 0x53A6D6E2 EQ PUSH2 0x45 JUMPI DUP1 PUSH4 0xB14C0ED6 EQ PUSH2 0x9F JUMPI JUMPDEST PUSH1 0x0 DUP1 REVERT JUMPDEST PUSH2 0x58 PUSH2 0x53 CALLDATASIZE PUSH1 0x4 PUSH2 0x50D JUMP JUMPDEST PUSH2 0xC8 JUMP JUMPDEST PUSH1 0x40 MLOAD PUSH2 0x96 SWAP2 SWAP1 DUP2 MLOAD PUSH2 0xFFFF SWAP1 DUP2 AND DUP3 MSTORE PUSH1 0x20 DUP1 DUP5 ADD MLOAD DUP3 AND SWAP1 DUP4 ADD MSTORE PUSH1 0x40 DUP1 DUP5 ADD MLOAD DUP3 AND SWAP1 DUP4 ADD MSTORE PUSH1 0x60 SWAP3 DUP4 ADD MLOAD AND SWAP2 DUP2 ADD SWAP2 SWAP1 SWAP2 MSTORE PUSH1 0x80 ADD SWAP1 JUMP JUMPDEST PUSH1 0x40 MLOAD DUP1 SWAP2 SUB SWAP1 RETURN JUMPDEST PUSH2 0xB2 PUSH2 0xAD CALLDATASIZE PUSH1 0x4 PUSH2 0x526 JUMP JUMPDEST PUSH2 0x32A JUMP JUMPDEST PUSH1 0x40 MLOAD PUSH5 0xFFFFFFFFFF SWAP1 SWAP2 AND DUP2 MSTORE PUSH1 0x20 ADD PUSH2 0x96 JUMP JUMPDEST PUSH1 0x40 DUP1 MLOAD PUSH1 0x80 DUP2 ADD DUP3 MSTORE PUSH1 0x0 DUP1 DUP3 MSTORE PUSH1 0x20 DUP3 ADD DUP2 SWAP1 MSTORE SWAP2 DUP2 ADD DUP3 SWAP1 MSTORE PUSH1 0x60 DUP2 ADD DUP3 SWAP1 MSTORE SWAP1 PUSH2 0xF9 PUSH3 0x15180 DUP5 PUSH2 0x580 JUMP JUMPDEST SWAP1 POP PUSH1 0x0 DUP1 DUP3 DUP2 PUSH2 0x10D DUP3 PUSH3 0x10BD9 PUSH2 0x594 JUMP JUMPDEST PUSH2 0x11A SWAP1 PUSH3 0x253D8C PUSH2 0x594 JUMP JUMPDEST SWAP1 POP PUSH1 0x0 PUSH3 0x23AB1 PUSH2 0x12D DUP4 PUSH1 0x4 PUSH2 0x5D4 JUMP JUMPDEST PUSH2 0x137 SWAP2 SWAP1 PUSH2 0x65B JUMP JUMPDEST SWAP1 POP PUSH1 0x4 PUSH2 0x148 DUP3 PUSH3 0x23AB1 PUSH2 0x5D4 JUMP JUMPDEST PUSH2 0x153 SWAP1 PUSH1 0x3 PUSH2 0x594 JUMP JUMPDEST PUSH2 0x15D SWAP2 SWAP1 PUSH2 0x65B JUMP JUMPDEST PUSH2 0x167 SWAP1 DUP4 PUSH2 0x689 JUMP JUMPDEST SWAP2 POP PUSH1 0x0 PUSH3 0x164B09 PUSH2 0x17A DUP5 PUSH1 0x1 PUSH2 0x594 JUMP JUMPDEST PUSH2 0x186 SWAP1 PUSH2 0xFA0 PUSH2 0x5D4 JUMP JUMPDEST PUSH2 0x190 SWAP2 SWAP1 PUSH2 0x65B JUMP JUMPDEST SWAP1 POP PUSH1 0x4 PUSH2 0x1A0 DUP3 PUSH2 0x5B5 PUSH2 0x5D4 JUMP JUMPDEST PUSH2 0x1AA SWAP2 SWAP1 PUSH2 0x65B JUMP JUMPDEST PUSH2 0x1B4 SWAP1 DUP5 PUSH2 0x689 JUMP JUMPDEST PUSH2 0x1BF SWAP1 PUSH1 0x1F PUSH2 0x594 JUMP JUMPDEST SWAP3 POP PUSH1 0x0 PUSH2 0x98F PUSH2 0x1D1 DUP6 PUSH1 0x50 PUSH2 0x5D4 JUMP JUMPDEST PUSH2 0x1DB SWAP2 SWAP1 PUSH2 0x65B JUMP JUMPDEST SWAP1 POP PUSH1 0x0 PUSH1 0x50 PUSH2 0x1ED DUP4 PUSH2 0x98F PUSH2 0x5D4 JUMP JUMPDEST PUSH2 0x1F7 SWAP2 SWAP1 PUSH2 0x65B JUMP JUMPDEST PUSH2 0x201 SWAP1 DUP7 PUSH2 0x689 JUMP JUMPDEST SWAP1 POP PUSH2 0x20E PUSH1 0xB DUP4 PUSH2 0x65B JUMP JUMPDEST SWAP5 POP PUSH2 0x21B DUP6 PUSH1 0xC PUSH2 0x5D4 JUMP JUMPDEST PUSH2 0x226 DUP4 PUSH1 0x2 PUSH2 0x594 JUMP JUMPDEST PUSH2 0x230 SWAP2 SWAP1 PUSH2 0x689 JUMP JUMPDEST SWAP2 POP DUP5 DUP4 PUSH2 0x23F PUSH1 0x31 DUP8 PUSH2 0x689 JUMP JUMPDEST PUSH2 0x24A SWAP1 PUSH1 0x64 PUSH2 0x5D4 JUMP JUMPDEST PUSH2 0x254 SWAP2 SWAP1 PUSH2 0x594 JUMP JUMPDEST PUSH2 0x25E SWAP2 SWAP1 PUSH2 0x594 JUMP JUMPDEST SWAP1 SWAP8 POP SWAP2 POP DUP7 DUP3 DUP3 DUP3 PUSH1 0x0 PUSH1 0x1 JUMPDEST DUP4 DUP2 GT PUSH2 0x2B9 JUMPI DUP4 DUP2 EQ ISZERO PUSH2 0x290 JUMPI PUSH2 0x289 PUSH2 0xFFFF DUP15 AND DUP4 PUSH2 0x6C8 JUMP JUMPDEST SWAP2 POP PUSH2 0x2A7 JUMP JUMPDEST PUSH2 0x29A DUP6 DUP6 PUSH2 0x33F JUMP JUMPDEST PUSH2 0x2A4 SWAP1 DUP4 PUSH2 0x6C8 JUMP JUMPDEST SWAP2 POP JUMPDEST DUP1 PUSH2 0x2B1 DUP2 PUSH2 0x6E0 JUMP JUMPDEST SWAP2 POP POP PUSH2 0x26C JUMP JUMPDEST POP DUP1 SWAP11 POP PUSH2 0x2CB DUP12 PUSH2 0xFFFF AND DUP6 PUSH2 0x3C5 JUMP JUMPDEST PUSH2 0xFFFF AND PUSH1 0x40 DUP16 ADD MSTORE PUSH2 0x2DD DUP16 PUSH2 0x493 JUMP JUMPDEST DUP15 PUSH1 0x20 ADD SWAP1 PUSH2 0xFFFF AND SWAP1 DUP2 PUSH2 0xFFFF AND DUP2 MSTORE POP POP DUP12 DUP15 PUSH1 0x0 ADD SWAP1 PUSH2 0xFFFF AND SWAP1 DUP2 PUSH2 0xFFFF AND DUP2 MSTORE POP POP DUP11 DUP15 PUSH1 0x60 ADD SWAP1 PUSH2 0xFFFF AND SWAP1 DUP2 PUSH2 0xFFFF AND DUP2 MSTORE POP POP POP POP POP POP POP POP POP POP POP POP POP POP POP SWAP2 SWAP1 POP JUMP JUMPDEST PUSH1 0x0 PUSH2 0x339 PUSH3 0x15180 DUP4 PUSH2 0x6FB JUMP JUMPDEST SWAP3 SWAP2 POP POP JUMP JUMPDEST PUSH1 0x0 DUP2 PUSH1 0x1 EQ DUP1 PUSH2 0x350 JUMPI POP DUP2 PUSH1 0x3 EQ JUMPDEST DUP1 PUSH2 0x35B JUMPI POP DUP2 PUSH1 0x5 EQ JUMPDEST DUP1 PUSH2 0x366 JUMPI POP DUP2 PUSH1 0x7 EQ JUMPDEST DUP1 PUSH2 0x371 JUMPI POP DUP2 PUSH1 0x8 EQ JUMPDEST DUP1 PUSH2 0x37C JUMPI POP DUP2 PUSH1 0xA EQ JUMPDEST DUP1 PUSH2 0x387 JUMPI POP DUP2 PUSH1 0xC EQ JUMPDEST ISZERO PUSH2 0x394 JUMPI POP PUSH1 0x1F PUSH2 0x339 JUMP JUMPDEST DUP2 PUSH1 0x2 EQ PUSH2 0x3A4 JUMPI POP PUSH1 0x1E PUSH2 0x339 JUMP JUMPDEST PUSH2 0x3AD DUP4 PUSH2 0x4D1 JUMP JUMPDEST PUSH2 0x3B8 JUMPI PUSH1 0x1C PUSH2 0x3BB JUMP JUMPDEST PUSH1 0x1D JUMPDEST PUSH1 0xFF AND SWAP4 SWAP3 POP POP POP JUMP JUMPDEST PUSH1 0x0 DUP1 PUSH2 0x3D1 DUP4 PUSH2 0x4D1 JUMP JUMPDEST ISZERO PUSH2 0x3DE JUMPI POP PUSH1 0x1 PUSH2 0x3E2 JUMP JUMPDEST POP PUSH1 0x0 JUMPDEST PUSH2 0x3ED DUP2 PUSH1 0x5A PUSH2 0x6C8 JUMP JUMPDEST DUP5 GT PUSH2 0x3FB JUMPI DUP4 SWAP2 POP PUSH2 0x48C JUMP JUMPDEST DUP4 PUSH2 0x407 DUP3 PUSH1 0x5A PUSH2 0x6C8 JUMP JUMPDEST LT DUP1 ISZERO PUSH2 0x41E JUMPI POP PUSH2 0x41A DUP2 PUSH1 0xB5 PUSH2 0x6C8 JUMP JUMPDEST DUP5 GT ISZERO JUMPDEST ISZERO PUSH2 0x43F JUMPI PUSH2 0x42E DUP2 PUSH1 0x5A PUSH2 0x6C8 JUMP JUMPDEST PUSH2 0x438 SWAP1 DUP6 PUSH2 0x71F JUMP JUMPDEST SWAP2 POP PUSH2 0x48C JUMP JUMPDEST DUP4 PUSH2 0x44B DUP3 PUSH1 0xB5 PUSH2 0x6C8 JUMP JUMPDEST LT DUP1 ISZERO PUSH2 0x463 JUMPI POP PUSH2 0x45F DUP2 PUSH2 0x111 PUSH2 0x6C8 JUMP JUMPDEST DUP5 GT ISZERO JUMPDEST ISZERO PUSH2 0x473 JUMPI PUSH2 0x42E DUP2 PUSH1 0xB5 PUSH2 0x6C8 JUMP JUMPDEST PUSH2 0x47F DUP2 PUSH2 0x111 PUSH2 0x6C8 JUMP JUMPDEST PUSH2 0x489 SWAP1 DUP6 PUSH2 0x71F JUMP JUMPDEST SWAP2 POP JUMPDEST POP SWAP3 SWAP2 POP POP JUMP JUMPDEST PUSH1 0x0 DUP1 PUSH2 0x4A3 PUSH3 0x15180 DUP5 PUSH2 0x580 JUMP JUMPDEST SWAP1 POP PUSH1 0x0 PUSH1 0x7 PUSH2 0x4B4 DUP4 PUSH1 0x3 PUSH2 0x6C8 JUMP JUMPDEST PUSH2 0x4BE SWAP2 SWAP1 PUSH2 0x736 JUMP JUMPDEST PUSH2 0x4C9 SWAP1 PUSH1 0x1 PUSH2 0x6C8 JUMP JUMPDEST SWAP5 SWAP4 POP POP POP POP JUMP JUMPDEST PUSH1 0x0 PUSH2 0x4DE PUSH1 0x4 DUP4 PUSH2 0x736 JUMP JUMPDEST ISZERO DUP1 ISZERO PUSH2 0x4F4 JUMPI POP PUSH2 0x4F1 PUSH1 0x64 DUP4 PUSH2 0x736 JUMP JUMPDEST ISZERO ISZERO JUMPDEST DUP1 PUSH2 0x339 JUMPI POP PUSH2 0x506 PUSH2 0x190 DUP4 PUSH2 0x736 JUMP JUMPDEST ISZERO SWAP3 SWAP2 POP POP JUMP JUMPDEST PUSH1 0x0 PUSH1 0x20 DUP3 DUP5 SUB SLT ISZERO PUSH2 0x51F JUMPI PUSH1 0x0 DUP1 REVERT JUMPDEST POP CALLDATALOAD SWAP2 SWAP1 POP JUMP JUMPDEST PUSH1 0x0 PUSH1 0x20 DUP3 DUP5 SUB SLT ISZERO PUSH2 0x538 JUMPI PUSH1 0x0 DUP1 REVERT JUMPDEST DUP2 CALLDATALOAD PUSH5 0xFFFFFFFFFF DUP2 AND DUP2 EQ PUSH2 0x54D JUMPI PUSH1 0x0 DUP1 REVERT JUMPDEST SWAP4 SWAP3 POP POP POP JUMP JUMPDEST PUSH4 0x4E487B71 PUSH1 0xE0 SHL PUSH1 0x0 MSTORE PUSH1 0x12 PUSH1 0x4 MSTORE PUSH1 0x24 PUSH1 0x0 REVERT JUMPDEST PUSH4 0x4E487B71 PUSH1 0xE0 SHL PUSH1 0x0 MSTORE PUSH1 0x11 PUSH1 0x4 MSTORE PUSH1 0x24 PUSH1 0x0 REVERT JUMPDEST PUSH1 0x0 DUP3 PUSH2 0x58F JUMPI PUSH2 0x58F PUSH2 0x554 JUMP JUMPDEST POP DIV SWAP1 JUMP JUMPDEST PUSH1 0x0 DUP1 DUP3 SLT DUP3 PUSH1 0x1 PUSH1 0x1 PUSH1 0xFF SHL SUB SUB DUP5 SGT DUP2 ISZERO AND ISZERO PUSH2 0x5B5 JUMPI PUSH2 0x5B5 PUSH2 0x56A JUMP JUMPDEST PUSH1 0x1 PUSH1 0xFF SHL DUP4 SWAP1 SUB DUP5 SLT DUP2 AND ISZERO PUSH2 0x5CE JUMPI PUSH2 0x5CE PUSH2 0x56A JUMP JUMPDEST POP POP ADD SWAP1 JUMP JUMPDEST PUSH1 0x0 PUSH1 0x1 PUSH1 0x1 PUSH1 0xFF SHL SUB PUSH1 0x0 DUP5 SGT PUSH1 0x0 DUP5 SGT DUP6 DUP4 DIV DUP6 GT DUP3 DUP3 AND AND ISZERO PUSH2 0x5FC JUMPI PUSH2 0x5FC PUSH2 0x56A JUMP JUMPDEST PUSH1 0x1 PUSH1 0xFF SHL PUSH1 0x0 DUP8 SLT DUP3 DUP2 AND DUP8 DUP4 SDIV DUP10 SLT AND ISZERO PUSH2 0x61B JUMPI PUSH2 0x61B PUSH2 0x56A JUMP JUMPDEST PUSH1 0x0 DUP8 SLT SWAP3 POP DUP8 DUP3 SDIV DUP8 SLT DUP5 DUP5 AND AND ISZERO PUSH2 0x637 JUMPI PUSH2 0x637 PUSH2 0x56A JUMP JUMPDEST DUP8 DUP6 SDIV DUP8 SLT DUP2 DUP5 AND AND ISZERO PUSH2 0x64D JUMPI PUSH2 0x64D PUSH2 0x56A JUMP JUMPDEST POP POP POP SWAP3 SWAP1 SWAP4 MUL SWAP4 SWAP3 POP POP POP JUMP JUMPDEST PUSH1 0x0 DUP3 PUSH2 0x66A JUMPI PUSH2 0x66A PUSH2 0x554 JUMP JUMPDEST PUSH1 0x1 PUSH1 0xFF SHL DUP3 EQ PUSH1 0x0 NOT DUP5 EQ AND ISZERO PUSH2 0x684 JUMPI PUSH2 0x684 PUSH2 0x56A JUMP JUMPDEST POP SDIV SWAP1 JUMP JUMPDEST PUSH1 0x0 DUP1 DUP4 SLT DUP1 ISZERO PUSH1 0x1 PUSH1 0xFF SHL DUP6 ADD DUP5 SLT AND ISZERO PUSH2 0x6A7 JUMPI PUSH2 0x6A7 PUSH2 0x56A JUMP JUMPDEST DUP4 PUSH1 0x1 PUSH1 0x1 PUSH1 0xFF SHL SUB ADD DUP4 SGT DUP2 AND ISZERO PUSH2 0x6C2 JUMPI PUSH2 0x6C2 PUSH2 0x56A JUMP JUMPDEST POP POP SUB SWAP1 JUMP JUMPDEST PUSH1 0x0 DUP3 NOT DUP3 GT ISZERO PUSH2 0x6DB JUMPI PUSH2 0x6DB PUSH2 0x56A JUMP JUMPDEST POP ADD SWAP1 JUMP JUMPDEST PUSH1 0x0 PUSH1 0x0 NOT DUP3 EQ ISZERO PUSH2 0x6F4 JUMPI PUSH2 0x6F4 PUSH2 0x56A JUMP JUMPDEST POP PUSH1 0x1 ADD SWAP1 JUMP JUMPDEST PUSH1 0x0 PUSH5 0xFFFFFFFFFF DUP1 DUP5 AND DUP1 PUSH2 0x713 JUMPI PUSH2 0x713 PUSH2 0x554 JUMP JUMPDEST SWAP3 AND SWAP2 SWAP1 SWAP2 DIV SWAP3 SWAP2 POP POP JUMP JUMPDEST PUSH1 0x0 DUP3 DUP3 LT ISZERO PUSH2 0x731 JUMPI PUSH2 0x731 PUSH2 0x56A JUMP JUMPDEST POP SUB SWAP1 JUMP JUMPDEST PUSH1 0x0 DUP3 PUSH2 0x745 JUMPI PUSH2 0x745 PUSH2 0x554 JUMP JUMPDEST POP MOD SWAP1 JUMP INVALID LOG2 PUSH5 0x6970667358 0x22 SLT KECCAK256 PUSH6 0x95DCF2BE1620 CHAINID SWAP15 SDIV 0x49 SWAP4 GASLIMIT EXTCODEHASH 0xB3 CALLVALUE 0xA7 0xD3 0xB7 CHAINID SWAP10 0xE4 0x25 0xD9 0xB8 KECCAK256 0xF7 DUP6 EQ EXTCODECOPY AND 0x24 PUSH5 0x736F6C6343 STOP ADDMOD MULMOD STOP CALLER "},"methodIdentifiers":{"unixToDays(uint40)":"b14c0ed6","unixToTime(uint256)":"53a6d6e2"}}}}}