{"contracts/Clocktower.sol":{"Clocktower":{"abi":[{"inputs":[],"stateMutability":"payable","type":"constructor"},{"stateMutability":"payable","type":"fallback"},{"inputs":[{"components":[{"internalType":"address payable","name":"receiver","type":"address"},{"internalType":"uint40","name":"unixTime","type":"uint40"},{"internalType":"uint256","name":"payload","type":"uint256"},{"internalType":"address","name":"token","type":"address"}],"internalType":"struct Clocktower.Batch[]","name":"batch","type":"tuple[]"}],"name":"addBatchTransactions","outputs":[],"stateMutability":"payable","type":"function"},{"inputs":[{"internalType":"address","name":"erc20Contract","type":"address"}],"name":"addERC20Contract","outputs":[],"stateMutability":"nonpayable","type":"function"},{"inputs":[{"internalType":"address payable","name":"receiver","type":"address"},{"internalType":"uint40","name":"unixTime","type":"uint40"},{"internalType":"uint256","name":"payload","type":"uint256"},{"internalType":"address","name":"token","type":"address"}],"name":"addTransaction","outputs":[],"stateMutability":"payable","type":"function"},{"inputs":[],"name":"allAccounts","outputs":[{"components":[{"internalType":"address","name":"accountAddress","type":"address"},{"internalType":"bool","name":"exists","type":"bool"},{"internalType":"uint40[]","name":"timeTriggers","type":"uint40[]"},{"components":[{"internalType":"bytes32","name":"id","type":"bytes32"},{"internalType":"uint16","name":"dueDay","type":"uint16"},{"internalType":"enum Clocktower.SubType","name":"subType","type":"uint8"}],"internalType":"struct Clocktower.SubIndex[]","name":"subscriptions","type":"tuple[]"}],"internalType":"struct Clocktower.Account[]","name":"","type":"tuple[]"}],"stateMutability":"view","type":"function"},{"inputs":[],"name":"allTransactions","outputs":[{"components":[{"internalType":"bytes32","name":"id","type":"bytes32"},{"internalType":"address","name":"sender","type":"address"},{"internalType":"address payable","name":"receiver","type":"address"},{"internalType":"address","name":"token","type":"address"},{"internalType":"uint40","name":"timeTrigger","type":"uint40"},{"internalType":"enum Clocktower.Status","name":"status","type":"uint8"},{"internalType":"uint256","name":"payload","type":"uint256"}],"internalType":"struct Clocktower.Transaction[]","name":"","type":"tuple[]"}],"stateMutability":"view","type":"function"},{"inputs":[{"components":[{"internalType":"bytes32","name":"id","type":"bytes32"},{"internalType":"uint256","name":"amount","type":"uint256"},{"internalType":"address","name":"owner","type":"address"},{"internalType":"bool","name":"exists","type":"bool"},{"internalType":"bool","name":"cancelled","type":"bool"},{"internalType":"address","name":"token","type":"address"},{"internalType":"enum Clocktower.SubType","name":"subType","type":"uint8"},{"internalType":"uint16","name":"dueDay","type":"uint16"},{"internalType":"string","name":"description","type":"string"}],"internalType":"struct Clocktower.Subscription","name":"subscription","type":"tuple"}],"name":"cancelSubscription","outputs":[],"stateMutability":"nonpayable","type":"function"},{"inputs":[{"internalType":"bytes32","name":"id","type":"bytes32"},{"internalType":"uint40","name":"unixTrigger","type":"uint40"},{"internalType":"address","name":"token","type":"address"}],"name":"cancelTransaction","outputs":[],"stateMutability":"payable","type":"function"},{"inputs":[{"internalType":"address","name":"newAddress","type":"address"}],"name":"changeAdmin","outputs":[],"stateMutability":"nonpayable","type":"function"},{"inputs":[{"internalType":"uint256","name":"_fee","type":"uint256"}],"name":"changeFee","outputs":[],"stateMutability":"nonpayable","type":"function"},{"inputs":[{"internalType":"uint256","name":"_fixed_fee","type":"uint256"}],"name":"changeFixedFee","outputs":[],"stateMutability":"nonpayable","type":"function"},{"inputs":[],"name":"chargeSubs","outputs":[],"stateMutability":"view","type":"function"},{"inputs":[],"name":"checkTime","outputs":[{"internalType":"bool","name":"","type":"bool"}],"stateMutability":"view","type":"function"},{"inputs":[{"internalType":"uint256","name":"amount","type":"uint256"},{"internalType":"address","name":"token","type":"address"},{"internalType":"string","name":"description","type":"string"},{"internalType":"enum Clocktower.SubType","name":"subtype","type":"uint8"},{"internalType":"uint16","name":"dueDay","type":"uint16"}],"name":"createSubscription","outputs":[],"stateMutability":"payable","type":"function"},{"inputs":[],"name":"getAccountSubscriptions","outputs":[{"components":[{"internalType":"bytes32","name":"id","type":"bytes32"},{"internalType":"uint256","name":"amount","type":"uint256"},{"internalType":"address","name":"owner","type":"address"},{"internalType":"bool","name":"exists","type":"bool"},{"internalType":"bool","name":"cancelled","type":"bool"},{"internalType":"address","name":"token","type":"address"},{"internalType":"enum Clocktower.SubType","name":"subType","type":"uint8"},{"internalType":"uint16","name":"dueDay","type":"uint16"},{"internalType":"string","name":"description","type":"string"}],"internalType":"struct Clocktower.Subscription[]","name":"","type":"tuple[]"}],"stateMutability":"view","type":"function"},{"inputs":[],"name":"getAccountTransactions","outputs":[{"components":[{"internalType":"bytes32","name":"id","type":"bytes32"},{"internalType":"address","name":"sender","type":"address"},{"internalType":"address payable","name":"receiver","type":"address"},{"internalType":"address","name":"token","type":"address"},{"internalType":"uint40","name":"timeTrigger","type":"uint40"},{"internalType":"enum Clocktower.Status","name":"status","type":"uint8"},{"internalType":"uint256","name":"payload","type":"uint256"}],"internalType":"struct Clocktower.Transaction[]","name":"","type":"tuple[]"}],"stateMutability":"view","type":"function"},{"inputs":[],"name":"getFee","outputs":[{"internalType":"uint256","name":"","type":"uint256"}],"stateMutability":"view","type":"function"},{"inputs":[{"internalType":"address","name":"token","type":"address"}],"name":"getTotalClaims","outputs":[{"internalType":"uint256","name":"","type":"uint256"}],"stateMutability":"view","type":"function"},{"inputs":[{"internalType":"address","name":"account","type":"address"}],"name":"getTransactionsByAccount","outputs":[{"components":[{"internalType":"bytes32","name":"id","type":"bytes32"},{"internalType":"address","name":"sender","type":"address"},{"internalType":"address payable","name":"receiver","type":"address"},{"internalType":"address","name":"token","type":"address"},{"internalType":"uint40","name":"timeTrigger","type":"uint40"},{"internalType":"enum Clocktower.Status","name":"status","type":"uint8"},{"internalType":"uint256","name":"payload","type":"uint256"}],"internalType":"struct Clocktower.Transaction[]","name":"","type":"tuple[]"}],"stateMutability":"view","type":"function"},{"inputs":[{"internalType":"address","name":"erc20Contract","type":"address"}],"name":"removeERC20Contract","outputs":[],"stateMutability":"nonpayable","type":"function"},{"inputs":[],"name":"sendTime","outputs":[],"stateMutability":"nonpayable","type":"function"},{"inputs":[{"components":[{"internalType":"bytes32","name":"id","type":"bytes32"},{"internalType":"uint256","name":"amount","type":"uint256"},{"internalType":"address","name":"owner","type":"address"},{"internalType":"bool","name":"exists","type":"bool"},{"internalType":"bool","name":"cancelled","type":"bool"},{"internalType":"address","name":"token","type":"address"},{"internalType":"enum Clocktower.SubType","name":"subType","type":"uint8"},{"internalType":"uint16","name":"dueDay","type":"uint16"},{"internalType":"string","name":"description","type":"string"}],"internalType":"struct Clocktower.Subscription","name":"subscription","type":"tuple"}],"name":"subscribe","outputs":[],"stateMutability":"payable","type":"function"},{"inputs":[],"name":"toggleContractActive","outputs":[],"stateMutability":"nonpayable","type":"function"},{"inputs":[{"internalType":"bytes32","name":"id","type":"bytes32"}],"name":"unsubscribe","outputs":[],"stateMutability":"payable","type":"function"},{"stateMutability":"payable","type":"receive"}],"evm":{"bytecode":{"linkReferences":{"contracts/ClockTowerLibrary.sol":{"ClockTowerLibrary":[{"length":20,"start":10870},{"length":20,"start":12512},{"length":20,"start":14211}]}},"object":"6080604052600080546001600160a01b03191673f39fd6e51aad88f6f4ce6ab8827279cfffb9226617905560646001908155662386f26fc10000600255600e805460ff19169055620000514262000085565b6200005d91906200009b565b600e60016101000a81548164ffffffffff021916908364ffffffffff16021790555062000103565b600062000095610e1083620000d0565b92915050565b600064ffffffffff83811690831681811015620000c857634e487b7160e01b600052601160045260246000fd5b039392505050565b600064ffffffffff80841680620000f757634e487b7160e01b600052601260045260246000fd5b92169190910492915050565b615a9380620001136000396000f3fe6080604052600436106101385760003560e01c80638f283970116100b0578063d10fa1441161006c578063d10fa1441461033d578063dc70008914610350578063dc9961eb14610365578063de005f7c14610385578063e0c6190d146103a5578063f8c60146146103ca57005b80638f2839701461029c578063aa58a5b0146102bc578063ab7e0909146102d1578063c682cce4146102f1578063ced72f8714610306578063cf783d8a1461031b57005b80632c04c453116100ff5780632c04c453146102015780633084f79e146102145780636a1db1bf146102275780637ce1ef391461024757806380423444146102695780638e83ac4a1461027c57005b8063053149fa146101415780631385d24c1461016157806313b51234146101765780631ccb3371146101cc5780632a2b3690146101ee57005b3661013f57005b005b34801561014d57600080fd5b5061013f61015c3660046150c6565b6103dd565b34801561016d57600080fd5b5061013f6105c5565b34801561018257600080fd5b506101b96101913660046150c6565b336000908152600b602090815260408083206001600160a01b03949094168352929052205490565b6040519081526020015b60405180910390f35b3480156101d857600080fd5b506101e16105e1565b6040516101c391906150f9565b61013f6101fc3660046151b7565b610707565b61013f61020f3660046151f7565b610975565b61013f610222366004615251565b610a86565b34801561023357600080fd5b5061013f610242366004615303565b610f19565b34801561025357600080fd5b5061025c610f26565b6040516101c39190615388565b61013f610277366004615468565b611097565b34801561028857600080fd5b5061013f610297366004615303565b6113a3565b3480156102a857600080fd5b5061013f6102b73660046150c6565b6113b0565b3480156102c857600080fd5b5061013f611403565b3480156102dd57600080fd5b5061013f6102ec3660046150c6565b6115d6565b3480156102fd57600080fd5b506101e161167d565b34801561031257600080fd5b506001546101b9565b34801561032757600080fd5b50610330611b5f565b6040516101c3919061551a565b61013f61034b366004615660565b611dae565b34801561035c57600080fd5b5061013f612941565b34801561037157600080fd5b506101e16103803660046150c6565b6129cf565b34801561039157600080fd5b5061013f6103a03660046151f7565b612eb7565b3480156103b157600080fd5b506103ba613557565b60405190151581526020016101c3565b61013f6103d8366004615303565b61361a565b6103e56136b9565b6001600160a01b0381166103f857600080fd5b610401816136f9565b6104365760405162461bcd60e51b81526020600482015260016024820152601960f91b60448201526064015b60405180910390fd5b6000600d80548060200260200160405190810160405280929190818152602001828054801561048e57602002820191906000526020600020905b81546001600160a01b03168152600190910190602001808311610470575b505050505090506000805b82518110156104ef57836001600160a01b03168382815181106104be576104be61575a565b60200260200101516001600160a01b031614156104dd578091506104ef565b806104e781615786565b915050610499565b50805b600d54610501906001906157a1565b81101561058c57600d6105158260016157b8565b815481106105255761052561575a565b600091825260209091200154600d80546001600160a01b0390921691839081106105515761055161575a565b600091825260209091200180546001600160a01b0319166001600160a01b03929092169190911790558061058481615786565b9150506104f2565b50600d80548061059e5761059e6157d0565b600082815260209020810160001990810180546001600160a01b0319169055019055505050565b6105cd6136b9565b600e805460ff19811660ff90911615179055565b60606105eb6136b9565b6006546000906001600160401b03811115610608576106086155f2565b60405190808252806020026020018201604052801561064157816020015b61062e614f00565b8152602001906001900390816106265790505b5090506000805b6004548110156106ff5760006106846004838154811061066a5761066a61575a565b6000918252602090912001546001600160a01b03166129cf565b905060005b81518110156106ea578181815181106106a4576106a461575a565b60200260200101518585815181106106be576106be61575a565b602002602001018190525083806106d490615786565b94505080806106e290615786565b915050610689565b505080806106f790615786565b915050610648565b509091505090565b61070f6137ba565b600061071a836137eb565b64ffffffffff8116600090815260056020908152604080832080548251818502810185019093528083529495509293909291849084015b828210156108105760008481526020908190206040805160e081018252600586029092018054835260018101546001600160a01b039081169484019490945260028101548416918301919091526003808201549384166060840152600160a01b840464ffffffffff1660808401529192909160a0840191600160c81b900460ff16908111156107e2576107e26150e3565b60038111156107f3576107f36150e3565b815260200160048201548152505081526020019060010190610751565b50505050905061081e614f00565b60005b8251811015610882578683828151811061083d5761083d61575a565b6020026020010151600001511415610870578281815181106108615761086161575a565b60200260200101519150610882565b8061087a81615786565b915050610821565b50610895816000015182608001516137ff565b6001600160a01b038416156108e75760c0810151336000908152600b602090815260408083206001600160a01b0389168452909152812080549091906108dc9084906157a1565b9091555061096d9050565b60c0810151336000908152600b602090815260408083206001600160a01b03891684529091528120805490919061091f9084906157a1565b909155505060c0810151471161093457600080fd5b80602001516001600160a01b03166108fc8260c001519081150290604051600060405180830381858888f1935050505061096d57600080fd5b505050505050565b61097d6137ba565b34600254111561099f5760405162461bcd60e51b815260040161042d906157e6565b6109ca81356109b5610100840160e08501615801565b6109c560e0850160c0860161581e565b613b97565b6109fa5760405162461bcd60e51b81526020600482015260016024820152603760f81b604482015260640161042d565b8035600081815260096020908152604080832080546001810182559084529282902090920180546001600160a01b03191633179055815160608101909252918152610a83918101610a52610100850160e08601615801565b61ffff168152602001610a6b60e0850160c0860161581e565b6001811115610a7c57610a7c6150e3565b9052613bfb565b50565b610a8e6137ba565b6001600160a01b038516610ac85760405162461bcd60e51b81526020600482015260016024820152600760fb1b604482015260640161042d565b346002541115610aea5760405162461bcd60e51b815260040161042d906157e6565b610af3856136f9565b610b0f5760405162461bcd60e51b815260040161042d90615839565b60008611610b445760405162461bcd60e51b8152602060048201526002602482015261031360f41b604482015260640161042d565b6000610b8b878787878080601f016020809104026020016040519081016040528093929190818152602001838380828437600092019190915250899250889150613d069050565b90506000836001811115610ba157610ba16150e3565b1415610d30578161ffff166000108015610bc05750601c8261ffff1611155b610c1e5760405162461bcd60e51b815260206004820152602960248201527f4d6f6e74686c79206475652064617465206d757374206265206265747765656e6044820152680406240c2dcc84064760bb1b606482015260840161042d565b61ffff821660009081526007602090815260408083208054600181810183559185529383902085516005909502019384559184015183830155830151600283018054606086015160808701511515600160a81b0260ff60a81b19911515600160a01b9081026001600160a81b03199485166001600160a01b039788161717929092161790925560a0860151600386018054919094166001600160a01b031982168117855560c08801518897969095949290931617918490811115610ce457610ce46150e3565b021790555060e082015160038201805461ffff909216600160a81b0261ffff60a81b199092169190911790556101008201518051610d2c916004840191602090910190614f3d565b5050505b6001836001811115610d4457610d446150e3565b1415610ed4578161ffff166000108015610d64575061016d8261ffff1611155b610dc25760405162461bcd60e51b815260206004820152602960248201527f596561726c79206475652064617465206d757374206265206265747765656e206044820152683120616e642033363560b81b606482015260840161042d565b61ffff821660009081526008602090815260408083208054600181810183559185529383902085516005909502019384559184015183830155830151600283018054606086015160808701511515600160a81b0260ff60a81b19911515600160a01b9081026001600160a81b03199485166001600160a01b039788161717929092161790925560a0860151600386018054919094166001600160a01b031982168117855560c08801518897969095949290931617918490811115610e8857610e886150e3565b021790555060e082015160038201805461ffff909216600160a81b0261ffff60a81b199092169190911790556101008201518051610ed0916004840191602090910190614f3d565b5050505b610f106040518060600160405280836000015181526020018360e0015161ffff1681526020018360c001516001811115610a7c57610a7c6150e3565b50505050505050565b610f216136b9565b600155565b336000908152600360209081526040808320600201805482518185028101850190935280835260609493849084015b82821015610fd557600084815260209081902060408051606081018252600286029092018054835260018082015461ffff81169585019590955292939092918401916201000090910460ff1690811115610fb157610fb16150e3565b6001811115610fc257610fc26150e3565b8152505081526020019060010190610f55565b505050509050600081516001600160401b03811115610ff657610ff66155f2565b60405190808252806020026020018201604052801561102f57816020015b61101c614fc1565b8152602001906001900390816110145790505b50905060005b8251811015611090576110608382815181106110535761105361575a565b6020026020010151613dba565b8282815181106110725761107261575a565b6020026020010181905250808061108890615786565b915050611035565b5092915050565b600e5460ff1661139d576110a96137ba565b6110b28361420d565b6001600160a01b0381166110fe57346064600154846110d19190615854565b6110db9190615889565b11156110f95760405162461bcd60e51b815260040161042d906157e6565b611226565b3460025411156111205760405162461bcd60e51b815260040161042d906157e6565b611129816136f9565b6111455760405162461bcd60e51b815260040161042d90615839565b336000908152600b602090815260408083206001600160a01b03851684529091529020546111749083906157b8565b604051636eb1769f60e11b81523360048201523060248201526001600160a01b0383169063dd62ed3e90604401602060405180830381600087803b1580156111bb57600080fd5b505af11580156111cf573d6000803e3d6000fd5b505050506040513d601f19601f820116820180604052508101906111f3919061589d565b10156112265760405162461bcd60e51b8152602060048201526002602482015261313360f01b604482015260640161042d565b6000611231846137eb565b90506000611242338785858861428b565b64ffffffffff8084166000908152600560208181526040808420805460018181018355918652948390208751959094029093019384559085015191830180546001600160a01b039384166001600160a01b03199182161790915590850151600284018054918416919092161790556060840151600380840180546080880151909616600160a01b026001600160c81b031990961692909316919091179390931780825560a08501519495508594929360ff60c81b1990911690600160c81b908490811115611312576113126150e3565b021790555060c091909101516004909101558051600680546001810182556000919091527ff652222313e28459528d920b65115c16c04f3efc82aaedc97be59f3f377c0d3f015561136282614359565b336000908152600b602090815260408083206001600160a01b0387168452909152812080548692906113959084906157b8565b909155505050505b50505050565b6113ab6136b9565b600255565b6113b86136b9565b336001600160a01b0382161480156113d857506001600160a01b03811615155b6113e157600080fd5b600080546001600160a01b0319166001600160a01b0392909216919091179055565b61140b6136b9565b6000611416426137eb565b600e5490915064ffffffffff61010090910481169082161161145f5760405162461bcd60e51b81526020600482015260026024820152610c4d60f21b604482015260640161042d565b600e54610100900464ffffffffff165b8164ffffffffff168164ffffffffff16116115b15764ffffffffff81166000908152600560205260409020541561159f5764ffffffffff81166000908152600560209081526040808320805482518185028101850190935280835261159f9492939192909184015b828210156115965760008481526020908190206040805160e081018252600586029092018054835260018101546001600160a01b039081169484019490945260028101548416918301919091526003808201549384166060840152600160a01b840464ffffffffff1660808401529192909160a0840191600160c81b900460ff1690811115611568576115686150e3565b6003811115611579576115796150e3565b8152602001600482015481525050815260200190600101906114d7565b5050505061450f565b806115a9816158b6565b91505061146f565b50600e805464ffffffffff9092166101000265ffffffffff0019909216919091179055565b6115de6136b9565b6001600160a01b0381166115f157600080fd5b6115fa816136f9565b1561162b5760405162461bcd60e51b81526020600482015260016024820152603160f81b604482015260640161042d565b600d80546001810182556000919091527fd7b6990105719101dabeb77144f2a3385c8033acd3af97e9423a695e81ad1eb50180546001600160a01b0319166001600160a01b0392909216919091179055565b33600090815260036020908152604080832060010180548251818502810185019093528083526060949383018282801561170457602002820191906000526020600020906000905b82829054906101000a900464ffffffffff1664ffffffffff16815260200190600501906020826004010492830192600103820291508084116116c55790505b505050505090506000805b825181101561185c576000600560008584815181106117305761173061575a565b602002602001015164ffffffffff1664ffffffffff168152602001908152602001600020805480602002602001604051908101604052809291908181526020016000905b828210156118335760008481526020908190206040805160e081018252600586029092018054835260018101546001600160a01b039081169484019490945260028101548416918301919091526003808201549384166060840152600160a01b840464ffffffffff1660808401529192909160a0840191600160c81b900460ff1690811115611805576118056150e3565b6003811115611816576118166150e3565b815260200160048201548152505081526020019060010190611774565b50505050905080518361184691906157b8565b925050808061185490615786565b91505061170f565b506000816001600160401b03811115611877576118776155f2565b6040519080825280602002602001820160405280156118b057816020015b61189d614f00565b8152602001906001900390816118955790505b5090506000826001600160401b038111156118cd576118cd6155f2565b60405190808252806020026020018201604052801561190657816020015b6118f3614f00565b8152602001906001900390816118eb5790505b5090506000805b8551811015611ae3576005600087838151811061192c5761192c61575a565b602002602001015164ffffffffff1664ffffffffff168152602001908152602001600020805480602002602001604051908101604052809291908181526020016000905b82821015611a2f5760008481526020908190206040805160e081018252600586029092018054835260018101546001600160a01b039081169484019490945260028101548416918301919091526003808201549384166060840152600160a01b840464ffffffffff1660808401529192909160a0840191600160c81b900460ff1690811115611a0157611a016150e3565b6003811115611a1257611a126150e3565b815260200160048201548152505081526020019060010190611970565b50505050935060005b8451811015611ad057336001600160a01b0316858281518110611a5d57611a5d61575a565b6020026020010151602001516001600160a01b03161415611abe57848181518110611a8a57611a8a61575a565b6020026020010151848481518110611aa457611aa461575a565b60200260200101819052508280611aba90615786565b9350505b80611ac881615786565b915050611a38565b5080611adb81615786565b91505061190d565b5060005b8251811015611b5457611b16838281518110611b0557611b0561575a565b602002602001015160800151614c65565b838281518110611b2857611b2861575a565b602090810291909101015164ffffffffff90911660809091015280611b4c81615786565b915050611ae7565b509095945050505050565b6060611b696136b9565b6004546000906001600160401b03811115611b8657611b866155f2565b604051908082528060200260200182016040528015611bda57816020015b6040805160808101825260008082526020820152606091810182905281810191909152815260200190600190039081611ba45790505b50905060005b600454811015611da8576003600060048381548110611c0157611c0161575a565b6000918252602080832091909101546001600160a01b039081168452838201949094526040928301909120825160808101845281549485168152600160a01b90940460ff1615158483015260018101805484518185028101850186528181529294860193830182828015611cc257602002820191906000526020600020906000905b82829054906101000a900464ffffffffff1664ffffffffff1681526020019060050190602082600401049283019260010382029150808411611c835790505b5050505050815260200160028201805480602002602001604051908101604052809291908181526020016000905b82821015611d7057600084815260209081902060408051606081018252600286029092018054835260018082015461ffff81169585019590955292939092918401916201000090910460ff1690811115611d4c57611d4c6150e3565b6001811115611d5d57611d5d6150e3565b8152505081526020019060010190611cf0565b5050505081525050828281518110611d8a57611d8a61575a565b60200260200101819052508080611da090615786565b915050611be0565b50905090565b600e5460ff16610a8357611dc06137ba565b60018151118015611dd2575060648151105b611e295760405162461bcd60e51b815260206004820152602260248201527f4261746368206d757374203e206f6e65207472616e73616374696f6e203c2031604482015261030360f41b606482015260840161042d565b611e546040518060800160405280600081526020016000815260200160008152602001606081525090565b348251600254611e649190615854565b1115611e825760405162461bcd60e51b815260040161042d906157e6565b600d546000906001600160401b03811115611e9f57611e9f6155f2565b604051908082528060200260200182016040528015611ec8578160200160208202803683370190505b503360009081526003602052604081206001015491925090611eeb9060646157b8565b6001600160401b03811115611f0257611f026155f2565b604051908082528060200260200182016040528015611f2b578160200160208202803683370190505b50905060005b84518110156123ad57611f60858281518110611f4f57611f4f61575a565b60200260200101516020015161420d565b6000611f88868381518110611f7757611f7761575a565b6020026020010151602001516137eb565b9050611f948184614c73565b611fe2578083866040015181518110611faf57611faf61575a565b602002602001019064ffffffffff16908164ffffffffff1681525050600185604001818151611fde91906157b8565b9052505b60006001600160a01b0316868381518110611fff57611fff61575a565b6020026020010151606001516001600160a01b031614156120515785828151811061202c5761202c61575a565b6020026020010151604001518560000181815161204991906157b8565b90525061228b565b6120778683815181106120665761206661575a565b6020026020010151606001516136f9565b6120935760405162461bcd60e51b815260040161042d90615839565b8582815181106120a5576120a561575a565b602002602001015160400151600b6000336001600160a01b03166001600160a01b0316815260200190815260200160002060008885815181106120ea576120ea61575a565b6020026020010151606001516001600160a01b03166001600160a01b031681526020019081526020016000205461212191906157b8565b8683815181106121335761213361575a565b602090810291909101015160600151604051636eb1769f60e11b81523360048201523060248201526001600160a01b039091169063dd62ed3e90604401602060405180830381600087803b15801561218a57600080fd5b505af115801561219e573d6000803e3d6000fd5b505050506040513d601f19601f820116820180604052508101906121c2919061589d565b10156121f55760405162461bcd60e51b8152602060048201526002602482015261313360f01b604482015260640161042d565b61221c86838151811061220a5761220a61575a565b60200260200101516060015185614cd5565b61228b578582815181106122325761223261575a565b602002602001015160600151848660200151815181106122545761225461575a565b60200260200101906001600160a01b031690816001600160a01b03168152505060018560200181815161228791906157b8565b9052505b85828151811061229d5761229d61575a565b602002602001015160400151600c60008885815181106122bf576122bf61575a565b6020026020010151606001516001600160a01b03166001600160a01b0316815260200190815260200160002060008282546122fa91906157b8565b925050819055508582815181106123135761231361575a565b602002602001015160400151600b6000336001600160a01b03166001600160a01b0316815260200190815260200160002060008885815181106123585761235861575a565b6020026020010151606001516001600160a01b03166001600160a01b03168152602001908152602001600020600082825461239391906157b8565b909155508291506123a5905081615786565b915050611f31565b34606460015486600001516123c29190615854565b6123cc9190615889565b11156123ea5760405162461bcd60e51b815260040161042d906157e6565b5060005b8151811015612652578181815181106124095761240961575a565b602002602001015164ffffffffff166000141561242557612652565b60005b85518161ffff16101561263f576000612450878361ffff1681518110611f7757611f7761575a565b90508383815181106124645761246461575a565b602002602001015164ffffffffff168164ffffffffff16141561262c5760006124f333898561ffff168151811061249d5761249d61575a565b6020026020010151600001518a8661ffff16815181106124bf576124bf61575a565b602002602001015160600151858c8861ffff16815181106124e2576124e261575a565b60200260200101516040015161428b565b9050806005600087878151811061250c5761250c61575a565b60209081029190910181015164ffffffffff908116835282820193909352604091820160009081208054600181810183559183529183902086516005909302019182559185015191810180546001600160a01b039384166001600160a01b0319918216179091559285015160028201805491841691909416179092556060840151600380840180546080880151909616600160a01b026001600160c81b031990961692909316919091179390931780825560a0850151929360ff60c81b1990911690600160c81b9084908111156125e5576125e56150e3565b021790555060c0919091015160049091015551600680546001810182556000919091527ff652222313e28459528d920b65115c16c04f3efc82aaedc97be59f3f377c0d3f01555b5080612637816158db565b915050612428565b508061264a81615786565b9150506123ee565b5060005b82518110156128b05760006001600160a01b031683828151811061267c5761267c61575a565b60200260200101516001600160a01b03161461285957600c60008483815181106126a8576126a861575a565b60200260200101516001600160a01b03166001600160a01b03168152602001908152602001600020548382815181106126e3576126e361575a565b6020908102919091010151604051636eb1769f60e11b81523360048201523060248201526001600160a01b039091169063dd62ed3e90604401602060405180830381600087803b15801561273657600080fd5b505af115801561274a573d6000803e3d6000fd5b505050506040513d601f19601f8201168201806040525081019061276e919061589d565b101580156128505750600c600084838151811061278d5761278d61575a565b60200260200101516001600160a01b03166001600160a01b03168152602001908152602001600020548382815181106127c8576127c861575a565b60209081029190910101516040516370a0823160e01b81523360048201526001600160a01b03909116906370a0823190602401602060405180830381600087803b15801561281557600080fd5b505af1158015612829573d6000803e3d6000fd5b505050506040513d601f19601f8201168201806040525081019061284d919061589d565b10155b61285957600080fd5b6000600c60008584815181106128715761287161575a565b60200260200101516001600160a01b03166001600160a01b031681526020019081526020016000208190555080806128a890615786565b915050612656565b33600090815260036020526040902054600160a01b900460ff1661293a5733600081815260036020526040812080546001600160a01b03199081168417825560048054600181019091557f8a35acfbc15ff81a39ae7d344fd709f28e8600b4aa8c65c6b64bfe7fe36bd19b01805490911684179055919052805460ff60a01b1916600160a01b1790555b5050505050565b6129496136b9565b6040516393bc841360e01b8152426004820152600090819073__$6410182d5f1a58f052534cd2204b3646b6$__906393bc841390602401604080518083038186803b15801561299757600080fd5b505af41580156129ab573d6000803e3d6000fd5b505050506040513d601f19601f8201168201806040525081019061139d91906158f3565b60606129d96136b9565b6001600160a01b038216600090815260036020908152604080832060010180548251818502810185019093528083529192909190830182828015612a6a57602002820191906000526020600020906000905b82829054906101000a900464ffffffffff1664ffffffffff1681526020019060050190602082600401049283019260010382029150808411612a2b5790505b505050505090506000805b8251811015612bc257600060056000858481518110612a9657612a9661575a565b602002602001015164ffffffffff1664ffffffffff168152602001908152602001600020805480602002602001604051908101604052809291908181526020016000905b82821015612b995760008481526020908190206040805160e081018252600586029092018054835260018101546001600160a01b039081169484019490945260028101548416918301919091526003808201549384166060840152600160a01b840464ffffffffff1660808401529192909160a0840191600160c81b900460ff1690811115612b6b57612b6b6150e3565b6003811115612b7c57612b7c6150e3565b815260200160048201548152505081526020019060010190612ada565b505050509050805183612bac91906157b8565b9250508080612bba90615786565b915050612a75565b506000816001600160401b03811115612bdd57612bdd6155f2565b604051908082528060200260200182016040528015612c1657816020015b612c03614f00565b815260200190600190039081612bfb5790505b5090506000826001600160401b03811115612c3357612c336155f2565b604051908082528060200260200182016040528015612c6c57816020015b612c59614f00565b815260200190600190039081612c515790505b5090506000805b8551811015612e495760056000878381518110612c9257612c9261575a565b602002602001015164ffffffffff1664ffffffffff168152602001908152602001600020805480602002602001604051908101604052809291908181526020016000905b82821015612d955760008481526020908190206040805160e081018252600586029092018054835260018101546001600160a01b039081169484019490945260028101548416918301919091526003808201549384166060840152600160a01b840464ffffffffff1660808401529192909160a0840191600160c81b900460ff1690811115612d6757612d676150e3565b6003811115612d7857612d786150e3565b815260200160048201548152505081526020019060010190612cd6565b50505050935060005b8451811015612e3657886001600160a01b0316858281518110612dc357612dc361575a565b6020026020010151602001516001600160a01b03161415612e2457848181518110612df057612df061575a565b6020026020010151848481518110612e0a57612e0a61575a565b60200260200101819052508280612e2090615786565b9350505b80612e2e81615786565b915050612d9e565b5080612e4181615786565b915050612c73565b5060005b8251811015612ea957612e6b838281518110611b0557611b0561575a565b838281518110612e7d57612e7d61575a565b602090810291909101015164ffffffffff90911660809091015280612ea181615786565b915050612e4d565b50909450505050505b919050565b612ebf6137ba565b612ed581356109b5610100840160e08501615801565b612f055760405162461bcd60e51b81526020600482015260016024820152603760f81b604482015260640161042d565b8035600090815260096020908152604080832080548251818502810185019093528083529192909190830182828015612f6757602002820191906000526020600020905b81546001600160a01b03168152600190910190602001808311612f49575b5050505050905060005b815181101561302d57818181518110612f8c57612f8c61575a565b60209081029190910181015184356000908152600990925260408083208151635ab7594160e11b81526001600160a01b03909316600484015260248301525173__$6410182d5f1a58f052534cd2204b3646b6$__9263b56eb2829260448082019391829003018186803b15801561300257600080fd5b505af4158015613016573d6000803e3d6000fd5b50505050808061302590615786565b915050612f71565b50600061304060e0840160c0850161581e565b6001811115613051576130516150e3565b14156132c257600060078161306d610100860160e08701615801565b61ffff1661ffff168152602001908152602001600020805480602002602001604051908101604052809291908181526020016000905b8282101561320b576000848152602090819020604080516101208101825260058602909201805483526001808201549484019490945260028101546001600160a01b0380821693850193909352600160a01b80820460ff90811615156060870152600160a81b909204821615156080860152600383015493841660a08601529394919360c086019304169081111561313d5761313d6150e3565b600181111561314e5761314e6150e3565b81526003820154600160a81b900461ffff16602082015260048201805460409092019161317a9061592d565b80601f01602080910402602001604051908101604052809291908181526020018280546131a69061592d565b80156131f35780601f106131c8576101008083540402835291602001916131f3565b820191906000526020600020905b8154815290600101906020018083116131d657829003601f168201915b505050505081525050815260200190600101906130a3565b50505050905060005b82518110156132bf5783600001358282815181106132345761323461575a565b60200260200101516000015114156132ad5760016007600061325d610100880160e08901615801565b61ffff1661ffff16815260200190815260200160002082815481106132845761328461575a565b906000526020600020906005020160020160156101000a81548160ff0219169083151502179055505b806132b781615786565b915050613214565b50505b60016132d460e0840160c0850161581e565b60018111156132e5576132e56150e3565b1415613553576000600881613301610100860160e08701615801565b61ffff1661ffff168152602001908152602001600020805480602002602001604051908101604052809291908181526020016000905b8282101561349f576000848152602090819020604080516101208101825260058602909201805483526001808201549484019490945260028101546001600160a01b0380821693850193909352600160a01b80820460ff90811615156060870152600160a81b909204821615156080860152600383015493841660a08601529394919360c08601930416908111156133d1576133d16150e3565b60018111156133e2576133e26150e3565b81526003820154600160a81b900461ffff16602082015260048201805460409092019161340e9061592d565b80601f016020809104026020016040519081016040528092919081815260200182805461343a9061592d565b80156134875780601f1061345c57610100808354040283529160200191613487565b820191906000526020600020905b81548152906001019060200180831161346a57829003601f168201915b50505050508152505081526020019060010190613337565b50505050905060005b825181101561139d5783600001358282815181106134c8576134c861575a565b6020026020010151600001511415613541576001600860006134f1610100880160e08901615801565b61ffff1661ffff16815260200190815260200160002082815481106135185761351861575a565b906000526020600020906005020160020160156101000a81548160ff0219169083151502179055505b8061354b81615786565b9150506134a8565b5050565b60006135616136b9565b600061356c426137eb565b600e5490915064ffffffffff6101009091048116908216116135b55760405162461bcd60e51b81526020600482015260026024820152610c4d60f21b604482015260640161042d565b600e54610100900464ffffffffff165b8164ffffffffff168164ffffffffff16116136115764ffffffffff8116600090815260056020526040902054156135ff5760019250505090565b80613609816158b6565b9150506135c5565b50600091505090565b6136226137ba565b3460025411156136445760405162461bcd60e51b815260040161042d906157e6565b600081815260096020526040908190209051635ab7594160e11b8152336004820152602481019190915273__$6410182d5f1a58f052534cd2204b3646b6$__9063b56eb2829060440160006040518083038186803b1580156136a557600080fd5b505af415801561293a573d6000803e3d6000fd5b6000546001600160a01b031633146136f75760405162461bcd60e51b81526020600482015260016024820152600360fc1b604482015260640161042d565b565b600080600d80548060200260200160405190810160405280929190818152602001828054801561375257602002820191906000526020600020905b81546001600160a01b03168152600190910190602001808311613734575b505050505090506000915060005b81518110156137b35781818151811061377b5761377b61575a565b60200260200101516001600160a01b0316846001600160a01b031614156137a157600192505b806137ab81615786565b915050613760565b5050919050565b336136f75760405162461bcd60e51b81526020600482015260016024820152603360f81b604482015260640161042d565b60006137f9610e1083615968565b92915050565b64ffffffffff8116600090815260056020526040902054600114156138465764ffffffffff8116600090815260056020526040812061383d9161500d565b61355381614d31565b64ffffffffff811660009081526005602052604081209080805b835481101561395157336001600160a01b03168482815481106138855761388561575a565b60009182526020909120600160059092020101546001600160a01b031614156138b657816138b281615786565b9250505b858482815481106138c9576138c961575a565b906000526020600020906005020160000154141561393f578092508381815481106138f6576138f661575a565b6000918252602082206005909102018181556001810180546001600160a01b031990811690915560028201805490911690556003810180546001600160d01b0319169055600401555b8061394981615786565b915050613860565b5082548390613962906001906157a1565b815481106139725761397261575a565b90600052602060002090600502018383815481106139925761399261575a565b60009182526020909120825460059092020190815560018083015490820180546001600160a01b03199081166001600160a01b039384161790915560028085015490840180548316918416919091179055600380850180548286018054948516919095169081178555815464ffffffffff600160a01b9182900416026001600160c81b03199094161792909217808455915460ff600160c81b9182900416939260ff60c81b1916918490811115613a4b57613a4b6150e3565b02179055506004918201549101558254839080613a6a57613a6a6157d0565b600082815260208120600560001990930192830201818155600181810180546001600160a01b031990811690915560028301805490911690556003820180546001600160d01b03191690556004909101919091559155811415613ad057613ad084614d31565b6000805b600654811015613b1d578660068281548110613af257613af261575a565b90600052602060002001541415613b0b57809150613b1d565b80613b1581615786565b915050613ad4565b5060068054613b2e906001906157a1565b81548110613b3e57613b3e61575a565b906000526020600020015460068281548110613b5c57613b5c61575a565b6000918252602090912001556006805480613b7957613b796157d0565b60019003818190600052602060002001600090559055505050505050565b60008060405180606001604052808681526020018561ffff168152602001846001811115613bc757613bc76150e3565b905290506000613bd682613dba565b9050806060015115613bed57600192505050613bf4565b6000925050505b9392505050565b33600090815260036020526040902054600160a01b900460ff16613c855733600081815260036020526040812080546001600160a01b03199081168417825560048054600181019091557f8a35acfbc15ff81a39ae7d344fd709f28e8600b4aa8c65c6b64bfe7fe36bd19b01805490911684179055919052805460ff60a01b1916600160a01b1790555b33600090815260036020908152604080832060029081018054600181810183559186529484902086519590920290910193845591840151838301805461ffff90921661ffff19831681178255928601518695949093919262ffffff19169091179062010000908490811115613cfc57613cfc6150e3565b0217905550505050565b613d0e614fc1565b60003386848742604051602001613d2995949392919061598c565b604051602081830303815290604052805190602001209050604051806101200160405280828152602001888152602001336001600160a01b03168152602001600115158152602001600015158152602001876001600160a01b03168152602001856001811115613d9b57613d9b6150e3565b81526020018461ffff1681526020018681525091505095945050505050565b613dc2614fc1565b600082604001516001811115613dda57613dda6150e3565b1415613fe95760208083015161ffff1660009081526007825260408082208054825181860281018601909352808352929391929091849084015b82821015613f7c576000848152602090819020604080516101208101825260058602909201805483526001808201549484019490945260028101546001600160a01b0380821693850193909352600160a01b80820460ff90811615156060870152600160a81b909204821615156080860152600383015493841660a08601529394919360c0860193041690811115613eae57613eae6150e3565b6001811115613ebf57613ebf6150e3565b81526003820154600160a81b900461ffff166020820152600482018054604090920191613eeb9061592d565b80601f0160208091040260200160405190810160405280929190818152602001828054613f179061592d565b8015613f645780601f10613f3957610100808354040283529160200191613f64565b820191906000526020600020905b815481529060010190602001808311613f4757829003601f168201915b50505050508152505081526020019060010190613e14565b50505050905060005b8151811015613fe6578360000151828281518110613fa557613fa561575a565b6020026020010151600001511415613fd457818181518110613fc957613fc961575a565b602002602001015192505b80613fde81615786565b915050613f85565b50505b600182604001516001811115614001576140016150e3565b1415612eb25760208083015161ffff1660009081526008825260408082208054825181860281018601909352808352929391929091849084015b828210156141a3576000848152602090819020604080516101208101825260058602909201805483526001808201549484019490945260028101546001600160a01b0380821693850193909352600160a01b80820460ff90811615156060870152600160a81b909204821615156080860152600383015493841660a08601529394919360c08601930416908111156140d5576140d56150e3565b60018111156140e6576140e66150e3565b81526003820154600160a81b900461ffff1660208201526004820180546040909201916141129061592d565b80601f016020809104026020016040519081016040528092919081815260200182805461413e9061592d565b801561418b5780601f106141605761010080835404028352916020019161418b565b820191906000526020600020905b81548152906001019060200180831161416e57829003601f168201915b5050505050815250508152602001906001019061403b565b50505050905060005b81518110156137b35783600001518282815181106141cc576141cc61575a565b60200260200101516000015114156141fb578181815181106141f0576141f061575a565b602002602001015192505b8061420581615786565b9150506141ac565b428164ffffffffff16116142475760405162461bcd60e51b81526020600482015260016024820152600d60fa1b604482015260640161042d565b614253610e10826159ea565b64ffffffffff1615610a835760405162461bcd60e51b81526020600482015260016024820152601b60f91b604482015260640161042d565b614293614f00565b6040516bffffffffffffffffffffffff19606088901b1660208201526001600160d81b031960d885901b1660348201524260398201526000906059016040516020818303038152906040528051906020012090506040518060e00160405280828152602001886001600160a01b03168152602001876001600160a01b03168152602001866001600160a01b031681526020018564ffffffffff16815260200160006003811115614345576143456150e3565b815260200184905291505095945050505050565b33600090815260036020526040902054600160a01b900460ff1661442157336000818152600360209081526040822080546001600160a01b0319908116851782556004805460018181019092557f8a35acfbc15ff81a39ae7d344fd709f28e8600b4aa8c65c6b64bfe7fe36bd19b01805490921690951790558054600160a01b60ff60a01b199091161781558301805493840181558252902060068083049091018054919092066005026101000a64ffffffffff818102199092169390911602919091179055565b336000908152600360209081526040808320600101805482518185028101850190935280835291929091908301828280156144a957602002820191906000526020600020906000905b82829054906101000a900464ffffffffff1664ffffffffff168152602001906005019060208260040104928301926001038202915080841161446a5790505b505050505090506144ba8282614c73565b613553575033600090815260036020908152604082206001908101805491820181558352912060068083049091018054919092066005026101000a64ffffffffff818102199092169390911602919091179055565b600e5460ff16610a8357600080600083516001600160401b03811115614537576145376155f2565b60405190808252806020026020018201604052801561457057816020015b61455d614f00565b8152602001906001900390816145555790505b50905060005b84518110156149755760006001600160a01b031685828151811061459c5761459c61575a565b6020026020010151606001516001600160a01b0316141561462c578481815181106145c9576145c961575a565b602002602001015160c00151846145e091906157b8565b93508481815181106145f4576145f461575a565b602002602001015182848151811061460e5761460e61575a565b6020026020010181905250828061462490615786565b935050614963565b84818151811061463e5761463e61575a565b602002602001015160c0015185828151811061465c5761465c61575a565b6020026020010151606001516001600160a01b031663dd62ed3e8784815181106146885761468861575a565b60209081029190910181015101516040516001600160e01b031960e084901b1681526001600160a01b039091166004820152306024820152604401602060405180830381600087803b1580156146dd57600080fd5b505af11580156146f1573d6000803e3d6000fd5b505050506040513d601f19601f82011682018060405250810190614715919061589d565b1080614803575084818151811061472e5761472e61575a565b602002602001015160c0015185828151811061474c5761474c61575a565b6020026020010151606001516001600160a01b03166370a082318784815181106147785761477861575a565b6020026020010151602001516040518263ffffffff1660e01b81526004016147af91906001600160a01b0391909116815260200190565b602060405180830381600087803b1580156147c957600080fd5b505af11580156147dd573d6000803e3d6000fd5b505050506040513d601f19601f82011682018060405250810190614801919061589d565b105b15614895576002600560008784815181106148205761482061575a565b60200260200101516080015164ffffffffff1664ffffffffff16815260200190815260200160002082815481106148595761485961575a565b906000526020600020906005020160030160196101000a81548160ff0219169083600381111561488b5761488b6150e3565b0217905550614963565b8481815181106148a7576148a761575a565b60200260200101518284815181106148c1576148c161575a565b602002602001018190525082806148d790615786565b9350506001600560008784815181106148f2576148f261575a565b60200260200101516080015164ffffffffff1664ffffffffff168152602001908152602001600020828154811061492b5761492b61575a565b906000526020600020906005020160030160196101000a81548160ff0219169083600381111561495d5761495d6150e3565b02179055505b8061496d81615786565b915050614576565b508247116149aa5760405162461bcd60e51b8152602060048201526002602482015261313160f01b604482015260640161042d565b60005b815181101561293a578181815181106149c8576149c861575a565b602002602001015160c00151600b60008484815181106149ea576149ea61575a565b6020026020010151602001516001600160a01b03166001600160a01b031681526020019081526020016000206000848481518110614a2a57614a2a61575a565b6020026020010151606001516001600160a01b03166001600160a01b031681526020019081526020016000206000828254614a6591906157a1565b90915550508151600090839083908110614a8157614a8161575a565b6020026020010151606001516001600160a01b03161415614b3a576000828281518110614ab057614ab061575a565b6020026020010151604001516001600160a01b03166108fc848481518110614ada57614ada61575a565b602002602001015160c001519081150290604051600060405180830381858888f19350505050905080614b345760405162461bcd60e51b8152602060048201526002602482015261189960f11b604482015260640161042d565b50614c53565b818181518110614b4c57614b4c61575a565b6020026020010151606001516001600160a01b03166323b872dd838381518110614b7857614b7861575a565b602002602001015160200151848481518110614b9657614b9661575a565b602002602001015160400151858581518110614bb457614bb461575a565b602090810291909101015160c001516040516001600160e01b031960e086901b1681526001600160a01b0393841660048201529290911660248301526044820152606401602060405180830381600087803b158015614c1257600080fd5b505af1158015614c26573d6000803e3d6000fd5b505050506040513d601f19601f82011682018060405250810190614c4a9190615a0e565b614c5357600080fd5b80614c5d81615786565b9150506149ad565b60006137f982610e10615a30565b6000805b8251811015614ccb578364ffffffffff16838281518110614c9a57614c9a61575a565b602002602001015164ffffffffff161415614cb95760019150506137f9565b80614cc381615786565b915050614c77565b5060009392505050565b6000805b8251811015614ccb57836001600160a01b0316838281518110614cfe57614cfe61575a565b60200260200101516001600160a01b03161415614d1f5760019150506137f9565b80614d2981615786565b915050614cd9565b3360009081526003602052604090206001908101541415614d6a57336000908152600360205260408120610a839160019091019061502e565b33600090815260036020526040812060010190805b8254811015614e2b578364ffffffffff16838281548110614da257614da261575a565b90600052602060002090600691828204019190066005029054906101000a900464ffffffffff1664ffffffffff161415614e1957809150828181548110614deb57614deb61575a565b90600052602060002090600691828204019190066005026101000a81549064ffffffffff0219169055614e2b565b80614e2381615786565b915050614d7f565b5081548290614e3c906001906157a1565b81548110614e4c57614e4c61575a565b90600052602060002090600691828204019190066005029054906101000a900464ffffffffff16828281548110614e8557614e8561575a565b90600052602060002090600691828204019190066005026101000a81548164ffffffffff021916908364ffffffffff16021790555081805480614eca57614eca6157d0565b60019003818190600052602060002090600691828204019190066005026101000a81549064ffffffffff02191690559055505050565b6040805160e08101825260008082526020820181905291810182905260608101829052608081018290529060a08201908152602001600081525090565b828054614f499061592d565b90600052602060002090601f016020900481019282614f6b5760008555614fb1565b82601f10614f8457805160ff1916838001178555614fb1565b82800160010185558215614fb1579182015b82811115614fb1578251825591602001919060010190614f96565b50614fbd92915061504f565b5090565b6040805161012081018252600080825260208201819052918101829052606081018290526080810182905260a081018290529060c0820190815260006020820152606060409091015290565b5080546000825560050290600052602060002090810190610a839190615064565b508054600082556005016006900490600052602060002090810190610a8391905b5b80821115614fbd5760008155600101615050565b5b80821115614fbd5760008082556001820180546001600160a01b031990811690915560028301805490911690556003820180546001600160d01b03191690556004820155600501615065565b6001600160a01b0381168114610a8357600080fd5b6000602082840312156150d857600080fd5b8135613bf4816150b1565b634e487b7160e01b600052602160045260246000fd5b602080825282518282018190526000919060409081850190868401855b8281101561519557815180518552868101516001600160a01b0390811688870152868201518116878701526060808301519091169086015260808082015164ffffffffff169086015260a08082015160048110615175576151756150e3565b9086015260c0908101519085015260e09093019290850190600101615116565b5091979650505050505050565b803564ffffffffff81168114612eb257600080fd5b6000806000606084860312156151cc57600080fd5b833592506151dc602085016151a2565b915060408401356151ec816150b1565b809150509250925092565b60006020828403121561520957600080fd5b81356001600160401b0381111561521f57600080fd5b82016101208185031215613bf457600080fd5b803560028110612eb257600080fd5b61ffff81168114610a8357600080fd5b60008060008060008060a0878903121561526a57600080fd5b86359550602087013561527c816150b1565b945060408701356001600160401b038082111561529857600080fd5b818901915089601f8301126152ac57600080fd5b8135818111156152bb57600080fd5b8a60208285010111156152cd57600080fd5b6020830196508095505050506152e560608801615232565b915060808701356152f581615241565b809150509295509295509295565b60006020828403121561531557600080fd5b5035919050565b6002811061532c5761532c6150e3565b9052565b60005b8381101561534b578181015183820152602001615333565b8381111561139d5750506000910152565b60008151808452615374816020860160208601615330565b601f01601f19169290920160200192915050565b60006020808301818452808551808352604092508286019150828160051b87010184880160005b8381101561545a57603f198984030185528151805184528781015188850152868101516001600160a01b039081168886015260608083015115159086015260808083015115159086015260a0808301519091169085015260c080820151610120919061541d8288018261531c565b505060e08281015161ffff1690860152610100918201519185018190526154468186018361535c565b9689019694505050908601906001016153af565b509098975050505050505050565b6000806000806080858703121561547e57600080fd5b8435615489816150b1565b9350615497602086016151a2565b92506040850135915060608501356154ae816150b1565b939692955090935050565b600081518084526020808501945080840160005b8381101561550f578151805188528381015161ffff1684890152604090810151906154fa818a018361531c565b505060609690960195908201906001016154cd565b509495945050505050565b60006020808301818452808551808352604092508286019150828160051b8701018488016000805b848110156155e357898403603f19018652825180516001600160a01b0316855288810151151589860152878101516080898701819052815190870181905260a08701918b019085905b808210156155b257825164ffffffffff168452928c0192918c01916001919091019061558b565b505050606080830151925086820381880152506155cf81836154b9565b978a01979550505091870191600101615542565b50919998505050505050505050565b634e487b7160e01b600052604160045260246000fd5b604051608081016001600160401b038111828210171561562a5761562a6155f2565b60405290565b604051601f8201601f191681016001600160401b0381118282101715615658576156586155f2565b604052919050565b6000602080838503121561567357600080fd5b82356001600160401b038082111561568a57600080fd5b818501915085601f83011261569e57600080fd5b8135818111156156b0576156b06155f2565b6156be848260051b01615630565b818152848101925060079190911b8301840190878211156156de57600080fd5b928401925b8184101561574f57608084890312156156fc5760008081fd5b615704615608565b843561570f816150b1565b815261571c8587016151a2565b8187015260408581013590820152606080860135615739816150b1565b90820152835260809390930192918401916156e3565b979650505050505050565b634e487b7160e01b600052603260045260246000fd5b634e487b7160e01b600052601160045260246000fd5b600060001982141561579a5761579a615770565b5060010190565b6000828210156157b3576157b3615770565b500390565b600082198211156157cb576157cb615770565b500190565b634e487b7160e01b600052603160045260246000fd5b6020808252600190820152603560f81b604082015260600190565b60006020828403121561581357600080fd5b8135613bf481615241565b60006020828403121561583057600080fd5b613bf482615232565b6020808252600190820152603960f81b604082015260600190565b600081600019048311821515161561586e5761586e615770565b500290565b634e487b7160e01b600052601260045260246000fd5b60008261589857615898615873565b500490565b6000602082840312156158af57600080fd5b5051919050565b600064ffffffffff808316818114156158d1576158d1615770565b6001019392505050565b600061ffff808316818114156158d1576158d1615770565b6000806040838503121561590657600080fd5b825161591181615241565b602084015190925061592281615241565b809150509250929050565b600181811c9082168061594157607f821691505b6020821081141561596257634e487b7160e01b600052602260045260246000fd5b50919050565b600064ffffffffff8084168061598057615980615873565b92169190910492915050565b60006bffffffffffffffffffffffff19808860601b168352808760601b1660148401525061ffff60f01b8560f01b16602883015283516159d381602a850160208801615330565b602a920191820192909252604a0195945050505050565b600064ffffffffff80841680615a0257615a02615873565b92169190910692915050565b600060208284031215615a2057600080fd5b81518015158114613bf457600080fd5b600064ffffffffff80831681851681830481118215151615615a5457615a54615770565b0294935050505056fea2646970667358221220b02c5b8768592e3dde54ad423f18cc789a29f1365b01696a80e683b176553ca464736f6c63430008090033","opcodes":"PUSH1 0x80 PUSH1 0x40 MSTORE PUSH1 0x0 DUP1 SLOAD PUSH1 0x1 PUSH1 0x1 PUSH1 0xA0 SHL SUB NOT AND PUSH20 0xF39FD6E51AAD88F6F4CE6AB8827279CFFFB92266 OR SWAP1 SSTORE PUSH1 0x64 PUSH1 0x1 SWAP1 DUP2 SSTORE PUSH7 0x2386F26FC10000 PUSH1 0x2 SSTORE PUSH1 0xE DUP1 SLOAD PUSH1 0xFF NOT AND SWAP1 SSTORE PUSH3 0x51 TIMESTAMP PUSH3 0x85 JUMP JUMPDEST PUSH3 0x5D SWAP2 SWAP1 PUSH3 0x9B JUMP JUMPDEST PUSH1 0xE PUSH1 0x1 PUSH2 0x100 EXP DUP2 SLOAD DUP2 PUSH5 0xFFFFFFFFFF MUL NOT AND SWAP1 DUP4 PUSH5 0xFFFFFFFFFF AND MUL OR SWAP1 SSTORE POP PUSH3 0x103 JUMP JUMPDEST PUSH1 0x0 PUSH3 0x95 PUSH2 0xE10 DUP4 PUSH3 0xD0 JUMP JUMPDEST SWAP3 SWAP2 POP POP JUMP JUMPDEST PUSH1 0x0 PUSH5 0xFFFFFFFFFF DUP4 DUP2 AND SWAP1 DUP4 AND DUP2 DUP2 LT ISZERO PUSH3 0xC8 JUMPI PUSH4 0x4E487B71 PUSH1 0xE0 SHL PUSH1 0x0 MSTORE PUSH1 0x11 PUSH1 0x4 MSTORE PUSH1 0x24 PUSH1 0x0 REVERT JUMPDEST SUB SWAP4 SWAP3 POP POP POP JUMP JUMPDEST PUSH1 0x0 PUSH5 0xFFFFFFFFFF DUP1 DUP5 AND DUP1 PUSH3 0xF7 JUMPI PUSH4 0x4E487B71 PUSH1 0xE0 SHL PUSH1 0x0 MSTORE PUSH1 0x12 PUSH1 0x4 MSTORE PUSH1 0x24 PUSH1 0x0 REVERT JUMPDEST SWAP3 AND SWAP2 SWAP1 SWAP2 DIV SWAP3 SWAP2 POP POP JUMP JUMPDEST PUSH2 0x5A93 DUP1 PUSH3 0x113 PUSH1 0x0 CODECOPY PUSH1 0x0 RETURN INVALID PUSH1 0x80 PUSH1 0x40 MSTORE PUSH1 0x4 CALLDATASIZE LT PUSH2 0x138 JUMPI PUSH1 0x0 CALLDATALOAD PUSH1 0xE0 SHR DUP1 PUSH4 0x8F283970 GT PUSH2 0xB0 JUMPI DUP1 PUSH4 0xD10FA144 GT PUSH2 0x6C JUMPI DUP1 PUSH4 0xD10FA144 EQ PUSH2 0x33D JUMPI DUP1 PUSH4 0xDC700089 EQ PUSH2 0x350 JUMPI DUP1 PUSH4 0xDC9961EB EQ PUSH2 0x365 JUMPI DUP1 PUSH4 0xDE005F7C EQ PUSH2 0x385 JUMPI DUP1 PUSH4 0xE0C6190D EQ PUSH2 0x3A5 JUMPI DUP1 PUSH4 0xF8C60146 EQ PUSH2 0x3CA JUMPI STOP JUMPDEST DUP1 PUSH4 0x8F283970 EQ PUSH2 0x29C JUMPI DUP1 PUSH4 0xAA58A5B0 EQ PUSH2 0x2BC JUMPI DUP1 PUSH4 0xAB7E0909 EQ PUSH2 0x2D1 JUMPI DUP1 PUSH4 0xC682CCE4 EQ PUSH2 0x2F1 JUMPI DUP1 PUSH4 0xCED72F87 EQ PUSH2 0x306 JUMPI DUP1 PUSH4 0xCF783D8A EQ PUSH2 0x31B JUMPI STOP JUMPDEST DUP1 PUSH4 0x2C04C453 GT PUSH2 0xFF JUMPI DUP1 PUSH4 0x2C04C453 EQ PUSH2 0x201 JUMPI DUP1 PUSH4 0x3084F79E EQ PUSH2 0x214 JUMPI DUP1 PUSH4 0x6A1DB1BF EQ PUSH2 0x227 JUMPI DUP1 PUSH4 0x7CE1EF39 EQ PUSH2 0x247 JUMPI DUP1 PUSH4 0x80423444 EQ PUSH2 0x269 JUMPI DUP1 PUSH4 0x8E83AC4A EQ PUSH2 0x27C JUMPI STOP JUMPDEST DUP1 PUSH4 0x53149FA EQ PUSH2 0x141 JUMPI DUP1 PUSH4 0x1385D24C EQ PUSH2 0x161 JUMPI DUP1 PUSH4 0x13B51234 EQ PUSH2 0x176 JUMPI DUP1 PUSH4 0x1CCB3371 EQ PUSH2 0x1CC JUMPI DUP1 PUSH4 0x2A2B3690 EQ PUSH2 0x1EE JUMPI STOP JUMPDEST CALLDATASIZE PUSH2 0x13F JUMPI STOP JUMPDEST STOP JUMPDEST CALLVALUE DUP1 ISZERO PUSH2 0x14D JUMPI PUSH1 0x0 DUP1 REVERT JUMPDEST POP PUSH2 0x13F PUSH2 0x15C CALLDATASIZE PUSH1 0x4 PUSH2 0x50C6 JUMP JUMPDEST PUSH2 0x3DD JUMP JUMPDEST CALLVALUE DUP1 ISZERO PUSH2 0x16D JUMPI PUSH1 0x0 DUP1 REVERT JUMPDEST POP PUSH2 0x13F PUSH2 0x5C5 JUMP JUMPDEST CALLVALUE DUP1 ISZERO PUSH2 0x182 JUMPI PUSH1 0x0 DUP1 REVERT JUMPDEST POP PUSH2 0x1B9 PUSH2 0x191 CALLDATASIZE PUSH1 0x4 PUSH2 0x50C6 JUMP JUMPDEST CALLER PUSH1 0x0 SWAP1 DUP2 MSTORE PUSH1 0xB PUSH1 0x20 SWAP1 DUP2 MSTORE PUSH1 0x40 DUP1 DUP4 KECCAK256 PUSH1 0x1 PUSH1 0x1 PUSH1 0xA0 SHL SUB SWAP5 SWAP1 SWAP5 AND DUP4 MSTORE SWAP3 SWAP1 MSTORE KECCAK256 SLOAD SWAP1 JUMP JUMPDEST PUSH1 0x40 MLOAD SWAP1 DUP2 MSTORE PUSH1 0x20 ADD JUMPDEST PUSH1 0x40 MLOAD DUP1 SWAP2 SUB SWAP1 RETURN JUMPDEST CALLVALUE DUP1 ISZERO PUSH2 0x1D8 JUMPI PUSH1 0x0 DUP1 REVERT JUMPDEST POP PUSH2 0x1E1 PUSH2 0x5E1 JUMP JUMPDEST PUSH1 0x40 MLOAD PUSH2 0x1C3 SWAP2 SWAP1 PUSH2 0x50F9 JUMP JUMPDEST PUSH2 0x13F PUSH2 0x1FC CALLDATASIZE PUSH1 0x4 PUSH2 0x51B7 JUMP JUMPDEST PUSH2 0x707 JUMP JUMPDEST PUSH2 0x13F PUSH2 0x20F CALLDATASIZE PUSH1 0x4 PUSH2 0x51F7 JUMP JUMPDEST PUSH2 0x975 JUMP JUMPDEST PUSH2 0x13F PUSH2 0x222 CALLDATASIZE PUSH1 0x4 PUSH2 0x5251 JUMP JUMPDEST PUSH2 0xA86 JUMP JUMPDEST CALLVALUE DUP1 ISZERO PUSH2 0x233 JUMPI PUSH1 0x0 DUP1 REVERT JUMPDEST POP PUSH2 0x13F PUSH2 0x242 CALLDATASIZE PUSH1 0x4 PUSH2 0x5303 JUMP JUMPDEST PUSH2 0xF19 JUMP JUMPDEST CALLVALUE DUP1 ISZERO PUSH2 0x253 JUMPI PUSH1 0x0 DUP1 REVERT JUMPDEST POP PUSH2 0x25C PUSH2 0xF26 JUMP JUMPDEST PUSH1 0x40 MLOAD PUSH2 0x1C3 SWAP2 SWAP1 PUSH2 0x5388 JUMP JUMPDEST PUSH2 0x13F PUSH2 0x277 CALLDATASIZE PUSH1 0x4 PUSH2 0x5468 JUMP JUMPDEST PUSH2 0x1097 JUMP JUMPDEST CALLVALUE DUP1 ISZERO PUSH2 0x288 JUMPI PUSH1 0x0 DUP1 REVERT JUMPDEST POP PUSH2 0x13F PUSH2 0x297 CALLDATASIZE PUSH1 0x4 PUSH2 0x5303 JUMP JUMPDEST PUSH2 0x13A3 JUMP JUMPDEST CALLVALUE DUP1 ISZERO PUSH2 0x2A8 JUMPI PUSH1 0x0 DUP1 REVERT JUMPDEST POP PUSH2 0x13F PUSH2 0x2B7 CALLDATASIZE PUSH1 0x4 PUSH2 0x50C6 JUMP JUMPDEST PUSH2 0x13B0 JUMP JUMPDEST CALLVALUE DUP1 ISZERO PUSH2 0x2C8 JUMPI PUSH1 0x0 DUP1 REVERT JUMPDEST POP PUSH2 0x13F PUSH2 0x1403 JUMP JUMPDEST CALLVALUE DUP1 ISZERO PUSH2 0x2DD JUMPI PUSH1 0x0 DUP1 REVERT JUMPDEST POP PUSH2 0x13F PUSH2 0x2EC CALLDATASIZE PUSH1 0x4 PUSH2 0x50C6 JUMP JUMPDEST PUSH2 0x15D6 JUMP JUMPDEST CALLVALUE DUP1 ISZERO PUSH2 0x2FD JUMPI PUSH1 0x0 DUP1 REVERT JUMPDEST POP PUSH2 0x1E1 PUSH2 0x167D JUMP JUMPDEST CALLVALUE DUP1 ISZERO PUSH2 0x312 JUMPI PUSH1 0x0 DUP1 REVERT JUMPDEST POP PUSH1 0x1 SLOAD PUSH2 0x1B9 JUMP JUMPDEST CALLVALUE DUP1 ISZERO PUSH2 0x327 JUMPI PUSH1 0x0 DUP1 REVERT JUMPDEST POP PUSH2 0x330 PUSH2 0x1B5F JUMP JUMPDEST PUSH1 0x40 MLOAD PUSH2 0x1C3 SWAP2 SWAP1 PUSH2 0x551A JUMP JUMPDEST PUSH2 0x13F PUSH2 0x34B CALLDATASIZE PUSH1 0x4 PUSH2 0x5660 JUMP JUMPDEST PUSH2 0x1DAE JUMP JUMPDEST CALLVALUE DUP1 ISZERO PUSH2 0x35C JUMPI PUSH1 0x0 DUP1 REVERT JUMPDEST POP PUSH2 0x13F PUSH2 0x2941 JUMP JUMPDEST CALLVALUE DUP1 ISZERO PUSH2 0x371 JUMPI PUSH1 0x0 DUP1 REVERT JUMPDEST POP PUSH2 0x1E1 PUSH2 0x380 CALLDATASIZE PUSH1 0x4 PUSH2 0x50C6 JUMP JUMPDEST PUSH2 0x29CF JUMP JUMPDEST CALLVALUE DUP1 ISZERO PUSH2 0x391 JUMPI PUSH1 0x0 DUP1 REVERT JUMPDEST POP PUSH2 0x13F PUSH2 0x3A0 CALLDATASIZE PUSH1 0x4 PUSH2 0x51F7 JUMP JUMPDEST PUSH2 0x2EB7 JUMP JUMPDEST CALLVALUE DUP1 ISZERO PUSH2 0x3B1 JUMPI PUSH1 0x0 DUP1 REVERT JUMPDEST POP PUSH2 0x3BA PUSH2 0x3557 JUMP JUMPDEST PUSH1 0x40 MLOAD SWAP1 ISZERO ISZERO DUP2 MSTORE PUSH1 0x20 ADD PUSH2 0x1C3 JUMP JUMPDEST PUSH2 0x13F PUSH2 0x3D8 CALLDATASIZE PUSH1 0x4 PUSH2 0x5303 JUMP JUMPDEST PUSH2 0x361A JUMP JUMPDEST PUSH2 0x3E5 PUSH2 0x36B9 JUMP JUMPDEST PUSH1 0x1 PUSH1 0x1 PUSH1 0xA0 SHL SUB DUP2 AND PUSH2 0x3F8 JUMPI PUSH1 0x0 DUP1 REVERT JUMPDEST PUSH2 0x401 DUP2 PUSH2 0x36F9 JUMP JUMPDEST PUSH2 0x436 JUMPI PUSH1 0x40 MLOAD PUSH3 0x461BCD PUSH1 0xE5 SHL DUP2 MSTORE PUSH1 0x20 PUSH1 0x4 DUP3 ADD MSTORE PUSH1 0x1 PUSH1 0x24 DUP3 ADD MSTORE PUSH1 0x19 PUSH1 0xF9 SHL PUSH1 0x44 DUP3 ADD MSTORE PUSH1 0x64 ADD JUMPDEST PUSH1 0x40 MLOAD DUP1 SWAP2 SUB SWAP1 REVERT JUMPDEST PUSH1 0x0 PUSH1 0xD DUP1 SLOAD DUP1 PUSH1 0x20 MUL PUSH1 0x20 ADD PUSH1 0x40 MLOAD SWAP1 DUP2 ADD PUSH1 0x40 MSTORE DUP1 SWAP3 SWAP2 SWAP1 DUP2 DUP2 MSTORE PUSH1 0x20 ADD DUP3 DUP1 SLOAD DUP1 ISZERO PUSH2 0x48E JUMPI PUSH1 0x20 MUL DUP3 ADD SWAP2 SWAP1 PUSH1 0x0 MSTORE PUSH1 0x20 PUSH1 0x0 KECCAK256 SWAP1 JUMPDEST DUP2 SLOAD PUSH1 0x1 PUSH1 0x1 PUSH1 0xA0 SHL SUB AND DUP2 MSTORE PUSH1 0x1 SWAP1 SWAP2 ADD SWAP1 PUSH1 0x20 ADD DUP1 DUP4 GT PUSH2 0x470 JUMPI JUMPDEST POP POP POP POP POP SWAP1 POP PUSH1 0x0 DUP1 JUMPDEST DUP3 MLOAD DUP2 LT ISZERO PUSH2 0x4EF JUMPI DUP4 PUSH1 0x1 PUSH1 0x1 PUSH1 0xA0 SHL SUB AND DUP4 DUP3 DUP2 MLOAD DUP2 LT PUSH2 0x4BE JUMPI PUSH2 0x4BE PUSH2 0x575A JUMP JUMPDEST PUSH1 0x20 MUL PUSH1 0x20 ADD ADD MLOAD PUSH1 0x1 PUSH1 0x1 PUSH1 0xA0 SHL SUB AND EQ ISZERO PUSH2 0x4DD JUMPI DUP1 SWAP2 POP PUSH2 0x4EF JUMP JUMPDEST DUP1 PUSH2 0x4E7 DUP2 PUSH2 0x5786 JUMP JUMPDEST SWAP2 POP POP PUSH2 0x499 JUMP JUMPDEST POP DUP1 JUMPDEST PUSH1 0xD SLOAD PUSH2 0x501 SWAP1 PUSH1 0x1 SWAP1 PUSH2 0x57A1 JUMP JUMPDEST DUP2 LT ISZERO PUSH2 0x58C JUMPI PUSH1 0xD PUSH2 0x515 DUP3 PUSH1 0x1 PUSH2 0x57B8 JUMP JUMPDEST DUP2 SLOAD DUP2 LT PUSH2 0x525 JUMPI PUSH2 0x525 PUSH2 0x575A JUMP JUMPDEST PUSH1 0x0 SWAP2 DUP3 MSTORE PUSH1 0x20 SWAP1 SWAP2 KECCAK256 ADD SLOAD PUSH1 0xD DUP1 SLOAD PUSH1 0x1 PUSH1 0x1 PUSH1 0xA0 SHL SUB SWAP1 SWAP3 AND SWAP2 DUP4 SWAP1 DUP2 LT PUSH2 0x551 JUMPI PUSH2 0x551 PUSH2 0x575A JUMP JUMPDEST PUSH1 0x0 SWAP2 DUP3 MSTORE PUSH1 0x20 SWAP1 SWAP2 KECCAK256 ADD DUP1 SLOAD PUSH1 0x1 PUSH1 0x1 PUSH1 0xA0 SHL SUB NOT AND PUSH1 0x1 PUSH1 0x1 PUSH1 0xA0 SHL SUB SWAP3 SWAP1 SWAP3 AND SWAP2 SWAP1 SWAP2 OR SWAP1 SSTORE DUP1 PUSH2 0x584 DUP2 PUSH2 0x5786 JUMP JUMPDEST SWAP2 POP POP PUSH2 0x4F2 JUMP JUMPDEST POP PUSH1 0xD DUP1 SLOAD DUP1 PUSH2 0x59E JUMPI PUSH2 0x59E PUSH2 0x57D0 JUMP JUMPDEST PUSH1 0x0 DUP3 DUP2 MSTORE PUSH1 0x20 SWAP1 KECCAK256 DUP2 ADD PUSH1 0x0 NOT SWAP1 DUP2 ADD DUP1 SLOAD PUSH1 0x1 PUSH1 0x1 PUSH1 0xA0 SHL SUB NOT AND SWAP1 SSTORE ADD SWAP1 SSTORE POP POP POP JUMP JUMPDEST PUSH2 0x5CD PUSH2 0x36B9 JUMP JUMPDEST PUSH1 0xE DUP1 SLOAD PUSH1 0xFF NOT DUP2 AND PUSH1 0xFF SWAP1 SWAP2 AND ISZERO OR SWAP1 SSTORE JUMP JUMPDEST PUSH1 0x60 PUSH2 0x5EB PUSH2 0x36B9 JUMP JUMPDEST PUSH1 0x6 SLOAD PUSH1 0x0 SWAP1 PUSH1 0x1 PUSH1 0x1 PUSH1 0x40 SHL SUB DUP2 GT ISZERO PUSH2 0x608 JUMPI PUSH2 0x608 PUSH2 0x55F2 JUMP JUMPDEST PUSH1 0x40 MLOAD SWAP1 DUP1 DUP3 MSTORE DUP1 PUSH1 0x20 MUL PUSH1 0x20 ADD DUP3 ADD PUSH1 0x40 MSTORE DUP1 ISZERO PUSH2 0x641 JUMPI DUP2 PUSH1 0x20 ADD JUMPDEST PUSH2 0x62E PUSH2 0x4F00 JUMP JUMPDEST DUP2 MSTORE PUSH1 0x20 ADD SWAP1 PUSH1 0x1 SWAP1 SUB SWAP1 DUP2 PUSH2 0x626 JUMPI SWAP1 POP JUMPDEST POP SWAP1 POP PUSH1 0x0 DUP1 JUMPDEST PUSH1 0x4 SLOAD DUP2 LT ISZERO PUSH2 0x6FF JUMPI PUSH1 0x0 PUSH2 0x684 PUSH1 0x4 DUP4 DUP2 SLOAD DUP2 LT PUSH2 0x66A JUMPI PUSH2 0x66A PUSH2 0x575A JUMP JUMPDEST PUSH1 0x0 SWAP2 DUP3 MSTORE PUSH1 0x20 SWAP1 SWAP2 KECCAK256 ADD SLOAD PUSH1 0x1 PUSH1 0x1 PUSH1 0xA0 SHL SUB AND PUSH2 0x29CF JUMP JUMPDEST SWAP1 POP PUSH1 0x0 JUMPDEST DUP2 MLOAD DUP2 LT ISZERO PUSH2 0x6EA JUMPI DUP2 DUP2 DUP2 MLOAD DUP2 LT PUSH2 0x6A4 JUMPI PUSH2 0x6A4 PUSH2 0x575A JUMP JUMPDEST PUSH1 0x20 MUL PUSH1 0x20 ADD ADD MLOAD DUP6 DUP6 DUP2 MLOAD DUP2 LT PUSH2 0x6BE JUMPI PUSH2 0x6BE PUSH2 0x575A JUMP JUMPDEST PUSH1 0x20 MUL PUSH1 0x20 ADD ADD DUP2 SWAP1 MSTORE POP DUP4 DUP1 PUSH2 0x6D4 SWAP1 PUSH2 0x5786 JUMP JUMPDEST SWAP5 POP POP DUP1 DUP1 PUSH2 0x6E2 SWAP1 PUSH2 0x5786 JUMP JUMPDEST SWAP2 POP POP PUSH2 0x689 JUMP JUMPDEST POP POP DUP1 DUP1 PUSH2 0x6F7 SWAP1 PUSH2 0x5786 JUMP JUMPDEST SWAP2 POP POP PUSH2 0x648 JUMP JUMPDEST POP SWAP1 SWAP2 POP POP SWAP1 JUMP JUMPDEST PUSH2 0x70F PUSH2 0x37BA JUMP JUMPDEST PUSH1 0x0 PUSH2 0x71A DUP4 PUSH2 0x37EB JUMP JUMPDEST PUSH5 0xFFFFFFFFFF DUP2 AND PUSH1 0x0 SWAP1 DUP2 MSTORE PUSH1 0x5 PUSH1 0x20 SWAP1 DUP2 MSTORE PUSH1 0x40 DUP1 DUP4 KECCAK256 DUP1 SLOAD DUP3 MLOAD DUP2 DUP6 MUL DUP2 ADD DUP6 ADD SWAP1 SWAP4 MSTORE DUP1 DUP4 MSTORE SWAP5 SWAP6 POP SWAP3 SWAP4 SWAP1 SWAP3 SWAP2 DUP5 SWAP1 DUP5 ADD JUMPDEST DUP3 DUP3 LT ISZERO PUSH2 0x810 JUMPI PUSH1 0x0 DUP5 DUP2 MSTORE PUSH1 0x20 SWAP1 DUP2 SWAP1 KECCAK256 PUSH1 0x40 DUP1 MLOAD PUSH1 0xE0 DUP2 ADD DUP3 MSTORE PUSH1 0x5 DUP7 MUL SWAP1 SWAP3 ADD DUP1 SLOAD DUP4 MSTORE PUSH1 0x1 DUP2 ADD SLOAD PUSH1 0x1 PUSH1 0x1 PUSH1 0xA0 SHL SUB SWAP1 DUP2 AND SWAP5 DUP5 ADD SWAP5 SWAP1 SWAP5 MSTORE PUSH1 0x2 DUP2 ADD SLOAD DUP5 AND SWAP2 DUP4 ADD SWAP2 SWAP1 SWAP2 MSTORE PUSH1 0x3 DUP1 DUP3 ADD SLOAD SWAP4 DUP5 AND PUSH1 0x60 DUP5 ADD MSTORE PUSH1 0x1 PUSH1 0xA0 SHL DUP5 DIV PUSH5 0xFFFFFFFFFF AND PUSH1 0x80 DUP5 ADD MSTORE SWAP2 SWAP3 SWAP1 SWAP2 PUSH1 0xA0 DUP5 ADD SWAP2 PUSH1 0x1 PUSH1 0xC8 SHL SWAP1 DIV PUSH1 0xFF AND SWAP1 DUP2 GT ISZERO PUSH2 0x7E2 JUMPI PUSH2 0x7E2 PUSH2 0x50E3 JUMP JUMPDEST PUSH1 0x3 DUP2 GT ISZERO PUSH2 0x7F3 JUMPI PUSH2 0x7F3 PUSH2 0x50E3 JUMP JUMPDEST DUP2 MSTORE PUSH1 0x20 ADD PUSH1 0x4 DUP3 ADD SLOAD DUP2 MSTORE POP POP DUP2 MSTORE PUSH1 0x20 ADD SWAP1 PUSH1 0x1 ADD SWAP1 PUSH2 0x751 JUMP JUMPDEST POP POP POP POP SWAP1 POP PUSH2 0x81E PUSH2 0x4F00 JUMP JUMPDEST PUSH1 0x0 JUMPDEST DUP3 MLOAD DUP2 LT ISZERO PUSH2 0x882 JUMPI DUP7 DUP4 DUP3 DUP2 MLOAD DUP2 LT PUSH2 0x83D JUMPI PUSH2 0x83D PUSH2 0x575A JUMP JUMPDEST PUSH1 0x20 MUL PUSH1 0x20 ADD ADD MLOAD PUSH1 0x0 ADD MLOAD EQ ISZERO PUSH2 0x870 JUMPI DUP3 DUP2 DUP2 MLOAD DUP2 LT PUSH2 0x861 JUMPI PUSH2 0x861 PUSH2 0x575A JUMP JUMPDEST PUSH1 0x20 MUL PUSH1 0x20 ADD ADD MLOAD SWAP2 POP PUSH2 0x882 JUMP JUMPDEST DUP1 PUSH2 0x87A DUP2 PUSH2 0x5786 JUMP JUMPDEST SWAP2 POP POP PUSH2 0x821 JUMP JUMPDEST POP PUSH2 0x895 DUP2 PUSH1 0x0 ADD MLOAD DUP3 PUSH1 0x80 ADD MLOAD PUSH2 0x37FF JUMP JUMPDEST PUSH1 0x1 PUSH1 0x1 PUSH1 0xA0 SHL SUB DUP5 AND ISZERO PUSH2 0x8E7 JUMPI PUSH1 0xC0 DUP2 ADD MLOAD CALLER PUSH1 0x0 SWAP1 DUP2 MSTORE PUSH1 0xB PUSH1 0x20 SWAP1 DUP2 MSTORE PUSH1 0x40 DUP1 DUP4 KECCAK256 PUSH1 0x1 PUSH1 0x1 PUSH1 0xA0 SHL SUB DUP10 AND DUP5 MSTORE SWAP1 SWAP2 MSTORE DUP2 KECCAK256 DUP1 SLOAD SWAP1 SWAP2 SWAP1 PUSH2 0x8DC SWAP1 DUP5 SWAP1 PUSH2 0x57A1 JUMP JUMPDEST SWAP1 SWAP2 SSTORE POP PUSH2 0x96D SWAP1 POP JUMP JUMPDEST PUSH1 0xC0 DUP2 ADD MLOAD CALLER PUSH1 0x0 SWAP1 DUP2 MSTORE PUSH1 0xB PUSH1 0x20 SWAP1 DUP2 MSTORE PUSH1 0x40 DUP1 DUP4 KECCAK256 PUSH1 0x1 PUSH1 0x1 PUSH1 0xA0 SHL SUB DUP10 AND DUP5 MSTORE SWAP1 SWAP2 MSTORE DUP2 KECCAK256 DUP1 SLOAD SWAP1 SWAP2 SWAP1 PUSH2 0x91F SWAP1 DUP5 SWAP1 PUSH2 0x57A1 JUMP JUMPDEST SWAP1 SWAP2 SSTORE POP POP PUSH1 0xC0 DUP2 ADD MLOAD SELFBALANCE GT PUSH2 0x934 JUMPI PUSH1 0x0 DUP1 REVERT JUMPDEST DUP1 PUSH1 0x20 ADD MLOAD PUSH1 0x1 PUSH1 0x1 PUSH1 0xA0 SHL SUB AND PUSH2 0x8FC DUP3 PUSH1 0xC0 ADD MLOAD SWAP1 DUP2 ISZERO MUL SWAP1 PUSH1 0x40 MLOAD PUSH1 0x0 PUSH1 0x40 MLOAD DUP1 DUP4 SUB DUP2 DUP6 DUP9 DUP9 CALL SWAP4 POP POP POP POP PUSH2 0x96D JUMPI PUSH1 0x0 DUP1 REVERT JUMPDEST POP POP POP POP POP POP JUMP JUMPDEST PUSH2 0x97D PUSH2 0x37BA JUMP JUMPDEST CALLVALUE PUSH1 0x2 SLOAD GT ISZERO PUSH2 0x99F JUMPI PUSH1 0x40 MLOAD PUSH3 0x461BCD PUSH1 0xE5 SHL DUP2 MSTORE PUSH1 0x4 ADD PUSH2 0x42D SWAP1 PUSH2 0x57E6 JUMP JUMPDEST PUSH2 0x9CA DUP2 CALLDATALOAD PUSH2 0x9B5 PUSH2 0x100 DUP5 ADD PUSH1 0xE0 DUP6 ADD PUSH2 0x5801 JUMP JUMPDEST PUSH2 0x9C5 PUSH1 0xE0 DUP6 ADD PUSH1 0xC0 DUP7 ADD PUSH2 0x581E JUMP JUMPDEST PUSH2 0x3B97 JUMP JUMPDEST PUSH2 0x9FA JUMPI PUSH1 0x40 MLOAD PUSH3 0x461BCD PUSH1 0xE5 SHL DUP2 MSTORE PUSH1 0x20 PUSH1 0x4 DUP3 ADD MSTORE PUSH1 0x1 PUSH1 0x24 DUP3 ADD MSTORE PUSH1 0x37 PUSH1 0xF8 SHL PUSH1 0x44 DUP3 ADD MSTORE PUSH1 0x64 ADD PUSH2 0x42D JUMP JUMPDEST DUP1 CALLDATALOAD PUSH1 0x0 DUP2 DUP2 MSTORE PUSH1 0x9 PUSH1 0x20 SWAP1 DUP2 MSTORE PUSH1 0x40 DUP1 DUP4 KECCAK256 DUP1 SLOAD PUSH1 0x1 DUP2 ADD DUP3 SSTORE SWAP1 DUP5 MSTORE SWAP3 DUP3 SWAP1 KECCAK256 SWAP1 SWAP3 ADD DUP1 SLOAD PUSH1 0x1 PUSH1 0x1 PUSH1 0xA0 SHL SUB NOT AND CALLER OR SWAP1 SSTORE DUP2 MLOAD PUSH1 0x60 DUP2 ADD SWAP1 SWAP3 MSTORE SWAP2 DUP2 MSTORE PUSH2 0xA83 SWAP2 DUP2 ADD PUSH2 0xA52 PUSH2 0x100 DUP6 ADD PUSH1 0xE0 DUP7 ADD PUSH2 0x5801 JUMP JUMPDEST PUSH2 0xFFFF AND DUP2 MSTORE PUSH1 0x20 ADD PUSH2 0xA6B PUSH1 0xE0 DUP6 ADD PUSH1 0xC0 DUP7 ADD PUSH2 0x581E JUMP JUMPDEST PUSH1 0x1 DUP2 GT ISZERO PUSH2 0xA7C JUMPI PUSH2 0xA7C PUSH2 0x50E3 JUMP JUMPDEST SWAP1 MSTORE PUSH2 0x3BFB JUMP JUMPDEST POP JUMP JUMPDEST PUSH2 0xA8E PUSH2 0x37BA JUMP JUMPDEST PUSH1 0x1 PUSH1 0x1 PUSH1 0xA0 SHL SUB DUP6 AND PUSH2 0xAC8 JUMPI PUSH1 0x40 MLOAD PUSH3 0x461BCD PUSH1 0xE5 SHL DUP2 MSTORE PUSH1 0x20 PUSH1 0x4 DUP3 ADD MSTORE PUSH1 0x1 PUSH1 0x24 DUP3 ADD MSTORE PUSH1 0x7 PUSH1 0xFB SHL PUSH1 0x44 DUP3 ADD MSTORE PUSH1 0x64 ADD PUSH2 0x42D JUMP JUMPDEST CALLVALUE PUSH1 0x2 SLOAD GT ISZERO PUSH2 0xAEA JUMPI PUSH1 0x40 MLOAD PUSH3 0x461BCD PUSH1 0xE5 SHL DUP2 MSTORE PUSH1 0x4 ADD PUSH2 0x42D SWAP1 PUSH2 0x57E6 JUMP JUMPDEST PUSH2 0xAF3 DUP6 PUSH2 0x36F9 JUMP JUMPDEST PUSH2 0xB0F JUMPI PUSH1 0x40 MLOAD PUSH3 0x461BCD PUSH1 0xE5 SHL DUP2 MSTORE PUSH1 0x4 ADD PUSH2 0x42D SWAP1 PUSH2 0x5839 JUMP JUMPDEST PUSH1 0x0 DUP7 GT PUSH2 0xB44 JUMPI PUSH1 0x40 MLOAD PUSH3 0x461BCD PUSH1 0xE5 SHL DUP2 MSTORE PUSH1 0x20 PUSH1 0x4 DUP3 ADD MSTORE PUSH1 0x2 PUSH1 0x24 DUP3 ADD MSTORE PUSH2 0x313 PUSH1 0xF4 SHL PUSH1 0x44 DUP3 ADD MSTORE PUSH1 0x64 ADD PUSH2 0x42D JUMP JUMPDEST PUSH1 0x0 PUSH2 0xB8B DUP8 DUP8 DUP8 DUP8 DUP1 DUP1 PUSH1 0x1F ADD PUSH1 0x20 DUP1 SWAP2 DIV MUL PUSH1 0x20 ADD PUSH1 0x40 MLOAD SWAP1 DUP2 ADD PUSH1 0x40 MSTORE DUP1 SWAP4 SWAP3 SWAP2 SWAP1 DUP2 DUP2 MSTORE PUSH1 0x20 ADD DUP4 DUP4 DUP1 DUP3 DUP5 CALLDATACOPY PUSH1 0x0 SWAP3 ADD SWAP2 SWAP1 SWAP2 MSTORE POP DUP10 SWAP3 POP DUP9 SWAP2 POP PUSH2 0x3D06 SWAP1 POP JUMP JUMPDEST SWAP1 POP PUSH1 0x0 DUP4 PUSH1 0x1 DUP2 GT ISZERO PUSH2 0xBA1 JUMPI PUSH2 0xBA1 PUSH2 0x50E3 JUMP JUMPDEST EQ ISZERO PUSH2 0xD30 JUMPI DUP2 PUSH2 0xFFFF AND PUSH1 0x0 LT DUP1 ISZERO PUSH2 0xBC0 JUMPI POP PUSH1 0x1C DUP3 PUSH2 0xFFFF AND GT ISZERO JUMPDEST PUSH2 0xC1E JUMPI PUSH1 0x40 MLOAD PUSH3 0x461BCD PUSH1 0xE5 SHL DUP2 MSTORE PUSH1 0x20 PUSH1 0x4 DUP3 ADD MSTORE PUSH1 0x29 PUSH1 0x24 DUP3 ADD MSTORE PUSH32 0x4D6F6E74686C79206475652064617465206D757374206265206265747765656E PUSH1 0x44 DUP3 ADD MSTORE PUSH9 0x406240C2DCC840647 PUSH1 0xBB SHL PUSH1 0x64 DUP3 ADD MSTORE PUSH1 0x84 ADD PUSH2 0x42D JUMP JUMPDEST PUSH2 0xFFFF DUP3 AND PUSH1 0x0 SWAP1 DUP2 MSTORE PUSH1 0x7 PUSH1 0x20 SWAP1 DUP2 MSTORE PUSH1 0x40 DUP1 DUP4 KECCAK256 DUP1 SLOAD PUSH1 0x1 DUP2 DUP2 ADD DUP4 SSTORE SWAP2 DUP6 MSTORE SWAP4 DUP4 SWAP1 KECCAK256 DUP6 MLOAD PUSH1 0x5 SWAP1 SWAP6 MUL ADD SWAP4 DUP5 SSTORE SWAP2 DUP5 ADD MLOAD DUP4 DUP4 ADD SSTORE DUP4 ADD MLOAD PUSH1 0x2 DUP4 ADD DUP1 SLOAD PUSH1 0x60 DUP7 ADD MLOAD PUSH1 0x80 DUP8 ADD MLOAD ISZERO ISZERO PUSH1 0x1 PUSH1 0xA8 SHL MUL PUSH1 0xFF PUSH1 0xA8 SHL NOT SWAP2 ISZERO ISZERO PUSH1 0x1 PUSH1 0xA0 SHL SWAP1 DUP2 MUL PUSH1 0x1 PUSH1 0x1 PUSH1 0xA8 SHL SUB NOT SWAP5 DUP6 AND PUSH1 0x1 PUSH1 0x1 PUSH1 0xA0 SHL SUB SWAP8 DUP9 AND OR OR SWAP3 SWAP1 SWAP3 AND OR SWAP1 SWAP3 SSTORE PUSH1 0xA0 DUP7 ADD MLOAD PUSH1 0x3 DUP7 ADD DUP1 SLOAD SWAP2 SWAP1 SWAP5 AND PUSH1 0x1 PUSH1 0x1 PUSH1 0xA0 SHL SUB NOT DUP3 AND DUP2 OR DUP6 SSTORE PUSH1 0xC0 DUP9 ADD MLOAD DUP9 SWAP8 SWAP7 SWAP1 SWAP6 SWAP5 SWAP3 SWAP1 SWAP4 AND OR SWAP2 DUP5 SWAP1 DUP2 GT ISZERO PUSH2 0xCE4 JUMPI PUSH2 0xCE4 PUSH2 0x50E3 JUMP JUMPDEST MUL OR SWAP1 SSTORE POP PUSH1 0xE0 DUP3 ADD MLOAD PUSH1 0x3 DUP3 ADD DUP1 SLOAD PUSH2 0xFFFF SWAP1 SWAP3 AND PUSH1 0x1 PUSH1 0xA8 SHL MUL PUSH2 0xFFFF PUSH1 0xA8 SHL NOT SWAP1 SWAP3 AND SWAP2 SWAP1 SWAP2 OR SWAP1 SSTORE PUSH2 0x100 DUP3 ADD MLOAD DUP1 MLOAD PUSH2 0xD2C SWAP2 PUSH1 0x4 DUP5 ADD SWAP2 PUSH1 0x20 SWAP1 SWAP2 ADD SWAP1 PUSH2 0x4F3D JUMP JUMPDEST POP POP POP JUMPDEST PUSH1 0x1 DUP4 PUSH1 0x1 DUP2 GT ISZERO PUSH2 0xD44 JUMPI PUSH2 0xD44 PUSH2 0x50E3 JUMP JUMPDEST EQ ISZERO PUSH2 0xED4 JUMPI DUP2 PUSH2 0xFFFF AND PUSH1 0x0 LT DUP1 ISZERO PUSH2 0xD64 JUMPI POP PUSH2 0x16D DUP3 PUSH2 0xFFFF AND GT ISZERO JUMPDEST PUSH2 0xDC2 JUMPI PUSH1 0x40 MLOAD PUSH3 0x461BCD PUSH1 0xE5 SHL DUP2 MSTORE PUSH1 0x20 PUSH1 0x4 DUP3 ADD MSTORE PUSH1 0x29 PUSH1 0x24 DUP3 ADD MSTORE PUSH32 0x596561726C79206475652064617465206D757374206265206265747765656E20 PUSH1 0x44 DUP3 ADD MSTORE PUSH9 0x3120616E6420333635 PUSH1 0xB8 SHL PUSH1 0x64 DUP3 ADD MSTORE PUSH1 0x84 ADD PUSH2 0x42D JUMP JUMPDEST PUSH2 0xFFFF DUP3 AND PUSH1 0x0 SWAP1 DUP2 MSTORE PUSH1 0x8 PUSH1 0x20 SWAP1 DUP2 MSTORE PUSH1 0x40 DUP1 DUP4 KECCAK256 DUP1 SLOAD PUSH1 0x1 DUP2 DUP2 ADD DUP4 SSTORE SWAP2 DUP6 MSTORE SWAP4 DUP4 SWAP1 KECCAK256 DUP6 MLOAD PUSH1 0x5 SWAP1 SWAP6 MUL ADD SWAP4 DUP5 SSTORE SWAP2 DUP5 ADD MLOAD DUP4 DUP4 ADD SSTORE DUP4 ADD MLOAD PUSH1 0x2 DUP4 ADD DUP1 SLOAD PUSH1 0x60 DUP7 ADD MLOAD PUSH1 0x80 DUP8 ADD MLOAD ISZERO ISZERO PUSH1 0x1 PUSH1 0xA8 SHL MUL PUSH1 0xFF PUSH1 0xA8 SHL NOT SWAP2 ISZERO ISZERO PUSH1 0x1 PUSH1 0xA0 SHL SWAP1 DUP2 MUL PUSH1 0x1 PUSH1 0x1 PUSH1 0xA8 SHL SUB NOT SWAP5 DUP6 AND PUSH1 0x1 PUSH1 0x1 PUSH1 0xA0 SHL SUB SWAP8 DUP9 AND OR OR SWAP3 SWAP1 SWAP3 AND OR SWAP1 SWAP3 SSTORE PUSH1 0xA0 DUP7 ADD MLOAD PUSH1 0x3 DUP7 ADD DUP1 SLOAD SWAP2 SWAP1 SWAP5 AND PUSH1 0x1 PUSH1 0x1 PUSH1 0xA0 SHL SUB NOT DUP3 AND DUP2 OR DUP6 SSTORE PUSH1 0xC0 DUP9 ADD MLOAD DUP9 SWAP8 SWAP7 SWAP1 SWAP6 SWAP5 SWAP3 SWAP1 SWAP4 AND OR SWAP2 DUP5 SWAP1 DUP2 GT ISZERO PUSH2 0xE88 JUMPI PUSH2 0xE88 PUSH2 0x50E3 JUMP JUMPDEST MUL OR SWAP1 SSTORE POP PUSH1 0xE0 DUP3 ADD MLOAD PUSH1 0x3 DUP3 ADD DUP1 SLOAD PUSH2 0xFFFF SWAP1 SWAP3 AND PUSH1 0x1 PUSH1 0xA8 SHL MUL PUSH2 0xFFFF PUSH1 0xA8 SHL NOT SWAP1 SWAP3 AND SWAP2 SWAP1 SWAP2 OR SWAP1 SSTORE PUSH2 0x100 DUP3 ADD MLOAD DUP1 MLOAD PUSH2 0xED0 SWAP2 PUSH1 0x4 DUP5 ADD SWAP2 PUSH1 0x20 SWAP1 SWAP2 ADD SWAP1 PUSH2 0x4F3D JUMP JUMPDEST POP POP POP JUMPDEST PUSH2 0xF10 PUSH1 0x40 MLOAD DUP1 PUSH1 0x60 ADD PUSH1 0x40 MSTORE DUP1 DUP4 PUSH1 0x0 ADD MLOAD DUP2 MSTORE PUSH1 0x20 ADD DUP4 PUSH1 0xE0 ADD MLOAD PUSH2 0xFFFF AND DUP2 MSTORE PUSH1 0x20 ADD DUP4 PUSH1 0xC0 ADD MLOAD PUSH1 0x1 DUP2 GT ISZERO PUSH2 0xA7C JUMPI PUSH2 0xA7C PUSH2 0x50E3 JUMP JUMPDEST POP POP POP POP POP POP POP JUMP JUMPDEST PUSH2 0xF21 PUSH2 0x36B9 JUMP JUMPDEST PUSH1 0x1 SSTORE JUMP JUMPDEST CALLER PUSH1 0x0 SWAP1 DUP2 MSTORE PUSH1 0x3 PUSH1 0x20 SWAP1 DUP2 MSTORE PUSH1 0x40 DUP1 DUP4 KECCAK256 PUSH1 0x2 ADD DUP1 SLOAD DUP3 MLOAD DUP2 DUP6 MUL DUP2 ADD DUP6 ADD SWAP1 SWAP4 MSTORE DUP1 DUP4 MSTORE PUSH1 0x60 SWAP5 SWAP4 DUP5 SWAP1 DUP5 ADD JUMPDEST DUP3 DUP3 LT ISZERO PUSH2 0xFD5 JUMPI PUSH1 0x0 DUP5 DUP2 MSTORE PUSH1 0x20 SWAP1 DUP2 SWAP1 KECCAK256 PUSH1 0x40 DUP1 MLOAD PUSH1 0x60 DUP2 ADD DUP3 MSTORE PUSH1 0x2 DUP7 MUL SWAP1 SWAP3 ADD DUP1 SLOAD DUP4 MSTORE PUSH1 0x1 DUP1 DUP3 ADD SLOAD PUSH2 0xFFFF DUP2 AND SWAP6 DUP6 ADD SWAP6 SWAP1 SWAP6 MSTORE SWAP3 SWAP4 SWAP1 SWAP3 SWAP2 DUP5 ADD SWAP2 PUSH3 0x10000 SWAP1 SWAP2 DIV PUSH1 0xFF AND SWAP1 DUP2 GT ISZERO PUSH2 0xFB1 JUMPI PUSH2 0xFB1 PUSH2 0x50E3 JUMP JUMPDEST PUSH1 0x1 DUP2 GT ISZERO PUSH2 0xFC2 JUMPI PUSH2 0xFC2 PUSH2 0x50E3 JUMP JUMPDEST DUP2 MSTORE POP POP DUP2 MSTORE PUSH1 0x20 ADD SWAP1 PUSH1 0x1 ADD SWAP1 PUSH2 0xF55 JUMP JUMPDEST POP POP POP POP SWAP1 POP PUSH1 0x0 DUP2 MLOAD PUSH1 0x1 PUSH1 0x1 PUSH1 0x40 SHL SUB DUP2 GT ISZERO PUSH2 0xFF6 JUMPI PUSH2 0xFF6 PUSH2 0x55F2 JUMP JUMPDEST PUSH1 0x40 MLOAD SWAP1 DUP1 DUP3 MSTORE DUP1 PUSH1 0x20 MUL PUSH1 0x20 ADD DUP3 ADD PUSH1 0x40 MSTORE DUP1 ISZERO PUSH2 0x102F JUMPI DUP2 PUSH1 0x20 ADD JUMPDEST PUSH2 0x101C PUSH2 0x4FC1 JUMP JUMPDEST DUP2 MSTORE PUSH1 0x20 ADD SWAP1 PUSH1 0x1 SWAP1 SUB SWAP1 DUP2 PUSH2 0x1014 JUMPI SWAP1 POP JUMPDEST POP SWAP1 POP PUSH1 0x0 JUMPDEST DUP3 MLOAD DUP2 LT ISZERO PUSH2 0x1090 JUMPI PUSH2 0x1060 DUP4 DUP3 DUP2 MLOAD DUP2 LT PUSH2 0x1053 JUMPI PUSH2 0x1053 PUSH2 0x575A JUMP JUMPDEST PUSH1 0x20 MUL PUSH1 0x20 ADD ADD MLOAD PUSH2 0x3DBA JUMP JUMPDEST DUP3 DUP3 DUP2 MLOAD DUP2 LT PUSH2 0x1072 JUMPI PUSH2 0x1072 PUSH2 0x575A JUMP JUMPDEST PUSH1 0x20 MUL PUSH1 0x20 ADD ADD DUP2 SWAP1 MSTORE POP DUP1 DUP1 PUSH2 0x1088 SWAP1 PUSH2 0x5786 JUMP JUMPDEST SWAP2 POP POP PUSH2 0x1035 JUMP JUMPDEST POP SWAP3 SWAP2 POP POP JUMP JUMPDEST PUSH1 0xE SLOAD PUSH1 0xFF AND PUSH2 0x139D JUMPI PUSH2 0x10A9 PUSH2 0x37BA JUMP JUMPDEST PUSH2 0x10B2 DUP4 PUSH2 0x420D JUMP JUMPDEST PUSH1 0x1 PUSH1 0x1 PUSH1 0xA0 SHL SUB DUP2 AND PUSH2 0x10FE JUMPI CALLVALUE PUSH1 0x64 PUSH1 0x1 SLOAD DUP5 PUSH2 0x10D1 SWAP2 SWAP1 PUSH2 0x5854 JUMP JUMPDEST PUSH2 0x10DB SWAP2 SWAP1 PUSH2 0x5889 JUMP JUMPDEST GT ISZERO PUSH2 0x10F9 JUMPI PUSH1 0x40 MLOAD PUSH3 0x461BCD PUSH1 0xE5 SHL DUP2 MSTORE PUSH1 0x4 ADD PUSH2 0x42D SWAP1 PUSH2 0x57E6 JUMP JUMPDEST PUSH2 0x1226 JUMP JUMPDEST CALLVALUE PUSH1 0x2 SLOAD GT ISZERO PUSH2 0x1120 JUMPI PUSH1 0x40 MLOAD PUSH3 0x461BCD PUSH1 0xE5 SHL DUP2 MSTORE PUSH1 0x4 ADD PUSH2 0x42D SWAP1 PUSH2 0x57E6 JUMP JUMPDEST PUSH2 0x1129 DUP2 PUSH2 0x36F9 JUMP JUMPDEST PUSH2 0x1145 JUMPI PUSH1 0x40 MLOAD PUSH3 0x461BCD PUSH1 0xE5 SHL DUP2 MSTORE PUSH1 0x4 ADD PUSH2 0x42D SWAP1 PUSH2 0x5839 JUMP JUMPDEST CALLER PUSH1 0x0 SWAP1 DUP2 MSTORE PUSH1 0xB PUSH1 0x20 SWAP1 DUP2 MSTORE PUSH1 0x40 DUP1 DUP4 KECCAK256 PUSH1 0x1 PUSH1 0x1 PUSH1 0xA0 SHL SUB DUP6 AND DUP5 MSTORE SWAP1 SWAP2 MSTORE SWAP1 KECCAK256 SLOAD PUSH2 0x1174 SWAP1 DUP4 SWAP1 PUSH2 0x57B8 JUMP JUMPDEST PUSH1 0x40 MLOAD PUSH4 0x6EB1769F PUSH1 0xE1 SHL DUP2 MSTORE CALLER PUSH1 0x4 DUP3 ADD MSTORE ADDRESS PUSH1 0x24 DUP3 ADD MSTORE PUSH1 0x1 PUSH1 0x1 PUSH1 0xA0 SHL SUB DUP4 AND SWAP1 PUSH4 0xDD62ED3E SWAP1 PUSH1 0x44 ADD PUSH1 0x20 PUSH1 0x40 MLOAD DUP1 DUP4 SUB DUP2 PUSH1 0x0 DUP8 DUP1 EXTCODESIZE ISZERO DUP1 ISZERO PUSH2 0x11BB JUMPI PUSH1 0x0 DUP1 REVERT JUMPDEST POP GAS CALL ISZERO DUP1 ISZERO PUSH2 0x11CF JUMPI RETURNDATASIZE PUSH1 0x0 DUP1 RETURNDATACOPY RETURNDATASIZE PUSH1 0x0 REVERT JUMPDEST POP POP POP POP PUSH1 0x40 MLOAD RETURNDATASIZE PUSH1 0x1F NOT PUSH1 0x1F DUP3 ADD AND DUP3 ADD DUP1 PUSH1 0x40 MSTORE POP DUP2 ADD SWAP1 PUSH2 0x11F3 SWAP2 SWAP1 PUSH2 0x589D JUMP JUMPDEST LT ISZERO PUSH2 0x1226 JUMPI PUSH1 0x40 MLOAD PUSH3 0x461BCD PUSH1 0xE5 SHL DUP2 MSTORE PUSH1 0x20 PUSH1 0x4 DUP3 ADD MSTORE PUSH1 0x2 PUSH1 0x24 DUP3 ADD MSTORE PUSH2 0x3133 PUSH1 0xF0 SHL PUSH1 0x44 DUP3 ADD MSTORE PUSH1 0x64 ADD PUSH2 0x42D JUMP JUMPDEST PUSH1 0x0 PUSH2 0x1231 DUP5 PUSH2 0x37EB JUMP JUMPDEST SWAP1 POP PUSH1 0x0 PUSH2 0x1242 CALLER DUP8 DUP6 DUP6 DUP9 PUSH2 0x428B JUMP JUMPDEST PUSH5 0xFFFFFFFFFF DUP1 DUP5 AND PUSH1 0x0 SWAP1 DUP2 MSTORE PUSH1 0x5 PUSH1 0x20 DUP2 DUP2 MSTORE PUSH1 0x40 DUP1 DUP5 KECCAK256 DUP1 SLOAD PUSH1 0x1 DUP2 DUP2 ADD DUP4 SSTORE SWAP2 DUP7 MSTORE SWAP5 DUP4 SWAP1 KECCAK256 DUP8 MLOAD SWAP6 SWAP1 SWAP5 MUL SWAP1 SWAP4 ADD SWAP4 DUP5 SSTORE SWAP1 DUP6 ADD MLOAD SWAP2 DUP4 ADD DUP1 SLOAD PUSH1 0x1 PUSH1 0x1 PUSH1 0xA0 SHL SUB SWAP4 DUP5 AND PUSH1 0x1 PUSH1 0x1 PUSH1 0xA0 SHL SUB NOT SWAP2 DUP3 AND OR SWAP1 SWAP2 SSTORE SWAP1 DUP6 ADD MLOAD PUSH1 0x2 DUP5 ADD DUP1 SLOAD SWAP2 DUP5 AND SWAP2 SWAP1 SWAP3 AND OR SWAP1 SSTORE PUSH1 0x60 DUP5 ADD MLOAD PUSH1 0x3 DUP1 DUP5 ADD DUP1 SLOAD PUSH1 0x80 DUP9 ADD MLOAD SWAP1 SWAP7 AND PUSH1 0x1 PUSH1 0xA0 SHL MUL PUSH1 0x1 PUSH1 0x1 PUSH1 0xC8 SHL SUB NOT SWAP1 SWAP7 AND SWAP3 SWAP1 SWAP4 AND SWAP2 SWAP1 SWAP2 OR SWAP4 SWAP1 SWAP4 OR DUP1 DUP3 SSTORE PUSH1 0xA0 DUP6 ADD MLOAD SWAP5 SWAP6 POP DUP6 SWAP5 SWAP3 SWAP4 PUSH1 0xFF PUSH1 0xC8 SHL NOT SWAP1 SWAP2 AND SWAP1 PUSH1 0x1 PUSH1 0xC8 SHL SWAP1 DUP5 SWAP1 DUP2 GT ISZERO PUSH2 0x1312 JUMPI PUSH2 0x1312 PUSH2 0x50E3 JUMP JUMPDEST MUL OR SWAP1 SSTORE POP PUSH1 0xC0 SWAP2 SWAP1 SWAP2 ADD MLOAD PUSH1 0x4 SWAP1 SWAP2 ADD SSTORE DUP1 MLOAD PUSH1 0x6 DUP1 SLOAD PUSH1 0x1 DUP2 ADD DUP3 SSTORE PUSH1 0x0 SWAP2 SWAP1 SWAP2 MSTORE PUSH32 0xF652222313E28459528D920B65115C16C04F3EFC82AAEDC97BE59F3F377C0D3F ADD SSTORE PUSH2 0x1362 DUP3 PUSH2 0x4359 JUMP JUMPDEST CALLER PUSH1 0x0 SWAP1 DUP2 MSTORE PUSH1 0xB PUSH1 0x20 SWAP1 DUP2 MSTORE PUSH1 0x40 DUP1 DUP4 KECCAK256 PUSH1 0x1 PUSH1 0x1 PUSH1 0xA0 SHL SUB DUP8 AND DUP5 MSTORE SWAP1 SWAP2 MSTORE DUP2 KECCAK256 DUP1 SLOAD DUP7 SWAP3 SWAP1 PUSH2 0x1395 SWAP1 DUP5 SWAP1 PUSH2 0x57B8 JUMP JUMPDEST SWAP1 SWAP2 SSTORE POP POP POP POP JUMPDEST POP POP POP POP JUMP JUMPDEST PUSH2 0x13AB PUSH2 0x36B9 JUMP JUMPDEST PUSH1 0x2 SSTORE JUMP JUMPDEST PUSH2 0x13B8 PUSH2 0x36B9 JUMP JUMPDEST CALLER PUSH1 0x1 PUSH1 0x1 PUSH1 0xA0 SHL SUB DUP3 AND EQ DUP1 ISZERO PUSH2 0x13D8 JUMPI POP PUSH1 0x1 PUSH1 0x1 PUSH1 0xA0 SHL SUB DUP2 AND ISZERO ISZERO JUMPDEST PUSH2 0x13E1 JUMPI PUSH1 0x0 DUP1 REVERT JUMPDEST PUSH1 0x0 DUP1 SLOAD PUSH1 0x1 PUSH1 0x1 PUSH1 0xA0 SHL SUB NOT AND PUSH1 0x1 PUSH1 0x1 PUSH1 0xA0 SHL SUB SWAP3 SWAP1 SWAP3 AND SWAP2 SWAP1 SWAP2 OR SWAP1 SSTORE JUMP JUMPDEST PUSH2 0x140B PUSH2 0x36B9 JUMP JUMPDEST PUSH1 0x0 PUSH2 0x1416 TIMESTAMP PUSH2 0x37EB JUMP JUMPDEST PUSH1 0xE SLOAD SWAP1 SWAP2 POP PUSH5 0xFFFFFFFFFF PUSH2 0x100 SWAP1 SWAP2 DIV DUP2 AND SWAP1 DUP3 AND GT PUSH2 0x145F JUMPI PUSH1 0x40 MLOAD PUSH3 0x461BCD PUSH1 0xE5 SHL DUP2 MSTORE PUSH1 0x20 PUSH1 0x4 DUP3 ADD MSTORE PUSH1 0x2 PUSH1 0x24 DUP3 ADD MSTORE PUSH2 0xC4D PUSH1 0xF2 SHL PUSH1 0x44 DUP3 ADD MSTORE PUSH1 0x64 ADD PUSH2 0x42D JUMP JUMPDEST PUSH1 0xE SLOAD PUSH2 0x100 SWAP1 DIV PUSH5 0xFFFFFFFFFF AND JUMPDEST DUP2 PUSH5 0xFFFFFFFFFF AND DUP2 PUSH5 0xFFFFFFFFFF AND GT PUSH2 0x15B1 JUMPI PUSH5 0xFFFFFFFFFF DUP2 AND PUSH1 0x0 SWAP1 DUP2 MSTORE PUSH1 0x5 PUSH1 0x20 MSTORE PUSH1 0x40 SWAP1 KECCAK256 SLOAD ISZERO PUSH2 0x159F JUMPI PUSH5 0xFFFFFFFFFF DUP2 AND PUSH1 0x0 SWAP1 DUP2 MSTORE PUSH1 0x5 PUSH1 0x20 SWAP1 DUP2 MSTORE PUSH1 0x40 DUP1 DUP4 KECCAK256 DUP1 SLOAD DUP3 MLOAD DUP2 DUP6 MUL DUP2 ADD DUP6 ADD SWAP1 SWAP4 MSTORE DUP1 DUP4 MSTORE PUSH2 0x159F SWAP5 SWAP3 SWAP4 SWAP2 SWAP3 SWAP1 SWAP2 DUP5 ADD JUMPDEST DUP3 DUP3 LT ISZERO PUSH2 0x1596 JUMPI PUSH1 0x0 DUP5 DUP2 MSTORE PUSH1 0x20 SWAP1 DUP2 SWAP1 KECCAK256 PUSH1 0x40 DUP1 MLOAD PUSH1 0xE0 DUP2 ADD DUP3 MSTORE PUSH1 0x5 DUP7 MUL SWAP1 SWAP3 ADD DUP1 SLOAD DUP4 MSTORE PUSH1 0x1 DUP2 ADD SLOAD PUSH1 0x1 PUSH1 0x1 PUSH1 0xA0 SHL SUB SWAP1 DUP2 AND SWAP5 DUP5 ADD SWAP5 SWAP1 SWAP5 MSTORE PUSH1 0x2 DUP2 ADD SLOAD DUP5 AND SWAP2 DUP4 ADD SWAP2 SWAP1 SWAP2 MSTORE PUSH1 0x3 DUP1 DUP3 ADD SLOAD SWAP4 DUP5 AND PUSH1 0x60 DUP5 ADD MSTORE PUSH1 0x1 PUSH1 0xA0 SHL DUP5 DIV PUSH5 0xFFFFFFFFFF AND PUSH1 0x80 DUP5 ADD MSTORE SWAP2 SWAP3 SWAP1 SWAP2 PUSH1 0xA0 DUP5 ADD SWAP2 PUSH1 0x1 PUSH1 0xC8 SHL SWAP1 DIV PUSH1 0xFF AND SWAP1 DUP2 GT ISZERO PUSH2 0x1568 JUMPI PUSH2 0x1568 PUSH2 0x50E3 JUMP JUMPDEST PUSH1 0x3 DUP2 GT ISZERO PUSH2 0x1579 JUMPI PUSH2 0x1579 PUSH2 0x50E3 JUMP JUMPDEST DUP2 MSTORE PUSH1 0x20 ADD PUSH1 0x4 DUP3 ADD SLOAD DUP2 MSTORE POP POP DUP2 MSTORE PUSH1 0x20 ADD SWAP1 PUSH1 0x1 ADD SWAP1 PUSH2 0x14D7 JUMP JUMPDEST POP POP POP POP PUSH2 0x450F JUMP JUMPDEST DUP1 PUSH2 0x15A9 DUP2 PUSH2 0x58B6 JUMP JUMPDEST SWAP2 POP POP PUSH2 0x146F JUMP JUMPDEST POP PUSH1 0xE DUP1 SLOAD PUSH5 0xFFFFFFFFFF SWAP1 SWAP3 AND PUSH2 0x100 MUL PUSH6 0xFFFFFFFFFF00 NOT SWAP1 SWAP3 AND SWAP2 SWAP1 SWAP2 OR SWAP1 SSTORE JUMP JUMPDEST PUSH2 0x15DE PUSH2 0x36B9 JUMP JUMPDEST PUSH1 0x1 PUSH1 0x1 PUSH1 0xA0 SHL SUB DUP2 AND PUSH2 0x15F1 JUMPI PUSH1 0x0 DUP1 REVERT JUMPDEST PUSH2 0x15FA DUP2 PUSH2 0x36F9 JUMP JUMPDEST ISZERO PUSH2 0x162B JUMPI PUSH1 0x40 MLOAD PUSH3 0x461BCD PUSH1 0xE5 SHL DUP2 MSTORE PUSH1 0x20 PUSH1 0x4 DUP3 ADD MSTORE PUSH1 0x1 PUSH1 0x24 DUP3 ADD MSTORE PUSH1 0x31 PUSH1 0xF8 SHL PUSH1 0x44 DUP3 ADD MSTORE PUSH1 0x64 ADD PUSH2 0x42D JUMP JUMPDEST PUSH1 0xD DUP1 SLOAD PUSH1 0x1 DUP2 ADD DUP3 SSTORE PUSH1 0x0 SWAP2 SWAP1 SWAP2 MSTORE PUSH32 0xD7B6990105719101DABEB77144F2A3385C8033ACD3AF97E9423A695E81AD1EB5 ADD DUP1 SLOAD PUSH1 0x1 PUSH1 0x1 PUSH1 0xA0 SHL SUB NOT AND PUSH1 0x1 PUSH1 0x1 PUSH1 0xA0 SHL SUB SWAP3 SWAP1 SWAP3 AND SWAP2 SWAP1 SWAP2 OR SWAP1 SSTORE JUMP JUMPDEST CALLER PUSH1 0x0 SWAP1 DUP2 MSTORE PUSH1 0x3 PUSH1 0x20 SWAP1 DUP2 MSTORE PUSH1 0x40 DUP1 DUP4 KECCAK256 PUSH1 0x1 ADD DUP1 SLOAD DUP3 MLOAD DUP2 DUP6 MUL DUP2 ADD DUP6 ADD SWAP1 SWAP4 MSTORE DUP1 DUP4 MSTORE PUSH1 0x60 SWAP5 SWAP4 DUP4 ADD DUP3 DUP3 DUP1 ISZERO PUSH2 0x1704 JUMPI PUSH1 0x20 MUL DUP3 ADD SWAP2 SWAP1 PUSH1 0x0 MSTORE PUSH1 0x20 PUSH1 0x0 KECCAK256 SWAP1 PUSH1 0x0 SWAP1 JUMPDEST DUP3 DUP3 SWAP1 SLOAD SWAP1 PUSH2 0x100 EXP SWAP1 DIV PUSH5 0xFFFFFFFFFF AND PUSH5 0xFFFFFFFFFF AND DUP2 MSTORE PUSH1 0x20 ADD SWAP1 PUSH1 0x5 ADD SWAP1 PUSH1 0x20 DUP3 PUSH1 0x4 ADD DIV SWAP3 DUP4 ADD SWAP3 PUSH1 0x1 SUB DUP3 MUL SWAP2 POP DUP1 DUP5 GT PUSH2 0x16C5 JUMPI SWAP1 POP JUMPDEST POP POP POP POP POP SWAP1 POP PUSH1 0x0 DUP1 JUMPDEST DUP3 MLOAD DUP2 LT ISZERO PUSH2 0x185C JUMPI PUSH1 0x0 PUSH1 0x5 PUSH1 0x0 DUP6 DUP5 DUP2 MLOAD DUP2 LT PUSH2 0x1730 JUMPI PUSH2 0x1730 PUSH2 0x575A JUMP JUMPDEST PUSH1 0x20 MUL PUSH1 0x20 ADD ADD MLOAD PUSH5 0xFFFFFFFFFF AND PUSH5 0xFFFFFFFFFF AND DUP2 MSTORE PUSH1 0x20 ADD SWAP1 DUP2 MSTORE PUSH1 0x20 ADD PUSH1 0x0 KECCAK256 DUP1 SLOAD DUP1 PUSH1 0x20 MUL PUSH1 0x20 ADD PUSH1 0x40 MLOAD SWAP1 DUP2 ADD PUSH1 0x40 MSTORE DUP1 SWAP3 SWAP2 SWAP1 DUP2 DUP2 MSTORE PUSH1 0x20 ADD PUSH1 0x0 SWAP1 JUMPDEST DUP3 DUP3 LT ISZERO PUSH2 0x1833 JUMPI PUSH1 0x0 DUP5 DUP2 MSTORE PUSH1 0x20 SWAP1 DUP2 SWAP1 KECCAK256 PUSH1 0x40 DUP1 MLOAD PUSH1 0xE0 DUP2 ADD DUP3 MSTORE PUSH1 0x5 DUP7 MUL SWAP1 SWAP3 ADD DUP1 SLOAD DUP4 MSTORE PUSH1 0x1 DUP2 ADD SLOAD PUSH1 0x1 PUSH1 0x1 PUSH1 0xA0 SHL SUB SWAP1 DUP2 AND SWAP5 DUP5 ADD SWAP5 SWAP1 SWAP5 MSTORE PUSH1 0x2 DUP2 ADD SLOAD DUP5 AND SWAP2 DUP4 ADD SWAP2 SWAP1 SWAP2 MSTORE PUSH1 0x3 DUP1 DUP3 ADD SLOAD SWAP4 DUP5 AND PUSH1 0x60 DUP5 ADD MSTORE PUSH1 0x1 PUSH1 0xA0 SHL DUP5 DIV PUSH5 0xFFFFFFFFFF AND PUSH1 0x80 DUP5 ADD MSTORE SWAP2 SWAP3 SWAP1 SWAP2 PUSH1 0xA0 DUP5 ADD SWAP2 PUSH1 0x1 PUSH1 0xC8 SHL SWAP1 DIV PUSH1 0xFF AND SWAP1 DUP2 GT ISZERO PUSH2 0x1805 JUMPI PUSH2 0x1805 PUSH2 0x50E3 JUMP JUMPDEST PUSH1 0x3 DUP2 GT ISZERO PUSH2 0x1816 JUMPI PUSH2 0x1816 PUSH2 0x50E3 JUMP JUMPDEST DUP2 MSTORE PUSH1 0x20 ADD PUSH1 0x4 DUP3 ADD SLOAD DUP2 MSTORE POP POP DUP2 MSTORE PUSH1 0x20 ADD SWAP1 PUSH1 0x1 ADD SWAP1 PUSH2 0x1774 JUMP JUMPDEST POP POP POP POP SWAP1 POP DUP1 MLOAD DUP4 PUSH2 0x1846 SWAP2 SWAP1 PUSH2 0x57B8 JUMP JUMPDEST SWAP3 POP POP DUP1 DUP1 PUSH2 0x1854 SWAP1 PUSH2 0x5786 JUMP JUMPDEST SWAP2 POP POP PUSH2 0x170F JUMP JUMPDEST POP PUSH1 0x0 DUP2 PUSH1 0x1 PUSH1 0x1 PUSH1 0x40 SHL SUB DUP2 GT ISZERO PUSH2 0x1877 JUMPI PUSH2 0x1877 PUSH2 0x55F2 JUMP JUMPDEST PUSH1 0x40 MLOAD SWAP1 DUP1 DUP3 MSTORE DUP1 PUSH1 0x20 MUL PUSH1 0x20 ADD DUP3 ADD PUSH1 0x40 MSTORE DUP1 ISZERO PUSH2 0x18B0 JUMPI DUP2 PUSH1 0x20 ADD JUMPDEST PUSH2 0x189D PUSH2 0x4F00 JUMP JUMPDEST DUP2 MSTORE PUSH1 0x20 ADD SWAP1 PUSH1 0x1 SWAP1 SUB SWAP1 DUP2 PUSH2 0x1895 JUMPI SWAP1 POP JUMPDEST POP SWAP1 POP PUSH1 0x0 DUP3 PUSH1 0x1 PUSH1 0x1 PUSH1 0x40 SHL SUB DUP2 GT ISZERO PUSH2 0x18CD JUMPI PUSH2 0x18CD PUSH2 0x55F2 JUMP JUMPDEST PUSH1 0x40 MLOAD SWAP1 DUP1 DUP3 MSTORE DUP1 PUSH1 0x20 MUL PUSH1 0x20 ADD DUP3 ADD PUSH1 0x40 MSTORE DUP1 ISZERO PUSH2 0x1906 JUMPI DUP2 PUSH1 0x20 ADD JUMPDEST PUSH2 0x18F3 PUSH2 0x4F00 JUMP JUMPDEST DUP2 MSTORE PUSH1 0x20 ADD SWAP1 PUSH1 0x1 SWAP1 SUB SWAP1 DUP2 PUSH2 0x18EB JUMPI SWAP1 POP JUMPDEST POP SWAP1 POP PUSH1 0x0 DUP1 JUMPDEST DUP6 MLOAD DUP2 LT ISZERO PUSH2 0x1AE3 JUMPI PUSH1 0x5 PUSH1 0x0 DUP8 DUP4 DUP2 MLOAD DUP2 LT PUSH2 0x192C JUMPI PUSH2 0x192C PUSH2 0x575A JUMP JUMPDEST PUSH1 0x20 MUL PUSH1 0x20 ADD ADD MLOAD PUSH5 0xFFFFFFFFFF AND PUSH5 0xFFFFFFFFFF AND DUP2 MSTORE PUSH1 0x20 ADD SWAP1 DUP2 MSTORE PUSH1 0x20 ADD PUSH1 0x0 KECCAK256 DUP1 SLOAD DUP1 PUSH1 0x20 MUL PUSH1 0x20 ADD PUSH1 0x40 MLOAD SWAP1 DUP2 ADD PUSH1 0x40 MSTORE DUP1 SWAP3 SWAP2 SWAP1 DUP2 DUP2 MSTORE PUSH1 0x20 ADD PUSH1 0x0 SWAP1 JUMPDEST DUP3 DUP3 LT ISZERO PUSH2 0x1A2F JUMPI PUSH1 0x0 DUP5 DUP2 MSTORE PUSH1 0x20 SWAP1 DUP2 SWAP1 KECCAK256 PUSH1 0x40 DUP1 MLOAD PUSH1 0xE0 DUP2 ADD DUP3 MSTORE PUSH1 0x5 DUP7 MUL SWAP1 SWAP3 ADD DUP1 SLOAD DUP4 MSTORE PUSH1 0x1 DUP2 ADD SLOAD PUSH1 0x1 PUSH1 0x1 PUSH1 0xA0 SHL SUB SWAP1 DUP2 AND SWAP5 DUP5 ADD SWAP5 SWAP1 SWAP5 MSTORE PUSH1 0x2 DUP2 ADD SLOAD DUP5 AND SWAP2 DUP4 ADD SWAP2 SWAP1 SWAP2 MSTORE PUSH1 0x3 DUP1 DUP3 ADD SLOAD SWAP4 DUP5 AND PUSH1 0x60 DUP5 ADD MSTORE PUSH1 0x1 PUSH1 0xA0 SHL DUP5 DIV PUSH5 0xFFFFFFFFFF AND PUSH1 0x80 DUP5 ADD MSTORE SWAP2 SWAP3 SWAP1 SWAP2 PUSH1 0xA0 DUP5 ADD SWAP2 PUSH1 0x1 PUSH1 0xC8 SHL SWAP1 DIV PUSH1 0xFF AND SWAP1 DUP2 GT ISZERO PUSH2 0x1A01 JUMPI PUSH2 0x1A01 PUSH2 0x50E3 JUMP JUMPDEST PUSH1 0x3 DUP2 GT ISZERO PUSH2 0x1A12 JUMPI PUSH2 0x1A12 PUSH2 0x50E3 JUMP JUMPDEST DUP2 MSTORE PUSH1 0x20 ADD PUSH1 0x4 DUP3 ADD SLOAD DUP2 MSTORE POP POP DUP2 MSTORE PUSH1 0x20 ADD SWAP1 PUSH1 0x1 ADD SWAP1 PUSH2 0x1970 JUMP JUMPDEST POP POP POP POP SWAP4 POP PUSH1 0x0 JUMPDEST DUP5 MLOAD DUP2 LT ISZERO PUSH2 0x1AD0 JUMPI CALLER PUSH1 0x1 PUSH1 0x1 PUSH1 0xA0 SHL SUB AND DUP6 DUP3 DUP2 MLOAD DUP2 LT PUSH2 0x1A5D JUMPI PUSH2 0x1A5D PUSH2 0x575A JUMP JUMPDEST PUSH1 0x20 MUL PUSH1 0x20 ADD ADD MLOAD PUSH1 0x20 ADD MLOAD PUSH1 0x1 PUSH1 0x1 PUSH1 0xA0 SHL SUB AND EQ ISZERO PUSH2 0x1ABE JUMPI DUP5 DUP2 DUP2 MLOAD DUP2 LT PUSH2 0x1A8A JUMPI PUSH2 0x1A8A PUSH2 0x575A JUMP JUMPDEST PUSH1 0x20 MUL PUSH1 0x20 ADD ADD MLOAD DUP5 DUP5 DUP2 MLOAD DUP2 LT PUSH2 0x1AA4 JUMPI PUSH2 0x1AA4 PUSH2 0x575A JUMP JUMPDEST PUSH1 0x20 MUL PUSH1 0x20 ADD ADD DUP2 SWAP1 MSTORE POP DUP3 DUP1 PUSH2 0x1ABA SWAP1 PUSH2 0x5786 JUMP JUMPDEST SWAP4 POP POP JUMPDEST DUP1 PUSH2 0x1AC8 DUP2 PUSH2 0x5786 JUMP JUMPDEST SWAP2 POP POP PUSH2 0x1A38 JUMP JUMPDEST POP DUP1 PUSH2 0x1ADB DUP2 PUSH2 0x5786 JUMP JUMPDEST SWAP2 POP POP PUSH2 0x190D JUMP JUMPDEST POP PUSH1 0x0 JUMPDEST DUP3 MLOAD DUP2 LT ISZERO PUSH2 0x1B54 JUMPI PUSH2 0x1B16 DUP4 DUP3 DUP2 MLOAD DUP2 LT PUSH2 0x1B05 JUMPI PUSH2 0x1B05 PUSH2 0x575A JUMP JUMPDEST PUSH1 0x20 MUL PUSH1 0x20 ADD ADD MLOAD PUSH1 0x80 ADD MLOAD PUSH2 0x4C65 JUMP JUMPDEST DUP4 DUP3 DUP2 MLOAD DUP2 LT PUSH2 0x1B28 JUMPI PUSH2 0x1B28 PUSH2 0x575A JUMP JUMPDEST PUSH1 0x20 SWAP1 DUP2 MUL SWAP2 SWAP1 SWAP2 ADD ADD MLOAD PUSH5 0xFFFFFFFFFF SWAP1 SWAP2 AND PUSH1 0x80 SWAP1 SWAP2 ADD MSTORE DUP1 PUSH2 0x1B4C DUP2 PUSH2 0x5786 JUMP JUMPDEST SWAP2 POP POP PUSH2 0x1AE7 JUMP JUMPDEST POP SWAP1 SWAP6 SWAP5 POP POP POP POP POP JUMP JUMPDEST PUSH1 0x60 PUSH2 0x1B69 PUSH2 0x36B9 JUMP JUMPDEST PUSH1 0x4 SLOAD PUSH1 0x0 SWAP1 PUSH1 0x1 PUSH1 0x1 PUSH1 0x40 SHL SUB DUP2 GT ISZERO PUSH2 0x1B86 JUMPI PUSH2 0x1B86 PUSH2 0x55F2 JUMP JUMPDEST PUSH1 0x40 MLOAD SWAP1 DUP1 DUP3 MSTORE DUP1 PUSH1 0x20 MUL PUSH1 0x20 ADD DUP3 ADD PUSH1 0x40 MSTORE DUP1 ISZERO PUSH2 0x1BDA JUMPI DUP2 PUSH1 0x20 ADD JUMPDEST PUSH1 0x40 DUP1 MLOAD PUSH1 0x80 DUP2 ADD DUP3 MSTORE PUSH1 0x0 DUP1 DUP3 MSTORE PUSH1 0x20 DUP3 ADD MSTORE PUSH1 0x60 SWAP2 DUP2 ADD DUP3 SWAP1 MSTORE DUP2 DUP2 ADD SWAP2 SWAP1 SWAP2 MSTORE DUP2 MSTORE PUSH1 0x20 ADD SWAP1 PUSH1 0x1 SWAP1 SUB SWAP1 DUP2 PUSH2 0x1BA4 JUMPI SWAP1 POP JUMPDEST POP SWAP1 POP PUSH1 0x0 JUMPDEST PUSH1 0x4 SLOAD DUP2 LT ISZERO PUSH2 0x1DA8 JUMPI PUSH1 0x3 PUSH1 0x0 PUSH1 0x4 DUP4 DUP2 SLOAD DUP2 LT PUSH2 0x1C01 JUMPI PUSH2 0x1C01 PUSH2 0x575A JUMP JUMPDEST PUSH1 0x0 SWAP2 DUP3 MSTORE PUSH1 0x20 DUP1 DUP4 KECCAK256 SWAP2 SWAP1 SWAP2 ADD SLOAD PUSH1 0x1 PUSH1 0x1 PUSH1 0xA0 SHL SUB SWAP1 DUP2 AND DUP5 MSTORE DUP4 DUP3 ADD SWAP5 SWAP1 SWAP5 MSTORE PUSH1 0x40 SWAP3 DUP4 ADD SWAP1 SWAP2 KECCAK256 DUP3 MLOAD PUSH1 0x80 DUP2 ADD DUP5 MSTORE DUP2 SLOAD SWAP5 DUP6 AND DUP2 MSTORE PUSH1 0x1 PUSH1 0xA0 SHL SWAP1 SWAP5 DIV PUSH1 0xFF AND ISZERO ISZERO DUP5 DUP4 ADD MSTORE PUSH1 0x1 DUP2 ADD DUP1 SLOAD DUP5 MLOAD DUP2 DUP6 MUL DUP2 ADD DUP6 ADD DUP7 MSTORE DUP2 DUP2 MSTORE SWAP3 SWAP5 DUP7 ADD SWAP4 DUP4 ADD DUP3 DUP3 DUP1 ISZERO PUSH2 0x1CC2 JUMPI PUSH1 0x20 MUL DUP3 ADD SWAP2 SWAP1 PUSH1 0x0 MSTORE PUSH1 0x20 PUSH1 0x0 KECCAK256 SWAP1 PUSH1 0x0 SWAP1 JUMPDEST DUP3 DUP3 SWAP1 SLOAD SWAP1 PUSH2 0x100 EXP SWAP1 DIV PUSH5 0xFFFFFFFFFF AND PUSH5 0xFFFFFFFFFF AND DUP2 MSTORE PUSH1 0x20 ADD SWAP1 PUSH1 0x5 ADD SWAP1 PUSH1 0x20 DUP3 PUSH1 0x4 ADD DIV SWAP3 DUP4 ADD SWAP3 PUSH1 0x1 SUB DUP3 MUL SWAP2 POP DUP1 DUP5 GT PUSH2 0x1C83 JUMPI SWAP1 POP JUMPDEST POP POP POP POP POP DUP2 MSTORE PUSH1 0x20 ADD PUSH1 0x2 DUP3 ADD DUP1 SLOAD DUP1 PUSH1 0x20 MUL PUSH1 0x20 ADD PUSH1 0x40 MLOAD SWAP1 DUP2 ADD PUSH1 0x40 MSTORE DUP1 SWAP3 SWAP2 SWAP1 DUP2 DUP2 MSTORE PUSH1 0x20 ADD PUSH1 0x0 SWAP1 JUMPDEST DUP3 DUP3 LT ISZERO PUSH2 0x1D70 JUMPI PUSH1 0x0 DUP5 DUP2 MSTORE PUSH1 0x20 SWAP1 DUP2 SWAP1 KECCAK256 PUSH1 0x40 DUP1 MLOAD PUSH1 0x60 DUP2 ADD DUP3 MSTORE PUSH1 0x2 DUP7 MUL SWAP1 SWAP3 ADD DUP1 SLOAD DUP4 MSTORE PUSH1 0x1 DUP1 DUP3 ADD SLOAD PUSH2 0xFFFF DUP2 AND SWAP6 DUP6 ADD SWAP6 SWAP1 SWAP6 MSTORE SWAP3 SWAP4 SWAP1 SWAP3 SWAP2 DUP5 ADD SWAP2 PUSH3 0x10000 SWAP1 SWAP2 DIV PUSH1 0xFF AND SWAP1 DUP2 GT ISZERO PUSH2 0x1D4C JUMPI PUSH2 0x1D4C PUSH2 0x50E3 JUMP JUMPDEST PUSH1 0x1 DUP2 GT ISZERO PUSH2 0x1D5D JUMPI PUSH2 0x1D5D PUSH2 0x50E3 JUMP JUMPDEST DUP2 MSTORE POP POP DUP2 MSTORE PUSH1 0x20 ADD SWAP1 PUSH1 0x1 ADD SWAP1 PUSH2 0x1CF0 JUMP JUMPDEST POP POP POP POP DUP2 MSTORE POP POP DUP3 DUP3 DUP2 MLOAD DUP2 LT PUSH2 0x1D8A JUMPI PUSH2 0x1D8A PUSH2 0x575A JUMP JUMPDEST PUSH1 0x20 MUL PUSH1 0x20 ADD ADD DUP2 SWAP1 MSTORE POP DUP1 DUP1 PUSH2 0x1DA0 SWAP1 PUSH2 0x5786 JUMP JUMPDEST SWAP2 POP POP PUSH2 0x1BE0 JUMP JUMPDEST POP SWAP1 POP SWAP1 JUMP JUMPDEST PUSH1 0xE SLOAD PUSH1 0xFF AND PUSH2 0xA83 JUMPI PUSH2 0x1DC0 PUSH2 0x37BA JUMP JUMPDEST PUSH1 0x1 DUP2 MLOAD GT DUP1 ISZERO PUSH2 0x1DD2 JUMPI POP PUSH1 0x64 DUP2 MLOAD LT JUMPDEST PUSH2 0x1E29 JUMPI PUSH1 0x40 MLOAD PUSH3 0x461BCD PUSH1 0xE5 SHL DUP2 MSTORE PUSH1 0x20 PUSH1 0x4 DUP3 ADD MSTORE PUSH1 0x22 PUSH1 0x24 DUP3 ADD MSTORE PUSH32 0x4261746368206D757374203E206F6E65207472616E73616374696F6E203C2031 PUSH1 0x44 DUP3 ADD MSTORE PUSH2 0x303 PUSH1 0xF4 SHL PUSH1 0x64 DUP3 ADD MSTORE PUSH1 0x84 ADD PUSH2 0x42D JUMP JUMPDEST PUSH2 0x1E54 PUSH1 0x40 MLOAD DUP1 PUSH1 0x80 ADD PUSH1 0x40 MSTORE DUP1 PUSH1 0x0 DUP2 MSTORE PUSH1 0x20 ADD PUSH1 0x0 DUP2 MSTORE PUSH1 0x20 ADD PUSH1 0x0 DUP2 MSTORE PUSH1 0x20 ADD PUSH1 0x60 DUP2 MSTORE POP SWAP1 JUMP JUMPDEST CALLVALUE DUP3 MLOAD PUSH1 0x2 SLOAD PUSH2 0x1E64 SWAP2 SWAP1 PUSH2 0x5854 JUMP JUMPDEST GT ISZERO PUSH2 0x1E82 JUMPI PUSH1 0x40 MLOAD PUSH3 0x461BCD PUSH1 0xE5 SHL DUP2 MSTORE PUSH1 0x4 ADD PUSH2 0x42D SWAP1 PUSH2 0x57E6 JUMP JUMPDEST PUSH1 0xD SLOAD PUSH1 0x0 SWAP1 PUSH1 0x1 PUSH1 0x1 PUSH1 0x40 SHL SUB DUP2 GT ISZERO PUSH2 0x1E9F JUMPI PUSH2 0x1E9F PUSH2 0x55F2 JUMP JUMPDEST PUSH1 0x40 MLOAD SWAP1 DUP1 DUP3 MSTORE DUP1 PUSH1 0x20 MUL PUSH1 0x20 ADD DUP3 ADD PUSH1 0x40 MSTORE DUP1 ISZERO PUSH2 0x1EC8 JUMPI DUP2 PUSH1 0x20 ADD PUSH1 0x20 DUP3 MUL DUP1 CALLDATASIZE DUP4 CALLDATACOPY ADD SWAP1 POP JUMPDEST POP CALLER PUSH1 0x0 SWAP1 DUP2 MSTORE PUSH1 0x3 PUSH1 0x20 MSTORE PUSH1 0x40 DUP2 KECCAK256 PUSH1 0x1 ADD SLOAD SWAP2 SWAP3 POP SWAP1 PUSH2 0x1EEB SWAP1 PUSH1 0x64 PUSH2 0x57B8 JUMP JUMPDEST PUSH1 0x1 PUSH1 0x1 PUSH1 0x40 SHL SUB DUP2 GT ISZERO PUSH2 0x1F02 JUMPI PUSH2 0x1F02 PUSH2 0x55F2 JUMP JUMPDEST PUSH1 0x40 MLOAD SWAP1 DUP1 DUP3 MSTORE DUP1 PUSH1 0x20 MUL PUSH1 0x20 ADD DUP3 ADD PUSH1 0x40 MSTORE DUP1 ISZERO PUSH2 0x1F2B JUMPI DUP2 PUSH1 0x20 ADD PUSH1 0x20 DUP3 MUL DUP1 CALLDATASIZE DUP4 CALLDATACOPY ADD SWAP1 POP JUMPDEST POP SWAP1 POP PUSH1 0x0 JUMPDEST DUP5 MLOAD DUP2 LT ISZERO PUSH2 0x23AD JUMPI PUSH2 0x1F60 DUP6 DUP3 DUP2 MLOAD DUP2 LT PUSH2 0x1F4F JUMPI PUSH2 0x1F4F PUSH2 0x575A JUMP JUMPDEST PUSH1 0x20 MUL PUSH1 0x20 ADD ADD MLOAD PUSH1 0x20 ADD MLOAD PUSH2 0x420D JUMP JUMPDEST PUSH1 0x0 PUSH2 0x1F88 DUP7 DUP4 DUP2 MLOAD DUP2 LT PUSH2 0x1F77 JUMPI PUSH2 0x1F77 PUSH2 0x575A JUMP JUMPDEST PUSH1 0x20 MUL PUSH1 0x20 ADD ADD MLOAD PUSH1 0x20 ADD MLOAD PUSH2 0x37EB JUMP JUMPDEST SWAP1 POP PUSH2 0x1F94 DUP2 DUP5 PUSH2 0x4C73 JUMP JUMPDEST PUSH2 0x1FE2 JUMPI DUP1 DUP4 DUP7 PUSH1 0x40 ADD MLOAD DUP2 MLOAD DUP2 LT PUSH2 0x1FAF JUMPI PUSH2 0x1FAF PUSH2 0x575A JUMP JUMPDEST PUSH1 0x20 MUL PUSH1 0x20 ADD ADD SWAP1 PUSH5 0xFFFFFFFFFF AND SWAP1 DUP2 PUSH5 0xFFFFFFFFFF AND DUP2 MSTORE POP POP PUSH1 0x1 DUP6 PUSH1 0x40 ADD DUP2 DUP2 MLOAD PUSH2 0x1FDE SWAP2 SWAP1 PUSH2 0x57B8 JUMP JUMPDEST SWAP1 MSTORE POP JUMPDEST PUSH1 0x0 PUSH1 0x1 PUSH1 0x1 PUSH1 0xA0 SHL SUB AND DUP7 DUP4 DUP2 MLOAD DUP2 LT PUSH2 0x1FFF JUMPI PUSH2 0x1FFF PUSH2 0x575A JUMP JUMPDEST PUSH1 0x20 MUL PUSH1 0x20 ADD ADD MLOAD PUSH1 0x60 ADD MLOAD PUSH1 0x1 PUSH1 0x1 PUSH1 0xA0 SHL SUB AND EQ ISZERO PUSH2 0x2051 JUMPI DUP6 DUP3 DUP2 MLOAD DUP2 LT PUSH2 0x202C JUMPI PUSH2 0x202C PUSH2 0x575A JUMP JUMPDEST PUSH1 0x20 MUL PUSH1 0x20 ADD ADD MLOAD PUSH1 0x40 ADD MLOAD DUP6 PUSH1 0x0 ADD DUP2 DUP2 MLOAD PUSH2 0x2049 SWAP2 SWAP1 PUSH2 0x57B8 JUMP JUMPDEST SWAP1 MSTORE POP PUSH2 0x228B JUMP JUMPDEST PUSH2 0x2077 DUP7 DUP4 DUP2 MLOAD DUP2 LT PUSH2 0x2066 JUMPI PUSH2 0x2066 PUSH2 0x575A JUMP JUMPDEST PUSH1 0x20 MUL PUSH1 0x20 ADD ADD MLOAD PUSH1 0x60 ADD MLOAD PUSH2 0x36F9 JUMP JUMPDEST PUSH2 0x2093 JUMPI PUSH1 0x40 MLOAD PUSH3 0x461BCD PUSH1 0xE5 SHL DUP2 MSTORE PUSH1 0x4 ADD PUSH2 0x42D SWAP1 PUSH2 0x5839 JUMP JUMPDEST DUP6 DUP3 DUP2 MLOAD DUP2 LT PUSH2 0x20A5 JUMPI PUSH2 0x20A5 PUSH2 0x575A JUMP JUMPDEST PUSH1 0x20 MUL PUSH1 0x20 ADD ADD MLOAD PUSH1 0x40 ADD MLOAD PUSH1 0xB PUSH1 0x0 CALLER PUSH1 0x1 PUSH1 0x1 PUSH1 0xA0 SHL SUB AND PUSH1 0x1 PUSH1 0x1 PUSH1 0xA0 SHL SUB AND DUP2 MSTORE PUSH1 0x20 ADD SWAP1 DUP2 MSTORE PUSH1 0x20 ADD PUSH1 0x0 KECCAK256 PUSH1 0x0 DUP9 DUP6 DUP2 MLOAD DUP2 LT PUSH2 0x20EA JUMPI PUSH2 0x20EA PUSH2 0x575A JUMP JUMPDEST PUSH1 0x20 MUL PUSH1 0x20 ADD ADD MLOAD PUSH1 0x60 ADD MLOAD PUSH1 0x1 PUSH1 0x1 PUSH1 0xA0 SHL SUB AND PUSH1 0x1 PUSH1 0x1 PUSH1 0xA0 SHL SUB AND DUP2 MSTORE PUSH1 0x20 ADD SWAP1 DUP2 MSTORE PUSH1 0x20 ADD PUSH1 0x0 KECCAK256 SLOAD PUSH2 0x2121 SWAP2 SWAP1 PUSH2 0x57B8 JUMP JUMPDEST DUP7 DUP4 DUP2 MLOAD DUP2 LT PUSH2 0x2133 JUMPI PUSH2 0x2133 PUSH2 0x575A JUMP JUMPDEST PUSH1 0x20 SWAP1 DUP2 MUL SWAP2 SWAP1 SWAP2 ADD ADD MLOAD PUSH1 0x60 ADD MLOAD PUSH1 0x40 MLOAD PUSH4 0x6EB1769F PUSH1 0xE1 SHL DUP2 MSTORE CALLER PUSH1 0x4 DUP3 ADD MSTORE ADDRESS PUSH1 0x24 DUP3 ADD MSTORE PUSH1 0x1 PUSH1 0x1 PUSH1 0xA0 SHL SUB SWAP1 SWAP2 AND SWAP1 PUSH4 0xDD62ED3E SWAP1 PUSH1 0x44 ADD PUSH1 0x20 PUSH1 0x40 MLOAD DUP1 DUP4 SUB DUP2 PUSH1 0x0 DUP8 DUP1 EXTCODESIZE ISZERO DUP1 ISZERO PUSH2 0x218A JUMPI PUSH1 0x0 DUP1 REVERT JUMPDEST POP GAS CALL ISZERO DUP1 ISZERO PUSH2 0x219E JUMPI RETURNDATASIZE PUSH1 0x0 DUP1 RETURNDATACOPY RETURNDATASIZE PUSH1 0x0 REVERT JUMPDEST POP POP POP POP PUSH1 0x40 MLOAD RETURNDATASIZE PUSH1 0x1F NOT PUSH1 0x1F DUP3 ADD AND DUP3 ADD DUP1 PUSH1 0x40 MSTORE POP DUP2 ADD SWAP1 PUSH2 0x21C2 SWAP2 SWAP1 PUSH2 0x589D JUMP JUMPDEST LT ISZERO PUSH2 0x21F5 JUMPI PUSH1 0x40 MLOAD PUSH3 0x461BCD PUSH1 0xE5 SHL DUP2 MSTORE PUSH1 0x20 PUSH1 0x4 DUP3 ADD MSTORE PUSH1 0x2 PUSH1 0x24 DUP3 ADD MSTORE PUSH2 0x3133 PUSH1 0xF0 SHL PUSH1 0x44 DUP3 ADD MSTORE PUSH1 0x64 ADD PUSH2 0x42D JUMP JUMPDEST PUSH2 0x221C DUP7 DUP4 DUP2 MLOAD DUP2 LT PUSH2 0x220A JUMPI PUSH2 0x220A PUSH2 0x575A JUMP JUMPDEST PUSH1 0x20 MUL PUSH1 0x20 ADD ADD MLOAD PUSH1 0x60 ADD MLOAD DUP6 PUSH2 0x4CD5 JUMP JUMPDEST PUSH2 0x228B JUMPI DUP6 DUP3 DUP2 MLOAD DUP2 LT PUSH2 0x2232 JUMPI PUSH2 0x2232 PUSH2 0x575A JUMP JUMPDEST PUSH1 0x20 MUL PUSH1 0x20 ADD ADD MLOAD PUSH1 0x60 ADD MLOAD DUP5 DUP7 PUSH1 0x20 ADD MLOAD DUP2 MLOAD DUP2 LT PUSH2 0x2254 JUMPI PUSH2 0x2254 PUSH2 0x575A JUMP JUMPDEST PUSH1 0x20 MUL PUSH1 0x20 ADD ADD SWAP1 PUSH1 0x1 PUSH1 0x1 PUSH1 0xA0 SHL SUB AND SWAP1 DUP2 PUSH1 0x1 PUSH1 0x1 PUSH1 0xA0 SHL SUB AND DUP2 MSTORE POP POP PUSH1 0x1 DUP6 PUSH1 0x20 ADD DUP2 DUP2 MLOAD PUSH2 0x2287 SWAP2 SWAP1 PUSH2 0x57B8 JUMP JUMPDEST SWAP1 MSTORE POP JUMPDEST DUP6 DUP3 DUP2 MLOAD DUP2 LT PUSH2 0x229D JUMPI PUSH2 0x229D PUSH2 0x575A JUMP JUMPDEST PUSH1 0x20 MUL PUSH1 0x20 ADD ADD MLOAD PUSH1 0x40 ADD MLOAD PUSH1 0xC PUSH1 0x0 DUP9 DUP6 DUP2 MLOAD DUP2 LT PUSH2 0x22BF JUMPI PUSH2 0x22BF PUSH2 0x575A JUMP JUMPDEST PUSH1 0x20 MUL PUSH1 0x20 ADD ADD MLOAD PUSH1 0x60 ADD MLOAD PUSH1 0x1 PUSH1 0x1 PUSH1 0xA0 SHL SUB AND PUSH1 0x1 PUSH1 0x1 PUSH1 0xA0 SHL SUB AND DUP2 MSTORE PUSH1 0x20 ADD SWAP1 DUP2 MSTORE PUSH1 0x20 ADD PUSH1 0x0 KECCAK256 PUSH1 0x0 DUP3 DUP3 SLOAD PUSH2 0x22FA SWAP2 SWAP1 PUSH2 0x57B8 JUMP JUMPDEST SWAP3 POP POP DUP2 SWAP1 SSTORE POP DUP6 DUP3 DUP2 MLOAD DUP2 LT PUSH2 0x2313 JUMPI PUSH2 0x2313 PUSH2 0x575A JUMP JUMPDEST PUSH1 0x20 MUL PUSH1 0x20 ADD ADD MLOAD PUSH1 0x40 ADD MLOAD PUSH1 0xB PUSH1 0x0 CALLER PUSH1 0x1 PUSH1 0x1 PUSH1 0xA0 SHL SUB AND PUSH1 0x1 PUSH1 0x1 PUSH1 0xA0 SHL SUB AND DUP2 MSTORE PUSH1 0x20 ADD SWAP1 DUP2 MSTORE PUSH1 0x20 ADD PUSH1 0x0 KECCAK256 PUSH1 0x0 DUP9 DUP6 DUP2 MLOAD DUP2 LT PUSH2 0x2358 JUMPI PUSH2 0x2358 PUSH2 0x575A JUMP JUMPDEST PUSH1 0x20 MUL PUSH1 0x20 ADD ADD MLOAD PUSH1 0x60 ADD MLOAD PUSH1 0x1 PUSH1 0x1 PUSH1 0xA0 SHL SUB AND PUSH1 0x1 PUSH1 0x1 PUSH1 0xA0 SHL SUB AND DUP2 MSTORE PUSH1 0x20 ADD SWAP1 DUP2 MSTORE PUSH1 0x20 ADD PUSH1 0x0 KECCAK256 PUSH1 0x0 DUP3 DUP3 SLOAD PUSH2 0x2393 SWAP2 SWAP1 PUSH2 0x57B8 JUMP JUMPDEST SWAP1 SWAP2 SSTORE POP DUP3 SWAP2 POP PUSH2 0x23A5 SWAP1 POP DUP2 PUSH2 0x5786 JUMP JUMPDEST SWAP2 POP POP PUSH2 0x1F31 JUMP JUMPDEST CALLVALUE PUSH1 0x64 PUSH1 0x1 SLOAD DUP7 PUSH1 0x0 ADD MLOAD PUSH2 0x23C2 SWAP2 SWAP1 PUSH2 0x5854 JUMP JUMPDEST PUSH2 0x23CC SWAP2 SWAP1 PUSH2 0x5889 JUMP JUMPDEST GT ISZERO PUSH2 0x23EA JUMPI PUSH1 0x40 MLOAD PUSH3 0x461BCD PUSH1 0xE5 SHL DUP2 MSTORE PUSH1 0x4 ADD PUSH2 0x42D SWAP1 PUSH2 0x57E6 JUMP JUMPDEST POP PUSH1 0x0 JUMPDEST DUP2 MLOAD DUP2 LT ISZERO PUSH2 0x2652 JUMPI DUP2 DUP2 DUP2 MLOAD DUP2 LT PUSH2 0x2409 JUMPI PUSH2 0x2409 PUSH2 0x575A JUMP JUMPDEST PUSH1 0x20 MUL PUSH1 0x20 ADD ADD MLOAD PUSH5 0xFFFFFFFFFF AND PUSH1 0x0 EQ ISZERO PUSH2 0x2425 JUMPI PUSH2 0x2652 JUMP JUMPDEST PUSH1 0x0 JUMPDEST DUP6 MLOAD DUP2 PUSH2 0xFFFF AND LT ISZERO PUSH2 0x263F JUMPI PUSH1 0x0 PUSH2 0x2450 DUP8 DUP4 PUSH2 0xFFFF AND DUP2 MLOAD DUP2 LT PUSH2 0x1F77 JUMPI PUSH2 0x1F77 PUSH2 0x575A JUMP JUMPDEST SWAP1 POP DUP4 DUP4 DUP2 MLOAD DUP2 LT PUSH2 0x2464 JUMPI PUSH2 0x2464 PUSH2 0x575A JUMP JUMPDEST PUSH1 0x20 MUL PUSH1 0x20 ADD ADD MLOAD PUSH5 0xFFFFFFFFFF AND DUP2 PUSH5 0xFFFFFFFFFF AND EQ ISZERO PUSH2 0x262C JUMPI PUSH1 0x0 PUSH2 0x24F3 CALLER DUP10 DUP6 PUSH2 0xFFFF AND DUP2 MLOAD DUP2 LT PUSH2 0x249D JUMPI PUSH2 0x249D PUSH2 0x575A JUMP JUMPDEST PUSH1 0x20 MUL PUSH1 0x20 ADD ADD MLOAD PUSH1 0x0 ADD MLOAD DUP11 DUP7 PUSH2 0xFFFF AND DUP2 MLOAD DUP2 LT PUSH2 0x24BF JUMPI PUSH2 0x24BF PUSH2 0x575A JUMP JUMPDEST PUSH1 0x20 MUL PUSH1 0x20 ADD ADD MLOAD PUSH1 0x60 ADD MLOAD DUP6 DUP13 DUP9 PUSH2 0xFFFF AND DUP2 MLOAD DUP2 LT PUSH2 0x24E2 JUMPI PUSH2 0x24E2 PUSH2 0x575A JUMP JUMPDEST PUSH1 0x20 MUL PUSH1 0x20 ADD ADD MLOAD PUSH1 0x40 ADD MLOAD PUSH2 0x428B JUMP JUMPDEST SWAP1 POP DUP1 PUSH1 0x5 PUSH1 0x0 DUP8 DUP8 DUP2 MLOAD DUP2 LT PUSH2 0x250C JUMPI PUSH2 0x250C PUSH2 0x575A JUMP JUMPDEST PUSH1 0x20 SWAP1 DUP2 MUL SWAP2 SWAP1 SWAP2 ADD DUP2 ADD MLOAD PUSH5 0xFFFFFFFFFF SWAP1 DUP2 AND DUP4 MSTORE DUP3 DUP3 ADD SWAP4 SWAP1 SWAP4 MSTORE PUSH1 0x40 SWAP2 DUP3 ADD PUSH1 0x0 SWAP1 DUP2 KECCAK256 DUP1 SLOAD PUSH1 0x1 DUP2 DUP2 ADD DUP4 SSTORE SWAP2 DUP4 MSTORE SWAP2 DUP4 SWAP1 KECCAK256 DUP7 MLOAD PUSH1 0x5 SWAP1 SWAP4 MUL ADD SWAP2 DUP3 SSTORE SWAP2 DUP6 ADD MLOAD SWAP2 DUP2 ADD DUP1 SLOAD PUSH1 0x1 PUSH1 0x1 PUSH1 0xA0 SHL SUB SWAP4 DUP5 AND PUSH1 0x1 PUSH1 0x1 PUSH1 0xA0 SHL SUB NOT SWAP2 DUP3 AND OR SWAP1 SWAP2 SSTORE SWAP3 DUP6 ADD MLOAD PUSH1 0x2 DUP3 ADD DUP1 SLOAD SWAP2 DUP5 AND SWAP2 SWAP1 SWAP5 AND OR SWAP1 SWAP3 SSTORE PUSH1 0x60 DUP5 ADD MLOAD PUSH1 0x3 DUP1 DUP5 ADD DUP1 SLOAD PUSH1 0x80 DUP9 ADD MLOAD SWAP1 SWAP7 AND PUSH1 0x1 PUSH1 0xA0 SHL MUL PUSH1 0x1 PUSH1 0x1 PUSH1 0xC8 SHL SUB NOT SWAP1 SWAP7 AND SWAP3 SWAP1 SWAP4 AND SWAP2 SWAP1 SWAP2 OR SWAP4 SWAP1 SWAP4 OR DUP1 DUP3 SSTORE PUSH1 0xA0 DUP6 ADD MLOAD SWAP3 SWAP4 PUSH1 0xFF PUSH1 0xC8 SHL NOT SWAP1 SWAP2 AND SWAP1 PUSH1 0x1 PUSH1 0xC8 SHL SWAP1 DUP5 SWAP1 DUP2 GT ISZERO PUSH2 0x25E5 JUMPI PUSH2 0x25E5 PUSH2 0x50E3 JUMP JUMPDEST MUL OR SWAP1 SSTORE POP PUSH1 0xC0 SWAP2 SWAP1 SWAP2 ADD MLOAD PUSH1 0x4 SWAP1 SWAP2 ADD SSTORE MLOAD PUSH1 0x6 DUP1 SLOAD PUSH1 0x1 DUP2 ADD DUP3 SSTORE PUSH1 0x0 SWAP2 SWAP1 SWAP2 MSTORE PUSH32 0xF652222313E28459528D920B65115C16C04F3EFC82AAEDC97BE59F3F377C0D3F ADD SSTORE JUMPDEST POP DUP1 PUSH2 0x2637 DUP2 PUSH2 0x58DB JUMP JUMPDEST SWAP2 POP POP PUSH2 0x2428 JUMP JUMPDEST POP DUP1 PUSH2 0x264A DUP2 PUSH2 0x5786 JUMP JUMPDEST SWAP2 POP POP PUSH2 0x23EE JUMP JUMPDEST POP PUSH1 0x0 JUMPDEST DUP3 MLOAD DUP2 LT ISZERO PUSH2 0x28B0 JUMPI PUSH1 0x0 PUSH1 0x1 PUSH1 0x1 PUSH1 0xA0 SHL SUB AND DUP4 DUP3 DUP2 MLOAD DUP2 LT PUSH2 0x267C JUMPI PUSH2 0x267C PUSH2 0x575A JUMP JUMPDEST PUSH1 0x20 MUL PUSH1 0x20 ADD ADD MLOAD PUSH1 0x1 PUSH1 0x1 PUSH1 0xA0 SHL SUB AND EQ PUSH2 0x2859 JUMPI PUSH1 0xC PUSH1 0x0 DUP5 DUP4 DUP2 MLOAD DUP2 LT PUSH2 0x26A8 JUMPI PUSH2 0x26A8 PUSH2 0x575A JUMP JUMPDEST PUSH1 0x20 MUL PUSH1 0x20 ADD ADD MLOAD PUSH1 0x1 PUSH1 0x1 PUSH1 0xA0 SHL SUB AND PUSH1 0x1 PUSH1 0x1 PUSH1 0xA0 SHL SUB AND DUP2 MSTORE PUSH1 0x20 ADD SWAP1 DUP2 MSTORE PUSH1 0x20 ADD PUSH1 0x0 KECCAK256 SLOAD DUP4 DUP3 DUP2 MLOAD DUP2 LT PUSH2 0x26E3 JUMPI PUSH2 0x26E3 PUSH2 0x575A JUMP JUMPDEST PUSH1 0x20 SWAP1 DUP2 MUL SWAP2 SWAP1 SWAP2 ADD ADD MLOAD PUSH1 0x40 MLOAD PUSH4 0x6EB1769F PUSH1 0xE1 SHL DUP2 MSTORE CALLER PUSH1 0x4 DUP3 ADD MSTORE ADDRESS PUSH1 0x24 DUP3 ADD MSTORE PUSH1 0x1 PUSH1 0x1 PUSH1 0xA0 SHL SUB SWAP1 SWAP2 AND SWAP1 PUSH4 0xDD62ED3E SWAP1 PUSH1 0x44 ADD PUSH1 0x20 PUSH1 0x40 MLOAD DUP1 DUP4 SUB DUP2 PUSH1 0x0 DUP8 DUP1 EXTCODESIZE ISZERO DUP1 ISZERO PUSH2 0x2736 JUMPI PUSH1 0x0 DUP1 REVERT JUMPDEST POP GAS CALL ISZERO DUP1 ISZERO PUSH2 0x274A JUMPI RETURNDATASIZE PUSH1 0x0 DUP1 RETURNDATACOPY RETURNDATASIZE PUSH1 0x0 REVERT JUMPDEST POP POP POP POP PUSH1 0x40 MLOAD RETURNDATASIZE PUSH1 0x1F NOT PUSH1 0x1F DUP3 ADD AND DUP3 ADD DUP1 PUSH1 0x40 MSTORE POP DUP2 ADD SWAP1 PUSH2 0x276E SWAP2 SWAP1 PUSH2 0x589D JUMP JUMPDEST LT ISZERO DUP1 ISZERO PUSH2 0x2850 JUMPI POP PUSH1 0xC PUSH1 0x0 DUP5 DUP4 DUP2 MLOAD DUP2 LT PUSH2 0x278D JUMPI PUSH2 0x278D PUSH2 0x575A JUMP JUMPDEST PUSH1 0x20 MUL PUSH1 0x20 ADD ADD MLOAD PUSH1 0x1 PUSH1 0x1 PUSH1 0xA0 SHL SUB AND PUSH1 0x1 PUSH1 0x1 PUSH1 0xA0 SHL SUB AND DUP2 MSTORE PUSH1 0x20 ADD SWAP1 DUP2 MSTORE PUSH1 0x20 ADD PUSH1 0x0 KECCAK256 SLOAD DUP4 DUP3 DUP2 MLOAD DUP2 LT PUSH2 0x27C8 JUMPI PUSH2 0x27C8 PUSH2 0x575A JUMP JUMPDEST PUSH1 0x20 SWAP1 DUP2 MUL SWAP2 SWAP1 SWAP2 ADD ADD MLOAD PUSH1 0x40 MLOAD PUSH4 0x70A08231 PUSH1 0xE0 SHL DUP2 MSTORE CALLER PUSH1 0x4 DUP3 ADD MSTORE PUSH1 0x1 PUSH1 0x1 PUSH1 0xA0 SHL SUB SWAP1 SWAP2 AND SWAP1 PUSH4 0x70A08231 SWAP1 PUSH1 0x24 ADD PUSH1 0x20 PUSH1 0x40 MLOAD DUP1 DUP4 SUB DUP2 PUSH1 0x0 DUP8 DUP1 EXTCODESIZE ISZERO DUP1 ISZERO PUSH2 0x2815 JUMPI PUSH1 0x0 DUP1 REVERT JUMPDEST POP GAS CALL ISZERO DUP1 ISZERO PUSH2 0x2829 JUMPI RETURNDATASIZE PUSH1 0x0 DUP1 RETURNDATACOPY RETURNDATASIZE PUSH1 0x0 REVERT JUMPDEST POP POP POP POP PUSH1 0x40 MLOAD RETURNDATASIZE PUSH1 0x1F NOT PUSH1 0x1F DUP3 ADD AND DUP3 ADD DUP1 PUSH1 0x40 MSTORE POP DUP2 ADD SWAP1 PUSH2 0x284D SWAP2 SWAP1 PUSH2 0x589D JUMP JUMPDEST LT ISZERO JUMPDEST PUSH2 0x2859 JUMPI PUSH1 0x0 DUP1 REVERT JUMPDEST PUSH1 0x0 PUSH1 0xC PUSH1 0x0 DUP6 DUP5 DUP2 MLOAD DUP2 LT PUSH2 0x2871 JUMPI PUSH2 0x2871 PUSH2 0x575A JUMP JUMPDEST PUSH1 0x20 MUL PUSH1 0x20 ADD ADD MLOAD PUSH1 0x1 PUSH1 0x1 PUSH1 0xA0 SHL SUB AND PUSH1 0x1 PUSH1 0x1 PUSH1 0xA0 SHL SUB AND DUP2 MSTORE PUSH1 0x20 ADD SWAP1 DUP2 MSTORE PUSH1 0x20 ADD PUSH1 0x0 KECCAK256 DUP2 SWAP1 SSTORE POP DUP1 DUP1 PUSH2 0x28A8 SWAP1 PUSH2 0x5786 JUMP JUMPDEST SWAP2 POP POP PUSH2 0x2656 JUMP JUMPDEST CALLER PUSH1 0x0 SWAP1 DUP2 MSTORE PUSH1 0x3 PUSH1 0x20 MSTORE PUSH1 0x40 SWAP1 KECCAK256 SLOAD PUSH1 0x1 PUSH1 0xA0 SHL SWAP1 DIV PUSH1 0xFF AND PUSH2 0x293A JUMPI CALLER PUSH1 0x0 DUP2 DUP2 MSTORE PUSH1 0x3 PUSH1 0x20 MSTORE PUSH1 0x40 DUP2 KECCAK256 DUP1 SLOAD PUSH1 0x1 PUSH1 0x1 PUSH1 0xA0 SHL SUB NOT SWAP1 DUP2 AND DUP5 OR DUP3 SSTORE PUSH1 0x4 DUP1 SLOAD PUSH1 0x1 DUP2 ADD SWAP1 SWAP2 SSTORE PUSH32 0x8A35ACFBC15FF81A39AE7D344FD709F28E8600B4AA8C65C6B64BFE7FE36BD19B ADD DUP1 SLOAD SWAP1 SWAP2 AND DUP5 OR SWAP1 SSTORE SWAP2 SWAP1 MSTORE DUP1 SLOAD PUSH1 0xFF PUSH1 0xA0 SHL NOT AND PUSH1 0x1 PUSH1 0xA0 SHL OR SWAP1 SSTORE JUMPDEST POP POP POP POP POP JUMP JUMPDEST PUSH2 0x2949 PUSH2 0x36B9 JUMP JUMPDEST PUSH1 0x40 MLOAD PUSH4 0x93BC8413 PUSH1 0xE0 SHL DUP2 MSTORE TIMESTAMP PUSH1 0x4 DUP3 ADD MSTORE PUSH1 0x0 SWAP1 DUP2 SWAP1 PUSH20 0x0 SWAP1 PUSH4 0x93BC8413 SWAP1 PUSH1 0x24 ADD PUSH1 0x40 DUP1 MLOAD DUP1 DUP4 SUB DUP2 DUP7 DUP1 EXTCODESIZE ISZERO DUP1 ISZERO PUSH2 0x2997 JUMPI PUSH1 0x0 DUP1 REVERT JUMPDEST POP GAS DELEGATECALL ISZERO DUP1 ISZERO PUSH2 0x29AB JUMPI RETURNDATASIZE PUSH1 0x0 DUP1 RETURNDATACOPY RETURNDATASIZE PUSH1 0x0 REVERT JUMPDEST POP POP POP POP PUSH1 0x40 MLOAD RETURNDATASIZE PUSH1 0x1F NOT PUSH1 0x1F DUP3 ADD AND DUP3 ADD DUP1 PUSH1 0x40 MSTORE POP DUP2 ADD SWAP1 PUSH2 0x139D SWAP2 SWAP1 PUSH2 0x58F3 JUMP JUMPDEST PUSH1 0x60 PUSH2 0x29D9 PUSH2 0x36B9 JUMP JUMPDEST PUSH1 0x1 PUSH1 0x1 PUSH1 0xA0 SHL SUB DUP3 AND PUSH1 0x0 SWAP1 DUP2 MSTORE PUSH1 0x3 PUSH1 0x20 SWAP1 DUP2 MSTORE PUSH1 0x40 DUP1 DUP4 KECCAK256 PUSH1 0x1 ADD DUP1 SLOAD DUP3 MLOAD DUP2 DUP6 MUL DUP2 ADD DUP6 ADD SWAP1 SWAP4 MSTORE DUP1 DUP4 MSTORE SWAP2 SWAP3 SWAP1 SWAP2 SWAP1 DUP4 ADD DUP3 DUP3 DUP1 ISZERO PUSH2 0x2A6A JUMPI PUSH1 0x20 MUL DUP3 ADD SWAP2 SWAP1 PUSH1 0x0 MSTORE PUSH1 0x20 PUSH1 0x0 KECCAK256 SWAP1 PUSH1 0x0 SWAP1 JUMPDEST DUP3 DUP3 SWAP1 SLOAD SWAP1 PUSH2 0x100 EXP SWAP1 DIV PUSH5 0xFFFFFFFFFF AND PUSH5 0xFFFFFFFFFF AND DUP2 MSTORE PUSH1 0x20 ADD SWAP1 PUSH1 0x5 ADD SWAP1 PUSH1 0x20 DUP3 PUSH1 0x4 ADD DIV SWAP3 DUP4 ADD SWAP3 PUSH1 0x1 SUB DUP3 MUL SWAP2 POP DUP1 DUP5 GT PUSH2 0x2A2B JUMPI SWAP1 POP JUMPDEST POP POP POP POP POP SWAP1 POP PUSH1 0x0 DUP1 JUMPDEST DUP3 MLOAD DUP2 LT ISZERO PUSH2 0x2BC2 JUMPI PUSH1 0x0 PUSH1 0x5 PUSH1 0x0 DUP6 DUP5 DUP2 MLOAD DUP2 LT PUSH2 0x2A96 JUMPI PUSH2 0x2A96 PUSH2 0x575A JUMP JUMPDEST PUSH1 0x20 MUL PUSH1 0x20 ADD ADD MLOAD PUSH5 0xFFFFFFFFFF AND PUSH5 0xFFFFFFFFFF AND DUP2 MSTORE PUSH1 0x20 ADD SWAP1 DUP2 MSTORE PUSH1 0x20 ADD PUSH1 0x0 KECCAK256 DUP1 SLOAD DUP1 PUSH1 0x20 MUL PUSH1 0x20 ADD PUSH1 0x40 MLOAD SWAP1 DUP2 ADD PUSH1 0x40 MSTORE DUP1 SWAP3 SWAP2 SWAP1 DUP2 DUP2 MSTORE PUSH1 0x20 ADD PUSH1 0x0 SWAP1 JUMPDEST DUP3 DUP3 LT ISZERO PUSH2 0x2B99 JUMPI PUSH1 0x0 DUP5 DUP2 MSTORE PUSH1 0x20 SWAP1 DUP2 SWAP1 KECCAK256 PUSH1 0x40 DUP1 MLOAD PUSH1 0xE0 DUP2 ADD DUP3 MSTORE PUSH1 0x5 DUP7 MUL SWAP1 SWAP3 ADD DUP1 SLOAD DUP4 MSTORE PUSH1 0x1 DUP2 ADD SLOAD PUSH1 0x1 PUSH1 0x1 PUSH1 0xA0 SHL SUB SWAP1 DUP2 AND SWAP5 DUP5 ADD SWAP5 SWAP1 SWAP5 MSTORE PUSH1 0x2 DUP2 ADD SLOAD DUP5 AND SWAP2 DUP4 ADD SWAP2 SWAP1 SWAP2 MSTORE PUSH1 0x3 DUP1 DUP3 ADD SLOAD SWAP4 DUP5 AND PUSH1 0x60 DUP5 ADD MSTORE PUSH1 0x1 PUSH1 0xA0 SHL DUP5 DIV PUSH5 0xFFFFFFFFFF AND PUSH1 0x80 DUP5 ADD MSTORE SWAP2 SWAP3 SWAP1 SWAP2 PUSH1 0xA0 DUP5 ADD SWAP2 PUSH1 0x1 PUSH1 0xC8 SHL SWAP1 DIV PUSH1 0xFF AND SWAP1 DUP2 GT ISZERO PUSH2 0x2B6B JUMPI PUSH2 0x2B6B PUSH2 0x50E3 JUMP JUMPDEST PUSH1 0x3 DUP2 GT ISZERO PUSH2 0x2B7C JUMPI PUSH2 0x2B7C PUSH2 0x50E3 JUMP JUMPDEST DUP2 MSTORE PUSH1 0x20 ADD PUSH1 0x4 DUP3 ADD SLOAD DUP2 MSTORE POP POP DUP2 MSTORE PUSH1 0x20 ADD SWAP1 PUSH1 0x1 ADD SWAP1 PUSH2 0x2ADA JUMP JUMPDEST POP POP POP POP SWAP1 POP DUP1 MLOAD DUP4 PUSH2 0x2BAC SWAP2 SWAP1 PUSH2 0x57B8 JUMP JUMPDEST SWAP3 POP POP DUP1 DUP1 PUSH2 0x2BBA SWAP1 PUSH2 0x5786 JUMP JUMPDEST SWAP2 POP POP PUSH2 0x2A75 JUMP JUMPDEST POP PUSH1 0x0 DUP2 PUSH1 0x1 PUSH1 0x1 PUSH1 0x40 SHL SUB DUP2 GT ISZERO PUSH2 0x2BDD JUMPI PUSH2 0x2BDD PUSH2 0x55F2 JUMP JUMPDEST PUSH1 0x40 MLOAD SWAP1 DUP1 DUP3 MSTORE DUP1 PUSH1 0x20 MUL PUSH1 0x20 ADD DUP3 ADD PUSH1 0x40 MSTORE DUP1 ISZERO PUSH2 0x2C16 JUMPI DUP2 PUSH1 0x20 ADD JUMPDEST PUSH2 0x2C03 PUSH2 0x4F00 JUMP JUMPDEST DUP2 MSTORE PUSH1 0x20 ADD SWAP1 PUSH1 0x1 SWAP1 SUB SWAP1 DUP2 PUSH2 0x2BFB JUMPI SWAP1 POP JUMPDEST POP SWAP1 POP PUSH1 0x0 DUP3 PUSH1 0x1 PUSH1 0x1 PUSH1 0x40 SHL SUB DUP2 GT ISZERO PUSH2 0x2C33 JUMPI PUSH2 0x2C33 PUSH2 0x55F2 JUMP JUMPDEST PUSH1 0x40 MLOAD SWAP1 DUP1 DUP3 MSTORE DUP1 PUSH1 0x20 MUL PUSH1 0x20 ADD DUP3 ADD PUSH1 0x40 MSTORE DUP1 ISZERO PUSH2 0x2C6C JUMPI DUP2 PUSH1 0x20 ADD JUMPDEST PUSH2 0x2C59 PUSH2 0x4F00 JUMP JUMPDEST DUP2 MSTORE PUSH1 0x20 ADD SWAP1 PUSH1 0x1 SWAP1 SUB SWAP1 DUP2 PUSH2 0x2C51 JUMPI SWAP1 POP JUMPDEST POP SWAP1 POP PUSH1 0x0 DUP1 JUMPDEST DUP6 MLOAD DUP2 LT ISZERO PUSH2 0x2E49 JUMPI PUSH1 0x5 PUSH1 0x0 DUP8 DUP4 DUP2 MLOAD DUP2 LT PUSH2 0x2C92 JUMPI PUSH2 0x2C92 PUSH2 0x575A JUMP JUMPDEST PUSH1 0x20 MUL PUSH1 0x20 ADD ADD MLOAD PUSH5 0xFFFFFFFFFF AND PUSH5 0xFFFFFFFFFF AND DUP2 MSTORE PUSH1 0x20 ADD SWAP1 DUP2 MSTORE PUSH1 0x20 ADD PUSH1 0x0 KECCAK256 DUP1 SLOAD DUP1 PUSH1 0x20 MUL PUSH1 0x20 ADD PUSH1 0x40 MLOAD SWAP1 DUP2 ADD PUSH1 0x40 MSTORE DUP1 SWAP3 SWAP2 SWAP1 DUP2 DUP2 MSTORE PUSH1 0x20 ADD PUSH1 0x0 SWAP1 JUMPDEST DUP3 DUP3 LT ISZERO PUSH2 0x2D95 JUMPI PUSH1 0x0 DUP5 DUP2 MSTORE PUSH1 0x20 SWAP1 DUP2 SWAP1 KECCAK256 PUSH1 0x40 DUP1 MLOAD PUSH1 0xE0 DUP2 ADD DUP3 MSTORE PUSH1 0x5 DUP7 MUL SWAP1 SWAP3 ADD DUP1 SLOAD DUP4 MSTORE PUSH1 0x1 DUP2 ADD SLOAD PUSH1 0x1 PUSH1 0x1 PUSH1 0xA0 SHL SUB SWAP1 DUP2 AND SWAP5 DUP5 ADD SWAP5 SWAP1 SWAP5 MSTORE PUSH1 0x2 DUP2 ADD SLOAD DUP5 AND SWAP2 DUP4 ADD SWAP2 SWAP1 SWAP2 MSTORE PUSH1 0x3 DUP1 DUP3 ADD SLOAD SWAP4 DUP5 AND PUSH1 0x60 DUP5 ADD MSTORE PUSH1 0x1 PUSH1 0xA0 SHL DUP5 DIV PUSH5 0xFFFFFFFFFF AND PUSH1 0x80 DUP5 ADD MSTORE SWAP2 SWAP3 SWAP1 SWAP2 PUSH1 0xA0 DUP5 ADD SWAP2 PUSH1 0x1 PUSH1 0xC8 SHL SWAP1 DIV PUSH1 0xFF AND SWAP1 DUP2 GT ISZERO PUSH2 0x2D67 JUMPI PUSH2 0x2D67 PUSH2 0x50E3 JUMP JUMPDEST PUSH1 0x3 DUP2 GT ISZERO PUSH2 0x2D78 JUMPI PUSH2 0x2D78 PUSH2 0x50E3 JUMP JUMPDEST DUP2 MSTORE PUSH1 0x20 ADD PUSH1 0x4 DUP3 ADD SLOAD DUP2 MSTORE POP POP DUP2 MSTORE PUSH1 0x20 ADD SWAP1 PUSH1 0x1 ADD SWAP1 PUSH2 0x2CD6 JUMP JUMPDEST POP POP POP POP SWAP4 POP PUSH1 0x0 JUMPDEST DUP5 MLOAD DUP2 LT ISZERO PUSH2 0x2E36 JUMPI DUP9 PUSH1 0x1 PUSH1 0x1 PUSH1 0xA0 SHL SUB AND DUP6 DUP3 DUP2 MLOAD DUP2 LT PUSH2 0x2DC3 JUMPI PUSH2 0x2DC3 PUSH2 0x575A JUMP JUMPDEST PUSH1 0x20 MUL PUSH1 0x20 ADD ADD MLOAD PUSH1 0x20 ADD MLOAD PUSH1 0x1 PUSH1 0x1 PUSH1 0xA0 SHL SUB AND EQ ISZERO PUSH2 0x2E24 JUMPI DUP5 DUP2 DUP2 MLOAD DUP2 LT PUSH2 0x2DF0 JUMPI PUSH2 0x2DF0 PUSH2 0x575A JUMP JUMPDEST PUSH1 0x20 MUL PUSH1 0x20 ADD ADD MLOAD DUP5 DUP5 DUP2 MLOAD DUP2 LT PUSH2 0x2E0A JUMPI PUSH2 0x2E0A PUSH2 0x575A JUMP JUMPDEST PUSH1 0x20 MUL PUSH1 0x20 ADD ADD DUP2 SWAP1 MSTORE POP DUP3 DUP1 PUSH2 0x2E20 SWAP1 PUSH2 0x5786 JUMP JUMPDEST SWAP4 POP POP JUMPDEST DUP1 PUSH2 0x2E2E DUP2 PUSH2 0x5786 JUMP JUMPDEST SWAP2 POP POP PUSH2 0x2D9E JUMP JUMPDEST POP DUP1 PUSH2 0x2E41 DUP2 PUSH2 0x5786 JUMP JUMPDEST SWAP2 POP POP PUSH2 0x2C73 JUMP JUMPDEST POP PUSH1 0x0 JUMPDEST DUP3 MLOAD DUP2 LT ISZERO PUSH2 0x2EA9 JUMPI PUSH2 0x2E6B DUP4 DUP3 DUP2 MLOAD DUP2 LT PUSH2 0x1B05 JUMPI PUSH2 0x1B05 PUSH2 0x575A JUMP JUMPDEST DUP4 DUP3 DUP2 MLOAD DUP2 LT PUSH2 0x2E7D JUMPI PUSH2 0x2E7D PUSH2 0x575A JUMP JUMPDEST PUSH1 0x20 SWAP1 DUP2 MUL SWAP2 SWAP1 SWAP2 ADD ADD MLOAD PUSH5 0xFFFFFFFFFF SWAP1 SWAP2 AND PUSH1 0x80 SWAP1 SWAP2 ADD MSTORE DUP1 PUSH2 0x2EA1 DUP2 PUSH2 0x5786 JUMP JUMPDEST SWAP2 POP POP PUSH2 0x2E4D JUMP JUMPDEST POP SWAP1 SWAP5 POP POP POP POP POP JUMPDEST SWAP2 SWAP1 POP JUMP JUMPDEST PUSH2 0x2EBF PUSH2 0x37BA JUMP JUMPDEST PUSH2 0x2ED5 DUP2 CALLDATALOAD PUSH2 0x9B5 PUSH2 0x100 DUP5 ADD PUSH1 0xE0 DUP6 ADD PUSH2 0x5801 JUMP JUMPDEST PUSH2 0x2F05 JUMPI PUSH1 0x40 MLOAD PUSH3 0x461BCD PUSH1 0xE5 SHL DUP2 MSTORE PUSH1 0x20 PUSH1 0x4 DUP3 ADD MSTORE PUSH1 0x1 PUSH1 0x24 DUP3 ADD MSTORE PUSH1 0x37 PUSH1 0xF8 SHL PUSH1 0x44 DUP3 ADD MSTORE PUSH1 0x64 ADD PUSH2 0x42D JUMP JUMPDEST DUP1 CALLDATALOAD PUSH1 0x0 SWAP1 DUP2 MSTORE PUSH1 0x9 PUSH1 0x20 SWAP1 DUP2 MSTORE PUSH1 0x40 DUP1 DUP4 KECCAK256 DUP1 SLOAD DUP3 MLOAD DUP2 DUP6 MUL DUP2 ADD DUP6 ADD SWAP1 SWAP4 MSTORE DUP1 DUP4 MSTORE SWAP2 SWAP3 SWAP1 SWAP2 SWAP1 DUP4 ADD DUP3 DUP3 DUP1 ISZERO PUSH2 0x2F67 JUMPI PUSH1 0x20 MUL DUP3 ADD SWAP2 SWAP1 PUSH1 0x0 MSTORE PUSH1 0x20 PUSH1 0x0 KECCAK256 SWAP1 JUMPDEST DUP2 SLOAD PUSH1 0x1 PUSH1 0x1 PUSH1 0xA0 SHL SUB AND DUP2 MSTORE PUSH1 0x1 SWAP1 SWAP2 ADD SWAP1 PUSH1 0x20 ADD DUP1 DUP4 GT PUSH2 0x2F49 JUMPI JUMPDEST POP POP POP POP POP SWAP1 POP PUSH1 0x0 JUMPDEST DUP2 MLOAD DUP2 LT ISZERO PUSH2 0x302D JUMPI DUP2 DUP2 DUP2 MLOAD DUP2 LT PUSH2 0x2F8C JUMPI PUSH2 0x2F8C PUSH2 0x575A JUMP JUMPDEST PUSH1 0x20 SWAP1 DUP2 MUL SWAP2 SWAP1 SWAP2 ADD DUP2 ADD MLOAD DUP5 CALLDATALOAD PUSH1 0x0 SWAP1 DUP2 MSTORE PUSH1 0x9 SWAP1 SWAP3 MSTORE PUSH1 0x40 DUP1 DUP4 KECCAK256 DUP2 MLOAD PUSH4 0x5AB75941 PUSH1 0xE1 SHL DUP2 MSTORE PUSH1 0x1 PUSH1 0x1 PUSH1 0xA0 SHL SUB SWAP1 SWAP4 AND PUSH1 0x4 DUP5 ADD MSTORE PUSH1 0x24 DUP4 ADD MSTORE MLOAD PUSH20 0x0 SWAP3 PUSH4 0xB56EB282 SWAP3 PUSH1 0x44 DUP1 DUP3 ADD SWAP4 SWAP2 DUP3 SWAP1 SUB ADD DUP2 DUP7 DUP1 EXTCODESIZE ISZERO DUP1 ISZERO PUSH2 0x3002 JUMPI PUSH1 0x0 DUP1 REVERT JUMPDEST POP GAS DELEGATECALL ISZERO DUP1 ISZERO PUSH2 0x3016 JUMPI RETURNDATASIZE PUSH1 0x0 DUP1 RETURNDATACOPY RETURNDATASIZE PUSH1 0x0 REVERT JUMPDEST POP POP POP POP DUP1 DUP1 PUSH2 0x3025 SWAP1 PUSH2 0x5786 JUMP JUMPDEST SWAP2 POP POP PUSH2 0x2F71 JUMP JUMPDEST POP PUSH1 0x0 PUSH2 0x3040 PUSH1 0xE0 DUP5 ADD PUSH1 0xC0 DUP6 ADD PUSH2 0x581E JUMP JUMPDEST PUSH1 0x1 DUP2 GT ISZERO PUSH2 0x3051 JUMPI PUSH2 0x3051 PUSH2 0x50E3 JUMP JUMPDEST EQ ISZERO PUSH2 0x32C2 JUMPI PUSH1 0x0 PUSH1 0x7 DUP2 PUSH2 0x306D PUSH2 0x100 DUP7 ADD PUSH1 0xE0 DUP8 ADD PUSH2 0x5801 JUMP JUMPDEST PUSH2 0xFFFF AND PUSH2 0xFFFF AND DUP2 MSTORE PUSH1 0x20 ADD SWAP1 DUP2 MSTORE PUSH1 0x20 ADD PUSH1 0x0 KECCAK256 DUP1 SLOAD DUP1 PUSH1 0x20 MUL PUSH1 0x20 ADD PUSH1 0x40 MLOAD SWAP1 DUP2 ADD PUSH1 0x40 MSTORE DUP1 SWAP3 SWAP2 SWAP1 DUP2 DUP2 MSTORE PUSH1 0x20 ADD PUSH1 0x0 SWAP1 JUMPDEST DUP3 DUP3 LT ISZERO PUSH2 0x320B JUMPI PUSH1 0x0 DUP5 DUP2 MSTORE PUSH1 0x20 SWAP1 DUP2 SWAP1 KECCAK256 PUSH1 0x40 DUP1 MLOAD PUSH2 0x120 DUP2 ADD DUP3 MSTORE PUSH1 0x5 DUP7 MUL SWAP1 SWAP3 ADD DUP1 SLOAD DUP4 MSTORE PUSH1 0x1 DUP1 DUP3 ADD SLOAD SWAP5 DUP5 ADD SWAP5 SWAP1 SWAP5 MSTORE PUSH1 0x2 DUP2 ADD SLOAD PUSH1 0x1 PUSH1 0x1 PUSH1 0xA0 SHL SUB DUP1 DUP3 AND SWAP4 DUP6 ADD SWAP4 SWAP1 SWAP4 MSTORE PUSH1 0x1 PUSH1 0xA0 SHL DUP1 DUP3 DIV PUSH1 0xFF SWAP1 DUP2 AND ISZERO ISZERO PUSH1 0x60 DUP8 ADD MSTORE PUSH1 0x1 PUSH1 0xA8 SHL SWAP1 SWAP3 DIV DUP3 AND ISZERO ISZERO PUSH1 0x80 DUP7 ADD MSTORE PUSH1 0x3 DUP4 ADD SLOAD SWAP4 DUP5 AND PUSH1 0xA0 DUP7 ADD MSTORE SWAP4 SWAP5 SWAP2 SWAP4 PUSH1 0xC0 DUP7 ADD SWAP4 DIV AND SWAP1 DUP2 GT ISZERO PUSH2 0x313D JUMPI PUSH2 0x313D PUSH2 0x50E3 JUMP JUMPDEST PUSH1 0x1 DUP2 GT ISZERO PUSH2 0x314E JUMPI PUSH2 0x314E PUSH2 0x50E3 JUMP JUMPDEST DUP2 MSTORE PUSH1 0x3 DUP3 ADD SLOAD PUSH1 0x1 PUSH1 0xA8 SHL SWAP1 DIV PUSH2 0xFFFF AND PUSH1 0x20 DUP3 ADD MSTORE PUSH1 0x4 DUP3 ADD DUP1 SLOAD PUSH1 0x40 SWAP1 SWAP3 ADD SWAP2 PUSH2 0x317A SWAP1 PUSH2 0x592D JUMP JUMPDEST DUP1 PUSH1 0x1F ADD PUSH1 0x20 DUP1 SWAP2 DIV MUL PUSH1 0x20 ADD PUSH1 0x40 MLOAD SWAP1 DUP2 ADD PUSH1 0x40 MSTORE DUP1 SWAP3 SWAP2 SWAP1 DUP2 DUP2 MSTORE PUSH1 0x20 ADD DUP3 DUP1 SLOAD PUSH2 0x31A6 SWAP1 PUSH2 0x592D JUMP JUMPDEST DUP1 ISZERO PUSH2 0x31F3 JUMPI DUP1 PUSH1 0x1F LT PUSH2 0x31C8 JUMPI PUSH2 0x100 DUP1 DUP4 SLOAD DIV MUL DUP4 MSTORE SWAP2 PUSH1 0x20 ADD SWAP2 PUSH2 0x31F3 JUMP JUMPDEST DUP3 ADD SWAP2 SWAP1 PUSH1 0x0 MSTORE PUSH1 0x20 PUSH1 0x0 KECCAK256 SWAP1 JUMPDEST DUP2 SLOAD DUP2 MSTORE SWAP1 PUSH1 0x1 ADD SWAP1 PUSH1 0x20 ADD DUP1 DUP4 GT PUSH2 0x31D6 JUMPI DUP3 SWAP1 SUB PUSH1 0x1F AND DUP3 ADD SWAP2 JUMPDEST POP POP POP POP POP DUP2 MSTORE POP POP DUP2 MSTORE PUSH1 0x20 ADD SWAP1 PUSH1 0x1 ADD SWAP1 PUSH2 0x30A3 JUMP JUMPDEST POP POP POP POP SWAP1 POP PUSH1 0x0 JUMPDEST DUP3 MLOAD DUP2 LT ISZERO PUSH2 0x32BF JUMPI DUP4 PUSH1 0x0 ADD CALLDATALOAD DUP3 DUP3 DUP2 MLOAD DUP2 LT PUSH2 0x3234 JUMPI PUSH2 0x3234 PUSH2 0x575A JUMP JUMPDEST PUSH1 0x20 MUL PUSH1 0x20 ADD ADD MLOAD PUSH1 0x0 ADD MLOAD EQ ISZERO PUSH2 0x32AD JUMPI PUSH1 0x1 PUSH1 0x7 PUSH1 0x0 PUSH2 0x325D PUSH2 0x100 DUP9 ADD PUSH1 0xE0 DUP10 ADD PUSH2 0x5801 JUMP JUMPDEST PUSH2 0xFFFF AND PUSH2 0xFFFF AND DUP2 MSTORE PUSH1 0x20 ADD SWAP1 DUP2 MSTORE PUSH1 0x20 ADD PUSH1 0x0 KECCAK256 DUP3 DUP2 SLOAD DUP2 LT PUSH2 0x3284 JUMPI PUSH2 0x3284 PUSH2 0x575A JUMP JUMPDEST SWAP1 PUSH1 0x0 MSTORE PUSH1 0x20 PUSH1 0x0 KECCAK256 SWAP1 PUSH1 0x5 MUL ADD PUSH1 0x2 ADD PUSH1 0x15 PUSH2 0x100 EXP DUP2 SLOAD DUP2 PUSH1 0xFF MUL NOT AND SWAP1 DUP4 ISZERO ISZERO MUL OR SWAP1 SSTORE POP JUMPDEST DUP1 PUSH2 0x32B7 DUP2 PUSH2 0x5786 JUMP JUMPDEST SWAP2 POP POP PUSH2 0x3214 JUMP JUMPDEST POP POP JUMPDEST PUSH1 0x1 PUSH2 0x32D4 PUSH1 0xE0 DUP5 ADD PUSH1 0xC0 DUP6 ADD PUSH2 0x581E JUMP JUMPDEST PUSH1 0x1 DUP2 GT ISZERO PUSH2 0x32E5 JUMPI PUSH2 0x32E5 PUSH2 0x50E3 JUMP JUMPDEST EQ ISZERO PUSH2 0x3553 JUMPI PUSH1 0x0 PUSH1 0x8 DUP2 PUSH2 0x3301 PUSH2 0x100 DUP7 ADD PUSH1 0xE0 DUP8 ADD PUSH2 0x5801 JUMP JUMPDEST PUSH2 0xFFFF AND PUSH2 0xFFFF AND DUP2 MSTORE PUSH1 0x20 ADD SWAP1 DUP2 MSTORE PUSH1 0x20 ADD PUSH1 0x0 KECCAK256 DUP1 SLOAD DUP1 PUSH1 0x20 MUL PUSH1 0x20 ADD PUSH1 0x40 MLOAD SWAP1 DUP2 ADD PUSH1 0x40 MSTORE DUP1 SWAP3 SWAP2 SWAP1 DUP2 DUP2 MSTORE PUSH1 0x20 ADD PUSH1 0x0 SWAP1 JUMPDEST DUP3 DUP3 LT ISZERO PUSH2 0x349F JUMPI PUSH1 0x0 DUP5 DUP2 MSTORE PUSH1 0x20 SWAP1 DUP2 SWAP1 KECCAK256 PUSH1 0x40 DUP1 MLOAD PUSH2 0x120 DUP2 ADD DUP3 MSTORE PUSH1 0x5 DUP7 MUL SWAP1 SWAP3 ADD DUP1 SLOAD DUP4 MSTORE PUSH1 0x1 DUP1 DUP3 ADD SLOAD SWAP5 DUP5 ADD SWAP5 SWAP1 SWAP5 MSTORE PUSH1 0x2 DUP2 ADD SLOAD PUSH1 0x1 PUSH1 0x1 PUSH1 0xA0 SHL SUB DUP1 DUP3 AND SWAP4 DUP6 ADD SWAP4 SWAP1 SWAP4 MSTORE PUSH1 0x1 PUSH1 0xA0 SHL DUP1 DUP3 DIV PUSH1 0xFF SWAP1 DUP2 AND ISZERO ISZERO PUSH1 0x60 DUP8 ADD MSTORE PUSH1 0x1 PUSH1 0xA8 SHL SWAP1 SWAP3 DIV DUP3 AND ISZERO ISZERO PUSH1 0x80 DUP7 ADD MSTORE PUSH1 0x3 DUP4 ADD SLOAD SWAP4 DUP5 AND PUSH1 0xA0 DUP7 ADD MSTORE SWAP4 SWAP5 SWAP2 SWAP4 PUSH1 0xC0 DUP7 ADD SWAP4 DIV AND SWAP1 DUP2 GT ISZERO PUSH2 0x33D1 JUMPI PUSH2 0x33D1 PUSH2 0x50E3 JUMP JUMPDEST PUSH1 0x1 DUP2 GT ISZERO PUSH2 0x33E2 JUMPI PUSH2 0x33E2 PUSH2 0x50E3 JUMP JUMPDEST DUP2 MSTORE PUSH1 0x3 DUP3 ADD SLOAD PUSH1 0x1 PUSH1 0xA8 SHL SWAP1 DIV PUSH2 0xFFFF AND PUSH1 0x20 DUP3 ADD MSTORE PUSH1 0x4 DUP3 ADD DUP1 SLOAD PUSH1 0x40 SWAP1 SWAP3 ADD SWAP2 PUSH2 0x340E SWAP1 PUSH2 0x592D JUMP JUMPDEST DUP1 PUSH1 0x1F ADD PUSH1 0x20 DUP1 SWAP2 DIV MUL PUSH1 0x20 ADD PUSH1 0x40 MLOAD SWAP1 DUP2 ADD PUSH1 0x40 MSTORE DUP1 SWAP3 SWAP2 SWAP1 DUP2 DUP2 MSTORE PUSH1 0x20 ADD DUP3 DUP1 SLOAD PUSH2 0x343A SWAP1 PUSH2 0x592D JUMP JUMPDEST DUP1 ISZERO PUSH2 0x3487 JUMPI DUP1 PUSH1 0x1F LT PUSH2 0x345C JUMPI PUSH2 0x100 DUP1 DUP4 SLOAD DIV MUL DUP4 MSTORE SWAP2 PUSH1 0x20 ADD SWAP2 PUSH2 0x3487 JUMP JUMPDEST DUP3 ADD SWAP2 SWAP1 PUSH1 0x0 MSTORE PUSH1 0x20 PUSH1 0x0 KECCAK256 SWAP1 JUMPDEST DUP2 SLOAD DUP2 MSTORE SWAP1 PUSH1 0x1 ADD SWAP1 PUSH1 0x20 ADD DUP1 DUP4 GT PUSH2 0x346A JUMPI DUP3 SWAP1 SUB PUSH1 0x1F AND DUP3 ADD SWAP2 JUMPDEST POP POP POP POP POP DUP2 MSTORE POP POP DUP2 MSTORE PUSH1 0x20 ADD SWAP1 PUSH1 0x1 ADD SWAP1 PUSH2 0x3337 JUMP JUMPDEST POP POP POP POP SWAP1 POP PUSH1 0x0 JUMPDEST DUP3 MLOAD DUP2 LT ISZERO PUSH2 0x139D JUMPI DUP4 PUSH1 0x0 ADD CALLDATALOAD DUP3 DUP3 DUP2 MLOAD DUP2 LT PUSH2 0x34C8 JUMPI PUSH2 0x34C8 PUSH2 0x575A JUMP JUMPDEST PUSH1 0x20 MUL PUSH1 0x20 ADD ADD MLOAD PUSH1 0x0 ADD MLOAD EQ ISZERO PUSH2 0x3541 JUMPI PUSH1 0x1 PUSH1 0x8 PUSH1 0x0 PUSH2 0x34F1 PUSH2 0x100 DUP9 ADD PUSH1 0xE0 DUP10 ADD PUSH2 0x5801 JUMP JUMPDEST PUSH2 0xFFFF AND PUSH2 0xFFFF AND DUP2 MSTORE PUSH1 0x20 ADD SWAP1 DUP2 MSTORE PUSH1 0x20 ADD PUSH1 0x0 KECCAK256 DUP3 DUP2 SLOAD DUP2 LT PUSH2 0x3518 JUMPI PUSH2 0x3518 PUSH2 0x575A JUMP JUMPDEST SWAP1 PUSH1 0x0 MSTORE PUSH1 0x20 PUSH1 0x0 KECCAK256 SWAP1 PUSH1 0x5 MUL ADD PUSH1 0x2 ADD PUSH1 0x15 PUSH2 0x100 EXP DUP2 SLOAD DUP2 PUSH1 0xFF MUL NOT AND SWAP1 DUP4 ISZERO ISZERO MUL OR SWAP1 SSTORE POP JUMPDEST DUP1 PUSH2 0x354B DUP2 PUSH2 0x5786 JUMP JUMPDEST SWAP2 POP POP PUSH2 0x34A8 JUMP JUMPDEST POP POP JUMP JUMPDEST PUSH1 0x0 PUSH2 0x3561 PUSH2 0x36B9 JUMP JUMPDEST PUSH1 0x0 PUSH2 0x356C TIMESTAMP PUSH2 0x37EB JUMP JUMPDEST PUSH1 0xE SLOAD SWAP1 SWAP2 POP PUSH5 0xFFFFFFFFFF PUSH2 0x100 SWAP1 SWAP2 DIV DUP2 AND SWAP1 DUP3 AND GT PUSH2 0x35B5 JUMPI PUSH1 0x40 MLOAD PUSH3 0x461BCD PUSH1 0xE5 SHL DUP2 MSTORE PUSH1 0x20 PUSH1 0x4 DUP3 ADD MSTORE PUSH1 0x2 PUSH1 0x24 DUP3 ADD MSTORE PUSH2 0xC4D PUSH1 0xF2 SHL PUSH1 0x44 DUP3 ADD MSTORE PUSH1 0x64 ADD PUSH2 0x42D JUMP JUMPDEST PUSH1 0xE SLOAD PUSH2 0x100 SWAP1 DIV PUSH5 0xFFFFFFFFFF AND JUMPDEST DUP2 PUSH5 0xFFFFFFFFFF AND DUP2 PUSH5 0xFFFFFFFFFF AND GT PUSH2 0x3611 JUMPI PUSH5 0xFFFFFFFFFF DUP2 AND PUSH1 0x0 SWAP1 DUP2 MSTORE PUSH1 0x5 PUSH1 0x20 MSTORE PUSH1 0x40 SWAP1 KECCAK256 SLOAD ISZERO PUSH2 0x35FF JUMPI PUSH1 0x1 SWAP3 POP POP POP SWAP1 JUMP JUMPDEST DUP1 PUSH2 0x3609 DUP2 PUSH2 0x58B6 JUMP JUMPDEST SWAP2 POP POP PUSH2 0x35C5 JUMP JUMPDEST POP PUSH1 0x0 SWAP2 POP POP SWAP1 JUMP JUMPDEST PUSH2 0x3622 PUSH2 0x37BA JUMP JUMPDEST CALLVALUE PUSH1 0x2 SLOAD GT ISZERO PUSH2 0x3644 JUMPI PUSH1 0x40 MLOAD PUSH3 0x461BCD PUSH1 0xE5 SHL DUP2 MSTORE PUSH1 0x4 ADD PUSH2 0x42D SWAP1 PUSH2 0x57E6 JUMP JUMPDEST PUSH1 0x0 DUP2 DUP2 MSTORE PUSH1 0x9 PUSH1 0x20 MSTORE PUSH1 0x40 SWAP1 DUP2 SWAP1 KECCAK256 SWAP1 MLOAD PUSH4 0x5AB75941 PUSH1 0xE1 SHL DUP2 MSTORE CALLER PUSH1 0x4 DUP3 ADD MSTORE PUSH1 0x24 DUP2 ADD SWAP2 SWAP1 SWAP2 MSTORE PUSH20 0x0 SWAP1 PUSH4 0xB56EB282 SWAP1 PUSH1 0x44 ADD PUSH1 0x0 PUSH1 0x40 MLOAD DUP1 DUP4 SUB DUP2 DUP7 DUP1 EXTCODESIZE ISZERO DUP1 ISZERO PUSH2 0x36A5 JUMPI PUSH1 0x0 DUP1 REVERT JUMPDEST POP GAS DELEGATECALL ISZERO DUP1 ISZERO PUSH2 0x293A JUMPI RETURNDATASIZE PUSH1 0x0 DUP1 RETURNDATACOPY RETURNDATASIZE PUSH1 0x0 REVERT JUMPDEST PUSH1 0x0 SLOAD PUSH1 0x1 PUSH1 0x1 PUSH1 0xA0 SHL SUB AND CALLER EQ PUSH2 0x36F7 JUMPI PUSH1 0x40 MLOAD PUSH3 0x461BCD PUSH1 0xE5 SHL DUP2 MSTORE PUSH1 0x20 PUSH1 0x4 DUP3 ADD MSTORE PUSH1 0x1 PUSH1 0x24 DUP3 ADD MSTORE PUSH1 0x3 PUSH1 0xFC SHL PUSH1 0x44 DUP3 ADD MSTORE PUSH1 0x64 ADD PUSH2 0x42D JUMP JUMPDEST JUMP JUMPDEST PUSH1 0x0 DUP1 PUSH1 0xD DUP1 SLOAD DUP1 PUSH1 0x20 MUL PUSH1 0x20 ADD PUSH1 0x40 MLOAD SWAP1 DUP2 ADD PUSH1 0x40 MSTORE DUP1 SWAP3 SWAP2 SWAP1 DUP2 DUP2 MSTORE PUSH1 0x20 ADD DUP3 DUP1 SLOAD DUP1 ISZERO PUSH2 0x3752 JUMPI PUSH1 0x20 MUL DUP3 ADD SWAP2 SWAP1 PUSH1 0x0 MSTORE PUSH1 0x20 PUSH1 0x0 KECCAK256 SWAP1 JUMPDEST DUP2 SLOAD PUSH1 0x1 PUSH1 0x1 PUSH1 0xA0 SHL SUB AND DUP2 MSTORE PUSH1 0x1 SWAP1 SWAP2 ADD SWAP1 PUSH1 0x20 ADD DUP1 DUP4 GT PUSH2 0x3734 JUMPI JUMPDEST POP POP POP POP POP SWAP1 POP PUSH1 0x0 SWAP2 POP PUSH1 0x0 JUMPDEST DUP2 MLOAD DUP2 LT ISZERO PUSH2 0x37B3 JUMPI DUP2 DUP2 DUP2 MLOAD DUP2 LT PUSH2 0x377B JUMPI PUSH2 0x377B PUSH2 0x575A JUMP JUMPDEST PUSH1 0x20 MUL PUSH1 0x20 ADD ADD MLOAD PUSH1 0x1 PUSH1 0x1 PUSH1 0xA0 SHL SUB AND DUP5 PUSH1 0x1 PUSH1 0x1 PUSH1 0xA0 SHL SUB AND EQ ISZERO PUSH2 0x37A1 JUMPI PUSH1 0x1 SWAP3 POP JUMPDEST DUP1 PUSH2 0x37AB DUP2 PUSH2 0x5786 JUMP JUMPDEST SWAP2 POP POP PUSH2 0x3760 JUMP JUMPDEST POP POP SWAP2 SWAP1 POP JUMP JUMPDEST CALLER PUSH2 0x36F7 JUMPI PUSH1 0x40 MLOAD PUSH3 0x461BCD PUSH1 0xE5 SHL DUP2 MSTORE PUSH1 0x20 PUSH1 0x4 DUP3 ADD MSTORE PUSH1 0x1 PUSH1 0x24 DUP3 ADD MSTORE PUSH1 0x33 PUSH1 0xF8 SHL PUSH1 0x44 DUP3 ADD MSTORE PUSH1 0x64 ADD PUSH2 0x42D JUMP JUMPDEST PUSH1 0x0 PUSH2 0x37F9 PUSH2 0xE10 DUP4 PUSH2 0x5968 JUMP JUMPDEST SWAP3 SWAP2 POP POP JUMP JUMPDEST PUSH5 0xFFFFFFFFFF DUP2 AND PUSH1 0x0 SWAP1 DUP2 MSTORE PUSH1 0x5 PUSH1 0x20 MSTORE PUSH1 0x40 SWAP1 KECCAK256 SLOAD PUSH1 0x1 EQ ISZERO PUSH2 0x3846 JUMPI PUSH5 0xFFFFFFFFFF DUP2 AND PUSH1 0x0 SWAP1 DUP2 MSTORE PUSH1 0x5 PUSH1 0x20 MSTORE PUSH1 0x40 DUP2 KECCAK256 PUSH2 0x383D SWAP2 PUSH2 0x500D JUMP JUMPDEST PUSH2 0x3553 DUP2 PUSH2 0x4D31 JUMP JUMPDEST PUSH5 0xFFFFFFFFFF DUP2 AND PUSH1 0x0 SWAP1 DUP2 MSTORE PUSH1 0x5 PUSH1 0x20 MSTORE PUSH1 0x40 DUP2 KECCAK256 SWAP1 DUP1 DUP1 JUMPDEST DUP4 SLOAD DUP2 LT ISZERO PUSH2 0x3951 JUMPI CALLER PUSH1 0x1 PUSH1 0x1 PUSH1 0xA0 SHL SUB AND DUP5 DUP3 DUP2 SLOAD DUP2 LT PUSH2 0x3885 JUMPI PUSH2 0x3885 PUSH2 0x575A JUMP JUMPDEST PUSH1 0x0 SWAP2 DUP3 MSTORE PUSH1 0x20 SWAP1 SWAP2 KECCAK256 PUSH1 0x1 PUSH1 0x5 SWAP1 SWAP3 MUL ADD ADD SLOAD PUSH1 0x1 PUSH1 0x1 PUSH1 0xA0 SHL SUB AND EQ ISZERO PUSH2 0x38B6 JUMPI DUP2 PUSH2 0x38B2 DUP2 PUSH2 0x5786 JUMP JUMPDEST SWAP3 POP POP JUMPDEST DUP6 DUP5 DUP3 DUP2 SLOAD DUP2 LT PUSH2 0x38C9 JUMPI PUSH2 0x38C9 PUSH2 0x575A JUMP JUMPDEST SWAP1 PUSH1 0x0 MSTORE PUSH1 0x20 PUSH1 0x0 KECCAK256 SWAP1 PUSH1 0x5 MUL ADD PUSH1 0x0 ADD SLOAD EQ ISZERO PUSH2 0x393F JUMPI DUP1 SWAP3 POP DUP4 DUP2 DUP2 SLOAD DUP2 LT PUSH2 0x38F6 JUMPI PUSH2 0x38F6 PUSH2 0x575A JUMP JUMPDEST PUSH1 0x0 SWAP2 DUP3 MSTORE PUSH1 0x20 DUP3 KECCAK256 PUSH1 0x5 SWAP1 SWAP2 MUL ADD DUP2 DUP2 SSTORE PUSH1 0x1 DUP2 ADD DUP1 SLOAD PUSH1 0x1 PUSH1 0x1 PUSH1 0xA0 SHL SUB NOT SWAP1 DUP2 AND SWAP1 SWAP2 SSTORE PUSH1 0x2 DUP3 ADD DUP1 SLOAD SWAP1 SWAP2 AND SWAP1 SSTORE PUSH1 0x3 DUP2 ADD DUP1 SLOAD PUSH1 0x1 PUSH1 0x1 PUSH1 0xD0 SHL SUB NOT AND SWAP1 SSTORE PUSH1 0x4 ADD SSTORE JUMPDEST DUP1 PUSH2 0x3949 DUP2 PUSH2 0x5786 JUMP JUMPDEST SWAP2 POP POP PUSH2 0x3860 JUMP JUMPDEST POP DUP3 SLOAD DUP4 SWAP1 PUSH2 0x3962 SWAP1 PUSH1 0x1 SWAP1 PUSH2 0x57A1 JUMP JUMPDEST DUP2 SLOAD DUP2 LT PUSH2 0x3972 JUMPI PUSH2 0x3972 PUSH2 0x575A JUMP JUMPDEST SWAP1 PUSH1 0x0 MSTORE PUSH1 0x20 PUSH1 0x0 KECCAK256 SWAP1 PUSH1 0x5 MUL ADD DUP4 DUP4 DUP2 SLOAD DUP2 LT PUSH2 0x3992 JUMPI PUSH2 0x3992 PUSH2 0x575A JUMP JUMPDEST PUSH1 0x0 SWAP2 DUP3 MSTORE PUSH1 0x20 SWAP1 SWAP2 KECCAK256 DUP3 SLOAD PUSH1 0x5 SWAP1 SWAP3 MUL ADD SWAP1 DUP2 SSTORE PUSH1 0x1 DUP1 DUP4 ADD SLOAD SWAP1 DUP3 ADD DUP1 SLOAD PUSH1 0x1 PUSH1 0x1 PUSH1 0xA0 SHL SUB NOT SWAP1 DUP2 AND PUSH1 0x1 PUSH1 0x1 PUSH1 0xA0 SHL SUB SWAP4 DUP5 AND OR SWAP1 SWAP2 SSTORE PUSH1 0x2 DUP1 DUP6 ADD SLOAD SWAP1 DUP5 ADD DUP1 SLOAD DUP4 AND SWAP2 DUP5 AND SWAP2 SWAP1 SWAP2 OR SWAP1 SSTORE PUSH1 0x3 DUP1 DUP6 ADD DUP1 SLOAD DUP3 DUP7 ADD DUP1 SLOAD SWAP5 DUP6 AND SWAP2 SWAP1 SWAP6 AND SWAP1 DUP2 OR DUP6 SSTORE DUP2 SLOAD PUSH5 0xFFFFFFFFFF PUSH1 0x1 PUSH1 0xA0 SHL SWAP2 DUP3 SWAP1 DIV AND MUL PUSH1 0x1 PUSH1 0x1 PUSH1 0xC8 SHL SUB NOT SWAP1 SWAP5 AND OR SWAP3 SWAP1 SWAP3 OR DUP1 DUP5 SSTORE SWAP2 SLOAD PUSH1 0xFF PUSH1 0x1 PUSH1 0xC8 SHL SWAP2 DUP3 SWAP1 DIV AND SWAP4 SWAP3 PUSH1 0xFF PUSH1 0xC8 SHL NOT AND SWAP2 DUP5 SWAP1 DUP2 GT ISZERO PUSH2 0x3A4B JUMPI PUSH2 0x3A4B PUSH2 0x50E3 JUMP JUMPDEST MUL OR SWAP1 SSTORE POP PUSH1 0x4 SWAP2 DUP3 ADD SLOAD SWAP2 ADD SSTORE DUP3 SLOAD DUP4 SWAP1 DUP1 PUSH2 0x3A6A JUMPI PUSH2 0x3A6A PUSH2 0x57D0 JUMP JUMPDEST PUSH1 0x0 DUP3 DUP2 MSTORE PUSH1 0x20 DUP2 KECCAK256 PUSH1 0x5 PUSH1 0x0 NOT SWAP1 SWAP4 ADD SWAP3 DUP4 MUL ADD DUP2 DUP2 SSTORE PUSH1 0x1 DUP2 DUP2 ADD DUP1 SLOAD PUSH1 0x1 PUSH1 0x1 PUSH1 0xA0 SHL SUB NOT SWAP1 DUP2 AND SWAP1 SWAP2 SSTORE PUSH1 0x2 DUP4 ADD DUP1 SLOAD SWAP1 SWAP2 AND SWAP1 SSTORE PUSH1 0x3 DUP3 ADD DUP1 SLOAD PUSH1 0x1 PUSH1 0x1 PUSH1 0xD0 SHL SUB NOT AND SWAP1 SSTORE PUSH1 0x4 SWAP1 SWAP2 ADD SWAP2 SWAP1 SWAP2 SSTORE SWAP2 SSTORE DUP2 EQ ISZERO PUSH2 0x3AD0 JUMPI PUSH2 0x3AD0 DUP5 PUSH2 0x4D31 JUMP JUMPDEST PUSH1 0x0 DUP1 JUMPDEST PUSH1 0x6 SLOAD DUP2 LT ISZERO PUSH2 0x3B1D JUMPI DUP7 PUSH1 0x6 DUP3 DUP2 SLOAD DUP2 LT PUSH2 0x3AF2 JUMPI PUSH2 0x3AF2 PUSH2 0x575A JUMP JUMPDEST SWAP1 PUSH1 0x0 MSTORE PUSH1 0x20 PUSH1 0x0 KECCAK256 ADD SLOAD EQ ISZERO PUSH2 0x3B0B JUMPI DUP1 SWAP2 POP PUSH2 0x3B1D JUMP JUMPDEST DUP1 PUSH2 0x3B15 DUP2 PUSH2 0x5786 JUMP JUMPDEST SWAP2 POP POP PUSH2 0x3AD4 JUMP JUMPDEST POP PUSH1 0x6 DUP1 SLOAD PUSH2 0x3B2E SWAP1 PUSH1 0x1 SWAP1 PUSH2 0x57A1 JUMP JUMPDEST DUP2 SLOAD DUP2 LT PUSH2 0x3B3E JUMPI PUSH2 0x3B3E PUSH2 0x575A JUMP JUMPDEST SWAP1 PUSH1 0x0 MSTORE PUSH1 0x20 PUSH1 0x0 KECCAK256 ADD SLOAD PUSH1 0x6 DUP3 DUP2 SLOAD DUP2 LT PUSH2 0x3B5C JUMPI PUSH2 0x3B5C PUSH2 0x575A JUMP JUMPDEST PUSH1 0x0 SWAP2 DUP3 MSTORE PUSH1 0x20 SWAP1 SWAP2 KECCAK256 ADD SSTORE PUSH1 0x6 DUP1 SLOAD DUP1 PUSH2 0x3B79 JUMPI PUSH2 0x3B79 PUSH2 0x57D0 JUMP JUMPDEST PUSH1 0x1 SWAP1 SUB DUP2 DUP2 SWAP1 PUSH1 0x0 MSTORE PUSH1 0x20 PUSH1 0x0 KECCAK256 ADD PUSH1 0x0 SWAP1 SSTORE SWAP1 SSTORE POP POP POP POP POP POP JUMP JUMPDEST PUSH1 0x0 DUP1 PUSH1 0x40 MLOAD DUP1 PUSH1 0x60 ADD PUSH1 0x40 MSTORE DUP1 DUP7 DUP2 MSTORE PUSH1 0x20 ADD DUP6 PUSH2 0xFFFF AND DUP2 MSTORE PUSH1 0x20 ADD DUP5 PUSH1 0x1 DUP2 GT ISZERO PUSH2 0x3BC7 JUMPI PUSH2 0x3BC7 PUSH2 0x50E3 JUMP JUMPDEST SWAP1 MSTORE SWAP1 POP PUSH1 0x0 PUSH2 0x3BD6 DUP3 PUSH2 0x3DBA JUMP JUMPDEST SWAP1 POP DUP1 PUSH1 0x60 ADD MLOAD ISZERO PUSH2 0x3BED JUMPI PUSH1 0x1 SWAP3 POP POP POP PUSH2 0x3BF4 JUMP JUMPDEST PUSH1 0x0 SWAP3 POP POP POP JUMPDEST SWAP4 SWAP3 POP POP POP JUMP JUMPDEST CALLER PUSH1 0x0 SWAP1 DUP2 MSTORE PUSH1 0x3 PUSH1 0x20 MSTORE PUSH1 0x40 SWAP1 KECCAK256 SLOAD PUSH1 0x1 PUSH1 0xA0 SHL SWAP1 DIV PUSH1 0xFF AND PUSH2 0x3C85 JUMPI CALLER PUSH1 0x0 DUP2 DUP2 MSTORE PUSH1 0x3 PUSH1 0x20 MSTORE PUSH1 0x40 DUP2 KECCAK256 DUP1 SLOAD PUSH1 0x1 PUSH1 0x1 PUSH1 0xA0 SHL SUB NOT SWAP1 DUP2 AND DUP5 OR DUP3 SSTORE PUSH1 0x4 DUP1 SLOAD PUSH1 0x1 DUP2 ADD SWAP1 SWAP2 SSTORE PUSH32 0x8A35ACFBC15FF81A39AE7D344FD709F28E8600B4AA8C65C6B64BFE7FE36BD19B ADD DUP1 SLOAD SWAP1 SWAP2 AND DUP5 OR SWAP1 SSTORE SWAP2 SWAP1 MSTORE DUP1 SLOAD PUSH1 0xFF PUSH1 0xA0 SHL NOT AND PUSH1 0x1 PUSH1 0xA0 SHL OR SWAP1 SSTORE JUMPDEST CALLER PUSH1 0x0 SWAP1 DUP2 MSTORE PUSH1 0x3 PUSH1 0x20 SWAP1 DUP2 MSTORE PUSH1 0x40 DUP1 DUP4 KECCAK256 PUSH1 0x2 SWAP1 DUP2 ADD DUP1 SLOAD PUSH1 0x1 DUP2 DUP2 ADD DUP4 SSTORE SWAP2 DUP7 MSTORE SWAP5 DUP5 SWAP1 KECCAK256 DUP7 MLOAD SWAP6 SWAP1 SWAP3 MUL SWAP1 SWAP2 ADD SWAP4 DUP5 SSTORE SWAP2 DUP5 ADD MLOAD DUP4 DUP4 ADD DUP1 SLOAD PUSH2 0xFFFF SWAP1 SWAP3 AND PUSH2 0xFFFF NOT DUP4 AND DUP2 OR DUP3 SSTORE SWAP3 DUP7 ADD MLOAD DUP7 SWAP6 SWAP5 SWAP1 SWAP4 SWAP2 SWAP3 PUSH3 0xFFFFFF NOT AND SWAP1 SWAP2 OR SWAP1 PUSH3 0x10000 SWAP1 DUP5 SWAP1 DUP2 GT ISZERO PUSH2 0x3CFC JUMPI PUSH2 0x3CFC PUSH2 0x50E3 JUMP JUMPDEST MUL OR SWAP1 SSTORE POP POP POP POP JUMP JUMPDEST PUSH2 0x3D0E PUSH2 0x4FC1 JUMP JUMPDEST PUSH1 0x0 CALLER DUP7 DUP5 DUP8 TIMESTAMP PUSH1 0x40 MLOAD PUSH1 0x20 ADD PUSH2 0x3D29 SWAP6 SWAP5 SWAP4 SWAP3 SWAP2 SWAP1 PUSH2 0x598C JUMP JUMPDEST PUSH1 0x40 MLOAD PUSH1 0x20 DUP2 DUP4 SUB SUB DUP2 MSTORE SWAP1 PUSH1 0x40 MSTORE DUP1 MLOAD SWAP1 PUSH1 0x20 ADD KECCAK256 SWAP1 POP PUSH1 0x40 MLOAD DUP1 PUSH2 0x120 ADD PUSH1 0x40 MSTORE DUP1 DUP3 DUP2 MSTORE PUSH1 0x20 ADD DUP9 DUP2 MSTORE PUSH1 0x20 ADD CALLER PUSH1 0x1 PUSH1 0x1 PUSH1 0xA0 SHL SUB AND DUP2 MSTORE PUSH1 0x20 ADD PUSH1 0x1 ISZERO ISZERO DUP2 MSTORE PUSH1 0x20 ADD PUSH1 0x0 ISZERO ISZERO DUP2 MSTORE PUSH1 0x20 ADD DUP8 PUSH1 0x1 PUSH1 0x1 PUSH1 0xA0 SHL SUB AND DUP2 MSTORE PUSH1 0x20 ADD DUP6 PUSH1 0x1 DUP2 GT ISZERO PUSH2 0x3D9B JUMPI PUSH2 0x3D9B PUSH2 0x50E3 JUMP JUMPDEST DUP2 MSTORE PUSH1 0x20 ADD DUP5 PUSH2 0xFFFF AND DUP2 MSTORE PUSH1 0x20 ADD DUP7 DUP2 MSTORE POP SWAP2 POP POP SWAP6 SWAP5 POP POP POP POP POP JUMP JUMPDEST PUSH2 0x3DC2 PUSH2 0x4FC1 JUMP JUMPDEST PUSH1 0x0 DUP3 PUSH1 0x40 ADD MLOAD PUSH1 0x1 DUP2 GT ISZERO PUSH2 0x3DDA JUMPI PUSH2 0x3DDA PUSH2 0x50E3 JUMP JUMPDEST EQ ISZERO PUSH2 0x3FE9 JUMPI PUSH1 0x20 DUP1 DUP4 ADD MLOAD PUSH2 0xFFFF AND PUSH1 0x0 SWAP1 DUP2 MSTORE PUSH1 0x7 DUP3 MSTORE PUSH1 0x40 DUP1 DUP3 KECCAK256 DUP1 SLOAD DUP3 MLOAD DUP2 DUP7 MUL DUP2 ADD DUP7 ADD SWAP1 SWAP4 MSTORE DUP1 DUP4 MSTORE SWAP3 SWAP4 SWAP2 SWAP3 SWAP1 SWAP2 DUP5 SWAP1 DUP5 ADD JUMPDEST DUP3 DUP3 LT ISZERO PUSH2 0x3F7C JUMPI PUSH1 0x0 DUP5 DUP2 MSTORE PUSH1 0x20 SWAP1 DUP2 SWAP1 KECCAK256 PUSH1 0x40 DUP1 MLOAD PUSH2 0x120 DUP2 ADD DUP3 MSTORE PUSH1 0x5 DUP7 MUL SWAP1 SWAP3 ADD DUP1 SLOAD DUP4 MSTORE PUSH1 0x1 DUP1 DUP3 ADD SLOAD SWAP5 DUP5 ADD SWAP5 SWAP1 SWAP5 MSTORE PUSH1 0x2 DUP2 ADD SLOAD PUSH1 0x1 PUSH1 0x1 PUSH1 0xA0 SHL SUB DUP1 DUP3 AND SWAP4 DUP6 ADD SWAP4 SWAP1 SWAP4 MSTORE PUSH1 0x1 PUSH1 0xA0 SHL DUP1 DUP3 DIV PUSH1 0xFF SWAP1 DUP2 AND ISZERO ISZERO PUSH1 0x60 DUP8 ADD MSTORE PUSH1 0x1 PUSH1 0xA8 SHL SWAP1 SWAP3 DIV DUP3 AND ISZERO ISZERO PUSH1 0x80 DUP7 ADD MSTORE PUSH1 0x3 DUP4 ADD SLOAD SWAP4 DUP5 AND PUSH1 0xA0 DUP7 ADD MSTORE SWAP4 SWAP5 SWAP2 SWAP4 PUSH1 0xC0 DUP7 ADD SWAP4 DIV AND SWAP1 DUP2 GT ISZERO PUSH2 0x3EAE JUMPI PUSH2 0x3EAE PUSH2 0x50E3 JUMP JUMPDEST PUSH1 0x1 DUP2 GT ISZERO PUSH2 0x3EBF JUMPI PUSH2 0x3EBF PUSH2 0x50E3 JUMP JUMPDEST DUP2 MSTORE PUSH1 0x3 DUP3 ADD SLOAD PUSH1 0x1 PUSH1 0xA8 SHL SWAP1 DIV PUSH2 0xFFFF AND PUSH1 0x20 DUP3 ADD MSTORE PUSH1 0x4 DUP3 ADD DUP1 SLOAD PUSH1 0x40 SWAP1 SWAP3 ADD SWAP2 PUSH2 0x3EEB SWAP1 PUSH2 0x592D JUMP JUMPDEST DUP1 PUSH1 0x1F ADD PUSH1 0x20 DUP1 SWAP2 DIV MUL PUSH1 0x20 ADD PUSH1 0x40 MLOAD SWAP1 DUP2 ADD PUSH1 0x40 MSTORE DUP1 SWAP3 SWAP2 SWAP1 DUP2 DUP2 MSTORE PUSH1 0x20 ADD DUP3 DUP1 SLOAD PUSH2 0x3F17 SWAP1 PUSH2 0x592D JUMP JUMPDEST DUP1 ISZERO PUSH2 0x3F64 JUMPI DUP1 PUSH1 0x1F LT PUSH2 0x3F39 JUMPI PUSH2 0x100 DUP1 DUP4 SLOAD DIV MUL DUP4 MSTORE SWAP2 PUSH1 0x20 ADD SWAP2 PUSH2 0x3F64 JUMP JUMPDEST DUP3 ADD SWAP2 SWAP1 PUSH1 0x0 MSTORE PUSH1 0x20 PUSH1 0x0 KECCAK256 SWAP1 JUMPDEST DUP2 SLOAD DUP2 MSTORE SWAP1 PUSH1 0x1 ADD SWAP1 PUSH1 0x20 ADD DUP1 DUP4 GT PUSH2 0x3F47 JUMPI DUP3 SWAP1 SUB PUSH1 0x1F AND DUP3 ADD SWAP2 JUMPDEST POP POP POP POP POP DUP2 MSTORE POP POP DUP2 MSTORE PUSH1 0x20 ADD SWAP1 PUSH1 0x1 ADD SWAP1 PUSH2 0x3E14 JUMP JUMPDEST POP POP POP POP SWAP1 POP PUSH1 0x0 JUMPDEST DUP2 MLOAD DUP2 LT ISZERO PUSH2 0x3FE6 JUMPI DUP4 PUSH1 0x0 ADD MLOAD DUP3 DUP3 DUP2 MLOAD DUP2 LT PUSH2 0x3FA5 JUMPI PUSH2 0x3FA5 PUSH2 0x575A JUMP JUMPDEST PUSH1 0x20 MUL PUSH1 0x20 ADD ADD MLOAD PUSH1 0x0 ADD MLOAD EQ ISZERO PUSH2 0x3FD4 JUMPI DUP2 DUP2 DUP2 MLOAD DUP2 LT PUSH2 0x3FC9 JUMPI PUSH2 0x3FC9 PUSH2 0x575A JUMP JUMPDEST PUSH1 0x20 MUL PUSH1 0x20 ADD ADD MLOAD SWAP3 POP JUMPDEST DUP1 PUSH2 0x3FDE DUP2 PUSH2 0x5786 JUMP JUMPDEST SWAP2 POP POP PUSH2 0x3F85 JUMP JUMPDEST POP POP JUMPDEST PUSH1 0x1 DUP3 PUSH1 0x40 ADD MLOAD PUSH1 0x1 DUP2 GT ISZERO PUSH2 0x4001 JUMPI PUSH2 0x4001 PUSH2 0x50E3 JUMP JUMPDEST EQ ISZERO PUSH2 0x2EB2 JUMPI PUSH1 0x20 DUP1 DUP4 ADD MLOAD PUSH2 0xFFFF AND PUSH1 0x0 SWAP1 DUP2 MSTORE PUSH1 0x8 DUP3 MSTORE PUSH1 0x40 DUP1 DUP3 KECCAK256 DUP1 SLOAD DUP3 MLOAD DUP2 DUP7 MUL DUP2 ADD DUP7 ADD SWAP1 SWAP4 MSTORE DUP1 DUP4 MSTORE SWAP3 SWAP4 SWAP2 SWAP3 SWAP1 SWAP2 DUP5 SWAP1 DUP5 ADD JUMPDEST DUP3 DUP3 LT ISZERO PUSH2 0x41A3 JUMPI PUSH1 0x0 DUP5 DUP2 MSTORE PUSH1 0x20 SWAP1 DUP2 SWAP1 KECCAK256 PUSH1 0x40 DUP1 MLOAD PUSH2 0x120 DUP2 ADD DUP3 MSTORE PUSH1 0x5 DUP7 MUL SWAP1 SWAP3 ADD DUP1 SLOAD DUP4 MSTORE PUSH1 0x1 DUP1 DUP3 ADD SLOAD SWAP5 DUP5 ADD SWAP5 SWAP1 SWAP5 MSTORE PUSH1 0x2 DUP2 ADD SLOAD PUSH1 0x1 PUSH1 0x1 PUSH1 0xA0 SHL SUB DUP1 DUP3 AND SWAP4 DUP6 ADD SWAP4 SWAP1 SWAP4 MSTORE PUSH1 0x1 PUSH1 0xA0 SHL DUP1 DUP3 DIV PUSH1 0xFF SWAP1 DUP2 AND ISZERO ISZERO PUSH1 0x60 DUP8 ADD MSTORE PUSH1 0x1 PUSH1 0xA8 SHL SWAP1 SWAP3 DIV DUP3 AND ISZERO ISZERO PUSH1 0x80 DUP7 ADD MSTORE PUSH1 0x3 DUP4 ADD SLOAD SWAP4 DUP5 AND PUSH1 0xA0 DUP7 ADD MSTORE SWAP4 SWAP5 SWAP2 SWAP4 PUSH1 0xC0 DUP7 ADD SWAP4 DIV AND SWAP1 DUP2 GT ISZERO PUSH2 0x40D5 JUMPI PUSH2 0x40D5 PUSH2 0x50E3 JUMP JUMPDEST PUSH1 0x1 DUP2 GT ISZERO PUSH2 0x40E6 JUMPI PUSH2 0x40E6 PUSH2 0x50E3 JUMP JUMPDEST DUP2 MSTORE PUSH1 0x3 DUP3 ADD SLOAD PUSH1 0x1 PUSH1 0xA8 SHL SWAP1 DIV PUSH2 0xFFFF AND PUSH1 0x20 DUP3 ADD MSTORE PUSH1 0x4 DUP3 ADD DUP1 SLOAD PUSH1 0x40 SWAP1 SWAP3 ADD SWAP2 PUSH2 0x4112 SWAP1 PUSH2 0x592D JUMP JUMPDEST DUP1 PUSH1 0x1F ADD PUSH1 0x20 DUP1 SWAP2 DIV MUL PUSH1 0x20 ADD PUSH1 0x40 MLOAD SWAP1 DUP2 ADD PUSH1 0x40 MSTORE DUP1 SWAP3 SWAP2 SWAP1 DUP2 DUP2 MSTORE PUSH1 0x20 ADD DUP3 DUP1 SLOAD PUSH2 0x413E SWAP1 PUSH2 0x592D JUMP JUMPDEST DUP1 ISZERO PUSH2 0x418B JUMPI DUP1 PUSH1 0x1F LT PUSH2 0x4160 JUMPI PUSH2 0x100 DUP1 DUP4 SLOAD DIV MUL DUP4 MSTORE SWAP2 PUSH1 0x20 ADD SWAP2 PUSH2 0x418B JUMP JUMPDEST DUP3 ADD SWAP2 SWAP1 PUSH1 0x0 MSTORE PUSH1 0x20 PUSH1 0x0 KECCAK256 SWAP1 JUMPDEST DUP2 SLOAD DUP2 MSTORE SWAP1 PUSH1 0x1 ADD SWAP1 PUSH1 0x20 ADD DUP1 DUP4 GT PUSH2 0x416E JUMPI DUP3 SWAP1 SUB PUSH1 0x1F AND DUP3 ADD SWAP2 JUMPDEST POP POP POP POP POP DUP2 MSTORE POP POP DUP2 MSTORE PUSH1 0x20 ADD SWAP1 PUSH1 0x1 ADD SWAP1 PUSH2 0x403B JUMP JUMPDEST POP POP POP POP SWAP1 POP PUSH1 0x0 JUMPDEST DUP2 MLOAD DUP2 LT ISZERO PUSH2 0x37B3 JUMPI DUP4 PUSH1 0x0 ADD MLOAD DUP3 DUP3 DUP2 MLOAD DUP2 LT PUSH2 0x41CC JUMPI PUSH2 0x41CC PUSH2 0x575A JUMP JUMPDEST PUSH1 0x20 MUL PUSH1 0x20 ADD ADD MLOAD PUSH1 0x0 ADD MLOAD EQ ISZERO PUSH2 0x41FB JUMPI DUP2 DUP2 DUP2 MLOAD DUP2 LT PUSH2 0x41F0 JUMPI PUSH2 0x41F0 PUSH2 0x575A JUMP JUMPDEST PUSH1 0x20 MUL PUSH1 0x20 ADD ADD MLOAD SWAP3 POP JUMPDEST DUP1 PUSH2 0x4205 DUP2 PUSH2 0x5786 JUMP JUMPDEST SWAP2 POP POP PUSH2 0x41AC JUMP JUMPDEST TIMESTAMP DUP2 PUSH5 0xFFFFFFFFFF AND GT PUSH2 0x4247 JUMPI PUSH1 0x40 MLOAD PUSH3 0x461BCD PUSH1 0xE5 SHL DUP2 MSTORE PUSH1 0x20 PUSH1 0x4 DUP3 ADD MSTORE PUSH1 0x1 PUSH1 0x24 DUP3 ADD MSTORE PUSH1 0xD PUSH1 0xFA SHL PUSH1 0x44 DUP3 ADD MSTORE PUSH1 0x64 ADD PUSH2 0x42D JUMP JUMPDEST PUSH2 0x4253 PUSH2 0xE10 DUP3 PUSH2 0x59EA JUMP JUMPDEST PUSH5 0xFFFFFFFFFF AND ISZERO PUSH2 0xA83 JUMPI PUSH1 0x40 MLOAD PUSH3 0x461BCD PUSH1 0xE5 SHL DUP2 MSTORE PUSH1 0x20 PUSH1 0x4 DUP3 ADD MSTORE PUSH1 0x1 PUSH1 0x24 DUP3 ADD MSTORE PUSH1 0x1B PUSH1 0xF9 SHL PUSH1 0x44 DUP3 ADD MSTORE PUSH1 0x64 ADD PUSH2 0x42D JUMP JUMPDEST PUSH2 0x4293 PUSH2 0x4F00 JUMP JUMPDEST PUSH1 0x40 MLOAD PUSH12 0xFFFFFFFFFFFFFFFFFFFFFFFF NOT PUSH1 0x60 DUP9 SWAP1 SHL AND PUSH1 0x20 DUP3 ADD MSTORE PUSH1 0x1 PUSH1 0x1 PUSH1 0xD8 SHL SUB NOT PUSH1 0xD8 DUP6 SWAP1 SHL AND PUSH1 0x34 DUP3 ADD MSTORE TIMESTAMP PUSH1 0x39 DUP3 ADD MSTORE PUSH1 0x0 SWAP1 PUSH1 0x59 ADD PUSH1 0x40 MLOAD PUSH1 0x20 DUP2 DUP4 SUB SUB DUP2 MSTORE SWAP1 PUSH1 0x40 MSTORE DUP1 MLOAD SWAP1 PUSH1 0x20 ADD KECCAK256 SWAP1 POP PUSH1 0x40 MLOAD DUP1 PUSH1 0xE0 ADD PUSH1 0x40 MSTORE DUP1 DUP3 DUP2 MSTORE PUSH1 0x20 ADD DUP9 PUSH1 0x1 PUSH1 0x1 PUSH1 0xA0 SHL SUB AND DUP2 MSTORE PUSH1 0x20 ADD DUP8 PUSH1 0x1 PUSH1 0x1 PUSH1 0xA0 SHL SUB AND DUP2 MSTORE PUSH1 0x20 ADD DUP7 PUSH1 0x1 PUSH1 0x1 PUSH1 0xA0 SHL SUB AND DUP2 MSTORE PUSH1 0x20 ADD DUP6 PUSH5 0xFFFFFFFFFF AND DUP2 MSTORE PUSH1 0x20 ADD PUSH1 0x0 PUSH1 0x3 DUP2 GT ISZERO PUSH2 0x4345 JUMPI PUSH2 0x4345 PUSH2 0x50E3 JUMP JUMPDEST DUP2 MSTORE PUSH1 0x20 ADD DUP5 SWAP1 MSTORE SWAP2 POP POP SWAP6 SWAP5 POP POP POP POP POP JUMP JUMPDEST CALLER PUSH1 0x0 SWAP1 DUP2 MSTORE PUSH1 0x3 PUSH1 0x20 MSTORE PUSH1 0x40 SWAP1 KECCAK256 SLOAD PUSH1 0x1 PUSH1 0xA0 SHL SWAP1 DIV PUSH1 0xFF AND PUSH2 0x4421 JUMPI CALLER PUSH1 0x0 DUP2 DUP2 MSTORE PUSH1 0x3 PUSH1 0x20 SWAP1 DUP2 MSTORE PUSH1 0x40 DUP3 KECCAK256 DUP1 SLOAD PUSH1 0x1 PUSH1 0x1 PUSH1 0xA0 SHL SUB NOT SWAP1 DUP2 AND DUP6 OR DUP3 SSTORE PUSH1 0x4 DUP1 SLOAD PUSH1 0x1 DUP2 DUP2 ADD SWAP1 SWAP3 SSTORE PUSH32 0x8A35ACFBC15FF81A39AE7D344FD709F28E8600B4AA8C65C6B64BFE7FE36BD19B ADD DUP1 SLOAD SWAP1 SWAP3 AND SWAP1 SWAP6 OR SWAP1 SSTORE DUP1 SLOAD PUSH1 0x1 PUSH1 0xA0 SHL PUSH1 0xFF PUSH1 0xA0 SHL NOT SWAP1 SWAP2 AND OR DUP2 SSTORE DUP4 ADD DUP1 SLOAD SWAP4 DUP5 ADD DUP2 SSTORE DUP3 MSTORE SWAP1 KECCAK256 PUSH1 0x6 DUP1 DUP4 DIV SWAP1 SWAP2 ADD DUP1 SLOAD SWAP2 SWAP1 SWAP3 MOD PUSH1 0x5 MUL PUSH2 0x100 EXP PUSH5 0xFFFFFFFFFF DUP2 DUP2 MUL NOT SWAP1 SWAP3 AND SWAP4 SWAP1 SWAP2 AND MUL SWAP2 SWAP1 SWAP2 OR SWAP1 SSTORE JUMP JUMPDEST CALLER PUSH1 0x0 SWAP1 DUP2 MSTORE PUSH1 0x3 PUSH1 0x20 SWAP1 DUP2 MSTORE PUSH1 0x40 DUP1 DUP4 KECCAK256 PUSH1 0x1 ADD DUP1 SLOAD DUP3 MLOAD DUP2 DUP6 MUL DUP2 ADD DUP6 ADD SWAP1 SWAP4 MSTORE DUP1 DUP4 MSTORE SWAP2 SWAP3 SWAP1 SWAP2 SWAP1 DUP4 ADD DUP3 DUP3 DUP1 ISZERO PUSH2 0x44A9 JUMPI PUSH1 0x20 MUL DUP3 ADD SWAP2 SWAP1 PUSH1 0x0 MSTORE PUSH1 0x20 PUSH1 0x0 KECCAK256 SWAP1 PUSH1 0x0 SWAP1 JUMPDEST DUP3 DUP3 SWAP1 SLOAD SWAP1 PUSH2 0x100 EXP SWAP1 DIV PUSH5 0xFFFFFFFFFF AND PUSH5 0xFFFFFFFFFF AND DUP2 MSTORE PUSH1 0x20 ADD SWAP1 PUSH1 0x5 ADD SWAP1 PUSH1 0x20 DUP3 PUSH1 0x4 ADD DIV SWAP3 DUP4 ADD SWAP3 PUSH1 0x1 SUB DUP3 MUL SWAP2 POP DUP1 DUP5 GT PUSH2 0x446A JUMPI SWAP1 POP JUMPDEST POP POP POP POP POP SWAP1 POP PUSH2 0x44BA DUP3 DUP3 PUSH2 0x4C73 JUMP JUMPDEST PUSH2 0x3553 JUMPI POP CALLER PUSH1 0x0 SWAP1 DUP2 MSTORE PUSH1 0x3 PUSH1 0x20 SWAP1 DUP2 MSTORE PUSH1 0x40 DUP3 KECCAK256 PUSH1 0x1 SWAP1 DUP2 ADD DUP1 SLOAD SWAP2 DUP3 ADD DUP2 SSTORE DUP4 MSTORE SWAP2 KECCAK256 PUSH1 0x6 DUP1 DUP4 DIV SWAP1 SWAP2 ADD DUP1 SLOAD SWAP2 SWAP1 SWAP3 MOD PUSH1 0x5 MUL PUSH2 0x100 EXP PUSH5 0xFFFFFFFFFF DUP2 DUP2 MUL NOT SWAP1 SWAP3 AND SWAP4 SWAP1 SWAP2 AND MUL SWAP2 SWAP1 SWAP2 OR SWAP1 SSTORE JUMP JUMPDEST PUSH1 0xE SLOAD PUSH1 0xFF AND PUSH2 0xA83 JUMPI PUSH1 0x0 DUP1 PUSH1 0x0 DUP4 MLOAD PUSH1 0x1 PUSH1 0x1 PUSH1 0x40 SHL SUB DUP2 GT ISZERO PUSH2 0x4537 JUMPI PUSH2 0x4537 PUSH2 0x55F2 JUMP JUMPDEST PUSH1 0x40 MLOAD SWAP1 DUP1 DUP3 MSTORE DUP1 PUSH1 0x20 MUL PUSH1 0x20 ADD DUP3 ADD PUSH1 0x40 MSTORE DUP1 ISZERO PUSH2 0x4570 JUMPI DUP2 PUSH1 0x20 ADD JUMPDEST PUSH2 0x455D PUSH2 0x4F00 JUMP JUMPDEST DUP2 MSTORE PUSH1 0x20 ADD SWAP1 PUSH1 0x1 SWAP1 SUB SWAP1 DUP2 PUSH2 0x4555 JUMPI SWAP1 POP JUMPDEST POP SWAP1 POP PUSH1 0x0 JUMPDEST DUP5 MLOAD DUP2 LT ISZERO PUSH2 0x4975 JUMPI PUSH1 0x0 PUSH1 0x1 PUSH1 0x1 PUSH1 0xA0 SHL SUB AND DUP6 DUP3 DUP2 MLOAD DUP2 LT PUSH2 0x459C JUMPI PUSH2 0x459C PUSH2 0x575A JUMP JUMPDEST PUSH1 0x20 MUL PUSH1 0x20 ADD ADD MLOAD PUSH1 0x60 ADD MLOAD PUSH1 0x1 PUSH1 0x1 PUSH1 0xA0 SHL SUB AND EQ ISZERO PUSH2 0x462C JUMPI DUP5 DUP2 DUP2 MLOAD DUP2 LT PUSH2 0x45C9 JUMPI PUSH2 0x45C9 PUSH2 0x575A JUMP JUMPDEST PUSH1 0x20 MUL PUSH1 0x20 ADD ADD MLOAD PUSH1 0xC0 ADD MLOAD DUP5 PUSH2 0x45E0 SWAP2 SWAP1 PUSH2 0x57B8 JUMP JUMPDEST SWAP4 POP DUP5 DUP2 DUP2 MLOAD DUP2 LT PUSH2 0x45F4 JUMPI PUSH2 0x45F4 PUSH2 0x575A JUMP JUMPDEST PUSH1 0x20 MUL PUSH1 0x20 ADD ADD MLOAD DUP3 DUP5 DUP2 MLOAD DUP2 LT PUSH2 0x460E JUMPI PUSH2 0x460E PUSH2 0x575A JUMP JUMPDEST PUSH1 0x20 MUL PUSH1 0x20 ADD ADD DUP2 SWAP1 MSTORE POP DUP3 DUP1 PUSH2 0x4624 SWAP1 PUSH2 0x5786 JUMP JUMPDEST SWAP4 POP POP PUSH2 0x4963 JUMP JUMPDEST DUP5 DUP2 DUP2 MLOAD DUP2 LT PUSH2 0x463E JUMPI PUSH2 0x463E PUSH2 0x575A JUMP JUMPDEST PUSH1 0x20 MUL PUSH1 0x20 ADD ADD MLOAD PUSH1 0xC0 ADD MLOAD DUP6 DUP3 DUP2 MLOAD DUP2 LT PUSH2 0x465C JUMPI PUSH2 0x465C PUSH2 0x575A JUMP JUMPDEST PUSH1 0x20 MUL PUSH1 0x20 ADD ADD MLOAD PUSH1 0x60 ADD MLOAD PUSH1 0x1 PUSH1 0x1 PUSH1 0xA0 SHL SUB AND PUSH4 0xDD62ED3E DUP8 DUP5 DUP2 MLOAD DUP2 LT PUSH2 0x4688 JUMPI PUSH2 0x4688 PUSH2 0x575A JUMP JUMPDEST PUSH1 0x20 SWAP1 DUP2 MUL SWAP2 SWAP1 SWAP2 ADD DUP2 ADD MLOAD ADD MLOAD PUSH1 0x40 MLOAD PUSH1 0x1 PUSH1 0x1 PUSH1 0xE0 SHL SUB NOT PUSH1 0xE0 DUP5 SWAP1 SHL AND DUP2 MSTORE PUSH1 0x1 PUSH1 0x1 PUSH1 0xA0 SHL SUB SWAP1 SWAP2 AND PUSH1 0x4 DUP3 ADD MSTORE ADDRESS PUSH1 0x24 DUP3 ADD MSTORE PUSH1 0x44 ADD PUSH1 0x20 PUSH1 0x40 MLOAD DUP1 DUP4 SUB DUP2 PUSH1 0x0 DUP8 DUP1 EXTCODESIZE ISZERO DUP1 ISZERO PUSH2 0x46DD JUMPI PUSH1 0x0 DUP1 REVERT JUMPDEST POP GAS CALL ISZERO DUP1 ISZERO PUSH2 0x46F1 JUMPI RETURNDATASIZE PUSH1 0x0 DUP1 RETURNDATACOPY RETURNDATASIZE PUSH1 0x0 REVERT JUMPDEST POP POP POP POP PUSH1 0x40 MLOAD RETURNDATASIZE PUSH1 0x1F NOT PUSH1 0x1F DUP3 ADD AND DUP3 ADD DUP1 PUSH1 0x40 MSTORE POP DUP2 ADD SWAP1 PUSH2 0x4715 SWAP2 SWAP1 PUSH2 0x589D JUMP JUMPDEST LT DUP1 PUSH2 0x4803 JUMPI POP DUP5 DUP2 DUP2 MLOAD DUP2 LT PUSH2 0x472E JUMPI PUSH2 0x472E PUSH2 0x575A JUMP JUMPDEST PUSH1 0x20 MUL PUSH1 0x20 ADD ADD MLOAD PUSH1 0xC0 ADD MLOAD DUP6 DUP3 DUP2 MLOAD DUP2 LT PUSH2 0x474C JUMPI PUSH2 0x474C PUSH2 0x575A JUMP JUMPDEST PUSH1 0x20 MUL PUSH1 0x20 ADD ADD MLOAD PUSH1 0x60 ADD MLOAD PUSH1 0x1 PUSH1 0x1 PUSH1 0xA0 SHL SUB AND PUSH4 0x70A08231 DUP8 DUP5 DUP2 MLOAD DUP2 LT PUSH2 0x4778 JUMPI PUSH2 0x4778 PUSH2 0x575A JUMP JUMPDEST PUSH1 0x20 MUL PUSH1 0x20 ADD ADD MLOAD PUSH1 0x20 ADD MLOAD PUSH1 0x40 MLOAD DUP3 PUSH4 0xFFFFFFFF AND PUSH1 0xE0 SHL DUP2 MSTORE PUSH1 0x4 ADD PUSH2 0x47AF SWAP2 SWAP1 PUSH1 0x1 PUSH1 0x1 PUSH1 0xA0 SHL SUB SWAP2 SWAP1 SWAP2 AND DUP2 MSTORE PUSH1 0x20 ADD SWAP1 JUMP JUMPDEST PUSH1 0x20 PUSH1 0x40 MLOAD DUP1 DUP4 SUB DUP2 PUSH1 0x0 DUP8 DUP1 EXTCODESIZE ISZERO DUP1 ISZERO PUSH2 0x47C9 JUMPI PUSH1 0x0 DUP1 REVERT JUMPDEST POP GAS CALL ISZERO DUP1 ISZERO PUSH2 0x47DD JUMPI RETURNDATASIZE PUSH1 0x0 DUP1 RETURNDATACOPY RETURNDATASIZE PUSH1 0x0 REVERT JUMPDEST POP POP POP POP PUSH1 0x40 MLOAD RETURNDATASIZE PUSH1 0x1F NOT PUSH1 0x1F DUP3 ADD AND DUP3 ADD DUP1 PUSH1 0x40 MSTORE POP DUP2 ADD SWAP1 PUSH2 0x4801 SWAP2 SWAP1 PUSH2 0x589D JUMP JUMPDEST LT JUMPDEST ISZERO PUSH2 0x4895 JUMPI PUSH1 0x2 PUSH1 0x5 PUSH1 0x0 DUP8 DUP5 DUP2 MLOAD DUP2 LT PUSH2 0x4820 JUMPI PUSH2 0x4820 PUSH2 0x575A JUMP JUMPDEST PUSH1 0x20 MUL PUSH1 0x20 ADD ADD MLOAD PUSH1 0x80 ADD MLOAD PUSH5 0xFFFFFFFFFF AND PUSH5 0xFFFFFFFFFF AND DUP2 MSTORE PUSH1 0x20 ADD SWAP1 DUP2 MSTORE PUSH1 0x20 ADD PUSH1 0x0 KECCAK256 DUP3 DUP2 SLOAD DUP2 LT PUSH2 0x4859 JUMPI PUSH2 0x4859 PUSH2 0x575A JUMP JUMPDEST SWAP1 PUSH1 0x0 MSTORE PUSH1 0x20 PUSH1 0x0 KECCAK256 SWAP1 PUSH1 0x5 MUL ADD PUSH1 0x3 ADD PUSH1 0x19 PUSH2 0x100 EXP DUP2 SLOAD DUP2 PUSH1 0xFF MUL NOT AND SWAP1 DUP4 PUSH1 0x3 DUP2 GT ISZERO PUSH2 0x488B JUMPI PUSH2 0x488B PUSH2 0x50E3 JUMP JUMPDEST MUL OR SWAP1 SSTORE POP PUSH2 0x4963 JUMP JUMPDEST DUP5 DUP2 DUP2 MLOAD DUP2 LT PUSH2 0x48A7 JUMPI PUSH2 0x48A7 PUSH2 0x575A JUMP JUMPDEST PUSH1 0x20 MUL PUSH1 0x20 ADD ADD MLOAD DUP3 DUP5 DUP2 MLOAD DUP2 LT PUSH2 0x48C1 JUMPI PUSH2 0x48C1 PUSH2 0x575A JUMP JUMPDEST PUSH1 0x20 MUL PUSH1 0x20 ADD ADD DUP2 SWAP1 MSTORE POP DUP3 DUP1 PUSH2 0x48D7 SWAP1 PUSH2 0x5786 JUMP JUMPDEST SWAP4 POP POP PUSH1 0x1 PUSH1 0x5 PUSH1 0x0 DUP8 DUP5 DUP2 MLOAD DUP2 LT PUSH2 0x48F2 JUMPI PUSH2 0x48F2 PUSH2 0x575A JUMP JUMPDEST PUSH1 0x20 MUL PUSH1 0x20 ADD ADD MLOAD PUSH1 0x80 ADD MLOAD PUSH5 0xFFFFFFFFFF AND PUSH5 0xFFFFFFFFFF AND DUP2 MSTORE PUSH1 0x20 ADD SWAP1 DUP2 MSTORE PUSH1 0x20 ADD PUSH1 0x0 KECCAK256 DUP3 DUP2 SLOAD DUP2 LT PUSH2 0x492B JUMPI PUSH2 0x492B PUSH2 0x575A JUMP JUMPDEST SWAP1 PUSH1 0x0 MSTORE PUSH1 0x20 PUSH1 0x0 KECCAK256 SWAP1 PUSH1 0x5 MUL ADD PUSH1 0x3 ADD PUSH1 0x19 PUSH2 0x100 EXP DUP2 SLOAD DUP2 PUSH1 0xFF MUL NOT AND SWAP1 DUP4 PUSH1 0x3 DUP2 GT ISZERO PUSH2 0x495D JUMPI PUSH2 0x495D PUSH2 0x50E3 JUMP JUMPDEST MUL OR SWAP1 SSTORE POP JUMPDEST DUP1 PUSH2 0x496D DUP2 PUSH2 0x5786 JUMP JUMPDEST SWAP2 POP POP PUSH2 0x4576 JUMP JUMPDEST POP DUP3 SELFBALANCE GT PUSH2 0x49AA JUMPI PUSH1 0x40 MLOAD PUSH3 0x461BCD PUSH1 0xE5 SHL DUP2 MSTORE PUSH1 0x20 PUSH1 0x4 DUP3 ADD MSTORE PUSH1 0x2 PUSH1 0x24 DUP3 ADD MSTORE PUSH2 0x3131 PUSH1 0xF0 SHL PUSH1 0x44 DUP3 ADD MSTORE PUSH1 0x64 ADD PUSH2 0x42D JUMP JUMPDEST PUSH1 0x0 JUMPDEST DUP2 MLOAD DUP2 LT ISZERO PUSH2 0x293A JUMPI DUP2 DUP2 DUP2 MLOAD DUP2 LT PUSH2 0x49C8 JUMPI PUSH2 0x49C8 PUSH2 0x575A JUMP JUMPDEST PUSH1 0x20 MUL PUSH1 0x20 ADD ADD MLOAD PUSH1 0xC0 ADD MLOAD PUSH1 0xB PUSH1 0x0 DUP5 DUP5 DUP2 MLOAD DUP2 LT PUSH2 0x49EA JUMPI PUSH2 0x49EA PUSH2 0x575A JUMP JUMPDEST PUSH1 0x20 MUL PUSH1 0x20 ADD ADD MLOAD PUSH1 0x20 ADD MLOAD PUSH1 0x1 PUSH1 0x1 PUSH1 0xA0 SHL SUB AND PUSH1 0x1 PUSH1 0x1 PUSH1 0xA0 SHL SUB AND DUP2 MSTORE PUSH1 0x20 ADD SWAP1 DUP2 MSTORE PUSH1 0x20 ADD PUSH1 0x0 KECCAK256 PUSH1 0x0 DUP5 DUP5 DUP2 MLOAD DUP2 LT PUSH2 0x4A2A JUMPI PUSH2 0x4A2A PUSH2 0x575A JUMP JUMPDEST PUSH1 0x20 MUL PUSH1 0x20 ADD ADD MLOAD PUSH1 0x60 ADD MLOAD PUSH1 0x1 PUSH1 0x1 PUSH1 0xA0 SHL SUB AND PUSH1 0x1 PUSH1 0x1 PUSH1 0xA0 SHL SUB AND DUP2 MSTORE PUSH1 0x20 ADD SWAP1 DUP2 MSTORE PUSH1 0x20 ADD PUSH1 0x0 KECCAK256 PUSH1 0x0 DUP3 DUP3 SLOAD PUSH2 0x4A65 SWAP2 SWAP1 PUSH2 0x57A1 JUMP JUMPDEST SWAP1 SWAP2 SSTORE POP POP DUP2 MLOAD PUSH1 0x0 SWAP1 DUP4 SWAP1 DUP4 SWAP1 DUP2 LT PUSH2 0x4A81 JUMPI PUSH2 0x4A81 PUSH2 0x575A JUMP JUMPDEST PUSH1 0x20 MUL PUSH1 0x20 ADD ADD MLOAD PUSH1 0x60 ADD MLOAD PUSH1 0x1 PUSH1 0x1 PUSH1 0xA0 SHL SUB AND EQ ISZERO PUSH2 0x4B3A JUMPI PUSH1 0x0 DUP3 DUP3 DUP2 MLOAD DUP2 LT PUSH2 0x4AB0 JUMPI PUSH2 0x4AB0 PUSH2 0x575A JUMP JUMPDEST PUSH1 0x20 MUL PUSH1 0x20 ADD ADD MLOAD PUSH1 0x40 ADD MLOAD PUSH1 0x1 PUSH1 0x1 PUSH1 0xA0 SHL SUB AND PUSH2 0x8FC DUP5 DUP5 DUP2 MLOAD DUP2 LT PUSH2 0x4ADA JUMPI PUSH2 0x4ADA PUSH2 0x575A JUMP JUMPDEST PUSH1 0x20 MUL PUSH1 0x20 ADD ADD MLOAD PUSH1 0xC0 ADD MLOAD SWAP1 DUP2 ISZERO MUL SWAP1 PUSH1 0x40 MLOAD PUSH1 0x0 PUSH1 0x40 MLOAD DUP1 DUP4 SUB DUP2 DUP6 DUP9 DUP9 CALL SWAP4 POP POP POP POP SWAP1 POP DUP1 PUSH2 0x4B34 JUMPI PUSH1 0x40 MLOAD PUSH3 0x461BCD PUSH1 0xE5 SHL DUP2 MSTORE PUSH1 0x20 PUSH1 0x4 DUP3 ADD MSTORE PUSH1 0x2 PUSH1 0x24 DUP3 ADD MSTORE PUSH2 0x1899 PUSH1 0xF1 SHL PUSH1 0x44 DUP3 ADD MSTORE PUSH1 0x64 ADD PUSH2 0x42D JUMP JUMPDEST POP PUSH2 0x4C53 JUMP JUMPDEST DUP2 DUP2 DUP2 MLOAD DUP2 LT PUSH2 0x4B4C JUMPI PUSH2 0x4B4C PUSH2 0x575A JUMP JUMPDEST PUSH1 0x20 MUL PUSH1 0x20 ADD ADD MLOAD PUSH1 0x60 ADD MLOAD PUSH1 0x1 PUSH1 0x1 PUSH1 0xA0 SHL SUB AND PUSH4 0x23B872DD DUP4 DUP4 DUP2 MLOAD DUP2 LT PUSH2 0x4B78 JUMPI PUSH2 0x4B78 PUSH2 0x575A JUMP JUMPDEST PUSH1 0x20 MUL PUSH1 0x20 ADD ADD MLOAD PUSH1 0x20 ADD MLOAD DUP5 DUP5 DUP2 MLOAD DUP2 LT PUSH2 0x4B96 JUMPI PUSH2 0x4B96 PUSH2 0x575A JUMP JUMPDEST PUSH1 0x20 MUL PUSH1 0x20 ADD ADD MLOAD PUSH1 0x40 ADD MLOAD DUP6 DUP6 DUP2 MLOAD DUP2 LT PUSH2 0x4BB4 JUMPI PUSH2 0x4BB4 PUSH2 0x575A JUMP JUMPDEST PUSH1 0x20 SWAP1 DUP2 MUL SWAP2 SWAP1 SWAP2 ADD ADD MLOAD PUSH1 0xC0 ADD MLOAD PUSH1 0x40 MLOAD PUSH1 0x1 PUSH1 0x1 PUSH1 0xE0 SHL SUB NOT PUSH1 0xE0 DUP7 SWAP1 SHL AND DUP2 MSTORE PUSH1 0x1 PUSH1 0x1 PUSH1 0xA0 SHL SUB SWAP4 DUP5 AND PUSH1 0x4 DUP3 ADD MSTORE SWAP3 SWAP1 SWAP2 AND PUSH1 0x24 DUP4 ADD MSTORE PUSH1 0x44 DUP3 ADD MSTORE PUSH1 0x64 ADD PUSH1 0x20 PUSH1 0x40 MLOAD DUP1 DUP4 SUB DUP2 PUSH1 0x0 DUP8 DUP1 EXTCODESIZE ISZERO DUP1 ISZERO PUSH2 0x4C12 JUMPI PUSH1 0x0 DUP1 REVERT JUMPDEST POP GAS CALL ISZERO DUP1 ISZERO PUSH2 0x4C26 JUMPI RETURNDATASIZE PUSH1 0x0 DUP1 RETURNDATACOPY RETURNDATASIZE PUSH1 0x0 REVERT JUMPDEST POP POP POP POP PUSH1 0x40 MLOAD RETURNDATASIZE PUSH1 0x1F NOT PUSH1 0x1F DUP3 ADD AND DUP3 ADD DUP1 PUSH1 0x40 MSTORE POP DUP2 ADD SWAP1 PUSH2 0x4C4A SWAP2 SWAP1 PUSH2 0x5A0E JUMP JUMPDEST PUSH2 0x4C53 JUMPI PUSH1 0x0 DUP1 REVERT JUMPDEST DUP1 PUSH2 0x4C5D DUP2 PUSH2 0x5786 JUMP JUMPDEST SWAP2 POP POP PUSH2 0x49AD JUMP JUMPDEST PUSH1 0x0 PUSH2 0x37F9 DUP3 PUSH2 0xE10 PUSH2 0x5A30 JUMP JUMPDEST PUSH1 0x0 DUP1 JUMPDEST DUP3 MLOAD DUP2 LT ISZERO PUSH2 0x4CCB JUMPI DUP4 PUSH5 0xFFFFFFFFFF AND DUP4 DUP3 DUP2 MLOAD DUP2 LT PUSH2 0x4C9A JUMPI PUSH2 0x4C9A PUSH2 0x575A JUMP JUMPDEST PUSH1 0x20 MUL PUSH1 0x20 ADD ADD MLOAD PUSH5 0xFFFFFFFFFF AND EQ ISZERO PUSH2 0x4CB9 JUMPI PUSH1 0x1 SWAP2 POP POP PUSH2 0x37F9 JUMP JUMPDEST DUP1 PUSH2 0x4CC3 DUP2 PUSH2 0x5786 JUMP JUMPDEST SWAP2 POP POP PUSH2 0x4C77 JUMP JUMPDEST POP PUSH1 0x0 SWAP4 SWAP3 POP POP POP JUMP JUMPDEST PUSH1 0x0 DUP1 JUMPDEST DUP3 MLOAD DUP2 LT ISZERO PUSH2 0x4CCB JUMPI DUP4 PUSH1 0x1 PUSH1 0x1 PUSH1 0xA0 SHL SUB AND DUP4 DUP3 DUP2 MLOAD DUP2 LT PUSH2 0x4CFE JUMPI PUSH2 0x4CFE PUSH2 0x575A JUMP JUMPDEST PUSH1 0x20 MUL PUSH1 0x20 ADD ADD MLOAD PUSH1 0x1 PUSH1 0x1 PUSH1 0xA0 SHL SUB AND EQ ISZERO PUSH2 0x4D1F JUMPI PUSH1 0x1 SWAP2 POP POP PUSH2 0x37F9 JUMP JUMPDEST DUP1 PUSH2 0x4D29 DUP2 PUSH2 0x5786 JUMP JUMPDEST SWAP2 POP POP PUSH2 0x4CD9 JUMP JUMPDEST CALLER PUSH1 0x0 SWAP1 DUP2 MSTORE PUSH1 0x3 PUSH1 0x20 MSTORE PUSH1 0x40 SWAP1 KECCAK256 PUSH1 0x1 SWAP1 DUP2 ADD SLOAD EQ ISZERO PUSH2 0x4D6A JUMPI CALLER PUSH1 0x0 SWAP1 DUP2 MSTORE PUSH1 0x3 PUSH1 0x20 MSTORE PUSH1 0x40 DUP2 KECCAK256 PUSH2 0xA83 SWAP2 PUSH1 0x1 SWAP1 SWAP2 ADD SWAP1 PUSH2 0x502E JUMP JUMPDEST CALLER PUSH1 0x0 SWAP1 DUP2 MSTORE PUSH1 0x3 PUSH1 0x20 MSTORE PUSH1 0x40 DUP2 KECCAK256 PUSH1 0x1 ADD SWAP1 DUP1 JUMPDEST DUP3 SLOAD DUP2 LT ISZERO PUSH2 0x4E2B JUMPI DUP4 PUSH5 0xFFFFFFFFFF AND DUP4 DUP3 DUP2 SLOAD DUP2 LT PUSH2 0x4DA2 JUMPI PUSH2 0x4DA2 PUSH2 0x575A JUMP JUMPDEST SWAP1 PUSH1 0x0 MSTORE PUSH1 0x20 PUSH1 0x0 KECCAK256 SWAP1 PUSH1 0x6 SWAP2 DUP3 DUP3 DIV ADD SWAP2 SWAP1 MOD PUSH1 0x5 MUL SWAP1 SLOAD SWAP1 PUSH2 0x100 EXP SWAP1 DIV PUSH5 0xFFFFFFFFFF AND PUSH5 0xFFFFFFFFFF AND EQ ISZERO PUSH2 0x4E19 JUMPI DUP1 SWAP2 POP DUP3 DUP2 DUP2 SLOAD DUP2 LT PUSH2 0x4DEB JUMPI PUSH2 0x4DEB PUSH2 0x575A JUMP JUMPDEST SWAP1 PUSH1 0x0 MSTORE PUSH1 0x20 PUSH1 0x0 KECCAK256 SWAP1 PUSH1 0x6 SWAP2 DUP3 DUP3 DIV ADD SWAP2 SWAP1 MOD PUSH1 0x5 MUL PUSH2 0x100 EXP DUP2 SLOAD SWAP1 PUSH5 0xFFFFFFFFFF MUL NOT AND SWAP1 SSTORE PUSH2 0x4E2B JUMP JUMPDEST DUP1 PUSH2 0x4E23 DUP2 PUSH2 0x5786 JUMP JUMPDEST SWAP2 POP POP PUSH2 0x4D7F JUMP JUMPDEST POP DUP2 SLOAD DUP3 SWAP1 PUSH2 0x4E3C SWAP1 PUSH1 0x1 SWAP1 PUSH2 0x57A1 JUMP JUMPDEST DUP2 SLOAD DUP2 LT PUSH2 0x4E4C JUMPI PUSH2 0x4E4C PUSH2 0x575A JUMP JUMPDEST SWAP1 PUSH1 0x0 MSTORE PUSH1 0x20 PUSH1 0x0 KECCAK256 SWAP1 PUSH1 0x6 SWAP2 DUP3 DUP3 DIV ADD SWAP2 SWAP1 MOD PUSH1 0x5 MUL SWAP1 SLOAD SWAP1 PUSH2 0x100 EXP SWAP1 DIV PUSH5 0xFFFFFFFFFF AND DUP3 DUP3 DUP2 SLOAD DUP2 LT PUSH2 0x4E85 JUMPI PUSH2 0x4E85 PUSH2 0x575A JUMP JUMPDEST SWAP1 PUSH1 0x0 MSTORE PUSH1 0x20 PUSH1 0x0 KECCAK256 SWAP1 PUSH1 0x6 SWAP2 DUP3 DUP3 DIV ADD SWAP2 SWAP1 MOD PUSH1 0x5 MUL PUSH2 0x100 EXP DUP2 SLOAD DUP2 PUSH5 0xFFFFFFFFFF MUL NOT AND SWAP1 DUP4 PUSH5 0xFFFFFFFFFF AND MUL OR SWAP1 SSTORE POP DUP2 DUP1 SLOAD DUP1 PUSH2 0x4ECA JUMPI PUSH2 0x4ECA PUSH2 0x57D0 JUMP JUMPDEST PUSH1 0x1 SWAP1 SUB DUP2 DUP2 SWAP1 PUSH1 0x0 MSTORE PUSH1 0x20 PUSH1 0x0 KECCAK256 SWAP1 PUSH1 0x6 SWAP2 DUP3 DUP3 DIV ADD SWAP2 SWAP1 MOD PUSH1 0x5 MUL PUSH2 0x100 EXP DUP2 SLOAD SWAP1 PUSH5 0xFFFFFFFFFF MUL NOT AND SWAP1 SSTORE SWAP1 SSTORE POP POP POP JUMP JUMPDEST PUSH1 0x40 DUP1 MLOAD PUSH1 0xE0 DUP2 ADD DUP3 MSTORE PUSH1 0x0 DUP1 DUP3 MSTORE PUSH1 0x20 DUP3 ADD DUP2 SWAP1 MSTORE SWAP2 DUP2 ADD DUP3 SWAP1 MSTORE PUSH1 0x60 DUP2 ADD DUP3 SWAP1 MSTORE PUSH1 0x80 DUP2 ADD DUP3 SWAP1 MSTORE SWAP1 PUSH1 0xA0 DUP3 ADD SWAP1 DUP2 MSTORE PUSH1 0x20 ADD PUSH1 0x0 DUP2 MSTORE POP SWAP1 JUMP JUMPDEST DUP3 DUP1 SLOAD PUSH2 0x4F49 SWAP1 PUSH2 0x592D JUMP JUMPDEST SWAP1 PUSH1 0x0 MSTORE PUSH1 0x20 PUSH1 0x0 KECCAK256 SWAP1 PUSH1 0x1F ADD PUSH1 0x20 SWAP1 DIV DUP2 ADD SWAP3 DUP3 PUSH2 0x4F6B JUMPI PUSH1 0x0 DUP6 SSTORE PUSH2 0x4FB1 JUMP JUMPDEST DUP3 PUSH1 0x1F LT PUSH2 0x4F84 JUMPI DUP1 MLOAD PUSH1 0xFF NOT AND DUP4 DUP1 ADD OR DUP6 SSTORE PUSH2 0x4FB1 JUMP JUMPDEST DUP3 DUP1 ADD PUSH1 0x1 ADD DUP6 SSTORE DUP3 ISZERO PUSH2 0x4FB1 JUMPI SWAP2 DUP3 ADD JUMPDEST DUP3 DUP2 GT ISZERO PUSH2 0x4FB1 JUMPI DUP3 MLOAD DUP3 SSTORE SWAP2 PUSH1 0x20 ADD SWAP2 SWAP1 PUSH1 0x1 ADD SWAP1 PUSH2 0x4F96 JUMP JUMPDEST POP PUSH2 0x4FBD SWAP3 SWAP2 POP PUSH2 0x504F JUMP JUMPDEST POP SWAP1 JUMP JUMPDEST PUSH1 0x40 DUP1 MLOAD PUSH2 0x120 DUP2 ADD DUP3 MSTORE PUSH1 0x0 DUP1 DUP3 MSTORE PUSH1 0x20 DUP3 ADD DUP2 SWAP1 MSTORE SWAP2 DUP2 ADD DUP3 SWAP1 MSTORE PUSH1 0x60 DUP2 ADD DUP3 SWAP1 MSTORE PUSH1 0x80 DUP2 ADD DUP3 SWAP1 MSTORE PUSH1 0xA0 DUP2 ADD DUP3 SWAP1 MSTORE SWAP1 PUSH1 0xC0 DUP3 ADD SWAP1 DUP2 MSTORE PUSH1 0x0 PUSH1 0x20 DUP3 ADD MSTORE PUSH1 0x60 PUSH1 0x40 SWAP1 SWAP2 ADD MSTORE SWAP1 JUMP JUMPDEST POP DUP1 SLOAD PUSH1 0x0 DUP3 SSTORE PUSH1 0x5 MUL SWAP1 PUSH1 0x0 MSTORE PUSH1 0x20 PUSH1 0x0 KECCAK256 SWAP1 DUP2 ADD SWAP1 PUSH2 0xA83 SWAP2 SWAP1 PUSH2 0x5064 JUMP JUMPDEST POP DUP1 SLOAD PUSH1 0x0 DUP3 SSTORE PUSH1 0x5 ADD PUSH1 0x6 SWAP1 DIV SWAP1 PUSH1 0x0 MSTORE PUSH1 0x20 PUSH1 0x0 KECCAK256 SWAP1 DUP2 ADD SWAP1 PUSH2 0xA83 SWAP2 SWAP1 JUMPDEST JUMPDEST DUP1 DUP3 GT ISZERO PUSH2 0x4FBD JUMPI PUSH1 0x0 DUP2 SSTORE PUSH1 0x1 ADD PUSH2 0x5050 JUMP JUMPDEST JUMPDEST DUP1 DUP3 GT ISZERO PUSH2 0x4FBD JUMPI PUSH1 0x0 DUP1 DUP3 SSTORE PUSH1 0x1 DUP3 ADD DUP1 SLOAD PUSH1 0x1 PUSH1 0x1 PUSH1 0xA0 SHL SUB NOT SWAP1 DUP2 AND SWAP1 SWAP2 SSTORE PUSH1 0x2 DUP4 ADD DUP1 SLOAD SWAP1 SWAP2 AND SWAP1 SSTORE PUSH1 0x3 DUP3 ADD DUP1 SLOAD PUSH1 0x1 PUSH1 0x1 PUSH1 0xD0 SHL SUB NOT AND SWAP1 SSTORE PUSH1 0x4 DUP3 ADD SSTORE PUSH1 0x5 ADD PUSH2 0x5065 JUMP JUMPDEST PUSH1 0x1 PUSH1 0x1 PUSH1 0xA0 SHL SUB DUP2 AND DUP2 EQ PUSH2 0xA83 JUMPI PUSH1 0x0 DUP1 REVERT JUMPDEST PUSH1 0x0 PUSH1 0x20 DUP3 DUP5 SUB SLT ISZERO PUSH2 0x50D8 JUMPI PUSH1 0x0 DUP1 REVERT JUMPDEST DUP2 CALLDATALOAD PUSH2 0x3BF4 DUP2 PUSH2 0x50B1 JUMP JUMPDEST PUSH4 0x4E487B71 PUSH1 0xE0 SHL PUSH1 0x0 MSTORE PUSH1 0x21 PUSH1 0x4 MSTORE PUSH1 0x24 PUSH1 0x0 REVERT JUMPDEST PUSH1 0x20 DUP1 DUP3 MSTORE DUP3 MLOAD DUP3 DUP3 ADD DUP2 SWAP1 MSTORE PUSH1 0x0 SWAP2 SWAP1 PUSH1 0x40 SWAP1 DUP2 DUP6 ADD SWAP1 DUP7 DUP5 ADD DUP6 JUMPDEST DUP3 DUP2 LT ISZERO PUSH2 0x5195 JUMPI DUP2 MLOAD DUP1 MLOAD DUP6 MSTORE DUP7 DUP2 ADD MLOAD PUSH1 0x1 PUSH1 0x1 PUSH1 0xA0 SHL SUB SWAP1 DUP2 AND DUP9 DUP8 ADD MSTORE DUP7 DUP3 ADD MLOAD DUP2 AND DUP8 DUP8 ADD MSTORE PUSH1 0x60 DUP1 DUP4 ADD MLOAD SWAP1 SWAP2 AND SWAP1 DUP7 ADD MSTORE PUSH1 0x80 DUP1 DUP3 ADD MLOAD PUSH5 0xFFFFFFFFFF AND SWAP1 DUP7 ADD MSTORE PUSH1 0xA0 DUP1 DUP3 ADD MLOAD PUSH1 0x4 DUP2 LT PUSH2 0x5175 JUMPI PUSH2 0x5175 PUSH2 0x50E3 JUMP JUMPDEST SWAP1 DUP7 ADD MSTORE PUSH1 0xC0 SWAP1 DUP2 ADD MLOAD SWAP1 DUP6 ADD MSTORE PUSH1 0xE0 SWAP1 SWAP4 ADD SWAP3 SWAP1 DUP6 ADD SWAP1 PUSH1 0x1 ADD PUSH2 0x5116 JUMP JUMPDEST POP SWAP2 SWAP8 SWAP7 POP POP POP POP POP POP POP JUMP JUMPDEST DUP1 CALLDATALOAD PUSH5 0xFFFFFFFFFF DUP2 AND DUP2 EQ PUSH2 0x2EB2 JUMPI PUSH1 0x0 DUP1 REVERT JUMPDEST PUSH1 0x0 DUP1 PUSH1 0x0 PUSH1 0x60 DUP5 DUP7 SUB SLT ISZERO PUSH2 0x51CC JUMPI PUSH1 0x0 DUP1 REVERT JUMPDEST DUP4 CALLDATALOAD SWAP3 POP PUSH2 0x51DC PUSH1 0x20 DUP6 ADD PUSH2 0x51A2 JUMP JUMPDEST SWAP2 POP PUSH1 0x40 DUP5 ADD CALLDATALOAD PUSH2 0x51EC DUP2 PUSH2 0x50B1 JUMP JUMPDEST DUP1 SWAP2 POP POP SWAP3 POP SWAP3 POP SWAP3 JUMP JUMPDEST PUSH1 0x0 PUSH1 0x20 DUP3 DUP5 SUB SLT ISZERO PUSH2 0x5209 JUMPI PUSH1 0x0 DUP1 REVERT JUMPDEST DUP2 CALLDATALOAD PUSH1 0x1 PUSH1 0x1 PUSH1 0x40 SHL SUB DUP2 GT ISZERO PUSH2 0x521F JUMPI PUSH1 0x0 DUP1 REVERT JUMPDEST DUP3 ADD PUSH2 0x120 DUP2 DUP6 SUB SLT ISZERO PUSH2 0x3BF4 JUMPI PUSH1 0x0 DUP1 REVERT JUMPDEST DUP1 CALLDATALOAD PUSH1 0x2 DUP2 LT PUSH2 0x2EB2 JUMPI PUSH1 0x0 DUP1 REVERT JUMPDEST PUSH2 0xFFFF DUP2 AND DUP2 EQ PUSH2 0xA83 JUMPI PUSH1 0x0 DUP1 REVERT JUMPDEST PUSH1 0x0 DUP1 PUSH1 0x0 DUP1 PUSH1 0x0 DUP1 PUSH1 0xA0 DUP8 DUP10 SUB SLT ISZERO PUSH2 0x526A JUMPI PUSH1 0x0 DUP1 REVERT JUMPDEST DUP7 CALLDATALOAD SWAP6 POP PUSH1 0x20 DUP8 ADD CALLDATALOAD PUSH2 0x527C DUP2 PUSH2 0x50B1 JUMP JUMPDEST SWAP5 POP PUSH1 0x40 DUP8 ADD CALLDATALOAD PUSH1 0x1 PUSH1 0x1 PUSH1 0x40 SHL SUB DUP1 DUP3 GT ISZERO PUSH2 0x5298 JUMPI PUSH1 0x0 DUP1 REVERT JUMPDEST DUP2 DUP10 ADD SWAP2 POP DUP10 PUSH1 0x1F DUP4 ADD SLT PUSH2 0x52AC JUMPI PUSH1 0x0 DUP1 REVERT JUMPDEST DUP2 CALLDATALOAD DUP2 DUP2 GT ISZERO PUSH2 0x52BB JUMPI PUSH1 0x0 DUP1 REVERT JUMPDEST DUP11 PUSH1 0x20 DUP3 DUP6 ADD ADD GT ISZERO PUSH2 0x52CD JUMPI PUSH1 0x0 DUP1 REVERT JUMPDEST PUSH1 0x20 DUP4 ADD SWAP7 POP DUP1 SWAP6 POP POP POP POP PUSH2 0x52E5 PUSH1 0x60 DUP9 ADD PUSH2 0x5232 JUMP JUMPDEST SWAP2 POP PUSH1 0x80 DUP8 ADD CALLDATALOAD PUSH2 0x52F5 DUP2 PUSH2 0x5241 JUMP JUMPDEST DUP1 SWAP2 POP POP SWAP3 SWAP6 POP SWAP3 SWAP6 POP SWAP3 SWAP6 JUMP JUMPDEST PUSH1 0x0 PUSH1 0x20 DUP3 DUP5 SUB SLT ISZERO PUSH2 0x5315 JUMPI PUSH1 0x0 DUP1 REVERT JUMPDEST POP CALLDATALOAD SWAP2 SWAP1 POP JUMP JUMPDEST PUSH1 0x2 DUP2 LT PUSH2 0x532C JUMPI PUSH2 0x532C PUSH2 0x50E3 JUMP JUMPDEST SWAP1 MSTORE JUMP JUMPDEST PUSH1 0x0 JUMPDEST DUP4 DUP2 LT ISZERO PUSH2 0x534B JUMPI DUP2 DUP2 ADD MLOAD DUP4 DUP3 ADD MSTORE PUSH1 0x20 ADD PUSH2 0x5333 JUMP JUMPDEST DUP4 DUP2 GT ISZERO PUSH2 0x139D JUMPI POP POP PUSH1 0x0 SWAP2 ADD MSTORE JUMP JUMPDEST PUSH1 0x0 DUP2 MLOAD DUP1 DUP5 MSTORE PUSH2 0x5374 DUP2 PUSH1 0x20 DUP7 ADD PUSH1 0x20 DUP7 ADD PUSH2 0x5330 JUMP JUMPDEST PUSH1 0x1F ADD PUSH1 0x1F NOT AND SWAP3 SWAP1 SWAP3 ADD PUSH1 0x20 ADD SWAP3 SWAP2 POP POP JUMP JUMPDEST PUSH1 0x0 PUSH1 0x20 DUP1 DUP4 ADD DUP2 DUP5 MSTORE DUP1 DUP6 MLOAD DUP1 DUP4 MSTORE PUSH1 0x40 SWAP3 POP DUP3 DUP7 ADD SWAP2 POP DUP3 DUP2 PUSH1 0x5 SHL DUP8 ADD ADD DUP5 DUP9 ADD PUSH1 0x0 JUMPDEST DUP4 DUP2 LT ISZERO PUSH2 0x545A JUMPI PUSH1 0x3F NOT DUP10 DUP5 SUB ADD DUP6 MSTORE DUP2 MLOAD DUP1 MLOAD DUP5 MSTORE DUP8 DUP2 ADD MLOAD DUP9 DUP6 ADD MSTORE DUP7 DUP2 ADD MLOAD PUSH1 0x1 PUSH1 0x1 PUSH1 0xA0 SHL SUB SWAP1 DUP2 AND DUP9 DUP7 ADD MSTORE PUSH1 0x60 DUP1 DUP4 ADD MLOAD ISZERO ISZERO SWAP1 DUP7 ADD MSTORE PUSH1 0x80 DUP1 DUP4 ADD MLOAD ISZERO ISZERO SWAP1 DUP7 ADD MSTORE PUSH1 0xA0 DUP1 DUP4 ADD MLOAD SWAP1 SWAP2 AND SWAP1 DUP6 ADD MSTORE PUSH1 0xC0 DUP1 DUP3 ADD MLOAD PUSH2 0x120 SWAP2 SWAP1 PUSH2 0x541D DUP3 DUP9 ADD DUP3 PUSH2 0x531C JUMP JUMPDEST POP POP PUSH1 0xE0 DUP3 DUP2 ADD MLOAD PUSH2 0xFFFF AND SWAP1 DUP7 ADD MSTORE PUSH2 0x100 SWAP2 DUP3 ADD MLOAD SWAP2 DUP6 ADD DUP2 SWAP1 MSTORE PUSH2 0x5446 DUP2 DUP7 ADD DUP4 PUSH2 0x535C JUMP JUMPDEST SWAP7 DUP10 ADD SWAP7 SWAP5 POP POP POP SWAP1 DUP7 ADD SWAP1 PUSH1 0x1 ADD PUSH2 0x53AF JUMP JUMPDEST POP SWAP1 SWAP9 SWAP8 POP POP POP POP POP POP POP POP JUMP JUMPDEST PUSH1 0x0 DUP1 PUSH1 0x0 DUP1 PUSH1 0x80 DUP6 DUP8 SUB SLT ISZERO PUSH2 0x547E JUMPI PUSH1 0x0 DUP1 REVERT JUMPDEST DUP5 CALLDATALOAD PUSH2 0x5489 DUP2 PUSH2 0x50B1 JUMP JUMPDEST SWAP4 POP PUSH2 0x5497 PUSH1 0x20 DUP7 ADD PUSH2 0x51A2 JUMP JUMPDEST SWAP3 POP PUSH1 0x40 DUP6 ADD CALLDATALOAD SWAP2 POP PUSH1 0x60 DUP6 ADD CALLDATALOAD PUSH2 0x54AE DUP2 PUSH2 0x50B1 JUMP JUMPDEST SWAP4 SWAP7 SWAP3 SWAP6 POP SWAP1 SWAP4 POP POP JUMP JUMPDEST PUSH1 0x0 DUP2 MLOAD DUP1 DUP5 MSTORE PUSH1 0x20 DUP1 DUP6 ADD SWAP5 POP DUP1 DUP5 ADD PUSH1 0x0 JUMPDEST DUP4 DUP2 LT ISZERO PUSH2 0x550F JUMPI DUP2 MLOAD DUP1 MLOAD DUP9 MSTORE DUP4 DUP2 ADD MLOAD PUSH2 0xFFFF AND DUP5 DUP10 ADD MSTORE PUSH1 0x40 SWAP1 DUP2 ADD MLOAD SWAP1 PUSH2 0x54FA DUP2 DUP11 ADD DUP4 PUSH2 0x531C JUMP JUMPDEST POP POP PUSH1 0x60 SWAP7 SWAP1 SWAP7 ADD SWAP6 SWAP1 DUP3 ADD SWAP1 PUSH1 0x1 ADD PUSH2 0x54CD JUMP JUMPDEST POP SWAP5 SWAP6 SWAP5 POP POP POP POP POP JUMP JUMPDEST PUSH1 0x0 PUSH1 0x20 DUP1 DUP4 ADD DUP2 DUP5 MSTORE DUP1 DUP6 MLOAD DUP1 DUP4 MSTORE PUSH1 0x40 SWAP3 POP DUP3 DUP7 ADD SWAP2 POP DUP3 DUP2 PUSH1 0x5 SHL DUP8 ADD ADD DUP5 DUP9 ADD PUSH1 0x0 DUP1 JUMPDEST DUP5 DUP2 LT ISZERO PUSH2 0x55E3 JUMPI DUP10 DUP5 SUB PUSH1 0x3F NOT ADD DUP7 MSTORE DUP3 MLOAD DUP1 MLOAD PUSH1 0x1 PUSH1 0x1 PUSH1 0xA0 SHL SUB AND DUP6 MSTORE DUP9 DUP2 ADD MLOAD ISZERO ISZERO DUP10 DUP7 ADD MSTORE DUP8 DUP2 ADD MLOAD PUSH1 0x80 DUP10 DUP8 ADD DUP2 SWAP1 MSTORE DUP2 MLOAD SWAP1 DUP8 ADD DUP2 SWAP1 MSTORE PUSH1 0xA0 DUP8 ADD SWAP2 DUP12 ADD SWAP1 DUP6 SWAP1 JUMPDEST DUP1 DUP3 LT ISZERO PUSH2 0x55B2 JUMPI DUP3 MLOAD PUSH5 0xFFFFFFFFFF AND DUP5 MSTORE SWAP3 DUP13 ADD SWAP3 SWAP2 DUP13 ADD SWAP2 PUSH1 0x1 SWAP2 SWAP1 SWAP2 ADD SWAP1 PUSH2 0x558B JUMP JUMPDEST POP POP POP PUSH1 0x60 DUP1 DUP4 ADD MLOAD SWAP3 POP DUP7 DUP3 SUB DUP2 DUP9 ADD MSTORE POP PUSH2 0x55CF DUP2 DUP4 PUSH2 0x54B9 JUMP JUMPDEST SWAP8 DUP11 ADD SWAP8 SWAP6 POP POP POP SWAP2 DUP8 ADD SWAP2 PUSH1 0x1 ADD PUSH2 0x5542 JUMP JUMPDEST POP SWAP2 SWAP10 SWAP9 POP POP POP POP POP POP POP POP POP JUMP JUMPDEST PUSH4 0x4E487B71 PUSH1 0xE0 SHL PUSH1 0x0 MSTORE PUSH1 0x41 PUSH1 0x4 MSTORE PUSH1 0x24 PUSH1 0x0 REVERT JUMPDEST PUSH1 0x40 MLOAD PUSH1 0x80 DUP2 ADD PUSH1 0x1 PUSH1 0x1 PUSH1 0x40 SHL SUB DUP2 GT DUP3 DUP3 LT OR ISZERO PUSH2 0x562A JUMPI PUSH2 0x562A PUSH2 0x55F2 JUMP JUMPDEST PUSH1 0x40 MSTORE SWAP1 JUMP JUMPDEST PUSH1 0x40 MLOAD PUSH1 0x1F DUP3 ADD PUSH1 0x1F NOT AND DUP2 ADD PUSH1 0x1 PUSH1 0x1 PUSH1 0x40 SHL SUB DUP2 GT DUP3 DUP3 LT OR ISZERO PUSH2 0x5658 JUMPI PUSH2 0x5658 PUSH2 0x55F2 JUMP JUMPDEST PUSH1 0x40 MSTORE SWAP2 SWAP1 POP JUMP JUMPDEST PUSH1 0x0 PUSH1 0x20 DUP1 DUP4 DUP6 SUB SLT ISZERO PUSH2 0x5673 JUMPI PUSH1 0x0 DUP1 REVERT JUMPDEST DUP3 CALLDATALOAD PUSH1 0x1 PUSH1 0x1 PUSH1 0x40 SHL SUB DUP1 DUP3 GT ISZERO PUSH2 0x568A JUMPI PUSH1 0x0 DUP1 REVERT JUMPDEST DUP2 DUP6 ADD SWAP2 POP DUP6 PUSH1 0x1F DUP4 ADD SLT PUSH2 0x569E JUMPI PUSH1 0x0 DUP1 REVERT JUMPDEST DUP2 CALLDATALOAD DUP2 DUP2 GT ISZERO PUSH2 0x56B0 JUMPI PUSH2 0x56B0 PUSH2 0x55F2 JUMP JUMPDEST PUSH2 0x56BE DUP5 DUP3 PUSH1 0x5 SHL ADD PUSH2 0x5630 JUMP JUMPDEST DUP2 DUP2 MSTORE DUP5 DUP2 ADD SWAP3 POP PUSH1 0x7 SWAP2 SWAP1 SWAP2 SHL DUP4 ADD DUP5 ADD SWAP1 DUP8 DUP3 GT ISZERO PUSH2 0x56DE JUMPI PUSH1 0x0 DUP1 REVERT JUMPDEST SWAP3 DUP5 ADD SWAP3 JUMPDEST DUP2 DUP5 LT ISZERO PUSH2 0x574F JUMPI PUSH1 0x80 DUP5 DUP10 SUB SLT ISZERO PUSH2 0x56FC JUMPI PUSH1 0x0 DUP1 DUP2 REVERT JUMPDEST PUSH2 0x5704 PUSH2 0x5608 JUMP JUMPDEST DUP5 CALLDATALOAD PUSH2 0x570F DUP2 PUSH2 0x50B1 JUMP JUMPDEST DUP2 MSTORE PUSH2 0x571C DUP6 DUP8 ADD PUSH2 0x51A2 JUMP JUMPDEST DUP2 DUP8 ADD MSTORE PUSH1 0x40 DUP6 DUP2 ADD CALLDATALOAD SWAP1 DUP3 ADD MSTORE PUSH1 0x60 DUP1 DUP7 ADD CALLDATALOAD PUSH2 0x5739 DUP2 PUSH2 0x50B1 JUMP JUMPDEST SWAP1 DUP3 ADD MSTORE DUP4 MSTORE PUSH1 0x80 SWAP4 SWAP1 SWAP4 ADD SWAP3 SWAP2 DUP5 ADD SWAP2 PUSH2 0x56E3 JUMP JUMPDEST SWAP8 SWAP7 POP POP POP POP POP POP POP JUMP JUMPDEST PUSH4 0x4E487B71 PUSH1 0xE0 SHL PUSH1 0x0 MSTORE PUSH1 0x32 PUSH1 0x4 MSTORE PUSH1 0x24 PUSH1 0x0 REVERT JUMPDEST PUSH4 0x4E487B71 PUSH1 0xE0 SHL PUSH1 0x0 MSTORE PUSH1 0x11 PUSH1 0x4 MSTORE PUSH1 0x24 PUSH1 0x0 REVERT JUMPDEST PUSH1 0x0 PUSH1 0x0 NOT DUP3 EQ ISZERO PUSH2 0x579A JUMPI PUSH2 0x579A PUSH2 0x5770 JUMP JUMPDEST POP PUSH1 0x1 ADD SWAP1 JUMP JUMPDEST PUSH1 0x0 DUP3 DUP3 LT ISZERO PUSH2 0x57B3 JUMPI PUSH2 0x57B3 PUSH2 0x5770 JUMP JUMPDEST POP SUB SWAP1 JUMP JUMPDEST PUSH1 0x0 DUP3 NOT DUP3 GT ISZERO PUSH2 0x57CB JUMPI PUSH2 0x57CB PUSH2 0x5770 JUMP JUMPDEST POP ADD SWAP1 JUMP JUMPDEST PUSH4 0x4E487B71 PUSH1 0xE0 SHL PUSH1 0x0 MSTORE PUSH1 0x31 PUSH1 0x4 MSTORE PUSH1 0x24 PUSH1 0x0 REVERT JUMPDEST PUSH1 0x20 DUP1 DUP3 MSTORE PUSH1 0x1 SWAP1 DUP3 ADD MSTORE PUSH1 0x35 PUSH1 0xF8 SHL PUSH1 0x40 DUP3 ADD MSTORE PUSH1 0x60 ADD SWAP1 JUMP JUMPDEST PUSH1 0x0 PUSH1 0x20 DUP3 DUP5 SUB SLT ISZERO PUSH2 0x5813 JUMPI PUSH1 0x0 DUP1 REVERT JUMPDEST DUP2 CALLDATALOAD PUSH2 0x3BF4 DUP2 PUSH2 0x5241 JUMP JUMPDEST PUSH1 0x0 PUSH1 0x20 DUP3 DUP5 SUB SLT ISZERO PUSH2 0x5830 JUMPI PUSH1 0x0 DUP1 REVERT JUMPDEST PUSH2 0x3BF4 DUP3 PUSH2 0x5232 JUMP JUMPDEST PUSH1 0x20 DUP1 DUP3 MSTORE PUSH1 0x1 SWAP1 DUP3 ADD MSTORE PUSH1 0x39 PUSH1 0xF8 SHL PUSH1 0x40 DUP3 ADD MSTORE PUSH1 0x60 ADD SWAP1 JUMP JUMPDEST PUSH1 0x0 DUP2 PUSH1 0x0 NOT DIV DUP4 GT DUP3 ISZERO ISZERO AND ISZERO PUSH2 0x586E JUMPI PUSH2 0x586E PUSH2 0x5770 JUMP JUMPDEST POP MUL SWAP1 JUMP JUMPDEST PUSH4 0x4E487B71 PUSH1 0xE0 SHL PUSH1 0x0 MSTORE PUSH1 0x12 PUSH1 0x4 MSTORE PUSH1 0x24 PUSH1 0x0 REVERT JUMPDEST PUSH1 0x0 DUP3 PUSH2 0x5898 JUMPI PUSH2 0x5898 PUSH2 0x5873 JUMP JUMPDEST POP DIV SWAP1 JUMP JUMPDEST PUSH1 0x0 PUSH1 0x20 DUP3 DUP5 SUB SLT ISZERO PUSH2 0x58AF JUMPI PUSH1 0x0 DUP1 REVERT JUMPDEST POP MLOAD SWAP2 SWAP1 POP JUMP JUMPDEST PUSH1 0x0 PUSH5 0xFFFFFFFFFF DUP1 DUP4 AND DUP2 DUP2 EQ ISZERO PUSH2 0x58D1 JUMPI PUSH2 0x58D1 PUSH2 0x5770 JUMP JUMPDEST PUSH1 0x1 ADD SWAP4 SWAP3 POP POP POP JUMP JUMPDEST PUSH1 0x0 PUSH2 0xFFFF DUP1 DUP4 AND DUP2 DUP2 EQ ISZERO PUSH2 0x58D1 JUMPI PUSH2 0x58D1 PUSH2 0x5770 JUMP JUMPDEST PUSH1 0x0 DUP1 PUSH1 0x40 DUP4 DUP6 SUB SLT ISZERO PUSH2 0x5906 JUMPI PUSH1 0x0 DUP1 REVERT JUMPDEST DUP3 MLOAD PUSH2 0x5911 DUP2 PUSH2 0x5241 JUMP JUMPDEST PUSH1 0x20 DUP5 ADD MLOAD SWAP1 SWAP3 POP PUSH2 0x5922 DUP2 PUSH2 0x5241 JUMP JUMPDEST DUP1 SWAP2 POP POP SWAP3 POP SWAP3 SWAP1 POP JUMP JUMPDEST PUSH1 0x1 DUP2 DUP2 SHR SWAP1 DUP3 AND DUP1 PUSH2 0x5941 JUMPI PUSH1 0x7F DUP3 AND SWAP2 POP JUMPDEST PUSH1 0x20 DUP3 LT DUP2 EQ ISZERO PUSH2 0x5962 JUMPI PUSH4 0x4E487B71 PUSH1 0xE0 SHL PUSH1 0x0 MSTORE PUSH1 0x22 PUSH1 0x4 MSTORE PUSH1 0x24 PUSH1 0x0 REVERT JUMPDEST POP SWAP2 SWAP1 POP JUMP JUMPDEST PUSH1 0x0 PUSH5 0xFFFFFFFFFF DUP1 DUP5 AND DUP1 PUSH2 0x5980 JUMPI PUSH2 0x5980 PUSH2 0x5873 JUMP JUMPDEST SWAP3 AND SWAP2 SWAP1 SWAP2 DIV SWAP3 SWAP2 POP POP JUMP JUMPDEST PUSH1 0x0 PUSH12 0xFFFFFFFFFFFFFFFFFFFFFFFF NOT DUP1 DUP9 PUSH1 0x60 SHL AND DUP4 MSTORE DUP1 DUP8 PUSH1 0x60 SHL AND PUSH1 0x14 DUP5 ADD MSTORE POP PUSH2 0xFFFF PUSH1 0xF0 SHL DUP6 PUSH1 0xF0 SHL AND PUSH1 0x28 DUP4 ADD MSTORE DUP4 MLOAD PUSH2 0x59D3 DUP2 PUSH1 0x2A DUP6 ADD PUSH1 0x20 DUP9 ADD PUSH2 0x5330 JUMP JUMPDEST PUSH1 0x2A SWAP3 ADD SWAP2 DUP3 ADD SWAP3 SWAP1 SWAP3 MSTORE PUSH1 0x4A ADD SWAP6 SWAP5 POP POP POP POP POP JUMP JUMPDEST PUSH1 0x0 PUSH5 0xFFFFFFFFFF DUP1 DUP5 AND DUP1 PUSH2 0x5A02 JUMPI PUSH2 0x5A02 PUSH2 0x5873 JUMP JUMPDEST SWAP3 AND SWAP2 SWAP1 SWAP2 MOD SWAP3 SWAP2 POP POP JUMP JUMPDEST PUSH1 0x0 PUSH1 0x20 DUP3 DUP5 SUB SLT ISZERO PUSH2 0x5A20 JUMPI PUSH1 0x0 DUP1 REVERT JUMPDEST DUP2 MLOAD DUP1 ISZERO ISZERO DUP2 EQ PUSH2 0x3BF4 JUMPI PUSH1 0x0 DUP1 REVERT JUMPDEST PUSH1 0x0 PUSH5 0xFFFFFFFFFF DUP1 DUP4 AND DUP2 DUP6 AND DUP2 DUP4 DIV DUP2 GT DUP3 ISZERO ISZERO AND ISZERO PUSH2 0x5A54 JUMPI PUSH2 0x5A54 PUSH2 0x5770 JUMP JUMPDEST MUL SWAP5 SWAP4 POP POP POP POP JUMP INVALID LOG2 PUSH5 0x6970667358 0x22 SLT KECCAK256 0xB0 0x2C JUMPDEST DUP8 PUSH9 0x592E3DDE54AD423F18 0xCC PUSH25 0x9A29F1365B01696A80E683B176553CA464736F6C6343000809 STOP CALLER "},"methodIdentifiers":{"addBatchTransactions((address,uint40,uint256,address)[])":"d10fa144","addERC20Contract(address)":"ab7e0909","addTransaction(address,uint40,uint256,address)":"80423444","allAccounts()":"cf783d8a","allTransactions()":"1ccb3371","cancelSubscription((bytes32,uint256,address,bool,bool,address,uint8,uint16,string))":"de005f7c","cancelTransaction(bytes32,uint40,address)":"2a2b3690","changeAdmin(address)":"8f283970","changeFee(uint256)":"6a1db1bf","changeFixedFee(uint256)":"8e83ac4a","chargeSubs()":"dc700089","checkTime()":"e0c6190d","createSubscription(uint256,address,string,uint8,uint16)":"3084f79e","getAccountSubscriptions()":"7ce1ef39","getAccountTransactions()":"c682cce4","getFee()":"ced72f87","getTotalClaims(address)":"13b51234","getTransactionsByAccount(address)":"dc9961eb","removeERC20Contract(address)":"053149fa","sendTime()":"aa58a5b0","subscribe((bytes32,uint256,address,bool,bool,address,uint8,uint16,string))":"2c04c453","toggleContractActive()":"1385d24c","unsubscribe(bytes32)":"f8c60146"}}}}}