{"contracts/Clocktower.sol":{"Clocktower":{"abi":[{"inputs":[],"stateMutability":"payable","type":"constructor"},{"anonymous":false,"inputs":[{"indexed":false,"internalType":"string","name":"output4","type":"string"}],"name":"AccountCreated","type":"event"},{"anonymous":false,"inputs":[{"indexed":false,"internalType":"string","name":"output2","type":"string"}],"name":"CheckStatus","type":"event"},{"anonymous":false,"inputs":[{"indexed":false,"internalType":"address","name":"user","type":"address"},{"indexed":false,"internalType":"uint256","name":"amount","type":"uint256"}],"name":"ReceiveETH","type":"event"},{"anonymous":false,"inputs":[{"indexed":false,"internalType":"string","name":"output","type":"string"}],"name":"Status","type":"event"},{"anonymous":false,"inputs":[{"indexed":false,"internalType":"address","name":"sender","type":"address"},{"indexed":false,"internalType":"address","name":"receiver","type":"address"},{"indexed":false,"internalType":"uint40","name":"timeTrigger","type":"uint40"},{"indexed":false,"internalType":"uint256","name":"payload","type":"uint256"}],"name":"TransactionAdd","type":"event"},{"anonymous":false,"inputs":[{"indexed":false,"internalType":"bool","name":"sent","type":"bool"}],"name":"TransactionSent","type":"event"},{"anonymous":false,"inputs":[{"indexed":false,"internalType":"string","name":"output3","type":"string"}],"name":"UnknownFunction","type":"event"},{"stateMutability":"payable","type":"fallback"},{"inputs":[{"components":[{"internalType":"address payable","name":"receiver","type":"address"},{"internalType":"uint40","name":"unixTime","type":"uint40"},{"internalType":"uint256","name":"payload","type":"uint256"},{"internalType":"address","name":"token","type":"address"}],"internalType":"struct Clocktower.Batch[]","name":"batch","type":"tuple[]"}],"name":"addBatchTransactions","outputs":[],"stateMutability":"payable","type":"function"},{"inputs":[{"internalType":"address","name":"erc20Contract","type":"address"}],"name":"addERC20Contract","outputs":[],"stateMutability":"nonpayable","type":"function"},{"inputs":[{"internalType":"address payable","name":"receiver","type":"address"},{"internalType":"uint40","name":"unixTime","type":"uint40"},{"internalType":"uint256","name":"payload","type":"uint256"},{"internalType":"address","name":"token","type":"address"}],"name":"addTransaction","outputs":[],"stateMutability":"payable","type":"function"},{"inputs":[],"name":"allAccounts","outputs":[{"components":[{"internalType":"address","name":"accountAddress","type":"address"},{"internalType":"bool","name":"exists","type":"bool"},{"internalType":"uint40[]","name":"timeTriggers","type":"uint40[]"},{"internalType":"address[]","name":"tokens","type":"address[]"}],"internalType":"struct Clocktower.Account[]","name":"","type":"tuple[]"}],"stateMutability":"view","type":"function"},{"inputs":[],"name":"allTransactions","outputs":[{"components":[{"internalType":"bytes32","name":"id","type":"bytes32"},{"internalType":"address","name":"sender","type":"address"},{"internalType":"address payable","name":"receiver","type":"address"},{"internalType":"address","name":"token","type":"address"},{"internalType":"uint40","name":"timeTrigger","type":"uint40"},{"internalType":"bool","name":"sent","type":"bool"},{"internalType":"bool","name":"cancelled","type":"bool"},{"internalType":"uint256","name":"payload","type":"uint256"}],"internalType":"struct Clocktower.Transaction[]","name":"","type":"tuple[]"}],"stateMutability":"view","type":"function"},{"inputs":[{"internalType":"bytes32","name":"id","type":"bytes32"},{"internalType":"uint40","name":"timeTrigger","type":"uint40"}],"name":"cancelTransaction","outputs":[],"stateMutability":"payable","type":"function"},{"inputs":[{"internalType":"address","name":"newAddress","type":"address"}],"name":"changeAdmin","outputs":[],"stateMutability":"nonpayable","type":"function"},{"inputs":[{"internalType":"uint256","name":"_fee","type":"uint256"}],"name":"changeFee","outputs":[],"stateMutability":"nonpayable","type":"function"},{"inputs":[],"name":"checkTime","outputs":[],"stateMutability":"nonpayable","type":"function"},{"inputs":[],"name":"getAccountTransactions","outputs":[{"components":[{"internalType":"bytes32","name":"id","type":"bytes32"},{"internalType":"address","name":"sender","type":"address"},{"internalType":"address payable","name":"receiver","type":"address"},{"internalType":"address","name":"token","type":"address"},{"internalType":"uint40","name":"timeTrigger","type":"uint40"},{"internalType":"bool","name":"sent","type":"bool"},{"internalType":"bool","name":"cancelled","type":"bool"},{"internalType":"uint256","name":"payload","type":"uint256"}],"internalType":"struct Clocktower.Transaction[]","name":"","type":"tuple[]"}],"stateMutability":"view","type":"function"},{"inputs":[],"name":"getTime","outputs":[{"internalType":"uint256","name":"","type":"uint256"}],"stateMutability":"view","type":"function"},{"inputs":[{"internalType":"address","name":"account","type":"address"}],"name":"getTransactionsByAccount","outputs":[{"components":[{"internalType":"bytes32","name":"id","type":"bytes32"},{"internalType":"address","name":"sender","type":"address"},{"internalType":"address payable","name":"receiver","type":"address"},{"internalType":"address","name":"token","type":"address"},{"internalType":"uint40","name":"timeTrigger","type":"uint40"},{"internalType":"bool","name":"sent","type":"bool"},{"internalType":"bool","name":"cancelled","type":"bool"},{"internalType":"uint256","name":"payload","type":"uint256"}],"internalType":"struct Clocktower.Transaction[]","name":"","type":"tuple[]"}],"stateMutability":"view","type":"function"},{"inputs":[{"internalType":"uint40","name":"unixTime","type":"uint40"}],"name":"hoursSinceMerge","outputs":[{"internalType":"uint40","name":"hourCount","type":"uint40"}],"stateMutability":"pure","type":"function"},{"inputs":[{"internalType":"address","name":"erc20Contract","type":"address"}],"name":"removeERC20Contract","outputs":[],"stateMutability":"nonpayable","type":"function"},{"inputs":[],"name":"toggleContractActive","outputs":[],"stateMutability":"nonpayable","type":"function"},{"stateMutability":"payable","type":"receive"}],"evm":{"bytecode":{"linkReferences":{},"object":"6080604052600580546001600160a01b03191673f39fd6e51aad88f6f4ce6ab8827279cfffb922661790556007805460ff1916905560646008556001620000464262000074565b6200005291906200009b565b6009805464ffffffffff191664ffffffffff9290921691909117905562000103565b6000610e10620000896363236820846200009b565b620000959190620000d0565b92915050565b600064ffffffffff83811690831681811015620000c857634e487b7160e01b600052601160045260246000fd5b039392505050565b600064ffffffffff80841680620000f757634e487b7160e01b600052601260045260246000fd5b92169190910492915050565b613ef180620001136000396000f3fe6080604052600436106100ec5760003560e01c80638f2839701161008a578063d10fa14411610059578063d10fa144146102db578063dc9961eb146102ee578063e0c6190d1461030e578063e9e1dbef146103235761012c565b80638f28397014610264578063ab7e090914610284578063c682cce4146102a4578063cf783d8a146102b95761012c565b8063557ed1ba116100c6578063557ed1ba146101e05780636a1db1bf146101fb5780637e4b10291461021b57806380423444146102515761012c565b8063053149fa1461017e5780631385d24c146101a05780631ccb3371146101b55761012c565b3661012c57604080513381523460208201527f830d2d700a97af574b186c80d40429385d24241565b08a7c559ba283a964d9b191015b60405180910390a1005b7f19525a32afaad9a5491805c356597487a306fc2f4e8541d8d55e1fe951091e606040516101229060208082526010908201526f2ab735b737bbb710333ab731ba34b7b760811b604082015260600190565b34801561018a57600080fd5b5061019e610199366004613808565b610336565b005b3480156101ac57600080fd5b5061019e610549565b3480156101c157600080fd5b506101ca610574565b6040516101d7919061382c565b60405180910390f35b3480156101ec57600080fd5b506040514281526020016101d7565b34801561020757600080fd5b5061019e6102163660046138d4565b6106ab565b34801561022757600080fd5b5061023b610236366004613902565b6106c7565b60405164ffffffffff90911681526020016101d7565b61019e61025f36600461391d565b6106ea565b34801561027057600080fd5b5061019e61027f366004613808565b610e55565b34801561029057600080fd5b5061019e61029f366004613808565b610eb7565b3480156102b057600080fd5b506101ca610f89565b3480156102c557600080fd5b506102ce611439565b6040516101d791906139b2565b61019e6102e9366004613afa565b61164d565b3480156102fa57600080fd5b506101ca610309366004613808565b612457565b34801561031a57600080fd5b5061019e61291d565b61019e610331366004613bf5565b612b99565b6005546001600160a01b0316331461034d57600080fd5b6001600160a01b03811661036057600080fd5b61036981612e66565b6103ba5760405162461bcd60e51b815260206004820152601960248201527f455243323020746f6b656e206e6f74206164646564207965740000000000000060448201526064015b60405180910390fd5b6000600680548060200260200160405190810160405280929190818152602001828054801561041257602002820191906000526020600020905b81546001600160a01b031681526001909101906020018083116103f4575b505050505090506000805b825181101561047357836001600160a01b031683828151811061044257610442613c21565b60200260200101516001600160a01b0316141561046157809150610473565b8061046b81613c4d565b91505061041d565b50805b60065461048590600190613c68565b811015610510576006610499826001613c7f565b815481106104a9576104a9613c21565b600091825260209091200154600680546001600160a01b0390921691839081106104d5576104d5613c21565b600091825260209091200180546001600160a01b0319166001600160a01b03929092169190911790558061050881613c4d565b915050610476565b50600680548061052257610522613c97565b600082815260209020810160001990810180546001600160a01b0319169055019055505050565b6005546001600160a01b0316331461056057600080fd5b6007805460ff19811660ff90911615179055565b6005546060906001600160a01b0316331461058e57600080fd5b60035460009067ffffffffffffffff8111156105ac576105ac613a8a565b6040519080825280602002602001820160405280156105e557816020015b6105d261358f565b8152602001906001900390816105ca5790505b5090506000805b6001548110156106a35760006106286001838154811061060e5761060e613c21565b6000918252602090912001546001600160a01b0316612457565b905060005b815181101561068e5781818151811061064857610648613c21565b602002602001015185858151811061066257610662613c21565b6020026020010181905250838061067890613c4d565b945050808061068690613c4d565b91505061062d565b5050808061069b90613c4d565b9150506105ec565b509091505090565b6005546001600160a01b031633146106c257600080fd5b600855565b6000610e106106da636323682084613cad565b6106e49190613ce9565b92915050565b428364ffffffffff16116107405760405162461bcd60e51b815260206004820152601f60248201527f54696d652064617461206d75737420626520696e20746865206675747572650060448201526064016103b1565b61074c610e1084613d0d565b64ffffffffff161561079b5760405162461bcd60e51b81526020600482015260186024820152772a34b6b29036bab9ba1031329037b7103a3432903437bab960411b60448201526064016103b1565b6001600160a01b0381166107e757346064600854846107ba9190613d31565b6107c49190613d50565b11156107e25760405162461bcd60e51b81526004016103b190613d64565b61080c565b6107f081612e66565b61080c5760405162461bcd60e51b81526004016103b190613da8565b6000610817846106c7565b64ffffffffff8116600090815260026020526040812091925061083d3388868689612f27565b825460018082018555600085815260209081902084516005909402019283558381015191830180546001600160a01b03199081166001600160a01b0394851617909155604080860151600286018054909316908516179091556060808601516003860180546080808a015160a08b015160c08c0151958a166001600160c81b031990941693909317600160a01b64ffffffffff928316021761ffff60c81b1916600160c81b9315159390930260ff60d01b191692909217600160d01b941515949094029390931790915560e08801516004909701969096558251338152948e1693850193909352938816908301529181018890529192507f6e643cb89831cd75ded50b4ecee0e313701b6002fc48e8b80a3c05447ab066e8910160405180910390a17f2844c95bf1b4598da931d527f903501abc60fe0199c65da52d5ce818c6c5e9616040516109a790602080825260069082015265141d5cda195960d21b604082015260600190565b60405180910390a1805160038054600181019091557fc2575a0e9e593c00f959f8c92f12db2869c3395a3b0502d05e2516446f71f85b015564ffffffffff831660009081526002602052604090208254610a03919084906135d3565b503360009081526020818152604080832060018101805483518186028101860190945280845291949384938493909291830182828015610a9057602002820191906000526020600020906000905b82829054906101000a900464ffffffffff1664ffffffffff1681526020019060050190602082600401049283019260010382029150808411610a515790505b50505050509050600084600201805480602002602001604051908101604052809291908181526020018280548015610af157602002820191906000526020600020905b81546001600160a01b03168152600190910190602001808311610ad3575b5050505050905060005b8251811015610b4e578864ffffffffff16838281518110610b1e57610b1e613c21565b602002602001015164ffffffffff161415610b3c5760019450610b4e565b80610b4681613c4d565b915050610afb565b5083610b9f5787856001016001816001815401808255809150500390600052602060002090600691828204019190066005026101000a81548164ffffffffff021916908364ffffffffff1602179055505b60005b8151811015610bf957896001600160a01b0316828281518110610bc757610bc7613c21565b60200260200101516001600160a01b03161415610be75760019350610bf9565b80610bf181613c4d565b915050610ba2565b5082610c3057600285018054600181018255600091825260209091200180546001600160a01b0319166001600160a01b038b161790555b33600090815260208190526040902054600160a01b900460ff16610cad5784546001600160a01b03199081163390811787556001805480820182556000919091527fb10e2d527612073b26eecdfd717e6a320cf44b4afac2b0732d9fcbe2b7fa0cf6018054909216179055845460ff60a01b1916600160a01b1785555b336000908152602081905260409020855481546001600160a01b039091166001600160a01b031982168117835587546001600160a81b031990921617600160a01b9182900460ff16151590910217815560018087018054889392610d1492908401916136f8565b5060028281018054610d299284019190613752565b50503360009081526004602090815260408083206001600160a01b038e168452909152812080548d9350909190610d61908490613c7f565b90915550506001600160a01b03891615610e47576040516323b872dd60e01b8152336004820152306024820152604481018b90526001600160a01b038a16906323b872dd90606401602060405180830381600087803b158015610dc357600080fd5b505af1158015610dd7573d6000803e3d6000fd5b505050506040513d601f19601f82011682018060405250810190610dfb9190613ded565b610e475760405162461bcd60e51b815260206004820152601a60248201527f50726f626c656d207472616e7366657272696e6720746f6b656e00000000000060448201526064016103b1565b505050505050505050505050565b6005546001600160a01b03163314610e6c57600080fd5b336001600160a01b038216148015610e8c57506001600160a01b03811615155b610e9557600080fd5b600580546001600160a01b0319166001600160a01b0392909216919091179055565b6005546001600160a01b03163314610ece57600080fd5b6001600160a01b038116610ee157600080fd5b610eea81612e66565b15610f375760405162461bcd60e51b815260206004820152601960248201527f455243323020746f6b656e20616c72656164792061646465640000000000000060448201526064016103b1565b600680546001810182556000919091527ff652222313e28459528d920b65115c16c04f3efc82aaedc97be59f3f377c0d3f0180546001600160a01b0319166001600160a01b0392909216919091179055565b3360009081526020818152604080832060010180548251818502810185019093528083526060949383018282801561100e57602002820191906000526020600020906000905b82829054906101000a900464ffffffffff1664ffffffffff1681526020019060050190602082600401049283019260010382029150808411610fcf5790505b505050505090506000805b825181101561114d5760006002600085848151811061103a5761103a613c21565b602002602001015164ffffffffff1664ffffffffff168152602001908152602001600020805480602002602001604051908101604052809291908181526020016000905b82821015611124576000848152602090819020604080516101008101825260058602909201805483526001808201546001600160a01b039081168587015260028301548116938501939093526003820154928316606085015264ffffffffff600160a01b840416608085015260ff600160c81b84048116151560a0860152600160d01b909304909216151560c08401526004015460e0830152908352909201910161107e565b5050505090508051836111379190613c7f565b925050808061114590613c4d565b915050611019565b5060008167ffffffffffffffff81111561116957611169613a8a565b6040519080825280602002602001820160405280156111a257816020015b61118f61358f565b8152602001906001900390816111875790505b50905060008267ffffffffffffffff8111156111c0576111c0613a8a565b6040519080825280602002602001820160405280156111f957816020015b6111e661358f565b8152602001906001900390816111de5790505b5090506000805b85518110156113bd576002600087838151811061121f5761121f613c21565b602002602001015164ffffffffff1664ffffffffff168152602001908152602001600020805480602002602001604051908101604052809291908181526020016000905b82821015611309576000848152602090819020604080516101008101825260058602909201805483526001808201546001600160a01b039081168587015260028301548116938501939093526003820154928316606085015264ffffffffff600160a01b840416608085015260ff600160c81b84048116151560a0860152600160d01b909304909216151560c08401526004015460e08301529083529092019101611263565b50505050935060005b84518110156113aa57336001600160a01b031685828151811061133757611337613c21565b6020026020010151602001516001600160a01b031614156113985784818151811061136457611364613c21565b602002602001015184848151811061137e5761137e613c21565b6020026020010181905250828061139490613c4d565b9350505b806113a281613c4d565b915050611312565b50806113b581613c4d565b915050611200565b5060005b825181101561142e576113f08382815181106113df576113df613c21565b602002602001015160800151612fd7565b83828151811061140257611402613c21565b602090810291909101015164ffffffffff9091166080909101528061142681613c4d565b9150506113c1565b509095945050505050565b6005546060906001600160a01b0316331461145357600080fd5b60015460009067ffffffffffffffff81111561147157611471613a8a565b6040519080825280602002602001820160405280156114c557816020015b604080516080810182526000808252602082015260609181018290528181019190915281526020019060019003908161148f5790505b50905060005b60015481101561164757600080600183815481106114eb576114eb613c21565b6000918252602080832091909101546001600160a01b039081168452838201949094526040928301909120825160808101845281549485168152600160a01b90940460ff16151584830152600181018054845181850281018501865281815292948601938301828280156115ac57602002820191906000526020600020906000905b82829054906101000a900464ffffffffff1664ffffffffff168152602001906005019060208260040104928301926001038202915080841161156d5790505b505050505081526020016002820180548060200260200160405190810160405280929190818152602001828054801561160e57602002820191906000526020600020905b81546001600160a01b031681526001909101906020018083116115f0575b50505050508152505082828151811061162957611629613c21565b6020026020010181905250808061163f90613c4d565b9150506114cb565b50905090565b6001815111801561165f575060648151105b6116d15760405162461bcd60e51b815260206004820152603b60248201527f4261746368206d7573742068617665206d6f7265207468616e206f6e6520747260448201527f616e73616374696f6e20616e64206c657373207468616e20313030000000000060648201526084016103b1565b6117186040518060e0016040528060008152602001606081526020016060815260200160608152602001600064ffffffffff16815260200160008152602001600081525090565b600080825233815260208181526040918290206001810180548451818502810185019095528085529193929091908301828280156117a357602002820191906000526020600020906000905b82829054906101000a900464ffffffffff1664ffffffffff16815260200190600501906020826004010492830192600103820291508084116117645790505b5050505050602083015260065467ffffffffffffffff8111156117c8576117c8613a8a565b6040519080825280602002602001820160405280156117f1578160200160208202803683370190505b5060408301526001810154611807906064613c7f565b67ffffffffffffffff81111561181f5761181f613a8a565b604051908082528060200260200182016040528015611848578160200160208202803683370190505b50606083015260006080830181905260a0830181905260c083018190525b8351811015611bf6574284828151811061188257611882613c21565b60200260200101516020015164ffffffffff16116118e25760405162461bcd60e51b815260206004820152601f60248201527f54696d652064617461206d75737420626520696e20746865206675747572650060448201526064016103b1565b610e108482815181106118f7576118f7613c21565b60200260200101516020015161190d9190613d0d565b64ffffffffff161561195c5760405162461bcd60e51b81526020600482015260186024820152772a34b6b29036bab9ba1031329037b7103a3432903437bab960411b60448201526064016103b1565b60008061198586848151811061197457611974613c21565b6020026020010151602001516106c7565b905060005b8560600151518110156119e557856060015181815181106119ad576119ad613c21565b602002602001015164ffffffffff168264ffffffffff1614156119d357600192506119e5565b806119dd81613c4d565b91505061198a565b5081611a39578085606001518660c0015181518110611a0657611a06613c21565b602002602001019064ffffffffff16908164ffffffffff168152505060018560c001818151611a359190613c7f565b9052505b60006001600160a01b0316868481518110611a5657611a56613c21565b6020026020010151606001516001600160a01b03161415611aa857858381518110611a8357611a83613c21565b60200260200101516040015185600001818151611aa09190613c7f565b905250611be1565b611ace868481518110611abd57611abd613c21565b602002602001015160600151612e66565b611aea5760405162461bcd60e51b81526004016103b190613da8565b6000805b866040015151811015611b6a5786604001518181518110611b1157611b11613c21565b60200260200101516001600160a01b0316888681518110611b3457611b34613c21565b6020026020010151606001516001600160a01b03161415611b585760019150611b6a565b80611b6281613c4d565b915050611aee565b5080611bdf57868481518110611b8257611b82613c21565b60200260200101516060015186604001518760a0015181518110611ba857611ba8613c21565b60200260200101906001600160a01b031690816001600160a01b03168152505060018660a001818151611bdb9190613c7f565b9052505b505b50508080611bee90613c4d565b915050611866565b503460646008548460000151611c0c9190613d31565b611c169190613d50565b1115611c345760405162461bcd60e51b81526004016103b190613d64565b60005b826060015151811015611fef5782606001518181518110611c5a57611c5a613c21565b602002602001015164ffffffffff1660001415611c7657611fef565b60006002600085606001518481518110611c9257611c92613c21565b602002602001015164ffffffffff1664ffffffffff168152602001908152602001600020905060005b85518161ffff161015611ea2576000611ce3878361ffff168151811061197457611974613c21565b905085606001518481518110611cfb57611cfb613c21565b602002602001015164ffffffffff168164ffffffffff161415611e8f576000611d8a33898561ffff1681518110611d3457611d34613c21565b6020026020010151600001518a8661ffff1681518110611d5657611d56613c21565b602002602001015160600151858c8861ffff1681518110611d7957611d79613c21565b602002602001015160400151612f27565b8454600181810187556000878152602080822085516005909502018481559085015181840180546001600160a01b039283166001600160a01b03199182161790915560408701516002840180549184169190921617905560608601516003808401805460808a015160a08b015160c08c01511515600160d01b0260ff60d01b19911515600160c81b029190911661ffff60c81b1964ffffffffff909316600160a01b026001600160c81b031990941696909716959095179190911716939093179190911790915560e09095015160049091015583549182018455929092527fc2575a0e9e593c00f959f8c92f12db2869c3395a3b0502d05e2516446f71f85b90910155505b5080611e9a81613e0f565b915050611cbb565b50806002600086606001518581518110611ebe57611ebe613c21565b602002602001015164ffffffffff1664ffffffffff168152602001908152602001600020908054611ef09291906135d3565b506000805b856020015151811015611f6d5785606001518481518110611f1857611f18613c21565b602002602001015164ffffffffff1686602001518281518110611f3d57611f3d613c21565b602002602001015164ffffffffff161415611f5b5760019150611f6d565b80611f6581613c4d565b915050611ef5565b5080611fdb5784606001518381518110611f8957611f89613c21565b6020026020010151846001016001816001815401808255809150500390600052602060002090600691828204019190066005026101000a81548164ffffffffff021916908364ffffffffff1602179055505b505080611fe781613c4d565b915050611c37565b5060008160020180548060200260200160405190810160405280929190818152602001828054801561204a57602002820191906000526020600020905b81546001600160a01b0316815260019091019060200180831161202c575b5050505050905060005b836040015151811015612149576000805b83518110156120d9578560400151838151811061208457612084613c21565b60200260200101516001600160a01b03168482815181106120a7576120a7613c21565b60200260200101516001600160a01b031614156120c757600191506120d9565b806120d181613c4d565b915050612065565b508061213657846040015182815181106120f5576120f5613c21565b602090810291909101810151600286018054600181018255600091825292902090910180546001600160a01b0319166001600160a01b039092169190911790555b508061214181613c4d565b915050612054565b5033600090815260208190526040902054600160a01b900460ff166121c75781546001600160a01b03199081163390811784556001805480820182556000919091527fb10e2d527612073b26eecdfd717e6a320cf44b4afac2b0732d9fcbe2b7fa0cf6018054909216179055815460ff60a01b1916600160a01b1782555b336000908152602081905260409020825481546001600160a01b039091166001600160a01b031982168117835584546001600160a81b031990921617600160a01b9182900460ff1615159091021781556001808401805485939261222e92908401916136f8565b50600282810180546122439284019190613752565b5090505060005b84518110156124505784818151811061226557612265613c21565b60200260200101516040015160046000336001600160a01b03166001600160a01b0316815260200190815260200160002060008784815181106122aa576122aa613c21565b6020026020010151606001516001600160a01b03166001600160a01b0316815260200190815260200160002060008282546122e59190613c7f565b9091555050845160009086908390811061230157612301613c21565b6020026020010151606001516001600160a01b03161461243e5784818151811061232d5761232d613c21565b6020026020010151606001516001600160a01b03166323b872dd333088858151811061235b5761235b613c21565b602090810291909101015160409081015190516001600160e01b031960e086901b1681526001600160a01b0393841660048201529290911660248301526044820152606401602060405180830381600087803b1580156123ba57600080fd5b505af11580156123ce573d6000803e3d6000fd5b505050506040513d601f19601f820116820180604052508101906123f29190613ded565b61243e5760405162461bcd60e51b815260206004820152601a60248201527f50726f626c656d207472616e7366657272696e6720746f6b656e00000000000060448201526064016103b1565b8061244881613c4d565b91505061224a565b5050505050565b6005546060906001600160a01b0316331461247157600080fd5b6001600160a01b0382166000908152602081815260408083206001018054825181850281018501909352808352919290919083018282801561250057602002820191906000526020600020906000905b82829054906101000a900464ffffffffff1664ffffffffff16815260200190600501906020826004010492830192600103820291508084116124c15790505b505050505090506000805b825181101561263f5760006002600085848151811061252c5761252c613c21565b602002602001015164ffffffffff1664ffffffffff168152602001908152602001600020805480602002602001604051908101604052809291908181526020016000905b82821015612616576000848152602090819020604080516101008101825260058602909201805483526001808201546001600160a01b039081168587015260028301548116938501939093526003820154928316606085015264ffffffffff600160a01b840416608085015260ff600160c81b84048116151560a0860152600160d01b909304909216151560c08401526004015460e08301529083529092019101612570565b5050505090508051836126299190613c7f565b925050808061263790613c4d565b91505061250b565b5060008167ffffffffffffffff81111561265b5761265b613a8a565b60405190808252806020026020018201604052801561269457816020015b61268161358f565b8152602001906001900390816126795790505b50905060008267ffffffffffffffff8111156126b2576126b2613a8a565b6040519080825280602002602001820160405280156126eb57816020015b6126d861358f565b8152602001906001900390816126d05790505b5090506000805b85518110156128af576002600087838151811061271157612711613c21565b602002602001015164ffffffffff1664ffffffffff168152602001908152602001600020805480602002602001604051908101604052809291908181526020016000905b828210156127fb576000848152602090819020604080516101008101825260058602909201805483526001808201546001600160a01b039081168587015260028301548116938501939093526003820154928316606085015264ffffffffff600160a01b840416608085015260ff600160c81b84048116151560a0860152600160d01b909304909216151560c08401526004015460e08301529083529092019101612755565b50505050935060005b845181101561289c57886001600160a01b031685828151811061282957612829613c21565b6020026020010151602001516001600160a01b0316141561288a5784818151811061285657612856613c21565b602002602001015184848151811061287057612870613c21565b6020026020010181905250828061288690613c4d565b9350505b8061289481613c4d565b915050612804565b50806128a781613c4d565b9150506126f2565b5060005b825181101561290f576128d18382815181106113df576113df613c21565b8382815181106128e3576128e3613c21565b602090810291909101015164ffffffffff9091166080909101528061290781613c4d565b9150506128b3565b50909450505050505b919050565b6005546001600160a01b0316331461293457600080fd5b600061293f426106c7565b60095490915064ffffffffff908116908216116129ae5760405162461bcd60e51b815260206004820152602760248201527f54696d6520616c726561647920636865636b656420666f7220746869732074696044820152661b59481cdb1bdd60ca1b60648201526084016103b1565b60095464ffffffffff165b8164ffffffffff168164ffffffffff1611612b7a5764ffffffffff8116600090815260026020908152604080832080548251818502810185019093528083529192909190849084015b82821015612aa8576000848152602090819020604080516101008101825260058602909201805483526001808201546001600160a01b039081168587015260028301548116938501939093526003820154928316606085015264ffffffffff600160a01b840416608085015260ff600160c81b84048116151560a0860152600160d01b909304909216151560c08401526004015460e08301529083529092019101612a02565b5050505090507fd0467e87c925b3aaa75daa9ae7ddbc4e3fb9e730bc9d328e6732e9eb541dd8c9604051612af490602080825260049082015263646f6e6560e01b604082015260600190565b60405180910390a1805115612b675760005b8151811015612b6557818181518110612b2157612b21613c21565b602002602001015160c00151612b5357612b53828281518110612b4657612b46613c21565b6020026020010151612ff3565b80612b5d81613c4d565b915050612b06565b505b5080612b7281613e31565b9150506129b9565b506009805464ffffffffff191664ffffffffff92909216919091179055565b612ba2816106c7565b64ffffffffff8116600090815260026020908152604080832080548251818502810185019093528083529495509293909291849084015b82821015612c7f576000848152602090819020604080516101008101825260058602909201805483526001808201546001600160a01b039081168587015260028301548116938501939093526003820154928316606085015264ffffffffff600160a01b840416608085015260ff600160c81b84048116151560a0860152600160d01b909304909216151560c08401526004015460e08301529083529092019101612bd9565b5050505064ffffffffff83166000908152600260205260409020909150612ca461358f565b60005b8351811015612df05785848281518110612cc357612cc3613c21565b6020026020010151600001511415612dde57838181518110612ce757612ce7613c21565b6020908102919091010151600160c082015283549092508290849083908110612d1257612d12613c21565b60009182526020918290208351600590920201908155908201516001820180546001600160a01b039283166001600160a01b0319918216179091556040840151600284018054918416919092161790556060830151600383018054608086015160a087015160c08801511515600160d01b0260ff60d01b19911515600160c81b029190911661ffff60c81b1964ffffffffff909316600160a01b026001600160c81b0319909416959096169490941791909117169290921717905560e090910151600490910155612df0565b80612de881613c4d565b915050612ca7565b5060e08101514711612e0157600080fd5b80602001516001600160a01b03166108fc8260e001519081150290604051600060405180830381858888f19350505050612e3a57600080fd5b64ffffffffff841660009081526002602052604090208254612e5e919084906135d3565b505050505050565b6000806006805480602002602001604051908101604052809291908181526020018280548015612ebf57602002820191906000526020600020905b81546001600160a01b03168152600190910190602001808311612ea1575b505050505090506000915060005b8151811015612f2057818181518110612ee857612ee8613c21565b60200260200101516001600160a01b0316846001600160a01b03161415612f0e57600192505b80612f1881613c4d565b915050612ecd565b5050919050565b612f2f61358f565b6040516bffffffffffffffffffffffff19606088901b1660208201526001600160d81b031960d885901b16603482015242603982015260009060590160408051601f1981840301815282825280516020918201206101008401835283526001600160a01b03998a169083015296881696810196909652505091909316606083015264ffffffffff9092166080820152600060a0820181905260c082015260e081019190915290565b6000612fe582610e10613e4c565b6106e4906363236820613e79565b60075460ff1661358c5760e081015160208083015160608401516001600160a01b039182166000908152600484526040808220939092168152919092522054101561303d57600080fd5b60608101516001600160a01b03166130645760e0810151471161305f57600080fd5b6130f3565b60e081015160608201516040516370a0823160e01b81523060048201526001600160a01b03909116906370a0823190602401602060405180830381600087803b1580156130b057600080fd5b505af11580156130c4573d6000803e3d6000fd5b505050506040513d601f19601f820116820180604052508101906130e89190613ea2565b10156130f357600080fd5b608081015164ffffffffff16600090815260026020908152604080832080548251818502810185019093528083529192909190849084015b828210156131d1576000848152602090819020604080516101008101825260058602909201805483526001808201546001600160a01b039081168587015260028301548116938501939093526003820154928316606085015264ffffffffff600160a01b840416608085015260ff600160c81b84048116151560a0860152600160d01b909304909216151560c08401526004015460e0830152908352909201910161312b565b50505050608083015164ffffffffff1660009081526002602052604081209192505b825181101561334057836000015183828151811061321357613213613c21565b602002602001015160000151141561332e5782818151811061323757613237613c21565b6020908102919091010151600160a08201528254909450849083908390811061326257613262613c21565b60009182526020918290208351600590920201908155908201516001820180546001600160a01b039283166001600160a01b0319918216179091556040840151600284018054918416919092161790556060830151600383018054608086015160a087015160c08801511515600160d01b0260ff60d01b19911515600160c81b029190911661ffff60c81b1964ffffffffff909316600160a01b026001600160c81b0319909416959096169490941791909117169290921717905560e090910151600490910155613340565b8061333881613c4d565b9150506131f3565b50608083015164ffffffffff1660009081526002602052604090208154613369919083906135d3565b5060608301516001600160a01b031661345457600083604001516001600160a01b03168460e0015160405160006040518083038185875af1925050503d80600081146133d1576040519150601f19603f3d011682016040523d82523d6000602084013e6133d6565b606091505b505090508061341a5760405162461bcd60e51b815260206004820152601060248201526f2a3930b739b332b9103330b4b632b21760811b60448201526064016103b1565b604051600181527fa2ea5b0db1d57b0e32df654aa9a1a97bc8066881e37669ff488d2bebe87c9f879060200160405180910390a150613589565b606083015160e084015160405163095ea7b360e01b815230600482015260248101919091526001600160a01b039091169063095ea7b390604401602060405180830381600087803b1580156134a857600080fd5b505af11580156134bc573d6000803e3d6000fd5b505050506040513d601f19601f820116820180604052508101906134e09190613ded565b80156135805750606083015160408085015160e086015191516323b872dd60e01b81523060048201526001600160a01b0391821660248201526044810192909252909116906323b872dd90606401602060405180830381600087803b15801561354857600080fd5b505af115801561355c573d6000803e3d6000fd5b505050506040513d601f19601f820116820180604052508101906135809190613ded565b61358957600080fd5b50505b50565b6040805161010081018252600080825260208201819052918101829052606081018290526080810182905260a0810182905260c0810182905260e081019190915290565b8280548282559060005260206000209060050281019282156136e85760005260206000209160050282015b828111156136e8578254825560018084015490830180546001600160a01b03199081166001600160a01b039384161790915560028086015490850180548316918416919091179055600380860180549186018054938416929094169182178455805464ffffffffff600160a01b9182900416026001600160c81b031990931690911791909117808355815460ff600160c81b918290048116151590910260ff60c81b198316811785559254600160d01b9081900490911615150260ff60d01b1990921661ffff60c81b199091161717905560048084015490830155600592830192909101906135fe565b506136f4929150613791565b5090565b82805482825590600052602060002090600501600690048101928215613746576000526020600020916005016006900482015b8281111561374657825482559160010191906001019061372b565b506136f49291506137de565b8280548282559060005260206000209081019282156137465760005260206000209182018281111561374657825482559160010191906001019061372b565b5b808211156136f45760008082556001820180546001600160a01b031990811690915560028301805490911690556003820180546001600160d81b03191690556004820155600501613792565b5b808211156136f457600081556001016137df565b6001600160a01b038116811461358c57600080fd5b60006020828403121561381a57600080fd5b8135613825816137f3565b9392505050565b602080825282518282018190526000919060409081850190868401855b828110156138c757815180518552868101516001600160a01b0390811688870152868201518116878701526060808301519091169086015260808082015164ffffffffff169086015260a08082015115159086015260c08082015115159086015260e090810151908501526101009093019290850190600101613849565b5091979650505050505050565b6000602082840312156138e657600080fd5b5035919050565b803564ffffffffff8116811461291857600080fd5b60006020828403121561391457600080fd5b613825826138ed565b6000806000806080858703121561393357600080fd5b843561393e816137f3565b935061394c602086016138ed565b9250604085013591506060850135613963816137f3565b939692955090935050565b600081518084526020808501945080840160005b838110156139a75781516001600160a01b031687529582019590820190600101613982565b509495945050505050565b60006020808301818452808551808352604092508286019150828160051b8701018488016000805b84811015613a7b57898403603f19018652825180516001600160a01b0316855288810151151589860152878101516080898701819052815190870181905260a08701918b019085905b80821015613a4a57825164ffffffffff168452928c0192918c019160019190910190613a23565b50505060608083015192508682038188015250613a67818361396e565b978a019795505050918701916001016139da565b50919998505050505050505050565b634e487b7160e01b600052604160045260246000fd5b6040516080810167ffffffffffffffff81118282101715613ac357613ac3613a8a565b60405290565b604051601f8201601f1916810167ffffffffffffffff81118282101715613af257613af2613a8a565b604052919050565b60006020808385031215613b0d57600080fd5b823567ffffffffffffffff80821115613b2557600080fd5b818501915085601f830112613b3957600080fd5b813581811115613b4b57613b4b613a8a565b613b59848260051b01613ac9565b818152848101925060079190911b830184019087821115613b7957600080fd5b928401925b81841015613bea5760808489031215613b975760008081fd5b613b9f613aa0565b8435613baa816137f3565b8152613bb78587016138ed565b8187015260408581013590820152606080860135613bd4816137f3565b9082015283526080939093019291840191613b7e565b979650505050505050565b60008060408385031215613c0857600080fd5b82359150613c18602084016138ed565b90509250929050565b634e487b7160e01b600052603260045260246000fd5b634e487b7160e01b600052601160045260246000fd5b6000600019821415613c6157613c61613c37565b5060010190565b600082821015613c7a57613c7a613c37565b500390565b60008219821115613c9257613c92613c37565b500190565b634e487b7160e01b600052603160045260246000fd5b600064ffffffffff83811690831681811015613ccb57613ccb613c37565b039392505050565b634e487b7160e01b600052601260045260246000fd5b600064ffffffffff80841680613d0157613d01613cd3565b92169190910492915050565b600064ffffffffff80841680613d2557613d25613cd3565b92169190910692915050565b6000816000190483118215151615613d4b57613d4b613c37565b500290565b600082613d5f57613d5f613cd3565b500490565b60208082526024908201527f4e6f7420656e6f756768204554482073656e742077697468207472616e7361636040820152633a34b7b760e11b606082015260800190565b60208082526025908201527f20546f6b656e206e6f7420617070726f76656420666f72207468697320636f6e6040820152641d1c9858dd60da1b606082015260800190565b600060208284031215613dff57600080fd5b8151801515811461382557600080fd5b600061ffff80831681811415613e2757613e27613c37565b6001019392505050565b600064ffffffffff80831681811415613e2757613e27613c37565b600064ffffffffff80831681851681830481118215151615613e7057613e70613c37565b02949350505050565b600064ffffffffff808316818516808303821115613e9957613e99613c37565b01949350505050565b600060208284031215613eb457600080fd5b505191905056fea2646970667358221220465f1017cd02077cda1c2ab5a26d10843ceff22746f22e64b549cd8de468695464736f6c63430008090033","opcodes":"PUSH1 0x80 PUSH1 0x40 MSTORE PUSH1 0x5 DUP1 SLOAD PUSH1 0x1 PUSH1 0x1 PUSH1 0xA0 SHL SUB NOT AND PUSH20 0xF39FD6E51AAD88F6F4CE6AB8827279CFFFB92266 OR SWAP1 SSTORE PUSH1 0x7 DUP1 SLOAD PUSH1 0xFF NOT AND SWAP1 SSTORE PUSH1 0x64 PUSH1 0x8 SSTORE PUSH1 0x1 PUSH3 0x46 TIMESTAMP PUSH3 0x74 JUMP JUMPDEST PUSH3 0x52 SWAP2 SWAP1 PUSH3 0x9B JUMP JUMPDEST PUSH1 0x9 DUP1 SLOAD PUSH5 0xFFFFFFFFFF NOT AND PUSH5 0xFFFFFFFFFF SWAP3 SWAP1 SWAP3 AND SWAP2 SWAP1 SWAP2 OR SWAP1 SSTORE PUSH3 0x103 JUMP JUMPDEST PUSH1 0x0 PUSH2 0xE10 PUSH3 0x89 PUSH4 0x63236820 DUP5 PUSH3 0x9B JUMP JUMPDEST PUSH3 0x95 SWAP2 SWAP1 PUSH3 0xD0 JUMP JUMPDEST SWAP3 SWAP2 POP POP JUMP JUMPDEST PUSH1 0x0 PUSH5 0xFFFFFFFFFF DUP4 DUP2 AND SWAP1 DUP4 AND DUP2 DUP2 LT ISZERO PUSH3 0xC8 JUMPI PUSH4 0x4E487B71 PUSH1 0xE0 SHL PUSH1 0x0 MSTORE PUSH1 0x11 PUSH1 0x4 MSTORE PUSH1 0x24 PUSH1 0x0 REVERT JUMPDEST SUB SWAP4 SWAP3 POP POP POP JUMP JUMPDEST PUSH1 0x0 PUSH5 0xFFFFFFFFFF DUP1 DUP5 AND DUP1 PUSH3 0xF7 JUMPI PUSH4 0x4E487B71 PUSH1 0xE0 SHL PUSH1 0x0 MSTORE PUSH1 0x12 PUSH1 0x4 MSTORE PUSH1 0x24 PUSH1 0x0 REVERT JUMPDEST SWAP3 AND SWAP2 SWAP1 SWAP2 DIV SWAP3 SWAP2 POP POP JUMP JUMPDEST PUSH2 0x3EF1 DUP1 PUSH3 0x113 PUSH1 0x0 CODECOPY PUSH1 0x0 RETURN INVALID PUSH1 0x80 PUSH1 0x40 MSTORE PUSH1 0x4 CALLDATASIZE LT PUSH2 0xEC JUMPI PUSH1 0x0 CALLDATALOAD PUSH1 0xE0 SHR DUP1 PUSH4 0x8F283970 GT PUSH2 0x8A JUMPI DUP1 PUSH4 0xD10FA144 GT PUSH2 0x59 JUMPI DUP1 PUSH4 0xD10FA144 EQ PUSH2 0x2DB JUMPI DUP1 PUSH4 0xDC9961EB EQ PUSH2 0x2EE JUMPI DUP1 PUSH4 0xE0C6190D EQ PUSH2 0x30E JUMPI DUP1 PUSH4 0xE9E1DBEF EQ PUSH2 0x323 JUMPI PUSH2 0x12C JUMP JUMPDEST DUP1 PUSH4 0x8F283970 EQ PUSH2 0x264 JUMPI DUP1 PUSH4 0xAB7E0909 EQ PUSH2 0x284 JUMPI DUP1 PUSH4 0xC682CCE4 EQ PUSH2 0x2A4 JUMPI DUP1 PUSH4 0xCF783D8A EQ PUSH2 0x2B9 JUMPI PUSH2 0x12C JUMP JUMPDEST DUP1 PUSH4 0x557ED1BA GT PUSH2 0xC6 JUMPI DUP1 PUSH4 0x557ED1BA EQ PUSH2 0x1E0 JUMPI DUP1 PUSH4 0x6A1DB1BF EQ PUSH2 0x1FB JUMPI DUP1 PUSH4 0x7E4B1029 EQ PUSH2 0x21B JUMPI DUP1 PUSH4 0x80423444 EQ PUSH2 0x251 JUMPI PUSH2 0x12C JUMP JUMPDEST DUP1 PUSH4 0x53149FA EQ PUSH2 0x17E JUMPI DUP1 PUSH4 0x1385D24C EQ PUSH2 0x1A0 JUMPI DUP1 PUSH4 0x1CCB3371 EQ PUSH2 0x1B5 JUMPI PUSH2 0x12C JUMP JUMPDEST CALLDATASIZE PUSH2 0x12C JUMPI PUSH1 0x40 DUP1 MLOAD CALLER DUP2 MSTORE CALLVALUE PUSH1 0x20 DUP3 ADD MSTORE PUSH32 0x830D2D700A97AF574B186C80D40429385D24241565B08A7C559BA283A964D9B1 SWAP2 ADD JUMPDEST PUSH1 0x40 MLOAD DUP1 SWAP2 SUB SWAP1 LOG1 STOP JUMPDEST PUSH32 0x19525A32AFAAD9A5491805C356597487A306FC2F4E8541D8D55E1FE951091E60 PUSH1 0x40 MLOAD PUSH2 0x122 SWAP1 PUSH1 0x20 DUP1 DUP3 MSTORE PUSH1 0x10 SWAP1 DUP3 ADD MSTORE PUSH16 0x2AB735B737BBB710333AB731BA34B7B7 PUSH1 0x81 SHL PUSH1 0x40 DUP3 ADD MSTORE PUSH1 0x60 ADD SWAP1 JUMP JUMPDEST CALLVALUE DUP1 ISZERO PUSH2 0x18A JUMPI PUSH1 0x0 DUP1 REVERT JUMPDEST POP PUSH2 0x19E PUSH2 0x199 CALLDATASIZE PUSH1 0x4 PUSH2 0x3808 JUMP JUMPDEST PUSH2 0x336 JUMP JUMPDEST STOP JUMPDEST CALLVALUE DUP1 ISZERO PUSH2 0x1AC JUMPI PUSH1 0x0 DUP1 REVERT JUMPDEST POP PUSH2 0x19E PUSH2 0x549 JUMP JUMPDEST CALLVALUE DUP1 ISZERO PUSH2 0x1C1 JUMPI PUSH1 0x0 DUP1 REVERT JUMPDEST POP PUSH2 0x1CA PUSH2 0x574 JUMP JUMPDEST PUSH1 0x40 MLOAD PUSH2 0x1D7 SWAP2 SWAP1 PUSH2 0x382C JUMP JUMPDEST PUSH1 0x40 MLOAD DUP1 SWAP2 SUB SWAP1 RETURN JUMPDEST CALLVALUE DUP1 ISZERO PUSH2 0x1EC JUMPI PUSH1 0x0 DUP1 REVERT JUMPDEST POP PUSH1 0x40 MLOAD TIMESTAMP DUP2 MSTORE PUSH1 0x20 ADD PUSH2 0x1D7 JUMP JUMPDEST CALLVALUE DUP1 ISZERO PUSH2 0x207 JUMPI PUSH1 0x0 DUP1 REVERT JUMPDEST POP PUSH2 0x19E PUSH2 0x216 CALLDATASIZE PUSH1 0x4 PUSH2 0x38D4 JUMP JUMPDEST PUSH2 0x6AB JUMP JUMPDEST CALLVALUE DUP1 ISZERO PUSH2 0x227 JUMPI PUSH1 0x0 DUP1 REVERT JUMPDEST POP PUSH2 0x23B PUSH2 0x236 CALLDATASIZE PUSH1 0x4 PUSH2 0x3902 JUMP JUMPDEST PUSH2 0x6C7 JUMP JUMPDEST PUSH1 0x40 MLOAD PUSH5 0xFFFFFFFFFF SWAP1 SWAP2 AND DUP2 MSTORE PUSH1 0x20 ADD PUSH2 0x1D7 JUMP JUMPDEST PUSH2 0x19E PUSH2 0x25F CALLDATASIZE PUSH1 0x4 PUSH2 0x391D JUMP JUMPDEST PUSH2 0x6EA JUMP JUMPDEST CALLVALUE DUP1 ISZERO PUSH2 0x270 JUMPI PUSH1 0x0 DUP1 REVERT JUMPDEST POP PUSH2 0x19E PUSH2 0x27F CALLDATASIZE PUSH1 0x4 PUSH2 0x3808 JUMP JUMPDEST PUSH2 0xE55 JUMP JUMPDEST CALLVALUE DUP1 ISZERO PUSH2 0x290 JUMPI PUSH1 0x0 DUP1 REVERT JUMPDEST POP PUSH2 0x19E PUSH2 0x29F CALLDATASIZE PUSH1 0x4 PUSH2 0x3808 JUMP JUMPDEST PUSH2 0xEB7 JUMP JUMPDEST CALLVALUE DUP1 ISZERO PUSH2 0x2B0 JUMPI PUSH1 0x0 DUP1 REVERT JUMPDEST POP PUSH2 0x1CA PUSH2 0xF89 JUMP JUMPDEST CALLVALUE DUP1 ISZERO PUSH2 0x2C5 JUMPI PUSH1 0x0 DUP1 REVERT JUMPDEST POP PUSH2 0x2CE PUSH2 0x1439 JUMP JUMPDEST PUSH1 0x40 MLOAD PUSH2 0x1D7 SWAP2 SWAP1 PUSH2 0x39B2 JUMP JUMPDEST PUSH2 0x19E PUSH2 0x2E9 CALLDATASIZE PUSH1 0x4 PUSH2 0x3AFA JUMP JUMPDEST PUSH2 0x164D JUMP JUMPDEST CALLVALUE DUP1 ISZERO PUSH2 0x2FA JUMPI PUSH1 0x0 DUP1 REVERT JUMPDEST POP PUSH2 0x1CA PUSH2 0x309 CALLDATASIZE PUSH1 0x4 PUSH2 0x3808 JUMP JUMPDEST PUSH2 0x2457 JUMP JUMPDEST CALLVALUE DUP1 ISZERO PUSH2 0x31A JUMPI PUSH1 0x0 DUP1 REVERT JUMPDEST POP PUSH2 0x19E PUSH2 0x291D JUMP JUMPDEST PUSH2 0x19E PUSH2 0x331 CALLDATASIZE PUSH1 0x4 PUSH2 0x3BF5 JUMP JUMPDEST PUSH2 0x2B99 JUMP JUMPDEST PUSH1 0x5 SLOAD PUSH1 0x1 PUSH1 0x1 PUSH1 0xA0 SHL SUB AND CALLER EQ PUSH2 0x34D JUMPI PUSH1 0x0 DUP1 REVERT JUMPDEST PUSH1 0x1 PUSH1 0x1 PUSH1 0xA0 SHL SUB DUP2 AND PUSH2 0x360 JUMPI PUSH1 0x0 DUP1 REVERT JUMPDEST PUSH2 0x369 DUP2 PUSH2 0x2E66 JUMP JUMPDEST PUSH2 0x3BA JUMPI PUSH1 0x40 MLOAD PUSH3 0x461BCD PUSH1 0xE5 SHL DUP2 MSTORE PUSH1 0x20 PUSH1 0x4 DUP3 ADD MSTORE PUSH1 0x19 PUSH1 0x24 DUP3 ADD MSTORE PUSH32 0x455243323020746F6B656E206E6F742061646465642079657400000000000000 PUSH1 0x44 DUP3 ADD MSTORE PUSH1 0x64 ADD JUMPDEST PUSH1 0x40 MLOAD DUP1 SWAP2 SUB SWAP1 REVERT JUMPDEST PUSH1 0x0 PUSH1 0x6 DUP1 SLOAD DUP1 PUSH1 0x20 MUL PUSH1 0x20 ADD PUSH1 0x40 MLOAD SWAP1 DUP2 ADD PUSH1 0x40 MSTORE DUP1 SWAP3 SWAP2 SWAP1 DUP2 DUP2 MSTORE PUSH1 0x20 ADD DUP3 DUP1 SLOAD DUP1 ISZERO PUSH2 0x412 JUMPI PUSH1 0x20 MUL DUP3 ADD SWAP2 SWAP1 PUSH1 0x0 MSTORE PUSH1 0x20 PUSH1 0x0 KECCAK256 SWAP1 JUMPDEST DUP2 SLOAD PUSH1 0x1 PUSH1 0x1 PUSH1 0xA0 SHL SUB AND DUP2 MSTORE PUSH1 0x1 SWAP1 SWAP2 ADD SWAP1 PUSH1 0x20 ADD DUP1 DUP4 GT PUSH2 0x3F4 JUMPI JUMPDEST POP POP POP POP POP SWAP1 POP PUSH1 0x0 DUP1 JUMPDEST DUP3 MLOAD DUP2 LT ISZERO PUSH2 0x473 JUMPI DUP4 PUSH1 0x1 PUSH1 0x1 PUSH1 0xA0 SHL SUB AND DUP4 DUP3 DUP2 MLOAD DUP2 LT PUSH2 0x442 JUMPI PUSH2 0x442 PUSH2 0x3C21 JUMP JUMPDEST PUSH1 0x20 MUL PUSH1 0x20 ADD ADD MLOAD PUSH1 0x1 PUSH1 0x1 PUSH1 0xA0 SHL SUB AND EQ ISZERO PUSH2 0x461 JUMPI DUP1 SWAP2 POP PUSH2 0x473 JUMP JUMPDEST DUP1 PUSH2 0x46B DUP2 PUSH2 0x3C4D JUMP JUMPDEST SWAP2 POP POP PUSH2 0x41D JUMP JUMPDEST POP DUP1 JUMPDEST PUSH1 0x6 SLOAD PUSH2 0x485 SWAP1 PUSH1 0x1 SWAP1 PUSH2 0x3C68 JUMP JUMPDEST DUP2 LT ISZERO PUSH2 0x510 JUMPI PUSH1 0x6 PUSH2 0x499 DUP3 PUSH1 0x1 PUSH2 0x3C7F JUMP JUMPDEST DUP2 SLOAD DUP2 LT PUSH2 0x4A9 JUMPI PUSH2 0x4A9 PUSH2 0x3C21 JUMP JUMPDEST PUSH1 0x0 SWAP2 DUP3 MSTORE PUSH1 0x20 SWAP1 SWAP2 KECCAK256 ADD SLOAD PUSH1 0x6 DUP1 SLOAD PUSH1 0x1 PUSH1 0x1 PUSH1 0xA0 SHL SUB SWAP1 SWAP3 AND SWAP2 DUP4 SWAP1 DUP2 LT PUSH2 0x4D5 JUMPI PUSH2 0x4D5 PUSH2 0x3C21 JUMP JUMPDEST PUSH1 0x0 SWAP2 DUP3 MSTORE PUSH1 0x20 SWAP1 SWAP2 KECCAK256 ADD DUP1 SLOAD PUSH1 0x1 PUSH1 0x1 PUSH1 0xA0 SHL SUB NOT AND PUSH1 0x1 PUSH1 0x1 PUSH1 0xA0 SHL SUB SWAP3 SWAP1 SWAP3 AND SWAP2 SWAP1 SWAP2 OR SWAP1 SSTORE DUP1 PUSH2 0x508 DUP2 PUSH2 0x3C4D JUMP JUMPDEST SWAP2 POP POP PUSH2 0x476 JUMP JUMPDEST POP PUSH1 0x6 DUP1 SLOAD DUP1 PUSH2 0x522 JUMPI PUSH2 0x522 PUSH2 0x3C97 JUMP JUMPDEST PUSH1 0x0 DUP3 DUP2 MSTORE PUSH1 0x20 SWAP1 KECCAK256 DUP2 ADD PUSH1 0x0 NOT SWAP1 DUP2 ADD DUP1 SLOAD PUSH1 0x1 PUSH1 0x1 PUSH1 0xA0 SHL SUB NOT AND SWAP1 SSTORE ADD SWAP1 SSTORE POP POP POP JUMP JUMPDEST PUSH1 0x5 SLOAD PUSH1 0x1 PUSH1 0x1 PUSH1 0xA0 SHL SUB AND CALLER EQ PUSH2 0x560 JUMPI PUSH1 0x0 DUP1 REVERT JUMPDEST PUSH1 0x7 DUP1 SLOAD PUSH1 0xFF NOT DUP2 AND PUSH1 0xFF SWAP1 SWAP2 AND ISZERO OR SWAP1 SSTORE JUMP JUMPDEST PUSH1 0x5 SLOAD PUSH1 0x60 SWAP1 PUSH1 0x1 PUSH1 0x1 PUSH1 0xA0 SHL SUB AND CALLER EQ PUSH2 0x58E JUMPI PUSH1 0x0 DUP1 REVERT JUMPDEST PUSH1 0x3 SLOAD PUSH1 0x0 SWAP1 PUSH8 0xFFFFFFFFFFFFFFFF DUP2 GT ISZERO PUSH2 0x5AC JUMPI PUSH2 0x5AC PUSH2 0x3A8A JUMP JUMPDEST PUSH1 0x40 MLOAD SWAP1 DUP1 DUP3 MSTORE DUP1 PUSH1 0x20 MUL PUSH1 0x20 ADD DUP3 ADD PUSH1 0x40 MSTORE DUP1 ISZERO PUSH2 0x5E5 JUMPI DUP2 PUSH1 0x20 ADD JUMPDEST PUSH2 0x5D2 PUSH2 0x358F JUMP JUMPDEST DUP2 MSTORE PUSH1 0x20 ADD SWAP1 PUSH1 0x1 SWAP1 SUB SWAP1 DUP2 PUSH2 0x5CA JUMPI SWAP1 POP JUMPDEST POP SWAP1 POP PUSH1 0x0 DUP1 JUMPDEST PUSH1 0x1 SLOAD DUP2 LT ISZERO PUSH2 0x6A3 JUMPI PUSH1 0x0 PUSH2 0x628 PUSH1 0x1 DUP4 DUP2 SLOAD DUP2 LT PUSH2 0x60E JUMPI PUSH2 0x60E PUSH2 0x3C21 JUMP JUMPDEST PUSH1 0x0 SWAP2 DUP3 MSTORE PUSH1 0x20 SWAP1 SWAP2 KECCAK256 ADD SLOAD PUSH1 0x1 PUSH1 0x1 PUSH1 0xA0 SHL SUB AND PUSH2 0x2457 JUMP JUMPDEST SWAP1 POP PUSH1 0x0 JUMPDEST DUP2 MLOAD DUP2 LT ISZERO PUSH2 0x68E JUMPI DUP2 DUP2 DUP2 MLOAD DUP2 LT PUSH2 0x648 JUMPI PUSH2 0x648 PUSH2 0x3C21 JUMP JUMPDEST PUSH1 0x20 MUL PUSH1 0x20 ADD ADD MLOAD DUP6 DUP6 DUP2 MLOAD DUP2 LT PUSH2 0x662 JUMPI PUSH2 0x662 PUSH2 0x3C21 JUMP JUMPDEST PUSH1 0x20 MUL PUSH1 0x20 ADD ADD DUP2 SWAP1 MSTORE POP DUP4 DUP1 PUSH2 0x678 SWAP1 PUSH2 0x3C4D JUMP JUMPDEST SWAP5 POP POP DUP1 DUP1 PUSH2 0x686 SWAP1 PUSH2 0x3C4D JUMP JUMPDEST SWAP2 POP POP PUSH2 0x62D JUMP JUMPDEST POP POP DUP1 DUP1 PUSH2 0x69B SWAP1 PUSH2 0x3C4D JUMP JUMPDEST SWAP2 POP POP PUSH2 0x5EC JUMP JUMPDEST POP SWAP1 SWAP2 POP POP SWAP1 JUMP JUMPDEST PUSH1 0x5 SLOAD PUSH1 0x1 PUSH1 0x1 PUSH1 0xA0 SHL SUB AND CALLER EQ PUSH2 0x6C2 JUMPI PUSH1 0x0 DUP1 REVERT JUMPDEST PUSH1 0x8 SSTORE JUMP JUMPDEST PUSH1 0x0 PUSH2 0xE10 PUSH2 0x6DA PUSH4 0x63236820 DUP5 PUSH2 0x3CAD JUMP JUMPDEST PUSH2 0x6E4 SWAP2 SWAP1 PUSH2 0x3CE9 JUMP JUMPDEST SWAP3 SWAP2 POP POP JUMP JUMPDEST TIMESTAMP DUP4 PUSH5 0xFFFFFFFFFF AND GT PUSH2 0x740 JUMPI PUSH1 0x40 MLOAD PUSH3 0x461BCD PUSH1 0xE5 SHL DUP2 MSTORE PUSH1 0x20 PUSH1 0x4 DUP3 ADD MSTORE PUSH1 0x1F PUSH1 0x24 DUP3 ADD MSTORE PUSH32 0x54696D652064617461206D75737420626520696E207468652066757475726500 PUSH1 0x44 DUP3 ADD MSTORE PUSH1 0x64 ADD PUSH2 0x3B1 JUMP JUMPDEST PUSH2 0x74C PUSH2 0xE10 DUP5 PUSH2 0x3D0D JUMP JUMPDEST PUSH5 0xFFFFFFFFFF AND ISZERO PUSH2 0x79B JUMPI PUSH1 0x40 MLOAD PUSH3 0x461BCD PUSH1 0xE5 SHL DUP2 MSTORE PUSH1 0x20 PUSH1 0x4 DUP3 ADD MSTORE PUSH1 0x18 PUSH1 0x24 DUP3 ADD MSTORE PUSH24 0x2A34B6B29036BAB9BA1031329037B7103A3432903437BAB9 PUSH1 0x41 SHL PUSH1 0x44 DUP3 ADD MSTORE PUSH1 0x64 ADD PUSH2 0x3B1 JUMP JUMPDEST PUSH1 0x1 PUSH1 0x1 PUSH1 0xA0 SHL SUB DUP2 AND PUSH2 0x7E7 JUMPI CALLVALUE PUSH1 0x64 PUSH1 0x8 SLOAD DUP5 PUSH2 0x7BA SWAP2 SWAP1 PUSH2 0x3D31 JUMP JUMPDEST PUSH2 0x7C4 SWAP2 SWAP1 PUSH2 0x3D50 JUMP JUMPDEST GT ISZERO PUSH2 0x7E2 JUMPI PUSH1 0x40 MLOAD PUSH3 0x461BCD PUSH1 0xE5 SHL DUP2 MSTORE PUSH1 0x4 ADD PUSH2 0x3B1 SWAP1 PUSH2 0x3D64 JUMP JUMPDEST PUSH2 0x80C JUMP JUMPDEST PUSH2 0x7F0 DUP2 PUSH2 0x2E66 JUMP JUMPDEST PUSH2 0x80C JUMPI PUSH1 0x40 MLOAD PUSH3 0x461BCD PUSH1 0xE5 SHL DUP2 MSTORE PUSH1 0x4 ADD PUSH2 0x3B1 SWAP1 PUSH2 0x3DA8 JUMP JUMPDEST PUSH1 0x0 PUSH2 0x817 DUP5 PUSH2 0x6C7 JUMP JUMPDEST PUSH5 0xFFFFFFFFFF DUP2 AND PUSH1 0x0 SWAP1 DUP2 MSTORE PUSH1 0x2 PUSH1 0x20 MSTORE PUSH1 0x40 DUP2 KECCAK256 SWAP2 SWAP3 POP PUSH2 0x83D CALLER DUP9 DUP7 DUP7 DUP10 PUSH2 0x2F27 JUMP JUMPDEST DUP3 SLOAD PUSH1 0x1 DUP1 DUP3 ADD DUP6 SSTORE PUSH1 0x0 DUP6 DUP2 MSTORE PUSH1 0x20 SWAP1 DUP2 SWAP1 KECCAK256 DUP5 MLOAD PUSH1 0x5 SWAP1 SWAP5 MUL ADD SWAP3 DUP4 SSTORE DUP4 DUP2 ADD MLOAD SWAP2 DUP4 ADD DUP1 SLOAD PUSH1 0x1 PUSH1 0x1 PUSH1 0xA0 SHL SUB NOT SWAP1 DUP2 AND PUSH1 0x1 PUSH1 0x1 PUSH1 0xA0 SHL SUB SWAP5 DUP6 AND OR SWAP1 SWAP2 SSTORE PUSH1 0x40 DUP1 DUP7 ADD MLOAD PUSH1 0x2 DUP7 ADD DUP1 SLOAD SWAP1 SWAP4 AND SWAP1 DUP6 AND OR SWAP1 SWAP2 SSTORE PUSH1 0x60 DUP1 DUP7 ADD MLOAD PUSH1 0x3 DUP7 ADD DUP1 SLOAD PUSH1 0x80 DUP1 DUP11 ADD MLOAD PUSH1 0xA0 DUP12 ADD MLOAD PUSH1 0xC0 DUP13 ADD MLOAD SWAP6 DUP11 AND PUSH1 0x1 PUSH1 0x1 PUSH1 0xC8 SHL SUB NOT SWAP1 SWAP5 AND SWAP4 SWAP1 SWAP4 OR PUSH1 0x1 PUSH1 0xA0 SHL PUSH5 0xFFFFFFFFFF SWAP3 DUP4 AND MUL OR PUSH2 0xFFFF PUSH1 0xC8 SHL NOT AND PUSH1 0x1 PUSH1 0xC8 SHL SWAP4 ISZERO ISZERO SWAP4 SWAP1 SWAP4 MUL PUSH1 0xFF PUSH1 0xD0 SHL NOT AND SWAP3 SWAP1 SWAP3 OR PUSH1 0x1 PUSH1 0xD0 SHL SWAP5 ISZERO ISZERO SWAP5 SWAP1 SWAP5 MUL SWAP4 SWAP1 SWAP4 OR SWAP1 SWAP2 SSTORE PUSH1 0xE0 DUP9 ADD MLOAD PUSH1 0x4 SWAP1 SWAP8 ADD SWAP7 SWAP1 SWAP7 SSTORE DUP3 MLOAD CALLER DUP2 MSTORE SWAP5 DUP15 AND SWAP4 DUP6 ADD SWAP4 SWAP1 SWAP4 MSTORE SWAP4 DUP9 AND SWAP1 DUP4 ADD MSTORE SWAP2 DUP2 ADD DUP9 SWAP1 MSTORE SWAP2 SWAP3 POP PUSH32 0x6E643CB89831CD75DED50B4ECEE0E313701B6002FC48E8B80A3C05447AB066E8 SWAP2 ADD PUSH1 0x40 MLOAD DUP1 SWAP2 SUB SWAP1 LOG1 PUSH32 0x2844C95BF1B4598DA931D527F903501ABC60FE0199C65DA52D5CE818C6C5E961 PUSH1 0x40 MLOAD PUSH2 0x9A7 SWAP1 PUSH1 0x20 DUP1 DUP3 MSTORE PUSH1 0x6 SWAP1 DUP3 ADD MSTORE PUSH6 0x141D5CDA1959 PUSH1 0xD2 SHL PUSH1 0x40 DUP3 ADD MSTORE PUSH1 0x60 ADD SWAP1 JUMP JUMPDEST PUSH1 0x40 MLOAD DUP1 SWAP2 SUB SWAP1 LOG1 DUP1 MLOAD PUSH1 0x3 DUP1 SLOAD PUSH1 0x1 DUP2 ADD SWAP1 SWAP2 SSTORE PUSH32 0xC2575A0E9E593C00F959F8C92F12DB2869C3395A3B0502D05E2516446F71F85B ADD SSTORE PUSH5 0xFFFFFFFFFF DUP4 AND PUSH1 0x0 SWAP1 DUP2 MSTORE PUSH1 0x2 PUSH1 0x20 MSTORE PUSH1 0x40 SWAP1 KECCAK256 DUP3 SLOAD PUSH2 0xA03 SWAP2 SWAP1 DUP5 SWAP1 PUSH2 0x35D3 JUMP JUMPDEST POP CALLER PUSH1 0x0 SWAP1 DUP2 MSTORE PUSH1 0x20 DUP2 DUP2 MSTORE PUSH1 0x40 DUP1 DUP4 KECCAK256 PUSH1 0x1 DUP2 ADD DUP1 SLOAD DUP4 MLOAD DUP2 DUP7 MUL DUP2 ADD DUP7 ADD SWAP1 SWAP5 MSTORE DUP1 DUP5 MSTORE SWAP2 SWAP5 SWAP4 DUP5 SWAP4 DUP5 SWAP4 SWAP1 SWAP3 SWAP2 DUP4 ADD DUP3 DUP3 DUP1 ISZERO PUSH2 0xA90 JUMPI PUSH1 0x20 MUL DUP3 ADD SWAP2 SWAP1 PUSH1 0x0 MSTORE PUSH1 0x20 PUSH1 0x0 KECCAK256 SWAP1 PUSH1 0x0 SWAP1 JUMPDEST DUP3 DUP3 SWAP1 SLOAD SWAP1 PUSH2 0x100 EXP SWAP1 DIV PUSH5 0xFFFFFFFFFF AND PUSH5 0xFFFFFFFFFF AND DUP2 MSTORE PUSH1 0x20 ADD SWAP1 PUSH1 0x5 ADD SWAP1 PUSH1 0x20 DUP3 PUSH1 0x4 ADD DIV SWAP3 DUP4 ADD SWAP3 PUSH1 0x1 SUB DUP3 MUL SWAP2 POP DUP1 DUP5 GT PUSH2 0xA51 JUMPI SWAP1 POP JUMPDEST POP POP POP POP POP SWAP1 POP PUSH1 0x0 DUP5 PUSH1 0x2 ADD DUP1 SLOAD DUP1 PUSH1 0x20 MUL PUSH1 0x20 ADD PUSH1 0x40 MLOAD SWAP1 DUP2 ADD PUSH1 0x40 MSTORE DUP1 SWAP3 SWAP2 SWAP1 DUP2 DUP2 MSTORE PUSH1 0x20 ADD DUP3 DUP1 SLOAD DUP1 ISZERO PUSH2 0xAF1 JUMPI PUSH1 0x20 MUL DUP3 ADD SWAP2 SWAP1 PUSH1 0x0 MSTORE PUSH1 0x20 PUSH1 0x0 KECCAK256 SWAP1 JUMPDEST DUP2 SLOAD PUSH1 0x1 PUSH1 0x1 PUSH1 0xA0 SHL SUB AND DUP2 MSTORE PUSH1 0x1 SWAP1 SWAP2 ADD SWAP1 PUSH1 0x20 ADD DUP1 DUP4 GT PUSH2 0xAD3 JUMPI JUMPDEST POP POP POP POP POP SWAP1 POP PUSH1 0x0 JUMPDEST DUP3 MLOAD DUP2 LT ISZERO PUSH2 0xB4E JUMPI DUP9 PUSH5 0xFFFFFFFFFF AND DUP4 DUP3 DUP2 MLOAD DUP2 LT PUSH2 0xB1E JUMPI PUSH2 0xB1E PUSH2 0x3C21 JUMP JUMPDEST PUSH1 0x20 MUL PUSH1 0x20 ADD ADD MLOAD PUSH5 0xFFFFFFFFFF AND EQ ISZERO PUSH2 0xB3C JUMPI PUSH1 0x1 SWAP5 POP PUSH2 0xB4E JUMP JUMPDEST DUP1 PUSH2 0xB46 DUP2 PUSH2 0x3C4D JUMP JUMPDEST SWAP2 POP POP PUSH2 0xAFB JUMP JUMPDEST POP DUP4 PUSH2 0xB9F JUMPI DUP8 DUP6 PUSH1 0x1 ADD PUSH1 0x1 DUP2 PUSH1 0x1 DUP2 SLOAD ADD DUP1 DUP3 SSTORE DUP1 SWAP2 POP POP SUB SWAP1 PUSH1 0x0 MSTORE PUSH1 0x20 PUSH1 0x0 KECCAK256 SWAP1 PUSH1 0x6 SWAP2 DUP3 DUP3 DIV ADD SWAP2 SWAP1 MOD PUSH1 0x5 MUL PUSH2 0x100 EXP DUP2 SLOAD DUP2 PUSH5 0xFFFFFFFFFF MUL NOT AND SWAP1 DUP4 PUSH5 0xFFFFFFFFFF AND MUL OR SWAP1 SSTORE POP JUMPDEST PUSH1 0x0 JUMPDEST DUP2 MLOAD DUP2 LT ISZERO PUSH2 0xBF9 JUMPI DUP10 PUSH1 0x1 PUSH1 0x1 PUSH1 0xA0 SHL SUB AND DUP3 DUP3 DUP2 MLOAD DUP2 LT PUSH2 0xBC7 JUMPI PUSH2 0xBC7 PUSH2 0x3C21 JUMP JUMPDEST PUSH1 0x20 MUL PUSH1 0x20 ADD ADD MLOAD PUSH1 0x1 PUSH1 0x1 PUSH1 0xA0 SHL SUB AND EQ ISZERO PUSH2 0xBE7 JUMPI PUSH1 0x1 SWAP4 POP PUSH2 0xBF9 JUMP JUMPDEST DUP1 PUSH2 0xBF1 DUP2 PUSH2 0x3C4D JUMP JUMPDEST SWAP2 POP POP PUSH2 0xBA2 JUMP JUMPDEST POP DUP3 PUSH2 0xC30 JUMPI PUSH1 0x2 DUP6 ADD DUP1 SLOAD PUSH1 0x1 DUP2 ADD DUP3 SSTORE PUSH1 0x0 SWAP2 DUP3 MSTORE PUSH1 0x20 SWAP1 SWAP2 KECCAK256 ADD DUP1 SLOAD PUSH1 0x1 PUSH1 0x1 PUSH1 0xA0 SHL SUB NOT AND PUSH1 0x1 PUSH1 0x1 PUSH1 0xA0 SHL SUB DUP12 AND OR SWAP1 SSTORE JUMPDEST CALLER PUSH1 0x0 SWAP1 DUP2 MSTORE PUSH1 0x20 DUP2 SWAP1 MSTORE PUSH1 0x40 SWAP1 KECCAK256 SLOAD PUSH1 0x1 PUSH1 0xA0 SHL SWAP1 DIV PUSH1 0xFF AND PUSH2 0xCAD JUMPI DUP5 SLOAD PUSH1 0x1 PUSH1 0x1 PUSH1 0xA0 SHL SUB NOT SWAP1 DUP2 AND CALLER SWAP1 DUP2 OR DUP8 SSTORE PUSH1 0x1 DUP1 SLOAD DUP1 DUP3 ADD DUP3 SSTORE PUSH1 0x0 SWAP2 SWAP1 SWAP2 MSTORE PUSH32 0xB10E2D527612073B26EECDFD717E6A320CF44B4AFAC2B0732D9FCBE2B7FA0CF6 ADD DUP1 SLOAD SWAP1 SWAP3 AND OR SWAP1 SSTORE DUP5 SLOAD PUSH1 0xFF PUSH1 0xA0 SHL NOT AND PUSH1 0x1 PUSH1 0xA0 SHL OR DUP6 SSTORE JUMPDEST CALLER PUSH1 0x0 SWAP1 DUP2 MSTORE PUSH1 0x20 DUP2 SWAP1 MSTORE PUSH1 0x40 SWAP1 KECCAK256 DUP6 SLOAD DUP2 SLOAD PUSH1 0x1 PUSH1 0x1 PUSH1 0xA0 SHL SUB SWAP1 SWAP2 AND PUSH1 0x1 PUSH1 0x1 PUSH1 0xA0 SHL SUB NOT DUP3 AND DUP2 OR DUP4 SSTORE DUP8 SLOAD PUSH1 0x1 PUSH1 0x1 PUSH1 0xA8 SHL SUB NOT SWAP1 SWAP3 AND OR PUSH1 0x1 PUSH1 0xA0 SHL SWAP2 DUP3 SWAP1 DIV PUSH1 0xFF AND ISZERO ISZERO SWAP1 SWAP2 MUL OR DUP2 SSTORE PUSH1 0x1 DUP1 DUP8 ADD DUP1 SLOAD DUP9 SWAP4 SWAP3 PUSH2 0xD14 SWAP3 SWAP1 DUP5 ADD SWAP2 PUSH2 0x36F8 JUMP JUMPDEST POP PUSH1 0x2 DUP3 DUP2 ADD DUP1 SLOAD PUSH2 0xD29 SWAP3 DUP5 ADD SWAP2 SWAP1 PUSH2 0x3752 JUMP JUMPDEST POP POP CALLER PUSH1 0x0 SWAP1 DUP2 MSTORE PUSH1 0x4 PUSH1 0x20 SWAP1 DUP2 MSTORE PUSH1 0x40 DUP1 DUP4 KECCAK256 PUSH1 0x1 PUSH1 0x1 PUSH1 0xA0 SHL SUB DUP15 AND DUP5 MSTORE SWAP1 SWAP2 MSTORE DUP2 KECCAK256 DUP1 SLOAD DUP14 SWAP4 POP SWAP1 SWAP2 SWAP1 PUSH2 0xD61 SWAP1 DUP5 SWAP1 PUSH2 0x3C7F JUMP JUMPDEST SWAP1 SWAP2 SSTORE POP POP PUSH1 0x1 PUSH1 0x1 PUSH1 0xA0 SHL SUB DUP10 AND ISZERO PUSH2 0xE47 JUMPI PUSH1 0x40 MLOAD PUSH4 0x23B872DD PUSH1 0xE0 SHL DUP2 MSTORE CALLER PUSH1 0x4 DUP3 ADD MSTORE ADDRESS PUSH1 0x24 DUP3 ADD MSTORE PUSH1 0x44 DUP2 ADD DUP12 SWAP1 MSTORE PUSH1 0x1 PUSH1 0x1 PUSH1 0xA0 SHL SUB DUP11 AND SWAP1 PUSH4 0x23B872DD SWAP1 PUSH1 0x64 ADD PUSH1 0x20 PUSH1 0x40 MLOAD DUP1 DUP4 SUB DUP2 PUSH1 0x0 DUP8 DUP1 EXTCODESIZE ISZERO DUP1 ISZERO PUSH2 0xDC3 JUMPI PUSH1 0x0 DUP1 REVERT JUMPDEST POP GAS CALL ISZERO DUP1 ISZERO PUSH2 0xDD7 JUMPI RETURNDATASIZE PUSH1 0x0 DUP1 RETURNDATACOPY RETURNDATASIZE PUSH1 0x0 REVERT JUMPDEST POP POP POP POP PUSH1 0x40 MLOAD RETURNDATASIZE PUSH1 0x1F NOT PUSH1 0x1F DUP3 ADD AND DUP3 ADD DUP1 PUSH1 0x40 MSTORE POP DUP2 ADD SWAP1 PUSH2 0xDFB SWAP2 SWAP1 PUSH2 0x3DED JUMP JUMPDEST PUSH2 0xE47 JUMPI PUSH1 0x40 MLOAD PUSH3 0x461BCD PUSH1 0xE5 SHL DUP2 MSTORE PUSH1 0x20 PUSH1 0x4 DUP3 ADD MSTORE PUSH1 0x1A PUSH1 0x24 DUP3 ADD MSTORE PUSH32 0x50726F626C656D207472616E7366657272696E6720746F6B656E000000000000 PUSH1 0x44 DUP3 ADD MSTORE PUSH1 0x64 ADD PUSH2 0x3B1 JUMP JUMPDEST POP POP POP POP POP POP POP POP POP POP POP POP JUMP JUMPDEST PUSH1 0x5 SLOAD PUSH1 0x1 PUSH1 0x1 PUSH1 0xA0 SHL SUB AND CALLER EQ PUSH2 0xE6C JUMPI PUSH1 0x0 DUP1 REVERT JUMPDEST CALLER PUSH1 0x1 PUSH1 0x1 PUSH1 0xA0 SHL SUB DUP3 AND EQ DUP1 ISZERO PUSH2 0xE8C JUMPI POP PUSH1 0x1 PUSH1 0x1 PUSH1 0xA0 SHL SUB DUP2 AND ISZERO ISZERO JUMPDEST PUSH2 0xE95 JUMPI PUSH1 0x0 DUP1 REVERT JUMPDEST PUSH1 0x5 DUP1 SLOAD PUSH1 0x1 PUSH1 0x1 PUSH1 0xA0 SHL SUB NOT AND PUSH1 0x1 PUSH1 0x1 PUSH1 0xA0 SHL SUB SWAP3 SWAP1 SWAP3 AND SWAP2 SWAP1 SWAP2 OR SWAP1 SSTORE JUMP JUMPDEST PUSH1 0x5 SLOAD PUSH1 0x1 PUSH1 0x1 PUSH1 0xA0 SHL SUB AND CALLER EQ PUSH2 0xECE JUMPI PUSH1 0x0 DUP1 REVERT JUMPDEST PUSH1 0x1 PUSH1 0x1 PUSH1 0xA0 SHL SUB DUP2 AND PUSH2 0xEE1 JUMPI PUSH1 0x0 DUP1 REVERT JUMPDEST PUSH2 0xEEA DUP2 PUSH2 0x2E66 JUMP JUMPDEST ISZERO PUSH2 0xF37 JUMPI PUSH1 0x40 MLOAD PUSH3 0x461BCD PUSH1 0xE5 SHL DUP2 MSTORE PUSH1 0x20 PUSH1 0x4 DUP3 ADD MSTORE PUSH1 0x19 PUSH1 0x24 DUP3 ADD MSTORE PUSH32 0x455243323020746F6B656E20616C726561647920616464656400000000000000 PUSH1 0x44 DUP3 ADD MSTORE PUSH1 0x64 ADD PUSH2 0x3B1 JUMP JUMPDEST PUSH1 0x6 DUP1 SLOAD PUSH1 0x1 DUP2 ADD DUP3 SSTORE PUSH1 0x0 SWAP2 SWAP1 SWAP2 MSTORE PUSH32 0xF652222313E28459528D920B65115C16C04F3EFC82AAEDC97BE59F3F377C0D3F ADD DUP1 SLOAD PUSH1 0x1 PUSH1 0x1 PUSH1 0xA0 SHL SUB NOT AND PUSH1 0x1 PUSH1 0x1 PUSH1 0xA0 SHL SUB SWAP3 SWAP1 SWAP3 AND SWAP2 SWAP1 SWAP2 OR SWAP1 SSTORE JUMP JUMPDEST CALLER PUSH1 0x0 SWAP1 DUP2 MSTORE PUSH1 0x20 DUP2 DUP2 MSTORE PUSH1 0x40 DUP1 DUP4 KECCAK256 PUSH1 0x1 ADD DUP1 SLOAD DUP3 MLOAD DUP2 DUP6 MUL DUP2 ADD DUP6 ADD SWAP1 SWAP4 MSTORE DUP1 DUP4 MSTORE PUSH1 0x60 SWAP5 SWAP4 DUP4 ADD DUP3 DUP3 DUP1 ISZERO PUSH2 0x100E JUMPI PUSH1 0x20 MUL DUP3 ADD SWAP2 SWAP1 PUSH1 0x0 MSTORE PUSH1 0x20 PUSH1 0x0 KECCAK256 SWAP1 PUSH1 0x0 SWAP1 JUMPDEST DUP3 DUP3 SWAP1 SLOAD SWAP1 PUSH2 0x100 EXP SWAP1 DIV PUSH5 0xFFFFFFFFFF AND PUSH5 0xFFFFFFFFFF AND DUP2 MSTORE PUSH1 0x20 ADD SWAP1 PUSH1 0x5 ADD SWAP1 PUSH1 0x20 DUP3 PUSH1 0x4 ADD DIV SWAP3 DUP4 ADD SWAP3 PUSH1 0x1 SUB DUP3 MUL SWAP2 POP DUP1 DUP5 GT PUSH2 0xFCF JUMPI SWAP1 POP JUMPDEST POP POP POP POP POP SWAP1 POP PUSH1 0x0 DUP1 JUMPDEST DUP3 MLOAD DUP2 LT ISZERO PUSH2 0x114D JUMPI PUSH1 0x0 PUSH1 0x2 PUSH1 0x0 DUP6 DUP5 DUP2 MLOAD DUP2 LT PUSH2 0x103A JUMPI PUSH2 0x103A PUSH2 0x3C21 JUMP JUMPDEST PUSH1 0x20 MUL PUSH1 0x20 ADD ADD MLOAD PUSH5 0xFFFFFFFFFF AND PUSH5 0xFFFFFFFFFF AND DUP2 MSTORE PUSH1 0x20 ADD SWAP1 DUP2 MSTORE PUSH1 0x20 ADD PUSH1 0x0 KECCAK256 DUP1 SLOAD DUP1 PUSH1 0x20 MUL PUSH1 0x20 ADD PUSH1 0x40 MLOAD SWAP1 DUP2 ADD PUSH1 0x40 MSTORE DUP1 SWAP3 SWAP2 SWAP1 DUP2 DUP2 MSTORE PUSH1 0x20 ADD PUSH1 0x0 SWAP1 JUMPDEST DUP3 DUP3 LT ISZERO PUSH2 0x1124 JUMPI PUSH1 0x0 DUP5 DUP2 MSTORE PUSH1 0x20 SWAP1 DUP2 SWAP1 KECCAK256 PUSH1 0x40 DUP1 MLOAD PUSH2 0x100 DUP2 ADD DUP3 MSTORE PUSH1 0x5 DUP7 MUL SWAP1 SWAP3 ADD DUP1 SLOAD DUP4 MSTORE PUSH1 0x1 DUP1 DUP3 ADD SLOAD PUSH1 0x1 PUSH1 0x1 PUSH1 0xA0 SHL SUB SWAP1 DUP2 AND DUP6 DUP8 ADD MSTORE PUSH1 0x2 DUP4 ADD SLOAD DUP2 AND SWAP4 DUP6 ADD SWAP4 SWAP1 SWAP4 MSTORE PUSH1 0x3 DUP3 ADD SLOAD SWAP3 DUP4 AND PUSH1 0x60 DUP6 ADD MSTORE PUSH5 0xFFFFFFFFFF PUSH1 0x1 PUSH1 0xA0 SHL DUP5 DIV AND PUSH1 0x80 DUP6 ADD MSTORE PUSH1 0xFF PUSH1 0x1 PUSH1 0xC8 SHL DUP5 DIV DUP2 AND ISZERO ISZERO PUSH1 0xA0 DUP7 ADD MSTORE PUSH1 0x1 PUSH1 0xD0 SHL SWAP1 SWAP4 DIV SWAP1 SWAP3 AND ISZERO ISZERO PUSH1 0xC0 DUP5 ADD MSTORE PUSH1 0x4 ADD SLOAD PUSH1 0xE0 DUP4 ADD MSTORE SWAP1 DUP4 MSTORE SWAP1 SWAP3 ADD SWAP2 ADD PUSH2 0x107E JUMP JUMPDEST POP POP POP POP SWAP1 POP DUP1 MLOAD DUP4 PUSH2 0x1137 SWAP2 SWAP1 PUSH2 0x3C7F JUMP JUMPDEST SWAP3 POP POP DUP1 DUP1 PUSH2 0x1145 SWAP1 PUSH2 0x3C4D JUMP JUMPDEST SWAP2 POP POP PUSH2 0x1019 JUMP JUMPDEST POP PUSH1 0x0 DUP2 PUSH8 0xFFFFFFFFFFFFFFFF DUP2 GT ISZERO PUSH2 0x1169 JUMPI PUSH2 0x1169 PUSH2 0x3A8A JUMP JUMPDEST PUSH1 0x40 MLOAD SWAP1 DUP1 DUP3 MSTORE DUP1 PUSH1 0x20 MUL PUSH1 0x20 ADD DUP3 ADD PUSH1 0x40 MSTORE DUP1 ISZERO PUSH2 0x11A2 JUMPI DUP2 PUSH1 0x20 ADD JUMPDEST PUSH2 0x118F PUSH2 0x358F JUMP JUMPDEST DUP2 MSTORE PUSH1 0x20 ADD SWAP1 PUSH1 0x1 SWAP1 SUB SWAP1 DUP2 PUSH2 0x1187 JUMPI SWAP1 POP JUMPDEST POP SWAP1 POP PUSH1 0x0 DUP3 PUSH8 0xFFFFFFFFFFFFFFFF DUP2 GT ISZERO PUSH2 0x11C0 JUMPI PUSH2 0x11C0 PUSH2 0x3A8A JUMP JUMPDEST PUSH1 0x40 MLOAD SWAP1 DUP1 DUP3 MSTORE DUP1 PUSH1 0x20 MUL PUSH1 0x20 ADD DUP3 ADD PUSH1 0x40 MSTORE DUP1 ISZERO PUSH2 0x11F9 JUMPI DUP2 PUSH1 0x20 ADD JUMPDEST PUSH2 0x11E6 PUSH2 0x358F JUMP JUMPDEST DUP2 MSTORE PUSH1 0x20 ADD SWAP1 PUSH1 0x1 SWAP1 SUB SWAP1 DUP2 PUSH2 0x11DE JUMPI SWAP1 POP JUMPDEST POP SWAP1 POP PUSH1 0x0 DUP1 JUMPDEST DUP6 MLOAD DUP2 LT ISZERO PUSH2 0x13BD JUMPI PUSH1 0x2 PUSH1 0x0 DUP8 DUP4 DUP2 MLOAD DUP2 LT PUSH2 0x121F JUMPI PUSH2 0x121F PUSH2 0x3C21 JUMP JUMPDEST PUSH1 0x20 MUL PUSH1 0x20 ADD ADD MLOAD PUSH5 0xFFFFFFFFFF AND PUSH5 0xFFFFFFFFFF AND DUP2 MSTORE PUSH1 0x20 ADD SWAP1 DUP2 MSTORE PUSH1 0x20 ADD PUSH1 0x0 KECCAK256 DUP1 SLOAD DUP1 PUSH1 0x20 MUL PUSH1 0x20 ADD PUSH1 0x40 MLOAD SWAP1 DUP2 ADD PUSH1 0x40 MSTORE DUP1 SWAP3 SWAP2 SWAP1 DUP2 DUP2 MSTORE PUSH1 0x20 ADD PUSH1 0x0 SWAP1 JUMPDEST DUP3 DUP3 LT ISZERO PUSH2 0x1309 JUMPI PUSH1 0x0 DUP5 DUP2 MSTORE PUSH1 0x20 SWAP1 DUP2 SWAP1 KECCAK256 PUSH1 0x40 DUP1 MLOAD PUSH2 0x100 DUP2 ADD DUP3 MSTORE PUSH1 0x5 DUP7 MUL SWAP1 SWAP3 ADD DUP1 SLOAD DUP4 MSTORE PUSH1 0x1 DUP1 DUP3 ADD SLOAD PUSH1 0x1 PUSH1 0x1 PUSH1 0xA0 SHL SUB SWAP1 DUP2 AND DUP6 DUP8 ADD MSTORE PUSH1 0x2 DUP4 ADD SLOAD DUP2 AND SWAP4 DUP6 ADD SWAP4 SWAP1 SWAP4 MSTORE PUSH1 0x3 DUP3 ADD SLOAD SWAP3 DUP4 AND PUSH1 0x60 DUP6 ADD MSTORE PUSH5 0xFFFFFFFFFF PUSH1 0x1 PUSH1 0xA0 SHL DUP5 DIV AND PUSH1 0x80 DUP6 ADD MSTORE PUSH1 0xFF PUSH1 0x1 PUSH1 0xC8 SHL DUP5 DIV DUP2 AND ISZERO ISZERO PUSH1 0xA0 DUP7 ADD MSTORE PUSH1 0x1 PUSH1 0xD0 SHL SWAP1 SWAP4 DIV SWAP1 SWAP3 AND ISZERO ISZERO PUSH1 0xC0 DUP5 ADD MSTORE PUSH1 0x4 ADD SLOAD PUSH1 0xE0 DUP4 ADD MSTORE SWAP1 DUP4 MSTORE SWAP1 SWAP3 ADD SWAP2 ADD PUSH2 0x1263 JUMP JUMPDEST POP POP POP POP SWAP4 POP PUSH1 0x0 JUMPDEST DUP5 MLOAD DUP2 LT ISZERO PUSH2 0x13AA JUMPI CALLER PUSH1 0x1 PUSH1 0x1 PUSH1 0xA0 SHL SUB AND DUP6 DUP3 DUP2 MLOAD DUP2 LT PUSH2 0x1337 JUMPI PUSH2 0x1337 PUSH2 0x3C21 JUMP JUMPDEST PUSH1 0x20 MUL PUSH1 0x20 ADD ADD MLOAD PUSH1 0x20 ADD MLOAD PUSH1 0x1 PUSH1 0x1 PUSH1 0xA0 SHL SUB AND EQ ISZERO PUSH2 0x1398 JUMPI DUP5 DUP2 DUP2 MLOAD DUP2 LT PUSH2 0x1364 JUMPI PUSH2 0x1364 PUSH2 0x3C21 JUMP JUMPDEST PUSH1 0x20 MUL PUSH1 0x20 ADD ADD MLOAD DUP5 DUP5 DUP2 MLOAD DUP2 LT PUSH2 0x137E JUMPI PUSH2 0x137E PUSH2 0x3C21 JUMP JUMPDEST PUSH1 0x20 MUL PUSH1 0x20 ADD ADD DUP2 SWAP1 MSTORE POP DUP3 DUP1 PUSH2 0x1394 SWAP1 PUSH2 0x3C4D JUMP JUMPDEST SWAP4 POP POP JUMPDEST DUP1 PUSH2 0x13A2 DUP2 PUSH2 0x3C4D JUMP JUMPDEST SWAP2 POP POP PUSH2 0x1312 JUMP JUMPDEST POP DUP1 PUSH2 0x13B5 DUP2 PUSH2 0x3C4D JUMP JUMPDEST SWAP2 POP POP PUSH2 0x1200 JUMP JUMPDEST POP PUSH1 0x0 JUMPDEST DUP3 MLOAD DUP2 LT ISZERO PUSH2 0x142E JUMPI PUSH2 0x13F0 DUP4 DUP3 DUP2 MLOAD DUP2 LT PUSH2 0x13DF JUMPI PUSH2 0x13DF PUSH2 0x3C21 JUMP JUMPDEST PUSH1 0x20 MUL PUSH1 0x20 ADD ADD MLOAD PUSH1 0x80 ADD MLOAD PUSH2 0x2FD7 JUMP JUMPDEST DUP4 DUP3 DUP2 MLOAD DUP2 LT PUSH2 0x1402 JUMPI PUSH2 0x1402 PUSH2 0x3C21 JUMP JUMPDEST PUSH1 0x20 SWAP1 DUP2 MUL SWAP2 SWAP1 SWAP2 ADD ADD MLOAD PUSH5 0xFFFFFFFFFF SWAP1 SWAP2 AND PUSH1 0x80 SWAP1 SWAP2 ADD MSTORE DUP1 PUSH2 0x1426 DUP2 PUSH2 0x3C4D JUMP JUMPDEST SWAP2 POP POP PUSH2 0x13C1 JUMP JUMPDEST POP SWAP1 SWAP6 SWAP5 POP POP POP POP POP JUMP JUMPDEST PUSH1 0x5 SLOAD PUSH1 0x60 SWAP1 PUSH1 0x1 PUSH1 0x1 PUSH1 0xA0 SHL SUB AND CALLER EQ PUSH2 0x1453 JUMPI PUSH1 0x0 DUP1 REVERT JUMPDEST PUSH1 0x1 SLOAD PUSH1 0x0 SWAP1 PUSH8 0xFFFFFFFFFFFFFFFF DUP2 GT ISZERO PUSH2 0x1471 JUMPI PUSH2 0x1471 PUSH2 0x3A8A JUMP JUMPDEST PUSH1 0x40 MLOAD SWAP1 DUP1 DUP3 MSTORE DUP1 PUSH1 0x20 MUL PUSH1 0x20 ADD DUP3 ADD PUSH1 0x40 MSTORE DUP1 ISZERO PUSH2 0x14C5 JUMPI DUP2 PUSH1 0x20 ADD JUMPDEST PUSH1 0x40 DUP1 MLOAD PUSH1 0x80 DUP2 ADD DUP3 MSTORE PUSH1 0x0 DUP1 DUP3 MSTORE PUSH1 0x20 DUP3 ADD MSTORE PUSH1 0x60 SWAP2 DUP2 ADD DUP3 SWAP1 MSTORE DUP2 DUP2 ADD SWAP2 SWAP1 SWAP2 MSTORE DUP2 MSTORE PUSH1 0x20 ADD SWAP1 PUSH1 0x1 SWAP1 SUB SWAP1 DUP2 PUSH2 0x148F JUMPI SWAP1 POP JUMPDEST POP SWAP1 POP PUSH1 0x0 JUMPDEST PUSH1 0x1 SLOAD DUP2 LT ISZERO PUSH2 0x1647 JUMPI PUSH1 0x0 DUP1 PUSH1 0x1 DUP4 DUP2 SLOAD DUP2 LT PUSH2 0x14EB JUMPI PUSH2 0x14EB PUSH2 0x3C21 JUMP JUMPDEST PUSH1 0x0 SWAP2 DUP3 MSTORE PUSH1 0x20 DUP1 DUP4 KECCAK256 SWAP2 SWAP1 SWAP2 ADD SLOAD PUSH1 0x1 PUSH1 0x1 PUSH1 0xA0 SHL SUB SWAP1 DUP2 AND DUP5 MSTORE DUP4 DUP3 ADD SWAP5 SWAP1 SWAP5 MSTORE PUSH1 0x40 SWAP3 DUP4 ADD SWAP1 SWAP2 KECCAK256 DUP3 MLOAD PUSH1 0x80 DUP2 ADD DUP5 MSTORE DUP2 SLOAD SWAP5 DUP6 AND DUP2 MSTORE PUSH1 0x1 PUSH1 0xA0 SHL SWAP1 SWAP5 DIV PUSH1 0xFF AND ISZERO ISZERO DUP5 DUP4 ADD MSTORE PUSH1 0x1 DUP2 ADD DUP1 SLOAD DUP5 MLOAD DUP2 DUP6 MUL DUP2 ADD DUP6 ADD DUP7 MSTORE DUP2 DUP2 MSTORE SWAP3 SWAP5 DUP7 ADD SWAP4 DUP4 ADD DUP3 DUP3 DUP1 ISZERO PUSH2 0x15AC JUMPI PUSH1 0x20 MUL DUP3 ADD SWAP2 SWAP1 PUSH1 0x0 MSTORE PUSH1 0x20 PUSH1 0x0 KECCAK256 SWAP1 PUSH1 0x0 SWAP1 JUMPDEST DUP3 DUP3 SWAP1 SLOAD SWAP1 PUSH2 0x100 EXP SWAP1 DIV PUSH5 0xFFFFFFFFFF AND PUSH5 0xFFFFFFFFFF AND DUP2 MSTORE PUSH1 0x20 ADD SWAP1 PUSH1 0x5 ADD SWAP1 PUSH1 0x20 DUP3 PUSH1 0x4 ADD DIV SWAP3 DUP4 ADD SWAP3 PUSH1 0x1 SUB DUP3 MUL SWAP2 POP DUP1 DUP5 GT PUSH2 0x156D JUMPI SWAP1 POP JUMPDEST POP POP POP POP POP DUP2 MSTORE PUSH1 0x20 ADD PUSH1 0x2 DUP3 ADD DUP1 SLOAD DUP1 PUSH1 0x20 MUL PUSH1 0x20 ADD PUSH1 0x40 MLOAD SWAP1 DUP2 ADD PUSH1 0x40 MSTORE DUP1 SWAP3 SWAP2 SWAP1 DUP2 DUP2 MSTORE PUSH1 0x20 ADD DUP3 DUP1 SLOAD DUP1 ISZERO PUSH2 0x160E JUMPI PUSH1 0x20 MUL DUP3 ADD SWAP2 SWAP1 PUSH1 0x0 MSTORE PUSH1 0x20 PUSH1 0x0 KECCAK256 SWAP1 JUMPDEST DUP2 SLOAD PUSH1 0x1 PUSH1 0x1 PUSH1 0xA0 SHL SUB AND DUP2 MSTORE PUSH1 0x1 SWAP1 SWAP2 ADD SWAP1 PUSH1 0x20 ADD DUP1 DUP4 GT PUSH2 0x15F0 JUMPI JUMPDEST POP POP POP POP POP DUP2 MSTORE POP POP DUP3 DUP3 DUP2 MLOAD DUP2 LT PUSH2 0x1629 JUMPI PUSH2 0x1629 PUSH2 0x3C21 JUMP JUMPDEST PUSH1 0x20 MUL PUSH1 0x20 ADD ADD DUP2 SWAP1 MSTORE POP DUP1 DUP1 PUSH2 0x163F SWAP1 PUSH2 0x3C4D JUMP JUMPDEST SWAP2 POP POP PUSH2 0x14CB JUMP JUMPDEST POP SWAP1 POP SWAP1 JUMP JUMPDEST PUSH1 0x1 DUP2 MLOAD GT DUP1 ISZERO PUSH2 0x165F JUMPI POP PUSH1 0x64 DUP2 MLOAD LT JUMPDEST PUSH2 0x16D1 JUMPI PUSH1 0x40 MLOAD PUSH3 0x461BCD PUSH1 0xE5 SHL DUP2 MSTORE PUSH1 0x20 PUSH1 0x4 DUP3 ADD MSTORE PUSH1 0x3B PUSH1 0x24 DUP3 ADD MSTORE PUSH32 0x4261746368206D7573742068617665206D6F7265207468616E206F6E65207472 PUSH1 0x44 DUP3 ADD MSTORE PUSH32 0x616E73616374696F6E20616E64206C657373207468616E203130300000000000 PUSH1 0x64 DUP3 ADD MSTORE PUSH1 0x84 ADD PUSH2 0x3B1 JUMP JUMPDEST PUSH2 0x1718 PUSH1 0x40 MLOAD DUP1 PUSH1 0xE0 ADD PUSH1 0x40 MSTORE DUP1 PUSH1 0x0 DUP2 MSTORE PUSH1 0x20 ADD PUSH1 0x60 DUP2 MSTORE PUSH1 0x20 ADD PUSH1 0x60 DUP2 MSTORE PUSH1 0x20 ADD PUSH1 0x60 DUP2 MSTORE PUSH1 0x20 ADD PUSH1 0x0 PUSH5 0xFFFFFFFFFF AND DUP2 MSTORE PUSH1 0x20 ADD PUSH1 0x0 DUP2 MSTORE PUSH1 0x20 ADD PUSH1 0x0 DUP2 MSTORE POP SWAP1 JUMP JUMPDEST PUSH1 0x0 DUP1 DUP3 MSTORE CALLER DUP2 MSTORE PUSH1 0x20 DUP2 DUP2 MSTORE PUSH1 0x40 SWAP2 DUP3 SWAP1 KECCAK256 PUSH1 0x1 DUP2 ADD DUP1 SLOAD DUP5 MLOAD DUP2 DUP6 MUL DUP2 ADD DUP6 ADD SWAP1 SWAP6 MSTORE DUP1 DUP6 MSTORE SWAP2 SWAP4 SWAP3 SWAP1 SWAP2 SWAP1 DUP4 ADD DUP3 DUP3 DUP1 ISZERO PUSH2 0x17A3 JUMPI PUSH1 0x20 MUL DUP3 ADD SWAP2 SWAP1 PUSH1 0x0 MSTORE PUSH1 0x20 PUSH1 0x0 KECCAK256 SWAP1 PUSH1 0x0 SWAP1 JUMPDEST DUP3 DUP3 SWAP1 SLOAD SWAP1 PUSH2 0x100 EXP SWAP1 DIV PUSH5 0xFFFFFFFFFF AND PUSH5 0xFFFFFFFFFF AND DUP2 MSTORE PUSH1 0x20 ADD SWAP1 PUSH1 0x5 ADD SWAP1 PUSH1 0x20 DUP3 PUSH1 0x4 ADD DIV SWAP3 DUP4 ADD SWAP3 PUSH1 0x1 SUB DUP3 MUL SWAP2 POP DUP1 DUP5 GT PUSH2 0x1764 JUMPI SWAP1 POP JUMPDEST POP POP POP POP POP PUSH1 0x20 DUP4 ADD MSTORE PUSH1 0x6 SLOAD PUSH8 0xFFFFFFFFFFFFFFFF DUP2 GT ISZERO PUSH2 0x17C8 JUMPI PUSH2 0x17C8 PUSH2 0x3A8A JUMP JUMPDEST PUSH1 0x40 MLOAD SWAP1 DUP1 DUP3 MSTORE DUP1 PUSH1 0x20 MUL PUSH1 0x20 ADD DUP3 ADD PUSH1 0x40 MSTORE DUP1 ISZERO PUSH2 0x17F1 JUMPI DUP2 PUSH1 0x20 ADD PUSH1 0x20 DUP3 MUL DUP1 CALLDATASIZE DUP4 CALLDATACOPY ADD SWAP1 POP JUMPDEST POP PUSH1 0x40 DUP4 ADD MSTORE PUSH1 0x1 DUP2 ADD SLOAD PUSH2 0x1807 SWAP1 PUSH1 0x64 PUSH2 0x3C7F JUMP JUMPDEST PUSH8 0xFFFFFFFFFFFFFFFF DUP2 GT ISZERO PUSH2 0x181F JUMPI PUSH2 0x181F PUSH2 0x3A8A JUMP JUMPDEST PUSH1 0x40 MLOAD SWAP1 DUP1 DUP3 MSTORE DUP1 PUSH1 0x20 MUL PUSH1 0x20 ADD DUP3 ADD PUSH1 0x40 MSTORE DUP1 ISZERO PUSH2 0x1848 JUMPI DUP2 PUSH1 0x20 ADD PUSH1 0x20 DUP3 MUL DUP1 CALLDATASIZE DUP4 CALLDATACOPY ADD SWAP1 POP JUMPDEST POP PUSH1 0x60 DUP4 ADD MSTORE PUSH1 0x0 PUSH1 0x80 DUP4 ADD DUP2 SWAP1 MSTORE PUSH1 0xA0 DUP4 ADD DUP2 SWAP1 MSTORE PUSH1 0xC0 DUP4 ADD DUP2 SWAP1 MSTORE JUMPDEST DUP4 MLOAD DUP2 LT ISZERO PUSH2 0x1BF6 JUMPI TIMESTAMP DUP5 DUP3 DUP2 MLOAD DUP2 LT PUSH2 0x1882 JUMPI PUSH2 0x1882 PUSH2 0x3C21 JUMP JUMPDEST PUSH1 0x20 MUL PUSH1 0x20 ADD ADD MLOAD PUSH1 0x20 ADD MLOAD PUSH5 0xFFFFFFFFFF AND GT PUSH2 0x18E2 JUMPI PUSH1 0x40 MLOAD PUSH3 0x461BCD PUSH1 0xE5 SHL DUP2 MSTORE PUSH1 0x20 PUSH1 0x4 DUP3 ADD MSTORE PUSH1 0x1F PUSH1 0x24 DUP3 ADD MSTORE PUSH32 0x54696D652064617461206D75737420626520696E207468652066757475726500 PUSH1 0x44 DUP3 ADD MSTORE PUSH1 0x64 ADD PUSH2 0x3B1 JUMP JUMPDEST PUSH2 0xE10 DUP5 DUP3 DUP2 MLOAD DUP2 LT PUSH2 0x18F7 JUMPI PUSH2 0x18F7 PUSH2 0x3C21 JUMP JUMPDEST PUSH1 0x20 MUL PUSH1 0x20 ADD ADD MLOAD PUSH1 0x20 ADD MLOAD PUSH2 0x190D SWAP2 SWAP1 PUSH2 0x3D0D JUMP JUMPDEST PUSH5 0xFFFFFFFFFF AND ISZERO PUSH2 0x195C JUMPI PUSH1 0x40 MLOAD PUSH3 0x461BCD PUSH1 0xE5 SHL DUP2 MSTORE PUSH1 0x20 PUSH1 0x4 DUP3 ADD MSTORE PUSH1 0x18 PUSH1 0x24 DUP3 ADD MSTORE PUSH24 0x2A34B6B29036BAB9BA1031329037B7103A3432903437BAB9 PUSH1 0x41 SHL PUSH1 0x44 DUP3 ADD MSTORE PUSH1 0x64 ADD PUSH2 0x3B1 JUMP JUMPDEST PUSH1 0x0 DUP1 PUSH2 0x1985 DUP7 DUP5 DUP2 MLOAD DUP2 LT PUSH2 0x1974 JUMPI PUSH2 0x1974 PUSH2 0x3C21 JUMP JUMPDEST PUSH1 0x20 MUL PUSH1 0x20 ADD ADD MLOAD PUSH1 0x20 ADD MLOAD PUSH2 0x6C7 JUMP JUMPDEST SWAP1 POP PUSH1 0x0 JUMPDEST DUP6 PUSH1 0x60 ADD MLOAD MLOAD DUP2 LT ISZERO PUSH2 0x19E5 JUMPI DUP6 PUSH1 0x60 ADD MLOAD DUP2 DUP2 MLOAD DUP2 LT PUSH2 0x19AD JUMPI PUSH2 0x19AD PUSH2 0x3C21 JUMP JUMPDEST PUSH1 0x20 MUL PUSH1 0x20 ADD ADD MLOAD PUSH5 0xFFFFFFFFFF AND DUP3 PUSH5 0xFFFFFFFFFF AND EQ ISZERO PUSH2 0x19D3 JUMPI PUSH1 0x1 SWAP3 POP PUSH2 0x19E5 JUMP JUMPDEST DUP1 PUSH2 0x19DD DUP2 PUSH2 0x3C4D JUMP JUMPDEST SWAP2 POP POP PUSH2 0x198A JUMP JUMPDEST POP DUP2 PUSH2 0x1A39 JUMPI DUP1 DUP6 PUSH1 0x60 ADD MLOAD DUP7 PUSH1 0xC0 ADD MLOAD DUP2 MLOAD DUP2 LT PUSH2 0x1A06 JUMPI PUSH2 0x1A06 PUSH2 0x3C21 JUMP JUMPDEST PUSH1 0x20 MUL PUSH1 0x20 ADD ADD SWAP1 PUSH5 0xFFFFFFFFFF AND SWAP1 DUP2 PUSH5 0xFFFFFFFFFF AND DUP2 MSTORE POP POP PUSH1 0x1 DUP6 PUSH1 0xC0 ADD DUP2 DUP2 MLOAD PUSH2 0x1A35 SWAP2 SWAP1 PUSH2 0x3C7F JUMP JUMPDEST SWAP1 MSTORE POP JUMPDEST PUSH1 0x0 PUSH1 0x1 PUSH1 0x1 PUSH1 0xA0 SHL SUB AND DUP7 DUP5 DUP2 MLOAD DUP2 LT PUSH2 0x1A56 JUMPI PUSH2 0x1A56 PUSH2 0x3C21 JUMP JUMPDEST PUSH1 0x20 MUL PUSH1 0x20 ADD ADD MLOAD PUSH1 0x60 ADD MLOAD PUSH1 0x1 PUSH1 0x1 PUSH1 0xA0 SHL SUB AND EQ ISZERO PUSH2 0x1AA8 JUMPI DUP6 DUP4 DUP2 MLOAD DUP2 LT PUSH2 0x1A83 JUMPI PUSH2 0x1A83 PUSH2 0x3C21 JUMP JUMPDEST PUSH1 0x20 MUL PUSH1 0x20 ADD ADD MLOAD PUSH1 0x40 ADD MLOAD DUP6 PUSH1 0x0 ADD DUP2 DUP2 MLOAD PUSH2 0x1AA0 SWAP2 SWAP1 PUSH2 0x3C7F JUMP JUMPDEST SWAP1 MSTORE POP PUSH2 0x1BE1 JUMP JUMPDEST PUSH2 0x1ACE DUP7 DUP5 DUP2 MLOAD DUP2 LT PUSH2 0x1ABD JUMPI PUSH2 0x1ABD PUSH2 0x3C21 JUMP JUMPDEST PUSH1 0x20 MUL PUSH1 0x20 ADD ADD MLOAD PUSH1 0x60 ADD MLOAD PUSH2 0x2E66 JUMP JUMPDEST PUSH2 0x1AEA JUMPI PUSH1 0x40 MLOAD PUSH3 0x461BCD PUSH1 0xE5 SHL DUP2 MSTORE PUSH1 0x4 ADD PUSH2 0x3B1 SWAP1 PUSH2 0x3DA8 JUMP JUMPDEST PUSH1 0x0 DUP1 JUMPDEST DUP7 PUSH1 0x40 ADD MLOAD MLOAD DUP2 LT ISZERO PUSH2 0x1B6A JUMPI DUP7 PUSH1 0x40 ADD MLOAD DUP2 DUP2 MLOAD DUP2 LT PUSH2 0x1B11 JUMPI PUSH2 0x1B11 PUSH2 0x3C21 JUMP JUMPDEST PUSH1 0x20 MUL PUSH1 0x20 ADD ADD MLOAD PUSH1 0x1 PUSH1 0x1 PUSH1 0xA0 SHL SUB AND DUP9 DUP7 DUP2 MLOAD DUP2 LT PUSH2 0x1B34 JUMPI PUSH2 0x1B34 PUSH2 0x3C21 JUMP JUMPDEST PUSH1 0x20 MUL PUSH1 0x20 ADD ADD MLOAD PUSH1 0x60 ADD MLOAD PUSH1 0x1 PUSH1 0x1 PUSH1 0xA0 SHL SUB AND EQ ISZERO PUSH2 0x1B58 JUMPI PUSH1 0x1 SWAP2 POP PUSH2 0x1B6A JUMP JUMPDEST DUP1 PUSH2 0x1B62 DUP2 PUSH2 0x3C4D JUMP JUMPDEST SWAP2 POP POP PUSH2 0x1AEE JUMP JUMPDEST POP DUP1 PUSH2 0x1BDF JUMPI DUP7 DUP5 DUP2 MLOAD DUP2 LT PUSH2 0x1B82 JUMPI PUSH2 0x1B82 PUSH2 0x3C21 JUMP JUMPDEST PUSH1 0x20 MUL PUSH1 0x20 ADD ADD MLOAD PUSH1 0x60 ADD MLOAD DUP7 PUSH1 0x40 ADD MLOAD DUP8 PUSH1 0xA0 ADD MLOAD DUP2 MLOAD DUP2 LT PUSH2 0x1BA8 JUMPI PUSH2 0x1BA8 PUSH2 0x3C21 JUMP JUMPDEST PUSH1 0x20 MUL PUSH1 0x20 ADD ADD SWAP1 PUSH1 0x1 PUSH1 0x1 PUSH1 0xA0 SHL SUB AND SWAP1 DUP2 PUSH1 0x1 PUSH1 0x1 PUSH1 0xA0 SHL SUB AND DUP2 MSTORE POP POP PUSH1 0x1 DUP7 PUSH1 0xA0 ADD DUP2 DUP2 MLOAD PUSH2 0x1BDB SWAP2 SWAP1 PUSH2 0x3C7F JUMP JUMPDEST SWAP1 MSTORE POP JUMPDEST POP JUMPDEST POP POP DUP1 DUP1 PUSH2 0x1BEE SWAP1 PUSH2 0x3C4D JUMP JUMPDEST SWAP2 POP POP PUSH2 0x1866 JUMP JUMPDEST POP CALLVALUE PUSH1 0x64 PUSH1 0x8 SLOAD DUP5 PUSH1 0x0 ADD MLOAD PUSH2 0x1C0C SWAP2 SWAP1 PUSH2 0x3D31 JUMP JUMPDEST PUSH2 0x1C16 SWAP2 SWAP1 PUSH2 0x3D50 JUMP JUMPDEST GT ISZERO PUSH2 0x1C34 JUMPI PUSH1 0x40 MLOAD PUSH3 0x461BCD PUSH1 0xE5 SHL DUP2 MSTORE PUSH1 0x4 ADD PUSH2 0x3B1 SWAP1 PUSH2 0x3D64 JUMP JUMPDEST PUSH1 0x0 JUMPDEST DUP3 PUSH1 0x60 ADD MLOAD MLOAD DUP2 LT ISZERO PUSH2 0x1FEF JUMPI DUP3 PUSH1 0x60 ADD MLOAD DUP2 DUP2 MLOAD DUP2 LT PUSH2 0x1C5A JUMPI PUSH2 0x1C5A PUSH2 0x3C21 JUMP JUMPDEST PUSH1 0x20 MUL PUSH1 0x20 ADD ADD MLOAD PUSH5 0xFFFFFFFFFF AND PUSH1 0x0 EQ ISZERO PUSH2 0x1C76 JUMPI PUSH2 0x1FEF JUMP JUMPDEST PUSH1 0x0 PUSH1 0x2 PUSH1 0x0 DUP6 PUSH1 0x60 ADD MLOAD DUP5 DUP2 MLOAD DUP2 LT PUSH2 0x1C92 JUMPI PUSH2 0x1C92 PUSH2 0x3C21 JUMP JUMPDEST PUSH1 0x20 MUL PUSH1 0x20 ADD ADD MLOAD PUSH5 0xFFFFFFFFFF AND PUSH5 0xFFFFFFFFFF AND DUP2 MSTORE PUSH1 0x20 ADD SWAP1 DUP2 MSTORE PUSH1 0x20 ADD PUSH1 0x0 KECCAK256 SWAP1 POP PUSH1 0x0 JUMPDEST DUP6 MLOAD DUP2 PUSH2 0xFFFF AND LT ISZERO PUSH2 0x1EA2 JUMPI PUSH1 0x0 PUSH2 0x1CE3 DUP8 DUP4 PUSH2 0xFFFF AND DUP2 MLOAD DUP2 LT PUSH2 0x1974 JUMPI PUSH2 0x1974 PUSH2 0x3C21 JUMP JUMPDEST SWAP1 POP DUP6 PUSH1 0x60 ADD MLOAD DUP5 DUP2 MLOAD DUP2 LT PUSH2 0x1CFB JUMPI PUSH2 0x1CFB PUSH2 0x3C21 JUMP JUMPDEST PUSH1 0x20 MUL PUSH1 0x20 ADD ADD MLOAD PUSH5 0xFFFFFFFFFF AND DUP2 PUSH5 0xFFFFFFFFFF AND EQ ISZERO PUSH2 0x1E8F JUMPI PUSH1 0x0 PUSH2 0x1D8A CALLER DUP10 DUP6 PUSH2 0xFFFF AND DUP2 MLOAD DUP2 LT PUSH2 0x1D34 JUMPI PUSH2 0x1D34 PUSH2 0x3C21 JUMP JUMPDEST PUSH1 0x20 MUL PUSH1 0x20 ADD ADD MLOAD PUSH1 0x0 ADD MLOAD DUP11 DUP7 PUSH2 0xFFFF AND DUP2 MLOAD DUP2 LT PUSH2 0x1D56 JUMPI PUSH2 0x1D56 PUSH2 0x3C21 JUMP JUMPDEST PUSH1 0x20 MUL PUSH1 0x20 ADD ADD MLOAD PUSH1 0x60 ADD MLOAD DUP6 DUP13 DUP9 PUSH2 0xFFFF AND DUP2 MLOAD DUP2 LT PUSH2 0x1D79 JUMPI PUSH2 0x1D79 PUSH2 0x3C21 JUMP JUMPDEST PUSH1 0x20 MUL PUSH1 0x20 ADD ADD MLOAD PUSH1 0x40 ADD MLOAD PUSH2 0x2F27 JUMP JUMPDEST DUP5 SLOAD PUSH1 0x1 DUP2 DUP2 ADD DUP8 SSTORE PUSH1 0x0 DUP8 DUP2 MSTORE PUSH1 0x20 DUP1 DUP3 KECCAK256 DUP6 MLOAD PUSH1 0x5 SWAP1 SWAP6 MUL ADD DUP5 DUP2 SSTORE SWAP1 DUP6 ADD MLOAD DUP2 DUP5 ADD DUP1 SLOAD PUSH1 0x1 PUSH1 0x1 PUSH1 0xA0 SHL SUB SWAP3 DUP4 AND PUSH1 0x1 PUSH1 0x1 PUSH1 0xA0 SHL SUB NOT SWAP2 DUP3 AND OR SWAP1 SWAP2 SSTORE PUSH1 0x40 DUP8 ADD MLOAD PUSH1 0x2 DUP5 ADD DUP1 SLOAD SWAP2 DUP5 AND SWAP2 SWAP1 SWAP3 AND OR SWAP1 SSTORE PUSH1 0x60 DUP7 ADD MLOAD PUSH1 0x3 DUP1 DUP5 ADD DUP1 SLOAD PUSH1 0x80 DUP11 ADD MLOAD PUSH1 0xA0 DUP12 ADD MLOAD PUSH1 0xC0 DUP13 ADD MLOAD ISZERO ISZERO PUSH1 0x1 PUSH1 0xD0 SHL MUL PUSH1 0xFF PUSH1 0xD0 SHL NOT SWAP2 ISZERO ISZERO PUSH1 0x1 PUSH1 0xC8 SHL MUL SWAP2 SWAP1 SWAP2 AND PUSH2 0xFFFF PUSH1 0xC8 SHL NOT PUSH5 0xFFFFFFFFFF SWAP1 SWAP4 AND PUSH1 0x1 PUSH1 0xA0 SHL MUL PUSH1 0x1 PUSH1 0x1 PUSH1 0xC8 SHL SUB NOT SWAP1 SWAP5 AND SWAP7 SWAP1 SWAP8 AND SWAP6 SWAP1 SWAP6 OR SWAP2 SWAP1 SWAP2 OR AND SWAP4 SWAP1 SWAP4 OR SWAP2 SWAP1 SWAP2 OR SWAP1 SWAP2 SSTORE PUSH1 0xE0 SWAP1 SWAP6 ADD MLOAD PUSH1 0x4 SWAP1 SWAP2 ADD SSTORE DUP4 SLOAD SWAP2 DUP3 ADD DUP5 SSTORE SWAP3 SWAP1 SWAP3 MSTORE PUSH32 0xC2575A0E9E593C00F959F8C92F12DB2869C3395A3B0502D05E2516446F71F85B SWAP1 SWAP2 ADD SSTORE POP JUMPDEST POP DUP1 PUSH2 0x1E9A DUP2 PUSH2 0x3E0F JUMP JUMPDEST SWAP2 POP POP PUSH2 0x1CBB JUMP JUMPDEST POP DUP1 PUSH1 0x2 PUSH1 0x0 DUP7 PUSH1 0x60 ADD MLOAD DUP6 DUP2 MLOAD DUP2 LT PUSH2 0x1EBE JUMPI PUSH2 0x1EBE PUSH2 0x3C21 JUMP JUMPDEST PUSH1 0x20 MUL PUSH1 0x20 ADD ADD MLOAD PUSH5 0xFFFFFFFFFF AND PUSH5 0xFFFFFFFFFF AND DUP2 MSTORE PUSH1 0x20 ADD SWAP1 DUP2 MSTORE PUSH1 0x20 ADD PUSH1 0x0 KECCAK256 SWAP1 DUP1 SLOAD PUSH2 0x1EF0 SWAP3 SWAP2 SWAP1 PUSH2 0x35D3 JUMP JUMPDEST POP PUSH1 0x0 DUP1 JUMPDEST DUP6 PUSH1 0x20 ADD MLOAD MLOAD DUP2 LT ISZERO PUSH2 0x1F6D JUMPI DUP6 PUSH1 0x60 ADD MLOAD DUP5 DUP2 MLOAD DUP2 LT PUSH2 0x1F18 JUMPI PUSH2 0x1F18 PUSH2 0x3C21 JUMP JUMPDEST PUSH1 0x20 MUL PUSH1 0x20 ADD ADD MLOAD PUSH5 0xFFFFFFFFFF AND DUP7 PUSH1 0x20 ADD MLOAD DUP3 DUP2 MLOAD DUP2 LT PUSH2 0x1F3D JUMPI PUSH2 0x1F3D PUSH2 0x3C21 JUMP JUMPDEST PUSH1 0x20 MUL PUSH1 0x20 ADD ADD MLOAD PUSH5 0xFFFFFFFFFF AND EQ ISZERO PUSH2 0x1F5B JUMPI PUSH1 0x1 SWAP2 POP PUSH2 0x1F6D JUMP JUMPDEST DUP1 PUSH2 0x1F65 DUP2 PUSH2 0x3C4D JUMP JUMPDEST SWAP2 POP POP PUSH2 0x1EF5 JUMP JUMPDEST POP DUP1 PUSH2 0x1FDB JUMPI DUP5 PUSH1 0x60 ADD MLOAD DUP4 DUP2 MLOAD DUP2 LT PUSH2 0x1F89 JUMPI PUSH2 0x1F89 PUSH2 0x3C21 JUMP JUMPDEST PUSH1 0x20 MUL PUSH1 0x20 ADD ADD MLOAD DUP5 PUSH1 0x1 ADD PUSH1 0x1 DUP2 PUSH1 0x1 DUP2 SLOAD ADD DUP1 DUP3 SSTORE DUP1 SWAP2 POP POP SUB SWAP1 PUSH1 0x0 MSTORE PUSH1 0x20 PUSH1 0x0 KECCAK256 SWAP1 PUSH1 0x6 SWAP2 DUP3 DUP3 DIV ADD SWAP2 SWAP1 MOD PUSH1 0x5 MUL PUSH2 0x100 EXP DUP2 SLOAD DUP2 PUSH5 0xFFFFFFFFFF MUL NOT AND SWAP1 DUP4 PUSH5 0xFFFFFFFFFF AND MUL OR SWAP1 SSTORE POP JUMPDEST POP POP DUP1 PUSH2 0x1FE7 DUP2 PUSH2 0x3C4D JUMP JUMPDEST SWAP2 POP POP PUSH2 0x1C37 JUMP JUMPDEST POP PUSH1 0x0 DUP2 PUSH1 0x2 ADD DUP1 SLOAD DUP1 PUSH1 0x20 MUL PUSH1 0x20 ADD PUSH1 0x40 MLOAD SWAP1 DUP2 ADD PUSH1 0x40 MSTORE DUP1 SWAP3 SWAP2 SWAP1 DUP2 DUP2 MSTORE PUSH1 0x20 ADD DUP3 DUP1 SLOAD DUP1 ISZERO PUSH2 0x204A JUMPI PUSH1 0x20 MUL DUP3 ADD SWAP2 SWAP1 PUSH1 0x0 MSTORE PUSH1 0x20 PUSH1 0x0 KECCAK256 SWAP1 JUMPDEST DUP2 SLOAD PUSH1 0x1 PUSH1 0x1 PUSH1 0xA0 SHL SUB AND DUP2 MSTORE PUSH1 0x1 SWAP1 SWAP2 ADD SWAP1 PUSH1 0x20 ADD DUP1 DUP4 GT PUSH2 0x202C JUMPI JUMPDEST POP POP POP POP POP SWAP1 POP PUSH1 0x0 JUMPDEST DUP4 PUSH1 0x40 ADD MLOAD MLOAD DUP2 LT ISZERO PUSH2 0x2149 JUMPI PUSH1 0x0 DUP1 JUMPDEST DUP4 MLOAD DUP2 LT ISZERO PUSH2 0x20D9 JUMPI DUP6 PUSH1 0x40 ADD MLOAD DUP4 DUP2 MLOAD DUP2 LT PUSH2 0x2084 JUMPI PUSH2 0x2084 PUSH2 0x3C21 JUMP JUMPDEST PUSH1 0x20 MUL PUSH1 0x20 ADD ADD MLOAD PUSH1 0x1 PUSH1 0x1 PUSH1 0xA0 SHL SUB AND DUP5 DUP3 DUP2 MLOAD DUP2 LT PUSH2 0x20A7 JUMPI PUSH2 0x20A7 PUSH2 0x3C21 JUMP JUMPDEST PUSH1 0x20 MUL PUSH1 0x20 ADD ADD MLOAD PUSH1 0x1 PUSH1 0x1 PUSH1 0xA0 SHL SUB AND EQ ISZERO PUSH2 0x20C7 JUMPI PUSH1 0x1 SWAP2 POP PUSH2 0x20D9 JUMP JUMPDEST DUP1 PUSH2 0x20D1 DUP2 PUSH2 0x3C4D JUMP JUMPDEST SWAP2 POP POP PUSH2 0x2065 JUMP JUMPDEST POP DUP1 PUSH2 0x2136 JUMPI DUP5 PUSH1 0x40 ADD MLOAD DUP3 DUP2 MLOAD DUP2 LT PUSH2 0x20F5 JUMPI PUSH2 0x20F5 PUSH2 0x3C21 JUMP JUMPDEST PUSH1 0x20 SWAP1 DUP2 MUL SWAP2 SWAP1 SWAP2 ADD DUP2 ADD MLOAD PUSH1 0x2 DUP7 ADD DUP1 SLOAD PUSH1 0x1 DUP2 ADD DUP3 SSTORE PUSH1 0x0 SWAP2 DUP3 MSTORE SWAP3 SWAP1 KECCAK256 SWAP1 SWAP2 ADD DUP1 SLOAD PUSH1 0x1 PUSH1 0x1 PUSH1 0xA0 SHL SUB NOT AND PUSH1 0x1 PUSH1 0x1 PUSH1 0xA0 SHL SUB SWAP1 SWAP3 AND SWAP2 SWAP1 SWAP2 OR SWAP1 SSTORE JUMPDEST POP DUP1 PUSH2 0x2141 DUP2 PUSH2 0x3C4D JUMP JUMPDEST SWAP2 POP POP PUSH2 0x2054 JUMP JUMPDEST POP CALLER PUSH1 0x0 SWAP1 DUP2 MSTORE PUSH1 0x20 DUP2 SWAP1 MSTORE PUSH1 0x40 SWAP1 KECCAK256 SLOAD PUSH1 0x1 PUSH1 0xA0 SHL SWAP1 DIV PUSH1 0xFF AND PUSH2 0x21C7 JUMPI DUP2 SLOAD PUSH1 0x1 PUSH1 0x1 PUSH1 0xA0 SHL SUB NOT SWAP1 DUP2 AND CALLER SWAP1 DUP2 OR DUP5 SSTORE PUSH1 0x1 DUP1 SLOAD DUP1 DUP3 ADD DUP3 SSTORE PUSH1 0x0 SWAP2 SWAP1 SWAP2 MSTORE PUSH32 0xB10E2D527612073B26EECDFD717E6A320CF44B4AFAC2B0732D9FCBE2B7FA0CF6 ADD DUP1 SLOAD SWAP1 SWAP3 AND OR SWAP1 SSTORE DUP2 SLOAD PUSH1 0xFF PUSH1 0xA0 SHL NOT AND PUSH1 0x1 PUSH1 0xA0 SHL OR DUP3 SSTORE JUMPDEST CALLER PUSH1 0x0 SWAP1 DUP2 MSTORE PUSH1 0x20 DUP2 SWAP1 MSTORE PUSH1 0x40 SWAP1 KECCAK256 DUP3 SLOAD DUP2 SLOAD PUSH1 0x1 PUSH1 0x1 PUSH1 0xA0 SHL SUB SWAP1 SWAP2 AND PUSH1 0x1 PUSH1 0x1 PUSH1 0xA0 SHL SUB NOT DUP3 AND DUP2 OR DUP4 SSTORE DUP5 SLOAD PUSH1 0x1 PUSH1 0x1 PUSH1 0xA8 SHL SUB NOT SWAP1 SWAP3 AND OR PUSH1 0x1 PUSH1 0xA0 SHL SWAP2 DUP3 SWAP1 DIV PUSH1 0xFF AND ISZERO ISZERO SWAP1 SWAP2 MUL OR DUP2 SSTORE PUSH1 0x1 DUP1 DUP5 ADD DUP1 SLOAD DUP6 SWAP4 SWAP3 PUSH2 0x222E SWAP3 SWAP1 DUP5 ADD SWAP2 PUSH2 0x36F8 JUMP JUMPDEST POP PUSH1 0x2 DUP3 DUP2 ADD DUP1 SLOAD PUSH2 0x2243 SWAP3 DUP5 ADD SWAP2 SWAP1 PUSH2 0x3752 JUMP JUMPDEST POP SWAP1 POP POP PUSH1 0x0 JUMPDEST DUP5 MLOAD DUP2 LT ISZERO PUSH2 0x2450 JUMPI DUP5 DUP2 DUP2 MLOAD DUP2 LT PUSH2 0x2265 JUMPI PUSH2 0x2265 PUSH2 0x3C21 JUMP JUMPDEST PUSH1 0x20 MUL PUSH1 0x20 ADD ADD MLOAD PUSH1 0x40 ADD MLOAD PUSH1 0x4 PUSH1 0x0 CALLER PUSH1 0x1 PUSH1 0x1 PUSH1 0xA0 SHL SUB AND PUSH1 0x1 PUSH1 0x1 PUSH1 0xA0 SHL SUB AND DUP2 MSTORE PUSH1 0x20 ADD SWAP1 DUP2 MSTORE PUSH1 0x20 ADD PUSH1 0x0 KECCAK256 PUSH1 0x0 DUP8 DUP5 DUP2 MLOAD DUP2 LT PUSH2 0x22AA JUMPI PUSH2 0x22AA PUSH2 0x3C21 JUMP JUMPDEST PUSH1 0x20 MUL PUSH1 0x20 ADD ADD MLOAD PUSH1 0x60 ADD MLOAD PUSH1 0x1 PUSH1 0x1 PUSH1 0xA0 SHL SUB AND PUSH1 0x1 PUSH1 0x1 PUSH1 0xA0 SHL SUB AND DUP2 MSTORE PUSH1 0x20 ADD SWAP1 DUP2 MSTORE PUSH1 0x20 ADD PUSH1 0x0 KECCAK256 PUSH1 0x0 DUP3 DUP3 SLOAD PUSH2 0x22E5 SWAP2 SWAP1 PUSH2 0x3C7F JUMP JUMPDEST SWAP1 SWAP2 SSTORE POP POP DUP5 MLOAD PUSH1 0x0 SWAP1 DUP7 SWAP1 DUP4 SWAP1 DUP2 LT PUSH2 0x2301 JUMPI PUSH2 0x2301 PUSH2 0x3C21 JUMP JUMPDEST PUSH1 0x20 MUL PUSH1 0x20 ADD ADD MLOAD PUSH1 0x60 ADD MLOAD PUSH1 0x1 PUSH1 0x1 PUSH1 0xA0 SHL SUB AND EQ PUSH2 0x243E JUMPI DUP5 DUP2 DUP2 MLOAD DUP2 LT PUSH2 0x232D JUMPI PUSH2 0x232D PUSH2 0x3C21 JUMP JUMPDEST PUSH1 0x20 MUL PUSH1 0x20 ADD ADD MLOAD PUSH1 0x60 ADD MLOAD PUSH1 0x1 PUSH1 0x1 PUSH1 0xA0 SHL SUB AND PUSH4 0x23B872DD CALLER ADDRESS DUP9 DUP6 DUP2 MLOAD DUP2 LT PUSH2 0x235B JUMPI PUSH2 0x235B PUSH2 0x3C21 JUMP JUMPDEST PUSH1 0x20 SWAP1 DUP2 MUL SWAP2 SWAP1 SWAP2 ADD ADD MLOAD PUSH1 0x40 SWAP1 DUP2 ADD MLOAD SWAP1 MLOAD PUSH1 0x1 PUSH1 0x1 PUSH1 0xE0 SHL SUB NOT PUSH1 0xE0 DUP7 SWAP1 SHL AND DUP2 MSTORE PUSH1 0x1 PUSH1 0x1 PUSH1 0xA0 SHL SUB SWAP4 DUP5 AND PUSH1 0x4 DUP3 ADD MSTORE SWAP3 SWAP1 SWAP2 AND PUSH1 0x24 DUP4 ADD MSTORE PUSH1 0x44 DUP3 ADD MSTORE PUSH1 0x64 ADD PUSH1 0x20 PUSH1 0x40 MLOAD DUP1 DUP4 SUB DUP2 PUSH1 0x0 DUP8 DUP1 EXTCODESIZE ISZERO DUP1 ISZERO PUSH2 0x23BA JUMPI PUSH1 0x0 DUP1 REVERT JUMPDEST POP GAS CALL ISZERO DUP1 ISZERO PUSH2 0x23CE JUMPI RETURNDATASIZE PUSH1 0x0 DUP1 RETURNDATACOPY RETURNDATASIZE PUSH1 0x0 REVERT JUMPDEST POP POP POP POP PUSH1 0x40 MLOAD RETURNDATASIZE PUSH1 0x1F NOT PUSH1 0x1F DUP3 ADD AND DUP3 ADD DUP1 PUSH1 0x40 MSTORE POP DUP2 ADD SWAP1 PUSH2 0x23F2 SWAP2 SWAP1 PUSH2 0x3DED JUMP JUMPDEST PUSH2 0x243E JUMPI PUSH1 0x40 MLOAD PUSH3 0x461BCD PUSH1 0xE5 SHL DUP2 MSTORE PUSH1 0x20 PUSH1 0x4 DUP3 ADD MSTORE PUSH1 0x1A PUSH1 0x24 DUP3 ADD MSTORE PUSH32 0x50726F626C656D207472616E7366657272696E6720746F6B656E000000000000 PUSH1 0x44 DUP3 ADD MSTORE PUSH1 0x64 ADD PUSH2 0x3B1 JUMP JUMPDEST DUP1 PUSH2 0x2448 DUP2 PUSH2 0x3C4D JUMP JUMPDEST SWAP2 POP POP PUSH2 0x224A JUMP JUMPDEST POP POP POP POP POP JUMP JUMPDEST PUSH1 0x5 SLOAD PUSH1 0x60 SWAP1 PUSH1 0x1 PUSH1 0x1 PUSH1 0xA0 SHL SUB AND CALLER EQ PUSH2 0x2471 JUMPI PUSH1 0x0 DUP1 REVERT JUMPDEST PUSH1 0x1 PUSH1 0x1 PUSH1 0xA0 SHL SUB DUP3 AND PUSH1 0x0 SWAP1 DUP2 MSTORE PUSH1 0x20 DUP2 DUP2 MSTORE PUSH1 0x40 DUP1 DUP4 KECCAK256 PUSH1 0x1 ADD DUP1 SLOAD DUP3 MLOAD DUP2 DUP6 MUL DUP2 ADD DUP6 ADD SWAP1 SWAP4 MSTORE DUP1 DUP4 MSTORE SWAP2 SWAP3 SWAP1 SWAP2 SWAP1 DUP4 ADD DUP3 DUP3 DUP1 ISZERO PUSH2 0x2500 JUMPI PUSH1 0x20 MUL DUP3 ADD SWAP2 SWAP1 PUSH1 0x0 MSTORE PUSH1 0x20 PUSH1 0x0 KECCAK256 SWAP1 PUSH1 0x0 SWAP1 JUMPDEST DUP3 DUP3 SWAP1 SLOAD SWAP1 PUSH2 0x100 EXP SWAP1 DIV PUSH5 0xFFFFFFFFFF AND PUSH5 0xFFFFFFFFFF AND DUP2 MSTORE PUSH1 0x20 ADD SWAP1 PUSH1 0x5 ADD SWAP1 PUSH1 0x20 DUP3 PUSH1 0x4 ADD DIV SWAP3 DUP4 ADD SWAP3 PUSH1 0x1 SUB DUP3 MUL SWAP2 POP DUP1 DUP5 GT PUSH2 0x24C1 JUMPI SWAP1 POP JUMPDEST POP POP POP POP POP SWAP1 POP PUSH1 0x0 DUP1 JUMPDEST DUP3 MLOAD DUP2 LT ISZERO PUSH2 0x263F JUMPI PUSH1 0x0 PUSH1 0x2 PUSH1 0x0 DUP6 DUP5 DUP2 MLOAD DUP2 LT PUSH2 0x252C JUMPI PUSH2 0x252C PUSH2 0x3C21 JUMP JUMPDEST PUSH1 0x20 MUL PUSH1 0x20 ADD ADD MLOAD PUSH5 0xFFFFFFFFFF AND PUSH5 0xFFFFFFFFFF AND DUP2 MSTORE PUSH1 0x20 ADD SWAP1 DUP2 MSTORE PUSH1 0x20 ADD PUSH1 0x0 KECCAK256 DUP1 SLOAD DUP1 PUSH1 0x20 MUL PUSH1 0x20 ADD PUSH1 0x40 MLOAD SWAP1 DUP2 ADD PUSH1 0x40 MSTORE DUP1 SWAP3 SWAP2 SWAP1 DUP2 DUP2 MSTORE PUSH1 0x20 ADD PUSH1 0x0 SWAP1 JUMPDEST DUP3 DUP3 LT ISZERO PUSH2 0x2616 JUMPI PUSH1 0x0 DUP5 DUP2 MSTORE PUSH1 0x20 SWAP1 DUP2 SWAP1 KECCAK256 PUSH1 0x40 DUP1 MLOAD PUSH2 0x100 DUP2 ADD DUP3 MSTORE PUSH1 0x5 DUP7 MUL SWAP1 SWAP3 ADD DUP1 SLOAD DUP4 MSTORE PUSH1 0x1 DUP1 DUP3 ADD SLOAD PUSH1 0x1 PUSH1 0x1 PUSH1 0xA0 SHL SUB SWAP1 DUP2 AND DUP6 DUP8 ADD MSTORE PUSH1 0x2 DUP4 ADD SLOAD DUP2 AND SWAP4 DUP6 ADD SWAP4 SWAP1 SWAP4 MSTORE PUSH1 0x3 DUP3 ADD SLOAD SWAP3 DUP4 AND PUSH1 0x60 DUP6 ADD MSTORE PUSH5 0xFFFFFFFFFF PUSH1 0x1 PUSH1 0xA0 SHL DUP5 DIV AND PUSH1 0x80 DUP6 ADD MSTORE PUSH1 0xFF PUSH1 0x1 PUSH1 0xC8 SHL DUP5 DIV DUP2 AND ISZERO ISZERO PUSH1 0xA0 DUP7 ADD MSTORE PUSH1 0x1 PUSH1 0xD0 SHL SWAP1 SWAP4 DIV SWAP1 SWAP3 AND ISZERO ISZERO PUSH1 0xC0 DUP5 ADD MSTORE PUSH1 0x4 ADD SLOAD PUSH1 0xE0 DUP4 ADD MSTORE SWAP1 DUP4 MSTORE SWAP1 SWAP3 ADD SWAP2 ADD PUSH2 0x2570 JUMP JUMPDEST POP POP POP POP SWAP1 POP DUP1 MLOAD DUP4 PUSH2 0x2629 SWAP2 SWAP1 PUSH2 0x3C7F JUMP JUMPDEST SWAP3 POP POP DUP1 DUP1 PUSH2 0x2637 SWAP1 PUSH2 0x3C4D JUMP JUMPDEST SWAP2 POP POP PUSH2 0x250B JUMP JUMPDEST POP PUSH1 0x0 DUP2 PUSH8 0xFFFFFFFFFFFFFFFF DUP2 GT ISZERO PUSH2 0x265B JUMPI PUSH2 0x265B PUSH2 0x3A8A JUMP JUMPDEST PUSH1 0x40 MLOAD SWAP1 DUP1 DUP3 MSTORE DUP1 PUSH1 0x20 MUL PUSH1 0x20 ADD DUP3 ADD PUSH1 0x40 MSTORE DUP1 ISZERO PUSH2 0x2694 JUMPI DUP2 PUSH1 0x20 ADD JUMPDEST PUSH2 0x2681 PUSH2 0x358F JUMP JUMPDEST DUP2 MSTORE PUSH1 0x20 ADD SWAP1 PUSH1 0x1 SWAP1 SUB SWAP1 DUP2 PUSH2 0x2679 JUMPI SWAP1 POP JUMPDEST POP SWAP1 POP PUSH1 0x0 DUP3 PUSH8 0xFFFFFFFFFFFFFFFF DUP2 GT ISZERO PUSH2 0x26B2 JUMPI PUSH2 0x26B2 PUSH2 0x3A8A JUMP JUMPDEST PUSH1 0x40 MLOAD SWAP1 DUP1 DUP3 MSTORE DUP1 PUSH1 0x20 MUL PUSH1 0x20 ADD DUP3 ADD PUSH1 0x40 MSTORE DUP1 ISZERO PUSH2 0x26EB JUMPI DUP2 PUSH1 0x20 ADD JUMPDEST PUSH2 0x26D8 PUSH2 0x358F JUMP JUMPDEST DUP2 MSTORE PUSH1 0x20 ADD SWAP1 PUSH1 0x1 SWAP1 SUB SWAP1 DUP2 PUSH2 0x26D0 JUMPI SWAP1 POP JUMPDEST POP SWAP1 POP PUSH1 0x0 DUP1 JUMPDEST DUP6 MLOAD DUP2 LT ISZERO PUSH2 0x28AF JUMPI PUSH1 0x2 PUSH1 0x0 DUP8 DUP4 DUP2 MLOAD DUP2 LT PUSH2 0x2711 JUMPI PUSH2 0x2711 PUSH2 0x3C21 JUMP JUMPDEST PUSH1 0x20 MUL PUSH1 0x20 ADD ADD MLOAD PUSH5 0xFFFFFFFFFF AND PUSH5 0xFFFFFFFFFF AND DUP2 MSTORE PUSH1 0x20 ADD SWAP1 DUP2 MSTORE PUSH1 0x20 ADD PUSH1 0x0 KECCAK256 DUP1 SLOAD DUP1 PUSH1 0x20 MUL PUSH1 0x20 ADD PUSH1 0x40 MLOAD SWAP1 DUP2 ADD PUSH1 0x40 MSTORE DUP1 SWAP3 SWAP2 SWAP1 DUP2 DUP2 MSTORE PUSH1 0x20 ADD PUSH1 0x0 SWAP1 JUMPDEST DUP3 DUP3 LT ISZERO PUSH2 0x27FB JUMPI PUSH1 0x0 DUP5 DUP2 MSTORE PUSH1 0x20 SWAP1 DUP2 SWAP1 KECCAK256 PUSH1 0x40 DUP1 MLOAD PUSH2 0x100 DUP2 ADD DUP3 MSTORE PUSH1 0x5 DUP7 MUL SWAP1 SWAP3 ADD DUP1 SLOAD DUP4 MSTORE PUSH1 0x1 DUP1 DUP3 ADD SLOAD PUSH1 0x1 PUSH1 0x1 PUSH1 0xA0 SHL SUB SWAP1 DUP2 AND DUP6 DUP8 ADD MSTORE PUSH1 0x2 DUP4 ADD SLOAD DUP2 AND SWAP4 DUP6 ADD SWAP4 SWAP1 SWAP4 MSTORE PUSH1 0x3 DUP3 ADD SLOAD SWAP3 DUP4 AND PUSH1 0x60 DUP6 ADD MSTORE PUSH5 0xFFFFFFFFFF PUSH1 0x1 PUSH1 0xA0 SHL DUP5 DIV AND PUSH1 0x80 DUP6 ADD MSTORE PUSH1 0xFF PUSH1 0x1 PUSH1 0xC8 SHL DUP5 DIV DUP2 AND ISZERO ISZERO PUSH1 0xA0 DUP7 ADD MSTORE PUSH1 0x1 PUSH1 0xD0 SHL SWAP1 SWAP4 DIV SWAP1 SWAP3 AND ISZERO ISZERO PUSH1 0xC0 DUP5 ADD MSTORE PUSH1 0x4 ADD SLOAD PUSH1 0xE0 DUP4 ADD MSTORE SWAP1 DUP4 MSTORE SWAP1 SWAP3 ADD SWAP2 ADD PUSH2 0x2755 JUMP JUMPDEST POP POP POP POP SWAP4 POP PUSH1 0x0 JUMPDEST DUP5 MLOAD DUP2 LT ISZERO PUSH2 0x289C JUMPI DUP9 PUSH1 0x1 PUSH1 0x1 PUSH1 0xA0 SHL SUB AND DUP6 DUP3 DUP2 MLOAD DUP2 LT PUSH2 0x2829 JUMPI PUSH2 0x2829 PUSH2 0x3C21 JUMP JUMPDEST PUSH1 0x20 MUL PUSH1 0x20 ADD ADD MLOAD PUSH1 0x20 ADD MLOAD PUSH1 0x1 PUSH1 0x1 PUSH1 0xA0 SHL SUB AND EQ ISZERO PUSH2 0x288A JUMPI DUP5 DUP2 DUP2 MLOAD DUP2 LT PUSH2 0x2856 JUMPI PUSH2 0x2856 PUSH2 0x3C21 JUMP JUMPDEST PUSH1 0x20 MUL PUSH1 0x20 ADD ADD MLOAD DUP5 DUP5 DUP2 MLOAD DUP2 LT PUSH2 0x2870 JUMPI PUSH2 0x2870 PUSH2 0x3C21 JUMP JUMPDEST PUSH1 0x20 MUL PUSH1 0x20 ADD ADD DUP2 SWAP1 MSTORE POP DUP3 DUP1 PUSH2 0x2886 SWAP1 PUSH2 0x3C4D JUMP JUMPDEST SWAP4 POP POP JUMPDEST DUP1 PUSH2 0x2894 DUP2 PUSH2 0x3C4D JUMP JUMPDEST SWAP2 POP POP PUSH2 0x2804 JUMP JUMPDEST POP DUP1 PUSH2 0x28A7 DUP2 PUSH2 0x3C4D JUMP JUMPDEST SWAP2 POP POP PUSH2 0x26F2 JUMP JUMPDEST POP PUSH1 0x0 JUMPDEST DUP3 MLOAD DUP2 LT ISZERO PUSH2 0x290F JUMPI PUSH2 0x28D1 DUP4 DUP3 DUP2 MLOAD DUP2 LT PUSH2 0x13DF JUMPI PUSH2 0x13DF PUSH2 0x3C21 JUMP JUMPDEST DUP4 DUP3 DUP2 MLOAD DUP2 LT PUSH2 0x28E3 JUMPI PUSH2 0x28E3 PUSH2 0x3C21 JUMP JUMPDEST PUSH1 0x20 SWAP1 DUP2 MUL SWAP2 SWAP1 SWAP2 ADD ADD MLOAD PUSH5 0xFFFFFFFFFF SWAP1 SWAP2 AND PUSH1 0x80 SWAP1 SWAP2 ADD MSTORE DUP1 PUSH2 0x2907 DUP2 PUSH2 0x3C4D JUMP JUMPDEST SWAP2 POP POP PUSH2 0x28B3 JUMP JUMPDEST POP SWAP1 SWAP5 POP POP POP POP POP JUMPDEST SWAP2 SWAP1 POP JUMP JUMPDEST PUSH1 0x5 SLOAD PUSH1 0x1 PUSH1 0x1 PUSH1 0xA0 SHL SUB AND CALLER EQ PUSH2 0x2934 JUMPI PUSH1 0x0 DUP1 REVERT JUMPDEST PUSH1 0x0 PUSH2 0x293F TIMESTAMP PUSH2 0x6C7 JUMP JUMPDEST PUSH1 0x9 SLOAD SWAP1 SWAP2 POP PUSH5 0xFFFFFFFFFF SWAP1 DUP2 AND SWAP1 DUP3 AND GT PUSH2 0x29AE JUMPI PUSH1 0x40 MLOAD PUSH3 0x461BCD PUSH1 0xE5 SHL DUP2 MSTORE PUSH1 0x20 PUSH1 0x4 DUP3 ADD MSTORE PUSH1 0x27 PUSH1 0x24 DUP3 ADD MSTORE PUSH32 0x54696D6520616C726561647920636865636B656420666F722074686973207469 PUSH1 0x44 DUP3 ADD MSTORE PUSH7 0x1B59481CDB1BDD PUSH1 0xCA SHL PUSH1 0x64 DUP3 ADD MSTORE PUSH1 0x84 ADD PUSH2 0x3B1 JUMP JUMPDEST PUSH1 0x9 SLOAD PUSH5 0xFFFFFFFFFF AND JUMPDEST DUP2 PUSH5 0xFFFFFFFFFF AND DUP2 PUSH5 0xFFFFFFFFFF AND GT PUSH2 0x2B7A JUMPI PUSH5 0xFFFFFFFFFF DUP2 AND PUSH1 0x0 SWAP1 DUP2 MSTORE PUSH1 0x2 PUSH1 0x20 SWAP1 DUP2 MSTORE PUSH1 0x40 DUP1 DUP4 KECCAK256 DUP1 SLOAD DUP3 MLOAD DUP2 DUP6 MUL DUP2 ADD DUP6 ADD SWAP1 SWAP4 MSTORE DUP1 DUP4 MSTORE SWAP2 SWAP3 SWAP1 SWAP2 SWAP1 DUP5 SWAP1 DUP5 ADD JUMPDEST DUP3 DUP3 LT ISZERO PUSH2 0x2AA8 JUMPI PUSH1 0x0 DUP5 DUP2 MSTORE PUSH1 0x20 SWAP1 DUP2 SWAP1 KECCAK256 PUSH1 0x40 DUP1 MLOAD PUSH2 0x100 DUP2 ADD DUP3 MSTORE PUSH1 0x5 DUP7 MUL SWAP1 SWAP3 ADD DUP1 SLOAD DUP4 MSTORE PUSH1 0x1 DUP1 DUP3 ADD SLOAD PUSH1 0x1 PUSH1 0x1 PUSH1 0xA0 SHL SUB SWAP1 DUP2 AND DUP6 DUP8 ADD MSTORE PUSH1 0x2 DUP4 ADD SLOAD DUP2 AND SWAP4 DUP6 ADD SWAP4 SWAP1 SWAP4 MSTORE PUSH1 0x3 DUP3 ADD SLOAD SWAP3 DUP4 AND PUSH1 0x60 DUP6 ADD MSTORE PUSH5 0xFFFFFFFFFF PUSH1 0x1 PUSH1 0xA0 SHL DUP5 DIV AND PUSH1 0x80 DUP6 ADD MSTORE PUSH1 0xFF PUSH1 0x1 PUSH1 0xC8 SHL DUP5 DIV DUP2 AND ISZERO ISZERO PUSH1 0xA0 DUP7 ADD MSTORE PUSH1 0x1 PUSH1 0xD0 SHL SWAP1 SWAP4 DIV SWAP1 SWAP3 AND ISZERO ISZERO PUSH1 0xC0 DUP5 ADD MSTORE PUSH1 0x4 ADD SLOAD PUSH1 0xE0 DUP4 ADD MSTORE SWAP1 DUP4 MSTORE SWAP1 SWAP3 ADD SWAP2 ADD PUSH2 0x2A02 JUMP JUMPDEST POP POP POP POP SWAP1 POP PUSH32 0xD0467E87C925B3AAA75DAA9AE7DDBC4E3FB9E730BC9D328E6732E9EB541DD8C9 PUSH1 0x40 MLOAD PUSH2 0x2AF4 SWAP1 PUSH1 0x20 DUP1 DUP3 MSTORE PUSH1 0x4 SWAP1 DUP3 ADD MSTORE PUSH4 0x646F6E65 PUSH1 0xE0 SHL PUSH1 0x40 DUP3 ADD MSTORE PUSH1 0x60 ADD SWAP1 JUMP JUMPDEST PUSH1 0x40 MLOAD DUP1 SWAP2 SUB SWAP1 LOG1 DUP1 MLOAD ISZERO PUSH2 0x2B67 JUMPI PUSH1 0x0 JUMPDEST DUP2 MLOAD DUP2 LT ISZERO PUSH2 0x2B65 JUMPI DUP2 DUP2 DUP2 MLOAD DUP2 LT PUSH2 0x2B21 JUMPI PUSH2 0x2B21 PUSH2 0x3C21 JUMP JUMPDEST PUSH1 0x20 MUL PUSH1 0x20 ADD ADD MLOAD PUSH1 0xC0 ADD MLOAD PUSH2 0x2B53 JUMPI PUSH2 0x2B53 DUP3 DUP3 DUP2 MLOAD DUP2 LT PUSH2 0x2B46 JUMPI PUSH2 0x2B46 PUSH2 0x3C21 JUMP JUMPDEST PUSH1 0x20 MUL PUSH1 0x20 ADD ADD MLOAD PUSH2 0x2FF3 JUMP JUMPDEST DUP1 PUSH2 0x2B5D DUP2 PUSH2 0x3C4D JUMP JUMPDEST SWAP2 POP POP PUSH2 0x2B06 JUMP JUMPDEST POP JUMPDEST POP DUP1 PUSH2 0x2B72 DUP2 PUSH2 0x3E31 JUMP JUMPDEST SWAP2 POP POP PUSH2 0x29B9 JUMP JUMPDEST POP PUSH1 0x9 DUP1 SLOAD PUSH5 0xFFFFFFFFFF NOT AND PUSH5 0xFFFFFFFFFF SWAP3 SWAP1 SWAP3 AND SWAP2 SWAP1 SWAP2 OR SWAP1 SSTORE JUMP JUMPDEST PUSH2 0x2BA2 DUP2 PUSH2 0x6C7 JUMP JUMPDEST PUSH5 0xFFFFFFFFFF DUP2 AND PUSH1 0x0 SWAP1 DUP2 MSTORE PUSH1 0x2 PUSH1 0x20 SWAP1 DUP2 MSTORE PUSH1 0x40 DUP1 DUP4 KECCAK256 DUP1 SLOAD DUP3 MLOAD DUP2 DUP6 MUL DUP2 ADD DUP6 ADD SWAP1 SWAP4 MSTORE DUP1 DUP4 MSTORE SWAP5 SWAP6 POP SWAP3 SWAP4 SWAP1 SWAP3 SWAP2 DUP5 SWAP1 DUP5 ADD JUMPDEST DUP3 DUP3 LT ISZERO PUSH2 0x2C7F JUMPI PUSH1 0x0 DUP5 DUP2 MSTORE PUSH1 0x20 SWAP1 DUP2 SWAP1 KECCAK256 PUSH1 0x40 DUP1 MLOAD PUSH2 0x100 DUP2 ADD DUP3 MSTORE PUSH1 0x5 DUP7 MUL SWAP1 SWAP3 ADD DUP1 SLOAD DUP4 MSTORE PUSH1 0x1 DUP1 DUP3 ADD SLOAD PUSH1 0x1 PUSH1 0x1 PUSH1 0xA0 SHL SUB SWAP1 DUP2 AND DUP6 DUP8 ADD MSTORE PUSH1 0x2 DUP4 ADD SLOAD DUP2 AND SWAP4 DUP6 ADD SWAP4 SWAP1 SWAP4 MSTORE PUSH1 0x3 DUP3 ADD SLOAD SWAP3 DUP4 AND PUSH1 0x60 DUP6 ADD MSTORE PUSH5 0xFFFFFFFFFF PUSH1 0x1 PUSH1 0xA0 SHL DUP5 DIV AND PUSH1 0x80 DUP6 ADD MSTORE PUSH1 0xFF PUSH1 0x1 PUSH1 0xC8 SHL DUP5 DIV DUP2 AND ISZERO ISZERO PUSH1 0xA0 DUP7 ADD MSTORE PUSH1 0x1 PUSH1 0xD0 SHL SWAP1 SWAP4 DIV SWAP1 SWAP3 AND ISZERO ISZERO PUSH1 0xC0 DUP5 ADD MSTORE PUSH1 0x4 ADD SLOAD PUSH1 0xE0 DUP4 ADD MSTORE SWAP1 DUP4 MSTORE SWAP1 SWAP3 ADD SWAP2 ADD PUSH2 0x2BD9 JUMP JUMPDEST POP POP POP POP PUSH5 0xFFFFFFFFFF DUP4 AND PUSH1 0x0 SWAP1 DUP2 MSTORE PUSH1 0x2 PUSH1 0x20 MSTORE PUSH1 0x40 SWAP1 KECCAK256 SWAP1 SWAP2 POP PUSH2 0x2CA4 PUSH2 0x358F JUMP JUMPDEST PUSH1 0x0 JUMPDEST DUP4 MLOAD DUP2 LT ISZERO PUSH2 0x2DF0 JUMPI DUP6 DUP5 DUP3 DUP2 MLOAD DUP2 LT PUSH2 0x2CC3 JUMPI PUSH2 0x2CC3 PUSH2 0x3C21 JUMP JUMPDEST PUSH1 0x20 MUL PUSH1 0x20 ADD ADD MLOAD PUSH1 0x0 ADD MLOAD EQ ISZERO PUSH2 0x2DDE JUMPI DUP4 DUP2 DUP2 MLOAD DUP2 LT PUSH2 0x2CE7 JUMPI PUSH2 0x2CE7 PUSH2 0x3C21 JUMP JUMPDEST PUSH1 0x20 SWAP1 DUP2 MUL SWAP2 SWAP1 SWAP2 ADD ADD MLOAD PUSH1 0x1 PUSH1 0xC0 DUP3 ADD MSTORE DUP4 SLOAD SWAP1 SWAP3 POP DUP3 SWAP1 DUP5 SWAP1 DUP4 SWAP1 DUP2 LT PUSH2 0x2D12 JUMPI PUSH2 0x2D12 PUSH2 0x3C21 JUMP JUMPDEST PUSH1 0x0 SWAP2 DUP3 MSTORE PUSH1 0x20 SWAP2 DUP3 SWAP1 KECCAK256 DUP4 MLOAD PUSH1 0x5 SWAP1 SWAP3 MUL ADD SWAP1 DUP2 SSTORE SWAP1 DUP3 ADD MLOAD PUSH1 0x1 DUP3 ADD DUP1 SLOAD PUSH1 0x1 PUSH1 0x1 PUSH1 0xA0 SHL SUB SWAP3 DUP4 AND PUSH1 0x1 PUSH1 0x1 PUSH1 0xA0 SHL SUB NOT SWAP2 DUP3 AND OR SWAP1 SWAP2 SSTORE PUSH1 0x40 DUP5 ADD MLOAD PUSH1 0x2 DUP5 ADD DUP1 SLOAD SWAP2 DUP5 AND SWAP2 SWAP1 SWAP3 AND OR SWAP1 SSTORE PUSH1 0x60 DUP4 ADD MLOAD PUSH1 0x3 DUP4 ADD DUP1 SLOAD PUSH1 0x80 DUP7 ADD MLOAD PUSH1 0xA0 DUP8 ADD MLOAD PUSH1 0xC0 DUP9 ADD MLOAD ISZERO ISZERO PUSH1 0x1 PUSH1 0xD0 SHL MUL PUSH1 0xFF PUSH1 0xD0 SHL NOT SWAP2 ISZERO ISZERO PUSH1 0x1 PUSH1 0xC8 SHL MUL SWAP2 SWAP1 SWAP2 AND PUSH2 0xFFFF PUSH1 0xC8 SHL NOT PUSH5 0xFFFFFFFFFF SWAP1 SWAP4 AND PUSH1 0x1 PUSH1 0xA0 SHL MUL PUSH1 0x1 PUSH1 0x1 PUSH1 0xC8 SHL SUB NOT SWAP1 SWAP5 AND SWAP6 SWAP1 SWAP7 AND SWAP5 SWAP1 SWAP5 OR SWAP2 SWAP1 SWAP2 OR AND SWAP3 SWAP1 SWAP3 OR OR SWAP1 SSTORE PUSH1 0xE0 SWAP1 SWAP2 ADD MLOAD PUSH1 0x4 SWAP1 SWAP2 ADD SSTORE PUSH2 0x2DF0 JUMP JUMPDEST DUP1 PUSH2 0x2DE8 DUP2 PUSH2 0x3C4D JUMP JUMPDEST SWAP2 POP POP PUSH2 0x2CA7 JUMP JUMPDEST POP PUSH1 0xE0 DUP2 ADD MLOAD SELFBALANCE GT PUSH2 0x2E01 JUMPI PUSH1 0x0 DUP1 REVERT JUMPDEST DUP1 PUSH1 0x20 ADD MLOAD PUSH1 0x1 PUSH1 0x1 PUSH1 0xA0 SHL SUB AND PUSH2 0x8FC DUP3 PUSH1 0xE0 ADD MLOAD SWAP1 DUP2 ISZERO MUL SWAP1 PUSH1 0x40 MLOAD PUSH1 0x0 PUSH1 0x40 MLOAD DUP1 DUP4 SUB DUP2 DUP6 DUP9 DUP9 CALL SWAP4 POP POP POP POP PUSH2 0x2E3A JUMPI PUSH1 0x0 DUP1 REVERT JUMPDEST PUSH5 0xFFFFFFFFFF DUP5 AND PUSH1 0x0 SWAP1 DUP2 MSTORE PUSH1 0x2 PUSH1 0x20 MSTORE PUSH1 0x40 SWAP1 KECCAK256 DUP3 SLOAD PUSH2 0x2E5E SWAP2 SWAP1 DUP5 SWAP1 PUSH2 0x35D3 JUMP JUMPDEST POP POP POP POP POP POP JUMP JUMPDEST PUSH1 0x0 DUP1 PUSH1 0x6 DUP1 SLOAD DUP1 PUSH1 0x20 MUL PUSH1 0x20 ADD PUSH1 0x40 MLOAD SWAP1 DUP2 ADD PUSH1 0x40 MSTORE DUP1 SWAP3 SWAP2 SWAP1 DUP2 DUP2 MSTORE PUSH1 0x20 ADD DUP3 DUP1 SLOAD DUP1 ISZERO PUSH2 0x2EBF JUMPI PUSH1 0x20 MUL DUP3 ADD SWAP2 SWAP1 PUSH1 0x0 MSTORE PUSH1 0x20 PUSH1 0x0 KECCAK256 SWAP1 JUMPDEST DUP2 SLOAD PUSH1 0x1 PUSH1 0x1 PUSH1 0xA0 SHL SUB AND DUP2 MSTORE PUSH1 0x1 SWAP1 SWAP2 ADD SWAP1 PUSH1 0x20 ADD DUP1 DUP4 GT PUSH2 0x2EA1 JUMPI JUMPDEST POP POP POP POP POP SWAP1 POP PUSH1 0x0 SWAP2 POP PUSH1 0x0 JUMPDEST DUP2 MLOAD DUP2 LT ISZERO PUSH2 0x2F20 JUMPI DUP2 DUP2 DUP2 MLOAD DUP2 LT PUSH2 0x2EE8 JUMPI PUSH2 0x2EE8 PUSH2 0x3C21 JUMP JUMPDEST PUSH1 0x20 MUL PUSH1 0x20 ADD ADD MLOAD PUSH1 0x1 PUSH1 0x1 PUSH1 0xA0 SHL SUB AND DUP5 PUSH1 0x1 PUSH1 0x1 PUSH1 0xA0 SHL SUB AND EQ ISZERO PUSH2 0x2F0E JUMPI PUSH1 0x1 SWAP3 POP JUMPDEST DUP1 PUSH2 0x2F18 DUP2 PUSH2 0x3C4D JUMP JUMPDEST SWAP2 POP POP PUSH2 0x2ECD JUMP JUMPDEST POP POP SWAP2 SWAP1 POP JUMP JUMPDEST PUSH2 0x2F2F PUSH2 0x358F JUMP JUMPDEST PUSH1 0x40 MLOAD PUSH12 0xFFFFFFFFFFFFFFFFFFFFFFFF NOT PUSH1 0x60 DUP9 SWAP1 SHL AND PUSH1 0x20 DUP3 ADD MSTORE PUSH1 0x1 PUSH1 0x1 PUSH1 0xD8 SHL SUB NOT PUSH1 0xD8 DUP6 SWAP1 SHL AND PUSH1 0x34 DUP3 ADD MSTORE TIMESTAMP PUSH1 0x39 DUP3 ADD MSTORE PUSH1 0x0 SWAP1 PUSH1 0x59 ADD PUSH1 0x40 DUP1 MLOAD PUSH1 0x1F NOT DUP2 DUP5 SUB ADD DUP2 MSTORE DUP3 DUP3 MSTORE DUP1 MLOAD PUSH1 0x20 SWAP2 DUP3 ADD KECCAK256 PUSH2 0x100 DUP5 ADD DUP4 MSTORE DUP4 MSTORE PUSH1 0x1 PUSH1 0x1 PUSH1 0xA0 SHL SUB SWAP10 DUP11 AND SWAP1 DUP4 ADD MSTORE SWAP7 DUP9 AND SWAP7 DUP2 ADD SWAP7 SWAP1 SWAP7 MSTORE POP POP SWAP2 SWAP1 SWAP4 AND PUSH1 0x60 DUP4 ADD MSTORE PUSH5 0xFFFFFFFFFF SWAP1 SWAP3 AND PUSH1 0x80 DUP3 ADD MSTORE PUSH1 0x0 PUSH1 0xA0 DUP3 ADD DUP2 SWAP1 MSTORE PUSH1 0xC0 DUP3 ADD MSTORE PUSH1 0xE0 DUP2 ADD SWAP2 SWAP1 SWAP2 MSTORE SWAP1 JUMP JUMPDEST PUSH1 0x0 PUSH2 0x2FE5 DUP3 PUSH2 0xE10 PUSH2 0x3E4C JUMP JUMPDEST PUSH2 0x6E4 SWAP1 PUSH4 0x63236820 PUSH2 0x3E79 JUMP JUMPDEST PUSH1 0x7 SLOAD PUSH1 0xFF AND PUSH2 0x358C JUMPI PUSH1 0xE0 DUP2 ADD MLOAD PUSH1 0x20 DUP1 DUP4 ADD MLOAD PUSH1 0x60 DUP5 ADD MLOAD PUSH1 0x1 PUSH1 0x1 PUSH1 0xA0 SHL SUB SWAP2 DUP3 AND PUSH1 0x0 SWAP1 DUP2 MSTORE PUSH1 0x4 DUP5 MSTORE PUSH1 0x40 DUP1 DUP3 KECCAK256 SWAP4 SWAP1 SWAP3 AND DUP2 MSTORE SWAP2 SWAP1 SWAP3 MSTORE KECCAK256 SLOAD LT ISZERO PUSH2 0x303D JUMPI PUSH1 0x0 DUP1 REVERT JUMPDEST PUSH1 0x60 DUP2 ADD MLOAD PUSH1 0x1 PUSH1 0x1 PUSH1 0xA0 SHL SUB AND PUSH2 0x3064 JUMPI PUSH1 0xE0 DUP2 ADD MLOAD SELFBALANCE GT PUSH2 0x305F JUMPI PUSH1 0x0 DUP1 REVERT JUMPDEST PUSH2 0x30F3 JUMP JUMPDEST PUSH1 0xE0 DUP2 ADD MLOAD PUSH1 0x60 DUP3 ADD MLOAD PUSH1 0x40 MLOAD PUSH4 0x70A08231 PUSH1 0xE0 SHL DUP2 MSTORE ADDRESS PUSH1 0x4 DUP3 ADD MSTORE PUSH1 0x1 PUSH1 0x1 PUSH1 0xA0 SHL SUB SWAP1 SWAP2 AND SWAP1 PUSH4 0x70A08231 SWAP1 PUSH1 0x24 ADD PUSH1 0x20 PUSH1 0x40 MLOAD DUP1 DUP4 SUB DUP2 PUSH1 0x0 DUP8 DUP1 EXTCODESIZE ISZERO DUP1 ISZERO PUSH2 0x30B0 JUMPI PUSH1 0x0 DUP1 REVERT JUMPDEST POP GAS CALL ISZERO DUP1 ISZERO PUSH2 0x30C4 JUMPI RETURNDATASIZE PUSH1 0x0 DUP1 RETURNDATACOPY RETURNDATASIZE PUSH1 0x0 REVERT JUMPDEST POP POP POP POP PUSH1 0x40 MLOAD RETURNDATASIZE PUSH1 0x1F NOT PUSH1 0x1F DUP3 ADD AND DUP3 ADD DUP1 PUSH1 0x40 MSTORE POP DUP2 ADD SWAP1 PUSH2 0x30E8 SWAP2 SWAP1 PUSH2 0x3EA2 JUMP JUMPDEST LT ISZERO PUSH2 0x30F3 JUMPI PUSH1 0x0 DUP1 REVERT JUMPDEST PUSH1 0x80 DUP2 ADD MLOAD PUSH5 0xFFFFFFFFFF AND PUSH1 0x0 SWAP1 DUP2 MSTORE PUSH1 0x2 PUSH1 0x20 SWAP1 DUP2 MSTORE PUSH1 0x40 DUP1 DUP4 KECCAK256 DUP1 SLOAD DUP3 MLOAD DUP2 DUP6 MUL DUP2 ADD DUP6 ADD SWAP1 SWAP4 MSTORE DUP1 DUP4 MSTORE SWAP2 SWAP3 SWAP1 SWAP2 SWAP1 DUP5 SWAP1 DUP5 ADD JUMPDEST DUP3 DUP3 LT ISZERO PUSH2 0x31D1 JUMPI PUSH1 0x0 DUP5 DUP2 MSTORE PUSH1 0x20 SWAP1 DUP2 SWAP1 KECCAK256 PUSH1 0x40 DUP1 MLOAD PUSH2 0x100 DUP2 ADD DUP3 MSTORE PUSH1 0x5 DUP7 MUL SWAP1 SWAP3 ADD DUP1 SLOAD DUP4 MSTORE PUSH1 0x1 DUP1 DUP3 ADD SLOAD PUSH1 0x1 PUSH1 0x1 PUSH1 0xA0 SHL SUB SWAP1 DUP2 AND DUP6 DUP8 ADD MSTORE PUSH1 0x2 DUP4 ADD SLOAD DUP2 AND SWAP4 DUP6 ADD SWAP4 SWAP1 SWAP4 MSTORE PUSH1 0x3 DUP3 ADD SLOAD SWAP3 DUP4 AND PUSH1 0x60 DUP6 ADD MSTORE PUSH5 0xFFFFFFFFFF PUSH1 0x1 PUSH1 0xA0 SHL DUP5 DIV AND PUSH1 0x80 DUP6 ADD MSTORE PUSH1 0xFF PUSH1 0x1 PUSH1 0xC8 SHL DUP5 DIV DUP2 AND ISZERO ISZERO PUSH1 0xA0 DUP7 ADD MSTORE PUSH1 0x1 PUSH1 0xD0 SHL SWAP1 SWAP4 DIV SWAP1 SWAP3 AND ISZERO ISZERO PUSH1 0xC0 DUP5 ADD MSTORE PUSH1 0x4 ADD SLOAD PUSH1 0xE0 DUP4 ADD MSTORE SWAP1 DUP4 MSTORE SWAP1 SWAP3 ADD SWAP2 ADD PUSH2 0x312B JUMP JUMPDEST POP POP POP POP PUSH1 0x80 DUP4 ADD MLOAD PUSH5 0xFFFFFFFFFF AND PUSH1 0x0 SWAP1 DUP2 MSTORE PUSH1 0x2 PUSH1 0x20 MSTORE PUSH1 0x40 DUP2 KECCAK256 SWAP2 SWAP3 POP JUMPDEST DUP3 MLOAD DUP2 LT ISZERO PUSH2 0x3340 JUMPI DUP4 PUSH1 0x0 ADD MLOAD DUP4 DUP3 DUP2 MLOAD DUP2 LT PUSH2 0x3213 JUMPI PUSH2 0x3213 PUSH2 0x3C21 JUMP JUMPDEST PUSH1 0x20 MUL PUSH1 0x20 ADD ADD MLOAD PUSH1 0x0 ADD MLOAD EQ ISZERO PUSH2 0x332E JUMPI DUP3 DUP2 DUP2 MLOAD DUP2 LT PUSH2 0x3237 JUMPI PUSH2 0x3237 PUSH2 0x3C21 JUMP JUMPDEST PUSH1 0x20 SWAP1 DUP2 MUL SWAP2 SWAP1 SWAP2 ADD ADD MLOAD PUSH1 0x1 PUSH1 0xA0 DUP3 ADD MSTORE DUP3 SLOAD SWAP1 SWAP5 POP DUP5 SWAP1 DUP4 SWAP1 DUP4 SWAP1 DUP2 LT PUSH2 0x3262 JUMPI PUSH2 0x3262 PUSH2 0x3C21 JUMP JUMPDEST PUSH1 0x0 SWAP2 DUP3 MSTORE PUSH1 0x20 SWAP2 DUP3 SWAP1 KECCAK256 DUP4 MLOAD PUSH1 0x5 SWAP1 SWAP3 MUL ADD SWAP1 DUP2 SSTORE SWAP1 DUP3 ADD MLOAD PUSH1 0x1 DUP3 ADD DUP1 SLOAD PUSH1 0x1 PUSH1 0x1 PUSH1 0xA0 SHL SUB SWAP3 DUP4 AND PUSH1 0x1 PUSH1 0x1 PUSH1 0xA0 SHL SUB NOT SWAP2 DUP3 AND OR SWAP1 SWAP2 SSTORE PUSH1 0x40 DUP5 ADD MLOAD PUSH1 0x2 DUP5 ADD DUP1 SLOAD SWAP2 DUP5 AND SWAP2 SWAP1 SWAP3 AND OR SWAP1 SSTORE PUSH1 0x60 DUP4 ADD MLOAD PUSH1 0x3 DUP4 ADD DUP1 SLOAD PUSH1 0x80 DUP7 ADD MLOAD PUSH1 0xA0 DUP8 ADD MLOAD PUSH1 0xC0 DUP9 ADD MLOAD ISZERO ISZERO PUSH1 0x1 PUSH1 0xD0 SHL MUL PUSH1 0xFF PUSH1 0xD0 SHL NOT SWAP2 ISZERO ISZERO PUSH1 0x1 PUSH1 0xC8 SHL MUL SWAP2 SWAP1 SWAP2 AND PUSH2 0xFFFF PUSH1 0xC8 SHL NOT PUSH5 0xFFFFFFFFFF SWAP1 SWAP4 AND PUSH1 0x1 PUSH1 0xA0 SHL MUL PUSH1 0x1 PUSH1 0x1 PUSH1 0xC8 SHL SUB NOT SWAP1 SWAP5 AND SWAP6 SWAP1 SWAP7 AND SWAP5 SWAP1 SWAP5 OR SWAP2 SWAP1 SWAP2 OR AND SWAP3 SWAP1 SWAP3 OR OR SWAP1 SSTORE PUSH1 0xE0 SWAP1 SWAP2 ADD MLOAD PUSH1 0x4 SWAP1 SWAP2 ADD SSTORE PUSH2 0x3340 JUMP JUMPDEST DUP1 PUSH2 0x3338 DUP2 PUSH2 0x3C4D JUMP JUMPDEST SWAP2 POP POP PUSH2 0x31F3 JUMP JUMPDEST POP PUSH1 0x80 DUP4 ADD MLOAD PUSH5 0xFFFFFFFFFF AND PUSH1 0x0 SWAP1 DUP2 MSTORE PUSH1 0x2 PUSH1 0x20 MSTORE PUSH1 0x40 SWAP1 KECCAK256 DUP2 SLOAD PUSH2 0x3369 SWAP2 SWAP1 DUP4 SWAP1 PUSH2 0x35D3 JUMP JUMPDEST POP PUSH1 0x60 DUP4 ADD MLOAD PUSH1 0x1 PUSH1 0x1 PUSH1 0xA0 SHL SUB AND PUSH2 0x3454 JUMPI PUSH1 0x0 DUP4 PUSH1 0x40 ADD MLOAD PUSH1 0x1 PUSH1 0x1 PUSH1 0xA0 SHL SUB AND DUP5 PUSH1 0xE0 ADD MLOAD PUSH1 0x40 MLOAD PUSH1 0x0 PUSH1 0x40 MLOAD DUP1 DUP4 SUB DUP2 DUP6 DUP8 GAS CALL SWAP3 POP POP POP RETURNDATASIZE DUP1 PUSH1 0x0 DUP2 EQ PUSH2 0x33D1 JUMPI PUSH1 0x40 MLOAD SWAP2 POP PUSH1 0x1F NOT PUSH1 0x3F RETURNDATASIZE ADD AND DUP3 ADD PUSH1 0x40 MSTORE RETURNDATASIZE DUP3 MSTORE RETURNDATASIZE PUSH1 0x0 PUSH1 0x20 DUP5 ADD RETURNDATACOPY PUSH2 0x33D6 JUMP JUMPDEST PUSH1 0x60 SWAP2 POP JUMPDEST POP POP SWAP1 POP DUP1 PUSH2 0x341A JUMPI PUSH1 0x40 MLOAD PUSH3 0x461BCD PUSH1 0xE5 SHL DUP2 MSTORE PUSH1 0x20 PUSH1 0x4 DUP3 ADD MSTORE PUSH1 0x10 PUSH1 0x24 DUP3 ADD MSTORE PUSH16 0x2A3930B739B332B9103330B4B632B217 PUSH1 0x81 SHL PUSH1 0x44 DUP3 ADD MSTORE PUSH1 0x64 ADD PUSH2 0x3B1 JUMP JUMPDEST PUSH1 0x40 MLOAD PUSH1 0x1 DUP2 MSTORE PUSH32 0xA2EA5B0DB1D57B0E32DF654AA9A1A97BC8066881E37669FF488D2BEBE87C9F87 SWAP1 PUSH1 0x20 ADD PUSH1 0x40 MLOAD DUP1 SWAP2 SUB SWAP1 LOG1 POP PUSH2 0x3589 JUMP JUMPDEST PUSH1 0x60 DUP4 ADD MLOAD PUSH1 0xE0 DUP5 ADD MLOAD PUSH1 0x40 MLOAD PUSH4 0x95EA7B3 PUSH1 0xE0 SHL DUP2 MSTORE ADDRESS PUSH1 0x4 DUP3 ADD MSTORE PUSH1 0x24 DUP2 ADD SWAP2 SWAP1 SWAP2 MSTORE PUSH1 0x1 PUSH1 0x1 PUSH1 0xA0 SHL SUB SWAP1 SWAP2 AND SWAP1 PUSH4 0x95EA7B3 SWAP1 PUSH1 0x44 ADD PUSH1 0x20 PUSH1 0x40 MLOAD DUP1 DUP4 SUB DUP2 PUSH1 0x0 DUP8 DUP1 EXTCODESIZE ISZERO DUP1 ISZERO PUSH2 0x34A8 JUMPI PUSH1 0x0 DUP1 REVERT JUMPDEST POP GAS CALL ISZERO DUP1 ISZERO PUSH2 0x34BC JUMPI RETURNDATASIZE PUSH1 0x0 DUP1 RETURNDATACOPY RETURNDATASIZE PUSH1 0x0 REVERT JUMPDEST POP POP POP POP PUSH1 0x40 MLOAD RETURNDATASIZE PUSH1 0x1F NOT PUSH1 0x1F DUP3 ADD AND DUP3 ADD DUP1 PUSH1 0x40 MSTORE POP DUP2 ADD SWAP1 PUSH2 0x34E0 SWAP2 SWAP1 PUSH2 0x3DED JUMP JUMPDEST DUP1 ISZERO PUSH2 0x3580 JUMPI POP PUSH1 0x60 DUP4 ADD MLOAD PUSH1 0x40 DUP1 DUP6 ADD MLOAD PUSH1 0xE0 DUP7 ADD MLOAD SWAP2 MLOAD PUSH4 0x23B872DD PUSH1 0xE0 SHL DUP2 MSTORE ADDRESS PUSH1 0x4 DUP3 ADD MSTORE PUSH1 0x1 PUSH1 0x1 PUSH1 0xA0 SHL SUB SWAP2 DUP3 AND PUSH1 0x24 DUP3 ADD MSTORE PUSH1 0x44 DUP2 ADD SWAP3 SWAP1 SWAP3 MSTORE SWAP1 SWAP2 AND SWAP1 PUSH4 0x23B872DD SWAP1 PUSH1 0x64 ADD PUSH1 0x20 PUSH1 0x40 MLOAD DUP1 DUP4 SUB DUP2 PUSH1 0x0 DUP8 DUP1 EXTCODESIZE ISZERO DUP1 ISZERO PUSH2 0x3548 JUMPI PUSH1 0x0 DUP1 REVERT JUMPDEST POP GAS CALL ISZERO DUP1 ISZERO PUSH2 0x355C JUMPI RETURNDATASIZE PUSH1 0x0 DUP1 RETURNDATACOPY RETURNDATASIZE PUSH1 0x0 REVERT JUMPDEST POP POP POP POP PUSH1 0x40 MLOAD RETURNDATASIZE PUSH1 0x1F NOT PUSH1 0x1F DUP3 ADD AND DUP3 ADD DUP1 PUSH1 0x40 MSTORE POP DUP2 ADD SWAP1 PUSH2 0x3580 SWAP2 SWAP1 PUSH2 0x3DED JUMP JUMPDEST PUSH2 0x3589 JUMPI PUSH1 0x0 DUP1 REVERT JUMPDEST POP POP JUMPDEST POP JUMP JUMPDEST PUSH1 0x40 DUP1 MLOAD PUSH2 0x100 DUP2 ADD DUP3 MSTORE PUSH1 0x0 DUP1 DUP3 MSTORE PUSH1 0x20 DUP3 ADD DUP2 SWAP1 MSTORE SWAP2 DUP2 ADD DUP3 SWAP1 MSTORE PUSH1 0x60 DUP2 ADD DUP3 SWAP1 MSTORE PUSH1 0x80 DUP2 ADD DUP3 SWAP1 MSTORE PUSH1 0xA0 DUP2 ADD DUP3 SWAP1 MSTORE PUSH1 0xC0 DUP2 ADD DUP3 SWAP1 MSTORE PUSH1 0xE0 DUP2 ADD SWAP2 SWAP1 SWAP2 MSTORE SWAP1 JUMP JUMPDEST DUP3 DUP1 SLOAD DUP3 DUP3 SSTORE SWAP1 PUSH1 0x0 MSTORE PUSH1 0x20 PUSH1 0x0 KECCAK256 SWAP1 PUSH1 0x5 MUL DUP2 ADD SWAP3 DUP3 ISZERO PUSH2 0x36E8 JUMPI PUSH1 0x0 MSTORE PUSH1 0x20 PUSH1 0x0 KECCAK256 SWAP2 PUSH1 0x5 MUL DUP3 ADD JUMPDEST DUP3 DUP2 GT ISZERO PUSH2 0x36E8 JUMPI DUP3 SLOAD DUP3 SSTORE PUSH1 0x1 DUP1 DUP5 ADD SLOAD SWAP1 DUP4 ADD DUP1 SLOAD PUSH1 0x1 PUSH1 0x1 PUSH1 0xA0 SHL SUB NOT SWAP1 DUP2 AND PUSH1 0x1 PUSH1 0x1 PUSH1 0xA0 SHL SUB SWAP4 DUP5 AND OR SWAP1 SWAP2 SSTORE PUSH1 0x2 DUP1 DUP7 ADD SLOAD SWAP1 DUP6 ADD DUP1 SLOAD DUP4 AND SWAP2 DUP5 AND SWAP2 SWAP1 SWAP2 OR SWAP1 SSTORE PUSH1 0x3 DUP1 DUP7 ADD DUP1 SLOAD SWAP2 DUP7 ADD DUP1 SLOAD SWAP4 DUP5 AND SWAP3 SWAP1 SWAP5 AND SWAP2 DUP3 OR DUP5 SSTORE DUP1 SLOAD PUSH5 0xFFFFFFFFFF PUSH1 0x1 PUSH1 0xA0 SHL SWAP2 DUP3 SWAP1 DIV AND MUL PUSH1 0x1 PUSH1 0x1 PUSH1 0xC8 SHL SUB NOT SWAP1 SWAP4 AND SWAP1 SWAP2 OR SWAP2 SWAP1 SWAP2 OR DUP1 DUP4 SSTORE DUP2 SLOAD PUSH1 0xFF PUSH1 0x1 PUSH1 0xC8 SHL SWAP2 DUP3 SWAP1 DIV DUP2 AND ISZERO ISZERO SWAP1 SWAP2 MUL PUSH1 0xFF PUSH1 0xC8 SHL NOT DUP4 AND DUP2 OR DUP6 SSTORE SWAP3 SLOAD PUSH1 0x1 PUSH1 0xD0 SHL SWAP1 DUP2 SWAP1 DIV SWAP1 SWAP2 AND ISZERO ISZERO MUL PUSH1 0xFF PUSH1 0xD0 SHL NOT SWAP1 SWAP3 AND PUSH2 0xFFFF PUSH1 0xC8 SHL NOT SWAP1 SWAP2 AND OR OR SWAP1 SSTORE PUSH1 0x4 DUP1 DUP5 ADD SLOAD SWAP1 DUP4 ADD SSTORE PUSH1 0x5 SWAP3 DUP4 ADD SWAP3 SWAP1 SWAP2 ADD SWAP1 PUSH2 0x35FE JUMP JUMPDEST POP PUSH2 0x36F4 SWAP3 SWAP2 POP PUSH2 0x3791 JUMP JUMPDEST POP SWAP1 JUMP JUMPDEST DUP3 DUP1 SLOAD DUP3 DUP3 SSTORE SWAP1 PUSH1 0x0 MSTORE PUSH1 0x20 PUSH1 0x0 KECCAK256 SWAP1 PUSH1 0x5 ADD PUSH1 0x6 SWAP1 DIV DUP2 ADD SWAP3 DUP3 ISZERO PUSH2 0x3746 JUMPI PUSH1 0x0 MSTORE PUSH1 0x20 PUSH1 0x0 KECCAK256 SWAP2 PUSH1 0x5 ADD PUSH1 0x6 SWAP1 DIV DUP3 ADD JUMPDEST DUP3 DUP2 GT ISZERO PUSH2 0x3746 JUMPI DUP3 SLOAD DUP3 SSTORE SWAP2 PUSH1 0x1 ADD SWAP2 SWAP1 PUSH1 0x1 ADD SWAP1 PUSH2 0x372B JUMP JUMPDEST POP PUSH2 0x36F4 SWAP3 SWAP2 POP PUSH2 0x37DE JUMP JUMPDEST DUP3 DUP1 SLOAD DUP3 DUP3 SSTORE SWAP1 PUSH1 0x0 MSTORE PUSH1 0x20 PUSH1 0x0 KECCAK256 SWAP1 DUP2 ADD SWAP3 DUP3 ISZERO PUSH2 0x3746 JUMPI PUSH1 0x0 MSTORE PUSH1 0x20 PUSH1 0x0 KECCAK256 SWAP2 DUP3 ADD DUP3 DUP2 GT ISZERO PUSH2 0x3746 JUMPI DUP3 SLOAD DUP3 SSTORE SWAP2 PUSH1 0x1 ADD SWAP2 SWAP1 PUSH1 0x1 ADD SWAP1 PUSH2 0x372B JUMP JUMPDEST JUMPDEST DUP1 DUP3 GT ISZERO PUSH2 0x36F4 JUMPI PUSH1 0x0 DUP1 DUP3 SSTORE PUSH1 0x1 DUP3 ADD DUP1 SLOAD PUSH1 0x1 PUSH1 0x1 PUSH1 0xA0 SHL SUB NOT SWAP1 DUP2 AND SWAP1 SWAP2 SSTORE PUSH1 0x2 DUP4 ADD DUP1 SLOAD SWAP1 SWAP2 AND SWAP1 SSTORE PUSH1 0x3 DUP3 ADD DUP1 SLOAD PUSH1 0x1 PUSH1 0x1 PUSH1 0xD8 SHL SUB NOT AND SWAP1 SSTORE PUSH1 0x4 DUP3 ADD SSTORE PUSH1 0x5 ADD PUSH2 0x3792 JUMP JUMPDEST JUMPDEST DUP1 DUP3 GT ISZERO PUSH2 0x36F4 JUMPI PUSH1 0x0 DUP2 SSTORE PUSH1 0x1 ADD PUSH2 0x37DF JUMP JUMPDEST PUSH1 0x1 PUSH1 0x1 PUSH1 0xA0 SHL SUB DUP2 AND DUP2 EQ PUSH2 0x358C JUMPI PUSH1 0x0 DUP1 REVERT JUMPDEST PUSH1 0x0 PUSH1 0x20 DUP3 DUP5 SUB SLT ISZERO PUSH2 0x381A JUMPI PUSH1 0x0 DUP1 REVERT JUMPDEST DUP2 CALLDATALOAD PUSH2 0x3825 DUP2 PUSH2 0x37F3 JUMP JUMPDEST SWAP4 SWAP3 POP POP POP JUMP JUMPDEST PUSH1 0x20 DUP1 DUP3 MSTORE DUP3 MLOAD DUP3 DUP3 ADD DUP2 SWAP1 MSTORE PUSH1 0x0 SWAP2 SWAP1 PUSH1 0x40 SWAP1 DUP2 DUP6 ADD SWAP1 DUP7 DUP5 ADD DUP6 JUMPDEST DUP3 DUP2 LT ISZERO PUSH2 0x38C7 JUMPI DUP2 MLOAD DUP1 MLOAD DUP6 MSTORE DUP7 DUP2 ADD MLOAD PUSH1 0x1 PUSH1 0x1 PUSH1 0xA0 SHL SUB SWAP1 DUP2 AND DUP9 DUP8 ADD MSTORE DUP7 DUP3 ADD MLOAD DUP2 AND DUP8 DUP8 ADD MSTORE PUSH1 0x60 DUP1 DUP4 ADD MLOAD SWAP1 SWAP2 AND SWAP1 DUP7 ADD MSTORE PUSH1 0x80 DUP1 DUP3 ADD MLOAD PUSH5 0xFFFFFFFFFF AND SWAP1 DUP7 ADD MSTORE PUSH1 0xA0 DUP1 DUP3 ADD MLOAD ISZERO ISZERO SWAP1 DUP7 ADD MSTORE PUSH1 0xC0 DUP1 DUP3 ADD MLOAD ISZERO ISZERO SWAP1 DUP7 ADD MSTORE PUSH1 0xE0 SWAP1 DUP2 ADD MLOAD SWAP1 DUP6 ADD MSTORE PUSH2 0x100 SWAP1 SWAP4 ADD SWAP3 SWAP1 DUP6 ADD SWAP1 PUSH1 0x1 ADD PUSH2 0x3849 JUMP JUMPDEST POP SWAP2 SWAP8 SWAP7 POP POP POP POP POP POP POP JUMP JUMPDEST PUSH1 0x0 PUSH1 0x20 DUP3 DUP5 SUB SLT ISZERO PUSH2 0x38E6 JUMPI PUSH1 0x0 DUP1 REVERT JUMPDEST POP CALLDATALOAD SWAP2 SWAP1 POP JUMP JUMPDEST DUP1 CALLDATALOAD PUSH5 0xFFFFFFFFFF DUP2 AND DUP2 EQ PUSH2 0x2918 JUMPI PUSH1 0x0 DUP1 REVERT JUMPDEST PUSH1 0x0 PUSH1 0x20 DUP3 DUP5 SUB SLT ISZERO PUSH2 0x3914 JUMPI PUSH1 0x0 DUP1 REVERT JUMPDEST PUSH2 0x3825 DUP3 PUSH2 0x38ED JUMP JUMPDEST PUSH1 0x0 DUP1 PUSH1 0x0 DUP1 PUSH1 0x80 DUP6 DUP8 SUB SLT ISZERO PUSH2 0x3933 JUMPI PUSH1 0x0 DUP1 REVERT JUMPDEST DUP5 CALLDATALOAD PUSH2 0x393E DUP2 PUSH2 0x37F3 JUMP JUMPDEST SWAP4 POP PUSH2 0x394C PUSH1 0x20 DUP7 ADD PUSH2 0x38ED JUMP JUMPDEST SWAP3 POP PUSH1 0x40 DUP6 ADD CALLDATALOAD SWAP2 POP PUSH1 0x60 DUP6 ADD CALLDATALOAD PUSH2 0x3963 DUP2 PUSH2 0x37F3 JUMP JUMPDEST SWAP4 SWAP7 SWAP3 SWAP6 POP SWAP1 SWAP4 POP POP JUMP JUMPDEST PUSH1 0x0 DUP2 MLOAD DUP1 DUP5 MSTORE PUSH1 0x20 DUP1 DUP6 ADD SWAP5 POP DUP1 DUP5 ADD PUSH1 0x0 JUMPDEST DUP4 DUP2 LT ISZERO PUSH2 0x39A7 JUMPI DUP2 MLOAD PUSH1 0x1 PUSH1 0x1 PUSH1 0xA0 SHL SUB AND DUP8 MSTORE SWAP6 DUP3 ADD SWAP6 SWAP1 DUP3 ADD SWAP1 PUSH1 0x1 ADD PUSH2 0x3982 JUMP JUMPDEST POP SWAP5 SWAP6 SWAP5 POP POP POP POP POP JUMP JUMPDEST PUSH1 0x0 PUSH1 0x20 DUP1 DUP4 ADD DUP2 DUP5 MSTORE DUP1 DUP6 MLOAD DUP1 DUP4 MSTORE PUSH1 0x40 SWAP3 POP DUP3 DUP7 ADD SWAP2 POP DUP3 DUP2 PUSH1 0x5 SHL DUP8 ADD ADD DUP5 DUP9 ADD PUSH1 0x0 DUP1 JUMPDEST DUP5 DUP2 LT ISZERO PUSH2 0x3A7B JUMPI DUP10 DUP5 SUB PUSH1 0x3F NOT ADD DUP7 MSTORE DUP3 MLOAD DUP1 MLOAD PUSH1 0x1 PUSH1 0x1 PUSH1 0xA0 SHL SUB AND DUP6 MSTORE DUP9 DUP2 ADD MLOAD ISZERO ISZERO DUP10 DUP7 ADD MSTORE DUP8 DUP2 ADD MLOAD PUSH1 0x80 DUP10 DUP8 ADD DUP2 SWAP1 MSTORE DUP2 MLOAD SWAP1 DUP8 ADD DUP2 SWAP1 MSTORE PUSH1 0xA0 DUP8 ADD SWAP2 DUP12 ADD SWAP1 DUP6 SWAP1 JUMPDEST DUP1 DUP3 LT ISZERO PUSH2 0x3A4A JUMPI DUP3 MLOAD PUSH5 0xFFFFFFFFFF AND DUP5 MSTORE SWAP3 DUP13 ADD SWAP3 SWAP2 DUP13 ADD SWAP2 PUSH1 0x1 SWAP2 SWAP1 SWAP2 ADD SWAP1 PUSH2 0x3A23 JUMP JUMPDEST POP POP POP PUSH1 0x60 DUP1 DUP4 ADD MLOAD SWAP3 POP DUP7 DUP3 SUB DUP2 DUP9 ADD MSTORE POP PUSH2 0x3A67 DUP2 DUP4 PUSH2 0x396E JUMP JUMPDEST SWAP8 DUP11 ADD SWAP8 SWAP6 POP POP POP SWAP2 DUP8 ADD SWAP2 PUSH1 0x1 ADD PUSH2 0x39DA JUMP JUMPDEST POP SWAP2 SWAP10 SWAP9 POP POP POP POP POP POP POP POP POP JUMP JUMPDEST PUSH4 0x4E487B71 PUSH1 0xE0 SHL PUSH1 0x0 MSTORE PUSH1 0x41 PUSH1 0x4 MSTORE PUSH1 0x24 PUSH1 0x0 REVERT JUMPDEST PUSH1 0x40 MLOAD PUSH1 0x80 DUP2 ADD PUSH8 0xFFFFFFFFFFFFFFFF DUP2 GT DUP3 DUP3 LT OR ISZERO PUSH2 0x3AC3 JUMPI PUSH2 0x3AC3 PUSH2 0x3A8A JUMP JUMPDEST PUSH1 0x40 MSTORE SWAP1 JUMP JUMPDEST PUSH1 0x40 MLOAD PUSH1 0x1F DUP3 ADD PUSH1 0x1F NOT AND DUP2 ADD PUSH8 0xFFFFFFFFFFFFFFFF DUP2 GT DUP3 DUP3 LT OR ISZERO PUSH2 0x3AF2 JUMPI PUSH2 0x3AF2 PUSH2 0x3A8A JUMP JUMPDEST PUSH1 0x40 MSTORE SWAP2 SWAP1 POP JUMP JUMPDEST PUSH1 0x0 PUSH1 0x20 DUP1 DUP4 DUP6 SUB SLT ISZERO PUSH2 0x3B0D JUMPI PUSH1 0x0 DUP1 REVERT JUMPDEST DUP3 CALLDATALOAD PUSH8 0xFFFFFFFFFFFFFFFF DUP1 DUP3 GT ISZERO PUSH2 0x3B25 JUMPI PUSH1 0x0 DUP1 REVERT JUMPDEST DUP2 DUP6 ADD SWAP2 POP DUP6 PUSH1 0x1F DUP4 ADD SLT PUSH2 0x3B39 JUMPI PUSH1 0x0 DUP1 REVERT JUMPDEST DUP2 CALLDATALOAD DUP2 DUP2 GT ISZERO PUSH2 0x3B4B JUMPI PUSH2 0x3B4B PUSH2 0x3A8A JUMP JUMPDEST PUSH2 0x3B59 DUP5 DUP3 PUSH1 0x5 SHL ADD PUSH2 0x3AC9 JUMP JUMPDEST DUP2 DUP2 MSTORE DUP5 DUP2 ADD SWAP3 POP PUSH1 0x7 SWAP2 SWAP1 SWAP2 SHL DUP4 ADD DUP5 ADD SWAP1 DUP8 DUP3 GT ISZERO PUSH2 0x3B79 JUMPI PUSH1 0x0 DUP1 REVERT JUMPDEST SWAP3 DUP5 ADD SWAP3 JUMPDEST DUP2 DUP5 LT ISZERO PUSH2 0x3BEA JUMPI PUSH1 0x80 DUP5 DUP10 SUB SLT ISZERO PUSH2 0x3B97 JUMPI PUSH1 0x0 DUP1 DUP2 REVERT JUMPDEST PUSH2 0x3B9F PUSH2 0x3AA0 JUMP JUMPDEST DUP5 CALLDATALOAD PUSH2 0x3BAA DUP2 PUSH2 0x37F3 JUMP JUMPDEST DUP2 MSTORE PUSH2 0x3BB7 DUP6 DUP8 ADD PUSH2 0x38ED JUMP JUMPDEST DUP2 DUP8 ADD MSTORE PUSH1 0x40 DUP6 DUP2 ADD CALLDATALOAD SWAP1 DUP3 ADD MSTORE PUSH1 0x60 DUP1 DUP7 ADD CALLDATALOAD PUSH2 0x3BD4 DUP2 PUSH2 0x37F3 JUMP JUMPDEST SWAP1 DUP3 ADD MSTORE DUP4 MSTORE PUSH1 0x80 SWAP4 SWAP1 SWAP4 ADD SWAP3 SWAP2 DUP5 ADD SWAP2 PUSH2 0x3B7E JUMP JUMPDEST SWAP8 SWAP7 POP POP POP POP POP POP POP JUMP JUMPDEST PUSH1 0x0 DUP1 PUSH1 0x40 DUP4 DUP6 SUB SLT ISZERO PUSH2 0x3C08 JUMPI PUSH1 0x0 DUP1 REVERT JUMPDEST DUP3 CALLDATALOAD SWAP2 POP PUSH2 0x3C18 PUSH1 0x20 DUP5 ADD PUSH2 0x38ED JUMP JUMPDEST SWAP1 POP SWAP3 POP SWAP3 SWAP1 POP JUMP JUMPDEST PUSH4 0x4E487B71 PUSH1 0xE0 SHL PUSH1 0x0 MSTORE PUSH1 0x32 PUSH1 0x4 MSTORE PUSH1 0x24 PUSH1 0x0 REVERT JUMPDEST PUSH4 0x4E487B71 PUSH1 0xE0 SHL PUSH1 0x0 MSTORE PUSH1 0x11 PUSH1 0x4 MSTORE PUSH1 0x24 PUSH1 0x0 REVERT JUMPDEST PUSH1 0x0 PUSH1 0x0 NOT DUP3 EQ ISZERO PUSH2 0x3C61 JUMPI PUSH2 0x3C61 PUSH2 0x3C37 JUMP JUMPDEST POP PUSH1 0x1 ADD SWAP1 JUMP JUMPDEST PUSH1 0x0 DUP3 DUP3 LT ISZERO PUSH2 0x3C7A JUMPI PUSH2 0x3C7A PUSH2 0x3C37 JUMP JUMPDEST POP SUB SWAP1 JUMP JUMPDEST PUSH1 0x0 DUP3 NOT DUP3 GT ISZERO PUSH2 0x3C92 JUMPI PUSH2 0x3C92 PUSH2 0x3C37 JUMP JUMPDEST POP ADD SWAP1 JUMP JUMPDEST PUSH4 0x4E487B71 PUSH1 0xE0 SHL PUSH1 0x0 MSTORE PUSH1 0x31 PUSH1 0x4 MSTORE PUSH1 0x24 PUSH1 0x0 REVERT JUMPDEST PUSH1 0x0 PUSH5 0xFFFFFFFFFF DUP4 DUP2 AND SWAP1 DUP4 AND DUP2 DUP2 LT ISZERO PUSH2 0x3CCB JUMPI PUSH2 0x3CCB PUSH2 0x3C37 JUMP JUMPDEST SUB SWAP4 SWAP3 POP POP POP JUMP JUMPDEST PUSH4 0x4E487B71 PUSH1 0xE0 SHL PUSH1 0x0 MSTORE PUSH1 0x12 PUSH1 0x4 MSTORE PUSH1 0x24 PUSH1 0x0 REVERT JUMPDEST PUSH1 0x0 PUSH5 0xFFFFFFFFFF DUP1 DUP5 AND DUP1 PUSH2 0x3D01 JUMPI PUSH2 0x3D01 PUSH2 0x3CD3 JUMP JUMPDEST SWAP3 AND SWAP2 SWAP1 SWAP2 DIV SWAP3 SWAP2 POP POP JUMP JUMPDEST PUSH1 0x0 PUSH5 0xFFFFFFFFFF DUP1 DUP5 AND DUP1 PUSH2 0x3D25 JUMPI PUSH2 0x3D25 PUSH2 0x3CD3 JUMP JUMPDEST SWAP3 AND SWAP2 SWAP1 SWAP2 MOD SWAP3 SWAP2 POP POP JUMP JUMPDEST PUSH1 0x0 DUP2 PUSH1 0x0 NOT DIV DUP4 GT DUP3 ISZERO ISZERO AND ISZERO PUSH2 0x3D4B JUMPI PUSH2 0x3D4B PUSH2 0x3C37 JUMP JUMPDEST POP MUL SWAP1 JUMP JUMPDEST PUSH1 0x0 DUP3 PUSH2 0x3D5F JUMPI PUSH2 0x3D5F PUSH2 0x3CD3 JUMP JUMPDEST POP DIV SWAP1 JUMP JUMPDEST PUSH1 0x20 DUP1 DUP3 MSTORE PUSH1 0x24 SWAP1 DUP3 ADD MSTORE PUSH32 0x4E6F7420656E6F756768204554482073656E742077697468207472616E736163 PUSH1 0x40 DUP3 ADD MSTORE PUSH4 0x3A34B7B7 PUSH1 0xE1 SHL PUSH1 0x60 DUP3 ADD MSTORE PUSH1 0x80 ADD SWAP1 JUMP JUMPDEST PUSH1 0x20 DUP1 DUP3 MSTORE PUSH1 0x25 SWAP1 DUP3 ADD MSTORE PUSH32 0x20546F6B656E206E6F7420617070726F76656420666F72207468697320636F6E PUSH1 0x40 DUP3 ADD MSTORE PUSH5 0x1D1C9858DD PUSH1 0xDA SHL PUSH1 0x60 DUP3 ADD MSTORE PUSH1 0x80 ADD SWAP1 JUMP JUMPDEST PUSH1 0x0 PUSH1 0x20 DUP3 DUP5 SUB SLT ISZERO PUSH2 0x3DFF JUMPI PUSH1 0x0 DUP1 REVERT JUMPDEST DUP2 MLOAD DUP1 ISZERO ISZERO DUP2 EQ PUSH2 0x3825 JUMPI PUSH1 0x0 DUP1 REVERT JUMPDEST PUSH1 0x0 PUSH2 0xFFFF DUP1 DUP4 AND DUP2 DUP2 EQ ISZERO PUSH2 0x3E27 JUMPI PUSH2 0x3E27 PUSH2 0x3C37 JUMP JUMPDEST PUSH1 0x1 ADD SWAP4 SWAP3 POP POP POP JUMP JUMPDEST PUSH1 0x0 PUSH5 0xFFFFFFFFFF DUP1 DUP4 AND DUP2 DUP2 EQ ISZERO PUSH2 0x3E27 JUMPI PUSH2 0x3E27 PUSH2 0x3C37 JUMP JUMPDEST PUSH1 0x0 PUSH5 0xFFFFFFFFFF DUP1 DUP4 AND DUP2 DUP6 AND DUP2 DUP4 DIV DUP2 GT DUP3 ISZERO ISZERO AND ISZERO PUSH2 0x3E70 JUMPI PUSH2 0x3E70 PUSH2 0x3C37 JUMP JUMPDEST MUL SWAP5 SWAP4 POP POP POP POP JUMP JUMPDEST PUSH1 0x0 PUSH5 0xFFFFFFFFFF DUP1 DUP4 AND DUP2 DUP6 AND DUP1 DUP4 SUB DUP3 GT ISZERO PUSH2 0x3E99 JUMPI PUSH2 0x3E99 PUSH2 0x3C37 JUMP JUMPDEST ADD SWAP5 SWAP4 POP POP POP POP JUMP JUMPDEST PUSH1 0x0 PUSH1 0x20 DUP3 DUP5 SUB SLT ISZERO PUSH2 0x3EB4 JUMPI PUSH1 0x0 DUP1 REVERT JUMPDEST POP MLOAD SWAP2 SWAP1 POP JUMP INVALID LOG2 PUSH5 0x6970667358 0x22 SLT KECCAK256 CHAINID 0x5F LT OR 0xCD MUL SMOD PUSH29 0xDA1C2AB5A26D10843CEFF22746F22E64B549CD8DE468695464736F6C63 NUMBER STOP ADDMOD MULMOD STOP CALLER "},"methodIdentifiers":{"addBatchTransactions((address,uint40,uint256,address)[])":"d10fa144","addERC20Contract(address)":"ab7e0909","addTransaction(address,uint40,uint256,address)":"80423444","allAccounts()":"cf783d8a","allTransactions()":"1ccb3371","cancelTransaction(bytes32,uint40)":"e9e1dbef","changeAdmin(address)":"8f283970","changeFee(uint256)":"6a1db1bf","checkTime()":"e0c6190d","getAccountTransactions()":"c682cce4","getTime()":"557ed1ba","getTransactionsByAccount(address)":"dc9961eb","hoursSinceMerge(uint40)":"7e4b1029","removeERC20Contract(address)":"053149fa","toggleContractActive()":"1385d24c"}}}}}