{"contracts/Clocktower.sol":{"Clocktower":{"abi":[{"inputs":[],"stateMutability":"payable","type":"constructor"},{"stateMutability":"payable","type":"fallback"},{"inputs":[{"components":[{"internalType":"address payable","name":"receiver","type":"address"},{"internalType":"uint40","name":"unixTime","type":"uint40"},{"internalType":"uint256","name":"payload","type":"uint256"},{"internalType":"address","name":"token","type":"address"}],"internalType":"struct Clocktower.Batch[]","name":"batch","type":"tuple[]"}],"name":"addBatchTransactions","outputs":[],"stateMutability":"payable","type":"function"},{"inputs":[{"internalType":"address","name":"erc20Contract","type":"address"}],"name":"addERC20Contract","outputs":[],"stateMutability":"nonpayable","type":"function"},{"inputs":[{"internalType":"address payable","name":"receiver","type":"address"},{"internalType":"uint40","name":"unixTime","type":"uint40"},{"internalType":"uint256","name":"payload","type":"uint256"},{"internalType":"address","name":"token","type":"address"}],"name":"addTransaction","outputs":[],"stateMutability":"payable","type":"function"},{"inputs":[{"components":[{"internalType":"bytes32","name":"id","type":"bytes32"},{"internalType":"uint256","name":"amount","type":"uint256"},{"internalType":"address","name":"owner","type":"address"},{"internalType":"bool","name":"exists","type":"bool"},{"internalType":"bool","name":"cancelled","type":"bool"},{"internalType":"address","name":"token","type":"address"},{"internalType":"enum Clocktower.SubType","name":"subType","type":"uint8"},{"internalType":"uint16","name":"dueDay","type":"uint16"},{"internalType":"string","name":"description","type":"string"}],"internalType":"struct Clocktower.Subscription","name":"subscription","type":"tuple"}],"name":"cancelSubscription","outputs":[],"stateMutability":"nonpayable","type":"function"},{"inputs":[{"internalType":"bytes32","name":"id","type":"bytes32"},{"internalType":"uint40","name":"unixTrigger","type":"uint40"},{"internalType":"address","name":"token","type":"address"}],"name":"cancelTransaction","outputs":[],"stateMutability":"payable","type":"function"},{"inputs":[{"internalType":"address","name":"newAddress","type":"address"}],"name":"changeAdmin","outputs":[],"stateMutability":"nonpayable","type":"function"},{"inputs":[{"internalType":"uint256","name":"_fee","type":"uint256"}],"name":"changeFee","outputs":[],"stateMutability":"nonpayable","type":"function"},{"inputs":[{"internalType":"uint256","name":"_fixed_fee","type":"uint256"}],"name":"changeFixedFee","outputs":[],"stateMutability":"nonpayable","type":"function"},{"inputs":[],"name":"chargeSubs","outputs":[],"stateMutability":"nonpayable","type":"function"},{"inputs":[],"name":"checkTime","outputs":[{"internalType":"bool","name":"","type":"bool"}],"stateMutability":"view","type":"function"},{"inputs":[{"internalType":"uint256","name":"amount","type":"uint256"},{"internalType":"address","name":"token","type":"address"},{"internalType":"string","name":"description","type":"string"},{"internalType":"enum Clocktower.SubType","name":"subtype","type":"uint8"},{"internalType":"uint16","name":"dueDay","type":"uint16"}],"name":"createSubscription","outputs":[],"stateMutability":"payable","type":"function"},{"inputs":[],"name":"getAccountSubscriptions","outputs":[{"components":[{"internalType":"bytes32","name":"id","type":"bytes32"},{"internalType":"uint256","name":"amount","type":"uint256"},{"internalType":"address","name":"owner","type":"address"},{"internalType":"bool","name":"exists","type":"bool"},{"internalType":"bool","name":"cancelled","type":"bool"},{"internalType":"address","name":"token","type":"address"},{"internalType":"enum Clocktower.SubType","name":"subType","type":"uint8"},{"internalType":"uint16","name":"dueDay","type":"uint16"},{"internalType":"string","name":"description","type":"string"}],"internalType":"struct Clocktower.Subscription[]","name":"","type":"tuple[]"}],"stateMutability":"view","type":"function"},{"inputs":[],"name":"getAccountTransactions","outputs":[{"components":[{"internalType":"bytes32","name":"id","type":"bytes32"},{"internalType":"address","name":"sender","type":"address"},{"internalType":"address payable","name":"receiver","type":"address"},{"internalType":"address","name":"token","type":"address"},{"internalType":"uint40","name":"timeTrigger","type":"uint40"},{"internalType":"enum Clocktower.Status","name":"status","type":"uint8"},{"internalType":"uint256","name":"payload","type":"uint256"}],"internalType":"struct Clocktower.Transaction[]","name":"","type":"tuple[]"}],"stateMutability":"view","type":"function"},{"inputs":[],"name":"getFee","outputs":[{"internalType":"uint256","name":"","type":"uint256"}],"stateMutability":"view","type":"function"},{"inputs":[{"internalType":"address","name":"token","type":"address"}],"name":"getTotalClaims","outputs":[{"internalType":"uint256","name":"","type":"uint256"}],"stateMutability":"view","type":"function"},{"inputs":[{"internalType":"address","name":"erc20Contract","type":"address"}],"name":"removeERC20Contract","outputs":[],"stateMutability":"nonpayable","type":"function"},{"inputs":[],"name":"sendTime","outputs":[],"stateMutability":"nonpayable","type":"function"},{"inputs":[{"components":[{"internalType":"bytes32","name":"id","type":"bytes32"},{"internalType":"uint256","name":"amount","type":"uint256"},{"internalType":"address","name":"owner","type":"address"},{"internalType":"bool","name":"exists","type":"bool"},{"internalType":"bool","name":"cancelled","type":"bool"},{"internalType":"address","name":"token","type":"address"},{"internalType":"enum Clocktower.SubType","name":"subType","type":"uint8"},{"internalType":"uint16","name":"dueDay","type":"uint16"},{"internalType":"string","name":"description","type":"string"}],"internalType":"struct Clocktower.Subscription","name":"subscription","type":"tuple"}],"name":"subscribe","outputs":[],"stateMutability":"payable","type":"function"},{"inputs":[],"name":"toggleContractActive","outputs":[],"stateMutability":"nonpayable","type":"function"},{"inputs":[{"internalType":"uint256","name":"unix","type":"uint256"}],"name":"unixToDays","outputs":[{"internalType":"uint16","name":"yearDays","type":"uint16"},{"internalType":"uint16","name":"day","type":"uint16"}],"stateMutability":"pure","type":"function"},{"inputs":[{"internalType":"bytes32","name":"id","type":"bytes32"}],"name":"unsubscribe","outputs":[],"stateMutability":"payable","type":"function"},{"stateMutability":"payable","type":"receive"}],"evm":{"bytecode":{"linkReferences":{},"object":"6080604052600080546001600160a01b03191673f39fd6e51aad88f6f4ce6ab8827279cfffb9226617905560646001908155662386f26fc10000600255600e805460ff19169055620000514262000085565b6200005d91906200009b565b600e60016101000a81548164ffffffffff021916908364ffffffffff16021790555062000103565b600062000095610e1083620000d0565b92915050565b600064ffffffffff83811690831681811015620000c857634e487b7160e01b600052601160045260246000fd5b039392505050565b600064ffffffffff80841680620000f757634e487b7160e01b600052601260045260246000fd5b92169190910492915050565b615ea280620001136000396000f3fe6080604052600436106101225760003560e01c80638f283970116100a5578063ced72f871161006c578063ced72f8714610316578063d10fa1441461032b578063dc7000891461033e578063de005f7c14610353578063e0c6190d14610373578063f8c601461461039857005b80638f2839701461026457806393bc841314610284578063aa58a5b0146102bf578063ab7e0909146102d4578063c682cce4146102f457005b80633084f79e116100e95780633084f79e146101dc5780636a1db1bf146101ef5780637ce1ef391461020f57806380423444146102315780638e83ac4a1461024457005b8063053149fa1461012b5780631385d24c1461014b57806313b51234146101605780632a2b3690146101b65780632c04c453146101c957005b3661012957005b005b34801561013757600080fd5b506101296101463660046154e4565b6103ab565b34801561015757600080fd5b50610129610593565b34801561016c57600080fd5b506101a361017b3660046154e4565b336000908152600b602090815260408083206001600160a01b03949094168352929052205490565b6040519081526020015b60405180910390f35b6101296101c4366004615516565b6105af565b6101296101d7366004615556565b61081d565b6101296101ea3660046155b3565b6109e2565b3480156101fb57600080fd5b5061012961020a366004615662565b610e75565b34801561021b57600080fd5b50610224610e82565b6040516101ad91906156fd565b61012961023f3660046157dd565b610ff4565b34801561025057600080fd5b5061012961025f366004615662565b6112eb565b34801561027057600080fd5b5061012961027f3660046154e4565b6112f8565b34801561029057600080fd5b506102a461029f366004615662565b61134b565b6040805161ffff9384168152929091166020830152016101ad565b3480156102cb57600080fd5b50610129611510565b3480156102e057600080fd5b506101296102ef3660046154e4565b6116e3565b34801561030057600080fd5b5061030961178a565b6040516101ad919061582e565b34801561032257600080fd5b506001546101a3565b610129610339366004615947565b611c6e565b34801561034a57600080fd5b506101296127ee565b34801561035f57600080fd5b5061012961036e366004615556565b6131ac565b34801561037f57600080fd5b506103886137d2565b60405190151581526020016101ad565b6101296103a6366004615662565b613895565b6103b36138c9565b6001600160a01b0381166103c657600080fd5b6103cf81613909565b6104045760405162461bcd60e51b81526020600482015260016024820152601960f91b60448201526064015b60405180910390fd5b6000600d80548060200260200160405190810160405280929190818152602001828054801561045c57602002820191906000526020600020905b81546001600160a01b0316815260019091019060200180831161043e575b505050505090506000805b82518110156104bd57836001600160a01b031683828151811061048c5761048c615a42565b60200260200101516001600160a01b031614156104ab578091506104bd565b806104b581615a6e565b915050610467565b50805b600d546104cf90600190615a89565b81101561055a57600d6104e3826001615aa0565b815481106104f3576104f3615a42565b600091825260209091200154600d80546001600160a01b03909216918390811061051f5761051f615a42565b600091825260209091200180546001600160a01b0319166001600160a01b03929092169190911790558061055281615a6e565b9150506104c0565b50600d80548061056c5761056c615ab8565b600082815260209020810160001990810180546001600160a01b0319169055019055505050565b61059b6138c9565b600e805460ff19811660ff90911615179055565b6105b76139ca565b60006105c2836139fb565b64ffffffffff8116600090815260056020908152604080832080548251818502810185019093528083529495509293909291849084015b828210156106b85760008481526020908190206040805160e081018252600586029092018054835260018101546001600160a01b039081169484019490945260028101548416918301919091526003808201549384166060840152600160a01b840464ffffffffff1660808401529192909160a0840191600160c81b900460ff169081111561068a5761068a61567b565b600381111561069b5761069b61567b565b8152602001600482015481525050815260200190600101906105f9565b5050505090506106c661531e565b60005b825181101561072a57868382815181106106e5576106e5615a42565b60200260200101516000015114156107185782818151811061070957610709615a42565b6020026020010151915061072a565b8061072281615a6e565b9150506106c9565b5061073d81600001518260800151613a0f565b6001600160a01b0384161561078f5760c0810151336000908152600b602090815260408083206001600160a01b038916845290915281208054909190610784908490615a89565b909155506108159050565b60c0810151336000908152600b602090815260408083206001600160a01b0389168452909152812080549091906107c7908490615a89565b909155505060c081015147116107dc57600080fd5b80602001516001600160a01b03166108fc8260c001519081150290604051600060405180830381858888f1935050505061081557600080fd5b505050505050565b6108256139ca565b3460025411156108475760405162461bcd60e51b81526004016103fb90615ace565b602081013561085c60c0830160a084016154e4565b604051636eb1769f60e11b81523360048201523060248201526001600160a01b03919091169063dd62ed3e90604401602060405180830381600087803b1580156108a557600080fd5b505af11580156108b9573d6000803e3d6000fd5b505050506040513d601f19601f820116820180604052508101906108dd9190615ae9565b10156108fb5760405162461bcd60e51b81526004016103fb90615b02565b6109268135610911610100840160e08501615b1e565b61092160e0850160c08601615b39565b613da7565b6109565760405162461bcd60e51b81526020600482015260016024820152603760f81b60448201526064016103fb565b8035600081815260096020908152604080832080546001810182559084529282902090920180546001600160a01b031916331790558151606081019092529181526109df9181016109ae610100850160e08601615b1e565b61ffff1681526020016109c760e0850160c08601615b39565b60018111156109d8576109d861567b565b9052613e0b565b50565b6109ea6139ca565b6001600160a01b038516610a245760405162461bcd60e51b81526020600482015260016024820152600760fb1b60448201526064016103fb565b346002541115610a465760405162461bcd60e51b81526004016103fb90615ace565b610a4f85613909565b610a6b5760405162461bcd60e51b81526004016103fb90615b54565b60008611610aa05760405162461bcd60e51b8152602060048201526002602482015261031360f41b60448201526064016103fb565b6000610ae7878787878080601f016020809104026020016040519081016040528093929190818152602001838380828437600092019190915250899250889150613f169050565b90506000836001811115610afd57610afd61567b565b1415610c8c578161ffff166000108015610b1c5750601c8261ffff1611155b610b7a5760405162461bcd60e51b815260206004820152602960248201527f4d6f6e74686c79206475652064617465206d757374206265206265747765656e6044820152680406240c2dcc84064760bb1b60648201526084016103fb565b61ffff821660009081526007602090815260408083208054600181810183559185529383902085516005909502019384559184015183830155830151600283018054606086015160808701511515600160a81b0260ff60a81b19911515600160a01b9081026001600160a81b03199485166001600160a01b039788161717929092161790925560a0860151600386018054919094166001600160a01b031982168117855560c08801518897969095949290931617918490811115610c4057610c4061567b565b021790555060e082015160038201805461ffff909216600160a81b0261ffff60a81b199092169190911790556101008201518051610c8891600484019160209091019061535b565b5050505b6001836001811115610ca057610ca061567b565b1415610e30578161ffff166000108015610cc0575061016d8261ffff1611155b610d1e5760405162461bcd60e51b815260206004820152602960248201527f596561726c79206475652064617465206d757374206265206265747765656e206044820152683120616e642033363560b81b60648201526084016103fb565b61ffff821660009081526008602090815260408083208054600181810183559185529383902085516005909502019384559184015183830155830151600283018054606086015160808701511515600160a81b0260ff60a81b19911515600160a01b9081026001600160a81b03199485166001600160a01b039788161717929092161790925560a0860151600386018054919094166001600160a01b031982168117855560c08801518897969095949290931617918490811115610de457610de461567b565b021790555060e082015160038201805461ffff909216600160a81b0261ffff60a81b199092169190911790556101008201518051610e2c91600484019160209091019061535b565b5050505b610e6c6040518060600160405280836000015181526020018360e0015161ffff1681526020018360c0015160018111156109d8576109d861567b565b50505050505050565b610e7d6138c9565b600155565b336000908152600360209081526040808320600201805482518185028101850190935280835260609493849084015b82821015610f3157600084815260209081902060408051606081018252600286029092018054835260018082015461ffff81169585019590955292939092918401916201000090910460ff1690811115610f0d57610f0d61567b565b6001811115610f1e57610f1e61567b565b8152505081526020019060010190610eb1565b5050505090506000815167ffffffffffffffff811115610f5357610f536158d7565b604051908082528060200260200182016040528015610f8c57816020015b610f796153df565b815260200190600190039081610f715790505b50905060005b8251811015610fed57610fbd838281518110610fb057610fb0615a42565b6020026020010151613fca565b828281518110610fcf57610fcf615a42565b60200260200101819052508080610fe590615a6e565b915050610f92565b5092915050565b600e5460ff166112e5576110066139ca565b61100f83614422565b6001600160a01b03811661105b573460646001548461102e9190615b6f565b6110389190615ba4565b11156110565760405162461bcd60e51b81526004016103fb90615ace565b61116e565b34600254111561107d5760405162461bcd60e51b81526004016103fb90615ace565b61108681613909565b6110a25760405162461bcd60e51b81526004016103fb90615b54565b336000908152600b602090815260408083206001600160a01b03851684529091529020546110d1908390615aa0565b604051636eb1769f60e11b81523360048201523060248201526001600160a01b0383169063dd62ed3e90604401602060405180830381600087803b15801561111857600080fd5b505af115801561112c573d6000803e3d6000fd5b505050506040513d601f19601f820116820180604052508101906111509190615ae9565b101561116e5760405162461bcd60e51b81526004016103fb90615b02565b6000611179846139fb565b9050600061118a33878585886144a0565b64ffffffffff8084166000908152600560208181526040808420805460018181018355918652948390208751959094029093019384559085015191830180546001600160a01b039384166001600160a01b03199182161790915590850151600284018054918416919092161790556060840151600380840180546080880151909616600160a01b026001600160c81b031990961692909316919091179390931780825560a08501519495508594929360ff60c81b1990911690600160c81b90849081111561125a5761125a61567b565b021790555060c091909101516004909101558051600680546001810182556000919091527ff652222313e28459528d920b65115c16c04f3efc82aaedc97be59f3f377c0d3f01556112aa8261456e565b336000908152600b602090815260408083206001600160a01b0387168452909152812080548692906112dd908490615aa0565b909155505050505b50505050565b6112f36138c9565b600255565b6113006138c9565b336001600160a01b03821614801561132057506001600160a01b03811615155b61132957600080fd5b600080546001600160a01b0319166001600160a01b0392909216919091179055565b6000808061135c6201518085615ba4565b905080600061136e8262010bd9615bb8565b61137b9062253d8c615bb8565b9050600062023ab161138e836004615bf9565b6113989190615c7e565b905060046113a98262023ab1615bf9565b6113b4906003615bb8565b6113be9190615c7e565b6113c89083615cac565b9150600062164b096113db846001615bb8565b6113e790610fa0615bf9565b6113f19190615c7e565b90506004611401826105b5615bf9565b61140b9190615c7e565b6114159084615cac565b61142090601f615bb8565b9250600061098f611432856050615bf9565b61143c9190615c7e565b90506000605061144e8361098f615bf9565b6114589190615c7e565b6114629086615cac565b905061146f600b83615c7e565b945061147c85600c615bf9565b611487836002615bb8565b6114919190615cac565b915084836114a0603187615cac565b6114ab906064615bf9565b6114b59190615bb8565b6114bf9190615bb8565b909750915086828282600060015b8381116114fc576114de8585614724565b6114e89083615aa0565b9150806114f481615a6e565b9150506114cd565b50809c505050505050505050505050915091565b6115186138c9565b6000611523426139fb565b600e5490915064ffffffffff61010090910481169082161161156c5760405162461bcd60e51b81526020600482015260026024820152610c4d60f21b60448201526064016103fb565b600e54610100900464ffffffffff165b8164ffffffffff168164ffffffffff16116116be5764ffffffffff8116600090815260056020526040902054156116ac5764ffffffffff8116600090815260056020908152604080832080548251818502810185019093528083526116ac9492939192909184015b828210156116a35760008481526020908190206040805160e081018252600586029092018054835260018101546001600160a01b039081169484019490945260028101548416918301919091526003808201549384166060840152600160a01b840464ffffffffff1660808401529192909160a0840191600160c81b900460ff16908111156116755761167561567b565b60038111156116865761168661567b565b8152602001600482015481525050815260200190600101906115e4565b505050506147aa565b806116b681615ceb565b91505061157c565b50600e805464ffffffffff9092166101000265ffffffffff0019909216919091179055565b6116eb6138c9565b6001600160a01b0381166116fe57600080fd5b61170781613909565b156117385760405162461bcd60e51b81526020600482015260016024820152603160f81b60448201526064016103fb565b600d80546001810182556000919091527fd7b6990105719101dabeb77144f2a3385c8033acd3af97e9423a695e81ad1eb50180546001600160a01b0319166001600160a01b0392909216919091179055565b33600090815260036020908152604080832060010180548251818502810185019093528083526060949383018282801561181157602002820191906000526020600020906000905b82829054906101000a900464ffffffffff1664ffffffffff16815260200190600501906020826004010492830192600103820291508084116117d25790505b505050505090506000805b82518110156119695760006005600085848151811061183d5761183d615a42565b602002602001015164ffffffffff1664ffffffffff168152602001908152602001600020805480602002602001604051908101604052809291908181526020016000905b828210156119405760008481526020908190206040805160e081018252600586029092018054835260018101546001600160a01b039081169484019490945260028101548416918301919091526003808201549384166060840152600160a01b840464ffffffffff1660808401529192909160a0840191600160c81b900460ff16908111156119125761191261567b565b60038111156119235761192361567b565b815260200160048201548152505081526020019060010190611881565b5050505090508051836119539190615aa0565b925050808061196190615a6e565b91505061181c565b5060008167ffffffffffffffff811115611985576119856158d7565b6040519080825280602002602001820160405280156119be57816020015b6119ab61531e565b8152602001906001900390816119a35790505b50905060008267ffffffffffffffff8111156119dc576119dc6158d7565b604051908082528060200260200182016040528015611a1557816020015b611a0261531e565b8152602001906001900390816119fa5790505b5090506000805b8551811015611bf25760056000878381518110611a3b57611a3b615a42565b602002602001015164ffffffffff1664ffffffffff168152602001908152602001600020805480602002602001604051908101604052809291908181526020016000905b82821015611b3e5760008481526020908190206040805160e081018252600586029092018054835260018101546001600160a01b039081169484019490945260028101548416918301919091526003808201549384166060840152600160a01b840464ffffffffff1660808401529192909160a0840191600160c81b900460ff1690811115611b1057611b1061567b565b6003811115611b2157611b2161567b565b815260200160048201548152505081526020019060010190611a7f565b50505050935060005b8451811015611bdf57336001600160a01b0316858281518110611b6c57611b6c615a42565b6020026020010151602001516001600160a01b03161415611bcd57848181518110611b9957611b99615a42565b6020026020010151848481518110611bb357611bb3615a42565b60200260200101819052508280611bc990615a6e565b9350505b80611bd781615a6e565b915050611b47565b5080611bea81615a6e565b915050611a1c565b5060005b8251811015611c6357611c25838281518110611c1457611c14615a42565b602002602001015160800151614f01565b838281518110611c3757611c37615a42565b602090810291909101015164ffffffffff90911660809091015280611c5b81615a6e565b915050611bf6565b509095945050505050565b600e5460ff166109df57611c806139ca565b60018151118015611c92575060648151105b611ce95760405162461bcd60e51b815260206004820152602260248201527f4261746368206d757374203e206f6e65207472616e73616374696f6e203c2031604482015261030360f41b60648201526084016103fb565b611d146040518060800160405280600081526020016000815260200160008152602001606081525090565b348251600254611d249190615b6f565b1115611d425760405162461bcd60e51b81526004016103fb90615ace565b600d5460009067ffffffffffffffff811115611d6057611d606158d7565b604051908082528060200260200182016040528015611d89578160200160208202803683370190505b503360009081526003602052604081206001015491925090611dac906064615aa0565b67ffffffffffffffff811115611dc457611dc46158d7565b604051908082528060200260200182016040528015611ded578160200160208202803683370190505b50905060005b845181101561225a57611e22858281518110611e1157611e11615a42565b602002602001015160200151614422565b6000611e4a868381518110611e3957611e39615a42565b6020026020010151602001516139fb565b9050611e568184614f0f565b611ea4578083866040015181518110611e7157611e71615a42565b602002602001019064ffffffffff16908164ffffffffff1681525050600185604001818151611ea09190615aa0565b9052505b60006001600160a01b0316868381518110611ec157611ec1615a42565b6020026020010151606001516001600160a01b03161415611f1357858281518110611eee57611eee615a42565b60200260200101516040015185600001818151611f0b9190615aa0565b905250612138565b611f39868381518110611f2857611f28615a42565b602002602001015160600151613909565b611f555760405162461bcd60e51b81526004016103fb90615b54565b858281518110611f6757611f67615a42565b602002602001015160400151600b6000336001600160a01b03166001600160a01b031681526020019081526020016000206000888581518110611fac57611fac615a42565b6020026020010151606001516001600160a01b03166001600160a01b0316815260200190815260200160002054611fe39190615aa0565b868381518110611ff557611ff5615a42565b602090810291909101015160600151604051636eb1769f60e11b81523360048201523060248201526001600160a01b039091169063dd62ed3e90604401602060405180830381600087803b15801561204c57600080fd5b505af1158015612060573d6000803e3d6000fd5b505050506040513d601f19601f820116820180604052508101906120849190615ae9565b10156120a25760405162461bcd60e51b81526004016103fb90615b02565b6120c98683815181106120b7576120b7615a42565b60200260200101516060015185614f71565b612138578582815181106120df576120df615a42565b6020026020010151606001518486602001518151811061210157612101615a42565b60200260200101906001600160a01b031690816001600160a01b0316815250506001856020018181516121349190615aa0565b9052505b85828151811061214a5761214a615a42565b602002602001015160400151600c600088858151811061216c5761216c615a42565b6020026020010151606001516001600160a01b03166001600160a01b0316815260200190815260200160002060008282546121a79190615aa0565b925050819055508582815181106121c0576121c0615a42565b602002602001015160400151600b6000336001600160a01b03166001600160a01b03168152602001908152602001600020600088858151811061220557612205615a42565b6020026020010151606001516001600160a01b03166001600160a01b0316815260200190815260200160002060008282546122409190615aa0565b90915550829150612252905081615a6e565b915050611df3565b346064600154866000015161226f9190615b6f565b6122799190615ba4565b11156122975760405162461bcd60e51b81526004016103fb90615ace565b5060005b81518110156124ff578181815181106122b6576122b6615a42565b602002602001015164ffffffffff16600014156122d2576124ff565b60005b85518161ffff1610156124ec5760006122fd878361ffff1681518110611e3957611e39615a42565b905083838151811061231157612311615a42565b602002602001015164ffffffffff168164ffffffffff1614156124d95760006123a033898561ffff168151811061234a5761234a615a42565b6020026020010151600001518a8661ffff168151811061236c5761236c615a42565b602002602001015160600151858c8861ffff168151811061238f5761238f615a42565b6020026020010151604001516144a0565b905080600560008787815181106123b9576123b9615a42565b60209081029190910181015164ffffffffff908116835282820193909352604091820160009081208054600181810183559183529183902086516005909302019182559185015191810180546001600160a01b039384166001600160a01b0319918216179091559285015160028201805491841691909416179092556060840151600380840180546080880151909616600160a01b026001600160c81b031990961692909316919091179390931780825560a0850151929360ff60c81b1990911690600160c81b9084908111156124925761249261567b565b021790555060c0919091015160049091015551600680546001810182556000919091527ff652222313e28459528d920b65115c16c04f3efc82aaedc97be59f3f377c0d3f01555b50806124e481615d10565b9150506122d5565b50806124f781615a6e565b91505061229b565b5060005b825181101561275d5760006001600160a01b031683828151811061252957612529615a42565b60200260200101516001600160a01b03161461270657600c600084838151811061255557612555615a42565b60200260200101516001600160a01b03166001600160a01b031681526020019081526020016000205483828151811061259057612590615a42565b6020908102919091010151604051636eb1769f60e11b81523360048201523060248201526001600160a01b039091169063dd62ed3e90604401602060405180830381600087803b1580156125e357600080fd5b505af11580156125f7573d6000803e3d6000fd5b505050506040513d601f19601f8201168201806040525081019061261b9190615ae9565b101580156126fd5750600c600084838151811061263a5761263a615a42565b60200260200101516001600160a01b03166001600160a01b031681526020019081526020016000205483828151811061267557612675615a42565b60209081029190910101516040516370a0823160e01b81523360048201526001600160a01b03909116906370a0823190602401602060405180830381600087803b1580156126c257600080fd5b505af11580156126d6573d6000803e3d6000fd5b505050506040513d601f19601f820116820180604052508101906126fa9190615ae9565b10155b61270657600080fd5b6000600c600085848151811061271e5761271e615a42565b60200260200101516001600160a01b03166001600160a01b0316815260200190815260200160002081905550808061275590615a6e565b915050612503565b33600090815260036020526040902054600160a01b900460ff166127e75733600081815260036020526040812080546001600160a01b03199081168417825560048054600181019091557f8a35acfbc15ff81a39ae7d344fd709f28e8600b4aa8c65c6b64bfe7fe36bd19b01805490911684179055919052805460ff60a01b1916600160a01b1790555b5050505050565b6127f66138c9565b6000806128024261134b565b9150915060005b61ffff8216600090815260076020526040902054811015612cd65761ffff8216600090815260076020526040902080548290811061284957612849615a42565b906000526020600020906005020160020160159054906101000a900460ff16612cc45761ffff8216600090815260076020526040812080548390811061289157612891615a42565b6000918252602080832060059092029091015461ffff86168352600790915260408220805491935090849081106128ca576128ca615a42565b600091825260208083206003600590930201919091015461ffff8716835260079091526040822080546001600160a01b039092169350908590811061291157612911615a42565b906000526020600020906005020160010154905060005b600084815260096020526040902054811015612cbf57600084815260096020526040812080548390811061295e5761295e615a42565b600091825260208083209091015461ffff8a1683526007909152604090912080546001600160a01b03909216925084918890811061299e5761299e615a42565b6000918252602090912060059091020160030154604051636eb1769f60e11b81526001600160a01b0384811660048301523060248301529091169063dd62ed3e90604401602060405180830381600087803b1580156129fc57600080fd5b505af1158015612a10573d6000803e3d6000fd5b505050506040513d601f19601f82011682018060405250810190612a349190615ae9565b10158015612af8575082846001600160a01b03166370a08231600960008981526020019081526020016000208581548110612a7157612a71615a42565b60009182526020909120015460405160e083901b6001600160e01b03191681526001600160a01b039091166004820152602401602060405180830381600087803b158015612abe57600080fd5b505af1158015612ad2573d6000803e3d6000fd5b505050506040513d601f19601f82011682018060405250810190612af69190615ae9565b105b15612b6d576040805160608101825286815264ffffffffff428116602080840191825260008486018181526001600160a01b0388168252600a909252949094209251835551600192909201805493511515600160281b0265ffffffffffff199094169290911691909117919091179055612cac565b6040805160608101825286815264ffffffffff428116602080840191825260018486018181526001600160a01b038089166000908152600a855288812097518855945196909201805491511515600160281b0265ffffffffffff1990921696909516959095179490941790925561ffff8b1681526007909152919091208054918616916323b872dd9184918a908110612c0857612c08615a42565b600091825260209091206005909102016002015460405160e084901b6001600160e01b03191681526001600160a01b0392831660048201529116602482015260448101869052606401602060405180830381600087803b158015612c6b57600080fd5b505af1158015612c7f573d6000803e3d6000fd5b505050506040513d601f19601f82011682018060405250810190612ca39190615d28565b612cac57600080fd5b5080612cb781615a6e565b915050612928565b505050505b80612cce81615a6e565b915050612809565b5060005b61ffff83166000908152600860205260409020548110156131a75761ffff82166000908152600860205260409020805482908110612d1a57612d1a615a42565b906000526020600020906005020160020160159054906101000a900460ff166131955761ffff82166000908152600860205260408120805483908110612d6257612d62615a42565b6000918252602080832060059092029091015461ffff8616835260089091526040822080549193509084908110612d9b57612d9b615a42565b600091825260208083206003600590930201919091015461ffff8716835260089091526040822080546001600160a01b0390921693509085908110612de257612de2615a42565b906000526020600020906005020160010154905060005b600084815260096020526040902054811015613190576000848152600960205260408120805483908110612e2f57612e2f615a42565b600091825260208083209091015461ffff8a1683526008909152604090912080546001600160a01b039092169250849188908110612e6f57612e6f615a42565b6000918252602090912060059091020160030154604051636eb1769f60e11b81526001600160a01b0384811660048301523060248301529091169063dd62ed3e90604401602060405180830381600087803b158015612ecd57600080fd5b505af1158015612ee1573d6000803e3d6000fd5b505050506040513d601f19601f82011682018060405250810190612f059190615ae9565b10158015612fc9575082846001600160a01b03166370a08231600960008981526020019081526020016000208581548110612f4257612f42615a42565b60009182526020909120015460405160e083901b6001600160e01b03191681526001600160a01b039091166004820152602401602060405180830381600087803b158015612f8f57600080fd5b505af1158015612fa3573d6000803e3d6000fd5b505050506040513d601f19601f82011682018060405250810190612fc79190615ae9565b105b1561303e576040805160608101825286815264ffffffffff428116602080840191825260008486018181526001600160a01b0388168252600a909252949094209251835551600192909201805493511515600160281b0265ffffffffffff19909416929091169190911791909117905561317d565b6040805160608101825286815264ffffffffff428116602080840191825260018486018181526001600160a01b038089166000908152600a855288812097518855945196909201805491511515600160281b0265ffffffffffff1990921696909516959095179490941790925561ffff8b1681526008909152919091208054918616916323b872dd9184918a9081106130d9576130d9615a42565b600091825260209091206005909102016002015460405160e084901b6001600160e01b03191681526001600160a01b0392831660048201529116602482015260448101869052606401602060405180830381600087803b15801561313c57600080fd5b505af1158015613150573d6000803e3d6000fd5b505050506040513d601f19601f820116820180604052508101906131749190615d28565b61317d57600080fd5b508061318881615a6e565b915050612df9565b505050505b8061319f81615a6e565b915050612cda565b505050565b6131b46139ca565b6131ca8135610911610100840160e08501615b1e565b6131fa5760405162461bcd60e51b81526020600482015260016024820152603760f81b60448201526064016103fb565b803560009081526009602090815260408083208054825181850281018501909352808352919290919083018282801561325c57602002820191906000526020600020905b81546001600160a01b0316815260019091019060200180831161323e575b5050505050905060005b81518110156132a857613296836000013583838151811061328957613289615a42565b6020026020010151614fcd565b806132a081615a6e565b915050613266565b5060006132bb60e0840160c08501615b39565b60018111156132cc576132cc61567b565b141561353d5760006007816132e8610100860160e08701615b1e565b61ffff1661ffff168152602001908152602001600020805480602002602001604051908101604052809291908181526020016000905b82821015613486576000848152602090819020604080516101208101825260058602909201805483526001808201549484019490945260028101546001600160a01b0380821693850193909352600160a01b80820460ff90811615156060870152600160a81b909204821615156080860152600383015493841660a08601529394919360c08601930416908111156133b8576133b861567b565b60018111156133c9576133c961567b565b81526003820154600160a81b900461ffff1660208201526004820180546040909201916133f590615d4a565b80601f016020809104026020016040519081016040528092919081815260200182805461342190615d4a565b801561346e5780601f106134435761010080835404028352916020019161346e565b820191906000526020600020905b81548152906001019060200180831161345157829003601f168201915b5050505050815250508152602001906001019061331e565b50505050905060005b825181101561353a5783600001358282815181106134af576134af615a42565b6020026020010151600001511415613528576001600760006134d8610100880160e08901615b1e565b61ffff1661ffff16815260200190815260200160002082815481106134ff576134ff615a42565b906000526020600020906005020160020160156101000a81548160ff0219169083151502179055505b8061353281615a6e565b91505061348f565b50505b600161354f60e0840160c08501615b39565b60018111156135605761356061567b565b14156137ce57600060088161357c610100860160e08701615b1e565b61ffff1661ffff168152602001908152602001600020805480602002602001604051908101604052809291908181526020016000905b8282101561371a576000848152602090819020604080516101208101825260058602909201805483526001808201549484019490945260028101546001600160a01b0380821693850193909352600160a01b80820460ff90811615156060870152600160a81b909204821615156080860152600383015493841660a08601529394919360c086019304169081111561364c5761364c61567b565b600181111561365d5761365d61567b565b81526003820154600160a81b900461ffff16602082015260048201805460409092019161368990615d4a565b80601f01602080910402602001604051908101604052809291908181526020018280546136b590615d4a565b80156137025780601f106136d757610100808354040283529160200191613702565b820191906000526020600020905b8154815290600101906020018083116136e557829003601f168201915b505050505081525050815260200190600101906135b2565b50505050905060005b82518110156112e557836000013582828151811061374357613743615a42565b60200260200101516000015114156137bc5760016008600061376c610100880160e08901615b1e565b61ffff1661ffff168152602001908152602001600020828154811061379357613793615a42565b906000526020600020906005020160020160156101000a81548160ff0219169083151502179055505b806137c681615a6e565b915050613723565b5050565b60006137dc6138c9565b60006137e7426139fb565b600e5490915064ffffffffff6101009091048116908216116138305760405162461bcd60e51b81526020600482015260026024820152610c4d60f21b60448201526064016103fb565b600e54610100900464ffffffffff165b8164ffffffffff168164ffffffffff161161388c5764ffffffffff81166000908152600560205260409020541561387a5760019250505090565b8061388481615ceb565b915050613840565b50600091505090565b61389d6139ca565b3460025411156138bf5760405162461bcd60e51b81526004016103fb90615ace565b6109df8133614fcd565b6000546001600160a01b031633146139075760405162461bcd60e51b81526020600482015260016024820152600360fc1b60448201526064016103fb565b565b600080600d80548060200260200160405190810160405280929190818152602001828054801561396257602002820191906000526020600020905b81546001600160a01b03168152600190910190602001808311613944575b505050505090506000915060005b81518110156139c35781818151811061398b5761398b615a42565b60200260200101516001600160a01b0316846001600160a01b031614156139b157600192505b806139bb81615a6e565b915050613970565b5050919050565b336139075760405162461bcd60e51b81526020600482015260016024820152603360f81b60448201526064016103fb565b6000613a09610e1083615d85565b92915050565b64ffffffffff811660009081526005602052604090205460011415613a565764ffffffffff81166000908152600560205260408120613a4d9161542b565b6137ce81615113565b64ffffffffff811660009081526005602052604081209080805b8354811015613b6157336001600160a01b0316848281548110613a9557613a95615a42565b60009182526020909120600160059092020101546001600160a01b03161415613ac65781613ac281615a6e565b9250505b85848281548110613ad957613ad9615a42565b9060005260206000209060050201600001541415613b4f57809250838181548110613b0657613b06615a42565b6000918252602082206005909102018181556001810180546001600160a01b031990811690915560028201805490911690556003810180546001600160d01b0319169055600401555b80613b5981615a6e565b915050613a70565b5082548390613b7290600190615a89565b81548110613b8257613b82615a42565b9060005260206000209060050201838381548110613ba257613ba2615a42565b60009182526020909120825460059092020190815560018083015490820180546001600160a01b03199081166001600160a01b039384161790915560028085015490840180548316918416919091179055600380850180548286018054948516919095169081178555815464ffffffffff600160a01b9182900416026001600160c81b03199094161792909217808455915460ff600160c81b9182900416939260ff60c81b1916918490811115613c5b57613c5b61567b565b02179055506004918201549101558254839080613c7a57613c7a615ab8565b600082815260208120600560001990930192830201818155600181810180546001600160a01b031990811690915560028301805490911690556003820180546001600160d01b03191690556004909101919091559155811415613ce057613ce084615113565b6000805b600654811015613d2d578660068281548110613d0257613d02615a42565b90600052602060002001541415613d1b57809150613d2d565b80613d2581615a6e565b915050613ce4565b5060068054613d3e90600190615a89565b81548110613d4e57613d4e615a42565b906000526020600020015460068281548110613d6c57613d6c615a42565b6000918252602090912001556006805480613d8957613d89615ab8565b60019003818190600052602060002001600090559055505050505050565b60008060405180606001604052808681526020018561ffff168152602001846001811115613dd757613dd761567b565b905290506000613de682613fca565b9050806060015115613dfd57600192505050613e04565b6000925050505b9392505050565b33600090815260036020526040902054600160a01b900460ff16613e955733600081815260036020526040812080546001600160a01b03199081168417825560048054600181019091557f8a35acfbc15ff81a39ae7d344fd709f28e8600b4aa8c65c6b64bfe7fe36bd19b01805490911684179055919052805460ff60a01b1916600160a01b1790555b33600090815260036020908152604080832060029081018054600181810183559186529484902086519590920290910193845591840151838301805461ffff90921661ffff19831681178255928601518695949093919262ffffff19169091179062010000908490811115613f0c57613f0c61567b565b0217905550505050565b613f1e6153df565b60003386848742604051602001613f39959493929190615da9565b604051602081830303815290604052805190602001209050604051806101200160405280828152602001888152602001336001600160a01b03168152602001600115158152602001600015158152602001876001600160a01b03168152602001856001811115613fab57613fab61567b565b81526020018461ffff1681526020018681525091505095945050505050565b613fd26153df565b600082604001516001811115613fea57613fea61567b565b14156141f95760208083015161ffff1660009081526007825260408082208054825181860281018601909352808352929391929091849084015b8282101561418c576000848152602090819020604080516101208101825260058602909201805483526001808201549484019490945260028101546001600160a01b0380821693850193909352600160a01b80820460ff90811615156060870152600160a81b909204821615156080860152600383015493841660a08601529394919360c08601930416908111156140be576140be61567b565b60018111156140cf576140cf61567b565b81526003820154600160a81b900461ffff1660208201526004820180546040909201916140fb90615d4a565b80601f016020809104026020016040519081016040528092919081815260200182805461412790615d4a565b80156141745780601f1061414957610100808354040283529160200191614174565b820191906000526020600020905b81548152906001019060200180831161415757829003601f168201915b50505050508152505081526020019060010190614024565b50505050905060005b81518110156141f65783600001518282815181106141b5576141b5615a42565b60200260200101516000015114156141e4578181815181106141d9576141d9615a42565b602002602001015192505b806141ee81615a6e565b915050614195565b50505b6001826040015160018111156142115761421161567b565b141561441d5760208083015161ffff1660009081526008825260408082208054825181860281018601909352808352929391929091849084015b828210156143b3576000848152602090819020604080516101208101825260058602909201805483526001808201549484019490945260028101546001600160a01b0380821693850193909352600160a01b80820460ff90811615156060870152600160a81b909204821615156080860152600383015493841660a08601529394919360c08601930416908111156142e5576142e561567b565b60018111156142f6576142f661567b565b81526003820154600160a81b900461ffff16602082015260048201805460409092019161432290615d4a565b80601f016020809104026020016040519081016040528092919081815260200182805461434e90615d4a565b801561439b5780601f106143705761010080835404028352916020019161439b565b820191906000526020600020905b81548152906001019060200180831161437e57829003601f168201915b5050505050815250508152602001906001019061424b565b50505050905060005b81518110156139c35783600001518282815181106143dc576143dc615a42565b602002602001015160000151141561440b5781818151811061440057614400615a42565b602002602001015192505b8061441581615a6e565b9150506143bc565b919050565b428164ffffffffff161161445c5760405162461bcd60e51b81526020600482015260016024820152600d60fa1b60448201526064016103fb565b614468610e1082615e07565b64ffffffffff16156109df5760405162461bcd60e51b81526020600482015260016024820152601b60f91b60448201526064016103fb565b6144a861531e565b6040516bffffffffffffffffffffffff19606088901b1660208201526001600160d81b031960d885901b1660348201524260398201526000906059016040516020818303038152906040528051906020012090506040518060e00160405280828152602001886001600160a01b03168152602001876001600160a01b03168152602001866001600160a01b031681526020018564ffffffffff1681526020016000600381111561455a5761455a61567b565b815260200184905291505095945050505050565b33600090815260036020526040902054600160a01b900460ff1661463657336000818152600360209081526040822080546001600160a01b0319908116851782556004805460018181019092557f8a35acfbc15ff81a39ae7d344fd709f28e8600b4aa8c65c6b64bfe7fe36bd19b01805490921690951790558054600160a01b60ff60a01b199091161781558301805493840181558252902060068083049091018054919092066005026101000a64ffffffffff818102199092169390911602919091179055565b336000908152600360209081526040808320600101805482518185028101850190935280835291929091908301828280156146be57602002820191906000526020600020906000905b82829054906101000a900464ffffffffff1664ffffffffff168152602001906005019060208260040104928301926001038202915080841161467f5790505b505050505090506146cf8282614f0f565b6137ce575033600090815260036020908152604082206001908101805491820181558352912060068083049091018054919092066005026101000a64ffffffffff818102199092169390911602919091179055565b600081600114806147355750816003145b806147405750816005145b8061474b5750816007145b806147565750816008145b80614761575081600a145b8061476c575081600c145b156147795750601f613a09565b816002146147895750601e613a09565b614792836152e2565b61479d57601c6147a0565b601d5b60ff169392505050565b600e5460ff166109df576000806000835167ffffffffffffffff8111156147d3576147d36158d7565b60405190808252806020026020018201604052801561480c57816020015b6147f961531e565b8152602001906001900390816147f15790505b50905060005b8451811015614c115760006001600160a01b031685828151811061483857614838615a42565b6020026020010151606001516001600160a01b031614156148c85784818151811061486557614865615a42565b602002602001015160c001518461487c9190615aa0565b935084818151811061489057614890615a42565b60200260200101518284815181106148aa576148aa615a42565b602002602001018190525082806148c090615a6e565b935050614bff565b8481815181106148da576148da615a42565b602002602001015160c001518582815181106148f8576148f8615a42565b6020026020010151606001516001600160a01b031663dd62ed3e87848151811061492457614924615a42565b60209081029190910181015101516040516001600160e01b031960e084901b1681526001600160a01b039091166004820152306024820152604401602060405180830381600087803b15801561497957600080fd5b505af115801561498d573d6000803e3d6000fd5b505050506040513d601f19601f820116820180604052508101906149b19190615ae9565b1080614a9f57508481815181106149ca576149ca615a42565b602002602001015160c001518582815181106149e8576149e8615a42565b6020026020010151606001516001600160a01b03166370a08231878481518110614a1457614a14615a42565b6020026020010151602001516040518263ffffffff1660e01b8152600401614a4b91906001600160a01b0391909116815260200190565b602060405180830381600087803b158015614a6557600080fd5b505af1158015614a79573d6000803e3d6000fd5b505050506040513d601f19601f82011682018060405250810190614a9d9190615ae9565b105b15614b3157600260056000878481518110614abc57614abc615a42565b60200260200101516080015164ffffffffff1664ffffffffff1681526020019081526020016000208281548110614af557614af5615a42565b906000526020600020906005020160030160196101000a81548160ff02191690836003811115614b2757614b2761567b565b0217905550614bff565b848181518110614b4357614b43615a42565b6020026020010151828481518110614b5d57614b5d615a42565b60200260200101819052508280614b7390615a6e565b935050600160056000878481518110614b8e57614b8e615a42565b60200260200101516080015164ffffffffff1664ffffffffff1681526020019081526020016000208281548110614bc757614bc7615a42565b906000526020600020906005020160030160196101000a81548160ff02191690836003811115614bf957614bf961567b565b02179055505b80614c0981615a6e565b915050614812565b50824711614c465760405162461bcd60e51b8152602060048201526002602482015261313160f01b60448201526064016103fb565b60005b81518110156127e757818181518110614c6457614c64615a42565b602002602001015160c00151600b6000848481518110614c8657614c86615a42565b6020026020010151602001516001600160a01b03166001600160a01b031681526020019081526020016000206000848481518110614cc657614cc6615a42565b6020026020010151606001516001600160a01b03166001600160a01b031681526020019081526020016000206000828254614d019190615a89565b90915550508151600090839083908110614d1d57614d1d615a42565b6020026020010151606001516001600160a01b03161415614dd6576000828281518110614d4c57614d4c615a42565b6020026020010151604001516001600160a01b03166108fc848481518110614d7657614d76615a42565b602002602001015160c001519081150290604051600060405180830381858888f19350505050905080614dd05760405162461bcd60e51b8152602060048201526002602482015261189960f11b60448201526064016103fb565b50614eef565b818181518110614de857614de8615a42565b6020026020010151606001516001600160a01b03166323b872dd838381518110614e1457614e14615a42565b602002602001015160200151848481518110614e3257614e32615a42565b602002602001015160400151858581518110614e5057614e50615a42565b602090810291909101015160c001516040516001600160e01b031960e086901b1681526001600160a01b0393841660048201529290911660248301526044820152606401602060405180830381600087803b158015614eae57600080fd5b505af1158015614ec2573d6000803e3d6000fd5b505050506040513d601f19601f82011682018060405250810190614ee69190615d28565b614eef57600080fd5b80614ef981615a6e565b915050614c49565b6000613a0982610e10615e2b565b6000805b8251811015614f67578364ffffffffff16838281518110614f3657614f36615a42565b602002602001015164ffffffffff161415614f55576001915050613a09565b80614f5f81615a6e565b915050614f13565b5060009392505050565b6000805b8251811015614f6757836001600160a01b0316838281518110614f9a57614f9a615a42565b60200260200101516001600160a01b03161415614fbb576001915050613a09565b80614fc581615a6e565b915050614f75565b600082815260096020526040812090805b82548110156127e757836001600160a01b031683828154811061500357615003615a42565b6000918252602090912001546001600160a01b031614156150515780915082818154811061503357615033615a42565b600091825260209091200180546001600160a01b03191690556127e7565b8254839061506190600190615a89565b8154811061507157615071615a42565b9060005260206000200160009054906101000a90046001600160a01b03168383815481106150a1576150a1615a42565b9060005260206000200160006101000a8154816001600160a01b0302191690836001600160a01b03160217905550828054806150df576150df615ab8565b600082815260209020810160001990810180546001600160a01b03191690550190558061510b81615a6e565b915050614fde565b336000908152600360205260409020600190810154141561514c573360009081526003602052604081206109df9160019091019061544c565b33600090815260036020526040812060010190805b825481101561520d578364ffffffffff1683828154811061518457615184615a42565b90600052602060002090600691828204019190066005029054906101000a900464ffffffffff1664ffffffffff1614156151fb578091508281815481106151cd576151cd615a42565b90600052602060002090600691828204019190066005026101000a81549064ffffffffff021916905561520d565b8061520581615a6e565b915050615161565b508154829061521e90600190615a89565b8154811061522e5761522e615a42565b90600052602060002090600691828204019190066005029054906101000a900464ffffffffff1682828154811061526757615267615a42565b90600052602060002090600691828204019190066005026101000a81548164ffffffffff021916908364ffffffffff160217905550818054806152ac576152ac615ab8565b60019003818190600052602060002090600691828204019190066005026101000a81549064ffffffffff02191690559055505050565b60006152ef600483615e58565b1580156153055750615302606483615e58565b15155b80613a09575061531761019083615e58565b1592915050565b6040805160e08101825260008082526020820181905291810182905260608101829052608081018290529060a08201908152602001600081525090565b82805461536790615d4a565b90600052602060002090601f01602090048101928261538957600085556153cf565b82601f106153a257805160ff19168380011785556153cf565b828001600101855582156153cf579182015b828111156153cf5782518255916020019190600101906153b4565b506153db92915061546d565b5090565b6040805161012081018252600080825260208201819052918101829052606081018290526080810182905260a081018290529060c0820190815260006020820152606060409091015290565b50805460008255600502906000526020600020908101906109df9190615482565b5080546000825560050160069004906000526020600020908101906109df91905b5b808211156153db576000815560010161546e565b5b808211156153db5760008082556001820180546001600160a01b031990811690915560028301805490911690556003820180546001600160d01b03191690556004820155600501615483565b6001600160a01b03811681146109df57600080fd5b6000602082840312156154f657600080fd5b8135613e04816154cf565b803564ffffffffff8116811461441d57600080fd5b60008060006060848603121561552b57600080fd5b8335925061553b60208501615501565b9150604084013561554b816154cf565b809150509250925092565b60006020828403121561556857600080fd5b813567ffffffffffffffff81111561557f57600080fd5b82016101208185031215613e0457600080fd5b80356002811061441d57600080fd5b803561ffff8116811461441d57600080fd5b60008060008060008060a087890312156155cc57600080fd5b8635955060208701356155de816154cf565b9450604087013567ffffffffffffffff808211156155fb57600080fd5b818901915089601f83011261560f57600080fd5b81358181111561561e57600080fd5b8a602082850101111561563057600080fd5b60208301965080955050505061564860608801615592565b9150615656608088016155a1565b90509295509295509295565b60006020828403121561567457600080fd5b5035919050565b634e487b7160e01b600052602160045260246000fd5b600281106156a1576156a161567b565b9052565b60005b838110156156c05781810151838201526020016156a8565b838111156112e55750506000910152565b600081518084526156e98160208601602086016156a5565b601f01601f19169290920160200192915050565b60006020808301818452808551808352604092508286019150828160051b87010184880160005b838110156157cf57603f198984030185528151805184528781015188850152868101516001600160a01b039081168886015260608083015115159086015260808083015115159086015260a0808301519091169085015260c080820151610120919061579282880182615691565b505060e08281015161ffff1690860152610100918201519185018190526157bb818601836156d1565b968901969450505090860190600101615724565b509098975050505050505050565b600080600080608085870312156157f357600080fd5b84356157fe816154cf565b935061580c60208601615501565b9250604085013591506060850135615823816154cf565b939692955090935050565b602080825282518282018190526000919060409081850190868401855b828110156158ca57815180518552868101516001600160a01b0390811688870152868201518116878701526060808301519091169086015260808082015164ffffffffff169086015260a080820151600481106158aa576158aa61567b565b9086015260c0908101519085015260e0909301929085019060010161584b565b5091979650505050505050565b634e487b7160e01b600052604160045260246000fd5b6040516080810167ffffffffffffffff81118282101715615910576159106158d7565b60405290565b604051601f8201601f1916810167ffffffffffffffff8111828210171561593f5761593f6158d7565b604052919050565b6000602080838503121561595a57600080fd5b823567ffffffffffffffff8082111561597257600080fd5b818501915085601f83011261598657600080fd5b813581811115615998576159986158d7565b6159a6848260051b01615916565b818152848101925060079190911b8301840190878211156159c657600080fd5b928401925b81841015615a3757608084890312156159e45760008081fd5b6159ec6158ed565b84356159f7816154cf565b8152615a04858701615501565b8187015260408581013590820152606080860135615a21816154cf565b90820152835260809390930192918401916159cb565b979650505050505050565b634e487b7160e01b600052603260045260246000fd5b634e487b7160e01b600052601160045260246000fd5b6000600019821415615a8257615a82615a58565b5060010190565b600082821015615a9b57615a9b615a58565b500390565b60008219821115615ab357615ab3615a58565b500190565b634e487b7160e01b600052603160045260246000fd5b6020808252600190820152603560f81b604082015260600190565b600060208284031215615afb57600080fd5b5051919050565b602080825260029082015261313360f01b604082015260600190565b600060208284031215615b3057600080fd5b613e04826155a1565b600060208284031215615b4b57600080fd5b613e0482615592565b6020808252600190820152603960f81b604082015260600190565b6000816000190483118215151615615b8957615b89615a58565b500290565b634e487b7160e01b600052601260045260246000fd5b600082615bb357615bb3615b8e565b500490565b600080821280156001600160ff1b0384900385131615615bda57615bda615a58565b600160ff1b8390038412811615615bf357615bf3615a58565b50500190565b60006001600160ff1b0381841382841380821686840486111615615c1f57615c1f615a58565b600160ff1b6000871282811687830589121615615c3e57615c3e615a58565b60008712925087820587128484161615615c5a57615c5a615a58565b87850587128184161615615c7057615c70615a58565b505050929093029392505050565b600082615c8d57615c8d615b8e565b600160ff1b821460001984141615615ca757615ca7615a58565b500590565b60008083128015600160ff1b850184121615615cca57615cca615a58565b6001600160ff1b0384018313811615615ce557615ce5615a58565b50500390565b600064ffffffffff80831681811415615d0657615d06615a58565b6001019392505050565b600061ffff80831681811415615d0657615d06615a58565b600060208284031215615d3a57600080fd5b81518015158114613e0457600080fd5b600181811c90821680615d5e57607f821691505b60208210811415615d7f57634e487b7160e01b600052602260045260246000fd5b50919050565b600064ffffffffff80841680615d9d57615d9d615b8e565b92169190910492915050565b60006bffffffffffffffffffffffff19808860601b168352808760601b1660148401525061ffff60f01b8560f01b1660288301528351615df081602a8501602088016156a5565b602a920191820192909252604a0195945050505050565b600064ffffffffff80841680615e1f57615e1f615b8e565b92169190910692915050565b600064ffffffffff80831681851681830481118215151615615e4f57615e4f615a58565b02949350505050565b600082615e6757615e67615b8e565b50069056fea264697066735822122046095f4747309592efbf0f249401d049eab2ba7cdb5de193f86ab07a6ff2f92e64736f6c63430008090033","opcodes":"PUSH1 0x80 PUSH1 0x40 MSTORE PUSH1 0x0 DUP1 SLOAD PUSH1 0x1 PUSH1 0x1 PUSH1 0xA0 SHL SUB NOT AND PUSH20 0xF39FD6E51AAD88F6F4CE6AB8827279CFFFB92266 OR SWAP1 SSTORE PUSH1 0x64 PUSH1 0x1 SWAP1 DUP2 SSTORE PUSH7 0x2386F26FC10000 PUSH1 0x2 SSTORE PUSH1 0xE DUP1 SLOAD PUSH1 0xFF NOT AND SWAP1 SSTORE PUSH3 0x51 TIMESTAMP PUSH3 0x85 JUMP JUMPDEST PUSH3 0x5D SWAP2 SWAP1 PUSH3 0x9B JUMP JUMPDEST PUSH1 0xE PUSH1 0x1 PUSH2 0x100 EXP DUP2 SLOAD DUP2 PUSH5 0xFFFFFFFFFF MUL NOT AND SWAP1 DUP4 PUSH5 0xFFFFFFFFFF AND MUL OR SWAP1 SSTORE POP PUSH3 0x103 JUMP JUMPDEST PUSH1 0x0 PUSH3 0x95 PUSH2 0xE10 DUP4 PUSH3 0xD0 JUMP JUMPDEST SWAP3 SWAP2 POP POP JUMP JUMPDEST PUSH1 0x0 PUSH5 0xFFFFFFFFFF DUP4 DUP2 AND SWAP1 DUP4 AND DUP2 DUP2 LT ISZERO PUSH3 0xC8 JUMPI PUSH4 0x4E487B71 PUSH1 0xE0 SHL PUSH1 0x0 MSTORE PUSH1 0x11 PUSH1 0x4 MSTORE PUSH1 0x24 PUSH1 0x0 REVERT JUMPDEST SUB SWAP4 SWAP3 POP POP POP JUMP JUMPDEST PUSH1 0x0 PUSH5 0xFFFFFFFFFF DUP1 DUP5 AND DUP1 PUSH3 0xF7 JUMPI PUSH4 0x4E487B71 PUSH1 0xE0 SHL PUSH1 0x0 MSTORE PUSH1 0x12 PUSH1 0x4 MSTORE PUSH1 0x24 PUSH1 0x0 REVERT JUMPDEST SWAP3 AND SWAP2 SWAP1 SWAP2 DIV SWAP3 SWAP2 POP POP JUMP JUMPDEST PUSH2 0x5EA2 DUP1 PUSH3 0x113 PUSH1 0x0 CODECOPY PUSH1 0x0 RETURN INVALID PUSH1 0x80 PUSH1 0x40 MSTORE PUSH1 0x4 CALLDATASIZE LT PUSH2 0x122 JUMPI PUSH1 0x0 CALLDATALOAD PUSH1 0xE0 SHR DUP1 PUSH4 0x8F283970 GT PUSH2 0xA5 JUMPI DUP1 PUSH4 0xCED72F87 GT PUSH2 0x6C JUMPI DUP1 PUSH4 0xCED72F87 EQ PUSH2 0x316 JUMPI DUP1 PUSH4 0xD10FA144 EQ PUSH2 0x32B JUMPI DUP1 PUSH4 0xDC700089 EQ PUSH2 0x33E JUMPI DUP1 PUSH4 0xDE005F7C EQ PUSH2 0x353 JUMPI DUP1 PUSH4 0xE0C6190D EQ PUSH2 0x373 JUMPI DUP1 PUSH4 0xF8C60146 EQ PUSH2 0x398 JUMPI STOP JUMPDEST DUP1 PUSH4 0x8F283970 EQ PUSH2 0x264 JUMPI DUP1 PUSH4 0x93BC8413 EQ PUSH2 0x284 JUMPI DUP1 PUSH4 0xAA58A5B0 EQ PUSH2 0x2BF JUMPI DUP1 PUSH4 0xAB7E0909 EQ PUSH2 0x2D4 JUMPI DUP1 PUSH4 0xC682CCE4 EQ PUSH2 0x2F4 JUMPI STOP JUMPDEST DUP1 PUSH4 0x3084F79E GT PUSH2 0xE9 JUMPI DUP1 PUSH4 0x3084F79E EQ PUSH2 0x1DC JUMPI DUP1 PUSH4 0x6A1DB1BF EQ PUSH2 0x1EF JUMPI DUP1 PUSH4 0x7CE1EF39 EQ PUSH2 0x20F JUMPI DUP1 PUSH4 0x80423444 EQ PUSH2 0x231 JUMPI DUP1 PUSH4 0x8E83AC4A EQ PUSH2 0x244 JUMPI STOP JUMPDEST DUP1 PUSH4 0x53149FA EQ PUSH2 0x12B JUMPI DUP1 PUSH4 0x1385D24C EQ PUSH2 0x14B JUMPI DUP1 PUSH4 0x13B51234 EQ PUSH2 0x160 JUMPI DUP1 PUSH4 0x2A2B3690 EQ PUSH2 0x1B6 JUMPI DUP1 PUSH4 0x2C04C453 EQ PUSH2 0x1C9 JUMPI STOP JUMPDEST CALLDATASIZE PUSH2 0x129 JUMPI STOP JUMPDEST STOP JUMPDEST CALLVALUE DUP1 ISZERO PUSH2 0x137 JUMPI PUSH1 0x0 DUP1 REVERT JUMPDEST POP PUSH2 0x129 PUSH2 0x146 CALLDATASIZE PUSH1 0x4 PUSH2 0x54E4 JUMP JUMPDEST PUSH2 0x3AB JUMP JUMPDEST CALLVALUE DUP1 ISZERO PUSH2 0x157 JUMPI PUSH1 0x0 DUP1 REVERT JUMPDEST POP PUSH2 0x129 PUSH2 0x593 JUMP JUMPDEST CALLVALUE DUP1 ISZERO PUSH2 0x16C JUMPI PUSH1 0x0 DUP1 REVERT JUMPDEST POP PUSH2 0x1A3 PUSH2 0x17B CALLDATASIZE PUSH1 0x4 PUSH2 0x54E4 JUMP JUMPDEST CALLER PUSH1 0x0 SWAP1 DUP2 MSTORE PUSH1 0xB PUSH1 0x20 SWAP1 DUP2 MSTORE PUSH1 0x40 DUP1 DUP4 KECCAK256 PUSH1 0x1 PUSH1 0x1 PUSH1 0xA0 SHL SUB SWAP5 SWAP1 SWAP5 AND DUP4 MSTORE SWAP3 SWAP1 MSTORE KECCAK256 SLOAD SWAP1 JUMP JUMPDEST PUSH1 0x40 MLOAD SWAP1 DUP2 MSTORE PUSH1 0x20 ADD JUMPDEST PUSH1 0x40 MLOAD DUP1 SWAP2 SUB SWAP1 RETURN JUMPDEST PUSH2 0x129 PUSH2 0x1C4 CALLDATASIZE PUSH1 0x4 PUSH2 0x5516 JUMP JUMPDEST PUSH2 0x5AF JUMP JUMPDEST PUSH2 0x129 PUSH2 0x1D7 CALLDATASIZE PUSH1 0x4 PUSH2 0x5556 JUMP JUMPDEST PUSH2 0x81D JUMP JUMPDEST PUSH2 0x129 PUSH2 0x1EA CALLDATASIZE PUSH1 0x4 PUSH2 0x55B3 JUMP JUMPDEST PUSH2 0x9E2 JUMP JUMPDEST CALLVALUE DUP1 ISZERO PUSH2 0x1FB JUMPI PUSH1 0x0 DUP1 REVERT JUMPDEST POP PUSH2 0x129 PUSH2 0x20A CALLDATASIZE PUSH1 0x4 PUSH2 0x5662 JUMP JUMPDEST PUSH2 0xE75 JUMP JUMPDEST CALLVALUE DUP1 ISZERO PUSH2 0x21B JUMPI PUSH1 0x0 DUP1 REVERT JUMPDEST POP PUSH2 0x224 PUSH2 0xE82 JUMP JUMPDEST PUSH1 0x40 MLOAD PUSH2 0x1AD SWAP2 SWAP1 PUSH2 0x56FD JUMP JUMPDEST PUSH2 0x129 PUSH2 0x23F CALLDATASIZE PUSH1 0x4 PUSH2 0x57DD JUMP JUMPDEST PUSH2 0xFF4 JUMP JUMPDEST CALLVALUE DUP1 ISZERO PUSH2 0x250 JUMPI PUSH1 0x0 DUP1 REVERT JUMPDEST POP PUSH2 0x129 PUSH2 0x25F CALLDATASIZE PUSH1 0x4 PUSH2 0x5662 JUMP JUMPDEST PUSH2 0x12EB JUMP JUMPDEST CALLVALUE DUP1 ISZERO PUSH2 0x270 JUMPI PUSH1 0x0 DUP1 REVERT JUMPDEST POP PUSH2 0x129 PUSH2 0x27F CALLDATASIZE PUSH1 0x4 PUSH2 0x54E4 JUMP JUMPDEST PUSH2 0x12F8 JUMP JUMPDEST CALLVALUE DUP1 ISZERO PUSH2 0x290 JUMPI PUSH1 0x0 DUP1 REVERT JUMPDEST POP PUSH2 0x2A4 PUSH2 0x29F CALLDATASIZE PUSH1 0x4 PUSH2 0x5662 JUMP JUMPDEST PUSH2 0x134B JUMP JUMPDEST PUSH1 0x40 DUP1 MLOAD PUSH2 0xFFFF SWAP4 DUP5 AND DUP2 MSTORE SWAP3 SWAP1 SWAP2 AND PUSH1 0x20 DUP4 ADD MSTORE ADD PUSH2 0x1AD JUMP JUMPDEST CALLVALUE DUP1 ISZERO PUSH2 0x2CB JUMPI PUSH1 0x0 DUP1 REVERT JUMPDEST POP PUSH2 0x129 PUSH2 0x1510 JUMP JUMPDEST CALLVALUE DUP1 ISZERO PUSH2 0x2E0 JUMPI PUSH1 0x0 DUP1 REVERT JUMPDEST POP PUSH2 0x129 PUSH2 0x2EF CALLDATASIZE PUSH1 0x4 PUSH2 0x54E4 JUMP JUMPDEST PUSH2 0x16E3 JUMP JUMPDEST CALLVALUE DUP1 ISZERO PUSH2 0x300 JUMPI PUSH1 0x0 DUP1 REVERT JUMPDEST POP PUSH2 0x309 PUSH2 0x178A JUMP JUMPDEST PUSH1 0x40 MLOAD PUSH2 0x1AD SWAP2 SWAP1 PUSH2 0x582E JUMP JUMPDEST CALLVALUE DUP1 ISZERO PUSH2 0x322 JUMPI PUSH1 0x0 DUP1 REVERT JUMPDEST POP PUSH1 0x1 SLOAD PUSH2 0x1A3 JUMP JUMPDEST PUSH2 0x129 PUSH2 0x339 CALLDATASIZE PUSH1 0x4 PUSH2 0x5947 JUMP JUMPDEST PUSH2 0x1C6E JUMP JUMPDEST CALLVALUE DUP1 ISZERO PUSH2 0x34A JUMPI PUSH1 0x0 DUP1 REVERT JUMPDEST POP PUSH2 0x129 PUSH2 0x27EE JUMP JUMPDEST CALLVALUE DUP1 ISZERO PUSH2 0x35F JUMPI PUSH1 0x0 DUP1 REVERT JUMPDEST POP PUSH2 0x129 PUSH2 0x36E CALLDATASIZE PUSH1 0x4 PUSH2 0x5556 JUMP JUMPDEST PUSH2 0x31AC JUMP JUMPDEST CALLVALUE DUP1 ISZERO PUSH2 0x37F JUMPI PUSH1 0x0 DUP1 REVERT JUMPDEST POP PUSH2 0x388 PUSH2 0x37D2 JUMP JUMPDEST PUSH1 0x40 MLOAD SWAP1 ISZERO ISZERO DUP2 MSTORE PUSH1 0x20 ADD PUSH2 0x1AD JUMP JUMPDEST PUSH2 0x129 PUSH2 0x3A6 CALLDATASIZE PUSH1 0x4 PUSH2 0x5662 JUMP JUMPDEST PUSH2 0x3895 JUMP JUMPDEST PUSH2 0x3B3 PUSH2 0x38C9 JUMP JUMPDEST PUSH1 0x1 PUSH1 0x1 PUSH1 0xA0 SHL SUB DUP2 AND PUSH2 0x3C6 JUMPI PUSH1 0x0 DUP1 REVERT JUMPDEST PUSH2 0x3CF DUP2 PUSH2 0x3909 JUMP JUMPDEST PUSH2 0x404 JUMPI PUSH1 0x40 MLOAD PUSH3 0x461BCD PUSH1 0xE5 SHL DUP2 MSTORE PUSH1 0x20 PUSH1 0x4 DUP3 ADD MSTORE PUSH1 0x1 PUSH1 0x24 DUP3 ADD MSTORE PUSH1 0x19 PUSH1 0xF9 SHL PUSH1 0x44 DUP3 ADD MSTORE PUSH1 0x64 ADD JUMPDEST PUSH1 0x40 MLOAD DUP1 SWAP2 SUB SWAP1 REVERT JUMPDEST PUSH1 0x0 PUSH1 0xD DUP1 SLOAD DUP1 PUSH1 0x20 MUL PUSH1 0x20 ADD PUSH1 0x40 MLOAD SWAP1 DUP2 ADD PUSH1 0x40 MSTORE DUP1 SWAP3 SWAP2 SWAP1 DUP2 DUP2 MSTORE PUSH1 0x20 ADD DUP3 DUP1 SLOAD DUP1 ISZERO PUSH2 0x45C JUMPI PUSH1 0x20 MUL DUP3 ADD SWAP2 SWAP1 PUSH1 0x0 MSTORE PUSH1 0x20 PUSH1 0x0 KECCAK256 SWAP1 JUMPDEST DUP2 SLOAD PUSH1 0x1 PUSH1 0x1 PUSH1 0xA0 SHL SUB AND DUP2 MSTORE PUSH1 0x1 SWAP1 SWAP2 ADD SWAP1 PUSH1 0x20 ADD DUP1 DUP4 GT PUSH2 0x43E JUMPI JUMPDEST POP POP POP POP POP SWAP1 POP PUSH1 0x0 DUP1 JUMPDEST DUP3 MLOAD DUP2 LT ISZERO PUSH2 0x4BD JUMPI DUP4 PUSH1 0x1 PUSH1 0x1 PUSH1 0xA0 SHL SUB AND DUP4 DUP3 DUP2 MLOAD DUP2 LT PUSH2 0x48C JUMPI PUSH2 0x48C PUSH2 0x5A42 JUMP JUMPDEST PUSH1 0x20 MUL PUSH1 0x20 ADD ADD MLOAD PUSH1 0x1 PUSH1 0x1 PUSH1 0xA0 SHL SUB AND EQ ISZERO PUSH2 0x4AB JUMPI DUP1 SWAP2 POP PUSH2 0x4BD JUMP JUMPDEST DUP1 PUSH2 0x4B5 DUP2 PUSH2 0x5A6E JUMP JUMPDEST SWAP2 POP POP PUSH2 0x467 JUMP JUMPDEST POP DUP1 JUMPDEST PUSH1 0xD SLOAD PUSH2 0x4CF SWAP1 PUSH1 0x1 SWAP1 PUSH2 0x5A89 JUMP JUMPDEST DUP2 LT ISZERO PUSH2 0x55A JUMPI PUSH1 0xD PUSH2 0x4E3 DUP3 PUSH1 0x1 PUSH2 0x5AA0 JUMP JUMPDEST DUP2 SLOAD DUP2 LT PUSH2 0x4F3 JUMPI PUSH2 0x4F3 PUSH2 0x5A42 JUMP JUMPDEST PUSH1 0x0 SWAP2 DUP3 MSTORE PUSH1 0x20 SWAP1 SWAP2 KECCAK256 ADD SLOAD PUSH1 0xD DUP1 SLOAD PUSH1 0x1 PUSH1 0x1 PUSH1 0xA0 SHL SUB SWAP1 SWAP3 AND SWAP2 DUP4 SWAP1 DUP2 LT PUSH2 0x51F JUMPI PUSH2 0x51F PUSH2 0x5A42 JUMP JUMPDEST PUSH1 0x0 SWAP2 DUP3 MSTORE PUSH1 0x20 SWAP1 SWAP2 KECCAK256 ADD DUP1 SLOAD PUSH1 0x1 PUSH1 0x1 PUSH1 0xA0 SHL SUB NOT AND PUSH1 0x1 PUSH1 0x1 PUSH1 0xA0 SHL SUB SWAP3 SWAP1 SWAP3 AND SWAP2 SWAP1 SWAP2 OR SWAP1 SSTORE DUP1 PUSH2 0x552 DUP2 PUSH2 0x5A6E JUMP JUMPDEST SWAP2 POP POP PUSH2 0x4C0 JUMP JUMPDEST POP PUSH1 0xD DUP1 SLOAD DUP1 PUSH2 0x56C JUMPI PUSH2 0x56C PUSH2 0x5AB8 JUMP JUMPDEST PUSH1 0x0 DUP3 DUP2 MSTORE PUSH1 0x20 SWAP1 KECCAK256 DUP2 ADD PUSH1 0x0 NOT SWAP1 DUP2 ADD DUP1 SLOAD PUSH1 0x1 PUSH1 0x1 PUSH1 0xA0 SHL SUB NOT AND SWAP1 SSTORE ADD SWAP1 SSTORE POP POP POP JUMP JUMPDEST PUSH2 0x59B PUSH2 0x38C9 JUMP JUMPDEST PUSH1 0xE DUP1 SLOAD PUSH1 0xFF NOT DUP2 AND PUSH1 0xFF SWAP1 SWAP2 AND ISZERO OR SWAP1 SSTORE JUMP JUMPDEST PUSH2 0x5B7 PUSH2 0x39CA JUMP JUMPDEST PUSH1 0x0 PUSH2 0x5C2 DUP4 PUSH2 0x39FB JUMP JUMPDEST PUSH5 0xFFFFFFFFFF DUP2 AND PUSH1 0x0 SWAP1 DUP2 MSTORE PUSH1 0x5 PUSH1 0x20 SWAP1 DUP2 MSTORE PUSH1 0x40 DUP1 DUP4 KECCAK256 DUP1 SLOAD DUP3 MLOAD DUP2 DUP6 MUL DUP2 ADD DUP6 ADD SWAP1 SWAP4 MSTORE DUP1 DUP4 MSTORE SWAP5 SWAP6 POP SWAP3 SWAP4 SWAP1 SWAP3 SWAP2 DUP5 SWAP1 DUP5 ADD JUMPDEST DUP3 DUP3 LT ISZERO PUSH2 0x6B8 JUMPI PUSH1 0x0 DUP5 DUP2 MSTORE PUSH1 0x20 SWAP1 DUP2 SWAP1 KECCAK256 PUSH1 0x40 DUP1 MLOAD PUSH1 0xE0 DUP2 ADD DUP3 MSTORE PUSH1 0x5 DUP7 MUL SWAP1 SWAP3 ADD DUP1 SLOAD DUP4 MSTORE PUSH1 0x1 DUP2 ADD SLOAD PUSH1 0x1 PUSH1 0x1 PUSH1 0xA0 SHL SUB SWAP1 DUP2 AND SWAP5 DUP5 ADD SWAP5 SWAP1 SWAP5 MSTORE PUSH1 0x2 DUP2 ADD SLOAD DUP5 AND SWAP2 DUP4 ADD SWAP2 SWAP1 SWAP2 MSTORE PUSH1 0x3 DUP1 DUP3 ADD SLOAD SWAP4 DUP5 AND PUSH1 0x60 DUP5 ADD MSTORE PUSH1 0x1 PUSH1 0xA0 SHL DUP5 DIV PUSH5 0xFFFFFFFFFF AND PUSH1 0x80 DUP5 ADD MSTORE SWAP2 SWAP3 SWAP1 SWAP2 PUSH1 0xA0 DUP5 ADD SWAP2 PUSH1 0x1 PUSH1 0xC8 SHL SWAP1 DIV PUSH1 0xFF AND SWAP1 DUP2 GT ISZERO PUSH2 0x68A JUMPI PUSH2 0x68A PUSH2 0x567B JUMP JUMPDEST PUSH1 0x3 DUP2 GT ISZERO PUSH2 0x69B JUMPI PUSH2 0x69B PUSH2 0x567B JUMP JUMPDEST DUP2 MSTORE PUSH1 0x20 ADD PUSH1 0x4 DUP3 ADD SLOAD DUP2 MSTORE POP POP DUP2 MSTORE PUSH1 0x20 ADD SWAP1 PUSH1 0x1 ADD SWAP1 PUSH2 0x5F9 JUMP JUMPDEST POP POP POP POP SWAP1 POP PUSH2 0x6C6 PUSH2 0x531E JUMP JUMPDEST PUSH1 0x0 JUMPDEST DUP3 MLOAD DUP2 LT ISZERO PUSH2 0x72A JUMPI DUP7 DUP4 DUP3 DUP2 MLOAD DUP2 LT PUSH2 0x6E5 JUMPI PUSH2 0x6E5 PUSH2 0x5A42 JUMP JUMPDEST PUSH1 0x20 MUL PUSH1 0x20 ADD ADD MLOAD PUSH1 0x0 ADD MLOAD EQ ISZERO PUSH2 0x718 JUMPI DUP3 DUP2 DUP2 MLOAD DUP2 LT PUSH2 0x709 JUMPI PUSH2 0x709 PUSH2 0x5A42 JUMP JUMPDEST PUSH1 0x20 MUL PUSH1 0x20 ADD ADD MLOAD SWAP2 POP PUSH2 0x72A JUMP JUMPDEST DUP1 PUSH2 0x722 DUP2 PUSH2 0x5A6E JUMP JUMPDEST SWAP2 POP POP PUSH2 0x6C9 JUMP JUMPDEST POP PUSH2 0x73D DUP2 PUSH1 0x0 ADD MLOAD DUP3 PUSH1 0x80 ADD MLOAD PUSH2 0x3A0F JUMP JUMPDEST PUSH1 0x1 PUSH1 0x1 PUSH1 0xA0 SHL SUB DUP5 AND ISZERO PUSH2 0x78F JUMPI PUSH1 0xC0 DUP2 ADD MLOAD CALLER PUSH1 0x0 SWAP1 DUP2 MSTORE PUSH1 0xB PUSH1 0x20 SWAP1 DUP2 MSTORE PUSH1 0x40 DUP1 DUP4 KECCAK256 PUSH1 0x1 PUSH1 0x1 PUSH1 0xA0 SHL SUB DUP10 AND DUP5 MSTORE SWAP1 SWAP2 MSTORE DUP2 KECCAK256 DUP1 SLOAD SWAP1 SWAP2 SWAP1 PUSH2 0x784 SWAP1 DUP5 SWAP1 PUSH2 0x5A89 JUMP JUMPDEST SWAP1 SWAP2 SSTORE POP PUSH2 0x815 SWAP1 POP JUMP JUMPDEST PUSH1 0xC0 DUP2 ADD MLOAD CALLER PUSH1 0x0 SWAP1 DUP2 MSTORE PUSH1 0xB PUSH1 0x20 SWAP1 DUP2 MSTORE PUSH1 0x40 DUP1 DUP4 KECCAK256 PUSH1 0x1 PUSH1 0x1 PUSH1 0xA0 SHL SUB DUP10 AND DUP5 MSTORE SWAP1 SWAP2 MSTORE DUP2 KECCAK256 DUP1 SLOAD SWAP1 SWAP2 SWAP1 PUSH2 0x7C7 SWAP1 DUP5 SWAP1 PUSH2 0x5A89 JUMP JUMPDEST SWAP1 SWAP2 SSTORE POP POP PUSH1 0xC0 DUP2 ADD MLOAD SELFBALANCE GT PUSH2 0x7DC JUMPI PUSH1 0x0 DUP1 REVERT JUMPDEST DUP1 PUSH1 0x20 ADD MLOAD PUSH1 0x1 PUSH1 0x1 PUSH1 0xA0 SHL SUB AND PUSH2 0x8FC DUP3 PUSH1 0xC0 ADD MLOAD SWAP1 DUP2 ISZERO MUL SWAP1 PUSH1 0x40 MLOAD PUSH1 0x0 PUSH1 0x40 MLOAD DUP1 DUP4 SUB DUP2 DUP6 DUP9 DUP9 CALL SWAP4 POP POP POP POP PUSH2 0x815 JUMPI PUSH1 0x0 DUP1 REVERT JUMPDEST POP POP POP POP POP POP JUMP JUMPDEST PUSH2 0x825 PUSH2 0x39CA JUMP JUMPDEST CALLVALUE PUSH1 0x2 SLOAD GT ISZERO PUSH2 0x847 JUMPI PUSH1 0x40 MLOAD PUSH3 0x461BCD PUSH1 0xE5 SHL DUP2 MSTORE PUSH1 0x4 ADD PUSH2 0x3FB SWAP1 PUSH2 0x5ACE JUMP JUMPDEST PUSH1 0x20 DUP2 ADD CALLDATALOAD PUSH2 0x85C PUSH1 0xC0 DUP4 ADD PUSH1 0xA0 DUP5 ADD PUSH2 0x54E4 JUMP JUMPDEST PUSH1 0x40 MLOAD PUSH4 0x6EB1769F PUSH1 0xE1 SHL DUP2 MSTORE CALLER PUSH1 0x4 DUP3 ADD MSTORE ADDRESS PUSH1 0x24 DUP3 ADD MSTORE PUSH1 0x1 PUSH1 0x1 PUSH1 0xA0 SHL SUB SWAP2 SWAP1 SWAP2 AND SWAP1 PUSH4 0xDD62ED3E SWAP1 PUSH1 0x44 ADD PUSH1 0x20 PUSH1 0x40 MLOAD DUP1 DUP4 SUB DUP2 PUSH1 0x0 DUP8 DUP1 EXTCODESIZE ISZERO DUP1 ISZERO PUSH2 0x8A5 JUMPI PUSH1 0x0 DUP1 REVERT JUMPDEST POP GAS CALL ISZERO DUP1 ISZERO PUSH2 0x8B9 JUMPI RETURNDATASIZE PUSH1 0x0 DUP1 RETURNDATACOPY RETURNDATASIZE PUSH1 0x0 REVERT JUMPDEST POP POP POP POP PUSH1 0x40 MLOAD RETURNDATASIZE PUSH1 0x1F NOT PUSH1 0x1F DUP3 ADD AND DUP3 ADD DUP1 PUSH1 0x40 MSTORE POP DUP2 ADD SWAP1 PUSH2 0x8DD SWAP2 SWAP1 PUSH2 0x5AE9 JUMP JUMPDEST LT ISZERO PUSH2 0x8FB JUMPI PUSH1 0x40 MLOAD PUSH3 0x461BCD PUSH1 0xE5 SHL DUP2 MSTORE PUSH1 0x4 ADD PUSH2 0x3FB SWAP1 PUSH2 0x5B02 JUMP JUMPDEST PUSH2 0x926 DUP2 CALLDATALOAD PUSH2 0x911 PUSH2 0x100 DUP5 ADD PUSH1 0xE0 DUP6 ADD PUSH2 0x5B1E JUMP JUMPDEST PUSH2 0x921 PUSH1 0xE0 DUP6 ADD PUSH1 0xC0 DUP7 ADD PUSH2 0x5B39 JUMP JUMPDEST PUSH2 0x3DA7 JUMP JUMPDEST PUSH2 0x956 JUMPI PUSH1 0x40 MLOAD PUSH3 0x461BCD PUSH1 0xE5 SHL DUP2 MSTORE PUSH1 0x20 PUSH1 0x4 DUP3 ADD MSTORE PUSH1 0x1 PUSH1 0x24 DUP3 ADD MSTORE PUSH1 0x37 PUSH1 0xF8 SHL PUSH1 0x44 DUP3 ADD MSTORE PUSH1 0x64 ADD PUSH2 0x3FB JUMP JUMPDEST DUP1 CALLDATALOAD PUSH1 0x0 DUP2 DUP2 MSTORE PUSH1 0x9 PUSH1 0x20 SWAP1 DUP2 MSTORE PUSH1 0x40 DUP1 DUP4 KECCAK256 DUP1 SLOAD PUSH1 0x1 DUP2 ADD DUP3 SSTORE SWAP1 DUP5 MSTORE SWAP3 DUP3 SWAP1 KECCAK256 SWAP1 SWAP3 ADD DUP1 SLOAD PUSH1 0x1 PUSH1 0x1 PUSH1 0xA0 SHL SUB NOT AND CALLER OR SWAP1 SSTORE DUP2 MLOAD PUSH1 0x60 DUP2 ADD SWAP1 SWAP3 MSTORE SWAP2 DUP2 MSTORE PUSH2 0x9DF SWAP2 DUP2 ADD PUSH2 0x9AE PUSH2 0x100 DUP6 ADD PUSH1 0xE0 DUP7 ADD PUSH2 0x5B1E JUMP JUMPDEST PUSH2 0xFFFF AND DUP2 MSTORE PUSH1 0x20 ADD PUSH2 0x9C7 PUSH1 0xE0 DUP6 ADD PUSH1 0xC0 DUP7 ADD PUSH2 0x5B39 JUMP JUMPDEST PUSH1 0x1 DUP2 GT ISZERO PUSH2 0x9D8 JUMPI PUSH2 0x9D8 PUSH2 0x567B JUMP JUMPDEST SWAP1 MSTORE PUSH2 0x3E0B JUMP JUMPDEST POP JUMP JUMPDEST PUSH2 0x9EA PUSH2 0x39CA JUMP JUMPDEST PUSH1 0x1 PUSH1 0x1 PUSH1 0xA0 SHL SUB DUP6 AND PUSH2 0xA24 JUMPI PUSH1 0x40 MLOAD PUSH3 0x461BCD PUSH1 0xE5 SHL DUP2 MSTORE PUSH1 0x20 PUSH1 0x4 DUP3 ADD MSTORE PUSH1 0x1 PUSH1 0x24 DUP3 ADD MSTORE PUSH1 0x7 PUSH1 0xFB SHL PUSH1 0x44 DUP3 ADD MSTORE PUSH1 0x64 ADD PUSH2 0x3FB JUMP JUMPDEST CALLVALUE PUSH1 0x2 SLOAD GT ISZERO PUSH2 0xA46 JUMPI PUSH1 0x40 MLOAD PUSH3 0x461BCD PUSH1 0xE5 SHL DUP2 MSTORE PUSH1 0x4 ADD PUSH2 0x3FB SWAP1 PUSH2 0x5ACE JUMP JUMPDEST PUSH2 0xA4F DUP6 PUSH2 0x3909 JUMP JUMPDEST PUSH2 0xA6B JUMPI PUSH1 0x40 MLOAD PUSH3 0x461BCD PUSH1 0xE5 SHL DUP2 MSTORE PUSH1 0x4 ADD PUSH2 0x3FB SWAP1 PUSH2 0x5B54 JUMP JUMPDEST PUSH1 0x0 DUP7 GT PUSH2 0xAA0 JUMPI PUSH1 0x40 MLOAD PUSH3 0x461BCD PUSH1 0xE5 SHL DUP2 MSTORE PUSH1 0x20 PUSH1 0x4 DUP3 ADD MSTORE PUSH1 0x2 PUSH1 0x24 DUP3 ADD MSTORE PUSH2 0x313 PUSH1 0xF4 SHL PUSH1 0x44 DUP3 ADD MSTORE PUSH1 0x64 ADD PUSH2 0x3FB JUMP JUMPDEST PUSH1 0x0 PUSH2 0xAE7 DUP8 DUP8 DUP8 DUP8 DUP1 DUP1 PUSH1 0x1F ADD PUSH1 0x20 DUP1 SWAP2 DIV MUL PUSH1 0x20 ADD PUSH1 0x40 MLOAD SWAP1 DUP2 ADD PUSH1 0x40 MSTORE DUP1 SWAP4 SWAP3 SWAP2 SWAP1 DUP2 DUP2 MSTORE PUSH1 0x20 ADD DUP4 DUP4 DUP1 DUP3 DUP5 CALLDATACOPY PUSH1 0x0 SWAP3 ADD SWAP2 SWAP1 SWAP2 MSTORE POP DUP10 SWAP3 POP DUP9 SWAP2 POP PUSH2 0x3F16 SWAP1 POP JUMP JUMPDEST SWAP1 POP PUSH1 0x0 DUP4 PUSH1 0x1 DUP2 GT ISZERO PUSH2 0xAFD JUMPI PUSH2 0xAFD PUSH2 0x567B JUMP JUMPDEST EQ ISZERO PUSH2 0xC8C JUMPI DUP2 PUSH2 0xFFFF AND PUSH1 0x0 LT DUP1 ISZERO PUSH2 0xB1C JUMPI POP PUSH1 0x1C DUP3 PUSH2 0xFFFF AND GT ISZERO JUMPDEST PUSH2 0xB7A JUMPI PUSH1 0x40 MLOAD PUSH3 0x461BCD PUSH1 0xE5 SHL DUP2 MSTORE PUSH1 0x20 PUSH1 0x4 DUP3 ADD MSTORE PUSH1 0x29 PUSH1 0x24 DUP3 ADD MSTORE PUSH32 0x4D6F6E74686C79206475652064617465206D757374206265206265747765656E PUSH1 0x44 DUP3 ADD MSTORE PUSH9 0x406240C2DCC840647 PUSH1 0xBB SHL PUSH1 0x64 DUP3 ADD MSTORE PUSH1 0x84 ADD PUSH2 0x3FB JUMP JUMPDEST PUSH2 0xFFFF DUP3 AND PUSH1 0x0 SWAP1 DUP2 MSTORE PUSH1 0x7 PUSH1 0x20 SWAP1 DUP2 MSTORE PUSH1 0x40 DUP1 DUP4 KECCAK256 DUP1 SLOAD PUSH1 0x1 DUP2 DUP2 ADD DUP4 SSTORE SWAP2 DUP6 MSTORE SWAP4 DUP4 SWAP1 KECCAK256 DUP6 MLOAD PUSH1 0x5 SWAP1 SWAP6 MUL ADD SWAP4 DUP5 SSTORE SWAP2 DUP5 ADD MLOAD DUP4 DUP4 ADD SSTORE DUP4 ADD MLOAD PUSH1 0x2 DUP4 ADD DUP1 SLOAD PUSH1 0x60 DUP7 ADD MLOAD PUSH1 0x80 DUP8 ADD MLOAD ISZERO ISZERO PUSH1 0x1 PUSH1 0xA8 SHL MUL PUSH1 0xFF PUSH1 0xA8 SHL NOT SWAP2 ISZERO ISZERO PUSH1 0x1 PUSH1 0xA0 SHL SWAP1 DUP2 MUL PUSH1 0x1 PUSH1 0x1 PUSH1 0xA8 SHL SUB NOT SWAP5 DUP6 AND PUSH1 0x1 PUSH1 0x1 PUSH1 0xA0 SHL SUB SWAP8 DUP9 AND OR OR SWAP3 SWAP1 SWAP3 AND OR SWAP1 SWAP3 SSTORE PUSH1 0xA0 DUP7 ADD MLOAD PUSH1 0x3 DUP7 ADD DUP1 SLOAD SWAP2 SWAP1 SWAP5 AND PUSH1 0x1 PUSH1 0x1 PUSH1 0xA0 SHL SUB NOT DUP3 AND DUP2 OR DUP6 SSTORE PUSH1 0xC0 DUP9 ADD MLOAD DUP9 SWAP8 SWAP7 SWAP1 SWAP6 SWAP5 SWAP3 SWAP1 SWAP4 AND OR SWAP2 DUP5 SWAP1 DUP2 GT ISZERO PUSH2 0xC40 JUMPI PUSH2 0xC40 PUSH2 0x567B JUMP JUMPDEST MUL OR SWAP1 SSTORE POP PUSH1 0xE0 DUP3 ADD MLOAD PUSH1 0x3 DUP3 ADD DUP1 SLOAD PUSH2 0xFFFF SWAP1 SWAP3 AND PUSH1 0x1 PUSH1 0xA8 SHL MUL PUSH2 0xFFFF PUSH1 0xA8 SHL NOT SWAP1 SWAP3 AND SWAP2 SWAP1 SWAP2 OR SWAP1 SSTORE PUSH2 0x100 DUP3 ADD MLOAD DUP1 MLOAD PUSH2 0xC88 SWAP2 PUSH1 0x4 DUP5 ADD SWAP2 PUSH1 0x20 SWAP1 SWAP2 ADD SWAP1 PUSH2 0x535B JUMP JUMPDEST POP POP POP JUMPDEST PUSH1 0x1 DUP4 PUSH1 0x1 DUP2 GT ISZERO PUSH2 0xCA0 JUMPI PUSH2 0xCA0 PUSH2 0x567B JUMP JUMPDEST EQ ISZERO PUSH2 0xE30 JUMPI DUP2 PUSH2 0xFFFF AND PUSH1 0x0 LT DUP1 ISZERO PUSH2 0xCC0 JUMPI POP PUSH2 0x16D DUP3 PUSH2 0xFFFF AND GT ISZERO JUMPDEST PUSH2 0xD1E JUMPI PUSH1 0x40 MLOAD PUSH3 0x461BCD PUSH1 0xE5 SHL DUP2 MSTORE PUSH1 0x20 PUSH1 0x4 DUP3 ADD MSTORE PUSH1 0x29 PUSH1 0x24 DUP3 ADD MSTORE PUSH32 0x596561726C79206475652064617465206D757374206265206265747765656E20 PUSH1 0x44 DUP3 ADD MSTORE PUSH9 0x3120616E6420333635 PUSH1 0xB8 SHL PUSH1 0x64 DUP3 ADD MSTORE PUSH1 0x84 ADD PUSH2 0x3FB JUMP JUMPDEST PUSH2 0xFFFF DUP3 AND PUSH1 0x0 SWAP1 DUP2 MSTORE PUSH1 0x8 PUSH1 0x20 SWAP1 DUP2 MSTORE PUSH1 0x40 DUP1 DUP4 KECCAK256 DUP1 SLOAD PUSH1 0x1 DUP2 DUP2 ADD DUP4 SSTORE SWAP2 DUP6 MSTORE SWAP4 DUP4 SWAP1 KECCAK256 DUP6 MLOAD PUSH1 0x5 SWAP1 SWAP6 MUL ADD SWAP4 DUP5 SSTORE SWAP2 DUP5 ADD MLOAD DUP4 DUP4 ADD SSTORE DUP4 ADD MLOAD PUSH1 0x2 DUP4 ADD DUP1 SLOAD PUSH1 0x60 DUP7 ADD MLOAD PUSH1 0x80 DUP8 ADD MLOAD ISZERO ISZERO PUSH1 0x1 PUSH1 0xA8 SHL MUL PUSH1 0xFF PUSH1 0xA8 SHL NOT SWAP2 ISZERO ISZERO PUSH1 0x1 PUSH1 0xA0 SHL SWAP1 DUP2 MUL PUSH1 0x1 PUSH1 0x1 PUSH1 0xA8 SHL SUB NOT SWAP5 DUP6 AND PUSH1 0x1 PUSH1 0x1 PUSH1 0xA0 SHL SUB SWAP8 DUP9 AND OR OR SWAP3 SWAP1 SWAP3 AND OR SWAP1 SWAP3 SSTORE PUSH1 0xA0 DUP7 ADD MLOAD PUSH1 0x3 DUP7 ADD DUP1 SLOAD SWAP2 SWAP1 SWAP5 AND PUSH1 0x1 PUSH1 0x1 PUSH1 0xA0 SHL SUB NOT DUP3 AND DUP2 OR DUP6 SSTORE PUSH1 0xC0 DUP9 ADD MLOAD DUP9 SWAP8 SWAP7 SWAP1 SWAP6 SWAP5 SWAP3 SWAP1 SWAP4 AND OR SWAP2 DUP5 SWAP1 DUP2 GT ISZERO PUSH2 0xDE4 JUMPI PUSH2 0xDE4 PUSH2 0x567B JUMP JUMPDEST MUL OR SWAP1 SSTORE POP PUSH1 0xE0 DUP3 ADD MLOAD PUSH1 0x3 DUP3 ADD DUP1 SLOAD PUSH2 0xFFFF SWAP1 SWAP3 AND PUSH1 0x1 PUSH1 0xA8 SHL MUL PUSH2 0xFFFF PUSH1 0xA8 SHL NOT SWAP1 SWAP3 AND SWAP2 SWAP1 SWAP2 OR SWAP1 SSTORE PUSH2 0x100 DUP3 ADD MLOAD DUP1 MLOAD PUSH2 0xE2C SWAP2 PUSH1 0x4 DUP5 ADD SWAP2 PUSH1 0x20 SWAP1 SWAP2 ADD SWAP1 PUSH2 0x535B JUMP JUMPDEST POP POP POP JUMPDEST PUSH2 0xE6C PUSH1 0x40 MLOAD DUP1 PUSH1 0x60 ADD PUSH1 0x40 MSTORE DUP1 DUP4 PUSH1 0x0 ADD MLOAD DUP2 MSTORE PUSH1 0x20 ADD DUP4 PUSH1 0xE0 ADD MLOAD PUSH2 0xFFFF AND DUP2 MSTORE PUSH1 0x20 ADD DUP4 PUSH1 0xC0 ADD MLOAD PUSH1 0x1 DUP2 GT ISZERO PUSH2 0x9D8 JUMPI PUSH2 0x9D8 PUSH2 0x567B JUMP JUMPDEST POP POP POP POP POP POP POP JUMP JUMPDEST PUSH2 0xE7D PUSH2 0x38C9 JUMP JUMPDEST PUSH1 0x1 SSTORE JUMP JUMPDEST CALLER PUSH1 0x0 SWAP1 DUP2 MSTORE PUSH1 0x3 PUSH1 0x20 SWAP1 DUP2 MSTORE PUSH1 0x40 DUP1 DUP4 KECCAK256 PUSH1 0x2 ADD DUP1 SLOAD DUP3 MLOAD DUP2 DUP6 MUL DUP2 ADD DUP6 ADD SWAP1 SWAP4 MSTORE DUP1 DUP4 MSTORE PUSH1 0x60 SWAP5 SWAP4 DUP5 SWAP1 DUP5 ADD JUMPDEST DUP3 DUP3 LT ISZERO PUSH2 0xF31 JUMPI PUSH1 0x0 DUP5 DUP2 MSTORE PUSH1 0x20 SWAP1 DUP2 SWAP1 KECCAK256 PUSH1 0x40 DUP1 MLOAD PUSH1 0x60 DUP2 ADD DUP3 MSTORE PUSH1 0x2 DUP7 MUL SWAP1 SWAP3 ADD DUP1 SLOAD DUP4 MSTORE PUSH1 0x1 DUP1 DUP3 ADD SLOAD PUSH2 0xFFFF DUP2 AND SWAP6 DUP6 ADD SWAP6 SWAP1 SWAP6 MSTORE SWAP3 SWAP4 SWAP1 SWAP3 SWAP2 DUP5 ADD SWAP2 PUSH3 0x10000 SWAP1 SWAP2 DIV PUSH1 0xFF AND SWAP1 DUP2 GT ISZERO PUSH2 0xF0D JUMPI PUSH2 0xF0D PUSH2 0x567B JUMP JUMPDEST PUSH1 0x1 DUP2 GT ISZERO PUSH2 0xF1E JUMPI PUSH2 0xF1E PUSH2 0x567B JUMP JUMPDEST DUP2 MSTORE POP POP DUP2 MSTORE PUSH1 0x20 ADD SWAP1 PUSH1 0x1 ADD SWAP1 PUSH2 0xEB1 JUMP JUMPDEST POP POP POP POP SWAP1 POP PUSH1 0x0 DUP2 MLOAD PUSH8 0xFFFFFFFFFFFFFFFF DUP2 GT ISZERO PUSH2 0xF53 JUMPI PUSH2 0xF53 PUSH2 0x58D7 JUMP JUMPDEST PUSH1 0x40 MLOAD SWAP1 DUP1 DUP3 MSTORE DUP1 PUSH1 0x20 MUL PUSH1 0x20 ADD DUP3 ADD PUSH1 0x40 MSTORE DUP1 ISZERO PUSH2 0xF8C JUMPI DUP2 PUSH1 0x20 ADD JUMPDEST PUSH2 0xF79 PUSH2 0x53DF JUMP JUMPDEST DUP2 MSTORE PUSH1 0x20 ADD SWAP1 PUSH1 0x1 SWAP1 SUB SWAP1 DUP2 PUSH2 0xF71 JUMPI SWAP1 POP JUMPDEST POP SWAP1 POP PUSH1 0x0 JUMPDEST DUP3 MLOAD DUP2 LT ISZERO PUSH2 0xFED JUMPI PUSH2 0xFBD DUP4 DUP3 DUP2 MLOAD DUP2 LT PUSH2 0xFB0 JUMPI PUSH2 0xFB0 PUSH2 0x5A42 JUMP JUMPDEST PUSH1 0x20 MUL PUSH1 0x20 ADD ADD MLOAD PUSH2 0x3FCA JUMP JUMPDEST DUP3 DUP3 DUP2 MLOAD DUP2 LT PUSH2 0xFCF JUMPI PUSH2 0xFCF PUSH2 0x5A42 JUMP JUMPDEST PUSH1 0x20 MUL PUSH1 0x20 ADD ADD DUP2 SWAP1 MSTORE POP DUP1 DUP1 PUSH2 0xFE5 SWAP1 PUSH2 0x5A6E JUMP JUMPDEST SWAP2 POP POP PUSH2 0xF92 JUMP JUMPDEST POP SWAP3 SWAP2 POP POP JUMP JUMPDEST PUSH1 0xE SLOAD PUSH1 0xFF AND PUSH2 0x12E5 JUMPI PUSH2 0x1006 PUSH2 0x39CA JUMP JUMPDEST PUSH2 0x100F DUP4 PUSH2 0x4422 JUMP JUMPDEST PUSH1 0x1 PUSH1 0x1 PUSH1 0xA0 SHL SUB DUP2 AND PUSH2 0x105B JUMPI CALLVALUE PUSH1 0x64 PUSH1 0x1 SLOAD DUP5 PUSH2 0x102E SWAP2 SWAP1 PUSH2 0x5B6F JUMP JUMPDEST PUSH2 0x1038 SWAP2 SWAP1 PUSH2 0x5BA4 JUMP JUMPDEST GT ISZERO PUSH2 0x1056 JUMPI PUSH1 0x40 MLOAD PUSH3 0x461BCD PUSH1 0xE5 SHL DUP2 MSTORE PUSH1 0x4 ADD PUSH2 0x3FB SWAP1 PUSH2 0x5ACE JUMP JUMPDEST PUSH2 0x116E JUMP JUMPDEST CALLVALUE PUSH1 0x2 SLOAD GT ISZERO PUSH2 0x107D JUMPI PUSH1 0x40 MLOAD PUSH3 0x461BCD PUSH1 0xE5 SHL DUP2 MSTORE PUSH1 0x4 ADD PUSH2 0x3FB SWAP1 PUSH2 0x5ACE JUMP JUMPDEST PUSH2 0x1086 DUP2 PUSH2 0x3909 JUMP JUMPDEST PUSH2 0x10A2 JUMPI PUSH1 0x40 MLOAD PUSH3 0x461BCD PUSH1 0xE5 SHL DUP2 MSTORE PUSH1 0x4 ADD PUSH2 0x3FB SWAP1 PUSH2 0x5B54 JUMP JUMPDEST CALLER PUSH1 0x0 SWAP1 DUP2 MSTORE PUSH1 0xB PUSH1 0x20 SWAP1 DUP2 MSTORE PUSH1 0x40 DUP1 DUP4 KECCAK256 PUSH1 0x1 PUSH1 0x1 PUSH1 0xA0 SHL SUB DUP6 AND DUP5 MSTORE SWAP1 SWAP2 MSTORE SWAP1 KECCAK256 SLOAD PUSH2 0x10D1 SWAP1 DUP4 SWAP1 PUSH2 0x5AA0 JUMP JUMPDEST PUSH1 0x40 MLOAD PUSH4 0x6EB1769F PUSH1 0xE1 SHL DUP2 MSTORE CALLER PUSH1 0x4 DUP3 ADD MSTORE ADDRESS PUSH1 0x24 DUP3 ADD MSTORE PUSH1 0x1 PUSH1 0x1 PUSH1 0xA0 SHL SUB DUP4 AND SWAP1 PUSH4 0xDD62ED3E SWAP1 PUSH1 0x44 ADD PUSH1 0x20 PUSH1 0x40 MLOAD DUP1 DUP4 SUB DUP2 PUSH1 0x0 DUP8 DUP1 EXTCODESIZE ISZERO DUP1 ISZERO PUSH2 0x1118 JUMPI PUSH1 0x0 DUP1 REVERT JUMPDEST POP GAS CALL ISZERO DUP1 ISZERO PUSH2 0x112C JUMPI RETURNDATASIZE PUSH1 0x0 DUP1 RETURNDATACOPY RETURNDATASIZE PUSH1 0x0 REVERT JUMPDEST POP POP POP POP PUSH1 0x40 MLOAD RETURNDATASIZE PUSH1 0x1F NOT PUSH1 0x1F DUP3 ADD AND DUP3 ADD DUP1 PUSH1 0x40 MSTORE POP DUP2 ADD SWAP1 PUSH2 0x1150 SWAP2 SWAP1 PUSH2 0x5AE9 JUMP JUMPDEST LT ISZERO PUSH2 0x116E JUMPI PUSH1 0x40 MLOAD PUSH3 0x461BCD PUSH1 0xE5 SHL DUP2 MSTORE PUSH1 0x4 ADD PUSH2 0x3FB SWAP1 PUSH2 0x5B02 JUMP JUMPDEST PUSH1 0x0 PUSH2 0x1179 DUP5 PUSH2 0x39FB JUMP JUMPDEST SWAP1 POP PUSH1 0x0 PUSH2 0x118A CALLER DUP8 DUP6 DUP6 DUP9 PUSH2 0x44A0 JUMP JUMPDEST PUSH5 0xFFFFFFFFFF DUP1 DUP5 AND PUSH1 0x0 SWAP1 DUP2 MSTORE PUSH1 0x5 PUSH1 0x20 DUP2 DUP2 MSTORE PUSH1 0x40 DUP1 DUP5 KECCAK256 DUP1 SLOAD PUSH1 0x1 DUP2 DUP2 ADD DUP4 SSTORE SWAP2 DUP7 MSTORE SWAP5 DUP4 SWAP1 KECCAK256 DUP8 MLOAD SWAP6 SWAP1 SWAP5 MUL SWAP1 SWAP4 ADD SWAP4 DUP5 SSTORE SWAP1 DUP6 ADD MLOAD SWAP2 DUP4 ADD DUP1 SLOAD PUSH1 0x1 PUSH1 0x1 PUSH1 0xA0 SHL SUB SWAP4 DUP5 AND PUSH1 0x1 PUSH1 0x1 PUSH1 0xA0 SHL SUB NOT SWAP2 DUP3 AND OR SWAP1 SWAP2 SSTORE SWAP1 DUP6 ADD MLOAD PUSH1 0x2 DUP5 ADD DUP1 SLOAD SWAP2 DUP5 AND SWAP2 SWAP1 SWAP3 AND OR SWAP1 SSTORE PUSH1 0x60 DUP5 ADD MLOAD PUSH1 0x3 DUP1 DUP5 ADD DUP1 SLOAD PUSH1 0x80 DUP9 ADD MLOAD SWAP1 SWAP7 AND PUSH1 0x1 PUSH1 0xA0 SHL MUL PUSH1 0x1 PUSH1 0x1 PUSH1 0xC8 SHL SUB NOT SWAP1 SWAP7 AND SWAP3 SWAP1 SWAP4 AND SWAP2 SWAP1 SWAP2 OR SWAP4 SWAP1 SWAP4 OR DUP1 DUP3 SSTORE PUSH1 0xA0 DUP6 ADD MLOAD SWAP5 SWAP6 POP DUP6 SWAP5 SWAP3 SWAP4 PUSH1 0xFF PUSH1 0xC8 SHL NOT SWAP1 SWAP2 AND SWAP1 PUSH1 0x1 PUSH1 0xC8 SHL SWAP1 DUP5 SWAP1 DUP2 GT ISZERO PUSH2 0x125A JUMPI PUSH2 0x125A PUSH2 0x567B JUMP JUMPDEST MUL OR SWAP1 SSTORE POP PUSH1 0xC0 SWAP2 SWAP1 SWAP2 ADD MLOAD PUSH1 0x4 SWAP1 SWAP2 ADD SSTORE DUP1 MLOAD PUSH1 0x6 DUP1 SLOAD PUSH1 0x1 DUP2 ADD DUP3 SSTORE PUSH1 0x0 SWAP2 SWAP1 SWAP2 MSTORE PUSH32 0xF652222313E28459528D920B65115C16C04F3EFC82AAEDC97BE59F3F377C0D3F ADD SSTORE PUSH2 0x12AA DUP3 PUSH2 0x456E JUMP JUMPDEST CALLER PUSH1 0x0 SWAP1 DUP2 MSTORE PUSH1 0xB PUSH1 0x20 SWAP1 DUP2 MSTORE PUSH1 0x40 DUP1 DUP4 KECCAK256 PUSH1 0x1 PUSH1 0x1 PUSH1 0xA0 SHL SUB DUP8 AND DUP5 MSTORE SWAP1 SWAP2 MSTORE DUP2 KECCAK256 DUP1 SLOAD DUP7 SWAP3 SWAP1 PUSH2 0x12DD SWAP1 DUP5 SWAP1 PUSH2 0x5AA0 JUMP JUMPDEST SWAP1 SWAP2 SSTORE POP POP POP POP JUMPDEST POP POP POP POP JUMP JUMPDEST PUSH2 0x12F3 PUSH2 0x38C9 JUMP JUMPDEST PUSH1 0x2 SSTORE JUMP JUMPDEST PUSH2 0x1300 PUSH2 0x38C9 JUMP JUMPDEST CALLER PUSH1 0x1 PUSH1 0x1 PUSH1 0xA0 SHL SUB DUP3 AND EQ DUP1 ISZERO PUSH2 0x1320 JUMPI POP PUSH1 0x1 PUSH1 0x1 PUSH1 0xA0 SHL SUB DUP2 AND ISZERO ISZERO JUMPDEST PUSH2 0x1329 JUMPI PUSH1 0x0 DUP1 REVERT JUMPDEST PUSH1 0x0 DUP1 SLOAD PUSH1 0x1 PUSH1 0x1 PUSH1 0xA0 SHL SUB NOT AND PUSH1 0x1 PUSH1 0x1 PUSH1 0xA0 SHL SUB SWAP3 SWAP1 SWAP3 AND SWAP2 SWAP1 SWAP2 OR SWAP1 SSTORE JUMP JUMPDEST PUSH1 0x0 DUP1 DUP1 PUSH2 0x135C PUSH3 0x15180 DUP6 PUSH2 0x5BA4 JUMP JUMPDEST SWAP1 POP DUP1 PUSH1 0x0 PUSH2 0x136E DUP3 PUSH3 0x10BD9 PUSH2 0x5BB8 JUMP JUMPDEST PUSH2 0x137B SWAP1 PUSH3 0x253D8C PUSH2 0x5BB8 JUMP JUMPDEST SWAP1 POP PUSH1 0x0 PUSH3 0x23AB1 PUSH2 0x138E DUP4 PUSH1 0x4 PUSH2 0x5BF9 JUMP JUMPDEST PUSH2 0x1398 SWAP2 SWAP1 PUSH2 0x5C7E JUMP JUMPDEST SWAP1 POP PUSH1 0x4 PUSH2 0x13A9 DUP3 PUSH3 0x23AB1 PUSH2 0x5BF9 JUMP JUMPDEST PUSH2 0x13B4 SWAP1 PUSH1 0x3 PUSH2 0x5BB8 JUMP JUMPDEST PUSH2 0x13BE SWAP2 SWAP1 PUSH2 0x5C7E JUMP JUMPDEST PUSH2 0x13C8 SWAP1 DUP4 PUSH2 0x5CAC JUMP JUMPDEST SWAP2 POP PUSH1 0x0 PUSH3 0x164B09 PUSH2 0x13DB DUP5 PUSH1 0x1 PUSH2 0x5BB8 JUMP JUMPDEST PUSH2 0x13E7 SWAP1 PUSH2 0xFA0 PUSH2 0x5BF9 JUMP JUMPDEST PUSH2 0x13F1 SWAP2 SWAP1 PUSH2 0x5C7E JUMP JUMPDEST SWAP1 POP PUSH1 0x4 PUSH2 0x1401 DUP3 PUSH2 0x5B5 PUSH2 0x5BF9 JUMP JUMPDEST PUSH2 0x140B SWAP2 SWAP1 PUSH2 0x5C7E JUMP JUMPDEST PUSH2 0x1415 SWAP1 DUP5 PUSH2 0x5CAC JUMP JUMPDEST PUSH2 0x1420 SWAP1 PUSH1 0x1F PUSH2 0x5BB8 JUMP JUMPDEST SWAP3 POP PUSH1 0x0 PUSH2 0x98F PUSH2 0x1432 DUP6 PUSH1 0x50 PUSH2 0x5BF9 JUMP JUMPDEST PUSH2 0x143C SWAP2 SWAP1 PUSH2 0x5C7E JUMP JUMPDEST SWAP1 POP PUSH1 0x0 PUSH1 0x50 PUSH2 0x144E DUP4 PUSH2 0x98F PUSH2 0x5BF9 JUMP JUMPDEST PUSH2 0x1458 SWAP2 SWAP1 PUSH2 0x5C7E JUMP JUMPDEST PUSH2 0x1462 SWAP1 DUP7 PUSH2 0x5CAC JUMP JUMPDEST SWAP1 POP PUSH2 0x146F PUSH1 0xB DUP4 PUSH2 0x5C7E JUMP JUMPDEST SWAP5 POP PUSH2 0x147C DUP6 PUSH1 0xC PUSH2 0x5BF9 JUMP JUMPDEST PUSH2 0x1487 DUP4 PUSH1 0x2 PUSH2 0x5BB8 JUMP JUMPDEST PUSH2 0x1491 SWAP2 SWAP1 PUSH2 0x5CAC JUMP JUMPDEST SWAP2 POP DUP5 DUP4 PUSH2 0x14A0 PUSH1 0x31 DUP8 PUSH2 0x5CAC JUMP JUMPDEST PUSH2 0x14AB SWAP1 PUSH1 0x64 PUSH2 0x5BF9 JUMP JUMPDEST PUSH2 0x14B5 SWAP2 SWAP1 PUSH2 0x5BB8 JUMP JUMPDEST PUSH2 0x14BF SWAP2 SWAP1 PUSH2 0x5BB8 JUMP JUMPDEST SWAP1 SWAP8 POP SWAP2 POP DUP7 DUP3 DUP3 DUP3 PUSH1 0x0 PUSH1 0x1 JUMPDEST DUP4 DUP2 GT PUSH2 0x14FC JUMPI PUSH2 0x14DE DUP6 DUP6 PUSH2 0x4724 JUMP JUMPDEST PUSH2 0x14E8 SWAP1 DUP4 PUSH2 0x5AA0 JUMP JUMPDEST SWAP2 POP DUP1 PUSH2 0x14F4 DUP2 PUSH2 0x5A6E JUMP JUMPDEST SWAP2 POP POP PUSH2 0x14CD JUMP JUMPDEST POP DUP1 SWAP13 POP POP POP POP POP POP POP POP POP POP POP POP SWAP2 POP SWAP2 JUMP JUMPDEST PUSH2 0x1518 PUSH2 0x38C9 JUMP JUMPDEST PUSH1 0x0 PUSH2 0x1523 TIMESTAMP PUSH2 0x39FB JUMP JUMPDEST PUSH1 0xE SLOAD SWAP1 SWAP2 POP PUSH5 0xFFFFFFFFFF PUSH2 0x100 SWAP1 SWAP2 DIV DUP2 AND SWAP1 DUP3 AND GT PUSH2 0x156C JUMPI PUSH1 0x40 MLOAD PUSH3 0x461BCD PUSH1 0xE5 SHL DUP2 MSTORE PUSH1 0x20 PUSH1 0x4 DUP3 ADD MSTORE PUSH1 0x2 PUSH1 0x24 DUP3 ADD MSTORE PUSH2 0xC4D PUSH1 0xF2 SHL PUSH1 0x44 DUP3 ADD MSTORE PUSH1 0x64 ADD PUSH2 0x3FB JUMP JUMPDEST PUSH1 0xE SLOAD PUSH2 0x100 SWAP1 DIV PUSH5 0xFFFFFFFFFF AND JUMPDEST DUP2 PUSH5 0xFFFFFFFFFF AND DUP2 PUSH5 0xFFFFFFFFFF AND GT PUSH2 0x16BE JUMPI PUSH5 0xFFFFFFFFFF DUP2 AND PUSH1 0x0 SWAP1 DUP2 MSTORE PUSH1 0x5 PUSH1 0x20 MSTORE PUSH1 0x40 SWAP1 KECCAK256 SLOAD ISZERO PUSH2 0x16AC JUMPI PUSH5 0xFFFFFFFFFF DUP2 AND PUSH1 0x0 SWAP1 DUP2 MSTORE PUSH1 0x5 PUSH1 0x20 SWAP1 DUP2 MSTORE PUSH1 0x40 DUP1 DUP4 KECCAK256 DUP1 SLOAD DUP3 MLOAD DUP2 DUP6 MUL DUP2 ADD DUP6 ADD SWAP1 SWAP4 MSTORE DUP1 DUP4 MSTORE PUSH2 0x16AC SWAP5 SWAP3 SWAP4 SWAP2 SWAP3 SWAP1 SWAP2 DUP5 ADD JUMPDEST DUP3 DUP3 LT ISZERO PUSH2 0x16A3 JUMPI PUSH1 0x0 DUP5 DUP2 MSTORE PUSH1 0x20 SWAP1 DUP2 SWAP1 KECCAK256 PUSH1 0x40 DUP1 MLOAD PUSH1 0xE0 DUP2 ADD DUP3 MSTORE PUSH1 0x5 DUP7 MUL SWAP1 SWAP3 ADD DUP1 SLOAD DUP4 MSTORE PUSH1 0x1 DUP2 ADD SLOAD PUSH1 0x1 PUSH1 0x1 PUSH1 0xA0 SHL SUB SWAP1 DUP2 AND SWAP5 DUP5 ADD SWAP5 SWAP1 SWAP5 MSTORE PUSH1 0x2 DUP2 ADD SLOAD DUP5 AND SWAP2 DUP4 ADD SWAP2 SWAP1 SWAP2 MSTORE PUSH1 0x3 DUP1 DUP3 ADD SLOAD SWAP4 DUP5 AND PUSH1 0x60 DUP5 ADD MSTORE PUSH1 0x1 PUSH1 0xA0 SHL DUP5 DIV PUSH5 0xFFFFFFFFFF AND PUSH1 0x80 DUP5 ADD MSTORE SWAP2 SWAP3 SWAP1 SWAP2 PUSH1 0xA0 DUP5 ADD SWAP2 PUSH1 0x1 PUSH1 0xC8 SHL SWAP1 DIV PUSH1 0xFF AND SWAP1 DUP2 GT ISZERO PUSH2 0x1675 JUMPI PUSH2 0x1675 PUSH2 0x567B JUMP JUMPDEST PUSH1 0x3 DUP2 GT ISZERO PUSH2 0x1686 JUMPI PUSH2 0x1686 PUSH2 0x567B JUMP JUMPDEST DUP2 MSTORE PUSH1 0x20 ADD PUSH1 0x4 DUP3 ADD SLOAD DUP2 MSTORE POP POP DUP2 MSTORE PUSH1 0x20 ADD SWAP1 PUSH1 0x1 ADD SWAP1 PUSH2 0x15E4 JUMP JUMPDEST POP POP POP POP PUSH2 0x47AA JUMP JUMPDEST DUP1 PUSH2 0x16B6 DUP2 PUSH2 0x5CEB JUMP JUMPDEST SWAP2 POP POP PUSH2 0x157C JUMP JUMPDEST POP PUSH1 0xE DUP1 SLOAD PUSH5 0xFFFFFFFFFF SWAP1 SWAP3 AND PUSH2 0x100 MUL PUSH6 0xFFFFFFFFFF00 NOT SWAP1 SWAP3 AND SWAP2 SWAP1 SWAP2 OR SWAP1 SSTORE JUMP JUMPDEST PUSH2 0x16EB PUSH2 0x38C9 JUMP JUMPDEST PUSH1 0x1 PUSH1 0x1 PUSH1 0xA0 SHL SUB DUP2 AND PUSH2 0x16FE JUMPI PUSH1 0x0 DUP1 REVERT JUMPDEST PUSH2 0x1707 DUP2 PUSH2 0x3909 JUMP JUMPDEST ISZERO PUSH2 0x1738 JUMPI PUSH1 0x40 MLOAD PUSH3 0x461BCD PUSH1 0xE5 SHL DUP2 MSTORE PUSH1 0x20 PUSH1 0x4 DUP3 ADD MSTORE PUSH1 0x1 PUSH1 0x24 DUP3 ADD MSTORE PUSH1 0x31 PUSH1 0xF8 SHL PUSH1 0x44 DUP3 ADD MSTORE PUSH1 0x64 ADD PUSH2 0x3FB JUMP JUMPDEST PUSH1 0xD DUP1 SLOAD PUSH1 0x1 DUP2 ADD DUP3 SSTORE PUSH1 0x0 SWAP2 SWAP1 SWAP2 MSTORE PUSH32 0xD7B6990105719101DABEB77144F2A3385C8033ACD3AF97E9423A695E81AD1EB5 ADD DUP1 SLOAD PUSH1 0x1 PUSH1 0x1 PUSH1 0xA0 SHL SUB NOT AND PUSH1 0x1 PUSH1 0x1 PUSH1 0xA0 SHL SUB SWAP3 SWAP1 SWAP3 AND SWAP2 SWAP1 SWAP2 OR SWAP1 SSTORE JUMP JUMPDEST CALLER PUSH1 0x0 SWAP1 DUP2 MSTORE PUSH1 0x3 PUSH1 0x20 SWAP1 DUP2 MSTORE PUSH1 0x40 DUP1 DUP4 KECCAK256 PUSH1 0x1 ADD DUP1 SLOAD DUP3 MLOAD DUP2 DUP6 MUL DUP2 ADD DUP6 ADD SWAP1 SWAP4 MSTORE DUP1 DUP4 MSTORE PUSH1 0x60 SWAP5 SWAP4 DUP4 ADD DUP3 DUP3 DUP1 ISZERO PUSH2 0x1811 JUMPI PUSH1 0x20 MUL DUP3 ADD SWAP2 SWAP1 PUSH1 0x0 MSTORE PUSH1 0x20 PUSH1 0x0 KECCAK256 SWAP1 PUSH1 0x0 SWAP1 JUMPDEST DUP3 DUP3 SWAP1 SLOAD SWAP1 PUSH2 0x100 EXP SWAP1 DIV PUSH5 0xFFFFFFFFFF AND PUSH5 0xFFFFFFFFFF AND DUP2 MSTORE PUSH1 0x20 ADD SWAP1 PUSH1 0x5 ADD SWAP1 PUSH1 0x20 DUP3 PUSH1 0x4 ADD DIV SWAP3 DUP4 ADD SWAP3 PUSH1 0x1 SUB DUP3 MUL SWAP2 POP DUP1 DUP5 GT PUSH2 0x17D2 JUMPI SWAP1 POP JUMPDEST POP POP POP POP POP SWAP1 POP PUSH1 0x0 DUP1 JUMPDEST DUP3 MLOAD DUP2 LT ISZERO PUSH2 0x1969 JUMPI PUSH1 0x0 PUSH1 0x5 PUSH1 0x0 DUP6 DUP5 DUP2 MLOAD DUP2 LT PUSH2 0x183D JUMPI PUSH2 0x183D PUSH2 0x5A42 JUMP JUMPDEST PUSH1 0x20 MUL PUSH1 0x20 ADD ADD MLOAD PUSH5 0xFFFFFFFFFF AND PUSH5 0xFFFFFFFFFF AND DUP2 MSTORE PUSH1 0x20 ADD SWAP1 DUP2 MSTORE PUSH1 0x20 ADD PUSH1 0x0 KECCAK256 DUP1 SLOAD DUP1 PUSH1 0x20 MUL PUSH1 0x20 ADD PUSH1 0x40 MLOAD SWAP1 DUP2 ADD PUSH1 0x40 MSTORE DUP1 SWAP3 SWAP2 SWAP1 DUP2 DUP2 MSTORE PUSH1 0x20 ADD PUSH1 0x0 SWAP1 JUMPDEST DUP3 DUP3 LT ISZERO PUSH2 0x1940 JUMPI PUSH1 0x0 DUP5 DUP2 MSTORE PUSH1 0x20 SWAP1 DUP2 SWAP1 KECCAK256 PUSH1 0x40 DUP1 MLOAD PUSH1 0xE0 DUP2 ADD DUP3 MSTORE PUSH1 0x5 DUP7 MUL SWAP1 SWAP3 ADD DUP1 SLOAD DUP4 MSTORE PUSH1 0x1 DUP2 ADD SLOAD PUSH1 0x1 PUSH1 0x1 PUSH1 0xA0 SHL SUB SWAP1 DUP2 AND SWAP5 DUP5 ADD SWAP5 SWAP1 SWAP5 MSTORE PUSH1 0x2 DUP2 ADD SLOAD DUP5 AND SWAP2 DUP4 ADD SWAP2 SWAP1 SWAP2 MSTORE PUSH1 0x3 DUP1 DUP3 ADD SLOAD SWAP4 DUP5 AND PUSH1 0x60 DUP5 ADD MSTORE PUSH1 0x1 PUSH1 0xA0 SHL DUP5 DIV PUSH5 0xFFFFFFFFFF AND PUSH1 0x80 DUP5 ADD MSTORE SWAP2 SWAP3 SWAP1 SWAP2 PUSH1 0xA0 DUP5 ADD SWAP2 PUSH1 0x1 PUSH1 0xC8 SHL SWAP1 DIV PUSH1 0xFF AND SWAP1 DUP2 GT ISZERO PUSH2 0x1912 JUMPI PUSH2 0x1912 PUSH2 0x567B JUMP JUMPDEST PUSH1 0x3 DUP2 GT ISZERO PUSH2 0x1923 JUMPI PUSH2 0x1923 PUSH2 0x567B JUMP JUMPDEST DUP2 MSTORE PUSH1 0x20 ADD PUSH1 0x4 DUP3 ADD SLOAD DUP2 MSTORE POP POP DUP2 MSTORE PUSH1 0x20 ADD SWAP1 PUSH1 0x1 ADD SWAP1 PUSH2 0x1881 JUMP JUMPDEST POP POP POP POP SWAP1 POP DUP1 MLOAD DUP4 PUSH2 0x1953 SWAP2 SWAP1 PUSH2 0x5AA0 JUMP JUMPDEST SWAP3 POP POP DUP1 DUP1 PUSH2 0x1961 SWAP1 PUSH2 0x5A6E JUMP JUMPDEST SWAP2 POP POP PUSH2 0x181C JUMP JUMPDEST POP PUSH1 0x0 DUP2 PUSH8 0xFFFFFFFFFFFFFFFF DUP2 GT ISZERO PUSH2 0x1985 JUMPI PUSH2 0x1985 PUSH2 0x58D7 JUMP JUMPDEST PUSH1 0x40 MLOAD SWAP1 DUP1 DUP3 MSTORE DUP1 PUSH1 0x20 MUL PUSH1 0x20 ADD DUP3 ADD PUSH1 0x40 MSTORE DUP1 ISZERO PUSH2 0x19BE JUMPI DUP2 PUSH1 0x20 ADD JUMPDEST PUSH2 0x19AB PUSH2 0x531E JUMP JUMPDEST DUP2 MSTORE PUSH1 0x20 ADD SWAP1 PUSH1 0x1 SWAP1 SUB SWAP1 DUP2 PUSH2 0x19A3 JUMPI SWAP1 POP JUMPDEST POP SWAP1 POP PUSH1 0x0 DUP3 PUSH8 0xFFFFFFFFFFFFFFFF DUP2 GT ISZERO PUSH2 0x19DC JUMPI PUSH2 0x19DC PUSH2 0x58D7 JUMP JUMPDEST PUSH1 0x40 MLOAD SWAP1 DUP1 DUP3 MSTORE DUP1 PUSH1 0x20 MUL PUSH1 0x20 ADD DUP3 ADD PUSH1 0x40 MSTORE DUP1 ISZERO PUSH2 0x1A15 JUMPI DUP2 PUSH1 0x20 ADD JUMPDEST PUSH2 0x1A02 PUSH2 0x531E JUMP JUMPDEST DUP2 MSTORE PUSH1 0x20 ADD SWAP1 PUSH1 0x1 SWAP1 SUB SWAP1 DUP2 PUSH2 0x19FA JUMPI SWAP1 POP JUMPDEST POP SWAP1 POP PUSH1 0x0 DUP1 JUMPDEST DUP6 MLOAD DUP2 LT ISZERO PUSH2 0x1BF2 JUMPI PUSH1 0x5 PUSH1 0x0 DUP8 DUP4 DUP2 MLOAD DUP2 LT PUSH2 0x1A3B JUMPI PUSH2 0x1A3B PUSH2 0x5A42 JUMP JUMPDEST PUSH1 0x20 MUL PUSH1 0x20 ADD ADD MLOAD PUSH5 0xFFFFFFFFFF AND PUSH5 0xFFFFFFFFFF AND DUP2 MSTORE PUSH1 0x20 ADD SWAP1 DUP2 MSTORE PUSH1 0x20 ADD PUSH1 0x0 KECCAK256 DUP1 SLOAD DUP1 PUSH1 0x20 MUL PUSH1 0x20 ADD PUSH1 0x40 MLOAD SWAP1 DUP2 ADD PUSH1 0x40 MSTORE DUP1 SWAP3 SWAP2 SWAP1 DUP2 DUP2 MSTORE PUSH1 0x20 ADD PUSH1 0x0 SWAP1 JUMPDEST DUP3 DUP3 LT ISZERO PUSH2 0x1B3E JUMPI PUSH1 0x0 DUP5 DUP2 MSTORE PUSH1 0x20 SWAP1 DUP2 SWAP1 KECCAK256 PUSH1 0x40 DUP1 MLOAD PUSH1 0xE0 DUP2 ADD DUP3 MSTORE PUSH1 0x5 DUP7 MUL SWAP1 SWAP3 ADD DUP1 SLOAD DUP4 MSTORE PUSH1 0x1 DUP2 ADD SLOAD PUSH1 0x1 PUSH1 0x1 PUSH1 0xA0 SHL SUB SWAP1 DUP2 AND SWAP5 DUP5 ADD SWAP5 SWAP1 SWAP5 MSTORE PUSH1 0x2 DUP2 ADD SLOAD DUP5 AND SWAP2 DUP4 ADD SWAP2 SWAP1 SWAP2 MSTORE PUSH1 0x3 DUP1 DUP3 ADD SLOAD SWAP4 DUP5 AND PUSH1 0x60 DUP5 ADD MSTORE PUSH1 0x1 PUSH1 0xA0 SHL DUP5 DIV PUSH5 0xFFFFFFFFFF AND PUSH1 0x80 DUP5 ADD MSTORE SWAP2 SWAP3 SWAP1 SWAP2 PUSH1 0xA0 DUP5 ADD SWAP2 PUSH1 0x1 PUSH1 0xC8 SHL SWAP1 DIV PUSH1 0xFF AND SWAP1 DUP2 GT ISZERO PUSH2 0x1B10 JUMPI PUSH2 0x1B10 PUSH2 0x567B JUMP JUMPDEST PUSH1 0x3 DUP2 GT ISZERO PUSH2 0x1B21 JUMPI PUSH2 0x1B21 PUSH2 0x567B JUMP JUMPDEST DUP2 MSTORE PUSH1 0x20 ADD PUSH1 0x4 DUP3 ADD SLOAD DUP2 MSTORE POP POP DUP2 MSTORE PUSH1 0x20 ADD SWAP1 PUSH1 0x1 ADD SWAP1 PUSH2 0x1A7F JUMP JUMPDEST POP POP POP POP SWAP4 POP PUSH1 0x0 JUMPDEST DUP5 MLOAD DUP2 LT ISZERO PUSH2 0x1BDF JUMPI CALLER PUSH1 0x1 PUSH1 0x1 PUSH1 0xA0 SHL SUB AND DUP6 DUP3 DUP2 MLOAD DUP2 LT PUSH2 0x1B6C JUMPI PUSH2 0x1B6C PUSH2 0x5A42 JUMP JUMPDEST PUSH1 0x20 MUL PUSH1 0x20 ADD ADD MLOAD PUSH1 0x20 ADD MLOAD PUSH1 0x1 PUSH1 0x1 PUSH1 0xA0 SHL SUB AND EQ ISZERO PUSH2 0x1BCD JUMPI DUP5 DUP2 DUP2 MLOAD DUP2 LT PUSH2 0x1B99 JUMPI PUSH2 0x1B99 PUSH2 0x5A42 JUMP JUMPDEST PUSH1 0x20 MUL PUSH1 0x20 ADD ADD MLOAD DUP5 DUP5 DUP2 MLOAD DUP2 LT PUSH2 0x1BB3 JUMPI PUSH2 0x1BB3 PUSH2 0x5A42 JUMP JUMPDEST PUSH1 0x20 MUL PUSH1 0x20 ADD ADD DUP2 SWAP1 MSTORE POP DUP3 DUP1 PUSH2 0x1BC9 SWAP1 PUSH2 0x5A6E JUMP JUMPDEST SWAP4 POP POP JUMPDEST DUP1 PUSH2 0x1BD7 DUP2 PUSH2 0x5A6E JUMP JUMPDEST SWAP2 POP POP PUSH2 0x1B47 JUMP JUMPDEST POP DUP1 PUSH2 0x1BEA DUP2 PUSH2 0x5A6E JUMP JUMPDEST SWAP2 POP POP PUSH2 0x1A1C JUMP JUMPDEST POP PUSH1 0x0 JUMPDEST DUP3 MLOAD DUP2 LT ISZERO PUSH2 0x1C63 JUMPI PUSH2 0x1C25 DUP4 DUP3 DUP2 MLOAD DUP2 LT PUSH2 0x1C14 JUMPI PUSH2 0x1C14 PUSH2 0x5A42 JUMP JUMPDEST PUSH1 0x20 MUL PUSH1 0x20 ADD ADD MLOAD PUSH1 0x80 ADD MLOAD PUSH2 0x4F01 JUMP JUMPDEST DUP4 DUP3 DUP2 MLOAD DUP2 LT PUSH2 0x1C37 JUMPI PUSH2 0x1C37 PUSH2 0x5A42 JUMP JUMPDEST PUSH1 0x20 SWAP1 DUP2 MUL SWAP2 SWAP1 SWAP2 ADD ADD MLOAD PUSH5 0xFFFFFFFFFF SWAP1 SWAP2 AND PUSH1 0x80 SWAP1 SWAP2 ADD MSTORE DUP1 PUSH2 0x1C5B DUP2 PUSH2 0x5A6E JUMP JUMPDEST SWAP2 POP POP PUSH2 0x1BF6 JUMP JUMPDEST POP SWAP1 SWAP6 SWAP5 POP POP POP POP POP JUMP JUMPDEST PUSH1 0xE SLOAD PUSH1 0xFF AND PUSH2 0x9DF JUMPI PUSH2 0x1C80 PUSH2 0x39CA JUMP JUMPDEST PUSH1 0x1 DUP2 MLOAD GT DUP1 ISZERO PUSH2 0x1C92 JUMPI POP PUSH1 0x64 DUP2 MLOAD LT JUMPDEST PUSH2 0x1CE9 JUMPI PUSH1 0x40 MLOAD PUSH3 0x461BCD PUSH1 0xE5 SHL DUP2 MSTORE PUSH1 0x20 PUSH1 0x4 DUP3 ADD MSTORE PUSH1 0x22 PUSH1 0x24 DUP3 ADD MSTORE PUSH32 0x4261746368206D757374203E206F6E65207472616E73616374696F6E203C2031 PUSH1 0x44 DUP3 ADD MSTORE PUSH2 0x303 PUSH1 0xF4 SHL PUSH1 0x64 DUP3 ADD MSTORE PUSH1 0x84 ADD PUSH2 0x3FB JUMP JUMPDEST PUSH2 0x1D14 PUSH1 0x40 MLOAD DUP1 PUSH1 0x80 ADD PUSH1 0x40 MSTORE DUP1 PUSH1 0x0 DUP2 MSTORE PUSH1 0x20 ADD PUSH1 0x0 DUP2 MSTORE PUSH1 0x20 ADD PUSH1 0x0 DUP2 MSTORE PUSH1 0x20 ADD PUSH1 0x60 DUP2 MSTORE POP SWAP1 JUMP JUMPDEST CALLVALUE DUP3 MLOAD PUSH1 0x2 SLOAD PUSH2 0x1D24 SWAP2 SWAP1 PUSH2 0x5B6F JUMP JUMPDEST GT ISZERO PUSH2 0x1D42 JUMPI PUSH1 0x40 MLOAD PUSH3 0x461BCD PUSH1 0xE5 SHL DUP2 MSTORE PUSH1 0x4 ADD PUSH2 0x3FB SWAP1 PUSH2 0x5ACE JUMP JUMPDEST PUSH1 0xD SLOAD PUSH1 0x0 SWAP1 PUSH8 0xFFFFFFFFFFFFFFFF DUP2 GT ISZERO PUSH2 0x1D60 JUMPI PUSH2 0x1D60 PUSH2 0x58D7 JUMP JUMPDEST PUSH1 0x40 MLOAD SWAP1 DUP1 DUP3 MSTORE DUP1 PUSH1 0x20 MUL PUSH1 0x20 ADD DUP3 ADD PUSH1 0x40 MSTORE DUP1 ISZERO PUSH2 0x1D89 JUMPI DUP2 PUSH1 0x20 ADD PUSH1 0x20 DUP3 MUL DUP1 CALLDATASIZE DUP4 CALLDATACOPY ADD SWAP1 POP JUMPDEST POP CALLER PUSH1 0x0 SWAP1 DUP2 MSTORE PUSH1 0x3 PUSH1 0x20 MSTORE PUSH1 0x40 DUP2 KECCAK256 PUSH1 0x1 ADD SLOAD SWAP2 SWAP3 POP SWAP1 PUSH2 0x1DAC SWAP1 PUSH1 0x64 PUSH2 0x5AA0 JUMP JUMPDEST PUSH8 0xFFFFFFFFFFFFFFFF DUP2 GT ISZERO PUSH2 0x1DC4 JUMPI PUSH2 0x1DC4 PUSH2 0x58D7 JUMP JUMPDEST PUSH1 0x40 MLOAD SWAP1 DUP1 DUP3 MSTORE DUP1 PUSH1 0x20 MUL PUSH1 0x20 ADD DUP3 ADD PUSH1 0x40 MSTORE DUP1 ISZERO PUSH2 0x1DED JUMPI DUP2 PUSH1 0x20 ADD PUSH1 0x20 DUP3 MUL DUP1 CALLDATASIZE DUP4 CALLDATACOPY ADD SWAP1 POP JUMPDEST POP SWAP1 POP PUSH1 0x0 JUMPDEST DUP5 MLOAD DUP2 LT ISZERO PUSH2 0x225A JUMPI PUSH2 0x1E22 DUP6 DUP3 DUP2 MLOAD DUP2 LT PUSH2 0x1E11 JUMPI PUSH2 0x1E11 PUSH2 0x5A42 JUMP JUMPDEST PUSH1 0x20 MUL PUSH1 0x20 ADD ADD MLOAD PUSH1 0x20 ADD MLOAD PUSH2 0x4422 JUMP JUMPDEST PUSH1 0x0 PUSH2 0x1E4A DUP7 DUP4 DUP2 MLOAD DUP2 LT PUSH2 0x1E39 JUMPI PUSH2 0x1E39 PUSH2 0x5A42 JUMP JUMPDEST PUSH1 0x20 MUL PUSH1 0x20 ADD ADD MLOAD PUSH1 0x20 ADD MLOAD PUSH2 0x39FB JUMP JUMPDEST SWAP1 POP PUSH2 0x1E56 DUP2 DUP5 PUSH2 0x4F0F JUMP JUMPDEST PUSH2 0x1EA4 JUMPI DUP1 DUP4 DUP7 PUSH1 0x40 ADD MLOAD DUP2 MLOAD DUP2 LT PUSH2 0x1E71 JUMPI PUSH2 0x1E71 PUSH2 0x5A42 JUMP JUMPDEST PUSH1 0x20 MUL PUSH1 0x20 ADD ADD SWAP1 PUSH5 0xFFFFFFFFFF AND SWAP1 DUP2 PUSH5 0xFFFFFFFFFF AND DUP2 MSTORE POP POP PUSH1 0x1 DUP6 PUSH1 0x40 ADD DUP2 DUP2 MLOAD PUSH2 0x1EA0 SWAP2 SWAP1 PUSH2 0x5AA0 JUMP JUMPDEST SWAP1 MSTORE POP JUMPDEST PUSH1 0x0 PUSH1 0x1 PUSH1 0x1 PUSH1 0xA0 SHL SUB AND DUP7 DUP4 DUP2 MLOAD DUP2 LT PUSH2 0x1EC1 JUMPI PUSH2 0x1EC1 PUSH2 0x5A42 JUMP JUMPDEST PUSH1 0x20 MUL PUSH1 0x20 ADD ADD MLOAD PUSH1 0x60 ADD MLOAD PUSH1 0x1 PUSH1 0x1 PUSH1 0xA0 SHL SUB AND EQ ISZERO PUSH2 0x1F13 JUMPI DUP6 DUP3 DUP2 MLOAD DUP2 LT PUSH2 0x1EEE JUMPI PUSH2 0x1EEE PUSH2 0x5A42 JUMP JUMPDEST PUSH1 0x20 MUL PUSH1 0x20 ADD ADD MLOAD PUSH1 0x40 ADD MLOAD DUP6 PUSH1 0x0 ADD DUP2 DUP2 MLOAD PUSH2 0x1F0B SWAP2 SWAP1 PUSH2 0x5AA0 JUMP JUMPDEST SWAP1 MSTORE POP PUSH2 0x2138 JUMP JUMPDEST PUSH2 0x1F39 DUP7 DUP4 DUP2 MLOAD DUP2 LT PUSH2 0x1F28 JUMPI PUSH2 0x1F28 PUSH2 0x5A42 JUMP JUMPDEST PUSH1 0x20 MUL PUSH1 0x20 ADD ADD MLOAD PUSH1 0x60 ADD MLOAD PUSH2 0x3909 JUMP JUMPDEST PUSH2 0x1F55 JUMPI PUSH1 0x40 MLOAD PUSH3 0x461BCD PUSH1 0xE5 SHL DUP2 MSTORE PUSH1 0x4 ADD PUSH2 0x3FB SWAP1 PUSH2 0x5B54 JUMP JUMPDEST DUP6 DUP3 DUP2 MLOAD DUP2 LT PUSH2 0x1F67 JUMPI PUSH2 0x1F67 PUSH2 0x5A42 JUMP JUMPDEST PUSH1 0x20 MUL PUSH1 0x20 ADD ADD MLOAD PUSH1 0x40 ADD MLOAD PUSH1 0xB PUSH1 0x0 CALLER PUSH1 0x1 PUSH1 0x1 PUSH1 0xA0 SHL SUB AND PUSH1 0x1 PUSH1 0x1 PUSH1 0xA0 SHL SUB AND DUP2 MSTORE PUSH1 0x20 ADD SWAP1 DUP2 MSTORE PUSH1 0x20 ADD PUSH1 0x0 KECCAK256 PUSH1 0x0 DUP9 DUP6 DUP2 MLOAD DUP2 LT PUSH2 0x1FAC JUMPI PUSH2 0x1FAC PUSH2 0x5A42 JUMP JUMPDEST PUSH1 0x20 MUL PUSH1 0x20 ADD ADD MLOAD PUSH1 0x60 ADD MLOAD PUSH1 0x1 PUSH1 0x1 PUSH1 0xA0 SHL SUB AND PUSH1 0x1 PUSH1 0x1 PUSH1 0xA0 SHL SUB AND DUP2 MSTORE PUSH1 0x20 ADD SWAP1 DUP2 MSTORE PUSH1 0x20 ADD PUSH1 0x0 KECCAK256 SLOAD PUSH2 0x1FE3 SWAP2 SWAP1 PUSH2 0x5AA0 JUMP JUMPDEST DUP7 DUP4 DUP2 MLOAD DUP2 LT PUSH2 0x1FF5 JUMPI PUSH2 0x1FF5 PUSH2 0x5A42 JUMP JUMPDEST PUSH1 0x20 SWAP1 DUP2 MUL SWAP2 SWAP1 SWAP2 ADD ADD MLOAD PUSH1 0x60 ADD MLOAD PUSH1 0x40 MLOAD PUSH4 0x6EB1769F PUSH1 0xE1 SHL DUP2 MSTORE CALLER PUSH1 0x4 DUP3 ADD MSTORE ADDRESS PUSH1 0x24 DUP3 ADD MSTORE PUSH1 0x1 PUSH1 0x1 PUSH1 0xA0 SHL SUB SWAP1 SWAP2 AND SWAP1 PUSH4 0xDD62ED3E SWAP1 PUSH1 0x44 ADD PUSH1 0x20 PUSH1 0x40 MLOAD DUP1 DUP4 SUB DUP2 PUSH1 0x0 DUP8 DUP1 EXTCODESIZE ISZERO DUP1 ISZERO PUSH2 0x204C JUMPI PUSH1 0x0 DUP1 REVERT JUMPDEST POP GAS CALL ISZERO DUP1 ISZERO PUSH2 0x2060 JUMPI RETURNDATASIZE PUSH1 0x0 DUP1 RETURNDATACOPY RETURNDATASIZE PUSH1 0x0 REVERT JUMPDEST POP POP POP POP PUSH1 0x40 MLOAD RETURNDATASIZE PUSH1 0x1F NOT PUSH1 0x1F DUP3 ADD AND DUP3 ADD DUP1 PUSH1 0x40 MSTORE POP DUP2 ADD SWAP1 PUSH2 0x2084 SWAP2 SWAP1 PUSH2 0x5AE9 JUMP JUMPDEST LT ISZERO PUSH2 0x20A2 JUMPI PUSH1 0x40 MLOAD PUSH3 0x461BCD PUSH1 0xE5 SHL DUP2 MSTORE PUSH1 0x4 ADD PUSH2 0x3FB SWAP1 PUSH2 0x5B02 JUMP JUMPDEST PUSH2 0x20C9 DUP7 DUP4 DUP2 MLOAD DUP2 LT PUSH2 0x20B7 JUMPI PUSH2 0x20B7 PUSH2 0x5A42 JUMP JUMPDEST PUSH1 0x20 MUL PUSH1 0x20 ADD ADD MLOAD PUSH1 0x60 ADD MLOAD DUP6 PUSH2 0x4F71 JUMP JUMPDEST PUSH2 0x2138 JUMPI DUP6 DUP3 DUP2 MLOAD DUP2 LT PUSH2 0x20DF JUMPI PUSH2 0x20DF PUSH2 0x5A42 JUMP JUMPDEST PUSH1 0x20 MUL PUSH1 0x20 ADD ADD MLOAD PUSH1 0x60 ADD MLOAD DUP5 DUP7 PUSH1 0x20 ADD MLOAD DUP2 MLOAD DUP2 LT PUSH2 0x2101 JUMPI PUSH2 0x2101 PUSH2 0x5A42 JUMP JUMPDEST PUSH1 0x20 MUL PUSH1 0x20 ADD ADD SWAP1 PUSH1 0x1 PUSH1 0x1 PUSH1 0xA0 SHL SUB AND SWAP1 DUP2 PUSH1 0x1 PUSH1 0x1 PUSH1 0xA0 SHL SUB AND DUP2 MSTORE POP POP PUSH1 0x1 DUP6 PUSH1 0x20 ADD DUP2 DUP2 MLOAD PUSH2 0x2134 SWAP2 SWAP1 PUSH2 0x5AA0 JUMP JUMPDEST SWAP1 MSTORE POP JUMPDEST DUP6 DUP3 DUP2 MLOAD DUP2 LT PUSH2 0x214A JUMPI PUSH2 0x214A PUSH2 0x5A42 JUMP JUMPDEST PUSH1 0x20 MUL PUSH1 0x20 ADD ADD MLOAD PUSH1 0x40 ADD MLOAD PUSH1 0xC PUSH1 0x0 DUP9 DUP6 DUP2 MLOAD DUP2 LT PUSH2 0x216C JUMPI PUSH2 0x216C PUSH2 0x5A42 JUMP JUMPDEST PUSH1 0x20 MUL PUSH1 0x20 ADD ADD MLOAD PUSH1 0x60 ADD MLOAD PUSH1 0x1 PUSH1 0x1 PUSH1 0xA0 SHL SUB AND PUSH1 0x1 PUSH1 0x1 PUSH1 0xA0 SHL SUB AND DUP2 MSTORE PUSH1 0x20 ADD SWAP1 DUP2 MSTORE PUSH1 0x20 ADD PUSH1 0x0 KECCAK256 PUSH1 0x0 DUP3 DUP3 SLOAD PUSH2 0x21A7 SWAP2 SWAP1 PUSH2 0x5AA0 JUMP JUMPDEST SWAP3 POP POP DUP2 SWAP1 SSTORE POP DUP6 DUP3 DUP2 MLOAD DUP2 LT PUSH2 0x21C0 JUMPI PUSH2 0x21C0 PUSH2 0x5A42 JUMP JUMPDEST PUSH1 0x20 MUL PUSH1 0x20 ADD ADD MLOAD PUSH1 0x40 ADD MLOAD PUSH1 0xB PUSH1 0x0 CALLER PUSH1 0x1 PUSH1 0x1 PUSH1 0xA0 SHL SUB AND PUSH1 0x1 PUSH1 0x1 PUSH1 0xA0 SHL SUB AND DUP2 MSTORE PUSH1 0x20 ADD SWAP1 DUP2 MSTORE PUSH1 0x20 ADD PUSH1 0x0 KECCAK256 PUSH1 0x0 DUP9 DUP6 DUP2 MLOAD DUP2 LT PUSH2 0x2205 JUMPI PUSH2 0x2205 PUSH2 0x5A42 JUMP JUMPDEST PUSH1 0x20 MUL PUSH1 0x20 ADD ADD MLOAD PUSH1 0x60 ADD MLOAD PUSH1 0x1 PUSH1 0x1 PUSH1 0xA0 SHL SUB AND PUSH1 0x1 PUSH1 0x1 PUSH1 0xA0 SHL SUB AND DUP2 MSTORE PUSH1 0x20 ADD SWAP1 DUP2 MSTORE PUSH1 0x20 ADD PUSH1 0x0 KECCAK256 PUSH1 0x0 DUP3 DUP3 SLOAD PUSH2 0x2240 SWAP2 SWAP1 PUSH2 0x5AA0 JUMP JUMPDEST SWAP1 SWAP2 SSTORE POP DUP3 SWAP2 POP PUSH2 0x2252 SWAP1 POP DUP2 PUSH2 0x5A6E JUMP JUMPDEST SWAP2 POP POP PUSH2 0x1DF3 JUMP JUMPDEST CALLVALUE PUSH1 0x64 PUSH1 0x1 SLOAD DUP7 PUSH1 0x0 ADD MLOAD PUSH2 0x226F SWAP2 SWAP1 PUSH2 0x5B6F JUMP JUMPDEST PUSH2 0x2279 SWAP2 SWAP1 PUSH2 0x5BA4 JUMP JUMPDEST GT ISZERO PUSH2 0x2297 JUMPI PUSH1 0x40 MLOAD PUSH3 0x461BCD PUSH1 0xE5 SHL DUP2 MSTORE PUSH1 0x4 ADD PUSH2 0x3FB SWAP1 PUSH2 0x5ACE JUMP JUMPDEST POP PUSH1 0x0 JUMPDEST DUP2 MLOAD DUP2 LT ISZERO PUSH2 0x24FF JUMPI DUP2 DUP2 DUP2 MLOAD DUP2 LT PUSH2 0x22B6 JUMPI PUSH2 0x22B6 PUSH2 0x5A42 JUMP JUMPDEST PUSH1 0x20 MUL PUSH1 0x20 ADD ADD MLOAD PUSH5 0xFFFFFFFFFF AND PUSH1 0x0 EQ ISZERO PUSH2 0x22D2 JUMPI PUSH2 0x24FF JUMP JUMPDEST PUSH1 0x0 JUMPDEST DUP6 MLOAD DUP2 PUSH2 0xFFFF AND LT ISZERO PUSH2 0x24EC JUMPI PUSH1 0x0 PUSH2 0x22FD DUP8 DUP4 PUSH2 0xFFFF AND DUP2 MLOAD DUP2 LT PUSH2 0x1E39 JUMPI PUSH2 0x1E39 PUSH2 0x5A42 JUMP JUMPDEST SWAP1 POP DUP4 DUP4 DUP2 MLOAD DUP2 LT PUSH2 0x2311 JUMPI PUSH2 0x2311 PUSH2 0x5A42 JUMP JUMPDEST PUSH1 0x20 MUL PUSH1 0x20 ADD ADD MLOAD PUSH5 0xFFFFFFFFFF AND DUP2 PUSH5 0xFFFFFFFFFF AND EQ ISZERO PUSH2 0x24D9 JUMPI PUSH1 0x0 PUSH2 0x23A0 CALLER DUP10 DUP6 PUSH2 0xFFFF AND DUP2 MLOAD DUP2 LT PUSH2 0x234A JUMPI PUSH2 0x234A PUSH2 0x5A42 JUMP JUMPDEST PUSH1 0x20 MUL PUSH1 0x20 ADD ADD MLOAD PUSH1 0x0 ADD MLOAD DUP11 DUP7 PUSH2 0xFFFF AND DUP2 MLOAD DUP2 LT PUSH2 0x236C JUMPI PUSH2 0x236C PUSH2 0x5A42 JUMP JUMPDEST PUSH1 0x20 MUL PUSH1 0x20 ADD ADD MLOAD PUSH1 0x60 ADD MLOAD DUP6 DUP13 DUP9 PUSH2 0xFFFF AND DUP2 MLOAD DUP2 LT PUSH2 0x238F JUMPI PUSH2 0x238F PUSH2 0x5A42 JUMP JUMPDEST PUSH1 0x20 MUL PUSH1 0x20 ADD ADD MLOAD PUSH1 0x40 ADD MLOAD PUSH2 0x44A0 JUMP JUMPDEST SWAP1 POP DUP1 PUSH1 0x5 PUSH1 0x0 DUP8 DUP8 DUP2 MLOAD DUP2 LT PUSH2 0x23B9 JUMPI PUSH2 0x23B9 PUSH2 0x5A42 JUMP JUMPDEST PUSH1 0x20 SWAP1 DUP2 MUL SWAP2 SWAP1 SWAP2 ADD DUP2 ADD MLOAD PUSH5 0xFFFFFFFFFF SWAP1 DUP2 AND DUP4 MSTORE DUP3 DUP3 ADD SWAP4 SWAP1 SWAP4 MSTORE PUSH1 0x40 SWAP2 DUP3 ADD PUSH1 0x0 SWAP1 DUP2 KECCAK256 DUP1 SLOAD PUSH1 0x1 DUP2 DUP2 ADD DUP4 SSTORE SWAP2 DUP4 MSTORE SWAP2 DUP4 SWAP1 KECCAK256 DUP7 MLOAD PUSH1 0x5 SWAP1 SWAP4 MUL ADD SWAP2 DUP3 SSTORE SWAP2 DUP6 ADD MLOAD SWAP2 DUP2 ADD DUP1 SLOAD PUSH1 0x1 PUSH1 0x1 PUSH1 0xA0 SHL SUB SWAP4 DUP5 AND PUSH1 0x1 PUSH1 0x1 PUSH1 0xA0 SHL SUB NOT SWAP2 DUP3 AND OR SWAP1 SWAP2 SSTORE SWAP3 DUP6 ADD MLOAD PUSH1 0x2 DUP3 ADD DUP1 SLOAD SWAP2 DUP5 AND SWAP2 SWAP1 SWAP5 AND OR SWAP1 SWAP3 SSTORE PUSH1 0x60 DUP5 ADD MLOAD PUSH1 0x3 DUP1 DUP5 ADD DUP1 SLOAD PUSH1 0x80 DUP9 ADD MLOAD SWAP1 SWAP7 AND PUSH1 0x1 PUSH1 0xA0 SHL MUL PUSH1 0x1 PUSH1 0x1 PUSH1 0xC8 SHL SUB NOT SWAP1 SWAP7 AND SWAP3 SWAP1 SWAP4 AND SWAP2 SWAP1 SWAP2 OR SWAP4 SWAP1 SWAP4 OR DUP1 DUP3 SSTORE PUSH1 0xA0 DUP6 ADD MLOAD SWAP3 SWAP4 PUSH1 0xFF PUSH1 0xC8 SHL NOT SWAP1 SWAP2 AND SWAP1 PUSH1 0x1 PUSH1 0xC8 SHL SWAP1 DUP5 SWAP1 DUP2 GT ISZERO PUSH2 0x2492 JUMPI PUSH2 0x2492 PUSH2 0x567B JUMP JUMPDEST MUL OR SWAP1 SSTORE POP PUSH1 0xC0 SWAP2 SWAP1 SWAP2 ADD MLOAD PUSH1 0x4 SWAP1 SWAP2 ADD SSTORE MLOAD PUSH1 0x6 DUP1 SLOAD PUSH1 0x1 DUP2 ADD DUP3 SSTORE PUSH1 0x0 SWAP2 SWAP1 SWAP2 MSTORE PUSH32 0xF652222313E28459528D920B65115C16C04F3EFC82AAEDC97BE59F3F377C0D3F ADD SSTORE JUMPDEST POP DUP1 PUSH2 0x24E4 DUP2 PUSH2 0x5D10 JUMP JUMPDEST SWAP2 POP POP PUSH2 0x22D5 JUMP JUMPDEST POP DUP1 PUSH2 0x24F7 DUP2 PUSH2 0x5A6E JUMP JUMPDEST SWAP2 POP POP PUSH2 0x229B JUMP JUMPDEST POP PUSH1 0x0 JUMPDEST DUP3 MLOAD DUP2 LT ISZERO PUSH2 0x275D JUMPI PUSH1 0x0 PUSH1 0x1 PUSH1 0x1 PUSH1 0xA0 SHL SUB AND DUP4 DUP3 DUP2 MLOAD DUP2 LT PUSH2 0x2529 JUMPI PUSH2 0x2529 PUSH2 0x5A42 JUMP JUMPDEST PUSH1 0x20 MUL PUSH1 0x20 ADD ADD MLOAD PUSH1 0x1 PUSH1 0x1 PUSH1 0xA0 SHL SUB AND EQ PUSH2 0x2706 JUMPI PUSH1 0xC PUSH1 0x0 DUP5 DUP4 DUP2 MLOAD DUP2 LT PUSH2 0x2555 JUMPI PUSH2 0x2555 PUSH2 0x5A42 JUMP JUMPDEST PUSH1 0x20 MUL PUSH1 0x20 ADD ADD MLOAD PUSH1 0x1 PUSH1 0x1 PUSH1 0xA0 SHL SUB AND PUSH1 0x1 PUSH1 0x1 PUSH1 0xA0 SHL SUB AND DUP2 MSTORE PUSH1 0x20 ADD SWAP1 DUP2 MSTORE PUSH1 0x20 ADD PUSH1 0x0 KECCAK256 SLOAD DUP4 DUP3 DUP2 MLOAD DUP2 LT PUSH2 0x2590 JUMPI PUSH2 0x2590 PUSH2 0x5A42 JUMP JUMPDEST PUSH1 0x20 SWAP1 DUP2 MUL SWAP2 SWAP1 SWAP2 ADD ADD MLOAD PUSH1 0x40 MLOAD PUSH4 0x6EB1769F PUSH1 0xE1 SHL DUP2 MSTORE CALLER PUSH1 0x4 DUP3 ADD MSTORE ADDRESS PUSH1 0x24 DUP3 ADD MSTORE PUSH1 0x1 PUSH1 0x1 PUSH1 0xA0 SHL SUB SWAP1 SWAP2 AND SWAP1 PUSH4 0xDD62ED3E SWAP1 PUSH1 0x44 ADD PUSH1 0x20 PUSH1 0x40 MLOAD DUP1 DUP4 SUB DUP2 PUSH1 0x0 DUP8 DUP1 EXTCODESIZE ISZERO DUP1 ISZERO PUSH2 0x25E3 JUMPI PUSH1 0x0 DUP1 REVERT JUMPDEST POP GAS CALL ISZERO DUP1 ISZERO PUSH2 0x25F7 JUMPI RETURNDATASIZE PUSH1 0x0 DUP1 RETURNDATACOPY RETURNDATASIZE PUSH1 0x0 REVERT JUMPDEST POP POP POP POP PUSH1 0x40 MLOAD RETURNDATASIZE PUSH1 0x1F NOT PUSH1 0x1F DUP3 ADD AND DUP3 ADD DUP1 PUSH1 0x40 MSTORE POP DUP2 ADD SWAP1 PUSH2 0x261B SWAP2 SWAP1 PUSH2 0x5AE9 JUMP JUMPDEST LT ISZERO DUP1 ISZERO PUSH2 0x26FD JUMPI POP PUSH1 0xC PUSH1 0x0 DUP5 DUP4 DUP2 MLOAD DUP2 LT PUSH2 0x263A JUMPI PUSH2 0x263A PUSH2 0x5A42 JUMP JUMPDEST PUSH1 0x20 MUL PUSH1 0x20 ADD ADD MLOAD PUSH1 0x1 PUSH1 0x1 PUSH1 0xA0 SHL SUB AND PUSH1 0x1 PUSH1 0x1 PUSH1 0xA0 SHL SUB AND DUP2 MSTORE PUSH1 0x20 ADD SWAP1 DUP2 MSTORE PUSH1 0x20 ADD PUSH1 0x0 KECCAK256 SLOAD DUP4 DUP3 DUP2 MLOAD DUP2 LT PUSH2 0x2675 JUMPI PUSH2 0x2675 PUSH2 0x5A42 JUMP JUMPDEST PUSH1 0x20 SWAP1 DUP2 MUL SWAP2 SWAP1 SWAP2 ADD ADD MLOAD PUSH1 0x40 MLOAD PUSH4 0x70A08231 PUSH1 0xE0 SHL DUP2 MSTORE CALLER PUSH1 0x4 DUP3 ADD MSTORE PUSH1 0x1 PUSH1 0x1 PUSH1 0xA0 SHL SUB SWAP1 SWAP2 AND SWAP1 PUSH4 0x70A08231 SWAP1 PUSH1 0x24 ADD PUSH1 0x20 PUSH1 0x40 MLOAD DUP1 DUP4 SUB DUP2 PUSH1 0x0 DUP8 DUP1 EXTCODESIZE ISZERO DUP1 ISZERO PUSH2 0x26C2 JUMPI PUSH1 0x0 DUP1 REVERT JUMPDEST POP GAS CALL ISZERO DUP1 ISZERO PUSH2 0x26D6 JUMPI RETURNDATASIZE PUSH1 0x0 DUP1 RETURNDATACOPY RETURNDATASIZE PUSH1 0x0 REVERT JUMPDEST POP POP POP POP PUSH1 0x40 MLOAD RETURNDATASIZE PUSH1 0x1F NOT PUSH1 0x1F DUP3 ADD AND DUP3 ADD DUP1 PUSH1 0x40 MSTORE POP DUP2 ADD SWAP1 PUSH2 0x26FA SWAP2 SWAP1 PUSH2 0x5AE9 JUMP JUMPDEST LT ISZERO JUMPDEST PUSH2 0x2706 JUMPI PUSH1 0x0 DUP1 REVERT JUMPDEST PUSH1 0x0 PUSH1 0xC PUSH1 0x0 DUP6 DUP5 DUP2 MLOAD DUP2 LT PUSH2 0x271E JUMPI PUSH2 0x271E PUSH2 0x5A42 JUMP JUMPDEST PUSH1 0x20 MUL PUSH1 0x20 ADD ADD MLOAD PUSH1 0x1 PUSH1 0x1 PUSH1 0xA0 SHL SUB AND PUSH1 0x1 PUSH1 0x1 PUSH1 0xA0 SHL SUB AND DUP2 MSTORE PUSH1 0x20 ADD SWAP1 DUP2 MSTORE PUSH1 0x20 ADD PUSH1 0x0 KECCAK256 DUP2 SWAP1 SSTORE POP DUP1 DUP1 PUSH2 0x2755 SWAP1 PUSH2 0x5A6E JUMP JUMPDEST SWAP2 POP POP PUSH2 0x2503 JUMP JUMPDEST CALLER PUSH1 0x0 SWAP1 DUP2 MSTORE PUSH1 0x3 PUSH1 0x20 MSTORE PUSH1 0x40 SWAP1 KECCAK256 SLOAD PUSH1 0x1 PUSH1 0xA0 SHL SWAP1 DIV PUSH1 0xFF AND PUSH2 0x27E7 JUMPI CALLER PUSH1 0x0 DUP2 DUP2 MSTORE PUSH1 0x3 PUSH1 0x20 MSTORE PUSH1 0x40 DUP2 KECCAK256 DUP1 SLOAD PUSH1 0x1 PUSH1 0x1 PUSH1 0xA0 SHL SUB NOT SWAP1 DUP2 AND DUP5 OR DUP3 SSTORE PUSH1 0x4 DUP1 SLOAD PUSH1 0x1 DUP2 ADD SWAP1 SWAP2 SSTORE PUSH32 0x8A35ACFBC15FF81A39AE7D344FD709F28E8600B4AA8C65C6B64BFE7FE36BD19B ADD DUP1 SLOAD SWAP1 SWAP2 AND DUP5 OR SWAP1 SSTORE SWAP2 SWAP1 MSTORE DUP1 SLOAD PUSH1 0xFF PUSH1 0xA0 SHL NOT AND PUSH1 0x1 PUSH1 0xA0 SHL OR SWAP1 SSTORE JUMPDEST POP POP POP POP POP JUMP JUMPDEST PUSH2 0x27F6 PUSH2 0x38C9 JUMP JUMPDEST PUSH1 0x0 DUP1 PUSH2 0x2802 TIMESTAMP PUSH2 0x134B JUMP JUMPDEST SWAP2 POP SWAP2 POP PUSH1 0x0 JUMPDEST PUSH2 0xFFFF DUP3 AND PUSH1 0x0 SWAP1 DUP2 MSTORE PUSH1 0x7 PUSH1 0x20 MSTORE PUSH1 0x40 SWAP1 KECCAK256 SLOAD DUP2 LT ISZERO PUSH2 0x2CD6 JUMPI PUSH2 0xFFFF DUP3 AND PUSH1 0x0 SWAP1 DUP2 MSTORE PUSH1 0x7 PUSH1 0x20 MSTORE PUSH1 0x40 SWAP1 KECCAK256 DUP1 SLOAD DUP3 SWAP1 DUP2 LT PUSH2 0x2849 JUMPI PUSH2 0x2849 PUSH2 0x5A42 JUMP JUMPDEST SWAP1 PUSH1 0x0 MSTORE PUSH1 0x20 PUSH1 0x0 KECCAK256 SWAP1 PUSH1 0x5 MUL ADD PUSH1 0x2 ADD PUSH1 0x15 SWAP1 SLOAD SWAP1 PUSH2 0x100 EXP SWAP1 DIV PUSH1 0xFF AND PUSH2 0x2CC4 JUMPI PUSH2 0xFFFF DUP3 AND PUSH1 0x0 SWAP1 DUP2 MSTORE PUSH1 0x7 PUSH1 0x20 MSTORE PUSH1 0x40 DUP2 KECCAK256 DUP1 SLOAD DUP4 SWAP1 DUP2 LT PUSH2 0x2891 JUMPI PUSH2 0x2891 PUSH2 0x5A42 JUMP JUMPDEST PUSH1 0x0 SWAP2 DUP3 MSTORE PUSH1 0x20 DUP1 DUP4 KECCAK256 PUSH1 0x5 SWAP1 SWAP3 MUL SWAP1 SWAP2 ADD SLOAD PUSH2 0xFFFF DUP7 AND DUP4 MSTORE PUSH1 0x7 SWAP1 SWAP2 MSTORE PUSH1 0x40 DUP3 KECCAK256 DUP1 SLOAD SWAP2 SWAP4 POP SWAP1 DUP5 SWAP1 DUP2 LT PUSH2 0x28CA JUMPI PUSH2 0x28CA PUSH2 0x5A42 JUMP JUMPDEST PUSH1 0x0 SWAP2 DUP3 MSTORE PUSH1 0x20 DUP1 DUP4 KECCAK256 PUSH1 0x3 PUSH1 0x5 SWAP1 SWAP4 MUL ADD SWAP2 SWAP1 SWAP2 ADD SLOAD PUSH2 0xFFFF DUP8 AND DUP4 MSTORE PUSH1 0x7 SWAP1 SWAP2 MSTORE PUSH1 0x40 DUP3 KECCAK256 DUP1 SLOAD PUSH1 0x1 PUSH1 0x1 PUSH1 0xA0 SHL SUB SWAP1 SWAP3 AND SWAP4 POP SWAP1 DUP6 SWAP1 DUP2 LT PUSH2 0x2911 JUMPI PUSH2 0x2911 PUSH2 0x5A42 JUMP JUMPDEST SWAP1 PUSH1 0x0 MSTORE PUSH1 0x20 PUSH1 0x0 KECCAK256 SWAP1 PUSH1 0x5 MUL ADD PUSH1 0x1 ADD SLOAD SWAP1 POP PUSH1 0x0 JUMPDEST PUSH1 0x0 DUP5 DUP2 MSTORE PUSH1 0x9 PUSH1 0x20 MSTORE PUSH1 0x40 SWAP1 KECCAK256 SLOAD DUP2 LT ISZERO PUSH2 0x2CBF JUMPI PUSH1 0x0 DUP5 DUP2 MSTORE PUSH1 0x9 PUSH1 0x20 MSTORE PUSH1 0x40 DUP2 KECCAK256 DUP1 SLOAD DUP4 SWAP1 DUP2 LT PUSH2 0x295E JUMPI PUSH2 0x295E PUSH2 0x5A42 JUMP JUMPDEST PUSH1 0x0 SWAP2 DUP3 MSTORE PUSH1 0x20 DUP1 DUP4 KECCAK256 SWAP1 SWAP2 ADD SLOAD PUSH2 0xFFFF DUP11 AND DUP4 MSTORE PUSH1 0x7 SWAP1 SWAP2 MSTORE PUSH1 0x40 SWAP1 SWAP2 KECCAK256 DUP1 SLOAD PUSH1 0x1 PUSH1 0x1 PUSH1 0xA0 SHL SUB SWAP1 SWAP3 AND SWAP3 POP DUP5 SWAP2 DUP9 SWAP1 DUP2 LT PUSH2 0x299E JUMPI PUSH2 0x299E PUSH2 0x5A42 JUMP JUMPDEST PUSH1 0x0 SWAP2 DUP3 MSTORE PUSH1 0x20 SWAP1 SWAP2 KECCAK256 PUSH1 0x5 SWAP1 SWAP2 MUL ADD PUSH1 0x3 ADD SLOAD PUSH1 0x40 MLOAD PUSH4 0x6EB1769F PUSH1 0xE1 SHL DUP2 MSTORE PUSH1 0x1 PUSH1 0x1 PUSH1 0xA0 SHL SUB DUP5 DUP2 AND PUSH1 0x4 DUP4 ADD MSTORE ADDRESS PUSH1 0x24 DUP4 ADD MSTORE SWAP1 SWAP2 AND SWAP1 PUSH4 0xDD62ED3E SWAP1 PUSH1 0x44 ADD PUSH1 0x20 PUSH1 0x40 MLOAD DUP1 DUP4 SUB DUP2 PUSH1 0x0 DUP8 DUP1 EXTCODESIZE ISZERO DUP1 ISZERO PUSH2 0x29FC JUMPI PUSH1 0x0 DUP1 REVERT JUMPDEST POP GAS CALL ISZERO DUP1 ISZERO PUSH2 0x2A10 JUMPI RETURNDATASIZE PUSH1 0x0 DUP1 RETURNDATACOPY RETURNDATASIZE PUSH1 0x0 REVERT JUMPDEST POP POP POP POP PUSH1 0x40 MLOAD RETURNDATASIZE PUSH1 0x1F NOT PUSH1 0x1F DUP3 ADD AND DUP3 ADD DUP1 PUSH1 0x40 MSTORE POP DUP2 ADD SWAP1 PUSH2 0x2A34 SWAP2 SWAP1 PUSH2 0x5AE9 JUMP JUMPDEST LT ISZERO DUP1 ISZERO PUSH2 0x2AF8 JUMPI POP DUP3 DUP5 PUSH1 0x1 PUSH1 0x1 PUSH1 0xA0 SHL SUB AND PUSH4 0x70A08231 PUSH1 0x9 PUSH1 0x0 DUP10 DUP2 MSTORE PUSH1 0x20 ADD SWAP1 DUP2 MSTORE PUSH1 0x20 ADD PUSH1 0x0 KECCAK256 DUP6 DUP2 SLOAD DUP2 LT PUSH2 0x2A71 JUMPI PUSH2 0x2A71 PUSH2 0x5A42 JUMP JUMPDEST PUSH1 0x0 SWAP2 DUP3 MSTORE PUSH1 0x20 SWAP1 SWAP2 KECCAK256 ADD SLOAD PUSH1 0x40 MLOAD PUSH1 0xE0 DUP4 SWAP1 SHL PUSH1 0x1 PUSH1 0x1 PUSH1 0xE0 SHL SUB NOT AND DUP2 MSTORE PUSH1 0x1 PUSH1 0x1 PUSH1 0xA0 SHL SUB SWAP1 SWAP2 AND PUSH1 0x4 DUP3 ADD MSTORE PUSH1 0x24 ADD PUSH1 0x20 PUSH1 0x40 MLOAD DUP1 DUP4 SUB DUP2 PUSH1 0x0 DUP8 DUP1 EXTCODESIZE ISZERO DUP1 ISZERO PUSH2 0x2ABE JUMPI PUSH1 0x0 DUP1 REVERT JUMPDEST POP GAS CALL ISZERO DUP1 ISZERO PUSH2 0x2AD2 JUMPI RETURNDATASIZE PUSH1 0x0 DUP1 RETURNDATACOPY RETURNDATASIZE PUSH1 0x0 REVERT JUMPDEST POP POP POP POP PUSH1 0x40 MLOAD RETURNDATASIZE PUSH1 0x1F NOT PUSH1 0x1F DUP3 ADD AND DUP3 ADD DUP1 PUSH1 0x40 MSTORE POP DUP2 ADD SWAP1 PUSH2 0x2AF6 SWAP2 SWAP1 PUSH2 0x5AE9 JUMP JUMPDEST LT JUMPDEST ISZERO PUSH2 0x2B6D JUMPI PUSH1 0x40 DUP1 MLOAD PUSH1 0x60 DUP2 ADD DUP3 MSTORE DUP7 DUP2 MSTORE PUSH5 0xFFFFFFFFFF TIMESTAMP DUP2 AND PUSH1 0x20 DUP1 DUP5 ADD SWAP2 DUP3 MSTORE PUSH1 0x0 DUP5 DUP7 ADD DUP2 DUP2 MSTORE PUSH1 0x1 PUSH1 0x1 PUSH1 0xA0 SHL SUB DUP9 AND DUP3 MSTORE PUSH1 0xA SWAP1 SWAP3 MSTORE SWAP5 SWAP1 SWAP5 KECCAK256 SWAP3 MLOAD DUP4 SSTORE MLOAD PUSH1 0x1 SWAP3 SWAP1 SWAP3 ADD DUP1 SLOAD SWAP4 MLOAD ISZERO ISZERO PUSH1 0x1 PUSH1 0x28 SHL MUL PUSH6 0xFFFFFFFFFFFF NOT SWAP1 SWAP5 AND SWAP3 SWAP1 SWAP2 AND SWAP2 SWAP1 SWAP2 OR SWAP2 SWAP1 SWAP2 OR SWAP1 SSTORE PUSH2 0x2CAC JUMP JUMPDEST PUSH1 0x40 DUP1 MLOAD PUSH1 0x60 DUP2 ADD DUP3 MSTORE DUP7 DUP2 MSTORE PUSH5 0xFFFFFFFFFF TIMESTAMP DUP2 AND PUSH1 0x20 DUP1 DUP5 ADD SWAP2 DUP3 MSTORE PUSH1 0x1 DUP5 DUP7 ADD DUP2 DUP2 MSTORE PUSH1 0x1 PUSH1 0x1 PUSH1 0xA0 SHL SUB DUP1 DUP10 AND PUSH1 0x0 SWAP1 DUP2 MSTORE PUSH1 0xA DUP6 MSTORE DUP9 DUP2 KECCAK256 SWAP8 MLOAD DUP9 SSTORE SWAP5 MLOAD SWAP7 SWAP1 SWAP3 ADD DUP1 SLOAD SWAP2 MLOAD ISZERO ISZERO PUSH1 0x1 PUSH1 0x28 SHL MUL PUSH6 0xFFFFFFFFFFFF NOT SWAP1 SWAP3 AND SWAP7 SWAP1 SWAP6 AND SWAP6 SWAP1 SWAP6 OR SWAP5 SWAP1 SWAP5 OR SWAP1 SWAP3 SSTORE PUSH2 0xFFFF DUP12 AND DUP2 MSTORE PUSH1 0x7 SWAP1 SWAP2 MSTORE SWAP2 SWAP1 SWAP2 KECCAK256 DUP1 SLOAD SWAP2 DUP7 AND SWAP2 PUSH4 0x23B872DD SWAP2 DUP5 SWAP2 DUP11 SWAP1 DUP2 LT PUSH2 0x2C08 JUMPI PUSH2 0x2C08 PUSH2 0x5A42 JUMP JUMPDEST PUSH1 0x0 SWAP2 DUP3 MSTORE PUSH1 0x20 SWAP1 SWAP2 KECCAK256 PUSH1 0x5 SWAP1 SWAP2 MUL ADD PUSH1 0x2 ADD SLOAD PUSH1 0x40 MLOAD PUSH1 0xE0 DUP5 SWAP1 SHL PUSH1 0x1 PUSH1 0x1 PUSH1 0xE0 SHL SUB NOT AND DUP2 MSTORE PUSH1 0x1 PUSH1 0x1 PUSH1 0xA0 SHL SUB SWAP3 DUP4 AND PUSH1 0x4 DUP3 ADD MSTORE SWAP2 AND PUSH1 0x24 DUP3 ADD MSTORE PUSH1 0x44 DUP2 ADD DUP7 SWAP1 MSTORE PUSH1 0x64 ADD PUSH1 0x20 PUSH1 0x40 MLOAD DUP1 DUP4 SUB DUP2 PUSH1 0x0 DUP8 DUP1 EXTCODESIZE ISZERO DUP1 ISZERO PUSH2 0x2C6B JUMPI PUSH1 0x0 DUP1 REVERT JUMPDEST POP GAS CALL ISZERO DUP1 ISZERO PUSH2 0x2C7F JUMPI RETURNDATASIZE PUSH1 0x0 DUP1 RETURNDATACOPY RETURNDATASIZE PUSH1 0x0 REVERT JUMPDEST POP POP POP POP PUSH1 0x40 MLOAD RETURNDATASIZE PUSH1 0x1F NOT PUSH1 0x1F DUP3 ADD AND DUP3 ADD DUP1 PUSH1 0x40 MSTORE POP DUP2 ADD SWAP1 PUSH2 0x2CA3 SWAP2 SWAP1 PUSH2 0x5D28 JUMP JUMPDEST PUSH2 0x2CAC JUMPI PUSH1 0x0 DUP1 REVERT JUMPDEST POP DUP1 PUSH2 0x2CB7 DUP2 PUSH2 0x5A6E JUMP JUMPDEST SWAP2 POP POP PUSH2 0x2928 JUMP JUMPDEST POP POP POP POP JUMPDEST DUP1 PUSH2 0x2CCE DUP2 PUSH2 0x5A6E JUMP JUMPDEST SWAP2 POP POP PUSH2 0x2809 JUMP JUMPDEST POP PUSH1 0x0 JUMPDEST PUSH2 0xFFFF DUP4 AND PUSH1 0x0 SWAP1 DUP2 MSTORE PUSH1 0x8 PUSH1 0x20 MSTORE PUSH1 0x40 SWAP1 KECCAK256 SLOAD DUP2 LT ISZERO PUSH2 0x31A7 JUMPI PUSH2 0xFFFF DUP3 AND PUSH1 0x0 SWAP1 DUP2 MSTORE PUSH1 0x8 PUSH1 0x20 MSTORE PUSH1 0x40 SWAP1 KECCAK256 DUP1 SLOAD DUP3 SWAP1 DUP2 LT PUSH2 0x2D1A JUMPI PUSH2 0x2D1A PUSH2 0x5A42 JUMP JUMPDEST SWAP1 PUSH1 0x0 MSTORE PUSH1 0x20 PUSH1 0x0 KECCAK256 SWAP1 PUSH1 0x5 MUL ADD PUSH1 0x2 ADD PUSH1 0x15 SWAP1 SLOAD SWAP1 PUSH2 0x100 EXP SWAP1 DIV PUSH1 0xFF AND PUSH2 0x3195 JUMPI PUSH2 0xFFFF DUP3 AND PUSH1 0x0 SWAP1 DUP2 MSTORE PUSH1 0x8 PUSH1 0x20 MSTORE PUSH1 0x40 DUP2 KECCAK256 DUP1 SLOAD DUP4 SWAP1 DUP2 LT PUSH2 0x2D62 JUMPI PUSH2 0x2D62 PUSH2 0x5A42 JUMP JUMPDEST PUSH1 0x0 SWAP2 DUP3 MSTORE PUSH1 0x20 DUP1 DUP4 KECCAK256 PUSH1 0x5 SWAP1 SWAP3 MUL SWAP1 SWAP2 ADD SLOAD PUSH2 0xFFFF DUP7 AND DUP4 MSTORE PUSH1 0x8 SWAP1 SWAP2 MSTORE PUSH1 0x40 DUP3 KECCAK256 DUP1 SLOAD SWAP2 SWAP4 POP SWAP1 DUP5 SWAP1 DUP2 LT PUSH2 0x2D9B JUMPI PUSH2 0x2D9B PUSH2 0x5A42 JUMP JUMPDEST PUSH1 0x0 SWAP2 DUP3 MSTORE PUSH1 0x20 DUP1 DUP4 KECCAK256 PUSH1 0x3 PUSH1 0x5 SWAP1 SWAP4 MUL ADD SWAP2 SWAP1 SWAP2 ADD SLOAD PUSH2 0xFFFF DUP8 AND DUP4 MSTORE PUSH1 0x8 SWAP1 SWAP2 MSTORE PUSH1 0x40 DUP3 KECCAK256 DUP1 SLOAD PUSH1 0x1 PUSH1 0x1 PUSH1 0xA0 SHL SUB SWAP1 SWAP3 AND SWAP4 POP SWAP1 DUP6 SWAP1 DUP2 LT PUSH2 0x2DE2 JUMPI PUSH2 0x2DE2 PUSH2 0x5A42 JUMP JUMPDEST SWAP1 PUSH1 0x0 MSTORE PUSH1 0x20 PUSH1 0x0 KECCAK256 SWAP1 PUSH1 0x5 MUL ADD PUSH1 0x1 ADD SLOAD SWAP1 POP PUSH1 0x0 JUMPDEST PUSH1 0x0 DUP5 DUP2 MSTORE PUSH1 0x9 PUSH1 0x20 MSTORE PUSH1 0x40 SWAP1 KECCAK256 SLOAD DUP2 LT ISZERO PUSH2 0x3190 JUMPI PUSH1 0x0 DUP5 DUP2 MSTORE PUSH1 0x9 PUSH1 0x20 MSTORE PUSH1 0x40 DUP2 KECCAK256 DUP1 SLOAD DUP4 SWAP1 DUP2 LT PUSH2 0x2E2F JUMPI PUSH2 0x2E2F PUSH2 0x5A42 JUMP JUMPDEST PUSH1 0x0 SWAP2 DUP3 MSTORE PUSH1 0x20 DUP1 DUP4 KECCAK256 SWAP1 SWAP2 ADD SLOAD PUSH2 0xFFFF DUP11 AND DUP4 MSTORE PUSH1 0x8 SWAP1 SWAP2 MSTORE PUSH1 0x40 SWAP1 SWAP2 KECCAK256 DUP1 SLOAD PUSH1 0x1 PUSH1 0x1 PUSH1 0xA0 SHL SUB SWAP1 SWAP3 AND SWAP3 POP DUP5 SWAP2 DUP9 SWAP1 DUP2 LT PUSH2 0x2E6F JUMPI PUSH2 0x2E6F PUSH2 0x5A42 JUMP JUMPDEST PUSH1 0x0 SWAP2 DUP3 MSTORE PUSH1 0x20 SWAP1 SWAP2 KECCAK256 PUSH1 0x5 SWAP1 SWAP2 MUL ADD PUSH1 0x3 ADD SLOAD PUSH1 0x40 MLOAD PUSH4 0x6EB1769F PUSH1 0xE1 SHL DUP2 MSTORE PUSH1 0x1 PUSH1 0x1 PUSH1 0xA0 SHL SUB DUP5 DUP2 AND PUSH1 0x4 DUP4 ADD MSTORE ADDRESS PUSH1 0x24 DUP4 ADD MSTORE SWAP1 SWAP2 AND SWAP1 PUSH4 0xDD62ED3E SWAP1 PUSH1 0x44 ADD PUSH1 0x20 PUSH1 0x40 MLOAD DUP1 DUP4 SUB DUP2 PUSH1 0x0 DUP8 DUP1 EXTCODESIZE ISZERO DUP1 ISZERO PUSH2 0x2ECD JUMPI PUSH1 0x0 DUP1 REVERT JUMPDEST POP GAS CALL ISZERO DUP1 ISZERO PUSH2 0x2EE1 JUMPI RETURNDATASIZE PUSH1 0x0 DUP1 RETURNDATACOPY RETURNDATASIZE PUSH1 0x0 REVERT JUMPDEST POP POP POP POP PUSH1 0x40 MLOAD RETURNDATASIZE PUSH1 0x1F NOT PUSH1 0x1F DUP3 ADD AND DUP3 ADD DUP1 PUSH1 0x40 MSTORE POP DUP2 ADD SWAP1 PUSH2 0x2F05 SWAP2 SWAP1 PUSH2 0x5AE9 JUMP JUMPDEST LT ISZERO DUP1 ISZERO PUSH2 0x2FC9 JUMPI POP DUP3 DUP5 PUSH1 0x1 PUSH1 0x1 PUSH1 0xA0 SHL SUB AND PUSH4 0x70A08231 PUSH1 0x9 PUSH1 0x0 DUP10 DUP2 MSTORE PUSH1 0x20 ADD SWAP1 DUP2 MSTORE PUSH1 0x20 ADD PUSH1 0x0 KECCAK256 DUP6 DUP2 SLOAD DUP2 LT PUSH2 0x2F42 JUMPI PUSH2 0x2F42 PUSH2 0x5A42 JUMP JUMPDEST PUSH1 0x0 SWAP2 DUP3 MSTORE PUSH1 0x20 SWAP1 SWAP2 KECCAK256 ADD SLOAD PUSH1 0x40 MLOAD PUSH1 0xE0 DUP4 SWAP1 SHL PUSH1 0x1 PUSH1 0x1 PUSH1 0xE0 SHL SUB NOT AND DUP2 MSTORE PUSH1 0x1 PUSH1 0x1 PUSH1 0xA0 SHL SUB SWAP1 SWAP2 AND PUSH1 0x4 DUP3 ADD MSTORE PUSH1 0x24 ADD PUSH1 0x20 PUSH1 0x40 MLOAD DUP1 DUP4 SUB DUP2 PUSH1 0x0 DUP8 DUP1 EXTCODESIZE ISZERO DUP1 ISZERO PUSH2 0x2F8F JUMPI PUSH1 0x0 DUP1 REVERT JUMPDEST POP GAS CALL ISZERO DUP1 ISZERO PUSH2 0x2FA3 JUMPI RETURNDATASIZE PUSH1 0x0 DUP1 RETURNDATACOPY RETURNDATASIZE PUSH1 0x0 REVERT JUMPDEST POP POP POP POP PUSH1 0x40 MLOAD RETURNDATASIZE PUSH1 0x1F NOT PUSH1 0x1F DUP3 ADD AND DUP3 ADD DUP1 PUSH1 0x40 MSTORE POP DUP2 ADD SWAP1 PUSH2 0x2FC7 SWAP2 SWAP1 PUSH2 0x5AE9 JUMP JUMPDEST LT JUMPDEST ISZERO PUSH2 0x303E JUMPI PUSH1 0x40 DUP1 MLOAD PUSH1 0x60 DUP2 ADD DUP3 MSTORE DUP7 DUP2 MSTORE PUSH5 0xFFFFFFFFFF TIMESTAMP DUP2 AND PUSH1 0x20 DUP1 DUP5 ADD SWAP2 DUP3 MSTORE PUSH1 0x0 DUP5 DUP7 ADD DUP2 DUP2 MSTORE PUSH1 0x1 PUSH1 0x1 PUSH1 0xA0 SHL SUB DUP9 AND DUP3 MSTORE PUSH1 0xA SWAP1 SWAP3 MSTORE SWAP5 SWAP1 SWAP5 KECCAK256 SWAP3 MLOAD DUP4 SSTORE MLOAD PUSH1 0x1 SWAP3 SWAP1 SWAP3 ADD DUP1 SLOAD SWAP4 MLOAD ISZERO ISZERO PUSH1 0x1 PUSH1 0x28 SHL MUL PUSH6 0xFFFFFFFFFFFF NOT SWAP1 SWAP5 AND SWAP3 SWAP1 SWAP2 AND SWAP2 SWAP1 SWAP2 OR SWAP2 SWAP1 SWAP2 OR SWAP1 SSTORE PUSH2 0x317D JUMP JUMPDEST PUSH1 0x40 DUP1 MLOAD PUSH1 0x60 DUP2 ADD DUP3 MSTORE DUP7 DUP2 MSTORE PUSH5 0xFFFFFFFFFF TIMESTAMP DUP2 AND PUSH1 0x20 DUP1 DUP5 ADD SWAP2 DUP3 MSTORE PUSH1 0x1 DUP5 DUP7 ADD DUP2 DUP2 MSTORE PUSH1 0x1 PUSH1 0x1 PUSH1 0xA0 SHL SUB DUP1 DUP10 AND PUSH1 0x0 SWAP1 DUP2 MSTORE PUSH1 0xA DUP6 MSTORE DUP9 DUP2 KECCAK256 SWAP8 MLOAD DUP9 SSTORE SWAP5 MLOAD SWAP7 SWAP1 SWAP3 ADD DUP1 SLOAD SWAP2 MLOAD ISZERO ISZERO PUSH1 0x1 PUSH1 0x28 SHL MUL PUSH6 0xFFFFFFFFFFFF NOT SWAP1 SWAP3 AND SWAP7 SWAP1 SWAP6 AND SWAP6 SWAP1 SWAP6 OR SWAP5 SWAP1 SWAP5 OR SWAP1 SWAP3 SSTORE PUSH2 0xFFFF DUP12 AND DUP2 MSTORE PUSH1 0x8 SWAP1 SWAP2 MSTORE SWAP2 SWAP1 SWAP2 KECCAK256 DUP1 SLOAD SWAP2 DUP7 AND SWAP2 PUSH4 0x23B872DD SWAP2 DUP5 SWAP2 DUP11 SWAP1 DUP2 LT PUSH2 0x30D9 JUMPI PUSH2 0x30D9 PUSH2 0x5A42 JUMP JUMPDEST PUSH1 0x0 SWAP2 DUP3 MSTORE PUSH1 0x20 SWAP1 SWAP2 KECCAK256 PUSH1 0x5 SWAP1 SWAP2 MUL ADD PUSH1 0x2 ADD SLOAD PUSH1 0x40 MLOAD PUSH1 0xE0 DUP5 SWAP1 SHL PUSH1 0x1 PUSH1 0x1 PUSH1 0xE0 SHL SUB NOT AND DUP2 MSTORE PUSH1 0x1 PUSH1 0x1 PUSH1 0xA0 SHL SUB SWAP3 DUP4 AND PUSH1 0x4 DUP3 ADD MSTORE SWAP2 AND PUSH1 0x24 DUP3 ADD MSTORE PUSH1 0x44 DUP2 ADD DUP7 SWAP1 MSTORE PUSH1 0x64 ADD PUSH1 0x20 PUSH1 0x40 MLOAD DUP1 DUP4 SUB DUP2 PUSH1 0x0 DUP8 DUP1 EXTCODESIZE ISZERO DUP1 ISZERO PUSH2 0x313C JUMPI PUSH1 0x0 DUP1 REVERT JUMPDEST POP GAS CALL ISZERO DUP1 ISZERO PUSH2 0x3150 JUMPI RETURNDATASIZE PUSH1 0x0 DUP1 RETURNDATACOPY RETURNDATASIZE PUSH1 0x0 REVERT JUMPDEST POP POP POP POP PUSH1 0x40 MLOAD RETURNDATASIZE PUSH1 0x1F NOT PUSH1 0x1F DUP3 ADD AND DUP3 ADD DUP1 PUSH1 0x40 MSTORE POP DUP2 ADD SWAP1 PUSH2 0x3174 SWAP2 SWAP1 PUSH2 0x5D28 JUMP JUMPDEST PUSH2 0x317D JUMPI PUSH1 0x0 DUP1 REVERT JUMPDEST POP DUP1 PUSH2 0x3188 DUP2 PUSH2 0x5A6E JUMP JUMPDEST SWAP2 POP POP PUSH2 0x2DF9 JUMP JUMPDEST POP POP POP POP JUMPDEST DUP1 PUSH2 0x319F DUP2 PUSH2 0x5A6E JUMP JUMPDEST SWAP2 POP POP PUSH2 0x2CDA JUMP JUMPDEST POP POP POP JUMP JUMPDEST PUSH2 0x31B4 PUSH2 0x39CA JUMP JUMPDEST PUSH2 0x31CA DUP2 CALLDATALOAD PUSH2 0x911 PUSH2 0x100 DUP5 ADD PUSH1 0xE0 DUP6 ADD PUSH2 0x5B1E JUMP JUMPDEST PUSH2 0x31FA JUMPI PUSH1 0x40 MLOAD PUSH3 0x461BCD PUSH1 0xE5 SHL DUP2 MSTORE PUSH1 0x20 PUSH1 0x4 DUP3 ADD MSTORE PUSH1 0x1 PUSH1 0x24 DUP3 ADD MSTORE PUSH1 0x37 PUSH1 0xF8 SHL PUSH1 0x44 DUP3 ADD MSTORE PUSH1 0x64 ADD PUSH2 0x3FB JUMP JUMPDEST DUP1 CALLDATALOAD PUSH1 0x0 SWAP1 DUP2 MSTORE PUSH1 0x9 PUSH1 0x20 SWAP1 DUP2 MSTORE PUSH1 0x40 DUP1 DUP4 KECCAK256 DUP1 SLOAD DUP3 MLOAD DUP2 DUP6 MUL DUP2 ADD DUP6 ADD SWAP1 SWAP4 MSTORE DUP1 DUP4 MSTORE SWAP2 SWAP3 SWAP1 SWAP2 SWAP1 DUP4 ADD DUP3 DUP3 DUP1 ISZERO PUSH2 0x325C JUMPI PUSH1 0x20 MUL DUP3 ADD SWAP2 SWAP1 PUSH1 0x0 MSTORE PUSH1 0x20 PUSH1 0x0 KECCAK256 SWAP1 JUMPDEST DUP2 SLOAD PUSH1 0x1 PUSH1 0x1 PUSH1 0xA0 SHL SUB AND DUP2 MSTORE PUSH1 0x1 SWAP1 SWAP2 ADD SWAP1 PUSH1 0x20 ADD DUP1 DUP4 GT PUSH2 0x323E JUMPI JUMPDEST POP POP POP POP POP SWAP1 POP PUSH1 0x0 JUMPDEST DUP2 MLOAD DUP2 LT ISZERO PUSH2 0x32A8 JUMPI PUSH2 0x3296 DUP4 PUSH1 0x0 ADD CALLDATALOAD DUP4 DUP4 DUP2 MLOAD DUP2 LT PUSH2 0x3289 JUMPI PUSH2 0x3289 PUSH2 0x5A42 JUMP JUMPDEST PUSH1 0x20 MUL PUSH1 0x20 ADD ADD MLOAD PUSH2 0x4FCD JUMP JUMPDEST DUP1 PUSH2 0x32A0 DUP2 PUSH2 0x5A6E JUMP JUMPDEST SWAP2 POP POP PUSH2 0x3266 JUMP JUMPDEST POP PUSH1 0x0 PUSH2 0x32BB PUSH1 0xE0 DUP5 ADD PUSH1 0xC0 DUP6 ADD PUSH2 0x5B39 JUMP JUMPDEST PUSH1 0x1 DUP2 GT ISZERO PUSH2 0x32CC JUMPI PUSH2 0x32CC PUSH2 0x567B JUMP JUMPDEST EQ ISZERO PUSH2 0x353D JUMPI PUSH1 0x0 PUSH1 0x7 DUP2 PUSH2 0x32E8 PUSH2 0x100 DUP7 ADD PUSH1 0xE0 DUP8 ADD PUSH2 0x5B1E JUMP JUMPDEST PUSH2 0xFFFF AND PUSH2 0xFFFF AND DUP2 MSTORE PUSH1 0x20 ADD SWAP1 DUP2 MSTORE PUSH1 0x20 ADD PUSH1 0x0 KECCAK256 DUP1 SLOAD DUP1 PUSH1 0x20 MUL PUSH1 0x20 ADD PUSH1 0x40 MLOAD SWAP1 DUP2 ADD PUSH1 0x40 MSTORE DUP1 SWAP3 SWAP2 SWAP1 DUP2 DUP2 MSTORE PUSH1 0x20 ADD PUSH1 0x0 SWAP1 JUMPDEST DUP3 DUP3 LT ISZERO PUSH2 0x3486 JUMPI PUSH1 0x0 DUP5 DUP2 MSTORE PUSH1 0x20 SWAP1 DUP2 SWAP1 KECCAK256 PUSH1 0x40 DUP1 MLOAD PUSH2 0x120 DUP2 ADD DUP3 MSTORE PUSH1 0x5 DUP7 MUL SWAP1 SWAP3 ADD DUP1 SLOAD DUP4 MSTORE PUSH1 0x1 DUP1 DUP3 ADD SLOAD SWAP5 DUP5 ADD SWAP5 SWAP1 SWAP5 MSTORE PUSH1 0x2 DUP2 ADD SLOAD PUSH1 0x1 PUSH1 0x1 PUSH1 0xA0 SHL SUB DUP1 DUP3 AND SWAP4 DUP6 ADD SWAP4 SWAP1 SWAP4 MSTORE PUSH1 0x1 PUSH1 0xA0 SHL DUP1 DUP3 DIV PUSH1 0xFF SWAP1 DUP2 AND ISZERO ISZERO PUSH1 0x60 DUP8 ADD MSTORE PUSH1 0x1 PUSH1 0xA8 SHL SWAP1 SWAP3 DIV DUP3 AND ISZERO ISZERO PUSH1 0x80 DUP7 ADD MSTORE PUSH1 0x3 DUP4 ADD SLOAD SWAP4 DUP5 AND PUSH1 0xA0 DUP7 ADD MSTORE SWAP4 SWAP5 SWAP2 SWAP4 PUSH1 0xC0 DUP7 ADD SWAP4 DIV AND SWAP1 DUP2 GT ISZERO PUSH2 0x33B8 JUMPI PUSH2 0x33B8 PUSH2 0x567B JUMP JUMPDEST PUSH1 0x1 DUP2 GT ISZERO PUSH2 0x33C9 JUMPI PUSH2 0x33C9 PUSH2 0x567B JUMP JUMPDEST DUP2 MSTORE PUSH1 0x3 DUP3 ADD SLOAD PUSH1 0x1 PUSH1 0xA8 SHL SWAP1 DIV PUSH2 0xFFFF AND PUSH1 0x20 DUP3 ADD MSTORE PUSH1 0x4 DUP3 ADD DUP1 SLOAD PUSH1 0x40 SWAP1 SWAP3 ADD SWAP2 PUSH2 0x33F5 SWAP1 PUSH2 0x5D4A JUMP JUMPDEST DUP1 PUSH1 0x1F ADD PUSH1 0x20 DUP1 SWAP2 DIV MUL PUSH1 0x20 ADD PUSH1 0x40 MLOAD SWAP1 DUP2 ADD PUSH1 0x40 MSTORE DUP1 SWAP3 SWAP2 SWAP1 DUP2 DUP2 MSTORE PUSH1 0x20 ADD DUP3 DUP1 SLOAD PUSH2 0x3421 SWAP1 PUSH2 0x5D4A JUMP JUMPDEST DUP1 ISZERO PUSH2 0x346E JUMPI DUP1 PUSH1 0x1F LT PUSH2 0x3443 JUMPI PUSH2 0x100 DUP1 DUP4 SLOAD DIV MUL DUP4 MSTORE SWAP2 PUSH1 0x20 ADD SWAP2 PUSH2 0x346E JUMP JUMPDEST DUP3 ADD SWAP2 SWAP1 PUSH1 0x0 MSTORE PUSH1 0x20 PUSH1 0x0 KECCAK256 SWAP1 JUMPDEST DUP2 SLOAD DUP2 MSTORE SWAP1 PUSH1 0x1 ADD SWAP1 PUSH1 0x20 ADD DUP1 DUP4 GT PUSH2 0x3451 JUMPI DUP3 SWAP1 SUB PUSH1 0x1F AND DUP3 ADD SWAP2 JUMPDEST POP POP POP POP POP DUP2 MSTORE POP POP DUP2 MSTORE PUSH1 0x20 ADD SWAP1 PUSH1 0x1 ADD SWAP1 PUSH2 0x331E JUMP JUMPDEST POP POP POP POP SWAP1 POP PUSH1 0x0 JUMPDEST DUP3 MLOAD DUP2 LT ISZERO PUSH2 0x353A JUMPI DUP4 PUSH1 0x0 ADD CALLDATALOAD DUP3 DUP3 DUP2 MLOAD DUP2 LT PUSH2 0x34AF JUMPI PUSH2 0x34AF PUSH2 0x5A42 JUMP JUMPDEST PUSH1 0x20 MUL PUSH1 0x20 ADD ADD MLOAD PUSH1 0x0 ADD MLOAD EQ ISZERO PUSH2 0x3528 JUMPI PUSH1 0x1 PUSH1 0x7 PUSH1 0x0 PUSH2 0x34D8 PUSH2 0x100 DUP9 ADD PUSH1 0xE0 DUP10 ADD PUSH2 0x5B1E JUMP JUMPDEST PUSH2 0xFFFF AND PUSH2 0xFFFF AND DUP2 MSTORE PUSH1 0x20 ADD SWAP1 DUP2 MSTORE PUSH1 0x20 ADD PUSH1 0x0 KECCAK256 DUP3 DUP2 SLOAD DUP2 LT PUSH2 0x34FF JUMPI PUSH2 0x34FF PUSH2 0x5A42 JUMP JUMPDEST SWAP1 PUSH1 0x0 MSTORE PUSH1 0x20 PUSH1 0x0 KECCAK256 SWAP1 PUSH1 0x5 MUL ADD PUSH1 0x2 ADD PUSH1 0x15 PUSH2 0x100 EXP DUP2 SLOAD DUP2 PUSH1 0xFF MUL NOT AND SWAP1 DUP4 ISZERO ISZERO MUL OR SWAP1 SSTORE POP JUMPDEST DUP1 PUSH2 0x3532 DUP2 PUSH2 0x5A6E JUMP JUMPDEST SWAP2 POP POP PUSH2 0x348F JUMP JUMPDEST POP POP JUMPDEST PUSH1 0x1 PUSH2 0x354F PUSH1 0xE0 DUP5 ADD PUSH1 0xC0 DUP6 ADD PUSH2 0x5B39 JUMP JUMPDEST PUSH1 0x1 DUP2 GT ISZERO PUSH2 0x3560 JUMPI PUSH2 0x3560 PUSH2 0x567B JUMP JUMPDEST EQ ISZERO PUSH2 0x37CE JUMPI PUSH1 0x0 PUSH1 0x8 DUP2 PUSH2 0x357C PUSH2 0x100 DUP7 ADD PUSH1 0xE0 DUP8 ADD PUSH2 0x5B1E JUMP JUMPDEST PUSH2 0xFFFF AND PUSH2 0xFFFF AND DUP2 MSTORE PUSH1 0x20 ADD SWAP1 DUP2 MSTORE PUSH1 0x20 ADD PUSH1 0x0 KECCAK256 DUP1 SLOAD DUP1 PUSH1 0x20 MUL PUSH1 0x20 ADD PUSH1 0x40 MLOAD SWAP1 DUP2 ADD PUSH1 0x40 MSTORE DUP1 SWAP3 SWAP2 SWAP1 DUP2 DUP2 MSTORE PUSH1 0x20 ADD PUSH1 0x0 SWAP1 JUMPDEST DUP3 DUP3 LT ISZERO PUSH2 0x371A JUMPI PUSH1 0x0 DUP5 DUP2 MSTORE PUSH1 0x20 SWAP1 DUP2 SWAP1 KECCAK256 PUSH1 0x40 DUP1 MLOAD PUSH2 0x120 DUP2 ADD DUP3 MSTORE PUSH1 0x5 DUP7 MUL SWAP1 SWAP3 ADD DUP1 SLOAD DUP4 MSTORE PUSH1 0x1 DUP1 DUP3 ADD SLOAD SWAP5 DUP5 ADD SWAP5 SWAP1 SWAP5 MSTORE PUSH1 0x2 DUP2 ADD SLOAD PUSH1 0x1 PUSH1 0x1 PUSH1 0xA0 SHL SUB DUP1 DUP3 AND SWAP4 DUP6 ADD SWAP4 SWAP1 SWAP4 MSTORE PUSH1 0x1 PUSH1 0xA0 SHL DUP1 DUP3 DIV PUSH1 0xFF SWAP1 DUP2 AND ISZERO ISZERO PUSH1 0x60 DUP8 ADD MSTORE PUSH1 0x1 PUSH1 0xA8 SHL SWAP1 SWAP3 DIV DUP3 AND ISZERO ISZERO PUSH1 0x80 DUP7 ADD MSTORE PUSH1 0x3 DUP4 ADD SLOAD SWAP4 DUP5 AND PUSH1 0xA0 DUP7 ADD MSTORE SWAP4 SWAP5 SWAP2 SWAP4 PUSH1 0xC0 DUP7 ADD SWAP4 DIV AND SWAP1 DUP2 GT ISZERO PUSH2 0x364C JUMPI PUSH2 0x364C PUSH2 0x567B JUMP JUMPDEST PUSH1 0x1 DUP2 GT ISZERO PUSH2 0x365D JUMPI PUSH2 0x365D PUSH2 0x567B JUMP JUMPDEST DUP2 MSTORE PUSH1 0x3 DUP3 ADD SLOAD PUSH1 0x1 PUSH1 0xA8 SHL SWAP1 DIV PUSH2 0xFFFF AND PUSH1 0x20 DUP3 ADD MSTORE PUSH1 0x4 DUP3 ADD DUP1 SLOAD PUSH1 0x40 SWAP1 SWAP3 ADD SWAP2 PUSH2 0x3689 SWAP1 PUSH2 0x5D4A JUMP JUMPDEST DUP1 PUSH1 0x1F ADD PUSH1 0x20 DUP1 SWAP2 DIV MUL PUSH1 0x20 ADD PUSH1 0x40 MLOAD SWAP1 DUP2 ADD PUSH1 0x40 MSTORE DUP1 SWAP3 SWAP2 SWAP1 DUP2 DUP2 MSTORE PUSH1 0x20 ADD DUP3 DUP1 SLOAD PUSH2 0x36B5 SWAP1 PUSH2 0x5D4A JUMP JUMPDEST DUP1 ISZERO PUSH2 0x3702 JUMPI DUP1 PUSH1 0x1F LT PUSH2 0x36D7 JUMPI PUSH2 0x100 DUP1 DUP4 SLOAD DIV MUL DUP4 MSTORE SWAP2 PUSH1 0x20 ADD SWAP2 PUSH2 0x3702 JUMP JUMPDEST DUP3 ADD SWAP2 SWAP1 PUSH1 0x0 MSTORE PUSH1 0x20 PUSH1 0x0 KECCAK256 SWAP1 JUMPDEST DUP2 SLOAD DUP2 MSTORE SWAP1 PUSH1 0x1 ADD SWAP1 PUSH1 0x20 ADD DUP1 DUP4 GT PUSH2 0x36E5 JUMPI DUP3 SWAP1 SUB PUSH1 0x1F AND DUP3 ADD SWAP2 JUMPDEST POP POP POP POP POP DUP2 MSTORE POP POP DUP2 MSTORE PUSH1 0x20 ADD SWAP1 PUSH1 0x1 ADD SWAP1 PUSH2 0x35B2 JUMP JUMPDEST POP POP POP POP SWAP1 POP PUSH1 0x0 JUMPDEST DUP3 MLOAD DUP2 LT ISZERO PUSH2 0x12E5 JUMPI DUP4 PUSH1 0x0 ADD CALLDATALOAD DUP3 DUP3 DUP2 MLOAD DUP2 LT PUSH2 0x3743 JUMPI PUSH2 0x3743 PUSH2 0x5A42 JUMP JUMPDEST PUSH1 0x20 MUL PUSH1 0x20 ADD ADD MLOAD PUSH1 0x0 ADD MLOAD EQ ISZERO PUSH2 0x37BC JUMPI PUSH1 0x1 PUSH1 0x8 PUSH1 0x0 PUSH2 0x376C PUSH2 0x100 DUP9 ADD PUSH1 0xE0 DUP10 ADD PUSH2 0x5B1E JUMP JUMPDEST PUSH2 0xFFFF AND PUSH2 0xFFFF AND DUP2 MSTORE PUSH1 0x20 ADD SWAP1 DUP2 MSTORE PUSH1 0x20 ADD PUSH1 0x0 KECCAK256 DUP3 DUP2 SLOAD DUP2 LT PUSH2 0x3793 JUMPI PUSH2 0x3793 PUSH2 0x5A42 JUMP JUMPDEST SWAP1 PUSH1 0x0 MSTORE PUSH1 0x20 PUSH1 0x0 KECCAK256 SWAP1 PUSH1 0x5 MUL ADD PUSH1 0x2 ADD PUSH1 0x15 PUSH2 0x100 EXP DUP2 SLOAD DUP2 PUSH1 0xFF MUL NOT AND SWAP1 DUP4 ISZERO ISZERO MUL OR SWAP1 SSTORE POP JUMPDEST DUP1 PUSH2 0x37C6 DUP2 PUSH2 0x5A6E JUMP JUMPDEST SWAP2 POP POP PUSH2 0x3723 JUMP JUMPDEST POP POP JUMP JUMPDEST PUSH1 0x0 PUSH2 0x37DC PUSH2 0x38C9 JUMP JUMPDEST PUSH1 0x0 PUSH2 0x37E7 TIMESTAMP PUSH2 0x39FB JUMP JUMPDEST PUSH1 0xE SLOAD SWAP1 SWAP2 POP PUSH5 0xFFFFFFFFFF PUSH2 0x100 SWAP1 SWAP2 DIV DUP2 AND SWAP1 DUP3 AND GT PUSH2 0x3830 JUMPI PUSH1 0x40 MLOAD PUSH3 0x461BCD PUSH1 0xE5 SHL DUP2 MSTORE PUSH1 0x20 PUSH1 0x4 DUP3 ADD MSTORE PUSH1 0x2 PUSH1 0x24 DUP3 ADD MSTORE PUSH2 0xC4D PUSH1 0xF2 SHL PUSH1 0x44 DUP3 ADD MSTORE PUSH1 0x64 ADD PUSH2 0x3FB JUMP JUMPDEST PUSH1 0xE SLOAD PUSH2 0x100 SWAP1 DIV PUSH5 0xFFFFFFFFFF AND JUMPDEST DUP2 PUSH5 0xFFFFFFFFFF AND DUP2 PUSH5 0xFFFFFFFFFF AND GT PUSH2 0x388C JUMPI PUSH5 0xFFFFFFFFFF DUP2 AND PUSH1 0x0 SWAP1 DUP2 MSTORE PUSH1 0x5 PUSH1 0x20 MSTORE PUSH1 0x40 SWAP1 KECCAK256 SLOAD ISZERO PUSH2 0x387A JUMPI PUSH1 0x1 SWAP3 POP POP POP SWAP1 JUMP JUMPDEST DUP1 PUSH2 0x3884 DUP2 PUSH2 0x5CEB JUMP JUMPDEST SWAP2 POP POP PUSH2 0x3840 JUMP JUMPDEST POP PUSH1 0x0 SWAP2 POP POP SWAP1 JUMP JUMPDEST PUSH2 0x389D PUSH2 0x39CA JUMP JUMPDEST CALLVALUE PUSH1 0x2 SLOAD GT ISZERO PUSH2 0x38BF JUMPI PUSH1 0x40 MLOAD PUSH3 0x461BCD PUSH1 0xE5 SHL DUP2 MSTORE PUSH1 0x4 ADD PUSH2 0x3FB SWAP1 PUSH2 0x5ACE JUMP JUMPDEST PUSH2 0x9DF DUP2 CALLER PUSH2 0x4FCD JUMP JUMPDEST PUSH1 0x0 SLOAD PUSH1 0x1 PUSH1 0x1 PUSH1 0xA0 SHL SUB AND CALLER EQ PUSH2 0x3907 JUMPI PUSH1 0x40 MLOAD PUSH3 0x461BCD PUSH1 0xE5 SHL DUP2 MSTORE PUSH1 0x20 PUSH1 0x4 DUP3 ADD MSTORE PUSH1 0x1 PUSH1 0x24 DUP3 ADD MSTORE PUSH1 0x3 PUSH1 0xFC SHL PUSH1 0x44 DUP3 ADD MSTORE PUSH1 0x64 ADD PUSH2 0x3FB JUMP JUMPDEST JUMP JUMPDEST PUSH1 0x0 DUP1 PUSH1 0xD DUP1 SLOAD DUP1 PUSH1 0x20 MUL PUSH1 0x20 ADD PUSH1 0x40 MLOAD SWAP1 DUP2 ADD PUSH1 0x40 MSTORE DUP1 SWAP3 SWAP2 SWAP1 DUP2 DUP2 MSTORE PUSH1 0x20 ADD DUP3 DUP1 SLOAD DUP1 ISZERO PUSH2 0x3962 JUMPI PUSH1 0x20 MUL DUP3 ADD SWAP2 SWAP1 PUSH1 0x0 MSTORE PUSH1 0x20 PUSH1 0x0 KECCAK256 SWAP1 JUMPDEST DUP2 SLOAD PUSH1 0x1 PUSH1 0x1 PUSH1 0xA0 SHL SUB AND DUP2 MSTORE PUSH1 0x1 SWAP1 SWAP2 ADD SWAP1 PUSH1 0x20 ADD DUP1 DUP4 GT PUSH2 0x3944 JUMPI JUMPDEST POP POP POP POP POP SWAP1 POP PUSH1 0x0 SWAP2 POP PUSH1 0x0 JUMPDEST DUP2 MLOAD DUP2 LT ISZERO PUSH2 0x39C3 JUMPI DUP2 DUP2 DUP2 MLOAD DUP2 LT PUSH2 0x398B JUMPI PUSH2 0x398B PUSH2 0x5A42 JUMP JUMPDEST PUSH1 0x20 MUL PUSH1 0x20 ADD ADD MLOAD PUSH1 0x1 PUSH1 0x1 PUSH1 0xA0 SHL SUB AND DUP5 PUSH1 0x1 PUSH1 0x1 PUSH1 0xA0 SHL SUB AND EQ ISZERO PUSH2 0x39B1 JUMPI PUSH1 0x1 SWAP3 POP JUMPDEST DUP1 PUSH2 0x39BB DUP2 PUSH2 0x5A6E JUMP JUMPDEST SWAP2 POP POP PUSH2 0x3970 JUMP JUMPDEST POP POP SWAP2 SWAP1 POP JUMP JUMPDEST CALLER PUSH2 0x3907 JUMPI PUSH1 0x40 MLOAD PUSH3 0x461BCD PUSH1 0xE5 SHL DUP2 MSTORE PUSH1 0x20 PUSH1 0x4 DUP3 ADD MSTORE PUSH1 0x1 PUSH1 0x24 DUP3 ADD MSTORE PUSH1 0x33 PUSH1 0xF8 SHL PUSH1 0x44 DUP3 ADD MSTORE PUSH1 0x64 ADD PUSH2 0x3FB JUMP JUMPDEST PUSH1 0x0 PUSH2 0x3A09 PUSH2 0xE10 DUP4 PUSH2 0x5D85 JUMP JUMPDEST SWAP3 SWAP2 POP POP JUMP JUMPDEST PUSH5 0xFFFFFFFFFF DUP2 AND PUSH1 0x0 SWAP1 DUP2 MSTORE PUSH1 0x5 PUSH1 0x20 MSTORE PUSH1 0x40 SWAP1 KECCAK256 SLOAD PUSH1 0x1 EQ ISZERO PUSH2 0x3A56 JUMPI PUSH5 0xFFFFFFFFFF DUP2 AND PUSH1 0x0 SWAP1 DUP2 MSTORE PUSH1 0x5 PUSH1 0x20 MSTORE PUSH1 0x40 DUP2 KECCAK256 PUSH2 0x3A4D SWAP2 PUSH2 0x542B JUMP JUMPDEST PUSH2 0x37CE DUP2 PUSH2 0x5113 JUMP JUMPDEST PUSH5 0xFFFFFFFFFF DUP2 AND PUSH1 0x0 SWAP1 DUP2 MSTORE PUSH1 0x5 PUSH1 0x20 MSTORE PUSH1 0x40 DUP2 KECCAK256 SWAP1 DUP1 DUP1 JUMPDEST DUP4 SLOAD DUP2 LT ISZERO PUSH2 0x3B61 JUMPI CALLER PUSH1 0x1 PUSH1 0x1 PUSH1 0xA0 SHL SUB AND DUP5 DUP3 DUP2 SLOAD DUP2 LT PUSH2 0x3A95 JUMPI PUSH2 0x3A95 PUSH2 0x5A42 JUMP JUMPDEST PUSH1 0x0 SWAP2 DUP3 MSTORE PUSH1 0x20 SWAP1 SWAP2 KECCAK256 PUSH1 0x1 PUSH1 0x5 SWAP1 SWAP3 MUL ADD ADD SLOAD PUSH1 0x1 PUSH1 0x1 PUSH1 0xA0 SHL SUB AND EQ ISZERO PUSH2 0x3AC6 JUMPI DUP2 PUSH2 0x3AC2 DUP2 PUSH2 0x5A6E JUMP JUMPDEST SWAP3 POP POP JUMPDEST DUP6 DUP5 DUP3 DUP2 SLOAD DUP2 LT PUSH2 0x3AD9 JUMPI PUSH2 0x3AD9 PUSH2 0x5A42 JUMP JUMPDEST SWAP1 PUSH1 0x0 MSTORE PUSH1 0x20 PUSH1 0x0 KECCAK256 SWAP1 PUSH1 0x5 MUL ADD PUSH1 0x0 ADD SLOAD EQ ISZERO PUSH2 0x3B4F JUMPI DUP1 SWAP3 POP DUP4 DUP2 DUP2 SLOAD DUP2 LT PUSH2 0x3B06 JUMPI PUSH2 0x3B06 PUSH2 0x5A42 JUMP JUMPDEST PUSH1 0x0 SWAP2 DUP3 MSTORE PUSH1 0x20 DUP3 KECCAK256 PUSH1 0x5 SWAP1 SWAP2 MUL ADD DUP2 DUP2 SSTORE PUSH1 0x1 DUP2 ADD DUP1 SLOAD PUSH1 0x1 PUSH1 0x1 PUSH1 0xA0 SHL SUB NOT SWAP1 DUP2 AND SWAP1 SWAP2 SSTORE PUSH1 0x2 DUP3 ADD DUP1 SLOAD SWAP1 SWAP2 AND SWAP1 SSTORE PUSH1 0x3 DUP2 ADD DUP1 SLOAD PUSH1 0x1 PUSH1 0x1 PUSH1 0xD0 SHL SUB NOT AND SWAP1 SSTORE PUSH1 0x4 ADD SSTORE JUMPDEST DUP1 PUSH2 0x3B59 DUP2 PUSH2 0x5A6E JUMP JUMPDEST SWAP2 POP POP PUSH2 0x3A70 JUMP JUMPDEST POP DUP3 SLOAD DUP4 SWAP1 PUSH2 0x3B72 SWAP1 PUSH1 0x1 SWAP1 PUSH2 0x5A89 JUMP JUMPDEST DUP2 SLOAD DUP2 LT PUSH2 0x3B82 JUMPI PUSH2 0x3B82 PUSH2 0x5A42 JUMP JUMPDEST SWAP1 PUSH1 0x0 MSTORE PUSH1 0x20 PUSH1 0x0 KECCAK256 SWAP1 PUSH1 0x5 MUL ADD DUP4 DUP4 DUP2 SLOAD DUP2 LT PUSH2 0x3BA2 JUMPI PUSH2 0x3BA2 PUSH2 0x5A42 JUMP JUMPDEST PUSH1 0x0 SWAP2 DUP3 MSTORE PUSH1 0x20 SWAP1 SWAP2 KECCAK256 DUP3 SLOAD PUSH1 0x5 SWAP1 SWAP3 MUL ADD SWAP1 DUP2 SSTORE PUSH1 0x1 DUP1 DUP4 ADD SLOAD SWAP1 DUP3 ADD DUP1 SLOAD PUSH1 0x1 PUSH1 0x1 PUSH1 0xA0 SHL SUB NOT SWAP1 DUP2 AND PUSH1 0x1 PUSH1 0x1 PUSH1 0xA0 SHL SUB SWAP4 DUP5 AND OR SWAP1 SWAP2 SSTORE PUSH1 0x2 DUP1 DUP6 ADD SLOAD SWAP1 DUP5 ADD DUP1 SLOAD DUP4 AND SWAP2 DUP5 AND SWAP2 SWAP1 SWAP2 OR SWAP1 SSTORE PUSH1 0x3 DUP1 DUP6 ADD DUP1 SLOAD DUP3 DUP7 ADD DUP1 SLOAD SWAP5 DUP6 AND SWAP2 SWAP1 SWAP6 AND SWAP1 DUP2 OR DUP6 SSTORE DUP2 SLOAD PUSH5 0xFFFFFFFFFF PUSH1 0x1 PUSH1 0xA0 SHL SWAP2 DUP3 SWAP1 DIV AND MUL PUSH1 0x1 PUSH1 0x1 PUSH1 0xC8 SHL SUB NOT SWAP1 SWAP5 AND OR SWAP3 SWAP1 SWAP3 OR DUP1 DUP5 SSTORE SWAP2 SLOAD PUSH1 0xFF PUSH1 0x1 PUSH1 0xC8 SHL SWAP2 DUP3 SWAP1 DIV AND SWAP4 SWAP3 PUSH1 0xFF PUSH1 0xC8 SHL NOT AND SWAP2 DUP5 SWAP1 DUP2 GT ISZERO PUSH2 0x3C5B JUMPI PUSH2 0x3C5B PUSH2 0x567B JUMP JUMPDEST MUL OR SWAP1 SSTORE POP PUSH1 0x4 SWAP2 DUP3 ADD SLOAD SWAP2 ADD SSTORE DUP3 SLOAD DUP4 SWAP1 DUP1 PUSH2 0x3C7A JUMPI PUSH2 0x3C7A PUSH2 0x5AB8 JUMP JUMPDEST PUSH1 0x0 DUP3 DUP2 MSTORE PUSH1 0x20 DUP2 KECCAK256 PUSH1 0x5 PUSH1 0x0 NOT SWAP1 SWAP4 ADD SWAP3 DUP4 MUL ADD DUP2 DUP2 SSTORE PUSH1 0x1 DUP2 DUP2 ADD DUP1 SLOAD PUSH1 0x1 PUSH1 0x1 PUSH1 0xA0 SHL SUB NOT SWAP1 DUP2 AND SWAP1 SWAP2 SSTORE PUSH1 0x2 DUP4 ADD DUP1 SLOAD SWAP1 SWAP2 AND SWAP1 SSTORE PUSH1 0x3 DUP3 ADD DUP1 SLOAD PUSH1 0x1 PUSH1 0x1 PUSH1 0xD0 SHL SUB NOT AND SWAP1 SSTORE PUSH1 0x4 SWAP1 SWAP2 ADD SWAP2 SWAP1 SWAP2 SSTORE SWAP2 SSTORE DUP2 EQ ISZERO PUSH2 0x3CE0 JUMPI PUSH2 0x3CE0 DUP5 PUSH2 0x5113 JUMP JUMPDEST PUSH1 0x0 DUP1 JUMPDEST PUSH1 0x6 SLOAD DUP2 LT ISZERO PUSH2 0x3D2D JUMPI DUP7 PUSH1 0x6 DUP3 DUP2 SLOAD DUP2 LT PUSH2 0x3D02 JUMPI PUSH2 0x3D02 PUSH2 0x5A42 JUMP JUMPDEST SWAP1 PUSH1 0x0 MSTORE PUSH1 0x20 PUSH1 0x0 KECCAK256 ADD SLOAD EQ ISZERO PUSH2 0x3D1B JUMPI DUP1 SWAP2 POP PUSH2 0x3D2D JUMP JUMPDEST DUP1 PUSH2 0x3D25 DUP2 PUSH2 0x5A6E JUMP JUMPDEST SWAP2 POP POP PUSH2 0x3CE4 JUMP JUMPDEST POP PUSH1 0x6 DUP1 SLOAD PUSH2 0x3D3E SWAP1 PUSH1 0x1 SWAP1 PUSH2 0x5A89 JUMP JUMPDEST DUP2 SLOAD DUP2 LT PUSH2 0x3D4E JUMPI PUSH2 0x3D4E PUSH2 0x5A42 JUMP JUMPDEST SWAP1 PUSH1 0x0 MSTORE PUSH1 0x20 PUSH1 0x0 KECCAK256 ADD SLOAD PUSH1 0x6 DUP3 DUP2 SLOAD DUP2 LT PUSH2 0x3D6C JUMPI PUSH2 0x3D6C PUSH2 0x5A42 JUMP JUMPDEST PUSH1 0x0 SWAP2 DUP3 MSTORE PUSH1 0x20 SWAP1 SWAP2 KECCAK256 ADD SSTORE PUSH1 0x6 DUP1 SLOAD DUP1 PUSH2 0x3D89 JUMPI PUSH2 0x3D89 PUSH2 0x5AB8 JUMP JUMPDEST PUSH1 0x1 SWAP1 SUB DUP2 DUP2 SWAP1 PUSH1 0x0 MSTORE PUSH1 0x20 PUSH1 0x0 KECCAK256 ADD PUSH1 0x0 SWAP1 SSTORE SWAP1 SSTORE POP POP POP POP POP POP JUMP JUMPDEST PUSH1 0x0 DUP1 PUSH1 0x40 MLOAD DUP1 PUSH1 0x60 ADD PUSH1 0x40 MSTORE DUP1 DUP7 DUP2 MSTORE PUSH1 0x20 ADD DUP6 PUSH2 0xFFFF AND DUP2 MSTORE PUSH1 0x20 ADD DUP5 PUSH1 0x1 DUP2 GT ISZERO PUSH2 0x3DD7 JUMPI PUSH2 0x3DD7 PUSH2 0x567B JUMP JUMPDEST SWAP1 MSTORE SWAP1 POP PUSH1 0x0 PUSH2 0x3DE6 DUP3 PUSH2 0x3FCA JUMP JUMPDEST SWAP1 POP DUP1 PUSH1 0x60 ADD MLOAD ISZERO PUSH2 0x3DFD JUMPI PUSH1 0x1 SWAP3 POP POP POP PUSH2 0x3E04 JUMP JUMPDEST PUSH1 0x0 SWAP3 POP POP POP JUMPDEST SWAP4 SWAP3 POP POP POP JUMP JUMPDEST CALLER PUSH1 0x0 SWAP1 DUP2 MSTORE PUSH1 0x3 PUSH1 0x20 MSTORE PUSH1 0x40 SWAP1 KECCAK256 SLOAD PUSH1 0x1 PUSH1 0xA0 SHL SWAP1 DIV PUSH1 0xFF AND PUSH2 0x3E95 JUMPI CALLER PUSH1 0x0 DUP2 DUP2 MSTORE PUSH1 0x3 PUSH1 0x20 MSTORE PUSH1 0x40 DUP2 KECCAK256 DUP1 SLOAD PUSH1 0x1 PUSH1 0x1 PUSH1 0xA0 SHL SUB NOT SWAP1 DUP2 AND DUP5 OR DUP3 SSTORE PUSH1 0x4 DUP1 SLOAD PUSH1 0x1 DUP2 ADD SWAP1 SWAP2 SSTORE PUSH32 0x8A35ACFBC15FF81A39AE7D344FD709F28E8600B4AA8C65C6B64BFE7FE36BD19B ADD DUP1 SLOAD SWAP1 SWAP2 AND DUP5 OR SWAP1 SSTORE SWAP2 SWAP1 MSTORE DUP1 SLOAD PUSH1 0xFF PUSH1 0xA0 SHL NOT AND PUSH1 0x1 PUSH1 0xA0 SHL OR SWAP1 SSTORE JUMPDEST CALLER PUSH1 0x0 SWAP1 DUP2 MSTORE PUSH1 0x3 PUSH1 0x20 SWAP1 DUP2 MSTORE PUSH1 0x40 DUP1 DUP4 KECCAK256 PUSH1 0x2 SWAP1 DUP2 ADD DUP1 SLOAD PUSH1 0x1 DUP2 DUP2 ADD DUP4 SSTORE SWAP2 DUP7 MSTORE SWAP5 DUP5 SWAP1 KECCAK256 DUP7 MLOAD SWAP6 SWAP1 SWAP3 MUL SWAP1 SWAP2 ADD SWAP4 DUP5 SSTORE SWAP2 DUP5 ADD MLOAD DUP4 DUP4 ADD DUP1 SLOAD PUSH2 0xFFFF SWAP1 SWAP3 AND PUSH2 0xFFFF NOT DUP4 AND DUP2 OR DUP3 SSTORE SWAP3 DUP7 ADD MLOAD DUP7 SWAP6 SWAP5 SWAP1 SWAP4 SWAP2 SWAP3 PUSH3 0xFFFFFF NOT AND SWAP1 SWAP2 OR SWAP1 PUSH3 0x10000 SWAP1 DUP5 SWAP1 DUP2 GT ISZERO PUSH2 0x3F0C JUMPI PUSH2 0x3F0C PUSH2 0x567B JUMP JUMPDEST MUL OR SWAP1 SSTORE POP POP POP POP JUMP JUMPDEST PUSH2 0x3F1E PUSH2 0x53DF JUMP JUMPDEST PUSH1 0x0 CALLER DUP7 DUP5 DUP8 TIMESTAMP PUSH1 0x40 MLOAD PUSH1 0x20 ADD PUSH2 0x3F39 SWAP6 SWAP5 SWAP4 SWAP3 SWAP2 SWAP1 PUSH2 0x5DA9 JUMP JUMPDEST PUSH1 0x40 MLOAD PUSH1 0x20 DUP2 DUP4 SUB SUB DUP2 MSTORE SWAP1 PUSH1 0x40 MSTORE DUP1 MLOAD SWAP1 PUSH1 0x20 ADD KECCAK256 SWAP1 POP PUSH1 0x40 MLOAD DUP1 PUSH2 0x120 ADD PUSH1 0x40 MSTORE DUP1 DUP3 DUP2 MSTORE PUSH1 0x20 ADD DUP9 DUP2 MSTORE PUSH1 0x20 ADD CALLER PUSH1 0x1 PUSH1 0x1 PUSH1 0xA0 SHL SUB AND DUP2 MSTORE PUSH1 0x20 ADD PUSH1 0x1 ISZERO ISZERO DUP2 MSTORE PUSH1 0x20 ADD PUSH1 0x0 ISZERO ISZERO DUP2 MSTORE PUSH1 0x20 ADD DUP8 PUSH1 0x1 PUSH1 0x1 PUSH1 0xA0 SHL SUB AND DUP2 MSTORE PUSH1 0x20 ADD DUP6 PUSH1 0x1 DUP2 GT ISZERO PUSH2 0x3FAB JUMPI PUSH2 0x3FAB PUSH2 0x567B JUMP JUMPDEST DUP2 MSTORE PUSH1 0x20 ADD DUP5 PUSH2 0xFFFF AND DUP2 MSTORE PUSH1 0x20 ADD DUP7 DUP2 MSTORE POP SWAP2 POP POP SWAP6 SWAP5 POP POP POP POP POP JUMP JUMPDEST PUSH2 0x3FD2 PUSH2 0x53DF JUMP JUMPDEST PUSH1 0x0 DUP3 PUSH1 0x40 ADD MLOAD PUSH1 0x1 DUP2 GT ISZERO PUSH2 0x3FEA JUMPI PUSH2 0x3FEA PUSH2 0x567B JUMP JUMPDEST EQ ISZERO PUSH2 0x41F9 JUMPI PUSH1 0x20 DUP1 DUP4 ADD MLOAD PUSH2 0xFFFF AND PUSH1 0x0 SWAP1 DUP2 MSTORE PUSH1 0x7 DUP3 MSTORE PUSH1 0x40 DUP1 DUP3 KECCAK256 DUP1 SLOAD DUP3 MLOAD DUP2 DUP7 MUL DUP2 ADD DUP7 ADD SWAP1 SWAP4 MSTORE DUP1 DUP4 MSTORE SWAP3 SWAP4 SWAP2 SWAP3 SWAP1 SWAP2 DUP5 SWAP1 DUP5 ADD JUMPDEST DUP3 DUP3 LT ISZERO PUSH2 0x418C JUMPI PUSH1 0x0 DUP5 DUP2 MSTORE PUSH1 0x20 SWAP1 DUP2 SWAP1 KECCAK256 PUSH1 0x40 DUP1 MLOAD PUSH2 0x120 DUP2 ADD DUP3 MSTORE PUSH1 0x5 DUP7 MUL SWAP1 SWAP3 ADD DUP1 SLOAD DUP4 MSTORE PUSH1 0x1 DUP1 DUP3 ADD SLOAD SWAP5 DUP5 ADD SWAP5 SWAP1 SWAP5 MSTORE PUSH1 0x2 DUP2 ADD SLOAD PUSH1 0x1 PUSH1 0x1 PUSH1 0xA0 SHL SUB DUP1 DUP3 AND SWAP4 DUP6 ADD SWAP4 SWAP1 SWAP4 MSTORE PUSH1 0x1 PUSH1 0xA0 SHL DUP1 DUP3 DIV PUSH1 0xFF SWAP1 DUP2 AND ISZERO ISZERO PUSH1 0x60 DUP8 ADD MSTORE PUSH1 0x1 PUSH1 0xA8 SHL SWAP1 SWAP3 DIV DUP3 AND ISZERO ISZERO PUSH1 0x80 DUP7 ADD MSTORE PUSH1 0x3 DUP4 ADD SLOAD SWAP4 DUP5 AND PUSH1 0xA0 DUP7 ADD MSTORE SWAP4 SWAP5 SWAP2 SWAP4 PUSH1 0xC0 DUP7 ADD SWAP4 DIV AND SWAP1 DUP2 GT ISZERO PUSH2 0x40BE JUMPI PUSH2 0x40BE PUSH2 0x567B JUMP JUMPDEST PUSH1 0x1 DUP2 GT ISZERO PUSH2 0x40CF JUMPI PUSH2 0x40CF PUSH2 0x567B JUMP JUMPDEST DUP2 MSTORE PUSH1 0x3 DUP3 ADD SLOAD PUSH1 0x1 PUSH1 0xA8 SHL SWAP1 DIV PUSH2 0xFFFF AND PUSH1 0x20 DUP3 ADD MSTORE PUSH1 0x4 DUP3 ADD DUP1 SLOAD PUSH1 0x40 SWAP1 SWAP3 ADD SWAP2 PUSH2 0x40FB SWAP1 PUSH2 0x5D4A JUMP JUMPDEST DUP1 PUSH1 0x1F ADD PUSH1 0x20 DUP1 SWAP2 DIV MUL PUSH1 0x20 ADD PUSH1 0x40 MLOAD SWAP1 DUP2 ADD PUSH1 0x40 MSTORE DUP1 SWAP3 SWAP2 SWAP1 DUP2 DUP2 MSTORE PUSH1 0x20 ADD DUP3 DUP1 SLOAD PUSH2 0x4127 SWAP1 PUSH2 0x5D4A JUMP JUMPDEST DUP1 ISZERO PUSH2 0x4174 JUMPI DUP1 PUSH1 0x1F LT PUSH2 0x4149 JUMPI PUSH2 0x100 DUP1 DUP4 SLOAD DIV MUL DUP4 MSTORE SWAP2 PUSH1 0x20 ADD SWAP2 PUSH2 0x4174 JUMP JUMPDEST DUP3 ADD SWAP2 SWAP1 PUSH1 0x0 MSTORE PUSH1 0x20 PUSH1 0x0 KECCAK256 SWAP1 JUMPDEST DUP2 SLOAD DUP2 MSTORE SWAP1 PUSH1 0x1 ADD SWAP1 PUSH1 0x20 ADD DUP1 DUP4 GT PUSH2 0x4157 JUMPI DUP3 SWAP1 SUB PUSH1 0x1F AND DUP3 ADD SWAP2 JUMPDEST POP POP POP POP POP DUP2 MSTORE POP POP DUP2 MSTORE PUSH1 0x20 ADD SWAP1 PUSH1 0x1 ADD SWAP1 PUSH2 0x4024 JUMP JUMPDEST POP POP POP POP SWAP1 POP PUSH1 0x0 JUMPDEST DUP2 MLOAD DUP2 LT ISZERO PUSH2 0x41F6 JUMPI DUP4 PUSH1 0x0 ADD MLOAD DUP3 DUP3 DUP2 MLOAD DUP2 LT PUSH2 0x41B5 JUMPI PUSH2 0x41B5 PUSH2 0x5A42 JUMP JUMPDEST PUSH1 0x20 MUL PUSH1 0x20 ADD ADD MLOAD PUSH1 0x0 ADD MLOAD EQ ISZERO PUSH2 0x41E4 JUMPI DUP2 DUP2 DUP2 MLOAD DUP2 LT PUSH2 0x41D9 JUMPI PUSH2 0x41D9 PUSH2 0x5A42 JUMP JUMPDEST PUSH1 0x20 MUL PUSH1 0x20 ADD ADD MLOAD SWAP3 POP JUMPDEST DUP1 PUSH2 0x41EE DUP2 PUSH2 0x5A6E JUMP JUMPDEST SWAP2 POP POP PUSH2 0x4195 JUMP JUMPDEST POP POP JUMPDEST PUSH1 0x1 DUP3 PUSH1 0x40 ADD MLOAD PUSH1 0x1 DUP2 GT ISZERO PUSH2 0x4211 JUMPI PUSH2 0x4211 PUSH2 0x567B JUMP JUMPDEST EQ ISZERO PUSH2 0x441D JUMPI PUSH1 0x20 DUP1 DUP4 ADD MLOAD PUSH2 0xFFFF AND PUSH1 0x0 SWAP1 DUP2 MSTORE PUSH1 0x8 DUP3 MSTORE PUSH1 0x40 DUP1 DUP3 KECCAK256 DUP1 SLOAD DUP3 MLOAD DUP2 DUP7 MUL DUP2 ADD DUP7 ADD SWAP1 SWAP4 MSTORE DUP1 DUP4 MSTORE SWAP3 SWAP4 SWAP2 SWAP3 SWAP1 SWAP2 DUP5 SWAP1 DUP5 ADD JUMPDEST DUP3 DUP3 LT ISZERO PUSH2 0x43B3 JUMPI PUSH1 0x0 DUP5 DUP2 MSTORE PUSH1 0x20 SWAP1 DUP2 SWAP1 KECCAK256 PUSH1 0x40 DUP1 MLOAD PUSH2 0x120 DUP2 ADD DUP3 MSTORE PUSH1 0x5 DUP7 MUL SWAP1 SWAP3 ADD DUP1 SLOAD DUP4 MSTORE PUSH1 0x1 DUP1 DUP3 ADD SLOAD SWAP5 DUP5 ADD SWAP5 SWAP1 SWAP5 MSTORE PUSH1 0x2 DUP2 ADD SLOAD PUSH1 0x1 PUSH1 0x1 PUSH1 0xA0 SHL SUB DUP1 DUP3 AND SWAP4 DUP6 ADD SWAP4 SWAP1 SWAP4 MSTORE PUSH1 0x1 PUSH1 0xA0 SHL DUP1 DUP3 DIV PUSH1 0xFF SWAP1 DUP2 AND ISZERO ISZERO PUSH1 0x60 DUP8 ADD MSTORE PUSH1 0x1 PUSH1 0xA8 SHL SWAP1 SWAP3 DIV DUP3 AND ISZERO ISZERO PUSH1 0x80 DUP7 ADD MSTORE PUSH1 0x3 DUP4 ADD SLOAD SWAP4 DUP5 AND PUSH1 0xA0 DUP7 ADD MSTORE SWAP4 SWAP5 SWAP2 SWAP4 PUSH1 0xC0 DUP7 ADD SWAP4 DIV AND SWAP1 DUP2 GT ISZERO PUSH2 0x42E5 JUMPI PUSH2 0x42E5 PUSH2 0x567B JUMP JUMPDEST PUSH1 0x1 DUP2 GT ISZERO PUSH2 0x42F6 JUMPI PUSH2 0x42F6 PUSH2 0x567B JUMP JUMPDEST DUP2 MSTORE PUSH1 0x3 DUP3 ADD SLOAD PUSH1 0x1 PUSH1 0xA8 SHL SWAP1 DIV PUSH2 0xFFFF AND PUSH1 0x20 DUP3 ADD MSTORE PUSH1 0x4 DUP3 ADD DUP1 SLOAD PUSH1 0x40 SWAP1 SWAP3 ADD SWAP2 PUSH2 0x4322 SWAP1 PUSH2 0x5D4A JUMP JUMPDEST DUP1 PUSH1 0x1F ADD PUSH1 0x20 DUP1 SWAP2 DIV MUL PUSH1 0x20 ADD PUSH1 0x40 MLOAD SWAP1 DUP2 ADD PUSH1 0x40 MSTORE DUP1 SWAP3 SWAP2 SWAP1 DUP2 DUP2 MSTORE PUSH1 0x20 ADD DUP3 DUP1 SLOAD PUSH2 0x434E SWAP1 PUSH2 0x5D4A JUMP JUMPDEST DUP1 ISZERO PUSH2 0x439B JUMPI DUP1 PUSH1 0x1F LT PUSH2 0x4370 JUMPI PUSH2 0x100 DUP1 DUP4 SLOAD DIV MUL DUP4 MSTORE SWAP2 PUSH1 0x20 ADD SWAP2 PUSH2 0x439B JUMP JUMPDEST DUP3 ADD SWAP2 SWAP1 PUSH1 0x0 MSTORE PUSH1 0x20 PUSH1 0x0 KECCAK256 SWAP1 JUMPDEST DUP2 SLOAD DUP2 MSTORE SWAP1 PUSH1 0x1 ADD SWAP1 PUSH1 0x20 ADD DUP1 DUP4 GT PUSH2 0x437E JUMPI DUP3 SWAP1 SUB PUSH1 0x1F AND DUP3 ADD SWAP2 JUMPDEST POP POP POP POP POP DUP2 MSTORE POP POP DUP2 MSTORE PUSH1 0x20 ADD SWAP1 PUSH1 0x1 ADD SWAP1 PUSH2 0x424B JUMP JUMPDEST POP POP POP POP SWAP1 POP PUSH1 0x0 JUMPDEST DUP2 MLOAD DUP2 LT ISZERO PUSH2 0x39C3 JUMPI DUP4 PUSH1 0x0 ADD MLOAD DUP3 DUP3 DUP2 MLOAD DUP2 LT PUSH2 0x43DC JUMPI PUSH2 0x43DC PUSH2 0x5A42 JUMP JUMPDEST PUSH1 0x20 MUL PUSH1 0x20 ADD ADD MLOAD PUSH1 0x0 ADD MLOAD EQ ISZERO PUSH2 0x440B JUMPI DUP2 DUP2 DUP2 MLOAD DUP2 LT PUSH2 0x4400 JUMPI PUSH2 0x4400 PUSH2 0x5A42 JUMP JUMPDEST PUSH1 0x20 MUL PUSH1 0x20 ADD ADD MLOAD SWAP3 POP JUMPDEST DUP1 PUSH2 0x4415 DUP2 PUSH2 0x5A6E JUMP JUMPDEST SWAP2 POP POP PUSH2 0x43BC JUMP JUMPDEST SWAP2 SWAP1 POP JUMP JUMPDEST TIMESTAMP DUP2 PUSH5 0xFFFFFFFFFF AND GT PUSH2 0x445C JUMPI PUSH1 0x40 MLOAD PUSH3 0x461BCD PUSH1 0xE5 SHL DUP2 MSTORE PUSH1 0x20 PUSH1 0x4 DUP3 ADD MSTORE PUSH1 0x1 PUSH1 0x24 DUP3 ADD MSTORE PUSH1 0xD PUSH1 0xFA SHL PUSH1 0x44 DUP3 ADD MSTORE PUSH1 0x64 ADD PUSH2 0x3FB JUMP JUMPDEST PUSH2 0x4468 PUSH2 0xE10 DUP3 PUSH2 0x5E07 JUMP JUMPDEST PUSH5 0xFFFFFFFFFF AND ISZERO PUSH2 0x9DF JUMPI PUSH1 0x40 MLOAD PUSH3 0x461BCD PUSH1 0xE5 SHL DUP2 MSTORE PUSH1 0x20 PUSH1 0x4 DUP3 ADD MSTORE PUSH1 0x1 PUSH1 0x24 DUP3 ADD MSTORE PUSH1 0x1B PUSH1 0xF9 SHL PUSH1 0x44 DUP3 ADD MSTORE PUSH1 0x64 ADD PUSH2 0x3FB JUMP JUMPDEST PUSH2 0x44A8 PUSH2 0x531E JUMP JUMPDEST PUSH1 0x40 MLOAD PUSH12 0xFFFFFFFFFFFFFFFFFFFFFFFF NOT PUSH1 0x60 DUP9 SWAP1 SHL AND PUSH1 0x20 DUP3 ADD MSTORE PUSH1 0x1 PUSH1 0x1 PUSH1 0xD8 SHL SUB NOT PUSH1 0xD8 DUP6 SWAP1 SHL AND PUSH1 0x34 DUP3 ADD MSTORE TIMESTAMP PUSH1 0x39 DUP3 ADD MSTORE PUSH1 0x0 SWAP1 PUSH1 0x59 ADD PUSH1 0x40 MLOAD PUSH1 0x20 DUP2 DUP4 SUB SUB DUP2 MSTORE SWAP1 PUSH1 0x40 MSTORE DUP1 MLOAD SWAP1 PUSH1 0x20 ADD KECCAK256 SWAP1 POP PUSH1 0x40 MLOAD DUP1 PUSH1 0xE0 ADD PUSH1 0x40 MSTORE DUP1 DUP3 DUP2 MSTORE PUSH1 0x20 ADD DUP9 PUSH1 0x1 PUSH1 0x1 PUSH1 0xA0 SHL SUB AND DUP2 MSTORE PUSH1 0x20 ADD DUP8 PUSH1 0x1 PUSH1 0x1 PUSH1 0xA0 SHL SUB AND DUP2 MSTORE PUSH1 0x20 ADD DUP7 PUSH1 0x1 PUSH1 0x1 PUSH1 0xA0 SHL SUB AND DUP2 MSTORE PUSH1 0x20 ADD DUP6 PUSH5 0xFFFFFFFFFF AND DUP2 MSTORE PUSH1 0x20 ADD PUSH1 0x0 PUSH1 0x3 DUP2 GT ISZERO PUSH2 0x455A JUMPI PUSH2 0x455A PUSH2 0x567B JUMP JUMPDEST DUP2 MSTORE PUSH1 0x20 ADD DUP5 SWAP1 MSTORE SWAP2 POP POP SWAP6 SWAP5 POP POP POP POP POP JUMP JUMPDEST CALLER PUSH1 0x0 SWAP1 DUP2 MSTORE PUSH1 0x3 PUSH1 0x20 MSTORE PUSH1 0x40 SWAP1 KECCAK256 SLOAD PUSH1 0x1 PUSH1 0xA0 SHL SWAP1 DIV PUSH1 0xFF AND PUSH2 0x4636 JUMPI CALLER PUSH1 0x0 DUP2 DUP2 MSTORE PUSH1 0x3 PUSH1 0x20 SWAP1 DUP2 MSTORE PUSH1 0x40 DUP3 KECCAK256 DUP1 SLOAD PUSH1 0x1 PUSH1 0x1 PUSH1 0xA0 SHL SUB NOT SWAP1 DUP2 AND DUP6 OR DUP3 SSTORE PUSH1 0x4 DUP1 SLOAD PUSH1 0x1 DUP2 DUP2 ADD SWAP1 SWAP3 SSTORE PUSH32 0x8A35ACFBC15FF81A39AE7D344FD709F28E8600B4AA8C65C6B64BFE7FE36BD19B ADD DUP1 SLOAD SWAP1 SWAP3 AND SWAP1 SWAP6 OR SWAP1 SSTORE DUP1 SLOAD PUSH1 0x1 PUSH1 0xA0 SHL PUSH1 0xFF PUSH1 0xA0 SHL NOT SWAP1 SWAP2 AND OR DUP2 SSTORE DUP4 ADD DUP1 SLOAD SWAP4 DUP5 ADD DUP2 SSTORE DUP3 MSTORE SWAP1 KECCAK256 PUSH1 0x6 DUP1 DUP4 DIV SWAP1 SWAP2 ADD DUP1 SLOAD SWAP2 SWAP1 SWAP3 MOD PUSH1 0x5 MUL PUSH2 0x100 EXP PUSH5 0xFFFFFFFFFF DUP2 DUP2 MUL NOT SWAP1 SWAP3 AND SWAP4 SWAP1 SWAP2 AND MUL SWAP2 SWAP1 SWAP2 OR SWAP1 SSTORE JUMP JUMPDEST CALLER PUSH1 0x0 SWAP1 DUP2 MSTORE PUSH1 0x3 PUSH1 0x20 SWAP1 DUP2 MSTORE PUSH1 0x40 DUP1 DUP4 KECCAK256 PUSH1 0x1 ADD DUP1 SLOAD DUP3 MLOAD DUP2 DUP6 MUL DUP2 ADD DUP6 ADD SWAP1 SWAP4 MSTORE DUP1 DUP4 MSTORE SWAP2 SWAP3 SWAP1 SWAP2 SWAP1 DUP4 ADD DUP3 DUP3 DUP1 ISZERO PUSH2 0x46BE JUMPI PUSH1 0x20 MUL DUP3 ADD SWAP2 SWAP1 PUSH1 0x0 MSTORE PUSH1 0x20 PUSH1 0x0 KECCAK256 SWAP1 PUSH1 0x0 SWAP1 JUMPDEST DUP3 DUP3 SWAP1 SLOAD SWAP1 PUSH2 0x100 EXP SWAP1 DIV PUSH5 0xFFFFFFFFFF AND PUSH5 0xFFFFFFFFFF AND DUP2 MSTORE PUSH1 0x20 ADD SWAP1 PUSH1 0x5 ADD SWAP1 PUSH1 0x20 DUP3 PUSH1 0x4 ADD DIV SWAP3 DUP4 ADD SWAP3 PUSH1 0x1 SUB DUP3 MUL SWAP2 POP DUP1 DUP5 GT PUSH2 0x467F JUMPI SWAP1 POP JUMPDEST POP POP POP POP POP SWAP1 POP PUSH2 0x46CF DUP3 DUP3 PUSH2 0x4F0F JUMP JUMPDEST PUSH2 0x37CE JUMPI POP CALLER PUSH1 0x0 SWAP1 DUP2 MSTORE PUSH1 0x3 PUSH1 0x20 SWAP1 DUP2 MSTORE PUSH1 0x40 DUP3 KECCAK256 PUSH1 0x1 SWAP1 DUP2 ADD DUP1 SLOAD SWAP2 DUP3 ADD DUP2 SSTORE DUP4 MSTORE SWAP2 KECCAK256 PUSH1 0x6 DUP1 DUP4 DIV SWAP1 SWAP2 ADD DUP1 SLOAD SWAP2 SWAP1 SWAP3 MOD PUSH1 0x5 MUL PUSH2 0x100 EXP PUSH5 0xFFFFFFFFFF DUP2 DUP2 MUL NOT SWAP1 SWAP3 AND SWAP4 SWAP1 SWAP2 AND MUL SWAP2 SWAP1 SWAP2 OR SWAP1 SSTORE JUMP JUMPDEST PUSH1 0x0 DUP2 PUSH1 0x1 EQ DUP1 PUSH2 0x4735 JUMPI POP DUP2 PUSH1 0x3 EQ JUMPDEST DUP1 PUSH2 0x4740 JUMPI POP DUP2 PUSH1 0x5 EQ JUMPDEST DUP1 PUSH2 0x474B JUMPI POP DUP2 PUSH1 0x7 EQ JUMPDEST DUP1 PUSH2 0x4756 JUMPI POP DUP2 PUSH1 0x8 EQ JUMPDEST DUP1 PUSH2 0x4761 JUMPI POP DUP2 PUSH1 0xA EQ JUMPDEST DUP1 PUSH2 0x476C JUMPI POP DUP2 PUSH1 0xC EQ JUMPDEST ISZERO PUSH2 0x4779 JUMPI POP PUSH1 0x1F PUSH2 0x3A09 JUMP JUMPDEST DUP2 PUSH1 0x2 EQ PUSH2 0x4789 JUMPI POP PUSH1 0x1E PUSH2 0x3A09 JUMP JUMPDEST PUSH2 0x4792 DUP4 PUSH2 0x52E2 JUMP JUMPDEST PUSH2 0x479D JUMPI PUSH1 0x1C PUSH2 0x47A0 JUMP JUMPDEST PUSH1 0x1D JUMPDEST PUSH1 0xFF AND SWAP4 SWAP3 POP POP POP JUMP JUMPDEST PUSH1 0xE SLOAD PUSH1 0xFF AND PUSH2 0x9DF JUMPI PUSH1 0x0 DUP1 PUSH1 0x0 DUP4 MLOAD PUSH8 0xFFFFFFFFFFFFFFFF DUP2 GT ISZERO PUSH2 0x47D3 JUMPI PUSH2 0x47D3 PUSH2 0x58D7 JUMP JUMPDEST PUSH1 0x40 MLOAD SWAP1 DUP1 DUP3 MSTORE DUP1 PUSH1 0x20 MUL PUSH1 0x20 ADD DUP3 ADD PUSH1 0x40 MSTORE DUP1 ISZERO PUSH2 0x480C JUMPI DUP2 PUSH1 0x20 ADD JUMPDEST PUSH2 0x47F9 PUSH2 0x531E JUMP JUMPDEST DUP2 MSTORE PUSH1 0x20 ADD SWAP1 PUSH1 0x1 SWAP1 SUB SWAP1 DUP2 PUSH2 0x47F1 JUMPI SWAP1 POP JUMPDEST POP SWAP1 POP PUSH1 0x0 JUMPDEST DUP5 MLOAD DUP2 LT ISZERO PUSH2 0x4C11 JUMPI PUSH1 0x0 PUSH1 0x1 PUSH1 0x1 PUSH1 0xA0 SHL SUB AND DUP6 DUP3 DUP2 MLOAD DUP2 LT PUSH2 0x4838 JUMPI PUSH2 0x4838 PUSH2 0x5A42 JUMP JUMPDEST PUSH1 0x20 MUL PUSH1 0x20 ADD ADD MLOAD PUSH1 0x60 ADD MLOAD PUSH1 0x1 PUSH1 0x1 PUSH1 0xA0 SHL SUB AND EQ ISZERO PUSH2 0x48C8 JUMPI DUP5 DUP2 DUP2 MLOAD DUP2 LT PUSH2 0x4865 JUMPI PUSH2 0x4865 PUSH2 0x5A42 JUMP JUMPDEST PUSH1 0x20 MUL PUSH1 0x20 ADD ADD MLOAD PUSH1 0xC0 ADD MLOAD DUP5 PUSH2 0x487C SWAP2 SWAP1 PUSH2 0x5AA0 JUMP JUMPDEST SWAP4 POP DUP5 DUP2 DUP2 MLOAD DUP2 LT PUSH2 0x4890 JUMPI PUSH2 0x4890 PUSH2 0x5A42 JUMP JUMPDEST PUSH1 0x20 MUL PUSH1 0x20 ADD ADD MLOAD DUP3 DUP5 DUP2 MLOAD DUP2 LT PUSH2 0x48AA JUMPI PUSH2 0x48AA PUSH2 0x5A42 JUMP JUMPDEST PUSH1 0x20 MUL PUSH1 0x20 ADD ADD DUP2 SWAP1 MSTORE POP DUP3 DUP1 PUSH2 0x48C0 SWAP1 PUSH2 0x5A6E JUMP JUMPDEST SWAP4 POP POP PUSH2 0x4BFF JUMP JUMPDEST DUP5 DUP2 DUP2 MLOAD DUP2 LT PUSH2 0x48DA JUMPI PUSH2 0x48DA PUSH2 0x5A42 JUMP JUMPDEST PUSH1 0x20 MUL PUSH1 0x20 ADD ADD MLOAD PUSH1 0xC0 ADD MLOAD DUP6 DUP3 DUP2 MLOAD DUP2 LT PUSH2 0x48F8 JUMPI PUSH2 0x48F8 PUSH2 0x5A42 JUMP JUMPDEST PUSH1 0x20 MUL PUSH1 0x20 ADD ADD MLOAD PUSH1 0x60 ADD MLOAD PUSH1 0x1 PUSH1 0x1 PUSH1 0xA0 SHL SUB AND PUSH4 0xDD62ED3E DUP8 DUP5 DUP2 MLOAD DUP2 LT PUSH2 0x4924 JUMPI PUSH2 0x4924 PUSH2 0x5A42 JUMP JUMPDEST PUSH1 0x20 SWAP1 DUP2 MUL SWAP2 SWAP1 SWAP2 ADD DUP2 ADD MLOAD ADD MLOAD PUSH1 0x40 MLOAD PUSH1 0x1 PUSH1 0x1 PUSH1 0xE0 SHL SUB NOT PUSH1 0xE0 DUP5 SWAP1 SHL AND DUP2 MSTORE PUSH1 0x1 PUSH1 0x1 PUSH1 0xA0 SHL SUB SWAP1 SWAP2 AND PUSH1 0x4 DUP3 ADD MSTORE ADDRESS PUSH1 0x24 DUP3 ADD MSTORE PUSH1 0x44 ADD PUSH1 0x20 PUSH1 0x40 MLOAD DUP1 DUP4 SUB DUP2 PUSH1 0x0 DUP8 DUP1 EXTCODESIZE ISZERO DUP1 ISZERO PUSH2 0x4979 JUMPI PUSH1 0x0 DUP1 REVERT JUMPDEST POP GAS CALL ISZERO DUP1 ISZERO PUSH2 0x498D JUMPI RETURNDATASIZE PUSH1 0x0 DUP1 RETURNDATACOPY RETURNDATASIZE PUSH1 0x0 REVERT JUMPDEST POP POP POP POP PUSH1 0x40 MLOAD RETURNDATASIZE PUSH1 0x1F NOT PUSH1 0x1F DUP3 ADD AND DUP3 ADD DUP1 PUSH1 0x40 MSTORE POP DUP2 ADD SWAP1 PUSH2 0x49B1 SWAP2 SWAP1 PUSH2 0x5AE9 JUMP JUMPDEST LT DUP1 PUSH2 0x4A9F JUMPI POP DUP5 DUP2 DUP2 MLOAD DUP2 LT PUSH2 0x49CA JUMPI PUSH2 0x49CA PUSH2 0x5A42 JUMP JUMPDEST PUSH1 0x20 MUL PUSH1 0x20 ADD ADD MLOAD PUSH1 0xC0 ADD MLOAD DUP6 DUP3 DUP2 MLOAD DUP2 LT PUSH2 0x49E8 JUMPI PUSH2 0x49E8 PUSH2 0x5A42 JUMP JUMPDEST PUSH1 0x20 MUL PUSH1 0x20 ADD ADD MLOAD PUSH1 0x60 ADD MLOAD PUSH1 0x1 PUSH1 0x1 PUSH1 0xA0 SHL SUB AND PUSH4 0x70A08231 DUP8 DUP5 DUP2 MLOAD DUP2 LT PUSH2 0x4A14 JUMPI PUSH2 0x4A14 PUSH2 0x5A42 JUMP JUMPDEST PUSH1 0x20 MUL PUSH1 0x20 ADD ADD MLOAD PUSH1 0x20 ADD MLOAD PUSH1 0x40 MLOAD DUP3 PUSH4 0xFFFFFFFF AND PUSH1 0xE0 SHL DUP2 MSTORE PUSH1 0x4 ADD PUSH2 0x4A4B SWAP2 SWAP1 PUSH1 0x1 PUSH1 0x1 PUSH1 0xA0 SHL SUB SWAP2 SWAP1 SWAP2 AND DUP2 MSTORE PUSH1 0x20 ADD SWAP1 JUMP JUMPDEST PUSH1 0x20 PUSH1 0x40 MLOAD DUP1 DUP4 SUB DUP2 PUSH1 0x0 DUP8 DUP1 EXTCODESIZE ISZERO DUP1 ISZERO PUSH2 0x4A65 JUMPI PUSH1 0x0 DUP1 REVERT JUMPDEST POP GAS CALL ISZERO DUP1 ISZERO PUSH2 0x4A79 JUMPI RETURNDATASIZE PUSH1 0x0 DUP1 RETURNDATACOPY RETURNDATASIZE PUSH1 0x0 REVERT JUMPDEST POP POP POP POP PUSH1 0x40 MLOAD RETURNDATASIZE PUSH1 0x1F NOT PUSH1 0x1F DUP3 ADD AND DUP3 ADD DUP1 PUSH1 0x40 MSTORE POP DUP2 ADD SWAP1 PUSH2 0x4A9D SWAP2 SWAP1 PUSH2 0x5AE9 JUMP JUMPDEST LT JUMPDEST ISZERO PUSH2 0x4B31 JUMPI PUSH1 0x2 PUSH1 0x5 PUSH1 0x0 DUP8 DUP5 DUP2 MLOAD DUP2 LT PUSH2 0x4ABC JUMPI PUSH2 0x4ABC PUSH2 0x5A42 JUMP JUMPDEST PUSH1 0x20 MUL PUSH1 0x20 ADD ADD MLOAD PUSH1 0x80 ADD MLOAD PUSH5 0xFFFFFFFFFF AND PUSH5 0xFFFFFFFFFF AND DUP2 MSTORE PUSH1 0x20 ADD SWAP1 DUP2 MSTORE PUSH1 0x20 ADD PUSH1 0x0 KECCAK256 DUP3 DUP2 SLOAD DUP2 LT PUSH2 0x4AF5 JUMPI PUSH2 0x4AF5 PUSH2 0x5A42 JUMP JUMPDEST SWAP1 PUSH1 0x0 MSTORE PUSH1 0x20 PUSH1 0x0 KECCAK256 SWAP1 PUSH1 0x5 MUL ADD PUSH1 0x3 ADD PUSH1 0x19 PUSH2 0x100 EXP DUP2 SLOAD DUP2 PUSH1 0xFF MUL NOT AND SWAP1 DUP4 PUSH1 0x3 DUP2 GT ISZERO PUSH2 0x4B27 JUMPI PUSH2 0x4B27 PUSH2 0x567B JUMP JUMPDEST MUL OR SWAP1 SSTORE POP PUSH2 0x4BFF JUMP JUMPDEST DUP5 DUP2 DUP2 MLOAD DUP2 LT PUSH2 0x4B43 JUMPI PUSH2 0x4B43 PUSH2 0x5A42 JUMP JUMPDEST PUSH1 0x20 MUL PUSH1 0x20 ADD ADD MLOAD DUP3 DUP5 DUP2 MLOAD DUP2 LT PUSH2 0x4B5D JUMPI PUSH2 0x4B5D PUSH2 0x5A42 JUMP JUMPDEST PUSH1 0x20 MUL PUSH1 0x20 ADD ADD DUP2 SWAP1 MSTORE POP DUP3 DUP1 PUSH2 0x4B73 SWAP1 PUSH2 0x5A6E JUMP JUMPDEST SWAP4 POP POP PUSH1 0x1 PUSH1 0x5 PUSH1 0x0 DUP8 DUP5 DUP2 MLOAD DUP2 LT PUSH2 0x4B8E JUMPI PUSH2 0x4B8E PUSH2 0x5A42 JUMP JUMPDEST PUSH1 0x20 MUL PUSH1 0x20 ADD ADD MLOAD PUSH1 0x80 ADD MLOAD PUSH5 0xFFFFFFFFFF AND PUSH5 0xFFFFFFFFFF AND DUP2 MSTORE PUSH1 0x20 ADD SWAP1 DUP2 MSTORE PUSH1 0x20 ADD PUSH1 0x0 KECCAK256 DUP3 DUP2 SLOAD DUP2 LT PUSH2 0x4BC7 JUMPI PUSH2 0x4BC7 PUSH2 0x5A42 JUMP JUMPDEST SWAP1 PUSH1 0x0 MSTORE PUSH1 0x20 PUSH1 0x0 KECCAK256 SWAP1 PUSH1 0x5 MUL ADD PUSH1 0x3 ADD PUSH1 0x19 PUSH2 0x100 EXP DUP2 SLOAD DUP2 PUSH1 0xFF MUL NOT AND SWAP1 DUP4 PUSH1 0x3 DUP2 GT ISZERO PUSH2 0x4BF9 JUMPI PUSH2 0x4BF9 PUSH2 0x567B JUMP JUMPDEST MUL OR SWAP1 SSTORE POP JUMPDEST DUP1 PUSH2 0x4C09 DUP2 PUSH2 0x5A6E JUMP JUMPDEST SWAP2 POP POP PUSH2 0x4812 JUMP JUMPDEST POP DUP3 SELFBALANCE GT PUSH2 0x4C46 JUMPI PUSH1 0x40 MLOAD PUSH3 0x461BCD PUSH1 0xE5 SHL DUP2 MSTORE PUSH1 0x20 PUSH1 0x4 DUP3 ADD MSTORE PUSH1 0x2 PUSH1 0x24 DUP3 ADD MSTORE PUSH2 0x3131 PUSH1 0xF0 SHL PUSH1 0x44 DUP3 ADD MSTORE PUSH1 0x64 ADD PUSH2 0x3FB JUMP JUMPDEST PUSH1 0x0 JUMPDEST DUP2 MLOAD DUP2 LT ISZERO PUSH2 0x27E7 JUMPI DUP2 DUP2 DUP2 MLOAD DUP2 LT PUSH2 0x4C64 JUMPI PUSH2 0x4C64 PUSH2 0x5A42 JUMP JUMPDEST PUSH1 0x20 MUL PUSH1 0x20 ADD ADD MLOAD PUSH1 0xC0 ADD MLOAD PUSH1 0xB PUSH1 0x0 DUP5 DUP5 DUP2 MLOAD DUP2 LT PUSH2 0x4C86 JUMPI PUSH2 0x4C86 PUSH2 0x5A42 JUMP JUMPDEST PUSH1 0x20 MUL PUSH1 0x20 ADD ADD MLOAD PUSH1 0x20 ADD MLOAD PUSH1 0x1 PUSH1 0x1 PUSH1 0xA0 SHL SUB AND PUSH1 0x1 PUSH1 0x1 PUSH1 0xA0 SHL SUB AND DUP2 MSTORE PUSH1 0x20 ADD SWAP1 DUP2 MSTORE PUSH1 0x20 ADD PUSH1 0x0 KECCAK256 PUSH1 0x0 DUP5 DUP5 DUP2 MLOAD DUP2 LT PUSH2 0x4CC6 JUMPI PUSH2 0x4CC6 PUSH2 0x5A42 JUMP JUMPDEST PUSH1 0x20 MUL PUSH1 0x20 ADD ADD MLOAD PUSH1 0x60 ADD MLOAD PUSH1 0x1 PUSH1 0x1 PUSH1 0xA0 SHL SUB AND PUSH1 0x1 PUSH1 0x1 PUSH1 0xA0 SHL SUB AND DUP2 MSTORE PUSH1 0x20 ADD SWAP1 DUP2 MSTORE PUSH1 0x20 ADD PUSH1 0x0 KECCAK256 PUSH1 0x0 DUP3 DUP3 SLOAD PUSH2 0x4D01 SWAP2 SWAP1 PUSH2 0x5A89 JUMP JUMPDEST SWAP1 SWAP2 SSTORE POP POP DUP2 MLOAD PUSH1 0x0 SWAP1 DUP4 SWAP1 DUP4 SWAP1 DUP2 LT PUSH2 0x4D1D JUMPI PUSH2 0x4D1D PUSH2 0x5A42 JUMP JUMPDEST PUSH1 0x20 MUL PUSH1 0x20 ADD ADD MLOAD PUSH1 0x60 ADD MLOAD PUSH1 0x1 PUSH1 0x1 PUSH1 0xA0 SHL SUB AND EQ ISZERO PUSH2 0x4DD6 JUMPI PUSH1 0x0 DUP3 DUP3 DUP2 MLOAD DUP2 LT PUSH2 0x4D4C JUMPI PUSH2 0x4D4C PUSH2 0x5A42 JUMP JUMPDEST PUSH1 0x20 MUL PUSH1 0x20 ADD ADD MLOAD PUSH1 0x40 ADD MLOAD PUSH1 0x1 PUSH1 0x1 PUSH1 0xA0 SHL SUB AND PUSH2 0x8FC DUP5 DUP5 DUP2 MLOAD DUP2 LT PUSH2 0x4D76 JUMPI PUSH2 0x4D76 PUSH2 0x5A42 JUMP JUMPDEST PUSH1 0x20 MUL PUSH1 0x20 ADD ADD MLOAD PUSH1 0xC0 ADD MLOAD SWAP1 DUP2 ISZERO MUL SWAP1 PUSH1 0x40 MLOAD PUSH1 0x0 PUSH1 0x40 MLOAD DUP1 DUP4 SUB DUP2 DUP6 DUP9 DUP9 CALL SWAP4 POP POP POP POP SWAP1 POP DUP1 PUSH2 0x4DD0 JUMPI PUSH1 0x40 MLOAD PUSH3 0x461BCD PUSH1 0xE5 SHL DUP2 MSTORE PUSH1 0x20 PUSH1 0x4 DUP3 ADD MSTORE PUSH1 0x2 PUSH1 0x24 DUP3 ADD MSTORE PUSH2 0x1899 PUSH1 0xF1 SHL PUSH1 0x44 DUP3 ADD MSTORE PUSH1 0x64 ADD PUSH2 0x3FB JUMP JUMPDEST POP PUSH2 0x4EEF JUMP JUMPDEST DUP2 DUP2 DUP2 MLOAD DUP2 LT PUSH2 0x4DE8 JUMPI PUSH2 0x4DE8 PUSH2 0x5A42 JUMP JUMPDEST PUSH1 0x20 MUL PUSH1 0x20 ADD ADD MLOAD PUSH1 0x60 ADD MLOAD PUSH1 0x1 PUSH1 0x1 PUSH1 0xA0 SHL SUB AND PUSH4 0x23B872DD DUP4 DUP4 DUP2 MLOAD DUP2 LT PUSH2 0x4E14 JUMPI PUSH2 0x4E14 PUSH2 0x5A42 JUMP JUMPDEST PUSH1 0x20 MUL PUSH1 0x20 ADD ADD MLOAD PUSH1 0x20 ADD MLOAD DUP5 DUP5 DUP2 MLOAD DUP2 LT PUSH2 0x4E32 JUMPI PUSH2 0x4E32 PUSH2 0x5A42 JUMP JUMPDEST PUSH1 0x20 MUL PUSH1 0x20 ADD ADD MLOAD PUSH1 0x40 ADD MLOAD DUP6 DUP6 DUP2 MLOAD DUP2 LT PUSH2 0x4E50 JUMPI PUSH2 0x4E50 PUSH2 0x5A42 JUMP JUMPDEST PUSH1 0x20 SWAP1 DUP2 MUL SWAP2 SWAP1 SWAP2 ADD ADD MLOAD PUSH1 0xC0 ADD MLOAD PUSH1 0x40 MLOAD PUSH1 0x1 PUSH1 0x1 PUSH1 0xE0 SHL SUB NOT PUSH1 0xE0 DUP7 SWAP1 SHL AND DUP2 MSTORE PUSH1 0x1 PUSH1 0x1 PUSH1 0xA0 SHL SUB SWAP4 DUP5 AND PUSH1 0x4 DUP3 ADD MSTORE SWAP3 SWAP1 SWAP2 AND PUSH1 0x24 DUP4 ADD MSTORE PUSH1 0x44 DUP3 ADD MSTORE PUSH1 0x64 ADD PUSH1 0x20 PUSH1 0x40 MLOAD DUP1 DUP4 SUB DUP2 PUSH1 0x0 DUP8 DUP1 EXTCODESIZE ISZERO DUP1 ISZERO PUSH2 0x4EAE JUMPI PUSH1 0x0 DUP1 REVERT JUMPDEST POP GAS CALL ISZERO DUP1 ISZERO PUSH2 0x4EC2 JUMPI RETURNDATASIZE PUSH1 0x0 DUP1 RETURNDATACOPY RETURNDATASIZE PUSH1 0x0 REVERT JUMPDEST POP POP POP POP PUSH1 0x40 MLOAD RETURNDATASIZE PUSH1 0x1F NOT PUSH1 0x1F DUP3 ADD AND DUP3 ADD DUP1 PUSH1 0x40 MSTORE POP DUP2 ADD SWAP1 PUSH2 0x4EE6 SWAP2 SWAP1 PUSH2 0x5D28 JUMP JUMPDEST PUSH2 0x4EEF JUMPI PUSH1 0x0 DUP1 REVERT JUMPDEST DUP1 PUSH2 0x4EF9 DUP2 PUSH2 0x5A6E JUMP JUMPDEST SWAP2 POP POP PUSH2 0x4C49 JUMP JUMPDEST PUSH1 0x0 PUSH2 0x3A09 DUP3 PUSH2 0xE10 PUSH2 0x5E2B JUMP JUMPDEST PUSH1 0x0 DUP1 JUMPDEST DUP3 MLOAD DUP2 LT ISZERO PUSH2 0x4F67 JUMPI DUP4 PUSH5 0xFFFFFFFFFF AND DUP4 DUP3 DUP2 MLOAD DUP2 LT PUSH2 0x4F36 JUMPI PUSH2 0x4F36 PUSH2 0x5A42 JUMP JUMPDEST PUSH1 0x20 MUL PUSH1 0x20 ADD ADD MLOAD PUSH5 0xFFFFFFFFFF AND EQ ISZERO PUSH2 0x4F55 JUMPI PUSH1 0x1 SWAP2 POP POP PUSH2 0x3A09 JUMP JUMPDEST DUP1 PUSH2 0x4F5F DUP2 PUSH2 0x5A6E JUMP JUMPDEST SWAP2 POP POP PUSH2 0x4F13 JUMP JUMPDEST POP PUSH1 0x0 SWAP4 SWAP3 POP POP POP JUMP JUMPDEST PUSH1 0x0 DUP1 JUMPDEST DUP3 MLOAD DUP2 LT ISZERO PUSH2 0x4F67 JUMPI DUP4 PUSH1 0x1 PUSH1 0x1 PUSH1 0xA0 SHL SUB AND DUP4 DUP3 DUP2 MLOAD DUP2 LT PUSH2 0x4F9A JUMPI PUSH2 0x4F9A PUSH2 0x5A42 JUMP JUMPDEST PUSH1 0x20 MUL PUSH1 0x20 ADD ADD MLOAD PUSH1 0x1 PUSH1 0x1 PUSH1 0xA0 SHL SUB AND EQ ISZERO PUSH2 0x4FBB JUMPI PUSH1 0x1 SWAP2 POP POP PUSH2 0x3A09 JUMP JUMPDEST DUP1 PUSH2 0x4FC5 DUP2 PUSH2 0x5A6E JUMP JUMPDEST SWAP2 POP POP PUSH2 0x4F75 JUMP JUMPDEST PUSH1 0x0 DUP3 DUP2 MSTORE PUSH1 0x9 PUSH1 0x20 MSTORE PUSH1 0x40 DUP2 KECCAK256 SWAP1 DUP1 JUMPDEST DUP3 SLOAD DUP2 LT ISZERO PUSH2 0x27E7 JUMPI DUP4 PUSH1 0x1 PUSH1 0x1 PUSH1 0xA0 SHL SUB AND DUP4 DUP3 DUP2 SLOAD DUP2 LT PUSH2 0x5003 JUMPI PUSH2 0x5003 PUSH2 0x5A42 JUMP JUMPDEST PUSH1 0x0 SWAP2 DUP3 MSTORE PUSH1 0x20 SWAP1 SWAP2 KECCAK256 ADD SLOAD PUSH1 0x1 PUSH1 0x1 PUSH1 0xA0 SHL SUB AND EQ ISZERO PUSH2 0x5051 JUMPI DUP1 SWAP2 POP DUP3 DUP2 DUP2 SLOAD DUP2 LT PUSH2 0x5033 JUMPI PUSH2 0x5033 PUSH2 0x5A42 JUMP JUMPDEST PUSH1 0x0 SWAP2 DUP3 MSTORE PUSH1 0x20 SWAP1 SWAP2 KECCAK256 ADD DUP1 SLOAD PUSH1 0x1 PUSH1 0x1 PUSH1 0xA0 SHL SUB NOT AND SWAP1 SSTORE PUSH2 0x27E7 JUMP JUMPDEST DUP3 SLOAD DUP4 SWAP1 PUSH2 0x5061 SWAP1 PUSH1 0x1 SWAP1 PUSH2 0x5A89 JUMP JUMPDEST DUP2 SLOAD DUP2 LT PUSH2 0x5071 JUMPI PUSH2 0x5071 PUSH2 0x5A42 JUMP JUMPDEST SWAP1 PUSH1 0x0 MSTORE PUSH1 0x20 PUSH1 0x0 KECCAK256 ADD PUSH1 0x0 SWAP1 SLOAD SWAP1 PUSH2 0x100 EXP SWAP1 DIV PUSH1 0x1 PUSH1 0x1 PUSH1 0xA0 SHL SUB AND DUP4 DUP4 DUP2 SLOAD DUP2 LT PUSH2 0x50A1 JUMPI PUSH2 0x50A1 PUSH2 0x5A42 JUMP JUMPDEST SWAP1 PUSH1 0x0 MSTORE PUSH1 0x20 PUSH1 0x0 KECCAK256 ADD PUSH1 0x0 PUSH2 0x100 EXP DUP2 SLOAD DUP2 PUSH1 0x1 PUSH1 0x1 PUSH1 0xA0 SHL SUB MUL NOT AND SWAP1 DUP4 PUSH1 0x1 PUSH1 0x1 PUSH1 0xA0 SHL SUB AND MUL OR SWAP1 SSTORE POP DUP3 DUP1 SLOAD DUP1 PUSH2 0x50DF JUMPI PUSH2 0x50DF PUSH2 0x5AB8 JUMP JUMPDEST PUSH1 0x0 DUP3 DUP2 MSTORE PUSH1 0x20 SWAP1 KECCAK256 DUP2 ADD PUSH1 0x0 NOT SWAP1 DUP2 ADD DUP1 SLOAD PUSH1 0x1 PUSH1 0x1 PUSH1 0xA0 SHL SUB NOT AND SWAP1 SSTORE ADD SWAP1 SSTORE DUP1 PUSH2 0x510B DUP2 PUSH2 0x5A6E JUMP JUMPDEST SWAP2 POP POP PUSH2 0x4FDE JUMP JUMPDEST CALLER PUSH1 0x0 SWAP1 DUP2 MSTORE PUSH1 0x3 PUSH1 0x20 MSTORE PUSH1 0x40 SWAP1 KECCAK256 PUSH1 0x1 SWAP1 DUP2 ADD SLOAD EQ ISZERO PUSH2 0x514C JUMPI CALLER PUSH1 0x0 SWAP1 DUP2 MSTORE PUSH1 0x3 PUSH1 0x20 MSTORE PUSH1 0x40 DUP2 KECCAK256 PUSH2 0x9DF SWAP2 PUSH1 0x1 SWAP1 SWAP2 ADD SWAP1 PUSH2 0x544C JUMP JUMPDEST CALLER PUSH1 0x0 SWAP1 DUP2 MSTORE PUSH1 0x3 PUSH1 0x20 MSTORE PUSH1 0x40 DUP2 KECCAK256 PUSH1 0x1 ADD SWAP1 DUP1 JUMPDEST DUP3 SLOAD DUP2 LT ISZERO PUSH2 0x520D JUMPI DUP4 PUSH5 0xFFFFFFFFFF AND DUP4 DUP3 DUP2 SLOAD DUP2 LT PUSH2 0x5184 JUMPI PUSH2 0x5184 PUSH2 0x5A42 JUMP JUMPDEST SWAP1 PUSH1 0x0 MSTORE PUSH1 0x20 PUSH1 0x0 KECCAK256 SWAP1 PUSH1 0x6 SWAP2 DUP3 DUP3 DIV ADD SWAP2 SWAP1 MOD PUSH1 0x5 MUL SWAP1 SLOAD SWAP1 PUSH2 0x100 EXP SWAP1 DIV PUSH5 0xFFFFFFFFFF AND PUSH5 0xFFFFFFFFFF AND EQ ISZERO PUSH2 0x51FB JUMPI DUP1 SWAP2 POP DUP3 DUP2 DUP2 SLOAD DUP2 LT PUSH2 0x51CD JUMPI PUSH2 0x51CD PUSH2 0x5A42 JUMP JUMPDEST SWAP1 PUSH1 0x0 MSTORE PUSH1 0x20 PUSH1 0x0 KECCAK256 SWAP1 PUSH1 0x6 SWAP2 DUP3 DUP3 DIV ADD SWAP2 SWAP1 MOD PUSH1 0x5 MUL PUSH2 0x100 EXP DUP2 SLOAD SWAP1 PUSH5 0xFFFFFFFFFF MUL NOT AND SWAP1 SSTORE PUSH2 0x520D JUMP JUMPDEST DUP1 PUSH2 0x5205 DUP2 PUSH2 0x5A6E JUMP JUMPDEST SWAP2 POP POP PUSH2 0x5161 JUMP JUMPDEST POP DUP2 SLOAD DUP3 SWAP1 PUSH2 0x521E SWAP1 PUSH1 0x1 SWAP1 PUSH2 0x5A89 JUMP JUMPDEST DUP2 SLOAD DUP2 LT PUSH2 0x522E JUMPI PUSH2 0x522E PUSH2 0x5A42 JUMP JUMPDEST SWAP1 PUSH1 0x0 MSTORE PUSH1 0x20 PUSH1 0x0 KECCAK256 SWAP1 PUSH1 0x6 SWAP2 DUP3 DUP3 DIV ADD SWAP2 SWAP1 MOD PUSH1 0x5 MUL SWAP1 SLOAD SWAP1 PUSH2 0x100 EXP SWAP1 DIV PUSH5 0xFFFFFFFFFF AND DUP3 DUP3 DUP2 SLOAD DUP2 LT PUSH2 0x5267 JUMPI PUSH2 0x5267 PUSH2 0x5A42 JUMP JUMPDEST SWAP1 PUSH1 0x0 MSTORE PUSH1 0x20 PUSH1 0x0 KECCAK256 SWAP1 PUSH1 0x6 SWAP2 DUP3 DUP3 DIV ADD SWAP2 SWAP1 MOD PUSH1 0x5 MUL PUSH2 0x100 EXP DUP2 SLOAD DUP2 PUSH5 0xFFFFFFFFFF MUL NOT AND SWAP1 DUP4 PUSH5 0xFFFFFFFFFF AND MUL OR SWAP1 SSTORE POP DUP2 DUP1 SLOAD DUP1 PUSH2 0x52AC JUMPI PUSH2 0x52AC PUSH2 0x5AB8 JUMP JUMPDEST PUSH1 0x1 SWAP1 SUB DUP2 DUP2 SWAP1 PUSH1 0x0 MSTORE PUSH1 0x20 PUSH1 0x0 KECCAK256 SWAP1 PUSH1 0x6 SWAP2 DUP3 DUP3 DIV ADD SWAP2 SWAP1 MOD PUSH1 0x5 MUL PUSH2 0x100 EXP DUP2 SLOAD SWAP1 PUSH5 0xFFFFFFFFFF MUL NOT AND SWAP1 SSTORE SWAP1 SSTORE POP POP POP JUMP JUMPDEST PUSH1 0x0 PUSH2 0x52EF PUSH1 0x4 DUP4 PUSH2 0x5E58 JUMP JUMPDEST ISZERO DUP1 ISZERO PUSH2 0x5305 JUMPI POP PUSH2 0x5302 PUSH1 0x64 DUP4 PUSH2 0x5E58 JUMP JUMPDEST ISZERO ISZERO JUMPDEST DUP1 PUSH2 0x3A09 JUMPI POP PUSH2 0x5317 PUSH2 0x190 DUP4 PUSH2 0x5E58 JUMP JUMPDEST ISZERO SWAP3 SWAP2 POP POP JUMP JUMPDEST PUSH1 0x40 DUP1 MLOAD PUSH1 0xE0 DUP2 ADD DUP3 MSTORE PUSH1 0x0 DUP1 DUP3 MSTORE PUSH1 0x20 DUP3 ADD DUP2 SWAP1 MSTORE SWAP2 DUP2 ADD DUP3 SWAP1 MSTORE PUSH1 0x60 DUP2 ADD DUP3 SWAP1 MSTORE PUSH1 0x80 DUP2 ADD DUP3 SWAP1 MSTORE SWAP1 PUSH1 0xA0 DUP3 ADD SWAP1 DUP2 MSTORE PUSH1 0x20 ADD PUSH1 0x0 DUP2 MSTORE POP SWAP1 JUMP JUMPDEST DUP3 DUP1 SLOAD PUSH2 0x5367 SWAP1 PUSH2 0x5D4A JUMP JUMPDEST SWAP1 PUSH1 0x0 MSTORE PUSH1 0x20 PUSH1 0x0 KECCAK256 SWAP1 PUSH1 0x1F ADD PUSH1 0x20 SWAP1 DIV DUP2 ADD SWAP3 DUP3 PUSH2 0x5389 JUMPI PUSH1 0x0 DUP6 SSTORE PUSH2 0x53CF JUMP JUMPDEST DUP3 PUSH1 0x1F LT PUSH2 0x53A2 JUMPI DUP1 MLOAD PUSH1 0xFF NOT AND DUP4 DUP1 ADD OR DUP6 SSTORE PUSH2 0x53CF JUMP JUMPDEST DUP3 DUP1 ADD PUSH1 0x1 ADD DUP6 SSTORE DUP3 ISZERO PUSH2 0x53CF JUMPI SWAP2 DUP3 ADD JUMPDEST DUP3 DUP2 GT ISZERO PUSH2 0x53CF JUMPI DUP3 MLOAD DUP3 SSTORE SWAP2 PUSH1 0x20 ADD SWAP2 SWAP1 PUSH1 0x1 ADD SWAP1 PUSH2 0x53B4 JUMP JUMPDEST POP PUSH2 0x53DB SWAP3 SWAP2 POP PUSH2 0x546D JUMP JUMPDEST POP SWAP1 JUMP JUMPDEST PUSH1 0x40 DUP1 MLOAD PUSH2 0x120 DUP2 ADD DUP3 MSTORE PUSH1 0x0 DUP1 DUP3 MSTORE PUSH1 0x20 DUP3 ADD DUP2 SWAP1 MSTORE SWAP2 DUP2 ADD DUP3 SWAP1 MSTORE PUSH1 0x60 DUP2 ADD DUP3 SWAP1 MSTORE PUSH1 0x80 DUP2 ADD DUP3 SWAP1 MSTORE PUSH1 0xA0 DUP2 ADD DUP3 SWAP1 MSTORE SWAP1 PUSH1 0xC0 DUP3 ADD SWAP1 DUP2 MSTORE PUSH1 0x0 PUSH1 0x20 DUP3 ADD MSTORE PUSH1 0x60 PUSH1 0x40 SWAP1 SWAP2 ADD MSTORE SWAP1 JUMP JUMPDEST POP DUP1 SLOAD PUSH1 0x0 DUP3 SSTORE PUSH1 0x5 MUL SWAP1 PUSH1 0x0 MSTORE PUSH1 0x20 PUSH1 0x0 KECCAK256 SWAP1 DUP2 ADD SWAP1 PUSH2 0x9DF SWAP2 SWAP1 PUSH2 0x5482 JUMP JUMPDEST POP DUP1 SLOAD PUSH1 0x0 DUP3 SSTORE PUSH1 0x5 ADD PUSH1 0x6 SWAP1 DIV SWAP1 PUSH1 0x0 MSTORE PUSH1 0x20 PUSH1 0x0 KECCAK256 SWAP1 DUP2 ADD SWAP1 PUSH2 0x9DF SWAP2 SWAP1 JUMPDEST JUMPDEST DUP1 DUP3 GT ISZERO PUSH2 0x53DB JUMPI PUSH1 0x0 DUP2 SSTORE PUSH1 0x1 ADD PUSH2 0x546E JUMP JUMPDEST JUMPDEST DUP1 DUP3 GT ISZERO PUSH2 0x53DB JUMPI PUSH1 0x0 DUP1 DUP3 SSTORE PUSH1 0x1 DUP3 ADD DUP1 SLOAD PUSH1 0x1 PUSH1 0x1 PUSH1 0xA0 SHL SUB NOT SWAP1 DUP2 AND SWAP1 SWAP2 SSTORE PUSH1 0x2 DUP4 ADD DUP1 SLOAD SWAP1 SWAP2 AND SWAP1 SSTORE PUSH1 0x3 DUP3 ADD DUP1 SLOAD PUSH1 0x1 PUSH1 0x1 PUSH1 0xD0 SHL SUB NOT AND SWAP1 SSTORE PUSH1 0x4 DUP3 ADD SSTORE PUSH1 0x5 ADD PUSH2 0x5483 JUMP JUMPDEST PUSH1 0x1 PUSH1 0x1 PUSH1 0xA0 SHL SUB DUP2 AND DUP2 EQ PUSH2 0x9DF JUMPI PUSH1 0x0 DUP1 REVERT JUMPDEST PUSH1 0x0 PUSH1 0x20 DUP3 DUP5 SUB SLT ISZERO PUSH2 0x54F6 JUMPI PUSH1 0x0 DUP1 REVERT JUMPDEST DUP2 CALLDATALOAD PUSH2 0x3E04 DUP2 PUSH2 0x54CF JUMP JUMPDEST DUP1 CALLDATALOAD PUSH5 0xFFFFFFFFFF DUP2 AND DUP2 EQ PUSH2 0x441D JUMPI PUSH1 0x0 DUP1 REVERT JUMPDEST PUSH1 0x0 DUP1 PUSH1 0x0 PUSH1 0x60 DUP5 DUP7 SUB SLT ISZERO PUSH2 0x552B JUMPI PUSH1 0x0 DUP1 REVERT JUMPDEST DUP4 CALLDATALOAD SWAP3 POP PUSH2 0x553B PUSH1 0x20 DUP6 ADD PUSH2 0x5501 JUMP JUMPDEST SWAP2 POP PUSH1 0x40 DUP5 ADD CALLDATALOAD PUSH2 0x554B DUP2 PUSH2 0x54CF JUMP JUMPDEST DUP1 SWAP2 POP POP SWAP3 POP SWAP3 POP SWAP3 JUMP JUMPDEST PUSH1 0x0 PUSH1 0x20 DUP3 DUP5 SUB SLT ISZERO PUSH2 0x5568 JUMPI PUSH1 0x0 DUP1 REVERT JUMPDEST DUP2 CALLDATALOAD PUSH8 0xFFFFFFFFFFFFFFFF DUP2 GT ISZERO PUSH2 0x557F JUMPI PUSH1 0x0 DUP1 REVERT JUMPDEST DUP3 ADD PUSH2 0x120 DUP2 DUP6 SUB SLT ISZERO PUSH2 0x3E04 JUMPI PUSH1 0x0 DUP1 REVERT JUMPDEST DUP1 CALLDATALOAD PUSH1 0x2 DUP2 LT PUSH2 0x441D JUMPI PUSH1 0x0 DUP1 REVERT JUMPDEST DUP1 CALLDATALOAD PUSH2 0xFFFF DUP2 AND DUP2 EQ PUSH2 0x441D JUMPI PUSH1 0x0 DUP1 REVERT JUMPDEST PUSH1 0x0 DUP1 PUSH1 0x0 DUP1 PUSH1 0x0 DUP1 PUSH1 0xA0 DUP8 DUP10 SUB SLT ISZERO PUSH2 0x55CC JUMPI PUSH1 0x0 DUP1 REVERT JUMPDEST DUP7 CALLDATALOAD SWAP6 POP PUSH1 0x20 DUP8 ADD CALLDATALOAD PUSH2 0x55DE DUP2 PUSH2 0x54CF JUMP JUMPDEST SWAP5 POP PUSH1 0x40 DUP8 ADD CALLDATALOAD PUSH8 0xFFFFFFFFFFFFFFFF DUP1 DUP3 GT ISZERO PUSH2 0x55FB JUMPI PUSH1 0x0 DUP1 REVERT JUMPDEST DUP2 DUP10 ADD SWAP2 POP DUP10 PUSH1 0x1F DUP4 ADD SLT PUSH2 0x560F JUMPI PUSH1 0x0 DUP1 REVERT JUMPDEST DUP2 CALLDATALOAD DUP2 DUP2 GT ISZERO PUSH2 0x561E JUMPI PUSH1 0x0 DUP1 REVERT JUMPDEST DUP11 PUSH1 0x20 DUP3 DUP6 ADD ADD GT ISZERO PUSH2 0x5630 JUMPI PUSH1 0x0 DUP1 REVERT JUMPDEST PUSH1 0x20 DUP4 ADD SWAP7 POP DUP1 SWAP6 POP POP POP POP PUSH2 0x5648 PUSH1 0x60 DUP9 ADD PUSH2 0x5592 JUMP JUMPDEST SWAP2 POP PUSH2 0x5656 PUSH1 0x80 DUP9 ADD PUSH2 0x55A1 JUMP JUMPDEST SWAP1 POP SWAP3 SWAP6 POP SWAP3 SWAP6 POP SWAP3 SWAP6 JUMP JUMPDEST PUSH1 0x0 PUSH1 0x20 DUP3 DUP5 SUB SLT ISZERO PUSH2 0x5674 JUMPI PUSH1 0x0 DUP1 REVERT JUMPDEST POP CALLDATALOAD SWAP2 SWAP1 POP JUMP JUMPDEST PUSH4 0x4E487B71 PUSH1 0xE0 SHL PUSH1 0x0 MSTORE PUSH1 0x21 PUSH1 0x4 MSTORE PUSH1 0x24 PUSH1 0x0 REVERT JUMPDEST PUSH1 0x2 DUP2 LT PUSH2 0x56A1 JUMPI PUSH2 0x56A1 PUSH2 0x567B JUMP JUMPDEST SWAP1 MSTORE JUMP JUMPDEST PUSH1 0x0 JUMPDEST DUP4 DUP2 LT ISZERO PUSH2 0x56C0 JUMPI DUP2 DUP2 ADD MLOAD DUP4 DUP3 ADD MSTORE PUSH1 0x20 ADD PUSH2 0x56A8 JUMP JUMPDEST DUP4 DUP2 GT ISZERO PUSH2 0x12E5 JUMPI POP POP PUSH1 0x0 SWAP2 ADD MSTORE JUMP JUMPDEST PUSH1 0x0 DUP2 MLOAD DUP1 DUP5 MSTORE PUSH2 0x56E9 DUP2 PUSH1 0x20 DUP7 ADD PUSH1 0x20 DUP7 ADD PUSH2 0x56A5 JUMP JUMPDEST PUSH1 0x1F ADD PUSH1 0x1F NOT AND SWAP3 SWAP1 SWAP3 ADD PUSH1 0x20 ADD SWAP3 SWAP2 POP POP JUMP JUMPDEST PUSH1 0x0 PUSH1 0x20 DUP1 DUP4 ADD DUP2 DUP5 MSTORE DUP1 DUP6 MLOAD DUP1 DUP4 MSTORE PUSH1 0x40 SWAP3 POP DUP3 DUP7 ADD SWAP2 POP DUP3 DUP2 PUSH1 0x5 SHL DUP8 ADD ADD DUP5 DUP9 ADD PUSH1 0x0 JUMPDEST DUP4 DUP2 LT ISZERO PUSH2 0x57CF JUMPI PUSH1 0x3F NOT DUP10 DUP5 SUB ADD DUP6 MSTORE DUP2 MLOAD DUP1 MLOAD DUP5 MSTORE DUP8 DUP2 ADD MLOAD DUP9 DUP6 ADD MSTORE DUP7 DUP2 ADD MLOAD PUSH1 0x1 PUSH1 0x1 PUSH1 0xA0 SHL SUB SWAP1 DUP2 AND DUP9 DUP7 ADD MSTORE PUSH1 0x60 DUP1 DUP4 ADD MLOAD ISZERO ISZERO SWAP1 DUP7 ADD MSTORE PUSH1 0x80 DUP1 DUP4 ADD MLOAD ISZERO ISZERO SWAP1 DUP7 ADD MSTORE PUSH1 0xA0 DUP1 DUP4 ADD MLOAD SWAP1 SWAP2 AND SWAP1 DUP6 ADD MSTORE PUSH1 0xC0 DUP1 DUP3 ADD MLOAD PUSH2 0x120 SWAP2 SWAP1 PUSH2 0x5792 DUP3 DUP9 ADD DUP3 PUSH2 0x5691 JUMP JUMPDEST POP POP PUSH1 0xE0 DUP3 DUP2 ADD MLOAD PUSH2 0xFFFF AND SWAP1 DUP7 ADD MSTORE PUSH2 0x100 SWAP2 DUP3 ADD MLOAD SWAP2 DUP6 ADD DUP2 SWAP1 MSTORE PUSH2 0x57BB DUP2 DUP7 ADD DUP4 PUSH2 0x56D1 JUMP JUMPDEST SWAP7 DUP10 ADD SWAP7 SWAP5 POP POP POP SWAP1 DUP7 ADD SWAP1 PUSH1 0x1 ADD PUSH2 0x5724 JUMP JUMPDEST POP SWAP1 SWAP9 SWAP8 POP POP POP POP POP POP POP POP JUMP JUMPDEST PUSH1 0x0 DUP1 PUSH1 0x0 DUP1 PUSH1 0x80 DUP6 DUP8 SUB SLT ISZERO PUSH2 0x57F3 JUMPI PUSH1 0x0 DUP1 REVERT JUMPDEST DUP5 CALLDATALOAD PUSH2 0x57FE DUP2 PUSH2 0x54CF JUMP JUMPDEST SWAP4 POP PUSH2 0x580C PUSH1 0x20 DUP7 ADD PUSH2 0x5501 JUMP JUMPDEST SWAP3 POP PUSH1 0x40 DUP6 ADD CALLDATALOAD SWAP2 POP PUSH1 0x60 DUP6 ADD CALLDATALOAD PUSH2 0x5823 DUP2 PUSH2 0x54CF JUMP JUMPDEST SWAP4 SWAP7 SWAP3 SWAP6 POP SWAP1 SWAP4 POP POP JUMP JUMPDEST PUSH1 0x20 DUP1 DUP3 MSTORE DUP3 MLOAD DUP3 DUP3 ADD DUP2 SWAP1 MSTORE PUSH1 0x0 SWAP2 SWAP1 PUSH1 0x40 SWAP1 DUP2 DUP6 ADD SWAP1 DUP7 DUP5 ADD DUP6 JUMPDEST DUP3 DUP2 LT ISZERO PUSH2 0x58CA JUMPI DUP2 MLOAD DUP1 MLOAD DUP6 MSTORE DUP7 DUP2 ADD MLOAD PUSH1 0x1 PUSH1 0x1 PUSH1 0xA0 SHL SUB SWAP1 DUP2 AND DUP9 DUP8 ADD MSTORE DUP7 DUP3 ADD MLOAD DUP2 AND DUP8 DUP8 ADD MSTORE PUSH1 0x60 DUP1 DUP4 ADD MLOAD SWAP1 SWAP2 AND SWAP1 DUP7 ADD MSTORE PUSH1 0x80 DUP1 DUP3 ADD MLOAD PUSH5 0xFFFFFFFFFF AND SWAP1 DUP7 ADD MSTORE PUSH1 0xA0 DUP1 DUP3 ADD MLOAD PUSH1 0x4 DUP2 LT PUSH2 0x58AA JUMPI PUSH2 0x58AA PUSH2 0x567B JUMP JUMPDEST SWAP1 DUP7 ADD MSTORE PUSH1 0xC0 SWAP1 DUP2 ADD MLOAD SWAP1 DUP6 ADD MSTORE PUSH1 0xE0 SWAP1 SWAP4 ADD SWAP3 SWAP1 DUP6 ADD SWAP1 PUSH1 0x1 ADD PUSH2 0x584B JUMP JUMPDEST POP SWAP2 SWAP8 SWAP7 POP POP POP POP POP POP POP JUMP JUMPDEST PUSH4 0x4E487B71 PUSH1 0xE0 SHL PUSH1 0x0 MSTORE PUSH1 0x41 PUSH1 0x4 MSTORE PUSH1 0x24 PUSH1 0x0 REVERT JUMPDEST PUSH1 0x40 MLOAD PUSH1 0x80 DUP2 ADD PUSH8 0xFFFFFFFFFFFFFFFF DUP2 GT DUP3 DUP3 LT OR ISZERO PUSH2 0x5910 JUMPI PUSH2 0x5910 PUSH2 0x58D7 JUMP JUMPDEST PUSH1 0x40 MSTORE SWAP1 JUMP JUMPDEST PUSH1 0x40 MLOAD PUSH1 0x1F DUP3 ADD PUSH1 0x1F NOT AND DUP2 ADD PUSH8 0xFFFFFFFFFFFFFFFF DUP2 GT DUP3 DUP3 LT OR ISZERO PUSH2 0x593F JUMPI PUSH2 0x593F PUSH2 0x58D7 JUMP JUMPDEST PUSH1 0x40 MSTORE SWAP2 SWAP1 POP JUMP JUMPDEST PUSH1 0x0 PUSH1 0x20 DUP1 DUP4 DUP6 SUB SLT ISZERO PUSH2 0x595A JUMPI PUSH1 0x0 DUP1 REVERT JUMPDEST DUP3 CALLDATALOAD PUSH8 0xFFFFFFFFFFFFFFFF DUP1 DUP3 GT ISZERO PUSH2 0x5972 JUMPI PUSH1 0x0 DUP1 REVERT JUMPDEST DUP2 DUP6 ADD SWAP2 POP DUP6 PUSH1 0x1F DUP4 ADD SLT PUSH2 0x5986 JUMPI PUSH1 0x0 DUP1 REVERT JUMPDEST DUP2 CALLDATALOAD DUP2 DUP2 GT ISZERO PUSH2 0x5998 JUMPI PUSH2 0x5998 PUSH2 0x58D7 JUMP JUMPDEST PUSH2 0x59A6 DUP5 DUP3 PUSH1 0x5 SHL ADD PUSH2 0x5916 JUMP JUMPDEST DUP2 DUP2 MSTORE DUP5 DUP2 ADD SWAP3 POP PUSH1 0x7 SWAP2 SWAP1 SWAP2 SHL DUP4 ADD DUP5 ADD SWAP1 DUP8 DUP3 GT ISZERO PUSH2 0x59C6 JUMPI PUSH1 0x0 DUP1 REVERT JUMPDEST SWAP3 DUP5 ADD SWAP3 JUMPDEST DUP2 DUP5 LT ISZERO PUSH2 0x5A37 JUMPI PUSH1 0x80 DUP5 DUP10 SUB SLT ISZERO PUSH2 0x59E4 JUMPI PUSH1 0x0 DUP1 DUP2 REVERT JUMPDEST PUSH2 0x59EC PUSH2 0x58ED JUMP JUMPDEST DUP5 CALLDATALOAD PUSH2 0x59F7 DUP2 PUSH2 0x54CF JUMP JUMPDEST DUP2 MSTORE PUSH2 0x5A04 DUP6 DUP8 ADD PUSH2 0x5501 JUMP JUMPDEST DUP2 DUP8 ADD MSTORE PUSH1 0x40 DUP6 DUP2 ADD CALLDATALOAD SWAP1 DUP3 ADD MSTORE PUSH1 0x60 DUP1 DUP7 ADD CALLDATALOAD PUSH2 0x5A21 DUP2 PUSH2 0x54CF JUMP JUMPDEST SWAP1 DUP3 ADD MSTORE DUP4 MSTORE PUSH1 0x80 SWAP4 SWAP1 SWAP4 ADD SWAP3 SWAP2 DUP5 ADD SWAP2 PUSH2 0x59CB JUMP JUMPDEST SWAP8 SWAP7 POP POP POP POP POP POP POP JUMP JUMPDEST PUSH4 0x4E487B71 PUSH1 0xE0 SHL PUSH1 0x0 MSTORE PUSH1 0x32 PUSH1 0x4 MSTORE PUSH1 0x24 PUSH1 0x0 REVERT JUMPDEST PUSH4 0x4E487B71 PUSH1 0xE0 SHL PUSH1 0x0 MSTORE PUSH1 0x11 PUSH1 0x4 MSTORE PUSH1 0x24 PUSH1 0x0 REVERT JUMPDEST PUSH1 0x0 PUSH1 0x0 NOT DUP3 EQ ISZERO PUSH2 0x5A82 JUMPI PUSH2 0x5A82 PUSH2 0x5A58 JUMP JUMPDEST POP PUSH1 0x1 ADD SWAP1 JUMP JUMPDEST PUSH1 0x0 DUP3 DUP3 LT ISZERO PUSH2 0x5A9B JUMPI PUSH2 0x5A9B PUSH2 0x5A58 JUMP JUMPDEST POP SUB SWAP1 JUMP JUMPDEST PUSH1 0x0 DUP3 NOT DUP3 GT ISZERO PUSH2 0x5AB3 JUMPI PUSH2 0x5AB3 PUSH2 0x5A58 JUMP JUMPDEST POP ADD SWAP1 JUMP JUMPDEST PUSH4 0x4E487B71 PUSH1 0xE0 SHL PUSH1 0x0 MSTORE PUSH1 0x31 PUSH1 0x4 MSTORE PUSH1 0x24 PUSH1 0x0 REVERT JUMPDEST PUSH1 0x20 DUP1 DUP3 MSTORE PUSH1 0x1 SWAP1 DUP3 ADD MSTORE PUSH1 0x35 PUSH1 0xF8 SHL PUSH1 0x40 DUP3 ADD MSTORE PUSH1 0x60 ADD SWAP1 JUMP JUMPDEST PUSH1 0x0 PUSH1 0x20 DUP3 DUP5 SUB SLT ISZERO PUSH2 0x5AFB JUMPI PUSH1 0x0 DUP1 REVERT JUMPDEST POP MLOAD SWAP2 SWAP1 POP JUMP JUMPDEST PUSH1 0x20 DUP1 DUP3 MSTORE PUSH1 0x2 SWAP1 DUP3 ADD MSTORE PUSH2 0x3133 PUSH1 0xF0 SHL PUSH1 0x40 DUP3 ADD MSTORE PUSH1 0x60 ADD SWAP1 JUMP JUMPDEST PUSH1 0x0 PUSH1 0x20 DUP3 DUP5 SUB SLT ISZERO PUSH2 0x5B30 JUMPI PUSH1 0x0 DUP1 REVERT JUMPDEST PUSH2 0x3E04 DUP3 PUSH2 0x55A1 JUMP JUMPDEST PUSH1 0x0 PUSH1 0x20 DUP3 DUP5 SUB SLT ISZERO PUSH2 0x5B4B JUMPI PUSH1 0x0 DUP1 REVERT JUMPDEST PUSH2 0x3E04 DUP3 PUSH2 0x5592 JUMP JUMPDEST PUSH1 0x20 DUP1 DUP3 MSTORE PUSH1 0x1 SWAP1 DUP3 ADD MSTORE PUSH1 0x39 PUSH1 0xF8 SHL PUSH1 0x40 DUP3 ADD MSTORE PUSH1 0x60 ADD SWAP1 JUMP JUMPDEST PUSH1 0x0 DUP2 PUSH1 0x0 NOT DIV DUP4 GT DUP3 ISZERO ISZERO AND ISZERO PUSH2 0x5B89 JUMPI PUSH2 0x5B89 PUSH2 0x5A58 JUMP JUMPDEST POP MUL SWAP1 JUMP JUMPDEST PUSH4 0x4E487B71 PUSH1 0xE0 SHL PUSH1 0x0 MSTORE PUSH1 0x12 PUSH1 0x4 MSTORE PUSH1 0x24 PUSH1 0x0 REVERT JUMPDEST PUSH1 0x0 DUP3 PUSH2 0x5BB3 JUMPI PUSH2 0x5BB3 PUSH2 0x5B8E JUMP JUMPDEST POP DIV SWAP1 JUMP JUMPDEST PUSH1 0x0 DUP1 DUP3 SLT DUP1 ISZERO PUSH1 0x1 PUSH1 0x1 PUSH1 0xFF SHL SUB DUP5 SWAP1 SUB DUP6 SGT AND ISZERO PUSH2 0x5BDA JUMPI PUSH2 0x5BDA PUSH2 0x5A58 JUMP JUMPDEST PUSH1 0x1 PUSH1 0xFF SHL DUP4 SWAP1 SUB DUP5 SLT DUP2 AND ISZERO PUSH2 0x5BF3 JUMPI PUSH2 0x5BF3 PUSH2 0x5A58 JUMP JUMPDEST POP POP ADD SWAP1 JUMP JUMPDEST PUSH1 0x0 PUSH1 0x1 PUSH1 0x1 PUSH1 0xFF SHL SUB DUP2 DUP5 SGT DUP3 DUP5 SGT DUP1 DUP3 AND DUP7 DUP5 DIV DUP7 GT AND ISZERO PUSH2 0x5C1F JUMPI PUSH2 0x5C1F PUSH2 0x5A58 JUMP JUMPDEST PUSH1 0x1 PUSH1 0xFF SHL PUSH1 0x0 DUP8 SLT DUP3 DUP2 AND DUP8 DUP4 SDIV DUP10 SLT AND ISZERO PUSH2 0x5C3E JUMPI PUSH2 0x5C3E PUSH2 0x5A58 JUMP JUMPDEST PUSH1 0x0 DUP8 SLT SWAP3 POP DUP8 DUP3 SDIV DUP8 SLT DUP5 DUP5 AND AND ISZERO PUSH2 0x5C5A JUMPI PUSH2 0x5C5A PUSH2 0x5A58 JUMP JUMPDEST DUP8 DUP6 SDIV DUP8 SLT DUP2 DUP5 AND AND ISZERO PUSH2 0x5C70 JUMPI PUSH2 0x5C70 PUSH2 0x5A58 JUMP JUMPDEST POP POP POP SWAP3 SWAP1 SWAP4 MUL SWAP4 SWAP3 POP POP POP JUMP JUMPDEST PUSH1 0x0 DUP3 PUSH2 0x5C8D JUMPI PUSH2 0x5C8D PUSH2 0x5B8E JUMP JUMPDEST PUSH1 0x1 PUSH1 0xFF SHL DUP3 EQ PUSH1 0x0 NOT DUP5 EQ AND ISZERO PUSH2 0x5CA7 JUMPI PUSH2 0x5CA7 PUSH2 0x5A58 JUMP JUMPDEST POP SDIV SWAP1 JUMP JUMPDEST PUSH1 0x0 DUP1 DUP4 SLT DUP1 ISZERO PUSH1 0x1 PUSH1 0xFF SHL DUP6 ADD DUP5 SLT AND ISZERO PUSH2 0x5CCA JUMPI PUSH2 0x5CCA PUSH2 0x5A58 JUMP JUMPDEST PUSH1 0x1 PUSH1 0x1 PUSH1 0xFF SHL SUB DUP5 ADD DUP4 SGT DUP2 AND ISZERO PUSH2 0x5CE5 JUMPI PUSH2 0x5CE5 PUSH2 0x5A58 JUMP JUMPDEST POP POP SUB SWAP1 JUMP JUMPDEST PUSH1 0x0 PUSH5 0xFFFFFFFFFF DUP1 DUP4 AND DUP2 DUP2 EQ ISZERO PUSH2 0x5D06 JUMPI PUSH2 0x5D06 PUSH2 0x5A58 JUMP JUMPDEST PUSH1 0x1 ADD SWAP4 SWAP3 POP POP POP JUMP JUMPDEST PUSH1 0x0 PUSH2 0xFFFF DUP1 DUP4 AND DUP2 DUP2 EQ ISZERO PUSH2 0x5D06 JUMPI PUSH2 0x5D06 PUSH2 0x5A58 JUMP JUMPDEST PUSH1 0x0 PUSH1 0x20 DUP3 DUP5 SUB SLT ISZERO PUSH2 0x5D3A JUMPI PUSH1 0x0 DUP1 REVERT JUMPDEST DUP2 MLOAD DUP1 ISZERO ISZERO DUP2 EQ PUSH2 0x3E04 JUMPI PUSH1 0x0 DUP1 REVERT JUMPDEST PUSH1 0x1 DUP2 DUP2 SHR SWAP1 DUP3 AND DUP1 PUSH2 0x5D5E JUMPI PUSH1 0x7F DUP3 AND SWAP2 POP JUMPDEST PUSH1 0x20 DUP3 LT DUP2 EQ ISZERO PUSH2 0x5D7F JUMPI PUSH4 0x4E487B71 PUSH1 0xE0 SHL PUSH1 0x0 MSTORE PUSH1 0x22 PUSH1 0x4 MSTORE PUSH1 0x24 PUSH1 0x0 REVERT JUMPDEST POP SWAP2 SWAP1 POP JUMP JUMPDEST PUSH1 0x0 PUSH5 0xFFFFFFFFFF DUP1 DUP5 AND DUP1 PUSH2 0x5D9D JUMPI PUSH2 0x5D9D PUSH2 0x5B8E JUMP JUMPDEST SWAP3 AND SWAP2 SWAP1 SWAP2 DIV SWAP3 SWAP2 POP POP JUMP JUMPDEST PUSH1 0x0 PUSH12 0xFFFFFFFFFFFFFFFFFFFFFFFF NOT DUP1 DUP9 PUSH1 0x60 SHL AND DUP4 MSTORE DUP1 DUP8 PUSH1 0x60 SHL AND PUSH1 0x14 DUP5 ADD MSTORE POP PUSH2 0xFFFF PUSH1 0xF0 SHL DUP6 PUSH1 0xF0 SHL AND PUSH1 0x28 DUP4 ADD MSTORE DUP4 MLOAD PUSH2 0x5DF0 DUP2 PUSH1 0x2A DUP6 ADD PUSH1 0x20 DUP9 ADD PUSH2 0x56A5 JUMP JUMPDEST PUSH1 0x2A SWAP3 ADD SWAP2 DUP3 ADD SWAP3 SWAP1 SWAP3 MSTORE PUSH1 0x4A ADD SWAP6 SWAP5 POP POP POP POP POP JUMP JUMPDEST PUSH1 0x0 PUSH5 0xFFFFFFFFFF DUP1 DUP5 AND DUP1 PUSH2 0x5E1F JUMPI PUSH2 0x5E1F PUSH2 0x5B8E JUMP JUMPDEST SWAP3 AND SWAP2 SWAP1 SWAP2 MOD SWAP3 SWAP2 POP POP JUMP JUMPDEST PUSH1 0x0 PUSH5 0xFFFFFFFFFF DUP1 DUP4 AND DUP2 DUP6 AND DUP2 DUP4 DIV DUP2 GT DUP3 ISZERO ISZERO AND ISZERO PUSH2 0x5E4F JUMPI PUSH2 0x5E4F PUSH2 0x5A58 JUMP JUMPDEST MUL SWAP5 SWAP4 POP POP POP POP JUMP JUMPDEST PUSH1 0x0 DUP3 PUSH2 0x5E67 JUMPI PUSH2 0x5E67 PUSH2 0x5B8E JUMP JUMPDEST POP MOD SWAP1 JUMP INVALID LOG2 PUSH5 0x6970667358 0x22 SLT KECCAK256 CHAINID MULMOD 0x5F SELFBALANCE SELFBALANCE ADDRESS SWAP6 SWAP3 0xEF 0xBF 0xF 0x24 SWAP5 ADD 0xD0 0x49 0xEA 0xB2 0xBA PUSH29 0xDB5DE193F86AB07A6FF2F92E64736F6C63430008090033000000000000 "},"methodIdentifiers":{"addBatchTransactions((address,uint40,uint256,address)[])":"d10fa144","addERC20Contract(address)":"ab7e0909","addTransaction(address,uint40,uint256,address)":"80423444","cancelSubscription((bytes32,uint256,address,bool,bool,address,uint8,uint16,string))":"de005f7c","cancelTransaction(bytes32,uint40,address)":"2a2b3690","changeAdmin(address)":"8f283970","changeFee(uint256)":"6a1db1bf","changeFixedFee(uint256)":"8e83ac4a","chargeSubs()":"dc700089","checkTime()":"e0c6190d","createSubscription(uint256,address,string,uint8,uint16)":"3084f79e","getAccountSubscriptions()":"7ce1ef39","getAccountTransactions()":"c682cce4","getFee()":"ced72f87","getTotalClaims(address)":"13b51234","removeERC20Contract(address)":"053149fa","sendTime()":"aa58a5b0","subscribe((bytes32,uint256,address,bool,bool,address,uint8,uint16,string))":"2c04c453","toggleContractActive()":"1385d24c","unixToDays(uint256)":"93bc8413","unsubscribe(bytes32)":"f8c60146"}}}}}