{"contracts/Clocktower.sol":{"Clocktower":{"abi":[{"inputs":[],"stateMutability":"payable","type":"constructor"},{"anonymous":false,"inputs":[{"indexed":false,"internalType":"string","name":"output4","type":"string"}],"name":"AccountCreated","type":"event"},{"anonymous":false,"inputs":[{"indexed":false,"internalType":"string","name":"output2","type":"string"}],"name":"CheckStatus","type":"event"},{"anonymous":false,"inputs":[{"indexed":false,"internalType":"address","name":"user","type":"address"},{"indexed":false,"internalType":"uint256","name":"amount","type":"uint256"}],"name":"ReceiveETH","type":"event"},{"anonymous":false,"inputs":[{"indexed":false,"internalType":"string","name":"output","type":"string"}],"name":"StatusEmit","type":"event"},{"anonymous":false,"inputs":[{"indexed":false,"internalType":"address","name":"sender","type":"address"},{"indexed":false,"internalType":"address","name":"receiver","type":"address"},{"indexed":false,"internalType":"uint40","name":"timeTrigger","type":"uint40"},{"indexed":false,"internalType":"uint256","name":"payload","type":"uint256"}],"name":"TransactionAdd","type":"event"},{"anonymous":false,"inputs":[{"indexed":false,"internalType":"bool","name":"sent","type":"bool"}],"name":"TransactionSent","type":"event"},{"anonymous":false,"inputs":[{"indexed":false,"internalType":"string","name":"output3","type":"string"}],"name":"UnknownFunction","type":"event"},{"stateMutability":"payable","type":"fallback"},{"inputs":[{"components":[{"internalType":"address payable","name":"receiver","type":"address"},{"internalType":"uint40","name":"unixTime","type":"uint40"},{"internalType":"uint256","name":"payload","type":"uint256"},{"internalType":"address","name":"token","type":"address"}],"internalType":"struct Clocktower.Batch[]","name":"batch","type":"tuple[]"}],"name":"addBatchTransactions","outputs":[],"stateMutability":"payable","type":"function"},{"inputs":[{"internalType":"address","name":"erc20Contract","type":"address"}],"name":"addERC20Contract","outputs":[],"stateMutability":"nonpayable","type":"function"},{"inputs":[{"internalType":"address payable","name":"receiver","type":"address"},{"internalType":"uint40","name":"unixTime","type":"uint40"},{"internalType":"uint256","name":"payload","type":"uint256"},{"internalType":"address","name":"token","type":"address"},{"components":[{"internalType":"address","name":"owner","type":"address"},{"internalType":"address","name":"spender","type":"address"},{"internalType":"uint256","name":"value","type":"uint256"},{"internalType":"uint256","name":"deadline","type":"uint256"},{"internalType":"uint8","name":"v","type":"uint8"},{"internalType":"bytes32","name":"r","type":"bytes32"},{"internalType":"bytes32","name":"s","type":"bytes32"}],"internalType":"struct Clocktower.Permit","name":"permit","type":"tuple"}],"name":"addPermitTransaction","outputs":[],"stateMutability":"payable","type":"function"},{"inputs":[{"internalType":"address payable","name":"receiver","type":"address"},{"internalType":"uint40","name":"unixTime","type":"uint40"},{"internalType":"uint256","name":"payload","type":"uint256"},{"internalType":"address","name":"token","type":"address"}],"name":"addTransaction","outputs":[],"stateMutability":"payable","type":"function"},{"inputs":[],"name":"allAccounts","outputs":[{"components":[{"internalType":"address","name":"accountAddress","type":"address"},{"internalType":"bool","name":"exists","type":"bool"},{"internalType":"uint40[]","name":"timeTriggers","type":"uint40[]"}],"internalType":"struct Clocktower.Account[]","name":"","type":"tuple[]"}],"stateMutability":"view","type":"function"},{"inputs":[],"name":"allTransactions","outputs":[{"components":[{"internalType":"bytes32","name":"id","type":"bytes32"},{"internalType":"address","name":"sender","type":"address"},{"internalType":"address payable","name":"receiver","type":"address"},{"internalType":"address","name":"token","type":"address"},{"internalType":"uint40","name":"timeTrigger","type":"uint40"},{"internalType":"enum Clocktower.Status","name":"status","type":"uint8"},{"internalType":"uint256","name":"payload","type":"uint256"}],"internalType":"struct Clocktower.Transaction[]","name":"","type":"tuple[]"}],"stateMutability":"view","type":"function"},{"inputs":[{"internalType":"bytes32","name":"id","type":"bytes32"},{"internalType":"uint40","name":"unixTrigger","type":"uint40"},{"internalType":"address","name":"token","type":"address"}],"name":"cancelTransaction","outputs":[],"stateMutability":"payable","type":"function"},{"inputs":[{"internalType":"address","name":"newAddress","type":"address"}],"name":"changeAdmin","outputs":[],"stateMutability":"nonpayable","type":"function"},{"inputs":[{"internalType":"uint256","name":"_fee","type":"uint256"}],"name":"changeFee","outputs":[],"stateMutability":"nonpayable","type":"function"},{"inputs":[{"internalType":"uint256","name":"_fixed_fee","type":"uint256"}],"name":"changeFixedFee","outputs":[],"stateMutability":"nonpayable","type":"function"},{"inputs":[],"name":"checkTime","outputs":[{"internalType":"bool","name":"","type":"bool"}],"stateMutability":"view","type":"function"},{"inputs":[],"name":"getAccountTransactions","outputs":[{"components":[{"internalType":"bytes32","name":"id","type":"bytes32"},{"internalType":"address","name":"sender","type":"address"},{"internalType":"address payable","name":"receiver","type":"address"},{"internalType":"address","name":"token","type":"address"},{"internalType":"uint40","name":"timeTrigger","type":"uint40"},{"internalType":"enum Clocktower.Status","name":"status","type":"uint8"},{"internalType":"uint256","name":"payload","type":"uint256"}],"internalType":"struct Clocktower.Transaction[]","name":"","type":"tuple[]"}],"stateMutability":"view","type":"function"},{"inputs":[],"name":"getFee","outputs":[{"internalType":"uint256","name":"","type":"uint256"}],"stateMutability":"view","type":"function"},{"inputs":[],"name":"getTime","outputs":[{"internalType":"uint256","name":"","type":"uint256"}],"stateMutability":"view","type":"function"},{"inputs":[{"internalType":"address","name":"token","type":"address"}],"name":"getTotalClaims","outputs":[{"internalType":"uint256","name":"","type":"uint256"}],"stateMutability":"view","type":"function"},{"inputs":[{"internalType":"address","name":"account","type":"address"}],"name":"getTransactionsByAccount","outputs":[{"components":[{"internalType":"bytes32","name":"id","type":"bytes32"},{"internalType":"address","name":"sender","type":"address"},{"internalType":"address payable","name":"receiver","type":"address"},{"internalType":"address","name":"token","type":"address"},{"internalType":"uint40","name":"timeTrigger","type":"uint40"},{"internalType":"enum Clocktower.Status","name":"status","type":"uint8"},{"internalType":"uint256","name":"payload","type":"uint256"}],"internalType":"struct Clocktower.Transaction[]","name":"","type":"tuple[]"}],"stateMutability":"view","type":"function"},{"inputs":[{"internalType":"uint40","name":"unixTime","type":"uint40"}],"name":"hoursToDayOfMonth","outputs":[],"stateMutability":"view","type":"function"},{"inputs":[{"internalType":"address","name":"erc20Contract","type":"address"}],"name":"removeERC20Contract","outputs":[],"stateMutability":"nonpayable","type":"function"},{"inputs":[],"name":"sendTime","outputs":[],"stateMutability":"nonpayable","type":"function"},{"inputs":[],"name":"toggleContractActive","outputs":[],"stateMutability":"nonpayable","type":"function"},{"stateMutability":"payable","type":"receive"}],"evm":{"bytecode":{"linkReferences":{},"object":"6080604052600080546001600160a01b03191673f39fd6e51aad88f6f4ce6ab8827279cfffb9226617905560646001908155662386f26fc10000600255600b805460ff19169055620000514262000085565b6200005d91906200009b565b600b60016101000a81548164ffffffffff021916908364ffffffffff16021790555062000103565b600062000095610e1083620000d0565b92915050565b600064ffffffffff83811690831681811015620000c857634e487b7160e01b600052601160045260246000fd5b039392505050565b600064ffffffffff80841680620000f757634e487b7160e01b600052601260045260246000fd5b92169190910492915050565b614c8880620001136000396000f3fe6080604052600436106101235760003560e01c80638f475881116100a0578063ced72f8711610064578063ced72f871461037a578063cf783d8a1461038f578063d10fa144146103b1578063dc9961eb146103c4578063e0c6190d146103e457610163565b80638f475881146102fd578063a1c06d341461031d578063aa58a5b014610330578063ab7e090914610345578063c682cce41461036557610163565b8063557ed1ba116100e7578063557ed1ba146102775780636a1db1bf1461028a57806380423444146102aa5780638e83ac4a146102bd5780638f283970146102dd57610163565b8063053149fa146101b55780631385d24c146101d757806313b51234146101ec5780631ccb3371146102425780632a2b36901461026457610163565b3661016357604080513381523460208201527f830d2d700a97af574b186c80d40429385d24241565b08a7c559ba283a964d9b191015b60405180910390a1005b7f19525a32afaad9a5491805c356597487a306fc2f4e8541d8d55e1fe951091e606040516101599060208082526010908201526f2ab735b737bbb710333ab731ba34b7b760811b604082015260600190565b3480156101c157600080fd5b506101d56101d036600461442d565b610409565b005b3480156101e357600080fd5b506101d5610633565b3480156101f857600080fd5b5061022f61020736600461442d565b3360009081526007602090815260408083206001600160a01b03949094168352929052205490565b6040519081526020015b60405180910390f35b34801561024e57600080fd5b50610257610671565b6040516102399190614467565b6101d5610272366004614534565b6107bb565b34801561028357600080fd5b504261022f565b34801561029657600080fd5b506101d56102a5366004614574565b610a21565b6101d56102b836600461458d565b610a50565b3480156102c957600080fd5b506101d56102d8366004614574565b610e31565b3480156102e957600080fd5b506101d56102f836600461442d565b610e60565b34801561030957600080fd5b506101d56103183660046145de565b610ed5565b6101d561032b3660046145f9565b61102e565b34801561033c57600080fd5b506101d5611492565b34801561035157600080fd5b506101d561036036600461442d565b611664565b34801561037157600080fd5b50610257611749565b34801561038657600080fd5b5060015461022f565b34801561039b57600080fd5b506103a4611c2d565b6040516102399190614668565b6101d56103bf366004614794565b611dec565b3480156103d057600080fd5b506102576103df36600461442d565b6129eb565b3480156103f057600080fd5b506103f9612ef8565b6040519015158152602001610239565b6000546001600160a01b0316331461043c5760405162461bcd60e51b81526004016104339061488f565b60405180910390fd5b6001600160a01b03811661044f57600080fd5b610458816130b0565b6104a45760405162461bcd60e51b815260206004820152601960248201527f455243323020746f6b656e206e6f7420616464656420796574000000000000006044820152606401610433565b6000600a8054806020026020016040519081016040528092919081815260200182805480156104fc57602002820191906000526020600020905b81546001600160a01b031681526001909101906020018083116104de575b505050505090506000805b825181101561055d57836001600160a01b031683828151811061052c5761052c6148c6565b60200260200101516001600160a01b0316141561054b5780915061055d565b80610555816148f2565b915050610507565b50805b600a5461056f9060019061490d565b8110156105fa57600a610583826001614924565b81548110610593576105936148c6565b600091825260209091200154600a80546001600160a01b0390921691839081106105bf576105bf6148c6565b600091825260209091200180546001600160a01b0319166001600160a01b0392909216919091179055806105f2816148f2565b915050610560565b50600a80548061060c5761060c61493c565b600082815260209020810160001990810180546001600160a01b0319169055019055505050565b6000546001600160a01b0316331461065d5760405162461bcd60e51b81526004016104339061488f565b600b805460ff19811660ff90911615179055565b6000546060906001600160a01b0316331461069e5760405162461bcd60e51b81526004016104339061488f565b60065460009067ffffffffffffffff8111156106bc576106bc614724565b6040519080825280602002602001820160405280156106f557816020015b6106e261432f565b8152602001906001900390816106da5790505b5090506000805b6004548110156107b35760006107386004838154811061071e5761071e6148c6565b6000918252602090912001546001600160a01b03166129eb565b905060005b815181101561079e57818181518110610758576107586148c6565b6020026020010151858581518110610772576107726148c6565b60200260200101819052508380610788906148f2565b9450508080610796906148f2565b91505061073d565b505080806107ab906148f2565b9150506106fc565b509091505090565b60006107c683613171565b64ffffffffff8116600090815260056020908152604080832080548251818502810185019093528083529495509293909291849084015b828210156108bc5760008481526020908190206040805160e081018252600586029092018054835260018101546001600160a01b039081169484019490945260028101548416918301919091526003808201549384166060840152600160a01b840464ffffffffff1660808401529192909160a0840191600160c81b900460ff169081111561088e5761088e614451565b600381111561089f5761089f614451565b8152602001600482015481525050815260200190600101906107fd565b5050505090506108ca61432f565b60005b825181101561092e57868382815181106108e9576108e96148c6565b602002602001015160000151141561091c5782818151811061090d5761090d6148c6565b6020026020010151915061092e565b80610926816148f2565b9150506108cd565b5061094181600001518260800151613185565b6001600160a01b038416156109935760c08101513360009081526007602090815260408083206001600160a01b03891684529091528120805490919061098890849061490d565b90915550610a199050565b60c08101513360009081526007602090815260408083206001600160a01b0389168452909152812080549091906109cb90849061490d565b909155505060c081015147116109e057600080fd5b80602001516001600160a01b03166108fc8260c001519081150290604051600060405180830381858888f19350505050610a1957600080fd5b505050505050565b6000546001600160a01b03163314610a4b5760405162461bcd60e51b81526004016104339061488f565b600155565b600b5460ff16610e2b57428364ffffffffff1611610a805760405162461bcd60e51b815260040161043390614952565b610a8c610e108461499f565b64ffffffffff1615610ab05760405162461bcd60e51b8152600401610433906149c3565b6001600160a01b038116610afc5734606460015484610acf91906149fa565b610ad99190614a19565b1115610af75760405162461bcd60e51b815260040161043390614a2d565b610c0f565b346002541115610b1e5760405162461bcd60e51b815260040161043390614a2d565b610b27816130b0565b610b435760405162461bcd60e51b815260040161043390614a71565b3360009081526007602090815260408083206001600160a01b0385168452909152902054610b72908390614924565b604051636eb1769f60e11b81523360048201523060248201526001600160a01b0383169063dd62ed3e90604401602060405180830381600087803b158015610bb957600080fd5b505af1158015610bcd573d6000803e3d6000fd5b505050506040513d601f19601f82011682018060405250810190610bf19190614ab6565b1015610c0f5760405162461bcd60e51b815260040161043390614acf565b6000610c1a84613171565b90506000610c2b3387858588613521565b64ffffffffff8084166000908152600560208181526040808420805460018181018355918652948390208751959094029093019384559085015191830180546001600160a01b039384166001600160a01b03199182161790915590850151600284018054918416919092161790556060840151600380840180546080880151909616600160a01b026001600160c81b031990961692909316919091179390931780825560a08501519495508594929360ff60c81b1990911690600160c81b908490811115610cfb57610cfb614451565b021790555060c09190910151600490910155604080513381526001600160a01b038816602082015264ffffffffff8416818301526060810186905290517f6e643cb89831cd75ded50b4ecee0e313701b6002fc48e8b80a3c05447ab066e89181900360800190a17f2c06bed8138ca0b30c30e7fa7c205e13fbb1c8678af7ff308ebd77eee8459c87604051610daa90602080825260069082015265141d5cda195960d21b604082015260600190565b60405180910390a18051600680546001810182556000919091527ff652222313e28459528d920b65115c16c04f3efc82aaedc97be59f3f377c0d3f0155610df0826135ef565b3360009081526007602090815260408083206001600160a01b038716845290915281208054869290610e23908490614924565b909155505050505b50505050565b6000546001600160a01b03163314610e5b5760405162461bcd60e51b81526004016104339061488f565b600255565b6000546001600160a01b03163314610e8a5760405162461bcd60e51b81526004016104339061488f565b336001600160a01b038216148015610eaa57506001600160a01b03811615155b610eb357600080fd5b600080546001600160a01b0319166001600160a01b0392909216919091179055565b60005a9050610ee3816137a5565b610eef610e108361499f565b64ffffffffff1615610f135760405162461bcd60e51b8152600401610433906149c3565b6000610f21610e1084614b24565b64ffffffffff1690506000610f3861223883614b48565b905060006004612238610f4d6144708661490d565b610f579190614a19565b610f619190614a19565b9050610f6e60018261490d565b610f799060186149fa565b610f83908361490d565b91506000610f92601884614a19565b90506000610fa383620151806149fa565b90506000610fb88264ffffffffff8a1661490d565b90506000610fc5896137ea565b15610fdf57610fd86301e2850083614b48565b9050610ff0565b610fed6301e1338083614b48565b90505b6000610fff6201518083614a19565b905061100a816137a5565b611013866137a5565b60005a9050611021816137a5565b5050505050505050505050565b600b5460ff1661148b57428464ffffffffff161161105e5760405162461bcd60e51b815260040161043390614952565b61106a610e108561499f565b64ffffffffff161561108e5760405162461bcd60e51b8152600401610433906149c3565b6001600160a01b0382166110da57346064600154856110ad91906149fa565b6110b79190614a19565b11156110d55760405162461bcd60e51b815260040161043390614a2d565b611193565b3460025411156110fc5760405162461bcd60e51b815260040161043390614a2d565b611105826130b0565b6111215760405162461bcd60e51b815260040161043390614a71565b80604001358311156111935760405162461bcd60e51b815260206004820152603560248201527f5061796c6f6164206d757374206265206c657373207468616e206f7220657175604482015274185b081d1bc81d985b1d59481c195c9b5a5d1d1959605a1b6064820152608401610433565b600061119e85613171565b905060006111af3388868589613521565b64ffffffffff8084166000908152600560208181526040808420805460018181018355918652948390208751959094029093019384559085015191830180546001600160a01b039384166001600160a01b03199182161790915590850151600284018054918416919092161790556060840151600380840180546080880151909616600160a01b026001600160c81b031990961692909316919091179390931780825560a08501519495508594929360ff60c81b1990911690600160c81b90849081111561127f5761127f614451565b021790555060c09190910151600490910155604080513381526001600160a01b038916602082015264ffffffffff8416818301526060810187905290517f6e643cb89831cd75ded50b4ecee0e313701b6002fc48e8b80a3c05447ab066e89181900360800190a17f2c06bed8138ca0b30c30e7fa7c205e13fbb1c8678af7ff308ebd77eee8459c8760405161132e90602080825260069082015265141d5cda195960d21b604082015260600190565b60405180910390a18051600680546001810182556000919091527ff652222313e28459528d920b65115c16c04f3efc82aaedc97be59f3f377c0d3f0155611374826135ef565b3360009081526007602090815260408083206001600160a01b0388168452909152812080548792906113a7908490614924565b90915550506001600160a01b03841615611488576001600160a01b03841663d505accf6113d7602086018661442d565b6113e7604087016020880161442d565b6040870135606088013561140160a08a0160808b01614b5c565b6040516001600160e01b031960e088901b1681526001600160a01b0395861660048201529490931660248501526044840191909152606483015260ff16608482015260a086013560a482015260c086013560c482015260e401600060405180830381600087803b15801561147457600080fd5b505af1158015611021573d6000803e3d6000fd5b50505b5050505050565b6000546001600160a01b031633146114bc5760405162461bcd60e51b81526004016104339061488f565b60006114c742613171565b600b5490915064ffffffffff6101009091048116908216116114fb5760405162461bcd60e51b815260040161043390614b7f565b600b54610100900464ffffffffff165b8164ffffffffff168164ffffffffff161161163f5764ffffffffff8116600090815260056020908152604080832080548251818502810185019093528083529192909190849084015b828210156116135760008481526020908190206040805160e081018252600586029092018054835260018101546001600160a01b039081169484019490945260028101548416918301919091526003808201549384166060840152600160a01b840464ffffffffff1660808401529192909160a0840191600160c81b900460ff16908111156115e5576115e5614451565b60038111156115f6576115f6614451565b815260200160048201548152505081526020019060010190611554565b50505050905060008151111561162c5761162c816138af565b508061163781614bc6565b91505061150b565b50600b805464ffffffffff9092166101000265ffffffffff0019909216919091179055565b6000546001600160a01b0316331461168e5760405162461bcd60e51b81526004016104339061488f565b6001600160a01b0381166116a157600080fd5b6116aa816130b0565b156116f75760405162461bcd60e51b815260206004820152601960248201527f455243323020746f6b656e20616c7265616479206164646564000000000000006044820152606401610433565b600a80546001810182556000919091527fc65a7bb8d6351c1cf70c95a316cc6a92839c986682d98bc35f958f4883f9d2a80180546001600160a01b0319166001600160a01b0392909216919091179055565b3360009081526003602090815260408083206001018054825181850281018501909352808352606094938301828280156117d057602002820191906000526020600020906000905b82829054906101000a900464ffffffffff1664ffffffffff16815260200190600501906020826004010492830192600103820291508084116117915790505b505050505090506000805b8251811015611928576000600560008584815181106117fc576117fc6148c6565b602002602001015164ffffffffff1664ffffffffff168152602001908152602001600020805480602002602001604051908101604052809291908181526020016000905b828210156118ff5760008481526020908190206040805160e081018252600586029092018054835260018101546001600160a01b039081169484019490945260028101548416918301919091526003808201549384166060840152600160a01b840464ffffffffff1660808401529192909160a0840191600160c81b900460ff16908111156118d1576118d1614451565b60038111156118e2576118e2614451565b815260200160048201548152505081526020019060010190611840565b5050505090508051836119129190614924565b9250508080611920906148f2565b9150506117db565b5060008167ffffffffffffffff81111561194457611944614724565b60405190808252806020026020018201604052801561197d57816020015b61196a61432f565b8152602001906001900390816119625790505b50905060008267ffffffffffffffff81111561199b5761199b614724565b6040519080825280602002602001820160405280156119d457816020015b6119c161432f565b8152602001906001900390816119b95790505b5090506000805b8551811015611bb157600560008783815181106119fa576119fa6148c6565b602002602001015164ffffffffff1664ffffffffff168152602001908152602001600020805480602002602001604051908101604052809291908181526020016000905b82821015611afd5760008481526020908190206040805160e081018252600586029092018054835260018101546001600160a01b039081169484019490945260028101548416918301919091526003808201549384166060840152600160a01b840464ffffffffff1660808401529192909160a0840191600160c81b900460ff1690811115611acf57611acf614451565b6003811115611ae057611ae0614451565b815260200160048201548152505081526020019060010190611a3e565b50505050935060005b8451811015611b9e57336001600160a01b0316858281518110611b2b57611b2b6148c6565b6020026020010151602001516001600160a01b03161415611b8c57848181518110611b5857611b586148c6565b6020026020010151848481518110611b7257611b726148c6565b60200260200101819052508280611b88906148f2565b9350505b80611b96816148f2565b915050611b06565b5080611ba9816148f2565b9150506119db565b5060005b8251811015611c2257611be4838281518110611bd357611bd36148c6565b602002602001015160800151614073565b838281518110611bf657611bf66148c6565b602090810291909101015164ffffffffff90911660809091015280611c1a816148f2565b915050611bb5565b509095945050505050565b6000546060906001600160a01b03163314611c5a5760405162461bcd60e51b81526004016104339061488f565b60045460009067ffffffffffffffff811115611c7857611c78614724565b604051908082528060200260200182016040528015611cc557816020015b60408051606080820183526000808352602083015291810191909152815260200190600190039081611c965790505b50905060005b600454811015611de6576003600060048381548110611cec57611cec6148c6565b6000918252602080832091909101546001600160a01b039081168452838201949094526040928301909120825160608101845281549485168152600160a01b90940460ff1615158483015260018101805484518185028101850186528181529294860193830182828015611dad57602002820191906000526020600020906000905b82829054906101000a900464ffffffffff1664ffffffffff1681526020019060050190602082600401049283019260010382029150808411611d6e5790505b505050505081525050828281518110611dc857611dc86148c6565b60200260200101819052508080611dde906148f2565b915050611ccb565b50905090565b600b5460ff166129e85760018151118015611e08575060648151105b611e7a5760405162461bcd60e51b815260206004820152603b60248201527f4261746368206d7573742068617665206d6f7265207468616e206f6e6520747260448201527f616e73616374696f6e20616e64206c657373207468616e2031303000000000006064820152608401610433565b611ea56040518060800160405280600081526020016000815260200160008152602001606081525090565b348251600254611eb591906149fa565b1115611ed35760405162461bcd60e51b815260040161043390614a2d565b600a5460009067ffffffffffffffff811115611ef157611ef1614724565b604051908082528060200260200182016040528015611f1a578160200160208202803683370190505b503360009081526003602052604081206001015491925090611f3d906064614924565b67ffffffffffffffff811115611f5557611f55614724565b604051908082528060200260200182016040528015611f7e578160200160208202803683370190505b50905060005b84518110156124575742858281518110611fa057611fa06148c6565b60200260200101516020015164ffffffffff1611611fd05760405162461bcd60e51b815260040161043390614952565b610e10858281518110611fe557611fe56148c6565b602002602001015160200151611ffb919061499f565b64ffffffffff161561201f5760405162461bcd60e51b8152600401610433906149c3565b6000612047868381518110612036576120366148c6565b602002602001015160200151613171565b90506120538184614081565b6120a157808386604001518151811061206e5761206e6148c6565b602002602001019064ffffffffff16908164ffffffffff168152505060018560400181815161209d9190614924565b9052505b60006001600160a01b03168683815181106120be576120be6148c6565b6020026020010151606001516001600160a01b03161415612110578582815181106120eb576120eb6148c6565b602002602001015160400151856000018181516121089190614924565b905250612335565b612136868381518110612125576121256148c6565b6020026020010151606001516130b0565b6121525760405162461bcd60e51b815260040161043390614a71565b858281518110612164576121646148c6565b60200260200101516040015160076000336001600160a01b03166001600160a01b0316815260200190815260200160002060008885815181106121a9576121a96148c6565b6020026020010151606001516001600160a01b03166001600160a01b03168152602001908152602001600020546121e09190614924565b8683815181106121f2576121f26148c6565b602090810291909101015160600151604051636eb1769f60e11b81523360048201523060248201526001600160a01b039091169063dd62ed3e90604401602060405180830381600087803b15801561224957600080fd5b505af115801561225d573d6000803e3d6000fd5b505050506040513d601f19601f820116820180604052508101906122819190614ab6565b101561229f5760405162461bcd60e51b815260040161043390614acf565b6122c68683815181106122b4576122b46148c6565b602002602001015160600151856140e3565b612335578582815181106122dc576122dc6148c6565b602002602001015160600151848660200151815181106122fe576122fe6148c6565b60200260200101906001600160a01b031690816001600160a01b0316815250506001856020018181516123319190614924565b9052505b858281518110612347576123476148c6565b60200260200101516040015160086000888581518110612369576123696148c6565b6020026020010151606001516001600160a01b03166001600160a01b0316815260200190815260200160002060008282546123a49190614924565b925050819055508582815181106123bd576123bd6148c6565b60200260200101516040015160076000336001600160a01b03166001600160a01b031681526020019081526020016000206000888581518110612402576124026148c6565b6020026020010151606001516001600160a01b03166001600160a01b03168152602001908152602001600020600082825461243d9190614924565b9091555082915061244f9050816148f2565b915050611f84565b346064600154866000015161246c91906149fa565b6124769190614a19565b11156124945760405162461bcd60e51b815260040161043390614a2d565b5060005b81518110156126fc578181815181106124b3576124b36148c6565b602002602001015164ffffffffff16600014156124cf576126fc565b60005b85518161ffff1610156126e95760006124fa878361ffff1681518110612036576120366148c6565b905083838151811061250e5761250e6148c6565b602002602001015164ffffffffff168164ffffffffff1614156126d657600061259d33898561ffff1681518110612547576125476148c6565b6020026020010151600001518a8661ffff1681518110612569576125696148c6565b602002602001015160600151858c8861ffff168151811061258c5761258c6148c6565b602002602001015160400151613521565b905080600560008787815181106125b6576125b66148c6565b60209081029190910181015164ffffffffff908116835282820193909352604091820160009081208054600181810183559183529183902086516005909302019182559185015191810180546001600160a01b039384166001600160a01b0319918216179091559285015160028201805491841691909416179092556060840151600380840180546080880151909616600160a01b026001600160c81b031990961692909316919091179390931780825560a0850151929360ff60c81b1990911690600160c81b90849081111561268f5761268f614451565b021790555060c0919091015160049091015551600680546001810182556000919091527ff652222313e28459528d920b65115c16c04f3efc82aaedc97be59f3f377c0d3f01555b50806126e181614beb565b9150506124d2565b50806126f4816148f2565b915050612498565b5060005b825181101561295a5760006001600160a01b0316838281518110612726576127266148c6565b60200260200101516001600160a01b0316146129035760086000848381518110612752576127526148c6565b60200260200101516001600160a01b03166001600160a01b031681526020019081526020016000205483828151811061278d5761278d6148c6565b6020908102919091010151604051636eb1769f60e11b81523360048201523060248201526001600160a01b039091169063dd62ed3e90604401602060405180830381600087803b1580156127e057600080fd5b505af11580156127f4573d6000803e3d6000fd5b505050506040513d601f19601f820116820180604052508101906128189190614ab6565b101580156128fa575060086000848381518110612837576128376148c6565b60200260200101516001600160a01b03166001600160a01b0316815260200190815260200160002054838281518110612872576128726148c6565b60209081029190910101516040516370a0823160e01b81523360048201526001600160a01b03909116906370a0823190602401602060405180830381600087803b1580156128bf57600080fd5b505af11580156128d3573d6000803e3d6000fd5b505050506040513d601f19601f820116820180604052508101906128f79190614ab6565b10155b61290357600080fd5b60006008600085848151811061291b5761291b6148c6565b60200260200101516001600160a01b03166001600160a01b03168152602001908152602001600020819055508080612952906148f2565b915050612700565b33600090815260036020526040902054600160a01b900460ff1661148b5733600081815260036020526040812080546001600160a01b03199081168417825560048054600181019091557f8a35acfbc15ff81a39ae7d344fd709f28e8600b4aa8c65c6b64bfe7fe36bd19b01805490911684179055919052805460ff60a01b1916600160a01b179055505050505b50565b6000546060906001600160a01b03163314612a185760405162461bcd60e51b81526004016104339061488f565b6001600160a01b038216600090815260036020908152604080832060010180548251818502810185019093528083529192909190830182828015612aa957602002820191906000526020600020906000905b82829054906101000a900464ffffffffff1664ffffffffff1681526020019060050190602082600401049283019260010382029150808411612a6a5790505b505050505090506000805b8251811015612c0157600060056000858481518110612ad557612ad56148c6565b602002602001015164ffffffffff1664ffffffffff168152602001908152602001600020805480602002602001604051908101604052809291908181526020016000905b82821015612bd85760008481526020908190206040805160e081018252600586029092018054835260018101546001600160a01b039081169484019490945260028101548416918301919091526003808201549384166060840152600160a01b840464ffffffffff1660808401529192909160a0840191600160c81b900460ff1690811115612baa57612baa614451565b6003811115612bbb57612bbb614451565b815260200160048201548152505081526020019060010190612b19565b505050509050805183612beb9190614924565b9250508080612bf9906148f2565b915050612ab4565b5060008167ffffffffffffffff811115612c1d57612c1d614724565b604051908082528060200260200182016040528015612c5657816020015b612c4361432f565b815260200190600190039081612c3b5790505b50905060008267ffffffffffffffff811115612c7457612c74614724565b604051908082528060200260200182016040528015612cad57816020015b612c9a61432f565b815260200190600190039081612c925790505b5090506000805b8551811015612e8a5760056000878381518110612cd357612cd36148c6565b602002602001015164ffffffffff1664ffffffffff168152602001908152602001600020805480602002602001604051908101604052809291908181526020016000905b82821015612dd65760008481526020908190206040805160e081018252600586029092018054835260018101546001600160a01b039081169484019490945260028101548416918301919091526003808201549384166060840152600160a01b840464ffffffffff1660808401529192909160a0840191600160c81b900460ff1690811115612da857612da8614451565b6003811115612db957612db9614451565b815260200160048201548152505081526020019060010190612d17565b50505050935060005b8451811015612e7757886001600160a01b0316858281518110612e0457612e046148c6565b6020026020010151602001516001600160a01b03161415612e6557848181518110612e3157612e316148c6565b6020026020010151848481518110612e4b57612e4b6148c6565b60200260200101819052508280612e61906148f2565b9350505b80612e6f816148f2565b915050612ddf565b5080612e82816148f2565b915050612cb4565b5060005b8251811015612eea57612eac838281518110611bd357611bd36148c6565b838281518110612ebe57612ebe6148c6565b602090810291909101015164ffffffffff90911660809091015280612ee2816148f2565b915050612e8e565b50909450505050505b919050565b600080546001600160a01b03163314612f235760405162461bcd60e51b81526004016104339061488f565b6000612f2e42613171565b600b5490915064ffffffffff610100909104811690821611612f625760405162461bcd60e51b815260040161043390614b7f565b600b54610100900464ffffffffff165b8164ffffffffff168164ffffffffff16116130a75764ffffffffff8116600090815260056020908152604080832080548251818502810185019093528083529192909190849084015b8282101561307a5760008481526020908190206040805160e081018252600586029092018054835260018101546001600160a01b039081169484019490945260028101548416918301919091526003808201549384166060840152600160a01b840464ffffffffff1660808401529192909160a0840191600160c81b900460ff169081111561304c5761304c614451565b600381111561305d5761305d614451565b815260200160048201548152505081526020019060010190612fbb565b505050509050600081511115613094576001935050505090565b508061309f81614bc6565b915050612f72565b50600091505090565b600080600a80548060200260200160405190810160405280929190818152602001828054801561310957602002820191906000526020600020905b81546001600160a01b031681526001909101906020018083116130eb575b505050505090506000915060005b815181101561316a57818181518110613132576131326148c6565b60200260200101516001600160a01b0316846001600160a01b0316141561315857600192505b80613162816148f2565b915050613117565b5050919050565b600061317f610e1083614b24565b92915050565b64ffffffffff8116600090815260056020526040902054600114156131d05764ffffffffff811660009081526005602052604081206131c39161436c565b6131cc8161413f565b5050565b64ffffffffff811660009081526005602052604081209080805b83548110156132db57336001600160a01b031684828154811061320f5761320f6148c6565b60009182526020909120600160059092020101546001600160a01b03161415613240578161323c816148f2565b9250505b85848281548110613253576132536148c6565b90600052602060002090600502016000015414156132c957809250838181548110613280576132806148c6565b6000918252602082206005909102018181556001810180546001600160a01b031990811690915560028201805490911690556003810180546001600160d01b0319169055600401555b806132d3816148f2565b9150506131ea565b50825483906132ec9060019061490d565b815481106132fc576132fc6148c6565b906000526020600020906005020183838154811061331c5761331c6148c6565b60009182526020909120825460059092020190815560018083015490820180546001600160a01b03199081166001600160a01b039384161790915560028085015490840180548316918416919091179055600380850180548286018054948516919095169081178555815464ffffffffff600160a01b9182900416026001600160c81b03199094161792909217808455915460ff600160c81b9182900416939260ff60c81b19169184908111156133d5576133d5614451565b021790555060049182015491015582548390806133f4576133f461493c565b600082815260208120600560001990930192830201818155600181810180546001600160a01b031990811690915560028301805490911690556003820180546001600160d01b0319169055600490910191909155915581141561345a5761345a8461413f565b6000805b6006548110156134a757866006828154811061347c5761347c6148c6565b90600052602060002001541415613495578091506134a7565b8061349f816148f2565b91505061345e565b50600680546134b89060019061490d565b815481106134c8576134c86148c6565b9060005260206000200154600682815481106134e6576134e66148c6565b60009182526020909120015560068054806135035761350361493c565b60019003818190600052602060002001600090559055505050505050565b61352961432f565b6040516bffffffffffffffffffffffff19606088901b1660208201526001600160d81b031960d885901b1660348201524260398201526000906059016040516020818303038152906040528051906020012090506040518060e00160405280828152602001886001600160a01b03168152602001876001600160a01b03168152602001866001600160a01b031681526020018564ffffffffff168152602001600060038111156135db576135db614451565b815260200184905291505095945050505050565b33600090815260036020526040902054600160a01b900460ff166136b757336000818152600360209081526040822080546001600160a01b0319908116851782556004805460018181019092557f8a35acfbc15ff81a39ae7d344fd709f28e8600b4aa8c65c6b64bfe7fe36bd19b01805490921690951790558054600160a01b60ff60a01b199091161781558301805493840181558252902060068083049091018054919092066005026101000a64ffffffffff818102199092169390911602919091179055565b3360009081526003602090815260408083206001018054825181850281018501909352808352919290919083018282801561373f57602002820191906000526020600020906000905b82829054906101000a900464ffffffffff1664ffffffffff16815260200190600501906020826004010492830192600103820291508084116137005790505b505050505090506137508282614081565b6131cc575033600090815260036020908152604082206001908101805491820181558352912060068083049091018054919092066005026101000a64ffffffffff818102199092169390911602919091179055565b6129e8816040516024016137bb91815260200190565b60408051601f198184030181529190526020810180516001600160e01b031663f82c50f160e01b17905261430e565b6000806137f9610e1084614b24565b64ffffffffff169050600060046122386138156144708561490d565b61381f9190614a19565b6138299190614a19565b9050600061383b6301e1338086614b24565b64ffffffffff1690506000613852826107b2614924565b905061385d816137a5565b613868600482614b48565b61389757613877606482614b48565b6138a35761388761019082614b48565b6138975750600195945050505050565b50600095945050505050565b50600195945050505050565b600b5460ff166129e8576000806000835167ffffffffffffffff8111156138d8576138d8614724565b60405190808252806020026020018201604052801561391157816020015b6138fe61432f565b8152602001906001900390816138f65790505b50905060005b8451811015613d165760006001600160a01b031685828151811061393d5761393d6148c6565b6020026020010151606001516001600160a01b031614156139cd5784818151811061396a5761396a6148c6565b602002602001015160c00151846139819190614924565b9350848181518110613995576139956148c6565b60200260200101518284815181106139af576139af6148c6565b602002602001018190525082806139c5906148f2565b935050613d04565b8481815181106139df576139df6148c6565b602002602001015160c001518582815181106139fd576139fd6148c6565b6020026020010151606001516001600160a01b031663dd62ed3e878481518110613a2957613a296148c6565b60209081029190910181015101516040516001600160e01b031960e084901b1681526001600160a01b039091166004820152306024820152604401602060405180830381600087803b158015613a7e57600080fd5b505af1158015613a92573d6000803e3d6000fd5b505050506040513d601f19601f82011682018060405250810190613ab69190614ab6565b1080613ba45750848181518110613acf57613acf6148c6565b602002602001015160c00151858281518110613aed57613aed6148c6565b6020026020010151606001516001600160a01b03166370a08231878481518110613b1957613b196148c6565b6020026020010151602001516040518263ffffffff1660e01b8152600401613b5091906001600160a01b0391909116815260200190565b602060405180830381600087803b158015613b6a57600080fd5b505af1158015613b7e573d6000803e3d6000fd5b505050506040513d601f19601f82011682018060405250810190613ba29190614ab6565b105b15613c3657600260056000878481518110613bc157613bc16148c6565b60200260200101516080015164ffffffffff1664ffffffffff1681526020019081526020016000208281548110613bfa57613bfa6148c6565b906000526020600020906005020160030160196101000a81548160ff02191690836003811115613c2c57613c2c614451565b0217905550613d04565b848181518110613c4857613c486148c6565b6020026020010151828481518110613c6257613c626148c6565b60200260200101819052508280613c78906148f2565b935050600160056000878481518110613c9357613c936148c6565b60200260200101516080015164ffffffffff1664ffffffffff1681526020019081526020016000208281548110613ccc57613ccc6148c6565b906000526020600020906005020160030160196101000a81548160ff02191690836003811115613cfe57613cfe614451565b02179055505b80613d0e816148f2565b915050613917565b50824711613d765760405162461bcd60e51b815260206004820152602760248201527f4e6f7420656e6f7567682045544820746f20636f6d706c657465207472616e73604482015266616374696f6e7360c81b6064820152608401610433565b60005b815181101561148b57818181518110613d9457613d946148c6565b602002602001015160c0015160076000848481518110613db657613db66148c6565b6020026020010151602001516001600160a01b03166001600160a01b031681526020019081526020016000206000848481518110613df657613df66148c6565b6020026020010151606001516001600160a01b03166001600160a01b031681526020019081526020016000206000828254613e31919061490d565b90915550508151600090839083908110613e4d57613e4d6148c6565b6020026020010151606001516001600160a01b03161415613f48576000828281518110613e7c57613e7c6148c6565b6020026020010151604001516001600160a01b03166108fc848481518110613ea657613ea66148c6565b602002602001015160c001519081150290604051600060405180830381858888f19350505050905080613f0e5760405162461bcd60e51b815260206004820152601060248201526f2a3930b739b332b9103330b4b632b21760811b6044820152606401610433565b604051600181527fa2ea5b0db1d57b0e32df654aa9a1a97bc8066881e37669ff488d2bebe87c9f879060200160405180910390a150614061565b818181518110613f5a57613f5a6148c6565b6020026020010151606001516001600160a01b03166323b872dd838381518110613f8657613f866148c6565b602002602001015160200151848481518110613fa457613fa46148c6565b602002602001015160400151858581518110613fc257613fc26148c6565b602090810291909101015160c001516040516001600160e01b031960e086901b1681526001600160a01b0393841660048201529290911660248301526044820152606401602060405180830381600087803b15801561402057600080fd5b505af1158015614034573d6000803e3d6000fd5b505050506040513d601f19601f820116820180604052508101906140589190614c03565b61406157600080fd5b8061406b816148f2565b915050613d79565b600061317f82610e10614c25565b6000805b82518110156140d9578364ffffffffff168382815181106140a8576140a86148c6565b602002602001015164ffffffffff1614156140c757600191505061317f565b806140d1816148f2565b915050614085565b5060009392505050565b6000805b82518110156140d957836001600160a01b031683828151811061410c5761410c6148c6565b60200260200101516001600160a01b0316141561412d57600191505061317f565b80614137816148f2565b9150506140e7565b3360009081526003602052604090206001908101541415614178573360009081526003602052604081206129e89160019091019061438d565b33600090815260036020526040812060010190805b8254811015614239578364ffffffffff168382815481106141b0576141b06148c6565b90600052602060002090600691828204019190066005029054906101000a900464ffffffffff1664ffffffffff161415614227578091508281815481106141f9576141f96148c6565b90600052602060002090600691828204019190066005026101000a81549064ffffffffff0219169055614239565b80614231816148f2565b91505061418d565b508154829061424a9060019061490d565b8154811061425a5761425a6148c6565b90600052602060002090600691828204019190066005029054906101000a900464ffffffffff16828281548110614293576142936148c6565b90600052602060002090600691828204019190066005026101000a81548164ffffffffff021916908364ffffffffff160217905550818054806142d8576142d861493c565b60019003818190600052602060002090600691828204019190066005026101000a81549064ffffffffff02191690559055505050565b80516a636f6e736f6c652e6c6f67602083016000808483855afa5050505050565b6040805160e08101825260008082526020820181905291810182905260608101829052608081018290529060a08201908152602001600081525090565b50805460008255600502906000526020600020908101906129e891906143b2565b5080546000825560050160069004906000526020600020908101906129e89190614403565b5b808211156143ff5760008082556001820180546001600160a01b031990811690915560028301805490911690556003820180546001600160d01b031916905560048201556005016143b3565b5090565b5b808211156143ff5760008155600101614404565b6001600160a01b03811681146129e857600080fd5b60006020828403121561443f57600080fd5b813561444a81614418565b9392505050565b634e487b7160e01b600052602160045260246000fd5b60208082528251828201819052600091906040908185019086840185805b8381101561451157825180518652878101516001600160a01b0390811689880152878201518116888801526060808301519091169087015260808082015164ffffffffff169087015260a08082015160048082106144f057634e487b7160e01b865260218152602486fd5b509087015260c0908101519086015260e09094019391860191600101614485565b509298975050505050505050565b803564ffffffffff81168114612ef357600080fd5b60008060006060848603121561454957600080fd5b833592506145596020850161451f565b9150604084013561456981614418565b809150509250925092565b60006020828403121561458657600080fd5b5035919050565b600080600080608085870312156145a357600080fd5b84356145ae81614418565b93506145bc6020860161451f565b92506040850135915060608501356145d381614418565b939692955090935050565b6000602082840312156145f057600080fd5b61444a8261451f565b600080600080600085870361016081121561461357600080fd5b863561461e81614418565b955061462c6020880161451f565b945060408701359350606087013561464381614418565b925060e0607f198201121561465757600080fd5b506080860190509295509295909350565b60006020808301818452808551808352604092508286019150828160051b8701018488016000805b8481101561471557898403603f19018652825180516001600160a01b03168552888101511515898601528701516060888601819052815190860181905290890190608086019084905b8082101561470057835164ffffffffff168352928b0192918b0191600191909101906146d9565b50509689019694505091870191600101614690565b50919998505050505050505050565b634e487b7160e01b600052604160045260246000fd5b6040516080810167ffffffffffffffff8111828210171561475d5761475d614724565b60405290565b604051601f8201601f1916810167ffffffffffffffff8111828210171561478c5761478c614724565b604052919050565b600060208083850312156147a757600080fd5b823567ffffffffffffffff808211156147bf57600080fd5b818501915085601f8301126147d357600080fd5b8135818111156147e5576147e5614724565b6147f3848260051b01614763565b818152848101925060079190911b83018401908782111561481357600080fd5b928401925b8184101561488457608084890312156148315760008081fd5b61483961473a565b843561484481614418565b815261485185870161451f565b818701526040858101359082015260608086013561486e81614418565b9082015283526080939093019291840191614818565b979650505050505050565b6020808252601a908201527f4d75737420686176652061646d696e2070726976696c65676573000000000000604082015260600190565b634e487b7160e01b600052603260045260246000fd5b634e487b7160e01b600052601160045260246000fd5b6000600019821415614906576149066148dc565b5060010190565b60008282101561491f5761491f6148dc565b500390565b60008219821115614937576149376148dc565b500190565b634e487b7160e01b600052603160045260246000fd5b6020808252601f908201527f54696d652064617461206d75737420626520696e207468652066757475726500604082015260600190565b634e487b7160e01b600052601260045260246000fd5b600064ffffffffff808416806149b7576149b7614989565b92169190910692915050565b60208082526018908201527f54696d65206d757374206265206f6e2074686520686f75720000000000000000604082015260600190565b6000816000190483118215151615614a1457614a146148dc565b500290565b600082614a2857614a28614989565b500490565b60208082526024908201527f4e6f7420656e6f756768204554482073656e742077697468207472616e7361636040820152633a34b7b760e11b606082015260800190565b60208082526025908201527f20546f6b656e206e6f7420617070726f76656420666f72207468697320636f6e6040820152641d1c9858dd60da1b606082015260800190565b600060208284031215614ac857600080fd5b5051919050565b60208082526035908201527f526571756972657320746f6b656e20616c6c6f77616e636520746f20626520696040820152741b98dc99585cd95908199bdc8818dbdb9d1c9858dd605a1b606082015260800190565b600064ffffffffff80841680614b3c57614b3c614989565b92169190910492915050565b600082614b5757614b57614989565b500690565b600060208284031215614b6e57600080fd5b813560ff8116811461444a57600080fd5b60208082526027908201527f54696d6520616c726561647920636865636b656420666f7220746869732074696040820152661b59481cdb1bdd60ca1b606082015260800190565b600064ffffffffff80831681811415614be157614be16148dc565b6001019392505050565b600061ffff80831681811415614be157614be16148dc565b600060208284031215614c1557600080fd5b8151801515811461444a57600080fd5b600064ffffffffff80831681851681830481118215151615614c4957614c496148dc565b0294935050505056fea2646970667358221220aa80f3e3faae39d34ec8b1cfd204ab3ec050481cf34797ece638f7e84b274bcf64736f6c63430008090033","opcodes":"PUSH1 0x80 PUSH1 0x40 MSTORE PUSH1 0x0 DUP1 SLOAD PUSH1 0x1 PUSH1 0x1 PUSH1 0xA0 SHL SUB NOT AND PUSH20 0xF39FD6E51AAD88F6F4CE6AB8827279CFFFB92266 OR SWAP1 SSTORE PUSH1 0x64 PUSH1 0x1 SWAP1 DUP2 SSTORE PUSH7 0x2386F26FC10000 PUSH1 0x2 SSTORE PUSH1 0xB DUP1 SLOAD PUSH1 0xFF NOT AND SWAP1 SSTORE PUSH3 0x51 TIMESTAMP PUSH3 0x85 JUMP JUMPDEST PUSH3 0x5D SWAP2 SWAP1 PUSH3 0x9B JUMP JUMPDEST PUSH1 0xB PUSH1 0x1 PUSH2 0x100 EXP DUP2 SLOAD DUP2 PUSH5 0xFFFFFFFFFF MUL NOT AND SWAP1 DUP4 PUSH5 0xFFFFFFFFFF AND MUL OR SWAP1 SSTORE POP PUSH3 0x103 JUMP JUMPDEST PUSH1 0x0 PUSH3 0x95 PUSH2 0xE10 DUP4 PUSH3 0xD0 JUMP JUMPDEST SWAP3 SWAP2 POP POP JUMP JUMPDEST PUSH1 0x0 PUSH5 0xFFFFFFFFFF DUP4 DUP2 AND SWAP1 DUP4 AND DUP2 DUP2 LT ISZERO PUSH3 0xC8 JUMPI PUSH4 0x4E487B71 PUSH1 0xE0 SHL PUSH1 0x0 MSTORE PUSH1 0x11 PUSH1 0x4 MSTORE PUSH1 0x24 PUSH1 0x0 REVERT JUMPDEST SUB SWAP4 SWAP3 POP POP POP JUMP JUMPDEST PUSH1 0x0 PUSH5 0xFFFFFFFFFF DUP1 DUP5 AND DUP1 PUSH3 0xF7 JUMPI PUSH4 0x4E487B71 PUSH1 0xE0 SHL PUSH1 0x0 MSTORE PUSH1 0x12 PUSH1 0x4 MSTORE PUSH1 0x24 PUSH1 0x0 REVERT JUMPDEST SWAP3 AND SWAP2 SWAP1 SWAP2 DIV SWAP3 SWAP2 POP POP JUMP JUMPDEST PUSH2 0x4C88 DUP1 PUSH3 0x113 PUSH1 0x0 CODECOPY PUSH1 0x0 RETURN INVALID PUSH1 0x80 PUSH1 0x40 MSTORE PUSH1 0x4 CALLDATASIZE LT PUSH2 0x123 JUMPI PUSH1 0x0 CALLDATALOAD PUSH1 0xE0 SHR DUP1 PUSH4 0x8F475881 GT PUSH2 0xA0 JUMPI DUP1 PUSH4 0xCED72F87 GT PUSH2 0x64 JUMPI DUP1 PUSH4 0xCED72F87 EQ PUSH2 0x37A JUMPI DUP1 PUSH4 0xCF783D8A EQ PUSH2 0x38F JUMPI DUP1 PUSH4 0xD10FA144 EQ PUSH2 0x3B1 JUMPI DUP1 PUSH4 0xDC9961EB EQ PUSH2 0x3C4 JUMPI DUP1 PUSH4 0xE0C6190D EQ PUSH2 0x3E4 JUMPI PUSH2 0x163 JUMP JUMPDEST DUP1 PUSH4 0x8F475881 EQ PUSH2 0x2FD JUMPI DUP1 PUSH4 0xA1C06D34 EQ PUSH2 0x31D JUMPI DUP1 PUSH4 0xAA58A5B0 EQ PUSH2 0x330 JUMPI DUP1 PUSH4 0xAB7E0909 EQ PUSH2 0x345 JUMPI DUP1 PUSH4 0xC682CCE4 EQ PUSH2 0x365 JUMPI PUSH2 0x163 JUMP JUMPDEST DUP1 PUSH4 0x557ED1BA GT PUSH2 0xE7 JUMPI DUP1 PUSH4 0x557ED1BA EQ PUSH2 0x277 JUMPI DUP1 PUSH4 0x6A1DB1BF EQ PUSH2 0x28A JUMPI DUP1 PUSH4 0x80423444 EQ PUSH2 0x2AA JUMPI DUP1 PUSH4 0x8E83AC4A EQ PUSH2 0x2BD JUMPI DUP1 PUSH4 0x8F283970 EQ PUSH2 0x2DD JUMPI PUSH2 0x163 JUMP JUMPDEST DUP1 PUSH4 0x53149FA EQ PUSH2 0x1B5 JUMPI DUP1 PUSH4 0x1385D24C EQ PUSH2 0x1D7 JUMPI DUP1 PUSH4 0x13B51234 EQ PUSH2 0x1EC JUMPI DUP1 PUSH4 0x1CCB3371 EQ PUSH2 0x242 JUMPI DUP1 PUSH4 0x2A2B3690 EQ PUSH2 0x264 JUMPI PUSH2 0x163 JUMP JUMPDEST CALLDATASIZE PUSH2 0x163 JUMPI PUSH1 0x40 DUP1 MLOAD CALLER DUP2 MSTORE CALLVALUE PUSH1 0x20 DUP3 ADD MSTORE PUSH32 0x830D2D700A97AF574B186C80D40429385D24241565B08A7C559BA283A964D9B1 SWAP2 ADD JUMPDEST PUSH1 0x40 MLOAD DUP1 SWAP2 SUB SWAP1 LOG1 STOP JUMPDEST PUSH32 0x19525A32AFAAD9A5491805C356597487A306FC2F4E8541D8D55E1FE951091E60 PUSH1 0x40 MLOAD PUSH2 0x159 SWAP1 PUSH1 0x20 DUP1 DUP3 MSTORE PUSH1 0x10 SWAP1 DUP3 ADD MSTORE PUSH16 0x2AB735B737BBB710333AB731BA34B7B7 PUSH1 0x81 SHL PUSH1 0x40 DUP3 ADD MSTORE PUSH1 0x60 ADD SWAP1 JUMP JUMPDEST CALLVALUE DUP1 ISZERO PUSH2 0x1C1 JUMPI PUSH1 0x0 DUP1 REVERT JUMPDEST POP PUSH2 0x1D5 PUSH2 0x1D0 CALLDATASIZE PUSH1 0x4 PUSH2 0x442D JUMP JUMPDEST PUSH2 0x409 JUMP JUMPDEST STOP JUMPDEST CALLVALUE DUP1 ISZERO PUSH2 0x1E3 JUMPI PUSH1 0x0 DUP1 REVERT JUMPDEST POP PUSH2 0x1D5 PUSH2 0x633 JUMP JUMPDEST CALLVALUE DUP1 ISZERO PUSH2 0x1F8 JUMPI PUSH1 0x0 DUP1 REVERT JUMPDEST POP PUSH2 0x22F PUSH2 0x207 CALLDATASIZE PUSH1 0x4 PUSH2 0x442D JUMP JUMPDEST CALLER PUSH1 0x0 SWAP1 DUP2 MSTORE PUSH1 0x7 PUSH1 0x20 SWAP1 DUP2 MSTORE PUSH1 0x40 DUP1 DUP4 KECCAK256 PUSH1 0x1 PUSH1 0x1 PUSH1 0xA0 SHL SUB SWAP5 SWAP1 SWAP5 AND DUP4 MSTORE SWAP3 SWAP1 MSTORE KECCAK256 SLOAD SWAP1 JUMP JUMPDEST PUSH1 0x40 MLOAD SWAP1 DUP2 MSTORE PUSH1 0x20 ADD JUMPDEST PUSH1 0x40 MLOAD DUP1 SWAP2 SUB SWAP1 RETURN JUMPDEST CALLVALUE DUP1 ISZERO PUSH2 0x24E JUMPI PUSH1 0x0 DUP1 REVERT JUMPDEST POP PUSH2 0x257 PUSH2 0x671 JUMP JUMPDEST PUSH1 0x40 MLOAD PUSH2 0x239 SWAP2 SWAP1 PUSH2 0x4467 JUMP JUMPDEST PUSH2 0x1D5 PUSH2 0x272 CALLDATASIZE PUSH1 0x4 PUSH2 0x4534 JUMP JUMPDEST PUSH2 0x7BB JUMP JUMPDEST CALLVALUE DUP1 ISZERO PUSH2 0x283 JUMPI PUSH1 0x0 DUP1 REVERT JUMPDEST POP TIMESTAMP PUSH2 0x22F JUMP JUMPDEST CALLVALUE DUP1 ISZERO PUSH2 0x296 JUMPI PUSH1 0x0 DUP1 REVERT JUMPDEST POP PUSH2 0x1D5 PUSH2 0x2A5 CALLDATASIZE PUSH1 0x4 PUSH2 0x4574 JUMP JUMPDEST PUSH2 0xA21 JUMP JUMPDEST PUSH2 0x1D5 PUSH2 0x2B8 CALLDATASIZE PUSH1 0x4 PUSH2 0x458D JUMP JUMPDEST PUSH2 0xA50 JUMP JUMPDEST CALLVALUE DUP1 ISZERO PUSH2 0x2C9 JUMPI PUSH1 0x0 DUP1 REVERT JUMPDEST POP PUSH2 0x1D5 PUSH2 0x2D8 CALLDATASIZE PUSH1 0x4 PUSH2 0x4574 JUMP JUMPDEST PUSH2 0xE31 JUMP JUMPDEST CALLVALUE DUP1 ISZERO PUSH2 0x2E9 JUMPI PUSH1 0x0 DUP1 REVERT JUMPDEST POP PUSH2 0x1D5 PUSH2 0x2F8 CALLDATASIZE PUSH1 0x4 PUSH2 0x442D JUMP JUMPDEST PUSH2 0xE60 JUMP JUMPDEST CALLVALUE DUP1 ISZERO PUSH2 0x309 JUMPI PUSH1 0x0 DUP1 REVERT JUMPDEST POP PUSH2 0x1D5 PUSH2 0x318 CALLDATASIZE PUSH1 0x4 PUSH2 0x45DE JUMP JUMPDEST PUSH2 0xED5 JUMP JUMPDEST PUSH2 0x1D5 PUSH2 0x32B CALLDATASIZE PUSH1 0x4 PUSH2 0x45F9 JUMP JUMPDEST PUSH2 0x102E JUMP JUMPDEST CALLVALUE DUP1 ISZERO PUSH2 0x33C JUMPI PUSH1 0x0 DUP1 REVERT JUMPDEST POP PUSH2 0x1D5 PUSH2 0x1492 JUMP JUMPDEST CALLVALUE DUP1 ISZERO PUSH2 0x351 JUMPI PUSH1 0x0 DUP1 REVERT JUMPDEST POP PUSH2 0x1D5 PUSH2 0x360 CALLDATASIZE PUSH1 0x4 PUSH2 0x442D JUMP JUMPDEST PUSH2 0x1664 JUMP JUMPDEST CALLVALUE DUP1 ISZERO PUSH2 0x371 JUMPI PUSH1 0x0 DUP1 REVERT JUMPDEST POP PUSH2 0x257 PUSH2 0x1749 JUMP JUMPDEST CALLVALUE DUP1 ISZERO PUSH2 0x386 JUMPI PUSH1 0x0 DUP1 REVERT JUMPDEST POP PUSH1 0x1 SLOAD PUSH2 0x22F JUMP JUMPDEST CALLVALUE DUP1 ISZERO PUSH2 0x39B JUMPI PUSH1 0x0 DUP1 REVERT JUMPDEST POP PUSH2 0x3A4 PUSH2 0x1C2D JUMP JUMPDEST PUSH1 0x40 MLOAD PUSH2 0x239 SWAP2 SWAP1 PUSH2 0x4668 JUMP JUMPDEST PUSH2 0x1D5 PUSH2 0x3BF CALLDATASIZE PUSH1 0x4 PUSH2 0x4794 JUMP JUMPDEST PUSH2 0x1DEC JUMP JUMPDEST CALLVALUE DUP1 ISZERO PUSH2 0x3D0 JUMPI PUSH1 0x0 DUP1 REVERT JUMPDEST POP PUSH2 0x257 PUSH2 0x3DF CALLDATASIZE PUSH1 0x4 PUSH2 0x442D JUMP JUMPDEST PUSH2 0x29EB JUMP JUMPDEST CALLVALUE DUP1 ISZERO PUSH2 0x3F0 JUMPI PUSH1 0x0 DUP1 REVERT JUMPDEST POP PUSH2 0x3F9 PUSH2 0x2EF8 JUMP JUMPDEST PUSH1 0x40 MLOAD SWAP1 ISZERO ISZERO DUP2 MSTORE PUSH1 0x20 ADD PUSH2 0x239 JUMP JUMPDEST PUSH1 0x0 SLOAD PUSH1 0x1 PUSH1 0x1 PUSH1 0xA0 SHL SUB AND CALLER EQ PUSH2 0x43C JUMPI PUSH1 0x40 MLOAD PUSH3 0x461BCD PUSH1 0xE5 SHL DUP2 MSTORE PUSH1 0x4 ADD PUSH2 0x433 SWAP1 PUSH2 0x488F JUMP JUMPDEST PUSH1 0x40 MLOAD DUP1 SWAP2 SUB SWAP1 REVERT JUMPDEST PUSH1 0x1 PUSH1 0x1 PUSH1 0xA0 SHL SUB DUP2 AND PUSH2 0x44F JUMPI PUSH1 0x0 DUP1 REVERT JUMPDEST PUSH2 0x458 DUP2 PUSH2 0x30B0 JUMP JUMPDEST PUSH2 0x4A4 JUMPI PUSH1 0x40 MLOAD PUSH3 0x461BCD PUSH1 0xE5 SHL DUP2 MSTORE PUSH1 0x20 PUSH1 0x4 DUP3 ADD MSTORE PUSH1 0x19 PUSH1 0x24 DUP3 ADD MSTORE PUSH32 0x455243323020746F6B656E206E6F742061646465642079657400000000000000 PUSH1 0x44 DUP3 ADD MSTORE PUSH1 0x64 ADD PUSH2 0x433 JUMP JUMPDEST PUSH1 0x0 PUSH1 0xA DUP1 SLOAD DUP1 PUSH1 0x20 MUL PUSH1 0x20 ADD PUSH1 0x40 MLOAD SWAP1 DUP2 ADD PUSH1 0x40 MSTORE DUP1 SWAP3 SWAP2 SWAP1 DUP2 DUP2 MSTORE PUSH1 0x20 ADD DUP3 DUP1 SLOAD DUP1 ISZERO PUSH2 0x4FC JUMPI PUSH1 0x20 MUL DUP3 ADD SWAP2 SWAP1 PUSH1 0x0 MSTORE PUSH1 0x20 PUSH1 0x0 KECCAK256 SWAP1 JUMPDEST DUP2 SLOAD PUSH1 0x1 PUSH1 0x1 PUSH1 0xA0 SHL SUB AND DUP2 MSTORE PUSH1 0x1 SWAP1 SWAP2 ADD SWAP1 PUSH1 0x20 ADD DUP1 DUP4 GT PUSH2 0x4DE JUMPI JUMPDEST POP POP POP POP POP SWAP1 POP PUSH1 0x0 DUP1 JUMPDEST DUP3 MLOAD DUP2 LT ISZERO PUSH2 0x55D JUMPI DUP4 PUSH1 0x1 PUSH1 0x1 PUSH1 0xA0 SHL SUB AND DUP4 DUP3 DUP2 MLOAD DUP2 LT PUSH2 0x52C JUMPI PUSH2 0x52C PUSH2 0x48C6 JUMP JUMPDEST PUSH1 0x20 MUL PUSH1 0x20 ADD ADD MLOAD PUSH1 0x1 PUSH1 0x1 PUSH1 0xA0 SHL SUB AND EQ ISZERO PUSH2 0x54B JUMPI DUP1 SWAP2 POP PUSH2 0x55D JUMP JUMPDEST DUP1 PUSH2 0x555 DUP2 PUSH2 0x48F2 JUMP JUMPDEST SWAP2 POP POP PUSH2 0x507 JUMP JUMPDEST POP DUP1 JUMPDEST PUSH1 0xA SLOAD PUSH2 0x56F SWAP1 PUSH1 0x1 SWAP1 PUSH2 0x490D JUMP JUMPDEST DUP2 LT ISZERO PUSH2 0x5FA JUMPI PUSH1 0xA PUSH2 0x583 DUP3 PUSH1 0x1 PUSH2 0x4924 JUMP JUMPDEST DUP2 SLOAD DUP2 LT PUSH2 0x593 JUMPI PUSH2 0x593 PUSH2 0x48C6 JUMP JUMPDEST PUSH1 0x0 SWAP2 DUP3 MSTORE PUSH1 0x20 SWAP1 SWAP2 KECCAK256 ADD SLOAD PUSH1 0xA DUP1 SLOAD PUSH1 0x1 PUSH1 0x1 PUSH1 0xA0 SHL SUB SWAP1 SWAP3 AND SWAP2 DUP4 SWAP1 DUP2 LT PUSH2 0x5BF JUMPI PUSH2 0x5BF PUSH2 0x48C6 JUMP JUMPDEST PUSH1 0x0 SWAP2 DUP3 MSTORE PUSH1 0x20 SWAP1 SWAP2 KECCAK256 ADD DUP1 SLOAD PUSH1 0x1 PUSH1 0x1 PUSH1 0xA0 SHL SUB NOT AND PUSH1 0x1 PUSH1 0x1 PUSH1 0xA0 SHL SUB SWAP3 SWAP1 SWAP3 AND SWAP2 SWAP1 SWAP2 OR SWAP1 SSTORE DUP1 PUSH2 0x5F2 DUP2 PUSH2 0x48F2 JUMP JUMPDEST SWAP2 POP POP PUSH2 0x560 JUMP JUMPDEST POP PUSH1 0xA DUP1 SLOAD DUP1 PUSH2 0x60C JUMPI PUSH2 0x60C PUSH2 0x493C JUMP JUMPDEST PUSH1 0x0 DUP3 DUP2 MSTORE PUSH1 0x20 SWAP1 KECCAK256 DUP2 ADD PUSH1 0x0 NOT SWAP1 DUP2 ADD DUP1 SLOAD PUSH1 0x1 PUSH1 0x1 PUSH1 0xA0 SHL SUB NOT AND SWAP1 SSTORE ADD SWAP1 SSTORE POP POP POP JUMP JUMPDEST PUSH1 0x0 SLOAD PUSH1 0x1 PUSH1 0x1 PUSH1 0xA0 SHL SUB AND CALLER EQ PUSH2 0x65D JUMPI PUSH1 0x40 MLOAD PUSH3 0x461BCD PUSH1 0xE5 SHL DUP2 MSTORE PUSH1 0x4 ADD PUSH2 0x433 SWAP1 PUSH2 0x488F JUMP JUMPDEST PUSH1 0xB DUP1 SLOAD PUSH1 0xFF NOT DUP2 AND PUSH1 0xFF SWAP1 SWAP2 AND ISZERO OR SWAP1 SSTORE JUMP JUMPDEST PUSH1 0x0 SLOAD PUSH1 0x60 SWAP1 PUSH1 0x1 PUSH1 0x1 PUSH1 0xA0 SHL SUB AND CALLER EQ PUSH2 0x69E JUMPI PUSH1 0x40 MLOAD PUSH3 0x461BCD PUSH1 0xE5 SHL DUP2 MSTORE PUSH1 0x4 ADD PUSH2 0x433 SWAP1 PUSH2 0x488F JUMP JUMPDEST PUSH1 0x6 SLOAD PUSH1 0x0 SWAP1 PUSH8 0xFFFFFFFFFFFFFFFF DUP2 GT ISZERO PUSH2 0x6BC JUMPI PUSH2 0x6BC PUSH2 0x4724 JUMP JUMPDEST PUSH1 0x40 MLOAD SWAP1 DUP1 DUP3 MSTORE DUP1 PUSH1 0x20 MUL PUSH1 0x20 ADD DUP3 ADD PUSH1 0x40 MSTORE DUP1 ISZERO PUSH2 0x6F5 JUMPI DUP2 PUSH1 0x20 ADD JUMPDEST PUSH2 0x6E2 PUSH2 0x432F JUMP JUMPDEST DUP2 MSTORE PUSH1 0x20 ADD SWAP1 PUSH1 0x1 SWAP1 SUB SWAP1 DUP2 PUSH2 0x6DA JUMPI SWAP1 POP JUMPDEST POP SWAP1 POP PUSH1 0x0 DUP1 JUMPDEST PUSH1 0x4 SLOAD DUP2 LT ISZERO PUSH2 0x7B3 JUMPI PUSH1 0x0 PUSH2 0x738 PUSH1 0x4 DUP4 DUP2 SLOAD DUP2 LT PUSH2 0x71E JUMPI PUSH2 0x71E PUSH2 0x48C6 JUMP JUMPDEST PUSH1 0x0 SWAP2 DUP3 MSTORE PUSH1 0x20 SWAP1 SWAP2 KECCAK256 ADD SLOAD PUSH1 0x1 PUSH1 0x1 PUSH1 0xA0 SHL SUB AND PUSH2 0x29EB JUMP JUMPDEST SWAP1 POP PUSH1 0x0 JUMPDEST DUP2 MLOAD DUP2 LT ISZERO PUSH2 0x79E JUMPI DUP2 DUP2 DUP2 MLOAD DUP2 LT PUSH2 0x758 JUMPI PUSH2 0x758 PUSH2 0x48C6 JUMP JUMPDEST PUSH1 0x20 MUL PUSH1 0x20 ADD ADD MLOAD DUP6 DUP6 DUP2 MLOAD DUP2 LT PUSH2 0x772 JUMPI PUSH2 0x772 PUSH2 0x48C6 JUMP JUMPDEST PUSH1 0x20 MUL PUSH1 0x20 ADD ADD DUP2 SWAP1 MSTORE POP DUP4 DUP1 PUSH2 0x788 SWAP1 PUSH2 0x48F2 JUMP JUMPDEST SWAP5 POP POP DUP1 DUP1 PUSH2 0x796 SWAP1 PUSH2 0x48F2 JUMP JUMPDEST SWAP2 POP POP PUSH2 0x73D JUMP JUMPDEST POP POP DUP1 DUP1 PUSH2 0x7AB SWAP1 PUSH2 0x48F2 JUMP JUMPDEST SWAP2 POP POP PUSH2 0x6FC JUMP JUMPDEST POP SWAP1 SWAP2 POP POP SWAP1 JUMP JUMPDEST PUSH1 0x0 PUSH2 0x7C6 DUP4 PUSH2 0x3171 JUMP JUMPDEST PUSH5 0xFFFFFFFFFF DUP2 AND PUSH1 0x0 SWAP1 DUP2 MSTORE PUSH1 0x5 PUSH1 0x20 SWAP1 DUP2 MSTORE PUSH1 0x40 DUP1 DUP4 KECCAK256 DUP1 SLOAD DUP3 MLOAD DUP2 DUP6 MUL DUP2 ADD DUP6 ADD SWAP1 SWAP4 MSTORE DUP1 DUP4 MSTORE SWAP5 SWAP6 POP SWAP3 SWAP4 SWAP1 SWAP3 SWAP2 DUP5 SWAP1 DUP5 ADD JUMPDEST DUP3 DUP3 LT ISZERO PUSH2 0x8BC JUMPI PUSH1 0x0 DUP5 DUP2 MSTORE PUSH1 0x20 SWAP1 DUP2 SWAP1 KECCAK256 PUSH1 0x40 DUP1 MLOAD PUSH1 0xE0 DUP2 ADD DUP3 MSTORE PUSH1 0x5 DUP7 MUL SWAP1 SWAP3 ADD DUP1 SLOAD DUP4 MSTORE PUSH1 0x1 DUP2 ADD SLOAD PUSH1 0x1 PUSH1 0x1 PUSH1 0xA0 SHL SUB SWAP1 DUP2 AND SWAP5 DUP5 ADD SWAP5 SWAP1 SWAP5 MSTORE PUSH1 0x2 DUP2 ADD SLOAD DUP5 AND SWAP2 DUP4 ADD SWAP2 SWAP1 SWAP2 MSTORE PUSH1 0x3 DUP1 DUP3 ADD SLOAD SWAP4 DUP5 AND PUSH1 0x60 DUP5 ADD MSTORE PUSH1 0x1 PUSH1 0xA0 SHL DUP5 DIV PUSH5 0xFFFFFFFFFF AND PUSH1 0x80 DUP5 ADD MSTORE SWAP2 SWAP3 SWAP1 SWAP2 PUSH1 0xA0 DUP5 ADD SWAP2 PUSH1 0x1 PUSH1 0xC8 SHL SWAP1 DIV PUSH1 0xFF AND SWAP1 DUP2 GT ISZERO PUSH2 0x88E JUMPI PUSH2 0x88E PUSH2 0x4451 JUMP JUMPDEST PUSH1 0x3 DUP2 GT ISZERO PUSH2 0x89F JUMPI PUSH2 0x89F PUSH2 0x4451 JUMP JUMPDEST DUP2 MSTORE PUSH1 0x20 ADD PUSH1 0x4 DUP3 ADD SLOAD DUP2 MSTORE POP POP DUP2 MSTORE PUSH1 0x20 ADD SWAP1 PUSH1 0x1 ADD SWAP1 PUSH2 0x7FD JUMP JUMPDEST POP POP POP POP SWAP1 POP PUSH2 0x8CA PUSH2 0x432F JUMP JUMPDEST PUSH1 0x0 JUMPDEST DUP3 MLOAD DUP2 LT ISZERO PUSH2 0x92E JUMPI DUP7 DUP4 DUP3 DUP2 MLOAD DUP2 LT PUSH2 0x8E9 JUMPI PUSH2 0x8E9 PUSH2 0x48C6 JUMP JUMPDEST PUSH1 0x20 MUL PUSH1 0x20 ADD ADD MLOAD PUSH1 0x0 ADD MLOAD EQ ISZERO PUSH2 0x91C JUMPI DUP3 DUP2 DUP2 MLOAD DUP2 LT PUSH2 0x90D JUMPI PUSH2 0x90D PUSH2 0x48C6 JUMP JUMPDEST PUSH1 0x20 MUL PUSH1 0x20 ADD ADD MLOAD SWAP2 POP PUSH2 0x92E JUMP JUMPDEST DUP1 PUSH2 0x926 DUP2 PUSH2 0x48F2 JUMP JUMPDEST SWAP2 POP POP PUSH2 0x8CD JUMP JUMPDEST POP PUSH2 0x941 DUP2 PUSH1 0x0 ADD MLOAD DUP3 PUSH1 0x80 ADD MLOAD PUSH2 0x3185 JUMP JUMPDEST PUSH1 0x1 PUSH1 0x1 PUSH1 0xA0 SHL SUB DUP5 AND ISZERO PUSH2 0x993 JUMPI PUSH1 0xC0 DUP2 ADD MLOAD CALLER PUSH1 0x0 SWAP1 DUP2 MSTORE PUSH1 0x7 PUSH1 0x20 SWAP1 DUP2 MSTORE PUSH1 0x40 DUP1 DUP4 KECCAK256 PUSH1 0x1 PUSH1 0x1 PUSH1 0xA0 SHL SUB DUP10 AND DUP5 MSTORE SWAP1 SWAP2 MSTORE DUP2 KECCAK256 DUP1 SLOAD SWAP1 SWAP2 SWAP1 PUSH2 0x988 SWAP1 DUP5 SWAP1 PUSH2 0x490D JUMP JUMPDEST SWAP1 SWAP2 SSTORE POP PUSH2 0xA19 SWAP1 POP JUMP JUMPDEST PUSH1 0xC0 DUP2 ADD MLOAD CALLER PUSH1 0x0 SWAP1 DUP2 MSTORE PUSH1 0x7 PUSH1 0x20 SWAP1 DUP2 MSTORE PUSH1 0x40 DUP1 DUP4 KECCAK256 PUSH1 0x1 PUSH1 0x1 PUSH1 0xA0 SHL SUB DUP10 AND DUP5 MSTORE SWAP1 SWAP2 MSTORE DUP2 KECCAK256 DUP1 SLOAD SWAP1 SWAP2 SWAP1 PUSH2 0x9CB SWAP1 DUP5 SWAP1 PUSH2 0x490D JUMP JUMPDEST SWAP1 SWAP2 SSTORE POP POP PUSH1 0xC0 DUP2 ADD MLOAD SELFBALANCE GT PUSH2 0x9E0 JUMPI PUSH1 0x0 DUP1 REVERT JUMPDEST DUP1 PUSH1 0x20 ADD MLOAD PUSH1 0x1 PUSH1 0x1 PUSH1 0xA0 SHL SUB AND PUSH2 0x8FC DUP3 PUSH1 0xC0 ADD MLOAD SWAP1 DUP2 ISZERO MUL SWAP1 PUSH1 0x40 MLOAD PUSH1 0x0 PUSH1 0x40 MLOAD DUP1 DUP4 SUB DUP2 DUP6 DUP9 DUP9 CALL SWAP4 POP POP POP POP PUSH2 0xA19 JUMPI PUSH1 0x0 DUP1 REVERT JUMPDEST POP POP POP POP POP POP JUMP JUMPDEST PUSH1 0x0 SLOAD PUSH1 0x1 PUSH1 0x1 PUSH1 0xA0 SHL SUB AND CALLER EQ PUSH2 0xA4B JUMPI PUSH1 0x40 MLOAD PUSH3 0x461BCD PUSH1 0xE5 SHL DUP2 MSTORE PUSH1 0x4 ADD PUSH2 0x433 SWAP1 PUSH2 0x488F JUMP JUMPDEST PUSH1 0x1 SSTORE JUMP JUMPDEST PUSH1 0xB SLOAD PUSH1 0xFF AND PUSH2 0xE2B JUMPI TIMESTAMP DUP4 PUSH5 0xFFFFFFFFFF AND GT PUSH2 0xA80 JUMPI PUSH1 0x40 MLOAD PUSH3 0x461BCD PUSH1 0xE5 SHL DUP2 MSTORE PUSH1 0x4 ADD PUSH2 0x433 SWAP1 PUSH2 0x4952 JUMP JUMPDEST PUSH2 0xA8C PUSH2 0xE10 DUP5 PUSH2 0x499F JUMP JUMPDEST PUSH5 0xFFFFFFFFFF AND ISZERO PUSH2 0xAB0 JUMPI PUSH1 0x40 MLOAD PUSH3 0x461BCD PUSH1 0xE5 SHL DUP2 MSTORE PUSH1 0x4 ADD PUSH2 0x433 SWAP1 PUSH2 0x49C3 JUMP JUMPDEST PUSH1 0x1 PUSH1 0x1 PUSH1 0xA0 SHL SUB DUP2 AND PUSH2 0xAFC JUMPI CALLVALUE PUSH1 0x64 PUSH1 0x1 SLOAD DUP5 PUSH2 0xACF SWAP2 SWAP1 PUSH2 0x49FA JUMP JUMPDEST PUSH2 0xAD9 SWAP2 SWAP1 PUSH2 0x4A19 JUMP JUMPDEST GT ISZERO PUSH2 0xAF7 JUMPI PUSH1 0x40 MLOAD PUSH3 0x461BCD PUSH1 0xE5 SHL DUP2 MSTORE PUSH1 0x4 ADD PUSH2 0x433 SWAP1 PUSH2 0x4A2D JUMP JUMPDEST PUSH2 0xC0F JUMP JUMPDEST CALLVALUE PUSH1 0x2 SLOAD GT ISZERO PUSH2 0xB1E JUMPI PUSH1 0x40 MLOAD PUSH3 0x461BCD PUSH1 0xE5 SHL DUP2 MSTORE PUSH1 0x4 ADD PUSH2 0x433 SWAP1 PUSH2 0x4A2D JUMP JUMPDEST PUSH2 0xB27 DUP2 PUSH2 0x30B0 JUMP JUMPDEST PUSH2 0xB43 JUMPI PUSH1 0x40 MLOAD PUSH3 0x461BCD PUSH1 0xE5 SHL DUP2 MSTORE PUSH1 0x4 ADD PUSH2 0x433 SWAP1 PUSH2 0x4A71 JUMP JUMPDEST CALLER PUSH1 0x0 SWAP1 DUP2 MSTORE PUSH1 0x7 PUSH1 0x20 SWAP1 DUP2 MSTORE PUSH1 0x40 DUP1 DUP4 KECCAK256 PUSH1 0x1 PUSH1 0x1 PUSH1 0xA0 SHL SUB DUP6 AND DUP5 MSTORE SWAP1 SWAP2 MSTORE SWAP1 KECCAK256 SLOAD PUSH2 0xB72 SWAP1 DUP4 SWAP1 PUSH2 0x4924 JUMP JUMPDEST PUSH1 0x40 MLOAD PUSH4 0x6EB1769F PUSH1 0xE1 SHL DUP2 MSTORE CALLER PUSH1 0x4 DUP3 ADD MSTORE ADDRESS PUSH1 0x24 DUP3 ADD MSTORE PUSH1 0x1 PUSH1 0x1 PUSH1 0xA0 SHL SUB DUP4 AND SWAP1 PUSH4 0xDD62ED3E SWAP1 PUSH1 0x44 ADD PUSH1 0x20 PUSH1 0x40 MLOAD DUP1 DUP4 SUB DUP2 PUSH1 0x0 DUP8 DUP1 EXTCODESIZE ISZERO DUP1 ISZERO PUSH2 0xBB9 JUMPI PUSH1 0x0 DUP1 REVERT JUMPDEST POP GAS CALL ISZERO DUP1 ISZERO PUSH2 0xBCD JUMPI RETURNDATASIZE PUSH1 0x0 DUP1 RETURNDATACOPY RETURNDATASIZE PUSH1 0x0 REVERT JUMPDEST POP POP POP POP PUSH1 0x40 MLOAD RETURNDATASIZE PUSH1 0x1F NOT PUSH1 0x1F DUP3 ADD AND DUP3 ADD DUP1 PUSH1 0x40 MSTORE POP DUP2 ADD SWAP1 PUSH2 0xBF1 SWAP2 SWAP1 PUSH2 0x4AB6 JUMP JUMPDEST LT ISZERO PUSH2 0xC0F JUMPI PUSH1 0x40 MLOAD PUSH3 0x461BCD PUSH1 0xE5 SHL DUP2 MSTORE PUSH1 0x4 ADD PUSH2 0x433 SWAP1 PUSH2 0x4ACF JUMP JUMPDEST PUSH1 0x0 PUSH2 0xC1A DUP5 PUSH2 0x3171 JUMP JUMPDEST SWAP1 POP PUSH1 0x0 PUSH2 0xC2B CALLER DUP8 DUP6 DUP6 DUP9 PUSH2 0x3521 JUMP JUMPDEST PUSH5 0xFFFFFFFFFF DUP1 DUP5 AND PUSH1 0x0 SWAP1 DUP2 MSTORE PUSH1 0x5 PUSH1 0x20 DUP2 DUP2 MSTORE PUSH1 0x40 DUP1 DUP5 KECCAK256 DUP1 SLOAD PUSH1 0x1 DUP2 DUP2 ADD DUP4 SSTORE SWAP2 DUP7 MSTORE SWAP5 DUP4 SWAP1 KECCAK256 DUP8 MLOAD SWAP6 SWAP1 SWAP5 MUL SWAP1 SWAP4 ADD SWAP4 DUP5 SSTORE SWAP1 DUP6 ADD MLOAD SWAP2 DUP4 ADD DUP1 SLOAD PUSH1 0x1 PUSH1 0x1 PUSH1 0xA0 SHL SUB SWAP4 DUP5 AND PUSH1 0x1 PUSH1 0x1 PUSH1 0xA0 SHL SUB NOT SWAP2 DUP3 AND OR SWAP1 SWAP2 SSTORE SWAP1 DUP6 ADD MLOAD PUSH1 0x2 DUP5 ADD DUP1 SLOAD SWAP2 DUP5 AND SWAP2 SWAP1 SWAP3 AND OR SWAP1 SSTORE PUSH1 0x60 DUP5 ADD MLOAD PUSH1 0x3 DUP1 DUP5 ADD DUP1 SLOAD PUSH1 0x80 DUP9 ADD MLOAD SWAP1 SWAP7 AND PUSH1 0x1 PUSH1 0xA0 SHL MUL PUSH1 0x1 PUSH1 0x1 PUSH1 0xC8 SHL SUB NOT SWAP1 SWAP7 AND SWAP3 SWAP1 SWAP4 AND SWAP2 SWAP1 SWAP2 OR SWAP4 SWAP1 SWAP4 OR DUP1 DUP3 SSTORE PUSH1 0xA0 DUP6 ADD MLOAD SWAP5 SWAP6 POP DUP6 SWAP5 SWAP3 SWAP4 PUSH1 0xFF PUSH1 0xC8 SHL NOT SWAP1 SWAP2 AND SWAP1 PUSH1 0x1 PUSH1 0xC8 SHL SWAP1 DUP5 SWAP1 DUP2 GT ISZERO PUSH2 0xCFB JUMPI PUSH2 0xCFB PUSH2 0x4451 JUMP JUMPDEST MUL OR SWAP1 SSTORE POP PUSH1 0xC0 SWAP2 SWAP1 SWAP2 ADD MLOAD PUSH1 0x4 SWAP1 SWAP2 ADD SSTORE PUSH1 0x40 DUP1 MLOAD CALLER DUP2 MSTORE PUSH1 0x1 PUSH1 0x1 PUSH1 0xA0 SHL SUB DUP9 AND PUSH1 0x20 DUP3 ADD MSTORE PUSH5 0xFFFFFFFFFF DUP5 AND DUP2 DUP4 ADD MSTORE PUSH1 0x60 DUP2 ADD DUP7 SWAP1 MSTORE SWAP1 MLOAD PUSH32 0x6E643CB89831CD75DED50B4ECEE0E313701B6002FC48E8B80A3C05447AB066E8 SWAP2 DUP2 SWAP1 SUB PUSH1 0x80 ADD SWAP1 LOG1 PUSH32 0x2C06BED8138CA0B30C30E7FA7C205E13FBB1C8678AF7FF308EBD77EEE8459C87 PUSH1 0x40 MLOAD PUSH2 0xDAA SWAP1 PUSH1 0x20 DUP1 DUP3 MSTORE PUSH1 0x6 SWAP1 DUP3 ADD MSTORE PUSH6 0x141D5CDA1959 PUSH1 0xD2 SHL PUSH1 0x40 DUP3 ADD MSTORE PUSH1 0x60 ADD SWAP1 JUMP JUMPDEST PUSH1 0x40 MLOAD DUP1 SWAP2 SUB SWAP1 LOG1 DUP1 MLOAD PUSH1 0x6 DUP1 SLOAD PUSH1 0x1 DUP2 ADD DUP3 SSTORE PUSH1 0x0 SWAP2 SWAP1 SWAP2 MSTORE PUSH32 0xF652222313E28459528D920B65115C16C04F3EFC82AAEDC97BE59F3F377C0D3F ADD SSTORE PUSH2 0xDF0 DUP3 PUSH2 0x35EF JUMP JUMPDEST CALLER PUSH1 0x0 SWAP1 DUP2 MSTORE PUSH1 0x7 PUSH1 0x20 SWAP1 DUP2 MSTORE PUSH1 0x40 DUP1 DUP4 KECCAK256 PUSH1 0x1 PUSH1 0x1 PUSH1 0xA0 SHL SUB DUP8 AND DUP5 MSTORE SWAP1 SWAP2 MSTORE DUP2 KECCAK256 DUP1 SLOAD DUP7 SWAP3 SWAP1 PUSH2 0xE23 SWAP1 DUP5 SWAP1 PUSH2 0x4924 JUMP JUMPDEST SWAP1 SWAP2 SSTORE POP POP POP POP JUMPDEST POP POP POP POP JUMP JUMPDEST PUSH1 0x0 SLOAD PUSH1 0x1 PUSH1 0x1 PUSH1 0xA0 SHL SUB AND CALLER EQ PUSH2 0xE5B JUMPI PUSH1 0x40 MLOAD PUSH3 0x461BCD PUSH1 0xE5 SHL DUP2 MSTORE PUSH1 0x4 ADD PUSH2 0x433 SWAP1 PUSH2 0x488F JUMP JUMPDEST PUSH1 0x2 SSTORE JUMP JUMPDEST PUSH1 0x0 SLOAD PUSH1 0x1 PUSH1 0x1 PUSH1 0xA0 SHL SUB AND CALLER EQ PUSH2 0xE8A JUMPI PUSH1 0x40 MLOAD PUSH3 0x461BCD PUSH1 0xE5 SHL DUP2 MSTORE PUSH1 0x4 ADD PUSH2 0x433 SWAP1 PUSH2 0x488F JUMP JUMPDEST CALLER PUSH1 0x1 PUSH1 0x1 PUSH1 0xA0 SHL SUB DUP3 AND EQ DUP1 ISZERO PUSH2 0xEAA JUMPI POP PUSH1 0x1 PUSH1 0x1 PUSH1 0xA0 SHL SUB DUP2 AND ISZERO ISZERO JUMPDEST PUSH2 0xEB3 JUMPI PUSH1 0x0 DUP1 REVERT JUMPDEST PUSH1 0x0 DUP1 SLOAD PUSH1 0x1 PUSH1 0x1 PUSH1 0xA0 SHL SUB NOT AND PUSH1 0x1 PUSH1 0x1 PUSH1 0xA0 SHL SUB SWAP3 SWAP1 SWAP3 AND SWAP2 SWAP1 SWAP2 OR SWAP1 SSTORE JUMP JUMPDEST PUSH1 0x0 GAS SWAP1 POP PUSH2 0xEE3 DUP2 PUSH2 0x37A5 JUMP JUMPDEST PUSH2 0xEEF PUSH2 0xE10 DUP4 PUSH2 0x499F JUMP JUMPDEST PUSH5 0xFFFFFFFFFF AND ISZERO PUSH2 0xF13 JUMPI PUSH1 0x40 MLOAD PUSH3 0x461BCD PUSH1 0xE5 SHL DUP2 MSTORE PUSH1 0x4 ADD PUSH2 0x433 SWAP1 PUSH2 0x49C3 JUMP JUMPDEST PUSH1 0x0 PUSH2 0xF21 PUSH2 0xE10 DUP5 PUSH2 0x4B24 JUMP JUMPDEST PUSH5 0xFFFFFFFFFF AND SWAP1 POP PUSH1 0x0 PUSH2 0xF38 PUSH2 0x2238 DUP4 PUSH2 0x4B48 JUMP JUMPDEST SWAP1 POP PUSH1 0x0 PUSH1 0x4 PUSH2 0x2238 PUSH2 0xF4D PUSH2 0x4470 DUP7 PUSH2 0x490D JUMP JUMPDEST PUSH2 0xF57 SWAP2 SWAP1 PUSH2 0x4A19 JUMP JUMPDEST PUSH2 0xF61 SWAP2 SWAP1 PUSH2 0x4A19 JUMP JUMPDEST SWAP1 POP PUSH2 0xF6E PUSH1 0x1 DUP3 PUSH2 0x490D JUMP JUMPDEST PUSH2 0xF79 SWAP1 PUSH1 0x18 PUSH2 0x49FA JUMP JUMPDEST PUSH2 0xF83 SWAP1 DUP4 PUSH2 0x490D JUMP JUMPDEST SWAP2 POP PUSH1 0x0 PUSH2 0xF92 PUSH1 0x18 DUP5 PUSH2 0x4A19 JUMP JUMPDEST SWAP1 POP PUSH1 0x0 PUSH2 0xFA3 DUP4 PUSH3 0x15180 PUSH2 0x49FA JUMP JUMPDEST SWAP1 POP PUSH1 0x0 PUSH2 0xFB8 DUP3 PUSH5 0xFFFFFFFFFF DUP11 AND PUSH2 0x490D JUMP JUMPDEST SWAP1 POP PUSH1 0x0 PUSH2 0xFC5 DUP10 PUSH2 0x37EA JUMP JUMPDEST ISZERO PUSH2 0xFDF JUMPI PUSH2 0xFD8 PUSH4 0x1E28500 DUP4 PUSH2 0x4B48 JUMP JUMPDEST SWAP1 POP PUSH2 0xFF0 JUMP JUMPDEST PUSH2 0xFED PUSH4 0x1E13380 DUP4 PUSH2 0x4B48 JUMP JUMPDEST SWAP1 POP JUMPDEST PUSH1 0x0 PUSH2 0xFFF PUSH3 0x15180 DUP4 PUSH2 0x4A19 JUMP JUMPDEST SWAP1 POP PUSH2 0x100A DUP2 PUSH2 0x37A5 JUMP JUMPDEST PUSH2 0x1013 DUP7 PUSH2 0x37A5 JUMP JUMPDEST PUSH1 0x0 GAS SWAP1 POP PUSH2 0x1021 DUP2 PUSH2 0x37A5 JUMP JUMPDEST POP POP POP POP POP POP POP POP POP POP POP JUMP JUMPDEST PUSH1 0xB SLOAD PUSH1 0xFF AND PUSH2 0x148B JUMPI TIMESTAMP DUP5 PUSH5 0xFFFFFFFFFF AND GT PUSH2 0x105E JUMPI PUSH1 0x40 MLOAD PUSH3 0x461BCD PUSH1 0xE5 SHL DUP2 MSTORE PUSH1 0x4 ADD PUSH2 0x433 SWAP1 PUSH2 0x4952 JUMP JUMPDEST PUSH2 0x106A PUSH2 0xE10 DUP6 PUSH2 0x499F JUMP JUMPDEST PUSH5 0xFFFFFFFFFF AND ISZERO PUSH2 0x108E JUMPI PUSH1 0x40 MLOAD PUSH3 0x461BCD PUSH1 0xE5 SHL DUP2 MSTORE PUSH1 0x4 ADD PUSH2 0x433 SWAP1 PUSH2 0x49C3 JUMP JUMPDEST PUSH1 0x1 PUSH1 0x1 PUSH1 0xA0 SHL SUB DUP3 AND PUSH2 0x10DA JUMPI CALLVALUE PUSH1 0x64 PUSH1 0x1 SLOAD DUP6 PUSH2 0x10AD SWAP2 SWAP1 PUSH2 0x49FA JUMP JUMPDEST PUSH2 0x10B7 SWAP2 SWAP1 PUSH2 0x4A19 JUMP JUMPDEST GT ISZERO PUSH2 0x10D5 JUMPI PUSH1 0x40 MLOAD PUSH3 0x461BCD PUSH1 0xE5 SHL DUP2 MSTORE PUSH1 0x4 ADD PUSH2 0x433 SWAP1 PUSH2 0x4A2D JUMP JUMPDEST PUSH2 0x1193 JUMP JUMPDEST CALLVALUE PUSH1 0x2 SLOAD GT ISZERO PUSH2 0x10FC JUMPI PUSH1 0x40 MLOAD PUSH3 0x461BCD PUSH1 0xE5 SHL DUP2 MSTORE PUSH1 0x4 ADD PUSH2 0x433 SWAP1 PUSH2 0x4A2D JUMP JUMPDEST PUSH2 0x1105 DUP3 PUSH2 0x30B0 JUMP JUMPDEST PUSH2 0x1121 JUMPI PUSH1 0x40 MLOAD PUSH3 0x461BCD PUSH1 0xE5 SHL DUP2 MSTORE PUSH1 0x4 ADD PUSH2 0x433 SWAP1 PUSH2 0x4A71 JUMP JUMPDEST DUP1 PUSH1 0x40 ADD CALLDATALOAD DUP4 GT ISZERO PUSH2 0x1193 JUMPI PUSH1 0x40 MLOAD PUSH3 0x461BCD PUSH1 0xE5 SHL DUP2 MSTORE PUSH1 0x20 PUSH1 0x4 DUP3 ADD MSTORE PUSH1 0x35 PUSH1 0x24 DUP3 ADD MSTORE PUSH32 0x5061796C6F6164206D757374206265206C657373207468616E206F7220657175 PUSH1 0x44 DUP3 ADD MSTORE PUSH21 0x185B081D1BC81D985B1D59481C195C9B5A5D1D1959 PUSH1 0x5A SHL PUSH1 0x64 DUP3 ADD MSTORE PUSH1 0x84 ADD PUSH2 0x433 JUMP JUMPDEST PUSH1 0x0 PUSH2 0x119E DUP6 PUSH2 0x3171 JUMP JUMPDEST SWAP1 POP PUSH1 0x0 PUSH2 0x11AF CALLER DUP9 DUP7 DUP6 DUP10 PUSH2 0x3521 JUMP JUMPDEST PUSH5 0xFFFFFFFFFF DUP1 DUP5 AND PUSH1 0x0 SWAP1 DUP2 MSTORE PUSH1 0x5 PUSH1 0x20 DUP2 DUP2 MSTORE PUSH1 0x40 DUP1 DUP5 KECCAK256 DUP1 SLOAD PUSH1 0x1 DUP2 DUP2 ADD DUP4 SSTORE SWAP2 DUP7 MSTORE SWAP5 DUP4 SWAP1 KECCAK256 DUP8 MLOAD SWAP6 SWAP1 SWAP5 MUL SWAP1 SWAP4 ADD SWAP4 DUP5 SSTORE SWAP1 DUP6 ADD MLOAD SWAP2 DUP4 ADD DUP1 SLOAD PUSH1 0x1 PUSH1 0x1 PUSH1 0xA0 SHL SUB SWAP4 DUP5 AND PUSH1 0x1 PUSH1 0x1 PUSH1 0xA0 SHL SUB NOT SWAP2 DUP3 AND OR SWAP1 SWAP2 SSTORE SWAP1 DUP6 ADD MLOAD PUSH1 0x2 DUP5 ADD DUP1 SLOAD SWAP2 DUP5 AND SWAP2 SWAP1 SWAP3 AND OR SWAP1 SSTORE PUSH1 0x60 DUP5 ADD MLOAD PUSH1 0x3 DUP1 DUP5 ADD DUP1 SLOAD PUSH1 0x80 DUP9 ADD MLOAD SWAP1 SWAP7 AND PUSH1 0x1 PUSH1 0xA0 SHL MUL PUSH1 0x1 PUSH1 0x1 PUSH1 0xC8 SHL SUB NOT SWAP1 SWAP7 AND SWAP3 SWAP1 SWAP4 AND SWAP2 SWAP1 SWAP2 OR SWAP4 SWAP1 SWAP4 OR DUP1 DUP3 SSTORE PUSH1 0xA0 DUP6 ADD MLOAD SWAP5 SWAP6 POP DUP6 SWAP5 SWAP3 SWAP4 PUSH1 0xFF PUSH1 0xC8 SHL NOT SWAP1 SWAP2 AND SWAP1 PUSH1 0x1 PUSH1 0xC8 SHL SWAP1 DUP5 SWAP1 DUP2 GT ISZERO PUSH2 0x127F JUMPI PUSH2 0x127F PUSH2 0x4451 JUMP JUMPDEST MUL OR SWAP1 SSTORE POP PUSH1 0xC0 SWAP2 SWAP1 SWAP2 ADD MLOAD PUSH1 0x4 SWAP1 SWAP2 ADD SSTORE PUSH1 0x40 DUP1 MLOAD CALLER DUP2 MSTORE PUSH1 0x1 PUSH1 0x1 PUSH1 0xA0 SHL SUB DUP10 AND PUSH1 0x20 DUP3 ADD MSTORE PUSH5 0xFFFFFFFFFF DUP5 AND DUP2 DUP4 ADD MSTORE PUSH1 0x60 DUP2 ADD DUP8 SWAP1 MSTORE SWAP1 MLOAD PUSH32 0x6E643CB89831CD75DED50B4ECEE0E313701B6002FC48E8B80A3C05447AB066E8 SWAP2 DUP2 SWAP1 SUB PUSH1 0x80 ADD SWAP1 LOG1 PUSH32 0x2C06BED8138CA0B30C30E7FA7C205E13FBB1C8678AF7FF308EBD77EEE8459C87 PUSH1 0x40 MLOAD PUSH2 0x132E SWAP1 PUSH1 0x20 DUP1 DUP3 MSTORE PUSH1 0x6 SWAP1 DUP3 ADD MSTORE PUSH6 0x141D5CDA1959 PUSH1 0xD2 SHL PUSH1 0x40 DUP3 ADD MSTORE PUSH1 0x60 ADD SWAP1 JUMP JUMPDEST PUSH1 0x40 MLOAD DUP1 SWAP2 SUB SWAP1 LOG1 DUP1 MLOAD PUSH1 0x6 DUP1 SLOAD PUSH1 0x1 DUP2 ADD DUP3 SSTORE PUSH1 0x0 SWAP2 SWAP1 SWAP2 MSTORE PUSH32 0xF652222313E28459528D920B65115C16C04F3EFC82AAEDC97BE59F3F377C0D3F ADD SSTORE PUSH2 0x1374 DUP3 PUSH2 0x35EF JUMP JUMPDEST CALLER PUSH1 0x0 SWAP1 DUP2 MSTORE PUSH1 0x7 PUSH1 0x20 SWAP1 DUP2 MSTORE PUSH1 0x40 DUP1 DUP4 KECCAK256 PUSH1 0x1 PUSH1 0x1 PUSH1 0xA0 SHL SUB DUP9 AND DUP5 MSTORE SWAP1 SWAP2 MSTORE DUP2 KECCAK256 DUP1 SLOAD DUP8 SWAP3 SWAP1 PUSH2 0x13A7 SWAP1 DUP5 SWAP1 PUSH2 0x4924 JUMP JUMPDEST SWAP1 SWAP2 SSTORE POP POP PUSH1 0x1 PUSH1 0x1 PUSH1 0xA0 SHL SUB DUP5 AND ISZERO PUSH2 0x1488 JUMPI PUSH1 0x1 PUSH1 0x1 PUSH1 0xA0 SHL SUB DUP5 AND PUSH4 0xD505ACCF PUSH2 0x13D7 PUSH1 0x20 DUP7 ADD DUP7 PUSH2 0x442D JUMP JUMPDEST PUSH2 0x13E7 PUSH1 0x40 DUP8 ADD PUSH1 0x20 DUP9 ADD PUSH2 0x442D JUMP JUMPDEST PUSH1 0x40 DUP8 ADD CALLDATALOAD PUSH1 0x60 DUP9 ADD CALLDATALOAD PUSH2 0x1401 PUSH1 0xA0 DUP11 ADD PUSH1 0x80 DUP12 ADD PUSH2 0x4B5C JUMP JUMPDEST PUSH1 0x40 MLOAD PUSH1 0x1 PUSH1 0x1 PUSH1 0xE0 SHL SUB NOT PUSH1 0xE0 DUP9 SWAP1 SHL AND DUP2 MSTORE PUSH1 0x1 PUSH1 0x1 PUSH1 0xA0 SHL SUB SWAP6 DUP7 AND PUSH1 0x4 DUP3 ADD MSTORE SWAP5 SWAP1 SWAP4 AND PUSH1 0x24 DUP6 ADD MSTORE PUSH1 0x44 DUP5 ADD SWAP2 SWAP1 SWAP2 MSTORE PUSH1 0x64 DUP4 ADD MSTORE PUSH1 0xFF AND PUSH1 0x84 DUP3 ADD MSTORE PUSH1 0xA0 DUP7 ADD CALLDATALOAD PUSH1 0xA4 DUP3 ADD MSTORE PUSH1 0xC0 DUP7 ADD CALLDATALOAD PUSH1 0xC4 DUP3 ADD MSTORE PUSH1 0xE4 ADD PUSH1 0x0 PUSH1 0x40 MLOAD DUP1 DUP4 SUB DUP2 PUSH1 0x0 DUP8 DUP1 EXTCODESIZE ISZERO DUP1 ISZERO PUSH2 0x1474 JUMPI PUSH1 0x0 DUP1 REVERT JUMPDEST POP GAS CALL ISZERO DUP1 ISZERO PUSH2 0x1021 JUMPI RETURNDATASIZE PUSH1 0x0 DUP1 RETURNDATACOPY RETURNDATASIZE PUSH1 0x0 REVERT JUMPDEST POP POP JUMPDEST POP POP POP POP POP JUMP JUMPDEST PUSH1 0x0 SLOAD PUSH1 0x1 PUSH1 0x1 PUSH1 0xA0 SHL SUB AND CALLER EQ PUSH2 0x14BC JUMPI PUSH1 0x40 MLOAD PUSH3 0x461BCD PUSH1 0xE5 SHL DUP2 MSTORE PUSH1 0x4 ADD PUSH2 0x433 SWAP1 PUSH2 0x488F JUMP JUMPDEST PUSH1 0x0 PUSH2 0x14C7 TIMESTAMP PUSH2 0x3171 JUMP JUMPDEST PUSH1 0xB SLOAD SWAP1 SWAP2 POP PUSH5 0xFFFFFFFFFF PUSH2 0x100 SWAP1 SWAP2 DIV DUP2 AND SWAP1 DUP3 AND GT PUSH2 0x14FB JUMPI PUSH1 0x40 MLOAD PUSH3 0x461BCD PUSH1 0xE5 SHL DUP2 MSTORE PUSH1 0x4 ADD PUSH2 0x433 SWAP1 PUSH2 0x4B7F JUMP JUMPDEST PUSH1 0xB SLOAD PUSH2 0x100 SWAP1 DIV PUSH5 0xFFFFFFFFFF AND JUMPDEST DUP2 PUSH5 0xFFFFFFFFFF AND DUP2 PUSH5 0xFFFFFFFFFF AND GT PUSH2 0x163F JUMPI PUSH5 0xFFFFFFFFFF DUP2 AND PUSH1 0x0 SWAP1 DUP2 MSTORE PUSH1 0x5 PUSH1 0x20 SWAP1 DUP2 MSTORE PUSH1 0x40 DUP1 DUP4 KECCAK256 DUP1 SLOAD DUP3 MLOAD DUP2 DUP6 MUL DUP2 ADD DUP6 ADD SWAP1 SWAP4 MSTORE DUP1 DUP4 MSTORE SWAP2 SWAP3 SWAP1 SWAP2 SWAP1 DUP5 SWAP1 DUP5 ADD JUMPDEST DUP3 DUP3 LT ISZERO PUSH2 0x1613 JUMPI PUSH1 0x0 DUP5 DUP2 MSTORE PUSH1 0x20 SWAP1 DUP2 SWAP1 KECCAK256 PUSH1 0x40 DUP1 MLOAD PUSH1 0xE0 DUP2 ADD DUP3 MSTORE PUSH1 0x5 DUP7 MUL SWAP1 SWAP3 ADD DUP1 SLOAD DUP4 MSTORE PUSH1 0x1 DUP2 ADD SLOAD PUSH1 0x1 PUSH1 0x1 PUSH1 0xA0 SHL SUB SWAP1 DUP2 AND SWAP5 DUP5 ADD SWAP5 SWAP1 SWAP5 MSTORE PUSH1 0x2 DUP2 ADD SLOAD DUP5 AND SWAP2 DUP4 ADD SWAP2 SWAP1 SWAP2 MSTORE PUSH1 0x3 DUP1 DUP3 ADD SLOAD SWAP4 DUP5 AND PUSH1 0x60 DUP5 ADD MSTORE PUSH1 0x1 PUSH1 0xA0 SHL DUP5 DIV PUSH5 0xFFFFFFFFFF AND PUSH1 0x80 DUP5 ADD MSTORE SWAP2 SWAP3 SWAP1 SWAP2 PUSH1 0xA0 DUP5 ADD SWAP2 PUSH1 0x1 PUSH1 0xC8 SHL SWAP1 DIV PUSH1 0xFF AND SWAP1 DUP2 GT ISZERO PUSH2 0x15E5 JUMPI PUSH2 0x15E5 PUSH2 0x4451 JUMP JUMPDEST PUSH1 0x3 DUP2 GT ISZERO PUSH2 0x15F6 JUMPI PUSH2 0x15F6 PUSH2 0x4451 JUMP JUMPDEST DUP2 MSTORE PUSH1 0x20 ADD PUSH1 0x4 DUP3 ADD SLOAD DUP2 MSTORE POP POP DUP2 MSTORE PUSH1 0x20 ADD SWAP1 PUSH1 0x1 ADD SWAP1 PUSH2 0x1554 JUMP JUMPDEST POP POP POP POP SWAP1 POP PUSH1 0x0 DUP2 MLOAD GT ISZERO PUSH2 0x162C JUMPI PUSH2 0x162C DUP2 PUSH2 0x38AF JUMP JUMPDEST POP DUP1 PUSH2 0x1637 DUP2 PUSH2 0x4BC6 JUMP JUMPDEST SWAP2 POP POP PUSH2 0x150B JUMP JUMPDEST POP PUSH1 0xB DUP1 SLOAD PUSH5 0xFFFFFFFFFF SWAP1 SWAP3 AND PUSH2 0x100 MUL PUSH6 0xFFFFFFFFFF00 NOT SWAP1 SWAP3 AND SWAP2 SWAP1 SWAP2 OR SWAP1 SSTORE JUMP JUMPDEST PUSH1 0x0 SLOAD PUSH1 0x1 PUSH1 0x1 PUSH1 0xA0 SHL SUB AND CALLER EQ PUSH2 0x168E JUMPI PUSH1 0x40 MLOAD PUSH3 0x461BCD PUSH1 0xE5 SHL DUP2 MSTORE PUSH1 0x4 ADD PUSH2 0x433 SWAP1 PUSH2 0x488F JUMP JUMPDEST PUSH1 0x1 PUSH1 0x1 PUSH1 0xA0 SHL SUB DUP2 AND PUSH2 0x16A1 JUMPI PUSH1 0x0 DUP1 REVERT JUMPDEST PUSH2 0x16AA DUP2 PUSH2 0x30B0 JUMP JUMPDEST ISZERO PUSH2 0x16F7 JUMPI PUSH1 0x40 MLOAD PUSH3 0x461BCD PUSH1 0xE5 SHL DUP2 MSTORE PUSH1 0x20 PUSH1 0x4 DUP3 ADD MSTORE PUSH1 0x19 PUSH1 0x24 DUP3 ADD MSTORE PUSH32 0x455243323020746F6B656E20616C726561647920616464656400000000000000 PUSH1 0x44 DUP3 ADD MSTORE PUSH1 0x64 ADD PUSH2 0x433 JUMP JUMPDEST PUSH1 0xA DUP1 SLOAD PUSH1 0x1 DUP2 ADD DUP3 SSTORE PUSH1 0x0 SWAP2 SWAP1 SWAP2 MSTORE PUSH32 0xC65A7BB8D6351C1CF70C95A316CC6A92839C986682D98BC35F958F4883F9D2A8 ADD DUP1 SLOAD PUSH1 0x1 PUSH1 0x1 PUSH1 0xA0 SHL SUB NOT AND PUSH1 0x1 PUSH1 0x1 PUSH1 0xA0 SHL SUB SWAP3 SWAP1 SWAP3 AND SWAP2 SWAP1 SWAP2 OR SWAP1 SSTORE JUMP JUMPDEST CALLER PUSH1 0x0 SWAP1 DUP2 MSTORE PUSH1 0x3 PUSH1 0x20 SWAP1 DUP2 MSTORE PUSH1 0x40 DUP1 DUP4 KECCAK256 PUSH1 0x1 ADD DUP1 SLOAD DUP3 MLOAD DUP2 DUP6 MUL DUP2 ADD DUP6 ADD SWAP1 SWAP4 MSTORE DUP1 DUP4 MSTORE PUSH1 0x60 SWAP5 SWAP4 DUP4 ADD DUP3 DUP3 DUP1 ISZERO PUSH2 0x17D0 JUMPI PUSH1 0x20 MUL DUP3 ADD SWAP2 SWAP1 PUSH1 0x0 MSTORE PUSH1 0x20 PUSH1 0x0 KECCAK256 SWAP1 PUSH1 0x0 SWAP1 JUMPDEST DUP3 DUP3 SWAP1 SLOAD SWAP1 PUSH2 0x100 EXP SWAP1 DIV PUSH5 0xFFFFFFFFFF AND PUSH5 0xFFFFFFFFFF AND DUP2 MSTORE PUSH1 0x20 ADD SWAP1 PUSH1 0x5 ADD SWAP1 PUSH1 0x20 DUP3 PUSH1 0x4 ADD DIV SWAP3 DUP4 ADD SWAP3 PUSH1 0x1 SUB DUP3 MUL SWAP2 POP DUP1 DUP5 GT PUSH2 0x1791 JUMPI SWAP1 POP JUMPDEST POP POP POP POP POP SWAP1 POP PUSH1 0x0 DUP1 JUMPDEST DUP3 MLOAD DUP2 LT ISZERO PUSH2 0x1928 JUMPI PUSH1 0x0 PUSH1 0x5 PUSH1 0x0 DUP6 DUP5 DUP2 MLOAD DUP2 LT PUSH2 0x17FC JUMPI PUSH2 0x17FC PUSH2 0x48C6 JUMP JUMPDEST PUSH1 0x20 MUL PUSH1 0x20 ADD ADD MLOAD PUSH5 0xFFFFFFFFFF AND PUSH5 0xFFFFFFFFFF AND DUP2 MSTORE PUSH1 0x20 ADD SWAP1 DUP2 MSTORE PUSH1 0x20 ADD PUSH1 0x0 KECCAK256 DUP1 SLOAD DUP1 PUSH1 0x20 MUL PUSH1 0x20 ADD PUSH1 0x40 MLOAD SWAP1 DUP2 ADD PUSH1 0x40 MSTORE DUP1 SWAP3 SWAP2 SWAP1 DUP2 DUP2 MSTORE PUSH1 0x20 ADD PUSH1 0x0 SWAP1 JUMPDEST DUP3 DUP3 LT ISZERO PUSH2 0x18FF JUMPI PUSH1 0x0 DUP5 DUP2 MSTORE PUSH1 0x20 SWAP1 DUP2 SWAP1 KECCAK256 PUSH1 0x40 DUP1 MLOAD PUSH1 0xE0 DUP2 ADD DUP3 MSTORE PUSH1 0x5 DUP7 MUL SWAP1 SWAP3 ADD DUP1 SLOAD DUP4 MSTORE PUSH1 0x1 DUP2 ADD SLOAD PUSH1 0x1 PUSH1 0x1 PUSH1 0xA0 SHL SUB SWAP1 DUP2 AND SWAP5 DUP5 ADD SWAP5 SWAP1 SWAP5 MSTORE PUSH1 0x2 DUP2 ADD SLOAD DUP5 AND SWAP2 DUP4 ADD SWAP2 SWAP1 SWAP2 MSTORE PUSH1 0x3 DUP1 DUP3 ADD SLOAD SWAP4 DUP5 AND PUSH1 0x60 DUP5 ADD MSTORE PUSH1 0x1 PUSH1 0xA0 SHL DUP5 DIV PUSH5 0xFFFFFFFFFF AND PUSH1 0x80 DUP5 ADD MSTORE SWAP2 SWAP3 SWAP1 SWAP2 PUSH1 0xA0 DUP5 ADD SWAP2 PUSH1 0x1 PUSH1 0xC8 SHL SWAP1 DIV PUSH1 0xFF AND SWAP1 DUP2 GT ISZERO PUSH2 0x18D1 JUMPI PUSH2 0x18D1 PUSH2 0x4451 JUMP JUMPDEST PUSH1 0x3 DUP2 GT ISZERO PUSH2 0x18E2 JUMPI PUSH2 0x18E2 PUSH2 0x4451 JUMP JUMPDEST DUP2 MSTORE PUSH1 0x20 ADD PUSH1 0x4 DUP3 ADD SLOAD DUP2 MSTORE POP POP DUP2 MSTORE PUSH1 0x20 ADD SWAP1 PUSH1 0x1 ADD SWAP1 PUSH2 0x1840 JUMP JUMPDEST POP POP POP POP SWAP1 POP DUP1 MLOAD DUP4 PUSH2 0x1912 SWAP2 SWAP1 PUSH2 0x4924 JUMP JUMPDEST SWAP3 POP POP DUP1 DUP1 PUSH2 0x1920 SWAP1 PUSH2 0x48F2 JUMP JUMPDEST SWAP2 POP POP PUSH2 0x17DB JUMP JUMPDEST POP PUSH1 0x0 DUP2 PUSH8 0xFFFFFFFFFFFFFFFF DUP2 GT ISZERO PUSH2 0x1944 JUMPI PUSH2 0x1944 PUSH2 0x4724 JUMP JUMPDEST PUSH1 0x40 MLOAD SWAP1 DUP1 DUP3 MSTORE DUP1 PUSH1 0x20 MUL PUSH1 0x20 ADD DUP3 ADD PUSH1 0x40 MSTORE DUP1 ISZERO PUSH2 0x197D JUMPI DUP2 PUSH1 0x20 ADD JUMPDEST PUSH2 0x196A PUSH2 0x432F JUMP JUMPDEST DUP2 MSTORE PUSH1 0x20 ADD SWAP1 PUSH1 0x1 SWAP1 SUB SWAP1 DUP2 PUSH2 0x1962 JUMPI SWAP1 POP JUMPDEST POP SWAP1 POP PUSH1 0x0 DUP3 PUSH8 0xFFFFFFFFFFFFFFFF DUP2 GT ISZERO PUSH2 0x199B JUMPI PUSH2 0x199B PUSH2 0x4724 JUMP JUMPDEST PUSH1 0x40 MLOAD SWAP1 DUP1 DUP3 MSTORE DUP1 PUSH1 0x20 MUL PUSH1 0x20 ADD DUP3 ADD PUSH1 0x40 MSTORE DUP1 ISZERO PUSH2 0x19D4 JUMPI DUP2 PUSH1 0x20 ADD JUMPDEST PUSH2 0x19C1 PUSH2 0x432F JUMP JUMPDEST DUP2 MSTORE PUSH1 0x20 ADD SWAP1 PUSH1 0x1 SWAP1 SUB SWAP1 DUP2 PUSH2 0x19B9 JUMPI SWAP1 POP JUMPDEST POP SWAP1 POP PUSH1 0x0 DUP1 JUMPDEST DUP6 MLOAD DUP2 LT ISZERO PUSH2 0x1BB1 JUMPI PUSH1 0x5 PUSH1 0x0 DUP8 DUP4 DUP2 MLOAD DUP2 LT PUSH2 0x19FA JUMPI PUSH2 0x19FA PUSH2 0x48C6 JUMP JUMPDEST PUSH1 0x20 MUL PUSH1 0x20 ADD ADD MLOAD PUSH5 0xFFFFFFFFFF AND PUSH5 0xFFFFFFFFFF AND DUP2 MSTORE PUSH1 0x20 ADD SWAP1 DUP2 MSTORE PUSH1 0x20 ADD PUSH1 0x0 KECCAK256 DUP1 SLOAD DUP1 PUSH1 0x20 MUL PUSH1 0x20 ADD PUSH1 0x40 MLOAD SWAP1 DUP2 ADD PUSH1 0x40 MSTORE DUP1 SWAP3 SWAP2 SWAP1 DUP2 DUP2 MSTORE PUSH1 0x20 ADD PUSH1 0x0 SWAP1 JUMPDEST DUP3 DUP3 LT ISZERO PUSH2 0x1AFD JUMPI PUSH1 0x0 DUP5 DUP2 MSTORE PUSH1 0x20 SWAP1 DUP2 SWAP1 KECCAK256 PUSH1 0x40 DUP1 MLOAD PUSH1 0xE0 DUP2 ADD DUP3 MSTORE PUSH1 0x5 DUP7 MUL SWAP1 SWAP3 ADD DUP1 SLOAD DUP4 MSTORE PUSH1 0x1 DUP2 ADD SLOAD PUSH1 0x1 PUSH1 0x1 PUSH1 0xA0 SHL SUB SWAP1 DUP2 AND SWAP5 DUP5 ADD SWAP5 SWAP1 SWAP5 MSTORE PUSH1 0x2 DUP2 ADD SLOAD DUP5 AND SWAP2 DUP4 ADD SWAP2 SWAP1 SWAP2 MSTORE PUSH1 0x3 DUP1 DUP3 ADD SLOAD SWAP4 DUP5 AND PUSH1 0x60 DUP5 ADD MSTORE PUSH1 0x1 PUSH1 0xA0 SHL DUP5 DIV PUSH5 0xFFFFFFFFFF AND PUSH1 0x80 DUP5 ADD MSTORE SWAP2 SWAP3 SWAP1 SWAP2 PUSH1 0xA0 DUP5 ADD SWAP2 PUSH1 0x1 PUSH1 0xC8 SHL SWAP1 DIV PUSH1 0xFF AND SWAP1 DUP2 GT ISZERO PUSH2 0x1ACF JUMPI PUSH2 0x1ACF PUSH2 0x4451 JUMP JUMPDEST PUSH1 0x3 DUP2 GT ISZERO PUSH2 0x1AE0 JUMPI PUSH2 0x1AE0 PUSH2 0x4451 JUMP JUMPDEST DUP2 MSTORE PUSH1 0x20 ADD PUSH1 0x4 DUP3 ADD SLOAD DUP2 MSTORE POP POP DUP2 MSTORE PUSH1 0x20 ADD SWAP1 PUSH1 0x1 ADD SWAP1 PUSH2 0x1A3E JUMP JUMPDEST POP POP POP POP SWAP4 POP PUSH1 0x0 JUMPDEST DUP5 MLOAD DUP2 LT ISZERO PUSH2 0x1B9E JUMPI CALLER PUSH1 0x1 PUSH1 0x1 PUSH1 0xA0 SHL SUB AND DUP6 DUP3 DUP2 MLOAD DUP2 LT PUSH2 0x1B2B JUMPI PUSH2 0x1B2B PUSH2 0x48C6 JUMP JUMPDEST PUSH1 0x20 MUL PUSH1 0x20 ADD ADD MLOAD PUSH1 0x20 ADD MLOAD PUSH1 0x1 PUSH1 0x1 PUSH1 0xA0 SHL SUB AND EQ ISZERO PUSH2 0x1B8C JUMPI DUP5 DUP2 DUP2 MLOAD DUP2 LT PUSH2 0x1B58 JUMPI PUSH2 0x1B58 PUSH2 0x48C6 JUMP JUMPDEST PUSH1 0x20 MUL PUSH1 0x20 ADD ADD MLOAD DUP5 DUP5 DUP2 MLOAD DUP2 LT PUSH2 0x1B72 JUMPI PUSH2 0x1B72 PUSH2 0x48C6 JUMP JUMPDEST PUSH1 0x20 MUL PUSH1 0x20 ADD ADD DUP2 SWAP1 MSTORE POP DUP3 DUP1 PUSH2 0x1B88 SWAP1 PUSH2 0x48F2 JUMP JUMPDEST SWAP4 POP POP JUMPDEST DUP1 PUSH2 0x1B96 DUP2 PUSH2 0x48F2 JUMP JUMPDEST SWAP2 POP POP PUSH2 0x1B06 JUMP JUMPDEST POP DUP1 PUSH2 0x1BA9 DUP2 PUSH2 0x48F2 JUMP JUMPDEST SWAP2 POP POP PUSH2 0x19DB JUMP JUMPDEST POP PUSH1 0x0 JUMPDEST DUP3 MLOAD DUP2 LT ISZERO PUSH2 0x1C22 JUMPI PUSH2 0x1BE4 DUP4 DUP3 DUP2 MLOAD DUP2 LT PUSH2 0x1BD3 JUMPI PUSH2 0x1BD3 PUSH2 0x48C6 JUMP JUMPDEST PUSH1 0x20 MUL PUSH1 0x20 ADD ADD MLOAD PUSH1 0x80 ADD MLOAD PUSH2 0x4073 JUMP JUMPDEST DUP4 DUP3 DUP2 MLOAD DUP2 LT PUSH2 0x1BF6 JUMPI PUSH2 0x1BF6 PUSH2 0x48C6 JUMP JUMPDEST PUSH1 0x20 SWAP1 DUP2 MUL SWAP2 SWAP1 SWAP2 ADD ADD MLOAD PUSH5 0xFFFFFFFFFF SWAP1 SWAP2 AND PUSH1 0x80 SWAP1 SWAP2 ADD MSTORE DUP1 PUSH2 0x1C1A DUP2 PUSH2 0x48F2 JUMP JUMPDEST SWAP2 POP POP PUSH2 0x1BB5 JUMP JUMPDEST POP SWAP1 SWAP6 SWAP5 POP POP POP POP POP JUMP JUMPDEST PUSH1 0x0 SLOAD PUSH1 0x60 SWAP1 PUSH1 0x1 PUSH1 0x1 PUSH1 0xA0 SHL SUB AND CALLER EQ PUSH2 0x1C5A JUMPI PUSH1 0x40 MLOAD PUSH3 0x461BCD PUSH1 0xE5 SHL DUP2 MSTORE PUSH1 0x4 ADD PUSH2 0x433 SWAP1 PUSH2 0x488F JUMP JUMPDEST PUSH1 0x4 SLOAD PUSH1 0x0 SWAP1 PUSH8 0xFFFFFFFFFFFFFFFF DUP2 GT ISZERO PUSH2 0x1C78 JUMPI PUSH2 0x1C78 PUSH2 0x4724 JUMP JUMPDEST PUSH1 0x40 MLOAD SWAP1 DUP1 DUP3 MSTORE DUP1 PUSH1 0x20 MUL PUSH1 0x20 ADD DUP3 ADD PUSH1 0x40 MSTORE DUP1 ISZERO PUSH2 0x1CC5 JUMPI DUP2 PUSH1 0x20 ADD JUMPDEST PUSH1 0x40 DUP1 MLOAD PUSH1 0x60 DUP1 DUP3 ADD DUP4 MSTORE PUSH1 0x0 DUP1 DUP4 MSTORE PUSH1 0x20 DUP4 ADD MSTORE SWAP2 DUP2 ADD SWAP2 SWAP1 SWAP2 MSTORE DUP2 MSTORE PUSH1 0x20 ADD SWAP1 PUSH1 0x1 SWAP1 SUB SWAP1 DUP2 PUSH2 0x1C96 JUMPI SWAP1 POP JUMPDEST POP SWAP1 POP PUSH1 0x0 JUMPDEST PUSH1 0x4 SLOAD DUP2 LT ISZERO PUSH2 0x1DE6 JUMPI PUSH1 0x3 PUSH1 0x0 PUSH1 0x4 DUP4 DUP2 SLOAD DUP2 LT PUSH2 0x1CEC JUMPI PUSH2 0x1CEC PUSH2 0x48C6 JUMP JUMPDEST PUSH1 0x0 SWAP2 DUP3 MSTORE PUSH1 0x20 DUP1 DUP4 KECCAK256 SWAP2 SWAP1 SWAP2 ADD SLOAD PUSH1 0x1 PUSH1 0x1 PUSH1 0xA0 SHL SUB SWAP1 DUP2 AND DUP5 MSTORE DUP4 DUP3 ADD SWAP5 SWAP1 SWAP5 MSTORE PUSH1 0x40 SWAP3 DUP4 ADD SWAP1 SWAP2 KECCAK256 DUP3 MLOAD PUSH1 0x60 DUP2 ADD DUP5 MSTORE DUP2 SLOAD SWAP5 DUP6 AND DUP2 MSTORE PUSH1 0x1 PUSH1 0xA0 SHL SWAP1 SWAP5 DIV PUSH1 0xFF AND ISZERO ISZERO DUP5 DUP4 ADD MSTORE PUSH1 0x1 DUP2 ADD DUP1 SLOAD DUP5 MLOAD DUP2 DUP6 MUL DUP2 ADD DUP6 ADD DUP7 MSTORE DUP2 DUP2 MSTORE SWAP3 SWAP5 DUP7 ADD SWAP4 DUP4 ADD DUP3 DUP3 DUP1 ISZERO PUSH2 0x1DAD JUMPI PUSH1 0x20 MUL DUP3 ADD SWAP2 SWAP1 PUSH1 0x0 MSTORE PUSH1 0x20 PUSH1 0x0 KECCAK256 SWAP1 PUSH1 0x0 SWAP1 JUMPDEST DUP3 DUP3 SWAP1 SLOAD SWAP1 PUSH2 0x100 EXP SWAP1 DIV PUSH5 0xFFFFFFFFFF AND PUSH5 0xFFFFFFFFFF AND DUP2 MSTORE PUSH1 0x20 ADD SWAP1 PUSH1 0x5 ADD SWAP1 PUSH1 0x20 DUP3 PUSH1 0x4 ADD DIV SWAP3 DUP4 ADD SWAP3 PUSH1 0x1 SUB DUP3 MUL SWAP2 POP DUP1 DUP5 GT PUSH2 0x1D6E JUMPI SWAP1 POP JUMPDEST POP POP POP POP POP DUP2 MSTORE POP POP DUP3 DUP3 DUP2 MLOAD DUP2 LT PUSH2 0x1DC8 JUMPI PUSH2 0x1DC8 PUSH2 0x48C6 JUMP JUMPDEST PUSH1 0x20 MUL PUSH1 0x20 ADD ADD DUP2 SWAP1 MSTORE POP DUP1 DUP1 PUSH2 0x1DDE SWAP1 PUSH2 0x48F2 JUMP JUMPDEST SWAP2 POP POP PUSH2 0x1CCB JUMP JUMPDEST POP SWAP1 POP SWAP1 JUMP JUMPDEST PUSH1 0xB SLOAD PUSH1 0xFF AND PUSH2 0x29E8 JUMPI PUSH1 0x1 DUP2 MLOAD GT DUP1 ISZERO PUSH2 0x1E08 JUMPI POP PUSH1 0x64 DUP2 MLOAD LT JUMPDEST PUSH2 0x1E7A JUMPI PUSH1 0x40 MLOAD PUSH3 0x461BCD PUSH1 0xE5 SHL DUP2 MSTORE PUSH1 0x20 PUSH1 0x4 DUP3 ADD MSTORE PUSH1 0x3B PUSH1 0x24 DUP3 ADD MSTORE PUSH32 0x4261746368206D7573742068617665206D6F7265207468616E206F6E65207472 PUSH1 0x44 DUP3 ADD MSTORE PUSH32 0x616E73616374696F6E20616E64206C657373207468616E203130300000000000 PUSH1 0x64 DUP3 ADD MSTORE PUSH1 0x84 ADD PUSH2 0x433 JUMP JUMPDEST PUSH2 0x1EA5 PUSH1 0x40 MLOAD DUP1 PUSH1 0x80 ADD PUSH1 0x40 MSTORE DUP1 PUSH1 0x0 DUP2 MSTORE PUSH1 0x20 ADD PUSH1 0x0 DUP2 MSTORE PUSH1 0x20 ADD PUSH1 0x0 DUP2 MSTORE PUSH1 0x20 ADD PUSH1 0x60 DUP2 MSTORE POP SWAP1 JUMP JUMPDEST CALLVALUE DUP3 MLOAD PUSH1 0x2 SLOAD PUSH2 0x1EB5 SWAP2 SWAP1 PUSH2 0x49FA JUMP JUMPDEST GT ISZERO PUSH2 0x1ED3 JUMPI PUSH1 0x40 MLOAD PUSH3 0x461BCD PUSH1 0xE5 SHL DUP2 MSTORE PUSH1 0x4 ADD PUSH2 0x433 SWAP1 PUSH2 0x4A2D JUMP JUMPDEST PUSH1 0xA SLOAD PUSH1 0x0 SWAP1 PUSH8 0xFFFFFFFFFFFFFFFF DUP2 GT ISZERO PUSH2 0x1EF1 JUMPI PUSH2 0x1EF1 PUSH2 0x4724 JUMP JUMPDEST PUSH1 0x40 MLOAD SWAP1 DUP1 DUP3 MSTORE DUP1 PUSH1 0x20 MUL PUSH1 0x20 ADD DUP3 ADD PUSH1 0x40 MSTORE DUP1 ISZERO PUSH2 0x1F1A JUMPI DUP2 PUSH1 0x20 ADD PUSH1 0x20 DUP3 MUL DUP1 CALLDATASIZE DUP4 CALLDATACOPY ADD SWAP1 POP JUMPDEST POP CALLER PUSH1 0x0 SWAP1 DUP2 MSTORE PUSH1 0x3 PUSH1 0x20 MSTORE PUSH1 0x40 DUP2 KECCAK256 PUSH1 0x1 ADD SLOAD SWAP2 SWAP3 POP SWAP1 PUSH2 0x1F3D SWAP1 PUSH1 0x64 PUSH2 0x4924 JUMP JUMPDEST PUSH8 0xFFFFFFFFFFFFFFFF DUP2 GT ISZERO PUSH2 0x1F55 JUMPI PUSH2 0x1F55 PUSH2 0x4724 JUMP JUMPDEST PUSH1 0x40 MLOAD SWAP1 DUP1 DUP3 MSTORE DUP1 PUSH1 0x20 MUL PUSH1 0x20 ADD DUP3 ADD PUSH1 0x40 MSTORE DUP1 ISZERO PUSH2 0x1F7E JUMPI DUP2 PUSH1 0x20 ADD PUSH1 0x20 DUP3 MUL DUP1 CALLDATASIZE DUP4 CALLDATACOPY ADD SWAP1 POP JUMPDEST POP SWAP1 POP PUSH1 0x0 JUMPDEST DUP5 MLOAD DUP2 LT ISZERO PUSH2 0x2457 JUMPI TIMESTAMP DUP6 DUP3 DUP2 MLOAD DUP2 LT PUSH2 0x1FA0 JUMPI PUSH2 0x1FA0 PUSH2 0x48C6 JUMP JUMPDEST PUSH1 0x20 MUL PUSH1 0x20 ADD ADD MLOAD PUSH1 0x20 ADD MLOAD PUSH5 0xFFFFFFFFFF AND GT PUSH2 0x1FD0 JUMPI PUSH1 0x40 MLOAD PUSH3 0x461BCD PUSH1 0xE5 SHL DUP2 MSTORE PUSH1 0x4 ADD PUSH2 0x433 SWAP1 PUSH2 0x4952 JUMP JUMPDEST PUSH2 0xE10 DUP6 DUP3 DUP2 MLOAD DUP2 LT PUSH2 0x1FE5 JUMPI PUSH2 0x1FE5 PUSH2 0x48C6 JUMP JUMPDEST PUSH1 0x20 MUL PUSH1 0x20 ADD ADD MLOAD PUSH1 0x20 ADD MLOAD PUSH2 0x1FFB SWAP2 SWAP1 PUSH2 0x499F JUMP JUMPDEST PUSH5 0xFFFFFFFFFF AND ISZERO PUSH2 0x201F JUMPI PUSH1 0x40 MLOAD PUSH3 0x461BCD PUSH1 0xE5 SHL DUP2 MSTORE PUSH1 0x4 ADD PUSH2 0x433 SWAP1 PUSH2 0x49C3 JUMP JUMPDEST PUSH1 0x0 PUSH2 0x2047 DUP7 DUP4 DUP2 MLOAD DUP2 LT PUSH2 0x2036 JUMPI PUSH2 0x2036 PUSH2 0x48C6 JUMP JUMPDEST PUSH1 0x20 MUL PUSH1 0x20 ADD ADD MLOAD PUSH1 0x20 ADD MLOAD PUSH2 0x3171 JUMP JUMPDEST SWAP1 POP PUSH2 0x2053 DUP2 DUP5 PUSH2 0x4081 JUMP JUMPDEST PUSH2 0x20A1 JUMPI DUP1 DUP4 DUP7 PUSH1 0x40 ADD MLOAD DUP2 MLOAD DUP2 LT PUSH2 0x206E JUMPI PUSH2 0x206E PUSH2 0x48C6 JUMP JUMPDEST PUSH1 0x20 MUL PUSH1 0x20 ADD ADD SWAP1 PUSH5 0xFFFFFFFFFF AND SWAP1 DUP2 PUSH5 0xFFFFFFFFFF AND DUP2 MSTORE POP POP PUSH1 0x1 DUP6 PUSH1 0x40 ADD DUP2 DUP2 MLOAD PUSH2 0x209D SWAP2 SWAP1 PUSH2 0x4924 JUMP JUMPDEST SWAP1 MSTORE POP JUMPDEST PUSH1 0x0 PUSH1 0x1 PUSH1 0x1 PUSH1 0xA0 SHL SUB AND DUP7 DUP4 DUP2 MLOAD DUP2 LT PUSH2 0x20BE JUMPI PUSH2 0x20BE PUSH2 0x48C6 JUMP JUMPDEST PUSH1 0x20 MUL PUSH1 0x20 ADD ADD MLOAD PUSH1 0x60 ADD MLOAD PUSH1 0x1 PUSH1 0x1 PUSH1 0xA0 SHL SUB AND EQ ISZERO PUSH2 0x2110 JUMPI DUP6 DUP3 DUP2 MLOAD DUP2 LT PUSH2 0x20EB JUMPI PUSH2 0x20EB PUSH2 0x48C6 JUMP JUMPDEST PUSH1 0x20 MUL PUSH1 0x20 ADD ADD MLOAD PUSH1 0x40 ADD MLOAD DUP6 PUSH1 0x0 ADD DUP2 DUP2 MLOAD PUSH2 0x2108 SWAP2 SWAP1 PUSH2 0x4924 JUMP JUMPDEST SWAP1 MSTORE POP PUSH2 0x2335 JUMP JUMPDEST PUSH2 0x2136 DUP7 DUP4 DUP2 MLOAD DUP2 LT PUSH2 0x2125 JUMPI PUSH2 0x2125 PUSH2 0x48C6 JUMP JUMPDEST PUSH1 0x20 MUL PUSH1 0x20 ADD ADD MLOAD PUSH1 0x60 ADD MLOAD PUSH2 0x30B0 JUMP JUMPDEST PUSH2 0x2152 JUMPI PUSH1 0x40 MLOAD PUSH3 0x461BCD PUSH1 0xE5 SHL DUP2 MSTORE PUSH1 0x4 ADD PUSH2 0x433 SWAP1 PUSH2 0x4A71 JUMP JUMPDEST DUP6 DUP3 DUP2 MLOAD DUP2 LT PUSH2 0x2164 JUMPI PUSH2 0x2164 PUSH2 0x48C6 JUMP JUMPDEST PUSH1 0x20 MUL PUSH1 0x20 ADD ADD MLOAD PUSH1 0x40 ADD MLOAD PUSH1 0x7 PUSH1 0x0 CALLER PUSH1 0x1 PUSH1 0x1 PUSH1 0xA0 SHL SUB AND PUSH1 0x1 PUSH1 0x1 PUSH1 0xA0 SHL SUB AND DUP2 MSTORE PUSH1 0x20 ADD SWAP1 DUP2 MSTORE PUSH1 0x20 ADD PUSH1 0x0 KECCAK256 PUSH1 0x0 DUP9 DUP6 DUP2 MLOAD DUP2 LT PUSH2 0x21A9 JUMPI PUSH2 0x21A9 PUSH2 0x48C6 JUMP JUMPDEST PUSH1 0x20 MUL PUSH1 0x20 ADD ADD MLOAD PUSH1 0x60 ADD MLOAD PUSH1 0x1 PUSH1 0x1 PUSH1 0xA0 SHL SUB AND PUSH1 0x1 PUSH1 0x1 PUSH1 0xA0 SHL SUB AND DUP2 MSTORE PUSH1 0x20 ADD SWAP1 DUP2 MSTORE PUSH1 0x20 ADD PUSH1 0x0 KECCAK256 SLOAD PUSH2 0x21E0 SWAP2 SWAP1 PUSH2 0x4924 JUMP JUMPDEST DUP7 DUP4 DUP2 MLOAD DUP2 LT PUSH2 0x21F2 JUMPI PUSH2 0x21F2 PUSH2 0x48C6 JUMP JUMPDEST PUSH1 0x20 SWAP1 DUP2 MUL SWAP2 SWAP1 SWAP2 ADD ADD MLOAD PUSH1 0x60 ADD MLOAD PUSH1 0x40 MLOAD PUSH4 0x6EB1769F PUSH1 0xE1 SHL DUP2 MSTORE CALLER PUSH1 0x4 DUP3 ADD MSTORE ADDRESS PUSH1 0x24 DUP3 ADD MSTORE PUSH1 0x1 PUSH1 0x1 PUSH1 0xA0 SHL SUB SWAP1 SWAP2 AND SWAP1 PUSH4 0xDD62ED3E SWAP1 PUSH1 0x44 ADD PUSH1 0x20 PUSH1 0x40 MLOAD DUP1 DUP4 SUB DUP2 PUSH1 0x0 DUP8 DUP1 EXTCODESIZE ISZERO DUP1 ISZERO PUSH2 0x2249 JUMPI PUSH1 0x0 DUP1 REVERT JUMPDEST POP GAS CALL ISZERO DUP1 ISZERO PUSH2 0x225D JUMPI RETURNDATASIZE PUSH1 0x0 DUP1 RETURNDATACOPY RETURNDATASIZE PUSH1 0x0 REVERT JUMPDEST POP POP POP POP PUSH1 0x40 MLOAD RETURNDATASIZE PUSH1 0x1F NOT PUSH1 0x1F DUP3 ADD AND DUP3 ADD DUP1 PUSH1 0x40 MSTORE POP DUP2 ADD SWAP1 PUSH2 0x2281 SWAP2 SWAP1 PUSH2 0x4AB6 JUMP JUMPDEST LT ISZERO PUSH2 0x229F JUMPI PUSH1 0x40 MLOAD PUSH3 0x461BCD PUSH1 0xE5 SHL DUP2 MSTORE PUSH1 0x4 ADD PUSH2 0x433 SWAP1 PUSH2 0x4ACF JUMP JUMPDEST PUSH2 0x22C6 DUP7 DUP4 DUP2 MLOAD DUP2 LT PUSH2 0x22B4 JUMPI PUSH2 0x22B4 PUSH2 0x48C6 JUMP JUMPDEST PUSH1 0x20 MUL PUSH1 0x20 ADD ADD MLOAD PUSH1 0x60 ADD MLOAD DUP6 PUSH2 0x40E3 JUMP JUMPDEST PUSH2 0x2335 JUMPI DUP6 DUP3 DUP2 MLOAD DUP2 LT PUSH2 0x22DC JUMPI PUSH2 0x22DC PUSH2 0x48C6 JUMP JUMPDEST PUSH1 0x20 MUL PUSH1 0x20 ADD ADD MLOAD PUSH1 0x60 ADD MLOAD DUP5 DUP7 PUSH1 0x20 ADD MLOAD DUP2 MLOAD DUP2 LT PUSH2 0x22FE JUMPI PUSH2 0x22FE PUSH2 0x48C6 JUMP JUMPDEST PUSH1 0x20 MUL PUSH1 0x20 ADD ADD SWAP1 PUSH1 0x1 PUSH1 0x1 PUSH1 0xA0 SHL SUB AND SWAP1 DUP2 PUSH1 0x1 PUSH1 0x1 PUSH1 0xA0 SHL SUB AND DUP2 MSTORE POP POP PUSH1 0x1 DUP6 PUSH1 0x20 ADD DUP2 DUP2 MLOAD PUSH2 0x2331 SWAP2 SWAP1 PUSH2 0x4924 JUMP JUMPDEST SWAP1 MSTORE POP JUMPDEST DUP6 DUP3 DUP2 MLOAD DUP2 LT PUSH2 0x2347 JUMPI PUSH2 0x2347 PUSH2 0x48C6 JUMP JUMPDEST PUSH1 0x20 MUL PUSH1 0x20 ADD ADD MLOAD PUSH1 0x40 ADD MLOAD PUSH1 0x8 PUSH1 0x0 DUP9 DUP6 DUP2 MLOAD DUP2 LT PUSH2 0x2369 JUMPI PUSH2 0x2369 PUSH2 0x48C6 JUMP JUMPDEST PUSH1 0x20 MUL PUSH1 0x20 ADD ADD MLOAD PUSH1 0x60 ADD MLOAD PUSH1 0x1 PUSH1 0x1 PUSH1 0xA0 SHL SUB AND PUSH1 0x1 PUSH1 0x1 PUSH1 0xA0 SHL SUB AND DUP2 MSTORE PUSH1 0x20 ADD SWAP1 DUP2 MSTORE PUSH1 0x20 ADD PUSH1 0x0 KECCAK256 PUSH1 0x0 DUP3 DUP3 SLOAD PUSH2 0x23A4 SWAP2 SWAP1 PUSH2 0x4924 JUMP JUMPDEST SWAP3 POP POP DUP2 SWAP1 SSTORE POP DUP6 DUP3 DUP2 MLOAD DUP2 LT PUSH2 0x23BD JUMPI PUSH2 0x23BD PUSH2 0x48C6 JUMP JUMPDEST PUSH1 0x20 MUL PUSH1 0x20 ADD ADD MLOAD PUSH1 0x40 ADD MLOAD PUSH1 0x7 PUSH1 0x0 CALLER PUSH1 0x1 PUSH1 0x1 PUSH1 0xA0 SHL SUB AND PUSH1 0x1 PUSH1 0x1 PUSH1 0xA0 SHL SUB AND DUP2 MSTORE PUSH1 0x20 ADD SWAP1 DUP2 MSTORE PUSH1 0x20 ADD PUSH1 0x0 KECCAK256 PUSH1 0x0 DUP9 DUP6 DUP2 MLOAD DUP2 LT PUSH2 0x2402 JUMPI PUSH2 0x2402 PUSH2 0x48C6 JUMP JUMPDEST PUSH1 0x20 MUL PUSH1 0x20 ADD ADD MLOAD PUSH1 0x60 ADD MLOAD PUSH1 0x1 PUSH1 0x1 PUSH1 0xA0 SHL SUB AND PUSH1 0x1 PUSH1 0x1 PUSH1 0xA0 SHL SUB AND DUP2 MSTORE PUSH1 0x20 ADD SWAP1 DUP2 MSTORE PUSH1 0x20 ADD PUSH1 0x0 KECCAK256 PUSH1 0x0 DUP3 DUP3 SLOAD PUSH2 0x243D SWAP2 SWAP1 PUSH2 0x4924 JUMP JUMPDEST SWAP1 SWAP2 SSTORE POP DUP3 SWAP2 POP PUSH2 0x244F SWAP1 POP DUP2 PUSH2 0x48F2 JUMP JUMPDEST SWAP2 POP POP PUSH2 0x1F84 JUMP JUMPDEST CALLVALUE PUSH1 0x64 PUSH1 0x1 SLOAD DUP7 PUSH1 0x0 ADD MLOAD PUSH2 0x246C SWAP2 SWAP1 PUSH2 0x49FA JUMP JUMPDEST PUSH2 0x2476 SWAP2 SWAP1 PUSH2 0x4A19 JUMP JUMPDEST GT ISZERO PUSH2 0x2494 JUMPI PUSH1 0x40 MLOAD PUSH3 0x461BCD PUSH1 0xE5 SHL DUP2 MSTORE PUSH1 0x4 ADD PUSH2 0x433 SWAP1 PUSH2 0x4A2D JUMP JUMPDEST POP PUSH1 0x0 JUMPDEST DUP2 MLOAD DUP2 LT ISZERO PUSH2 0x26FC JUMPI DUP2 DUP2 DUP2 MLOAD DUP2 LT PUSH2 0x24B3 JUMPI PUSH2 0x24B3 PUSH2 0x48C6 JUMP JUMPDEST PUSH1 0x20 MUL PUSH1 0x20 ADD ADD MLOAD PUSH5 0xFFFFFFFFFF AND PUSH1 0x0 EQ ISZERO PUSH2 0x24CF JUMPI PUSH2 0x26FC JUMP JUMPDEST PUSH1 0x0 JUMPDEST DUP6 MLOAD DUP2 PUSH2 0xFFFF AND LT ISZERO PUSH2 0x26E9 JUMPI PUSH1 0x0 PUSH2 0x24FA DUP8 DUP4 PUSH2 0xFFFF AND DUP2 MLOAD DUP2 LT PUSH2 0x2036 JUMPI PUSH2 0x2036 PUSH2 0x48C6 JUMP JUMPDEST SWAP1 POP DUP4 DUP4 DUP2 MLOAD DUP2 LT PUSH2 0x250E JUMPI PUSH2 0x250E PUSH2 0x48C6 JUMP JUMPDEST PUSH1 0x20 MUL PUSH1 0x20 ADD ADD MLOAD PUSH5 0xFFFFFFFFFF AND DUP2 PUSH5 0xFFFFFFFFFF AND EQ ISZERO PUSH2 0x26D6 JUMPI PUSH1 0x0 PUSH2 0x259D CALLER DUP10 DUP6 PUSH2 0xFFFF AND DUP2 MLOAD DUP2 LT PUSH2 0x2547 JUMPI PUSH2 0x2547 PUSH2 0x48C6 JUMP JUMPDEST PUSH1 0x20 MUL PUSH1 0x20 ADD ADD MLOAD PUSH1 0x0 ADD MLOAD DUP11 DUP7 PUSH2 0xFFFF AND DUP2 MLOAD DUP2 LT PUSH2 0x2569 JUMPI PUSH2 0x2569 PUSH2 0x48C6 JUMP JUMPDEST PUSH1 0x20 MUL PUSH1 0x20 ADD ADD MLOAD PUSH1 0x60 ADD MLOAD DUP6 DUP13 DUP9 PUSH2 0xFFFF AND DUP2 MLOAD DUP2 LT PUSH2 0x258C JUMPI PUSH2 0x258C PUSH2 0x48C6 JUMP JUMPDEST PUSH1 0x20 MUL PUSH1 0x20 ADD ADD MLOAD PUSH1 0x40 ADD MLOAD PUSH2 0x3521 JUMP JUMPDEST SWAP1 POP DUP1 PUSH1 0x5 PUSH1 0x0 DUP8 DUP8 DUP2 MLOAD DUP2 LT PUSH2 0x25B6 JUMPI PUSH2 0x25B6 PUSH2 0x48C6 JUMP JUMPDEST PUSH1 0x20 SWAP1 DUP2 MUL SWAP2 SWAP1 SWAP2 ADD DUP2 ADD MLOAD PUSH5 0xFFFFFFFFFF SWAP1 DUP2 AND DUP4 MSTORE DUP3 DUP3 ADD SWAP4 SWAP1 SWAP4 MSTORE PUSH1 0x40 SWAP2 DUP3 ADD PUSH1 0x0 SWAP1 DUP2 KECCAK256 DUP1 SLOAD PUSH1 0x1 DUP2 DUP2 ADD DUP4 SSTORE SWAP2 DUP4 MSTORE SWAP2 DUP4 SWAP1 KECCAK256 DUP7 MLOAD PUSH1 0x5 SWAP1 SWAP4 MUL ADD SWAP2 DUP3 SSTORE SWAP2 DUP6 ADD MLOAD SWAP2 DUP2 ADD DUP1 SLOAD PUSH1 0x1 PUSH1 0x1 PUSH1 0xA0 SHL SUB SWAP4 DUP5 AND PUSH1 0x1 PUSH1 0x1 PUSH1 0xA0 SHL SUB NOT SWAP2 DUP3 AND OR SWAP1 SWAP2 SSTORE SWAP3 DUP6 ADD MLOAD PUSH1 0x2 DUP3 ADD DUP1 SLOAD SWAP2 DUP5 AND SWAP2 SWAP1 SWAP5 AND OR SWAP1 SWAP3 SSTORE PUSH1 0x60 DUP5 ADD MLOAD PUSH1 0x3 DUP1 DUP5 ADD DUP1 SLOAD PUSH1 0x80 DUP9 ADD MLOAD SWAP1 SWAP7 AND PUSH1 0x1 PUSH1 0xA0 SHL MUL PUSH1 0x1 PUSH1 0x1 PUSH1 0xC8 SHL SUB NOT SWAP1 SWAP7 AND SWAP3 SWAP1 SWAP4 AND SWAP2 SWAP1 SWAP2 OR SWAP4 SWAP1 SWAP4 OR DUP1 DUP3 SSTORE PUSH1 0xA0 DUP6 ADD MLOAD SWAP3 SWAP4 PUSH1 0xFF PUSH1 0xC8 SHL NOT SWAP1 SWAP2 AND SWAP1 PUSH1 0x1 PUSH1 0xC8 SHL SWAP1 DUP5 SWAP1 DUP2 GT ISZERO PUSH2 0x268F JUMPI PUSH2 0x268F PUSH2 0x4451 JUMP JUMPDEST MUL OR SWAP1 SSTORE POP PUSH1 0xC0 SWAP2 SWAP1 SWAP2 ADD MLOAD PUSH1 0x4 SWAP1 SWAP2 ADD SSTORE MLOAD PUSH1 0x6 DUP1 SLOAD PUSH1 0x1 DUP2 ADD DUP3 SSTORE PUSH1 0x0 SWAP2 SWAP1 SWAP2 MSTORE PUSH32 0xF652222313E28459528D920B65115C16C04F3EFC82AAEDC97BE59F3F377C0D3F ADD SSTORE JUMPDEST POP DUP1 PUSH2 0x26E1 DUP2 PUSH2 0x4BEB JUMP JUMPDEST SWAP2 POP POP PUSH2 0x24D2 JUMP JUMPDEST POP DUP1 PUSH2 0x26F4 DUP2 PUSH2 0x48F2 JUMP JUMPDEST SWAP2 POP POP PUSH2 0x2498 JUMP JUMPDEST POP PUSH1 0x0 JUMPDEST DUP3 MLOAD DUP2 LT ISZERO PUSH2 0x295A JUMPI PUSH1 0x0 PUSH1 0x1 PUSH1 0x1 PUSH1 0xA0 SHL SUB AND DUP4 DUP3 DUP2 MLOAD DUP2 LT PUSH2 0x2726 JUMPI PUSH2 0x2726 PUSH2 0x48C6 JUMP JUMPDEST PUSH1 0x20 MUL PUSH1 0x20 ADD ADD MLOAD PUSH1 0x1 PUSH1 0x1 PUSH1 0xA0 SHL SUB AND EQ PUSH2 0x2903 JUMPI PUSH1 0x8 PUSH1 0x0 DUP5 DUP4 DUP2 MLOAD DUP2 LT PUSH2 0x2752 JUMPI PUSH2 0x2752 PUSH2 0x48C6 JUMP JUMPDEST PUSH1 0x20 MUL PUSH1 0x20 ADD ADD MLOAD PUSH1 0x1 PUSH1 0x1 PUSH1 0xA0 SHL SUB AND PUSH1 0x1 PUSH1 0x1 PUSH1 0xA0 SHL SUB AND DUP2 MSTORE PUSH1 0x20 ADD SWAP1 DUP2 MSTORE PUSH1 0x20 ADD PUSH1 0x0 KECCAK256 SLOAD DUP4 DUP3 DUP2 MLOAD DUP2 LT PUSH2 0x278D JUMPI PUSH2 0x278D PUSH2 0x48C6 JUMP JUMPDEST PUSH1 0x20 SWAP1 DUP2 MUL SWAP2 SWAP1 SWAP2 ADD ADD MLOAD PUSH1 0x40 MLOAD PUSH4 0x6EB1769F PUSH1 0xE1 SHL DUP2 MSTORE CALLER PUSH1 0x4 DUP3 ADD MSTORE ADDRESS PUSH1 0x24 DUP3 ADD MSTORE PUSH1 0x1 PUSH1 0x1 PUSH1 0xA0 SHL SUB SWAP1 SWAP2 AND SWAP1 PUSH4 0xDD62ED3E SWAP1 PUSH1 0x44 ADD PUSH1 0x20 PUSH1 0x40 MLOAD DUP1 DUP4 SUB DUP2 PUSH1 0x0 DUP8 DUP1 EXTCODESIZE ISZERO DUP1 ISZERO PUSH2 0x27E0 JUMPI PUSH1 0x0 DUP1 REVERT JUMPDEST POP GAS CALL ISZERO DUP1 ISZERO PUSH2 0x27F4 JUMPI RETURNDATASIZE PUSH1 0x0 DUP1 RETURNDATACOPY RETURNDATASIZE PUSH1 0x0 REVERT JUMPDEST POP POP POP POP PUSH1 0x40 MLOAD RETURNDATASIZE PUSH1 0x1F NOT PUSH1 0x1F DUP3 ADD AND DUP3 ADD DUP1 PUSH1 0x40 MSTORE POP DUP2 ADD SWAP1 PUSH2 0x2818 SWAP2 SWAP1 PUSH2 0x4AB6 JUMP JUMPDEST LT ISZERO DUP1 ISZERO PUSH2 0x28FA JUMPI POP PUSH1 0x8 PUSH1 0x0 DUP5 DUP4 DUP2 MLOAD DUP2 LT PUSH2 0x2837 JUMPI PUSH2 0x2837 PUSH2 0x48C6 JUMP JUMPDEST PUSH1 0x20 MUL PUSH1 0x20 ADD ADD MLOAD PUSH1 0x1 PUSH1 0x1 PUSH1 0xA0 SHL SUB AND PUSH1 0x1 PUSH1 0x1 PUSH1 0xA0 SHL SUB AND DUP2 MSTORE PUSH1 0x20 ADD SWAP1 DUP2 MSTORE PUSH1 0x20 ADD PUSH1 0x0 KECCAK256 SLOAD DUP4 DUP3 DUP2 MLOAD DUP2 LT PUSH2 0x2872 JUMPI PUSH2 0x2872 PUSH2 0x48C6 JUMP JUMPDEST PUSH1 0x20 SWAP1 DUP2 MUL SWAP2 SWAP1 SWAP2 ADD ADD MLOAD PUSH1 0x40 MLOAD PUSH4 0x70A08231 PUSH1 0xE0 SHL DUP2 MSTORE CALLER PUSH1 0x4 DUP3 ADD MSTORE PUSH1 0x1 PUSH1 0x1 PUSH1 0xA0 SHL SUB SWAP1 SWAP2 AND SWAP1 PUSH4 0x70A08231 SWAP1 PUSH1 0x24 ADD PUSH1 0x20 PUSH1 0x40 MLOAD DUP1 DUP4 SUB DUP2 PUSH1 0x0 DUP8 DUP1 EXTCODESIZE ISZERO DUP1 ISZERO PUSH2 0x28BF JUMPI PUSH1 0x0 DUP1 REVERT JUMPDEST POP GAS CALL ISZERO DUP1 ISZERO PUSH2 0x28D3 JUMPI RETURNDATASIZE PUSH1 0x0 DUP1 RETURNDATACOPY RETURNDATASIZE PUSH1 0x0 REVERT JUMPDEST POP POP POP POP PUSH1 0x40 MLOAD RETURNDATASIZE PUSH1 0x1F NOT PUSH1 0x1F DUP3 ADD AND DUP3 ADD DUP1 PUSH1 0x40 MSTORE POP DUP2 ADD SWAP1 PUSH2 0x28F7 SWAP2 SWAP1 PUSH2 0x4AB6 JUMP JUMPDEST LT ISZERO JUMPDEST PUSH2 0x2903 JUMPI PUSH1 0x0 DUP1 REVERT JUMPDEST PUSH1 0x0 PUSH1 0x8 PUSH1 0x0 DUP6 DUP5 DUP2 MLOAD DUP2 LT PUSH2 0x291B JUMPI PUSH2 0x291B PUSH2 0x48C6 JUMP JUMPDEST PUSH1 0x20 MUL PUSH1 0x20 ADD ADD MLOAD PUSH1 0x1 PUSH1 0x1 PUSH1 0xA0 SHL SUB AND PUSH1 0x1 PUSH1 0x1 PUSH1 0xA0 SHL SUB AND DUP2 MSTORE PUSH1 0x20 ADD SWAP1 DUP2 MSTORE PUSH1 0x20 ADD PUSH1 0x0 KECCAK256 DUP2 SWAP1 SSTORE POP DUP1 DUP1 PUSH2 0x2952 SWAP1 PUSH2 0x48F2 JUMP JUMPDEST SWAP2 POP POP PUSH2 0x2700 JUMP JUMPDEST CALLER PUSH1 0x0 SWAP1 DUP2 MSTORE PUSH1 0x3 PUSH1 0x20 MSTORE PUSH1 0x40 SWAP1 KECCAK256 SLOAD PUSH1 0x1 PUSH1 0xA0 SHL SWAP1 DIV PUSH1 0xFF AND PUSH2 0x148B JUMPI CALLER PUSH1 0x0 DUP2 DUP2 MSTORE PUSH1 0x3 PUSH1 0x20 MSTORE PUSH1 0x40 DUP2 KECCAK256 DUP1 SLOAD PUSH1 0x1 PUSH1 0x1 PUSH1 0xA0 SHL SUB NOT SWAP1 DUP2 AND DUP5 OR DUP3 SSTORE PUSH1 0x4 DUP1 SLOAD PUSH1 0x1 DUP2 ADD SWAP1 SWAP2 SSTORE PUSH32 0x8A35ACFBC15FF81A39AE7D344FD709F28E8600B4AA8C65C6B64BFE7FE36BD19B ADD DUP1 SLOAD SWAP1 SWAP2 AND DUP5 OR SWAP1 SSTORE SWAP2 SWAP1 MSTORE DUP1 SLOAD PUSH1 0xFF PUSH1 0xA0 SHL NOT AND PUSH1 0x1 PUSH1 0xA0 SHL OR SWAP1 SSTORE POP POP POP POP JUMPDEST POP JUMP JUMPDEST PUSH1 0x0 SLOAD PUSH1 0x60 SWAP1 PUSH1 0x1 PUSH1 0x1 PUSH1 0xA0 SHL SUB AND CALLER EQ PUSH2 0x2A18 JUMPI PUSH1 0x40 MLOAD PUSH3 0x461BCD PUSH1 0xE5 SHL DUP2 MSTORE PUSH1 0x4 ADD PUSH2 0x433 SWAP1 PUSH2 0x488F JUMP JUMPDEST PUSH1 0x1 PUSH1 0x1 PUSH1 0xA0 SHL SUB DUP3 AND PUSH1 0x0 SWAP1 DUP2 MSTORE PUSH1 0x3 PUSH1 0x20 SWAP1 DUP2 MSTORE PUSH1 0x40 DUP1 DUP4 KECCAK256 PUSH1 0x1 ADD DUP1 SLOAD DUP3 MLOAD DUP2 DUP6 MUL DUP2 ADD DUP6 ADD SWAP1 SWAP4 MSTORE DUP1 DUP4 MSTORE SWAP2 SWAP3 SWAP1 SWAP2 SWAP1 DUP4 ADD DUP3 DUP3 DUP1 ISZERO PUSH2 0x2AA9 JUMPI PUSH1 0x20 MUL DUP3 ADD SWAP2 SWAP1 PUSH1 0x0 MSTORE PUSH1 0x20 PUSH1 0x0 KECCAK256 SWAP1 PUSH1 0x0 SWAP1 JUMPDEST DUP3 DUP3 SWAP1 SLOAD SWAP1 PUSH2 0x100 EXP SWAP1 DIV PUSH5 0xFFFFFFFFFF AND PUSH5 0xFFFFFFFFFF AND DUP2 MSTORE PUSH1 0x20 ADD SWAP1 PUSH1 0x5 ADD SWAP1 PUSH1 0x20 DUP3 PUSH1 0x4 ADD DIV SWAP3 DUP4 ADD SWAP3 PUSH1 0x1 SUB DUP3 MUL SWAP2 POP DUP1 DUP5 GT PUSH2 0x2A6A JUMPI SWAP1 POP JUMPDEST POP POP POP POP POP SWAP1 POP PUSH1 0x0 DUP1 JUMPDEST DUP3 MLOAD DUP2 LT ISZERO PUSH2 0x2C01 JUMPI PUSH1 0x0 PUSH1 0x5 PUSH1 0x0 DUP6 DUP5 DUP2 MLOAD DUP2 LT PUSH2 0x2AD5 JUMPI PUSH2 0x2AD5 PUSH2 0x48C6 JUMP JUMPDEST PUSH1 0x20 MUL PUSH1 0x20 ADD ADD MLOAD PUSH5 0xFFFFFFFFFF AND PUSH5 0xFFFFFFFFFF AND DUP2 MSTORE PUSH1 0x20 ADD SWAP1 DUP2 MSTORE PUSH1 0x20 ADD PUSH1 0x0 KECCAK256 DUP1 SLOAD DUP1 PUSH1 0x20 MUL PUSH1 0x20 ADD PUSH1 0x40 MLOAD SWAP1 DUP2 ADD PUSH1 0x40 MSTORE DUP1 SWAP3 SWAP2 SWAP1 DUP2 DUP2 MSTORE PUSH1 0x20 ADD PUSH1 0x0 SWAP1 JUMPDEST DUP3 DUP3 LT ISZERO PUSH2 0x2BD8 JUMPI PUSH1 0x0 DUP5 DUP2 MSTORE PUSH1 0x20 SWAP1 DUP2 SWAP1 KECCAK256 PUSH1 0x40 DUP1 MLOAD PUSH1 0xE0 DUP2 ADD DUP3 MSTORE PUSH1 0x5 DUP7 MUL SWAP1 SWAP3 ADD DUP1 SLOAD DUP4 MSTORE PUSH1 0x1 DUP2 ADD SLOAD PUSH1 0x1 PUSH1 0x1 PUSH1 0xA0 SHL SUB SWAP1 DUP2 AND SWAP5 DUP5 ADD SWAP5 SWAP1 SWAP5 MSTORE PUSH1 0x2 DUP2 ADD SLOAD DUP5 AND SWAP2 DUP4 ADD SWAP2 SWAP1 SWAP2 MSTORE PUSH1 0x3 DUP1 DUP3 ADD SLOAD SWAP4 DUP5 AND PUSH1 0x60 DUP5 ADD MSTORE PUSH1 0x1 PUSH1 0xA0 SHL DUP5 DIV PUSH5 0xFFFFFFFFFF AND PUSH1 0x80 DUP5 ADD MSTORE SWAP2 SWAP3 SWAP1 SWAP2 PUSH1 0xA0 DUP5 ADD SWAP2 PUSH1 0x1 PUSH1 0xC8 SHL SWAP1 DIV PUSH1 0xFF AND SWAP1 DUP2 GT ISZERO PUSH2 0x2BAA JUMPI PUSH2 0x2BAA PUSH2 0x4451 JUMP JUMPDEST PUSH1 0x3 DUP2 GT ISZERO PUSH2 0x2BBB JUMPI PUSH2 0x2BBB PUSH2 0x4451 JUMP JUMPDEST DUP2 MSTORE PUSH1 0x20 ADD PUSH1 0x4 DUP3 ADD SLOAD DUP2 MSTORE POP POP DUP2 MSTORE PUSH1 0x20 ADD SWAP1 PUSH1 0x1 ADD SWAP1 PUSH2 0x2B19 JUMP JUMPDEST POP POP POP POP SWAP1 POP DUP1 MLOAD DUP4 PUSH2 0x2BEB SWAP2 SWAP1 PUSH2 0x4924 JUMP JUMPDEST SWAP3 POP POP DUP1 DUP1 PUSH2 0x2BF9 SWAP1 PUSH2 0x48F2 JUMP JUMPDEST SWAP2 POP POP PUSH2 0x2AB4 JUMP JUMPDEST POP PUSH1 0x0 DUP2 PUSH8 0xFFFFFFFFFFFFFFFF DUP2 GT ISZERO PUSH2 0x2C1D JUMPI PUSH2 0x2C1D PUSH2 0x4724 JUMP JUMPDEST PUSH1 0x40 MLOAD SWAP1 DUP1 DUP3 MSTORE DUP1 PUSH1 0x20 MUL PUSH1 0x20 ADD DUP3 ADD PUSH1 0x40 MSTORE DUP1 ISZERO PUSH2 0x2C56 JUMPI DUP2 PUSH1 0x20 ADD JUMPDEST PUSH2 0x2C43 PUSH2 0x432F JUMP JUMPDEST DUP2 MSTORE PUSH1 0x20 ADD SWAP1 PUSH1 0x1 SWAP1 SUB SWAP1 DUP2 PUSH2 0x2C3B JUMPI SWAP1 POP JUMPDEST POP SWAP1 POP PUSH1 0x0 DUP3 PUSH8 0xFFFFFFFFFFFFFFFF DUP2 GT ISZERO PUSH2 0x2C74 JUMPI PUSH2 0x2C74 PUSH2 0x4724 JUMP JUMPDEST PUSH1 0x40 MLOAD SWAP1 DUP1 DUP3 MSTORE DUP1 PUSH1 0x20 MUL PUSH1 0x20 ADD DUP3 ADD PUSH1 0x40 MSTORE DUP1 ISZERO PUSH2 0x2CAD JUMPI DUP2 PUSH1 0x20 ADD JUMPDEST PUSH2 0x2C9A PUSH2 0x432F JUMP JUMPDEST DUP2 MSTORE PUSH1 0x20 ADD SWAP1 PUSH1 0x1 SWAP1 SUB SWAP1 DUP2 PUSH2 0x2C92 JUMPI SWAP1 POP JUMPDEST POP SWAP1 POP PUSH1 0x0 DUP1 JUMPDEST DUP6 MLOAD DUP2 LT ISZERO PUSH2 0x2E8A JUMPI PUSH1 0x5 PUSH1 0x0 DUP8 DUP4 DUP2 MLOAD DUP2 LT PUSH2 0x2CD3 JUMPI PUSH2 0x2CD3 PUSH2 0x48C6 JUMP JUMPDEST PUSH1 0x20 MUL PUSH1 0x20 ADD ADD MLOAD PUSH5 0xFFFFFFFFFF AND PUSH5 0xFFFFFFFFFF AND DUP2 MSTORE PUSH1 0x20 ADD SWAP1 DUP2 MSTORE PUSH1 0x20 ADD PUSH1 0x0 KECCAK256 DUP1 SLOAD DUP1 PUSH1 0x20 MUL PUSH1 0x20 ADD PUSH1 0x40 MLOAD SWAP1 DUP2 ADD PUSH1 0x40 MSTORE DUP1 SWAP3 SWAP2 SWAP1 DUP2 DUP2 MSTORE PUSH1 0x20 ADD PUSH1 0x0 SWAP1 JUMPDEST DUP3 DUP3 LT ISZERO PUSH2 0x2DD6 JUMPI PUSH1 0x0 DUP5 DUP2 MSTORE PUSH1 0x20 SWAP1 DUP2 SWAP1 KECCAK256 PUSH1 0x40 DUP1 MLOAD PUSH1 0xE0 DUP2 ADD DUP3 MSTORE PUSH1 0x5 DUP7 MUL SWAP1 SWAP3 ADD DUP1 SLOAD DUP4 MSTORE PUSH1 0x1 DUP2 ADD SLOAD PUSH1 0x1 PUSH1 0x1 PUSH1 0xA0 SHL SUB SWAP1 DUP2 AND SWAP5 DUP5 ADD SWAP5 SWAP1 SWAP5 MSTORE PUSH1 0x2 DUP2 ADD SLOAD DUP5 AND SWAP2 DUP4 ADD SWAP2 SWAP1 SWAP2 MSTORE PUSH1 0x3 DUP1 DUP3 ADD SLOAD SWAP4 DUP5 AND PUSH1 0x60 DUP5 ADD MSTORE PUSH1 0x1 PUSH1 0xA0 SHL DUP5 DIV PUSH5 0xFFFFFFFFFF AND PUSH1 0x80 DUP5 ADD MSTORE SWAP2 SWAP3 SWAP1 SWAP2 PUSH1 0xA0 DUP5 ADD SWAP2 PUSH1 0x1 PUSH1 0xC8 SHL SWAP1 DIV PUSH1 0xFF AND SWAP1 DUP2 GT ISZERO PUSH2 0x2DA8 JUMPI PUSH2 0x2DA8 PUSH2 0x4451 JUMP JUMPDEST PUSH1 0x3 DUP2 GT ISZERO PUSH2 0x2DB9 JUMPI PUSH2 0x2DB9 PUSH2 0x4451 JUMP JUMPDEST DUP2 MSTORE PUSH1 0x20 ADD PUSH1 0x4 DUP3 ADD SLOAD DUP2 MSTORE POP POP DUP2 MSTORE PUSH1 0x20 ADD SWAP1 PUSH1 0x1 ADD SWAP1 PUSH2 0x2D17 JUMP JUMPDEST POP POP POP POP SWAP4 POP PUSH1 0x0 JUMPDEST DUP5 MLOAD DUP2 LT ISZERO PUSH2 0x2E77 JUMPI DUP9 PUSH1 0x1 PUSH1 0x1 PUSH1 0xA0 SHL SUB AND DUP6 DUP3 DUP2 MLOAD DUP2 LT PUSH2 0x2E04 JUMPI PUSH2 0x2E04 PUSH2 0x48C6 JUMP JUMPDEST PUSH1 0x20 MUL PUSH1 0x20 ADD ADD MLOAD PUSH1 0x20 ADD MLOAD PUSH1 0x1 PUSH1 0x1 PUSH1 0xA0 SHL SUB AND EQ ISZERO PUSH2 0x2E65 JUMPI DUP5 DUP2 DUP2 MLOAD DUP2 LT PUSH2 0x2E31 JUMPI PUSH2 0x2E31 PUSH2 0x48C6 JUMP JUMPDEST PUSH1 0x20 MUL PUSH1 0x20 ADD ADD MLOAD DUP5 DUP5 DUP2 MLOAD DUP2 LT PUSH2 0x2E4B JUMPI PUSH2 0x2E4B PUSH2 0x48C6 JUMP JUMPDEST PUSH1 0x20 MUL PUSH1 0x20 ADD ADD DUP2 SWAP1 MSTORE POP DUP3 DUP1 PUSH2 0x2E61 SWAP1 PUSH2 0x48F2 JUMP JUMPDEST SWAP4 POP POP JUMPDEST DUP1 PUSH2 0x2E6F DUP2 PUSH2 0x48F2 JUMP JUMPDEST SWAP2 POP POP PUSH2 0x2DDF JUMP JUMPDEST POP DUP1 PUSH2 0x2E82 DUP2 PUSH2 0x48F2 JUMP JUMPDEST SWAP2 POP POP PUSH2 0x2CB4 JUMP JUMPDEST POP PUSH1 0x0 JUMPDEST DUP3 MLOAD DUP2 LT ISZERO PUSH2 0x2EEA JUMPI PUSH2 0x2EAC DUP4 DUP3 DUP2 MLOAD DUP2 LT PUSH2 0x1BD3 JUMPI PUSH2 0x1BD3 PUSH2 0x48C6 JUMP JUMPDEST DUP4 DUP3 DUP2 MLOAD DUP2 LT PUSH2 0x2EBE JUMPI PUSH2 0x2EBE PUSH2 0x48C6 JUMP JUMPDEST PUSH1 0x20 SWAP1 DUP2 MUL SWAP2 SWAP1 SWAP2 ADD ADD MLOAD PUSH5 0xFFFFFFFFFF SWAP1 SWAP2 AND PUSH1 0x80 SWAP1 SWAP2 ADD MSTORE DUP1 PUSH2 0x2EE2 DUP2 PUSH2 0x48F2 JUMP JUMPDEST SWAP2 POP POP PUSH2 0x2E8E JUMP JUMPDEST POP SWAP1 SWAP5 POP POP POP POP POP JUMPDEST SWAP2 SWAP1 POP JUMP JUMPDEST PUSH1 0x0 DUP1 SLOAD PUSH1 0x1 PUSH1 0x1 PUSH1 0xA0 SHL SUB AND CALLER EQ PUSH2 0x2F23 JUMPI PUSH1 0x40 MLOAD PUSH3 0x461BCD PUSH1 0xE5 SHL DUP2 MSTORE PUSH1 0x4 ADD PUSH2 0x433 SWAP1 PUSH2 0x488F JUMP JUMPDEST PUSH1 0x0 PUSH2 0x2F2E TIMESTAMP PUSH2 0x3171 JUMP JUMPDEST PUSH1 0xB SLOAD SWAP1 SWAP2 POP PUSH5 0xFFFFFFFFFF PUSH2 0x100 SWAP1 SWAP2 DIV DUP2 AND SWAP1 DUP3 AND GT PUSH2 0x2F62 JUMPI PUSH1 0x40 MLOAD PUSH3 0x461BCD PUSH1 0xE5 SHL DUP2 MSTORE PUSH1 0x4 ADD PUSH2 0x433 SWAP1 PUSH2 0x4B7F JUMP JUMPDEST PUSH1 0xB SLOAD PUSH2 0x100 SWAP1 DIV PUSH5 0xFFFFFFFFFF AND JUMPDEST DUP2 PUSH5 0xFFFFFFFFFF AND DUP2 PUSH5 0xFFFFFFFFFF AND GT PUSH2 0x30A7 JUMPI PUSH5 0xFFFFFFFFFF DUP2 AND PUSH1 0x0 SWAP1 DUP2 MSTORE PUSH1 0x5 PUSH1 0x20 SWAP1 DUP2 MSTORE PUSH1 0x40 DUP1 DUP4 KECCAK256 DUP1 SLOAD DUP3 MLOAD DUP2 DUP6 MUL DUP2 ADD DUP6 ADD SWAP1 SWAP4 MSTORE DUP1 DUP4 MSTORE SWAP2 SWAP3 SWAP1 SWAP2 SWAP1 DUP5 SWAP1 DUP5 ADD JUMPDEST DUP3 DUP3 LT ISZERO PUSH2 0x307A JUMPI PUSH1 0x0 DUP5 DUP2 MSTORE PUSH1 0x20 SWAP1 DUP2 SWAP1 KECCAK256 PUSH1 0x40 DUP1 MLOAD PUSH1 0xE0 DUP2 ADD DUP3 MSTORE PUSH1 0x5 DUP7 MUL SWAP1 SWAP3 ADD DUP1 SLOAD DUP4 MSTORE PUSH1 0x1 DUP2 ADD SLOAD PUSH1 0x1 PUSH1 0x1 PUSH1 0xA0 SHL SUB SWAP1 DUP2 AND SWAP5 DUP5 ADD SWAP5 SWAP1 SWAP5 MSTORE PUSH1 0x2 DUP2 ADD SLOAD DUP5 AND SWAP2 DUP4 ADD SWAP2 SWAP1 SWAP2 MSTORE PUSH1 0x3 DUP1 DUP3 ADD SLOAD SWAP4 DUP5 AND PUSH1 0x60 DUP5 ADD MSTORE PUSH1 0x1 PUSH1 0xA0 SHL DUP5 DIV PUSH5 0xFFFFFFFFFF AND PUSH1 0x80 DUP5 ADD MSTORE SWAP2 SWAP3 SWAP1 SWAP2 PUSH1 0xA0 DUP5 ADD SWAP2 PUSH1 0x1 PUSH1 0xC8 SHL SWAP1 DIV PUSH1 0xFF AND SWAP1 DUP2 GT ISZERO PUSH2 0x304C JUMPI PUSH2 0x304C PUSH2 0x4451 JUMP JUMPDEST PUSH1 0x3 DUP2 GT ISZERO PUSH2 0x305D JUMPI PUSH2 0x305D PUSH2 0x4451 JUMP JUMPDEST DUP2 MSTORE PUSH1 0x20 ADD PUSH1 0x4 DUP3 ADD SLOAD DUP2 MSTORE POP POP DUP2 MSTORE PUSH1 0x20 ADD SWAP1 PUSH1 0x1 ADD SWAP1 PUSH2 0x2FBB JUMP JUMPDEST POP POP POP POP SWAP1 POP PUSH1 0x0 DUP2 MLOAD GT ISZERO PUSH2 0x3094 JUMPI PUSH1 0x1 SWAP4 POP POP POP POP SWAP1 JUMP JUMPDEST POP DUP1 PUSH2 0x309F DUP2 PUSH2 0x4BC6 JUMP JUMPDEST SWAP2 POP POP PUSH2 0x2F72 JUMP JUMPDEST POP PUSH1 0x0 SWAP2 POP POP SWAP1 JUMP JUMPDEST PUSH1 0x0 DUP1 PUSH1 0xA DUP1 SLOAD DUP1 PUSH1 0x20 MUL PUSH1 0x20 ADD PUSH1 0x40 MLOAD SWAP1 DUP2 ADD PUSH1 0x40 MSTORE DUP1 SWAP3 SWAP2 SWAP1 DUP2 DUP2 MSTORE PUSH1 0x20 ADD DUP3 DUP1 SLOAD DUP1 ISZERO PUSH2 0x3109 JUMPI PUSH1 0x20 MUL DUP3 ADD SWAP2 SWAP1 PUSH1 0x0 MSTORE PUSH1 0x20 PUSH1 0x0 KECCAK256 SWAP1 JUMPDEST DUP2 SLOAD PUSH1 0x1 PUSH1 0x1 PUSH1 0xA0 SHL SUB AND DUP2 MSTORE PUSH1 0x1 SWAP1 SWAP2 ADD SWAP1 PUSH1 0x20 ADD DUP1 DUP4 GT PUSH2 0x30EB JUMPI JUMPDEST POP POP POP POP POP SWAP1 POP PUSH1 0x0 SWAP2 POP PUSH1 0x0 JUMPDEST DUP2 MLOAD DUP2 LT ISZERO PUSH2 0x316A JUMPI DUP2 DUP2 DUP2 MLOAD DUP2 LT PUSH2 0x3132 JUMPI PUSH2 0x3132 PUSH2 0x48C6 JUMP JUMPDEST PUSH1 0x20 MUL PUSH1 0x20 ADD ADD MLOAD PUSH1 0x1 PUSH1 0x1 PUSH1 0xA0 SHL SUB AND DUP5 PUSH1 0x1 PUSH1 0x1 PUSH1 0xA0 SHL SUB AND EQ ISZERO PUSH2 0x3158 JUMPI PUSH1 0x1 SWAP3 POP JUMPDEST DUP1 PUSH2 0x3162 DUP2 PUSH2 0x48F2 JUMP JUMPDEST SWAP2 POP POP PUSH2 0x3117 JUMP JUMPDEST POP POP SWAP2 SWAP1 POP JUMP JUMPDEST PUSH1 0x0 PUSH2 0x317F PUSH2 0xE10 DUP4 PUSH2 0x4B24 JUMP JUMPDEST SWAP3 SWAP2 POP POP JUMP JUMPDEST PUSH5 0xFFFFFFFFFF DUP2 AND PUSH1 0x0 SWAP1 DUP2 MSTORE PUSH1 0x5 PUSH1 0x20 MSTORE PUSH1 0x40 SWAP1 KECCAK256 SLOAD PUSH1 0x1 EQ ISZERO PUSH2 0x31D0 JUMPI PUSH5 0xFFFFFFFFFF DUP2 AND PUSH1 0x0 SWAP1 DUP2 MSTORE PUSH1 0x5 PUSH1 0x20 MSTORE PUSH1 0x40 DUP2 KECCAK256 PUSH2 0x31C3 SWAP2 PUSH2 0x436C JUMP JUMPDEST PUSH2 0x31CC DUP2 PUSH2 0x413F JUMP JUMPDEST POP POP JUMP JUMPDEST PUSH5 0xFFFFFFFFFF DUP2 AND PUSH1 0x0 SWAP1 DUP2 MSTORE PUSH1 0x5 PUSH1 0x20 MSTORE PUSH1 0x40 DUP2 KECCAK256 SWAP1 DUP1 DUP1 JUMPDEST DUP4 SLOAD DUP2 LT ISZERO PUSH2 0x32DB JUMPI CALLER PUSH1 0x1 PUSH1 0x1 PUSH1 0xA0 SHL SUB AND DUP5 DUP3 DUP2 SLOAD DUP2 LT PUSH2 0x320F JUMPI PUSH2 0x320F PUSH2 0x48C6 JUMP JUMPDEST PUSH1 0x0 SWAP2 DUP3 MSTORE PUSH1 0x20 SWAP1 SWAP2 KECCAK256 PUSH1 0x1 PUSH1 0x5 SWAP1 SWAP3 MUL ADD ADD SLOAD PUSH1 0x1 PUSH1 0x1 PUSH1 0xA0 SHL SUB AND EQ ISZERO PUSH2 0x3240 JUMPI DUP2 PUSH2 0x323C DUP2 PUSH2 0x48F2 JUMP JUMPDEST SWAP3 POP POP JUMPDEST DUP6 DUP5 DUP3 DUP2 SLOAD DUP2 LT PUSH2 0x3253 JUMPI PUSH2 0x3253 PUSH2 0x48C6 JUMP JUMPDEST SWAP1 PUSH1 0x0 MSTORE PUSH1 0x20 PUSH1 0x0 KECCAK256 SWAP1 PUSH1 0x5 MUL ADD PUSH1 0x0 ADD SLOAD EQ ISZERO PUSH2 0x32C9 JUMPI DUP1 SWAP3 POP DUP4 DUP2 DUP2 SLOAD DUP2 LT PUSH2 0x3280 JUMPI PUSH2 0x3280 PUSH2 0x48C6 JUMP JUMPDEST PUSH1 0x0 SWAP2 DUP3 MSTORE PUSH1 0x20 DUP3 KECCAK256 PUSH1 0x5 SWAP1 SWAP2 MUL ADD DUP2 DUP2 SSTORE PUSH1 0x1 DUP2 ADD DUP1 SLOAD PUSH1 0x1 PUSH1 0x1 PUSH1 0xA0 SHL SUB NOT SWAP1 DUP2 AND SWAP1 SWAP2 SSTORE PUSH1 0x2 DUP3 ADD DUP1 SLOAD SWAP1 SWAP2 AND SWAP1 SSTORE PUSH1 0x3 DUP2 ADD DUP1 SLOAD PUSH1 0x1 PUSH1 0x1 PUSH1 0xD0 SHL SUB NOT AND SWAP1 SSTORE PUSH1 0x4 ADD SSTORE JUMPDEST DUP1 PUSH2 0x32D3 DUP2 PUSH2 0x48F2 JUMP JUMPDEST SWAP2 POP POP PUSH2 0x31EA JUMP JUMPDEST POP DUP3 SLOAD DUP4 SWAP1 PUSH2 0x32EC SWAP1 PUSH1 0x1 SWAP1 PUSH2 0x490D JUMP JUMPDEST DUP2 SLOAD DUP2 LT PUSH2 0x32FC JUMPI PUSH2 0x32FC PUSH2 0x48C6 JUMP JUMPDEST SWAP1 PUSH1 0x0 MSTORE PUSH1 0x20 PUSH1 0x0 KECCAK256 SWAP1 PUSH1 0x5 MUL ADD DUP4 DUP4 DUP2 SLOAD DUP2 LT PUSH2 0x331C JUMPI PUSH2 0x331C PUSH2 0x48C6 JUMP JUMPDEST PUSH1 0x0 SWAP2 DUP3 MSTORE PUSH1 0x20 SWAP1 SWAP2 KECCAK256 DUP3 SLOAD PUSH1 0x5 SWAP1 SWAP3 MUL ADD SWAP1 DUP2 SSTORE PUSH1 0x1 DUP1 DUP4 ADD SLOAD SWAP1 DUP3 ADD DUP1 SLOAD PUSH1 0x1 PUSH1 0x1 PUSH1 0xA0 SHL SUB NOT SWAP1 DUP2 AND PUSH1 0x1 PUSH1 0x1 PUSH1 0xA0 SHL SUB SWAP4 DUP5 AND OR SWAP1 SWAP2 SSTORE PUSH1 0x2 DUP1 DUP6 ADD SLOAD SWAP1 DUP5 ADD DUP1 SLOAD DUP4 AND SWAP2 DUP5 AND SWAP2 SWAP1 SWAP2 OR SWAP1 SSTORE PUSH1 0x3 DUP1 DUP6 ADD DUP1 SLOAD DUP3 DUP7 ADD DUP1 SLOAD SWAP5 DUP6 AND SWAP2 SWAP1 SWAP6 AND SWAP1 DUP2 OR DUP6 SSTORE DUP2 SLOAD PUSH5 0xFFFFFFFFFF PUSH1 0x1 PUSH1 0xA0 SHL SWAP2 DUP3 SWAP1 DIV AND MUL PUSH1 0x1 PUSH1 0x1 PUSH1 0xC8 SHL SUB NOT SWAP1 SWAP5 AND OR SWAP3 SWAP1 SWAP3 OR DUP1 DUP5 SSTORE SWAP2 SLOAD PUSH1 0xFF PUSH1 0x1 PUSH1 0xC8 SHL SWAP2 DUP3 SWAP1 DIV AND SWAP4 SWAP3 PUSH1 0xFF PUSH1 0xC8 SHL NOT AND SWAP2 DUP5 SWAP1 DUP2 GT ISZERO PUSH2 0x33D5 JUMPI PUSH2 0x33D5 PUSH2 0x4451 JUMP JUMPDEST MUL OR SWAP1 SSTORE POP PUSH1 0x4 SWAP2 DUP3 ADD SLOAD SWAP2 ADD SSTORE DUP3 SLOAD DUP4 SWAP1 DUP1 PUSH2 0x33F4 JUMPI PUSH2 0x33F4 PUSH2 0x493C JUMP JUMPDEST PUSH1 0x0 DUP3 DUP2 MSTORE PUSH1 0x20 DUP2 KECCAK256 PUSH1 0x5 PUSH1 0x0 NOT SWAP1 SWAP4 ADD SWAP3 DUP4 MUL ADD DUP2 DUP2 SSTORE PUSH1 0x1 DUP2 DUP2 ADD DUP1 SLOAD PUSH1 0x1 PUSH1 0x1 PUSH1 0xA0 SHL SUB NOT SWAP1 DUP2 AND SWAP1 SWAP2 SSTORE PUSH1 0x2 DUP4 ADD DUP1 SLOAD SWAP1 SWAP2 AND SWAP1 SSTORE PUSH1 0x3 DUP3 ADD DUP1 SLOAD PUSH1 0x1 PUSH1 0x1 PUSH1 0xD0 SHL SUB NOT AND SWAP1 SSTORE PUSH1 0x4 SWAP1 SWAP2 ADD SWAP2 SWAP1 SWAP2 SSTORE SWAP2 SSTORE DUP2 EQ ISZERO PUSH2 0x345A JUMPI PUSH2 0x345A DUP5 PUSH2 0x413F JUMP JUMPDEST PUSH1 0x0 DUP1 JUMPDEST PUSH1 0x6 SLOAD DUP2 LT ISZERO PUSH2 0x34A7 JUMPI DUP7 PUSH1 0x6 DUP3 DUP2 SLOAD DUP2 LT PUSH2 0x347C JUMPI PUSH2 0x347C PUSH2 0x48C6 JUMP JUMPDEST SWAP1 PUSH1 0x0 MSTORE PUSH1 0x20 PUSH1 0x0 KECCAK256 ADD SLOAD EQ ISZERO PUSH2 0x3495 JUMPI DUP1 SWAP2 POP PUSH2 0x34A7 JUMP JUMPDEST DUP1 PUSH2 0x349F DUP2 PUSH2 0x48F2 JUMP JUMPDEST SWAP2 POP POP PUSH2 0x345E JUMP JUMPDEST POP PUSH1 0x6 DUP1 SLOAD PUSH2 0x34B8 SWAP1 PUSH1 0x1 SWAP1 PUSH2 0x490D JUMP JUMPDEST DUP2 SLOAD DUP2 LT PUSH2 0x34C8 JUMPI PUSH2 0x34C8 PUSH2 0x48C6 JUMP JUMPDEST SWAP1 PUSH1 0x0 MSTORE PUSH1 0x20 PUSH1 0x0 KECCAK256 ADD SLOAD PUSH1 0x6 DUP3 DUP2 SLOAD DUP2 LT PUSH2 0x34E6 JUMPI PUSH2 0x34E6 PUSH2 0x48C6 JUMP JUMPDEST PUSH1 0x0 SWAP2 DUP3 MSTORE PUSH1 0x20 SWAP1 SWAP2 KECCAK256 ADD SSTORE PUSH1 0x6 DUP1 SLOAD DUP1 PUSH2 0x3503 JUMPI PUSH2 0x3503 PUSH2 0x493C JUMP JUMPDEST PUSH1 0x1 SWAP1 SUB DUP2 DUP2 SWAP1 PUSH1 0x0 MSTORE PUSH1 0x20 PUSH1 0x0 KECCAK256 ADD PUSH1 0x0 SWAP1 SSTORE SWAP1 SSTORE POP POP POP POP POP POP JUMP JUMPDEST PUSH2 0x3529 PUSH2 0x432F JUMP JUMPDEST PUSH1 0x40 MLOAD PUSH12 0xFFFFFFFFFFFFFFFFFFFFFFFF NOT PUSH1 0x60 DUP9 SWAP1 SHL AND PUSH1 0x20 DUP3 ADD MSTORE PUSH1 0x1 PUSH1 0x1 PUSH1 0xD8 SHL SUB NOT PUSH1 0xD8 DUP6 SWAP1 SHL AND PUSH1 0x34 DUP3 ADD MSTORE TIMESTAMP PUSH1 0x39 DUP3 ADD MSTORE PUSH1 0x0 SWAP1 PUSH1 0x59 ADD PUSH1 0x40 MLOAD PUSH1 0x20 DUP2 DUP4 SUB SUB DUP2 MSTORE SWAP1 PUSH1 0x40 MSTORE DUP1 MLOAD SWAP1 PUSH1 0x20 ADD KECCAK256 SWAP1 POP PUSH1 0x40 MLOAD DUP1 PUSH1 0xE0 ADD PUSH1 0x40 MSTORE DUP1 DUP3 DUP2 MSTORE PUSH1 0x20 ADD DUP9 PUSH1 0x1 PUSH1 0x1 PUSH1 0xA0 SHL SUB AND DUP2 MSTORE PUSH1 0x20 ADD DUP8 PUSH1 0x1 PUSH1 0x1 PUSH1 0xA0 SHL SUB AND DUP2 MSTORE PUSH1 0x20 ADD DUP7 PUSH1 0x1 PUSH1 0x1 PUSH1 0xA0 SHL SUB AND DUP2 MSTORE PUSH1 0x20 ADD DUP6 PUSH5 0xFFFFFFFFFF AND DUP2 MSTORE PUSH1 0x20 ADD PUSH1 0x0 PUSH1 0x3 DUP2 GT ISZERO PUSH2 0x35DB JUMPI PUSH2 0x35DB PUSH2 0x4451 JUMP JUMPDEST DUP2 MSTORE PUSH1 0x20 ADD DUP5 SWAP1 MSTORE SWAP2 POP POP SWAP6 SWAP5 POP POP POP POP POP JUMP JUMPDEST CALLER PUSH1 0x0 SWAP1 DUP2 MSTORE PUSH1 0x3 PUSH1 0x20 MSTORE PUSH1 0x40 SWAP1 KECCAK256 SLOAD PUSH1 0x1 PUSH1 0xA0 SHL SWAP1 DIV PUSH1 0xFF AND PUSH2 0x36B7 JUMPI CALLER PUSH1 0x0 DUP2 DUP2 MSTORE PUSH1 0x3 PUSH1 0x20 SWAP1 DUP2 MSTORE PUSH1 0x40 DUP3 KECCAK256 DUP1 SLOAD PUSH1 0x1 PUSH1 0x1 PUSH1 0xA0 SHL SUB NOT SWAP1 DUP2 AND DUP6 OR DUP3 SSTORE PUSH1 0x4 DUP1 SLOAD PUSH1 0x1 DUP2 DUP2 ADD SWAP1 SWAP3 SSTORE PUSH32 0x8A35ACFBC15FF81A39AE7D344FD709F28E8600B4AA8C65C6B64BFE7FE36BD19B ADD DUP1 SLOAD SWAP1 SWAP3 AND SWAP1 SWAP6 OR SWAP1 SSTORE DUP1 SLOAD PUSH1 0x1 PUSH1 0xA0 SHL PUSH1 0xFF PUSH1 0xA0 SHL NOT SWAP1 SWAP2 AND OR DUP2 SSTORE DUP4 ADD DUP1 SLOAD SWAP4 DUP5 ADD DUP2 SSTORE DUP3 MSTORE SWAP1 KECCAK256 PUSH1 0x6 DUP1 DUP4 DIV SWAP1 SWAP2 ADD DUP1 SLOAD SWAP2 SWAP1 SWAP3 MOD PUSH1 0x5 MUL PUSH2 0x100 EXP PUSH5 0xFFFFFFFFFF DUP2 DUP2 MUL NOT SWAP1 SWAP3 AND SWAP4 SWAP1 SWAP2 AND MUL SWAP2 SWAP1 SWAP2 OR SWAP1 SSTORE JUMP JUMPDEST CALLER PUSH1 0x0 SWAP1 DUP2 MSTORE PUSH1 0x3 PUSH1 0x20 SWAP1 DUP2 MSTORE PUSH1 0x40 DUP1 DUP4 KECCAK256 PUSH1 0x1 ADD DUP1 SLOAD DUP3 MLOAD DUP2 DUP6 MUL DUP2 ADD DUP6 ADD SWAP1 SWAP4 MSTORE DUP1 DUP4 MSTORE SWAP2 SWAP3 SWAP1 SWAP2 SWAP1 DUP4 ADD DUP3 DUP3 DUP1 ISZERO PUSH2 0x373F JUMPI PUSH1 0x20 MUL DUP3 ADD SWAP2 SWAP1 PUSH1 0x0 MSTORE PUSH1 0x20 PUSH1 0x0 KECCAK256 SWAP1 PUSH1 0x0 SWAP1 JUMPDEST DUP3 DUP3 SWAP1 SLOAD SWAP1 PUSH2 0x100 EXP SWAP1 DIV PUSH5 0xFFFFFFFFFF AND PUSH5 0xFFFFFFFFFF AND DUP2 MSTORE PUSH1 0x20 ADD SWAP1 PUSH1 0x5 ADD SWAP1 PUSH1 0x20 DUP3 PUSH1 0x4 ADD DIV SWAP3 DUP4 ADD SWAP3 PUSH1 0x1 SUB DUP3 MUL SWAP2 POP DUP1 DUP5 GT PUSH2 0x3700 JUMPI SWAP1 POP JUMPDEST POP POP POP POP POP SWAP1 POP PUSH2 0x3750 DUP3 DUP3 PUSH2 0x4081 JUMP JUMPDEST PUSH2 0x31CC JUMPI POP CALLER PUSH1 0x0 SWAP1 DUP2 MSTORE PUSH1 0x3 PUSH1 0x20 SWAP1 DUP2 MSTORE PUSH1 0x40 DUP3 KECCAK256 PUSH1 0x1 SWAP1 DUP2 ADD DUP1 SLOAD SWAP2 DUP3 ADD DUP2 SSTORE DUP4 MSTORE SWAP2 KECCAK256 PUSH1 0x6 DUP1 DUP4 DIV SWAP1 SWAP2 ADD DUP1 SLOAD SWAP2 SWAP1 SWAP3 MOD PUSH1 0x5 MUL PUSH2 0x100 EXP PUSH5 0xFFFFFFFFFF DUP2 DUP2 MUL NOT SWAP1 SWAP3 AND SWAP4 SWAP1 SWAP2 AND MUL SWAP2 SWAP1 SWAP2 OR SWAP1 SSTORE JUMP JUMPDEST PUSH2 0x29E8 DUP2 PUSH1 0x40 MLOAD PUSH1 0x24 ADD PUSH2 0x37BB SWAP2 DUP2 MSTORE PUSH1 0x20 ADD SWAP1 JUMP JUMPDEST PUSH1 0x40 DUP1 MLOAD PUSH1 0x1F NOT DUP2 DUP5 SUB ADD DUP2 MSTORE SWAP2 SWAP1 MSTORE PUSH1 0x20 DUP2 ADD DUP1 MLOAD PUSH1 0x1 PUSH1 0x1 PUSH1 0xE0 SHL SUB AND PUSH4 0xF82C50F1 PUSH1 0xE0 SHL OR SWAP1 MSTORE PUSH2 0x430E JUMP JUMPDEST PUSH1 0x0 DUP1 PUSH2 0x37F9 PUSH2 0xE10 DUP5 PUSH2 0x4B24 JUMP JUMPDEST PUSH5 0xFFFFFFFFFF AND SWAP1 POP PUSH1 0x0 PUSH1 0x4 PUSH2 0x2238 PUSH2 0x3815 PUSH2 0x4470 DUP6 PUSH2 0x490D JUMP JUMPDEST PUSH2 0x381F SWAP2 SWAP1 PUSH2 0x4A19 JUMP JUMPDEST PUSH2 0x3829 SWAP2 SWAP1 PUSH2 0x4A19 JUMP JUMPDEST SWAP1 POP PUSH1 0x0 PUSH2 0x383B PUSH4 0x1E13380 DUP7 PUSH2 0x4B24 JUMP JUMPDEST PUSH5 0xFFFFFFFFFF AND SWAP1 POP PUSH1 0x0 PUSH2 0x3852 DUP3 PUSH2 0x7B2 PUSH2 0x4924 JUMP JUMPDEST SWAP1 POP PUSH2 0x385D DUP2 PUSH2 0x37A5 JUMP JUMPDEST PUSH2 0x3868 PUSH1 0x4 DUP3 PUSH2 0x4B48 JUMP JUMPDEST PUSH2 0x3897 JUMPI PUSH2 0x3877 PUSH1 0x64 DUP3 PUSH2 0x4B48 JUMP JUMPDEST PUSH2 0x38A3 JUMPI PUSH2 0x3887 PUSH2 0x190 DUP3 PUSH2 0x4B48 JUMP JUMPDEST PUSH2 0x3897 JUMPI POP PUSH1 0x1 SWAP6 SWAP5 POP POP POP POP POP JUMP JUMPDEST POP PUSH1 0x0 SWAP6 SWAP5 POP POP POP POP POP JUMP JUMPDEST POP PUSH1 0x1 SWAP6 SWAP5 POP POP POP POP POP JUMP JUMPDEST PUSH1 0xB SLOAD PUSH1 0xFF AND PUSH2 0x29E8 JUMPI PUSH1 0x0 DUP1 PUSH1 0x0 DUP4 MLOAD PUSH8 0xFFFFFFFFFFFFFFFF DUP2 GT ISZERO PUSH2 0x38D8 JUMPI PUSH2 0x38D8 PUSH2 0x4724 JUMP JUMPDEST PUSH1 0x40 MLOAD SWAP1 DUP1 DUP3 MSTORE DUP1 PUSH1 0x20 MUL PUSH1 0x20 ADD DUP3 ADD PUSH1 0x40 MSTORE DUP1 ISZERO PUSH2 0x3911 JUMPI DUP2 PUSH1 0x20 ADD JUMPDEST PUSH2 0x38FE PUSH2 0x432F JUMP JUMPDEST DUP2 MSTORE PUSH1 0x20 ADD SWAP1 PUSH1 0x1 SWAP1 SUB SWAP1 DUP2 PUSH2 0x38F6 JUMPI SWAP1 POP JUMPDEST POP SWAP1 POP PUSH1 0x0 JUMPDEST DUP5 MLOAD DUP2 LT ISZERO PUSH2 0x3D16 JUMPI PUSH1 0x0 PUSH1 0x1 PUSH1 0x1 PUSH1 0xA0 SHL SUB AND DUP6 DUP3 DUP2 MLOAD DUP2 LT PUSH2 0x393D JUMPI PUSH2 0x393D PUSH2 0x48C6 JUMP JUMPDEST PUSH1 0x20 MUL PUSH1 0x20 ADD ADD MLOAD PUSH1 0x60 ADD MLOAD PUSH1 0x1 PUSH1 0x1 PUSH1 0xA0 SHL SUB AND EQ ISZERO PUSH2 0x39CD JUMPI DUP5 DUP2 DUP2 MLOAD DUP2 LT PUSH2 0x396A JUMPI PUSH2 0x396A PUSH2 0x48C6 JUMP JUMPDEST PUSH1 0x20 MUL PUSH1 0x20 ADD ADD MLOAD PUSH1 0xC0 ADD MLOAD DUP5 PUSH2 0x3981 SWAP2 SWAP1 PUSH2 0x4924 JUMP JUMPDEST SWAP4 POP DUP5 DUP2 DUP2 MLOAD DUP2 LT PUSH2 0x3995 JUMPI PUSH2 0x3995 PUSH2 0x48C6 JUMP JUMPDEST PUSH1 0x20 MUL PUSH1 0x20 ADD ADD MLOAD DUP3 DUP5 DUP2 MLOAD DUP2 LT PUSH2 0x39AF JUMPI PUSH2 0x39AF PUSH2 0x48C6 JUMP JUMPDEST PUSH1 0x20 MUL PUSH1 0x20 ADD ADD DUP2 SWAP1 MSTORE POP DUP3 DUP1 PUSH2 0x39C5 SWAP1 PUSH2 0x48F2 JUMP JUMPDEST SWAP4 POP POP PUSH2 0x3D04 JUMP JUMPDEST DUP5 DUP2 DUP2 MLOAD DUP2 LT PUSH2 0x39DF JUMPI PUSH2 0x39DF PUSH2 0x48C6 JUMP JUMPDEST PUSH1 0x20 MUL PUSH1 0x20 ADD ADD MLOAD PUSH1 0xC0 ADD MLOAD DUP6 DUP3 DUP2 MLOAD DUP2 LT PUSH2 0x39FD JUMPI PUSH2 0x39FD PUSH2 0x48C6 JUMP JUMPDEST PUSH1 0x20 MUL PUSH1 0x20 ADD ADD MLOAD PUSH1 0x60 ADD MLOAD PUSH1 0x1 PUSH1 0x1 PUSH1 0xA0 SHL SUB AND PUSH4 0xDD62ED3E DUP8 DUP5 DUP2 MLOAD DUP2 LT PUSH2 0x3A29 JUMPI PUSH2 0x3A29 PUSH2 0x48C6 JUMP JUMPDEST PUSH1 0x20 SWAP1 DUP2 MUL SWAP2 SWAP1 SWAP2 ADD DUP2 ADD MLOAD ADD MLOAD PUSH1 0x40 MLOAD PUSH1 0x1 PUSH1 0x1 PUSH1 0xE0 SHL SUB NOT PUSH1 0xE0 DUP5 SWAP1 SHL AND DUP2 MSTORE PUSH1 0x1 PUSH1 0x1 PUSH1 0xA0 SHL SUB SWAP1 SWAP2 AND PUSH1 0x4 DUP3 ADD MSTORE ADDRESS PUSH1 0x24 DUP3 ADD MSTORE PUSH1 0x44 ADD PUSH1 0x20 PUSH1 0x40 MLOAD DUP1 DUP4 SUB DUP2 PUSH1 0x0 DUP8 DUP1 EXTCODESIZE ISZERO DUP1 ISZERO PUSH2 0x3A7E JUMPI PUSH1 0x0 DUP1 REVERT JUMPDEST POP GAS CALL ISZERO DUP1 ISZERO PUSH2 0x3A92 JUMPI RETURNDATASIZE PUSH1 0x0 DUP1 RETURNDATACOPY RETURNDATASIZE PUSH1 0x0 REVERT JUMPDEST POP POP POP POP PUSH1 0x40 MLOAD RETURNDATASIZE PUSH1 0x1F NOT PUSH1 0x1F DUP3 ADD AND DUP3 ADD DUP1 PUSH1 0x40 MSTORE POP DUP2 ADD SWAP1 PUSH2 0x3AB6 SWAP2 SWAP1 PUSH2 0x4AB6 JUMP JUMPDEST LT DUP1 PUSH2 0x3BA4 JUMPI POP DUP5 DUP2 DUP2 MLOAD DUP2 LT PUSH2 0x3ACF JUMPI PUSH2 0x3ACF PUSH2 0x48C6 JUMP JUMPDEST PUSH1 0x20 MUL PUSH1 0x20 ADD ADD MLOAD PUSH1 0xC0 ADD MLOAD DUP6 DUP3 DUP2 MLOAD DUP2 LT PUSH2 0x3AED JUMPI PUSH2 0x3AED PUSH2 0x48C6 JUMP JUMPDEST PUSH1 0x20 MUL PUSH1 0x20 ADD ADD MLOAD PUSH1 0x60 ADD MLOAD PUSH1 0x1 PUSH1 0x1 PUSH1 0xA0 SHL SUB AND PUSH4 0x70A08231 DUP8 DUP5 DUP2 MLOAD DUP2 LT PUSH2 0x3B19 JUMPI PUSH2 0x3B19 PUSH2 0x48C6 JUMP JUMPDEST PUSH1 0x20 MUL PUSH1 0x20 ADD ADD MLOAD PUSH1 0x20 ADD MLOAD PUSH1 0x40 MLOAD DUP3 PUSH4 0xFFFFFFFF AND PUSH1 0xE0 SHL DUP2 MSTORE PUSH1 0x4 ADD PUSH2 0x3B50 SWAP2 SWAP1 PUSH1 0x1 PUSH1 0x1 PUSH1 0xA0 SHL SUB SWAP2 SWAP1 SWAP2 AND DUP2 MSTORE PUSH1 0x20 ADD SWAP1 JUMP JUMPDEST PUSH1 0x20 PUSH1 0x40 MLOAD DUP1 DUP4 SUB DUP2 PUSH1 0x0 DUP8 DUP1 EXTCODESIZE ISZERO DUP1 ISZERO PUSH2 0x3B6A JUMPI PUSH1 0x0 DUP1 REVERT JUMPDEST POP GAS CALL ISZERO DUP1 ISZERO PUSH2 0x3B7E JUMPI RETURNDATASIZE PUSH1 0x0 DUP1 RETURNDATACOPY RETURNDATASIZE PUSH1 0x0 REVERT JUMPDEST POP POP POP POP PUSH1 0x40 MLOAD RETURNDATASIZE PUSH1 0x1F NOT PUSH1 0x1F DUP3 ADD AND DUP3 ADD DUP1 PUSH1 0x40 MSTORE POP DUP2 ADD SWAP1 PUSH2 0x3BA2 SWAP2 SWAP1 PUSH2 0x4AB6 JUMP JUMPDEST LT JUMPDEST ISZERO PUSH2 0x3C36 JUMPI PUSH1 0x2 PUSH1 0x5 PUSH1 0x0 DUP8 DUP5 DUP2 MLOAD DUP2 LT PUSH2 0x3BC1 JUMPI PUSH2 0x3BC1 PUSH2 0x48C6 JUMP JUMPDEST PUSH1 0x20 MUL PUSH1 0x20 ADD ADD MLOAD PUSH1 0x80 ADD MLOAD PUSH5 0xFFFFFFFFFF AND PUSH5 0xFFFFFFFFFF AND DUP2 MSTORE PUSH1 0x20 ADD SWAP1 DUP2 MSTORE PUSH1 0x20 ADD PUSH1 0x0 KECCAK256 DUP3 DUP2 SLOAD DUP2 LT PUSH2 0x3BFA JUMPI PUSH2 0x3BFA PUSH2 0x48C6 JUMP JUMPDEST SWAP1 PUSH1 0x0 MSTORE PUSH1 0x20 PUSH1 0x0 KECCAK256 SWAP1 PUSH1 0x5 MUL ADD PUSH1 0x3 ADD PUSH1 0x19 PUSH2 0x100 EXP DUP2 SLOAD DUP2 PUSH1 0xFF MUL NOT AND SWAP1 DUP4 PUSH1 0x3 DUP2 GT ISZERO PUSH2 0x3C2C JUMPI PUSH2 0x3C2C PUSH2 0x4451 JUMP JUMPDEST MUL OR SWAP1 SSTORE POP PUSH2 0x3D04 JUMP JUMPDEST DUP5 DUP2 DUP2 MLOAD DUP2 LT PUSH2 0x3C48 JUMPI PUSH2 0x3C48 PUSH2 0x48C6 JUMP JUMPDEST PUSH1 0x20 MUL PUSH1 0x20 ADD ADD MLOAD DUP3 DUP5 DUP2 MLOAD DUP2 LT PUSH2 0x3C62 JUMPI PUSH2 0x3C62 PUSH2 0x48C6 JUMP JUMPDEST PUSH1 0x20 MUL PUSH1 0x20 ADD ADD DUP2 SWAP1 MSTORE POP DUP3 DUP1 PUSH2 0x3C78 SWAP1 PUSH2 0x48F2 JUMP JUMPDEST SWAP4 POP POP PUSH1 0x1 PUSH1 0x5 PUSH1 0x0 DUP8 DUP5 DUP2 MLOAD DUP2 LT PUSH2 0x3C93 JUMPI PUSH2 0x3C93 PUSH2 0x48C6 JUMP JUMPDEST PUSH1 0x20 MUL PUSH1 0x20 ADD ADD MLOAD PUSH1 0x80 ADD MLOAD PUSH5 0xFFFFFFFFFF AND PUSH5 0xFFFFFFFFFF AND DUP2 MSTORE PUSH1 0x20 ADD SWAP1 DUP2 MSTORE PUSH1 0x20 ADD PUSH1 0x0 KECCAK256 DUP3 DUP2 SLOAD DUP2 LT PUSH2 0x3CCC JUMPI PUSH2 0x3CCC PUSH2 0x48C6 JUMP JUMPDEST SWAP1 PUSH1 0x0 MSTORE PUSH1 0x20 PUSH1 0x0 KECCAK256 SWAP1 PUSH1 0x5 MUL ADD PUSH1 0x3 ADD PUSH1 0x19 PUSH2 0x100 EXP DUP2 SLOAD DUP2 PUSH1 0xFF MUL NOT AND SWAP1 DUP4 PUSH1 0x3 DUP2 GT ISZERO PUSH2 0x3CFE JUMPI PUSH2 0x3CFE PUSH2 0x4451 JUMP JUMPDEST MUL OR SWAP1 SSTORE POP JUMPDEST DUP1 PUSH2 0x3D0E DUP2 PUSH2 0x48F2 JUMP JUMPDEST SWAP2 POP POP PUSH2 0x3917 JUMP JUMPDEST POP DUP3 SELFBALANCE GT PUSH2 0x3D76 JUMPI PUSH1 0x40 MLOAD PUSH3 0x461BCD PUSH1 0xE5 SHL DUP2 MSTORE PUSH1 0x20 PUSH1 0x4 DUP3 ADD MSTORE PUSH1 0x27 PUSH1 0x24 DUP3 ADD MSTORE PUSH32 0x4E6F7420656E6F7567682045544820746F20636F6D706C657465207472616E73 PUSH1 0x44 DUP3 ADD MSTORE PUSH7 0x616374696F6E73 PUSH1 0xC8 SHL PUSH1 0x64 DUP3 ADD MSTORE PUSH1 0x84 ADD PUSH2 0x433 JUMP JUMPDEST PUSH1 0x0 JUMPDEST DUP2 MLOAD DUP2 LT ISZERO PUSH2 0x148B JUMPI DUP2 DUP2 DUP2 MLOAD DUP2 LT PUSH2 0x3D94 JUMPI PUSH2 0x3D94 PUSH2 0x48C6 JUMP JUMPDEST PUSH1 0x20 MUL PUSH1 0x20 ADD ADD MLOAD PUSH1 0xC0 ADD MLOAD PUSH1 0x7 PUSH1 0x0 DUP5 DUP5 DUP2 MLOAD DUP2 LT PUSH2 0x3DB6 JUMPI PUSH2 0x3DB6 PUSH2 0x48C6 JUMP JUMPDEST PUSH1 0x20 MUL PUSH1 0x20 ADD ADD MLOAD PUSH1 0x20 ADD MLOAD PUSH1 0x1 PUSH1 0x1 PUSH1 0xA0 SHL SUB AND PUSH1 0x1 PUSH1 0x1 PUSH1 0xA0 SHL SUB AND DUP2 MSTORE PUSH1 0x20 ADD SWAP1 DUP2 MSTORE PUSH1 0x20 ADD PUSH1 0x0 KECCAK256 PUSH1 0x0 DUP5 DUP5 DUP2 MLOAD DUP2 LT PUSH2 0x3DF6 JUMPI PUSH2 0x3DF6 PUSH2 0x48C6 JUMP JUMPDEST PUSH1 0x20 MUL PUSH1 0x20 ADD ADD MLOAD PUSH1 0x60 ADD MLOAD PUSH1 0x1 PUSH1 0x1 PUSH1 0xA0 SHL SUB AND PUSH1 0x1 PUSH1 0x1 PUSH1 0xA0 SHL SUB AND DUP2 MSTORE PUSH1 0x20 ADD SWAP1 DUP2 MSTORE PUSH1 0x20 ADD PUSH1 0x0 KECCAK256 PUSH1 0x0 DUP3 DUP3 SLOAD PUSH2 0x3E31 SWAP2 SWAP1 PUSH2 0x490D JUMP JUMPDEST SWAP1 SWAP2 SSTORE POP POP DUP2 MLOAD PUSH1 0x0 SWAP1 DUP4 SWAP1 DUP4 SWAP1 DUP2 LT PUSH2 0x3E4D JUMPI PUSH2 0x3E4D PUSH2 0x48C6 JUMP JUMPDEST PUSH1 0x20 MUL PUSH1 0x20 ADD ADD MLOAD PUSH1 0x60 ADD MLOAD PUSH1 0x1 PUSH1 0x1 PUSH1 0xA0 SHL SUB AND EQ ISZERO PUSH2 0x3F48 JUMPI PUSH1 0x0 DUP3 DUP3 DUP2 MLOAD DUP2 LT PUSH2 0x3E7C JUMPI PUSH2 0x3E7C PUSH2 0x48C6 JUMP JUMPDEST PUSH1 0x20 MUL PUSH1 0x20 ADD ADD MLOAD PUSH1 0x40 ADD MLOAD PUSH1 0x1 PUSH1 0x1 PUSH1 0xA0 SHL SUB AND PUSH2 0x8FC DUP5 DUP5 DUP2 MLOAD DUP2 LT PUSH2 0x3EA6 JUMPI PUSH2 0x3EA6 PUSH2 0x48C6 JUMP JUMPDEST PUSH1 0x20 MUL PUSH1 0x20 ADD ADD MLOAD PUSH1 0xC0 ADD MLOAD SWAP1 DUP2 ISZERO MUL SWAP1 PUSH1 0x40 MLOAD PUSH1 0x0 PUSH1 0x40 MLOAD DUP1 DUP4 SUB DUP2 DUP6 DUP9 DUP9 CALL SWAP4 POP POP POP POP SWAP1 POP DUP1 PUSH2 0x3F0E JUMPI PUSH1 0x40 MLOAD PUSH3 0x461BCD PUSH1 0xE5 SHL DUP2 MSTORE PUSH1 0x20 PUSH1 0x4 DUP3 ADD MSTORE PUSH1 0x10 PUSH1 0x24 DUP3 ADD MSTORE PUSH16 0x2A3930B739B332B9103330B4B632B217 PUSH1 0x81 SHL PUSH1 0x44 DUP3 ADD MSTORE PUSH1 0x64 ADD PUSH2 0x433 JUMP JUMPDEST PUSH1 0x40 MLOAD PUSH1 0x1 DUP2 MSTORE PUSH32 0xA2EA5B0DB1D57B0E32DF654AA9A1A97BC8066881E37669FF488D2BEBE87C9F87 SWAP1 PUSH1 0x20 ADD PUSH1 0x40 MLOAD DUP1 SWAP2 SUB SWAP1 LOG1 POP PUSH2 0x4061 JUMP JUMPDEST DUP2 DUP2 DUP2 MLOAD DUP2 LT PUSH2 0x3F5A JUMPI PUSH2 0x3F5A PUSH2 0x48C6 JUMP JUMPDEST PUSH1 0x20 MUL PUSH1 0x20 ADD ADD MLOAD PUSH1 0x60 ADD MLOAD PUSH1 0x1 PUSH1 0x1 PUSH1 0xA0 SHL SUB AND PUSH4 0x23B872DD DUP4 DUP4 DUP2 MLOAD DUP2 LT PUSH2 0x3F86 JUMPI PUSH2 0x3F86 PUSH2 0x48C6 JUMP JUMPDEST PUSH1 0x20 MUL PUSH1 0x20 ADD ADD MLOAD PUSH1 0x20 ADD MLOAD DUP5 DUP5 DUP2 MLOAD DUP2 LT PUSH2 0x3FA4 JUMPI PUSH2 0x3FA4 PUSH2 0x48C6 JUMP JUMPDEST PUSH1 0x20 MUL PUSH1 0x20 ADD ADD MLOAD PUSH1 0x40 ADD MLOAD DUP6 DUP6 DUP2 MLOAD DUP2 LT PUSH2 0x3FC2 JUMPI PUSH2 0x3FC2 PUSH2 0x48C6 JUMP JUMPDEST PUSH1 0x20 SWAP1 DUP2 MUL SWAP2 SWAP1 SWAP2 ADD ADD MLOAD PUSH1 0xC0 ADD MLOAD PUSH1 0x40 MLOAD PUSH1 0x1 PUSH1 0x1 PUSH1 0xE0 SHL SUB NOT PUSH1 0xE0 DUP7 SWAP1 SHL AND DUP2 MSTORE PUSH1 0x1 PUSH1 0x1 PUSH1 0xA0 SHL SUB SWAP4 DUP5 AND PUSH1 0x4 DUP3 ADD MSTORE SWAP3 SWAP1 SWAP2 AND PUSH1 0x24 DUP4 ADD MSTORE PUSH1 0x44 DUP3 ADD MSTORE PUSH1 0x64 ADD PUSH1 0x20 PUSH1 0x40 MLOAD DUP1 DUP4 SUB DUP2 PUSH1 0x0 DUP8 DUP1 EXTCODESIZE ISZERO DUP1 ISZERO PUSH2 0x4020 JUMPI PUSH1 0x0 DUP1 REVERT JUMPDEST POP GAS CALL ISZERO DUP1 ISZERO PUSH2 0x4034 JUMPI RETURNDATASIZE PUSH1 0x0 DUP1 RETURNDATACOPY RETURNDATASIZE PUSH1 0x0 REVERT JUMPDEST POP POP POP POP PUSH1 0x40 MLOAD RETURNDATASIZE PUSH1 0x1F NOT PUSH1 0x1F DUP3 ADD AND DUP3 ADD DUP1 PUSH1 0x40 MSTORE POP DUP2 ADD SWAP1 PUSH2 0x4058 SWAP2 SWAP1 PUSH2 0x4C03 JUMP JUMPDEST PUSH2 0x4061 JUMPI PUSH1 0x0 DUP1 REVERT JUMPDEST DUP1 PUSH2 0x406B DUP2 PUSH2 0x48F2 JUMP JUMPDEST SWAP2 POP POP PUSH2 0x3D79 JUMP JUMPDEST PUSH1 0x0 PUSH2 0x317F DUP3 PUSH2 0xE10 PUSH2 0x4C25 JUMP JUMPDEST PUSH1 0x0 DUP1 JUMPDEST DUP3 MLOAD DUP2 LT ISZERO PUSH2 0x40D9 JUMPI DUP4 PUSH5 0xFFFFFFFFFF AND DUP4 DUP3 DUP2 MLOAD DUP2 LT PUSH2 0x40A8 JUMPI PUSH2 0x40A8 PUSH2 0x48C6 JUMP JUMPDEST PUSH1 0x20 MUL PUSH1 0x20 ADD ADD MLOAD PUSH5 0xFFFFFFFFFF AND EQ ISZERO PUSH2 0x40C7 JUMPI PUSH1 0x1 SWAP2 POP POP PUSH2 0x317F JUMP JUMPDEST DUP1 PUSH2 0x40D1 DUP2 PUSH2 0x48F2 JUMP JUMPDEST SWAP2 POP POP PUSH2 0x4085 JUMP JUMPDEST POP PUSH1 0x0 SWAP4 SWAP3 POP POP POP JUMP JUMPDEST PUSH1 0x0 DUP1 JUMPDEST DUP3 MLOAD DUP2 LT ISZERO PUSH2 0x40D9 JUMPI DUP4 PUSH1 0x1 PUSH1 0x1 PUSH1 0xA0 SHL SUB AND DUP4 DUP3 DUP2 MLOAD DUP2 LT PUSH2 0x410C JUMPI PUSH2 0x410C PUSH2 0x48C6 JUMP JUMPDEST PUSH1 0x20 MUL PUSH1 0x20 ADD ADD MLOAD PUSH1 0x1 PUSH1 0x1 PUSH1 0xA0 SHL SUB AND EQ ISZERO PUSH2 0x412D JUMPI PUSH1 0x1 SWAP2 POP POP PUSH2 0x317F JUMP JUMPDEST DUP1 PUSH2 0x4137 DUP2 PUSH2 0x48F2 JUMP JUMPDEST SWAP2 POP POP PUSH2 0x40E7 JUMP JUMPDEST CALLER PUSH1 0x0 SWAP1 DUP2 MSTORE PUSH1 0x3 PUSH1 0x20 MSTORE PUSH1 0x40 SWAP1 KECCAK256 PUSH1 0x1 SWAP1 DUP2 ADD SLOAD EQ ISZERO PUSH2 0x4178 JUMPI CALLER PUSH1 0x0 SWAP1 DUP2 MSTORE PUSH1 0x3 PUSH1 0x20 MSTORE PUSH1 0x40 DUP2 KECCAK256 PUSH2 0x29E8 SWAP2 PUSH1 0x1 SWAP1 SWAP2 ADD SWAP1 PUSH2 0x438D JUMP JUMPDEST CALLER PUSH1 0x0 SWAP1 DUP2 MSTORE PUSH1 0x3 PUSH1 0x20 MSTORE PUSH1 0x40 DUP2 KECCAK256 PUSH1 0x1 ADD SWAP1 DUP1 JUMPDEST DUP3 SLOAD DUP2 LT ISZERO PUSH2 0x4239 JUMPI DUP4 PUSH5 0xFFFFFFFFFF AND DUP4 DUP3 DUP2 SLOAD DUP2 LT PUSH2 0x41B0 JUMPI PUSH2 0x41B0 PUSH2 0x48C6 JUMP JUMPDEST SWAP1 PUSH1 0x0 MSTORE PUSH1 0x20 PUSH1 0x0 KECCAK256 SWAP1 PUSH1 0x6 SWAP2 DUP3 DUP3 DIV ADD SWAP2 SWAP1 MOD PUSH1 0x5 MUL SWAP1 SLOAD SWAP1 PUSH2 0x100 EXP SWAP1 DIV PUSH5 0xFFFFFFFFFF AND PUSH5 0xFFFFFFFFFF AND EQ ISZERO PUSH2 0x4227 JUMPI DUP1 SWAP2 POP DUP3 DUP2 DUP2 SLOAD DUP2 LT PUSH2 0x41F9 JUMPI PUSH2 0x41F9 PUSH2 0x48C6 JUMP JUMPDEST SWAP1 PUSH1 0x0 MSTORE PUSH1 0x20 PUSH1 0x0 KECCAK256 SWAP1 PUSH1 0x6 SWAP2 DUP3 DUP3 DIV ADD SWAP2 SWAP1 MOD PUSH1 0x5 MUL PUSH2 0x100 EXP DUP2 SLOAD SWAP1 PUSH5 0xFFFFFFFFFF MUL NOT AND SWAP1 SSTORE PUSH2 0x4239 JUMP JUMPDEST DUP1 PUSH2 0x4231 DUP2 PUSH2 0x48F2 JUMP JUMPDEST SWAP2 POP POP PUSH2 0x418D JUMP JUMPDEST POP DUP2 SLOAD DUP3 SWAP1 PUSH2 0x424A SWAP1 PUSH1 0x1 SWAP1 PUSH2 0x490D JUMP JUMPDEST DUP2 SLOAD DUP2 LT PUSH2 0x425A JUMPI PUSH2 0x425A PUSH2 0x48C6 JUMP JUMPDEST SWAP1 PUSH1 0x0 MSTORE PUSH1 0x20 PUSH1 0x0 KECCAK256 SWAP1 PUSH1 0x6 SWAP2 DUP3 DUP3 DIV ADD SWAP2 SWAP1 MOD PUSH1 0x5 MUL SWAP1 SLOAD SWAP1 PUSH2 0x100 EXP SWAP1 DIV PUSH5 0xFFFFFFFFFF AND DUP3 DUP3 DUP2 SLOAD DUP2 LT PUSH2 0x4293 JUMPI PUSH2 0x4293 PUSH2 0x48C6 JUMP JUMPDEST SWAP1 PUSH1 0x0 MSTORE PUSH1 0x20 PUSH1 0x0 KECCAK256 SWAP1 PUSH1 0x6 SWAP2 DUP3 DUP3 DIV ADD SWAP2 SWAP1 MOD PUSH1 0x5 MUL PUSH2 0x100 EXP DUP2 SLOAD DUP2 PUSH5 0xFFFFFFFFFF MUL NOT AND SWAP1 DUP4 PUSH5 0xFFFFFFFFFF AND MUL OR SWAP1 SSTORE POP DUP2 DUP1 SLOAD DUP1 PUSH2 0x42D8 JUMPI PUSH2 0x42D8 PUSH2 0x493C JUMP JUMPDEST PUSH1 0x1 SWAP1 SUB DUP2 DUP2 SWAP1 PUSH1 0x0 MSTORE PUSH1 0x20 PUSH1 0x0 KECCAK256 SWAP1 PUSH1 0x6 SWAP2 DUP3 DUP3 DIV ADD SWAP2 SWAP1 MOD PUSH1 0x5 MUL PUSH2 0x100 EXP DUP2 SLOAD SWAP1 PUSH5 0xFFFFFFFFFF MUL NOT AND SWAP1 SSTORE SWAP1 SSTORE POP POP POP JUMP JUMPDEST DUP1 MLOAD PUSH11 0x636F6E736F6C652E6C6F67 PUSH1 0x20 DUP4 ADD PUSH1 0x0 DUP1 DUP5 DUP4 DUP6 GAS STATICCALL POP POP POP POP POP JUMP JUMPDEST PUSH1 0x40 DUP1 MLOAD PUSH1 0xE0 DUP2 ADD DUP3 MSTORE PUSH1 0x0 DUP1 DUP3 MSTORE PUSH1 0x20 DUP3 ADD DUP2 SWAP1 MSTORE SWAP2 DUP2 ADD DUP3 SWAP1 MSTORE PUSH1 0x60 DUP2 ADD DUP3 SWAP1 MSTORE PUSH1 0x80 DUP2 ADD DUP3 SWAP1 MSTORE SWAP1 PUSH1 0xA0 DUP3 ADD SWAP1 DUP2 MSTORE PUSH1 0x20 ADD PUSH1 0x0 DUP2 MSTORE POP SWAP1 JUMP JUMPDEST POP DUP1 SLOAD PUSH1 0x0 DUP3 SSTORE PUSH1 0x5 MUL SWAP1 PUSH1 0x0 MSTORE PUSH1 0x20 PUSH1 0x0 KECCAK256 SWAP1 DUP2 ADD SWAP1 PUSH2 0x29E8 SWAP2 SWAP1 PUSH2 0x43B2 JUMP JUMPDEST POP DUP1 SLOAD PUSH1 0x0 DUP3 SSTORE PUSH1 0x5 ADD PUSH1 0x6 SWAP1 DIV SWAP1 PUSH1 0x0 MSTORE PUSH1 0x20 PUSH1 0x0 KECCAK256 SWAP1 DUP2 ADD SWAP1 PUSH2 0x29E8 SWAP2 SWAP1 PUSH2 0x4403 JUMP JUMPDEST JUMPDEST DUP1 DUP3 GT ISZERO PUSH2 0x43FF JUMPI PUSH1 0x0 DUP1 DUP3 SSTORE PUSH1 0x1 DUP3 ADD DUP1 SLOAD PUSH1 0x1 PUSH1 0x1 PUSH1 0xA0 SHL SUB NOT SWAP1 DUP2 AND SWAP1 SWAP2 SSTORE PUSH1 0x2 DUP4 ADD DUP1 SLOAD SWAP1 SWAP2 AND SWAP1 SSTORE PUSH1 0x3 DUP3 ADD DUP1 SLOAD PUSH1 0x1 PUSH1 0x1 PUSH1 0xD0 SHL SUB NOT AND SWAP1 SSTORE PUSH1 0x4 DUP3 ADD SSTORE PUSH1 0x5 ADD PUSH2 0x43B3 JUMP JUMPDEST POP SWAP1 JUMP JUMPDEST JUMPDEST DUP1 DUP3 GT ISZERO PUSH2 0x43FF JUMPI PUSH1 0x0 DUP2 SSTORE PUSH1 0x1 ADD PUSH2 0x4404 JUMP JUMPDEST PUSH1 0x1 PUSH1 0x1 PUSH1 0xA0 SHL SUB DUP2 AND DUP2 EQ PUSH2 0x29E8 JUMPI PUSH1 0x0 DUP1 REVERT JUMPDEST PUSH1 0x0 PUSH1 0x20 DUP3 DUP5 SUB SLT ISZERO PUSH2 0x443F JUMPI PUSH1 0x0 DUP1 REVERT JUMPDEST DUP2 CALLDATALOAD PUSH2 0x444A DUP2 PUSH2 0x4418 JUMP JUMPDEST SWAP4 SWAP3 POP POP POP JUMP JUMPDEST PUSH4 0x4E487B71 PUSH1 0xE0 SHL PUSH1 0x0 MSTORE PUSH1 0x21 PUSH1 0x4 MSTORE PUSH1 0x24 PUSH1 0x0 REVERT JUMPDEST PUSH1 0x20 DUP1 DUP3 MSTORE DUP3 MLOAD DUP3 DUP3 ADD DUP2 SWAP1 MSTORE PUSH1 0x0 SWAP2 SWAP1 PUSH1 0x40 SWAP1 DUP2 DUP6 ADD SWAP1 DUP7 DUP5 ADD DUP6 DUP1 JUMPDEST DUP4 DUP2 LT ISZERO PUSH2 0x4511 JUMPI DUP3 MLOAD DUP1 MLOAD DUP7 MSTORE DUP8 DUP2 ADD MLOAD PUSH1 0x1 PUSH1 0x1 PUSH1 0xA0 SHL SUB SWAP1 DUP2 AND DUP10 DUP9 ADD MSTORE DUP8 DUP3 ADD MLOAD DUP2 AND DUP9 DUP9 ADD MSTORE PUSH1 0x60 DUP1 DUP4 ADD MLOAD SWAP1 SWAP2 AND SWAP1 DUP8 ADD MSTORE PUSH1 0x80 DUP1 DUP3 ADD MLOAD PUSH5 0xFFFFFFFFFF AND SWAP1 DUP8 ADD MSTORE PUSH1 0xA0 DUP1 DUP3 ADD MLOAD PUSH1 0x4 DUP1 DUP3 LT PUSH2 0x44F0 JUMPI PUSH4 0x4E487B71 PUSH1 0xE0 SHL DUP7 MSTORE PUSH1 0x21 DUP2 MSTORE PUSH1 0x24 DUP7 REVERT JUMPDEST POP SWAP1 DUP8 ADD MSTORE PUSH1 0xC0 SWAP1 DUP2 ADD MLOAD SWAP1 DUP7 ADD MSTORE PUSH1 0xE0 SWAP1 SWAP5 ADD SWAP4 SWAP2 DUP7 ADD SWAP2 PUSH1 0x1 ADD PUSH2 0x4485 JUMP JUMPDEST POP SWAP3 SWAP9 SWAP8 POP POP POP POP POP POP POP POP JUMP JUMPDEST DUP1 CALLDATALOAD PUSH5 0xFFFFFFFFFF DUP2 AND DUP2 EQ PUSH2 0x2EF3 JUMPI PUSH1 0x0 DUP1 REVERT JUMPDEST PUSH1 0x0 DUP1 PUSH1 0x0 PUSH1 0x60 DUP5 DUP7 SUB SLT ISZERO PUSH2 0x4549 JUMPI PUSH1 0x0 DUP1 REVERT JUMPDEST DUP4 CALLDATALOAD SWAP3 POP PUSH2 0x4559 PUSH1 0x20 DUP6 ADD PUSH2 0x451F JUMP JUMPDEST SWAP2 POP PUSH1 0x40 DUP5 ADD CALLDATALOAD PUSH2 0x4569 DUP2 PUSH2 0x4418 JUMP JUMPDEST DUP1 SWAP2 POP POP SWAP3 POP SWAP3 POP SWAP3 JUMP JUMPDEST PUSH1 0x0 PUSH1 0x20 DUP3 DUP5 SUB SLT ISZERO PUSH2 0x4586 JUMPI PUSH1 0x0 DUP1 REVERT JUMPDEST POP CALLDATALOAD SWAP2 SWAP1 POP JUMP JUMPDEST PUSH1 0x0 DUP1 PUSH1 0x0 DUP1 PUSH1 0x80 DUP6 DUP8 SUB SLT ISZERO PUSH2 0x45A3 JUMPI PUSH1 0x0 DUP1 REVERT JUMPDEST DUP5 CALLDATALOAD PUSH2 0x45AE DUP2 PUSH2 0x4418 JUMP JUMPDEST SWAP4 POP PUSH2 0x45BC PUSH1 0x20 DUP7 ADD PUSH2 0x451F JUMP JUMPDEST SWAP3 POP PUSH1 0x40 DUP6 ADD CALLDATALOAD SWAP2 POP PUSH1 0x60 DUP6 ADD CALLDATALOAD PUSH2 0x45D3 DUP2 PUSH2 0x4418 JUMP JUMPDEST SWAP4 SWAP7 SWAP3 SWAP6 POP SWAP1 SWAP4 POP POP JUMP JUMPDEST PUSH1 0x0 PUSH1 0x20 DUP3 DUP5 SUB SLT ISZERO PUSH2 0x45F0 JUMPI PUSH1 0x0 DUP1 REVERT JUMPDEST PUSH2 0x444A DUP3 PUSH2 0x451F JUMP JUMPDEST PUSH1 0x0 DUP1 PUSH1 0x0 DUP1 PUSH1 0x0 DUP6 DUP8 SUB PUSH2 0x160 DUP2 SLT ISZERO PUSH2 0x4613 JUMPI PUSH1 0x0 DUP1 REVERT JUMPDEST DUP7 CALLDATALOAD PUSH2 0x461E DUP2 PUSH2 0x4418 JUMP JUMPDEST SWAP6 POP PUSH2 0x462C PUSH1 0x20 DUP9 ADD PUSH2 0x451F JUMP JUMPDEST SWAP5 POP PUSH1 0x40 DUP8 ADD CALLDATALOAD SWAP4 POP PUSH1 0x60 DUP8 ADD CALLDATALOAD PUSH2 0x4643 DUP2 PUSH2 0x4418 JUMP JUMPDEST SWAP3 POP PUSH1 0xE0 PUSH1 0x7F NOT DUP3 ADD SLT ISZERO PUSH2 0x4657 JUMPI PUSH1 0x0 DUP1 REVERT JUMPDEST POP PUSH1 0x80 DUP7 ADD SWAP1 POP SWAP3 SWAP6 POP SWAP3 SWAP6 SWAP1 SWAP4 POP JUMP JUMPDEST PUSH1 0x0 PUSH1 0x20 DUP1 DUP4 ADD DUP2 DUP5 MSTORE DUP1 DUP6 MLOAD DUP1 DUP4 MSTORE PUSH1 0x40 SWAP3 POP DUP3 DUP7 ADD SWAP2 POP DUP3 DUP2 PUSH1 0x5 SHL DUP8 ADD ADD DUP5 DUP9 ADD PUSH1 0x0 DUP1 JUMPDEST DUP5 DUP2 LT ISZERO PUSH2 0x4715 JUMPI DUP10 DUP5 SUB PUSH1 0x3F NOT ADD DUP7 MSTORE DUP3 MLOAD DUP1 MLOAD PUSH1 0x1 PUSH1 0x1 PUSH1 0xA0 SHL SUB AND DUP6 MSTORE DUP9 DUP2 ADD MLOAD ISZERO ISZERO DUP10 DUP7 ADD MSTORE DUP8 ADD MLOAD PUSH1 0x60 DUP9 DUP7 ADD DUP2 SWAP1 MSTORE DUP2 MLOAD SWAP1 DUP7 ADD DUP2 SWAP1 MSTORE SWAP1 DUP10 ADD SWAP1 PUSH1 0x80 DUP7 ADD SWAP1 DUP5 SWAP1 JUMPDEST DUP1 DUP3 LT ISZERO PUSH2 0x4700 JUMPI DUP4 MLOAD PUSH5 0xFFFFFFFFFF AND DUP4 MSTORE SWAP3 DUP12 ADD SWAP3 SWAP2 DUP12 ADD SWAP2 PUSH1 0x1 SWAP2 SWAP1 SWAP2 ADD SWAP1 PUSH2 0x46D9 JUMP JUMPDEST POP POP SWAP7 DUP10 ADD SWAP7 SWAP5 POP POP SWAP2 DUP8 ADD SWAP2 PUSH1 0x1 ADD PUSH2 0x4690 JUMP JUMPDEST POP SWAP2 SWAP10 SWAP9 POP POP POP POP POP POP POP POP POP JUMP JUMPDEST PUSH4 0x4E487B71 PUSH1 0xE0 SHL PUSH1 0x0 MSTORE PUSH1 0x41 PUSH1 0x4 MSTORE PUSH1 0x24 PUSH1 0x0 REVERT JUMPDEST PUSH1 0x40 MLOAD PUSH1 0x80 DUP2 ADD PUSH8 0xFFFFFFFFFFFFFFFF DUP2 GT DUP3 DUP3 LT OR ISZERO PUSH2 0x475D JUMPI PUSH2 0x475D PUSH2 0x4724 JUMP JUMPDEST PUSH1 0x40 MSTORE SWAP1 JUMP JUMPDEST PUSH1 0x40 MLOAD PUSH1 0x1F DUP3 ADD PUSH1 0x1F NOT AND DUP2 ADD PUSH8 0xFFFFFFFFFFFFFFFF DUP2 GT DUP3 DUP3 LT OR ISZERO PUSH2 0x478C JUMPI PUSH2 0x478C PUSH2 0x4724 JUMP JUMPDEST PUSH1 0x40 MSTORE SWAP2 SWAP1 POP JUMP JUMPDEST PUSH1 0x0 PUSH1 0x20 DUP1 DUP4 DUP6 SUB SLT ISZERO PUSH2 0x47A7 JUMPI PUSH1 0x0 DUP1 REVERT JUMPDEST DUP3 CALLDATALOAD PUSH8 0xFFFFFFFFFFFFFFFF DUP1 DUP3 GT ISZERO PUSH2 0x47BF JUMPI PUSH1 0x0 DUP1 REVERT JUMPDEST DUP2 DUP6 ADD SWAP2 POP DUP6 PUSH1 0x1F DUP4 ADD SLT PUSH2 0x47D3 JUMPI PUSH1 0x0 DUP1 REVERT JUMPDEST DUP2 CALLDATALOAD DUP2 DUP2 GT ISZERO PUSH2 0x47E5 JUMPI PUSH2 0x47E5 PUSH2 0x4724 JUMP JUMPDEST PUSH2 0x47F3 DUP5 DUP3 PUSH1 0x5 SHL ADD PUSH2 0x4763 JUMP JUMPDEST DUP2 DUP2 MSTORE DUP5 DUP2 ADD SWAP3 POP PUSH1 0x7 SWAP2 SWAP1 SWAP2 SHL DUP4 ADD DUP5 ADD SWAP1 DUP8 DUP3 GT ISZERO PUSH2 0x4813 JUMPI PUSH1 0x0 DUP1 REVERT JUMPDEST SWAP3 DUP5 ADD SWAP3 JUMPDEST DUP2 DUP5 LT ISZERO PUSH2 0x4884 JUMPI PUSH1 0x80 DUP5 DUP10 SUB SLT ISZERO PUSH2 0x4831 JUMPI PUSH1 0x0 DUP1 DUP2 REVERT JUMPDEST PUSH2 0x4839 PUSH2 0x473A JUMP JUMPDEST DUP5 CALLDATALOAD PUSH2 0x4844 DUP2 PUSH2 0x4418 JUMP JUMPDEST DUP2 MSTORE PUSH2 0x4851 DUP6 DUP8 ADD PUSH2 0x451F JUMP JUMPDEST DUP2 DUP8 ADD MSTORE PUSH1 0x40 DUP6 DUP2 ADD CALLDATALOAD SWAP1 DUP3 ADD MSTORE PUSH1 0x60 DUP1 DUP7 ADD CALLDATALOAD PUSH2 0x486E DUP2 PUSH2 0x4418 JUMP JUMPDEST SWAP1 DUP3 ADD MSTORE DUP4 MSTORE PUSH1 0x80 SWAP4 SWAP1 SWAP4 ADD SWAP3 SWAP2 DUP5 ADD SWAP2 PUSH2 0x4818 JUMP JUMPDEST SWAP8 SWAP7 POP POP POP POP POP POP POP JUMP JUMPDEST PUSH1 0x20 DUP1 DUP3 MSTORE PUSH1 0x1A SWAP1 DUP3 ADD MSTORE PUSH32 0x4D75737420686176652061646D696E2070726976696C65676573000000000000 PUSH1 0x40 DUP3 ADD MSTORE PUSH1 0x60 ADD SWAP1 JUMP JUMPDEST PUSH4 0x4E487B71 PUSH1 0xE0 SHL PUSH1 0x0 MSTORE PUSH1 0x32 PUSH1 0x4 MSTORE PUSH1 0x24 PUSH1 0x0 REVERT JUMPDEST PUSH4 0x4E487B71 PUSH1 0xE0 SHL PUSH1 0x0 MSTORE PUSH1 0x11 PUSH1 0x4 MSTORE PUSH1 0x24 PUSH1 0x0 REVERT JUMPDEST PUSH1 0x0 PUSH1 0x0 NOT DUP3 EQ ISZERO PUSH2 0x4906 JUMPI PUSH2 0x4906 PUSH2 0x48DC JUMP JUMPDEST POP PUSH1 0x1 ADD SWAP1 JUMP JUMPDEST PUSH1 0x0 DUP3 DUP3 LT ISZERO PUSH2 0x491F JUMPI PUSH2 0x491F PUSH2 0x48DC JUMP JUMPDEST POP SUB SWAP1 JUMP JUMPDEST PUSH1 0x0 DUP3 NOT DUP3 GT ISZERO PUSH2 0x4937 JUMPI PUSH2 0x4937 PUSH2 0x48DC JUMP JUMPDEST POP ADD SWAP1 JUMP JUMPDEST PUSH4 0x4E487B71 PUSH1 0xE0 SHL PUSH1 0x0 MSTORE PUSH1 0x31 PUSH1 0x4 MSTORE PUSH1 0x24 PUSH1 0x0 REVERT JUMPDEST PUSH1 0x20 DUP1 DUP3 MSTORE PUSH1 0x1F SWAP1 DUP3 ADD MSTORE PUSH32 0x54696D652064617461206D75737420626520696E207468652066757475726500 PUSH1 0x40 DUP3 ADD MSTORE PUSH1 0x60 ADD SWAP1 JUMP JUMPDEST PUSH4 0x4E487B71 PUSH1 0xE0 SHL PUSH1 0x0 MSTORE PUSH1 0x12 PUSH1 0x4 MSTORE PUSH1 0x24 PUSH1 0x0 REVERT JUMPDEST PUSH1 0x0 PUSH5 0xFFFFFFFFFF DUP1 DUP5 AND DUP1 PUSH2 0x49B7 JUMPI PUSH2 0x49B7 PUSH2 0x4989 JUMP JUMPDEST SWAP3 AND SWAP2 SWAP1 SWAP2 MOD SWAP3 SWAP2 POP POP JUMP JUMPDEST PUSH1 0x20 DUP1 DUP3 MSTORE PUSH1 0x18 SWAP1 DUP3 ADD MSTORE PUSH32 0x54696D65206D757374206265206F6E2074686520686F75720000000000000000 PUSH1 0x40 DUP3 ADD MSTORE PUSH1 0x60 ADD SWAP1 JUMP JUMPDEST PUSH1 0x0 DUP2 PUSH1 0x0 NOT DIV DUP4 GT DUP3 ISZERO ISZERO AND ISZERO PUSH2 0x4A14 JUMPI PUSH2 0x4A14 PUSH2 0x48DC JUMP JUMPDEST POP MUL SWAP1 JUMP JUMPDEST PUSH1 0x0 DUP3 PUSH2 0x4A28 JUMPI PUSH2 0x4A28 PUSH2 0x4989 JUMP JUMPDEST POP DIV SWAP1 JUMP JUMPDEST PUSH1 0x20 DUP1 DUP3 MSTORE PUSH1 0x24 SWAP1 DUP3 ADD MSTORE PUSH32 0x4E6F7420656E6F756768204554482073656E742077697468207472616E736163 PUSH1 0x40 DUP3 ADD MSTORE PUSH4 0x3A34B7B7 PUSH1 0xE1 SHL PUSH1 0x60 DUP3 ADD MSTORE PUSH1 0x80 ADD SWAP1 JUMP JUMPDEST PUSH1 0x20 DUP1 DUP3 MSTORE PUSH1 0x25 SWAP1 DUP3 ADD MSTORE PUSH32 0x20546F6B656E206E6F7420617070726F76656420666F72207468697320636F6E PUSH1 0x40 DUP3 ADD MSTORE PUSH5 0x1D1C9858DD PUSH1 0xDA SHL PUSH1 0x60 DUP3 ADD MSTORE PUSH1 0x80 ADD SWAP1 JUMP JUMPDEST PUSH1 0x0 PUSH1 0x20 DUP3 DUP5 SUB SLT ISZERO PUSH2 0x4AC8 JUMPI PUSH1 0x0 DUP1 REVERT JUMPDEST POP MLOAD SWAP2 SWAP1 POP JUMP JUMPDEST PUSH1 0x20 DUP1 DUP3 MSTORE PUSH1 0x35 SWAP1 DUP3 ADD MSTORE PUSH32 0x526571756972657320746F6B656E20616C6C6F77616E636520746F2062652069 PUSH1 0x40 DUP3 ADD MSTORE PUSH21 0x1B98DC99585CD95908199BDC8818DBDB9D1C9858DD PUSH1 0x5A SHL PUSH1 0x60 DUP3 ADD MSTORE PUSH1 0x80 ADD SWAP1 JUMP JUMPDEST PUSH1 0x0 PUSH5 0xFFFFFFFFFF DUP1 DUP5 AND DUP1 PUSH2 0x4B3C JUMPI PUSH2 0x4B3C PUSH2 0x4989 JUMP JUMPDEST SWAP3 AND SWAP2 SWAP1 SWAP2 DIV SWAP3 SWAP2 POP POP JUMP JUMPDEST PUSH1 0x0 DUP3 PUSH2 0x4B57 JUMPI PUSH2 0x4B57 PUSH2 0x4989 JUMP JUMPDEST POP MOD SWAP1 JUMP JUMPDEST PUSH1 0x0 PUSH1 0x20 DUP3 DUP5 SUB SLT ISZERO PUSH2 0x4B6E JUMPI PUSH1 0x0 DUP1 REVERT JUMPDEST DUP2 CALLDATALOAD PUSH1 0xFF DUP2 AND DUP2 EQ PUSH2 0x444A JUMPI PUSH1 0x0 DUP1 REVERT JUMPDEST PUSH1 0x20 DUP1 DUP3 MSTORE PUSH1 0x27 SWAP1 DUP3 ADD MSTORE PUSH32 0x54696D6520616C726561647920636865636B656420666F722074686973207469 PUSH1 0x40 DUP3 ADD MSTORE PUSH7 0x1B59481CDB1BDD PUSH1 0xCA SHL PUSH1 0x60 DUP3 ADD MSTORE PUSH1 0x80 ADD SWAP1 JUMP JUMPDEST PUSH1 0x0 PUSH5 0xFFFFFFFFFF DUP1 DUP4 AND DUP2 DUP2 EQ ISZERO PUSH2 0x4BE1 JUMPI PUSH2 0x4BE1 PUSH2 0x48DC JUMP JUMPDEST PUSH1 0x1 ADD SWAP4 SWAP3 POP POP POP JUMP JUMPDEST PUSH1 0x0 PUSH2 0xFFFF DUP1 DUP4 AND DUP2 DUP2 EQ ISZERO PUSH2 0x4BE1 JUMPI PUSH2 0x4BE1 PUSH2 0x48DC JUMP JUMPDEST PUSH1 0x0 PUSH1 0x20 DUP3 DUP5 SUB SLT ISZERO PUSH2 0x4C15 JUMPI PUSH1 0x0 DUP1 REVERT JUMPDEST DUP2 MLOAD DUP1 ISZERO ISZERO DUP2 EQ PUSH2 0x444A JUMPI PUSH1 0x0 DUP1 REVERT JUMPDEST PUSH1 0x0 PUSH5 0xFFFFFFFFFF DUP1 DUP4 AND DUP2 DUP6 AND DUP2 DUP4 DIV DUP2 GT DUP3 ISZERO ISZERO AND ISZERO PUSH2 0x4C49 JUMPI PUSH2 0x4C49 PUSH2 0x48DC JUMP JUMPDEST MUL SWAP5 SWAP4 POP POP POP POP JUMP INVALID LOG2 PUSH5 0x6970667358 0x22 SLT KECCAK256 0xAA DUP1 RETURN 0xE3 STATICCALL 0xAE CODECOPY 0xD3 0x4E 0xC8 0xB1 0xCF 0xD2 DIV 0xAB RETURNDATACOPY 0xC0 POP BASEFEE SHR RETURN SELFBALANCE SWAP8 0xEC 0xE6 CODESIZE 0xF7 0xE8 0x4B 0x27 0x4B 0xCF PUSH5 0x736F6C6343 STOP ADDMOD MULMOD STOP CALLER "},"methodIdentifiers":{"addBatchTransactions((address,uint40,uint256,address)[])":"d10fa144","addERC20Contract(address)":"ab7e0909","addPermitTransaction(address,uint40,uint256,address,(address,address,uint256,uint256,uint8,bytes32,bytes32))":"a1c06d34","addTransaction(address,uint40,uint256,address)":"80423444","allAccounts()":"cf783d8a","allTransactions()":"1ccb3371","cancelTransaction(bytes32,uint40,address)":"2a2b3690","changeAdmin(address)":"8f283970","changeFee(uint256)":"6a1db1bf","changeFixedFee(uint256)":"8e83ac4a","checkTime()":"e0c6190d","getAccountTransactions()":"c682cce4","getFee()":"ced72f87","getTime()":"557ed1ba","getTotalClaims(address)":"13b51234","getTransactionsByAccount(address)":"dc9961eb","hoursToDayOfMonth(uint40)":"8f475881","removeERC20Contract(address)":"053149fa","sendTime()":"aa58a5b0","toggleContractActive()":"1385d24c"}}}}}