{"contracts/ClockTowerSubscribe.sol":{"ClockTowerSubscribe":{"abi":[{"inputs":[{"internalType":"uint256","name":"callerFee_","type":"uint256"},{"internalType":"uint256","name":"systemFee_","type":"uint256"},{"internalType":"uint256","name":"maxRemits_","type":"uint256"},{"internalType":"bool","name":"allowSystemFee_","type":"bool"},{"internalType":"address","name":"admin_","type":"address"}],"stateMutability":"payable","type":"constructor"},{"anonymous":false,"inputs":[{"indexed":false,"internalType":"uint40","name":"timestamp","type":"uint40"},{"indexed":false,"internalType":"uint40","name":"checkedDay","type":"uint40"},{"indexed":true,"internalType":"address","name":"caller","type":"address"},{"indexed":false,"internalType":"bool","name":"isFinished","type":"bool"}],"name":"CallerLog","type":"event"},{"anonymous":false,"inputs":[{"indexed":true,"internalType":"bytes32","name":"id","type":"bytes32"},{"indexed":true,"internalType":"address","name":"provider","type":"address"},{"indexed":true,"internalType":"uint40","name":"timestamp","type":"uint40"},{"indexed":false,"internalType":"string","name":"url","type":"string"},{"indexed":false,"internalType":"string","name":"description","type":"string"}],"name":"DetailsLog","type":"event"},{"anonymous":false,"inputs":[{"indexed":true,"internalType":"address","name":"provider","type":"address"},{"indexed":true,"internalType":"uint40","name":"timestamp","type":"uint40"},{"indexed":false,"internalType":"string","name":"description","type":"string"},{"indexed":false,"internalType":"string","name":"company","type":"string"},{"indexed":false,"internalType":"string","name":"url","type":"string"},{"indexed":false,"internalType":"string","name":"domain","type":"string"},{"indexed":false,"internalType":"string","name":"email","type":"string"},{"indexed":false,"internalType":"string","name":"misc","type":"string"}],"name":"ProvDetailsLog","type":"event"},{"anonymous":false,"inputs":[{"indexed":true,"internalType":"bytes32","name":"id","type":"bytes32"},{"indexed":true,"internalType":"address","name":"provider","type":"address"},{"indexed":true,"internalType":"address","name":"subscriber","type":"address"},{"indexed":false,"internalType":"uint40","name":"timestamp","type":"uint40"},{"indexed":false,"internalType":"uint256","name":"amount","type":"uint256"},{"indexed":false,"internalType":"address","name":"token","type":"address"},{"indexed":false,"internalType":"enum ClockTowerSubscribe.SubscriptEvent","name":"subScriptEvent","type":"uint8"}],"name":"SubLog","type":"event"},{"stateMutability":"payable","type":"fallback"},{"inputs":[{"internalType":"uint256","name":"","type":"uint256"}],"name":"accountLookup","outputs":[{"internalType":"address","name":"","type":"address"}],"stateMutability":"view","type":"function"},{"inputs":[{"internalType":"address","name":"erc20Contract","type":"address"},{"internalType":"uint256","name":"minimum","type":"uint256"},{"internalType":"uint8","name":"decimals","type":"uint8"}],"name":"addERC20Contract","outputs":[],"stateMutability":"nonpayable","type":"function"},{"inputs":[{"internalType":"address","name":"","type":"address"}],"name":"approvedERC20","outputs":[{"internalType":"address","name":"tokenAddress","type":"address"},{"internalType":"uint256","name":"minimum","type":"uint256"},{"internalType":"uint8","name":"decimals","type":"uint8"},{"internalType":"bool","name":"exists","type":"bool"}],"stateMutability":"view","type":"function"},{"inputs":[],"name":"callerFee","outputs":[{"internalType":"uint256","name":"","type":"uint256"}],"stateMutability":"view","type":"function"},{"inputs":[{"components":[{"internalType":"bytes32","name":"id","type":"bytes32"},{"internalType":"uint256","name":"amount","type":"uint256"},{"internalType":"address","name":"provider","type":"address"},{"internalType":"address","name":"token","type":"address"},{"internalType":"bool","name":"exists","type":"bool"},{"internalType":"bool","name":"cancelled","type":"bool"},{"internalType":"enum ClockTowerSubscribe.Frequency","name":"frequency","type":"uint8"},{"internalType":"uint16","name":"dueDay","type":"uint16"}],"internalType":"struct ClockTowerSubscribe.Subscription","name":"subscription","type":"tuple"}],"name":"cancelSubscription","outputs":[],"stateMutability":"nonpayable","type":"function"},{"inputs":[{"internalType":"address payable","name":"newAddress","type":"address"}],"name":"changeAdmin","outputs":[],"stateMutability":"nonpayable","type":"function"},{"inputs":[{"internalType":"uint256","name":"_fee","type":"uint256"}],"name":"changeCallerFee","outputs":[],"stateMutability":"nonpayable","type":"function"},{"inputs":[{"internalType":"uint256","name":"_maxRemits","type":"uint256"}],"name":"changeMaxRemits","outputs":[],"stateMutability":"nonpayable","type":"function"},{"inputs":[{"internalType":"uint256","name":"_fixed_fee","type":"uint256"}],"name":"changeSystemFee","outputs":[],"stateMutability":"nonpayable","type":"function"},{"inputs":[],"name":"collectFees","outputs":[],"stateMutability":"nonpayable","type":"function"},{"inputs":[{"internalType":"uint256","name":"amount","type":"uint256"},{"internalType":"address","name":"token","type":"address"},{"components":[{"internalType":"string","name":"url","type":"string"},{"internalType":"string","name":"description","type":"string"}],"internalType":"struct ClockTowerSubscribe.Details","name":"details","type":"tuple"},{"internalType":"enum ClockTowerSubscribe.Frequency","name":"frequency","type":"uint8"},{"internalType":"uint16","name":"dueDay","type":"uint16"}],"name":"createSubscription","outputs":[],"stateMutability":"payable","type":"function"},{"inputs":[{"components":[{"internalType":"string","name":"url","type":"string"},{"internalType":"string","name":"description","type":"string"}],"internalType":"struct ClockTowerSubscribe.Details","name":"details","type":"tuple"},{"internalType":"bytes32","name":"id","type":"bytes32"}],"name":"editDetails","outputs":[],"stateMutability":"nonpayable","type":"function"},{"inputs":[{"components":[{"internalType":"string","name":"description","type":"string"},{"internalType":"string","name":"company","type":"string"},{"internalType":"string","name":"url","type":"string"},{"internalType":"string","name":"domain","type":"string"},{"internalType":"string","name":"email","type":"string"},{"internalType":"string","name":"misc","type":"string"}],"internalType":"struct ClockTowerSubscribe.ProviderDetails","name":"details","type":"tuple"}],"name":"editProvDetails","outputs":[],"stateMutability":"nonpayable","type":"function"},{"inputs":[{"internalType":"bytes32","name":"","type":"bytes32"},{"internalType":"address","name":"","type":"address"}],"name":"feeBalance","outputs":[{"internalType":"uint256","name":"","type":"uint256"}],"stateMutability":"view","type":"function"},{"inputs":[],"name":"feeEstimate","outputs":[{"components":[{"internalType":"uint256","name":"fee","type":"uint256"},{"internalType":"address","name":"token","type":"address"}],"internalType":"struct ClockTowerSubscribe.FeeEstimate[]","name":"","type":"tuple[]"}],"stateMutability":"view","type":"function"},{"inputs":[{"internalType":"address","name":"account","type":"address"}],"name":"getAccount","outputs":[{"components":[{"internalType":"address","name":"accountAddress","type":"address"},{"internalType":"bool","name":"exists","type":"bool"},{"components":[{"internalType":"bytes32","name":"id","type":"bytes32"},{"internalType":"uint16","name":"dueDay","type":"uint16"},{"internalType":"enum ClockTowerSubscribe.Frequency","name":"frequency","type":"uint8"},{"internalType":"enum ClockTowerSubscribe.Status","name":"status","type":"uint8"}],"internalType":"struct ClockTowerSubscribe.SubIndex[]","name":"subscriptions","type":"tuple[]"},{"components":[{"internalType":"bytes32","name":"id","type":"bytes32"},{"internalType":"uint16","name":"dueDay","type":"uint16"},{"internalType":"enum ClockTowerSubscribe.Frequency","name":"frequency","type":"uint8"},{"internalType":"enum ClockTowerSubscribe.Status","name":"status","type":"uint8"}],"internalType":"struct ClockTowerSubscribe.SubIndex[]","name":"provSubs","type":"tuple[]"}],"internalType":"struct ClockTowerSubscribe.Account","name":"","type":"tuple"}],"stateMutability":"view","type":"function"},{"inputs":[{"internalType":"bool","name":"bySubscriber","type":"bool"},{"internalType":"address","name":"account","type":"address"}],"name":"getAccountSubscriptions","outputs":[{"components":[{"components":[{"internalType":"bytes32","name":"id","type":"bytes32"},{"internalType":"uint256","name":"amount","type":"uint256"},{"internalType":"address","name":"provider","type":"address"},{"internalType":"address","name":"token","type":"address"},{"internalType":"bool","name":"exists","type":"bool"},{"internalType":"bool","name":"cancelled","type":"bool"},{"internalType":"enum ClockTowerSubscribe.Frequency","name":"frequency","type":"uint8"},{"internalType":"uint16","name":"dueDay","type":"uint16"}],"internalType":"struct ClockTowerSubscribe.Subscription","name":"subscription","type":"tuple"},{"internalType":"enum ClockTowerSubscribe.Status","name":"status","type":"uint8"},{"internalType":"uint256","name":"totalSubscribers","type":"uint256"}],"internalType":"struct ClockTowerSubscribe.SubView[]","name":"","type":"tuple[]"}],"stateMutability":"view","type":"function"},{"inputs":[{"internalType":"bytes32","name":"id","type":"bytes32"},{"internalType":"enum ClockTowerSubscribe.Frequency","name":"frequency","type":"uint8"},{"internalType":"uint16","name":"dueDay","type":"uint16"}],"name":"getSubByIndex","outputs":[{"components":[{"internalType":"bytes32","name":"id","type":"bytes32"},{"internalType":"uint256","name":"amount","type":"uint256"},{"internalType":"address","name":"provider","type":"address"},{"internalType":"address","name":"token","type":"address"},{"internalType":"bool","name":"exists","type":"bool"},{"internalType":"bool","name":"cancelled","type":"bool"},{"internalType":"enum ClockTowerSubscribe.Frequency","name":"frequency","type":"uint8"},{"internalType":"uint16","name":"dueDay","type":"uint16"}],"internalType":"struct ClockTowerSubscribe.Subscription","name":"subscription","type":"tuple"}],"stateMutability":"view","type":"function"},{"inputs":[{"internalType":"bytes32","name":"id","type":"bytes32"}],"name":"getSubscribersById","outputs":[{"components":[{"internalType":"address","name":"subscriber","type":"address"},{"internalType":"uint256","name":"feeBalance","type":"uint256"}],"internalType":"struct ClockTowerSubscribe.SubscriberView[]","name":"","type":"tuple[]"}],"stateMutability":"view","type":"function"},{"inputs":[],"name":"getTotalSubscribers","outputs":[{"internalType":"uint256","name":"","type":"uint256"}],"stateMutability":"view","type":"function"},{"inputs":[],"name":"maxRemits","outputs":[{"internalType":"uint256","name":"","type":"uint256"}],"stateMutability":"view","type":"function"},{"inputs":[],"name":"nextUncheckedDay","outputs":[{"internalType":"uint40","name":"","type":"uint40"}],"stateMutability":"view","type":"function"},{"inputs":[],"name":"remit","outputs":[],"stateMutability":"payable","type":"function"},{"inputs":[{"internalType":"address","name":"erc20Contract","type":"address"}],"name":"removeERC20Contract","outputs":[],"stateMutability":"nonpayable","type":"function"},{"inputs":[{"internalType":"bool","name":"status","type":"bool"}],"name":"setExternalCallers","outputs":[],"stateMutability":"nonpayable","type":"function"},{"inputs":[{"components":[{"internalType":"bytes32","name":"id","type":"bytes32"},{"internalType":"uint256","name":"amount","type":"uint256"},{"internalType":"address","name":"provider","type":"address"},{"internalType":"address","name":"token","type":"address"},{"internalType":"bool","name":"exists","type":"bool"},{"internalType":"bool","name":"cancelled","type":"bool"},{"internalType":"enum ClockTowerSubscribe.Frequency","name":"frequency","type":"uint8"},{"internalType":"uint16","name":"dueDay","type":"uint16"}],"internalType":"struct ClockTowerSubscribe.Subscription","name":"subscription","type":"tuple"}],"name":"subscribe","outputs":[],"stateMutability":"payable","type":"function"},{"inputs":[],"name":"systemFee","outputs":[{"internalType":"uint256","name":"","type":"uint256"}],"stateMutability":"view","type":"function"},{"inputs":[{"internalType":"bool","name":"status","type":"bool"}],"name":"systemFeeActivate","outputs":[],"stateMutability":"nonpayable","type":"function"},{"inputs":[{"components":[{"internalType":"bytes32","name":"id","type":"bytes32"},{"internalType":"uint256","name":"amount","type":"uint256"},{"internalType":"address","name":"provider","type":"address"},{"internalType":"address","name":"token","type":"address"},{"internalType":"bool","name":"exists","type":"bool"},{"internalType":"bool","name":"cancelled","type":"bool"},{"internalType":"enum ClockTowerSubscribe.Frequency","name":"frequency","type":"uint8"},{"internalType":"uint16","name":"dueDay","type":"uint16"}],"internalType":"struct ClockTowerSubscribe.Subscription","name":"subscription","type":"tuple"}],"name":"unsubscribe","outputs":[],"stateMutability":"payable","type":"function"},{"inputs":[{"components":[{"internalType":"bytes32","name":"id","type":"bytes32"},{"internalType":"uint256","name":"amount","type":"uint256"},{"internalType":"address","name":"provider","type":"address"},{"internalType":"address","name":"token","type":"address"},{"internalType":"bool","name":"exists","type":"bool"},{"internalType":"bool","name":"cancelled","type":"bool"},{"internalType":"enum ClockTowerSubscribe.Frequency","name":"frequency","type":"uint8"},{"internalType":"uint16","name":"dueDay","type":"uint16"}],"internalType":"struct ClockTowerSubscribe.Subscription","name":"subscription","type":"tuple"},{"internalType":"address","name":"subscriber","type":"address"}],"name":"unsubscribeByProvider","outputs":[],"stateMutability":"nonpayable","type":"function"},{"stateMutability":"payable","type":"receive"}],"evm":{"bytecode":{"linkReferences":{},"object":"6080604052604051616184380380616184833981016040819052610022916100c4565b6000859055600184905560028381556006805460ff60d81b1916600160d81b85151502179055610051426100af565b61005b919061012e565b600680546001600160a01b03909316660100000000000002600160301b600160d01b031964ffffffffff939093166101000292909216610100600160d01b0319909316929092171790555061019192505050565b60006100be6201518083610159565b92915050565b600080600080600060a086880312156100dc57600080fd5b85516020870151604088015160608901519297509095509350801515811461010357600080fd5b60808701519092506001600160a01b038116811461012057600080fd5b809150509295509295909350565b64ffffffffff82811682821603908111156100be57634e487b7160e01b600052601160045260246000fd5b600064ffffffffff83168061017e57634e487b7160e01b600052601260045260246000fd5b8064ffffffffff84160491505092915050565b615fe4806101a06000396000f3fe6080604052600436106101b95760003560e01c80638f283970116100eb578063cab1c9651161008f578063ebec6eaa11610061578063ebec6eaa1461054a578063ed601d2814610582578063f4a2a200146105a2578063fbcbc0f1146105da57005b8063cab1c965146104b9578063d10f9e69146104cf578063da854a96146104ef578063e63d35be1461052857005b8063b25ae32c116100c8578063b25ae32c146103e9578063b4761de9146103fe578063bd7438861461041e578063c8796572146104a457005b80638f28397014610389578063907cedb2146103a95780639889552e146103c957005b80633c95dad51161015d5780637bbf5a6e1161012f5780637bbf5a6e146102ef57806386525a001461031c57806387d888d3146103495780638ef0ef1c1461036957005b80633c95dad5146102a157806344e49769146102b45780634a1268b8146102c75780637507ba39146102e757005b80631f17ee55116101965780631f17ee551461021557806327ea97731461023e5780632d23f7e71461025e57806334d441d01461028b57005b8063053149fa146101c25780630b8590c7146101e25780630bec99e8146101f557005b366101c057005b005b3480156101ce57600080fd5b506101c06101dd36600461524a565b610607565b6101c06101f03660046152a7565b61069b565b34801561020157600080fd5b506101c0610210366004615322565b610b64565b34801561022157600080fd5b5061022b60015481565b6040519081526020015b60405180910390f35b34801561024a57600080fd5b506101c0610259366004615322565b610b71565b34801561026a57600080fd5b5061027e61027936600461533b565b610b7e565b604051610235919061541d565b34801561029757600080fd5b5061022b60005481565b6101c06102af36600461542c565b610d56565b6101c06102c236600461555d565b61143d565b3480156102d357600080fd5b506101c06102e236600461557a565b611826565b6101c0611905565b3480156102fb57600080fd5b5061030f61030a366004615322565b6127fd565b60405161023591906155c2565b34801561032857600080fd5b5061033c61033736600461561a565b6129f3565b6040516102359190615663565b34801561035557600080fd5b506101c061036436600461542c565b612dea565b34801561037557600080fd5b506101c0610384366004615322565b613845565b34801561039557600080fd5b506101c06103a436600461524a565b613852565b3480156103b557600080fd5b506101c06103c43660046156c6565b6138b1565b3480156103d557600080fd5b506101c06103e43660046156f5565b613d25565b3480156103f557600080fd5b5060085461022b565b34801561040a57600080fd5b506101c06104193660046156f5565b613d4b565b34801561042a57600080fd5b5061047061043936600461524a565b6005602052600090815260409020805460018201546002909201546001600160a01b03909116919060ff8082169161010090041684565b604080516001600160a01b039095168552602085019390935260ff9091169183019190915215156060820152608001610235565b3480156104b057600080fd5b506101c0613d71565b3480156104c557600080fd5b5061022b60025481565b3480156104db57600080fd5b506101c06104ea366004615712565b613dd4565b3480156104fb57600080fd5b5060065461051290610100900464ffffffffff1681565b60405164ffffffffff9091168152602001610235565b34801561053457600080fd5b5061053d613e86565b6040516102359190615757565b34801561055657600080fd5b5061022b6105653660046157a4565b600960209081526000928352604080842090915290825290205481565b34801561058e57600080fd5b506101c061059d366004615858565b614328565b3480156105ae57600080fd5b506105c26105bd366004615322565b614396565b6040516001600160a01b039091168152602001610235565b3480156105e657600080fd5b506105fa6105f536600461524a565b6143c0565b6040516102359190615a1d565b61060f6145ea565b6001600160a01b03811661062257600080fd5b61062b81614633565b6106605760405162461bcd60e51b81526020600482015260016024820152601960f91b60448201526064015b60405180910390fd5b6001600160a01b0316600090815260056020526040812080546001600160a01b03191681556001810191909155600201805461ffff19169055565b6106a361466a565b6001600160a01b0384166106dd5760405162461bcd60e51b81526020600482015260016024820152600760fb1b6044820152606401610657565b600654600160d81b900460ff1615610725573460015411156107255760405162461bcd60e51b81526020600482015260016024820152603560f81b6044820152606401610657565b61072e84614633565b61075e5760405162461bcd60e51b81526020600482015260016024820152603960f81b6044820152606401610657565b600082600381111561077257610772615377565b036107c1578061ffff166000108015610790575060078161ffff1611155b6107c15760405162461bcd60e51b8152602060048201526002602482015261191b60f11b6044820152606401610657565b60018260038111156107d5576107d5615377565b03610824578061ffff1660001080156107f35750601c8161ffff1611155b6108245760405162461bcd60e51b8152602060048201526002602482015261323760f01b6044820152606401610657565b600282600381111561083857610838615377565b03610887578061ffff1660001080156108565750605a8161ffff1611155b6108875760405162461bcd60e51b8152602060048201526002602482015261064760f31b6044820152606401610657565b600382600381111561089b5761089b615377565b036108eb578061ffff1660001080156108ba575061016d8161ffff1611155b6108eb5760405162461bcd60e51b8152602060048201526002602482015261323960f01b6044820152606401610657565b6001600160a01b03841660009081526005602052604090206001015485101561093b5760405162461bcd60e51b8152602060048201526002602482015261033360f41b6044820152606401610657565b60006109498686858561469b565b905080600a600085600381111561096257610962615377565b81526020808201929092526040908101600090812061ffff87168252835281812080546001818101835591835291849020855160049093020191825592840151928101929092558201516002820180546001600160a01b039283166001600160a01b0319909116179055606083015160038084018054608087015160a08801511515600160a81b0260ff60a81b19911515600160a01b0274ffffffffffffffffffffffffffffffffffffffffff199093169590961694909417179283168417815560c086015193909260ff60b01b1990911661ffff60a81b199091161790600160b01b908490811115610a5757610a57615377565b021790555060e0918201516003918201805461ffff60b81b1916600160b81b61ffff93841602179055604080516080810182528551815293850151909116602084015260c0840151610ac7939291830191811115610ab757610ab7615377565b8152602001600090526001614786565b805164ffffffffff42169033907f93cda0785d40b289a535b99dc76d4c9cbb6d8146182861ac3ad40509398b1865610aff8880615a7e565b610b0c60208b018b615a7e565b604051610b1c9493929190615af5565b60405180910390a48051606082015160405160009233929091600080516020615f8f83398151915291610b549142918d918890615b37565b60405180910390a4505050505050565b610b6c6145ea565b600155565b610b796145ea565b600255565b6040805161010081018252600080825260208201819052918101829052606081018290526080810182905260a0810182905260c0810182905260e0810182905290600a81856003811115610bd457610bd4615377565b815260200190815260200160002060008461ffff1661ffff168152602001908152602001600020805480602002602001604051908101604052809291908181526020016000905b82821015610cf25760008481526020908190206040805161010081018252600486029092018054835260018101549383019390935260028301546001600160a01b0390811691830191909152600380840154918216606084015260ff600160a01b8304811615156080850152600160a81b83048116151560a085015292939260c0850192600160b01b90041690811115610cb757610cb7615377565b6003811115610cc857610cc8615377565b81526003919091015461ffff600160b81b9091041660209182015290825260019092019101610c1b565b50505050905060005b8151811015610d4d5785828281518110610d1757610d17615b68565b60200260200101516000015103610d4557818181518110610d3a57610d3a615b68565b602002602001015192505b600101610cfb565b50509392505050565b610d5e61466a565b610d8b8135610d74610100840160e08501615b7e565b610d8460e0850160c08601615b99565b6000614936565b610dbb5760405162461bcd60e51b81526020600482015260016024820152603760f81b6044820152606401610657565b610dfc602082013560056000610dd7608086016060870161524a565b6001600160a01b0316815260208101919091526040016000206002015460ff166149c1565b610e0c608083016060840161524a565b604051636eb1769f60e11b81523360048201523060248201526001600160a01b03919091169063dd62ed3e906044016020604051808303816000875af1158015610e5a573d6000803e3d6000fd5b505050506040513d601f19601f82011682018060405250810190610e7e9190615bb4565b10158015610f225750610ea3602082013560056000610dd7608086016060870161524a565b610eb3608083016060840161524a565b6040516370a0823160e01b81523360048201526001600160a01b0391909116906370a08231906024016020604051808303816000875af1158015610efb573d6000803e3d6000fd5b505050506040513d601f19601f82011682018060405250810190610f1f9190615bb4565b10155b610f535760405162461bcd60e51b8152602060048201526002602482015261032360f41b6044820152606401610657565b610f63606082016040830161524a565b6001600160a01b03163303610f9e5760405162461bcd60e51b81526020600482015260016024820152600360fc1b6044820152606401610657565b80356000818152600b6020908152604080832080546001810182559084529282902090920180546001600160a01b03191633179055815160808101909252918152611030918101610ff6610100850160e08601615b7e565b61ffff16815260200161100f60e0850160c08601615b99565b600381111561102057611020615377565b8152602001600090526000614786565b602081013560018061104860e0850160c08601615b99565b600381111561105957611059615377565b14806110855750600061107260e0850160c08601615b99565b600381111561108357611083615377565b145b156110d1576110ca4261109f610100860160e08701615b7e565b61ffff16846110b460e0880160c08901615b99565b60038111156110c5576110c5615377565b614a34565b9150611177565b60026110e360e0850160c08601615b99565b60038111156110f4576110f4615377565b036111265761110e4261109f610100860160e08701615b7e565b915061111b600383615bf9565b915060029050611177565b600361113860e0850160c08601615b99565b600381111561114957611149615377565b03611177576111634261109f610100860160e08701615b7e565b9150611170600c83615bf9565b9150600b90505b82356000908152600960209081526040808320338452909152812080548492906111a2908490615c0d565b909155503390506111b9606085016040860161524a565b6001600160a01b03168435600080516020615f8f8339815191524260208801356111e960808a0160608b0161524a565b60066040516111fb9493929190615b37565b60405180910390a433611214606085016040860161524a565b6001600160a01b03168435600080516020615f8f833981519152428661124060808a0160608b0161524a565b60086040516112529493929190615b37565b60405180910390a461126a608084016060850161524a565b6001600160a01b03166323b872dd33306112928660056000610dd760808c0160608d0161524a565b6040516001600160e01b031960e086901b1681526001600160a01b03938416600482015292909116602483015260448201526064016020604051808303816000875af11580156112e6573d6000803e3d6000fd5b505050506040513d601f19601f8201168201806040525081019061130a9190615c20565b61131357600080fd5b600261132560e0850160c08601615b99565b600381111561133657611336615377565b14806113625750600361134f60e0850160c08601615b99565b600381111561136057611360615377565b145b1561143857611377608084016060850161524a565b6001600160a01b03166323b872dd33611396606087016040880161524a565b6113b76113a38688615c3d565b60056000610dd760808c0160608d0161524a565b6040516001600160e01b031960e086901b1681526001600160a01b03938416600482015292909116602483015260448201526064016020604051808303816000875af115801561140b573d6000803e3d6000fd5b505050506040513d601f19601f8201168201806040525081019061142f9190615c20565b61143857600080fd5b505050565b61144561466a565b3360009081526007602052604081206001015467ffffffffffffffff81111561147057611470615448565b6040519080825280602002602001820160405280156114cb57816020015b6114b860408051608081018252600080825260208201819052909182019081526020016000905290565b81526020019060019003908161148e5790505b50336000908152600760209081526040808320600101805482518185028101850190935280835294955090939092909184015b828210156115b4576000848152602090819020604080516080810182526002860290920180548352600181015461ffff81169484019490945291929083019062010000900460ff16600381111561155757611557615377565b600381111561156857611568615377565b81526020016001820160039054906101000a900460ff16600281111561159057611590615377565b60028111156115a1576115a1615377565b81525050815260200190600101906114fe565b5050336000908152600760205260408120600101549394509150505b818110156116685783600001518382815181106115ef576115ef615b68565b60200260200101516000015103611660573360009081526007602052604090206001018054600291908390811061162857611628615b68565b906000526020600020906002020160010160036101000a81548160ff0219169083600281111561165a5761165a615377565b02179055505b6001016115d0565b5082516116759033614c7d565b336001600160a01b031683604001516001600160a01b03168460000151600080516020615f8f833981519152428760200151886060015160076040516116be9493929190615b37565b60405180910390a4825160009081526009602081815260408084203380865290835281852054885186529383528185208186529092528084209390935582860151865160608801519451939492936001600160a01b03909216929091600080516020615f8f8339815191529161173a9142918891600490615b37565b60405180910390a460608401516040808601516001600160a01b03909216600081815260056020529190912060020154909163a9059cbb9161178090859060ff166149c1565b6040516001600160e01b031960e085901b1681526001600160a01b03909216600483015260248201526044016020604051808303816000875af11580156117cb573d6000803e3d6000fd5b505050506040513d601f19601f820116820180604052508101906117ef9190615c20565b6118205760405162461bcd60e51b8152602060048201526002602482015261323160f01b6044820152606401610657565b50505050565b61182e6145ea565b6001600160a01b03831661184157600080fd5b61184a83614633565b1561187b5760405162461bcd60e51b81526020600482015260016024820152603160f81b6044820152606401610657565b604080516080810182526001600160a01b03948516808252602080830195865260ff9485168385019081526001606085018181526000948552600590935294909220925183546001600160a01b031916971696909617825593519181019190915591516002909201805493519290911661ffff199093169290921761010091151591909102179055565b600654600160d01b900460ff1661191e5761191e6145ea565b600654600160d81b900460ff1615611966573460015411156119665760405162461bcd60e51b81526020600482015260016024820152603560f81b6044820152606401610657565b600061197142614dc3565b60065490915064ffffffffff610100909104811690821610156119bb5760405162461bcd60e51b81526020600482015260026024820152610c4d60f21b6044820152606401610657565b6040805160c081018252600080825260208201819052918101829052606081018290526080810182905260a081019190915260019060065464ffffffffff8481166101009092041614611a3b57600654611a3490611a2890610100900464ffffffffff1662015180615c54565b64ffffffffff16614dd2565b9050611a47565b611a4442614dd2565b90505b6000805b6003811161274357600081611a61575060208301515b60018203611a6d575082515b60028203611a7c575060408301515b60038203611a8b575060608301515b6000828152600a6020908152604080832061ffff85168452909152812054905b8181101561272d576000848152600a6020908152604080832061ffff87168452909152812080549198509082908110611ae657611ae6615b68565b906000526020600020906004020160030160159054906101000a900460ff1661272557604080516080810182526000868152600a602090815283822061ffff881683529052918220805482919085908110611b4357611b43615b68565b600091825260208083206004909202909101548352888252600a8152604080832061ffff8a16845282529091208054929091019185908110611b8757611b87615b68565b60009182526020808320600360049093020191909101546001600160a01b03168352888252600a8152604080832061ffff8a16845282529091208054929091019185908110611bd857611bd8615b68565b60009182526020808320600260049093020191909101546001600160a01b03168352888252600a8152604080832061ffff8a1684528252822080549390910192600592919087908110611c2d57611c2d615b68565b60009182526020808320600360049093020191909101546001600160a01b0316835282810193909352604091820181206002015460ff16909352888352600a825280832061ffff89168452909152812080549293509091611cb5919085908110611c9957611c99615b68565b90600052602060002090600402016001015483606001516149c1565b905060008161271060005484611ccb9190615c3d565b611cd59190615bf9565b611cdf9190615c74565b83516000908152600b602052604081205491925090818115611d0957611d06600183615c74565b90505b60005b8281101561271d576002548c03611e7457604080518082019091528751808252602091820183905260035560048290556006805460ff1916905587015160608801516001600160a01b039091169063a9059cbb903390611d6d9088906149c1565b6040516001600160e01b031960e085901b1681526001600160a01b03909216600483015260248201526044016020604051808303816000875af1158015611db8573d6000803e3d6000fd5b505050506040513d601f19601f82011682018060405250810190611ddc9190615c20565b611e0d5760405162461bcd60e51b8152602060048201526002602482015261191960f11b6044820152606401610657565b6006546040805164ffffffffff428116825261010090930492909216602083015260009082015233907f90192d7875364a53e351ae63fd2dfef8dc941735b29fb0c504d06a0e21ae602e9060600160405180910390a2505050505050505050505050505050565b6003548751148015611e87575060045481145b15611e9a576006805460ff191660011790555b6003541580611eb0575060065460ff1615156001145b156127155786516000908152600b60205260408120805483908110611ed757611ed7615b68565b6000918252602091829020015490890151604051636eb1769f60e11b81526001600160a01b0392831660048201819052306024830152935089929091169063dd62ed3e906044016020604051808303816000875af1158015611f3d573d6000803e3d6000fd5b505050506040513d601f19601f82011682018060405250810190611f619190615bb4565b10158015611fde575060208801516040516370a0823160e01b81526001600160a01b038381166004830152899216906370a08231906024016020604051808303816000875af1158015611fb8573d6000803e3d6000fd5b505050506040513d601f19601f82011682018060405250810190611fdc9190615bb4565b115b15612415578c611fed81615c87565b895160009081526009602090815260408083206001600160a01b0387168452909152902054909e508710159050612196576120288686615c0d565b885160009081526009602090815260408083206001600160a01b0386168452909152812080549297508892909190612061908490615c74565b92505081905550806001600160a01b031688604001516001600160a01b03168960000151600080516020615f8f833981519152428b8d6020015160056040516120ad9493929190615b37565b60405180910390a4806001600160a01b031688604001516001600160a01b03168960000151600080516020615f8f8339815191524260008d6020015160026040516120fb9493929190615b37565b60405180910390a460208801516040808a015190516323b872dd60e01b81526001600160a01b0384811660048301529182166024820152604481018a90529116906323b872dd906064016020604051808303816000875af1158015612164573d6000803e3d6000fd5b505050506040513d601f19601f820116820180604052508101906121889190615c20565b61219157600080fd5b61263d565b875160009081526009602090815260408083206001600160a01b03851684529091529020546121c59086615c0d565b885160009081526009602090815260408083206001600160a01b0380871680865291845282852094909455818d01518d51938e01519251959a509094931692600080516020615f8f833981519152916122249142918e91600890615b37565b60405180910390a486600160028e900361224e57612243600383615bf9565b915060029050612268565b8d60030361226857612261600c83615bf9565b9150600b90505b895160009081526009602090815260408083206001600160a01b03871684529091528120805484929061229c908490615c0d565b9250508190555089602001516001600160a01b03166323b872dd84306122c6868f606001516149c1565b6040516001600160e01b031960e086901b1681526001600160a01b03938416600482015292909116602483015260448201526064016020604051808303816000875af115801561231a573d6000803e3d6000fd5b505050506040513d601f19601f8201168201806040525081019061233e9190615c20565b61234757600080fd5b8d6002148061235657508d6003145b1561240e5789602001516001600160a01b03166323b872dd848c6040015161238d85876123839190615c3d565b8f606001516149c1565b6040516001600160e01b031960e086901b1681526001600160a01b03938416600482015292909116602483015260448201526064016020604051808303816000875af11580156123e1573d6000803e3d6000fd5b505050506040513d601f19601f820116820180604052508101906124059190615c20565b61240e57600080fd5b505061263d565b8c61241f81615c87565b895160009081526009602090815260408083206001600160a01b0387168452909152902054909e5087101590506125955761245a8686615c0d565b885160009081526009602090815260408083206001600160a01b03861684529091528120549196509061248e908890615c74565b895160009081526009602090815260408083206001600160a01b0380881680865291845282852094909455818e01518e51938f015192519596509094931692600080516020615f8f833981519152916124ed9142918891600490615b37565b60405180910390a488602001516001600160a01b031663a9059cbb8a6040015161251b848d606001516149c1565b6040516001600160e01b031960e085901b1681526001600160a01b03909216600483015260248201526044016020604051808303816000875af1158015612566573d6000803e3d6000fd5b505050506040513d601f19601f8201168201806040525081019061258a9190615c20565b61259357600080fd5b505b87516125a19082614c7d565b806001600160a01b031688604001516001600160a01b03168960000151600080516020615f8f833981519152428b8d6020015160076040516125e69493929190615b37565b60405180910390a4806001600160a01b031688604001516001600160a01b03168960000151600080516020615f8f8339815191524260008d6020015160036040516126349493929190615b37565b60405180910390a45b828214801561264c5750600084115b156127135787602001516001600160a01b031663a9059cbb33612673888c606001516149c1565b6040516001600160e01b031960e085901b1681526001600160a01b03909216600483015260248201526044016020604051808303816000875af11580156126be573d6000803e3d6000fd5b505050506040513d601f19601f820116820180604052508101906126e29190615c20565b6127135760405162461bcd60e51b8152602060048201526002602482015261191960f11b6044820152606401610657565b505b600101611d0c565b505050505050505b600101611aab565b505050808061273b90615c87565b915050611a4b565b50600060038190556004556006805460ff1916908190556040805164ffffffffff4281168252610100909304909216602083015260019082015233907f90192d7875364a53e351ae63fd2dfef8dc941735b29fb0c504d06a0e21ae602e9060600160405180910390a26001600660018282829054906101000a900464ffffffffff166127cf9190615ca0565b92506101000a81548164ffffffffff021916908364ffffffffff160217905550821561182057611820611905565b6000818152600b60205260408120546060919067ffffffffffffffff81111561282857612828615448565b604051908082528060200260200182016040528015612851578160200160208202803683370190505b506000848152600b602090815260409182902080548351818402810184019094528084529394509192908301828280156128b457602002820191906000526020600020905b81546001600160a01b03168152600190910190602001808311612896575b5050506000868152600b60205260408120549394509291505067ffffffffffffffff8111156128e5576128e5615448565b60405190808252806020026020018201604052801561292a57816020015b60408051808201909152600080825260208201528152602001906001900390816129035790505b50905060005b82518110156129eb5760008581526009602052604081208451829086908590811061295d5761295d615b68565b60200260200101516001600160a01b03166001600160a01b03168152602001908152602001600020549050600060405180604001604052808685815181106129a7576129a7615b68565b60200260200101516001600160a01b03168152602001838152509050808484815181106129d6576129d6615b68565b60209081029190910101525050600101612930565b509392505050565b6060808315612af3576001600160a01b038316600090815260076020908152604080832060010180548251818502810185019093528083529193909284015b82821015612ae8576000848152602090819020604080516080810182526002860290920180548352600181015461ffff81169484019490945291929083019062010000900460ff166003811115612a8b57612a8b615377565b6003811115612a9c57612a9c615377565b81526020016001820160039054906101000a900460ff166002811115612ac457612ac4615377565b6002811115612ad557612ad5615377565b8152505081526020019060010190612a32565b505050509050612be6565b6001600160a01b038316600090815260076020908152604080832060020180548251818502810185019093528083529193909284015b82821015612bdf576000848152602090819020604080516080810182526002860290920180548352600181015461ffff81169484019490945291929083019062010000900460ff166003811115612b8257612b82615377565b6003811115612b9357612b93615377565b81526020016001820160039054906101000a900460ff166002811115612bbb57612bbb615377565b6002811115612bcc57612bcc615377565b8152505081526020019060010190612b29565b5050505090505b6000815167ffffffffffffffff811115612c0257612c02615448565b604051908082528060200260200182016040528015612c8857816020015b60408051610160810182526000606082018181526080830182905260a0830182905260c0830182905260e0830182905261010083018290526101208301829052610140830182905282526020808301829052928201528252600019909201910181612c205790505b50905060005b8251811015612ddf57612cf9838281518110612cac57612cac615b68565b602002602001015160000151848381518110612cca57612cca615b68565b602002602001015160400151858481518110612ce857612ce8615b68565b602002602001015160200151610b7e565b828281518110612d0b57612d0b615b68565b602002602001015160000181905250828181518110612d2c57612d2c615b68565b602002602001015160600151828281518110612d4a57612d4a615b68565b6020026020010151602001906002811115612d6757612d67615377565b90816002811115612d7a57612d7a615377565b81525050600b6000838381518110612d9457612d94615b68565b60200260200101516000015160000151815260200190815260200160002080549050828281518110612dc857612dc8615b68565b602090810291909101015160400152600101612c8e565b509150505b92915050565b612df261466a565b612e088135610d74610100840160e08501615b7e565b612e385760405162461bcd60e51b81526020600482015260016024820152603760f81b6044820152606401610657565b612e48606082016040830161524a565b6001600160a01b0316336001600160a01b031614612e8d5760405162461bcd60e51b8152602060048201526002602482015261323360f01b6044820152606401610657565b33600090815260076020908152604080832060020180548251818502810185019093528083529192909190849084015b82821015612f73576000848152602090819020604080516080810182526002860290920180548352600181015461ffff81169484019490945291929083019062010000900460ff166003811115612f1657612f16615377565b6003811115612f2757612f27615377565b81526020016001820160039054906101000a900460ff166002811115612f4f57612f4f615377565b6002811115612f6057612f60615377565b8152505081526020019060010190612ebd565b5050336000908152600760205260408120600201549394509150505b81811015613027578360000135838281518110612fae57612fae615b68565b6020026020010151600001510361301f5733600090815260076020526040902060020180546001919083908110612fe757612fe7615b68565b906000526020600020906002020160010160036101000a81548160ff0219169083600281111561301957613019615377565b02179055505b600101612f8f565b5082356000908152600b602090815260408083208054825181850281018501909352808352919290919083018282801561308a57602002820191906000526020600020905b81546001600160a01b0316815260019091019060200180831161306c575b5050505050905060005b81518110156135ca5784356000908152600960205260408120835182908590859081106130c3576130c3615b68565b60200260200101516001600160a01b03166001600160a01b0316815260200190815260200160002054905082828151811061310057613100615b68565b60200260200101516001600160a01b0316866040016020810190613124919061524a565b6001600160a01b03168735600080516020615f8f833981519152428561315060808d0160608e0161524a565b60096040516131629493929190615b37565b60405180910390a485356000908152600960205260408120845190919085908590811061319157613191615b68565b60200260200101516001600160a01b03166001600160a01b03168152602001908152602001600020600090558560600160208101906131d0919061524a565b6001600160a01b031663a9059cbb8484815181106131f0576131f0615b68565b602002602001015161321384600560008c6060016020810190610dd7919061524a565b6040516001600160e01b031960e085901b1681526001600160a01b03909216600483015260248201526044016020604051808303816000875af115801561325e573d6000803e3d6000fd5b505050506040513d601f19601f820116820180604052508101906132829190615c20565b6132b35760405162461bcd60e51b8152602060048201526002602482015261323160f01b6044820152606401610657565b6000600760008585815181106132cb576132cb615b68565b60200260200101516001600160a01b03166001600160a01b031681526020019081526020016000206001018054905067ffffffffffffffff81111561331257613312615448565b60405190808252806020026020018201604052801561336d57816020015b61335a60408051608081018252600080825260208201819052909182019081526020016000905290565b8152602001906001900390816133305790505b5090506007600085858151811061338657613386615b68565b60200260200101516001600160a01b03166001600160a01b03168152602001908152602001600020600101805480602002602001604051908101604052809291908181526020016000905b82821015613487576000848152602090819020604080516080810182526002860290920180548352600181015461ffff81169484019490945291929083019062010000900460ff16600381111561342a5761342a615377565b600381111561343b5761343b615377565b81526020016001820160039054906101000a900460ff16600281111561346357613463615377565b600281111561347457613474615377565b81525050815260200190600101906133d1565b50505050905060005b600760008686815181106134a6576134a6615b68565b60200260200101516001600160a01b03166001600160a01b03168152602001908152602001600020600101805490508110156135985787600001358282815181106134f3576134f3615b68565b602002602001015160000151036135905760016007600087878151811061351c5761351c615b68565b60200260200101516001600160a01b03166001600160a01b03168152602001908152602001600020600101828154811061355857613558615b68565b906000526020600020906002020160010160036101000a81548160ff0219169083600281111561358a5761358a615377565b02179055505b600101613490565b506135c087600001358585815181106135b3576135b3615b68565b6020026020010151614c7d565b5050600101613094565b506000600a816135e060e0880160c08901615b99565b60038111156135f1576135f1615377565b815260200190815260200160002060008660e00160208101906136149190615b7e565b61ffff1661ffff168152602001908152602001600020805480602002602001604051908101604052809291908181526020016000905b828210156137215760008481526020908190206040805161010081018252600486029092018054835260018101549383019390935260028301546001600160a01b0390811691830191909152600380840154918216606084015260ff600160a01b8304811615156080850152600160a81b83048116151560a085015292939260c0850192600160b01b900416908111156136e6576136e6615377565b60038111156136f7576136f7615377565b81526003919091015461ffff600160b81b909104166020918201529082526001909201910161364a565b50505050905060005b81518110156137fd57856000013582828151811061374a5761374a615b68565b602002602001015160000151036137f5576001600a600061377160e08a0160c08b01615b99565b600381111561378257613782615377565b815260200190815260200160002060008860e00160208101906137a59190615b7e565b61ffff1661ffff16815260200190815260200160002082815481106137cc576137cc615b68565b906000526020600020906004020160030160156101000a81548160ff0219169083151502179055505b60010161372a565b506000338635600080516020615f8f833981519152428461382460808c0160608d0161524a565b60016040516138369493929190615b37565b60405180910390a45050505050565b61384d6145ea565b600055565b61385a6145ea565b6001600160a01b03811661386d57600080fd5b600680546001600160a01b039092166601000000000000027fffffffffffff0000000000000000000000000000000000000000ffffffffffff909216919091179055565b6138b961466a565b33600090815260076020908152604080832060020180548251818502810185019093528083529192909190849084015b8282101561399f576000848152602090819020604080516080810182526002860290920180548352600181015461ffff81169484019490945291929083019062010000900460ff16600381111561394257613942615377565b600381111561395357613953615377565b81526020016001820160039054906101000a900460ff16600281111561397b5761397b615377565b600281111561398c5761398c615377565b81525050815260200190600101906138e9565b5050505090506000805b82518110156139e75784600001518382815181106139c9576139c9615b68565b602002602001015160000151036139df57600191505b6001016139a9565b5080613a1a5760405162461bcd60e51b8152602060048201526002602482015261062760f31b6044820152606401610657565b83516000908152600b6020908152604080832080548251818502810185019093528083529192909190830182828015613a7c57602002820191906000526020600020905b81546001600160a01b03168152600190910190602001808311613a5e575b505050505090506000805b8251811015613b3757856001600160a01b0316838281518110613aac57613aac615b68565b60200260200101516001600160a01b031603613b2f576001600160a01b03861660009081526007602052604090206001908101805491935060029183908110613af757613af7615b68565b906000526020600020906002020160010160036101000a81548160ff02191690836002811115613b2957613b29615377565b02179055505b600101613a87565b5080613b6a5760405162461bcd60e51b8152602060048201526002602482015261313960f01b6044820152606401610657565b8551613b769086614c7d565b846001600160a01b031686604001516001600160a01b03168760000151600080516020615f8f833981519152428a602001518b606001516007604051613bbf9493929190615b37565b60405180910390a4855160009081526009602081815260408084206001600160a01b03808b16808752918452828620548c51875285855283872083885290945282862095909555818b01518b5160608d015193519496929591909216939192600080516020615f8f83398151915292613c3e9242928992909190615b37565b60405180910390a460608701516001600160a01b031660008181526005602052604090206002015463a9059cbb908890613c7c90859060ff166149c1565b6040516001600160e01b031960e085901b1681526001600160a01b03909216600483015260248201526044016020604051808303816000875af1158015613cc7573d6000803e3d6000fd5b505050506040513d601f19601f82011682018060405250810190613ceb9190615c20565b613d1c5760405162461bcd60e51b8152602060048201526002602482015261323160f01b6044820152606401610657565b50505050505050565b613d2d6145ea565b60068054911515600160d81b0260ff60d81b19909216919091179055565b613d536145ea565b60068054911515600160d01b0260ff60d01b19909216919091179055565b613d796145ea565b611388471115613dd257600654660100000000000090046001600160a01b03166108fc613da861138847615c74565b6040518115909202916000818181858888f19350505050158015613dd0573d6000803e3d6000fd5b505b565b6000613ddf336143c0565b90508060200151156114385760005b816060015151811015611820578282606001518281518110613e1257613e12615b68565b60200260200101516000015103613e7e5764ffffffffff421633847f93cda0785d40b289a535b99dc76d4c9cbb6d8146182861ac3ad40509398b1865613e588880615a7e565b613e6560208b018b615a7e565b604051613e759493929190615af5565b60405180910390a45b600101613dee565b60606000613e9342614dc3565b60065490915064ffffffffff610100909104811690821611613edc5760405162461bcd60e51b81526020600482015260026024820152610c4d60f21b6044820152606401610657565b6000613ee742614dd2565b9050600080600060025467ffffffffffffffff811115613f0957613f09615448565b604051908082528060200260200182016040528015613f4e57816020015b6040805180820190915260008082526020820152815260200190600190039081613f275790505b50905060005b6003811161421957600081613f6a575060208501515b60018203613f76575084515b60028203613f85575060408501515b60038203613f94575060608501515b60005b6000838152600a6020908152604080832061ffff86168452909152902054811015614204576000838152600a6020908152604080832061ffff861684529091529020805482908110613feb57613feb615b68565b906000526020600020906004020160030160159054906101000a900460ff166141fc576000838152600a6020908152604080832061ffff86168452909152812080548390811061403d5761403d615b68565b60009182526020808320600490920290910154868352600a8252604080842061ffff881685529092529082208054919350908490811061407f5761407f615b68565b6000918252602080832060036004909302019190910154878352600a8252604080842061ffff8916855290925290822080546001600160a01b03909216935090859081106140cf576140cf615b68565b906000526020600020906004020160010154905061410960405180604001604052806000815260200160006001600160a01b031681525090565b6000826127106000548561411d9190615c3d565b6141279190615bf9565b6141319190615c74565b90506000805b6000878152600b60205260409020548110156141f4576002548d0361416a5750989e9d5050505050505050505050505050565b6003541580614180575060065460ff1615156001145b156141ec578c61418f81615c87565b9d5061419d90508383615c0d565b91506040518060400160405280838152602001876001600160a01b03168152509350838b8d815181106141d2576141d2615b68565b60200260200101819052508b806141e890615c87565b9c50505b600101614137565b505050505050505b600101613f97565b5050808061421190615c87565b915050613f54565b506000805b825181101561426e5760006001600160a01b031683828151811061424457614244615b68565b6020026020010151602001516001600160a01b0316036142665780915061426e565b60010161421e565b5060008167ffffffffffffffff81111561428a5761428a615448565b6040519080825280602002602001820160405280156142cf57816020015b60408051808201909152600080825260208201528152602001906001900390816142a85790505b50905060005b8281101561431c578381815181106142ef576142ef615b68565b602002602001015182828151811061430957614309615b68565b60209081029190910101526001016142d5565b50979650505050505050565b4264ffffffffff16336001600160a01b03167f34f43abf7a52b609b04511ed963a29ebb76ae3e0ca0ff5594be1c2a84ebd03f2836000015184602001518560400151866060015187608001518860a0015160405161438b96959493929190615d03565b60405180910390a350565b600881815481106143a657600080fd5b6000918252602090912001546001600160a01b0316905081565b60408051608081018252600080825260208201526060918101829052818101919091526001600160a01b038281166000908152600760209081526040808320815160808101835281549586168152600160a01b90950460ff1615158584015260018101805483518186028101860185528181529295938701949293919290919084015b828210156144f9576000848152602090819020604080516080810182526002860290920180548352600181015461ffff81169484019490945291929083019062010000900460ff16600381111561449c5761449c615377565b60038111156144ad576144ad615377565b81526020016001820160039054906101000a900460ff1660028111156144d5576144d5615377565b60028111156144e6576144e6615377565b8152505081526020019060010190614443565b50505050815260200160028201805480602002602001604051908101604052809291908181526020016000905b828210156145dc576000848152602090819020604080516080810182526002860290920180548352600181015461ffff81169484019490945291929083019062010000900460ff16600381111561457f5761457f615377565b600381111561459057614590615377565b81526020016001820160039054906101000a900460ff1660028111156145b8576145b8615377565b60028111156145c9576145c9615377565b8152505081526020019060010190614526565b505050915250909392505050565b600654660100000000000090046001600160a01b03163314613dd25760405162461bcd60e51b8152602060048201526002602482015261189b60f11b6044820152606401610657565b6001600160a01b038116600090815260056020526040812060020154610100900460ff16614662576000612de4565b600192915050565b33613dd25760405162461bcd60e51b81526020600482015260016024820152603360f81b6044820152606401610657565b6040805161010081018252600080825260208201819052918101829052606081018290526080810182905260a0810182905260c0810182905260e08101919091526040516bffffffffffffffffffffffff193360601b16602082015244603482015242605482015260009060740160408051601f1981840301815282825280516020918201206101008401835280845290830189905233918301919091526001600160a01b038716606083015260016080830152600060a0830152915060c0810185600381111561476e5761476e615377565b81526020018461ffff16815250915050949350505050565b33600090815260076020526040812054600160a01b900460ff16151590036148145733600081815260076020526040812080546001600160a01b03199081168417825560088054600181019091557ff3f7a9fe364faab93b216da50a3214154f22a0a2b415b23a84c8169e8b636ee301805490911684179055919052805460ff60a01b1916600160a01b1790555b80156148c65733600090815260076020908152604080832060029081018054600180820183559186529484902087519590920290910193845591850151918301805461ffff19811661ffff909416938417825591860151869493909262ffffff1916176201000083600381111561488d5761488d615377565b0217905550606082015160018201805463ff000000191663010000008360028111156148bb576148bb615377565b021790555050505050565b33600090815260076020908152604080832060019081018054808301825590855293839020865160029095020193845591850151918301805461ffff19811661ffff909416938417825591860151869493909262ffffff1916176201000083600381111561488d5761488d615377565b60008060405180608001604052808781526020018661ffff16815260200185600381111561496657614966615377565b815260200184600281111561497d5761497d615377565b8152509050600061499b826000015183604001518460200151610b7e565b90508060800151156149b2576001925050506149b9565b6000925050505b949350505050565b6000601260ff83168110156149f7576149da8184615d85565b6149e590600a615e85565b6149ef9085615c3d565b915050612de4565b8060ff168360ff161015614a2457614a0f8382615d85565b614a1a90600a615e85565b6149ef9085615bf9565b83915050612de4565b5092915050565b600080614a4086614dd2565b905060008060008560ff16600003614a6657836020015161ffff16925060079150614aed565b8560ff16600103614a9d57614a8b846080015161ffff168560a0015161ffff16615069565b845161ffff1693509150819050614aed565b8560ff16600203614ad157614ac2846060015161ffff16856080015161ffff166150ef565b61ffff169250605a9150614aed565b8560ff16600303614aed57836060015161ffff16925061016d91505b8560ff16600103614ba857600061016d614b0889600c615c3d565b614b129190615bf9565b9050838964ffffffffff1614158015614b3157508864ffffffffff1684115b15614b6257614b4764ffffffffff8a1685615c74565b614b519084615c74565b614b5b9082615c3d565b9750614ba2565b838964ffffffffff1614158015614b7f57508864ffffffffff1684105b15614ba257614b958464ffffffffff8b16615c74565b614b9f9082615c3d565b97505b50614c70565b60ff86161580614bbb57508560ff166002145b80614bc957508560ff166003145b15614c7057828864ffffffffff1614158015614beb57508764ffffffffff1683115b15614c2657614c0164ffffffffff891684615c74565b614c0b9083615c74565b614c158389615bf9565b614c1f9190615c3d565b9650614c70565b828864ffffffffff1614158015614c4357508764ffffffffff1683105b15614c7057614c598364ffffffffff8a16615c74565b614c638389615bf9565b614c6d9190615c3d565b96505b5094979650505050505050565b6000828152600b602052604081208054909190815b81811015614d0b57846001600160a01b0316848281548110614cb657614cb6615b68565b6000918252602090912001546001600160a01b031603614d0357809250838181548110614ce557614ce5615b68565b600091825260209091200180546001600160a01b0319169055614d0b565b600101614c92565b5082548390614d1c90600190615c74565b81548110614d2c57614d2c615b68565b9060005260206000200160009054906101000a90046001600160a01b0316838381548110614d5c57614d5c615b68565b9060005260206000200160006101000a8154816001600160a01b0302191690836001600160a01b0316021790555082805480614d9a57614d9a615e94565b600082815260209020810160001990810180546001600160a01b03191690550190555050505050565b6000612de46201518083615eaa565b6040805160c081018252600080825260208201819052918101829052606081018290526080810182905260a0810182905290614e116201518084615bf9565b90506000808281614e258262010bd9615ed4565b614e329062253d8c615ed4565b9050600062023ab1614e45836004615efc565b614e4f9190615f2c565b90506004614e608262023ab1615efc565b614e6b906003615ed4565b614e759190615f2c565b614e7f9083615f5a565b9150600062164b09614e92846001615ed4565b614e9e90610fa0615efc565b614ea89190615f2c565b90506004614eb8826105b5615efc565b614ec29190615f2c565b614ecc9084615f5a565b614ed790601f615ed4565b9250600061098f614ee9856050615efc565b614ef39190615f2c565b905060006050614f058361098f615efc565b614f0f9190615f2c565b614f199086615f5a565b9050614f26600b83615f2c565b9450614f3385600c615efc565b614f3e836002615ed4565b614f489190615f5a565b91508483614f57603187615f5a565b614f62906064615efc565b614f6c9190615ed4565b614f769190615ed4565b909750915086828282600060015b838111614fd057838103614fa757614fa061ffff8e1683615c0d565b9150614fbe565b614fb18585615069565b614fbb9083615c0d565b91505b80614fc881615c87565b915050614f84565b50809a50614fe28b61ffff16856150ef565b61ffff1660408f0152614ff48f6151b3565b8e6020019061ffff16908161ffff16815250508b8e6000019061ffff16908161ffff16815250508a8e6060019061ffff16908161ffff1681525050838e6080019061ffff16908161ffff1681525050828e60a0019061ffff16908161ffff168152505050505050505050505050505050919050565b6000816001148061507a5750816003145b806150855750816005145b806150905750816007145b8061509b5750816008145b806150a6575081600a145b806150b1575081600c145b156150be5750601f612de4565b816002146150ce5750601e612de4565b6150d7836151e9565b6150e257601c6150e5565b601d5b60ff169392505050565b6000806150fb836151e9565b156151085750600161510c565b5060005b61511781605a615c0d565b841161512557839150614a2d565b8361513182605a615c0d565b10801561514857506151448160b5615c0d565b8411155b156151695761515881605a615c0d565b6151629085615c74565b9150614a2d565b836151758260b5615c0d565b10801561518d575061518981610111615c0d565b8411155b1561519d576151588160b5615c0d565b6151a981610111615c0d565b6149b99085615c74565b6000806151c36201518084615bf9565b9050600060076151d4836003615c0d565b6151de9190615f7a565b6149b9906001615c0d565b60006151f6600483615f7a565b15801561520c5750615209606483615f7a565b15155b80612de4575061521e61019083615f7a565b1592915050565b6001600160a01b0381168114613dd057600080fd5b803561524581615225565b919050565b60006020828403121561525c57600080fd5b813561526781615225565b9392505050565b60006040828403121561528057600080fd5b50919050565b80356004811061524557600080fd5b803561ffff8116811461524557600080fd5b600080600080600060a086880312156152bf57600080fd5b8535945060208601356152d181615225565b9350604086013567ffffffffffffffff8111156152ed57600080fd5b6152f98882890161526e565b93505061530860608701615286565b915061531660808701615295565b90509295509295909350565b60006020828403121561533457600080fd5b5035919050565b60008060006060848603121561535057600080fd5b8335925061536060208501615286565b915061536e60408501615295565b90509250925092565b634e487b7160e01b600052602160045260246000fd5b6004811061539d5761539d615377565b9052565b80518252602081015160208301526001600160a01b0360408201511660408301526001600160a01b03606082015116606083015260808101511515608083015260a08101516153f460a084018215159052565b5060c081015161540760c084018261538d565b5060e081015161143860e084018261ffff169052565b6101008101612de482846153a1565b600061010082840312801561544057600080fd5b509092915050565b634e487b7160e01b600052604160045260246000fd5b604051610100810167ffffffffffffffff8111828210171561548257615482615448565b60405290565b60405160c0810167ffffffffffffffff8111828210171561548257615482615448565b8015158114613dd057600080fd5b8035615245816154ab565b600061010082840312156154d757600080fd5b6154df61545e565b8235815260208084013590820152905060408201356154fd81615225565b604082015261550e6060830161523a565b606082015261551f608083016154b9565b608082015261553060a083016154b9565b60a082015261554160c08301615286565b60c082015261555260e08301615295565b60e082015292915050565b6000610100828403121561557057600080fd5b61526783836154c4565b60008060006060848603121561558f57600080fd5b833561559a81615225565b925060208401359150604084013560ff811681146155b757600080fd5b809150509250925092565b602080825282518282018190526000918401906040840190835b8181101561560f57835180516001600160a01b0316845260209081015181850152909301926040909201916001016155dc565b509095945050505050565b6000806040838503121561562d57600080fd5b8235615638816154ab565b9150602083013561564881615225565b809150509250929050565b6003811061539d5761539d615377565b602080825282518282018190526000918401906040840190835b8181101561560f5783516156928482516153a1565b60208101516156a5610100860182615653565b5060400151610120840152602093909301926101409092019160010161567d565b60008061012083850312156156da57600080fd5b6156e484846154c4565b915061010083013561564881615225565b60006020828403121561570757600080fd5b8135615267816154ab565b6000806040838503121561572557600080fd5b823567ffffffffffffffff81111561573c57600080fd5b6157488582860161526e565b95602094909401359450505050565b602080825282518282018190526000918401906040840190835b8181101561560f578351805184526020908101516001600160a01b03168185015290930192604090920191600101615771565b600080604083850312156157b757600080fd5b82359150602083013561564881615225565b600082601f8301126157da57600080fd5b813567ffffffffffffffff8111156157f4576157f4615448565b604051601f8201601f19908116603f0116810167ffffffffffffffff8111828210171561582357615823615448565b60405281815283820160200185101561583b57600080fd5b816020850160208301376000918101602001919091529392505050565b60006020828403121561586a57600080fd5b813567ffffffffffffffff81111561588157600080fd5b820160c0818503121561589357600080fd5b61589b615488565b813567ffffffffffffffff8111156158b257600080fd5b6158be868285016157c9565b825250602082013567ffffffffffffffff8111156158db57600080fd5b6158e7868285016157c9565b602083015250604082013567ffffffffffffffff81111561590757600080fd5b615913868285016157c9565b604083015250606082013567ffffffffffffffff81111561593357600080fd5b61593f868285016157c9565b606083015250608082013567ffffffffffffffff81111561595f57600080fd5b61596b868285016157c9565b60808301525060a082013567ffffffffffffffff81111561598b57600080fd5b615997868285016157c9565b60a083015250949350505050565b600081518084526020840193506020830160005b82811015615a135781518051875261ffff602082015116602088015260408101516159e7604089018261538d565b50606081015190506159fc6060880182615653565b5060809590950194602091909101906001016159b9565b5093949350505050565b602081526001600160a01b0382511660208201526020820151151560408201526000604083015160806060840152615a5860a08401826159a5565b90506060840151601f19848303016080850152615a7582826159a5565b95945050505050565b6000808335601e19843603018112615a9557600080fd5b83018035915067ffffffffffffffff821115615ab057600080fd5b602001915036819003821315615ac557600080fd5b9250929050565b81835281816020850137506000828201602090810191909152601f909101601f19169091010190565b604081526000615b09604083018688615acc565b8281036020840152615b1c818587615acc565b979650505050505050565b600a811061539d5761539d615377565b64ffffffffff85168152602081018490526001600160a01b038316604082015260808101615a756060830184615b27565b634e487b7160e01b600052603260045260246000fd5b600060208284031215615b9057600080fd5b61526782615295565b600060208284031215615bab57600080fd5b61526782615286565b600060208284031215615bc657600080fd5b5051919050565b634e487b7160e01b600052601260045260246000fd5b634e487b7160e01b600052601160045260246000fd5b600082615c0857615c08615bcd565b500490565b80820180821115612de457612de4615be3565b600060208284031215615c3257600080fd5b8151615267816154ab565b8082028115828204841417612de457612de4615be3565b64ffffffffff8181168382160290811690818114614a2d57614a2d615be3565b81810381811115612de457612de4615be3565b600060018201615c9957615c99615be3565b5060010190565b64ffffffffff8181168382160190811115612de457612de4615be3565b6000815180845260005b81811015615ce357602081850181015186830182015201615cc7565b506000602082860101526020601f19601f83011685010191505092915050565b60c081526000615d1660c0830189615cbd565b8281036020840152615d288189615cbd565b90508281036040840152615d3c8188615cbd565b90508281036060840152615d508187615cbd565b90508281036080840152615d648186615cbd565b905082810360a0840152615d788185615cbd565b9998505050505050505050565b60ff8281168282160390811115612de457612de4615be3565b6001815b6001841115615dd957808504811115615dbd57615dbd615be3565b6001841615615dcb57908102905b60019390931c928002615da2565b935093915050565b600082615df057506001612de4565b81615dfd57506000612de4565b8160018114615e135760028114615e1d57615e39565b6001915050612de4565b60ff841115615e2e57615e2e615be3565b50506001821b612de4565b5060208310610133831016604e8410600b8410161715615e5c575081810a612de4565b615e696000198484615d9e565b8060001904821115615e7d57615e7d615be3565b029392505050565b600061526760ff841683615de1565b634e487b7160e01b600052603160045260246000fd5b600064ffffffffff831680615ec157615ec1615bcd565b8064ffffffffff84160491505092915050565b8082018281126000831280158216821582161715615ef457615ef4615be3565b505092915050565b80820260008212600160ff1b84141615615f1857615f18615be3565b8181058314821517612de457612de4615be3565b600082615f3b57615f3b615bcd565b600160ff1b821460001984141615615f5557615f55615be3565b500590565b8181036000831280158383131683831282161715614a2d57614a2d615be3565b600082615f8957615f89615bcd565b50069056feca6b824caf1a48ea2ad039dbb063460fa30e9c3cc255eeb52240d638ec6de65ea264697066735822122069e698aafbb9d1bb7fa86dcbf0e00aeb36fc4b7b7228d4f428d1809f9e9d4d8764736f6c634300081a0033","opcodes":"PUSH1 0x80 PUSH1 0x40 MSTORE PUSH1 0x40 MLOAD PUSH2 0x6184 CODESIZE SUB DUP1 PUSH2 0x6184 DUP4 CODECOPY DUP2 ADD PUSH1 0x40 DUP2 SWAP1 MSTORE PUSH2 0x22 SWAP2 PUSH2 0xC4 JUMP JUMPDEST PUSH1 0x0 DUP6 SWAP1 SSTORE PUSH1 0x1 DUP5 SWAP1 SSTORE PUSH1 0x2 DUP4 DUP2 SSTORE PUSH1 0x6 DUP1 SLOAD PUSH1 0xFF PUSH1 0xD8 SHL NOT AND PUSH1 0x1 PUSH1 0xD8 SHL DUP6 ISZERO ISZERO MUL OR SWAP1 SSTORE PUSH2 0x51 TIMESTAMP PUSH2 0xAF JUMP JUMPDEST PUSH2 0x5B SWAP2 SWAP1 PUSH2 0x12E JUMP JUMPDEST PUSH1 0x6 DUP1 SLOAD PUSH1 0x1 PUSH1 0x1 PUSH1 0xA0 SHL SUB SWAP1 SWAP4 AND PUSH7 0x1000000000000 MUL PUSH1 0x1 PUSH1 0x30 SHL PUSH1 0x1 PUSH1 0xD0 SHL SUB NOT PUSH5 0xFFFFFFFFFF SWAP4 SWAP1 SWAP4 AND PUSH2 0x100 MUL SWAP3 SWAP1 SWAP3 AND PUSH2 0x100 PUSH1 0x1 PUSH1 0xD0 SHL SUB NOT SWAP1 SWAP4 AND SWAP3 SWAP1 SWAP3 OR OR SWAP1 SSTORE POP PUSH2 0x191 SWAP3 POP POP POP JUMP JUMPDEST PUSH1 0x0 PUSH2 0xBE PUSH3 0x15180 DUP4 PUSH2 0x159 JUMP JUMPDEST SWAP3 SWAP2 POP POP JUMP JUMPDEST PUSH1 0x0 DUP1 PUSH1 0x0 DUP1 PUSH1 0x0 PUSH1 0xA0 DUP7 DUP9 SUB SLT ISZERO PUSH2 0xDC JUMPI PUSH1 0x0 DUP1 REVERT JUMPDEST DUP6 MLOAD PUSH1 0x20 DUP8 ADD MLOAD PUSH1 0x40 DUP9 ADD MLOAD PUSH1 0x60 DUP10 ADD MLOAD SWAP3 SWAP8 POP SWAP1 SWAP6 POP SWAP4 POP DUP1 ISZERO ISZERO DUP2 EQ PUSH2 0x103 JUMPI PUSH1 0x0 DUP1 REVERT JUMPDEST PUSH1 0x80 DUP8 ADD MLOAD SWAP1 SWAP3 POP PUSH1 0x1 PUSH1 0x1 PUSH1 0xA0 SHL SUB DUP2 AND DUP2 EQ PUSH2 0x120 JUMPI PUSH1 0x0 DUP1 REVERT JUMPDEST DUP1 SWAP2 POP POP SWAP3 SWAP6 POP SWAP3 SWAP6 SWAP1 SWAP4 POP JUMP JUMPDEST PUSH5 0xFFFFFFFFFF DUP3 DUP2 AND DUP3 DUP3 AND SUB SWAP1 DUP2 GT ISZERO PUSH2 0xBE JUMPI PUSH4 0x4E487B71 PUSH1 0xE0 SHL PUSH1 0x0 MSTORE PUSH1 0x11 PUSH1 0x4 MSTORE PUSH1 0x24 PUSH1 0x0 REVERT JUMPDEST PUSH1 0x0 PUSH5 0xFFFFFFFFFF DUP4 AND DUP1 PUSH2 0x17E JUMPI PUSH4 0x4E487B71 PUSH1 0xE0 SHL PUSH1 0x0 MSTORE PUSH1 0x12 PUSH1 0x4 MSTORE PUSH1 0x24 PUSH1 0x0 REVERT JUMPDEST DUP1 PUSH5 0xFFFFFFFFFF DUP5 AND DIV SWAP2 POP POP SWAP3 SWAP2 POP POP JUMP JUMPDEST PUSH2 0x5FE4 DUP1 PUSH2 0x1A0 PUSH1 0x0 CODECOPY PUSH1 0x0 RETURN INVALID PUSH1 0x80 PUSH1 0x40 MSTORE PUSH1 0x4 CALLDATASIZE LT PUSH2 0x1B9 JUMPI PUSH1 0x0 CALLDATALOAD PUSH1 0xE0 SHR DUP1 PUSH4 0x8F283970 GT PUSH2 0xEB JUMPI DUP1 PUSH4 0xCAB1C965 GT PUSH2 0x8F JUMPI DUP1 PUSH4 0xEBEC6EAA GT PUSH2 0x61 JUMPI DUP1 PUSH4 0xEBEC6EAA EQ PUSH2 0x54A JUMPI DUP1 PUSH4 0xED601D28 EQ PUSH2 0x582 JUMPI DUP1 PUSH4 0xF4A2A200 EQ PUSH2 0x5A2 JUMPI DUP1 PUSH4 0xFBCBC0F1 EQ PUSH2 0x5DA JUMPI STOP JUMPDEST DUP1 PUSH4 0xCAB1C965 EQ PUSH2 0x4B9 JUMPI DUP1 PUSH4 0xD10F9E69 EQ PUSH2 0x4CF JUMPI DUP1 PUSH4 0xDA854A96 EQ PUSH2 0x4EF JUMPI DUP1 PUSH4 0xE63D35BE EQ PUSH2 0x528 JUMPI STOP JUMPDEST DUP1 PUSH4 0xB25AE32C GT PUSH2 0xC8 JUMPI DUP1 PUSH4 0xB25AE32C EQ PUSH2 0x3E9 JUMPI DUP1 PUSH4 0xB4761DE9 EQ PUSH2 0x3FE JUMPI DUP1 PUSH4 0xBD743886 EQ PUSH2 0x41E JUMPI DUP1 PUSH4 0xC8796572 EQ PUSH2 0x4A4 JUMPI STOP JUMPDEST DUP1 PUSH4 0x8F283970 EQ PUSH2 0x389 JUMPI DUP1 PUSH4 0x907CEDB2 EQ PUSH2 0x3A9 JUMPI DUP1 PUSH4 0x9889552E EQ PUSH2 0x3C9 JUMPI STOP JUMPDEST DUP1 PUSH4 0x3C95DAD5 GT PUSH2 0x15D JUMPI DUP1 PUSH4 0x7BBF5A6E GT PUSH2 0x12F JUMPI DUP1 PUSH4 0x7BBF5A6E EQ PUSH2 0x2EF JUMPI DUP1 PUSH4 0x86525A00 EQ PUSH2 0x31C JUMPI DUP1 PUSH4 0x87D888D3 EQ PUSH2 0x349 JUMPI DUP1 PUSH4 0x8EF0EF1C EQ PUSH2 0x369 JUMPI STOP JUMPDEST DUP1 PUSH4 0x3C95DAD5 EQ PUSH2 0x2A1 JUMPI DUP1 PUSH4 0x44E49769 EQ PUSH2 0x2B4 JUMPI DUP1 PUSH4 0x4A1268B8 EQ PUSH2 0x2C7 JUMPI DUP1 PUSH4 0x7507BA39 EQ PUSH2 0x2E7 JUMPI STOP JUMPDEST DUP1 PUSH4 0x1F17EE55 GT PUSH2 0x196 JUMPI DUP1 PUSH4 0x1F17EE55 EQ PUSH2 0x215 JUMPI DUP1 PUSH4 0x27EA9773 EQ PUSH2 0x23E JUMPI DUP1 PUSH4 0x2D23F7E7 EQ PUSH2 0x25E JUMPI DUP1 PUSH4 0x34D441D0 EQ PUSH2 0x28B JUMPI STOP JUMPDEST DUP1 PUSH4 0x53149FA EQ PUSH2 0x1C2 JUMPI DUP1 PUSH4 0xB8590C7 EQ PUSH2 0x1E2 JUMPI DUP1 PUSH4 0xBEC99E8 EQ PUSH2 0x1F5 JUMPI STOP JUMPDEST CALLDATASIZE PUSH2 0x1C0 JUMPI STOP JUMPDEST STOP JUMPDEST CALLVALUE DUP1 ISZERO PUSH2 0x1CE JUMPI PUSH1 0x0 DUP1 REVERT JUMPDEST POP PUSH2 0x1C0 PUSH2 0x1DD CALLDATASIZE PUSH1 0x4 PUSH2 0x524A JUMP JUMPDEST PUSH2 0x607 JUMP JUMPDEST PUSH2 0x1C0 PUSH2 0x1F0 CALLDATASIZE PUSH1 0x4 PUSH2 0x52A7 JUMP JUMPDEST PUSH2 0x69B JUMP JUMPDEST CALLVALUE DUP1 ISZERO PUSH2 0x201 JUMPI PUSH1 0x0 DUP1 REVERT JUMPDEST POP PUSH2 0x1C0 PUSH2 0x210 CALLDATASIZE PUSH1 0x4 PUSH2 0x5322 JUMP JUMPDEST PUSH2 0xB64 JUMP JUMPDEST CALLVALUE DUP1 ISZERO PUSH2 0x221 JUMPI PUSH1 0x0 DUP1 REVERT JUMPDEST POP PUSH2 0x22B PUSH1 0x1 SLOAD DUP2 JUMP JUMPDEST PUSH1 0x40 MLOAD SWAP1 DUP2 MSTORE PUSH1 0x20 ADD JUMPDEST PUSH1 0x40 MLOAD DUP1 SWAP2 SUB SWAP1 RETURN JUMPDEST CALLVALUE DUP1 ISZERO PUSH2 0x24A JUMPI PUSH1 0x0 DUP1 REVERT JUMPDEST POP PUSH2 0x1C0 PUSH2 0x259 CALLDATASIZE PUSH1 0x4 PUSH2 0x5322 JUMP JUMPDEST PUSH2 0xB71 JUMP JUMPDEST CALLVALUE DUP1 ISZERO PUSH2 0x26A JUMPI PUSH1 0x0 DUP1 REVERT JUMPDEST POP PUSH2 0x27E PUSH2 0x279 CALLDATASIZE PUSH1 0x4 PUSH2 0x533B JUMP JUMPDEST PUSH2 0xB7E JUMP JUMPDEST PUSH1 0x40 MLOAD PUSH2 0x235 SWAP2 SWAP1 PUSH2 0x541D JUMP JUMPDEST CALLVALUE DUP1 ISZERO PUSH2 0x297 JUMPI PUSH1 0x0 DUP1 REVERT JUMPDEST POP PUSH2 0x22B PUSH1 0x0 SLOAD DUP2 JUMP JUMPDEST PUSH2 0x1C0 PUSH2 0x2AF CALLDATASIZE PUSH1 0x4 PUSH2 0x542C JUMP JUMPDEST PUSH2 0xD56 JUMP JUMPDEST PUSH2 0x1C0 PUSH2 0x2C2 CALLDATASIZE PUSH1 0x4 PUSH2 0x555D JUMP JUMPDEST PUSH2 0x143D JUMP JUMPDEST CALLVALUE DUP1 ISZERO PUSH2 0x2D3 JUMPI PUSH1 0x0 DUP1 REVERT JUMPDEST POP PUSH2 0x1C0 PUSH2 0x2E2 CALLDATASIZE PUSH1 0x4 PUSH2 0x557A JUMP JUMPDEST PUSH2 0x1826 JUMP JUMPDEST PUSH2 0x1C0 PUSH2 0x1905 JUMP JUMPDEST CALLVALUE DUP1 ISZERO PUSH2 0x2FB JUMPI PUSH1 0x0 DUP1 REVERT JUMPDEST POP PUSH2 0x30F PUSH2 0x30A CALLDATASIZE PUSH1 0x4 PUSH2 0x5322 JUMP JUMPDEST PUSH2 0x27FD JUMP JUMPDEST PUSH1 0x40 MLOAD PUSH2 0x235 SWAP2 SWAP1 PUSH2 0x55C2 JUMP JUMPDEST CALLVALUE DUP1 ISZERO PUSH2 0x328 JUMPI PUSH1 0x0 DUP1 REVERT JUMPDEST POP PUSH2 0x33C PUSH2 0x337 CALLDATASIZE PUSH1 0x4 PUSH2 0x561A JUMP JUMPDEST PUSH2 0x29F3 JUMP JUMPDEST PUSH1 0x40 MLOAD PUSH2 0x235 SWAP2 SWAP1 PUSH2 0x5663 JUMP JUMPDEST CALLVALUE DUP1 ISZERO PUSH2 0x355 JUMPI PUSH1 0x0 DUP1 REVERT JUMPDEST POP PUSH2 0x1C0 PUSH2 0x364 CALLDATASIZE PUSH1 0x4 PUSH2 0x542C JUMP JUMPDEST PUSH2 0x2DEA JUMP JUMPDEST CALLVALUE DUP1 ISZERO PUSH2 0x375 JUMPI PUSH1 0x0 DUP1 REVERT JUMPDEST POP PUSH2 0x1C0 PUSH2 0x384 CALLDATASIZE PUSH1 0x4 PUSH2 0x5322 JUMP JUMPDEST PUSH2 0x3845 JUMP JUMPDEST CALLVALUE DUP1 ISZERO PUSH2 0x395 JUMPI PUSH1 0x0 DUP1 REVERT JUMPDEST POP PUSH2 0x1C0 PUSH2 0x3A4 CALLDATASIZE PUSH1 0x4 PUSH2 0x524A JUMP JUMPDEST PUSH2 0x3852 JUMP JUMPDEST CALLVALUE DUP1 ISZERO PUSH2 0x3B5 JUMPI PUSH1 0x0 DUP1 REVERT JUMPDEST POP PUSH2 0x1C0 PUSH2 0x3C4 CALLDATASIZE PUSH1 0x4 PUSH2 0x56C6 JUMP JUMPDEST PUSH2 0x38B1 JUMP JUMPDEST CALLVALUE DUP1 ISZERO PUSH2 0x3D5 JUMPI PUSH1 0x0 DUP1 REVERT JUMPDEST POP PUSH2 0x1C0 PUSH2 0x3E4 CALLDATASIZE PUSH1 0x4 PUSH2 0x56F5 JUMP JUMPDEST PUSH2 0x3D25 JUMP JUMPDEST CALLVALUE DUP1 ISZERO PUSH2 0x3F5 JUMPI PUSH1 0x0 DUP1 REVERT JUMPDEST POP PUSH1 0x8 SLOAD PUSH2 0x22B JUMP JUMPDEST CALLVALUE DUP1 ISZERO PUSH2 0x40A JUMPI PUSH1 0x0 DUP1 REVERT JUMPDEST POP PUSH2 0x1C0 PUSH2 0x419 CALLDATASIZE PUSH1 0x4 PUSH2 0x56F5 JUMP JUMPDEST PUSH2 0x3D4B JUMP JUMPDEST CALLVALUE DUP1 ISZERO PUSH2 0x42A JUMPI PUSH1 0x0 DUP1 REVERT JUMPDEST POP PUSH2 0x470 PUSH2 0x439 CALLDATASIZE PUSH1 0x4 PUSH2 0x524A JUMP JUMPDEST PUSH1 0x5 PUSH1 0x20 MSTORE PUSH1 0x0 SWAP1 DUP2 MSTORE PUSH1 0x40 SWAP1 KECCAK256 DUP1 SLOAD PUSH1 0x1 DUP3 ADD SLOAD PUSH1 0x2 SWAP1 SWAP3 ADD SLOAD PUSH1 0x1 PUSH1 0x1 PUSH1 0xA0 SHL SUB SWAP1 SWAP2 AND SWAP2 SWAP1 PUSH1 0xFF DUP1 DUP3 AND SWAP2 PUSH2 0x100 SWAP1 DIV AND DUP5 JUMP JUMPDEST PUSH1 0x40 DUP1 MLOAD PUSH1 0x1 PUSH1 0x1 PUSH1 0xA0 SHL SUB SWAP1 SWAP6 AND DUP6 MSTORE PUSH1 0x20 DUP6 ADD SWAP4 SWAP1 SWAP4 MSTORE PUSH1 0xFF SWAP1 SWAP2 AND SWAP2 DUP4 ADD SWAP2 SWAP1 SWAP2 MSTORE ISZERO ISZERO PUSH1 0x60 DUP3 ADD MSTORE PUSH1 0x80 ADD PUSH2 0x235 JUMP JUMPDEST CALLVALUE DUP1 ISZERO PUSH2 0x4B0 JUMPI PUSH1 0x0 DUP1 REVERT JUMPDEST POP PUSH2 0x1C0 PUSH2 0x3D71 JUMP JUMPDEST CALLVALUE DUP1 ISZERO PUSH2 0x4C5 JUMPI PUSH1 0x0 DUP1 REVERT JUMPDEST POP PUSH2 0x22B PUSH1 0x2 SLOAD DUP2 JUMP JUMPDEST CALLVALUE DUP1 ISZERO PUSH2 0x4DB JUMPI PUSH1 0x0 DUP1 REVERT JUMPDEST POP PUSH2 0x1C0 PUSH2 0x4EA CALLDATASIZE PUSH1 0x4 PUSH2 0x5712 JUMP JUMPDEST PUSH2 0x3DD4 JUMP JUMPDEST CALLVALUE DUP1 ISZERO PUSH2 0x4FB JUMPI PUSH1 0x0 DUP1 REVERT JUMPDEST POP PUSH1 0x6 SLOAD PUSH2 0x512 SWAP1 PUSH2 0x100 SWAP1 DIV PUSH5 0xFFFFFFFFFF AND DUP2 JUMP JUMPDEST PUSH1 0x40 MLOAD PUSH5 0xFFFFFFFFFF SWAP1 SWAP2 AND DUP2 MSTORE PUSH1 0x20 ADD PUSH2 0x235 JUMP JUMPDEST CALLVALUE DUP1 ISZERO PUSH2 0x534 JUMPI PUSH1 0x0 DUP1 REVERT JUMPDEST POP PUSH2 0x53D PUSH2 0x3E86 JUMP JUMPDEST PUSH1 0x40 MLOAD PUSH2 0x235 SWAP2 SWAP1 PUSH2 0x5757 JUMP JUMPDEST CALLVALUE DUP1 ISZERO PUSH2 0x556 JUMPI PUSH1 0x0 DUP1 REVERT JUMPDEST POP PUSH2 0x22B PUSH2 0x565 CALLDATASIZE PUSH1 0x4 PUSH2 0x57A4 JUMP JUMPDEST PUSH1 0x9 PUSH1 0x20 SWAP1 DUP2 MSTORE PUSH1 0x0 SWAP3 DUP4 MSTORE PUSH1 0x40 DUP1 DUP5 KECCAK256 SWAP1 SWAP2 MSTORE SWAP1 DUP3 MSTORE SWAP1 KECCAK256 SLOAD DUP2 JUMP JUMPDEST CALLVALUE DUP1 ISZERO PUSH2 0x58E JUMPI PUSH1 0x0 DUP1 REVERT JUMPDEST POP PUSH2 0x1C0 PUSH2 0x59D CALLDATASIZE PUSH1 0x4 PUSH2 0x5858 JUMP JUMPDEST PUSH2 0x4328 JUMP JUMPDEST CALLVALUE DUP1 ISZERO PUSH2 0x5AE JUMPI PUSH1 0x0 DUP1 REVERT JUMPDEST POP PUSH2 0x5C2 PUSH2 0x5BD CALLDATASIZE PUSH1 0x4 PUSH2 0x5322 JUMP JUMPDEST PUSH2 0x4396 JUMP JUMPDEST PUSH1 0x40 MLOAD PUSH1 0x1 PUSH1 0x1 PUSH1 0xA0 SHL SUB SWAP1 SWAP2 AND DUP2 MSTORE PUSH1 0x20 ADD PUSH2 0x235 JUMP JUMPDEST CALLVALUE DUP1 ISZERO PUSH2 0x5E6 JUMPI PUSH1 0x0 DUP1 REVERT JUMPDEST POP PUSH2 0x5FA PUSH2 0x5F5 CALLDATASIZE PUSH1 0x4 PUSH2 0x524A JUMP JUMPDEST PUSH2 0x43C0 JUMP JUMPDEST PUSH1 0x40 MLOAD PUSH2 0x235 SWAP2 SWAP1 PUSH2 0x5A1D JUMP JUMPDEST PUSH2 0x60F PUSH2 0x45EA JUMP JUMPDEST PUSH1 0x1 PUSH1 0x1 PUSH1 0xA0 SHL SUB DUP2 AND PUSH2 0x622 JUMPI PUSH1 0x0 DUP1 REVERT JUMPDEST PUSH2 0x62B DUP2 PUSH2 0x4633 JUMP JUMPDEST PUSH2 0x660 JUMPI PUSH1 0x40 MLOAD PUSH3 0x461BCD PUSH1 0xE5 SHL DUP2 MSTORE PUSH1 0x20 PUSH1 0x4 DUP3 ADD MSTORE PUSH1 0x1 PUSH1 0x24 DUP3 ADD MSTORE PUSH1 0x19 PUSH1 0xF9 SHL PUSH1 0x44 DUP3 ADD MSTORE PUSH1 0x64 ADD JUMPDEST PUSH1 0x40 MLOAD DUP1 SWAP2 SUB SWAP1 REVERT JUMPDEST PUSH1 0x1 PUSH1 0x1 PUSH1 0xA0 SHL SUB AND PUSH1 0x0 SWAP1 DUP2 MSTORE PUSH1 0x5 PUSH1 0x20 MSTORE PUSH1 0x40 DUP2 KECCAK256 DUP1 SLOAD PUSH1 0x1 PUSH1 0x1 PUSH1 0xA0 SHL SUB NOT AND DUP2 SSTORE PUSH1 0x1 DUP2 ADD SWAP2 SWAP1 SWAP2 SSTORE PUSH1 0x2 ADD DUP1 SLOAD PUSH2 0xFFFF NOT AND SWAP1 SSTORE JUMP JUMPDEST PUSH2 0x6A3 PUSH2 0x466A JUMP JUMPDEST PUSH1 0x1 PUSH1 0x1 PUSH1 0xA0 SHL SUB DUP5 AND PUSH2 0x6DD JUMPI PUSH1 0x40 MLOAD PUSH3 0x461BCD PUSH1 0xE5 SHL DUP2 MSTORE PUSH1 0x20 PUSH1 0x4 DUP3 ADD MSTORE PUSH1 0x1 PUSH1 0x24 DUP3 ADD MSTORE PUSH1 0x7 PUSH1 0xFB SHL PUSH1 0x44 DUP3 ADD MSTORE PUSH1 0x64 ADD PUSH2 0x657 JUMP JUMPDEST PUSH1 0x6 SLOAD PUSH1 0x1 PUSH1 0xD8 SHL SWAP1 DIV PUSH1 0xFF AND ISZERO PUSH2 0x725 JUMPI CALLVALUE PUSH1 0x1 SLOAD GT ISZERO PUSH2 0x725 JUMPI PUSH1 0x40 MLOAD PUSH3 0x461BCD PUSH1 0xE5 SHL DUP2 MSTORE PUSH1 0x20 PUSH1 0x4 DUP3 ADD MSTORE PUSH1 0x1 PUSH1 0x24 DUP3 ADD MSTORE PUSH1 0x35 PUSH1 0xF8 SHL PUSH1 0x44 DUP3 ADD MSTORE PUSH1 0x64 ADD PUSH2 0x657 JUMP JUMPDEST PUSH2 0x72E DUP5 PUSH2 0x4633 JUMP JUMPDEST PUSH2 0x75E JUMPI PUSH1 0x40 MLOAD PUSH3 0x461BCD PUSH1 0xE5 SHL DUP2 MSTORE PUSH1 0x20 PUSH1 0x4 DUP3 ADD MSTORE PUSH1 0x1 PUSH1 0x24 DUP3 ADD MSTORE PUSH1 0x39 PUSH1 0xF8 SHL PUSH1 0x44 DUP3 ADD MSTORE PUSH1 0x64 ADD PUSH2 0x657 JUMP JUMPDEST PUSH1 0x0 DUP3 PUSH1 0x3 DUP2 GT ISZERO PUSH2 0x772 JUMPI PUSH2 0x772 PUSH2 0x5377 JUMP JUMPDEST SUB PUSH2 0x7C1 JUMPI DUP1 PUSH2 0xFFFF AND PUSH1 0x0 LT DUP1 ISZERO PUSH2 0x790 JUMPI POP PUSH1 0x7 DUP2 PUSH2 0xFFFF AND GT ISZERO JUMPDEST PUSH2 0x7C1 JUMPI PUSH1 0x40 MLOAD PUSH3 0x461BCD PUSH1 0xE5 SHL DUP2 MSTORE PUSH1 0x20 PUSH1 0x4 DUP3 ADD MSTORE PUSH1 0x2 PUSH1 0x24 DUP3 ADD MSTORE PUSH2 0x191B PUSH1 0xF1 SHL PUSH1 0x44 DUP3 ADD MSTORE PUSH1 0x64 ADD PUSH2 0x657 JUMP JUMPDEST PUSH1 0x1 DUP3 PUSH1 0x3 DUP2 GT ISZERO PUSH2 0x7D5 JUMPI PUSH2 0x7D5 PUSH2 0x5377 JUMP JUMPDEST SUB PUSH2 0x824 JUMPI DUP1 PUSH2 0xFFFF AND PUSH1 0x0 LT DUP1 ISZERO PUSH2 0x7F3 JUMPI POP PUSH1 0x1C DUP2 PUSH2 0xFFFF AND GT ISZERO JUMPDEST PUSH2 0x824 JUMPI PUSH1 0x40 MLOAD PUSH3 0x461BCD PUSH1 0xE5 SHL DUP2 MSTORE PUSH1 0x20 PUSH1 0x4 DUP3 ADD MSTORE PUSH1 0x2 PUSH1 0x24 DUP3 ADD MSTORE PUSH2 0x3237 PUSH1 0xF0 SHL PUSH1 0x44 DUP3 ADD MSTORE PUSH1 0x64 ADD PUSH2 0x657 JUMP JUMPDEST PUSH1 0x2 DUP3 PUSH1 0x3 DUP2 GT ISZERO PUSH2 0x838 JUMPI PUSH2 0x838 PUSH2 0x5377 JUMP JUMPDEST SUB PUSH2 0x887 JUMPI DUP1 PUSH2 0xFFFF AND PUSH1 0x0 LT DUP1 ISZERO PUSH2 0x856 JUMPI POP PUSH1 0x5A DUP2 PUSH2 0xFFFF AND GT ISZERO JUMPDEST PUSH2 0x887 JUMPI PUSH1 0x40 MLOAD PUSH3 0x461BCD PUSH1 0xE5 SHL DUP2 MSTORE PUSH1 0x20 PUSH1 0x4 DUP3 ADD MSTORE PUSH1 0x2 PUSH1 0x24 DUP3 ADD MSTORE PUSH2 0x647 PUSH1 0xF3 SHL PUSH1 0x44 DUP3 ADD MSTORE PUSH1 0x64 ADD PUSH2 0x657 JUMP JUMPDEST PUSH1 0x3 DUP3 PUSH1 0x3 DUP2 GT ISZERO PUSH2 0x89B JUMPI PUSH2 0x89B PUSH2 0x5377 JUMP JUMPDEST SUB PUSH2 0x8EB JUMPI DUP1 PUSH2 0xFFFF AND PUSH1 0x0 LT DUP1 ISZERO PUSH2 0x8BA JUMPI POP PUSH2 0x16D DUP2 PUSH2 0xFFFF AND GT ISZERO JUMPDEST PUSH2 0x8EB JUMPI PUSH1 0x40 MLOAD PUSH3 0x461BCD PUSH1 0xE5 SHL DUP2 MSTORE PUSH1 0x20 PUSH1 0x4 DUP3 ADD MSTORE PUSH1 0x2 PUSH1 0x24 DUP3 ADD MSTORE PUSH2 0x3239 PUSH1 0xF0 SHL PUSH1 0x44 DUP3 ADD MSTORE PUSH1 0x64 ADD PUSH2 0x657 JUMP JUMPDEST PUSH1 0x1 PUSH1 0x1 PUSH1 0xA0 SHL SUB DUP5 AND PUSH1 0x0 SWAP1 DUP2 MSTORE PUSH1 0x5 PUSH1 0x20 MSTORE PUSH1 0x40 SWAP1 KECCAK256 PUSH1 0x1 ADD SLOAD DUP6 LT ISZERO PUSH2 0x93B JUMPI PUSH1 0x40 MLOAD PUSH3 0x461BCD PUSH1 0xE5 SHL DUP2 MSTORE PUSH1 0x20 PUSH1 0x4 DUP3 ADD MSTORE PUSH1 0x2 PUSH1 0x24 DUP3 ADD MSTORE PUSH2 0x333 PUSH1 0xF4 SHL PUSH1 0x44 DUP3 ADD MSTORE PUSH1 0x64 ADD PUSH2 0x657 JUMP JUMPDEST PUSH1 0x0 PUSH2 0x949 DUP7 DUP7 DUP6 DUP6 PUSH2 0x469B JUMP JUMPDEST SWAP1 POP DUP1 PUSH1 0xA PUSH1 0x0 DUP6 PUSH1 0x3 DUP2 GT ISZERO PUSH2 0x962 JUMPI PUSH2 0x962 PUSH2 0x5377 JUMP JUMPDEST DUP2 MSTORE PUSH1 0x20 DUP1 DUP3 ADD SWAP3 SWAP1 SWAP3 MSTORE PUSH1 0x40 SWAP1 DUP2 ADD PUSH1 0x0 SWAP1 DUP2 KECCAK256 PUSH2 0xFFFF DUP8 AND DUP3 MSTORE DUP4 MSTORE DUP2 DUP2 KECCAK256 DUP1 SLOAD PUSH1 0x1 DUP2 DUP2 ADD DUP4 SSTORE SWAP2 DUP4 MSTORE SWAP2 DUP5 SWAP1 KECCAK256 DUP6 MLOAD PUSH1 0x4 SWAP1 SWAP4 MUL ADD SWAP2 DUP3 SSTORE SWAP3 DUP5 ADD MLOAD SWAP3 DUP2 ADD SWAP3 SWAP1 SWAP3 SSTORE DUP3 ADD MLOAD PUSH1 0x2 DUP3 ADD DUP1 SLOAD PUSH1 0x1 PUSH1 0x1 PUSH1 0xA0 SHL SUB SWAP3 DUP4 AND PUSH1 0x1 PUSH1 0x1 PUSH1 0xA0 SHL SUB NOT SWAP1 SWAP2 AND OR SWAP1 SSTORE PUSH1 0x60 DUP4 ADD MLOAD PUSH1 0x3 DUP1 DUP5 ADD DUP1 SLOAD PUSH1 0x80 DUP8 ADD MLOAD PUSH1 0xA0 DUP9 ADD MLOAD ISZERO ISZERO PUSH1 0x1 PUSH1 0xA8 SHL MUL PUSH1 0xFF PUSH1 0xA8 SHL NOT SWAP2 ISZERO ISZERO PUSH1 0x1 PUSH1 0xA0 SHL MUL PUSH21 0xFFFFFFFFFFFFFFFFFFFFFFFFFFFFFFFFFFFFFFFFFF NOT SWAP1 SWAP4 AND SWAP6 SWAP1 SWAP7 AND SWAP5 SWAP1 SWAP5 OR OR SWAP3 DUP4 AND DUP5 OR DUP2 SSTORE PUSH1 0xC0 DUP7 ADD MLOAD SWAP4 SWAP1 SWAP3 PUSH1 0xFF PUSH1 0xB0 SHL NOT SWAP1 SWAP2 AND PUSH2 0xFFFF PUSH1 0xA8 SHL NOT SWAP1 SWAP2 AND OR SWAP1 PUSH1 0x1 PUSH1 0xB0 SHL SWAP1 DUP5 SWAP1 DUP2 GT ISZERO PUSH2 0xA57 JUMPI PUSH2 0xA57 PUSH2 0x5377 JUMP JUMPDEST MUL OR SWAP1 SSTORE POP PUSH1 0xE0 SWAP2 DUP3 ADD MLOAD PUSH1 0x3 SWAP2 DUP3 ADD DUP1 SLOAD PUSH2 0xFFFF PUSH1 0xB8 SHL NOT AND PUSH1 0x1 PUSH1 0xB8 SHL PUSH2 0xFFFF SWAP4 DUP5 AND MUL OR SWAP1 SSTORE PUSH1 0x40 DUP1 MLOAD PUSH1 0x80 DUP2 ADD DUP3 MSTORE DUP6 MLOAD DUP2 MSTORE SWAP4 DUP6 ADD MLOAD SWAP1 SWAP2 AND PUSH1 0x20 DUP5 ADD MSTORE PUSH1 0xC0 DUP5 ADD MLOAD PUSH2 0xAC7 SWAP4 SWAP3 SWAP2 DUP4 ADD SWAP2 DUP2 GT ISZERO PUSH2 0xAB7 JUMPI PUSH2 0xAB7 PUSH2 0x5377 JUMP JUMPDEST DUP2 MSTORE PUSH1 0x20 ADD PUSH1 0x0 SWAP1 MSTORE PUSH1 0x1 PUSH2 0x4786 JUMP JUMPDEST DUP1 MLOAD PUSH5 0xFFFFFFFFFF TIMESTAMP AND SWAP1 CALLER SWAP1 PUSH32 0x93CDA0785D40B289A535B99DC76D4C9CBB6D8146182861AC3AD40509398B1865 PUSH2 0xAFF DUP9 DUP1 PUSH2 0x5A7E JUMP JUMPDEST PUSH2 0xB0C PUSH1 0x20 DUP12 ADD DUP12 PUSH2 0x5A7E JUMP JUMPDEST PUSH1 0x40 MLOAD PUSH2 0xB1C SWAP5 SWAP4 SWAP3 SWAP2 SWAP1 PUSH2 0x5AF5 JUMP JUMPDEST PUSH1 0x40 MLOAD DUP1 SWAP2 SUB SWAP1 LOG4 DUP1 MLOAD PUSH1 0x60 DUP3 ADD MLOAD PUSH1 0x40 MLOAD PUSH1 0x0 SWAP3 CALLER SWAP3 SWAP1 SWAP2 PUSH1 0x0 DUP1 MLOAD PUSH1 0x20 PUSH2 0x5F8F DUP4 CODECOPY DUP2 MLOAD SWAP2 MSTORE SWAP2 PUSH2 0xB54 SWAP2 TIMESTAMP SWAP2 DUP14 SWAP2 DUP9 SWAP1 PUSH2 0x5B37 JUMP JUMPDEST PUSH1 0x40 MLOAD DUP1 SWAP2 SUB SWAP1 LOG4 POP POP POP POP POP POP JUMP JUMPDEST PUSH2 0xB6C PUSH2 0x45EA JUMP JUMPDEST PUSH1 0x1 SSTORE JUMP JUMPDEST PUSH2 0xB79 PUSH2 0x45EA JUMP JUMPDEST PUSH1 0x2 SSTORE JUMP JUMPDEST PUSH1 0x40 DUP1 MLOAD PUSH2 0x100 DUP2 ADD DUP3 MSTORE PUSH1 0x0 DUP1 DUP3 MSTORE PUSH1 0x20 DUP3 ADD DUP2 SWAP1 MSTORE SWAP2 DUP2 ADD DUP3 SWAP1 MSTORE PUSH1 0x60 DUP2 ADD DUP3 SWAP1 MSTORE PUSH1 0x80 DUP2 ADD DUP3 SWAP1 MSTORE PUSH1 0xA0 DUP2 ADD DUP3 SWAP1 MSTORE PUSH1 0xC0 DUP2 ADD DUP3 SWAP1 MSTORE PUSH1 0xE0 DUP2 ADD DUP3 SWAP1 MSTORE SWAP1 PUSH1 0xA DUP2 DUP6 PUSH1 0x3 DUP2 GT ISZERO PUSH2 0xBD4 JUMPI PUSH2 0xBD4 PUSH2 0x5377 JUMP JUMPDEST DUP2 MSTORE PUSH1 0x20 ADD SWAP1 DUP2 MSTORE PUSH1 0x20 ADD PUSH1 0x0 KECCAK256 PUSH1 0x0 DUP5 PUSH2 0xFFFF AND PUSH2 0xFFFF AND DUP2 MSTORE PUSH1 0x20 ADD SWAP1 DUP2 MSTORE PUSH1 0x20 ADD PUSH1 0x0 KECCAK256 DUP1 SLOAD DUP1 PUSH1 0x20 MUL PUSH1 0x20 ADD PUSH1 0x40 MLOAD SWAP1 DUP2 ADD PUSH1 0x40 MSTORE DUP1 SWAP3 SWAP2 SWAP1 DUP2 DUP2 MSTORE PUSH1 0x20 ADD PUSH1 0x0 SWAP1 JUMPDEST DUP3 DUP3 LT ISZERO PUSH2 0xCF2 JUMPI PUSH1 0x0 DUP5 DUP2 MSTORE PUSH1 0x20 SWAP1 DUP2 SWAP1 KECCAK256 PUSH1 0x40 DUP1 MLOAD PUSH2 0x100 DUP2 ADD DUP3 MSTORE PUSH1 0x4 DUP7 MUL SWAP1 SWAP3 ADD DUP1 SLOAD DUP4 MSTORE PUSH1 0x1 DUP2 ADD SLOAD SWAP4 DUP4 ADD SWAP4 SWAP1 SWAP4 MSTORE PUSH1 0x2 DUP4 ADD SLOAD PUSH1 0x1 PUSH1 0x1 PUSH1 0xA0 SHL SUB SWAP1 DUP2 AND SWAP2 DUP4 ADD SWAP2 SWAP1 SWAP2 MSTORE PUSH1 0x3 DUP1 DUP5 ADD SLOAD SWAP2 DUP3 AND PUSH1 0x60 DUP5 ADD MSTORE PUSH1 0xFF PUSH1 0x1 PUSH1 0xA0 SHL DUP4 DIV DUP2 AND ISZERO ISZERO PUSH1 0x80 DUP6 ADD MSTORE PUSH1 0x1 PUSH1 0xA8 SHL DUP4 DIV DUP2 AND ISZERO ISZERO PUSH1 0xA0 DUP6 ADD MSTORE SWAP3 SWAP4 SWAP3 PUSH1 0xC0 DUP6 ADD SWAP3 PUSH1 0x1 PUSH1 0xB0 SHL SWAP1 DIV AND SWAP1 DUP2 GT ISZERO PUSH2 0xCB7 JUMPI PUSH2 0xCB7 PUSH2 0x5377 JUMP JUMPDEST PUSH1 0x3 DUP2 GT ISZERO PUSH2 0xCC8 JUMPI PUSH2 0xCC8 PUSH2 0x5377 JUMP JUMPDEST DUP2 MSTORE PUSH1 0x3 SWAP2 SWAP1 SWAP2 ADD SLOAD PUSH2 0xFFFF PUSH1 0x1 PUSH1 0xB8 SHL SWAP1 SWAP2 DIV AND PUSH1 0x20 SWAP2 DUP3 ADD MSTORE SWAP1 DUP3 MSTORE PUSH1 0x1 SWAP1 SWAP3 ADD SWAP2 ADD PUSH2 0xC1B JUMP JUMPDEST POP POP POP POP SWAP1 POP PUSH1 0x0 JUMPDEST DUP2 MLOAD DUP2 LT ISZERO PUSH2 0xD4D JUMPI DUP6 DUP3 DUP3 DUP2 MLOAD DUP2 LT PUSH2 0xD17 JUMPI PUSH2 0xD17 PUSH2 0x5B68 JUMP JUMPDEST PUSH1 0x20 MUL PUSH1 0x20 ADD ADD MLOAD PUSH1 0x0 ADD MLOAD SUB PUSH2 0xD45 JUMPI DUP2 DUP2 DUP2 MLOAD DUP2 LT PUSH2 0xD3A JUMPI PUSH2 0xD3A PUSH2 0x5B68 JUMP JUMPDEST PUSH1 0x20 MUL PUSH1 0x20 ADD ADD MLOAD SWAP3 POP JUMPDEST PUSH1 0x1 ADD PUSH2 0xCFB JUMP JUMPDEST POP POP SWAP4 SWAP3 POP POP POP JUMP JUMPDEST PUSH2 0xD5E PUSH2 0x466A JUMP JUMPDEST PUSH2 0xD8B DUP2 CALLDATALOAD PUSH2 0xD74 PUSH2 0x100 DUP5 ADD PUSH1 0xE0 DUP6 ADD PUSH2 0x5B7E JUMP JUMPDEST PUSH2 0xD84 PUSH1 0xE0 DUP6 ADD PUSH1 0xC0 DUP7 ADD PUSH2 0x5B99 JUMP JUMPDEST PUSH1 0x0 PUSH2 0x4936 JUMP JUMPDEST PUSH2 0xDBB JUMPI PUSH1 0x40 MLOAD PUSH3 0x461BCD PUSH1 0xE5 SHL DUP2 MSTORE PUSH1 0x20 PUSH1 0x4 DUP3 ADD MSTORE PUSH1 0x1 PUSH1 0x24 DUP3 ADD MSTORE PUSH1 0x37 PUSH1 0xF8 SHL PUSH1 0x44 DUP3 ADD MSTORE PUSH1 0x64 ADD PUSH2 0x657 JUMP JUMPDEST PUSH2 0xDFC PUSH1 0x20 DUP3 ADD CALLDATALOAD PUSH1 0x5 PUSH1 0x0 PUSH2 0xDD7 PUSH1 0x80 DUP7 ADD PUSH1 0x60 DUP8 ADD PUSH2 0x524A JUMP JUMPDEST PUSH1 0x1 PUSH1 0x1 PUSH1 0xA0 SHL SUB AND DUP2 MSTORE PUSH1 0x20 DUP2 ADD SWAP2 SWAP1 SWAP2 MSTORE PUSH1 0x40 ADD PUSH1 0x0 KECCAK256 PUSH1 0x2 ADD SLOAD PUSH1 0xFF AND PUSH2 0x49C1 JUMP JUMPDEST PUSH2 0xE0C PUSH1 0x80 DUP4 ADD PUSH1 0x60 DUP5 ADD PUSH2 0x524A JUMP JUMPDEST PUSH1 0x40 MLOAD PUSH4 0x6EB1769F PUSH1 0xE1 SHL DUP2 MSTORE CALLER PUSH1 0x4 DUP3 ADD MSTORE ADDRESS PUSH1 0x24 DUP3 ADD MSTORE PUSH1 0x1 PUSH1 0x1 PUSH1 0xA0 SHL SUB SWAP2 SWAP1 SWAP2 AND SWAP1 PUSH4 0xDD62ED3E SWAP1 PUSH1 0x44 ADD PUSH1 0x20 PUSH1 0x40 MLOAD DUP1 DUP4 SUB DUP2 PUSH1 0x0 DUP8 GAS CALL ISZERO DUP1 ISZERO PUSH2 0xE5A JUMPI RETURNDATASIZE PUSH1 0x0 DUP1 RETURNDATACOPY RETURNDATASIZE PUSH1 0x0 REVERT JUMPDEST POP POP POP POP PUSH1 0x40 MLOAD RETURNDATASIZE PUSH1 0x1F NOT PUSH1 0x1F DUP3 ADD AND DUP3 ADD DUP1 PUSH1 0x40 MSTORE POP DUP2 ADD SWAP1 PUSH2 0xE7E SWAP2 SWAP1 PUSH2 0x5BB4 JUMP JUMPDEST LT ISZERO DUP1 ISZERO PUSH2 0xF22 JUMPI POP PUSH2 0xEA3 PUSH1 0x20 DUP3 ADD CALLDATALOAD PUSH1 0x5 PUSH1 0x0 PUSH2 0xDD7 PUSH1 0x80 DUP7 ADD PUSH1 0x60 DUP8 ADD PUSH2 0x524A JUMP JUMPDEST PUSH2 0xEB3 PUSH1 0x80 DUP4 ADD PUSH1 0x60 DUP5 ADD PUSH2 0x524A JUMP JUMPDEST PUSH1 0x40 MLOAD PUSH4 0x70A08231 PUSH1 0xE0 SHL DUP2 MSTORE CALLER PUSH1 0x4 DUP3 ADD MSTORE PUSH1 0x1 PUSH1 0x1 PUSH1 0xA0 SHL SUB SWAP2 SWAP1 SWAP2 AND SWAP1 PUSH4 0x70A08231 SWAP1 PUSH1 0x24 ADD PUSH1 0x20 PUSH1 0x40 MLOAD DUP1 DUP4 SUB DUP2 PUSH1 0x0 DUP8 GAS CALL ISZERO DUP1 ISZERO PUSH2 0xEFB JUMPI RETURNDATASIZE PUSH1 0x0 DUP1 RETURNDATACOPY RETURNDATASIZE PUSH1 0x0 REVERT JUMPDEST POP POP POP POP PUSH1 0x40 MLOAD RETURNDATASIZE PUSH1 0x1F NOT PUSH1 0x1F DUP3 ADD AND DUP3 ADD DUP1 PUSH1 0x40 MSTORE POP DUP2 ADD SWAP1 PUSH2 0xF1F SWAP2 SWAP1 PUSH2 0x5BB4 JUMP JUMPDEST LT ISZERO JUMPDEST PUSH2 0xF53 JUMPI PUSH1 0x40 MLOAD PUSH3 0x461BCD PUSH1 0xE5 SHL DUP2 MSTORE PUSH1 0x20 PUSH1 0x4 DUP3 ADD MSTORE PUSH1 0x2 PUSH1 0x24 DUP3 ADD MSTORE PUSH2 0x323 PUSH1 0xF4 SHL PUSH1 0x44 DUP3 ADD MSTORE PUSH1 0x64 ADD PUSH2 0x657 JUMP JUMPDEST PUSH2 0xF63 PUSH1 0x60 DUP3 ADD PUSH1 0x40 DUP4 ADD PUSH2 0x524A JUMP JUMPDEST PUSH1 0x1 PUSH1 0x1 PUSH1 0xA0 SHL SUB AND CALLER SUB PUSH2 0xF9E JUMPI PUSH1 0x40 MLOAD PUSH3 0x461BCD PUSH1 0xE5 SHL DUP2 MSTORE PUSH1 0x20 PUSH1 0x4 DUP3 ADD MSTORE PUSH1 0x1 PUSH1 0x24 DUP3 ADD MSTORE PUSH1 0x3 PUSH1 0xFC SHL PUSH1 0x44 DUP3 ADD MSTORE PUSH1 0x64 ADD PUSH2 0x657 JUMP JUMPDEST DUP1 CALLDATALOAD PUSH1 0x0 DUP2 DUP2 MSTORE PUSH1 0xB PUSH1 0x20 SWAP1 DUP2 MSTORE PUSH1 0x40 DUP1 DUP4 KECCAK256 DUP1 SLOAD PUSH1 0x1 DUP2 ADD DUP3 SSTORE SWAP1 DUP5 MSTORE SWAP3 DUP3 SWAP1 KECCAK256 SWAP1 SWAP3 ADD DUP1 SLOAD PUSH1 0x1 PUSH1 0x1 PUSH1 0xA0 SHL SUB NOT AND CALLER OR SWAP1 SSTORE DUP2 MLOAD PUSH1 0x80 DUP2 ADD SWAP1 SWAP3 MSTORE SWAP2 DUP2 MSTORE PUSH2 0x1030 SWAP2 DUP2 ADD PUSH2 0xFF6 PUSH2 0x100 DUP6 ADD PUSH1 0xE0 DUP7 ADD PUSH2 0x5B7E JUMP JUMPDEST PUSH2 0xFFFF AND DUP2 MSTORE PUSH1 0x20 ADD PUSH2 0x100F PUSH1 0xE0 DUP6 ADD PUSH1 0xC0 DUP7 ADD PUSH2 0x5B99 JUMP JUMPDEST PUSH1 0x3 DUP2 GT ISZERO PUSH2 0x1020 JUMPI PUSH2 0x1020 PUSH2 0x5377 JUMP JUMPDEST DUP2 MSTORE PUSH1 0x20 ADD PUSH1 0x0 SWAP1 MSTORE PUSH1 0x0 PUSH2 0x4786 JUMP JUMPDEST PUSH1 0x20 DUP2 ADD CALLDATALOAD PUSH1 0x1 DUP1 PUSH2 0x1048 PUSH1 0xE0 DUP6 ADD PUSH1 0xC0 DUP7 ADD PUSH2 0x5B99 JUMP JUMPDEST PUSH1 0x3 DUP2 GT ISZERO PUSH2 0x1059 JUMPI PUSH2 0x1059 PUSH2 0x5377 JUMP JUMPDEST EQ DUP1 PUSH2 0x1085 JUMPI POP PUSH1 0x0 PUSH2 0x1072 PUSH1 0xE0 DUP6 ADD PUSH1 0xC0 DUP7 ADD PUSH2 0x5B99 JUMP JUMPDEST PUSH1 0x3 DUP2 GT ISZERO PUSH2 0x1083 JUMPI PUSH2 0x1083 PUSH2 0x5377 JUMP JUMPDEST EQ JUMPDEST ISZERO PUSH2 0x10D1 JUMPI PUSH2 0x10CA TIMESTAMP PUSH2 0x109F PUSH2 0x100 DUP7 ADD PUSH1 0xE0 DUP8 ADD PUSH2 0x5B7E JUMP JUMPDEST PUSH2 0xFFFF AND DUP5 PUSH2 0x10B4 PUSH1 0xE0 DUP9 ADD PUSH1 0xC0 DUP10 ADD PUSH2 0x5B99 JUMP JUMPDEST PUSH1 0x3 DUP2 GT ISZERO PUSH2 0x10C5 JUMPI PUSH2 0x10C5 PUSH2 0x5377 JUMP JUMPDEST PUSH2 0x4A34 JUMP JUMPDEST SWAP2 POP PUSH2 0x1177 JUMP JUMPDEST PUSH1 0x2 PUSH2 0x10E3 PUSH1 0xE0 DUP6 ADD PUSH1 0xC0 DUP7 ADD PUSH2 0x5B99 JUMP JUMPDEST PUSH1 0x3 DUP2 GT ISZERO PUSH2 0x10F4 JUMPI PUSH2 0x10F4 PUSH2 0x5377 JUMP JUMPDEST SUB PUSH2 0x1126 JUMPI PUSH2 0x110E TIMESTAMP PUSH2 0x109F PUSH2 0x100 DUP7 ADD PUSH1 0xE0 DUP8 ADD PUSH2 0x5B7E JUMP JUMPDEST SWAP2 POP PUSH2 0x111B PUSH1 0x3 DUP4 PUSH2 0x5BF9 JUMP JUMPDEST SWAP2 POP PUSH1 0x2 SWAP1 POP PUSH2 0x1177 JUMP JUMPDEST PUSH1 0x3 PUSH2 0x1138 PUSH1 0xE0 DUP6 ADD PUSH1 0xC0 DUP7 ADD PUSH2 0x5B99 JUMP JUMPDEST PUSH1 0x3 DUP2 GT ISZERO PUSH2 0x1149 JUMPI PUSH2 0x1149 PUSH2 0x5377 JUMP JUMPDEST SUB PUSH2 0x1177 JUMPI PUSH2 0x1163 TIMESTAMP PUSH2 0x109F PUSH2 0x100 DUP7 ADD PUSH1 0xE0 DUP8 ADD PUSH2 0x5B7E JUMP JUMPDEST SWAP2 POP PUSH2 0x1170 PUSH1 0xC DUP4 PUSH2 0x5BF9 JUMP JUMPDEST SWAP2 POP PUSH1 0xB SWAP1 POP JUMPDEST DUP3 CALLDATALOAD PUSH1 0x0 SWAP1 DUP2 MSTORE PUSH1 0x9 PUSH1 0x20 SWAP1 DUP2 MSTORE PUSH1 0x40 DUP1 DUP4 KECCAK256 CALLER DUP5 MSTORE SWAP1 SWAP2 MSTORE DUP2 KECCAK256 DUP1 SLOAD DUP5 SWAP3 SWAP1 PUSH2 0x11A2 SWAP1 DUP5 SWAP1 PUSH2 0x5C0D JUMP JUMPDEST SWAP1 SWAP2 SSTORE POP CALLER SWAP1 POP PUSH2 0x11B9 PUSH1 0x60 DUP6 ADD PUSH1 0x40 DUP7 ADD PUSH2 0x524A JUMP JUMPDEST PUSH1 0x1 PUSH1 0x1 PUSH1 0xA0 SHL SUB AND DUP5 CALLDATALOAD PUSH1 0x0 DUP1 MLOAD PUSH1 0x20 PUSH2 0x5F8F DUP4 CODECOPY DUP2 MLOAD SWAP2 MSTORE TIMESTAMP PUSH1 0x20 DUP9 ADD CALLDATALOAD PUSH2 0x11E9 PUSH1 0x80 DUP11 ADD PUSH1 0x60 DUP12 ADD PUSH2 0x524A JUMP JUMPDEST PUSH1 0x6 PUSH1 0x40 MLOAD PUSH2 0x11FB SWAP5 SWAP4 SWAP3 SWAP2 SWAP1 PUSH2 0x5B37 JUMP JUMPDEST PUSH1 0x40 MLOAD DUP1 SWAP2 SUB SWAP1 LOG4 CALLER PUSH2 0x1214 PUSH1 0x60 DUP6 ADD PUSH1 0x40 DUP7 ADD PUSH2 0x524A JUMP JUMPDEST PUSH1 0x1 PUSH1 0x1 PUSH1 0xA0 SHL SUB AND DUP5 CALLDATALOAD PUSH1 0x0 DUP1 MLOAD PUSH1 0x20 PUSH2 0x5F8F DUP4 CODECOPY DUP2 MLOAD SWAP2 MSTORE TIMESTAMP DUP7 PUSH2 0x1240 PUSH1 0x80 DUP11 ADD PUSH1 0x60 DUP12 ADD PUSH2 0x524A JUMP JUMPDEST PUSH1 0x8 PUSH1 0x40 MLOAD PUSH2 0x1252 SWAP5 SWAP4 SWAP3 SWAP2 SWAP1 PUSH2 0x5B37 JUMP JUMPDEST PUSH1 0x40 MLOAD DUP1 SWAP2 SUB SWAP1 LOG4 PUSH2 0x126A PUSH1 0x80 DUP5 ADD PUSH1 0x60 DUP6 ADD PUSH2 0x524A JUMP JUMPDEST PUSH1 0x1 PUSH1 0x1 PUSH1 0xA0 SHL SUB AND PUSH4 0x23B872DD CALLER ADDRESS PUSH2 0x1292 DUP7 PUSH1 0x5 PUSH1 0x0 PUSH2 0xDD7 PUSH1 0x80 DUP13 ADD PUSH1 0x60 DUP14 ADD PUSH2 0x524A JUMP JUMPDEST PUSH1 0x40 MLOAD PUSH1 0x1 PUSH1 0x1 PUSH1 0xE0 SHL SUB NOT PUSH1 0xE0 DUP7 SWAP1 SHL AND DUP2 MSTORE PUSH1 0x1 PUSH1 0x1 PUSH1 0xA0 SHL SUB SWAP4 DUP5 AND PUSH1 0x4 DUP3 ADD MSTORE SWAP3 SWAP1 SWAP2 AND PUSH1 0x24 DUP4 ADD MSTORE PUSH1 0x44 DUP3 ADD MSTORE PUSH1 0x64 ADD PUSH1 0x20 PUSH1 0x40 MLOAD DUP1 DUP4 SUB DUP2 PUSH1 0x0 DUP8 GAS CALL ISZERO DUP1 ISZERO PUSH2 0x12E6 JUMPI RETURNDATASIZE PUSH1 0x0 DUP1 RETURNDATACOPY RETURNDATASIZE PUSH1 0x0 REVERT JUMPDEST POP POP POP POP PUSH1 0x40 MLOAD RETURNDATASIZE PUSH1 0x1F NOT PUSH1 0x1F DUP3 ADD AND DUP3 ADD DUP1 PUSH1 0x40 MSTORE POP DUP2 ADD SWAP1 PUSH2 0x130A SWAP2 SWAP1 PUSH2 0x5C20 JUMP JUMPDEST PUSH2 0x1313 JUMPI PUSH1 0x0 DUP1 REVERT JUMPDEST PUSH1 0x2 PUSH2 0x1325 PUSH1 0xE0 DUP6 ADD PUSH1 0xC0 DUP7 ADD PUSH2 0x5B99 JUMP JUMPDEST PUSH1 0x3 DUP2 GT ISZERO PUSH2 0x1336 JUMPI PUSH2 0x1336 PUSH2 0x5377 JUMP JUMPDEST EQ DUP1 PUSH2 0x1362 JUMPI POP PUSH1 0x3 PUSH2 0x134F PUSH1 0xE0 DUP6 ADD PUSH1 0xC0 DUP7 ADD PUSH2 0x5B99 JUMP JUMPDEST PUSH1 0x3 DUP2 GT ISZERO PUSH2 0x1360 JUMPI PUSH2 0x1360 PUSH2 0x5377 JUMP JUMPDEST EQ JUMPDEST ISZERO PUSH2 0x1438 JUMPI PUSH2 0x1377 PUSH1 0x80 DUP5 ADD PUSH1 0x60 DUP6 ADD PUSH2 0x524A JUMP JUMPDEST PUSH1 0x1 PUSH1 0x1 PUSH1 0xA0 SHL SUB AND PUSH4 0x23B872DD CALLER PUSH2 0x1396 PUSH1 0x60 DUP8 ADD PUSH1 0x40 DUP9 ADD PUSH2 0x524A JUMP JUMPDEST PUSH2 0x13B7 PUSH2 0x13A3 DUP7 DUP9 PUSH2 0x5C3D JUMP JUMPDEST PUSH1 0x5 PUSH1 0x0 PUSH2 0xDD7 PUSH1 0x80 DUP13 ADD PUSH1 0x60 DUP14 ADD PUSH2 0x524A JUMP JUMPDEST PUSH1 0x40 MLOAD PUSH1 0x1 PUSH1 0x1 PUSH1 0xE0 SHL SUB NOT PUSH1 0xE0 DUP7 SWAP1 SHL AND DUP2 MSTORE PUSH1 0x1 PUSH1 0x1 PUSH1 0xA0 SHL SUB SWAP4 DUP5 AND PUSH1 0x4 DUP3 ADD MSTORE SWAP3 SWAP1 SWAP2 AND PUSH1 0x24 DUP4 ADD MSTORE PUSH1 0x44 DUP3 ADD MSTORE PUSH1 0x64 ADD PUSH1 0x20 PUSH1 0x40 MLOAD DUP1 DUP4 SUB DUP2 PUSH1 0x0 DUP8 GAS CALL ISZERO DUP1 ISZERO PUSH2 0x140B JUMPI RETURNDATASIZE PUSH1 0x0 DUP1 RETURNDATACOPY RETURNDATASIZE PUSH1 0x0 REVERT JUMPDEST POP POP POP POP PUSH1 0x40 MLOAD RETURNDATASIZE PUSH1 0x1F NOT PUSH1 0x1F DUP3 ADD AND DUP3 ADD DUP1 PUSH1 0x40 MSTORE POP DUP2 ADD SWAP1 PUSH2 0x142F SWAP2 SWAP1 PUSH2 0x5C20 JUMP JUMPDEST PUSH2 0x1438 JUMPI PUSH1 0x0 DUP1 REVERT JUMPDEST POP POP POP JUMP JUMPDEST PUSH2 0x1445 PUSH2 0x466A JUMP JUMPDEST CALLER PUSH1 0x0 SWAP1 DUP2 MSTORE PUSH1 0x7 PUSH1 0x20 MSTORE PUSH1 0x40 DUP2 KECCAK256 PUSH1 0x1 ADD SLOAD PUSH8 0xFFFFFFFFFFFFFFFF DUP2 GT ISZERO PUSH2 0x1470 JUMPI PUSH2 0x1470 PUSH2 0x5448 JUMP JUMPDEST PUSH1 0x40 MLOAD SWAP1 DUP1 DUP3 MSTORE DUP1 PUSH1 0x20 MUL PUSH1 0x20 ADD DUP3 ADD PUSH1 0x40 MSTORE DUP1 ISZERO PUSH2 0x14CB JUMPI DUP2 PUSH1 0x20 ADD JUMPDEST PUSH2 0x14B8 PUSH1 0x40 DUP1 MLOAD PUSH1 0x80 DUP2 ADD DUP3 MSTORE PUSH1 0x0 DUP1 DUP3 MSTORE PUSH1 0x20 DUP3 ADD DUP2 SWAP1 MSTORE SWAP1 SWAP2 DUP3 ADD SWAP1 DUP2 MSTORE PUSH1 0x20 ADD PUSH1 0x0 SWAP1 MSTORE SWAP1 JUMP JUMPDEST DUP2 MSTORE PUSH1 0x20 ADD SWAP1 PUSH1 0x1 SWAP1 SUB SWAP1 DUP2 PUSH2 0x148E JUMPI SWAP1 POP JUMPDEST POP CALLER PUSH1 0x0 SWAP1 DUP2 MSTORE PUSH1 0x7 PUSH1 0x20 SWAP1 DUP2 MSTORE PUSH1 0x40 DUP1 DUP4 KECCAK256 PUSH1 0x1 ADD DUP1 SLOAD DUP3 MLOAD DUP2 DUP6 MUL DUP2 ADD DUP6 ADD SWAP1 SWAP4 MSTORE DUP1 DUP4 MSTORE SWAP5 SWAP6 POP SWAP1 SWAP4 SWAP1 SWAP3 SWAP1 SWAP2 DUP5 ADD JUMPDEST DUP3 DUP3 LT ISZERO PUSH2 0x15B4 JUMPI PUSH1 0x0 DUP5 DUP2 MSTORE PUSH1 0x20 SWAP1 DUP2 SWAP1 KECCAK256 PUSH1 0x40 DUP1 MLOAD PUSH1 0x80 DUP2 ADD DUP3 MSTORE PUSH1 0x2 DUP7 MUL SWAP1 SWAP3 ADD DUP1 SLOAD DUP4 MSTORE PUSH1 0x1 DUP2 ADD SLOAD PUSH2 0xFFFF DUP2 AND SWAP5 DUP5 ADD SWAP5 SWAP1 SWAP5 MSTORE SWAP2 SWAP3 SWAP1 DUP4 ADD SWAP1 PUSH3 0x10000 SWAP1 DIV PUSH1 0xFF AND PUSH1 0x3 DUP2 GT ISZERO PUSH2 0x1557 JUMPI PUSH2 0x1557 PUSH2 0x5377 JUMP JUMPDEST PUSH1 0x3 DUP2 GT ISZERO PUSH2 0x1568 JUMPI PUSH2 0x1568 PUSH2 0x5377 JUMP JUMPDEST DUP2 MSTORE PUSH1 0x20 ADD PUSH1 0x1 DUP3 ADD PUSH1 0x3 SWAP1 SLOAD SWAP1 PUSH2 0x100 EXP SWAP1 DIV PUSH1 0xFF AND PUSH1 0x2 DUP2 GT ISZERO PUSH2 0x1590 JUMPI PUSH2 0x1590 PUSH2 0x5377 JUMP JUMPDEST PUSH1 0x2 DUP2 GT ISZERO PUSH2 0x15A1 JUMPI PUSH2 0x15A1 PUSH2 0x5377 JUMP JUMPDEST DUP2 MSTORE POP POP DUP2 MSTORE PUSH1 0x20 ADD SWAP1 PUSH1 0x1 ADD SWAP1 PUSH2 0x14FE JUMP JUMPDEST POP POP CALLER PUSH1 0x0 SWAP1 DUP2 MSTORE PUSH1 0x7 PUSH1 0x20 MSTORE PUSH1 0x40 DUP2 KECCAK256 PUSH1 0x1 ADD SLOAD SWAP4 SWAP5 POP SWAP2 POP POP JUMPDEST DUP2 DUP2 LT ISZERO PUSH2 0x1668 JUMPI DUP4 PUSH1 0x0 ADD MLOAD DUP4 DUP3 DUP2 MLOAD DUP2 LT PUSH2 0x15EF JUMPI PUSH2 0x15EF PUSH2 0x5B68 JUMP JUMPDEST PUSH1 0x20 MUL PUSH1 0x20 ADD ADD MLOAD PUSH1 0x0 ADD MLOAD SUB PUSH2 0x1660 JUMPI CALLER PUSH1 0x0 SWAP1 DUP2 MSTORE PUSH1 0x7 PUSH1 0x20 MSTORE PUSH1 0x40 SWAP1 KECCAK256 PUSH1 0x1 ADD DUP1 SLOAD PUSH1 0x2 SWAP2 SWAP1 DUP4 SWAP1 DUP2 LT PUSH2 0x1628 JUMPI PUSH2 0x1628 PUSH2 0x5B68 JUMP JUMPDEST SWAP1 PUSH1 0x0 MSTORE PUSH1 0x20 PUSH1 0x0 KECCAK256 SWAP1 PUSH1 0x2 MUL ADD PUSH1 0x1 ADD PUSH1 0x3 PUSH2 0x100 EXP DUP2 SLOAD DUP2 PUSH1 0xFF MUL NOT AND SWAP1 DUP4 PUSH1 0x2 DUP2 GT ISZERO PUSH2 0x165A JUMPI PUSH2 0x165A PUSH2 0x5377 JUMP JUMPDEST MUL OR SWAP1 SSTORE POP JUMPDEST PUSH1 0x1 ADD PUSH2 0x15D0 JUMP JUMPDEST POP DUP3 MLOAD PUSH2 0x1675 SWAP1 CALLER PUSH2 0x4C7D JUMP JUMPDEST CALLER PUSH1 0x1 PUSH1 0x1 PUSH1 0xA0 SHL SUB AND DUP4 PUSH1 0x40 ADD MLOAD PUSH1 0x1 PUSH1 0x1 PUSH1 0xA0 SHL SUB AND DUP5 PUSH1 0x0 ADD MLOAD PUSH1 0x0 DUP1 MLOAD PUSH1 0x20 PUSH2 0x5F8F DUP4 CODECOPY DUP2 MLOAD SWAP2 MSTORE TIMESTAMP DUP8 PUSH1 0x20 ADD MLOAD DUP9 PUSH1 0x60 ADD MLOAD PUSH1 0x7 PUSH1 0x40 MLOAD PUSH2 0x16BE SWAP5 SWAP4 SWAP3 SWAP2 SWAP1 PUSH2 0x5B37 JUMP JUMPDEST PUSH1 0x40 MLOAD DUP1 SWAP2 SUB SWAP1 LOG4 DUP3 MLOAD PUSH1 0x0 SWAP1 DUP2 MSTORE PUSH1 0x9 PUSH1 0x20 DUP2 DUP2 MSTORE PUSH1 0x40 DUP1 DUP5 KECCAK256 CALLER DUP1 DUP7 MSTORE SWAP1 DUP4 MSTORE DUP2 DUP6 KECCAK256 SLOAD DUP9 MLOAD DUP7 MSTORE SWAP4 DUP4 MSTORE DUP2 DUP6 KECCAK256 DUP2 DUP7 MSTORE SWAP1 SWAP3 MSTORE DUP1 DUP5 KECCAK256 SWAP4 SWAP1 SWAP4 SSTORE DUP3 DUP7 ADD MLOAD DUP7 MLOAD PUSH1 0x60 DUP9 ADD MLOAD SWAP5 MLOAD SWAP4 SWAP5 SWAP3 SWAP4 PUSH1 0x1 PUSH1 0x1 PUSH1 0xA0 SHL SUB SWAP1 SWAP3 AND SWAP3 SWAP1 SWAP2 PUSH1 0x0 DUP1 MLOAD PUSH1 0x20 PUSH2 0x5F8F DUP4 CODECOPY DUP2 MLOAD SWAP2 MSTORE SWAP2 PUSH2 0x173A SWAP2 TIMESTAMP SWAP2 DUP9 SWAP2 PUSH1 0x4 SWAP1 PUSH2 0x5B37 JUMP JUMPDEST PUSH1 0x40 MLOAD DUP1 SWAP2 SUB SWAP1 LOG4 PUSH1 0x60 DUP5 ADD MLOAD PUSH1 0x40 DUP1 DUP7 ADD MLOAD PUSH1 0x1 PUSH1 0x1 PUSH1 0xA0 SHL SUB SWAP1 SWAP3 AND PUSH1 0x0 DUP2 DUP2 MSTORE PUSH1 0x5 PUSH1 0x20 MSTORE SWAP2 SWAP1 SWAP2 KECCAK256 PUSH1 0x2 ADD SLOAD SWAP1 SWAP2 PUSH4 0xA9059CBB SWAP2 PUSH2 0x1780 SWAP1 DUP6 SWAP1 PUSH1 0xFF AND PUSH2 0x49C1 JUMP JUMPDEST PUSH1 0x40 MLOAD PUSH1 0x1 PUSH1 0x1 PUSH1 0xE0 SHL SUB NOT PUSH1 0xE0 DUP6 SWAP1 SHL AND DUP2 MSTORE PUSH1 0x1 PUSH1 0x1 PUSH1 0xA0 SHL SUB SWAP1 SWAP3 AND PUSH1 0x4 DUP4 ADD MSTORE PUSH1 0x24 DUP3 ADD MSTORE PUSH1 0x44 ADD PUSH1 0x20 PUSH1 0x40 MLOAD DUP1 DUP4 SUB DUP2 PUSH1 0x0 DUP8 GAS CALL ISZERO DUP1 ISZERO PUSH2 0x17CB JUMPI RETURNDATASIZE PUSH1 0x0 DUP1 RETURNDATACOPY RETURNDATASIZE PUSH1 0x0 REVERT JUMPDEST POP POP POP POP PUSH1 0x40 MLOAD RETURNDATASIZE PUSH1 0x1F NOT PUSH1 0x1F DUP3 ADD AND DUP3 ADD DUP1 PUSH1 0x40 MSTORE POP DUP2 ADD SWAP1 PUSH2 0x17EF SWAP2 SWAP1 PUSH2 0x5C20 JUMP JUMPDEST PUSH2 0x1820 JUMPI PUSH1 0x40 MLOAD PUSH3 0x461BCD PUSH1 0xE5 SHL DUP2 MSTORE PUSH1 0x20 PUSH1 0x4 DUP3 ADD MSTORE PUSH1 0x2 PUSH1 0x24 DUP3 ADD MSTORE PUSH2 0x3231 PUSH1 0xF0 SHL PUSH1 0x44 DUP3 ADD MSTORE PUSH1 0x64 ADD PUSH2 0x657 JUMP JUMPDEST POP POP POP POP JUMP JUMPDEST PUSH2 0x182E PUSH2 0x45EA JUMP JUMPDEST PUSH1 0x1 PUSH1 0x1 PUSH1 0xA0 SHL SUB DUP4 AND PUSH2 0x1841 JUMPI PUSH1 0x0 DUP1 REVERT JUMPDEST PUSH2 0x184A DUP4 PUSH2 0x4633 JUMP JUMPDEST ISZERO PUSH2 0x187B JUMPI PUSH1 0x40 MLOAD PUSH3 0x461BCD PUSH1 0xE5 SHL DUP2 MSTORE PUSH1 0x20 PUSH1 0x4 DUP3 ADD MSTORE PUSH1 0x1 PUSH1 0x24 DUP3 ADD MSTORE PUSH1 0x31 PUSH1 0xF8 SHL PUSH1 0x44 DUP3 ADD MSTORE PUSH1 0x64 ADD PUSH2 0x657 JUMP JUMPDEST PUSH1 0x40 DUP1 MLOAD PUSH1 0x80 DUP2 ADD DUP3 MSTORE PUSH1 0x1 PUSH1 0x1 PUSH1 0xA0 SHL SUB SWAP5 DUP6 AND DUP1 DUP3 MSTORE PUSH1 0x20 DUP1 DUP4 ADD SWAP6 DUP7 MSTORE PUSH1 0xFF SWAP5 DUP6 AND DUP4 DUP6 ADD SWAP1 DUP2 MSTORE PUSH1 0x1 PUSH1 0x60 DUP6 ADD DUP2 DUP2 MSTORE PUSH1 0x0 SWAP5 DUP6 MSTORE PUSH1 0x5 SWAP1 SWAP4 MSTORE SWAP5 SWAP1 SWAP3 KECCAK256 SWAP3 MLOAD DUP4 SLOAD PUSH1 0x1 PUSH1 0x1 PUSH1 0xA0 SHL SUB NOT AND SWAP8 AND SWAP7 SWAP1 SWAP7 OR DUP3 SSTORE SWAP4 MLOAD SWAP2 DUP2 ADD SWAP2 SWAP1 SWAP2 SSTORE SWAP2 MLOAD PUSH1 0x2 SWAP1 SWAP3 ADD DUP1 SLOAD SWAP4 MLOAD SWAP3 SWAP1 SWAP2 AND PUSH2 0xFFFF NOT SWAP1 SWAP4 AND SWAP3 SWAP1 SWAP3 OR PUSH2 0x100 SWAP2 ISZERO ISZERO SWAP2 SWAP1 SWAP2 MUL OR SWAP1 SSTORE JUMP JUMPDEST PUSH1 0x6 SLOAD PUSH1 0x1 PUSH1 0xD0 SHL SWAP1 DIV PUSH1 0xFF AND PUSH2 0x191E JUMPI PUSH2 0x191E PUSH2 0x45EA JUMP JUMPDEST PUSH1 0x6 SLOAD PUSH1 0x1 PUSH1 0xD8 SHL SWAP1 DIV PUSH1 0xFF AND ISZERO PUSH2 0x1966 JUMPI CALLVALUE PUSH1 0x1 SLOAD GT ISZERO PUSH2 0x1966 JUMPI PUSH1 0x40 MLOAD PUSH3 0x461BCD PUSH1 0xE5 SHL DUP2 MSTORE PUSH1 0x20 PUSH1 0x4 DUP3 ADD MSTORE PUSH1 0x1 PUSH1 0x24 DUP3 ADD MSTORE PUSH1 0x35 PUSH1 0xF8 SHL PUSH1 0x44 DUP3 ADD MSTORE PUSH1 0x64 ADD PUSH2 0x657 JUMP JUMPDEST PUSH1 0x0 PUSH2 0x1971 TIMESTAMP PUSH2 0x4DC3 JUMP JUMPDEST PUSH1 0x6 SLOAD SWAP1 SWAP2 POP PUSH5 0xFFFFFFFFFF PUSH2 0x100 SWAP1 SWAP2 DIV DUP2 AND SWAP1 DUP3 AND LT ISZERO PUSH2 0x19BB JUMPI PUSH1 0x40 MLOAD PUSH3 0x461BCD PUSH1 0xE5 SHL DUP2 MSTORE PUSH1 0x20 PUSH1 0x4 DUP3 ADD MSTORE PUSH1 0x2 PUSH1 0x24 DUP3 ADD MSTORE PUSH2 0xC4D PUSH1 0xF2 SHL PUSH1 0x44 DUP3 ADD MSTORE PUSH1 0x64 ADD PUSH2 0x657 JUMP JUMPDEST PUSH1 0x40 DUP1 MLOAD PUSH1 0xC0 DUP2 ADD DUP3 MSTORE PUSH1 0x0 DUP1 DUP3 MSTORE PUSH1 0x20 DUP3 ADD DUP2 SWAP1 MSTORE SWAP2 DUP2 ADD DUP3 SWAP1 MSTORE PUSH1 0x60 DUP2 ADD DUP3 SWAP1 MSTORE PUSH1 0x80 DUP2 ADD DUP3 SWAP1 MSTORE PUSH1 0xA0 DUP2 ADD SWAP2 SWAP1 SWAP2 MSTORE PUSH1 0x1 SWAP1 PUSH1 0x6 SLOAD PUSH5 0xFFFFFFFFFF DUP5 DUP2 AND PUSH2 0x100 SWAP1 SWAP3 DIV AND EQ PUSH2 0x1A3B JUMPI PUSH1 0x6 SLOAD PUSH2 0x1A34 SWAP1 PUSH2 0x1A28 SWAP1 PUSH2 0x100 SWAP1 DIV PUSH5 0xFFFFFFFFFF AND PUSH3 0x15180 PUSH2 0x5C54 JUMP JUMPDEST PUSH5 0xFFFFFFFFFF AND PUSH2 0x4DD2 JUMP JUMPDEST SWAP1 POP PUSH2 0x1A47 JUMP JUMPDEST PUSH2 0x1A44 TIMESTAMP PUSH2 0x4DD2 JUMP JUMPDEST SWAP1 POP JUMPDEST PUSH1 0x0 DUP1 JUMPDEST PUSH1 0x3 DUP2 GT PUSH2 0x2743 JUMPI PUSH1 0x0 DUP2 PUSH2 0x1A61 JUMPI POP PUSH1 0x20 DUP4 ADD MLOAD JUMPDEST PUSH1 0x1 DUP3 SUB PUSH2 0x1A6D JUMPI POP DUP3 MLOAD JUMPDEST PUSH1 0x2 DUP3 SUB PUSH2 0x1A7C JUMPI POP PUSH1 0x40 DUP4 ADD MLOAD JUMPDEST PUSH1 0x3 DUP3 SUB PUSH2 0x1A8B JUMPI POP PUSH1 0x60 DUP4 ADD MLOAD JUMPDEST PUSH1 0x0 DUP3 DUP2 MSTORE PUSH1 0xA PUSH1 0x20 SWAP1 DUP2 MSTORE PUSH1 0x40 DUP1 DUP4 KECCAK256 PUSH2 0xFFFF DUP6 AND DUP5 MSTORE SWAP1 SWAP2 MSTORE DUP2 KECCAK256 SLOAD SWAP1 JUMPDEST DUP2 DUP2 LT ISZERO PUSH2 0x272D JUMPI PUSH1 0x0 DUP5 DUP2 MSTORE PUSH1 0xA PUSH1 0x20 SWAP1 DUP2 MSTORE PUSH1 0x40 DUP1 DUP4 KECCAK256 PUSH2 0xFFFF DUP8 AND DUP5 MSTORE SWAP1 SWAP2 MSTORE DUP2 KECCAK256 DUP1 SLOAD SWAP2 SWAP9 POP SWAP1 DUP3 SWAP1 DUP2 LT PUSH2 0x1AE6 JUMPI PUSH2 0x1AE6 PUSH2 0x5B68 JUMP JUMPDEST SWAP1 PUSH1 0x0 MSTORE PUSH1 0x20 PUSH1 0x0 KECCAK256 SWAP1 PUSH1 0x4 MUL ADD PUSH1 0x3 ADD PUSH1 0x15 SWAP1 SLOAD SWAP1 PUSH2 0x100 EXP SWAP1 DIV PUSH1 0xFF AND PUSH2 0x2725 JUMPI PUSH1 0x40 DUP1 MLOAD PUSH1 0x80 DUP2 ADD DUP3 MSTORE PUSH1 0x0 DUP7 DUP2 MSTORE PUSH1 0xA PUSH1 0x20 SWAP1 DUP2 MSTORE DUP4 DUP3 KECCAK256 PUSH2 0xFFFF DUP9 AND DUP4 MSTORE SWAP1 MSTORE SWAP2 DUP3 KECCAK256 DUP1 SLOAD DUP3 SWAP2 SWAP1 DUP6 SWAP1 DUP2 LT PUSH2 0x1B43 JUMPI PUSH2 0x1B43 PUSH2 0x5B68 JUMP JUMPDEST PUSH1 0x0 SWAP2 DUP3 MSTORE PUSH1 0x20 DUP1 DUP4 KECCAK256 PUSH1 0x4 SWAP1 SWAP3 MUL SWAP1 SWAP2 ADD SLOAD DUP4 MSTORE DUP9 DUP3 MSTORE PUSH1 0xA DUP2 MSTORE PUSH1 0x40 DUP1 DUP4 KECCAK256 PUSH2 0xFFFF DUP11 AND DUP5 MSTORE DUP3 MSTORE SWAP1 SWAP2 KECCAK256 DUP1 SLOAD SWAP3 SWAP1 SWAP2 ADD SWAP2 DUP6 SWAP1 DUP2 LT PUSH2 0x1B87 JUMPI PUSH2 0x1B87 PUSH2 0x5B68 JUMP JUMPDEST PUSH1 0x0 SWAP2 DUP3 MSTORE PUSH1 0x20 DUP1 DUP4 KECCAK256 PUSH1 0x3 PUSH1 0x4 SWAP1 SWAP4 MUL ADD SWAP2 SWAP1 SWAP2 ADD SLOAD PUSH1 0x1 PUSH1 0x1 PUSH1 0xA0 SHL SUB AND DUP4 MSTORE DUP9 DUP3 MSTORE PUSH1 0xA DUP2 MSTORE PUSH1 0x40 DUP1 DUP4 KECCAK256 PUSH2 0xFFFF DUP11 AND DUP5 MSTORE DUP3 MSTORE SWAP1 SWAP2 KECCAK256 DUP1 SLOAD SWAP3 SWAP1 SWAP2 ADD SWAP2 DUP6 SWAP1 DUP2 LT PUSH2 0x1BD8 JUMPI PUSH2 0x1BD8 PUSH2 0x5B68 JUMP JUMPDEST PUSH1 0x0 SWAP2 DUP3 MSTORE PUSH1 0x20 DUP1 DUP4 KECCAK256 PUSH1 0x2 PUSH1 0x4 SWAP1 SWAP4 MUL ADD SWAP2 SWAP1 SWAP2 ADD SLOAD PUSH1 0x1 PUSH1 0x1 PUSH1 0xA0 SHL SUB AND DUP4 MSTORE DUP9 DUP3 MSTORE PUSH1 0xA DUP2 MSTORE PUSH1 0x40 DUP1 DUP4 KECCAK256 PUSH2 0xFFFF DUP11 AND DUP5 MSTORE DUP3 MSTORE DUP3 KECCAK256 DUP1 SLOAD SWAP4 SWAP1 SWAP2 ADD SWAP3 PUSH1 0x5 SWAP3 SWAP2 SWAP1 DUP8 SWAP1 DUP2 LT PUSH2 0x1C2D JUMPI PUSH2 0x1C2D PUSH2 0x5B68 JUMP JUMPDEST PUSH1 0x0 SWAP2 DUP3 MSTORE PUSH1 0x20 DUP1 DUP4 KECCAK256 PUSH1 0x3 PUSH1 0x4 SWAP1 SWAP4 MUL ADD SWAP2 SWAP1 SWAP2 ADD SLOAD PUSH1 0x1 PUSH1 0x1 PUSH1 0xA0 SHL SUB AND DUP4 MSTORE DUP3 DUP2 ADD SWAP4 SWAP1 SWAP4 MSTORE PUSH1 0x40 SWAP2 DUP3 ADD DUP2 KECCAK256 PUSH1 0x2 ADD SLOAD PUSH1 0xFF AND SWAP1 SWAP4 MSTORE DUP9 DUP4 MSTORE PUSH1 0xA DUP3 MSTORE DUP1 DUP4 KECCAK256 PUSH2 0xFFFF DUP10 AND DUP5 MSTORE SWAP1 SWAP2 MSTORE DUP2 KECCAK256 DUP1 SLOAD SWAP3 SWAP4 POP SWAP1 SWAP2 PUSH2 0x1CB5 SWAP2 SWAP1 DUP6 SWAP1 DUP2 LT PUSH2 0x1C99 JUMPI PUSH2 0x1C99 PUSH2 0x5B68 JUMP JUMPDEST SWAP1 PUSH1 0x0 MSTORE PUSH1 0x20 PUSH1 0x0 KECCAK256 SWAP1 PUSH1 0x4 MUL ADD PUSH1 0x1 ADD SLOAD DUP4 PUSH1 0x60 ADD MLOAD PUSH2 0x49C1 JUMP JUMPDEST SWAP1 POP PUSH1 0x0 DUP2 PUSH2 0x2710 PUSH1 0x0 SLOAD DUP5 PUSH2 0x1CCB SWAP2 SWAP1 PUSH2 0x5C3D JUMP JUMPDEST PUSH2 0x1CD5 SWAP2 SWAP1 PUSH2 0x5BF9 JUMP JUMPDEST PUSH2 0x1CDF SWAP2 SWAP1 PUSH2 0x5C74 JUMP JUMPDEST DUP4 MLOAD PUSH1 0x0 SWAP1 DUP2 MSTORE PUSH1 0xB PUSH1 0x20 MSTORE PUSH1 0x40 DUP2 KECCAK256 SLOAD SWAP2 SWAP3 POP SWAP1 DUP2 DUP2 ISZERO PUSH2 0x1D09 JUMPI PUSH2 0x1D06 PUSH1 0x1 DUP4 PUSH2 0x5C74 JUMP JUMPDEST SWAP1 POP JUMPDEST PUSH1 0x0 JUMPDEST DUP3 DUP2 LT ISZERO PUSH2 0x271D JUMPI PUSH1 0x2 SLOAD DUP13 SUB PUSH2 0x1E74 JUMPI PUSH1 0x40 DUP1 MLOAD DUP1 DUP3 ADD SWAP1 SWAP2 MSTORE DUP8 MLOAD DUP1 DUP3 MSTORE PUSH1 0x20 SWAP2 DUP3 ADD DUP4 SWAP1 MSTORE PUSH1 0x3 SSTORE PUSH1 0x4 DUP3 SWAP1 SSTORE PUSH1 0x6 DUP1 SLOAD PUSH1 0xFF NOT AND SWAP1 SSTORE DUP8 ADD MLOAD PUSH1 0x60 DUP9 ADD MLOAD PUSH1 0x1 PUSH1 0x1 PUSH1 0xA0 SHL SUB SWAP1 SWAP2 AND SWAP1 PUSH4 0xA9059CBB SWAP1 CALLER SWAP1 PUSH2 0x1D6D SWAP1 DUP9 SWAP1 PUSH2 0x49C1 JUMP JUMPDEST PUSH1 0x40 MLOAD PUSH1 0x1 PUSH1 0x1 PUSH1 0xE0 SHL SUB NOT PUSH1 0xE0 DUP6 SWAP1 SHL AND DUP2 MSTORE PUSH1 0x1 PUSH1 0x1 PUSH1 0xA0 SHL SUB SWAP1 SWAP3 AND PUSH1 0x4 DUP4 ADD MSTORE PUSH1 0x24 DUP3 ADD MSTORE PUSH1 0x44 ADD PUSH1 0x20 PUSH1 0x40 MLOAD DUP1 DUP4 SUB DUP2 PUSH1 0x0 DUP8 GAS CALL ISZERO DUP1 ISZERO PUSH2 0x1DB8 JUMPI RETURNDATASIZE PUSH1 0x0 DUP1 RETURNDATACOPY RETURNDATASIZE PUSH1 0x0 REVERT JUMPDEST POP POP POP POP PUSH1 0x40 MLOAD RETURNDATASIZE PUSH1 0x1F NOT PUSH1 0x1F DUP3 ADD AND DUP3 ADD DUP1 PUSH1 0x40 MSTORE POP DUP2 ADD SWAP1 PUSH2 0x1DDC SWAP2 SWAP1 PUSH2 0x5C20 JUMP JUMPDEST PUSH2 0x1E0D JUMPI PUSH1 0x40 MLOAD PUSH3 0x461BCD PUSH1 0xE5 SHL DUP2 MSTORE PUSH1 0x20 PUSH1 0x4 DUP3 ADD MSTORE PUSH1 0x2 PUSH1 0x24 DUP3 ADD MSTORE PUSH2 0x1919 PUSH1 0xF1 SHL PUSH1 0x44 DUP3 ADD MSTORE PUSH1 0x64 ADD PUSH2 0x657 JUMP JUMPDEST PUSH1 0x6 SLOAD PUSH1 0x40 DUP1 MLOAD PUSH5 0xFFFFFFFFFF TIMESTAMP DUP2 AND DUP3 MSTORE PUSH2 0x100 SWAP1 SWAP4 DIV SWAP3 SWAP1 SWAP3 AND PUSH1 0x20 DUP4 ADD MSTORE PUSH1 0x0 SWAP1 DUP3 ADD MSTORE CALLER SWAP1 PUSH32 0x90192D7875364A53E351AE63FD2DFEF8DC941735B29FB0C504D06A0E21AE602E SWAP1 PUSH1 0x60 ADD PUSH1 0x40 MLOAD DUP1 SWAP2 SUB SWAP1 LOG2 POP POP POP POP POP POP POP POP POP POP POP POP POP POP POP JUMP JUMPDEST PUSH1 0x3 SLOAD DUP8 MLOAD EQ DUP1 ISZERO PUSH2 0x1E87 JUMPI POP PUSH1 0x4 SLOAD DUP2 EQ JUMPDEST ISZERO PUSH2 0x1E9A JUMPI PUSH1 0x6 DUP1 SLOAD PUSH1 0xFF NOT AND PUSH1 0x1 OR SWAP1 SSTORE JUMPDEST PUSH1 0x3 SLOAD ISZERO DUP1 PUSH2 0x1EB0 JUMPI POP PUSH1 0x6 SLOAD PUSH1 0xFF AND ISZERO ISZERO PUSH1 0x1 EQ JUMPDEST ISZERO PUSH2 0x2715 JUMPI DUP7 MLOAD PUSH1 0x0 SWAP1 DUP2 MSTORE PUSH1 0xB PUSH1 0x20 MSTORE PUSH1 0x40 DUP2 KECCAK256 DUP1 SLOAD DUP4 SWAP1 DUP2 LT PUSH2 0x1ED7 JUMPI PUSH2 0x1ED7 PUSH2 0x5B68 JUMP JUMPDEST PUSH1 0x0 SWAP2 DUP3 MSTORE PUSH1 0x20 SWAP2 DUP3 SWAP1 KECCAK256 ADD SLOAD SWAP1 DUP10 ADD MLOAD PUSH1 0x40 MLOAD PUSH4 0x6EB1769F PUSH1 0xE1 SHL DUP2 MSTORE PUSH1 0x1 PUSH1 0x1 PUSH1 0xA0 SHL SUB SWAP3 DUP4 AND PUSH1 0x4 DUP3 ADD DUP2 SWAP1 MSTORE ADDRESS PUSH1 0x24 DUP4 ADD MSTORE SWAP4 POP DUP10 SWAP3 SWAP1 SWAP2 AND SWAP1 PUSH4 0xDD62ED3E SWAP1 PUSH1 0x44 ADD PUSH1 0x20 PUSH1 0x40 MLOAD DUP1 DUP4 SUB DUP2 PUSH1 0x0 DUP8 GAS CALL ISZERO DUP1 ISZERO PUSH2 0x1F3D JUMPI RETURNDATASIZE PUSH1 0x0 DUP1 RETURNDATACOPY RETURNDATASIZE PUSH1 0x0 REVERT JUMPDEST POP POP POP POP PUSH1 0x40 MLOAD RETURNDATASIZE PUSH1 0x1F NOT PUSH1 0x1F DUP3 ADD AND DUP3 ADD DUP1 PUSH1 0x40 MSTORE POP DUP2 ADD SWAP1 PUSH2 0x1F61 SWAP2 SWAP1 PUSH2 0x5BB4 JUMP JUMPDEST LT ISZERO DUP1 ISZERO PUSH2 0x1FDE JUMPI POP PUSH1 0x20 DUP9 ADD MLOAD PUSH1 0x40 MLOAD PUSH4 0x70A08231 PUSH1 0xE0 SHL DUP2 MSTORE PUSH1 0x1 PUSH1 0x1 PUSH1 0xA0 SHL SUB DUP4 DUP2 AND PUSH1 0x4 DUP4 ADD MSTORE DUP10 SWAP3 AND SWAP1 PUSH4 0x70A08231 SWAP1 PUSH1 0x24 ADD PUSH1 0x20 PUSH1 0x40 MLOAD DUP1 DUP4 SUB DUP2 PUSH1 0x0 DUP8 GAS CALL ISZERO DUP1 ISZERO PUSH2 0x1FB8 JUMPI RETURNDATASIZE PUSH1 0x0 DUP1 RETURNDATACOPY RETURNDATASIZE PUSH1 0x0 REVERT JUMPDEST POP POP POP POP PUSH1 0x40 MLOAD RETURNDATASIZE PUSH1 0x1F NOT PUSH1 0x1F DUP3 ADD AND DUP3 ADD DUP1 PUSH1 0x40 MSTORE POP DUP2 ADD SWAP1 PUSH2 0x1FDC SWAP2 SWAP1 PUSH2 0x5BB4 JUMP JUMPDEST GT JUMPDEST ISZERO PUSH2 0x2415 JUMPI DUP13 PUSH2 0x1FED DUP2 PUSH2 0x5C87 JUMP JUMPDEST DUP10 MLOAD PUSH1 0x0 SWAP1 DUP2 MSTORE PUSH1 0x9 PUSH1 0x20 SWAP1 DUP2 MSTORE PUSH1 0x40 DUP1 DUP4 KECCAK256 PUSH1 0x1 PUSH1 0x1 PUSH1 0xA0 SHL SUB DUP8 AND DUP5 MSTORE SWAP1 SWAP2 MSTORE SWAP1 KECCAK256 SLOAD SWAP1 SWAP15 POP DUP8 LT ISZERO SWAP1 POP PUSH2 0x2196 JUMPI PUSH2 0x2028 DUP7 DUP7 PUSH2 0x5C0D JUMP JUMPDEST DUP9 MLOAD PUSH1 0x0 SWAP1 DUP2 MSTORE PUSH1 0x9 PUSH1 0x20 SWAP1 DUP2 MSTORE PUSH1 0x40 DUP1 DUP4 KECCAK256 PUSH1 0x1 PUSH1 0x1 PUSH1 0xA0 SHL SUB DUP7 AND DUP5 MSTORE SWAP1 SWAP2 MSTORE DUP2 KECCAK256 DUP1 SLOAD SWAP3 SWAP8 POP DUP9 SWAP3 SWAP1 SWAP2 SWAP1 PUSH2 0x2061 SWAP1 DUP5 SWAP1 PUSH2 0x5C74 JUMP JUMPDEST SWAP3 POP POP DUP2 SWAP1 SSTORE POP DUP1 PUSH1 0x1 PUSH1 0x1 PUSH1 0xA0 SHL SUB AND DUP9 PUSH1 0x40 ADD MLOAD PUSH1 0x1 PUSH1 0x1 PUSH1 0xA0 SHL SUB AND DUP10 PUSH1 0x0 ADD MLOAD PUSH1 0x0 DUP1 MLOAD PUSH1 0x20 PUSH2 0x5F8F DUP4 CODECOPY DUP2 MLOAD SWAP2 MSTORE TIMESTAMP DUP12 DUP14 PUSH1 0x20 ADD MLOAD PUSH1 0x5 PUSH1 0x40 MLOAD PUSH2 0x20AD SWAP5 SWAP4 SWAP3 SWAP2 SWAP1 PUSH2 0x5B37 JUMP JUMPDEST PUSH1 0x40 MLOAD DUP1 SWAP2 SUB SWAP1 LOG4 DUP1 PUSH1 0x1 PUSH1 0x1 PUSH1 0xA0 SHL SUB AND DUP9 PUSH1 0x40 ADD MLOAD PUSH1 0x1 PUSH1 0x1 PUSH1 0xA0 SHL SUB AND DUP10 PUSH1 0x0 ADD MLOAD PUSH1 0x0 DUP1 MLOAD PUSH1 0x20 PUSH2 0x5F8F DUP4 CODECOPY DUP2 MLOAD SWAP2 MSTORE TIMESTAMP PUSH1 0x0 DUP14 PUSH1 0x20 ADD MLOAD PUSH1 0x2 PUSH1 0x40 MLOAD PUSH2 0x20FB SWAP5 SWAP4 SWAP3 SWAP2 SWAP1 PUSH2 0x5B37 JUMP JUMPDEST PUSH1 0x40 MLOAD DUP1 SWAP2 SUB SWAP1 LOG4 PUSH1 0x20 DUP9 ADD MLOAD PUSH1 0x40 DUP1 DUP11 ADD MLOAD SWAP1 MLOAD PUSH4 0x23B872DD PUSH1 0xE0 SHL DUP2 MSTORE PUSH1 0x1 PUSH1 0x1 PUSH1 0xA0 SHL SUB DUP5 DUP2 AND PUSH1 0x4 DUP4 ADD MSTORE SWAP2 DUP3 AND PUSH1 0x24 DUP3 ADD MSTORE PUSH1 0x44 DUP2 ADD DUP11 SWAP1 MSTORE SWAP2 AND SWAP1 PUSH4 0x23B872DD SWAP1 PUSH1 0x64 ADD PUSH1 0x20 PUSH1 0x40 MLOAD DUP1 DUP4 SUB DUP2 PUSH1 0x0 DUP8 GAS CALL ISZERO DUP1 ISZERO PUSH2 0x2164 JUMPI RETURNDATASIZE PUSH1 0x0 DUP1 RETURNDATACOPY RETURNDATASIZE PUSH1 0x0 REVERT JUMPDEST POP POP POP POP PUSH1 0x40 MLOAD RETURNDATASIZE PUSH1 0x1F NOT PUSH1 0x1F DUP3 ADD AND DUP3 ADD DUP1 PUSH1 0x40 MSTORE POP DUP2 ADD SWAP1 PUSH2 0x2188 SWAP2 SWAP1 PUSH2 0x5C20 JUMP JUMPDEST PUSH2 0x2191 JUMPI PUSH1 0x0 DUP1 REVERT JUMPDEST PUSH2 0x263D JUMP JUMPDEST DUP8 MLOAD PUSH1 0x0 SWAP1 DUP2 MSTORE PUSH1 0x9 PUSH1 0x20 SWAP1 DUP2 MSTORE PUSH1 0x40 DUP1 DUP4 KECCAK256 PUSH1 0x1 PUSH1 0x1 PUSH1 0xA0 SHL SUB DUP6 AND DUP5 MSTORE SWAP1 SWAP2 MSTORE SWAP1 KECCAK256 SLOAD PUSH2 0x21C5 SWAP1 DUP7 PUSH2 0x5C0D JUMP JUMPDEST DUP9 MLOAD PUSH1 0x0 SWAP1 DUP2 MSTORE PUSH1 0x9 PUSH1 0x20 SWAP1 DUP2 MSTORE PUSH1 0x40 DUP1 DUP4 KECCAK256 PUSH1 0x1 PUSH1 0x1 PUSH1 0xA0 SHL SUB DUP1 DUP8 AND DUP1 DUP7 MSTORE SWAP2 DUP5 MSTORE DUP3 DUP6 KECCAK256 SWAP5 SWAP1 SWAP5 SSTORE DUP2 DUP14 ADD MLOAD DUP14 MLOAD SWAP4 DUP15 ADD MLOAD SWAP3 MLOAD SWAP6 SWAP11 POP SWAP1 SWAP5 SWAP4 AND SWAP3 PUSH1 0x0 DUP1 MLOAD PUSH1 0x20 PUSH2 0x5F8F DUP4 CODECOPY DUP2 MLOAD SWAP2 MSTORE SWAP2 PUSH2 0x2224 SWAP2 TIMESTAMP SWAP2 DUP15 SWAP2 PUSH1 0x8 SWAP1 PUSH2 0x5B37 JUMP JUMPDEST PUSH1 0x40 MLOAD DUP1 SWAP2 SUB SWAP1 LOG4 DUP7 PUSH1 0x1 PUSH1 0x2 DUP15 SWAP1 SUB PUSH2 0x224E JUMPI PUSH2 0x2243 PUSH1 0x3 DUP4 PUSH2 0x5BF9 JUMP JUMPDEST SWAP2 POP PUSH1 0x2 SWAP1 POP PUSH2 0x2268 JUMP JUMPDEST DUP14 PUSH1 0x3 SUB PUSH2 0x2268 JUMPI PUSH2 0x2261 PUSH1 0xC DUP4 PUSH2 0x5BF9 JUMP JUMPDEST SWAP2 POP PUSH1 0xB SWAP1 POP JUMPDEST DUP10 MLOAD PUSH1 0x0 SWAP1 DUP2 MSTORE PUSH1 0x9 PUSH1 0x20 SWAP1 DUP2 MSTORE PUSH1 0x40 DUP1 DUP4 KECCAK256 PUSH1 0x1 PUSH1 0x1 PUSH1 0xA0 SHL SUB DUP8 AND DUP5 MSTORE SWAP1 SWAP2 MSTORE DUP2 KECCAK256 DUP1 SLOAD DUP5 SWAP3 SWAP1 PUSH2 0x229C SWAP1 DUP5 SWAP1 PUSH2 0x5C0D JUMP JUMPDEST SWAP3 POP POP DUP2 SWAP1 SSTORE POP DUP10 PUSH1 0x20 ADD MLOAD PUSH1 0x1 PUSH1 0x1 PUSH1 0xA0 SHL SUB AND PUSH4 0x23B872DD DUP5 ADDRESS PUSH2 0x22C6 DUP7 DUP16 PUSH1 0x60 ADD MLOAD PUSH2 0x49C1 JUMP JUMPDEST PUSH1 0x40 MLOAD PUSH1 0x1 PUSH1 0x1 PUSH1 0xE0 SHL SUB NOT PUSH1 0xE0 DUP7 SWAP1 SHL AND DUP2 MSTORE PUSH1 0x1 PUSH1 0x1 PUSH1 0xA0 SHL SUB SWAP4 DUP5 AND PUSH1 0x4 DUP3 ADD MSTORE SWAP3 SWAP1 SWAP2 AND PUSH1 0x24 DUP4 ADD MSTORE PUSH1 0x44 DUP3 ADD MSTORE PUSH1 0x64 ADD PUSH1 0x20 PUSH1 0x40 MLOAD DUP1 DUP4 SUB DUP2 PUSH1 0x0 DUP8 GAS CALL ISZERO DUP1 ISZERO PUSH2 0x231A JUMPI RETURNDATASIZE PUSH1 0x0 DUP1 RETURNDATACOPY RETURNDATASIZE PUSH1 0x0 REVERT JUMPDEST POP POP POP POP PUSH1 0x40 MLOAD RETURNDATASIZE PUSH1 0x1F NOT PUSH1 0x1F DUP3 ADD AND DUP3 ADD DUP1 PUSH1 0x40 MSTORE POP DUP2 ADD SWAP1 PUSH2 0x233E SWAP2 SWAP1 PUSH2 0x5C20 JUMP JUMPDEST PUSH2 0x2347 JUMPI PUSH1 0x0 DUP1 REVERT JUMPDEST DUP14 PUSH1 0x2 EQ DUP1 PUSH2 0x2356 JUMPI POP DUP14 PUSH1 0x3 EQ JUMPDEST ISZERO PUSH2 0x240E JUMPI DUP10 PUSH1 0x20 ADD MLOAD PUSH1 0x1 PUSH1 0x1 PUSH1 0xA0 SHL SUB AND PUSH4 0x23B872DD DUP5 DUP13 PUSH1 0x40 ADD MLOAD PUSH2 0x238D DUP6 DUP8 PUSH2 0x2383 SWAP2 SWAP1 PUSH2 0x5C3D JUMP JUMPDEST DUP16 PUSH1 0x60 ADD MLOAD PUSH2 0x49C1 JUMP JUMPDEST PUSH1 0x40 MLOAD PUSH1 0x1 PUSH1 0x1 PUSH1 0xE0 SHL SUB NOT PUSH1 0xE0 DUP7 SWAP1 SHL AND DUP2 MSTORE PUSH1 0x1 PUSH1 0x1 PUSH1 0xA0 SHL SUB SWAP4 DUP5 AND PUSH1 0x4 DUP3 ADD MSTORE SWAP3 SWAP1 SWAP2 AND PUSH1 0x24 DUP4 ADD MSTORE PUSH1 0x44 DUP3 ADD MSTORE PUSH1 0x64 ADD PUSH1 0x20 PUSH1 0x40 MLOAD DUP1 DUP4 SUB DUP2 PUSH1 0x0 DUP8 GAS CALL ISZERO DUP1 ISZERO PUSH2 0x23E1 JUMPI RETURNDATASIZE PUSH1 0x0 DUP1 RETURNDATACOPY RETURNDATASIZE PUSH1 0x0 REVERT JUMPDEST POP POP POP POP PUSH1 0x40 MLOAD RETURNDATASIZE PUSH1 0x1F NOT PUSH1 0x1F DUP3 ADD AND DUP3 ADD DUP1 PUSH1 0x40 MSTORE POP DUP2 ADD SWAP1 PUSH2 0x2405 SWAP2 SWAP1 PUSH2 0x5C20 JUMP JUMPDEST PUSH2 0x240E JUMPI PUSH1 0x0 DUP1 REVERT JUMPDEST POP POP PUSH2 0x263D JUMP JUMPDEST DUP13 PUSH2 0x241F DUP2 PUSH2 0x5C87 JUMP JUMPDEST DUP10 MLOAD PUSH1 0x0 SWAP1 DUP2 MSTORE PUSH1 0x9 PUSH1 0x20 SWAP1 DUP2 MSTORE PUSH1 0x40 DUP1 DUP4 KECCAK256 PUSH1 0x1 PUSH1 0x1 PUSH1 0xA0 SHL SUB DUP8 AND DUP5 MSTORE SWAP1 SWAP2 MSTORE SWAP1 KECCAK256 SLOAD SWAP1 SWAP15 POP DUP8 LT ISZERO SWAP1 POP PUSH2 0x2595 JUMPI PUSH2 0x245A DUP7 DUP7 PUSH2 0x5C0D JUMP JUMPDEST DUP9 MLOAD PUSH1 0x0 SWAP1 DUP2 MSTORE PUSH1 0x9 PUSH1 0x20 SWAP1 DUP2 MSTORE PUSH1 0x40 DUP1 DUP4 KECCAK256 PUSH1 0x1 PUSH1 0x1 PUSH1 0xA0 SHL SUB DUP7 AND DUP5 MSTORE SWAP1 SWAP2 MSTORE DUP2 KECCAK256 SLOAD SWAP2 SWAP7 POP SWAP1 PUSH2 0x248E SWAP1 DUP9 SWAP1 PUSH2 0x5C74 JUMP JUMPDEST DUP10 MLOAD PUSH1 0x0 SWAP1 DUP2 MSTORE PUSH1 0x9 PUSH1 0x20 SWAP1 DUP2 MSTORE PUSH1 0x40 DUP1 DUP4 KECCAK256 PUSH1 0x1 PUSH1 0x1 PUSH1 0xA0 SHL SUB DUP1 DUP9 AND DUP1 DUP7 MSTORE SWAP2 DUP5 MSTORE DUP3 DUP6 KECCAK256 SWAP5 SWAP1 SWAP5 SSTORE DUP2 DUP15 ADD MLOAD DUP15 MLOAD SWAP4 DUP16 ADD MLOAD SWAP3 MLOAD SWAP6 SWAP7 POP SWAP1 SWAP5 SWAP4 AND SWAP3 PUSH1 0x0 DUP1 MLOAD PUSH1 0x20 PUSH2 0x5F8F DUP4 CODECOPY DUP2 MLOAD SWAP2 MSTORE SWAP2 PUSH2 0x24ED SWAP2 TIMESTAMP SWAP2 DUP9 SWAP2 PUSH1 0x4 SWAP1 PUSH2 0x5B37 JUMP JUMPDEST PUSH1 0x40 MLOAD DUP1 SWAP2 SUB SWAP1 LOG4 DUP9 PUSH1 0x20 ADD MLOAD PUSH1 0x1 PUSH1 0x1 PUSH1 0xA0 SHL SUB AND PUSH4 0xA9059CBB DUP11 PUSH1 0x40 ADD MLOAD PUSH2 0x251B DUP5 DUP14 PUSH1 0x60 ADD MLOAD PUSH2 0x49C1 JUMP JUMPDEST PUSH1 0x40 MLOAD PUSH1 0x1 PUSH1 0x1 PUSH1 0xE0 SHL SUB NOT PUSH1 0xE0 DUP6 SWAP1 SHL AND DUP2 MSTORE PUSH1 0x1 PUSH1 0x1 PUSH1 0xA0 SHL SUB SWAP1 SWAP3 AND PUSH1 0x4 DUP4 ADD MSTORE PUSH1 0x24 DUP3 ADD MSTORE PUSH1 0x44 ADD PUSH1 0x20 PUSH1 0x40 MLOAD DUP1 DUP4 SUB DUP2 PUSH1 0x0 DUP8 GAS CALL ISZERO DUP1 ISZERO PUSH2 0x2566 JUMPI RETURNDATASIZE PUSH1 0x0 DUP1 RETURNDATACOPY RETURNDATASIZE PUSH1 0x0 REVERT JUMPDEST POP POP POP POP PUSH1 0x40 MLOAD RETURNDATASIZE PUSH1 0x1F NOT PUSH1 0x1F DUP3 ADD AND DUP3 ADD DUP1 PUSH1 0x40 MSTORE POP DUP2 ADD SWAP1 PUSH2 0x258A SWAP2 SWAP1 PUSH2 0x5C20 JUMP JUMPDEST PUSH2 0x2593 JUMPI PUSH1 0x0 DUP1 REVERT JUMPDEST POP JUMPDEST DUP8 MLOAD PUSH2 0x25A1 SWAP1 DUP3 PUSH2 0x4C7D JUMP JUMPDEST DUP1 PUSH1 0x1 PUSH1 0x1 PUSH1 0xA0 SHL SUB AND DUP9 PUSH1 0x40 ADD MLOAD PUSH1 0x1 PUSH1 0x1 PUSH1 0xA0 SHL SUB AND DUP10 PUSH1 0x0 ADD MLOAD PUSH1 0x0 DUP1 MLOAD PUSH1 0x20 PUSH2 0x5F8F DUP4 CODECOPY DUP2 MLOAD SWAP2 MSTORE TIMESTAMP DUP12 DUP14 PUSH1 0x20 ADD MLOAD PUSH1 0x7 PUSH1 0x40 MLOAD PUSH2 0x25E6 SWAP5 SWAP4 SWAP3 SWAP2 SWAP1 PUSH2 0x5B37 JUMP JUMPDEST PUSH1 0x40 MLOAD DUP1 SWAP2 SUB SWAP1 LOG4 DUP1 PUSH1 0x1 PUSH1 0x1 PUSH1 0xA0 SHL SUB AND DUP9 PUSH1 0x40 ADD MLOAD PUSH1 0x1 PUSH1 0x1 PUSH1 0xA0 SHL SUB AND DUP10 PUSH1 0x0 ADD MLOAD PUSH1 0x0 DUP1 MLOAD PUSH1 0x20 PUSH2 0x5F8F DUP4 CODECOPY DUP2 MLOAD SWAP2 MSTORE TIMESTAMP PUSH1 0x0 DUP14 PUSH1 0x20 ADD MLOAD PUSH1 0x3 PUSH1 0x40 MLOAD PUSH2 0x2634 SWAP5 SWAP4 SWAP3 SWAP2 SWAP1 PUSH2 0x5B37 JUMP JUMPDEST PUSH1 0x40 MLOAD DUP1 SWAP2 SUB SWAP1 LOG4 JUMPDEST DUP3 DUP3 EQ DUP1 ISZERO PUSH2 0x264C JUMPI POP PUSH1 0x0 DUP5 GT JUMPDEST ISZERO PUSH2 0x2713 JUMPI DUP8 PUSH1 0x20 ADD MLOAD PUSH1 0x1 PUSH1 0x1 PUSH1 0xA0 SHL SUB AND PUSH4 0xA9059CBB CALLER PUSH2 0x2673 DUP9 DUP13 PUSH1 0x60 ADD MLOAD PUSH2 0x49C1 JUMP JUMPDEST PUSH1 0x40 MLOAD PUSH1 0x1 PUSH1 0x1 PUSH1 0xE0 SHL SUB NOT PUSH1 0xE0 DUP6 SWAP1 SHL AND DUP2 MSTORE PUSH1 0x1 PUSH1 0x1 PUSH1 0xA0 SHL SUB SWAP1 SWAP3 AND PUSH1 0x4 DUP4 ADD MSTORE PUSH1 0x24 DUP3 ADD MSTORE PUSH1 0x44 ADD PUSH1 0x20 PUSH1 0x40 MLOAD DUP1 DUP4 SUB DUP2 PUSH1 0x0 DUP8 GAS CALL ISZERO DUP1 ISZERO PUSH2 0x26BE JUMPI RETURNDATASIZE PUSH1 0x0 DUP1 RETURNDATACOPY RETURNDATASIZE PUSH1 0x0 REVERT JUMPDEST POP POP POP POP PUSH1 0x40 MLOAD RETURNDATASIZE PUSH1 0x1F NOT PUSH1 0x1F DUP3 ADD AND DUP3 ADD DUP1 PUSH1 0x40 MSTORE POP DUP2 ADD SWAP1 PUSH2 0x26E2 SWAP2 SWAP1 PUSH2 0x5C20 JUMP JUMPDEST PUSH2 0x2713 JUMPI PUSH1 0x40 MLOAD PUSH3 0x461BCD PUSH1 0xE5 SHL DUP2 MSTORE PUSH1 0x20 PUSH1 0x4 DUP3 ADD MSTORE PUSH1 0x2 PUSH1 0x24 DUP3 ADD MSTORE PUSH2 0x1919 PUSH1 0xF1 SHL PUSH1 0x44 DUP3 ADD MSTORE PUSH1 0x64 ADD PUSH2 0x657 JUMP JUMPDEST POP JUMPDEST PUSH1 0x1 ADD PUSH2 0x1D0C JUMP JUMPDEST POP POP POP POP POP POP POP JUMPDEST PUSH1 0x1 ADD PUSH2 0x1AAB JUMP JUMPDEST POP POP POP DUP1 DUP1 PUSH2 0x273B SWAP1 PUSH2 0x5C87 JUMP JUMPDEST SWAP2 POP POP PUSH2 0x1A4B JUMP JUMPDEST POP PUSH1 0x0 PUSH1 0x3 DUP2 SWAP1 SSTORE PUSH1 0x4 SSTORE PUSH1 0x6 DUP1 SLOAD PUSH1 0xFF NOT AND SWAP1 DUP2 SWAP1 SSTORE PUSH1 0x40 DUP1 MLOAD PUSH5 0xFFFFFFFFFF TIMESTAMP DUP2 AND DUP3 MSTORE PUSH2 0x100 SWAP1 SWAP4 DIV SWAP1 SWAP3 AND PUSH1 0x20 DUP4 ADD MSTORE PUSH1 0x1 SWAP1 DUP3 ADD MSTORE CALLER SWAP1 PUSH32 0x90192D7875364A53E351AE63FD2DFEF8DC941735B29FB0C504D06A0E21AE602E SWAP1 PUSH1 0x60 ADD PUSH1 0x40 MLOAD DUP1 SWAP2 SUB SWAP1 LOG2 PUSH1 0x1 PUSH1 0x6 PUSH1 0x1 DUP3 DUP3 DUP3 SWAP1 SLOAD SWAP1 PUSH2 0x100 EXP SWAP1 DIV PUSH5 0xFFFFFFFFFF AND PUSH2 0x27CF SWAP2 SWAP1 PUSH2 0x5CA0 JUMP JUMPDEST SWAP3 POP PUSH2 0x100 EXP DUP2 SLOAD DUP2 PUSH5 0xFFFFFFFFFF MUL NOT AND SWAP1 DUP4 PUSH5 0xFFFFFFFFFF AND MUL OR SWAP1 SSTORE POP DUP3 ISZERO PUSH2 0x1820 JUMPI PUSH2 0x1820 PUSH2 0x1905 JUMP JUMPDEST PUSH1 0x0 DUP2 DUP2 MSTORE PUSH1 0xB PUSH1 0x20 MSTORE PUSH1 0x40 DUP2 KECCAK256 SLOAD PUSH1 0x60 SWAP2 SWAP1 PUSH8 0xFFFFFFFFFFFFFFFF DUP2 GT ISZERO PUSH2 0x2828 JUMPI PUSH2 0x2828 PUSH2 0x5448 JUMP JUMPDEST PUSH1 0x40 MLOAD SWAP1 DUP1 DUP3 MSTORE DUP1 PUSH1 0x20 MUL PUSH1 0x20 ADD DUP3 ADD PUSH1 0x40 MSTORE DUP1 ISZERO PUSH2 0x2851 JUMPI DUP2 PUSH1 0x20 ADD PUSH1 0x20 DUP3 MUL DUP1 CALLDATASIZE DUP4 CALLDATACOPY ADD SWAP1 POP JUMPDEST POP PUSH1 0x0 DUP5 DUP2 MSTORE PUSH1 0xB PUSH1 0x20 SWAP1 DUP2 MSTORE PUSH1 0x40 SWAP2 DUP3 SWAP1 KECCAK256 DUP1 SLOAD DUP4 MLOAD DUP2 DUP5 MUL DUP2 ADD DUP5 ADD SWAP1 SWAP5 MSTORE DUP1 DUP5 MSTORE SWAP4 SWAP5 POP SWAP2 SWAP3 SWAP1 DUP4 ADD DUP3 DUP3 DUP1 ISZERO PUSH2 0x28B4 JUMPI PUSH1 0x20 MUL DUP3 ADD SWAP2 SWAP1 PUSH1 0x0 MSTORE PUSH1 0x20 PUSH1 0x0 KECCAK256 SWAP1 JUMPDEST DUP2 SLOAD PUSH1 0x1 PUSH1 0x1 PUSH1 0xA0 SHL SUB AND DUP2 MSTORE PUSH1 0x1 SWAP1 SWAP2 ADD SWAP1 PUSH1 0x20 ADD DUP1 DUP4 GT PUSH2 0x2896 JUMPI JUMPDEST POP POP POP PUSH1 0x0 DUP7 DUP2 MSTORE PUSH1 0xB PUSH1 0x20 MSTORE PUSH1 0x40 DUP2 KECCAK256 SLOAD SWAP4 SWAP5 POP SWAP3 SWAP2 POP POP PUSH8 0xFFFFFFFFFFFFFFFF DUP2 GT ISZERO PUSH2 0x28E5 JUMPI PUSH2 0x28E5 PUSH2 0x5448 JUMP JUMPDEST PUSH1 0x40 MLOAD SWAP1 DUP1 DUP3 MSTORE DUP1 PUSH1 0x20 MUL PUSH1 0x20 ADD DUP3 ADD PUSH1 0x40 MSTORE DUP1 ISZERO PUSH2 0x292A JUMPI DUP2 PUSH1 0x20 ADD JUMPDEST PUSH1 0x40 DUP1 MLOAD DUP1 DUP3 ADD SWAP1 SWAP2 MSTORE PUSH1 0x0 DUP1 DUP3 MSTORE PUSH1 0x20 DUP3 ADD MSTORE DUP2 MSTORE PUSH1 0x20 ADD SWAP1 PUSH1 0x1 SWAP1 SUB SWAP1 DUP2 PUSH2 0x2903 JUMPI SWAP1 POP JUMPDEST POP SWAP1 POP PUSH1 0x0 JUMPDEST DUP3 MLOAD DUP2 LT ISZERO PUSH2 0x29EB JUMPI PUSH1 0x0 DUP6 DUP2 MSTORE PUSH1 0x9 PUSH1 0x20 MSTORE PUSH1 0x40 DUP2 KECCAK256 DUP5 MLOAD DUP3 SWAP1 DUP7 SWAP1 DUP6 SWAP1 DUP2 LT PUSH2 0x295D JUMPI PUSH2 0x295D PUSH2 0x5B68 JUMP JUMPDEST PUSH1 0x20 MUL PUSH1 0x20 ADD ADD MLOAD PUSH1 0x1 PUSH1 0x1 PUSH1 0xA0 SHL SUB AND PUSH1 0x1 PUSH1 0x1 PUSH1 0xA0 SHL SUB AND DUP2 MSTORE PUSH1 0x20 ADD SWAP1 DUP2 MSTORE PUSH1 0x20 ADD PUSH1 0x0 KECCAK256 SLOAD SWAP1 POP PUSH1 0x0 PUSH1 0x40 MLOAD DUP1 PUSH1 0x40 ADD PUSH1 0x40 MSTORE DUP1 DUP7 DUP6 DUP2 MLOAD DUP2 LT PUSH2 0x29A7 JUMPI PUSH2 0x29A7 PUSH2 0x5B68 JUMP JUMPDEST PUSH1 0x20 MUL PUSH1 0x20 ADD ADD MLOAD PUSH1 0x1 PUSH1 0x1 PUSH1 0xA0 SHL SUB AND DUP2 MSTORE PUSH1 0x20 ADD DUP4 DUP2 MSTORE POP SWAP1 POP DUP1 DUP5 DUP5 DUP2 MLOAD DUP2 LT PUSH2 0x29D6 JUMPI PUSH2 0x29D6 PUSH2 0x5B68 JUMP JUMPDEST PUSH1 0x20 SWAP1 DUP2 MUL SWAP2 SWAP1 SWAP2 ADD ADD MSTORE POP POP PUSH1 0x1 ADD PUSH2 0x2930 JUMP JUMPDEST POP SWAP4 SWAP3 POP POP POP JUMP JUMPDEST PUSH1 0x60 DUP1 DUP4 ISZERO PUSH2 0x2AF3 JUMPI PUSH1 0x1 PUSH1 0x1 PUSH1 0xA0 SHL SUB DUP4 AND PUSH1 0x0 SWAP1 DUP2 MSTORE PUSH1 0x7 PUSH1 0x20 SWAP1 DUP2 MSTORE PUSH1 0x40 DUP1 DUP4 KECCAK256 PUSH1 0x1 ADD DUP1 SLOAD DUP3 MLOAD DUP2 DUP6 MUL DUP2 ADD DUP6 ADD SWAP1 SWAP4 MSTORE DUP1 DUP4 MSTORE SWAP2 SWAP4 SWAP1 SWAP3 DUP5 ADD JUMPDEST DUP3 DUP3 LT ISZERO PUSH2 0x2AE8 JUMPI PUSH1 0x0 DUP5 DUP2 MSTORE PUSH1 0x20 SWAP1 DUP2 SWAP1 KECCAK256 PUSH1 0x40 DUP1 MLOAD PUSH1 0x80 DUP2 ADD DUP3 MSTORE PUSH1 0x2 DUP7 MUL SWAP1 SWAP3 ADD DUP1 SLOAD DUP4 MSTORE PUSH1 0x1 DUP2 ADD SLOAD PUSH2 0xFFFF DUP2 AND SWAP5 DUP5 ADD SWAP5 SWAP1 SWAP5 MSTORE SWAP2 SWAP3 SWAP1 DUP4 ADD SWAP1 PUSH3 0x10000 SWAP1 DIV PUSH1 0xFF AND PUSH1 0x3 DUP2 GT ISZERO PUSH2 0x2A8B JUMPI PUSH2 0x2A8B PUSH2 0x5377 JUMP JUMPDEST PUSH1 0x3 DUP2 GT ISZERO PUSH2 0x2A9C JUMPI PUSH2 0x2A9C PUSH2 0x5377 JUMP JUMPDEST DUP2 MSTORE PUSH1 0x20 ADD PUSH1 0x1 DUP3 ADD PUSH1 0x3 SWAP1 SLOAD SWAP1 PUSH2 0x100 EXP SWAP1 DIV PUSH1 0xFF AND PUSH1 0x2 DUP2 GT ISZERO PUSH2 0x2AC4 JUMPI PUSH2 0x2AC4 PUSH2 0x5377 JUMP JUMPDEST PUSH1 0x2 DUP2 GT ISZERO PUSH2 0x2AD5 JUMPI PUSH2 0x2AD5 PUSH2 0x5377 JUMP JUMPDEST DUP2 MSTORE POP POP DUP2 MSTORE PUSH1 0x20 ADD SWAP1 PUSH1 0x1 ADD SWAP1 PUSH2 0x2A32 JUMP JUMPDEST POP POP POP POP SWAP1 POP PUSH2 0x2BE6 JUMP JUMPDEST PUSH1 0x1 PUSH1 0x1 PUSH1 0xA0 SHL SUB DUP4 AND PUSH1 0x0 SWAP1 DUP2 MSTORE PUSH1 0x7 PUSH1 0x20 SWAP1 DUP2 MSTORE PUSH1 0x40 DUP1 DUP4 KECCAK256 PUSH1 0x2 ADD DUP1 SLOAD DUP3 MLOAD DUP2 DUP6 MUL DUP2 ADD DUP6 ADD SWAP1 SWAP4 MSTORE DUP1 DUP4 MSTORE SWAP2 SWAP4 SWAP1 SWAP3 DUP5 ADD JUMPDEST DUP3 DUP3 LT ISZERO PUSH2 0x2BDF JUMPI PUSH1 0x0 DUP5 DUP2 MSTORE PUSH1 0x20 SWAP1 DUP2 SWAP1 KECCAK256 PUSH1 0x40 DUP1 MLOAD PUSH1 0x80 DUP2 ADD DUP3 MSTORE PUSH1 0x2 DUP7 MUL SWAP1 SWAP3 ADD DUP1 SLOAD DUP4 MSTORE PUSH1 0x1 DUP2 ADD SLOAD PUSH2 0xFFFF DUP2 AND SWAP5 DUP5 ADD SWAP5 SWAP1 SWAP5 MSTORE SWAP2 SWAP3 SWAP1 DUP4 ADD SWAP1 PUSH3 0x10000 SWAP1 DIV PUSH1 0xFF AND PUSH1 0x3 DUP2 GT ISZERO PUSH2 0x2B82 JUMPI PUSH2 0x2B82 PUSH2 0x5377 JUMP JUMPDEST PUSH1 0x3 DUP2 GT ISZERO PUSH2 0x2B93 JUMPI PUSH2 0x2B93 PUSH2 0x5377 JUMP JUMPDEST DUP2 MSTORE PUSH1 0x20 ADD PUSH1 0x1 DUP3 ADD PUSH1 0x3 SWAP1 SLOAD SWAP1 PUSH2 0x100 EXP SWAP1 DIV PUSH1 0xFF AND PUSH1 0x2 DUP2 GT ISZERO PUSH2 0x2BBB JUMPI PUSH2 0x2BBB PUSH2 0x5377 JUMP JUMPDEST PUSH1 0x2 DUP2 GT ISZERO PUSH2 0x2BCC JUMPI PUSH2 0x2BCC PUSH2 0x5377 JUMP JUMPDEST DUP2 MSTORE POP POP DUP2 MSTORE PUSH1 0x20 ADD SWAP1 PUSH1 0x1 ADD SWAP1 PUSH2 0x2B29 JUMP JUMPDEST POP POP POP POP SWAP1 POP JUMPDEST PUSH1 0x0 DUP2 MLOAD PUSH8 0xFFFFFFFFFFFFFFFF DUP2 GT ISZERO PUSH2 0x2C02 JUMPI PUSH2 0x2C02 PUSH2 0x5448 JUMP JUMPDEST PUSH1 0x40 MLOAD SWAP1 DUP1 DUP3 MSTORE DUP1 PUSH1 0x20 MUL PUSH1 0x20 ADD DUP3 ADD PUSH1 0x40 MSTORE DUP1 ISZERO PUSH2 0x2C88 JUMPI DUP2 PUSH1 0x20 ADD JUMPDEST PUSH1 0x40 DUP1 MLOAD PUSH2 0x160 DUP2 ADD DUP3 MSTORE PUSH1 0x0 PUSH1 0x60 DUP3 ADD DUP2 DUP2 MSTORE PUSH1 0x80 DUP4 ADD DUP3 SWAP1 MSTORE PUSH1 0xA0 DUP4 ADD DUP3 SWAP1 MSTORE PUSH1 0xC0 DUP4 ADD DUP3 SWAP1 MSTORE PUSH1 0xE0 DUP4 ADD DUP3 SWAP1 MSTORE PUSH2 0x100 DUP4 ADD DUP3 SWAP1 MSTORE PUSH2 0x120 DUP4 ADD DUP3 SWAP1 MSTORE PUSH2 0x140 DUP4 ADD DUP3 SWAP1 MSTORE DUP3 MSTORE PUSH1 0x20 DUP1 DUP4 ADD DUP3 SWAP1 MSTORE SWAP3 DUP3 ADD MSTORE DUP3 MSTORE PUSH1 0x0 NOT SWAP1 SWAP3 ADD SWAP2 ADD DUP2 PUSH2 0x2C20 JUMPI SWAP1 POP JUMPDEST POP SWAP1 POP PUSH1 0x0 JUMPDEST DUP3 MLOAD DUP2 LT ISZERO PUSH2 0x2DDF JUMPI PUSH2 0x2CF9 DUP4 DUP3 DUP2 MLOAD DUP2 LT PUSH2 0x2CAC JUMPI PUSH2 0x2CAC PUSH2 0x5B68 JUMP JUMPDEST PUSH1 0x20 MUL PUSH1 0x20 ADD ADD MLOAD PUSH1 0x0 ADD MLOAD DUP5 DUP4 DUP2 MLOAD DUP2 LT PUSH2 0x2CCA JUMPI PUSH2 0x2CCA PUSH2 0x5B68 JUMP JUMPDEST PUSH1 0x20 MUL PUSH1 0x20 ADD ADD MLOAD PUSH1 0x40 ADD MLOAD DUP6 DUP5 DUP2 MLOAD DUP2 LT PUSH2 0x2CE8 JUMPI PUSH2 0x2CE8 PUSH2 0x5B68 JUMP JUMPDEST PUSH1 0x20 MUL PUSH1 0x20 ADD ADD MLOAD PUSH1 0x20 ADD MLOAD PUSH2 0xB7E JUMP JUMPDEST DUP3 DUP3 DUP2 MLOAD DUP2 LT PUSH2 0x2D0B JUMPI PUSH2 0x2D0B PUSH2 0x5B68 JUMP JUMPDEST PUSH1 0x20 MUL PUSH1 0x20 ADD ADD MLOAD PUSH1 0x0 ADD DUP2 SWAP1 MSTORE POP DUP3 DUP2 DUP2 MLOAD DUP2 LT PUSH2 0x2D2C JUMPI PUSH2 0x2D2C PUSH2 0x5B68 JUMP JUMPDEST PUSH1 0x20 MUL PUSH1 0x20 ADD ADD MLOAD PUSH1 0x60 ADD MLOAD DUP3 DUP3 DUP2 MLOAD DUP2 LT PUSH2 0x2D4A JUMPI PUSH2 0x2D4A PUSH2 0x5B68 JUMP JUMPDEST PUSH1 0x20 MUL PUSH1 0x20 ADD ADD MLOAD PUSH1 0x20 ADD SWAP1 PUSH1 0x2 DUP2 GT ISZERO PUSH2 0x2D67 JUMPI PUSH2 0x2D67 PUSH2 0x5377 JUMP JUMPDEST SWAP1 DUP2 PUSH1 0x2 DUP2 GT ISZERO PUSH2 0x2D7A JUMPI PUSH2 0x2D7A PUSH2 0x5377 JUMP JUMPDEST DUP2 MSTORE POP POP PUSH1 0xB PUSH1 0x0 DUP4 DUP4 DUP2 MLOAD DUP2 LT PUSH2 0x2D94 JUMPI PUSH2 0x2D94 PUSH2 0x5B68 JUMP JUMPDEST PUSH1 0x20 MUL PUSH1 0x20 ADD ADD MLOAD PUSH1 0x0 ADD MLOAD PUSH1 0x0 ADD MLOAD DUP2 MSTORE PUSH1 0x20 ADD SWAP1 DUP2 MSTORE PUSH1 0x20 ADD PUSH1 0x0 KECCAK256 DUP1 SLOAD SWAP1 POP DUP3 DUP3 DUP2 MLOAD DUP2 LT PUSH2 0x2DC8 JUMPI PUSH2 0x2DC8 PUSH2 0x5B68 JUMP JUMPDEST PUSH1 0x20 SWAP1 DUP2 MUL SWAP2 SWAP1 SWAP2 ADD ADD MLOAD PUSH1 0x40 ADD MSTORE PUSH1 0x1 ADD PUSH2 0x2C8E JUMP JUMPDEST POP SWAP2 POP POP JUMPDEST SWAP3 SWAP2 POP POP JUMP JUMPDEST PUSH2 0x2DF2 PUSH2 0x466A JUMP JUMPDEST PUSH2 0x2E08 DUP2 CALLDATALOAD PUSH2 0xD74 PUSH2 0x100 DUP5 ADD PUSH1 0xE0 DUP6 ADD PUSH2 0x5B7E JUMP JUMPDEST PUSH2 0x2E38 JUMPI PUSH1 0x40 MLOAD PUSH3 0x461BCD PUSH1 0xE5 SHL DUP2 MSTORE PUSH1 0x20 PUSH1 0x4 DUP3 ADD MSTORE PUSH1 0x1 PUSH1 0x24 DUP3 ADD MSTORE PUSH1 0x37 PUSH1 0xF8 SHL PUSH1 0x44 DUP3 ADD MSTORE PUSH1 0x64 ADD PUSH2 0x657 JUMP JUMPDEST PUSH2 0x2E48 PUSH1 0x60 DUP3 ADD PUSH1 0x40 DUP4 ADD PUSH2 0x524A JUMP JUMPDEST PUSH1 0x1 PUSH1 0x1 PUSH1 0xA0 SHL SUB AND CALLER PUSH1 0x1 PUSH1 0x1 PUSH1 0xA0 SHL SUB AND EQ PUSH2 0x2E8D JUMPI PUSH1 0x40 MLOAD PUSH3 0x461BCD PUSH1 0xE5 SHL DUP2 MSTORE PUSH1 0x20 PUSH1 0x4 DUP3 ADD MSTORE PUSH1 0x2 PUSH1 0x24 DUP3 ADD MSTORE PUSH2 0x3233 PUSH1 0xF0 SHL PUSH1 0x44 DUP3 ADD MSTORE PUSH1 0x64 ADD PUSH2 0x657 JUMP JUMPDEST CALLER PUSH1 0x0 SWAP1 DUP2 MSTORE PUSH1 0x7 PUSH1 0x20 SWAP1 DUP2 MSTORE PUSH1 0x40 DUP1 DUP4 KECCAK256 PUSH1 0x2 ADD DUP1 SLOAD DUP3 MLOAD DUP2 DUP6 MUL DUP2 ADD DUP6 ADD SWAP1 SWAP4 MSTORE DUP1 DUP4 MSTORE SWAP2 SWAP3 SWAP1 SWAP2 SWAP1 DUP5 SWAP1 DUP5 ADD JUMPDEST DUP3 DUP3 LT ISZERO PUSH2 0x2F73 JUMPI PUSH1 0x0 DUP5 DUP2 MSTORE PUSH1 0x20 SWAP1 DUP2 SWAP1 KECCAK256 PUSH1 0x40 DUP1 MLOAD PUSH1 0x80 DUP2 ADD DUP3 MSTORE PUSH1 0x2 DUP7 MUL SWAP1 SWAP3 ADD DUP1 SLOAD DUP4 MSTORE PUSH1 0x1 DUP2 ADD SLOAD PUSH2 0xFFFF DUP2 AND SWAP5 DUP5 ADD SWAP5 SWAP1 SWAP5 MSTORE SWAP2 SWAP3 SWAP1 DUP4 ADD SWAP1 PUSH3 0x10000 SWAP1 DIV PUSH1 0xFF AND PUSH1 0x3 DUP2 GT ISZERO PUSH2 0x2F16 JUMPI PUSH2 0x2F16 PUSH2 0x5377 JUMP JUMPDEST PUSH1 0x3 DUP2 GT ISZERO PUSH2 0x2F27 JUMPI PUSH2 0x2F27 PUSH2 0x5377 JUMP JUMPDEST DUP2 MSTORE PUSH1 0x20 ADD PUSH1 0x1 DUP3 ADD PUSH1 0x3 SWAP1 SLOAD SWAP1 PUSH2 0x100 EXP SWAP1 DIV PUSH1 0xFF AND PUSH1 0x2 DUP2 GT ISZERO PUSH2 0x2F4F JUMPI PUSH2 0x2F4F PUSH2 0x5377 JUMP JUMPDEST PUSH1 0x2 DUP2 GT ISZERO PUSH2 0x2F60 JUMPI PUSH2 0x2F60 PUSH2 0x5377 JUMP JUMPDEST DUP2 MSTORE POP POP DUP2 MSTORE PUSH1 0x20 ADD SWAP1 PUSH1 0x1 ADD SWAP1 PUSH2 0x2EBD JUMP JUMPDEST POP POP CALLER PUSH1 0x0 SWAP1 DUP2 MSTORE PUSH1 0x7 PUSH1 0x20 MSTORE PUSH1 0x40 DUP2 KECCAK256 PUSH1 0x2 ADD SLOAD SWAP4 SWAP5 POP SWAP2 POP POP JUMPDEST DUP2 DUP2 LT ISZERO PUSH2 0x3027 JUMPI DUP4 PUSH1 0x0 ADD CALLDATALOAD DUP4 DUP3 DUP2 MLOAD DUP2 LT PUSH2 0x2FAE JUMPI PUSH2 0x2FAE PUSH2 0x5B68 JUMP JUMPDEST PUSH1 0x20 MUL PUSH1 0x20 ADD ADD MLOAD PUSH1 0x0 ADD MLOAD SUB PUSH2 0x301F JUMPI CALLER PUSH1 0x0 SWAP1 DUP2 MSTORE PUSH1 0x7 PUSH1 0x20 MSTORE PUSH1 0x40 SWAP1 KECCAK256 PUSH1 0x2 ADD DUP1 SLOAD PUSH1 0x1 SWAP2 SWAP1 DUP4 SWAP1 DUP2 LT PUSH2 0x2FE7 JUMPI PUSH2 0x2FE7 PUSH2 0x5B68 JUMP JUMPDEST SWAP1 PUSH1 0x0 MSTORE PUSH1 0x20 PUSH1 0x0 KECCAK256 SWAP1 PUSH1 0x2 MUL ADD PUSH1 0x1 ADD PUSH1 0x3 PUSH2 0x100 EXP DUP2 SLOAD DUP2 PUSH1 0xFF MUL NOT AND SWAP1 DUP4 PUSH1 0x2 DUP2 GT ISZERO PUSH2 0x3019 JUMPI PUSH2 0x3019 PUSH2 0x5377 JUMP JUMPDEST MUL OR SWAP1 SSTORE POP JUMPDEST PUSH1 0x1 ADD PUSH2 0x2F8F JUMP JUMPDEST POP DUP3 CALLDATALOAD PUSH1 0x0 SWAP1 DUP2 MSTORE PUSH1 0xB PUSH1 0x20 SWAP1 DUP2 MSTORE PUSH1 0x40 DUP1 DUP4 KECCAK256 DUP1 SLOAD DUP3 MLOAD DUP2 DUP6 MUL DUP2 ADD DUP6 ADD SWAP1 SWAP4 MSTORE DUP1 DUP4 MSTORE SWAP2 SWAP3 SWAP1 SWAP2 SWAP1 DUP4 ADD DUP3 DUP3 DUP1 ISZERO PUSH2 0x308A JUMPI PUSH1 0x20 MUL DUP3 ADD SWAP2 SWAP1 PUSH1 0x0 MSTORE PUSH1 0x20 PUSH1 0x0 KECCAK256 SWAP1 JUMPDEST DUP2 SLOAD PUSH1 0x1 PUSH1 0x1 PUSH1 0xA0 SHL SUB AND DUP2 MSTORE PUSH1 0x1 SWAP1 SWAP2 ADD SWAP1 PUSH1 0x20 ADD DUP1 DUP4 GT PUSH2 0x306C JUMPI JUMPDEST POP POP POP POP POP SWAP1 POP PUSH1 0x0 JUMPDEST DUP2 MLOAD DUP2 LT ISZERO PUSH2 0x35CA JUMPI DUP5 CALLDATALOAD PUSH1 0x0 SWAP1 DUP2 MSTORE PUSH1 0x9 PUSH1 0x20 MSTORE PUSH1 0x40 DUP2 KECCAK256 DUP4 MLOAD DUP3 SWAP1 DUP6 SWAP1 DUP6 SWAP1 DUP2 LT PUSH2 0x30C3 JUMPI PUSH2 0x30C3 PUSH2 0x5B68 JUMP JUMPDEST PUSH1 0x20 MUL PUSH1 0x20 ADD ADD MLOAD PUSH1 0x1 PUSH1 0x1 PUSH1 0xA0 SHL SUB AND PUSH1 0x1 PUSH1 0x1 PUSH1 0xA0 SHL SUB AND DUP2 MSTORE PUSH1 0x20 ADD SWAP1 DUP2 MSTORE PUSH1 0x20 ADD PUSH1 0x0 KECCAK256 SLOAD SWAP1 POP DUP3 DUP3 DUP2 MLOAD DUP2 LT PUSH2 0x3100 JUMPI PUSH2 0x3100 PUSH2 0x5B68 JUMP JUMPDEST PUSH1 0x20 MUL PUSH1 0x20 ADD ADD MLOAD PUSH1 0x1 PUSH1 0x1 PUSH1 0xA0 SHL SUB AND DUP7 PUSH1 0x40 ADD PUSH1 0x20 DUP2 ADD SWAP1 PUSH2 0x3124 SWAP2 SWAP1 PUSH2 0x524A JUMP JUMPDEST PUSH1 0x1 PUSH1 0x1 PUSH1 0xA0 SHL SUB AND DUP8 CALLDATALOAD PUSH1 0x0 DUP1 MLOAD PUSH1 0x20 PUSH2 0x5F8F DUP4 CODECOPY DUP2 MLOAD SWAP2 MSTORE TIMESTAMP DUP6 PUSH2 0x3150 PUSH1 0x80 DUP14 ADD PUSH1 0x60 DUP15 ADD PUSH2 0x524A JUMP JUMPDEST PUSH1 0x9 PUSH1 0x40 MLOAD PUSH2 0x3162 SWAP5 SWAP4 SWAP3 SWAP2 SWAP1 PUSH2 0x5B37 JUMP JUMPDEST PUSH1 0x40 MLOAD DUP1 SWAP2 SUB SWAP1 LOG4 DUP6 CALLDATALOAD PUSH1 0x0 SWAP1 DUP2 MSTORE PUSH1 0x9 PUSH1 0x20 MSTORE PUSH1 0x40 DUP2 KECCAK256 DUP5 MLOAD SWAP1 SWAP2 SWAP1 DUP6 SWAP1 DUP6 SWAP1 DUP2 LT PUSH2 0x3191 JUMPI PUSH2 0x3191 PUSH2 0x5B68 JUMP JUMPDEST PUSH1 0x20 MUL PUSH1 0x20 ADD ADD MLOAD PUSH1 0x1 PUSH1 0x1 PUSH1 0xA0 SHL SUB AND PUSH1 0x1 PUSH1 0x1 PUSH1 0xA0 SHL SUB AND DUP2 MSTORE PUSH1 0x20 ADD SWAP1 DUP2 MSTORE PUSH1 0x20 ADD PUSH1 0x0 KECCAK256 PUSH1 0x0 SWAP1 SSTORE DUP6 PUSH1 0x60 ADD PUSH1 0x20 DUP2 ADD SWAP1 PUSH2 0x31D0 SWAP2 SWAP1 PUSH2 0x524A JUMP JUMPDEST PUSH1 0x1 PUSH1 0x1 PUSH1 0xA0 SHL SUB AND PUSH4 0xA9059CBB DUP5 DUP5 DUP2 MLOAD DUP2 LT PUSH2 0x31F0 JUMPI PUSH2 0x31F0 PUSH2 0x5B68 JUMP JUMPDEST PUSH1 0x20 MUL PUSH1 0x20 ADD ADD MLOAD PUSH2 0x3213 DUP5 PUSH1 0x5 PUSH1 0x0 DUP13 PUSH1 0x60 ADD PUSH1 0x20 DUP2 ADD SWAP1 PUSH2 0xDD7 SWAP2 SWAP1 PUSH2 0x524A JUMP JUMPDEST PUSH1 0x40 MLOAD PUSH1 0x1 PUSH1 0x1 PUSH1 0xE0 SHL SUB NOT PUSH1 0xE0 DUP6 SWAP1 SHL AND DUP2 MSTORE PUSH1 0x1 PUSH1 0x1 PUSH1 0xA0 SHL SUB SWAP1 SWAP3 AND PUSH1 0x4 DUP4 ADD MSTORE PUSH1 0x24 DUP3 ADD MSTORE PUSH1 0x44 ADD PUSH1 0x20 PUSH1 0x40 MLOAD DUP1 DUP4 SUB DUP2 PUSH1 0x0 DUP8 GAS CALL ISZERO DUP1 ISZERO PUSH2 0x325E JUMPI RETURNDATASIZE PUSH1 0x0 DUP1 RETURNDATACOPY RETURNDATASIZE PUSH1 0x0 REVERT JUMPDEST POP POP POP POP PUSH1 0x40 MLOAD RETURNDATASIZE PUSH1 0x1F NOT PUSH1 0x1F DUP3 ADD AND DUP3 ADD DUP1 PUSH1 0x40 MSTORE POP DUP2 ADD SWAP1 PUSH2 0x3282 SWAP2 SWAP1 PUSH2 0x5C20 JUMP JUMPDEST PUSH2 0x32B3 JUMPI PUSH1 0x40 MLOAD PUSH3 0x461BCD PUSH1 0xE5 SHL DUP2 MSTORE PUSH1 0x20 PUSH1 0x4 DUP3 ADD MSTORE PUSH1 0x2 PUSH1 0x24 DUP3 ADD MSTORE PUSH2 0x3231 PUSH1 0xF0 SHL PUSH1 0x44 DUP3 ADD MSTORE PUSH1 0x64 ADD PUSH2 0x657 JUMP JUMPDEST PUSH1 0x0 PUSH1 0x7 PUSH1 0x0 DUP6 DUP6 DUP2 MLOAD DUP2 LT PUSH2 0x32CB JUMPI PUSH2 0x32CB PUSH2 0x5B68 JUMP JUMPDEST PUSH1 0x20 MUL PUSH1 0x20 ADD ADD MLOAD PUSH1 0x1 PUSH1 0x1 PUSH1 0xA0 SHL SUB AND PUSH1 0x1 PUSH1 0x1 PUSH1 0xA0 SHL SUB AND DUP2 MSTORE PUSH1 0x20 ADD SWAP1 DUP2 MSTORE PUSH1 0x20 ADD PUSH1 0x0 KECCAK256 PUSH1 0x1 ADD DUP1 SLOAD SWAP1 POP PUSH8 0xFFFFFFFFFFFFFFFF DUP2 GT ISZERO PUSH2 0x3312 JUMPI PUSH2 0x3312 PUSH2 0x5448 JUMP JUMPDEST PUSH1 0x40 MLOAD SWAP1 DUP1 DUP3 MSTORE DUP1 PUSH1 0x20 MUL PUSH1 0x20 ADD DUP3 ADD PUSH1 0x40 MSTORE DUP1 ISZERO PUSH2 0x336D JUMPI DUP2 PUSH1 0x20 ADD JUMPDEST PUSH2 0x335A PUSH1 0x40 DUP1 MLOAD PUSH1 0x80 DUP2 ADD DUP3 MSTORE PUSH1 0x0 DUP1 DUP3 MSTORE PUSH1 0x20 DUP3 ADD DUP2 SWAP1 MSTORE SWAP1 SWAP2 DUP3 ADD SWAP1 DUP2 MSTORE PUSH1 0x20 ADD PUSH1 0x0 SWAP1 MSTORE SWAP1 JUMP JUMPDEST DUP2 MSTORE PUSH1 0x20 ADD SWAP1 PUSH1 0x1 SWAP1 SUB SWAP1 DUP2 PUSH2 0x3330 JUMPI SWAP1 POP JUMPDEST POP SWAP1 POP PUSH1 0x7 PUSH1 0x0 DUP6 DUP6 DUP2 MLOAD DUP2 LT PUSH2 0x3386 JUMPI PUSH2 0x3386 PUSH2 0x5B68 JUMP JUMPDEST PUSH1 0x20 MUL PUSH1 0x20 ADD ADD MLOAD PUSH1 0x1 PUSH1 0x1 PUSH1 0xA0 SHL SUB AND PUSH1 0x1 PUSH1 0x1 PUSH1 0xA0 SHL SUB AND DUP2 MSTORE PUSH1 0x20 ADD SWAP1 DUP2 MSTORE PUSH1 0x20 ADD PUSH1 0x0 KECCAK256 PUSH1 0x1 ADD DUP1 SLOAD DUP1 PUSH1 0x20 MUL PUSH1 0x20 ADD PUSH1 0x40 MLOAD SWAP1 DUP2 ADD PUSH1 0x40 MSTORE DUP1 SWAP3 SWAP2 SWAP1 DUP2 DUP2 MSTORE PUSH1 0x20 ADD PUSH1 0x0 SWAP1 JUMPDEST DUP3 DUP3 LT ISZERO PUSH2 0x3487 JUMPI PUSH1 0x0 DUP5 DUP2 MSTORE PUSH1 0x20 SWAP1 DUP2 SWAP1 KECCAK256 PUSH1 0x40 DUP1 MLOAD PUSH1 0x80 DUP2 ADD DUP3 MSTORE PUSH1 0x2 DUP7 MUL SWAP1 SWAP3 ADD DUP1 SLOAD DUP4 MSTORE PUSH1 0x1 DUP2 ADD SLOAD PUSH2 0xFFFF DUP2 AND SWAP5 DUP5 ADD SWAP5 SWAP1 SWAP5 MSTORE SWAP2 SWAP3 SWAP1 DUP4 ADD SWAP1 PUSH3 0x10000 SWAP1 DIV PUSH1 0xFF AND PUSH1 0x3 DUP2 GT ISZERO PUSH2 0x342A JUMPI PUSH2 0x342A PUSH2 0x5377 JUMP JUMPDEST PUSH1 0x3 DUP2 GT ISZERO PUSH2 0x343B JUMPI PUSH2 0x343B PUSH2 0x5377 JUMP JUMPDEST DUP2 MSTORE PUSH1 0x20 ADD PUSH1 0x1 DUP3 ADD PUSH1 0x3 SWAP1 SLOAD SWAP1 PUSH2 0x100 EXP SWAP1 DIV PUSH1 0xFF AND PUSH1 0x2 DUP2 GT ISZERO PUSH2 0x3463 JUMPI PUSH2 0x3463 PUSH2 0x5377 JUMP JUMPDEST PUSH1 0x2 DUP2 GT ISZERO PUSH2 0x3474 JUMPI PUSH2 0x3474 PUSH2 0x5377 JUMP JUMPDEST DUP2 MSTORE POP POP DUP2 MSTORE PUSH1 0x20 ADD SWAP1 PUSH1 0x1 ADD SWAP1 PUSH2 0x33D1 JUMP JUMPDEST POP POP POP POP SWAP1 POP PUSH1 0x0 JUMPDEST PUSH1 0x7 PUSH1 0x0 DUP7 DUP7 DUP2 MLOAD DUP2 LT PUSH2 0x34A6 JUMPI PUSH2 0x34A6 PUSH2 0x5B68 JUMP JUMPDEST PUSH1 0x20 MUL PUSH1 0x20 ADD ADD MLOAD PUSH1 0x1 PUSH1 0x1 PUSH1 0xA0 SHL SUB AND PUSH1 0x1 PUSH1 0x1 PUSH1 0xA0 SHL SUB AND DUP2 MSTORE PUSH1 0x20 ADD SWAP1 DUP2 MSTORE PUSH1 0x20 ADD PUSH1 0x0 KECCAK256 PUSH1 0x1 ADD DUP1 SLOAD SWAP1 POP DUP2 LT ISZERO PUSH2 0x3598 JUMPI DUP8 PUSH1 0x0 ADD CALLDATALOAD DUP3 DUP3 DUP2 MLOAD DUP2 LT PUSH2 0x34F3 JUMPI PUSH2 0x34F3 PUSH2 0x5B68 JUMP JUMPDEST PUSH1 0x20 MUL PUSH1 0x20 ADD ADD MLOAD PUSH1 0x0 ADD MLOAD SUB PUSH2 0x3590 JUMPI PUSH1 0x1 PUSH1 0x7 PUSH1 0x0 DUP8 DUP8 DUP2 MLOAD DUP2 LT PUSH2 0x351C JUMPI PUSH2 0x351C PUSH2 0x5B68 JUMP JUMPDEST PUSH1 0x20 MUL PUSH1 0x20 ADD ADD MLOAD PUSH1 0x1 PUSH1 0x1 PUSH1 0xA0 SHL SUB AND PUSH1 0x1 PUSH1 0x1 PUSH1 0xA0 SHL SUB AND DUP2 MSTORE PUSH1 0x20 ADD SWAP1 DUP2 MSTORE PUSH1 0x20 ADD PUSH1 0x0 KECCAK256 PUSH1 0x1 ADD DUP3 DUP2 SLOAD DUP2 LT PUSH2 0x3558 JUMPI PUSH2 0x3558 PUSH2 0x5B68 JUMP JUMPDEST SWAP1 PUSH1 0x0 MSTORE PUSH1 0x20 PUSH1 0x0 KECCAK256 SWAP1 PUSH1 0x2 MUL ADD PUSH1 0x1 ADD PUSH1 0x3 PUSH2 0x100 EXP DUP2 SLOAD DUP2 PUSH1 0xFF MUL NOT AND SWAP1 DUP4 PUSH1 0x2 DUP2 GT ISZERO PUSH2 0x358A JUMPI PUSH2 0x358A PUSH2 0x5377 JUMP JUMPDEST MUL OR SWAP1 SSTORE POP JUMPDEST PUSH1 0x1 ADD PUSH2 0x3490 JUMP JUMPDEST POP PUSH2 0x35C0 DUP8 PUSH1 0x0 ADD CALLDATALOAD DUP6 DUP6 DUP2 MLOAD DUP2 LT PUSH2 0x35B3 JUMPI PUSH2 0x35B3 PUSH2 0x5B68 JUMP JUMPDEST PUSH1 0x20 MUL PUSH1 0x20 ADD ADD MLOAD PUSH2 0x4C7D JUMP JUMPDEST POP POP PUSH1 0x1 ADD PUSH2 0x3094 JUMP JUMPDEST POP PUSH1 0x0 PUSH1 0xA DUP2 PUSH2 0x35E0 PUSH1 0xE0 DUP9 ADD PUSH1 0xC0 DUP10 ADD PUSH2 0x5B99 JUMP JUMPDEST PUSH1 0x3 DUP2 GT ISZERO PUSH2 0x35F1 JUMPI PUSH2 0x35F1 PUSH2 0x5377 JUMP JUMPDEST DUP2 MSTORE PUSH1 0x20 ADD SWAP1 DUP2 MSTORE PUSH1 0x20 ADD PUSH1 0x0 KECCAK256 PUSH1 0x0 DUP7 PUSH1 0xE0 ADD PUSH1 0x20 DUP2 ADD SWAP1 PUSH2 0x3614 SWAP2 SWAP1 PUSH2 0x5B7E JUMP JUMPDEST PUSH2 0xFFFF AND PUSH2 0xFFFF AND DUP2 MSTORE PUSH1 0x20 ADD SWAP1 DUP2 MSTORE PUSH1 0x20 ADD PUSH1 0x0 KECCAK256 DUP1 SLOAD DUP1 PUSH1 0x20 MUL PUSH1 0x20 ADD PUSH1 0x40 MLOAD SWAP1 DUP2 ADD PUSH1 0x40 MSTORE DUP1 SWAP3 SWAP2 SWAP1 DUP2 DUP2 MSTORE PUSH1 0x20 ADD PUSH1 0x0 SWAP1 JUMPDEST DUP3 DUP3 LT ISZERO PUSH2 0x3721 JUMPI PUSH1 0x0 DUP5 DUP2 MSTORE PUSH1 0x20 SWAP1 DUP2 SWAP1 KECCAK256 PUSH1 0x40 DUP1 MLOAD PUSH2 0x100 DUP2 ADD DUP3 MSTORE PUSH1 0x4 DUP7 MUL SWAP1 SWAP3 ADD DUP1 SLOAD DUP4 MSTORE PUSH1 0x1 DUP2 ADD SLOAD SWAP4 DUP4 ADD SWAP4 SWAP1 SWAP4 MSTORE PUSH1 0x2 DUP4 ADD SLOAD PUSH1 0x1 PUSH1 0x1 PUSH1 0xA0 SHL SUB SWAP1 DUP2 AND SWAP2 DUP4 ADD SWAP2 SWAP1 SWAP2 MSTORE PUSH1 0x3 DUP1 DUP5 ADD SLOAD SWAP2 DUP3 AND PUSH1 0x60 DUP5 ADD MSTORE PUSH1 0xFF PUSH1 0x1 PUSH1 0xA0 SHL DUP4 DIV DUP2 AND ISZERO ISZERO PUSH1 0x80 DUP6 ADD MSTORE PUSH1 0x1 PUSH1 0xA8 SHL DUP4 DIV DUP2 AND ISZERO ISZERO PUSH1 0xA0 DUP6 ADD MSTORE SWAP3 SWAP4 SWAP3 PUSH1 0xC0 DUP6 ADD SWAP3 PUSH1 0x1 PUSH1 0xB0 SHL SWAP1 DIV AND SWAP1 DUP2 GT ISZERO PUSH2 0x36E6 JUMPI PUSH2 0x36E6 PUSH2 0x5377 JUMP JUMPDEST PUSH1 0x3 DUP2 GT ISZERO PUSH2 0x36F7 JUMPI PUSH2 0x36F7 PUSH2 0x5377 JUMP JUMPDEST DUP2 MSTORE PUSH1 0x3 SWAP2 SWAP1 SWAP2 ADD SLOAD PUSH2 0xFFFF PUSH1 0x1 PUSH1 0xB8 SHL SWAP1 SWAP2 DIV AND PUSH1 0x20 SWAP2 DUP3 ADD MSTORE SWAP1 DUP3 MSTORE PUSH1 0x1 SWAP1 SWAP3 ADD SWAP2 ADD PUSH2 0x364A JUMP JUMPDEST POP POP POP POP SWAP1 POP PUSH1 0x0 JUMPDEST DUP2 MLOAD DUP2 LT ISZERO PUSH2 0x37FD JUMPI DUP6 PUSH1 0x0 ADD CALLDATALOAD DUP3 DUP3 DUP2 MLOAD DUP2 LT PUSH2 0x374A JUMPI PUSH2 0x374A PUSH2 0x5B68 JUMP JUMPDEST PUSH1 0x20 MUL PUSH1 0x20 ADD ADD MLOAD PUSH1 0x0 ADD MLOAD SUB PUSH2 0x37F5 JUMPI PUSH1 0x1 PUSH1 0xA PUSH1 0x0 PUSH2 0x3771 PUSH1 0xE0 DUP11 ADD PUSH1 0xC0 DUP12 ADD PUSH2 0x5B99 JUMP JUMPDEST PUSH1 0x3 DUP2 GT ISZERO PUSH2 0x3782 JUMPI PUSH2 0x3782 PUSH2 0x5377 JUMP JUMPDEST DUP2 MSTORE PUSH1 0x20 ADD SWAP1 DUP2 MSTORE PUSH1 0x20 ADD PUSH1 0x0 KECCAK256 PUSH1 0x0 DUP9 PUSH1 0xE0 ADD PUSH1 0x20 DUP2 ADD SWAP1 PUSH2 0x37A5 SWAP2 SWAP1 PUSH2 0x5B7E JUMP JUMPDEST PUSH2 0xFFFF AND PUSH2 0xFFFF AND DUP2 MSTORE PUSH1 0x20 ADD SWAP1 DUP2 MSTORE PUSH1 0x20 ADD PUSH1 0x0 KECCAK256 DUP3 DUP2 SLOAD DUP2 LT PUSH2 0x37CC JUMPI PUSH2 0x37CC PUSH2 0x5B68 JUMP JUMPDEST SWAP1 PUSH1 0x0 MSTORE PUSH1 0x20 PUSH1 0x0 KECCAK256 SWAP1 PUSH1 0x4 MUL ADD PUSH1 0x3 ADD PUSH1 0x15 PUSH2 0x100 EXP DUP2 SLOAD DUP2 PUSH1 0xFF MUL NOT AND SWAP1 DUP4 ISZERO ISZERO MUL OR SWAP1 SSTORE POP JUMPDEST PUSH1 0x1 ADD PUSH2 0x372A JUMP JUMPDEST POP PUSH1 0x0 CALLER DUP7 CALLDATALOAD PUSH1 0x0 DUP1 MLOAD PUSH1 0x20 PUSH2 0x5F8F DUP4 CODECOPY DUP2 MLOAD SWAP2 MSTORE TIMESTAMP DUP5 PUSH2 0x3824 PUSH1 0x80 DUP13 ADD PUSH1 0x60 DUP14 ADD PUSH2 0x524A JUMP JUMPDEST PUSH1 0x1 PUSH1 0x40 MLOAD PUSH2 0x3836 SWAP5 SWAP4 SWAP3 SWAP2 SWAP1 PUSH2 0x5B37 JUMP JUMPDEST PUSH1 0x40 MLOAD DUP1 SWAP2 SUB SWAP1 LOG4 POP POP POP POP POP JUMP JUMPDEST PUSH2 0x384D PUSH2 0x45EA JUMP JUMPDEST PUSH1 0x0 SSTORE JUMP JUMPDEST PUSH2 0x385A PUSH2 0x45EA JUMP JUMPDEST PUSH1 0x1 PUSH1 0x1 PUSH1 0xA0 SHL SUB DUP2 AND PUSH2 0x386D JUMPI PUSH1 0x0 DUP1 REVERT JUMPDEST PUSH1 0x6 DUP1 SLOAD PUSH1 0x1 PUSH1 0x1 PUSH1 0xA0 SHL SUB SWAP1 SWAP3 AND PUSH7 0x1000000000000 MUL PUSH32 0xFFFFFFFFFFFF0000000000000000000000000000000000000000FFFFFFFFFFFF SWAP1 SWAP3 AND SWAP2 SWAP1 SWAP2 OR SWAP1 SSTORE JUMP JUMPDEST PUSH2 0x38B9 PUSH2 0x466A JUMP JUMPDEST CALLER PUSH1 0x0 SWAP1 DUP2 MSTORE PUSH1 0x7 PUSH1 0x20 SWAP1 DUP2 MSTORE PUSH1 0x40 DUP1 DUP4 KECCAK256 PUSH1 0x2 ADD DUP1 SLOAD DUP3 MLOAD DUP2 DUP6 MUL DUP2 ADD DUP6 ADD SWAP1 SWAP4 MSTORE DUP1 DUP4 MSTORE SWAP2 SWAP3 SWAP1 SWAP2 SWAP1 DUP5 SWAP1 DUP5 ADD JUMPDEST DUP3 DUP3 LT ISZERO PUSH2 0x399F JUMPI PUSH1 0x0 DUP5 DUP2 MSTORE PUSH1 0x20 SWAP1 DUP2 SWAP1 KECCAK256 PUSH1 0x40 DUP1 MLOAD PUSH1 0x80 DUP2 ADD DUP3 MSTORE PUSH1 0x2 DUP7 MUL SWAP1 SWAP3 ADD DUP1 SLOAD DUP4 MSTORE PUSH1 0x1 DUP2 ADD SLOAD PUSH2 0xFFFF DUP2 AND SWAP5 DUP5 ADD SWAP5 SWAP1 SWAP5 MSTORE SWAP2 SWAP3 SWAP1 DUP4 ADD SWAP1 PUSH3 0x10000 SWAP1 DIV PUSH1 0xFF AND PUSH1 0x3 DUP2 GT ISZERO PUSH2 0x3942 JUMPI PUSH2 0x3942 PUSH2 0x5377 JUMP JUMPDEST PUSH1 0x3 DUP2 GT ISZERO PUSH2 0x3953 JUMPI PUSH2 0x3953 PUSH2 0x5377 JUMP JUMPDEST DUP2 MSTORE PUSH1 0x20 ADD PUSH1 0x1 DUP3 ADD PUSH1 0x3 SWAP1 SLOAD SWAP1 PUSH2 0x100 EXP SWAP1 DIV PUSH1 0xFF AND PUSH1 0x2 DUP2 GT ISZERO PUSH2 0x397B JUMPI PUSH2 0x397B PUSH2 0x5377 JUMP JUMPDEST PUSH1 0x2 DUP2 GT ISZERO PUSH2 0x398C JUMPI PUSH2 0x398C PUSH2 0x5377 JUMP JUMPDEST DUP2 MSTORE POP POP DUP2 MSTORE PUSH1 0x20 ADD SWAP1 PUSH1 0x1 ADD SWAP1 PUSH2 0x38E9 JUMP JUMPDEST POP POP POP POP SWAP1 POP PUSH1 0x0 DUP1 JUMPDEST DUP3 MLOAD DUP2 LT ISZERO PUSH2 0x39E7 JUMPI DUP5 PUSH1 0x0 ADD MLOAD DUP4 DUP3 DUP2 MLOAD DUP2 LT PUSH2 0x39C9 JUMPI PUSH2 0x39C9 PUSH2 0x5B68 JUMP JUMPDEST PUSH1 0x20 MUL PUSH1 0x20 ADD ADD MLOAD PUSH1 0x0 ADD MLOAD SUB PUSH2 0x39DF JUMPI PUSH1 0x1 SWAP2 POP JUMPDEST PUSH1 0x1 ADD PUSH2 0x39A9 JUMP JUMPDEST POP DUP1 PUSH2 0x3A1A JUMPI PUSH1 0x40 MLOAD PUSH3 0x461BCD PUSH1 0xE5 SHL DUP2 MSTORE PUSH1 0x20 PUSH1 0x4 DUP3 ADD MSTORE PUSH1 0x2 PUSH1 0x24 DUP3 ADD MSTORE PUSH2 0x627 PUSH1 0xF3 SHL PUSH1 0x44 DUP3 ADD MSTORE PUSH1 0x64 ADD PUSH2 0x657 JUMP JUMPDEST DUP4 MLOAD PUSH1 0x0 SWAP1 DUP2 MSTORE PUSH1 0xB PUSH1 0x20 SWAP1 DUP2 MSTORE PUSH1 0x40 DUP1 DUP4 KECCAK256 DUP1 SLOAD DUP3 MLOAD DUP2 DUP6 MUL DUP2 ADD DUP6 ADD SWAP1 SWAP4 MSTORE DUP1 DUP4 MSTORE SWAP2 SWAP3 SWAP1 SWAP2 SWAP1 DUP4 ADD DUP3 DUP3 DUP1 ISZERO PUSH2 0x3A7C JUMPI PUSH1 0x20 MUL DUP3 ADD SWAP2 SWAP1 PUSH1 0x0 MSTORE PUSH1 0x20 PUSH1 0x0 KECCAK256 SWAP1 JUMPDEST DUP2 SLOAD PUSH1 0x1 PUSH1 0x1 PUSH1 0xA0 SHL SUB AND DUP2 MSTORE PUSH1 0x1 SWAP1 SWAP2 ADD SWAP1 PUSH1 0x20 ADD DUP1 DUP4 GT PUSH2 0x3A5E JUMPI JUMPDEST POP POP POP POP POP SWAP1 POP PUSH1 0x0 DUP1 JUMPDEST DUP3 MLOAD DUP2 LT ISZERO PUSH2 0x3B37 JUMPI DUP6 PUSH1 0x1 PUSH1 0x1 PUSH1 0xA0 SHL SUB AND DUP4 DUP3 DUP2 MLOAD DUP2 LT PUSH2 0x3AAC JUMPI PUSH2 0x3AAC PUSH2 0x5B68 JUMP JUMPDEST PUSH1 0x20 MUL PUSH1 0x20 ADD ADD MLOAD PUSH1 0x1 PUSH1 0x1 PUSH1 0xA0 SHL SUB AND SUB PUSH2 0x3B2F JUMPI PUSH1 0x1 PUSH1 0x1 PUSH1 0xA0 SHL SUB DUP7 AND PUSH1 0x0 SWAP1 DUP2 MSTORE PUSH1 0x7 PUSH1 0x20 MSTORE PUSH1 0x40 SWAP1 KECCAK256 PUSH1 0x1 SWAP1 DUP2 ADD DUP1 SLOAD SWAP2 SWAP4 POP PUSH1 0x2 SWAP2 DUP4 SWAP1 DUP2 LT PUSH2 0x3AF7 JUMPI PUSH2 0x3AF7 PUSH2 0x5B68 JUMP JUMPDEST SWAP1 PUSH1 0x0 MSTORE PUSH1 0x20 PUSH1 0x0 KECCAK256 SWAP1 PUSH1 0x2 MUL ADD PUSH1 0x1 ADD PUSH1 0x3 PUSH2 0x100 EXP DUP2 SLOAD DUP2 PUSH1 0xFF MUL NOT AND SWAP1 DUP4 PUSH1 0x2 DUP2 GT ISZERO PUSH2 0x3B29 JUMPI PUSH2 0x3B29 PUSH2 0x5377 JUMP JUMPDEST MUL OR SWAP1 SSTORE POP JUMPDEST PUSH1 0x1 ADD PUSH2 0x3A87 JUMP JUMPDEST POP DUP1 PUSH2 0x3B6A JUMPI PUSH1 0x40 MLOAD PUSH3 0x461BCD PUSH1 0xE5 SHL DUP2 MSTORE PUSH1 0x20 PUSH1 0x4 DUP3 ADD MSTORE PUSH1 0x2 PUSH1 0x24 DUP3 ADD MSTORE PUSH2 0x3139 PUSH1 0xF0 SHL PUSH1 0x44 DUP3 ADD MSTORE PUSH1 0x64 ADD PUSH2 0x657 JUMP JUMPDEST DUP6 MLOAD PUSH2 0x3B76 SWAP1 DUP7 PUSH2 0x4C7D JUMP JUMPDEST DUP5 PUSH1 0x1 PUSH1 0x1 PUSH1 0xA0 SHL SUB AND DUP7 PUSH1 0x40 ADD MLOAD PUSH1 0x1 PUSH1 0x1 PUSH1 0xA0 SHL SUB AND DUP8 PUSH1 0x0 ADD MLOAD PUSH1 0x0 DUP1 MLOAD PUSH1 0x20 PUSH2 0x5F8F DUP4 CODECOPY DUP2 MLOAD SWAP2 MSTORE TIMESTAMP DUP11 PUSH1 0x20 ADD MLOAD DUP12 PUSH1 0x60 ADD MLOAD PUSH1 0x7 PUSH1 0x40 MLOAD PUSH2 0x3BBF SWAP5 SWAP4 SWAP3 SWAP2 SWAP1 PUSH2 0x5B37 JUMP JUMPDEST PUSH1 0x40 MLOAD DUP1 SWAP2 SUB SWAP1 LOG4 DUP6 MLOAD PUSH1 0x0 SWAP1 DUP2 MSTORE PUSH1 0x9 PUSH1 0x20 DUP2 DUP2 MSTORE PUSH1 0x40 DUP1 DUP5 KECCAK256 PUSH1 0x1 PUSH1 0x1 PUSH1 0xA0 SHL SUB DUP1 DUP12 AND DUP1 DUP8 MSTORE SWAP2 DUP5 MSTORE DUP3 DUP7 KECCAK256 SLOAD DUP13 MLOAD DUP8 MSTORE DUP6 DUP6 MSTORE DUP4 DUP8 KECCAK256 DUP4 DUP9 MSTORE SWAP1 SWAP5 MSTORE DUP3 DUP7 KECCAK256 SWAP6 SWAP1 SWAP6 SSTORE DUP2 DUP12 ADD MLOAD DUP12 MLOAD PUSH1 0x60 DUP14 ADD MLOAD SWAP4 MLOAD SWAP5 SWAP7 SWAP3 SWAP6 SWAP2 SWAP1 SWAP3 AND SWAP4 SWAP2 SWAP3 PUSH1 0x0 DUP1 MLOAD PUSH1 0x20 PUSH2 0x5F8F DUP4 CODECOPY DUP2 MLOAD SWAP2 MSTORE SWAP3 PUSH2 0x3C3E SWAP3 TIMESTAMP SWAP3 DUP10 SWAP3 SWAP1 SWAP2 SWAP1 PUSH2 0x5B37 JUMP JUMPDEST PUSH1 0x40 MLOAD DUP1 SWAP2 SUB SWAP1 LOG4 PUSH1 0x60 DUP8 ADD MLOAD PUSH1 0x1 PUSH1 0x1 PUSH1 0xA0 SHL SUB AND PUSH1 0x0 DUP2 DUP2 MSTORE PUSH1 0x5 PUSH1 0x20 MSTORE PUSH1 0x40 SWAP1 KECCAK256 PUSH1 0x2 ADD SLOAD PUSH4 0xA9059CBB SWAP1 DUP9 SWAP1 PUSH2 0x3C7C SWAP1 DUP6 SWAP1 PUSH1 0xFF AND PUSH2 0x49C1 JUMP JUMPDEST PUSH1 0x40 MLOAD PUSH1 0x1 PUSH1 0x1 PUSH1 0xE0 SHL SUB NOT PUSH1 0xE0 DUP6 SWAP1 SHL AND DUP2 MSTORE PUSH1 0x1 PUSH1 0x1 PUSH1 0xA0 SHL SUB SWAP1 SWAP3 AND PUSH1 0x4 DUP4 ADD MSTORE PUSH1 0x24 DUP3 ADD MSTORE PUSH1 0x44 ADD PUSH1 0x20 PUSH1 0x40 MLOAD DUP1 DUP4 SUB DUP2 PUSH1 0x0 DUP8 GAS CALL ISZERO DUP1 ISZERO PUSH2 0x3CC7 JUMPI RETURNDATASIZE PUSH1 0x0 DUP1 RETURNDATACOPY RETURNDATASIZE PUSH1 0x0 REVERT JUMPDEST POP POP POP POP PUSH1 0x40 MLOAD RETURNDATASIZE PUSH1 0x1F NOT PUSH1 0x1F DUP3 ADD AND DUP3 ADD DUP1 PUSH1 0x40 MSTORE POP DUP2 ADD SWAP1 PUSH2 0x3CEB SWAP2 SWAP1 PUSH2 0x5C20 JUMP JUMPDEST PUSH2 0x3D1C JUMPI PUSH1 0x40 MLOAD PUSH3 0x461BCD PUSH1 0xE5 SHL DUP2 MSTORE PUSH1 0x20 PUSH1 0x4 DUP3 ADD MSTORE PUSH1 0x2 PUSH1 0x24 DUP3 ADD MSTORE PUSH2 0x3231 PUSH1 0xF0 SHL PUSH1 0x44 DUP3 ADD MSTORE PUSH1 0x64 ADD PUSH2 0x657 JUMP JUMPDEST POP POP POP POP POP POP POP JUMP JUMPDEST PUSH2 0x3D2D PUSH2 0x45EA JUMP JUMPDEST PUSH1 0x6 DUP1 SLOAD SWAP2 ISZERO ISZERO PUSH1 0x1 PUSH1 0xD8 SHL MUL PUSH1 0xFF PUSH1 0xD8 SHL NOT SWAP1 SWAP3 AND SWAP2 SWAP1 SWAP2 OR SWAP1 SSTORE JUMP JUMPDEST PUSH2 0x3D53 PUSH2 0x45EA JUMP JUMPDEST PUSH1 0x6 DUP1 SLOAD SWAP2 ISZERO ISZERO PUSH1 0x1 PUSH1 0xD0 SHL MUL PUSH1 0xFF PUSH1 0xD0 SHL NOT SWAP1 SWAP3 AND SWAP2 SWAP1 SWAP2 OR SWAP1 SSTORE JUMP JUMPDEST PUSH2 0x3D79 PUSH2 0x45EA JUMP JUMPDEST PUSH2 0x1388 SELFBALANCE GT ISZERO PUSH2 0x3DD2 JUMPI PUSH1 0x6 SLOAD PUSH7 0x1000000000000 SWAP1 DIV PUSH1 0x1 PUSH1 0x1 PUSH1 0xA0 SHL SUB AND PUSH2 0x8FC PUSH2 0x3DA8 PUSH2 0x1388 SELFBALANCE PUSH2 0x5C74 JUMP JUMPDEST PUSH1 0x40 MLOAD DUP2 ISZERO SWAP1 SWAP3 MUL SWAP2 PUSH1 0x0 DUP2 DUP2 DUP2 DUP6 DUP9 DUP9 CALL SWAP4 POP POP POP POP ISZERO DUP1 ISZERO PUSH2 0x3DD0 JUMPI RETURNDATASIZE PUSH1 0x0 DUP1 RETURNDATACOPY RETURNDATASIZE PUSH1 0x0 REVERT JUMPDEST POP JUMPDEST JUMP JUMPDEST PUSH1 0x0 PUSH2 0x3DDF CALLER PUSH2 0x43C0 JUMP JUMPDEST SWAP1 POP DUP1 PUSH1 0x20 ADD MLOAD ISZERO PUSH2 0x1438 JUMPI PUSH1 0x0 JUMPDEST DUP2 PUSH1 0x60 ADD MLOAD MLOAD DUP2 LT ISZERO PUSH2 0x1820 JUMPI DUP3 DUP3 PUSH1 0x60 ADD MLOAD DUP3 DUP2 MLOAD DUP2 LT PUSH2 0x3E12 JUMPI PUSH2 0x3E12 PUSH2 0x5B68 JUMP JUMPDEST PUSH1 0x20 MUL PUSH1 0x20 ADD ADD MLOAD PUSH1 0x0 ADD MLOAD SUB PUSH2 0x3E7E JUMPI PUSH5 0xFFFFFFFFFF TIMESTAMP AND CALLER DUP5 PUSH32 0x93CDA0785D40B289A535B99DC76D4C9CBB6D8146182861AC3AD40509398B1865 PUSH2 0x3E58 DUP9 DUP1 PUSH2 0x5A7E JUMP JUMPDEST PUSH2 0x3E65 PUSH1 0x20 DUP12 ADD DUP12 PUSH2 0x5A7E JUMP JUMPDEST PUSH1 0x40 MLOAD PUSH2 0x3E75 SWAP5 SWAP4 SWAP3 SWAP2 SWAP1 PUSH2 0x5AF5 JUMP JUMPDEST PUSH1 0x40 MLOAD DUP1 SWAP2 SUB SWAP1 LOG4 JUMPDEST PUSH1 0x1 ADD PUSH2 0x3DEE JUMP JUMPDEST PUSH1 0x60 PUSH1 0x0 PUSH2 0x3E93 TIMESTAMP PUSH2 0x4DC3 JUMP JUMPDEST PUSH1 0x6 SLOAD SWAP1 SWAP2 POP PUSH5 0xFFFFFFFFFF PUSH2 0x100 SWAP1 SWAP2 DIV DUP2 AND SWAP1 DUP3 AND GT PUSH2 0x3EDC JUMPI PUSH1 0x40 MLOAD PUSH3 0x461BCD PUSH1 0xE5 SHL DUP2 MSTORE PUSH1 0x20 PUSH1 0x4 DUP3 ADD MSTORE PUSH1 0x2 PUSH1 0x24 DUP3 ADD MSTORE PUSH2 0xC4D PUSH1 0xF2 SHL PUSH1 0x44 DUP3 ADD MSTORE PUSH1 0x64 ADD PUSH2 0x657 JUMP JUMPDEST PUSH1 0x0 PUSH2 0x3EE7 TIMESTAMP PUSH2 0x4DD2 JUMP JUMPDEST SWAP1 POP PUSH1 0x0 DUP1 PUSH1 0x0 PUSH1 0x2 SLOAD PUSH8 0xFFFFFFFFFFFFFFFF DUP2 GT ISZERO PUSH2 0x3F09 JUMPI PUSH2 0x3F09 PUSH2 0x5448 JUMP JUMPDEST PUSH1 0x40 MLOAD SWAP1 DUP1 DUP3 MSTORE DUP1 PUSH1 0x20 MUL PUSH1 0x20 ADD DUP3 ADD PUSH1 0x40 MSTORE DUP1 ISZERO PUSH2 0x3F4E JUMPI DUP2 PUSH1 0x20 ADD JUMPDEST PUSH1 0x40 DUP1 MLOAD DUP1 DUP3 ADD SWAP1 SWAP2 MSTORE PUSH1 0x0 DUP1 DUP3 MSTORE PUSH1 0x20 DUP3 ADD MSTORE DUP2 MSTORE PUSH1 0x20 ADD SWAP1 PUSH1 0x1 SWAP1 SUB SWAP1 DUP2 PUSH2 0x3F27 JUMPI SWAP1 POP JUMPDEST POP SWAP1 POP PUSH1 0x0 JUMPDEST PUSH1 0x3 DUP2 GT PUSH2 0x4219 JUMPI PUSH1 0x0 DUP2 PUSH2 0x3F6A JUMPI POP PUSH1 0x20 DUP6 ADD MLOAD JUMPDEST PUSH1 0x1 DUP3 SUB PUSH2 0x3F76 JUMPI POP DUP5 MLOAD JUMPDEST PUSH1 0x2 DUP3 SUB PUSH2 0x3F85 JUMPI POP PUSH1 0x40 DUP6 ADD MLOAD JUMPDEST PUSH1 0x3 DUP3 SUB PUSH2 0x3F94 JUMPI POP PUSH1 0x60 DUP6 ADD MLOAD JUMPDEST PUSH1 0x0 JUMPDEST PUSH1 0x0 DUP4 DUP2 MSTORE PUSH1 0xA PUSH1 0x20 SWAP1 DUP2 MSTORE PUSH1 0x40 DUP1 DUP4 KECCAK256 PUSH2 0xFFFF DUP7 AND DUP5 MSTORE SWAP1 SWAP2 MSTORE SWAP1 KECCAK256 SLOAD DUP2 LT ISZERO PUSH2 0x4204 JUMPI PUSH1 0x0 DUP4 DUP2 MSTORE PUSH1 0xA PUSH1 0x20 SWAP1 DUP2 MSTORE PUSH1 0x40 DUP1 DUP4 KECCAK256 PUSH2 0xFFFF DUP7 AND DUP5 MSTORE SWAP1 SWAP2 MSTORE SWAP1 KECCAK256 DUP1 SLOAD DUP3 SWAP1 DUP2 LT PUSH2 0x3FEB JUMPI PUSH2 0x3FEB PUSH2 0x5B68 JUMP JUMPDEST SWAP1 PUSH1 0x0 MSTORE PUSH1 0x20 PUSH1 0x0 KECCAK256 SWAP1 PUSH1 0x4 MUL ADD PUSH1 0x3 ADD PUSH1 0x15 SWAP1 SLOAD SWAP1 PUSH2 0x100 EXP SWAP1 DIV PUSH1 0xFF AND PUSH2 0x41FC JUMPI PUSH1 0x0 DUP4 DUP2 MSTORE PUSH1 0xA PUSH1 0x20 SWAP1 DUP2 MSTORE PUSH1 0x40 DUP1 DUP4 KECCAK256 PUSH2 0xFFFF DUP7 AND DUP5 MSTORE SWAP1 SWAP2 MSTORE DUP2 KECCAK256 DUP1 SLOAD DUP4 SWAP1 DUP2 LT PUSH2 0x403D JUMPI PUSH2 0x403D PUSH2 0x5B68 JUMP JUMPDEST PUSH1 0x0 SWAP2 DUP3 MSTORE PUSH1 0x20 DUP1 DUP4 KECCAK256 PUSH1 0x4 SWAP1 SWAP3 MUL SWAP1 SWAP2 ADD SLOAD DUP7 DUP4 MSTORE PUSH1 0xA DUP3 MSTORE PUSH1 0x40 DUP1 DUP5 KECCAK256 PUSH2 0xFFFF DUP9 AND DUP6 MSTORE SWAP1 SWAP3 MSTORE SWAP1 DUP3 KECCAK256 DUP1 SLOAD SWAP2 SWAP4 POP SWAP1 DUP5 SWAP1 DUP2 LT PUSH2 0x407F JUMPI PUSH2 0x407F PUSH2 0x5B68 JUMP JUMPDEST PUSH1 0x0 SWAP2 DUP3 MSTORE PUSH1 0x20 DUP1 DUP4 KECCAK256 PUSH1 0x3 PUSH1 0x4 SWAP1 SWAP4 MUL ADD SWAP2 SWAP1 SWAP2 ADD SLOAD DUP8 DUP4 MSTORE PUSH1 0xA DUP3 MSTORE PUSH1 0x40 DUP1 DUP5 KECCAK256 PUSH2 0xFFFF DUP10 AND DUP6 MSTORE SWAP1 SWAP3 MSTORE SWAP1 DUP3 KECCAK256 DUP1 SLOAD PUSH1 0x1 PUSH1 0x1 PUSH1 0xA0 SHL SUB SWAP1 SWAP3 AND SWAP4 POP SWAP1 DUP6 SWAP1 DUP2 LT PUSH2 0x40CF JUMPI PUSH2 0x40CF PUSH2 0x5B68 JUMP JUMPDEST SWAP1 PUSH1 0x0 MSTORE PUSH1 0x20 PUSH1 0x0 KECCAK256 SWAP1 PUSH1 0x4 MUL ADD PUSH1 0x1 ADD SLOAD SWAP1 POP PUSH2 0x4109 PUSH1 0x40 MLOAD DUP1 PUSH1 0x40 ADD PUSH1 0x40 MSTORE DUP1 PUSH1 0x0 DUP2 MSTORE PUSH1 0x20 ADD PUSH1 0x0 PUSH1 0x1 PUSH1 0x1 PUSH1 0xA0 SHL SUB AND DUP2 MSTORE POP SWAP1 JUMP JUMPDEST PUSH1 0x0 DUP3 PUSH2 0x2710 PUSH1 0x0 SLOAD DUP6 PUSH2 0x411D SWAP2 SWAP1 PUSH2 0x5C3D JUMP JUMPDEST PUSH2 0x4127 SWAP2 SWAP1 PUSH2 0x5BF9 JUMP JUMPDEST PUSH2 0x4131 SWAP2 SWAP1 PUSH2 0x5C74 JUMP JUMPDEST SWAP1 POP PUSH1 0x0 DUP1 JUMPDEST PUSH1 0x0 DUP8 DUP2 MSTORE PUSH1 0xB PUSH1 0x20 MSTORE PUSH1 0x40 SWAP1 KECCAK256 SLOAD DUP2 LT ISZERO PUSH2 0x41F4 JUMPI PUSH1 0x2 SLOAD DUP14 SUB PUSH2 0x416A JUMPI POP SWAP9 SWAP15 SWAP14 POP POP POP POP POP POP POP POP POP POP POP POP POP POP JUMP JUMPDEST PUSH1 0x3 SLOAD ISZERO DUP1 PUSH2 0x4180 JUMPI POP PUSH1 0x6 SLOAD PUSH1 0xFF AND ISZERO ISZERO PUSH1 0x1 EQ JUMPDEST ISZERO PUSH2 0x41EC JUMPI DUP13 PUSH2 0x418F DUP2 PUSH2 0x5C87 JUMP JUMPDEST SWAP14 POP PUSH2 0x419D SWAP1 POP DUP4 DUP4 PUSH2 0x5C0D JUMP JUMPDEST SWAP2 POP PUSH1 0x40 MLOAD DUP1 PUSH1 0x40 ADD PUSH1 0x40 MSTORE DUP1 DUP4 DUP2 MSTORE PUSH1 0x20 ADD DUP8 PUSH1 0x1 PUSH1 0x1 PUSH1 0xA0 SHL SUB AND DUP2 MSTORE POP SWAP4 POP DUP4 DUP12 DUP14 DUP2 MLOAD DUP2 LT PUSH2 0x41D2 JUMPI PUSH2 0x41D2 PUSH2 0x5B68 JUMP JUMPDEST PUSH1 0x20 MUL PUSH1 0x20 ADD ADD DUP2 SWAP1 MSTORE POP DUP12 DUP1 PUSH2 0x41E8 SWAP1 PUSH2 0x5C87 JUMP JUMPDEST SWAP13 POP POP JUMPDEST PUSH1 0x1 ADD PUSH2 0x4137 JUMP JUMPDEST POP POP POP POP POP POP POP JUMPDEST PUSH1 0x1 ADD PUSH2 0x3F97 JUMP JUMPDEST POP POP DUP1 DUP1 PUSH2 0x4211 SWAP1 PUSH2 0x5C87 JUMP JUMPDEST SWAP2 POP POP PUSH2 0x3F54 JUMP JUMPDEST POP PUSH1 0x0 DUP1 JUMPDEST DUP3 MLOAD DUP2 LT ISZERO PUSH2 0x426E JUMPI PUSH1 0x0 PUSH1 0x1 PUSH1 0x1 PUSH1 0xA0 SHL SUB AND DUP4 DUP3 DUP2 MLOAD DUP2 LT PUSH2 0x4244 JUMPI PUSH2 0x4244 PUSH2 0x5B68 JUMP JUMPDEST PUSH1 0x20 MUL PUSH1 0x20 ADD ADD MLOAD PUSH1 0x20 ADD MLOAD PUSH1 0x1 PUSH1 0x1 PUSH1 0xA0 SHL SUB AND SUB PUSH2 0x4266 JUMPI DUP1 SWAP2 POP PUSH2 0x426E JUMP JUMPDEST PUSH1 0x1 ADD PUSH2 0x421E JUMP JUMPDEST POP PUSH1 0x0 DUP2 PUSH8 0xFFFFFFFFFFFFFFFF DUP2 GT ISZERO PUSH2 0x428A JUMPI PUSH2 0x428A PUSH2 0x5448 JUMP JUMPDEST PUSH1 0x40 MLOAD SWAP1 DUP1 DUP3 MSTORE DUP1 PUSH1 0x20 MUL PUSH1 0x20 ADD DUP3 ADD PUSH1 0x40 MSTORE DUP1 ISZERO PUSH2 0x42CF JUMPI DUP2 PUSH1 0x20 ADD JUMPDEST PUSH1 0x40 DUP1 MLOAD DUP1 DUP3 ADD SWAP1 SWAP2 MSTORE PUSH1 0x0 DUP1 DUP3 MSTORE PUSH1 0x20 DUP3 ADD MSTORE DUP2 MSTORE PUSH1 0x20 ADD SWAP1 PUSH1 0x1 SWAP1 SUB SWAP1 DUP2 PUSH2 0x42A8 JUMPI SWAP1 POP JUMPDEST POP SWAP1 POP PUSH1 0x0 JUMPDEST DUP3 DUP2 LT ISZERO PUSH2 0x431C JUMPI DUP4 DUP2 DUP2 MLOAD DUP2 LT PUSH2 0x42EF JUMPI PUSH2 0x42EF PUSH2 0x5B68 JUMP JUMPDEST PUSH1 0x20 MUL PUSH1 0x20 ADD ADD MLOAD DUP3 DUP3 DUP2 MLOAD DUP2 LT PUSH2 0x4309 JUMPI PUSH2 0x4309 PUSH2 0x5B68 JUMP JUMPDEST PUSH1 0x20 SWAP1 DUP2 MUL SWAP2 SWAP1 SWAP2 ADD ADD MSTORE PUSH1 0x1 ADD PUSH2 0x42D5 JUMP JUMPDEST POP SWAP8 SWAP7 POP POP POP POP POP POP POP JUMP JUMPDEST TIMESTAMP PUSH5 0xFFFFFFFFFF AND CALLER PUSH1 0x1 PUSH1 0x1 PUSH1 0xA0 SHL SUB AND PUSH32 0x34F43ABF7A52B609B04511ED963A29EBB76AE3E0CA0FF5594BE1C2A84EBD03F2 DUP4 PUSH1 0x0 ADD MLOAD DUP5 PUSH1 0x20 ADD MLOAD DUP6 PUSH1 0x40 ADD MLOAD DUP7 PUSH1 0x60 ADD MLOAD DUP8 PUSH1 0x80 ADD MLOAD DUP9 PUSH1 0xA0 ADD MLOAD PUSH1 0x40 MLOAD PUSH2 0x438B SWAP7 SWAP6 SWAP5 SWAP4 SWAP3 SWAP2 SWAP1 PUSH2 0x5D03 JUMP JUMPDEST PUSH1 0x40 MLOAD DUP1 SWAP2 SUB SWAP1 LOG3 POP JUMP JUMPDEST PUSH1 0x8 DUP2 DUP2 SLOAD DUP2 LT PUSH2 0x43A6 JUMPI PUSH1 0x0 DUP1 REVERT JUMPDEST PUSH1 0x0 SWAP2 DUP3 MSTORE PUSH1 0x20 SWAP1 SWAP2 KECCAK256 ADD SLOAD PUSH1 0x1 PUSH1 0x1 PUSH1 0xA0 SHL SUB AND SWAP1 POP DUP2 JUMP JUMPDEST PUSH1 0x40 DUP1 MLOAD PUSH1 0x80 DUP2 ADD DUP3 MSTORE PUSH1 0x0 DUP1 DUP3 MSTORE PUSH1 0x20 DUP3 ADD MSTORE PUSH1 0x60 SWAP2 DUP2 ADD DUP3 SWAP1 MSTORE DUP2 DUP2 ADD SWAP2 SWAP1 SWAP2 MSTORE PUSH1 0x1 PUSH1 0x1 PUSH1 0xA0 SHL SUB DUP3 DUP2 AND PUSH1 0x0 SWAP1 DUP2 MSTORE PUSH1 0x7 PUSH1 0x20 SWAP1 DUP2 MSTORE PUSH1 0x40 DUP1 DUP4 KECCAK256 DUP2 MLOAD PUSH1 0x80 DUP2 ADD DUP4 MSTORE DUP2 SLOAD SWAP6 DUP7 AND DUP2 MSTORE PUSH1 0x1 PUSH1 0xA0 SHL SWAP1 SWAP6 DIV PUSH1 0xFF AND ISZERO ISZERO DUP6 DUP5 ADD MSTORE PUSH1 0x1 DUP2 ADD DUP1 SLOAD DUP4 MLOAD DUP2 DUP7 MUL DUP2 ADD DUP7 ADD DUP6 MSTORE DUP2 DUP2 MSTORE SWAP3 SWAP6 SWAP4 DUP8 ADD SWAP5 SWAP3 SWAP4 SWAP2 SWAP3 SWAP1 SWAP2 SWAP1 DUP5 ADD JUMPDEST DUP3 DUP3 LT ISZERO PUSH2 0x44F9 JUMPI PUSH1 0x0 DUP5 DUP2 MSTORE PUSH1 0x20 SWAP1 DUP2 SWAP1 KECCAK256 PUSH1 0x40 DUP1 MLOAD PUSH1 0x80 DUP2 ADD DUP3 MSTORE PUSH1 0x2 DUP7 MUL SWAP1 SWAP3 ADD DUP1 SLOAD DUP4 MSTORE PUSH1 0x1 DUP2 ADD SLOAD PUSH2 0xFFFF DUP2 AND SWAP5 DUP5 ADD SWAP5 SWAP1 SWAP5 MSTORE SWAP2 SWAP3 SWAP1 DUP4 ADD SWAP1 PUSH3 0x10000 SWAP1 DIV PUSH1 0xFF AND PUSH1 0x3 DUP2 GT ISZERO PUSH2 0x449C JUMPI PUSH2 0x449C PUSH2 0x5377 JUMP JUMPDEST PUSH1 0x3 DUP2 GT ISZERO PUSH2 0x44AD JUMPI PUSH2 0x44AD PUSH2 0x5377 JUMP JUMPDEST DUP2 MSTORE PUSH1 0x20 ADD PUSH1 0x1 DUP3 ADD PUSH1 0x3 SWAP1 SLOAD SWAP1 PUSH2 0x100 EXP SWAP1 DIV PUSH1 0xFF AND PUSH1 0x2 DUP2 GT ISZERO PUSH2 0x44D5 JUMPI PUSH2 0x44D5 PUSH2 0x5377 JUMP JUMPDEST PUSH1 0x2 DUP2 GT ISZERO PUSH2 0x44E6 JUMPI PUSH2 0x44E6 PUSH2 0x5377 JUMP JUMPDEST DUP2 MSTORE POP POP DUP2 MSTORE PUSH1 0x20 ADD SWAP1 PUSH1 0x1 ADD SWAP1 PUSH2 0x4443 JUMP JUMPDEST POP POP POP POP DUP2 MSTORE PUSH1 0x20 ADD PUSH1 0x2 DUP3 ADD DUP1 SLOAD DUP1 PUSH1 0x20 MUL PUSH1 0x20 ADD PUSH1 0x40 MLOAD SWAP1 DUP2 ADD PUSH1 0x40 MSTORE DUP1 SWAP3 SWAP2 SWAP1 DUP2 DUP2 MSTORE PUSH1 0x20 ADD PUSH1 0x0 SWAP1 JUMPDEST DUP3 DUP3 LT ISZERO PUSH2 0x45DC JUMPI PUSH1 0x0 DUP5 DUP2 MSTORE PUSH1 0x20 SWAP1 DUP2 SWAP1 KECCAK256 PUSH1 0x40 DUP1 MLOAD PUSH1 0x80 DUP2 ADD DUP3 MSTORE PUSH1 0x2 DUP7 MUL SWAP1 SWAP3 ADD DUP1 SLOAD DUP4 MSTORE PUSH1 0x1 DUP2 ADD SLOAD PUSH2 0xFFFF DUP2 AND SWAP5 DUP5 ADD SWAP5 SWAP1 SWAP5 MSTORE SWAP2 SWAP3 SWAP1 DUP4 ADD SWAP1 PUSH3 0x10000 SWAP1 DIV PUSH1 0xFF AND PUSH1 0x3 DUP2 GT ISZERO PUSH2 0x457F JUMPI PUSH2 0x457F PUSH2 0x5377 JUMP JUMPDEST PUSH1 0x3 DUP2 GT ISZERO PUSH2 0x4590 JUMPI PUSH2 0x4590 PUSH2 0x5377 JUMP JUMPDEST DUP2 MSTORE PUSH1 0x20 ADD PUSH1 0x1 DUP3 ADD PUSH1 0x3 SWAP1 SLOAD SWAP1 PUSH2 0x100 EXP SWAP1 DIV PUSH1 0xFF AND PUSH1 0x2 DUP2 GT ISZERO PUSH2 0x45B8 JUMPI PUSH2 0x45B8 PUSH2 0x5377 JUMP JUMPDEST PUSH1 0x2 DUP2 GT ISZERO PUSH2 0x45C9 JUMPI PUSH2 0x45C9 PUSH2 0x5377 JUMP JUMPDEST DUP2 MSTORE POP POP DUP2 MSTORE PUSH1 0x20 ADD SWAP1 PUSH1 0x1 ADD SWAP1 PUSH2 0x4526 JUMP JUMPDEST POP POP POP SWAP2 MSTORE POP SWAP1 SWAP4 SWAP3 POP POP POP JUMP JUMPDEST PUSH1 0x6 SLOAD PUSH7 0x1000000000000 SWAP1 DIV PUSH1 0x1 PUSH1 0x1 PUSH1 0xA0 SHL SUB AND CALLER EQ PUSH2 0x3DD2 JUMPI PUSH1 0x40 MLOAD PUSH3 0x461BCD PUSH1 0xE5 SHL DUP2 MSTORE PUSH1 0x20 PUSH1 0x4 DUP3 ADD MSTORE PUSH1 0x2 PUSH1 0x24 DUP3 ADD MSTORE PUSH2 0x189B PUSH1 0xF1 SHL PUSH1 0x44 DUP3 ADD MSTORE PUSH1 0x64 ADD PUSH2 0x657 JUMP JUMPDEST PUSH1 0x1 PUSH1 0x1 PUSH1 0xA0 SHL SUB DUP2 AND PUSH1 0x0 SWAP1 DUP2 MSTORE PUSH1 0x5 PUSH1 0x20 MSTORE PUSH1 0x40 DUP2 KECCAK256 PUSH1 0x2 ADD SLOAD PUSH2 0x100 SWAP1 DIV PUSH1 0xFF AND PUSH2 0x4662 JUMPI PUSH1 0x0 PUSH2 0x2DE4 JUMP JUMPDEST PUSH1 0x1 SWAP3 SWAP2 POP POP JUMP JUMPDEST CALLER PUSH2 0x3DD2 JUMPI PUSH1 0x40 MLOAD PUSH3 0x461BCD PUSH1 0xE5 SHL DUP2 MSTORE PUSH1 0x20 PUSH1 0x4 DUP3 ADD MSTORE PUSH1 0x1 PUSH1 0x24 DUP3 ADD MSTORE PUSH1 0x33 PUSH1 0xF8 SHL PUSH1 0x44 DUP3 ADD MSTORE PUSH1 0x64 ADD PUSH2 0x657 JUMP JUMPDEST PUSH1 0x40 DUP1 MLOAD PUSH2 0x100 DUP2 ADD DUP3 MSTORE PUSH1 0x0 DUP1 DUP3 MSTORE PUSH1 0x20 DUP3 ADD DUP2 SWAP1 MSTORE SWAP2 DUP2 ADD DUP3 SWAP1 MSTORE PUSH1 0x60 DUP2 ADD DUP3 SWAP1 MSTORE PUSH1 0x80 DUP2 ADD DUP3 SWAP1 MSTORE PUSH1 0xA0 DUP2 ADD DUP3 SWAP1 MSTORE PUSH1 0xC0 DUP2 ADD DUP3 SWAP1 MSTORE PUSH1 0xE0 DUP2 ADD SWAP2 SWAP1 SWAP2 MSTORE PUSH1 0x40 MLOAD PUSH12 0xFFFFFFFFFFFFFFFFFFFFFFFF NOT CALLER PUSH1 0x60 SHL AND PUSH1 0x20 DUP3 ADD MSTORE PREVRANDAO PUSH1 0x34 DUP3 ADD MSTORE TIMESTAMP PUSH1 0x54 DUP3 ADD MSTORE PUSH1 0x0 SWAP1 PUSH1 0x74 ADD PUSH1 0x40 DUP1 MLOAD PUSH1 0x1F NOT DUP2 DUP5 SUB ADD DUP2 MSTORE DUP3 DUP3 MSTORE DUP1 MLOAD PUSH1 0x20 SWAP2 DUP3 ADD KECCAK256 PUSH2 0x100 DUP5 ADD DUP4 MSTORE DUP1 DUP5 MSTORE SWAP1 DUP4 ADD DUP10 SWAP1 MSTORE CALLER SWAP2 DUP4 ADD SWAP2 SWAP1 SWAP2 MSTORE PUSH1 0x1 PUSH1 0x1 PUSH1 0xA0 SHL SUB DUP8 AND PUSH1 0x60 DUP4 ADD MSTORE PUSH1 0x1 PUSH1 0x80 DUP4 ADD MSTORE PUSH1 0x0 PUSH1 0xA0 DUP4 ADD MSTORE SWAP2 POP PUSH1 0xC0 DUP2 ADD DUP6 PUSH1 0x3 DUP2 GT ISZERO PUSH2 0x476E JUMPI PUSH2 0x476E PUSH2 0x5377 JUMP JUMPDEST DUP2 MSTORE PUSH1 0x20 ADD DUP5 PUSH2 0xFFFF AND DUP2 MSTORE POP SWAP2 POP POP SWAP5 SWAP4 POP POP POP POP JUMP JUMPDEST CALLER PUSH1 0x0 SWAP1 DUP2 MSTORE PUSH1 0x7 PUSH1 0x20 MSTORE PUSH1 0x40 DUP2 KECCAK256 SLOAD PUSH1 0x1 PUSH1 0xA0 SHL SWAP1 DIV PUSH1 0xFF AND ISZERO ISZERO SWAP1 SUB PUSH2 0x4814 JUMPI CALLER PUSH1 0x0 DUP2 DUP2 MSTORE PUSH1 0x7 PUSH1 0x20 MSTORE PUSH1 0x40 DUP2 KECCAK256 DUP1 SLOAD PUSH1 0x1 PUSH1 0x1 PUSH1 0xA0 SHL SUB NOT SWAP1 DUP2 AND DUP5 OR DUP3 SSTORE PUSH1 0x8 DUP1 SLOAD PUSH1 0x1 DUP2 ADD SWAP1 SWAP2 SSTORE PUSH32 0xF3F7A9FE364FAAB93B216DA50A3214154F22A0A2B415B23A84C8169E8B636EE3 ADD DUP1 SLOAD SWAP1 SWAP2 AND DUP5 OR SWAP1 SSTORE SWAP2 SWAP1 MSTORE DUP1 SLOAD PUSH1 0xFF PUSH1 0xA0 SHL NOT AND PUSH1 0x1 PUSH1 0xA0 SHL OR SWAP1 SSTORE JUMPDEST DUP1 ISZERO PUSH2 0x48C6 JUMPI CALLER PUSH1 0x0 SWAP1 DUP2 MSTORE PUSH1 0x7 PUSH1 0x20 SWAP1 DUP2 MSTORE PUSH1 0x40 DUP1 DUP4 KECCAK256 PUSH1 0x2 SWAP1 DUP2 ADD DUP1 SLOAD PUSH1 0x1 DUP1 DUP3 ADD DUP4 SSTORE SWAP2 DUP7 MSTORE SWAP5 DUP5 SWAP1 KECCAK256 DUP8 MLOAD SWAP6 SWAP1 SWAP3 MUL SWAP1 SWAP2 ADD SWAP4 DUP5 SSTORE SWAP2 DUP6 ADD MLOAD SWAP2 DUP4 ADD DUP1 SLOAD PUSH2 0xFFFF NOT DUP2 AND PUSH2 0xFFFF SWAP1 SWAP5 AND SWAP4 DUP5 OR DUP3 SSTORE SWAP2 DUP7 ADD MLOAD DUP7 SWAP5 SWAP4 SWAP1 SWAP3 PUSH3 0xFFFFFF NOT AND OR PUSH3 0x10000 DUP4 PUSH1 0x3 DUP2 GT ISZERO PUSH2 0x488D JUMPI PUSH2 0x488D PUSH2 0x5377 JUMP JUMPDEST MUL OR SWAP1 SSTORE POP PUSH1 0x60 DUP3 ADD MLOAD PUSH1 0x1 DUP3 ADD DUP1 SLOAD PUSH4 0xFF000000 NOT AND PUSH4 0x1000000 DUP4 PUSH1 0x2 DUP2 GT ISZERO PUSH2 0x48BB JUMPI PUSH2 0x48BB PUSH2 0x5377 JUMP JUMPDEST MUL OR SWAP1 SSTORE POP POP POP POP POP JUMP JUMPDEST CALLER PUSH1 0x0 SWAP1 DUP2 MSTORE PUSH1 0x7 PUSH1 0x20 SWAP1 DUP2 MSTORE PUSH1 0x40 DUP1 DUP4 KECCAK256 PUSH1 0x1 SWAP1 DUP2 ADD DUP1 SLOAD DUP1 DUP4 ADD DUP3 SSTORE SWAP1 DUP6 MSTORE SWAP4 DUP4 SWAP1 KECCAK256 DUP7 MLOAD PUSH1 0x2 SWAP1 SWAP6 MUL ADD SWAP4 DUP5 SSTORE SWAP2 DUP6 ADD MLOAD SWAP2 DUP4 ADD DUP1 SLOAD PUSH2 0xFFFF NOT DUP2 AND PUSH2 0xFFFF SWAP1 SWAP5 AND SWAP4 DUP5 OR DUP3 SSTORE SWAP2 DUP7 ADD MLOAD DUP7 SWAP5 SWAP4 SWAP1 SWAP3 PUSH3 0xFFFFFF NOT AND OR PUSH3 0x10000 DUP4 PUSH1 0x3 DUP2 GT ISZERO PUSH2 0x488D JUMPI PUSH2 0x488D PUSH2 0x5377 JUMP JUMPDEST PUSH1 0x0 DUP1 PUSH1 0x40 MLOAD DUP1 PUSH1 0x80 ADD PUSH1 0x40 MSTORE DUP1 DUP8 DUP2 MSTORE PUSH1 0x20 ADD DUP7 PUSH2 0xFFFF AND DUP2 MSTORE PUSH1 0x20 ADD DUP6 PUSH1 0x3 DUP2 GT ISZERO PUSH2 0x4966 JUMPI PUSH2 0x4966 PUSH2 0x5377 JUMP JUMPDEST DUP2 MSTORE PUSH1 0x20 ADD DUP5 PUSH1 0x2 DUP2 GT ISZERO PUSH2 0x497D JUMPI PUSH2 0x497D PUSH2 0x5377 JUMP JUMPDEST DUP2 MSTORE POP SWAP1 POP PUSH1 0x0 PUSH2 0x499B DUP3 PUSH1 0x0 ADD MLOAD DUP4 PUSH1 0x40 ADD MLOAD DUP5 PUSH1 0x20 ADD MLOAD PUSH2 0xB7E JUMP JUMPDEST SWAP1 POP DUP1 PUSH1 0x80 ADD MLOAD ISZERO PUSH2 0x49B2 JUMPI PUSH1 0x1 SWAP3 POP POP POP PUSH2 0x49B9 JUMP JUMPDEST PUSH1 0x0 SWAP3 POP POP POP JUMPDEST SWAP5 SWAP4 POP POP POP POP JUMP JUMPDEST PUSH1 0x0 PUSH1 0x12 PUSH1 0xFF DUP4 AND DUP2 LT ISZERO PUSH2 0x49F7 JUMPI PUSH2 0x49DA DUP2 DUP5 PUSH2 0x5D85 JUMP JUMPDEST PUSH2 0x49E5 SWAP1 PUSH1 0xA PUSH2 0x5E85 JUMP JUMPDEST PUSH2 0x49EF SWAP1 DUP6 PUSH2 0x5C3D JUMP JUMPDEST SWAP2 POP POP PUSH2 0x2DE4 JUMP JUMPDEST DUP1 PUSH1 0xFF AND DUP4 PUSH1 0xFF AND LT ISZERO PUSH2 0x4A24 JUMPI PUSH2 0x4A0F DUP4 DUP3 PUSH2 0x5D85 JUMP JUMPDEST PUSH2 0x4A1A SWAP1 PUSH1 0xA PUSH2 0x5E85 JUMP JUMPDEST PUSH2 0x49EF SWAP1 DUP6 PUSH2 0x5BF9 JUMP JUMPDEST DUP4 SWAP2 POP POP PUSH2 0x2DE4 JUMP JUMPDEST POP SWAP3 SWAP2 POP POP JUMP JUMPDEST PUSH1 0x0 DUP1 PUSH2 0x4A40 DUP7 PUSH2 0x4DD2 JUMP JUMPDEST SWAP1 POP PUSH1 0x0 DUP1 PUSH1 0x0 DUP6 PUSH1 0xFF AND PUSH1 0x0 SUB PUSH2 0x4A66 JUMPI DUP4 PUSH1 0x20 ADD MLOAD PUSH2 0xFFFF AND SWAP3 POP PUSH1 0x7 SWAP2 POP PUSH2 0x4AED JUMP JUMPDEST DUP6 PUSH1 0xFF AND PUSH1 0x1 SUB PUSH2 0x4A9D JUMPI PUSH2 0x4A8B DUP5 PUSH1 0x80 ADD MLOAD PUSH2 0xFFFF AND DUP6 PUSH1 0xA0 ADD MLOAD PUSH2 0xFFFF AND PUSH2 0x5069 JUMP JUMPDEST DUP5 MLOAD PUSH2 0xFFFF AND SWAP4 POP SWAP2 POP DUP2 SWAP1 POP PUSH2 0x4AED JUMP JUMPDEST DUP6 PUSH1 0xFF AND PUSH1 0x2 SUB PUSH2 0x4AD1 JUMPI PUSH2 0x4AC2 DUP5 PUSH1 0x60 ADD MLOAD PUSH2 0xFFFF AND DUP6 PUSH1 0x80 ADD MLOAD PUSH2 0xFFFF AND PUSH2 0x50EF JUMP JUMPDEST PUSH2 0xFFFF AND SWAP3 POP PUSH1 0x5A SWAP2 POP PUSH2 0x4AED JUMP JUMPDEST DUP6 PUSH1 0xFF AND PUSH1 0x3 SUB PUSH2 0x4AED JUMPI DUP4 PUSH1 0x60 ADD MLOAD PUSH2 0xFFFF AND SWAP3 POP PUSH2 0x16D SWAP2 POP JUMPDEST DUP6 PUSH1 0xFF AND PUSH1 0x1 SUB PUSH2 0x4BA8 JUMPI PUSH1 0x0 PUSH2 0x16D PUSH2 0x4B08 DUP10 PUSH1 0xC PUSH2 0x5C3D JUMP JUMPDEST PUSH2 0x4B12 SWAP2 SWAP1 PUSH2 0x5BF9 JUMP JUMPDEST SWAP1 POP DUP4 DUP10 PUSH5 0xFFFFFFFFFF AND EQ ISZERO DUP1 ISZERO PUSH2 0x4B31 JUMPI POP DUP9 PUSH5 0xFFFFFFFFFF AND DUP5 GT JUMPDEST ISZERO PUSH2 0x4B62 JUMPI PUSH2 0x4B47 PUSH5 0xFFFFFFFFFF DUP11 AND DUP6 PUSH2 0x5C74 JUMP JUMPDEST PUSH2 0x4B51 SWAP1 DUP5 PUSH2 0x5C74 JUMP JUMPDEST PUSH2 0x4B5B SWAP1 DUP3 PUSH2 0x5C3D JUMP JUMPDEST SWAP8 POP PUSH2 0x4BA2 JUMP JUMPDEST DUP4 DUP10 PUSH5 0xFFFFFFFFFF AND EQ ISZERO DUP1 ISZERO PUSH2 0x4B7F JUMPI POP DUP9 PUSH5 0xFFFFFFFFFF AND DUP5 LT JUMPDEST ISZERO PUSH2 0x4BA2 JUMPI PUSH2 0x4B95 DUP5 PUSH5 0xFFFFFFFFFF DUP12 AND PUSH2 0x5C74 JUMP JUMPDEST PUSH2 0x4B9F SWAP1 DUP3 PUSH2 0x5C3D JUMP JUMPDEST SWAP8 POP JUMPDEST POP PUSH2 0x4C70 JUMP JUMPDEST PUSH1 0xFF DUP7 AND ISZERO DUP1 PUSH2 0x4BBB JUMPI POP DUP6 PUSH1 0xFF AND PUSH1 0x2 EQ JUMPDEST DUP1 PUSH2 0x4BC9 JUMPI POP DUP6 PUSH1 0xFF AND PUSH1 0x3 EQ JUMPDEST ISZERO PUSH2 0x4C70 JUMPI DUP3 DUP9 PUSH5 0xFFFFFFFFFF AND EQ ISZERO DUP1 ISZERO PUSH2 0x4BEB JUMPI POP DUP8 PUSH5 0xFFFFFFFFFF AND DUP4 GT JUMPDEST ISZERO PUSH2 0x4C26 JUMPI PUSH2 0x4C01 PUSH5 0xFFFFFFFFFF DUP10 AND DUP5 PUSH2 0x5C74 JUMP JUMPDEST PUSH2 0x4C0B SWAP1 DUP4 PUSH2 0x5C74 JUMP JUMPDEST PUSH2 0x4C15 DUP4 DUP10 PUSH2 0x5BF9 JUMP JUMPDEST PUSH2 0x4C1F SWAP2 SWAP1 PUSH2 0x5C3D JUMP JUMPDEST SWAP7 POP PUSH2 0x4C70 JUMP JUMPDEST DUP3 DUP9 PUSH5 0xFFFFFFFFFF AND EQ ISZERO DUP1 ISZERO PUSH2 0x4C43 JUMPI POP DUP8 PUSH5 0xFFFFFFFFFF AND DUP4 LT JUMPDEST ISZERO PUSH2 0x4C70 JUMPI PUSH2 0x4C59 DUP4 PUSH5 0xFFFFFFFFFF DUP11 AND PUSH2 0x5C74 JUMP JUMPDEST PUSH2 0x4C63 DUP4 DUP10 PUSH2 0x5BF9 JUMP JUMPDEST PUSH2 0x4C6D SWAP2 SWAP1 PUSH2 0x5C3D JUMP JUMPDEST SWAP7 POP JUMPDEST POP SWAP5 SWAP8 SWAP7 POP POP POP POP POP POP POP JUMP JUMPDEST PUSH1 0x0 DUP3 DUP2 MSTORE PUSH1 0xB PUSH1 0x20 MSTORE PUSH1 0x40 DUP2 KECCAK256 DUP1 SLOAD SWAP1 SWAP2 SWAP1 DUP2 JUMPDEST DUP2 DUP2 LT ISZERO PUSH2 0x4D0B JUMPI DUP5 PUSH1 0x1 PUSH1 0x1 PUSH1 0xA0 SHL SUB AND DUP5 DUP3 DUP2 SLOAD DUP2 LT PUSH2 0x4CB6 JUMPI PUSH2 0x4CB6 PUSH2 0x5B68 JUMP JUMPDEST PUSH1 0x0 SWAP2 DUP3 MSTORE PUSH1 0x20 SWAP1 SWAP2 KECCAK256 ADD SLOAD PUSH1 0x1 PUSH1 0x1 PUSH1 0xA0 SHL SUB AND SUB PUSH2 0x4D03 JUMPI DUP1 SWAP3 POP DUP4 DUP2 DUP2 SLOAD DUP2 LT PUSH2 0x4CE5 JUMPI PUSH2 0x4CE5 PUSH2 0x5B68 JUMP JUMPDEST PUSH1 0x0 SWAP2 DUP3 MSTORE PUSH1 0x20 SWAP1 SWAP2 KECCAK256 ADD DUP1 SLOAD PUSH1 0x1 PUSH1 0x1 PUSH1 0xA0 SHL SUB NOT AND SWAP1 SSTORE PUSH2 0x4D0B JUMP JUMPDEST PUSH1 0x1 ADD PUSH2 0x4C92 JUMP JUMPDEST POP DUP3 SLOAD DUP4 SWAP1 PUSH2 0x4D1C SWAP1 PUSH1 0x1 SWAP1 PUSH2 0x5C74 JUMP JUMPDEST DUP2 SLOAD DUP2 LT PUSH2 0x4D2C JUMPI PUSH2 0x4D2C PUSH2 0x5B68 JUMP JUMPDEST SWAP1 PUSH1 0x0 MSTORE PUSH1 0x20 PUSH1 0x0 KECCAK256 ADD PUSH1 0x0 SWAP1 SLOAD SWAP1 PUSH2 0x100 EXP SWAP1 DIV PUSH1 0x1 PUSH1 0x1 PUSH1 0xA0 SHL SUB AND DUP4 DUP4 DUP2 SLOAD DUP2 LT PUSH2 0x4D5C JUMPI PUSH2 0x4D5C PUSH2 0x5B68 JUMP JUMPDEST SWAP1 PUSH1 0x0 MSTORE PUSH1 0x20 PUSH1 0x0 KECCAK256 ADD PUSH1 0x0 PUSH2 0x100 EXP DUP2 SLOAD DUP2 PUSH1 0x1 PUSH1 0x1 PUSH1 0xA0 SHL SUB MUL NOT AND SWAP1 DUP4 PUSH1 0x1 PUSH1 0x1 PUSH1 0xA0 SHL SUB AND MUL OR SWAP1 SSTORE POP DUP3 DUP1 SLOAD DUP1 PUSH2 0x4D9A JUMPI PUSH2 0x4D9A PUSH2 0x5E94 JUMP JUMPDEST PUSH1 0x0 DUP3 DUP2 MSTORE PUSH1 0x20 SWAP1 KECCAK256 DUP2 ADD PUSH1 0x0 NOT SWAP1 DUP2 ADD DUP1 SLOAD PUSH1 0x1 PUSH1 0x1 PUSH1 0xA0 SHL SUB NOT AND SWAP1 SSTORE ADD SWAP1 SSTORE POP POP POP POP POP JUMP JUMPDEST PUSH1 0x0 PUSH2 0x2DE4 PUSH3 0x15180 DUP4 PUSH2 0x5EAA JUMP JUMPDEST PUSH1 0x40 DUP1 MLOAD PUSH1 0xC0 DUP2 ADD DUP3 MSTORE PUSH1 0x0 DUP1 DUP3 MSTORE PUSH1 0x20 DUP3 ADD DUP2 SWAP1 MSTORE SWAP2 DUP2 ADD DUP3 SWAP1 MSTORE PUSH1 0x60 DUP2 ADD DUP3 SWAP1 MSTORE PUSH1 0x80 DUP2 ADD DUP3 SWAP1 MSTORE PUSH1 0xA0 DUP2 ADD DUP3 SWAP1 MSTORE SWAP1 PUSH2 0x4E11 PUSH3 0x15180 DUP5 PUSH2 0x5BF9 JUMP JUMPDEST SWAP1 POP PUSH1 0x0 DUP1 DUP3 DUP2 PUSH2 0x4E25 DUP3 PUSH3 0x10BD9 PUSH2 0x5ED4 JUMP JUMPDEST PUSH2 0x4E32 SWAP1 PUSH3 0x253D8C PUSH2 0x5ED4 JUMP JUMPDEST SWAP1 POP PUSH1 0x0 PUSH3 0x23AB1 PUSH2 0x4E45 DUP4 PUSH1 0x4 PUSH2 0x5EFC JUMP JUMPDEST PUSH2 0x4E4F SWAP2 SWAP1 PUSH2 0x5F2C JUMP JUMPDEST SWAP1 POP PUSH1 0x4 PUSH2 0x4E60 DUP3 PUSH3 0x23AB1 PUSH2 0x5EFC JUMP JUMPDEST PUSH2 0x4E6B SWAP1 PUSH1 0x3 PUSH2 0x5ED4 JUMP JUMPDEST PUSH2 0x4E75 SWAP2 SWAP1 PUSH2 0x5F2C JUMP JUMPDEST PUSH2 0x4E7F SWAP1 DUP4 PUSH2 0x5F5A JUMP JUMPDEST SWAP2 POP PUSH1 0x0 PUSH3 0x164B09 PUSH2 0x4E92 DUP5 PUSH1 0x1 PUSH2 0x5ED4 JUMP JUMPDEST PUSH2 0x4E9E SWAP1 PUSH2 0xFA0 PUSH2 0x5EFC JUMP JUMPDEST PUSH2 0x4EA8 SWAP2 SWAP1 PUSH2 0x5F2C JUMP JUMPDEST SWAP1 POP PUSH1 0x4 PUSH2 0x4EB8 DUP3 PUSH2 0x5B5 PUSH2 0x5EFC JUMP JUMPDEST PUSH2 0x4EC2 SWAP2 SWAP1 PUSH2 0x5F2C JUMP JUMPDEST PUSH2 0x4ECC SWAP1 DUP5 PUSH2 0x5F5A JUMP JUMPDEST PUSH2 0x4ED7 SWAP1 PUSH1 0x1F PUSH2 0x5ED4 JUMP JUMPDEST SWAP3 POP PUSH1 0x0 PUSH2 0x98F PUSH2 0x4EE9 DUP6 PUSH1 0x50 PUSH2 0x5EFC JUMP JUMPDEST PUSH2 0x4EF3 SWAP2 SWAP1 PUSH2 0x5F2C JUMP JUMPDEST SWAP1 POP PUSH1 0x0 PUSH1 0x50 PUSH2 0x4F05 DUP4 PUSH2 0x98F PUSH2 0x5EFC JUMP JUMPDEST PUSH2 0x4F0F SWAP2 SWAP1 PUSH2 0x5F2C JUMP JUMPDEST PUSH2 0x4F19 SWAP1 DUP7 PUSH2 0x5F5A JUMP JUMPDEST SWAP1 POP PUSH2 0x4F26 PUSH1 0xB DUP4 PUSH2 0x5F2C JUMP JUMPDEST SWAP5 POP PUSH2 0x4F33 DUP6 PUSH1 0xC PUSH2 0x5EFC JUMP JUMPDEST PUSH2 0x4F3E DUP4 PUSH1 0x2 PUSH2 0x5ED4 JUMP JUMPDEST PUSH2 0x4F48 SWAP2 SWAP1 PUSH2 0x5F5A JUMP JUMPDEST SWAP2 POP DUP5 DUP4 PUSH2 0x4F57 PUSH1 0x31 DUP8 PUSH2 0x5F5A JUMP JUMPDEST PUSH2 0x4F62 SWAP1 PUSH1 0x64 PUSH2 0x5EFC JUMP JUMPDEST PUSH2 0x4F6C SWAP2 SWAP1 PUSH2 0x5ED4 JUMP JUMPDEST PUSH2 0x4F76 SWAP2 SWAP1 PUSH2 0x5ED4 JUMP JUMPDEST SWAP1 SWAP8 POP SWAP2 POP DUP7 DUP3 DUP3 DUP3 PUSH1 0x0 PUSH1 0x1 JUMPDEST DUP4 DUP2 GT PUSH2 0x4FD0 JUMPI DUP4 DUP2 SUB PUSH2 0x4FA7 JUMPI PUSH2 0x4FA0 PUSH2 0xFFFF DUP15 AND DUP4 PUSH2 0x5C0D JUMP JUMPDEST SWAP2 POP PUSH2 0x4FBE JUMP JUMPDEST PUSH2 0x4FB1 DUP6 DUP6 PUSH2 0x5069 JUMP JUMPDEST PUSH2 0x4FBB SWAP1 DUP4 PUSH2 0x5C0D JUMP JUMPDEST SWAP2 POP JUMPDEST DUP1 PUSH2 0x4FC8 DUP2 PUSH2 0x5C87 JUMP JUMPDEST SWAP2 POP POP PUSH2 0x4F84 JUMP JUMPDEST POP DUP1 SWAP11 POP PUSH2 0x4FE2 DUP12 PUSH2 0xFFFF AND DUP6 PUSH2 0x50EF JUMP JUMPDEST PUSH2 0xFFFF AND PUSH1 0x40 DUP16 ADD MSTORE PUSH2 0x4FF4 DUP16 PUSH2 0x51B3 JUMP JUMPDEST DUP15 PUSH1 0x20 ADD SWAP1 PUSH2 0xFFFF AND SWAP1 DUP2 PUSH2 0xFFFF AND DUP2 MSTORE POP POP DUP12 DUP15 PUSH1 0x0 ADD SWAP1 PUSH2 0xFFFF AND SWAP1 DUP2 PUSH2 0xFFFF AND DUP2 MSTORE POP POP DUP11 DUP15 PUSH1 0x60 ADD SWAP1 PUSH2 0xFFFF AND SWAP1 DUP2 PUSH2 0xFFFF AND DUP2 MSTORE POP POP DUP4 DUP15 PUSH1 0x80 ADD SWAP1 PUSH2 0xFFFF AND SWAP1 DUP2 PUSH2 0xFFFF AND DUP2 MSTORE POP POP DUP3 DUP15 PUSH1 0xA0 ADD SWAP1 PUSH2 0xFFFF AND SWAP1 DUP2 PUSH2 0xFFFF AND DUP2 MSTORE POP POP POP POP POP POP POP POP POP POP POP POP POP POP POP SWAP2 SWAP1 POP JUMP JUMPDEST PUSH1 0x0 DUP2 PUSH1 0x1 EQ DUP1 PUSH2 0x507A JUMPI POP DUP2 PUSH1 0x3 EQ JUMPDEST DUP1 PUSH2 0x5085 JUMPI POP DUP2 PUSH1 0x5 EQ JUMPDEST DUP1 PUSH2 0x5090 JUMPI POP DUP2 PUSH1 0x7 EQ JUMPDEST DUP1 PUSH2 0x509B JUMPI POP DUP2 PUSH1 0x8 EQ JUMPDEST DUP1 PUSH2 0x50A6 JUMPI POP DUP2 PUSH1 0xA EQ JUMPDEST DUP1 PUSH2 0x50B1 JUMPI POP DUP2 PUSH1 0xC EQ JUMPDEST ISZERO PUSH2 0x50BE JUMPI POP PUSH1 0x1F PUSH2 0x2DE4 JUMP JUMPDEST DUP2 PUSH1 0x2 EQ PUSH2 0x50CE JUMPI POP PUSH1 0x1E PUSH2 0x2DE4 JUMP JUMPDEST PUSH2 0x50D7 DUP4 PUSH2 0x51E9 JUMP JUMPDEST PUSH2 0x50E2 JUMPI PUSH1 0x1C PUSH2 0x50E5 JUMP JUMPDEST PUSH1 0x1D JUMPDEST PUSH1 0xFF AND SWAP4 SWAP3 POP POP POP JUMP JUMPDEST PUSH1 0x0 DUP1 PUSH2 0x50FB DUP4 PUSH2 0x51E9 JUMP JUMPDEST ISZERO PUSH2 0x5108 JUMPI POP PUSH1 0x1 PUSH2 0x510C JUMP JUMPDEST POP PUSH1 0x0 JUMPDEST PUSH2 0x5117 DUP2 PUSH1 0x5A PUSH2 0x5C0D JUMP JUMPDEST DUP5 GT PUSH2 0x5125 JUMPI DUP4 SWAP2 POP PUSH2 0x4A2D JUMP JUMPDEST DUP4 PUSH2 0x5131 DUP3 PUSH1 0x5A PUSH2 0x5C0D JUMP JUMPDEST LT DUP1 ISZERO PUSH2 0x5148 JUMPI POP PUSH2 0x5144 DUP2 PUSH1 0xB5 PUSH2 0x5C0D JUMP JUMPDEST DUP5 GT ISZERO JUMPDEST ISZERO PUSH2 0x5169 JUMPI PUSH2 0x5158 DUP2 PUSH1 0x5A PUSH2 0x5C0D JUMP JUMPDEST PUSH2 0x5162 SWAP1 DUP6 PUSH2 0x5C74 JUMP JUMPDEST SWAP2 POP PUSH2 0x4A2D JUMP JUMPDEST DUP4 PUSH2 0x5175 DUP3 PUSH1 0xB5 PUSH2 0x5C0D JUMP JUMPDEST LT DUP1 ISZERO PUSH2 0x518D JUMPI POP PUSH2 0x5189 DUP2 PUSH2 0x111 PUSH2 0x5C0D JUMP JUMPDEST DUP5 GT ISZERO JUMPDEST ISZERO PUSH2 0x519D JUMPI PUSH2 0x5158 DUP2 PUSH1 0xB5 PUSH2 0x5C0D JUMP JUMPDEST PUSH2 0x51A9 DUP2 PUSH2 0x111 PUSH2 0x5C0D JUMP JUMPDEST PUSH2 0x49B9 SWAP1 DUP6 PUSH2 0x5C74 JUMP JUMPDEST PUSH1 0x0 DUP1 PUSH2 0x51C3 PUSH3 0x15180 DUP5 PUSH2 0x5BF9 JUMP JUMPDEST SWAP1 POP PUSH1 0x0 PUSH1 0x7 PUSH2 0x51D4 DUP4 PUSH1 0x3 PUSH2 0x5C0D JUMP JUMPDEST PUSH2 0x51DE SWAP2 SWAP1 PUSH2 0x5F7A JUMP JUMPDEST PUSH2 0x49B9 SWAP1 PUSH1 0x1 PUSH2 0x5C0D JUMP JUMPDEST PUSH1 0x0 PUSH2 0x51F6 PUSH1 0x4 DUP4 PUSH2 0x5F7A JUMP JUMPDEST ISZERO DUP1 ISZERO PUSH2 0x520C JUMPI POP PUSH2 0x5209 PUSH1 0x64 DUP4 PUSH2 0x5F7A JUMP JUMPDEST ISZERO ISZERO JUMPDEST DUP1 PUSH2 0x2DE4 JUMPI POP PUSH2 0x521E PUSH2 0x190 DUP4 PUSH2 0x5F7A JUMP JUMPDEST ISZERO SWAP3 SWAP2 POP POP JUMP JUMPDEST PUSH1 0x1 PUSH1 0x1 PUSH1 0xA0 SHL SUB DUP2 AND DUP2 EQ PUSH2 0x3DD0 JUMPI PUSH1 0x0 DUP1 REVERT JUMPDEST DUP1 CALLDATALOAD PUSH2 0x5245 DUP2 PUSH2 0x5225 JUMP JUMPDEST SWAP2 SWAP1 POP JUMP JUMPDEST PUSH1 0x0 PUSH1 0x20 DUP3 DUP5 SUB SLT ISZERO PUSH2 0x525C JUMPI PUSH1 0x0 DUP1 REVERT JUMPDEST DUP2 CALLDATALOAD PUSH2 0x5267 DUP2 PUSH2 0x5225 JUMP JUMPDEST SWAP4 SWAP3 POP POP POP JUMP JUMPDEST PUSH1 0x0 PUSH1 0x40 DUP3 DUP5 SUB SLT ISZERO PUSH2 0x5280 JUMPI PUSH1 0x0 DUP1 REVERT JUMPDEST POP SWAP2 SWAP1 POP JUMP JUMPDEST DUP1 CALLDATALOAD PUSH1 0x4 DUP2 LT PUSH2 0x5245 JUMPI PUSH1 0x0 DUP1 REVERT JUMPDEST DUP1 CALLDATALOAD PUSH2 0xFFFF DUP2 AND DUP2 EQ PUSH2 0x5245 JUMPI PUSH1 0x0 DUP1 REVERT JUMPDEST PUSH1 0x0 DUP1 PUSH1 0x0 DUP1 PUSH1 0x0 PUSH1 0xA0 DUP7 DUP9 SUB SLT ISZERO PUSH2 0x52BF JUMPI PUSH1 0x0 DUP1 REVERT JUMPDEST DUP6 CALLDATALOAD SWAP5 POP PUSH1 0x20 DUP7 ADD CALLDATALOAD PUSH2 0x52D1 DUP2 PUSH2 0x5225 JUMP JUMPDEST SWAP4 POP PUSH1 0x40 DUP7 ADD CALLDATALOAD PUSH8 0xFFFFFFFFFFFFFFFF DUP2 GT ISZERO PUSH2 0x52ED JUMPI PUSH1 0x0 DUP1 REVERT JUMPDEST PUSH2 0x52F9 DUP9 DUP3 DUP10 ADD PUSH2 0x526E JUMP JUMPDEST SWAP4 POP POP PUSH2 0x5308 PUSH1 0x60 DUP8 ADD PUSH2 0x5286 JUMP JUMPDEST SWAP2 POP PUSH2 0x5316 PUSH1 0x80 DUP8 ADD PUSH2 0x5295 JUMP JUMPDEST SWAP1 POP SWAP3 SWAP6 POP SWAP3 SWAP6 SWAP1 SWAP4 POP JUMP JUMPDEST PUSH1 0x0 PUSH1 0x20 DUP3 DUP5 SUB SLT ISZERO PUSH2 0x5334 JUMPI PUSH1 0x0 DUP1 REVERT JUMPDEST POP CALLDATALOAD SWAP2 SWAP1 POP JUMP JUMPDEST PUSH1 0x0 DUP1 PUSH1 0x0 PUSH1 0x60 DUP5 DUP7 SUB SLT ISZERO PUSH2 0x5350 JUMPI PUSH1 0x0 DUP1 REVERT JUMPDEST DUP4 CALLDATALOAD SWAP3 POP PUSH2 0x5360 PUSH1 0x20 DUP6 ADD PUSH2 0x5286 JUMP JUMPDEST SWAP2 POP PUSH2 0x536E PUSH1 0x40 DUP6 ADD PUSH2 0x5295 JUMP JUMPDEST SWAP1 POP SWAP3 POP SWAP3 POP SWAP3 JUMP JUMPDEST PUSH4 0x4E487B71 PUSH1 0xE0 SHL PUSH1 0x0 MSTORE PUSH1 0x21 PUSH1 0x4 MSTORE PUSH1 0x24 PUSH1 0x0 REVERT JUMPDEST PUSH1 0x4 DUP2 LT PUSH2 0x539D JUMPI PUSH2 0x539D PUSH2 0x5377 JUMP JUMPDEST SWAP1 MSTORE JUMP JUMPDEST DUP1 MLOAD DUP3 MSTORE PUSH1 0x20 DUP2 ADD MLOAD PUSH1 0x20 DUP4 ADD MSTORE PUSH1 0x1 PUSH1 0x1 PUSH1 0xA0 SHL SUB PUSH1 0x40 DUP3 ADD MLOAD AND PUSH1 0x40 DUP4 ADD MSTORE PUSH1 0x1 PUSH1 0x1 PUSH1 0xA0 SHL SUB PUSH1 0x60 DUP3 ADD MLOAD AND PUSH1 0x60 DUP4 ADD MSTORE PUSH1 0x80 DUP2 ADD MLOAD ISZERO ISZERO PUSH1 0x80 DUP4 ADD MSTORE PUSH1 0xA0 DUP2 ADD MLOAD PUSH2 0x53F4 PUSH1 0xA0 DUP5 ADD DUP3 ISZERO ISZERO SWAP1 MSTORE JUMP JUMPDEST POP PUSH1 0xC0 DUP2 ADD MLOAD PUSH2 0x5407 PUSH1 0xC0 DUP5 ADD DUP3 PUSH2 0x538D JUMP JUMPDEST POP PUSH1 0xE0 DUP2 ADD MLOAD PUSH2 0x1438 PUSH1 0xE0 DUP5 ADD DUP3 PUSH2 0xFFFF AND SWAP1 MSTORE JUMP JUMPDEST PUSH2 0x100 DUP2 ADD PUSH2 0x2DE4 DUP3 DUP5 PUSH2 0x53A1 JUMP JUMPDEST PUSH1 0x0 PUSH2 0x100 DUP3 DUP5 SUB SLT DUP1 ISZERO PUSH2 0x5440 JUMPI PUSH1 0x0 DUP1 REVERT JUMPDEST POP SWAP1 SWAP3 SWAP2 POP POP JUMP JUMPDEST PUSH4 0x4E487B71 PUSH1 0xE0 SHL PUSH1 0x0 MSTORE PUSH1 0x41 PUSH1 0x4 MSTORE PUSH1 0x24 PUSH1 0x0 REVERT JUMPDEST PUSH1 0x40 MLOAD PUSH2 0x100 DUP2 ADD PUSH8 0xFFFFFFFFFFFFFFFF DUP2 GT DUP3 DUP3 LT OR ISZERO PUSH2 0x5482 JUMPI PUSH2 0x5482 PUSH2 0x5448 JUMP JUMPDEST PUSH1 0x40 MSTORE SWAP1 JUMP JUMPDEST PUSH1 0x40 MLOAD PUSH1 0xC0 DUP2 ADD PUSH8 0xFFFFFFFFFFFFFFFF DUP2 GT DUP3 DUP3 LT OR ISZERO PUSH2 0x5482 JUMPI PUSH2 0x5482 PUSH2 0x5448 JUMP JUMPDEST DUP1 ISZERO ISZERO DUP2 EQ PUSH2 0x3DD0 JUMPI PUSH1 0x0 DUP1 REVERT JUMPDEST DUP1 CALLDATALOAD PUSH2 0x5245 DUP2 PUSH2 0x54AB JUMP JUMPDEST PUSH1 0x0 PUSH2 0x100 DUP3 DUP5 SUB SLT ISZERO PUSH2 0x54D7 JUMPI PUSH1 0x0 DUP1 REVERT JUMPDEST PUSH2 0x54DF PUSH2 0x545E JUMP JUMPDEST DUP3 CALLDATALOAD DUP2 MSTORE PUSH1 0x20 DUP1 DUP5 ADD CALLDATALOAD SWAP1 DUP3 ADD MSTORE SWAP1 POP PUSH1 0x40 DUP3 ADD CALLDATALOAD PUSH2 0x54FD DUP2 PUSH2 0x5225 JUMP JUMPDEST PUSH1 0x40 DUP3 ADD MSTORE PUSH2 0x550E PUSH1 0x60 DUP4 ADD PUSH2 0x523A JUMP JUMPDEST PUSH1 0x60 DUP3 ADD MSTORE PUSH2 0x551F PUSH1 0x80 DUP4 ADD PUSH2 0x54B9 JUMP JUMPDEST PUSH1 0x80 DUP3 ADD MSTORE PUSH2 0x5530 PUSH1 0xA0 DUP4 ADD PUSH2 0x54B9 JUMP JUMPDEST PUSH1 0xA0 DUP3 ADD MSTORE PUSH2 0x5541 PUSH1 0xC0 DUP4 ADD PUSH2 0x5286 JUMP JUMPDEST PUSH1 0xC0 DUP3 ADD MSTORE PUSH2 0x5552 PUSH1 0xE0 DUP4 ADD PUSH2 0x5295 JUMP JUMPDEST PUSH1 0xE0 DUP3 ADD MSTORE SWAP3 SWAP2 POP POP JUMP JUMPDEST PUSH1 0x0 PUSH2 0x100 DUP3 DUP5 SUB SLT ISZERO PUSH2 0x5570 JUMPI PUSH1 0x0 DUP1 REVERT JUMPDEST PUSH2 0x5267 DUP4 DUP4 PUSH2 0x54C4 JUMP JUMPDEST PUSH1 0x0 DUP1 PUSH1 0x0 PUSH1 0x60 DUP5 DUP7 SUB SLT ISZERO PUSH2 0x558F JUMPI PUSH1 0x0 DUP1 REVERT JUMPDEST DUP4 CALLDATALOAD PUSH2 0x559A DUP2 PUSH2 0x5225 JUMP JUMPDEST SWAP3 POP PUSH1 0x20 DUP5 ADD CALLDATALOAD SWAP2 POP PUSH1 0x40 DUP5 ADD CALLDATALOAD PUSH1 0xFF DUP2 AND DUP2 EQ PUSH2 0x55B7 JUMPI PUSH1 0x0 DUP1 REVERT JUMPDEST DUP1 SWAP2 POP POP SWAP3 POP SWAP3 POP SWAP3 JUMP JUMPDEST PUSH1 0x20 DUP1 DUP3 MSTORE DUP3 MLOAD DUP3 DUP3 ADD DUP2 SWAP1 MSTORE PUSH1 0x0 SWAP2 DUP5 ADD SWAP1 PUSH1 0x40 DUP5 ADD SWAP1 DUP4 JUMPDEST DUP2 DUP2 LT ISZERO PUSH2 0x560F JUMPI DUP4 MLOAD DUP1 MLOAD PUSH1 0x1 PUSH1 0x1 PUSH1 0xA0 SHL SUB AND DUP5 MSTORE PUSH1 0x20 SWAP1 DUP2 ADD MLOAD DUP2 DUP6 ADD MSTORE SWAP1 SWAP4 ADD SWAP3 PUSH1 0x40 SWAP1 SWAP3 ADD SWAP2 PUSH1 0x1 ADD PUSH2 0x55DC JUMP JUMPDEST POP SWAP1 SWAP6 SWAP5 POP POP POP POP POP JUMP JUMPDEST PUSH1 0x0 DUP1 PUSH1 0x40 DUP4 DUP6 SUB SLT ISZERO PUSH2 0x562D JUMPI PUSH1 0x0 DUP1 REVERT JUMPDEST DUP3 CALLDATALOAD PUSH2 0x5638 DUP2 PUSH2 0x54AB JUMP JUMPDEST SWAP2 POP PUSH1 0x20 DUP4 ADD CALLDATALOAD PUSH2 0x5648 DUP2 PUSH2 0x5225 JUMP JUMPDEST DUP1 SWAP2 POP POP SWAP3 POP SWAP3 SWAP1 POP JUMP JUMPDEST PUSH1 0x3 DUP2 LT PUSH2 0x539D JUMPI PUSH2 0x539D PUSH2 0x5377 JUMP JUMPDEST PUSH1 0x20 DUP1 DUP3 MSTORE DUP3 MLOAD DUP3 DUP3 ADD DUP2 SWAP1 MSTORE PUSH1 0x0 SWAP2 DUP5 ADD SWAP1 PUSH1 0x40 DUP5 ADD SWAP1 DUP4 JUMPDEST DUP2 DUP2 LT ISZERO PUSH2 0x560F JUMPI DUP4 MLOAD PUSH2 0x5692 DUP5 DUP3 MLOAD PUSH2 0x53A1 JUMP JUMPDEST PUSH1 0x20 DUP2 ADD MLOAD PUSH2 0x56A5 PUSH2 0x100 DUP7 ADD DUP3 PUSH2 0x5653 JUMP JUMPDEST POP PUSH1 0x40 ADD MLOAD PUSH2 0x120 DUP5 ADD MSTORE PUSH1 0x20 SWAP4 SWAP1 SWAP4 ADD SWAP3 PUSH2 0x140 SWAP1 SWAP3 ADD SWAP2 PUSH1 0x1 ADD PUSH2 0x567D JUMP JUMPDEST PUSH1 0x0 DUP1 PUSH2 0x120 DUP4 DUP6 SUB SLT ISZERO PUSH2 0x56DA JUMPI PUSH1 0x0 DUP1 REVERT JUMPDEST PUSH2 0x56E4 DUP5 DUP5 PUSH2 0x54C4 JUMP JUMPDEST SWAP2 POP PUSH2 0x100 DUP4 ADD CALLDATALOAD PUSH2 0x5648 DUP2 PUSH2 0x5225 JUMP JUMPDEST PUSH1 0x0 PUSH1 0x20 DUP3 DUP5 SUB SLT ISZERO PUSH2 0x5707 JUMPI PUSH1 0x0 DUP1 REVERT JUMPDEST DUP2 CALLDATALOAD PUSH2 0x5267 DUP2 PUSH2 0x54AB JUMP JUMPDEST PUSH1 0x0 DUP1 PUSH1 0x40 DUP4 DUP6 SUB SLT ISZERO PUSH2 0x5725 JUMPI PUSH1 0x0 DUP1 REVERT JUMPDEST DUP3 CALLDATALOAD PUSH8 0xFFFFFFFFFFFFFFFF DUP2 GT ISZERO PUSH2 0x573C JUMPI PUSH1 0x0 DUP1 REVERT JUMPDEST PUSH2 0x5748 DUP6 DUP3 DUP7 ADD PUSH2 0x526E JUMP JUMPDEST SWAP6 PUSH1 0x20 SWAP5 SWAP1 SWAP5 ADD CALLDATALOAD SWAP5 POP POP POP POP JUMP JUMPDEST PUSH1 0x20 DUP1 DUP3 MSTORE DUP3 MLOAD DUP3 DUP3 ADD DUP2 SWAP1 MSTORE PUSH1 0x0 SWAP2 DUP5 ADD SWAP1 PUSH1 0x40 DUP5 ADD SWAP1 DUP4 JUMPDEST DUP2 DUP2 LT ISZERO PUSH2 0x560F JUMPI DUP4 MLOAD DUP1 MLOAD DUP5 MSTORE PUSH1 0x20 SWAP1 DUP2 ADD MLOAD PUSH1 0x1 PUSH1 0x1 PUSH1 0xA0 SHL SUB AND DUP2 DUP6 ADD MSTORE SWAP1 SWAP4 ADD SWAP3 PUSH1 0x40 SWAP1 SWAP3 ADD SWAP2 PUSH1 0x1 ADD PUSH2 0x5771 JUMP JUMPDEST PUSH1 0x0 DUP1 PUSH1 0x40 DUP4 DUP6 SUB SLT ISZERO PUSH2 0x57B7 JUMPI PUSH1 0x0 DUP1 REVERT JUMPDEST DUP3 CALLDATALOAD SWAP2 POP PUSH1 0x20 DUP4 ADD CALLDATALOAD PUSH2 0x5648 DUP2 PUSH2 0x5225 JUMP JUMPDEST PUSH1 0x0 DUP3 PUSH1 0x1F DUP4 ADD SLT PUSH2 0x57DA JUMPI PUSH1 0x0 DUP1 REVERT JUMPDEST DUP2 CALLDATALOAD PUSH8 0xFFFFFFFFFFFFFFFF DUP2 GT ISZERO PUSH2 0x57F4 JUMPI PUSH2 0x57F4 PUSH2 0x5448 JUMP JUMPDEST PUSH1 0x40 MLOAD PUSH1 0x1F DUP3 ADD PUSH1 0x1F NOT SWAP1 DUP2 AND PUSH1 0x3F ADD AND DUP2 ADD PUSH8 0xFFFFFFFFFFFFFFFF DUP2 GT DUP3 DUP3 LT OR ISZERO PUSH2 0x5823 JUMPI PUSH2 0x5823 PUSH2 0x5448 JUMP JUMPDEST PUSH1 0x40 MSTORE DUP2 DUP2 MSTORE DUP4 DUP3 ADD PUSH1 0x20 ADD DUP6 LT ISZERO PUSH2 0x583B JUMPI PUSH1 0x0 DUP1 REVERT JUMPDEST DUP2 PUSH1 0x20 DUP6 ADD PUSH1 0x20 DUP4 ADD CALLDATACOPY PUSH1 0x0 SWAP2 DUP2 ADD PUSH1 0x20 ADD SWAP2 SWAP1 SWAP2 MSTORE SWAP4 SWAP3 POP POP POP JUMP JUMPDEST PUSH1 0x0 PUSH1 0x20 DUP3 DUP5 SUB SLT ISZERO PUSH2 0x586A JUMPI PUSH1 0x0 DUP1 REVERT JUMPDEST DUP2 CALLDATALOAD PUSH8 0xFFFFFFFFFFFFFFFF DUP2 GT ISZERO PUSH2 0x5881 JUMPI PUSH1 0x0 DUP1 REVERT JUMPDEST DUP3 ADD PUSH1 0xC0 DUP2 DUP6 SUB SLT ISZERO PUSH2 0x5893 JUMPI PUSH1 0x0 DUP1 REVERT JUMPDEST PUSH2 0x589B PUSH2 0x5488 JUMP JUMPDEST DUP2 CALLDATALOAD PUSH8 0xFFFFFFFFFFFFFFFF DUP2 GT ISZERO PUSH2 0x58B2 JUMPI PUSH1 0x0 DUP1 REVERT JUMPDEST PUSH2 0x58BE DUP7 DUP3 DUP6 ADD PUSH2 0x57C9 JUMP JUMPDEST DUP3 MSTORE POP PUSH1 0x20 DUP3 ADD CALLDATALOAD PUSH8 0xFFFFFFFFFFFFFFFF DUP2 GT ISZERO PUSH2 0x58DB JUMPI PUSH1 0x0 DUP1 REVERT JUMPDEST PUSH2 0x58E7 DUP7 DUP3 DUP6 ADD PUSH2 0x57C9 JUMP JUMPDEST PUSH1 0x20 DUP4 ADD MSTORE POP PUSH1 0x40 DUP3 ADD CALLDATALOAD PUSH8 0xFFFFFFFFFFFFFFFF DUP2 GT ISZERO PUSH2 0x5907 JUMPI PUSH1 0x0 DUP1 REVERT JUMPDEST PUSH2 0x5913 DUP7 DUP3 DUP6 ADD PUSH2 0x57C9 JUMP JUMPDEST PUSH1 0x40 DUP4 ADD MSTORE POP PUSH1 0x60 DUP3 ADD CALLDATALOAD PUSH8 0xFFFFFFFFFFFFFFFF DUP2 GT ISZERO PUSH2 0x5933 JUMPI PUSH1 0x0 DUP1 REVERT JUMPDEST PUSH2 0x593F DUP7 DUP3 DUP6 ADD PUSH2 0x57C9 JUMP JUMPDEST PUSH1 0x60 DUP4 ADD MSTORE POP PUSH1 0x80 DUP3 ADD CALLDATALOAD PUSH8 0xFFFFFFFFFFFFFFFF DUP2 GT ISZERO PUSH2 0x595F JUMPI PUSH1 0x0 DUP1 REVERT JUMPDEST PUSH2 0x596B DUP7 DUP3 DUP6 ADD PUSH2 0x57C9 JUMP JUMPDEST PUSH1 0x80 DUP4 ADD MSTORE POP PUSH1 0xA0 DUP3 ADD CALLDATALOAD PUSH8 0xFFFFFFFFFFFFFFFF DUP2 GT ISZERO PUSH2 0x598B JUMPI PUSH1 0x0 DUP1 REVERT JUMPDEST PUSH2 0x5997 DUP7 DUP3 DUP6 ADD PUSH2 0x57C9 JUMP JUMPDEST PUSH1 0xA0 DUP4 ADD MSTORE POP SWAP5 SWAP4 POP POP POP POP JUMP JUMPDEST PUSH1 0x0 DUP2 MLOAD DUP1 DUP5 MSTORE PUSH1 0x20 DUP5 ADD SWAP4 POP PUSH1 0x20 DUP4 ADD PUSH1 0x0 JUMPDEST DUP3 DUP2 LT ISZERO PUSH2 0x5A13 JUMPI DUP2 MLOAD DUP1 MLOAD DUP8 MSTORE PUSH2 0xFFFF PUSH1 0x20 DUP3 ADD MLOAD AND PUSH1 0x20 DUP9 ADD MSTORE PUSH1 0x40 DUP2 ADD MLOAD PUSH2 0x59E7 PUSH1 0x40 DUP10 ADD DUP3 PUSH2 0x538D JUMP JUMPDEST POP PUSH1 0x60 DUP2 ADD MLOAD SWAP1 POP PUSH2 0x59FC PUSH1 0x60 DUP9 ADD DUP3 PUSH2 0x5653 JUMP JUMPDEST POP PUSH1 0x80 SWAP6 SWAP1 SWAP6 ADD SWAP5 PUSH1 0x20 SWAP2 SWAP1 SWAP2 ADD SWAP1 PUSH1 0x1 ADD PUSH2 0x59B9 JUMP JUMPDEST POP SWAP4 SWAP5 SWAP4 POP POP POP POP JUMP JUMPDEST PUSH1 0x20 DUP2 MSTORE PUSH1 0x1 PUSH1 0x1 PUSH1 0xA0 SHL SUB DUP3 MLOAD AND PUSH1 0x20 DUP3 ADD MSTORE PUSH1 0x20 DUP3 ADD MLOAD ISZERO ISZERO PUSH1 0x40 DUP3 ADD MSTORE PUSH1 0x0 PUSH1 0x40 DUP4 ADD MLOAD PUSH1 0x80 PUSH1 0x60 DUP5 ADD MSTORE PUSH2 0x5A58 PUSH1 0xA0 DUP5 ADD DUP3 PUSH2 0x59A5 JUMP JUMPDEST SWAP1 POP PUSH1 0x60 DUP5 ADD MLOAD PUSH1 0x1F NOT DUP5 DUP4 SUB ADD PUSH1 0x80 DUP6 ADD MSTORE PUSH2 0x5A75 DUP3 DUP3 PUSH2 0x59A5 JUMP JUMPDEST SWAP6 SWAP5 POP POP POP POP POP JUMP JUMPDEST PUSH1 0x0 DUP1 DUP4 CALLDATALOAD PUSH1 0x1E NOT DUP5 CALLDATASIZE SUB ADD DUP2 SLT PUSH2 0x5A95 JUMPI PUSH1 0x0 DUP1 REVERT JUMPDEST DUP4 ADD DUP1 CALLDATALOAD SWAP2 POP PUSH8 0xFFFFFFFFFFFFFFFF DUP3 GT ISZERO PUSH2 0x5AB0 JUMPI PUSH1 0x0 DUP1 REVERT JUMPDEST PUSH1 0x20 ADD SWAP2 POP CALLDATASIZE DUP2 SWAP1 SUB DUP3 SGT ISZERO PUSH2 0x5AC5 JUMPI PUSH1 0x0 DUP1 REVERT JUMPDEST SWAP3 POP SWAP3 SWAP1 POP JUMP JUMPDEST DUP2 DUP4 MSTORE DUP2 DUP2 PUSH1 0x20 DUP6 ADD CALLDATACOPY POP PUSH1 0x0 DUP3 DUP3 ADD PUSH1 0x20 SWAP1 DUP2 ADD SWAP2 SWAP1 SWAP2 MSTORE PUSH1 0x1F SWAP1 SWAP2 ADD PUSH1 0x1F NOT AND SWAP1 SWAP2 ADD ADD SWAP1 JUMP JUMPDEST PUSH1 0x40 DUP2 MSTORE PUSH1 0x0 PUSH2 0x5B09 PUSH1 0x40 DUP4 ADD DUP7 DUP9 PUSH2 0x5ACC JUMP JUMPDEST DUP3 DUP2 SUB PUSH1 0x20 DUP5 ADD MSTORE PUSH2 0x5B1C DUP2 DUP6 DUP8 PUSH2 0x5ACC JUMP JUMPDEST SWAP8 SWAP7 POP POP POP POP POP POP POP JUMP JUMPDEST PUSH1 0xA DUP2 LT PUSH2 0x539D JUMPI PUSH2 0x539D PUSH2 0x5377 JUMP JUMPDEST PUSH5 0xFFFFFFFFFF DUP6 AND DUP2 MSTORE PUSH1 0x20 DUP2 ADD DUP5 SWAP1 MSTORE PUSH1 0x1 PUSH1 0x1 PUSH1 0xA0 SHL SUB DUP4 AND PUSH1 0x40 DUP3 ADD MSTORE PUSH1 0x80 DUP2 ADD PUSH2 0x5A75 PUSH1 0x60 DUP4 ADD DUP5 PUSH2 0x5B27 JUMP JUMPDEST PUSH4 0x4E487B71 PUSH1 0xE0 SHL PUSH1 0x0 MSTORE PUSH1 0x32 PUSH1 0x4 MSTORE PUSH1 0x24 PUSH1 0x0 REVERT JUMPDEST PUSH1 0x0 PUSH1 0x20 DUP3 DUP5 SUB SLT ISZERO PUSH2 0x5B90 JUMPI PUSH1 0x0 DUP1 REVERT JUMPDEST PUSH2 0x5267 DUP3 PUSH2 0x5295 JUMP JUMPDEST PUSH1 0x0 PUSH1 0x20 DUP3 DUP5 SUB SLT ISZERO PUSH2 0x5BAB JUMPI PUSH1 0x0 DUP1 REVERT JUMPDEST PUSH2 0x5267 DUP3 PUSH2 0x5286 JUMP JUMPDEST PUSH1 0x0 PUSH1 0x20 DUP3 DUP5 SUB SLT ISZERO PUSH2 0x5BC6 JUMPI PUSH1 0x0 DUP1 REVERT JUMPDEST POP MLOAD SWAP2 SWAP1 POP JUMP JUMPDEST PUSH4 0x4E487B71 PUSH1 0xE0 SHL PUSH1 0x0 MSTORE PUSH1 0x12 PUSH1 0x4 MSTORE PUSH1 0x24 PUSH1 0x0 REVERT JUMPDEST PUSH4 0x4E487B71 PUSH1 0xE0 SHL PUSH1 0x0 MSTORE PUSH1 0x11 PUSH1 0x4 MSTORE PUSH1 0x24 PUSH1 0x0 REVERT JUMPDEST PUSH1 0x0 DUP3 PUSH2 0x5C08 JUMPI PUSH2 0x5C08 PUSH2 0x5BCD JUMP JUMPDEST POP DIV SWAP1 JUMP JUMPDEST DUP1 DUP3 ADD DUP1 DUP3 GT ISZERO PUSH2 0x2DE4 JUMPI PUSH2 0x2DE4 PUSH2 0x5BE3 JUMP JUMPDEST PUSH1 0x0 PUSH1 0x20 DUP3 DUP5 SUB SLT ISZERO PUSH2 0x5C32 JUMPI PUSH1 0x0 DUP1 REVERT JUMPDEST DUP2 MLOAD PUSH2 0x5267 DUP2 PUSH2 0x54AB JUMP JUMPDEST DUP1 DUP3 MUL DUP2 ISZERO DUP3 DUP3 DIV DUP5 EQ OR PUSH2 0x2DE4 JUMPI PUSH2 0x2DE4 PUSH2 0x5BE3 JUMP JUMPDEST PUSH5 0xFFFFFFFFFF DUP2 DUP2 AND DUP4 DUP3 AND MUL SWAP1 DUP2 AND SWAP1 DUP2 DUP2 EQ PUSH2 0x4A2D JUMPI PUSH2 0x4A2D PUSH2 0x5BE3 JUMP JUMPDEST DUP2 DUP2 SUB DUP2 DUP2 GT ISZERO PUSH2 0x2DE4 JUMPI PUSH2 0x2DE4 PUSH2 0x5BE3 JUMP JUMPDEST PUSH1 0x0 PUSH1 0x1 DUP3 ADD PUSH2 0x5C99 JUMPI PUSH2 0x5C99 PUSH2 0x5BE3 JUMP JUMPDEST POP PUSH1 0x1 ADD SWAP1 JUMP JUMPDEST PUSH5 0xFFFFFFFFFF DUP2 DUP2 AND DUP4 DUP3 AND ADD SWAP1 DUP2 GT ISZERO PUSH2 0x2DE4 JUMPI PUSH2 0x2DE4 PUSH2 0x5BE3 JUMP JUMPDEST PUSH1 0x0 DUP2 MLOAD DUP1 DUP5 MSTORE PUSH1 0x0 JUMPDEST DUP2 DUP2 LT ISZERO PUSH2 0x5CE3 JUMPI PUSH1 0x20 DUP2 DUP6 ADD DUP2 ADD MLOAD DUP7 DUP4 ADD DUP3 ADD MSTORE ADD PUSH2 0x5CC7 JUMP JUMPDEST POP PUSH1 0x0 PUSH1 0x20 DUP3 DUP7 ADD ADD MSTORE PUSH1 0x20 PUSH1 0x1F NOT PUSH1 0x1F DUP4 ADD AND DUP6 ADD ADD SWAP2 POP POP SWAP3 SWAP2 POP POP JUMP JUMPDEST PUSH1 0xC0 DUP2 MSTORE PUSH1 0x0 PUSH2 0x5D16 PUSH1 0xC0 DUP4 ADD DUP10 PUSH2 0x5CBD JUMP JUMPDEST DUP3 DUP2 SUB PUSH1 0x20 DUP5 ADD MSTORE PUSH2 0x5D28 DUP2 DUP10 PUSH2 0x5CBD JUMP JUMPDEST SWAP1 POP DUP3 DUP2 SUB PUSH1 0x40 DUP5 ADD MSTORE PUSH2 0x5D3C DUP2 DUP9 PUSH2 0x5CBD JUMP JUMPDEST SWAP1 POP DUP3 DUP2 SUB PUSH1 0x60 DUP5 ADD MSTORE PUSH2 0x5D50 DUP2 DUP8 PUSH2 0x5CBD JUMP JUMPDEST SWAP1 POP DUP3 DUP2 SUB PUSH1 0x80 DUP5 ADD MSTORE PUSH2 0x5D64 DUP2 DUP7 PUSH2 0x5CBD JUMP JUMPDEST SWAP1 POP DUP3 DUP2 SUB PUSH1 0xA0 DUP5 ADD MSTORE PUSH2 0x5D78 DUP2 DUP6 PUSH2 0x5CBD JUMP JUMPDEST SWAP10 SWAP9 POP POP POP POP POP POP POP POP POP JUMP JUMPDEST PUSH1 0xFF DUP3 DUP2 AND DUP3 DUP3 AND SUB SWAP1 DUP2 GT ISZERO PUSH2 0x2DE4 JUMPI PUSH2 0x2DE4 PUSH2 0x5BE3 JUMP JUMPDEST PUSH1 0x1 DUP2 JUMPDEST PUSH1 0x1 DUP5 GT ISZERO PUSH2 0x5DD9 JUMPI DUP1 DUP6 DIV DUP2 GT ISZERO PUSH2 0x5DBD JUMPI PUSH2 0x5DBD PUSH2 0x5BE3 JUMP JUMPDEST PUSH1 0x1 DUP5 AND ISZERO PUSH2 0x5DCB JUMPI SWAP1 DUP2 MUL SWAP1 JUMPDEST PUSH1 0x1 SWAP4 SWAP1 SWAP4 SHR SWAP3 DUP1 MUL PUSH2 0x5DA2 JUMP JUMPDEST SWAP4 POP SWAP4 SWAP2 POP POP JUMP JUMPDEST PUSH1 0x0 DUP3 PUSH2 0x5DF0 JUMPI POP PUSH1 0x1 PUSH2 0x2DE4 JUMP JUMPDEST DUP2 PUSH2 0x5DFD JUMPI POP PUSH1 0x0 PUSH2 0x2DE4 JUMP JUMPDEST DUP2 PUSH1 0x1 DUP2 EQ PUSH2 0x5E13 JUMPI PUSH1 0x2 DUP2 EQ PUSH2 0x5E1D JUMPI PUSH2 0x5E39 JUMP JUMPDEST PUSH1 0x1 SWAP2 POP POP PUSH2 0x2DE4 JUMP JUMPDEST PUSH1 0xFF DUP5 GT ISZERO PUSH2 0x5E2E JUMPI PUSH2 0x5E2E PUSH2 0x5BE3 JUMP JUMPDEST POP POP PUSH1 0x1 DUP3 SHL PUSH2 0x2DE4 JUMP JUMPDEST POP PUSH1 0x20 DUP4 LT PUSH2 0x133 DUP4 LT AND PUSH1 0x4E DUP5 LT PUSH1 0xB DUP5 LT AND OR ISZERO PUSH2 0x5E5C JUMPI POP DUP2 DUP2 EXP PUSH2 0x2DE4 JUMP JUMPDEST PUSH2 0x5E69 PUSH1 0x0 NOT DUP5 DUP5 PUSH2 0x5D9E JUMP JUMPDEST DUP1 PUSH1 0x0 NOT DIV DUP3 GT ISZERO PUSH2 0x5E7D JUMPI PUSH2 0x5E7D PUSH2 0x5BE3 JUMP JUMPDEST MUL SWAP4 SWAP3 POP POP POP JUMP JUMPDEST PUSH1 0x0 PUSH2 0x5267 PUSH1 0xFF DUP5 AND DUP4 PUSH2 0x5DE1 JUMP JUMPDEST PUSH4 0x4E487B71 PUSH1 0xE0 SHL PUSH1 0x0 MSTORE PUSH1 0x31 PUSH1 0x4 MSTORE PUSH1 0x24 PUSH1 0x0 REVERT JUMPDEST PUSH1 0x0 PUSH5 0xFFFFFFFFFF DUP4 AND DUP1 PUSH2 0x5EC1 JUMPI PUSH2 0x5EC1 PUSH2 0x5BCD JUMP JUMPDEST DUP1 PUSH5 0xFFFFFFFFFF DUP5 AND DIV SWAP2 POP POP SWAP3 SWAP2 POP POP JUMP JUMPDEST DUP1 DUP3 ADD DUP3 DUP2 SLT PUSH1 0x0 DUP4 SLT DUP1 ISZERO DUP3 AND DUP3 ISZERO DUP3 AND OR ISZERO PUSH2 0x5EF4 JUMPI PUSH2 0x5EF4 PUSH2 0x5BE3 JUMP JUMPDEST POP POP SWAP3 SWAP2 POP POP JUMP JUMPDEST DUP1 DUP3 MUL PUSH1 0x0 DUP3 SLT PUSH1 0x1 PUSH1 0xFF SHL DUP5 EQ AND ISZERO PUSH2 0x5F18 JUMPI PUSH2 0x5F18 PUSH2 0x5BE3 JUMP JUMPDEST DUP2 DUP2 SDIV DUP4 EQ DUP3 ISZERO OR PUSH2 0x2DE4 JUMPI PUSH2 0x2DE4 PUSH2 0x5BE3 JUMP JUMPDEST PUSH1 0x0 DUP3 PUSH2 0x5F3B JUMPI PUSH2 0x5F3B PUSH2 0x5BCD JUMP JUMPDEST PUSH1 0x1 PUSH1 0xFF SHL DUP3 EQ PUSH1 0x0 NOT DUP5 EQ AND ISZERO PUSH2 0x5F55 JUMPI PUSH2 0x5F55 PUSH2 0x5BE3 JUMP JUMPDEST POP SDIV SWAP1 JUMP JUMPDEST DUP2 DUP2 SUB PUSH1 0x0 DUP4 SLT DUP1 ISZERO DUP4 DUP4 SGT AND DUP4 DUP4 SLT DUP3 AND OR ISZERO PUSH2 0x4A2D JUMPI PUSH2 0x4A2D PUSH2 0x5BE3 JUMP JUMPDEST PUSH1 0x0 DUP3 PUSH2 0x5F89 JUMPI PUSH2 0x5F89 PUSH2 0x5BCD JUMP JUMPDEST POP MOD SWAP1 JUMP INVALID 0xCA PUSH12 0x824CAF1A48EA2AD039DBB063 CHAINID 0xF LOG3 0xE SWAP13 EXTCODECOPY 0xC2 SSTORE 0xEE 0xB5 0x22 BLOCKHASH 0xD6 CODESIZE 0xEC PUSH14 0xE65EA264697066735822122069E6 SWAP9 0xAA 0xFB 0xB9 0xD1 0xBB PUSH32 0xA86DCBF0E00AEB36FC4B7B7228D4F428D1809F9E9D4D8764736F6C634300081A STOP CALLER "},"methodIdentifiers":{"accountLookup(uint256)":"f4a2a200","addERC20Contract(address,uint256,uint8)":"4a1268b8","approvedERC20(address)":"bd743886","callerFee()":"34d441d0","cancelSubscription((bytes32,uint256,address,address,bool,bool,uint8,uint16))":"87d888d3","changeAdmin(address)":"8f283970","changeCallerFee(uint256)":"8ef0ef1c","changeMaxRemits(uint256)":"27ea9773","changeSystemFee(uint256)":"0bec99e8","collectFees()":"c8796572","createSubscription(uint256,address,(string,string),uint8,uint16)":"0b8590c7","editDetails((string,string),bytes32)":"d10f9e69","editProvDetails((string,string,string,string,string,string))":"ed601d28","feeBalance(bytes32,address)":"ebec6eaa","feeEstimate()":"e63d35be","getAccount(address)":"fbcbc0f1","getAccountSubscriptions(bool,address)":"86525a00","getSubByIndex(bytes32,uint8,uint16)":"2d23f7e7","getSubscribersById(bytes32)":"7bbf5a6e","getTotalSubscribers()":"b25ae32c","maxRemits()":"cab1c965","nextUncheckedDay()":"da854a96","remit()":"7507ba39","removeERC20Contract(address)":"053149fa","setExternalCallers(bool)":"b4761de9","subscribe((bytes32,uint256,address,address,bool,bool,uint8,uint16))":"3c95dad5","systemFee()":"1f17ee55","systemFeeActivate(bool)":"9889552e","unsubscribe((bytes32,uint256,address,address,bool,bool,uint8,uint16))":"44e49769","unsubscribeByProvider((bytes32,uint256,address,address,bool,bool,uint8,uint16),address)":"907cedb2"}}}}}