{"contracts/ClockTowerLibrary.sol":{"ClockTowerLibrary":{"abi":[{"inputs":[{"internalType":"uint256","name":"unix","type":"uint256"}],"name":"unixToDays","outputs":[{"internalType":"uint16","name":"yearDays","type":"uint16"},{"internalType":"uint16","name":"day","type":"uint16"}],"stateMutability":"pure","type":"function"}],"evm":{"bytecode":{"linkReferences":{},"object":"6106e561003a600b82828239805160001a60731461002d57634e487b7160e01b600052600060045260246000fd5b30600052607381538281f3fe73000000000000000000000000000000000000000030146080604052600436106100405760003560e01c806393bc841314610045578063b56eb28214610077575b600080fd5b610058610053366004610461565b610099565b6040805161ffff93841681529290911660208301520160405180910390f35b81801561008357600080fd5b5061009761009236600461047a565b61025e565b005b600080806100aa62015180856104de565b90508060006100bc8262010bd96104f2565b6100c99062253d8c6104f2565b9050600062023ab16100dc836004610533565b6100e691906105b8565b905060046100f78262023ab1610533565b6101029060036104f2565b61010c91906105b8565b61011690836105e6565b9150600062164b096101298460016104f2565b61013590610fa0610533565b61013f91906105b8565b9050600461014f826105b5610533565b61015991906105b8565b61016390846105e6565b61016e90601f6104f2565b9250600061098f610180856050610533565b61018a91906105b8565b90506000605061019c8361098f610533565b6101a691906105b8565b6101b090866105e6565b90506101bd600b836105b8565b94506101ca85600c610533565b6101d58360026104f2565b6101df91906105e6565b915084836101ee6031876105e6565b6101f9906064610533565b61020391906104f2565b61020d91906104f2565b909750915086828282600060015b83811161024a5761022c858561039d565b6102369083610625565b9150806102428161063d565b91505061021b565b50809c505050505050505050505050915091565b6000805b825481101561039757836001600160a01b031683828154811061028757610287610658565b6000918252602090912001546001600160a01b031614156102d5578091508281815481106102b7576102b7610658565b600091825260209091200180546001600160a01b0319169055610397565b825483906102e59060019061066e565b815481106102f5576102f5610658565b9060005260206000200160009054906101000a90046001600160a01b031683838154811061032557610325610658565b9060005260206000200160006101000a8154816001600160a01b0302191690836001600160a01b031602179055508280548061036357610363610685565b600082815260209020810160001990810180546001600160a01b03191690550190558061038f8161063d565b915050610262565b50505050565b600081600114806103ae5750816003145b806103b95750816005145b806103c45750816007145b806103cf5750816008145b806103da575081600a145b806103e5575081600c145b156103f25750601f61041f565b816002146104025750601e61041f565b61040b83610425565b61041657601c610419565b601d5b60ff1690505b92915050565b600061043260048361069b565b158015610448575061044560648361069b565b15155b8061041f575061045a6101908361069b565b1592915050565b60006020828403121561047357600080fd5b5035919050565b6000806040838503121561048d57600080fd5b82356001600160a01b03811681146104a457600080fd5b946020939093013593505050565b634e487b7160e01b600052601260045260246000fd5b634e487b7160e01b600052601160045260246000fd5b6000826104ed576104ed6104b2565b500490565b600080821280156001600160ff1b0384900385131615610514576105146104c8565b600160ff1b839003841281161561052d5761052d6104c8565b50500190565b60006001600160ff1b0381841382841380821686840486111615610559576105596104c8565b600160ff1b6000871282811687830589121615610578576105786104c8565b60008712925087820587128484161615610594576105946104c8565b878505871281841616156105aa576105aa6104c8565b505050929093029392505050565b6000826105c7576105c76104b2565b600160ff1b8214600019841416156105e1576105e16104c8565b500590565b60008083128015600160ff1b850184121615610604576106046104c8565b6001600160ff1b038401831381161561061f5761061f6104c8565b50500390565b60008219821115610638576106386104c8565b500190565b6000600019821415610651576106516104c8565b5060010190565b634e487b7160e01b600052603260045260246000fd5b600082821015610680576106806104c8565b500390565b634e487b7160e01b600052603160045260246000fd5b6000826106aa576106aa6104b2565b50069056fea26469706673582212208712029caeadc8aceba472672316e5943e1bfceca845475b3063078fc36177e164736f6c63430008090033","opcodes":"PUSH2 0x6E5 PUSH2 0x3A PUSH1 0xB DUP3 DUP3 DUP3 CODECOPY DUP1 MLOAD PUSH1 0x0 BYTE PUSH1 0x73 EQ PUSH2 0x2D JUMPI PUSH4 0x4E487B71 PUSH1 0xE0 SHL PUSH1 0x0 MSTORE PUSH1 0x0 PUSH1 0x4 MSTORE PUSH1 0x24 PUSH1 0x0 REVERT JUMPDEST ADDRESS PUSH1 0x0 MSTORE PUSH1 0x73 DUP2 MSTORE8 DUP3 DUP2 RETURN INVALID PUSH20 0x0 ADDRESS EQ PUSH1 0x80 PUSH1 0x40 MSTORE PUSH1 0x4 CALLDATASIZE LT PUSH2 0x40 JUMPI PUSH1 0x0 CALLDATALOAD PUSH1 0xE0 SHR DUP1 PUSH4 0x93BC8413 EQ PUSH2 0x45 JUMPI DUP1 PUSH4 0xB56EB282 EQ PUSH2 0x77 JUMPI JUMPDEST PUSH1 0x0 DUP1 REVERT JUMPDEST PUSH2 0x58 PUSH2 0x53 CALLDATASIZE PUSH1 0x4 PUSH2 0x461 JUMP JUMPDEST PUSH2 0x99 JUMP JUMPDEST PUSH1 0x40 DUP1 MLOAD PUSH2 0xFFFF SWAP4 DUP5 AND DUP2 MSTORE SWAP3 SWAP1 SWAP2 AND PUSH1 0x20 DUP4 ADD MSTORE ADD PUSH1 0x40 MLOAD DUP1 SWAP2 SUB SWAP1 RETURN JUMPDEST DUP2 DUP1 ISZERO PUSH2 0x83 JUMPI PUSH1 0x0 DUP1 REVERT JUMPDEST POP PUSH2 0x97 PUSH2 0x92 CALLDATASIZE PUSH1 0x4 PUSH2 0x47A JUMP JUMPDEST PUSH2 0x25E JUMP JUMPDEST STOP JUMPDEST PUSH1 0x0 DUP1 DUP1 PUSH2 0xAA PUSH3 0x15180 DUP6 PUSH2 0x4DE JUMP JUMPDEST SWAP1 POP DUP1 PUSH1 0x0 PUSH2 0xBC DUP3 PUSH3 0x10BD9 PUSH2 0x4F2 JUMP JUMPDEST PUSH2 0xC9 SWAP1 PUSH3 0x253D8C PUSH2 0x4F2 JUMP JUMPDEST SWAP1 POP PUSH1 0x0 PUSH3 0x23AB1 PUSH2 0xDC DUP4 PUSH1 0x4 PUSH2 0x533 JUMP JUMPDEST PUSH2 0xE6 SWAP2 SWAP1 PUSH2 0x5B8 JUMP JUMPDEST SWAP1 POP PUSH1 0x4 PUSH2 0xF7 DUP3 PUSH3 0x23AB1 PUSH2 0x533 JUMP JUMPDEST PUSH2 0x102 SWAP1 PUSH1 0x3 PUSH2 0x4F2 JUMP JUMPDEST PUSH2 0x10C SWAP2 SWAP1 PUSH2 0x5B8 JUMP JUMPDEST PUSH2 0x116 SWAP1 DUP4 PUSH2 0x5E6 JUMP JUMPDEST SWAP2 POP PUSH1 0x0 PUSH3 0x164B09 PUSH2 0x129 DUP5 PUSH1 0x1 PUSH2 0x4F2 JUMP JUMPDEST PUSH2 0x135 SWAP1 PUSH2 0xFA0 PUSH2 0x533 JUMP JUMPDEST PUSH2 0x13F SWAP2 SWAP1 PUSH2 0x5B8 JUMP JUMPDEST SWAP1 POP PUSH1 0x4 PUSH2 0x14F DUP3 PUSH2 0x5B5 PUSH2 0x533 JUMP JUMPDEST PUSH2 0x159 SWAP2 SWAP1 PUSH2 0x5B8 JUMP JUMPDEST PUSH2 0x163 SWAP1 DUP5 PUSH2 0x5E6 JUMP JUMPDEST PUSH2 0x16E SWAP1 PUSH1 0x1F PUSH2 0x4F2 JUMP JUMPDEST SWAP3 POP PUSH1 0x0 PUSH2 0x98F PUSH2 0x180 DUP6 PUSH1 0x50 PUSH2 0x533 JUMP JUMPDEST PUSH2 0x18A SWAP2 SWAP1 PUSH2 0x5B8 JUMP JUMPDEST SWAP1 POP PUSH1 0x0 PUSH1 0x50 PUSH2 0x19C DUP4 PUSH2 0x98F PUSH2 0x533 JUMP JUMPDEST PUSH2 0x1A6 SWAP2 SWAP1 PUSH2 0x5B8 JUMP JUMPDEST PUSH2 0x1B0 SWAP1 DUP7 PUSH2 0x5E6 JUMP JUMPDEST SWAP1 POP PUSH2 0x1BD PUSH1 0xB DUP4 PUSH2 0x5B8 JUMP JUMPDEST SWAP5 POP PUSH2 0x1CA DUP6 PUSH1 0xC PUSH2 0x533 JUMP JUMPDEST PUSH2 0x1D5 DUP4 PUSH1 0x2 PUSH2 0x4F2 JUMP JUMPDEST PUSH2 0x1DF SWAP2 SWAP1 PUSH2 0x5E6 JUMP JUMPDEST SWAP2 POP DUP5 DUP4 PUSH2 0x1EE PUSH1 0x31 DUP8 PUSH2 0x5E6 JUMP JUMPDEST PUSH2 0x1F9 SWAP1 PUSH1 0x64 PUSH2 0x533 JUMP JUMPDEST PUSH2 0x203 SWAP2 SWAP1 PUSH2 0x4F2 JUMP JUMPDEST PUSH2 0x20D SWAP2 SWAP1 PUSH2 0x4F2 JUMP JUMPDEST SWAP1 SWAP8 POP SWAP2 POP DUP7 DUP3 DUP3 DUP3 PUSH1 0x0 PUSH1 0x1 JUMPDEST DUP4 DUP2 GT PUSH2 0x24A JUMPI PUSH2 0x22C DUP6 DUP6 PUSH2 0x39D JUMP JUMPDEST PUSH2 0x236 SWAP1 DUP4 PUSH2 0x625 JUMP JUMPDEST SWAP2 POP DUP1 PUSH2 0x242 DUP2 PUSH2 0x63D JUMP JUMPDEST SWAP2 POP POP PUSH2 0x21B JUMP JUMPDEST POP DUP1 SWAP13 POP POP POP POP POP POP POP POP POP POP POP POP SWAP2 POP SWAP2 JUMP JUMPDEST PUSH1 0x0 DUP1 JUMPDEST DUP3 SLOAD DUP2 LT ISZERO PUSH2 0x397 JUMPI DUP4 PUSH1 0x1 PUSH1 0x1 PUSH1 0xA0 SHL SUB AND DUP4 DUP3 DUP2 SLOAD DUP2 LT PUSH2 0x287 JUMPI PUSH2 0x287 PUSH2 0x658 JUMP JUMPDEST PUSH1 0x0 SWAP2 DUP3 MSTORE PUSH1 0x20 SWAP1 SWAP2 KECCAK256 ADD SLOAD PUSH1 0x1 PUSH1 0x1 PUSH1 0xA0 SHL SUB AND EQ ISZERO PUSH2 0x2D5 JUMPI DUP1 SWAP2 POP DUP3 DUP2 DUP2 SLOAD DUP2 LT PUSH2 0x2B7 JUMPI PUSH2 0x2B7 PUSH2 0x658 JUMP JUMPDEST PUSH1 0x0 SWAP2 DUP3 MSTORE PUSH1 0x20 SWAP1 SWAP2 KECCAK256 ADD DUP1 SLOAD PUSH1 0x1 PUSH1 0x1 PUSH1 0xA0 SHL SUB NOT AND SWAP1 SSTORE PUSH2 0x397 JUMP JUMPDEST DUP3 SLOAD DUP4 SWAP1 PUSH2 0x2E5 SWAP1 PUSH1 0x1 SWAP1 PUSH2 0x66E JUMP JUMPDEST DUP2 SLOAD DUP2 LT PUSH2 0x2F5 JUMPI PUSH2 0x2F5 PUSH2 0x658 JUMP JUMPDEST SWAP1 PUSH1 0x0 MSTORE PUSH1 0x20 PUSH1 0x0 KECCAK256 ADD PUSH1 0x0 SWAP1 SLOAD SWAP1 PUSH2 0x100 EXP SWAP1 DIV PUSH1 0x1 PUSH1 0x1 PUSH1 0xA0 SHL SUB AND DUP4 DUP4 DUP2 SLOAD DUP2 LT PUSH2 0x325 JUMPI PUSH2 0x325 PUSH2 0x658 JUMP JUMPDEST SWAP1 PUSH1 0x0 MSTORE PUSH1 0x20 PUSH1 0x0 KECCAK256 ADD PUSH1 0x0 PUSH2 0x100 EXP DUP2 SLOAD DUP2 PUSH1 0x1 PUSH1 0x1 PUSH1 0xA0 SHL SUB MUL NOT AND SWAP1 DUP4 PUSH1 0x1 PUSH1 0x1 PUSH1 0xA0 SHL SUB AND MUL OR SWAP1 SSTORE POP DUP3 DUP1 SLOAD DUP1 PUSH2 0x363 JUMPI PUSH2 0x363 PUSH2 0x685 JUMP JUMPDEST PUSH1 0x0 DUP3 DUP2 MSTORE PUSH1 0x20 SWAP1 KECCAK256 DUP2 ADD PUSH1 0x0 NOT SWAP1 DUP2 ADD DUP1 SLOAD PUSH1 0x1 PUSH1 0x1 PUSH1 0xA0 SHL SUB NOT AND SWAP1 SSTORE ADD SWAP1 SSTORE DUP1 PUSH2 0x38F DUP2 PUSH2 0x63D JUMP JUMPDEST SWAP2 POP POP PUSH2 0x262 JUMP JUMPDEST POP POP POP POP JUMP JUMPDEST PUSH1 0x0 DUP2 PUSH1 0x1 EQ DUP1 PUSH2 0x3AE JUMPI POP DUP2 PUSH1 0x3 EQ JUMPDEST DUP1 PUSH2 0x3B9 JUMPI POP DUP2 PUSH1 0x5 EQ JUMPDEST DUP1 PUSH2 0x3C4 JUMPI POP DUP2 PUSH1 0x7 EQ JUMPDEST DUP1 PUSH2 0x3CF JUMPI POP DUP2 PUSH1 0x8 EQ JUMPDEST DUP1 PUSH2 0x3DA JUMPI POP DUP2 PUSH1 0xA EQ JUMPDEST DUP1 PUSH2 0x3E5 JUMPI POP DUP2 PUSH1 0xC EQ JUMPDEST ISZERO PUSH2 0x3F2 JUMPI POP PUSH1 0x1F PUSH2 0x41F JUMP JUMPDEST DUP2 PUSH1 0x2 EQ PUSH2 0x402 JUMPI POP PUSH1 0x1E PUSH2 0x41F JUMP JUMPDEST PUSH2 0x40B DUP4 PUSH2 0x425 JUMP JUMPDEST PUSH2 0x416 JUMPI PUSH1 0x1C PUSH2 0x419 JUMP JUMPDEST PUSH1 0x1D JUMPDEST PUSH1 0xFF AND SWAP1 POP JUMPDEST SWAP3 SWAP2 POP POP JUMP JUMPDEST PUSH1 0x0 PUSH2 0x432 PUSH1 0x4 DUP4 PUSH2 0x69B JUMP JUMPDEST ISZERO DUP1 ISZERO PUSH2 0x448 JUMPI POP PUSH2 0x445 PUSH1 0x64 DUP4 PUSH2 0x69B JUMP JUMPDEST ISZERO ISZERO JUMPDEST DUP1 PUSH2 0x41F JUMPI POP PUSH2 0x45A PUSH2 0x190 DUP4 PUSH2 0x69B JUMP JUMPDEST ISZERO SWAP3 SWAP2 POP POP JUMP JUMPDEST PUSH1 0x0 PUSH1 0x20 DUP3 DUP5 SUB SLT ISZERO PUSH2 0x473 JUMPI PUSH1 0x0 DUP1 REVERT JUMPDEST POP CALLDATALOAD SWAP2 SWAP1 POP JUMP JUMPDEST PUSH1 0x0 DUP1 PUSH1 0x40 DUP4 DUP6 SUB SLT ISZERO PUSH2 0x48D JUMPI PUSH1 0x0 DUP1 REVERT JUMPDEST DUP3 CALLDATALOAD PUSH1 0x1 PUSH1 0x1 PUSH1 0xA0 SHL SUB DUP2 AND DUP2 EQ PUSH2 0x4A4 JUMPI PUSH1 0x0 DUP1 REVERT JUMPDEST SWAP5 PUSH1 0x20 SWAP4 SWAP1 SWAP4 ADD CALLDATALOAD SWAP4 POP POP POP JUMP JUMPDEST PUSH4 0x4E487B71 PUSH1 0xE0 SHL PUSH1 0x0 MSTORE PUSH1 0x12 PUSH1 0x4 MSTORE PUSH1 0x24 PUSH1 0x0 REVERT JUMPDEST PUSH4 0x4E487B71 PUSH1 0xE0 SHL PUSH1 0x0 MSTORE PUSH1 0x11 PUSH1 0x4 MSTORE PUSH1 0x24 PUSH1 0x0 REVERT JUMPDEST PUSH1 0x0 DUP3 PUSH2 0x4ED JUMPI PUSH2 0x4ED PUSH2 0x4B2 JUMP JUMPDEST POP DIV SWAP1 JUMP JUMPDEST PUSH1 0x0 DUP1 DUP3 SLT DUP1 ISZERO PUSH1 0x1 PUSH1 0x1 PUSH1 0xFF SHL SUB DUP5 SWAP1 SUB DUP6 SGT AND ISZERO PUSH2 0x514 JUMPI PUSH2 0x514 PUSH2 0x4C8 JUMP JUMPDEST PUSH1 0x1 PUSH1 0xFF SHL DUP4 SWAP1 SUB DUP5 SLT DUP2 AND ISZERO PUSH2 0x52D JUMPI PUSH2 0x52D PUSH2 0x4C8 JUMP JUMPDEST POP POP ADD SWAP1 JUMP JUMPDEST PUSH1 0x0 PUSH1 0x1 PUSH1 0x1 PUSH1 0xFF SHL SUB DUP2 DUP5 SGT DUP3 DUP5 SGT DUP1 DUP3 AND DUP7 DUP5 DIV DUP7 GT AND ISZERO PUSH2 0x559 JUMPI PUSH2 0x559 PUSH2 0x4C8 JUMP JUMPDEST PUSH1 0x1 PUSH1 0xFF SHL PUSH1 0x0 DUP8 SLT DUP3 DUP2 AND DUP8 DUP4 SDIV DUP10 SLT AND ISZERO PUSH2 0x578 JUMPI PUSH2 0x578 PUSH2 0x4C8 JUMP JUMPDEST PUSH1 0x0 DUP8 SLT SWAP3 POP DUP8 DUP3 SDIV DUP8 SLT DUP5 DUP5 AND AND ISZERO PUSH2 0x594 JUMPI PUSH2 0x594 PUSH2 0x4C8 JUMP JUMPDEST DUP8 DUP6 SDIV DUP8 SLT DUP2 DUP5 AND AND ISZERO PUSH2 0x5AA JUMPI PUSH2 0x5AA PUSH2 0x4C8 JUMP JUMPDEST POP POP POP SWAP3 SWAP1 SWAP4 MUL SWAP4 SWAP3 POP POP POP JUMP JUMPDEST PUSH1 0x0 DUP3 PUSH2 0x5C7 JUMPI PUSH2 0x5C7 PUSH2 0x4B2 JUMP JUMPDEST PUSH1 0x1 PUSH1 0xFF SHL DUP3 EQ PUSH1 0x0 NOT DUP5 EQ AND ISZERO PUSH2 0x5E1 JUMPI PUSH2 0x5E1 PUSH2 0x4C8 JUMP JUMPDEST POP SDIV SWAP1 JUMP JUMPDEST PUSH1 0x0 DUP1 DUP4 SLT DUP1 ISZERO PUSH1 0x1 PUSH1 0xFF SHL DUP6 ADD DUP5 SLT AND ISZERO PUSH2 0x604 JUMPI PUSH2 0x604 PUSH2 0x4C8 JUMP JUMPDEST PUSH1 0x1 PUSH1 0x1 PUSH1 0xFF SHL SUB DUP5 ADD DUP4 SGT DUP2 AND ISZERO PUSH2 0x61F JUMPI PUSH2 0x61F PUSH2 0x4C8 JUMP JUMPDEST POP POP SUB SWAP1 JUMP JUMPDEST PUSH1 0x0 DUP3 NOT DUP3 GT ISZERO PUSH2 0x638 JUMPI PUSH2 0x638 PUSH2 0x4C8 JUMP JUMPDEST POP ADD SWAP1 JUMP JUMPDEST PUSH1 0x0 PUSH1 0x0 NOT DUP3 EQ ISZERO PUSH2 0x651 JUMPI PUSH2 0x651 PUSH2 0x4C8 JUMP JUMPDEST POP PUSH1 0x1 ADD SWAP1 JUMP JUMPDEST PUSH4 0x4E487B71 PUSH1 0xE0 SHL PUSH1 0x0 MSTORE PUSH1 0x32 PUSH1 0x4 MSTORE PUSH1 0x24 PUSH1 0x0 REVERT JUMPDEST PUSH1 0x0 DUP3 DUP3 LT ISZERO PUSH2 0x680 JUMPI PUSH2 0x680 PUSH2 0x4C8 JUMP JUMPDEST POP SUB SWAP1 JUMP JUMPDEST PUSH4 0x4E487B71 PUSH1 0xE0 SHL PUSH1 0x0 MSTORE PUSH1 0x31 PUSH1 0x4 MSTORE PUSH1 0x24 PUSH1 0x0 REVERT JUMPDEST PUSH1 0x0 DUP3 PUSH2 0x6AA JUMPI PUSH2 0x6AA PUSH2 0x4B2 JUMP JUMPDEST POP MOD SWAP1 JUMP INVALID LOG2 PUSH5 0x6970667358 0x22 SLT KECCAK256 DUP8 SLT MUL SWAP13 0xAE 0xAD 0xC8 0xAC 0xEB LOG4 PUSH19 0x672316E5943E1BFCECA845475B3063078FC361 PUSH24 0xE164736F6C63430008090033000000000000000000000000 "},"methodIdentifiers":{"deleteSubFromAccount(address,address[] storage)":"b56eb282","unixToDays(uint256)":"93bc8413"}}}}}