{"contracts/ClockTowerSubscribe.sol":{"ClockTowerTime":{"abi":[{"inputs":[{"internalType":"uint256","name":"unixTime","type":"uint256"}],"name":"getDayOfWeek","outputs":[{"internalType":"uint16","name":"dayOfWeek","type":"uint16"}],"stateMutability":"pure","type":"function"},{"inputs":[{"internalType":"uint40","name":"unixTime","type":"uint40"},{"internalType":"uint40","name":"dueDay","type":"uint40"},{"internalType":"uint256","name":"fee","type":"uint256"},{"internalType":"uint256","name":"frequency","type":"uint256"}],"name":"prorate","outputs":[{"internalType":"uint256","name":"","type":"uint256"}],"stateMutability":"pure","type":"function"},{"inputs":[{"internalType":"uint40","name":"unixTime","type":"uint40"}],"name":"unixToDays","outputs":[{"internalType":"uint40","name":"dayCount","type":"uint40"}],"stateMutability":"pure","type":"function"},{"inputs":[{"internalType":"uint256","name":"unix","type":"uint256"}],"name":"unixToTime","outputs":[{"components":[{"internalType":"uint16","name":"dayOfMonth","type":"uint16"},{"internalType":"uint16","name":"weekDay","type":"uint16"},{"internalType":"uint16","name":"quarterDay","type":"uint16"},{"internalType":"uint16","name":"yearDay","type":"uint16"}],"internalType":"struct ClockTowerTime.Time","name":"time","type":"tuple"}],"stateMutability":"pure","type":"function"}],"evm":{"bytecode":{"linkReferences":{},"object":"61094a61003a600b82828239805160001a60731461002d57634e487b7160e01b600052600060045260246000fd5b30600052607381538281f3fe73000000000000000000000000000000000000000030146080604052600436106100565760003560e01c806322f8a2b81461005b5780632eb84d6f1461008657806353a6d6e2146100a7578063b14c0ed6146100f8575b600080fd5b61006e610069366004610668565b610121565b60405161ffff90911681526020015b60405180910390f35b61009961009436600461069b565b61015f565b60405190815260200161007d565b6100ba6100b5366004610668565b610261565b60405161007d9190815161ffff9081168252602080840151821690830152604080840151821690830152606092830151169181019190915260800190565b61010b6101063660046106dd565b6104c3565b60405164ffffffffff909116815260200161007d565b600080610131620151808461072b565b90506000600761014283600361073f565b61014c9190610757565b61015790600161073f565b949350505050565b6000806101728664ffffffffff16610261565b90506000808461018e575050602081015161ffff1660076101c5565b84600114156101a6575050805161ffff16601c6101c5565b84600214156101b75750605a6101c5565b84600314156101c5575061016d5b8461025557818764ffffffffff16141580156101e757508664ffffffffff1682115b15610222576101fd64ffffffffff88168361076b565b610207908261076b565b610211828861072b565b61021b9190610782565b9550610255565b818764ffffffffff161415801561023f57508664ffffffffff1682105b15610255576102078264ffffffffff891661076b565b50939695505050505050565b604080516080810182526000808252602082018190529181018290526060810182905290610292620151808461072b565b905060008082816102a68262010bd96107a1565b6102b39062253d8c6107a1565b9050600062023ab16102c68360046107e1565b6102d09190610868565b905060046102e18262023ab16107e1565b6102ec9060036107a1565b6102f69190610868565b6103009083610896565b9150600062164b096103138460016107a1565b61031f90610fa06107e1565b6103299190610868565b90506004610339826105b56107e1565b6103439190610868565b61034d9084610896565b61035890601f6107a1565b9250600061098f61036a8560506107e1565b6103749190610868565b9050600060506103868361098f6107e1565b6103909190610868565b61039a9086610896565b90506103a7600b83610868565b94506103b485600c6107e1565b6103bf8360026107a1565b6103c99190610896565b915084836103d8603187610896565b6103e39060646107e1565b6103ed91906107a1565b6103f791906107a1565b909750915086828282600060015b83811161045257838114156104295761042261ffff8e168361073f565b9150610440565b61043385856104d8565b61043d908361073f565b91505b8061044a816108d5565b915050610405565b50809a506104648b61ffff168561055e565b61ffff1660408f01526104768f610121565b8e6020019061ffff16908161ffff16815250508b8e6000019061ffff16908161ffff16815250508a8e6060019061ffff16908161ffff168152505050505050505050505050505050919050565b60006104d262015180836108f0565b92915050565b600081600114806104e95750816003145b806104f45750816005145b806104ff5750816007145b8061050a5750816008145b80610515575081600a145b80610520575081600c145b1561052d5750601f6104d2565b8160021461053d5750601e6104d2565b6105468361062c565b61055157601c610554565b601d5b60ff169392505050565b60008061056a8361062c565b156105775750600161057b565b5060005b61058681605a61073f565b841161059457839150610625565b836105a082605a61073f565b1080156105b757506105b38160b561073f565b8411155b156105d8576105c781605a61073f565b6105d1908561076b565b9150610625565b836105e48260b561073f565b1080156105fc57506105f88161011161073f565b8411155b1561060c576105c78160b561073f565b6106188161011161073f565b610622908561076b565b91505b5092915050565b6000610639600483610757565b15801561064f575061064c606483610757565b15155b806104d2575061066161019083610757565b1592915050565b60006020828403121561067a57600080fd5b5035919050565b803564ffffffffff8116811461069657600080fd5b919050565b600080600080608085870312156106b157600080fd5b6106ba85610681565b93506106c860208601610681565b93969395505050506040820135916060013590565b6000602082840312156106ef57600080fd5b6106f882610681565b9392505050565b634e487b7160e01b600052601260045260246000fd5b634e487b7160e01b600052601160045260246000fd5b60008261073a5761073a6106ff565b500490565b6000821982111561075257610752610715565b500190565b600082610766576107666106ff565b500690565b60008282101561077d5761077d610715565b500390565b600081600019048311821515161561079c5761079c610715565b500290565b6000808212826001600160ff1b03038413811516156107c2576107c2610715565b600160ff1b83900384128116156107db576107db610715565b50500190565b60006001600160ff1b0360008413600084138583048511828216161561080957610809610715565b600160ff1b600087128281168783058912161561082857610828610715565b6000871292508782058712848416161561084457610844610715565b8785058712818416161561085a5761085a610715565b505050929093029392505050565b600082610877576108776106ff565b600160ff1b82146000198414161561089157610891610715565b500590565b60008083128015600160ff1b8501841216156108b4576108b4610715565b836001600160ff1b030183138116156108cf576108cf610715565b50500390565b60006000198214156108e9576108e9610715565b5060010190565b600064ffffffffff80841680610908576109086106ff565b9216919091049291505056fea26469706673582212203bb50a2c248f1dc474e156118a29372fed5b4f8d78c6645e32654b21546ce33164736f6c63430008090033","opcodes":"PUSH2 0x94A PUSH2 0x3A PUSH1 0xB DUP3 DUP3 DUP3 CODECOPY DUP1 MLOAD PUSH1 0x0 BYTE PUSH1 0x73 EQ PUSH2 0x2D JUMPI PUSH4 0x4E487B71 PUSH1 0xE0 SHL PUSH1 0x0 MSTORE PUSH1 0x0 PUSH1 0x4 MSTORE PUSH1 0x24 PUSH1 0x0 REVERT JUMPDEST ADDRESS PUSH1 0x0 MSTORE PUSH1 0x73 DUP2 MSTORE8 DUP3 DUP2 RETURN INVALID PUSH20 0x0 ADDRESS EQ PUSH1 0x80 PUSH1 0x40 MSTORE PUSH1 0x4 CALLDATASIZE LT PUSH2 0x56 JUMPI PUSH1 0x0 CALLDATALOAD PUSH1 0xE0 SHR DUP1 PUSH4 0x22F8A2B8 EQ PUSH2 0x5B JUMPI DUP1 PUSH4 0x2EB84D6F EQ PUSH2 0x86 JUMPI DUP1 PUSH4 0x53A6D6E2 EQ PUSH2 0xA7 JUMPI DUP1 PUSH4 0xB14C0ED6 EQ PUSH2 0xF8 JUMPI JUMPDEST PUSH1 0x0 DUP1 REVERT JUMPDEST PUSH2 0x6E PUSH2 0x69 CALLDATASIZE PUSH1 0x4 PUSH2 0x668 JUMP JUMPDEST PUSH2 0x121 JUMP JUMPDEST PUSH1 0x40 MLOAD PUSH2 0xFFFF SWAP1 SWAP2 AND DUP2 MSTORE PUSH1 0x20 ADD JUMPDEST PUSH1 0x40 MLOAD DUP1 SWAP2 SUB SWAP1 RETURN JUMPDEST PUSH2 0x99 PUSH2 0x94 CALLDATASIZE PUSH1 0x4 PUSH2 0x69B JUMP JUMPDEST PUSH2 0x15F JUMP JUMPDEST PUSH1 0x40 MLOAD SWAP1 DUP2 MSTORE PUSH1 0x20 ADD PUSH2 0x7D JUMP JUMPDEST PUSH2 0xBA PUSH2 0xB5 CALLDATASIZE PUSH1 0x4 PUSH2 0x668 JUMP JUMPDEST PUSH2 0x261 JUMP JUMPDEST PUSH1 0x40 MLOAD PUSH2 0x7D SWAP2 SWAP1 DUP2 MLOAD PUSH2 0xFFFF SWAP1 DUP2 AND DUP3 MSTORE PUSH1 0x20 DUP1 DUP5 ADD MLOAD DUP3 AND SWAP1 DUP4 ADD MSTORE PUSH1 0x40 DUP1 DUP5 ADD MLOAD DUP3 AND SWAP1 DUP4 ADD MSTORE PUSH1 0x60 SWAP3 DUP4 ADD MLOAD AND SWAP2 DUP2 ADD SWAP2 SWAP1 SWAP2 MSTORE PUSH1 0x80 ADD SWAP1 JUMP JUMPDEST PUSH2 0x10B PUSH2 0x106 CALLDATASIZE PUSH1 0x4 PUSH2 0x6DD JUMP JUMPDEST PUSH2 0x4C3 JUMP JUMPDEST PUSH1 0x40 MLOAD PUSH5 0xFFFFFFFFFF SWAP1 SWAP2 AND DUP2 MSTORE PUSH1 0x20 ADD PUSH2 0x7D JUMP JUMPDEST PUSH1 0x0 DUP1 PUSH2 0x131 PUSH3 0x15180 DUP5 PUSH2 0x72B JUMP JUMPDEST SWAP1 POP PUSH1 0x0 PUSH1 0x7 PUSH2 0x142 DUP4 PUSH1 0x3 PUSH2 0x73F JUMP JUMPDEST PUSH2 0x14C SWAP2 SWAP1 PUSH2 0x757 JUMP JUMPDEST PUSH2 0x157 SWAP1 PUSH1 0x1 PUSH2 0x73F JUMP JUMPDEST SWAP5 SWAP4 POP POP POP POP JUMP JUMPDEST PUSH1 0x0 DUP1 PUSH2 0x172 DUP7 PUSH5 0xFFFFFFFFFF AND PUSH2 0x261 JUMP JUMPDEST SWAP1 POP PUSH1 0x0 DUP1 DUP5 PUSH2 0x18E JUMPI POP POP PUSH1 0x20 DUP2 ADD MLOAD PUSH2 0xFFFF AND PUSH1 0x7 PUSH2 0x1C5 JUMP JUMPDEST DUP5 PUSH1 0x1 EQ ISZERO PUSH2 0x1A6 JUMPI POP POP DUP1 MLOAD PUSH2 0xFFFF AND PUSH1 0x1C PUSH2 0x1C5 JUMP JUMPDEST DUP5 PUSH1 0x2 EQ ISZERO PUSH2 0x1B7 JUMPI POP PUSH1 0x5A PUSH2 0x1C5 JUMP JUMPDEST DUP5 PUSH1 0x3 EQ ISZERO PUSH2 0x1C5 JUMPI POP PUSH2 0x16D JUMPDEST DUP5 PUSH2 0x255 JUMPI DUP2 DUP8 PUSH5 0xFFFFFFFFFF AND EQ ISZERO DUP1 ISZERO PUSH2 0x1E7 JUMPI POP DUP7 PUSH5 0xFFFFFFFFFF AND DUP3 GT JUMPDEST ISZERO PUSH2 0x222 JUMPI PUSH2 0x1FD PUSH5 0xFFFFFFFFFF DUP9 AND DUP4 PUSH2 0x76B JUMP JUMPDEST PUSH2 0x207 SWAP1 DUP3 PUSH2 0x76B JUMP JUMPDEST PUSH2 0x211 DUP3 DUP9 PUSH2 0x72B JUMP JUMPDEST PUSH2 0x21B SWAP2 SWAP1 PUSH2 0x782 JUMP JUMPDEST SWAP6 POP PUSH2 0x255 JUMP JUMPDEST DUP2 DUP8 PUSH5 0xFFFFFFFFFF AND EQ ISZERO DUP1 ISZERO PUSH2 0x23F JUMPI POP DUP7 PUSH5 0xFFFFFFFFFF AND DUP3 LT JUMPDEST ISZERO PUSH2 0x255 JUMPI PUSH2 0x207 DUP3 PUSH5 0xFFFFFFFFFF DUP10 AND PUSH2 0x76B JUMP JUMPDEST POP SWAP4 SWAP7 SWAP6 POP POP POP POP POP POP JUMP JUMPDEST PUSH1 0x40 DUP1 MLOAD PUSH1 0x80 DUP2 ADD DUP3 MSTORE PUSH1 0x0 DUP1 DUP3 MSTORE PUSH1 0x20 DUP3 ADD DUP2 SWAP1 MSTORE SWAP2 DUP2 ADD DUP3 SWAP1 MSTORE PUSH1 0x60 DUP2 ADD DUP3 SWAP1 MSTORE SWAP1 PUSH2 0x292 PUSH3 0x15180 DUP5 PUSH2 0x72B JUMP JUMPDEST SWAP1 POP PUSH1 0x0 DUP1 DUP3 DUP2 PUSH2 0x2A6 DUP3 PUSH3 0x10BD9 PUSH2 0x7A1 JUMP JUMPDEST PUSH2 0x2B3 SWAP1 PUSH3 0x253D8C PUSH2 0x7A1 JUMP JUMPDEST SWAP1 POP PUSH1 0x0 PUSH3 0x23AB1 PUSH2 0x2C6 DUP4 PUSH1 0x4 PUSH2 0x7E1 JUMP JUMPDEST PUSH2 0x2D0 SWAP2 SWAP1 PUSH2 0x868 JUMP JUMPDEST SWAP1 POP PUSH1 0x4 PUSH2 0x2E1 DUP3 PUSH3 0x23AB1 PUSH2 0x7E1 JUMP JUMPDEST PUSH2 0x2EC SWAP1 PUSH1 0x3 PUSH2 0x7A1 JUMP JUMPDEST PUSH2 0x2F6 SWAP2 SWAP1 PUSH2 0x868 JUMP JUMPDEST PUSH2 0x300 SWAP1 DUP4 PUSH2 0x896 JUMP JUMPDEST SWAP2 POP PUSH1 0x0 PUSH3 0x164B09 PUSH2 0x313 DUP5 PUSH1 0x1 PUSH2 0x7A1 JUMP JUMPDEST PUSH2 0x31F SWAP1 PUSH2 0xFA0 PUSH2 0x7E1 JUMP JUMPDEST PUSH2 0x329 SWAP2 SWAP1 PUSH2 0x868 JUMP JUMPDEST SWAP1 POP PUSH1 0x4 PUSH2 0x339 DUP3 PUSH2 0x5B5 PUSH2 0x7E1 JUMP JUMPDEST PUSH2 0x343 SWAP2 SWAP1 PUSH2 0x868 JUMP JUMPDEST PUSH2 0x34D SWAP1 DUP5 PUSH2 0x896 JUMP JUMPDEST PUSH2 0x358 SWAP1 PUSH1 0x1F PUSH2 0x7A1 JUMP JUMPDEST SWAP3 POP PUSH1 0x0 PUSH2 0x98F PUSH2 0x36A DUP6 PUSH1 0x50 PUSH2 0x7E1 JUMP JUMPDEST PUSH2 0x374 SWAP2 SWAP1 PUSH2 0x868 JUMP JUMPDEST SWAP1 POP PUSH1 0x0 PUSH1 0x50 PUSH2 0x386 DUP4 PUSH2 0x98F PUSH2 0x7E1 JUMP JUMPDEST PUSH2 0x390 SWAP2 SWAP1 PUSH2 0x868 JUMP JUMPDEST PUSH2 0x39A SWAP1 DUP7 PUSH2 0x896 JUMP JUMPDEST SWAP1 POP PUSH2 0x3A7 PUSH1 0xB DUP4 PUSH2 0x868 JUMP JUMPDEST SWAP5 POP PUSH2 0x3B4 DUP6 PUSH1 0xC PUSH2 0x7E1 JUMP JUMPDEST PUSH2 0x3BF DUP4 PUSH1 0x2 PUSH2 0x7A1 JUMP JUMPDEST PUSH2 0x3C9 SWAP2 SWAP1 PUSH2 0x896 JUMP JUMPDEST SWAP2 POP DUP5 DUP4 PUSH2 0x3D8 PUSH1 0x31 DUP8 PUSH2 0x896 JUMP JUMPDEST PUSH2 0x3E3 SWAP1 PUSH1 0x64 PUSH2 0x7E1 JUMP JUMPDEST PUSH2 0x3ED SWAP2 SWAP1 PUSH2 0x7A1 JUMP JUMPDEST PUSH2 0x3F7 SWAP2 SWAP1 PUSH2 0x7A1 JUMP JUMPDEST SWAP1 SWAP8 POP SWAP2 POP DUP7 DUP3 DUP3 DUP3 PUSH1 0x0 PUSH1 0x1 JUMPDEST DUP4 DUP2 GT PUSH2 0x452 JUMPI DUP4 DUP2 EQ ISZERO PUSH2 0x429 JUMPI PUSH2 0x422 PUSH2 0xFFFF DUP15 AND DUP4 PUSH2 0x73F JUMP JUMPDEST SWAP2 POP PUSH2 0x440 JUMP JUMPDEST PUSH2 0x433 DUP6 DUP6 PUSH2 0x4D8 JUMP JUMPDEST PUSH2 0x43D SWAP1 DUP4 PUSH2 0x73F JUMP JUMPDEST SWAP2 POP JUMPDEST DUP1 PUSH2 0x44A DUP2 PUSH2 0x8D5 JUMP JUMPDEST SWAP2 POP POP PUSH2 0x405 JUMP JUMPDEST POP DUP1 SWAP11 POP PUSH2 0x464 DUP12 PUSH2 0xFFFF AND DUP6 PUSH2 0x55E JUMP JUMPDEST PUSH2 0xFFFF AND PUSH1 0x40 DUP16 ADD MSTORE PUSH2 0x476 DUP16 PUSH2 0x121 JUMP JUMPDEST DUP15 PUSH1 0x20 ADD SWAP1 PUSH2 0xFFFF AND SWAP1 DUP2 PUSH2 0xFFFF AND DUP2 MSTORE POP POP DUP12 DUP15 PUSH1 0x0 ADD SWAP1 PUSH2 0xFFFF AND SWAP1 DUP2 PUSH2 0xFFFF AND DUP2 MSTORE POP POP DUP11 DUP15 PUSH1 0x60 ADD SWAP1 PUSH2 0xFFFF AND SWAP1 DUP2 PUSH2 0xFFFF AND DUP2 MSTORE POP POP POP POP POP POP POP POP POP POP POP POP POP POP POP SWAP2 SWAP1 POP JUMP JUMPDEST PUSH1 0x0 PUSH2 0x4D2 PUSH3 0x15180 DUP4 PUSH2 0x8F0 JUMP JUMPDEST SWAP3 SWAP2 POP POP JUMP JUMPDEST PUSH1 0x0 DUP2 PUSH1 0x1 EQ DUP1 PUSH2 0x4E9 JUMPI POP DUP2 PUSH1 0x3 EQ JUMPDEST DUP1 PUSH2 0x4F4 JUMPI POP DUP2 PUSH1 0x5 EQ JUMPDEST DUP1 PUSH2 0x4FF JUMPI POP DUP2 PUSH1 0x7 EQ JUMPDEST DUP1 PUSH2 0x50A JUMPI POP DUP2 PUSH1 0x8 EQ JUMPDEST DUP1 PUSH2 0x515 JUMPI POP DUP2 PUSH1 0xA EQ JUMPDEST DUP1 PUSH2 0x520 JUMPI POP DUP2 PUSH1 0xC EQ JUMPDEST ISZERO PUSH2 0x52D JUMPI POP PUSH1 0x1F PUSH2 0x4D2 JUMP JUMPDEST DUP2 PUSH1 0x2 EQ PUSH2 0x53D JUMPI POP PUSH1 0x1E PUSH2 0x4D2 JUMP JUMPDEST PUSH2 0x546 DUP4 PUSH2 0x62C JUMP JUMPDEST PUSH2 0x551 JUMPI PUSH1 0x1C PUSH2 0x554 JUMP JUMPDEST PUSH1 0x1D JUMPDEST PUSH1 0xFF AND SWAP4 SWAP3 POP POP POP JUMP JUMPDEST PUSH1 0x0 DUP1 PUSH2 0x56A DUP4 PUSH2 0x62C JUMP JUMPDEST ISZERO PUSH2 0x577 JUMPI POP PUSH1 0x1 PUSH2 0x57B JUMP JUMPDEST POP PUSH1 0x0 JUMPDEST PUSH2 0x586 DUP2 PUSH1 0x5A PUSH2 0x73F JUMP JUMPDEST DUP5 GT PUSH2 0x594 JUMPI DUP4 SWAP2 POP PUSH2 0x625 JUMP JUMPDEST DUP4 PUSH2 0x5A0 DUP3 PUSH1 0x5A PUSH2 0x73F JUMP JUMPDEST LT DUP1 ISZERO PUSH2 0x5B7 JUMPI POP PUSH2 0x5B3 DUP2 PUSH1 0xB5 PUSH2 0x73F JUMP JUMPDEST DUP5 GT ISZERO JUMPDEST ISZERO PUSH2 0x5D8 JUMPI PUSH2 0x5C7 DUP2 PUSH1 0x5A PUSH2 0x73F JUMP JUMPDEST PUSH2 0x5D1 SWAP1 DUP6 PUSH2 0x76B JUMP JUMPDEST SWAP2 POP PUSH2 0x625 JUMP JUMPDEST DUP4 PUSH2 0x5E4 DUP3 PUSH1 0xB5 PUSH2 0x73F JUMP JUMPDEST LT DUP1 ISZERO PUSH2 0x5FC JUMPI POP PUSH2 0x5F8 DUP2 PUSH2 0x111 PUSH2 0x73F JUMP JUMPDEST DUP5 GT ISZERO JUMPDEST ISZERO PUSH2 0x60C JUMPI PUSH2 0x5C7 DUP2 PUSH1 0xB5 PUSH2 0x73F JUMP JUMPDEST PUSH2 0x618 DUP2 PUSH2 0x111 PUSH2 0x73F JUMP JUMPDEST PUSH2 0x622 SWAP1 DUP6 PUSH2 0x76B JUMP JUMPDEST SWAP2 POP JUMPDEST POP SWAP3 SWAP2 POP POP JUMP JUMPDEST PUSH1 0x0 PUSH2 0x639 PUSH1 0x4 DUP4 PUSH2 0x757 JUMP JUMPDEST ISZERO DUP1 ISZERO PUSH2 0x64F JUMPI POP PUSH2 0x64C PUSH1 0x64 DUP4 PUSH2 0x757 JUMP JUMPDEST ISZERO ISZERO JUMPDEST DUP1 PUSH2 0x4D2 JUMPI POP PUSH2 0x661 PUSH2 0x190 DUP4 PUSH2 0x757 JUMP JUMPDEST ISZERO SWAP3 SWAP2 POP POP JUMP JUMPDEST PUSH1 0x0 PUSH1 0x20 DUP3 DUP5 SUB SLT ISZERO PUSH2 0x67A JUMPI PUSH1 0x0 DUP1 REVERT JUMPDEST POP CALLDATALOAD SWAP2 SWAP1 POP JUMP JUMPDEST DUP1 CALLDATALOAD PUSH5 0xFFFFFFFFFF DUP2 AND DUP2 EQ PUSH2 0x696 JUMPI PUSH1 0x0 DUP1 REVERT JUMPDEST SWAP2 SWAP1 POP JUMP JUMPDEST PUSH1 0x0 DUP1 PUSH1 0x0 DUP1 PUSH1 0x80 DUP6 DUP8 SUB SLT ISZERO PUSH2 0x6B1 JUMPI PUSH1 0x0 DUP1 REVERT JUMPDEST PUSH2 0x6BA DUP6 PUSH2 0x681 JUMP JUMPDEST SWAP4 POP PUSH2 0x6C8 PUSH1 0x20 DUP7 ADD PUSH2 0x681 JUMP JUMPDEST SWAP4 SWAP7 SWAP4 SWAP6 POP POP POP POP PUSH1 0x40 DUP3 ADD CALLDATALOAD SWAP2 PUSH1 0x60 ADD CALLDATALOAD SWAP1 JUMP JUMPDEST PUSH1 0x0 PUSH1 0x20 DUP3 DUP5 SUB SLT ISZERO PUSH2 0x6EF JUMPI PUSH1 0x0 DUP1 REVERT JUMPDEST PUSH2 0x6F8 DUP3 PUSH2 0x681 JUMP JUMPDEST SWAP4 SWAP3 POP POP POP JUMP JUMPDEST PUSH4 0x4E487B71 PUSH1 0xE0 SHL PUSH1 0x0 MSTORE PUSH1 0x12 PUSH1 0x4 MSTORE PUSH1 0x24 PUSH1 0x0 REVERT JUMPDEST PUSH4 0x4E487B71 PUSH1 0xE0 SHL PUSH1 0x0 MSTORE PUSH1 0x11 PUSH1 0x4 MSTORE PUSH1 0x24 PUSH1 0x0 REVERT JUMPDEST PUSH1 0x0 DUP3 PUSH2 0x73A JUMPI PUSH2 0x73A PUSH2 0x6FF JUMP JUMPDEST POP DIV SWAP1 JUMP JUMPDEST PUSH1 0x0 DUP3 NOT DUP3 GT ISZERO PUSH2 0x752 JUMPI PUSH2 0x752 PUSH2 0x715 JUMP JUMPDEST POP ADD SWAP1 JUMP JUMPDEST PUSH1 0x0 DUP3 PUSH2 0x766 JUMPI PUSH2 0x766 PUSH2 0x6FF JUMP JUMPDEST POP MOD SWAP1 JUMP JUMPDEST PUSH1 0x0 DUP3 DUP3 LT ISZERO PUSH2 0x77D JUMPI PUSH2 0x77D PUSH2 0x715 JUMP JUMPDEST POP SUB SWAP1 JUMP JUMPDEST PUSH1 0x0 DUP2 PUSH1 0x0 NOT DIV DUP4 GT DUP3 ISZERO ISZERO AND ISZERO PUSH2 0x79C JUMPI PUSH2 0x79C PUSH2 0x715 JUMP JUMPDEST POP MUL SWAP1 JUMP JUMPDEST PUSH1 0x0 DUP1 DUP3 SLT DUP3 PUSH1 0x1 PUSH1 0x1 PUSH1 0xFF SHL SUB SUB DUP5 SGT DUP2 ISZERO AND ISZERO PUSH2 0x7C2 JUMPI PUSH2 0x7C2 PUSH2 0x715 JUMP JUMPDEST PUSH1 0x1 PUSH1 0xFF SHL DUP4 SWAP1 SUB DUP5 SLT DUP2 AND ISZERO PUSH2 0x7DB JUMPI PUSH2 0x7DB PUSH2 0x715 JUMP JUMPDEST POP POP ADD SWAP1 JUMP JUMPDEST PUSH1 0x0 PUSH1 0x1 PUSH1 0x1 PUSH1 0xFF SHL SUB PUSH1 0x0 DUP5 SGT PUSH1 0x0 DUP5 SGT DUP6 DUP4 DIV DUP6 GT DUP3 DUP3 AND AND ISZERO PUSH2 0x809 JUMPI PUSH2 0x809 PUSH2 0x715 JUMP JUMPDEST PUSH1 0x1 PUSH1 0xFF SHL PUSH1 0x0 DUP8 SLT DUP3 DUP2 AND DUP8 DUP4 SDIV DUP10 SLT AND ISZERO PUSH2 0x828 JUMPI PUSH2 0x828 PUSH2 0x715 JUMP JUMPDEST PUSH1 0x0 DUP8 SLT SWAP3 POP DUP8 DUP3 SDIV DUP8 SLT DUP5 DUP5 AND AND ISZERO PUSH2 0x844 JUMPI PUSH2 0x844 PUSH2 0x715 JUMP JUMPDEST DUP8 DUP6 SDIV DUP8 SLT DUP2 DUP5 AND AND ISZERO PUSH2 0x85A JUMPI PUSH2 0x85A PUSH2 0x715 JUMP JUMPDEST POP POP POP SWAP3 SWAP1 SWAP4 MUL SWAP4 SWAP3 POP POP POP JUMP JUMPDEST PUSH1 0x0 DUP3 PUSH2 0x877 JUMPI PUSH2 0x877 PUSH2 0x6FF JUMP JUMPDEST PUSH1 0x1 PUSH1 0xFF SHL DUP3 EQ PUSH1 0x0 NOT DUP5 EQ AND ISZERO PUSH2 0x891 JUMPI PUSH2 0x891 PUSH2 0x715 JUMP JUMPDEST POP SDIV SWAP1 JUMP JUMPDEST PUSH1 0x0 DUP1 DUP4 SLT DUP1 ISZERO PUSH1 0x1 PUSH1 0xFF SHL DUP6 ADD DUP5 SLT AND ISZERO PUSH2 0x8B4 JUMPI PUSH2 0x8B4 PUSH2 0x715 JUMP JUMPDEST DUP4 PUSH1 0x1 PUSH1 0x1 PUSH1 0xFF SHL SUB ADD DUP4 SGT DUP2 AND ISZERO PUSH2 0x8CF JUMPI PUSH2 0x8CF PUSH2 0x715 JUMP JUMPDEST POP POP SUB SWAP1 JUMP JUMPDEST PUSH1 0x0 PUSH1 0x0 NOT DUP3 EQ ISZERO PUSH2 0x8E9 JUMPI PUSH2 0x8E9 PUSH2 0x715 JUMP JUMPDEST POP PUSH1 0x1 ADD SWAP1 JUMP JUMPDEST PUSH1 0x0 PUSH5 0xFFFFFFFFFF DUP1 DUP5 AND DUP1 PUSH2 0x908 JUMPI PUSH2 0x908 PUSH2 0x6FF JUMP JUMPDEST SWAP3 AND SWAP2 SWAP1 SWAP2 DIV SWAP3 SWAP2 POP POP JUMP INVALID LOG2 PUSH5 0x6970667358 0x22 SLT KECCAK256 EXTCODESIZE 0xB5 EXP 0x2C 0x24 DUP16 SAR 0xC4 PUSH21 0xE156118A29372FED5B4F8D78C6645E32654B21546C 0xE3 BALANCE PUSH5 0x736F6C6343 STOP ADDMOD MULMOD STOP CALLER "},"methodIdentifiers":{"getDayOfWeek(uint256)":"22f8a2b8","prorate(uint40,uint40,uint256,uint256)":"2eb84d6f","unixToDays(uint40)":"b14c0ed6","unixToTime(uint256)":"53a6d6e2"}}}}}