{
  "_format": "hh-sol-artifact-1",
  "contractName": "ClockTowerVerify",
  "sourceName": "contracts/ClockTowerVerify.sol",
  "abi": [
    {
      "inputs": [],
      "stateMutability": "payable",
      "type": "constructor"
    },
    {
      "anonymous": false,
      "inputs": [
        {
          "indexed": true,
          "internalType": "bytes32",
          "name": "id",
          "type": "bytes32"
        },
        {
          "indexed": true,
          "internalType": "address",
          "name": "provider",
          "type": "address"
        },
        {
          "indexed": false,
          "internalType": "string",
          "name": "domain",
          "type": "string"
        },
        {
          "indexed": false,
          "internalType": "string",
          "name": "url",
          "type": "string"
        },
        {
          "indexed": false,
          "internalType": "string",
          "name": "email",
          "type": "string"
        },
        {
          "indexed": false,
          "internalType": "string",
          "name": "phone",
          "type": "string"
        }
      ],
      "name": "Verify",
      "type": "event"
    },
    {
      "stateMutability": "payable",
      "type": "fallback"
    },
    {
      "inputs": [
        {
          "internalType": "address payable",
          "name": "newAddress",
          "type": "address"
        }
      ],
      "name": "changeAdmin",
      "outputs": [],
      "stateMutability": "nonpayable",
      "type": "function"
    },
    {
      "inputs": [
        {
          "internalType": "uint256",
          "name": "_fixed_fee",
          "type": "uint256"
        }
      ],
      "name": "changeSystemFee",
      "outputs": [],
      "stateMutability": "nonpayable",
      "type": "function"
    },
    {
      "inputs": [
        {
          "internalType": "address",
          "name": "provider",
          "type": "address"
        },
        {
          "internalType": "bytes32",
          "name": "id",
          "type": "bytes32"
        }
      ],
      "name": "checkIfProvider",
      "outputs": [
        {
          "internalType": "bool",
          "name": "",
          "type": "bool"
        }
      ],
      "stateMutability": "nonpayable",
      "type": "function"
    },
    {
      "inputs": [],
      "name": "collectFees",
      "outputs": [],
      "stateMutability": "nonpayable",
      "type": "function"
    },
    {
      "inputs": [],
      "name": "systemFee",
      "outputs": [
        {
          "internalType": "uint256",
          "name": "",
          "type": "uint256"
        }
      ],
      "stateMutability": "view",
      "type": "function"
    },
    {
      "inputs": [
        {
          "internalType": "bool",
          "name": "status",
          "type": "bool"
        }
      ],
      "name": "systemFeeActivate",
      "outputs": [],
      "stateMutability": "nonpayable",
      "type": "function"
    },
    {
      "stateMutability": "payable",
      "type": "receive"
    }
  ],
  "bytecode": "0x6080604052662386f26fc100005f55600180546001600160a81b03191673f39fd6e51aad88f6f4ce6ab8827279cfffb92266179055600280546001600160a01b031916735fbdb2315678afecb367f032d93f642f64180aa31790556105bd806100675f395ff3fe608060405260043610610062575f3560e01c80639889552e1161003f5780639889552e146100d0578063c8796572146100ef578063f82ac7a31461010357005b80630bec99e81461006b5780631f17ee551461008a5780638f283970146100b157005b3661006957005b005b348015610076575f80fd5b506100696100853660046102c6565b610132565b348015610095575f80fd5b5061009e5f5481565b6040519081526020015b60405180910390f35b3480156100bc575f80fd5b506100696100cb3660046102f1565b61013e565b3480156100db575f80fd5b506100696100ea366004610320565b610187565b3480156100fa575f80fd5b506100696101ad565b34801561010e575f80fd5b5061012261011d36600461033b565b610203565b60405190151581526020016100a8565b61013a610283565b5f55565b610146610283565b6001600160a01b038116610158575f80fd5b6001805473ffffffffffffffffffffffffffffffffffffffff19166001600160a01b0392909216919091179055565b61018f610283565b60018054911515600160a01b0260ff60a01b19909216919091179055565b6101b5610283565b611388471115610201576001546001600160a01b03166108fc6101da61138847610365565b6040518115909202915f818181858888f193505050501580156101ff573d5f803e3d5ffd5b505b565b5f61020c610283565b60025460405163fbcbc0f160e01b81526001600160a01b0385811660048301525f92169063fbcbc0f1906024015f60405180830381865afa158015610253573d5f803e3d5ffd5b505050506040513d5f823e601f3d908101601f1916820160405261027a91908101906104d6565b90505092915050565b6001546001600160a01b031633146102015760405162461bcd60e51b8152602060048201526002602482015261189b60f11b604482015260640160405180910390fd5b5f602082840312156102d6575f80fd5b5035919050565b6001600160a01b03811681146101ff575f80fd5b5f60208284031215610301575f80fd5b813561030c816102dd565b9392505050565b80151581146101ff575f80fd5b5f60208284031215610330575f80fd5b813561030c81610313565b5f806040838503121561034c575f80fd5b8235610357816102dd565b946020939093013593505050565b8181038181111561038457634e487b7160e01b5f52601160045260245ffd5b92915050565b634e487b7160e01b5f52604160045260245ffd5b6040516080810167ffffffffffffffff811182821017156103c1576103c161038a565b60405290565b604051601f8201601f1916810167ffffffffffffffff811182821017156103f0576103f061038a565b604052919050565b5f82601f830112610407575f80fd5b8151602067ffffffffffffffff8211156104235761042361038a565b610431818360051b016103c7565b82815260079290921b8401810191818101908684111561044f575f80fd5b8286015b848110156104cb576080818903121561046b575f8081fd5b61047361039e565b815181528482015161ffff8116811461048b575f8081fd5b81860152604082810151600481106104a2575f8081fd5b90820152606082810151600381106104b9575f8081fd5b90820152835291830191608001610453565b509695505050505050565b5f602082840312156104e6575f80fd5b815167ffffffffffffffff808211156104fd575f80fd5b9083019060808286031215610510575f80fd5b61051861039e565b8251610523816102dd565b8152602083015161053381610313565b6020820152604083015182811115610549575f80fd5b610555878286016103f8565b60408301525060608301518281111561056c575f80fd5b610578878286016103f8565b6060830152509594505050505056fea2646970667358221220d647c901693398b92961e74c31becbf787cc8f2a70e4be16dfc8768d5f25d7e364736f6c63430008150033",
  "linkReferences": {},
  "deployedLinkReferences": {}
}