{
  "_format": "hh-sol-artifact-1",
  "contractName": "Clocktower",
  "sourceName": "contracts/Clocktower.sol",
  "abi": [
    {
      "inputs": [],
      "stateMutability": "payable",
      "type": "constructor"
    },
    {
      "anonymous": false,
      "inputs": [
        {
          "indexed": false,
          "internalType": "string",
          "name": "output4",
          "type": "string"
        }
      ],
      "name": "AccountCreated",
      "type": "event"
    },
    {
      "anonymous": false,
      "inputs": [
        {
          "indexed": false,
          "internalType": "string",
          "name": "output2",
          "type": "string"
        }
      ],
      "name": "CheckStatus",
      "type": "event"
    },
    {
      "anonymous": false,
      "inputs": [
        {
          "indexed": false,
          "internalType": "address",
          "name": "user",
          "type": "address"
        },
        {
          "indexed": false,
          "internalType": "uint256",
          "name": "amount",
          "type": "uint256"
        }
      ],
      "name": "ReceiveETH",
      "type": "event"
    },
    {
      "anonymous": false,
      "inputs": [
        {
          "indexed": false,
          "internalType": "string",
          "name": "output",
          "type": "string"
        }
      ],
      "name": "Status",
      "type": "event"
    },
    {
      "anonymous": false,
      "inputs": [
        {
          "indexed": false,
          "internalType": "address",
          "name": "sender",
          "type": "address"
        },
        {
          "indexed": false,
          "internalType": "address",
          "name": "receiver",
          "type": "address"
        },
        {
          "indexed": false,
          "internalType": "uint40",
          "name": "timeTrigger",
          "type": "uint40"
        },
        {
          "indexed": false,
          "internalType": "uint256",
          "name": "payload",
          "type": "uint256"
        }
      ],
      "name": "TransactionAdd",
      "type": "event"
    },
    {
      "anonymous": false,
      "inputs": [
        {
          "indexed": false,
          "internalType": "bool",
          "name": "sent",
          "type": "bool"
        }
      ],
      "name": "TransactionSent",
      "type": "event"
    },
    {
      "anonymous": false,
      "inputs": [
        {
          "indexed": false,
          "internalType": "string",
          "name": "output3",
          "type": "string"
        }
      ],
      "name": "UnknownFunction",
      "type": "event"
    },
    {
      "stateMutability": "payable",
      "type": "fallback"
    },
    {
      "inputs": [
        {
          "components": [
            {
              "internalType": "address payable",
              "name": "receiver",
              "type": "address"
            },
            {
              "internalType": "uint40",
              "name": "unixTime",
              "type": "uint40"
            },
            {
              "internalType": "uint256",
              "name": "payload",
              "type": "uint256"
            }
          ],
          "internalType": "struct Clocktower.Batch[]",
          "name": "batch",
          "type": "tuple[]"
        }
      ],
      "name": "addBatchTransactions",
      "outputs": [],
      "stateMutability": "payable",
      "type": "function"
    },
    {
      "inputs": [
        {
          "internalType": "address payable",
          "name": "receiver",
          "type": "address"
        },
        {
          "internalType": "uint40",
          "name": "unixTime",
          "type": "uint40"
        },
        {
          "internalType": "uint256",
          "name": "payload",
          "type": "uint256"
        }
      ],
      "name": "addTransaction",
      "outputs": [],
      "stateMutability": "payable",
      "type": "function"
    },
    {
      "inputs": [],
      "name": "allAccounts",
      "outputs": [
        {
          "components": [
            {
              "internalType": "address",
              "name": "accountAddress",
              "type": "address"
            },
            {
              "internalType": "bool",
              "name": "exists",
              "type": "bool"
            },
            {
              "internalType": "uint256",
              "name": "balance",
              "type": "uint256"
            },
            {
              "internalType": "uint40[]",
              "name": "timeTriggers",
              "type": "uint40[]"
            }
          ],
          "internalType": "struct Clocktower.Account[]",
          "name": "",
          "type": "tuple[]"
        }
      ],
      "stateMutability": "view",
      "type": "function"
    },
    {
      "inputs": [],
      "name": "allTransactions",
      "outputs": [
        {
          "components": [
            {
              "internalType": "bytes32",
              "name": "id",
              "type": "bytes32"
            },
            {
              "internalType": "address",
              "name": "sender",
              "type": "address"
            },
            {
              "internalType": "address payable",
              "name": "receiver",
              "type": "address"
            },
            {
              "internalType": "uint40",
              "name": "timeTrigger",
              "type": "uint40"
            },
            {
              "internalType": "bool",
              "name": "sent",
              "type": "bool"
            },
            {
              "internalType": "bool",
              "name": "cancelled",
              "type": "bool"
            },
            {
              "internalType": "uint256",
              "name": "payload",
              "type": "uint256"
            }
          ],
          "internalType": "struct Clocktower.Transaction[]",
          "name": "",
          "type": "tuple[]"
        }
      ],
      "stateMutability": "view",
      "type": "function"
    },
    {
      "inputs": [
        {
          "internalType": "bytes32",
          "name": "id",
          "type": "bytes32"
        },
        {
          "internalType": "uint40",
          "name": "timeTrigger",
          "type": "uint40"
        }
      ],
      "name": "cancelTransaction",
      "outputs": [],
      "stateMutability": "payable",
      "type": "function"
    },
    {
      "inputs": [
        {
          "internalType": "address",
          "name": "newAddress",
          "type": "address"
        }
      ],
      "name": "changeAdmin",
      "outputs": [],
      "stateMutability": "nonpayable",
      "type": "function"
    },
    {
      "inputs": [],
      "name": "checkTime",
      "outputs": [],
      "stateMutability": "nonpayable",
      "type": "function"
    },
    {
      "inputs": [],
      "name": "getAccountTransactions",
      "outputs": [
        {
          "components": [
            {
              "internalType": "bytes32",
              "name": "id",
              "type": "bytes32"
            },
            {
              "internalType": "address",
              "name": "sender",
              "type": "address"
            },
            {
              "internalType": "address payable",
              "name": "receiver",
              "type": "address"
            },
            {
              "internalType": "uint40",
              "name": "timeTrigger",
              "type": "uint40"
            },
            {
              "internalType": "bool",
              "name": "sent",
              "type": "bool"
            },
            {
              "internalType": "bool",
              "name": "cancelled",
              "type": "bool"
            },
            {
              "internalType": "uint256",
              "name": "payload",
              "type": "uint256"
            }
          ],
          "internalType": "struct Clocktower.Transaction[]",
          "name": "",
          "type": "tuple[]"
        }
      ],
      "stateMutability": "view",
      "type": "function"
    },
    {
      "inputs": [],
      "name": "getTime",
      "outputs": [
        {
          "internalType": "uint256",
          "name": "",
          "type": "uint256"
        }
      ],
      "stateMutability": "view",
      "type": "function"
    },
    {
      "inputs": [
        {
          "internalType": "address",
          "name": "account",
          "type": "address"
        }
      ],
      "name": "getTransactionsByAccount",
      "outputs": [
        {
          "components": [
            {
              "internalType": "bytes32",
              "name": "id",
              "type": "bytes32"
            },
            {
              "internalType": "address",
              "name": "sender",
              "type": "address"
            },
            {
              "internalType": "address payable",
              "name": "receiver",
              "type": "address"
            },
            {
              "internalType": "uint40",
              "name": "timeTrigger",
              "type": "uint40"
            },
            {
              "internalType": "bool",
              "name": "sent",
              "type": "bool"
            },
            {
              "internalType": "bool",
              "name": "cancelled",
              "type": "bool"
            },
            {
              "internalType": "uint256",
              "name": "payload",
              "type": "uint256"
            }
          ],
          "internalType": "struct Clocktower.Transaction[]",
          "name": "",
          "type": "tuple[]"
        }
      ],
      "stateMutability": "view",
      "type": "function"
    },
    {
      "inputs": [
        {
          "internalType": "uint40",
          "name": "unixTime",
          "type": "uint40"
        }
      ],
      "name": "hoursSinceMerge",
      "outputs": [
        {
          "internalType": "uint40",
          "name": "hourCount",
          "type": "uint40"
        }
      ],
      "stateMutability": "view",
      "type": "function"
    },
    {
      "inputs": [],
      "name": "toggleContractActive",
      "outputs": [],
      "stateMutability": "nonpayable",
      "type": "function"
    },
    {
      "stateMutability": "payable",
      "type": "receive"
    }
  ],
  "bytecode": "0x608060405273f39fd6e51aad88f6f4ce6ab8827279cfffb92266600460006101000a81548173ffffffffffffffffffffffffffffffffffffffff021916908373ffffffffffffffffffffffffffffffffffffffff1602179055506000600460146101000a81548160ff0219169083151502179055506363236820600460156101000a81548164ffffffffff021916908364ffffffffff16021790555060016005556001620000b342620000e760201b60201c565b620000bf919062000160565b600660006101000a81548164ffffffffff021916908364ffffffffff16021790555062000207565b6000610e10600460159054906101000a900464ffffffffff16836200010d919062000160565b620001199190620001cf565b9050919050565b600064ffffffffff82169050919050565b7f4e487b7100000000000000000000000000000000000000000000000000000000600052601160045260246000fd5b60006200016d8262000120565b91506200017a8362000120565b9250828203905064ffffffffff8111156200019a576200019962000131565b5b92915050565b7f4e487b7100000000000000000000000000000000000000000000000000000000600052601260045260246000fd5b6000620001dc8262000120565b9150620001e98362000120565b925082620001fc57620001fb620001a0565b5b828204905092915050565b614a4680620002176000396000f3fe6080604052600436106100ab5760003560e01c8063c682cce411610064578063c682cce414610211578063cf783d8a1461023c578063dc9961eb14610267578063e0c6190d146102a4578063e8a22a5c146102bb578063e9e1dbef146102d7576100eb565b80631385d24c146101225780631ccb33711461013957806339ad38c114610164578063557ed1ba146101805780637e4b1029146101ab5780638f283970146101e8576100eb565b366100eb577f830d2d700a97af574b186c80d40429385d24241565b08a7c559ba283a964d9b133346040516100e192919061380c565b60405180910390a1005b7f19525a32afaad9a5491805c356597487a306fc2f4e8541d8d55e1fe951091e6060405161011890613892565b60405180910390a1005b34801561012e57600080fd5b506101376102f3565b005b34801561014557600080fd5b5061014e610379565b60405161015b9190613a82565b60405180910390f35b61017e60048036038101906101799190613b3c565b610512565b005b34801561018c57600080fd5b50610195610c00565b6040516101a29190613b8f565b60405180910390f35b3480156101b757600080fd5b506101d260048036038101906101cd9190613baa565b610c08565b6040516101df9190613be6565b60405180910390f35b3480156101f457600080fd5b5061020f600480360381019061020a9190613c2d565b610c3d565b005b34801561021d57600080fd5b50610226610d4c565b6040516102339190613a82565b60405180910390f35b34801561024857600080fd5b506102516113b6565b60405161025e9190613e2e565b60405180910390f35b34801561027357600080fd5b5061028e60048036038101906102899190613c2d565b611640565b60405161029b9190613a82565b60405180910390f35b3480156102b057600080fd5b506102b9611d06565b005b6102d560048036038101906102d09190614012565b612085565b005b6102f160048036038101906102ec9190614087565b6128d5565b005b600460009054906101000a900473ffffffffffffffffffffffffffffffffffffffff1673ffffffffffffffffffffffffffffffffffffffff163373ffffffffffffffffffffffffffffffffffffffff161461034d57600080fd5b600460149054906101000a900460ff1615600460146101000a81548160ff021916908315150217905550565b6060600460009054906101000a900473ffffffffffffffffffffffffffffffffffffffff1673ffffffffffffffffffffffffffffffffffffffff163373ffffffffffffffffffffffffffffffffffffffff16146103d557600080fd5b600060028054905067ffffffffffffffff8111156103f6576103f5613e66565b5b60405190808252806020026020018201604052801561042f57816020015b61041c6133fb565b8152602001906001900390816104145790505b5090506000805b60018054905081101561050957600061048c6001838154811061045c5761045b6140c7565b5b9060005260206000200160009054906101000a900473ffffffffffffffffffffffffffffffffffffffff16611640565b905060005b81518110156104f4578181815181106104ad576104ac6140c7565b5b60200260200101518585815181106104c8576104c76140c7565b5b602002602001018190525083806104de90614125565b94505080806104ec90614125565b915050610491565b5050808061050190614125565b915050610436565b50819250505090565b428264ffffffffff161161055b576040517f08c379a0000000000000000000000000000000000000000000000000000000008152600401610552906141b9565b60405180910390fd5b6000610e108361056b9190614208565b64ffffffffff16146105b2576040517f08c379a00000000000000000000000000000000000000000000000000000000081526004016105a990614285565b60405180910390fd5b600554346105c091906142a5565b811115610602576040517f08c379a00000000000000000000000000000000000000000000000000000000081526004016105f990614359565b60405180910390fd5b600061060d83610c08565b90506000600360008364ffffffffff1664ffffffffff1681526020019081526020016000209050600061064233878587612ce4565b905080826001816001815401808255809150500390600052602060002090600402016000820151816000015560208201518160010160006101000a81548173ffffffffffffffffffffffffffffffffffffffff021916908373ffffffffffffffffffffffffffffffffffffffff16021790555060408201518160020160006101000a81548173ffffffffffffffffffffffffffffffffffffffff021916908373ffffffffffffffffffffffffffffffffffffffff16021790555060608201518160020160146101000a81548164ffffffffff021916908364ffffffffff16021790555060808201518160020160196101000a81548160ff02191690831515021790555060a082015181600201601a6101000a81548160ff02191690831515021790555060c082015181600301559050507f6e643cb89831cd75ded50b4ecee0e313701b6002fc48e8b80a3c05447ab066e8338785876040516107a794939291906143d8565b60405180910390a17f2844c95bf1b4598da931d527f903501abc60fe0199c65da52d5ce818c6c5e9616040516107dc90614469565b60405180910390a18060000151600260018160018154018082558091505003906000526020600020018190555081600360008564ffffffffff1664ffffffffff168152602001908152602001600020908054610839929190613472565b5060008060003373ffffffffffffffffffffffffffffffffffffffff1673ffffffffffffffffffffffffffffffffffffffff168152602001908152602001600020905080600101543461088c9190614489565b81600101819055506000808260020180548060200260200160405190810160405280929190818152602001828054801561091357602002820191906000526020600020906000905b82829054906101000a900464ffffffffff1664ffffffffff16815260200190600501906020826004010492830192600103820291508084116108d45790505b5050505050905060005b815181101561096d578664ffffffffff16828281518110610941576109406140c7565b5b602002602001015164ffffffffff160361095a57600192505b808061096590614125565b91505061091d565b5060001515821515036109c55785836002016001816001815401808255809150500390600052602060002090600691828204019190066005026101000a81548164ffffffffff021916908364ffffffffff1602179055505b600015156000803373ffffffffffffffffffffffffffffffffffffffff1673ffffffffffffffffffffffffffffffffffffffff16815260200190815260200160002060000160149054906101000a900460ff16151503610afe57338360000160006101000a81548173ffffffffffffffffffffffffffffffffffffffff021916908373ffffffffffffffffffffffffffffffffffffffff1602179055508260000160009054906101000a900473ffffffffffffffffffffffffffffffffffffffff1660018081600181540180825580915050039060005260206000200160006101000a81548173ffffffffffffffffffffffffffffffffffffffff021916908373ffffffffffffffffffffffffffffffffffffffff16021790555060018360000160146101000a81548160ff0219169083151502179055505b826000803373ffffffffffffffffffffffffffffffffffffffff1673ffffffffffffffffffffffffffffffffffffffff1681526020019081526020016000206000820160009054906101000a900473ffffffffffffffffffffffffffffffffffffffff168160000160006101000a81548173ffffffffffffffffffffffffffffffffffffffff021916908373ffffffffffffffffffffffffffffffffffffffff1602179055506000820160149054906101000a900460ff168160000160146101000a81548160ff021916908315150217905550600182015481600101556002820181600201908054610bf1929190613640565b50905050505050505050505050565b600042905090565b6000610e10600460159054906101000a900464ffffffffff1683610c2c91906144bd565b610c3691906144f6565b9050919050565b600460009054906101000a900473ffffffffffffffffffffffffffffffffffffffff1673ffffffffffffffffffffffffffffffffffffffff163373ffffffffffffffffffffffffffffffffffffffff1614610c9757600080fd5b8073ffffffffffffffffffffffffffffffffffffffff163373ffffffffffffffffffffffffffffffffffffffff16148015610cff5750600073ffffffffffffffffffffffffffffffffffffffff168173ffffffffffffffffffffffffffffffffffffffff1614155b610d0857600080fd5b80600460006101000a81548173ffffffffffffffffffffffffffffffffffffffff021916908373ffffffffffffffffffffffffffffffffffffffff16021790555050565b606060008060003373ffffffffffffffffffffffffffffffffffffffff1673ffffffffffffffffffffffffffffffffffffffff168152602001908152602001600020600201805480602002602001604051908101604052809291908181526020018280548015610e0957602002820191906000526020600020906000905b82829054906101000a900464ffffffffff1664ffffffffff1681526020019060050190602082600401049283019260010382029150808411610dca5790505b505050505090506000805b8251811015610ff457600060036000858481518110610e3657610e356140c7565b5b602002602001015164ffffffffff1664ffffffffff168152602001908152602001600020805480602002602001604051908101604052809291908181526020016000905b82821015610fcb57838290600052602060002090600402016040518060e0016040529081600082015481526020016001820160009054906101000a900473ffffffffffffffffffffffffffffffffffffffff1673ffffffffffffffffffffffffffffffffffffffff1673ffffffffffffffffffffffffffffffffffffffff1681526020016002820160009054906101000a900473ffffffffffffffffffffffffffffffffffffffff1673ffffffffffffffffffffffffffffffffffffffff1673ffffffffffffffffffffffffffffffffffffffff1681526020016002820160149054906101000a900464ffffffffff1664ffffffffff1664ffffffffff1681526020016002820160199054906101000a900460ff1615151515815260200160028201601a9054906101000a900460ff1615151515815260200160038201548152505081526020019060010190610e7a565b505050509050805183610fde9190614489565b9250508080610fec90614125565b915050610e14565b5060008167ffffffffffffffff81111561101157611010613e66565b5b60405190808252806020026020018201604052801561104a57816020015b6110376133fb565b81526020019060019003908161102f5790505b50905060008267ffffffffffffffff81111561106957611068613e66565b5b6040519080825280602002602001820160405280156110a257816020015b61108f6133fb565b8152602001906001900390816110875790505b5090506000805b855181101561133057600360008783815181106110c9576110c86140c7565b5b602002602001015164ffffffffff1664ffffffffff168152602001908152602001600020805480602002602001604051908101604052809291908181526020016000905b8282101561125e57838290600052602060002090600402016040518060e0016040529081600082015481526020016001820160009054906101000a900473ffffffffffffffffffffffffffffffffffffffff1673ffffffffffffffffffffffffffffffffffffffff1673ffffffffffffffffffffffffffffffffffffffff1681526020016002820160009054906101000a900473ffffffffffffffffffffffffffffffffffffffff1673ffffffffffffffffffffffffffffffffffffffff1673ffffffffffffffffffffffffffffffffffffffff1681526020016002820160149054906101000a900464ffffffffff1664ffffffffff1664ffffffffff1681526020016002820160199054906101000a900460ff1615151515815260200160028201601a9054906101000a900460ff161515151581526020016003820154815250508152602001906001019061110d565b50505050935060005b845181101561131c573373ffffffffffffffffffffffffffffffffffffffff1685828151811061129a576112996140c7565b5b60200260200101516020015173ffffffffffffffffffffffffffffffffffffffff1603611309578481815181106112d4576112d36140c7565b5b60200260200101518484815181106112ef576112ee6140c7565b5b6020026020010181905250828061130590614125565b9350505b808061131490614125565b915050611267565b50808061132890614125565b9150506110a9565b5060005b82518110156113aa57611364838281518110611353576113526140c7565b5b602002602001015160600151612d92565b838281518110611377576113766140c7565b5b60200260200101516060019064ffffffffff16908164ffffffffff168152505080806113a290614125565b915050611334565b50819550505050505090565b6060600460009054906101000a900473ffffffffffffffffffffffffffffffffffffffff1673ffffffffffffffffffffffffffffffffffffffff163373ffffffffffffffffffffffffffffffffffffffff161461141257600080fd5b600060018054905067ffffffffffffffff81111561143357611432613e66565b5b60405190808252806020026020018201604052801561146c57816020015b6114596136a0565b8152602001906001900390816114515790505b50905060005b6001805490508110156116385760008060018381548110611496576114956140c7565b5b9060005260206000200160009054906101000a900473ffffffffffffffffffffffffffffffffffffffff1673ffffffffffffffffffffffffffffffffffffffff1673ffffffffffffffffffffffffffffffffffffffff1681526020019081526020016000206040518060800160405290816000820160009054906101000a900473ffffffffffffffffffffffffffffffffffffffff1673ffffffffffffffffffffffffffffffffffffffff1673ffffffffffffffffffffffffffffffffffffffff1681526020016000820160149054906101000a900460ff1615151515815260200160018201548152602001600282018054806020026020016040519081016040528092919081815260200182805480156115fe57602002820191906000526020600020906000905b82829054906101000a900464ffffffffff1664ffffffffff16815260200190600501906020826004010492830192600103820291508084116115bf5790505b50505050508152505082828151811061161a576116196140c7565b5b6020026020010181905250808061163090614125565b915050611472565b508091505090565b6060600460009054906101000a900473ffffffffffffffffffffffffffffffffffffffff1673ffffffffffffffffffffffffffffffffffffffff163373ffffffffffffffffffffffffffffffffffffffff161461169c57600080fd5b60008060008473ffffffffffffffffffffffffffffffffffffffff1673ffffffffffffffffffffffffffffffffffffffff16815260200190815260200160002060020180548060200260200160405190810160405280929190818152602001828054801561175757602002820191906000526020600020906000905b82829054906101000a900464ffffffffff1664ffffffffff16815260200190600501906020826004010492830192600103820291508084116117185790505b505050505090506000805b825181101561194257600060036000858481518110611784576117836140c7565b5b602002602001015164ffffffffff1664ffffffffff168152602001908152602001600020805480602002602001604051908101604052809291908181526020016000905b8282101561191957838290600052602060002090600402016040518060e0016040529081600082015481526020016001820160009054906101000a900473ffffffffffffffffffffffffffffffffffffffff1673ffffffffffffffffffffffffffffffffffffffff1673ffffffffffffffffffffffffffffffffffffffff1681526020016002820160009054906101000a900473ffffffffffffffffffffffffffffffffffffffff1673ffffffffffffffffffffffffffffffffffffffff1673ffffffffffffffffffffffffffffffffffffffff1681526020016002820160149054906101000a900464ffffffffff1664ffffffffff1664ffffffffff1681526020016002820160199054906101000a900460ff1615151515815260200160028201601a9054906101000a900460ff16151515158152602001600382015481525050815260200190600101906117c8565b50505050905080518361192c9190614489565b925050808061193a90614125565b915050611762565b5060008167ffffffffffffffff81111561195f5761195e613e66565b5b60405190808252806020026020018201604052801561199857816020015b6119856133fb565b81526020019060019003908161197d5790505b50905060008267ffffffffffffffff8111156119b7576119b6613e66565b5b6040519080825280602002602001820160405280156119f057816020015b6119dd6133fb565b8152602001906001900390816119d55790505b5090506000805b8551811015611c7e5760036000878381518110611a1757611a166140c7565b5b602002602001015164ffffffffff1664ffffffffff168152602001908152602001600020805480602002602001604051908101604052809291908181526020016000905b82821015611bac57838290600052602060002090600402016040518060e0016040529081600082015481526020016001820160009054906101000a900473ffffffffffffffffffffffffffffffffffffffff1673ffffffffffffffffffffffffffffffffffffffff1673ffffffffffffffffffffffffffffffffffffffff1681526020016002820160009054906101000a900473ffffffffffffffffffffffffffffffffffffffff1673ffffffffffffffffffffffffffffffffffffffff1673ffffffffffffffffffffffffffffffffffffffff1681526020016002820160149054906101000a900464ffffffffff1664ffffffffff1664ffffffffff1681526020016002820160199054906101000a900460ff1615151515815260200160028201601a9054906101000a900460ff1615151515815260200160038201548152505081526020019060010190611a5b565b50505050935060005b8451811015611c6a578873ffffffffffffffffffffffffffffffffffffffff16858281518110611be857611be76140c7565b5b60200260200101516020015173ffffffffffffffffffffffffffffffffffffffff1603611c5757848181518110611c2257611c216140c7565b5b6020026020010151848481518110611c3d57611c3c6140c7565b5b60200260200101819052508280611c5390614125565b9350505b8080611c6290614125565b915050611bb5565b508080611c7690614125565b9150506119f7565b5060005b8251811015611cf857611cb2838281518110611ca157611ca06140c7565b5b602002602001015160600151612d92565b838281518110611cc557611cc46140c7565b5b60200260200101516060019064ffffffffff16908164ffffffffff16815250508080611cf090614125565b915050611c82565b508195505050505050919050565b600460009054906101000a900473ffffffffffffffffffffffffffffffffffffffff1673ffffffffffffffffffffffffffffffffffffffff163373ffffffffffffffffffffffffffffffffffffffff1614611d6057600080fd5b6000611d6b42610c08565b9050600660009054906101000a900464ffffffffff1664ffffffffff168164ffffffffff1611611dd0576040517f08c379a0000000000000000000000000000000000000000000000000000000008152600401611dc790614599565b60405180910390fd5b6000600660009054906101000a900464ffffffffff1690505b8164ffffffffff168164ffffffffff161161205e576000600360008364ffffffffff1664ffffffffff168152602001908152602001600020805480602002602001604051908101604052809291908181526020016000905b82821015611f9257838290600052602060002090600402016040518060e0016040529081600082015481526020016001820160009054906101000a900473ffffffffffffffffffffffffffffffffffffffff1673ffffffffffffffffffffffffffffffffffffffff1673ffffffffffffffffffffffffffffffffffffffff1681526020016002820160009054906101000a900473ffffffffffffffffffffffffffffffffffffffff1673ffffffffffffffffffffffffffffffffffffffff1673ffffffffffffffffffffffffffffffffffffffff1681526020016002820160149054906101000a900464ffffffffff1664ffffffffff1664ffffffffff1681526020016002820160199054906101000a900460ff1615151515815260200160028201601a9054906101000a900460ff1615151515815260200160038201548152505081526020019060010190611e41565b5050505090507fd0467e87c925b3aaa75daa9ae7ddbc4e3fb9e730bc9d328e6732e9eb541dd8c9604051611fc590614605565b60405180910390a160008151111561204a5760005b60018251611fe89190614625565b811161204857818181518110612001576120006140c7565b5b602002602001015160a0015161203557612034828281518110612027576120266140c7565b5b6020026020010151612dc7565b5b808061204090614125565b915050611fda565b505b50808061205690614659565b915050611de9565b5080600660006101000a81548164ffffffffff021916908364ffffffffff16021790555050565b60018151116120c9576040517f08c379a00000000000000000000000000000000000000000000000000000000081526004016120c0906146f8565b60405180910390fd5b60008060005b835181101561229057428482815181106120ec576120eb6140c7565b5b60200260200101516020015164ffffffffff161161213f576040517f08c379a0000000000000000000000000000000000000000000000000000000008152600401612136906141b9565b60405180910390fd5b6000610e10858381518110612157576121566140c7565b5b60200260200101516020015161216d9190614208565b64ffffffffff16146121b4576040517f08c379a00000000000000000000000000000000000000000000000000000000081526004016121ab90614285565b60405180910390fd5b600081036121e2578381815181106121cf576121ce6140c7565b5b6020026020010151602001519150612251565b8381815181106121f5576121f46140c7565b5b60200260200101516020015164ffffffffff168264ffffffffff1614612250576040517f08c379a00000000000000000000000000000000000000000000000000000000081526004016122479061478a565b60405180910390fd5b5b838181518110612264576122636140c7565b5b6020026020010151604001518361227b9190614489565b9250808061228890614125565b9150506120cf565b506005543461229f91906142a5565b8211156122e1576040517f08c379a00000000000000000000000000000000000000000000000000000000081526004016122d890614359565b60405180910390fd5b60006122ec82610c08565b90506000600360008364ffffffffff1664ffffffffff168152602001908152602001600020905060005b85518161ffff1610156124de57600061237533888461ffff16815181106123405761233f6140c7565b5b602002602001015160000151868a8661ffff1681518110612364576123636140c7565b5b602002602001015160400151612ce4565b905080836001816001815401808255809150500390600052602060002090600402016000820151816000015560208201518160010160006101000a81548173ffffffffffffffffffffffffffffffffffffffff021916908373ffffffffffffffffffffffffffffffffffffffff16021790555060408201518160020160006101000a81548173ffffffffffffffffffffffffffffffffffffffff021916908373ffffffffffffffffffffffffffffffffffffffff16021790555060608201518160020160146101000a81548164ffffffffff021916908364ffffffffff16021790555060808201518160020160196101000a81548160ff02191690831515021790555060a082015181600201601a6101000a81548160ff02191690831515021790555060c08201518160030155905050806000015160026001816001815401808255809150500390600052602060002001819055505080806124d6906147b8565b915050612316565b5080600360008464ffffffffff1664ffffffffff16815260200190815260200160002090805461250f929190613472565b5060008060003373ffffffffffffffffffffffffffffffffffffffff1673ffffffffffffffffffffffffffffffffffffffff16815260200190815260200160002090508060010154346125629190614489565b8160010181905550600080826002018054806020026020016040519081016040528092919081815260200182805480156125e957602002820191906000526020600020906000905b82829054906101000a900464ffffffffff1664ffffffffff16815260200190600501906020826004010492830192600103820291508084116125aa5790505b5050505050905060005b8151811015612643578564ffffffffff16828281518110612617576126166140c7565b5b602002602001015164ffffffffff160361263057600192505b808061263b90614125565b9150506125f3565b50600015158215150361269b5784836002016001816001815401808255809150500390600052602060002090600691828204019190066005026101000a81548164ffffffffff021916908364ffffffffff1602179055505b600015156000803373ffffffffffffffffffffffffffffffffffffffff1673ffffffffffffffffffffffffffffffffffffffff16815260200190815260200160002060000160149054906101000a900460ff161515036127d457338360000160006101000a81548173ffffffffffffffffffffffffffffffffffffffff021916908373ffffffffffffffffffffffffffffffffffffffff1602179055508260000160009054906101000a900473ffffffffffffffffffffffffffffffffffffffff1660018081600181540180825580915050039060005260206000200160006101000a81548173ffffffffffffffffffffffffffffffffffffffff021916908373ffffffffffffffffffffffffffffffffffffffff16021790555060018360000160146101000a81548160ff0219169083151502179055505b826000803373ffffffffffffffffffffffffffffffffffffffff1673ffffffffffffffffffffffffffffffffffffffff1681526020019081526020016000206000820160009054906101000a900473ffffffffffffffffffffffffffffffffffffffff168160000160006101000a81548173ffffffffffffffffffffffffffffffffffffffff021916908373ffffffffffffffffffffffffffffffffffffffff1602179055506000820160149054906101000a900460ff168160000160146101000a81548160ff0219169083151502179055506001820154816001015560028201816002019080546128c7929190613640565b509050505050505050505050565b6128de81610c08565b90506000600360008364ffffffffff1664ffffffffff168152602001908152602001600020805480602002602001604051908101604052809291908181526020016000905b82821015612a7457838290600052602060002090600402016040518060e0016040529081600082015481526020016001820160009054906101000a900473ffffffffffffffffffffffffffffffffffffffff1673ffffffffffffffffffffffffffffffffffffffff1673ffffffffffffffffffffffffffffffffffffffff1681526020016002820160009054906101000a900473ffffffffffffffffffffffffffffffffffffffff1673ffffffffffffffffffffffffffffffffffffffff1673ffffffffffffffffffffffffffffffffffffffff1681526020016002820160149054906101000a900464ffffffffff1664ffffffffff1664ffffffffff1681526020016002820160199054906101000a900460ff1615151515815260200160028201601a9054906101000a900460ff1615151515815260200160038201548152505081526020019060010190612923565b5050505090506000600360008464ffffffffff1664ffffffffff1681526020019081526020016000209050612aa76133fb565b60005b8351811015612c4e5785848281518110612ac757612ac66140c7565b5b60200260200101516000015103612c3b57838181518110612aeb57612aea6140c7565b5b6020026020010151915060018260a001901515908115158152505081838281548110612b1a57612b196140c7565b5b90600052602060002090600402016000820151816000015560208201518160010160006101000a81548173ffffffffffffffffffffffffffffffffffffffff021916908373ffffffffffffffffffffffffffffffffffffffff16021790555060408201518160020160006101000a81548173ffffffffffffffffffffffffffffffffffffffff021916908373ffffffffffffffffffffffffffffffffffffffff16021790555060608201518160020160146101000a81548164ffffffffff021916908364ffffffffff16021790555060808201518160020160196101000a81548160ff02191690831515021790555060a082015181600201601a6101000a81548160ff02191690831515021790555060c08201518160030155905050612c4e565b8080612c4690614125565b915050612aaa565b508060c00151612c5c6133f3565b11612c6657600080fd5b806020015173ffffffffffffffffffffffffffffffffffffffff166108fc8260c001519081150290604051600060405180830381858888f19350505050612cac57600080fd5b81600360008664ffffffffff1664ffffffffff168152602001908152602001600020908054612cdc929190613472565b505050505050565b612cec6133fb565b6000858442604051602001612d0393929190614881565b6040516020818303038152906040528051906020012090506040518060e001604052808281526020018773ffffffffffffffffffffffffffffffffffffffff1681526020018673ffffffffffffffffffffffffffffffffffffffff1681526020018564ffffffffff16815260200160001515815260200160001515815260200184815250915050949350505050565b6000610e1082612da291906148be565b600460159054906101000a900464ffffffffff16612dc091906148fb565b9050919050565b600460149054906101000a900460ff166133f0576000806000836020015173ffffffffffffffffffffffffffffffffffffffff1673ffffffffffffffffffffffffffffffffffffffff1681526020019081526020016000206040518060800160405290816000820160009054906101000a900473ffffffffffffffffffffffffffffffffffffffff1673ffffffffffffffffffffffffffffffffffffffff1673ffffffffffffffffffffffffffffffffffffffff1681526020016000820160149054906101000a900460ff161515151581526020016001820154815260200160028201805480602002602001604051908101604052809291908181526020018280548015612f2257602002820191906000526020600020906000905b82829054906101000a900464ffffffffff1664ffffffffff1681526020019060050190602082600401049283019260010382029150808411612ee35790505b50505050508152505090508160c00151612f3a6133f3565b118015612f4e57508160c001518160400151115b612f5757600080fd5b600060036000846060015164ffffffffff1664ffffffffff168152602001908152602001600020805480602002602001604051908101604052809291908181526020016000905b828210156130ef57838290600052602060002090600402016040518060e0016040529081600082015481526020016001820160009054906101000a900473ffffffffffffffffffffffffffffffffffffffff1673ffffffffffffffffffffffffffffffffffffffff1673ffffffffffffffffffffffffffffffffffffffff1681526020016002820160009054906101000a900473ffffffffffffffffffffffffffffffffffffffff1673ffffffffffffffffffffffffffffffffffffffff1673ffffffffffffffffffffffffffffffffffffffff1681526020016002820160149054906101000a900464ffffffffff1664ffffffffff1664ffffffffff1681526020016002820160199054906101000a900460ff1615151515815260200160028201601a9054906101000a900460ff1615151515815260200160038201548152505081526020019060010190612f9e565b505050509050600060036000856060015164ffffffffff1664ffffffffff168152602001908152602001600020905060005b82518110156132c9578460000151838281518110613142576131416140c7565b5b602002602001015160000151036132b657828181518110613166576131656140c7565b5b60200260200101519450600185608001901515908115158152505084828281548110613195576131946140c7565b5b90600052602060002090600402016000820151816000015560208201518160010160006101000a81548173ffffffffffffffffffffffffffffffffffffffff021916908373ffffffffffffffffffffffffffffffffffffffff16021790555060408201518160020160006101000a81548173ffffffffffffffffffffffffffffffffffffffff021916908373ffffffffffffffffffffffffffffffffffffffff16021790555060608201518160020160146101000a81548164ffffffffff021916908364ffffffffff16021790555060808201518160020160196101000a81548160ff02191690831515021790555060a082015181600201601a6101000a81548160ff02191690831515021790555060c082015181600301559050506132c9565b80806132c190614125565b915050613121565b508060036000866060015164ffffffffff1664ffffffffff1681526020019081526020016000209080546132fe929190613472565b506000846040015173ffffffffffffffffffffffffffffffffffffffff168560c0015160405161332d90614965565b60006040518083038185875af1925050503d806000811461336a576040519150601f19603f3d011682016040523d82523d6000602084013e61336f565b606091505b50509050806133b3576040517f08c379a00000000000000000000000000000000000000000000000000000000081526004016133aa906149c6565b60405180910390fd5b7fa2ea5b0db1d57b0e32df654aa9a1a97bc8066881e37669ff488d2bebe87c9f8760016040516133e391906149f5565b60405180910390a1505050505b50565b600047905090565b6040518060e0016040528060008019168152602001600073ffffffffffffffffffffffffffffffffffffffff168152602001600073ffffffffffffffffffffffffffffffffffffffff168152602001600064ffffffffff168152602001600015158152602001600015158152602001600081525090565b82805482825590600052602060002090600402810192821561362f5760005260206000209160040282015b8281111561362e578282600082015481600001556001820160009054906101000a900473ffffffffffffffffffffffffffffffffffffffff168160010160006101000a81548173ffffffffffffffffffffffffffffffffffffffff021916908373ffffffffffffffffffffffffffffffffffffffff1602179055506002820160009054906101000a900473ffffffffffffffffffffffffffffffffffffffff168160020160006101000a81548173ffffffffffffffffffffffffffffffffffffffff021916908373ffffffffffffffffffffffffffffffffffffffff1602179055506002820160149054906101000a900464ffffffffff168160020160146101000a81548164ffffffffff021916908364ffffffffff1602179055506002820160199054906101000a900460ff168160020160196101000a81548160ff02191690831515021790555060028201601a9054906101000a900460ff1681600201601a6101000a81548160ff0219169083151502179055506003820154816003015550509160040191906004019061349d565b5b50905061363c91906136e0565b5090565b8280548282559060005260206000209060050160069004810192821561368f576000526020600020916005016006900482015b8281111561368e578254825591600101919060010190613673565b5b50905061369c9190613795565b5090565b6040518060800160405280600073ffffffffffffffffffffffffffffffffffffffff16815260200160001515815260200160008152602001606081525090565b5b80821115613791576000808201600090556001820160006101000a81549073ffffffffffffffffffffffffffffffffffffffff02191690556002820160006101000a81549073ffffffffffffffffffffffffffffffffffffffff02191690556002820160146101000a81549064ffffffffff02191690556002820160196101000a81549060ff021916905560028201601a6101000a81549060ff02191690556003820160009055506004016136e1565b5090565b5b808211156137ae576000816000905550600101613796565b5090565b600073ffffffffffffffffffffffffffffffffffffffff82169050919050565b60006137dd826137b2565b9050919050565b6137ed816137d2565b82525050565b6000819050919050565b613806816137f3565b82525050565b600060408201905061382160008301856137e4565b61382e60208301846137fd565b9392505050565b600082825260208201905092915050565b7f556e6b6e6f776e2066756e6374696f6e00000000000000000000000000000000600082015250565b600061387c601083613835565b915061388782613846565b602082019050919050565b600060208201905081810360008301526138ab8161386f565b9050919050565b600081519050919050565b600082825260208201905092915050565b6000819050602082019050919050565b6000819050919050565b6138f1816138de565b82525050565b613900816137d2565b82525050565b6000613911826137b2565b9050919050565b61392181613906565b82525050565b600064ffffffffff82169050919050565b61394181613927565b82525050565b60008115159050919050565b61395c81613947565b82525050565b61396b816137f3565b82525050565b60e08201600082015161398760008501826138e8565b50602082015161399a60208501826138f7565b5060408201516139ad6040850182613918565b5060608201516139c06060850182613938565b5060808201516139d36080850182613953565b5060a08201516139e660a0850182613953565b5060c08201516139f960c0850182613962565b50505050565b6000613a0b8383613971565b60e08301905092915050565b6000602082019050919050565b6000613a2f826138b2565b613a3981856138bd565b9350613a44836138ce565b8060005b83811015613a75578151613a5c88826139ff565b9750613a6783613a17565b925050600181019050613a48565b5085935050505092915050565b60006020820190508181036000830152613a9c8184613a24565b905092915050565b6000604051905090565b600080fd5b600080fd5b613ac181613906565b8114613acc57600080fd5b50565b600081359050613ade81613ab8565b92915050565b613aed81613927565b8114613af857600080fd5b50565b600081359050613b0a81613ae4565b92915050565b613b19816137f3565b8114613b2457600080fd5b50565b600081359050613b3681613b10565b92915050565b600080600060608486031215613b5557613b54613aae565b5b6000613b6386828701613acf565b9350506020613b7486828701613afb565b9250506040613b8586828701613b27565b9150509250925092565b6000602082019050613ba460008301846137fd565b92915050565b600060208284031215613bc057613bbf613aae565b5b6000613bce84828501613afb565b91505092915050565b613be081613927565b82525050565b6000602082019050613bfb6000830184613bd7565b92915050565b613c0a816137d2565b8114613c1557600080fd5b50565b600081359050613c2781613c01565b92915050565b600060208284031215613c4357613c42613aae565b5b6000613c5184828501613c18565b91505092915050565b600081519050919050565b600082825260208201905092915050565b6000819050602082019050919050565b600081519050919050565b600082825260208201905092915050565b6000819050602082019050919050565b6000613cbe8383613938565b60208301905092915050565b6000602082019050919050565b6000613ce282613c86565b613cec8185613c91565b9350613cf783613ca2565b8060005b83811015613d28578151613d0f8882613cb2565b9750613d1a83613cca565b925050600181019050613cfb565b5085935050505092915050565b6000608083016000830151613d4d60008601826138f7565b506020830151613d606020860182613953565b506040830151613d736040860182613962565b5060608301518482036060860152613d8b8282613cd7565b9150508091505092915050565b6000613da48383613d35565b905092915050565b6000602082019050919050565b6000613dc482613c5a565b613dce8185613c65565b935083602082028501613de085613c76565b8060005b85811015613e1c5784840389528151613dfd8582613d98565b9450613e0883613dac565b925060208a01995050600181019050613de4565b50829750879550505050505092915050565b60006020820190508181036000830152613e488184613db9565b905092915050565b600080fd5b6000601f19601f8301169050919050565b7f4e487b7100000000000000000000000000000000000000000000000000000000600052604160045260246000fd5b613e9e82613e55565b810181811067ffffffffffffffff82111715613ebd57613ebc613e66565b5b80604052505050565b6000613ed0613aa4565b9050613edc8282613e95565b919050565b600067ffffffffffffffff821115613efc57613efb613e66565b5b602082029050602081019050919050565b600080fd5b600080fd5b600060608284031215613f2d57613f2c613f12565b5b613f376060613ec6565b90506000613f4784828501613acf565b6000830152506020613f5b84828501613afb565b6020830152506040613f6f84828501613b27565b60408301525092915050565b6000613f8e613f8984613ee1565b613ec6565b90508083825260208201905060608402830185811115613fb157613fb0613f0d565b5b835b81811015613fda5780613fc68882613f17565b845260208401935050606081019050613fb3565b5050509392505050565b600082601f830112613ff957613ff8613e50565b5b8135614009848260208601613f7b565b91505092915050565b60006020828403121561402857614027613aae565b5b600082013567ffffffffffffffff81111561404657614045613ab3565b5b61405284828501613fe4565b91505092915050565b614064816138de565b811461406f57600080fd5b50565b6000813590506140818161405b565b92915050565b6000806040838503121561409e5761409d613aae565b5b60006140ac85828601614072565b92505060206140bd85828601613afb565b9150509250929050565b7f4e487b7100000000000000000000000000000000000000000000000000000000600052603260045260246000fd5b7f4e487b7100000000000000000000000000000000000000000000000000000000600052601160045260246000fd5b6000614130826137f3565b91507fffffffffffffffffffffffffffffffffffffffffffffffffffffffffffffffff8203614162576141616140f6565b5b600182019050919050565b7f54696d652064617461206d75737420626520696e207468652066757475726500600082015250565b60006141a3601f83613835565b91506141ae8261416d565b602082019050919050565b600060208201905081810360008301526141d281614196565b9050919050565b7f4e487b7100000000000000000000000000000000000000000000000000000000600052601260045260246000fd5b600061421382613927565b915061421e83613927565b92508261422e5761422d6141d9565b5b828206905092915050565b7f54696d65206d757374206265206f6e2074686520686f75720000000000000000600082015250565b600061426f601883613835565b915061427a82614239565b602082019050919050565b6000602082019050818103600083015261429e81614262565b9050919050565b60006142b0826137f3565b91506142bb836137f3565b92508282026142c9816137f3565b915082820484148315176142e0576142df6140f6565b5b5092915050565b7f4e6f7420656e6f756768204554482073656e742077697468207472616e73616360008201527f74696f6e00000000000000000000000000000000000000000000000000000000602082015250565b6000614343602483613835565b915061434e826142e7565b604082019050919050565b6000602082019050818103600083015261437281614336565b9050919050565b6000819050919050565b600061439e614399614394846137b2565b614379565b6137b2565b9050919050565b60006143b082614383565b9050919050565b60006143c2826143a5565b9050919050565b6143d2816143b7565b82525050565b60006080820190506143ed60008301876137e4565b6143fa60208301866143c9565b6144076040830185613bd7565b61441460608301846137fd565b95945050505050565b7f5075736865640000000000000000000000000000000000000000000000000000600082015250565b6000614453600683613835565b915061445e8261441d565b602082019050919050565b6000602082019050818103600083015261448281614446565b9050919050565b6000614494826137f3565b915061449f836137f3565b92508282019050808211156144b7576144b66140f6565b5b92915050565b60006144c882613927565b91506144d383613927565b9250828203905064ffffffffff8111156144f0576144ef6140f6565b5b92915050565b600061450182613927565b915061450c83613927565b92508261451c5761451b6141d9565b5b828204905092915050565b7f54696d6520616c726561647920636865636b656420666f72207468697320746960008201527f6d6520736c6f7400000000000000000000000000000000000000000000000000602082015250565b6000614583602783613835565b915061458e82614527565b604082019050919050565b600060208201905081810360008301526145b281614576565b9050919050565b7f646f6e6500000000000000000000000000000000000000000000000000000000600082015250565b60006145ef600483613835565b91506145fa826145b9565b602082019050919050565b6000602082019050818103600083015261461e816145e2565b9050919050565b6000614630826137f3565b915061463b836137f3565b9250828203905081811115614653576146526140f6565b5b92915050565b600061466482613927565b915064ffffffffff820361467b5761467a6140f6565b5b600182019050919050565b7f4261746368206d7573742068617665206d6f7265207468616e206f6e6520747260008201527f616e73616374696f6e0000000000000000000000000000000000000000000000602082015250565b60006146e2602983613835565b91506146ed82614686565b604082019050919050565b60006020820190508181036000830152614711816146d5565b9050919050565b7f416c6c206261746368207472616e73616374696f6e73206d757374206265207360008201527f63686564756c656420666f72207468652073616d652074696d65000000000000602082015250565b6000614774603a83613835565b915061477f82614718565b604082019050919050565b600060208201905081810360008301526147a381614767565b9050919050565b600061ffff82169050919050565b60006147c3826147aa565b915061ffff82036147d7576147d66140f6565b5b600182019050919050565b60008160601b9050919050565b60006147fa826147e2565b9050919050565b600061480c826147ef565b9050919050565b61482461481f826137d2565b614801565b82525050565b60008160d81b9050919050565b60006148428261482a565b9050919050565b61485a61485582613927565b614837565b82525050565b6000819050919050565b61487b614876826137f3565b614860565b82525050565b600061488d8286614813565b60148201915061489d8285614849565b6005820191506148ad828461486a565b602082019150819050949350505050565b60006148c982613927565b91506148d483613927565b92508282026148e281613927565b91508082146148f4576148f36140f6565b5b5092915050565b600061490682613927565b915061491183613927565b9250828201905064ffffffffff81111561492e5761492d6140f6565b5b92915050565b600081905092915050565b50565b600061494f600083614934565b915061495a8261493f565b600082019050919050565b600061497082614942565b9150819050919050565b7f5472616e73666572206661696c65642e00000000000000000000000000000000600082015250565b60006149b0601083613835565b91506149bb8261497a565b602082019050919050565b600060208201905081810360008301526149df816149a3565b9050919050565b6149ef81613947565b82525050565b6000602082019050614a0a60008301846149e6565b9291505056fea26469706673582212201813c0925c6a94022ad5d594e0c87ecb7205d42a6ece32e3b610ce8c8c0f63e464736f6c63430008110033",
  "linkReferences": {},
  "deployedLinkReferences": {}
}