{
  "_format": "hh-sol-artifact-1",
  "contractName": "Clocktower",
  "sourceName": "contracts/Clocktower.sol",
  "abi": [
    {
      "inputs": [],
      "stateMutability": "payable",
      "type": "constructor"
    },
    {
      "anonymous": false,
      "inputs": [
        {
          "indexed": false,
          "internalType": "string",
          "name": "output4",
          "type": "string"
        }
      ],
      "name": "AccountCreated",
      "type": "event"
    },
    {
      "anonymous": false,
      "inputs": [
        {
          "indexed": false,
          "internalType": "string",
          "name": "output2",
          "type": "string"
        }
      ],
      "name": "CheckStatus",
      "type": "event"
    },
    {
      "anonymous": false,
      "inputs": [
        {
          "indexed": false,
          "internalType": "address",
          "name": "user",
          "type": "address"
        },
        {
          "indexed": false,
          "internalType": "uint256",
          "name": "amount",
          "type": "uint256"
        }
      ],
      "name": "ReceiveETH",
      "type": "event"
    },
    {
      "anonymous": false,
      "inputs": [
        {
          "indexed": false,
          "internalType": "string",
          "name": "output",
          "type": "string"
        }
      ],
      "name": "Status",
      "type": "event"
    },
    {
      "anonymous": false,
      "inputs": [
        {
          "indexed": false,
          "internalType": "address",
          "name": "sender",
          "type": "address"
        },
        {
          "indexed": false,
          "internalType": "address",
          "name": "receiver",
          "type": "address"
        },
        {
          "indexed": false,
          "internalType": "uint40",
          "name": "timeTrigger",
          "type": "uint40"
        },
        {
          "indexed": false,
          "internalType": "uint256",
          "name": "payload",
          "type": "uint256"
        }
      ],
      "name": "TransactionAdd",
      "type": "event"
    },
    {
      "anonymous": false,
      "inputs": [
        {
          "indexed": false,
          "internalType": "bool",
          "name": "sent",
          "type": "bool"
        }
      ],
      "name": "TransactionSent",
      "type": "event"
    },
    {
      "anonymous": false,
      "inputs": [
        {
          "indexed": false,
          "internalType": "string",
          "name": "output3",
          "type": "string"
        }
      ],
      "name": "UnknownFunction",
      "type": "event"
    },
    {
      "stateMutability": "payable",
      "type": "fallback"
    },
    {
      "inputs": [
        {
          "components": [
            {
              "internalType": "address payable",
              "name": "receiver",
              "type": "address"
            },
            {
              "internalType": "uint40",
              "name": "unixTime",
              "type": "uint40"
            },
            {
              "internalType": "uint256",
              "name": "payload",
              "type": "uint256"
            },
            {
              "internalType": "address",
              "name": "token",
              "type": "address"
            }
          ],
          "internalType": "struct Clocktower.Batch[]",
          "name": "batch",
          "type": "tuple[]"
        }
      ],
      "name": "addBatchTransactions",
      "outputs": [],
      "stateMutability": "payable",
      "type": "function"
    },
    {
      "inputs": [
        {
          "internalType": "address",
          "name": "erc20Contract",
          "type": "address"
        }
      ],
      "name": "addERC20Contract",
      "outputs": [],
      "stateMutability": "nonpayable",
      "type": "function"
    },
    {
      "inputs": [
        {
          "internalType": "address payable",
          "name": "receiver",
          "type": "address"
        },
        {
          "internalType": "uint40",
          "name": "unixTime",
          "type": "uint40"
        },
        {
          "internalType": "uint256",
          "name": "payload",
          "type": "uint256"
        },
        {
          "internalType": "address",
          "name": "token",
          "type": "address"
        },
        {
          "components": [
            {
              "internalType": "address",
              "name": "owner",
              "type": "address"
            },
            {
              "internalType": "address",
              "name": "spender",
              "type": "address"
            },
            {
              "internalType": "uint256",
              "name": "value",
              "type": "uint256"
            },
            {
              "internalType": "uint256",
              "name": "deadline",
              "type": "uint256"
            },
            {
              "internalType": "uint8",
              "name": "v",
              "type": "uint8"
            },
            {
              "internalType": "bytes32",
              "name": "r",
              "type": "bytes32"
            },
            {
              "internalType": "bytes32",
              "name": "s",
              "type": "bytes32"
            }
          ],
          "internalType": "struct Clocktower.Permit",
          "name": "permit",
          "type": "tuple"
        }
      ],
      "name": "addTransaction",
      "outputs": [],
      "stateMutability": "payable",
      "type": "function"
    },
    {
      "inputs": [],
      "name": "allAccounts",
      "outputs": [
        {
          "components": [
            {
              "internalType": "address",
              "name": "accountAddress",
              "type": "address"
            },
            {
              "internalType": "bool",
              "name": "exists",
              "type": "bool"
            },
            {
              "internalType": "uint40[]",
              "name": "timeTriggers",
              "type": "uint40[]"
            },
            {
              "internalType": "address[]",
              "name": "tokens",
              "type": "address[]"
            }
          ],
          "internalType": "struct Clocktower.Account[]",
          "name": "",
          "type": "tuple[]"
        }
      ],
      "stateMutability": "view",
      "type": "function"
    },
    {
      "inputs": [],
      "name": "allTransactions",
      "outputs": [
        {
          "components": [
            {
              "internalType": "bytes32",
              "name": "id",
              "type": "bytes32"
            },
            {
              "internalType": "address",
              "name": "sender",
              "type": "address"
            },
            {
              "internalType": "address payable",
              "name": "receiver",
              "type": "address"
            },
            {
              "internalType": "address",
              "name": "token",
              "type": "address"
            },
            {
              "internalType": "uint40",
              "name": "timeTrigger",
              "type": "uint40"
            },
            {
              "internalType": "bool",
              "name": "sent",
              "type": "bool"
            },
            {
              "internalType": "bool",
              "name": "cancelled",
              "type": "bool"
            },
            {
              "internalType": "uint256",
              "name": "payload",
              "type": "uint256"
            }
          ],
          "internalType": "struct Clocktower.Transaction[]",
          "name": "",
          "type": "tuple[]"
        }
      ],
      "stateMutability": "view",
      "type": "function"
    },
    {
      "inputs": [
        {
          "internalType": "bytes32",
          "name": "id",
          "type": "bytes32"
        },
        {
          "internalType": "uint40",
          "name": "timeTrigger",
          "type": "uint40"
        }
      ],
      "name": "cancelTransaction",
      "outputs": [],
      "stateMutability": "payable",
      "type": "function"
    },
    {
      "inputs": [
        {
          "internalType": "address",
          "name": "newAddress",
          "type": "address"
        }
      ],
      "name": "changeAdmin",
      "outputs": [],
      "stateMutability": "nonpayable",
      "type": "function"
    },
    {
      "inputs": [
        {
          "internalType": "uint256",
          "name": "_fee",
          "type": "uint256"
        }
      ],
      "name": "changeFee",
      "outputs": [],
      "stateMutability": "nonpayable",
      "type": "function"
    },
    {
      "inputs": [],
      "name": "checkTime",
      "outputs": [
        {
          "internalType": "bool",
          "name": "",
          "type": "bool"
        }
      ],
      "stateMutability": "view",
      "type": "function"
    },
    {
      "inputs": [],
      "name": "getAccountTransactions",
      "outputs": [
        {
          "components": [
            {
              "internalType": "bytes32",
              "name": "id",
              "type": "bytes32"
            },
            {
              "internalType": "address",
              "name": "sender",
              "type": "address"
            },
            {
              "internalType": "address payable",
              "name": "receiver",
              "type": "address"
            },
            {
              "internalType": "address",
              "name": "token",
              "type": "address"
            },
            {
              "internalType": "uint40",
              "name": "timeTrigger",
              "type": "uint40"
            },
            {
              "internalType": "bool",
              "name": "sent",
              "type": "bool"
            },
            {
              "internalType": "bool",
              "name": "cancelled",
              "type": "bool"
            },
            {
              "internalType": "uint256",
              "name": "payload",
              "type": "uint256"
            }
          ],
          "internalType": "struct Clocktower.Transaction[]",
          "name": "",
          "type": "tuple[]"
        }
      ],
      "stateMutability": "view",
      "type": "function"
    },
    {
      "inputs": [],
      "name": "getFee",
      "outputs": [
        {
          "internalType": "uint256",
          "name": "",
          "type": "uint256"
        }
      ],
      "stateMutability": "view",
      "type": "function"
    },
    {
      "inputs": [],
      "name": "getTime",
      "outputs": [
        {
          "internalType": "uint256",
          "name": "",
          "type": "uint256"
        }
      ],
      "stateMutability": "view",
      "type": "function"
    },
    {
      "inputs": [
        {
          "internalType": "address",
          "name": "account",
          "type": "address"
        }
      ],
      "name": "getTransactionsByAccount",
      "outputs": [
        {
          "components": [
            {
              "internalType": "bytes32",
              "name": "id",
              "type": "bytes32"
            },
            {
              "internalType": "address",
              "name": "sender",
              "type": "address"
            },
            {
              "internalType": "address payable",
              "name": "receiver",
              "type": "address"
            },
            {
              "internalType": "address",
              "name": "token",
              "type": "address"
            },
            {
              "internalType": "uint40",
              "name": "timeTrigger",
              "type": "uint40"
            },
            {
              "internalType": "bool",
              "name": "sent",
              "type": "bool"
            },
            {
              "internalType": "bool",
              "name": "cancelled",
              "type": "bool"
            },
            {
              "internalType": "uint256",
              "name": "payload",
              "type": "uint256"
            }
          ],
          "internalType": "struct Clocktower.Transaction[]",
          "name": "",
          "type": "tuple[]"
        }
      ],
      "stateMutability": "view",
      "type": "function"
    },
    {
      "inputs": [
        {
          "internalType": "address",
          "name": "erc20Contract",
          "type": "address"
        }
      ],
      "name": "removeERC20Contract",
      "outputs": [],
      "stateMutability": "nonpayable",
      "type": "function"
    },
    {
      "inputs": [],
      "name": "sendTime",
      "outputs": [],
      "stateMutability": "nonpayable",
      "type": "function"
    },
    {
      "inputs": [],
      "name": "toggleContractActive",
      "outputs": [],
      "stateMutability": "nonpayable",
      "type": "function"
    },
    {
      "stateMutability": "payable",
      "type": "receive"
    }
  ],
  "bytecode": "0x6080604052600580546001600160a01b03191673f39fd6e51aad88f6f4ce6ab8827279cfffb922661790556007805460ff1916905560646008556001620000464262000074565b6200005291906200009b565b6009805464ffffffffff191664ffffffffff9290921691909117905562000103565b6000610e10620000896363236820846200009b565b620000959190620000d0565b92915050565b600064ffffffffff83811690831681811015620000c857634e487b7160e01b600052601160045260246000fd5b039392505050565b600064ffffffffff80841680620000f757634e487b7160e01b600052601260045260246000fd5b92169190910492915050565b61429580620001136000396000f3fe6080604052600436106100f75760003560e01c8063c682cce41161008a578063d10fa14411610059578063d10fa144146102dc578063dc9961eb146102ef578063e0c6190d1461030f578063e9e1dbef1461033457610137565b8063c682cce41461027d578063ced72f8714610292578063cf0b5e45146102a7578063cf783d8a146102ba57610137565b80636a1db1bf116100c65780636a1db1bf146102085780638f28397014610228578063aa58a5b014610248578063ab7e09091461025d57610137565b8063053149fa146101895780631385d24c146101ab5780631ccb3371146101c0578063557ed1ba146101eb57610137565b3661013757604080513381523460208201527f830d2d700a97af574b186c80d40429385d24241565b08a7c559ba283a964d9b191015b60405180910390a1005b7f19525a32afaad9a5491805c356597487a306fc2f4e8541d8d55e1fe951091e6060405161012d9060208082526010908201526f2ab735b737bbb710333ab731ba34b7b760811b604082015260600190565b34801561019557600080fd5b506101a96101a4366004613ae4565b610347565b005b3480156101b757600080fd5b506101a9610571565b3480156101cc57600080fd5b506101d56105af565b6040516101e29190613b08565b60405180910390f35b3480156101f757600080fd5b50425b6040519081526020016101e2565b34801561021457600080fd5b506101a9610223366004613bb0565b6106f9565b34801561023457600080fd5b506101a9610243366004613ae4565b610728565b34801561025457600080fd5b506101a961079d565b34801561026957600080fd5b506101a9610278366004613ae4565b6109a1565b34801561028957600080fd5b506101d5610a86565b34801561029e57600080fd5b506008546101fa565b6101a96102b5366004613bde565b610f36565b3480156102c657600080fd5b506102cf611455565b6040516101e29190613c91565b6101a96102ea366004613dd9565b61167c565b3480156102fb57600080fd5b506101d561030a366004613ae4565b6122ad565b34801561031b57600080fd5b50610324612786565b60405190151581526020016101e2565b6101a9610342366004613ed4565b61291d565b6005546001600160a01b0316331461037a5760405162461bcd60e51b815260040161037190613f00565b60405180910390fd5b6001600160a01b03811661038d57600080fd5b61039681612db3565b6103e25760405162461bcd60e51b815260206004820152601960248201527f455243323020746f6b656e206e6f7420616464656420796574000000000000006044820152606401610371565b6000600680548060200260200160405190810160405280929190818152602001828054801561043a57602002820191906000526020600020905b81546001600160a01b0316815260019091019060200180831161041c575b505050505090506000805b825181101561049b57836001600160a01b031683828151811061046a5761046a613f37565b60200260200101516001600160a01b031614156104895780915061049b565b8061049381613f63565b915050610445565b50805b6006546104ad90600190613f7e565b8110156105385760066104c1826001613f95565b815481106104d1576104d1613f37565b600091825260209091200154600680546001600160a01b0390921691839081106104fd576104fd613f37565b600091825260209091200180546001600160a01b0319166001600160a01b03929092169190911790558061053081613f63565b91505061049e565b50600680548061054a5761054a613fad565b600082815260209020810160001990810180546001600160a01b0319169055019055505050565b6005546001600160a01b0316331461059b5760405162461bcd60e51b815260040161037190613f00565b6007805460ff19811660ff90911615179055565b6005546060906001600160a01b031633146105dc5760405162461bcd60e51b815260040161037190613f00565b60035460009067ffffffffffffffff8111156105fa576105fa613d69565b60405190808252806020026020018201604052801561063357816020015b61062061386b565b8152602001906001900390816106185790505b5090506000805b6001548110156106f15760006106766001838154811061065c5761065c613f37565b6000918252602090912001546001600160a01b03166122ad565b905060005b81518110156106dc5781818151811061069657610696613f37565b60200260200101518585815181106106b0576106b0613f37565b602002602001018190525083806106c690613f63565b94505080806106d490613f63565b91505061067b565b505080806106e990613f63565b91505061063a565b509091505090565b6005546001600160a01b031633146107235760405162461bcd60e51b815260040161037190613f00565b600855565b6005546001600160a01b031633146107525760405162461bcd60e51b815260040161037190613f00565b336001600160a01b03821614801561077257506001600160a01b03811615155b61077b57600080fd5b600580546001600160a01b0319166001600160a01b0392909216919091179055565b6005546001600160a01b031633146107c75760405162461bcd60e51b815260040161037190613f00565b60006107d242612e74565b60095490915064ffffffffff908116908216116108015760405162461bcd60e51b815260040161037190613fc3565b60095464ffffffffff165b8164ffffffffff168164ffffffffff16116109825764ffffffffff8116600090815260026020908152604080832080548251818502810185019093528083529192909190849084015b828210156108fb576000848152602090819020604080516101008101825260058602909201805483526001808201546001600160a01b039081168587015260028301548116938501939093526003820154928316606085015264ffffffffff600160a01b840416608085015260ff600160c81b84048116151560a0860152600160d01b909304909216151560c08401526004015460e08301529083529092019101610855565b50505050905060008151111561096f5760005b815181101561096d5781818151811061092957610929613f37565b602002602001015160c0015161095b5761095b82828151811061094e5761094e613f37565b6020026020010151612e97565b8061096581613f63565b91505061090e565b505b508061097a8161400a565b91505061080c565b506009805464ffffffffff191664ffffffffff92909216919091179055565b6005546001600160a01b031633146109cb5760405162461bcd60e51b815260040161037190613f00565b6001600160a01b0381166109de57600080fd5b6109e781612db3565b15610a345760405162461bcd60e51b815260206004820152601960248201527f455243323020746f6b656e20616c7265616479206164646564000000000000006044820152606401610371565b600680546001810182556000919091527ff652222313e28459528d920b65115c16c04f3efc82aaedc97be59f3f377c0d3f0180546001600160a01b0319166001600160a01b0392909216919091179055565b33600090815260208181526040808320600101805482518185028101850190935280835260609493830182828015610b0b57602002820191906000526020600020906000905b82829054906101000a900464ffffffffff1664ffffffffff1681526020019060050190602082600401049283019260010382029150808411610acc5790505b505050505090506000805b8251811015610c4a57600060026000858481518110610b3757610b37613f37565b602002602001015164ffffffffff1664ffffffffff168152602001908152602001600020805480602002602001604051908101604052809291908181526020016000905b82821015610c21576000848152602090819020604080516101008101825260058602909201805483526001808201546001600160a01b039081168587015260028301548116938501939093526003820154928316606085015264ffffffffff600160a01b840416608085015260ff600160c81b84048116151560a0860152600160d01b909304909216151560c08401526004015460e08301529083529092019101610b7b565b505050509050805183610c349190613f95565b9250508080610c4290613f63565b915050610b16565b5060008167ffffffffffffffff811115610c6657610c66613d69565b604051908082528060200260200182016040528015610c9f57816020015b610c8c61386b565b815260200190600190039081610c845790505b50905060008267ffffffffffffffff811115610cbd57610cbd613d69565b604051908082528060200260200182016040528015610cf657816020015b610ce361386b565b815260200190600190039081610cdb5790505b5090506000805b8551811015610eba5760026000878381518110610d1c57610d1c613f37565b602002602001015164ffffffffff1664ffffffffff168152602001908152602001600020805480602002602001604051908101604052809291908181526020016000905b82821015610e06576000848152602090819020604080516101008101825260058602909201805483526001808201546001600160a01b039081168587015260028301548116938501939093526003820154928316606085015264ffffffffff600160a01b840416608085015260ff600160c81b84048116151560a0860152600160d01b909304909216151560c08401526004015460e08301529083529092019101610d60565b50505050935060005b8451811015610ea757336001600160a01b0316858281518110610e3457610e34613f37565b6020026020010151602001516001600160a01b03161415610e9557848181518110610e6157610e61613f37565b6020026020010151848481518110610e7b57610e7b613f37565b60200260200101819052508280610e9190613f63565b9350505b80610e9f81613f63565b915050610e0f565b5080610eb281613f63565b915050610cfd565b5060005b8251811015610f2b57610eed838281518110610edc57610edc613f37565b6020026020010151608001516133fd565b838281518110610eff57610eff613f37565b602090810291909101015164ffffffffff90911660809091015280610f2381613f63565b915050610ebe565b509095945050505050565b60075460ff1661144e57428464ffffffffff1611610f965760405162461bcd60e51b815260206004820152601f60248201527f54696d652064617461206d75737420626520696e2074686520667574757265006044820152606401610371565b610fa2610e1085614045565b64ffffffffff1615610ff15760405162461bcd60e51b81526020600482015260186024820152772a34b6b29036bab9ba1031329037b7103a3432903437bab960411b6044820152606401610371565b6001600160a01b03821661103d57346064600854856110109190614069565b61101a9190614088565b11156110385760405162461bcd60e51b81526004016103719061409c565b611062565b61104682612db3565b6110625760405162461bcd60e51b8152600401610371906140e0565b600061106d85612e74565b64ffffffffff81166000908152600260205260408120919250611093338987868a613419565b825460018082018555600085815260209081902084516005909402019283558381015191830180546001600160a01b03199081166001600160a01b0394851617909155604080860151600286018054909316908516179091556060808601516003860180546080808a015160a08b015160c08c0151958a166001600160c81b031990941693909317600160a01b64ffffffffff928316021761ffff60c81b1916600160c81b9315159390930260ff60d01b191692909217600160d01b941515949094029390931790915560e08801516004909701969096558251338152948f1693850193909352938816908301529181018990529192507f6e643cb89831cd75ded50b4ecee0e313701b6002fc48e8b80a3c05447ab066e8910160405180910390a17f2844c95bf1b4598da931d527f903501abc60fe0199c65da52d5ce818c6c5e9616040516111fd90602080825260069082015265141d5cda195960d21b604082015260600190565b60405180910390a1805160038054600181019091557fc2575a0e9e593c00f959f8c92f12db2869c3395a3b0502d05e2516446f71f85b015564ffffffffff831660009081526002602052604090208254611259919084906138af565b5061126483866134c9565b3360009081526004602090815260408083206001600160a01b038916845290915281208054889290611297908490613f95565b90915550506001600160a01b0385161561144a576001600160a01b03851663d505accf6112c76020870187613ae4565b6112d76040880160208901613ae4565b604088013560608901356112f160a08b0160808c01614125565b6040516001600160e01b031960e088901b1681526001600160a01b0395861660048201529490931660248501526044840191909152606483015260ff16608482015260a087013560a482015260c087013560c482015260e401600060405180830381600087803b15801561136457600080fd5b505af1158015611378573d6000803e3d6000fd5b50506040516323b872dd60e01b81526001600160a01b03881692506323b872dd91506113ac90339030908b90600401614148565b602060405180830381600087803b1580156113c657600080fd5b505af11580156113da573d6000803e3d6000fd5b505050506040513d601f19601f820116820180604052508101906113fe919061416c565b61144a5760405162461bcd60e51b815260206004820152601a60248201527f50726f626c656d207472616e7366657272696e6720746f6b656e0000000000006044820152606401610371565b5050505b5050505050565b6005546060906001600160a01b031633146114825760405162461bcd60e51b815260040161037190613f00565b60015460009067ffffffffffffffff8111156114a0576114a0613d69565b6040519080825280602002602001820160405280156114f457816020015b60408051608081018252600080825260208201526060918101829052818101919091528152602001906001900390816114be5790505b50905060005b600154811015611676576000806001838154811061151a5761151a613f37565b6000918252602080832091909101546001600160a01b039081168452838201949094526040928301909120825160808101845281549485168152600160a01b90940460ff16151584830152600181018054845181850281018501865281815292948601938301828280156115db57602002820191906000526020600020906000905b82829054906101000a900464ffffffffff1664ffffffffff168152602001906005019060208260040104928301926001038202915080841161159c5790505b505050505081526020016002820180548060200260200160405190810160405280929190818152602001828054801561163d57602002820191906000526020600020905b81546001600160a01b0316815260019091019060200180831161161f575b50505050508152505082828151811061165857611658613f37565b6020026020010181905250808061166e90613f63565b9150506114fa565b50905090565b60075460ff166122aa5760018151118015611698575060648151105b61170a5760405162461bcd60e51b815260206004820152603b60248201527f4261746368206d7573742068617665206d6f7265207468616e206f6e6520747260448201527f616e73616374696f6e20616e64206c657373207468616e2031303000000000006064820152608401610371565b61172e60405180606001604052806000815260200160008152602001600081525090565b336000908152602081815260408083206001810180548351818602810186019094528084529194939091908301828280156117b657602002820191906000526020600020906000905b82829054906101000a900464ffffffffff1664ffffffffff16815260200190600501906020826004010492830192600103820291508084116117775790505b50505050509050600060068054905067ffffffffffffffff8111156117dd576117dd613d69565b604051908082528060200260200182016040528015611806578160200160208202803683370190505b50600184015490915060009061181d906064613f95565b67ffffffffffffffff81111561183557611835613d69565b60405190808252806020026020018201604052801561185e578160200160208202803683370190505b50905060005b8651811015611b36574287828151811061188057611880613f37565b60200260200101516020015164ffffffffff16116118e05760405162461bcd60e51b815260206004820152601f60248201527f54696d652064617461206d75737420626520696e2074686520667574757265006044820152606401610371565b610e108782815181106118f5576118f5613f37565b60200260200101516020015161190b9190614045565b64ffffffffff161561195a5760405162461bcd60e51b81526020600482015260186024820152772a34b6b29036bab9ba1031329037b7103a3432903437bab960411b6044820152606401610371565b600061198288838151811061197157611971613f37565b602002602001015160200151612e74565b905061198e81846137ad565b6119dc5780838860400151815181106119a9576119a9613f37565b602002602001019064ffffffffff16908164ffffffffff16815250506001876040018181516119d89190613f95565b9052505b60006001600160a01b03168883815181106119f9576119f9613f37565b6020026020010151606001516001600160a01b03161415611a4b57878281518110611a2657611a26613f37565b60200260200101516040015187600001818151611a439190613f95565b905250611b23565b611a71888381518110611a6057611a60613f37565b602002602001015160600151612db3565b611a8d5760405162461bcd60e51b8152600401610371906140e0565b611ab4888381518110611aa257611aa2613f37565b6020026020010151606001518561380f565b611b2357878281518110611aca57611aca613f37565b60200260200101516060015184886020015181518110611aec57611aec613f37565b60200260200101906001600160a01b031690816001600160a01b031681525050600187602001818151611b1f9190613f95565b9052505b5080611b2e81613f63565b915050611864565b3460646008548860000151611b4b9190614069565b611b559190614088565b1115611b735760405162461bcd60e51b81526004016103719061409c565b5060005b8151811015611ebb57818181518110611b9257611b92613f37565b602002602001015164ffffffffff1660001415611bae57611ebb565b600060026000848481518110611bc657611bc6613f37565b602002602001015164ffffffffff1664ffffffffff168152602001908152602001600020905060005b88518161ffff161015611dd2576000611c178a8361ffff168151811061197157611971613f37565b9050848481518110611c2b57611c2b613f37565b602002602001015164ffffffffff168164ffffffffff161415611dbf576000611cba338c8561ffff1681518110611c6457611c64613f37565b6020026020010151600001518d8661ffff1681518110611c8657611c86613f37565b602002602001015160600151858f8861ffff1681518110611ca957611ca9613f37565b602002602001015160400151613419565b8454600181810187556000878152602080822085516005909502018481559085015181840180546001600160a01b039283166001600160a01b03199182161790915560408701516002840180549184169190921617905560608601516003808401805460808a015160a08b015160c08c01511515600160d01b0260ff60d01b19911515600160c81b029190911661ffff60c81b1964ffffffffff909316600160a01b026001600160c81b031990941696909716959095179190911716939093179190911790915560e09095015160049091015583549182018455929092527fc2575a0e9e593c00f959f8c92f12db2869c3395a3b0502d05e2516446f71f85b90910155505b5080611dca8161418e565b915050611bef565b508060026000858581518110611dea57611dea613f37565b602002602001015164ffffffffff1664ffffffffff168152602001908152602001600020908054611e1c9291906138af565b50611e40838381518110611e3257611e32613f37565b6020026020010151866137ad565b611ea857828281518110611e5657611e56613f37565b6020026020010151866001016001816001815401808255809150500390600052602060002090600691828204019190066005026101000a81548164ffffffffff021916908364ffffffffff1602179055505b5080611eb381613f63565b915050611b77565b600085600201805480602002602001604051908101604052809291908181526020018280548015611f1557602002820191906000526020600020905b81546001600160a01b03168152600190910190602001808311611ef7575b50505050509050600091505b8351821015611fb657611f4d848381518110611f3f57611f3f613f37565b60200260200101518261380f565b611fa457838281518110611f6357611f63613f37565b602090810291909101810151600288018054600181018255600091825292902090910180546001600160a01b0319166001600160a01b039092169190911790555b81611fae81613f63565b925050611f21565b33600090815260208190526040902054600160a01b900460ff166120335785546001600160a01b03199081163390811788556001805480820182556000919091527fb10e2d527612073b26eecdfd717e6a320cf44b4afac2b0732d9fcbe2b7fa0cf6018054909216179055855460ff60a01b1916600160a01b1786555b336000908152602081905260409020865481546001600160a01b039091166001600160a01b031982168117835588546001600160a81b031990921617600160a01b9182900460ff1615159091021781556001808801805489939261209a92908401916139d4565b50600282810180546120af9284019190613a2e565b5090505060005b88518110156122a1578881815181106120d1576120d1613f37565b60200260200101516040015160046000336001600160a01b03166001600160a01b0316815260200190815260200160002060008b848151811061211657612116613f37565b6020026020010151606001516001600160a01b03166001600160a01b0316815260200190815260200160002060008282546121519190613f95565b909155505088516000908a908390811061216d5761216d613f37565b6020026020010151606001516001600160a01b03161461228f5788818151811061219957612199613f37565b6020026020010151606001516001600160a01b03166323b872dd33308c85815181106121c7576121c7613f37565b6020026020010151604001516040518463ffffffff1660e01b81526004016121f193929190614148565b602060405180830381600087803b15801561220b57600080fd5b505af115801561221f573d6000803e3d6000fd5b505050506040513d601f19601f82011682018060405250810190612243919061416c565b61228f5760405162461bcd60e51b815260206004820152601a60248201527f50726f626c656d207472616e7366657272696e6720746f6b656e0000000000006044820152606401610371565b8061229981613f63565b9150506120b6565b50505050505050505b50565b6005546060906001600160a01b031633146122da5760405162461bcd60e51b815260040161037190613f00565b6001600160a01b0382166000908152602081815260408083206001018054825181850281018501909352808352919290919083018282801561236957602002820191906000526020600020906000905b82829054906101000a900464ffffffffff1664ffffffffff168152602001906005019060208260040104928301926001038202915080841161232a5790505b505050505090506000805b82518110156124a85760006002600085848151811061239557612395613f37565b602002602001015164ffffffffff1664ffffffffff168152602001908152602001600020805480602002602001604051908101604052809291908181526020016000905b8282101561247f576000848152602090819020604080516101008101825260058602909201805483526001808201546001600160a01b039081168587015260028301548116938501939093526003820154928316606085015264ffffffffff600160a01b840416608085015260ff600160c81b84048116151560a0860152600160d01b909304909216151560c08401526004015460e083015290835290920191016123d9565b5050505090508051836124929190613f95565b92505080806124a090613f63565b915050612374565b5060008167ffffffffffffffff8111156124c4576124c4613d69565b6040519080825280602002602001820160405280156124fd57816020015b6124ea61386b565b8152602001906001900390816124e25790505b50905060008267ffffffffffffffff81111561251b5761251b613d69565b60405190808252806020026020018201604052801561255457816020015b61254161386b565b8152602001906001900390816125395790505b5090506000805b8551811015612718576002600087838151811061257a5761257a613f37565b602002602001015164ffffffffff1664ffffffffff168152602001908152602001600020805480602002602001604051908101604052809291908181526020016000905b82821015612664576000848152602090819020604080516101008101825260058602909201805483526001808201546001600160a01b039081168587015260028301548116938501939093526003820154928316606085015264ffffffffff600160a01b840416608085015260ff600160c81b84048116151560a0860152600160d01b909304909216151560c08401526004015460e083015290835290920191016125be565b50505050935060005b845181101561270557886001600160a01b031685828151811061269257612692613f37565b6020026020010151602001516001600160a01b031614156126f3578481815181106126bf576126bf613f37565b60200260200101518484815181106126d9576126d9613f37565b602002602001018190525082806126ef90613f63565b9350505b806126fd81613f63565b91505061266d565b508061271081613f63565b91505061255b565b5060005b82518110156127785761273a838281518110610edc57610edc613f37565b83828151811061274c5761274c613f37565b602090810291909101015164ffffffffff9091166080909101528061277081613f63565b91505061271c565b50909450505050505b919050565b6005546000906001600160a01b031633146127b35760405162461bcd60e51b815260040161037190613f00565b60006127be42612e74565b60095490915064ffffffffff908116908216116127ed5760405162461bcd60e51b815260040161037190613fc3565b60095464ffffffffff165b8164ffffffffff168164ffffffffff16116129145764ffffffffff8116600090815260026020908152604080832080548251818502810185019093528083529192909190849084015b828210156128e7576000848152602090819020604080516101008101825260058602909201805483526001808201546001600160a01b039081168587015260028301548116938501939093526003820154928316606085015264ffffffffff600160a01b840416608085015260ff600160c81b84048116151560a0860152600160d01b909304909216151560c08401526004015460e08301529083529092019101612841565b505050509050600081511115612901576001935050505090565b508061290c8161400a565b9150506127f8565b50600091505090565b61292681612e74565b64ffffffffff8116600090815260026020908152604080832080548251818502810185019093528083529495509293909291849084015b82821015612a03576000848152602090819020604080516101008101825260058602909201805483526001808201546001600160a01b039081168587015260028301548116938501939093526003820154928316606085015264ffffffffff600160a01b840416608085015260ff600160c81b84048116151560a0860152600160d01b909304909216151560c08401526004015460e0830152908352909201910161295d565b5050505064ffffffffff83166000908152600260205260409020909150612a2861386b565b60005b8351811015612b745785848281518110612a4757612a47613f37565b6020026020010151600001511415612b6257838181518110612a6b57612a6b613f37565b6020908102919091010151600160c082015283549092508290849083908110612a9657612a96613f37565b60009182526020918290208351600590920201908155908201516001820180546001600160a01b039283166001600160a01b0319918216179091556040840151600284018054918416919092161790556060830151600383018054608086015160a087015160c08801511515600160d01b0260ff60d01b19911515600160c81b029190911661ffff60c81b1964ffffffffff909316600160a01b026001600160c81b0319909416959096169490941791909117169290921717905560e090910151600490910155612b74565b80612b6c81613f63565b915050612a2b565b5064ffffffffff841660009081526002602052604090208254612b99919084906138af565b5060608101516001600160a01b0316612bfa5760e08101514711612bbc57600080fd5b80602001516001600160a01b03166108fc8260e001519081150290604051600060405180830381858888f19350505050612bf557600080fd5b61144e565b60e081015160608201516040516370a0823160e01b81523060048201526001600160a01b03909116906370a0823190602401602060405180830381600087803b158015612c4657600080fd5b505af1158015612c5a573d6000803e3d6000fd5b505050506040513d601f19601f82011682018060405250810190612c7e91906141a6565b1015612c8957600080fd5b606081015160e082015160405163095ea7b360e01b815230600482015260248101919091526001600160a01b039091169063095ea7b390604401602060405180830381600087803b158015612cdd57600080fd5b505af1158015612cf1573d6000803e3d6000fd5b505050506040513d601f19601f82011682018060405250810190612d15919061416c565b8015612daa575080606001516001600160a01b03166323b872dd3083604001518460e001516040518463ffffffff1660e01b8152600401612d5893929190614148565b602060405180830381600087803b158015612d7257600080fd5b505af1158015612d86573d6000803e3d6000fd5b505050506040513d601f19601f82011682018060405250810190612daa919061416c565b61144e57600080fd5b6000806006805480602002602001604051908101604052809291908181526020018280548015612e0c57602002820191906000526020600020905b81546001600160a01b03168152600190910190602001808311612dee575b505050505090506000915060005b8151811015612e6d57818181518110612e3557612e35613f37565b60200260200101516001600160a01b0316846001600160a01b03161415612e5b57600192505b80612e6581613f63565b915050612e1a565b5050919050565b6000610e10612e876363236820846141bf565b612e9191906141e5565b92915050565b60075460ff166122aa5760e081015160208083015160608401516001600160a01b0391821660009081526004845260408082209390921681529190925220541015612ee157600080fd5b60608101516001600160a01b0316612f085760e08101514711612f0357600080fd5b612f97565b60e081015160608201516040516370a0823160e01b81523060048201526001600160a01b03909116906370a0823190602401602060405180830381600087803b158015612f5457600080fd5b505af1158015612f68573d6000803e3d6000fd5b505050506040513d601f19601f82011682018060405250810190612f8c91906141a6565b1015612f9757600080fd5b608081015164ffffffffff16600090815260026020908152604080832080548251818502810185019093528083529192909190849084015b82821015613075576000848152602090819020604080516101008101825260058602909201805483526001808201546001600160a01b039081168587015260028301548116938501939093526003820154928316606085015264ffffffffff600160a01b840416608085015260ff600160c81b84048116151560a0860152600160d01b909304909216151560c08401526004015460e08301529083529092019101612fcf565b50505050608083015164ffffffffff1660009081526002602052604081209192505b82518110156131e45783600001518382815181106130b7576130b7613f37565b60200260200101516000015114156131d2578281815181106130db576130db613f37565b6020908102919091010151600160a08201528254909450849083908390811061310657613106613f37565b60009182526020918290208351600590920201908155908201516001820180546001600160a01b039283166001600160a01b0319918216179091556040840151600284018054918416919092161790556060830151600383018054608086015160a087015160c08801511515600160d01b0260ff60d01b19911515600160c81b029190911661ffff60c81b1964ffffffffff909316600160a01b026001600160c81b0319909416959096169490941791909117169290921717905560e0909101516004909101556131e4565b806131dc81613f63565b915050613097565b50608083015164ffffffffff166000908152600260205260409020815461320d919083906138af565b5060608301516001600160a01b03166132ce57600083604001516001600160a01b03166108fc8560e001519081150290604051600060405180830381858888f193505050509050806132945760405162461bcd60e51b815260206004820152601060248201526f2a3930b739b332b9103330b4b632b21760811b6044820152606401610371565b604051600181527fa2ea5b0db1d57b0e32df654aa9a1a97bc8066881e37669ff488d2bebe87c9f879060200160405180910390a150505050565b606083015160e084015160405163095ea7b360e01b815230600482015260248101919091526001600160a01b039091169063095ea7b390604401602060405180830381600087803b15801561332257600080fd5b505af1158015613336573d6000803e3d6000fd5b505050506040513d601f19601f8201168201806040525081019061335a919061416c565b80156133ef575082606001516001600160a01b03166323b872dd3085604001518660e001516040518463ffffffff1660e01b815260040161339d93929190614148565b602060405180830381600087803b1580156133b757600080fd5b505af11580156133cb573d6000803e3d6000fd5b505050506040513d601f19601f820116820180604052508101906133ef919061416c565b6133f857600080fd5b505050565b600061340b82610e10614209565b612e91906363236820614236565b61342161386b565b6040516bffffffffffffffffffffffff19606088901b1660208201526001600160d81b031960d885901b16603482015242603982015260009060590160408051601f1981840301815282825280516020918201206101008401835283526001600160a01b03998a169083015296881696810196909652505091909316606083015264ffffffffff9092166080820152600060a0820181905260c082015260e081019190915290565b3360009081526020819052604090208054600160a01b900460ff166135a8578054336001600160a01b0319918216811783556001805480820182557fb10e2d527612073b26eecdfd717e6a320cf44b4afac2b0732d9fcbe2b7fa0cf601805484169092179091558254600160a01b60ff60a01b19909116178355808301805480830182556000918252602080832060068084049091018054919093066005026101000a64ffffffffff81810219909216918a1602179091556002850180549384018155825290200180549091166001600160a01b038416179055613729565b60008160010180548060200260200160405190810160405280929190818152602001828054801561362657602002820191906000526020600020906000905b82829054906101000a900464ffffffffff1664ffffffffff16815260200190600501906020826004010492830192600103820291508084116135e75790505b5050505050905060008260020180548060200260200160405190810160405280929190818152602001828054801561368757602002820191906000526020600020905b81546001600160a01b03168152600190910190602001808311613669575b5050505050905061369885836137ad565b6136e75784836001016001816001815401808255809150500390600052602060002090600691828204019190066005026101000a81548164ffffffffff021916908364ffffffffff1602179055505b6136f1848261380f565b61372657600283018054600181018255600091825260209091200180546001600160a01b0319166001600160a01b0386161790555b50505b336000908152602081905260409020815481546001600160a01b039091166001600160a01b031982168117835583546001600160a81b031990921617600160a01b9182900460ff1615159091021781556001808301805484939261379092908401916139d4565b50600282810180546137a59284019190613a2e565b505050505050565b6000805b8251811015613805578364ffffffffff168382815181106137d4576137d4613f37565b602002602001015164ffffffffff1614156137f3576001915050612e91565b806137fd81613f63565b9150506137b1565b5060009392505050565b6000805b825181101561380557836001600160a01b031683828151811061383857613838613f37565b60200260200101516001600160a01b03161415613859576001915050612e91565b8061386381613f63565b915050613813565b6040805161010081018252600080825260208201819052918101829052606081018290526080810182905260a0810182905260c0810182905260e081019190915290565b8280548282559060005260206000209060050281019282156139c45760005260206000209160050282015b828111156139c4578254825560018084015490830180546001600160a01b03199081166001600160a01b039384161790915560028086015490850180548316918416919091179055600380860180549186018054938416929094169182178455805464ffffffffff600160a01b9182900416026001600160c81b031990931690911791909117808355815460ff600160c81b918290048116151590910260ff60c81b198316811785559254600160d01b9081900490911615150260ff60d01b1990921661ffff60c81b199091161717905560048084015490830155600592830192909101906138da565b506139d0929150613a6d565b5090565b82805482825590600052602060002090600501600690048101928215613a22576000526020600020916005016006900482015b82811115613a22578254825591600101919060010190613a07565b506139d0929150613aba565b828054828255906000526020600020908101928215613a2257600052602060002091820182811115613a22578254825591600101919060010190613a07565b5b808211156139d05760008082556001820180546001600160a01b031990811690915560028301805490911690556003820180546001600160d81b03191690556004820155600501613a6e565b5b808211156139d05760008155600101613abb565b6001600160a01b03811681146122aa57600080fd5b600060208284031215613af657600080fd5b8135613b0181613acf565b9392505050565b602080825282518282018190526000919060409081850190868401855b82811015613ba357815180518552868101516001600160a01b0390811688870152868201518116878701526060808301519091169086015260808082015164ffffffffff169086015260a08082015115159086015260c08082015115159086015260e090810151908501526101009093019290850190600101613b25565b5091979650505050505050565b600060208284031215613bc257600080fd5b5035919050565b803564ffffffffff8116811461278157600080fd5b6000806000806000858703610160811215613bf857600080fd5b8635613c0381613acf565b9550613c1160208801613bc9565b9450604087013593506060870135613c2881613acf565b925060e0607f1982011215613c3c57600080fd5b506080860190509295509295909350565b600081518084526020808501945080840160005b83811015613c865781516001600160a01b031687529582019590820190600101613c61565b509495945050505050565b60006020808301818452808551808352604092508286019150828160051b8701018488016000805b84811015613d5a57898403603f19018652825180516001600160a01b0316855288810151151589860152878101516080898701819052815190870181905260a08701918b019085905b80821015613d2957825164ffffffffff168452928c0192918c019160019190910190613d02565b50505060608083015192508682038188015250613d468183613c4d565b978a01979550505091870191600101613cb9565b50919998505050505050505050565b634e487b7160e01b600052604160045260246000fd5b6040516080810167ffffffffffffffff81118282101715613da257613da2613d69565b60405290565b604051601f8201601f1916810167ffffffffffffffff81118282101715613dd157613dd1613d69565b604052919050565b60006020808385031215613dec57600080fd5b823567ffffffffffffffff80821115613e0457600080fd5b818501915085601f830112613e1857600080fd5b813581811115613e2a57613e2a613d69565b613e38848260051b01613da8565b818152848101925060079190911b830184019087821115613e5857600080fd5b928401925b81841015613ec95760808489031215613e765760008081fd5b613e7e613d7f565b8435613e8981613acf565b8152613e96858701613bc9565b8187015260408581013590820152606080860135613eb381613acf565b9082015283526080939093019291840191613e5d565b979650505050505050565b60008060408385031215613ee757600080fd5b82359150613ef760208401613bc9565b90509250929050565b6020808252601a908201527f4d75737420686176652061646d696e2070726976696c65676573000000000000604082015260600190565b634e487b7160e01b600052603260045260246000fd5b634e487b7160e01b600052601160045260246000fd5b6000600019821415613f7757613f77613f4d565b5060010190565b600082821015613f9057613f90613f4d565b500390565b60008219821115613fa857613fa8613f4d565b500190565b634e487b7160e01b600052603160045260246000fd5b60208082526027908201527f54696d6520616c726561647920636865636b656420666f7220746869732074696040820152661b59481cdb1bdd60ca1b606082015260800190565b600064ffffffffff8083168181141561402557614025613f4d565b6001019392505050565b634e487b7160e01b600052601260045260246000fd5b600064ffffffffff8084168061405d5761405d61402f565b92169190910692915050565b600081600019048311821515161561408357614083613f4d565b500290565b6000826140975761409761402f565b500490565b60208082526024908201527f4e6f7420656e6f756768204554482073656e742077697468207472616e7361636040820152633a34b7b760e11b606082015260800190565b60208082526025908201527f20546f6b656e206e6f7420617070726f76656420666f72207468697320636f6e6040820152641d1c9858dd60da1b606082015260800190565b60006020828403121561413757600080fd5b813560ff81168114613b0157600080fd5b6001600160a01b039384168152919092166020820152604081019190915260600190565b60006020828403121561417e57600080fd5b81518015158114613b0157600080fd5b600061ffff8083168181141561402557614025613f4d565b6000602082840312156141b857600080fd5b5051919050565b600064ffffffffff838116908316818110156141dd576141dd613f4d565b039392505050565b600064ffffffffff808416806141fd576141fd61402f565b92169190910492915050565b600064ffffffffff8083168185168183048111821515161561422d5761422d613f4d565b02949350505050565b600064ffffffffff80831681851680830382111561425657614256613f4d565b0194935050505056fea26469706673582212203cabd318366e88fe7d1f7fb9ca9e40b94464d8b47519ee180810ab6370a3241e64736f6c63430008090033",
  "linkReferences": {},
  "deployedLinkReferences": {}
}