{
  "_format": "hh-sol-artifact-1",
  "contractName": "Clocktower",
  "sourceName": "contracts/Clocktower.sol",
  "abi": [
    {
      "inputs": [],
      "stateMutability": "payable",
      "type": "constructor"
    },
    {
      "stateMutability": "payable",
      "type": "fallback"
    },
    {
      "inputs": [
        {
          "components": [
            {
              "internalType": "address payable",
              "name": "receiver",
              "type": "address"
            },
            {
              "internalType": "uint40",
              "name": "unixTime",
              "type": "uint40"
            },
            {
              "internalType": "uint256",
              "name": "payload",
              "type": "uint256"
            },
            {
              "internalType": "address",
              "name": "token",
              "type": "address"
            }
          ],
          "internalType": "struct Clocktower.Batch[]",
          "name": "batch",
          "type": "tuple[]"
        }
      ],
      "name": "addBatchTransactions",
      "outputs": [],
      "stateMutability": "payable",
      "type": "function"
    },
    {
      "inputs": [
        {
          "internalType": "address",
          "name": "erc20Contract",
          "type": "address"
        }
      ],
      "name": "addERC20Contract",
      "outputs": [],
      "stateMutability": "nonpayable",
      "type": "function"
    },
    {
      "inputs": [
        {
          "internalType": "address payable",
          "name": "receiver",
          "type": "address"
        },
        {
          "internalType": "uint40",
          "name": "unixTime",
          "type": "uint40"
        },
        {
          "internalType": "uint256",
          "name": "payload",
          "type": "uint256"
        },
        {
          "internalType": "address",
          "name": "token",
          "type": "address"
        },
        {
          "components": [
            {
              "internalType": "address",
              "name": "owner",
              "type": "address"
            },
            {
              "internalType": "address",
              "name": "spender",
              "type": "address"
            },
            {
              "internalType": "uint256",
              "name": "value",
              "type": "uint256"
            },
            {
              "internalType": "uint256",
              "name": "deadline",
              "type": "uint256"
            },
            {
              "internalType": "uint8",
              "name": "v",
              "type": "uint8"
            },
            {
              "internalType": "bytes32",
              "name": "r",
              "type": "bytes32"
            },
            {
              "internalType": "bytes32",
              "name": "s",
              "type": "bytes32"
            }
          ],
          "internalType": "struct Clocktower.Permit",
          "name": "permit",
          "type": "tuple"
        }
      ],
      "name": "addPermitTransaction",
      "outputs": [],
      "stateMutability": "payable",
      "type": "function"
    },
    {
      "inputs": [
        {
          "internalType": "address payable",
          "name": "receiver",
          "type": "address"
        },
        {
          "internalType": "uint40",
          "name": "unixTime",
          "type": "uint40"
        },
        {
          "internalType": "uint256",
          "name": "payload",
          "type": "uint256"
        },
        {
          "internalType": "address",
          "name": "token",
          "type": "address"
        }
      ],
      "name": "addTransaction",
      "outputs": [],
      "stateMutability": "payable",
      "type": "function"
    },
    {
      "inputs": [
        {
          "components": [
            {
              "internalType": "bytes32",
              "name": "id",
              "type": "bytes32"
            },
            {
              "internalType": "uint256",
              "name": "amount",
              "type": "uint256"
            },
            {
              "internalType": "address",
              "name": "owner",
              "type": "address"
            },
            {
              "internalType": "address",
              "name": "token",
              "type": "address"
            },
            {
              "internalType": "bool",
              "name": "exists",
              "type": "bool"
            },
            {
              "internalType": "bool",
              "name": "cancelled",
              "type": "bool"
            },
            {
              "internalType": "enum Clocktower.SubType",
              "name": "subType",
              "type": "uint8"
            },
            {
              "internalType": "uint40",
              "name": "dueDay",
              "type": "uint40"
            },
            {
              "internalType": "string",
              "name": "description",
              "type": "string"
            }
          ],
          "internalType": "struct Clocktower.Subscription",
          "name": "subscription",
          "type": "tuple"
        }
      ],
      "name": "cancelSubscription",
      "outputs": [],
      "stateMutability": "nonpayable",
      "type": "function"
    },
    {
      "inputs": [
        {
          "internalType": "bytes32",
          "name": "id",
          "type": "bytes32"
        },
        {
          "internalType": "uint40",
          "name": "unixTrigger",
          "type": "uint40"
        },
        {
          "internalType": "address",
          "name": "token",
          "type": "address"
        }
      ],
      "name": "cancelTransaction",
      "outputs": [],
      "stateMutability": "payable",
      "type": "function"
    },
    {
      "inputs": [
        {
          "internalType": "address",
          "name": "newAddress",
          "type": "address"
        }
      ],
      "name": "changeAdmin",
      "outputs": [],
      "stateMutability": "nonpayable",
      "type": "function"
    },
    {
      "inputs": [
        {
          "internalType": "uint256",
          "name": "_fee",
          "type": "uint256"
        }
      ],
      "name": "changeFee",
      "outputs": [],
      "stateMutability": "nonpayable",
      "type": "function"
    },
    {
      "inputs": [
        {
          "internalType": "uint256",
          "name": "_fixed_fee",
          "type": "uint256"
        }
      ],
      "name": "changeFixedFee",
      "outputs": [],
      "stateMutability": "nonpayable",
      "type": "function"
    },
    {
      "inputs": [],
      "name": "chargeSubs",
      "outputs": [],
      "stateMutability": "nonpayable",
      "type": "function"
    },
    {
      "inputs": [],
      "name": "checkTime",
      "outputs": [
        {
          "internalType": "bool",
          "name": "",
          "type": "bool"
        }
      ],
      "stateMutability": "view",
      "type": "function"
    },
    {
      "inputs": [
        {
          "internalType": "uint256",
          "name": "amount",
          "type": "uint256"
        },
        {
          "internalType": "address",
          "name": "token",
          "type": "address"
        },
        {
          "internalType": "string",
          "name": "description",
          "type": "string"
        },
        {
          "internalType": "enum Clocktower.SubType",
          "name": "subtype",
          "type": "uint8"
        },
        {
          "internalType": "uint16",
          "name": "dueDay",
          "type": "uint16"
        }
      ],
      "name": "createSubscription",
      "outputs": [],
      "stateMutability": "payable",
      "type": "function"
    },
    {
      "inputs": [],
      "name": "getAccountSubscriptions",
      "outputs": [
        {
          "components": [
            {
              "internalType": "bytes32",
              "name": "id",
              "type": "bytes32"
            },
            {
              "internalType": "uint256",
              "name": "amount",
              "type": "uint256"
            },
            {
              "internalType": "address",
              "name": "owner",
              "type": "address"
            },
            {
              "internalType": "address",
              "name": "token",
              "type": "address"
            },
            {
              "internalType": "bool",
              "name": "exists",
              "type": "bool"
            },
            {
              "internalType": "bool",
              "name": "cancelled",
              "type": "bool"
            },
            {
              "internalType": "enum Clocktower.SubType",
              "name": "subType",
              "type": "uint8"
            },
            {
              "internalType": "uint40",
              "name": "dueDay",
              "type": "uint40"
            },
            {
              "internalType": "string",
              "name": "description",
              "type": "string"
            }
          ],
          "internalType": "struct Clocktower.Subscription[]",
          "name": "",
          "type": "tuple[]"
        }
      ],
      "stateMutability": "view",
      "type": "function"
    },
    {
      "inputs": [],
      "name": "getAccountTransactions",
      "outputs": [
        {
          "components": [
            {
              "internalType": "bytes32",
              "name": "id",
              "type": "bytes32"
            },
            {
              "internalType": "address",
              "name": "sender",
              "type": "address"
            },
            {
              "internalType": "address payable",
              "name": "receiver",
              "type": "address"
            },
            {
              "internalType": "address",
              "name": "token",
              "type": "address"
            },
            {
              "internalType": "uint40",
              "name": "timeTrigger",
              "type": "uint40"
            },
            {
              "internalType": "enum Clocktower.Status",
              "name": "status",
              "type": "uint8"
            },
            {
              "internalType": "uint256",
              "name": "payload",
              "type": "uint256"
            }
          ],
          "internalType": "struct Clocktower.Transaction[]",
          "name": "",
          "type": "tuple[]"
        }
      ],
      "stateMutability": "view",
      "type": "function"
    },
    {
      "inputs": [],
      "name": "getFee",
      "outputs": [
        {
          "internalType": "uint256",
          "name": "",
          "type": "uint256"
        }
      ],
      "stateMutability": "view",
      "type": "function"
    },
    {
      "inputs": [
        {
          "internalType": "address",
          "name": "token",
          "type": "address"
        }
      ],
      "name": "getTotalClaims",
      "outputs": [
        {
          "internalType": "uint256",
          "name": "",
          "type": "uint256"
        }
      ],
      "stateMutability": "view",
      "type": "function"
    },
    {
      "inputs": [
        {
          "internalType": "address",
          "name": "erc20Contract",
          "type": "address"
        }
      ],
      "name": "removeERC20Contract",
      "outputs": [],
      "stateMutability": "nonpayable",
      "type": "function"
    },
    {
      "inputs": [],
      "name": "sendTime",
      "outputs": [],
      "stateMutability": "nonpayable",
      "type": "function"
    },
    {
      "inputs": [
        {
          "components": [
            {
              "internalType": "bytes32",
              "name": "id",
              "type": "bytes32"
            },
            {
              "internalType": "uint256",
              "name": "amount",
              "type": "uint256"
            },
            {
              "internalType": "address",
              "name": "owner",
              "type": "address"
            },
            {
              "internalType": "address",
              "name": "token",
              "type": "address"
            },
            {
              "internalType": "bool",
              "name": "exists",
              "type": "bool"
            },
            {
              "internalType": "bool",
              "name": "cancelled",
              "type": "bool"
            },
            {
              "internalType": "enum Clocktower.SubType",
              "name": "subType",
              "type": "uint8"
            },
            {
              "internalType": "uint40",
              "name": "dueDay",
              "type": "uint40"
            },
            {
              "internalType": "string",
              "name": "description",
              "type": "string"
            }
          ],
          "internalType": "struct Clocktower.Subscription",
          "name": "subscription",
          "type": "tuple"
        }
      ],
      "name": "subscribe",
      "outputs": [],
      "stateMutability": "payable",
      "type": "function"
    },
    {
      "inputs": [],
      "name": "toggleContractActive",
      "outputs": [],
      "stateMutability": "nonpayable",
      "type": "function"
    },
    {
      "inputs": [
        {
          "internalType": "uint256",
          "name": "unix",
          "type": "uint256"
        }
      ],
      "name": "unixToDays",
      "outputs": [
        {
          "internalType": "uint16",
          "name": "yearDays",
          "type": "uint16"
        },
        {
          "internalType": "uint16",
          "name": "day",
          "type": "uint16"
        }
      ],
      "stateMutability": "pure",
      "type": "function"
    },
    {
      "inputs": [
        {
          "internalType": "bytes32",
          "name": "id",
          "type": "bytes32"
        }
      ],
      "name": "unsubscribe",
      "outputs": [],
      "stateMutability": "payable",
      "type": "function"
    },
    {
      "stateMutability": "payable",
      "type": "receive"
    }
  ],
  "bytecode": "0x6080604052600080546001600160a01b03191673f39fd6e51aad88f6f4ce6ab8827279cfffb9226617905560646001908155662386f26fc10000600255600d805460ff19169055620000514262000085565b6200005d91906200009b565b600d60016101000a81548164ffffffffff021916908364ffffffffff16021790555062000103565b600062000095610e1083620000d0565b92915050565b600064ffffffffff83811690831681811015620000c857634e487b7160e01b600052601160045260246000fd5b039392505050565b600064ffffffffff80841680620000f757634e487b7160e01b600052601260045260246000fd5b92169190910492915050565b61592680620001136000396000f3fe60806040526004361061012d5760003560e01c806393bc8413116100a5578063ced72f871161006c578063ced72f8714610334578063d10fa14414610349578063dc7000891461035c578063e0c6190d14610371578063f8179f2b14610396578063f8c60146146103b657005b806393bc84131461028f578063a1c06d34146102ca578063aa58a5b0146102dd578063ab7e0909146102f2578063c682cce41461031257005b80636a1db1bf116100f45780636a1db1bf146101e7578063736fb96d146102075780637ce1ef391461021a578063804234441461023c5780638e83ac4a1461024f5780638f2839701461026f57005b8063053149fa146101365780631385d24c1461015657806313b512341461016b5780632a2b3690146101c15780633084f79e146101d457005b3661013457005b005b34801561014257600080fd5b50610134610151366004614ed2565b6103c9565b34801561016257600080fd5b506101346105b1565b34801561017757600080fd5b506101ae610186366004614ed2565b336000908152600a602090815260408083206001600160a01b03949094168352929052205490565b6040519081526020015b60405180910390f35b6101346101cf366004614f09565b6105cd565b6101346101e2366004614f58565b61083b565b3480156101f357600080fd5b50610134610202366004615012565b610c05565b61013461021536600461502b565b610c12565b34801561022657600080fd5b5061022f610dd3565b6040516101b891906150e9565b61013461024a3660046151cc565b610f49565b34801561025b57600080fd5b5061013461026a366004615012565b611240565b34801561027b57600080fd5b5061013461028a366004614ed2565b61124d565b34801561029b57600080fd5b506102af6102aa366004615012565b6112a0565b6040805161ffff9384168152929091166020830152016101b8565b6101346102d836600461521d565b611465565b3480156102e957600080fd5b506101346117d0565b3480156102fe57600080fd5b5061013461030d366004614ed2565b6119a3565b34801561031e57600080fd5b50610327611a4a565b6040516101b8919061528c565b34801561034057600080fd5b506001546101ae565b6101346103573660046153a5565b611f2e565b34801561036857600080fd5b50610134612aad565b34801561037d57600080fd5b50610386613024565b60405190151581526020016101b8565b3480156103a257600080fd5b506101346103b136600461502b565b6130e7565b6101346103c4366004615012565b61347a565b6103d16134ae565b6001600160a01b0381166103e457600080fd5b6103ed816134ee565b6104225760405162461bcd60e51b81526020600482015260016024820152601960f91b60448201526064015b60405180910390fd5b6000600c80548060200260200160405190810160405280929190818152602001828054801561047a57602002820191906000526020600020905b81546001600160a01b0316815260019091019060200180831161045c575b505050505090506000805b82518110156104db57836001600160a01b03168382815181106104aa576104aa6154a0565b60200260200101516001600160a01b031614156104c9578091506104db565b806104d3816154cc565b915050610485565b50805b600c546104ed906001906154e7565b81101561057857600c6105018260016154fe565b81548110610511576105116154a0565b600091825260209091200154600c80546001600160a01b03909216918390811061053d5761053d6154a0565b600091825260209091200180546001600160a01b0319166001600160a01b039290921691909117905580610570816154cc565b9150506104de565b50600c80548061058a5761058a615516565b600082815260209020810160001990810180546001600160a01b0319169055019055505050565b6105b96134ae565b600d805460ff19811660ff90911615179055565b6105d56135af565b60006105e0836135e0565b64ffffffffff8116600090815260056020908152604080832080548251818502810185019093528083529495509293909291849084015b828210156106d65760008481526020908190206040805160e081018252600586029092018054835260018101546001600160a01b039081169484019490945260028101548416918301919091526003808201549384166060840152600160a01b840464ffffffffff1660808401529192909160a0840191600160c81b900460ff16908111156106a8576106a8615067565b60038111156106b9576106b9615067565b815260200160048201548152505081526020019060010190610617565b5050505090506106e4614d0c565b60005b82518110156107485786838281518110610703576107036154a0565b602002602001015160000151141561073657828181518110610727576107276154a0565b60200260200101519150610748565b80610740816154cc565b9150506106e7565b5061075b816000015182608001516135f4565b6001600160a01b038416156107ad5760c0810151336000908152600a602090815260408083206001600160a01b0389168452909152812080549091906107a29084906154e7565b909155506108339050565b60c0810151336000908152600a602090815260408083206001600160a01b0389168452909152812080549091906107e59084906154e7565b909155505060c081015147116107fa57600080fd5b80602001516001600160a01b03166108fc8260c001519081150290604051600060405180830381858888f1935050505061083357600080fd5b505050505050565b6108436135af565b6001600160a01b03851661087d5760405162461bcd60e51b81526020600482015260016024820152600760fb1b6044820152606401610419565b34600254111561089f5760405162461bcd60e51b81526004016104199061552c565b6108a8856134ee565b6108c45760405162461bcd60e51b815260040161041990615547565b600086116108f95760405162461bcd60e51b8152602060048201526002602482015261031360f41b6044820152606401610419565b6000610942878787878080601f016020809104026020016040519081016040528093929190818152602001838380828437600092019190915250899250505061ffff8716613990565b9050600083600181111561095857610958615067565b14156109d5578161ffff1660001080156109775750601c8261ffff1611155b6109d55760405162461bcd60e51b815260206004820152602960248201527f4d6f6e74686c79206475652064617465206d757374206265206265747765656e6044820152680406240c2dcc84064760bb1b6064820152608401610419565b60018360018111156109e9576109e9615067565b1415610a67578161ffff166000108015610a09575061016d8261ffff1611155b610a675760405162461bcd60e51b815260206004820152602960248201527f596561726c79206475652064617465206d757374206265206265747765656e206044820152683120616e642033363560b81b6064820152608401610419565b8060076000856001811115610a7e57610a7e615067565b81526020808201929092526040908101600090812061ffff8716825283528181208054600181810183559183529184902085516005909302019182559284015181840155908301516002820180546001600160a01b039283166001600160a01b03199091161790556060840151600383018054608087015160a08801511515600160a81b0260ff60a81b19911515600160a01b026001600160a81b03199093169490951693909317179182168317815560c08601519394909260ff60b01b191661ffff60a81b199092169190911790600160b01b908490811115610b6457610b64615067565b021790555060e082015160038201805464ffffffffff909216600160b81b0264ffffffffff60b81b199092169190911790556101008201518051610bb2916004840191602090910190614d49565b50905050610bfc6040518060600160405280836000015181526020018360e0015164ffffffffff1681526020018360c001516001811115610bf557610bf5615067565b9052613a47565b50505050505050565b610c0d6134ae565b600155565b610c1a6135af565b346002541115610c3c5760405162461bcd60e51b81526004016104199061552c565b6020810135610c516080830160608401614ed2565b604051636eb1769f60e11b81523360048201523060248201526001600160a01b03919091169063dd62ed3e90604401602060405180830381600087803b158015610c9a57600080fd5b505af1158015610cae573d6000803e3d6000fd5b505050506040513d601f19601f82011682018060405250810190610cd29190615562565b1015610cf05760405162461bcd60e51b81526004016104199061557b565b610d1b8135610d06610100840160e08501615597565b610d1660e0850160c086016155b2565b613b5c565b610d4b5760405162461bcd60e51b81526020600482015260016024820152603760f81b6044820152606401610419565b8035600081815260086020908152604080832080546001810182559084529282902090920180546001600160a01b03191633179055815160608101909252918152610dd0918101610da3610100850160e08601615597565b64ffffffffff168152602001610dbf60e0850160c086016155b2565b6001811115610bf557610bf5615067565b50565b336000908152600360209081526040808320600201805482518185028101850190935280835260609493849084015b82821015610e8657600084815260209081902060408051606081018252600286029092018054835260018082015464ffffffffff8116958501959095529293909291840191600160281b90910460ff1690811115610e6257610e62615067565b6001811115610e7357610e73615067565b8152505081526020019060010190610e02565b5050505090506000815167ffffffffffffffff811115610ea857610ea8615335565b604051908082528060200260200182016040528015610ee157816020015b610ece614dcd565b815260200190600190039081610ec65790505b50905060005b8251811015610f4257610f12838281518110610f0557610f056154a0565b6020026020010151613bc3565b828281518110610f2457610f246154a0565b60200260200101819052508080610f3a906154cc565b915050610ee7565b5092915050565b600d5460ff1661123a57610f5b6135af565b610f6483613e10565b6001600160a01b038116610fb05734606460015484610f8391906155cd565b610f8d9190615602565b1115610fab5760405162461bcd60e51b81526004016104199061552c565b6110c3565b346002541115610fd25760405162461bcd60e51b81526004016104199061552c565b610fdb816134ee565b610ff75760405162461bcd60e51b815260040161041990615547565b336000908152600a602090815260408083206001600160a01b03851684529091529020546110269083906154fe565b604051636eb1769f60e11b81523360048201523060248201526001600160a01b0383169063dd62ed3e90604401602060405180830381600087803b15801561106d57600080fd5b505af1158015611081573d6000803e3d6000fd5b505050506040513d601f19601f820116820180604052508101906110a59190615562565b10156110c35760405162461bcd60e51b81526004016104199061557b565b60006110ce846135e0565b905060006110df3387858588613e8e565b64ffffffffff8084166000908152600560208181526040808420805460018181018355918652948390208751959094029093019384559085015191830180546001600160a01b039384166001600160a01b03199182161790915590850151600284018054918416919092161790556060840151600380840180546080880151909616600160a01b026001600160c81b031990961692909316919091179390931780825560a08501519495508594929360ff60c81b1990911690600160c81b9084908111156111af576111af615067565b021790555060c091909101516004909101558051600680546001810182556000919091527ff652222313e28459528d920b65115c16c04f3efc82aaedc97be59f3f377c0d3f01556111ff82613f5c565b336000908152600a602090815260408083206001600160a01b0387168452909152812080548692906112329084906154fe565b909155505050505b50505050565b6112486134ae565b600255565b6112556134ae565b336001600160a01b03821614801561127557506001600160a01b03811615155b61127e57600080fd5b600080546001600160a01b0319166001600160a01b0392909216919091179055565b600080806112b16201518085615602565b90508060006112c38262010bd9615616565b6112d09062253d8c615616565b9050600062023ab16112e3836004615657565b6112ed91906156dc565b905060046112fe8262023ab1615657565b611309906003615616565b61131391906156dc565b61131d908361570a565b9150600062164b09611330846001615616565b61133c90610fa0615657565b61134691906156dc565b90506004611356826105b5615657565b61136091906156dc565b61136a908461570a565b61137590601f615616565b9250600061098f611387856050615657565b61139191906156dc565b9050600060506113a38361098f615657565b6113ad91906156dc565b6113b7908661570a565b90506113c4600b836156dc565b94506113d185600c615657565b6113dc836002615616565b6113e6919061570a565b915084836113f560318761570a565b611400906064615657565b61140a9190615616565b6114149190615616565b909750915086828282600060015b838111611451576114338585614112565b61143d90836154fe565b915080611449816154cc565b915050611422565b50809c505050505050505050505050915091565b600d5460ff166117c9576114776135af565b61148084613e10565b6001600160a01b0382166114cc573460646001548561149f91906155cd565b6114a99190615602565b11156114c75760405162461bcd60e51b81526004016104199061552c565b611572565b3460025411156114ee5760405162461bcd60e51b81526004016104199061552c565b6114f7826134ee565b6115135760405162461bcd60e51b815260040161041990615547565b80604001358311156115725760405162461bcd60e51b815260206004820152602260248201527f5061796c6f6164206d757374206265203c3d2076616c7565207065726d697474604482015261195960f21b6064820152608401610419565b600061157d856135e0565b9050600061158e3388868589613e8e565b64ffffffffff8084166000908152600560208181526040808420805460018181018355918652948390208751959094029093019384559085015191830180546001600160a01b039384166001600160a01b03199182161790915590850151600284018054918416919092161790556060840151600380840180546080880151909616600160a01b026001600160c81b031990961692909316919091179390931780825560a08501519495508594929360ff60c81b1990911690600160c81b90849081111561165e5761165e615067565b021790555060c091909101516004909101558051600680546001810182556000919091527ff652222313e28459528d920b65115c16c04f3efc82aaedc97be59f3f377c0d3f01556116ae82613f5c565b336000908152600a602090815260408083206001600160a01b0388168452909152812080548792906116e19084906154fe565b90915550506001600160a01b03841615610bfc576001600160a01b03841663d505accf6117116020860186614ed2565b6117216040870160208801614ed2565b6040870135606088013561173b60a08a0160808b01615749565b6040516001600160e01b031960e088901b1681526001600160a01b0395861660048201529490931660248501526044840191909152606483015260ff16608482015260a086013560a482015260c086013560c482015260e401600060405180830381600087803b1580156117ae57600080fd5b505af11580156117c2573d6000803e3d6000fd5b5050505050505b5050505050565b6117d86134ae565b60006117e3426135e0565b600d5490915064ffffffffff61010090910481169082161161182c5760405162461bcd60e51b81526020600482015260026024820152610c4d60f21b6044820152606401610419565b600d54610100900464ffffffffff165b8164ffffffffff168164ffffffffff161161197e5764ffffffffff81166000908152600560205260409020541561196c5764ffffffffff81166000908152600560209081526040808320805482518185028101850190935280835261196c9492939192909184015b828210156119635760008481526020908190206040805160e081018252600586029092018054835260018101546001600160a01b039081169484019490945260028101548416918301919091526003808201549384166060840152600160a01b840464ffffffffff1660808401529192909160a0840191600160c81b900460ff169081111561193557611935615067565b600381111561194657611946615067565b8152602001600482015481525050815260200190600101906118a4565b50505050614198565b806119768161576c565b91505061183c565b50600d805464ffffffffff9092166101000265ffffffffff0019909216919091179055565b6119ab6134ae565b6001600160a01b0381166119be57600080fd5b6119c7816134ee565b156119f85760405162461bcd60e51b81526020600482015260016024820152603160f81b6044820152606401610419565b600c80546001810182556000919091527fdf6966c971051c3d54ec59162606531493a51404a002842f56009d7e5cf4a8c70180546001600160a01b0319166001600160a01b0392909216919091179055565b336000908152600360209081526040808320600101805482518185028101850190935280835260609493830182828015611ad157602002820191906000526020600020906000905b82829054906101000a900464ffffffffff1664ffffffffff1681526020019060050190602082600401049283019260010382029150808411611a925790505b505050505090506000805b8251811015611c2957600060056000858481518110611afd57611afd6154a0565b602002602001015164ffffffffff1664ffffffffff168152602001908152602001600020805480602002602001604051908101604052809291908181526020016000905b82821015611c005760008481526020908190206040805160e081018252600586029092018054835260018101546001600160a01b039081169484019490945260028101548416918301919091526003808201549384166060840152600160a01b840464ffffffffff1660808401529192909160a0840191600160c81b900460ff1690811115611bd257611bd2615067565b6003811115611be357611be3615067565b815260200160048201548152505081526020019060010190611b41565b505050509050805183611c1391906154fe565b9250508080611c21906154cc565b915050611adc565b5060008167ffffffffffffffff811115611c4557611c45615335565b604051908082528060200260200182016040528015611c7e57816020015b611c6b614d0c565b815260200190600190039081611c635790505b50905060008267ffffffffffffffff811115611c9c57611c9c615335565b604051908082528060200260200182016040528015611cd557816020015b611cc2614d0c565b815260200190600190039081611cba5790505b5090506000805b8551811015611eb25760056000878381518110611cfb57611cfb6154a0565b602002602001015164ffffffffff1664ffffffffff168152602001908152602001600020805480602002602001604051908101604052809291908181526020016000905b82821015611dfe5760008481526020908190206040805160e081018252600586029092018054835260018101546001600160a01b039081169484019490945260028101548416918301919091526003808201549384166060840152600160a01b840464ffffffffff1660808401529192909160a0840191600160c81b900460ff1690811115611dd057611dd0615067565b6003811115611de157611de1615067565b815260200160048201548152505081526020019060010190611d3f565b50505050935060005b8451811015611e9f57336001600160a01b0316858281518110611e2c57611e2c6154a0565b6020026020010151602001516001600160a01b03161415611e8d57848181518110611e5957611e596154a0565b6020026020010151848481518110611e7357611e736154a0565b60200260200101819052508280611e89906154cc565b9350505b80611e97816154cc565b915050611e07565b5080611eaa816154cc565b915050611cdc565b5060005b8251811015611f2357611ee5838281518110611ed457611ed46154a0565b6020026020010151608001516148ef565b838281518110611ef757611ef76154a0565b602090810291909101015164ffffffffff90911660809091015280611f1b816154cc565b915050611eb6565b509095945050505050565b600d5460ff16610dd057611f406135af565b60018151118015611f52575060648151105b611fa95760405162461bcd60e51b815260206004820152602260248201527f4261746368206d757374203e206f6e65207472616e73616374696f6e203c2031604482015261030360f41b6064820152608401610419565b611fd46040518060800160405280600081526020016000815260200160008152602001606081525090565b348251600254611fe491906155cd565b11156120025760405162461bcd60e51b81526004016104199061552c565b600c5460009067ffffffffffffffff81111561202057612020615335565b604051908082528060200260200182016040528015612049578160200160208202803683370190505b50336000908152600360205260408120600101549192509061206c9060646154fe565b67ffffffffffffffff81111561208457612084615335565b6040519080825280602002602001820160405280156120ad578160200160208202803683370190505b50905060005b845181101561251a576120e28582815181106120d1576120d16154a0565b602002602001015160200151613e10565b600061210a8683815181106120f9576120f96154a0565b6020026020010151602001516135e0565b905061211681846148fd565b612164578083866040015181518110612131576121316154a0565b602002602001019064ffffffffff16908164ffffffffff168152505060018560400181815161216091906154fe565b9052505b60006001600160a01b0316868381518110612181576121816154a0565b6020026020010151606001516001600160a01b031614156121d3578582815181106121ae576121ae6154a0565b602002602001015160400151856000018181516121cb91906154fe565b9052506123f8565b6121f98683815181106121e8576121e86154a0565b6020026020010151606001516134ee565b6122155760405162461bcd60e51b815260040161041990615547565b858281518110612227576122276154a0565b602002602001015160400151600a6000336001600160a01b03166001600160a01b03168152602001908152602001600020600088858151811061226c5761226c6154a0565b6020026020010151606001516001600160a01b03166001600160a01b03168152602001908152602001600020546122a391906154fe565b8683815181106122b5576122b56154a0565b602090810291909101015160600151604051636eb1769f60e11b81523360048201523060248201526001600160a01b039091169063dd62ed3e90604401602060405180830381600087803b15801561230c57600080fd5b505af1158015612320573d6000803e3d6000fd5b505050506040513d601f19601f820116820180604052508101906123449190615562565b10156123625760405162461bcd60e51b81526004016104199061557b565b612389868381518110612377576123776154a0565b6020026020010151606001518561495f565b6123f85785828151811061239f5761239f6154a0565b602002602001015160600151848660200151815181106123c1576123c16154a0565b60200260200101906001600160a01b031690816001600160a01b0316815250506001856020018181516123f491906154fe565b9052505b85828151811061240a5761240a6154a0565b602002602001015160400151600b600088858151811061242c5761242c6154a0565b6020026020010151606001516001600160a01b03166001600160a01b03168152602001908152602001600020600082825461246791906154fe565b92505081905550858281518110612480576124806154a0565b602002602001015160400151600a6000336001600160a01b03166001600160a01b0316815260200190815260200160002060008885815181106124c5576124c56154a0565b6020026020010151606001516001600160a01b03166001600160a01b03168152602001908152602001600020600082825461250091906154fe565b909155508291506125129050816154cc565b9150506120b3565b346064600154866000015161252f91906155cd565b6125399190615602565b11156125575760405162461bcd60e51b81526004016104199061552c565b5060005b81518110156127bf57818181518110612576576125766154a0565b602002602001015164ffffffffff1660001415612592576127bf565b60005b85518161ffff1610156127ac5760006125bd878361ffff16815181106120f9576120f96154a0565b90508383815181106125d1576125d16154a0565b602002602001015164ffffffffff168164ffffffffff16141561279957600061266033898561ffff168151811061260a5761260a6154a0565b6020026020010151600001518a8661ffff168151811061262c5761262c6154a0565b602002602001015160600151858c8861ffff168151811061264f5761264f6154a0565b602002602001015160400151613e8e565b90508060056000878781518110612679576126796154a0565b60209081029190910181015164ffffffffff908116835282820193909352604091820160009081208054600181810183559183529183902086516005909302019182559185015191810180546001600160a01b039384166001600160a01b0319918216179091559285015160028201805491841691909416179092556060840151600380840180546080880151909616600160a01b026001600160c81b031990961692909316919091179390931780825560a0850151929360ff60c81b1990911690600160c81b90849081111561275257612752615067565b021790555060c0919091015160049091015551600680546001810182556000919091527ff652222313e28459528d920b65115c16c04f3efc82aaedc97be59f3f377c0d3f01555b50806127a481615791565b915050612595565b50806127b7816154cc565b91505061255b565b5060005b8251811015612a1d5760006001600160a01b03168382815181106127e9576127e96154a0565b60200260200101516001600160a01b0316146129c657600b6000848381518110612815576128156154a0565b60200260200101516001600160a01b03166001600160a01b0316815260200190815260200160002054838281518110612850576128506154a0565b6020908102919091010151604051636eb1769f60e11b81523360048201523060248201526001600160a01b039091169063dd62ed3e90604401602060405180830381600087803b1580156128a357600080fd5b505af11580156128b7573d6000803e3d6000fd5b505050506040513d601f19601f820116820180604052508101906128db9190615562565b101580156129bd5750600b60008483815181106128fa576128fa6154a0565b60200260200101516001600160a01b03166001600160a01b0316815260200190815260200160002054838281518110612935576129356154a0565b60209081029190910101516040516370a0823160e01b81523360048201526001600160a01b03909116906370a0823190602401602060405180830381600087803b15801561298257600080fd5b505af1158015612996573d6000803e3d6000fd5b505050506040513d601f19601f820116820180604052508101906129ba9190615562565b10155b6129c657600080fd5b6000600b60008584815181106129de576129de6154a0565b60200260200101516001600160a01b03166001600160a01b03168152602001908152602001600020819055508080612a15906154cc565b9150506127c3565b33600090815260036020526040902054600160a01b900460ff166117c95733600081815260036020526040812080546001600160a01b03199081168417825560048054600181019091557f8a35acfbc15ff81a39ae7d344fd709f28e8600b4aa8c65c6b64bfe7fe36bd19b01805490911684179055919052805460ff60a01b1916600160a01b1790555050505050565b612ab56134ae565b600080612ac1426112a0565b9150915060005b6001811161301f57600081612ade575061ffff82165b6001821415612aee575061ffff83165b60005b600083815260076020908152604080832064ffffffffff8616845290915290205481101561300a57600083815260076020908152604080832064ffffffffff861684529091529020805482908110612b4b57612b4b6154a0565b906000526020600020906005020160030160159054906101000a900460ff16612ff857600083815260076020908152604080832064ffffffffff861684529091528120805483908110612ba057612ba06154a0565b6000918252602080832060059092029091015486835260078252604080842064ffffffffff8816855290925290822080549193509084908110612be557612be56154a0565b600091825260208083206003600590930201919091015487835260078252604080842064ffffffffff8916855290925290822080546001600160a01b0390921693509085908110612c3857612c386154a0565b906000526020600020906005020160010154905060005b600084815260086020526040902054811015612ff3576000848152600860205260408120805483908110612c8557612c856154a0565b60009182526020808320909101548a835260078252604080842064ffffffffff8c168552909252912080546001600160a01b039092169250849188908110612ccf57612ccf6154a0565b6000918252602090912060059091020160030154604051636eb1769f60e11b81526001600160a01b0384811660048301523060248301529091169063dd62ed3e90604401602060405180830381600087803b158015612d2d57600080fd5b505af1158015612d41573d6000803e3d6000fd5b505050506040513d601f19601f82011682018060405250810190612d659190615562565b10158015612e29575082846001600160a01b03166370a08231600860008981526020019081526020016000208581548110612da257612da26154a0565b60009182526020909120015460405160e083901b6001600160e01b03191681526001600160a01b039091166004820152602401602060405180830381600087803b158015612def57600080fd5b505af1158015612e03573d6000803e3d6000fd5b505050506040513d601f19601f82011682018060405250810190612e279190615562565b105b15612e9e576040805160608101825286815264ffffffffff428116602080840191825260008486018181526001600160a01b03881682526009909252949094209251835551600192909201805493511515600160281b0265ffffffffffff199094169290911691909117919091179055612fe0565b6040805160608101825286815264ffffffffff428116602080840191825260018486018181526001600160a01b0380891660009081526009855288812097518855945196909201805491511515600160281b0265ffffffffffff1990921696861696909617179094558c825260078152848220928c16825291909152919091208054918616916323b872dd9184918a908110612f3c57612f3c6154a0565b600091825260209091206005909102016002015460405160e084901b6001600160e01b03191681526001600160a01b0392831660048201529116602482015260448101869052606401602060405180830381600087803b158015612f9f57600080fd5b505af1158015612fb3573d6000803e3d6000fd5b505050506040513d601f19601f82011682018060405250810190612fd791906157a9565b612fe057600080fd5b5080612feb816154cc565b915050612c4f565b505050505b80613002816154cc565b915050612af1565b50508080613017906154cc565b915050612ac8565b505050565b600061302e6134ae565b6000613039426135e0565b600d5490915064ffffffffff6101009091048116908216116130825760405162461bcd60e51b81526020600482015260026024820152610c4d60f21b6044820152606401610419565b600d54610100900464ffffffffff165b8164ffffffffff168164ffffffffff16116130de5764ffffffffff8116600090815260056020526040902054156130cc5760019250505090565b806130d68161576c565b915050613092565b50600091505090565b6130ef6135af565b6131058135610d06610100840160e08501615597565b6131355760405162461bcd60e51b81526020600482015260016024820152603760f81b6044820152606401610419565b803560009081526008602090815260408083208054825181850281018501909352808352919290919083018282801561319757602002820191906000526020600020905b81546001600160a01b03168152600190910190602001808311613179575b5050505050905060005b81518110156131e3576131d183600001358383815181106131c4576131c46154a0565b60200260200101516149bb565b806131db816154cc565b9150506131a1565b5060006007816131f960e0860160c087016155b2565b600181111561320a5761320a615067565b815260200190815260200160002060008460e001602081019061322d9190615597565b64ffffffffff1664ffffffffff168152602001908152602001600020805480602002602001604051908101604052809291908181526020016000905b828210156133d7576000848152602090819020604080516101208101825260058602909201805483526001808201549484019490945260028101546001600160a01b03908116928401929092526003810154918216606084015260ff600160a01b8304811615156080850152600160a81b83048116151560a08501529293909260c0850192600160b01b9004169081111561330657613306615067565b600181111561331757613317615067565b81526003820154600160b81b900464ffffffffff166020820152600482018054604090920191613346906157cb565b80601f0160208091040260200160405190810160405280929190818152602001828054613372906157cb565b80156133bf5780601f10613394576101008083540402835291602001916133bf565b820191906000526020600020905b8154815290600101906020018083116133a257829003601f168201915b50505050508152505081526020019060010190613269565b50505050905060005b825181101561123a578360000135828281518110613400576134006154a0565b6020026020010151600001511415613468576007600061342660e0870160c088016155b2565b600181111561343757613437615067565b815260200190815260200160002060008560e001602081019061345a9190615597565b64ffffffffff168152602001525b80613472816154cc565b9150506133e0565b6134826135af565b3460025411156134a45760405162461bcd60e51b81526004016104199061552c565b610dd081336149bb565b6000546001600160a01b031633146134ec5760405162461bcd60e51b81526020600482015260016024820152600360fc1b6044820152606401610419565b565b600080600c80548060200260200160405190810160405280929190818152602001828054801561354757602002820191906000526020600020905b81546001600160a01b03168152600190910190602001808311613529575b505050505090506000915060005b81518110156135a857818181518110613570576135706154a0565b60200260200101516001600160a01b0316846001600160a01b0316141561359657600192505b806135a0816154cc565b915050613555565b5050919050565b336134ec5760405162461bcd60e51b81526020600482015260016024820152603360f81b6044820152606401610419565b60006135ee610e1083615806565b92915050565b64ffffffffff81166000908152600560205260409020546001141561363f5764ffffffffff8116600090815260056020526040812061363291614e19565b61363b81614b01565b5050565b64ffffffffff811660009081526005602052604081209080805b835481101561374a57336001600160a01b031684828154811061367e5761367e6154a0565b60009182526020909120600160059092020101546001600160a01b031614156136af57816136ab816154cc565b9250505b858482815481106136c2576136c26154a0565b9060005260206000209060050201600001541415613738578092508381815481106136ef576136ef6154a0565b6000918252602082206005909102018181556001810180546001600160a01b031990811690915560028201805490911690556003810180546001600160d01b0319169055600401555b80613742816154cc565b915050613659565b508254839061375b906001906154e7565b8154811061376b5761376b6154a0565b906000526020600020906005020183838154811061378b5761378b6154a0565b60009182526020909120825460059092020190815560018083015490820180546001600160a01b03199081166001600160a01b039384161790915560028085015490840180548316918416919091179055600380850180548286018054948516919095169081178555815464ffffffffff600160a01b9182900416026001600160c81b03199094161792909217808455915460ff600160c81b9182900416939260ff60c81b191691849081111561384457613844615067565b0217905550600491820154910155825483908061386357613863615516565b600082815260208120600560001990930192830201818155600181810180546001600160a01b031990811690915560028301805490911690556003820180546001600160d01b031916905560049091019190915591558114156138c9576138c984614b01565b6000805b6006548110156139165786600682815481106138eb576138eb6154a0565b9060005260206000200154141561390457809150613916565b8061390e816154cc565b9150506138cd565b5060068054613927906001906154e7565b81548110613937576139376154a0565b906000526020600020015460068281548110613955576139556154a0565b600091825260209091200155600680548061397257613972615516565b60019003818190600052602060002001600090559055505050505050565b613998614dcd565b600033868487426040516020016139b395949392919061582a565b604051602081830303815290604052805190602001209050604051806101200160405280828152602001888152602001336001600160a01b03168152602001876001600160a01b03168152602001600115158152602001600015158152602001856001811115613a2557613a25615067565b81526020018464ffffffffff1681526020018681525091505095945050505050565b33600090815260036020526040902054600160a01b900460ff16613ad15733600081815260036020526040812080546001600160a01b03199081168417825560048054600181019091557f8a35acfbc15ff81a39ae7d344fd709f28e8600b4aa8c65c6b64bfe7fe36bd19b01805490911684179055919052805460ff60a01b1916600160a01b1790555b33600090815260036020908152604080832060029081018054600181810183559186529484902086519590920290910193845591840151838301805464ffffffffff90921664ffffffffff19831681178255928601518695949093919265ffffffffffff191690911790600160281b908490811115613b5257613b52615067565b0217905550505050565b60008060405180606001604052808681526020018564ffffffffff168152602001846001811115613b8f57613b8f615067565b905290506000613b9e82613bc3565b9050806080015115613bb557600192505050613bbc565b6000925050505b9392505050565b613bcb614dcd565b60006007600084604001516001811115613be757613be7615067565b81526020019081526020016000206000846020015164ffffffffff1664ffffffffff168152602001908152602001600020805480602002602001604051908101604052809291908181526020016000905b82821015613da6576000848152602090819020604080516101208101825260058602909201805483526001808201549484019490945260028101546001600160a01b03908116928401929092526003810154918216606084015260ff600160a01b8304811615156080850152600160a81b83048116151560a08501529293909260c0850192600160b01b90041690811115613cd557613cd5615067565b6001811115613ce657613ce6615067565b81526003820154600160b81b900464ffffffffff166020820152600482018054604090920191613d15906157cb565b80601f0160208091040260200160405190810160405280929190818152602001828054613d41906157cb565b8015613d8e5780601f10613d6357610100808354040283529160200191613d8e565b820191906000526020600020905b815481529060010190602001808311613d7157829003601f168201915b50505050508152505081526020019060010190613c38565b50505050905060005b81518110156135a8578360000151828281518110613dcf57613dcf6154a0565b6020026020010151600001511415613dfe57818181518110613df357613df36154a0565b602002602001015192505b80613e08816154cc565b915050613daf565b428164ffffffffff1611613e4a5760405162461bcd60e51b81526020600482015260016024820152600d60fa1b6044820152606401610419565b613e56610e108261588b565b64ffffffffff1615610dd05760405162461bcd60e51b81526020600482015260016024820152601b60f91b6044820152606401610419565b613e96614d0c565b6040516bffffffffffffffffffffffff19606088901b1660208201526001600160d81b031960d885901b1660348201524260398201526000906059016040516020818303038152906040528051906020012090506040518060e00160405280828152602001886001600160a01b03168152602001876001600160a01b03168152602001866001600160a01b031681526020018564ffffffffff16815260200160006003811115613f4857613f48615067565b815260200184905291505095945050505050565b33600090815260036020526040902054600160a01b900460ff1661402457336000818152600360209081526040822080546001600160a01b0319908116851782556004805460018181019092557f8a35acfbc15ff81a39ae7d344fd709f28e8600b4aa8c65c6b64bfe7fe36bd19b01805490921690951790558054600160a01b60ff60a01b199091161781558301805493840181558252902060068083049091018054919092066005026101000a64ffffffffff818102199092169390911602919091179055565b336000908152600360209081526040808320600101805482518185028101850190935280835291929091908301828280156140ac57602002820191906000526020600020906000905b82829054906101000a900464ffffffffff1664ffffffffff168152602001906005019060208260040104928301926001038202915080841161406d5790505b505050505090506140bd82826148fd565b61363b575033600090815260036020908152604082206001908101805491820181558352912060068083049091018054919092066005026101000a64ffffffffff818102199092169390911602919091179055565b600081600114806141235750816003145b8061412e5750816005145b806141395750816007145b806141445750816008145b8061414f575081600a145b8061415a575081600c145b156141675750601f6135ee565b816002146141775750601e6135ee565b61418083614cd0565b61418b57601c61418e565b601d5b60ff169392505050565b600d5460ff16610dd0576000806000835167ffffffffffffffff8111156141c1576141c1615335565b6040519080825280602002602001820160405280156141fa57816020015b6141e7614d0c565b8152602001906001900390816141df5790505b50905060005b84518110156145ff5760006001600160a01b0316858281518110614226576142266154a0565b6020026020010151606001516001600160a01b031614156142b657848181518110614253576142536154a0565b602002602001015160c001518461426a91906154fe565b935084818151811061427e5761427e6154a0565b6020026020010151828481518110614298576142986154a0565b602002602001018190525082806142ae906154cc565b9350506145ed565b8481815181106142c8576142c86154a0565b602002602001015160c001518582815181106142e6576142e66154a0565b6020026020010151606001516001600160a01b031663dd62ed3e878481518110614312576143126154a0565b60209081029190910181015101516040516001600160e01b031960e084901b1681526001600160a01b039091166004820152306024820152604401602060405180830381600087803b15801561436757600080fd5b505af115801561437b573d6000803e3d6000fd5b505050506040513d601f19601f8201168201806040525081019061439f9190615562565b108061448d57508481815181106143b8576143b86154a0565b602002602001015160c001518582815181106143d6576143d66154a0565b6020026020010151606001516001600160a01b03166370a08231878481518110614402576144026154a0565b6020026020010151602001516040518263ffffffff1660e01b815260040161443991906001600160a01b0391909116815260200190565b602060405180830381600087803b15801561445357600080fd5b505af1158015614467573d6000803e3d6000fd5b505050506040513d601f19601f8201168201806040525081019061448b9190615562565b105b1561451f576002600560008784815181106144aa576144aa6154a0565b60200260200101516080015164ffffffffff1664ffffffffff16815260200190815260200160002082815481106144e3576144e36154a0565b906000526020600020906005020160030160196101000a81548160ff0219169083600381111561451557614515615067565b02179055506145ed565b848181518110614531576145316154a0565b602002602001015182848151811061454b5761454b6154a0565b60200260200101819052508280614561906154cc565b93505060016005600087848151811061457c5761457c6154a0565b60200260200101516080015164ffffffffff1664ffffffffff16815260200190815260200160002082815481106145b5576145b56154a0565b906000526020600020906005020160030160196101000a81548160ff021916908360038111156145e7576145e7615067565b02179055505b806145f7816154cc565b915050614200565b508247116146345760405162461bcd60e51b8152602060048201526002602482015261313160f01b6044820152606401610419565b60005b81518110156117c957818181518110614652576146526154a0565b602002602001015160c00151600a6000848481518110614674576146746154a0565b6020026020010151602001516001600160a01b03166001600160a01b0316815260200190815260200160002060008484815181106146b4576146b46154a0565b6020026020010151606001516001600160a01b03166001600160a01b0316815260200190815260200160002060008282546146ef91906154e7565b9091555050815160009083908390811061470b5761470b6154a0565b6020026020010151606001516001600160a01b031614156147c457600082828151811061473a5761473a6154a0565b6020026020010151604001516001600160a01b03166108fc848481518110614764576147646154a0565b602002602001015160c001519081150290604051600060405180830381858888f193505050509050806147be5760405162461bcd60e51b8152602060048201526002602482015261189960f11b6044820152606401610419565b506148dd565b8181815181106147d6576147d66154a0565b6020026020010151606001516001600160a01b03166323b872dd838381518110614802576148026154a0565b602002602001015160200151848481518110614820576148206154a0565b60200260200101516040015185858151811061483e5761483e6154a0565b602090810291909101015160c001516040516001600160e01b031960e086901b1681526001600160a01b0393841660048201529290911660248301526044820152606401602060405180830381600087803b15801561489c57600080fd5b505af11580156148b0573d6000803e3d6000fd5b505050506040513d601f19601f820116820180604052508101906148d491906157a9565b6148dd57600080fd5b806148e7816154cc565b915050614637565b60006135ee82610e106158af565b6000805b8251811015614955578364ffffffffff16838281518110614924576149246154a0565b602002602001015164ffffffffff1614156149435760019150506135ee565b8061494d816154cc565b915050614901565b5060009392505050565b6000805b825181101561495557836001600160a01b0316838281518110614988576149886154a0565b60200260200101516001600160a01b031614156149a95760019150506135ee565b806149b3816154cc565b915050614963565b600082815260086020526040812090805b82548110156117c957836001600160a01b03168382815481106149f1576149f16154a0565b6000918252602090912001546001600160a01b03161415614a3f57809150828181548110614a2157614a216154a0565b600091825260209091200180546001600160a01b03191690556117c9565b82548390614a4f906001906154e7565b81548110614a5f57614a5f6154a0565b9060005260206000200160009054906101000a90046001600160a01b0316838381548110614a8f57614a8f6154a0565b9060005260206000200160006101000a8154816001600160a01b0302191690836001600160a01b0316021790555082805480614acd57614acd615516565b600082815260209020810160001990810180546001600160a01b031916905501905580614af9816154cc565b9150506149cc565b3360009081526003602052604090206001908101541415614b3a57336000908152600360205260408120610dd091600190910190614e3a565b33600090815260036020526040812060010190805b8254811015614bfb578364ffffffffff16838281548110614b7257614b726154a0565b90600052602060002090600691828204019190066005029054906101000a900464ffffffffff1664ffffffffff161415614be957809150828181548110614bbb57614bbb6154a0565b90600052602060002090600691828204019190066005026101000a81549064ffffffffff0219169055614bfb565b80614bf3816154cc565b915050614b4f565b5081548290614c0c906001906154e7565b81548110614c1c57614c1c6154a0565b90600052602060002090600691828204019190066005029054906101000a900464ffffffffff16828281548110614c5557614c556154a0565b90600052602060002090600691828204019190066005026101000a81548164ffffffffff021916908364ffffffffff16021790555081805480614c9a57614c9a615516565b60019003818190600052602060002090600691828204019190066005026101000a81549064ffffffffff02191690559055505050565b6000614cdd6004836158dc565b158015614cf35750614cf06064836158dc565b15155b806135ee5750614d05610190836158dc565b1592915050565b6040805160e08101825260008082526020820181905291810182905260608101829052608081018290529060a08201908152602001600081525090565b828054614d55906157cb565b90600052602060002090601f016020900481019282614d775760008555614dbd565b82601f10614d9057805160ff1916838001178555614dbd565b82800160010185558215614dbd579182015b82811115614dbd578251825591602001919060010190614da2565b50614dc9929150614e5b565b5090565b6040805161012081018252600080825260208201819052918101829052606081018290526080810182905260a081018290529060c0820190815260006020820152606060409091015290565b5080546000825560050290600052602060002090810190610dd09190614e70565b508054600082556005016006900490600052602060002090810190610dd091905b5b80821115614dc95760008155600101614e5c565b5b80821115614dc95760008082556001820180546001600160a01b031990811690915560028301805490911690556003820180546001600160d01b03191690556004820155600501614e71565b6001600160a01b0381168114610dd057600080fd5b600060208284031215614ee457600080fd5b8135613bbc81614ebd565b803564ffffffffff81168114614f0457600080fd5b919050565b600080600060608486031215614f1e57600080fd5b83359250614f2e60208501614eef565b91506040840135614f3e81614ebd565b809150509250925092565b803560028110614f0457600080fd5b60008060008060008060a08789031215614f7157600080fd5b863595506020870135614f8381614ebd565b9450604087013567ffffffffffffffff80821115614fa057600080fd5b818901915089601f830112614fb457600080fd5b813581811115614fc357600080fd5b8a6020828501011115614fd557600080fd5b602083019650809550505050614fed60608801614f49565b9150608087013561ffff8116811461500457600080fd5b809150509295509295509295565b60006020828403121561502457600080fd5b5035919050565b60006020828403121561503d57600080fd5b813567ffffffffffffffff81111561505457600080fd5b82016101208185031215613bbc57600080fd5b634e487b7160e01b600052602160045260246000fd5b6002811061508d5761508d615067565b9052565b60005b838110156150ac578181015183820152602001615094565b8381111561123a5750506000910152565b600081518084526150d5816020860160208601615091565b601f01601f19169290920160200192915050565b60006020808301818452808551808352604092508286019150828160051b87010184880160005b838110156151be57603f198984030185528151805184528781015188850152868101516001600160a01b03908116888601526060808301519091169085015260808082015115159085015260a08082015115159085015260c080820151610120919061517e8288018261507d565b505060e08281015164ffffffffff1690860152610100918201519185018190526151aa818601836150bd565b968901969450505090860190600101615110565b509098975050505050505050565b600080600080608085870312156151e257600080fd5b84356151ed81614ebd565b93506151fb60208601614eef565b925060408501359150606085013561521281614ebd565b939692955090935050565b600080600080600085870361016081121561523757600080fd5b863561524281614ebd565b955061525060208801614eef565b945060408701359350606087013561526781614ebd565b925060e0607f198201121561527b57600080fd5b506080860190509295509295909350565b602080825282518282018190526000919060409081850190868401855b8281101561532857815180518552868101516001600160a01b0390811688870152868201518116878701526060808301519091169086015260808082015164ffffffffff169086015260a0808201516004811061530857615308615067565b9086015260c0908101519085015260e090930192908501906001016152a9565b5091979650505050505050565b634e487b7160e01b600052604160045260246000fd5b6040516080810167ffffffffffffffff8111828210171561536e5761536e615335565b60405290565b604051601f8201601f1916810167ffffffffffffffff8111828210171561539d5761539d615335565b604052919050565b600060208083850312156153b857600080fd5b823567ffffffffffffffff808211156153d057600080fd5b818501915085601f8301126153e457600080fd5b8135818111156153f6576153f6615335565b615404848260051b01615374565b818152848101925060079190911b83018401908782111561542457600080fd5b928401925b8184101561549557608084890312156154425760008081fd5b61544a61534b565b843561545581614ebd565b8152615462858701614eef565b818701526040858101359082015260608086013561547f81614ebd565b9082015283526080939093019291840191615429565b979650505050505050565b634e487b7160e01b600052603260045260246000fd5b634e487b7160e01b600052601160045260246000fd5b60006000198214156154e0576154e06154b6565b5060010190565b6000828210156154f9576154f96154b6565b500390565b60008219821115615511576155116154b6565b500190565b634e487b7160e01b600052603160045260246000fd5b6020808252600190820152603560f81b604082015260600190565b6020808252600190820152603960f81b604082015260600190565b60006020828403121561557457600080fd5b5051919050565b602080825260029082015261313360f01b604082015260600190565b6000602082840312156155a957600080fd5b613bbc82614eef565b6000602082840312156155c457600080fd5b613bbc82614f49565b60008160001904831182151516156155e7576155e76154b6565b500290565b634e487b7160e01b600052601260045260246000fd5b600082615611576156116155ec565b500490565b600080821280156001600160ff1b0384900385131615615638576156386154b6565b600160ff1b8390038412811615615651576156516154b6565b50500190565b60006001600160ff1b038184138284138082168684048611161561567d5761567d6154b6565b600160ff1b600087128281168783058912161561569c5761569c6154b6565b600087129250878205871284841616156156b8576156b86154b6565b878505871281841616156156ce576156ce6154b6565b505050929093029392505050565b6000826156eb576156eb6155ec565b600160ff1b821460001984141615615705576157056154b6565b500590565b60008083128015600160ff1b850184121615615728576157286154b6565b6001600160ff1b0384018313811615615743576157436154b6565b50500390565b60006020828403121561575b57600080fd5b813560ff81168114613bbc57600080fd5b600064ffffffffff80831681811415615787576157876154b6565b6001019392505050565b600061ffff80831681811415615787576157876154b6565b6000602082840312156157bb57600080fd5b81518015158114613bbc57600080fd5b600181811c908216806157df57607f821691505b6020821081141561580057634e487b7160e01b600052602260045260246000fd5b50919050565b600064ffffffffff8084168061581e5761581e6155ec565b92169190910492915050565b60006bffffffffffffffffffffffff19808860601b168352808760601b1660148401525064ffffffffff60d81b8560d81b166028830152835161587481602d850160208801615091565b602d920191820192909252604d0195945050505050565b600064ffffffffff808416806158a3576158a36155ec565b92169190910692915050565b600064ffffffffff808316818516818304811182151516156158d3576158d36154b6565b02949350505050565b6000826158eb576158eb6155ec565b50069056fea2646970667358221220793511a3c1d524afa7c22262a63665efcaed76e0946be822481ecc690595025f64736f6c63430008090033",
  "linkReferences": {},
  "deployedLinkReferences": {}
}