{
  "_format": "hh-sol-artifact-1",
  "contractName": "Clocktower",
  "sourceName": "contracts/Clocktower.sol",
  "abi": [
    {
      "inputs": [],
      "stateMutability": "payable",
      "type": "constructor"
    },
    {
      "anonymous": false,
      "inputs": [
        {
          "indexed": false,
          "internalType": "string",
          "name": "output2",
          "type": "string"
        }
      ],
      "name": "CheckStatus",
      "type": "event"
    },
    {
      "anonymous": false,
      "inputs": [
        {
          "indexed": false,
          "internalType": "string",
          "name": "output",
          "type": "string"
        }
      ],
      "name": "Status",
      "type": "event"
    },
    {
      "anonymous": false,
      "inputs": [
        {
          "indexed": false,
          "internalType": "address",
          "name": "sender",
          "type": "address"
        },
        {
          "indexed": false,
          "internalType": "address",
          "name": "receiver",
          "type": "address"
        },
        {
          "indexed": false,
          "internalType": "uint40",
          "name": "timeTrigger",
          "type": "uint40"
        },
        {
          "indexed": false,
          "internalType": "uint256",
          "name": "payload",
          "type": "uint256"
        }
      ],
      "name": "TransactionAdd",
      "type": "event"
    },
    {
      "anonymous": false,
      "inputs": [
        {
          "indexed": false,
          "internalType": "bool",
          "name": "sent",
          "type": "bool"
        }
      ],
      "name": "TransactionSent",
      "type": "event"
    },
    {
      "stateMutability": "payable",
      "type": "fallback"
    },
    {
      "inputs": [
        {
          "internalType": "address payable",
          "name": "receiver",
          "type": "address"
        },
        {
          "internalType": "uint40",
          "name": "timeTrigger",
          "type": "uint40"
        },
        {
          "internalType": "uint256",
          "name": "payload",
          "type": "uint256"
        }
      ],
      "name": "addTransaction",
      "outputs": [],
      "stateMutability": "nonpayable",
      "type": "function"
    },
    {
      "inputs": [],
      "name": "checkTime",
      "outputs": [],
      "stateMutability": "nonpayable",
      "type": "function"
    },
    {
      "inputs": [],
      "name": "hoursSinceMerge",
      "outputs": [
        {
          "internalType": "uint40",
          "name": "hourCount",
          "type": "uint40"
        }
      ],
      "stateMutability": "view",
      "type": "function"
    },
    {
      "stateMutability": "payable",
      "type": "receive"
    }
  ],
  "bytecode": "0x608060405262ed14f1600160006101000a81548163ffffffff021916908363ffffffff16021790555063632363e8600160046101000a81548164ffffffffff021916908364ffffffffff16021790555060646002556110e5806100636000396000f3fe6080604052600436106100385760003560e01c806339ad38c114610041578063e0c6190d1461006a578063f05cc2ed146100815761003f565b3661003f57005b005b34801561004d57600080fd5b5061006860048036038101906100639190610cb1565b6100ac565b005b34801561007657600080fd5b5061007f61026b565b005b34801561008d57600080fd5b50610096610496565b6040516100a39190610d13565b60405180910390f35b600033905060006100bc846104e3565b905060008180549050905060006100d68488888589610505565b9050808360018160018154018082558091505003906000526020600020906004020160008201518160000160006101000a81548173ffffffffffffffffffffffffffffffffffffffff021916908373ffffffffffffffffffffffffffffffffffffffff16021790555060208201518160010160006101000a81548173ffffffffffffffffffffffffffffffffffffffff021916908373ffffffffffffffffffffffffffffffffffffffff16021790555060408201518160010160146101000a81548164ffffffffff021916908364ffffffffff16021790555060608201518160010160196101000a81548160ff0219169083151502179055506080820151816002015560a082015181600301559050507f6e643cb89831cd75ded50b4ecee0e313701b6002fc48e8b80a3c05447ab066e88488888860405161021b9493929190610dbd565b60405180910390a17f2844c95bf1b4598da931d527f903501abc60fe0199c65da52d5ce818c6c5e96160405161025090610e5f565b60405180910390a1610262838761057b565b50505050505050565b600060679050600060025490505b8181116104925760607fd0467e87c925b3aaa75daa9ae7ddbc4e3fb9e730bc9d328e6732e9eb541dd8c96040516102af90610ecb565b60405180910390a1600080838152602001908152602001600020805480602002602001604051908101604052809291908181526020016000905b8282101561041f57838290600052602060002090600402016040518060c00160405290816000820160009054906101000a900473ffffffffffffffffffffffffffffffffffffffff1673ffffffffffffffffffffffffffffffffffffffff1673ffffffffffffffffffffffffffffffffffffffff1681526020016001820160009054906101000a900473ffffffffffffffffffffffffffffffffffffffff1673ffffffffffffffffffffffffffffffffffffffff1673ffffffffffffffffffffffffffffffffffffffff1681526020016001820160149054906101000a900464ffffffffff1664ffffffffff1664ffffffffff1681526020016001820160199054906101000a900460ff1615151515815260200160028201548152602001600382015481525050815260200190600101906102e9565b50505050905060008151111561047e5760005b600182516104409190610f1a565b811161047c5761046982828151811061045c5761045b610f4e565b5b60200260200101516105a8565b808061047490610f7d565b915050610432565b505b50808061048a90610f7d565b915050610279565b5050565b6000804290506000600160049054906101000a900464ffffffffff16826104bd9190610fc5565b9050603c816104cc919061102d565b92506104de8364ffffffffff16610864565b505090565b60008060008364ffffffffff1681526020019081526020016000209050919050565b61050d61092e565b6040518060c001604052808773ffffffffffffffffffffffffffffffffffffffff1681526020018673ffffffffffffffffffffffffffffffffffffffff1681526020018564ffffffffff16815260200160001515815260200184815260200183815250905095945050505050565b816000808364ffffffffff1681526020019081526020016000209080546105a3929190610999565b505050565b8060a001516105b56108fd565b111561082857806020015173ffffffffffffffffffffffffffffffffffffffff166108fc8260a001519081150290604051600060405180830381858888f19350505050156107ea577fa2ea5b0db1d57b0e32df654aa9a1a97bc8066881e37669ff488d2bebe87c9f87600160405161062d9190611079565b60405180910390a160018160600190151590811515815250506000806000836040015164ffffffffff168152602001908152602001600020805480602002602001604051908101604052809291908181526020016000905b828210156107bb57838290600052602060002090600402016040518060c00160405290816000820160009054906101000a900473ffffffffffffffffffffffffffffffffffffffff1673ffffffffffffffffffffffffffffffffffffffff1673ffffffffffffffffffffffffffffffffffffffff1681526020016001820160009054906101000a900473ffffffffffffffffffffffffffffffffffffffff1673ffffffffffffffffffffffffffffffffffffffff1673ffffffffffffffffffffffffffffffffffffffff1681526020016001820160149054906101000a900464ffffffffff1664ffffffffff1664ffffffffff1681526020016001820160199054906101000a900460ff161515151581526020016002820154815260200160038201548152505081526020019060010190610685565b50505050905081818360800151815181106107d9576107d8610f4e565b5b602002602001018190525050610823565b7fa2ea5b0db1d57b0e32df654aa9a1a97bc8066881e37669ff488d2bebe87c9f87600060405161081a9190611079565b60405180910390a15b610861565b7fa2ea5b0db1d57b0e32df654aa9a1a97bc8066881e37669ff488d2bebe87c9f8760006040516108589190611079565b60405180910390a15b50565b6108fa816040516024016108789190611094565b6040516020818303038152906040527ff82c50f1000000000000000000000000000000000000000000000000000000007bffffffffffffffffffffffffffffffffffffffffffffffffffffffff19166020820180517bffffffffffffffffffffffffffffffffffffffffffffffffffffffff8381831617835250505050610905565b50565b600047905090565b60008151905060006a636f6e736f6c652e6c6f679050602083016000808483855afa5050505050565b6040518060c00160405280600073ffffffffffffffffffffffffffffffffffffffff168152602001600073ffffffffffffffffffffffffffffffffffffffff168152602001600064ffffffffff16815260200160001515815260200160008152602001600081525090565b828054828255906000526020600020906004028101928215610b295760005260206000209160040282015b82811115610b285782826000820160009054906101000a900473ffffffffffffffffffffffffffffffffffffffff168160000160006101000a81548173ffffffffffffffffffffffffffffffffffffffff021916908373ffffffffffffffffffffffffffffffffffffffff1602179055506001820160009054906101000a900473ffffffffffffffffffffffffffffffffffffffff168160010160006101000a81548173ffffffffffffffffffffffffffffffffffffffff021916908373ffffffffffffffffffffffffffffffffffffffff1602179055506001820160149054906101000a900464ffffffffff168160010160146101000a81548164ffffffffff021916908364ffffffffff1602179055506001820160199054906101000a900460ff168160010160196101000a81548160ff02191690831515021790555060028201548160020155600382015481600301555050916004019190600401906109c4565b5b509050610b369190610b3a565b5090565b5b80821115610bd757600080820160006101000a81549073ffffffffffffffffffffffffffffffffffffffff02191690556001820160006101000a81549073ffffffffffffffffffffffffffffffffffffffff02191690556001820160146101000a81549064ffffffffff02191690556001820160196101000a81549060ff02191690556002820160009055600382016000905550600401610b3b565b5090565b600080fd5b600073ffffffffffffffffffffffffffffffffffffffff82169050919050565b6000610c0b82610be0565b9050919050565b610c1b81610c00565b8114610c2657600080fd5b50565b600081359050610c3881610c12565b92915050565b600064ffffffffff82169050919050565b610c5881610c3e565b8114610c6357600080fd5b50565b600081359050610c7581610c4f565b92915050565b6000819050919050565b610c8e81610c7b565b8114610c9957600080fd5b50565b600081359050610cab81610c85565b92915050565b600080600060608486031215610cca57610cc9610bdb565b5b6000610cd886828701610c29565b9350506020610ce986828701610c66565b9250506040610cfa86828701610c9c565b9150509250925092565b610d0d81610c3e565b82525050565b6000602082019050610d286000830184610d04565b92915050565b6000610d3982610be0565b9050919050565b610d4981610d2e565b82525050565b6000819050919050565b6000610d74610d6f610d6a84610be0565b610d4f565b610be0565b9050919050565b6000610d8682610d59565b9050919050565b6000610d9882610d7b565b9050919050565b610da881610d8d565b82525050565b610db781610c7b565b82525050565b6000608082019050610dd26000830187610d40565b610ddf6020830186610d9f565b610dec6040830185610d04565b610df96060830184610dae565b95945050505050565b600082825260208201905092915050565b7f5075736865640000000000000000000000000000000000000000000000000000600082015250565b6000610e49600683610e02565b9150610e5482610e13565b602082019050919050565b60006020820190508181036000830152610e7881610e3c565b9050919050565b7f646f6e6500000000000000000000000000000000000000000000000000000000600082015250565b6000610eb5600483610e02565b9150610ec082610e7f565b602082019050919050565b60006020820190508181036000830152610ee481610ea8565b9050919050565b7f4e487b7100000000000000000000000000000000000000000000000000000000600052601160045260246000fd5b6000610f2582610c7b565b9150610f3083610c7b565b9250828203905081811115610f4857610f47610eeb565b5b92915050565b7f4e487b7100000000000000000000000000000000000000000000000000000000600052603260045260246000fd5b6000610f8882610c7b565b91507fffffffffffffffffffffffffffffffffffffffffffffffffffffffffffffffff8203610fba57610fb9610eeb565b5b600182019050919050565b6000610fd082610c3e565b9150610fdb83610c3e565b9250828203905064ffffffffff811115610ff857610ff7610eeb565b5b92915050565b7f4e487b7100000000000000000000000000000000000000000000000000000000600052601260045260246000fd5b600061103882610c3e565b915061104383610c3e565b92508261105357611052610ffe565b5b828204905092915050565b60008115159050919050565b6110738161105e565b82525050565b600060208201905061108e600083018461106a565b92915050565b60006020820190506110a96000830184610dae565b9291505056fea26469706673582212208391de06f96b00f9cc9c50cb29407a9c9de3b27831713c18dcdd2c8722c32d2164736f6c63430008110033",
  "linkReferences": {},
  "deployedLinkReferences": {}
}