{
  "_format": "hh-sol-artifact-1",
  "contractName": "Clocktower",
  "sourceName": "contracts/Clocktower.sol",
  "abi": [
    {
      "inputs": [],
      "stateMutability": "payable",
      "type": "constructor"
    },
    {
      "anonymous": false,
      "inputs": [
        {
          "indexed": false,
          "internalType": "string",
          "name": "output4",
          "type": "string"
        }
      ],
      "name": "AccountCreated",
      "type": "event"
    },
    {
      "anonymous": false,
      "inputs": [
        {
          "indexed": false,
          "internalType": "string",
          "name": "output2",
          "type": "string"
        }
      ],
      "name": "CheckStatus",
      "type": "event"
    },
    {
      "anonymous": false,
      "inputs": [
        {
          "indexed": false,
          "internalType": "address",
          "name": "user",
          "type": "address"
        },
        {
          "indexed": false,
          "internalType": "uint256",
          "name": "amount",
          "type": "uint256"
        }
      ],
      "name": "ReceiveETH",
      "type": "event"
    },
    {
      "anonymous": false,
      "inputs": [
        {
          "indexed": false,
          "internalType": "string",
          "name": "output",
          "type": "string"
        }
      ],
      "name": "Status",
      "type": "event"
    },
    {
      "anonymous": false,
      "inputs": [
        {
          "indexed": false,
          "internalType": "address",
          "name": "sender",
          "type": "address"
        },
        {
          "indexed": false,
          "internalType": "address",
          "name": "receiver",
          "type": "address"
        },
        {
          "indexed": false,
          "internalType": "uint40",
          "name": "timeTrigger",
          "type": "uint40"
        },
        {
          "indexed": false,
          "internalType": "uint256",
          "name": "payload",
          "type": "uint256"
        }
      ],
      "name": "TransactionAdd",
      "type": "event"
    },
    {
      "anonymous": false,
      "inputs": [
        {
          "indexed": false,
          "internalType": "bool",
          "name": "sent",
          "type": "bool"
        }
      ],
      "name": "TransactionSent",
      "type": "event"
    },
    {
      "anonymous": false,
      "inputs": [
        {
          "indexed": false,
          "internalType": "string",
          "name": "output3",
          "type": "string"
        }
      ],
      "name": "UnknownFunction",
      "type": "event"
    },
    {
      "stateMutability": "payable",
      "type": "fallback"
    },
    {
      "inputs": [
        {
          "components": [
            {
              "internalType": "address payable",
              "name": "receiver",
              "type": "address"
            },
            {
              "internalType": "uint40",
              "name": "unixTime",
              "type": "uint40"
            },
            {
              "internalType": "uint256",
              "name": "payload",
              "type": "uint256"
            },
            {
              "internalType": "address",
              "name": "token",
              "type": "address"
            }
          ],
          "internalType": "struct Clocktower.Batch[]",
          "name": "batch",
          "type": "tuple[]"
        }
      ],
      "name": "addBatchTransactions",
      "outputs": [],
      "stateMutability": "payable",
      "type": "function"
    },
    {
      "inputs": [
        {
          "internalType": "address",
          "name": "erc20Contract",
          "type": "address"
        }
      ],
      "name": "addERC20Contract",
      "outputs": [],
      "stateMutability": "nonpayable",
      "type": "function"
    },
    {
      "inputs": [
        {
          "internalType": "address payable",
          "name": "receiver",
          "type": "address"
        },
        {
          "internalType": "uint40",
          "name": "unixTime",
          "type": "uint40"
        },
        {
          "internalType": "uint256",
          "name": "payload",
          "type": "uint256"
        },
        {
          "internalType": "address",
          "name": "token",
          "type": "address"
        },
        {
          "components": [
            {
              "internalType": "address",
              "name": "owner",
              "type": "address"
            },
            {
              "internalType": "address",
              "name": "spender",
              "type": "address"
            },
            {
              "internalType": "uint256",
              "name": "value",
              "type": "uint256"
            },
            {
              "internalType": "uint256",
              "name": "deadline",
              "type": "uint256"
            },
            {
              "internalType": "uint8",
              "name": "v",
              "type": "uint8"
            },
            {
              "internalType": "bytes32",
              "name": "r",
              "type": "bytes32"
            },
            {
              "internalType": "bytes32",
              "name": "s",
              "type": "bytes32"
            }
          ],
          "internalType": "struct Clocktower.Permit",
          "name": "permit",
          "type": "tuple"
        }
      ],
      "name": "addTransaction",
      "outputs": [],
      "stateMutability": "payable",
      "type": "function"
    },
    {
      "inputs": [],
      "name": "allAccounts",
      "outputs": [
        {
          "components": [
            {
              "internalType": "address",
              "name": "accountAddress",
              "type": "address"
            },
            {
              "internalType": "bool",
              "name": "exists",
              "type": "bool"
            },
            {
              "internalType": "uint40[]",
              "name": "timeTriggers",
              "type": "uint40[]"
            }
          ],
          "internalType": "struct Clocktower.Account[]",
          "name": "",
          "type": "tuple[]"
        }
      ],
      "stateMutability": "view",
      "type": "function"
    },
    {
      "inputs": [],
      "name": "allTransactions",
      "outputs": [
        {
          "components": [
            {
              "internalType": "bytes32",
              "name": "id",
              "type": "bytes32"
            },
            {
              "internalType": "address",
              "name": "sender",
              "type": "address"
            },
            {
              "internalType": "address payable",
              "name": "receiver",
              "type": "address"
            },
            {
              "internalType": "address",
              "name": "token",
              "type": "address"
            },
            {
              "internalType": "uint40",
              "name": "timeTrigger",
              "type": "uint40"
            },
            {
              "internalType": "bool",
              "name": "sent",
              "type": "bool"
            },
            {
              "internalType": "bool",
              "name": "cancelled",
              "type": "bool"
            },
            {
              "internalType": "bool",
              "name": "failed",
              "type": "bool"
            },
            {
              "internalType": "uint256",
              "name": "payload",
              "type": "uint256"
            }
          ],
          "internalType": "struct Clocktower.Transaction[]",
          "name": "",
          "type": "tuple[]"
        }
      ],
      "stateMutability": "view",
      "type": "function"
    },
    {
      "inputs": [
        {
          "internalType": "bytes32",
          "name": "id",
          "type": "bytes32"
        },
        {
          "internalType": "uint40",
          "name": "timeTrigger",
          "type": "uint40"
        }
      ],
      "name": "cancelTransaction",
      "outputs": [],
      "stateMutability": "payable",
      "type": "function"
    },
    {
      "inputs": [
        {
          "internalType": "address",
          "name": "newAddress",
          "type": "address"
        }
      ],
      "name": "changeAdmin",
      "outputs": [],
      "stateMutability": "nonpayable",
      "type": "function"
    },
    {
      "inputs": [
        {
          "internalType": "uint256",
          "name": "_fee",
          "type": "uint256"
        }
      ],
      "name": "changeFee",
      "outputs": [],
      "stateMutability": "nonpayable",
      "type": "function"
    },
    {
      "inputs": [],
      "name": "checkTime",
      "outputs": [
        {
          "internalType": "bool",
          "name": "",
          "type": "bool"
        }
      ],
      "stateMutability": "view",
      "type": "function"
    },
    {
      "inputs": [],
      "name": "getAccountTransactions",
      "outputs": [
        {
          "components": [
            {
              "internalType": "bytes32",
              "name": "id",
              "type": "bytes32"
            },
            {
              "internalType": "address",
              "name": "sender",
              "type": "address"
            },
            {
              "internalType": "address payable",
              "name": "receiver",
              "type": "address"
            },
            {
              "internalType": "address",
              "name": "token",
              "type": "address"
            },
            {
              "internalType": "uint40",
              "name": "timeTrigger",
              "type": "uint40"
            },
            {
              "internalType": "bool",
              "name": "sent",
              "type": "bool"
            },
            {
              "internalType": "bool",
              "name": "cancelled",
              "type": "bool"
            },
            {
              "internalType": "bool",
              "name": "failed",
              "type": "bool"
            },
            {
              "internalType": "uint256",
              "name": "payload",
              "type": "uint256"
            }
          ],
          "internalType": "struct Clocktower.Transaction[]",
          "name": "",
          "type": "tuple[]"
        }
      ],
      "stateMutability": "view",
      "type": "function"
    },
    {
      "inputs": [],
      "name": "getFee",
      "outputs": [
        {
          "internalType": "uint256",
          "name": "",
          "type": "uint256"
        }
      ],
      "stateMutability": "view",
      "type": "function"
    },
    {
      "inputs": [],
      "name": "getTime",
      "outputs": [
        {
          "internalType": "uint256",
          "name": "",
          "type": "uint256"
        }
      ],
      "stateMutability": "view",
      "type": "function"
    },
    {
      "inputs": [
        {
          "internalType": "address",
          "name": "account",
          "type": "address"
        }
      ],
      "name": "getTransactionsByAccount",
      "outputs": [
        {
          "components": [
            {
              "internalType": "bytes32",
              "name": "id",
              "type": "bytes32"
            },
            {
              "internalType": "address",
              "name": "sender",
              "type": "address"
            },
            {
              "internalType": "address payable",
              "name": "receiver",
              "type": "address"
            },
            {
              "internalType": "address",
              "name": "token",
              "type": "address"
            },
            {
              "internalType": "uint40",
              "name": "timeTrigger",
              "type": "uint40"
            },
            {
              "internalType": "bool",
              "name": "sent",
              "type": "bool"
            },
            {
              "internalType": "bool",
              "name": "cancelled",
              "type": "bool"
            },
            {
              "internalType": "bool",
              "name": "failed",
              "type": "bool"
            },
            {
              "internalType": "uint256",
              "name": "payload",
              "type": "uint256"
            }
          ],
          "internalType": "struct Clocktower.Transaction[]",
          "name": "",
          "type": "tuple[]"
        }
      ],
      "stateMutability": "view",
      "type": "function"
    },
    {
      "inputs": [
        {
          "internalType": "address",
          "name": "erc20Contract",
          "type": "address"
        }
      ],
      "name": "removeERC20Contract",
      "outputs": [],
      "stateMutability": "nonpayable",
      "type": "function"
    },
    {
      "inputs": [
        {
          "internalType": "bytes32",
          "name": "id",
          "type": "bytes32"
        },
        {
          "internalType": "uint40",
          "name": "unixTrigger",
          "type": "uint40"
        }
      ],
      "name": "removeTransaction",
      "outputs": [],
      "stateMutability": "nonpayable",
      "type": "function"
    },
    {
      "inputs": [],
      "name": "sendTime",
      "outputs": [],
      "stateMutability": "nonpayable",
      "type": "function"
    },
    {
      "inputs": [],
      "name": "toggleContractActive",
      "outputs": [],
      "stateMutability": "nonpayable",
      "type": "function"
    },
    {
      "stateMutability": "payable",
      "type": "receive"
    }
  ],
  "bytecode": "0x6080604052600680546001600160a01b03191673f39fd6e51aad88f6f4ce6ab8827279cfffb922661790556008805460ff1916905560646009556001620000464262000074565b6200005291906200009b565b600a805464ffffffffff191664ffffffffff9290921691909117905562000103565b6000610e10620000896363236820846200009b565b620000959190620000d0565b92915050565b600064ffffffffff83811690831681811015620000c857634e487b7160e01b600052601160045260246000fd5b039392505050565b600064ffffffffff80841680620000f757634e487b7160e01b600052601260045260246000fd5b92169190910492915050565b61462b80620001136000396000f3fe6080604052600436106101025760003560e01c8063c682cce411610095578063d10fa14411610064578063d10fa144146102e7578063dc9961eb146102fa578063e0c6190d1461031a578063e415d9601461033f578063e9e1dbef1461035f57610142565b8063c682cce414610288578063ced72f871461029d578063cf0b5e45146102b2578063cf783d8a146102c557610142565b80636a1db1bf116100d15780636a1db1bf146102135780638f28397014610233578063aa58a5b014610253578063ab7e09091461026857610142565b8063053149fa146101945780631385d24c146101b65780631ccb3371146101cb578063557ed1ba146101f657610142565b3661014257604080513381523460208201527f830d2d700a97af574b186c80d40429385d24241565b08a7c559ba283a964d9b191015b60405180910390a1005b7f19525a32afaad9a5491805c356597487a306fc2f4e8541d8d55e1fe951091e606040516101389060208082526010908201526f2ab735b737bbb710333ab731ba34b7b760811b604082015260600190565b3480156101a057600080fd5b506101b46101af366004613e8e565b610372565b005b3480156101c257600080fd5b506101b461059c565b3480156101d757600080fd5b506101e06105da565b6040516101ed9190613eb2565b60405180910390f35b34801561020257600080fd5b50425b6040519081526020016101ed565b34801561021f57600080fd5b506101b461022e366004613f75565b610724565b34801561023f57600080fd5b506101b461024e366004613e8e565b610753565b34801561025f57600080fd5b506101b46107c8565b34801561027457600080fd5b506101b4610283366004613e8e565b6109dd565b34801561029457600080fd5b506101e0610ac2565b3480156102a957600080fd5b50600954610205565b6101b46102c0366004613fa3565b610f94565b3480156102d157600080fd5b506102da61142f565b6040516101ed9190614012565b6101b46102f536600461413e565b6115ed565b34801561030657600080fd5b506101e0610315366004613e8e565b6121dc565b34801561032657600080fd5b5061032f6126d7565b60405190151581526020016101ed565b34801561034b57600080fd5b506101b461035a366004614239565b61287f565b6101b461036d366004614239565b612bcf565b6006546001600160a01b031633146103a55760405162461bcd60e51b815260040161039c90614265565b60405180910390fd5b6001600160a01b0381166103b857600080fd5b6103c181612ed8565b61040d5760405162461bcd60e51b815260206004820152601960248201527f455243323020746f6b656e206e6f742061646465642079657400000000000000604482015260640161039c565b6000600780548060200260200160405190810160405280929190818152602001828054801561046557602002820191906000526020600020905b81546001600160a01b03168152600190910190602001808311610447575b505050505090506000805b82518110156104c657836001600160a01b03168382815181106104955761049561429c565b60200260200101516001600160a01b031614156104b4578091506104c6565b806104be816142c8565b915050610470565b50805b6007546104d8906001906142e3565b8110156105635760076104ec8260016142fa565b815481106104fc576104fc61429c565b600091825260209091200154600780546001600160a01b0390921691839081106105285761052861429c565b600091825260209091200180546001600160a01b0319166001600160a01b03929092169190911790558061055b816142c8565b9150506104c9565b50600780548061057557610575614312565b600082815260209020810160001990810180546001600160a01b0319169055019055505050565b6006546001600160a01b031633146105c65760405162461bcd60e51b815260040161039c90614265565b6008805460ff19811660ff90911615179055565b6006546060906001600160a01b031633146106075760405162461bcd60e51b815260040161039c90614265565b60035460009067ffffffffffffffff811115610625576106256140ce565b60405190808252806020026020018201604052801561065e57816020015b61064b613be3565b8152602001906001900390816106435790505b5090506000805b60015481101561071c5760006106a1600183815481106106875761068761429c565b6000918252602090912001546001600160a01b03166121dc565b905060005b8151811015610707578181815181106106c1576106c161429c565b60200260200101518585815181106106db576106db61429c565b602002602001018190525083806106f1906142c8565b94505080806106ff906142c8565b9150506106a6565b50508080610714906142c8565b915050610665565b509091505090565b6006546001600160a01b0316331461074e5760405162461bcd60e51b815260040161039c90614265565b600955565b6006546001600160a01b0316331461077d5760405162461bcd60e51b815260040161039c90614265565b336001600160a01b03821614801561079d57506001600160a01b03811615155b6107a657600080fd5b600680546001600160a01b0319166001600160a01b0392909216919091179055565b6006546001600160a01b031633146107f25760405162461bcd60e51b815260040161039c90614265565b60006107fd42612f99565b600a5490915064ffffffffff9081169082161161082c5760405162461bcd60e51b815260040161039c90614328565b600a5464ffffffffff165b8164ffffffffff168164ffffffffff16116109be5764ffffffffff8116600090815260026020908152604080832080548251818502810185019093528083529192909190849084015b82821015610937576000848152602090819020604080516101208101825260058602909201805483526001808201546001600160a01b039081168587015260028301548116938501939093526003820154928316606085015264ffffffffff600160a01b840416608085015260ff600160c81b84048116151560a0860152600160d01b84048116151560c0860152600160d81b909304909216151560e0840152600401546101008301529083529092019101610880565b5050505090506000815111156109ab5760005b81518110156109a9578181815181106109655761096561429c565b602002602001015160c001516109975761099782828151811061098a5761098a61429c565b6020026020010151612fbc565b806109a1816142c8565b91505061094a565b505b50806109b68161436f565b915050610837565b50600a805464ffffffffff191664ffffffffff92909216919091179055565b6006546001600160a01b03163314610a075760405162461bcd60e51b815260040161039c90614265565b6001600160a01b038116610a1a57600080fd5b610a2381612ed8565b15610a705760405162461bcd60e51b815260206004820152601960248201527f455243323020746f6b656e20616c726561647920616464656400000000000000604482015260640161039c565b600780546001810182556000919091527fa66cc928b5edb82af9bd49922954155ab7b0942694bea4ce44661d9a8736c6880180546001600160a01b0319166001600160a01b0392909216919091179055565b33600090815260208181526040808320600101805482518185028101850190935280835260609493830182828015610b4757602002820191906000526020600020906000905b82829054906101000a900464ffffffffff1664ffffffffff1681526020019060050190602082600401049283019260010382029150808411610b085790505b505050505090506000805b8251811015610c9757600060026000858481518110610b7357610b7361429c565b602002602001015164ffffffffff1664ffffffffff168152602001908152602001600020805480602002602001604051908101604052809291908181526020016000905b82821015610c6e576000848152602090819020604080516101208101825260058602909201805483526001808201546001600160a01b039081168587015260028301548116938501939093526003820154928316606085015264ffffffffff600160a01b840416608085015260ff600160c81b84048116151560a0860152600160d01b84048116151560c0860152600160d81b909304909216151560e0840152600401546101008301529083529092019101610bb7565b505050509050805183610c8191906142fa565b9250508080610c8f906142c8565b915050610b52565b5060008167ffffffffffffffff811115610cb357610cb36140ce565b604051908082528060200260200182016040528015610cec57816020015b610cd9613be3565b815260200190600190039081610cd15790505b50905060008267ffffffffffffffff811115610d0a57610d0a6140ce565b604051908082528060200260200182016040528015610d4357816020015b610d30613be3565b815260200190600190039081610d285790505b5090506000805b8551811015610f185760026000878381518110610d6957610d6961429c565b602002602001015164ffffffffff1664ffffffffff168152602001908152602001600020805480602002602001604051908101604052809291908181526020016000905b82821015610e64576000848152602090819020604080516101208101825260058602909201805483526001808201546001600160a01b039081168587015260028301548116938501939093526003820154928316606085015264ffffffffff600160a01b840416608085015260ff600160c81b84048116151560a0860152600160d01b84048116151560c0860152600160d81b909304909216151560e0840152600401546101008301529083529092019101610dad565b50505050935060005b8451811015610f0557336001600160a01b0316858281518110610e9257610e9261429c565b6020026020010151602001516001600160a01b03161415610ef357848181518110610ebf57610ebf61429c565b6020026020010151848481518110610ed957610ed961429c565b60200260200101819052508280610eef906142c8565b9350505b80610efd816142c8565b915050610e6d565b5080610f10816142c8565b915050610d4a565b5060005b8251811015610f8957610f4b838281518110610f3a57610f3a61429c565b6020026020010151608001516135da565b838281518110610f5d57610f5d61429c565b602090810291909101015164ffffffffff90911660809091015280610f81816142c8565b915050610f1c565b509095945050505050565b60085460ff1661142857428464ffffffffff1611610ff45760405162461bcd60e51b815260206004820152601f60248201527f54696d652064617461206d75737420626520696e207468652066757475726500604482015260640161039c565b611000610e10856143aa565b64ffffffffff161561104f5760405162461bcd60e51b81526020600482015260186024820152772a34b6b29036bab9ba1031329037b7103a3432903437bab960411b604482015260640161039c565b6001600160a01b03821661109b573460646009548561106e91906143ce565b61107891906143ed565b11156110965760405162461bcd60e51b815260040161039c90614401565b611128565b6110a482612ed8565b6110c05760405162461bcd60e51b815260040161039c90614445565b80604001358311156111285760405162461bcd60e51b815260206004820152602b60248201527f5061796c6f6164206d757374206265207468652073616d652061732076616c7560448201526a19481c195c9b5a5d1d195960aa1b606482015260840161039c565b600061113385612f99565b64ffffffffff81166000908152600260205260408120919250611159338987868a6135f6565b825460018082018555600085815260209081902084516005909402019283558381015191830180546001600160a01b03199081166001600160a01b0394851617909155604080860151600286018054909316908516179091556060808601516003860180546080808a015160a08b015160c08c015160e08d0151968b166001600160c81b031990951694909417600160a01b64ffffffffff938416021761ffff60c81b1916600160c81b9115159190910260ff60d01b191617600160d01b931515939093029290921760ff60d81b1916600160d81b94151594909402939093179091556101008801516004909701969096558251338152948f1693850193909352938816908301529181018990529192507f6e643cb89831cd75ded50b4ecee0e313701b6002fc48e8b80a3c05447ab066e8910160405180910390a17f2844c95bf1b4598da931d527f903501abc60fe0199c65da52d5ce818c6c5e9616040516112dd90602080825260069082015265141d5cda195960d21b604082015260600190565b60405180910390a1805160038054600181019091557fc2575a0e9e593c00f959f8c92f12db2869c3395a3b0502d05e2516446f71f85b015564ffffffffff83166000908152600260205260409020825461133991908490613c2f565b50611343836136ae565b6001600160a01b03851615611424576001600160a01b03851663d505accf61136e6020870187613e8e565b61137e6040880160208901613e8e565b6040880135606089013561139860a08b0160808c0161448a565b6040516001600160e01b031960e088901b1681526001600160a01b0395861660048201529490931660248501526044840191909152606483015260ff16608482015260a087013560a482015260c087013560c482015260e401600060405180830381600087803b15801561140b57600080fd5b505af115801561141f573d6000803e3d6000fd5b505050505b5050505b5050505050565b6006546060906001600160a01b0316331461145c5760405162461bcd60e51b815260040161039c90614265565b60015460009067ffffffffffffffff81111561147a5761147a6140ce565b6040519080825280602002602001820160405280156114c757816020015b604080516060808201835260008083526020830152918101919091528152602001906001900390816114985790505b50905060005b6001548110156115e757600080600183815481106114ed576114ed61429c565b6000918252602080832091909101546001600160a01b039081168452838201949094526040928301909120825160608101845281549485168152600160a01b90940460ff16151584830152600181018054845181850281018501865281815292948601938301828280156115ae57602002820191906000526020600020906000905b82829054906101000a900464ffffffffff1664ffffffffff168152602001906005019060208260040104928301926001038202915080841161156f5790505b5050505050815250508282815181106115c9576115c961429c565b602002602001018190525080806115df906142c8565b9150506114cd565b50905090565b60085460ff166121d95760018151118015611609575060648151105b61167b5760405162461bcd60e51b815260206004820152603b60248201527f4261746368206d7573742068617665206d6f7265207468616e206f6e6520747260448201527f616e73616374696f6e20616e64206c657373207468616e203130300000000000606482015260840161039c565b6116a66040518060800160405280600081526020016000815260200160008152602001606081525090565b336000908152602081815260409182902060018101805484518185028101850190955280855291939290919083018282801561172f57602002820191906000526020600020906000905b82829054906101000a900464ffffffffff1664ffffffffff16815260200190600501906020826004010492830192600103820291508084116116f05790505b5050505050606083015260075460009067ffffffffffffffff811115611757576117576140ce565b604051908082528060200260200182016040528015611780578160200160208202803683370190505b5060018301549091506000906117979060646142fa565b67ffffffffffffffff8111156117af576117af6140ce565b6040519080825280602002602001820160405280156117d8578160200160208202803683370190505b50905060005b8551811015611b4957428682815181106117fa576117fa61429c565b60200260200101516020015164ffffffffff161161185a5760405162461bcd60e51b815260206004820152601f60248201527f54696d652064617461206d75737420626520696e207468652066757475726500604482015260640161039c565b610e1086828151811061186f5761186f61429c565b60200260200101516020015161188591906143aa565b64ffffffffff16156118d45760405162461bcd60e51b81526020600482015260186024820152772a34b6b29036bab9ba1031329037b7103a3432903437bab960411b604482015260640161039c565b60006118fc8783815181106118eb576118eb61429c565b602002602001015160200151612f99565b905061190881846138b1565b6119565780838760400151815181106119235761192361429c565b602002602001019064ffffffffff16908164ffffffffff168152505060018660400181815161195291906142fa565b9052505b60006001600160a01b03168783815181106119735761197361429c565b6020026020010151606001516001600160a01b031614156119c5578682815181106119a0576119a061429c565b602002602001015160400151866000018181516119bd91906142fa565b905250611a9d565b6119eb8783815181106119da576119da61429c565b602002602001015160600151612ed8565b611a075760405162461bcd60e51b815260040161039c90614445565b611a2e878381518110611a1c57611a1c61429c565b60200260200101516060015185613913565b611a9d57868281518110611a4457611a4461429c565b60200260200101516060015184876020015181518110611a6657611a6661429c565b60200260200101906001600160a01b031690816001600160a01b031681525050600186602001818151611a9991906142fa565b9052505b868281518110611aaf57611aaf61429c565b60200260200101516040015160046000336001600160a01b03166001600160a01b031681526020019081526020016000206000898581518110611af457611af461429c565b6020026020010151606001516001600160a01b03166001600160a01b031681526020019081526020016000206000828254611b2f91906142fa565b90915550829150611b419050816142c8565b9150506117de565b3460646009548760000151611b5e91906143ce565b611b6891906143ed565b1115611b865760405162461bcd60e51b815260040161039c90614401565b5060005b8151811015611e6157818181518110611ba557611ba561429c565b602002602001015164ffffffffff1660001415611bc157611e61565b600060026000848481518110611bd957611bd961429c565b602002602001015164ffffffffff1664ffffffffff168152602001908152602001600020905060005b87518161ffff161015611e02576000611c2a898361ffff16815181106118eb576118eb61429c565b9050848481518110611c3e57611c3e61429c565b602002602001015164ffffffffff168164ffffffffff161415611def576000611ccd338b8561ffff1681518110611c7757611c7761429c565b6020026020010151600001518c8661ffff1681518110611c9957611c9961429c565b602002602001015160600151858e8861ffff1681518110611cbc57611cbc61429c565b6020026020010151604001516135f6565b8454600180820187556000878152602080822085516005909502018481559085015181840180546001600160a01b03199081166001600160a01b0393841617909155604087015160028401805490921690831617905560608601516003808401805460808a015160a08b015160c08c015160e08d0151969097166001600160c81b031990931692909217600160a01b64ffffffffff909216919091021761ffff60c81b1916600160c81b9115159190910260ff60d01b191617600160d01b941515949094029390931760ff60d81b1916600160d81b92151592909202919091179091556101009095015160049091015583549182018455929092527fc2575a0e9e593c00f959f8c92f12db2869c3395a3b0502d05e2516446f71f85b90910155505b5080611dfa816144ad565b915050611c02565b508060026000858581518110611e1a57611e1a61429c565b602002602001015164ffffffffff1664ffffffffff168152602001908152602001600020908054611e4c929190613c2f565b50508080611e59906142c8565b915050611b8a565b5060005b82518110156120ec5760006001600160a01b0316838281518110611e8b57611e8b61429c565b60200260200101516001600160a01b031614612088573360009081526004602052604081208451909190859084908110611ec757611ec761429c565b60200260200101516001600160a01b03166001600160a01b0316815260200190815260200160002054838281518110611f0257611f0261429c565b6020908102919091010151604051636eb1769f60e11b81523360048201523060248201526001600160a01b039091169063dd62ed3e90604401602060405180830381600087803b158015611f5557600080fd5b505af1158015611f69573d6000803e3d6000fd5b505050506040513d601f19601f82011682018060405250810190611f8d91906144c5565b1015801561207f57503360009081526004602052604081208451909190859084908110611fbc57611fbc61429c565b60200260200101516001600160a01b03166001600160a01b0316815260200190815260200160002054838281518110611ff757611ff761429c565b60209081029190910101516040516370a0823160e01b81523360048201526001600160a01b03909116906370a0823190602401602060405180830381600087803b15801561204457600080fd5b505af1158015612058573d6000803e3d6000fd5b505050506040513d601f19601f8201168201806040525081019061207c91906144c5565b10155b61208857600080fd5b336000908152600460205260408120845182908690859081106120ad576120ad61429c565b60200260200101516001600160a01b03166001600160a01b031681526020019081526020016000208190555080806120e4906142c8565b915050611e65565b33600090815260208190526040902054600160a01b900460ff166121695783546001600160a01b03199081163390811786556001805480820182556000919091527fb10e2d527612073b26eecdfd717e6a320cf44b4afac2b0732d9fcbe2b7fa0cf6018054909216179055835460ff60a01b1916600160a01b1784555b336000908152602081905260409020845481546001600160a01b039091166001600160a01b031982168117835586546001600160a81b031990921617600160a01b9182900460ff161515909102178155600180860180548793926121d09290840191613d77565b50505050505050505b50565b6006546060906001600160a01b031633146122095760405162461bcd60e51b815260040161039c90614265565b6001600160a01b0382166000908152602081815260408083206001018054825181850281018501909352808352919290919083018282801561229857602002820191906000526020600020906000905b82829054906101000a900464ffffffffff1664ffffffffff16815260200190600501906020826004010492830192600103820291508084116122595790505b505050505090506000805b82518110156123e8576000600260008584815181106122c4576122c461429c565b602002602001015164ffffffffff1664ffffffffff168152602001908152602001600020805480602002602001604051908101604052809291908181526020016000905b828210156123bf576000848152602090819020604080516101208101825260058602909201805483526001808201546001600160a01b039081168587015260028301548116938501939093526003820154928316606085015264ffffffffff600160a01b840416608085015260ff600160c81b84048116151560a0860152600160d01b84048116151560c0860152600160d81b909304909216151560e0840152600401546101008301529083529092019101612308565b5050505090508051836123d291906142fa565b92505080806123e0906142c8565b9150506122a3565b5060008167ffffffffffffffff811115612404576124046140ce565b60405190808252806020026020018201604052801561243d57816020015b61242a613be3565b8152602001906001900390816124225790505b50905060008267ffffffffffffffff81111561245b5761245b6140ce565b60405190808252806020026020018201604052801561249457816020015b612481613be3565b8152602001906001900390816124795790505b5090506000805b855181101561266957600260008783815181106124ba576124ba61429c565b602002602001015164ffffffffff1664ffffffffff168152602001908152602001600020805480602002602001604051908101604052809291908181526020016000905b828210156125b5576000848152602090819020604080516101208101825260058602909201805483526001808201546001600160a01b039081168587015260028301548116938501939093526003820154928316606085015264ffffffffff600160a01b840416608085015260ff600160c81b84048116151560a0860152600160d01b84048116151560c0860152600160d81b909304909216151560e08401526004015461010083015290835290920191016124fe565b50505050935060005b845181101561265657886001600160a01b03168582815181106125e3576125e361429c565b6020026020010151602001516001600160a01b03161415612644578481815181106126105761261061429c565b602002602001015184848151811061262a5761262a61429c565b60200260200101819052508280612640906142c8565b9350505b8061264e816142c8565b9150506125be565b5080612661816142c8565b91505061249b565b5060005b82518110156126c95761268b838281518110610f3a57610f3a61429c565b83828151811061269d5761269d61429c565b602090810291909101015164ffffffffff909116608090910152806126c1816142c8565b91505061266d565b50909450505050505b919050565b6006546000906001600160a01b031633146127045760405162461bcd60e51b815260040161039c90614265565b600061270f42612f99565b600a5490915064ffffffffff9081169082161161273e5760405162461bcd60e51b815260040161039c90614328565b600a5464ffffffffff165b8164ffffffffff168164ffffffffff16116128765764ffffffffff8116600090815260026020908152604080832080548251818502810185019093528083529192909190849084015b82821015612849576000848152602090819020604080516101208101825260058602909201805483526001808201546001600160a01b039081168587015260028301548116938501939093526003820154928316606085015264ffffffffff600160a01b840416608085015260ff600160c81b84048116151560a0860152600160d01b84048116151560c0860152600160d81b909304909216151560e0840152600401546101008301529083529092019101612792565b505050509050600081511115612863576001935050505090565b508061286e8161436f565b915050612749565b50600091505090565b600061288a82612f99565b64ffffffffff8116600090815260026020526040902054909150600114156128d95764ffffffffff811660009081526002602052604081206128cb91613dd1565b6128d48161396f565b505050565b64ffffffffff811660009081526002602052604081209080805b8354811015612a0957336001600160a01b03168482815481106129185761291861429c565b60009182526020909120600160059092020101546001600160a01b031614156129495781612945816142c8565b9250505b8684828154811061295c5761295c61429c565b90600052602060002090600502016000015414156129f757612999604051806040016040528060048152602001634865726560e01b815250613b3e565b8092508381815481106129ae576129ae61429c565b6000918252602082206005909102018181556001810180546001600160a01b031990811690915560028201805490911690556003810180546001600160e01b0319169055600401555b80612a01816142c8565b9150506128f3565b5082548390612a1a906001906142e3565b81548110612a2a57612a2a61429c565b9060005260206000209060050201838381548110612a4a57612a4a61429c565b60009182526020909120825460059092020190815560018083015490820180546001600160a01b03199081166001600160a01b039384161790915560028085015490840180548316918416919091179055600380850180549185018054938416929094169182178455805464ffffffffff600160a01b9182900416026001600160c81b031990931690911791909117808355815460ff600160c81b918290048116151590910260ff60c81b198316811785558354600160d01b90819004831615150260ff60d01b1990911661ffff60c81b1990931692909217919091178084559154600160d81b9081900490911615150260ff60d81b199091161790556004918201549101558254839080612b6157612b61614312565b600082815260208120600560001990930192830201818155600181810180546001600160a01b031990811690915560028301805490911690556003820180546001600160e01b03191690556004909101919091559155811415612bc757612bc78461396f565b505050505050565b612bd881612f99565b64ffffffffff8116600090815260026020908152604080832080548251818502810185019093528083529495509293909291849084015b82821015612cc6576000848152602090819020604080516101208101825260058602909201805483526001808201546001600160a01b039081168587015260028301548116938501939093526003820154928316606085015264ffffffffff600160a01b840416608085015260ff600160c81b84048116151560a0860152600160d01b84048116151560c0860152600160d81b909304909216151560e0840152600401546101008301529083529092019101612c0f565b5050505064ffffffffff83166000908152600260205260409020909150612ceb613be3565b60005b8351811015612e555785848281518110612d0a57612d0a61429c565b6020026020010151600001511415612e4357838181518110612d2e57612d2e61429c565b6020908102919091010151600160c082015283549092508290849083908110612d5957612d5961429c565b6000918252602091829020835160059290920201908155908201516001820180546001600160a01b03199081166001600160a01b039384161790915560408401516002840180549092169083161790556060830151600383018054608086015160a087015160c088015160e0890151959096166001600160c81b031990931692909217600160a01b64ffffffffff909216919091021761ffff60c81b1916600160c81b9115159190910260ff60d01b191617600160d01b931515939093029290921760ff60d81b1916600160d81b9115159190910217905561010090910151600490910155612e55565b80612e4d816142c8565b915050612cee565b5064ffffffffff841660009081526002602052604090208254612e7a91908490613c2f565b5060608101516001600160a01b0316611428576101008101514711612e9e57600080fd5b80602001516001600160a01b03166108fc8261010001519081150290604051600060405180830381858888f1935050505061142857600080fd5b6000806007805480602002602001604051908101604052809291908181526020018280548015612f3157602002820191906000526020600020905b81546001600160a01b03168152600190910190602001808311612f13575b505050505090506000915060005b8151811015612f9257818181518110612f5a57612f5a61429c565b60200260200101516001600160a01b0316846001600160a01b03161415612f8057600192505b80612f8a816142c8565b915050612f3f565b5050919050565b6000610e10612fac6363236820846144de565b612fb69190614504565b92915050565b60085460ff166121d95760608101516000906001600160a01b0316612ff1576101008201514711612fec57600080fd5b6131b2565b61010082015160608301516020840151604051636eb1769f60e11b81526001600160a01b03918216600482015230602482015291169063dd62ed3e90604401602060405180830381600087803b15801561304a57600080fd5b505af115801561305e573d6000803e3d6000fd5b505050506040513d601f19601f8201168201806040525081019061308291906144c5565b10806131165750610100820151606083015160208401516040516370a0823160e01b81526001600160a01b0391821660048201529116906370a0823190602401602060405180830381600087803b1580156130dc57600080fd5b505af11580156130f0573d6000803e3d6000fd5b505050506040513d601f19601f8201168201806040525081019061311491906144c5565b105b156131b2575060608101516020820151604051636eb1769f60e11b81526001600160a01b0391821660048201523060248201526001926131b292169063dd62ed3e90604401602060405180830381600087803b15801561317557600080fd5b505af1158015613189573d6000803e3d6000fd5b505050506040513d601f19601f820116820180604052508101906131ad91906144c5565b613b81565b806135d657608082015164ffffffffff16600090815260026020908152604080832080548251818502810185019093528083529192909190849084015b828210156132a6576000848152602090819020604080516101208101825260058602909201805483526001808201546001600160a01b039081168587015260028301548116938501939093526003820154928316606085015264ffffffffff600160a01b840416608085015260ff600160c81b84048116151560a0860152600160d01b84048116151560c0860152600160d81b909304909216151560e08401526004015461010083015290835290920191016131ef565b50505050608084015164ffffffffff1660009081526002602052604081209192505b825181101561343f5784600001518382815181106132e8576132e861429c565b602002602001015160000151141561342d5782818151811061330c5761330c61429c565b60200260200101519450831561332857600160e0860152613330565b600160a08601525b848282815481106133435761334361429c565b6000918252602091829020835160059290920201908155908201516001820180546001600160a01b03199081166001600160a01b039384161790915560408401516002840180549092169083161790556060830151600383018054608086015160a087015160c088015160e0890151959096166001600160c81b031990931692909217600160a01b64ffffffffff909216919091021761ffff60c81b1916600160c81b9115159190910260ff60d01b191617600160d01b931515939093029290921760ff60d81b1916600160d81b911515919091021790556101009091015160049091015561343f565b80613437816142c8565b9150506132c8565b50608084015164ffffffffff166000908152600260205260409020815461346891908390613c2f565b5060608401516001600160a01b031661352a57600084604001516001600160a01b03166108fc8661010001519081150290604051600060405180830381858888f193505050509050806134f05760405162461bcd60e51b815260206004820152601060248201526f2a3930b739b332b9103330b4b632b21760811b604482015260640161039c565b604051600181527fa2ea5b0db1d57b0e32df654aa9a1a97bc8066881e37669ff488d2bebe87c9f879060200160405180910390a1506135d3565b6060840151602085015160408087015161010088015191516323b872dd60e01b81526001600160a01b039384166004820152908316602482015260448101919091529116906323b872dd90606401602060405180830381600087803b15801561359257600080fd5b505af11580156135a6573d6000803e3d6000fd5b505050506040513d601f19601f820116820180604052508101906135ca9190614528565b6135d357600080fd5b50505b5050565b60006135e882610e1061454a565b612fb6906363236820614577565b6135fe613be3565b6040516bffffffffffffffffffffffff19606088901b1660208201526001600160d81b031960d885901b16603482015242603982015260009060590160408051601f1981840301815282825280516020918201206101208401835283526001600160a01b03998a169083015296881696810196909652505091909316606083015264ffffffffff9092166080820152600060a0820181905260c0820181905260e082015261010081019190915290565b3360009081526020819052604090208054600160a01b900460ff1661376a578054336001600160a01b0319918216811783556001805480820182557fb10e2d527612073b26eecdfd717e6a320cf44b4afac2b0732d9fcbe2b7fa0cf60180549093169091179091558154600160a01b60ff60a01b199091161782558082018054918201815560009081526020902060068083049091018054919092066005026101000a64ffffffffff818102199092169185160217905561384a565b6000816001018054806020026020016040519081016040528092919081815260200182805480156137e857602002820191906000526020600020906000905b82829054906101000a900464ffffffffff1664ffffffffff16815260200190600501906020826004010492830192600103820291508084116137a95790505b505050505090506137f983826138b1565b6138485782826001016001816001815401808255809150500390600052602060002090600691828204019190066005026101000a81548164ffffffffff021916908364ffffffffff1602179055505b505b336000908152602081905260409020815481546001600160a01b039091166001600160a01b031982168117835583546001600160a81b031990921617600160a01b9182900460ff161515909102178155600180830180548493926114289290840191613d77565b6000805b8251811015613909578364ffffffffff168382815181106138d8576138d861429c565b602002602001015164ffffffffff1614156138f7576001915050612fb6565b80613901816142c8565b9150506138b5565b5060009392505050565b6000805b825181101561390957836001600160a01b031683828151811061393c5761393c61429c565b60200260200101516001600160a01b0316141561395d576001915050612fb6565b80613967816142c8565b915050613917565b33600090815260208190526040902060019081015414156139a8573360009081526020819052604081206121d991600190910190613df2565b33600090815260208190526040812060010190805b8254811015613a69578364ffffffffff168382815481106139e0576139e061429c565b90600052602060002090600691828204019190066005029054906101000a900464ffffffffff1664ffffffffff161415613a5757809150828181548110613a2957613a2961429c565b90600052602060002090600691828204019190066005026101000a81549064ffffffffff0219169055613a69565b80613a61816142c8565b9150506139bd565b5081548290613a7a906001906142e3565b81548110613a8a57613a8a61429c565b90600052602060002090600691828204019190066005029054906101000a900464ffffffffff16828281548110613ac357613ac361429c565b90600052602060002090600691828204019190066005026101000a81548164ffffffffff021916908364ffffffffff16021790555081805480613b0857613b08614312565b60019003818190600052602060002090600691828204019190066005026101000a81549064ffffffffff02191690559055505050565b6121d981604051602401613b5291906145a0565b60408051601f198184030181529190526020810180516001600160e01b031663104c13eb60e21b179052613bc2565b6121d981604051602401613b9791815260200190565b60408051601f198184030181529190526020810180516001600160e01b031663f82c50f160e01b1790525b80516a636f6e736f6c652e6c6f67602083016000808483855afa5050505050565b6040805161012081018252600080825260208201819052918101829052606081018290526080810182905260a0810182905260c0810182905260e0810182905261010081019190915290565b828054828255906000526020600020906005028101928215613d675760005260206000209160050282015b82811115613d67578254825560018084015490830180546001600160a01b03199081166001600160a01b039384161790915560028086015490850180548316918416919091179055600380860180549186018054938416929094169182178455805464ffffffffff600160a01b9182900416026001600160c81b031990931690911791909117808355815460ff600160c81b918290048116151590910260ff60c81b198316811785558354600160d01b90819004831615150260ff60d01b1990911661ffff60c81b1990931692909217919091178084559154600160d81b9081900490911615150260ff60d81b199091161790556004808401549083015560059283019290910190613c5a565b50613d73929150613e17565b5090565b82805482825590600052602060002090600501600690048101928215613dc5576000526020600020916005016006900482015b82811115613dc5578254825591600101919060010190613daa565b50613d73929150613e64565b50805460008255600502906000526020600020908101906121d99190613e17565b5080546000825560050160069004906000526020600020908101906121d99190613e64565b5b80821115613d735760008082556001820180546001600160a01b031990811690915560028301805490911690556003820180546001600160e01b03191690556004820155600501613e18565b5b80821115613d735760008155600101613e65565b6001600160a01b03811681146121d957600080fd5b600060208284031215613ea057600080fd5b8135613eab81613e79565b9392505050565b602080825282518282018190526000919060409081850190868401855b82811015613f6857815180518552868101516001600160a01b0390811688870152868201511686860152606080820151613f13828801826001600160a01b03169052565b505060808181015164ffffffffff169086015260a08082015115159086015260c08082015115159086015260e08082015115159086015261010090810151908501526101209093019290850190600101613ecf565b5091979650505050505050565b600060208284031215613f8757600080fd5b5035919050565b803564ffffffffff811681146126d257600080fd5b6000806000806000858703610160811215613fbd57600080fd5b8635613fc881613e79565b9550613fd660208801613f8e565b9450604087013593506060870135613fed81613e79565b925060e0607f198201121561400157600080fd5b506080860190509295509295909350565b60006020808301818452808551808352604092508286019150828160051b8701018488016000805b848110156140bf57898403603f19018652825180516001600160a01b03168552888101511515898601528701516060888601819052815190860181905290890190608086019084905b808210156140aa57835164ffffffffff168352928b0192918b019160019190910190614083565b5050968901969450509187019160010161403a565b50919998505050505050505050565b634e487b7160e01b600052604160045260246000fd5b6040516080810167ffffffffffffffff81118282101715614107576141076140ce565b60405290565b604051601f8201601f1916810167ffffffffffffffff81118282101715614136576141366140ce565b604052919050565b6000602080838503121561415157600080fd5b823567ffffffffffffffff8082111561416957600080fd5b818501915085601f83011261417d57600080fd5b81358181111561418f5761418f6140ce565b61419d848260051b0161410d565b818152848101925060079190911b8301840190878211156141bd57600080fd5b928401925b8184101561422e57608084890312156141db5760008081fd5b6141e36140e4565b84356141ee81613e79565b81526141fb858701613f8e565b818701526040858101359082015260608086013561421881613e79565b90820152835260809390930192918401916141c2565b979650505050505050565b6000806040838503121561424c57600080fd5b8235915061425c60208401613f8e565b90509250929050565b6020808252601a908201527f4d75737420686176652061646d696e2070726976696c65676573000000000000604082015260600190565b634e487b7160e01b600052603260045260246000fd5b634e487b7160e01b600052601160045260246000fd5b60006000198214156142dc576142dc6142b2565b5060010190565b6000828210156142f5576142f56142b2565b500390565b6000821982111561430d5761430d6142b2565b500190565b634e487b7160e01b600052603160045260246000fd5b60208082526027908201527f54696d6520616c726561647920636865636b656420666f7220746869732074696040820152661b59481cdb1bdd60ca1b606082015260800190565b600064ffffffffff8083168181141561438a5761438a6142b2565b6001019392505050565b634e487b7160e01b600052601260045260246000fd5b600064ffffffffff808416806143c2576143c2614394565b92169190910692915050565b60008160001904831182151516156143e8576143e86142b2565b500290565b6000826143fc576143fc614394565b500490565b60208082526024908201527f4e6f7420656e6f756768204554482073656e742077697468207472616e7361636040820152633a34b7b760e11b606082015260800190565b60208082526025908201527f20546f6b656e206e6f7420617070726f76656420666f72207468697320636f6e6040820152641d1c9858dd60da1b606082015260800190565b60006020828403121561449c57600080fd5b813560ff81168114613eab57600080fd5b600061ffff8083168181141561438a5761438a6142b2565b6000602082840312156144d757600080fd5b5051919050565b600064ffffffffff838116908316818110156144fc576144fc6142b2565b039392505050565b600064ffffffffff8084168061451c5761451c614394565b92169190910492915050565b60006020828403121561453a57600080fd5b81518015158114613eab57600080fd5b600064ffffffffff8083168185168183048111821515161561456e5761456e6142b2565b02949350505050565b600064ffffffffff808316818516808303821115614597576145976142b2565b01949350505050565b600060208083528351808285015260005b818110156145cd578581018301518582016040015282016145b1565b818111156145df576000604083870101525b50601f01601f191692909201604001939250505056fea2646970667358221220d98c139c8e344f3473a084d0ef16d5a5c9d3ebcd725ff4c5179f536a7366b92c64736f6c63430008090033",
  "linkReferences": {},
  "deployedLinkReferences": {}
}