{
  "_format": "hh-sol-artifact-1",
  "contractName": "Clocktower",
  "sourceName": "contracts/Clocktower.sol",
  "abi": [
    {
      "inputs": [],
      "stateMutability": "payable",
      "type": "constructor"
    },
    {
      "anonymous": false,
      "inputs": [
        {
          "indexed": false,
          "internalType": "string",
          "name": "output4",
          "type": "string"
        }
      ],
      "name": "AccountCreated",
      "type": "event"
    },
    {
      "anonymous": false,
      "inputs": [
        {
          "indexed": false,
          "internalType": "string",
          "name": "output2",
          "type": "string"
        }
      ],
      "name": "CheckStatus",
      "type": "event"
    },
    {
      "anonymous": false,
      "inputs": [
        {
          "indexed": false,
          "internalType": "address",
          "name": "user",
          "type": "address"
        },
        {
          "indexed": false,
          "internalType": "uint256",
          "name": "amount",
          "type": "uint256"
        }
      ],
      "name": "ReceiveETH",
      "type": "event"
    },
    {
      "anonymous": false,
      "inputs": [
        {
          "indexed": false,
          "internalType": "string",
          "name": "output",
          "type": "string"
        }
      ],
      "name": "Status",
      "type": "event"
    },
    {
      "anonymous": false,
      "inputs": [
        {
          "indexed": false,
          "internalType": "address",
          "name": "sender",
          "type": "address"
        },
        {
          "indexed": false,
          "internalType": "address",
          "name": "receiver",
          "type": "address"
        },
        {
          "indexed": false,
          "internalType": "uint40",
          "name": "timeTrigger",
          "type": "uint40"
        },
        {
          "indexed": false,
          "internalType": "uint256",
          "name": "payload",
          "type": "uint256"
        }
      ],
      "name": "TransactionAdd",
      "type": "event"
    },
    {
      "anonymous": false,
      "inputs": [
        {
          "indexed": false,
          "internalType": "bool",
          "name": "sent",
          "type": "bool"
        }
      ],
      "name": "TransactionSent",
      "type": "event"
    },
    {
      "anonymous": false,
      "inputs": [
        {
          "indexed": false,
          "internalType": "string",
          "name": "output3",
          "type": "string"
        }
      ],
      "name": "UnknownFunction",
      "type": "event"
    },
    {
      "stateMutability": "payable",
      "type": "fallback"
    },
    {
      "inputs": [
        {
          "components": [
            {
              "internalType": "address payable",
              "name": "receiver",
              "type": "address"
            },
            {
              "internalType": "uint40",
              "name": "unixTime",
              "type": "uint40"
            },
            {
              "internalType": "uint256",
              "name": "payload",
              "type": "uint256"
            },
            {
              "internalType": "address",
              "name": "token",
              "type": "address"
            }
          ],
          "internalType": "struct Clocktower.Batch[]",
          "name": "batch",
          "type": "tuple[]"
        }
      ],
      "name": "addBatchTransactions",
      "outputs": [],
      "stateMutability": "payable",
      "type": "function"
    },
    {
      "inputs": [
        {
          "internalType": "address",
          "name": "erc20Contract",
          "type": "address"
        }
      ],
      "name": "addERC20Contract",
      "outputs": [],
      "stateMutability": "nonpayable",
      "type": "function"
    },
    {
      "inputs": [
        {
          "internalType": "address payable",
          "name": "receiver",
          "type": "address"
        },
        {
          "internalType": "uint40",
          "name": "unixTime",
          "type": "uint40"
        },
        {
          "internalType": "uint256",
          "name": "payload",
          "type": "uint256"
        },
        {
          "internalType": "address",
          "name": "token",
          "type": "address"
        },
        {
          "components": [
            {
              "internalType": "address",
              "name": "owner",
              "type": "address"
            },
            {
              "internalType": "address",
              "name": "spender",
              "type": "address"
            },
            {
              "internalType": "uint256",
              "name": "value",
              "type": "uint256"
            },
            {
              "internalType": "uint256",
              "name": "deadline",
              "type": "uint256"
            },
            {
              "internalType": "uint8",
              "name": "v",
              "type": "uint8"
            },
            {
              "internalType": "bytes32",
              "name": "r",
              "type": "bytes32"
            },
            {
              "internalType": "bytes32",
              "name": "s",
              "type": "bytes32"
            }
          ],
          "internalType": "struct Clocktower.Permit",
          "name": "permit",
          "type": "tuple"
        }
      ],
      "name": "addTransaction",
      "outputs": [],
      "stateMutability": "payable",
      "type": "function"
    },
    {
      "inputs": [],
      "name": "allAccounts",
      "outputs": [
        {
          "components": [
            {
              "internalType": "address",
              "name": "accountAddress",
              "type": "address"
            },
            {
              "internalType": "bool",
              "name": "exists",
              "type": "bool"
            },
            {
              "internalType": "uint40[]",
              "name": "timeTriggers",
              "type": "uint40[]"
            }
          ],
          "internalType": "struct Clocktower.Account[]",
          "name": "",
          "type": "tuple[]"
        }
      ],
      "stateMutability": "view",
      "type": "function"
    },
    {
      "inputs": [],
      "name": "allTransactions",
      "outputs": [
        {
          "components": [
            {
              "internalType": "bytes32",
              "name": "id",
              "type": "bytes32"
            },
            {
              "internalType": "address",
              "name": "sender",
              "type": "address"
            },
            {
              "internalType": "address payable",
              "name": "receiver",
              "type": "address"
            },
            {
              "internalType": "address",
              "name": "token",
              "type": "address"
            },
            {
              "internalType": "uint40",
              "name": "timeTrigger",
              "type": "uint40"
            },
            {
              "internalType": "bool",
              "name": "sent",
              "type": "bool"
            },
            {
              "internalType": "bool",
              "name": "failed",
              "type": "bool"
            },
            {
              "internalType": "uint256",
              "name": "payload",
              "type": "uint256"
            }
          ],
          "internalType": "struct Clocktower.Transaction[]",
          "name": "",
          "type": "tuple[]"
        }
      ],
      "stateMutability": "view",
      "type": "function"
    },
    {
      "inputs": [
        {
          "internalType": "address",
          "name": "newAddress",
          "type": "address"
        }
      ],
      "name": "changeAdmin",
      "outputs": [],
      "stateMutability": "nonpayable",
      "type": "function"
    },
    {
      "inputs": [
        {
          "internalType": "uint256",
          "name": "_fee",
          "type": "uint256"
        }
      ],
      "name": "changeFee",
      "outputs": [],
      "stateMutability": "nonpayable",
      "type": "function"
    },
    {
      "inputs": [],
      "name": "checkTime",
      "outputs": [
        {
          "internalType": "bool",
          "name": "",
          "type": "bool"
        }
      ],
      "stateMutability": "view",
      "type": "function"
    },
    {
      "inputs": [],
      "name": "getAccountTransactions",
      "outputs": [
        {
          "components": [
            {
              "internalType": "bytes32",
              "name": "id",
              "type": "bytes32"
            },
            {
              "internalType": "address",
              "name": "sender",
              "type": "address"
            },
            {
              "internalType": "address payable",
              "name": "receiver",
              "type": "address"
            },
            {
              "internalType": "address",
              "name": "token",
              "type": "address"
            },
            {
              "internalType": "uint40",
              "name": "timeTrigger",
              "type": "uint40"
            },
            {
              "internalType": "bool",
              "name": "sent",
              "type": "bool"
            },
            {
              "internalType": "bool",
              "name": "failed",
              "type": "bool"
            },
            {
              "internalType": "uint256",
              "name": "payload",
              "type": "uint256"
            }
          ],
          "internalType": "struct Clocktower.Transaction[]",
          "name": "",
          "type": "tuple[]"
        }
      ],
      "stateMutability": "view",
      "type": "function"
    },
    {
      "inputs": [],
      "name": "getFee",
      "outputs": [
        {
          "internalType": "uint256",
          "name": "",
          "type": "uint256"
        }
      ],
      "stateMutability": "view",
      "type": "function"
    },
    {
      "inputs": [],
      "name": "getTime",
      "outputs": [
        {
          "internalType": "uint256",
          "name": "",
          "type": "uint256"
        }
      ],
      "stateMutability": "view",
      "type": "function"
    },
    {
      "inputs": [
        {
          "internalType": "address",
          "name": "account",
          "type": "address"
        }
      ],
      "name": "getTransactionsByAccount",
      "outputs": [
        {
          "components": [
            {
              "internalType": "bytes32",
              "name": "id",
              "type": "bytes32"
            },
            {
              "internalType": "address",
              "name": "sender",
              "type": "address"
            },
            {
              "internalType": "address payable",
              "name": "receiver",
              "type": "address"
            },
            {
              "internalType": "address",
              "name": "token",
              "type": "address"
            },
            {
              "internalType": "uint40",
              "name": "timeTrigger",
              "type": "uint40"
            },
            {
              "internalType": "bool",
              "name": "sent",
              "type": "bool"
            },
            {
              "internalType": "bool",
              "name": "failed",
              "type": "bool"
            },
            {
              "internalType": "uint256",
              "name": "payload",
              "type": "uint256"
            }
          ],
          "internalType": "struct Clocktower.Transaction[]",
          "name": "",
          "type": "tuple[]"
        }
      ],
      "stateMutability": "view",
      "type": "function"
    },
    {
      "inputs": [
        {
          "internalType": "address",
          "name": "erc20Contract",
          "type": "address"
        }
      ],
      "name": "removeERC20Contract",
      "outputs": [],
      "stateMutability": "nonpayable",
      "type": "function"
    },
    {
      "inputs": [
        {
          "internalType": "bytes32",
          "name": "id",
          "type": "bytes32"
        },
        {
          "internalType": "uint40",
          "name": "unixTrigger",
          "type": "uint40"
        }
      ],
      "name": "removeTransaction",
      "outputs": [],
      "stateMutability": "nonpayable",
      "type": "function"
    },
    {
      "inputs": [],
      "name": "sendTime",
      "outputs": [],
      "stateMutability": "nonpayable",
      "type": "function"
    },
    {
      "inputs": [],
      "name": "toggleContractActive",
      "outputs": [],
      "stateMutability": "nonpayable",
      "type": "function"
    },
    {
      "stateMutability": "payable",
      "type": "receive"
    }
  ],
  "bytecode": "0x6080604052600680546001600160a01b03191673f39fd6e51aad88f6f4ce6ab8827279cfffb922661790556008805460ff1916905560646009556001620000464262000074565b6200005291906200009b565b600a805464ffffffffff191664ffffffffff9290921691909117905562000103565b6000610e10620000896363236820846200009b565b620000959190620000d0565b92915050565b600064ffffffffff83811690831681811015620000c857634e487b7160e01b600052601160045260246000fd5b039392505050565b600064ffffffffff80841680620000f757634e487b7160e01b600052601260045260246000fd5b92169190910492915050565b6140e280620001136000396000f3fe6080604052600436106100f75760003560e01c8063c682cce41161008a578063d10fa14411610059578063d10fa144146102dc578063dc9961eb146102ef578063e0c6190d1461030f578063e415d9601461033457610137565b8063c682cce41461027d578063ced72f8714610292578063cf0b5e45146102a7578063cf783d8a146102ba57610137565b80636a1db1bf116100c65780636a1db1bf146102085780638f28397014610228578063aa58a5b014610248578063ab7e09091461025d57610137565b8063053149fa146101895780631385d24c146101ab5780631ccb3371146101c0578063557ed1ba146101eb57610137565b3661013757604080513381523460208201527f830d2d700a97af574b186c80d40429385d24241565b08a7c559ba283a964d9b191015b60405180910390a1005b7f19525a32afaad9a5491805c356597487a306fc2f4e8541d8d55e1fe951091e6060405161012d9060208082526010908201526f2ab735b737bbb710333ab731ba34b7b760811b604082015260600190565b34801561019557600080fd5b506101a96101a43660046139b5565b610354565b005b3480156101b757600080fd5b506101a961057e565b3480156101cc57600080fd5b506101d56105bc565b6040516101e291906139d9565b60405180910390f35b3480156101f757600080fd5b50425b6040519081526020016101e2565b34801561021457600080fd5b506101a9610223366004613a81565b610706565b34801561023457600080fd5b506101a96102433660046139b5565b610735565b34801561025457600080fd5b506101a96107aa565b34801561026957600080fd5b506101a96102783660046139b5565b61098c565b34801561028957600080fd5b506101d5610a71565b34801561029e57600080fd5b506009546101fa565b6101a96102b5366004613aaf565b610f21565b3480156102c657600080fd5b506102cf6113a2565b6040516101e29190613b1e565b6101a96102ea366004613c4a565b611560565b3480156102fb57600080fd5b506101d561030a3660046139b5565b612132565b34801561031b57600080fd5b5061032461260b565b60405190151581526020016101e2565b34801561034057600080fd5b506101a961034f366004613d45565b6127a2565b6006546001600160a01b031633146103875760405162461bcd60e51b815260040161037e90613d71565b60405180910390fd5b6001600160a01b03811661039a57600080fd5b6103a381612aaa565b6103ef5760405162461bcd60e51b815260206004820152601960248201527f455243323020746f6b656e206e6f742061646465642079657400000000000000604482015260640161037e565b6000600780548060200260200160405190810160405280929190818152602001828054801561044757602002820191906000526020600020905b81546001600160a01b03168152600190910190602001808311610429575b505050505090506000805b82518110156104a857836001600160a01b031683828151811061047757610477613da8565b60200260200101516001600160a01b03161415610496578091506104a8565b806104a081613dd4565b915050610452565b50805b6007546104ba90600190613def565b8110156105455760076104ce826001613e06565b815481106104de576104de613da8565b600091825260209091200154600780546001600160a01b03909216918390811061050a5761050a613da8565b600091825260209091200180546001600160a01b0319166001600160a01b03929092169190911790558061053d81613dd4565b9150506104ab565b50600780548061055757610557613e1e565b600082815260209020810160001990810180546001600160a01b0319169055019055505050565b6006546001600160a01b031633146105a85760405162461bcd60e51b815260040161037e90613d71565b6008805460ff19811660ff90911615179055565b6006546060906001600160a01b031633146105e95760405162461bcd60e51b815260040161037e90613d71565b60035460009067ffffffffffffffff81111561060757610607613bda565b60405190808252806020026020018201604052801561064057816020015b61062d613735565b8152602001906001900390816106255790505b5090506000805b6001548110156106fe5760006106836001838154811061066957610669613da8565b6000918252602090912001546001600160a01b0316612132565b905060005b81518110156106e9578181815181106106a3576106a3613da8565b60200260200101518585815181106106bd576106bd613da8565b602002602001018190525083806106d390613dd4565b94505080806106e190613dd4565b915050610688565b505080806106f690613dd4565b915050610647565b509091505090565b6006546001600160a01b031633146107305760405162461bcd60e51b815260040161037e90613d71565b600955565b6006546001600160a01b0316331461075f5760405162461bcd60e51b815260040161037e90613d71565b336001600160a01b03821614801561077f57506001600160a01b03811615155b61078857600080fd5b600680546001600160a01b0319166001600160a01b0392909216919091179055565b6006546001600160a01b031633146107d45760405162461bcd60e51b815260040161037e90613d71565b60006107df42612b6b565b600a5490915064ffffffffff9081169082161161080e5760405162461bcd60e51b815260040161037e90613e34565b600a5464ffffffffff165b8164ffffffffff168164ffffffffff161161096d5764ffffffffff8116600090815260026020908152604080832080548251818502810185019093528083529192909190849084015b82821015610908576000848152602090819020604080516101008101825260058602909201805483526001808201546001600160a01b039081168587015260028301548116938501939093526003820154928316606085015264ffffffffff600160a01b840416608085015260ff600160c81b84048116151560a0860152600160d01b909304909216151560c08401526004015460e08301529083529092019101610862565b50505050905060008151111561095a5760005b81518110156109585761094682828151811061093957610939613da8565b6020026020010151612b8e565b8061095081613dd4565b91505061091b565b505b508061096581613e7b565b915050610819565b50600a805464ffffffffff191664ffffffffff92909216919091179055565b6006546001600160a01b031633146109b65760405162461bcd60e51b815260040161037e90613d71565b6001600160a01b0381166109c957600080fd5b6109d281612aaa565b15610a1f5760405162461bcd60e51b815260206004820152601960248201527f455243323020746f6b656e20616c726561647920616464656400000000000000604482015260640161037e565b600780546001810182556000919091527fa66cc928b5edb82af9bd49922954155ab7b0942694bea4ce44661d9a8736c6880180546001600160a01b0319166001600160a01b0392909216919091179055565b33600090815260208181526040808320600101805482518185028101850190935280835260609493830182828015610af657602002820191906000526020600020906000905b82829054906101000a900464ffffffffff1664ffffffffff1681526020019060050190602082600401049283019260010382029150808411610ab75790505b505050505090506000805b8251811015610c3557600060026000858481518110610b2257610b22613da8565b602002602001015164ffffffffff1664ffffffffff168152602001908152602001600020805480602002602001604051908101604052809291908181526020016000905b82821015610c0c576000848152602090819020604080516101008101825260058602909201805483526001808201546001600160a01b039081168587015260028301548116938501939093526003820154928316606085015264ffffffffff600160a01b840416608085015260ff600160c81b84048116151560a0860152600160d01b909304909216151560c08401526004015460e08301529083529092019101610b66565b505050509050805183610c1f9190613e06565b9250508080610c2d90613dd4565b915050610b01565b5060008167ffffffffffffffff811115610c5157610c51613bda565b604051908082528060200260200182016040528015610c8a57816020015b610c77613735565b815260200190600190039081610c6f5790505b50905060008267ffffffffffffffff811115610ca857610ca8613bda565b604051908082528060200260200182016040528015610ce157816020015b610cce613735565b815260200190600190039081610cc65790505b5090506000805b8551811015610ea55760026000878381518110610d0757610d07613da8565b602002602001015164ffffffffff1664ffffffffff168152602001908152602001600020805480602002602001604051908101604052809291908181526020016000905b82821015610df1576000848152602090819020604080516101008101825260058602909201805483526001808201546001600160a01b039081168587015260028301548116938501939093526003820154928316606085015264ffffffffff600160a01b840416608085015260ff600160c81b84048116151560a0860152600160d01b909304909216151560c08401526004015460e08301529083529092019101610d4b565b50505050935060005b8451811015610e9257336001600160a01b0316858281518110610e1f57610e1f613da8565b6020026020010151602001516001600160a01b03161415610e8057848181518110610e4c57610e4c613da8565b6020026020010151848481518110610e6657610e66613da8565b60200260200101819052508280610e7c90613dd4565b9350505b80610e8a81613dd4565b915050610dfa565b5080610e9d81613dd4565b915050610ce8565b5060005b8251811015610f1657610ed8838281518110610ec757610ec7613da8565b602002602001015160800151613178565b838281518110610eea57610eea613da8565b602090810291909101015164ffffffffff90911660809091015280610f0e81613dd4565b915050610ea9565b509095945050505050565b60085460ff1661139b57428464ffffffffff1611610f815760405162461bcd60e51b815260206004820152601f60248201527f54696d652064617461206d75737420626520696e207468652066757475726500604482015260640161037e565b610f8d610e1085613eb6565b64ffffffffff1615610fdc5760405162461bcd60e51b81526020600482015260186024820152772a34b6b29036bab9ba1031329037b7103a3432903437bab960411b604482015260640161037e565b6001600160a01b0382166110285734606460095485610ffb9190613eda565b6110059190613ef9565b11156110235760405162461bcd60e51b815260040161037e90613f0d565b6110b5565b61103182612aaa565b61104d5760405162461bcd60e51b815260040161037e90613f51565b80604001358311156110b55760405162461bcd60e51b815260206004820152602b60248201527f5061796c6f6164206d757374206265207468652073616d652061732076616c7560448201526a19481c195c9b5a5d1d195960aa1b606482015260840161037e565b60006110c085612b6b565b64ffffffffff811660009081526002602052604081209192506110e6338987868a613194565b825460018082018555600085815260209081902084516005909402019283558381015191830180546001600160a01b03199081166001600160a01b0394851617909155604080860151600286018054909316908516179091556060808601516003860180546080808a015160a08b015160c08c0151958a166001600160c81b031990941693909317600160a01b64ffffffffff928316021761ffff60c81b1916600160c81b9315159390930260ff60d01b191692909217600160d01b941515949094029390931790915560e08801516004909701969096558251338152948f1693850193909352938816908301529181018990529192507f6e643cb89831cd75ded50b4ecee0e313701b6002fc48e8b80a3c05447ab066e8910160405180910390a17f2844c95bf1b4598da931d527f903501abc60fe0199c65da52d5ce818c6c5e96160405161125090602080825260069082015265141d5cda195960d21b604082015260600190565b60405180910390a1805160038054600181019091557fc2575a0e9e593c00f959f8c92f12db2869c3395a3b0502d05e2516446f71f85b015564ffffffffff8316600090815260026020526040902082546112ac91908490613779565b506112b683613244565b6001600160a01b03851615611397576001600160a01b03851663d505accf6112e160208701876139b5565b6112f160408801602089016139b5565b6040880135606089013561130b60a08b0160808c01613f96565b6040516001600160e01b031960e088901b1681526001600160a01b0395861660048201529490931660248501526044840191909152606483015260ff16608482015260a087013560a482015260c087013560c482015260e401600060405180830381600087803b15801561137e57600080fd5b505af1158015611392573d6000803e3d6000fd5b505050505b5050505b5050505050565b6006546060906001600160a01b031633146113cf5760405162461bcd60e51b815260040161037e90613d71565b60015460009067ffffffffffffffff8111156113ed576113ed613bda565b60405190808252806020026020018201604052801561143a57816020015b6040805160608082018352600080835260208301529181019190915281526020019060019003908161140b5790505b50905060005b60015481101561155a576000806001838154811061146057611460613da8565b6000918252602080832091909101546001600160a01b039081168452838201949094526040928301909120825160608101845281549485168152600160a01b90940460ff161515848301526001810180548451818502810185018652818152929486019383018282801561152157602002820191906000526020600020906000905b82829054906101000a900464ffffffffff1664ffffffffff16815260200190600501906020826004010492830192600103820291508084116114e25790505b50505050508152505082828151811061153c5761153c613da8565b6020026020010181905250808061155290613dd4565b915050611440565b50905090565b60085460ff1661212f576001815111801561157c575060648151105b6115ee5760405162461bcd60e51b815260206004820152603b60248201527f4261746368206d7573742068617665206d6f7265207468616e206f6e6520747260448201527f616e73616374696f6e20616e64206c657373207468616e203130300000000000606482015260840161037e565b6116196040518060800160405280600081526020016000815260200160008152602001606081525090565b33600090815260208181526040918290206001810180548451818502810185019095528085529193929091908301828280156116a257602002820191906000526020600020906000905b82829054906101000a900464ffffffffff1664ffffffffff16815260200190600501906020826004010492830192600103820291508084116116635790505b5050505050606083015260075460009067ffffffffffffffff8111156116ca576116ca613bda565b6040519080825280602002602001820160405280156116f3578160200160208202803683370190505b50600183015490915060009061170a906064613e06565b67ffffffffffffffff81111561172257611722613bda565b60405190808252806020026020018201604052801561174b578160200160208202803683370190505b50905060005b8551811015611abc574286828151811061176d5761176d613da8565b60200260200101516020015164ffffffffff16116117cd5760405162461bcd60e51b815260206004820152601f60248201527f54696d652064617461206d75737420626520696e207468652066757475726500604482015260640161037e565b610e108682815181106117e2576117e2613da8565b6020026020010151602001516117f89190613eb6565b64ffffffffff16156118475760405162461bcd60e51b81526020600482015260186024820152772a34b6b29036bab9ba1031329037b7103a3432903437bab960411b604482015260640161037e565b600061186f87838151811061185e5761185e613da8565b602002602001015160200151612b6b565b905061187b8184613447565b6118c957808387604001518151811061189657611896613da8565b602002602001019064ffffffffff16908164ffffffffff16815250506001866040018181516118c59190613e06565b9052505b60006001600160a01b03168783815181106118e6576118e6613da8565b6020026020010151606001516001600160a01b031614156119385786828151811061191357611913613da8565b602002602001015160400151866000018181516119309190613e06565b905250611a10565b61195e87838151811061194d5761194d613da8565b602002602001015160600151612aaa565b61197a5760405162461bcd60e51b815260040161037e90613f51565b6119a187838151811061198f5761198f613da8565b602002602001015160600151856134a9565b611a10578682815181106119b7576119b7613da8565b602002602001015160600151848760200151815181106119d9576119d9613da8565b60200260200101906001600160a01b031690816001600160a01b031681525050600186602001818151611a0c9190613e06565b9052505b868281518110611a2257611a22613da8565b60200260200101516040015160046000336001600160a01b03166001600160a01b031681526020019081526020016000206000898581518110611a6757611a67613da8565b6020026020010151606001516001600160a01b03166001600160a01b031681526020019081526020016000206000828254611aa29190613e06565b90915550829150611ab4905081613dd4565b915050611751565b3460646009548760000151611ad19190613eda565b611adb9190613ef9565b1115611af95760405162461bcd60e51b815260040161037e90613f0d565b5060005b8151811015611db757818181518110611b1857611b18613da8565b602002602001015164ffffffffff1660001415611b3457611db7565b600060026000848481518110611b4c57611b4c613da8565b602002602001015164ffffffffff1664ffffffffff168152602001908152602001600020905060005b87518161ffff161015611d58576000611b9d898361ffff168151811061185e5761185e613da8565b9050848481518110611bb157611bb1613da8565b602002602001015164ffffffffff168164ffffffffff161415611d45576000611c40338b8561ffff1681518110611bea57611bea613da8565b6020026020010151600001518c8661ffff1681518110611c0c57611c0c613da8565b602002602001015160600151858e8861ffff1681518110611c2f57611c2f613da8565b602002602001015160400151613194565b8454600181810187556000878152602080822085516005909502018481559085015181840180546001600160a01b039283166001600160a01b03199182161790915560408701516002840180549184169190921617905560608601516003808401805460808a015160a08b015160c08c01511515600160d01b0260ff60d01b19911515600160c81b029190911661ffff60c81b1964ffffffffff909316600160a01b026001600160c81b031990941696909716959095179190911716939093179190911790915560e09095015160049091015583549182018455929092527fc2575a0e9e593c00f959f8c92f12db2869c3395a3b0502d05e2516446f71f85b90910155505b5080611d5081613fb9565b915050611b75565b508060026000858581518110611d7057611d70613da8565b602002602001015164ffffffffff1664ffffffffff168152602001908152602001600020908054611da2929190613779565b50508080611daf90613dd4565b915050611afd565b5060005b82518110156120425760006001600160a01b0316838281518110611de157611de1613da8565b60200260200101516001600160a01b031614611fde573360009081526004602052604081208451909190859084908110611e1d57611e1d613da8565b60200260200101516001600160a01b03166001600160a01b0316815260200190815260200160002054838281518110611e5857611e58613da8565b6020908102919091010151604051636eb1769f60e11b81523360048201523060248201526001600160a01b039091169063dd62ed3e90604401602060405180830381600087803b158015611eab57600080fd5b505af1158015611ebf573d6000803e3d6000fd5b505050506040513d601f19601f82011682018060405250810190611ee39190613fd1565b10158015611fd557503360009081526004602052604081208451909190859084908110611f1257611f12613da8565b60200260200101516001600160a01b03166001600160a01b0316815260200190815260200160002054838281518110611f4d57611f4d613da8565b60209081029190910101516040516370a0823160e01b81523360048201526001600160a01b03909116906370a0823190602401602060405180830381600087803b158015611f9a57600080fd5b505af1158015611fae573d6000803e3d6000fd5b505050506040513d601f19601f82011682018060405250810190611fd29190613fd1565b10155b611fde57600080fd5b3360009081526004602052604081208451829086908590811061200357612003613da8565b60200260200101516001600160a01b03166001600160a01b0316815260200190815260200160002081905550808061203a90613dd4565b915050611dbb565b33600090815260208190526040902054600160a01b900460ff166120bf5783546001600160a01b03199081163390811786556001805480820182556000919091527fb10e2d527612073b26eecdfd717e6a320cf44b4afac2b0732d9fcbe2b7fa0cf6018054909216179055835460ff60a01b1916600160a01b1784555b336000908152602081905260409020845481546001600160a01b039091166001600160a01b031982168117835586546001600160a81b031990921617600160a01b9182900460ff16151590910217815560018086018054879392612126929084019161389e565b50505050505050505b50565b6006546060906001600160a01b0316331461215f5760405162461bcd60e51b815260040161037e90613d71565b6001600160a01b038216600090815260208181526040808320600101805482518185028101850190935280835291929091908301828280156121ee57602002820191906000526020600020906000905b82829054906101000a900464ffffffffff1664ffffffffff16815260200190600501906020826004010492830192600103820291508084116121af5790505b505050505090506000805b825181101561232d5760006002600085848151811061221a5761221a613da8565b602002602001015164ffffffffff1664ffffffffff168152602001908152602001600020805480602002602001604051908101604052809291908181526020016000905b82821015612304576000848152602090819020604080516101008101825260058602909201805483526001808201546001600160a01b039081168587015260028301548116938501939093526003820154928316606085015264ffffffffff600160a01b840416608085015260ff600160c81b84048116151560a0860152600160d01b909304909216151560c08401526004015460e0830152908352909201910161225e565b5050505090508051836123179190613e06565b925050808061232590613dd4565b9150506121f9565b5060008167ffffffffffffffff81111561234957612349613bda565b60405190808252806020026020018201604052801561238257816020015b61236f613735565b8152602001906001900390816123675790505b50905060008267ffffffffffffffff8111156123a0576123a0613bda565b6040519080825280602002602001820160405280156123d957816020015b6123c6613735565b8152602001906001900390816123be5790505b5090506000805b855181101561259d57600260008783815181106123ff576123ff613da8565b602002602001015164ffffffffff1664ffffffffff168152602001908152602001600020805480602002602001604051908101604052809291908181526020016000905b828210156124e9576000848152602090819020604080516101008101825260058602909201805483526001808201546001600160a01b039081168587015260028301548116938501939093526003820154928316606085015264ffffffffff600160a01b840416608085015260ff600160c81b84048116151560a0860152600160d01b909304909216151560c08401526004015460e08301529083529092019101612443565b50505050935060005b845181101561258a57886001600160a01b031685828151811061251757612517613da8565b6020026020010151602001516001600160a01b031614156125785784818151811061254457612544613da8565b602002602001015184848151811061255e5761255e613da8565b6020026020010181905250828061257490613dd4565b9350505b8061258281613dd4565b9150506124f2565b508061259581613dd4565b9150506123e0565b5060005b82518110156125fd576125bf838281518110610ec757610ec7613da8565b8382815181106125d1576125d1613da8565b602090810291909101015164ffffffffff909116608090910152806125f581613dd4565b9150506125a1565b50909450505050505b919050565b6006546000906001600160a01b031633146126385760405162461bcd60e51b815260040161037e90613d71565b600061264342612b6b565b600a5490915064ffffffffff908116908216116126725760405162461bcd60e51b815260040161037e90613e34565b600a5464ffffffffff165b8164ffffffffff168164ffffffffff16116127995764ffffffffff8116600090815260026020908152604080832080548251818502810185019093528083529192909190849084015b8282101561276c576000848152602090819020604080516101008101825260058602909201805483526001808201546001600160a01b039081168587015260028301548116938501939093526003820154928316606085015264ffffffffff600160a01b840416608085015260ff600160c81b84048116151560a0860152600160d01b909304909216151560c08401526004015460e083015290835290920191016126c6565b505050509050600081511115612786576001935050505090565b508061279181613e7b565b91505061267d565b50600091505090565b60006127ad82612b6b565b64ffffffffff8116600090815260026020526040902054909150600114156127fc5764ffffffffff811660009081526002602052604081206127ee916138f8565b6127f781613505565b505050565b64ffffffffff811660009081526002602052604081209080805b835481101561290757336001600160a01b031684828154811061283b5761283b613da8565b60009182526020909120600160059092020101546001600160a01b0316141561286c578161286881613dd4565b9250505b8684828154811061287f5761287f613da8565b90600052602060002090600502016000015414156128f5578092508381815481106128ac576128ac613da8565b6000918252602082206005909102018181556001810180546001600160a01b031990811690915560028201805490911690556003810180546001600160d81b0319169055600401555b806128ff81613dd4565b915050612816565b508254839061291890600190613def565b8154811061292857612928613da8565b906000526020600020906005020183838154811061294857612948613da8565b60009182526020909120825460059092020190815560018083015490820180546001600160a01b03199081166001600160a01b039384161790915560028085015490840180548316918416919091179055600380850180549185018054938416929094169182178455805464ffffffffff600160a01b9182900416026001600160c81b031990931690911791909117808355815460ff600160c81b918290048116151590910260ff60c81b198316811785559254600160d01b9081900490911615150260ff60d01b1990921661ffff60c81b19909116171790556004918201549101558254839080612a3c57612a3c613e1e565b600082815260208120600560001990930192830201818155600181810180546001600160a01b031990811690915560028301805490911690556003820180546001600160d81b03191690556004909101919091559155811415612aa257612aa284613505565b505050505050565b6000806007805480602002602001604051908101604052809291908181526020018280548015612b0357602002820191906000526020600020905b81546001600160a01b03168152600190910190602001808311612ae5575b505050505090506000915060005b8151811015612b6457818181518110612b2c57612b2c613da8565b60200260200101516001600160a01b0316846001600160a01b03161415612b5257600192505b80612b5c81613dd4565b915050612b11565b5050919050565b6000610e10612b7e636323682084613fea565b612b889190614010565b92915050565b60085460ff1661212f5760608101516000906001600160a01b0316612bc25760e08201514711612bbd57600080fd5b612d81565b60e082015160608301516020840151604051636eb1769f60e11b81526001600160a01b03918216600482015230602482015291169063dd62ed3e90604401602060405180830381600087803b158015612c1a57600080fd5b505af1158015612c2e573d6000803e3d6000fd5b505050506040513d601f19601f82011682018060405250810190612c529190613fd1565b1080612ce5575060e0820151606083015160208401516040516370a0823160e01b81526001600160a01b0391821660048201529116906370a0823190602401602060405180830381600087803b158015612cab57600080fd5b505af1158015612cbf573d6000803e3d6000fd5b505050506040513d601f19601f82011682018060405250810190612ce39190613fd1565b105b15612d81575060608101516020820151604051636eb1769f60e11b81526001600160a01b039182166004820152306024820152600192612d8192169063dd62ed3e90604401602060405180830381600087803b158015612d4457600080fd5b505af1158015612d58573d6000803e3d6000fd5b505050506040513d601f19601f82011682018060405250810190612d7c9190613fd1565b6136d4565b8061317457608082015164ffffffffff16600090815260026020908152604080832080548251818502810185019093528083529192909190849084015b82821015612e64576000848152602090819020604080516101008101825260058602909201805483526001808201546001600160a01b039081168587015260028301548116938501939093526003820154928316606085015264ffffffffff600160a01b840416608085015260ff600160c81b84048116151560a0860152600160d01b909304909216151560c08401526004015460e08301529083529092019101612dbe565b50505050608084015164ffffffffff1660009081526002602052604081209192505b8251811015612fdf578460000151838281518110612ea657612ea6613da8565b6020026020010151600001511415612fcd57828181518110612eca57612eca613da8565b602002602001015194508315612ee657600160c0860152612eee565b600160a08601525b84828281548110612f0157612f01613da8565b60009182526020918290208351600590920201908155908201516001820180546001600160a01b039283166001600160a01b0319918216179091556040840151600284018054918416919092161790556060830151600383018054608086015160a087015160c08801511515600160d01b0260ff60d01b19911515600160c81b029190911661ffff60c81b1964ffffffffff909316600160a01b026001600160c81b0319909416959096169490941791909117169290921717905560e090910151600490910155612fdf565b80612fd781613dd4565b915050612e86565b50608084015164ffffffffff166000908152600260205260409020815461300891908390613779565b5060608401516001600160a01b03166130c957600084604001516001600160a01b03166108fc8660e001519081150290604051600060405180830381858888f1935050505090508061308f5760405162461bcd60e51b815260206004820152601060248201526f2a3930b739b332b9103330b4b632b21760811b604482015260640161037e565b604051600181527fa2ea5b0db1d57b0e32df654aa9a1a97bc8066881e37669ff488d2bebe87c9f879060200160405180910390a150613171565b6060840151602085015160408087015160e088015191516323b872dd60e01b81526001600160a01b039384166004820152908316602482015260448101919091529116906323b872dd90606401602060405180830381600087803b15801561313057600080fd5b505af1158015613144573d6000803e3d6000fd5b505050506040513d601f19601f820116820180604052508101906131689190614034565b61317157600080fd5b50505b5050565b600061318682610e10614056565b612b88906363236820614083565b61319c613735565b6040516bffffffffffffffffffffffff19606088901b1660208201526001600160d81b031960d885901b16603482015242603982015260009060590160408051601f1981840301815282825280516020918201206101008401835283526001600160a01b03998a169083015296881696810196909652505091909316606083015264ffffffffff9092166080820152600060a0820181905260c082015260e081019190915290565b3360009081526020819052604090208054600160a01b900460ff16613300578054336001600160a01b0319918216811783556001805480820182557fb10e2d527612073b26eecdfd717e6a320cf44b4afac2b0732d9fcbe2b7fa0cf60180549093169091179091558154600160a01b60ff60a01b199091161782558082018054918201815560009081526020902060068083049091018054919092066005026101000a64ffffffffff81810219909216918516021790556133e0565b60008160010180548060200260200160405190810160405280929190818152602001828054801561337e57602002820191906000526020600020906000905b82829054906101000a900464ffffffffff1664ffffffffff168152602001906005019060208260040104928301926001038202915080841161333f5790505b5050505050905061338f8382613447565b6133de5782826001016001816001815401808255809150500390600052602060002090600691828204019190066005026101000a81548164ffffffffff021916908364ffffffffff1602179055505b505b336000908152602081905260409020815481546001600160a01b039091166001600160a01b031982168117835583546001600160a81b031990921617600160a01b9182900460ff1615159091021781556001808301805484939261139b929084019161389e565b6000805b825181101561349f578364ffffffffff1683828151811061346e5761346e613da8565b602002602001015164ffffffffff16141561348d576001915050612b88565b8061349781613dd4565b91505061344b565b5060009392505050565b6000805b825181101561349f57836001600160a01b03168382815181106134d2576134d2613da8565b60200260200101516001600160a01b031614156134f3576001915050612b88565b806134fd81613dd4565b9150506134ad565b336000908152602081905260409020600190810154141561353e5733600090815260208190526040812061212f91600190910190613919565b33600090815260208190526040812060010190805b82548110156135ff578364ffffffffff1683828154811061357657613576613da8565b90600052602060002090600691828204019190066005029054906101000a900464ffffffffff1664ffffffffff1614156135ed578091508281815481106135bf576135bf613da8565b90600052602060002090600691828204019190066005026101000a81549064ffffffffff02191690556135ff565b806135f781613dd4565b915050613553565b508154829061361090600190613def565b8154811061362057613620613da8565b90600052602060002090600691828204019190066005029054906101000a900464ffffffffff1682828154811061365957613659613da8565b90600052602060002090600691828204019190066005026101000a81548164ffffffffff021916908364ffffffffff1602179055508180548061369e5761369e613e1e565b60019003818190600052602060002090600691828204019190066005026101000a81549064ffffffffff02191690559055505050565b61212f816040516024016136ea91815260200190565b60408051601f198184030181529190526020810180516001600160e01b031663f82c50f160e01b17905280516a636f6e736f6c652e6c6f67602083016000808483855afa5050505050565b6040805161010081018252600080825260208201819052918101829052606081018290526080810182905260a0810182905260c0810182905260e081019190915290565b82805482825590600052602060002090600502810192821561388e5760005260206000209160050282015b8281111561388e578254825560018084015490830180546001600160a01b03199081166001600160a01b039384161790915560028086015490850180548316918416919091179055600380860180549186018054938416929094169182178455805464ffffffffff600160a01b9182900416026001600160c81b031990931690911791909117808355815460ff600160c81b918290048116151590910260ff60c81b198316811785559254600160d01b9081900490911615150260ff60d01b1990921661ffff60c81b199091161717905560048084015490830155600592830192909101906137a4565b5061389a92915061393e565b5090565b828054828255906000526020600020906005016006900481019282156138ec576000526020600020916005016006900482015b828111156138ec5782548255916001019190600101906138d1565b5061389a92915061398b565b508054600082556005029060005260206000209081019061212f919061393e565b50805460008255600501600690049060005260206000209081019061212f919061398b565b5b8082111561389a5760008082556001820180546001600160a01b031990811690915560028301805490911690556003820180546001600160d81b0319169055600482015560050161393f565b5b8082111561389a576000815560010161398c565b6001600160a01b038116811461212f57600080fd5b6000602082840312156139c757600080fd5b81356139d2816139a0565b9392505050565b602080825282518282018190526000919060409081850190868401855b82811015613a7457815180518552868101516001600160a01b0390811688870152868201518116878701526060808301519091169086015260808082015164ffffffffff169086015260a08082015115159086015260c08082015115159086015260e0908101519085015261010090930192908501906001016139f6565b5091979650505050505050565b600060208284031215613a9357600080fd5b5035919050565b803564ffffffffff8116811461260657600080fd5b6000806000806000858703610160811215613ac957600080fd5b8635613ad4816139a0565b9550613ae260208801613a9a565b9450604087013593506060870135613af9816139a0565b925060e0607f1982011215613b0d57600080fd5b506080860190509295509295909350565b60006020808301818452808551808352604092508286019150828160051b8701018488016000805b84811015613bcb57898403603f19018652825180516001600160a01b03168552888101511515898601528701516060888601819052815190860181905290890190608086019084905b80821015613bb657835164ffffffffff168352928b0192918b019160019190910190613b8f565b50509689019694505091870191600101613b46565b50919998505050505050505050565b634e487b7160e01b600052604160045260246000fd5b6040516080810167ffffffffffffffff81118282101715613c1357613c13613bda565b60405290565b604051601f8201601f1916810167ffffffffffffffff81118282101715613c4257613c42613bda565b604052919050565b60006020808385031215613c5d57600080fd5b823567ffffffffffffffff80821115613c7557600080fd5b818501915085601f830112613c8957600080fd5b813581811115613c9b57613c9b613bda565b613ca9848260051b01613c19565b818152848101925060079190911b830184019087821115613cc957600080fd5b928401925b81841015613d3a5760808489031215613ce75760008081fd5b613cef613bf0565b8435613cfa816139a0565b8152613d07858701613a9a565b8187015260408581013590820152606080860135613d24816139a0565b9082015283526080939093019291840191613cce565b979650505050505050565b60008060408385031215613d5857600080fd5b82359150613d6860208401613a9a565b90509250929050565b6020808252601a908201527f4d75737420686176652061646d696e2070726976696c65676573000000000000604082015260600190565b634e487b7160e01b600052603260045260246000fd5b634e487b7160e01b600052601160045260246000fd5b6000600019821415613de857613de8613dbe565b5060010190565b600082821015613e0157613e01613dbe565b500390565b60008219821115613e1957613e19613dbe565b500190565b634e487b7160e01b600052603160045260246000fd5b60208082526027908201527f54696d6520616c726561647920636865636b656420666f7220746869732074696040820152661b59481cdb1bdd60ca1b606082015260800190565b600064ffffffffff80831681811415613e9657613e96613dbe565b6001019392505050565b634e487b7160e01b600052601260045260246000fd5b600064ffffffffff80841680613ece57613ece613ea0565b92169190910692915050565b6000816000190483118215151615613ef457613ef4613dbe565b500290565b600082613f0857613f08613ea0565b500490565b60208082526024908201527f4e6f7420656e6f756768204554482073656e742077697468207472616e7361636040820152633a34b7b760e11b606082015260800190565b60208082526025908201527f20546f6b656e206e6f7420617070726f76656420666f72207468697320636f6e6040820152641d1c9858dd60da1b606082015260800190565b600060208284031215613fa857600080fd5b813560ff811681146139d257600080fd5b600061ffff80831681811415613e9657613e96613dbe565b600060208284031215613fe357600080fd5b5051919050565b600064ffffffffff8381169083168181101561400857614008613dbe565b039392505050565b600064ffffffffff8084168061402857614028613ea0565b92169190910492915050565b60006020828403121561404657600080fd5b815180151581146139d257600080fd5b600064ffffffffff8083168185168183048111821515161561407a5761407a613dbe565b02949350505050565b600064ffffffffff8083168185168083038211156140a3576140a3613dbe565b0194935050505056fea26469706673582212209f325b9ca3123e563e9cbe2a1005591173e5af932ec38fcec8d25c190f6648d264736f6c63430008090033",
  "linkReferences": {},
  "deployedLinkReferences": {}
}