{
  "_format": "hh-sol-artifact-1",
  "contractName": "Clocktower",
  "sourceName": "contracts/Clocktower.sol",
  "abi": [
    {
      "inputs": [],
      "stateMutability": "payable",
      "type": "constructor"
    },
    {
      "anonymous": false,
      "inputs": [
        {
          "indexed": false,
          "internalType": "string",
          "name": "output4",
          "type": "string"
        }
      ],
      "name": "AccountCreated",
      "type": "event"
    },
    {
      "anonymous": false,
      "inputs": [
        {
          "indexed": false,
          "internalType": "string",
          "name": "output2",
          "type": "string"
        }
      ],
      "name": "CheckStatus",
      "type": "event"
    },
    {
      "anonymous": false,
      "inputs": [
        {
          "indexed": false,
          "internalType": "address",
          "name": "user",
          "type": "address"
        },
        {
          "indexed": false,
          "internalType": "uint256",
          "name": "amount",
          "type": "uint256"
        }
      ],
      "name": "ReceiveETH",
      "type": "event"
    },
    {
      "anonymous": false,
      "inputs": [
        {
          "indexed": false,
          "internalType": "string",
          "name": "output",
          "type": "string"
        }
      ],
      "name": "Status",
      "type": "event"
    },
    {
      "anonymous": false,
      "inputs": [
        {
          "indexed": false,
          "internalType": "address",
          "name": "sender",
          "type": "address"
        },
        {
          "indexed": false,
          "internalType": "address",
          "name": "receiver",
          "type": "address"
        },
        {
          "indexed": false,
          "internalType": "uint40",
          "name": "timeTrigger",
          "type": "uint40"
        },
        {
          "indexed": false,
          "internalType": "uint256",
          "name": "payload",
          "type": "uint256"
        }
      ],
      "name": "TransactionAdd",
      "type": "event"
    },
    {
      "anonymous": false,
      "inputs": [
        {
          "indexed": false,
          "internalType": "bool",
          "name": "sent",
          "type": "bool"
        }
      ],
      "name": "TransactionSent",
      "type": "event"
    },
    {
      "anonymous": false,
      "inputs": [
        {
          "indexed": false,
          "internalType": "string",
          "name": "output3",
          "type": "string"
        }
      ],
      "name": "UnknownFunction",
      "type": "event"
    },
    {
      "stateMutability": "payable",
      "type": "fallback"
    },
    {
      "inputs": [
        {
          "components": [
            {
              "internalType": "address payable",
              "name": "receiver",
              "type": "address"
            },
            {
              "internalType": "uint40",
              "name": "unixTime",
              "type": "uint40"
            },
            {
              "internalType": "uint256",
              "name": "payload",
              "type": "uint256"
            }
          ],
          "internalType": "struct Clocktower.Batch[]",
          "name": "batch",
          "type": "tuple[]"
        }
      ],
      "name": "addBatchTransactions",
      "outputs": [],
      "stateMutability": "payable",
      "type": "function"
    },
    {
      "inputs": [
        {
          "internalType": "address payable",
          "name": "receiver",
          "type": "address"
        },
        {
          "internalType": "uint40",
          "name": "unixTime",
          "type": "uint40"
        },
        {
          "internalType": "uint256",
          "name": "payload",
          "type": "uint256"
        }
      ],
      "name": "addTransaction",
      "outputs": [],
      "stateMutability": "payable",
      "type": "function"
    },
    {
      "inputs": [],
      "name": "allAccounts",
      "outputs": [
        {
          "components": [
            {
              "internalType": "address",
              "name": "accountAddress",
              "type": "address"
            },
            {
              "internalType": "bool",
              "name": "exists",
              "type": "bool"
            },
            {
              "internalType": "uint256",
              "name": "balance",
              "type": "uint256"
            },
            {
              "internalType": "uint40[]",
              "name": "timeTriggers",
              "type": "uint40[]"
            }
          ],
          "internalType": "struct Clocktower.Account[]",
          "name": "",
          "type": "tuple[]"
        }
      ],
      "stateMutability": "view",
      "type": "function"
    },
    {
      "inputs": [],
      "name": "allTransactions",
      "outputs": [
        {
          "components": [
            {
              "internalType": "bytes32",
              "name": "id",
              "type": "bytes32"
            },
            {
              "internalType": "address",
              "name": "sender",
              "type": "address"
            },
            {
              "internalType": "address payable",
              "name": "receiver",
              "type": "address"
            },
            {
              "internalType": "uint40",
              "name": "timeTrigger",
              "type": "uint40"
            },
            {
              "internalType": "bool",
              "name": "sent",
              "type": "bool"
            },
            {
              "internalType": "bool",
              "name": "cancelled",
              "type": "bool"
            },
            {
              "internalType": "uint256",
              "name": "payload",
              "type": "uint256"
            }
          ],
          "internalType": "struct Clocktower.Transaction[]",
          "name": "",
          "type": "tuple[]"
        }
      ],
      "stateMutability": "view",
      "type": "function"
    },
    {
      "inputs": [
        {
          "internalType": "bytes32",
          "name": "id",
          "type": "bytes32"
        },
        {
          "internalType": "uint40",
          "name": "timeTrigger",
          "type": "uint40"
        }
      ],
      "name": "cancelTransaction",
      "outputs": [],
      "stateMutability": "payable",
      "type": "function"
    },
    {
      "inputs": [
        {
          "internalType": "address",
          "name": "newAddress",
          "type": "address"
        }
      ],
      "name": "changeAdmin",
      "outputs": [],
      "stateMutability": "nonpayable",
      "type": "function"
    },
    {
      "inputs": [],
      "name": "checkTime",
      "outputs": [],
      "stateMutability": "nonpayable",
      "type": "function"
    },
    {
      "inputs": [],
      "name": "getAccountTransactions",
      "outputs": [
        {
          "components": [
            {
              "internalType": "bytes32",
              "name": "id",
              "type": "bytes32"
            },
            {
              "internalType": "address",
              "name": "sender",
              "type": "address"
            },
            {
              "internalType": "address payable",
              "name": "receiver",
              "type": "address"
            },
            {
              "internalType": "uint40",
              "name": "timeTrigger",
              "type": "uint40"
            },
            {
              "internalType": "bool",
              "name": "sent",
              "type": "bool"
            },
            {
              "internalType": "bool",
              "name": "cancelled",
              "type": "bool"
            },
            {
              "internalType": "uint256",
              "name": "payload",
              "type": "uint256"
            }
          ],
          "internalType": "struct Clocktower.Transaction[]",
          "name": "",
          "type": "tuple[]"
        }
      ],
      "stateMutability": "view",
      "type": "function"
    },
    {
      "inputs": [],
      "name": "getTime",
      "outputs": [
        {
          "internalType": "uint256",
          "name": "",
          "type": "uint256"
        }
      ],
      "stateMutability": "view",
      "type": "function"
    },
    {
      "inputs": [
        {
          "internalType": "address",
          "name": "account",
          "type": "address"
        }
      ],
      "name": "getTransactionsByAccount",
      "outputs": [
        {
          "components": [
            {
              "internalType": "bytes32",
              "name": "id",
              "type": "bytes32"
            },
            {
              "internalType": "address",
              "name": "sender",
              "type": "address"
            },
            {
              "internalType": "address payable",
              "name": "receiver",
              "type": "address"
            },
            {
              "internalType": "uint40",
              "name": "timeTrigger",
              "type": "uint40"
            },
            {
              "internalType": "bool",
              "name": "sent",
              "type": "bool"
            },
            {
              "internalType": "bool",
              "name": "cancelled",
              "type": "bool"
            },
            {
              "internalType": "uint256",
              "name": "payload",
              "type": "uint256"
            }
          ],
          "internalType": "struct Clocktower.Transaction[]",
          "name": "",
          "type": "tuple[]"
        }
      ],
      "stateMutability": "view",
      "type": "function"
    },
    {
      "inputs": [
        {
          "internalType": "uint40",
          "name": "unixTime",
          "type": "uint40"
        }
      ],
      "name": "hoursSinceMerge",
      "outputs": [
        {
          "internalType": "uint40",
          "name": "hourCount",
          "type": "uint40"
        }
      ],
      "stateMutability": "view",
      "type": "function"
    },
    {
      "inputs": [],
      "name": "toggleContractActive",
      "outputs": [],
      "stateMutability": "nonpayable",
      "type": "function"
    },
    {
      "stateMutability": "payable",
      "type": "receive"
    }
  ],
  "bytecode": "0x608060405273f39fd6e51aad88f6f4ce6ab8827279cfffb92266600460006101000a81548173ffffffffffffffffffffffffffffffffffffffff021916908373ffffffffffffffffffffffffffffffffffffffff1602179055506000600460146101000a81548160ff0219169083151502179055506363236820600460156101000a81548164ffffffffff021916908364ffffffffff16021790555060016005556001620000b342620000e760201b60201c565b620000bf919062000160565b600660006101000a81548164ffffffffff021916908364ffffffffff16021790555062000207565b6000610e10600460159054906101000a900464ffffffffff16836200010d919062000160565b620001199190620001cf565b9050919050565b600064ffffffffff82169050919050565b7f4e487b7100000000000000000000000000000000000000000000000000000000600052601160045260246000fd5b60006200016d8262000120565b91506200017a8362000120565b9250828203905064ffffffffff8111156200019a576200019962000131565b5b92915050565b7f4e487b7100000000000000000000000000000000000000000000000000000000600052601260045260246000fd5b6000620001dc8262000120565b9150620001e98362000120565b925082620001fc57620001fb620001a0565b5b828204905092915050565b61483c80620002176000396000f3fe6080604052600436106100ab5760003560e01c8063c682cce411610064578063c682cce414610211578063cf783d8a1461023c578063dc9961eb14610267578063e0c6190d146102a4578063e8a22a5c146102bb578063e9e1dbef146102d7576100eb565b80631385d24c146101225780631ccb33711461013957806339ad38c114610164578063557ed1ba146101805780637e4b1029146101ab5780638f283970146101e8576100eb565b366100eb577f830d2d700a97af574b186c80d40429385d24241565b08a7c559ba283a964d9b133346040516100e1929190613602565b60405180910390a1005b7f19525a32afaad9a5491805c356597487a306fc2f4e8541d8d55e1fe951091e6060405161011890613688565b60405180910390a1005b34801561012e57600080fd5b506101376102f3565b005b34801561014557600080fd5b5061014e610379565b60405161015b9190613878565b60405180910390f35b61017e60048036038101906101799190613932565b610512565b005b34801561018c57600080fd5b50610195610c00565b6040516101a29190613985565b60405180910390f35b3480156101b757600080fd5b506101d260048036038101906101cd91906139a0565b610c08565b6040516101df91906139dc565b60405180910390f35b3480156101f457600080fd5b5061020f600480360381019061020a9190613a23565b610c3d565b005b34801561021d57600080fd5b50610226610d4c565b6040516102339190613878565b60405180910390f35b34801561024857600080fd5b50610251611364565b60405161025e9190613c24565b60405180910390f35b34801561027357600080fd5b5061028e60048036038101906102899190613a23565b6115ee565b60405161029b9190613878565b60405180910390f35b3480156102b057600080fd5b506102b9611c62565b005b6102d560048036038101906102d09190613e08565b611fe1565b005b6102f160048036038101906102ec9190613e7d565b612831565b005b600460009054906101000a900473ffffffffffffffffffffffffffffffffffffffff1673ffffffffffffffffffffffffffffffffffffffff163373ffffffffffffffffffffffffffffffffffffffff161461034d57600080fd5b600460149054906101000a900460ff1615600460146101000a81548160ff021916908315150217905550565b6060600460009054906101000a900473ffffffffffffffffffffffffffffffffffffffff1673ffffffffffffffffffffffffffffffffffffffff163373ffffffffffffffffffffffffffffffffffffffff16146103d557600080fd5b600060028054905067ffffffffffffffff8111156103f6576103f5613c5c565b5b60405190808252806020026020018201604052801561042f57816020015b61041c6131f1565b8152602001906001900390816104145790505b5090506000805b60018054905081101561050957600061048c6001838154811061045c5761045b613ebd565b5b9060005260206000200160009054906101000a900473ffffffffffffffffffffffffffffffffffffffff166115ee565b905060005b81518110156104f4578181815181106104ad576104ac613ebd565b5b60200260200101518585815181106104c8576104c7613ebd565b5b602002602001018190525083806104de90613f1b565b94505080806104ec90613f1b565b915050610491565b5050808061050190613f1b565b915050610436565b50819250505090565b428264ffffffffff161161055b576040517f08c379a000000000000000000000000000000000000000000000000000000000815260040161055290613faf565b60405180910390fd5b6000610e108361056b9190613ffe565b64ffffffffff16146105b2576040517f08c379a00000000000000000000000000000000000000000000000000000000081526004016105a99061407b565b60405180910390fd5b600554346105c0919061409b565b811115610602576040517f08c379a00000000000000000000000000000000000000000000000000000000081526004016105f99061414f565b60405180910390fd5b600061060d83610c08565b90506000600360008364ffffffffff1664ffffffffff1681526020019081526020016000209050600061064233878587612c40565b905080826001816001815401808255809150500390600052602060002090600402016000820151816000015560208201518160010160006101000a81548173ffffffffffffffffffffffffffffffffffffffff021916908373ffffffffffffffffffffffffffffffffffffffff16021790555060408201518160020160006101000a81548173ffffffffffffffffffffffffffffffffffffffff021916908373ffffffffffffffffffffffffffffffffffffffff16021790555060608201518160020160146101000a81548164ffffffffff021916908364ffffffffff16021790555060808201518160020160196101000a81548160ff02191690831515021790555060a082015181600201601a6101000a81548160ff02191690831515021790555060c082015181600301559050507f6e643cb89831cd75ded50b4ecee0e313701b6002fc48e8b80a3c05447ab066e8338785876040516107a794939291906141ce565b60405180910390a17f2844c95bf1b4598da931d527f903501abc60fe0199c65da52d5ce818c6c5e9616040516107dc9061425f565b60405180910390a18060000151600260018160018154018082558091505003906000526020600020018190555081600360008564ffffffffff1664ffffffffff168152602001908152602001600020908054610839929190613268565b5060008060003373ffffffffffffffffffffffffffffffffffffffff1673ffffffffffffffffffffffffffffffffffffffff168152602001908152602001600020905080600101543461088c919061427f565b81600101819055506000808260020180548060200260200160405190810160405280929190818152602001828054801561091357602002820191906000526020600020906000905b82829054906101000a900464ffffffffff1664ffffffffff16815260200190600501906020826004010492830192600103820291508084116108d45790505b5050505050905060005b815181101561096d578664ffffffffff1682828151811061094157610940613ebd565b5b602002602001015164ffffffffff160361095a57600192505b808061096590613f1b565b91505061091d565b5060001515821515036109c55785836002016001816001815401808255809150500390600052602060002090600691828204019190066005026101000a81548164ffffffffff021916908364ffffffffff1602179055505b600015156000803373ffffffffffffffffffffffffffffffffffffffff1673ffffffffffffffffffffffffffffffffffffffff16815260200190815260200160002060000160149054906101000a900460ff16151503610afe57338360000160006101000a81548173ffffffffffffffffffffffffffffffffffffffff021916908373ffffffffffffffffffffffffffffffffffffffff1602179055508260000160009054906101000a900473ffffffffffffffffffffffffffffffffffffffff1660018081600181540180825580915050039060005260206000200160006101000a81548173ffffffffffffffffffffffffffffffffffffffff021916908373ffffffffffffffffffffffffffffffffffffffff16021790555060018360000160146101000a81548160ff0219169083151502179055505b826000803373ffffffffffffffffffffffffffffffffffffffff1673ffffffffffffffffffffffffffffffffffffffff1681526020019081526020016000206000820160009054906101000a900473ffffffffffffffffffffffffffffffffffffffff168160000160006101000a81548173ffffffffffffffffffffffffffffffffffffffff021916908373ffffffffffffffffffffffffffffffffffffffff1602179055506000820160149054906101000a900460ff168160000160146101000a81548160ff021916908315150217905550600182015481600101556002820181600201908054610bf1929190613436565b50905050505050505050505050565b600042905090565b6000610e10600460159054906101000a900464ffffffffff1683610c2c91906142b3565b610c3691906142ec565b9050919050565b600460009054906101000a900473ffffffffffffffffffffffffffffffffffffffff1673ffffffffffffffffffffffffffffffffffffffff163373ffffffffffffffffffffffffffffffffffffffff1614610c9757600080fd5b8073ffffffffffffffffffffffffffffffffffffffff163373ffffffffffffffffffffffffffffffffffffffff16148015610cff5750600073ffffffffffffffffffffffffffffffffffffffff168173ffffffffffffffffffffffffffffffffffffffff1614155b610d0857600080fd5b80600460006101000a81548173ffffffffffffffffffffffffffffffffffffffff021916908373ffffffffffffffffffffffffffffffffffffffff16021790555050565b606060008060003373ffffffffffffffffffffffffffffffffffffffff1673ffffffffffffffffffffffffffffffffffffffff168152602001908152602001600020600201805480602002602001604051908101604052809291908181526020018280548015610e0957602002820191906000526020600020906000905b82829054906101000a900464ffffffffff1664ffffffffff1681526020019060050190602082600401049283019260010382029150808411610dca5790505b505050505090506000805b8251811015610ff457600060036000858481518110610e3657610e35613ebd565b5b602002602001015164ffffffffff1664ffffffffff168152602001908152602001600020805480602002602001604051908101604052809291908181526020016000905b82821015610fcb57838290600052602060002090600402016040518060e0016040529081600082015481526020016001820160009054906101000a900473ffffffffffffffffffffffffffffffffffffffff1673ffffffffffffffffffffffffffffffffffffffff1673ffffffffffffffffffffffffffffffffffffffff1681526020016002820160009054906101000a900473ffffffffffffffffffffffffffffffffffffffff1673ffffffffffffffffffffffffffffffffffffffff1673ffffffffffffffffffffffffffffffffffffffff1681526020016002820160149054906101000a900464ffffffffff1664ffffffffff1664ffffffffff1681526020016002820160199054906101000a900460ff1615151515815260200160028201601a9054906101000a900460ff1615151515815260200160038201548152505081526020019060010190610e7a565b505050509050805183610fde919061427f565b9250508080610fec90613f1b565b915050610e14565b5060008167ffffffffffffffff81111561101157611010613c5c565b5b60405190808252806020026020018201604052801561104a57816020015b6110376131f1565b81526020019060019003908161102f5790505b50905060008267ffffffffffffffff81111561106957611068613c5c565b5b6040519080825280602002602001820160405280156110a257816020015b61108f6131f1565b8152602001906001900390816110875790505b5090506000805b85518110156112de57600360008783815181106110c9576110c8613ebd565b5b602002602001015164ffffffffff1664ffffffffff168152602001908152602001600020805480602002602001604051908101604052809291908181526020016000905b8282101561125e57838290600052602060002090600402016040518060e0016040529081600082015481526020016001820160009054906101000a900473ffffffffffffffffffffffffffffffffffffffff1673ffffffffffffffffffffffffffffffffffffffff1673ffffffffffffffffffffffffffffffffffffffff1681526020016002820160009054906101000a900473ffffffffffffffffffffffffffffffffffffffff1673ffffffffffffffffffffffffffffffffffffffff1673ffffffffffffffffffffffffffffffffffffffff1681526020016002820160149054906101000a900464ffffffffff1664ffffffffff1664ffffffffff1681526020016002820160199054906101000a900460ff1615151515815260200160028201601a9054906101000a900460ff161515151581526020016003820154815250508152602001906001019061110d565b50505050935060005b84518110156112ca5784818151811061128357611282613ebd565b5b602002602001015184848151811061129e5761129d613ebd565b5b602002602001018190525082806112b490613f1b565b93505080806112c290613f1b565b915050611267565b5080806112d690613f1b565b9150506110a9565b5060005b82518110156113585761131283828151811061130157611300613ebd565b5b602002602001015160600151612cee565b83828151811061132557611324613ebd565b5b60200260200101516060019064ffffffffff16908164ffffffffff1681525050808061135090613f1b565b9150506112e2565b50819550505050505090565b6060600460009054906101000a900473ffffffffffffffffffffffffffffffffffffffff1673ffffffffffffffffffffffffffffffffffffffff163373ffffffffffffffffffffffffffffffffffffffff16146113c057600080fd5b600060018054905067ffffffffffffffff8111156113e1576113e0613c5c565b5b60405190808252806020026020018201604052801561141a57816020015b611407613496565b8152602001906001900390816113ff5790505b50905060005b6001805490508110156115e6576000806001838154811061144457611443613ebd565b5b9060005260206000200160009054906101000a900473ffffffffffffffffffffffffffffffffffffffff1673ffffffffffffffffffffffffffffffffffffffff1673ffffffffffffffffffffffffffffffffffffffff1681526020019081526020016000206040518060800160405290816000820160009054906101000a900473ffffffffffffffffffffffffffffffffffffffff1673ffffffffffffffffffffffffffffffffffffffff1673ffffffffffffffffffffffffffffffffffffffff1681526020016000820160149054906101000a900460ff1615151515815260200160018201548152602001600282018054806020026020016040519081016040528092919081815260200182805480156115ac57602002820191906000526020600020906000905b82829054906101000a900464ffffffffff1664ffffffffff168152602001906005019060208260040104928301926001038202915080841161156d5790505b5050505050815250508282815181106115c8576115c7613ebd565b5b602002602001018190525080806115de90613f1b565b915050611420565b508091505090565b6060600460009054906101000a900473ffffffffffffffffffffffffffffffffffffffff1673ffffffffffffffffffffffffffffffffffffffff163373ffffffffffffffffffffffffffffffffffffffff161461164a57600080fd5b60008060008473ffffffffffffffffffffffffffffffffffffffff1673ffffffffffffffffffffffffffffffffffffffff16815260200190815260200160002060020180548060200260200160405190810160405280929190818152602001828054801561170557602002820191906000526020600020906000905b82829054906101000a900464ffffffffff1664ffffffffff16815260200190600501906020826004010492830192600103820291508084116116c65790505b505050505090506000805b82518110156118f05760006003600085848151811061173257611731613ebd565b5b602002602001015164ffffffffff1664ffffffffff168152602001908152602001600020805480602002602001604051908101604052809291908181526020016000905b828210156118c757838290600052602060002090600402016040518060e0016040529081600082015481526020016001820160009054906101000a900473ffffffffffffffffffffffffffffffffffffffff1673ffffffffffffffffffffffffffffffffffffffff1673ffffffffffffffffffffffffffffffffffffffff1681526020016002820160009054906101000a900473ffffffffffffffffffffffffffffffffffffffff1673ffffffffffffffffffffffffffffffffffffffff1673ffffffffffffffffffffffffffffffffffffffff1681526020016002820160149054906101000a900464ffffffffff1664ffffffffff1664ffffffffff1681526020016002820160199054906101000a900460ff1615151515815260200160028201601a9054906101000a900460ff1615151515815260200160038201548152505081526020019060010190611776565b5050505090508051836118da919061427f565b92505080806118e890613f1b565b915050611710565b5060008167ffffffffffffffff81111561190d5761190c613c5c565b5b60405190808252806020026020018201604052801561194657816020015b6119336131f1565b81526020019060019003908161192b5790505b50905060008267ffffffffffffffff81111561196557611964613c5c565b5b60405190808252806020026020018201604052801561199e57816020015b61198b6131f1565b8152602001906001900390816119835790505b5090506000805b8551811015611bda57600360008783815181106119c5576119c4613ebd565b5b602002602001015164ffffffffff1664ffffffffff168152602001908152602001600020805480602002602001604051908101604052809291908181526020016000905b82821015611b5a57838290600052602060002090600402016040518060e0016040529081600082015481526020016001820160009054906101000a900473ffffffffffffffffffffffffffffffffffffffff1673ffffffffffffffffffffffffffffffffffffffff1673ffffffffffffffffffffffffffffffffffffffff1681526020016002820160009054906101000a900473ffffffffffffffffffffffffffffffffffffffff1673ffffffffffffffffffffffffffffffffffffffff1673ffffffffffffffffffffffffffffffffffffffff1681526020016002820160149054906101000a900464ffffffffff1664ffffffffff1664ffffffffff1681526020016002820160199054906101000a900460ff1615151515815260200160028201601a9054906101000a900460ff1615151515815260200160038201548152505081526020019060010190611a09565b50505050935060005b8451811015611bc657848181518110611b7f57611b7e613ebd565b5b6020026020010151848481518110611b9a57611b99613ebd565b5b60200260200101819052508280611bb090613f1b565b9350508080611bbe90613f1b565b915050611b63565b508080611bd290613f1b565b9150506119a5565b5060005b8251811015611c5457611c0e838281518110611bfd57611bfc613ebd565b5b602002602001015160600151612cee565b838281518110611c2157611c20613ebd565b5b60200260200101516060019064ffffffffff16908164ffffffffff16815250508080611c4c90613f1b565b915050611bde565b508195505050505050919050565b600460009054906101000a900473ffffffffffffffffffffffffffffffffffffffff1673ffffffffffffffffffffffffffffffffffffffff163373ffffffffffffffffffffffffffffffffffffffff1614611cbc57600080fd5b6000611cc742610c08565b9050600660009054906101000a900464ffffffffff1664ffffffffff168164ffffffffff1611611d2c576040517f08c379a0000000000000000000000000000000000000000000000000000000008152600401611d239061438f565b60405180910390fd5b6000600660009054906101000a900464ffffffffff1690505b8164ffffffffff168164ffffffffff1611611fba576000600360008364ffffffffff1664ffffffffff168152602001908152602001600020805480602002602001604051908101604052809291908181526020016000905b82821015611eee57838290600052602060002090600402016040518060e0016040529081600082015481526020016001820160009054906101000a900473ffffffffffffffffffffffffffffffffffffffff1673ffffffffffffffffffffffffffffffffffffffff1673ffffffffffffffffffffffffffffffffffffffff1681526020016002820160009054906101000a900473ffffffffffffffffffffffffffffffffffffffff1673ffffffffffffffffffffffffffffffffffffffff1673ffffffffffffffffffffffffffffffffffffffff1681526020016002820160149054906101000a900464ffffffffff1664ffffffffff1664ffffffffff1681526020016002820160199054906101000a900460ff1615151515815260200160028201601a9054906101000a900460ff1615151515815260200160038201548152505081526020019060010190611d9d565b5050505090507fd0467e87c925b3aaa75daa9ae7ddbc4e3fb9e730bc9d328e6732e9eb541dd8c9604051611f21906143fb565b60405180910390a1600081511115611fa65760005b60018251611f44919061441b565b8111611fa457818181518110611f5d57611f5c613ebd565b5b602002602001015160a00151611f9157611f90828281518110611f8357611f82613ebd565b5b6020026020010151612d23565b5b8080611f9c90613f1b565b915050611f36565b505b508080611fb29061444f565b915050611d45565b5080600660006101000a81548164ffffffffff021916908364ffffffffff16021790555050565b6001815111612025576040517f08c379a000000000000000000000000000000000000000000000000000000000815260040161201c906144ee565b60405180910390fd5b60008060005b83518110156121ec574284828151811061204857612047613ebd565b5b60200260200101516020015164ffffffffff161161209b576040517f08c379a000000000000000000000000000000000000000000000000000000000815260040161209290613faf565b60405180910390fd5b6000610e108583815181106120b3576120b2613ebd565b5b6020026020010151602001516120c99190613ffe565b64ffffffffff1614612110576040517f08c379a00000000000000000000000000000000000000000000000000000000081526004016121079061407b565b60405180910390fd5b6000810361213e5783818151811061212b5761212a613ebd565b5b60200260200101516020015191506121ad565b83818151811061215157612150613ebd565b5b60200260200101516020015164ffffffffff168264ffffffffff16146121ac576040517f08c379a00000000000000000000000000000000000000000000000000000000081526004016121a390614580565b60405180910390fd5b5b8381815181106121c0576121bf613ebd565b5b602002602001015160400151836121d7919061427f565b925080806121e490613f1b565b91505061202b565b50600554346121fb919061409b565b82111561223d576040517f08c379a00000000000000000000000000000000000000000000000000000000081526004016122349061414f565b60405180910390fd5b600061224882610c08565b90506000600360008364ffffffffff1664ffffffffff168152602001908152602001600020905060005b85518161ffff16101561243a5760006122d133888461ffff168151811061229c5761229b613ebd565b5b602002602001015160000151868a8661ffff16815181106122c0576122bf613ebd565b5b602002602001015160400151612c40565b905080836001816001815401808255809150500390600052602060002090600402016000820151816000015560208201518160010160006101000a81548173ffffffffffffffffffffffffffffffffffffffff021916908373ffffffffffffffffffffffffffffffffffffffff16021790555060408201518160020160006101000a81548173ffffffffffffffffffffffffffffffffffffffff021916908373ffffffffffffffffffffffffffffffffffffffff16021790555060608201518160020160146101000a81548164ffffffffff021916908364ffffffffff16021790555060808201518160020160196101000a81548160ff02191690831515021790555060a082015181600201601a6101000a81548160ff02191690831515021790555060c0820151816003015590505080600001516002600181600181540180825580915050039060005260206000200181905550508080612432906145ae565b915050612272565b5080600360008464ffffffffff1664ffffffffff16815260200190815260200160002090805461246b929190613268565b5060008060003373ffffffffffffffffffffffffffffffffffffffff1673ffffffffffffffffffffffffffffffffffffffff16815260200190815260200160002090508060010154346124be919061427f565b81600101819055506000808260020180548060200260200160405190810160405280929190818152602001828054801561254557602002820191906000526020600020906000905b82829054906101000a900464ffffffffff1664ffffffffff16815260200190600501906020826004010492830192600103820291508084116125065790505b5050505050905060005b815181101561259f578564ffffffffff1682828151811061257357612572613ebd565b5b602002602001015164ffffffffff160361258c57600192505b808061259790613f1b565b91505061254f565b5060001515821515036125f75784836002016001816001815401808255809150500390600052602060002090600691828204019190066005026101000a81548164ffffffffff021916908364ffffffffff1602179055505b600015156000803373ffffffffffffffffffffffffffffffffffffffff1673ffffffffffffffffffffffffffffffffffffffff16815260200190815260200160002060000160149054906101000a900460ff1615150361273057338360000160006101000a81548173ffffffffffffffffffffffffffffffffffffffff021916908373ffffffffffffffffffffffffffffffffffffffff1602179055508260000160009054906101000a900473ffffffffffffffffffffffffffffffffffffffff1660018081600181540180825580915050039060005260206000200160006101000a81548173ffffffffffffffffffffffffffffffffffffffff021916908373ffffffffffffffffffffffffffffffffffffffff16021790555060018360000160146101000a81548160ff0219169083151502179055505b826000803373ffffffffffffffffffffffffffffffffffffffff1673ffffffffffffffffffffffffffffffffffffffff1681526020019081526020016000206000820160009054906101000a900473ffffffffffffffffffffffffffffffffffffffff168160000160006101000a81548173ffffffffffffffffffffffffffffffffffffffff021916908373ffffffffffffffffffffffffffffffffffffffff1602179055506000820160149054906101000a900460ff168160000160146101000a81548160ff021916908315150217905550600182015481600101556002820181600201908054612823929190613436565b509050505050505050505050565b61283a81610c08565b90506000600360008364ffffffffff1664ffffffffff168152602001908152602001600020805480602002602001604051908101604052809291908181526020016000905b828210156129d057838290600052602060002090600402016040518060e0016040529081600082015481526020016001820160009054906101000a900473ffffffffffffffffffffffffffffffffffffffff1673ffffffffffffffffffffffffffffffffffffffff1673ffffffffffffffffffffffffffffffffffffffff1681526020016002820160009054906101000a900473ffffffffffffffffffffffffffffffffffffffff1673ffffffffffffffffffffffffffffffffffffffff1673ffffffffffffffffffffffffffffffffffffffff1681526020016002820160149054906101000a900464ffffffffff1664ffffffffff1664ffffffffff1681526020016002820160199054906101000a900460ff1615151515815260200160028201601a9054906101000a900460ff161515151581526020016003820154815250508152602001906001019061287f565b5050505090506000600360008464ffffffffff1664ffffffffff1681526020019081526020016000209050612a036131f1565b60005b8351811015612baa5785848281518110612a2357612a22613ebd565b5b60200260200101516000015103612b9757838181518110612a4757612a46613ebd565b5b6020026020010151915060018260a001901515908115158152505081838281548110612a7657612a75613ebd565b5b90600052602060002090600402016000820151816000015560208201518160010160006101000a81548173ffffffffffffffffffffffffffffffffffffffff021916908373ffffffffffffffffffffffffffffffffffffffff16021790555060408201518160020160006101000a81548173ffffffffffffffffffffffffffffffffffffffff021916908373ffffffffffffffffffffffffffffffffffffffff16021790555060608201518160020160146101000a81548164ffffffffff021916908364ffffffffff16021790555060808201518160020160196101000a81548160ff02191690831515021790555060a082015181600201601a6101000a81548160ff02191690831515021790555060c08201518160030155905050612baa565b8080612ba290613f1b565b915050612a06565b508060c00151612bb86131e9565b11612bc257600080fd5b806020015173ffffffffffffffffffffffffffffffffffffffff166108fc8260c001519081150290604051600060405180830381858888f19350505050612c0857600080fd5b81600360008664ffffffffff1664ffffffffff168152602001908152602001600020908054612c38929190613268565b505050505050565b612c486131f1565b6000858442604051602001612c5f93929190614677565b6040516020818303038152906040528051906020012090506040518060e001604052808281526020018773ffffffffffffffffffffffffffffffffffffffff1681526020018673ffffffffffffffffffffffffffffffffffffffff1681526020018564ffffffffff16815260200160001515815260200160001515815260200184815250915050949350505050565b6000610e1082612cfe91906146b4565b600460159054906101000a900464ffffffffff16612d1c91906146f1565b9050919050565b600460149054906101000a900460ff166131e6578060c00151612d446131e9565b11612d4e57600080fd5b600060036000836060015164ffffffffff1664ffffffffff168152602001908152602001600020805480602002602001604051908101604052809291908181526020016000905b82821015612ee657838290600052602060002090600402016040518060e0016040529081600082015481526020016001820160009054906101000a900473ffffffffffffffffffffffffffffffffffffffff1673ffffffffffffffffffffffffffffffffffffffff1673ffffffffffffffffffffffffffffffffffffffff1681526020016002820160009054906101000a900473ffffffffffffffffffffffffffffffffffffffff1673ffffffffffffffffffffffffffffffffffffffff1673ffffffffffffffffffffffffffffffffffffffff1681526020016002820160149054906101000a900464ffffffffff1664ffffffffff1664ffffffffff1681526020016002820160199054906101000a900460ff1615151515815260200160028201601a9054906101000a900460ff1615151515815260200160038201548152505081526020019060010190612d95565b505050509050600060036000846060015164ffffffffff1664ffffffffff168152602001908152602001600020905060005b82518110156130c0578360000151838281518110612f3957612f38613ebd565b5b602002602001015160000151036130ad57828181518110612f5d57612f5c613ebd565b5b60200260200101519350600184608001901515908115158152505083828281548110612f8c57612f8b613ebd565b5b90600052602060002090600402016000820151816000015560208201518160010160006101000a81548173ffffffffffffffffffffffffffffffffffffffff021916908373ffffffffffffffffffffffffffffffffffffffff16021790555060408201518160020160006101000a81548173ffffffffffffffffffffffffffffffffffffffff021916908373ffffffffffffffffffffffffffffffffffffffff16021790555060608201518160020160146101000a81548164ffffffffff021916908364ffffffffff16021790555060808201518160020160196101000a81548160ff02191690831515021790555060a082015181600201601a6101000a81548160ff02191690831515021790555060c082015181600301559050506130c0565b80806130b890613f1b565b915050612f18565b508060036000856060015164ffffffffff1664ffffffffff1681526020019081526020016000209080546130f5929190613268565b506000836040015173ffffffffffffffffffffffffffffffffffffffff168460c001516040516131249061475b565b60006040518083038185875af1925050503d8060008114613161576040519150601f19603f3d011682016040523d82523d6000602084013e613166565b606091505b50509050806131aa576040517f08c379a00000000000000000000000000000000000000000000000000000000081526004016131a1906147bc565b60405180910390fd5b7fa2ea5b0db1d57b0e32df654aa9a1a97bc8066881e37669ff488d2bebe87c9f8760016040516131da91906147eb565b60405180910390a15050505b50565b600047905090565b6040518060e0016040528060008019168152602001600073ffffffffffffffffffffffffffffffffffffffff168152602001600073ffffffffffffffffffffffffffffffffffffffff168152602001600064ffffffffff168152602001600015158152602001600015158152602001600081525090565b8280548282559060005260206000209060040281019282156134255760005260206000209160040282015b82811115613424578282600082015481600001556001820160009054906101000a900473ffffffffffffffffffffffffffffffffffffffff168160010160006101000a81548173ffffffffffffffffffffffffffffffffffffffff021916908373ffffffffffffffffffffffffffffffffffffffff1602179055506002820160009054906101000a900473ffffffffffffffffffffffffffffffffffffffff168160020160006101000a81548173ffffffffffffffffffffffffffffffffffffffff021916908373ffffffffffffffffffffffffffffffffffffffff1602179055506002820160149054906101000a900464ffffffffff168160020160146101000a81548164ffffffffff021916908364ffffffffff1602179055506002820160199054906101000a900460ff168160020160196101000a81548160ff02191690831515021790555060028201601a9054906101000a900460ff1681600201601a6101000a81548160ff02191690831515021790555060038201548160030155505091600401919060040190613293565b5b50905061343291906134d6565b5090565b82805482825590600052602060002090600501600690048101928215613485576000526020600020916005016006900482015b82811115613484578254825591600101919060010190613469565b5b509050613492919061358b565b5090565b6040518060800160405280600073ffffffffffffffffffffffffffffffffffffffff16815260200160001515815260200160008152602001606081525090565b5b80821115613587576000808201600090556001820160006101000a81549073ffffffffffffffffffffffffffffffffffffffff02191690556002820160006101000a81549073ffffffffffffffffffffffffffffffffffffffff02191690556002820160146101000a81549064ffffffffff02191690556002820160196101000a81549060ff021916905560028201601a6101000a81549060ff02191690556003820160009055506004016134d7565b5090565b5b808211156135a457600081600090555060010161358c565b5090565b600073ffffffffffffffffffffffffffffffffffffffff82169050919050565b60006135d3826135a8565b9050919050565b6135e3816135c8565b82525050565b6000819050919050565b6135fc816135e9565b82525050565b600060408201905061361760008301856135da565b61362460208301846135f3565b9392505050565b600082825260208201905092915050565b7f556e6b6e6f776e2066756e6374696f6e00000000000000000000000000000000600082015250565b600061367260108361362b565b915061367d8261363c565b602082019050919050565b600060208201905081810360008301526136a181613665565b9050919050565b600081519050919050565b600082825260208201905092915050565b6000819050602082019050919050565b6000819050919050565b6136e7816136d4565b82525050565b6136f6816135c8565b82525050565b6000613707826135a8565b9050919050565b613717816136fc565b82525050565b600064ffffffffff82169050919050565b6137378161371d565b82525050565b60008115159050919050565b6137528161373d565b82525050565b613761816135e9565b82525050565b60e08201600082015161377d60008501826136de565b50602082015161379060208501826136ed565b5060408201516137a3604085018261370e565b5060608201516137b6606085018261372e565b5060808201516137c96080850182613749565b5060a08201516137dc60a0850182613749565b5060c08201516137ef60c0850182613758565b50505050565b60006138018383613767565b60e08301905092915050565b6000602082019050919050565b6000613825826136a8565b61382f81856136b3565b935061383a836136c4565b8060005b8381101561386b57815161385288826137f5565b975061385d8361380d565b92505060018101905061383e565b5085935050505092915050565b60006020820190508181036000830152613892818461381a565b905092915050565b6000604051905090565b600080fd5b600080fd5b6138b7816136fc565b81146138c257600080fd5b50565b6000813590506138d4816138ae565b92915050565b6138e38161371d565b81146138ee57600080fd5b50565b600081359050613900816138da565b92915050565b61390f816135e9565b811461391a57600080fd5b50565b60008135905061392c81613906565b92915050565b60008060006060848603121561394b5761394a6138a4565b5b6000613959868287016138c5565b935050602061396a868287016138f1565b925050604061397b8682870161391d565b9150509250925092565b600060208201905061399a60008301846135f3565b92915050565b6000602082840312156139b6576139b56138a4565b5b60006139c4848285016138f1565b91505092915050565b6139d68161371d565b82525050565b60006020820190506139f160008301846139cd565b92915050565b613a00816135c8565b8114613a0b57600080fd5b50565b600081359050613a1d816139f7565b92915050565b600060208284031215613a3957613a386138a4565b5b6000613a4784828501613a0e565b91505092915050565b600081519050919050565b600082825260208201905092915050565b6000819050602082019050919050565b600081519050919050565b600082825260208201905092915050565b6000819050602082019050919050565b6000613ab4838361372e565b60208301905092915050565b6000602082019050919050565b6000613ad882613a7c565b613ae28185613a87565b9350613aed83613a98565b8060005b83811015613b1e578151613b058882613aa8565b9750613b1083613ac0565b925050600181019050613af1565b5085935050505092915050565b6000608083016000830151613b4360008601826136ed565b506020830151613b566020860182613749565b506040830151613b696040860182613758565b5060608301518482036060860152613b818282613acd565b9150508091505092915050565b6000613b9a8383613b2b565b905092915050565b6000602082019050919050565b6000613bba82613a50565b613bc48185613a5b565b935083602082028501613bd685613a6c565b8060005b85811015613c125784840389528151613bf38582613b8e565b9450613bfe83613ba2565b925060208a01995050600181019050613bda565b50829750879550505050505092915050565b60006020820190508181036000830152613c3e8184613baf565b905092915050565b600080fd5b6000601f19601f8301169050919050565b7f4e487b7100000000000000000000000000000000000000000000000000000000600052604160045260246000fd5b613c9482613c4b565b810181811067ffffffffffffffff82111715613cb357613cb2613c5c565b5b80604052505050565b6000613cc661389a565b9050613cd28282613c8b565b919050565b600067ffffffffffffffff821115613cf257613cf1613c5c565b5b602082029050602081019050919050565b600080fd5b600080fd5b600060608284031215613d2357613d22613d08565b5b613d2d6060613cbc565b90506000613d3d848285016138c5565b6000830152506020613d51848285016138f1565b6020830152506040613d658482850161391d565b60408301525092915050565b6000613d84613d7f84613cd7565b613cbc565b90508083825260208201905060608402830185811115613da757613da6613d03565b5b835b81811015613dd05780613dbc8882613d0d565b845260208401935050606081019050613da9565b5050509392505050565b600082601f830112613def57613dee613c46565b5b8135613dff848260208601613d71565b91505092915050565b600060208284031215613e1e57613e1d6138a4565b5b600082013567ffffffffffffffff811115613e3c57613e3b6138a9565b5b613e4884828501613dda565b91505092915050565b613e5a816136d4565b8114613e6557600080fd5b50565b600081359050613e7781613e51565b92915050565b60008060408385031215613e9457613e936138a4565b5b6000613ea285828601613e68565b9250506020613eb3858286016138f1565b9150509250929050565b7f4e487b7100000000000000000000000000000000000000000000000000000000600052603260045260246000fd5b7f4e487b7100000000000000000000000000000000000000000000000000000000600052601160045260246000fd5b6000613f26826135e9565b91507fffffffffffffffffffffffffffffffffffffffffffffffffffffffffffffffff8203613f5857613f57613eec565b5b600182019050919050565b7f54696d652064617461206d75737420626520696e207468652066757475726500600082015250565b6000613f99601f8361362b565b9150613fa482613f63565b602082019050919050565b60006020820190508181036000830152613fc881613f8c565b9050919050565b7f4e487b7100000000000000000000000000000000000000000000000000000000600052601260045260246000fd5b60006140098261371d565b91506140148361371d565b92508261402457614023613fcf565b5b828206905092915050565b7f54696d65206d757374206265206f6e2074686520686f75720000000000000000600082015250565b600061406560188361362b565b91506140708261402f565b602082019050919050565b6000602082019050818103600083015261409481614058565b9050919050565b60006140a6826135e9565b91506140b1836135e9565b92508282026140bf816135e9565b915082820484148315176140d6576140d5613eec565b5b5092915050565b7f4e6f7420656e6f756768204554482073656e742077697468207472616e73616360008201527f74696f6e00000000000000000000000000000000000000000000000000000000602082015250565b600061413960248361362b565b9150614144826140dd565b604082019050919050565b600060208201905081810360008301526141688161412c565b9050919050565b6000819050919050565b600061419461418f61418a846135a8565b61416f565b6135a8565b9050919050565b60006141a682614179565b9050919050565b60006141b88261419b565b9050919050565b6141c8816141ad565b82525050565b60006080820190506141e360008301876135da565b6141f060208301866141bf565b6141fd60408301856139cd565b61420a60608301846135f3565b95945050505050565b7f5075736865640000000000000000000000000000000000000000000000000000600082015250565b600061424960068361362b565b915061425482614213565b602082019050919050565b600060208201905081810360008301526142788161423c565b9050919050565b600061428a826135e9565b9150614295836135e9565b92508282019050808211156142ad576142ac613eec565b5b92915050565b60006142be8261371d565b91506142c98361371d565b9250828203905064ffffffffff8111156142e6576142e5613eec565b5b92915050565b60006142f78261371d565b91506143028361371d565b92508261431257614311613fcf565b5b828204905092915050565b7f54696d6520616c726561647920636865636b656420666f72207468697320746960008201527f6d6520736c6f7400000000000000000000000000000000000000000000000000602082015250565b600061437960278361362b565b91506143848261431d565b604082019050919050565b600060208201905081810360008301526143a88161436c565b9050919050565b7f646f6e6500000000000000000000000000000000000000000000000000000000600082015250565b60006143e560048361362b565b91506143f0826143af565b602082019050919050565b60006020820190508181036000830152614414816143d8565b9050919050565b6000614426826135e9565b9150614431836135e9565b925082820390508181111561444957614448613eec565b5b92915050565b600061445a8261371d565b915064ffffffffff820361447157614470613eec565b5b600182019050919050565b7f4261746368206d7573742068617665206d6f7265207468616e206f6e6520747260008201527f616e73616374696f6e0000000000000000000000000000000000000000000000602082015250565b60006144d860298361362b565b91506144e38261447c565b604082019050919050565b60006020820190508181036000830152614507816144cb565b9050919050565b7f416c6c206261746368207472616e73616374696f6e73206d757374206265207360008201527f63686564756c656420666f72207468652073616d652074696d65000000000000602082015250565b600061456a603a8361362b565b91506145758261450e565b604082019050919050565b600060208201905081810360008301526145998161455d565b9050919050565b600061ffff82169050919050565b60006145b9826145a0565b915061ffff82036145cd576145cc613eec565b5b600182019050919050565b60008160601b9050919050565b60006145f0826145d8565b9050919050565b6000614602826145e5565b9050919050565b61461a614615826135c8565b6145f7565b82525050565b60008160d81b9050919050565b600061463882614620565b9050919050565b61465061464b8261371d565b61462d565b82525050565b6000819050919050565b61467161466c826135e9565b614656565b82525050565b60006146838286614609565b601482019150614693828561463f565b6005820191506146a38284614660565b602082019150819050949350505050565b60006146bf8261371d565b91506146ca8361371d565b92508282026146d88161371d565b91508082146146ea576146e9613eec565b5b5092915050565b60006146fc8261371d565b91506147078361371d565b9250828201905064ffffffffff81111561472457614723613eec565b5b92915050565b600081905092915050565b50565b600061474560008361472a565b915061475082614735565b600082019050919050565b600061476682614738565b9150819050919050565b7f5472616e73666572206661696c65642e00000000000000000000000000000000600082015250565b60006147a660108361362b565b91506147b182614770565b602082019050919050565b600060208201905081810360008301526147d581614799565b9050919050565b6147e58161373d565b82525050565b600060208201905061480060008301846147dc565b9291505056fea2646970667358221220e589771e9cfefbc95000d18f70c31cc15ee2074fe87fd90f3d324c7fd879f56564736f6c63430008110033",
  "linkReferences": {},
  "deployedLinkReferences": {}
}