{
  "_format": "hh-sol-artifact-1",
  "contractName": "Clocktower",
  "sourceName": "contracts/Clocktower.sol",
  "abi": [
    {
      "inputs": [],
      "stateMutability": "payable",
      "type": "constructor"
    },
    {
      "stateMutability": "payable",
      "type": "fallback"
    },
    {
      "inputs": [
        {
          "components": [
            {
              "internalType": "address payable",
              "name": "receiver",
              "type": "address"
            },
            {
              "internalType": "uint40",
              "name": "unixTime",
              "type": "uint40"
            },
            {
              "internalType": "uint256",
              "name": "payload",
              "type": "uint256"
            },
            {
              "internalType": "address",
              "name": "token",
              "type": "address"
            }
          ],
          "internalType": "struct Clocktower.Batch[]",
          "name": "batch",
          "type": "tuple[]"
        }
      ],
      "name": "addBatchTransactions",
      "outputs": [],
      "stateMutability": "payable",
      "type": "function"
    },
    {
      "inputs": [
        {
          "internalType": "address",
          "name": "erc20Contract",
          "type": "address"
        }
      ],
      "name": "addERC20Contract",
      "outputs": [],
      "stateMutability": "nonpayable",
      "type": "function"
    },
    {
      "inputs": [
        {
          "internalType": "address payable",
          "name": "receiver",
          "type": "address"
        },
        {
          "internalType": "uint40",
          "name": "unixTime",
          "type": "uint40"
        },
        {
          "internalType": "uint256",
          "name": "payload",
          "type": "uint256"
        },
        {
          "internalType": "address",
          "name": "token",
          "type": "address"
        }
      ],
      "name": "addTransaction",
      "outputs": [],
      "stateMutability": "payable",
      "type": "function"
    },
    {
      "inputs": [
        {
          "components": [
            {
              "internalType": "bytes32",
              "name": "id",
              "type": "bytes32"
            },
            {
              "internalType": "uint256",
              "name": "amount",
              "type": "uint256"
            },
            {
              "internalType": "address",
              "name": "owner",
              "type": "address"
            },
            {
              "internalType": "bool",
              "name": "exists",
              "type": "bool"
            },
            {
              "internalType": "bool",
              "name": "cancelled",
              "type": "bool"
            },
            {
              "internalType": "address",
              "name": "token",
              "type": "address"
            },
            {
              "internalType": "enum Clocktower.SubType",
              "name": "subType",
              "type": "uint8"
            },
            {
              "internalType": "uint16",
              "name": "dueDay",
              "type": "uint16"
            },
            {
              "internalType": "string",
              "name": "description",
              "type": "string"
            }
          ],
          "internalType": "struct Clocktower.Subscription",
          "name": "subscription",
          "type": "tuple"
        }
      ],
      "name": "cancelSubscription",
      "outputs": [],
      "stateMutability": "nonpayable",
      "type": "function"
    },
    {
      "inputs": [
        {
          "internalType": "bytes32",
          "name": "id",
          "type": "bytes32"
        },
        {
          "internalType": "uint40",
          "name": "unixTrigger",
          "type": "uint40"
        },
        {
          "internalType": "address",
          "name": "token",
          "type": "address"
        }
      ],
      "name": "cancelTransaction",
      "outputs": [],
      "stateMutability": "payable",
      "type": "function"
    },
    {
      "inputs": [
        {
          "internalType": "address",
          "name": "newAddress",
          "type": "address"
        }
      ],
      "name": "changeAdmin",
      "outputs": [],
      "stateMutability": "nonpayable",
      "type": "function"
    },
    {
      "inputs": [
        {
          "internalType": "uint256",
          "name": "_fee",
          "type": "uint256"
        }
      ],
      "name": "changeFee",
      "outputs": [],
      "stateMutability": "nonpayable",
      "type": "function"
    },
    {
      "inputs": [
        {
          "internalType": "uint256",
          "name": "_fixed_fee",
          "type": "uint256"
        }
      ],
      "name": "changeFixedFee",
      "outputs": [],
      "stateMutability": "nonpayable",
      "type": "function"
    },
    {
      "inputs": [],
      "name": "chargeSubs",
      "outputs": [],
      "stateMutability": "nonpayable",
      "type": "function"
    },
    {
      "inputs": [],
      "name": "checkTime",
      "outputs": [
        {
          "internalType": "bool",
          "name": "",
          "type": "bool"
        }
      ],
      "stateMutability": "view",
      "type": "function"
    },
    {
      "inputs": [
        {
          "internalType": "uint256",
          "name": "amount",
          "type": "uint256"
        },
        {
          "internalType": "address",
          "name": "token",
          "type": "address"
        },
        {
          "internalType": "string",
          "name": "description",
          "type": "string"
        },
        {
          "internalType": "enum Clocktower.SubType",
          "name": "subtype",
          "type": "uint8"
        },
        {
          "internalType": "uint16",
          "name": "dueDay",
          "type": "uint16"
        }
      ],
      "name": "createSubscription",
      "outputs": [],
      "stateMutability": "payable",
      "type": "function"
    },
    {
      "inputs": [],
      "name": "getAccountSubscriptions",
      "outputs": [
        {
          "components": [
            {
              "internalType": "bytes32",
              "name": "id",
              "type": "bytes32"
            },
            {
              "internalType": "uint256",
              "name": "amount",
              "type": "uint256"
            },
            {
              "internalType": "address",
              "name": "owner",
              "type": "address"
            },
            {
              "internalType": "bool",
              "name": "exists",
              "type": "bool"
            },
            {
              "internalType": "bool",
              "name": "cancelled",
              "type": "bool"
            },
            {
              "internalType": "address",
              "name": "token",
              "type": "address"
            },
            {
              "internalType": "enum Clocktower.SubType",
              "name": "subType",
              "type": "uint8"
            },
            {
              "internalType": "uint16",
              "name": "dueDay",
              "type": "uint16"
            },
            {
              "internalType": "string",
              "name": "description",
              "type": "string"
            }
          ],
          "internalType": "struct Clocktower.Subscription[]",
          "name": "",
          "type": "tuple[]"
        }
      ],
      "stateMutability": "view",
      "type": "function"
    },
    {
      "inputs": [],
      "name": "getAccountTransactions",
      "outputs": [
        {
          "components": [
            {
              "internalType": "bytes32",
              "name": "id",
              "type": "bytes32"
            },
            {
              "internalType": "address",
              "name": "sender",
              "type": "address"
            },
            {
              "internalType": "address payable",
              "name": "receiver",
              "type": "address"
            },
            {
              "internalType": "address",
              "name": "token",
              "type": "address"
            },
            {
              "internalType": "uint40",
              "name": "timeTrigger",
              "type": "uint40"
            },
            {
              "internalType": "enum Clocktower.Status",
              "name": "status",
              "type": "uint8"
            },
            {
              "internalType": "uint256",
              "name": "payload",
              "type": "uint256"
            }
          ],
          "internalType": "struct Clocktower.Transaction[]",
          "name": "",
          "type": "tuple[]"
        }
      ],
      "stateMutability": "view",
      "type": "function"
    },
    {
      "inputs": [],
      "name": "getFee",
      "outputs": [
        {
          "internalType": "uint256",
          "name": "",
          "type": "uint256"
        }
      ],
      "stateMutability": "view",
      "type": "function"
    },
    {
      "inputs": [
        {
          "internalType": "address",
          "name": "token",
          "type": "address"
        }
      ],
      "name": "getTotalClaims",
      "outputs": [
        {
          "internalType": "uint256",
          "name": "",
          "type": "uint256"
        }
      ],
      "stateMutability": "view",
      "type": "function"
    },
    {
      "inputs": [
        {
          "internalType": "address",
          "name": "erc20Contract",
          "type": "address"
        }
      ],
      "name": "removeERC20Contract",
      "outputs": [],
      "stateMutability": "nonpayable",
      "type": "function"
    },
    {
      "inputs": [],
      "name": "sendTime",
      "outputs": [],
      "stateMutability": "nonpayable",
      "type": "function"
    },
    {
      "inputs": [
        {
          "components": [
            {
              "internalType": "bytes32",
              "name": "id",
              "type": "bytes32"
            },
            {
              "internalType": "uint256",
              "name": "amount",
              "type": "uint256"
            },
            {
              "internalType": "address",
              "name": "owner",
              "type": "address"
            },
            {
              "internalType": "bool",
              "name": "exists",
              "type": "bool"
            },
            {
              "internalType": "bool",
              "name": "cancelled",
              "type": "bool"
            },
            {
              "internalType": "address",
              "name": "token",
              "type": "address"
            },
            {
              "internalType": "enum Clocktower.SubType",
              "name": "subType",
              "type": "uint8"
            },
            {
              "internalType": "uint16",
              "name": "dueDay",
              "type": "uint16"
            },
            {
              "internalType": "string",
              "name": "description",
              "type": "string"
            }
          ],
          "internalType": "struct Clocktower.Subscription",
          "name": "subscription",
          "type": "tuple"
        }
      ],
      "name": "subscribe",
      "outputs": [],
      "stateMutability": "payable",
      "type": "function"
    },
    {
      "inputs": [],
      "name": "toggleContractActive",
      "outputs": [],
      "stateMutability": "nonpayable",
      "type": "function"
    },
    {
      "inputs": [
        {
          "internalType": "uint256",
          "name": "unix",
          "type": "uint256"
        }
      ],
      "name": "unixToDays",
      "outputs": [
        {
          "internalType": "uint16",
          "name": "yearDays",
          "type": "uint16"
        },
        {
          "internalType": "uint16",
          "name": "day",
          "type": "uint16"
        }
      ],
      "stateMutability": "pure",
      "type": "function"
    },
    {
      "inputs": [
        {
          "internalType": "bytes32",
          "name": "id",
          "type": "bytes32"
        }
      ],
      "name": "unsubscribe",
      "outputs": [],
      "stateMutability": "payable",
      "type": "function"
    },
    {
      "stateMutability": "payable",
      "type": "receive"
    }
  ],
  "bytecode": "0x6080604052600080546001600160a01b03191673f39fd6e51aad88f6f4ce6ab8827279cfffb9226617905560646001908155662386f26fc10000600255600e805460ff19169055620000514262000085565b6200005d91906200009b565b600e60016101000a81548164ffffffffff021916908364ffffffffff16021790555062000103565b600062000095610e1083620000d0565b92915050565b600064ffffffffff83811690831681811015620000c857634e487b7160e01b600052601160045260246000fd5b039392505050565b600064ffffffffff80841680620000f757634e487b7160e01b600052601260045260246000fd5b92169190910492915050565b615ea280620001136000396000f3fe6080604052600436106101225760003560e01c80638f283970116100a5578063ced72f871161006c578063ced72f8714610316578063d10fa1441461032b578063dc7000891461033e578063de005f7c14610353578063e0c6190d14610373578063f8c601461461039857005b80638f2839701461026457806393bc841314610284578063aa58a5b0146102bf578063ab7e0909146102d4578063c682cce4146102f457005b80633084f79e116100e95780633084f79e146101dc5780636a1db1bf146101ef5780637ce1ef391461020f57806380423444146102315780638e83ac4a1461024457005b8063053149fa1461012b5780631385d24c1461014b57806313b51234146101605780632a2b3690146101b65780632c04c453146101c957005b3661012957005b005b34801561013757600080fd5b506101296101463660046154e4565b6103ab565b34801561015757600080fd5b50610129610593565b34801561016c57600080fd5b506101a361017b3660046154e4565b336000908152600b602090815260408083206001600160a01b03949094168352929052205490565b6040519081526020015b60405180910390f35b6101296101c4366004615516565b6105af565b6101296101d7366004615556565b61081d565b6101296101ea3660046155b3565b6109e2565b3480156101fb57600080fd5b5061012961020a366004615662565b610e75565b34801561021b57600080fd5b50610224610e82565b6040516101ad91906156fd565b61012961023f3660046157dd565b610ff4565b34801561025057600080fd5b5061012961025f366004615662565b6112eb565b34801561027057600080fd5b5061012961027f3660046154e4565b6112f8565b34801561029057600080fd5b506102a461029f366004615662565b61134b565b6040805161ffff9384168152929091166020830152016101ad565b3480156102cb57600080fd5b50610129611510565b3480156102e057600080fd5b506101296102ef3660046154e4565b6116e3565b34801561030057600080fd5b5061030961178a565b6040516101ad919061582e565b34801561032257600080fd5b506001546101a3565b610129610339366004615947565b611c6e565b34801561034a57600080fd5b506101296127ee565b34801561035f57600080fd5b5061012961036e366004615556565b6131ac565b34801561037f57600080fd5b506103886137d2565b60405190151581526020016101ad565b6101296103a6366004615662565b613895565b6103b36138c9565b6001600160a01b0381166103c657600080fd5b6103cf81613909565b6104045760405162461bcd60e51b81526020600482015260016024820152601960f91b60448201526064015b60405180910390fd5b6000600d80548060200260200160405190810160405280929190818152602001828054801561045c57602002820191906000526020600020905b81546001600160a01b0316815260019091019060200180831161043e575b505050505090506000805b82518110156104bd57836001600160a01b031683828151811061048c5761048c615a42565b60200260200101516001600160a01b031614156104ab578091506104bd565b806104b581615a6e565b915050610467565b50805b600d546104cf90600190615a89565b81101561055a57600d6104e3826001615aa0565b815481106104f3576104f3615a42565b600091825260209091200154600d80546001600160a01b03909216918390811061051f5761051f615a42565b600091825260209091200180546001600160a01b0319166001600160a01b03929092169190911790558061055281615a6e565b9150506104c0565b50600d80548061056c5761056c615ab8565b600082815260209020810160001990810180546001600160a01b0319169055019055505050565b61059b6138c9565b600e805460ff19811660ff90911615179055565b6105b76139ca565b60006105c2836139fb565b64ffffffffff8116600090815260056020908152604080832080548251818502810185019093528083529495509293909291849084015b828210156106b85760008481526020908190206040805160e081018252600586029092018054835260018101546001600160a01b039081169484019490945260028101548416918301919091526003808201549384166060840152600160a01b840464ffffffffff1660808401529192909160a0840191600160c81b900460ff169081111561068a5761068a61567b565b600381111561069b5761069b61567b565b8152602001600482015481525050815260200190600101906105f9565b5050505090506106c661531e565b60005b825181101561072a57868382815181106106e5576106e5615a42565b60200260200101516000015114156107185782818151811061070957610709615a42565b6020026020010151915061072a565b8061072281615a6e565b9150506106c9565b5061073d81600001518260800151613a0f565b6001600160a01b0384161561078f5760c0810151336000908152600b602090815260408083206001600160a01b038916845290915281208054909190610784908490615a89565b909155506108159050565b60c0810151336000908152600b602090815260408083206001600160a01b0389168452909152812080549091906107c7908490615a89565b909155505060c081015147116107dc57600080fd5b80602001516001600160a01b03166108fc8260c001519081150290604051600060405180830381858888f1935050505061081557600080fd5b505050505050565b6108256139ca565b3460025411156108475760405162461bcd60e51b81526004016103fb90615ace565b602081013561085c60c0830160a084016154e4565b604051636eb1769f60e11b81523360048201523060248201526001600160a01b03919091169063dd62ed3e90604401602060405180830381600087803b1580156108a557600080fd5b505af11580156108b9573d6000803e3d6000fd5b505050506040513d601f19601f820116820180604052508101906108dd9190615ae9565b10156108fb5760405162461bcd60e51b81526004016103fb90615b02565b6109268135610911610100840160e08501615b1e565b61092160e0850160c08601615b39565b613da7565b6109565760405162461bcd60e51b81526020600482015260016024820152603760f81b60448201526064016103fb565b8035600081815260096020908152604080832080546001810182559084529282902090920180546001600160a01b031916331790558151606081019092529181526109df9181016109ae610100850160e08601615b1e565b61ffff1681526020016109c760e0850160c08601615b39565b60018111156109d8576109d861567b565b9052613e0b565b50565b6109ea6139ca565b6001600160a01b038516610a245760405162461bcd60e51b81526020600482015260016024820152600760fb1b60448201526064016103fb565b346002541115610a465760405162461bcd60e51b81526004016103fb90615ace565b610a4f85613909565b610a6b5760405162461bcd60e51b81526004016103fb90615b54565b60008611610aa05760405162461bcd60e51b8152602060048201526002602482015261031360f41b60448201526064016103fb565b6000610ae7878787878080601f016020809104026020016040519081016040528093929190818152602001838380828437600092019190915250899250889150613f169050565b90506000836001811115610afd57610afd61567b565b1415610c8c578161ffff166000108015610b1c5750601c8261ffff1611155b610b7a5760405162461bcd60e51b815260206004820152602960248201527f4d6f6e74686c79206475652064617465206d757374206265206265747765656e6044820152680406240c2dcc84064760bb1b60648201526084016103fb565b61ffff821660009081526007602090815260408083208054600181810183559185529383902085516005909502019384559184015183830155830151600283018054606086015160808701511515600160a81b0260ff60a81b19911515600160a01b9081026001600160a81b03199485166001600160a01b039788161717929092161790925560a0860151600386018054919094166001600160a01b031982168117855560c08801518897969095949290931617918490811115610c4057610c4061567b565b021790555060e082015160038201805461ffff909216600160a81b0261ffff60a81b199092169190911790556101008201518051610c8891600484019160209091019061535b565b5050505b6001836001811115610ca057610ca061567b565b1415610e30578161ffff166000108015610cc0575061016d8261ffff1611155b610d1e5760405162461bcd60e51b815260206004820152602960248201527f596561726c79206475652064617465206d757374206265206265747765656e206044820152683120616e642033363560b81b60648201526084016103fb565b61ffff821660009081526008602090815260408083208054600181810183559185529383902085516005909502019384559184015183830155830151600283018054606086015160808701511515600160a81b0260ff60a81b19911515600160a01b9081026001600160a81b03199485166001600160a01b039788161717929092161790925560a0860151600386018054919094166001600160a01b031982168117855560c08801518897969095949290931617918490811115610de457610de461567b565b021790555060e082015160038201805461ffff909216600160a81b0261ffff60a81b199092169190911790556101008201518051610e2c91600484019160209091019061535b565b5050505b610e6c6040518060600160405280836000015181526020018360e0015161ffff1681526020018360c0015160018111156109d8576109d861567b565b50505050505050565b610e7d6138c9565b600155565b336000908152600360209081526040808320600201805482518185028101850190935280835260609493849084015b82821015610f3157600084815260209081902060408051606081018252600286029092018054835260018082015461ffff81169585019590955292939092918401916201000090910460ff1690811115610f0d57610f0d61567b565b6001811115610f1e57610f1e61567b565b8152505081526020019060010190610eb1565b5050505090506000815167ffffffffffffffff811115610f5357610f536158d7565b604051908082528060200260200182016040528015610f8c57816020015b610f796153df565b815260200190600190039081610f715790505b50905060005b8251811015610fed57610fbd838281518110610fb057610fb0615a42565b6020026020010151613fca565b828281518110610fcf57610fcf615a42565b60200260200101819052508080610fe590615a6e565b915050610f92565b5092915050565b600e5460ff166112e5576110066139ca565b61100f83614422565b6001600160a01b03811661105b573460646001548461102e9190615b6f565b6110389190615ba4565b11156110565760405162461bcd60e51b81526004016103fb90615ace565b61116e565b34600254111561107d5760405162461bcd60e51b81526004016103fb90615ace565b61108681613909565b6110a25760405162461bcd60e51b81526004016103fb90615b54565b336000908152600b602090815260408083206001600160a01b03851684529091529020546110d1908390615aa0565b604051636eb1769f60e11b81523360048201523060248201526001600160a01b0383169063dd62ed3e90604401602060405180830381600087803b15801561111857600080fd5b505af115801561112c573d6000803e3d6000fd5b505050506040513d601f19601f820116820180604052508101906111509190615ae9565b101561116e5760405162461bcd60e51b81526004016103fb90615b02565b6000611179846139fb565b9050600061118a33878585886144a0565b64ffffffffff8084166000908152600560208181526040808420805460018181018355918652948390208751959094029093019384559085015191830180546001600160a01b039384166001600160a01b03199182161790915590850151600284018054918416919092161790556060840151600380840180546080880151909616600160a01b026001600160c81b031990961692909316919091179390931780825560a08501519495508594929360ff60c81b1990911690600160c81b90849081111561125a5761125a61567b565b021790555060c091909101516004909101558051600680546001810182556000919091527ff652222313e28459528d920b65115c16c04f3efc82aaedc97be59f3f377c0d3f01556112aa8261456e565b336000908152600b602090815260408083206001600160a01b0387168452909152812080548692906112dd908490615aa0565b909155505050505b50505050565b6112f36138c9565b600255565b6113006138c9565b336001600160a01b03821614801561132057506001600160a01b03811615155b61132957600080fd5b600080546001600160a01b0319166001600160a01b0392909216919091179055565b6000808061135c6201518085615ba4565b905080600061136e8262010bd9615bb8565b61137b9062253d8c615bb8565b9050600062023ab161138e836004615bf9565b6113989190615c7e565b905060046113a98262023ab1615bf9565b6113b4906003615bb8565b6113be9190615c7e565b6113c89083615cac565b9150600062164b096113db846001615bb8565b6113e790610fa0615bf9565b6113f19190615c7e565b90506004611401826105b5615bf9565b61140b9190615c7e565b6114159084615cac565b61142090601f615bb8565b9250600061098f611432856050615bf9565b61143c9190615c7e565b90506000605061144e8361098f615bf9565b6114589190615c7e565b6114629086615cac565b905061146f600b83615c7e565b945061147c85600c615bf9565b611487836002615bb8565b6114919190615cac565b915084836114a0603187615cac565b6114ab906064615bf9565b6114b59190615bb8565b6114bf9190615bb8565b909750915086828282600060015b8381116114fc576114de8585614724565b6114e89083615aa0565b9150806114f481615a6e565b9150506114cd565b50809c505050505050505050505050915091565b6115186138c9565b6000611523426139fb565b600e5490915064ffffffffff61010090910481169082161161156c5760405162461bcd60e51b81526020600482015260026024820152610c4d60f21b60448201526064016103fb565b600e54610100900464ffffffffff165b8164ffffffffff168164ffffffffff16116116be5764ffffffffff8116600090815260056020526040902054156116ac5764ffffffffff8116600090815260056020908152604080832080548251818502810185019093528083526116ac9492939192909184015b828210156116a35760008481526020908190206040805160e081018252600586029092018054835260018101546001600160a01b039081169484019490945260028101548416918301919091526003808201549384166060840152600160a01b840464ffffffffff1660808401529192909160a0840191600160c81b900460ff16908111156116755761167561567b565b60038111156116865761168661567b565b8152602001600482015481525050815260200190600101906115e4565b505050506147aa565b806116b681615ceb565b91505061157c565b50600e805464ffffffffff9092166101000265ffffffffff0019909216919091179055565b6116eb6138c9565b6001600160a01b0381166116fe57600080fd5b61170781613909565b156117385760405162461bcd60e51b81526020600482015260016024820152603160f81b60448201526064016103fb565b600d80546001810182556000919091527fd7b6990105719101dabeb77144f2a3385c8033acd3af97e9423a695e81ad1eb50180546001600160a01b0319166001600160a01b0392909216919091179055565b33600090815260036020908152604080832060010180548251818502810185019093528083526060949383018282801561181157602002820191906000526020600020906000905b82829054906101000a900464ffffffffff1664ffffffffff16815260200190600501906020826004010492830192600103820291508084116117d25790505b505050505090506000805b82518110156119695760006005600085848151811061183d5761183d615a42565b602002602001015164ffffffffff1664ffffffffff168152602001908152602001600020805480602002602001604051908101604052809291908181526020016000905b828210156119405760008481526020908190206040805160e081018252600586029092018054835260018101546001600160a01b039081169484019490945260028101548416918301919091526003808201549384166060840152600160a01b840464ffffffffff1660808401529192909160a0840191600160c81b900460ff16908111156119125761191261567b565b60038111156119235761192361567b565b815260200160048201548152505081526020019060010190611881565b5050505090508051836119539190615aa0565b925050808061196190615a6e565b91505061181c565b5060008167ffffffffffffffff811115611985576119856158d7565b6040519080825280602002602001820160405280156119be57816020015b6119ab61531e565b8152602001906001900390816119a35790505b50905060008267ffffffffffffffff8111156119dc576119dc6158d7565b604051908082528060200260200182016040528015611a1557816020015b611a0261531e565b8152602001906001900390816119fa5790505b5090506000805b8551811015611bf25760056000878381518110611a3b57611a3b615a42565b602002602001015164ffffffffff1664ffffffffff168152602001908152602001600020805480602002602001604051908101604052809291908181526020016000905b82821015611b3e5760008481526020908190206040805160e081018252600586029092018054835260018101546001600160a01b039081169484019490945260028101548416918301919091526003808201549384166060840152600160a01b840464ffffffffff1660808401529192909160a0840191600160c81b900460ff1690811115611b1057611b1061567b565b6003811115611b2157611b2161567b565b815260200160048201548152505081526020019060010190611a7f565b50505050935060005b8451811015611bdf57336001600160a01b0316858281518110611b6c57611b6c615a42565b6020026020010151602001516001600160a01b03161415611bcd57848181518110611b9957611b99615a42565b6020026020010151848481518110611bb357611bb3615a42565b60200260200101819052508280611bc990615a6e565b9350505b80611bd781615a6e565b915050611b47565b5080611bea81615a6e565b915050611a1c565b5060005b8251811015611c6357611c25838281518110611c1457611c14615a42565b602002602001015160800151614f01565b838281518110611c3757611c37615a42565b602090810291909101015164ffffffffff90911660809091015280611c5b81615a6e565b915050611bf6565b509095945050505050565b600e5460ff166109df57611c806139ca565b60018151118015611c92575060648151105b611ce95760405162461bcd60e51b815260206004820152602260248201527f4261746368206d757374203e206f6e65207472616e73616374696f6e203c2031604482015261030360f41b60648201526084016103fb565b611d146040518060800160405280600081526020016000815260200160008152602001606081525090565b348251600254611d249190615b6f565b1115611d425760405162461bcd60e51b81526004016103fb90615ace565b600d5460009067ffffffffffffffff811115611d6057611d606158d7565b604051908082528060200260200182016040528015611d89578160200160208202803683370190505b503360009081526003602052604081206001015491925090611dac906064615aa0565b67ffffffffffffffff811115611dc457611dc46158d7565b604051908082528060200260200182016040528015611ded578160200160208202803683370190505b50905060005b845181101561225a57611e22858281518110611e1157611e11615a42565b602002602001015160200151614422565b6000611e4a868381518110611e3957611e39615a42565b6020026020010151602001516139fb565b9050611e568184614f0f565b611ea4578083866040015181518110611e7157611e71615a42565b602002602001019064ffffffffff16908164ffffffffff1681525050600185604001818151611ea09190615aa0565b9052505b60006001600160a01b0316868381518110611ec157611ec1615a42565b6020026020010151606001516001600160a01b03161415611f1357858281518110611eee57611eee615a42565b60200260200101516040015185600001818151611f0b9190615aa0565b905250612138565b611f39868381518110611f2857611f28615a42565b602002602001015160600151613909565b611f555760405162461bcd60e51b81526004016103fb90615b54565b858281518110611f6757611f67615a42565b602002602001015160400151600b6000336001600160a01b03166001600160a01b031681526020019081526020016000206000888581518110611fac57611fac615a42565b6020026020010151606001516001600160a01b03166001600160a01b0316815260200190815260200160002054611fe39190615aa0565b868381518110611ff557611ff5615a42565b602090810291909101015160600151604051636eb1769f60e11b81523360048201523060248201526001600160a01b039091169063dd62ed3e90604401602060405180830381600087803b15801561204c57600080fd5b505af1158015612060573d6000803e3d6000fd5b505050506040513d601f19601f820116820180604052508101906120849190615ae9565b10156120a25760405162461bcd60e51b81526004016103fb90615b02565b6120c98683815181106120b7576120b7615a42565b60200260200101516060015185614f71565b612138578582815181106120df576120df615a42565b6020026020010151606001518486602001518151811061210157612101615a42565b60200260200101906001600160a01b031690816001600160a01b0316815250506001856020018181516121349190615aa0565b9052505b85828151811061214a5761214a615a42565b602002602001015160400151600c600088858151811061216c5761216c615a42565b6020026020010151606001516001600160a01b03166001600160a01b0316815260200190815260200160002060008282546121a79190615aa0565b925050819055508582815181106121c0576121c0615a42565b602002602001015160400151600b6000336001600160a01b03166001600160a01b03168152602001908152602001600020600088858151811061220557612205615a42565b6020026020010151606001516001600160a01b03166001600160a01b0316815260200190815260200160002060008282546122409190615aa0565b90915550829150612252905081615a6e565b915050611df3565b346064600154866000015161226f9190615b6f565b6122799190615ba4565b11156122975760405162461bcd60e51b81526004016103fb90615ace565b5060005b81518110156124ff578181815181106122b6576122b6615a42565b602002602001015164ffffffffff16600014156122d2576124ff565b60005b85518161ffff1610156124ec5760006122fd878361ffff1681518110611e3957611e39615a42565b905083838151811061231157612311615a42565b602002602001015164ffffffffff168164ffffffffff1614156124d95760006123a033898561ffff168151811061234a5761234a615a42565b6020026020010151600001518a8661ffff168151811061236c5761236c615a42565b602002602001015160600151858c8861ffff168151811061238f5761238f615a42565b6020026020010151604001516144a0565b905080600560008787815181106123b9576123b9615a42565b60209081029190910181015164ffffffffff908116835282820193909352604091820160009081208054600181810183559183529183902086516005909302019182559185015191810180546001600160a01b039384166001600160a01b0319918216179091559285015160028201805491841691909416179092556060840151600380840180546080880151909616600160a01b026001600160c81b031990961692909316919091179390931780825560a0850151929360ff60c81b1990911690600160c81b9084908111156124925761249261567b565b021790555060c0919091015160049091015551600680546001810182556000919091527ff652222313e28459528d920b65115c16c04f3efc82aaedc97be59f3f377c0d3f01555b50806124e481615d10565b9150506122d5565b50806124f781615a6e565b91505061229b565b5060005b825181101561275d5760006001600160a01b031683828151811061252957612529615a42565b60200260200101516001600160a01b03161461270657600c600084838151811061255557612555615a42565b60200260200101516001600160a01b03166001600160a01b031681526020019081526020016000205483828151811061259057612590615a42565b6020908102919091010151604051636eb1769f60e11b81523360048201523060248201526001600160a01b039091169063dd62ed3e90604401602060405180830381600087803b1580156125e357600080fd5b505af11580156125f7573d6000803e3d6000fd5b505050506040513d601f19601f8201168201806040525081019061261b9190615ae9565b101580156126fd5750600c600084838151811061263a5761263a615a42565b60200260200101516001600160a01b03166001600160a01b031681526020019081526020016000205483828151811061267557612675615a42565b60209081029190910101516040516370a0823160e01b81523360048201526001600160a01b03909116906370a0823190602401602060405180830381600087803b1580156126c257600080fd5b505af11580156126d6573d6000803e3d6000fd5b505050506040513d601f19601f820116820180604052508101906126fa9190615ae9565b10155b61270657600080fd5b6000600c600085848151811061271e5761271e615a42565b60200260200101516001600160a01b03166001600160a01b0316815260200190815260200160002081905550808061275590615a6e565b915050612503565b33600090815260036020526040902054600160a01b900460ff166127e75733600081815260036020526040812080546001600160a01b03199081168417825560048054600181019091557f8a35acfbc15ff81a39ae7d344fd709f28e8600b4aa8c65c6b64bfe7fe36bd19b01805490911684179055919052805460ff60a01b1916600160a01b1790555b5050505050565b6127f66138c9565b6000806128024261134b565b9150915060005b61ffff8216600090815260076020526040902054811015612cd65761ffff8216600090815260076020526040902080548290811061284957612849615a42565b906000526020600020906005020160020160159054906101000a900460ff16612cc45761ffff8216600090815260076020526040812080548390811061289157612891615a42565b6000918252602080832060059092029091015461ffff86168352600790915260408220805491935090849081106128ca576128ca615a42565b600091825260208083206003600590930201919091015461ffff8716835260079091526040822080546001600160a01b039092169350908590811061291157612911615a42565b906000526020600020906005020160010154905060005b600084815260096020526040902054811015612cbf57600084815260096020526040812080548390811061295e5761295e615a42565b600091825260208083209091015461ffff8a1683526007909152604090912080546001600160a01b03909216925084918890811061299e5761299e615a42565b6000918252602090912060059091020160030154604051636eb1769f60e11b81526001600160a01b0384811660048301523060248301529091169063dd62ed3e90604401602060405180830381600087803b1580156129fc57600080fd5b505af1158015612a10573d6000803e3d6000fd5b505050506040513d601f19601f82011682018060405250810190612a349190615ae9565b10158015612af8575082846001600160a01b03166370a08231600960008981526020019081526020016000208581548110612a7157612a71615a42565b60009182526020909120015460405160e083901b6001600160e01b03191681526001600160a01b039091166004820152602401602060405180830381600087803b158015612abe57600080fd5b505af1158015612ad2573d6000803e3d6000fd5b505050506040513d601f19601f82011682018060405250810190612af69190615ae9565b105b15612b6d576040805160608101825286815264ffffffffff428116602080840191825260008486018181526001600160a01b0388168252600a909252949094209251835551600192909201805493511515600160281b0265ffffffffffff199094169290911691909117919091179055612cac565b6040805160608101825286815264ffffffffff428116602080840191825260018486018181526001600160a01b038089166000908152600a855288812097518855945196909201805491511515600160281b0265ffffffffffff1990921696909516959095179490941790925561ffff8b1681526007909152919091208054918616916323b872dd9184918a908110612c0857612c08615a42565b600091825260209091206005909102016002015460405160e084901b6001600160e01b03191681526001600160a01b0392831660048201529116602482015260448101869052606401602060405180830381600087803b158015612c6b57600080fd5b505af1158015612c7f573d6000803e3d6000fd5b505050506040513d601f19601f82011682018060405250810190612ca39190615d28565b612cac57600080fd5b5080612cb781615a6e565b915050612928565b505050505b80612cce81615a6e565b915050612809565b5060005b61ffff83166000908152600860205260409020548110156131a75761ffff82166000908152600860205260409020805482908110612d1a57612d1a615a42565b906000526020600020906005020160020160159054906101000a900460ff166131955761ffff82166000908152600860205260408120805483908110612d6257612d62615a42565b6000918252602080832060059092029091015461ffff8616835260089091526040822080549193509084908110612d9b57612d9b615a42565b600091825260208083206003600590930201919091015461ffff8716835260089091526040822080546001600160a01b0390921693509085908110612de257612de2615a42565b906000526020600020906005020160010154905060005b600084815260096020526040902054811015613190576000848152600960205260408120805483908110612e2f57612e2f615a42565b600091825260208083209091015461ffff8a1683526008909152604090912080546001600160a01b039092169250849188908110612e6f57612e6f615a42565b6000918252602090912060059091020160030154604051636eb1769f60e11b81526001600160a01b0384811660048301523060248301529091169063dd62ed3e90604401602060405180830381600087803b158015612ecd57600080fd5b505af1158015612ee1573d6000803e3d6000fd5b505050506040513d601f19601f82011682018060405250810190612f059190615ae9565b10158015612fc9575082846001600160a01b03166370a08231600960008981526020019081526020016000208581548110612f4257612f42615a42565b60009182526020909120015460405160e083901b6001600160e01b03191681526001600160a01b039091166004820152602401602060405180830381600087803b158015612f8f57600080fd5b505af1158015612fa3573d6000803e3d6000fd5b505050506040513d601f19601f82011682018060405250810190612fc79190615ae9565b105b1561303e576040805160608101825286815264ffffffffff428116602080840191825260008486018181526001600160a01b0388168252600a909252949094209251835551600192909201805493511515600160281b0265ffffffffffff19909416929091169190911791909117905561317d565b6040805160608101825286815264ffffffffff428116602080840191825260018486018181526001600160a01b038089166000908152600a855288812097518855945196909201805491511515600160281b0265ffffffffffff1990921696909516959095179490941790925561ffff8b1681526008909152919091208054918616916323b872dd9184918a9081106130d9576130d9615a42565b600091825260209091206005909102016002015460405160e084901b6001600160e01b03191681526001600160a01b0392831660048201529116602482015260448101869052606401602060405180830381600087803b15801561313c57600080fd5b505af1158015613150573d6000803e3d6000fd5b505050506040513d601f19601f820116820180604052508101906131749190615d28565b61317d57600080fd5b508061318881615a6e565b915050612df9565b505050505b8061319f81615a6e565b915050612cda565b505050565b6131b46139ca565b6131ca8135610911610100840160e08501615b1e565b6131fa5760405162461bcd60e51b81526020600482015260016024820152603760f81b60448201526064016103fb565b803560009081526009602090815260408083208054825181850281018501909352808352919290919083018282801561325c57602002820191906000526020600020905b81546001600160a01b0316815260019091019060200180831161323e575b5050505050905060005b81518110156132a857613296836000013583838151811061328957613289615a42565b6020026020010151614fcd565b806132a081615a6e565b915050613266565b5060006132bb60e0840160c08501615b39565b60018111156132cc576132cc61567b565b141561353d5760006007816132e8610100860160e08701615b1e565b61ffff1661ffff168152602001908152602001600020805480602002602001604051908101604052809291908181526020016000905b82821015613486576000848152602090819020604080516101208101825260058602909201805483526001808201549484019490945260028101546001600160a01b0380821693850193909352600160a01b80820460ff90811615156060870152600160a81b909204821615156080860152600383015493841660a08601529394919360c08601930416908111156133b8576133b861567b565b60018111156133c9576133c961567b565b81526003820154600160a81b900461ffff1660208201526004820180546040909201916133f590615d4a565b80601f016020809104026020016040519081016040528092919081815260200182805461342190615d4a565b801561346e5780601f106134435761010080835404028352916020019161346e565b820191906000526020600020905b81548152906001019060200180831161345157829003601f168201915b5050505050815250508152602001906001019061331e565b50505050905060005b825181101561353a5783600001358282815181106134af576134af615a42565b6020026020010151600001511415613528576001600760006134d8610100880160e08901615b1e565b61ffff1661ffff16815260200190815260200160002082815481106134ff576134ff615a42565b906000526020600020906005020160020160156101000a81548160ff0219169083151502179055505b8061353281615a6e565b91505061348f565b50505b600161354f60e0840160c08501615b39565b60018111156135605761356061567b565b14156137ce57600060088161357c610100860160e08701615b1e565b61ffff1661ffff168152602001908152602001600020805480602002602001604051908101604052809291908181526020016000905b8282101561371a576000848152602090819020604080516101208101825260058602909201805483526001808201549484019490945260028101546001600160a01b0380821693850193909352600160a01b80820460ff90811615156060870152600160a81b909204821615156080860152600383015493841660a08601529394919360c086019304169081111561364c5761364c61567b565b600181111561365d5761365d61567b565b81526003820154600160a81b900461ffff16602082015260048201805460409092019161368990615d4a565b80601f01602080910402602001604051908101604052809291908181526020018280546136b590615d4a565b80156137025780601f106136d757610100808354040283529160200191613702565b820191906000526020600020905b8154815290600101906020018083116136e557829003601f168201915b505050505081525050815260200190600101906135b2565b50505050905060005b82518110156112e557836000013582828151811061374357613743615a42565b60200260200101516000015114156137bc5760016008600061376c610100880160e08901615b1e565b61ffff1661ffff168152602001908152602001600020828154811061379357613793615a42565b906000526020600020906005020160020160156101000a81548160ff0219169083151502179055505b806137c681615a6e565b915050613723565b5050565b60006137dc6138c9565b60006137e7426139fb565b600e5490915064ffffffffff6101009091048116908216116138305760405162461bcd60e51b81526020600482015260026024820152610c4d60f21b60448201526064016103fb565b600e54610100900464ffffffffff165b8164ffffffffff168164ffffffffff161161388c5764ffffffffff81166000908152600560205260409020541561387a5760019250505090565b8061388481615ceb565b915050613840565b50600091505090565b61389d6139ca565b3460025411156138bf5760405162461bcd60e51b81526004016103fb90615ace565b6109df8133614fcd565b6000546001600160a01b031633146139075760405162461bcd60e51b81526020600482015260016024820152600360fc1b60448201526064016103fb565b565b600080600d80548060200260200160405190810160405280929190818152602001828054801561396257602002820191906000526020600020905b81546001600160a01b03168152600190910190602001808311613944575b505050505090506000915060005b81518110156139c35781818151811061398b5761398b615a42565b60200260200101516001600160a01b0316846001600160a01b031614156139b157600192505b806139bb81615a6e565b915050613970565b5050919050565b336139075760405162461bcd60e51b81526020600482015260016024820152603360f81b60448201526064016103fb565b6000613a09610e1083615d85565b92915050565b64ffffffffff811660009081526005602052604090205460011415613a565764ffffffffff81166000908152600560205260408120613a4d9161542b565b6137ce81615113565b64ffffffffff811660009081526005602052604081209080805b8354811015613b6157336001600160a01b0316848281548110613a9557613a95615a42565b60009182526020909120600160059092020101546001600160a01b03161415613ac65781613ac281615a6e565b9250505b85848281548110613ad957613ad9615a42565b9060005260206000209060050201600001541415613b4f57809250838181548110613b0657613b06615a42565b6000918252602082206005909102018181556001810180546001600160a01b031990811690915560028201805490911690556003810180546001600160d01b0319169055600401555b80613b5981615a6e565b915050613a70565b5082548390613b7290600190615a89565b81548110613b8257613b82615a42565b9060005260206000209060050201838381548110613ba257613ba2615a42565b60009182526020909120825460059092020190815560018083015490820180546001600160a01b03199081166001600160a01b039384161790915560028085015490840180548316918416919091179055600380850180548286018054948516919095169081178555815464ffffffffff600160a01b9182900416026001600160c81b03199094161792909217808455915460ff600160c81b9182900416939260ff60c81b1916918490811115613c5b57613c5b61567b565b02179055506004918201549101558254839080613c7a57613c7a615ab8565b600082815260208120600560001990930192830201818155600181810180546001600160a01b031990811690915560028301805490911690556003820180546001600160d01b03191690556004909101919091559155811415613ce057613ce084615113565b6000805b600654811015613d2d578660068281548110613d0257613d02615a42565b90600052602060002001541415613d1b57809150613d2d565b80613d2581615a6e565b915050613ce4565b5060068054613d3e90600190615a89565b81548110613d4e57613d4e615a42565b906000526020600020015460068281548110613d6c57613d6c615a42565b6000918252602090912001556006805480613d8957613d89615ab8565b60019003818190600052602060002001600090559055505050505050565b60008060405180606001604052808681526020018561ffff168152602001846001811115613dd757613dd761567b565b905290506000613de682613fca565b9050806060015115613dfd57600192505050613e04565b6000925050505b9392505050565b33600090815260036020526040902054600160a01b900460ff16613e955733600081815260036020526040812080546001600160a01b03199081168417825560048054600181019091557f8a35acfbc15ff81a39ae7d344fd709f28e8600b4aa8c65c6b64bfe7fe36bd19b01805490911684179055919052805460ff60a01b1916600160a01b1790555b33600090815260036020908152604080832060029081018054600181810183559186529484902086519590920290910193845591840151838301805461ffff90921661ffff19831681178255928601518695949093919262ffffff19169091179062010000908490811115613f0c57613f0c61567b565b0217905550505050565b613f1e6153df565b60003386848742604051602001613f39959493929190615da9565b604051602081830303815290604052805190602001209050604051806101200160405280828152602001888152602001336001600160a01b03168152602001600115158152602001600015158152602001876001600160a01b03168152602001856001811115613fab57613fab61567b565b81526020018461ffff1681526020018681525091505095945050505050565b613fd26153df565b600082604001516001811115613fea57613fea61567b565b14156141f95760208083015161ffff1660009081526007825260408082208054825181860281018601909352808352929391929091849084015b8282101561418c576000848152602090819020604080516101208101825260058602909201805483526001808201549484019490945260028101546001600160a01b0380821693850193909352600160a01b80820460ff90811615156060870152600160a81b909204821615156080860152600383015493841660a08601529394919360c08601930416908111156140be576140be61567b565b60018111156140cf576140cf61567b565b81526003820154600160a81b900461ffff1660208201526004820180546040909201916140fb90615d4a565b80601f016020809104026020016040519081016040528092919081815260200182805461412790615d4a565b80156141745780601f1061414957610100808354040283529160200191614174565b820191906000526020600020905b81548152906001019060200180831161415757829003601f168201915b50505050508152505081526020019060010190614024565b50505050905060005b81518110156141f65783600001518282815181106141b5576141b5615a42565b60200260200101516000015114156141e4578181815181106141d9576141d9615a42565b602002602001015192505b806141ee81615a6e565b915050614195565b50505b6001826040015160018111156142115761421161567b565b141561441d5760208083015161ffff1660009081526008825260408082208054825181860281018601909352808352929391929091849084015b828210156143b3576000848152602090819020604080516101208101825260058602909201805483526001808201549484019490945260028101546001600160a01b0380821693850193909352600160a01b80820460ff90811615156060870152600160a81b909204821615156080860152600383015493841660a08601529394919360c08601930416908111156142e5576142e561567b565b60018111156142f6576142f661567b565b81526003820154600160a81b900461ffff16602082015260048201805460409092019161432290615d4a565b80601f016020809104026020016040519081016040528092919081815260200182805461434e90615d4a565b801561439b5780601f106143705761010080835404028352916020019161439b565b820191906000526020600020905b81548152906001019060200180831161437e57829003601f168201915b5050505050815250508152602001906001019061424b565b50505050905060005b81518110156139c35783600001518282815181106143dc576143dc615a42565b602002602001015160000151141561440b5781818151811061440057614400615a42565b602002602001015192505b8061441581615a6e565b9150506143bc565b919050565b428164ffffffffff161161445c5760405162461bcd60e51b81526020600482015260016024820152600d60fa1b60448201526064016103fb565b614468610e1082615e07565b64ffffffffff16156109df5760405162461bcd60e51b81526020600482015260016024820152601b60f91b60448201526064016103fb565b6144a861531e565b6040516bffffffffffffffffffffffff19606088901b1660208201526001600160d81b031960d885901b1660348201524260398201526000906059016040516020818303038152906040528051906020012090506040518060e00160405280828152602001886001600160a01b03168152602001876001600160a01b03168152602001866001600160a01b031681526020018564ffffffffff1681526020016000600381111561455a5761455a61567b565b815260200184905291505095945050505050565b33600090815260036020526040902054600160a01b900460ff1661463657336000818152600360209081526040822080546001600160a01b0319908116851782556004805460018181019092557f8a35acfbc15ff81a39ae7d344fd709f28e8600b4aa8c65c6b64bfe7fe36bd19b01805490921690951790558054600160a01b60ff60a01b199091161781558301805493840181558252902060068083049091018054919092066005026101000a64ffffffffff818102199092169390911602919091179055565b336000908152600360209081526040808320600101805482518185028101850190935280835291929091908301828280156146be57602002820191906000526020600020906000905b82829054906101000a900464ffffffffff1664ffffffffff168152602001906005019060208260040104928301926001038202915080841161467f5790505b505050505090506146cf8282614f0f565b6137ce575033600090815260036020908152604082206001908101805491820181558352912060068083049091018054919092066005026101000a64ffffffffff818102199092169390911602919091179055565b600081600114806147355750816003145b806147405750816005145b8061474b5750816007145b806147565750816008145b80614761575081600a145b8061476c575081600c145b156147795750601f613a09565b816002146147895750601e613a09565b614792836152e2565b61479d57601c6147a0565b601d5b60ff169392505050565b600e5460ff166109df576000806000835167ffffffffffffffff8111156147d3576147d36158d7565b60405190808252806020026020018201604052801561480c57816020015b6147f961531e565b8152602001906001900390816147f15790505b50905060005b8451811015614c115760006001600160a01b031685828151811061483857614838615a42565b6020026020010151606001516001600160a01b031614156148c85784818151811061486557614865615a42565b602002602001015160c001518461487c9190615aa0565b935084818151811061489057614890615a42565b60200260200101518284815181106148aa576148aa615a42565b602002602001018190525082806148c090615a6e565b935050614bff565b8481815181106148da576148da615a42565b602002602001015160c001518582815181106148f8576148f8615a42565b6020026020010151606001516001600160a01b031663dd62ed3e87848151811061492457614924615a42565b60209081029190910181015101516040516001600160e01b031960e084901b1681526001600160a01b039091166004820152306024820152604401602060405180830381600087803b15801561497957600080fd5b505af115801561498d573d6000803e3d6000fd5b505050506040513d601f19601f820116820180604052508101906149b19190615ae9565b1080614a9f57508481815181106149ca576149ca615a42565b602002602001015160c001518582815181106149e8576149e8615a42565b6020026020010151606001516001600160a01b03166370a08231878481518110614a1457614a14615a42565b6020026020010151602001516040518263ffffffff1660e01b8152600401614a4b91906001600160a01b0391909116815260200190565b602060405180830381600087803b158015614a6557600080fd5b505af1158015614a79573d6000803e3d6000fd5b505050506040513d601f19601f82011682018060405250810190614a9d9190615ae9565b105b15614b3157600260056000878481518110614abc57614abc615a42565b60200260200101516080015164ffffffffff1664ffffffffff1681526020019081526020016000208281548110614af557614af5615a42565b906000526020600020906005020160030160196101000a81548160ff02191690836003811115614b2757614b2761567b565b0217905550614bff565b848181518110614b4357614b43615a42565b6020026020010151828481518110614b5d57614b5d615a42565b60200260200101819052508280614b7390615a6e565b935050600160056000878481518110614b8e57614b8e615a42565b60200260200101516080015164ffffffffff1664ffffffffff1681526020019081526020016000208281548110614bc757614bc7615a42565b906000526020600020906005020160030160196101000a81548160ff02191690836003811115614bf957614bf961567b565b02179055505b80614c0981615a6e565b915050614812565b50824711614c465760405162461bcd60e51b8152602060048201526002602482015261313160f01b60448201526064016103fb565b60005b81518110156127e757818181518110614c6457614c64615a42565b602002602001015160c00151600b6000848481518110614c8657614c86615a42565b6020026020010151602001516001600160a01b03166001600160a01b031681526020019081526020016000206000848481518110614cc657614cc6615a42565b6020026020010151606001516001600160a01b03166001600160a01b031681526020019081526020016000206000828254614d019190615a89565b90915550508151600090839083908110614d1d57614d1d615a42565b6020026020010151606001516001600160a01b03161415614dd6576000828281518110614d4c57614d4c615a42565b6020026020010151604001516001600160a01b03166108fc848481518110614d7657614d76615a42565b602002602001015160c001519081150290604051600060405180830381858888f19350505050905080614dd05760405162461bcd60e51b8152602060048201526002602482015261189960f11b60448201526064016103fb565b50614eef565b818181518110614de857614de8615a42565b6020026020010151606001516001600160a01b03166323b872dd838381518110614e1457614e14615a42565b602002602001015160200151848481518110614e3257614e32615a42565b602002602001015160400151858581518110614e5057614e50615a42565b602090810291909101015160c001516040516001600160e01b031960e086901b1681526001600160a01b0393841660048201529290911660248301526044820152606401602060405180830381600087803b158015614eae57600080fd5b505af1158015614ec2573d6000803e3d6000fd5b505050506040513d601f19601f82011682018060405250810190614ee69190615d28565b614eef57600080fd5b80614ef981615a6e565b915050614c49565b6000613a0982610e10615e2b565b6000805b8251811015614f67578364ffffffffff16838281518110614f3657614f36615a42565b602002602001015164ffffffffff161415614f55576001915050613a09565b80614f5f81615a6e565b915050614f13565b5060009392505050565b6000805b8251811015614f6757836001600160a01b0316838281518110614f9a57614f9a615a42565b60200260200101516001600160a01b03161415614fbb576001915050613a09565b80614fc581615a6e565b915050614f75565b600082815260096020526040812090805b82548110156127e757836001600160a01b031683828154811061500357615003615a42565b6000918252602090912001546001600160a01b031614156150515780915082818154811061503357615033615a42565b600091825260209091200180546001600160a01b03191690556127e7565b8254839061506190600190615a89565b8154811061507157615071615a42565b9060005260206000200160009054906101000a90046001600160a01b03168383815481106150a1576150a1615a42565b9060005260206000200160006101000a8154816001600160a01b0302191690836001600160a01b03160217905550828054806150df576150df615ab8565b600082815260209020810160001990810180546001600160a01b03191690550190558061510b81615a6e565b915050614fde565b336000908152600360205260409020600190810154141561514c573360009081526003602052604081206109df9160019091019061544c565b33600090815260036020526040812060010190805b825481101561520d578364ffffffffff1683828154811061518457615184615a42565b90600052602060002090600691828204019190066005029054906101000a900464ffffffffff1664ffffffffff1614156151fb578091508281815481106151cd576151cd615a42565b90600052602060002090600691828204019190066005026101000a81549064ffffffffff021916905561520d565b8061520581615a6e565b915050615161565b508154829061521e90600190615a89565b8154811061522e5761522e615a42565b90600052602060002090600691828204019190066005029054906101000a900464ffffffffff1682828154811061526757615267615a42565b90600052602060002090600691828204019190066005026101000a81548164ffffffffff021916908364ffffffffff160217905550818054806152ac576152ac615ab8565b60019003818190600052602060002090600691828204019190066005026101000a81549064ffffffffff02191690559055505050565b60006152ef600483615e58565b1580156153055750615302606483615e58565b15155b80613a09575061531761019083615e58565b1592915050565b6040805160e08101825260008082526020820181905291810182905260608101829052608081018290529060a08201908152602001600081525090565b82805461536790615d4a565b90600052602060002090601f01602090048101928261538957600085556153cf565b82601f106153a257805160ff19168380011785556153cf565b828001600101855582156153cf579182015b828111156153cf5782518255916020019190600101906153b4565b506153db92915061546d565b5090565b6040805161012081018252600080825260208201819052918101829052606081018290526080810182905260a081018290529060c0820190815260006020820152606060409091015290565b50805460008255600502906000526020600020908101906109df9190615482565b5080546000825560050160069004906000526020600020908101906109df91905b5b808211156153db576000815560010161546e565b5b808211156153db5760008082556001820180546001600160a01b031990811690915560028301805490911690556003820180546001600160d01b03191690556004820155600501615483565b6001600160a01b03811681146109df57600080fd5b6000602082840312156154f657600080fd5b8135613e04816154cf565b803564ffffffffff8116811461441d57600080fd5b60008060006060848603121561552b57600080fd5b8335925061553b60208501615501565b9150604084013561554b816154cf565b809150509250925092565b60006020828403121561556857600080fd5b813567ffffffffffffffff81111561557f57600080fd5b82016101208185031215613e0457600080fd5b80356002811061441d57600080fd5b803561ffff8116811461441d57600080fd5b60008060008060008060a087890312156155cc57600080fd5b8635955060208701356155de816154cf565b9450604087013567ffffffffffffffff808211156155fb57600080fd5b818901915089601f83011261560f57600080fd5b81358181111561561e57600080fd5b8a602082850101111561563057600080fd5b60208301965080955050505061564860608801615592565b9150615656608088016155a1565b90509295509295509295565b60006020828403121561567457600080fd5b5035919050565b634e487b7160e01b600052602160045260246000fd5b600281106156a1576156a161567b565b9052565b60005b838110156156c05781810151838201526020016156a8565b838111156112e55750506000910152565b600081518084526156e98160208601602086016156a5565b601f01601f19169290920160200192915050565b60006020808301818452808551808352604092508286019150828160051b87010184880160005b838110156157cf57603f198984030185528151805184528781015188850152868101516001600160a01b039081168886015260608083015115159086015260808083015115159086015260a0808301519091169085015260c080820151610120919061579282880182615691565b505060e08281015161ffff1690860152610100918201519185018190526157bb818601836156d1565b968901969450505090860190600101615724565b509098975050505050505050565b600080600080608085870312156157f357600080fd5b84356157fe816154cf565b935061580c60208601615501565b9250604085013591506060850135615823816154cf565b939692955090935050565b602080825282518282018190526000919060409081850190868401855b828110156158ca57815180518552868101516001600160a01b0390811688870152868201518116878701526060808301519091169086015260808082015164ffffffffff169086015260a080820151600481106158aa576158aa61567b565b9086015260c0908101519085015260e0909301929085019060010161584b565b5091979650505050505050565b634e487b7160e01b600052604160045260246000fd5b6040516080810167ffffffffffffffff81118282101715615910576159106158d7565b60405290565b604051601f8201601f1916810167ffffffffffffffff8111828210171561593f5761593f6158d7565b604052919050565b6000602080838503121561595a57600080fd5b823567ffffffffffffffff8082111561597257600080fd5b818501915085601f83011261598657600080fd5b813581811115615998576159986158d7565b6159a6848260051b01615916565b818152848101925060079190911b8301840190878211156159c657600080fd5b928401925b81841015615a3757608084890312156159e45760008081fd5b6159ec6158ed565b84356159f7816154cf565b8152615a04858701615501565b8187015260408581013590820152606080860135615a21816154cf565b90820152835260809390930192918401916159cb565b979650505050505050565b634e487b7160e01b600052603260045260246000fd5b634e487b7160e01b600052601160045260246000fd5b6000600019821415615a8257615a82615a58565b5060010190565b600082821015615a9b57615a9b615a58565b500390565b60008219821115615ab357615ab3615a58565b500190565b634e487b7160e01b600052603160045260246000fd5b6020808252600190820152603560f81b604082015260600190565b600060208284031215615afb57600080fd5b5051919050565b602080825260029082015261313360f01b604082015260600190565b600060208284031215615b3057600080fd5b613e04826155a1565b600060208284031215615b4b57600080fd5b613e0482615592565b6020808252600190820152603960f81b604082015260600190565b6000816000190483118215151615615b8957615b89615a58565b500290565b634e487b7160e01b600052601260045260246000fd5b600082615bb357615bb3615b8e565b500490565b600080821280156001600160ff1b0384900385131615615bda57615bda615a58565b600160ff1b8390038412811615615bf357615bf3615a58565b50500190565b60006001600160ff1b0381841382841380821686840486111615615c1f57615c1f615a58565b600160ff1b6000871282811687830589121615615c3e57615c3e615a58565b60008712925087820587128484161615615c5a57615c5a615a58565b87850587128184161615615c7057615c70615a58565b505050929093029392505050565b600082615c8d57615c8d615b8e565b600160ff1b821460001984141615615ca757615ca7615a58565b500590565b60008083128015600160ff1b850184121615615cca57615cca615a58565b6001600160ff1b0384018313811615615ce557615ce5615a58565b50500390565b600064ffffffffff80831681811415615d0657615d06615a58565b6001019392505050565b600061ffff80831681811415615d0657615d06615a58565b600060208284031215615d3a57600080fd5b81518015158114613e0457600080fd5b600181811c90821680615d5e57607f821691505b60208210811415615d7f57634e487b7160e01b600052602260045260246000fd5b50919050565b600064ffffffffff80841680615d9d57615d9d615b8e565b92169190910492915050565b60006bffffffffffffffffffffffff19808860601b168352808760601b1660148401525061ffff60f01b8560f01b1660288301528351615df081602a8501602088016156a5565b602a920191820192909252604a0195945050505050565b600064ffffffffff80841680615e1f57615e1f615b8e565b92169190910692915050565b600064ffffffffff80831681851681830481118215151615615e4f57615e4f615a58565b02949350505050565b600082615e6757615e67615b8e565b50069056fea264697066735822122046095f4747309592efbf0f249401d049eab2ba7cdb5de193f86ab07a6ff2f92e64736f6c63430008090033",
  "linkReferences": {},
  "deployedLinkReferences": {}
}