{
  "_format": "hh-sol-artifact-1",
  "contractName": "Clocktower",
  "sourceName": "contracts/Clocktower.sol",
  "abi": [
    {
      "inputs": [],
      "stateMutability": "payable",
      "type": "constructor"
    },
    {
      "anonymous": false,
      "inputs": [
        {
          "indexed": false,
          "internalType": "string",
          "name": "output4",
          "type": "string"
        }
      ],
      "name": "AccountCreated",
      "type": "event"
    },
    {
      "anonymous": false,
      "inputs": [
        {
          "indexed": false,
          "internalType": "string",
          "name": "output2",
          "type": "string"
        }
      ],
      "name": "CheckStatus",
      "type": "event"
    },
    {
      "anonymous": false,
      "inputs": [
        {
          "indexed": false,
          "internalType": "address",
          "name": "user",
          "type": "address"
        },
        {
          "indexed": false,
          "internalType": "uint256",
          "name": "amount",
          "type": "uint256"
        }
      ],
      "name": "ReceiveETH",
      "type": "event"
    },
    {
      "anonymous": false,
      "inputs": [
        {
          "indexed": false,
          "internalType": "string",
          "name": "output",
          "type": "string"
        }
      ],
      "name": "Status",
      "type": "event"
    },
    {
      "anonymous": false,
      "inputs": [
        {
          "indexed": false,
          "internalType": "address",
          "name": "sender",
          "type": "address"
        },
        {
          "indexed": false,
          "internalType": "address",
          "name": "receiver",
          "type": "address"
        },
        {
          "indexed": false,
          "internalType": "uint40",
          "name": "timeTrigger",
          "type": "uint40"
        },
        {
          "indexed": false,
          "internalType": "uint256",
          "name": "payload",
          "type": "uint256"
        }
      ],
      "name": "TransactionAdd",
      "type": "event"
    },
    {
      "anonymous": false,
      "inputs": [
        {
          "indexed": false,
          "internalType": "bool",
          "name": "sent",
          "type": "bool"
        }
      ],
      "name": "TransactionSent",
      "type": "event"
    },
    {
      "anonymous": false,
      "inputs": [
        {
          "indexed": false,
          "internalType": "string",
          "name": "output3",
          "type": "string"
        }
      ],
      "name": "UnknownFunction",
      "type": "event"
    },
    {
      "stateMutability": "payable",
      "type": "fallback"
    },
    {
      "inputs": [
        {
          "components": [
            {
              "internalType": "address payable",
              "name": "receiver",
              "type": "address"
            },
            {
              "internalType": "uint40",
              "name": "unixTime",
              "type": "uint40"
            },
            {
              "internalType": "uint256",
              "name": "payload",
              "type": "uint256"
            },
            {
              "internalType": "address",
              "name": "token",
              "type": "address"
            }
          ],
          "internalType": "struct Clocktower.Batch[]",
          "name": "batch",
          "type": "tuple[]"
        }
      ],
      "name": "addBatchTransactions",
      "outputs": [],
      "stateMutability": "payable",
      "type": "function"
    },
    {
      "inputs": [
        {
          "internalType": "address",
          "name": "erc20Contract",
          "type": "address"
        }
      ],
      "name": "addERC20Contract",
      "outputs": [],
      "stateMutability": "nonpayable",
      "type": "function"
    },
    {
      "inputs": [
        {
          "internalType": "address payable",
          "name": "receiver",
          "type": "address"
        },
        {
          "internalType": "uint40",
          "name": "unixTime",
          "type": "uint40"
        },
        {
          "internalType": "uint256",
          "name": "payload",
          "type": "uint256"
        },
        {
          "internalType": "address",
          "name": "token",
          "type": "address"
        },
        {
          "components": [
            {
              "internalType": "address",
              "name": "owner",
              "type": "address"
            },
            {
              "internalType": "address",
              "name": "spender",
              "type": "address"
            },
            {
              "internalType": "uint256",
              "name": "value",
              "type": "uint256"
            },
            {
              "internalType": "uint256",
              "name": "deadline",
              "type": "uint256"
            },
            {
              "internalType": "uint8",
              "name": "v",
              "type": "uint8"
            },
            {
              "internalType": "bytes32",
              "name": "r",
              "type": "bytes32"
            },
            {
              "internalType": "bytes32",
              "name": "s",
              "type": "bytes32"
            }
          ],
          "internalType": "struct Clocktower.Permit",
          "name": "permit",
          "type": "tuple"
        }
      ],
      "name": "addPermitTransaction",
      "outputs": [],
      "stateMutability": "payable",
      "type": "function"
    },
    {
      "inputs": [
        {
          "internalType": "address payable",
          "name": "receiver",
          "type": "address"
        },
        {
          "internalType": "uint40",
          "name": "unixTime",
          "type": "uint40"
        },
        {
          "internalType": "uint256",
          "name": "payload",
          "type": "uint256"
        },
        {
          "internalType": "address",
          "name": "token",
          "type": "address"
        }
      ],
      "name": "addTransaction",
      "outputs": [],
      "stateMutability": "payable",
      "type": "function"
    },
    {
      "inputs": [],
      "name": "allAccounts",
      "outputs": [
        {
          "components": [
            {
              "internalType": "address",
              "name": "accountAddress",
              "type": "address"
            },
            {
              "internalType": "bool",
              "name": "exists",
              "type": "bool"
            },
            {
              "internalType": "uint40[]",
              "name": "timeTriggers",
              "type": "uint40[]"
            }
          ],
          "internalType": "struct Clocktower.Account[]",
          "name": "",
          "type": "tuple[]"
        }
      ],
      "stateMutability": "view",
      "type": "function"
    },
    {
      "inputs": [],
      "name": "allTransactions",
      "outputs": [
        {
          "components": [
            {
              "internalType": "bytes32",
              "name": "id",
              "type": "bytes32"
            },
            {
              "internalType": "address",
              "name": "sender",
              "type": "address"
            },
            {
              "internalType": "address payable",
              "name": "receiver",
              "type": "address"
            },
            {
              "internalType": "address",
              "name": "token",
              "type": "address"
            },
            {
              "internalType": "uint40",
              "name": "timeTrigger",
              "type": "uint40"
            },
            {
              "internalType": "bool",
              "name": "sent",
              "type": "bool"
            },
            {
              "internalType": "bool",
              "name": "failed",
              "type": "bool"
            },
            {
              "internalType": "uint256",
              "name": "payload",
              "type": "uint256"
            }
          ],
          "internalType": "struct Clocktower.Transaction[]",
          "name": "",
          "type": "tuple[]"
        }
      ],
      "stateMutability": "view",
      "type": "function"
    },
    {
      "inputs": [
        {
          "internalType": "bytes32",
          "name": "id",
          "type": "bytes32"
        },
        {
          "internalType": "uint40",
          "name": "unixTrigger",
          "type": "uint40"
        },
        {
          "internalType": "address",
          "name": "token",
          "type": "address"
        }
      ],
      "name": "cancelTransaction",
      "outputs": [],
      "stateMutability": "payable",
      "type": "function"
    },
    {
      "inputs": [
        {
          "internalType": "address",
          "name": "newAddress",
          "type": "address"
        }
      ],
      "name": "changeAdmin",
      "outputs": [],
      "stateMutability": "nonpayable",
      "type": "function"
    },
    {
      "inputs": [
        {
          "internalType": "uint256",
          "name": "_fee",
          "type": "uint256"
        }
      ],
      "name": "changeFee",
      "outputs": [],
      "stateMutability": "nonpayable",
      "type": "function"
    },
    {
      "inputs": [],
      "name": "checkTime",
      "outputs": [
        {
          "internalType": "bool",
          "name": "",
          "type": "bool"
        }
      ],
      "stateMutability": "view",
      "type": "function"
    },
    {
      "inputs": [],
      "name": "getAccountTransactions",
      "outputs": [
        {
          "components": [
            {
              "internalType": "bytes32",
              "name": "id",
              "type": "bytes32"
            },
            {
              "internalType": "address",
              "name": "sender",
              "type": "address"
            },
            {
              "internalType": "address payable",
              "name": "receiver",
              "type": "address"
            },
            {
              "internalType": "address",
              "name": "token",
              "type": "address"
            },
            {
              "internalType": "uint40",
              "name": "timeTrigger",
              "type": "uint40"
            },
            {
              "internalType": "bool",
              "name": "sent",
              "type": "bool"
            },
            {
              "internalType": "bool",
              "name": "failed",
              "type": "bool"
            },
            {
              "internalType": "uint256",
              "name": "payload",
              "type": "uint256"
            }
          ],
          "internalType": "struct Clocktower.Transaction[]",
          "name": "",
          "type": "tuple[]"
        }
      ],
      "stateMutability": "view",
      "type": "function"
    },
    {
      "inputs": [],
      "name": "getFee",
      "outputs": [
        {
          "internalType": "uint256",
          "name": "",
          "type": "uint256"
        }
      ],
      "stateMutability": "view",
      "type": "function"
    },
    {
      "inputs": [],
      "name": "getTime",
      "outputs": [
        {
          "internalType": "uint256",
          "name": "",
          "type": "uint256"
        }
      ],
      "stateMutability": "view",
      "type": "function"
    },
    {
      "inputs": [
        {
          "internalType": "address",
          "name": "account",
          "type": "address"
        }
      ],
      "name": "getTransactionsByAccount",
      "outputs": [
        {
          "components": [
            {
              "internalType": "bytes32",
              "name": "id",
              "type": "bytes32"
            },
            {
              "internalType": "address",
              "name": "sender",
              "type": "address"
            },
            {
              "internalType": "address payable",
              "name": "receiver",
              "type": "address"
            },
            {
              "internalType": "address",
              "name": "token",
              "type": "address"
            },
            {
              "internalType": "uint40",
              "name": "timeTrigger",
              "type": "uint40"
            },
            {
              "internalType": "bool",
              "name": "sent",
              "type": "bool"
            },
            {
              "internalType": "bool",
              "name": "failed",
              "type": "bool"
            },
            {
              "internalType": "uint256",
              "name": "payload",
              "type": "uint256"
            }
          ],
          "internalType": "struct Clocktower.Transaction[]",
          "name": "",
          "type": "tuple[]"
        }
      ],
      "stateMutability": "view",
      "type": "function"
    },
    {
      "inputs": [
        {
          "internalType": "address",
          "name": "erc20Contract",
          "type": "address"
        }
      ],
      "name": "removeERC20Contract",
      "outputs": [],
      "stateMutability": "nonpayable",
      "type": "function"
    },
    {
      "inputs": [],
      "name": "sendTime",
      "outputs": [],
      "stateMutability": "nonpayable",
      "type": "function"
    },
    {
      "inputs": [],
      "name": "toggleContractActive",
      "outputs": [],
      "stateMutability": "nonpayable",
      "type": "function"
    },
    {
      "stateMutability": "payable",
      "type": "receive"
    }
  ],
  "bytecode": "0x6080604052600780546001600160a01b03191673f39fd6e51aad88f6f4ce6ab8827279cfffb922661790556009805460ff191690556064600a55662386f26fc10000600b55600162000051426200007f565b6200005d9190620000a6565b600c805464ffffffffff191664ffffffffff929092169190911790556200010e565b6000610e1062000094636323682084620000a6565b620000a09190620000db565b92915050565b600064ffffffffff83811690831681811015620000d357634e487b7160e01b600052601160045260246000fd5b039392505050565b600064ffffffffff808416806200010257634e487b7160e01b600052601260045260246000fd5b92169190910492915050565b6146bb806200011e6000396000f3fe6080604052600436106101025760003560e01c8063a1c06d3411610095578063ced72f8711610064578063ced72f87146102d6578063cf783d8a146102eb578063d10fa1441461030d578063dc9961eb14610320578063e0c6190d1461034057610142565b8063a1c06d3414610279578063aa58a5b01461028c578063ab7e0909146102a1578063c682cce4146102c157610142565b8063557ed1ba116100d1578063557ed1ba146102095780636a1db1bf1461022657806380423444146102465780638f2839701461025957610142565b8063053149fa146101945780631385d24c146101b65780631ccb3371146101cb5780632a2b3690146101f657610142565b3661014257604080513381523460208201527f830d2d700a97af574b186c80d40429385d24241565b08a7c559ba283a964d9b191015b60405180910390a1005b7f19525a32afaad9a5491805c356597487a306fc2f4e8541d8d55e1fe951091e606040516101389060208082526010908201526f2ab735b737bbb710333ab731ba34b7b760811b604082015260600190565b3480156101a057600080fd5b506101b46101af366004613ebb565b610365565b005b3480156101c257600080fd5b506101b461058f565b3480156101d757600080fd5b506101e06105cd565b6040516101ed9190613edf565b60405180910390f35b6101b4610204366004613f9c565b610717565b34801561021557600080fd5b50425b6040519081526020016101ed565b34801561023257600080fd5b506101b4610241366004613fdc565b610964565b6101b4610254366004613ff5565b610993565b34801561026557600080fd5b506101b4610274366004613ebb565b610d72565b6101b4610287366004614046565b610de7565b34801561029857600080fd5b506101b4611249565b3480156102ad57600080fd5b506101b46102bc366004613ebb565b6113f2565b3480156102cd57600080fd5b506101e06114d7565b3480156102e257600080fd5b50600a54610218565b3480156102f757600080fd5b50610300611987565b6040516101ed91906140b5565b6101b461031b3660046141e1565b611b45565b34801561032c57600080fd5b506101e061033b366004613ebb565b6125f9565b34801561034c57600080fd5b50610355612ad2565b60405190151581526020016101ed565b6007546001600160a01b031633146103985760405162461bcd60e51b815260040161038f906142dc565b60405180910390fd5b6001600160a01b0381166103ab57600080fd5b6103b481612c69565b6104005760405162461bcd60e51b815260206004820152601960248201527f455243323020746f6b656e206e6f742061646465642079657400000000000000604482015260640161038f565b6000600880548060200260200160405190810160405280929190818152602001828054801561045857602002820191906000526020600020905b81546001600160a01b0316815260019091019060200180831161043a575b505050505090506000805b82518110156104b957836001600160a01b031683828151811061048857610488614313565b60200260200101516001600160a01b031614156104a7578091506104b9565b806104b18161433f565b915050610463565b50805b6008546104cb9060019061435a565b8110156105565760086104df826001614371565b815481106104ef576104ef614313565b600091825260209091200154600880546001600160a01b03909216918390811061051b5761051b614313565b600091825260209091200180546001600160a01b0319166001600160a01b03929092169190911790558061054e8161433f565b9150506104bc565b50600880548061056857610568614389565b600082815260209020810160001990810180546001600160a01b0319169055019055505050565b6007546001600160a01b031633146105b95760405162461bcd60e51b815260040161038f906142dc565b6009805460ff19811660ff90911615179055565b6007546060906001600160a01b031633146105fa5760405162461bcd60e51b815260040161038f906142dc565b60035460009067ffffffffffffffff81111561061857610618614171565b60405190808252806020026020018201604052801561065157816020015b61063e613db6565b8152602001906001900390816106365790505b5090506000805b60015481101561070f5760006106946001838154811061067a5761067a614313565b6000918252602090912001546001600160a01b03166125f9565b905060005b81518110156106fa578181815181106106b4576106b4614313565b60200260200101518585815181106106ce576106ce614313565b602002602001018190525083806106e49061433f565b94505080806106f29061433f565b915050610699565b505080806107079061433f565b915050610658565b509091505090565b600061072283612d2a565b64ffffffffff8116600090815260026020908152604080832080548251818502810185019093528083529495509293909291849084015b828210156107ff576000848152602090819020604080516101008101825260058602909201805483526001808201546001600160a01b039081168587015260028301548116938501939093526003820154928316606085015264ffffffffff600160a01b840416608085015260ff600160c81b84048116151560a0860152600160d01b909304909216151560c08401526004015460e08301529083529092019101610759565b50505050905061080d613db6565b60005b8251811015610871578683828151811061082c5761082c614313565b602002602001015160000151141561085f5782818151811061085057610850614313565b60200260200101519150610871565b806108698161433f565b915050610810565b5061088481600001518260800151612d4d565b6001600160a01b038416156108d65760e08101513360009081526004602090815260408083206001600160a01b0389168452909152812080549091906108cb90849061435a565b9091555061095c9050565b60e08101513360009081526004602090815260408083206001600160a01b03891684529091528120805490919061090e90849061435a565b909155505060e0810151471161092357600080fd5b80602001516001600160a01b03166108fc8260e001519081150290604051600060405180830381858888f1935050505061095c57600080fd5b505050505050565b6007546001600160a01b0316331461098e5760405162461bcd60e51b815260040161038f906142dc565b600a55565b60095460ff16610d6c57428364ffffffffff16116109c35760405162461bcd60e51b815260040161038f9061439f565b6109cf610e10846143ec565b64ffffffffff16156109f35760405162461bcd60e51b815260040161038f90614410565b6001600160a01b038116610a3f57346064600a5484610a129190614447565b610a1c9190614466565b1115610a3a5760405162461bcd60e51b815260040161038f9061447a565b610b57565b34600b541115610a615760405162461bcd60e51b815260040161038f9061447a565b610a6a81612c69565b610a865760405162461bcd60e51b815260040161038f906144be565b604051636eb1769f60e11b81523360048201523060248201526001600160a01b0382169063dd62ed3e90604401602060405180830381600087803b158015610acd57600080fd5b505af1158015610ae1573d6000803e3d6000fd5b505050506040513d601f19601f82011682018060405250810190610b059190614503565b600160ff1b14610b575760405162461bcd60e51b815260206004820152601860248201527f526571756972657320325e32353520616c6c6f77616e63650000000000000000604482015260640161038f565b6000610b6284612d2a565b90506000610b733387858588613105565b64ffffffffff83811660008181526002602081815260408084208054600180820183559186529483902088516005909602019485558783015190850180546001600160a01b03199081166001600160a01b0393841617909155888301519486018054909116948216949094179093556060808801516003860180546080808c015160a08d015160c08e0151958a166001600160c81b031990941693909317600160a01b91909c16029a909a1761ffff60c81b1916600160c81b9115159190910260ff60d01b191617600160d01b9215159290920291909117905560e08801516004909501949094558051338152928d169183019190915281019290925281018790529192507f6e643cb89831cd75ded50b4ecee0e313701b6002fc48e8b80a3c05447ab066e8910160405180910390a17f2844c95bf1b4598da931d527f903501abc60fe0199c65da52d5ce818c6c5e961604051610ceb90602080825260069082015265141d5cda195960d21b604082015260600190565b60405180910390a18051600380546001810182556000919091527fc2575a0e9e593c00f959f8c92f12db2869c3395a3b0502d05e2516446f71f85b0155610d31826131b5565b3360009081526004602090815260408083206001600160a01b038716845290915281208054869290610d64908490614371565b909155505050505b50505050565b6007546001600160a01b03163314610d9c5760405162461bcd60e51b815260040161038f906142dc565b336001600160a01b038216148015610dbc57506001600160a01b03811615155b610dc557600080fd5b600780546001600160a01b0319166001600160a01b0392909216919091179055565b60095460ff1661124257428464ffffffffff1611610e175760405162461bcd60e51b815260040161038f9061439f565b610e23610e10856143ec565b64ffffffffff1615610e475760405162461bcd60e51b815260040161038f90614410565b6001600160a01b038216610e9357346064600a5485610e669190614447565b610e709190614466565b1115610e8e5760405162461bcd60e51b815260040161038f9061447a565b610f4c565b34600b541115610eb55760405162461bcd60e51b815260040161038f9061447a565b610ebe82612c69565b610eda5760405162461bcd60e51b815260040161038f906144be565b8060400135831115610f4c5760405162461bcd60e51b815260206004820152603560248201527f5061796c6f6164206d757374206265206c657373207468616e206f7220657175604482015274185b081d1bc81d985b1d59481c195c9b5a5d1d1959605a1b606482015260840161038f565b6000610f5785612d2a565b90506000610f683388868589613105565b64ffffffffff83811660008181526002602081815260408084208054600180820183559186529483902088516005909602019485558783015190850180546001600160a01b03199081166001600160a01b0393841617909155888301519486018054909116948216949094179093556060808801516003860180546080808c015160a08d015160c08e0151958a166001600160c81b031990941693909317600160a01b91909c16029a909a1761ffff60c81b1916600160c81b9115159190910260ff60d01b191617600160d01b9215159290920291909117905560e08801516004909501949094558051338152928e169183019190915281019290925281018890529192507f6e643cb89831cd75ded50b4ecee0e313701b6002fc48e8b80a3c05447ab066e8910160405180910390a17f2844c95bf1b4598da931d527f903501abc60fe0199c65da52d5ce818c6c5e9616040516110e090602080825260069082015265141d5cda195960d21b604082015260600190565b60405180910390a18051600380546001810182556000919091527fc2575a0e9e593c00f959f8c92f12db2869c3395a3b0502d05e2516446f71f85b0155611126826131b5565b3360009081526004602090815260408083206001600160a01b038816845290915281208054879290611159908490614371565b90915550506001600160a01b0384161561123f576001600160a01b03841663d505accf6111896020860186613ebb565b6111996040870160208801613ebb565b604087013560608801356111b360a08a0160808b0161451c565b6040516001600160e01b031960e088901b1681526001600160a01b0395861660048201529490931660248501526044840191909152606483015260ff16608482015260a086013560a482015260c086013560c482015260e401600060405180830381600087803b15801561122657600080fd5b505af115801561123a573d6000803e3d6000fd5b505050505b50505b5050505050565b6007546001600160a01b031633146112735760405162461bcd60e51b815260040161038f906142dc565b600061127e42612d2a565b600c5490915064ffffffffff908116908216116112ad5760405162461bcd60e51b815260040161038f9061453f565b600c5464ffffffffff165b8164ffffffffff168164ffffffffff16116113d35764ffffffffff8116600090815260026020908152604080832080548251818502810185019093528083529192909190849084015b828210156113a7576000848152602090819020604080516101008101825260058602909201805483526001808201546001600160a01b039081168587015260028301548116938501939093526003820154928316606085015264ffffffffff600160a01b840416608085015260ff600160c81b84048116151560a0860152600160d01b909304909216151560c08401526004015460e08301529083529092019101611301565b5050505090506000815111156113c0576113c081613362565b50806113cb81614586565b9150506112b8565b50600c805464ffffffffff191664ffffffffff92909216919091179055565b6007546001600160a01b0316331461141c5760405162461bcd60e51b815260040161038f906142dc565b6001600160a01b03811661142f57600080fd5b61143881612c69565b156114855760405162461bcd60e51b815260206004820152601960248201527f455243323020746f6b656e20616c726561647920616464656400000000000000604482015260640161038f565b600880546001810182556000919091527ff3f7a9fe364faab93b216da50a3214154f22a0a2b415b23a84c8169e8b636ee30180546001600160a01b0319166001600160a01b0392909216919091179055565b3360009081526020818152604080832060010180548251818502810185019093528083526060949383018282801561155c57602002820191906000526020600020906000905b82829054906101000a900464ffffffffff1664ffffffffff168152602001906005019060208260040104928301926001038202915080841161151d5790505b505050505090506000805b825181101561169b5760006002600085848151811061158857611588614313565b602002602001015164ffffffffff1664ffffffffff168152602001908152602001600020805480602002602001604051908101604052809291908181526020016000905b82821015611672576000848152602090819020604080516101008101825260058602909201805483526001808201546001600160a01b039081168587015260028301548116938501939093526003820154928316606085015264ffffffffff600160a01b840416608085015260ff600160c81b84048116151560a0860152600160d01b909304909216151560c08401526004015460e083015290835290920191016115cc565b5050505090508051836116859190614371565b92505080806116939061433f565b915050611567565b5060008167ffffffffffffffff8111156116b7576116b7614171565b6040519080825280602002602001820160405280156116f057816020015b6116dd613db6565b8152602001906001900390816116d55790505b50905060008267ffffffffffffffff81111561170e5761170e614171565b60405190808252806020026020018201604052801561174757816020015b611734613db6565b81526020019060019003908161172c5790505b5090506000805b855181101561190b576002600087838151811061176d5761176d614313565b602002602001015164ffffffffff1664ffffffffff168152602001908152602001600020805480602002602001604051908101604052809291908181526020016000905b82821015611857576000848152602090819020604080516101008101825260058602909201805483526001808201546001600160a01b039081168587015260028301548116938501939093526003820154928316606085015264ffffffffff600160a01b840416608085015260ff600160c81b84048116151560a0860152600160d01b909304909216151560c08401526004015460e083015290835290920191016117b1565b50505050935060005b84518110156118f857336001600160a01b031685828151811061188557611885614313565b6020026020010151602001516001600160a01b031614156118e6578481815181106118b2576118b2614313565b60200260200101518484815181106118cc576118cc614313565b602002602001018190525082806118e29061433f565b9350505b806118f08161433f565b915050611860565b50806119038161433f565b91505061174e565b5060005b825181101561197c5761193e83828151811061192d5761192d614313565b602002602001015160800151613b0d565b83828151811061195057611950614313565b602090810291909101015164ffffffffff909116608090910152806119748161433f565b91505061190f565b509095945050505050565b6007546060906001600160a01b031633146119b45760405162461bcd60e51b815260040161038f906142dc565b60015460009067ffffffffffffffff8111156119d2576119d2614171565b604051908082528060200260200182016040528015611a1f57816020015b604080516060808201835260008083526020830152918101919091528152602001906001900390816119f05790505b50905060005b600154811015611b3f5760008060018381548110611a4557611a45614313565b6000918252602080832091909101546001600160a01b039081168452838201949094526040928301909120825160608101845281549485168152600160a01b90940460ff1615158483015260018101805484518185028101850186528181529294860193830182828015611b0657602002820191906000526020600020906000905b82829054906101000a900464ffffffffff1664ffffffffff1681526020019060050190602082600401049283019260010382029150808411611ac75790505b505050505081525050828281518110611b2157611b21614313565b60200260200101819052508080611b379061433f565b915050611a25565b50905090565b60095460ff166125f65760018151118015611b61575060648151105b611bd35760405162461bcd60e51b815260206004820152603b60248201527f4261746368206d7573742068617665206d6f7265207468616e206f6e6520747260448201527f616e73616374696f6e20616e64206c657373207468616e203130300000000000606482015260840161038f565b611bfe6040518060800160405280600081526020016000815260200160008152602001606081525090565b348251600b54611c0e9190614447565b1115611c2c5760405162461bcd60e51b815260040161038f9061447a565b60085460009067ffffffffffffffff811115611c4a57611c4a614171565b604051908082528060200260200182016040528015611c73578160200160208202803683370190505b503360009081526020819052604081206001015491925090611c96906064614371565b67ffffffffffffffff811115611cae57611cae614171565b604051908082528060200260200182016040528015611cd7578160200160208202803683370190505b50905060005b84518110156120635742858281518110611cf957611cf9614313565b60200260200101516020015164ffffffffff1611611d295760405162461bcd60e51b815260040161038f9061439f565b610e10858281518110611d3e57611d3e614313565b602002602001015160200151611d5491906143ec565b64ffffffffff1615611d785760405162461bcd60e51b815260040161038f90614410565b6000611da0868381518110611d8f57611d8f614313565b602002602001015160200151612d2a565b9050611dac8184613b29565b611dfa578083866040015181518110611dc757611dc7614313565b602002602001019064ffffffffff16908164ffffffffff1681525050600185604001818151611df69190614371565b9052505b60006001600160a01b0316868381518110611e1757611e17614313565b6020026020010151606001516001600160a01b03161415611e6957858281518110611e4457611e44614313565b60200260200101516040015185600001818151611e619190614371565b905250611f41565b611e8f868381518110611e7e57611e7e614313565b602002602001015160600151612c69565b611eab5760405162461bcd60e51b815260040161038f906144be565b611ed2868381518110611ec057611ec0614313565b60200260200101516060015185613b8b565b611f4157858281518110611ee857611ee8614313565b60200260200101516060015184866020015181518110611f0a57611f0a614313565b60200260200101906001600160a01b031690816001600160a01b031681525050600185602001818151611f3d9190614371565b9052505b858281518110611f5357611f53614313565b60200260200101516040015160056000888581518110611f7557611f75614313565b6020026020010151606001516001600160a01b03166001600160a01b031681526020019081526020016000206000828254611fb09190614371565b92505081905550858281518110611fc957611fc9614313565b60200260200101516040015160046000336001600160a01b03166001600160a01b03168152602001908152602001600020600088858151811061200e5761200e614313565b6020026020010151606001516001600160a01b03166001600160a01b0316815260200190815260200160002060008282546120499190614371565b9091555082915061205b90508161433f565b915050611cdd565b346064600a5486600001516120789190614447565b6120829190614466565b11156120a05760405162461bcd60e51b815260040161038f9061447a565b5060005b815181101561230b578181815181106120bf576120bf614313565b602002602001015164ffffffffff16600014156120db5761230b565b60005b85518161ffff1610156122f8576000612106878361ffff1681518110611d8f57611d8f614313565b905083838151811061211a5761211a614313565b602002602001015164ffffffffff168164ffffffffff1614156122e55760006121a933898561ffff168151811061215357612153614313565b6020026020010151600001518a8661ffff168151811061217557612175614313565b602002602001015160600151858c8861ffff168151811061219857612198614313565b602002602001015160400151613105565b905080600260008787815181106121c2576121c2614313565b60209081029190910181015164ffffffffff9081168352828201939093526040918201600090812080546001818101835591835283832087516005909202019081559286015183820180546001600160a01b039283166001600160a01b03199182161790915594870151600285018054918316919096161790945560608601516003808501805460808a015160a08b015160c08c01511515600160d01b0260ff60d01b19911515600160c81b029190911661ffff60c81b1992909b16600160a01b026001600160c81b031990931695909916949094171792909216969096179490941790935560e09094015160049091015592518154938401825591527fc2575a0e9e593c00f959f8c92f12db2869c3395a3b0502d05e2516446f71f85b909101555b50806122f0816145ab565b9150506120de565b50806123038161433f565b9150506120a4565b5060005b82518110156125695760006001600160a01b031683828151811061233557612335614313565b60200260200101516001600160a01b031614612512576005600084838151811061236157612361614313565b60200260200101516001600160a01b03166001600160a01b031681526020019081526020016000205483828151811061239c5761239c614313565b6020908102919091010151604051636eb1769f60e11b81523360048201523060248201526001600160a01b039091169063dd62ed3e90604401602060405180830381600087803b1580156123ef57600080fd5b505af1158015612403573d6000803e3d6000fd5b505050506040513d601f19601f820116820180604052508101906124279190614503565b1015801561250957506005600084838151811061244657612446614313565b60200260200101516001600160a01b03166001600160a01b031681526020019081526020016000205483828151811061248157612481614313565b60209081029190910101516040516370a0823160e01b81523360048201526001600160a01b03909116906370a0823190602401602060405180830381600087803b1580156124ce57600080fd5b505af11580156124e2573d6000803e3d6000fd5b505050506040513d601f19601f820116820180604052508101906125069190614503565b10155b61251257600080fd5b60006005600085848151811061252a5761252a614313565b60200260200101516001600160a01b03166001600160a01b031681526020019081526020016000208190555080806125619061433f565b91505061230f565b33600090815260208190526040902054600160a01b900460ff166112425733600081815260208190526040812080546001600160a01b031990811684178255600180548082019091557fb10e2d527612073b26eecdfd717e6a320cf44b4afac2b0732d9fcbe2b7fa0cf601805490911684179055919052805460ff60a01b1916600160a01b179055505050505b50565b6007546060906001600160a01b031633146126265760405162461bcd60e51b815260040161038f906142dc565b6001600160a01b038216600090815260208181526040808320600101805482518185028101850190935280835291929091908301828280156126b557602002820191906000526020600020906000905b82829054906101000a900464ffffffffff1664ffffffffff16815260200190600501906020826004010492830192600103820291508084116126765790505b505050505090506000805b82518110156127f4576000600260008584815181106126e1576126e1614313565b602002602001015164ffffffffff1664ffffffffff168152602001908152602001600020805480602002602001604051908101604052809291908181526020016000905b828210156127cb576000848152602090819020604080516101008101825260058602909201805483526001808201546001600160a01b039081168587015260028301548116938501939093526003820154928316606085015264ffffffffff600160a01b840416608085015260ff600160c81b84048116151560a0860152600160d01b909304909216151560c08401526004015460e08301529083529092019101612725565b5050505090508051836127de9190614371565b92505080806127ec9061433f565b9150506126c0565b5060008167ffffffffffffffff81111561281057612810614171565b60405190808252806020026020018201604052801561284957816020015b612836613db6565b81526020019060019003908161282e5790505b50905060008267ffffffffffffffff81111561286757612867614171565b6040519080825280602002602001820160405280156128a057816020015b61288d613db6565b8152602001906001900390816128855790505b5090506000805b8551811015612a6457600260008783815181106128c6576128c6614313565b602002602001015164ffffffffff1664ffffffffff168152602001908152602001600020805480602002602001604051908101604052809291908181526020016000905b828210156129b0576000848152602090819020604080516101008101825260058602909201805483526001808201546001600160a01b039081168587015260028301548116938501939093526003820154928316606085015264ffffffffff600160a01b840416608085015260ff600160c81b84048116151560a0860152600160d01b909304909216151560c08401526004015460e0830152908352909201910161290a565b50505050935060005b8451811015612a5157886001600160a01b03168582815181106129de576129de614313565b6020026020010151602001516001600160a01b03161415612a3f57848181518110612a0b57612a0b614313565b6020026020010151848481518110612a2557612a25614313565b60200260200101819052508280612a3b9061433f565b9350505b80612a498161433f565b9150506129b9565b5080612a5c8161433f565b9150506128a7565b5060005b8251811015612ac457612a8683828151811061192d5761192d614313565b838281518110612a9857612a98614313565b602090810291909101015164ffffffffff90911660809091015280612abc8161433f565b915050612a68565b50909450505050505b919050565b6007546000906001600160a01b03163314612aff5760405162461bcd60e51b815260040161038f906142dc565b6000612b0a42612d2a565b600c5490915064ffffffffff90811690821611612b395760405162461bcd60e51b815260040161038f9061453f565b600c5464ffffffffff165b8164ffffffffff168164ffffffffff1611612c605764ffffffffff8116600090815260026020908152604080832080548251818502810185019093528083529192909190849084015b82821015612c33576000848152602090819020604080516101008101825260058602909201805483526001808201546001600160a01b039081168587015260028301548116938501939093526003820154928316606085015264ffffffffff600160a01b840416608085015260ff600160c81b84048116151560a0860152600160d01b909304909216151560c08401526004015460e08301529083529092019101612b8d565b505050509050600081511115612c4d576001935050505090565b5080612c5881614586565b915050612b44565b50600091505090565b6000806008805480602002602001604051908101604052809291908181526020018280548015612cc257602002820191906000526020600020905b81546001600160a01b03168152600190910190602001808311612ca4575b505050505090506000915060005b8151811015612d2357818181518110612ceb57612ceb614313565b60200260200101516001600160a01b0316846001600160a01b03161415612d1157600192505b80612d1b8161433f565b915050612cd0565b5050919050565b6000610e10612d3d6363236820846145c3565b612d4791906145e9565b92915050565b64ffffffffff811660009081526002602052604090205460011415612d985764ffffffffff81166000908152600260205260408120612d8b91613dfa565b612d9481613be7565b5050565b64ffffffffff811660009081526002602052604081209080805b8354811015612ea357336001600160a01b0316848281548110612dd757612dd7614313565b60009182526020909120600160059092020101546001600160a01b03161415612e085781612e048161433f565b9250505b85848281548110612e1b57612e1b614313565b9060005260206000209060050201600001541415612e9157809250838181548110612e4857612e48614313565b6000918252602082206005909102018181556001810180546001600160a01b031990811690915560028201805490911690556003810180546001600160d81b0319169055600401555b80612e9b8161433f565b915050612db2565b5082548390612eb49060019061435a565b81548110612ec457612ec4614313565b9060005260206000209060050201838381548110612ee457612ee4614313565b60009182526020909120825460059092020190815560018083015490820180546001600160a01b03199081166001600160a01b039384161790915560028085015490840180548316918416919091179055600380850180549185018054938416929094169182178455805464ffffffffff600160a01b9182900416026001600160c81b031990931690911791909117808355815460ff600160c81b918290048116151590910260ff60c81b198316811785559254600160d01b9081900490911615150260ff60d01b1990921661ffff60c81b19909116171790556004918201549101558254839080612fd857612fd8614389565b600082815260208120600560001990930192830201818155600181810180546001600160a01b031990811690915560028301805490911690556003820180546001600160d81b0319169055600490910191909155915581141561303e5761303e84613be7565b6000805b60035481101561308b57866003828154811061306057613060614313565b906000526020600020015414156130795780915061308b565b806130838161433f565b915050613042565b506003805461309c9060019061435a565b815481106130ac576130ac614313565b9060005260206000200154600382815481106130ca576130ca614313565b60009182526020909120015560038054806130e7576130e7614389565b60019003818190600052602060002001600090559055505050505050565b61310d613db6565b6040516bffffffffffffffffffffffff19606088901b1660208201526001600160d81b031960d885901b16603482015242603982015260009060590160408051601f1981840301815282825280516020918201206101008401835283526001600160a01b03998a169083015296881696810196909652505091909316606083015264ffffffffff9092166080820152600060a0820181905260c082015260e081019190915290565b33600090815260208190526040902054600160a01b900460ff166132785733600081815260208181526040822080546001600160a01b0319908116851782556001805480820182557fb10e2d527612073b26eecdfd717e6a320cf44b4afac2b0732d9fcbe2b7fa0cf601805490921690951790558054600160a01b60ff60a01b199091161781558301805493840181558252902060068083049091018054919092066005026101000a64ffffffffff818102199092169390911602919091179055565b33600090815260208181526040808320600101805482518185028101850190935280835291929091908301828280156132fe57602002820191906000526020600020906000905b82829054906101000a900464ffffffffff1664ffffffffff16815260200190600501906020826004010492830192600103820291508084116132bf5790505b5050505050905061330f8282613b29565b612d9457503360009081526020818152604082206001908101805491820181558352912060068083049091018054919092066005026101000a64ffffffffff818102199092169390911602919091179055565b60095460ff166125f6576000806000835167ffffffffffffffff81111561338b5761338b614171565b6040519080825280602002602001820160405280156133c457816020015b6133b1613db6565b8152602001906001900390816133a95790505b50905060005b84518110156137ab5760006001600160a01b03168582815181106133f0576133f0614313565b6020026020010151606001516001600160a01b031614156134805784818151811061341d5761341d614313565b602002602001015160e00151846134349190614371565b935084818151811061344857613448614313565b602002602001015182848151811061346257613462614313565b602002602001018190525082806134789061433f565b935050613799565b84818151811061349257613492614313565b602002602001015160e001518582815181106134b0576134b0614313565b6020026020010151606001516001600160a01b031663dd62ed3e8784815181106134dc576134dc614313565b60209081029190910181015101516040516001600160e01b031960e084901b1681526001600160a01b039091166004820152306024820152604401602060405180830381600087803b15801561353157600080fd5b505af1158015613545573d6000803e3d6000fd5b505050506040513d601f19601f820116820180604052508101906135699190614503565b1080613657575084818151811061358257613582614313565b602002602001015160e001518582815181106135a0576135a0614313565b6020026020010151606001516001600160a01b03166370a082318784815181106135cc576135cc614313565b6020026020010151602001516040518263ffffffff1660e01b815260040161360391906001600160a01b0391909116815260200190565b602060405180830381600087803b15801561361d57600080fd5b505af1158015613631573d6000803e3d6000fd5b505050506040513d601f19601f820116820180604052508101906136559190614503565b105b156136da5760016002600087848151811061367457613674614313565b60200260200101516080015164ffffffffff1664ffffffffff16815260200190815260200160002082815481106136ad576136ad614313565b9060005260206000209060050201600301601a6101000a81548160ff021916908315150217905550613799565b8481815181106136ec576136ec614313565b602002602001015182848151811061370657613706614313565b6020026020010181905250828061371c9061433f565b93505060016002600087848151811061373757613737614313565b60200260200101516080015164ffffffffff1664ffffffffff168152602001908152602001600020828154811061377057613770614313565b906000526020600020906005020160030160196101000a81548160ff0219169083151502179055505b806137a38161433f565b9150506133ca565b5082471161380b5760405162461bcd60e51b815260206004820152602760248201527f4e6f7420656e6f7567682045544820746f20636f6d706c657465207472616e73604482015266616374696f6e7360c81b606482015260840161038f565b60005b81518110156112425781818151811061382957613829614313565b602002602001015160e001516004600084848151811061384b5761384b614313565b6020026020010151602001516001600160a01b03166001600160a01b03168152602001908152602001600020600084848151811061388b5761388b614313565b6020026020010151606001516001600160a01b03166001600160a01b0316815260200190815260200160002060008282546138c6919061435a565b909155505081516000908390839081106138e2576138e2614313565b6020026020010151606001516001600160a01b031614156139dd57600082828151811061391157613911614313565b6020026020010151604001516001600160a01b03166108fc84848151811061393b5761393b614313565b602002602001015160e001519081150290604051600060405180830381858888f193505050509050806139a35760405162461bcd60e51b815260206004820152601060248201526f2a3930b739b332b9103330b4b632b21760811b604482015260640161038f565b604051600181527fa2ea5b0db1d57b0e32df654aa9a1a97bc8066881e37669ff488d2bebe87c9f879060200160405180910390a150613afb565b8181815181106139ef576139ef614313565b6020026020010151606001516001600160a01b03166323b872dd838381518110613a1b57613a1b614313565b602002602001015160200151848481518110613a3957613a39614313565b602002602001015160400151858581518110613a5757613a57614313565b602002602001015160e001516040518463ffffffff1660e01b8152600401613aa0939291906001600160a01b039384168152919092166020820152604081019190915260600190565b602060405180830381600087803b158015613aba57600080fd5b505af1158015613ace573d6000803e3d6000fd5b505050506040513d601f19601f82011682018060405250810190613af2919061460d565b613afb57600080fd5b80613b058161433f565b91505061380e565b6000613b1b82610e1061462f565b612d4790636323682061465c565b6000805b8251811015613b81578364ffffffffff16838281518110613b5057613b50614313565b602002602001015164ffffffffff161415613b6f576001915050612d47565b80613b798161433f565b915050613b2d565b5060009392505050565b6000805b8251811015613b8157836001600160a01b0316838281518110613bb457613bb4614313565b60200260200101516001600160a01b03161415613bd5576001915050612d47565b80613bdf8161433f565b915050613b8f565b3360009081526020819052604090206001908101541415613c20573360009081526020819052604081206125f691600190910190613e1b565b33600090815260208190526040812060010190805b8254811015613ce1578364ffffffffff16838281548110613c5857613c58614313565b90600052602060002090600691828204019190066005029054906101000a900464ffffffffff1664ffffffffff161415613ccf57809150828181548110613ca157613ca1614313565b90600052602060002090600691828204019190066005026101000a81549064ffffffffff0219169055613ce1565b80613cd98161433f565b915050613c35565b5081548290613cf29060019061435a565b81548110613d0257613d02614313565b90600052602060002090600691828204019190066005029054906101000a900464ffffffffff16828281548110613d3b57613d3b614313565b90600052602060002090600691828204019190066005026101000a81548164ffffffffff021916908364ffffffffff16021790555081805480613d8057613d80614389565b60019003818190600052602060002090600691828204019190066005026101000a81549064ffffffffff02191690559055505050565b6040805161010081018252600080825260208201819052918101829052606081018290526080810182905260a0810182905260c0810182905260e081019190915290565b50805460008255600502906000526020600020908101906125f69190613e40565b5080546000825560050160069004906000526020600020908101906125f69190613e91565b5b80821115613e8d5760008082556001820180546001600160a01b031990811690915560028301805490911690556003820180546001600160d81b03191690556004820155600501613e41565b5090565b5b80821115613e8d5760008155600101613e92565b6001600160a01b03811681146125f657600080fd5b600060208284031215613ecd57600080fd5b8135613ed881613ea6565b9392505050565b602080825282518282018190526000919060409081850190868401855b82811015613f7a57815180518552868101516001600160a01b0390811688870152868201518116878701526060808301519091169086015260808082015164ffffffffff169086015260a08082015115159086015260c08082015115159086015260e090810151908501526101009093019290850190600101613efc565b5091979650505050505050565b803564ffffffffff81168114612acd57600080fd5b600080600060608486031215613fb157600080fd5b83359250613fc160208501613f87565b91506040840135613fd181613ea6565b809150509250925092565b600060208284031215613fee57600080fd5b5035919050565b6000806000806080858703121561400b57600080fd5b843561401681613ea6565b935061402460208601613f87565b925060408501359150606085013561403b81613ea6565b939692955090935050565b600080600080600085870361016081121561406057600080fd5b863561406b81613ea6565b955061407960208801613f87565b945060408701359350606087013561409081613ea6565b925060e0607f19820112156140a457600080fd5b506080860190509295509295909350565b60006020808301818452808551808352604092508286019150828160051b8701018488016000805b8481101561416257898403603f19018652825180516001600160a01b03168552888101511515898601528701516060888601819052815190860181905290890190608086019084905b8082101561414d57835164ffffffffff168352928b0192918b019160019190910190614126565b505096890196945050918701916001016140dd565b50919998505050505050505050565b634e487b7160e01b600052604160045260246000fd5b6040516080810167ffffffffffffffff811182821017156141aa576141aa614171565b60405290565b604051601f8201601f1916810167ffffffffffffffff811182821017156141d9576141d9614171565b604052919050565b600060208083850312156141f457600080fd5b823567ffffffffffffffff8082111561420c57600080fd5b818501915085601f83011261422057600080fd5b81358181111561423257614232614171565b614240848260051b016141b0565b818152848101925060079190911b83018401908782111561426057600080fd5b928401925b818410156142d1576080848903121561427e5760008081fd5b614286614187565b843561429181613ea6565b815261429e858701613f87565b81870152604085810135908201526060808601356142bb81613ea6565b9082015283526080939093019291840191614265565b979650505050505050565b6020808252601a908201527f4d75737420686176652061646d696e2070726976696c65676573000000000000604082015260600190565b634e487b7160e01b600052603260045260246000fd5b634e487b7160e01b600052601160045260246000fd5b600060001982141561435357614353614329565b5060010190565b60008282101561436c5761436c614329565b500390565b6000821982111561438457614384614329565b500190565b634e487b7160e01b600052603160045260246000fd5b6020808252601f908201527f54696d652064617461206d75737420626520696e207468652066757475726500604082015260600190565b634e487b7160e01b600052601260045260246000fd5b600064ffffffffff80841680614404576144046143d6565b92169190910692915050565b60208082526018908201527f54696d65206d757374206265206f6e2074686520686f75720000000000000000604082015260600190565b600081600019048311821515161561446157614461614329565b500290565b600082614475576144756143d6565b500490565b60208082526024908201527f4e6f7420656e6f756768204554482073656e742077697468207472616e7361636040820152633a34b7b760e11b606082015260800190565b60208082526025908201527f20546f6b656e206e6f7420617070726f76656420666f72207468697320636f6e6040820152641d1c9858dd60da1b606082015260800190565b60006020828403121561451557600080fd5b5051919050565b60006020828403121561452e57600080fd5b813560ff81168114613ed857600080fd5b60208082526027908201527f54696d6520616c726561647920636865636b656420666f7220746869732074696040820152661b59481cdb1bdd60ca1b606082015260800190565b600064ffffffffff808316818114156145a1576145a1614329565b6001019392505050565b600061ffff808316818114156145a1576145a1614329565b600064ffffffffff838116908316818110156145e1576145e1614329565b039392505050565b600064ffffffffff80841680614601576146016143d6565b92169190910492915050565b60006020828403121561461f57600080fd5b81518015158114613ed857600080fd5b600064ffffffffff8083168185168183048111821515161561465357614653614329565b02949350505050565b600064ffffffffff80831681851680830382111561467c5761467c614329565b0194935050505056fea264697066735822122045dc440f99af403594604372d2924057896f626ed6a1476ce452a2ae2ad10a1a64736f6c63430008090033",
  "linkReferences": {},
  "deployedLinkReferences": {}
}