{
  "_format": "hh-sol-artifact-1",
  "contractName": "ClockTowerSubscribe",
  "sourceName": "contracts/ClockTowerSubscribe.sol",
  "abi": [
    {
      "inputs": [
        {
          "internalType": "uint256",
          "name": "callerFee_",
          "type": "uint256"
        },
        {
          "internalType": "uint256",
          "name": "systemFee_",
          "type": "uint256"
        },
        {
          "internalType": "uint256",
          "name": "maxRemits_",
          "type": "uint256"
        },
        {
          "internalType": "uint256",
          "name": "cancelLimit_",
          "type": "uint256"
        },
        {
          "internalType": "bool",
          "name": "allowSystemFee_",
          "type": "bool"
        },
        {
          "internalType": "address",
          "name": "admin_",
          "type": "address"
        },
        {
          "internalType": "address",
          "name": "janitor_",
          "type": "address"
        }
      ],
      "stateMutability": "nonpayable",
      "type": "constructor"
    },
    {
      "inputs": [],
      "name": "AccessControlBadConfirmation",
      "type": "error"
    },
    {
      "inputs": [
        {
          "internalType": "uint48",
          "name": "schedule",
          "type": "uint48"
        }
      ],
      "name": "AccessControlEnforcedDefaultAdminDelay",
      "type": "error"
    },
    {
      "inputs": [],
      "name": "AccessControlEnforcedDefaultAdminRules",
      "type": "error"
    },
    {
      "inputs": [
        {
          "internalType": "address",
          "name": "defaultAdmin",
          "type": "address"
        }
      ],
      "name": "AccessControlInvalidDefaultAdmin",
      "type": "error"
    },
    {
      "inputs": [
        {
          "internalType": "address",
          "name": "account",
          "type": "address"
        },
        {
          "internalType": "bytes32",
          "name": "neededRole",
          "type": "bytes32"
        }
      ],
      "name": "AccessControlUnauthorizedAccount",
      "type": "error"
    },
    {
      "inputs": [
        {
          "internalType": "uint8",
          "name": "bits",
          "type": "uint8"
        },
        {
          "internalType": "uint256",
          "name": "value",
          "type": "uint256"
        }
      ],
      "name": "SafeCastOverflowedUintDowncast",
      "type": "error"
    },
    {
      "inputs": [
        {
          "internalType": "address",
          "name": "token",
          "type": "address"
        }
      ],
      "name": "SafeERC20FailedOperation",
      "type": "error"
    },
    {
      "anonymous": false,
      "inputs": [
        {
          "indexed": true,
          "internalType": "uint40",
          "name": "timestamp",
          "type": "uint40"
        },
        {
          "indexed": true,
          "internalType": "uint40",
          "name": "checkedDay",
          "type": "uint40"
        },
        {
          "indexed": true,
          "internalType": "address",
          "name": "caller",
          "type": "address"
        },
        {
          "indexed": false,
          "internalType": "bool",
          "name": "isFinished",
          "type": "bool"
        }
      ],
      "name": "CallerLog",
      "type": "event"
    },
    {
      "anonymous": false,
      "inputs": [
        {
          "indexed": true,
          "internalType": "bytes32",
          "name": "id",
          "type": "bytes32"
        },
        {
          "indexed": false,
          "internalType": "uint256",
          "name": "subscriberIndex",
          "type": "uint256"
        },
        {
          "indexed": false,
          "internalType": "uint256",
          "name": "subscriptionIndex",
          "type": "uint256"
        },
        {
          "indexed": false,
          "internalType": "uint256",
          "name": "frequency",
          "type": "uint256"
        },
        {
          "indexed": true,
          "internalType": "uint40",
          "name": "nextUncheckedDay",
          "type": "uint40"
        }
      ],
      "name": "Coordinates",
      "type": "event"
    },
    {
      "anonymous": false,
      "inputs": [],
      "name": "DefaultAdminDelayChangeCanceled",
      "type": "event"
    },
    {
      "anonymous": false,
      "inputs": [
        {
          "indexed": false,
          "internalType": "uint48",
          "name": "newDelay",
          "type": "uint48"
        },
        {
          "indexed": false,
          "internalType": "uint48",
          "name": "effectSchedule",
          "type": "uint48"
        }
      ],
      "name": "DefaultAdminDelayChangeScheduled",
      "type": "event"
    },
    {
      "anonymous": false,
      "inputs": [],
      "name": "DefaultAdminTransferCanceled",
      "type": "event"
    },
    {
      "anonymous": false,
      "inputs": [
        {
          "indexed": true,
          "internalType": "address",
          "name": "newAdmin",
          "type": "address"
        },
        {
          "indexed": false,
          "internalType": "uint48",
          "name": "acceptSchedule",
          "type": "uint48"
        }
      ],
      "name": "DefaultAdminTransferScheduled",
      "type": "event"
    },
    {
      "anonymous": false,
      "inputs": [
        {
          "indexed": true,
          "internalType": "bytes32",
          "name": "id",
          "type": "bytes32"
        },
        {
          "indexed": true,
          "internalType": "address",
          "name": "provider",
          "type": "address"
        },
        {
          "indexed": true,
          "internalType": "uint40",
          "name": "timestamp",
          "type": "uint40"
        },
        {
          "indexed": false,
          "internalType": "string",
          "name": "url",
          "type": "string"
        },
        {
          "indexed": false,
          "internalType": "string",
          "name": "description",
          "type": "string"
        }
      ],
      "name": "DetailsLog",
      "type": "event"
    },
    {
      "anonymous": false,
      "inputs": [
        {
          "indexed": true,
          "internalType": "address",
          "name": "provider",
          "type": "address"
        },
        {
          "indexed": true,
          "internalType": "uint40",
          "name": "timestamp",
          "type": "uint40"
        },
        {
          "indexed": true,
          "internalType": "string",
          "name": "description",
          "type": "string"
        },
        {
          "indexed": false,
          "internalType": "string",
          "name": "company",
          "type": "string"
        },
        {
          "indexed": false,
          "internalType": "string",
          "name": "url",
          "type": "string"
        },
        {
          "indexed": false,
          "internalType": "string",
          "name": "domain",
          "type": "string"
        },
        {
          "indexed": false,
          "internalType": "string",
          "name": "email",
          "type": "string"
        },
        {
          "indexed": false,
          "internalType": "string",
          "name": "misc",
          "type": "string"
        }
      ],
      "name": "ProvDetailsLog",
      "type": "event"
    },
    {
      "anonymous": false,
      "inputs": [
        {
          "indexed": true,
          "internalType": "bytes32",
          "name": "role",
          "type": "bytes32"
        },
        {
          "indexed": true,
          "internalType": "bytes32",
          "name": "previousAdminRole",
          "type": "bytes32"
        },
        {
          "indexed": true,
          "internalType": "bytes32",
          "name": "newAdminRole",
          "type": "bytes32"
        }
      ],
      "name": "RoleAdminChanged",
      "type": "event"
    },
    {
      "anonymous": false,
      "inputs": [
        {
          "indexed": true,
          "internalType": "bytes32",
          "name": "role",
          "type": "bytes32"
        },
        {
          "indexed": true,
          "internalType": "address",
          "name": "account",
          "type": "address"
        },
        {
          "indexed": true,
          "internalType": "address",
          "name": "sender",
          "type": "address"
        }
      ],
      "name": "RoleGranted",
      "type": "event"
    },
    {
      "anonymous": false,
      "inputs": [
        {
          "indexed": true,
          "internalType": "bytes32",
          "name": "role",
          "type": "bytes32"
        },
        {
          "indexed": true,
          "internalType": "address",
          "name": "account",
          "type": "address"
        },
        {
          "indexed": true,
          "internalType": "address",
          "name": "sender",
          "type": "address"
        }
      ],
      "name": "RoleRevoked",
      "type": "event"
    },
    {
      "anonymous": false,
      "inputs": [
        {
          "indexed": true,
          "internalType": "bytes32",
          "name": "id",
          "type": "bytes32"
        },
        {
          "indexed": true,
          "internalType": "address",
          "name": "provider",
          "type": "address"
        },
        {
          "indexed": true,
          "internalType": "address",
          "name": "subscriber",
          "type": "address"
        },
        {
          "indexed": false,
          "internalType": "uint40",
          "name": "timestamp",
          "type": "uint40"
        },
        {
          "indexed": false,
          "internalType": "uint256",
          "name": "amount",
          "type": "uint256"
        },
        {
          "indexed": false,
          "internalType": "address",
          "name": "token",
          "type": "address"
        },
        {
          "indexed": false,
          "internalType": "enum ClockTowerSubscribe.SubscriptEvent",
          "name": "subScriptEvent",
          "type": "uint8"
        }
      ],
      "name": "SubLog",
      "type": "event"
    },
    {
      "anonymous": false,
      "inputs": [
        {
          "indexed": true,
          "internalType": "uint40",
          "name": "timestamp",
          "type": "uint40"
        },
        {
          "indexed": true,
          "internalType": "bytes32",
          "name": "id",
          "type": "bytes32"
        },
        {
          "indexed": true,
          "internalType": "address",
          "name": "subscriber",
          "type": "address"
        }
      ],
      "name": "UList",
      "type": "event"
    },
    {
      "inputs": [],
      "name": "DEFAULT_ADMIN_ROLE",
      "outputs": [
        {
          "internalType": "bytes32",
          "name": "",
          "type": "bytes32"
        }
      ],
      "stateMutability": "view",
      "type": "function"
    },
    {
      "inputs": [],
      "name": "JANITOR_ROLE",
      "outputs": [
        {
          "internalType": "bytes32",
          "name": "",
          "type": "bytes32"
        }
      ],
      "stateMutability": "view",
      "type": "function"
    },
    {
      "inputs": [],
      "name": "acceptDefaultAdminTransfer",
      "outputs": [],
      "stateMutability": "nonpayable",
      "type": "function"
    },
    {
      "inputs": [
        {
          "internalType": "address",
          "name": "erc20Contract",
          "type": "address"
        },
        {
          "internalType": "uint256",
          "name": "minimum",
          "type": "uint256"
        },
        {
          "internalType": "uint8",
          "name": "decimals",
          "type": "uint8"
        }
      ],
      "name": "addERC20Contract",
      "outputs": [],
      "stateMutability": "nonpayable",
      "type": "function"
    },
    {
      "inputs": [
        {
          "internalType": "address",
          "name": "",
          "type": "address"
        }
      ],
      "name": "approvedERC20",
      "outputs": [
        {
          "internalType": "address",
          "name": "tokenAddress",
          "type": "address"
        },
        {
          "internalType": "uint8",
          "name": "decimals",
          "type": "uint8"
        },
        {
          "internalType": "bool",
          "name": "paused",
          "type": "bool"
        },
        {
          "internalType": "uint256",
          "name": "minimum",
          "type": "uint256"
        }
      ],
      "stateMutability": "view",
      "type": "function"
    },
    {
      "inputs": [
        {
          "internalType": "address",
          "name": "newAdmin",
          "type": "address"
        }
      ],
      "name": "beginDefaultAdminTransfer",
      "outputs": [],
      "stateMutability": "nonpayable",
      "type": "function"
    },
    {
      "inputs": [],
      "name": "callerFee",
      "outputs": [
        {
          "internalType": "uint256",
          "name": "",
          "type": "uint256"
        }
      ],
      "stateMutability": "view",
      "type": "function"
    },
    {
      "inputs": [],
      "name": "cancelDefaultAdminTransfer",
      "outputs": [],
      "stateMutability": "nonpayable",
      "type": "function"
    },
    {
      "inputs": [],
      "name": "cancelLimit",
      "outputs": [
        {
          "internalType": "uint256",
          "name": "",
          "type": "uint256"
        }
      ],
      "stateMutability": "view",
      "type": "function"
    },
    {
      "inputs": [
        {
          "components": [
            {
              "internalType": "bytes32",
              "name": "id",
              "type": "bytes32"
            },
            {
              "internalType": "uint256",
              "name": "amount",
              "type": "uint256"
            },
            {
              "internalType": "address",
              "name": "provider",
              "type": "address"
            },
            {
              "internalType": "address",
              "name": "token",
              "type": "address"
            },
            {
              "internalType": "bool",
              "name": "cancelled",
              "type": "bool"
            },
            {
              "internalType": "enum ClockTowerSubscribe.Frequency",
              "name": "frequency",
              "type": "uint8"
            },
            {
              "internalType": "uint16",
              "name": "dueDay",
              "type": "uint16"
            }
          ],
          "internalType": "struct ClockTowerSubscribe.Subscription",
          "name": "_subscription",
          "type": "tuple"
        }
      ],
      "name": "cancelSubscription",
      "outputs": [],
      "stateMutability": "nonpayable",
      "type": "function"
    },
    {
      "inputs": [
        {
          "internalType": "uint256",
          "name": "_fee",
          "type": "uint256"
        }
      ],
      "name": "changeCallerFee",
      "outputs": [],
      "stateMutability": "nonpayable",
      "type": "function"
    },
    {
      "inputs": [
        {
          "internalType": "uint48",
          "name": "newDelay",
          "type": "uint48"
        }
      ],
      "name": "changeDefaultAdminDelay",
      "outputs": [],
      "stateMutability": "nonpayable",
      "type": "function"
    },
    {
      "inputs": [
        {
          "internalType": "uint256",
          "name": "_maxRemits",
          "type": "uint256"
        }
      ],
      "name": "changeMaxRemits",
      "outputs": [],
      "stateMutability": "nonpayable",
      "type": "function"
    },
    {
      "inputs": [
        {
          "internalType": "address",
          "name": "newSysFeeAddress",
          "type": "address"
        }
      ],
      "name": "changeSysFeeReceiver",
      "outputs": [],
      "stateMutability": "nonpayable",
      "type": "function"
    },
    {
      "inputs": [
        {
          "internalType": "uint256",
          "name": "_sys_fee",
          "type": "uint256"
        }
      ],
      "name": "changeSystemFee",
      "outputs": [],
      "stateMutability": "nonpayable",
      "type": "function"
    },
    {
      "inputs": [
        {
          "internalType": "bytes32",
          "name": "id",
          "type": "bytes32"
        }
      ],
      "name": "cleanUnsubscribeList",
      "outputs": [],
      "stateMutability": "nonpayable",
      "type": "function"
    },
    {
      "inputs": [
        {
          "components": [
            {
              "internalType": "bytes32",
              "name": "id",
              "type": "bytes32"
            },
            {
              "internalType": "uint256",
              "name": "amount",
              "type": "uint256"
            },
            {
              "internalType": "address",
              "name": "provider",
              "type": "address"
            },
            {
              "internalType": "address",
              "name": "token",
              "type": "address"
            },
            {
              "internalType": "bool",
              "name": "cancelled",
              "type": "bool"
            },
            {
              "internalType": "enum ClockTowerSubscribe.Frequency",
              "name": "frequency",
              "type": "uint8"
            },
            {
              "internalType": "uint16",
              "name": "dueDay",
              "type": "uint16"
            }
          ],
          "internalType": "struct ClockTowerSubscribe.Subscription",
          "name": "subscription",
          "type": "tuple"
        }
      ],
      "name": "cleanupCancelledSubscribers",
      "outputs": [],
      "stateMutability": "nonpayable",
      "type": "function"
    },
    {
      "inputs": [
        {
          "internalType": "uint256",
          "name": "amount",
          "type": "uint256"
        },
        {
          "internalType": "address",
          "name": "token",
          "type": "address"
        },
        {
          "components": [
            {
              "internalType": "string",
              "name": "url",
              "type": "string"
            },
            {
              "internalType": "string",
              "name": "description",
              "type": "string"
            }
          ],
          "internalType": "struct ClockTowerSubscribe.Details",
          "name": "details",
          "type": "tuple"
        },
        {
          "internalType": "enum ClockTowerSubscribe.Frequency",
          "name": "frequency",
          "type": "uint8"
        },
        {
          "internalType": "uint16",
          "name": "dueDay",
          "type": "uint16"
        }
      ],
      "name": "createSubscription",
      "outputs": [],
      "stateMutability": "nonpayable",
      "type": "function"
    },
    {
      "inputs": [],
      "name": "defaultAdmin",
      "outputs": [
        {
          "internalType": "address",
          "name": "",
          "type": "address"
        }
      ],
      "stateMutability": "view",
      "type": "function"
    },
    {
      "inputs": [],
      "name": "defaultAdminDelay",
      "outputs": [
        {
          "internalType": "uint48",
          "name": "",
          "type": "uint48"
        }
      ],
      "stateMutability": "view",
      "type": "function"
    },
    {
      "inputs": [],
      "name": "defaultAdminDelayIncreaseWait",
      "outputs": [
        {
          "internalType": "uint48",
          "name": "",
          "type": "uint48"
        }
      ],
      "stateMutability": "view",
      "type": "function"
    },
    {
      "inputs": [
        {
          "components": [
            {
              "internalType": "string",
              "name": "url",
              "type": "string"
            },
            {
              "internalType": "string",
              "name": "description",
              "type": "string"
            }
          ],
          "internalType": "struct ClockTowerSubscribe.Details",
          "name": "details",
          "type": "tuple"
        },
        {
          "internalType": "bytes32",
          "name": "id",
          "type": "bytes32"
        }
      ],
      "name": "editDetails",
      "outputs": [],
      "stateMutability": "nonpayable",
      "type": "function"
    },
    {
      "inputs": [
        {
          "components": [
            {
              "internalType": "string",
              "name": "description",
              "type": "string"
            },
            {
              "internalType": "string",
              "name": "company",
              "type": "string"
            },
            {
              "internalType": "string",
              "name": "url",
              "type": "string"
            },
            {
              "internalType": "string",
              "name": "domain",
              "type": "string"
            },
            {
              "internalType": "string",
              "name": "email",
              "type": "string"
            },
            {
              "internalType": "string",
              "name": "misc",
              "type": "string"
            }
          ],
          "internalType": "struct ClockTowerSubscribe.ProviderDetails",
          "name": "details",
          "type": "tuple"
        }
      ],
      "name": "editProvDetails",
      "outputs": [],
      "stateMutability": "nonpayable",
      "type": "function"
    },
    {
      "inputs": [
        {
          "internalType": "bytes32",
          "name": "",
          "type": "bytes32"
        },
        {
          "internalType": "address",
          "name": "",
          "type": "address"
        }
      ],
      "name": "feeBalance",
      "outputs": [
        {
          "internalType": "uint256",
          "name": "",
          "type": "uint256"
        }
      ],
      "stateMutability": "view",
      "type": "function"
    },
    {
      "inputs": [
        {
          "internalType": "address",
          "name": "account",
          "type": "address"
        }
      ],
      "name": "getAccount",
      "outputs": [
        {
          "components": [
            {
              "internalType": "address",
              "name": "accountAddress",
              "type": "address"
            },
            {
              "components": [
                {
                  "internalType": "bytes32",
                  "name": "id",
                  "type": "bytes32"
                },
                {
                  "internalType": "uint16",
                  "name": "dueDay",
                  "type": "uint16"
                },
                {
                  "internalType": "enum ClockTowerSubscribe.Frequency",
                  "name": "frequency",
                  "type": "uint8"
                },
                {
                  "internalType": "enum ClockTowerSubscribe.Status",
                  "name": "status",
                  "type": "uint8"
                }
              ],
              "internalType": "struct ClockTowerSubscribe.SubIndex[]",
              "name": "subscriptions",
              "type": "tuple[]"
            },
            {
              "components": [
                {
                  "internalType": "bytes32",
                  "name": "id",
                  "type": "bytes32"
                },
                {
                  "internalType": "uint16",
                  "name": "dueDay",
                  "type": "uint16"
                },
                {
                  "internalType": "enum ClockTowerSubscribe.Frequency",
                  "name": "frequency",
                  "type": "uint8"
                },
                {
                  "internalType": "enum ClockTowerSubscribe.Status",
                  "name": "status",
                  "type": "uint8"
                }
              ],
              "internalType": "struct ClockTowerSubscribe.SubIndex[]",
              "name": "provSubs",
              "type": "tuple[]"
            }
          ],
          "internalType": "struct ClockTowerSubscribe.Account",
          "name": "",
          "type": "tuple"
        }
      ],
      "stateMutability": "view",
      "type": "function"
    },
    {
      "inputs": [
        {
          "internalType": "bool",
          "name": "bySubscriber",
          "type": "bool"
        },
        {
          "internalType": "address",
          "name": "account",
          "type": "address"
        }
      ],
      "name": "getAccountSubscriptions",
      "outputs": [
        {
          "components": [
            {
              "components": [
                {
                  "internalType": "bytes32",
                  "name": "id",
                  "type": "bytes32"
                },
                {
                  "internalType": "uint256",
                  "name": "amount",
                  "type": "uint256"
                },
                {
                  "internalType": "address",
                  "name": "provider",
                  "type": "address"
                },
                {
                  "internalType": "address",
                  "name": "token",
                  "type": "address"
                },
                {
                  "internalType": "bool",
                  "name": "cancelled",
                  "type": "bool"
                },
                {
                  "internalType": "enum ClockTowerSubscribe.Frequency",
                  "name": "frequency",
                  "type": "uint8"
                },
                {
                  "internalType": "uint16",
                  "name": "dueDay",
                  "type": "uint16"
                }
              ],
              "internalType": "struct ClockTowerSubscribe.Subscription",
              "name": "subscription",
              "type": "tuple"
            },
            {
              "internalType": "enum ClockTowerSubscribe.Status",
              "name": "status",
              "type": "uint8"
            },
            {
              "internalType": "uint256",
              "name": "totalSubscribers",
              "type": "uint256"
            }
          ],
          "internalType": "struct ClockTowerSubscribe.SubView[]",
          "name": "",
          "type": "tuple[]"
        }
      ],
      "stateMutability": "view",
      "type": "function"
    },
    {
      "inputs": [
        {
          "internalType": "uint256",
          "name": "frequency",
          "type": "uint256"
        },
        {
          "internalType": "uint16",
          "name": "dueDay",
          "type": "uint16"
        }
      ],
      "name": "getIdByTime",
      "outputs": [
        {
          "internalType": "bytes32[]",
          "name": "",
          "type": "bytes32[]"
        }
      ],
      "stateMutability": "view",
      "type": "function"
    },
    {
      "inputs": [
        {
          "internalType": "bytes32",
          "name": "role",
          "type": "bytes32"
        }
      ],
      "name": "getRoleAdmin",
      "outputs": [
        {
          "internalType": "bytes32",
          "name": "",
          "type": "bytes32"
        }
      ],
      "stateMutability": "view",
      "type": "function"
    },
    {
      "inputs": [
        {
          "internalType": "bytes32",
          "name": "id",
          "type": "bytes32"
        }
      ],
      "name": "getSubscribersById",
      "outputs": [
        {
          "components": [
            {
              "internalType": "address",
              "name": "subscriber",
              "type": "address"
            },
            {
              "internalType": "uint256",
              "name": "feeBalance",
              "type": "uint256"
            }
          ],
          "internalType": "struct ClockTowerSubscribe.SubscriberView[]",
          "name": "",
          "type": "tuple[]"
        }
      ],
      "stateMutability": "view",
      "type": "function"
    },
    {
      "inputs": [],
      "name": "getTotalSubscribers",
      "outputs": [
        {
          "internalType": "uint256",
          "name": "",
          "type": "uint256"
        }
      ],
      "stateMutability": "view",
      "type": "function"
    },
    {
      "inputs": [
        {
          "internalType": "bytes32",
          "name": "id",
          "type": "bytes32"
        }
      ],
      "name": "getUnsubscribedLength",
      "outputs": [
        {
          "internalType": "uint256",
          "name": "",
          "type": "uint256"
        }
      ],
      "stateMutability": "view",
      "type": "function"
    },
    {
      "inputs": [
        {
          "internalType": "bytes32",
          "name": "role",
          "type": "bytes32"
        },
        {
          "internalType": "address",
          "name": "account",
          "type": "address"
        }
      ],
      "name": "grantRole",
      "outputs": [],
      "stateMutability": "nonpayable",
      "type": "function"
    },
    {
      "inputs": [
        {
          "internalType": "bytes32",
          "name": "role",
          "type": "bytes32"
        },
        {
          "internalType": "address",
          "name": "account",
          "type": "address"
        }
      ],
      "name": "hasRole",
      "outputs": [
        {
          "internalType": "bool",
          "name": "",
          "type": "bool"
        }
      ],
      "stateMutability": "view",
      "type": "function"
    },
    {
      "inputs": [
        {
          "internalType": "bytes32",
          "name": "",
          "type": "bytes32"
        }
      ],
      "name": "idSubMap",
      "outputs": [
        {
          "internalType": "bytes32",
          "name": "id",
          "type": "bytes32"
        },
        {
          "internalType": "uint256",
          "name": "amount",
          "type": "uint256"
        },
        {
          "internalType": "address",
          "name": "provider",
          "type": "address"
        },
        {
          "internalType": "address",
          "name": "token",
          "type": "address"
        },
        {
          "internalType": "bool",
          "name": "cancelled",
          "type": "bool"
        },
        {
          "internalType": "enum ClockTowerSubscribe.Frequency",
          "name": "frequency",
          "type": "uint8"
        },
        {
          "internalType": "uint16",
          "name": "dueDay",
          "type": "uint16"
        }
      ],
      "stateMutability": "view",
      "type": "function"
    },
    {
      "inputs": [],
      "name": "maxRemits",
      "outputs": [
        {
          "internalType": "uint256",
          "name": "",
          "type": "uint256"
        }
      ],
      "stateMutability": "view",
      "type": "function"
    },
    {
      "inputs": [],
      "name": "nextUncheckedDay",
      "outputs": [
        {
          "internalType": "uint40",
          "name": "",
          "type": "uint40"
        }
      ],
      "stateMutability": "view",
      "type": "function"
    },
    {
      "inputs": [],
      "name": "owner",
      "outputs": [
        {
          "internalType": "address",
          "name": "",
          "type": "address"
        }
      ],
      "stateMutability": "view",
      "type": "function"
    },
    {
      "inputs": [
        {
          "internalType": "address",
          "name": "_tokenAddress",
          "type": "address"
        },
        {
          "internalType": "bool",
          "name": "pause",
          "type": "bool"
        }
      ],
      "name": "pauseToken",
      "outputs": [],
      "stateMutability": "nonpayable",
      "type": "function"
    },
    {
      "inputs": [],
      "name": "pendingDefaultAdmin",
      "outputs": [
        {
          "internalType": "address",
          "name": "newAdmin",
          "type": "address"
        },
        {
          "internalType": "uint48",
          "name": "schedule",
          "type": "uint48"
        }
      ],
      "stateMutability": "view",
      "type": "function"
    },
    {
      "inputs": [],
      "name": "pendingDefaultAdminDelay",
      "outputs": [
        {
          "internalType": "uint48",
          "name": "newDelay",
          "type": "uint48"
        },
        {
          "internalType": "uint48",
          "name": "schedule",
          "type": "uint48"
        }
      ],
      "stateMutability": "view",
      "type": "function"
    },
    {
      "inputs": [],
      "name": "remit",
      "outputs": [],
      "stateMutability": "nonpayable",
      "type": "function"
    },
    {
      "inputs": [
        {
          "internalType": "bytes32",
          "name": "role",
          "type": "bytes32"
        },
        {
          "internalType": "address",
          "name": "account",
          "type": "address"
        }
      ],
      "name": "renounceRole",
      "outputs": [],
      "stateMutability": "nonpayable",
      "type": "function"
    },
    {
      "inputs": [
        {
          "internalType": "bytes32",
          "name": "role",
          "type": "bytes32"
        },
        {
          "internalType": "address",
          "name": "account",
          "type": "address"
        }
      ],
      "name": "revokeRole",
      "outputs": [],
      "stateMutability": "nonpayable",
      "type": "function"
    },
    {
      "inputs": [],
      "name": "rollbackDefaultAdminDelay",
      "outputs": [],
      "stateMutability": "nonpayable",
      "type": "function"
    },
    {
      "inputs": [
        {
          "internalType": "uint256",
          "name": "_cancelLimit",
          "type": "uint256"
        }
      ],
      "name": "setCancelLimit",
      "outputs": [],
      "stateMutability": "nonpayable",
      "type": "function"
    },
    {
      "inputs": [
        {
          "internalType": "uint40",
          "name": "_nextUncheckedDay",
          "type": "uint40"
        }
      ],
      "name": "setNextUncheckedDay",
      "outputs": [],
      "stateMutability": "nonpayable",
      "type": "function"
    },
    {
      "inputs": [
        {
          "components": [
            {
              "internalType": "bytes32",
              "name": "id",
              "type": "bytes32"
            },
            {
              "internalType": "uint256",
              "name": "subscriberIndex",
              "type": "uint256"
            },
            {
              "internalType": "uint256",
              "name": "subscriptionIndex",
              "type": "uint256"
            },
            {
              "internalType": "uint256",
              "name": "frequency",
              "type": "uint256"
            },
            {
              "internalType": "bool",
              "name": "initialized",
              "type": "bool"
            }
          ],
          "internalType": "struct ClockTowerSubscribe.PageStart",
          "name": "_pageStart",
          "type": "tuple"
        }
      ],
      "name": "setPageStart",
      "outputs": [],
      "stateMutability": "nonpayable",
      "type": "function"
    },
    {
      "inputs": [
        {
          "components": [
            {
              "internalType": "bytes32",
              "name": "id",
              "type": "bytes32"
            },
            {
              "internalType": "uint256",
              "name": "amount",
              "type": "uint256"
            },
            {
              "internalType": "address",
              "name": "provider",
              "type": "address"
            },
            {
              "internalType": "address",
              "name": "token",
              "type": "address"
            },
            {
              "internalType": "bool",
              "name": "cancelled",
              "type": "bool"
            },
            {
              "internalType": "enum ClockTowerSubscribe.Frequency",
              "name": "frequency",
              "type": "uint8"
            },
            {
              "internalType": "uint16",
              "name": "dueDay",
              "type": "uint16"
            }
          ],
          "internalType": "struct ClockTowerSubscribe.Subscription",
          "name": "_subscription",
          "type": "tuple"
        }
      ],
      "name": "subscribe",
      "outputs": [],
      "stateMutability": "nonpayable",
      "type": "function"
    },
    {
      "inputs": [
        {
          "internalType": "bytes4",
          "name": "interfaceId",
          "type": "bytes4"
        }
      ],
      "name": "supportsInterface",
      "outputs": [
        {
          "internalType": "bool",
          "name": "",
          "type": "bool"
        }
      ],
      "stateMutability": "view",
      "type": "function"
    },
    {
      "inputs": [],
      "name": "systemFee",
      "outputs": [
        {
          "internalType": "uint256",
          "name": "",
          "type": "uint256"
        }
      ],
      "stateMutability": "view",
      "type": "function"
    },
    {
      "inputs": [
        {
          "internalType": "bool",
          "name": "status",
          "type": "bool"
        }
      ],
      "name": "systemFeeActivate",
      "outputs": [],
      "stateMutability": "nonpayable",
      "type": "function"
    },
    {
      "inputs": [
        {
          "components": [
            {
              "internalType": "bytes32",
              "name": "id",
              "type": "bytes32"
            },
            {
              "internalType": "uint256",
              "name": "amount",
              "type": "uint256"
            },
            {
              "internalType": "address",
              "name": "provider",
              "type": "address"
            },
            {
              "internalType": "address",
              "name": "token",
              "type": "address"
            },
            {
              "internalType": "bool",
              "name": "cancelled",
              "type": "bool"
            },
            {
              "internalType": "enum ClockTowerSubscribe.Frequency",
              "name": "frequency",
              "type": "uint8"
            },
            {
              "internalType": "uint16",
              "name": "dueDay",
              "type": "uint16"
            }
          ],
          "internalType": "struct ClockTowerSubscribe.Subscription",
          "name": "_subscription",
          "type": "tuple"
        }
      ],
      "name": "unsubscribe",
      "outputs": [],
      "stateMutability": "nonpayable",
      "type": "function"
    },
    {
      "inputs": [
        {
          "components": [
            {
              "internalType": "bytes32",
              "name": "id",
              "type": "bytes32"
            },
            {
              "internalType": "uint256",
              "name": "amount",
              "type": "uint256"
            },
            {
              "internalType": "address",
              "name": "provider",
              "type": "address"
            },
            {
              "internalType": "address",
              "name": "token",
              "type": "address"
            },
            {
              "internalType": "bool",
              "name": "cancelled",
              "type": "bool"
            },
            {
              "internalType": "enum ClockTowerSubscribe.Frequency",
              "name": "frequency",
              "type": "uint8"
            },
            {
              "internalType": "uint16",
              "name": "dueDay",
              "type": "uint16"
            }
          ],
          "internalType": "struct ClockTowerSubscribe.Subscription",
          "name": "_subscription",
          "type": "tuple"
        },
        {
          "internalType": "address",
          "name": "subscriber",
          "type": "address"
        }
      ],
      "name": "unsubscribeByProvider",
      "outputs": [],
      "stateMutability": "nonpayable",
      "type": "function"
    }
  ],
  "bytecode": "0x608060405234801561000f575f5ffd5b5060405161614738038061614783398101604081905261002e9161033b565b62015180826001600160a01b03811661006057604051636116401160e11b81525f600482015260240160405180910390fd5b600180546001600160d01b0316600160d01b65ffffffffffff8516021790556100895f8261020a565b5050506001600160a01b03821661009e575f5ffd5b61271087101580156100b25750612a518711155b6100ba575f5ffd5b61271086101580156100ce5750614e1f8611155b6100d6575f5ffd5b6101007f1cb0d6461572bd9b725739f1d8ea32d250b0dfcd75c68201355159719c012f808261020a565b506003879055600486815560068590556005869055600c805460ff60d01b1916600160d01b861515021790556040516358a6076b60e11b815264ffffffffff42169181019190915260029073__$d8070e93ad328db793760a96865bf0924d$__9063b14c0ed690602401602060405180830381865af4158015610185573d5f5f3e3d5ffd5b505050506040513d601f19601f820116820180604052508101906101a991906103a8565b6101b391906103d3565b600c80546001600160a01b03909416660100000000000002600160301b600160d01b031964ffffffffff939093166101000292909216610100600160d01b03199094169390931717909155506103fc945050505050565b5f82610266575f6102236002546001600160a01b031690565b6001600160a01b03161461024a57604051631fe1e13d60e11b815260040160405180910390fd5b600280546001600160a01b0319166001600160a01b0384161790555b6102708383610279565b90505b92915050565b5f828152602081815260408083206001600160a01b038516845290915281205460ff16610319575f838152602081815260408083206001600160a01b03861684529091529020805460ff191660011790556102d13390565b6001600160a01b0316826001600160a01b0316847f2f8788117e7eff1d82e926ec794901d17c78024a50270940304540a733656f0d60405160405180910390a4506001610273565b505f610273565b80516001600160a01b0381168114610336575f5ffd5b919050565b5f5f5f5f5f5f5f60e0888a031215610351575f5ffd5b8751602089015160408a015160608b015160808c0151939a5091985096509450801515811461037e575f5ffd5b925061038c60a08901610320565b915061039a60c08901610320565b905092959891949750929550565b5f602082840312156103b8575f5ffd5b815164ffffffffff811681146103cc575f5ffd5b9392505050565b64ffffffffff828116828216039081111561027357634e487b7160e01b5f52601160045260245ffd5b615d3e806104095f395ff3fe608060405234801561000f575f5ffd5b5060043610610345575f3560e01c806384ef8ffc116101be578063cab1c965116100fe578063d57ade5a1161009e578063e0a177f311610079578063e0a177f314610830578063ebec6eaa14610843578063ed601d281461086d578063fbcbc0f114610880575f5ffd5b8063d57ade5a146107e9578063d602b9fd146107fc578063da854a9614610804575f5ffd5b8063cefc1429116100d9578063cefc14291461078d578063cf6eefb714610795578063d10f9e69146107c3578063d547741f146107d6575f5ffd5b8063cab1c9651461075c578063cc8463c814610765578063ccc992331461076d575f5ffd5b80639889552e11610169578063a6b6356a11610144578063a6b6356a146106b5578063ac2b4e63146106c8578063b25ae32c146106db578063bd743886146106e3575f5ffd5b80639889552e14610674578063a1eda53c14610687578063a217fddf146106ae575f5ffd5b80638ef0ef1c116101995780638ef0ef1c1461061857806391d148541461062b57806392376c3f14610661575f5ffd5b806384ef8ffc146105cb57806386525a00146105f05780638da5cb5b14610610575f5ffd5b806334d441d011610289578063649a5ec7116102345780637507ba391161020f5780637507ba391461057d5780637b7c5f17146105855780637bbf5a6e146105985780637ee1bfb9146105b8575f5ffd5b8063649a5ec714610530578063668c1e8a146105435780636692dd5714610556575f5ffd5b80634a1268b8116102645780634a1268b8146104f7578063598bff351461050a578063634e93da1461051d575f5ffd5b806334d441d0146104c857806336568abe146104d157806336e73d72146104e4575f5ffd5b80630bec99e8116102f45780631f17ee55116102cf5780631f17ee5514610477578063248a9ca31461048057806327ea9773146104a25780632f2ff15d146104b5575f5ffd5b80630bec99e81461043a57806312c99cf51461044d57806316e8b85014610460575f5ffd5b8063038c9c0e11610324578063038c9c0e1461040a5780630aa6220b1461041f5780630b8590c714610427575f5ffd5b8062b709771461034957806301ffc9a7146103cb578063022d63fb146103ee575b5f5ffd5b6103af610357366004614f84565b60166020525f90815260409020805460018201546002830154600390930154919290916001600160a01b039182169181169060ff600160a01b8204811691600160a81b81049091169061ffff600160b01b9091041687565b6040516103c29796959493929190614fc3565b60405180910390f35b6103de6103d9366004615013565b6108a0565b60405190151581526020016103c2565b620697805b60405165ffffffffffff90911681526020016103c2565b61041d610418366004615050565b6108ca565b005b61041d61110f565b61041d6104353660046150ad565b611124565b61041d610448366004614f84565b6115a6565b61041d61045b366004615050565b6115d2565b61046960065481565b6040519081526020016103c2565b61046960045481565b61046961048e366004614f84565b5f9081526020819052604090206001015490565b61041d6104b0366004614f84565b61186e565b61041d6104c3366004615125565b61187e565b61046960035481565b61041d6104df366004615125565b6118aa565b6104696104f2366004614f84565b61196b565b61041d61050536600461514f565b611981565b61041d610518366004615191565b611a7d565b61041d61052b3660046151bb565b611d83565b61041d61053e3660046151d4565b611d96565b61041d610551366004615050565b611da9565b6104697f1cb0d6461572bd9b725739f1d8ea32d250b0dfcd75c68201355159719c012f8081565b61041d611f8a565b61041d61059336600461520b565b612fbd565b6105ab6105a6366004614f84565b612fec565b6040516103c29190615226565b61041d6105c636600461527d565b613193565b6002546001600160a01b03165b6040516001600160a01b0390911681526020016103c2565b6106036105fe3660046152a3565b6131aa565b6040516103c291906152dd565b6105d861352f565b61041d610626366004614f84565b613547565b6103de610639366004615125565b5f918252602082815260408084206001600160a01b0393909316845291905290205460ff1690565b61041d61066f3660046153f7565b613573565b61041d61068236600461547f565b613909565b61068f613932565b6040805165ffffffffffff9384168152929091166020830152016103c2565b6104695f81565b61041d6106c3366004614f84565b613984565b61041d6106d63660046151bb565b613aea565b610469613b6f565b61072a6106f13660046151bb565b60196020525f9081526040902080546001909101546001600160a01b0382169160ff600160a01b8204811692600160a81b909204169084565b604080516001600160a01b03909516855260ff90931660208501529015159183019190915260608201526080016103c2565b61046960055481565b6103f3613b7a565b61078061077b36600461549a565b613bd8565b6040516103c291906154c8565b61041d613cbe565b600154604080516001600160a01b0383168152600160a01b90920465ffffffffffff166020830152016103c2565b61041d6107d13660046154ff565b613cf4565b61041d6107e4366004615125565b613d63565b61041d6107f7366004615541565b613d8b565b61041d613e38565b600c5461081a90610100900464ffffffffff1681565b60405164ffffffffff90911681526020016103c2565b61041d61083e366004614f84565b613e4a565b610469610851366004615125565b601360209081525f928352604080842090915290825290205481565b61041d61087b3660046155f6565b613e5a565b61089361088e3660046151bb565b613ed9565b6040516103c291906157af565b5f6001600160e01b031982166318a4c3c360e11b14806108c457506108c482614368565b92915050565b6108d4813561439c565b6109095760405162461bcd60e51b81526020600482015260016024820152603360f81b60448201526064015b60405180910390fd5b80355f908152601660209081526040808320815160e0810183528154815260018201549381019390935260028101546001600160a01b0390811692840192909252600380820154928316606085015260ff600160a01b8404811615156080860152919260a0850192600160a81b909104169081111561098a5761098a614f9b565b600381111561099b5761099b614f9b565b815260039190910154600160b01b900461ffff1660209182015260608201516001600160a01b03165f90815260199091526040902054909150600160a81b900460ff1615610a105760405162461bcd60e51b8152602060048201526002602482015261032360f41b6044820152606401610900565b600754823503610a475760405162461bcd60e51b81526020600482015260026024820152610c8d60f21b6044820152606401610900565b60208181015160608301516001600160a01b03165f90815260199092526040822054610a7d9190600160a01b900460ff166143ce565b6060830151604051636eb1769f60e11b815233600482015230602482015291925082916001600160a01b039091169063dd62ed3e90604401602060405180830381865afa158015610ad0573d5f5f3e3d5ffd5b505050506040513d601f19601f82011682018060405250810190610af49190615803565b10158015610b6c575060608201516040516370a0823160e01b815233600482015282916001600160a01b0316906370a0823190602401602060405180830381865afa158015610b45573d5f5f3e3d5ffd5b505050506040513d601f19601f82011682018060405250810190610b699190615803565b10155b610b9d5760405162461bcd60e51b8152602060048201526002602482015261031360f41b6044820152606401610900565b60408201516001600160a01b03163303610bdd5760405162461bcd60e51b81526020600482015260016024820152600360fc1b6044820152606401610900565b81515f908152601560205260409020610bf69033614440565b1580610c16575081515f908152601760205260409020610c169033614440565b610c475760405162461bcd60e51b8152602060048201526002602482015261323560f01b6044820152606401610900565b816080015115610c7e5760405162461bcd60e51b8152602060048201526002602482015261323360f01b6044820152606401610900565b81515f908152601560205260409020610c9690614464565b5f03610ce857610ce6825f015160145f8560a001516003811115610cbc57610cbc614f9b565b815260208082019290925260409081015f90812060c088015161ffff16825290925290209061446d565b505b81515f908152601560205260409020610d019033614440565b610d205781515f908152601560205260409020610d1e9033614478565b505b81515f908152601760205260409020610d399033614440565b15610d595781515f908152601760205260409020610d57903361448c565b505b610da26040518060800160405280845f015181526020018460c0015161ffff1681526020018460a001516003811115610d9457610d94614f9b565b81526020015f90525f6144a0565b60208201516040516358a6076b60e11b815264ffffffffff421660048201526001905f9073__$d8070e93ad328db793760a96865bf0924d$__9063b14c0ed690602401602060405180830381865af4158015610e00573d5f5f3e3d5ffd5b505050506040513d601f19601f82011682018060405250810190610e24919061581a565b600c549091505f9064ffffffffff8084166101009092041603610e45575060015b73__$d8070e93ad328db793760a96865bf0924d$__63cf5e4f0c428860c00151878a60a001516003811115610e7c57610e7c614f9b565b6040516001600160e01b031960e087901b168152600481019490945261ffff9092166024840152604483015260ff166064820152608401602060405180830381865af4158015610ece573d5f5f3e3d5ffd5b505050506040513d601f19601f82011682018060405250810190610ef29190615803565b9350856020015184148015610f045750805b15610f0d575f93505b60028660a001516003811115610f2557610f25614f9b565b03610f3c57610f35600385615849565b9350600292505b60038660a001516003811115610f5457610f54614f9b565b03610f6b57610f64600c85615849565b9350600b92505b85515f90815260136020908152604080832033845290915281208054869290610f95908490615868565b92505081905550336001600160a01b031686604001516001600160a01b0316875f01515f516020615ce95f395f51905f52428a602001518b606001516006604051610fe3949392919061588b565b60405180910390a4336001600160a01b031686604001516001600160a01b0316875f01515f516020615ce95f395f51905f5242888b60600151600860405161102e949392919061588b565b60405180910390a460608601516001600160a01b03165f90815260196020526040902054611085903390309061106f908890600160a01b900460ff166143ce565b60608a01516001600160a01b031692919061453e565b60028660a00151600381111561109d5761109d614f9b565b14806110be575060038660a0015160038111156110bc576110bc614f9b565b145b156111065761110633876040015161106f86886110db91906158bc565b60608b01516001600160a01b03165f90815260196020526040902054600160a01b900460ff166143ce565b50505050505050565b5f611119816145ba565b6111216145c4565b50565b6001600160a01b03841661115e5760405162461bcd60e51b81526020600482015260016024820152600d60fa1b6044820152606401610900565b6001600160a01b038085165f90815260196020526040902054166111a85760405162461bcd60e51b81526020600482015260016024820152603560f81b6044820152606401610900565b6001600160a01b0384165f90815260196020526040902054600160a81b900460ff16156111fc5760405162461bcd60e51b8152602060048201526002602482015261032360f41b6044820152606401610900565b5f82600381111561120f5761120f614f9b565b0361125d578061ffff165f10801561122c575060078161ffff1611155b61125d5760405162461bcd60e51b81526020600482015260026024820152610c4d60f21b6044820152606401610900565b600182600381111561127157611271614f9b565b036112bf578061ffff165f10801561128e5750601c8161ffff1611155b6112bf5760405162461bcd60e51b8152602060048201526002602482015261313560f01b6044820152606401610900565b60028260038111156112d3576112d3614f9b565b03611321578061ffff165f1080156112f05750605a8161ffff1611155b6113215760405162461bcd60e51b8152602060048201526002602482015261189b60f11b6044820152606401610900565b600382600381111561133557611335614f9b565b03611384578061ffff165f108015611353575061016d8161ffff1611155b6113845760405162461bcd60e51b8152602060048201526002602482015261313760f01b6044820152606401610900565b6001600160a01b0384165f908152601960205260409020600101548510156113d35760405162461bcd60e51b8152602060048201526002602482015261062760f31b6044820152606401610900565b5f6113e0868685856145d0565b905061142c6040518060800160405280835f015181526020018360c0015161ffff1681526020018360a00151600381111561141d5761141d614f9b565b81526020015f905260016144a0565b80515f9081526016602090815260409182902083518155908301516001820155908201516002820180546001600160a01b039283166001600160a01b031990911617905560608301516003808401805460808701511515600160a01b0274ffffffffffffffffffffffffffffffffffffffffff1990911693909416929092179290921780825560a085015185949390929160ff60a81b191690600160a81b9084908111156114dc576114dc614f9b565b021790555060c091909101516003909101805461ffff909216600160b01b0261ffff60b01b19909216919091179055805164ffffffffff42169033907f93cda0785d40b289a535b99dc76d4c9cbb6d8146182861ac3ad40509398b186561154388806158d3565b61155060208b018b6158d3565b6040516115609493929190615945565b60405180910390a4805160608201516040515f92339290915f516020615ce95f395f51905f52916115969142918d91889061588b565b60405180910390a4505050505050565b5f6115b0816145ba565b61271082101580156115c45750614e1f8211155b6115cc575f5ffd5b50600455565b6115dc813561439c565b801561161757506002335f908152600f602090815260408083208535845290915290205460ff16600281111561161457611614614f9b565b14155b6116475760405162461bcd60e51b81526020600482015260016024820152603360f81b6044820152606401610900565b80355f908152601660209081526040808320815160e0810183528154815260018201549381019390935260028101546001600160a01b0390811692840192909252600380820154928316606085015260ff600160a01b8404811615156080860152919260a0850192600160a81b90910416908111156116c8576116c8614f9b565b60038111156116d9576116d9614f9b565b81526003919091015461ffff600160b01b90910416602091820152335f908152600f825260408082208451835290925220805460ff191660021790556007549091508235900361173457805161172f90336146d4565b61174f565b80515f90815260156020526040902061174d903361448c565b505b336001600160a01b031681604001516001600160a01b0316825f01515f516020615ce95f395f51905f5242856020015186606001516007604051611796949392919061588b565b60405180910390a480515f9081526013602081815260408084203380865290835281852054865186529383528185208186529092528084209390935582840151845160608601519451939492936001600160a01b039092169290915f516020615ce95f395f51905f5291611810914291889160049061588b565b60405180910390a460408281015160608401516001600160a01b03165f908152601960205291909120546118699190611854908490600160a01b900460ff166143ce565b60608501516001600160a01b03169190614745565b505050565b5f611878816145ba565b50600555565b8161189c57604051631fe1e13d60e11b815260040160405180910390fd5b6118a68282614776565b5050565b811580156118c557506002546001600160a01b038281169116145b15611961576001546001600160a01b03811690600160a01b900465ffffffffffff16811515806118fb575065ffffffffffff8116155b8061190e57504265ffffffffffff821610155b15611936576040516319ca5ebb60e01b815265ffffffffffff82166004820152602401610900565b5050600180547fffffffffffff000000000000ffffffffffffffffffffffffffffffffffffffff1690555b6118a6828261479a565b5f8181526017602052604081206108c490614464565b5f61198b816145ba565b6001600160a01b03841661199d575f5ffd5b6001600160a01b038085165f9081526019602052604090205416156119e85760405162461bcd60e51b81526020600482015260016024820152603160f81b6044820152606401610900565b50604080516080810182526001600160a01b0394851680825260ff93841660208084019182525f8486018181526060860198895293815260199091529390932091518254935191511515600160a81b0260ff60a81b1992909516600160a01b0274ffffffffffffffffffffffffffffffffffffffffff1990941696169590951791909117939093161782555160019190910155565b611a87823561439c565b8015611acb575060026001600160a01b0382165f908152600f602090815260408083208635845290915290205460ff166002811115611ac857611ac8614f9b565b14155b611afb5760405162461bcd60e51b81526020600482015260016024820152603360f81b6044820152606401610900565b81355f908152601660209081526040808320815160e0810183528154815260018201549381019390935260028101546001600160a01b0390811692840192909252600380820154928316606085015260ff600160a01b8404811615156080860152919260a0850192600160a81b9091041690811115611b7c57611b7c614f9b565b6003811115611b8d57611b8d614f9b565b815260039190910154600160b01b900461ffff166020918201528151335f908152600e9092526040909120919250611bc591906147cd565b611bf55760405162461bcd60e51b81526020600482015260016024820152600760fb1b6044820152606401610900565b80515f908152601560205260409020611c0e9083614440565b8015611c30575080515f908152601760205260409020611c2e9083614440565b155b611c605760405162461bcd60e51b81526020600482015260016024820152603960f81b6044820152606401610900565b6001600160a01b0382165f908152600f60209081526040808320845184529091529020805460ff1916600217905560075483359003611caa578051611ca590836146d4565b611cc5565b80515f908152601560205260409020611cc3908361448c565b505b816001600160a01b031681604001516001600160a01b0316825f01515f516020615ce95f395f51905f5242856020015186606001516007604051611d0c949392919061588b565b60405180910390a480515f9081526013602081815260408084206001600160a01b0387811680875291845282862054875187529484528286209186529083528185208590556060860151168452601990915290912054611d7d908490611854908490600160a01b900460ff166143ce565b50505050565b5f611d8d816145ba565b6118a6826147e4565b5f611da0816145ba565b6118a682614856565b611db3813561439c565b611de35760405162461bcd60e51b81526020600482015260016024820152603360f81b6044820152606401610900565b80355f908152601660209081526040808320815160e0810183528154815260018201549381019390935260028101546001600160a01b0390811692840192909252600380820154928316606085015260ff600160a01b8404811615156080860152919260a0850192600160a81b9091041690811115611e6457611e64614f9b565b6003811115611e7557611e75614f9b565b815260039190910154600160b01b900461ffff1660209091015260408101519091506001600160a01b03163314611ed35760405162461bcd60e51b8152602060048201526002602482015261313360f01b6044820152606401610900565b806080015115611f0a5760405162461bcd60e51b8152602060048201526002602482015261323360f01b6044820152606401610900565b335f8181526010602090815260408083208551845282528083208054600160ff199091168117909155855184526016909252808320600301805460ff60a01b1916600160a01b17905584516060860151915193949390925f516020615ce95f395f51905f5292611f7e92429288929161588b565b60405180910390a45050565b60ff5f5c1615611fc15760405162461bcd60e51b8152602060048201526002602482015261313960f01b6044820152606401610900565b60015f805c60ff19168217905d506040516358a6076b60e11b815264ffffffffff421660048201525f9073__$d8070e93ad328db793760a96865bf0924d$__9063b14c0ed690602401602060405180830381865af4158015612025573d5f5f3e3d5ffd5b505050506040513d601f19601f82011682018060405250810190612049919061581a565b600c5490915064ffffffffff610100909104811690821610156120925760405162461bcd60e51b81526020600482015260016024820152601b60f91b6044820152606401610900565b6040805160c0810182525f80825260208201819052918101829052606081018290526080810182905260a0810191909152600190600c5464ffffffffff848116610100909204161461218157600c5473__$d8070e93ad328db793760a96865bf0924d$__906353a6d6e29061211690610100900464ffffffffff1662015180615976565b6040516001600160e01b031960e084901b16815264ffffffffff909116600482015260240160c060405180830381865af4158015612156573d5f5f3e3d5ffd5b505050506040513d601f19601f8201168201806040525081019061217a9190615996565b90506121f5565b6040516329d36b7160e11b815242600482015273__$d8070e93ad328db793760a96865bf0924d$__906353a6d6e29060240160c060405180830381865af41580156121ce573d5f5f3e3d5ffd5b505050506040513d601f19601f820116820180604052508101906121f29190615996565b90505b5f5f5b60038111612ed257600b5460ff1615806122215750600a5481108015906122215750600b5460ff165b15612ec0575f81612233575060208301515b6001820361223f575082515b6002820361224e575060408301515b6003820361225d575060608301515b5f82815260146020908152604080832061ffff85168452909152812061228290614464565b90505b8015612ebd57600b5460ff1615806122ac575060095481118015906122ac5750600b5460ff165b15612eab575f6016816122e56122c3600186615a23565b5f88815260146020908152604080832061ffff8b1684529091529020906148c5565b815260208082019290925260409081015f20815160e0810183528154815260018201549381019390935260028101546001600160a01b0390811692840192909252600380820154928316606085015260ff600160a01b8404811615156080860152919260a0850192600160a81b909104169081111561236657612366614f9b565b600381111561237757612377614f9b565b815260039190910154600160b01b900461ffff1660209182015281515f9081526015909152604090209091506123ac90614464565b5f036123e05780515f85815260146020908152604080832061ffff8816845290915290206123d9916148d0565b5050612eab565b5f96508060800151158015612418575060608101516001600160a01b03165f90815260196020526040902054600160a81b900460ff16155b15612e33576040805160a08101825282518152606080840180516001600160a01b03908116602080860191909152868601518216858701529151165f9081526019825293842054600160a01b900460ff1691830182905260808301889052840151919291612485916143ce565b60208401516003549192505f91612710906124a090836158bc565b6124aa9190615849565b6124b49190615a23565b83515f9081526017602052604081209192509081906124d290614464565b85515f9081526015602052604090206124ea90614464565b6124f49190615a23565b85515f9081526015602052604081209192509061251090614464565b90505b8015612e28576005548b03612686576040805160a0810182528751808252602082018490529181018a9052606081018c90526001608090910181905260079190915560088290556009899055600a8b9055600b805460ff199081169092179055600c805490911690819055600160d01b900460ff1615612600575f83612710600454866125a091906158bc565b6125aa9190615849565b6125b49190615a23565b90506125c08185615a23565b93506125fe600c60069054906101000a90046001600160a01b03166125e9838a606001516143ce565b60208a01516001600160a01b03169190614745565b505b612627336126128589606001516143ce565b60208901516001600160a01b03169190614745565b600c546040515f81523391610100900464ffffffffff9081169142909116907f90192d7875364a53e351ae63fd2dfef8dc941735b29fb0c504d06a0e21ae602e9060200160405180910390a45050505050505050505050505050612fb1565b6007548651148015612699575060085481145b156126ac57600c805460ff191660011790555b600b5460ff1615806126c55750600c5460ff1615156001145b15612e16575f6126ee6126d9600184615a23565b88515f908152601560205260409020906148c5565b87515f90815260176020526040902090915061270a9082614440565b156127155750612e16565b6020870151604051636eb1769f60e11b81526001600160a01b0383811660048301523060248301528892169063dd62ed3e90604401602060405180830381865afa158015612765573d5f5f3e3d5ffd5b505050506040513d601f19601f820116820180604052508101906127899190615803565b10158015612803575060208701516040516370a0823160e01b81526001600160a01b038381166004830152889216906370a0823190602401602060405180830381865afa1580156127dc573d5f5f3e3d5ffd5b505050506040513d601f19601f820116820180604052508101906128009190615803565b10155b15612b3c578b61281281615a36565b9c5050600c60019054906101000a900464ffffffffff1664ffffffffff16875f01517f0c0097fff4bc1b26a833fef6928d7dec93a2ed4a665c3588c6a3270e0e7e3874848c8b6080015160405161287c939291909283526020830191909152604082015260600190565b60405180910390a386515f9081526013602090815260408083206001600160a01b03851684529091529020548510156129c3576128b98585615868565b87515f9081526013602090815260408083206001600160a01b03861684529091528120805492965087929091906128f1908490615a23565b92505081905550806001600160a01b031687604001516001600160a01b0316885f01515f516020615ce95f395f51905f52428c602001518c60200151600560405161293f949392919061588b565b60405180910390a4806001600160a01b031687604001516001600160a01b0316885f01515f516020615ce95f395f51905f52428c602001518c60200151600260405161298e949392919061588b565b60405180910390a46129be818860400151888a602001516001600160a01b031661453e909392919063ffffffff16565b612d7e565b86515f9081526013602090815260408083206001600160a01b03851684529091529020546129f19085615868565b87515f9081526013602090815260408083206001600160a01b0380871680865291845282852094909455818c01518c518e850151948e01519351969a50919594169390925f516020615ce95f395f51905f5292612a54924292919060089061588b565b60405180910390a46020880151600160028d9003612a8257612a77600383615849565b915060029050612a9c565b8c600303612a9c57612a95600c83615849565b9150600b90505b88515f9081526013602090815260408083206001600160a01b038716845290915281208054849290612acf908490615868565b92505081905550612aff8330612ae9858d606001516143ce565b60208d01516001600160a01b031692919061453e565b8c60021480612b0e57508c6003145b15612b3557612b35838a60400151612ae98486612b2b91906158bc565b8d606001516143ce565b5050612d7e565b8b612b4681615a36565b88515f9081526013602090815260408083206001600160a01b0387168452909152902054909d508610159050612c4557612b808585615868565b87515f9081526013602090815260408083206001600160a01b038616845290915281205491955090612bb3908790615a23565b88515f9081526013602090815260408083206001600160a01b0380881680865291845282852094909455818d01518d51938e0151925195965090949316925f516020615ce95f395f51905f5291612c10914291889160049061588b565b60405180910390a4612c438860400151612c2e838b606001516143ce565b60208b01516001600160a01b03169190614745565b505b6001600160a01b0381165f908152600f602090815260408083208a5184528252808320805460ff191660021790558951835260159091529020612c88908261448c565b50806001600160a01b031687604001516001600160a01b0316885f01515f516020615ce95f395f51905f52428c602001518c602001516007604051612cd0949392919061588b565b60405180910390a4806001600160a01b031687604001516001600160a01b0316885f01515f516020615ce95f395f51905f52425f8c602001516003604051612d1b949392919061588b565b60405180910390a4600c548751608089015160408051868152602081018e90529081019190915261010090920464ffffffffff16917f0c0097fff4bc1b26a833fef6928d7dec93a2ed4a665c3588c6a3270e0e7e38749060600160405180910390a35b816001148015612d8d57505f83115b15612e1457600c54600160d01b900460ff1615612e02575f8461271060045487612db791906158bc565b612dc19190615849565b612dcb9190615a23565b9050612dd78186615a23565b9450612e00600c60069054906101000a90046001600160a01b0316612c2e838b606001516143ce565b505b612e14336125e9868a606001516143ce565b505b80612e2081615a4e565b915050612513565b505050505050612ea9565b806080015115612e665780515f85815260146020908152604080832061ffff881684529091529020612e64916148d0565b505b600b5460ff168015612e7a57508051600754145b15612ea9575f600781905560088190556009819055600a55600b805460ff19908116909155600c805490911690555b505b80612eb581615a4e565b915050612285565b50505b80612eca81615a36565b9150506121f8565b505f600781905560088190556009819055600a55600b805460ff19908116909155600c805490911690819055604051600181523391610100900464ffffffffff9081169142909116907f90192d7875364a53e351ae63fd2dfef8dc941735b29fb0c504d06a0e21ae602e9060200160405180910390a46001600c60018282829054906101000a900464ffffffffff16612f6b9190615a63565b92506101000a81548164ffffffffff021916908364ffffffffff1602179055508215612fac575f60ff19815c16815d50612fa3611f8a565b50505050612fb1565b505050505b5f60ff19815c16815d50565b5f612fc7816145ba565b50600c805464ffffffffff9092166101000265ffffffffff0019909216919091179055565b5f8181526017602052604081206060919061300690614464565b5f84815260156020526040902061301c90614464565b6130269190615a23565b90505f8167ffffffffffffffff81111561304257613042615397565b60405190808252806020026020018201604052801561308657816020015b604080518082019091525f80825260208201528152602001906001900390816130605790505b5090505f5b5f8581526015602052604090206130a190614464565b81101561318b575f8581526015602052604090206130d6906130c390836148c5565b5f87815260176020526040902090614440565b613183575f8581526013602090815260408083206015909252822082906130fd90856148c5565b6001600160a01b03166001600160a01b031681526020019081526020015f205490505f604051806040016040528061314e8560155f8c81526020019081526020015f206148c590919063ffffffff16565b6001600160a01b031681526020018381525090508084848151811061317557613175615a80565b602002602001018190525050505b60010161308b565b509392505050565b5f61319d816145ba565b816007611d7d8282615a94565b60608083156131da576001600160a01b0383165f908152600d602052604090206131d3906148db565b90506131fd565b6001600160a01b0383165f908152600e602052604090206131fa906148db565b90505b5f815167ffffffffffffffff81111561321857613218615397565b60405190808252806020026020018201604052801561329457816020015b60408051610140810182525f606082018181526080830182905260a0830182905260c0830182905260e0830182905261010083018290526101208301829052825260208083018290529282015282525f199092019101816132365790505b5090505f5b8251811015613526578515613342576001600160a01b0385165f908152600f6020526040812084519091908590849081106132d6576132d6615a80565b602002602001015181526020019081526020015f205f9054906101000a900460ff1682828151811061330a5761330a615a80565b602002602001015160200190600281111561332757613327614f9b565b9081600281111561333a5761333a614f9b565b9052506133d8565b6001600160a01b0385165f908152601060205260408120845190919085908490811061337057613370615a80565b602002602001015181526020019081526020015f205f9054906101000a900460ff168282815181106133a4576133a4615a80565b60200260200101516020019060028111156133c1576133c1614f9b565b908160028111156133d4576133d4614f9b565b9052505b60165f8483815181106133ed576133ed615a80565b60209081029190910181015182528181019290925260409081015f20815160e0810183528154815260018201549381019390935260028101546001600160a01b0390811692840192909252600380820154928316606085015260ff600160a01b8404811615156080860152919260a0850192600160a81b909104169081111561347857613478614f9b565b600381111561348957613489614f9b565b815260039190910154600160b01b900461ffff1660209091015282518390839081106134b7576134b7615a80565b60200260200101515f01819052506134fd60155f8484815181106134dd576134dd615a80565b60200260200101515f01515f015181526020019081526020015f20614464565b82828151811061350f5761350f615a80565b602090810291909101015160400152600101613299565b50949350505050565b5f6135426002546001600160a01b031690565b905090565b5f613551816145ba565b61271082101580156135655750612a518211155b61356d575f5ffd5b50600355565b7f1cb0d6461572bd9b725739f1d8ea32d250b0dfcd75c68201355159719c012f8061359d816145ba565b81516135a89061439c565b6135d85760405162461bcd60e51b81526020600482015260016024820152603360f81b6044820152606401610900565b81515f90815260166020526040902060030154600160a01b900460ff166135fd575f5ffd5b81515f90815260156020526040812061361590614464565b9050808061364a5760405162461bcd60e51b8152602060048201526002602482015261191960f11b6044820152606401610900565b5f600654821061365c5760065461365e565b815b90505f835b61366d8386615a23565b811115613891575f613698613683600184615a23565b89515f908152601560205260409020906148c5565b88515f9081526017602052604090209091506136b49082614440565b613863576001600160a01b038181165f818152600f602090815260408083208d518452825291829020805460ff191660011790558b8201518c51918d015160608e015193519495919091169391925f516020615ce95f395f51905f5292613721924292909160079061588b565b60405180910390a487515f9081526013602090815260408083206001600160a01b0385168452909152902054600c54600160d01b900460ff16156137a2575f816127106004548461377291906158bc565b61377c9190615849565b6137869190615a23565b90506137928183615a23565b915061379e8186615868565b9450505b816001600160a01b031689604001516001600160a01b03168a5f01515f516020615ce95f395f51905f52428d602001518e6060015160096040516137e9949392919061588b565b60405180910390a460608901516001600160a01b03165f9081526019602052604090205461383d908390613828908490600160a01b900460ff166143ce565b60608c01516001600160a01b03169190614745565b5087515f9081526013602090815260408083206001600160a01b03851684529091528120555b87515f90815260156020526040902061387c908261448c565b5050808061388990615a4e565b915050613663565b50600c54600160d01b900460ff161561390157600c5460608701516001600160a01b039081165f908152601960205260409020546139019266010000000000009004909116906138ec908490600160a01b900460ff166143ce565b60608901516001600160a01b03169190614745565b505050505050565b5f613913816145ba565b50600c8054911515600160d01b0260ff60d01b19909216919091179055565b6002545f90600160d01b900465ffffffffffff16801515801561395d57504265ffffffffffff821610155b613968575f5f61397c565b600254600160a01b900465ffffffffffff16815b915091509091565b7f1cb0d6461572bd9b725739f1d8ea32d250b0dfcd75c68201355159719c012f806139ae816145ba565b6139b78261439c565b6139e75760405162461bcd60e51b81526020600482015260016024820152603360f81b6044820152606401610900565b60075482036139f4575f5ffd5b5f828152601760205260408120613a0a90614464565b90508080613a3f5760405162461bcd60e51b8152602060048201526002602482015261191960f11b6044820152606401610900565b5f6006548210613a5157600654613a53565b815b5f86815260176020526040812091925090613a6d90614464565b90505b613a7a8285615a23565b811115613901575f613aa3613a90600184615a23565b5f898152601760205260409020906148c5565b5f888152601560205260409020909150613abd908261448c565b505f878152601760205260409020613ad5908261448c565b50508080613ae290615a4e565b915050613a70565b5f613af4816145ba565b6001600160a01b038216613b06575f5ffd5b600c546001600160a01b036601000000000000909104811690831603613b2a575f5ffd5b50600c80546001600160a01b039092166601000000000000027fffffffffffff0000000000000000000000000000000000000000ffffffffffff909216919091179055565b5f6135426011614464565b6002545f90600160d01b900465ffffffffffff168015158015613ba457504265ffffffffffff8216105b613bbf57600154600160d01b900465ffffffffffff16613bd2565b600254600160a01b900465ffffffffffff165b91505090565b5f82815260146020908152604080832061ffff85168452909152812060609190613c0190614464565b67ffffffffffffffff811115613c1957613c19615397565b604051908082528060200260200182016040528015613c42578160200160208202803683370190505b5090505f5b5f85815260146020908152604080832061ffff881684529091529020613c6c90614464565b81101561318b575f85815260146020908152604080832061ffff881684529091529020613c9990826148c5565b828281518110613cab57613cab615a80565b6020908102919091010152600101613c47565b6001546001600160a01b0316338114613cec57604051636116401160e11b8152336004820152602401610900565b6111216148e7565b335f908152600e60205260409020613d0c90826147cd565b156118a65764ffffffffff421633827f93cda0785d40b289a535b99dc76d4c9cbb6d8146182861ac3ad40509398b1865613d4686806158d3565b613d5360208901896158d3565b604051611f7e9493929190615945565b81613d8157604051631fe1e13d60e11b815260040160405180910390fd5b6118a6828261497c565b5f613d95816145ba565b6001600160a01b038381165f9081526019602052604090205416613db7575f5ffd5b81613e0b576001600160a01b0383165f90815260196020526040902054600160a81b900460ff16613de6575f5ffd5b50506001600160a01b03165f908152601960205260409020805460ff60a81b19169055565b6001600160a01b0383165f908152601960205260409020805460ff60a81b1916600160a81b179055505050565b5f613e42816145ba565b6111216149a0565b5f613e54816145ba565b50600655565b8051604051613e699190615ade565b60405180910390204264ffffffffff16336001600160a01b03167f34f43abf7a52b609b04511ed963a29ebb76ae3e0ca0ff5594be1c2a84ebd03f284602001518560400151866060015187608001518860a00151604051613ece959493929190615b22565b60405180910390a450565b613f0560405180606001604052805f6001600160a01b0316815260200160608152602001606081525090565b6001600160a01b0382165f908152600d60205260408120613f2590614464565b6001600160a01b0384165f908152600e6020526040812091925090613f4990614464565b90505f8267ffffffffffffffff811115613f6557613f65615397565b604051908082528060200260200182016040528015613fbe57816020015b613fab604080516080810182525f80825260208201819052909182019081526020015f905290565b815260200190600190039081613f835790505b5090505f5b83811015614143576001600160a01b0386165f908152600d60205260408120613fec90836148c5565b5f818152601660209081526040808320815160e0810183528154815260018201549381019390935260028101546001600160a01b0390811692840192909252600380820154928316606085015260ff600160a01b840481161515608086015295965093949293909260a0850192600160a81b9004169081111561407157614071614f9b565b600381111561408257614082614f9b565b81526020016003820160169054906101000a900461ffff1661ffff1661ffff1681525050905060405180608001604052808381526020018260c0015161ffff1681526020018260a0015160038111156140dd576140dd614f9b565b81526001600160a01b038a165f908152600f6020908152604080832087845282529091205491019060ff16600281111561411957614119614f9b565b81525084848151811061412e5761412e615a80565b60209081029190910101525050600101613fc3565b505f8367ffffffffffffffff81111561415e5761415e615397565b6040519080825280602002602001820160405280156141b757816020015b6141a4604080516080810182525f80825260208201819052909182019081526020015f905290565b81526020019060019003908161417c5790505b5090505f5b8381101561433c576001600160a01b0387165f908152600e602052604081206141e590836148c5565b5f818152601660209081526040808320815160e0810183528154815260018201549381019390935260028101546001600160a01b0390811692840192909252600380820154928316606085015260ff600160a01b840481161515608086015295965093949293909260a0850192600160a81b9004169081111561426a5761426a614f9b565b600381111561427b5761427b614f9b565b81526020016003820160169054906101000a900461ffff1661ffff1661ffff1681525050905060405180608001604052808381526020018260c0015161ffff1681526020018260a0015160038111156142d6576142d6614f9b565b81526001600160a01b038b165f90815260106020908152604080832087845282529091205491019060ff16600281111561431257614312614f9b565b81525084848151811061432757614327615a80565b602090810291909101015250506001016141bc565b50604080516060810182526001600160a01b039097168752602087019290925290850152509192915050565b5f6001600160e01b03198216637965db0b60e01b14806108c457506301ffc9a760e01b6001600160e01b03198316146108c4565b5f818152601660205260408120600201546001600160a01b03166143c157505f919050565b506001919050565b919050565b5f601260ff8316811015614403576143e68184615b8e565b6143f190600a615c8a565b6143fb90856158bc565b9150506108c4565b8060ff168360ff1610156144305761441b8382615b8e565b61442690600a615c8a565b6143fb9085615849565b839150506108c4565b5092915050565b6001600160a01b0381165f90815260018301602052604081205415155b9392505050565b5f6108c4825490565b5f61445d83836149aa565b5f61445d836001600160a01b0384166149aa565b5f61445d836001600160a01b0384166149f6565b6144ab601133614440565b6144bc576144ba601133614478565b505b8015614500578151335f908152600e602052604090206144db9161446d565b5050335f9081526010602090815260408083209351835292905220805460ff19169055565b8151335f908152600d602052604090206145199161446d565b5050335f908152600f602090815260408083209351835292905220805460ff19169055565b6040516001600160a01b038481166024830152838116604483015260648201839052611d7d9186918216906323b872dd906084015b604051602081830303815290604052915060e01b6020820180517bffffffffffffffffffffffffffffffffffffffffffffffffffffffff8381831617835250505050614ad9565b6111218133614b45565b6145ce5f5f614b97565b565b6040805160e0810182525f8082526020808301829052828401829052606083018290526080830182905260a0830182905260c08301829052338252601890529182208054919282919061462283615a36565b90915550506040516bffffffffffffffffffffffff193360601b166020820152603481018290524260548201525f906074016040516020818303038152906040528051906020012090506040518060e00160405280828152602001888152602001336001600160a01b03168152602001876001600160a01b031681526020015f151581526020018660038111156146bb576146bb614f9b565b81526020018561ffff1681525092505050949350505050565b5f8281526017602052604090206146eb9082614440565b6118a657806001600160a01b0316824264ffffffffff167fe8a3ae62c8b9d8314843e79e6ce12e9ca864bbd513aa26bb9c8844891939691260405160405180910390a45f8281526017602052604090206118699082614478565b6040516001600160a01b0383811660248301526044820183905261186991859182169063a9059cbb90606401614573565b5f82815260208190526040902060010154614790816145ba565b611d7d8383614c56565b6001600160a01b03811633146147c35760405163334bd91960e11b815260040160405180910390fd5b6118698282614cbc565b5f818152600183016020526040812054151561445d565b5f6147ed613b7a565b6147f642614cf8565b6148009190615c98565b905061480c8282614d2e565b60405165ffffffffffff821681526001600160a01b038316907f3377dc44241e779dd06afab5b788a35ca5f3b778836e2990bdb26a2a4b2e5ed69060200160405180910390a25050565b5f61486082614d93565b61486942614cf8565b6148739190615c98565b905061487f8282614b97565b6040805165ffffffffffff8085168252831660208201527ff1038c18cf84a56e432fdbfaf746924b7ea511dfe03a6506a0ceba4888788d9b910160405180910390a15050565b5f61445d8383614de4565b5f61445d83836149f6565b60605f61445d83614e0a565b6001546001600160a01b03811690600160a01b900465ffffffffffff1680158061491957504265ffffffffffff821610155b15614941576040516319ca5ebb60e01b815265ffffffffffff82166004820152602401610900565b61495c5f6149576002546001600160a01b031690565b614cbc565b506149675f83614c56565b5050600180546001600160d01b031916905550565b5f82815260208190526040902060010154614996816145ba565b611d7d8383614cbc565b6145ce5f5f614d2e565b5f8181526001830160205260408120546149ef57508154600181810184555f8481526020808220909301849055845484825282860190935260409020919091556108c4565b505f6108c4565b5f8181526001830160205260408120548015614ad0575f614a18600183615a23565b85549091505f90614a2b90600190615a23565b9050808214614a8a575f865f018281548110614a4957614a49615a80565b905f5260205f200154905080875f018481548110614a6957614a69615a80565b5f918252602080832090910192909255918252600188019052604090208390555b8554869080614a9b57614a9b615cb6565b600190038181905f5260205f20015f90559055856001015f8681526020019081526020015f205f9055600193505050506108c4565b5f9150506108c4565b5f5f60205f8451602086015f885af180614af8576040513d5f823e3d81fd5b50505f513d91508115614b0f578060011415614b1c565b6001600160a01b0384163b155b15611d7d57604051635274afe760e01b81526001600160a01b0385166004820152602401610900565b5f828152602081815260408083206001600160a01b038516845290915290205460ff166118a65760405163e2517d3f60e01b81526001600160a01b038216600482015260248101839052604401610900565b600254600160d01b900465ffffffffffff168015614c19574265ffffffffffff82161015614bf057600254600180546001600160d01b0316600160a01b90920465ffffffffffff16600160d01b02919091179055614c19565b6040517f2b1fa2edafe6f7b9e97c1a9e0c3660e645beb2dcaa2d45bdbf9beaf5472e1ec5905f90a15b50600280546001600160a01b0316600160a01b65ffffffffffff948516026001600160d01b031617600160d01b9290931691909102919091179055565b5f82614cb2575f614c6f6002546001600160a01b031690565b6001600160a01b031614614c9657604051631fe1e13d60e11b815260040160405180910390fd5b600280546001600160a01b0319166001600160a01b0384161790555b61445d8383614e63565b5f82158015614cd857506002546001600160a01b038381169116145b15614cee57600280546001600160a01b03191690555b61445d8383614f03565b5f65ffffffffffff821115614d2a576040516306dfcc6560e41b81526030600482015260248101839052604401610900565b5090565b60018054600160a01b65ffffffffffff84811682026001600160d01b031984166001600160a01b03881617179093559004168015611869576040517f8886ebfc4259abdbc16601dd8fb5678e54878f47b3c34836cfc51154a9605109905f90a1505050565b5f5f614d9d613b7a565b90508065ffffffffffff168365ffffffffffff1611614dc557614dc08382615cca565b61445d565b61445d65ffffffffffff8416620697805f82821882841002821861445d565b5f825f018281548110614df957614df9615a80565b905f5260205f200154905092915050565b6060815f01805480602002602001604051908101604052809291908181526020018280548015614e5757602002820191905f5260205f20905b815481526020019060010190808311614e43575b50505050509050919050565b5f828152602081815260408083206001600160a01b038516845290915281205460ff166149ef575f838152602081815260408083206001600160a01b03861684529091529020805460ff19166001179055614ebb3390565b6001600160a01b0316826001600160a01b0316847f2f8788117e7eff1d82e926ec794901d17c78024a50270940304540a733656f0d60405160405180910390a45060016108c4565b5f828152602081815260408083206001600160a01b038516845290915281205460ff16156149ef575f838152602081815260408083206001600160a01b0386168085529252808320805460ff1916905551339286917ff6391f5c32d9c69d2a47ea670b442974b53935d1edc7fd64eb21e047a839171b9190a45060016108c4565b5f60208284031215614f94575f5ffd5b5035919050565b634e487b7160e01b5f52602160045260245ffd5b60048110614fbf57614fbf614f9b565b9052565b878152602081018790526001600160a01b03868116604083015285166060820152831515608082015260e08101614ffd60a0830185614faf565b61ffff831660c083015298975050505050505050565b5f60208284031215615023575f5ffd5b81356001600160e01b03198116811461445d575f5ffd5b5f60e0828403121561504a575f5ffd5b50919050565b5f60e08284031215615060575f5ffd5b61445d838361503a565b80356001600160a01b03811681146143c9575f5ffd5b5f6040828403121561504a575f5ffd5b8035600481106143c9575f5ffd5b61ffff81168114611121575f5ffd5b5f5f5f5f5f60a086880312156150c1575f5ffd5b853594506150d16020870161506a565b9350604086013567ffffffffffffffff8111156150ec575f5ffd5b6150f888828901615080565b93505061510760608701615090565b915060808601356151178161509e565b809150509295509295909350565b5f5f60408385031215615136575f5ffd5b823591506151466020840161506a565b90509250929050565b5f5f5f60608486031215615161575f5ffd5b61516a8461506a565b925060208401359150604084013560ff81168114615186575f5ffd5b809150509250925092565b5f5f61010083850312156151a3575f5ffd5b6151ad848461503a565b915061514660e0840161506a565b5f602082840312156151cb575f5ffd5b61445d8261506a565b5f602082840312156151e4575f5ffd5b813565ffffffffffff8116811461445d575f5ffd5b64ffffffffff81168114611121575f5ffd5b5f6020828403121561521b575f5ffd5b813561445d816151f9565b602080825282518282018190525f918401906040840190835b8181101561527257835180516001600160a01b03168452602090810151818501529093019260409092019160010161523f565b509095945050505050565b5f60a082840312801561528e575f5ffd5b509092915050565b8015158114611121575f5ffd5b5f5f604083850312156152b4575f5ffd5b82356152bf81615296565b91506151466020840161506a565b60038110614fbf57614fbf614f9b565b602080825282518282018190525f918401906040840190835b81811015615272578351805180518552602081015160208601526001600160a01b0360408201511660408601526001600160a01b03606082015116606086015260808101511515608086015260a081015161535460a0870182614faf565b5061ffff60c08201511660c086015250602081015161537660e08601826152cd565b506040015161010084015260209390930192610120909201916001016152f6565b634e487b7160e01b5f52604160045260245ffd5b60405160e0810167ffffffffffffffff811182821017156153ce576153ce615397565b60405290565b60405160c0810167ffffffffffffffff811182821017156153ce576153ce615397565b5f60e0828403128015615408575f5ffd5b506154116153ab565b823581526020808401359082015261542b6040840161506a565b604082015261543c6060840161506a565b6060820152608083013561544f81615296565b608082015261546060a08401615090565b60a082015260c08301356154738161509e565b60c08201529392505050565b5f6020828403121561548f575f5ffd5b813561445d81615296565b5f5f604083850312156154ab575f5ffd5b8235915060208301356154bd8161509e565b809150509250929050565b602080825282518282018190525f918401906040840190835b818110156152725783518352602093840193909201916001016154e1565b5f5f60408385031215615510575f5ffd5b823567ffffffffffffffff811115615526575f5ffd5b61553285828601615080565b95602094909401359450505050565b5f5f60408385031215615552575f5ffd5b61555b8361506a565b915060208301356154bd81615296565b5f82601f83011261557a575f5ffd5b813567ffffffffffffffff81111561559457615594615397565b604051601f8201601f19908116603f0116810167ffffffffffffffff811182821017156155c3576155c3615397565b6040528181528382016020018510156155da575f5ffd5b816020850160208301375f918101602001919091529392505050565b5f60208284031215615606575f5ffd5b813567ffffffffffffffff81111561561c575f5ffd5b820160c0818503121561562d575f5ffd5b6156356153d4565b813567ffffffffffffffff81111561564b575f5ffd5b6156578682850161556b565b825250602082013567ffffffffffffffff811115615673575f5ffd5b61567f8682850161556b565b602083015250604082013567ffffffffffffffff81111561569e575f5ffd5b6156aa8682850161556b565b604083015250606082013567ffffffffffffffff8111156156c9575f5ffd5b6156d58682850161556b565b606083015250608082013567ffffffffffffffff8111156156f4575f5ffd5b6157008682850161556b565b60808301525060a082013567ffffffffffffffff81111561571f575f5ffd5b61572b8682850161556b565b60a083015250949350505050565b5f8151808452602084019350602083015f5b828110156157a55781518051875261ffff602082015116602088015260408101516157796040890182614faf565b506060810151905061578e60608801826152cd565b50608095909501946020919091019060010161574b565b5093949350505050565b602081526001600160a01b0382511660208201525f6020830151606060408401526157dd6080840182615739565b90506040840151601f198483030160608501526157fa8282615739565b95945050505050565b5f60208284031215615813575f5ffd5b5051919050565b5f6020828403121561582a575f5ffd5b815161445d816151f9565b634e487b7160e01b5f52601160045260245ffd5b5f8261586357634e487b7160e01b5f52601260045260245ffd5b500490565b808201808211156108c4576108c4615835565b600a8110614fbf57614fbf614f9b565b64ffffffffff85168152602081018490526001600160a01b0383166040820152608081016157fa606083018461587b565b80820281158282048414176108c4576108c4615835565b5f5f8335601e198436030181126158e8575f5ffd5b83018035915067ffffffffffffffff821115615902575f5ffd5b602001915036819003821315615916575f5ffd5b9250929050565b81835281816020850137505f828201602090810191909152601f909101601f19169091010190565b604081525f61595860408301868861591d565b828103602084015261596b81858761591d565b979650505050505050565b64ffffffffff818116838216029081169081811461443957614439615835565b5f60c08284031280156159a7575f5ffd5b506159b06153d4565b82516159bb8161509e565b815260208301516159cb8161509e565b602082015260408301516159de8161509e565b604082015260608301516159f18161509e565b60608201526080830151615a048161509e565b608082015260a0830151615a178161509e565b60a08201529392505050565b818103818111156108c4576108c4615835565b5f60018201615a4757615a47615835565b5060010190565b5f81615a5c57615a5c615835565b505f190190565b64ffffffffff81811683821601908111156108c4576108c4615835565b634e487b7160e01b5f52603260045260245ffd5b81358155602082013560018201556040820135600282015560608201356003820155600481016080830135615ac881615296565b815490151560ff1660ff19919091161790555050565b5f82518060208501845e5f920191825250919050565b5f81518084528060208401602086015e5f602082860101526020601f19601f83011685010191505092915050565b60a081525f615b3460a0830188615af4565b8281036020840152615b468188615af4565b90508281036040840152615b5a8187615af4565b90508281036060840152615b6e8186615af4565b90508281036080840152615b828185615af4565b98975050505050505050565b60ff82811682821603908111156108c4576108c4615835565b6001815b6001841115615be257808504811115615bc657615bc6615835565b6001841615615bd457908102905b60019390931c928002615bab565b935093915050565b5f82615bf8575060016108c4565b81615c0457505f6108c4565b8160018114615c1a5760028114615c2457615c40565b60019150506108c4565b60ff841115615c3557615c35615835565b50506001821b6108c4565b5060208310610133831016604e8410600b8410161715615c63575081810a6108c4565b615c6f5f198484615ba7565b805f1904821115615c8257615c82615835565b029392505050565b5f61445d60ff841683615bea565b65ffffffffffff81811683821601908111156108c4576108c4615835565b634e487b7160e01b5f52603160045260245ffd5b65ffffffffffff82811682821603908111156108c4576108c461583556feca6b824caf1a48ea2ad039dbb063460fa30e9c3cc255eeb52240d638ec6de65ea2646970667358221220238b062b69fdfecd3f0232fa6e5176a36e6565740f52d2c9ce94654e2ec6262664736f6c634300081c0033",
  "linkReferences": {
    "contracts/ClockTowerTimeLibrary.sol": {
      "ClockTowerTimeLibrary": [
        {
          "length": 20,
          "start": 333
        },
        {
          "length": 20,
          "start": 4561
        },
        {
          "length": 20,
          "start": 4688
        },
        {
          "length": 20,
          "start": 9206
        },
        {
          "length": 20,
          "start": 9452
        },
        {
          "length": 20,
          "start": 9631
        }
      ]
    }
  },
  "deployedLinkReferences": {
    "contracts/ClockTowerTimeLibrary.sol": {
      "ClockTowerTimeLibrary": [
        {
          "length": 20,
          "start": 3528
        },
        {
          "length": 20,
          "start": 3655
        },
        {
          "length": 20,
          "start": 8173
        },
        {
          "length": 20,
          "start": 8419
        },
        {
          "length": 20,
          "start": 8598
        }
      ]
    }
  }
}