{
  "_format": "hh-sol-artifact-1",
  "contractName": "ClockTowerSubscribe",
  "sourceName": "contracts/ClockTowerSubscribe.sol",
  "abi": [
    {
      "inputs": [],
      "stateMutability": "payable",
      "type": "constructor"
    },
    {
      "anonymous": false,
      "inputs": [
        {
          "indexed": false,
          "internalType": "uint40",
          "name": "timestamp",
          "type": "uint40"
        },
        {
          "indexed": false,
          "internalType": "uint40",
          "name": "checkedDay",
          "type": "uint40"
        },
        {
          "indexed": true,
          "internalType": "address",
          "name": "caller",
          "type": "address"
        },
        {
          "indexed": false,
          "internalType": "bool",
          "name": "isFinished",
          "type": "bool"
        }
      ],
      "name": "CallerLog",
      "type": "event"
    },
    {
      "anonymous": false,
      "inputs": [
        {
          "indexed": true,
          "internalType": "bytes32",
          "name": "id",
          "type": "bytes32"
        },
        {
          "indexed": true,
          "internalType": "address",
          "name": "provider",
          "type": "address"
        },
        {
          "indexed": false,
          "internalType": "uint40",
          "name": "timestamp",
          "type": "uint40"
        },
        {
          "indexed": false,
          "internalType": "uint256",
          "name": "amount",
          "type": "uint256"
        },
        {
          "indexed": true,
          "internalType": "enum ClockTowerSubscribe.ProvEvent",
          "name": "provEvent",
          "type": "uint8"
        }
      ],
      "name": "ProviderLog",
      "type": "event"
    },
    {
      "anonymous": false,
      "inputs": [
        {
          "indexed": true,
          "internalType": "bytes32",
          "name": "id",
          "type": "bytes32"
        },
        {
          "indexed": true,
          "internalType": "address",
          "name": "subscriber",
          "type": "address"
        },
        {
          "indexed": false,
          "internalType": "uint40",
          "name": "timestamp",
          "type": "uint40"
        },
        {
          "indexed": false,
          "internalType": "uint256",
          "name": "amount",
          "type": "uint256"
        },
        {
          "indexed": true,
          "internalType": "enum ClockTowerSubscribe.SubEvent",
          "name": "subEvent",
          "type": "uint8"
        }
      ],
      "name": "SubscriberLog",
      "type": "event"
    },
    {
      "stateMutability": "payable",
      "type": "fallback"
    },
    {
      "inputs": [
        {
          "internalType": "address",
          "name": "erc20Contract",
          "type": "address"
        },
        {
          "internalType": "uint256",
          "name": "minimum",
          "type": "uint256"
        }
      ],
      "name": "addERC20Contract",
      "outputs": [],
      "stateMutability": "nonpayable",
      "type": "function"
    },
    {
      "inputs": [],
      "name": "admin",
      "outputs": [
        {
          "internalType": "address payable",
          "name": "",
          "type": "address"
        }
      ],
      "stateMutability": "view",
      "type": "function"
    },
    {
      "inputs": [],
      "name": "callerFee",
      "outputs": [
        {
          "internalType": "uint256",
          "name": "",
          "type": "uint256"
        }
      ],
      "stateMutability": "view",
      "type": "function"
    },
    {
      "inputs": [
        {
          "components": [
            {
              "internalType": "bytes32",
              "name": "id",
              "type": "bytes32"
            },
            {
              "internalType": "uint256",
              "name": "amount",
              "type": "uint256"
            },
            {
              "internalType": "address",
              "name": "provider",
              "type": "address"
            },
            {
              "internalType": "address",
              "name": "token",
              "type": "address"
            },
            {
              "internalType": "bool",
              "name": "exists",
              "type": "bool"
            },
            {
              "internalType": "bool",
              "name": "cancelled",
              "type": "bool"
            },
            {
              "internalType": "enum ClockTowerSubscribe.Frequency",
              "name": "frequency",
              "type": "uint8"
            },
            {
              "internalType": "uint16",
              "name": "dueDay",
              "type": "uint16"
            },
            {
              "internalType": "string",
              "name": "description",
              "type": "string"
            }
          ],
          "internalType": "struct ClockTowerSubscribe.Subscription",
          "name": "subscription",
          "type": "tuple"
        }
      ],
      "name": "cancelSubscription",
      "outputs": [],
      "stateMutability": "nonpayable",
      "type": "function"
    },
    {
      "inputs": [
        {
          "internalType": "address payable",
          "name": "newAddress",
          "type": "address"
        }
      ],
      "name": "changeAdmin",
      "outputs": [],
      "stateMutability": "nonpayable",
      "type": "function"
    },
    {
      "inputs": [
        {
          "internalType": "uint256",
          "name": "_fee",
          "type": "uint256"
        }
      ],
      "name": "changeCallerFee",
      "outputs": [],
      "stateMutability": "nonpayable",
      "type": "function"
    },
    {
      "inputs": [
        {
          "internalType": "uint256",
          "name": "_maxGas",
          "type": "uint256"
        }
      ],
      "name": "changeMaxGasPrice",
      "outputs": [],
      "stateMutability": "nonpayable",
      "type": "function"
    },
    {
      "inputs": [
        {
          "internalType": "uint256",
          "name": "_maxRemits",
          "type": "uint256"
        }
      ],
      "name": "changeMaxRemits",
      "outputs": [],
      "stateMutability": "nonpayable",
      "type": "function"
    },
    {
      "inputs": [
        {
          "internalType": "uint256",
          "name": "_fixed_fee",
          "type": "uint256"
        }
      ],
      "name": "changeSystemFee",
      "outputs": [],
      "stateMutability": "nonpayable",
      "type": "function"
    },
    {
      "inputs": [],
      "name": "collectFees",
      "outputs": [],
      "stateMutability": "nonpayable",
      "type": "function"
    },
    {
      "inputs": [
        {
          "internalType": "uint256",
          "name": "amount",
          "type": "uint256"
        },
        {
          "internalType": "address",
          "name": "token",
          "type": "address"
        },
        {
          "internalType": "string",
          "name": "description",
          "type": "string"
        },
        {
          "internalType": "enum ClockTowerSubscribe.Frequency",
          "name": "frequency",
          "type": "uint8"
        },
        {
          "internalType": "uint16",
          "name": "dueDay",
          "type": "uint16"
        }
      ],
      "name": "createSubscription",
      "outputs": [],
      "stateMutability": "payable",
      "type": "function"
    },
    {
      "inputs": [
        {
          "internalType": "bytes32",
          "name": "",
          "type": "bytes32"
        },
        {
          "internalType": "address",
          "name": "",
          "type": "address"
        }
      ],
      "name": "feeBalance",
      "outputs": [
        {
          "internalType": "uint256",
          "name": "",
          "type": "uint256"
        }
      ],
      "stateMutability": "view",
      "type": "function"
    },
    {
      "inputs": [],
      "name": "feeEstimate",
      "outputs": [
        {
          "components": [
            {
              "internalType": "uint256",
              "name": "fee",
              "type": "uint256"
            },
            {
              "internalType": "address",
              "name": "token",
              "type": "address"
            }
          ],
          "internalType": "struct ClockTowerSubscribe.FeeEstimate[]",
          "name": "",
          "type": "tuple[]"
        }
      ],
      "stateMutability": "view",
      "type": "function"
    },
    {
      "inputs": [
        {
          "internalType": "bool",
          "name": "bySubscriber",
          "type": "bool"
        }
      ],
      "name": "getAccountSubscriptions",
      "outputs": [
        {
          "components": [
            {
              "components": [
                {
                  "internalType": "bytes32",
                  "name": "id",
                  "type": "bytes32"
                },
                {
                  "internalType": "uint256",
                  "name": "amount",
                  "type": "uint256"
                },
                {
                  "internalType": "address",
                  "name": "provider",
                  "type": "address"
                },
                {
                  "internalType": "address",
                  "name": "token",
                  "type": "address"
                },
                {
                  "internalType": "bool",
                  "name": "exists",
                  "type": "bool"
                },
                {
                  "internalType": "bool",
                  "name": "cancelled",
                  "type": "bool"
                },
                {
                  "internalType": "enum ClockTowerSubscribe.Frequency",
                  "name": "frequency",
                  "type": "uint8"
                },
                {
                  "internalType": "uint16",
                  "name": "dueDay",
                  "type": "uint16"
                },
                {
                  "internalType": "string",
                  "name": "description",
                  "type": "string"
                }
              ],
              "internalType": "struct ClockTowerSubscribe.Subscription",
              "name": "subscription",
              "type": "tuple"
            },
            {
              "internalType": "enum ClockTowerSubscribe.Status",
              "name": "status",
              "type": "uint8"
            },
            {
              "internalType": "uint256",
              "name": "totalSubscribers",
              "type": "uint256"
            }
          ],
          "internalType": "struct ClockTowerSubscribe.SubView[]",
          "name": "",
          "type": "tuple[]"
        }
      ],
      "stateMutability": "view",
      "type": "function"
    },
    {
      "inputs": [],
      "name": "getAllAccounts",
      "outputs": [
        {
          "components": [
            {
              "internalType": "address",
              "name": "accountAddress",
              "type": "address"
            },
            {
              "internalType": "bool",
              "name": "exists",
              "type": "bool"
            },
            {
              "internalType": "uint40[]",
              "name": "timeTriggers",
              "type": "uint40[]"
            },
            {
              "components": [
                {
                  "internalType": "bytes32",
                  "name": "id",
                  "type": "bytes32"
                },
                {
                  "internalType": "uint16",
                  "name": "dueDay",
                  "type": "uint16"
                },
                {
                  "internalType": "enum ClockTowerSubscribe.Frequency",
                  "name": "frequency",
                  "type": "uint8"
                },
                {
                  "internalType": "enum ClockTowerSubscribe.Status",
                  "name": "status",
                  "type": "uint8"
                }
              ],
              "internalType": "struct ClockTowerSubscribe.SubIndex[]",
              "name": "subscriptions",
              "type": "tuple[]"
            },
            {
              "components": [
                {
                  "internalType": "bytes32",
                  "name": "id",
                  "type": "bytes32"
                },
                {
                  "internalType": "uint16",
                  "name": "dueDay",
                  "type": "uint16"
                },
                {
                  "internalType": "enum ClockTowerSubscribe.Frequency",
                  "name": "frequency",
                  "type": "uint8"
                },
                {
                  "internalType": "enum ClockTowerSubscribe.Status",
                  "name": "status",
                  "type": "uint8"
                }
              ],
              "internalType": "struct ClockTowerSubscribe.SubIndex[]",
              "name": "provSubs",
              "type": "tuple[]"
            }
          ],
          "internalType": "struct ClockTowerSubscribe.Account[]",
          "name": "",
          "type": "tuple[]"
        }
      ],
      "stateMutability": "view",
      "type": "function"
    },
    {
      "inputs": [
        {
          "internalType": "bytes32",
          "name": "id",
          "type": "bytes32"
        },
        {
          "internalType": "enum ClockTowerSubscribe.Frequency",
          "name": "frequency",
          "type": "uint8"
        },
        {
          "internalType": "uint16",
          "name": "dueDay",
          "type": "uint16"
        }
      ],
      "name": "getSubByIndex",
      "outputs": [
        {
          "components": [
            {
              "internalType": "bytes32",
              "name": "id",
              "type": "bytes32"
            },
            {
              "internalType": "uint256",
              "name": "amount",
              "type": "uint256"
            },
            {
              "internalType": "address",
              "name": "provider",
              "type": "address"
            },
            {
              "internalType": "address",
              "name": "token",
              "type": "address"
            },
            {
              "internalType": "bool",
              "name": "exists",
              "type": "bool"
            },
            {
              "internalType": "bool",
              "name": "cancelled",
              "type": "bool"
            },
            {
              "internalType": "enum ClockTowerSubscribe.Frequency",
              "name": "frequency",
              "type": "uint8"
            },
            {
              "internalType": "uint16",
              "name": "dueDay",
              "type": "uint16"
            },
            {
              "internalType": "string",
              "name": "description",
              "type": "string"
            }
          ],
          "internalType": "struct ClockTowerSubscribe.Subscription",
          "name": "subscription",
          "type": "tuple"
        }
      ],
      "stateMutability": "view",
      "type": "function"
    },
    {
      "inputs": [
        {
          "internalType": "bytes32",
          "name": "id",
          "type": "bytes32"
        }
      ],
      "name": "getSubscribers",
      "outputs": [
        {
          "internalType": "address[]",
          "name": "",
          "type": "address[]"
        }
      ],
      "stateMutability": "view",
      "type": "function"
    },
    {
      "inputs": [
        {
          "internalType": "bytes32",
          "name": "id",
          "type": "bytes32"
        }
      ],
      "name": "getSubscribersById",
      "outputs": [
        {
          "components": [
            {
              "internalType": "address",
              "name": "subscriber",
              "type": "address"
            },
            {
              "internalType": "uint256",
              "name": "feeBalance",
              "type": "uint256"
            }
          ],
          "internalType": "struct ClockTowerSubscribe.SubscriberView[]",
          "name": "",
          "type": "tuple[]"
        }
      ],
      "stateMutability": "view",
      "type": "function"
    },
    {
      "inputs": [
        {
          "internalType": "bool",
          "name": "bySubscriber",
          "type": "bool"
        },
        {
          "internalType": "address",
          "name": "account",
          "type": "address"
        }
      ],
      "name": "getSubscriptionsByAccount",
      "outputs": [
        {
          "components": [
            {
              "components": [
                {
                  "internalType": "bytes32",
                  "name": "id",
                  "type": "bytes32"
                },
                {
                  "internalType": "uint256",
                  "name": "amount",
                  "type": "uint256"
                },
                {
                  "internalType": "address",
                  "name": "provider",
                  "type": "address"
                },
                {
                  "internalType": "address",
                  "name": "token",
                  "type": "address"
                },
                {
                  "internalType": "bool",
                  "name": "exists",
                  "type": "bool"
                },
                {
                  "internalType": "bool",
                  "name": "cancelled",
                  "type": "bool"
                },
                {
                  "internalType": "enum ClockTowerSubscribe.Frequency",
                  "name": "frequency",
                  "type": "uint8"
                },
                {
                  "internalType": "uint16",
                  "name": "dueDay",
                  "type": "uint16"
                },
                {
                  "internalType": "string",
                  "name": "description",
                  "type": "string"
                }
              ],
              "internalType": "struct ClockTowerSubscribe.Subscription",
              "name": "subscription",
              "type": "tuple"
            },
            {
              "internalType": "enum ClockTowerSubscribe.Status",
              "name": "status",
              "type": "uint8"
            },
            {
              "internalType": "uint256",
              "name": "totalSubscribers",
              "type": "uint256"
            }
          ],
          "internalType": "struct ClockTowerSubscribe.SubView[]",
          "name": "",
          "type": "tuple[]"
        }
      ],
      "stateMutability": "view",
      "type": "function"
    },
    {
      "inputs": [],
      "name": "lastCheckedDay",
      "outputs": [
        {
          "internalType": "uint40",
          "name": "",
          "type": "uint40"
        }
      ],
      "stateMutability": "view",
      "type": "function"
    },
    {
      "inputs": [],
      "name": "maxGasPrice",
      "outputs": [
        {
          "internalType": "uint256",
          "name": "",
          "type": "uint256"
        }
      ],
      "stateMutability": "view",
      "type": "function"
    },
    {
      "inputs": [],
      "name": "maxRemits",
      "outputs": [
        {
          "internalType": "uint256",
          "name": "",
          "type": "uint256"
        }
      ],
      "stateMutability": "view",
      "type": "function"
    },
    {
      "inputs": [],
      "name": "remit",
      "outputs": [],
      "stateMutability": "payable",
      "type": "function"
    },
    {
      "inputs": [
        {
          "internalType": "address",
          "name": "erc20Contract",
          "type": "address"
        }
      ],
      "name": "removeERC20Contract",
      "outputs": [],
      "stateMutability": "nonpayable",
      "type": "function"
    },
    {
      "inputs": [
        {
          "internalType": "bool",
          "name": "status",
          "type": "bool"
        }
      ],
      "name": "setExternalCallers",
      "outputs": [],
      "stateMutability": "nonpayable",
      "type": "function"
    },
    {
      "inputs": [
        {
          "components": [
            {
              "internalType": "bytes32",
              "name": "id",
              "type": "bytes32"
            },
            {
              "internalType": "uint256",
              "name": "amount",
              "type": "uint256"
            },
            {
              "internalType": "address",
              "name": "provider",
              "type": "address"
            },
            {
              "internalType": "address",
              "name": "token",
              "type": "address"
            },
            {
              "internalType": "bool",
              "name": "exists",
              "type": "bool"
            },
            {
              "internalType": "bool",
              "name": "cancelled",
              "type": "bool"
            },
            {
              "internalType": "enum ClockTowerSubscribe.Frequency",
              "name": "frequency",
              "type": "uint8"
            },
            {
              "internalType": "uint16",
              "name": "dueDay",
              "type": "uint16"
            },
            {
              "internalType": "string",
              "name": "description",
              "type": "string"
            }
          ],
          "internalType": "struct ClockTowerSubscribe.Subscription",
          "name": "subscription",
          "type": "tuple"
        }
      ],
      "name": "subscribe",
      "outputs": [],
      "stateMutability": "payable",
      "type": "function"
    },
    {
      "inputs": [],
      "name": "systemFee",
      "outputs": [
        {
          "internalType": "uint256",
          "name": "",
          "type": "uint256"
        }
      ],
      "stateMutability": "view",
      "type": "function"
    },
    {
      "inputs": [
        {
          "internalType": "bool",
          "name": "status",
          "type": "bool"
        }
      ],
      "name": "systemFeeActivate",
      "outputs": [],
      "stateMutability": "nonpayable",
      "type": "function"
    },
    {
      "inputs": [
        {
          "internalType": "uint256",
          "name": "unix",
          "type": "uint256"
        }
      ],
      "name": "unixToTime",
      "outputs": [
        {
          "components": [
            {
              "internalType": "uint16",
              "name": "day",
              "type": "uint16"
            },
            {
              "internalType": "uint16",
              "name": "weekDay",
              "type": "uint16"
            },
            {
              "internalType": "uint16",
              "name": "quarterDay",
              "type": "uint16"
            },
            {
              "internalType": "uint16",
              "name": "yearDay",
              "type": "uint16"
            }
          ],
          "internalType": "struct ClockTowerSubscribe.Time",
          "name": "time",
          "type": "tuple"
        }
      ],
      "stateMutability": "pure",
      "type": "function"
    },
    {
      "inputs": [
        {
          "components": [
            {
              "internalType": "bytes32",
              "name": "id",
              "type": "bytes32"
            },
            {
              "internalType": "uint256",
              "name": "amount",
              "type": "uint256"
            },
            {
              "internalType": "address",
              "name": "provider",
              "type": "address"
            },
            {
              "internalType": "address",
              "name": "token",
              "type": "address"
            },
            {
              "internalType": "bool",
              "name": "exists",
              "type": "bool"
            },
            {
              "internalType": "bool",
              "name": "cancelled",
              "type": "bool"
            },
            {
              "internalType": "enum ClockTowerSubscribe.Frequency",
              "name": "frequency",
              "type": "uint8"
            },
            {
              "internalType": "uint16",
              "name": "dueDay",
              "type": "uint16"
            },
            {
              "internalType": "string",
              "name": "description",
              "type": "string"
            }
          ],
          "internalType": "struct ClockTowerSubscribe.Subscription",
          "name": "subscription",
          "type": "tuple"
        }
      ],
      "name": "unsubscribe",
      "outputs": [],
      "stateMutability": "payable",
      "type": "function"
    },
    {
      "inputs": [
        {
          "components": [
            {
              "internalType": "bytes32",
              "name": "id",
              "type": "bytes32"
            },
            {
              "internalType": "uint256",
              "name": "amount",
              "type": "uint256"
            },
            {
              "internalType": "address",
              "name": "provider",
              "type": "address"
            },
            {
              "internalType": "address",
              "name": "token",
              "type": "address"
            },
            {
              "internalType": "bool",
              "name": "exists",
              "type": "bool"
            },
            {
              "internalType": "bool",
              "name": "cancelled",
              "type": "bool"
            },
            {
              "internalType": "enum ClockTowerSubscribe.Frequency",
              "name": "frequency",
              "type": "uint8"
            },
            {
              "internalType": "uint16",
              "name": "dueDay",
              "type": "uint16"
            },
            {
              "internalType": "string",
              "name": "description",
              "type": "string"
            }
          ],
          "internalType": "struct ClockTowerSubscribe.Subscription",
          "name": "subscription",
          "type": "tuple"
        },
        {
          "internalType": "address",
          "name": "subscriber",
          "type": "address"
        }
      ],
      "name": "unsubscribeByProvider",
      "outputs": [],
      "stateMutability": "nonpayable",
      "type": "function"
    },
    {
      "stateMutability": "payable",
      "type": "receive"
    }
  ],
  "bytecode": "0x60806040526127d8600055662386f26fc100006001908155640ba43b740060025560056003556007805460ff60d81b191690556200003d426200009e565b620000499190620000b5565b60078054610100600160d01b03191661010064ffffffffff9390931692909202600160301b600160d01b0319169190911779f39fd6e51aad88f6f4ce6ab8827279cfffb922660000000000001790556200011d565b6000620000af6201518083620000ea565b92915050565b600064ffffffffff83811690831681811015620000e257634e487b7160e01b600052601160045260246000fd5b039392505050565b600064ffffffffff808416806200011157634e487b7160e01b600052601260045260246000fd5b92169190910492915050565b615e15806200012d6000396000f3fe6080604052600436106101c45760003560e01c80637bbf5a6e116100f6578063bfa0caa71161008f578063ebec6eaa11610061578063ebec6eaa1461056a578063f25e13c9146105a2578063f851a440146105c2578063fedce9401461060457005b8063bfa0caa7146104f0578063c87965721461051d578063cab1c96514610532578063e63d35be1461054857005b8063a2349caf116100c8578063a2349caf1461047d578063a429131a1461049d578063a5af2abd146104b0578063b4761de9146104d057005b80637bbf5a6e146103f05780638ef0ef1c1461041d5780638f2839701461043d5780639889552e1461045d57005b80632d23f7e7116101685780633de39c111161013a5780633de39c111461034757806353a6d6e21461035d5780636605ac0d146103bb5780637507ba39146103e857005b80632d23f7e7146102d15780633084f79e146102fe57806334d441d0146103115780633816377e1461032757005b8063094f9977116101a1578063094f99771461024d5780630bec99e81461026d5780631f17ee551461028d57806327ea9773146102b157005b806304c266bc146101cd578063053149fa1461020b57806308e93d0a1461022b57005b366101cb57005b005b3480156101d957600080fd5b506007546101f090610100900464ffffffffff1681565b60405164ffffffffff90911681526020015b60405180910390f35b34801561021757600080fd5b506101cb6102263660046151c2565b610617565b34801561023757600080fd5b506102406106aa565b6040516102029190615295565b34801561025957600080fd5b506101cb610268366004615388565b610a73565b34801561027957600080fd5b506101cb6102883660046153c4565b611393565b34801561029957600080fd5b506102a360015481565b604051908152602001610202565b3480156102bd57600080fd5b506101cb6102cc3660046153c4565b6113a0565b3480156102dd57600080fd5b506102f16102ec3660046153fe565b6113ad565b6040516102029190615546565b6101cb61030c366004615559565b611634565b34801561031d57600080fd5b506102a360005481565b34801561033357600080fd5b506101cb6103423660046153c4565b611b80565b34801561035357600080fd5b506102a360025481565b34801561036957600080fd5b5061037d6103783660046153c4565b611b8d565b6040516102029190815161ffff9081168252602080840151821690830152604080840151821690830152606092830151169181019190915260800190565b3480156103c757600080fd5b506103db6103d6366004615621565b611def565b604051610202919061563e565b6101cb6121f0565b3480156103fc57600080fd5b5061041061040b3660046153c4565b612f57565b60405161020291906156c8565b34801561042957600080fd5b506101cb6104383660046153c4565b613150565b34801561044957600080fd5b506101cb6104583660046151c2565b61315d565b34801561046957600080fd5b506101cb610478366004615621565b6131d2565b34801561048957600080fd5b506101cb6104983660046158b2565b6131f8565b6101cb6104ab366004615388565b61360e565b3480156104bc57600080fd5b506103db6104cb366004615904565b613b36565b3480156104dc57600080fd5b506101cb6104eb366004615621565b613f08565b3480156104fc57600080fd5b5061051061050b3660046153c4565b613f2e565b6040516102029190615932565b34801561052957600080fd5b506101cb613f9a565b34801561053e57600080fd5b506102a360035481565b34801561055457600080fd5b5061055d613ffd565b604051610202919061597f565b34801561057657600080fd5b506102a36105853660046159ca565b600a60209081526000928352604080842090915290825290205481565b3480156105ae57600080fd5b506101cb6105bd3660046159ef565b614503565b3480156105ce57600080fd5b506007546105ec90660100000000000090046001600160a01b031681565b6040516001600160a01b039091168152602001610202565b6101cb610612366004615a1b565b6145c2565b61061f61498b565b6001600160a01b03811661063257600080fd5b61063b816149d4565b6106705760405162461bcd60e51b81526020600482015260016024820152601960f91b60448201526064015b60405180910390fd5b6001600160a01b0316600090815260066020526040812080546001600160a01b03191681556001810191909155600201805460ff19169055565b60606106b461498b565b6000600980548060200260200160405190810160405280929190818152602001828054801561070c57602002820191906000526020600020905b81546001600160a01b031681526001909101906020018083116106ee575b505050505090506000815167ffffffffffffffff81111561072f5761072f615720565b60405190808252806020026020018201604052801561078a57816020015b6040805160a081018252600080825260208201526060918101829052818101829052608081019190915281526020019060019003908161074d5790505b50905060005b8251811015610a6c57600860008483815181106107af576107af615a50565b6020908102919091018101516001600160a01b039081168352828201939093526040918201600020825160a08101845281549485168152600160a01b90940460ff161515848301526001810180548451818502810185018652818152929486019383018282801561086d57602002820191906000526020600020906000905b82829054906101000a900464ffffffffff1664ffffffffff168152602001906005019060208260040104928301926001038202915080841161082e5790505b5050505050815260200160028201805480602002602001604051908101604052809291908181526020016000905b82821015610951576000848152602090819020604080516080810182526002860290920180548352600181015461ffff81169484019490945291929083019062010000900460ff1660038111156108f4576108f46151e6565b6003811115610905576109056151e6565b81526020016001820160039054906101000a900460ff16600281111561092d5761092d6151e6565b600281111561093e5761093e6151e6565b815250508152602001906001019061089b565b50505050815260200160038201805480602002602001604051908101604052809291908181526020016000905b82821015610a34576000848152602090819020604080516080810182526002860290920180548352600181015461ffff81169484019490945291929083019062010000900460ff1660038111156109d7576109d76151e6565b60038111156109e8576109e86151e6565b81526020016001820160039054906101000a900460ff166002811115610a1057610a106151e6565b6002811115610a2157610a216151e6565b815250508152602001906001019061097e565b5050505081525050828281518110610a4e57610a4e615a50565b60200260200101819052508080610a6490615a7c565b915050610790565b5091505090565b610a7b614a06565b610aa88135610a91610100840160e08501615a97565b610aa160e0850160c08601615ab2565b6000614a37565b610ad85760405162461bcd60e51b81526020600482015260016024820152603760f81b6044820152606401610667565b610ae860608201604083016151c2565b6001600160a01b0316336001600160a01b031614610b2d5760405162461bcd60e51b8152602060048201526002602482015261323360f01b6044820152606401610667565b33600090815260086020908152604080832060030180548251818502810185019093528083529192909190849084015b82821015610c13576000848152602090819020604080516080810182526002860290920180548352600181015461ffff81169484019490945291929083019062010000900460ff166003811115610bb657610bb66151e6565b6003811115610bc757610bc76151e6565b81526020016001820160039054906101000a900460ff166002811115610bef57610bef6151e6565b6002811115610c0057610c006151e6565b8152505081526020019060010190610b5d565b5050336000908152600860205260408120600301549394509150505b81811015610cd2578360000135838281518110610c4e57610c4e615a50565b6020026020010151600001511415610cc05733600090815260086020526040902060030180546001919083908110610c8857610c88615a50565b906000526020600020906002020160010160036101000a81548160ff02191690836002811115610cba57610cba6151e6565b02179055505b80610cca81615a7c565b915050610c2f565b5082356000908152600c6020908152604080832080548251818502810185019093528083529192909190830182828015610d3557602002820191906000526020600020905b81546001600160a01b03168152600190910190602001808311610d17575b5050505050905060005b815181101561107357600060086000848481518110610d6057610d60615a50565b60200260200101516001600160a01b03166001600160a01b031681526020019081526020016000206002018054905067ffffffffffffffff811115610da757610da7615720565b604051908082528060200260200182016040528015610e0257816020015b610def60408051608081018252600080825260208201819052909182019081526020016000905290565b815260200190600190039081610dc55790505b50905060086000848481518110610e1b57610e1b615a50565b60200260200101516001600160a01b03166001600160a01b03168152602001908152602001600020600201805480602002602001604051908101604052809291908181526020016000905b82821015610f1c576000848152602090819020604080516080810182526002860290920180548352600181015461ffff81169484019490945291929083019062010000900460ff166003811115610ebf57610ebf6151e6565b6003811115610ed057610ed06151e6565b81526020016001820160039054906101000a900460ff166002811115610ef857610ef86151e6565b6002811115610f0957610f096151e6565b8152505081526020019060010190610e66565b50505050905060005b60086000858581518110610f3b57610f3b615a50565b60200260200101516001600160a01b03166001600160a01b0316815260200190815260200160002060020180549050811015611038578660000135828281518110610f8857610f88615a50565b602002602001015160000151141561102657600160086000868681518110610fb257610fb2615a50565b60200260200101516001600160a01b03166001600160a01b031681526020019081526020016000206002018281548110610fee57610fee615a50565b906000526020600020906002020160010160036101000a81548160ff02191690836002811115611020576110206151e6565b02179055505b8061103081615a7c565b915050610f25565b50611060866000013584848151811061105357611053615a50565b6020026020010151614ac2565b508061106b81615a7c565b915050610d3f565b506000600b8161108960e0880160c08901615ab2565b600381111561109a5761109a6151e6565b815260200190815260200160002060008660e00160208101906110bd9190615a97565b61ffff1661ffff168152602001908152602001600020805480602002602001604051908101604052809291908181526020016000905b8282101561125d5760008481526020908190206040805161012081018252600586029092018054835260018101549383019390935260028301546001600160a01b0390811691830191909152600380840154918216606084015260ff600160a01b8304811615156080850152600160a81b83048116151560a085015292939260c0850192600160b01b9004169081111561118f5761118f6151e6565b60038111156111a0576111a06151e6565b81526003820154600160b81b900461ffff1660208201526004820180546040909201916111cc90615acd565b80601f01602080910402602001604051908101604052809291908181526020018280546111f890615acd565b80156112455780601f1061121a57610100808354040283529160200191611245565b820191906000526020600020905b81548152906001019060200180831161122857829003601f168201915b505050505081525050815260200190600101906110f3565b50505050905060005b815181101561134457856000013582828151811061128657611286615a50565b6020026020010151600001511415611332576001600b60006112ae60e08a0160c08b01615ab2565b60038111156112bf576112bf6151e6565b815260200190815260200160002060008860e00160208101906112e29190615a97565b61ffff1661ffff168152602001908152602001600020828154811061130957611309615a50565b906000526020600020906005020160030160156101000a81548160ff0219169083151502179055505b8061133c81615a7c565b915050611266565b5060016040805164ffffffffff421681526000602082015233918835917ffcb91fd98787d64bdba700bb305716e8b6cebeef9927c71b19ed9b0ab1b892b0910160405180910390a45050505050565b61139b61498b565b600155565b6113a861498b565b600355565b6113fc6040805161012081018252600080825260208201819052918101829052606081018290526080810182905260a081018290529060c0820190815260006020820152606060409091015290565b6000600b6000856003811115611414576114146151e6565b815260200190815260200160002060008461ffff1661ffff168152602001908152602001600020805480602002602001604051908101604052809291908181526020016000905b828210156115c55760008481526020908190206040805161012081018252600586029092018054835260018101549383019390935260028301546001600160a01b0390811691830191909152600380840154918216606084015260ff600160a01b8304811615156080850152600160a81b83048116151560a085015292939260c0850192600160b01b900416908111156114f7576114f76151e6565b6003811115611508576115086151e6565b81526003820154600160b81b900461ffff16602082015260048201805460409092019161153490615acd565b80601f016020809104026020016040519081016040528092919081815260200182805461156090615acd565b80156115ad5780601f10611582576101008083540402835291602001916115ad565b820191906000526020600020905b81548152906001019060200180831161159057829003601f168201915b5050505050815250508152602001906001019061145b565b50505050905060005b815181101561162b57858282815181106115ea576115ea615a50565b60200260200101516000015114156116195781818151811061160e5761160e615a50565b602002602001015192505b8061162381615a7c565b9150506115ce565b50509392505050565b61163c614a06565b6001600160a01b0385166116765760405162461bcd60e51b81526020600482015260016024820152600760fb1b6044820152606401610667565b600754600160d81b900460ff16156116be573460015411156116be5760405162461bcd60e51b81526020600482015260016024820152603560f81b6044820152606401610667565b6116c7856149d4565b6116f75760405162461bcd60e51b81526020600482015260016024820152603960f81b6044820152606401610667565b6000861161172c5760405162461bcd60e51b8152602060048201526002602482015261031360f41b6044820152606401610667565b60208311156117625760405162461bcd60e51b8152602060048201526002602482015261323560f01b6044820152606401610667565b6000826003811115611776576117766151e6565b14156117c6578061ffff166000108015611795575060078161ffff1611155b6117c65760405162461bcd60e51b8152602060048201526002602482015261191b60f11b6044820152606401610667565b60018260038111156117da576117da6151e6565b141561182a578061ffff1660001080156117f95750601c8161ffff1611155b61182a5760405162461bcd60e51b8152602060048201526002602482015261323760f01b6044820152606401610667565b600282600381111561183e5761183e6151e6565b141561188e578061ffff16600010801561185d5750605a8161ffff1611155b61188e5760405162461bcd60e51b8152602060048201526002602482015261064760f31b6044820152606401610667565b60038260038111156118a2576118a26151e6565b14156118f3578061ffff1660001080156118c2575061016d8161ffff1611155b6118f35760405162461bcd60e51b8152602060048201526002602482015261323960f01b6044820152606401610667565b6001600160a01b0385166000908152600660205260409020600101548610156119435760405162461bcd60e51b8152602060048201526002602482015261033360f41b6044820152606401610667565b600061198a878787878080601f016020809104026020016040519081016040528093929190818152602001838380828437600092019190915250899250889150614c139050565b905080600b60008560038111156119a3576119a36151e6565b81526020808201929092526040908101600090812061ffff87168252835281812080546001818101835591835291849020855160059093020191825592840151928101929092558201516002820180546001600160a01b039283166001600160a01b0319909116179055606083015160038084018054608087015160a08801511515600160a81b0260ff60a81b19911515600160a01b0274ffffffffffffffffffffffffffffffffffffffffff199093169590961694909417179283168417815560c086015193909260ff60b01b1990911661ffff60a81b199091161790600160b01b908490811115611a9857611a986151e6565b021790555060e082015160038201805461ffff909216600160b81b0261ffff60b81b199092169190911790556101008201518051611ae0916004840191602090910190615104565b50905050611b306040518060800160405280836000015181526020018360e0015161ffff1681526020018360c001516003811115611b2057611b206151e6565b8152602001600090526001614d01565b600081516040805164ffffffffff42168152600060208201523392917ffcb91fd98787d64bdba700bb305716e8b6cebeef9927c71b19ed9b0ab1b892b0910160405180910390a450505050505050565b611b8861498b565b600255565b604080516080810182526000808252602082018190529181018290526060810182905290611bbe6201518084615b1e565b90506000808281611bd28262010bd9615b32565b611bdf9062253d8c615b32565b9050600062023ab1611bf2836004615b72565b611bfc9190615bf9565b90506004611c0d8262023ab1615b72565b611c18906003615b32565b611c229190615bf9565b611c2c9083615c27565b9150600062164b09611c3f846001615b32565b611c4b90610fa0615b72565b611c559190615bf9565b90506004611c65826105b5615b72565b611c6f9190615bf9565b611c799084615c27565b611c8490601f615b32565b9250600061098f611c96856050615b72565b611ca09190615bf9565b905060006050611cb28361098f615b72565b611cbc9190615bf9565b611cc69086615c27565b9050611cd3600b83615bf9565b9450611ce085600c615b72565b611ceb836002615b32565b611cf59190615c27565b91508483611d04603187615c27565b611d0f906064615b72565b611d199190615b32565b611d239190615b32565b909750915086828282600060015b838111611d7e5783811415611d5557611d4e61ffff8e1683615c66565b9150611d6c565b611d5f8585614eb4565b611d699083615c66565b91505b80611d7681615a7c565b915050611d31565b50809a50611d908b61ffff1685614f3a565b61ffff1660408f0152611da28f615008565b8e6020019061ffff16908161ffff16815250508b8e6000019061ffff16908161ffff16815250508a8e6060019061ffff16908161ffff168152505050505050505050505050505050919050565b6060808215611ee65733600090815260086020908152604080832060020180548251818502810185019093528083529193909284015b82821015611edb576000848152602090819020604080516080810182526002860290920180548352600181015461ffff81169484019490945291929083019062010000900460ff166003811115611e7e57611e7e6151e6565b6003811115611e8f57611e8f6151e6565b81526020016001820160039054906101000a900460ff166002811115611eb757611eb76151e6565b6002811115611ec857611ec86151e6565b8152505081526020019060010190611e25565b505050509050611fd0565b33600090815260086020908152604080832060030180548251818502810185019093528083529193909284015b82821015611fc9576000848152602090819020604080516080810182526002860290920180548352600181015461ffff81169484019490945291929083019062010000900460ff166003811115611f6c57611f6c6151e6565b6003811115611f7d57611f7d6151e6565b81526020016001820160039054906101000a900460ff166002811115611fa557611fa56151e6565b6002811115611fb657611fb66151e6565b8152505081526020019060010190611f13565b5050505090505b6000815167ffffffffffffffff811115611fec57611fec615720565b60405190808252806020026020018201604052801561208757816020015b612074604080516101808101909152600060608083018281526080840183905260a0840183905260c0840183905260e08401839052610100840183905261012084018390526101408401929092526101608301528190815260200160008152602001600081525090565b81526020019060019003908161200a5790505b50905060005b82518110156121e8576120f88382815181106120ab576120ab615a50565b6020026020010151600001518483815181106120c9576120c9615a50565b6020026020010151604001518584815181106120e7576120e7615a50565b6020026020010151602001516113ad565b82828151811061210a5761210a615a50565b60200260200101516000018190525082818151811061212b5761212b615a50565b60200260200101516060015182828151811061214957612149615a50565b6020026020010151602001906002811115612166576121666151e6565b90816002811115612179576121796151e6565b81525050600c600083838151811061219357612193615a50565b602002602001015160000151600001518152602001908152602001600020805490508282815181106121c7576121c7615a50565b602090810291909101015160400152806121e081615a7c565b91505061208d565b509392505050565b600754600160d01b900460ff166122095761220961498b565b600754600160d81b900460ff1615612251573460015411156122515760405162461bcd60e51b81526020600482015260016024820152603560f81b6044820152606401610667565b6002543a106122875760405162461bcd60e51b81526020600482015260026024820152610c8d60f21b6044820152606401610667565b60006122924261503e565b60075490915064ffffffffff6101009091048116908216116122db5760405162461bcd60e51b81526020600482015260026024820152610c4d60f21b6044820152606401610667565b60006122e642611b8d565b90506000805b60038111612ea657600081612302575060208301515b600182141561230f575082515b600282141561231f575060408301515b600382141561232f575060608301515b6000828152600b6020908152604080832061ffff85168452909152812054905b81811015612e90576000848152600b6020908152604080832061ffff87168452909152902080548290811061238657612386615a50565b906000526020600020906005020160030160159054906101000a900460ff16612e7e576000848152600b6020908152604080832061ffff8716845290915281208054839081106123d8576123d8615a50565b60009182526020808320600590920290910154878352600b8252604080842061ffff891685529092529082208054919350908490811061241a5761241a615a50565b6000918252602080832060036005909302019190910154888352600b8252604080842061ffff8a16855290925290822080546001600160a01b039092169350908590811061246a5761246a615a50565b6000918252602080832060016005909302019190910154898352600b8252604080842061ffff8b168552909252908220805491935090869081106124b0576124b0615a50565b6000918252602082206002600590920201015481546001600160a01b0390911692508390612710906124e29083615c7e565b6124ec9190615b1e565b6124f69190615c9d565b6000868152600c60205260408120549192509081612515600183615c9d565b905060005b82811015612e74576003548e141561266c576040805180820182528a815260200182905260048a815560058390556007805460ff19169055905163a9059cbb60e01b81523391810191909152602481018590526001600160a01b0389169063a9059cbb90604401602060405180830381600087803b15801561259b57600080fd5b505af11580156125af573d6000803e3d6000fd5b505050506040513d601f19601f820116820180604052508101906125d39190615cb4565b6126045760405162461bcd60e51b8152602060048201526002602482015261191960f11b6044820152606401610667565b6007546040805164ffffffffff428116825261010090930492909216602083015260009082015233907f90192d7875364a53e351ae63fd2dfef8dc941735b29fb0c504d06a0e21ae602e9060600160405180910390a250505050505050505050505050505050565b6004548914801561267e575060055481145b15612691576007805460ff191660011790555b60045415806126a7575060075460ff1615156001145b15612e62576000898152600c602052604081208054839081106126cc576126cc615a50565b600091825260209091200154604051636eb1769f60e11b81526001600160a01b0391821660048201819052306024830152925089918b169063dd62ed3e90604401602060405180830381600087803b15801561272757600080fd5b505af115801561273b573d6000803e3d6000fd5b505050506040513d601f19601f8201168201806040525081019061275f9190615cd1565b101580156127e857506040516370a0823160e01b81526001600160a01b0382811660048301528991908b16906370a0823190602401602060405180830381600087803b1580156127ae57600080fd5b505af11580156127c2573d6000803e3d6000fd5b505050506040513d601f19601f820116820180604052508101906127e69190615cd1565b115b15612ba7578e6127f781615a7c565b9f5061280590508686615c66565b60008b8152600a602090815260408083206001600160a01b03861684529091529020549095508610156129975760008a8152600a602090815260408083206001600160a01b038516845290915281208054889290612864908490615c9d565b90915550600090506040805164ffffffffff42168152602081018b90526001600160a01b038416918d91600080516020615dc0833981519152910160405180910390a460026040805164ffffffffff42168152600060208201526001600160a01b038a16918d917ffcb91fd98787d64bdba700bb305716e8b6cebeef9927c71b19ed9b0ab1b892b0910160405180910390a46128ff8f61504d565b6040516323b872dd60e01b81526001600160a01b0382811660048301528881166024830152604482018a90528a16906323b872dd90606401602060405180830381600087803b15801561295157600080fd5b505af1158015612965573d6000803e3d6000fd5b505050506040513d601f19601f820116820180604052508101906129899190615cb4565b61299257600080fd5b612da7565b60046040805164ffffffffff42168152602081018b90526001600160a01b038416918d91600080516020615dc0833981519152910160405180910390a460008890506000600190508f600214156129fe576129f3600383615b1e565b915060029050612a19565b8f60031415612a1957612a12600c83615b1e565b9150600b90505b60008c8152600a602090815260408083206001600160a01b038716845290915281208054849290612a4b908490615c66565b90915550506040516323b872dd60e01b81526001600160a01b038481166004830152306024830152604482018490528c16906323b872dd90606401602060405180830381600087803b158015612aa057600080fd5b505af1158015612ab4573d6000803e3d6000fd5b505050506040513d601f19601f82011682018060405250810190612ad89190615cb4565b612ae157600080fd5b8f60031480612af057508f6004145b15612ba0576001600160a01b038b166323b872dd338b612b108587615c7e565b6040516001600160e01b031960e086901b1681526001600160a01b0393841660048201529290911660248301526044820152606401602060405180830381600087803b158015612b5f57600080fd5b505af1158015612b73573d6000803e3d6000fd5b505050506040513d601f19601f82011682018060405250810190612b979190615cb4565b612ba057600080fd5b5050612da7565b8e612bb181615a7c565b9f505085600a60008c81526020019081526020016000206000836001600160a01b03166001600160a01b03168152602001908152602001600020541115612cdc57612bfc8686615c66565b60008b8152600a602090815260408083206001600160a01b038616845290915281205491965090612c2e908890615c9d565b60008c8152600a602090815260408083206001600160a01b038781168552925280832092909255905163a9059cbb60e01b81528a82166004820152602481018390529192508b169063a9059cbb90604401602060405180830381600087803b158015612c9957600080fd5b505af1158015612cad573d6000803e3d6000fd5b505050506040513d601f19601f82011682018060405250810190612cd19190615cb4565b612cda57600080fd5b505b612ce68a82614ac2565b60036040805164ffffffffff42168152602081018b905233918d91600080516020615dc0833981519152910160405180910390a460016040805164ffffffffff42168152602081018b90526001600160a01b038416918d91600080516020615dc0833981519152910160405180910390a460036040805164ffffffffff42168152600060208201526001600160a01b038a16918d917ffcb91fd98787d64bdba700bb305716e8b6cebeef9927c71b19ed9b0ab1b892b0910160405180910390a45b82821415612e605760405163a9059cbb60e01b8152336004820152602481018690526001600160a01b038a169063a9059cbb90604401602060405180830381600087803b158015612df757600080fd5b505af1158015612e0b573d6000803e3d6000fd5b505050506040513d601f19601f82011682018060405250810190612e2f9190615cb4565b612e605760405162461bcd60e51b8152602060048201526002602482015261191960f11b6044820152606401610667565b505b80612e6c81615a7c565b91505061251a565b5050505050505050505b80612e8881615a7c565b91505061234f565b5050508080612e9e90615a7c565b9150506122ec565b50600060048190556005556007805460ff1916908190556040805164ffffffffff4281168252610100909304909216602083015260019082015233907f90192d7875364a53e351ae63fd2dfef8dc941735b29fb0c504d06a0e21ae602e9060600160405180910390a26001600760018282829054906101000a900464ffffffffff16612f329190615cea565b92506101000a81548164ffffffffff021916908364ffffffffff160217905550505050565b6000818152600c60205260408120546060919067ffffffffffffffff811115612f8257612f82615720565b604051908082528060200260200182016040528015612fab578160200160208202803683370190505b506000848152600c6020908152604091829020805483518184028101840190945280845293945091929083018282801561300e57602002820191906000526020600020905b81546001600160a01b03168152600190910190602001808311612ff0575b5050506000868152600c60205260408120549394509291505067ffffffffffffffff81111561303f5761303f615720565b60405190808252806020026020018201604052801561308457816020015b604080518082019091526000808252602082015281526020019060019003908161305d5790505b50905060005b82518110156121e8576000858152600a60205260408120845182908690859081106130b7576130b7615a50565b60200260200101516001600160a01b03166001600160a01b031681526020019081526020016000205490506000604051806040016040528086858151811061310157613101615a50565b60200260200101516001600160a01b031681526020018381525090508084848151811061313057613130615a50565b60200260200101819052505050808061314890615a7c565b91505061308a565b61315861498b565b600055565b61316561498b565b336001600160a01b03821614801561318557506001600160a01b03811615155b61318e57600080fd5b600780546001600160a01b039092166601000000000000027fffffffffffff0000000000000000000000000000000000000000ffffffffffff909216919091179055565b6131da61498b565b60078054911515600160d81b0260ff60d81b19909216919091179055565b613200614a06565b33600090815260086020908152604080832060030180548251818502810185019093528083529192909190849084015b828210156132e6576000848152602090819020604080516080810182526002860290920180548352600181015461ffff81169484019490945291929083019062010000900460ff166003811115613289576132896151e6565b600381111561329a5761329a6151e6565b81526020016001820160039054906101000a900460ff1660028111156132c2576132c26151e6565b60028111156132d3576132d36151e6565b8152505081526020019060010190613230565b5050505090506000805b825181101561333957846000015183828151811061331057613310615a50565b602002602001015160000151141561332757600191505b8061333181615a7c565b9150506132f0565b508061336c5760405162461bcd60e51b8152602060048201526002602482015261062760f31b6044820152606401610667565b83516000908152600c60209081526040808320805482518185028101850190935280835291929091908301828280156133ce57602002820191906000526020600020905b81546001600160a01b031681526001909101906020018083116133b0575b505050505090506000805b825181101561349257856001600160a01b03168382815181106133fe576133fe615a50565b60200260200101516001600160a01b03161415613480576001600160a01b038616600090815260086020526040902060029081018054600194508390811061344857613448615a50565b906000526020600020906002020160010160036101000a81548160ff0219169083600281111561347a5761347a6151e6565b02179055505b8061348a81615a7c565b9150506133d9565b50806134c55760405162461bcd60e51b8152602060048201526002602482015261313960f01b6044820152606401610667565b85516134d19086614ac2565b600386516020808901516040805164ffffffffff42168152928301919091526001600160a01b0389169291600080516020615dc0833981519152910160405180910390a485516000908152600a602081815260408084206001600160a01b038a8116808752918452828620548c5187529484528286208287529093528185209490945560608a0151905163a9059cbb60e01b8152600481019490945260248401839052919291169063a9059cbb90604401602060405180830381600087803b15801561359c57600080fd5b505af11580156135b0573d6000803e3d6000fd5b505050506040513d601f19601f820116820180604052508101906135d49190615cb4565b6136055760405162461bcd60e51b8152602060048201526002602482015261323160f01b6044820152606401610667565b50505050505050565b613616614a06565b602081013561362b60808301606084016151c2565b604051636eb1769f60e11b81523360048201523060248201526001600160a01b03919091169063dd62ed3e90604401602060405180830381600087803b15801561367457600080fd5b505af1158015613688573d6000803e3d6000fd5b505050506040513d601f19601f820116820180604052508101906136ac9190615cd1565b10158015613748575060208101356136ca60808301606084016151c2565b6040516370a0823160e01b81523360048201526001600160a01b0391909116906370a0823190602401602060405180830381600087803b15801561370d57600080fd5b505af1158015613721573d6000803e3d6000fd5b505050506040513d601f19601f820116820180604052508101906137459190615cd1565b10155b6137795760405162461bcd60e51b8152602060048201526002602482015261032360f41b6044820152606401610667565b61378f8135610a91610100840160e08501615a97565b6137bf5760405162461bcd60e51b81526020600482015260016024820152603760f81b6044820152606401610667565b80356000818152600c6020908152604080832080546001810182559084529282902090920180546001600160a01b03191633179055815160808101909252918152613851918101613817610100850160e08601615a97565b61ffff16815260200161383060e0850160c08601615ab2565b6003811115613841576138416151e6565b8152602001600090526000614d01565b60208101356001600261386a60e0850160c08601615ab2565b600381111561387b5761387b6151e6565b14156138975761388c600383615b1e565b9150600290506138d2565b60036138a960e0850160c08601615ab2565b60038111156138ba576138ba6151e6565b14156138d2576138cb600c83615b1e565b9150600b90505b82356000908152600a60209081526040808320338452909152812080548492906138fd908490615c66565b90915550600290506040805164ffffffffff42168152602080870135908201523391863591600080516020615dc0833981519152910160405180910390a460046040805164ffffffffff42168152602080870135908201523391863591600080516020615dc0833981519152910160405180910390a461398360808401606085016151c2565b6040516323b872dd60e01b8152336004820152306024820152604481018490526001600160a01b0391909116906323b872dd90606401602060405180830381600087803b1580156139d357600080fd5b505af11580156139e7573d6000803e3d6000fd5b505050506040513d601f19601f82011682018060405250810190613a0b9190615cb4565b613a1457600080fd5b6002613a2660e0850160c08601615ab2565b6003811115613a3757613a376151e6565b1480613a6357506003613a5060e0850160c08601615ab2565b6003811115613a6157613a616151e6565b145b15613b3157613a7860808401606085016151c2565b6001600160a01b03166323b872dd33613a9760608701604088016151c2565b613aa18587615c7e565b6040516001600160e01b031960e086901b1681526001600160a01b0393841660048201529290911660248301526044820152606401602060405180830381600087803b158015613af057600080fd5b505af1158015613b04573d6000803e3d6000fd5b505050506040513d601f19601f82011682018060405250810190613b289190615cb4565b613b3157600080fd5b505050565b6060613b4061498b565b60608315613c3f576001600160a01b038316600090815260086020908152604080832060020180548251818502810185019093528083529193909284015b82821015613c34576000848152602090819020604080516080810182526002860290920180548352600181015461ffff81169484019490945291929083019062010000900460ff166003811115613bd757613bd76151e6565b6003811115613be857613be86151e6565b81526020016001820160039054906101000a900460ff166002811115613c1057613c106151e6565b6002811115613c2157613c216151e6565b8152505081526020019060010190613b7e565b505050509050613d32565b6001600160a01b038316600090815260086020908152604080832060030180548251818502810185019093528083529193909284015b82821015613d2b576000848152602090819020604080516080810182526002860290920180548352600181015461ffff81169484019490945291929083019062010000900460ff166003811115613cce57613cce6151e6565b6003811115613cdf57613cdf6151e6565b81526020016001820160039054906101000a900460ff166002811115613d0757613d076151e6565b6002811115613d1857613d186151e6565b8152505081526020019060010190613c75565b5050505090505b6000815167ffffffffffffffff811115613d4e57613d4e615720565b604051908082528060200260200182016040528015613de957816020015b613dd6604080516101808101909152600060608083018281526080840183905260a0840183905260c0840183905260e08401839052610100840183905261012084018390526101408401929092526101608301528190815260200160008152602001600081525090565b815260200190600190039081613d6c5790505b50905060005b8251811015613efd57613e0d8382815181106120ab576120ab615a50565b828281518110613e1f57613e1f615a50565b602002602001015160000181905250828181518110613e4057613e40615a50565b602002602001015160600151828281518110613e5e57613e5e615a50565b6020026020010151602001906002811115613e7b57613e7b6151e6565b90816002811115613e8e57613e8e6151e6565b81525050600c6000838381518110613ea857613ea8615a50565b60200260200101516000015160000151815260200190815260200160002080549050828281518110613edc57613edc615a50565b60209081029190910101516040015280613ef581615a7c565b915050613def565b509150505b92915050565b613f1061498b565b60078054911515600160d01b0260ff60d01b19909216919091179055565b6000818152600c6020908152604091829020805483518184028101840190945280845260609392830182828015613f8e57602002820191906000526020600020905b81546001600160a01b03168152600190910190602001808311613f70575b50505050509050919050565b613fa261498b565b611388471115613ffb57600754660100000000000090046001600160a01b03166108fc613fd161138847615c9d565b6040518115909202916000818181858888f19350505050158015613ff9573d6000803e3d6000fd5b505b565b60606002543a106140355760405162461bcd60e51b81526020600482015260026024820152610c8d60f21b6044820152606401610667565b60006140404261503e565b60075490915064ffffffffff6101009091048116908216116140895760405162461bcd60e51b81526020600482015260026024820152610c4d60f21b6044820152606401610667565b600061409442611b8d565b9050600080600060035467ffffffffffffffff8111156140b6576140b6615720565b6040519080825280602002602001820160405280156140fb57816020015b60408051808201909152600080825260208201528152602001906001900390816140d45790505b50905060005b600381116143de57600081614117575060208501515b6001821415614124575084515b6002821415614134575060408501515b6003821415614144575060608501515b60005b6000838152600b6020908152604080832061ffff861684529091529020548110156143c9576000838152600b6020908152604080832061ffff86168452909152902080548290811061419b5761419b615a50565b906000526020600020906005020160030160159054906101000a900460ff166143b7576000838152600b6020908152604080832061ffff8616845290915281208054839081106141ed576141ed615a50565b60009182526020808320600590920290910154868352600b8252604080842061ffff881685529092529082208054919350908490811061422f5761422f615a50565b6000918252602080832060036005909302019190910154878352600b8252604080842061ffff8916855290925290822080546001600160a01b039092169350908590811061427f5761427f615a50565b90600052602060002090600502016001015490506142b960405180604001604052806000815260200160006001600160a01b031681525090565b600082612710600054856142cd9190615c7e565b6142d79190615b1e565b6142e19190615c9d565b90506000805b6000878152600c60205260409020548110156143af576003548d141561431b5750989e9d5050505050505050505050505050565b6004541580614331575060075460ff1615156001145b1561439d578c61434081615a7c565b9d5061434e90508383615c66565b91506040518060400160405280838152602001876001600160a01b03168152509350838b8d8151811061438357614383615a50565b60200260200101819052508b8061439990615a7c565b9c50505b806143a781615a7c565b9150506142e7565b505050505050505b806143c181615a7c565b915050614147565b505080806143d690615a7c565b915050614101565b506000805b825181101561443e5760006001600160a01b031683828151811061440957614409615a50565b6020026020010151602001516001600160a01b0316141561442c5780915061443e565b8061443681615a7c565b9150506143e3565b5060008167ffffffffffffffff81111561445a5761445a615720565b60405190808252806020026020018201604052801561449f57816020015b60408051808201909152600080825260208201528152602001906001900390816144785790505b50905060005b828110156144f7578381815181106144bf576144bf615a50565b60200260200101518282815181106144d9576144d9615a50565b602002602001018190525080806144ef90615a7c565b9150506144a5565b50979650505050505050565b61450b61498b565b6001600160a01b03821661451e57600080fd5b614527826149d4565b156145585760405162461bcd60e51b81526020600482015260016024820152603160f81b6044820152606401610667565b604080516060810182526001600160a01b03938416808252602080830194855260018385018181526000938452600690925293909120915182546001600160a01b031916951694909417815591519082015590516002909101805460ff1916911515919091179055565b6145ca614a06565b3360009081526008602052604081206002015467ffffffffffffffff8111156145f5576145f5615720565b60405190808252806020026020018201604052801561465057816020015b61463d60408051608081018252600080825260208201819052909182019081526020016000905290565b8152602001906001900390816146135790505b50336000908152600860209081526040808320600201805482518185028101850190935280835294955090939092909184015b82821015614739576000848152602090819020604080516080810182526002860290920180548352600181015461ffff81169484019490945291929083019062010000900460ff1660038111156146dc576146dc6151e6565b60038111156146ed576146ed6151e6565b81526020016001820160039054906101000a900460ff166002811115614715576147156151e6565b6002811115614726576147266151e6565b8152505081526020019060010190614683565b5050336000908152600860205260408120600201549394509150505b818110156147f657836000015183828151811061477457614774615a50565b60200260200101516000015114156147e45733600090815260086020526040902060029081018054839081106147ac576147ac615a50565b906000526020600020906002020160010160036101000a81548160ff021916908360028111156147de576147de6151e6565b02179055505b806147ee81615a7c565b915050614755565b5082516148039033614ac2565b600383516020808601516040805164ffffffffff4216815292830191909152339291600080516020615dc0833981519152910160405180910390a482516000908152600a6020818152604080842033808652908352818520548851865293835281852090855290915282209190915560046040808601518651825164ffffffffff42168152602081018690526001600160a01b039092169290917ffcb91fd98787d64bdba700bb305716e8b6cebeef9927c71b19ed9b0ab1b892b0910160405180910390a46060840151604080860151905163a9059cbb60e01b81526001600160a01b0391821660048201526024810184905291169063a9059cbb90604401602060405180830381600087803b15801561491c57600080fd5b505af1158015614930573d6000803e3d6000fd5b505050506040513d601f19601f820116820180604052508101906149549190615cb4565b6149855760405162461bcd60e51b8152602060048201526002602482015261323160f01b6044820152606401610667565b50505050565b600754660100000000000090046001600160a01b03163314613ffb5760405162461bcd60e51b8152602060048201526002602482015261189b60f11b6044820152606401610667565b6001600160a01b03811660009081526006602052604081206002015460ff166149fe576000613f02565b600192915050565b33613ffb5760405162461bcd60e51b81526020600482015260016024820152603360f81b6044820152606401610667565b60008060405180608001604052808781526020018661ffff168152602001856003811115614a6757614a676151e6565b8152602001846002811115614a7e57614a7e6151e6565b81525090506000614a9c8260000151836040015184602001516113ad565b9050806080015115614ab357600192505050614aba565b6000925050505b949350505050565b6000828152600c602052604081208054909190815b81811015614b5b57846001600160a01b0316848281548110614afb57614afb615a50565b6000918252602090912001546001600160a01b03161415614b4957809250838181548110614b2b57614b2b615a50565b600091825260209091200180546001600160a01b0319169055614b5b565b80614b5381615a7c565b915050614ad7565b5082548390614b6c90600190615c9d565b81548110614b7c57614b7c615a50565b9060005260206000200160009054906101000a90046001600160a01b0316838381548110614bac57614bac615a50565b9060005260206000200160006101000a8154816001600160a01b0302191690836001600160a01b0316021790555082805480614bea57614bea615d13565b600082815260209020810160001990810180546001600160a01b03191690550190555050505050565b614c626040805161012081018252600080825260208201819052918101829052606081018290526080810182905260a081018290529060c0820190815260006020820152606060409091015290565b60003386848742604051602001614c7d959493929190615d29565b60408051601f198184030181528282528051602091820120610120840183528084529083018a905233918301919091526001600160a01b038816606083015260016080830152600060a0830152915060c08101856003811115614ce257614ce26151e6565b81526020018461ffff1681526020018681525091505095945050505050565b33600090815260086020526040902054600160a01b900460ff16614d8b5733600081815260086020526040812080546001600160a01b03199081168417825560098054600181019091557f6e1540171b6c0c960b71a7020d9f60077f6af931a8bbf590da0223dacf75c7af01805490911684179055919052805460ff60a01b1916600160a01b1790555b8015614e4157336000908152600860209081526040808320600390810180546001808201835591865294849020875160029096020194855592860151928401805461ffff19811661ffff9095169485178255928701518795949093919262ffffff19909216179062010000908490811115614e0857614e086151e6565b0217905550606082015160018201805463ff00000019166301000000836002811115614e3657614e366151e6565b021790555050505050565b33600090815260086020908152604080832060029081018054600180820183559186529484902087519590920290910193845591850151918301805461ffff19811661ffff909416938417825591860151869493909262ffffff19161762010000836003811115614e0857614e086151e6565b60008160011480614ec55750816003145b80614ed05750816005145b80614edb5750816007145b80614ee65750816008145b80614ef1575081600a145b80614efc575081600c145b15614f095750601f613f02565b81600214614f195750601e613f02565b614f22836150a7565b614f2d57601c614f30565b601d5b60ff169392505050565b600080614f46836150a7565b15614f5357506001614f57565b5060005b614f6281605a615c66565b8411614f7057839150615001565b83614f7c82605a615c66565b108015614f935750614f8f8160b5615c66565b8411155b15614fb457614fa381605a615c66565b614fad9085615c9d565b9150615001565b83614fc08260b5615c66565b108015614fd85750614fd481610111615c66565b8411155b15614fe857614fa38160b5615c66565b614ff481610111615c66565b614ffe9085615c9d565b91505b5092915050565b6000806150186201518084615b1e565b905060006007615029836003615c66565b6150339190615d87565b614aba906001615c66565b6000613f026201518083615d9b565b613ff98160405160240161506391815260200190565b60408051601f198184030181529190526020810180517bffffffffffffffffffffffffffffffffffffffffffffffffffffffff1663f82c50f160e01b1790526150e3565b60006150b4600483615d87565b1580156150ca57506150c7606483615d87565b15155b80613f0257506150dc61019083615d87565b1592915050565b80516a636f6e736f6c652e6c6f67602083016000808483855afa5050505050565b82805461511090615acd565b90600052602060002090601f0160209004810192826151325760008555615178565b82601f1061514b57805160ff1916838001178555615178565b82800160010185558215615178579182015b8281111561517857825182559160200191906001019061515d565b50615184929150615188565b5090565b5b808211156151845760008155600101615189565b6001600160a01b0381168114613ff957600080fd5b80356151bd8161519d565b919050565b6000602082840312156151d457600080fd5b81356151df8161519d565b9392505050565b634e487b7160e01b600052602160045260246000fd5b6004811061520c5761520c6151e6565b9052565b6003811061520c5761520c6151e6565b600081518084526020808501945080840160005b8381101561528a5781518051885261ffff848201511684890152604080820151615260828b01826151fc565b50506060908101519061527589820183615210565b50506080969096019590820190600101615234565b509495945050505050565b60006020808301818452808551808352604092508286019150828160051b8701018488016000805b8481101561537957898403603f19018652825180516001600160a01b03168552888101511515898601528781015160a0898701819052815190870181905260c08701918b019085905b8082101561532d57825164ffffffffff168452928c0192918c019160019190910190615306565b505050606080830151878303828901526153478382615220565b92505050608080830151925086820381880152506153658183615220565b978a019795505050918701916001016152bd565b50919998505050505050505050565b60006020828403121561539a57600080fd5b813567ffffffffffffffff8111156153b157600080fd5b820161012081850312156151df57600080fd5b6000602082840312156153d657600080fd5b5035919050565b8035600481106151bd57600080fd5b803561ffff811681146151bd57600080fd5b60008060006060848603121561541357600080fd5b83359250615423602085016153dd565b9150615431604085016153ec565b90509250925092565b60005b8381101561545557818101518382015260200161543d565b838111156149855750506000910152565b6000815180845261547e81602086016020860161543a565b601f01601f19169290920160200192915050565b600061012082518452602083015160208501526001600160a01b03604084015116604085015260608301516154d260608601826001600160a01b03169052565b5060808301516154e6608086018215159052565b5060a08301516154fa60a086018215159052565b5060c083015161550d60c08601826151fc565b5060e083015161552360e086018261ffff169052565b5061010080840151828287015261553c83870182615466565b9695505050505050565b6020815260006151df6020830184615492565b60008060008060008060a0878903121561557257600080fd5b8635955060208701356155848161519d565b9450604087013567ffffffffffffffff808211156155a157600080fd5b818901915089601f8301126155b557600080fd5b8135818111156155c457600080fd5b8a60208285010111156155d657600080fd5b6020830196508095505050506155ee606088016153dd565b91506155fc608088016153ec565b90509295509295509295565b8015158114613ff957600080fd5b80356151bd81615608565b60006020828403121561563357600080fd5b81356151df81615608565b60006020808301818452808551808352604092508286019150828160051b87010184880160005b838110156156ba57603f1989840301855281516060815181865261568b82870182615492565b9150508882015161569e8a870182615210565b5090870151938701939093529386019390860190600101615665565b509098975050505050505050565b602080825282518282018190526000919060409081850190868401855b8281101561571357815180516001600160a01b031685528601518685015292840192908501906001016156e5565b5091979650505050505050565b634e487b7160e01b600052604160045260246000fd5b604051610120810167ffffffffffffffff8111828210171561575a5761575a615720565b60405290565b600082601f83011261577157600080fd5b813567ffffffffffffffff8082111561578c5761578c615720565b604051601f8301601f19908116603f011681019082821181831017156157b4576157b4615720565b816040528381528660208588010111156157cd57600080fd5b836020870160208301376000602085830101528094505050505092915050565b6000610120828403121561580057600080fd5b615808615736565b90508135815260208201356020820152615824604083016151b2565b6040820152615835606083016151b2565b606082015261584660808301615616565b608082015261585760a08301615616565b60a082015261586860c083016153dd565b60c082015261587960e083016153ec565b60e08201526101008083013567ffffffffffffffff81111561589a57600080fd5b6158a685828601615760565b82840152505092915050565b600080604083850312156158c557600080fd5b823567ffffffffffffffff8111156158dc57600080fd5b6158e8858286016157ed565b92505060208301356158f98161519d565b809150509250929050565b6000806040838503121561591757600080fd5b823561592281615608565b915060208301356158f98161519d565b6020808252825182820181905260009190848201906040850190845b818110156159735783516001600160a01b03168352928401929184019160010161594e565b50909695505050505050565b602080825282518282018190526000919060409081850190868401855b82811015615713578151805185528601516001600160a01b031686850152928401929085019060010161599c565b600080604083850312156159dd57600080fd5b8235915060208301356158f98161519d565b60008060408385031215615a0257600080fd5b8235615a0d8161519d565b946020939093013593505050565b600060208284031215615a2d57600080fd5b813567ffffffffffffffff811115615a4457600080fd5b614ffe848285016157ed565b634e487b7160e01b600052603260045260246000fd5b634e487b7160e01b600052601160045260246000fd5b6000600019821415615a9057615a90615a66565b5060010190565b600060208284031215615aa957600080fd5b6151df826153ec565b600060208284031215615ac457600080fd5b6151df826153dd565b600181811c90821680615ae157607f821691505b60208210811415615b0257634e487b7160e01b600052602260045260246000fd5b50919050565b634e487b7160e01b600052601260045260246000fd5b600082615b2d57615b2d615b08565b500490565b6000808212826001600160ff1b0303841381151615615b5357615b53615a66565b600160ff1b8390038412811615615b6c57615b6c615a66565b50500190565b60006001600160ff1b03600084136000841385830485118282161615615b9a57615b9a615a66565b600160ff1b6000871282811687830589121615615bb957615bb9615a66565b60008712925087820587128484161615615bd557615bd5615a66565b87850587128184161615615beb57615beb615a66565b505050929093029392505050565b600082615c0857615c08615b08565b600160ff1b821460001984141615615c2257615c22615a66565b500590565b60008083128015600160ff1b850184121615615c4557615c45615a66565b836001600160ff1b03018313811615615c6057615c60615a66565b50500390565b60008219821115615c7957615c79615a66565b500190565b6000816000190483118215151615615c9857615c98615a66565b500290565b600082821015615caf57615caf615a66565b500390565b600060208284031215615cc657600080fd5b81516151df81615608565b600060208284031215615ce357600080fd5b5051919050565b600064ffffffffff808316818516808303821115615d0a57615d0a615a66565b01949350505050565b634e487b7160e01b600052603160045260246000fd5b60006bffffffffffffffffffffffff19808860601b168352808760601b1660148401525061ffff60f01b8560f01b1660288301528351615d7081602a85016020880161543a565b602a920191820192909252604a0195945050505050565b600082615d9657615d96615b08565b500690565b600064ffffffffff80841680615db357615db3615b08565b9216919091049291505056fefcfb8f783c54c9c729957515ad137cd8832b98c21e44fd7f481e2e7603bfdb5fa2646970667358221220763d3fc32d1ddbea62b3b69f6e773db35e6fd383ce2a18bd2bd51b0649a1bbcf64736f6c63430008090033",
  "linkReferences": {},
  "deployedLinkReferences": {}
}