{
  "_format": "hh-sol-artifact-1",
  "contractName": "ClockTowerSubscribe",
  "sourceName": "contracts/ClockTowerSubscribe.sol",
  "abi": [
    {
      "inputs": [],
      "stateMutability": "payable",
      "type": "constructor"
    },
    {
      "anonymous": false,
      "inputs": [
        {
          "indexed": false,
          "internalType": "uint40",
          "name": "timestamp",
          "type": "uint40"
        },
        {
          "indexed": false,
          "internalType": "uint40",
          "name": "checkedDay",
          "type": "uint40"
        },
        {
          "indexed": true,
          "internalType": "address",
          "name": "caller",
          "type": "address"
        },
        {
          "indexed": false,
          "internalType": "bool",
          "name": "isFinished",
          "type": "bool"
        }
      ],
      "name": "CallerLog",
      "type": "event"
    },
    {
      "anonymous": false,
      "inputs": [
        {
          "indexed": true,
          "internalType": "bytes32",
          "name": "id",
          "type": "bytes32"
        },
        {
          "indexed": true,
          "internalType": "address",
          "name": "provider",
          "type": "address"
        },
        {
          "indexed": false,
          "internalType": "uint40",
          "name": "timestamp",
          "type": "uint40"
        },
        {
          "indexed": false,
          "internalType": "bool",
          "name": "success",
          "type": "bool"
        },
        {
          "indexed": false,
          "internalType": "uint8",
          "name": "errorCode",
          "type": "uint8"
        },
        {
          "indexed": true,
          "internalType": "enum ClockTowerSubscribe.ProvEvent",
          "name": "provEvent",
          "type": "uint8"
        }
      ],
      "name": "ProviderLog",
      "type": "event"
    },
    {
      "anonymous": false,
      "inputs": [
        {
          "indexed": true,
          "internalType": "bytes32",
          "name": "id",
          "type": "bytes32"
        },
        {
          "indexed": true,
          "internalType": "address",
          "name": "subscriber",
          "type": "address"
        },
        {
          "indexed": false,
          "internalType": "uint40",
          "name": "timestamp",
          "type": "uint40"
        },
        {
          "indexed": false,
          "internalType": "uint256",
          "name": "amount",
          "type": "uint256"
        },
        {
          "indexed": true,
          "internalType": "enum ClockTowerSubscribe.SubEvent",
          "name": "subEvent",
          "type": "uint8"
        }
      ],
      "name": "SubscriberLog",
      "type": "event"
    },
    {
      "stateMutability": "payable",
      "type": "fallback"
    },
    {
      "inputs": [
        {
          "internalType": "address",
          "name": "erc20Contract",
          "type": "address"
        }
      ],
      "name": "addERC20Contract",
      "outputs": [],
      "stateMutability": "nonpayable",
      "type": "function"
    },
    {
      "inputs": [],
      "name": "admin",
      "outputs": [
        {
          "internalType": "address payable",
          "name": "",
          "type": "address"
        }
      ],
      "stateMutability": "view",
      "type": "function"
    },
    {
      "inputs": [],
      "name": "callerFee",
      "outputs": [
        {
          "internalType": "uint256",
          "name": "",
          "type": "uint256"
        }
      ],
      "stateMutability": "view",
      "type": "function"
    },
    {
      "inputs": [
        {
          "components": [
            {
              "internalType": "bytes32",
              "name": "id",
              "type": "bytes32"
            },
            {
              "internalType": "uint256",
              "name": "amount",
              "type": "uint256"
            },
            {
              "internalType": "address",
              "name": "provider",
              "type": "address"
            },
            {
              "internalType": "address",
              "name": "token",
              "type": "address"
            },
            {
              "internalType": "bool",
              "name": "exists",
              "type": "bool"
            },
            {
              "internalType": "bool",
              "name": "cancelled",
              "type": "bool"
            },
            {
              "internalType": "enum ClockTowerSubscribe.Frequency",
              "name": "frequency",
              "type": "uint8"
            },
            {
              "internalType": "uint16",
              "name": "dueDay",
              "type": "uint16"
            },
            {
              "internalType": "string",
              "name": "description",
              "type": "string"
            }
          ],
          "internalType": "struct ClockTowerSubscribe.Subscription",
          "name": "subscription",
          "type": "tuple"
        }
      ],
      "name": "cancelSubscription",
      "outputs": [],
      "stateMutability": "nonpayable",
      "type": "function"
    },
    {
      "inputs": [
        {
          "internalType": "address payable",
          "name": "newAddress",
          "type": "address"
        }
      ],
      "name": "changeAdmin",
      "outputs": [],
      "stateMutability": "nonpayable",
      "type": "function"
    },
    {
      "inputs": [
        {
          "internalType": "uint256",
          "name": "_fee",
          "type": "uint256"
        }
      ],
      "name": "changeCallerFee",
      "outputs": [],
      "stateMutability": "nonpayable",
      "type": "function"
    },
    {
      "inputs": [
        {
          "internalType": "uint256",
          "name": "_maxGas",
          "type": "uint256"
        }
      ],
      "name": "changeMaxGasPrice",
      "outputs": [],
      "stateMutability": "nonpayable",
      "type": "function"
    },
    {
      "inputs": [
        {
          "internalType": "uint256",
          "name": "_maxRemits",
          "type": "uint256"
        }
      ],
      "name": "changeMaxRemits",
      "outputs": [],
      "stateMutability": "nonpayable",
      "type": "function"
    },
    {
      "inputs": [
        {
          "internalType": "uint256",
          "name": "_fixed_fee",
          "type": "uint256"
        }
      ],
      "name": "changeSystemFee",
      "outputs": [],
      "stateMutability": "nonpayable",
      "type": "function"
    },
    {
      "inputs": [],
      "name": "collectFees",
      "outputs": [],
      "stateMutability": "nonpayable",
      "type": "function"
    },
    {
      "inputs": [
        {
          "internalType": "uint256",
          "name": "amount",
          "type": "uint256"
        },
        {
          "internalType": "address",
          "name": "token",
          "type": "address"
        },
        {
          "internalType": "string",
          "name": "description",
          "type": "string"
        },
        {
          "internalType": "enum ClockTowerSubscribe.Frequency",
          "name": "frequency",
          "type": "uint8"
        },
        {
          "internalType": "uint16",
          "name": "dueDay",
          "type": "uint16"
        }
      ],
      "name": "createSubscription",
      "outputs": [],
      "stateMutability": "payable",
      "type": "function"
    },
    {
      "inputs": [
        {
          "internalType": "bytes32",
          "name": "",
          "type": "bytes32"
        },
        {
          "internalType": "address",
          "name": "",
          "type": "address"
        }
      ],
      "name": "feeBalance",
      "outputs": [
        {
          "internalType": "uint256",
          "name": "",
          "type": "uint256"
        }
      ],
      "stateMutability": "view",
      "type": "function"
    },
    {
      "inputs": [],
      "name": "feeEstimate",
      "outputs": [
        {
          "components": [
            {
              "internalType": "uint256",
              "name": "fee",
              "type": "uint256"
            },
            {
              "internalType": "address",
              "name": "token",
              "type": "address"
            }
          ],
          "internalType": "struct ClockTowerSubscribe.FeeEstimate[]",
          "name": "",
          "type": "tuple[]"
        }
      ],
      "stateMutability": "view",
      "type": "function"
    },
    {
      "inputs": [
        {
          "internalType": "bool",
          "name": "bySubscriber",
          "type": "bool"
        }
      ],
      "name": "getAccountSubscriptions",
      "outputs": [
        {
          "components": [
            {
              "components": [
                {
                  "internalType": "bytes32",
                  "name": "id",
                  "type": "bytes32"
                },
                {
                  "internalType": "uint256",
                  "name": "amount",
                  "type": "uint256"
                },
                {
                  "internalType": "address",
                  "name": "provider",
                  "type": "address"
                },
                {
                  "internalType": "address",
                  "name": "token",
                  "type": "address"
                },
                {
                  "internalType": "bool",
                  "name": "exists",
                  "type": "bool"
                },
                {
                  "internalType": "bool",
                  "name": "cancelled",
                  "type": "bool"
                },
                {
                  "internalType": "enum ClockTowerSubscribe.Frequency",
                  "name": "frequency",
                  "type": "uint8"
                },
                {
                  "internalType": "uint16",
                  "name": "dueDay",
                  "type": "uint16"
                },
                {
                  "internalType": "string",
                  "name": "description",
                  "type": "string"
                }
              ],
              "internalType": "struct ClockTowerSubscribe.Subscription",
              "name": "subscription",
              "type": "tuple"
            },
            {
              "internalType": "enum ClockTowerSubscribe.Status",
              "name": "status",
              "type": "uint8"
            },
            {
              "internalType": "uint256",
              "name": "totalSubscribers",
              "type": "uint256"
            }
          ],
          "internalType": "struct ClockTowerSubscribe.SubView[]",
          "name": "",
          "type": "tuple[]"
        }
      ],
      "stateMutability": "view",
      "type": "function"
    },
    {
      "inputs": [],
      "name": "getAllAccounts",
      "outputs": [
        {
          "components": [
            {
              "internalType": "address",
              "name": "accountAddress",
              "type": "address"
            },
            {
              "internalType": "bool",
              "name": "exists",
              "type": "bool"
            },
            {
              "internalType": "uint40[]",
              "name": "timeTriggers",
              "type": "uint40[]"
            },
            {
              "components": [
                {
                  "internalType": "bytes32",
                  "name": "id",
                  "type": "bytes32"
                },
                {
                  "internalType": "uint16",
                  "name": "dueDay",
                  "type": "uint16"
                },
                {
                  "internalType": "enum ClockTowerSubscribe.Frequency",
                  "name": "frequency",
                  "type": "uint8"
                },
                {
                  "internalType": "enum ClockTowerSubscribe.Status",
                  "name": "status",
                  "type": "uint8"
                }
              ],
              "internalType": "struct ClockTowerSubscribe.SubIndex[]",
              "name": "subscriptions",
              "type": "tuple[]"
            },
            {
              "components": [
                {
                  "internalType": "bytes32",
                  "name": "id",
                  "type": "bytes32"
                },
                {
                  "internalType": "uint16",
                  "name": "dueDay",
                  "type": "uint16"
                },
                {
                  "internalType": "enum ClockTowerSubscribe.Frequency",
                  "name": "frequency",
                  "type": "uint8"
                },
                {
                  "internalType": "enum ClockTowerSubscribe.Status",
                  "name": "status",
                  "type": "uint8"
                }
              ],
              "internalType": "struct ClockTowerSubscribe.SubIndex[]",
              "name": "provSubs",
              "type": "tuple[]"
            }
          ],
          "internalType": "struct ClockTowerSubscribe.Account[]",
          "name": "",
          "type": "tuple[]"
        }
      ],
      "stateMutability": "view",
      "type": "function"
    },
    {
      "inputs": [
        {
          "internalType": "bytes32",
          "name": "id",
          "type": "bytes32"
        },
        {
          "internalType": "enum ClockTowerSubscribe.Frequency",
          "name": "frequency",
          "type": "uint8"
        },
        {
          "internalType": "uint16",
          "name": "dueDay",
          "type": "uint16"
        }
      ],
      "name": "getSubByIndex",
      "outputs": [
        {
          "components": [
            {
              "internalType": "bytes32",
              "name": "id",
              "type": "bytes32"
            },
            {
              "internalType": "uint256",
              "name": "amount",
              "type": "uint256"
            },
            {
              "internalType": "address",
              "name": "provider",
              "type": "address"
            },
            {
              "internalType": "address",
              "name": "token",
              "type": "address"
            },
            {
              "internalType": "bool",
              "name": "exists",
              "type": "bool"
            },
            {
              "internalType": "bool",
              "name": "cancelled",
              "type": "bool"
            },
            {
              "internalType": "enum ClockTowerSubscribe.Frequency",
              "name": "frequency",
              "type": "uint8"
            },
            {
              "internalType": "uint16",
              "name": "dueDay",
              "type": "uint16"
            },
            {
              "internalType": "string",
              "name": "description",
              "type": "string"
            }
          ],
          "internalType": "struct ClockTowerSubscribe.Subscription",
          "name": "subscription",
          "type": "tuple"
        }
      ],
      "stateMutability": "view",
      "type": "function"
    },
    {
      "inputs": [
        {
          "internalType": "bytes32",
          "name": "id",
          "type": "bytes32"
        }
      ],
      "name": "getSubscribers",
      "outputs": [
        {
          "internalType": "address[]",
          "name": "",
          "type": "address[]"
        }
      ],
      "stateMutability": "view",
      "type": "function"
    },
    {
      "inputs": [
        {
          "internalType": "bytes32",
          "name": "id",
          "type": "bytes32"
        }
      ],
      "name": "getSubscribersById",
      "outputs": [
        {
          "components": [
            {
              "internalType": "address",
              "name": "subscriber",
              "type": "address"
            },
            {
              "internalType": "uint256",
              "name": "feeBalance",
              "type": "uint256"
            }
          ],
          "internalType": "struct ClockTowerSubscribe.SubscriberView[]",
          "name": "",
          "type": "tuple[]"
        }
      ],
      "stateMutability": "view",
      "type": "function"
    },
    {
      "inputs": [
        {
          "internalType": "bool",
          "name": "bySubscriber",
          "type": "bool"
        },
        {
          "internalType": "address",
          "name": "account",
          "type": "address"
        }
      ],
      "name": "getSubscriptionsByAccount",
      "outputs": [
        {
          "components": [
            {
              "components": [
                {
                  "internalType": "bytes32",
                  "name": "id",
                  "type": "bytes32"
                },
                {
                  "internalType": "uint256",
                  "name": "amount",
                  "type": "uint256"
                },
                {
                  "internalType": "address",
                  "name": "provider",
                  "type": "address"
                },
                {
                  "internalType": "address",
                  "name": "token",
                  "type": "address"
                },
                {
                  "internalType": "bool",
                  "name": "exists",
                  "type": "bool"
                },
                {
                  "internalType": "bool",
                  "name": "cancelled",
                  "type": "bool"
                },
                {
                  "internalType": "enum ClockTowerSubscribe.Frequency",
                  "name": "frequency",
                  "type": "uint8"
                },
                {
                  "internalType": "uint16",
                  "name": "dueDay",
                  "type": "uint16"
                },
                {
                  "internalType": "string",
                  "name": "description",
                  "type": "string"
                }
              ],
              "internalType": "struct ClockTowerSubscribe.Subscription",
              "name": "subscription",
              "type": "tuple"
            },
            {
              "internalType": "enum ClockTowerSubscribe.Status",
              "name": "status",
              "type": "uint8"
            },
            {
              "internalType": "uint256",
              "name": "totalSubscribers",
              "type": "uint256"
            }
          ],
          "internalType": "struct ClockTowerSubscribe.SubView[]",
          "name": "",
          "type": "tuple[]"
        }
      ],
      "stateMutability": "view",
      "type": "function"
    },
    {
      "inputs": [],
      "name": "lastCheckedDay",
      "outputs": [
        {
          "internalType": "uint40",
          "name": "",
          "type": "uint40"
        }
      ],
      "stateMutability": "view",
      "type": "function"
    },
    {
      "inputs": [],
      "name": "maxGasPrice",
      "outputs": [
        {
          "internalType": "uint256",
          "name": "",
          "type": "uint256"
        }
      ],
      "stateMutability": "view",
      "type": "function"
    },
    {
      "inputs": [],
      "name": "maxRemits",
      "outputs": [
        {
          "internalType": "uint256",
          "name": "",
          "type": "uint256"
        }
      ],
      "stateMutability": "view",
      "type": "function"
    },
    {
      "inputs": [],
      "name": "remit",
      "outputs": [],
      "stateMutability": "payable",
      "type": "function"
    },
    {
      "inputs": [
        {
          "internalType": "address",
          "name": "erc20Contract",
          "type": "address"
        }
      ],
      "name": "removeERC20Contract",
      "outputs": [],
      "stateMutability": "nonpayable",
      "type": "function"
    },
    {
      "inputs": [
        {
          "internalType": "bool",
          "name": "status",
          "type": "bool"
        }
      ],
      "name": "setExternalCallers",
      "outputs": [],
      "stateMutability": "nonpayable",
      "type": "function"
    },
    {
      "inputs": [
        {
          "components": [
            {
              "internalType": "bytes32",
              "name": "id",
              "type": "bytes32"
            },
            {
              "internalType": "uint256",
              "name": "amount",
              "type": "uint256"
            },
            {
              "internalType": "address",
              "name": "provider",
              "type": "address"
            },
            {
              "internalType": "address",
              "name": "token",
              "type": "address"
            },
            {
              "internalType": "bool",
              "name": "exists",
              "type": "bool"
            },
            {
              "internalType": "bool",
              "name": "cancelled",
              "type": "bool"
            },
            {
              "internalType": "enum ClockTowerSubscribe.Frequency",
              "name": "frequency",
              "type": "uint8"
            },
            {
              "internalType": "uint16",
              "name": "dueDay",
              "type": "uint16"
            },
            {
              "internalType": "string",
              "name": "description",
              "type": "string"
            }
          ],
          "internalType": "struct ClockTowerSubscribe.Subscription",
          "name": "subscription",
          "type": "tuple"
        }
      ],
      "name": "subscribe",
      "outputs": [],
      "stateMutability": "payable",
      "type": "function"
    },
    {
      "inputs": [],
      "name": "systemFee",
      "outputs": [
        {
          "internalType": "uint256",
          "name": "",
          "type": "uint256"
        }
      ],
      "stateMutability": "view",
      "type": "function"
    },
    {
      "inputs": [
        {
          "internalType": "bool",
          "name": "status",
          "type": "bool"
        }
      ],
      "name": "systemFeeActivate",
      "outputs": [],
      "stateMutability": "nonpayable",
      "type": "function"
    },
    {
      "inputs": [
        {
          "internalType": "uint256",
          "name": "unix",
          "type": "uint256"
        }
      ],
      "name": "unixToTime",
      "outputs": [
        {
          "components": [
            {
              "internalType": "uint16",
              "name": "day",
              "type": "uint16"
            },
            {
              "internalType": "uint16",
              "name": "weekDay",
              "type": "uint16"
            },
            {
              "internalType": "uint16",
              "name": "quarterDay",
              "type": "uint16"
            },
            {
              "internalType": "uint16",
              "name": "yearDay",
              "type": "uint16"
            }
          ],
          "internalType": "struct ClockTowerSubscribe.Time",
          "name": "time",
          "type": "tuple"
        }
      ],
      "stateMutability": "pure",
      "type": "function"
    },
    {
      "inputs": [
        {
          "components": [
            {
              "internalType": "bytes32",
              "name": "id",
              "type": "bytes32"
            },
            {
              "internalType": "uint256",
              "name": "amount",
              "type": "uint256"
            },
            {
              "internalType": "address",
              "name": "provider",
              "type": "address"
            },
            {
              "internalType": "address",
              "name": "token",
              "type": "address"
            },
            {
              "internalType": "bool",
              "name": "exists",
              "type": "bool"
            },
            {
              "internalType": "bool",
              "name": "cancelled",
              "type": "bool"
            },
            {
              "internalType": "enum ClockTowerSubscribe.Frequency",
              "name": "frequency",
              "type": "uint8"
            },
            {
              "internalType": "uint16",
              "name": "dueDay",
              "type": "uint16"
            },
            {
              "internalType": "string",
              "name": "description",
              "type": "string"
            }
          ],
          "internalType": "struct ClockTowerSubscribe.Subscription",
          "name": "subscription",
          "type": "tuple"
        }
      ],
      "name": "unsubscribe",
      "outputs": [],
      "stateMutability": "payable",
      "type": "function"
    },
    {
      "inputs": [
        {
          "components": [
            {
              "internalType": "bytes32",
              "name": "id",
              "type": "bytes32"
            },
            {
              "internalType": "uint256",
              "name": "amount",
              "type": "uint256"
            },
            {
              "internalType": "address",
              "name": "provider",
              "type": "address"
            },
            {
              "internalType": "address",
              "name": "token",
              "type": "address"
            },
            {
              "internalType": "bool",
              "name": "exists",
              "type": "bool"
            },
            {
              "internalType": "bool",
              "name": "cancelled",
              "type": "bool"
            },
            {
              "internalType": "enum ClockTowerSubscribe.Frequency",
              "name": "frequency",
              "type": "uint8"
            },
            {
              "internalType": "uint16",
              "name": "dueDay",
              "type": "uint16"
            },
            {
              "internalType": "string",
              "name": "description",
              "type": "string"
            }
          ],
          "internalType": "struct ClockTowerSubscribe.Subscription",
          "name": "subscription",
          "type": "tuple"
        },
        {
          "internalType": "address",
          "name": "subscriber",
          "type": "address"
        }
      ],
      "name": "unsubscribeByProvider",
      "outputs": [],
      "stateMutability": "nonpayable",
      "type": "function"
    },
    {
      "stateMutability": "payable",
      "type": "receive"
    }
  ],
  "bytecode": "0x60806040526127d8600055662386f26fc100006001908155640ba43b740060025560056003556007805460ff60d81b191690556200003d426200009e565b620000499190620000b5565b60078054610100600160d01b03191661010064ffffffffff9390931692909202600160301b600160d01b0319169190911779f39fd6e51aad88f6f4ce6ab8827279cfffb922660000000000001790556200011d565b6000620000af6201518083620000ea565b92915050565b600064ffffffffff83811690831681811015620000e257634e487b7160e01b600052601160045260246000fd5b039392505050565b600064ffffffffff808416806200011157634e487b7160e01b600052601260045260246000fd5b92169190910492915050565b615e45806200012d6000396000f3fe6080604052600436106101c45760003560e01c80637bbf5a6e116100f6578063b4761de91161008f578063e63d35be11610061578063e63d35be14610568578063ebec6eaa1461058a578063f851a440146105c2578063fedce9401461060457005b8063b4761de9146104f0578063bfa0caa714610510578063c87965721461053d578063cab1c9651461055257005b8063a2349caf116100c8578063a2349caf1461047d578063a429131a1461049d578063a5af2abd146104b0578063ab7e0909146104d057005b80637bbf5a6e146103f05780638ef0ef1c1461041d5780638f2839701461043d5780639889552e1461045d57005b80632d23f7e7116101685780633de39c111161013a5780633de39c111461034757806353a6d6e21461035d5780636605ac0d146103bb5780637507ba39146103e857005b80632d23f7e7146102d15780633084f79e146102fe57806334d441d0146103115780633816377e1461032757005b8063094f9977116101a1578063094f99771461024d5780630bec99e81461026d5780631f17ee551461028d57806327ea9773146102b157005b806304c266bc146101cd578063053149fa1461020b57806308e93d0a1461022b57005b366101cb57005b005b3480156101d957600080fd5b506007546101f090610100900464ffffffffff1681565b60405164ffffffffff90911681526020015b60405180910390f35b34801561021757600080fd5b506101cb61022636600461521e565b610617565b34801561023757600080fd5b506102406107ff565b60405161020291906152f1565b34801561025957600080fd5b506101cb6102683660046153e4565b610bc8565b34801561027957600080fd5b506101cb610288366004615420565b6114ef565b34801561029957600080fd5b506102a360015481565b604051908152602001610202565b3480156102bd57600080fd5b506101cb6102cc366004615420565b6114fc565b3480156102dd57600080fd5b506102f16102ec36600461545a565b611509565b60405161020291906155a2565b6101cb61030c3660046155b5565b611790565b34801561031d57600080fd5b506102a360005481565b34801561033357600080fd5b506101cb610342366004615420565b611c95565b34801561035357600080fd5b506102a360025481565b34801561036957600080fd5b5061037d610378366004615420565b611ca2565b6040516102029190815161ffff9081168252602080840151821690830152604080840151821690830152606092830151169181019190915260800190565b3480156103c757600080fd5b506103db6103d636600461567d565b611f04565b604051610202919061569a565b6101cb612305565b3480156103fc57600080fd5b5061041061040b366004615420565b612f9f565b6040516102029190615724565b34801561042957600080fd5b506101cb610438366004615420565b613198565b34801561044957600080fd5b506101cb61045836600461521e565b6131a5565b34801561046957600080fd5b506101cb61047836600461567d565b61321a565b34801561048957600080fd5b506101cb61049836600461590e565b613240565b6101cb6104ab3660046153e4565b613656565b3480156104bc57600080fd5b506103db6104cb366004615960565b613b7e565b3480156104dc57600080fd5b506101cb6104eb36600461521e565b613f50565b3480156104fc57600080fd5b506101cb61050b36600461567d565b613ff7565b34801561051c57600080fd5b5061053061052b366004615420565b61401d565b604051610202919061598e565b34801561054957600080fd5b506101cb614089565b34801561055e57600080fd5b506102a360035481565b34801561057457600080fd5b5061057d6140e1565b60405161020291906159db565b34801561059657600080fd5b506102a36105a5366004615a26565b600a60209081526000928352604080842090915290825290205481565b3480156105ce57600080fd5b506007546105ec90660100000000000090046001600160a01b031681565b6040516001600160a01b039091168152602001610202565b6101cb610612366004615a4b565b6145e7565b61061f614956565b6001600160a01b03811661063257600080fd5b61063b816149a1565b6106705760405162461bcd60e51b81526020600482015260016024820152601960f91b60448201526064015b60405180910390fd5b600060068054806020026020016040519081016040528092919081815260200182805480156106c857602002820191906000526020600020905b81546001600160a01b031681526001909101906020018083116106aa575b505050505090506000805b825181101561072957836001600160a01b03168382815181106106f8576106f8615a80565b60200260200101516001600160a01b0316141561071757809150610729565b8061072181615aac565b9150506106d3565b50805b60065461073b90600190615ac7565b8110156107c657600661074f826001615ade565b8154811061075f5761075f615a80565b600091825260209091200154600680546001600160a01b03909216918390811061078b5761078b615a80565b600091825260209091200180546001600160a01b0319166001600160a01b0392909216919091179055806107be81615aac565b91505061072c565b5060068054806107d8576107d8615af6565b600082815260209020810160001990810180546001600160a01b0319169055019055505050565b6060610809614956565b6000600980548060200260200160405190810160405280929190818152602001828054801561086157602002820191906000526020600020905b81546001600160a01b03168152600190910190602001808311610843575b505050505090506000815167ffffffffffffffff8111156108845761088461577c565b6040519080825280602002602001820160405280156108df57816020015b6040805160a08101825260008082526020820152606091810182905281810182905260808101919091528152602001906001900390816108a25790505b50905060005b8251811015610bc1576008600084838151811061090457610904615a80565b6020908102919091018101516001600160a01b039081168352828201939093526040918201600020825160a08101845281549485168152600160a01b90940460ff16151584830152600181018054845181850281018501865281815292948601938301828280156109c257602002820191906000526020600020906000905b82829054906101000a900464ffffffffff1664ffffffffff16815260200190600501906020826004010492830192600103820291508084116109835790505b5050505050815260200160028201805480602002602001604051908101604052809291908181526020016000905b82821015610aa6576000848152602090819020604080516080810182526002860290920180548352600181015461ffff81169484019490945291929083019062010000900460ff166003811115610a4957610a49615242565b6003811115610a5a57610a5a615242565b81526020016001820160039054906101000a900460ff166002811115610a8257610a82615242565b6002811115610a9357610a93615242565b81525050815260200190600101906109f0565b50505050815260200160038201805480602002602001604051908101604052809291908181526020016000905b82821015610b89576000848152602090819020604080516080810182526002860290920180548352600181015461ffff81169484019490945291929083019062010000900460ff166003811115610b2c57610b2c615242565b6003811115610b3d57610b3d615242565b81526020016001820160039054906101000a900460ff166002811115610b6557610b65615242565b6002811115610b7657610b76615242565b8152505081526020019060010190610ad3565b5050505081525050828281518110610ba357610ba3615a80565b60200260200101819052508080610bb990615aac565b9150506108e5565b5091505090565b610bd0614a62565b610bfd8135610be6610100840160e08501615b0c565b610bf660e0850160c08601615b27565b6000614a93565b610c2d5760405162461bcd60e51b81526020600482015260016024820152603760f81b6044820152606401610667565b610c3d606082016040830161521e565b6001600160a01b0316336001600160a01b031614610c825760405162461bcd60e51b8152602060048201526002602482015261323360f01b6044820152606401610667565b33600090815260086020908152604080832060030180548251818502810185019093528083529192909190849084015b82821015610d68576000848152602090819020604080516080810182526002860290920180548352600181015461ffff81169484019490945291929083019062010000900460ff166003811115610d0b57610d0b615242565b6003811115610d1c57610d1c615242565b81526020016001820160039054906101000a900460ff166002811115610d4457610d44615242565b6002811115610d5557610d55615242565b8152505081526020019060010190610cb2565b5050336000908152600860205260408120600301549394509150505b81811015610e27578360000135838281518110610da357610da3615a80565b6020026020010151600001511415610e155733600090815260086020526040902060030180546001919083908110610ddd57610ddd615a80565b906000526020600020906002020160010160036101000a81548160ff02191690836002811115610e0f57610e0f615242565b02179055505b80610e1f81615aac565b915050610d84565b5082356000908152600c6020908152604080832080548251818502810185019093528083529192909190830182828015610e8a57602002820191906000526020600020905b81546001600160a01b03168152600190910190602001808311610e6c575b5050505050905060005b81518110156111c857600060086000848481518110610eb557610eb5615a80565b60200260200101516001600160a01b03166001600160a01b031681526020019081526020016000206002018054905067ffffffffffffffff811115610efc57610efc61577c565b604051908082528060200260200182016040528015610f5757816020015b610f4460408051608081018252600080825260208201819052909182019081526020016000905290565b815260200190600190039081610f1a5790505b50905060086000848481518110610f7057610f70615a80565b60200260200101516001600160a01b03166001600160a01b03168152602001908152602001600020600201805480602002602001604051908101604052809291908181526020016000905b82821015611071576000848152602090819020604080516080810182526002860290920180548352600181015461ffff81169484019490945291929083019062010000900460ff16600381111561101457611014615242565b600381111561102557611025615242565b81526020016001820160039054906101000a900460ff16600281111561104d5761104d615242565b600281111561105e5761105e615242565b8152505081526020019060010190610fbb565b50505050905060005b6008600085858151811061109057611090615a80565b60200260200101516001600160a01b03166001600160a01b031681526020019081526020016000206002018054905081101561118d5786600001358282815181106110dd576110dd615a80565b602002602001015160000151141561117b5760016008600086868151811061110757611107615a80565b60200260200101516001600160a01b03166001600160a01b03168152602001908152602001600020600201828154811061114357611143615a80565b906000526020600020906002020160010160036101000a81548160ff0219169083600281111561117557611175615242565b02179055505b8061118581615aac565b91505061107a565b506111b586600001358484815181106111a8576111a8615a80565b6020026020010151614b1e565b50806111c081615aac565b915050610e94565b506000600b816111de60e0880160c08901615b27565b60038111156111ef576111ef615242565b815260200190815260200160002060008660e00160208101906112129190615b0c565b61ffff1661ffff168152602001908152602001600020805480602002602001604051908101604052809291908181526020016000905b828210156113b25760008481526020908190206040805161012081018252600586029092018054835260018101549383019390935260028301546001600160a01b0390811691830191909152600380840154918216606084015260ff600160a01b8304811615156080850152600160a81b83048116151560a085015292939260c0850192600160b01b900416908111156112e4576112e4615242565b60038111156112f5576112f5615242565b81526003820154600160b81b900461ffff16602082015260048201805460409092019161132190615b42565b80601f016020809104026020016040519081016040528092919081815260200182805461134d90615b42565b801561139a5780601f1061136f5761010080835404028352916020019161139a565b820191906000526020600020905b81548152906001019060200180831161137d57829003601f168201915b50505050508152505081526020019060010190611248565b50505050905060005b81518110156114995785600001358282815181106113db576113db615a80565b6020026020010151600001511415611487576001600b600061140360e08a0160c08b01615b27565b600381111561141457611414615242565b815260200190815260200160002060008860e00160208101906114379190615b0c565b61ffff1661ffff168152602001908152602001600020828154811061145e5761145e615a80565b906000526020600020906005020160030160156101000a81548160ff0219169083151502179055505b8061149181615aac565b9150506113bb565b50604080514264ffffffffff168152600160208201819052600082840152915133918835917fb2c608416221878976ddfef731ff33921ea021e89aa0db861bb162a67c8428cf9181900360600190a45050505050565b6114f7614956565b600155565b611504614956565b600355565b6115586040805161012081018252600080825260208201819052918101829052606081018290526080810182905260a081018290529060c0820190815260006020820152606060409091015290565b6000600b600085600381111561157057611570615242565b815260200190815260200160002060008461ffff1661ffff168152602001908152602001600020805480602002602001604051908101604052809291908181526020016000905b828210156117215760008481526020908190206040805161012081018252600586029092018054835260018101549383019390935260028301546001600160a01b0390811691830191909152600380840154918216606084015260ff600160a01b8304811615156080850152600160a81b83048116151560a085015292939260c0850192600160b01b9004169081111561165357611653615242565b600381111561166457611664615242565b81526003820154600160b81b900461ffff16602082015260048201805460409092019161169090615b42565b80601f01602080910402602001604051908101604052809291908181526020018280546116bc90615b42565b80156117095780601f106116de57610100808354040283529160200191611709565b820191906000526020600020905b8154815290600101906020018083116116ec57829003601f168201915b505050505081525050815260200190600101906115b7565b50505050905060005b8151811015611787578582828151811061174657611746615a80565b60200260200101516000015114156117755781818151811061176a5761176a615a80565b602002602001015192505b8061177f81615aac565b91505061172a565b50509392505050565b611798614a62565b6001600160a01b0385166117d25760405162461bcd60e51b81526020600482015260016024820152600760fb1b6044820152606401610667565b600754600160d81b900460ff161561181a5734600154111561181a5760405162461bcd60e51b81526020600482015260016024820152603560f81b6044820152606401610667565b611823856149a1565b6118535760405162461bcd60e51b81526020600482015260016024820152603960f81b6044820152606401610667565b600086116118885760405162461bcd60e51b8152602060048201526002602482015261031360f41b6044820152606401610667565b60208311156118be5760405162461bcd60e51b8152602060048201526002602482015261323560f01b6044820152606401610667565b60008260038111156118d2576118d2615242565b1415611922578061ffff1660001080156118f1575060078161ffff1611155b6119225760405162461bcd60e51b8152602060048201526002602482015261191b60f11b6044820152606401610667565b600182600381111561193657611936615242565b1415611986578061ffff1660001080156119555750601c8161ffff1611155b6119865760405162461bcd60e51b8152602060048201526002602482015261323760f01b6044820152606401610667565b600282600381111561199a5761199a615242565b14156119ea578061ffff1660001080156119b95750605a8161ffff1611155b6119ea5760405162461bcd60e51b8152602060048201526002602482015261064760f31b6044820152606401610667565b60038260038111156119fe576119fe615242565b1415611a4f578061ffff166000108015611a1e575061016d8161ffff1611155b611a4f5760405162461bcd60e51b8152602060048201526002602482015261323960f01b6044820152606401610667565b6000611a96878787878080601f016020809104026020016040519081016040528093929190818152602001838380828437600092019190915250899250889150614c6f9050565b905080600b6000856003811115611aaf57611aaf615242565b81526020808201929092526040908101600090812061ffff87168252835281812080546001818101835591835291849020855160059093020191825592840151928101929092558201516002820180546001600160a01b039283166001600160a01b0319909116179055606083015160038084018054608087015160a08801511515600160a81b0260ff60a81b19911515600160a01b0274ffffffffffffffffffffffffffffffffffffffffff199093169590961694909417179283168417815560c086015193909260ff60b01b1990911661ffff60a81b199091161790600160b01b908490811115611ba457611ba4615242565b021790555060e082015160038201805461ffff909216600160b81b0261ffff60b81b199092169190911790556101008201518051611bec916004840191602090910190615160565b50905050611c3c6040518060800160405280836000015181526020018360e0015161ffff1681526020018360c001516003811115611c2c57611c2c615242565b8152602001600090526001614d5d565b8051604080514264ffffffffff168152600160208201526000918101829052909133917fb2c608416221878976ddfef731ff33921ea021e89aa0db861bb162a67c8428cf9060600160405180910390a450505050505050565b611c9d614956565b600255565b604080516080810182526000808252602082018190529181018290526060810182905290611cd36201518084615b93565b90506000808281611ce78262010bd9615ba7565b611cf49062253d8c615ba7565b9050600062023ab1611d07836004615be7565b611d119190615c6e565b90506004611d228262023ab1615be7565b611d2d906003615ba7565b611d379190615c6e565b611d419083615c9c565b9150600062164b09611d54846001615ba7565b611d6090610fa0615be7565b611d6a9190615c6e565b90506004611d7a826105b5615be7565b611d849190615c6e565b611d8e9084615c9c565b611d9990601f615ba7565b9250600061098f611dab856050615be7565b611db59190615c6e565b905060006050611dc78361098f615be7565b611dd19190615c6e565b611ddb9086615c9c565b9050611de8600b83615c6e565b9450611df585600c615be7565b611e00836002615ba7565b611e0a9190615c9c565b91508483611e19603187615c9c565b611e24906064615be7565b611e2e9190615ba7565b611e389190615ba7565b909750915086828282600060015b838111611e935783811415611e6a57611e6361ffff8e1683615ade565b9150611e81565b611e748585614f10565b611e7e9083615ade565b91505b80611e8b81615aac565b915050611e46565b50809a50611ea58b61ffff1685614f96565b61ffff1660408f0152611eb78f615064565b8e6020019061ffff16908161ffff16815250508b8e6000019061ffff16908161ffff16815250508a8e6060019061ffff16908161ffff168152505050505050505050505050505050919050565b6060808215611ffb5733600090815260086020908152604080832060020180548251818502810185019093528083529193909284015b82821015611ff0576000848152602090819020604080516080810182526002860290920180548352600181015461ffff81169484019490945291929083019062010000900460ff166003811115611f9357611f93615242565b6003811115611fa457611fa4615242565b81526020016001820160039054906101000a900460ff166002811115611fcc57611fcc615242565b6002811115611fdd57611fdd615242565b8152505081526020019060010190611f3a565b5050505090506120e5565b33600090815260086020908152604080832060030180548251818502810185019093528083529193909284015b828210156120de576000848152602090819020604080516080810182526002860290920180548352600181015461ffff81169484019490945291929083019062010000900460ff16600381111561208157612081615242565b600381111561209257612092615242565b81526020016001820160039054906101000a900460ff1660028111156120ba576120ba615242565b60028111156120cb576120cb615242565b8152505081526020019060010190612028565b5050505090505b6000815167ffffffffffffffff8111156121015761210161577c565b60405190808252806020026020018201604052801561219c57816020015b612189604080516101808101909152600060608083018281526080840183905260a0840183905260c0840183905260e08401839052610100840183905261012084018390526101408401929092526101608301528190815260200160008152602001600081525090565b81526020019060019003908161211f5790505b50905060005b82518110156122fd5761220d8382815181106121c0576121c0615a80565b6020026020010151600001518483815181106121de576121de615a80565b6020026020010151604001518584815181106121fc576121fc615a80565b602002602001015160200151611509565b82828151811061221f5761221f615a80565b60200260200101516000018190525082818151811061224057612240615a80565b60200260200101516060015182828151811061225e5761225e615a80565b602002602001015160200190600281111561227b5761227b615242565b9081600281111561228e5761228e615242565b81525050600c60008383815181106122a8576122a8615a80565b602002602001015160000151600001518152602001908152602001600020805490508282815181106122dc576122dc615a80565b602090810291909101015160400152806122f581615aac565b9150506121a2565b509392505050565b600754600160d01b900460ff1661231e5761231e614956565b600754600160d81b900460ff1615612366573460015411156123665760405162461bcd60e51b81526020600482015260016024820152603560f81b6044820152606401610667565b6002543a1061239c5760405162461bcd60e51b81526020600482015260026024820152610c8d60f21b6044820152606401610667565b60006123a74261509a565b60075490915064ffffffffff6101009091048116908216116123f05760405162461bcd60e51b81526020600482015260026024820152610c4d60f21b6044820152606401610667565b60006123fb42611ca2565b90506000805b60038111612eee57600081612417575060208301515b6001821415612424575082515b6002821415612434575060408301515b6003821415612444575060608301515b6000828152600b6020908152604080832061ffff85168452909152812054905b81811015612ed8576000848152600b6020908152604080832061ffff87168452909152902080548290811061249b5761249b615a80565b906000526020600020906005020160030160159054906101000a900460ff16612ec6576000848152600b6020908152604080832061ffff8716845290915281208054839081106124ed576124ed615a80565b60009182526020808320600590920290910154878352600b8252604080842061ffff891685529092529082208054919350908490811061252f5761252f615a80565b6000918252602080832060036005909302019190910154888352600b8252604080842061ffff8a16855290925290822080546001600160a01b039092169350908590811061257f5761257f615a80565b6000918252602080832060016005909302019190910154898352600b8252604080842061ffff8b168552909252908220805491935090869081106125c5576125c5615a80565b6000918252602082206002600590920201015481546001600160a01b0390911692508390612710906125f79083615cdb565b6126019190615b93565b61260b9190615ac7565b6000868152600c602052604081205491925090815b81811015612ebd576003548d141561277157604080518082018252898152602001829052600489815560058390556007805460ff19169055905163a9059cbb60e01b81523391810191909152602481018490526001600160a01b0388169063a9059cbb90604401602060405180830381600087803b1580156126a157600080fd5b505af11580156126b5573d6000803e3d6000fd5b505050506040513d601f19601f820116820180604052508101906126d99190615cfa565b61270a5760405162461bcd60e51b8152602060048201526002602482015261191960f11b6044820152606401610667565b6007546040805164ffffffffff428116825261010090930492909216602083015260009082015233907f90192d7875364a53e351ae63fd2dfef8dc941735b29fb0c504d06a0e21ae602e9060600160405180910390a2505050505050505050505050505050565b60045488148015612783575060055481145b15612796576007805460ff191660011790555b60045415806127ac575060075460ff1615156001145b15612eab576000888152600c602052604081208054839081106127d1576127d1615a80565b600091825260209091200154604051636eb1769f60e11b81526001600160a01b0391821660048201819052306024830152925088918a169063dd62ed3e90604401602060405180830381600087803b15801561282c57600080fd5b505af1158015612840573d6000803e3d6000fd5b505050506040513d601f19601f820116820180604052508101906128649190615d17565b101580156128ed57506040516370a0823160e01b81526001600160a01b0382811660048301528891908a16906370a0823190602401602060405180830381600087803b1580156128b357600080fd5b505af11580156128c7573d6000803e3d6000fd5b505050506040513d601f19601f820116820180604052508101906128eb9190615d17565b115b15612cad578d6128fc81615aac565b9e5061290a90508585615ade565b60008a8152600a602090815260408083206001600160a01b0386168452909152902054909450851015612aa5576000898152600a602090815260408083206001600160a01b038516845290915281208054879290612969908490615ac7565b90915550600090506040805164ffffffffff42168152602081018a90526001600160a01b038416918c91600080516020615df0833981519152910160405180910390a4604080514264ffffffffff1681526001602082015260008183015290516002916001600160a01b038916918c917fb2c608416221878976ddfef731ff33921ea021e89aa0db861bb162a67c8428cf919081900360600190a4612a0d8e6150a9565b6040516323b872dd60e01b81526001600160a01b0382811660048301528781166024830152604482018990528916906323b872dd90606401602060405180830381600087803b158015612a5f57600080fd5b505af1158015612a73573d6000803e3d6000fd5b505050506040513d601f19601f82011682018060405250810190612a979190615cfa565b612aa057600080fd5b612dd6565b60046040805164ffffffffff42168152602081018a90526001600160a01b038416918c91600080516020615df0833981519152910160405180910390a486600160028f1415612b0457612af9600383615b93565b915060029050612b1f565b8e60031415612b1f57612b18600c83615b93565b9150600b90505b60008b8152600a602090815260408083206001600160a01b038716845290915281208054849290612b51908490615ade565b90915550506040516323b872dd60e01b81526001600160a01b038481166004830152306024830152604482018490528b16906323b872dd90606401602060405180830381600087803b158015612ba657600080fd5b505af1158015612bba573d6000803e3d6000fd5b505050506040513d601f19601f82011682018060405250810190612bde9190615cfa565b612be757600080fd5b8e60031480612bf657508e6004145b15612ca6576001600160a01b038a166323b872dd338a612c168587615cdb565b6040516001600160e01b031960e086901b1681526001600160a01b0393841660048201529290911660248301526044820152606401602060405180830381600087803b158015612c6557600080fd5b505af1158015612c79573d6000803e3d6000fd5b505050506040513d601f19601f82011682018060405250810190612c9d9190615cfa565b612ca657600080fd5b5050612dd6565b8d612cb781615aac565b9e50612cc590508585615ade565b60008a8152600a602090815260408083206001600160a01b0386168452909152812080549296508792909190612cfc908490615ac7565b90915550612d0c90508982614b1e565b60036040805164ffffffffff42168152602081018a905233918c91600080516020615df0833981519152910160405180910390a460016040805164ffffffffff42168152602081018a90526001600160a01b038416918c91600080516020615df0833981519152910160405180910390a4604080514264ffffffffff1681526001602082015260008183015290516003916001600160a01b038916918c917fb2c608416221878976ddfef731ff33921ea021e89aa0db861bb162a67c8428cf919081900360600190a45b6000898152600c6020526040902054612df190600190615ac7565b821415612ea95760405163a9059cbb60e01b8152336004820152602481018590526001600160a01b0389169063a9059cbb90604401602060405180830381600087803b158015612e4057600080fd5b505af1158015612e54573d6000803e3d6000fd5b505050506040513d601f19601f82011682018060405250810190612e789190615cfa565b612ea95760405162461bcd60e51b8152602060048201526002602482015261191960f11b6044820152606401610667565b505b80612eb581615aac565b915050612620565b50505050505050505b80612ed081615aac565b915050612464565b5050508080612ee690615aac565b915050612401565b50600060048190556005556007805460ff1916908190556040805164ffffffffff4281168252610100909304909216602083015260019082015233907f90192d7875364a53e351ae63fd2dfef8dc941735b29fb0c504d06a0e21ae602e9060600160405180910390a26001600760018282829054906101000a900464ffffffffff16612f7a9190615d30565b92506101000a81548164ffffffffff021916908364ffffffffff160217905550505050565b6000818152600c60205260408120546060919067ffffffffffffffff811115612fca57612fca61577c565b604051908082528060200260200182016040528015612ff3578160200160208202803683370190505b506000848152600c6020908152604091829020805483518184028101840190945280845293945091929083018282801561305657602002820191906000526020600020905b81546001600160a01b03168152600190910190602001808311613038575b5050506000868152600c60205260408120549394509291505067ffffffffffffffff8111156130875761308761577c565b6040519080825280602002602001820160405280156130cc57816020015b60408051808201909152600080825260208201528152602001906001900390816130a55790505b50905060005b82518110156122fd576000858152600a60205260408120845182908690859081106130ff576130ff615a80565b60200260200101516001600160a01b03166001600160a01b031681526020019081526020016000205490506000604051806040016040528086858151811061314957613149615a80565b60200260200101516001600160a01b031681526020018381525090508084848151811061317857613178615a80565b60200260200101819052505050808061319090615aac565b9150506130d2565b6131a0614956565b600055565b6131ad614956565b336001600160a01b0382161480156131cd57506001600160a01b03811615155b6131d657600080fd5b600780546001600160a01b039092166601000000000000027fffffffffffff0000000000000000000000000000000000000000ffffffffffff909216919091179055565b613222614956565b60078054911515600160d81b0260ff60d81b19909216919091179055565b613248614a62565b33600090815260086020908152604080832060030180548251818502810185019093528083529192909190849084015b8282101561332e576000848152602090819020604080516080810182526002860290920180548352600181015461ffff81169484019490945291929083019062010000900460ff1660038111156132d1576132d1615242565b60038111156132e2576132e2615242565b81526020016001820160039054906101000a900460ff16600281111561330a5761330a615242565b600281111561331b5761331b615242565b8152505081526020019060010190613278565b5050505090506000805b825181101561338157846000015183828151811061335857613358615a80565b602002602001015160000151141561336f57600191505b8061337981615aac565b915050613338565b50806133b45760405162461bcd60e51b8152602060048201526002602482015261062760f31b6044820152606401610667565b83516000908152600c602090815260408083208054825181850281018501909352808352919290919083018282801561341657602002820191906000526020600020905b81546001600160a01b031681526001909101906020018083116133f8575b505050505090506000805b82518110156134da57856001600160a01b031683828151811061344657613446615a80565b60200260200101516001600160a01b031614156134c8576001600160a01b038616600090815260086020526040902060029081018054600194508390811061349057613490615a80565b906000526020600020906002020160010160036101000a81548160ff021916908360028111156134c2576134c2615242565b02179055505b806134d281615aac565b915050613421565b508061350d5760405162461bcd60e51b8152602060048201526002602482015261313960f01b6044820152606401610667565b85516135199086614b1e565b600386516020808901516040805164ffffffffff42168152928301919091526001600160a01b0389169291600080516020615df0833981519152910160405180910390a485516000908152600a602081815260408084206001600160a01b038a8116808752918452828620548c5187529484528286208287529093528185209490945560608a0151905163a9059cbb60e01b8152600481019490945260248401839052919291169063a9059cbb90604401602060405180830381600087803b1580156135e457600080fd5b505af11580156135f8573d6000803e3d6000fd5b505050506040513d601f19601f8201168201806040525081019061361c9190615cfa565b61364d5760405162461bcd60e51b8152602060048201526002602482015261323160f01b6044820152606401610667565b50505050505050565b61365e614a62565b6020810135613673608083016060840161521e565b604051636eb1769f60e11b81523360048201523060248201526001600160a01b03919091169063dd62ed3e90604401602060405180830381600087803b1580156136bc57600080fd5b505af11580156136d0573d6000803e3d6000fd5b505050506040513d601f19601f820116820180604052508101906136f49190615d17565b1015801561379057506020810135613712608083016060840161521e565b6040516370a0823160e01b81523360048201526001600160a01b0391909116906370a0823190602401602060405180830381600087803b15801561375557600080fd5b505af1158015613769573d6000803e3d6000fd5b505050506040513d601f19601f8201168201806040525081019061378d9190615d17565b10155b6137c15760405162461bcd60e51b8152602060048201526002602482015261032360f41b6044820152606401610667565b6137d78135610be6610100840160e08501615b0c565b6138075760405162461bcd60e51b81526020600482015260016024820152603760f81b6044820152606401610667565b80356000818152600c6020908152604080832080546001810182559084529282902090920180546001600160a01b0319163317905581516080810190925291815261389991810161385f610100850160e08601615b0c565b61ffff16815260200161387860e0850160c08601615b27565b600381111561388957613889615242565b8152602001600090526000614d5d565b6020810135600160026138b260e0850160c08601615b27565b60038111156138c3576138c3615242565b14156138df576138d4600383615b93565b91506002905061391a565b60036138f160e0850160c08601615b27565b600381111561390257613902615242565b141561391a57613913600c83615b93565b9150600b90505b82356000908152600a6020908152604080832033845290915281208054849290613945908490615ade565b90915550600290506040805164ffffffffff42168152602080870135908201523391863591600080516020615df0833981519152910160405180910390a460046040805164ffffffffff42168152602080870135908201523391863591600080516020615df0833981519152910160405180910390a46139cb608084016060850161521e565b6040516323b872dd60e01b8152336004820152306024820152604481018490526001600160a01b0391909116906323b872dd90606401602060405180830381600087803b158015613a1b57600080fd5b505af1158015613a2f573d6000803e3d6000fd5b505050506040513d601f19601f82011682018060405250810190613a539190615cfa565b613a5c57600080fd5b6002613a6e60e0850160c08601615b27565b6003811115613a7f57613a7f615242565b1480613aab57506003613a9860e0850160c08601615b27565b6003811115613aa957613aa9615242565b145b15613b7957613ac0608084016060850161521e565b6001600160a01b03166323b872dd33613adf606087016040880161521e565b613ae98587615cdb565b6040516001600160e01b031960e086901b1681526001600160a01b0393841660048201529290911660248301526044820152606401602060405180830381600087803b158015613b3857600080fd5b505af1158015613b4c573d6000803e3d6000fd5b505050506040513d601f19601f82011682018060405250810190613b709190615cfa565b613b7957600080fd5b505050565b6060613b88614956565b60608315613c87576001600160a01b038316600090815260086020908152604080832060020180548251818502810185019093528083529193909284015b82821015613c7c576000848152602090819020604080516080810182526002860290920180548352600181015461ffff81169484019490945291929083019062010000900460ff166003811115613c1f57613c1f615242565b6003811115613c3057613c30615242565b81526020016001820160039054906101000a900460ff166002811115613c5857613c58615242565b6002811115613c6957613c69615242565b8152505081526020019060010190613bc6565b505050509050613d7a565b6001600160a01b038316600090815260086020908152604080832060030180548251818502810185019093528083529193909284015b82821015613d73576000848152602090819020604080516080810182526002860290920180548352600181015461ffff81169484019490945291929083019062010000900460ff166003811115613d1657613d16615242565b6003811115613d2757613d27615242565b81526020016001820160039054906101000a900460ff166002811115613d4f57613d4f615242565b6002811115613d6057613d60615242565b8152505081526020019060010190613cbd565b5050505090505b6000815167ffffffffffffffff811115613d9657613d9661577c565b604051908082528060200260200182016040528015613e3157816020015b613e1e604080516101808101909152600060608083018281526080840183905260a0840183905260c0840183905260e08401839052610100840183905261012084018390526101408401929092526101608301528190815260200160008152602001600081525090565b815260200190600190039081613db45790505b50905060005b8251811015613f4557613e558382815181106121c0576121c0615a80565b828281518110613e6757613e67615a80565b602002602001015160000181905250828181518110613e8857613e88615a80565b602002602001015160600151828281518110613ea657613ea6615a80565b6020026020010151602001906002811115613ec357613ec3615242565b90816002811115613ed657613ed6615242565b81525050600c6000838381518110613ef057613ef0615a80565b60200260200101516000015160000151815260200190815260200160002080549050828281518110613f2457613f24615a80565b60209081029190910101516040015280613f3d81615aac565b915050613e37565b509150505b92915050565b613f58614956565b6001600160a01b038116613f6b57600080fd5b613f74816149a1565b15613fa55760405162461bcd60e51b81526020600482015260016024820152603160f81b6044820152606401610667565b600680546001810182556000919091527ff652222313e28459528d920b65115c16c04f3efc82aaedc97be59f3f377c0d3f0180546001600160a01b0319166001600160a01b0392909216919091179055565b613fff614956565b60078054911515600160d01b0260ff60d01b19909216919091179055565b6000818152600c602090815260409182902080548351818402810184019094528084526060939283018282801561407d57602002820191906000526020600020905b81546001600160a01b0316815260019091019060200180831161405f575b50505050509050919050565b614091614956565b600754660100000000000090046001600160a01b03166108fc6140b661138847615ac7565b6040518115909202916000818181858888f193505050501580156140de573d6000803e3d6000fd5b50565b60606002543a106141195760405162461bcd60e51b81526020600482015260026024820152610c8d60f21b6044820152606401610667565b60006141244261509a565b60075490915064ffffffffff61010090910481169082161161416d5760405162461bcd60e51b81526020600482015260026024820152610c4d60f21b6044820152606401610667565b600061417842611ca2565b9050600080600060035467ffffffffffffffff81111561419a5761419a61577c565b6040519080825280602002602001820160405280156141df57816020015b60408051808201909152600080825260208201528152602001906001900390816141b85790505b50905060005b600381116144c2576000816141fb575060208501515b6001821415614208575084515b6002821415614218575060408501515b6003821415614228575060608501515b60005b6000838152600b6020908152604080832061ffff861684529091529020548110156144ad576000838152600b6020908152604080832061ffff86168452909152902080548290811061427f5761427f615a80565b906000526020600020906005020160030160159054906101000a900460ff1661449b576000838152600b6020908152604080832061ffff8616845290915281208054839081106142d1576142d1615a80565b60009182526020808320600590920290910154868352600b8252604080842061ffff881685529092529082208054919350908490811061431357614313615a80565b6000918252602080832060036005909302019190910154878352600b8252604080842061ffff8916855290925290822080546001600160a01b039092169350908590811061436357614363615a80565b906000526020600020906005020160010154905061439d60405180604001604052806000815260200160006001600160a01b031681525090565b600082612710600054856143b19190615cdb565b6143bb9190615b93565b6143c59190615ac7565b90506000805b6000878152600c6020526040902054811015614493576003548d14156143ff5750989e9d5050505050505050505050505050565b6004541580614415575060075460ff1615156001145b15614481578c61442481615aac565b9d5061443290508383615ade565b91506040518060400160405280838152602001876001600160a01b03168152509350838b8d8151811061446757614467615a80565b60200260200101819052508b8061447d90615aac565b9c50505b8061448b81615aac565b9150506143cb565b505050505050505b806144a581615aac565b91505061422b565b505080806144ba90615aac565b9150506141e5565b506000805b82518110156145225760006001600160a01b03168382815181106144ed576144ed615a80565b6020026020010151602001516001600160a01b0316141561451057809150614522565b8061451a81615aac565b9150506144c7565b5060008167ffffffffffffffff81111561453e5761453e61577c565b60405190808252806020026020018201604052801561458357816020015b604080518082019091526000808252602082015281526020019060019003908161455c5790505b50905060005b828110156145db578381815181106145a3576145a3615a80565b60200260200101518282815181106145bd576145bd615a80565b602002602001018190525080806145d390615aac565b915050614589565b50979650505050505050565b6145ef614a62565b3360009081526008602052604081206002015467ffffffffffffffff81111561461a5761461a61577c565b60405190808252806020026020018201604052801561467557816020015b61466260408051608081018252600080825260208201819052909182019081526020016000905290565b8152602001906001900390816146385790505b50336000908152600860209081526040808320600201805482518185028101850190935280835294955090939092909184015b8282101561475e576000848152602090819020604080516080810182526002860290920180548352600181015461ffff81169484019490945291929083019062010000900460ff16600381111561470157614701615242565b600381111561471257614712615242565b81526020016001820160039054906101000a900460ff16600281111561473a5761473a615242565b600281111561474b5761474b615242565b81525050815260200190600101906146a8565b5050336000908152600860205260408120600201549394509150505b8181101561481b57836000015183828151811061479957614799615a80565b60200260200101516000015114156148095733600090815260086020526040902060029081018054839081106147d1576147d1615a80565b906000526020600020906002020160010160036101000a81548160ff0219169083600281111561480357614803615242565b02179055505b8061481381615aac565b91505061477a565b5082516148289033614b1e565b600383516020808601516040805164ffffffffff4216815292830191909152339291600080516020615df0833981519152910160405180910390a482516000908152600a60208181526040808420338086529083528185205488518652938352818520818652909252808420939093556060860151925163a9059cbb60e01b815260048101919091526024810182905290916001600160a01b03169063a9059cbb90604401602060405180830381600087803b1580156148e757600080fd5b505af11580156148fb573d6000803e3d6000fd5b505050506040513d601f19601f8201168201806040525081019061491f9190615cfa565b6149505760405162461bcd60e51b8152602060048201526002602482015261323160f01b6044820152606401610667565b50505050565b600754660100000000000090046001600160a01b0316331461499f5760405162461bcd60e51b8152602060048201526002602482015261189b60f11b6044820152606401610667565b565b60008060068054806020026020016040519081016040528092919081815260200182805480156149fa57602002820191906000526020600020905b81546001600160a01b031681526001909101906020018083116149dc575b505050505090506000915060005b8151811015614a5b57818181518110614a2357614a23615a80565b60200260200101516001600160a01b0316846001600160a01b03161415614a4957600192505b80614a5381615aac565b915050614a08565b5050919050565b3361499f5760405162461bcd60e51b81526020600482015260016024820152603360f81b6044820152606401610667565b60008060405180608001604052808781526020018661ffff168152602001856003811115614ac357614ac3615242565b8152602001846002811115614ada57614ada615242565b81525090506000614af8826000015183604001518460200151611509565b9050806080015115614b0f57600192505050614b16565b6000925050505b949350505050565b6000828152600c602052604081208054909190815b81811015614bb757846001600160a01b0316848281548110614b5757614b57615a80565b6000918252602090912001546001600160a01b03161415614ba557809250838181548110614b8757614b87615a80565b600091825260209091200180546001600160a01b0319169055614bb7565b80614baf81615aac565b915050614b33565b5082548390614bc890600190615ac7565b81548110614bd857614bd8615a80565b9060005260206000200160009054906101000a90046001600160a01b0316838381548110614c0857614c08615a80565b9060005260206000200160006101000a8154816001600160a01b0302191690836001600160a01b0316021790555082805480614c4657614c46615af6565b600082815260209020810160001990810180546001600160a01b03191690550190555050505050565b614cbe6040805161012081018252600080825260208201819052918101829052606081018290526080810182905260a081018290529060c0820190815260006020820152606060409091015290565b60003386848742604051602001614cd9959493929190615d59565b60408051601f198184030181528282528051602091820120610120840183528084529083018a905233918301919091526001600160a01b038816606083015260016080830152600060a0830152915060c08101856003811115614d3e57614d3e615242565b81526020018461ffff1681526020018681525091505095945050505050565b33600090815260086020526040902054600160a01b900460ff16614de75733600081815260086020526040812080546001600160a01b03199081168417825560098054600181019091557f6e1540171b6c0c960b71a7020d9f60077f6af931a8bbf590da0223dacf75c7af01805490911684179055919052805460ff60a01b1916600160a01b1790555b8015614e9d57336000908152600860209081526040808320600390810180546001808201835591865294849020875160029096020194855592860151928401805461ffff19811661ffff9095169485178255928701518795949093919262ffffff19909216179062010000908490811115614e6457614e64615242565b0217905550606082015160018201805463ff00000019166301000000836002811115614e9257614e92615242565b021790555050505050565b33600090815260086020908152604080832060029081018054600180820183559186529484902087519590920290910193845591850151918301805461ffff19811661ffff909416938417825591860151869493909262ffffff19161762010000836003811115614e6457614e64615242565b60008160011480614f215750816003145b80614f2c5750816005145b80614f375750816007145b80614f425750816008145b80614f4d575081600a145b80614f58575081600c145b15614f655750601f613f4a565b81600214614f755750601e613f4a565b614f7e83615103565b614f8957601c614f8c565b601d5b60ff169392505050565b600080614fa283615103565b15614faf57506001614fb3565b5060005b614fbe81605a615ade565b8411614fcc5783915061505d565b83614fd882605a615ade565b108015614fef5750614feb8160b5615ade565b8411155b1561501057614fff81605a615ade565b6150099085615ac7565b915061505d565b8361501c8260b5615ade565b108015615034575061503081610111615ade565b8411155b1561504457614fff8160b5615ade565b61505081610111615ade565b61505a9085615ac7565b91505b5092915050565b6000806150746201518084615b93565b905060006007615085836003615ade565b61508f9190615db7565b614b16906001615ade565b6000613f4a6201518083615dcb565b6140de816040516024016150bf91815260200190565b60408051601f198184030181529190526020810180517bffffffffffffffffffffffffffffffffffffffffffffffffffffffff1663f82c50f160e01b17905261513f565b6000615110600483615db7565b1580156151265750615123606483615db7565b15155b80613f4a575061513861019083615db7565b1592915050565b80516a636f6e736f6c652e6c6f67602083016000808483855afa5050505050565b82805461516c90615b42565b90600052602060002090601f01602090048101928261518e57600085556151d4565b82601f106151a757805160ff19168380011785556151d4565b828001600101855582156151d4579182015b828111156151d45782518255916020019190600101906151b9565b506151e09291506151e4565b5090565b5b808211156151e057600081556001016151e5565b6001600160a01b03811681146140de57600080fd5b8035615219816151f9565b919050565b60006020828403121561523057600080fd5b813561523b816151f9565b9392505050565b634e487b7160e01b600052602160045260246000fd5b6004811061526857615268615242565b9052565b6003811061526857615268615242565b600081518084526020808501945080840160005b838110156152e65781518051885261ffff8482015116848901526040808201516152bc828b0182615258565b5050606090810151906152d18982018361526c565b50506080969096019590820190600101615290565b509495945050505050565b60006020808301818452808551808352604092508286019150828160051b8701018488016000805b848110156153d557898403603f19018652825180516001600160a01b03168552888101511515898601528781015160a0898701819052815190870181905260c08701918b019085905b8082101561538957825164ffffffffff168452928c0192918c019160019190910190615362565b505050606080830151878303828901526153a3838261527c565b92505050608080830151925086820381880152506153c1818361527c565b978a01979550505091870191600101615319565b50919998505050505050505050565b6000602082840312156153f657600080fd5b813567ffffffffffffffff81111561540d57600080fd5b8201610120818503121561523b57600080fd5b60006020828403121561543257600080fd5b5035919050565b80356004811061521957600080fd5b803561ffff8116811461521957600080fd5b60008060006060848603121561546f57600080fd5b8335925061547f60208501615439565b915061548d60408501615448565b90509250925092565b60005b838110156154b1578181015183820152602001615499565b838111156149505750506000910152565b600081518084526154da816020860160208601615496565b601f01601f19169290920160200192915050565b600061012082518452602083015160208501526001600160a01b036040840151166040850152606083015161552e60608601826001600160a01b03169052565b506080830151615542608086018215159052565b5060a083015161555660a086018215159052565b5060c083015161556960c0860182615258565b5060e083015161557f60e086018261ffff169052565b50610100808401518282870152615598838701826154c2565b9695505050505050565b60208152600061523b60208301846154ee565b60008060008060008060a087890312156155ce57600080fd5b8635955060208701356155e0816151f9565b9450604087013567ffffffffffffffff808211156155fd57600080fd5b818901915089601f83011261561157600080fd5b81358181111561562057600080fd5b8a602082850101111561563257600080fd5b60208301965080955050505061564a60608801615439565b915061565860808801615448565b90509295509295509295565b80151581146140de57600080fd5b803561521981615664565b60006020828403121561568f57600080fd5b813561523b81615664565b60006020808301818452808551808352604092508286019150828160051b87010184880160005b8381101561571657603f198984030185528151606081518186526156e7828701826154ee565b915050888201516156fa8a87018261526c565b50908701519387019390935293860193908601906001016156c1565b509098975050505050505050565b602080825282518282018190526000919060409081850190868401855b8281101561576f57815180516001600160a01b03168552860151868501529284019290850190600101615741565b5091979650505050505050565b634e487b7160e01b600052604160045260246000fd5b604051610120810167ffffffffffffffff811182821017156157b6576157b661577c565b60405290565b600082601f8301126157cd57600080fd5b813567ffffffffffffffff808211156157e8576157e861577c565b604051601f8301601f19908116603f011681019082821181831017156158105761581061577c565b8160405283815286602085880101111561582957600080fd5b836020870160208301376000602085830101528094505050505092915050565b6000610120828403121561585c57600080fd5b615864615792565b905081358152602082013560208201526158806040830161520e565b60408201526158916060830161520e565b60608201526158a260808301615672565b60808201526158b360a08301615672565b60a08201526158c460c08301615439565b60c08201526158d560e08301615448565b60e08201526101008083013567ffffffffffffffff8111156158f657600080fd5b615902858286016157bc565b82840152505092915050565b6000806040838503121561592157600080fd5b823567ffffffffffffffff81111561593857600080fd5b61594485828601615849565b9250506020830135615955816151f9565b809150509250929050565b6000806040838503121561597357600080fd5b823561597e81615664565b91506020830135615955816151f9565b6020808252825182820181905260009190848201906040850190845b818110156159cf5783516001600160a01b0316835292840192918401916001016159aa565b50909695505050505050565b602080825282518282018190526000919060409081850190868401855b8281101561576f578151805185528601516001600160a01b03168685015292840192908501906001016159f8565b60008060408385031215615a3957600080fd5b823591506020830135615955816151f9565b600060208284031215615a5d57600080fd5b813567ffffffffffffffff811115615a7457600080fd5b61505a84828501615849565b634e487b7160e01b600052603260045260246000fd5b634e487b7160e01b600052601160045260246000fd5b6000600019821415615ac057615ac0615a96565b5060010190565b600082821015615ad957615ad9615a96565b500390565b60008219821115615af157615af1615a96565b500190565b634e487b7160e01b600052603160045260246000fd5b600060208284031215615b1e57600080fd5b61523b82615448565b600060208284031215615b3957600080fd5b61523b82615439565b600181811c90821680615b5657607f821691505b60208210811415615b7757634e487b7160e01b600052602260045260246000fd5b50919050565b634e487b7160e01b600052601260045260246000fd5b600082615ba257615ba2615b7d565b500490565b6000808212826001600160ff1b0303841381151615615bc857615bc8615a96565b600160ff1b8390038412811615615be157615be1615a96565b50500190565b60006001600160ff1b03600084136000841385830485118282161615615c0f57615c0f615a96565b600160ff1b6000871282811687830589121615615c2e57615c2e615a96565b60008712925087820587128484161615615c4a57615c4a615a96565b87850587128184161615615c6057615c60615a96565b505050929093029392505050565b600082615c7d57615c7d615b7d565b600160ff1b821460001984141615615c9757615c97615a96565b500590565b60008083128015600160ff1b850184121615615cba57615cba615a96565b836001600160ff1b03018313811615615cd557615cd5615a96565b50500390565b6000816000190483118215151615615cf557615cf5615a96565b500290565b600060208284031215615d0c57600080fd5b815161523b81615664565b600060208284031215615d2957600080fd5b5051919050565b600064ffffffffff808316818516808303821115615d5057615d50615a96565b01949350505050565b60006bffffffffffffffffffffffff19808860601b168352808760601b1660148401525061ffff60f01b8560f01b1660288301528351615da081602a850160208801615496565b602a920191820192909252604a0195945050505050565b600082615dc657615dc6615b7d565b500690565b600064ffffffffff80841680615de357615de3615b7d565b9216919091049291505056fefcfb8f783c54c9c729957515ad137cd8832b98c21e44fd7f481e2e7603bfdb5fa26469706673582212206d345bba10af16383937d7dee094f325176d9f0543e1f9aa15185d390fcc070e64736f6c63430008090033",
  "linkReferences": {},
  "deployedLinkReferences": {}
}