{
  "_format": "hh-sol-artifact-1",
  "contractName": "ClockTowerSubscribe",
  "sourceName": "contracts/ClockTowerSubscribe.sol",
  "abi": [
    {
      "inputs": [
        {
          "internalType": "uint256",
          "name": "callerFee_",
          "type": "uint256"
        },
        {
          "internalType": "uint256",
          "name": "systemFee_",
          "type": "uint256"
        },
        {
          "internalType": "uint256",
          "name": "maxRemits_",
          "type": "uint256"
        },
        {
          "internalType": "bool",
          "name": "allowSystemFee_",
          "type": "bool"
        },
        {
          "internalType": "address",
          "name": "admin_",
          "type": "address"
        }
      ],
      "stateMutability": "nonpayable",
      "type": "constructor"
    },
    {
      "inputs": [
        {
          "internalType": "address",
          "name": "token",
          "type": "address"
        }
      ],
      "name": "SafeERC20FailedOperation",
      "type": "error"
    },
    {
      "anonymous": false,
      "inputs": [
        {
          "indexed": true,
          "internalType": "uint40",
          "name": "timestamp",
          "type": "uint40"
        },
        {
          "indexed": true,
          "internalType": "uint40",
          "name": "checkedDay",
          "type": "uint40"
        },
        {
          "indexed": true,
          "internalType": "address",
          "name": "caller",
          "type": "address"
        },
        {
          "indexed": false,
          "internalType": "bool",
          "name": "isFinished",
          "type": "bool"
        }
      ],
      "name": "CallerLog",
      "type": "event"
    },
    {
      "anonymous": false,
      "inputs": [
        {
          "indexed": true,
          "internalType": "bytes32",
          "name": "id",
          "type": "bytes32"
        },
        {
          "indexed": true,
          "internalType": "address",
          "name": "provider",
          "type": "address"
        },
        {
          "indexed": true,
          "internalType": "uint40",
          "name": "timestamp",
          "type": "uint40"
        },
        {
          "indexed": false,
          "internalType": "string",
          "name": "url",
          "type": "string"
        },
        {
          "indexed": false,
          "internalType": "string",
          "name": "description",
          "type": "string"
        }
      ],
      "name": "DetailsLog",
      "type": "event"
    },
    {
      "anonymous": false,
      "inputs": [
        {
          "indexed": true,
          "internalType": "address",
          "name": "provider",
          "type": "address"
        },
        {
          "indexed": true,
          "internalType": "uint40",
          "name": "timestamp",
          "type": "uint40"
        },
        {
          "indexed": true,
          "internalType": "string",
          "name": "description",
          "type": "string"
        },
        {
          "indexed": false,
          "internalType": "string",
          "name": "company",
          "type": "string"
        },
        {
          "indexed": false,
          "internalType": "string",
          "name": "url",
          "type": "string"
        },
        {
          "indexed": false,
          "internalType": "string",
          "name": "domain",
          "type": "string"
        },
        {
          "indexed": false,
          "internalType": "string",
          "name": "email",
          "type": "string"
        },
        {
          "indexed": false,
          "internalType": "string",
          "name": "misc",
          "type": "string"
        }
      ],
      "name": "ProvDetailsLog",
      "type": "event"
    },
    {
      "anonymous": false,
      "inputs": [
        {
          "indexed": true,
          "internalType": "bytes32",
          "name": "id",
          "type": "bytes32"
        },
        {
          "indexed": true,
          "internalType": "address",
          "name": "provider",
          "type": "address"
        },
        {
          "indexed": true,
          "internalType": "address",
          "name": "subscriber",
          "type": "address"
        },
        {
          "indexed": false,
          "internalType": "uint40",
          "name": "timestamp",
          "type": "uint40"
        },
        {
          "indexed": false,
          "internalType": "uint256",
          "name": "amount",
          "type": "uint256"
        },
        {
          "indexed": false,
          "internalType": "address",
          "name": "token",
          "type": "address"
        },
        {
          "indexed": false,
          "internalType": "enum ClockTowerSubscribe.SubscriptEvent",
          "name": "subScriptEvent",
          "type": "uint8"
        }
      ],
      "name": "SubLog",
      "type": "event"
    },
    {
      "inputs": [
        {
          "internalType": "uint256",
          "name": "",
          "type": "uint256"
        }
      ],
      "name": "accountLookup",
      "outputs": [
        {
          "internalType": "address",
          "name": "",
          "type": "address"
        }
      ],
      "stateMutability": "view",
      "type": "function"
    },
    {
      "inputs": [
        {
          "internalType": "address",
          "name": "erc20Contract",
          "type": "address"
        },
        {
          "internalType": "uint256",
          "name": "minimum",
          "type": "uint256"
        },
        {
          "internalType": "uint8",
          "name": "decimals",
          "type": "uint8"
        }
      ],
      "name": "addERC20Contract",
      "outputs": [],
      "stateMutability": "nonpayable",
      "type": "function"
    },
    {
      "inputs": [
        {
          "internalType": "address",
          "name": "",
          "type": "address"
        }
      ],
      "name": "approvedERC20",
      "outputs": [
        {
          "internalType": "address",
          "name": "tokenAddress",
          "type": "address"
        },
        {
          "internalType": "uint256",
          "name": "minimum",
          "type": "uint256"
        },
        {
          "internalType": "uint8",
          "name": "decimals",
          "type": "uint8"
        },
        {
          "internalType": "bool",
          "name": "exists",
          "type": "bool"
        }
      ],
      "stateMutability": "view",
      "type": "function"
    },
    {
      "inputs": [],
      "name": "callerFee",
      "outputs": [
        {
          "internalType": "uint256",
          "name": "",
          "type": "uint256"
        }
      ],
      "stateMutability": "view",
      "type": "function"
    },
    {
      "inputs": [
        {
          "components": [
            {
              "internalType": "bytes32",
              "name": "id",
              "type": "bytes32"
            },
            {
              "internalType": "uint256",
              "name": "amount",
              "type": "uint256"
            },
            {
              "internalType": "address",
              "name": "provider",
              "type": "address"
            },
            {
              "internalType": "address",
              "name": "token",
              "type": "address"
            },
            {
              "internalType": "bool",
              "name": "exists",
              "type": "bool"
            },
            {
              "internalType": "bool",
              "name": "cancelled",
              "type": "bool"
            },
            {
              "internalType": "enum ClockTowerSubscribe.Frequency",
              "name": "frequency",
              "type": "uint8"
            },
            {
              "internalType": "uint16",
              "name": "dueDay",
              "type": "uint16"
            }
          ],
          "internalType": "struct ClockTowerSubscribe.Subscription",
          "name": "subscription",
          "type": "tuple"
        }
      ],
      "name": "cancelSubscription",
      "outputs": [],
      "stateMutability": "nonpayable",
      "type": "function"
    },
    {
      "inputs": [
        {
          "internalType": "address",
          "name": "newAddress",
          "type": "address"
        }
      ],
      "name": "changeAdmin",
      "outputs": [],
      "stateMutability": "nonpayable",
      "type": "function"
    },
    {
      "inputs": [
        {
          "internalType": "uint256",
          "name": "_fee",
          "type": "uint256"
        }
      ],
      "name": "changeCallerFee",
      "outputs": [],
      "stateMutability": "nonpayable",
      "type": "function"
    },
    {
      "inputs": [
        {
          "internalType": "uint256",
          "name": "_maxRemits",
          "type": "uint256"
        }
      ],
      "name": "changeMaxRemits",
      "outputs": [],
      "stateMutability": "nonpayable",
      "type": "function"
    },
    {
      "inputs": [
        {
          "internalType": "address",
          "name": "newSysFeeAddress",
          "type": "address"
        }
      ],
      "name": "changeSysFeeReceiver",
      "outputs": [],
      "stateMutability": "nonpayable",
      "type": "function"
    },
    {
      "inputs": [
        {
          "internalType": "uint256",
          "name": "_sys_fee",
          "type": "uint256"
        }
      ],
      "name": "changeSystemFee",
      "outputs": [],
      "stateMutability": "nonpayable",
      "type": "function"
    },
    {
      "inputs": [
        {
          "internalType": "uint256",
          "name": "amount",
          "type": "uint256"
        },
        {
          "internalType": "address",
          "name": "token",
          "type": "address"
        },
        {
          "components": [
            {
              "internalType": "string",
              "name": "url",
              "type": "string"
            },
            {
              "internalType": "string",
              "name": "description",
              "type": "string"
            }
          ],
          "internalType": "struct ClockTowerSubscribe.Details",
          "name": "details",
          "type": "tuple"
        },
        {
          "internalType": "enum ClockTowerSubscribe.Frequency",
          "name": "frequency",
          "type": "uint8"
        },
        {
          "internalType": "uint16",
          "name": "dueDay",
          "type": "uint16"
        }
      ],
      "name": "createSubscription",
      "outputs": [],
      "stateMutability": "nonpayable",
      "type": "function"
    },
    {
      "inputs": [
        {
          "components": [
            {
              "internalType": "string",
              "name": "url",
              "type": "string"
            },
            {
              "internalType": "string",
              "name": "description",
              "type": "string"
            }
          ],
          "internalType": "struct ClockTowerSubscribe.Details",
          "name": "details",
          "type": "tuple"
        },
        {
          "internalType": "bytes32",
          "name": "id",
          "type": "bytes32"
        }
      ],
      "name": "editDetails",
      "outputs": [],
      "stateMutability": "nonpayable",
      "type": "function"
    },
    {
      "inputs": [
        {
          "components": [
            {
              "internalType": "string",
              "name": "description",
              "type": "string"
            },
            {
              "internalType": "string",
              "name": "company",
              "type": "string"
            },
            {
              "internalType": "string",
              "name": "url",
              "type": "string"
            },
            {
              "internalType": "string",
              "name": "domain",
              "type": "string"
            },
            {
              "internalType": "string",
              "name": "email",
              "type": "string"
            },
            {
              "internalType": "string",
              "name": "misc",
              "type": "string"
            }
          ],
          "internalType": "struct ClockTowerSubscribe.ProviderDetails",
          "name": "details",
          "type": "tuple"
        }
      ],
      "name": "editProvDetails",
      "outputs": [],
      "stateMutability": "nonpayable",
      "type": "function"
    },
    {
      "inputs": [
        {
          "internalType": "bytes32",
          "name": "",
          "type": "bytes32"
        },
        {
          "internalType": "address",
          "name": "",
          "type": "address"
        }
      ],
      "name": "feeBalance",
      "outputs": [
        {
          "internalType": "uint256",
          "name": "",
          "type": "uint256"
        }
      ],
      "stateMutability": "view",
      "type": "function"
    },
    {
      "inputs": [],
      "name": "feeEstimate",
      "outputs": [
        {
          "components": [
            {
              "internalType": "uint256",
              "name": "fee",
              "type": "uint256"
            },
            {
              "internalType": "address",
              "name": "token",
              "type": "address"
            }
          ],
          "internalType": "struct ClockTowerSubscribe.FeeEstimate[]",
          "name": "",
          "type": "tuple[]"
        }
      ],
      "stateMutability": "view",
      "type": "function"
    },
    {
      "inputs": [
        {
          "internalType": "address",
          "name": "account",
          "type": "address"
        }
      ],
      "name": "getAccount",
      "outputs": [
        {
          "components": [
            {
              "internalType": "address",
              "name": "accountAddress",
              "type": "address"
            },
            {
              "internalType": "bool",
              "name": "exists",
              "type": "bool"
            },
            {
              "components": [
                {
                  "internalType": "bytes32",
                  "name": "id",
                  "type": "bytes32"
                },
                {
                  "internalType": "uint16",
                  "name": "dueDay",
                  "type": "uint16"
                },
                {
                  "internalType": "enum ClockTowerSubscribe.Frequency",
                  "name": "frequency",
                  "type": "uint8"
                },
                {
                  "internalType": "enum ClockTowerSubscribe.Status",
                  "name": "status",
                  "type": "uint8"
                }
              ],
              "internalType": "struct ClockTowerSubscribe.SubIndex[]",
              "name": "subscriptions",
              "type": "tuple[]"
            },
            {
              "components": [
                {
                  "internalType": "bytes32",
                  "name": "id",
                  "type": "bytes32"
                },
                {
                  "internalType": "uint16",
                  "name": "dueDay",
                  "type": "uint16"
                },
                {
                  "internalType": "enum ClockTowerSubscribe.Frequency",
                  "name": "frequency",
                  "type": "uint8"
                },
                {
                  "internalType": "enum ClockTowerSubscribe.Status",
                  "name": "status",
                  "type": "uint8"
                }
              ],
              "internalType": "struct ClockTowerSubscribe.SubIndex[]",
              "name": "provSubs",
              "type": "tuple[]"
            }
          ],
          "internalType": "struct ClockTowerSubscribe.Account",
          "name": "",
          "type": "tuple"
        }
      ],
      "stateMutability": "view",
      "type": "function"
    },
    {
      "inputs": [
        {
          "internalType": "bool",
          "name": "bySubscriber",
          "type": "bool"
        },
        {
          "internalType": "address",
          "name": "account",
          "type": "address"
        }
      ],
      "name": "getAccountSubscriptions",
      "outputs": [
        {
          "components": [
            {
              "components": [
                {
                  "internalType": "bytes32",
                  "name": "id",
                  "type": "bytes32"
                },
                {
                  "internalType": "uint256",
                  "name": "amount",
                  "type": "uint256"
                },
                {
                  "internalType": "address",
                  "name": "provider",
                  "type": "address"
                },
                {
                  "internalType": "address",
                  "name": "token",
                  "type": "address"
                },
                {
                  "internalType": "bool",
                  "name": "exists",
                  "type": "bool"
                },
                {
                  "internalType": "bool",
                  "name": "cancelled",
                  "type": "bool"
                },
                {
                  "internalType": "enum ClockTowerSubscribe.Frequency",
                  "name": "frequency",
                  "type": "uint8"
                },
                {
                  "internalType": "uint16",
                  "name": "dueDay",
                  "type": "uint16"
                }
              ],
              "internalType": "struct ClockTowerSubscribe.Subscription",
              "name": "subscription",
              "type": "tuple"
            },
            {
              "internalType": "enum ClockTowerSubscribe.Status",
              "name": "status",
              "type": "uint8"
            },
            {
              "internalType": "uint256",
              "name": "totalSubscribers",
              "type": "uint256"
            }
          ],
          "internalType": "struct ClockTowerSubscribe.SubView[]",
          "name": "",
          "type": "tuple[]"
        }
      ],
      "stateMutability": "view",
      "type": "function"
    },
    {
      "inputs": [
        {
          "internalType": "bytes32",
          "name": "id",
          "type": "bytes32"
        },
        {
          "internalType": "enum ClockTowerSubscribe.Frequency",
          "name": "frequency",
          "type": "uint8"
        },
        {
          "internalType": "uint16",
          "name": "dueDay",
          "type": "uint16"
        }
      ],
      "name": "getSubByIndex",
      "outputs": [
        {
          "components": [
            {
              "internalType": "bytes32",
              "name": "id",
              "type": "bytes32"
            },
            {
              "internalType": "uint256",
              "name": "amount",
              "type": "uint256"
            },
            {
              "internalType": "address",
              "name": "provider",
              "type": "address"
            },
            {
              "internalType": "address",
              "name": "token",
              "type": "address"
            },
            {
              "internalType": "bool",
              "name": "exists",
              "type": "bool"
            },
            {
              "internalType": "bool",
              "name": "cancelled",
              "type": "bool"
            },
            {
              "internalType": "enum ClockTowerSubscribe.Frequency",
              "name": "frequency",
              "type": "uint8"
            },
            {
              "internalType": "uint16",
              "name": "dueDay",
              "type": "uint16"
            }
          ],
          "internalType": "struct ClockTowerSubscribe.Subscription",
          "name": "subscription",
          "type": "tuple"
        }
      ],
      "stateMutability": "view",
      "type": "function"
    },
    {
      "inputs": [
        {
          "internalType": "bytes32",
          "name": "id",
          "type": "bytes32"
        }
      ],
      "name": "getSubscribersById",
      "outputs": [
        {
          "components": [
            {
              "internalType": "address",
              "name": "subscriber",
              "type": "address"
            },
            {
              "internalType": "uint256",
              "name": "feeBalance",
              "type": "uint256"
            }
          ],
          "internalType": "struct ClockTowerSubscribe.SubscriberView[]",
          "name": "",
          "type": "tuple[]"
        }
      ],
      "stateMutability": "view",
      "type": "function"
    },
    {
      "inputs": [],
      "name": "getTotalSubscribers",
      "outputs": [
        {
          "internalType": "uint256",
          "name": "",
          "type": "uint256"
        }
      ],
      "stateMutability": "view",
      "type": "function"
    },
    {
      "inputs": [
        {
          "internalType": "bytes32",
          "name": "",
          "type": "bytes32"
        }
      ],
      "name": "idSubMap",
      "outputs": [
        {
          "internalType": "bytes32",
          "name": "id",
          "type": "bytes32"
        },
        {
          "internalType": "uint256",
          "name": "amount",
          "type": "uint256"
        },
        {
          "internalType": "address",
          "name": "provider",
          "type": "address"
        },
        {
          "internalType": "address",
          "name": "token",
          "type": "address"
        },
        {
          "internalType": "bool",
          "name": "exists",
          "type": "bool"
        },
        {
          "internalType": "bool",
          "name": "cancelled",
          "type": "bool"
        },
        {
          "internalType": "enum ClockTowerSubscribe.Frequency",
          "name": "frequency",
          "type": "uint8"
        },
        {
          "internalType": "uint16",
          "name": "dueDay",
          "type": "uint16"
        }
      ],
      "stateMutability": "view",
      "type": "function"
    },
    {
      "inputs": [],
      "name": "maxRemits",
      "outputs": [
        {
          "internalType": "uint256",
          "name": "",
          "type": "uint256"
        }
      ],
      "stateMutability": "view",
      "type": "function"
    },
    {
      "inputs": [],
      "name": "nextUncheckedDay",
      "outputs": [
        {
          "internalType": "uint40",
          "name": "",
          "type": "uint40"
        }
      ],
      "stateMutability": "view",
      "type": "function"
    },
    {
      "inputs": [],
      "name": "remit",
      "outputs": [],
      "stateMutability": "nonpayable",
      "type": "function"
    },
    {
      "inputs": [
        {
          "components": [
            {
              "internalType": "bytes32",
              "name": "id",
              "type": "bytes32"
            },
            {
              "internalType": "uint256",
              "name": "amount",
              "type": "uint256"
            },
            {
              "internalType": "address",
              "name": "provider",
              "type": "address"
            },
            {
              "internalType": "address",
              "name": "token",
              "type": "address"
            },
            {
              "internalType": "bool",
              "name": "exists",
              "type": "bool"
            },
            {
              "internalType": "bool",
              "name": "cancelled",
              "type": "bool"
            },
            {
              "internalType": "enum ClockTowerSubscribe.Frequency",
              "name": "frequency",
              "type": "uint8"
            },
            {
              "internalType": "uint16",
              "name": "dueDay",
              "type": "uint16"
            }
          ],
          "internalType": "struct ClockTowerSubscribe.Subscription",
          "name": "subscription",
          "type": "tuple"
        }
      ],
      "name": "subscribe",
      "outputs": [],
      "stateMutability": "nonpayable",
      "type": "function"
    },
    {
      "inputs": [],
      "name": "systemFee",
      "outputs": [
        {
          "internalType": "uint256",
          "name": "",
          "type": "uint256"
        }
      ],
      "stateMutability": "view",
      "type": "function"
    },
    {
      "inputs": [
        {
          "internalType": "bool",
          "name": "status",
          "type": "bool"
        }
      ],
      "name": "systemFeeActivate",
      "outputs": [],
      "stateMutability": "nonpayable",
      "type": "function"
    },
    {
      "inputs": [
        {
          "components": [
            {
              "internalType": "bytes32",
              "name": "id",
              "type": "bytes32"
            },
            {
              "internalType": "uint256",
              "name": "amount",
              "type": "uint256"
            },
            {
              "internalType": "address",
              "name": "provider",
              "type": "address"
            },
            {
              "internalType": "address",
              "name": "token",
              "type": "address"
            },
            {
              "internalType": "bool",
              "name": "exists",
              "type": "bool"
            },
            {
              "internalType": "bool",
              "name": "cancelled",
              "type": "bool"
            },
            {
              "internalType": "enum ClockTowerSubscribe.Frequency",
              "name": "frequency",
              "type": "uint8"
            },
            {
              "internalType": "uint16",
              "name": "dueDay",
              "type": "uint16"
            }
          ],
          "internalType": "struct ClockTowerSubscribe.Subscription",
          "name": "subscription",
          "type": "tuple"
        }
      ],
      "name": "unsubscribe",
      "outputs": [],
      "stateMutability": "nonpayable",
      "type": "function"
    },
    {
      "inputs": [
        {
          "components": [
            {
              "internalType": "bytes32",
              "name": "id",
              "type": "bytes32"
            },
            {
              "internalType": "uint256",
              "name": "amount",
              "type": "uint256"
            },
            {
              "internalType": "address",
              "name": "provider",
              "type": "address"
            },
            {
              "internalType": "address",
              "name": "token",
              "type": "address"
            },
            {
              "internalType": "bool",
              "name": "exists",
              "type": "bool"
            },
            {
              "internalType": "bool",
              "name": "cancelled",
              "type": "bool"
            },
            {
              "internalType": "enum ClockTowerSubscribe.Frequency",
              "name": "frequency",
              "type": "uint8"
            },
            {
              "internalType": "uint16",
              "name": "dueDay",
              "type": "uint16"
            }
          ],
          "internalType": "struct ClockTowerSubscribe.Subscription",
          "name": "subscription",
          "type": "tuple"
        },
        {
          "internalType": "address",
          "name": "subscriber",
          "type": "address"
        }
      ],
      "name": "unsubscribeByProvider",
      "outputs": [],
      "stateMutability": "nonpayable",
      "type": "function"
    }
  ],
  "bytecode": "0x608060405234801561000f575f5ffd5b50604051615bdc380380615bdc83398101604081905261002e9161012c565b6001600160a01b038116610040575f5ffd5b61271085101580156100545750612a518511155b61005c575f5ffd5b61271084101580156100705750614e1f8411155b610078575f5ffd5b5f85905560018490556002838155600a805460ff60a01b1916600160a01b851515021790556100a642610118565b6100b09190610190565b60098054610100600160d01b03191661010064ffffffffff9390931692909202600160301b600160d01b0319169190911766010000000000006001600160a01b0393909316928302179055600a80546001600160a01b0319169091179055506101ee92505050565b5f61012662015180836101b9565b92915050565b5f5f5f5f5f60a08688031215610140575f5ffd5b855160208701516040880151606089015192975090955093508015158114610166575f5ffd5b60808701519092506001600160a01b0381168114610182575f5ffd5b809150509295509295909350565b64ffffffffff828116828216039081111561012657634e487b7160e01b5f52601160045260245ffd5b5f64ffffffffff8316806101db57634e487b7160e01b5f52601260045260245ffd5b8064ffffffffff84160491505092915050565b6159e1806101fb5f395ff3fe608060405234801561000f575f5ffd5b50600436106101c5575f3560e01c80638ef0ef1c116100fe578063cab1c9651161009e578063ebec6eaa1161006e578063ebec6eaa1461049e578063ed601d28146104c8578063f4a2a200146104db578063fbcbc0f114610506575f5ffd5b8063cab1c96514610441578063d10f9e691461044a578063da854a961461045d578063e63d35be14610489575f5ffd5b80639889552e116100d95780639889552e1461039b578063ac2b4e63146103ae578063b25ae32c146103c1578063bd743886146103c9575f5ffd5b80638ef0ef1c146103625780638f28397014610375578063907cedb214610388575f5ffd5b80633c95dad5116101695780637507ba39116101445780637507ba39146103075780637bbf5a6e1461030f57806386525a001461032f57806387d888d31461034f575f5ffd5b80633c95dad5146102ce57806344e49769146102e15780634a1268b8146102f4575f5ffd5b80631f17ee55116101a45780631f17ee551461027c57806327ea9773146102935780632d23f7e7146102a657806334d441d0146102c6575f5ffd5b8062b70977146101c95780630b8590c7146102545780630bec99e814610269575b5f5ffd5b6102376101d7366004614c89565b60116020525f90815260409020805460018201546002830154600390930154919290916001600160a01b039182169181169060ff600160a01b8204811691600160a81b8104821691600160b01b8204169061ffff600160b81b9091041688565b60405161024b989796959493929190614cc8565b60405180910390f35b610267610262366004614d6d565b610526565b005b610267610277366004614c89565b610a9d565b61028560015481565b60405190815260200161024b565b6102676102a1366004614c89565b610aaa565b6102b96102b4366004614de1565b610ab7565b60405161024b9190614e96565b6102855f5481565b6102676102dc366004614ea5565b610c87565b6102676102ef366004614fc4565b611203565b610267610302366004614fe6565b61153e565b61026761161b565b61032261031d366004614c89565b612324565b60405161024b9190615028565b61034261033d36600461507f565b612510565b60405161024b91906150c0565b61026761035d366004614ea5565b6128f9565b610267610370366004614c89565b61326b565b610267610383366004615122565b613277565b61026761039636600461513b565b6132f9565b6102676103a9366004615166565b6136c4565b6102676103bc366004615122565b6136ea565b600c54610285565b61040d6103d7366004615122565b60086020525f90815260409020805460018201546002909201546001600160a01b03909116919060ff8082169161010090041684565b604080516001600160a01b039095168552602085019390935260ff909116918301919091521515606082015260800161024b565b61028560025481565b61026761045836600461517f565b613740565b60095461047390610100900464ffffffffff1681565b60405164ffffffffff909116815260200161024b565b6104916137f4565b60405161024b91906151c1565b6102856104ac36600461520d565b600d60209081525f928352604080842090915290825290205481565b6102676104d63660046152b9565b613c79565b6104ee6104e9366004614c89565b613cf8565b6040516001600160a01b03909116815260200161024b565b610519610514366004615122565b613d20565b60405161024b9190615472565b6001600160a01b0384166105655760405162461bcd60e51b81526020600482015260016024820152600d60fa1b60448201526064015b60405180910390fd5b61056e84613f45565b61059e5760405162461bcd60e51b81526020600482015260016024820152603560f81b604482015260640161055c565b5f8260038111156105b1576105b1614ca0565b036105ff578061ffff165f1080156105ce575060078161ffff1611155b6105ff5760405162461bcd60e51b81526020600482015260026024820152610c4d60f21b604482015260640161055c565b600182600381111561061357610613614ca0565b03610661578061ffff165f1080156106305750601c8161ffff1611155b6106615760405162461bcd60e51b8152602060048201526002602482015261313560f01b604482015260640161055c565b600282600381111561067557610675614ca0565b036106c3578061ffff165f1080156106925750605a8161ffff1611155b6106c35760405162461bcd60e51b8152602060048201526002602482015261189b60f11b604482015260640161055c565b60038260038111156106d7576106d7614ca0565b03610726578061ffff165f1080156106f5575061016d8161ffff1611155b6107265760405162461bcd60e51b8152602060048201526002602482015261313760f01b604482015260640161055c565b6001600160a01b0384165f908152600860205260409020600101548510156107755760405162461bcd60e51b8152602060048201526002602482015261062760f31b604482015260640161055c565b5f61078286868585613f7a565b905080600e5f85600381111561079a5761079a614ca0565b815260208082019290925260409081015f90812061ffff87168252835281812080546001818101835591835291849020855160049093020191825592840151928101929092558201516002820180546001600160a01b039283166001600160a01b0319909116179055606083015160038084018054608087015160a08801511515600160a81b0260ff60a81b19911515600160a01b0274ffffffffffffffffffffffffffffffffffffffffff199093169590961694909417179283168417815560c086015193909260ff60b01b1990911661ffff60a81b199091161790600160b01b90849081111561088e5761088e614ca0565b021790555060e0918201516003918201805461ffff60b81b1916600160b81b61ffff93841602179055604080516080810182528551815293850151909116602084015260c08401516108fd9392918301918111156108ee576108ee614ca0565b81526020015f90526001614083565b80515f9081526011602090815260409182902083518155908301516001820155908201516002820180546001600160a01b039283166001600160a01b0319909116179055606083015160038084018054608087015160a08801511515600160a81b0260ff60a81b19911515600160a01b0274ffffffffffffffffffffffffffffffffffffffffff199093169590961694909417179283168417815560c08601518695949093919260ff60b01b1990911661ffff60a81b199092169190911790600160b01b9084908111156109d3576109d3614ca0565b021790555060e091909101516003909101805461ffff909216600160b81b0261ffff60b81b19909216919091179055805164ffffffffff42169033907f93cda0785d40b289a535b99dc76d4c9cbb6d8146182861ac3ad40509398b1865610a3a88806154d2565b610a4760208b018b6154d2565b604051610a579493929190615544565b60405180910390a4805160608201516040515f92339290915f51602061598c5f395f51905f5291610a8d9142918d918890615585565b60405180910390a4505050505050565b610aa561422f565b600155565b610ab261422f565b600255565b60408051610100810182525f80825260208201819052918101829052606081018290526080810182905260a0810182905260c0810182905260e0810182905290600e81856003811115610b0c57610b0c614ca0565b81526020019081526020015f205f8461ffff1661ffff1681526020019081526020015f20805480602002602001604051908101604052809291908181526020015f905b82821015610c25575f8481526020908190206040805161010081018252600486029092018054835260018101549383019390935260028301546001600160a01b0390811691830191909152600380840154918216606084015260ff600160a01b8304811615156080850152600160a81b83048116151560a085015292939260c0850192600160b01b90041690811115610bea57610bea614ca0565b6003811115610bfb57610bfb614ca0565b81526003919091015461ffff600160b81b9091041660209182015290825260019092019101610b4f565b5050505090505f5b8151811015610c7e5785828281518110610c4957610c496155b6565b60200260200101515f015103610c7657818181518110610c6b57610c6b6155b6565b602002602001015192505b600101610c2d565b50509392505050565b610c918135614279565b610cc15760405162461bcd60e51b81526020600482015260016024820152603360f81b604482015260640161055c565b5f610d016020830135600883610cdd6080870160608801615122565b6001600160a01b0316815260208101919091526040015f206002015460ff166142c6565b905080610d146080840160608501615122565b604051636eb1769f60e11b81523360048201523060248201526001600160a01b03919091169063dd62ed3e90604401602060405180830381865afa158015610d5e573d5f5f3e3d5ffd5b505050506040513d601f19601f82011682018060405250810190610d8291906155ca565b10158015610e07575080610d9c6080840160608501615122565b6040516370a0823160e01b81523360048201526001600160a01b0391909116906370a0823190602401602060405180830381865afa158015610de0573d5f5f3e3d5ffd5b505050506040513d601f19601f82011682018060405250810190610e0491906155ca565b10155b610e385760405162461bcd60e51b8152602060048201526002602482015261031360f41b604482015260640161055c565b610e486060830160408401615122565b6001600160a01b03163303610e835760405162461bcd60e51b81526020600482015260016024820152600360fc1b604482015260640161055c565b81355f818152600f6020908152604080832080546001810182559084529282902090920180546001600160a01b03191633179055815160808101909252918152610f12918101610eda610100860160e087016155e1565b61ffff168152602001610ef360e0860160c087016155fa565b6003811115610f0457610f04614ca0565b81526020015f90525f614083565b6020820135600180610f2a60e0860160c087016155fa565b6003811115610f3b57610f3b614ca0565b1480610f6657505f610f5360e0860160c087016155fa565b6003811115610f6457610f64614ca0565b145b15610fb257610fab42610f80610100870160e088016155e1565b61ffff1684610f9560e0890160c08a016155fa565b6003811115610fa657610fa6614ca0565b614338565b9150611058565b6002610fc460e0860160c087016155fa565b6003811115610fd557610fd5614ca0565b0361100757610fef42610f80610100870160e088016155e1565b9150610ffc60038361563b565b915060029050611058565b600361101960e0860160c087016155fa565b600381111561102a5761102a614ca0565b036110585761104442610f80610100870160e088016155e1565b9150611051600c8361563b565b9150600b90505b83355f908152600d602090815260408083203384529091528120805484929061108290849061564e565b909155503390506110996060860160408701615122565b6001600160a01b031685355f51602061598c5f395f51905f524260208901356110c860808b0160608c01615122565b60066040516110da9493929190615585565b60405180910390a4336110f36060860160408701615122565b6001600160a01b031685355f51602061598c5f395f51905f52428661111e60808b0160608c01615122565b60086040516111309493929190615585565b60405180910390a461117533306111548560085f610cdd60808c0160608d01615122565b6111646080890160608a01615122565b6001600160a01b031692919061457c565b600261118760e0860160c087016155fa565b600381111561119857611198614ca0565b14806111c4575060036111b160e0860160c087016155fa565b60038111156111c2576111c2614ca0565b145b156111fd576111fd336111dd6060870160408801615122565b6111546111ea8587615661565b60085f610cdd60808c0160608d01615122565b50505050565b335f908152600b602052604081206001015467ffffffffffffffff81111561122d5761122d614ebf565b60405190808252806020026020018201604052801561128657816020015b611273604080516080810182525f80825260208201819052909182019081526020015f905290565b81526020019060019003908161124b5790505b50335f908152600b60209081526040808320600101805482518185028101850190935280835294955090939092909184015b8282101561136d575f848152602090819020604080516080810182526002860290920180548352600181015461ffff81169484019490945291929083019062010000900460ff16600381111561131057611310614ca0565b600381111561132157611321614ca0565b81526020016001820160039054906101000a900460ff16600281111561134957611349614ca0565b600281111561135a5761135a614ca0565b81525050815260200190600101906112b8565b5050335f908152600b60205260408120600101549394509150505b8181101561141b57835f01518382815181106113a6576113a66155b6565b60200260200101515f01510361141357335f908152600b60205260409020600101805460029190839081106113dd576113dd6155b6565b905f5260205f20906002020160010160036101000a81548160ff0219169083600281111561140d5761140d614ca0565b02179055505b600101611388565b50825161142890336145e3565b336001600160a01b031683604001516001600160a01b0316845f01515f51602061598c5f395f51905f524287602001518860600151600760405161146f9493929190615585565b60405180910390a482515f908152600d602081815260408084203380865290835281852054885186529383528185208186529092528084209390935582860151865160608801519451939492936001600160a01b039092169290915f51602061598c5f395f51905f52916114e99142918891600490615585565b60405180910390a460408085015160608601516001600160a01b03165f908152600860205291909120600201546111fd919061152990849060ff166142c6565b60608701516001600160a01b0316919061471e565b61154661422f565b6001600160a01b038316611558575f5ffd5b61156183613f45565b156115925760405162461bcd60e51b81526020600482015260016024820152603160f81b604482015260640161055c565b604080516080810182526001600160a01b03948516808252602080830195865260ff9485168385019081526001606085018181525f948552600890935294909220925183546001600160a01b031916971696909617825593519181019190915591516002909201805493519290911661ffff199093169290921761010091151591909102179055565b60ff5f5c16156116525760405162461bcd60e51b8152602060048201526002602482015261313960f01b604482015260640161055c565b60015f805c60ff19168217905d505f61166a4261474f565b60095490915064ffffffffff610100909104811690821610156116b35760405162461bcd60e51b81526020600482015260016024820152601b60f91b604482015260640161055c565b6040805160c0810182525f80825260208201819052918101829052606081018290526080810182905260a081019190915260019060095464ffffffffff84811661010090920416146117325760095461172b9061171f90610100900464ffffffffff1662015180615678565b64ffffffffff1661475d565b905061173e565b61173b4261475d565b90505b5f5f5b6003811161223957600354158061176757506006548110801590611767575060075460ff165b15612227575f81611779575060208301515b60018203611785575082515b60028203611794575060408301515b600382036117a3575060608301515b5f828152600e6020908152604080832061ffff85168452909152812054905b818110156122235760035415806117e8575060055481108015906117e8575060075460ff165b1561221b575f848152600e6020908152604080832061ffff8716845290915281208054919850908290811061181f5761181f6155b6565b905f5260205f20906004020160030160159054906101000a900460ff1661221b57604080516080810182525f868152600e602090815283822061ffff881683529052918220805482919085908110611879576118796155b6565b5f91825260208083206004909202909101548352888252600e8152604080832061ffff8a168452825290912080549290910191859081106118bc576118bc6155b6565b5f9182526020808320600360049093020191909101546001600160a01b03168352888252600e8152604080832061ffff8a1684528252909120805492909101918590811061190c5761190c6155b6565b5f9182526020808320600260049093020191909101546001600160a01b03168352888252600e8152604080832061ffff8a1684528252822080549390910192600892919087908110611960576119606155b6565b5f9182526020808320600360049093020191909101546001600160a01b0316835282810193909352604091820181206002015460ff16909352888352600e825280832061ffff891684529091528120805492935090916119e59190859081106119cb576119cb6155b6565b905f5260205f2090600402016001015483606001516142c6565b90505f816127105f54846119f99190615661565b611a03919061563b565b611a0d9190615698565b83515f908152600f602052604081205491925090818115611a3657611a33600183615698565b90505b5f5b82811015612213576002548c03611bae576040805160a0810182528851808252602082018490529181018a9052606081018d9052600160809091018190526003919091556004829055600589905560068c90556007805460ff199081169092179055600980549091169055600a54600160a01b900460ff1615611b27575f8461271060015487611ac89190615661565b611ad2919061563b565b611adc9190615698565b9050611ae88186615698565b9450611b25600a5f9054906101000a90046001600160a01b0316611b10838b606001516142c6565b60208b01516001600160a01b0316919061471e565b505b611b4e33611b39868a606001516142c6565b60208a01516001600160a01b0316919061471e565b6009546040515f81523391610100900464ffffffffff9081169142909116907f90192d7875364a53e351ae63fd2dfef8dc941735b29fb0c504d06a0e21ae602e9060200160405180910390a4505050505050505050505050505050612318565b6003548751148015611bc1575060045481145b15611bd4576009805460ff191660011790555b6003541580611bea575060095460ff1615156001145b1561220b5786515f908152600f60205260408120805483908110611c1057611c106155b6565b5f918252602091829020015490890151604051636eb1769f60e11b81526001600160a01b0392831660048201819052306024830152935089929091169063dd62ed3e90604401602060405180830381865afa158015611c71573d5f5f3e3d5ffd5b505050506040513d601f19601f82011682018060405250810190611c9591906155ca565b10158015611d0f575060208801516040516370a0823160e01b81526001600160a01b038381166004830152899216906370a0823190602401602060405180830381865afa158015611ce8573d5f5f3e3d5ffd5b505050506040513d601f19601f82011682018060405250810190611d0c91906155ca565b10155b15611fc9578c611d1e816156ab565b89515f908152600d602090815260408083206001600160a01b0387168452909152902054909e508710159050611e5a57611d58868661564e565b88515f908152600d602090815260408083206001600160a01b0386168452909152812080549297508892909190611d90908490615698565b92505081905550806001600160a01b031688604001516001600160a01b0316895f01515f51602061598c5f395f51905f52428b8d602001516005604051611dda9493929190615585565b60405180910390a4806001600160a01b031688604001516001600160a01b0316895f01515f51602061598c5f395f51905f52425f8d602001516002604051611e259493929190615585565b60405180910390a4611e55818960400151898b602001516001600160a01b031661457c909392919063ffffffff16565b612175565b87515f908152600d602090815260408083206001600160a01b0385168452909152902054611e88908661564e565b88515f908152600d602090815260408083206001600160a01b0380871680865291845282852094909455818d01518d51938e01519251959a5090949316925f51602061598c5f395f51905f5291611ee59142918e91600890615585565b60405180910390a486600160028e9003611f0f57611f0460038361563b565b915060029050611f29565b8d600303611f2957611f22600c8361563b565b9150600b90505b89515f908152600d602090815260408083206001600160a01b038716845290915281208054849290611f5c90849061564e565b92505081905550611f8c8330611f76858e606001516142c6565b60208e01516001600160a01b031692919061457c565b8d60021480611f9b57508d6003145b15611fc257611fc2838b60400151611f768486611fb89190615661565b8e606001516142c6565b5050612175565b8c611fd3816156ab565b89515f908152600d602090815260408083206001600160a01b0387168452909152902054909e5087101590506120d25761200d868661564e565b88515f908152600d602090815260408083206001600160a01b038616845290915281205491965090612040908890615698565b89515f908152600d602090815260408083206001600160a01b0380881680865291845282852094909455818e01518e51938f0151925195965090949316925f51602061598c5f395f51905f529161209d9142918891600490615585565b60405180910390a46120d089604001516120bb838c606001516142c6565b60208c01516001600160a01b0316919061471e565b505b87516120de90826145e3565b806001600160a01b031688604001516001600160a01b0316895f01515f51602061598c5f395f51905f52428b8d6020015160076040516121219493929190615585565b60405180910390a4806001600160a01b031688604001516001600160a01b0316895f01515f51602061598c5f395f51905f52425f8d60200151600360405161216c9493929190615585565b60405180910390a45b828214801561218357505f84115b1561220957600a54600160a01b900460ff16156121f7575f85612710600154886121ad9190615661565b6121b7919061563b565b6121c19190615698565b90506121cd8187615698565b95506121f5600a5f9054906101000a90046001600160a01b03166120bb838c606001516142c6565b505b61220933611b10878b606001516142c6565b505b600101611a38565b505050505050505b6001016117c2565b5050505b80612231816156ab565b915050611741565b505f6003819055600481905560058190556006556007805460ff199081169091556009805490911690819055604051600181523391610100900464ffffffffff9081169142909116907f90192d7875364a53e351ae63fd2dfef8dc941735b29fb0c504d06a0e21ae602e9060200160405180910390a46001600960018282829054906101000a900464ffffffffff166122d291906156c3565b92506101000a81548164ffffffffff021916908364ffffffffff1602179055508215612313575f60ff19815c16815d5061230a61161b565b50505050612318565b505050505b5f60ff19815c16815d50565b5f818152600f60205260408120546060919067ffffffffffffffff81111561234e5761234e614ebf565b604051908082528060200260200182016040528015612377578160200160208202803683370190505b505f848152600f602090815260409182902080548351818402810184019094528084529394509192908301828280156123d757602002820191905f5260205f20905b81546001600160a01b031681526001909101906020018083116123b9575b5050505f868152600f60205260408120549394509291505067ffffffffffffffff81111561240757612407614ebf565b60405190808252806020026020018201604052801561244b57816020015b604080518082019091525f80825260208201528152602001906001900390816124255790505b5090505f5b8251811015612508575f858152600d602052604081208451829086908590811061247c5761247c6155b6565b60200260200101516001600160a01b03166001600160a01b031681526020019081526020015f205490505f60405180604001604052808685815181106124c4576124c46155b6565b60200260200101516001600160a01b03168152602001838152509050808484815181106124f3576124f36155b6565b60209081029190910101525050600101612450565b509392505050565b606080831561260e576001600160a01b0383165f908152600b6020908152604080832060010180548251818502810185019093528083529193909284015b82821015612603575f848152602090819020604080516080810182526002860290920180548352600181015461ffff81169484019490945291929083019062010000900460ff1660038111156125a6576125a6614ca0565b60038111156125b7576125b7614ca0565b81526020016001820160039054906101000a900460ff1660028111156125df576125df614ca0565b60028111156125f0576125f0614ca0565b815250508152602001906001019061254e565b5050505090506126ff565b6001600160a01b0383165f908152600b6020908152604080832060020180548251818502810185019093528083529193909284015b828210156126f8575f848152602090819020604080516080810182526002860290920180548352600181015461ffff81169484019490945291929083019062010000900460ff16600381111561269b5761269b614ca0565b60038111156126ac576126ac614ca0565b81526020016001820160039054906101000a900460ff1660028111156126d4576126d4614ca0565b60028111156126e5576126e5614ca0565b8152505081526020019060010190612643565b5050505090505b5f815167ffffffffffffffff81111561271a5761271a614ebf565b60405190808252806020026020018201604052801561279e57816020015b60408051610160810182525f606082018181526080830182905260a0830182905260c0830182905260e08301829052610100830182905261012083018290526101408301829052825260208083018290529282015282525f199092019101816127385790505b5090505f5b82518110156128ee5761280d8382815181106127c1576127c16155b6565b60200260200101515f01518483815181106127de576127de6155b6565b6020026020010151604001518584815181106127fc576127fc6155b6565b602002602001015160200151610ab7565b82828151811061281f5761281f6155b6565b60200260200101515f018190525082818151811061283f5761283f6155b6565b60200260200101516060015182828151811061285d5761285d6155b6565b602002602001015160200190600281111561287a5761287a614ca0565b9081600281111561288d5761288d614ca0565b81525050600f5f8383815181106128a6576128a66155b6565b60200260200101515f01515f015181526020019081526020015f20805490508282815181106128d7576128d76155b6565b6020908102919091010151604001526001016127a3565b509150505b92915050565b6129038135614279565b6129335760405162461bcd60e51b81526020600482015260016024820152603360f81b604482015260640161055c565b6129436060820160408301615122565b6001600160a01b0316336001600160a01b0316146129885760405162461bcd60e51b8152602060048201526002602482015261313360f01b604482015260640161055c565b335f908152600b6020908152604080832060020180548251818502810185019093528083529192909190849084015b82821015612a6c575f848152602090819020604080516080810182526002860290920180548352600181015461ffff81169484019490945291929083019062010000900460ff166003811115612a0f57612a0f614ca0565b6003811115612a2057612a20614ca0565b81526020016001820160039054906101000a900460ff166002811115612a4857612a48614ca0565b6002811115612a5957612a59614ca0565b81525050815260200190600101906129b7565b5050335f908152600b60205260408120600201549394509150505b81811015612b1a57835f0135838281518110612aa557612aa56155b6565b60200260200101515f015103612b1257335f908152600b6020526040902060020180546001919083908110612adc57612adc6155b6565b905f5260205f20906002020160010160036101000a81548160ff02191690836002811115612b0c57612b0c614ca0565b02179055505b600101612a87565b5082355f908152600f6020908152604080832080548251818502810185019093528083529192909190830182828015612b7a57602002820191905f5260205f20905b81546001600160a01b03168152600190910190602001808311612b5c575b505050505090505f5b81518110156130015784355f908152600d6020526040812083518290859085908110612bb157612bb16155b6565b60200260200101516001600160a01b03166001600160a01b031681526020019081526020015f20549050828281518110612bed57612bed6155b6565b60200260200101516001600160a01b0316866040016020810190612c119190615122565b6001600160a01b031687355f51602061598c5f395f51905f524285612c3c60808d0160608e01615122565b6009604051612c4e9493929190615585565b60405180910390a485355f908152600d602052604081208451909190859085908110612c7c57612c7c6155b6565b60200260200101516001600160a01b03166001600160a01b031681526020019081526020015f205f9055612cfd838381518110612cbb57612cbb6155b6565b6020026020010151612cdd8360085f8b6060016020810190610cdd9190615122565b612ced60808a0160608b01615122565b6001600160a01b0316919061471e565b5f600b5f858581518110612d1357612d136155b6565b60200260200101516001600160a01b03166001600160a01b031681526020019081526020015f206001018054905067ffffffffffffffff811115612d5957612d59614ebf565b604051908082528060200260200182016040528015612db257816020015b612d9f604080516080810182525f80825260208201819052909182019081526020015f905290565b815260200190600190039081612d775790505b509050600b5f858581518110612dca57612dca6155b6565b60200260200101516001600160a01b03166001600160a01b031681526020019081526020015f20600101805480602002602001604051908101604052809291908181526020015f905b82821015612ec8575f848152602090819020604080516080810182526002860290920180548352600181015461ffff81169484019490945291929083019062010000900460ff166003811115612e6b57612e6b614ca0565b6003811115612e7c57612e7c614ca0565b81526020016001820160039054906101000a900460ff166002811115612ea457612ea4614ca0565b6002811115612eb557612eb5614ca0565b8152505081526020019060010190612e13565b5050505090505f5b600b5f868681518110612ee557612ee56155b6565b60200260200101516001600160a01b03166001600160a01b031681526020019081526020015f2060010180549050811015612fd057875f0135828281518110612f3057612f306155b6565b60200260200101515f015103612fc8576001600b5f878781518110612f5757612f576155b6565b60200260200101516001600160a01b03166001600160a01b031681526020019081526020015f206001018281548110612f9257612f926155b6565b905f5260205f20906002020160010160036101000a81548160ff02191690836002811115612fc257612fc2614ca0565b02179055505b600101612ed0565b50612ff7875f0135858581518110612fea57612fea6155b6565b60200260200101516145e3565b5050600101612b83565b505f600e8161301660e0880160c089016155fa565b600381111561302757613027614ca0565b81526020019081526020015f205f8660e001602081019061304891906155e1565b61ffff1661ffff1681526020019081526020015f20805480602002602001604051908101604052809291908181526020015f905b82821015613152575f8481526020908190206040805161010081018252600486029092018054835260018101549383019390935260028301546001600160a01b0390811691830191909152600380840154918216606084015260ff600160a01b8304811615156080850152600160a81b83048116151560a085015292939260c0850192600160b01b9004169081111561311757613117614ca0565b600381111561312857613128614ca0565b81526003919091015461ffff600160b81b909104166020918201529082526001909201910161307c565b5050505090505f5b815181101561322557855f0135828281518110613179576131796155b6565b60200260200101515f01510361321d576001600e5f61319e60e08a0160c08b016155fa565b60038111156131af576131af614ca0565b81526020019081526020015f205f8860e00160208101906131d091906155e1565b61ffff1661ffff1681526020019081526020015f2082815481106131f6576131f66155b6565b905f5260205f20906004020160030160156101000a81548160ff0219169083151502179055505b60010161315a565b505f3386355f51602061598c5f395f51905f52428461324a60808c0160608d01615122565b600160405161325c9493929190615585565b60405180910390a45050505050565b61327361422f565b5f55565b61327f61422f565b6001600160a01b038116613291575f5ffd5b6009546001600160a01b0366010000000000009091048116908216036132b5575f5ffd5b600980546001600160a01b039092166601000000000000027fffffffffffff0000000000000000000000000000000000000000ffffffffffff909216919091179055565b335f908152600b6020908152604080832060020180548251818502810185019093528083529192909190849084015b828210156133dd575f848152602090819020604080516080810182526002860290920180548352600181015461ffff81169484019490945291929083019062010000900460ff16600381111561338057613380614ca0565b600381111561339157613391614ca0565b81526020016001820160039054906101000a900460ff1660028111156133b9576133b9614ca0565b60028111156133ca576133ca614ca0565b8152505081526020019060010190613328565b5050505090505f5f5b825181101561342257845f0151838281518110613405576134056155b6565b60200260200101515f01510361341a57600191505b6001016133e6565b50806134545760405162461bcd60e51b81526020600482015260016024820152600760fb1b604482015260640161055c565b83515f908152600f60209081526040808320805482518185028101850190935280835291929091908301828280156134b357602002820191905f5260205f20905b81546001600160a01b03168152600190910190602001808311613495575b505050505090505f5f5b825181101561356a57856001600160a01b03168382815181106134e2576134e26155b6565b60200260200101516001600160a01b031603613562576001600160a01b0386165f908152600b60205260409020600190810180549193506002918390811061352c5761352c6155b6565b905f5260205f20906002020160010160036101000a81548160ff0219169083600281111561355c5761355c614ca0565b02179055505b6001016134bd565b508061359c5760405162461bcd60e51b81526020600482015260016024820152603960f81b604482015260640161055c565b85516135a890866145e3565b846001600160a01b031686604001516001600160a01b0316875f01515f51602061598c5f395f51905f52428a602001518b6060015160076040516135ef9493929190615585565b60405180910390a485515f908152600d602081815260408084206001600160a01b03808b16808752918452828620548c51875294845282862082875290935281852094909455808a01518a5160608c015192519495949190931692915f51602061598c5f395f51905f529161366b914291889190600990615585565b60405180910390a460608701516001600160a01b03165f908152600860205260409020600201546136bb9087906136a690849060ff166142c6565b60608a01516001600160a01b0316919061471e565b50505050505050565b6136cc61422f565b600a8054911515600160a01b0260ff60a01b19909216919091179055565b6136f261422f565b6001600160a01b038116613704575f5ffd5b600a546001600160a01b039081169082160361371e575f5ffd5b600a80546001600160a01b0319166001600160a01b0392909216919091179055565b5f61374a33613d20565b90508060200151156137ef575f5b8160600151518110156111fd57828260600151828151811061377c5761377c6155b6565b60200260200101515f0151036137e75764ffffffffff421633847f93cda0785d40b289a535b99dc76d4c9cbb6d8146182861ac3ad40509398b18656137c188806154d2565b6137ce60208b018b6154d2565b6040516137de9493929190615544565b60405180910390a45b600101613758565b505050565b60605f6138004261474f565b60095490915064ffffffffff6101009091048116908216116138485760405162461bcd60e51b81526020600482015260016024820152601b60f91b604482015260640161055c565b5f6138524261475d565b90505f5f5f60025467ffffffffffffffff81111561387257613872614ebf565b6040519080825280602002602001820160405280156138b657816020015b604080518082019091525f80825260208201528152602001906001900390816138905790505b5090505f5b60038111613b6f575f816138d0575060208501515b600182036138dc575084515b600282036138eb575060408501515b600382036138fa575060608501515b5f5b5f838152600e6020908152604080832061ffff86168452909152902054811015613b5a575f838152600e6020908152604080832061ffff86168452909152902080548290811061394e5761394e6155b6565b905f5260205f20906004020160030160159054906101000a900460ff16613b52575f838152600e6020908152604080832061ffff86168452909152812080548390811061399d5761399d6155b6565b5f9182526020808320600490920290910154868352600e8252604080842061ffff88168552909252908220805491935090849081106139de576139de6155b6565b5f918252602080832060036004909302019190910154878352600e8252604080842061ffff8916855290925290822080546001600160a01b0390921693509085908110613a2d57613a2d6155b6565b905f5260205f209060040201600101549050613a6360405180604001604052805f81526020015f6001600160a01b031681525090565b5f826127105f5485613a759190615661565b613a7f919061563b565b613a899190615698565b90505f5f5b5f878152600f6020526040902054811015613b4a576002548d03613ac05750989e9d5050505050505050505050505050565b6003541580613ad6575060095460ff1615156001145b15613b42578c613ae5816156ab565b9d50613af39050838361564e565b91506040518060400160405280838152602001876001600160a01b03168152509350838b8d81518110613b2857613b286155b6565b60200260200101819052508b80613b3e906156ab565b9c50505b600101613a8e565b505050505050505b6001016138fc565b50508080613b67906156ab565b9150506138bb565b505f5f5b8251811015613bc2575f6001600160a01b0316838281518110613b9857613b986155b6565b6020026020010151602001516001600160a01b031603613bba57809150613bc2565b600101613b73565b505f8167ffffffffffffffff811115613bdd57613bdd614ebf565b604051908082528060200260200182016040528015613c2157816020015b604080518082019091525f8082526020820152815260200190600190039081613bfb5790505b5090505f5b82811015613c6d57838181518110613c4057613c406155b6565b6020026020010151828281518110613c5a57613c5a6155b6565b6020908102919091010152600101613c26565b50979650505050505050565b8051604051613c8891906156e0565b60405180910390204264ffffffffff16336001600160a01b03167f34f43abf7a52b609b04511ed963a29ebb76ae3e0ca0ff5594be1c2a84ebd03f284602001518560400151866060015187608001518860a00151604051613ced959493929190615724565b60405180910390a450565b600c8181548110613d07575f80fd5b5f918252602090912001546001600160a01b0316905081565b604080516080810182525f80825260208201526060918101829052818101919091526001600160a01b038281165f908152600b60209081526040808320815160808101835281549586168152600160a01b90950460ff1615158584015260018101805483518186028101860185528181529295938701949293919290919084015b82821015613e56575f848152602090819020604080516080810182526002860290920180548352600181015461ffff81169484019490945291929083019062010000900460ff166003811115613df957613df9614ca0565b6003811115613e0a57613e0a614ca0565b81526020016001820160039054906101000a900460ff166002811115613e3257613e32614ca0565b6002811115613e4357613e43614ca0565b8152505081526020019060010190613da1565b50505050815260200160028201805480602002602001604051908101604052809291908181526020015f905b82821015613f37575f848152602090819020604080516080810182526002860290920180548352600181015461ffff81169484019490945291929083019062010000900460ff166003811115613eda57613eda614ca0565b6003811115613eeb57613eeb614ca0565b81526020016001820160039054906101000a900460ff166002811115613f1357613f13614ca0565b6002811115613f2457613f24614ca0565b8152505081526020019060010190613e82565b505050915250909392505050565b6001600160a01b0381165f90815260086020526040812060020154610100900460ff16613f72575f6128f3565b600192915050565b60408051610100810182525f8082526020808301829052828401829052606083018290526080830182905260a0830182905260c0830182905260e083018290523382526010905291822080549192829190613fd4836156ab565b90915550506040516bffffffffffffffffffffffff193360601b166020820152603481018290524260548201525f9060740160408051601f198184030181528282528051602091820120610100840183528084529083018a905233918301919091526001600160a01b0388166060830152600160808301525f60a0830152915060c0810186600381111561406a5761406a614ca0565b81526020018561ffff1681525092505050949350505050565b335f908152600b6020526040812054600160a01b900460ff161515900361410f57335f818152600b6020526040812080546001600160a01b031990811684178255600c8054600181019091557fdf6966c971051c3d54ec59162606531493a51404a002842f56009d7e5cf4a8c701805490911684179055919052805460ff60a01b1916600160a01b1790555b80156141c057335f908152600b6020908152604080832060029081018054600180820183559186529484902087519590920290910193845591850151918301805461ffff19811661ffff909416938417825591860151869493909262ffffff1916176201000083600381111561418757614187614ca0565b0217905550606082015160018201805463ff000000191663010000008360028111156141b5576141b5614ca0565b021790555050505050565b335f908152600b6020908152604080832060019081018054808301825590855293839020865160029095020193845591850151918301805461ffff19811661ffff909416938417825591860151869493909262ffffff1916176201000083600381111561418757614187614ca0565b600954660100000000000090046001600160a01b031633146142775760405162461bcd60e51b81526020600482015260016024820152603760f81b604482015260640161055c565b565b5f8181526011602052604081206002015461429c906001600160a01b03166149ec565b5f828152601160205260409020600201546001600160a01b0316613f7257505f919050565b919050565b5f601260ff83168110156142fb576142de8184615790565b6142e990600a61588c565b6142f39085615661565b9150506128f3565b8060ff168360ff161015614328576143138382615790565b61431e90600a61588c565b6142f3908561563b565b839150506128f3565b5092915050565b5f5f6143438661475d565b90505f5f5f8560ff165f0361436657836020015161ffff169250600791506143ed565b8560ff1660010361439d5761438b846080015161ffff168560a0015161ffff16614a37565b845161ffff16935091508190506143ed565b8560ff166002036143d1576143c2846060015161ffff16856080015161ffff16614abc565b61ffff169250605a91506143ed565b8560ff166003036143ed57836060015161ffff16925061016d91505b8560ff166001036144a7575f61016d61440789600c615661565b614411919061563b565b9050838964ffffffffff161415801561443057508864ffffffffff1684115b156144615761444664ffffffffff8a1685615698565b6144509084615698565b61445a9082615661565b97506144a1565b838964ffffffffff161415801561447e57508864ffffffffff1684105b156144a1576144948464ffffffffff8b16615698565b61449e9082615661565b97505b5061456f565b60ff861615806144ba57508560ff166002145b806144c857508560ff166003145b1561456f57828864ffffffffff16141580156144ea57508764ffffffffff1683115b156145255761450064ffffffffff891684615698565b61450a9083615698565b614514838961563b565b61451e9190615661565b965061456f565b828864ffffffffff161415801561454257508764ffffffffff1683105b1561456f576145588364ffffffffff8a16615698565b614562838961563b565b61456c9190615661565b96505b5094979650505050505050565b6040516001600160a01b0384811660248301528381166044830152606482018390526111fd9186918216906323b872dd906084015b604051602081830303815290604052915060e01b6020820180516001600160e01b038381831617835250505050614b86565b5f828152600f602052604081208054909190815b8181101561466e57846001600160a01b031684828154811061461b5761461b6155b6565b5f918252602090912001546001600160a01b03160361466657809250838181548110614649576146496155b6565b5f91825260209091200180546001600160a01b031916905561466e565b6001016145f7565b508254839061467f90600190615698565b8154811061468f5761468f6155b6565b905f5260205f20015f9054906101000a90046001600160a01b03168383815481106146bc576146bc6155b6565b905f5260205f20015f6101000a8154816001600160a01b0302191690836001600160a01b03160217905550828054806146f7576146f761589a565b5f8281526020902081015f1990810180546001600160a01b03191690550190555050505050565b6040516001600160a01b038381166024830152604482018390526137ef91859182169063a9059cbb906064016145b1565b5f6128f362015180836158ae565b6040805160c0810182525f80825260208201819052918101829052606081018290526080810182905260a081018290529061479b620151808461563b565b90505f8082816147ae8262010bd96158d7565b6147bb9062253d8c6158d7565b90505f62023ab16147cd8360046158fe565b6147d7919061592d565b905060046147e88262023ab16158fe565b6147f39060036158d7565b6147fd919061592d565b6148079083615959565b91505f62164b096148198460016158d7565b61482590610fa06158fe565b61482f919061592d565b9050600461483f826105b56158fe565b614849919061592d565b6148539084615959565b61485e90601f6158d7565b92505f61098f61486f8560506158fe565b614879919061592d565b90505f605061488a8361098f6158fe565b614894919061592d565b61489e9086615959565b90506148ab600b8361592d565b94506148b885600c6158fe565b6148c38360026158d7565b6148cd9190615959565b915084836148dc603187615959565b6148e79060646158fe565b6148f191906158d7565b6148fb91906158d7565b9097509150868282825f60015b8381116149545783810361492b5761492461ffff8e168361564e565b9150614942565b6149358582614a37565b61493f908361564e565b91505b8061494c816156ab565b915050614908565b50809a506149668b61ffff1685614abc565b61ffff1660408f01526149788f614bf2565b8e6020019061ffff16908161ffff16815250508b8e5f019061ffff16908161ffff16815250508a8e6060019061ffff16908161ffff1681525050838e6080019061ffff16908161ffff1681525050828e60a0019061ffff16908161ffff168152505050505050505050505050505050919050565b6040516001600160a01b0382166024820152614a349060440160408051601f198184030181529190526020810180516001600160e01b031663161765e160e11b179052614c26565b50565b5f8160011480614a475750816003145b80614a525750816005145b80614a5d5750816007145b80614a685750816008145b80614a73575081600a145b80614a7e575081600c145b15614a8b5750601f6128f3565b81600214614a9b5750601e6128f3565b614aa483614c2f565b614aaf57601c614ab2565b601d5b60ff169392505050565b5f5f614ac783614c2f565b15614ad457506001614ad7565b505f5b614ae281605a61564e565b8411614af057839150614331565b83614afc82605a61564e565b108015614b135750614b0f8160b561564e565b8411155b15614b3457614b2381605a61564e565b614b2d9085615698565b9150614331565b83614b408260b561564e565b108015614b585750614b548161011161564e565b8411155b15614b6857614b238160b561564e565b614b748161011161564e565b614b7e9085615698565b949350505050565b5f5f60205f8451602086015f885af180614ba5576040513d5f823e3d81fd5b50505f513d91508115614bbc578060011415614bc9565b6001600160a01b0384163b155b156111fd57604051635274afe760e01b81526001600160a01b038516600482015260240161055c565b5f80614c01620151808461563b565b90505f6007614c1183600361564e565b614c1b9190615978565b614b7e90600161564e565b614a3481614c6a565b5f614c3b600483615978565b158015614c515750614c4e606483615978565b15155b806128f35750614c6361019083615978565b1592915050565b5f6a636f6e736f6c652e6c6f6790505f5f835160208501845afa505050565b5f60208284031215614c99575f5ffd5b5035919050565b634e487b7160e01b5f52602160045260245ffd5b60048110614cc457614cc4614ca0565b9052565b888152602081018890526001600160a01b03878116604083015286166060820152841515608082015283151560a08201526101008101614d0b60c0830185614cb4565b61ffff831660e08301529998505050505050505050565b80356001600160a01b03811681146142c1575f5ffd5b5f60408284031215614d48575f5ffd5b50919050565b8035600481106142c1575f5ffd5b803561ffff811681146142c1575f5ffd5b5f5f5f5f5f60a08688031215614d81575f5ffd5b85359450614d9160208701614d22565b9350604086013567ffffffffffffffff811115614dac575f5ffd5b614db888828901614d38565b935050614dc760608701614d4e565b9150614dd560808701614d5c565b90509295509295909350565b5f5f5f60608486031215614df3575f5ffd5b83359250614e0360208501614d4e565b9150614e1160408501614d5c565b90509250925092565b80518252602081015160208301526001600160a01b0360408201511660408301526001600160a01b03606082015116606083015260808101511515608083015260a0810151614e6d60a084018215159052565b5060c0810151614e8060c0840182614cb4565b5060e08101516137ef60e084018261ffff169052565b61010081016128f38284614e1a565b5f610100828403128015614eb7575f5ffd5b509092915050565b634e487b7160e01b5f52604160045260245ffd5b604051610100810167ffffffffffffffff81118282101715614ef757614ef7614ebf565b60405290565b60405160c0810167ffffffffffffffff81118282101715614ef757614ef7614ebf565b803580151581146142c1575f5ffd5b5f6101008284031215614f40575f5ffd5b614f48614ed3565b82358152602080840135908201529050614f6460408301614d22565b6040820152614f7560608301614d22565b6060820152614f8660808301614f20565b6080820152614f9760a08301614f20565b60a0820152614fa860c08301614d4e565b60c0820152614fb960e08301614d5c565b60e082015292915050565b5f6101008284031215614fd5575f5ffd5b614fdf8383614f2f565b9392505050565b5f5f5f60608486031215614ff8575f5ffd5b61500184614d22565b925060208401359150604084013560ff8116811461501d575f5ffd5b809150509250925092565b602080825282518282018190525f918401906040840190835b8181101561507457835180516001600160a01b031684526020908101518185015290930192604090920191600101615041565b509095945050505050565b5f5f60408385031215615090575f5ffd5b61509983614f20565b91506150a760208401614d22565b90509250929050565b60038110614cc457614cc4614ca0565b602080825282518282018190525f918401906040840190835b818110156150745783516150ee848251614e1a565b60208101516151016101008601826150b0565b506040015161012084015260209390930192610140909201916001016150d9565b5f60208284031215615132575f5ffd5b614fdf82614d22565b5f5f610120838503121561514d575f5ffd5b6151578484614f2f565b91506150a76101008401614d22565b5f60208284031215615176575f5ffd5b614fdf82614f20565b5f5f60408385031215615190575f5ffd5b823567ffffffffffffffff8111156151a6575f5ffd5b6151b285828601614d38565b95602094909401359450505050565b602080825282518282018190525f918401906040840190835b81811015615074578351805184526020908101516001600160a01b031681850152909301926040909201916001016151da565b5f5f6040838503121561521e575f5ffd5b823591506150a760208401614d22565b5f82601f83011261523d575f5ffd5b813567ffffffffffffffff81111561525757615257614ebf565b604051601f8201601f19908116603f0116810167ffffffffffffffff8111828210171561528657615286614ebf565b60405281815283820160200185101561529d575f5ffd5b816020850160208301375f918101602001919091529392505050565b5f602082840312156152c9575f5ffd5b813567ffffffffffffffff8111156152df575f5ffd5b820160c081850312156152f0575f5ffd5b6152f8614efd565b813567ffffffffffffffff81111561530e575f5ffd5b61531a8682850161522e565b825250602082013567ffffffffffffffff811115615336575f5ffd5b6153428682850161522e565b602083015250604082013567ffffffffffffffff811115615361575f5ffd5b61536d8682850161522e565b604083015250606082013567ffffffffffffffff81111561538c575f5ffd5b6153988682850161522e565b606083015250608082013567ffffffffffffffff8111156153b7575f5ffd5b6153c38682850161522e565b60808301525060a082013567ffffffffffffffff8111156153e2575f5ffd5b6153ee8682850161522e565b60a083015250949350505050565b5f8151808452602084019350602083015f5b828110156154685781518051875261ffff6020820151166020880152604081015161543c6040890182614cb4565b506060810151905061545160608801826150b0565b50608095909501946020919091019060010161540e565b5093949350505050565b602081526001600160a01b0382511660208201526020820151151560408201525f6040830151608060608401526154ac60a08401826153fc565b90506060840151601f198483030160808501526154c982826153fc565b95945050505050565b5f5f8335601e198436030181126154e7575f5ffd5b83018035915067ffffffffffffffff821115615501575f5ffd5b602001915036819003821315615515575f5ffd5b9250929050565b81835281816020850137505f828201602090810191909152601f909101601f19169091010190565b604081525f61555760408301868861551c565b828103602084015261556a81858761551c565b979650505050505050565b600a8110614cc457614cc4614ca0565b64ffffffffff85168152602081018490526001600160a01b0383166040820152608081016154c96060830184615575565b634e487b7160e01b5f52603260045260245ffd5b5f602082840312156155da575f5ffd5b5051919050565b5f602082840312156155f1575f5ffd5b614fdf82614d5c565b5f6020828403121561560a575f5ffd5b614fdf82614d4e565b634e487b7160e01b5f52601260045260245ffd5b634e487b7160e01b5f52601160045260245ffd5b5f8261564957615649615613565b500490565b808201808211156128f3576128f3615627565b80820281158282048414176128f3576128f3615627565b64ffffffffff818116838216029081169081811461433157614331615627565b818103818111156128f3576128f3615627565b5f600182016156bc576156bc615627565b5060010190565b64ffffffffff81811683821601908111156128f3576128f3615627565b5f82518060208501845e5f920191825250919050565b5f81518084528060208401602086015e5f602082860101526020601f19601f83011685010191505092915050565b60a081525f61573660a08301886156f6565b828103602084015261574881886156f6565b9050828103604084015261575c81876156f6565b9050828103606084015261577081866156f6565b9050828103608084015261578481856156f6565b98975050505050505050565b60ff82811682821603908111156128f3576128f3615627565b6001815b60018411156157e4578085048111156157c8576157c8615627565b60018416156157d657908102905b60019390931c9280026157ad565b935093915050565b5f826157fa575060016128f3565b8161580657505f6128f3565b816001811461581c576002811461582657615842565b60019150506128f3565b60ff84111561583757615837615627565b50506001821b6128f3565b5060208310610133831016604e8410600b8410161715615865575081810a6128f3565b6158715f1984846157a9565b805f190482111561588457615884615627565b029392505050565b5f614fdf60ff8416836157ec565b634e487b7160e01b5f52603160045260245ffd5b5f64ffffffffff8316806158c4576158c4615613565b8064ffffffffff84160491505092915050565b8082018281125f8312801582168215821617156158f6576158f6615627565b505092915050565b8082025f8212600160ff1b8414161561591957615919615627565b81810583148215176128f3576128f3615627565b5f8261593b5761593b615613565b600160ff1b82145f198414161561595457615954615627565b500590565b8181035f83128015838313168383128216171561433157614331615627565b5f8261598657615986615613565b50069056feca6b824caf1a48ea2ad039dbb063460fa30e9c3cc255eeb52240d638ec6de65ea264697066735822122024bf7a32ee2db1bdc484ed19e362292a64d557d08e59bbcaa40ab3c9d890302e64736f6c634300081c0033",
  "linkReferences": {},
  "deployedLinkReferences": {}
}