{
  "_format": "hh-sol-artifact-1",
  "contractName": "ClockTowerTime",
  "sourceName": "contracts/ClockTowerSubscribe.sol",
  "abi": [
    {
      "inputs": [
        {
          "internalType": "uint256",
          "name": "unixTime",
          "type": "uint256"
        }
      ],
      "name": "getDayOfWeek",
      "outputs": [
        {
          "internalType": "uint16",
          "name": "dayOfWeek",
          "type": "uint16"
        }
      ],
      "stateMutability": "pure",
      "type": "function"
    },
    {
      "inputs": [
        {
          "internalType": "uint256",
          "name": "unixTime",
          "type": "uint256"
        },
        {
          "internalType": "uint40",
          "name": "dueDay",
          "type": "uint40"
        },
        {
          "internalType": "uint256",
          "name": "fee",
          "type": "uint256"
        },
        {
          "internalType": "uint8",
          "name": "frequency",
          "type": "uint8"
        }
      ],
      "name": "prorate",
      "outputs": [
        {
          "internalType": "uint256",
          "name": "",
          "type": "uint256"
        }
      ],
      "stateMutability": "pure",
      "type": "function"
    },
    {
      "inputs": [
        {
          "internalType": "uint40",
          "name": "unixTime",
          "type": "uint40"
        }
      ],
      "name": "unixToDays",
      "outputs": [
        {
          "internalType": "uint40",
          "name": "dayCount",
          "type": "uint40"
        }
      ],
      "stateMutability": "pure",
      "type": "function"
    },
    {
      "inputs": [
        {
          "internalType": "uint256",
          "name": "unix",
          "type": "uint256"
        }
      ],
      "name": "unixToTime",
      "outputs": [
        {
          "components": [
            {
              "internalType": "uint16",
              "name": "dayOfMonth",
              "type": "uint16"
            },
            {
              "internalType": "uint16",
              "name": "weekDay",
              "type": "uint16"
            },
            {
              "internalType": "uint16",
              "name": "quarterDay",
              "type": "uint16"
            },
            {
              "internalType": "uint16",
              "name": "yearDay",
              "type": "uint16"
            },
            {
              "internalType": "uint16",
              "name": "year",
              "type": "uint16"
            },
            {
              "internalType": "uint16",
              "name": "month",
              "type": "uint16"
            }
          ],
          "internalType": "struct ClockTowerTime.Time",
          "name": "time",
          "type": "tuple"
        }
      ],
      "stateMutability": "pure",
      "type": "function"
    }
  ],
  "bytecode": "0x610af161003a600b82828239805160001a60731461002d57634e487b7160e01b600052600060045260246000fd5b30600052607381538281f3fe73000000000000000000000000000000000000000030146080604052600436106100565760003560e01c806322f8a2b81461005b57806353a6d6e214610086578063b14c0ed6146100f5578063cf5e4f0c1461011e575b600080fd5b61006e610069366004610803565b61013f565b60405161ffff90911681526020015b60405180910390f35b610099610094366004610803565b61017d565b60405161007d9190600060c08201905061ffff8084511683528060208501511660208401528060408501511660408401528060608501511660608401528060808501511660808401528060a08501511660a08401525092915050565b610108610103366004610836565b610415565b60405164ffffffffff909116815260200161007d565b61013161012c366004610858565b61042a565b60405190815260200161007d565b60008061014f62015180846108d2565b9050600060076101608360036108e6565b61016a91906108fe565b6101759060016108e6565b949350505050565b6040805160c081018252600080825260208201819052918101829052606081018290526080810182905260a08101829052906101bc62015180846108d2565b905060008082816101d08262010bd9610912565b6101dd9062253d8c610912565b9050600062023ab16101f0836004610952565b6101fa91906109d9565b9050600461020b8262023ab1610952565b610216906003610912565b61022091906109d9565b61022a9083610a07565b9150600062164b0961023d846001610912565b61024990610fa0610952565b61025391906109d9565b90506004610263826105b5610952565b61026d91906109d9565b6102779084610a07565b61028290601f610912565b9250600061098f610294856050610952565b61029e91906109d9565b9050600060506102b08361098f610952565b6102ba91906109d9565b6102c49086610a07565b90506102d1600b836109d9565b94506102de85600c610952565b6102e9836002610912565b6102f39190610a07565b91508483610302603187610a07565b61030d906064610952565b6103179190610912565b6103219190610912565b909750915086828282600060015b83811161037c57838114156103535761034c61ffff8e16836108e6565b915061036a565b61035d8585610673565b61036790836108e6565b91505b8061037481610a46565b91505061032f565b50809a5061038e8b61ffff16856106f9565b61ffff1660408f01526103a08f61013f565b8e6020019061ffff16908161ffff16815250508b8e6000019061ffff16908161ffff16815250508a8e6060019061ffff16908161ffff1681525050838e6080019061ffff16908161ffff1681525050828e60a0019061ffff16908161ffff168152505050505050505050505050505050919050565b60006104246201518083610a61565b92915050565b6000806104368661017d565b90506000808060ff861661045857836020015161ffff169250600791506104e2565b8560ff16600114156104905761047e846080015161ffff168560a0015161ffff16610673565b845161ffff16935091508190506104e2565b8560ff16600214156104c5576104b6846060015161ffff16856080015161ffff166106f9565b61ffff169250605a91506104e2565b8560ff16600314156104e257836060015161ffff16925061016d91505b8560ff166001141561059e57600061016d6104fe89600c610a85565b61050891906108d2565b9050838964ffffffffff161415801561052757508864ffffffffff1684115b156105585761053d64ffffffffff8a1685610aa4565b6105479084610aa4565b6105519082610a85565b9750610598565b838964ffffffffff161415801561057557508864ffffffffff1684105b156105985761058b8464ffffffffff8b16610aa4565b6105959082610a85565b97505b50610666565b60ff861615806105b157508560ff166002145b806105bf57508560ff166003145b1561066657828864ffffffffff16141580156105e157508764ffffffffff1683115b1561061c576105f764ffffffffff891684610aa4565b6106019083610aa4565b61060b83896108d2565b6106159190610a85565b9650610666565b828864ffffffffff161415801561063957508764ffffffffff1683105b156106665761064f8364ffffffffff8a16610aa4565b61065983896108d2565b6106639190610a85565b96505b5094979650505050505050565b600081600114806106845750816003145b8061068f5750816005145b8061069a5750816007145b806106a55750816008145b806106b0575081600a145b806106bb575081600c145b156106c85750601f610424565b816002146106d85750601e610424565b6106e1836107c7565b6106ec57601c6106ef565b601d5b60ff169392505050565b600080610705836107c7565b1561071257506001610716565b5060005b61072181605a6108e6565b841161072f578391506107c0565b8361073b82605a6108e6565b108015610752575061074e8160b56108e6565b8411155b156107735761076281605a6108e6565b61076c9085610aa4565b91506107c0565b8361077f8260b56108e6565b1080156107975750610793816101116108e6565b8411155b156107a7576107628160b56108e6565b6107b3816101116108e6565b6107bd9085610aa4565b91505b5092915050565b60006107d46004836108fe565b1580156107ea57506107e76064836108fe565b15155b8061042457506107fc610190836108fe565b1592915050565b60006020828403121561081557600080fd5b5035919050565b803564ffffffffff8116811461083157600080fd5b919050565b60006020828403121561084857600080fd5b6108518261081c565b9392505050565b6000806000806080858703121561086e57600080fd5b8435935061087e6020860161081c565b925060408501359150606085013560ff8116811461089b57600080fd5b939692955090935050565b634e487b7160e01b600052601260045260246000fd5b634e487b7160e01b600052601160045260246000fd5b6000826108e1576108e16108a6565b500490565b600082198211156108f9576108f96108bc565b500190565b60008261090d5761090d6108a6565b500690565b6000808212826001600160ff1b0303841381151615610933576109336108bc565b600160ff1b839003841281161561094c5761094c6108bc565b50500190565b60006001600160ff1b0360008413600084138583048511828216161561097a5761097a6108bc565b600160ff1b6000871282811687830589121615610999576109996108bc565b600087129250878205871284841616156109b5576109b56108bc565b878505871281841616156109cb576109cb6108bc565b505050929093029392505050565b6000826109e8576109e86108a6565b600160ff1b821460001984141615610a0257610a026108bc565b500590565b60008083128015600160ff1b850184121615610a2557610a256108bc565b836001600160ff1b03018313811615610a4057610a406108bc565b50500390565b6000600019821415610a5a57610a5a6108bc565b5060010190565b600064ffffffffff80841680610a7957610a796108a6565b92169190910492915050565b6000816000190483118215151615610a9f57610a9f6108bc565b500290565b600082821015610ab657610ab66108bc565b50039056fea2646970667358221220359e3c664affe21ea772b47e963cc99bee0f80d30fb466fe185135ae303ab55964736f6c63430008090033",
  "linkReferences": {},
  "deployedLinkReferences": {}
}