{
  "_format": "hh-sol-artifact-1",
  "contractName": "ClockTowerSubscribe",
  "sourceName": "contracts/ClockTowerSubscribe.sol",
  "abi": [
    {
      "inputs": [],
      "stateMutability": "payable",
      "type": "constructor"
    },
    {
      "anonymous": false,
      "inputs": [
        {
          "indexed": false,
          "internalType": "uint40",
          "name": "timestamp",
          "type": "uint40"
        },
        {
          "indexed": false,
          "internalType": "uint40",
          "name": "checkedDay",
          "type": "uint40"
        },
        {
          "indexed": true,
          "internalType": "address",
          "name": "caller",
          "type": "address"
        },
        {
          "indexed": false,
          "internalType": "bool",
          "name": "isFinished",
          "type": "bool"
        }
      ],
      "name": "CallerLog",
      "type": "event"
    },
    {
      "anonymous": false,
      "inputs": [
        {
          "indexed": true,
          "internalType": "bytes32",
          "name": "id",
          "type": "bytes32"
        },
        {
          "indexed": true,
          "internalType": "address",
          "name": "provider",
          "type": "address"
        },
        {
          "indexed": true,
          "internalType": "uint40",
          "name": "timestamp",
          "type": "uint40"
        },
        {
          "indexed": false,
          "internalType": "string",
          "name": "url",
          "type": "string"
        },
        {
          "indexed": false,
          "internalType": "string",
          "name": "description",
          "type": "string"
        }
      ],
      "name": "DetailsLog",
      "type": "event"
    },
    {
      "anonymous": false,
      "inputs": [
        {
          "indexed": true,
          "internalType": "address",
          "name": "provider",
          "type": "address"
        },
        {
          "indexed": true,
          "internalType": "uint40",
          "name": "timestamp",
          "type": "uint40"
        },
        {
          "indexed": false,
          "internalType": "string",
          "name": "description",
          "type": "string"
        },
        {
          "indexed": false,
          "internalType": "string",
          "name": "company",
          "type": "string"
        },
        {
          "indexed": false,
          "internalType": "string",
          "name": "url",
          "type": "string"
        },
        {
          "indexed": false,
          "internalType": "string",
          "name": "domain",
          "type": "string"
        },
        {
          "indexed": false,
          "internalType": "string",
          "name": "email",
          "type": "string"
        },
        {
          "indexed": false,
          "internalType": "string",
          "name": "misc",
          "type": "string"
        }
      ],
      "name": "ProvDetailsLog",
      "type": "event"
    },
    {
      "anonymous": false,
      "inputs": [
        {
          "indexed": true,
          "internalType": "bytes32",
          "name": "id",
          "type": "bytes32"
        },
        {
          "indexed": true,
          "internalType": "address",
          "name": "provider",
          "type": "address"
        },
        {
          "indexed": true,
          "internalType": "address",
          "name": "subscriber",
          "type": "address"
        },
        {
          "indexed": false,
          "internalType": "uint40",
          "name": "timestamp",
          "type": "uint40"
        },
        {
          "indexed": false,
          "internalType": "uint256",
          "name": "amount",
          "type": "uint256"
        },
        {
          "indexed": false,
          "internalType": "address",
          "name": "token",
          "type": "address"
        },
        {
          "indexed": false,
          "internalType": "enum ClockTowerSubscribe.SubscriptEvent",
          "name": "subScriptEvent",
          "type": "uint8"
        }
      ],
      "name": "SubLog",
      "type": "event"
    },
    {
      "stateMutability": "payable",
      "type": "fallback"
    },
    {
      "inputs": [
        {
          "internalType": "uint256",
          "name": "",
          "type": "uint256"
        }
      ],
      "name": "accountLookup",
      "outputs": [
        {
          "internalType": "address",
          "name": "",
          "type": "address"
        }
      ],
      "stateMutability": "view",
      "type": "function"
    },
    {
      "inputs": [
        {
          "internalType": "address",
          "name": "erc20Contract",
          "type": "address"
        },
        {
          "internalType": "uint256",
          "name": "minimum",
          "type": "uint256"
        }
      ],
      "name": "addERC20Contract",
      "outputs": [],
      "stateMutability": "nonpayable",
      "type": "function"
    },
    {
      "inputs": [
        {
          "internalType": "address",
          "name": "",
          "type": "address"
        }
      ],
      "name": "approvedERC20",
      "outputs": [
        {
          "internalType": "address",
          "name": "tokenAddress",
          "type": "address"
        },
        {
          "internalType": "uint256",
          "name": "minimum",
          "type": "uint256"
        },
        {
          "internalType": "bool",
          "name": "exists",
          "type": "bool"
        }
      ],
      "stateMutability": "view",
      "type": "function"
    },
    {
      "inputs": [],
      "name": "callerFee",
      "outputs": [
        {
          "internalType": "uint256",
          "name": "",
          "type": "uint256"
        }
      ],
      "stateMutability": "view",
      "type": "function"
    },
    {
      "inputs": [
        {
          "components": [
            {
              "internalType": "bytes32",
              "name": "id",
              "type": "bytes32"
            },
            {
              "internalType": "uint256",
              "name": "amount",
              "type": "uint256"
            },
            {
              "internalType": "address",
              "name": "provider",
              "type": "address"
            },
            {
              "internalType": "address",
              "name": "token",
              "type": "address"
            },
            {
              "internalType": "bool",
              "name": "exists",
              "type": "bool"
            },
            {
              "internalType": "bool",
              "name": "cancelled",
              "type": "bool"
            },
            {
              "internalType": "enum ClockTowerSubscribe.Frequency",
              "name": "frequency",
              "type": "uint8"
            },
            {
              "internalType": "uint16",
              "name": "dueDay",
              "type": "uint16"
            }
          ],
          "internalType": "struct ClockTowerSubscribe.Subscription",
          "name": "subscription",
          "type": "tuple"
        }
      ],
      "name": "cancelSubscription",
      "outputs": [],
      "stateMutability": "nonpayable",
      "type": "function"
    },
    {
      "inputs": [
        {
          "internalType": "address payable",
          "name": "newAddress",
          "type": "address"
        }
      ],
      "name": "changeAdmin",
      "outputs": [],
      "stateMutability": "nonpayable",
      "type": "function"
    },
    {
      "inputs": [
        {
          "internalType": "uint256",
          "name": "_fee",
          "type": "uint256"
        }
      ],
      "name": "changeCallerFee",
      "outputs": [],
      "stateMutability": "nonpayable",
      "type": "function"
    },
    {
      "inputs": [
        {
          "internalType": "uint256",
          "name": "_maxRemits",
          "type": "uint256"
        }
      ],
      "name": "changeMaxRemits",
      "outputs": [],
      "stateMutability": "nonpayable",
      "type": "function"
    },
    {
      "inputs": [
        {
          "internalType": "uint256",
          "name": "_fixed_fee",
          "type": "uint256"
        }
      ],
      "name": "changeSystemFee",
      "outputs": [],
      "stateMutability": "nonpayable",
      "type": "function"
    },
    {
      "inputs": [],
      "name": "collectFees",
      "outputs": [],
      "stateMutability": "nonpayable",
      "type": "function"
    },
    {
      "inputs": [
        {
          "internalType": "uint256",
          "name": "amount",
          "type": "uint256"
        },
        {
          "internalType": "address",
          "name": "token",
          "type": "address"
        },
        {
          "components": [
            {
              "internalType": "string",
              "name": "url",
              "type": "string"
            },
            {
              "internalType": "string",
              "name": "description",
              "type": "string"
            }
          ],
          "internalType": "struct ClockTowerSubscribe.Details",
          "name": "details",
          "type": "tuple"
        },
        {
          "internalType": "enum ClockTowerSubscribe.Frequency",
          "name": "frequency",
          "type": "uint8"
        },
        {
          "internalType": "uint16",
          "name": "dueDay",
          "type": "uint16"
        }
      ],
      "name": "createSubscription",
      "outputs": [],
      "stateMutability": "payable",
      "type": "function"
    },
    {
      "inputs": [
        {
          "components": [
            {
              "internalType": "string",
              "name": "url",
              "type": "string"
            },
            {
              "internalType": "string",
              "name": "description",
              "type": "string"
            }
          ],
          "internalType": "struct ClockTowerSubscribe.Details",
          "name": "details",
          "type": "tuple"
        },
        {
          "internalType": "bytes32",
          "name": "id",
          "type": "bytes32"
        }
      ],
      "name": "editDetails",
      "outputs": [],
      "stateMutability": "nonpayable",
      "type": "function"
    },
    {
      "inputs": [
        {
          "components": [
            {
              "internalType": "string",
              "name": "description",
              "type": "string"
            },
            {
              "internalType": "string",
              "name": "company",
              "type": "string"
            },
            {
              "internalType": "string",
              "name": "url",
              "type": "string"
            },
            {
              "internalType": "string",
              "name": "domain",
              "type": "string"
            },
            {
              "internalType": "string",
              "name": "email",
              "type": "string"
            },
            {
              "internalType": "string",
              "name": "misc",
              "type": "string"
            }
          ],
          "internalType": "struct ClockTowerSubscribe.ProviderDetails",
          "name": "details",
          "type": "tuple"
        }
      ],
      "name": "editProvDetails",
      "outputs": [],
      "stateMutability": "nonpayable",
      "type": "function"
    },
    {
      "inputs": [
        {
          "internalType": "bytes32",
          "name": "",
          "type": "bytes32"
        },
        {
          "internalType": "address",
          "name": "",
          "type": "address"
        }
      ],
      "name": "feeBalance",
      "outputs": [
        {
          "internalType": "uint256",
          "name": "",
          "type": "uint256"
        }
      ],
      "stateMutability": "view",
      "type": "function"
    },
    {
      "inputs": [],
      "name": "feeEstimate",
      "outputs": [
        {
          "components": [
            {
              "internalType": "uint256",
              "name": "fee",
              "type": "uint256"
            },
            {
              "internalType": "address",
              "name": "token",
              "type": "address"
            }
          ],
          "internalType": "struct ClockTowerSubscribe.FeeEstimate[]",
          "name": "",
          "type": "tuple[]"
        }
      ],
      "stateMutability": "view",
      "type": "function"
    },
    {
      "inputs": [
        {
          "internalType": "address",
          "name": "account",
          "type": "address"
        }
      ],
      "name": "getAccount",
      "outputs": [
        {
          "components": [
            {
              "internalType": "address",
              "name": "accountAddress",
              "type": "address"
            },
            {
              "internalType": "bool",
              "name": "exists",
              "type": "bool"
            },
            {
              "components": [
                {
                  "internalType": "bytes32",
                  "name": "id",
                  "type": "bytes32"
                },
                {
                  "internalType": "uint16",
                  "name": "dueDay",
                  "type": "uint16"
                },
                {
                  "internalType": "enum ClockTowerSubscribe.Frequency",
                  "name": "frequency",
                  "type": "uint8"
                },
                {
                  "internalType": "enum ClockTowerSubscribe.Status",
                  "name": "status",
                  "type": "uint8"
                }
              ],
              "internalType": "struct ClockTowerSubscribe.SubIndex[]",
              "name": "subscriptions",
              "type": "tuple[]"
            },
            {
              "components": [
                {
                  "internalType": "bytes32",
                  "name": "id",
                  "type": "bytes32"
                },
                {
                  "internalType": "uint16",
                  "name": "dueDay",
                  "type": "uint16"
                },
                {
                  "internalType": "enum ClockTowerSubscribe.Frequency",
                  "name": "frequency",
                  "type": "uint8"
                },
                {
                  "internalType": "enum ClockTowerSubscribe.Status",
                  "name": "status",
                  "type": "uint8"
                }
              ],
              "internalType": "struct ClockTowerSubscribe.SubIndex[]",
              "name": "provSubs",
              "type": "tuple[]"
            }
          ],
          "internalType": "struct ClockTowerSubscribe.Account",
          "name": "",
          "type": "tuple"
        }
      ],
      "stateMutability": "view",
      "type": "function"
    },
    {
      "inputs": [
        {
          "internalType": "bool",
          "name": "bySubscriber",
          "type": "bool"
        },
        {
          "internalType": "address",
          "name": "account",
          "type": "address"
        }
      ],
      "name": "getAccountSubscriptions",
      "outputs": [
        {
          "components": [
            {
              "components": [
                {
                  "internalType": "bytes32",
                  "name": "id",
                  "type": "bytes32"
                },
                {
                  "internalType": "uint256",
                  "name": "amount",
                  "type": "uint256"
                },
                {
                  "internalType": "address",
                  "name": "provider",
                  "type": "address"
                },
                {
                  "internalType": "address",
                  "name": "token",
                  "type": "address"
                },
                {
                  "internalType": "bool",
                  "name": "exists",
                  "type": "bool"
                },
                {
                  "internalType": "bool",
                  "name": "cancelled",
                  "type": "bool"
                },
                {
                  "internalType": "enum ClockTowerSubscribe.Frequency",
                  "name": "frequency",
                  "type": "uint8"
                },
                {
                  "internalType": "uint16",
                  "name": "dueDay",
                  "type": "uint16"
                }
              ],
              "internalType": "struct ClockTowerSubscribe.Subscription",
              "name": "subscription",
              "type": "tuple"
            },
            {
              "internalType": "enum ClockTowerSubscribe.Status",
              "name": "status",
              "type": "uint8"
            },
            {
              "internalType": "uint256",
              "name": "totalSubscribers",
              "type": "uint256"
            }
          ],
          "internalType": "struct ClockTowerSubscribe.SubView[]",
          "name": "",
          "type": "tuple[]"
        }
      ],
      "stateMutability": "view",
      "type": "function"
    },
    {
      "inputs": [
        {
          "internalType": "bytes32",
          "name": "id",
          "type": "bytes32"
        },
        {
          "internalType": "enum ClockTowerSubscribe.Frequency",
          "name": "frequency",
          "type": "uint8"
        },
        {
          "internalType": "uint16",
          "name": "dueDay",
          "type": "uint16"
        }
      ],
      "name": "getSubByIndex",
      "outputs": [
        {
          "components": [
            {
              "internalType": "bytes32",
              "name": "id",
              "type": "bytes32"
            },
            {
              "internalType": "uint256",
              "name": "amount",
              "type": "uint256"
            },
            {
              "internalType": "address",
              "name": "provider",
              "type": "address"
            },
            {
              "internalType": "address",
              "name": "token",
              "type": "address"
            },
            {
              "internalType": "bool",
              "name": "exists",
              "type": "bool"
            },
            {
              "internalType": "bool",
              "name": "cancelled",
              "type": "bool"
            },
            {
              "internalType": "enum ClockTowerSubscribe.Frequency",
              "name": "frequency",
              "type": "uint8"
            },
            {
              "internalType": "uint16",
              "name": "dueDay",
              "type": "uint16"
            }
          ],
          "internalType": "struct ClockTowerSubscribe.Subscription",
          "name": "subscription",
          "type": "tuple"
        }
      ],
      "stateMutability": "view",
      "type": "function"
    },
    {
      "inputs": [
        {
          "internalType": "bytes32",
          "name": "id",
          "type": "bytes32"
        }
      ],
      "name": "getSubscribersById",
      "outputs": [
        {
          "components": [
            {
              "internalType": "address",
              "name": "subscriber",
              "type": "address"
            },
            {
              "internalType": "uint256",
              "name": "feeBalance",
              "type": "uint256"
            }
          ],
          "internalType": "struct ClockTowerSubscribe.SubscriberView[]",
          "name": "",
          "type": "tuple[]"
        }
      ],
      "stateMutability": "view",
      "type": "function"
    },
    {
      "inputs": [],
      "name": "getTotalSubscribers",
      "outputs": [
        {
          "internalType": "uint256",
          "name": "",
          "type": "uint256"
        }
      ],
      "stateMutability": "view",
      "type": "function"
    },
    {
      "inputs": [],
      "name": "maxRemits",
      "outputs": [
        {
          "internalType": "uint256",
          "name": "",
          "type": "uint256"
        }
      ],
      "stateMutability": "view",
      "type": "function"
    },
    {
      "inputs": [],
      "name": "nextUncheckedDay",
      "outputs": [
        {
          "internalType": "uint40",
          "name": "",
          "type": "uint40"
        }
      ],
      "stateMutability": "view",
      "type": "function"
    },
    {
      "inputs": [],
      "name": "remit",
      "outputs": [],
      "stateMutability": "payable",
      "type": "function"
    },
    {
      "inputs": [
        {
          "internalType": "address",
          "name": "erc20Contract",
          "type": "address"
        }
      ],
      "name": "removeERC20Contract",
      "outputs": [],
      "stateMutability": "nonpayable",
      "type": "function"
    },
    {
      "inputs": [
        {
          "internalType": "bool",
          "name": "status",
          "type": "bool"
        }
      ],
      "name": "setExternalCallers",
      "outputs": [],
      "stateMutability": "nonpayable",
      "type": "function"
    },
    {
      "inputs": [
        {
          "components": [
            {
              "internalType": "bytes32",
              "name": "id",
              "type": "bytes32"
            },
            {
              "internalType": "uint256",
              "name": "amount",
              "type": "uint256"
            },
            {
              "internalType": "address",
              "name": "provider",
              "type": "address"
            },
            {
              "internalType": "address",
              "name": "token",
              "type": "address"
            },
            {
              "internalType": "bool",
              "name": "exists",
              "type": "bool"
            },
            {
              "internalType": "bool",
              "name": "cancelled",
              "type": "bool"
            },
            {
              "internalType": "enum ClockTowerSubscribe.Frequency",
              "name": "frequency",
              "type": "uint8"
            },
            {
              "internalType": "uint16",
              "name": "dueDay",
              "type": "uint16"
            }
          ],
          "internalType": "struct ClockTowerSubscribe.Subscription",
          "name": "subscription",
          "type": "tuple"
        }
      ],
      "name": "subscribe",
      "outputs": [],
      "stateMutability": "payable",
      "type": "function"
    },
    {
      "inputs": [],
      "name": "systemFee",
      "outputs": [
        {
          "internalType": "uint256",
          "name": "",
          "type": "uint256"
        }
      ],
      "stateMutability": "view",
      "type": "function"
    },
    {
      "inputs": [
        {
          "internalType": "bool",
          "name": "status",
          "type": "bool"
        }
      ],
      "name": "systemFeeActivate",
      "outputs": [],
      "stateMutability": "nonpayable",
      "type": "function"
    },
    {
      "inputs": [
        {
          "components": [
            {
              "internalType": "bytes32",
              "name": "id",
              "type": "bytes32"
            },
            {
              "internalType": "uint256",
              "name": "amount",
              "type": "uint256"
            },
            {
              "internalType": "address",
              "name": "provider",
              "type": "address"
            },
            {
              "internalType": "address",
              "name": "token",
              "type": "address"
            },
            {
              "internalType": "bool",
              "name": "exists",
              "type": "bool"
            },
            {
              "internalType": "bool",
              "name": "cancelled",
              "type": "bool"
            },
            {
              "internalType": "enum ClockTowerSubscribe.Frequency",
              "name": "frequency",
              "type": "uint8"
            },
            {
              "internalType": "uint16",
              "name": "dueDay",
              "type": "uint16"
            }
          ],
          "internalType": "struct ClockTowerSubscribe.Subscription",
          "name": "subscription",
          "type": "tuple"
        }
      ],
      "name": "unsubscribe",
      "outputs": [],
      "stateMutability": "payable",
      "type": "function"
    },
    {
      "inputs": [
        {
          "components": [
            {
              "internalType": "bytes32",
              "name": "id",
              "type": "bytes32"
            },
            {
              "internalType": "uint256",
              "name": "amount",
              "type": "uint256"
            },
            {
              "internalType": "address",
              "name": "provider",
              "type": "address"
            },
            {
              "internalType": "address",
              "name": "token",
              "type": "address"
            },
            {
              "internalType": "bool",
              "name": "exists",
              "type": "bool"
            },
            {
              "internalType": "bool",
              "name": "cancelled",
              "type": "bool"
            },
            {
              "internalType": "enum ClockTowerSubscribe.Frequency",
              "name": "frequency",
              "type": "uint8"
            },
            {
              "internalType": "uint16",
              "name": "dueDay",
              "type": "uint16"
            }
          ],
          "internalType": "struct ClockTowerSubscribe.Subscription",
          "name": "subscription",
          "type": "tuple"
        },
        {
          "internalType": "address",
          "name": "subscriber",
          "type": "address"
        }
      ],
      "name": "unsubscribeByProvider",
      "outputs": [],
      "stateMutability": "nonpayable",
      "type": "function"
    },
    {
      "stateMutability": "payable",
      "type": "receive"
    }
  ],
  "bytecode": "0x60806040526127d8600055662386f26fc10000600155600560029081556006805460ff60d81b19169055620000344262000095565b620000409190620000ac565b60068054610100600160d01b03191661010064ffffffffff9390931692909202600160301b600160d01b0319169190911779f39fd6e51aad88f6f4ce6ab8827279cfffb9226600000000000017905562000113565b6000620000a66201518083620000e0565b92915050565b64ffffffffff828116828216039080821115620000d957634e487b7160e01b600052601160045260246000fd5b5092915050565b600064ffffffffff808416806200010757634e487b7160e01b600052601260045260246000fd5b92169190910492915050565b615c4d80620001236000396000f3fe6080604052600436106101b95760003560e01c8063907cedb2116100eb578063d10f9e691161008f578063ed601d2811610061578063ed601d281461054c578063f25e13c91461056c578063f4a2a2001461058c578063fbcbc0f1146105c457005b8063d10f9e6914610499578063da854a96146104b9578063e63d35be146104f2578063ebec6eaa1461051457005b8063b4761de9116100c8578063b4761de9146103de578063bd743886146103fe578063c87965721461046e578063cab1c9651461048357005b8063907cedb2146103895780639889552e146103a9578063b25ae32c146103c957005b80633c95dad51161015d57806386525a001161012f57806386525a00146102fc57806387d888d3146103295780638ef0ef1c146103495780638f2839701461036957005b80633c95dad5146102a157806344e49769146102b45780637507ba39146102c75780637bbf5a6e146102cf57005b80631f17ee55116101965780631f17ee551461021557806327ea97731461023e5780632d23f7e71461025e57806334d441d01461028b57005b8063053149fa146101c25780630b8590c7146101e25780630bec99e8146101f557005b366101c057005b005b3480156101ce57600080fd5b506101c06101dd366004615032565b6105f1565b6101c06101f036600461508f565b610684565b34801561020157600080fd5b506101c061021036600461510a565b610b4d565b34801561022157600080fd5b5061022b60015481565b6040519081526020015b60405180910390f35b34801561024a57600080fd5b506101c061025936600461510a565b610b5a565b34801561026a57600080fd5b5061027e610279366004615123565b610b67565b60405161023591906151f4565b34801561029757600080fd5b5061022b60005481565b6101c06102af366004615203565b610d49565b6101c06102c236600461532a565b61139f565b6101c0611762565b3480156102db57600080fd5b506102ef6102ea36600461510a565b612546565b6040516102359190615347565b34801561030857600080fd5b5061031c61031736600461539f565b612747565b60405161023591906153e8565b34801561033557600080fd5b506101c0610344366004615203565b612b48565b34801561035557600080fd5b506101c061036436600461510a565b6135b7565b34801561037557600080fd5b506101c0610384366004615032565b6135c4565b34801561039557600080fd5b506101c06103a4366004615449565b613623565b3480156103b557600080fd5b506101c06103c4366004615478565b613a7f565b3480156103d557600080fd5b5060085461022b565b3480156103ea57600080fd5b506101c06103f9366004615478565b613aa5565b34801561040a57600080fd5b50610447610419366004615032565b6005602052600090815260409020805460018201546002909201546001600160a01b03909116919060ff1683565b604080516001600160a01b0390941684526020840192909252151590820152606001610235565b34801561047a57600080fd5b506101c0613acb565b34801561048f57600080fd5b5061022b60025481565b3480156104a557600080fd5b506101c06104b4366004615495565b613b2e565b3480156104c557600080fd5b506006546104dc90610100900464ffffffffff1681565b60405164ffffffffff9091168152602001610235565b3480156104fe57600080fd5b50610507613bea565b60405161023591906154da565b34801561052057600080fd5b5061022b61052f366004615525565b600960209081526000928352604080842090915290825290205481565b34801561055857600080fd5b506101c06105673660046155d7565b6140b5565b34801561057857600080fd5b506101c06105873660046156f8565b614123565b34801561059857600080fd5b506105ac6105a736600461510a565b6141e2565b6040516001600160a01b039091168152602001610235565b3480156105d057600080fd5b506105e46105df366004615032565b61420c565b6040516102359190615799565b6105f9614436565b6001600160a01b03811661060c57600080fd5b6106158161447f565b61064a5760405162461bcd60e51b81526020600482015260016024820152601960f91b60448201526064015b60405180910390fd5b6001600160a01b0316600090815260056020526040812080546001600160a01b03191681556001810191909155600201805460ff19169055565b61068c6144b1565b6001600160a01b0384166106c65760405162461bcd60e51b81526020600482015260016024820152600760fb1b6044820152606401610641565b600654600160d81b900460ff161561070e5734600154111561070e5760405162461bcd60e51b81526020600482015260016024820152603560f81b6044820152606401610641565b6107178461447f565b6107475760405162461bcd60e51b81526020600482015260016024820152603960f81b6044820152606401610641565b600082600381111561075b5761075b61515f565b036107aa578061ffff166000108015610779575060078161ffff1611155b6107aa5760405162461bcd60e51b8152602060048201526002602482015261191b60f11b6044820152606401610641565b60018260038111156107be576107be61515f565b0361080d578061ffff1660001080156107dc5750601c8161ffff1611155b61080d5760405162461bcd60e51b8152602060048201526002602482015261323760f01b6044820152606401610641565b60028260038111156108215761082161515f565b03610870578061ffff16600010801561083f5750605a8161ffff1611155b6108705760405162461bcd60e51b8152602060048201526002602482015261064760f31b6044820152606401610641565b60038260038111156108845761088461515f565b036108d4578061ffff1660001080156108a3575061016d8161ffff1611155b6108d45760405162461bcd60e51b8152602060048201526002602482015261323960f01b6044820152606401610641565b6001600160a01b0384166000908152600560205260409020600101548510156109245760405162461bcd60e51b8152602060048201526002602482015261033360f41b6044820152606401610641565b6000610932868685856144e2565b905080600a600085600381111561094b5761094b61515f565b81526020808201929092526040908101600090812061ffff87168252835281812080546001818101835591835291849020855160049093020191825592840151928101929092558201516002820180546001600160a01b039283166001600160a01b0319909116179055606083015160038084018054608087015160a08801511515600160a81b0260ff60a81b19911515600160a01b0274ffffffffffffffffffffffffffffffffffffffffff199093169590961694909417179283168417815560c086015193909260ff60b01b1990911661ffff60a81b199091161790600160b01b908490811115610a4057610a4061515f565b021790555060e0918201516003918201805461ffff60b81b1916600160b81b61ffff93841602179055604080516080810182528551815293850151909116602084015260c0840151610ab0939291830191811115610aa057610aa061515f565b81526020016000905260016145cd565b805164ffffffffff42169033907f93cda0785d40b289a535b99dc76d4c9cbb6d8146182861ac3ad40509398b1865610ae888806157fa565b610af560208b018b6157fa565b604051610b059493929190615871565b60405180910390a48051606082015160405160009233929091600080516020615bf883398151915291610b3d9142918d9188906158b3565b60405180910390a4505050505050565b610b55614436565b600155565b610b62614436565b600255565b6040805161010081018252600080825260208201819052918101829052606081018290526080810182905260a0810182905260c0810182905260e0810182905290600a81856003811115610bbd57610bbd61515f565b815260200190815260200160002060008461ffff1661ffff168152602001908152602001600020805480602002602001604051908101604052809291908181526020016000905b82821015610cdb5760008481526020908190206040805161010081018252600486029092018054835260018101549383019390935260028301546001600160a01b0390811691830191909152600380840154918216606084015260ff600160a01b8304811615156080850152600160a81b83048116151560a085015292939260c0850192600160b01b90041690811115610ca057610ca061515f565b6003811115610cb157610cb161515f565b81526003919091015461ffff600160b81b9091041660209182015290825260019092019101610c04565b50505050905060005b8151811015610d405785828281518110610d0057610d006158e4565b60200260200101516000015103610d2e57818181518110610d2357610d236158e4565b602002602001015192505b80610d3881615910565b915050610ce4565b50509392505050565b610d516144b1565b6020810135610d666080830160608401615032565b604051636eb1769f60e11b81523360048201523060248201526001600160a01b03919091169063dd62ed3e906044016020604051808303816000875af1158015610db4573d6000803e3d6000fd5b505050506040513d601f19601f82011682018060405250810190610dd89190615929565b10158015610e6557506020810135610df66080830160608401615032565b6040516370a0823160e01b81523360048201526001600160a01b0391909116906370a08231906024016020604051808303816000875af1158015610e3e573d6000803e3d6000fd5b505050506040513d601f19601f82011682018060405250810190610e629190615929565b10155b610e965760405162461bcd60e51b8152602060048201526002602482015261032360f41b6044820152606401610641565b610ea66060820160408301615032565b6001600160a01b03163303610ee15760405162461bcd60e51b81526020600482015260016024820152600360fc1b6044820152606401610641565b610f0e8135610ef7610100840160e08501615942565b610f0760e0850160c0860161595d565b600061477d565b610f3e5760405162461bcd60e51b81526020600482015260016024820152603760f81b6044820152606401610641565b80356000818152600b6020908152604080832080546001810182559084529282902090920180546001600160a01b03191633179055815160808101909252918152610fd0918101610f96610100850160e08601615942565b61ffff168152602001610faf60e0850160c0860161595d565b6003811115610fc057610fc061515f565b81526020016000905260006145cd565b6020810135600180610fe860e0850160c0860161595d565b6003811115610ff957610ff961515f565b14806110255750600061101260e0850160c0860161595d565b60038111156110235761102361515f565b145b156110715761106a4261103f610100860160e08701615942565b61ffff168461105460e0880160c0890161595d565b60038111156110655761106561515f565b614808565b9150611117565b600261108360e0850160c0860161595d565b60038111156110945761109461515f565b036110c6576110ae4261103f610100860160e08701615942565b91506110bb60038361598e565b915060029050611117565b60036110d860e0850160c0860161595d565b60038111156110e9576110e961515f565b03611117576111034261103f610100860160e08701615942565b9150611110600c8361598e565b9150600b90505b82356000908152600960209081526040808320338452909152812080548492906111429084906159a2565b909155503390506111596060850160408601615032565b6001600160a01b03168435600080516020615bf883398151915242602088013561118960808a0160608b01615032565b600660405161119b94939291906158b3565b60405180910390a4336111b46060850160408601615032565b6001600160a01b03168435600080516020615bf883398151915242866111e060808a0160608b01615032565b60086040516111f294939291906158b3565b60405180910390a461120a6080840160608501615032565b6040516323b872dd60e01b8152336004820152306024820152604481018490526001600160a01b0391909116906323b872dd906064016020604051808303816000875af115801561125f573d6000803e3d6000fd5b505050506040513d601f19601f8201168201806040525081019061128391906159b5565b61128c57600080fd5b600261129e60e0850160c0860161595d565b60038111156112af576112af61515f565b14806112db575060036112c860e0850160c0860161595d565b60038111156112d9576112d961515f565b145b1561139a576112f06080840160608501615032565b6001600160a01b03166323b872dd3361130f6060870160408801615032565b61131985876159d2565b6040516001600160e01b031960e086901b1681526001600160a01b03938416600482015292909116602483015260448201526064016020604051808303816000875af115801561136d573d6000803e3d6000fd5b505050506040513d601f19601f8201168201806040525081019061139191906159b5565b61139a57600080fd5b505050565b6113a76144b1565b3360009081526007602052604081206001015467ffffffffffffffff8111156113d2576113d2615216565b60405190808252806020026020018201604052801561142d57816020015b61141a60408051608081018252600080825260208201819052909182019081526020016000905290565b8152602001906001900390816113f05790505b50336000908152600760209081526040808320600101805482518185028101850190935280835294955090939092909184015b82821015611516576000848152602090819020604080516080810182526002860290920180548352600181015461ffff81169484019490945291929083019062010000900460ff1660038111156114b9576114b961515f565b60038111156114ca576114ca61515f565b81526020016001820160039054906101000a900460ff1660028111156114f2576114f261515f565b60028111156115035761150361515f565b8152505081526020019060010190611460565b5050336000908152600760205260408120600101549394509150505b818110156115d4578360000151838281518110611551576115516158e4565b602002602001015160000151036115c2573360009081526007602052604090206001018054600291908390811061158a5761158a6158e4565b906000526020600020906002020160010160036101000a81548160ff021916908360028111156115bc576115bc61515f565b02179055505b806115cc81615910565b915050611532565b5082516115e19033614a51565b336001600160a01b031683604001516001600160a01b03168460000151600080516020615bf88339815191524287602001518860600151600760405161162a94939291906158b3565b60405180910390a4825160009081526009602081815260408084203380865290835281852054885186529383528185208186529092528084209390935582860151865160608801519451939492936001600160a01b03909216929091600080516020615bf8833981519152916116a691429188916004906158b3565b60405180910390a46060840151604080860151905163a9059cbb60e01b81526001600160a01b0391821660048201526024810184905291169063a9059cbb906044016020604051808303816000875af1158015611707573d6000803e3d6000fd5b505050506040513d601f19601f8201168201806040525081019061172b91906159b5565b61175c5760405162461bcd60e51b8152602060048201526002602482015261323160f01b6044820152606401610641565b50505050565b600654600160d01b900460ff1661177b5761177b614436565b600654600160d81b900460ff16156117c3573460015411156117c35760405162461bcd60e51b81526020600482015260016024820152603560f81b6044820152606401610641565b60006117ce42614ba1565b60065490915064ffffffffff610100909104811690821610156118185760405162461bcd60e51b81526020600482015260026024820152610c4d60f21b6044820152606401610641565b6040805160c081018252600080825260208201819052918101829052606081018290526080810182905260a081019190915260019060065464ffffffffff8481166101009092041614611898576006546118919061188590610100900464ffffffffff16620151806159e9565b64ffffffffff16614bb0565b90506118a4565b6118a142614bb0565b90505b6000805b6003811161248c576000816118be575060208301515b600182036118ca575082515b600282036118d9575060408301515b600382036118e8575060608301515b6000828152600a6020908152604080832061ffff85168452909152812054905b81811015612476576000848152600a6020908152604080832061ffff87168452909152812080549198509082908110611943576119436158e4565b906000526020600020906004020160030160159054906101000a900460ff16612464576000848152600a6020908152604080832061ffff871684529091528120805483908110611995576119956158e4565b60009182526020808320600490920290910154878352600a8252604080842061ffff89168552909252908220805491935090849081106119d7576119d76158e4565b6000918252602080832060036004909302019190910154888352600a8252604080842061ffff8a16855290925290822080546001600160a01b0390921693509085908110611a2757611a276158e4565b6000918252602080832060016004909302019190910154898352600a8252604080842061ffff8b16855290925290822080549193509086908110611a6d57611a6d6158e4565b6000918252602082206002600490920201015481546001600160a01b039091169250839061271090611a9f90836159d2565b611aa9919061598e565b611ab39190615a12565b6000868152600b602052604081205491925090818115611adb57611ad8600183615a12565b90505b60005b8281101561245a576002548e03611c21576040805180820182528a815260200182905260038a905560048281556006805460ff19169055905163a9059cbb60e01b81523391810191909152602481018590526001600160a01b0389169063a9059cbb906044016020604051808303816000875af1158015611b63573d6000803e3d6000fd5b505050506040513d601f19601f82011682018060405250810190611b8791906159b5565b611bb85760405162461bcd60e51b8152602060048201526002602482015261191960f11b6044820152606401610641565b6006546040805164ffffffffff428116825261010090930492909216602083015260009082015233907f90192d7875364a53e351ae63fd2dfef8dc941735b29fb0c504d06a0e21ae602e9060600160405180910390a25050505050505050505050505050505050565b60035489148015611c33575060045481145b15611c46576006805460ff191660011790555b6003541580611c5c575060065460ff1615156001145b15612448576000898152600b60205260408120805483908110611c8157611c816158e4565b600091825260209091200154604051636eb1769f60e11b81526001600160a01b0391821660048201819052306024830152925089918b169063dd62ed3e906044016020604051808303816000875af1158015611ce1573d6000803e3d6000fd5b505050506040513d601f19601f82011682018060405250810190611d059190615929565b10158015611d7f57506040516370a0823160e01b81526001600160a01b0382811660048301528991908b16906370a08231906024016020604051808303816000875af1158015611d59573d6000803e3d6000fd5b505050506040513d601f19601f82011682018060405250810190611d7d9190615929565b115b15612180578e611d8e81615910565b9f505085600960008c81526020019081526020016000206000836001600160a01b03166001600160a01b03168152602001908152602001600020541115611f2357611dd986866159a2565b60008b81526009602090815260408083206001600160a01b0386168452909152812080549297508892909190611e10908490615a12565b92505081905550806001600160a01b0316876001600160a01b03168b600080516020615bf8833981519152428c8e6005604051611e5094939291906158b3565b60405180910390a4806001600160a01b0316876001600160a01b03168b600080516020615bf88339815191524260008e6002604051611e9294939291906158b3565b60405180910390a46040516323b872dd60e01b81526001600160a01b0382811660048301528881166024830152604482018a90528a16906323b872dd906064016020604051808303816000875af1158015611ef1573d6000803e3d6000fd5b505050506040513d601f19601f82011682018060405250810190611f1591906159b5565b611f1e57600080fd5b612390565b60008a81526009602090815260408083206001600160a01b0385168452909152902054611f5090866159a2565b9450600960008b81526020019081526020016000206000826001600160a01b03166001600160a01b0316815260200190815260200160002060009055806001600160a01b0316876001600160a01b03168b600080516020615bf8833981519152428c8e6008604051611fc594939291906158b3565b60405180910390a460008890506000600190508f600203611ff657611feb60038361598e565b915060029050612010565b8f60030361201057612009600c8361598e565b9150600b90505b60008c81526009602090815260408083206001600160a01b0387168452909152812080548492906120429084906159a2565b90915550506040516323b872dd60e01b81526001600160a01b038481166004830152306024830152604482018490528c16906323b872dd906064016020604051808303816000875af115801561209c573d6000803e3d6000fd5b505050506040513d601f19601f820116820180604052508101906120c091906159b5565b6120c957600080fd5b8f600214806120d857508f6003145b15612179576001600160a01b038b166323b872dd848b6120f885876159d2565b6040516001600160e01b031960e086901b1681526001600160a01b03938416600482015292909116602483015260448201526064016020604051808303816000875af115801561214c573d6000803e3d6000fd5b505050506040513d601f19601f8201168201806040525081019061217091906159b5565b61217957600080fd5b5050612390565b8e61218a81615910565b9f505085600960008c81526020019081526020016000206000836001600160a01b03166001600160a01b03168152602001908152602001600020541115612302576121d586866159a2565b60008b81526009602090815260408083206001600160a01b038616845290915281205491965090612207908890615a12565b9050600960008c81526020019081526020016000206000836001600160a01b03166001600160a01b0316815260200190815260200160002060009055816001600160a01b0316886001600160a01b03168c600080516020615bf883398151915242858f600460405161227c94939291906158b3565b60405180910390a460405163a9059cbb60e01b81526001600160a01b038981166004830152602482018390528b169063a9059cbb906044016020604051808303816000875af11580156122d3573d6000803e3d6000fd5b505050506040513d601f19601f820116820180604052508101906122f791906159b5565b61230057600080fd5b505b61230c8a82614a51565b806001600160a01b0316876001600160a01b03168b600080516020615bf8833981519152428c8e600760405161234594939291906158b3565b60405180910390a4806001600160a01b0316876001600160a01b03168b600080516020615bf88339815191524260008e600360405161238794939291906158b3565b60405180910390a45b828214801561239f5750600084115b156124465760405163a9059cbb60e01b8152336004820152602481018690526001600160a01b038a169063a9059cbb906044016020604051808303816000875af11580156123f1573d6000803e3d6000fd5b505050506040513d601f19601f8201168201806040525081019061241591906159b5565b6124465760405162461bcd60e51b8152602060048201526002602482015261191960f11b6044820152606401610641565b505b8061245281615910565b915050611ade565b5050505050505050505b8061246e81615910565b915050611908565b505050808061248490615910565b9150506118a8565b50600060038190556004556006805460ff1916908190556040805164ffffffffff4281168252610100909304909216602083015260019082015233907f90192d7875364a53e351ae63fd2dfef8dc941735b29fb0c504d06a0e21ae602e9060600160405180910390a26001600660018282829054906101000a900464ffffffffff166125189190615a25565b92506101000a81548164ffffffffff021916908364ffffffffff160217905550821561175c5761175c611762565b6000818152600b60205260408120546060919067ffffffffffffffff81111561257157612571615216565b60405190808252806020026020018201604052801561259a578160200160208202803683370190505b506000848152600b602090815260409182902080548351818402810184019094528084529394509192908301828280156125fd57602002820191906000526020600020905b81546001600160a01b031681526001909101906020018083116125df575b5050506000868152600b60205260408120549394509291505067ffffffffffffffff81111561262e5761262e615216565b60405190808252806020026020018201604052801561267357816020015b604080518082019091526000808252602082015281526020019060019003908161264c5790505b50905060005b825181101561273f576000858152600960205260408120845182908690859081106126a6576126a66158e4565b60200260200101516001600160a01b03166001600160a01b03168152602001908152602001600020549050600060405180604001604052808685815181106126f0576126f06158e4565b60200260200101516001600160a01b031681526020018381525090508084848151811061271f5761271f6158e4565b60200260200101819052505050808061273790615910565b915050612679565b509392505050565b6060808315612847576001600160a01b038316600090815260076020908152604080832060010180548251818502810185019093528083529193909284015b8282101561283c576000848152602090819020604080516080810182526002860290920180548352600181015461ffff81169484019490945291929083019062010000900460ff1660038111156127df576127df61515f565b60038111156127f0576127f061515f565b81526020016001820160039054906101000a900460ff1660028111156128185761281861515f565b60028111156128295761282961515f565b8152505081526020019060010190612786565b50505050905061293a565b6001600160a01b038316600090815260076020908152604080832060020180548251818502810185019093528083529193909284015b82821015612933576000848152602090819020604080516080810182526002860290920180548352600181015461ffff81169484019490945291929083019062010000900460ff1660038111156128d6576128d661515f565b60038111156128e7576128e761515f565b81526020016001820160039054906101000a900460ff16600281111561290f5761290f61515f565b60028111156129205761292061515f565b815250508152602001906001019061287d565b5050505090505b6000815167ffffffffffffffff81111561295657612956615216565b6040519080825280602002602001820160405280156129dc57816020015b60408051610160810182526000606082018181526080830182905260a0830182905260c0830182905260e08301829052610100830182905261012083018290526101408301829052825260208083018290529282015282526000199092019101816129745790505b50905060005b8251811015612b3d57612a4d838281518110612a0057612a006158e4565b602002602001015160000151848381518110612a1e57612a1e6158e4565b602002602001015160400151858481518110612a3c57612a3c6158e4565b602002602001015160200151610b67565b828281518110612a5f57612a5f6158e4565b602002602001015160000181905250828181518110612a8057612a806158e4565b602002602001015160600151828281518110612a9e57612a9e6158e4565b6020026020010151602001906002811115612abb57612abb61515f565b90816002811115612ace57612ace61515f565b81525050600b6000838381518110612ae857612ae86158e4565b60200260200101516000015160000151815260200190815260200160002080549050828281518110612b1c57612b1c6158e4565b60209081029190910101516040015280612b3581615910565b9150506129e2565b509150505b92915050565b612b506144b1565b612b668135610ef7610100840160e08501615942565b612b965760405162461bcd60e51b81526020600482015260016024820152603760f81b6044820152606401610641565b612ba66060820160408301615032565b6001600160a01b0316336001600160a01b031614612beb5760405162461bcd60e51b8152602060048201526002602482015261323360f01b6044820152606401610641565b33600090815260076020908152604080832060020180548251818502810185019093528083529192909190849084015b82821015612cd1576000848152602090819020604080516080810182526002860290920180548352600181015461ffff81169484019490945291929083019062010000900460ff166003811115612c7457612c7461515f565b6003811115612c8557612c8561515f565b81526020016001820160039054906101000a900460ff166002811115612cad57612cad61515f565b6002811115612cbe57612cbe61515f565b8152505081526020019060010190612c1b565b5050336000908152600760205260408120600201549394509150505b81811015612d8f578360000135838281518110612d0c57612d0c6158e4565b60200260200101516000015103612d7d5733600090815260076020526040902060020180546001919083908110612d4557612d456158e4565b906000526020600020906002020160010160036101000a81548160ff02191690836002811115612d7757612d7761515f565b02179055505b80612d8781615910565b915050612ced565b5082356000908152600b6020908152604080832080548251818502810185019093528083529192909190830182828015612df257602002820191906000526020600020905b81546001600160a01b03168152600190910190602001808311612dd4575b5050505050905060005b8151811015613332578435600090815260096020526040812083518290859085908110612e2b57612e2b6158e4565b60200260200101516001600160a01b03166001600160a01b03168152602001908152602001600020549050828281518110612e6857612e686158e4565b60200260200101516001600160a01b0316866040016020810190612e8c9190615032565b6001600160a01b03168735600080516020615bf88339815191524285612eb860808d0160608e01615032565b6009604051612eca94939291906158b3565b60405180910390a4853560009081526009602052604081208451909190859085908110612ef957612ef96158e4565b60200260200101516001600160a01b03166001600160a01b0316815260200190815260200160002060009055856060016020810190612f389190615032565b6001600160a01b031663a9059cbb848481518110612f5857612f586158e4565b6020026020010151836040518363ffffffff1660e01b8152600401612f929291906001600160a01b03929092168252602082015260400190565b6020604051808303816000875af1158015612fb1573d6000803e3d6000fd5b505050506040513d601f19601f82011682018060405250810190612fd591906159b5565b6130065760405162461bcd60e51b8152602060048201526002602482015261323160f01b6044820152606401610641565b60006007600085858151811061301e5761301e6158e4565b60200260200101516001600160a01b03166001600160a01b031681526020019081526020016000206001018054905067ffffffffffffffff81111561306557613065615216565b6040519080825280602002602001820160405280156130c057816020015b6130ad60408051608081018252600080825260208201819052909182019081526020016000905290565b8152602001906001900390816130835790505b509050600760008585815181106130d9576130d96158e4565b60200260200101516001600160a01b03166001600160a01b03168152602001908152602001600020600101805480602002602001604051908101604052809291908181526020016000905b828210156131da576000848152602090819020604080516080810182526002860290920180548352600181015461ffff81169484019490945291929083019062010000900460ff16600381111561317d5761317d61515f565b600381111561318e5761318e61515f565b81526020016001820160039054906101000a900460ff1660028111156131b6576131b661515f565b60028111156131c7576131c761515f565b8152505081526020019060010190613124565b50505050905060005b600760008686815181106131f9576131f96158e4565b60200260200101516001600160a01b03166001600160a01b03168152602001908152602001600020600101805490508110156132f5578760000135828281518110613246576132466158e4565b602002602001015160000151036132e35760016007600087878151811061326f5761326f6158e4565b60200260200101516001600160a01b03166001600160a01b0316815260200190815260200160002060010182815481106132ab576132ab6158e4565b906000526020600020906002020160010160036101000a81548160ff021916908360028111156132dd576132dd61515f565b02179055505b806132ed81615910565b9150506131e3565b5061331d8760000135858581518110613310576133106158e4565b6020026020010151614a51565b5050808061332a90615910565b915050612dfc565b506000600a8161334860e0880160c0890161595d565b60038111156133595761335961515f565b815260200190815260200160002060008660e001602081019061337c9190615942565b61ffff1661ffff168152602001908152602001600020805480602002602001604051908101604052809291908181526020016000905b828210156134895760008481526020908190206040805161010081018252600486029092018054835260018101549383019390935260028301546001600160a01b0390811691830191909152600380840154918216606084015260ff600160a01b8304811615156080850152600160a81b83048116151560a085015292939260c0850192600160b01b9004169081111561344e5761344e61515f565b600381111561345f5761345f61515f565b81526003919091015461ffff600160b81b90910416602091820152908252600190920191016133b2565b50505050905060005b815181101561356f5785600001358282815181106134b2576134b26158e4565b6020026020010151600001510361355d576001600a60006134d960e08a0160c08b0161595d565b60038111156134ea576134ea61515f565b815260200190815260200160002060008860e001602081019061350d9190615942565b61ffff1661ffff1681526020019081526020016000208281548110613534576135346158e4565b906000526020600020906004020160030160156101000a81548160ff0219169083151502179055505b8061356781615910565b915050613492565b506000338635600080516020615bf8833981519152428461359660808c0160608d01615032565b60016040516135a894939291906158b3565b60405180910390a45050505050565b6135bf614436565b600055565b6135cc614436565b6001600160a01b0381166135df57600080fd5b600680546001600160a01b039092166601000000000000027fffffffffffff0000000000000000000000000000000000000000ffffffffffff909216919091179055565b61362b6144b1565b33600090815260076020908152604080832060020180548251818502810185019093528083529192909190849084015b82821015613711576000848152602090819020604080516080810182526002860290920180548352600181015461ffff81169484019490945291929083019062010000900460ff1660038111156136b4576136b461515f565b60038111156136c5576136c561515f565b81526020016001820160039054906101000a900460ff1660028111156136ed576136ed61515f565b60028111156136fe576136fe61515f565b815250508152602001906001019061365b565b5050505090506000805b825181101561376357846000015183828151811061373b5761373b6158e4565b6020026020010151600001510361375157600191505b8061375b81615910565b91505061371b565b50806137965760405162461bcd60e51b8152602060048201526002602482015261062760f31b6044820152606401610641565b83516000908152600b60209081526040808320805482518185028101850190935280835291929091908301828280156137f857602002820191906000526020600020905b81546001600160a01b031681526001909101906020018083116137da575b505050505090506000805b82518110156138bd57856001600160a01b0316838281518110613828576138286158e4565b60200260200101516001600160a01b0316036138ab576001600160a01b03861660009081526007602052604090206001908101805491935060029183908110613873576138736158e4565b906000526020600020906002020160010160036101000a81548160ff021916908360028111156138a5576138a561515f565b02179055505b806138b581615910565b915050613803565b50806138f05760405162461bcd60e51b8152602060048201526002602482015261313960f01b6044820152606401610641565b85516138fc9086614a51565b846001600160a01b031686604001516001600160a01b03168760000151600080516020615bf8833981519152428a602001518b60600151600760405161394594939291906158b3565b60405180910390a4855160009081526009602081815260408084206001600160a01b03808b16808752918452828620548c51875285855283872083885290945282862095909555818b01518b5160608d015193519496929591909216939192600080516020615bf8833981519152926139c492429289929091906158b3565b60405180910390a4606087015160405163a9059cbb60e01b81526001600160a01b038881166004830152602482018490529091169063a9059cbb906044016020604051808303816000875af1158015613a21573d6000803e3d6000fd5b505050506040513d601f19601f82011682018060405250810190613a4591906159b5565b613a765760405162461bcd60e51b8152602060048201526002602482015261323160f01b6044820152606401610641565b50505050505050565b613a87614436565b60068054911515600160d81b0260ff60d81b19909216919091179055565b613aad614436565b60068054911515600160d01b0260ff60d01b19909216919091179055565b613ad3614436565b611388471115613b2c57600654660100000000000090046001600160a01b03166108fc613b0261138847615a12565b6040518115909202916000818181858888f19350505050158015613b2a573d6000803e3d6000fd5b505b565b6000613b393361420c565b905080602001511561139a5760005b81606001515181101561175c578282606001518281518110613b6c57613b6c6158e4565b60200260200101516000015103613bd85764ffffffffff421633847f93cda0785d40b289a535b99dc76d4c9cbb6d8146182861ac3ad40509398b1865613bb288806157fa565b613bbf60208b018b6157fa565b604051613bcf9493929190615871565b60405180910390a45b80613be281615910565b915050613b48565b60606000613bf742614ba1565b60065490915064ffffffffff610100909104811690821611613c405760405162461bcd60e51b81526020600482015260026024820152610c4d60f21b6044820152606401610641565b6000613c4b42614bb0565b9050600080600060025467ffffffffffffffff811115613c6d57613c6d615216565b604051908082528060200260200182016040528015613cb257816020015b6040805180820190915260008082526020820152815260200190600190039081613c8b5790505b50905060005b60038111613f9157600081613cce575060208501515b60018203613cda575084515b60028203613ce9575060408501515b60038203613cf8575060608501515b60005b6000838152600a6020908152604080832061ffff86168452909152902054811015613f7c576000838152600a6020908152604080832061ffff861684529091529020805482908110613d4f57613d4f6158e4565b906000526020600020906004020160030160159054906101000a900460ff16613f6a576000838152600a6020908152604080832061ffff861684529091528120805483908110613da157613da16158e4565b60009182526020808320600490920290910154868352600a8252604080842061ffff8816855290925290822080549193509084908110613de357613de36158e4565b6000918252602080832060036004909302019190910154878352600a8252604080842061ffff8916855290925290822080546001600160a01b0390921693509085908110613e3357613e336158e4565b9060005260206000209060040201600101549050613e6d60405180604001604052806000815260200160006001600160a01b031681525090565b60008261271060005485613e8191906159d2565b613e8b919061598e565b613e959190615a12565b90506000805b6000878152600b6020526040902054811015613f62576002548d03613ece5750989e9d5050505050505050505050505050565b6003541580613ee4575060065460ff1615156001145b15613f50578c613ef381615910565b9d50613f01905083836159a2565b91506040518060400160405280838152602001876001600160a01b03168152509350838b8d81518110613f3657613f366158e4565b60200260200101819052508b80613f4c90615910565b9c50505b80613f5a81615910565b915050613e9b565b505050505050505b80613f7481615910565b915050613cfb565b50508080613f8990615910565b915050613cb8565b506000805b8251811015613ff05760006001600160a01b0316838281518110613fbc57613fbc6158e4565b6020026020010151602001516001600160a01b031603613fde57809150613ff0565b80613fe881615910565b915050613f96565b5060008167ffffffffffffffff81111561400c5761400c615216565b60405190808252806020026020018201604052801561405157816020015b604080518082019091526000808252602082015281526020019060019003908161402a5790505b50905060005b828110156140a957838181518110614071576140716158e4565b602002602001015182828151811061408b5761408b6158e4565b602002602001018190525080806140a190615910565b915050614057565b50979650505050505050565b4264ffffffffff16336001600160a01b03167f34f43abf7a52b609b04511ed963a29ebb76ae3e0ca0ff5594be1c2a84ebd03f2836000015184602001518560400151866060015187608001518860a0015160405161411896959493929190615a89565b60405180910390a350565b61412b614436565b6001600160a01b03821661413e57600080fd5b6141478261447f565b156141785760405162461bcd60e51b81526020600482015260016024820152603160f81b6044820152606401610641565b604080516060810182526001600160a01b03938416808252602080830194855260018385018181526000938452600590925293909120915182546001600160a01b031916951694909417815591519082015590516002909101805460ff1916911515919091179055565b600881815481106141f257600080fd5b6000918252602090912001546001600160a01b0316905081565b60408051608081018252600080825260208201526060918101829052818101919091526001600160a01b038281166000908152600760209081526040808320815160808101835281549586168152600160a01b90950460ff1615158584015260018101805483518186028101860185528181529295938701949293919290919084015b82821015614345576000848152602090819020604080516080810182526002860290920180548352600181015461ffff81169484019490945291929083019062010000900460ff1660038111156142e8576142e861515f565b60038111156142f9576142f961515f565b81526020016001820160039054906101000a900460ff1660028111156143215761432161515f565b60028111156143325761433261515f565b815250508152602001906001019061428f565b50505050815260200160028201805480602002602001604051908101604052809291908181526020016000905b82821015614428576000848152602090819020604080516080810182526002860290920180548352600181015461ffff81169484019490945291929083019062010000900460ff1660038111156143cb576143cb61515f565b60038111156143dc576143dc61515f565b81526020016001820160039054906101000a900460ff1660028111156144045761440461515f565b60028111156144155761441561515f565b8152505081526020019060010190614372565b505050915250909392505050565b600654660100000000000090046001600160a01b03163314613b2c5760405162461bcd60e51b8152602060048201526002602482015261189b60f11b6044820152606401610641565b6001600160a01b03811660009081526005602052604081206002015460ff166144a9576000612b42565b600192915050565b33613b2c5760405162461bcd60e51b81526020600482015260016024820152603360f81b6044820152606401610641565b6040805161010081018252600080825260208201819052918101829052606081018290526080810182905260a0810182905260c0810182905260e08101919091526040516bffffffffffffffffffffffff193360601b16602082015244603482015242605482015260009060740160408051601f1981840301815282825280516020918201206101008401835280845290830189905233918301919091526001600160a01b038716606083015260016080830152600060a0830152915060c081018560038111156145b5576145b561515f565b81526020018461ffff16815250915050949350505050565b33600090815260076020526040812054600160a01b900460ff161515900361465b5733600081815260076020526040812080546001600160a01b03199081168417825560088054600181019091557ff3f7a9fe364faab93b216da50a3214154f22a0a2b415b23a84c8169e8b636ee301805490911684179055919052805460ff60a01b1916600160a01b1790555b801561470d5733600090815260076020908152604080832060029081018054600180820183559186529484902087519590920290910193845591850151918301805461ffff19811661ffff909416938417825591860151869493909262ffffff191617620100008360038111156146d4576146d461515f565b0217905550606082015160018201805463ff000000191663010000008360028111156147025761470261515f565b021790555050505050565b33600090815260076020908152604080832060019081018054808301825590855293839020865160029095020193845591850151918301805461ffff19811661ffff909416938417825591860151869493909262ffffff191617620100008360038111156146d4576146d461515f565b60008060405180608001604052808781526020018661ffff1681526020018560038111156147ad576147ad61515f565b81526020018460028111156147c4576147c461515f565b815250905060006147e2826000015183604001518460200151610b67565b90508060800151156147f957600192505050614800565b6000925050505b949350505050565b60008061481486614bb0565b905060008060008560ff1660000361483a57836020015161ffff169250600791506148c1565b8560ff166001036148715761485f846080015161ffff168560a0015161ffff16614e47565b845161ffff16935091508190506148c1565b8560ff166002036148a557614896846060015161ffff16856080015161ffff16614ecd565b61ffff169250605a91506148c1565b8560ff166003036148c157836060015161ffff16925061016d91505b8560ff1660010361497c57600061016d6148dc89600c6159d2565b6148e6919061598e565b9050838964ffffffffff161415801561490557508864ffffffffff1684115b156149365761491b64ffffffffff8a1685615a12565b6149259084615a12565b61492f90826159d2565b9750614976565b838964ffffffffff161415801561495357508864ffffffffff1684105b15614976576149698464ffffffffff8b16615a12565b61497390826159d2565b97505b50614a44565b60ff8616158061498f57508560ff166002145b8061499d57508560ff166003145b15614a4457828864ffffffffff16141580156149bf57508764ffffffffff1683115b156149fa576149d564ffffffffff891684615a12565b6149df9083615a12565b6149e9838961598e565b6149f391906159d2565b9650614a44565b828864ffffffffff1614158015614a1757508764ffffffffff1683105b15614a4457614a2d8364ffffffffff8a16615a12565b614a37838961598e565b614a4191906159d2565b96505b5094979650505050505050565b6000828152600b602052604081208054909190815b81811015614ae957846001600160a01b0316848281548110614a8a57614a8a6158e4565b6000918252602090912001546001600160a01b031603614ad757809250838181548110614ab957614ab96158e4565b600091825260209091200180546001600160a01b0319169055614ae9565b80614ae181615910565b915050614a66565b5082548390614afa90600190615a12565b81548110614b0a57614b0a6158e4565b9060005260206000200160009054906101000a90046001600160a01b0316838381548110614b3a57614b3a6158e4565b9060005260206000200160006101000a8154816001600160a01b0302191690836001600160a01b0316021790555082805480614b7857614b78615b0b565b600082815260209020810160001990810180546001600160a01b03191690550190555050505050565b6000612b426201518083615b21565b6040805160c081018252600080825260208201819052918101829052606081018290526080810182905260a0810182905290614bef620151808461598e565b90506000808281614c038262010bd9615b45565b614c109062253d8c615b45565b9050600062023ab1614c23836004615b65565b614c2d9190615b95565b90506004614c3e8262023ab1615b65565b614c49906003615b45565b614c539190615b95565b614c5d9083615bc3565b9150600062164b09614c70846001615b45565b614c7c90610fa0615b65565b614c869190615b95565b90506004614c96826105b5615b65565b614ca09190615b95565b614caa9084615bc3565b614cb590601f615b45565b9250600061098f614cc7856050615b65565b614cd19190615b95565b905060006050614ce38361098f615b65565b614ced9190615b95565b614cf79086615bc3565b9050614d04600b83615b95565b9450614d1185600c615b65565b614d1c836002615b45565b614d269190615bc3565b91508483614d35603187615bc3565b614d40906064615b65565b614d4a9190615b45565b614d549190615b45565b909750915086828282600060015b838111614dae57838103614d8557614d7e61ffff8e16836159a2565b9150614d9c565b614d8f8585614e47565b614d9990836159a2565b91505b80614da681615910565b915050614d62565b50809a50614dc08b61ffff1685614ecd565b61ffff1660408f0152614dd28f614f9b565b8e6020019061ffff16908161ffff16815250508b8e6000019061ffff16908161ffff16815250508a8e6060019061ffff16908161ffff1681525050838e6080019061ffff16908161ffff1681525050828e60a0019061ffff16908161ffff168152505050505050505050505050505050919050565b60008160011480614e585750816003145b80614e635750816005145b80614e6e5750816007145b80614e795750816008145b80614e84575081600a145b80614e8f575081600c145b15614e9c5750601f612b42565b81600214614eac5750601e612b42565b614eb583614fd1565b614ec057601c614ec3565b601d5b60ff169392505050565b600080614ed983614fd1565b15614ee657506001614eea565b5060005b614ef581605a6159a2565b8411614f0357839150614f94565b83614f0f82605a6159a2565b108015614f265750614f228160b56159a2565b8411155b15614f4757614f3681605a6159a2565b614f409085615a12565b9150614f94565b83614f538260b56159a2565b108015614f6b5750614f67816101116159a2565b8411155b15614f7b57614f368160b56159a2565b614f87816101116159a2565b614f919085615a12565b91505b5092915050565b600080614fab620151808461598e565b905060006007614fbc8360036159a2565b614fc69190615be3565b6148009060016159a2565b6000614fde600483615be3565b158015614ff45750614ff1606483615be3565b15155b80612b42575061500661019083615be3565b1592915050565b6001600160a01b0381168114613b2a57600080fd5b803561502d8161500d565b919050565b60006020828403121561504457600080fd5b813561504f8161500d565b9392505050565b60006040828403121561506857600080fd5b50919050565b80356004811061502d57600080fd5b803561ffff8116811461502d57600080fd5b600080600080600060a086880312156150a757600080fd5b8535945060208601356150b98161500d565b9350604086013567ffffffffffffffff8111156150d557600080fd5b6150e188828901615056565b9350506150f06060870161506e565b91506150fe6080870161507d565b90509295509295909350565b60006020828403121561511c57600080fd5b5035919050565b60008060006060848603121561513857600080fd5b833592506151486020850161506e565b91506151566040850161507d565b90509250925092565b634e487b7160e01b600052602160045260246000fd5b600481106151855761518561515f565b9052565b805182526020810151602083015260408101516001600160a01b038082166040850152806060840151166060850152505060808101511515608083015260a0810151151560a083015260c08101516151e460c0840182615175565b5060e09081015161ffff16910152565b6101008101612b428284615189565b6000610100828403121561506857600080fd5b634e487b7160e01b600052604160045260246000fd5b60405160c0810167ffffffffffffffff8111828210171561524f5761524f615216565b60405290565b8015158114613b2a57600080fd5b803561502d81615255565b600061010080838503121561528257600080fd5b6040519081019067ffffffffffffffff821181831017156152a5576152a5615216565b604091825283358152602080850135908201529150820135816152c78261500d565b8160408201526152d960608501615022565b60608201526152ea60808501615263565b60808201526152fb60a08501615263565b60a082015261530c60c0850161506e565b60c082015261531d60e0850161507d565b60e0820152505092915050565b6000610100828403121561533d57600080fd5b61504f838361526e565b602080825282518282018190526000919060409081850190868401855b8281101561539257815180516001600160a01b03168552860151868501529284019290850190600101615364565b5091979650505050505050565b600080604083850312156153b257600080fd5b82356153bd81615255565b915060208301356153cd8161500d565b809150509250929050565b600381106151855761518561515f565b602080825282518282018190526000919060409081850190868401855b8281101561539257815161541a858251615189565b8681015161542c6101008701826153d8565b508501516101208501526101409093019290850190600101615405565b600080610120838503121561545d57600080fd5b615467848461526e565b91506101008301356153cd8161500d565b60006020828403121561548a57600080fd5b813561504f81615255565b600080604083850312156154a857600080fd5b823567ffffffffffffffff8111156154bf57600080fd5b6154cb85828601615056565b95602094909401359450505050565b602080825282518282018190526000919060409081850190868401855b82811015615392578151805185528601516001600160a01b03168685015292840192908501906001016154f7565b6000806040838503121561553857600080fd5b8235915060208301356153cd8161500d565b600082601f83011261555b57600080fd5b813567ffffffffffffffff8082111561557657615576615216565b604051601f8301601f19908116603f0116810190828211818310171561559e5761559e615216565b816040528381528660208588010111156155b757600080fd5b836020870160208301376000602085830101528094505050505092915050565b6000602082840312156155e957600080fd5b813567ffffffffffffffff8082111561560157600080fd5b9083019060c0828603121561561557600080fd5b61561d61522c565b82358281111561562c57600080fd5b6156388782860161554a565b82525060208301358281111561564d57600080fd5b6156598782860161554a565b60208301525060408301358281111561567157600080fd5b61567d8782860161554a565b60408301525060608301358281111561569557600080fd5b6156a18782860161554a565b6060830152506080830135828111156156b957600080fd5b6156c58782860161554a565b60808301525060a0830135828111156156dd57600080fd5b6156e98782860161554a565b60a08301525095945050505050565b6000806040838503121561570b57600080fd5b82356157168161500d565b946020939093013593505050565b600081518084526020808501945080840160005b8381101561578e5781518051885261ffff848201511684890152604080820151615764828b0182615175565b505060609081015190615779898201836153d8565b50506080969096019590820190600101615738565b509495945050505050565b602081526001600160a01b03825116602082015260208201511515604082015260006040830151608060608401526157d460a0840182615724565b90506060840151601f198483030160808501526157f18282615724565b95945050505050565b6000808335601e1984360301811261581157600080fd5b83018035915067ffffffffffffffff82111561582c57600080fd5b60200191503681900382131561584157600080fd5b9250929050565b81835281816020850137506000828201602090810191909152601f909101601f19169091010190565b604081526000615885604083018688615848565b8281036020840152615898818587615848565b979650505050505050565b600a81106151855761518561515f565b64ffffffffff85168152602081018490526001600160a01b0383166040820152608081016157f160608301846158a3565b634e487b7160e01b600052603260045260246000fd5b634e487b7160e01b600052601160045260246000fd5b600060018201615922576159226158fa565b5060010190565b60006020828403121561593b57600080fd5b5051919050565b60006020828403121561595457600080fd5b61504f8261507d565b60006020828403121561596f57600080fd5b61504f8261506e565b634e487b7160e01b600052601260045260246000fd5b60008261599d5761599d615978565b500490565b80820180821115612b4257612b426158fa565b6000602082840312156159c757600080fd5b815161504f81615255565b8082028115828204841417612b4257612b426158fa565b64ffffffffff818116838216028082169190828114615a0a57615a0a6158fa565b505092915050565b81810381811115612b4257612b426158fa565b64ffffffffff818116838216019080821115614f9457614f946158fa565b6000815180845260005b81811015615a6957602081850181015186830182015201615a4d565b506000602082860101526020601f19601f83011685010191505092915050565b60c081526000615a9c60c0830189615a43565b8281036020840152615aae8189615a43565b90508281036040840152615ac28188615a43565b90508281036060840152615ad68187615a43565b90508281036080840152615aea8186615a43565b905082810360a0840152615afe8185615a43565b9998505050505050505050565b634e487b7160e01b600052603160045260246000fd5b600064ffffffffff80841680615b3957615b39615978565b92169190910492915050565b8082018281126000831280158216821582161715615a0a57615a0a6158fa565b80820260008212600160ff1b84141615615b8157615b816158fa565b8181058314821517612b4257612b426158fa565b600082615ba457615ba4615978565b600160ff1b821460001984141615615bbe57615bbe6158fa565b500590565b8181036000831280158383131683831282161715614f9457614f946158fa565b600082615bf257615bf2615978565b50069056feca6b824caf1a48ea2ad039dbb063460fa30e9c3cc255eeb52240d638ec6de65ea26469706673582212209045329ca2e4465a520a057f244831273bf8b595d4db1cfb17e404f124d8b76c64736f6c63430008150033",
  "linkReferences": {},
  "deployedLinkReferences": {}
}