{
  "_format": "hh-sol-artifact-1",
  "contractName": "ClockTowerSubscribe",
  "sourceName": "contracts/ClockTowerSubscribe.sol",
  "abi": [
    {
      "inputs": [],
      "stateMutability": "payable",
      "type": "constructor"
    },
    {
      "anonymous": false,
      "inputs": [
        {
          "indexed": false,
          "internalType": "uint40",
          "name": "timestamp",
          "type": "uint40"
        },
        {
          "indexed": false,
          "internalType": "uint40",
          "name": "checkedDay",
          "type": "uint40"
        },
        {
          "indexed": true,
          "internalType": "address",
          "name": "caller",
          "type": "address"
        },
        {
          "indexed": false,
          "internalType": "bool",
          "name": "isFinished",
          "type": "bool"
        }
      ],
      "name": "CallerLog",
      "type": "event"
    },
    {
      "anonymous": false,
      "inputs": [
        {
          "indexed": true,
          "internalType": "bytes32",
          "name": "id",
          "type": "bytes32"
        },
        {
          "indexed": true,
          "internalType": "address",
          "name": "provider",
          "type": "address"
        },
        {
          "indexed": false,
          "internalType": "uint40",
          "name": "timestamp",
          "type": "uint40"
        },
        {
          "indexed": false,
          "internalType": "uint256",
          "name": "amount",
          "type": "uint256"
        },
        {
          "indexed": true,
          "internalType": "enum ClockTowerSubscribe.ProvEvent",
          "name": "provEvent",
          "type": "uint8"
        }
      ],
      "name": "ProviderLog",
      "type": "event"
    },
    {
      "anonymous": false,
      "inputs": [
        {
          "indexed": true,
          "internalType": "bytes32",
          "name": "id",
          "type": "bytes32"
        },
        {
          "indexed": true,
          "internalType": "address",
          "name": "subscriber",
          "type": "address"
        },
        {
          "indexed": false,
          "internalType": "uint40",
          "name": "timestamp",
          "type": "uint40"
        },
        {
          "indexed": false,
          "internalType": "uint256",
          "name": "amount",
          "type": "uint256"
        },
        {
          "indexed": true,
          "internalType": "enum ClockTowerSubscribe.SubEvent",
          "name": "subEvent",
          "type": "uint8"
        }
      ],
      "name": "SubscriberLog",
      "type": "event"
    },
    {
      "stateMutability": "payable",
      "type": "fallback"
    },
    {
      "inputs": [
        {
          "internalType": "address",
          "name": "erc20Contract",
          "type": "address"
        },
        {
          "internalType": "uint256",
          "name": "minimum",
          "type": "uint256"
        }
      ],
      "name": "addERC20Contract",
      "outputs": [],
      "stateMutability": "nonpayable",
      "type": "function"
    },
    {
      "inputs": [],
      "name": "callerFee",
      "outputs": [
        {
          "internalType": "uint256",
          "name": "",
          "type": "uint256"
        }
      ],
      "stateMutability": "view",
      "type": "function"
    },
    {
      "inputs": [
        {
          "components": [
            {
              "internalType": "bytes32",
              "name": "id",
              "type": "bytes32"
            },
            {
              "internalType": "uint256",
              "name": "amount",
              "type": "uint256"
            },
            {
              "internalType": "address",
              "name": "provider",
              "type": "address"
            },
            {
              "internalType": "address",
              "name": "token",
              "type": "address"
            },
            {
              "internalType": "bool",
              "name": "exists",
              "type": "bool"
            },
            {
              "internalType": "bool",
              "name": "cancelled",
              "type": "bool"
            },
            {
              "internalType": "enum ClockTowerSubscribe.Frequency",
              "name": "frequency",
              "type": "uint8"
            },
            {
              "internalType": "uint16",
              "name": "dueDay",
              "type": "uint16"
            },
            {
              "internalType": "string",
              "name": "description",
              "type": "string"
            }
          ],
          "internalType": "struct ClockTowerSubscribe.Subscription",
          "name": "subscription",
          "type": "tuple"
        }
      ],
      "name": "cancelSubscription",
      "outputs": [],
      "stateMutability": "nonpayable",
      "type": "function"
    },
    {
      "inputs": [
        {
          "internalType": "address payable",
          "name": "newAddress",
          "type": "address"
        }
      ],
      "name": "changeAdmin",
      "outputs": [],
      "stateMutability": "nonpayable",
      "type": "function"
    },
    {
      "inputs": [
        {
          "internalType": "uint256",
          "name": "_fee",
          "type": "uint256"
        }
      ],
      "name": "changeCallerFee",
      "outputs": [],
      "stateMutability": "nonpayable",
      "type": "function"
    },
    {
      "inputs": [
        {
          "internalType": "uint256",
          "name": "_maxRemits",
          "type": "uint256"
        }
      ],
      "name": "changeMaxRemits",
      "outputs": [],
      "stateMutability": "nonpayable",
      "type": "function"
    },
    {
      "inputs": [
        {
          "internalType": "uint256",
          "name": "_fixed_fee",
          "type": "uint256"
        }
      ],
      "name": "changeSystemFee",
      "outputs": [],
      "stateMutability": "nonpayable",
      "type": "function"
    },
    {
      "inputs": [],
      "name": "collectFees",
      "outputs": [],
      "stateMutability": "nonpayable",
      "type": "function"
    },
    {
      "inputs": [
        {
          "internalType": "uint256",
          "name": "amount",
          "type": "uint256"
        },
        {
          "internalType": "address",
          "name": "token",
          "type": "address"
        },
        {
          "internalType": "string",
          "name": "description",
          "type": "string"
        },
        {
          "internalType": "enum ClockTowerSubscribe.Frequency",
          "name": "frequency",
          "type": "uint8"
        },
        {
          "internalType": "uint16",
          "name": "dueDay",
          "type": "uint16"
        }
      ],
      "name": "createSubscription",
      "outputs": [],
      "stateMutability": "payable",
      "type": "function"
    },
    {
      "inputs": [
        {
          "internalType": "bytes32",
          "name": "",
          "type": "bytes32"
        },
        {
          "internalType": "address",
          "name": "",
          "type": "address"
        }
      ],
      "name": "feeBalance",
      "outputs": [
        {
          "internalType": "uint256",
          "name": "",
          "type": "uint256"
        }
      ],
      "stateMutability": "view",
      "type": "function"
    },
    {
      "inputs": [],
      "name": "feeEstimate",
      "outputs": [
        {
          "components": [
            {
              "internalType": "uint256",
              "name": "fee",
              "type": "uint256"
            },
            {
              "internalType": "address",
              "name": "token",
              "type": "address"
            }
          ],
          "internalType": "struct ClockTowerSubscribe.FeeEstimate[]",
          "name": "",
          "type": "tuple[]"
        }
      ],
      "stateMutability": "view",
      "type": "function"
    },
    {
      "inputs": [
        {
          "internalType": "bool",
          "name": "bySubscriber",
          "type": "bool"
        }
      ],
      "name": "getAccountSubscriptions",
      "outputs": [
        {
          "components": [
            {
              "components": [
                {
                  "internalType": "bytes32",
                  "name": "id",
                  "type": "bytes32"
                },
                {
                  "internalType": "uint256",
                  "name": "amount",
                  "type": "uint256"
                },
                {
                  "internalType": "address",
                  "name": "provider",
                  "type": "address"
                },
                {
                  "internalType": "address",
                  "name": "token",
                  "type": "address"
                },
                {
                  "internalType": "bool",
                  "name": "exists",
                  "type": "bool"
                },
                {
                  "internalType": "bool",
                  "name": "cancelled",
                  "type": "bool"
                },
                {
                  "internalType": "enum ClockTowerSubscribe.Frequency",
                  "name": "frequency",
                  "type": "uint8"
                },
                {
                  "internalType": "uint16",
                  "name": "dueDay",
                  "type": "uint16"
                },
                {
                  "internalType": "string",
                  "name": "description",
                  "type": "string"
                }
              ],
              "internalType": "struct ClockTowerSubscribe.Subscription",
              "name": "subscription",
              "type": "tuple"
            },
            {
              "internalType": "enum ClockTowerSubscribe.Status",
              "name": "status",
              "type": "uint8"
            },
            {
              "internalType": "uint256",
              "name": "totalSubscribers",
              "type": "uint256"
            }
          ],
          "internalType": "struct ClockTowerSubscribe.SubView[]",
          "name": "",
          "type": "tuple[]"
        }
      ],
      "stateMutability": "view",
      "type": "function"
    },
    {
      "inputs": [],
      "name": "getAllAccounts",
      "outputs": [
        {
          "components": [
            {
              "internalType": "address",
              "name": "accountAddress",
              "type": "address"
            },
            {
              "internalType": "bool",
              "name": "exists",
              "type": "bool"
            },
            {
              "internalType": "uint40[]",
              "name": "timeTriggers",
              "type": "uint40[]"
            },
            {
              "components": [
                {
                  "internalType": "bytes32",
                  "name": "id",
                  "type": "bytes32"
                },
                {
                  "internalType": "uint16",
                  "name": "dueDay",
                  "type": "uint16"
                },
                {
                  "internalType": "enum ClockTowerSubscribe.Frequency",
                  "name": "frequency",
                  "type": "uint8"
                },
                {
                  "internalType": "enum ClockTowerSubscribe.Status",
                  "name": "status",
                  "type": "uint8"
                }
              ],
              "internalType": "struct ClockTowerSubscribe.SubIndex[]",
              "name": "subscriptions",
              "type": "tuple[]"
            },
            {
              "components": [
                {
                  "internalType": "bytes32",
                  "name": "id",
                  "type": "bytes32"
                },
                {
                  "internalType": "uint16",
                  "name": "dueDay",
                  "type": "uint16"
                },
                {
                  "internalType": "enum ClockTowerSubscribe.Frequency",
                  "name": "frequency",
                  "type": "uint8"
                },
                {
                  "internalType": "enum ClockTowerSubscribe.Status",
                  "name": "status",
                  "type": "uint8"
                }
              ],
              "internalType": "struct ClockTowerSubscribe.SubIndex[]",
              "name": "provSubs",
              "type": "tuple[]"
            }
          ],
          "internalType": "struct ClockTowerSubscribe.Account[]",
          "name": "",
          "type": "tuple[]"
        }
      ],
      "stateMutability": "view",
      "type": "function"
    },
    {
      "inputs": [
        {
          "internalType": "bytes32",
          "name": "id",
          "type": "bytes32"
        }
      ],
      "name": "getSubscribersById",
      "outputs": [
        {
          "components": [
            {
              "internalType": "address",
              "name": "subscriber",
              "type": "address"
            },
            {
              "internalType": "uint256",
              "name": "feeBalance",
              "type": "uint256"
            }
          ],
          "internalType": "struct ClockTowerSubscribe.SubscriberView[]",
          "name": "",
          "type": "tuple[]"
        }
      ],
      "stateMutability": "view",
      "type": "function"
    },
    {
      "inputs": [
        {
          "internalType": "bool",
          "name": "bySubscriber",
          "type": "bool"
        },
        {
          "internalType": "address",
          "name": "account",
          "type": "address"
        }
      ],
      "name": "getSubscriptionsByAccount",
      "outputs": [
        {
          "components": [
            {
              "components": [
                {
                  "internalType": "bytes32",
                  "name": "id",
                  "type": "bytes32"
                },
                {
                  "internalType": "uint256",
                  "name": "amount",
                  "type": "uint256"
                },
                {
                  "internalType": "address",
                  "name": "provider",
                  "type": "address"
                },
                {
                  "internalType": "address",
                  "name": "token",
                  "type": "address"
                },
                {
                  "internalType": "bool",
                  "name": "exists",
                  "type": "bool"
                },
                {
                  "internalType": "bool",
                  "name": "cancelled",
                  "type": "bool"
                },
                {
                  "internalType": "enum ClockTowerSubscribe.Frequency",
                  "name": "frequency",
                  "type": "uint8"
                },
                {
                  "internalType": "uint16",
                  "name": "dueDay",
                  "type": "uint16"
                },
                {
                  "internalType": "string",
                  "name": "description",
                  "type": "string"
                }
              ],
              "internalType": "struct ClockTowerSubscribe.Subscription",
              "name": "subscription",
              "type": "tuple"
            },
            {
              "internalType": "enum ClockTowerSubscribe.Status",
              "name": "status",
              "type": "uint8"
            },
            {
              "internalType": "uint256",
              "name": "totalSubscribers",
              "type": "uint256"
            }
          ],
          "internalType": "struct ClockTowerSubscribe.SubView[]",
          "name": "",
          "type": "tuple[]"
        }
      ],
      "stateMutability": "view",
      "type": "function"
    },
    {
      "inputs": [],
      "name": "maxRemits",
      "outputs": [
        {
          "internalType": "uint256",
          "name": "",
          "type": "uint256"
        }
      ],
      "stateMutability": "view",
      "type": "function"
    },
    {
      "inputs": [],
      "name": "nextUncheckedDay",
      "outputs": [
        {
          "internalType": "uint40",
          "name": "",
          "type": "uint40"
        }
      ],
      "stateMutability": "view",
      "type": "function"
    },
    {
      "inputs": [],
      "name": "remit",
      "outputs": [],
      "stateMutability": "payable",
      "type": "function"
    },
    {
      "inputs": [
        {
          "internalType": "address",
          "name": "erc20Contract",
          "type": "address"
        }
      ],
      "name": "removeERC20Contract",
      "outputs": [],
      "stateMutability": "nonpayable",
      "type": "function"
    },
    {
      "inputs": [
        {
          "internalType": "bool",
          "name": "status",
          "type": "bool"
        }
      ],
      "name": "setExternalCallers",
      "outputs": [],
      "stateMutability": "nonpayable",
      "type": "function"
    },
    {
      "inputs": [
        {
          "components": [
            {
              "internalType": "bytes32",
              "name": "id",
              "type": "bytes32"
            },
            {
              "internalType": "uint256",
              "name": "amount",
              "type": "uint256"
            },
            {
              "internalType": "address",
              "name": "provider",
              "type": "address"
            },
            {
              "internalType": "address",
              "name": "token",
              "type": "address"
            },
            {
              "internalType": "bool",
              "name": "exists",
              "type": "bool"
            },
            {
              "internalType": "bool",
              "name": "cancelled",
              "type": "bool"
            },
            {
              "internalType": "enum ClockTowerSubscribe.Frequency",
              "name": "frequency",
              "type": "uint8"
            },
            {
              "internalType": "uint16",
              "name": "dueDay",
              "type": "uint16"
            },
            {
              "internalType": "string",
              "name": "description",
              "type": "string"
            }
          ],
          "internalType": "struct ClockTowerSubscribe.Subscription",
          "name": "subscription",
          "type": "tuple"
        }
      ],
      "name": "subscribe",
      "outputs": [],
      "stateMutability": "payable",
      "type": "function"
    },
    {
      "inputs": [],
      "name": "systemFee",
      "outputs": [
        {
          "internalType": "uint256",
          "name": "",
          "type": "uint256"
        }
      ],
      "stateMutability": "view",
      "type": "function"
    },
    {
      "inputs": [
        {
          "internalType": "bool",
          "name": "status",
          "type": "bool"
        }
      ],
      "name": "systemFeeActivate",
      "outputs": [],
      "stateMutability": "nonpayable",
      "type": "function"
    },
    {
      "inputs": [
        {
          "components": [
            {
              "internalType": "bytes32",
              "name": "id",
              "type": "bytes32"
            },
            {
              "internalType": "uint256",
              "name": "amount",
              "type": "uint256"
            },
            {
              "internalType": "address",
              "name": "provider",
              "type": "address"
            },
            {
              "internalType": "address",
              "name": "token",
              "type": "address"
            },
            {
              "internalType": "bool",
              "name": "exists",
              "type": "bool"
            },
            {
              "internalType": "bool",
              "name": "cancelled",
              "type": "bool"
            },
            {
              "internalType": "enum ClockTowerSubscribe.Frequency",
              "name": "frequency",
              "type": "uint8"
            },
            {
              "internalType": "uint16",
              "name": "dueDay",
              "type": "uint16"
            },
            {
              "internalType": "string",
              "name": "description",
              "type": "string"
            }
          ],
          "internalType": "struct ClockTowerSubscribe.Subscription",
          "name": "subscription",
          "type": "tuple"
        }
      ],
      "name": "unsubscribe",
      "outputs": [],
      "stateMutability": "payable",
      "type": "function"
    },
    {
      "inputs": [
        {
          "components": [
            {
              "internalType": "bytes32",
              "name": "id",
              "type": "bytes32"
            },
            {
              "internalType": "uint256",
              "name": "amount",
              "type": "uint256"
            },
            {
              "internalType": "address",
              "name": "provider",
              "type": "address"
            },
            {
              "internalType": "address",
              "name": "token",
              "type": "address"
            },
            {
              "internalType": "bool",
              "name": "exists",
              "type": "bool"
            },
            {
              "internalType": "bool",
              "name": "cancelled",
              "type": "bool"
            },
            {
              "internalType": "enum ClockTowerSubscribe.Frequency",
              "name": "frequency",
              "type": "uint8"
            },
            {
              "internalType": "uint16",
              "name": "dueDay",
              "type": "uint16"
            },
            {
              "internalType": "string",
              "name": "description",
              "type": "string"
            }
          ],
          "internalType": "struct ClockTowerSubscribe.Subscription",
          "name": "subscription",
          "type": "tuple"
        },
        {
          "internalType": "address",
          "name": "subscriber",
          "type": "address"
        }
      ],
      "name": "unsubscribeByProvider",
      "outputs": [],
      "stateMutability": "nonpayable",
      "type": "function"
    },
    {
      "stateMutability": "payable",
      "type": "receive"
    }
  ],
  "bytecode": "0x608060408190526127d8600055662386f26fc10000600155600560029081556006805460ff60d81b191690556358a6076b60e11b90915264ffffffffff421660845273__$cc6b0ba9819abe3367bde24a3a29d779d3$__63b14c0ed660a460206040518083038186803b1580156200007657600080fd5b505af41580156200008b573d6000803e3d6000fd5b505050506040513d601f19601f82011682018060405250810190620000b1919062000112565b620000bd919062000142565b60068054610100600160d01b03191661010064ffffffffff9390931692909202600160301b600160d01b0319169190911779f39fd6e51aad88f6f4ce6ab8827279cfffb9226600000000000017905562000177565b6000602082840312156200012557600080fd5b815164ffffffffff811681146200013b57600080fd5b9392505050565b600064ffffffffff838116908316818110156200016f57634e487b7160e01b600052601160045260246000fd5b039392505050565b615ecb80620001876000396000f3fe6080604052600436106101825760003560e01c80638f283970116100d5578063c879657211610084578063e63d35be11610061578063e63d35be1461041c578063ebec6eaa1461043e578063f25e13c914610476578063fedce9401461049657005b8063c8796572146103b8578063cab1c965146103cd578063da854a96146103e357005b8063a429131a116100b2578063a429131a14610365578063a5af2abd14610378578063b4761de91461039857005b80638f283970146103055780639889552e14610325578063a2349caf1461034557005b80633084f79e116101315780637507ba391161010e5780637507ba39146102b05780637bbf5a6e146102b85780638ef0ef1c146102e557005b80633084f79e1461025a57806334d441d01461026d5780636605ac0d1461028357005b80630bec99e81161015f5780630bec99e8146101f65780631f17ee551461021657806327ea97731461023a57005b8063053149fa1461018b57806308e93d0a146101ab578063094f9977146101d657005b3661018957005b005b34801561019757600080fd5b506101896101a6366004615385565b6104a9565b3480156101b757600080fd5b506101c061053c565b6040516101cd9190615458565b60405180910390f35b3480156101e257600080fd5b506101896101f136600461554b565b610905565b34801561020257600080fd5b50610189610211366004615587565b61142e565b34801561022257600080fd5b5061022c60015481565b6040519081526020016101cd565b34801561024657600080fd5b50610189610255366004615587565b61143b565b6101896102683660046155ca565b611448565b34801561027957600080fd5b5061022c60005481565b34801561028f57600080fd5b506102a361029e366004615696565b61195f565b6040516101cd919061570b565b610189611d60565b3480156102c457600080fd5b506102d86102d3366004615587565b612d1a565b6040516101cd919061583e565b3480156102f157600080fd5b50610189610300366004615587565b612f13565b34801561031157600080fd5b50610189610320366004615385565b612f20565b34801561033157600080fd5b50610189610340366004615696565b612f95565b34801561035157600080fd5b50610189610360366004615a28565b612fbb565b61018961037336600461554b565b613415565b34801561038457600080fd5b506102a3610393366004615a7a565b613c6f565b3480156103a457600080fd5b506101896103b3366004615696565b61403f565b3480156103c457600080fd5b50610189614065565b3480156103d957600080fd5b5061022c60025481565b3480156103ef57600080fd5b5060065461040690610100900464ffffffffff1681565b60405164ffffffffff90911681526020016101cd565b34801561042857600080fd5b506104316140c8565b6040516101cd9190615aa8565b34801561044a57600080fd5b5061022c610459366004615af3565b600960209081526000928352604080842090915290825290205481565b34801561048257600080fd5b50610189610491366004615b18565b614694565b6101896104a4366004615b44565b614753565b6104b1614b16565b6001600160a01b0381166104c457600080fd5b6104cd81614b5f565b6105025760405162461bcd60e51b81526020600482015260016024820152601960f91b60448201526064015b60405180910390fd5b6001600160a01b0316600090815260056020526040812080546001600160a01b03191681556001810191909155600201805460ff19169055565b6060610546614b16565b6000600880548060200260200160405190810160405280929190818152602001828054801561059e57602002820191906000526020600020905b81546001600160a01b03168152600190910190602001808311610580575b505050505090506000815167ffffffffffffffff8111156105c1576105c1615896565b60405190808252806020026020018201604052801561061c57816020015b6040805160a08101825260008082526020820152606091810182905281810182905260808101919091528152602001906001900390816105df5790505b50905060005b82518110156108fe576007600084838151811061064157610641615b79565b6020908102919091018101516001600160a01b039081168352828201939093526040918201600020825160a08101845281549485168152600160a01b90940460ff16151584830152600181018054845181850281018501865281815292948601938301828280156106ff57602002820191906000526020600020906000905b82829054906101000a900464ffffffffff1664ffffffffff16815260200190600501906020826004010492830192600103820291508084116106c05790505b5050505050815260200160028201805480602002602001604051908101604052809291908181526020016000905b828210156107e3576000848152602090819020604080516080810182526002860290920180548352600181015461ffff81169484019490945291929083019062010000900460ff166003811115610786576107866153a9565b6003811115610797576107976153a9565b81526020016001820160039054906101000a900460ff1660028111156107bf576107bf6153a9565b60028111156107d0576107d06153a9565b815250508152602001906001019061072d565b50505050815260200160038201805480602002602001604051908101604052809291908181526020016000905b828210156108c6576000848152602090819020604080516080810182526002860290920180548352600181015461ffff81169484019490945291929083019062010000900460ff166003811115610869576108696153a9565b600381111561087a5761087a6153a9565b81526020016001820160039054906101000a900460ff1660028111156108a2576108a26153a9565b60028111156108b3576108b36153a9565b8152505081526020019060010190610810565b50505050815250508282815181106108e0576108e0615b79565b602002602001018190525080806108f690615ba5565b915050610622565b5091505090565b61090d614b92565b61093a8135610923610100840160e08501615bc0565b61093360e0850160c08601615bdd565b6000614bc3565b61096a5760405162461bcd60e51b81526020600482015260016024820152603760f81b60448201526064016104f9565b61097a6060820160408301615385565b6001600160a01b0316336001600160a01b0316146109bf5760405162461bcd60e51b8152602060048201526002602482015261323360f01b60448201526064016104f9565b33600090815260076020908152604080832060030180548251818502810185019093528083529192909190849084015b82821015610aa5576000848152602090819020604080516080810182526002860290920180548352600181015461ffff81169484019490945291929083019062010000900460ff166003811115610a4857610a486153a9565b6003811115610a5957610a596153a9565b81526020016001820160039054906101000a900460ff166002811115610a8157610a816153a9565b6002811115610a9257610a926153a9565b81525050815260200190600101906109ef565b5050336000908152600760205260408120600301549394509150505b81811015610b64578360000135838281518110610ae057610ae0615b79565b6020026020010151600001511415610b525733600090815260076020526040902060030180546001919083908110610b1a57610b1a615b79565b906000526020600020906002020160010160036101000a81548160ff02191690836002811115610b4c57610b4c6153a9565b02179055505b80610b5c81615ba5565b915050610ac1565b5082356000908152600b6020908152604080832080548251818502810185019093528083529192909190830182828015610bc757602002820191906000526020600020905b81546001600160a01b03168152600190910190602001808311610ba9575b5050505050905060005b815181101561110e578435600090815260096020526040812083518290859085908110610c0057610c00615b79565b60200260200101516001600160a01b03166001600160a01b03168152602001908152602001600020549050600580811115610c3d57610c3d6153a9565b838381518110610c4f57610c4f615b79565b60200260200101516001600160a01b03168760000135600080516020615e768339815191524285604051610c9692919064ffffffffff929092168252602082015260400190565b60405180910390a4853560009081526009602052604081208451909190859085908110610cc557610cc5615b79565b60200260200101516001600160a01b03166001600160a01b0316815260200190815260200160002060009055856060016020810190610d049190615385565b6001600160a01b031663a9059cbb848481518110610d2457610d24615b79565b6020026020010151836040518363ffffffff1660e01b8152600401610d5e9291906001600160a01b03929092168252602082015260400190565b602060405180830381600087803b158015610d7857600080fd5b505af1158015610d8c573d6000803e3d6000fd5b505050506040513d601f19601f82011682018060405250810190610db09190615bf8565b610de15760405162461bcd60e51b8152602060048201526002602482015261323160f01b60448201526064016104f9565b600060076000858581518110610df957610df9615b79565b60200260200101516001600160a01b03166001600160a01b031681526020019081526020016000206002018054905067ffffffffffffffff811115610e4057610e40615896565b604051908082528060200260200182016040528015610e9b57816020015b610e8860408051608081018252600080825260208201819052909182019081526020016000905290565b815260200190600190039081610e5e5790505b50905060076000858581518110610eb457610eb4615b79565b60200260200101516001600160a01b03166001600160a01b03168152602001908152602001600020600201805480602002602001604051908101604052809291908181526020016000905b82821015610fb5576000848152602090819020604080516080810182526002860290920180548352600181015461ffff81169484019490945291929083019062010000900460ff166003811115610f5857610f586153a9565b6003811115610f6957610f696153a9565b81526020016001820160039054906101000a900460ff166002811115610f9157610f916153a9565b6002811115610fa257610fa26153a9565b8152505081526020019060010190610eff565b50505050905060005b60076000868681518110610fd457610fd4615b79565b60200260200101516001600160a01b03166001600160a01b03168152602001908152602001600020600201805490508110156110d157876000013582828151811061102157611021615b79565b60200260200101516000015114156110bf5760016007600087878151811061104b5761104b615b79565b60200260200101516001600160a01b03166001600160a01b03168152602001908152602001600020600201828154811061108757611087615b79565b906000526020600020906002020160010160036101000a81548160ff021916908360028111156110b9576110b96153a9565b02179055505b806110c981615ba5565b915050610fbe565b506110f987600001358585815181106110ec576110ec615b79565b6020026020010151614c4e565b5050808061110690615ba5565b915050610bd1565b506000600a8161112460e0880160c08901615bdd565b6003811115611135576111356153a9565b815260200190815260200160002060008660e00160208101906111589190615bc0565b61ffff1661ffff168152602001908152602001600020805480602002602001604051908101604052809291908181526020016000905b828210156112f85760008481526020908190206040805161012081018252600586029092018054835260018101549383019390935260028301546001600160a01b0390811691830191909152600380840154918216606084015260ff600160a01b8304811615156080850152600160a81b83048116151560a085015292939260c0850192600160b01b9004169081111561122a5761122a6153a9565b600381111561123b5761123b6153a9565b81526003820154600160b81b900461ffff16602082015260048201805460409092019161126790615c15565b80601f016020809104026020016040519081016040528092919081815260200182805461129390615c15565b80156112e05780601f106112b5576101008083540402835291602001916112e0565b820191906000526020600020905b8154815290600101906020018083116112c357829003601f168201915b5050505050815250508152602001906001019061118e565b50505050905060005b81518110156113df57856000013582828151811061132157611321615b79565b60200260200101516000015114156113cd576001600a600061134960e08a0160c08b01615bdd565b600381111561135a5761135a6153a9565b815260200190815260200160002060008860e001602081019061137d9190615bc0565b61ffff1661ffff16815260200190815260200160002082815481106113a4576113a4615b79565b906000526020600020906005020160030160156101000a81548160ff0219169083151502179055505b806113d781615ba5565b915050611301565b5060016040805164ffffffffff421681526000602082015233918835917ffcb91fd98787d64bdba700bb305716e8b6cebeef9927c71b19ed9b0ab1b892b0910160405180910390a45050505050565b611436614b16565b600155565b611443614b16565b600255565b611450614b92565b6001600160a01b03851661148a5760405162461bcd60e51b81526020600482015260016024820152600760fb1b60448201526064016104f9565b600654600160d81b900460ff16156114d2573460015411156114d25760405162461bcd60e51b81526020600482015260016024820152603560f81b60448201526064016104f9565b6114db85614b5f565b61150b5760405162461bcd60e51b81526020600482015260016024820152603960f81b60448201526064016104f9565b60208311156115415760405162461bcd60e51b8152602060048201526002602482015261323560f01b60448201526064016104f9565b6000826003811115611555576115556153a9565b14156115a5578061ffff166000108015611574575060078161ffff1611155b6115a55760405162461bcd60e51b8152602060048201526002602482015261191b60f11b60448201526064016104f9565b60018260038111156115b9576115b96153a9565b1415611609578061ffff1660001080156115d85750601c8161ffff1611155b6116095760405162461bcd60e51b8152602060048201526002602482015261323760f01b60448201526064016104f9565b600282600381111561161d5761161d6153a9565b141561166d578061ffff16600010801561163c5750605a8161ffff1611155b61166d5760405162461bcd60e51b8152602060048201526002602482015261064760f31b60448201526064016104f9565b6003826003811115611681576116816153a9565b14156116d2578061ffff1660001080156116a1575061016d8161ffff1611155b6116d25760405162461bcd60e51b8152602060048201526002602482015261323960f01b60448201526064016104f9565b6001600160a01b0385166000908152600560205260409020600101548610156117225760405162461bcd60e51b8152602060048201526002602482015261033360f41b60448201526064016104f9565b6000611769878787878080601f016020809104026020016040519081016040528093929190818152602001838380828437600092019190915250899250889150614d9f9050565b905080600a6000856003811115611782576117826153a9565b81526020808201929092526040908101600090812061ffff87168252835281812080546001818101835591835291849020855160059093020191825592840151928101929092558201516002820180546001600160a01b039283166001600160a01b0319909116179055606083015160038084018054608087015160a08801511515600160a81b0260ff60a81b19911515600160a01b0274ffffffffffffffffffffffffffffffffffffffffff199093169590961694909417179283168417815560c086015193909260ff60b01b1990911661ffff60a81b199091161790600160b01b908490811115611877576118776153a9565b021790555060e082015160038201805461ffff909216600160b81b0261ffff60b81b1990921691909117905561010082015180516118bf9160048401916020909101906152c7565b5090505061190f6040518060800160405280836000015181526020018360e0015161ffff1681526020018360c0015160038111156118ff576118ff6153a9565b8152602001600090526001614e8d565b600081516040805164ffffffffff42168152600060208201523392917ffcb91fd98787d64bdba700bb305716e8b6cebeef9927c71b19ed9b0ab1b892b0910160405180910390a450505050505050565b6060808215611a565733600090815260076020908152604080832060020180548251818502810185019093528083529193909284015b82821015611a4b576000848152602090819020604080516080810182526002860290920180548352600181015461ffff81169484019490945291929083019062010000900460ff1660038111156119ee576119ee6153a9565b60038111156119ff576119ff6153a9565b81526020016001820160039054906101000a900460ff166002811115611a2757611a276153a9565b6002811115611a3857611a386153a9565b8152505081526020019060010190611995565b505050509050611b40565b33600090815260076020908152604080832060030180548251818502810185019093528083529193909284015b82821015611b39576000848152602090819020604080516080810182526002860290920180548352600181015461ffff81169484019490945291929083019062010000900460ff166003811115611adc57611adc6153a9565b6003811115611aed57611aed6153a9565b81526020016001820160039054906101000a900460ff166002811115611b1557611b156153a9565b6002811115611b2657611b266153a9565b8152505081526020019060010190611a83565b5050505090505b6000815167ffffffffffffffff811115611b5c57611b5c615896565b604051908082528060200260200182016040528015611bf757816020015b611be4604080516101808101909152600060608083018281526080840183905260a0840183905260c0840183905260e08401839052610100840183905261012084018390526101408401929092526101608301528190815260200160008152602001600081525090565b815260200190600190039081611b7a5790505b50905060005b8251811015611d5857611c68838281518110611c1b57611c1b615b79565b602002602001015160000151848381518110611c3957611c39615b79565b602002602001015160400151858481518110611c5757611c57615b79565b602002602001015160200151615040565b828281518110611c7a57611c7a615b79565b602002602001015160000181905250828181518110611c9b57611c9b615b79565b602002602001015160600151828281518110611cb957611cb9615b79565b6020026020010151602001906002811115611cd657611cd66153a9565b90816002811115611ce957611ce96153a9565b81525050600b6000838381518110611d0357611d03615b79565b60200260200101516000015160000151815260200190815260200160002080549050828281518110611d3757611d37615b79565b60209081029190910101516040015280611d5081615ba5565b915050611bfd565b509392505050565b600654600160d01b900460ff16611d7957611d79614b16565b600654600160d81b900460ff1615611dc157346001541115611dc15760405162461bcd60e51b81526020600482015260016024820152603560f81b60448201526064016104f9565b6040516358a6076b60e11b815264ffffffffff4216600482015260009073__$cc6b0ba9819abe3367bde24a3a29d779d3$__9063b14c0ed69060240160206040518083038186803b158015611e1557600080fd5b505af4158015611e29573d6000803e3d6000fd5b505050506040513d601f19601f82011682018060405250810190611e4d9190615c50565b60065490915064ffffffffff61010090910481169082161015611e975760405162461bcd60e51b81526020600482015260026024820152610c4d60f21b60448201526064016104f9565b6040805160c081018252600080825260208201819052918101829052606081018290526080810182905260a081019190915260019060065464ffffffffff8481166101009092041614611f985760065473__$cc6b0ba9819abe3367bde24a3a29d779d3$__906353a6d6e290611f1c90610100900464ffffffffff1662015180615c77565b6040516001600160e01b031960e084901b16815264ffffffffff909116600482015260240160c06040518083038186803b158015611f5957600080fd5b505af4158015611f6d573d6000803e3d6000fd5b505050506040513d601f19601f82011682018060405250810190611f919190615ca4565b905061201d565b6040516329d36b7160e11b815242600482015273__$cc6b0ba9819abe3367bde24a3a29d779d3$__906353a6d6e29060240160c06040518083038186803b158015611fe257600080fd5b505af4158015611ff6573d6000803e3d6000fd5b505050506040513d601f19601f8201168201806040525081019061201a9190615ca4565b90505b6000805b60038111612c5a57600081612037575060208301515b6001821415612044575082515b6002821415612054575060408301515b6003821415612064575060608301515b6000828152600a6020908152604080832061ffff85168452909152812054905b81811015612c44576000848152600a6020908152604080832061ffff871684529091528120805491985090829081106120bf576120bf615b79565b906000526020600020906005020160030160159054906101000a900460ff16612c32576000848152600a6020908152604080832061ffff87168452909152812080548390811061211157612111615b79565b60009182526020808320600590920290910154878352600a8252604080842061ffff891685529092529082208054919350908490811061215357612153615b79565b6000918252602080832060036005909302019190910154888352600a8252604080842061ffff8a16855290925290822080546001600160a01b03909216935090859081106121a3576121a3615b79565b6000918252602080832060016005909302019190910154898352600a8252604080842061ffff8b168552909252908220805491935090869081106121e9576121e9615b79565b6000918252602082206002600590920201015481546001600160a01b03909116925083906127109061221b9083615d4f565b6122259190615d6e565b61222f9190615d90565b6000868152600b60205260408120549192509081811561225757612254600183615d90565b90505b60005b82811015612c28576002548e14156123ad576040805180820182528a815260200182905260038a905560048281556006805460ff19169055905163a9059cbb60e01b81523391810191909152602481018590526001600160a01b0389169063a9059cbb90604401602060405180830381600087803b1580156122db57600080fd5b505af11580156122ef573d6000803e3d6000fd5b505050506040513d601f19601f820116820180604052508101906123139190615bf8565b6123445760405162461bcd60e51b8152602060048201526002602482015261191960f11b60448201526064016104f9565b6006546040805164ffffffffff428116825261010090930492909216602083015260009082015233907f90192d7875364a53e351ae63fd2dfef8dc941735b29fb0c504d06a0e21ae602e9060600160405180910390a25050505050505050505050505050505050565b600354891480156123bf575060045481145b156123d2576006805460ff191660011790555b60035415806123e8575060065460ff1615156001145b15612c16576000898152600b6020526040812080548390811061240d5761240d615b79565b600091825260209091200154604051636eb1769f60e11b81526001600160a01b0391821660048201819052306024830152925089918b169063dd62ed3e90604401602060405180830381600087803b15801561246857600080fd5b505af115801561247c573d6000803e3d6000fd5b505050506040513d601f19601f820116820180604052508101906124a09190615da7565b1015801561252957506040516370a0823160e01b81526001600160a01b0382811660048301528991908b16906370a0823190602401602060405180830381600087803b1580156124ef57600080fd5b505af1158015612503573d6000803e3d6000fd5b505050506040513d601f19601f820116820180604052508101906125279190615da7565b115b15612946578e61253881615ba5565b9f505085600960008c81526020019081526020016000206000836001600160a01b03166001600160a01b031681526020019081526020016000205411156126e4576125838686615dc0565b60008b81526009602090815260408083206001600160a01b03861684529091528120805492975088929091906125ba908490615d90565b90915550600090506040805164ffffffffff42168152602081018b90526001600160a01b038416918d91600080516020615e76833981519152910160405180910390a460026040805164ffffffffff42168152600060208201526001600160a01b038a16918d917ffcb91fd98787d64bdba700bb305716e8b6cebeef9927c71b19ed9b0ab1b892b0910160405180910390a46040516323b872dd60e01b81526001600160a01b0382811660048301528881166024830152604482018a90528a16906323b872dd90606401602060405180830381600087803b15801561269e57600080fd5b505af11580156126b2573d6000803e3d6000fd5b505050506040513d601f19601f820116820180604052508101906126d69190615bf8565b6126df57600080fd5b612b4f565b60008a81526009602090815260408083206001600160a01b03851684529091529020546127119086615dc0565b60008b81526009602090815260408083206001600160a01b0386168452909152812055945060046040805164ffffffffff42168152602081018b90526001600160a01b038416918d91600080516020615e76833981519152910160405180910390a460008890506000600190508f6002141561279d57612792600383615d6e565b9150600290506127b8565b8f600314156127b8576127b1600c83615d6e565b9150600b90505b60008c81526009602090815260408083206001600160a01b0387168452909152812080548492906127ea908490615dc0565b90915550506040516323b872dd60e01b81526001600160a01b038481166004830152306024830152604482018490528c16906323b872dd90606401602060405180830381600087803b15801561283f57600080fd5b505af1158015612853573d6000803e3d6000fd5b505050506040513d601f19601f820116820180604052508101906128779190615bf8565b61288057600080fd5b8f6002148061288f57508f6003145b1561293f576001600160a01b038b166323b872dd848b6128af8587615d4f565b6040516001600160e01b031960e086901b1681526001600160a01b0393841660048201529290911660248301526044820152606401602060405180830381600087803b1580156128fe57600080fd5b505af1158015612912573d6000803e3d6000fd5b505050506040513d601f19601f820116820180604052508101906129369190615bf8565b61293f57600080fd5b5050612b4f565b8e61295081615ba5565b9f505085600960008c81526020019081526020016000206000836001600160a01b03166001600160a01b03168152602001908152602001600020541115612a7b5761299b8686615dc0565b60008b81526009602090815260408083206001600160a01b0386168452909152812054919650906129cd908890615d90565b60008c81526009602090815260408083206001600160a01b038781168552925280832092909255905163a9059cbb60e01b81528a82166004820152602481018390529192508b169063a9059cbb90604401602060405180830381600087803b158015612a3857600080fd5b505af1158015612a4c573d6000803e3d6000fd5b505050506040513d601f19601f82011682018060405250810190612a709190615bf8565b612a7957600080fd5b505b612a858a82614c4e565b60016040805164ffffffffff42168152602081018b90526001600160a01b038416918d91600080516020615e76833981519152910160405180910390a460036040805164ffffffffff42168152602081018b90526001600160a01b038416918d91600080516020615e76833981519152910160405180910390a460036040805164ffffffffff42168152600060208201526001600160a01b038416918d917ffcb91fd98787d64bdba700bb305716e8b6cebeef9927c71b19ed9b0ab1b892b0910160405180910390a45b8282148015612b5e5750600084115b15612c145760405163a9059cbb60e01b8152336004820152602481018690526001600160a01b038a169063a9059cbb90604401602060405180830381600087803b158015612bab57600080fd5b505af1158015612bbf573d6000803e3d6000fd5b505050506040513d601f19601f82011682018060405250810190612be39190615bf8565b612c145760405162461bcd60e51b8152602060048201526002602482015261191960f11b60448201526064016104f9565b505b80612c2081615ba5565b91505061225a565b5050505050505050505b80612c3c81615ba5565b915050612084565b5050508080612c5290615ba5565b915050612021565b50600060038190556004556006805460ff1916908190556040805164ffffffffff4281168252610100909304909216602083015260019082015233907f90192d7875364a53e351ae63fd2dfef8dc941735b29fb0c504d06a0e21ae602e9060600160405180910390a26001600660018282829054906101000a900464ffffffffff16612ce69190615dd8565b92506101000a81548164ffffffffff021916908364ffffffffff1602179055508215612d1457612d14611d60565b50505050565b6000818152600b60205260408120546060919067ffffffffffffffff811115612d4557612d45615896565b604051908082528060200260200182016040528015612d6e578160200160208202803683370190505b506000848152600b60209081526040918290208054835181840281018401909452808452939450919290830182828015612dd157602002820191906000526020600020905b81546001600160a01b03168152600190910190602001808311612db3575b5050506000868152600b60205260408120549394509291505067ffffffffffffffff811115612e0257612e02615896565b604051908082528060200260200182016040528015612e4757816020015b6040805180820190915260008082526020820152815260200190600190039081612e205790505b50905060005b8251811015611d5857600085815260096020526040812084518290869085908110612e7a57612e7a615b79565b60200260200101516001600160a01b03166001600160a01b0316815260200190815260200160002054905060006040518060400160405280868581518110612ec457612ec4615b79565b60200260200101516001600160a01b0316815260200183815250905080848481518110612ef357612ef3615b79565b602002602001018190525050508080612f0b90615ba5565b915050612e4d565b612f1b614b16565b600055565b612f28614b16565b336001600160a01b038216148015612f4857506001600160a01b03811615155b612f5157600080fd5b600680546001600160a01b039092166601000000000000027fffffffffffff0000000000000000000000000000000000000000ffffffffffff909216919091179055565b612f9d614b16565b60068054911515600160d81b0260ff60d81b19909216919091179055565b612fc3614b92565b33600090815260076020908152604080832060030180548251818502810185019093528083529192909190849084015b828210156130a9576000848152602090819020604080516080810182526002860290920180548352600181015461ffff81169484019490945291929083019062010000900460ff16600381111561304c5761304c6153a9565b600381111561305d5761305d6153a9565b81526020016001820160039054906101000a900460ff166002811115613085576130856153a9565b6002811115613096576130966153a9565b8152505081526020019060010190612ff3565b5050505090506000805b82518110156130fc5784600001518382815181106130d3576130d3615b79565b60200260200101516000015114156130ea57600191505b806130f481615ba5565b9150506130b3565b508061312f5760405162461bcd60e51b8152602060048201526002602482015261062760f31b60448201526064016104f9565b83516000908152600b602090815260408083208054825181850281018501909352808352919290919083018282801561319157602002820191906000526020600020905b81546001600160a01b03168152600190910190602001808311613173575b505050505090506000805b825181101561325557856001600160a01b03168382815181106131c1576131c1615b79565b60200260200101516001600160a01b03161415613243576001600160a01b038616600090815260076020526040902060029081018054600194508390811061320b5761320b615b79565b906000526020600020906002020160010160036101000a81548160ff0219169083600281111561323d5761323d6153a9565b02179055505b8061324d81615ba5565b91505061319c565b50806132885760405162461bcd60e51b8152602060048201526002602482015261313960f01b60448201526064016104f9565b85516132949086614c4e565b600386516020808901516040805164ffffffffff42168152928301919091526001600160a01b0389169291600080516020615e76833981519152910160405180910390a4855160009081526009602081815260408084206001600160a01b038a16808652908352818520548b518652938352818520908552909152822091909155600587516040805164ffffffffff42168152602081018590526001600160a01b038a169291600080516020615e76833981519152910160405180910390a4606087015160405163a9059cbb60e01b81526001600160a01b038881166004830152602482018490529091169063a9059cbb90604401602060405180830381600087803b1580156133a357600080fd5b505af11580156133b7573d6000803e3d6000fd5b505050506040513d601f19601f820116820180604052508101906133db9190615bf8565b61340c5760405162461bcd60e51b8152602060048201526002602482015261323160f01b60448201526064016104f9565b50505050505050565b61341d614b92565b60208101356134326080830160608401615385565b604051636eb1769f60e11b81523360048201523060248201526001600160a01b03919091169063dd62ed3e90604401602060405180830381600087803b15801561347b57600080fd5b505af115801561348f573d6000803e3d6000fd5b505050506040513d601f19601f820116820180604052508101906134b39190615da7565b1015801561354f575060208101356134d16080830160608401615385565b6040516370a0823160e01b81523360048201526001600160a01b0391909116906370a0823190602401602060405180830381600087803b15801561351457600080fd5b505af1158015613528573d6000803e3d6000fd5b505050506040513d601f19601f8201168201806040525081019061354c9190615da7565b10155b6135805760405162461bcd60e51b8152602060048201526002602482015261032360f41b60448201526064016104f9565b6135906060820160408301615385565b6001600160a01b0316336001600160a01b031614156135d55760405162461bcd60e51b81526020600482015260016024820152600360fc1b60448201526064016104f9565b6135eb8135610923610100840160e08501615bc0565b61361b5760405162461bcd60e51b81526020600482015260016024820152603760f81b60448201526064016104f9565b80356000818152600b6020908152604080832080546001810182559084529282902090920180546001600160a01b031916331790558151608081019092529181526136ad918101613673610100850160e08601615bc0565b61ffff16815260200161368c60e0850160c08601615bdd565b600381111561369d5761369d6153a9565b8152602001600090526000614e8d565b60208101356001806136c560e0850160c08601615bdd565b60038111156136d6576136d66153a9565b1480613702575060006136ef60e0850160c08601615bdd565b6003811115613700576137006153a9565b145b156137e35773__$cc6b0ba9819abe3367bde24a3a29d779d3$__63cf5e4f0c42613733610100870160e08801615bc0565b8561374460e0890160c08a01615bdd565b6003811115613755576137556153a9565b6040516001600160e01b031960e087901b168152600481019490945261ffff9092166024840152604483015260ff16606482015260840160206040518083038186803b1580156137a457600080fd5b505af41580156137b8573d6000803e3d6000fd5b505050506040513d601f19601f820116820180604052508101906137dc9190615da7565b9150613a0b565b60026137f560e0850160c08601615bdd565b6003811115613806576138066153a9565b14156138f95773__$cc6b0ba9819abe3367bde24a3a29d779d3$__63cf5e4f0c42613838610100870160e08801615bc0565b8561384960e0890160c08a01615bdd565b600381111561385a5761385a6153a9565b6040516001600160e01b031960e087901b168152600481019490945261ffff9092166024840152604483015260ff16606482015260840160206040518083038186803b1580156138a957600080fd5b505af41580156138bd573d6000803e3d6000fd5b505050506040513d601f19601f820116820180604052508101906138e19190615da7565b91506138ee600383615d6e565b915060029050613a0b565b600361390b60e0850160c08601615bdd565b600381111561391c5761391c6153a9565b1415613a0b5773__$cc6b0ba9819abe3367bde24a3a29d779d3$__63cf5e4f0c4261394e610100870160e08801615bc0565b8561395f60e0890160c08a01615bdd565b6003811115613970576139706153a9565b6040516001600160e01b031960e087901b168152600481019490945261ffff9092166024840152604483015260ff16606482015260840160206040518083038186803b1580156139bf57600080fd5b505af41580156139d3573d6000803e3d6000fd5b505050506040513d601f19601f820116820180604052508101906139f79190615da7565b9150613a04600c83615d6e565b9150600b90505b8235600090815260096020908152604080832033845290915281208054849290613a36908490615dc0565b90915550600290506040805164ffffffffff42168152602080870135908201523391863591600080516020615e76833981519152910160405180910390a460046040805164ffffffffff42168152602080870135908201523391863591600080516020615e76833981519152910160405180910390a4613abc6080840160608501615385565b6040516323b872dd60e01b8152336004820152306024820152604481018490526001600160a01b0391909116906323b872dd90606401602060405180830381600087803b158015613b0c57600080fd5b505af1158015613b20573d6000803e3d6000fd5b505050506040513d601f19601f82011682018060405250810190613b449190615bf8565b613b4d57600080fd5b6002613b5f60e0850160c08601615bdd565b6003811115613b7057613b706153a9565b1480613b9c57506003613b8960e0850160c08601615bdd565b6003811115613b9a57613b9a6153a9565b145b15613c6a57613bb16080840160608501615385565b6001600160a01b03166323b872dd33613bd06060870160408801615385565b613bda8587615d4f565b6040516001600160e01b031960e086901b1681526001600160a01b0393841660048201529290911660248301526044820152606401602060405180830381600087803b158015613c2957600080fd5b505af1158015613c3d573d6000803e3d6000fd5b505050506040513d601f19601f82011682018060405250810190613c619190615bf8565b613c6a57600080fd5b505050565b6060613c79614b16565b60608315613d78576001600160a01b038316600090815260076020908152604080832060020180548251818502810185019093528083529193909284015b82821015613d6d576000848152602090819020604080516080810182526002860290920180548352600181015461ffff81169484019490945291929083019062010000900460ff166003811115613d1057613d106153a9565b6003811115613d2157613d216153a9565b81526020016001820160039054906101000a900460ff166002811115613d4957613d496153a9565b6002811115613d5a57613d5a6153a9565b8152505081526020019060010190613cb7565b505050509050613e6b565b6001600160a01b038316600090815260076020908152604080832060030180548251818502810185019093528083529193909284015b82821015613e64576000848152602090819020604080516080810182526002860290920180548352600181015461ffff81169484019490945291929083019062010000900460ff166003811115613e0757613e076153a9565b6003811115613e1857613e186153a9565b81526020016001820160039054906101000a900460ff166002811115613e4057613e406153a9565b6002811115613e5157613e516153a9565b8152505081526020019060010190613dae565b5050505090505b6000815167ffffffffffffffff811115613e8757613e87615896565b604051908082528060200260200182016040528015613f2257816020015b613f0f604080516101808101909152600060608083018281526080840183905260a0840183905260c0840183905260e08401839052610100840183905261012084018390526101408401929092526101608301528190815260200160008152602001600081525090565b815260200190600190039081613ea55790505b50905060005b825181101561403657613f46838281518110611c1b57611c1b615b79565b828281518110613f5857613f58615b79565b602002602001015160000181905250828181518110613f7957613f79615b79565b602002602001015160600151828281518110613f9757613f97615b79565b6020026020010151602001906002811115613fb457613fb46153a9565b90816002811115613fc757613fc76153a9565b81525050600b6000838381518110613fe157613fe1615b79565b6020026020010151600001516000015181526020019081526020016000208054905082828151811061401557614015615b79565b6020908102919091010151604001528061402e81615ba5565b915050613f28565b50949350505050565b614047614b16565b60068054911515600160d01b0260ff60d01b19909216919091179055565b61406d614b16565b6113884711156140c657600654660100000000000090046001600160a01b03166108fc61409c61138847615d90565b6040518115909202916000818181858888f193505050501580156140c4573d6000803e3d6000fd5b505b565b6040516358a6076b60e11b815264ffffffffff4216600482015260609060009073__$cc6b0ba9819abe3367bde24a3a29d779d3$__9063b14c0ed69060240160206040518083038186803b15801561411f57600080fd5b505af4158015614133573d6000803e3d6000fd5b505050506040513d601f19601f820116820180604052508101906141579190615c50565b60065490915064ffffffffff6101009091048116908216116141a05760405162461bcd60e51b81526020600482015260026024820152610c4d60f21b60448201526064016104f9565b6040516329d36b7160e11b815242600482015260009073__$cc6b0ba9819abe3367bde24a3a29d779d3$__906353a6d6e29060240160c06040518083038186803b1580156141ed57600080fd5b505af4158015614201573d6000803e3d6000fd5b505050506040513d601f19601f820116820180604052508101906142259190615ca4565b9050600080600060025467ffffffffffffffff81111561424757614247615896565b60405190808252806020026020018201604052801561428c57816020015b60408051808201909152600080825260208201528152602001906001900390816142655790505b50905060005b6003811161456f576000816142a8575060208501515b60018214156142b5575084515b60028214156142c5575060408501515b60038214156142d5575060608501515b60005b6000838152600a6020908152604080832061ffff8616845290915290205481101561455a576000838152600a6020908152604080832061ffff86168452909152902080548290811061432c5761432c615b79565b906000526020600020906005020160030160159054906101000a900460ff16614548576000838152600a6020908152604080832061ffff86168452909152812080548390811061437e5761437e615b79565b60009182526020808320600590920290910154868352600a8252604080842061ffff88168552909252908220805491935090849081106143c0576143c0615b79565b6000918252602080832060036005909302019190910154878352600a8252604080842061ffff8916855290925290822080546001600160a01b039092169350908590811061441057614410615b79565b906000526020600020906005020160010154905061444a60405180604001604052806000815260200160006001600160a01b031681525090565b6000826127106000548561445e9190615d4f565b6144689190615d6e565b6144729190615d90565b90506000805b6000878152600b6020526040902054811015614540576002548d14156144ac5750989e9d5050505050505050505050505050565b60035415806144c2575060065460ff1615156001145b1561452e578c6144d181615ba5565b9d506144df90508383615dc0565b91506040518060400160405280838152602001876001600160a01b03168152509350838b8d8151811061451457614514615b79565b60200260200101819052508b8061452a90615ba5565b9c50505b8061453881615ba5565b915050614478565b505050505050505b8061455281615ba5565b9150506142d8565b5050808061456790615ba5565b915050614292565b506000805b82518110156145cf5760006001600160a01b031683828151811061459a5761459a615b79565b6020026020010151602001516001600160a01b031614156145bd578091506145cf565b806145c781615ba5565b915050614574565b5060008167ffffffffffffffff8111156145eb576145eb615896565b60405190808252806020026020018201604052801561463057816020015b60408051808201909152600080825260208201528152602001906001900390816146095790505b50905060005b828110156146885783818151811061465057614650615b79565b602002602001015182828151811061466a5761466a615b79565b6020026020010181905250808061468090615ba5565b915050614636565b50979650505050505050565b61469c614b16565b6001600160a01b0382166146af57600080fd5b6146b882614b5f565b156146e95760405162461bcd60e51b81526020600482015260016024820152603160f81b60448201526064016104f9565b604080516060810182526001600160a01b03938416808252602080830194855260018385018181526000938452600590925293909120915182546001600160a01b031916951694909417815591519082015590516002909101805460ff1916911515919091179055565b61475b614b92565b3360009081526007602052604081206002015467ffffffffffffffff81111561478657614786615896565b6040519080825280602002602001820160405280156147e157816020015b6147ce60408051608081018252600080825260208201819052909182019081526020016000905290565b8152602001906001900390816147a45790505b50336000908152600760209081526040808320600201805482518185028101850190935280835294955090939092909184015b828210156148ca576000848152602090819020604080516080810182526002860290920180548352600181015461ffff81169484019490945291929083019062010000900460ff16600381111561486d5761486d6153a9565b600381111561487e5761487e6153a9565b81526020016001820160039054906101000a900460ff1660028111156148a6576148a66153a9565b60028111156148b7576148b76153a9565b8152505081526020019060010190614814565b5050336000908152600760205260408120600201549394509150505b8181101561498757836000015183828151811061490557614905615b79565b602002602001015160000151141561497557336000908152600760205260409020600290810180548390811061493d5761493d615b79565b906000526020600020906002020160010160036101000a81548160ff0219169083600281111561496f5761496f6153a9565b02179055505b8061497f81615ba5565b9150506148e6565b5082516149949033614c4e565b600383516020808601516040805164ffffffffff4216815292830191909152339291600080516020615e76833981519152910160405180910390a48251600090815260096020818152604080842033808652908352818520548851865293835281852090855290915282209190915560046040808601518651825164ffffffffff42168152602081018690526001600160a01b039092169290917ffcb91fd98787d64bdba700bb305716e8b6cebeef9927c71b19ed9b0ab1b892b0910160405180910390a46060840151604080860151905163a9059cbb60e01b81526001600160a01b0391821660048201526024810184905291169063a9059cbb90604401602060405180830381600087803b158015614aad57600080fd5b505af1158015614ac1573d6000803e3d6000fd5b505050506040513d601f19601f82011682018060405250810190614ae59190615bf8565b612d145760405162461bcd60e51b8152602060048201526002602482015261323160f01b60448201526064016104f9565b600654660100000000000090046001600160a01b031633146140c65760405162461bcd60e51b8152602060048201526002602482015261189b60f11b60448201526064016104f9565b6001600160a01b03811660009081526005602052604081206002015460ff16614b89576000614b8c565b60015b92915050565b336140c65760405162461bcd60e51b81526020600482015260016024820152603360f81b60448201526064016104f9565b60008060405180608001604052808781526020018661ffff168152602001856003811115614bf357614bf36153a9565b8152602001846002811115614c0a57614c0a6153a9565b81525090506000614c28826000015183604001518460200151615040565b9050806080015115614c3f57600192505050614c46565b6000925050505b949350505050565b6000828152600b602052604081208054909190815b81811015614ce757846001600160a01b0316848281548110614c8757614c87615b79565b6000918252602090912001546001600160a01b03161415614cd557809250838181548110614cb757614cb7615b79565b600091825260209091200180546001600160a01b0319169055614ce7565b80614cdf81615ba5565b915050614c63565b5082548390614cf890600190615d90565b81548110614d0857614d08615b79565b9060005260206000200160009054906101000a90046001600160a01b0316838381548110614d3857614d38615b79565b9060005260206000200160006101000a8154816001600160a01b0302191690836001600160a01b0316021790555082805480614d7657614d76615e01565b600082815260209020810160001990810180546001600160a01b03191690550190555050505050565b614dee6040805161012081018252600080825260208201819052918101829052606081018290526080810182905260a081018290529060c0820190815260006020820152606060409091015290565b60003386848742604051602001614e09959493929190615e17565b60408051601f198184030181528282528051602091820120610120840183528084529083018a905233918301919091526001600160a01b038816606083015260016080830152600060a0830152915060c08101856003811115614e6e57614e6e6153a9565b81526020018461ffff1681526020018681525091505095945050505050565b33600090815260076020526040902054600160a01b900460ff16614f175733600081815260076020526040812080546001600160a01b03199081168417825560088054600181019091557ff3f7a9fe364faab93b216da50a3214154f22a0a2b415b23a84c8169e8b636ee301805490911684179055919052805460ff60a01b1916600160a01b1790555b8015614fcd57336000908152600760209081526040808320600390810180546001808201835591865294849020875160029096020194855592860151928401805461ffff19811661ffff9095169485178255928701518795949093919262ffffff19909216179062010000908490811115614f9457614f946153a9565b0217905550606082015160018201805463ff00000019166301000000836002811115614fc257614fc26153a9565b021790555050505050565b33600090815260076020908152604080832060029081018054600180820183559186529484902087519590920290910193845591850151918301805461ffff19811661ffff909416938417825591860151869493909262ffffff19161762010000836003811115614f9457614f946153a9565b61508f6040805161012081018252600080825260208201819052918101829052606081018290526080810182905260a081018290529060c0820190815260006020820152606060409091015290565b6000600a60008560038111156150a7576150a76153a9565b815260200190815260200160002060008461ffff1661ffff168152602001908152602001600020805480602002602001604051908101604052809291908181526020016000905b828210156152585760008481526020908190206040805161012081018252600586029092018054835260018101549383019390935260028301546001600160a01b0390811691830191909152600380840154918216606084015260ff600160a01b8304811615156080850152600160a81b83048116151560a085015292939260c0850192600160b01b9004169081111561518a5761518a6153a9565b600381111561519b5761519b6153a9565b81526003820154600160b81b900461ffff1660208201526004820180546040909201916151c790615c15565b80601f01602080910402602001604051908101604052809291908181526020018280546151f390615c15565b80156152405780601f1061521557610100808354040283529160200191615240565b820191906000526020600020905b81548152906001019060200180831161522357829003601f168201915b505050505081525050815260200190600101906150ee565b50505050905060005b81518110156152be578582828151811061527d5761527d615b79565b60200260200101516000015114156152ac578181815181106152a1576152a1615b79565b602002602001015192505b806152b681615ba5565b915050615261565b50509392505050565b8280546152d390615c15565b90600052602060002090601f0160209004810192826152f5576000855561533b565b82601f1061530e57805160ff191683800117855561533b565b8280016001018555821561533b579182015b8281111561533b578251825591602001919060010190615320565b5061534792915061534b565b5090565b5b80821115615347576000815560010161534c565b6001600160a01b03811681146140c457600080fd5b803561538081615360565b919050565b60006020828403121561539757600080fd5b81356153a281615360565b9392505050565b634e487b7160e01b600052602160045260246000fd5b600481106153cf576153cf6153a9565b9052565b600381106153cf576153cf6153a9565b600081518084526020808501945080840160005b8381101561544d5781518051885261ffff848201511684890152604080820151615423828b01826153bf565b505060609081015190615438898201836153d3565b505060809690960195908201906001016153f7565b509495945050505050565b60006020808301818452808551808352604092508286019150828160051b8701018488016000805b8481101561553c57898403603f19018652825180516001600160a01b03168552888101511515898601528781015160a0898701819052815190870181905260c08701918b019085905b808210156154f057825164ffffffffff168452928c0192918c0191600191909101906154c9565b5050506060808301518783038289015261550a83826153e3565b925050506080808301519250868203818801525061552881836153e3565b978a01979550505091870191600101615480565b50919998505050505050505050565b60006020828403121561555d57600080fd5b813567ffffffffffffffff81111561557457600080fd5b820161012081850312156153a257600080fd5b60006020828403121561559957600080fd5b5035919050565b80356004811061538057600080fd5b61ffff811681146140c457600080fd5b8035615380816155af565b60008060008060008060a087890312156155e357600080fd5b8635955060208701356155f581615360565b9450604087013567ffffffffffffffff8082111561561257600080fd5b818901915089601f83011261562657600080fd5b81358181111561563557600080fd5b8a602082850101111561564757600080fd5b60208301965080955050505061565f606088016155a0565b9150608087013561566f816155af565b809150509295509295509295565b80151581146140c457600080fd5b80356153808161567d565b6000602082840312156156a857600080fd5b81356153a28161567d565b60005b838110156156ce5781810151838201526020016156b6565b83811115612d145750506000910152565b600081518084526156f78160208601602086016156b3565b601f01601f19169290920160200192915050565b60006020808301818452808551808352604092508286019150828160051b87010184880160005b8381101561583057603f1989840301855281516060815181865280518287015289810151608081818901528a830151915060a0615779818a01846001600160a01b03169052565b938301519360c09250615796898401866001600160a01b03169052565b90830151935060e0906157ac8983018615159052565b83015193506101006157c18982018615159052565b918301519350610120916157d7898401866153bf565b9083015161ffff166101408901529091015161016087019190915290506158026101808601826156df565b9050888201516158148a8701826153d3565b5090870151938701939093529386019390860190600101615732565b509098975050505050505050565b602080825282518282018190526000919060409081850190868401855b8281101561588957815180516001600160a01b0316855286015186850152928401929085019060010161585b565b5091979650505050505050565b634e487b7160e01b600052604160045260246000fd5b604051610120810167ffffffffffffffff811182821017156158d0576158d0615896565b60405290565b600082601f8301126158e757600080fd5b813567ffffffffffffffff8082111561590257615902615896565b604051601f8301601f19908116603f0116810190828211818310171561592a5761592a615896565b8160405283815286602085880101111561594357600080fd5b836020870160208301376000602085830101528094505050505092915050565b6000610120828403121561597657600080fd5b61597e6158ac565b9050813581526020820135602082015261599a60408301615375565b60408201526159ab60608301615375565b60608201526159bc6080830161568b565b60808201526159cd60a0830161568b565b60a08201526159de60c083016155a0565b60c08201526159ef60e083016155bf565b60e08201526101008083013567ffffffffffffffff811115615a1057600080fd5b615a1c858286016158d6565b82840152505092915050565b60008060408385031215615a3b57600080fd5b823567ffffffffffffffff811115615a5257600080fd5b615a5e85828601615963565b9250506020830135615a6f81615360565b809150509250929050565b60008060408385031215615a8d57600080fd5b8235615a988161567d565b91506020830135615a6f81615360565b602080825282518282018190526000919060409081850190868401855b82811015615889578151805185528601516001600160a01b0316868501529284019290850190600101615ac5565b60008060408385031215615b0657600080fd5b823591506020830135615a6f81615360565b60008060408385031215615b2b57600080fd5b8235615b3681615360565b946020939093013593505050565b600060208284031215615b5657600080fd5b813567ffffffffffffffff811115615b6d57600080fd5b614c4684828501615963565b634e487b7160e01b600052603260045260246000fd5b634e487b7160e01b600052601160045260246000fd5b6000600019821415615bb957615bb9615b8f565b5060010190565b600060208284031215615bd257600080fd5b81356153a2816155af565b600060208284031215615bef57600080fd5b6153a2826155a0565b600060208284031215615c0a57600080fd5b81516153a28161567d565b600181811c90821680615c2957607f821691505b60208210811415615c4a57634e487b7160e01b600052602260045260246000fd5b50919050565b600060208284031215615c6257600080fd5b815164ffffffffff811681146153a257600080fd5b600064ffffffffff80831681851681830481118215151615615c9b57615c9b615b8f565b02949350505050565b600060c08284031215615cb657600080fd5b60405160c0810181811067ffffffffffffffff82111715615cd957615cd9615896565b6040528251615ce7816155af565b81526020830151615cf7816155af565b60208201526040830151615d0a816155af565b60408201526060830151615d1d816155af565b60608201526080830151615d30816155af565b608082015260a0830151615d43816155af565b60a08201529392505050565b6000816000190483118215151615615d6957615d69615b8f565b500290565b600082615d8b57634e487b7160e01b600052601260045260246000fd5b500490565b600082821015615da257615da2615b8f565b500390565b600060208284031215615db957600080fd5b5051919050565b60008219821115615dd357615dd3615b8f565b500190565b600064ffffffffff808316818516808303821115615df857615df8615b8f565b01949350505050565b634e487b7160e01b600052603160045260246000fd5b60006bffffffffffffffffffffffff19808860601b168352808760601b1660148401525061ffff60f01b8560f01b1660288301528351615e5e81602a8501602088016156b3565b602a920191820192909252604a019594505050505056fefcfb8f783c54c9c729957515ad137cd8832b98c21e44fd7f481e2e7603bfdb5fa2646970667358221220f48c2968b4048b99f47cb0480436d686f0a7578bf6d682fb26ca8c28786e634464736f6c63430008090033",
  "linkReferences": {
    "contracts/ClockTowerSubscribe.sol": {
      "ClockTowerTime": [
        {
          "length": 20,
          "start": 67
        },
        {
          "length": 20,
          "start": 8039
        },
        {
          "length": 20,
          "start": 8304
        },
        {
          "length": 20,
          "start": 8500
        },
        {
          "length": 20,
          "start": 14480
        },
        {
          "length": 20,
          "start": 14741
        },
        {
          "length": 20,
          "start": 15019
        },
        {
          "length": 20,
          "start": 17009
        },
        {
          "length": 20,
          "start": 17215
        }
      ]
    }
  },
  "deployedLinkReferences": {
    "contracts/ClockTowerSubscribe.sol": {
      "ClockTowerTime": [
        {
          "length": 20,
          "start": 7648
        },
        {
          "length": 20,
          "start": 7913
        },
        {
          "length": 20,
          "start": 8109
        },
        {
          "length": 20,
          "start": 14089
        },
        {
          "length": 20,
          "start": 14350
        },
        {
          "length": 20,
          "start": 14628
        },
        {
          "length": 20,
          "start": 16618
        },
        {
          "length": 20,
          "start": 16824
        }
      ]
    }
  }
}