{
  "_format": "hh-sol-artifact-1",
  "contractName": "ClockTowerSubscribe",
  "sourceName": "contracts/ClockTowerSubscribe.sol",
  "abi": [
    {
      "inputs": [],
      "stateMutability": "payable",
      "type": "constructor"
    },
    {
      "anonymous": false,
      "inputs": [
        {
          "indexed": false,
          "internalType": "uint40",
          "name": "timestamp",
          "type": "uint40"
        },
        {
          "indexed": false,
          "internalType": "uint40",
          "name": "checkedDay",
          "type": "uint40"
        },
        {
          "indexed": true,
          "internalType": "address",
          "name": "caller",
          "type": "address"
        },
        {
          "indexed": false,
          "internalType": "bool",
          "name": "isFinished",
          "type": "bool"
        }
      ],
      "name": "CallerLog",
      "type": "event"
    },
    {
      "anonymous": false,
      "inputs": [
        {
          "indexed": true,
          "internalType": "bytes32",
          "name": "id",
          "type": "bytes32"
        },
        {
          "indexed": true,
          "internalType": "address",
          "name": "provider",
          "type": "address"
        },
        {
          "indexed": false,
          "internalType": "uint40",
          "name": "timestamp",
          "type": "uint40"
        },
        {
          "indexed": false,
          "internalType": "bool",
          "name": "success",
          "type": "bool"
        },
        {
          "indexed": false,
          "internalType": "uint8",
          "name": "errorCode",
          "type": "uint8"
        }
      ],
      "name": "ProviderLog",
      "type": "event"
    },
    {
      "anonymous": false,
      "inputs": [
        {
          "indexed": true,
          "internalType": "bytes32",
          "name": "id",
          "type": "bytes32"
        },
        {
          "indexed": true,
          "internalType": "address",
          "name": "subscriber",
          "type": "address"
        },
        {
          "indexed": false,
          "internalType": "uint40",
          "name": "timestamp",
          "type": "uint40"
        },
        {
          "indexed": false,
          "internalType": "uint256",
          "name": "amount",
          "type": "uint256"
        },
        {
          "indexed": false,
          "internalType": "bool",
          "name": "success",
          "type": "bool"
        }
      ],
      "name": "SubscriberLog",
      "type": "event"
    },
    {
      "stateMutability": "payable",
      "type": "fallback"
    },
    {
      "inputs": [
        {
          "internalType": "address",
          "name": "erc20Contract",
          "type": "address"
        }
      ],
      "name": "addERC20Contract",
      "outputs": [],
      "stateMutability": "nonpayable",
      "type": "function"
    },
    {
      "inputs": [
        {
          "components": [
            {
              "internalType": "bytes32",
              "name": "id",
              "type": "bytes32"
            },
            {
              "internalType": "uint256",
              "name": "amount",
              "type": "uint256"
            },
            {
              "internalType": "address",
              "name": "provider",
              "type": "address"
            },
            {
              "internalType": "address",
              "name": "token",
              "type": "address"
            },
            {
              "internalType": "bool",
              "name": "exists",
              "type": "bool"
            },
            {
              "internalType": "bool",
              "name": "cancelled",
              "type": "bool"
            },
            {
              "internalType": "enum ClockTowerSubscribe.Frequency",
              "name": "frequency",
              "type": "uint8"
            },
            {
              "internalType": "uint16",
              "name": "dueDay",
              "type": "uint16"
            },
            {
              "internalType": "string",
              "name": "description",
              "type": "string"
            }
          ],
          "internalType": "struct ClockTowerSubscribe.Subscription",
          "name": "subscription",
          "type": "tuple"
        }
      ],
      "name": "cancelSubscription",
      "outputs": [],
      "stateMutability": "nonpayable",
      "type": "function"
    },
    {
      "inputs": [
        {
          "internalType": "address",
          "name": "newAddress",
          "type": "address"
        }
      ],
      "name": "changeAdmin",
      "outputs": [],
      "stateMutability": "nonpayable",
      "type": "function"
    },
    {
      "inputs": [
        {
          "internalType": "uint256",
          "name": "_fee",
          "type": "uint256"
        }
      ],
      "name": "changeFee",
      "outputs": [],
      "stateMutability": "nonpayable",
      "type": "function"
    },
    {
      "inputs": [
        {
          "internalType": "uint256",
          "name": "_fixed_fee",
          "type": "uint256"
        }
      ],
      "name": "changeFixedFee",
      "outputs": [],
      "stateMutability": "nonpayable",
      "type": "function"
    },
    {
      "inputs": [
        {
          "internalType": "uint256",
          "name": "_maxGas",
          "type": "uint256"
        }
      ],
      "name": "changeMaxGasPrice",
      "outputs": [],
      "stateMutability": "nonpayable",
      "type": "function"
    },
    {
      "inputs": [
        {
          "internalType": "uint256",
          "name": "_maxRemits",
          "type": "uint256"
        }
      ],
      "name": "changeMaxRemits",
      "outputs": [],
      "stateMutability": "nonpayable",
      "type": "function"
    },
    {
      "inputs": [
        {
          "internalType": "uint256",
          "name": "amount",
          "type": "uint256"
        },
        {
          "internalType": "address",
          "name": "token",
          "type": "address"
        },
        {
          "internalType": "string",
          "name": "description",
          "type": "string"
        },
        {
          "internalType": "enum ClockTowerSubscribe.Frequency",
          "name": "frequency",
          "type": "uint8"
        },
        {
          "internalType": "uint16",
          "name": "dueDay",
          "type": "uint16"
        }
      ],
      "name": "createSubscription",
      "outputs": [],
      "stateMutability": "payable",
      "type": "function"
    },
    {
      "inputs": [
        {
          "internalType": "bool",
          "name": "bySubscriber",
          "type": "bool"
        }
      ],
      "name": "getAccountSubscriptions",
      "outputs": [
        {
          "components": [
            {
              "components": [
                {
                  "internalType": "bytes32",
                  "name": "id",
                  "type": "bytes32"
                },
                {
                  "internalType": "uint256",
                  "name": "amount",
                  "type": "uint256"
                },
                {
                  "internalType": "address",
                  "name": "provider",
                  "type": "address"
                },
                {
                  "internalType": "address",
                  "name": "token",
                  "type": "address"
                },
                {
                  "internalType": "bool",
                  "name": "exists",
                  "type": "bool"
                },
                {
                  "internalType": "bool",
                  "name": "cancelled",
                  "type": "bool"
                },
                {
                  "internalType": "enum ClockTowerSubscribe.Frequency",
                  "name": "frequency",
                  "type": "uint8"
                },
                {
                  "internalType": "uint16",
                  "name": "dueDay",
                  "type": "uint16"
                },
                {
                  "internalType": "string",
                  "name": "description",
                  "type": "string"
                }
              ],
              "internalType": "struct ClockTowerSubscribe.Subscription",
              "name": "subscription",
              "type": "tuple"
            },
            {
              "internalType": "enum ClockTowerSubscribe.Status",
              "name": "status",
              "type": "uint8"
            }
          ],
          "internalType": "struct ClockTowerSubscribe.SubView[]",
          "name": "",
          "type": "tuple[]"
        }
      ],
      "stateMutability": "view",
      "type": "function"
    },
    {
      "inputs": [],
      "name": "getFee",
      "outputs": [
        {
          "internalType": "uint256",
          "name": "",
          "type": "uint256"
        }
      ],
      "stateMutability": "view",
      "type": "function"
    },
    {
      "inputs": [],
      "name": "remit",
      "outputs": [],
      "stateMutability": "nonpayable",
      "type": "function"
    },
    {
      "inputs": [
        {
          "internalType": "address",
          "name": "erc20Contract",
          "type": "address"
        }
      ],
      "name": "removeERC20Contract",
      "outputs": [],
      "stateMutability": "nonpayable",
      "type": "function"
    },
    {
      "inputs": [
        {
          "components": [
            {
              "internalType": "bytes32",
              "name": "id",
              "type": "bytes32"
            },
            {
              "internalType": "uint256",
              "name": "amount",
              "type": "uint256"
            },
            {
              "internalType": "address",
              "name": "provider",
              "type": "address"
            },
            {
              "internalType": "address",
              "name": "token",
              "type": "address"
            },
            {
              "internalType": "bool",
              "name": "exists",
              "type": "bool"
            },
            {
              "internalType": "bool",
              "name": "cancelled",
              "type": "bool"
            },
            {
              "internalType": "enum ClockTowerSubscribe.Frequency",
              "name": "frequency",
              "type": "uint8"
            },
            {
              "internalType": "uint16",
              "name": "dueDay",
              "type": "uint16"
            },
            {
              "internalType": "string",
              "name": "description",
              "type": "string"
            }
          ],
          "internalType": "struct ClockTowerSubscribe.Subscription",
          "name": "subscription",
          "type": "tuple"
        }
      ],
      "name": "subscribe",
      "outputs": [],
      "stateMutability": "payable",
      "type": "function"
    },
    {
      "inputs": [],
      "name": "toggleContractActive",
      "outputs": [],
      "stateMutability": "nonpayable",
      "type": "function"
    },
    {
      "inputs": [
        {
          "internalType": "uint256",
          "name": "unix",
          "type": "uint256"
        }
      ],
      "name": "unixToTime",
      "outputs": [
        {
          "components": [
            {
              "internalType": "uint16",
              "name": "day",
              "type": "uint16"
            },
            {
              "internalType": "uint16",
              "name": "weekDay",
              "type": "uint16"
            },
            {
              "internalType": "uint16",
              "name": "quarterDay",
              "type": "uint16"
            },
            {
              "internalType": "uint16",
              "name": "yearDay",
              "type": "uint16"
            }
          ],
          "internalType": "struct ClockTowerSubscribe.Time",
          "name": "time",
          "type": "tuple"
        }
      ],
      "stateMutability": "pure",
      "type": "function"
    },
    {
      "inputs": [
        {
          "internalType": "bytes32",
          "name": "id",
          "type": "bytes32"
        }
      ],
      "name": "unsubscribe",
      "outputs": [],
      "stateMutability": "payable",
      "type": "function"
    },
    {
      "stateMutability": "payable",
      "type": "receive"
    }
  ],
  "bytecode": "0x6080604052600080546001600160a01b03191673f39fd6e51aad88f6f4ce6ab8827279cfffb922661790556127d86001908155662386f26fc10000600255640ba43b740060035560056004556009805460ff19169055620000604262000094565b6200006c9190620000ab565b600960016101000a81548164ffffffffff021916908364ffffffffff16021790555062000113565b6000620000a56201518083620000e0565b92915050565b600064ffffffffff83811690831681811015620000d857634e487b7160e01b600052601160045260246000fd5b039392505050565b600064ffffffffff808416806200010757634e487b7160e01b600052601260045260246000fd5b92169190910492915050565b6139c280620001236000396000f3fe6080604052600436106100eb5760003560e01c80636a1db1bf11610084578063a429131a11610056578063a429131a146102a5578063ab7e0909146102b8578063ced72f87146102d8578063f8c60146146102f657005b80636a1db1bf146102305780637507ba39146102505780638e83ac4a146102655780638f2839701461028557005b80633084f79e116100bd5780633084f79e146101695780633816377e1461017c57806353a6d6e21461019c5780636605ac0d1461020357005b8063053149fa146100f4578063094f9977146101145780631385d24c1461013457806327ea97731461014957005b366100f257005b005b34801561010057600080fd5b506100f261010f3660046132d4565b610309565b34801561012057600080fd5b506100f261012f3660046132f6565b6104f1565b34801561014057600080fd5b506100f2610bab565b34801561015557600080fd5b506100f2610164366004613332565b610bc7565b6100f261017736600461336c565b610bd4565b34801561018857600080fd5b506100f2610197366004613332565b6110fe565b3480156101a857600080fd5b506101bc6101b7366004613332565b61110b565b6040516101fa9190815161ffff9081168252602080840151821690830152604080840151821690830152606092830151169181019190915260800190565b60405180910390f35b34801561020f57600080fd5b5061022361021e366004613427565b61136d565b6040516101fa91906134d6565b34801561023c57600080fd5b506100f261024b366004613332565b6116c7565b34801561025c57600080fd5b506100f26116d4565b34801561027157600080fd5b506100f2610280366004613332565b6122b1565b34801561029157600080fd5b506100f26102a03660046132d4565b6122be565b6100f26102b33660046132f6565b612311565b3480156102c457600080fd5b506100f26102d33660046132d4565b6124bd565b3480156102e457600080fd5b506001546040519081526020016101fa565b6100f2610304366004613332565b612564565b610311612780565b6001600160a01b03811661032457600080fd5b61032d816127bf565b6103625760405162461bcd60e51b81526020600482015260016024820152601960f91b60448201526064015b60405180910390fd5b600060088054806020026020016040519081016040528092919081815260200182805480156103ba57602002820191906000526020600020905b81546001600160a01b0316815260019091019060200180831161039c575b505050505090506000805b825181101561041b57836001600160a01b03168382815181106103ea576103ea613607565b60200260200101516001600160a01b031614156104095780915061041b565b8061041381613633565b9150506103c5565b50805b60085461042d9060019061364e565b8110156104b8576008610441826001613665565b8154811061045157610451613607565b600091825260209091200154600880546001600160a01b03909216918390811061047d5761047d613607565b600091825260209091200180546001600160a01b0319166001600160a01b0392909216919091179055806104b081613633565b91505061041e565b5060088054806104ca576104ca61367d565b600082815260209020810160001990810180546001600160a01b0319169055019055505050565b6104f9612880565b610526813561050f610100840160e08501613693565b61051f60e0850160c086016136ae565b60006128b1565b6105565760405162461bcd60e51b81526020600482015260016024820152603760f81b6044820152606401610359565b80356000908152600d60209081526040808320805482518185028101850190935280835291929091908301828280156105b857602002820191906000526020600020905b81546001600160a01b0316815260019091019060200180831161059a575b5050505050905060005b81518110156108d4576000600a60008484815181106105e3576105e3613607565b60200260200101516001600160a01b03166001600160a01b031681526020019081526020016000206002018054905067ffffffffffffffff81111561062a5761062a6136c9565b60405190808252806020026020018201604052801561066357816020015b6106506131f7565b8152602001906001900390816106485790505b509050600a600084848151811061067c5761067c613607565b60200260200101516001600160a01b03166001600160a01b03168152602001908152602001600020600201805480602002602001604051908101604052809291908181526020016000905b8282101561077d576000848152602090819020604080516080810182526002860290920180548352600181015461ffff81169484019490945291929083019062010000900460ff16600381111561072057610720613444565b600381111561073157610731613444565b81526020016001820160039054906101000a900460ff16600281111561075957610759613444565b600281111561076a5761076a613444565b81525050815260200190600101906106c7565b50505050905060005b600a600085858151811061079c5761079c613607565b60200260200101516001600160a01b03166001600160a01b03168152602001908152602001600020600201805490508110156108995784600001358282815181106107e9576107e9613607565b6020026020010151600001511415610887576001600a600086868151811061081357610813613607565b60200260200101516001600160a01b03166001600160a01b03168152602001908152602001600020600201828154811061084f5761084f613607565b906000526020600020906002020160010160036101000a81548160ff0219169083600281111561088157610881613444565b02179055505b8061089181613633565b915050610786565b506108c184600001358484815181106108b4576108b4613607565b602002602001015161292d565b50806108cc81613633565b9150506105c2565b506000600c816108ea60e0860160c087016136ae565b60038111156108fb576108fb613444565b815260200190815260200160002060008460e001602081019061091e9190613693565b61ffff1661ffff168152602001908152602001600020805480602002602001604051908101604052809291908181526020016000905b82821015610abe5760008481526020908190206040805161012081018252600586029092018054835260018101549383019390935260028301546001600160a01b0390811691830191909152600380840154918216606084015260ff600160a01b8304811615156080850152600160a81b83048116151560a085015292939260c0850192600160b01b900416908111156109f0576109f0613444565b6003811115610a0157610a01613444565b81526003820154600160b81b900461ffff166020820152600482018054604090920191610a2d906136df565b80601f0160208091040260200160405190810160405280929190818152602001828054610a59906136df565b8015610aa65780601f10610a7b57610100808354040283529160200191610aa6565b820191906000526020600020905b815481529060010190602001808311610a8957829003601f168201915b50505050508152505081526020019060010190610954565b50505050905060005b8151811015610ba5578360000135828281518110610ae757610ae7613607565b6020026020010151600001511415610b93576001600c6000610b0f60e0880160c089016136ae565b6003811115610b2057610b20613444565b815260200190815260200160002060008660e0016020810190610b439190613693565b61ffff1661ffff1681526020019081526020016000208281548110610b6a57610b6a613607565b906000526020600020906005020160030160156101000a81548160ff0219169083151502179055505b80610b9d81613633565b915050610ac7565b50505050565b610bb3612780565b6009805460ff19811660ff90911615179055565b610bcf612780565b600455565b610bdc612880565b6001600160a01b038516610c165760405162461bcd60e51b81526020600482015260016024820152600760fb1b6044820152606401610359565b346002541115610c4c5760405162461bcd60e51b81526020600482015260016024820152603560f81b6044820152606401610359565b610c55856127bf565b610c855760405162461bcd60e51b81526020600482015260016024820152603960f81b6044820152606401610359565b60008611610cba5760405162461bcd60e51b8152602060048201526002602482015261031360f41b6044820152606401610359565b6020831115610d0b5760405162461bcd60e51b815260206004820152601a60248201527f537472696e67206d757374206265203c3d2033322062797465730000000000006044820152606401610359565b6000826003811115610d1f57610d1f613444565b1415610d8a578061ffff166000108015610d3e575060078161ffff1611155b610d8a5760405162461bcd60e51b815260206004820152601760248201527f4d757374206265206265747765656e203120616e6420370000000000000000006044820152606401610359565b6001826003811115610d9e57610d9e613444565b1415610e09578061ffff166000108015610dbd5750601c8161ffff1611155b610e095760405162461bcd60e51b815260206004820152601b60248201527f4d757374757374206265206265747765656e203120616e6420323800000000006044820152606401610359565b6002826003811115610e1d57610e1d613444565b1415610e88578061ffff166000108015610e3c5750605a8161ffff1611155b610e885760405162461bcd60e51b815260206004820152601860248201527f4d757374206265206265747765656e203120616e6420393000000000000000006044820152606401610359565b6003826003811115610e9c57610e9c613444565b1415610f08578061ffff166000108015610ebc575061016d8161ffff1611155b610f085760405162461bcd60e51b815260206004820152601960248201527f4d757374206265206265747765656e203120616e6420333635000000000000006044820152606401610359565b6000610f4f878787878080601f016020809104026020016040519081016040528093929190818152602001838380828437600092019190915250899250889150612a7a9050565b905080600c6000856003811115610f6857610f68613444565b81526020808201929092526040908101600090812061ffff87168252835281812080546001818101835591835291849020855160059093020191825592840151928101929092558201516002820180546001600160a01b039283166001600160a01b0319909116179055606083015160038084018054608087015160a08801511515600160a81b0260ff60a81b19911515600160a01b0274ffffffffffffffffffffffffffffffffffffffffff199093169590961694909417179283168417815560c086015193909260ff60b01b1990911661ffff60a81b199091161790600160b01b90849081111561105d5761105d613444565b021790555060e082015160038201805461ffff909216600160b81b0261ffff60b81b1990921691909117905561010082015180516110a591600484019160209091019061321f565b509050506110f56040518060800160405280836000015181526020018360e0015161ffff1681526020018360c0015160038111156110e5576110e5613444565b8152602001600090526001612b68565b50505050505050565b611106612780565b600355565b60408051608081018252600080825260208201819052918101829052606081018290529061113c6201518084613730565b905060008082816111508262010bd9613744565b61115d9062253d8c613744565b9050600062023ab1611170836004613784565b61117a919061380b565b9050600461118b8262023ab1613784565b611196906003613744565b6111a0919061380b565b6111aa9083613839565b9150600062164b096111bd846001613744565b6111c990610fa0613784565b6111d3919061380b565b905060046111e3826105b5613784565b6111ed919061380b565b6111f79084613839565b61120290601f613744565b9250600061098f611214856050613784565b61121e919061380b565b9050600060506112308361098f613784565b61123a919061380b565b6112449086613839565b9050611251600b8361380b565b945061125e85600c613784565b611269836002613744565b6112739190613839565b91508483611282603187613839565b61128d906064613784565b6112979190613744565b6112a19190613744565b909750915086828282600060015b8381116112fc57838114156112d3576112cc61ffff8e1683613665565b91506112ea565b6112dd8585612d1b565b6112e79083613665565b91505b806112f481613633565b9150506112af565b50809a5061130e8b61ffff1685612da3565b61ffff1660408f01526113208f612e71565b8e6020019061ffff16908161ffff16815250508b8e6000019061ffff16908161ffff16815250508a8e6060019061ffff16908161ffff168152505050505050505050505050505050919050565b606080821561146457336000908152600a6020908152604080832060020180548251818502810185019093528083529193909284015b82821015611459576000848152602090819020604080516080810182526002860290920180548352600181015461ffff81169484019490945291929083019062010000900460ff1660038111156113fc576113fc613444565b600381111561140d5761140d613444565b81526020016001820160039054906101000a900460ff16600281111561143557611435613444565b600281111561144657611446613444565b81525050815260200190600101906113a3565b50505050905061154e565b336000908152600a6020908152604080832060030180548251818502810185019093528083529193909284015b82821015611547576000848152602090819020604080516080810182526002860290920180548352600181015461ffff81169484019490945291929083019062010000900460ff1660038111156114ea576114ea613444565b60038111156114fb576114fb613444565b81526020016001820160039054906101000a900460ff16600281111561152357611523613444565b600281111561153457611534613444565b8152505081526020019060010190611491565b5050505090505b6000815167ffffffffffffffff81111561156a5761156a6136c9565b6040519080825280602002602001820160405280156115f857816020015b6115e560405180604001604052806132136040805161012081018252600080825260208201819052918101829052606081018290526080810182905260a081018290529060c0820190815260006020820152606060409091015290565b8152602001906001900390816115885790505b50905060005b82518110156116bf5761162983828151811061161c5761161c613607565b6020026020010151612ea7565b82828151811061163b5761163b613607565b60200260200101516000018190525082818151811061165c5761165c613607565b60200260200101516060015182828151811061167a5761167a613607565b602002602001015160200190600281111561169757611697613444565b908160028111156116aa576116aa613444565b905250806116b781613633565b9150506115fe565b509392505050565b6116cf612780565b600155565b6116dc612780565b6003543a1061172d5760405162461bcd60e51b815260206004820152601260248201527f47617320707269636520746f6f206869676800000000000000000000000000006044820152606401610359565b600061173842613131565b60095490915064ffffffffff6101009091048116908216116117815760405162461bcd60e51b81526020600482015260026024820152610c4d60f21b6044820152606401610359565b600061178c4261110b565b90506000805b600381116121fe576000816117a8575060208301515b60018214156117b5575082515b60028214156117c5575060408301515b60038214156117d5575060608301515b6000828152600c6020908152604080832061ffff85168452909152812054905b818110156121e8576000848152600c6020908152604080832061ffff87168452909152902080548290811061182c5761182c613607565b906000526020600020906005020160030160159054906101000a900460ff166121d6576000848152600c6020908152604080832061ffff87168452909152812080548390811061187e5761187e613607565b60009182526020808320600590920290910154878352600c8252604080842061ffff89168552909252908220805491935090849081106118c0576118c0613607565b6000918252602080832060036005909302019190910154888352600c8252604080842061ffff8a16855290925290822080546001600160a01b039092169350908590811061191057611910613607565b6000918252602080832060016005909302019190910154898352600c8252604080842061ffff8b1685529092529082208054919350908690811061195657611956613607565b6000918252602090912060059091020160020154604051636eb1769f60e11b81526001600160a01b03918216600482018190523060248301529250600160ff1b9185169063dd62ed3e90604401602060405180830381600087803b1580156119bd57600080fd5b505af11580156119d1573d6000803e3d6000fd5b505050506040513d601f19601f820116820180604052508101906119f59190613878565b1015611a5857604080514264ffffffffff16815260006020820152600f8183015290516001600160a01b0383169186917ff8d686a160023007065724163bb5fdf7c7168466a7cbc9eb52fa748f2d53a8559181900360600190a3505050506121e8565b60008261271060015485611a6c9190613891565b611a769190613730565b611a80919061364e565b90506000805b6000878152600d60205260409020548110156121ce576004548c1415611cd357604080518082018252888152602001829052600588905560068290556007805460ff1916905551636eb1769f60e11b81526001600160a01b03858116600483015230602483015283919088169063dd62ed3e90604401602060405180830381600087803b158015611b1657600080fd5b505af1158015611b2a573d6000803e3d6000fd5b505050506040513d601f19601f82011682018060405250810190611b4e9190613878565b10158015611bd757506040516370a0823160e01b81526001600160a01b0385811660048301528391908816906370a0823190602401602060405180830381600087803b158015611b9d57600080fd5b505af1158015611bb1573d6000803e3d6000fd5b505050506040513d601f19601f82011682018060405250810190611bd59190613878565b105b15611c6d576040516323b872dd60e01b81526001600160a01b038581166004830152336024830152604482018490528716906323b872dd90606401602060405180830381600087803b158015611c2c57600080fd5b505af1158015611c40573d6000803e3d6000fd5b505050506040513d601f19601f82011682018060405250810190611c6491906138b0565b611c6d57600080fd5b6009546040805164ffffffffff428116825261010090930492909216602083015260009082015233907f90192d7875364a53e351ae63fd2dfef8dc941735b29fb0c504d06a0e21ae602e9060600160405180910390a25050505050505050505050505050565b60055487148015611ce5575060065481145b15611cf8576007805460ff191660011790555b6005541580611d0e575060075460ff1615156001145b156121bc576000878152600d60205260408120805483908110611d3357611d33613607565b600091825260209091200154604051636eb1769f60e11b81526001600160a01b03918216600482018190523060248301529250879189169063dd62ed3e90604401602060405180830381600087803b158015611d8e57600080fd5b505af1158015611da2573d6000803e3d6000fd5b505050506040513d601f19601f82011682018060405250810190611dc69190613878565b10158015611e4f57506040516370a0823160e01b81526001600160a01b0382811660048301528791908916906370a0823190602401602060405180830381600087803b158015611e1557600080fd5b505af1158015611e29573d6000803e3d6000fd5b505050506040513d601f19601f82011682018060405250810190611e4d9190613878565b105b15611ec9578c611e5e81613633565b9d50611e6c90508484613665565b604080514264ffffffffff1681526020810189905260008183015290519194506001600160a01b038316918a917feb34db283910a123efc9e9c8a81c4fb25bfc0c3d4c0e30e300bed3d05853f716919081900360600190a3611fd5565b8c611ed381613633565b9d50611ee190508484613665565b604080514264ffffffffff1681526020810189905260018183015290519194506001600160a01b038316918a917feb34db283910a123efc9e9c8a81c4fb25bfc0c3d4c0e30e300bed3d05853f716919081900360600190a3611f428d613140565b6040516323b872dd60e01b81526001600160a01b0382811660048301528681166024830152604482018890528816906323b872dd90606401602060405180830381600087803b158015611f9457600080fd5b505af1158015611fa8573d6000803e3d6000fd5b505050506040513d601f19601f82011682018060405250810190611fcc91906138b0565b611fd557600080fd5b6000888152600d6020526040902054611ff09060019061364e565b8214156121ba576040516370a0823160e01b81526001600160a01b0386811660048301528491908916906370a0823190602401602060405180830381600087803b15801561203d57600080fd5b505af1158015612051573d6000803e3d6000fd5b505050506040513d601f19601f820116820180604052508101906120759190613878565b101561216557604080514264ffffffffff1681526001602082015260008183015290516001600160a01b038716918a917ff8d686a160023007065724163bb5fdf7c7168466a7cbc9eb52fa748f2d53a8559181900360600190a36040516323b872dd60e01b81526001600160a01b038681166004830152336024830152604482018590528816906323b872dd90606401602060405180830381600087803b15801561211f57600080fd5b505af1158015612133573d6000803e3d6000fd5b505050506040513d601f19601f8201168201806040525081019061215791906138b0565b61216057600080fd5b6121ba565b604080514264ffffffffff1681526001602082015260118183015290516001600160a01b038716918a917ff8d686a160023007065724163bb5fdf7c7168466a7cbc9eb52fa748f2d53a8559181900360600190a35b505b806121c681613633565b915050611a86565b505050505050505b806121e081613633565b9150506117f5565b50505080806121f690613633565b915050611792565b50600060058190556006556007805460ff191690556009546040805164ffffffffff4281168252610100909304909216602083015260019082015233907f90192d7875364a53e351ae63fd2dfef8dc941735b29fb0c504d06a0e21ae602e9060600160405180910390a26001600960018282829054906101000a900464ffffffffff1661228b91906138cd565b92506101000a81548164ffffffffff021916908364ffffffffff1602179055505050505b565b6122b9612780565b600255565b6122c6612780565b336001600160a01b0382161480156122e657506001600160a01b03811615155b6122ef57600080fd5b600080546001600160a01b0319166001600160a01b0392909216919091179055565b612319612880565b602081013561232e60808301606084016132d4565b604051636eb1769f60e11b81523360048201523060248201526001600160a01b03919091169063dd62ed3e90604401602060405180830381600087803b15801561237757600080fd5b505af115801561238b573d6000803e3d6000fd5b505050506040513d601f19601f820116820180604052508101906123af9190613878565b10156123e25760405162461bcd60e51b8152602060048201526002602482015261313360f01b6044820152606401610359565b6123f8813561050f610100840160e08501613693565b6124285760405162461bcd60e51b81526020600482015260016024820152603760f81b6044820152606401610359565b80356000818152600d6020908152604080832080546001810182559084529282902090920180546001600160a01b031916331790558151608081019092529181526124ba918101612480610100850160e08601613693565b61ffff16815260200161249960e0850160c086016136ae565b60038111156124aa576124aa613444565b8152602001600090526000612b68565b50565b6124c5612780565b6001600160a01b0381166124d857600080fd5b6124e1816127bf565b156125125760405162461bcd60e51b81526020600482015260016024820152603160f81b6044820152606401610359565b600880546001810182556000919091527ff3f7a9fe364faab93b216da50a3214154f22a0a2b415b23a84c8169e8b636ee30180546001600160a01b0319166001600160a01b0392909216919091179055565b61256c612880565b336000908152600a602052604081206002015467ffffffffffffffff811115612597576125976136c9565b6040519080825280602002602001820160405280156125d057816020015b6125bd6131f7565b8152602001906001900390816125b55790505b50336000908152600a60209081526040808320600201805482518185028101850190935280835294955090939092909184015b828210156126b9576000848152602090819020604080516080810182526002860290920180548352600181015461ffff81169484019490945291929083019062010000900460ff16600381111561265c5761265c613444565b600381111561266d5761266d613444565b81526020016001820160039054906101000a900460ff16600281111561269557612695613444565b60028111156126a6576126a6613444565b8152505081526020019060010190612603565b50505050905060005b336000908152600a602052604090206002015481101561277157828282815181106126ef576126ef613607565b602002602001015160000151141561275f57336000908152600a60205260409020600290810180548390811061272757612727613607565b906000526020600020906002020160010160036101000a81548160ff0219169083600281111561275957612759613444565b02179055505b8061276981613633565b9150506126c2565b5061277c823361292d565b5050565b6000546001600160a01b031633146122af5760405162461bcd60e51b8152602060048201526002602482015261189b60f11b6044820152606401610359565b600080600880548060200260200160405190810160405280929190818152602001828054801561281857602002820191906000526020600020905b81546001600160a01b031681526001909101906020018083116127fa575b505050505090506000915060005b81518110156128795781818151811061284157612841613607565b60200260200101516001600160a01b0316846001600160a01b0316141561286757600192505b8061287181613633565b915050612826565b5050919050565b336122af5760405162461bcd60e51b81526020600482015260016024820152603360f81b6044820152606401610359565b60008060405180608001604052808781526020018661ffff1681526020018560038111156128e1576128e1613444565b81526020018460028111156128f8576128f8613444565b90529050600061290782612ea7565b905080608001511561291e57600192505050612925565b6000925050505b949350505050565b6000828152600d6020526040812090805b8254811015612a7357836001600160a01b031683828154811061296357612963613607565b6000918252602090912001546001600160a01b031614156129b15780915082818154811061299357612993613607565b600091825260209091200180546001600160a01b0319169055612a73565b825483906129c19060019061364e565b815481106129d1576129d1613607565b9060005260206000200160009054906101000a90046001600160a01b0316838381548110612a0157612a01613607565b9060005260206000200160006101000a8154816001600160a01b0302191690836001600160a01b0316021790555082805480612a3f57612a3f61367d565b600082815260209020810160001990810180546001600160a01b031916905501905580612a6b81613633565b91505061293e565b5050505050565b612ac96040805161012081018252600080825260208201819052918101829052606081018290526080810182905260a081018290529060c0820190815260006020820152606060409091015290565b60003386848742604051602001612ae49594939291906138f6565b60408051601f198184030181528282528051602091820120610120840183528084529083018a905233918301919091526001600160a01b038816606083015260016080830152600060a0830152915060c08101856003811115612b4957612b49613444565b81526020018461ffff1681526020018681525091505095945050505050565b336000908152600a6020526040902054600160a01b900460ff16612bf257336000818152600a6020526040812080546001600160a01b031990811684178255600b8054600181019091557f0175b7a638427703f0dbe7bb9bbf987a2551717b34e79f33b5b1008d1fa01db901805490911684179055919052805460ff60a01b1916600160a01b1790555b8015612ca857336000908152600a60209081526040808320600390810180546001808201835591865294849020875160029096020194855592860151928401805461ffff19811661ffff9095169485178255928701518795949093919262ffffff19909216179062010000908490811115612c6f57612c6f613444565b0217905550606082015160018201805463ff00000019166301000000836002811115612c9d57612c9d613444565b021790555050505050565b336000908152600a6020908152604080832060029081018054600180820183559186529484902087519590920290910193845591850151918301805461ffff19811661ffff909416938417825591860151869493909262ffffff19161762010000836003811115612c6f57612c6f613444565b60008160011480612d2c5750816003145b80612d375750816005145b80612d425750816007145b80612d4d5750816008145b80612d58575081600a145b80612d63575081600c145b15612d705750601f612d9d565b81600214612d805750601e612d9d565b612d898361319a565b612d9457601c612d97565b601d5b60ff1690505b92915050565b600080612daf8361319a565b15612dbc57506001612dc0565b5060005b612dcb81605a613665565b8411612dd957839150612e6a565b83612de582605a613665565b108015612dfc5750612df88160b5613665565b8411155b15612e1d57612e0c81605a613665565b612e16908561364e565b9150612e6a565b83612e298260b5613665565b108015612e415750612e3d81610111613665565b8411155b15612e5157612e0c8160b5613665565b612e5d81610111613665565b612e67908561364e565b91505b5092915050565b600080612e816201518084613730565b905060006007612e92836003613665565b612e9c9190613954565b612925906001613665565b612ef66040805161012081018252600080825260208201819052918101829052606081018290526080810182905260a081018290529060c0820190815260006020820152606060409091015290565b6000600c600084604001516003811115612f1257612f12613444565b81526020019081526020016000206000846020015161ffff1661ffff168152602001908152602001600020805480602002602001604051908101604052809291908181526020016000905b828210156130c75760008481526020908190206040805161012081018252600586029092018054835260018101549383019390935260028301546001600160a01b0390811691830191909152600380840154918216606084015260ff600160a01b8304811615156080850152600160a81b83048116151560a085015292939260c0850192600160b01b90041690811115612ff957612ff9613444565b600381111561300a5761300a613444565b81526003820154600160b81b900461ffff166020820152600482018054604090920191613036906136df565b80601f0160208091040260200160405190810160405280929190818152602001828054613062906136df565b80156130af5780601f10613084576101008083540402835291602001916130af565b820191906000526020600020905b81548152906001019060200180831161309257829003601f168201915b50505050508152505081526020019060010190612f5d565b50505050905060005b81518110156128795783600001518282815181106130f0576130f0613607565b602002602001015160000151141561311f5781818151811061311457613114613607565b602002602001015192505b8061312981613633565b9150506130d0565b6000612d9d6201518083613968565b6124ba8160405160240161315691815260200190565b60408051601f198184030181529190526020810180517bffffffffffffffffffffffffffffffffffffffffffffffffffffffff1663f82c50f160e01b1790526131d6565b60006131a7600483613954565b1580156131bd57506131ba606483613954565b15155b80612d9d57506131cf61019083613954565b1592915050565b80516a636f6e736f6c652e6c6f67602083016000808483855afa5050505050565b6040805160808101825260008082526020820181905290918201905b81526020016000905290565b82805461322b906136df565b90600052602060002090601f01602090048101928261324d5760008555613293565b82601f1061326657805160ff1916838001178555613293565b82800160010185558215613293579182015b82811115613293578251825591602001919060010190613278565b5061329f9291506132a3565b5090565b5b8082111561329f57600081556001016132a4565b80356001600160a01b03811681146132cf57600080fd5b919050565b6000602082840312156132e657600080fd5b6132ef826132b8565b9392505050565b60006020828403121561330857600080fd5b813567ffffffffffffffff81111561331f57600080fd5b820161012081850312156132ef57600080fd5b60006020828403121561334457600080fd5b5035919050565b8035600481106132cf57600080fd5b803561ffff811681146132cf57600080fd5b60008060008060008060a0878903121561338557600080fd5b86359550613395602088016132b8565b9450604087013567ffffffffffffffff808211156133b257600080fd5b818901915089601f8301126133c657600080fd5b8135818111156133d557600080fd5b8a60208285010111156133e757600080fd5b6020830196508095505050506133ff6060880161334b565b915061340d6080880161335a565b90509295509295509295565b80151581146124ba57600080fd5b60006020828403121561343957600080fd5b81356132ef81613419565b634e487b7160e01b600052602160045260246000fd5b6004811061346a5761346a613444565b9052565b60005b83811015613489578181015183820152602001613471565b83811115610ba55750506000910152565b600081518084526134b281602086016020860161346e565b601f01601f19169290920160200192915050565b6003811061346a5761346a613444565b60006020808301818452808551808352604092508286019150828160051b87010184880160005b838110156135f957603f198984030185528151805187855280518886015288810151606081818801528983015191506080613542818901846001600160a01b03169052565b90830151915060a09061355f888301846001600160a01b03169052565b830151915060c06135738882018415159052565b90830151915060e0906135898883018415159052565b830151915061010061359d8882018461345a565b908301519150610120906135b68883018461ffff169052565b9290920151610140870192909252506135d361016086018261349a565b918901519190506135e6858a01836134c6565b95880195935050908601906001016134fd565b509098975050505050505050565b634e487b7160e01b600052603260045260246000fd5b634e487b7160e01b600052601160045260246000fd5b60006000198214156136475761364761361d565b5060010190565b6000828210156136605761366061361d565b500390565b600082198211156136785761367861361d565b500190565b634e487b7160e01b600052603160045260246000fd5b6000602082840312156136a557600080fd5b6132ef8261335a565b6000602082840312156136c057600080fd5b6132ef8261334b565b634e487b7160e01b600052604160045260246000fd5b600181811c908216806136f357607f821691505b6020821081141561371457634e487b7160e01b600052602260045260246000fd5b50919050565b634e487b7160e01b600052601260045260246000fd5b60008261373f5761373f61371a565b500490565b6000808212826001600160ff1b03038413811516156137655761376561361d565b600160ff1b839003841281161561377e5761377e61361d565b50500190565b60006001600160ff1b036000841360008413858304851182821616156137ac576137ac61361d565b600160ff1b60008712828116878305891216156137cb576137cb61361d565b600087129250878205871284841616156137e7576137e761361d565b878505871281841616156137fd576137fd61361d565b505050929093029392505050565b60008261381a5761381a61371a565b600160ff1b8214600019841416156138345761383461361d565b500590565b60008083128015600160ff1b8501841216156138575761385761361d565b836001600160ff1b030183138116156138725761387261361d565b50500390565b60006020828403121561388a57600080fd5b5051919050565b60008160001904831182151516156138ab576138ab61361d565b500290565b6000602082840312156138c257600080fd5b81516132ef81613419565b600064ffffffffff8083168185168083038211156138ed576138ed61361d565b01949350505050565b60006bffffffffffffffffffffffff19808860601b168352808760601b1660148401525061ffff60f01b8560f01b166028830152835161393d81602a85016020880161346e565b602a920191820192909252604a0195945050505050565b6000826139635761396361371a565b500690565b600064ffffffffff808416806139805761398061371a565b9216919091049291505056fea26469706673582212203228e3a1ecea510b79a89a7a4c414d21f8b7f375f7e60500a295f9e9736da18664736f6c63430008090033",
  "linkReferences": {},
  "deployedLinkReferences": {}
}