{
  "_format": "hh-sol-artifact-1",
  "contractName": "ClockTowerSubscribe",
  "sourceName": "contracts/ClockTowerSubscribe.sol",
  "abi": [
    {
      "inputs": [
        {
          "internalType": "uint256",
          "name": "callerFee_",
          "type": "uint256"
        },
        {
          "internalType": "uint256",
          "name": "systemFee_",
          "type": "uint256"
        },
        {
          "internalType": "uint256",
          "name": "maxRemits_",
          "type": "uint256"
        },
        {
          "internalType": "uint256",
          "name": "cancelLimit_",
          "type": "uint256"
        },
        {
          "internalType": "bool",
          "name": "allowSystemFee_",
          "type": "bool"
        },
        {
          "internalType": "address",
          "name": "admin_",
          "type": "address"
        },
        {
          "internalType": "address",
          "name": "janitor_",
          "type": "address"
        }
      ],
      "stateMutability": "nonpayable",
      "type": "constructor"
    },
    {
      "inputs": [],
      "name": "AccessControlBadConfirmation",
      "type": "error"
    },
    {
      "inputs": [
        {
          "internalType": "uint48",
          "name": "schedule",
          "type": "uint48"
        }
      ],
      "name": "AccessControlEnforcedDefaultAdminDelay",
      "type": "error"
    },
    {
      "inputs": [],
      "name": "AccessControlEnforcedDefaultAdminRules",
      "type": "error"
    },
    {
      "inputs": [
        {
          "internalType": "address",
          "name": "defaultAdmin",
          "type": "address"
        }
      ],
      "name": "AccessControlInvalidDefaultAdmin",
      "type": "error"
    },
    {
      "inputs": [
        {
          "internalType": "address",
          "name": "account",
          "type": "address"
        },
        {
          "internalType": "bytes32",
          "name": "neededRole",
          "type": "bytes32"
        }
      ],
      "name": "AccessControlUnauthorizedAccount",
      "type": "error"
    },
    {
      "inputs": [
        {
          "internalType": "uint8",
          "name": "bits",
          "type": "uint8"
        },
        {
          "internalType": "uint256",
          "name": "value",
          "type": "uint256"
        }
      ],
      "name": "SafeCastOverflowedUintDowncast",
      "type": "error"
    },
    {
      "inputs": [
        {
          "internalType": "address",
          "name": "token",
          "type": "address"
        }
      ],
      "name": "SafeERC20FailedOperation",
      "type": "error"
    },
    {
      "anonymous": false,
      "inputs": [
        {
          "indexed": true,
          "internalType": "uint40",
          "name": "timestamp",
          "type": "uint40"
        },
        {
          "indexed": true,
          "internalType": "uint40",
          "name": "checkedDay",
          "type": "uint40"
        },
        {
          "indexed": true,
          "internalType": "address",
          "name": "caller",
          "type": "address"
        },
        {
          "indexed": false,
          "internalType": "bool",
          "name": "isFinished",
          "type": "bool"
        }
      ],
      "name": "CallerLog",
      "type": "event"
    },
    {
      "anonymous": false,
      "inputs": [
        {
          "indexed": true,
          "internalType": "bytes32",
          "name": "id",
          "type": "bytes32"
        },
        {
          "indexed": false,
          "internalType": "uint256",
          "name": "subscriberIndex",
          "type": "uint256"
        },
        {
          "indexed": false,
          "internalType": "uint256",
          "name": "subscriptionIndex",
          "type": "uint256"
        },
        {
          "indexed": false,
          "internalType": "uint256",
          "name": "frequency",
          "type": "uint256"
        },
        {
          "indexed": true,
          "internalType": "uint40",
          "name": "nextUncheckedDay",
          "type": "uint40"
        }
      ],
      "name": "Coordinates",
      "type": "event"
    },
    {
      "anonymous": false,
      "inputs": [],
      "name": "DefaultAdminDelayChangeCanceled",
      "type": "event"
    },
    {
      "anonymous": false,
      "inputs": [
        {
          "indexed": false,
          "internalType": "uint48",
          "name": "newDelay",
          "type": "uint48"
        },
        {
          "indexed": false,
          "internalType": "uint48",
          "name": "effectSchedule",
          "type": "uint48"
        }
      ],
      "name": "DefaultAdminDelayChangeScheduled",
      "type": "event"
    },
    {
      "anonymous": false,
      "inputs": [],
      "name": "DefaultAdminTransferCanceled",
      "type": "event"
    },
    {
      "anonymous": false,
      "inputs": [
        {
          "indexed": true,
          "internalType": "address",
          "name": "newAdmin",
          "type": "address"
        },
        {
          "indexed": false,
          "internalType": "uint48",
          "name": "acceptSchedule",
          "type": "uint48"
        }
      ],
      "name": "DefaultAdminTransferScheduled",
      "type": "event"
    },
    {
      "anonymous": false,
      "inputs": [
        {
          "indexed": true,
          "internalType": "bytes32",
          "name": "id",
          "type": "bytes32"
        },
        {
          "indexed": true,
          "internalType": "address",
          "name": "provider",
          "type": "address"
        },
        {
          "indexed": true,
          "internalType": "uint40",
          "name": "timestamp",
          "type": "uint40"
        },
        {
          "indexed": false,
          "internalType": "string",
          "name": "url",
          "type": "string"
        },
        {
          "indexed": false,
          "internalType": "string",
          "name": "description",
          "type": "string"
        }
      ],
      "name": "DetailsLog",
      "type": "event"
    },
    {
      "anonymous": false,
      "inputs": [
        {
          "indexed": true,
          "internalType": "address",
          "name": "provider",
          "type": "address"
        },
        {
          "indexed": true,
          "internalType": "uint40",
          "name": "timestamp",
          "type": "uint40"
        },
        {
          "indexed": true,
          "internalType": "string",
          "name": "description",
          "type": "string"
        },
        {
          "indexed": false,
          "internalType": "string",
          "name": "company",
          "type": "string"
        },
        {
          "indexed": false,
          "internalType": "string",
          "name": "url",
          "type": "string"
        },
        {
          "indexed": false,
          "internalType": "string",
          "name": "domain",
          "type": "string"
        },
        {
          "indexed": false,
          "internalType": "string",
          "name": "email",
          "type": "string"
        },
        {
          "indexed": false,
          "internalType": "string",
          "name": "misc",
          "type": "string"
        }
      ],
      "name": "ProvDetailsLog",
      "type": "event"
    },
    {
      "anonymous": false,
      "inputs": [
        {
          "indexed": true,
          "internalType": "bytes32",
          "name": "role",
          "type": "bytes32"
        },
        {
          "indexed": true,
          "internalType": "bytes32",
          "name": "previousAdminRole",
          "type": "bytes32"
        },
        {
          "indexed": true,
          "internalType": "bytes32",
          "name": "newAdminRole",
          "type": "bytes32"
        }
      ],
      "name": "RoleAdminChanged",
      "type": "event"
    },
    {
      "anonymous": false,
      "inputs": [
        {
          "indexed": true,
          "internalType": "bytes32",
          "name": "role",
          "type": "bytes32"
        },
        {
          "indexed": true,
          "internalType": "address",
          "name": "account",
          "type": "address"
        },
        {
          "indexed": true,
          "internalType": "address",
          "name": "sender",
          "type": "address"
        }
      ],
      "name": "RoleGranted",
      "type": "event"
    },
    {
      "anonymous": false,
      "inputs": [
        {
          "indexed": true,
          "internalType": "bytes32",
          "name": "role",
          "type": "bytes32"
        },
        {
          "indexed": true,
          "internalType": "address",
          "name": "account",
          "type": "address"
        },
        {
          "indexed": true,
          "internalType": "address",
          "name": "sender",
          "type": "address"
        }
      ],
      "name": "RoleRevoked",
      "type": "event"
    },
    {
      "anonymous": false,
      "inputs": [
        {
          "indexed": true,
          "internalType": "bytes32",
          "name": "id",
          "type": "bytes32"
        },
        {
          "indexed": true,
          "internalType": "address",
          "name": "provider",
          "type": "address"
        },
        {
          "indexed": true,
          "internalType": "address",
          "name": "subscriber",
          "type": "address"
        },
        {
          "indexed": false,
          "internalType": "uint40",
          "name": "timestamp",
          "type": "uint40"
        },
        {
          "indexed": false,
          "internalType": "uint256",
          "name": "amount",
          "type": "uint256"
        },
        {
          "indexed": false,
          "internalType": "address",
          "name": "token",
          "type": "address"
        },
        {
          "indexed": false,
          "internalType": "enum ClockTowerSubscribe.SubscriptEvent",
          "name": "subScriptEvent",
          "type": "uint8"
        }
      ],
      "name": "SubLog",
      "type": "event"
    },
    {
      "inputs": [],
      "name": "DEFAULT_ADMIN_ROLE",
      "outputs": [
        {
          "internalType": "bytes32",
          "name": "",
          "type": "bytes32"
        }
      ],
      "stateMutability": "view",
      "type": "function"
    },
    {
      "inputs": [],
      "name": "JANITOR_ROLE",
      "outputs": [
        {
          "internalType": "bytes32",
          "name": "",
          "type": "bytes32"
        }
      ],
      "stateMutability": "view",
      "type": "function"
    },
    {
      "inputs": [],
      "name": "acceptDefaultAdminTransfer",
      "outputs": [],
      "stateMutability": "nonpayable",
      "type": "function"
    },
    {
      "inputs": [
        {
          "internalType": "address",
          "name": "erc20Contract",
          "type": "address"
        },
        {
          "internalType": "uint256",
          "name": "minimum",
          "type": "uint256"
        },
        {
          "internalType": "uint8",
          "name": "decimals",
          "type": "uint8"
        }
      ],
      "name": "addERC20Contract",
      "outputs": [],
      "stateMutability": "nonpayable",
      "type": "function"
    },
    {
      "inputs": [
        {
          "internalType": "address",
          "name": "",
          "type": "address"
        }
      ],
      "name": "approvedERC20",
      "outputs": [
        {
          "internalType": "address",
          "name": "tokenAddress",
          "type": "address"
        },
        {
          "internalType": "uint8",
          "name": "decimals",
          "type": "uint8"
        },
        {
          "internalType": "bool",
          "name": "paused",
          "type": "bool"
        },
        {
          "internalType": "uint256",
          "name": "minimum",
          "type": "uint256"
        }
      ],
      "stateMutability": "view",
      "type": "function"
    },
    {
      "inputs": [
        {
          "internalType": "address",
          "name": "newAdmin",
          "type": "address"
        }
      ],
      "name": "beginDefaultAdminTransfer",
      "outputs": [],
      "stateMutability": "nonpayable",
      "type": "function"
    },
    {
      "inputs": [],
      "name": "callerFee",
      "outputs": [
        {
          "internalType": "uint256",
          "name": "",
          "type": "uint256"
        }
      ],
      "stateMutability": "view",
      "type": "function"
    },
    {
      "inputs": [],
      "name": "cancelDefaultAdminTransfer",
      "outputs": [],
      "stateMutability": "nonpayable",
      "type": "function"
    },
    {
      "inputs": [],
      "name": "cancelLimit",
      "outputs": [
        {
          "internalType": "uint256",
          "name": "",
          "type": "uint256"
        }
      ],
      "stateMutability": "view",
      "type": "function"
    },
    {
      "inputs": [
        {
          "components": [
            {
              "internalType": "bytes32",
              "name": "id",
              "type": "bytes32"
            },
            {
              "internalType": "uint256",
              "name": "amount",
              "type": "uint256"
            },
            {
              "internalType": "address",
              "name": "provider",
              "type": "address"
            },
            {
              "internalType": "address",
              "name": "token",
              "type": "address"
            },
            {
              "internalType": "bool",
              "name": "cancelled",
              "type": "bool"
            },
            {
              "internalType": "enum ClockTowerSubscribe.Frequency",
              "name": "frequency",
              "type": "uint8"
            },
            {
              "internalType": "uint16",
              "name": "dueDay",
              "type": "uint16"
            }
          ],
          "internalType": "struct ClockTowerSubscribe.Subscription",
          "name": "_subscription",
          "type": "tuple"
        }
      ],
      "name": "cancelSubscription",
      "outputs": [],
      "stateMutability": "nonpayable",
      "type": "function"
    },
    {
      "inputs": [
        {
          "internalType": "uint256",
          "name": "_fee",
          "type": "uint256"
        }
      ],
      "name": "changeCallerFee",
      "outputs": [],
      "stateMutability": "nonpayable",
      "type": "function"
    },
    {
      "inputs": [
        {
          "internalType": "uint48",
          "name": "newDelay",
          "type": "uint48"
        }
      ],
      "name": "changeDefaultAdminDelay",
      "outputs": [],
      "stateMutability": "nonpayable",
      "type": "function"
    },
    {
      "inputs": [
        {
          "internalType": "uint256",
          "name": "_maxRemits",
          "type": "uint256"
        }
      ],
      "name": "changeMaxRemits",
      "outputs": [],
      "stateMutability": "nonpayable",
      "type": "function"
    },
    {
      "inputs": [
        {
          "internalType": "address",
          "name": "newSysFeeAddress",
          "type": "address"
        }
      ],
      "name": "changeSysFeeReceiver",
      "outputs": [],
      "stateMutability": "nonpayable",
      "type": "function"
    },
    {
      "inputs": [
        {
          "internalType": "uint256",
          "name": "_sys_fee",
          "type": "uint256"
        }
      ],
      "name": "changeSystemFee",
      "outputs": [],
      "stateMutability": "nonpayable",
      "type": "function"
    },
    {
      "inputs": [
        {
          "components": [
            {
              "internalType": "bytes32",
              "name": "id",
              "type": "bytes32"
            },
            {
              "internalType": "uint256",
              "name": "amount",
              "type": "uint256"
            },
            {
              "internalType": "address",
              "name": "provider",
              "type": "address"
            },
            {
              "internalType": "address",
              "name": "token",
              "type": "address"
            },
            {
              "internalType": "bool",
              "name": "cancelled",
              "type": "bool"
            },
            {
              "internalType": "enum ClockTowerSubscribe.Frequency",
              "name": "frequency",
              "type": "uint8"
            },
            {
              "internalType": "uint16",
              "name": "dueDay",
              "type": "uint16"
            }
          ],
          "internalType": "struct ClockTowerSubscribe.Subscription",
          "name": "subscription",
          "type": "tuple"
        }
      ],
      "name": "cleanupCancelledSubscribers",
      "outputs": [],
      "stateMutability": "nonpayable",
      "type": "function"
    },
    {
      "inputs": [
        {
          "internalType": "uint256",
          "name": "amount",
          "type": "uint256"
        },
        {
          "internalType": "address",
          "name": "token",
          "type": "address"
        },
        {
          "components": [
            {
              "internalType": "string",
              "name": "url",
              "type": "string"
            },
            {
              "internalType": "string",
              "name": "description",
              "type": "string"
            }
          ],
          "internalType": "struct ClockTowerSubscribe.Details",
          "name": "details",
          "type": "tuple"
        },
        {
          "internalType": "enum ClockTowerSubscribe.Frequency",
          "name": "frequency",
          "type": "uint8"
        },
        {
          "internalType": "uint16",
          "name": "dueDay",
          "type": "uint16"
        }
      ],
      "name": "createSubscription",
      "outputs": [],
      "stateMutability": "nonpayable",
      "type": "function"
    },
    {
      "inputs": [],
      "name": "defaultAdmin",
      "outputs": [
        {
          "internalType": "address",
          "name": "",
          "type": "address"
        }
      ],
      "stateMutability": "view",
      "type": "function"
    },
    {
      "inputs": [],
      "name": "defaultAdminDelay",
      "outputs": [
        {
          "internalType": "uint48",
          "name": "",
          "type": "uint48"
        }
      ],
      "stateMutability": "view",
      "type": "function"
    },
    {
      "inputs": [],
      "name": "defaultAdminDelayIncreaseWait",
      "outputs": [
        {
          "internalType": "uint48",
          "name": "",
          "type": "uint48"
        }
      ],
      "stateMutability": "view",
      "type": "function"
    },
    {
      "inputs": [
        {
          "components": [
            {
              "internalType": "string",
              "name": "url",
              "type": "string"
            },
            {
              "internalType": "string",
              "name": "description",
              "type": "string"
            }
          ],
          "internalType": "struct ClockTowerSubscribe.Details",
          "name": "details",
          "type": "tuple"
        },
        {
          "internalType": "bytes32",
          "name": "id",
          "type": "bytes32"
        }
      ],
      "name": "editDetails",
      "outputs": [],
      "stateMutability": "nonpayable",
      "type": "function"
    },
    {
      "inputs": [
        {
          "components": [
            {
              "internalType": "string",
              "name": "description",
              "type": "string"
            },
            {
              "internalType": "string",
              "name": "company",
              "type": "string"
            },
            {
              "internalType": "string",
              "name": "url",
              "type": "string"
            },
            {
              "internalType": "string",
              "name": "domain",
              "type": "string"
            },
            {
              "internalType": "string",
              "name": "email",
              "type": "string"
            },
            {
              "internalType": "string",
              "name": "misc",
              "type": "string"
            }
          ],
          "internalType": "struct ClockTowerSubscribe.ProviderDetails",
          "name": "details",
          "type": "tuple"
        }
      ],
      "name": "editProvDetails",
      "outputs": [],
      "stateMutability": "nonpayable",
      "type": "function"
    },
    {
      "inputs": [
        {
          "internalType": "bytes32",
          "name": "",
          "type": "bytes32"
        },
        {
          "internalType": "address",
          "name": "",
          "type": "address"
        }
      ],
      "name": "feeBalance",
      "outputs": [
        {
          "internalType": "uint256",
          "name": "",
          "type": "uint256"
        }
      ],
      "stateMutability": "view",
      "type": "function"
    },
    {
      "inputs": [
        {
          "internalType": "address",
          "name": "account",
          "type": "address"
        }
      ],
      "name": "getAccount",
      "outputs": [
        {
          "components": [
            {
              "internalType": "address",
              "name": "accountAddress",
              "type": "address"
            },
            {
              "components": [
                {
                  "internalType": "bytes32",
                  "name": "id",
                  "type": "bytes32"
                },
                {
                  "internalType": "uint16",
                  "name": "dueDay",
                  "type": "uint16"
                },
                {
                  "internalType": "enum ClockTowerSubscribe.Frequency",
                  "name": "frequency",
                  "type": "uint8"
                },
                {
                  "internalType": "enum ClockTowerSubscribe.Status",
                  "name": "status",
                  "type": "uint8"
                }
              ],
              "internalType": "struct ClockTowerSubscribe.SubIndex[]",
              "name": "subscriptions",
              "type": "tuple[]"
            },
            {
              "components": [
                {
                  "internalType": "bytes32",
                  "name": "id",
                  "type": "bytes32"
                },
                {
                  "internalType": "uint16",
                  "name": "dueDay",
                  "type": "uint16"
                },
                {
                  "internalType": "enum ClockTowerSubscribe.Frequency",
                  "name": "frequency",
                  "type": "uint8"
                },
                {
                  "internalType": "enum ClockTowerSubscribe.Status",
                  "name": "status",
                  "type": "uint8"
                }
              ],
              "internalType": "struct ClockTowerSubscribe.SubIndex[]",
              "name": "provSubs",
              "type": "tuple[]"
            }
          ],
          "internalType": "struct ClockTowerSubscribe.Account",
          "name": "",
          "type": "tuple"
        }
      ],
      "stateMutability": "view",
      "type": "function"
    },
    {
      "inputs": [
        {
          "internalType": "bool",
          "name": "bySubscriber",
          "type": "bool"
        },
        {
          "internalType": "address",
          "name": "account",
          "type": "address"
        }
      ],
      "name": "getAccountSubscriptions",
      "outputs": [
        {
          "components": [
            {
              "components": [
                {
                  "internalType": "bytes32",
                  "name": "id",
                  "type": "bytes32"
                },
                {
                  "internalType": "uint256",
                  "name": "amount",
                  "type": "uint256"
                },
                {
                  "internalType": "address",
                  "name": "provider",
                  "type": "address"
                },
                {
                  "internalType": "address",
                  "name": "token",
                  "type": "address"
                },
                {
                  "internalType": "bool",
                  "name": "cancelled",
                  "type": "bool"
                },
                {
                  "internalType": "enum ClockTowerSubscribe.Frequency",
                  "name": "frequency",
                  "type": "uint8"
                },
                {
                  "internalType": "uint16",
                  "name": "dueDay",
                  "type": "uint16"
                }
              ],
              "internalType": "struct ClockTowerSubscribe.Subscription",
              "name": "subscription",
              "type": "tuple"
            },
            {
              "internalType": "enum ClockTowerSubscribe.Status",
              "name": "status",
              "type": "uint8"
            },
            {
              "internalType": "uint256",
              "name": "totalSubscribers",
              "type": "uint256"
            }
          ],
          "internalType": "struct ClockTowerSubscribe.SubView[]",
          "name": "",
          "type": "tuple[]"
        }
      ],
      "stateMutability": "view",
      "type": "function"
    },
    {
      "inputs": [
        {
          "internalType": "uint256",
          "name": "frequency",
          "type": "uint256"
        },
        {
          "internalType": "uint16",
          "name": "dueDay",
          "type": "uint16"
        }
      ],
      "name": "getIdByTime",
      "outputs": [
        {
          "internalType": "bytes32[]",
          "name": "",
          "type": "bytes32[]"
        }
      ],
      "stateMutability": "view",
      "type": "function"
    },
    {
      "inputs": [
        {
          "internalType": "bytes32",
          "name": "role",
          "type": "bytes32"
        }
      ],
      "name": "getRoleAdmin",
      "outputs": [
        {
          "internalType": "bytes32",
          "name": "",
          "type": "bytes32"
        }
      ],
      "stateMutability": "view",
      "type": "function"
    },
    {
      "inputs": [
        {
          "internalType": "bytes32",
          "name": "id",
          "type": "bytes32"
        }
      ],
      "name": "getSubscribersById",
      "outputs": [
        {
          "components": [
            {
              "internalType": "address",
              "name": "subscriber",
              "type": "address"
            },
            {
              "internalType": "uint256",
              "name": "feeBalance",
              "type": "uint256"
            }
          ],
          "internalType": "struct ClockTowerSubscribe.SubscriberView[]",
          "name": "",
          "type": "tuple[]"
        }
      ],
      "stateMutability": "view",
      "type": "function"
    },
    {
      "inputs": [],
      "name": "getTotalSubscribers",
      "outputs": [
        {
          "internalType": "uint256",
          "name": "",
          "type": "uint256"
        }
      ],
      "stateMutability": "view",
      "type": "function"
    },
    {
      "inputs": [
        {
          "internalType": "bytes32",
          "name": "role",
          "type": "bytes32"
        },
        {
          "internalType": "address",
          "name": "account",
          "type": "address"
        }
      ],
      "name": "grantRole",
      "outputs": [],
      "stateMutability": "nonpayable",
      "type": "function"
    },
    {
      "inputs": [
        {
          "internalType": "bytes32",
          "name": "role",
          "type": "bytes32"
        },
        {
          "internalType": "address",
          "name": "account",
          "type": "address"
        }
      ],
      "name": "hasRole",
      "outputs": [
        {
          "internalType": "bool",
          "name": "",
          "type": "bool"
        }
      ],
      "stateMutability": "view",
      "type": "function"
    },
    {
      "inputs": [
        {
          "internalType": "bytes32",
          "name": "",
          "type": "bytes32"
        }
      ],
      "name": "idSubMap",
      "outputs": [
        {
          "internalType": "bytes32",
          "name": "id",
          "type": "bytes32"
        },
        {
          "internalType": "uint256",
          "name": "amount",
          "type": "uint256"
        },
        {
          "internalType": "address",
          "name": "provider",
          "type": "address"
        },
        {
          "internalType": "address",
          "name": "token",
          "type": "address"
        },
        {
          "internalType": "bool",
          "name": "cancelled",
          "type": "bool"
        },
        {
          "internalType": "enum ClockTowerSubscribe.Frequency",
          "name": "frequency",
          "type": "uint8"
        },
        {
          "internalType": "uint16",
          "name": "dueDay",
          "type": "uint16"
        }
      ],
      "stateMutability": "view",
      "type": "function"
    },
    {
      "inputs": [],
      "name": "maxRemits",
      "outputs": [
        {
          "internalType": "uint256",
          "name": "",
          "type": "uint256"
        }
      ],
      "stateMutability": "view",
      "type": "function"
    },
    {
      "inputs": [],
      "name": "nextUncheckedDay",
      "outputs": [
        {
          "internalType": "uint40",
          "name": "",
          "type": "uint40"
        }
      ],
      "stateMutability": "view",
      "type": "function"
    },
    {
      "inputs": [],
      "name": "owner",
      "outputs": [
        {
          "internalType": "address",
          "name": "",
          "type": "address"
        }
      ],
      "stateMutability": "view",
      "type": "function"
    },
    {
      "inputs": [
        {
          "internalType": "address",
          "name": "_tokenAddress",
          "type": "address"
        },
        {
          "internalType": "bool",
          "name": "pause",
          "type": "bool"
        }
      ],
      "name": "pauseToken",
      "outputs": [],
      "stateMutability": "nonpayable",
      "type": "function"
    },
    {
      "inputs": [],
      "name": "pendingDefaultAdmin",
      "outputs": [
        {
          "internalType": "address",
          "name": "newAdmin",
          "type": "address"
        },
        {
          "internalType": "uint48",
          "name": "schedule",
          "type": "uint48"
        }
      ],
      "stateMutability": "view",
      "type": "function"
    },
    {
      "inputs": [],
      "name": "pendingDefaultAdminDelay",
      "outputs": [
        {
          "internalType": "uint48",
          "name": "newDelay",
          "type": "uint48"
        },
        {
          "internalType": "uint48",
          "name": "schedule",
          "type": "uint48"
        }
      ],
      "stateMutability": "view",
      "type": "function"
    },
    {
      "inputs": [],
      "name": "remit",
      "outputs": [],
      "stateMutability": "nonpayable",
      "type": "function"
    },
    {
      "inputs": [
        {
          "internalType": "bytes32",
          "name": "role",
          "type": "bytes32"
        },
        {
          "internalType": "address",
          "name": "account",
          "type": "address"
        }
      ],
      "name": "renounceRole",
      "outputs": [],
      "stateMutability": "nonpayable",
      "type": "function"
    },
    {
      "inputs": [
        {
          "internalType": "bytes32",
          "name": "role",
          "type": "bytes32"
        },
        {
          "internalType": "address",
          "name": "account",
          "type": "address"
        }
      ],
      "name": "revokeRole",
      "outputs": [],
      "stateMutability": "nonpayable",
      "type": "function"
    },
    {
      "inputs": [],
      "name": "rollbackDefaultAdminDelay",
      "outputs": [],
      "stateMutability": "nonpayable",
      "type": "function"
    },
    {
      "inputs": [
        {
          "internalType": "uint256",
          "name": "_cancelLimit",
          "type": "uint256"
        }
      ],
      "name": "setCancelLimit",
      "outputs": [],
      "stateMutability": "nonpayable",
      "type": "function"
    },
    {
      "inputs": [
        {
          "internalType": "uint40",
          "name": "_nextUncheckedDay",
          "type": "uint40"
        }
      ],
      "name": "setNextUncheckedDay",
      "outputs": [],
      "stateMutability": "nonpayable",
      "type": "function"
    },
    {
      "inputs": [
        {
          "components": [
            {
              "internalType": "bytes32",
              "name": "id",
              "type": "bytes32"
            },
            {
              "internalType": "uint256",
              "name": "subscriberIndex",
              "type": "uint256"
            },
            {
              "internalType": "uint256",
              "name": "subscriptionIndex",
              "type": "uint256"
            },
            {
              "internalType": "uint256",
              "name": "frequency",
              "type": "uint256"
            },
            {
              "internalType": "bool",
              "name": "initialized",
              "type": "bool"
            }
          ],
          "internalType": "struct ClockTowerSubscribe.PageStart",
          "name": "_pageStart",
          "type": "tuple"
        }
      ],
      "name": "setPageStart",
      "outputs": [],
      "stateMutability": "nonpayable",
      "type": "function"
    },
    {
      "inputs": [
        {
          "components": [
            {
              "internalType": "bytes32",
              "name": "id",
              "type": "bytes32"
            },
            {
              "internalType": "uint256",
              "name": "amount",
              "type": "uint256"
            },
            {
              "internalType": "address",
              "name": "provider",
              "type": "address"
            },
            {
              "internalType": "address",
              "name": "token",
              "type": "address"
            },
            {
              "internalType": "bool",
              "name": "cancelled",
              "type": "bool"
            },
            {
              "internalType": "enum ClockTowerSubscribe.Frequency",
              "name": "frequency",
              "type": "uint8"
            },
            {
              "internalType": "uint16",
              "name": "dueDay",
              "type": "uint16"
            }
          ],
          "internalType": "struct ClockTowerSubscribe.Subscription",
          "name": "_subscription",
          "type": "tuple"
        }
      ],
      "name": "subscribe",
      "outputs": [],
      "stateMutability": "nonpayable",
      "type": "function"
    },
    {
      "inputs": [
        {
          "internalType": "bytes4",
          "name": "interfaceId",
          "type": "bytes4"
        }
      ],
      "name": "supportsInterface",
      "outputs": [
        {
          "internalType": "bool",
          "name": "",
          "type": "bool"
        }
      ],
      "stateMutability": "view",
      "type": "function"
    },
    {
      "inputs": [],
      "name": "systemFee",
      "outputs": [
        {
          "internalType": "uint256",
          "name": "",
          "type": "uint256"
        }
      ],
      "stateMutability": "view",
      "type": "function"
    },
    {
      "inputs": [
        {
          "internalType": "bool",
          "name": "status",
          "type": "bool"
        }
      ],
      "name": "systemFeeActivate",
      "outputs": [],
      "stateMutability": "nonpayable",
      "type": "function"
    },
    {
      "inputs": [
        {
          "components": [
            {
              "internalType": "bytes32",
              "name": "id",
              "type": "bytes32"
            },
            {
              "internalType": "uint256",
              "name": "amount",
              "type": "uint256"
            },
            {
              "internalType": "address",
              "name": "provider",
              "type": "address"
            },
            {
              "internalType": "address",
              "name": "token",
              "type": "address"
            },
            {
              "internalType": "bool",
              "name": "cancelled",
              "type": "bool"
            },
            {
              "internalType": "enum ClockTowerSubscribe.Frequency",
              "name": "frequency",
              "type": "uint8"
            },
            {
              "internalType": "uint16",
              "name": "dueDay",
              "type": "uint16"
            }
          ],
          "internalType": "struct ClockTowerSubscribe.Subscription",
          "name": "_subscription",
          "type": "tuple"
        }
      ],
      "name": "unsubscribe",
      "outputs": [],
      "stateMutability": "nonpayable",
      "type": "function"
    },
    {
      "inputs": [
        {
          "components": [
            {
              "internalType": "bytes32",
              "name": "id",
              "type": "bytes32"
            },
            {
              "internalType": "uint256",
              "name": "amount",
              "type": "uint256"
            },
            {
              "internalType": "address",
              "name": "provider",
              "type": "address"
            },
            {
              "internalType": "address",
              "name": "token",
              "type": "address"
            },
            {
              "internalType": "bool",
              "name": "cancelled",
              "type": "bool"
            },
            {
              "internalType": "enum ClockTowerSubscribe.Frequency",
              "name": "frequency",
              "type": "uint8"
            },
            {
              "internalType": "uint16",
              "name": "dueDay",
              "type": "uint16"
            }
          ],
          "internalType": "struct ClockTowerSubscribe.Subscription",
          "name": "_subscription",
          "type": "tuple"
        },
        {
          "internalType": "address",
          "name": "subscriber",
          "type": "address"
        }
      ],
      "name": "unsubscribeByProvider",
      "outputs": [],
      "stateMutability": "nonpayable",
      "type": "function"
    }
  ],
  "bytecode": "0x608060405234801561000f575f5ffd5b5060405161612438038061612483398101604081905261002e916102d7565b62015180826001600160a01b03811661006057604051636116401160e11b81525f600482015260240160405180910390fd5b600180546001600160d01b0316600160d01b65ffffffffffff8516021790556100895f82610198565b5050506001600160a01b03821661009e575f5ffd5b61271087101580156100b25750612a518711155b6100ba575f5ffd5b61271086101580156100ce5750614e1f8611155b6100d6575f5ffd5b6101007f1cb0d6461572bd9b725739f1d8ea32d250b0dfcd75c68201355159719c012f8082610198565b506003879055600486905560068490556005859055600c805460ff60d01b1916600160d01b85151502179055600261013742610207565b6101419190610344565b600c80546001600160a01b03909416660100000000000002600160301b600160d01b031964ffffffffff939093166101000292909216610100600160d01b03199094169390931717909155506103a2945050505050565b5f826101f4575f6101b16002546001600160a01b031690565b6001600160a01b0316146101d857604051631fe1e13d60e11b815260040160405180910390fd5b600280546001600160a01b0319166001600160a01b0384161790555b6101fe8383610215565b90505b92915050565b5f610201620151808361036d565b5f828152602081815260408083206001600160a01b038516845290915281205460ff166102b5575f838152602081815260408083206001600160a01b03861684529091529020805460ff1916600117905561026d3390565b6001600160a01b0316826001600160a01b0316847f2f8788117e7eff1d82e926ec794901d17c78024a50270940304540a733656f0d60405160405180910390a4506001610201565b505f610201565b80516001600160a01b03811681146102d2575f5ffd5b919050565b5f5f5f5f5f5f5f60e0888a0312156102ed575f5ffd5b8751602089015160408a015160608b015160808c0151939a5091985096509450801515811461031a575f5ffd5b925061032860a089016102bc565b915061033660c089016102bc565b905092959891949750929550565b64ffffffffff828116828216039081111561020157634e487b7160e01b5f52601160045260245ffd5b5f64ffffffffff83168061038f57634e487b7160e01b5f52601260045260245ffd5b8064ffffffffff84160491505092915050565b615d75806103af5f395ff3fe608060405234801561000f575f5ffd5b506004361061032f575f3560e01c806384ef8ffc116101b3578063cc8463c8116100f3578063d57ade5a1161009e578063e0a177f311610079578063e0a177f3146107f4578063ebec6eaa14610807578063ed601d2814610831578063fbcbc0f114610844575f5ffd5b8063d57ade5a146107ad578063d602b9fd146107c0578063da854a96146107c8575f5ffd5b8063cf6eefb7116100ce578063cf6eefb714610759578063d10f9e6914610787578063d547741f1461079a575f5ffd5b8063cc8463c814610729578063ccc9923314610731578063cefc142914610751575f5ffd5b80639889552e1161015e578063ac2b4e6311610139578063ac2b4e631461068c578063b25ae32c1461069f578063bd743886146106a7578063cab1c96514610720575f5ffd5b80639889552e1461064b578063a1eda53c1461065e578063a217fddf14610685575f5ffd5b80638ef0ef1c1161018e5780638ef0ef1c146105ef57806391d148541461060257806392376c3f14610638575f5ffd5b806384ef8ffc146105a257806386525a00146105c75780638da5cb5b146105e7575f5ffd5b80632f2ff15d1161027e578063649a5ec7116102295780637507ba39116102045780637507ba39146105545780637b7c5f171461055c5780637bbf5a6e1461056f5780637ee1bfb91461058f575f5ffd5b8063649a5ec714610507578063668c1e8a1461051a5780636692dd571461052d575f5ffd5b80634a1268b8116102595780634a1268b8146104ce578063598bff35146104e1578063634e93da146104f4575f5ffd5b80632f2ff15d1461049f57806334d441d0146104b257806336568abe146104bb575f5ffd5b80630bec99e8116102de5780631f17ee55116102b95780631f17ee5514610461578063248a9ca31461046a57806327ea97731461048c575f5ffd5b80630bec99e81461042457806312c99cf51461043757806316e8b8501461044a575f5ffd5b8063038c9c0e1161030e578063038c9c0e146103f45780630aa6220b146104095780630b8590c714610411575f5ffd5b8062b709771461033357806301ffc9a7146103b5578063022d63fb146103d8575b5f5ffd5b610399610341366004614f8d565b60166020525f90815260409020805460018201546002830154600390930154919290916001600160a01b039182169181169060ff600160a01b8204811691600160a81b81049091169061ffff600160b01b9091041687565b6040516103ac9796959493929190614fcc565b60405180910390f35b6103c86103c336600461501c565b610864565b60405190151581526020016103ac565b620697805b60405165ffffffffffff90911681526020016103ac565b610407610402366004615059565b61088e565b005b610407610f88565b61040761041f3660046150b8565b610f9d565b610407610432366004614f8d565b61141f565b610407610445366004615059565b61144b565b61045360065481565b6040519081526020016103ac565b61045360045481565b610453610478366004614f8d565b5f9081526020819052604090206001015490565b61040761049a366004614f8d565b6116e7565b6104076104ad36600461512c565b6116f7565b61045360035481565b6104076104c936600461512c565b611723565b6104076104dc366004615156565b6117e4565b6104076104ef366004615198565b6118e0565b6104076105023660046151c2565b611be6565b6104076105153660046151db565b611bf9565b610407610528366004615059565b611c0c565b6104537f1cb0d6461572bd9b725739f1d8ea32d250b0dfcd75c68201355159719c012f8081565b610407611ded565b61040761056a366004615200565b612bf4565b61058261057d366004614f8d565b612c23565b6040516103ac9190615224565b61040761059d36600461527b565b612d62565b6002546001600160a01b03165b6040516001600160a01b0390911681526020016103ac565b6105da6105d53660046152a1565b612d79565b6040516103ac91906152db565b6105af6130fe565b6104076105fd366004614f8d565b613116565b6103c861061036600461512c565b5f918252602082815260408084206001600160a01b0393909316845291905290205460ff1690565b6104076106463660046153f5565b613142565b61040761065936600461547b565b613489565b6106666134b2565b6040805165ffffffffffff9384168152929091166020830152016103ac565b6104535f81565b61040761069a3660046151c2565b613504565b610453613589565b6106ee6106b53660046151c2565b60196020525f9081526040902080546001909101546001600160a01b0382169160ff600160a01b8204811692600160a81b909204169084565b604080516001600160a01b03909516855260ff90931660208501529015159183019190915260608201526080016103ac565b61045360055481565b6103dd613594565b61074461073f366004615496565b6135f2565b6040516103ac91906154b7565b61040761366e565b600154604080516001600160a01b0383168152600160a01b90920465ffffffffffff166020830152016103ac565b6104076107953660046154ee565b6136a4565b6104076107a836600461512c565b613713565b6104076107bb366004615530565b61373b565b6104076137e8565b600c546107de90610100900464ffffffffff1681565b60405164ffffffffff90911681526020016103ac565b610407610802366004614f8d565b6137fa565b61045361081536600461512c565b601360209081525f928352604080842090915290825290205481565b61040761083f3660046155f0565b61380a565b6108576108523660046151c2565b613889565b6040516103ac91906157a9565b5f6001600160e01b031982166318a4c3c360e11b1480610888575061088882613d18565b92915050565b6108988135613d4c565b6108cd5760405162461bcd60e51b81526020600482015260016024820152603360f81b60448201526064015b60405180910390fd5b80355f908152601660209081526040808320815160e0810183528154815260018201549381019390935260028101546001600160a01b0390811692840192909252600380820154928316606085015260ff600160a01b8404811615156080860152919260a0850192600160a81b909104169081111561094e5761094e614fa4565b600381111561095f5761095f614fa4565b815260039190910154600160b01b900461ffff1660209182015260608201516001600160a01b03165f90815260199091526040902054909150600160a81b900460ff16156109d45760405162461bcd60e51b8152602060048201526002602482015261032360f41b60448201526064016108c4565b60208181015160608301516001600160a01b03165f90815260199092526040822054610a0a9190600160a01b900460ff16613d7e565b6060830151604051636eb1769f60e11b815233600482015230602482015291925082916001600160a01b039091169063dd62ed3e90604401602060405180830381865afa158015610a5d573d5f5f3e3d5ffd5b505050506040513d601f19601f82011682018060405250810190610a8191906157fd565b10158015610af9575060608201516040516370a0823160e01b815233600482015282916001600160a01b0316906370a0823190602401602060405180830381865afa158015610ad2573d5f5f3e3d5ffd5b505050506040513d601f19601f82011682018060405250810190610af691906157fd565b10155b610b2a5760405162461bcd60e51b8152602060048201526002602482015261031360f41b60448201526064016108c4565b60408201516001600160a01b03163303610b6a5760405162461bcd60e51b81526020600482015260016024820152600360fc1b60448201526064016108c4565b816080015115610ba15760405162461bcd60e51b8152602060048201526002602482015261323360f01b60448201526064016108c4565b81515f908152601560205260409020610bb990613df0565b5f03610c0b57610c09825f015160145f8560a001516003811115610bdf57610bdf614fa4565b815260208082019290925260409081015f90812060c088015161ffff168252909252902090613df9565b505b81515f908152601560205260409020610c249033613e0b565b610c435781515f908152601560205260409020610c419033613e2c565b505b81515f908152601760205260409020610c5c9033613e0b565b15610c7c5781515f908152601760205260409020610c7a9033613e40565b505b610cc56040518060800160405280845f015181526020018460c0015161ffff1681526020018460a001516003811115610cb757610cb7614fa4565b81526020015f90525f613e54565b60208201516001808460a001516003811115610ce357610ce3614fa4565b1480610d0357505f8460a001516003811115610d0157610d01614fa4565b145b15610d3857610d31428560c0015161ffff16848760a001516003811115610d2c57610d2c614fa4565b613ef2565b9150610de6565b60028460a001516003811115610d5057610d50614fa4565b03610d9157610d79428560c0015161ffff16848760a001516003811115610d2c57610d2c614fa4565b9150610d8660038361583c565b915060029050610de6565b60038460a001516003811115610da957610da9614fa4565b03610de657610dd2428560c0015161ffff16848760a001516003811115610d2c57610d2c614fa4565b9150610ddf600c8361583c565b9150600b90505b83515f90815260136020908152604080832033845290915281208054849290610e1090849061584f565b92505081905550336001600160a01b031684604001516001600160a01b0316855f01515f516020615d205f395f51905f5242886020015189606001516006604051610e5e9493929190615872565b60405180910390a4336001600160a01b031684604001516001600160a01b0316855f01515f516020615d205f395f51905f52428689606001516008604051610ea99493929190615872565b60405180910390a460608401516001600160a01b03165f90815260196020526040902054610f009033903090610eea908690600160a01b900460ff16613d7e565b60608801516001600160a01b0316929190614136565b60028460a001516003811115610f1857610f18614fa4565b1480610f39575060038460a001516003811115610f3757610f37614fa4565b145b15610f8157610f81338560400151610eea8486610f5691906158a3565b60608901516001600160a01b03165f90815260196020526040902054600160a01b900460ff16613d7e565b5050505050565b5f610f92816141b2565b610f9a6141bc565b50565b6001600160a01b038416610fd75760405162461bcd60e51b81526020600482015260016024820152600d60fa1b60448201526064016108c4565b6001600160a01b038085165f90815260196020526040902054166110215760405162461bcd60e51b81526020600482015260016024820152603560f81b60448201526064016108c4565b6001600160a01b0384165f90815260196020526040902054600160a81b900460ff16156110755760405162461bcd60e51b8152602060048201526002602482015261032360f41b60448201526064016108c4565b5f82600381111561108857611088614fa4565b036110d6578061ffff165f1080156110a5575060078161ffff1611155b6110d65760405162461bcd60e51b81526020600482015260026024820152610c4d60f21b60448201526064016108c4565b60018260038111156110ea576110ea614fa4565b03611138578061ffff165f1080156111075750601c8161ffff1611155b6111385760405162461bcd60e51b8152602060048201526002602482015261313560f01b60448201526064016108c4565b600282600381111561114c5761114c614fa4565b0361119a578061ffff165f1080156111695750605a8161ffff1611155b61119a5760405162461bcd60e51b8152602060048201526002602482015261189b60f11b60448201526064016108c4565b60038260038111156111ae576111ae614fa4565b036111fd578061ffff165f1080156111cc575061016d8161ffff1611155b6111fd5760405162461bcd60e51b8152602060048201526002602482015261313760f01b60448201526064016108c4565b6001600160a01b0384165f9081526019602052604090206001015485101561124c5760405162461bcd60e51b8152602060048201526002602482015261062760f31b60448201526064016108c4565b5f611259868685856141c8565b90506112a56040518060800160405280835f015181526020018360c0015161ffff1681526020018360a00151600381111561129657611296614fa4565b81526020015f90526001613e54565b80515f9081526016602090815260409182902083518155908301516001820155908201516002820180546001600160a01b039283166001600160a01b031990911617905560608301516003808401805460808701511515600160a01b0274ffffffffffffffffffffffffffffffffffffffffff1990911693909416929092179290921780825560a085015185949390929160ff60a81b191690600160a81b90849081111561135557611355614fa4565b021790555060c091909101516003909101805461ffff909216600160b01b0261ffff60b01b19909216919091179055805164ffffffffff42169033907f93cda0785d40b289a535b99dc76d4c9cbb6d8146182861ac3ad40509398b18656113bc88806158ba565b6113c960208b018b6158ba565b6040516113d9949392919061592c565b60405180910390a4805160608201516040515f92339290915f516020615d205f395f51905f529161140f9142918d918890615872565b60405180910390a4505050505050565b5f611429816141b2565b612710821015801561143d5750614e1f8211155b611445575f5ffd5b50600455565b6114558135613d4c565b801561149057506002335f908152600f602090815260408083208535845290915290205460ff16600281111561148d5761148d614fa4565b14155b6114c05760405162461bcd60e51b81526020600482015260016024820152603360f81b60448201526064016108c4565b80355f908152601660209081526040808320815160e0810183528154815260018201549381019390935260028101546001600160a01b0390811692840192909252600380820154928316606085015260ff600160a01b8404811615156080860152919260a0850192600160a81b909104169081111561154157611541614fa4565b600381111561155257611552614fa4565b81526003919091015461ffff600160b01b90910416602091820152335f908152600f825260408082208451835290925220805460ff19166002179055600b5490915060ff16156115ad5780516115a890336142cc565b6115c8565b80515f9081526015602052604090206115c69033613e40565b505b336001600160a01b031681604001516001600160a01b0316825f01515f516020615d205f395f51905f524285602001518660600151600760405161160f9493929190615872565b60405180910390a480515f9081526013602081815260408084203380865290835281852054865186529383528185208186529092528084209390935582840151845160608601519451939492936001600160a01b039092169290915f516020615d205f395f51905f52916116899142918891600490615872565b60405180910390a460408281015160608401516001600160a01b03165f908152601960205291909120546116e291906116cd908490600160a01b900460ff16613d7e565b60608501516001600160a01b031691906142fe565b505050565b5f6116f1816141b2565b50600555565b8161171557604051631fe1e13d60e11b815260040160405180910390fd5b61171f828261432f565b5050565b8115801561173e57506002546001600160a01b038281169116145b156117da576001546001600160a01b03811690600160a01b900465ffffffffffff1681151580611774575065ffffffffffff8116155b8061178757504265ffffffffffff821610155b156117af576040516319ca5ebb60e01b815265ffffffffffff821660048201526024016108c4565b5050600180547fffffffffffff000000000000ffffffffffffffffffffffffffffffffffffffff1690555b61171f8282614353565b5f6117ee816141b2565b6001600160a01b038416611800575f5ffd5b6001600160a01b038085165f90815260196020526040902054161561184b5760405162461bcd60e51b81526020600482015260016024820152603160f81b60448201526064016108c4565b50604080516080810182526001600160a01b0394851680825260ff93841660208084019182525f8486018181526060860198895293815260199091529390932091518254935191511515600160a81b0260ff60a81b1992909516600160a01b0274ffffffffffffffffffffffffffffffffffffffffff1990941696169590951791909117939093161782555160019190910155565b6118ea8235613d4c565b801561192e575060026001600160a01b0382165f908152600f602090815260408083208635845290915290205460ff16600281111561192b5761192b614fa4565b14155b61195e5760405162461bcd60e51b81526020600482015260016024820152603360f81b60448201526064016108c4565b81355f908152601660209081526040808320815160e0810183528154815260018201549381019390935260028101546001600160a01b0390811692840192909252600380820154928316606085015260ff600160a01b8404811615156080860152919260a0850192600160a81b90910416908111156119df576119df614fa4565b60038111156119f0576119f0614fa4565b815260039190910154600160b01b900461ffff166020918201528151335f908152600e9092526040909120919250611a289190614386565b611a585760405162461bcd60e51b81526020600482015260016024820152600760fb1b60448201526064016108c4565b80515f908152601560205260409020611a719083613e0b565b8015611a93575080515f908152601760205260409020611a919083613e0b565b155b611ac35760405162461bcd60e51b81526020600482015260016024820152603960f81b60448201526064016108c4565b6001600160a01b0382165f908152600f60209081526040808320845184529091529020805460ff19166002179055600b5460ff1615611b0d578051611b0890836142cc565b611b28565b80515f908152601560205260409020611b269033613e40565b505b816001600160a01b031681604001516001600160a01b0316825f01515f516020615d205f395f51905f5242856020015186606001516007604051611b6f9493929190615872565b60405180910390a480515f9081526013602081815260408084206001600160a01b0387811680875291845282862054875187529484528286209186529083528185208590556060860151168452601990915290912054611be09084906116cd908490600160a01b900460ff16613d7e565b50505050565b5f611bf0816141b2565b61171f8261439d565b5f611c03816141b2565b61171f8261440f565b611c168135613d4c565b611c465760405162461bcd60e51b81526020600482015260016024820152603360f81b60448201526064016108c4565b80355f908152601660209081526040808320815160e0810183528154815260018201549381019390935260028101546001600160a01b0390811692840192909252600380820154928316606085015260ff600160a01b8404811615156080860152919260a0850192600160a81b9091041690811115611cc757611cc7614fa4565b6003811115611cd857611cd8614fa4565b815260039190910154600160b01b900461ffff1660209091015260408101519091506001600160a01b03163314611d365760405162461bcd60e51b8152602060048201526002602482015261313360f01b60448201526064016108c4565b806080015115611d6d5760405162461bcd60e51b8152602060048201526002602482015261323360f01b60448201526064016108c4565b335f8181526010602090815260408083208551845282528083208054600160ff199091168117909155855184526016909252808320600301805460ff60a01b1916600160a01b17905584516060860151915193949390925f516020615d205f395f51905f5292611de1924292889291615872565b60405180910390a45050565b60ff5f5c1615611e245760405162461bcd60e51b8152602060048201526002602482015261313960f01b60448201526064016108c4565b60015f805c60ff19168217905d505f611e3c4261447e565b600c5490915064ffffffffff61010090910481169082161015611e855760405162461bcd60e51b81526020600482015260016024820152601b60f91b60448201526064016108c4565b6040805160c0810182525f80825260208201819052918101829052606081018290526080810182905260a0810191909152600190600c5464ffffffffff8481166101009092041614611f0457600c54611efd90611ef190610100900464ffffffffff166201518061595d565b64ffffffffff1661448c565b9050611f10565b611f0d4261448c565b90505b5f5f5b60038111612b0957600b5460ff161580611f3c5750600a548110801590611f3c5750600b5460ff165b15612af7575f81611f4e575060208301515b60018203611f5a575082515b60028203611f69575060408301515b60038203611f78575060608301515b5f82815260146020908152604080832061ffff851684529091528120611f9d90613df0565b90505b8015612af457600b5460ff161580611fc757506009548111801590611fc75750600b5460ff165b15612ae2575f601681612000611fde60018661597d565b5f88815260146020908152604080832061ffff8b16845290915290209061471b565b815260208082019290925260409081015f20815160e0810183528154815260018201549381019390935260028101546001600160a01b0390811692840192909252600380820154928316606085015260ff600160a01b8404811615156080860152919260a0850192600160a81b909104169081111561208157612081614fa4565b600381111561209257612092614fa4565b815260039190910154600160b01b900461ffff1660209091015260808101515f98509091501580156120e7575060608101516001600160a01b03165f90815260196020526040902054600160a81b900460ff16155b15612abc576040805160a08101825282518152606080840180516001600160a01b03908116602080860191909152868601518216858701529151165f9081526019825293842054600160a01b900460ff169183018290526080830188905284015191929161215491613d7e565b90505f816127106003548461216991906158a3565b612173919061583c565b61217d919061597d565b83515f90815260176020526040812091925090819061219b90613df0565b85515f9081526015602052604090206121b390613df0565b6121bd919061597d565b85515f908152601560205260408120919250906121d990613df0565b90505b8015612ab1576005548b0361234f576040805160a0810182528751808252602082018490529181018a9052606081018c90526001608090910181905260079190915560088290556009899055600a8b9055600b805460ff199081169092179055600c805490911690819055600160d01b900460ff16156122c9575f836127106004548661226991906158a3565b612273919061583c565b61227d919061597d565b9050612289818561597d565b93506122c7600c60069054906101000a90046001600160a01b03166122b2838a60600151613d7e565b60208a01516001600160a01b031691906142fe565b505b6122f0336122db858960600151613d7e565b60208901516001600160a01b031691906142fe565b600c546040515f81523391610100900464ffffffffff9081169142909116907f90192d7875364a53e351ae63fd2dfef8dc941735b29fb0c504d06a0e21ae602e9060200160405180910390a45050505050505050505050505050612be8565b6007548651148015612362575060085481145b1561237557600c805460ff191660011790555b600b5460ff16158061238e5750600c5460ff1615156001145b15612a9f575f6123b76123a260018461597d565b88515f9081526015602052604090209061471b565b87515f9081526017602052604090209091506123d39082613e0b565b156123de5750612a9f565b6020870151604051636eb1769f60e11b81526001600160a01b0383811660048301523060248301528892169063dd62ed3e90604401602060405180830381865afa15801561242e573d5f5f3e3d5ffd5b505050506040513d601f19601f8201168201806040525081019061245291906157fd565b101580156124cc575060208701516040516370a0823160e01b81526001600160a01b038381166004830152889216906370a0823190602401602060405180830381865afa1580156124a5573d5f5f3e3d5ffd5b505050506040513d601f19601f820116820180604052508101906124c991906157fd565b10155b156127f3578b6124db81615990565b9c5050600c60019054906101000a900464ffffffffff1664ffffffffff16875f01517f0c0097fff4bc1b26a833fef6928d7dec93a2ed4a665c3588c6a3270e0e7e3874848c8b60800151604051612545939291909283526020830191909152604082015260600190565b60405180910390a386515f9081526013602090815260408083206001600160a01b038516845290915290205485101561268457612582858561584f565b87515f9081526013602090815260408083206001600160a01b03861684529091528120805492965087929091906125ba90849061597d565b92505081905550806001600160a01b031687604001516001600160a01b0316885f01515f516020615d205f395f51905f52428a8c6020015160056040516126049493929190615872565b60405180910390a4806001600160a01b031687604001516001600160a01b0316885f01515f516020615d205f395f51905f52425f8c60200151600260405161264f9493929190615872565b60405180910390a461267f818860400151888a602001516001600160a01b0316614136909392919063ffffffff16565b612a07565b86515f9081526013602090815260408083206001600160a01b03851684529091529020546126b2908561584f565b87515f9081526013602090815260408083206001600160a01b0380871680865291845282852094909455818c01518c51938d0151925195995090949316925f516020615d205f395f51905f529161270f9142918d91600890615872565b60405180910390a485600160028d90036127395761272e60038361583c565b915060029050612753565b8c6003036127535761274c600c8361583c565b9150600b90505b88515f9081526013602090815260408083206001600160a01b03871684529091528120805484929061278690849061584f565b925050819055506127b683306127a0858d60600151613d7e565b60208d01516001600160a01b0316929190614136565b8c600214806127c557508c6003145b156127ec576127ec838a604001516127a084866127e291906158a3565b8d60600151613d7e565b5050612a07565b8b6127fd81615990565b88515f9081526013602090815260408083206001600160a01b0387168452909152902054909d5086101590506128fc57612837858561584f565b87515f9081526013602090815260408083206001600160a01b03861684529091528120549195509061286a90879061597d565b88515f9081526013602090815260408083206001600160a01b0380881680865291845282852094909455818d01518d51938e0151925195965090949316925f516020615d205f395f51905f52916128c79142918891600490615872565b60405180910390a46128fa88604001516128e5838b60600151613d7e565b60208b01516001600160a01b031691906142fe565b505b86515f9081526015602052604090206129159082613e40565b50806001600160a01b031687604001516001600160a01b0316885f01515f516020615d205f395f51905f52428a8c6020015160076040516129599493929190615872565b60405180910390a4806001600160a01b031687604001516001600160a01b0316885f01515f516020615d205f395f51905f52425f8c6020015160036040516129a49493929190615872565b60405180910390a4600c548751608089015160408051868152602081018e90529081019190915261010090920464ffffffffff16917f0c0097fff4bc1b26a833fef6928d7dec93a2ed4a665c3588c6a3270e0e7e38749060600160405180910390a35b816001148015612a1657505f83115b15612a9d57600c54600160d01b900460ff1615612a8b575f8461271060045487612a4091906158a3565b612a4a919061583c565b612a54919061597d565b9050612a60818661597d565b9450612a89600c60069054906101000a90046001600160a01b03166128e5838b60600151613d7e565b505b612a9d336122b2868a60600151613d7e565b505b80612aa9816159a8565b9150506121dc565b505050505050612ae0565b600b5460ff168015612ad057508051600754145b15612ae057600b805460ff191690555b505b80612aec816159a8565b915050611fa0565b50505b80612b0181615990565b915050611f13565b505f600781905560088190556009819055600a55600b805460ff19908116909155600c805490911690819055604051600181523391610100900464ffffffffff9081169142909116907f90192d7875364a53e351ae63fd2dfef8dc941735b29fb0c504d06a0e21ae602e9060200160405180910390a46001600c60018282829054906101000a900464ffffffffff16612ba291906159bd565b92506101000a81548164ffffffffff021916908364ffffffffff1602179055508215612be3575f60ff19815c16815d50612bda611ded565b50505050612be8565b505050505b5f60ff19815c16815d50565b5f612bfe816141b2565b50600c805464ffffffffff9092166101000265ffffffffff0019909216919091179055565b5f81815260156020526040812060609190612c3d90613df0565b90505f8167ffffffffffffffff811115612c5957612c59615395565b604051908082528060200260200182016040528015612c9d57816020015b604080518082019091525f8082526020820152815260200190600190039081612c775790505b5090505f5b82811015612d5a575f858152601360209081526040808320601590925282208290612ccd908561471b565b6001600160a01b03166001600160a01b031681526020019081526020015f205490505f6040518060400160405280612d1e8560155f8c81526020019081526020015f2061471b90919063ffffffff16565b6001600160a01b0316815260200183815250905080848481518110612d4557612d456159da565b60209081029190910101525050600101612ca2565b509392505050565b5f612d6c816141b2565b816007611be082826159ee565b6060808315612da9576001600160a01b0383165f908152600d60205260409020612da290614726565b9050612dcc565b6001600160a01b0383165f908152600e60205260409020612dc990614726565b90505b5f815167ffffffffffffffff811115612de757612de7615395565b604051908082528060200260200182016040528015612e6357816020015b60408051610140810182525f606082018181526080830182905260a0830182905260c0830182905260e0830182905261010083018290526101208301829052825260208083018290529282015282525f19909201910181612e055790505b5090505f5b82518110156130f5578515612f11576001600160a01b0385165f908152600f602052604081208451909190859084908110612ea557612ea56159da565b602002602001015181526020019081526020015f205f9054906101000a900460ff16828281518110612ed957612ed96159da565b6020026020010151602001906002811115612ef657612ef6614fa4565b90816002811115612f0957612f09614fa4565b905250612fa7565b6001600160a01b0385165f9081526010602052604081208451909190859084908110612f3f57612f3f6159da565b602002602001015181526020019081526020015f205f9054906101000a900460ff16828281518110612f7357612f736159da565b6020026020010151602001906002811115612f9057612f90614fa4565b90816002811115612fa357612fa3614fa4565b9052505b60165f848381518110612fbc57612fbc6159da565b60209081029190910181015182528181019290925260409081015f20815160e0810183528154815260018201549381019390935260028101546001600160a01b0390811692840192909252600380820154928316606085015260ff600160a01b8404811615156080860152919260a0850192600160a81b909104169081111561304757613047614fa4565b600381111561305857613058614fa4565b815260039190910154600160b01b900461ffff166020909101528251839083908110613086576130866159da565b60200260200101515f01819052506130cc60155f8484815181106130ac576130ac6159da565b60200260200101515f01515f015181526020019081526020015f20613df0565b8282815181106130de576130de6159da565b602090810291909101015160400152600101612e68565b50949350505050565b5f6131116002546001600160a01b031690565b905090565b5f613120816141b2565b61271082101580156131345750612a518211155b61313c575f5ffd5b50600355565b7f1cb0d6461572bd9b725739f1d8ea32d250b0dfcd75c68201355159719c012f8061316c816141b2565b815161317790613d4c565b6131a75760405162461bcd60e51b81526020600482015260016024820152603360f81b60448201526064016108c4565b81515f90815260166020526040902060030154600160a01b900460ff166131cc575f5ffd5b81515f9081526015602052604081206131e490613df0565b905080806132195760405162461bcd60e51b8152602060048201526002602482015261191960f11b60448201526064016108c4565b5f600654821061322b5760065461322d565b815b90505f835b61323c838661597d565b811115613411575f61326761325260018461597d565b89515f9081526015602052604090209061471b565b88515f9081526017602052604090209091506132839082613e0b565b6133e3576001600160a01b038181165f818152600f602090815260408083208d518452825291829020805460ff191660021790558b8201518c51918d015160608e015193519495919091169391925f516020615d205f395f51905f52926132f09242929091600790615872565b60405180910390a487515f9081526013602090815260408083206001600160a01b0385168452909152902054600c54600160d01b900460ff1615613371575f816127106004548461334191906158a3565b61334b919061583c565b613355919061597d565b9050613361818361597d565b915061336d818661584f565b9450505b60608901516001600160a01b03165f908152601960205260409020546133bd9083906133a8908490600160a01b900460ff16613d7e565b60608c01516001600160a01b031691906142fe565b5087515f9081526013602090815260408083206001600160a01b03851684529091528120555b87515f9081526015602052604090206133fc9082613e40565b50508080613409906159a8565b915050613232565b50600c54600160d01b900460ff161561348157600c5460608701516001600160a01b039081165f9081526019602052604090205461348192660100000000000090049091169061346c908490600160a01b900460ff16613d7e565b60608901516001600160a01b031691906142fe565b505050505050565b5f613493816141b2565b50600c8054911515600160d01b0260ff60d01b19909216919091179055565b6002545f90600160d01b900465ffffffffffff1680151580156134dd57504265ffffffffffff821610155b6134e8575f5f6134fc565b600254600160a01b900465ffffffffffff16815b915091509091565b5f61350e816141b2565b6001600160a01b038216613520575f5ffd5b600c546001600160a01b036601000000000000909104811690831603613544575f5ffd5b50600c80546001600160a01b039092166601000000000000027fffffffffffff0000000000000000000000000000000000000000ffffffffffff909216919091179055565b5f6131116011613df0565b6002545f90600160d01b900465ffffffffffff1680151580156135be57504265ffffffffffff8216105b6135d957600154600160d01b900465ffffffffffff166135ec565b600254600160a01b900465ffffffffffff165b91505090565b6060805f5b5f85815260146020908152604080832061ffff88168452909152902061361c90613df0565b811015612d5a575f85815260146020908152604080832061ffff881684529091529020613649908261471b565b82828151811061365b5761365b6159da565b60209081029190910101526001016135f7565b6001546001600160a01b031633811461369c57604051636116401160e11b81523360048201526024016108c4565b610f9a614732565b335f908152600e602052604090206136bc9082614386565b1561171f5764ffffffffff421633827f93cda0785d40b289a535b99dc76d4c9cbb6d8146182861ac3ad40509398b18656136f686806158ba565b61370360208901896158ba565b604051611de1949392919061592c565b8161373157604051631fe1e13d60e11b815260040160405180910390fd5b61171f82826147c7565b5f613745816141b2565b6001600160a01b038381165f9081526019602052604090205416613767575f5ffd5b816137bb576001600160a01b0383165f90815260196020526040902054600160a81b900460ff16613796575f5ffd5b50506001600160a01b03165f908152601960205260409020805460ff60a81b19169055565b6001600160a01b0383165f908152601960205260409020805460ff60a81b1916600160a81b179055505050565b5f6137f2816141b2565b610f9a6147eb565b5f613804816141b2565b50600655565b80516040516138199190615a38565b60405180910390204264ffffffffff16336001600160a01b03167f34f43abf7a52b609b04511ed963a29ebb76ae3e0ca0ff5594be1c2a84ebd03f284602001518560400151866060015187608001518860a0015160405161387e959493929190615a7c565b60405180910390a450565b6138b560405180606001604052805f6001600160a01b0316815260200160608152602001606081525090565b6001600160a01b0382165f908152600d602052604081206138d590613df0565b6001600160a01b0384165f908152600e60205260408120919250906138f990613df0565b90505f8267ffffffffffffffff81111561391557613915615395565b60405190808252806020026020018201604052801561396e57816020015b61395b604080516080810182525f80825260208201819052909182019081526020015f905290565b8152602001906001900390816139335790505b5090505f5b83811015613af3576001600160a01b0386165f908152600d6020526040812061399c908361471b565b5f818152601660209081526040808320815160e0810183528154815260018201549381019390935260028101546001600160a01b0390811692840192909252600380820154928316606085015260ff600160a01b840481161515608086015295965093949293909260a0850192600160a81b90041690811115613a2157613a21614fa4565b6003811115613a3257613a32614fa4565b81526020016003820160169054906101000a900461ffff1661ffff1661ffff1681525050905060405180608001604052808381526020018260c0015161ffff1681526020018260a001516003811115613a8d57613a8d614fa4565b81526001600160a01b038a165f908152600f6020908152604080832087845282529091205491019060ff166002811115613ac957613ac9614fa4565b815250848481518110613ade57613ade6159da565b60209081029190910101525050600101613973565b505f8367ffffffffffffffff811115613b0e57613b0e615395565b604051908082528060200260200182016040528015613b6757816020015b613b54604080516080810182525f80825260208201819052909182019081526020015f905290565b815260200190600190039081613b2c5790505b5090505f5b83811015613cec576001600160a01b0387165f908152600e60205260408120613b95908361471b565b5f818152601660209081526040808320815160e0810183528154815260018201549381019390935260028101546001600160a01b0390811692840192909252600380820154928316606085015260ff600160a01b840481161515608086015295965093949293909260a0850192600160a81b90041690811115613c1a57613c1a614fa4565b6003811115613c2b57613c2b614fa4565b81526020016003820160169054906101000a900461ffff1661ffff1661ffff1681525050905060405180608001604052808381526020018260c0015161ffff1681526020018260a001516003811115613c8657613c86614fa4565b81526001600160a01b038b165f90815260106020908152604080832087845282529091205491019060ff166002811115613cc257613cc2614fa4565b815250848481518110613cd757613cd76159da565b60209081029190910101525050600101613b6c565b50604080516060810182526001600160a01b039097168752602087019290925290850152509192915050565b5f6001600160e01b03198216637965db0b60e01b148061088857506301ffc9a760e01b6001600160e01b0319831614610888565b5f818152601660205260408120600201546001600160a01b0316613d7157505f919050565b506001919050565b919050565b5f601260ff8316811015613db357613d968184615ae8565b613da190600a615be4565b613dab90856158a3565b915050610888565b8060ff168360ff161015613de057613dcb8382615ae8565b613dd690600a615be4565b613dab908561583c565b83915050610888565b5092915050565b5f610888825490565b5f613e0483836147f5565b9392505050565b6001600160a01b0381165f9081526001830160205260408120541515613e04565b5f613e04836001600160a01b0384166147f5565b5f613e04836001600160a01b038416614841565b613e5f601133613e0b565b613e7057613e6e601133613e2c565b505b8015613eb4578151335f908152600e60205260409020613e8f91613df9565b5050335f9081526010602090815260408083209351835292905220805460ff19169055565b8151335f908152600d60205260409020613ecd91613df9565b5050335f908152600f602090815260408083209351835292905220805460ff19169055565b5f5f613efd8661448c565b90505f5f5f8560ff165f03613f2057836020015161ffff16925060079150613fa7565b8560ff16600103613f5757613f45846080015161ffff168560a0015161ffff16614924565b845161ffff1693509150819050613fa7565b8560ff16600203613f8b57613f7c846060015161ffff16856080015161ffff166149a9565b61ffff169250605a9150613fa7565b8560ff16600303613fa757836060015161ffff16925061016d91505b8560ff16600103614061575f61016d613fc189600c6158a3565b613fcb919061583c565b9050838964ffffffffff1614158015613fea57508864ffffffffff1684115b1561401b5761400064ffffffffff8a168561597d565b61400a908461597d565b61401490826158a3565b975061405b565b838964ffffffffff161415801561403857508864ffffffffff1684105b1561405b5761404e8464ffffffffff8b1661597d565b61405890826158a3565b97505b50614129565b60ff8616158061407457508560ff166002145b8061408257508560ff166003145b1561412957828864ffffffffff16141580156140a457508764ffffffffff1683115b156140df576140ba64ffffffffff89168461597d565b6140c4908361597d565b6140ce838961583c565b6140d891906158a3565b9650614129565b828864ffffffffff16141580156140fc57508764ffffffffff1683105b15614129576141128364ffffffffff8a1661597d565b61411c838961583c565b61412691906158a3565b96505b5094979650505050505050565b6040516001600160a01b038481166024830152838116604483015260648201839052611be09186918216906323b872dd906084015b604051602081830303815290604052915060e01b6020820180517bffffffffffffffffffffffffffffffffffffffffffffffffffffffff8381831617835250505050614a73565b610f9a8133614adf565b6141c65f5f614b31565b565b6040805160e0810182525f8082526020808301829052828401829052606083018290526080830182905260a0830182905260c08301829052338252601890529182208054919282919061421a83615990565b90915550506040516bffffffffffffffffffffffff193360601b166020820152603481018290524260548201525f906074016040516020818303038152906040528051906020012090506040518060e00160405280828152602001888152602001336001600160a01b03168152602001876001600160a01b031681526020015f151581526020018660038111156142b3576142b3614fa4565b81526020018561ffff1681525092505050949350505050565b5f8281526017602052604090206142e39082613e0b565b61171f575f8281526017602052604090206116e29082613e2c565b6040516001600160a01b038381166024830152604482018390526116e291859182169063a9059cbb9060640161416b565b5f82815260208190526040902060010154614349816141b2565b611be08383614bf0565b6001600160a01b038116331461437c5760405163334bd91960e11b815260040160405180910390fd5b6116e28282614c56565b5f8181526001830160205260408120541515613e04565b5f6143a6613594565b6143af42614c92565b6143b99190615bf2565b90506143c58282614cc8565b60405165ffffffffffff821681526001600160a01b038316907f3377dc44241e779dd06afab5b788a35ca5f3b778836e2990bdb26a2a4b2e5ed69060200160405180910390a25050565b5f61441982614d2d565b61442242614c92565b61442c9190615bf2565b90506144388282614b31565b6040805165ffffffffffff8085168252831660208201527ff1038c18cf84a56e432fdbfaf746924b7ea511dfe03a6506a0ceba4888788d9b910160405180910390a15050565b5f6108886201518083615c10565b6040805160c0810182525f80825260208201819052918101829052606081018290526080810182905260a08101829052906144ca620151808461583c565b90505f8082816144dd8262010bd9615c39565b6144ea9062253d8c615c39565b90505f62023ab16144fc836004615c60565b6145069190615c8f565b905060046145178262023ab1615c60565b614522906003615c39565b61452c9190615c8f565b6145369083615cbb565b91505f62164b09614548846001615c39565b61455490610fa0615c60565b61455e9190615c8f565b9050600461456e826105b5615c60565b6145789190615c8f565b6145829084615cbb565b61458d90601f615c39565b92505f61098f61459e856050615c60565b6145a89190615c8f565b90505f60506145b98361098f615c60565b6145c39190615c8f565b6145cd9086615cbb565b90506145da600b83615c8f565b94506145e785600c615c60565b6145f2836002615c39565b6145fc9190615cbb565b9150848361460b603187615cbb565b614616906064615c60565b6146209190615c39565b61462a9190615c39565b9097509150868282825f60015b8381116146835783810361465a5761465361ffff8e168361584f565b9150614671565b6146648582614924565b61466e908361584f565b91505b8061467b81615990565b915050614637565b50809a506146958b61ffff16856149a9565b61ffff1660408f01526146a78f614d7e565b8e6020019061ffff16908161ffff16815250508b8e5f019061ffff16908161ffff16815250508a8e6060019061ffff16908161ffff1681525050838e6080019061ffff16908161ffff1681525050828e60a0019061ffff16908161ffff168152505050505050505050505050505050919050565b5f613e048383614db2565b60605f613e0483614dd8565b6001546001600160a01b03811690600160a01b900465ffffffffffff1680158061476457504265ffffffffffff821610155b1561478c576040516319ca5ebb60e01b815265ffffffffffff821660048201526024016108c4565b6147a75f6147a26002546001600160a01b031690565b614c56565b506147b25f83614bf0565b5050600180546001600160d01b031916905550565b5f828152602081905260409020600101546147e1816141b2565b611be08383614c56565b6141c65f5f614cc8565b5f81815260018301602052604081205461483a57508154600181810184555f848152602080822090930184905584548482528286019093526040902091909155610888565b505f610888565b5f818152600183016020526040812054801561491b575f61486360018361597d565b85549091505f906148769060019061597d565b90508082146148d5575f865f018281548110614894576148946159da565b905f5260205f200154905080875f0184815481106148b4576148b46159da565b5f918252602080832090910192909255918252600188019052604090208390555b85548690806148e6576148e6615cda565b600190038181905f5260205f20015f90559055856001015f8681526020019081526020015f205f905560019350505050610888565b5f915050610888565b5f81600114806149345750816003145b8061493f5750816005145b8061494a5750816007145b806149555750816008145b80614960575081600a145b8061496b575081600c145b156149785750601f610888565b816002146149885750601e610888565b61499183614e31565b61499c57601c61499f565b601d5b60ff169392505050565b5f5f6149b483614e31565b156149c1575060016149c4565b505f5b6149cf81605a61584f565b84116149dd57839150613de9565b836149e982605a61584f565b108015614a0057506149fc8160b561584f565b8411155b15614a2157614a1081605a61584f565b614a1a908561597d565b9150613de9565b83614a2d8260b561584f565b108015614a455750614a418161011161584f565b8411155b15614a5557614a108160b561584f565b614a618161011161584f565b614a6b908561597d565b949350505050565b5f5f60205f8451602086015f885af180614a92576040513d5f823e3d81fd5b50505f513d91508115614aa9578060011415614ab6565b6001600160a01b0384163b155b15611be057604051635274afe760e01b81526001600160a01b03851660048201526024016108c4565b5f828152602081815260408083206001600160a01b038516845290915290205460ff1661171f5760405163e2517d3f60e01b81526001600160a01b0382166004820152602481018390526044016108c4565b600254600160d01b900465ffffffffffff168015614bb3574265ffffffffffff82161015614b8a57600254600180546001600160d01b0316600160a01b90920465ffffffffffff16600160d01b02919091179055614bb3565b6040517f2b1fa2edafe6f7b9e97c1a9e0c3660e645beb2dcaa2d45bdbf9beaf5472e1ec5905f90a15b50600280546001600160a01b0316600160a01b65ffffffffffff948516026001600160d01b031617600160d01b9290931691909102919091179055565b5f82614c4c575f614c096002546001600160a01b031690565b6001600160a01b031614614c3057604051631fe1e13d60e11b815260040160405180910390fd5b600280546001600160a01b0319166001600160a01b0384161790555b613e048383614e6c565b5f82158015614c7257506002546001600160a01b038381169116145b15614c8857600280546001600160a01b03191690555b613e048383614f0c565b5f65ffffffffffff821115614cc4576040516306dfcc6560e41b815260306004820152602481018390526044016108c4565b5090565b60018054600160a01b65ffffffffffff84811682026001600160d01b031984166001600160a01b038816171790935590041680156116e2576040517f8886ebfc4259abdbc16601dd8fb5678e54878f47b3c34836cfc51154a9605109905f90a1505050565b5f5f614d37613594565b90508065ffffffffffff168365ffffffffffff1611614d5f57614d5a8382615cee565b613e04565b613e0465ffffffffffff8416620697805f828218828410028218613e04565b5f80614d8d620151808461583c565b90505f6007614d9d83600361584f565b614da79190615d0c565b614a6b90600161584f565b5f825f018281548110614dc757614dc76159da565b905f5260205f200154905092915050565b6060815f01805480602002602001604051908101604052809291908181526020018280548015614e2557602002820191905f5260205f20905b815481526020019060010190808311614e11575b50505050509050919050565b5f614e3d600483615d0c565b158015614e535750614e50606483615d0c565b15155b806108885750614e6561019083615d0c565b1592915050565b5f828152602081815260408083206001600160a01b038516845290915281205460ff1661483a575f838152602081815260408083206001600160a01b03861684529091529020805460ff19166001179055614ec43390565b6001600160a01b0316826001600160a01b0316847f2f8788117e7eff1d82e926ec794901d17c78024a50270940304540a733656f0d60405160405180910390a4506001610888565b5f828152602081815260408083206001600160a01b038516845290915281205460ff161561483a575f838152602081815260408083206001600160a01b0386168085529252808320805460ff1916905551339286917ff6391f5c32d9c69d2a47ea670b442974b53935d1edc7fd64eb21e047a839171b9190a4506001610888565b5f60208284031215614f9d575f5ffd5b5035919050565b634e487b7160e01b5f52602160045260245ffd5b60048110614fc857614fc8614fa4565b9052565b878152602081018790526001600160a01b03868116604083015285166060820152831515608082015260e0810161500660a0830185614fb8565b61ffff831660c083015298975050505050505050565b5f6020828403121561502c575f5ffd5b81356001600160e01b031981168114613e04575f5ffd5b5f60e08284031215615053575f5ffd5b50919050565b5f60e08284031215615069575f5ffd5b613e048383615043565b80356001600160a01b0381168114613d79575f5ffd5b5f60408284031215615053575f5ffd5b803560048110613d79575f5ffd5b803561ffff81168114613d79575f5ffd5b5f5f5f5f5f60a086880312156150cc575f5ffd5b853594506150dc60208701615073565b9350604086013567ffffffffffffffff8111156150f7575f5ffd5b61510388828901615089565b93505061511260608701615099565b9150615120608087016150a7565b90509295509295909350565b5f5f6040838503121561513d575f5ffd5b8235915061514d60208401615073565b90509250929050565b5f5f5f60608486031215615168575f5ffd5b61517184615073565b925060208401359150604084013560ff8116811461518d575f5ffd5b809150509250925092565b5f5f61010083850312156151aa575f5ffd5b6151b48484615043565b915061514d60e08401615073565b5f602082840312156151d2575f5ffd5b613e0482615073565b5f602082840312156151eb575f5ffd5b813565ffffffffffff81168114613e04575f5ffd5b5f60208284031215615210575f5ffd5b813564ffffffffff81168114613e04575f5ffd5b602080825282518282018190525f918401906040840190835b8181101561527057835180516001600160a01b03168452602090810151818501529093019260409092019160010161523d565b509095945050505050565b5f60a082840312801561528c575f5ffd5b509092915050565b8015158114610f9a575f5ffd5b5f5f604083850312156152b2575f5ffd5b82356152bd81615294565b915061514d60208401615073565b60038110614fc857614fc8614fa4565b602080825282518282018190525f918401906040840190835b81811015615270578351805180518552602081015160208601526001600160a01b0360408201511660408601526001600160a01b03606082015116606086015260808101511515608086015260a081015161535260a0870182614fb8565b5061ffff60c08201511660c086015250602081015161537460e08601826152cb565b506040015161010084015260209390930192610120909201916001016152f4565b634e487b7160e01b5f52604160045260245ffd5b60405160e0810167ffffffffffffffff811182821017156153cc576153cc615395565b60405290565b60405160c0810167ffffffffffffffff811182821017156153cc576153cc615395565b5f60e0828403128015615406575f5ffd5b5061540f6153a9565b823581526020808401359082015261542960408401615073565b604082015261543a60608401615073565b6060820152608083013561544d81615294565b608082015261545e60a08401615099565b60a082015261546f60c084016150a7565b60c08201529392505050565b5f6020828403121561548b575f5ffd5b8135613e0481615294565b5f5f604083850312156154a7575f5ffd5b8235915061514d602084016150a7565b602080825282518282018190525f918401906040840190835b818110156152705783518352602093840193909201916001016154d0565b5f5f604083850312156154ff575f5ffd5b823567ffffffffffffffff811115615515575f5ffd5b61552185828601615089565b95602094909401359450505050565b5f5f60408385031215615541575f5ffd5b61554a83615073565b9150602083013561555a81615294565b809150509250929050565b5f82601f830112615574575f5ffd5b813567ffffffffffffffff81111561558e5761558e615395565b604051601f8201601f19908116603f0116810167ffffffffffffffff811182821017156155bd576155bd615395565b6040528181528382016020018510156155d4575f5ffd5b816020850160208301375f918101602001919091529392505050565b5f60208284031215615600575f5ffd5b813567ffffffffffffffff811115615616575f5ffd5b820160c08185031215615627575f5ffd5b61562f6153d2565b813567ffffffffffffffff811115615645575f5ffd5b61565186828501615565565b825250602082013567ffffffffffffffff81111561566d575f5ffd5b61567986828501615565565b602083015250604082013567ffffffffffffffff811115615698575f5ffd5b6156a486828501615565565b604083015250606082013567ffffffffffffffff8111156156c3575f5ffd5b6156cf86828501615565565b606083015250608082013567ffffffffffffffff8111156156ee575f5ffd5b6156fa86828501615565565b60808301525060a082013567ffffffffffffffff811115615719575f5ffd5b61572586828501615565565b60a083015250949350505050565b5f8151808452602084019350602083015f5b8281101561579f5781518051875261ffff602082015116602088015260408101516157736040890182614fb8565b506060810151905061578860608801826152cb565b506080959095019460209190910190600101615745565b5093949350505050565b602081526001600160a01b0382511660208201525f6020830151606060408401526157d76080840182615733565b90506040840151601f198483030160608501526157f48282615733565b95945050505050565b5f6020828403121561580d575f5ffd5b5051919050565b634e487b7160e01b5f52601260045260245ffd5b634e487b7160e01b5f52601160045260245ffd5b5f8261584a5761584a615814565b500490565b8082018082111561088857610888615828565b600a8110614fc857614fc8614fa4565b64ffffffffff85168152602081018490526001600160a01b0383166040820152608081016157f46060830184615862565b808202811582820484141761088857610888615828565b5f5f8335601e198436030181126158cf575f5ffd5b83018035915067ffffffffffffffff8211156158e9575f5ffd5b6020019150368190038213156158fd575f5ffd5b9250929050565b81835281816020850137505f828201602090810191909152601f909101601f19169091010190565b604081525f61593f604083018688615904565b8281036020840152615952818587615904565b979650505050505050565b64ffffffffff8181168382160290811690818114613de957613de9615828565b8181038181111561088857610888615828565b5f600182016159a1576159a1615828565b5060010190565b5f816159b6576159b6615828565b505f190190565b64ffffffffff818116838216019081111561088857610888615828565b634e487b7160e01b5f52603260045260245ffd5b81358155602082013560018201556040820135600282015560608201356003820155600481016080830135615a2281615294565b815490151560ff1660ff19919091161790555050565b5f82518060208501845e5f920191825250919050565b5f81518084528060208401602086015e5f602082860101526020601f19601f83011685010191505092915050565b60a081525f615a8e60a0830188615a4e565b8281036020840152615aa08188615a4e565b90508281036040840152615ab48187615a4e565b90508281036060840152615ac88186615a4e565b90508281036080840152615adc8185615a4e565b98975050505050505050565b60ff828116828216039081111561088857610888615828565b6001815b6001841115615b3c57808504811115615b2057615b20615828565b6001841615615b2e57908102905b60019390931c928002615b05565b935093915050565b5f82615b5257506001610888565b81615b5e57505f610888565b8160018114615b745760028114615b7e57615b9a565b6001915050610888565b60ff841115615b8f57615b8f615828565b50506001821b610888565b5060208310610133831016604e8410600b8410161715615bbd575081810a610888565b615bc95f198484615b01565b805f1904821115615bdc57615bdc615828565b029392505050565b5f613e0460ff841683615b44565b65ffffffffffff818116838216019081111561088857610888615828565b5f64ffffffffff831680615c2657615c26615814565b8064ffffffffff84160491505092915050565b8082018281125f831280158216821582161715615c5857615c58615828565b505092915050565b8082025f8212600160ff1b84141615615c7b57615c7b615828565b818105831482151761088857610888615828565b5f82615c9d57615c9d615814565b600160ff1b82145f1984141615615cb657615cb6615828565b500590565b8181035f831280158383131683831282161715613de957613de9615828565b634e487b7160e01b5f52603160045260245ffd5b65ffffffffffff828116828216039081111561088857610888615828565b5f82615d1a57615d1a615814565b50069056feca6b824caf1a48ea2ad039dbb063460fa30e9c3cc255eeb52240d638ec6de65ea2646970667358221220f848e6d6467f54dfe91f65a24ba0a74cad2ee672f84865a06f83f90e15f1b56f64736f6c634300081c0033",
  "linkReferences": {},
  "deployedLinkReferences": {}
}