{
  "_format": "hh-sol-artifact-1",
  "contractName": "ClockTowerSubscribe",
  "sourceName": "contracts/ClockTowerSubscribe.sol",
  "abi": [
    {
      "inputs": [
        {
          "internalType": "uint256",
          "name": "callerFee_",
          "type": "uint256"
        },
        {
          "internalType": "uint256",
          "name": "systemFee_",
          "type": "uint256"
        },
        {
          "internalType": "uint256",
          "name": "maxRemits_",
          "type": "uint256"
        },
        {
          "internalType": "uint256",
          "name": "cancelLimit_",
          "type": "uint256"
        },
        {
          "internalType": "bool",
          "name": "allowSystemFee_",
          "type": "bool"
        },
        {
          "internalType": "address",
          "name": "admin_",
          "type": "address"
        },
        {
          "internalType": "address",
          "name": "janitor_",
          "type": "address"
        }
      ],
      "stateMutability": "nonpayable",
      "type": "constructor"
    },
    {
      "inputs": [],
      "name": "AccessControlBadConfirmation",
      "type": "error"
    },
    {
      "inputs": [
        {
          "internalType": "uint48",
          "name": "schedule",
          "type": "uint48"
        }
      ],
      "name": "AccessControlEnforcedDefaultAdminDelay",
      "type": "error"
    },
    {
      "inputs": [],
      "name": "AccessControlEnforcedDefaultAdminRules",
      "type": "error"
    },
    {
      "inputs": [
        {
          "internalType": "address",
          "name": "defaultAdmin",
          "type": "address"
        }
      ],
      "name": "AccessControlInvalidDefaultAdmin",
      "type": "error"
    },
    {
      "inputs": [
        {
          "internalType": "address",
          "name": "account",
          "type": "address"
        },
        {
          "internalType": "bytes32",
          "name": "neededRole",
          "type": "bytes32"
        }
      ],
      "name": "AccessControlUnauthorizedAccount",
      "type": "error"
    },
    {
      "inputs": [
        {
          "internalType": "uint8",
          "name": "bits",
          "type": "uint8"
        },
        {
          "internalType": "uint256",
          "name": "value",
          "type": "uint256"
        }
      ],
      "name": "SafeCastOverflowedUintDowncast",
      "type": "error"
    },
    {
      "inputs": [
        {
          "internalType": "address",
          "name": "token",
          "type": "address"
        }
      ],
      "name": "SafeERC20FailedOperation",
      "type": "error"
    },
    {
      "anonymous": false,
      "inputs": [
        {
          "indexed": true,
          "internalType": "uint40",
          "name": "timestamp",
          "type": "uint40"
        },
        {
          "indexed": true,
          "internalType": "uint40",
          "name": "checkedDay",
          "type": "uint40"
        },
        {
          "indexed": true,
          "internalType": "address",
          "name": "caller",
          "type": "address"
        },
        {
          "indexed": false,
          "internalType": "bool",
          "name": "isFinished",
          "type": "bool"
        }
      ],
      "name": "CallerLog",
      "type": "event"
    },
    {
      "anonymous": false,
      "inputs": [
        {
          "indexed": true,
          "internalType": "bytes32",
          "name": "id",
          "type": "bytes32"
        },
        {
          "indexed": false,
          "internalType": "uint256",
          "name": "subscriberIndex",
          "type": "uint256"
        },
        {
          "indexed": false,
          "internalType": "uint256",
          "name": "subscriptionIndex",
          "type": "uint256"
        },
        {
          "indexed": false,
          "internalType": "uint256",
          "name": "frequency",
          "type": "uint256"
        },
        {
          "indexed": true,
          "internalType": "uint40",
          "name": "nextUncheckedDay",
          "type": "uint40"
        }
      ],
      "name": "Coordinates",
      "type": "event"
    },
    {
      "anonymous": false,
      "inputs": [],
      "name": "DefaultAdminDelayChangeCanceled",
      "type": "event"
    },
    {
      "anonymous": false,
      "inputs": [
        {
          "indexed": false,
          "internalType": "uint48",
          "name": "newDelay",
          "type": "uint48"
        },
        {
          "indexed": false,
          "internalType": "uint48",
          "name": "effectSchedule",
          "type": "uint48"
        }
      ],
      "name": "DefaultAdminDelayChangeScheduled",
      "type": "event"
    },
    {
      "anonymous": false,
      "inputs": [],
      "name": "DefaultAdminTransferCanceled",
      "type": "event"
    },
    {
      "anonymous": false,
      "inputs": [
        {
          "indexed": true,
          "internalType": "address",
          "name": "newAdmin",
          "type": "address"
        },
        {
          "indexed": false,
          "internalType": "uint48",
          "name": "acceptSchedule",
          "type": "uint48"
        }
      ],
      "name": "DefaultAdminTransferScheduled",
      "type": "event"
    },
    {
      "anonymous": false,
      "inputs": [
        {
          "indexed": true,
          "internalType": "bytes32",
          "name": "id",
          "type": "bytes32"
        },
        {
          "indexed": true,
          "internalType": "address",
          "name": "provider",
          "type": "address"
        },
        {
          "indexed": true,
          "internalType": "uint40",
          "name": "timestamp",
          "type": "uint40"
        },
        {
          "indexed": false,
          "internalType": "string",
          "name": "url",
          "type": "string"
        },
        {
          "indexed": false,
          "internalType": "string",
          "name": "description",
          "type": "string"
        }
      ],
      "name": "DetailsLog",
      "type": "event"
    },
    {
      "anonymous": false,
      "inputs": [
        {
          "indexed": true,
          "internalType": "address",
          "name": "provider",
          "type": "address"
        },
        {
          "indexed": true,
          "internalType": "uint40",
          "name": "timestamp",
          "type": "uint40"
        },
        {
          "indexed": true,
          "internalType": "string",
          "name": "description",
          "type": "string"
        },
        {
          "indexed": false,
          "internalType": "string",
          "name": "company",
          "type": "string"
        },
        {
          "indexed": false,
          "internalType": "string",
          "name": "url",
          "type": "string"
        },
        {
          "indexed": false,
          "internalType": "string",
          "name": "domain",
          "type": "string"
        },
        {
          "indexed": false,
          "internalType": "string",
          "name": "email",
          "type": "string"
        },
        {
          "indexed": false,
          "internalType": "string",
          "name": "misc",
          "type": "string"
        }
      ],
      "name": "ProvDetailsLog",
      "type": "event"
    },
    {
      "anonymous": false,
      "inputs": [
        {
          "indexed": true,
          "internalType": "bytes32",
          "name": "role",
          "type": "bytes32"
        },
        {
          "indexed": true,
          "internalType": "bytes32",
          "name": "previousAdminRole",
          "type": "bytes32"
        },
        {
          "indexed": true,
          "internalType": "bytes32",
          "name": "newAdminRole",
          "type": "bytes32"
        }
      ],
      "name": "RoleAdminChanged",
      "type": "event"
    },
    {
      "anonymous": false,
      "inputs": [
        {
          "indexed": true,
          "internalType": "bytes32",
          "name": "role",
          "type": "bytes32"
        },
        {
          "indexed": true,
          "internalType": "address",
          "name": "account",
          "type": "address"
        },
        {
          "indexed": true,
          "internalType": "address",
          "name": "sender",
          "type": "address"
        }
      ],
      "name": "RoleGranted",
      "type": "event"
    },
    {
      "anonymous": false,
      "inputs": [
        {
          "indexed": true,
          "internalType": "bytes32",
          "name": "role",
          "type": "bytes32"
        },
        {
          "indexed": true,
          "internalType": "address",
          "name": "account",
          "type": "address"
        },
        {
          "indexed": true,
          "internalType": "address",
          "name": "sender",
          "type": "address"
        }
      ],
      "name": "RoleRevoked",
      "type": "event"
    },
    {
      "anonymous": false,
      "inputs": [
        {
          "indexed": true,
          "internalType": "bytes32",
          "name": "id",
          "type": "bytes32"
        },
        {
          "indexed": true,
          "internalType": "address",
          "name": "provider",
          "type": "address"
        },
        {
          "indexed": true,
          "internalType": "address",
          "name": "subscriber",
          "type": "address"
        },
        {
          "indexed": false,
          "internalType": "uint40",
          "name": "timestamp",
          "type": "uint40"
        },
        {
          "indexed": false,
          "internalType": "uint256",
          "name": "amount",
          "type": "uint256"
        },
        {
          "indexed": false,
          "internalType": "address",
          "name": "token",
          "type": "address"
        },
        {
          "indexed": false,
          "internalType": "enum ClockTowerSubscribe.SubscriptEvent",
          "name": "subScriptEvent",
          "type": "uint8"
        }
      ],
      "name": "SubLog",
      "type": "event"
    },
    {
      "anonymous": false,
      "inputs": [
        {
          "indexed": true,
          "internalType": "uint40",
          "name": "timestamp",
          "type": "uint40"
        },
        {
          "indexed": true,
          "internalType": "bytes32",
          "name": "id",
          "type": "bytes32"
        },
        {
          "indexed": true,
          "internalType": "address",
          "name": "subscriber",
          "type": "address"
        }
      ],
      "name": "UList",
      "type": "event"
    },
    {
      "inputs": [],
      "name": "DEFAULT_ADMIN_ROLE",
      "outputs": [
        {
          "internalType": "bytes32",
          "name": "",
          "type": "bytes32"
        }
      ],
      "stateMutability": "view",
      "type": "function"
    },
    {
      "inputs": [],
      "name": "JANITOR_ROLE",
      "outputs": [
        {
          "internalType": "bytes32",
          "name": "",
          "type": "bytes32"
        }
      ],
      "stateMutability": "view",
      "type": "function"
    },
    {
      "inputs": [],
      "name": "acceptDefaultAdminTransfer",
      "outputs": [],
      "stateMutability": "nonpayable",
      "type": "function"
    },
    {
      "inputs": [
        {
          "internalType": "address",
          "name": "erc20Contract",
          "type": "address"
        },
        {
          "internalType": "uint256",
          "name": "minimum",
          "type": "uint256"
        },
        {
          "internalType": "uint8",
          "name": "decimals",
          "type": "uint8"
        }
      ],
      "name": "addERC20Contract",
      "outputs": [],
      "stateMutability": "nonpayable",
      "type": "function"
    },
    {
      "inputs": [
        {
          "internalType": "address",
          "name": "",
          "type": "address"
        }
      ],
      "name": "approvedERC20",
      "outputs": [
        {
          "internalType": "address",
          "name": "tokenAddress",
          "type": "address"
        },
        {
          "internalType": "uint8",
          "name": "decimals",
          "type": "uint8"
        },
        {
          "internalType": "bool",
          "name": "paused",
          "type": "bool"
        },
        {
          "internalType": "uint256",
          "name": "minimum",
          "type": "uint256"
        }
      ],
      "stateMutability": "view",
      "type": "function"
    },
    {
      "inputs": [
        {
          "internalType": "address",
          "name": "newAdmin",
          "type": "address"
        }
      ],
      "name": "beginDefaultAdminTransfer",
      "outputs": [],
      "stateMutability": "nonpayable",
      "type": "function"
    },
    {
      "inputs": [],
      "name": "callerFee",
      "outputs": [
        {
          "internalType": "uint256",
          "name": "",
          "type": "uint256"
        }
      ],
      "stateMutability": "view",
      "type": "function"
    },
    {
      "inputs": [],
      "name": "cancelDefaultAdminTransfer",
      "outputs": [],
      "stateMutability": "nonpayable",
      "type": "function"
    },
    {
      "inputs": [],
      "name": "cancelLimit",
      "outputs": [
        {
          "internalType": "uint256",
          "name": "",
          "type": "uint256"
        }
      ],
      "stateMutability": "view",
      "type": "function"
    },
    {
      "inputs": [
        {
          "components": [
            {
              "internalType": "bytes32",
              "name": "id",
              "type": "bytes32"
            },
            {
              "internalType": "uint256",
              "name": "amount",
              "type": "uint256"
            },
            {
              "internalType": "address",
              "name": "provider",
              "type": "address"
            },
            {
              "internalType": "address",
              "name": "token",
              "type": "address"
            },
            {
              "internalType": "bool",
              "name": "cancelled",
              "type": "bool"
            },
            {
              "internalType": "enum ClockTowerSubscribe.Frequency",
              "name": "frequency",
              "type": "uint8"
            },
            {
              "internalType": "uint16",
              "name": "dueDay",
              "type": "uint16"
            }
          ],
          "internalType": "struct ClockTowerSubscribe.Subscription",
          "name": "_subscription",
          "type": "tuple"
        }
      ],
      "name": "cancelSubscription",
      "outputs": [],
      "stateMutability": "nonpayable",
      "type": "function"
    },
    {
      "inputs": [
        {
          "internalType": "uint256",
          "name": "_fee",
          "type": "uint256"
        }
      ],
      "name": "changeCallerFee",
      "outputs": [],
      "stateMutability": "nonpayable",
      "type": "function"
    },
    {
      "inputs": [
        {
          "internalType": "uint48",
          "name": "newDelay",
          "type": "uint48"
        }
      ],
      "name": "changeDefaultAdminDelay",
      "outputs": [],
      "stateMutability": "nonpayable",
      "type": "function"
    },
    {
      "inputs": [
        {
          "internalType": "uint256",
          "name": "_maxRemits",
          "type": "uint256"
        }
      ],
      "name": "changeMaxRemits",
      "outputs": [],
      "stateMutability": "nonpayable",
      "type": "function"
    },
    {
      "inputs": [
        {
          "internalType": "address",
          "name": "newSysFeeAddress",
          "type": "address"
        }
      ],
      "name": "changeSysFeeReceiver",
      "outputs": [],
      "stateMutability": "nonpayable",
      "type": "function"
    },
    {
      "inputs": [
        {
          "internalType": "uint256",
          "name": "_sys_fee",
          "type": "uint256"
        }
      ],
      "name": "changeSystemFee",
      "outputs": [],
      "stateMutability": "nonpayable",
      "type": "function"
    },
    {
      "inputs": [
        {
          "internalType": "bytes32",
          "name": "id",
          "type": "bytes32"
        }
      ],
      "name": "cleanUnsubscribeList",
      "outputs": [],
      "stateMutability": "nonpayable",
      "type": "function"
    },
    {
      "inputs": [
        {
          "components": [
            {
              "internalType": "bytes32",
              "name": "id",
              "type": "bytes32"
            },
            {
              "internalType": "uint256",
              "name": "amount",
              "type": "uint256"
            },
            {
              "internalType": "address",
              "name": "provider",
              "type": "address"
            },
            {
              "internalType": "address",
              "name": "token",
              "type": "address"
            },
            {
              "internalType": "bool",
              "name": "cancelled",
              "type": "bool"
            },
            {
              "internalType": "enum ClockTowerSubscribe.Frequency",
              "name": "frequency",
              "type": "uint8"
            },
            {
              "internalType": "uint16",
              "name": "dueDay",
              "type": "uint16"
            }
          ],
          "internalType": "struct ClockTowerSubscribe.Subscription",
          "name": "subscription",
          "type": "tuple"
        }
      ],
      "name": "cleanupCancelledSubscribers",
      "outputs": [],
      "stateMutability": "nonpayable",
      "type": "function"
    },
    {
      "inputs": [
        {
          "internalType": "uint256",
          "name": "amount",
          "type": "uint256"
        },
        {
          "internalType": "address",
          "name": "token",
          "type": "address"
        },
        {
          "components": [
            {
              "internalType": "string",
              "name": "url",
              "type": "string"
            },
            {
              "internalType": "string",
              "name": "description",
              "type": "string"
            }
          ],
          "internalType": "struct ClockTowerSubscribe.Details",
          "name": "details",
          "type": "tuple"
        },
        {
          "internalType": "enum ClockTowerSubscribe.Frequency",
          "name": "frequency",
          "type": "uint8"
        },
        {
          "internalType": "uint16",
          "name": "dueDay",
          "type": "uint16"
        }
      ],
      "name": "createSubscription",
      "outputs": [],
      "stateMutability": "nonpayable",
      "type": "function"
    },
    {
      "inputs": [],
      "name": "defaultAdmin",
      "outputs": [
        {
          "internalType": "address",
          "name": "",
          "type": "address"
        }
      ],
      "stateMutability": "view",
      "type": "function"
    },
    {
      "inputs": [],
      "name": "defaultAdminDelay",
      "outputs": [
        {
          "internalType": "uint48",
          "name": "",
          "type": "uint48"
        }
      ],
      "stateMutability": "view",
      "type": "function"
    },
    {
      "inputs": [],
      "name": "defaultAdminDelayIncreaseWait",
      "outputs": [
        {
          "internalType": "uint48",
          "name": "",
          "type": "uint48"
        }
      ],
      "stateMutability": "view",
      "type": "function"
    },
    {
      "inputs": [
        {
          "components": [
            {
              "internalType": "string",
              "name": "url",
              "type": "string"
            },
            {
              "internalType": "string",
              "name": "description",
              "type": "string"
            }
          ],
          "internalType": "struct ClockTowerSubscribe.Details",
          "name": "details",
          "type": "tuple"
        },
        {
          "internalType": "bytes32",
          "name": "id",
          "type": "bytes32"
        }
      ],
      "name": "editDetails",
      "outputs": [],
      "stateMutability": "nonpayable",
      "type": "function"
    },
    {
      "inputs": [
        {
          "components": [
            {
              "internalType": "string",
              "name": "description",
              "type": "string"
            },
            {
              "internalType": "string",
              "name": "company",
              "type": "string"
            },
            {
              "internalType": "string",
              "name": "url",
              "type": "string"
            },
            {
              "internalType": "string",
              "name": "domain",
              "type": "string"
            },
            {
              "internalType": "string",
              "name": "email",
              "type": "string"
            },
            {
              "internalType": "string",
              "name": "misc",
              "type": "string"
            }
          ],
          "internalType": "struct ClockTowerSubscribe.ProviderDetails",
          "name": "details",
          "type": "tuple"
        }
      ],
      "name": "editProvDetails",
      "outputs": [],
      "stateMutability": "nonpayable",
      "type": "function"
    },
    {
      "inputs": [
        {
          "internalType": "bytes32",
          "name": "",
          "type": "bytes32"
        },
        {
          "internalType": "address",
          "name": "",
          "type": "address"
        }
      ],
      "name": "feeBalance",
      "outputs": [
        {
          "internalType": "uint256",
          "name": "",
          "type": "uint256"
        }
      ],
      "stateMutability": "view",
      "type": "function"
    },
    {
      "inputs": [
        {
          "internalType": "address",
          "name": "account",
          "type": "address"
        }
      ],
      "name": "getAccount",
      "outputs": [
        {
          "components": [
            {
              "internalType": "address",
              "name": "accountAddress",
              "type": "address"
            },
            {
              "components": [
                {
                  "internalType": "bytes32",
                  "name": "id",
                  "type": "bytes32"
                },
                {
                  "internalType": "uint16",
                  "name": "dueDay",
                  "type": "uint16"
                },
                {
                  "internalType": "enum ClockTowerSubscribe.Frequency",
                  "name": "frequency",
                  "type": "uint8"
                },
                {
                  "internalType": "enum ClockTowerSubscribe.Status",
                  "name": "status",
                  "type": "uint8"
                }
              ],
              "internalType": "struct ClockTowerSubscribe.SubIndex[]",
              "name": "subscriptions",
              "type": "tuple[]"
            },
            {
              "components": [
                {
                  "internalType": "bytes32",
                  "name": "id",
                  "type": "bytes32"
                },
                {
                  "internalType": "uint16",
                  "name": "dueDay",
                  "type": "uint16"
                },
                {
                  "internalType": "enum ClockTowerSubscribe.Frequency",
                  "name": "frequency",
                  "type": "uint8"
                },
                {
                  "internalType": "enum ClockTowerSubscribe.Status",
                  "name": "status",
                  "type": "uint8"
                }
              ],
              "internalType": "struct ClockTowerSubscribe.SubIndex[]",
              "name": "provSubs",
              "type": "tuple[]"
            }
          ],
          "internalType": "struct ClockTowerSubscribe.Account",
          "name": "",
          "type": "tuple"
        }
      ],
      "stateMutability": "view",
      "type": "function"
    },
    {
      "inputs": [
        {
          "internalType": "bool",
          "name": "bySubscriber",
          "type": "bool"
        },
        {
          "internalType": "address",
          "name": "account",
          "type": "address"
        }
      ],
      "name": "getAccountSubscriptions",
      "outputs": [
        {
          "components": [
            {
              "components": [
                {
                  "internalType": "bytes32",
                  "name": "id",
                  "type": "bytes32"
                },
                {
                  "internalType": "uint256",
                  "name": "amount",
                  "type": "uint256"
                },
                {
                  "internalType": "address",
                  "name": "provider",
                  "type": "address"
                },
                {
                  "internalType": "address",
                  "name": "token",
                  "type": "address"
                },
                {
                  "internalType": "bool",
                  "name": "cancelled",
                  "type": "bool"
                },
                {
                  "internalType": "enum ClockTowerSubscribe.Frequency",
                  "name": "frequency",
                  "type": "uint8"
                },
                {
                  "internalType": "uint16",
                  "name": "dueDay",
                  "type": "uint16"
                }
              ],
              "internalType": "struct ClockTowerSubscribe.Subscription",
              "name": "subscription",
              "type": "tuple"
            },
            {
              "internalType": "enum ClockTowerSubscribe.Status",
              "name": "status",
              "type": "uint8"
            },
            {
              "internalType": "uint256",
              "name": "totalSubscribers",
              "type": "uint256"
            }
          ],
          "internalType": "struct ClockTowerSubscribe.SubView[]",
          "name": "",
          "type": "tuple[]"
        }
      ],
      "stateMutability": "view",
      "type": "function"
    },
    {
      "inputs": [
        {
          "internalType": "uint256",
          "name": "frequency",
          "type": "uint256"
        },
        {
          "internalType": "uint16",
          "name": "dueDay",
          "type": "uint16"
        }
      ],
      "name": "getIdByTime",
      "outputs": [
        {
          "internalType": "bytes32[]",
          "name": "",
          "type": "bytes32[]"
        }
      ],
      "stateMutability": "view",
      "type": "function"
    },
    {
      "inputs": [
        {
          "internalType": "bytes32",
          "name": "role",
          "type": "bytes32"
        }
      ],
      "name": "getRoleAdmin",
      "outputs": [
        {
          "internalType": "bytes32",
          "name": "",
          "type": "bytes32"
        }
      ],
      "stateMutability": "view",
      "type": "function"
    },
    {
      "inputs": [
        {
          "internalType": "bytes32",
          "name": "id",
          "type": "bytes32"
        }
      ],
      "name": "getSubscribersById",
      "outputs": [
        {
          "components": [
            {
              "internalType": "address",
              "name": "subscriber",
              "type": "address"
            },
            {
              "internalType": "uint256",
              "name": "feeBalance",
              "type": "uint256"
            }
          ],
          "internalType": "struct ClockTowerSubscribe.SubscriberView[]",
          "name": "",
          "type": "tuple[]"
        }
      ],
      "stateMutability": "view",
      "type": "function"
    },
    {
      "inputs": [],
      "name": "getTotalSubscribers",
      "outputs": [
        {
          "internalType": "uint256",
          "name": "",
          "type": "uint256"
        }
      ],
      "stateMutability": "view",
      "type": "function"
    },
    {
      "inputs": [
        {
          "internalType": "bytes32",
          "name": "role",
          "type": "bytes32"
        },
        {
          "internalType": "address",
          "name": "account",
          "type": "address"
        }
      ],
      "name": "grantRole",
      "outputs": [],
      "stateMutability": "nonpayable",
      "type": "function"
    },
    {
      "inputs": [
        {
          "internalType": "bytes32",
          "name": "role",
          "type": "bytes32"
        },
        {
          "internalType": "address",
          "name": "account",
          "type": "address"
        }
      ],
      "name": "hasRole",
      "outputs": [
        {
          "internalType": "bool",
          "name": "",
          "type": "bool"
        }
      ],
      "stateMutability": "view",
      "type": "function"
    },
    {
      "inputs": [
        {
          "internalType": "bytes32",
          "name": "",
          "type": "bytes32"
        }
      ],
      "name": "idSubMap",
      "outputs": [
        {
          "internalType": "bytes32",
          "name": "id",
          "type": "bytes32"
        },
        {
          "internalType": "uint256",
          "name": "amount",
          "type": "uint256"
        },
        {
          "internalType": "address",
          "name": "provider",
          "type": "address"
        },
        {
          "internalType": "address",
          "name": "token",
          "type": "address"
        },
        {
          "internalType": "bool",
          "name": "cancelled",
          "type": "bool"
        },
        {
          "internalType": "enum ClockTowerSubscribe.Frequency",
          "name": "frequency",
          "type": "uint8"
        },
        {
          "internalType": "uint16",
          "name": "dueDay",
          "type": "uint16"
        }
      ],
      "stateMutability": "view",
      "type": "function"
    },
    {
      "inputs": [],
      "name": "maxRemits",
      "outputs": [
        {
          "internalType": "uint256",
          "name": "",
          "type": "uint256"
        }
      ],
      "stateMutability": "view",
      "type": "function"
    },
    {
      "inputs": [],
      "name": "nextUncheckedDay",
      "outputs": [
        {
          "internalType": "uint40",
          "name": "",
          "type": "uint40"
        }
      ],
      "stateMutability": "view",
      "type": "function"
    },
    {
      "inputs": [],
      "name": "owner",
      "outputs": [
        {
          "internalType": "address",
          "name": "",
          "type": "address"
        }
      ],
      "stateMutability": "view",
      "type": "function"
    },
    {
      "inputs": [
        {
          "internalType": "address",
          "name": "_tokenAddress",
          "type": "address"
        },
        {
          "internalType": "bool",
          "name": "pause",
          "type": "bool"
        }
      ],
      "name": "pauseToken",
      "outputs": [],
      "stateMutability": "nonpayable",
      "type": "function"
    },
    {
      "inputs": [],
      "name": "pendingDefaultAdmin",
      "outputs": [
        {
          "internalType": "address",
          "name": "newAdmin",
          "type": "address"
        },
        {
          "internalType": "uint48",
          "name": "schedule",
          "type": "uint48"
        }
      ],
      "stateMutability": "view",
      "type": "function"
    },
    {
      "inputs": [],
      "name": "pendingDefaultAdminDelay",
      "outputs": [
        {
          "internalType": "uint48",
          "name": "newDelay",
          "type": "uint48"
        },
        {
          "internalType": "uint48",
          "name": "schedule",
          "type": "uint48"
        }
      ],
      "stateMutability": "view",
      "type": "function"
    },
    {
      "inputs": [],
      "name": "remit",
      "outputs": [],
      "stateMutability": "nonpayable",
      "type": "function"
    },
    {
      "inputs": [
        {
          "internalType": "bytes32",
          "name": "role",
          "type": "bytes32"
        },
        {
          "internalType": "address",
          "name": "account",
          "type": "address"
        }
      ],
      "name": "renounceRole",
      "outputs": [],
      "stateMutability": "nonpayable",
      "type": "function"
    },
    {
      "inputs": [
        {
          "internalType": "bytes32",
          "name": "role",
          "type": "bytes32"
        },
        {
          "internalType": "address",
          "name": "account",
          "type": "address"
        }
      ],
      "name": "revokeRole",
      "outputs": [],
      "stateMutability": "nonpayable",
      "type": "function"
    },
    {
      "inputs": [],
      "name": "rollbackDefaultAdminDelay",
      "outputs": [],
      "stateMutability": "nonpayable",
      "type": "function"
    },
    {
      "inputs": [
        {
          "internalType": "uint256",
          "name": "_cancelLimit",
          "type": "uint256"
        }
      ],
      "name": "setCancelLimit",
      "outputs": [],
      "stateMutability": "nonpayable",
      "type": "function"
    },
    {
      "inputs": [
        {
          "internalType": "uint40",
          "name": "_nextUncheckedDay",
          "type": "uint40"
        }
      ],
      "name": "setNextUncheckedDay",
      "outputs": [],
      "stateMutability": "nonpayable",
      "type": "function"
    },
    {
      "inputs": [
        {
          "components": [
            {
              "internalType": "bytes32",
              "name": "id",
              "type": "bytes32"
            },
            {
              "internalType": "uint256",
              "name": "subscriberIndex",
              "type": "uint256"
            },
            {
              "internalType": "uint256",
              "name": "subscriptionIndex",
              "type": "uint256"
            },
            {
              "internalType": "uint256",
              "name": "frequency",
              "type": "uint256"
            },
            {
              "internalType": "bool",
              "name": "initialized",
              "type": "bool"
            }
          ],
          "internalType": "struct ClockTowerSubscribe.PageStart",
          "name": "_pageStart",
          "type": "tuple"
        }
      ],
      "name": "setPageStart",
      "outputs": [],
      "stateMutability": "nonpayable",
      "type": "function"
    },
    {
      "inputs": [
        {
          "components": [
            {
              "internalType": "bytes32",
              "name": "id",
              "type": "bytes32"
            },
            {
              "internalType": "uint256",
              "name": "amount",
              "type": "uint256"
            },
            {
              "internalType": "address",
              "name": "provider",
              "type": "address"
            },
            {
              "internalType": "address",
              "name": "token",
              "type": "address"
            },
            {
              "internalType": "bool",
              "name": "cancelled",
              "type": "bool"
            },
            {
              "internalType": "enum ClockTowerSubscribe.Frequency",
              "name": "frequency",
              "type": "uint8"
            },
            {
              "internalType": "uint16",
              "name": "dueDay",
              "type": "uint16"
            }
          ],
          "internalType": "struct ClockTowerSubscribe.Subscription",
          "name": "_subscription",
          "type": "tuple"
        }
      ],
      "name": "subscribe",
      "outputs": [],
      "stateMutability": "nonpayable",
      "type": "function"
    },
    {
      "inputs": [
        {
          "internalType": "bytes4",
          "name": "interfaceId",
          "type": "bytes4"
        }
      ],
      "name": "supportsInterface",
      "outputs": [
        {
          "internalType": "bool",
          "name": "",
          "type": "bool"
        }
      ],
      "stateMutability": "view",
      "type": "function"
    },
    {
      "inputs": [],
      "name": "systemFee",
      "outputs": [
        {
          "internalType": "uint256",
          "name": "",
          "type": "uint256"
        }
      ],
      "stateMutability": "view",
      "type": "function"
    },
    {
      "inputs": [
        {
          "internalType": "bool",
          "name": "status",
          "type": "bool"
        }
      ],
      "name": "systemFeeActivate",
      "outputs": [],
      "stateMutability": "nonpayable",
      "type": "function"
    },
    {
      "inputs": [
        {
          "components": [
            {
              "internalType": "bytes32",
              "name": "id",
              "type": "bytes32"
            },
            {
              "internalType": "uint256",
              "name": "amount",
              "type": "uint256"
            },
            {
              "internalType": "address",
              "name": "provider",
              "type": "address"
            },
            {
              "internalType": "address",
              "name": "token",
              "type": "address"
            },
            {
              "internalType": "bool",
              "name": "cancelled",
              "type": "bool"
            },
            {
              "internalType": "enum ClockTowerSubscribe.Frequency",
              "name": "frequency",
              "type": "uint8"
            },
            {
              "internalType": "uint16",
              "name": "dueDay",
              "type": "uint16"
            }
          ],
          "internalType": "struct ClockTowerSubscribe.Subscription",
          "name": "_subscription",
          "type": "tuple"
        }
      ],
      "name": "unsubscribe",
      "outputs": [],
      "stateMutability": "nonpayable",
      "type": "function"
    },
    {
      "inputs": [
        {
          "components": [
            {
              "internalType": "bytes32",
              "name": "id",
              "type": "bytes32"
            },
            {
              "internalType": "uint256",
              "name": "amount",
              "type": "uint256"
            },
            {
              "internalType": "address",
              "name": "provider",
              "type": "address"
            },
            {
              "internalType": "address",
              "name": "token",
              "type": "address"
            },
            {
              "internalType": "bool",
              "name": "cancelled",
              "type": "bool"
            },
            {
              "internalType": "enum ClockTowerSubscribe.Frequency",
              "name": "frequency",
              "type": "uint8"
            },
            {
              "internalType": "uint16",
              "name": "dueDay",
              "type": "uint16"
            }
          ],
          "internalType": "struct ClockTowerSubscribe.Subscription",
          "name": "_subscription",
          "type": "tuple"
        },
        {
          "internalType": "address",
          "name": "subscriber",
          "type": "address"
        }
      ],
      "name": "unsubscribeByProvider",
      "outputs": [],
      "stateMutability": "nonpayable",
      "type": "function"
    }
  ],
  "bytecode": "0x608060405234801561000f575f5ffd5b506040516161ee3803806161ee83398101604081905261002e9161033b565b62015180826001600160a01b03811661006057604051636116401160e11b81525f600482015260240160405180910390fd5b600180546001600160d01b0316600160d01b65ffffffffffff8516021790556100895f8261020a565b5050506001600160a01b03821661009e575f5ffd5b61271087101580156100b25750612a518711155b6100ba575f5ffd5b61271086101580156100ce5750614e1f8611155b6100d6575f5ffd5b6101007f1cb0d6461572bd9b725739f1d8ea32d250b0dfcd75c68201355159719c012f808261020a565b506003879055600486815560068590556005869055600c805460ff60d01b1916600160d01b861515021790556040516358a6076b60e11b815264ffffffffff42169181019190915260029073__$d8070e93ad328db793760a96865bf0924d$__9063b14c0ed690602401602060405180830381865af4158015610185573d5f5f3e3d5ffd5b505050506040513d601f19601f820116820180604052508101906101a991906103a8565b6101b391906103d3565b600c80546001600160a01b03909416660100000000000002600160301b600160d01b031964ffffffffff939093166101000292909216610100600160d01b03199094169390931717909155506103fc945050505050565b5f82610266575f6102236002546001600160a01b031690565b6001600160a01b03161461024a57604051631fe1e13d60e11b815260040160405180910390fd5b600280546001600160a01b0319166001600160a01b0384161790555b6102708383610279565b90505b92915050565b5f828152602081815260408083206001600160a01b038516845290915281205460ff16610319575f838152602081815260408083206001600160a01b03861684529091529020805460ff191660011790556102d13390565b6001600160a01b0316826001600160a01b0316847f2f8788117e7eff1d82e926ec794901d17c78024a50270940304540a733656f0d60405160405180910390a4506001610273565b505f610273565b80516001600160a01b0381168114610336575f5ffd5b919050565b5f5f5f5f5f5f5f60e0888a031215610351575f5ffd5b8751602089015160408a015160608b015160808c0151939a5091985096509450801515811461037e575f5ffd5b925061038c60a08901610320565b915061039a60c08901610320565b905092959891949750929550565b5f602082840312156103b8575f5ffd5b815164ffffffffff811681146103cc575f5ffd5b9392505050565b64ffffffffff828116828216039081111561027357634e487b7160e01b5f52601160045260245ffd5b615de5806104095f395ff3fe608060405234801561000f575f5ffd5b506004361061033a575f3560e01c806386525a00116101b3578063cc8463c8116100f3578063d57ade5a1161009e578063e0a177f311610079578063e0a177f314610812578063ebec6eaa14610825578063ed601d281461084f578063fbcbc0f114610862575f5ffd5b8063d57ade5a146107cb578063d602b9fd146107de578063da854a96146107e6575f5ffd5b8063cf6eefb7116100ce578063cf6eefb714610777578063d10f9e69146107a5578063d547741f146107b8575f5ffd5b8063cc8463c814610747578063ccc992331461074f578063cefc14291461076f575f5ffd5b8063a1eda53c1161015e578063ac2b4e6311610139578063ac2b4e63146106aa578063b25ae32c146106bd578063bd743886146106c5578063cab1c9651461073e575f5ffd5b8063a1eda53c14610669578063a217fddf14610690578063a6b6356a14610697575f5ffd5b806391d148541161018e57806391d148541461060d57806392376c3f146106435780639889552e14610656575f5ffd5b806386525a00146105d25780638da5cb5b146105f25780638ef0ef1c146105fa575f5ffd5b806334d441d01161027e578063668c1e8a116102295780637b7c5f17116102045780637b7c5f17146105675780637bbf5a6e1461057a5780637ee1bfb91461059a57806384ef8ffc146105ad575f5ffd5b8063668c1e8a146105255780636692dd57146105385780637507ba391461055f575f5ffd5b8063598bff3511610259578063598bff35146104ec578063634e93da146104ff578063649a5ec714610512575f5ffd5b806334d441d0146104bd57806336568abe146104c65780634a1268b8146104d9575f5ffd5b80630bec99e8116102e95780631f17ee55116102c45780631f17ee551461046c578063248a9ca31461047557806327ea9773146104975780632f2ff15d146104aa575f5ffd5b80630bec99e81461042f57806312c99cf51461044257806316e8b85014610455575f5ffd5b8063038c9c0e11610319578063038c9c0e146103ff5780630aa6220b146104145780630b8590c71461041c575f5ffd5b8062b709771461033e57806301ffc9a7146103c0578063022d63fb146103e3575b5f5ffd5b6103a461034c36600461502b565b60166020525f90815260409020805460018201546002830154600390930154919290916001600160a01b039182169181169060ff600160a01b8204811691600160a81b81049091169061ffff600160b01b9091041687565b6040516103b7979695949392919061506a565b60405180910390f35b6103d36103ce3660046150ba565b610882565b60405190151581526020016103b7565b620697805b60405165ffffffffffff90911681526020016103b7565b61041261040d3660046150f7565b6108ac565b005b610412611173565b61041261042a366004615154565b611188565b61041261043d36600461502b565b61160a565b6104126104503660046150f7565b611636565b61045e60065481565b6040519081526020016103b7565b61045e60045481565b61045e61048336600461502b565b5f9081526020819052604090206001015490565b6104126104a536600461502b565b6118d2565b6104126104b83660046151cc565b6118e2565b61045e60035481565b6104126104d43660046151cc565b61190e565b6104126104e73660046151f6565b6119cf565b6104126104fa366004615238565b611acb565b61041261050d366004615262565b611dd1565b61041261052036600461527b565b611de4565b6104126105333660046150f7565b611df7565b61045e7f1cb0d6461572bd9b725739f1d8ea32d250b0dfcd75c68201355159719c012f8081565b610412611fd8565b6104126105753660046152b2565b612fd0565b61058d61058836600461502b565b612fff565b6040516103b791906152cd565b6104126105a8366004615324565b6131dd565b6002546001600160a01b03165b6040516001600160a01b0390911681526020016103b7565b6105e56105e036600461534a565b6131f4565b6040516103b79190615384565b6105ba613579565b61041261060836600461502b565b613591565b6103d361061b3660046151cc565b5f918252602082815260408084206001600160a01b0393909316845291905290205460ff1690565b61041261065136600461549e565b6135bd565b610412610664366004615526565b613953565b61067161397c565b6040805165ffffffffffff9384168152929091166020830152016103b7565b61045e5f81565b6104126106a536600461502b565b6139ce565b6104126106b8366004615262565b613b34565b61045e613bb9565b61070c6106d3366004615262565b60196020525f9081526040902080546001909101546001600160a01b0382169160ff600160a01b8204811692600160a81b909204169084565b604080516001600160a01b03909516855260ff90931660208501529015159183019190915260608201526080016103b7565b61045e60055481565b6103e8613bc4565b61076261075d366004615541565b613c22565b6040516103b7919061556f565b610412613d08565b600154604080516001600160a01b0383168152600160a01b90920465ffffffffffff166020830152016103b7565b6104126107b33660046155a6565b613d3e565b6104126107c63660046151cc565b613dad565b6104126107d93660046155e8565b613dd5565b610412613e82565b600c546107fc90610100900464ffffffffff1681565b60405164ffffffffff90911681526020016103b7565b61041261082036600461502b565b613e94565b61045e6108333660046151cc565b601360209081525f928352604080842090915290825290205481565b61041261085d36600461569d565b613ea4565b610875610870366004615262565b613f23565b6040516103b79190615856565b5f6001600160e01b031982166318a4c3c360e11b14806108a657506108a6826143b2565b92915050565b6108b681356143e6565b6108eb5760405162461bcd60e51b81526020600482015260016024820152603360f81b60448201526064015b60405180910390fd5b80355f908152601660209081526040808320815160e0810183528154815260018201549381019390935260028101546001600160a01b0390811692840192909252600380820154928316606085015260ff600160a01b8404811615156080860152919260a0850192600160a81b909104169081111561096c5761096c615042565b600381111561097d5761097d615042565b815260039190910154600160b01b900461ffff1660209182015260608201516001600160a01b03165f90815260199091526040902054909150600160a81b900460ff16156109f25760405162461bcd60e51b8152602060048201526002602482015261032360f41b60448201526064016108e2565b600754823503610a295760405162461bcd60e51b81526020600482015260026024820152610c8d60f21b60448201526064016108e2565b60208181015160608301516001600160a01b03165f90815260199092526040822054610a5f9190600160a01b900460ff16614418565b6060830151604051636eb1769f60e11b815233600482015230602482015291925082916001600160a01b039091169063dd62ed3e90604401602060405180830381865afa158015610ab2573d5f5f3e3d5ffd5b505050506040513d601f19601f82011682018060405250810190610ad691906158aa565b10158015610b4e575060608201516040516370a0823160e01b815233600482015282916001600160a01b0316906370a0823190602401602060405180830381865afa158015610b27573d5f5f3e3d5ffd5b505050506040513d601f19601f82011682018060405250810190610b4b91906158aa565b10155b610b7f5760405162461bcd60e51b8152602060048201526002602482015261031360f41b60448201526064016108e2565b60408201516001600160a01b03163303610bbf5760405162461bcd60e51b81526020600482015260016024820152600360fc1b60448201526064016108e2565b816080015115610bf65760405162461bcd60e51b8152602060048201526002602482015261323360f01b60448201526064016108e2565b81515f908152601560205260409020610c0e9061448a565b5f03610c6057610c5e825f015160145f8560a001516003811115610c3457610c34615042565b815260208082019290925260409081015f90812060c088015161ffff168252909252902090614493565b505b81515f908152601560205260409020610c7990336144a5565b610c985781515f908152601560205260409020610c9690336144c6565b505b81515f908152601760205260409020610cb190336144a5565b15610cd15781515f908152601760205260409020610ccf90336144da565b505b610d1a6040518060800160405280845f015181526020018460c0015161ffff1681526020018460a001516003811115610d0c57610d0c615042565b81526020015f90525f6144ee565b60208201516001808460a001516003811115610d3857610d38615042565b1480610d5857505f8460a001516003811115610d5657610d56615042565b145b15610e115773__$d8070e93ad328db793760a96865bf0924d$__63cf5e4f0c428660c00151858860a001516003811115610d9457610d94615042565b6040516001600160e01b031960e087901b168152600481019490945261ffff9092166024840152604483015260ff166064820152608401602060405180830381865af4158015610de6573d5f5f3e3d5ffd5b505050506040513d601f19601f82011682018060405250810190610e0a91906158aa565b9150610fd1565b60028460a001516003811115610e2957610e29615042565b03610ef35773__$d8070e93ad328db793760a96865bf0924d$__63cf5e4f0c428660c00151858860a001516003811115610e6557610e65615042565b6040516001600160e01b031960e087901b168152600481019490945261ffff9092166024840152604483015260ff166064820152608401602060405180830381865af4158015610eb7573d5f5f3e3d5ffd5b505050506040513d601f19601f82011682018060405250810190610edb91906158aa565b9150610ee86003836158d5565b915060029050610fd1565b60038460a001516003811115610f0b57610f0b615042565b03610fd15773__$d8070e93ad328db793760a96865bf0924d$__63cf5e4f0c428660c00151858860a001516003811115610f4757610f47615042565b6040516001600160e01b031960e087901b168152600481019490945261ffff9092166024840152604483015260ff166064820152608401602060405180830381865af4158015610f99573d5f5f3e3d5ffd5b505050506040513d601f19601f82011682018060405250810190610fbd91906158aa565b9150610fca600c836158d5565b9150600b90505b83515f90815260136020908152604080832033845290915281208054849290610ffb9084906158f4565b92505081905550336001600160a01b031684604001516001600160a01b0316855f01515f516020615d905f395f51905f52428860200151896060015160066040516110499493929190615917565b60405180910390a4336001600160a01b031684604001516001600160a01b0316855f01515f516020615d905f395f51905f524286896060015160086040516110949493929190615917565b60405180910390a460608401516001600160a01b03165f908152601960205260409020546110eb90339030906110d5908690600160a01b900460ff16614418565b60608801516001600160a01b031692919061458c565b60028460a00151600381111561110357611103615042565b1480611124575060038460a00151600381111561112257611122615042565b145b1561116c5761116c3385604001516110d584866111419190615948565b60608901516001600160a01b03165f90815260196020526040902054600160a01b900460ff16614418565b5050505050565b5f61117d816145f3565b6111856145fd565b50565b6001600160a01b0384166111c25760405162461bcd60e51b81526020600482015260016024820152600d60fa1b60448201526064016108e2565b6001600160a01b038085165f908152601960205260409020541661120c5760405162461bcd60e51b81526020600482015260016024820152603560f81b60448201526064016108e2565b6001600160a01b0384165f90815260196020526040902054600160a81b900460ff16156112605760405162461bcd60e51b8152602060048201526002602482015261032360f41b60448201526064016108e2565b5f82600381111561127357611273615042565b036112c1578061ffff165f108015611290575060078161ffff1611155b6112c15760405162461bcd60e51b81526020600482015260026024820152610c4d60f21b60448201526064016108e2565b60018260038111156112d5576112d5615042565b03611323578061ffff165f1080156112f25750601c8161ffff1611155b6113235760405162461bcd60e51b8152602060048201526002602482015261313560f01b60448201526064016108e2565b600282600381111561133757611337615042565b03611385578061ffff165f1080156113545750605a8161ffff1611155b6113855760405162461bcd60e51b8152602060048201526002602482015261189b60f11b60448201526064016108e2565b600382600381111561139957611399615042565b036113e8578061ffff165f1080156113b7575061016d8161ffff1611155b6113e85760405162461bcd60e51b8152602060048201526002602482015261313760f01b60448201526064016108e2565b6001600160a01b0384165f908152601960205260409020600101548510156114375760405162461bcd60e51b8152602060048201526002602482015261062760f31b60448201526064016108e2565b5f61144486868585614609565b90506114906040518060800160405280835f015181526020018360c0015161ffff1681526020018360a00151600381111561148157611481615042565b81526020015f905260016144ee565b80515f9081526016602090815260409182902083518155908301516001820155908201516002820180546001600160a01b039283166001600160a01b031990911617905560608301516003808401805460808701511515600160a01b0274ffffffffffffffffffffffffffffffffffffffffff1990911693909416929092179290921780825560a085015185949390929160ff60a81b191690600160a81b90849081111561154057611540615042565b021790555060c091909101516003909101805461ffff909216600160b01b0261ffff60b01b19909216919091179055805164ffffffffff42169033907f93cda0785d40b289a535b99dc76d4c9cbb6d8146182861ac3ad40509398b18656115a7888061595f565b6115b460208b018b61595f565b6040516115c494939291906159d1565b60405180910390a4805160608201516040515f92339290915f516020615d905f395f51905f52916115fa9142918d918890615917565b60405180910390a4505050505050565b5f611614816145f3565b61271082101580156116285750614e1f8211155b611630575f5ffd5b50600455565b61164081356143e6565b801561167b57506002335f908152600f602090815260408083208535845290915290205460ff16600281111561167857611678615042565b14155b6116ab5760405162461bcd60e51b81526020600482015260016024820152603360f81b60448201526064016108e2565b80355f908152601660209081526040808320815160e0810183528154815260018201549381019390935260028101546001600160a01b0390811692840192909252600380820154928316606085015260ff600160a01b8404811615156080860152919260a0850192600160a81b909104169081111561172c5761172c615042565b600381111561173d5761173d615042565b81526003919091015461ffff600160b01b90910416602091820152335f908152600f825260408082208451835290925220805460ff1916600217905560075490915082359003611798578051611793903361470d565b6117b3565b80515f9081526015602052604090206117b190336144da565b505b336001600160a01b031681604001516001600160a01b0316825f01515f516020615d905f395f51905f52428560200151866060015160076040516117fa9493929190615917565b60405180910390a480515f9081526013602081815260408084203380865290835281852054865186529383528185208186529092528084209390935582840151845160608601519451939492936001600160a01b039092169290915f516020615d905f395f51905f52916118749142918891600490615917565b60405180910390a460408281015160608401516001600160a01b03165f908152601960205291909120546118cd91906118b8908490600160a01b900460ff16614418565b60608501516001600160a01b0316919061477e565b505050565b5f6118dc816145f3565b50600555565b8161190057604051631fe1e13d60e11b815260040160405180910390fd5b61190a82826147af565b5050565b8115801561192957506002546001600160a01b038281169116145b156119c5576001546001600160a01b03811690600160a01b900465ffffffffffff168115158061195f575065ffffffffffff8116155b8061197257504265ffffffffffff821610155b1561199a576040516319ca5ebb60e01b815265ffffffffffff821660048201526024016108e2565b5050600180547fffffffffffff000000000000ffffffffffffffffffffffffffffffffffffffff1690555b61190a82826147d3565b5f6119d9816145f3565b6001600160a01b0384166119eb575f5ffd5b6001600160a01b038085165f908152601960205260409020541615611a365760405162461bcd60e51b81526020600482015260016024820152603160f81b60448201526064016108e2565b50604080516080810182526001600160a01b0394851680825260ff93841660208084019182525f8486018181526060860198895293815260199091529390932091518254935191511515600160a81b0260ff60a81b1992909516600160a01b0274ffffffffffffffffffffffffffffffffffffffffff1990941696169590951791909117939093161782555160019190910155565b611ad582356143e6565b8015611b19575060026001600160a01b0382165f908152600f602090815260408083208635845290915290205460ff166002811115611b1657611b16615042565b14155b611b495760405162461bcd60e51b81526020600482015260016024820152603360f81b60448201526064016108e2565b81355f908152601660209081526040808320815160e0810183528154815260018201549381019390935260028101546001600160a01b0390811692840192909252600380820154928316606085015260ff600160a01b8404811615156080860152919260a0850192600160a81b9091041690811115611bca57611bca615042565b6003811115611bdb57611bdb615042565b815260039190910154600160b01b900461ffff166020918201528151335f908152600e9092526040909120919250611c139190614806565b611c435760405162461bcd60e51b81526020600482015260016024820152600760fb1b60448201526064016108e2565b80515f908152601560205260409020611c5c90836144a5565b8015611c7e575080515f908152601760205260409020611c7c90836144a5565b155b611cae5760405162461bcd60e51b81526020600482015260016024820152603960f81b60448201526064016108e2565b6001600160a01b0382165f908152600f60209081526040808320845184529091529020805460ff1916600217905560075483359003611cf8578051611cf3908361470d565b611d13565b80515f908152601560205260409020611d1190336144da565b505b816001600160a01b031681604001516001600160a01b0316825f01515f516020615d905f395f51905f5242856020015186606001516007604051611d5a9493929190615917565b60405180910390a480515f9081526013602081815260408084206001600160a01b0387811680875291845282862054875187529484528286209186529083528185208590556060860151168452601990915290912054611dcb9084906118b8908490600160a01b900460ff16614418565b50505050565b5f611ddb816145f3565b61190a8261481d565b5f611dee816145f3565b61190a8261488f565b611e0181356143e6565b611e315760405162461bcd60e51b81526020600482015260016024820152603360f81b60448201526064016108e2565b80355f908152601660209081526040808320815160e0810183528154815260018201549381019390935260028101546001600160a01b0390811692840192909252600380820154928316606085015260ff600160a01b8404811615156080860152919260a0850192600160a81b9091041690811115611eb257611eb2615042565b6003811115611ec357611ec3615042565b815260039190910154600160b01b900461ffff1660209091015260408101519091506001600160a01b03163314611f215760405162461bcd60e51b8152602060048201526002602482015261313360f01b60448201526064016108e2565b806080015115611f585760405162461bcd60e51b8152602060048201526002602482015261323360f01b60448201526064016108e2565b335f8181526010602090815260408083208551845282528083208054600160ff199091168117909155855184526016909252808320600301805460ff60a01b1916600160a01b17905584516060860151915193949390925f516020615d905f395f51905f5292611fcc924292889291615917565b60405180910390a45050565b60ff5f5c161561200f5760405162461bcd60e51b8152602060048201526002602482015261313960f01b60448201526064016108e2565b60015f805c60ff19168217905d506040516358a6076b60e11b815264ffffffffff421660048201525f9073__$d8070e93ad328db793760a96865bf0924d$__9063b14c0ed690602401602060405180830381865af4158015612073573d5f5f3e3d5ffd5b505050506040513d601f19601f820116820180604052508101906120979190615a02565b600c5490915064ffffffffff610100909104811690821610156120e05760405162461bcd60e51b81526020600482015260016024820152601b60f91b60448201526064016108e2565b6040805160c0810182525f80825260208201819052918101829052606081018290526080810182905260a0810191909152600190600c5464ffffffffff84811661010090920416146121cf57600c5473__$d8070e93ad328db793760a96865bf0924d$__906353a6d6e29061216490610100900464ffffffffff1662015180615a1d565b6040516001600160e01b031960e084901b16815264ffffffffff909116600482015260240160c060405180830381865af41580156121a4573d5f5f3e3d5ffd5b505050506040513d601f19601f820116820180604052508101906121c89190615a3d565b9050612243565b6040516329d36b7160e11b815242600482015273__$d8070e93ad328db793760a96865bf0924d$__906353a6d6e29060240160c060405180830381865af415801561221c573d5f5f3e3d5ffd5b505050506040513d601f19601f820116820180604052508101906122409190615a3d565b90505b5f5f5b60038111612ee557600b5460ff16158061226f5750600a54811080159061226f5750600b5460ff165b15612ed3575f81612281575060208301515b6001820361228d575082515b6002820361229c575060408301515b600382036122ab575060608301515b5f82815260146020908152604080832061ffff8516845290915281206122d09061448a565b90505b8015612ed057600b5460ff1615806122fa575060095481118015906122fa5750600b5460ff165b15612ebe575f601681612333612311600186615aca565b5f88815260146020908152604080832061ffff8b1684529091529020906148fe565b815260208082019290925260409081015f20815160e0810183528154815260018201549381019390935260028101546001600160a01b0390811692840192909252600380820154928316606085015260ff600160a01b8404811615156080860152919260a0850192600160a81b90910416908111156123b4576123b4615042565b60038111156123c5576123c5615042565b815260039190910154600160b01b900461ffff1660209182015281515f9081526015909152604090209091506123fa9061448a565b5f0361242e5780515f85815260146020908152604080832061ffff88168452909152902061242791614909565b5050612ebe565b5f96508060800151158015612466575060608101516001600160a01b03165f90815260196020526040902054600160a81b900460ff16155b15612e65576040805160a08101825282518152606080840180516001600160a01b03908116602080860191909152868601518216858701529151165f9081526019825293842054600160a01b900460ff16918301829052608083018890528401519192916124d391614418565b90505f81612710600354846124e89190615948565b6124f291906158d5565b6124fc9190615aca565b83515f90815260176020526040812091925090819061251a9061448a565b85515f9081526015602052604090206125329061448a565b61253c9190615aca565b85515f908152601560205260408120919250906125589061448a565b90505b8015612e5a576005548b036126ce576040805160a0810182528751808252602082018490529181018a9052606081018c90526001608090910181905260079190915560088290556009899055600a8b9055600b805460ff199081169092179055600c805490911690819055600160d01b900460ff1615612648575f83612710600454866125e89190615948565b6125f291906158d5565b6125fc9190615aca565b90506126088185615aca565b9350612646600c60069054906101000a90046001600160a01b0316612631838a60600151614418565b60208a01516001600160a01b0316919061477e565b505b61266f3361265a858960600151614418565b60208901516001600160a01b0316919061477e565b600c546040515f81523391610100900464ffffffffff9081169142909116907f90192d7875364a53e351ae63fd2dfef8dc941735b29fb0c504d06a0e21ae602e9060200160405180910390a45050505050505050505050505050612fc4565b60075486511480156126e1575060085481145b156126f457600c805460ff191660011790555b600b5460ff16158061270d5750600c5460ff1615156001145b15612e48575f612736612721600184615aca565b88515f908152601560205260409020906148fe565b87515f90815260176020526040902090915061275290826144a5565b1561275d5750612e48565b6020870151604051636eb1769f60e11b81526001600160a01b0383811660048301523060248301528892169063dd62ed3e90604401602060405180830381865afa1580156127ad573d5f5f3e3d5ffd5b505050506040513d601f19601f820116820180604052508101906127d191906158aa565b1015801561284b575060208701516040516370a0823160e01b81526001600160a01b038381166004830152889216906370a0823190602401602060405180830381865afa158015612824573d5f5f3e3d5ffd5b505050506040513d601f19601f8201168201806040525081019061284891906158aa565b10155b15612b72578b61285a81615add565b9c5050600c60019054906101000a900464ffffffffff1664ffffffffff16875f01517f0c0097fff4bc1b26a833fef6928d7dec93a2ed4a665c3588c6a3270e0e7e3874848c8b608001516040516128c4939291909283526020830191909152604082015260600190565b60405180910390a386515f9081526013602090815260408083206001600160a01b0385168452909152902054851015612a035761290185856158f4565b87515f9081526013602090815260408083206001600160a01b0386168452909152812080549296508792909190612939908490615aca565b92505081905550806001600160a01b031687604001516001600160a01b0316885f01515f516020615d905f395f51905f52428a8c6020015160056040516129839493929190615917565b60405180910390a4806001600160a01b031687604001516001600160a01b0316885f01515f516020615d905f395f51905f52425f8c6020015160026040516129ce9493929190615917565b60405180910390a46129fe818860400151888a602001516001600160a01b031661458c909392919063ffffffff16565b612db0565b86515f9081526013602090815260408083206001600160a01b0385168452909152902054612a3190856158f4565b87515f9081526013602090815260408083206001600160a01b0380871680865291845282852094909455818c01518c51938d0151925195995090949316925f516020615d905f395f51905f5291612a8e9142918d91600890615917565b60405180910390a485600160028d9003612ab857612aad6003836158d5565b915060029050612ad2565b8c600303612ad257612acb600c836158d5565b9150600b90505b88515f9081526013602090815260408083206001600160a01b038716845290915281208054849290612b059084906158f4565b92505081905550612b358330612b1f858d60600151614418565b60208d01516001600160a01b031692919061458c565b8c60021480612b4457508c6003145b15612b6b57612b6b838a60400151612b1f8486612b619190615948565b8d60600151614418565b5050612db0565b8b612b7c81615add565b88515f9081526013602090815260408083206001600160a01b0387168452909152902054909d508610159050612c7b57612bb685856158f4565b87515f9081526013602090815260408083206001600160a01b038616845290915281205491955090612be9908790615aca565b88515f9081526013602090815260408083206001600160a01b0380881680865291845282852094909455818d01518d51938e0151925195965090949316925f516020615d905f395f51905f5291612c469142918891600490615917565b60405180910390a4612c798860400151612c64838b60600151614418565b60208b01516001600160a01b0316919061477e565b505b6001600160a01b0381165f908152600f602090815260408083208a5184528252808320805460ff191660021790558951835260159091529020612cbe90826144da565b50806001600160a01b031687604001516001600160a01b0316885f01515f516020615d905f395f51905f52428a8c602001516007604051612d029493929190615917565b60405180910390a4806001600160a01b031687604001516001600160a01b0316885f01515f516020615d905f395f51905f52425f8c602001516003604051612d4d9493929190615917565b60405180910390a4600c548751608089015160408051868152602081018e90529081019190915261010090920464ffffffffff16917f0c0097fff4bc1b26a833fef6928d7dec93a2ed4a665c3588c6a3270e0e7e38749060600160405180910390a35b816001148015612dbf57505f83115b15612e4657600c54600160d01b900460ff1615612e34575f8461271060045487612de99190615948565b612df391906158d5565b612dfd9190615aca565b9050612e098186615aca565b9450612e32600c60069054906101000a90046001600160a01b0316612c64838b60600151614418565b505b612e4633612631868a60600151614418565b505b80612e5281615af5565b91505061255b565b505050505050612ebc565b806080015115612e985780515f85815260146020908152604080832061ffff881684529091529020612e9691614909565b505b600b5460ff168015612eac57508051600754145b15612ebc57600b805460ff191690555b505b80612ec881615af5565b9150506122d3565b50505b80612edd81615add565b915050612246565b505f600781905560088190556009819055600a55600b805460ff19908116909155600c805490911690819055604051600181523391610100900464ffffffffff9081169142909116907f90192d7875364a53e351ae63fd2dfef8dc941735b29fb0c504d06a0e21ae602e9060200160405180910390a46001600c60018282829054906101000a900464ffffffffff16612f7e9190615b0a565b92506101000a81548164ffffffffff021916908364ffffffffff1602179055508215612fbf575f60ff19815c16815d50612fb6611fd8565b50505050612fc4565b505050505b5f60ff19815c16815d50565b5f612fda816145f3565b50600c805464ffffffffff9092166101000265ffffffffff0019909216919091179055565b5f818152601760205260408120606091906130199061448a565b5f84815260156020526040902061302f9061448a565b6130399190615aca565b90505f8167ffffffffffffffff8111156130555761305561543e565b60405190808252806020026020018201604052801561309957816020015b604080518082019091525f80825260208201528152602001906001900390816130735790505b5090505f5b5f8581526015602052604090206130b49061448a565b8110156131d5575f8581526015602052604090206130f2906130ed906130da90846148fe565b5f888152601760205260409020906144a5565b614914565b5f8581526015602052604090206131209061310d90836148fe565b5f878152601760205260409020906144a5565b6131cd575f85815260136020908152604080832060159092528220829061314790856148fe565b6001600160a01b03166001600160a01b031681526020019081526020015f205490505f60405180604001604052806131988560155f8c81526020019081526020015f206148fe90919063ffffffff16565b6001600160a01b03168152602001838152509050808484815181106131bf576131bf615b27565b602002602001018190525050505b60010161309e565b509392505050565b5f6131e7816145f3565b816007611dcb8282615b3b565b6060808315613224576001600160a01b0383165f908152600d6020526040902061321d90614955565b9050613247565b6001600160a01b0383165f908152600e6020526040902061324490614955565b90505b5f815167ffffffffffffffff8111156132625761326261543e565b6040519080825280602002602001820160405280156132de57816020015b60408051610140810182525f606082018181526080830182905260a0830182905260c0830182905260e0830182905261010083018290526101208301829052825260208083018290529282015282525f199092019101816132805790505b5090505f5b825181101561357057851561338c576001600160a01b0385165f908152600f60205260408120845190919085908490811061332057613320615b27565b602002602001015181526020019081526020015f205f9054906101000a900460ff1682828151811061335457613354615b27565b602002602001015160200190600281111561337157613371615042565b9081600281111561338457613384615042565b905250613422565b6001600160a01b0385165f90815260106020526040812084519091908590849081106133ba576133ba615b27565b602002602001015181526020019081526020015f205f9054906101000a900460ff168282815181106133ee576133ee615b27565b602002602001015160200190600281111561340b5761340b615042565b9081600281111561341e5761341e615042565b9052505b60165f84838151811061343757613437615b27565b60209081029190910181015182528181019290925260409081015f20815160e0810183528154815260018201549381019390935260028101546001600160a01b0390811692840192909252600380820154928316606085015260ff600160a01b8404811615156080860152919260a0850192600160a81b90910416908111156134c2576134c2615042565b60038111156134d3576134d3615042565b815260039190910154600160b01b900461ffff16602090910152825183908390811061350157613501615b27565b60200260200101515f018190525061354760155f84848151811061352757613527615b27565b60200260200101515f01515f015181526020019081526020015f2061448a565b82828151811061355957613559615b27565b6020908102919091010151604001526001016132e3565b50949350505050565b5f61358c6002546001600160a01b031690565b905090565b5f61359b816145f3565b61271082101580156135af5750612a518211155b6135b7575f5ffd5b50600355565b7f1cb0d6461572bd9b725739f1d8ea32d250b0dfcd75c68201355159719c012f806135e7816145f3565b81516135f2906143e6565b6136225760405162461bcd60e51b81526020600482015260016024820152603360f81b60448201526064016108e2565b81515f90815260166020526040902060030154600160a01b900460ff16613647575f5ffd5b81515f90815260156020526040812061365f9061448a565b905080806136945760405162461bcd60e51b8152602060048201526002602482015261191960f11b60448201526064016108e2565b5f60065482106136a6576006546136a8565b815b90505f835b6136b78386615aca565b8111156138db575f6136e26136cd600184615aca565b89515f908152601560205260409020906148fe565b88515f9081526017602052604090209091506136fe90826144a5565b6138ad576001600160a01b038181165f818152600f602090815260408083208d518452825291829020805460ff191660011790558b8201518c51918d015160608e015193519495919091169391925f516020615d905f395f51905f529261376b9242929091600790615917565b60405180910390a487515f9081526013602090815260408083206001600160a01b0385168452909152902054600c54600160d01b900460ff16156137ec575f81612710600454846137bc9190615948565b6137c691906158d5565b6137d09190615aca565b90506137dc8183615aca565b91506137e881866158f4565b9450505b816001600160a01b031689604001516001600160a01b03168a5f01515f516020615d905f395f51905f52428d602001518e6060015160096040516138339493929190615917565b60405180910390a460608901516001600160a01b03165f90815260196020526040902054613887908390613872908490600160a01b900460ff16614418565b60608c01516001600160a01b0316919061477e565b5087515f9081526013602090815260408083206001600160a01b03851684529091528120555b87515f9081526015602052604090206138c690826144da565b505080806138d390615af5565b9150506136ad565b50600c54600160d01b900460ff161561394b57600c5460608701516001600160a01b039081165f9081526019602052604090205461394b926601000000000000900490911690613936908490600160a01b900460ff16614418565b60608901516001600160a01b0316919061477e565b505050505050565b5f61395d816145f3565b50600c8054911515600160d01b0260ff60d01b19909216919091179055565b6002545f90600160d01b900465ffffffffffff1680151580156139a757504265ffffffffffff821610155b6139b2575f5f6139c6565b600254600160a01b900465ffffffffffff16815b915091509091565b7f1cb0d6461572bd9b725739f1d8ea32d250b0dfcd75c68201355159719c012f806139f8816145f3565b613a01826143e6565b613a315760405162461bcd60e51b81526020600482015260016024820152603360f81b60448201526064016108e2565b6007548203613a3e575f5ffd5b5f828152601560205260408120613a549061448a565b90508080613a895760405162461bcd60e51b8152602060048201526002602482015261191960f11b60448201526064016108e2565b5f6006548210613a9b57600654613a9d565b815b5f86815260176020526040812091925090613ab79061448a565b90505b613ac48285615aca565b81111561394b575f613aed613ada600184615aca565b5f898152601760205260409020906148fe565b5f888152601560205260409020909150613b0790826144da565b505f878152601760205260409020613b1f90826144da565b50508080613b2c90615af5565b915050613aba565b5f613b3e816145f3565b6001600160a01b038216613b50575f5ffd5b600c546001600160a01b036601000000000000909104811690831603613b74575f5ffd5b50600c80546001600160a01b039092166601000000000000027fffffffffffff0000000000000000000000000000000000000000ffffffffffff909216919091179055565b5f61358c601161448a565b6002545f90600160d01b900465ffffffffffff168015158015613bee57504265ffffffffffff8216105b613c0957600154600160d01b900465ffffffffffff16613c1c565b600254600160a01b900465ffffffffffff165b91505090565b5f82815260146020908152604080832061ffff85168452909152812060609190613c4b9061448a565b67ffffffffffffffff811115613c6357613c6361543e565b604051908082528060200260200182016040528015613c8c578160200160208202803683370190505b5090505f5b5f85815260146020908152604080832061ffff881684529091529020613cb69061448a565b8110156131d5575f85815260146020908152604080832061ffff881684529091529020613ce390826148fe565b828281518110613cf557613cf5615b27565b6020908102919091010152600101613c91565b6001546001600160a01b0316338114613d3657604051636116401160e11b81523360048201526024016108e2565b611185614961565b335f908152600e60205260409020613d569082614806565b1561190a5764ffffffffff421633827f93cda0785d40b289a535b99dc76d4c9cbb6d8146182861ac3ad40509398b1865613d90868061595f565b613d9d602089018961595f565b604051611fcc94939291906159d1565b81613dcb57604051631fe1e13d60e11b815260040160405180910390fd5b61190a82826149f6565b5f613ddf816145f3565b6001600160a01b038381165f9081526019602052604090205416613e01575f5ffd5b81613e55576001600160a01b0383165f90815260196020526040902054600160a81b900460ff16613e30575f5ffd5b50506001600160a01b03165f908152601960205260409020805460ff60a81b19169055565b6001600160a01b0383165f908152601960205260409020805460ff60a81b1916600160a81b179055505050565b5f613e8c816145f3565b611185614a1a565b5f613e9e816145f3565b50600655565b8051604051613eb39190615b85565b60405180910390204264ffffffffff16336001600160a01b03167f34f43abf7a52b609b04511ed963a29ebb76ae3e0ca0ff5594be1c2a84ebd03f284602001518560400151866060015187608001518860a00151604051613f18959493929190615bc9565b60405180910390a450565b613f4f60405180606001604052805f6001600160a01b0316815260200160608152602001606081525090565b6001600160a01b0382165f908152600d60205260408120613f6f9061448a565b6001600160a01b0384165f908152600e6020526040812091925090613f939061448a565b90505f8267ffffffffffffffff811115613faf57613faf61543e565b60405190808252806020026020018201604052801561400857816020015b613ff5604080516080810182525f80825260208201819052909182019081526020015f905290565b815260200190600190039081613fcd5790505b5090505f5b8381101561418d576001600160a01b0386165f908152600d6020526040812061403690836148fe565b5f818152601660209081526040808320815160e0810183528154815260018201549381019390935260028101546001600160a01b0390811692840192909252600380820154928316606085015260ff600160a01b840481161515608086015295965093949293909260a0850192600160a81b900416908111156140bb576140bb615042565b60038111156140cc576140cc615042565b81526020016003820160169054906101000a900461ffff1661ffff1661ffff1681525050905060405180608001604052808381526020018260c0015161ffff1681526020018260a00151600381111561412757614127615042565b81526001600160a01b038a165f908152600f6020908152604080832087845282529091205491019060ff16600281111561416357614163615042565b81525084848151811061417857614178615b27565b6020908102919091010152505060010161400d565b505f8367ffffffffffffffff8111156141a8576141a861543e565b60405190808252806020026020018201604052801561420157816020015b6141ee604080516080810182525f80825260208201819052909182019081526020015f905290565b8152602001906001900390816141c65790505b5090505f5b83811015614386576001600160a01b0387165f908152600e6020526040812061422f90836148fe565b5f818152601660209081526040808320815160e0810183528154815260018201549381019390935260028101546001600160a01b0390811692840192909252600380820154928316606085015260ff600160a01b840481161515608086015295965093949293909260a0850192600160a81b900416908111156142b4576142b4615042565b60038111156142c5576142c5615042565b81526020016003820160169054906101000a900461ffff1661ffff1661ffff1681525050905060405180608001604052808381526020018260c0015161ffff1681526020018260a00151600381111561432057614320615042565b81526001600160a01b038b165f90815260106020908152604080832087845282529091205491019060ff16600281111561435c5761435c615042565b81525084848151811061437157614371615b27565b60209081029190910101525050600101614206565b50604080516060810182526001600160a01b039097168752602087019290925290850152509192915050565b5f6001600160e01b03198216637965db0b60e01b14806108a657506301ffc9a760e01b6001600160e01b03198316146108a6565b5f818152601660205260408120600201546001600160a01b031661440b57505f919050565b506001919050565b919050565b5f601260ff831681101561444d576144308184615c35565b61443b90600a615d31565b6144459085615948565b9150506108a6565b8060ff168360ff16101561447a576144658382615c35565b61447090600a615d31565b61444590856158d5565b839150506108a6565b5092915050565b5f6108a6825490565b5f61449e8383614a24565b9392505050565b6001600160a01b0381165f908152600183016020526040812054151561449e565b5f61449e836001600160a01b038416614a24565b5f61449e836001600160a01b038416614a70565b6144f96011336144a5565b61450a576145086011336144c6565b505b801561454e578151335f908152600e6020526040902061452991614493565b5050335f9081526010602090815260408083209351835292905220805460ff19169055565b8151335f908152600d6020526040902061456791614493565b5050335f908152600f602090815260408083209351835292905220805460ff19169055565b6040516001600160a01b038481166024830152838116604483015260648201839052611dcb9186918216906323b872dd906084015b604051602081830303815290604052915060e01b6020820180516001600160e01b038381831617835250505050614b53565b6111858133614bbf565b6146075f5f614c11565b565b6040805160e0810182525f8082526020808301829052828401829052606083018290526080830182905260a0830182905260c08301829052338252601890529182208054919282919061465b83615add565b90915550506040516bffffffffffffffffffffffff193360601b166020820152603481018290524260548201525f906074016040516020818303038152906040528051906020012090506040518060e00160405280828152602001888152602001336001600160a01b03168152602001876001600160a01b031681526020015f151581526020018660038111156146f4576146f4615042565b81526020018561ffff1681525092505050949350505050565b5f82815260176020526040902061472490826144a5565b61190a57806001600160a01b0316824264ffffffffff167fe8a3ae62c8b9d8314843e79e6ce12e9ca864bbd513aa26bb9c8844891939691260405160405180910390a45f8281526017602052604090206118cd90826144c6565b6040516001600160a01b038381166024830152604482018390526118cd91859182169063a9059cbb906064016145c1565b5f828152602081905260409020600101546147c9816145f3565b611dcb8383614cd0565b6001600160a01b03811633146147fc5760405163334bd91960e11b815260040160405180910390fd5b6118cd8282614d36565b5f818152600183016020526040812054151561449e565b5f614826613bc4565b61482f42614d72565b6148399190615d3f565b90506148458282614da8565b60405165ffffffffffff821681526001600160a01b038316907f3377dc44241e779dd06afab5b788a35ca5f3b778836e2990bdb26a2a4b2e5ed69060200160405180910390a25050565b5f61489982614e0d565b6148a242614d72565b6148ac9190615d3f565b90506148b88282614c11565b6040805165ffffffffffff8085168252831660208201527ff1038c18cf84a56e432fdbfaf746924b7ea511dfe03a6506a0ceba4888788d9b910160405180910390a15050565b5f61449e8383614e54565b5f61449e8383614a70565b60405181151560248201526111859060440160408051601f198184030181529190526020810180516001600160e01b03166332458eed60e01b179052614e7a565b60605f61449e83614e83565b6001546001600160a01b03811690600160a01b900465ffffffffffff1680158061499357504265ffffffffffff821610155b156149bb576040516319ca5ebb60e01b815265ffffffffffff821660048201526024016108e2565b6149d65f6149d16002546001600160a01b031690565b614d36565b506149e15f83614cd0565b5050600180546001600160d01b031916905550565b5f82815260208190526040902060010154614a10816145f3565b611dcb8383614d36565b6146075f5f614da8565b5f818152600183016020526040812054614a6957508154600181810184555f8481526020808220909301849055845484825282860190935260409020919091556108a6565b505f6108a6565b5f8181526001830160205260408120548015614b4a575f614a92600183615aca565b85549091505f90614aa590600190615aca565b9050808214614b04575f865f018281548110614ac357614ac3615b27565b905f5260205f200154905080875f018481548110614ae357614ae3615b27565b5f918252602080832090910192909255918252600188019052604090208390555b8554869080614b1557614b15615d5d565b600190038181905f5260205f20015f90559055856001015f8681526020019081526020015f205f9055600193505050506108a6565b5f9150506108a6565b5f5f60205f8451602086015f885af180614b72576040513d5f823e3d81fd5b50505f513d91508115614b89578060011415614b96565b6001600160a01b0384163b155b15611dcb57604051635274afe760e01b81526001600160a01b03851660048201526024016108e2565b5f828152602081815260408083206001600160a01b038516845290915290205460ff1661190a5760405163e2517d3f60e01b81526001600160a01b0382166004820152602481018390526044016108e2565b600254600160d01b900465ffffffffffff168015614c93574265ffffffffffff82161015614c6a57600254600180546001600160d01b0316600160a01b90920465ffffffffffff16600160d01b02919091179055614c93565b6040517f2b1fa2edafe6f7b9e97c1a9e0c3660e645beb2dcaa2d45bdbf9beaf5472e1ec5905f90a15b50600280546001600160a01b0316600160a01b65ffffffffffff948516026001600160d01b031617600160d01b9290931691909102919091179055565b5f82614d2c575f614ce96002546001600160a01b031690565b6001600160a01b031614614d1057604051631fe1e13d60e11b815260040160405180910390fd5b600280546001600160a01b0319166001600160a01b0384161790555b61449e8383614edc565b5f82158015614d5257506002546001600160a01b038381169116145b15614d6857600280546001600160a01b03191690555b61449e8383614f7c565b5f65ffffffffffff821115614da4576040516306dfcc6560e41b815260306004820152602481018390526044016108e2565b5090565b60018054600160a01b65ffffffffffff84811682026001600160d01b031984166001600160a01b038816171790935590041680156118cd576040517f8886ebfc4259abdbc16601dd8fb5678e54878f47b3c34836cfc51154a9605109905f90a1505050565b5f5f614e17613bc4565b90508065ffffffffffff168365ffffffffffff1611614e3f57614e3a8382615d71565b61449e565b61449e65ffffffffffff841662069780614ffd565b5f825f018281548110614e6957614e69615b27565b905f5260205f200154905092915050565b6111858161500c565b6060815f01805480602002602001604051908101604052809291908181526020018280548015614ed057602002820191905f5260205f20905b815481526020019060010190808311614ebc575b50505050509050919050565b5f828152602081815260408083206001600160a01b038516845290915281205460ff16614a69575f838152602081815260408083206001600160a01b03861684529091529020805460ff19166001179055614f343390565b6001600160a01b0316826001600160a01b0316847f2f8788117e7eff1d82e926ec794901d17c78024a50270940304540a733656f0d60405160405180910390a45060016108a6565b5f828152602081815260408083206001600160a01b038516845290915281205460ff1615614a69575f838152602081815260408083206001600160a01b0386168085529252808320805460ff1916905551339286917ff6391f5c32d9c69d2a47ea670b442974b53935d1edc7fd64eb21e047a839171b9190a45060016108a6565b5f82821882841002821861449e565b5f6a636f6e736f6c652e6c6f6790505f5f835160208501845afa505050565b5f6020828403121561503b575f5ffd5b5035919050565b634e487b7160e01b5f52602160045260245ffd5b6004811061506657615066615042565b9052565b878152602081018790526001600160a01b03868116604083015285166060820152831515608082015260e081016150a460a0830185615056565b61ffff831660c083015298975050505050505050565b5f602082840312156150ca575f5ffd5b81356001600160e01b03198116811461449e575f5ffd5b5f60e082840312156150f1575f5ffd5b50919050565b5f60e08284031215615107575f5ffd5b61449e83836150e1565b80356001600160a01b0381168114614413575f5ffd5b5f604082840312156150f1575f5ffd5b803560048110614413575f5ffd5b61ffff81168114611185575f5ffd5b5f5f5f5f5f60a08688031215615168575f5ffd5b8535945061517860208701615111565b9350604086013567ffffffffffffffff811115615193575f5ffd5b61519f88828901615127565b9350506151ae60608701615137565b915060808601356151be81615145565b809150509295509295909350565b5f5f604083850312156151dd575f5ffd5b823591506151ed60208401615111565b90509250929050565b5f5f5f60608486031215615208575f5ffd5b61521184615111565b925060208401359150604084013560ff8116811461522d575f5ffd5b809150509250925092565b5f5f610100838503121561524a575f5ffd5b61525484846150e1565b91506151ed60e08401615111565b5f60208284031215615272575f5ffd5b61449e82615111565b5f6020828403121561528b575f5ffd5b813565ffffffffffff8116811461449e575f5ffd5b64ffffffffff81168114611185575f5ffd5b5f602082840312156152c2575f5ffd5b813561449e816152a0565b602080825282518282018190525f918401906040840190835b8181101561531957835180516001600160a01b0316845260209081015181850152909301926040909201916001016152e6565b509095945050505050565b5f60a0828403128015615335575f5ffd5b509092915050565b8015158114611185575f5ffd5b5f5f6040838503121561535b575f5ffd5b82356153668161533d565b91506151ed60208401615111565b6003811061506657615066615042565b602080825282518282018190525f918401906040840190835b81811015615319578351805180518552602081015160208601526001600160a01b0360408201511660408601526001600160a01b03606082015116606086015260808101511515608086015260a08101516153fb60a0870182615056565b5061ffff60c08201511660c086015250602081015161541d60e0860182615374565b5060400151610100840152602093909301926101209092019160010161539d565b634e487b7160e01b5f52604160045260245ffd5b60405160e0810167ffffffffffffffff811182821017156154755761547561543e565b60405290565b60405160c0810167ffffffffffffffff811182821017156154755761547561543e565b5f60e08284031280156154af575f5ffd5b506154b8615452565b82358152602080840135908201526154d260408401615111565b60408201526154e360608401615111565b606082015260808301356154f68161533d565b608082015261550760a08401615137565b60a082015260c083013561551a81615145565b60c08201529392505050565b5f60208284031215615536575f5ffd5b813561449e8161533d565b5f5f60408385031215615552575f5ffd5b82359150602083013561556481615145565b809150509250929050565b602080825282518282018190525f918401906040840190835b81811015615319578351835260209384019390920191600101615588565b5f5f604083850312156155b7575f5ffd5b823567ffffffffffffffff8111156155cd575f5ffd5b6155d985828601615127565b95602094909401359450505050565b5f5f604083850312156155f9575f5ffd5b61560283615111565b915060208301356155648161533d565b5f82601f830112615621575f5ffd5b813567ffffffffffffffff81111561563b5761563b61543e565b604051601f8201601f19908116603f0116810167ffffffffffffffff8111828210171561566a5761566a61543e565b604052818152838201602001851015615681575f5ffd5b816020850160208301375f918101602001919091529392505050565b5f602082840312156156ad575f5ffd5b813567ffffffffffffffff8111156156c3575f5ffd5b820160c081850312156156d4575f5ffd5b6156dc61547b565b813567ffffffffffffffff8111156156f2575f5ffd5b6156fe86828501615612565b825250602082013567ffffffffffffffff81111561571a575f5ffd5b61572686828501615612565b602083015250604082013567ffffffffffffffff811115615745575f5ffd5b61575186828501615612565b604083015250606082013567ffffffffffffffff811115615770575f5ffd5b61577c86828501615612565b606083015250608082013567ffffffffffffffff81111561579b575f5ffd5b6157a786828501615612565b60808301525060a082013567ffffffffffffffff8111156157c6575f5ffd5b6157d286828501615612565b60a083015250949350505050565b5f8151808452602084019350602083015f5b8281101561584c5781518051875261ffff602082015116602088015260408101516158206040890182615056565b50606081015190506158356060880182615374565b5060809590950194602091909101906001016157f2565b5093949350505050565b602081526001600160a01b0382511660208201525f60208301516060604084015261588460808401826157e0565b90506040840151601f198483030160608501526158a182826157e0565b95945050505050565b5f602082840312156158ba575f5ffd5b5051919050565b634e487b7160e01b5f52601160045260245ffd5b5f826158ef57634e487b7160e01b5f52601260045260245ffd5b500490565b808201808211156108a6576108a66158c1565b600a811061506657615066615042565b64ffffffffff85168152602081018490526001600160a01b0383166040820152608081016158a16060830184615907565b80820281158282048414176108a6576108a66158c1565b5f5f8335601e19843603018112615974575f5ffd5b83018035915067ffffffffffffffff82111561598e575f5ffd5b6020019150368190038213156159a2575f5ffd5b9250929050565b81835281816020850137505f828201602090810191909152601f909101601f19169091010190565b604081525f6159e46040830186886159a9565b82810360208401526159f78185876159a9565b979650505050505050565b5f60208284031215615a12575f5ffd5b815161449e816152a0565b64ffffffffff8181168382160290811690818114614483576144836158c1565b5f60c0828403128015615a4e575f5ffd5b50615a5761547b565b8251615a6281615145565b81526020830151615a7281615145565b60208201526040830151615a8581615145565b60408201526060830151615a9881615145565b60608201526080830151615aab81615145565b608082015260a0830151615abe81615145565b60a08201529392505050565b818103818111156108a6576108a66158c1565b5f60018201615aee57615aee6158c1565b5060010190565b5f81615b0357615b036158c1565b505f190190565b64ffffffffff81811683821601908111156108a6576108a66158c1565b634e487b7160e01b5f52603260045260245ffd5b81358155602082013560018201556040820135600282015560608201356003820155600481016080830135615b6f8161533d565b815490151560ff1660ff19919091161790555050565b5f82518060208501845e5f920191825250919050565b5f81518084528060208401602086015e5f602082860101526020601f19601f83011685010191505092915050565b60a081525f615bdb60a0830188615b9b565b8281036020840152615bed8188615b9b565b90508281036040840152615c018187615b9b565b90508281036060840152615c158186615b9b565b90508281036080840152615c298185615b9b565b98975050505050505050565b60ff82811682821603908111156108a6576108a66158c1565b6001815b6001841115615c8957808504811115615c6d57615c6d6158c1565b6001841615615c7b57908102905b60019390931c928002615c52565b935093915050565b5f82615c9f575060016108a6565b81615cab57505f6108a6565b8160018114615cc15760028114615ccb57615ce7565b60019150506108a6565b60ff841115615cdc57615cdc6158c1565b50506001821b6108a6565b5060208310610133831016604e8410600b8410161715615d0a575081810a6108a6565b615d165f198484615c4e565b805f1904821115615d2957615d296158c1565b029392505050565b5f61449e60ff841683615c91565b65ffffffffffff81811683821601908111156108a6576108a66158c1565b634e487b7160e01b5f52603160045260245ffd5b65ffffffffffff82811682821603908111156108a6576108a66158c156feca6b824caf1a48ea2ad039dbb063460fa30e9c3cc255eeb52240d638ec6de65ea2646970667358221220728326f0cff5be9d9b583d62cb8374075f420fa2cf08cd19d17ac352ce14c1f564736f6c634300081c0033",
  "linkReferences": {
    "contracts/ClockTowerTimeLibrary.sol": {
      "ClockTowerTimeLibrary": [
        {
          "length": 20,
          "start": 333
        },
        {
          "length": 20,
          "start": 4456
        },
        {
          "length": 20,
          "start": 4665
        },
        {
          "length": 20,
          "start": 4891
        },
        {
          "length": 20,
          "start": 9284
        },
        {
          "length": 20,
          "start": 9530
        },
        {
          "length": 20,
          "start": 9709
        }
      ]
    }
  },
  "deployedLinkReferences": {
    "contracts/ClockTowerTimeLibrary.sol": {
      "ClockTowerTimeLibrary": [
        {
          "length": 20,
          "start": 3423
        },
        {
          "length": 20,
          "start": 3632
        },
        {
          "length": 20,
          "start": 3858
        },
        {
          "length": 20,
          "start": 8251
        },
        {
          "length": 20,
          "start": 8497
        },
        {
          "length": 20,
          "start": 8676
        }
      ]
    }
  }
}