{
  "_format": "hh-sol-artifact-1",
  "contractName": "ClockTowerSubscribe",
  "sourceName": "contracts/ClockTowerSubscribe.sol",
  "abi": [
    {
      "inputs": [],
      "stateMutability": "payable",
      "type": "constructor"
    },
    {
      "anonymous": false,
      "inputs": [
        {
          "indexed": false,
          "internalType": "uint40",
          "name": "timestamp",
          "type": "uint40"
        },
        {
          "indexed": false,
          "internalType": "uint40",
          "name": "checkedDay",
          "type": "uint40"
        },
        {
          "indexed": true,
          "internalType": "address",
          "name": "caller",
          "type": "address"
        },
        {
          "indexed": false,
          "internalType": "bool",
          "name": "isFinished",
          "type": "bool"
        }
      ],
      "name": "CallerLog",
      "type": "event"
    },
    {
      "anonymous": false,
      "inputs": [
        {
          "indexed": true,
          "internalType": "bytes32",
          "name": "id",
          "type": "bytes32"
        },
        {
          "indexed": true,
          "internalType": "address",
          "name": "provider",
          "type": "address"
        },
        {
          "indexed": false,
          "internalType": "uint40",
          "name": "timestamp",
          "type": "uint40"
        },
        {
          "indexed": false,
          "internalType": "bool",
          "name": "success",
          "type": "bool"
        },
        {
          "indexed": false,
          "internalType": "uint8",
          "name": "errorCode",
          "type": "uint8"
        },
        {
          "indexed": true,
          "internalType": "enum ClockTowerSubscribe.ProvEvent",
          "name": "provEvent",
          "type": "uint8"
        }
      ],
      "name": "ProviderLog",
      "type": "event"
    },
    {
      "anonymous": false,
      "inputs": [
        {
          "indexed": true,
          "internalType": "bytes32",
          "name": "id",
          "type": "bytes32"
        },
        {
          "indexed": true,
          "internalType": "address",
          "name": "subscriber",
          "type": "address"
        },
        {
          "indexed": false,
          "internalType": "uint40",
          "name": "timestamp",
          "type": "uint40"
        },
        {
          "indexed": false,
          "internalType": "uint256",
          "name": "amount",
          "type": "uint256"
        },
        {
          "indexed": true,
          "internalType": "enum ClockTowerSubscribe.SubEvent",
          "name": "subEvent",
          "type": "uint8"
        }
      ],
      "name": "SubscriberLog",
      "type": "event"
    },
    {
      "stateMutability": "payable",
      "type": "fallback"
    },
    {
      "inputs": [
        {
          "internalType": "address",
          "name": "erc20Contract",
          "type": "address"
        }
      ],
      "name": "addERC20Contract",
      "outputs": [],
      "stateMutability": "nonpayable",
      "type": "function"
    },
    {
      "inputs": [],
      "name": "admin",
      "outputs": [
        {
          "internalType": "address",
          "name": "",
          "type": "address"
        }
      ],
      "stateMutability": "view",
      "type": "function"
    },
    {
      "inputs": [],
      "name": "allowExternalCallers",
      "outputs": [
        {
          "internalType": "bool",
          "name": "",
          "type": "bool"
        }
      ],
      "stateMutability": "view",
      "type": "function"
    },
    {
      "inputs": [],
      "name": "callerFee",
      "outputs": [
        {
          "internalType": "uint256",
          "name": "",
          "type": "uint256"
        }
      ],
      "stateMutability": "view",
      "type": "function"
    },
    {
      "inputs": [
        {
          "components": [
            {
              "internalType": "bytes32",
              "name": "id",
              "type": "bytes32"
            },
            {
              "internalType": "uint256",
              "name": "amount",
              "type": "uint256"
            },
            {
              "internalType": "address",
              "name": "provider",
              "type": "address"
            },
            {
              "internalType": "address",
              "name": "token",
              "type": "address"
            },
            {
              "internalType": "bool",
              "name": "exists",
              "type": "bool"
            },
            {
              "internalType": "bool",
              "name": "cancelled",
              "type": "bool"
            },
            {
              "internalType": "enum ClockTowerSubscribe.Frequency",
              "name": "frequency",
              "type": "uint8"
            },
            {
              "internalType": "uint16",
              "name": "dueDay",
              "type": "uint16"
            },
            {
              "internalType": "string",
              "name": "description",
              "type": "string"
            }
          ],
          "internalType": "struct ClockTowerSubscribe.Subscription",
          "name": "subscription",
          "type": "tuple"
        }
      ],
      "name": "cancelSubscription",
      "outputs": [],
      "stateMutability": "nonpayable",
      "type": "function"
    },
    {
      "inputs": [
        {
          "internalType": "address",
          "name": "newAddress",
          "type": "address"
        }
      ],
      "name": "changeAdmin",
      "outputs": [],
      "stateMutability": "nonpayable",
      "type": "function"
    },
    {
      "inputs": [
        {
          "internalType": "uint256",
          "name": "_fee",
          "type": "uint256"
        }
      ],
      "name": "changeCallerFee",
      "outputs": [],
      "stateMutability": "nonpayable",
      "type": "function"
    },
    {
      "inputs": [
        {
          "internalType": "uint256",
          "name": "_maxGas",
          "type": "uint256"
        }
      ],
      "name": "changeMaxGasPrice",
      "outputs": [],
      "stateMutability": "nonpayable",
      "type": "function"
    },
    {
      "inputs": [
        {
          "internalType": "uint256",
          "name": "_maxRemits",
          "type": "uint256"
        }
      ],
      "name": "changeMaxRemits",
      "outputs": [],
      "stateMutability": "nonpayable",
      "type": "function"
    },
    {
      "inputs": [
        {
          "internalType": "uint256",
          "name": "_fixed_fee",
          "type": "uint256"
        }
      ],
      "name": "changeSystemFee",
      "outputs": [],
      "stateMutability": "nonpayable",
      "type": "function"
    },
    {
      "inputs": [
        {
          "internalType": "uint256",
          "name": "amount",
          "type": "uint256"
        },
        {
          "internalType": "address",
          "name": "token",
          "type": "address"
        },
        {
          "internalType": "string",
          "name": "description",
          "type": "string"
        },
        {
          "internalType": "enum ClockTowerSubscribe.Frequency",
          "name": "frequency",
          "type": "uint8"
        },
        {
          "internalType": "uint16",
          "name": "dueDay",
          "type": "uint16"
        }
      ],
      "name": "createSubscription",
      "outputs": [],
      "stateMutability": "payable",
      "type": "function"
    },
    {
      "inputs": [
        {
          "internalType": "bytes32",
          "name": "",
          "type": "bytes32"
        },
        {
          "internalType": "address",
          "name": "",
          "type": "address"
        }
      ],
      "name": "feeBalance",
      "outputs": [
        {
          "internalType": "uint256",
          "name": "",
          "type": "uint256"
        }
      ],
      "stateMutability": "view",
      "type": "function"
    },
    {
      "inputs": [],
      "name": "feeEstimate",
      "outputs": [
        {
          "components": [
            {
              "internalType": "uint256",
              "name": "fee",
              "type": "uint256"
            },
            {
              "internalType": "address",
              "name": "token",
              "type": "address"
            }
          ],
          "internalType": "struct ClockTowerSubscribe.FeeEstimate[]",
          "name": "",
          "type": "tuple[]"
        }
      ],
      "stateMutability": "view",
      "type": "function"
    },
    {
      "inputs": [
        {
          "internalType": "bool",
          "name": "bySubscriber",
          "type": "bool"
        }
      ],
      "name": "getAccountSubscriptions",
      "outputs": [
        {
          "components": [
            {
              "components": [
                {
                  "internalType": "bytes32",
                  "name": "id",
                  "type": "bytes32"
                },
                {
                  "internalType": "uint256",
                  "name": "amount",
                  "type": "uint256"
                },
                {
                  "internalType": "address",
                  "name": "provider",
                  "type": "address"
                },
                {
                  "internalType": "address",
                  "name": "token",
                  "type": "address"
                },
                {
                  "internalType": "bool",
                  "name": "exists",
                  "type": "bool"
                },
                {
                  "internalType": "bool",
                  "name": "cancelled",
                  "type": "bool"
                },
                {
                  "internalType": "enum ClockTowerSubscribe.Frequency",
                  "name": "frequency",
                  "type": "uint8"
                },
                {
                  "internalType": "uint16",
                  "name": "dueDay",
                  "type": "uint16"
                },
                {
                  "internalType": "string",
                  "name": "description",
                  "type": "string"
                }
              ],
              "internalType": "struct ClockTowerSubscribe.Subscription",
              "name": "subscription",
              "type": "tuple"
            },
            {
              "internalType": "enum ClockTowerSubscribe.Status",
              "name": "status",
              "type": "uint8"
            },
            {
              "internalType": "uint256",
              "name": "totalSubscribers",
              "type": "uint256"
            }
          ],
          "internalType": "struct ClockTowerSubscribe.SubView[]",
          "name": "",
          "type": "tuple[]"
        }
      ],
      "stateMutability": "view",
      "type": "function"
    },
    {
      "inputs": [],
      "name": "getAllAccounts",
      "outputs": [
        {
          "components": [
            {
              "internalType": "address",
              "name": "accountAddress",
              "type": "address"
            },
            {
              "internalType": "bool",
              "name": "exists",
              "type": "bool"
            },
            {
              "internalType": "uint40[]",
              "name": "timeTriggers",
              "type": "uint40[]"
            },
            {
              "components": [
                {
                  "internalType": "bytes32",
                  "name": "id",
                  "type": "bytes32"
                },
                {
                  "internalType": "uint16",
                  "name": "dueDay",
                  "type": "uint16"
                },
                {
                  "internalType": "enum ClockTowerSubscribe.Frequency",
                  "name": "frequency",
                  "type": "uint8"
                },
                {
                  "internalType": "enum ClockTowerSubscribe.Status",
                  "name": "status",
                  "type": "uint8"
                }
              ],
              "internalType": "struct ClockTowerSubscribe.SubIndex[]",
              "name": "subscriptions",
              "type": "tuple[]"
            },
            {
              "components": [
                {
                  "internalType": "bytes32",
                  "name": "id",
                  "type": "bytes32"
                },
                {
                  "internalType": "uint16",
                  "name": "dueDay",
                  "type": "uint16"
                },
                {
                  "internalType": "enum ClockTowerSubscribe.Frequency",
                  "name": "frequency",
                  "type": "uint8"
                },
                {
                  "internalType": "enum ClockTowerSubscribe.Status",
                  "name": "status",
                  "type": "uint8"
                }
              ],
              "internalType": "struct ClockTowerSubscribe.SubIndex[]",
              "name": "provSubs",
              "type": "tuple[]"
            }
          ],
          "internalType": "struct ClockTowerSubscribe.Account[]",
          "name": "",
          "type": "tuple[]"
        }
      ],
      "stateMutability": "view",
      "type": "function"
    },
    {
      "inputs": [],
      "name": "getFee",
      "outputs": [
        {
          "internalType": "uint256",
          "name": "",
          "type": "uint256"
        }
      ],
      "stateMutability": "view",
      "type": "function"
    },
    {
      "inputs": [
        {
          "internalType": "bytes32",
          "name": "id",
          "type": "bytes32"
        },
        {
          "internalType": "enum ClockTowerSubscribe.Frequency",
          "name": "frequency",
          "type": "uint8"
        },
        {
          "internalType": "uint16",
          "name": "dueDay",
          "type": "uint16"
        }
      ],
      "name": "getSubByIndex",
      "outputs": [
        {
          "components": [
            {
              "internalType": "bytes32",
              "name": "id",
              "type": "bytes32"
            },
            {
              "internalType": "uint256",
              "name": "amount",
              "type": "uint256"
            },
            {
              "internalType": "address",
              "name": "provider",
              "type": "address"
            },
            {
              "internalType": "address",
              "name": "token",
              "type": "address"
            },
            {
              "internalType": "bool",
              "name": "exists",
              "type": "bool"
            },
            {
              "internalType": "bool",
              "name": "cancelled",
              "type": "bool"
            },
            {
              "internalType": "enum ClockTowerSubscribe.Frequency",
              "name": "frequency",
              "type": "uint8"
            },
            {
              "internalType": "uint16",
              "name": "dueDay",
              "type": "uint16"
            },
            {
              "internalType": "string",
              "name": "description",
              "type": "string"
            }
          ],
          "internalType": "struct ClockTowerSubscribe.Subscription",
          "name": "subscription",
          "type": "tuple"
        }
      ],
      "stateMutability": "view",
      "type": "function"
    },
    {
      "inputs": [
        {
          "internalType": "bytes32",
          "name": "id",
          "type": "bytes32"
        }
      ],
      "name": "getSubscribers",
      "outputs": [
        {
          "internalType": "address[]",
          "name": "",
          "type": "address[]"
        }
      ],
      "stateMutability": "view",
      "type": "function"
    },
    {
      "inputs": [
        {
          "internalType": "bytes32",
          "name": "id",
          "type": "bytes32"
        }
      ],
      "name": "getSubscribersById",
      "outputs": [
        {
          "components": [
            {
              "internalType": "address",
              "name": "subscriber",
              "type": "address"
            },
            {
              "internalType": "uint256",
              "name": "feeBalance",
              "type": "uint256"
            }
          ],
          "internalType": "struct ClockTowerSubscribe.SubscriberView[]",
          "name": "",
          "type": "tuple[]"
        }
      ],
      "stateMutability": "view",
      "type": "function"
    },
    {
      "inputs": [
        {
          "internalType": "bool",
          "name": "bySubscriber",
          "type": "bool"
        },
        {
          "internalType": "address",
          "name": "account",
          "type": "address"
        }
      ],
      "name": "getSubscriptionsByAccount",
      "outputs": [
        {
          "components": [
            {
              "components": [
                {
                  "internalType": "bytes32",
                  "name": "id",
                  "type": "bytes32"
                },
                {
                  "internalType": "uint256",
                  "name": "amount",
                  "type": "uint256"
                },
                {
                  "internalType": "address",
                  "name": "provider",
                  "type": "address"
                },
                {
                  "internalType": "address",
                  "name": "token",
                  "type": "address"
                },
                {
                  "internalType": "bool",
                  "name": "exists",
                  "type": "bool"
                },
                {
                  "internalType": "bool",
                  "name": "cancelled",
                  "type": "bool"
                },
                {
                  "internalType": "enum ClockTowerSubscribe.Frequency",
                  "name": "frequency",
                  "type": "uint8"
                },
                {
                  "internalType": "uint16",
                  "name": "dueDay",
                  "type": "uint16"
                },
                {
                  "internalType": "string",
                  "name": "description",
                  "type": "string"
                }
              ],
              "internalType": "struct ClockTowerSubscribe.Subscription",
              "name": "subscription",
              "type": "tuple"
            },
            {
              "internalType": "enum ClockTowerSubscribe.Status",
              "name": "status",
              "type": "uint8"
            },
            {
              "internalType": "uint256",
              "name": "totalSubscribers",
              "type": "uint256"
            }
          ],
          "internalType": "struct ClockTowerSubscribe.SubView[]",
          "name": "",
          "type": "tuple[]"
        }
      ],
      "stateMutability": "view",
      "type": "function"
    },
    {
      "inputs": [],
      "name": "lastCheckedDay",
      "outputs": [
        {
          "internalType": "uint40",
          "name": "",
          "type": "uint40"
        }
      ],
      "stateMutability": "view",
      "type": "function"
    },
    {
      "inputs": [],
      "name": "maxGasPrice",
      "outputs": [
        {
          "internalType": "uint256",
          "name": "",
          "type": "uint256"
        }
      ],
      "stateMutability": "view",
      "type": "function"
    },
    {
      "inputs": [],
      "name": "maxRemits",
      "outputs": [
        {
          "internalType": "uint256",
          "name": "",
          "type": "uint256"
        }
      ],
      "stateMutability": "view",
      "type": "function"
    },
    {
      "inputs": [],
      "name": "pageGo",
      "outputs": [
        {
          "internalType": "bool",
          "name": "",
          "type": "bool"
        }
      ],
      "stateMutability": "view",
      "type": "function"
    },
    {
      "inputs": [],
      "name": "remit",
      "outputs": [],
      "stateMutability": "nonpayable",
      "type": "function"
    },
    {
      "inputs": [
        {
          "internalType": "address",
          "name": "erc20Contract",
          "type": "address"
        }
      ],
      "name": "removeERC20Contract",
      "outputs": [],
      "stateMutability": "nonpayable",
      "type": "function"
    },
    {
      "inputs": [
        {
          "internalType": "bool",
          "name": "status",
          "type": "bool"
        }
      ],
      "name": "setExternalCallers",
      "outputs": [],
      "stateMutability": "nonpayable",
      "type": "function"
    },
    {
      "inputs": [],
      "name": "stopped",
      "outputs": [
        {
          "internalType": "bool",
          "name": "",
          "type": "bool"
        }
      ],
      "stateMutability": "view",
      "type": "function"
    },
    {
      "inputs": [
        {
          "components": [
            {
              "internalType": "bytes32",
              "name": "id",
              "type": "bytes32"
            },
            {
              "internalType": "uint256",
              "name": "amount",
              "type": "uint256"
            },
            {
              "internalType": "address",
              "name": "provider",
              "type": "address"
            },
            {
              "internalType": "address",
              "name": "token",
              "type": "address"
            },
            {
              "internalType": "bool",
              "name": "exists",
              "type": "bool"
            },
            {
              "internalType": "bool",
              "name": "cancelled",
              "type": "bool"
            },
            {
              "internalType": "enum ClockTowerSubscribe.Frequency",
              "name": "frequency",
              "type": "uint8"
            },
            {
              "internalType": "uint16",
              "name": "dueDay",
              "type": "uint16"
            },
            {
              "internalType": "string",
              "name": "description",
              "type": "string"
            }
          ],
          "internalType": "struct ClockTowerSubscribe.Subscription",
          "name": "subscription",
          "type": "tuple"
        }
      ],
      "name": "subscribe",
      "outputs": [],
      "stateMutability": "payable",
      "type": "function"
    },
    {
      "inputs": [],
      "name": "systemFee",
      "outputs": [
        {
          "internalType": "uint256",
          "name": "",
          "type": "uint256"
        }
      ],
      "stateMutability": "view",
      "type": "function"
    },
    {
      "inputs": [],
      "name": "toggleContractActive",
      "outputs": [],
      "stateMutability": "nonpayable",
      "type": "function"
    },
    {
      "inputs": [
        {
          "internalType": "uint256",
          "name": "unix",
          "type": "uint256"
        }
      ],
      "name": "unixToTime",
      "outputs": [
        {
          "components": [
            {
              "internalType": "uint16",
              "name": "day",
              "type": "uint16"
            },
            {
              "internalType": "uint16",
              "name": "weekDay",
              "type": "uint16"
            },
            {
              "internalType": "uint16",
              "name": "quarterDay",
              "type": "uint16"
            },
            {
              "internalType": "uint16",
              "name": "yearDay",
              "type": "uint16"
            }
          ],
          "internalType": "struct ClockTowerSubscribe.Time",
          "name": "time",
          "type": "tuple"
        }
      ],
      "stateMutability": "pure",
      "type": "function"
    },
    {
      "inputs": [
        {
          "components": [
            {
              "internalType": "bytes32",
              "name": "id",
              "type": "bytes32"
            },
            {
              "internalType": "uint256",
              "name": "amount",
              "type": "uint256"
            },
            {
              "internalType": "address",
              "name": "provider",
              "type": "address"
            },
            {
              "internalType": "address",
              "name": "token",
              "type": "address"
            },
            {
              "internalType": "bool",
              "name": "exists",
              "type": "bool"
            },
            {
              "internalType": "bool",
              "name": "cancelled",
              "type": "bool"
            },
            {
              "internalType": "enum ClockTowerSubscribe.Frequency",
              "name": "frequency",
              "type": "uint8"
            },
            {
              "internalType": "uint16",
              "name": "dueDay",
              "type": "uint16"
            },
            {
              "internalType": "string",
              "name": "description",
              "type": "string"
            }
          ],
          "internalType": "struct ClockTowerSubscribe.Subscription",
          "name": "subscription",
          "type": "tuple"
        }
      ],
      "name": "unsubscribe",
      "outputs": [],
      "stateMutability": "payable",
      "type": "function"
    },
    {
      "inputs": [
        {
          "components": [
            {
              "internalType": "bytes32",
              "name": "id",
              "type": "bytes32"
            },
            {
              "internalType": "uint256",
              "name": "amount",
              "type": "uint256"
            },
            {
              "internalType": "address",
              "name": "provider",
              "type": "address"
            },
            {
              "internalType": "address",
              "name": "token",
              "type": "address"
            },
            {
              "internalType": "bool",
              "name": "exists",
              "type": "bool"
            },
            {
              "internalType": "bool",
              "name": "cancelled",
              "type": "bool"
            },
            {
              "internalType": "enum ClockTowerSubscribe.Frequency",
              "name": "frequency",
              "type": "uint8"
            },
            {
              "internalType": "uint16",
              "name": "dueDay",
              "type": "uint16"
            },
            {
              "internalType": "string",
              "name": "description",
              "type": "string"
            }
          ],
          "internalType": "struct ClockTowerSubscribe.Subscription",
          "name": "subscription",
          "type": "tuple"
        },
        {
          "internalType": "address",
          "name": "subscriber",
          "type": "address"
        }
      ],
      "name": "unsubscribeByProvider",
      "outputs": [],
      "stateMutability": "nonpayable",
      "type": "function"
    },
    {
      "stateMutability": "payable",
      "type": "receive"
    }
  ],
  "bytecode": "0x60806040526127d8600055662386f26fc100006001908155640ba43b740060025560056003556007805461ff00191690556200003b426200009f565b620000479190620000b6565b6007805462010000600160d81b0319166201000064ffffffffff9390931692909202600160381b600160d81b031916919091177af39fd6e51aad88f6f4ce6ab8827279cfffb92266000000000000001790556200011e565b6000620000b06201518083620000eb565b92915050565b600064ffffffffff83811690831681811015620000e357634e487b7160e01b600052601160045260246000fd5b039392505050565b600064ffffffffff808416806200011257634e487b7160e01b600052601260045260246000fd5b92169190910492915050565b615f43806200012e6000396000f3fe6080604052600436106101e55760003560e01c806375f12b2111610101578063b4761de91161009a578063ced72f871161006c578063ced72f87146105e1578063e63d35be146105f6578063ebec6eaa14610618578063f851a44014610650578063fedce9401461069357005b8063b4761de91461055d578063bfa0caa71461057d578063cab1c965146105aa578063cb414ce2146105c057005b8063a2349caf116100d3578063a2349caf146104ea578063a429131a1461050a578063a5af2abd1461051d578063ab7e09091461053d57005b806375f12b211461045e5780637bbf5a6e1461047d5780638ef0ef1c146104aa5780638f283970146104ca57005b806327ea97731161017e5780633816377e116101505780633816377e146103885780633de39c11146103a857806353a6d6e2146103be5780636605ac0d1461041c5780637507ba391461044957005b806327ea9773146103125780632d23f7e7146103325780633084f79e1461035f57806334d441d01461037257005b80630bec99e8116101b75780630bec99e81461028f5780630c39116b146102af5780631385d24c146102d95780631f17ee55146102ee57005b806304c266bc146101ee578063053149fa1461022d57806308e93d0a1461024d578063094f99771461026f57005b366101ec57005b005b3480156101fa57600080fd5b506007546102129062010000900464ffffffffff1681565b60405164ffffffffff90911681526020015b60405180910390f35b34801561023957600080fd5b506101ec610248366004615328565b6106a6565b34801561025957600080fd5b5061026261088e565b60405161022491906153f9565b34801561027b57600080fd5b506101ec61028a3660046154ec565b610c57565b34801561029b57600080fd5b506101ec6102aa366004615528565b61157e565b3480156102bb57600080fd5b506007546102c99060ff1681565b6040519015158152602001610224565b3480156102e557600080fd5b506101ec61158b565b3480156102fa57600080fd5b5061030460015481565b604051908152602001610224565b34801561031e57600080fd5b506101ec61032d366004615528565b6115b0565b34801561033e57600080fd5b5061035261034d366004615562565b6115bd565b60405161022491906156aa565b6101ec61036d3660046156bd565b611844565b34801561037e57600080fd5b5061030460005481565b34801561039457600080fd5b506101ec6103a3366004615528565b611dbe565b3480156103b457600080fd5b5061030460025481565b3480156103ca57600080fd5b506103de6103d9366004615528565b611dcb565b6040516102249190815161ffff9081168252602080840151821690830152604080840151821690830152606092830151169181019190915260800190565b34801561042857600080fd5b5061043c610437366004615783565b61202d565b60405161022491906157a0565b34801561045557600080fd5b506101ec61242e565b34801561046a57600080fd5b506007546102c990610100900460ff1681565b34801561048957600080fd5b5061049d610498366004615528565b612f3b565b604051610224919061582a565b3480156104b657600080fd5b506101ec6104c5366004615528565b613134565b3480156104d657600080fd5b506101ec6104e5366004615328565b613141565b3480156104f657600080fd5b506101ec610505366004615a14565b6131b7565b6101ec6105183660046154ec565b6134d3565b34801561052957600080fd5b5061043c610538366004615a62565b613cd7565b34801561054957600080fd5b506101ec610558366004615328565b6140a9565b34801561056957600080fd5b506101ec610578366004615783565b614150565b34801561058957600080fd5b5061059d610598366004615528565b614176565b6040516102249190615a8e565b3480156105b657600080fd5b5061030460035481565b3480156105cc57600080fd5b506007546102c990600160d81b900460ff1681565b3480156105ed57600080fd5b50600054610304565b34801561060257600080fd5b5061060b6141e2565b6040516102249190615adb565b34801561062457600080fd5b50610304610633366004615b26565b600a60209081526000928352604080842090915290825290205481565b34801561065c57600080fd5b5060075461067b9067010000000000000090046001600160a01b031681565b6040516001600160a01b039091168152602001610224565b6101ec6106a1366004615b49565b6146f9565b6106ae614a68565b6001600160a01b0381166106c157600080fd5b6106ca81614ab4565b6106ff5760405162461bcd60e51b81526020600482015260016024820152601960f91b60448201526064015b60405180910390fd5b6000600680548060200260200160405190810160405280929190818152602001828054801561075757602002820191906000526020600020905b81546001600160a01b03168152600190910190602001808311610739575b505050505090506000805b82518110156107b857836001600160a01b031683828151811061078757610787615b7e565b60200260200101516001600160a01b031614156107a6578091506107b8565b806107b081615baa565b915050610762565b50805b6006546107ca90600190615bc5565b8110156108555760066107de826001615bdc565b815481106107ee576107ee615b7e565b600091825260209091200154600680546001600160a01b03909216918390811061081a5761081a615b7e565b600091825260209091200180546001600160a01b0319166001600160a01b03929092169190911790558061084d81615baa565b9150506107bb565b50600680548061086757610867615bf4565b600082815260209020810160001990810180546001600160a01b0319169055019055505050565b6060610898614a68565b600060098054806020026020016040519081016040528092919081815260200182805480156108f057602002820191906000526020600020905b81546001600160a01b031681526001909101906020018083116108d2575b505050505090506000815167ffffffffffffffff81111561091357610913615882565b60405190808252806020026020018201604052801561096e57816020015b6040805160a08101825260008082526020820152606091810182905281810182905260808101919091528152602001906001900390816109315790505b50905060005b8251811015610c50576008600084838151811061099357610993615b7e565b6020908102919091018101516001600160a01b039081168352828201939093526040918201600020825160a08101845281549485168152600160a01b90940460ff1615158483015260018101805484518185028101850186528181529294860193830182828015610a5157602002820191906000526020600020906000905b82829054906101000a900464ffffffffff1664ffffffffff1681526020019060050190602082600401049283019260010382029150808411610a125790505b5050505050815260200160028201805480602002602001604051908101604052809291908181526020016000905b82821015610b35576000848152602090819020604080516080810182526002860290920180548352600181015461ffff81169484019490945291929083019062010000900460ff166003811115610ad857610ad861534a565b6003811115610ae957610ae961534a565b81526020016001820160039054906101000a900460ff166002811115610b1157610b1161534a565b6002811115610b2257610b2261534a565b8152505081526020019060010190610a7f565b50505050815260200160038201805480602002602001604051908101604052809291908181526020016000905b82821015610c18576000848152602090819020604080516080810182526002860290920180548352600181015461ffff81169484019490945291929083019062010000900460ff166003811115610bbb57610bbb61534a565b6003811115610bcc57610bcc61534a565b81526020016001820160039054906101000a900460ff166002811115610bf457610bf461534a565b6002811115610c0557610c0561534a565b8152505081526020019060010190610b62565b5050505081525050828281518110610c3257610c32615b7e565b60200260200101819052508080610c4890615baa565b915050610974565b5091505090565b610c5f614b75565b610c8c8135610c75610100840160e08501615c0a565b610c8560e0850160c08601615c25565b6000614ba6565b610cbc5760405162461bcd60e51b81526020600482015260016024820152603760f81b60448201526064016106f6565b610ccc6060820160408301615328565b6001600160a01b0316336001600160a01b031614610d115760405162461bcd60e51b8152602060048201526002602482015261323360f01b60448201526064016106f6565b33600090815260086020908152604080832060030180548251818502810185019093528083529192909190849084015b82821015610df7576000848152602090819020604080516080810182526002860290920180548352600181015461ffff81169484019490945291929083019062010000900460ff166003811115610d9a57610d9a61534a565b6003811115610dab57610dab61534a565b81526020016001820160039054906101000a900460ff166002811115610dd357610dd361534a565b6002811115610de457610de461534a565b8152505081526020019060010190610d41565b5050336000908152600860205260408120600301549394509150505b81811015610eb6578360000135838281518110610e3257610e32615b7e565b6020026020010151600001511415610ea45733600090815260086020526040902060030180546001919083908110610e6c57610e6c615b7e565b906000526020600020906002020160010160036101000a81548160ff02191690836002811115610e9e57610e9e61534a565b02179055505b80610eae81615baa565b915050610e13565b5082356000908152600c6020908152604080832080548251818502810185019093528083529192909190830182828015610f1957602002820191906000526020600020905b81546001600160a01b03168152600190910190602001808311610efb575b5050505050905060005b815181101561125757600060086000848481518110610f4457610f44615b7e565b60200260200101516001600160a01b03166001600160a01b031681526020019081526020016000206002018054905067ffffffffffffffff811115610f8b57610f8b615882565b604051908082528060200260200182016040528015610fe657816020015b610fd360408051608081018252600080825260208201819052909182019081526020016000905290565b815260200190600190039081610fa95790505b50905060086000848481518110610fff57610fff615b7e565b60200260200101516001600160a01b03166001600160a01b03168152602001908152602001600020600201805480602002602001604051908101604052809291908181526020016000905b82821015611100576000848152602090819020604080516080810182526002860290920180548352600181015461ffff81169484019490945291929083019062010000900460ff1660038111156110a3576110a361534a565b60038111156110b4576110b461534a565b81526020016001820160039054906101000a900460ff1660028111156110dc576110dc61534a565b60028111156110ed576110ed61534a565b815250508152602001906001019061104a565b50505050905060005b6008600085858151811061111f5761111f615b7e565b60200260200101516001600160a01b03166001600160a01b031681526020019081526020016000206002018054905081101561121c57866000013582828151811061116c5761116c615b7e565b602002602001015160000151141561120a5760016008600086868151811061119657611196615b7e565b60200260200101516001600160a01b03166001600160a01b0316815260200190815260200160002060020182815481106111d2576111d2615b7e565b906000526020600020906002020160010160036101000a81548160ff021916908360028111156112045761120461534a565b02179055505b8061121481615baa565b915050611109565b50611244866000013584848151811061123757611237615b7e565b6020026020010151614c31565b508061124f81615baa565b915050610f23565b506000600b8161126d60e0880160c08901615c25565b600381111561127e5761127e61534a565b815260200190815260200160002060008660e00160208101906112a19190615c0a565b61ffff1661ffff168152602001908152602001600020805480602002602001604051908101604052809291908181526020016000905b828210156114415760008481526020908190206040805161012081018252600586029092018054835260018101549383019390935260028301546001600160a01b0390811691830191909152600380840154918216606084015260ff600160a01b8304811615156080850152600160a81b83048116151560a085015292939260c0850192600160b01b900416908111156113735761137361534a565b60038111156113845761138461534a565b81526003820154600160b81b900461ffff1660208201526004820180546040909201916113b090615c40565b80601f01602080910402602001604051908101604052809291908181526020018280546113dc90615c40565b80156114295780601f106113fe57610100808354040283529160200191611429565b820191906000526020600020905b81548152906001019060200180831161140c57829003601f168201915b505050505081525050815260200190600101906112d7565b50505050905060005b815181101561152857856000013582828151811061146a5761146a615b7e565b6020026020010151600001511415611516576001600b600061149260e08a0160c08b01615c25565b60038111156114a3576114a361534a565b815260200190815260200160002060008860e00160208101906114c69190615c0a565b61ffff1661ffff16815260200190815260200160002082815481106114ed576114ed615b7e565b906000526020600020906005020160030160156101000a81548160ff0219169083151502179055505b8061152081615baa565b91505061144a565b50604080514264ffffffffff168152600160208201819052600082840152915133918835917fb2c608416221878976ddfef731ff33921ea021e89aa0db861bb162a67c8428cf9181900360600190a45050505050565b611586614a68565b600155565b611593614a68565b6007805461ff001981166101009182900460ff1615909102179055565b6115b8614a68565b600355565b61160c6040805161012081018252600080825260208201819052918101829052606081018290526080810182905260a081018290529060c0820190815260006020820152606060409091015290565b6000600b60008560038111156116245761162461534a565b815260200190815260200160002060008461ffff1661ffff168152602001908152602001600020805480602002602001604051908101604052809291908181526020016000905b828210156117d55760008481526020908190206040805161012081018252600586029092018054835260018101549383019390935260028301546001600160a01b0390811691830191909152600380840154918216606084015260ff600160a01b8304811615156080850152600160a81b83048116151560a085015292939260c0850192600160b01b900416908111156117075761170761534a565b60038111156117185761171861534a565b81526003820154600160b81b900461ffff16602082015260048201805460409092019161174490615c40565b80601f016020809104026020016040519081016040528092919081815260200182805461177090615c40565b80156117bd5780601f10611792576101008083540402835291602001916117bd565b820191906000526020600020905b8154815290600101906020018083116117a057829003601f168201915b5050505050815250508152602001906001019061166b565b50505050905060005b815181101561183b57858282815181106117fa576117fa615b7e565b60200260200101516000015114156118295781818151811061181e5761181e615b7e565b602002602001015192505b8061183381615baa565b9150506117de565b50509392505050565b61184c614b75565b6001600160a01b0385166118865760405162461bcd60e51b81526020600482015260016024820152600760fb1b60448201526064016106f6565b3460015411156118bc5760405162461bcd60e51b81526020600482015260016024820152603560f81b60448201526064016106f6565b6118c585614ab4565b6118f55760405162461bcd60e51b81526020600482015260016024820152603960f81b60448201526064016106f6565b6000861161192a5760405162461bcd60e51b8152602060048201526002602482015261031360f41b60448201526064016106f6565b602083111561197b5760405162461bcd60e51b815260206004820152601a60248201527f537472696e67206d757374206265203c3d20333220627974657300000000000060448201526064016106f6565b600082600381111561198f5761198f61534a565b14156119fa578061ffff1660001080156119ae575060078161ffff1611155b6119fa5760405162461bcd60e51b815260206004820152601760248201527f4d757374206265206265747765656e203120616e64203700000000000000000060448201526064016106f6565b6001826003811115611a0e57611a0e61534a565b1415611a79578061ffff166000108015611a2d5750601c8161ffff1611155b611a795760405162461bcd60e51b815260206004820152601b60248201527f4d757374757374206265206265747765656e203120616e64203238000000000060448201526064016106f6565b6002826003811115611a8d57611a8d61534a565b1415611af8578061ffff166000108015611aac5750605a8161ffff1611155b611af85760405162461bcd60e51b815260206004820152601860248201527f4d757374206265206265747765656e203120616e64203930000000000000000060448201526064016106f6565b6003826003811115611b0c57611b0c61534a565b1415611b78578061ffff166000108015611b2c575061016d8161ffff1611155b611b785760405162461bcd60e51b815260206004820152601960248201527f4d757374206265206265747765656e203120616e64203336350000000000000060448201526064016106f6565b6000611bbf878787878080601f016020809104026020016040519081016040528093929190818152602001838380828437600092019190915250899250889150614d829050565b905080600b6000856003811115611bd857611bd861534a565b81526020808201929092526040908101600090812061ffff87168252835281812080546001818101835591835291849020855160059093020191825592840151928101929092558201516002820180546001600160a01b039283166001600160a01b0319909116179055606083015160038084018054608087015160a08801511515600160a81b0260ff60a81b19911515600160a01b0274ffffffffffffffffffffffffffffffffffffffffff199093169590961694909417179283168417815560c086015193909260ff60b01b1990911661ffff60a81b199091161790600160b01b908490811115611ccd57611ccd61534a565b021790555060e082015160038201805461ffff909216600160b81b0261ffff60b81b199092169190911790556101008201518051611d15916004840191602090910190615273565b50905050611d656040518060800160405280836000015181526020018360e0015161ffff1681526020018360c001516003811115611d5557611d5561534a565b8152602001600090526001614e70565b8051604080514264ffffffffff168152600160208201526000918101829052909133917fb2c608416221878976ddfef731ff33921ea021e89aa0db861bb162a67c8428cf9060600160405180910390a450505050505050565b611dc6614a68565b600255565b604080516080810182526000808252602082018190529181018290526060810182905290611dfc6201518084615c91565b90506000808281611e108262010bd9615ca5565b611e1d9062253d8c615ca5565b9050600062023ab1611e30836004615ce5565b611e3a9190615d6c565b90506004611e4b8262023ab1615ce5565b611e56906003615ca5565b611e609190615d6c565b611e6a9083615d9a565b9150600062164b09611e7d846001615ca5565b611e8990610fa0615ce5565b611e939190615d6c565b90506004611ea3826105b5615ce5565b611ead9190615d6c565b611eb79084615d9a565b611ec290601f615ca5565b9250600061098f611ed4856050615ce5565b611ede9190615d6c565b905060006050611ef08361098f615ce5565b611efa9190615d6c565b611f049086615d9a565b9050611f11600b83615d6c565b9450611f1e85600c615ce5565b611f29836002615ca5565b611f339190615d9a565b91508483611f42603187615d9a565b611f4d906064615ce5565b611f579190615ca5565b611f619190615ca5565b909750915086828282600060015b838111611fbc5783811415611f9357611f8c61ffff8e1683615bdc565b9150611faa565b611f9d8585615023565b611fa79083615bdc565b91505b80611fb481615baa565b915050611f6f565b50809a50611fce8b61ffff16856150a9565b61ffff1660408f0152611fe08f615177565b8e6020019061ffff16908161ffff16815250508b8e6000019061ffff16908161ffff16815250508a8e6060019061ffff16908161ffff168152505050505050505050505050505050919050565b60608082156121245733600090815260086020908152604080832060020180548251818502810185019093528083529193909284015b82821015612119576000848152602090819020604080516080810182526002860290920180548352600181015461ffff81169484019490945291929083019062010000900460ff1660038111156120bc576120bc61534a565b60038111156120cd576120cd61534a565b81526020016001820160039054906101000a900460ff1660028111156120f5576120f561534a565b60028111156121065761210661534a565b8152505081526020019060010190612063565b50505050905061220e565b33600090815260086020908152604080832060030180548251818502810185019093528083529193909284015b82821015612207576000848152602090819020604080516080810182526002860290920180548352600181015461ffff81169484019490945291929083019062010000900460ff1660038111156121aa576121aa61534a565b60038111156121bb576121bb61534a565b81526020016001820160039054906101000a900460ff1660028111156121e3576121e361534a565b60028111156121f4576121f461534a565b8152505081526020019060010190612151565b5050505090505b6000815167ffffffffffffffff81111561222a5761222a615882565b6040519080825280602002602001820160405280156122c557816020015b6122b2604080516101808101909152600060608083018281526080840183905260a0840183905260c0840183905260e08401839052610100840183905261012084018390526101408401929092526101608301528190815260200160008152602001600081525090565b8152602001906001900390816122485790505b50905060005b8251811015612426576123368382815181106122e9576122e9615b7e565b60200260200101516000015184838151811061230757612307615b7e565b60200260200101516040015185848151811061232557612325615b7e565b6020026020010151602001516115bd565b82828151811061234857612348615b7e565b60200260200101516000018190525082818151811061236957612369615b7e565b60200260200101516060015182828151811061238757612387615b7e565b60200260200101516020019060028111156123a4576123a461534a565b908160028111156123b7576123b761534a565b81525050600c60008383815181106123d1576123d1615b7e565b6020026020010151600001516000015181526020019081526020016000208054905082828151811061240557612405615b7e565b6020908102919091010151604001528061241e81615baa565b9150506122cb565b509392505050565b600754600160d81b900460ff1661244757612447614a68565b6002543a1061248d5760405162461bcd60e51b815260206004820152601260248201527108ec2e640e0e4d2c6ca40e8dede40d0d2ced60731b60448201526064016106f6565b6000612498426151ad565b60075490915064ffffffffff620100009091048116908216116124e25760405162461bcd60e51b81526020600482015260026024820152610c4d60f21b60448201526064016106f6565b60006124ed42611dcb565b90506000805b60038111612e8957600081612509575060208301515b6001821415612516575082515b6002821415612526575060408301515b6003821415612536575060608301515b6000828152600b6020908152604080832061ffff85168452909152812054905b81811015612e73576000848152600b6020908152604080832061ffff87168452909152902080548290811061258d5761258d615b7e565b906000526020600020906005020160030160159054906101000a900460ff16612e61576000848152600b6020908152604080832061ffff8716845290915281208054839081106125df576125df615b7e565b60009182526020808320600590920290910154878352600b8252604080842061ffff891685529092529082208054919350908490811061262157612621615b7e565b6000918252602080832060036005909302019190910154888352600b8252604080842061ffff8a16855290925290822080546001600160a01b039092169350908590811061267157612671615b7e565b6000918252602080832060016005909302019190910154898352600b8252604080842061ffff8b168552909252908220805491935090869081106126b7576126b7615b7e565b6000918252602082206002600590920201015481546001600160a01b0390911692508390612710906126e99083615dd9565b6126f39190615c91565b6126fd9190615bc5565b6000868152600c602052604081205491925090815b81811015612e58576003548d141561286457604080518082018252898152602001829052600489815560058390556007805460ff19169055905163a9059cbb60e01b81523391810191909152602481018490526001600160a01b0388169063a9059cbb90604401602060405180830381600087803b15801561279357600080fd5b505af11580156127a7573d6000803e3d6000fd5b505050506040513d601f19601f820116820180604052508101906127cb9190615df8565b6127fc5760405162461bcd60e51b8152602060048201526002602482015261191960f11b60448201526064016106f6565b6007546040805164ffffffffff42811682526201000090930492909216602083015260009082015233907f90192d7875364a53e351ae63fd2dfef8dc941735b29fb0c504d06a0e21ae602e9060600160405180910390a2505050505050505050505050505050565b60045488148015612876575060055481145b15612889576007805460ff191660011790555b600454158061289f575060075460ff1615156001145b15612e46576000888152600c602052604081208054839081106128c4576128c4615b7e565b600091825260209091200154604051636eb1769f60e11b81526001600160a01b0391821660048201819052306024830152925088918a169063dd62ed3e90604401602060405180830381600087803b15801561291f57600080fd5b505af1158015612933573d6000803e3d6000fd5b505050506040513d601f19601f820116820180604052508101906129579190615e15565b101580156129e057506040516370a0823160e01b81526001600160a01b0382811660048301528891908a16906370a0823190602401602060405180830381600087803b1580156129a657600080fd5b505af11580156129ba573d6000803e3d6000fd5b505050506040513d601f19601f820116820180604052508101906129de9190615e15565b115b15612c48578d6129ef81615baa565b9e506129fd90508585615bdc565b60008a8152600a602090815260408083206001600160a01b0386168452909152902054909450851015612b99576000898152600a602090815260408083206001600160a01b038516845290915281208054879290612a5c908490615bc5565b90915550600090506040805164ffffffffff42168152602081018a90526001600160a01b038416918c91600080516020615eee833981519152910160405180910390a4604080514264ffffffffff1681526001602082015260008183015290516002916001600160a01b038916918c917fb2c608416221878976ddfef731ff33921ea021e89aa0db861bb162a67c8428cf919081900360600190a4612b008e6151bc565b6040516323b872dd60e01b81526001600160a01b0382811660048301528781166024830152604482018990528916906323b872dd906064015b602060405180830381600087803b158015612b5357600080fd5b505af1158015612b67573d6000803e3d6000fd5b505050506040513d601f19601f82011682018060405250810190612b8b9190615df8565b612b9457600080fd5b612d71565b60046040805164ffffffffff42168152602081018a90526001600160a01b038416918c91600080516020615eee833981519152910160405180910390a46000898152600a602090815260408083206001600160a01b038516845290915281208054899290612c08908490615bdc565b90915550506040516323b872dd60e01b81526001600160a01b038281166004830152306024830152604482018990528916906323b872dd90606401612b39565b8d612c5281615baa565b9e50612c6090508585615bdc565b60008a8152600a602090815260408083206001600160a01b0386168452909152812080549296508792909190612c97908490615bc5565b90915550612ca790508982614c31565b60036040805164ffffffffff42168152602081018a905233918c91600080516020615eee833981519152910160405180910390a460016040805164ffffffffff42168152602081018a90526001600160a01b038416918c91600080516020615eee833981519152910160405180910390a4604080514264ffffffffff1681526001602082015260008183015290516003916001600160a01b038916918c917fb2c608416221878976ddfef731ff33921ea021e89aa0db861bb162a67c8428cf919081900360600190a45b6000898152600c6020526040902054612d8c90600190615bc5565b821415612e445760405163a9059cbb60e01b8152336004820152602481018590526001600160a01b0389169063a9059cbb90604401602060405180830381600087803b158015612ddb57600080fd5b505af1158015612def573d6000803e3d6000fd5b505050506040513d601f19601f82011682018060405250810190612e139190615df8565b612e445760405162461bcd60e51b8152602060048201526002602482015261191960f11b60448201526064016106f6565b505b80612e5081615baa565b915050612712565b50505050505050505b80612e6b81615baa565b915050612556565b5050508080612e8190615baa565b9150506124f3565b50600060048190556005556007805460ff1916908190556040805164ffffffffff428116825262010000909304909216602083015260019082015233907f90192d7875364a53e351ae63fd2dfef8dc941735b29fb0c504d06a0e21ae602e9060600160405180910390a26001600760028282829054906101000a900464ffffffffff16612f169190615e2e565b92506101000a81548164ffffffffff021916908364ffffffffff160217905550505050565b6000818152600c60205260408120546060919067ffffffffffffffff811115612f6657612f66615882565b604051908082528060200260200182016040528015612f8f578160200160208202803683370190505b506000848152600c60209081526040918290208054835181840281018401909452808452939450919290830182828015612ff257602002820191906000526020600020905b81546001600160a01b03168152600190910190602001808311612fd4575b5050506000868152600c60205260408120549394509291505067ffffffffffffffff81111561302357613023615882565b60405190808252806020026020018201604052801561306857816020015b60408051808201909152600080825260208201528152602001906001900390816130415790505b50905060005b8251811015612426576000858152600a602052604081208451829086908590811061309b5761309b615b7e565b60200260200101516001600160a01b03166001600160a01b03168152602001908152602001600020549050600060405180604001604052808685815181106130e5576130e5615b7e565b60200260200101516001600160a01b031681526020018381525090508084848151811061311457613114615b7e565b60200260200101819052505050808061312c90615baa565b91505061306e565b61313c614a68565b600055565b613149614a68565b336001600160a01b03821614801561316957506001600160a01b03811615155b61317257600080fd5b600780546001600160a01b03909216670100000000000000027fffffffffff0000000000000000000000000000000000000000ffffffffffffff909216919091179055565b6131bf614b75565b33600090815260086020908152604080832060030180548251818502810185019093528083529192909190849084015b828210156132a5576000848152602090819020604080516080810182526002860290920180548352600181015461ffff81169484019490945291929083019062010000900460ff1660038111156132485761324861534a565b60038111156132595761325961534a565b81526020016001820160039054906101000a900460ff1660028111156132815761328161534a565b60028111156132925761329261534a565b81525050815260200190600101906131ef565b5050505090506000805b82518110156132f85784600001518382815181106132cf576132cf615b7e565b60200260200101516000015114156132e657600191505b806132f081615baa565b9150506132af565b508061332b5760405162461bcd60e51b8152602060048201526002602482015261062760f31b60448201526064016106f6565b83516000908152600c602090815260408083208054825181850281018501909352808352919290919083018282801561338d57602002820191906000526020600020905b81546001600160a01b0316815260019091019060200180831161336f575b505050505090506000805b825181101561345157856001600160a01b03168382815181106133bd576133bd615b7e565b60200260200101516001600160a01b0316141561343f576001600160a01b038616600090815260086020526040902060029081018054600194508390811061340757613407615b7e565b906000526020600020906002020160010160036101000a81548160ff021916908360028111156134395761343961534a565b02179055505b8061344981615baa565b915050613398565b50806134845760405162461bcd60e51b8152602060048201526002602482015261313960f01b60448201526064016106f6565b85516134909086614c31565b600386516020808901516040805164ffffffffff4216815292830191909152339291600080516020615eee833981519152910160405180910390a4505050505050565b6134db614b75565b60208101356134f06080830160608401615328565b604051636eb1769f60e11b81523360048201523060248201526001600160a01b03919091169063dd62ed3e90604401602060405180830381600087803b15801561353957600080fd5b505af115801561354d573d6000803e3d6000fd5b505050506040513d601f19601f820116820180604052508101906135719190615e15565b1015801561360d5750602081013561358f6080830160608401615328565b6040516370a0823160e01b81523360048201526001600160a01b0391909116906370a0823190602401602060405180830381600087803b1580156135d257600080fd5b505af11580156135e6573d6000803e3d6000fd5b505050506040513d601f19601f8201168201806040525081019061360a9190615e15565b10155b61363e5760405162461bcd60e51b8152602060048201526002602482015261032360f41b60448201526064016106f6565b6136548135610c75610100840160e08501615c0a565b6136845760405162461bcd60e51b81526020600482015260016024820152603760f81b60448201526064016106f6565b80356000818152600c6020908152604080832080546001810182559084529282902090920180546001600160a01b031916331790558151608081019092529181526137169181016136dc610100850160e08601615c0a565b61ffff1681526020016136f560e0850160c08601615c25565b60038111156137065761370661534a565b8152602001600090526000614e70565b600161372860e0830160c08401615c25565b60038111156137395761373961534a565b14806137655750600061375260e0830160c08401615c25565b60038111156137635761376361534a565b145b156138b55780356000908152600a6020908152604080832033845282528220805491840135929091613798908490615bdc565b90915550600290506040805164ffffffffff42168152602080850135908201523391843591600080516020615eee833981519152910160405180910390a460046040805164ffffffffff42168152602080850135908201523391843591600080516020615eee833981519152910160405180910390a461381e6080820160608301615328565b6040516323b872dd60e01b8152336004820152306024820152602083013560448201526001600160a01b0391909116906323b872dd90606401602060405180830381600087803b15801561387157600080fd5b505af1158015613885573d6000803e3d6000fd5b505050506040513d601f19601f820116820180604052508101906138a99190615df8565b6138b257600080fd5b50565b60026138c760e0830160c08401615c25565b60038111156138d8576138d861534a565b1415613b1c5760006138ef60036020840135615c91565b82356000908152600a6020908152604080832033845290915281208054929350839290919061391f908490615bdc565b90915550600290506040805164ffffffffff42168152602080860135908201523391853591600080516020615eee833981519152910160405180910390a460046040805164ffffffffff42168152602080860135908201523391853591600080516020615eee833981519152910160405180910390a46139a56080830160608401615328565b6040516323b872dd60e01b8152336004820152306024820152604481018390526001600160a01b0391909116906323b872dd90606401602060405180830381600087803b1580156139f557600080fd5b505af1158015613a09573d6000803e3d6000fd5b505050506040513d601f19601f82011682018060405250810190613a2d9190615df8565b613a3657600080fd5b613a466080830160608401615328565b6001600160a01b03166323b872dd33613a656060860160408701615328565b613a70856002615dd9565b6040517fffffffff0000000000000000000000000000000000000000000000000000000060e086901b1681526001600160a01b0393841660048201529290911660248301526044820152606401602060405180830381600087803b158015613ad757600080fd5b505af1158015613aeb573d6000803e3d6000fd5b505050506040513d601f19601f82011682018060405250810190613b0f9190615df8565b613b1857600080fd5b5050565b6003613b2e60e0830160c08401615c25565b6003811115613b3f57613b3f61534a565b14156138b2576000613b56600c6020840135615c91565b82356000908152600a60209081526040808320338452909152812080549293508392909190613b86908490615bdc565b90915550600290506040805164ffffffffff42168152602080860135908201523391853591600080516020615eee833981519152910160405180910390a460046040805164ffffffffff42168152602080860135908201523391853591600080516020615eee833981519152910160405180910390a4613c0c6080830160608401615328565b6040516323b872dd60e01b8152336004820152306024820152604481018390526001600160a01b0391909116906323b872dd90606401602060405180830381600087803b158015613c5c57600080fd5b505af1158015613c70573d6000803e3d6000fd5b505050506040513d601f19601f82011682018060405250810190613c949190615df8565b613c9d57600080fd5b613cad6080830160608401615328565b6001600160a01b03166323b872dd33613ccc6060860160408701615328565b613a7085600b615dd9565b6060613ce1614a68565b60608315613de0576001600160a01b038316600090815260086020908152604080832060020180548251818502810185019093528083529193909284015b82821015613dd5576000848152602090819020604080516080810182526002860290920180548352600181015461ffff81169484019490945291929083019062010000900460ff166003811115613d7857613d7861534a565b6003811115613d8957613d8961534a565b81526020016001820160039054906101000a900460ff166002811115613db157613db161534a565b6002811115613dc257613dc261534a565b8152505081526020019060010190613d1f565b505050509050613ed3565b6001600160a01b038316600090815260086020908152604080832060030180548251818502810185019093528083529193909284015b82821015613ecc576000848152602090819020604080516080810182526002860290920180548352600181015461ffff81169484019490945291929083019062010000900460ff166003811115613e6f57613e6f61534a565b6003811115613e8057613e8061534a565b81526020016001820160039054906101000a900460ff166002811115613ea857613ea861534a565b6002811115613eb957613eb961534a565b8152505081526020019060010190613e16565b5050505090505b6000815167ffffffffffffffff811115613eef57613eef615882565b604051908082528060200260200182016040528015613f8a57816020015b613f77604080516101808101909152600060608083018281526080840183905260a0840183905260c0840183905260e08401839052610100840183905261012084018390526101408401929092526101608301528190815260200160008152602001600081525090565b815260200190600190039081613f0d5790505b50905060005b825181101561409e57613fae8382815181106122e9576122e9615b7e565b828281518110613fc057613fc0615b7e565b602002602001015160000181905250828181518110613fe157613fe1615b7e565b602002602001015160600151828281518110613fff57613fff615b7e565b602002602001015160200190600281111561401c5761401c61534a565b9081600281111561402f5761402f61534a565b81525050600c600083838151811061404957614049615b7e565b6020026020010151600001516000015181526020019081526020016000208054905082828151811061407d5761407d615b7e565b6020908102919091010151604001528061409681615baa565b915050613f90565b509150505b92915050565b6140b1614a68565b6001600160a01b0381166140c457600080fd5b6140cd81614ab4565b156140fe5760405162461bcd60e51b81526020600482015260016024820152603160f81b60448201526064016106f6565b600680546001810182556000919091527ff652222313e28459528d920b65115c16c04f3efc82aaedc97be59f3f377c0d3f0180546001600160a01b0319166001600160a01b0392909216919091179055565b614158614a68565b60078054911515600160d81b0260ff60d81b19909216919091179055565b6000818152600c60209081526040918290208054835181840281018401909452808452606093928301828280156141d657602002820191906000526020600020905b81546001600160a01b031681526001909101906020018083116141b8575b50505050509050919050565b60606002543a1061422a5760405162461bcd60e51b815260206004820152601260248201527108ec2e640e0e4d2c6ca40e8dede40d0d2ced60731b60448201526064016106f6565b6000614235426151ad565b60075490915064ffffffffff6201000090910481169082161161427f5760405162461bcd60e51b81526020600482015260026024820152610c4d60f21b60448201526064016106f6565b600061428a42611dcb565b9050600080600060035467ffffffffffffffff8111156142ac576142ac615882565b6040519080825280602002602001820160405280156142f157816020015b60408051808201909152600080825260208201528152602001906001900390816142ca5790505b50905060005b600381116145d45760008161430d575060208501515b600182141561431a575084515b600282141561432a575060408501515b600382141561433a575060608501515b60005b6000838152600b6020908152604080832061ffff861684529091529020548110156145bf576000838152600b6020908152604080832061ffff86168452909152902080548290811061439157614391615b7e565b906000526020600020906005020160030160159054906101000a900460ff166145ad576000838152600b6020908152604080832061ffff8616845290915281208054839081106143e3576143e3615b7e565b60009182526020808320600590920290910154868352600b8252604080842061ffff881685529092529082208054919350908490811061442557614425615b7e565b6000918252602080832060036005909302019190910154878352600b8252604080842061ffff8916855290925290822080546001600160a01b039092169350908590811061447557614475615b7e565b90600052602060002090600502016001015490506144af60405180604001604052806000815260200160006001600160a01b031681525090565b600082612710600054856144c39190615dd9565b6144cd9190615c91565b6144d79190615bc5565b90506000805b6000878152600c60205260409020548110156145a5576003548d14156145115750989e9d5050505050505050505050505050565b6004541580614527575060075460ff1615156001145b15614593578c61453681615baa565b9d5061454490508383615bdc565b91506040518060400160405280838152602001876001600160a01b03168152509350838b8d8151811061457957614579615b7e565b60200260200101819052508b8061458f90615baa565b9c50505b8061459d81615baa565b9150506144dd565b505050505050505b806145b781615baa565b91505061433d565b505080806145cc90615baa565b9150506142f7565b506000805b82518110156146345760006001600160a01b03168382815181106145ff576145ff615b7e565b6020026020010151602001516001600160a01b0316141561462257809150614634565b8061462c81615baa565b9150506145d9565b5060008167ffffffffffffffff81111561465057614650615882565b60405190808252806020026020018201604052801561469557816020015b604080518082019091526000808252602082015281526020019060019003908161466e5790505b50905060005b828110156146ed578381815181106146b5576146b5615b7e565b60200260200101518282815181106146cf576146cf615b7e565b602002602001018190525080806146e590615baa565b91505061469b565b50979650505050505050565b614701614b75565b3360009081526008602052604081206002015467ffffffffffffffff81111561472c5761472c615882565b60405190808252806020026020018201604052801561478757816020015b61477460408051608081018252600080825260208201819052909182019081526020016000905290565b81526020019060019003908161474a5790505b50336000908152600860209081526040808320600201805482518185028101850190935280835294955090939092909184015b82821015614870576000848152602090819020604080516080810182526002860290920180548352600181015461ffff81169484019490945291929083019062010000900460ff1660038111156148135761481361534a565b60038111156148245761482461534a565b81526020016001820160039054906101000a900460ff16600281111561484c5761484c61534a565b600281111561485d5761485d61534a565b81525050815260200190600101906147ba565b5050336000908152600860205260408120600201549394509150505b8181101561492d5783600001518382815181106148ab576148ab615b7e565b602002602001015160000151141561491b5733600090815260086020526040902060029081018054839081106148e3576148e3615b7e565b906000526020600020906002020160010160036101000a81548160ff021916908360028111156149155761491561534a565b02179055505b8061492581615baa565b91505061488c565b50825161493a9033614c31565b600383516020808601516040805164ffffffffff4216815292830191909152339291600080516020615eee833981519152910160405180910390a482516000908152600a60208181526040808420338086529083528185205488518652938352818520818652909252808420939093556060860151925163a9059cbb60e01b815260048101919091526024810182905290916001600160a01b03169063a9059cbb90604401602060405180830381600087803b1580156149f957600080fd5b505af1158015614a0d573d6000803e3d6000fd5b505050506040513d601f19601f82011682018060405250810190614a319190615df8565b614a625760405162461bcd60e51b8152602060048201526002602482015261323160f01b60448201526064016106f6565b50505050565b60075467010000000000000090046001600160a01b03163314614ab25760405162461bcd60e51b8152602060048201526002602482015261189b60f11b60448201526064016106f6565b565b6000806006805480602002602001604051908101604052809291908181526020018280548015614b0d57602002820191906000526020600020905b81546001600160a01b03168152600190910190602001808311614aef575b505050505090506000915060005b8151811015614b6e57818181518110614b3657614b36615b7e565b60200260200101516001600160a01b0316846001600160a01b03161415614b5c57600192505b80614b6681615baa565b915050614b1b565b5050919050565b33614ab25760405162461bcd60e51b81526020600482015260016024820152603360f81b60448201526064016106f6565b60008060405180608001604052808781526020018661ffff168152602001856003811115614bd657614bd661534a565b8152602001846002811115614bed57614bed61534a565b81525090506000614c0b8260000151836040015184602001516115bd565b9050806080015115614c2257600192505050614c29565b6000925050505b949350505050565b6000828152600c602052604081208054909190815b81811015614cca57846001600160a01b0316848281548110614c6a57614c6a615b7e565b6000918252602090912001546001600160a01b03161415614cb857809250838181548110614c9a57614c9a615b7e565b600091825260209091200180546001600160a01b0319169055614cca565b80614cc281615baa565b915050614c46565b5082548390614cdb90600190615bc5565b81548110614ceb57614ceb615b7e565b9060005260206000200160009054906101000a90046001600160a01b0316838381548110614d1b57614d1b615b7e565b9060005260206000200160006101000a8154816001600160a01b0302191690836001600160a01b0316021790555082805480614d5957614d59615bf4565b600082815260209020810160001990810180546001600160a01b03191690550190555050505050565b614dd16040805161012081018252600080825260208201819052918101829052606081018290526080810182905260a081018290529060c0820190815260006020820152606060409091015290565b60003386848742604051602001614dec959493929190615e57565b60408051601f198184030181528282528051602091820120610120840183528084529083018a905233918301919091526001600160a01b038816606083015260016080830152600060a0830152915060c08101856003811115614e5157614e5161534a565b81526020018461ffff1681526020018681525091505095945050505050565b33600090815260086020526040902054600160a01b900460ff16614efa5733600081815260086020526040812080546001600160a01b03199081168417825560098054600181019091557f6e1540171b6c0c960b71a7020d9f60077f6af931a8bbf590da0223dacf75c7af01805490911684179055919052805460ff60a01b1916600160a01b1790555b8015614fb057336000908152600860209081526040808320600390810180546001808201835591865294849020875160029096020194855592860151928401805461ffff19811661ffff9095169485178255928701518795949093919262ffffff19909216179062010000908490811115614f7757614f7761534a565b0217905550606082015160018201805463ff00000019166301000000836002811115614fa557614fa561534a565b021790555050505050565b33600090815260086020908152604080832060029081018054600180820183559186529484902087519590920290910193845591850151918301805461ffff19811661ffff909416938417825591860151869493909262ffffff19161762010000836003811115614f7757614f7761534a565b600081600114806150345750816003145b8061503f5750816005145b8061504a5750816007145b806150555750816008145b80615060575081600a145b8061506b575081600c145b156150785750601f6140a3565b816002146150885750601e6140a3565b61509183615216565b61509c57601c61509f565b601d5b60ff169392505050565b6000806150b583615216565b156150c2575060016150c6565b5060005b6150d181605a615bdc565b84116150df57839150615170565b836150eb82605a615bdc565b10801561510257506150fe8160b5615bdc565b8411155b156151235761511281605a615bdc565b61511c9085615bc5565b9150615170565b8361512f8260b5615bdc565b108015615147575061514381610111615bdc565b8411155b15615157576151128160b5615bdc565b61516381610111615bdc565b61516d9085615bc5565b91505b5092915050565b6000806151876201518084615c91565b905060006007615198836003615bdc565b6151a29190615eb5565b614c29906001615bdc565b60006140a36201518083615ec9565b6138b2816040516024016151d291815260200190565b60408051601f198184030181529190526020810180517bffffffffffffffffffffffffffffffffffffffffffffffffffffffff1663f82c50f160e01b179052615252565b6000615223600483615eb5565b1580156152395750615236606483615eb5565b15155b806140a3575061524b61019083615eb5565b1592915050565b80516a636f6e736f6c652e6c6f67602083016000808483855afa5050505050565b82805461527f90615c40565b90600052602060002090601f0160209004810192826152a157600085556152e7565b82601f106152ba57805160ff19168380011785556152e7565b828001600101855582156152e7579182015b828111156152e75782518255916020019190600101906152cc565b506152f39291506152f7565b5090565b5b808211156152f357600081556001016152f8565b80356001600160a01b038116811461532357600080fd5b919050565b60006020828403121561533a57600080fd5b6153438261530c565b9392505050565b634e487b7160e01b600052602160045260246000fd5b600481106153705761537061534a565b9052565b600381106153705761537061534a565b600081518084526020808501945080840160005b838110156153ee5781518051885261ffff8482015116848901526040808201516153c4828b0182615360565b5050606090810151906153d989820183615374565b50506080969096019590820190600101615398565b509495945050505050565b60006020808301818452808551808352604092508286019150828160051b8701018488016000805b848110156154dd57898403603f19018652825180516001600160a01b03168552888101511515898601528781015160a0898701819052815190870181905260c08701918b019085905b8082101561549157825164ffffffffff168452928c0192918c01916001919091019061546a565b505050606080830151878303828901526154ab8382615384565b92505050608080830151925086820381880152506154c98183615384565b978a01979550505091870191600101615421565b50919998505050505050505050565b6000602082840312156154fe57600080fd5b813567ffffffffffffffff81111561551557600080fd5b8201610120818503121561534357600080fd5b60006020828403121561553a57600080fd5b5035919050565b80356004811061532357600080fd5b803561ffff8116811461532357600080fd5b60008060006060848603121561557757600080fd5b8335925061558760208501615541565b915061559560408501615550565b90509250925092565b60005b838110156155b95781810151838201526020016155a1565b83811115614a625750506000910152565b600081518084526155e281602086016020860161559e565b601f01601f19169290920160200192915050565b600061012082518452602083015160208501526001600160a01b036040840151166040850152606083015161563660608601826001600160a01b03169052565b50608083015161564a608086018215159052565b5060a083015161565e60a086018215159052565b5060c083015161567160c0860182615360565b5060e083015161568760e086018261ffff169052565b506101008084015182828701526156a0838701826155ca565b9695505050505050565b60208152600061534360208301846155f6565b60008060008060008060a087890312156156d657600080fd5b863595506156e66020880161530c565b9450604087013567ffffffffffffffff8082111561570357600080fd5b818901915089601f83011261571757600080fd5b81358181111561572657600080fd5b8a602082850101111561573857600080fd5b60208301965080955050505061575060608801615541565b915061575e60808801615550565b90509295509295509295565b80151581146138b257600080fd5b80356153238161576a565b60006020828403121561579557600080fd5b81356153438161576a565b60006020808301818452808551808352604092508286019150828160051b87010184880160005b8381101561581c57603f198984030185528151606081518186526157ed828701826155f6565b915050888201516158008a870182615374565b50908701519387019390935293860193908601906001016157c7565b509098975050505050505050565b602080825282518282018190526000919060409081850190868401855b8281101561587557815180516001600160a01b03168552860151868501529284019290850190600101615847565b5091979650505050505050565b634e487b7160e01b600052604160045260246000fd5b604051610120810167ffffffffffffffff811182821017156158bc576158bc615882565b60405290565b600082601f8301126158d357600080fd5b813567ffffffffffffffff808211156158ee576158ee615882565b604051601f8301601f19908116603f0116810190828211818310171561591657615916615882565b8160405283815286602085880101111561592f57600080fd5b836020870160208301376000602085830101528094505050505092915050565b6000610120828403121561596257600080fd5b61596a615898565b905081358152602082013560208201526159866040830161530c565b60408201526159976060830161530c565b60608201526159a860808301615778565b60808201526159b960a08301615778565b60a08201526159ca60c08301615541565b60c08201526159db60e08301615550565b60e08201526101008083013567ffffffffffffffff8111156159fc57600080fd5b615a08858286016158c2565b82840152505092915050565b60008060408385031215615a2757600080fd5b823567ffffffffffffffff811115615a3e57600080fd5b615a4a8582860161594f565b925050615a596020840161530c565b90509250929050565b60008060408385031215615a7557600080fd5b8235615a808161576a565b9150615a596020840161530c565b6020808252825182820181905260009190848201906040850190845b81811015615acf5783516001600160a01b031683529284019291840191600101615aaa565b50909695505050505050565b602080825282518282018190526000919060409081850190868401855b82811015615875578151805185528601516001600160a01b0316868501529284019290850190600101615af8565b60008060408385031215615b3957600080fd5b82359150615a596020840161530c565b600060208284031215615b5b57600080fd5b813567ffffffffffffffff811115615b7257600080fd5b61516d8482850161594f565b634e487b7160e01b600052603260045260246000fd5b634e487b7160e01b600052601160045260246000fd5b6000600019821415615bbe57615bbe615b94565b5060010190565b600082821015615bd757615bd7615b94565b500390565b60008219821115615bef57615bef615b94565b500190565b634e487b7160e01b600052603160045260246000fd5b600060208284031215615c1c57600080fd5b61534382615550565b600060208284031215615c3757600080fd5b61534382615541565b600181811c90821680615c5457607f821691505b60208210811415615c7557634e487b7160e01b600052602260045260246000fd5b50919050565b634e487b7160e01b600052601260045260246000fd5b600082615ca057615ca0615c7b565b500490565b6000808212826001600160ff1b0303841381151615615cc657615cc6615b94565b600160ff1b8390038412811615615cdf57615cdf615b94565b50500190565b60006001600160ff1b03600084136000841385830485118282161615615d0d57615d0d615b94565b600160ff1b6000871282811687830589121615615d2c57615d2c615b94565b60008712925087820587128484161615615d4857615d48615b94565b87850587128184161615615d5e57615d5e615b94565b505050929093029392505050565b600082615d7b57615d7b615c7b565b600160ff1b821460001984141615615d9557615d95615b94565b500590565b60008083128015600160ff1b850184121615615db857615db8615b94565b836001600160ff1b03018313811615615dd357615dd3615b94565b50500390565b6000816000190483118215151615615df357615df3615b94565b500290565b600060208284031215615e0a57600080fd5b81516153438161576a565b600060208284031215615e2757600080fd5b5051919050565b600064ffffffffff808316818516808303821115615e4e57615e4e615b94565b01949350505050565b60006bffffffffffffffffffffffff19808860601b168352808760601b1660148401525061ffff60f01b8560f01b1660288301528351615e9e81602a85016020880161559e565b602a920191820192909252604a0195945050505050565b600082615ec457615ec4615c7b565b500690565b600064ffffffffff80841680615ee157615ee1615c7b565b9216919091049291505056fefcfb8f783c54c9c729957515ad137cd8832b98c21e44fd7f481e2e7603bfdb5fa2646970667358221220532ae745a5d80118e765e729f908930f17e0e3451e29eb05552801593ba8eda064736f6c63430008090033",
  "linkReferences": {},
  "deployedLinkReferences": {}
}