{
  "_format": "hh-sol-artifact-1",
  "contractName": "ClockTowerSubscribe",
  "sourceName": "contracts/ClockTowerSubscribe.sol",
  "abi": [
    {
      "inputs": [
        {
          "internalType": "uint256",
          "name": "callerFee_",
          "type": "uint256"
        },
        {
          "internalType": "uint256",
          "name": "systemFee_",
          "type": "uint256"
        },
        {
          "internalType": "uint256",
          "name": "maxRemits_",
          "type": "uint256"
        },
        {
          "internalType": "bool",
          "name": "allowSystemFee_",
          "type": "bool"
        },
        {
          "internalType": "address",
          "name": "admin_",
          "type": "address"
        }
      ],
      "stateMutability": "payable",
      "type": "constructor"
    },
    {
      "anonymous": false,
      "inputs": [
        {
          "indexed": false,
          "internalType": "uint40",
          "name": "timestamp",
          "type": "uint40"
        },
        {
          "indexed": false,
          "internalType": "uint40",
          "name": "checkedDay",
          "type": "uint40"
        },
        {
          "indexed": true,
          "internalType": "address",
          "name": "caller",
          "type": "address"
        },
        {
          "indexed": false,
          "internalType": "bool",
          "name": "isFinished",
          "type": "bool"
        }
      ],
      "name": "CallerLog",
      "type": "event"
    },
    {
      "anonymous": false,
      "inputs": [
        {
          "indexed": true,
          "internalType": "bytes32",
          "name": "id",
          "type": "bytes32"
        },
        {
          "indexed": true,
          "internalType": "address",
          "name": "provider",
          "type": "address"
        },
        {
          "indexed": true,
          "internalType": "uint40",
          "name": "timestamp",
          "type": "uint40"
        },
        {
          "indexed": false,
          "internalType": "string",
          "name": "url",
          "type": "string"
        },
        {
          "indexed": false,
          "internalType": "string",
          "name": "description",
          "type": "string"
        }
      ],
      "name": "DetailsLog",
      "type": "event"
    },
    {
      "anonymous": false,
      "inputs": [
        {
          "indexed": true,
          "internalType": "address",
          "name": "provider",
          "type": "address"
        },
        {
          "indexed": true,
          "internalType": "uint40",
          "name": "timestamp",
          "type": "uint40"
        },
        {
          "indexed": false,
          "internalType": "string",
          "name": "description",
          "type": "string"
        },
        {
          "indexed": false,
          "internalType": "string",
          "name": "company",
          "type": "string"
        },
        {
          "indexed": false,
          "internalType": "string",
          "name": "url",
          "type": "string"
        },
        {
          "indexed": false,
          "internalType": "string",
          "name": "domain",
          "type": "string"
        },
        {
          "indexed": false,
          "internalType": "string",
          "name": "email",
          "type": "string"
        },
        {
          "indexed": false,
          "internalType": "string",
          "name": "misc",
          "type": "string"
        }
      ],
      "name": "ProvDetailsLog",
      "type": "event"
    },
    {
      "anonymous": false,
      "inputs": [
        {
          "indexed": true,
          "internalType": "bytes32",
          "name": "id",
          "type": "bytes32"
        },
        {
          "indexed": true,
          "internalType": "address",
          "name": "provider",
          "type": "address"
        },
        {
          "indexed": true,
          "internalType": "address",
          "name": "subscriber",
          "type": "address"
        },
        {
          "indexed": false,
          "internalType": "uint40",
          "name": "timestamp",
          "type": "uint40"
        },
        {
          "indexed": false,
          "internalType": "uint256",
          "name": "amount",
          "type": "uint256"
        },
        {
          "indexed": false,
          "internalType": "address",
          "name": "token",
          "type": "address"
        },
        {
          "indexed": false,
          "internalType": "enum ClockTowerSubscribe.SubscriptEvent",
          "name": "subScriptEvent",
          "type": "uint8"
        }
      ],
      "name": "SubLog",
      "type": "event"
    },
    {
      "stateMutability": "payable",
      "type": "fallback"
    },
    {
      "inputs": [
        {
          "internalType": "uint256",
          "name": "",
          "type": "uint256"
        }
      ],
      "name": "accountLookup",
      "outputs": [
        {
          "internalType": "address",
          "name": "",
          "type": "address"
        }
      ],
      "stateMutability": "view",
      "type": "function"
    },
    {
      "inputs": [
        {
          "internalType": "address",
          "name": "erc20Contract",
          "type": "address"
        },
        {
          "internalType": "uint256",
          "name": "minimum",
          "type": "uint256"
        },
        {
          "internalType": "uint8",
          "name": "decimals",
          "type": "uint8"
        }
      ],
      "name": "addERC20Contract",
      "outputs": [],
      "stateMutability": "nonpayable",
      "type": "function"
    },
    {
      "inputs": [
        {
          "internalType": "address",
          "name": "",
          "type": "address"
        }
      ],
      "name": "approvedERC20",
      "outputs": [
        {
          "internalType": "address",
          "name": "tokenAddress",
          "type": "address"
        },
        {
          "internalType": "uint256",
          "name": "minimum",
          "type": "uint256"
        },
        {
          "internalType": "uint8",
          "name": "decimals",
          "type": "uint8"
        },
        {
          "internalType": "bool",
          "name": "exists",
          "type": "bool"
        }
      ],
      "stateMutability": "view",
      "type": "function"
    },
    {
      "inputs": [],
      "name": "callerFee",
      "outputs": [
        {
          "internalType": "uint256",
          "name": "",
          "type": "uint256"
        }
      ],
      "stateMutability": "view",
      "type": "function"
    },
    {
      "inputs": [
        {
          "components": [
            {
              "internalType": "bytes32",
              "name": "id",
              "type": "bytes32"
            },
            {
              "internalType": "uint256",
              "name": "amount",
              "type": "uint256"
            },
            {
              "internalType": "address",
              "name": "provider",
              "type": "address"
            },
            {
              "internalType": "address",
              "name": "token",
              "type": "address"
            },
            {
              "internalType": "bool",
              "name": "exists",
              "type": "bool"
            },
            {
              "internalType": "bool",
              "name": "cancelled",
              "type": "bool"
            },
            {
              "internalType": "enum ClockTowerSubscribe.Frequency",
              "name": "frequency",
              "type": "uint8"
            },
            {
              "internalType": "uint16",
              "name": "dueDay",
              "type": "uint16"
            }
          ],
          "internalType": "struct ClockTowerSubscribe.Subscription",
          "name": "subscription",
          "type": "tuple"
        }
      ],
      "name": "cancelSubscription",
      "outputs": [],
      "stateMutability": "nonpayable",
      "type": "function"
    },
    {
      "inputs": [
        {
          "internalType": "address payable",
          "name": "newAddress",
          "type": "address"
        }
      ],
      "name": "changeAdmin",
      "outputs": [],
      "stateMutability": "nonpayable",
      "type": "function"
    },
    {
      "inputs": [
        {
          "internalType": "uint256",
          "name": "_fee",
          "type": "uint256"
        }
      ],
      "name": "changeCallerFee",
      "outputs": [],
      "stateMutability": "nonpayable",
      "type": "function"
    },
    {
      "inputs": [
        {
          "internalType": "uint256",
          "name": "_maxRemits",
          "type": "uint256"
        }
      ],
      "name": "changeMaxRemits",
      "outputs": [],
      "stateMutability": "nonpayable",
      "type": "function"
    },
    {
      "inputs": [
        {
          "internalType": "uint256",
          "name": "_sys_fee",
          "type": "uint256"
        }
      ],
      "name": "changeSystemFee",
      "outputs": [],
      "stateMutability": "nonpayable",
      "type": "function"
    },
    {
      "inputs": [
        {
          "internalType": "uint256",
          "name": "amount",
          "type": "uint256"
        },
        {
          "internalType": "address",
          "name": "token",
          "type": "address"
        },
        {
          "components": [
            {
              "internalType": "string",
              "name": "url",
              "type": "string"
            },
            {
              "internalType": "string",
              "name": "description",
              "type": "string"
            }
          ],
          "internalType": "struct ClockTowerSubscribe.Details",
          "name": "details",
          "type": "tuple"
        },
        {
          "internalType": "enum ClockTowerSubscribe.Frequency",
          "name": "frequency",
          "type": "uint8"
        },
        {
          "internalType": "uint16",
          "name": "dueDay",
          "type": "uint16"
        }
      ],
      "name": "createSubscription",
      "outputs": [],
      "stateMutability": "payable",
      "type": "function"
    },
    {
      "inputs": [
        {
          "components": [
            {
              "internalType": "string",
              "name": "url",
              "type": "string"
            },
            {
              "internalType": "string",
              "name": "description",
              "type": "string"
            }
          ],
          "internalType": "struct ClockTowerSubscribe.Details",
          "name": "details",
          "type": "tuple"
        },
        {
          "internalType": "bytes32",
          "name": "id",
          "type": "bytes32"
        }
      ],
      "name": "editDetails",
      "outputs": [],
      "stateMutability": "nonpayable",
      "type": "function"
    },
    {
      "inputs": [
        {
          "components": [
            {
              "internalType": "string",
              "name": "description",
              "type": "string"
            },
            {
              "internalType": "string",
              "name": "company",
              "type": "string"
            },
            {
              "internalType": "string",
              "name": "url",
              "type": "string"
            },
            {
              "internalType": "string",
              "name": "domain",
              "type": "string"
            },
            {
              "internalType": "string",
              "name": "email",
              "type": "string"
            },
            {
              "internalType": "string",
              "name": "misc",
              "type": "string"
            }
          ],
          "internalType": "struct ClockTowerSubscribe.ProviderDetails",
          "name": "details",
          "type": "tuple"
        }
      ],
      "name": "editProvDetails",
      "outputs": [],
      "stateMutability": "nonpayable",
      "type": "function"
    },
    {
      "inputs": [
        {
          "internalType": "bytes32",
          "name": "",
          "type": "bytes32"
        },
        {
          "internalType": "address",
          "name": "",
          "type": "address"
        }
      ],
      "name": "feeBalance",
      "outputs": [
        {
          "internalType": "uint256",
          "name": "",
          "type": "uint256"
        }
      ],
      "stateMutability": "view",
      "type": "function"
    },
    {
      "inputs": [],
      "name": "feeEstimate",
      "outputs": [
        {
          "components": [
            {
              "internalType": "uint256",
              "name": "fee",
              "type": "uint256"
            },
            {
              "internalType": "address",
              "name": "token",
              "type": "address"
            }
          ],
          "internalType": "struct ClockTowerSubscribe.FeeEstimate[]",
          "name": "",
          "type": "tuple[]"
        }
      ],
      "stateMutability": "view",
      "type": "function"
    },
    {
      "inputs": [
        {
          "internalType": "address",
          "name": "account",
          "type": "address"
        }
      ],
      "name": "getAccount",
      "outputs": [
        {
          "components": [
            {
              "internalType": "address",
              "name": "accountAddress",
              "type": "address"
            },
            {
              "internalType": "bool",
              "name": "exists",
              "type": "bool"
            },
            {
              "components": [
                {
                  "internalType": "bytes32",
                  "name": "id",
                  "type": "bytes32"
                },
                {
                  "internalType": "uint16",
                  "name": "dueDay",
                  "type": "uint16"
                },
                {
                  "internalType": "enum ClockTowerSubscribe.Frequency",
                  "name": "frequency",
                  "type": "uint8"
                },
                {
                  "internalType": "enum ClockTowerSubscribe.Status",
                  "name": "status",
                  "type": "uint8"
                }
              ],
              "internalType": "struct ClockTowerSubscribe.SubIndex[]",
              "name": "subscriptions",
              "type": "tuple[]"
            },
            {
              "components": [
                {
                  "internalType": "bytes32",
                  "name": "id",
                  "type": "bytes32"
                },
                {
                  "internalType": "uint16",
                  "name": "dueDay",
                  "type": "uint16"
                },
                {
                  "internalType": "enum ClockTowerSubscribe.Frequency",
                  "name": "frequency",
                  "type": "uint8"
                },
                {
                  "internalType": "enum ClockTowerSubscribe.Status",
                  "name": "status",
                  "type": "uint8"
                }
              ],
              "internalType": "struct ClockTowerSubscribe.SubIndex[]",
              "name": "provSubs",
              "type": "tuple[]"
            }
          ],
          "internalType": "struct ClockTowerSubscribe.Account",
          "name": "",
          "type": "tuple"
        }
      ],
      "stateMutability": "view",
      "type": "function"
    },
    {
      "inputs": [
        {
          "internalType": "bool",
          "name": "bySubscriber",
          "type": "bool"
        },
        {
          "internalType": "address",
          "name": "account",
          "type": "address"
        }
      ],
      "name": "getAccountSubscriptions",
      "outputs": [
        {
          "components": [
            {
              "components": [
                {
                  "internalType": "bytes32",
                  "name": "id",
                  "type": "bytes32"
                },
                {
                  "internalType": "uint256",
                  "name": "amount",
                  "type": "uint256"
                },
                {
                  "internalType": "address",
                  "name": "provider",
                  "type": "address"
                },
                {
                  "internalType": "address",
                  "name": "token",
                  "type": "address"
                },
                {
                  "internalType": "bool",
                  "name": "exists",
                  "type": "bool"
                },
                {
                  "internalType": "bool",
                  "name": "cancelled",
                  "type": "bool"
                },
                {
                  "internalType": "enum ClockTowerSubscribe.Frequency",
                  "name": "frequency",
                  "type": "uint8"
                },
                {
                  "internalType": "uint16",
                  "name": "dueDay",
                  "type": "uint16"
                }
              ],
              "internalType": "struct ClockTowerSubscribe.Subscription",
              "name": "subscription",
              "type": "tuple"
            },
            {
              "internalType": "enum ClockTowerSubscribe.Status",
              "name": "status",
              "type": "uint8"
            },
            {
              "internalType": "uint256",
              "name": "totalSubscribers",
              "type": "uint256"
            }
          ],
          "internalType": "struct ClockTowerSubscribe.SubView[]",
          "name": "",
          "type": "tuple[]"
        }
      ],
      "stateMutability": "view",
      "type": "function"
    },
    {
      "inputs": [
        {
          "internalType": "bytes32",
          "name": "id",
          "type": "bytes32"
        },
        {
          "internalType": "enum ClockTowerSubscribe.Frequency",
          "name": "frequency",
          "type": "uint8"
        },
        {
          "internalType": "uint16",
          "name": "dueDay",
          "type": "uint16"
        }
      ],
      "name": "getSubByIndex",
      "outputs": [
        {
          "components": [
            {
              "internalType": "bytes32",
              "name": "id",
              "type": "bytes32"
            },
            {
              "internalType": "uint256",
              "name": "amount",
              "type": "uint256"
            },
            {
              "internalType": "address",
              "name": "provider",
              "type": "address"
            },
            {
              "internalType": "address",
              "name": "token",
              "type": "address"
            },
            {
              "internalType": "bool",
              "name": "exists",
              "type": "bool"
            },
            {
              "internalType": "bool",
              "name": "cancelled",
              "type": "bool"
            },
            {
              "internalType": "enum ClockTowerSubscribe.Frequency",
              "name": "frequency",
              "type": "uint8"
            },
            {
              "internalType": "uint16",
              "name": "dueDay",
              "type": "uint16"
            }
          ],
          "internalType": "struct ClockTowerSubscribe.Subscription",
          "name": "subscription",
          "type": "tuple"
        }
      ],
      "stateMutability": "view",
      "type": "function"
    },
    {
      "inputs": [
        {
          "internalType": "bytes32",
          "name": "id",
          "type": "bytes32"
        }
      ],
      "name": "getSubscribersById",
      "outputs": [
        {
          "components": [
            {
              "internalType": "address",
              "name": "subscriber",
              "type": "address"
            },
            {
              "internalType": "uint256",
              "name": "feeBalance",
              "type": "uint256"
            }
          ],
          "internalType": "struct ClockTowerSubscribe.SubscriberView[]",
          "name": "",
          "type": "tuple[]"
        }
      ],
      "stateMutability": "view",
      "type": "function"
    },
    {
      "inputs": [],
      "name": "getTotalSubscribers",
      "outputs": [
        {
          "internalType": "uint256",
          "name": "",
          "type": "uint256"
        }
      ],
      "stateMutability": "view",
      "type": "function"
    },
    {
      "inputs": [],
      "name": "maxRemits",
      "outputs": [
        {
          "internalType": "uint256",
          "name": "",
          "type": "uint256"
        }
      ],
      "stateMutability": "view",
      "type": "function"
    },
    {
      "inputs": [],
      "name": "nextUncheckedDay",
      "outputs": [
        {
          "internalType": "uint40",
          "name": "",
          "type": "uint40"
        }
      ],
      "stateMutability": "view",
      "type": "function"
    },
    {
      "inputs": [],
      "name": "remit",
      "outputs": [],
      "stateMutability": "payable",
      "type": "function"
    },
    {
      "inputs": [
        {
          "internalType": "bool",
          "name": "status",
          "type": "bool"
        }
      ],
      "name": "setExternalCallers",
      "outputs": [],
      "stateMutability": "nonpayable",
      "type": "function"
    },
    {
      "inputs": [
        {
          "components": [
            {
              "internalType": "bytes32",
              "name": "id",
              "type": "bytes32"
            },
            {
              "internalType": "uint256",
              "name": "amount",
              "type": "uint256"
            },
            {
              "internalType": "address",
              "name": "provider",
              "type": "address"
            },
            {
              "internalType": "address",
              "name": "token",
              "type": "address"
            },
            {
              "internalType": "bool",
              "name": "exists",
              "type": "bool"
            },
            {
              "internalType": "bool",
              "name": "cancelled",
              "type": "bool"
            },
            {
              "internalType": "enum ClockTowerSubscribe.Frequency",
              "name": "frequency",
              "type": "uint8"
            },
            {
              "internalType": "uint16",
              "name": "dueDay",
              "type": "uint16"
            }
          ],
          "internalType": "struct ClockTowerSubscribe.Subscription",
          "name": "subscription",
          "type": "tuple"
        }
      ],
      "name": "subscribe",
      "outputs": [],
      "stateMutability": "payable",
      "type": "function"
    },
    {
      "inputs": [],
      "name": "systemFee",
      "outputs": [
        {
          "internalType": "uint256",
          "name": "",
          "type": "uint256"
        }
      ],
      "stateMutability": "view",
      "type": "function"
    },
    {
      "inputs": [
        {
          "internalType": "bool",
          "name": "status",
          "type": "bool"
        }
      ],
      "name": "systemFeeActivate",
      "outputs": [],
      "stateMutability": "nonpayable",
      "type": "function"
    },
    {
      "inputs": [
        {
          "components": [
            {
              "internalType": "bytes32",
              "name": "id",
              "type": "bytes32"
            },
            {
              "internalType": "uint256",
              "name": "amount",
              "type": "uint256"
            },
            {
              "internalType": "address",
              "name": "provider",
              "type": "address"
            },
            {
              "internalType": "address",
              "name": "token",
              "type": "address"
            },
            {
              "internalType": "bool",
              "name": "exists",
              "type": "bool"
            },
            {
              "internalType": "bool",
              "name": "cancelled",
              "type": "bool"
            },
            {
              "internalType": "enum ClockTowerSubscribe.Frequency",
              "name": "frequency",
              "type": "uint8"
            },
            {
              "internalType": "uint16",
              "name": "dueDay",
              "type": "uint16"
            }
          ],
          "internalType": "struct ClockTowerSubscribe.Subscription",
          "name": "subscription",
          "type": "tuple"
        }
      ],
      "name": "unsubscribe",
      "outputs": [],
      "stateMutability": "payable",
      "type": "function"
    },
    {
      "inputs": [
        {
          "components": [
            {
              "internalType": "bytes32",
              "name": "id",
              "type": "bytes32"
            },
            {
              "internalType": "uint256",
              "name": "amount",
              "type": "uint256"
            },
            {
              "internalType": "address",
              "name": "provider",
              "type": "address"
            },
            {
              "internalType": "address",
              "name": "token",
              "type": "address"
            },
            {
              "internalType": "bool",
              "name": "exists",
              "type": "bool"
            },
            {
              "internalType": "bool",
              "name": "cancelled",
              "type": "bool"
            },
            {
              "internalType": "enum ClockTowerSubscribe.Frequency",
              "name": "frequency",
              "type": "uint8"
            },
            {
              "internalType": "uint16",
              "name": "dueDay",
              "type": "uint16"
            }
          ],
          "internalType": "struct ClockTowerSubscribe.Subscription",
          "name": "subscription",
          "type": "tuple"
        },
        {
          "internalType": "address",
          "name": "subscriber",
          "type": "address"
        }
      ],
      "name": "unsubscribeByProvider",
      "outputs": [],
      "stateMutability": "nonpayable",
      "type": "function"
    },
    {
      "stateMutability": "payable",
      "type": "receive"
    }
  ],
  "bytecode": "0x60806040526040516160bc3803806160bc833981016040819052610022916100c4565b6000859055600184905560028381556006805460ff60d81b1916600160d81b85151502179055610051426100af565b61005b919061012e565b600680546001600160a01b03909316660100000000000002600160301b600160d01b031964ffffffffff939093166101000292909216610100600160d01b0319909316929092171790555061019192505050565b60006100be6201518083610159565b92915050565b600080600080600060a086880312156100dc57600080fd5b85516020870151604088015160608901519297509095509350801515811461010357600080fd5b60808701519092506001600160a01b038116811461012057600080fd5b809150509295509295909350565b64ffffffffff82811682821603908111156100be57634e487b7160e01b600052601160045260246000fd5b600064ffffffffff83168061017e57634e487b7160e01b600052601260045260246000fd5b8064ffffffffff84160491505092915050565b615f1c806101a06000396000f3fe6080604052600436106101a25760003560e01c80638f283970116100e0578063d10f9e6911610084578063ebec6eaa11610061578063ebec6eaa146104f7578063ed601d281461052f578063f4a2a2001461054f578063fbcbc0f11461058757005b8063d10f9e691461047c578063da854a961461049c578063e63d35be146104d557005b8063b25ae32c116100bd578063b25ae32c146103ab578063b4761de9146103c0578063bd743886146103e0578063cab1c9651461046657005b80638f2839701461034b578063907cedb21461036b5780639889552e1461038b57005b806344e49769116101475780637bbf5a6e116101245780637bbf5a6e146102b157806386525a00146102de57806387d888d31461030b5780638ef0ef1c1461032b57005b806344e49769146102765780634a1268b8146102895780637507ba39146102a957005b806327ea97731161018057806327ea9773146102005780632d23f7e71461022057806334d441d01461024d5780633c95dad51461026357005b80630b8590c7146101a45780630bec99e8146101b75780631f17ee55146101d7575b005b6101a26101b23660046151bb565b6105b4565b3480156101c357600080fd5b506101a26101d2366004615236565b610a3a565b3480156101e357600080fd5b506101ed60015481565b6040519081526020015b60405180910390f35b34801561020c57600080fd5b506101a261021b366004615236565b610a47565b34801561022c57600080fd5b5061024061023b36600461524f565b610a54565b6040516101f79190615331565b34801561025957600080fd5b506101ed60005481565b6101a2610271366004615340565b610c2c565b6101a2610284366004615471565b6112fd565b34801561029557600080fd5b506101a26102a4366004615495565b6116e0565b6101a26117bf565b3480156102bd57600080fd5b506102d16102cc366004615236565b61278e565b6040516101f791906154dd565b3480156102ea57600080fd5b506102fe6102f9366004615535565b612984565b6040516101f7919061557e565b34801561031757600080fd5b506101a2610326366004615340565b612d7b565b34801561033757600080fd5b506101a2610346366004615236565b6137d6565b34801561035757600080fd5b506101a26103663660046155e1565b6137e3565b34801561037757600080fd5b506101a26103863660046155fe565b613842565b34801561039757600080fd5b506101a26103a636600461562d565b613cb6565b3480156103b757600080fd5b506008546101ed565b3480156103cc57600080fd5b506101a26103db36600461562d565b613cdc565b3480156103ec57600080fd5b506104326103fb3660046155e1565b6005602052600090815260409020805460018201546002909201546001600160a01b03909116919060ff8082169161010090041684565b604080516001600160a01b039095168552602085019390935260ff90911691830191909152151560608201526080016101f7565b34801561047257600080fd5b506101ed60025481565b34801561048857600080fd5b506101a261049736600461564a565b613d02565b3480156104a857600080fd5b506006546104bf90610100900464ffffffffff1681565b60405164ffffffffff90911681526020016101f7565b3480156104e157600080fd5b506104ea613db9565b6040516101f7919061568f565b34801561050357600080fd5b506101ed6105123660046156dc565b600960209081526000928352604080842090915290825290205481565b34801561053b57600080fd5b506101a261054a366004615790565b61425b565b34801561055b57600080fd5b5061056f61056a366004615236565b6142c9565b6040516001600160a01b0390911681526020016101f7565b34801561059357600080fd5b506105a76105a23660046155e1565b6142f3565b6040516101f79190615955565b6105bc61451d565b6001600160a01b0384166105fb5760405162461bcd60e51b81526020600482015260016024820152600760fb1b60448201526064015b60405180910390fd5b61060484614550565b6106345760405162461bcd60e51b81526020600482015260016024820152603960f81b60448201526064016105f2565b60008260038111156106485761064861528b565b03610697578061ffff166000108015610666575060078161ffff1611155b6106975760405162461bcd60e51b8152602060048201526002602482015261191b60f11b60448201526064016105f2565b60018260038111156106ab576106ab61528b565b036106fa578061ffff1660001080156106c95750601c8161ffff1611155b6106fa5760405162461bcd60e51b8152602060048201526002602482015261323760f01b60448201526064016105f2565b600282600381111561070e5761070e61528b565b0361075d578061ffff16600010801561072c5750605a8161ffff1611155b61075d5760405162461bcd60e51b8152602060048201526002602482015261064760f31b60448201526064016105f2565b60038260038111156107715761077161528b565b036107c1578061ffff166000108015610790575061016d8161ffff1611155b6107c15760405162461bcd60e51b8152602060048201526002602482015261323960f01b60448201526064016105f2565b6001600160a01b0384166000908152600560205260409020600101548510156108115760405162461bcd60e51b8152602060048201526002602482015261033360f41b60448201526064016105f2565b600061081f86868585614587565b905080600a60008560038111156108385761083861528b565b81526020808201929092526040908101600090812061ffff87168252835281812080546001818101835591835291849020855160049093020191825592840151928101929092558201516002820180546001600160a01b039283166001600160a01b0319909116179055606083015160038084018054608087015160a08801511515600160a81b0260ff60a81b19911515600160a01b0274ffffffffffffffffffffffffffffffffffffffffff199093169590961694909417179283168417815560c086015193909260ff60b01b1990911661ffff60a81b199091161790600160b01b90849081111561092d5761092d61528b565b021790555060e0918201516003918201805461ffff60b81b1916600160b81b61ffff93841602179055604080516080810182528551815293850151909116602084015260c084015161099d93929183019181111561098d5761098d61528b565b8152602001600090526001614672565b805164ffffffffff42169033907f93cda0785d40b289a535b99dc76d4c9cbb6d8146182861ac3ad40509398b18656109d588806159b6565b6109e260208b018b6159b6565b6040516109f29493929190615a2d565b60405180910390a48051606082015160405160009233929091600080516020615ec783398151915291610a2a9142918d918890615a6f565b60405180910390a4505050505050565b610a42614822565b600155565b610a4f614822565b600255565b6040805161010081018252600080825260208201819052918101829052606081018290526080810182905260a0810182905260c0810182905260e0810182905290600a81856003811115610aaa57610aaa61528b565b815260200190815260200160002060008461ffff1661ffff168152602001908152602001600020805480602002602001604051908101604052809291908181526020016000905b82821015610bc85760008481526020908190206040805161010081018252600486029092018054835260018101549383019390935260028301546001600160a01b0390811691830191909152600380840154918216606084015260ff600160a01b8304811615156080850152600160a81b83048116151560a085015292939260c0850192600160b01b90041690811115610b8d57610b8d61528b565b6003811115610b9e57610b9e61528b565b81526003919091015461ffff600160b81b9091041660209182015290825260019092019101610af1565b50505050905060005b8151811015610c235785828281518110610bed57610bed615aa0565b60200260200101516000015103610c1b57818181518110610c1057610c10615aa0565b602002602001015192505b600101610bd1565b50509392505050565b610c3461451d565b610c618135610c4a610100840160e08501615ab6565b610c5a60e0850160c08601615ad1565b600061486b565b610c915760405162461bcd60e51b81526020600482015260016024820152603760f81b60448201526064016105f2565b6000610cd36020830135600583610cae60808701606088016155e1565b6001600160a01b0316815260208101919091526040016000206002015460ff166148f6565b905080610ce660808401606085016155e1565b604051636eb1769f60e11b81523360048201523060248201526001600160a01b03919091169063dd62ed3e906044016020604051808303816000875af1158015610d34573d6000803e3d6000fd5b505050506040513d601f19601f82011682018060405250810190610d589190615aec565b10158015610de1575080610d7260808401606085016155e1565b6040516370a0823160e01b81523360048201526001600160a01b0391909116906370a08231906024016020604051808303816000875af1158015610dba573d6000803e3d6000fd5b505050506040513d601f19601f82011682018060405250810190610dde9190615aec565b10155b610e125760405162461bcd60e51b8152602060048201526002602482015261032360f41b60448201526064016105f2565b610e2260608301604084016155e1565b6001600160a01b03163303610e5d5760405162461bcd60e51b81526020600482015260016024820152600360fc1b60448201526064016105f2565b81356000818152600b6020908152604080832080546001810182559084529282902090920180546001600160a01b03191633179055815160808101909252918152610eef918101610eb5610100860160e08701615ab6565b61ffff168152602001610ece60e0860160c08701615ad1565b6003811115610edf57610edf61528b565b8152602001600090526000614672565b6020820135600180610f0760e0860160c08701615ad1565b6003811115610f1857610f1861528b565b1480610f4457506000610f3160e0860160c08701615ad1565b6003811115610f4257610f4261528b565b145b15610f9057610f8942610f5e610100870160e08801615ab6565b61ffff1684610f7360e0890160c08a01615ad1565b6003811115610f8457610f8461528b565b614969565b9150611036565b6002610fa260e0860160c08701615ad1565b6003811115610fb357610fb361528b565b03610fe557610fcd42610f5e610100870160e08801615ab6565b9150610fda600383615b31565b915060029050611036565b6003610ff760e0860160c08701615ad1565b60038111156110085761100861528b565b036110365761102242610f5e610100870160e08801615ab6565b915061102f600c83615b31565b9150600b90505b8335600090815260096020908152604080832033845290915281208054849290611061908490615b45565b9091555033905061107860608601604087016155e1565b6001600160a01b03168535600080516020615ec78339815191524260208901356110a860808b0160608c016155e1565b60066040516110ba9493929190615a6f565b60405180910390a4336110d360608601604087016155e1565b6001600160a01b03168535600080516020615ec783398151915242866110ff60808b0160608c016155e1565b60086040516111119493929190615a6f565b60405180910390a461112960808501606086016155e1565b6001600160a01b03166323b872dd33306111518660056000610cae60808d0160608e016155e1565b6040516001600160e01b031960e086901b1681526001600160a01b03938416600482015292909116602483015260448201526064016020604051808303816000875af11580156111a5573d6000803e3d6000fd5b505050506040513d601f19601f820116820180604052508101906111c99190615b58565b6111d257600080fd5b60026111e460e0860160c08701615ad1565b60038111156111f5576111f561528b565b14806112215750600361120e60e0860160c08701615ad1565b600381111561121f5761121f61528b565b145b156112f75761123660808501606086016155e1565b6001600160a01b03166323b872dd3361125560608801604089016155e1565b6112766112628688615b75565b60056000610cae60808d0160608e016155e1565b6040516001600160e01b031960e086901b1681526001600160a01b03938416600482015292909116602483015260448201526064016020604051808303816000875af11580156112ca573d6000803e3d6000fd5b505050506040513d601f19601f820116820180604052508101906112ee9190615b58565b6112f757600080fd5b50505050565b61130561451d565b3360009081526007602052604081206001015467ffffffffffffffff8111156113305761133061535c565b60405190808252806020026020018201604052801561138b57816020015b61137860408051608081018252600080825260208201819052909182019081526020016000905290565b81526020019060019003908161134e5790505b50336000908152600760209081526040808320600101805482518185028101850190935280835294955090939092909184015b82821015611474576000848152602090819020604080516080810182526002860290920180548352600181015461ffff81169484019490945291929083019062010000900460ff1660038111156114175761141761528b565b60038111156114285761142861528b565b81526020016001820160039054906101000a900460ff1660028111156114505761145061528b565b60028111156114615761146161528b565b81525050815260200190600101906113be565b5050336000908152600760205260408120600101549394509150505b818110156115285783600001518382815181106114af576114af615aa0565b6020026020010151600001510361152057336000908152600760205260409020600101805460029190839081106114e8576114e8615aa0565b906000526020600020906002020160010160036101000a81548160ff0219169083600281111561151a5761151a61528b565b02179055505b600101611490565b5082516115359033614bb2565b336001600160a01b031683604001516001600160a01b03168460000151600080516020615ec78339815191524287602001518860600151600760405161157e9493929190615a6f565b60405180910390a4825160009081526009602081815260408084203380865290835281852054885186529383528185208186529092528084209390935582860151865160608801519451939492936001600160a01b03909216929091600080516020615ec7833981519152916115fa9142918891600490615a6f565b60405180910390a460608401516040808601516001600160a01b03909216600081815260056020529190912060020154909163a9059cbb9161164090859060ff166148f6565b6040516001600160e01b031960e085901b1681526001600160a01b03909216600483015260248201526044016020604051808303816000875af115801561168b573d6000803e3d6000fd5b505050506040513d601f19601f820116820180604052508101906116af9190615b58565b6112f75760405162461bcd60e51b8152602060048201526002602482015261323160f01b60448201526064016105f2565b6116e8614822565b6001600160a01b0383166116fb57600080fd5b61170483614550565b156117355760405162461bcd60e51b81526020600482015260016024820152603160f81b60448201526064016105f2565b604080516080810182526001600160a01b03948516808252602080830195865260ff9485168385019081526001606085018181526000948552600590935294909220925183546001600160a01b031916971696909617825593519181019190915591516002909201805493519290911661ffff199093169290921761010091151591909102179055565b600654600160d01b900460ff166117d8576117d8614822565b60006117e342614cf8565b60065490915064ffffffffff6101009091048116908216101561182d5760405162461bcd60e51b81526020600482015260026024820152610c4d60f21b60448201526064016105f2565b6040805160c081018252600080825260208201819052918101829052606081018290526080810182905260a081019190915260019060065464ffffffffff84811661010090920416146118ad576006546118a69061189a90610100900464ffffffffff1662015180615b8c565b64ffffffffff16614d07565b90506118b9565b6118b642614d07565b90505b6000805b600381116126d4576000816118d3575060208301515b600182036118df575082515b600282036118ee575060408301515b600382036118fd575060608301515b6000828152600a6020908152604080832061ffff85168452909152812054905b818110156126be576000848152600a6020908152604080832061ffff8716845290915281208054919850908290811061195857611958615aa0565b906000526020600020906004020160030160159054906101000a900460ff166126b657604080516080810182526000868152600a602090815283822061ffff8816835290529182208054829190859081106119b5576119b5615aa0565b600091825260208083206004909202909101548352888252600a8152604080832061ffff8a168452825290912080549290910191859081106119f9576119f9615aa0565b60009182526020808320600360049093020191909101546001600160a01b03168352888252600a8152604080832061ffff8a16845282529091208054929091019185908110611a4a57611a4a615aa0565b60009182526020808320600260049093020191909101546001600160a01b03168352888252600a8152604080832061ffff8a1684528252822080549390910192600592919087908110611a9f57611a9f615aa0565b60009182526020808320600360049093020191909101546001600160a01b0316835282810193909352604091820181206002015460ff16909352888352600a825280832061ffff89168452909152812080549293509091611b27919085908110611b0b57611b0b615aa0565b90600052602060002090600402016001015483606001516148f6565b905060008161271060005484611b3d9190615b75565b611b479190615b31565b611b519190615bac565b83516000908152600b602052604081205491925090818115611b7b57611b78600183615bac565b90505b60005b828110156126ae576002548c03611ce657604080518082019091528751808252602091820183905260035560048290556006805460ff1916905587015160608801516001600160a01b039091169063a9059cbb903390611bdf9088906148f6565b6040516001600160e01b031960e085901b1681526001600160a01b03909216600483015260248201526044016020604051808303816000875af1158015611c2a573d6000803e3d6000fd5b505050506040513d601f19601f82011682018060405250810190611c4e9190615b58565b611c7f5760405162461bcd60e51b8152602060048201526002602482015261191960f11b60448201526064016105f2565b6006546040805164ffffffffff428116825261010090930492909216602083015260009082015233907f90192d7875364a53e351ae63fd2dfef8dc941735b29fb0c504d06a0e21ae602e9060600160405180910390a2505050505050505050505050505050565b6003548751148015611cf9575060045481145b15611d0c576006805460ff191660011790555b6003541580611d22575060065460ff1615156001145b156126a65786516000908152600b60205260408120805483908110611d4957611d49615aa0565b6000918252602091829020015490890151604051636eb1769f60e11b81526001600160a01b0392831660048201819052306024830152935089929091169063dd62ed3e906044016020604051808303816000875af1158015611daf573d6000803e3d6000fd5b505050506040513d601f19601f82011682018060405250810190611dd39190615aec565b10158015611e50575060208801516040516370a0823160e01b81526001600160a01b038381166004830152899216906370a08231906024016020604051808303816000875af1158015611e2a573d6000803e3d6000fd5b505050506040513d601f19601f82011682018060405250810190611e4e9190615aec565b115b15612287578c611e5f81615bbf565b895160009081526009602090815260408083206001600160a01b0387168452909152902054909e50871015905061200857611e9a8686615b45565b885160009081526009602090815260408083206001600160a01b0386168452909152812080549297508892909190611ed3908490615bac565b92505081905550806001600160a01b031688604001516001600160a01b03168960000151600080516020615ec7833981519152428b8d602001516005604051611f1f9493929190615a6f565b60405180910390a4806001600160a01b031688604001516001600160a01b03168960000151600080516020615ec78339815191524260008d602001516002604051611f6d9493929190615a6f565b60405180910390a460208801516040808a015190516323b872dd60e01b81526001600160a01b0384811660048301529182166024820152604481018a90529116906323b872dd906064016020604051808303816000875af1158015611fd6573d6000803e3d6000fd5b505050506040513d601f19601f82011682018060405250810190611ffa9190615b58565b61200357600080fd5b6124af565b875160009081526009602090815260408083206001600160a01b03851684529091529020546120379086615b45565b885160009081526009602090815260408083206001600160a01b0380871680865291845282852094909455818d01518d51938e01519251959a509094931692600080516020615ec7833981519152916120969142918e91600890615a6f565b60405180910390a486600160028e90036120c0576120b5600383615b31565b9150600290506120da565b8d6003036120da576120d3600c83615b31565b9150600b90505b895160009081526009602090815260408083206001600160a01b03871684529091528120805484929061210e908490615b45565b9250508190555089602001516001600160a01b03166323b872dd8430612138868f606001516148f6565b6040516001600160e01b031960e086901b1681526001600160a01b03938416600482015292909116602483015260448201526064016020604051808303816000875af115801561218c573d6000803e3d6000fd5b505050506040513d601f19601f820116820180604052508101906121b09190615b58565b6121b957600080fd5b8d600214806121c857508d6003145b156122805789602001516001600160a01b03166323b872dd848c604001516121ff85876121f59190615b75565b8f606001516148f6565b6040516001600160e01b031960e086901b1681526001600160a01b03938416600482015292909116602483015260448201526064016020604051808303816000875af1158015612253573d6000803e3d6000fd5b505050506040513d601f19601f820116820180604052508101906122779190615b58565b61228057600080fd5b50506124af565b8c61229181615bbf565b895160009081526009602090815260408083206001600160a01b0387168452909152902054909e508710159050612407576122cc8686615b45565b885160009081526009602090815260408083206001600160a01b038616845290915281205491965090612300908890615bac565b895160009081526009602090815260408083206001600160a01b0380881680865291845282852094909455818e01518e51938f015192519596509094931692600080516020615ec78339815191529161235f9142918891600490615a6f565b60405180910390a488602001516001600160a01b031663a9059cbb8a6040015161238d848d606001516148f6565b6040516001600160e01b031960e085901b1681526001600160a01b03909216600483015260248201526044016020604051808303816000875af11580156123d8573d6000803e3d6000fd5b505050506040513d601f19601f820116820180604052508101906123fc9190615b58565b61240557600080fd5b505b87516124139082614bb2565b806001600160a01b031688604001516001600160a01b03168960000151600080516020615ec7833981519152428b8d6020015160076040516124589493929190615a6f565b60405180910390a4806001600160a01b031688604001516001600160a01b03168960000151600080516020615ec78339815191524260008d6020015160036040516124a69493929190615a6f565b60405180910390a45b82821480156124be5750600084115b156126a457600654600160d81b900460ff16156125e257600085612710600154886124e99190615b75565b6124f39190615b31565b6124fd9190615bac565b90506125098187615bac565b955088602001516001600160a01b031663a9059cbb60068054906101000a90046001600160a01b0316612540848d606001516148f6565b6040516001600160e01b031960e085901b1681526001600160a01b03909216600483015260248201526044016020604051808303816000875af115801561258b573d6000803e3d6000fd5b505050506040513d601f19601f820116820180604052508101906125af9190615b58565b6125e05760405162461bcd60e51b8152602060048201526002602482015261191960f11b60448201526064016105f2565b505b87602001516001600160a01b031663a9059cbb33612604888c606001516148f6565b6040516001600160e01b031960e085901b1681526001600160a01b03909216600483015260248201526044016020604051808303816000875af115801561264f573d6000803e3d6000fd5b505050506040513d601f19601f820116820180604052508101906126739190615b58565b6126a45760405162461bcd60e51b8152602060048201526002602482015261191960f11b60448201526064016105f2565b505b600101611b7e565b505050505050505b60010161191d565b50505080806126cc90615bbf565b9150506118bd565b50600060038190556004556006805460ff1916908190556040805164ffffffffff4281168252610100909304909216602083015260019082015233907f90192d7875364a53e351ae63fd2dfef8dc941735b29fb0c504d06a0e21ae602e9060600160405180910390a26001600660018282829054906101000a900464ffffffffff166127609190615bd8565b92506101000a81548164ffffffffff021916908364ffffffffff16021790555082156112f7576112f76117bf565b6000818152600b60205260408120546060919067ffffffffffffffff8111156127b9576127b961535c565b6040519080825280602002602001820160405280156127e2578160200160208202803683370190505b506000848152600b6020908152604091829020805483518184028101840190945280845293945091929083018282801561284557602002820191906000526020600020905b81546001600160a01b03168152600190910190602001808311612827575b5050506000868152600b60205260408120549394509291505067ffffffffffffffff8111156128765761287661535c565b6040519080825280602002602001820160405280156128bb57816020015b60408051808201909152600080825260208201528152602001906001900390816128945790505b50905060005b825181101561297c576000858152600960205260408120845182908690859081106128ee576128ee615aa0565b60200260200101516001600160a01b03166001600160a01b031681526020019081526020016000205490506000604051806040016040528086858151811061293857612938615aa0565b60200260200101516001600160a01b031681526020018381525090508084848151811061296757612967615aa0565b602090810291909101015250506001016128c1565b509392505050565b6060808315612a84576001600160a01b038316600090815260076020908152604080832060010180548251818502810185019093528083529193909284015b82821015612a79576000848152602090819020604080516080810182526002860290920180548352600181015461ffff81169484019490945291929083019062010000900460ff166003811115612a1c57612a1c61528b565b6003811115612a2d57612a2d61528b565b81526020016001820160039054906101000a900460ff166002811115612a5557612a5561528b565b6002811115612a6657612a6661528b565b81525050815260200190600101906129c3565b505050509050612b77565b6001600160a01b038316600090815260076020908152604080832060020180548251818502810185019093528083529193909284015b82821015612b70576000848152602090819020604080516080810182526002860290920180548352600181015461ffff81169484019490945291929083019062010000900460ff166003811115612b1357612b1361528b565b6003811115612b2457612b2461528b565b81526020016001820160039054906101000a900460ff166002811115612b4c57612b4c61528b565b6002811115612b5d57612b5d61528b565b8152505081526020019060010190612aba565b5050505090505b6000815167ffffffffffffffff811115612b9357612b9361535c565b604051908082528060200260200182016040528015612c1957816020015b60408051610160810182526000606082018181526080830182905260a0830182905260c0830182905260e0830182905261010083018290526101208301829052610140830182905282526020808301829052928201528252600019909201910181612bb15790505b50905060005b8251811015612d7057612c8a838281518110612c3d57612c3d615aa0565b602002602001015160000151848381518110612c5b57612c5b615aa0565b602002602001015160400151858481518110612c7957612c79615aa0565b602002602001015160200151610a54565b828281518110612c9c57612c9c615aa0565b602002602001015160000181905250828181518110612cbd57612cbd615aa0565b602002602001015160600151828281518110612cdb57612cdb615aa0565b6020026020010151602001906002811115612cf857612cf861528b565b90816002811115612d0b57612d0b61528b565b81525050600b6000838381518110612d2557612d25615aa0565b60200260200101516000015160000151815260200190815260200160002080549050828281518110612d5957612d59615aa0565b602090810291909101015160400152600101612c1f565b509150505b92915050565b612d8361451d565b612d998135610c4a610100840160e08501615ab6565b612dc95760405162461bcd60e51b81526020600482015260016024820152603760f81b60448201526064016105f2565b612dd960608201604083016155e1565b6001600160a01b0316336001600160a01b031614612e1e5760405162461bcd60e51b8152602060048201526002602482015261323360f01b60448201526064016105f2565b33600090815260076020908152604080832060020180548251818502810185019093528083529192909190849084015b82821015612f04576000848152602090819020604080516080810182526002860290920180548352600181015461ffff81169484019490945291929083019062010000900460ff166003811115612ea757612ea761528b565b6003811115612eb857612eb861528b565b81526020016001820160039054906101000a900460ff166002811115612ee057612ee061528b565b6002811115612ef157612ef161528b565b8152505081526020019060010190612e4e565b5050336000908152600760205260408120600201549394509150505b81811015612fb8578360000135838281518110612f3f57612f3f615aa0565b60200260200101516000015103612fb05733600090815260076020526040902060020180546001919083908110612f7857612f78615aa0565b906000526020600020906002020160010160036101000a81548160ff02191690836002811115612faa57612faa61528b565b02179055505b600101612f20565b5082356000908152600b602090815260408083208054825181850281018501909352808352919290919083018282801561301b57602002820191906000526020600020905b81546001600160a01b03168152600190910190602001808311612ffd575b5050505050905060005b815181101561355b57843560009081526009602052604081208351829085908590811061305457613054615aa0565b60200260200101516001600160a01b03166001600160a01b0316815260200190815260200160002054905082828151811061309157613091615aa0565b60200260200101516001600160a01b03168660400160208101906130b591906155e1565b6001600160a01b03168735600080516020615ec783398151915242856130e160808d0160608e016155e1565b60096040516130f39493929190615a6f565b60405180910390a485356000908152600960205260408120845190919085908590811061312257613122615aa0565b60200260200101516001600160a01b03166001600160a01b031681526020019081526020016000206000905585606001602081019061316191906155e1565b6001600160a01b031663a9059cbb84848151811061318157613181615aa0565b60200260200101516131a484600560008c6060016020810190610cae91906155e1565b6040516001600160e01b031960e085901b1681526001600160a01b03909216600483015260248201526044016020604051808303816000875af11580156131ef573d6000803e3d6000fd5b505050506040513d601f19601f820116820180604052508101906132139190615b58565b6132445760405162461bcd60e51b8152602060048201526002602482015261323160f01b60448201526064016105f2565b60006007600085858151811061325c5761325c615aa0565b60200260200101516001600160a01b03166001600160a01b031681526020019081526020016000206001018054905067ffffffffffffffff8111156132a3576132a361535c565b6040519080825280602002602001820160405280156132fe57816020015b6132eb60408051608081018252600080825260208201819052909182019081526020016000905290565b8152602001906001900390816132c15790505b5090506007600085858151811061331757613317615aa0565b60200260200101516001600160a01b03166001600160a01b03168152602001908152602001600020600101805480602002602001604051908101604052809291908181526020016000905b82821015613418576000848152602090819020604080516080810182526002860290920180548352600181015461ffff81169484019490945291929083019062010000900460ff1660038111156133bb576133bb61528b565b60038111156133cc576133cc61528b565b81526020016001820160039054906101000a900460ff1660028111156133f4576133f461528b565b60028111156134055761340561528b565b8152505081526020019060010190613362565b50505050905060005b6007600086868151811061343757613437615aa0565b60200260200101516001600160a01b03166001600160a01b031681526020019081526020016000206001018054905081101561352957876000013582828151811061348457613484615aa0565b60200260200101516000015103613521576001600760008787815181106134ad576134ad615aa0565b60200260200101516001600160a01b03166001600160a01b0316815260200190815260200160002060010182815481106134e9576134e9615aa0565b906000526020600020906002020160010160036101000a81548160ff0219169083600281111561351b5761351b61528b565b02179055505b600101613421565b50613551876000013585858151811061354457613544615aa0565b6020026020010151614bb2565b5050600101613025565b506000600a8161357160e0880160c08901615ad1565b60038111156135825761358261528b565b815260200190815260200160002060008660e00160208101906135a59190615ab6565b61ffff1661ffff168152602001908152602001600020805480602002602001604051908101604052809291908181526020016000905b828210156136b25760008481526020908190206040805161010081018252600486029092018054835260018101549383019390935260028301546001600160a01b0390811691830191909152600380840154918216606084015260ff600160a01b8304811615156080850152600160a81b83048116151560a085015292939260c0850192600160b01b900416908111156136775761367761528b565b60038111156136885761368861528b565b81526003919091015461ffff600160b81b90910416602091820152908252600190920191016135db565b50505050905060005b815181101561378e5785600001358282815181106136db576136db615aa0565b60200260200101516000015103613786576001600a600061370260e08a0160c08b01615ad1565b60038111156137135761371361528b565b815260200190815260200160002060008860e00160208101906137369190615ab6565b61ffff1661ffff168152602001908152602001600020828154811061375d5761375d615aa0565b906000526020600020906004020160030160156101000a81548160ff0219169083151502179055505b6001016136bb565b506000338635600080516020615ec783398151915242846137b560808c0160608d016155e1565b60016040516137c79493929190615a6f565b60405180910390a45050505050565b6137de614822565b600055565b6137eb614822565b6001600160a01b0381166137fe57600080fd5b600680546001600160a01b039092166601000000000000027fffffffffffff0000000000000000000000000000000000000000ffffffffffff909216919091179055565b61384a61451d565b33600090815260076020908152604080832060020180548251818502810185019093528083529192909190849084015b82821015613930576000848152602090819020604080516080810182526002860290920180548352600181015461ffff81169484019490945291929083019062010000900460ff1660038111156138d3576138d361528b565b60038111156138e4576138e461528b565b81526020016001820160039054906101000a900460ff16600281111561390c5761390c61528b565b600281111561391d5761391d61528b565b815250508152602001906001019061387a565b5050505090506000805b825181101561397857846000015183828151811061395a5761395a615aa0565b6020026020010151600001510361397057600191505b60010161393a565b50806139ab5760405162461bcd60e51b8152602060048201526002602482015261062760f31b60448201526064016105f2565b83516000908152600b6020908152604080832080548251818502810185019093528083529192909190830182828015613a0d57602002820191906000526020600020905b81546001600160a01b031681526001909101906020018083116139ef575b505050505090506000805b8251811015613ac857856001600160a01b0316838281518110613a3d57613a3d615aa0565b60200260200101516001600160a01b031603613ac0576001600160a01b03861660009081526007602052604090206001908101805491935060029183908110613a8857613a88615aa0565b906000526020600020906002020160010160036101000a81548160ff02191690836002811115613aba57613aba61528b565b02179055505b600101613a18565b5080613afb5760405162461bcd60e51b8152602060048201526002602482015261313960f01b60448201526064016105f2565b8551613b079086614bb2565b846001600160a01b031686604001516001600160a01b03168760000151600080516020615ec7833981519152428a602001518b606001516007604051613b509493929190615a6f565b60405180910390a4855160009081526009602081815260408084206001600160a01b03808b16808752918452828620548c51875285855283872083885290945282862095909555818b01518b5160608d015193519496929591909216939192600080516020615ec783398151915292613bcf9242928992909190615a6f565b60405180910390a460608701516001600160a01b031660008181526005602052604090206002015463a9059cbb908890613c0d90859060ff166148f6565b6040516001600160e01b031960e085901b1681526001600160a01b03909216600483015260248201526044016020604051808303816000875af1158015613c58573d6000803e3d6000fd5b505050506040513d601f19601f82011682018060405250810190613c7c9190615b58565b613cad5760405162461bcd60e51b8152602060048201526002602482015261323160f01b60448201526064016105f2565b50505050505050565b613cbe614822565b60068054911515600160d81b0260ff60d81b19909216919091179055565b613ce4614822565b60068054911515600160d01b0260ff60d01b19909216919091179055565b6000613d0d336142f3565b9050806020015115613db45760005b8160600151518110156112f7578282606001518281518110613d4057613d40615aa0565b60200260200101516000015103613dac5764ffffffffff421633847f93cda0785d40b289a535b99dc76d4c9cbb6d8146182861ac3ad40509398b1865613d8688806159b6565b613d9360208b018b6159b6565b604051613da39493929190615a2d565b60405180910390a45b600101613d1c565b505050565b60606000613dc642614cf8565b60065490915064ffffffffff610100909104811690821611613e0f5760405162461bcd60e51b81526020600482015260026024820152610c4d60f21b60448201526064016105f2565b6000613e1a42614d07565b9050600080600060025467ffffffffffffffff811115613e3c57613e3c61535c565b604051908082528060200260200182016040528015613e8157816020015b6040805180820190915260008082526020820152815260200190600190039081613e5a5790505b50905060005b6003811161414c57600081613e9d575060208501515b60018203613ea9575084515b60028203613eb8575060408501515b60038203613ec7575060608501515b60005b6000838152600a6020908152604080832061ffff86168452909152902054811015614137576000838152600a6020908152604080832061ffff861684529091529020805482908110613f1e57613f1e615aa0565b906000526020600020906004020160030160159054906101000a900460ff1661412f576000838152600a6020908152604080832061ffff861684529091528120805483908110613f7057613f70615aa0565b60009182526020808320600490920290910154868352600a8252604080842061ffff8816855290925290822080549193509084908110613fb257613fb2615aa0565b6000918252602080832060036004909302019190910154878352600a8252604080842061ffff8916855290925290822080546001600160a01b039092169350908590811061400257614002615aa0565b906000526020600020906004020160010154905061403c60405180604001604052806000815260200160006001600160a01b031681525090565b600082612710600054856140509190615b75565b61405a9190615b31565b6140649190615bac565b90506000805b6000878152600b6020526040902054811015614127576002548d0361409d5750989e9d5050505050505050505050505050565b60035415806140b3575060065460ff1615156001145b1561411f578c6140c281615bbf565b9d506140d090508383615b45565b91506040518060400160405280838152602001876001600160a01b03168152509350838b8d8151811061410557614105615aa0565b60200260200101819052508b8061411b90615bbf565b9c50505b60010161406a565b505050505050505b600101613eca565b5050808061414490615bbf565b915050613e87565b506000805b82518110156141a15760006001600160a01b031683828151811061417757614177615aa0565b6020026020010151602001516001600160a01b031603614199578091506141a1565b600101614151565b5060008167ffffffffffffffff8111156141bd576141bd61535c565b60405190808252806020026020018201604052801561420257816020015b60408051808201909152600080825260208201528152602001906001900390816141db5790505b50905060005b8281101561424f5783818151811061422257614222615aa0565b602002602001015182828151811061423c5761423c615aa0565b6020908102919091010152600101614208565b50979650505050505050565b4264ffffffffff16336001600160a01b03167f34f43abf7a52b609b04511ed963a29ebb76ae3e0ca0ff5594be1c2a84ebd03f2836000015184602001518560400151866060015187608001518860a001516040516142be96959493929190615c3b565b60405180910390a350565b600881815481106142d957600080fd5b6000918252602090912001546001600160a01b0316905081565b60408051608081018252600080825260208201526060918101829052818101919091526001600160a01b038281166000908152600760209081526040808320815160808101835281549586168152600160a01b90950460ff1615158584015260018101805483518186028101860185528181529295938701949293919290919084015b8282101561442c576000848152602090819020604080516080810182526002860290920180548352600181015461ffff81169484019490945291929083019062010000900460ff1660038111156143cf576143cf61528b565b60038111156143e0576143e061528b565b81526020016001820160039054906101000a900460ff1660028111156144085761440861528b565b60028111156144195761441961528b565b8152505081526020019060010190614376565b50505050815260200160028201805480602002602001604051908101604052809291908181526020016000905b8282101561450f576000848152602090819020604080516080810182526002860290920180548352600181015461ffff81169484019490945291929083019062010000900460ff1660038111156144b2576144b261528b565b60038111156144c3576144c361528b565b81526020016001820160039054906101000a900460ff1660028111156144eb576144eb61528b565b60028111156144fc576144fc61528b565b8152505081526020019060010190614459565b505050915250909392505050565b3361454e5760405162461bcd60e51b81526020600482015260016024820152603360f81b60448201526064016105f2565b565b6001600160a01b038116600090815260056020526040812060020154610100900460ff1661457f576000612d75565b600192915050565b6040805161010081018252600080825260208201819052918101829052606081018290526080810182905260a0810182905260c0810182905260e08101919091526040516bffffffffffffffffffffffff193360601b16602082015244603482015242605482015260009060740160408051601f1981840301815282825280516020918201206101008401835280845290830189905233918301919091526001600160a01b038716606083015260016080830152600060a0830152915060c0810185600381111561465a5761465a61528b565b81526020018461ffff16815250915050949350505050565b33600090815260076020526040812054600160a01b900460ff16151590036147005733600081815260076020526040812080546001600160a01b03199081168417825560088054600181019091557ff3f7a9fe364faab93b216da50a3214154f22a0a2b415b23a84c8169e8b636ee301805490911684179055919052805460ff60a01b1916600160a01b1790555b80156147b25733600090815260076020908152604080832060029081018054600180820183559186529484902087519590920290910193845591850151918301805461ffff19811661ffff909416938417825591860151869493909262ffffff191617620100008360038111156147795761477961528b565b0217905550606082015160018201805463ff000000191663010000008360028111156147a7576147a761528b565b021790555050505050565b33600090815260076020908152604080832060019081018054808301825590855293839020865160029095020193845591850151918301805461ffff19811661ffff909416938417825591860151869493909262ffffff191617620100008360038111156147795761477961528b565b600654660100000000000090046001600160a01b0316331461454e5760405162461bcd60e51b8152602060048201526002602482015261189b60f11b60448201526064016105f2565b60008060405180608001604052808781526020018661ffff16815260200185600381111561489b5761489b61528b565b81526020018460028111156148b2576148b261528b565b815250905060006148d0826000015183604001518460200151610a54565b90508060800151156148e7576001925050506148ee565b6000925050505b949350505050565b6000601260ff831681101561492c5761490f8184615cbd565b61491a90600a615dbd565b6149249085615b75565b915050612d75565b8060ff168360ff161015614959576149448382615cbd565b61494f90600a615dbd565b6149249085615b31565b83915050612d75565b5092915050565b60008061497586614d07565b905060008060008560ff1660000361499b57836020015161ffff16925060079150614a22565b8560ff166001036149d2576149c0846080015161ffff168560a0015161ffff16614f9e565b845161ffff1693509150819050614a22565b8560ff16600203614a06576149f7846060015161ffff16856080015161ffff16615024565b61ffff169250605a9150614a22565b8560ff16600303614a2257836060015161ffff16925061016d91505b8560ff16600103614add57600061016d614a3d89600c615b75565b614a479190615b31565b9050838964ffffffffff1614158015614a6657508864ffffffffff1684115b15614a9757614a7c64ffffffffff8a1685615bac565b614a869084615bac565b614a909082615b75565b9750614ad7565b838964ffffffffff1614158015614ab457508864ffffffffff1684105b15614ad757614aca8464ffffffffff8b16615bac565b614ad49082615b75565b97505b50614ba5565b60ff86161580614af057508560ff166002145b80614afe57508560ff166003145b15614ba557828864ffffffffff1614158015614b2057508764ffffffffff1683115b15614b5b57614b3664ffffffffff891684615bac565b614b409083615bac565b614b4a8389615b31565b614b549190615b75565b9650614ba5565b828864ffffffffff1614158015614b7857508764ffffffffff1683105b15614ba557614b8e8364ffffffffff8a16615bac565b614b988389615b31565b614ba29190615b75565b96505b5094979650505050505050565b6000828152600b602052604081208054909190815b81811015614c4057846001600160a01b0316848281548110614beb57614beb615aa0565b6000918252602090912001546001600160a01b031603614c3857809250838181548110614c1a57614c1a615aa0565b600091825260209091200180546001600160a01b0319169055614c40565b600101614bc7565b5082548390614c5190600190615bac565b81548110614c6157614c61615aa0565b9060005260206000200160009054906101000a90046001600160a01b0316838381548110614c9157614c91615aa0565b9060005260206000200160006101000a8154816001600160a01b0302191690836001600160a01b0316021790555082805480614ccf57614ccf615dcc565b600082815260209020810160001990810180546001600160a01b03191690550190555050505050565b6000612d756201518083615de2565b6040805160c081018252600080825260208201819052918101829052606081018290526080810182905260a0810182905290614d466201518084615b31565b90506000808281614d5a8262010bd9615e0c565b614d679062253d8c615e0c565b9050600062023ab1614d7a836004615e34565b614d849190615e64565b90506004614d958262023ab1615e34565b614da0906003615e0c565b614daa9190615e64565b614db49083615e92565b9150600062164b09614dc7846001615e0c565b614dd390610fa0615e34565b614ddd9190615e64565b90506004614ded826105b5615e34565b614df79190615e64565b614e019084615e92565b614e0c90601f615e0c565b9250600061098f614e1e856050615e34565b614e289190615e64565b905060006050614e3a8361098f615e34565b614e449190615e64565b614e4e9086615e92565b9050614e5b600b83615e64565b9450614e6885600c615e34565b614e73836002615e0c565b614e7d9190615e92565b91508483614e8c603187615e92565b614e97906064615e34565b614ea19190615e0c565b614eab9190615e0c565b909750915086828282600060015b838111614f0557838103614edc57614ed561ffff8e1683615b45565b9150614ef3565b614ee68585614f9e565b614ef09083615b45565b91505b80614efd81615bbf565b915050614eb9565b50809a50614f178b61ffff1685615024565b61ffff1660408f0152614f298f6150e8565b8e6020019061ffff16908161ffff16815250508b8e6000019061ffff16908161ffff16815250508a8e6060019061ffff16908161ffff1681525050838e6080019061ffff16908161ffff1681525050828e60a0019061ffff16908161ffff168152505050505050505050505050505050919050565b60008160011480614faf5750816003145b80614fba5750816005145b80614fc55750816007145b80614fd05750816008145b80614fdb575081600a145b80614fe6575081600c145b15614ff35750601f612d75565b816002146150035750601e612d75565b61500c8361511e565b61501757601c61501a565b601d5b60ff169392505050565b6000806150308361511e565b1561503d57506001615041565b5060005b61504c81605a615b45565b841161505a57839150614962565b8361506682605a615b45565b10801561507d57506150798160b5615b45565b8411155b1561509e5761508d81605a615b45565b6150979085615bac565b9150614962565b836150aa8260b5615b45565b1080156150c257506150be81610111615b45565b8411155b156150d25761508d8160b5615b45565b6150de81610111615b45565b6148ee9085615bac565b6000806150f86201518084615b31565b905060006007615109836003615b45565b6151139190615eb2565b6148ee906001615b45565b600061512b600483615eb2565b158015615141575061513e606483615eb2565b15155b80612d75575061515361019083615eb2565b1592915050565b6001600160a01b038116811461516f57600080fd5b50565b803561517d8161515a565b919050565b60006040828403121561519457600080fd5b50919050565b80356004811061517d57600080fd5b803561ffff8116811461517d57600080fd5b600080600080600060a086880312156151d357600080fd5b8535945060208601356151e58161515a565b9350604086013567ffffffffffffffff81111561520157600080fd5b61520d88828901615182565b93505061521c6060870161519a565b915061522a608087016151a9565b90509295509295909350565b60006020828403121561524857600080fd5b5035919050565b60008060006060848603121561526457600080fd5b833592506152746020850161519a565b9150615282604085016151a9565b90509250925092565b634e487b7160e01b600052602160045260246000fd5b600481106152b1576152b161528b565b9052565b80518252602081015160208301526001600160a01b0360408201511660408301526001600160a01b03606082015116606083015260808101511515608083015260a081015161530860a084018215159052565b5060c081015161531b60c08401826152a1565b5060e0810151613db460e084018261ffff169052565b6101008101612d7582846152b5565b600061010082840312801561535457600080fd5b509092915050565b634e487b7160e01b600052604160045260246000fd5b604051610100810167ffffffffffffffff811182821017156153965761539661535c565b60405290565b60405160c0810167ffffffffffffffff811182821017156153965761539661535c565b801515811461516f57600080fd5b803561517d816153bf565b600061010082840312156153eb57600080fd5b6153f3615372565b8235815260208084013590820152905060408201356154118161515a565b604082015261542260608301615172565b6060820152615433608083016153cd565b608082015261544460a083016153cd565b60a082015261545560c0830161519a565b60c082015261546660e083016151a9565b60e082015292915050565b6000610100828403121561548457600080fd5b61548e83836153d8565b9392505050565b6000806000606084860312156154aa57600080fd5b83356154b58161515a565b925060208401359150604084013560ff811681146154d257600080fd5b809150509250925092565b602080825282518282018190526000918401906040840190835b8181101561552a57835180516001600160a01b0316845260209081015181850152909301926040909201916001016154f7565b509095945050505050565b6000806040838503121561554857600080fd5b8235615553816153bf565b915060208301356155638161515a565b809150509250929050565b600381106152b1576152b161528b565b602080825282518282018190526000918401906040840190835b8181101561552a5783516155ad8482516152b5565b60208101516155c061010086018261556e565b50604001516101208401526020939093019261014090920191600101615598565b6000602082840312156155f357600080fd5b813561548e8161515a565b600080610120838503121561561257600080fd5b61561c84846153d8565b91506101008301356155638161515a565b60006020828403121561563f57600080fd5b813561548e816153bf565b6000806040838503121561565d57600080fd5b823567ffffffffffffffff81111561567457600080fd5b61568085828601615182565b95602094909401359450505050565b602080825282518282018190526000918401906040840190835b8181101561552a578351805184526020908101516001600160a01b031681850152909301926040909201916001016156a9565b600080604083850312156156ef57600080fd5b8235915060208301356155638161515a565b600082601f83011261571257600080fd5b813567ffffffffffffffff81111561572c5761572c61535c565b604051601f8201601f19908116603f0116810167ffffffffffffffff8111828210171561575b5761575b61535c565b60405281815283820160200185101561577357600080fd5b816020850160208301376000918101602001919091529392505050565b6000602082840312156157a257600080fd5b813567ffffffffffffffff8111156157b957600080fd5b820160c081850312156157cb57600080fd5b6157d361539c565b813567ffffffffffffffff8111156157ea57600080fd5b6157f686828501615701565b825250602082013567ffffffffffffffff81111561581357600080fd5b61581f86828501615701565b602083015250604082013567ffffffffffffffff81111561583f57600080fd5b61584b86828501615701565b604083015250606082013567ffffffffffffffff81111561586b57600080fd5b61587786828501615701565b606083015250608082013567ffffffffffffffff81111561589757600080fd5b6158a386828501615701565b60808301525060a082013567ffffffffffffffff8111156158c357600080fd5b6158cf86828501615701565b60a083015250949350505050565b600081518084526020840193506020830160005b8281101561594b5781518051875261ffff6020820151166020880152604081015161591f60408901826152a1565b5060608101519050615934606088018261556e565b5060809590950194602091909101906001016158f1565b5093949350505050565b602081526001600160a01b038251166020820152602082015115156040820152600060408301516080606084015261599060a08401826158dd565b90506060840151601f198483030160808501526159ad82826158dd565b95945050505050565b6000808335601e198436030181126159cd57600080fd5b83018035915067ffffffffffffffff8211156159e857600080fd5b6020019150368190038213156159fd57600080fd5b9250929050565b81835281816020850137506000828201602090810191909152601f909101601f19169091010190565b604081526000615a41604083018688615a04565b8281036020840152615a54818587615a04565b979650505050505050565b600a81106152b1576152b161528b565b64ffffffffff85168152602081018490526001600160a01b0383166040820152608081016159ad6060830184615a5f565b634e487b7160e01b600052603260045260246000fd5b600060208284031215615ac857600080fd5b61548e826151a9565b600060208284031215615ae357600080fd5b61548e8261519a565b600060208284031215615afe57600080fd5b5051919050565b634e487b7160e01b600052601260045260246000fd5b634e487b7160e01b600052601160045260246000fd5b600082615b4057615b40615b05565b500490565b80820180821115612d7557612d75615b1b565b600060208284031215615b6a57600080fd5b815161548e816153bf565b8082028115828204841417612d7557612d75615b1b565b64ffffffffff818116838216029081169081811461496257614962615b1b565b81810381811115612d7557612d75615b1b565b600060018201615bd157615bd1615b1b565b5060010190565b64ffffffffff8181168382160190811115612d7557612d75615b1b565b6000815180845260005b81811015615c1b57602081850181015186830182015201615bff565b506000602082860101526020601f19601f83011685010191505092915050565b60c081526000615c4e60c0830189615bf5565b8281036020840152615c608189615bf5565b90508281036040840152615c748188615bf5565b90508281036060840152615c888187615bf5565b90508281036080840152615c9c8186615bf5565b905082810360a0840152615cb08185615bf5565b9998505050505050505050565b60ff8281168282160390811115612d7557612d75615b1b565b6001815b6001841115615d1157808504811115615cf557615cf5615b1b565b6001841615615d0357908102905b60019390931c928002615cda565b935093915050565b600082615d2857506001612d75565b81615d3557506000612d75565b8160018114615d4b5760028114615d5557615d71565b6001915050612d75565b60ff841115615d6657615d66615b1b565b50506001821b612d75565b5060208310610133831016604e8410600b8410161715615d94575081810a612d75565b615da16000198484615cd6565b8060001904821115615db557615db5615b1b565b029392505050565b600061548e60ff841683615d19565b634e487b7160e01b600052603160045260246000fd5b600064ffffffffff831680615df957615df9615b05565b8064ffffffffff84160491505092915050565b8082018281126000831280158216821582161715615e2c57615e2c615b1b565b505092915050565b80820260008212600160ff1b84141615615e5057615e50615b1b565b8181058314821517612d7557612d75615b1b565b600082615e7357615e73615b05565b600160ff1b821460001984141615615e8d57615e8d615b1b565b500590565b818103600083128015838313168383128216171561496257614962615b1b565b600082615ec157615ec1615b05565b50069056feca6b824caf1a48ea2ad039dbb063460fa30e9c3cc255eeb52240d638ec6de65ea264697066735822122071c3e63a3c7a87b37e5a2ad739928ab354bb973827205575d2f0af89d4f4042664736f6c634300081b0033",
  "linkReferences": {},
  "deployedLinkReferences": {}
}