{
  "_format": "hh-sol-artifact-1",
  "contractName": "ClockTowerSubscribe",
  "sourceName": "contracts/ClockTowerSubscribe.sol",
  "abi": [
    {
      "inputs": [
        {
          "internalType": "uint256",
          "name": "callerFee_",
          "type": "uint256"
        },
        {
          "internalType": "uint256",
          "name": "systemFee_",
          "type": "uint256"
        },
        {
          "internalType": "uint256",
          "name": "maxRemits_",
          "type": "uint256"
        },
        {
          "internalType": "uint256",
          "name": "cancelLimit_",
          "type": "uint256"
        },
        {
          "internalType": "bool",
          "name": "allowSystemFee_",
          "type": "bool"
        },
        {
          "internalType": "address",
          "name": "admin_",
          "type": "address"
        }
      ],
      "stateMutability": "nonpayable",
      "type": "constructor"
    },
    {
      "inputs": [
        {
          "internalType": "address",
          "name": "owner",
          "type": "address"
        }
      ],
      "name": "OwnableInvalidOwner",
      "type": "error"
    },
    {
      "inputs": [
        {
          "internalType": "address",
          "name": "account",
          "type": "address"
        }
      ],
      "name": "OwnableUnauthorizedAccount",
      "type": "error"
    },
    {
      "inputs": [
        {
          "internalType": "address",
          "name": "token",
          "type": "address"
        }
      ],
      "name": "SafeERC20FailedOperation",
      "type": "error"
    },
    {
      "anonymous": false,
      "inputs": [
        {
          "indexed": true,
          "internalType": "uint40",
          "name": "timestamp",
          "type": "uint40"
        },
        {
          "indexed": true,
          "internalType": "uint40",
          "name": "checkedDay",
          "type": "uint40"
        },
        {
          "indexed": true,
          "internalType": "address",
          "name": "caller",
          "type": "address"
        },
        {
          "indexed": false,
          "internalType": "bool",
          "name": "isFinished",
          "type": "bool"
        }
      ],
      "name": "CallerLog",
      "type": "event"
    },
    {
      "anonymous": false,
      "inputs": [
        {
          "indexed": true,
          "internalType": "bytes32",
          "name": "id",
          "type": "bytes32"
        },
        {
          "indexed": false,
          "internalType": "uint256",
          "name": "subscriberIndex",
          "type": "uint256"
        },
        {
          "indexed": false,
          "internalType": "uint256",
          "name": "subscriptionIndex",
          "type": "uint256"
        },
        {
          "indexed": false,
          "internalType": "uint256",
          "name": "frequency",
          "type": "uint256"
        },
        {
          "indexed": true,
          "internalType": "uint40",
          "name": "nextUncheckedDay",
          "type": "uint40"
        }
      ],
      "name": "Coordinates",
      "type": "event"
    },
    {
      "anonymous": false,
      "inputs": [
        {
          "indexed": true,
          "internalType": "bytes32",
          "name": "id",
          "type": "bytes32"
        },
        {
          "indexed": true,
          "internalType": "address",
          "name": "provider",
          "type": "address"
        },
        {
          "indexed": true,
          "internalType": "uint40",
          "name": "timestamp",
          "type": "uint40"
        },
        {
          "indexed": false,
          "internalType": "string",
          "name": "url",
          "type": "string"
        },
        {
          "indexed": false,
          "internalType": "string",
          "name": "description",
          "type": "string"
        }
      ],
      "name": "DetailsLog",
      "type": "event"
    },
    {
      "anonymous": false,
      "inputs": [
        {
          "indexed": true,
          "internalType": "address",
          "name": "previousOwner",
          "type": "address"
        },
        {
          "indexed": true,
          "internalType": "address",
          "name": "newOwner",
          "type": "address"
        }
      ],
      "name": "OwnershipTransferStarted",
      "type": "event"
    },
    {
      "anonymous": false,
      "inputs": [
        {
          "indexed": true,
          "internalType": "address",
          "name": "previousOwner",
          "type": "address"
        },
        {
          "indexed": true,
          "internalType": "address",
          "name": "newOwner",
          "type": "address"
        }
      ],
      "name": "OwnershipTransferred",
      "type": "event"
    },
    {
      "anonymous": false,
      "inputs": [
        {
          "indexed": true,
          "internalType": "address",
          "name": "provider",
          "type": "address"
        },
        {
          "indexed": true,
          "internalType": "uint40",
          "name": "timestamp",
          "type": "uint40"
        },
        {
          "indexed": true,
          "internalType": "string",
          "name": "description",
          "type": "string"
        },
        {
          "indexed": false,
          "internalType": "string",
          "name": "company",
          "type": "string"
        },
        {
          "indexed": false,
          "internalType": "string",
          "name": "url",
          "type": "string"
        },
        {
          "indexed": false,
          "internalType": "string",
          "name": "domain",
          "type": "string"
        },
        {
          "indexed": false,
          "internalType": "string",
          "name": "email",
          "type": "string"
        },
        {
          "indexed": false,
          "internalType": "string",
          "name": "misc",
          "type": "string"
        }
      ],
      "name": "ProvDetailsLog",
      "type": "event"
    },
    {
      "anonymous": false,
      "inputs": [
        {
          "indexed": true,
          "internalType": "bytes32",
          "name": "id",
          "type": "bytes32"
        },
        {
          "indexed": true,
          "internalType": "address",
          "name": "provider",
          "type": "address"
        },
        {
          "indexed": true,
          "internalType": "address",
          "name": "subscriber",
          "type": "address"
        },
        {
          "indexed": false,
          "internalType": "uint40",
          "name": "timestamp",
          "type": "uint40"
        },
        {
          "indexed": false,
          "internalType": "uint256",
          "name": "amount",
          "type": "uint256"
        },
        {
          "indexed": false,
          "internalType": "address",
          "name": "token",
          "type": "address"
        },
        {
          "indexed": false,
          "internalType": "enum ClockTowerSubscribe.SubscriptEvent",
          "name": "subScriptEvent",
          "type": "uint8"
        }
      ],
      "name": "SubLog",
      "type": "event"
    },
    {
      "inputs": [],
      "name": "acceptOwnership",
      "outputs": [],
      "stateMutability": "nonpayable",
      "type": "function"
    },
    {
      "inputs": [
        {
          "internalType": "address",
          "name": "erc20Contract",
          "type": "address"
        },
        {
          "internalType": "uint256",
          "name": "minimum",
          "type": "uint256"
        },
        {
          "internalType": "uint8",
          "name": "decimals",
          "type": "uint8"
        }
      ],
      "name": "addERC20Contract",
      "outputs": [],
      "stateMutability": "nonpayable",
      "type": "function"
    },
    {
      "inputs": [
        {
          "internalType": "address",
          "name": "",
          "type": "address"
        }
      ],
      "name": "approvedERC20",
      "outputs": [
        {
          "internalType": "address",
          "name": "tokenAddress",
          "type": "address"
        },
        {
          "internalType": "uint8",
          "name": "decimals",
          "type": "uint8"
        },
        {
          "internalType": "bool",
          "name": "paused",
          "type": "bool"
        },
        {
          "internalType": "uint256",
          "name": "minimum",
          "type": "uint256"
        }
      ],
      "stateMutability": "view",
      "type": "function"
    },
    {
      "inputs": [
        {
          "components": [
            {
              "internalType": "bytes32",
              "name": "id",
              "type": "bytes32"
            },
            {
              "internalType": "uint256",
              "name": "amount",
              "type": "uint256"
            },
            {
              "internalType": "address",
              "name": "provider",
              "type": "address"
            },
            {
              "internalType": "address",
              "name": "token",
              "type": "address"
            },
            {
              "internalType": "bool",
              "name": "cancelled",
              "type": "bool"
            },
            {
              "internalType": "enum ClockTowerSubscribe.Frequency",
              "name": "frequency",
              "type": "uint8"
            },
            {
              "internalType": "uint16",
              "name": "dueDay",
              "type": "uint16"
            }
          ],
          "internalType": "struct ClockTowerSubscribe.Subscription",
          "name": "subscription",
          "type": "tuple"
        }
      ],
      "name": "batchUnsubscribeByProvider",
      "outputs": [],
      "stateMutability": "nonpayable",
      "type": "function"
    },
    {
      "inputs": [],
      "name": "callerFee",
      "outputs": [
        {
          "internalType": "uint256",
          "name": "",
          "type": "uint256"
        }
      ],
      "stateMutability": "view",
      "type": "function"
    },
    {
      "inputs": [],
      "name": "cancelLimit",
      "outputs": [
        {
          "internalType": "uint256",
          "name": "",
          "type": "uint256"
        }
      ],
      "stateMutability": "view",
      "type": "function"
    },
    {
      "inputs": [
        {
          "components": [
            {
              "internalType": "bytes32",
              "name": "id",
              "type": "bytes32"
            },
            {
              "internalType": "uint256",
              "name": "amount",
              "type": "uint256"
            },
            {
              "internalType": "address",
              "name": "provider",
              "type": "address"
            },
            {
              "internalType": "address",
              "name": "token",
              "type": "address"
            },
            {
              "internalType": "bool",
              "name": "cancelled",
              "type": "bool"
            },
            {
              "internalType": "enum ClockTowerSubscribe.Frequency",
              "name": "frequency",
              "type": "uint8"
            },
            {
              "internalType": "uint16",
              "name": "dueDay",
              "type": "uint16"
            }
          ],
          "internalType": "struct ClockTowerSubscribe.Subscription",
          "name": "subscription",
          "type": "tuple"
        }
      ],
      "name": "cancelSubscription",
      "outputs": [],
      "stateMutability": "nonpayable",
      "type": "function"
    },
    {
      "inputs": [
        {
          "internalType": "uint256",
          "name": "_fee",
          "type": "uint256"
        }
      ],
      "name": "changeCallerFee",
      "outputs": [],
      "stateMutability": "nonpayable",
      "type": "function"
    },
    {
      "inputs": [
        {
          "internalType": "uint256",
          "name": "_maxRemits",
          "type": "uint256"
        }
      ],
      "name": "changeMaxRemits",
      "outputs": [],
      "stateMutability": "nonpayable",
      "type": "function"
    },
    {
      "inputs": [
        {
          "internalType": "address",
          "name": "newSysFeeAddress",
          "type": "address"
        }
      ],
      "name": "changeSysFeeReceiver",
      "outputs": [],
      "stateMutability": "nonpayable",
      "type": "function"
    },
    {
      "inputs": [
        {
          "internalType": "uint256",
          "name": "_sys_fee",
          "type": "uint256"
        }
      ],
      "name": "changeSystemFee",
      "outputs": [],
      "stateMutability": "nonpayable",
      "type": "function"
    },
    {
      "inputs": [
        {
          "internalType": "uint256",
          "name": "amount",
          "type": "uint256"
        },
        {
          "internalType": "address",
          "name": "token",
          "type": "address"
        },
        {
          "components": [
            {
              "internalType": "string",
              "name": "url",
              "type": "string"
            },
            {
              "internalType": "string",
              "name": "description",
              "type": "string"
            }
          ],
          "internalType": "struct ClockTowerSubscribe.Details",
          "name": "details",
          "type": "tuple"
        },
        {
          "internalType": "enum ClockTowerSubscribe.Frequency",
          "name": "frequency",
          "type": "uint8"
        },
        {
          "internalType": "uint16",
          "name": "dueDay",
          "type": "uint16"
        }
      ],
      "name": "createSubscription",
      "outputs": [],
      "stateMutability": "nonpayable",
      "type": "function"
    },
    {
      "inputs": [
        {
          "components": [
            {
              "internalType": "string",
              "name": "url",
              "type": "string"
            },
            {
              "internalType": "string",
              "name": "description",
              "type": "string"
            }
          ],
          "internalType": "struct ClockTowerSubscribe.Details",
          "name": "details",
          "type": "tuple"
        },
        {
          "internalType": "bytes32",
          "name": "id",
          "type": "bytes32"
        }
      ],
      "name": "editDetails",
      "outputs": [],
      "stateMutability": "nonpayable",
      "type": "function"
    },
    {
      "inputs": [
        {
          "components": [
            {
              "internalType": "string",
              "name": "description",
              "type": "string"
            },
            {
              "internalType": "string",
              "name": "company",
              "type": "string"
            },
            {
              "internalType": "string",
              "name": "url",
              "type": "string"
            },
            {
              "internalType": "string",
              "name": "domain",
              "type": "string"
            },
            {
              "internalType": "string",
              "name": "email",
              "type": "string"
            },
            {
              "internalType": "string",
              "name": "misc",
              "type": "string"
            }
          ],
          "internalType": "struct ClockTowerSubscribe.ProviderDetails",
          "name": "details",
          "type": "tuple"
        }
      ],
      "name": "editProvDetails",
      "outputs": [],
      "stateMutability": "nonpayable",
      "type": "function"
    },
    {
      "inputs": [
        {
          "internalType": "bytes32",
          "name": "",
          "type": "bytes32"
        },
        {
          "internalType": "address",
          "name": "",
          "type": "address"
        }
      ],
      "name": "feeBalance",
      "outputs": [
        {
          "internalType": "uint256",
          "name": "",
          "type": "uint256"
        }
      ],
      "stateMutability": "view",
      "type": "function"
    },
    {
      "inputs": [],
      "name": "feeEstimate",
      "outputs": [
        {
          "components": [
            {
              "internalType": "uint256",
              "name": "fee",
              "type": "uint256"
            },
            {
              "internalType": "address",
              "name": "token",
              "type": "address"
            }
          ],
          "internalType": "struct ClockTowerSubscribe.FeeEstimate[]",
          "name": "",
          "type": "tuple[]"
        }
      ],
      "stateMutability": "view",
      "type": "function"
    },
    {
      "inputs": [
        {
          "internalType": "address",
          "name": "account",
          "type": "address"
        }
      ],
      "name": "getAccount",
      "outputs": [
        {
          "components": [
            {
              "internalType": "address",
              "name": "accountAddress",
              "type": "address"
            },
            {
              "components": [
                {
                  "internalType": "bytes32",
                  "name": "id",
                  "type": "bytes32"
                },
                {
                  "internalType": "uint16",
                  "name": "dueDay",
                  "type": "uint16"
                },
                {
                  "internalType": "enum ClockTowerSubscribe.Frequency",
                  "name": "frequency",
                  "type": "uint8"
                },
                {
                  "internalType": "enum ClockTowerSubscribe.Status",
                  "name": "status",
                  "type": "uint8"
                }
              ],
              "internalType": "struct ClockTowerSubscribe.SubIndex[]",
              "name": "subscriptions",
              "type": "tuple[]"
            },
            {
              "components": [
                {
                  "internalType": "bytes32",
                  "name": "id",
                  "type": "bytes32"
                },
                {
                  "internalType": "uint16",
                  "name": "dueDay",
                  "type": "uint16"
                },
                {
                  "internalType": "enum ClockTowerSubscribe.Frequency",
                  "name": "frequency",
                  "type": "uint8"
                },
                {
                  "internalType": "enum ClockTowerSubscribe.Status",
                  "name": "status",
                  "type": "uint8"
                }
              ],
              "internalType": "struct ClockTowerSubscribe.SubIndex[]",
              "name": "provSubs",
              "type": "tuple[]"
            }
          ],
          "internalType": "struct ClockTowerSubscribe.Account",
          "name": "",
          "type": "tuple"
        }
      ],
      "stateMutability": "view",
      "type": "function"
    },
    {
      "inputs": [
        {
          "internalType": "bool",
          "name": "bySubscriber",
          "type": "bool"
        },
        {
          "internalType": "address",
          "name": "account",
          "type": "address"
        }
      ],
      "name": "getAccountSubscriptions",
      "outputs": [
        {
          "components": [
            {
              "components": [
                {
                  "internalType": "bytes32",
                  "name": "id",
                  "type": "bytes32"
                },
                {
                  "internalType": "uint256",
                  "name": "amount",
                  "type": "uint256"
                },
                {
                  "internalType": "address",
                  "name": "provider",
                  "type": "address"
                },
                {
                  "internalType": "address",
                  "name": "token",
                  "type": "address"
                },
                {
                  "internalType": "bool",
                  "name": "cancelled",
                  "type": "bool"
                },
                {
                  "internalType": "enum ClockTowerSubscribe.Frequency",
                  "name": "frequency",
                  "type": "uint8"
                },
                {
                  "internalType": "uint16",
                  "name": "dueDay",
                  "type": "uint16"
                }
              ],
              "internalType": "struct ClockTowerSubscribe.Subscription",
              "name": "subscription",
              "type": "tuple"
            },
            {
              "internalType": "enum ClockTowerSubscribe.Status",
              "name": "status",
              "type": "uint8"
            },
            {
              "internalType": "uint256",
              "name": "totalSubscribers",
              "type": "uint256"
            }
          ],
          "internalType": "struct ClockTowerSubscribe.SubView[]",
          "name": "",
          "type": "tuple[]"
        }
      ],
      "stateMutability": "view",
      "type": "function"
    },
    {
      "inputs": [
        {
          "internalType": "bytes32",
          "name": "id",
          "type": "bytes32"
        }
      ],
      "name": "getSubscribersById",
      "outputs": [
        {
          "components": [
            {
              "internalType": "address",
              "name": "subscriber",
              "type": "address"
            },
            {
              "internalType": "uint256",
              "name": "feeBalance",
              "type": "uint256"
            }
          ],
          "internalType": "struct ClockTowerSubscribe.SubscriberView[]",
          "name": "",
          "type": "tuple[]"
        }
      ],
      "stateMutability": "view",
      "type": "function"
    },
    {
      "inputs": [],
      "name": "getTotalSubscribers",
      "outputs": [
        {
          "internalType": "uint256",
          "name": "",
          "type": "uint256"
        }
      ],
      "stateMutability": "view",
      "type": "function"
    },
    {
      "inputs": [
        {
          "internalType": "bytes32",
          "name": "",
          "type": "bytes32"
        }
      ],
      "name": "idSubMap",
      "outputs": [
        {
          "internalType": "bytes32",
          "name": "id",
          "type": "bytes32"
        },
        {
          "internalType": "uint256",
          "name": "amount",
          "type": "uint256"
        },
        {
          "internalType": "address",
          "name": "provider",
          "type": "address"
        },
        {
          "internalType": "address",
          "name": "token",
          "type": "address"
        },
        {
          "internalType": "bool",
          "name": "cancelled",
          "type": "bool"
        },
        {
          "internalType": "enum ClockTowerSubscribe.Frequency",
          "name": "frequency",
          "type": "uint8"
        },
        {
          "internalType": "uint16",
          "name": "dueDay",
          "type": "uint16"
        }
      ],
      "stateMutability": "view",
      "type": "function"
    },
    {
      "inputs": [],
      "name": "maxRemits",
      "outputs": [
        {
          "internalType": "uint256",
          "name": "",
          "type": "uint256"
        }
      ],
      "stateMutability": "view",
      "type": "function"
    },
    {
      "inputs": [],
      "name": "nextUncheckedDay",
      "outputs": [
        {
          "internalType": "uint40",
          "name": "",
          "type": "uint40"
        }
      ],
      "stateMutability": "view",
      "type": "function"
    },
    {
      "inputs": [],
      "name": "owner",
      "outputs": [
        {
          "internalType": "address",
          "name": "",
          "type": "address"
        }
      ],
      "stateMutability": "view",
      "type": "function"
    },
    {
      "inputs": [
        {
          "internalType": "address",
          "name": "_tokenAddress",
          "type": "address"
        },
        {
          "internalType": "bool",
          "name": "pause",
          "type": "bool"
        }
      ],
      "name": "pauseToken",
      "outputs": [],
      "stateMutability": "nonpayable",
      "type": "function"
    },
    {
      "inputs": [],
      "name": "pendingOwner",
      "outputs": [
        {
          "internalType": "address",
          "name": "",
          "type": "address"
        }
      ],
      "stateMutability": "view",
      "type": "function"
    },
    {
      "inputs": [],
      "name": "remit",
      "outputs": [],
      "stateMutability": "nonpayable",
      "type": "function"
    },
    {
      "inputs": [],
      "name": "renounceOwnership",
      "outputs": [],
      "stateMutability": "nonpayable",
      "type": "function"
    },
    {
      "inputs": [
        {
          "internalType": "uint256",
          "name": "_cancelLimit",
          "type": "uint256"
        }
      ],
      "name": "setCancelLimit",
      "outputs": [],
      "stateMutability": "nonpayable",
      "type": "function"
    },
    {
      "inputs": [
        {
          "internalType": "uint40",
          "name": "_nextUncheckedDay",
          "type": "uint40"
        }
      ],
      "name": "setNextUncheckedDay",
      "outputs": [],
      "stateMutability": "nonpayable",
      "type": "function"
    },
    {
      "inputs": [
        {
          "components": [
            {
              "internalType": "bytes32",
              "name": "id",
              "type": "bytes32"
            },
            {
              "internalType": "uint256",
              "name": "subscriberIndex",
              "type": "uint256"
            },
            {
              "internalType": "uint256",
              "name": "subscriptionIndex",
              "type": "uint256"
            },
            {
              "internalType": "uint256",
              "name": "frequency",
              "type": "uint256"
            },
            {
              "internalType": "bool",
              "name": "initialized",
              "type": "bool"
            }
          ],
          "internalType": "struct ClockTowerSubscribe.PageStart",
          "name": "_pageStart",
          "type": "tuple"
        }
      ],
      "name": "setPageStart",
      "outputs": [],
      "stateMutability": "nonpayable",
      "type": "function"
    },
    {
      "inputs": [
        {
          "components": [
            {
              "internalType": "bytes32",
              "name": "id",
              "type": "bytes32"
            },
            {
              "internalType": "uint256",
              "name": "amount",
              "type": "uint256"
            },
            {
              "internalType": "address",
              "name": "provider",
              "type": "address"
            },
            {
              "internalType": "address",
              "name": "token",
              "type": "address"
            },
            {
              "internalType": "bool",
              "name": "cancelled",
              "type": "bool"
            },
            {
              "internalType": "enum ClockTowerSubscribe.Frequency",
              "name": "frequency",
              "type": "uint8"
            },
            {
              "internalType": "uint16",
              "name": "dueDay",
              "type": "uint16"
            }
          ],
          "internalType": "struct ClockTowerSubscribe.Subscription",
          "name": "subscription",
          "type": "tuple"
        }
      ],
      "name": "subscribe",
      "outputs": [],
      "stateMutability": "nonpayable",
      "type": "function"
    },
    {
      "inputs": [],
      "name": "systemFee",
      "outputs": [
        {
          "internalType": "uint256",
          "name": "",
          "type": "uint256"
        }
      ],
      "stateMutability": "view",
      "type": "function"
    },
    {
      "inputs": [
        {
          "internalType": "bool",
          "name": "status",
          "type": "bool"
        }
      ],
      "name": "systemFeeActivate",
      "outputs": [],
      "stateMutability": "nonpayable",
      "type": "function"
    },
    {
      "inputs": [
        {
          "internalType": "address",
          "name": "newOwner",
          "type": "address"
        }
      ],
      "name": "transferOwnership",
      "outputs": [],
      "stateMutability": "nonpayable",
      "type": "function"
    },
    {
      "inputs": [
        {
          "components": [
            {
              "internalType": "bytes32",
              "name": "id",
              "type": "bytes32"
            },
            {
              "internalType": "uint256",
              "name": "amount",
              "type": "uint256"
            },
            {
              "internalType": "address",
              "name": "provider",
              "type": "address"
            },
            {
              "internalType": "address",
              "name": "token",
              "type": "address"
            },
            {
              "internalType": "bool",
              "name": "cancelled",
              "type": "bool"
            },
            {
              "internalType": "enum ClockTowerSubscribe.Frequency",
              "name": "frequency",
              "type": "uint8"
            },
            {
              "internalType": "uint16",
              "name": "dueDay",
              "type": "uint16"
            }
          ],
          "internalType": "struct ClockTowerSubscribe.Subscription",
          "name": "subscription",
          "type": "tuple"
        }
      ],
      "name": "unsubscribe",
      "outputs": [],
      "stateMutability": "nonpayable",
      "type": "function"
    },
    {
      "inputs": [
        {
          "components": [
            {
              "internalType": "bytes32",
              "name": "id",
              "type": "bytes32"
            },
            {
              "internalType": "uint256",
              "name": "amount",
              "type": "uint256"
            },
            {
              "internalType": "address",
              "name": "provider",
              "type": "address"
            },
            {
              "internalType": "address",
              "name": "token",
              "type": "address"
            },
            {
              "internalType": "bool",
              "name": "cancelled",
              "type": "bool"
            },
            {
              "internalType": "enum ClockTowerSubscribe.Frequency",
              "name": "frequency",
              "type": "uint8"
            },
            {
              "internalType": "uint16",
              "name": "dueDay",
              "type": "uint16"
            }
          ],
          "internalType": "struct ClockTowerSubscribe.Subscription",
          "name": "subscription",
          "type": "tuple"
        },
        {
          "internalType": "address",
          "name": "subscriber",
          "type": "address"
        }
      ],
      "name": "unsubscribeByProvider",
      "outputs": [],
      "stateMutability": "nonpayable",
      "type": "function"
    }
  ],
  "bytecode": "0x608060405234801561000f575f5ffd5b5060405161555738038061555783398101604081905261002e916101c2565b806001600160a01b03811661005c57604051631e4fbdf760e01b81525f600482015260240160405180910390fd5b61006581610143565b506001600160a01b038116610078575f5ffd5b612710861015801561008c5750612a518611155b610094575f5ffd5b61271085101580156100a85750614e1f8511155b6100b0575f5ffd5b6002868155600386905560058490556004859055600b805460ff60d01b1916600160d01b851515021790556100e44261015f565b6100ee919061022e565b600b80546001600160a01b03909316660100000000000002600160301b600160d01b031964ffffffffff939093166101000292909216610100600160d01b0319909316929092171790555061028c9350505050565b600180546001600160a01b031916905561015c81610173565b50565b5f61016d6201518083610257565b92915050565b5f80546001600160a01b038381166001600160a01b0319831681178455604051919092169283917f8be0079c531659141344cd1fd0a4f28419497f9722a3daafe3b4186f6b6457e09190a35050565b5f5f5f5f5f5f60c087890312156101d7575f5ffd5b86516020880151604089015160608a015160808b0151939950919750955093508015158114610204575f5ffd5b60a08801519092506001600160a01b0381168114610220575f5ffd5b809150509295509295509295565b64ffffffffff828116828216039081111561016d57634e487b7160e01b5f52601160045260245ffd5b5f64ffffffffff83168061027957634e487b7160e01b5f52601260045260245ffd5b8064ffffffffff84160491505092915050565b6152be806102995f395ff3fe608060405234801561000f575f5ffd5b506004361061021d575f3560e01c80637ee1bfb91161012a578063d10f9e69116100b4578063e63d35be11610079578063e63d35be14610554578063ebec6eaa14610569578063ed601d2814610593578063f2fde38b146105a6578063fbcbc0f1146105b9575f5ffd5b8063d10f9e69146104de578063d57ade5a146104f1578063da854a9614610504578063e0a177f314610530578063e30c397814610543575f5ffd5b80639889552e116100fa5780639889552e1461042e578063ac2b4e6314610441578063b25ae32c14610454578063bd7438861461045c578063cab1c965146104d5575f5ffd5b80637ee1bfb9146103c457806386525a00146103d75780638da5cb5b146103f75780638ef0ef1c1461041b575f5ffd5b806334d441d0116101ab578063715018a61161017b578063715018a6146103795780637507ba391461038157806379ba5097146103895780637b7c5f17146103915780637bbf5a6e146103a4575f5ffd5b806334d441d0146103375780634a1268b814610340578063598bff3514610353578063668c1e8a14610366575f5ffd5b806312c99cf5116101f157806312c99cf5146102de57806316e8b850146102f15780631f17ee551461030857806325c227191461031157806327ea977314610324575f5ffd5b8062b7097714610221578063038c9c0e146102a35780630b8590c7146102b85780630bec99e8146102cb575b5f5ffd5b61028761022f36600461454d565b60156020525f90815260409020805460018201546002830154600390930154919290916001600160a01b039182169181169060ff600160a01b8204811691600160a81b81049091169061ffff600160b01b9091041687565b60405161029a979695949392919061458c565b60405180910390f35b6102b66102b13660046145dc565b6105d9565b005b6102b66102c6366004614640565b610c87565b6102b66102d936600461454d565b611109565b6102b66102ec3660046147a6565b611132565b6102fa60055481565b60405190815260200161029a565b6102fa60035481565b6102b661031f3660046147a6565b6112bb565b6102b661033236600461454d565b6113c3565b6102fa60025481565b6102b661034e3660046147c0565b6113d0565b6102b6610361366004614802565b6114c9565b6102b66103743660046145dc565b6116b6565b6102b6611990565b6102b66119a3565b6102b6612719565b6102b661039f366004614835565b61275d565b6103b76103b236600461454d565b612789565b60405161029a9190614859565b6102b66103d23660046148b0565b6128c8565b6103ea6103e53660046148c1565b6128e2565b60405161029a91906148fb565b5f546001600160a01b03165b6040516001600160a01b03909116815260200161029a565b6102b661042936600461454d565b612c69565b6102b661043c3660046149b5565b612c92565b6102b661044f3660046149d0565b612cb8565b6102fa612d3a565b6104a361046a3660046149d0565b60186020525f9081526040902080546001909101546001600160a01b0382169160ff600160a01b8204811692600160a81b909204169084565b604080516001600160a01b03909516855260ff909316602085015290151591830191909152606082015260800161029a565b6102fa60045481565b6102b66104ec3660046149e9565b612d4a565b6102b66104ff366004614a2b565b612db9565b600b5461051a90610100900464ffffffffff1681565b60405164ffffffffff909116815260200161029a565b6102b661053e36600461454d565b612e62565b6001546001600160a01b0316610403565b61055c612e6f565b60405161029a9190614a60565b6102fa610577366004614aac565b601260209081525f928352604080842090915290825290205481565b6102b66105a1366004614b58565b6132cb565b6102b66105b43660046149d0565b61334a565b6105cc6105c73660046149d0565b6133ba565b60405161029a9190614d11565b6105e38135613849565b6106185760405162461bcd60e51b81526020600482015260016024820152603360f81b60448201526064015b60405180910390fd5b60185f61062b60808401606085016149d0565b6001600160a01b0316815260208101919091526040015f2054600160a81b900460ff16156106805760405162461bcd60e51b8152602060048201526002602482015261032360f41b604482015260640161060f565b5f6106c4602083013560188361069c60808701606088016149d0565b6001600160a01b0316815260208101919091526040015f2054600160a01b900460ff1661387b565b9050806106d760808401606085016149d0565b604051636eb1769f60e11b81523360048201523060248201526001600160a01b03919091169063dd62ed3e90604401602060405180830381865afa158015610721573d5f5f3e3d5ffd5b505050506040513d601f19601f820116820180604052508101906107459190614d65565b101580156107ca57508061075f60808401606085016149d0565b6040516370a0823160e01b81523360048201526001600160a01b0391909116906370a0823190602401602060405180830381865afa1580156107a3573d5f5f3e3d5ffd5b505050506040513d601f19601f820116820180604052508101906107c79190614d65565b10155b6107fb5760405162461bcd60e51b8152602060048201526002602482015261031360f41b604482015260640161060f565b61080b60608301604084016149d0565b6001600160a01b031633036108465760405162461bcd60e51b81526020600482015260016024820152600360fc1b604482015260640161060f565b81355f90815260146020526040902061085e906138ed565b5f036108c9576108c7823560135f61087c60c0870160a08801614d7c565b600381111561088d5761088d614564565b81526020019081526020015f205f8560c00160208101906108ae9190614d95565b61ffff16815260208101919091526040015f20906138f6565b505b81355f9081526014602052604090206108e29033613908565b6109015781355f9081526014602052604090206108ff9033613929565b505b81355f90815260166020526040902061091a9033613908565b1561093a5781355f908152601660205260409020610938903361393d565b505b604080516080810190915282358152610999906020810161096160e0860160c08701614d95565b61ffff16815260200161097a60c0860160a08701614d7c565b600381111561098b5761098b614564565b81526020015f90525f613951565b60208201356001806109b160c0860160a08701614d7c565b60038111156109c2576109c2614564565b14806109ed57505f6109da60c0860160a08701614d7c565b60038111156109eb576109eb614564565b145b15610a3857610a3142610a0660e0870160c08801614d95565b61ffff1684610a1b60c0890160a08a01614d7c565b6003811115610a2c57610a2c614564565b6139ef565b9150610adc565b6002610a4a60c0860160a08701614d7c565b6003811115610a5b57610a5b614564565b03610a8c57610a7442610a0660e0870160c08801614d95565b9150610a81600383614dd6565b915060029050610adc565b6003610a9e60c0860160a08701614d7c565b6003811115610aaf57610aaf614564565b03610adc57610ac842610a0660e0870160c08801614d95565b9150610ad5600c83614dd6565b9150600b90505b83355f90815260126020908152604080832033845290915281208054849290610b06908490614de9565b90915550339050610b1d60608601604087016149d0565b6001600160a01b031685355f5160206152695f395f51905f52426020890135610b4c60808b0160608c016149d0565b6006604051610b5e9493929190614e0c565b60405180910390a433610b7760608601604087016149d0565b6001600160a01b031685355f5160206152695f395f51905f524286610ba260808b0160608c016149d0565b6008604051610bb49493929190614e0c565b60405180910390a4610bf93330610bd88560185f61069c60808c0160608d016149d0565b610be86080890160608a016149d0565b6001600160a01b0316929190613c33565b6002610c0b60c0860160a08701614d7c565b6003811115610c1c57610c1c614564565b1480610c4857506003610c3560c0860160a08701614d7c565b6003811115610c4657610c46614564565b145b15610c8157610c8133610c6160608701604088016149d0565b610bd8610c6e8587614e3d565b60185f61069c60808c0160608d016149d0565b50505050565b6001600160a01b038416610cc15760405162461bcd60e51b81526020600482015260016024820152600d60fa1b604482015260640161060f565b6001600160a01b038085165f9081526018602052604090205416610d0b5760405162461bcd60e51b81526020600482015260016024820152603560f81b604482015260640161060f565b6001600160a01b0384165f90815260186020526040902054600160a81b900460ff1615610d5f5760405162461bcd60e51b8152602060048201526002602482015261032360f41b604482015260640161060f565b5f826003811115610d7257610d72614564565b03610dc0578061ffff165f108015610d8f575060078161ffff1611155b610dc05760405162461bcd60e51b81526020600482015260026024820152610c4d60f21b604482015260640161060f565b6001826003811115610dd457610dd4614564565b03610e22578061ffff165f108015610df15750601c8161ffff1611155b610e225760405162461bcd60e51b8152602060048201526002602482015261313560f01b604482015260640161060f565b6002826003811115610e3657610e36614564565b03610e84578061ffff165f108015610e535750605a8161ffff1611155b610e845760405162461bcd60e51b8152602060048201526002602482015261189b60f11b604482015260640161060f565b6003826003811115610e9857610e98614564565b03610ee7578061ffff165f108015610eb6575061016d8161ffff1611155b610ee75760405162461bcd60e51b8152602060048201526002602482015261313760f01b604482015260640161060f565b6001600160a01b0384165f90815260186020526040902060010154851015610f365760405162461bcd60e51b8152602060048201526002602482015261062760f31b604482015260640161060f565b5f610f4386868585613caf565b9050610f8f6040518060800160405280835f015181526020018360c0015161ffff1681526020018360a001516003811115610f8057610f80614564565b81526020015f90526001613951565b80515f9081526015602090815260409182902083518155908301516001820155908201516002820180546001600160a01b039283166001600160a01b031990911617905560608301516003808401805460808701511515600160a01b0274ffffffffffffffffffffffffffffffffffffffffff1990911693909416929092179290921780825560a085015185949390929160ff60a81b191690600160a81b90849081111561103f5761103f614564565b021790555060c091909101516003909101805461ffff909216600160b01b0261ffff60b01b19909216919091179055805164ffffffffff42169033907f93cda0785d40b289a535b99dc76d4c9cbb6d8146182861ac3ad40509398b18656110a68880614e54565b6110b360208b018b614e54565b6040516110c39493929190614ec6565b60405180910390a4805160608201516040515f92339290915f5160206152695f395f51905f52916110f99142918d918890614e0c565b60405180910390a4505050505050565b611111613db3565b61271081101580156111255750614e1f8111155b61112d575f5ffd5b600355565b805161113d90613849565b61116d5760405162461bcd60e51b81526020600482015260016024820152603360f81b604482015260640161060f565b335f818152600e60209081526040808320855184529091529020805460ff19166002179055815161119d91613ddf565b336001600160a01b031681604001516001600160a01b0316825f01515f5160206152695f395f51905f52428560200151866060015160076040516111e49493929190614e0c565b60405180910390a480515f9081526012602081815260408084203380865290835281852054865186529383528185208186529092528084209390935582840151845160608601519451939492936001600160a01b039092169290915f5160206152695f395f51905f529161125e9142918891600490614e0c565b60405180910390a460408281015160608401516001600160a01b03165f908152601860205291909120546112b791906112a2908490600160a01b900460ff1661387b565b60608501516001600160a01b03169190613e11565b5050565b8051335f908152600d602052604090206112d491613e42565b6113045760405162461bcd60e51b81526020600482015260016024820152600760fb1b604482015260640161060f565b80515f90815260166020526040812061131c906138ed565b82515f908152601460205260409020611334906138ed565b61133e9190614ef7565b90505f81116113745760405162461bcd60e51b8152602060048201526002602482015261191960f11b604482015260640161060f565b5f60055482101561138657508061138b565b506005545b5f5b81811015610c815783515f9081526014602052604081206113ae9083613e59565b90506113ba85826114c9565b5060010161138d565b6113cb613db3565b600455565b6113d8613db3565b6001600160a01b0383166113ea575f5ffd5b6001600160a01b038084165f9081526018602052604090205416156114355760405162461bcd60e51b81526020600482015260016024820152603160f81b604482015260640161060f565b604080516080810182526001600160a01b0394851680825260ff93841660208084019182525f8486018181526060860198895293815260189091529390932091518254935191511515600160a81b0260ff60a81b1992909516600160a01b0274ffffffffffffffffffffffffffffffffffffffffff1990941696169590951791909117939093161782555160019190910155565b8151335f908152600d602052604090206114e291613e42565b6115125760405162461bcd60e51b81526020600482015260016024820152600760fb1b604482015260640161060f565b81515f90815260146020526040812061152b9083613908565b1561156257506001600160a01b0381165f908152600e60209081526040808320855184529091529020805460ff1916600217905560015b806115935760405162461bcd60e51b81526020600482015260016024820152603960f81b604482015260640161060f565b825161159f9083613ddf565b816001600160a01b031683604001516001600160a01b0316845f01515f5160206152695f395f51905f52428760200151886060015160076040516115e69493929190614e0c565b60405180910390a482515f9081526012602081815260408084206001600160a01b03808816808752918452828620548951875294845282862082875290935281852094909455808701518751606089015192519495949190931692915f5160206152695f395f51905f5291611662914291889190600990614e0c565b60405180910390a460608401516001600160a01b03165f90815260186020526040902054610c819084906116a1908490600160a01b900460ff1661387b565b60608701516001600160a01b03169190613e11565b6116c08135613849565b6116f05760405162461bcd60e51b81526020600482015260016024820152603360f81b604482015260640161060f565b60055481355f90815260146020526040902061170b906138ed565b111561173e5760405162461bcd60e51b8152602060048201526002602482015261323160f01b604482015260640161060f565b61174e60608201604083016149d0565b6001600160a01b0316336001600160a01b0316146117935760405162461bcd60e51b8152602060048201526002602482015261313360f01b604482015260640161060f565b6117a360a08201608083016149b5565b156117ac575f5ffd5b335f908152600f60209081526040808320843584528252808320805460ff1916600117905560149091528120905b82355f9081526014602052604090206117f2906138ed565b81101561192b575f6118048383613e59565b84355f9081526012602090815260408083206001600160a01b038516808552925291829020549293509061183e90606088019088016149d0565b6001600160a01b031686355f5160206152695f395f51905f52428561186960808c0160608d016149d0565b600960405161187b9493929190614e0c565b60405180910390a484355f9081526012602090815260408083206001600160a01b038616845290915281208190556118e89083906118c890849060189061069c60808c0160608d016149d0565b6118d86080890160608a016149d0565b6001600160a01b03169190613e11565b6001600160a01b0382165f908152600e6020908152604080832088358085529252909120805460ff191660011790556119219083613ddf565b50506001016117da565b5081355f818152601560205260408120600301805460ff60a01b1916600160a01b1790559033905f5160206152695f395f51905f5242846119726080890160608a016149d0565b60016040516119849493929190614e0c565b60405180910390a45050565b611998613db3565b6119a15f613e64565b565b60ff5f5c16156119da5760405162461bcd60e51b8152602060048201526002602482015261313960f01b604482015260640161060f565b60015f805c60ff19168217905d505f6119f242613e7d565b600b5490915064ffffffffff61010090910481169082161015611a3b5760405162461bcd60e51b81526020600482015260016024820152601b60f91b604482015260640161060f565b6040805160c0810182525f80825260208201819052918101829052606081018290526080810182905260a0810191909152600190600b5464ffffffffff8481166101009092041614611aba57600b54611ab390611aa790610100900464ffffffffff1662015180614f0a565b64ffffffffff16613e8b565b9050611ac6565b611ac342613e8b565b90505b5f5f5b6003811161262e57600a5460ff161580611af257506009548110801590611af25750600a5460ff165b1561261c575f81611b04575060208301515b60018203611b10575082515b60028203611b1f575060408301515b60038203611b2e575060608301515b5f82815260136020908152604080832061ffff851684529091528120611b53906138ed565b90505f5b8181101561261857600a5460ff161580611b8057506008548110801590611b805750600a5460ff165b15612610575f84815260136020908152604080832061ffff8716845290915281206015908290611bb09085613e59565b815260208082019290925260409081015f20815160e0810183528154815260018201549381019390935260028101546001600160a01b0390811692840192909252600380820154928316606085015260ff600160a01b8404811615156080860152919260a0850192600160a81b9091041690811115611c3157611c31614564565b6003811115611c4257611c42614564565b815260039190910154600160b01b900461ffff1660209091015260808101515f9950909150158015611c97575060608101516001600160a01b03165f90815260186020526040902054600160a81b900460ff16155b1561260e576040805160a08101825282518152606080840180516001600160a01b03908116602080860191909152868601518216858701529151165f9081526018825293842054600160a01b900460ff1691830182905260808301899052840151919291611d049161387b565b90505f8161271060025484611d199190614e3d565b611d239190614dd6565b611d2d9190614ef7565b83515f908152601460205260408120919250908190611d4b906138ed565b90505f8115611d6257611d5f600183614ef7565b90505b5f5b82811015612606576004548d03611edb576040805160a0810182528851808252602082018490529181018b9052606081018e905260016080909101819052600691909155600782905560088a905560098d9055600a805460ff199081169092179055600b805490911690819055600160d01b900460ff1615611e53575f8461271060035487611df39190614e3d565b611dfd9190614dd6565b611e079190614ef7565b9050611e138186614ef7565b9450611e51600b60069054906101000a90046001600160a01b0316611e3c838b6060015161387b565b60208b01516001600160a01b03169190613e11565b505b611e7a33611e65868a6060015161387b565b60208a01516001600160a01b03169190613e11565b600b546040515f81523391610100900464ffffffffff9081169142909116907f90192d7875364a53e351ae63fd2dfef8dc941735b29fb0c504d06a0e21ae602e9060200160405180910390a45050505050505050505050505050505061270d565b6006548751148015611eee575060075481145b15611f0157600b805460ff191660011790555b600a5460ff161580611f1a5750600b5460ff1615156001145b156125fe5786515f908152601460205260408120611f389083613e59565b88515f908152601660205260409020909150611f549082613908565b15611f5f57506125fe565b6020880151604051636eb1769f60e11b81526001600160a01b0383811660048301523060248301528992169063dd62ed3e90604401602060405180830381865afa158015611faf573d5f5f3e3d5ffd5b505050506040513d601f19601f82011682018060405250810190611fd39190614d65565b1015801561204d575060208801516040516370a0823160e01b81526001600160a01b038381166004830152899216906370a0823190602401602060405180830381865afa158015612026573d5f5f3e3d5ffd5b505050506040513d601f19601f8201168201806040525081019061204a9190614d65565b10155b15612361578d61205c81614f2a565b89515f9081526012602090815260408083206001600160a01b0387168452909152902054909f5087101590506121f2576120968686614de9565b88515f9081526012602090815260408083206001600160a01b03861684529091528120805492975088929091906120ce908490614ef7565b92505081905550806001600160a01b031688604001516001600160a01b0316895f01515f5160206152695f395f51905f52428b8d6020015160056040516121189493929190614e0c565b60405180910390a4806001600160a01b031688604001516001600160a01b0316895f01515f5160206152695f395f51905f52425f8d6020015160026040516121639493929190614e0c565b60405180910390a4600b54885160808a015160408051868152602081018f90529081019190915261010090920464ffffffffff16917f0c0097fff4bc1b26a833fef6928d7dec93a2ed4a665c3588c6a3270e0e7e38749060600160405180910390a36121ed818960400151898b602001516001600160a01b0316613c33909392919063ffffffff16565b612567565b87515f9081526012602090815260408083206001600160a01b03851684529091529020546122209086614de9565b88515f9081526012602090815260408083206001600160a01b0380871680865291845282852094909455818d01518d51938e01519251959a5090949316925f5160206152695f395f51905f529161227d9142918e91600890614e0c565b60405180910390a486600160028f90036122a75761229c600383614dd6565b9150600290506122c1565b8e6003036122c1576122ba600c83614dd6565b9150600b90505b89515f9081526012602090815260408083206001600160a01b0387168452909152812080548492906122f4908490614de9565b92505081905550612324833061230e858e6060015161387b565b60208e01516001600160a01b0316929190613c33565b8e6002148061233357508e6003145b1561235a5761235a838b6040015161230e84866123509190614e3d565b8e6060015161387b565b5050612567565b8d61236b81614f2a565b89515f9081526012602090815260408083206001600160a01b0387168452909152902054909f50871015905061246a576123a58686614de9565b88515f9081526012602090815260408083206001600160a01b0386168452909152812054919650906123d8908890614ef7565b89515f9081526012602090815260408083206001600160a01b0380881680865291845282852094909455818e01518e51938f0151925195965090949316925f5160206152695f395f51905f52916124359142918891600490614e0c565b60405180910390a46124688960400151612453838c6060015161387b565b60208c01516001600160a01b03169190613e11565b505b87516124769082613ddf565b806001600160a01b031688604001516001600160a01b0316895f01515f5160206152695f395f51905f52428b8d6020015160076040516124b99493929190614e0c565b60405180910390a4806001600160a01b031688604001516001600160a01b0316895f01515f5160206152695f395f51905f52425f8d6020015160036040516125049493929190614e0c565b60405180910390a4600b54885160808a015160408051868152602081018f90529081019190915261010090920464ffffffffff16917f0c0097fff4bc1b26a833fef6928d7dec93a2ed4a665c3588c6a3270e0e7e38749060600160405180910390a35b828214801561257557505f84115b156125fc57600b54600160d01b900460ff16156125ea575f856127106003548861259f9190614e3d565b6125a99190614dd6565b6125b39190614ef7565b90506125bf8187614ef7565b95506125e8600b60069054906101000a90046001600160a01b0316612453838c6060015161387b565b505b6125fc33611e3c878b6060015161387b565b505b600101611d64565b505050505050505b505b600101611b57565b5050505b8061262681614f2a565b915050611ac9565b505f600681905560078190556008819055600955600a805460ff19908116909155600b805490911690819055604051600181523391610100900464ffffffffff9081169142909116907f90192d7875364a53e351ae63fd2dfef8dc941735b29fb0c504d06a0e21ae602e9060200160405180910390a46001600b60018282829054906101000a900464ffffffffff166126c79190614f42565b92506101000a81548164ffffffffff021916908364ffffffffff1602179055508215612708575f60ff19815c16815d506126ff6119a3565b5050505061270d565b505050505b5f60ff19815c16815d50565b60015433906001600160a01b031681146127515760405163118cdaa760e01b81526001600160a01b038216600482015260240161060f565b61275a81613e64565b50565b612765613db3565b600b805464ffffffffff9092166101000265ffffffffff0019909216919091179055565b5f818152601460205260408120606091906127a3906138ed565b90505f8167ffffffffffffffff8111156127bf576127bf6146b4565b60405190808252806020026020018201604052801561280357816020015b604080518082019091525f80825260208201528152602001906001900390816127dd5790505b5090505f5b828110156128c0575f8581526012602090815260408083206014909252822082906128339085613e59565b6001600160a01b03166001600160a01b031681526020019081526020015f205490505f60405180604001604052806128848560145f8c81526020019081526020015f20613e5990919063ffffffff16565b6001600160a01b03168152602001838152509050808484815181106128ab576128ab614f5f565b60209081029190910101525050600101612808565b509392505050565b6128d0613db3565b8060066128dd8282614f73565b505050565b6060808315612912576001600160a01b0383165f908152600c6020526040902061290b9061411a565b9050612935565b6001600160a01b0383165f908152600d602052604090206129329061411a565b90505b5f815167ffffffffffffffff811115612950576129506146b4565b6040519080825280602002602001820160405280156129cc57816020015b60408051610140810182525f606082018181526080830182905260a0830182905260c0830182905260e0830182905261010083018290526101208301829052825260208083018290529282015282525f1990920191018161296e5790505b5090505f5b8251811015612c5e578515612a7a576001600160a01b0385165f908152600e602052604081208451909190859084908110612a0e57612a0e614f5f565b602002602001015181526020019081526020015f205f9054906101000a900460ff16828281518110612a4257612a42614f5f565b6020026020010151602001906002811115612a5f57612a5f614564565b90816002811115612a7257612a72614564565b905250612b10565b6001600160a01b0385165f908152600f602052604081208451909190859084908110612aa857612aa8614f5f565b602002602001015181526020019081526020015f205f9054906101000a900460ff16828281518110612adc57612adc614f5f565b6020026020010151602001906002811115612af957612af9614564565b90816002811115612b0c57612b0c614564565b9052505b60155f848381518110612b2557612b25614f5f565b60209081029190910181015182528181019290925260409081015f20815160e0810183528154815260018201549381019390935260028101546001600160a01b0390811692840192909252600380820154928316606085015260ff600160a01b8404811615156080860152919260a0850192600160a81b9091041690811115612bb057612bb0614564565b6003811115612bc157612bc1614564565b815260039190910154600160b01b900461ffff166020909101528251839083908110612bef57612bef614f5f565b60200260200101515f0181905250612c3560145f848481518110612c1557612c15614f5f565b60200260200101515f01515f015181526020019081526020015f206138ed565b828281518110612c4757612c47614f5f565b6020908102919091010151604001526001016129d1565b509150505b92915050565b612c71613db3565b6127108110158015612c855750612a518111155b612c8d575f5ffd5b600255565b612c9a613db3565b600b8054911515600160d01b0260ff60d01b19909216919091179055565b612cc0613db3565b6001600160a01b038116612cd2575f5ffd5b600b546001600160a01b036601000000000000909104811690821603612cf6575f5ffd5b600b80546001600160a01b039092166601000000000000027fffffffffffff0000000000000000000000000000000000000000ffffffffffff909216919091179055565b5f612d4560106138ed565b905090565b335f908152600d60205260409020612d629082613e42565b156112b75764ffffffffff421633827f93cda0785d40b289a535b99dc76d4c9cbb6d8146182861ac3ad40509398b1865612d9c8680614e54565b612da96020890189614e54565b6040516119849493929190614ec6565b612dc1613db3565b6001600160a01b038281165f9081526018602052604090205416612de3575f5ffd5b80612e36576001600160a01b0382165f90815260186020526040902054600160a81b900460ff16612e12575f5ffd5b506001600160a01b03165f908152601860205260409020805460ff60a81b19169055565b6001600160a01b0382165f908152601860205260409020805460ff60a81b1916600160a81b1790555050565b612e6a613db3565b600555565b60605f612e7b42613e7d565b600b5490915064ffffffffff610100909104811690821611612ec35760405162461bcd60e51b81526020600482015260016024820152601b60f91b604482015260640161060f565b5f612ecd42613e8b565b90505f5f5f60045467ffffffffffffffff811115612eed57612eed6146b4565b604051908082528060200260200182016040528015612f3157816020015b604080518082019091525f8082526020820152815260200190600190039081612f0b5790505b5090505f5b600381116131c1575f81612f4b575060208501515b60018203612f57575084515b60028203612f66575060408501515b60038203612f75575060608501515b5f5b5f83815260136020908152604080832061ffff861684529091529020612f9c906138ed565b8110156131ac575f83815260136020908152604080832061ffff8616845290915281206015908290612fce9085613e59565b815260208082019290925260409081015f20815160e0810183528154815260018201549381019390935260028101546001600160a01b0390811692840192909252600380820154928316606085015260ff600160a01b8404811615156080860152919260a0850192600160a81b909104169081111561304f5761304f614564565b600381111561306057613060614564565b815260039190910154600160b01b900461ffff1660209091015260808101519091506131a3576060810151602080830151604080518082019091525f80825292810192909252905f82612710600254856130ba9190614e3d565b6130c49190614dd6565b6130ce9190614ef7565b90505f5f5b86515f9081526014602052604090206130eb906138ed565b81101561319c576004548d0361310f5750989e9d5050505050505050505050505050565b600a5460ff1615806131285750600b5460ff1615156001145b15613194578c61313781614f2a565b9d5061314590508383614de9565b91506040518060400160405280838152602001876001600160a01b03168152509350838b8d8151811061317a5761317a614f5f565b60200260200101819052508b8061319090614f2a565b9c50505b6001016130d3565b5050505050505b50600101612f77565b505080806131b990614f2a565b915050612f36565b505f5f5b8251811015613214575f6001600160a01b03168382815181106131ea576131ea614f5f565b6020026020010151602001516001600160a01b03160361320c57809150613214565b6001016131c5565b505f8167ffffffffffffffff81111561322f5761322f6146b4565b60405190808252806020026020018201604052801561327357816020015b604080518082019091525f808252602082015281526020019060019003908161324d5790505b5090505f5b828110156132bf5783818151811061329257613292614f5f565b60200260200101518282815181106132ac576132ac614f5f565b6020908102919091010152600101613278565b50979650505050505050565b80516040516132da9190614fbd565b60405180910390204264ffffffffff16336001600160a01b03167f34f43abf7a52b609b04511ed963a29ebb76ae3e0ca0ff5594be1c2a84ebd03f284602001518560400151866060015187608001518860a0015160405161333f959493929190615001565b60405180910390a450565b613352613db3565b600180546001600160a01b0383166001600160a01b031990911681179091556133825f546001600160a01b031690565b6001600160a01b03167f38d16b8cac22d99fc7c124b9cd0de2d3fa1faef420bfe791d8c362d765e2270060405160405180910390a350565b6133e660405180606001604052805f6001600160a01b0316815260200160608152602001606081525090565b6001600160a01b0382165f908152600c60205260408120613406906138ed565b6001600160a01b0384165f908152600d602052604081209192509061342a906138ed565b90505f8267ffffffffffffffff811115613446576134466146b4565b60405190808252806020026020018201604052801561349f57816020015b61348c604080516080810182525f80825260208201819052909182019081526020015f905290565b8152602001906001900390816134645790505b5090505f5b83811015613624576001600160a01b0386165f908152600c602052604081206134cd9083613e59565b5f818152601560209081526040808320815160e0810183528154815260018201549381019390935260028101546001600160a01b0390811692840192909252600380820154928316606085015260ff600160a01b840481161515608086015295965093949293909260a0850192600160a81b9004169081111561355257613552614564565b600381111561356357613563614564565b81526020016003820160169054906101000a900461ffff1661ffff1661ffff1681525050905060405180608001604052808381526020018260c0015161ffff1681526020018260a0015160038111156135be576135be614564565b81526001600160a01b038a165f908152600e6020908152604080832087845282529091205491019060ff1660028111156135fa576135fa614564565b81525084848151811061360f5761360f614f5f565b602090810291909101015250506001016134a4565b505f8367ffffffffffffffff81111561363f5761363f6146b4565b60405190808252806020026020018201604052801561369857816020015b613685604080516080810182525f80825260208201819052909182019081526020015f905290565b81526020019060019003908161365d5790505b5090505f5b8381101561381d576001600160a01b0387165f908152600d602052604081206136c69083613e59565b5f818152601560209081526040808320815160e0810183528154815260018201549381019390935260028101546001600160a01b0390811692840192909252600380820154928316606085015260ff600160a01b840481161515608086015295965093949293909260a0850192600160a81b9004169081111561374b5761374b614564565b600381111561375c5761375c614564565b81526020016003820160169054906101000a900461ffff1661ffff1661ffff1681525050905060405180608001604052808381526020018260c0015161ffff1681526020018260a0015160038111156137b7576137b7614564565b81526001600160a01b038b165f908152600f6020908152604080832087845282529091205491019060ff1660028111156137f3576137f3614564565b81525084848151811061380857613808614f5f565b6020908102919091010152505060010161369d565b50604080516060810182526001600160a01b039097168752602087019290925290850152509192915050565b5f818152601560205260408120600201546001600160a01b031661386e57505f919050565b506001919050565b919050565b5f601260ff83168110156138b057613893818461506d565b61389e90600a615169565b6138a89085614e3d565b915050612c63565b8060ff168360ff1610156138dd576138c8838261506d565b6138d390600a615169565b6138a89085614dd6565b83915050612c63565b5092915050565b5f612c63825490565b5f6139018383614126565b9392505050565b6001600160a01b0381165f9081526001830160205260408120541515613901565b5f613901836001600160a01b038416614126565b5f613901836001600160a01b038416614172565b61395c601033613908565b61396d5761396b601033613929565b505b80156139b1578151335f908152600d6020526040902061398c916138f6565b5050335f908152600f602090815260408083209351835292905220805460ff19169055565b8151335f908152600c602052604090206139ca916138f6565b5050335f908152600e602090815260408083209351835292905220805460ff19169055565b5f5f6139fa86613e8b565b90505f5f5f8560ff165f03613a1d57836020015161ffff16925060079150613aa4565b8560ff16600103613a5457613a42846080015161ffff168560a0015161ffff16614255565b845161ffff1693509150819050613aa4565b8560ff16600203613a8857613a79846060015161ffff16856080015161ffff166142da565b61ffff169250605a9150613aa4565b8560ff16600303613aa457836060015161ffff16925061016d91505b8560ff16600103613b5e575f61016d613abe89600c614e3d565b613ac89190614dd6565b9050838964ffffffffff1614158015613ae757508864ffffffffff1684115b15613b1857613afd64ffffffffff8a1685614ef7565b613b079084614ef7565b613b119082614e3d565b9750613b58565b838964ffffffffff1614158015613b3557508864ffffffffff1684105b15613b5857613b4b8464ffffffffff8b16614ef7565b613b559082614e3d565b97505b50613c26565b60ff86161580613b7157508560ff166002145b80613b7f57508560ff166003145b15613c2657828864ffffffffff1614158015613ba157508764ffffffffff1683115b15613bdc57613bb764ffffffffff891684614ef7565b613bc19083614ef7565b613bcb8389614dd6565b613bd59190614e3d565b9650613c26565b828864ffffffffff1614158015613bf957508764ffffffffff1683105b15613c2657613c0f8364ffffffffff8a16614ef7565b613c198389614dd6565b613c239190614e3d565b96505b5094979650505050505050565b6040516001600160a01b038481166024830152838116604483015260648201839052610c819186918216906323b872dd906084015b604051602081830303815290604052915060e01b6020820180517bffffffffffffffffffffffffffffffffffffffffffffffffffffffff83818316178352505050506143a4565b6040805160e0810182525f8082526020808301829052828401829052606083018290526080830182905260a0830182905260c083018290523382526017905291822080549192829190613d0183614f2a565b90915550506040516bffffffffffffffffffffffff193360601b166020820152603481018290524260548201525f906074016040516020818303038152906040528051906020012090506040518060e00160405280828152602001888152602001336001600160a01b03168152602001876001600160a01b031681526020015f15158152602001866003811115613d9a57613d9a614564565b81526020018561ffff1681525092505050949350505050565b5f546001600160a01b031633146119a15760405163118cdaa760e01b815233600482015260240161060f565b5f828152601660205260409020613df69082613908565b6112b7575f8281526016602052604090206128dd9082613929565b6040516001600160a01b038381166024830152604482018390526128dd91859182169063a9059cbb90606401613c68565b5f8181526001830160205260408120541515613901565b5f6139018383614410565b600180546001600160a01b031916905561275a81614436565b5f612c636201518083615177565b6040805160c0810182525f80825260208201819052918101829052606081018290526080810182905260a0810182905290613ec96201518084614dd6565b90505f808281613edc8262010bd96151a0565b613ee99062253d8c6151a0565b90505f62023ab1613efb8360046151c7565b613f0591906151f6565b90506004613f168262023ab16151c7565b613f219060036151a0565b613f2b91906151f6565b613f359083615222565b91505f62164b09613f478460016151a0565b613f5390610fa06151c7565b613f5d91906151f6565b90506004613f6d826105b56151c7565b613f7791906151f6565b613f819084615222565b613f8c90601f6151a0565b92505f61098f613f9d8560506151c7565b613fa791906151f6565b90505f6050613fb88361098f6151c7565b613fc291906151f6565b613fcc9086615222565b9050613fd9600b836151f6565b9450613fe685600c6151c7565b613ff18360026151a0565b613ffb9190615222565b9150848361400a603187615222565b6140159060646151c7565b61401f91906151a0565b61402991906151a0565b9097509150868282825f60015b838111614082578381036140595761405261ffff8e1683614de9565b9150614070565b6140638582614255565b61406d9083614de9565b91505b8061407a81614f2a565b915050614036565b50809a506140948b61ffff16856142da565b61ffff1660408f01526140a68f614485565b8e6020019061ffff16908161ffff16815250508b8e5f019061ffff16908161ffff16815250508a8e6060019061ffff16908161ffff1681525050838e6080019061ffff16908161ffff1681525050828e60a0019061ffff16908161ffff168152505050505050505050505050505050919050565b60605f613901836144b9565b5f81815260018301602052604081205461416b57508154600181810184555f848152602080822090930184905584548482528286019093526040902091909155612c63565b505f612c63565b5f818152600183016020526040812054801561424c575f614194600183614ef7565b85549091505f906141a790600190614ef7565b9050808214614206575f865f0182815481106141c5576141c5614f5f565b905f5260205f200154905080875f0184815481106141e5576141e5614f5f565b5f918252602080832090910192909255918252600188019052604090208390555b855486908061421757614217615241565b600190038181905f5260205f20015f90559055856001015f8681526020019081526020015f205f905560019350505050612c63565b5f915050612c63565b5f81600114806142655750816003145b806142705750816005145b8061427b5750816007145b806142865750816008145b80614291575081600a145b8061429c575081600c145b156142a95750601f612c63565b816002146142b95750601e612c63565b6142c283614512565b6142cd57601c6142d0565b601d5b60ff169392505050565b5f5f6142e583614512565b156142f2575060016142f5565b505f5b61430081605a614de9565b841161430e578391506138e6565b8361431a82605a614de9565b108015614331575061432d8160b5614de9565b8411155b156143525761434181605a614de9565b61434b9085614ef7565b91506138e6565b8361435e8260b5614de9565b108015614376575061437281610111614de9565b8411155b15614386576143418160b5614de9565b61439281610111614de9565b61439c9085614ef7565b949350505050565b5f5f60205f8451602086015f885af1806143c3576040513d5f823e3d81fd5b50505f513d915081156143da5780600114156143e7565b6001600160a01b0384163b155b15610c8157604051635274afe760e01b81526001600160a01b038516600482015260240161060f565b5f825f01828154811061442557614425614f5f565b905f5260205f200154905092915050565b5f80546001600160a01b038381166001600160a01b0319831681178455604051919092169283917f8be0079c531659141344cd1fd0a4f28419497f9722a3daafe3b4186f6b6457e09190a35050565b5f806144946201518084614dd6565b90505f60076144a4836003614de9565b6144ae9190615255565b61439c906001614de9565b6060815f0180548060200260200160405190810160405280929190818152602001828054801561450657602002820191905f5260205f20905b8154815260200190600101908083116144f2575b50505050509050919050565b5f61451e600483615255565b1580156145345750614531606483615255565b15155b80612c63575061454661019083615255565b1592915050565b5f6020828403121561455d575f5ffd5b5035919050565b634e487b7160e01b5f52602160045260245ffd5b6004811061458857614588614564565b9052565b878152602081018790526001600160a01b03868116604083015285166060820152831515608082015260e081016145c660a0830185614578565b61ffff831660c083015298975050505050505050565b5f60e08284031280156145ed575f5ffd5b509092915050565b80356001600160a01b0381168114613876575f5ffd5b5f6040828403121561461b575f5ffd5b50919050565b803560048110613876575f5ffd5b803561ffff81168114613876575f5ffd5b5f5f5f5f5f60a08688031215614654575f5ffd5b85359450614664602087016145f5565b9350604086013567ffffffffffffffff81111561467f575f5ffd5b61468b8882890161460b565b93505061469a60608701614621565b91506146a86080870161462f565b90509295509295909350565b634e487b7160e01b5f52604160045260245ffd5b60405160e0810167ffffffffffffffff811182821017156146eb576146eb6146b4565b60405290565b60405160c0810167ffffffffffffffff811182821017156146eb576146eb6146b4565b801515811461275a575f5ffd5b5f60e08284031215614731575f5ffd5b6147396146c8565b82358152602080840135908201529050614755604083016145f5565b6040820152614766606083016145f5565b6060820152608082013561477981614714565b608082015261478a60a08301614621565b60a082015261479b60c0830161462f565b60c082015292915050565b5f60e082840312156147b6575f5ffd5b6139018383614721565b5f5f5f606084860312156147d2575f5ffd5b6147db846145f5565b925060208401359150604084013560ff811681146147f7575f5ffd5b809150509250925092565b5f5f6101008385031215614814575f5ffd5b61481e8484614721565b915061482c60e084016145f5565b90509250929050565b5f60208284031215614845575f5ffd5b813564ffffffffff81168114613901575f5ffd5b602080825282518282018190525f918401906040840190835b818110156148a557835180516001600160a01b031684526020908101518185015290930192604090920191600101614872565b509095945050505050565b5f60a08284031280156145ed575f5ffd5b5f5f604083850312156148d2575f5ffd5b82356148dd81614714565b915061482c602084016145f5565b6003811061458857614588614564565b602080825282518282018190525f918401906040840190835b818110156148a5578351805180518552602081015160208601526001600160a01b0360408201511660408601526001600160a01b03606082015116606086015260808101511515608086015260a081015161497260a0870182614578565b5061ffff60c08201511660c086015250602081015161499460e08601826148eb565b50604001516101008401526020939093019261012090920191600101614914565b5f602082840312156149c5575f5ffd5b813561390181614714565b5f602082840312156149e0575f5ffd5b613901826145f5565b5f5f604083850312156149fa575f5ffd5b823567ffffffffffffffff811115614a10575f5ffd5b614a1c8582860161460b565b95602094909401359450505050565b5f5f60408385031215614a3c575f5ffd5b614a45836145f5565b91506020830135614a5581614714565b809150509250929050565b602080825282518282018190525f918401906040840190835b818110156148a5578351805184526020908101516001600160a01b03168185015290930192604090920191600101614a79565b5f5f60408385031215614abd575f5ffd5b8235915061482c602084016145f5565b5f82601f830112614adc575f5ffd5b813567ffffffffffffffff811115614af657614af66146b4565b604051601f8201601f19908116603f0116810167ffffffffffffffff81118282101715614b2557614b256146b4565b604052818152838201602001851015614b3c575f5ffd5b816020850160208301375f918101602001919091529392505050565b5f60208284031215614b68575f5ffd5b813567ffffffffffffffff811115614b7e575f5ffd5b820160c08185031215614b8f575f5ffd5b614b976146f1565b813567ffffffffffffffff811115614bad575f5ffd5b614bb986828501614acd565b825250602082013567ffffffffffffffff811115614bd5575f5ffd5b614be186828501614acd565b602083015250604082013567ffffffffffffffff811115614c00575f5ffd5b614c0c86828501614acd565b604083015250606082013567ffffffffffffffff811115614c2b575f5ffd5b614c3786828501614acd565b606083015250608082013567ffffffffffffffff811115614c56575f5ffd5b614c6286828501614acd565b60808301525060a082013567ffffffffffffffff811115614c81575f5ffd5b614c8d86828501614acd565b60a083015250949350505050565b5f8151808452602084019350602083015f5b82811015614d075781518051875261ffff60208201511660208801526040810151614cdb6040890182614578565b5060608101519050614cf060608801826148eb565b506080959095019460209190910190600101614cad565b5093949350505050565b602081526001600160a01b0382511660208201525f602083015160606040840152614d3f6080840182614c9b565b90506040840151601f19848303016060850152614d5c8282614c9b565b95945050505050565b5f60208284031215614d75575f5ffd5b5051919050565b5f60208284031215614d8c575f5ffd5b61390182614621565b5f60208284031215614da5575f5ffd5b6139018261462f565b634e487b7160e01b5f52601260045260245ffd5b634e487b7160e01b5f52601160045260245ffd5b5f82614de457614de4614dae565b500490565b80820180821115612c6357612c63614dc2565b600a811061458857614588614564565b64ffffffffff85168152602081018490526001600160a01b038316604082015260808101614d5c6060830184614dfc565b8082028115828204841417612c6357612c63614dc2565b5f5f8335601e19843603018112614e69575f5ffd5b83018035915067ffffffffffffffff821115614e83575f5ffd5b602001915036819003821315614e97575f5ffd5b9250929050565b81835281816020850137505f828201602090810191909152601f909101601f19169091010190565b604081525f614ed9604083018688614e9e565b8281036020840152614eec818587614e9e565b979650505050505050565b81810381811115612c6357612c63614dc2565b64ffffffffff81811683821602908116908181146138e6576138e6614dc2565b5f60018201614f3b57614f3b614dc2565b5060010190565b64ffffffffff8181168382160190811115612c6357612c63614dc2565b634e487b7160e01b5f52603260045260245ffd5b81358155602082013560018201556040820135600282015560608201356003820155600481016080830135614fa781614714565b815490151560ff1660ff19919091161790555050565b5f82518060208501845e5f920191825250919050565b5f81518084528060208401602086015e5f602082860101526020601f19601f83011685010191505092915050565b60a081525f61501360a0830188614fd3565b82810360208401526150258188614fd3565b905082810360408401526150398187614fd3565b9050828103606084015261504d8186614fd3565b905082810360808401526150618185614fd3565b98975050505050505050565b60ff8281168282160390811115612c6357612c63614dc2565b6001815b60018411156150c1578085048111156150a5576150a5614dc2565b60018416156150b357908102905b60019390931c92800261508a565b935093915050565b5f826150d757506001612c63565b816150e357505f612c63565b81600181146150f957600281146151035761511f565b6001915050612c63565b60ff84111561511457615114614dc2565b50506001821b612c63565b5060208310610133831016604e8410600b8410161715615142575081810a612c63565b61514e5f198484615086565b805f190482111561516157615161614dc2565b029392505050565b5f61390160ff8416836150c9565b5f64ffffffffff83168061518d5761518d614dae565b8064ffffffffff84160491505092915050565b8082018281125f8312801582168215821617156151bf576151bf614dc2565b505092915050565b8082025f8212600160ff1b841416156151e2576151e2614dc2565b8181058314821517612c6357612c63614dc2565b5f8261520457615204614dae565b600160ff1b82145f198414161561521d5761521d614dc2565b500590565b8181035f8312801583831316838312821617156138e6576138e6614dc2565b634e487b7160e01b5f52603160045260245ffd5b5f8261526357615263614dae565b50069056feca6b824caf1a48ea2ad039dbb063460fa30e9c3cc255eeb52240d638ec6de65ea2646970667358221220319b25af9ab430b515f42f4c824560859f9e38b3f7d1c02809b60bd15f0e15ec64736f6c634300081c0033",
  "linkReferences": {},
  "deployedLinkReferences": {}
}