{
  "_format": "hh-sol-artifact-1",
  "contractName": "ClockTowerSubscribe",
  "sourceName": "contracts/ClockTowerSubscribe.sol",
  "abi": [
    {
      "inputs": [
        {
          "internalType": "uint256",
          "name": "callerFee_",
          "type": "uint256"
        },
        {
          "internalType": "uint256",
          "name": "systemFee_",
          "type": "uint256"
        },
        {
          "internalType": "uint256",
          "name": "maxRemits_",
          "type": "uint256"
        },
        {
          "internalType": "uint256",
          "name": "cancelLimit_",
          "type": "uint256"
        },
        {
          "internalType": "bool",
          "name": "allowSystemFee_",
          "type": "bool"
        },
        {
          "internalType": "address",
          "name": "admin_",
          "type": "address"
        },
        {
          "internalType": "address",
          "name": "janitor_",
          "type": "address"
        }
      ],
      "stateMutability": "nonpayable",
      "type": "constructor"
    },
    {
      "inputs": [],
      "name": "AccessControlBadConfirmation",
      "type": "error"
    },
    {
      "inputs": [
        {
          "internalType": "uint48",
          "name": "schedule",
          "type": "uint48"
        }
      ],
      "name": "AccessControlEnforcedDefaultAdminDelay",
      "type": "error"
    },
    {
      "inputs": [],
      "name": "AccessControlEnforcedDefaultAdminRules",
      "type": "error"
    },
    {
      "inputs": [
        {
          "internalType": "address",
          "name": "defaultAdmin",
          "type": "address"
        }
      ],
      "name": "AccessControlInvalidDefaultAdmin",
      "type": "error"
    },
    {
      "inputs": [
        {
          "internalType": "address",
          "name": "account",
          "type": "address"
        },
        {
          "internalType": "bytes32",
          "name": "neededRole",
          "type": "bytes32"
        }
      ],
      "name": "AccessControlUnauthorizedAccount",
      "type": "error"
    },
    {
      "inputs": [
        {
          "internalType": "uint8",
          "name": "bits",
          "type": "uint8"
        },
        {
          "internalType": "uint256",
          "name": "value",
          "type": "uint256"
        }
      ],
      "name": "SafeCastOverflowedUintDowncast",
      "type": "error"
    },
    {
      "inputs": [
        {
          "internalType": "address",
          "name": "token",
          "type": "address"
        }
      ],
      "name": "SafeERC20FailedOperation",
      "type": "error"
    },
    {
      "anonymous": false,
      "inputs": [
        {
          "indexed": true,
          "internalType": "uint40",
          "name": "timestamp",
          "type": "uint40"
        },
        {
          "indexed": true,
          "internalType": "uint40",
          "name": "checkedDay",
          "type": "uint40"
        },
        {
          "indexed": true,
          "internalType": "address",
          "name": "caller",
          "type": "address"
        },
        {
          "indexed": false,
          "internalType": "bool",
          "name": "isFinished",
          "type": "bool"
        }
      ],
      "name": "CallerLog",
      "type": "event"
    },
    {
      "anonymous": false,
      "inputs": [
        {
          "indexed": true,
          "internalType": "bytes32",
          "name": "id",
          "type": "bytes32"
        },
        {
          "indexed": false,
          "internalType": "uint256",
          "name": "subscriberIndex",
          "type": "uint256"
        },
        {
          "indexed": false,
          "internalType": "uint256",
          "name": "subscriptionIndex",
          "type": "uint256"
        },
        {
          "indexed": false,
          "internalType": "uint256",
          "name": "frequency",
          "type": "uint256"
        },
        {
          "indexed": true,
          "internalType": "uint40",
          "name": "nextUncheckedDay",
          "type": "uint40"
        }
      ],
      "name": "Coordinates",
      "type": "event"
    },
    {
      "anonymous": false,
      "inputs": [],
      "name": "DefaultAdminDelayChangeCanceled",
      "type": "event"
    },
    {
      "anonymous": false,
      "inputs": [
        {
          "indexed": false,
          "internalType": "uint48",
          "name": "newDelay",
          "type": "uint48"
        },
        {
          "indexed": false,
          "internalType": "uint48",
          "name": "effectSchedule",
          "type": "uint48"
        }
      ],
      "name": "DefaultAdminDelayChangeScheduled",
      "type": "event"
    },
    {
      "anonymous": false,
      "inputs": [],
      "name": "DefaultAdminTransferCanceled",
      "type": "event"
    },
    {
      "anonymous": false,
      "inputs": [
        {
          "indexed": true,
          "internalType": "address",
          "name": "newAdmin",
          "type": "address"
        },
        {
          "indexed": false,
          "internalType": "uint48",
          "name": "acceptSchedule",
          "type": "uint48"
        }
      ],
      "name": "DefaultAdminTransferScheduled",
      "type": "event"
    },
    {
      "anonymous": false,
      "inputs": [
        {
          "indexed": true,
          "internalType": "bytes32",
          "name": "id",
          "type": "bytes32"
        },
        {
          "indexed": true,
          "internalType": "address",
          "name": "provider",
          "type": "address"
        },
        {
          "indexed": true,
          "internalType": "uint40",
          "name": "timestamp",
          "type": "uint40"
        },
        {
          "indexed": false,
          "internalType": "string",
          "name": "url",
          "type": "string"
        },
        {
          "indexed": false,
          "internalType": "string",
          "name": "description",
          "type": "string"
        }
      ],
      "name": "DetailsLog",
      "type": "event"
    },
    {
      "anonymous": false,
      "inputs": [
        {
          "indexed": true,
          "internalType": "address",
          "name": "provider",
          "type": "address"
        },
        {
          "indexed": true,
          "internalType": "uint40",
          "name": "timestamp",
          "type": "uint40"
        },
        {
          "indexed": true,
          "internalType": "string",
          "name": "description",
          "type": "string"
        },
        {
          "indexed": false,
          "internalType": "string",
          "name": "company",
          "type": "string"
        },
        {
          "indexed": false,
          "internalType": "string",
          "name": "url",
          "type": "string"
        },
        {
          "indexed": false,
          "internalType": "string",
          "name": "domain",
          "type": "string"
        },
        {
          "indexed": false,
          "internalType": "string",
          "name": "email",
          "type": "string"
        },
        {
          "indexed": false,
          "internalType": "string",
          "name": "misc",
          "type": "string"
        }
      ],
      "name": "ProvDetailsLog",
      "type": "event"
    },
    {
      "anonymous": false,
      "inputs": [
        {
          "indexed": true,
          "internalType": "bytes32",
          "name": "role",
          "type": "bytes32"
        },
        {
          "indexed": true,
          "internalType": "bytes32",
          "name": "previousAdminRole",
          "type": "bytes32"
        },
        {
          "indexed": true,
          "internalType": "bytes32",
          "name": "newAdminRole",
          "type": "bytes32"
        }
      ],
      "name": "RoleAdminChanged",
      "type": "event"
    },
    {
      "anonymous": false,
      "inputs": [
        {
          "indexed": true,
          "internalType": "bytes32",
          "name": "role",
          "type": "bytes32"
        },
        {
          "indexed": true,
          "internalType": "address",
          "name": "account",
          "type": "address"
        },
        {
          "indexed": true,
          "internalType": "address",
          "name": "sender",
          "type": "address"
        }
      ],
      "name": "RoleGranted",
      "type": "event"
    },
    {
      "anonymous": false,
      "inputs": [
        {
          "indexed": true,
          "internalType": "bytes32",
          "name": "role",
          "type": "bytes32"
        },
        {
          "indexed": true,
          "internalType": "address",
          "name": "account",
          "type": "address"
        },
        {
          "indexed": true,
          "internalType": "address",
          "name": "sender",
          "type": "address"
        }
      ],
      "name": "RoleRevoked",
      "type": "event"
    },
    {
      "anonymous": false,
      "inputs": [
        {
          "indexed": true,
          "internalType": "bytes32",
          "name": "id",
          "type": "bytes32"
        },
        {
          "indexed": true,
          "internalType": "address",
          "name": "provider",
          "type": "address"
        },
        {
          "indexed": true,
          "internalType": "address",
          "name": "subscriber",
          "type": "address"
        },
        {
          "indexed": false,
          "internalType": "uint40",
          "name": "timestamp",
          "type": "uint40"
        },
        {
          "indexed": false,
          "internalType": "uint256",
          "name": "amount",
          "type": "uint256"
        },
        {
          "indexed": false,
          "internalType": "address",
          "name": "token",
          "type": "address"
        },
        {
          "indexed": false,
          "internalType": "enum ClockTowerSubscribe.SubscriptEvent",
          "name": "subScriptEvent",
          "type": "uint8"
        }
      ],
      "name": "SubLog",
      "type": "event"
    },
    {
      "anonymous": false,
      "inputs": [
        {
          "indexed": true,
          "internalType": "uint40",
          "name": "timestamp",
          "type": "uint40"
        },
        {
          "indexed": true,
          "internalType": "bytes32",
          "name": "id",
          "type": "bytes32"
        },
        {
          "indexed": true,
          "internalType": "address",
          "name": "subscriber",
          "type": "address"
        }
      ],
      "name": "UList",
      "type": "event"
    },
    {
      "inputs": [],
      "name": "DEFAULT_ADMIN_ROLE",
      "outputs": [
        {
          "internalType": "bytes32",
          "name": "",
          "type": "bytes32"
        }
      ],
      "stateMutability": "view",
      "type": "function"
    },
    {
      "inputs": [],
      "name": "JANITOR_ROLE",
      "outputs": [
        {
          "internalType": "bytes32",
          "name": "",
          "type": "bytes32"
        }
      ],
      "stateMutability": "view",
      "type": "function"
    },
    {
      "inputs": [],
      "name": "acceptDefaultAdminTransfer",
      "outputs": [],
      "stateMutability": "nonpayable",
      "type": "function"
    },
    {
      "inputs": [
        {
          "internalType": "address",
          "name": "erc20Contract",
          "type": "address"
        },
        {
          "internalType": "uint256",
          "name": "minimum",
          "type": "uint256"
        },
        {
          "internalType": "uint8",
          "name": "decimals",
          "type": "uint8"
        }
      ],
      "name": "addERC20Contract",
      "outputs": [],
      "stateMutability": "nonpayable",
      "type": "function"
    },
    {
      "inputs": [
        {
          "internalType": "address",
          "name": "",
          "type": "address"
        }
      ],
      "name": "approvedERC20",
      "outputs": [
        {
          "internalType": "address",
          "name": "tokenAddress",
          "type": "address"
        },
        {
          "internalType": "uint8",
          "name": "decimals",
          "type": "uint8"
        },
        {
          "internalType": "bool",
          "name": "paused",
          "type": "bool"
        },
        {
          "internalType": "uint256",
          "name": "minimum",
          "type": "uint256"
        }
      ],
      "stateMutability": "view",
      "type": "function"
    },
    {
      "inputs": [
        {
          "internalType": "address",
          "name": "newAdmin",
          "type": "address"
        }
      ],
      "name": "beginDefaultAdminTransfer",
      "outputs": [],
      "stateMutability": "nonpayable",
      "type": "function"
    },
    {
      "inputs": [],
      "name": "callerFee",
      "outputs": [
        {
          "internalType": "uint256",
          "name": "",
          "type": "uint256"
        }
      ],
      "stateMutability": "view",
      "type": "function"
    },
    {
      "inputs": [],
      "name": "cancelDefaultAdminTransfer",
      "outputs": [],
      "stateMutability": "nonpayable",
      "type": "function"
    },
    {
      "inputs": [],
      "name": "cancelLimit",
      "outputs": [
        {
          "internalType": "uint256",
          "name": "",
          "type": "uint256"
        }
      ],
      "stateMutability": "view",
      "type": "function"
    },
    {
      "inputs": [
        {
          "components": [
            {
              "internalType": "bytes32",
              "name": "id",
              "type": "bytes32"
            },
            {
              "internalType": "uint256",
              "name": "amount",
              "type": "uint256"
            },
            {
              "internalType": "address",
              "name": "provider",
              "type": "address"
            },
            {
              "internalType": "address",
              "name": "token",
              "type": "address"
            },
            {
              "internalType": "bool",
              "name": "cancelled",
              "type": "bool"
            },
            {
              "internalType": "enum ClockTowerSubscribe.Frequency",
              "name": "frequency",
              "type": "uint8"
            },
            {
              "internalType": "uint16",
              "name": "dueDay",
              "type": "uint16"
            }
          ],
          "internalType": "struct ClockTowerSubscribe.Subscription",
          "name": "_subscription",
          "type": "tuple"
        }
      ],
      "name": "cancelSubscription",
      "outputs": [],
      "stateMutability": "nonpayable",
      "type": "function"
    },
    {
      "inputs": [
        {
          "internalType": "uint256",
          "name": "_fee",
          "type": "uint256"
        }
      ],
      "name": "changeCallerFee",
      "outputs": [],
      "stateMutability": "nonpayable",
      "type": "function"
    },
    {
      "inputs": [
        {
          "internalType": "uint48",
          "name": "newDelay",
          "type": "uint48"
        }
      ],
      "name": "changeDefaultAdminDelay",
      "outputs": [],
      "stateMutability": "nonpayable",
      "type": "function"
    },
    {
      "inputs": [
        {
          "internalType": "uint256",
          "name": "_maxRemits",
          "type": "uint256"
        }
      ],
      "name": "changeMaxRemits",
      "outputs": [],
      "stateMutability": "nonpayable",
      "type": "function"
    },
    {
      "inputs": [
        {
          "internalType": "address",
          "name": "newSysFeeAddress",
          "type": "address"
        }
      ],
      "name": "changeSysFeeReceiver",
      "outputs": [],
      "stateMutability": "nonpayable",
      "type": "function"
    },
    {
      "inputs": [
        {
          "internalType": "uint256",
          "name": "_sys_fee",
          "type": "uint256"
        }
      ],
      "name": "changeSystemFee",
      "outputs": [],
      "stateMutability": "nonpayable",
      "type": "function"
    },
    {
      "inputs": [
        {
          "internalType": "bytes32",
          "name": "id",
          "type": "bytes32"
        }
      ],
      "name": "cleanUnsubscribeList",
      "outputs": [],
      "stateMutability": "nonpayable",
      "type": "function"
    },
    {
      "inputs": [
        {
          "components": [
            {
              "internalType": "bytes32",
              "name": "id",
              "type": "bytes32"
            },
            {
              "internalType": "uint256",
              "name": "amount",
              "type": "uint256"
            },
            {
              "internalType": "address",
              "name": "provider",
              "type": "address"
            },
            {
              "internalType": "address",
              "name": "token",
              "type": "address"
            },
            {
              "internalType": "bool",
              "name": "cancelled",
              "type": "bool"
            },
            {
              "internalType": "enum ClockTowerSubscribe.Frequency",
              "name": "frequency",
              "type": "uint8"
            },
            {
              "internalType": "uint16",
              "name": "dueDay",
              "type": "uint16"
            }
          ],
          "internalType": "struct ClockTowerSubscribe.Subscription",
          "name": "subscription",
          "type": "tuple"
        }
      ],
      "name": "cleanupCancelledSubscribers",
      "outputs": [],
      "stateMutability": "nonpayable",
      "type": "function"
    },
    {
      "inputs": [
        {
          "internalType": "uint256",
          "name": "amount",
          "type": "uint256"
        },
        {
          "internalType": "address",
          "name": "token",
          "type": "address"
        },
        {
          "components": [
            {
              "internalType": "string",
              "name": "url",
              "type": "string"
            },
            {
              "internalType": "string",
              "name": "description",
              "type": "string"
            }
          ],
          "internalType": "struct ClockTowerSubscribe.Details",
          "name": "details",
          "type": "tuple"
        },
        {
          "internalType": "enum ClockTowerSubscribe.Frequency",
          "name": "frequency",
          "type": "uint8"
        },
        {
          "internalType": "uint16",
          "name": "dueDay",
          "type": "uint16"
        }
      ],
      "name": "createSubscription",
      "outputs": [],
      "stateMutability": "nonpayable",
      "type": "function"
    },
    {
      "inputs": [],
      "name": "defaultAdmin",
      "outputs": [
        {
          "internalType": "address",
          "name": "",
          "type": "address"
        }
      ],
      "stateMutability": "view",
      "type": "function"
    },
    {
      "inputs": [],
      "name": "defaultAdminDelay",
      "outputs": [
        {
          "internalType": "uint48",
          "name": "",
          "type": "uint48"
        }
      ],
      "stateMutability": "view",
      "type": "function"
    },
    {
      "inputs": [],
      "name": "defaultAdminDelayIncreaseWait",
      "outputs": [
        {
          "internalType": "uint48",
          "name": "",
          "type": "uint48"
        }
      ],
      "stateMutability": "view",
      "type": "function"
    },
    {
      "inputs": [
        {
          "components": [
            {
              "internalType": "string",
              "name": "url",
              "type": "string"
            },
            {
              "internalType": "string",
              "name": "description",
              "type": "string"
            }
          ],
          "internalType": "struct ClockTowerSubscribe.Details",
          "name": "details",
          "type": "tuple"
        },
        {
          "internalType": "bytes32",
          "name": "id",
          "type": "bytes32"
        }
      ],
      "name": "editDetails",
      "outputs": [],
      "stateMutability": "nonpayable",
      "type": "function"
    },
    {
      "inputs": [
        {
          "components": [
            {
              "internalType": "string",
              "name": "description",
              "type": "string"
            },
            {
              "internalType": "string",
              "name": "company",
              "type": "string"
            },
            {
              "internalType": "string",
              "name": "url",
              "type": "string"
            },
            {
              "internalType": "string",
              "name": "domain",
              "type": "string"
            },
            {
              "internalType": "string",
              "name": "email",
              "type": "string"
            },
            {
              "internalType": "string",
              "name": "misc",
              "type": "string"
            }
          ],
          "internalType": "struct ClockTowerSubscribe.ProviderDetails",
          "name": "details",
          "type": "tuple"
        }
      ],
      "name": "editProvDetails",
      "outputs": [],
      "stateMutability": "nonpayable",
      "type": "function"
    },
    {
      "inputs": [
        {
          "internalType": "bytes32",
          "name": "",
          "type": "bytes32"
        },
        {
          "internalType": "address",
          "name": "",
          "type": "address"
        }
      ],
      "name": "feeBalance",
      "outputs": [
        {
          "internalType": "uint256",
          "name": "",
          "type": "uint256"
        }
      ],
      "stateMutability": "view",
      "type": "function"
    },
    {
      "inputs": [
        {
          "internalType": "address",
          "name": "account",
          "type": "address"
        }
      ],
      "name": "getAccount",
      "outputs": [
        {
          "components": [
            {
              "internalType": "address",
              "name": "accountAddress",
              "type": "address"
            },
            {
              "components": [
                {
                  "internalType": "bytes32",
                  "name": "id",
                  "type": "bytes32"
                },
                {
                  "internalType": "uint16",
                  "name": "dueDay",
                  "type": "uint16"
                },
                {
                  "internalType": "enum ClockTowerSubscribe.Frequency",
                  "name": "frequency",
                  "type": "uint8"
                },
                {
                  "internalType": "enum ClockTowerSubscribe.Status",
                  "name": "status",
                  "type": "uint8"
                }
              ],
              "internalType": "struct ClockTowerSubscribe.SubIndex[]",
              "name": "subscriptions",
              "type": "tuple[]"
            },
            {
              "components": [
                {
                  "internalType": "bytes32",
                  "name": "id",
                  "type": "bytes32"
                },
                {
                  "internalType": "uint16",
                  "name": "dueDay",
                  "type": "uint16"
                },
                {
                  "internalType": "enum ClockTowerSubscribe.Frequency",
                  "name": "frequency",
                  "type": "uint8"
                },
                {
                  "internalType": "enum ClockTowerSubscribe.Status",
                  "name": "status",
                  "type": "uint8"
                }
              ],
              "internalType": "struct ClockTowerSubscribe.SubIndex[]",
              "name": "provSubs",
              "type": "tuple[]"
            }
          ],
          "internalType": "struct ClockTowerSubscribe.Account",
          "name": "",
          "type": "tuple"
        }
      ],
      "stateMutability": "view",
      "type": "function"
    },
    {
      "inputs": [
        {
          "internalType": "bool",
          "name": "bySubscriber",
          "type": "bool"
        },
        {
          "internalType": "address",
          "name": "account",
          "type": "address"
        }
      ],
      "name": "getAccountSubscriptions",
      "outputs": [
        {
          "components": [
            {
              "components": [
                {
                  "internalType": "bytes32",
                  "name": "id",
                  "type": "bytes32"
                },
                {
                  "internalType": "uint256",
                  "name": "amount",
                  "type": "uint256"
                },
                {
                  "internalType": "address",
                  "name": "provider",
                  "type": "address"
                },
                {
                  "internalType": "address",
                  "name": "token",
                  "type": "address"
                },
                {
                  "internalType": "bool",
                  "name": "cancelled",
                  "type": "bool"
                },
                {
                  "internalType": "enum ClockTowerSubscribe.Frequency",
                  "name": "frequency",
                  "type": "uint8"
                },
                {
                  "internalType": "uint16",
                  "name": "dueDay",
                  "type": "uint16"
                }
              ],
              "internalType": "struct ClockTowerSubscribe.Subscription",
              "name": "subscription",
              "type": "tuple"
            },
            {
              "internalType": "enum ClockTowerSubscribe.Status",
              "name": "status",
              "type": "uint8"
            },
            {
              "internalType": "uint256",
              "name": "totalSubscribers",
              "type": "uint256"
            }
          ],
          "internalType": "struct ClockTowerSubscribe.SubView[]",
          "name": "",
          "type": "tuple[]"
        }
      ],
      "stateMutability": "view",
      "type": "function"
    },
    {
      "inputs": [
        {
          "internalType": "uint256",
          "name": "frequency",
          "type": "uint256"
        },
        {
          "internalType": "uint16",
          "name": "dueDay",
          "type": "uint16"
        }
      ],
      "name": "getIdByTime",
      "outputs": [
        {
          "internalType": "bytes32[]",
          "name": "",
          "type": "bytes32[]"
        }
      ],
      "stateMutability": "view",
      "type": "function"
    },
    {
      "inputs": [
        {
          "internalType": "bytes32",
          "name": "role",
          "type": "bytes32"
        }
      ],
      "name": "getRoleAdmin",
      "outputs": [
        {
          "internalType": "bytes32",
          "name": "",
          "type": "bytes32"
        }
      ],
      "stateMutability": "view",
      "type": "function"
    },
    {
      "inputs": [
        {
          "internalType": "bytes32",
          "name": "id",
          "type": "bytes32"
        }
      ],
      "name": "getSubscribersById",
      "outputs": [
        {
          "components": [
            {
              "internalType": "address",
              "name": "subscriber",
              "type": "address"
            },
            {
              "internalType": "uint256",
              "name": "feeBalance",
              "type": "uint256"
            }
          ],
          "internalType": "struct ClockTowerSubscribe.SubscriberView[]",
          "name": "",
          "type": "tuple[]"
        }
      ],
      "stateMutability": "view",
      "type": "function"
    },
    {
      "inputs": [],
      "name": "getTotalSubscribers",
      "outputs": [
        {
          "internalType": "uint256",
          "name": "",
          "type": "uint256"
        }
      ],
      "stateMutability": "view",
      "type": "function"
    },
    {
      "inputs": [
        {
          "internalType": "bytes32",
          "name": "id",
          "type": "bytes32"
        }
      ],
      "name": "getUnsubscribedLength",
      "outputs": [
        {
          "internalType": "uint256",
          "name": "",
          "type": "uint256"
        }
      ],
      "stateMutability": "view",
      "type": "function"
    },
    {
      "inputs": [
        {
          "internalType": "bytes32",
          "name": "role",
          "type": "bytes32"
        },
        {
          "internalType": "address",
          "name": "account",
          "type": "address"
        }
      ],
      "name": "grantRole",
      "outputs": [],
      "stateMutability": "nonpayable",
      "type": "function"
    },
    {
      "inputs": [
        {
          "internalType": "bytes32",
          "name": "role",
          "type": "bytes32"
        },
        {
          "internalType": "address",
          "name": "account",
          "type": "address"
        }
      ],
      "name": "hasRole",
      "outputs": [
        {
          "internalType": "bool",
          "name": "",
          "type": "bool"
        }
      ],
      "stateMutability": "view",
      "type": "function"
    },
    {
      "inputs": [
        {
          "internalType": "bytes32",
          "name": "",
          "type": "bytes32"
        }
      ],
      "name": "idSubMap",
      "outputs": [
        {
          "internalType": "bytes32",
          "name": "id",
          "type": "bytes32"
        },
        {
          "internalType": "uint256",
          "name": "amount",
          "type": "uint256"
        },
        {
          "internalType": "address",
          "name": "provider",
          "type": "address"
        },
        {
          "internalType": "address",
          "name": "token",
          "type": "address"
        },
        {
          "internalType": "bool",
          "name": "cancelled",
          "type": "bool"
        },
        {
          "internalType": "enum ClockTowerSubscribe.Frequency",
          "name": "frequency",
          "type": "uint8"
        },
        {
          "internalType": "uint16",
          "name": "dueDay",
          "type": "uint16"
        }
      ],
      "stateMutability": "view",
      "type": "function"
    },
    {
      "inputs": [],
      "name": "maxRemits",
      "outputs": [
        {
          "internalType": "uint256",
          "name": "",
          "type": "uint256"
        }
      ],
      "stateMutability": "view",
      "type": "function"
    },
    {
      "inputs": [],
      "name": "nextUncheckedDay",
      "outputs": [
        {
          "internalType": "uint40",
          "name": "",
          "type": "uint40"
        }
      ],
      "stateMutability": "view",
      "type": "function"
    },
    {
      "inputs": [],
      "name": "owner",
      "outputs": [
        {
          "internalType": "address",
          "name": "",
          "type": "address"
        }
      ],
      "stateMutability": "view",
      "type": "function"
    },
    {
      "inputs": [
        {
          "internalType": "address",
          "name": "_tokenAddress",
          "type": "address"
        },
        {
          "internalType": "bool",
          "name": "pause",
          "type": "bool"
        }
      ],
      "name": "pauseToken",
      "outputs": [],
      "stateMutability": "nonpayable",
      "type": "function"
    },
    {
      "inputs": [],
      "name": "pendingDefaultAdmin",
      "outputs": [
        {
          "internalType": "address",
          "name": "newAdmin",
          "type": "address"
        },
        {
          "internalType": "uint48",
          "name": "schedule",
          "type": "uint48"
        }
      ],
      "stateMutability": "view",
      "type": "function"
    },
    {
      "inputs": [],
      "name": "pendingDefaultAdminDelay",
      "outputs": [
        {
          "internalType": "uint48",
          "name": "newDelay",
          "type": "uint48"
        },
        {
          "internalType": "uint48",
          "name": "schedule",
          "type": "uint48"
        }
      ],
      "stateMutability": "view",
      "type": "function"
    },
    {
      "inputs": [],
      "name": "remit",
      "outputs": [],
      "stateMutability": "nonpayable",
      "type": "function"
    },
    {
      "inputs": [
        {
          "internalType": "bytes32",
          "name": "role",
          "type": "bytes32"
        },
        {
          "internalType": "address",
          "name": "account",
          "type": "address"
        }
      ],
      "name": "renounceRole",
      "outputs": [],
      "stateMutability": "nonpayable",
      "type": "function"
    },
    {
      "inputs": [
        {
          "internalType": "bytes32",
          "name": "role",
          "type": "bytes32"
        },
        {
          "internalType": "address",
          "name": "account",
          "type": "address"
        }
      ],
      "name": "revokeRole",
      "outputs": [],
      "stateMutability": "nonpayable",
      "type": "function"
    },
    {
      "inputs": [],
      "name": "rollbackDefaultAdminDelay",
      "outputs": [],
      "stateMutability": "nonpayable",
      "type": "function"
    },
    {
      "inputs": [
        {
          "internalType": "uint256",
          "name": "_cancelLimit",
          "type": "uint256"
        }
      ],
      "name": "setCancelLimit",
      "outputs": [],
      "stateMutability": "nonpayable",
      "type": "function"
    },
    {
      "inputs": [
        {
          "internalType": "uint40",
          "name": "_nextUncheckedDay",
          "type": "uint40"
        }
      ],
      "name": "setNextUncheckedDay",
      "outputs": [],
      "stateMutability": "nonpayable",
      "type": "function"
    },
    {
      "inputs": [
        {
          "components": [
            {
              "internalType": "bytes32",
              "name": "id",
              "type": "bytes32"
            },
            {
              "internalType": "uint256",
              "name": "subscriberIndex",
              "type": "uint256"
            },
            {
              "internalType": "uint256",
              "name": "subscriptionIndex",
              "type": "uint256"
            },
            {
              "internalType": "uint256",
              "name": "frequency",
              "type": "uint256"
            },
            {
              "internalType": "bool",
              "name": "initialized",
              "type": "bool"
            }
          ],
          "internalType": "struct ClockTowerSubscribe.PageStart",
          "name": "_pageStart",
          "type": "tuple"
        }
      ],
      "name": "setPageStart",
      "outputs": [],
      "stateMutability": "nonpayable",
      "type": "function"
    },
    {
      "inputs": [
        {
          "components": [
            {
              "internalType": "bytes32",
              "name": "id",
              "type": "bytes32"
            },
            {
              "internalType": "uint256",
              "name": "amount",
              "type": "uint256"
            },
            {
              "internalType": "address",
              "name": "provider",
              "type": "address"
            },
            {
              "internalType": "address",
              "name": "token",
              "type": "address"
            },
            {
              "internalType": "bool",
              "name": "cancelled",
              "type": "bool"
            },
            {
              "internalType": "enum ClockTowerSubscribe.Frequency",
              "name": "frequency",
              "type": "uint8"
            },
            {
              "internalType": "uint16",
              "name": "dueDay",
              "type": "uint16"
            }
          ],
          "internalType": "struct ClockTowerSubscribe.Subscription",
          "name": "_subscription",
          "type": "tuple"
        }
      ],
      "name": "subscribe",
      "outputs": [],
      "stateMutability": "nonpayable",
      "type": "function"
    },
    {
      "inputs": [
        {
          "internalType": "bytes4",
          "name": "interfaceId",
          "type": "bytes4"
        }
      ],
      "name": "supportsInterface",
      "outputs": [
        {
          "internalType": "bool",
          "name": "",
          "type": "bool"
        }
      ],
      "stateMutability": "view",
      "type": "function"
    },
    {
      "inputs": [],
      "name": "systemFee",
      "outputs": [
        {
          "internalType": "uint256",
          "name": "",
          "type": "uint256"
        }
      ],
      "stateMutability": "view",
      "type": "function"
    },
    {
      "inputs": [
        {
          "internalType": "bool",
          "name": "status",
          "type": "bool"
        }
      ],
      "name": "systemFeeActivate",
      "outputs": [],
      "stateMutability": "nonpayable",
      "type": "function"
    },
    {
      "inputs": [
        {
          "components": [
            {
              "internalType": "bytes32",
              "name": "id",
              "type": "bytes32"
            },
            {
              "internalType": "uint256",
              "name": "amount",
              "type": "uint256"
            },
            {
              "internalType": "address",
              "name": "provider",
              "type": "address"
            },
            {
              "internalType": "address",
              "name": "token",
              "type": "address"
            },
            {
              "internalType": "bool",
              "name": "cancelled",
              "type": "bool"
            },
            {
              "internalType": "enum ClockTowerSubscribe.Frequency",
              "name": "frequency",
              "type": "uint8"
            },
            {
              "internalType": "uint16",
              "name": "dueDay",
              "type": "uint16"
            }
          ],
          "internalType": "struct ClockTowerSubscribe.Subscription",
          "name": "_subscription",
          "type": "tuple"
        }
      ],
      "name": "unsubscribe",
      "outputs": [],
      "stateMutability": "nonpayable",
      "type": "function"
    },
    {
      "inputs": [
        {
          "components": [
            {
              "internalType": "bytes32",
              "name": "id",
              "type": "bytes32"
            },
            {
              "internalType": "uint256",
              "name": "amount",
              "type": "uint256"
            },
            {
              "internalType": "address",
              "name": "provider",
              "type": "address"
            },
            {
              "internalType": "address",
              "name": "token",
              "type": "address"
            },
            {
              "internalType": "bool",
              "name": "cancelled",
              "type": "bool"
            },
            {
              "internalType": "enum ClockTowerSubscribe.Frequency",
              "name": "frequency",
              "type": "uint8"
            },
            {
              "internalType": "uint16",
              "name": "dueDay",
              "type": "uint16"
            }
          ],
          "internalType": "struct ClockTowerSubscribe.Subscription",
          "name": "_subscription",
          "type": "tuple"
        },
        {
          "internalType": "address",
          "name": "subscriber",
          "type": "address"
        }
      ],
      "name": "unsubscribeByProvider",
      "outputs": [],
      "stateMutability": "nonpayable",
      "type": "function"
    }
  ],
  "bytecode": "0x608060405234801561000f575f5ffd5b5060405161623138038061623183398101604081905261002e9161033b565b62015180826001600160a01b03811661006057604051636116401160e11b81525f600482015260240160405180910390fd5b600180546001600160d01b0316600160d01b65ffffffffffff8516021790556100895f8261020a565b5050506001600160a01b03821661009e575f5ffd5b61271087101580156100b25750612a518711155b6100ba575f5ffd5b61271086101580156100ce5750614e1f8611155b6100d6575f5ffd5b6101007f1cb0d6461572bd9b725739f1d8ea32d250b0dfcd75c68201355159719c012f808261020a565b506003879055600486815560068590556005869055600c805460ff60d01b1916600160d01b861515021790556040516358a6076b60e11b815264ffffffffff42169181019190915260029073__$d8070e93ad328db793760a96865bf0924d$__9063b14c0ed690602401602060405180830381865af4158015610185573d5f5f3e3d5ffd5b505050506040513d601f19601f820116820180604052508101906101a991906103a8565b6101b391906103d3565b600c80546001600160a01b03909416660100000000000002600160301b600160d01b031964ffffffffff939093166101000292909216610100600160d01b03199094169390931717909155506103fc945050505050565b5f82610266575f6102236002546001600160a01b031690565b6001600160a01b03161461024a57604051631fe1e13d60e11b815260040160405180910390fd5b600280546001600160a01b0319166001600160a01b0384161790555b6102708383610279565b90505b92915050565b5f828152602081815260408083206001600160a01b038516845290915281205460ff16610319575f838152602081815260408083206001600160a01b03861684529091529020805460ff191660011790556102d13390565b6001600160a01b0316826001600160a01b0316847f2f8788117e7eff1d82e926ec794901d17c78024a50270940304540a733656f0d60405160405180910390a4506001610273565b505f610273565b80516001600160a01b0381168114610336575f5ffd5b919050565b5f5f5f5f5f5f5f60e0888a031215610351575f5ffd5b8751602089015160408a015160608b015160808c0151939a5091985096509450801515811461037e575f5ffd5b925061038c60a08901610320565b915061039a60c08901610320565b905092959891949750929550565b5f602082840312156103b8575f5ffd5b815164ffffffffff811681146103cc575f5ffd5b9392505050565b64ffffffffff828116828216039081111561027357634e487b7160e01b5f52601160045260245ffd5b615e28806104095f395ff3fe608060405234801561000f575f5ffd5b5060043610610345575f3560e01c806384ef8ffc116101be578063cab1c965116100fe578063d57ade5a1161009e578063e0a177f311610079578063e0a177f314610830578063ebec6eaa14610843578063ed601d281461086d578063fbcbc0f114610880575f5ffd5b8063d57ade5a146107e9578063d602b9fd146107fc578063da854a9614610804575f5ffd5b8063cefc1429116100d9578063cefc14291461078d578063cf6eefb714610795578063d10f9e69146107c3578063d547741f146107d6575f5ffd5b8063cab1c9651461075c578063cc8463c814610765578063ccc992331461076d575f5ffd5b80639889552e11610169578063a6b6356a11610144578063a6b6356a146106b5578063ac2b4e63146106c8578063b25ae32c146106db578063bd743886146106e3575f5ffd5b80639889552e14610674578063a1eda53c14610687578063a217fddf146106ae575f5ffd5b80638ef0ef1c116101995780638ef0ef1c1461061857806391d148541461062b57806392376c3f14610661575f5ffd5b806384ef8ffc146105cb57806386525a00146105f05780638da5cb5b14610610575f5ffd5b806334d441d011610289578063649a5ec7116102345780637507ba391161020f5780637507ba391461057d5780637b7c5f17146105855780637bbf5a6e146105985780637ee1bfb9146105b8575f5ffd5b8063649a5ec714610530578063668c1e8a146105435780636692dd5714610556575f5ffd5b80634a1268b8116102645780634a1268b8146104f7578063598bff351461050a578063634e93da1461051d575f5ffd5b806334d441d0146104c857806336568abe146104d157806336e73d72146104e4575f5ffd5b80630bec99e8116102f45780631f17ee55116102cf5780631f17ee5514610477578063248a9ca31461048057806327ea9773146104a25780632f2ff15d146104b5575f5ffd5b80630bec99e81461043a57806312c99cf51461044d57806316e8b85014610460575f5ffd5b8063038c9c0e11610324578063038c9c0e1461040a5780630aa6220b1461041f5780630b8590c714610427575f5ffd5b8062b709771461034957806301ffc9a7146103cb578063022d63fb146103ee575b5f5ffd5b6103af61035736600461506e565b60166020525f90815260409020805460018201546002830154600390930154919290916001600160a01b039182169181169060ff600160a01b8204811691600160a81b81049091169061ffff600160b01b9091041687565b6040516103c297969594939291906150ad565b60405180910390f35b6103de6103d93660046150fd565b6108a0565b60405190151581526020016103c2565b620697805b60405165ffffffffffff90911681526020016103c2565b61041d61041836600461513a565b6108ca565b005b61041d6111cb565b61041d610435366004615197565b6111e0565b61041d61044836600461506e565b611662565b61041d61045b36600461513a565b61168e565b61046960065481565b6040519081526020016103c2565b61046960045481565b61046961048e36600461506e565b5f9081526020819052604090206001015490565b61041d6104b036600461506e565b61192a565b61041d6104c336600461520f565b61193a565b61046960035481565b61041d6104df36600461520f565b611966565b6104696104f236600461506e565b611a27565b61041d610505366004615239565b611a3d565b61041d61051836600461527b565b611b39565b61041d61052b3660046152a5565b611e3f565b61041d61053e3660046152be565b611e52565b61041d61055136600461513a565b611e65565b6104697f1cb0d6461572bd9b725739f1d8ea32d250b0dfcd75c68201355159719c012f8081565b61041d612046565b61041d6105933660046152f5565b6130a7565b6105ab6105a636600461506e565b6130d6565b6040516103c29190615310565b61041d6105c6366004615367565b61327d565b6002546001600160a01b03165b6040516001600160a01b0390911681526020016103c2565b6106036105fe36600461538d565b613294565b6040516103c291906153c7565b6105d8613619565b61041d61062636600461506e565b613631565b6103de61063936600461520f565b5f918252602082815260408084206001600160a01b0393909316845291905290205460ff1690565b61041d61066f3660046154e1565b61365d565b61041d610682366004615569565b6139f3565b61068f613a1c565b6040805165ffffffffffff9384168152929091166020830152016103c2565b6104695f81565b61041d6106c336600461506e565b613a6e565b61041d6106d63660046152a5565b613bd4565b610469613c59565b61072a6106f13660046152a5565b60196020525f9081526040902080546001909101546001600160a01b0382169160ff600160a01b8204811692600160a81b909204169084565b604080516001600160a01b03909516855260ff90931660208501529015159183019190915260608201526080016103c2565b61046960055481565b6103f3613c64565b61078061077b366004615584565b613cc2565b6040516103c291906155b2565b61041d613da8565b600154604080516001600160a01b0383168152600160a01b90920465ffffffffffff166020830152016103c2565b61041d6107d13660046155e9565b613dde565b61041d6107e436600461520f565b613e4d565b61041d6107f736600461562b565b613e75565b61041d613f22565b600c5461081a90610100900464ffffffffff1681565b60405164ffffffffff90911681526020016103c2565b61041d61083e36600461506e565b613f34565b61046961085136600461520f565b601360209081525f928352604080842090915290825290205481565b61041d61087b3660046156e0565b613f44565b61089361088e3660046152a5565b613fc3565b6040516103c29190615899565b5f6001600160e01b031982166318a4c3c360e11b14806108c457506108c482614452565b92915050565b6108d48135614486565b6109095760405162461bcd60e51b81526020600482015260016024820152603360f81b60448201526064015b60405180910390fd5b80355f908152601660209081526040808320815160e0810183528154815260018201549381019390935260028101546001600160a01b0390811692840192909252600380820154928316606085015260ff600160a01b8404811615156080860152919260a0850192600160a81b909104169081111561098a5761098a615085565b600381111561099b5761099b615085565b815260039190910154600160b01b900461ffff1660209182015260608201516001600160a01b03165f90815260199091526040902054909150600160a81b900460ff1615610a105760405162461bcd60e51b8152602060048201526002602482015261032360f41b6044820152606401610900565b600754823503610a475760405162461bcd60e51b81526020600482015260026024820152610c8d60f21b6044820152606401610900565b60208181015160608301516001600160a01b03165f90815260199092526040822054610a7d9190600160a01b900460ff166144b8565b6060830151604051636eb1769f60e11b815233600482015230602482015291925082916001600160a01b039091169063dd62ed3e90604401602060405180830381865afa158015610ad0573d5f5f3e3d5ffd5b505050506040513d601f19601f82011682018060405250810190610af491906158ed565b10158015610b6c575060608201516040516370a0823160e01b815233600482015282916001600160a01b0316906370a0823190602401602060405180830381865afa158015610b45573d5f5f3e3d5ffd5b505050506040513d601f19601f82011682018060405250810190610b6991906158ed565b10155b610b9d5760405162461bcd60e51b8152602060048201526002602482015261031360f41b6044820152606401610900565b60408201516001600160a01b03163303610bdd5760405162461bcd60e51b81526020600482015260016024820152600360fc1b6044820152606401610900565b81515f908152601560205260409020610bf6903361452a565b1580610c16575081515f908152601760205260409020610c16903361452a565b610c475760405162461bcd60e51b8152602060048201526002602482015261323560f01b6044820152606401610900565b816080015115610c7e5760405162461bcd60e51b8152602060048201526002602482015261323360f01b6044820152606401610900565b81515f908152601560205260409020610c969061454e565b5f03610ce857610ce6825f015160145f8560a001516003811115610cbc57610cbc615085565b815260208082019290925260409081015f90812060c088015161ffff168252909252902090614557565b505b81515f908152601560205260409020610d01903361452a565b610d205781515f908152601560205260409020610d1e9033614562565b505b81515f908152601760205260409020610d39903361452a565b15610d595781515f908152601760205260409020610d579033614576565b505b610da26040518060800160405280845f015181526020018460c0015161ffff1681526020018460a001516003811115610d9457610d94615085565b81526020015f90525f61458a565b60208201516040516358a6076b60e11b815264ffffffffff421660048201526001905f9073__$d8070e93ad328db793760a96865bf0924d$__9063b14c0ed690602401602060405180830381865af4158015610e00573d5f5f3e3d5ffd5b505050506040513d601f19601f82011682018060405250810190610e249190615904565b600c549091505f9064ffffffffff8084166101009092041611610e45575060015b5f73__$d8070e93ad328db793760a96865bf0924d$__63cf5e4f0c428960c00151888b60a001516003811115610e7d57610e7d615085565b6040516001600160e01b031960e087901b168152600481019490945261ffff9092166024840152604483015260ff166064820152608401602060405180830381865af4158015610ecf573d5f5f3e3d5ffd5b505050506040513d601f19601f82011682018060405250810190610ef391906158ed565b9450866020015185148015610f055750815b15610fc857506201518073__$d8070e93ad328db793760a96865bf0924d$__63cf5e4f0c610f338342615933565b8960c00151888b60a001516003811115610f4f57610f4f615085565b6040516001600160e01b031960e087901b168152600481019490945261ffff9092166024840152604483015260ff166064820152608401602060405180830381865af4158015610fa1573d5f5f3e3d5ffd5b505050506040513d601f19601f82011682018060405250810190610fc591906158ed565b94505b60028760a001516003811115610fe057610fe0615085565b03610ff757610ff0600386615946565b9450600293505b60038760a00151600381111561100f5761100f615085565b036110265761101f600c86615946565b9450600b93505b86515f90815260136020908152604080832033845290915281208054879290611050908490615965565b92505081905550336001600160a01b031687604001516001600160a01b0316885f01515f516020615dd35f395f51905f52428b602001518c60600151600660405161109e9493929190615988565b60405180910390a4336001600160a01b031687604001516001600160a01b0316885f01515f516020615dd35f395f51905f5242898c6060015160086040516110e99493929190615988565b60405180910390a460608701516001600160a01b03165f90815260196020526040902054611140903390309061112a908990600160a01b900460ff166144b8565b60608b01516001600160a01b0316929190614628565b60028760a00151600381111561115857611158615085565b1480611179575060038760a00151600381111561117757611177615085565b145b156111c1576111c133886040015161112a878961119691906159b9565b60608c01516001600160a01b03165f90815260196020526040902054600160a01b900460ff166144b8565b5050505050505050565b5f6111d5816146a4565b6111dd6146ae565b50565b6001600160a01b03841661121a5760405162461bcd60e51b81526020600482015260016024820152600d60fa1b6044820152606401610900565b6001600160a01b038085165f90815260196020526040902054166112645760405162461bcd60e51b81526020600482015260016024820152603560f81b6044820152606401610900565b6001600160a01b0384165f90815260196020526040902054600160a81b900460ff16156112b85760405162461bcd60e51b8152602060048201526002602482015261032360f41b6044820152606401610900565b5f8260038111156112cb576112cb615085565b03611319578061ffff165f1080156112e8575060078161ffff1611155b6113195760405162461bcd60e51b81526020600482015260026024820152610c4d60f21b6044820152606401610900565b600182600381111561132d5761132d615085565b0361137b578061ffff165f10801561134a5750601c8161ffff1611155b61137b5760405162461bcd60e51b8152602060048201526002602482015261313560f01b6044820152606401610900565b600282600381111561138f5761138f615085565b036113dd578061ffff165f1080156113ac5750605a8161ffff1611155b6113dd5760405162461bcd60e51b8152602060048201526002602482015261189b60f11b6044820152606401610900565b60038260038111156113f1576113f1615085565b03611440578061ffff165f10801561140f575061016d8161ffff1611155b6114405760405162461bcd60e51b8152602060048201526002602482015261313760f01b6044820152606401610900565b6001600160a01b0384165f9081526019602052604090206001015485101561148f5760405162461bcd60e51b8152602060048201526002602482015261062760f31b6044820152606401610900565b5f61149c868685856146ba565b90506114e86040518060800160405280835f015181526020018360c0015161ffff1681526020018360a0015160038111156114d9576114d9615085565b81526020015f9052600161458a565b80515f9081526016602090815260409182902083518155908301516001820155908201516002820180546001600160a01b039283166001600160a01b031990911617905560608301516003808401805460808701511515600160a01b0274ffffffffffffffffffffffffffffffffffffffffff1990911693909416929092179290921780825560a085015185949390929160ff60a81b191690600160a81b90849081111561159857611598615085565b021790555060c091909101516003909101805461ffff909216600160b01b0261ffff60b01b19909216919091179055805164ffffffffff42169033907f93cda0785d40b289a535b99dc76d4c9cbb6d8146182861ac3ad40509398b18656115ff88806159d0565b61160c60208b018b6159d0565b60405161161c9493929190615a42565b60405180910390a4805160608201516040515f92339290915f516020615dd35f395f51905f52916116529142918d918890615988565b60405180910390a4505050505050565b5f61166c816146a4565b61271082101580156116805750614e1f8211155b611688575f5ffd5b50600455565b6116988135614486565b80156116d357506002335f908152600f602090815260408083208535845290915290205460ff1660028111156116d0576116d0615085565b14155b6117035760405162461bcd60e51b81526020600482015260016024820152603360f81b6044820152606401610900565b80355f908152601660209081526040808320815160e0810183528154815260018201549381019390935260028101546001600160a01b0390811692840192909252600380820154928316606085015260ff600160a01b8404811615156080860152919260a0850192600160a81b909104169081111561178457611784615085565b600381111561179557611795615085565b81526003919091015461ffff600160b01b90910416602091820152335f908152600f825260408082208451835290925220805460ff19166002179055600754909150823590036117f05780516117eb90336147be565b61180b565b80515f9081526015602052604090206118099033614576565b505b336001600160a01b031681604001516001600160a01b0316825f01515f516020615dd35f395f51905f52428560200151866060015160076040516118529493929190615988565b60405180910390a480515f9081526013602081815260408084203380865290835281852054865186529383528185208186529092528084209390935582840151845160608601519451939492936001600160a01b039092169290915f516020615dd35f395f51905f52916118cc9142918891600490615988565b60405180910390a460408281015160608401516001600160a01b03165f908152601960205291909120546119259190611910908490600160a01b900460ff166144b8565b60608501516001600160a01b0316919061482f565b505050565b5f611934816146a4565b50600555565b8161195857604051631fe1e13d60e11b815260040160405180910390fd5b6119628282614860565b5050565b8115801561198157506002546001600160a01b038281169116145b15611a1d576001546001600160a01b03811690600160a01b900465ffffffffffff16811515806119b7575065ffffffffffff8116155b806119ca57504265ffffffffffff821610155b156119f2576040516319ca5ebb60e01b815265ffffffffffff82166004820152602401610900565b5050600180547fffffffffffff000000000000ffffffffffffffffffffffffffffffffffffffff1690555b6119628282614884565b5f8181526017602052604081206108c49061454e565b5f611a47816146a4565b6001600160a01b038416611a59575f5ffd5b6001600160a01b038085165f908152601960205260409020541615611aa45760405162461bcd60e51b81526020600482015260016024820152603160f81b6044820152606401610900565b50604080516080810182526001600160a01b0394851680825260ff93841660208084019182525f8486018181526060860198895293815260199091529390932091518254935191511515600160a81b0260ff60a81b1992909516600160a01b0274ffffffffffffffffffffffffffffffffffffffffff1990941696169590951791909117939093161782555160019190910155565b611b438235614486565b8015611b87575060026001600160a01b0382165f908152600f602090815260408083208635845290915290205460ff166002811115611b8457611b84615085565b14155b611bb75760405162461bcd60e51b81526020600482015260016024820152603360f81b6044820152606401610900565b81355f908152601660209081526040808320815160e0810183528154815260018201549381019390935260028101546001600160a01b0390811692840192909252600380820154928316606085015260ff600160a01b8404811615156080860152919260a0850192600160a81b9091041690811115611c3857611c38615085565b6003811115611c4957611c49615085565b815260039190910154600160b01b900461ffff166020918201528151335f908152600e9092526040909120919250611c8191906148b7565b611cb15760405162461bcd60e51b81526020600482015260016024820152600760fb1b6044820152606401610900565b80515f908152601560205260409020611cca908361452a565b8015611cec575080515f908152601760205260409020611cea908361452a565b155b611d1c5760405162461bcd60e51b81526020600482015260016024820152603960f81b6044820152606401610900565b6001600160a01b0382165f908152600f60209081526040808320845184529091529020805460ff1916600217905560075483359003611d66578051611d6190836147be565b611d81565b80515f908152601560205260409020611d7f9083614576565b505b816001600160a01b031681604001516001600160a01b0316825f01515f516020615dd35f395f51905f5242856020015186606001516007604051611dc89493929190615988565b60405180910390a480515f9081526013602081815260408084206001600160a01b0387811680875291845282862054875187529484528286209186529083528185208590556060860151168452601990915290912054611e39908490611910908490600160a01b900460ff166144b8565b50505050565b5f611e49816146a4565b611962826148ce565b5f611e5c816146a4565b61196282614940565b611e6f8135614486565b611e9f5760405162461bcd60e51b81526020600482015260016024820152603360f81b6044820152606401610900565b80355f908152601660209081526040808320815160e0810183528154815260018201549381019390935260028101546001600160a01b0390811692840192909252600380820154928316606085015260ff600160a01b8404811615156080860152919260a0850192600160a81b9091041690811115611f2057611f20615085565b6003811115611f3157611f31615085565b815260039190910154600160b01b900461ffff1660209091015260408101519091506001600160a01b03163314611f8f5760405162461bcd60e51b8152602060048201526002602482015261313360f01b6044820152606401610900565b806080015115611fc65760405162461bcd60e51b8152602060048201526002602482015261323360f01b6044820152606401610900565b335f8181526010602090815260408083208551845282528083208054600160ff199091168117909155855184526016909252808320600301805460ff60a01b1916600160a01b17905584516060860151915193949390925f516020615dd35f395f51905f529261203a924292889291615988565b60405180910390a45050565b60ff5f5c161561207d5760405162461bcd60e51b8152602060048201526002602482015261313960f01b6044820152606401610900565b60015f805c60ff19168217905d506040516358a6076b60e11b815264ffffffffff421660048201525f9073__$d8070e93ad328db793760a96865bf0924d$__9063b14c0ed690602401602060405180830381865af41580156120e1573d5f5f3e3d5ffd5b505050506040513d601f19601f820116820180604052508101906121059190615904565b600c5490915064ffffffffff6101009091048116908216101561214e5760405162461bcd60e51b81526020600482015260016024820152601b60f91b6044820152606401610900565b6040805160c0810182525f80825260208201819052918101829052606081018290526080810182905260a0810191909152600190600c5464ffffffffff848116610100909204161461223d57600c5473__$d8070e93ad328db793760a96865bf0924d$__906353a6d6e2906121d290610100900464ffffffffff1662015180615a73565b6040516001600160e01b031960e084901b16815264ffffffffff909116600482015260240160c060405180830381865af4158015612212573d5f5f3e3d5ffd5b505050506040513d601f19601f820116820180604052508101906122369190615a93565b90506122b1565b6040516329d36b7160e11b815242600482015273__$d8070e93ad328db793760a96865bf0924d$__906353a6d6e29060240160c060405180830381865af415801561228a573d5f5f3e3d5ffd5b505050506040513d601f19601f820116820180604052508101906122ae9190615a93565b90505b5f5f5b60038111612fbc57600b5460ff1615806122dd5750600a5481108015906122dd5750600b5460ff165b15612faa575f816122ef575060208301515b600182036122fb575082515b6002820361230a575060408301515b60038203612319575060608301515b5f82815260146020908152604080832061ffff85168452909152812061233e9061454e565b90505b8015612fa757600b5460ff161580612368575060095481118015906123685750600b5460ff165b15612f95575f6016816123a161237f600186615933565b5f88815260146020908152604080832061ffff8b1684529091529020906149af565b815260208082019290925260409081015f20815160e0810183528154815260018201549381019390935260028101546001600160a01b0390811692840192909252600380820154928316606085015260ff600160a01b8404811615156080860152919260a0850192600160a81b909104169081111561242257612422615085565b600381111561243357612433615085565b815260039190910154600160b01b900461ffff1660209182015281515f9081526015909152604090209091506124689061454e565b5f0361249c5780515f85815260146020908152604080832061ffff881684529091529020612495916149ba565b5050612f95565b5f965080608001511580156124d4575060608101516001600160a01b03165f90815260196020526040902054600160a81b900460ff16155b15612f1d576040805160a08101825282518152606080840180516001600160a01b03908116602080860191909152868601518216858701529151165f9081526019825293842054600160a01b900460ff1691830182905260808301889052840151919291612541916144b8565b60208401516003549192505f916127109061255c90836159b9565b6125669190615946565b6125709190615933565b83515f90815260176020526040812091925090819061258e9061454e565b85515f9081526015602052604090206125a69061454e565b6125b09190615933565b85515f908152601560205260408120919250906125cc9061454e565b90505b8015612f12576005548b03612742576040805160a0810182528751808252602082018490529181018a9052606081018c90526001608090910181905260079190915560088290556009899055600a8b9055600b805460ff199081169092179055600c805490911690819055600160d01b900460ff16156126bc575f836127106004548661265c91906159b9565b6126669190615946565b6126709190615933565b905061267c8185615933565b93506126ba600c60069054906101000a90046001600160a01b03166126a5838a606001516144b8565b60208a01516001600160a01b0316919061482f565b505b6126e3336126ce8589606001516144b8565b60208901516001600160a01b0316919061482f565b600c546040515f81523391610100900464ffffffffff9081169142909116907f90192d7875364a53e351ae63fd2dfef8dc941735b29fb0c504d06a0e21ae602e9060200160405180910390a4505050505050505050505050505061309b565b6007548651148015612755575060085481145b1561276857600c805460ff191660011790555b600b5460ff1615806127815750600c5460ff1615156001145b15612f00575f6127aa612795600184615933565b88515f908152601560205260409020906149af565b87515f9081526017602052604090209091506127c6908261452a565b156127d15750612f00565b6020870151604051636eb1769f60e11b81526001600160a01b0383811660048301523060248301528892169063dd62ed3e90604401602060405180830381865afa158015612821573d5f5f3e3d5ffd5b505050506040513d601f19601f8201168201806040525081019061284591906158ed565b101580156128bf575060208701516040516370a0823160e01b81526001600160a01b038381166004830152889216906370a0823190602401602060405180830381865afa158015612898573d5f5f3e3d5ffd5b505050506040513d601f19601f820116820180604052508101906128bc91906158ed565b10155b15612c26578b6128ce81615b20565b9c5050600c60019054906101000a900464ffffffffff1664ffffffffff16875f01517f0c0097fff4bc1b26a833fef6928d7dec93a2ed4a665c3588c6a3270e0e7e3874848c8b60800151604051612938939291909283526020830191909152604082015260600190565b60405180910390a386515f9081526013602090815260408083206001600160a01b0385168452909152902054851015612a7f576129758585615965565b87515f9081526013602090815260408083206001600160a01b03861684529091528120805492965087929091906129ad908490615933565b92505081905550806001600160a01b031687604001516001600160a01b0316885f01515f516020615dd35f395f51905f52428c602001518c6020015160056040516129fb9493929190615988565b60405180910390a4806001600160a01b031687604001516001600160a01b0316885f01515f516020615dd35f395f51905f52428c602001518c602001516002604051612a4a9493929190615988565b60405180910390a4612a7a818860400151888a602001516001600160a01b0316614628909392919063ffffffff16565b612e68565b86515f9081526013602090815260408083206001600160a01b0385168452909152902054612aad9085615965565b9350806001600160a01b031687604001516001600160a01b0316885f01515f516020615dd35f395f51905f52428c602001518c602001516008604051612af69493929190615988565b60405180910390a46020880151600160028d9003612b2457612b19600383615946565b915060029050612b3e565b8c600303612b3e57612b37600c83615946565b9150600b90505b88515f9081526013602090815260408083206001600160a01b038716845290915281208054849290612b71908490615965565b90915550612b8190508787615965565b89515f9081526013602090815260408083206001600160a01b0388168452909152812080549298508992909190612bb9908490615933565b92505081905550612be98330612bd3858d606001516144b8565b60208d01516001600160a01b0316929190614628565b8c60021480612bf857508c6003145b15612c1f57612c1f838a60400151612bd38486612c1591906159b9565b8d606001516144b8565b5050612e68565b8b612c3081615b20565b88515f9081526013602090815260408083206001600160a01b0387168452909152902054909d508610159050612d2f57612c6a8585615965565b87515f9081526013602090815260408083206001600160a01b038616845290915281205491955090612c9d908790615933565b88515f9081526013602090815260408083206001600160a01b0380881680865291845282852094909455818d01518d51938e0151925195965090949316925f516020615dd35f395f51905f5291612cfa9142918891600490615988565b60405180910390a4612d2d8860400151612d18838b606001516144b8565b60208b01516001600160a01b0316919061482f565b505b6001600160a01b0381165f908152600f602090815260408083208a5184528252808320805460ff191660021790558951835260159091529020612d729082614576565b50806001600160a01b031687604001516001600160a01b0316885f01515f516020615dd35f395f51905f52428c602001518c602001516007604051612dba9493929190615988565b60405180910390a4806001600160a01b031687604001516001600160a01b0316885f01515f516020615dd35f395f51905f52425f8c602001516003604051612e059493929190615988565b60405180910390a4600c548751608089015160408051868152602081018e90529081019190915261010090920464ffffffffff16917f0c0097fff4bc1b26a833fef6928d7dec93a2ed4a665c3588c6a3270e0e7e38749060600160405180910390a35b816001148015612e7757505f83115b15612efe57600c54600160d01b900460ff1615612eec575f8461271060045487612ea191906159b9565b612eab9190615946565b612eb59190615933565b9050612ec18186615933565b9450612eea600c60069054906101000a90046001600160a01b0316612d18838b606001516144b8565b505b612efe336126a5868a606001516144b8565b505b80612f0a81615b38565b9150506125cf565b505050505050612f93565b806080015115612f505780515f85815260146020908152604080832061ffff881684529091529020612f4e916149ba565b505b600b5460ff168015612f6457508051600754145b15612f93575f600781905560088190556009819055600a55600b805460ff19908116909155600c805490911690555b505b80612f9f81615b38565b915050612341565b50505b80612fb481615b20565b9150506122b4565b505f600781905560088190556009819055600a55600b805460ff19908116909155600c805490911690819055604051600181523391610100900464ffffffffff9081169142909116907f90192d7875364a53e351ae63fd2dfef8dc941735b29fb0c504d06a0e21ae602e9060200160405180910390a46001600c60018282829054906101000a900464ffffffffff166130559190615b4d565b92506101000a81548164ffffffffff021916908364ffffffffff1602179055508215613096575f60ff19815c16815d5061308d612046565b5050505061309b565b505050505b5f60ff19815c16815d50565b5f6130b1816146a4565b50600c805464ffffffffff9092166101000265ffffffffff0019909216919091179055565b5f818152601760205260408120606091906130f09061454e565b5f8481526015602052604090206131069061454e565b6131109190615933565b90505f8167ffffffffffffffff81111561312c5761312c615481565b60405190808252806020026020018201604052801561317057816020015b604080518082019091525f808252602082015281526020019060019003908161314a5790505b5090505f5b5f85815260156020526040902061318b9061454e565b811015613275575f8581526015602052604090206131c0906131ad90836149af565b5f8781526017602052604090209061452a565b61326d575f8581526013602090815260408083206015909252822082906131e790856149af565b6001600160a01b03166001600160a01b031681526020019081526020015f205490505f60405180604001604052806132388560155f8c81526020019081526020015f206149af90919063ffffffff16565b6001600160a01b031681526020018381525090508084848151811061325f5761325f615b6a565b602002602001018190525050505b600101613175565b509392505050565b5f613287816146a4565b816007611e398282615b7e565b60608083156132c4576001600160a01b0383165f908152600d602052604090206132bd906149c5565b90506132e7565b6001600160a01b0383165f908152600e602052604090206132e4906149c5565b90505b5f815167ffffffffffffffff81111561330257613302615481565b60405190808252806020026020018201604052801561337e57816020015b60408051610140810182525f606082018181526080830182905260a0830182905260c0830182905260e0830182905261010083018290526101208301829052825260208083018290529282015282525f199092019101816133205790505b5090505f5b825181101561361057851561342c576001600160a01b0385165f908152600f6020526040812084519091908590849081106133c0576133c0615b6a565b602002602001015181526020019081526020015f205f9054906101000a900460ff168282815181106133f4576133f4615b6a565b602002602001015160200190600281111561341157613411615085565b9081600281111561342457613424615085565b9052506134c2565b6001600160a01b0385165f908152601060205260408120845190919085908490811061345a5761345a615b6a565b602002602001015181526020019081526020015f205f9054906101000a900460ff1682828151811061348e5761348e615b6a565b60200260200101516020019060028111156134ab576134ab615085565b908160028111156134be576134be615085565b9052505b60165f8483815181106134d7576134d7615b6a565b60209081029190910181015182528181019290925260409081015f20815160e0810183528154815260018201549381019390935260028101546001600160a01b0390811692840192909252600380820154928316606085015260ff600160a01b8404811615156080860152919260a0850192600160a81b909104169081111561356257613562615085565b600381111561357357613573615085565b815260039190910154600160b01b900461ffff1660209091015282518390839081106135a1576135a1615b6a565b60200260200101515f01819052506135e760155f8484815181106135c7576135c7615b6a565b60200260200101515f01515f015181526020019081526020015f2061454e565b8282815181106135f9576135f9615b6a565b602090810291909101015160400152600101613383565b50949350505050565b5f61362c6002546001600160a01b031690565b905090565b5f61363b816146a4565b612710821015801561364f5750612a518211155b613657575f5ffd5b50600355565b7f1cb0d6461572bd9b725739f1d8ea32d250b0dfcd75c68201355159719c012f80613687816146a4565b815161369290614486565b6136c25760405162461bcd60e51b81526020600482015260016024820152603360f81b6044820152606401610900565b81515f90815260166020526040902060030154600160a01b900460ff166136e7575f5ffd5b81515f9081526015602052604081206136ff9061454e565b905080806137345760405162461bcd60e51b8152602060048201526002602482015261191960f11b6044820152606401610900565b5f600654821061374657600654613748565b815b90505f835b6137578386615933565b81111561397b575f61378261376d600184615933565b89515f908152601560205260409020906149af565b88515f90815260176020526040902090915061379e908261452a565b61394d576001600160a01b038181165f818152600f602090815260408083208d518452825291829020805460ff191660011790558b8201518c51918d015160608e015193519495919091169391925f516020615dd35f395f51905f529261380b9242929091600790615988565b60405180910390a487515f9081526013602090815260408083206001600160a01b0385168452909152902054600c54600160d01b900460ff161561388c575f816127106004548461385c91906159b9565b6138669190615946565b6138709190615933565b905061387c8183615933565b91506138888186615965565b9450505b816001600160a01b031689604001516001600160a01b03168a5f01515f516020615dd35f395f51905f52428d602001518e6060015160096040516138d39493929190615988565b60405180910390a460608901516001600160a01b03165f90815260196020526040902054613927908390613912908490600160a01b900460ff166144b8565b60608c01516001600160a01b0316919061482f565b5087515f9081526013602090815260408083206001600160a01b03851684529091528120555b87515f9081526015602052604090206139669082614576565b5050808061397390615b38565b91505061374d565b50600c54600160d01b900460ff16156139eb57600c5460608701516001600160a01b039081165f908152601960205260409020546139eb9266010000000000009004909116906139d6908490600160a01b900460ff166144b8565b60608901516001600160a01b0316919061482f565b505050505050565b5f6139fd816146a4565b50600c8054911515600160d01b0260ff60d01b19909216919091179055565b6002545f90600160d01b900465ffffffffffff168015158015613a4757504265ffffffffffff821610155b613a52575f5f613a66565b600254600160a01b900465ffffffffffff16815b915091509091565b7f1cb0d6461572bd9b725739f1d8ea32d250b0dfcd75c68201355159719c012f80613a98816146a4565b613aa182614486565b613ad15760405162461bcd60e51b81526020600482015260016024820152603360f81b6044820152606401610900565b6007548203613ade575f5ffd5b5f828152601760205260408120613af49061454e565b90508080613b295760405162461bcd60e51b8152602060048201526002602482015261191960f11b6044820152606401610900565b5f6006548210613b3b57600654613b3d565b815b5f86815260176020526040812091925090613b579061454e565b90505b613b648285615933565b8111156139eb575f613b8d613b7a600184615933565b5f898152601760205260409020906149af565b5f888152601560205260409020909150613ba79082614576565b505f878152601760205260409020613bbf9082614576565b50508080613bcc90615b38565b915050613b5a565b5f613bde816146a4565b6001600160a01b038216613bf0575f5ffd5b600c546001600160a01b036601000000000000909104811690831603613c14575f5ffd5b50600c80546001600160a01b039092166601000000000000027fffffffffffff0000000000000000000000000000000000000000ffffffffffff909216919091179055565b5f61362c601161454e565b6002545f90600160d01b900465ffffffffffff168015158015613c8e57504265ffffffffffff8216105b613ca957600154600160d01b900465ffffffffffff16613cbc565b600254600160a01b900465ffffffffffff165b91505090565b5f82815260146020908152604080832061ffff85168452909152812060609190613ceb9061454e565b67ffffffffffffffff811115613d0357613d03615481565b604051908082528060200260200182016040528015613d2c578160200160208202803683370190505b5090505f5b5f85815260146020908152604080832061ffff881684529091529020613d569061454e565b811015613275575f85815260146020908152604080832061ffff881684529091529020613d8390826149af565b828281518110613d9557613d95615b6a565b6020908102919091010152600101613d31565b6001546001600160a01b0316338114613dd657604051636116401160e11b8152336004820152602401610900565b6111dd6149d1565b335f908152600e60205260409020613df690826148b7565b156119625764ffffffffff421633827f93cda0785d40b289a535b99dc76d4c9cbb6d8146182861ac3ad40509398b1865613e3086806159d0565b613e3d60208901896159d0565b60405161203a9493929190615a42565b81613e6b57604051631fe1e13d60e11b815260040160405180910390fd5b6119628282614a66565b5f613e7f816146a4565b6001600160a01b038381165f9081526019602052604090205416613ea1575f5ffd5b81613ef5576001600160a01b0383165f90815260196020526040902054600160a81b900460ff16613ed0575f5ffd5b50506001600160a01b03165f908152601960205260409020805460ff60a81b19169055565b6001600160a01b0383165f908152601960205260409020805460ff60a81b1916600160a81b179055505050565b5f613f2c816146a4565b6111dd614a8a565b5f613f3e816146a4565b50600655565b8051604051613f539190615bc8565b60405180910390204264ffffffffff16336001600160a01b03167f34f43abf7a52b609b04511ed963a29ebb76ae3e0ca0ff5594be1c2a84ebd03f284602001518560400151866060015187608001518860a00151604051613fb8959493929190615c0c565b60405180910390a450565b613fef60405180606001604052805f6001600160a01b0316815260200160608152602001606081525090565b6001600160a01b0382165f908152600d6020526040812061400f9061454e565b6001600160a01b0384165f908152600e60205260408120919250906140339061454e565b90505f8267ffffffffffffffff81111561404f5761404f615481565b6040519080825280602002602001820160405280156140a857816020015b614095604080516080810182525f80825260208201819052909182019081526020015f905290565b81526020019060019003908161406d5790505b5090505f5b8381101561422d576001600160a01b0386165f908152600d602052604081206140d690836149af565b5f818152601660209081526040808320815160e0810183528154815260018201549381019390935260028101546001600160a01b0390811692840192909252600380820154928316606085015260ff600160a01b840481161515608086015295965093949293909260a0850192600160a81b9004169081111561415b5761415b615085565b600381111561416c5761416c615085565b81526020016003820160169054906101000a900461ffff1661ffff1661ffff1681525050905060405180608001604052808381526020018260c0015161ffff1681526020018260a0015160038111156141c7576141c7615085565b81526001600160a01b038a165f908152600f6020908152604080832087845282529091205491019060ff16600281111561420357614203615085565b81525084848151811061421857614218615b6a565b602090810291909101015250506001016140ad565b505f8367ffffffffffffffff81111561424857614248615481565b6040519080825280602002602001820160405280156142a157816020015b61428e604080516080810182525f80825260208201819052909182019081526020015f905290565b8152602001906001900390816142665790505b5090505f5b83811015614426576001600160a01b0387165f908152600e602052604081206142cf90836149af565b5f818152601660209081526040808320815160e0810183528154815260018201549381019390935260028101546001600160a01b0390811692840192909252600380820154928316606085015260ff600160a01b840481161515608086015295965093949293909260a0850192600160a81b9004169081111561435457614354615085565b600381111561436557614365615085565b81526020016003820160169054906101000a900461ffff1661ffff1661ffff1681525050905060405180608001604052808381526020018260c0015161ffff1681526020018260a0015160038111156143c0576143c0615085565b81526001600160a01b038b165f90815260106020908152604080832087845282529091205491019060ff1660028111156143fc576143fc615085565b81525084848151811061441157614411615b6a565b602090810291909101015250506001016142a6565b50604080516060810182526001600160a01b039097168752602087019290925290850152509192915050565b5f6001600160e01b03198216637965db0b60e01b14806108c457506301ffc9a760e01b6001600160e01b03198316146108c4565b5f818152601660205260408120600201546001600160a01b03166144ab57505f919050565b506001919050565b919050565b5f601260ff83168110156144ed576144d08184615c78565b6144db90600a615d74565b6144e590856159b9565b9150506108c4565b8060ff168360ff16101561451a576145058382615c78565b61451090600a615d74565b6144e59085615946565b839150506108c4565b5092915050565b6001600160a01b0381165f90815260018301602052604081205415155b9392505050565b5f6108c4825490565b5f6145478383614a94565b5f614547836001600160a01b038416614a94565b5f614547836001600160a01b038416614ae0565b61459560113361452a565b6145a6576145a4601133614562565b505b80156145ea578151335f908152600e602052604090206145c591614557565b5050335f9081526010602090815260408083209351835292905220805460ff19169055565b8151335f908152600d6020526040902061460391614557565b5050335f908152600f602090815260408083209351835292905220805460ff19169055565b6040516001600160a01b038481166024830152838116604483015260648201839052611e399186918216906323b872dd906084015b604051602081830303815290604052915060e01b6020820180517bffffffffffffffffffffffffffffffffffffffffffffffffffffffff8381831617835250505050614bc3565b6111dd8133614c2f565b6146b85f5f614c81565b565b6040805160e0810182525f8082526020808301829052828401829052606083018290526080830182905260a0830182905260c08301829052338252601890529182208054919282919061470c83615b20565b90915550506040516bffffffffffffffffffffffff193360601b166020820152603481018290524260548201525f906074016040516020818303038152906040528051906020012090506040518060e00160405280828152602001888152602001336001600160a01b03168152602001876001600160a01b031681526020015f151581526020018660038111156147a5576147a5615085565b81526020018561ffff1681525092505050949350505050565b5f8281526017602052604090206147d5908261452a565b61196257806001600160a01b0316824264ffffffffff167fe8a3ae62c8b9d8314843e79e6ce12e9ca864bbd513aa26bb9c8844891939691260405160405180910390a45f8281526017602052604090206119259082614562565b6040516001600160a01b0383811660248301526044820183905261192591859182169063a9059cbb9060640161465d565b5f8281526020819052604090206001015461487a816146a4565b611e398383614d40565b6001600160a01b03811633146148ad5760405163334bd91960e11b815260040160405180910390fd5b6119258282614da6565b5f8181526001830160205260408120541515614547565b5f6148d7613c64565b6148e042614de2565b6148ea9190615d82565b90506148f68282614e18565b60405165ffffffffffff821681526001600160a01b038316907f3377dc44241e779dd06afab5b788a35ca5f3b778836e2990bdb26a2a4b2e5ed69060200160405180910390a25050565b5f61494a82614e7d565b61495342614de2565b61495d9190615d82565b90506149698282614c81565b6040805165ffffffffffff8085168252831660208201527ff1038c18cf84a56e432fdbfaf746924b7ea511dfe03a6506a0ceba4888788d9b910160405180910390a15050565b5f6145478383614ece565b5f6145478383614ae0565b60605f61454783614ef4565b6001546001600160a01b03811690600160a01b900465ffffffffffff16801580614a0357504265ffffffffffff821610155b15614a2b576040516319ca5ebb60e01b815265ffffffffffff82166004820152602401610900565b614a465f614a416002546001600160a01b031690565b614da6565b50614a515f83614d40565b5050600180546001600160d01b031916905550565b5f82815260208190526040902060010154614a80816146a4565b611e398383614da6565b6146b85f5f614e18565b5f818152600183016020526040812054614ad957508154600181810184555f8481526020808220909301849055845484825282860190935260409020919091556108c4565b505f6108c4565b5f8181526001830160205260408120548015614bba575f614b02600183615933565b85549091505f90614b1590600190615933565b9050808214614b74575f865f018281548110614b3357614b33615b6a565b905f5260205f200154905080875f018481548110614b5357614b53615b6a565b5f918252602080832090910192909255918252600188019052604090208390555b8554869080614b8557614b85615da0565b600190038181905f5260205f20015f90559055856001015f8681526020019081526020015f205f9055600193505050506108c4565b5f9150506108c4565b5f5f60205f8451602086015f885af180614be2576040513d5f823e3d81fd5b50505f513d91508115614bf9578060011415614c06565b6001600160a01b0384163b155b15611e3957604051635274afe760e01b81526001600160a01b0385166004820152602401610900565b5f828152602081815260408083206001600160a01b038516845290915290205460ff166119625760405163e2517d3f60e01b81526001600160a01b038216600482015260248101839052604401610900565b600254600160d01b900465ffffffffffff168015614d03574265ffffffffffff82161015614cda57600254600180546001600160d01b0316600160a01b90920465ffffffffffff16600160d01b02919091179055614d03565b6040517f2b1fa2edafe6f7b9e97c1a9e0c3660e645beb2dcaa2d45bdbf9beaf5472e1ec5905f90a15b50600280546001600160a01b0316600160a01b65ffffffffffff948516026001600160d01b031617600160d01b9290931691909102919091179055565b5f82614d9c575f614d596002546001600160a01b031690565b6001600160a01b031614614d8057604051631fe1e13d60e11b815260040160405180910390fd5b600280546001600160a01b0319166001600160a01b0384161790555b6145478383614f4d565b5f82158015614dc257506002546001600160a01b038381169116145b15614dd857600280546001600160a01b03191690555b6145478383614fed565b5f65ffffffffffff821115614e14576040516306dfcc6560e41b81526030600482015260248101839052604401610900565b5090565b60018054600160a01b65ffffffffffff84811682026001600160d01b031984166001600160a01b03881617179093559004168015611925576040517f8886ebfc4259abdbc16601dd8fb5678e54878f47b3c34836cfc51154a9605109905f90a1505050565b5f5f614e87613c64565b90508065ffffffffffff168365ffffffffffff1611614eaf57614eaa8382615db4565b614547565b61454765ffffffffffff8416620697805f828218828410028218614547565b5f825f018281548110614ee357614ee3615b6a565b905f5260205f200154905092915050565b6060815f01805480602002602001604051908101604052809291908181526020018280548015614f4157602002820191905f5260205f20905b815481526020019060010190808311614f2d575b50505050509050919050565b5f828152602081815260408083206001600160a01b038516845290915281205460ff16614ad9575f838152602081815260408083206001600160a01b03861684529091529020805460ff19166001179055614fa53390565b6001600160a01b0316826001600160a01b0316847f2f8788117e7eff1d82e926ec794901d17c78024a50270940304540a733656f0d60405160405180910390a45060016108c4565b5f828152602081815260408083206001600160a01b038516845290915281205460ff1615614ad9575f838152602081815260408083206001600160a01b0386168085529252808320805460ff1916905551339286917ff6391f5c32d9c69d2a47ea670b442974b53935d1edc7fd64eb21e047a839171b9190a45060016108c4565b5f6020828403121561507e575f5ffd5b5035919050565b634e487b7160e01b5f52602160045260245ffd5b600481106150a9576150a9615085565b9052565b878152602081018790526001600160a01b03868116604083015285166060820152831515608082015260e081016150e760a0830185615099565b61ffff831660c083015298975050505050505050565b5f6020828403121561510d575f5ffd5b81356001600160e01b031981168114614547575f5ffd5b5f60e08284031215615134575f5ffd5b50919050565b5f60e0828403121561514a575f5ffd5b6145478383615124565b80356001600160a01b03811681146144b3575f5ffd5b5f60408284031215615134575f5ffd5b8035600481106144b3575f5ffd5b61ffff811681146111dd575f5ffd5b5f5f5f5f5f60a086880312156151ab575f5ffd5b853594506151bb60208701615154565b9350604086013567ffffffffffffffff8111156151d6575f5ffd5b6151e28882890161516a565b9350506151f16060870161517a565b9150608086013561520181615188565b809150509295509295909350565b5f5f60408385031215615220575f5ffd5b8235915061523060208401615154565b90509250929050565b5f5f5f6060848603121561524b575f5ffd5b61525484615154565b925060208401359150604084013560ff81168114615270575f5ffd5b809150509250925092565b5f5f610100838503121561528d575f5ffd5b6152978484615124565b915061523060e08401615154565b5f602082840312156152b5575f5ffd5b61454782615154565b5f602082840312156152ce575f5ffd5b813565ffffffffffff81168114614547575f5ffd5b64ffffffffff811681146111dd575f5ffd5b5f60208284031215615305575f5ffd5b8135614547816152e3565b602080825282518282018190525f918401906040840190835b8181101561535c57835180516001600160a01b031684526020908101518185015290930192604090920191600101615329565b509095945050505050565b5f60a0828403128015615378575f5ffd5b509092915050565b80151581146111dd575f5ffd5b5f5f6040838503121561539e575f5ffd5b82356153a981615380565b915061523060208401615154565b600381106150a9576150a9615085565b602080825282518282018190525f918401906040840190835b8181101561535c578351805180518552602081015160208601526001600160a01b0360408201511660408601526001600160a01b03606082015116606086015260808101511515608086015260a081015161543e60a0870182615099565b5061ffff60c08201511660c086015250602081015161546060e08601826153b7565b506040015161010084015260209390930192610120909201916001016153e0565b634e487b7160e01b5f52604160045260245ffd5b60405160e0810167ffffffffffffffff811182821017156154b8576154b8615481565b60405290565b60405160c0810167ffffffffffffffff811182821017156154b8576154b8615481565b5f60e08284031280156154f2575f5ffd5b506154fb615495565b823581526020808401359082015261551560408401615154565b604082015261552660608401615154565b6060820152608083013561553981615380565b608082015261554a60a0840161517a565b60a082015260c083013561555d81615188565b60c08201529392505050565b5f60208284031215615579575f5ffd5b813561454781615380565b5f5f60408385031215615595575f5ffd5b8235915060208301356155a781615188565b809150509250929050565b602080825282518282018190525f918401906040840190835b8181101561535c5783518352602093840193909201916001016155cb565b5f5f604083850312156155fa575f5ffd5b823567ffffffffffffffff811115615610575f5ffd5b61561c8582860161516a565b95602094909401359450505050565b5f5f6040838503121561563c575f5ffd5b61564583615154565b915060208301356155a781615380565b5f82601f830112615664575f5ffd5b813567ffffffffffffffff81111561567e5761567e615481565b604051601f8201601f19908116603f0116810167ffffffffffffffff811182821017156156ad576156ad615481565b6040528181528382016020018510156156c4575f5ffd5b816020850160208301375f918101602001919091529392505050565b5f602082840312156156f0575f5ffd5b813567ffffffffffffffff811115615706575f5ffd5b820160c08185031215615717575f5ffd5b61571f6154be565b813567ffffffffffffffff811115615735575f5ffd5b61574186828501615655565b825250602082013567ffffffffffffffff81111561575d575f5ffd5b61576986828501615655565b602083015250604082013567ffffffffffffffff811115615788575f5ffd5b61579486828501615655565b604083015250606082013567ffffffffffffffff8111156157b3575f5ffd5b6157bf86828501615655565b606083015250608082013567ffffffffffffffff8111156157de575f5ffd5b6157ea86828501615655565b60808301525060a082013567ffffffffffffffff811115615809575f5ffd5b61581586828501615655565b60a083015250949350505050565b5f8151808452602084019350602083015f5b8281101561588f5781518051875261ffff602082015116602088015260408101516158636040890182615099565b506060810151905061587860608801826153b7565b506080959095019460209190910190600101615835565b5093949350505050565b602081526001600160a01b0382511660208201525f6020830151606060408401526158c76080840182615823565b90506040840151601f198483030160608501526158e48282615823565b95945050505050565b5f602082840312156158fd575f5ffd5b5051919050565b5f60208284031215615914575f5ffd5b8151614547816152e3565b634e487b7160e01b5f52601160045260245ffd5b818103818111156108c4576108c461591f565b5f8261596057634e487b7160e01b5f52601260045260245ffd5b500490565b808201808211156108c4576108c461591f565b600a81106150a9576150a9615085565b64ffffffffff85168152602081018490526001600160a01b0383166040820152608081016158e46060830184615978565b80820281158282048414176108c4576108c461591f565b5f5f8335601e198436030181126159e5575f5ffd5b83018035915067ffffffffffffffff8211156159ff575f5ffd5b602001915036819003821315615a13575f5ffd5b9250929050565b81835281816020850137505f828201602090810191909152601f909101601f19169091010190565b604081525f615a55604083018688615a1a565b8281036020840152615a68818587615a1a565b979650505050505050565b64ffffffffff81811683821602908116908181146145235761452361591f565b5f60c0828403128015615aa4575f5ffd5b50615aad6154be565b8251615ab881615188565b81526020830151615ac881615188565b60208201526040830151615adb81615188565b60408201526060830151615aee81615188565b60608201526080830151615b0181615188565b608082015260a0830151615b1481615188565b60a08201529392505050565b5f60018201615b3157615b3161591f565b5060010190565b5f81615b4657615b4661591f565b505f190190565b64ffffffffff81811683821601908111156108c4576108c461591f565b634e487b7160e01b5f52603260045260245ffd5b81358155602082013560018201556040820135600282015560608201356003820155600481016080830135615bb281615380565b815490151560ff1660ff19919091161790555050565b5f82518060208501845e5f920191825250919050565b5f81518084528060208401602086015e5f602082860101526020601f19601f83011685010191505092915050565b60a081525f615c1e60a0830188615bde565b8281036020840152615c308188615bde565b90508281036040840152615c448187615bde565b90508281036060840152615c588186615bde565b90508281036080840152615c6c8185615bde565b98975050505050505050565b60ff82811682821603908111156108c4576108c461591f565b6001815b6001841115615ccc57808504811115615cb057615cb061591f565b6001841615615cbe57908102905b60019390931c928002615c95565b935093915050565b5f82615ce2575060016108c4565b81615cee57505f6108c4565b8160018114615d045760028114615d0e57615d2a565b60019150506108c4565b60ff841115615d1f57615d1f61591f565b50506001821b6108c4565b5060208310610133831016604e8410600b8410161715615d4d575081810a6108c4565b615d595f198484615c91565b805f1904821115615d6c57615d6c61591f565b029392505050565b5f61454760ff841683615cd4565b65ffffffffffff81811683821601908111156108c4576108c461591f565b634e487b7160e01b5f52603160045260245ffd5b65ffffffffffff82811682821603908111156108c4576108c461591f56feca6b824caf1a48ea2ad039dbb063460fa30e9c3cc255eeb52240d638ec6de65ea2646970667358221220efb62881a90eb435d2add6741f66189127eb1643b74a26d2af503d142fd4c72a64736f6c634300081c0033",
  "linkReferences": {
    "contracts/ClockTowerTimeLibrary.sol": {
      "ClockTowerTimeLibrary": [
        {
          "length": 20,
          "start": 333
        },
        {
          "length": 20,
          "start": 4561
        },
        {
          "length": 20,
          "start": 4689
        },
        {
          "length": 20,
          "start": 4890
        },
        {
          "length": 20,
          "start": 9394
        },
        {
          "length": 20,
          "start": 9640
        },
        {
          "length": 20,
          "start": 9819
        }
      ]
    }
  },
  "deployedLinkReferences": {
    "contracts/ClockTowerTimeLibrary.sol": {
      "ClockTowerTimeLibrary": [
        {
          "length": 20,
          "start": 3528
        },
        {
          "length": 20,
          "start": 3656
        },
        {
          "length": 20,
          "start": 3857
        },
        {
          "length": 20,
          "start": 8361
        },
        {
          "length": 20,
          "start": 8607
        },
        {
          "length": 20,
          "start": 8786
        }
      ]
    }
  }
}