{
  "_format": "hh-sol-artifact-1",
  "contractName": "ClockTowerSubscribe",
  "sourceName": "contracts/ClockTowerSubscribe.sol",
  "abi": [
    {
      "inputs": [
        {
          "internalType": "uint256",
          "name": "callerFee_",
          "type": "uint256"
        },
        {
          "internalType": "uint256",
          "name": "systemFee_",
          "type": "uint256"
        },
        {
          "internalType": "uint256",
          "name": "maxRemits_",
          "type": "uint256"
        },
        {
          "internalType": "bool",
          "name": "allowSystemFee_",
          "type": "bool"
        },
        {
          "internalType": "address",
          "name": "admin_",
          "type": "address"
        }
      ],
      "stateMutability": "nonpayable",
      "type": "constructor"
    },
    {
      "anonymous": false,
      "inputs": [
        {
          "indexed": false,
          "internalType": "uint40",
          "name": "timestamp",
          "type": "uint40"
        },
        {
          "indexed": false,
          "internalType": "uint40",
          "name": "checkedDay",
          "type": "uint40"
        },
        {
          "indexed": true,
          "internalType": "address",
          "name": "caller",
          "type": "address"
        },
        {
          "indexed": false,
          "internalType": "bool",
          "name": "isFinished",
          "type": "bool"
        }
      ],
      "name": "CallerLog",
      "type": "event"
    },
    {
      "anonymous": false,
      "inputs": [
        {
          "indexed": true,
          "internalType": "bytes32",
          "name": "id",
          "type": "bytes32"
        },
        {
          "indexed": true,
          "internalType": "address",
          "name": "provider",
          "type": "address"
        },
        {
          "indexed": true,
          "internalType": "uint40",
          "name": "timestamp",
          "type": "uint40"
        },
        {
          "indexed": false,
          "internalType": "string",
          "name": "url",
          "type": "string"
        },
        {
          "indexed": false,
          "internalType": "string",
          "name": "description",
          "type": "string"
        }
      ],
      "name": "DetailsLog",
      "type": "event"
    },
    {
      "anonymous": false,
      "inputs": [
        {
          "indexed": true,
          "internalType": "address",
          "name": "provider",
          "type": "address"
        },
        {
          "indexed": true,
          "internalType": "uint40",
          "name": "timestamp",
          "type": "uint40"
        },
        {
          "indexed": false,
          "internalType": "string",
          "name": "description",
          "type": "string"
        },
        {
          "indexed": false,
          "internalType": "string",
          "name": "company",
          "type": "string"
        },
        {
          "indexed": false,
          "internalType": "string",
          "name": "url",
          "type": "string"
        },
        {
          "indexed": false,
          "internalType": "string",
          "name": "domain",
          "type": "string"
        },
        {
          "indexed": false,
          "internalType": "string",
          "name": "email",
          "type": "string"
        },
        {
          "indexed": false,
          "internalType": "string",
          "name": "misc",
          "type": "string"
        }
      ],
      "name": "ProvDetailsLog",
      "type": "event"
    },
    {
      "anonymous": false,
      "inputs": [
        {
          "indexed": true,
          "internalType": "bytes32",
          "name": "id",
          "type": "bytes32"
        },
        {
          "indexed": true,
          "internalType": "address",
          "name": "provider",
          "type": "address"
        },
        {
          "indexed": true,
          "internalType": "address",
          "name": "subscriber",
          "type": "address"
        },
        {
          "indexed": false,
          "internalType": "uint40",
          "name": "timestamp",
          "type": "uint40"
        },
        {
          "indexed": false,
          "internalType": "uint256",
          "name": "amount",
          "type": "uint256"
        },
        {
          "indexed": false,
          "internalType": "address",
          "name": "token",
          "type": "address"
        },
        {
          "indexed": false,
          "internalType": "enum ClockTowerSubscribe.SubscriptEvent",
          "name": "subScriptEvent",
          "type": "uint8"
        }
      ],
      "name": "SubLog",
      "type": "event"
    },
    {
      "inputs": [
        {
          "internalType": "uint256",
          "name": "",
          "type": "uint256"
        }
      ],
      "name": "accountLookup",
      "outputs": [
        {
          "internalType": "address",
          "name": "",
          "type": "address"
        }
      ],
      "stateMutability": "view",
      "type": "function"
    },
    {
      "inputs": [
        {
          "internalType": "address",
          "name": "erc20Contract",
          "type": "address"
        },
        {
          "internalType": "uint256",
          "name": "minimum",
          "type": "uint256"
        },
        {
          "internalType": "uint8",
          "name": "decimals",
          "type": "uint8"
        }
      ],
      "name": "addERC20Contract",
      "outputs": [],
      "stateMutability": "nonpayable",
      "type": "function"
    },
    {
      "inputs": [
        {
          "internalType": "address",
          "name": "",
          "type": "address"
        }
      ],
      "name": "approvedERC20",
      "outputs": [
        {
          "internalType": "address",
          "name": "tokenAddress",
          "type": "address"
        },
        {
          "internalType": "uint256",
          "name": "minimum",
          "type": "uint256"
        },
        {
          "internalType": "uint8",
          "name": "decimals",
          "type": "uint8"
        },
        {
          "internalType": "bool",
          "name": "exists",
          "type": "bool"
        }
      ],
      "stateMutability": "view",
      "type": "function"
    },
    {
      "inputs": [],
      "name": "callerFee",
      "outputs": [
        {
          "internalType": "uint256",
          "name": "",
          "type": "uint256"
        }
      ],
      "stateMutability": "view",
      "type": "function"
    },
    {
      "inputs": [
        {
          "components": [
            {
              "internalType": "bytes32",
              "name": "id",
              "type": "bytes32"
            },
            {
              "internalType": "uint256",
              "name": "amount",
              "type": "uint256"
            },
            {
              "internalType": "address",
              "name": "provider",
              "type": "address"
            },
            {
              "internalType": "address",
              "name": "token",
              "type": "address"
            },
            {
              "internalType": "bool",
              "name": "exists",
              "type": "bool"
            },
            {
              "internalType": "bool",
              "name": "cancelled",
              "type": "bool"
            },
            {
              "internalType": "enum ClockTowerSubscribe.Frequency",
              "name": "frequency",
              "type": "uint8"
            },
            {
              "internalType": "uint16",
              "name": "dueDay",
              "type": "uint16"
            }
          ],
          "internalType": "struct ClockTowerSubscribe.Subscription",
          "name": "subscription",
          "type": "tuple"
        }
      ],
      "name": "cancelSubscription",
      "outputs": [],
      "stateMutability": "nonpayable",
      "type": "function"
    },
    {
      "inputs": [
        {
          "internalType": "address",
          "name": "newAddress",
          "type": "address"
        }
      ],
      "name": "changeAdmin",
      "outputs": [],
      "stateMutability": "nonpayable",
      "type": "function"
    },
    {
      "inputs": [
        {
          "internalType": "uint256",
          "name": "_fee",
          "type": "uint256"
        }
      ],
      "name": "changeCallerFee",
      "outputs": [],
      "stateMutability": "nonpayable",
      "type": "function"
    },
    {
      "inputs": [
        {
          "internalType": "uint256",
          "name": "_maxRemits",
          "type": "uint256"
        }
      ],
      "name": "changeMaxRemits",
      "outputs": [],
      "stateMutability": "nonpayable",
      "type": "function"
    },
    {
      "inputs": [
        {
          "internalType": "address",
          "name": "newSysFeeAddress",
          "type": "address"
        }
      ],
      "name": "changeSysFeeReceiver",
      "outputs": [],
      "stateMutability": "nonpayable",
      "type": "function"
    },
    {
      "inputs": [
        {
          "internalType": "uint256",
          "name": "_sys_fee",
          "type": "uint256"
        }
      ],
      "name": "changeSystemFee",
      "outputs": [],
      "stateMutability": "nonpayable",
      "type": "function"
    },
    {
      "inputs": [
        {
          "internalType": "uint256",
          "name": "amount",
          "type": "uint256"
        },
        {
          "internalType": "address",
          "name": "token",
          "type": "address"
        },
        {
          "components": [
            {
              "internalType": "string",
              "name": "url",
              "type": "string"
            },
            {
              "internalType": "string",
              "name": "description",
              "type": "string"
            }
          ],
          "internalType": "struct ClockTowerSubscribe.Details",
          "name": "details",
          "type": "tuple"
        },
        {
          "internalType": "enum ClockTowerSubscribe.Frequency",
          "name": "frequency",
          "type": "uint8"
        },
        {
          "internalType": "uint16",
          "name": "dueDay",
          "type": "uint16"
        }
      ],
      "name": "createSubscription",
      "outputs": [],
      "stateMutability": "nonpayable",
      "type": "function"
    },
    {
      "inputs": [
        {
          "components": [
            {
              "internalType": "string",
              "name": "url",
              "type": "string"
            },
            {
              "internalType": "string",
              "name": "description",
              "type": "string"
            }
          ],
          "internalType": "struct ClockTowerSubscribe.Details",
          "name": "details",
          "type": "tuple"
        },
        {
          "internalType": "bytes32",
          "name": "id",
          "type": "bytes32"
        }
      ],
      "name": "editDetails",
      "outputs": [],
      "stateMutability": "nonpayable",
      "type": "function"
    },
    {
      "inputs": [
        {
          "components": [
            {
              "internalType": "string",
              "name": "description",
              "type": "string"
            },
            {
              "internalType": "string",
              "name": "company",
              "type": "string"
            },
            {
              "internalType": "string",
              "name": "url",
              "type": "string"
            },
            {
              "internalType": "string",
              "name": "domain",
              "type": "string"
            },
            {
              "internalType": "string",
              "name": "email",
              "type": "string"
            },
            {
              "internalType": "string",
              "name": "misc",
              "type": "string"
            }
          ],
          "internalType": "struct ClockTowerSubscribe.ProviderDetails",
          "name": "details",
          "type": "tuple"
        }
      ],
      "name": "editProvDetails",
      "outputs": [],
      "stateMutability": "nonpayable",
      "type": "function"
    },
    {
      "inputs": [
        {
          "internalType": "bytes32",
          "name": "",
          "type": "bytes32"
        },
        {
          "internalType": "address",
          "name": "",
          "type": "address"
        }
      ],
      "name": "feeBalance",
      "outputs": [
        {
          "internalType": "uint256",
          "name": "",
          "type": "uint256"
        }
      ],
      "stateMutability": "view",
      "type": "function"
    },
    {
      "inputs": [],
      "name": "feeEstimate",
      "outputs": [
        {
          "components": [
            {
              "internalType": "uint256",
              "name": "fee",
              "type": "uint256"
            },
            {
              "internalType": "address",
              "name": "token",
              "type": "address"
            }
          ],
          "internalType": "struct ClockTowerSubscribe.FeeEstimate[]",
          "name": "",
          "type": "tuple[]"
        }
      ],
      "stateMutability": "view",
      "type": "function"
    },
    {
      "inputs": [
        {
          "internalType": "address",
          "name": "account",
          "type": "address"
        }
      ],
      "name": "getAccount",
      "outputs": [
        {
          "components": [
            {
              "internalType": "address",
              "name": "accountAddress",
              "type": "address"
            },
            {
              "internalType": "bool",
              "name": "exists",
              "type": "bool"
            },
            {
              "components": [
                {
                  "internalType": "bytes32",
                  "name": "id",
                  "type": "bytes32"
                },
                {
                  "internalType": "uint16",
                  "name": "dueDay",
                  "type": "uint16"
                },
                {
                  "internalType": "enum ClockTowerSubscribe.Frequency",
                  "name": "frequency",
                  "type": "uint8"
                },
                {
                  "internalType": "enum ClockTowerSubscribe.Status",
                  "name": "status",
                  "type": "uint8"
                }
              ],
              "internalType": "struct ClockTowerSubscribe.SubIndex[]",
              "name": "subscriptions",
              "type": "tuple[]"
            },
            {
              "components": [
                {
                  "internalType": "bytes32",
                  "name": "id",
                  "type": "bytes32"
                },
                {
                  "internalType": "uint16",
                  "name": "dueDay",
                  "type": "uint16"
                },
                {
                  "internalType": "enum ClockTowerSubscribe.Frequency",
                  "name": "frequency",
                  "type": "uint8"
                },
                {
                  "internalType": "enum ClockTowerSubscribe.Status",
                  "name": "status",
                  "type": "uint8"
                }
              ],
              "internalType": "struct ClockTowerSubscribe.SubIndex[]",
              "name": "provSubs",
              "type": "tuple[]"
            }
          ],
          "internalType": "struct ClockTowerSubscribe.Account",
          "name": "",
          "type": "tuple"
        }
      ],
      "stateMutability": "view",
      "type": "function"
    },
    {
      "inputs": [
        {
          "internalType": "bool",
          "name": "bySubscriber",
          "type": "bool"
        },
        {
          "internalType": "address",
          "name": "account",
          "type": "address"
        }
      ],
      "name": "getAccountSubscriptions",
      "outputs": [
        {
          "components": [
            {
              "components": [
                {
                  "internalType": "bytes32",
                  "name": "id",
                  "type": "bytes32"
                },
                {
                  "internalType": "uint256",
                  "name": "amount",
                  "type": "uint256"
                },
                {
                  "internalType": "address",
                  "name": "provider",
                  "type": "address"
                },
                {
                  "internalType": "address",
                  "name": "token",
                  "type": "address"
                },
                {
                  "internalType": "bool",
                  "name": "exists",
                  "type": "bool"
                },
                {
                  "internalType": "bool",
                  "name": "cancelled",
                  "type": "bool"
                },
                {
                  "internalType": "enum ClockTowerSubscribe.Frequency",
                  "name": "frequency",
                  "type": "uint8"
                },
                {
                  "internalType": "uint16",
                  "name": "dueDay",
                  "type": "uint16"
                }
              ],
              "internalType": "struct ClockTowerSubscribe.Subscription",
              "name": "subscription",
              "type": "tuple"
            },
            {
              "internalType": "enum ClockTowerSubscribe.Status",
              "name": "status",
              "type": "uint8"
            },
            {
              "internalType": "uint256",
              "name": "totalSubscribers",
              "type": "uint256"
            }
          ],
          "internalType": "struct ClockTowerSubscribe.SubView[]",
          "name": "",
          "type": "tuple[]"
        }
      ],
      "stateMutability": "view",
      "type": "function"
    },
    {
      "inputs": [
        {
          "internalType": "bytes32",
          "name": "id",
          "type": "bytes32"
        },
        {
          "internalType": "enum ClockTowerSubscribe.Frequency",
          "name": "frequency",
          "type": "uint8"
        },
        {
          "internalType": "uint16",
          "name": "dueDay",
          "type": "uint16"
        }
      ],
      "name": "getSubByIndex",
      "outputs": [
        {
          "components": [
            {
              "internalType": "bytes32",
              "name": "id",
              "type": "bytes32"
            },
            {
              "internalType": "uint256",
              "name": "amount",
              "type": "uint256"
            },
            {
              "internalType": "address",
              "name": "provider",
              "type": "address"
            },
            {
              "internalType": "address",
              "name": "token",
              "type": "address"
            },
            {
              "internalType": "bool",
              "name": "exists",
              "type": "bool"
            },
            {
              "internalType": "bool",
              "name": "cancelled",
              "type": "bool"
            },
            {
              "internalType": "enum ClockTowerSubscribe.Frequency",
              "name": "frequency",
              "type": "uint8"
            },
            {
              "internalType": "uint16",
              "name": "dueDay",
              "type": "uint16"
            }
          ],
          "internalType": "struct ClockTowerSubscribe.Subscription",
          "name": "subscription",
          "type": "tuple"
        }
      ],
      "stateMutability": "view",
      "type": "function"
    },
    {
      "inputs": [
        {
          "internalType": "bytes32",
          "name": "id",
          "type": "bytes32"
        }
      ],
      "name": "getSubscribersById",
      "outputs": [
        {
          "components": [
            {
              "internalType": "address",
              "name": "subscriber",
              "type": "address"
            },
            {
              "internalType": "uint256",
              "name": "feeBalance",
              "type": "uint256"
            }
          ],
          "internalType": "struct ClockTowerSubscribe.SubscriberView[]",
          "name": "",
          "type": "tuple[]"
        }
      ],
      "stateMutability": "view",
      "type": "function"
    },
    {
      "inputs": [],
      "name": "getTotalSubscribers",
      "outputs": [
        {
          "internalType": "uint256",
          "name": "",
          "type": "uint256"
        }
      ],
      "stateMutability": "view",
      "type": "function"
    },
    {
      "inputs": [],
      "name": "maxRemits",
      "outputs": [
        {
          "internalType": "uint256",
          "name": "",
          "type": "uint256"
        }
      ],
      "stateMutability": "view",
      "type": "function"
    },
    {
      "inputs": [],
      "name": "nextUncheckedDay",
      "outputs": [
        {
          "internalType": "uint40",
          "name": "",
          "type": "uint40"
        }
      ],
      "stateMutability": "view",
      "type": "function"
    },
    {
      "inputs": [],
      "name": "remit",
      "outputs": [],
      "stateMutability": "nonpayable",
      "type": "function"
    },
    {
      "inputs": [
        {
          "components": [
            {
              "internalType": "bytes32",
              "name": "id",
              "type": "bytes32"
            },
            {
              "internalType": "uint256",
              "name": "amount",
              "type": "uint256"
            },
            {
              "internalType": "address",
              "name": "provider",
              "type": "address"
            },
            {
              "internalType": "address",
              "name": "token",
              "type": "address"
            },
            {
              "internalType": "bool",
              "name": "exists",
              "type": "bool"
            },
            {
              "internalType": "bool",
              "name": "cancelled",
              "type": "bool"
            },
            {
              "internalType": "enum ClockTowerSubscribe.Frequency",
              "name": "frequency",
              "type": "uint8"
            },
            {
              "internalType": "uint16",
              "name": "dueDay",
              "type": "uint16"
            }
          ],
          "internalType": "struct ClockTowerSubscribe.Subscription",
          "name": "subscription",
          "type": "tuple"
        }
      ],
      "name": "subscribe",
      "outputs": [],
      "stateMutability": "nonpayable",
      "type": "function"
    },
    {
      "inputs": [],
      "name": "systemFee",
      "outputs": [
        {
          "internalType": "uint256",
          "name": "",
          "type": "uint256"
        }
      ],
      "stateMutability": "view",
      "type": "function"
    },
    {
      "inputs": [
        {
          "internalType": "bool",
          "name": "status",
          "type": "bool"
        }
      ],
      "name": "systemFeeActivate",
      "outputs": [],
      "stateMutability": "nonpayable",
      "type": "function"
    },
    {
      "inputs": [
        {
          "components": [
            {
              "internalType": "bytes32",
              "name": "id",
              "type": "bytes32"
            },
            {
              "internalType": "uint256",
              "name": "amount",
              "type": "uint256"
            },
            {
              "internalType": "address",
              "name": "provider",
              "type": "address"
            },
            {
              "internalType": "address",
              "name": "token",
              "type": "address"
            },
            {
              "internalType": "bool",
              "name": "exists",
              "type": "bool"
            },
            {
              "internalType": "bool",
              "name": "cancelled",
              "type": "bool"
            },
            {
              "internalType": "enum ClockTowerSubscribe.Frequency",
              "name": "frequency",
              "type": "uint8"
            },
            {
              "internalType": "uint16",
              "name": "dueDay",
              "type": "uint16"
            }
          ],
          "internalType": "struct ClockTowerSubscribe.Subscription",
          "name": "subscription",
          "type": "tuple"
        }
      ],
      "name": "unsubscribe",
      "outputs": [],
      "stateMutability": "nonpayable",
      "type": "function"
    },
    {
      "inputs": [
        {
          "components": [
            {
              "internalType": "bytes32",
              "name": "id",
              "type": "bytes32"
            },
            {
              "internalType": "uint256",
              "name": "amount",
              "type": "uint256"
            },
            {
              "internalType": "address",
              "name": "provider",
              "type": "address"
            },
            {
              "internalType": "address",
              "name": "token",
              "type": "address"
            },
            {
              "internalType": "bool",
              "name": "exists",
              "type": "bool"
            },
            {
              "internalType": "bool",
              "name": "cancelled",
              "type": "bool"
            },
            {
              "internalType": "enum ClockTowerSubscribe.Frequency",
              "name": "frequency",
              "type": "uint8"
            },
            {
              "internalType": "uint16",
              "name": "dueDay",
              "type": "uint16"
            }
          ],
          "internalType": "struct ClockTowerSubscribe.Subscription",
          "name": "subscription",
          "type": "tuple"
        },
        {
          "internalType": "address",
          "name": "subscriber",
          "type": "address"
        }
      ],
      "name": "unsubscribeByProvider",
      "outputs": [],
      "stateMutability": "nonpayable",
      "type": "function"
    }
  ],
  "bytecode": "0x608060405234801561000f575f5ffd5b50604051615fc1380380615fc183398101604081905261002e916100e2565b5f859055600184905560028381556007805460ff60a01b1916600160a01b8515150217905561005c426100ce565b6100669190610146565b60068054610100600160d01b03191661010064ffffffffff9390931692909202600160301b600160d01b0319169190911766010000000000006001600160a01b0393909316928302179055600780546001600160a01b0319169091179055506101a492505050565b5f6100dc620151808361016f565b92915050565b5f5f5f5f5f60a086880312156100f6575f5ffd5b85516020870151604088015160608901519297509095509350801515811461011c575f5ffd5b60808701519092506001600160a01b0381168114610138575f5ffd5b809150509295509295909350565b64ffffffffff82811682821603908111156100dc57634e487b7160e01b5f52601160045260245ffd5b5f64ffffffffff83168061019157634e487b7160e01b5f52601260045260245ffd5b8064ffffffffff84160491505092915050565b615e10806101b15f395ff3fe608060405234801561000f575f5ffd5b50600436106101bb575f3560e01c80638f283970116100f3578063d10f9e6911610093578063ebec6eaa1161006e578063ebec6eaa1461040e578063ed601d2814610438578063f4a2a2001461044b578063fbcbc0f114610476575f5ffd5b8063d10f9e69146103ba578063da854a96146103cd578063e63d35be146103f9575f5ffd5b8063ac2b4e63116100ce578063ac2b4e631461031e578063b25ae32c14610331578063bd74388614610339578063cab1c965146103b1575f5ffd5b80638f283970146102e5578063907cedb2146102f85780639889552e1461030b575f5ffd5b806344e497691161015e5780637bbf5a6e116101395780637bbf5a6e1461027f57806386525a001461029f57806387d888d3146102bf5780638ef0ef1c146102d2575f5ffd5b806344e49769146102515780634a1268b8146102645780637507ba3914610277575f5ffd5b806327ea97731161019957806327ea9773146102035780632d23f7e71461021657806334d441d0146102365780633c95dad51461023e575f5ffd5b80630b8590c7146101bf5780630bec99e8146101d45780631f17ee55146101e7575b5f5ffd5b6101d26101cd366004615131565b610496565b005b6101d26101e23660046151a5565b61095f565b6101f060015481565b6040519081526020015b60405180910390f35b6101d26102113660046151a5565b61096c565b6102296102243660046151bc565b610979565b6040516101fa9190615299565b6101f05f5481565b6101d261024c3660046152a8565b610b49565b6101d261025f3660046153d5565b611250565b6101d26102723660046153f7565b611665565b6101d2611742565b61029261028d3660046151a5565b612719565b6040516101fa9190615439565b6102b26102ad366004615490565b612905565b6040516101fa91906154d3565b6101d26102cd3660046152a8565b612cee565b6101d26102e03660046151a5565b61375f565b6101d26102f3366004615535565b61376b565b6101d261030636600461554e565b6137c9565b6101d2610319366004615579565b613c79565b6101d261032c366004615535565b613c9f565b6009546101f0565b61037d610347366004615535565b60056020525f90815260409020805460018201546002909201546001600160a01b03909116919060ff8082169161010090041684565b604080516001600160a01b039095168552602085019390935260ff90911691830191909152151560608201526080016101fa565b6101f060025481565b6101d26103c8366004615594565b613cdb565b6006546103e390610100900464ffffffffff1681565b60405164ffffffffff90911681526020016101fa565b610401613d91565b6040516101fa91906155d6565b6101f061041c366004615622565b600a60209081525f928352604080842090915290825290205481565b6101d26104463660046156ce565b614217565b61045e6104593660046151a5565b614284565b6040516001600160a01b0390911681526020016101fa565b610489610484366004615535565b6142ac565b6040516101fa9190615887565b60ff5f5c16156104d25760405162461bcd60e51b8152602060048201526002602482015261333160f01b60448201526064015b60405180910390fd5b60015f805c60ff19168217905d506104e86144d1565b6001600160a01b0384166105225760405162461bcd60e51b81526020600482015260016024820152600760fb1b60448201526064016104c9565b61052b84614504565b61055b5760405162461bcd60e51b81526020600482015260016024820152603960f81b60448201526064016104c9565b5f82600381111561056e5761056e6151f5565b036105bc578061ffff165f10801561058b575060078161ffff1611155b6105bc5760405162461bcd60e51b8152602060048201526002602482015261191b60f11b60448201526064016104c9565b60018260038111156105d0576105d06151f5565b0361061e578061ffff165f1080156105ed5750601c8161ffff1611155b61061e5760405162461bcd60e51b8152602060048201526002602482015261323760f01b60448201526064016104c9565b6002826003811115610632576106326151f5565b03610680578061ffff165f10801561064f5750605a8161ffff1611155b6106805760405162461bcd60e51b8152602060048201526002602482015261064760f31b60448201526064016104c9565b6003826003811115610694576106946151f5565b036106e3578061ffff165f1080156106b2575061016d8161ffff1611155b6106e35760405162461bcd60e51b8152602060048201526002602482015261323960f01b60448201526064016104c9565b6001600160a01b0384165f908152600560205260409020600101548510156107325760405162461bcd60e51b8152602060048201526002602482015261033360f41b60448201526064016104c9565b5f61073f86868585614539565b905080600b5f856003811115610757576107576151f5565b815260208082019290925260409081015f90812061ffff87168252835281812080546001818101835591835291849020855160049093020191825592840151928101929092558201516002820180546001600160a01b039283166001600160a01b0319909116179055606083015160038084018054608087015160a08801511515600160a81b0260ff60a81b19911515600160a01b0274ffffffffffffffffffffffffffffffffffffffffff199093169590961694909417179283168417815560c086015193909260ff60b01b1990911661ffff60a81b199091161790600160b01b90849081111561084b5761084b6151f5565b021790555060e0918201516003918201805461ffff60b81b1916600160b81b61ffff93841602179055604080516080810182528551815293850151909116602084015260c08401516108ba9392918301918111156108ab576108ab6151f5565b81526020015f90526001614621565b805164ffffffffff42169033907f93cda0785d40b289a535b99dc76d4c9cbb6d8146182861ac3ad40509398b18656108f288806158e7565b6108ff60208b018b6158e7565b60405161090f9493929190615959565b60405180910390a4805160608201516040515f92339290915f516020615dbb5f395f51905f52916109459142918d91889061599a565b60405180910390a4505f60ff19815c16815d505050505050565b6109676147cd565b600155565b6109746147cd565b600255565b60408051610100810182525f80825260208201819052918101829052606081018290526080810182905260a0810182905260c0810182905260e0810182905290600b818560038111156109ce576109ce6151f5565b81526020019081526020015f205f8461ffff1661ffff1681526020019081526020015f20805480602002602001604051908101604052809291908181526020015f905b82821015610ae7575f8481526020908190206040805161010081018252600486029092018054835260018101549383019390935260028301546001600160a01b0390811691830191909152600380840154918216606084015260ff600160a01b8304811615156080850152600160a81b83048116151560a085015292939260c0850192600160b01b90041690811115610aac57610aac6151f5565b6003811115610abd57610abd6151f5565b81526003919091015461ffff600160b81b9091041660209182015290825260019092019101610a11565b5050505090505f5b8151811015610b405785828281518110610b0b57610b0b6159cb565b60200260200101515f015103610b3857818181518110610b2d57610b2d6159cb565b602002602001015192505b600101610aef565b50509392505050565b60ff5f5c1615610b805760405162461bcd60e51b8152602060048201526002602482015261333160f01b60448201526064016104c9565b60015f805c60ff19168217905d50610b966144d1565b610bc28135610bac610100840160e085016159df565b610bbc60e0850160c086016159f8565b5f614816565b610bf25760405162461bcd60e51b81526020600482015260016024820152603760f81b60448201526064016104c9565b5f610c326020830135600583610c0e6080870160608801615535565b6001600160a01b0316815260208101919091526040015f206002015460ff1661489d565b905080610c456080840160608501615535565b604051636eb1769f60e11b81523360048201523060248201526001600160a01b03919091169063dd62ed3e906044016020604051808303815f875af1158015610c90573d5f5f3e3d5ffd5b505050506040513d601f19601f82011682018060405250810190610cb49190615a11565b10158015610d3a575080610cce6080840160608501615535565b6040516370a0823160e01b81523360048201526001600160a01b0391909116906370a08231906024016020604051808303815f875af1158015610d13573d5f5f3e3d5ffd5b505050506040513d601f19601f82011682018060405250810190610d379190615a11565b10155b610d6b5760405162461bcd60e51b8152602060048201526002602482015261032360f41b60448201526064016104c9565b610d7b6060830160408401615535565b6001600160a01b03163303610db65760405162461bcd60e51b81526020600482015260016024820152600360fc1b60448201526064016104c9565b81355f818152600c6020908152604080832080546001810182559084529282902090920180546001600160a01b03191633179055815160808101909252918152610e45918101610e0d610100860160e087016159df565b61ffff168152602001610e2660e0860160c087016159f8565b6003811115610e3757610e376151f5565b81526020015f90525f614621565b6020820135600180610e5d60e0860160c087016159f8565b6003811115610e6e57610e6e6151f5565b1480610e9957505f610e8660e0860160c087016159f8565b6003811115610e9757610e976151f5565b145b15610ee557610ede42610eb3610100870160e088016159df565b61ffff1684610ec860e0890160c08a016159f8565b6003811115610ed957610ed96151f5565b61490f565b9150610f8b565b6002610ef760e0860160c087016159f8565b6003811115610f0857610f086151f5565b03610f3a57610f2242610eb3610100870160e088016159df565b9150610f2f600383615a50565b915060029050610f8b565b6003610f4c60e0860160c087016159f8565b6003811115610f5d57610f5d6151f5565b03610f8b57610f7742610eb3610100870160e088016159df565b9150610f84600c83615a50565b9150600b90505b83355f908152600a6020908152604080832033845290915281208054849290610fb5908490615a63565b90915550339050610fcc6060860160408701615535565b6001600160a01b031685355f516020615dbb5f395f51905f52426020890135610ffb60808b0160608c01615535565b600660405161100d949392919061599a565b60405180910390a4336110266060860160408701615535565b6001600160a01b031685355f516020615dbb5f395f51905f52428661105160808b0160608c01615535565b6008604051611063949392919061599a565b60405180910390a461107b6080850160608601615535565b6001600160a01b03166323b872dd33306110a28660055f610c0e60808d0160608e01615535565b6040516001600160e01b031960e086901b1681526001600160a01b03938416600482015292909116602483015260448201526064016020604051808303815f875af11580156110f3573d5f5f3e3d5ffd5b505050506040513d601f19601f820116820180604052508101906111179190615a76565b61111f575f5ffd5b600261113160e0860160c087016159f8565b6003811115611142576111426151f5565b148061116e5750600361115b60e0860160c087016159f8565b600381111561116c5761116c6151f5565b145b1561123f576111836080850160608601615535565b6001600160a01b03166323b872dd336111a26060880160408901615535565b6111c26111af8688615a91565b60055f610c0e60808d0160608e01615535565b6040516001600160e01b031960e086901b1681526001600160a01b03938416600482015292909116602483015260448201526064016020604051808303815f875af1158015611213573d5f5f3e3d5ffd5b505050506040513d601f19601f820116820180604052508101906112379190615a76565b61123f575f5ffd5b505f91505060ff19815c16815d5050565b60ff5f5c16156112875760405162461bcd60e51b8152602060048201526002602482015261333160f01b60448201526064016104c9565b60015f805c60ff19168217905d5061129d6144d1565b335f9081526008602052604081206001015467ffffffffffffffff8111156112c7576112c76152c2565b60405190808252806020026020018201604052801561132057816020015b61130d604080516080810182525f80825260208201819052909182019081526020015f905290565b8152602001906001900390816112e55790505b50335f908152600860209081526040808320600101805482518185028101850190935280835294955090939092909184015b82821015611407575f848152602090819020604080516080810182526002860290920180548352600181015461ffff81169484019490945291929083019062010000900460ff1660038111156113aa576113aa6151f5565b60038111156113bb576113bb6151f5565b81526020016001820160039054906101000a900460ff1660028111156113e3576113e36151f5565b60028111156113f4576113f46151f5565b8152505081526020019060010190611352565b5050335f908152600860205260408120600101549394509150505b818110156114b557835f0151838281518110611440576114406159cb565b60200260200101515f0151036114ad57335f90815260086020526040902060010180546002919083908110611477576114776159cb565b905f5260205f20906002020160010160036101000a81548160ff021916908360028111156114a7576114a76151f5565b02179055505b600101611422565b5082516114c29033614b53565b336001600160a01b031683604001516001600160a01b0316845f01515f516020615dbb5f395f51905f5242876020015188606001516007604051611509949392919061599a565b60405180910390a482515f908152600a602081815260408084203380865290835281852054885186529383528185208186529092528084209390935582860151865160608801519451939492936001600160a01b039092169290915f516020615dbb5f395f51905f5291611583914291889160049061599a565b60405180910390a460608401516040808601516001600160a01b039092165f81815260056020529190912060020154909163a9059cbb916115c890859060ff1661489d565b6040516001600160e01b031960e085901b1681526001600160a01b03909216600483015260248201526044016020604051808303815f875af1158015611610573d5f5f3e3d5ffd5b505050506040513d601f19601f820116820180604052508101906116349190615a76565b61123f5760405162461bcd60e51b8152602060048201526002602482015261323160f01b60448201526064016104c9565b61166d6147cd565b6001600160a01b03831661167f575f5ffd5b61168883614504565b156116b95760405162461bcd60e51b81526020600482015260016024820152603160f81b60448201526064016104c9565b604080516080810182526001600160a01b03948516808252602080830195865260ff9485168385019081526001606085018181525f948552600590935294909220925183546001600160a01b031916971696909617825593519181019190915591516002909201805493519290911661ffff199093169290921761010091151591909102179055565b60ff5f5c16156117795760405162461bcd60e51b8152602060048201526002602482015261333160f01b60448201526064016104c9565b60015f805c60ff19168217905d505f61179142614c8e565b60065490915064ffffffffff610100909104811690821610156117db5760405162461bcd60e51b81526020600482015260026024820152610c4d60f21b60448201526064016104c9565b6040805160c0810182525f80825260208201819052918101829052606081018290526080810182905260a081019190915260019060065464ffffffffff848116610100909204161461185a576006546118539061184790610100900464ffffffffff1662015180615aa8565b64ffffffffff16614c9c565b9050611866565b61186342614c9c565b90505b5f5f5b6003811161263c575f8161187e575060208301515b6001820361188a575082515b60028203611899575060408301515b600382036118a8575060608301515b5f828152600b6020908152604080832061ffff85168452909152812054905b81811015612626575f848152600b6020908152604080832061ffff87168452909152812080549198509082908110611901576119016159cb565b905f5260205f20906004020160030160159054906101000a900460ff1661261e57604080516080810182525f868152600b602090815283822061ffff88168352905291822080548291908590811061195b5761195b6159cb565b5f91825260208083206004909202909101548352888252600b8152604080832061ffff8a1684528252909120805492909101918590811061199e5761199e6159cb565b5f9182526020808320600360049093020191909101546001600160a01b03168352888252600b8152604080832061ffff8a168452825290912080549290910191859081106119ee576119ee6159cb565b5f9182526020808320600260049093020191909101546001600160a01b03168352888252600b8152604080832061ffff8a1684528252822080549390910192600592919087908110611a4257611a426159cb565b5f9182526020808320600360049093020191909101546001600160a01b0316835282810193909352604091820181206002015460ff16909352888352600b825280832061ffff89168452909152812080549293509091611ac7919085908110611aad57611aad6159cb565b905f5260205f20906004020160010154836060015161489d565b90505f816127105f5484611adb9190615a91565b611ae59190615a50565b611aef9190615ac8565b83515f908152600c602052604081205491925090818115611b1857611b15600183615ac8565b90505b5f5b82811015612616576002548c03611c8157604080518082019091528751808252602091820183905260035560048290556006805460ff1916905587015160608801516001600160a01b039091169063a9059cbb903390611b7b90889061489d565b6040516001600160e01b031960e085901b1681526001600160a01b03909216600483015260248201526044016020604051808303815f875af1158015611bc3573d5f5f3e3d5ffd5b505050506040513d601f19601f82011682018060405250810190611be79190615a76565b611c185760405162461bcd60e51b8152602060048201526002602482015261191960f11b60448201526064016104c9565b6006546040805164ffffffffff42811682526101009093049290921660208301525f9082015233907f90192d7875364a53e351ae63fd2dfef8dc941735b29fb0c504d06a0e21ae602e9060600160405180910390a250505050505050505050505050505061270d565b6003548751148015611c94575060045481145b15611ca7576006805460ff191660011790555b6003541580611cbd575060065460ff1615156001145b1561260e5786515f908152600c60205260408120805483908110611ce357611ce36159cb565b5f918252602091829020015490890151604051636eb1769f60e11b81526001600160a01b0392831660048201819052306024830152935089929091169063dd62ed3e906044016020604051808303815f875af1158015611d45573d5f5f3e3d5ffd5b505050506040513d601f19601f82011682018060405250810190611d699190615a11565b10158015611de3575060208801516040516370a0823160e01b81526001600160a01b038381166004830152899216906370a08231906024016020604051808303815f875af1158015611dbd573d5f5f3e3d5ffd5b505050506040513d601f19601f82011682018060405250810190611de19190615a11565b115b15612203578c611df281615adb565b89515f908152600a602090815260408083206001600160a01b0387168452909152902054909e508710159050611f9057611e2c8686615a63565b88515f908152600a602090815260408083206001600160a01b0386168452909152812080549297508892909190611e64908490615ac8565b92505081905550806001600160a01b031688604001516001600160a01b0316895f01515f516020615dbb5f395f51905f52428b8d602001516005604051611eae949392919061599a565b60405180910390a4806001600160a01b031688604001516001600160a01b0316895f01515f516020615dbb5f395f51905f52425f8d602001516002604051611ef9949392919061599a565b60405180910390a460208801516040808a015190516323b872dd60e01b81526001600160a01b0384811660048301529182166024820152604481018a90529116906323b872dd906064016020604051808303815f875af1158015611f5f573d5f5f3e3d5ffd5b505050506040513d601f19601f82011682018060405250810190611f839190615a76565b611f8b575f5ffd5b61241e565b87515f908152600a602090815260408083206001600160a01b0385168452909152902054611fbe9086615a63565b88515f908152600a602090815260408083206001600160a01b0380871680865291845282852094909455818d01518d51938e01519251959a5090949316925f516020615dbb5f395f51905f529161201b9142918e9160089061599a565b60405180910390a486600160028e90036120455761203a600383615a50565b91506002905061205f565b8d60030361205f57612058600c83615a50565b9150600b90505b89515f908152600a602090815260408083206001600160a01b038716845290915281208054849290612092908490615a63565b9250508190555089602001516001600160a01b03166323b872dd84306120bc868f6060015161489d565b6040516001600160e01b031960e086901b1681526001600160a01b03938416600482015292909116602483015260448201526064016020604051808303815f875af115801561210d573d5f5f3e3d5ffd5b505050506040513d601f19601f820116820180604052508101906121319190615a76565b612139575f5ffd5b8d6002148061214857508d6003145b156121fc5789602001516001600160a01b03166323b872dd848c6040015161217f85876121759190615a91565b8f6060015161489d565b6040516001600160e01b031960e086901b1681526001600160a01b03938416600482015292909116602483015260448201526064016020604051808303815f875af11580156121d0573d5f5f3e3d5ffd5b505050506040513d601f19601f820116820180604052508101906121f49190615a76565b6121fc575f5ffd5b505061241e565b8c61220d81615adb565b89515f908152600a602090815260408083206001600160a01b0387168452909152902054909e50871015905061237b576122478686615a63565b88515f908152600a602090815260408083206001600160a01b03861684529091528120549196509061227a908890615ac8565b89515f908152600a602090815260408083206001600160a01b0380881680865291845282852094909455818e01518e51938f0151925195965090949316925f516020615dbb5f395f51905f52916122d7914291889160049061599a565b60405180910390a488602001516001600160a01b031663a9059cbb8a60400151612305848d6060015161489d565b6040516001600160e01b031960e085901b1681526001600160a01b03909216600483015260248201526044016020604051808303815f875af115801561234d573d5f5f3e3d5ffd5b505050506040513d601f19601f820116820180604052508101906123719190615a76565b612379575f5ffd5b505b87516123879082614b53565b806001600160a01b031688604001516001600160a01b0316895f01515f516020615dbb5f395f51905f52428b8d6020015160076040516123ca949392919061599a565b60405180910390a4806001600160a01b031688604001516001600160a01b0316895f01515f516020615dbb5f395f51905f52425f8d602001516003604051612415949392919061599a565b60405180910390a45b828214801561242c57505f84115b1561260c57600754600160a01b900460ff161561254d575f85612710600154886124569190615a91565b6124609190615a50565b61246a9190615ac8565b90506124768187615ac8565b955088602001516001600160a01b031663a9059cbb60075f9054906101000a90046001600160a01b03166124ae848d6060015161489d565b6040516001600160e01b031960e085901b1681526001600160a01b03909216600483015260248201526044016020604051808303815f875af11580156124f6573d5f5f3e3d5ffd5b505050506040513d601f19601f8201168201806040525081019061251a9190615a76565b61254b5760405162461bcd60e51b8152602060048201526002602482015261191960f11b60448201526064016104c9565b505b87602001516001600160a01b031663a9059cbb3361256f888c6060015161489d565b6040516001600160e01b031960e085901b1681526001600160a01b03909216600483015260248201526044016020604051808303815f875af11580156125b7573d5f5f3e3d5ffd5b505050506040513d601f19601f820116820180604052508101906125db9190615a76565b61260c5760405162461bcd60e51b8152602060048201526002602482015261191960f11b60448201526064016104c9565b505b600101611b1a565b505050505050505b6001016118c7565b505050808061263490615adb565b915050611869565b505f60038190556004556006805460ff1916908190556040805164ffffffffff4281168252610100909304909216602083015260019082015233907f90192d7875364a53e351ae63fd2dfef8dc941735b29fb0c504d06a0e21ae602e9060600160405180910390a26001600660018282829054906101000a900464ffffffffff166126c79190615af3565b92506101000a81548164ffffffffff021916908364ffffffffff1602179055508215612708575f60ff19815c16815d506126ff611742565b5050505061270d565b505050505b5f60ff19815c16815d50565b5f818152600c60205260408120546060919067ffffffffffffffff811115612743576127436152c2565b60405190808252806020026020018201604052801561276c578160200160208202803683370190505b505f848152600c602090815260409182902080548351818402810184019094528084529394509192908301828280156127cc57602002820191905f5260205f20905b81546001600160a01b031681526001909101906020018083116127ae575b5050505f868152600c60205260408120549394509291505067ffffffffffffffff8111156127fc576127fc6152c2565b60405190808252806020026020018201604052801561284057816020015b604080518082019091525f808252602082015281526020019060019003908161281a5790505b5090505f5b82518110156128fd575f858152600a6020526040812084518290869085908110612871576128716159cb565b60200260200101516001600160a01b03166001600160a01b031681526020019081526020015f205490505f60405180604001604052808685815181106128b9576128b96159cb565b60200260200101516001600160a01b03168152602001838152509050808484815181106128e8576128e86159cb565b60209081029190910101525050600101612845565b509392505050565b6060808315612a03576001600160a01b0383165f90815260086020908152604080832060010180548251818502810185019093528083529193909284015b828210156129f8575f848152602090819020604080516080810182526002860290920180548352600181015461ffff81169484019490945291929083019062010000900460ff16600381111561299b5761299b6151f5565b60038111156129ac576129ac6151f5565b81526020016001820160039054906101000a900460ff1660028111156129d4576129d46151f5565b60028111156129e5576129e56151f5565b8152505081526020019060010190612943565b505050509050612af4565b6001600160a01b0383165f90815260086020908152604080832060020180548251818502810185019093528083529193909284015b82821015612aed575f848152602090819020604080516080810182526002860290920180548352600181015461ffff81169484019490945291929083019062010000900460ff166003811115612a9057612a906151f5565b6003811115612aa157612aa16151f5565b81526020016001820160039054906101000a900460ff166002811115612ac957612ac96151f5565b6002811115612ada57612ada6151f5565b8152505081526020019060010190612a38565b5050505090505b5f815167ffffffffffffffff811115612b0f57612b0f6152c2565b604051908082528060200260200182016040528015612b9357816020015b60408051610160810182525f606082018181526080830182905260a0830182905260c0830182905260e08301829052610100830182905261012083018290526101408301829052825260208083018290529282015282525f19909201910181612b2d5790505b5090505f5b8251811015612ce357612c02838281518110612bb657612bb66159cb565b60200260200101515f0151848381518110612bd357612bd36159cb565b602002602001015160400151858481518110612bf157612bf16159cb565b602002602001015160200151610979565b828281518110612c1457612c146159cb565b60200260200101515f0181905250828181518110612c3457612c346159cb565b602002602001015160600151828281518110612c5257612c526159cb565b6020026020010151602001906002811115612c6f57612c6f6151f5565b90816002811115612c8257612c826151f5565b81525050600c5f838381518110612c9b57612c9b6159cb565b60200260200101515f01515f015181526020019081526020015f2080549050828281518110612ccc57612ccc6159cb565b602090810291909101015160400152600101612b98565b509150505b92915050565b60ff5f5c1615612d255760405162461bcd60e51b8152602060048201526002602482015261333160f01b60448201526064016104c9565b60015f805c60ff19168217905d50612d3b6144d1565b612d518135610bac610100840160e085016159df565b612d815760405162461bcd60e51b81526020600482015260016024820152603760f81b60448201526064016104c9565b612d916060820160408301615535565b6001600160a01b0316336001600160a01b031614612dd65760405162461bcd60e51b8152602060048201526002602482015261323360f01b60448201526064016104c9565b335f90815260086020908152604080832060020180548251818502810185019093528083529192909190849084015b82821015612eba575f848152602090819020604080516080810182526002860290920180548352600181015461ffff81169484019490945291929083019062010000900460ff166003811115612e5d57612e5d6151f5565b6003811115612e6e57612e6e6151f5565b81526020016001820160039054906101000a900460ff166002811115612e9657612e966151f5565b6002811115612ea757612ea76151f5565b8152505081526020019060010190612e05565b5050335f908152600860205260408120600201549394509150505b81811015612f6857835f0135838281518110612ef357612ef36159cb565b60200260200101515f015103612f6057335f90815260086020526040902060020180546001919083908110612f2a57612f2a6159cb565b905f5260205f20906002020160010160036101000a81548160ff02191690836002811115612f5a57612f5a6151f5565b02179055505b600101612ed5565b5082355f908152600c6020908152604080832080548251818502810185019093528083529192909190830182828015612fc857602002820191905f5260205f20905b81546001600160a01b03168152600190910190602001808311612faa575b505050505090505f5b81518110156134ea5784355f908152600a6020526040812083518290859085908110612fff57612fff6159cb565b60200260200101516001600160a01b03166001600160a01b031681526020019081526020015f2054905082828151811061303b5761303b6159cb565b60200260200101516001600160a01b031686604001602081019061305f9190615535565b6001600160a01b031687355f516020615dbb5f395f51905f52428561308a60808d0160608e01615535565b600960405161309c949392919061599a565b60405180910390a485355f908152600a6020526040812084519091908590859081106130ca576130ca6159cb565b60200260200101516001600160a01b03166001600160a01b031681526020019081526020015f205f90558560600160208101906131079190615535565b6001600160a01b031663a9059cbb848481518110613127576131276159cb565b60200260200101516131498460055f8c6060016020810190610c0e9190615535565b6040516001600160e01b031960e085901b1681526001600160a01b03909216600483015260248201526044016020604051808303815f875af1158015613191573d5f5f3e3d5ffd5b505050506040513d601f19601f820116820180604052508101906131b59190615a76565b6131e65760405162461bcd60e51b8152602060048201526002602482015261323160f01b60448201526064016104c9565b5f60085f8585815181106131fc576131fc6159cb565b60200260200101516001600160a01b03166001600160a01b031681526020019081526020015f206001018054905067ffffffffffffffff811115613242576132426152c2565b60405190808252806020026020018201604052801561329b57816020015b613288604080516080810182525f80825260208201819052909182019081526020015f905290565b8152602001906001900390816132605790505b50905060085f8585815181106132b3576132b36159cb565b60200260200101516001600160a01b03166001600160a01b031681526020019081526020015f20600101805480602002602001604051908101604052809291908181526020015f905b828210156133b1575f848152602090819020604080516080810182526002860290920180548352600181015461ffff81169484019490945291929083019062010000900460ff166003811115613354576133546151f5565b6003811115613365576133656151f5565b81526020016001820160039054906101000a900460ff16600281111561338d5761338d6151f5565b600281111561339e5761339e6151f5565b81525050815260200190600101906132fc565b5050505090505f5b60085f8686815181106133ce576133ce6159cb565b60200260200101516001600160a01b03166001600160a01b031681526020019081526020015f20600101805490508110156134b957875f0135828281518110613419576134196159cb565b60200260200101515f0151036134b157600160085f878781518110613440576134406159cb565b60200260200101516001600160a01b03166001600160a01b031681526020019081526020015f20600101828154811061347b5761347b6159cb565b905f5260205f20906002020160010160036101000a81548160ff021916908360028111156134ab576134ab6151f5565b02179055505b6001016133b9565b506134e0875f01358585815181106134d3576134d36159cb565b6020026020010151614b53565b5050600101612fd1565b505f600b816134ff60e0880160c089016159f8565b6003811115613510576135106151f5565b81526020019081526020015f205f8660e001602081019061353191906159df565b61ffff1661ffff1681526020019081526020015f20805480602002602001604051908101604052809291908181526020015f905b8282101561363b575f8481526020908190206040805161010081018252600486029092018054835260018101549383019390935260028301546001600160a01b0390811691830191909152600380840154918216606084015260ff600160a01b8304811615156080850152600160a81b83048116151560a085015292939260c0850192600160b01b90041690811115613600576136006151f5565b6003811115613611576136116151f5565b81526003919091015461ffff600160b81b9091041660209182015290825260019092019101613565565b5050505090505f5b815181101561370e57855f0135828281518110613662576136626159cb565b60200260200101515f015103613706576001600b5f61368760e08a0160c08b016159f8565b6003811115613698576136986151f5565b81526020019081526020015f205f8860e00160208101906136b991906159df565b61ffff1661ffff1681526020019081526020015f2082815481106136df576136df6159cb565b905f5260205f20906004020160030160156101000a81548160ff0219169083151502179055505b600101613643565b505f3386355f516020615dbb5f395f51905f52428461373360808c0160608d01615535565b6001604051613745949392919061599a565b60405180910390a4505f92505050805c60ff1916815d5050565b6137676147cd565b5f55565b6137736147cd565b6001600160a01b038116613785575f5ffd5b600680546001600160a01b039092166601000000000000027fffffffffffff0000000000000000000000000000000000000000ffffffffffff909216919091179055565b60ff5f5c16156138005760405162461bcd60e51b8152602060048201526002602482015261333160f01b60448201526064016104c9565b60015f805c60ff19168217905d506138166144d1565b335f90815260086020908152604080832060020180548251818502810185019093528083529192909190849084015b828210156138fa575f848152602090819020604080516080810182526002860290920180548352600181015461ffff81169484019490945291929083019062010000900460ff16600381111561389d5761389d6151f5565b60038111156138ae576138ae6151f5565b81526020016001820160039054906101000a900460ff1660028111156138d6576138d66151f5565b60028111156138e7576138e76151f5565b8152505081526020019060010190613845565b5050505090505f5f5b825181101561393f57845f0151838281518110613922576139226159cb565b60200260200101515f01510361393757600191505b600101613903565b50806139725760405162461bcd60e51b8152602060048201526002602482015261062760f31b60448201526064016104c9565b83515f908152600c60209081526040808320805482518185028101850190935280835291929091908301828280156139d157602002820191905f5260205f20905b81546001600160a01b031681526001909101906020018083116139b3575b505050505090505f5f5b8251811015613a8857856001600160a01b0316838281518110613a0057613a006159cb565b60200260200101516001600160a01b031603613a80576001600160a01b0386165f9081526008602052604090206001908101805491935060029183908110613a4a57613a4a6159cb565b905f5260205f20906002020160010160036101000a81548160ff02191690836002811115613a7a57613a7a6151f5565b02179055505b6001016139db565b5080613abb5760405162461bcd60e51b8152602060048201526002602482015261313960f01b60448201526064016104c9565b8551613ac79086614b53565b846001600160a01b031686604001516001600160a01b0316875f01515f516020615dbb5f395f51905f52428a602001518b606001516007604051613b0e949392919061599a565b60405180910390a485515f908152600a602081815260408084206001600160a01b03808b16808752918452828620548c51875294845282862082875290935281852094909455808a01518a5160608c015192519495949190931692915f516020615dbb5f395f51905f5291613b8a91429188919060099061599a565b60405180910390a460608701516001600160a01b03165f8181526005602052604090206002015463a9059cbb908890613bc790859060ff1661489d565b6040516001600160e01b031960e085901b1681526001600160a01b03909216600483015260248201526044016020604051808303815f875af1158015613c0f573d5f5f3e3d5ffd5b505050506040513d601f19601f82011682018060405250810190613c339190615a76565b613c645760405162461bcd60e51b8152602060048201526002602482015261323160f01b60448201526064016104c9565b505f93505050815c60ff19169050815d505050565b613c816147cd565b60078054911515600160a01b0260ff60a01b19909216919091179055565b613ca76147cd565b6001600160a01b038116613cb9575f5ffd5b600780546001600160a01b0319166001600160a01b0392909216919091179055565b5f613ce5336142ac565b9050806020015115613d8c575f5b816060015151811015613d8a578282606001518281518110613d1757613d176159cb565b60200260200101515f015103613d825764ffffffffff421633847f93cda0785d40b289a535b99dc76d4c9cbb6d8146182861ac3ad40509398b1865613d5c88806158e7565b613d6960208b018b6158e7565b604051613d799493929190615959565b60405180910390a45b600101613cf3565b505b505050565b60605f613d9d42614c8e565b60065490915064ffffffffff610100909104811690821611613de65760405162461bcd60e51b81526020600482015260026024820152610c4d60f21b60448201526064016104c9565b5f613df042614c9c565b90505f5f5f60025467ffffffffffffffff811115613e1057613e106152c2565b604051908082528060200260200182016040528015613e5457816020015b604080518082019091525f8082526020820152815260200190600190039081613e2e5790505b5090505f5b6003811161410d575f81613e6e575060208501515b60018203613e7a575084515b60028203613e89575060408501515b60038203613e98575060608501515b5f5b5f838152600b6020908152604080832061ffff861684529091529020548110156140f8575f838152600b6020908152604080832061ffff861684529091529020805482908110613eec57613eec6159cb565b905f5260205f20906004020160030160159054906101000a900460ff166140f0575f838152600b6020908152604080832061ffff861684529091528120805483908110613f3b57613f3b6159cb565b5f9182526020808320600490920290910154868352600b8252604080842061ffff8816855290925290822080549193509084908110613f7c57613f7c6159cb565b5f918252602080832060036004909302019190910154878352600b8252604080842061ffff8916855290925290822080546001600160a01b0390921693509085908110613fcb57613fcb6159cb565b905f5260205f20906004020160010154905061400160405180604001604052805f81526020015f6001600160a01b031681525090565b5f826127105f54856140139190615a91565b61401d9190615a50565b6140279190615ac8565b90505f5f5b5f878152600c60205260409020548110156140e8576002548d0361405e5750989e9d5050505050505050505050505050565b6003541580614074575060065460ff1615156001145b156140e0578c61408381615adb565b9d5061409190508383615a63565b91506040518060400160405280838152602001876001600160a01b03168152509350838b8d815181106140c6576140c66159cb565b60200260200101819052508b806140dc90615adb565b9c50505b60010161402c565b505050505050505b600101613e9a565b5050808061410590615adb565b915050613e59565b505f5f5b8251811015614160575f6001600160a01b0316838281518110614136576141366159cb565b6020026020010151602001516001600160a01b03160361415857809150614160565b600101614111565b505f8167ffffffffffffffff81111561417b5761417b6152c2565b6040519080825280602002602001820160405280156141bf57816020015b604080518082019091525f80825260208201528152602001906001900390816141995790505b5090505f5b8281101561420b578381815181106141de576141de6159cb565b60200260200101518282815181106141f8576141f86159cb565b60209081029190910101526001016141c4565b50979650505050505050565b4264ffffffffff16336001600160a01b03167f34f43abf7a52b609b04511ed963a29ebb76ae3e0ca0ff5594be1c2a84ebd03f2835f015184602001518560400151866060015187608001518860a0015160405161427996959493929190615b3e565b60405180910390a350565b60098181548110614293575f80fd5b5f918252602090912001546001600160a01b0316905081565b604080516080810182525f80825260208201526060918101829052818101919091526001600160a01b038281165f908152600860209081526040808320815160808101835281549586168152600160a01b90950460ff1615158584015260018101805483518186028101860185528181529295938701949293919290919084015b828210156143e2575f848152602090819020604080516080810182526002860290920180548352600181015461ffff81169484019490945291929083019062010000900460ff166003811115614385576143856151f5565b6003811115614396576143966151f5565b81526020016001820160039054906101000a900460ff1660028111156143be576143be6151f5565b60028111156143cf576143cf6151f5565b815250508152602001906001019061432d565b50505050815260200160028201805480602002602001604051908101604052809291908181526020015f905b828210156144c3575f848152602090819020604080516080810182526002860290920180548352600181015461ffff81169484019490945291929083019062010000900460ff166003811115614466576144666151f5565b6003811115614477576144776151f5565b81526020016001820160039054906101000a900460ff16600281111561449f5761449f6151f5565b60028111156144b0576144b06151f5565b815250508152602001906001019061440e565b505050915250909392505050565b336145025760405162461bcd60e51b81526020600482015260016024820152603360f81b60448201526064016104c9565b565b6001600160a01b0381165f90815260056020526040812060020154610100900460ff16614531575f612ce8565b600192915050565b60408051610100810182525f80825260208201819052918101829052606081018290526080810182905260a0810182905260c0810182905260e08101919091526040516bffffffffffffffffffffffff193360601b1660208201524460348201524260548201525f9060740160408051601f1981840301815282825280516020918201206101008401835280845290830189905233918301919091526001600160a01b0387166060830152600160808301525f60a0830152915060c08101856003811115614609576146096151f5565b81526020018461ffff16815250915050949350505050565b335f90815260086020526040812054600160a01b900460ff16151590036146ad57335f81815260086020526040812080546001600160a01b03199081168417825560098054600181019091557f6e1540171b6c0c960b71a7020d9f60077f6af931a8bbf590da0223dacf75c7af01805490911684179055919052805460ff60a01b1916600160a01b1790555b801561475e57335f90815260086020908152604080832060029081018054600180820183559186529484902087519590920290910193845591850151918301805461ffff19811661ffff909416938417825591860151869493909262ffffff19161762010000836003811115614725576147256151f5565b0217905550606082015160018201805463ff00000019166301000000836002811115614753576147536151f5565b021790555050505050565b335f90815260086020908152604080832060019081018054808301825590855293839020865160029095020193845591850151918301805461ffff19811661ffff909416938417825591860151869493909262ffffff19161762010000836003811115614725576147256151f5565b600654660100000000000090046001600160a01b031633146145025760405162461bcd60e51b8152602060048201526002602482015261189b60f11b60448201526064016104c9565b5f5f60405180608001604052808781526020018661ffff168152602001856003811115614845576148456151f5565b815260200184600281111561485c5761485c6151f5565b81525090505f614878825f015183604001518460200151610979565b905080608001511561488f57600192505050614895565b5f925050505b949350505050565b5f601260ff83168110156148d2576148b58184615bbf565b6148c090600a615cbb565b6148ca9085615a91565b915050612ce8565b8060ff168360ff1610156148ff576148ea8382615bbf565b6148f590600a615cbb565b6148ca9085615a50565b83915050612ce8565b5092915050565b5f5f61491a86614c9c565b90505f5f5f8560ff165f0361493d57836020015161ffff169250600791506149c4565b8560ff1660010361497457614962846080015161ffff168560a0015161ffff16614f2b565b845161ffff16935091508190506149c4565b8560ff166002036149a857614999846060015161ffff16856080015161ffff16614fb0565b61ffff169250605a91506149c4565b8560ff166003036149c457836060015161ffff16925061016d91505b8560ff16600103614a7e575f61016d6149de89600c615a91565b6149e89190615a50565b9050838964ffffffffff1614158015614a0757508864ffffffffff1684115b15614a3857614a1d64ffffffffff8a1685615ac8565b614a279084615ac8565b614a319082615a91565b9750614a78565b838964ffffffffff1614158015614a5557508864ffffffffff1684105b15614a7857614a6b8464ffffffffff8b16615ac8565b614a759082615a91565b97505b50614b46565b60ff86161580614a9157508560ff166002145b80614a9f57508560ff166003145b15614b4657828864ffffffffff1614158015614ac157508764ffffffffff1683115b15614afc57614ad764ffffffffff891684615ac8565b614ae19083615ac8565b614aeb8389615a50565b614af59190615a91565b9650614b46565b828864ffffffffff1614158015614b1957508764ffffffffff1683105b15614b4657614b2f8364ffffffffff8a16615ac8565b614b398389615a50565b614b439190615a91565b96505b5094979650505050505050565b5f828152600c602052604081208054909190815b81811015614bde57846001600160a01b0316848281548110614b8b57614b8b6159cb565b5f918252602090912001546001600160a01b031603614bd657809250838181548110614bb957614bb96159cb565b5f91825260209091200180546001600160a01b0319169055614bde565b600101614b67565b5082548390614bef90600190615ac8565b81548110614bff57614bff6159cb565b905f5260205f20015f9054906101000a90046001600160a01b0316838381548110614c2c57614c2c6159cb565b905f5260205f20015f6101000a8154816001600160a01b0302191690836001600160a01b0316021790555082805480614c6757614c67615cc9565b5f8281526020902081015f1990810180546001600160a01b03191690550190555050505050565b5f612ce86201518083615cdd565b6040805160c0810182525f80825260208201819052918101829052606081018290526080810182905260a0810182905290614cda6201518084615a50565b90505f808281614ced8262010bd9615d06565b614cfa9062253d8c615d06565b90505f62023ab1614d0c836004615d2d565b614d169190615d5c565b90506004614d278262023ab1615d2d565b614d32906003615d06565b614d3c9190615d5c565b614d469083615d88565b91505f62164b09614d58846001615d06565b614d6490610fa0615d2d565b614d6e9190615d5c565b90506004614d7e826105b5615d2d565b614d889190615d5c565b614d929084615d88565b614d9d90601f615d06565b92505f61098f614dae856050615d2d565b614db89190615d5c565b90505f6050614dc98361098f615d2d565b614dd39190615d5c565b614ddd9086615d88565b9050614dea600b83615d5c565b9450614df785600c615d2d565b614e02836002615d06565b614e0c9190615d88565b91508483614e1b603187615d88565b614e26906064615d2d565b614e309190615d06565b614e3a9190615d06565b9097509150868282825f60015b838111614e9357838103614e6a57614e6361ffff8e1683615a63565b9150614e81565b614e748585614f2b565b614e7e9083615a63565b91505b80614e8b81615adb565b915050614e47565b50809a50614ea58b61ffff1685614fb0565b61ffff1660408f0152614eb78f615072565b8e6020019061ffff16908161ffff16815250508b8e5f019061ffff16908161ffff16815250508a8e6060019061ffff16908161ffff1681525050838e6080019061ffff16908161ffff1681525050828e60a0019061ffff16908161ffff168152505050505050505050505050505050919050565b5f8160011480614f3b5750816003145b80614f465750816005145b80614f515750816007145b80614f5c5750816008145b80614f67575081600a145b80614f72575081600c145b15614f7f5750601f612ce8565b81600214614f8f5750601e612ce8565b614f98836150a6565b614fa357601c614fa6565b601d5b60ff169392505050565b5f5f614fbb836150a6565b15614fc857506001614fcb565b505f5b614fd681605a615a63565b8411614fe457839150614908565b83614ff082605a615a63565b10801561500757506150038160b5615a63565b8411155b156150285761501781605a615a63565b6150219085615ac8565b9150614908565b836150348260b5615a63565b10801561504c575061504881610111615a63565b8411155b1561505c576150178160b5615a63565b61506881610111615a63565b6148959085615ac8565b5f806150816201518084615a50565b90505f6007615091836003615a63565b61509b9190615da7565b614895906001615a63565b5f6150b2600483615da7565b1580156150c857506150c5606483615da7565b15155b80612ce857506150da61019083615da7565b1592915050565b80356001600160a01b03811681146150f7575f5ffd5b919050565b5f6040828403121561510c575f5ffd5b50919050565b8035600481106150f7575f5ffd5b803561ffff811681146150f7575f5ffd5b5f5f5f5f5f60a08688031215615145575f5ffd5b85359450615155602087016150e1565b9350604086013567ffffffffffffffff811115615170575f5ffd5b61517c888289016150fc565b93505061518b60608701615112565b915061519960808701615120565b90509295509295909350565b5f602082840312156151b5575f5ffd5b5035919050565b5f5f5f606084860312156151ce575f5ffd5b833592506151de60208501615112565b91506151ec60408501615120565b90509250925092565b634e487b7160e01b5f52602160045260245ffd5b60048110615219576152196151f5565b9052565b80518252602081015160208301526001600160a01b0360408201511660408301526001600160a01b03606082015116606083015260808101511515608083015260a081015161527060a084018215159052565b5060c081015161528360c0840182615209565b5060e0810151613d8c60e084018261ffff169052565b6101008101612ce8828461521d565b5f6101008284031280156152ba575f5ffd5b509092915050565b634e487b7160e01b5f52604160045260245ffd5b604051610100810167ffffffffffffffff811182821017156152fa576152fa6152c2565b60405290565b60405160c0810167ffffffffffffffff811182821017156152fa576152fa6152c2565b8015158114615330575f5ffd5b50565b80356150f781615323565b5f610100828403121561534f575f5ffd5b6153576152d6565b82358152602080840135908201529050615373604083016150e1565b6040820152615384606083016150e1565b6060820152608082013561539781615323565b60808201526153a860a08301615333565b60a08201526153b960c08301615112565b60c08201526153ca60e08301615120565b60e082015292915050565b5f61010082840312156153e6575f5ffd5b6153f0838361533e565b9392505050565b5f5f5f60608486031215615409575f5ffd5b615412846150e1565b925060208401359150604084013560ff8116811461542e575f5ffd5b809150509250925092565b602080825282518282018190525f918401906040840190835b8181101561548557835180516001600160a01b031684526020908101518185015290930192604090920191600101615452565b509095945050505050565b5f5f604083850312156154a1575f5ffd5b82356154ac81615323565b91506154ba602084016150e1565b90509250929050565b60038110615219576152196151f5565b602080825282518282018190525f918401906040840190835b8181101561548557835161550184825161521d565b60208101516155146101008601826154c3565b506040015161012084015260209390930192610140909201916001016154ec565b5f60208284031215615545575f5ffd5b6153f0826150e1565b5f5f6101208385031215615560575f5ffd5b61556a848461533e565b91506154ba61010084016150e1565b5f60208284031215615589575f5ffd5b81356153f081615323565b5f5f604083850312156155a5575f5ffd5b823567ffffffffffffffff8111156155bb575f5ffd5b6155c7858286016150fc565b95602094909401359450505050565b602080825282518282018190525f918401906040840190835b81811015615485578351805184526020908101516001600160a01b031681850152909301926040909201916001016155ef565b5f5f60408385031215615633575f5ffd5b823591506154ba602084016150e1565b5f82601f830112615652575f5ffd5b813567ffffffffffffffff81111561566c5761566c6152c2565b604051601f8201601f19908116603f0116810167ffffffffffffffff8111828210171561569b5761569b6152c2565b6040528181528382016020018510156156b2575f5ffd5b816020850160208301375f918101602001919091529392505050565b5f602082840312156156de575f5ffd5b813567ffffffffffffffff8111156156f4575f5ffd5b820160c08185031215615705575f5ffd5b61570d615300565b813567ffffffffffffffff811115615723575f5ffd5b61572f86828501615643565b825250602082013567ffffffffffffffff81111561574b575f5ffd5b61575786828501615643565b602083015250604082013567ffffffffffffffff811115615776575f5ffd5b61578286828501615643565b604083015250606082013567ffffffffffffffff8111156157a1575f5ffd5b6157ad86828501615643565b606083015250608082013567ffffffffffffffff8111156157cc575f5ffd5b6157d886828501615643565b60808301525060a082013567ffffffffffffffff8111156157f7575f5ffd5b61580386828501615643565b60a083015250949350505050565b5f8151808452602084019350602083015f5b8281101561587d5781518051875261ffff602082015116602088015260408101516158516040890182615209565b506060810151905061586660608801826154c3565b506080959095019460209190910190600101615823565b5093949350505050565b602081526001600160a01b0382511660208201526020820151151560408201525f6040830151608060608401526158c160a0840182615811565b90506060840151601f198483030160808501526158de8282615811565b95945050505050565b5f5f8335601e198436030181126158fc575f5ffd5b83018035915067ffffffffffffffff821115615916575f5ffd5b60200191503681900382131561592a575f5ffd5b9250929050565b81835281816020850137505f828201602090810191909152601f909101601f19169091010190565b604081525f61596c604083018688615931565b828103602084015261597f818587615931565b979650505050505050565b600a8110615219576152196151f5565b64ffffffffff85168152602081018490526001600160a01b0383166040820152608081016158de606083018461598a565b634e487b7160e01b5f52603260045260245ffd5b5f602082840312156159ef575f5ffd5b6153f082615120565b5f60208284031215615a08575f5ffd5b6153f082615112565b5f60208284031215615a21575f5ffd5b5051919050565b634e487b7160e01b5f52601260045260245ffd5b634e487b7160e01b5f52601160045260245ffd5b5f82615a5e57615a5e615a28565b500490565b80820180821115612ce857612ce8615a3c565b5f60208284031215615a86575f5ffd5b81516153f081615323565b8082028115828204841417612ce857612ce8615a3c565b64ffffffffff818116838216029081169081811461490857614908615a3c565b81810381811115612ce857612ce8615a3c565b5f60018201615aec57615aec615a3c565b5060010190565b64ffffffffff8181168382160190811115612ce857612ce8615a3c565b5f81518084528060208401602086015e5f602082860101526020601f19601f83011685010191505092915050565b60c081525f615b5060c0830189615b10565b8281036020840152615b628189615b10565b90508281036040840152615b768188615b10565b90508281036060840152615b8a8187615b10565b90508281036080840152615b9e8186615b10565b905082810360a0840152615bb28185615b10565b9998505050505050505050565b60ff8281168282160390811115612ce857612ce8615a3c565b6001815b6001841115615c1357808504811115615bf757615bf7615a3c565b6001841615615c0557908102905b60019390931c928002615bdc565b935093915050565b5f82615c2957506001612ce8565b81615c3557505f612ce8565b8160018114615c4b5760028114615c5557615c71565b6001915050612ce8565b60ff841115615c6657615c66615a3c565b50506001821b612ce8565b5060208310610133831016604e8410600b8410161715615c94575081810a612ce8565b615ca05f198484615bd8565b805f1904821115615cb357615cb3615a3c565b029392505050565b5f6153f060ff841683615c1b565b634e487b7160e01b5f52603160045260245ffd5b5f64ffffffffff831680615cf357615cf3615a28565b8064ffffffffff84160491505092915050565b8082018281125f831280158216821582161715615d2557615d25615a3c565b505092915050565b8082025f8212600160ff1b84141615615d4857615d48615a3c565b8181058314821517612ce857612ce8615a3c565b5f82615d6a57615d6a615a28565b600160ff1b82145f1984141615615d8357615d83615a3c565b500590565b8181035f83128015838313168383128216171561490857614908615a3c565b5f82615db557615db5615a28565b50069056feca6b824caf1a48ea2ad039dbb063460fa30e9c3cc255eeb52240d638ec6de65ea26469706673582212204396b80f411d73ccf64d5454478ff24ac0da85a049c6737c3b9fc6b98807b61864736f6c634300081c0033",
  "linkReferences": {},
  "deployedLinkReferences": {}
}