{
  "_format": "hh-sol-artifact-1",
  "contractName": "ClockTowerSubscribe",
  "sourceName": "contracts/ClockTowerSubscribe.sol",
  "abi": [
    {
      "inputs": [
        {
          "internalType": "uint256",
          "name": "callerFee_",
          "type": "uint256"
        },
        {
          "internalType": "uint256",
          "name": "systemFee_",
          "type": "uint256"
        },
        {
          "internalType": "uint256",
          "name": "maxRemits_",
          "type": "uint256"
        },
        {
          "internalType": "bool",
          "name": "allowSystemFee_",
          "type": "bool"
        },
        {
          "internalType": "address",
          "name": "admin_",
          "type": "address"
        }
      ],
      "stateMutability": "nonpayable",
      "type": "constructor"
    },
    {
      "inputs": [
        {
          "internalType": "address",
          "name": "owner",
          "type": "address"
        }
      ],
      "name": "OwnableInvalidOwner",
      "type": "error"
    },
    {
      "inputs": [
        {
          "internalType": "address",
          "name": "account",
          "type": "address"
        }
      ],
      "name": "OwnableUnauthorizedAccount",
      "type": "error"
    },
    {
      "inputs": [
        {
          "internalType": "address",
          "name": "token",
          "type": "address"
        }
      ],
      "name": "SafeERC20FailedOperation",
      "type": "error"
    },
    {
      "anonymous": false,
      "inputs": [
        {
          "indexed": true,
          "internalType": "uint40",
          "name": "timestamp",
          "type": "uint40"
        },
        {
          "indexed": true,
          "internalType": "uint40",
          "name": "checkedDay",
          "type": "uint40"
        },
        {
          "indexed": true,
          "internalType": "address",
          "name": "caller",
          "type": "address"
        },
        {
          "indexed": false,
          "internalType": "bool",
          "name": "isFinished",
          "type": "bool"
        }
      ],
      "name": "CallerLog",
      "type": "event"
    },
    {
      "anonymous": false,
      "inputs": [
        {
          "indexed": true,
          "internalType": "bytes32",
          "name": "id",
          "type": "bytes32"
        },
        {
          "indexed": false,
          "internalType": "uint256",
          "name": "subscriberIndex",
          "type": "uint256"
        },
        {
          "indexed": false,
          "internalType": "uint256",
          "name": "subscriptionIndex",
          "type": "uint256"
        },
        {
          "indexed": false,
          "internalType": "uint256",
          "name": "frequency",
          "type": "uint256"
        },
        {
          "indexed": true,
          "internalType": "uint40",
          "name": "nextUncheckedDay",
          "type": "uint40"
        }
      ],
      "name": "Coordinates",
      "type": "event"
    },
    {
      "anonymous": false,
      "inputs": [
        {
          "indexed": true,
          "internalType": "bytes32",
          "name": "id",
          "type": "bytes32"
        },
        {
          "indexed": true,
          "internalType": "address",
          "name": "provider",
          "type": "address"
        },
        {
          "indexed": true,
          "internalType": "uint40",
          "name": "timestamp",
          "type": "uint40"
        },
        {
          "indexed": false,
          "internalType": "string",
          "name": "url",
          "type": "string"
        },
        {
          "indexed": false,
          "internalType": "string",
          "name": "description",
          "type": "string"
        }
      ],
      "name": "DetailsLog",
      "type": "event"
    },
    {
      "anonymous": false,
      "inputs": [
        {
          "indexed": true,
          "internalType": "address",
          "name": "previousOwner",
          "type": "address"
        },
        {
          "indexed": true,
          "internalType": "address",
          "name": "newOwner",
          "type": "address"
        }
      ],
      "name": "OwnershipTransferStarted",
      "type": "event"
    },
    {
      "anonymous": false,
      "inputs": [
        {
          "indexed": true,
          "internalType": "address",
          "name": "previousOwner",
          "type": "address"
        },
        {
          "indexed": true,
          "internalType": "address",
          "name": "newOwner",
          "type": "address"
        }
      ],
      "name": "OwnershipTransferred",
      "type": "event"
    },
    {
      "anonymous": false,
      "inputs": [
        {
          "indexed": true,
          "internalType": "address",
          "name": "provider",
          "type": "address"
        },
        {
          "indexed": true,
          "internalType": "uint40",
          "name": "timestamp",
          "type": "uint40"
        },
        {
          "indexed": true,
          "internalType": "string",
          "name": "description",
          "type": "string"
        },
        {
          "indexed": false,
          "internalType": "string",
          "name": "company",
          "type": "string"
        },
        {
          "indexed": false,
          "internalType": "string",
          "name": "url",
          "type": "string"
        },
        {
          "indexed": false,
          "internalType": "string",
          "name": "domain",
          "type": "string"
        },
        {
          "indexed": false,
          "internalType": "string",
          "name": "email",
          "type": "string"
        },
        {
          "indexed": false,
          "internalType": "string",
          "name": "misc",
          "type": "string"
        }
      ],
      "name": "ProvDetailsLog",
      "type": "event"
    },
    {
      "anonymous": false,
      "inputs": [
        {
          "indexed": true,
          "internalType": "bytes32",
          "name": "id",
          "type": "bytes32"
        },
        {
          "indexed": true,
          "internalType": "address",
          "name": "provider",
          "type": "address"
        },
        {
          "indexed": true,
          "internalType": "address",
          "name": "subscriber",
          "type": "address"
        },
        {
          "indexed": false,
          "internalType": "uint40",
          "name": "timestamp",
          "type": "uint40"
        },
        {
          "indexed": false,
          "internalType": "uint256",
          "name": "amount",
          "type": "uint256"
        },
        {
          "indexed": false,
          "internalType": "address",
          "name": "token",
          "type": "address"
        },
        {
          "indexed": false,
          "internalType": "enum ClockTowerSubscribe.SubscriptEvent",
          "name": "subScriptEvent",
          "type": "uint8"
        }
      ],
      "name": "SubLog",
      "type": "event"
    },
    {
      "inputs": [],
      "name": "acceptOwnership",
      "outputs": [],
      "stateMutability": "nonpayable",
      "type": "function"
    },
    {
      "inputs": [
        {
          "internalType": "address",
          "name": "erc20Contract",
          "type": "address"
        },
        {
          "internalType": "uint256",
          "name": "minimum",
          "type": "uint256"
        },
        {
          "internalType": "uint8",
          "name": "decimals",
          "type": "uint8"
        }
      ],
      "name": "addERC20Contract",
      "outputs": [],
      "stateMutability": "nonpayable",
      "type": "function"
    },
    {
      "inputs": [
        {
          "internalType": "address",
          "name": "",
          "type": "address"
        }
      ],
      "name": "approvedERC20",
      "outputs": [
        {
          "internalType": "address",
          "name": "tokenAddress",
          "type": "address"
        },
        {
          "internalType": "uint8",
          "name": "decimals",
          "type": "uint8"
        },
        {
          "internalType": "bool",
          "name": "paused",
          "type": "bool"
        },
        {
          "internalType": "uint256",
          "name": "minimum",
          "type": "uint256"
        }
      ],
      "stateMutability": "view",
      "type": "function"
    },
    {
      "inputs": [],
      "name": "callerFee",
      "outputs": [
        {
          "internalType": "uint256",
          "name": "",
          "type": "uint256"
        }
      ],
      "stateMutability": "view",
      "type": "function"
    },
    {
      "inputs": [
        {
          "components": [
            {
              "internalType": "bytes32",
              "name": "id",
              "type": "bytes32"
            },
            {
              "internalType": "uint256",
              "name": "amount",
              "type": "uint256"
            },
            {
              "internalType": "address",
              "name": "provider",
              "type": "address"
            },
            {
              "internalType": "address",
              "name": "token",
              "type": "address"
            },
            {
              "internalType": "bool",
              "name": "cancelled",
              "type": "bool"
            },
            {
              "internalType": "enum ClockTowerSubscribe.Frequency",
              "name": "frequency",
              "type": "uint8"
            },
            {
              "internalType": "uint16",
              "name": "dueDay",
              "type": "uint16"
            }
          ],
          "internalType": "struct ClockTowerSubscribe.Subscription",
          "name": "subscription",
          "type": "tuple"
        }
      ],
      "name": "cancelSubscription",
      "outputs": [],
      "stateMutability": "nonpayable",
      "type": "function"
    },
    {
      "inputs": [
        {
          "internalType": "uint256",
          "name": "_fee",
          "type": "uint256"
        }
      ],
      "name": "changeCallerFee",
      "outputs": [],
      "stateMutability": "nonpayable",
      "type": "function"
    },
    {
      "inputs": [
        {
          "internalType": "uint256",
          "name": "_maxRemits",
          "type": "uint256"
        }
      ],
      "name": "changeMaxRemits",
      "outputs": [],
      "stateMutability": "nonpayable",
      "type": "function"
    },
    {
      "inputs": [
        {
          "internalType": "address",
          "name": "newSysFeeAddress",
          "type": "address"
        }
      ],
      "name": "changeSysFeeReceiver",
      "outputs": [],
      "stateMutability": "nonpayable",
      "type": "function"
    },
    {
      "inputs": [
        {
          "internalType": "uint256",
          "name": "_sys_fee",
          "type": "uint256"
        }
      ],
      "name": "changeSystemFee",
      "outputs": [],
      "stateMutability": "nonpayable",
      "type": "function"
    },
    {
      "inputs": [
        {
          "internalType": "uint256",
          "name": "amount",
          "type": "uint256"
        },
        {
          "internalType": "address",
          "name": "token",
          "type": "address"
        },
        {
          "components": [
            {
              "internalType": "string",
              "name": "url",
              "type": "string"
            },
            {
              "internalType": "string",
              "name": "description",
              "type": "string"
            }
          ],
          "internalType": "struct ClockTowerSubscribe.Details",
          "name": "details",
          "type": "tuple"
        },
        {
          "internalType": "enum ClockTowerSubscribe.Frequency",
          "name": "frequency",
          "type": "uint8"
        },
        {
          "internalType": "uint16",
          "name": "dueDay",
          "type": "uint16"
        }
      ],
      "name": "createSubscription",
      "outputs": [],
      "stateMutability": "nonpayable",
      "type": "function"
    },
    {
      "inputs": [
        {
          "components": [
            {
              "internalType": "string",
              "name": "url",
              "type": "string"
            },
            {
              "internalType": "string",
              "name": "description",
              "type": "string"
            }
          ],
          "internalType": "struct ClockTowerSubscribe.Details",
          "name": "details",
          "type": "tuple"
        },
        {
          "internalType": "bytes32",
          "name": "id",
          "type": "bytes32"
        }
      ],
      "name": "editDetails",
      "outputs": [],
      "stateMutability": "nonpayable",
      "type": "function"
    },
    {
      "inputs": [
        {
          "components": [
            {
              "internalType": "string",
              "name": "description",
              "type": "string"
            },
            {
              "internalType": "string",
              "name": "company",
              "type": "string"
            },
            {
              "internalType": "string",
              "name": "url",
              "type": "string"
            },
            {
              "internalType": "string",
              "name": "domain",
              "type": "string"
            },
            {
              "internalType": "string",
              "name": "email",
              "type": "string"
            },
            {
              "internalType": "string",
              "name": "misc",
              "type": "string"
            }
          ],
          "internalType": "struct ClockTowerSubscribe.ProviderDetails",
          "name": "details",
          "type": "tuple"
        }
      ],
      "name": "editProvDetails",
      "outputs": [],
      "stateMutability": "nonpayable",
      "type": "function"
    },
    {
      "inputs": [
        {
          "internalType": "bytes32",
          "name": "",
          "type": "bytes32"
        },
        {
          "internalType": "address",
          "name": "",
          "type": "address"
        }
      ],
      "name": "feeBalance",
      "outputs": [
        {
          "internalType": "uint256",
          "name": "",
          "type": "uint256"
        }
      ],
      "stateMutability": "view",
      "type": "function"
    },
    {
      "inputs": [],
      "name": "feeEstimate",
      "outputs": [
        {
          "components": [
            {
              "internalType": "uint256",
              "name": "fee",
              "type": "uint256"
            },
            {
              "internalType": "address",
              "name": "token",
              "type": "address"
            }
          ],
          "internalType": "struct ClockTowerSubscribe.FeeEstimate[]",
          "name": "",
          "type": "tuple[]"
        }
      ],
      "stateMutability": "view",
      "type": "function"
    },
    {
      "inputs": [
        {
          "internalType": "address",
          "name": "account",
          "type": "address"
        }
      ],
      "name": "getAccount",
      "outputs": [
        {
          "components": [
            {
              "internalType": "address",
              "name": "accountAddress",
              "type": "address"
            },
            {
              "components": [
                {
                  "internalType": "bytes32",
                  "name": "id",
                  "type": "bytes32"
                },
                {
                  "internalType": "uint16",
                  "name": "dueDay",
                  "type": "uint16"
                },
                {
                  "internalType": "enum ClockTowerSubscribe.Frequency",
                  "name": "frequency",
                  "type": "uint8"
                },
                {
                  "internalType": "enum ClockTowerSubscribe.Status",
                  "name": "status",
                  "type": "uint8"
                }
              ],
              "internalType": "struct ClockTowerSubscribe.SubIndex[]",
              "name": "subscriptions",
              "type": "tuple[]"
            },
            {
              "components": [
                {
                  "internalType": "bytes32",
                  "name": "id",
                  "type": "bytes32"
                },
                {
                  "internalType": "uint16",
                  "name": "dueDay",
                  "type": "uint16"
                },
                {
                  "internalType": "enum ClockTowerSubscribe.Frequency",
                  "name": "frequency",
                  "type": "uint8"
                },
                {
                  "internalType": "enum ClockTowerSubscribe.Status",
                  "name": "status",
                  "type": "uint8"
                }
              ],
              "internalType": "struct ClockTowerSubscribe.SubIndex[]",
              "name": "provSubs",
              "type": "tuple[]"
            }
          ],
          "internalType": "struct ClockTowerSubscribe.Account",
          "name": "",
          "type": "tuple"
        }
      ],
      "stateMutability": "view",
      "type": "function"
    },
    {
      "inputs": [
        {
          "internalType": "bool",
          "name": "bySubscriber",
          "type": "bool"
        },
        {
          "internalType": "address",
          "name": "account",
          "type": "address"
        }
      ],
      "name": "getAccountSubscriptions",
      "outputs": [
        {
          "components": [
            {
              "components": [
                {
                  "internalType": "bytes32",
                  "name": "id",
                  "type": "bytes32"
                },
                {
                  "internalType": "uint256",
                  "name": "amount",
                  "type": "uint256"
                },
                {
                  "internalType": "address",
                  "name": "provider",
                  "type": "address"
                },
                {
                  "internalType": "address",
                  "name": "token",
                  "type": "address"
                },
                {
                  "internalType": "bool",
                  "name": "cancelled",
                  "type": "bool"
                },
                {
                  "internalType": "enum ClockTowerSubscribe.Frequency",
                  "name": "frequency",
                  "type": "uint8"
                },
                {
                  "internalType": "uint16",
                  "name": "dueDay",
                  "type": "uint16"
                }
              ],
              "internalType": "struct ClockTowerSubscribe.Subscription",
              "name": "subscription",
              "type": "tuple"
            },
            {
              "internalType": "enum ClockTowerSubscribe.Status",
              "name": "status",
              "type": "uint8"
            },
            {
              "internalType": "uint256",
              "name": "totalSubscribers",
              "type": "uint256"
            }
          ],
          "internalType": "struct ClockTowerSubscribe.SubView[]",
          "name": "",
          "type": "tuple[]"
        }
      ],
      "stateMutability": "view",
      "type": "function"
    },
    {
      "inputs": [
        {
          "internalType": "bytes32",
          "name": "id",
          "type": "bytes32"
        }
      ],
      "name": "getSubscribersById",
      "outputs": [
        {
          "components": [
            {
              "internalType": "address",
              "name": "subscriber",
              "type": "address"
            },
            {
              "internalType": "uint256",
              "name": "feeBalance",
              "type": "uint256"
            }
          ],
          "internalType": "struct ClockTowerSubscribe.SubscriberView[]",
          "name": "",
          "type": "tuple[]"
        }
      ],
      "stateMutability": "view",
      "type": "function"
    },
    {
      "inputs": [],
      "name": "getTotalSubscribers",
      "outputs": [
        {
          "internalType": "uint256",
          "name": "",
          "type": "uint256"
        }
      ],
      "stateMutability": "view",
      "type": "function"
    },
    {
      "inputs": [
        {
          "internalType": "bytes32",
          "name": "",
          "type": "bytes32"
        }
      ],
      "name": "idSubMap",
      "outputs": [
        {
          "internalType": "bytes32",
          "name": "id",
          "type": "bytes32"
        },
        {
          "internalType": "uint256",
          "name": "amount",
          "type": "uint256"
        },
        {
          "internalType": "address",
          "name": "provider",
          "type": "address"
        },
        {
          "internalType": "address",
          "name": "token",
          "type": "address"
        },
        {
          "internalType": "bool",
          "name": "cancelled",
          "type": "bool"
        },
        {
          "internalType": "enum ClockTowerSubscribe.Frequency",
          "name": "frequency",
          "type": "uint8"
        },
        {
          "internalType": "uint16",
          "name": "dueDay",
          "type": "uint16"
        }
      ],
      "stateMutability": "view",
      "type": "function"
    },
    {
      "inputs": [],
      "name": "maxRemits",
      "outputs": [
        {
          "internalType": "uint256",
          "name": "",
          "type": "uint256"
        }
      ],
      "stateMutability": "view",
      "type": "function"
    },
    {
      "inputs": [],
      "name": "nextUncheckedDay",
      "outputs": [
        {
          "internalType": "uint40",
          "name": "",
          "type": "uint40"
        }
      ],
      "stateMutability": "view",
      "type": "function"
    },
    {
      "inputs": [],
      "name": "owner",
      "outputs": [
        {
          "internalType": "address",
          "name": "",
          "type": "address"
        }
      ],
      "stateMutability": "view",
      "type": "function"
    },
    {
      "inputs": [
        {
          "internalType": "address",
          "name": "_tokenAddress",
          "type": "address"
        },
        {
          "internalType": "bool",
          "name": "pause",
          "type": "bool"
        }
      ],
      "name": "pauseToken",
      "outputs": [],
      "stateMutability": "nonpayable",
      "type": "function"
    },
    {
      "inputs": [],
      "name": "pendingOwner",
      "outputs": [
        {
          "internalType": "address",
          "name": "",
          "type": "address"
        }
      ],
      "stateMutability": "view",
      "type": "function"
    },
    {
      "inputs": [],
      "name": "remit",
      "outputs": [],
      "stateMutability": "nonpayable",
      "type": "function"
    },
    {
      "inputs": [],
      "name": "renounceOwnership",
      "outputs": [],
      "stateMutability": "nonpayable",
      "type": "function"
    },
    {
      "inputs": [
        {
          "internalType": "uint40",
          "name": "_nextUncheckedDay",
          "type": "uint40"
        }
      ],
      "name": "setNextUncheckedDay",
      "outputs": [],
      "stateMutability": "nonpayable",
      "type": "function"
    },
    {
      "inputs": [
        {
          "components": [
            {
              "internalType": "bytes32",
              "name": "id",
              "type": "bytes32"
            },
            {
              "internalType": "uint256",
              "name": "subscriberIndex",
              "type": "uint256"
            },
            {
              "internalType": "uint256",
              "name": "subscriptionIndex",
              "type": "uint256"
            },
            {
              "internalType": "uint256",
              "name": "frequency",
              "type": "uint256"
            },
            {
              "internalType": "bool",
              "name": "initialized",
              "type": "bool"
            }
          ],
          "internalType": "struct ClockTowerSubscribe.PageStart",
          "name": "_pageStart",
          "type": "tuple"
        }
      ],
      "name": "setPageStart",
      "outputs": [],
      "stateMutability": "nonpayable",
      "type": "function"
    },
    {
      "inputs": [
        {
          "components": [
            {
              "internalType": "bytes32",
              "name": "id",
              "type": "bytes32"
            },
            {
              "internalType": "uint256",
              "name": "amount",
              "type": "uint256"
            },
            {
              "internalType": "address",
              "name": "provider",
              "type": "address"
            },
            {
              "internalType": "address",
              "name": "token",
              "type": "address"
            },
            {
              "internalType": "bool",
              "name": "cancelled",
              "type": "bool"
            },
            {
              "internalType": "enum ClockTowerSubscribe.Frequency",
              "name": "frequency",
              "type": "uint8"
            },
            {
              "internalType": "uint16",
              "name": "dueDay",
              "type": "uint16"
            }
          ],
          "internalType": "struct ClockTowerSubscribe.Subscription",
          "name": "subscription",
          "type": "tuple"
        }
      ],
      "name": "subscribe",
      "outputs": [],
      "stateMutability": "nonpayable",
      "type": "function"
    },
    {
      "inputs": [],
      "name": "systemFee",
      "outputs": [
        {
          "internalType": "uint256",
          "name": "",
          "type": "uint256"
        }
      ],
      "stateMutability": "view",
      "type": "function"
    },
    {
      "inputs": [
        {
          "internalType": "bool",
          "name": "status",
          "type": "bool"
        }
      ],
      "name": "systemFeeActivate",
      "outputs": [],
      "stateMutability": "nonpayable",
      "type": "function"
    },
    {
      "inputs": [
        {
          "internalType": "address",
          "name": "newOwner",
          "type": "address"
        }
      ],
      "name": "transferOwnership",
      "outputs": [],
      "stateMutability": "nonpayable",
      "type": "function"
    },
    {
      "inputs": [
        {
          "components": [
            {
              "internalType": "bytes32",
              "name": "id",
              "type": "bytes32"
            },
            {
              "internalType": "uint256",
              "name": "amount",
              "type": "uint256"
            },
            {
              "internalType": "address",
              "name": "provider",
              "type": "address"
            },
            {
              "internalType": "address",
              "name": "token",
              "type": "address"
            },
            {
              "internalType": "bool",
              "name": "cancelled",
              "type": "bool"
            },
            {
              "internalType": "enum ClockTowerSubscribe.Frequency",
              "name": "frequency",
              "type": "uint8"
            },
            {
              "internalType": "uint16",
              "name": "dueDay",
              "type": "uint16"
            }
          ],
          "internalType": "struct ClockTowerSubscribe.Subscription",
          "name": "subscription",
          "type": "tuple"
        }
      ],
      "name": "unsubscribe",
      "outputs": [],
      "stateMutability": "nonpayable",
      "type": "function"
    },
    {
      "inputs": [
        {
          "components": [
            {
              "internalType": "bytes32",
              "name": "id",
              "type": "bytes32"
            },
            {
              "internalType": "uint256",
              "name": "amount",
              "type": "uint256"
            },
            {
              "internalType": "address",
              "name": "provider",
              "type": "address"
            },
            {
              "internalType": "address",
              "name": "token",
              "type": "address"
            },
            {
              "internalType": "bool",
              "name": "cancelled",
              "type": "bool"
            },
            {
              "internalType": "enum ClockTowerSubscribe.Frequency",
              "name": "frequency",
              "type": "uint8"
            },
            {
              "internalType": "uint16",
              "name": "dueDay",
              "type": "uint16"
            }
          ],
          "internalType": "struct ClockTowerSubscribe.Subscription",
          "name": "subscription",
          "type": "tuple"
        },
        {
          "internalType": "address",
          "name": "subscriber",
          "type": "address"
        }
      ],
      "name": "unsubscribeByProvider",
      "outputs": [],
      "stateMutability": "nonpayable",
      "type": "function"
    }
  ],
  "bytecode": "0x608060405234801561000f575f5ffd5b5060405161531538038061531583398101604081905261002e916101bc565b806001600160a01b03811661005c57604051631e4fbdf760e01b81525f600482015260240160405180910390fd5b6100658161013d565b506001600160a01b038116610078575f5ffd5b612710851015801561008c5750612a518511155b610094575f5ffd5b61271084101580156100a85750614e1f8411155b6100b0575f5ffd5b600285815560038590556004849055600a805460ff60d01b1916600160d01b851515021790556100df42610159565b6100e99190610220565b600a80546001600160a01b03909316660100000000000002600160301b600160d01b031964ffffffffff939093166101000292909216610100600160d01b0319909316929092171790555061027e92505050565b600180546001600160a01b03191690556101568161016d565b50565b5f6101676201518083610249565b92915050565b5f80546001600160a01b038381166001600160a01b0319831681178455604051919092169283917f8be0079c531659141344cd1fd0a4f28419497f9722a3daafe3b4186f6b6457e09190a35050565b5f5f5f5f5f60a086880312156101d0575f5ffd5b8551602087015160408801516060890151929750909550935080151581146101f6575f5ffd5b60808701519092506001600160a01b0381168114610212575f5ffd5b809150509295509295909350565b64ffffffffff828116828216039081111561016757634e487b7160e01b5f52601160045260245ffd5b5f64ffffffffff83168061026b57634e487b7160e01b5f52601260045260245ffd5b8064ffffffffff84160491505092915050565b61508a8061028b5f395ff3fe608060405234801561000f575f5ffd5b50600436106101fc575f3560e01c806386525a0011610114578063d10f9e69116100a9578063e63d35be11610079578063e63d35be14610504578063ebec6eaa14610519578063ed601d2814610543578063f2fde38b14610556578063fbcbc0f114610569575f5ffd5b8063d10f9e69146104a1578063d57ade5a146104b4578063da854a96146104c7578063e30c3978146104f3575f5ffd5b8063ac2b4e63116100e4578063ac2b4e6314610404578063b25ae32c14610417578063bd7438861461041f578063cab1c96514610498575f5ffd5b806386525a001461039a5780638da5cb5b146103ba5780638ef0ef1c146103de5780639889552e146103f1575f5ffd5b80634a1268b8116101955780637507ba39116101655780637507ba391461034457806379ba50971461034c5780637b7c5f17146103545780637bbf5a6e146103675780637ee1bfb914610387575f5ffd5b80634a1268b814610303578063598bff3514610316578063668c1e8a14610329578063715018a61461033c575f5ffd5b806312c99cf5116101d057806312c99cf5146102bd5780631f17ee55146102d057806327ea9773146102e757806334d441d0146102fa575f5ffd5b8062b7097714610200578063038c9c0e146102825780630b8590c7146102975780630bec99e8146102aa575b5f5ffd5b61026661020e366004614319565b60146020525f90815260409020805460018201546002830154600390930154919290916001600160a01b039182169181169060ff600160a01b8204811691600160a81b81049091169061ffff600160b01b9091041687565b6040516102799796959493929190614358565b60405180910390f35b6102956102903660046143a8565b610589565b005b6102956102a536600461440c565b610bb4565b6102956102b8366004614319565b611079565b6102956102cb366004614572565b611086565b6102d960035481565b604051908152602001610279565b6102956102f5366004614319565b61120f565b6102d960025481565b61029561031136600461458c565b61121c565b6102956103243660046145ce565b611315565b6102956103373660046143a8565b611516565b610295611789565b61029561179c565b610295612512565b610295610362366004614601565b612556565b61037a610375366004614319565b612582565b6040516102799190614625565b61029561039536600461467c565b6126c1565b6103ad6103a836600461468d565b6126db565b60405161027991906146c7565b5f546001600160a01b03165b6040516001600160a01b039091168152602001610279565b6102956103ec366004614319565b612a62565b6102956103ff366004614781565b612a6f565b61029561041236600461479c565b612a95565b6102d9612b17565b61046661042d36600461479c565b60176020525f9081526040902080546001909101546001600160a01b0382169160ff600160a01b8204811692600160a81b909204169084565b604080516001600160a01b03909516855260ff9093166020850152901515918301919091526060820152608001610279565b6102d960045481565b6102956104af3660046147b5565b612b27565b6102956104c23660046147f7565b612b96565b600a546104dd90610100900464ffffffffff1681565b60405164ffffffffff9091168152602001610279565b6001546001600160a01b03166103c6565b61050c612c3f565b604051610279919061482c565b6102d9610527366004614878565b601160209081525f928352604080842090915290825290205481565b610295610551366004614924565b61309b565b61029561056436600461479c565b61311a565b61057c61057736600461479c565b61318a565b6040516102799190614add565b6105938135613619565b6105c85760405162461bcd60e51b81526020600482015260016024820152603360f81b60448201526064015b60405180910390fd5b60175f6105db608084016060850161479c565b6001600160a01b0316815260208101919091526040015f2054600160a81b900460ff16156106305760405162461bcd60e51b8152602060048201526002602482015261032360f41b60448201526064016105bf565b5f610674602083013560178361064c608087016060880161479c565b6001600160a01b0316815260208101919091526040015f2054600160a01b900460ff1661364b565b905080610687608084016060850161479c565b604051636eb1769f60e11b81523360048201523060248201526001600160a01b03919091169063dd62ed3e90604401602060405180830381865afa1580156106d1573d5f5f3e3d5ffd5b505050506040513d601f19601f820116820180604052508101906106f59190614b31565b1015801561077a57508061070f608084016060850161479c565b6040516370a0823160e01b81523360048201526001600160a01b0391909116906370a0823190602401602060405180830381865afa158015610753573d5f5f3e3d5ffd5b505050506040513d601f19601f820116820180604052508101906107779190614b31565b10155b6107ab5760405162461bcd60e51b8152602060048201526002602482015261031360f41b60448201526064016105bf565b6107bb606083016040840161479c565b6001600160a01b031633036107f65760405162461bcd60e51b81526020600482015260016024820152600360fc1b60448201526064016105bf565b81355f90815260136020526040902061080f90336136bd565b61082e5781355f90815260136020526040902061082c90336136e1565b505b81355f90815260156020526040902061084790336136bd565b156108675781355f90815260156020526040902061086590336136f5565b505b6040805160808101909152823581526108c6906020810161088e60e0860160c08701614b48565b61ffff1681526020016108a760c0860160a08701614b61565b60038111156108b8576108b8614330565b81526020015f90525f613709565b60208201356001806108de60c0860160a08701614b61565b60038111156108ef576108ef614330565b148061091a57505f61090760c0860160a08701614b61565b600381111561091857610918614330565b145b156109655761095e4261093360e0870160c08801614b48565b61ffff168461094860c0890160a08a01614b61565b600381111561095957610959614330565b6137a7565b9150610a09565b600261097760c0860160a08701614b61565b600381111561098857610988614330565b036109b9576109a14261093360e0870160c08801614b48565b91506109ae600383614ba2565b915060029050610a09565b60036109cb60c0860160a08701614b61565b60038111156109dc576109dc614330565b03610a09576109f54261093360e0870160c08801614b48565b9150610a02600c83614ba2565b9150600b90505b83355f90815260116020908152604080832033845290915281208054849290610a33908490614bb5565b90915550339050610a4a606086016040870161479c565b6001600160a01b031685355f5160206150355f395f51905f52426020890135610a7960808b0160608c0161479c565b6006604051610a8b9493929190614bd8565b60405180910390a433610aa4606086016040870161479c565b6001600160a01b031685355f5160206150355f395f51905f524286610acf60808b0160608c0161479c565b6008604051610ae19493929190614bd8565b60405180910390a4610b263330610b058560175f61064c60808c0160608d0161479c565b610b156080890160608a0161479c565b6001600160a01b03169291906139eb565b6002610b3860c0860160a08701614b61565b6003811115610b4957610b49614330565b1480610b7557506003610b6260c0860160a08701614b61565b6003811115610b7357610b73614330565b145b15610bae57610bae33610b8e606087016040880161479c565b610b05610b9b8587614c09565b60175f61064c60808c0160608d0161479c565b50505050565b6001600160a01b038416610bee5760405162461bcd60e51b81526020600482015260016024820152600d60fa1b60448201526064016105bf565b6001600160a01b038085165f9081526017602052604090205416610c385760405162461bcd60e51b81526020600482015260016024820152603560f81b60448201526064016105bf565b6001600160a01b0384165f90815260176020526040902054600160a81b900460ff1615610c8c5760405162461bcd60e51b8152602060048201526002602482015261032360f41b60448201526064016105bf565b5f826003811115610c9f57610c9f614330565b03610ced578061ffff165f108015610cbc575060078161ffff1611155b610ced5760405162461bcd60e51b81526020600482015260026024820152610c4d60f21b60448201526064016105bf565b6001826003811115610d0157610d01614330565b03610d4f578061ffff165f108015610d1e5750601c8161ffff1611155b610d4f5760405162461bcd60e51b8152602060048201526002602482015261313560f01b60448201526064016105bf565b6002826003811115610d6357610d63614330565b03610db1578061ffff165f108015610d805750605a8161ffff1611155b610db15760405162461bcd60e51b8152602060048201526002602482015261189b60f11b60448201526064016105bf565b6003826003811115610dc557610dc5614330565b03610e14578061ffff165f108015610de3575061016d8161ffff1611155b610e145760405162461bcd60e51b8152602060048201526002602482015261313760f01b60448201526064016105bf565b6001600160a01b0384165f90815260176020526040902060010154851015610e635760405162461bcd60e51b8152602060048201526002602482015261062760f31b60448201526064016105bf565b5f610e7086868585613a67565b9050610eb4815f015160125f866003811115610e8e57610e8e614330565b815260208082019290925260409081015f90812061ffff88168252909252902090613b6b565b50610eff6040518060800160405280835f015181526020018360c0015161ffff1681526020018360a001516003811115610ef057610ef0614330565b81526020015f90526001613709565b80515f9081526014602090815260409182902083518155908301516001820155908201516002820180546001600160a01b039283166001600160a01b031990911617905560608301516003808401805460808701511515600160a01b0274ffffffffffffffffffffffffffffffffffffffffff1990911693909416929092179290921780825560a085015185949390929160ff60a81b191690600160a81b908490811115610faf57610faf614330565b021790555060c091909101516003909101805461ffff909216600160b01b0261ffff60b01b19909216919091179055805164ffffffffff42169033907f93cda0785d40b289a535b99dc76d4c9cbb6d8146182861ac3ad40509398b18656110168880614c20565b61102360208b018b614c20565b6040516110339493929190614c92565b60405180910390a4805160608201516040515f92339290915f5160206150355f395f51905f52916110699142918d918890614bd8565b60405180910390a4505050505050565b611081613b76565b600355565b805161109190613619565b6110c15760405162461bcd60e51b81526020600482015260016024820152603360f81b60448201526064016105bf565b335f818152600d60209081526040808320855184529091529020805460ff1916600217905581516110f191613ba2565b336001600160a01b031681604001516001600160a01b0316825f01515f5160206150355f395f51905f52428560200151866060015160076040516111389493929190614bd8565b60405180910390a480515f9081526011602081815260408084203380865290835281852054865186529383528185208186529092528084209390935582840151845160608601519451939492936001600160a01b039092169290915f5160206150355f395f51905f52916111b29142918891600490614bd8565b60405180910390a460408281015160608401516001600160a01b03165f9081526017602052919091205461120b91906111f6908490600160a01b900460ff1661364b565b60608501516001600160a01b03169190613bd4565b5050565b611217613b76565b600455565b611224613b76565b6001600160a01b038316611236575f5ffd5b6001600160a01b038084165f9081526017602052604090205416156112815760405162461bcd60e51b81526020600482015260016024820152603160f81b60448201526064016105bf565b604080516080810182526001600160a01b0394851680825260ff93841660208084019182525f8486018181526060860198895293815260179091529390932091518254935191511515600160a81b0260ff60a81b1992909516600160a01b0274ffffffffffffffffffffffffffffffffffffffffff1990941696169590951791909117939093161782555160019190910155565b8151335f908152600c6020526040812090916113319190613c05565b1561133a575060015b8061136b5760405162461bcd60e51b81526020600482015260016024820152600760fb1b60448201526064016105bf565b82515f90815260136020526040812061138490846136bd565b156113bb57506001600160a01b0382165f908152600d60209081526040808320865184529091529020805460ff1916600217905560015b806113ec5760405162461bcd60e51b81526020600482015260016024820152603960f81b60448201526064016105bf565b83516113f89084613ba2565b826001600160a01b031684604001516001600160a01b0316855f01515f5160206150355f395f51905f524288602001518960600151600760405161143f9493929190614bd8565b60405180910390a483515f9081526011602081815260408084206001600160a01b03808916808752918452828620548a5187529484528286208287529093528185209490945580880151885160608a015192519495949190931692915f5160206150355f395f51905f52916114bb914291889190600990614bd8565b60405180910390a460608501516001600160a01b03165f9081526017602052604090205461150f9085906114fa908490600160a01b900460ff1661364b565b60608801516001600160a01b03169190613bd4565b5050505050565b6115208135613619565b6115505760405162461bcd60e51b81526020600482015260016024820152603360f81b60448201526064016105bf565b611560606082016040830161479c565b6001600160a01b0316336001600160a01b0316146115a55760405162461bcd60e51b8152602060048201526002602482015261313360f01b60448201526064016105bf565b335f908152600e60209081526040808320843584528252808320805460ff1916600117905560139091528120905b82355f9081526013602052604090206115eb90613c1c565b811015611724575f6115fd8383613c25565b84355f9081526011602090815260408083206001600160a01b0385168085529252918290205492935090611637906060880190880161479c565b6001600160a01b031686355f5160206150355f395f51905f52428561166260808c0160608d0161479c565b60096040516116749493929190614bd8565b60405180910390a484355f9081526011602090815260408083206001600160a01b038616845290915281208190556116e19083906116c190849060179061064c60808c0160608d0161479c565b6116d16080890160608a0161479c565b6001600160a01b03169190613bd4565b6001600160a01b0382165f908152600d6020908152604080832088358085529252909120805460ff1916600117905561171a9083613ba2565b50506001016115d3565b5081355f818152601460205260408120600301805460ff60a01b1916600160a01b1790559033905f5160206150355f395f51905f52428461176b6080890160608a0161479c565b600160405161177d9493929190614bd8565b60405180910390a45050565b611791613b76565b61179a5f613c30565b565b60ff5f5c16156117d35760405162461bcd60e51b8152602060048201526002602482015261313960f01b60448201526064016105bf565b60015f805c60ff19168217905d505f6117eb42613c49565b600a5490915064ffffffffff610100909104811690821610156118345760405162461bcd60e51b81526020600482015260016024820152601b60f91b60448201526064016105bf565b6040805160c0810182525f80825260208201819052918101829052606081018290526080810182905260a0810191909152600190600a5464ffffffffff84811661010090920416146118b357600a546118ac906118a090610100900464ffffffffff1662015180614cc3565b64ffffffffff16613c57565b90506118bf565b6118bc42613c57565b90505b5f5f5b600381116124275760095460ff1615806118eb575060085481108015906118eb575060095460ff165b15612415575f816118fd575060208301515b60018203611909575082515b60028203611918575060408301515b60038203611927575060608301515b5f82815260126020908152604080832061ffff85168452909152812061194c90613c1c565b90505f5b818110156124115760095460ff16158061197957506007548110801590611979575060095460ff165b15612409575f84815260126020908152604080832061ffff87168452909152812060149082906119a99085613c25565b815260208082019290925260409081015f20815160e0810183528154815260018201549381019390935260028101546001600160a01b0390811692840192909252600380820154928316606085015260ff600160a01b8404811615156080860152919260a0850192600160a81b9091041690811115611a2a57611a2a614330565b6003811115611a3b57611a3b614330565b815260039190910154600160b01b900461ffff1660209091015260808101515f9950909150158015611a90575060608101516001600160a01b03165f90815260176020526040902054600160a81b900460ff16155b15612407576040805160a08101825282518152606080840180516001600160a01b03908116602080860191909152868601518216858701529151165f9081526017825293842054600160a01b900460ff1691830182905260808301899052840151919291611afd9161364b565b90505f8161271060025484611b129190614c09565b611b1c9190614ba2565b611b269190614ce3565b83515f908152601360205260408120919250908190611b4490613c1c565b90505f8115611b5b57611b58600183614ce3565b90505b5f5b828110156123ff576004548d03611cd4576040805160a0810182528851808252602082018490529181018b9052606081018e905260016080909101819052600591909155600682905560078a905560088d90556009805460ff199081169092179055600a805490911690819055600160d01b900460ff1615611c4c575f8461271060035487611bec9190614c09565b611bf69190614ba2565b611c009190614ce3565b9050611c0c8186614ce3565b9450611c4a600a60069054906101000a90046001600160a01b0316611c35838b6060015161364b565b60208b01516001600160a01b03169190613bd4565b505b611c7333611c5e868a6060015161364b565b60208a01516001600160a01b03169190613bd4565b600a546040515f81523391610100900464ffffffffff9081169142909116907f90192d7875364a53e351ae63fd2dfef8dc941735b29fb0c504d06a0e21ae602e9060200160405180910390a450505050505050505050505050505050612506565b6005548751148015611ce7575060065481145b15611cfa57600a805460ff191660011790555b60095460ff161580611d135750600a5460ff1615156001145b156123f75786515f908152601360205260408120611d319083613c25565b88515f908152601560205260409020909150611d4d90826136bd565b15611d5857506123f7565b6020880151604051636eb1769f60e11b81526001600160a01b0383811660048301523060248301528992169063dd62ed3e90604401602060405180830381865afa158015611da8573d5f5f3e3d5ffd5b505050506040513d601f19601f82011682018060405250810190611dcc9190614b31565b10158015611e46575060208801516040516370a0823160e01b81526001600160a01b038381166004830152899216906370a0823190602401602060405180830381865afa158015611e1f573d5f5f3e3d5ffd5b505050506040513d601f19601f82011682018060405250810190611e439190614b31565b10155b1561215a578d611e5581614cf6565b89515f9081526011602090815260408083206001600160a01b0387168452909152902054909f508710159050611feb57611e8f8686614bb5565b88515f9081526011602090815260408083206001600160a01b0386168452909152812080549297508892909190611ec7908490614ce3565b92505081905550806001600160a01b031688604001516001600160a01b0316895f01515f5160206150355f395f51905f52428b8d602001516005604051611f119493929190614bd8565b60405180910390a4806001600160a01b031688604001516001600160a01b0316895f01515f5160206150355f395f51905f52425f8d602001516002604051611f5c9493929190614bd8565b60405180910390a4600a54885160808a015160408051868152602081018f90529081019190915261010090920464ffffffffff16917f0c0097fff4bc1b26a833fef6928d7dec93a2ed4a665c3588c6a3270e0e7e38749060600160405180910390a3611fe6818960400151898b602001516001600160a01b03166139eb909392919063ffffffff16565b612360565b87515f9081526011602090815260408083206001600160a01b03851684529091529020546120199086614bb5565b88515f9081526011602090815260408083206001600160a01b0380871680865291845282852094909455818d01518d51938e01519251959a5090949316925f5160206150355f395f51905f52916120769142918e91600890614bd8565b60405180910390a486600160028f90036120a057612095600383614ba2565b9150600290506120ba565b8e6003036120ba576120b3600c83614ba2565b9150600b90505b89515f9081526011602090815260408083206001600160a01b0387168452909152812080548492906120ed908490614bb5565b9250508190555061211d8330612107858e6060015161364b565b60208e01516001600160a01b03169291906139eb565b8e6002148061212c57508e6003145b1561215357612153838b6040015161210784866121499190614c09565b8e6060015161364b565b5050612360565b8d61216481614cf6565b89515f9081526011602090815260408083206001600160a01b0387168452909152902054909f5087101590506122635761219e8686614bb5565b88515f9081526011602090815260408083206001600160a01b0386168452909152812054919650906121d1908890614ce3565b89515f9081526011602090815260408083206001600160a01b0380881680865291845282852094909455818e01518e51938f0151925195965090949316925f5160206150355f395f51905f529161222e9142918891600490614bd8565b60405180910390a4612261896040015161224c838c6060015161364b565b60208c01516001600160a01b03169190613bd4565b505b875161226f9082613ba2565b806001600160a01b031688604001516001600160a01b0316895f01515f5160206150355f395f51905f52428b8d6020015160076040516122b29493929190614bd8565b60405180910390a4806001600160a01b031688604001516001600160a01b0316895f01515f5160206150355f395f51905f52425f8d6020015160036040516122fd9493929190614bd8565b60405180910390a4600a54885160808a015160408051868152602081018f90529081019190915261010090920464ffffffffff16917f0c0097fff4bc1b26a833fef6928d7dec93a2ed4a665c3588c6a3270e0e7e38749060600160405180910390a35b828214801561236e57505f84115b156123f557600a54600160d01b900460ff16156123e3575f85612710600354886123989190614c09565b6123a29190614ba2565b6123ac9190614ce3565b90506123b88187614ce3565b95506123e1600a60069054906101000a90046001600160a01b031661224c838c6060015161364b565b505b6123f533611c35878b6060015161364b565b505b600101611b5d565b505050505050505b505b600101611950565b5050505b8061241f81614cf6565b9150506118c2565b505f6005819055600681905560078190556008556009805460ff19908116909155600a805490911690819055604051600181523391610100900464ffffffffff9081169142909116907f90192d7875364a53e351ae63fd2dfef8dc941735b29fb0c504d06a0e21ae602e9060200160405180910390a46001600a60018282829054906101000a900464ffffffffff166124c09190614d0e565b92506101000a81548164ffffffffff021916908364ffffffffff1602179055508215612501575f60ff19815c16815d506124f861179c565b50505050612506565b505050505b5f60ff19815c16815d50565b60015433906001600160a01b0316811461254a5760405163118cdaa760e01b81526001600160a01b03821660048201526024016105bf565b61255381613c30565b50565b61255e613b76565b600a805464ffffffffff9092166101000265ffffffffff0019909216919091179055565b5f8181526013602052604081206060919061259c90613c1c565b90505f8167ffffffffffffffff8111156125b8576125b8614480565b6040519080825280602002602001820160405280156125fc57816020015b604080518082019091525f80825260208201528152602001906001900390816125d65790505b5090505f5b828110156126b9575f85815260116020908152604080832060139092528220829061262c9085613c25565b6001600160a01b03166001600160a01b031681526020019081526020015f205490505f604051806040016040528061267d8560135f8c81526020019081526020015f20613c2590919063ffffffff16565b6001600160a01b03168152602001838152509050808484815181106126a4576126a4614d2b565b60209081029190910101525050600101612601565b509392505050565b6126c9613b76565b8060056126d68282614d3f565b505050565b606080831561270b576001600160a01b0383165f908152600b6020526040902061270490613ee6565b905061272e565b6001600160a01b0383165f908152600c6020526040902061272b90613ee6565b90505b5f815167ffffffffffffffff81111561274957612749614480565b6040519080825280602002602001820160405280156127c557816020015b60408051610140810182525f606082018181526080830182905260a0830182905260c0830182905260e0830182905261010083018290526101208301829052825260208083018290529282015282525f199092019101816127675790505b5090505f5b8251811015612a57578515612873576001600160a01b0385165f908152600d60205260408120845190919085908490811061280757612807614d2b565b602002602001015181526020019081526020015f205f9054906101000a900460ff1682828151811061283b5761283b614d2b565b602002602001015160200190600281111561285857612858614330565b9081600281111561286b5761286b614330565b905250612909565b6001600160a01b0385165f908152600e6020526040812084519091908590849081106128a1576128a1614d2b565b602002602001015181526020019081526020015f205f9054906101000a900460ff168282815181106128d5576128d5614d2b565b60200260200101516020019060028111156128f2576128f2614330565b9081600281111561290557612905614330565b9052505b60145f84838151811061291e5761291e614d2b565b60209081029190910181015182528181019290925260409081015f20815160e0810183528154815260018201549381019390935260028101546001600160a01b0390811692840192909252600380820154928316606085015260ff600160a01b8404811615156080860152919260a0850192600160a81b90910416908111156129a9576129a9614330565b60038111156129ba576129ba614330565b815260039190910154600160b01b900461ffff1660209091015282518390839081106129e8576129e8614d2b565b60200260200101515f0181905250612a2e60135f848481518110612a0e57612a0e614d2b565b60200260200101515f01515f015181526020019081526020015f20613c1c565b828281518110612a4057612a40614d2b565b6020908102919091010151604001526001016127ca565b509150505b92915050565b612a6a613b76565b600255565b612a77613b76565b600a8054911515600160d01b0260ff60d01b19909216919091179055565b612a9d613b76565b6001600160a01b038116612aaf575f5ffd5b600a546001600160a01b036601000000000000909104811690821603612ad3575f5ffd5b600a80546001600160a01b039092166601000000000000027fffffffffffff0000000000000000000000000000000000000000ffffffffffff909216919091179055565b5f612b22600f613c1c565b905090565b335f908152600c60205260409020612b3f9082613c05565b1561120b5764ffffffffff421633827f93cda0785d40b289a535b99dc76d4c9cbb6d8146182861ac3ad40509398b1865612b798680614c20565b612b866020890189614c20565b60405161177d9493929190614c92565b612b9e613b76565b6001600160a01b038281165f9081526017602052604090205416612bc0575f5ffd5b80612c13576001600160a01b0382165f90815260176020526040902054600160a81b900460ff16612bef575f5ffd5b506001600160a01b03165f908152601760205260409020805460ff60a81b19169055565b6001600160a01b0382165f908152601760205260409020805460ff60a81b1916600160a81b1790555050565b60605f612c4b42613c49565b600a5490915064ffffffffff610100909104811690821611612c935760405162461bcd60e51b81526020600482015260016024820152601b60f91b60448201526064016105bf565b5f612c9d42613c57565b90505f5f5f60045467ffffffffffffffff811115612cbd57612cbd614480565b604051908082528060200260200182016040528015612d0157816020015b604080518082019091525f8082526020820152815260200190600190039081612cdb5790505b5090505f5b60038111612f91575f81612d1b575060208501515b60018203612d27575084515b60028203612d36575060408501515b60038203612d45575060608501515b5f5b5f83815260126020908152604080832061ffff861684529091529020612d6c90613c1c565b811015612f7c575f83815260126020908152604080832061ffff8616845290915281206014908290612d9e9085613c25565b815260208082019290925260409081015f20815160e0810183528154815260018201549381019390935260028101546001600160a01b0390811692840192909252600380820154928316606085015260ff600160a01b8404811615156080860152919260a0850192600160a81b9091041690811115612e1f57612e1f614330565b6003811115612e3057612e30614330565b815260039190910154600160b01b900461ffff166020909101526080810151909150612f73576060810151602080830151604080518082019091525f80825292810192909252905f8261271060025485612e8a9190614c09565b612e949190614ba2565b612e9e9190614ce3565b90505f5f5b86515f908152601360205260409020612ebb90613c1c565b811015612f6c576004548d03612edf5750989e9d5050505050505050505050505050565b60095460ff161580612ef85750600a5460ff1615156001145b15612f64578c612f0781614cf6565b9d50612f1590508383614bb5565b91506040518060400160405280838152602001876001600160a01b03168152509350838b8d81518110612f4a57612f4a614d2b565b60200260200101819052508b80612f6090614cf6565b9c50505b600101612ea3565b5050505050505b50600101612d47565b50508080612f8990614cf6565b915050612d06565b505f5f5b8251811015612fe4575f6001600160a01b0316838281518110612fba57612fba614d2b565b6020026020010151602001516001600160a01b031603612fdc57809150612fe4565b600101612f95565b505f8167ffffffffffffffff811115612fff57612fff614480565b60405190808252806020026020018201604052801561304357816020015b604080518082019091525f808252602082015281526020019060019003908161301d5790505b5090505f5b8281101561308f5783818151811061306257613062614d2b565b602002602001015182828151811061307c5761307c614d2b565b6020908102919091010152600101613048565b50979650505050505050565b80516040516130aa9190614d89565b60405180910390204264ffffffffff16336001600160a01b03167f34f43abf7a52b609b04511ed963a29ebb76ae3e0ca0ff5594be1c2a84ebd03f284602001518560400151866060015187608001518860a0015160405161310f959493929190614dcd565b60405180910390a450565b613122613b76565b600180546001600160a01b0383166001600160a01b031990911681179091556131525f546001600160a01b031690565b6001600160a01b03167f38d16b8cac22d99fc7c124b9cd0de2d3fa1faef420bfe791d8c362d765e2270060405160405180910390a350565b6131b660405180606001604052805f6001600160a01b0316815260200160608152602001606081525090565b6001600160a01b0382165f908152600b602052604081206131d690613c1c565b6001600160a01b0384165f908152600c60205260408120919250906131fa90613c1c565b90505f8267ffffffffffffffff81111561321657613216614480565b60405190808252806020026020018201604052801561326f57816020015b61325c604080516080810182525f80825260208201819052909182019081526020015f905290565b8152602001906001900390816132345790505b5090505f5b838110156133f4576001600160a01b0386165f908152600b6020526040812061329d9083613c25565b5f818152601460209081526040808320815160e0810183528154815260018201549381019390935260028101546001600160a01b0390811692840192909252600380820154928316606085015260ff600160a01b840481161515608086015295965093949293909260a0850192600160a81b9004169081111561332257613322614330565b600381111561333357613333614330565b81526020016003820160169054906101000a900461ffff1661ffff1661ffff1681525050905060405180608001604052808381526020018260c0015161ffff1681526020018260a00151600381111561338e5761338e614330565b81526001600160a01b038a165f908152600d6020908152604080832087845282529091205491019060ff1660028111156133ca576133ca614330565b8152508484815181106133df576133df614d2b565b60209081029190910101525050600101613274565b505f8367ffffffffffffffff81111561340f5761340f614480565b60405190808252806020026020018201604052801561346857816020015b613455604080516080810182525f80825260208201819052909182019081526020015f905290565b81526020019060019003908161342d5790505b5090505f5b838110156135ed576001600160a01b0387165f908152600c602052604081206134969083613c25565b5f818152601460209081526040808320815160e0810183528154815260018201549381019390935260028101546001600160a01b0390811692840192909252600380820154928316606085015260ff600160a01b840481161515608086015295965093949293909260a0850192600160a81b9004169081111561351b5761351b614330565b600381111561352c5761352c614330565b81526020016003820160169054906101000a900461ffff1661ffff1661ffff1681525050905060405180608001604052808381526020018260c0015161ffff1681526020018260a00151600381111561358757613587614330565b81526001600160a01b038b165f908152600e6020908152604080832087845282529091205491019060ff1660028111156135c3576135c3614330565b8152508484815181106135d8576135d8614d2b565b6020908102919091010152505060010161346d565b50604080516060810182526001600160a01b039097168752602087019290925290850152509192915050565b5f818152601460205260408120600201546001600160a01b031661363e57505f919050565b506001919050565b919050565b5f601260ff8316811015613680576136638184614e39565b61366e90600a614f35565b6136789085614c09565b915050612a5c565b8060ff168360ff1610156136ad576136988382614e39565b6136a390600a614f35565b6136789085614ba2565b83915050612a5c565b5092915050565b6001600160a01b0381165f90815260018301602052604081205415155b9392505050565b5f6136da836001600160a01b038416613ef2565b5f6136da836001600160a01b038416613f3e565b613714600f336136bd565b61372557613723600f336136e1565b505b8015613769578151335f908152600c6020526040902061374491613b6b565b5050335f908152600e602090815260408083209351835292905220805460ff19169055565b8151335f908152600b6020526040902061378291613b6b565b5050335f908152600d602090815260408083209351835292905220805460ff19169055565b5f5f6137b286613c57565b90505f5f5f8560ff165f036137d557836020015161ffff1692506007915061385c565b8560ff1660010361380c576137fa846080015161ffff168560a0015161ffff16614021565b845161ffff169350915081905061385c565b8560ff1660020361384057613831846060015161ffff16856080015161ffff166140a6565b61ffff169250605a915061385c565b8560ff1660030361385c57836060015161ffff16925061016d91505b8560ff16600103613916575f61016d61387689600c614c09565b6138809190614ba2565b9050838964ffffffffff161415801561389f57508864ffffffffff1684115b156138d0576138b564ffffffffff8a1685614ce3565b6138bf9084614ce3565b6138c99082614c09565b9750613910565b838964ffffffffff16141580156138ed57508864ffffffffff1684105b15613910576139038464ffffffffff8b16614ce3565b61390d9082614c09565b97505b506139de565b60ff8616158061392957508560ff166002145b8061393757508560ff166003145b156139de57828864ffffffffff161415801561395957508764ffffffffff1683115b156139945761396f64ffffffffff891684614ce3565b6139799083614ce3565b6139838389614ba2565b61398d9190614c09565b96506139de565b828864ffffffffff16141580156139b157508764ffffffffff1683105b156139de576139c78364ffffffffff8a16614ce3565b6139d18389614ba2565b6139db9190614c09565b96505b5094979650505050505050565b6040516001600160a01b038481166024830152838116604483015260648201839052610bae9186918216906323b872dd906084015b604051602081830303815290604052915060e01b6020820180517bffffffffffffffffffffffffffffffffffffffffffffffffffffffff8381831617835250505050614170565b6040805160e0810182525f8082526020808301829052828401829052606083018290526080830182905260a0830182905260c083018290523382526016905291822080549192829190613ab983614cf6565b90915550506040516bffffffffffffffffffffffff193360601b166020820152603481018290524260548201525f906074016040516020818303038152906040528051906020012090506040518060e00160405280828152602001888152602001336001600160a01b03168152602001876001600160a01b031681526020015f15158152602001866003811115613b5257613b52614330565b81526020018561ffff1681525092505050949350505050565b5f6136da8383613ef2565b5f546001600160a01b0316331461179a5760405163118cdaa760e01b81523360048201526024016105bf565b5f828152601560205260409020613bb990826136bd565b61120b575f8281526015602052604090206126d690826136e1565b6040516001600160a01b038381166024830152604482018390526126d691859182169063a9059cbb90606401613a20565b5f81815260018301602052604081205415156136da565b5f612a5c825490565b5f6136da83836141dc565b600180546001600160a01b031916905561255381614202565b5f612a5c6201518083614f43565b6040805160c0810182525f80825260208201819052918101829052606081018290526080810182905260a0810182905290613c956201518084614ba2565b90505f808281613ca88262010bd9614f6c565b613cb59062253d8c614f6c565b90505f62023ab1613cc7836004614f93565b613cd19190614fc2565b90506004613ce28262023ab1614f93565b613ced906003614f6c565b613cf79190614fc2565b613d019083614fee565b91505f62164b09613d13846001614f6c565b613d1f90610fa0614f93565b613d299190614fc2565b90506004613d39826105b5614f93565b613d439190614fc2565b613d4d9084614fee565b613d5890601f614f6c565b92505f61098f613d69856050614f93565b613d739190614fc2565b90505f6050613d848361098f614f93565b613d8e9190614fc2565b613d989086614fee565b9050613da5600b83614fc2565b9450613db285600c614f93565b613dbd836002614f6c565b613dc79190614fee565b91508483613dd6603187614fee565b613de1906064614f93565b613deb9190614f6c565b613df59190614f6c565b9097509150868282825f60015b838111613e4e57838103613e2557613e1e61ffff8e1683614bb5565b9150613e3c565b613e2f8582614021565b613e399083614bb5565b91505b80613e4681614cf6565b915050613e02565b50809a50613e608b61ffff16856140a6565b61ffff1660408f0152613e728f614251565b8e6020019061ffff16908161ffff16815250508b8e5f019061ffff16908161ffff16815250508a8e6060019061ffff16908161ffff1681525050838e6080019061ffff16908161ffff1681525050828e60a0019061ffff16908161ffff168152505050505050505050505050505050919050565b60605f6136da83614285565b5f818152600183016020526040812054613f3757508154600181810184555f848152602080822090930184905584548482528286019093526040902091909155612a5c565b505f612a5c565b5f8181526001830160205260408120548015614018575f613f60600183614ce3565b85549091505f90613f7390600190614ce3565b9050808214613fd2575f865f018281548110613f9157613f91614d2b565b905f5260205f200154905080875f018481548110613fb157613fb1614d2b565b5f918252602080832090910192909255918252600188019052604090208390555b8554869080613fe357613fe361500d565b600190038181905f5260205f20015f90559055856001015f8681526020019081526020015f205f905560019350505050612a5c565b5f915050612a5c565b5f81600114806140315750816003145b8061403c5750816005145b806140475750816007145b806140525750816008145b8061405d575081600a145b80614068575081600c145b156140755750601f612a5c565b816002146140855750601e612a5c565b61408e836142de565b61409957601c61409c565b601d5b60ff169392505050565b5f5f6140b1836142de565b156140be575060016140c1565b505f5b6140cc81605a614bb5565b84116140da578391506136b6565b836140e682605a614bb5565b1080156140fd57506140f98160b5614bb5565b8411155b1561411e5761410d81605a614bb5565b6141179085614ce3565b91506136b6565b8361412a8260b5614bb5565b108015614142575061413e81610111614bb5565b8411155b156141525761410d8160b5614bb5565b61415e81610111614bb5565b6141689085614ce3565b949350505050565b5f5f60205f8451602086015f885af18061418f576040513d5f823e3d81fd5b50505f513d915081156141a65780600114156141b3565b6001600160a01b0384163b155b15610bae57604051635274afe760e01b81526001600160a01b03851660048201526024016105bf565b5f825f0182815481106141f1576141f1614d2b565b905f5260205f200154905092915050565b5f80546001600160a01b038381166001600160a01b0319831681178455604051919092169283917f8be0079c531659141344cd1fd0a4f28419497f9722a3daafe3b4186f6b6457e09190a35050565b5f806142606201518084614ba2565b90505f6007614270836003614bb5565b61427a9190615021565b614168906001614bb5565b6060815f018054806020026020016040519081016040528092919081815260200182805480156142d257602002820191905f5260205f20905b8154815260200190600101908083116142be575b50505050509050919050565b5f6142ea600483615021565b15801561430057506142fd606483615021565b15155b80612a5c575061431261019083615021565b1592915050565b5f60208284031215614329575f5ffd5b5035919050565b634e487b7160e01b5f52602160045260245ffd5b6004811061435457614354614330565b9052565b878152602081018790526001600160a01b03868116604083015285166060820152831515608082015260e0810161439260a0830185614344565b61ffff831660c083015298975050505050505050565b5f60e08284031280156143b9575f5ffd5b509092915050565b80356001600160a01b0381168114613646575f5ffd5b5f604082840312156143e7575f5ffd5b50919050565b803560048110613646575f5ffd5b803561ffff81168114613646575f5ffd5b5f5f5f5f5f60a08688031215614420575f5ffd5b85359450614430602087016143c1565b9350604086013567ffffffffffffffff81111561444b575f5ffd5b614457888289016143d7565b935050614466606087016143ed565b9150614474608087016143fb565b90509295509295909350565b634e487b7160e01b5f52604160045260245ffd5b60405160e0810167ffffffffffffffff811182821017156144b7576144b7614480565b60405290565b60405160c0810167ffffffffffffffff811182821017156144b7576144b7614480565b8015158114612553575f5ffd5b5f60e082840312156144fd575f5ffd5b614505614494565b82358152602080840135908201529050614521604083016143c1565b6040820152614532606083016143c1565b60608201526080820135614545816144e0565b608082015261455660a083016143ed565b60a082015261456760c083016143fb565b60c082015292915050565b5f60e08284031215614582575f5ffd5b6136da83836144ed565b5f5f5f6060848603121561459e575f5ffd5b6145a7846143c1565b925060208401359150604084013560ff811681146145c3575f5ffd5b809150509250925092565b5f5f61010083850312156145e0575f5ffd5b6145ea84846144ed565b91506145f860e084016143c1565b90509250929050565b5f60208284031215614611575f5ffd5b813564ffffffffff811681146136da575f5ffd5b602080825282518282018190525f918401906040840190835b8181101561467157835180516001600160a01b03168452602090810151818501529093019260409092019160010161463e565b509095945050505050565b5f60a08284031280156143b9575f5ffd5b5f5f6040838503121561469e575f5ffd5b82356146a9816144e0565b91506145f8602084016143c1565b6003811061435457614354614330565b602080825282518282018190525f918401906040840190835b81811015614671578351805180518552602081015160208601526001600160a01b0360408201511660408601526001600160a01b03606082015116606086015260808101511515608086015260a081015161473e60a0870182614344565b5061ffff60c08201511660c086015250602081015161476060e08601826146b7565b506040015161010084015260209390930192610120909201916001016146e0565b5f60208284031215614791575f5ffd5b81356136da816144e0565b5f602082840312156147ac575f5ffd5b6136da826143c1565b5f5f604083850312156147c6575f5ffd5b823567ffffffffffffffff8111156147dc575f5ffd5b6147e8858286016143d7565b95602094909401359450505050565b5f5f60408385031215614808575f5ffd5b614811836143c1565b91506020830135614821816144e0565b809150509250929050565b602080825282518282018190525f918401906040840190835b81811015614671578351805184526020908101516001600160a01b03168185015290930192604090920191600101614845565b5f5f60408385031215614889575f5ffd5b823591506145f8602084016143c1565b5f82601f8301126148a8575f5ffd5b813567ffffffffffffffff8111156148c2576148c2614480565b604051601f8201601f19908116603f0116810167ffffffffffffffff811182821017156148f1576148f1614480565b604052818152838201602001851015614908575f5ffd5b816020850160208301375f918101602001919091529392505050565b5f60208284031215614934575f5ffd5b813567ffffffffffffffff81111561494a575f5ffd5b820160c0818503121561495b575f5ffd5b6149636144bd565b813567ffffffffffffffff811115614979575f5ffd5b61498586828501614899565b825250602082013567ffffffffffffffff8111156149a1575f5ffd5b6149ad86828501614899565b602083015250604082013567ffffffffffffffff8111156149cc575f5ffd5b6149d886828501614899565b604083015250606082013567ffffffffffffffff8111156149f7575f5ffd5b614a0386828501614899565b606083015250608082013567ffffffffffffffff811115614a22575f5ffd5b614a2e86828501614899565b60808301525060a082013567ffffffffffffffff811115614a4d575f5ffd5b614a5986828501614899565b60a083015250949350505050565b5f8151808452602084019350602083015f5b82811015614ad35781518051875261ffff60208201511660208801526040810151614aa76040890182614344565b5060608101519050614abc60608801826146b7565b506080959095019460209190910190600101614a79565b5093949350505050565b602081526001600160a01b0382511660208201525f602083015160606040840152614b0b6080840182614a67565b90506040840151601f19848303016060850152614b288282614a67565b95945050505050565b5f60208284031215614b41575f5ffd5b5051919050565b5f60208284031215614b58575f5ffd5b6136da826143fb565b5f60208284031215614b71575f5ffd5b6136da826143ed565b634e487b7160e01b5f52601260045260245ffd5b634e487b7160e01b5f52601160045260245ffd5b5f82614bb057614bb0614b7a565b500490565b80820180821115612a5c57612a5c614b8e565b600a811061435457614354614330565b64ffffffffff85168152602081018490526001600160a01b038316604082015260808101614b286060830184614bc8565b8082028115828204841417612a5c57612a5c614b8e565b5f5f8335601e19843603018112614c35575f5ffd5b83018035915067ffffffffffffffff821115614c4f575f5ffd5b602001915036819003821315614c63575f5ffd5b9250929050565b81835281816020850137505f828201602090810191909152601f909101601f19169091010190565b604081525f614ca5604083018688614c6a565b8281036020840152614cb8818587614c6a565b979650505050505050565b64ffffffffff81811683821602908116908181146136b6576136b6614b8e565b81810381811115612a5c57612a5c614b8e565b5f60018201614d0757614d07614b8e565b5060010190565b64ffffffffff8181168382160190811115612a5c57612a5c614b8e565b634e487b7160e01b5f52603260045260245ffd5b81358155602082013560018201556040820135600282015560608201356003820155600481016080830135614d73816144e0565b815490151560ff1660ff19919091161790555050565b5f82518060208501845e5f920191825250919050565b5f81518084528060208401602086015e5f602082860101526020601f19601f83011685010191505092915050565b60a081525f614ddf60a0830188614d9f565b8281036020840152614df18188614d9f565b90508281036040840152614e058187614d9f565b90508281036060840152614e198186614d9f565b90508281036080840152614e2d8185614d9f565b98975050505050505050565b60ff8281168282160390811115612a5c57612a5c614b8e565b6001815b6001841115614e8d57808504811115614e7157614e71614b8e565b6001841615614e7f57908102905b60019390931c928002614e56565b935093915050565b5f82614ea357506001612a5c565b81614eaf57505f612a5c565b8160018114614ec55760028114614ecf57614eeb565b6001915050612a5c565b60ff841115614ee057614ee0614b8e565b50506001821b612a5c565b5060208310610133831016604e8410600b8410161715614f0e575081810a612a5c565b614f1a5f198484614e52565b805f1904821115614f2d57614f2d614b8e565b029392505050565b5f6136da60ff841683614e95565b5f64ffffffffff831680614f5957614f59614b7a565b8064ffffffffff84160491505092915050565b8082018281125f831280158216821582161715614f8b57614f8b614b8e565b505092915050565b8082025f8212600160ff1b84141615614fae57614fae614b8e565b8181058314821517612a5c57612a5c614b8e565b5f82614fd057614fd0614b7a565b600160ff1b82145f1984141615614fe957614fe9614b8e565b500590565b8181035f8312801583831316838312821617156136b6576136b6614b8e565b634e487b7160e01b5f52603160045260245ffd5b5f8261502f5761502f614b7a565b50069056feca6b824caf1a48ea2ad039dbb063460fa30e9c3cc255eeb52240d638ec6de65ea2646970667358221220a959a6f7d882d1d0891431342a66fb052dacf0b8f7b36fa3945ef58077ac208d64736f6c634300081c0033",
  "linkReferences": {},
  "deployedLinkReferences": {}
}