{
  "_format": "hh-sol-artifact-1",
  "contractName": "ClockTowerSubscribe",
  "sourceName": "contracts/ClockTowerSubscribe.sol",
  "abi": [
    {
      "inputs": [
        {
          "internalType": "uint256",
          "name": "callerFee_",
          "type": "uint256"
        },
        {
          "internalType": "uint256",
          "name": "systemFee_",
          "type": "uint256"
        },
        {
          "internalType": "uint256",
          "name": "maxRemits_",
          "type": "uint256"
        },
        {
          "internalType": "uint256",
          "name": "cancelLimit_",
          "type": "uint256"
        },
        {
          "internalType": "bool",
          "name": "allowSystemFee_",
          "type": "bool"
        },
        {
          "internalType": "address",
          "name": "admin_",
          "type": "address"
        }
      ],
      "stateMutability": "nonpayable",
      "type": "constructor"
    },
    {
      "inputs": [
        {
          "internalType": "address",
          "name": "owner",
          "type": "address"
        }
      ],
      "name": "OwnableInvalidOwner",
      "type": "error"
    },
    {
      "inputs": [
        {
          "internalType": "address",
          "name": "account",
          "type": "address"
        }
      ],
      "name": "OwnableUnauthorizedAccount",
      "type": "error"
    },
    {
      "inputs": [
        {
          "internalType": "address",
          "name": "token",
          "type": "address"
        }
      ],
      "name": "SafeERC20FailedOperation",
      "type": "error"
    },
    {
      "anonymous": false,
      "inputs": [
        {
          "indexed": true,
          "internalType": "uint40",
          "name": "timestamp",
          "type": "uint40"
        },
        {
          "indexed": true,
          "internalType": "uint40",
          "name": "checkedDay",
          "type": "uint40"
        },
        {
          "indexed": true,
          "internalType": "address",
          "name": "caller",
          "type": "address"
        },
        {
          "indexed": false,
          "internalType": "bool",
          "name": "isFinished",
          "type": "bool"
        }
      ],
      "name": "CallerLog",
      "type": "event"
    },
    {
      "anonymous": false,
      "inputs": [
        {
          "indexed": true,
          "internalType": "bytes32",
          "name": "id",
          "type": "bytes32"
        },
        {
          "indexed": false,
          "internalType": "uint256",
          "name": "subscriberIndex",
          "type": "uint256"
        },
        {
          "indexed": false,
          "internalType": "uint256",
          "name": "subscriptionIndex",
          "type": "uint256"
        },
        {
          "indexed": false,
          "internalType": "uint256",
          "name": "frequency",
          "type": "uint256"
        },
        {
          "indexed": true,
          "internalType": "uint40",
          "name": "nextUncheckedDay",
          "type": "uint40"
        }
      ],
      "name": "Coordinates",
      "type": "event"
    },
    {
      "anonymous": false,
      "inputs": [
        {
          "indexed": true,
          "internalType": "bytes32",
          "name": "id",
          "type": "bytes32"
        },
        {
          "indexed": true,
          "internalType": "address",
          "name": "provider",
          "type": "address"
        },
        {
          "indexed": true,
          "internalType": "uint40",
          "name": "timestamp",
          "type": "uint40"
        },
        {
          "indexed": false,
          "internalType": "string",
          "name": "url",
          "type": "string"
        },
        {
          "indexed": false,
          "internalType": "string",
          "name": "description",
          "type": "string"
        }
      ],
      "name": "DetailsLog",
      "type": "event"
    },
    {
      "anonymous": false,
      "inputs": [
        {
          "indexed": true,
          "internalType": "address",
          "name": "previousOwner",
          "type": "address"
        },
        {
          "indexed": true,
          "internalType": "address",
          "name": "newOwner",
          "type": "address"
        }
      ],
      "name": "OwnershipTransferStarted",
      "type": "event"
    },
    {
      "anonymous": false,
      "inputs": [
        {
          "indexed": true,
          "internalType": "address",
          "name": "previousOwner",
          "type": "address"
        },
        {
          "indexed": true,
          "internalType": "address",
          "name": "newOwner",
          "type": "address"
        }
      ],
      "name": "OwnershipTransferred",
      "type": "event"
    },
    {
      "anonymous": false,
      "inputs": [
        {
          "indexed": true,
          "internalType": "address",
          "name": "provider",
          "type": "address"
        },
        {
          "indexed": true,
          "internalType": "uint40",
          "name": "timestamp",
          "type": "uint40"
        },
        {
          "indexed": true,
          "internalType": "string",
          "name": "description",
          "type": "string"
        },
        {
          "indexed": false,
          "internalType": "string",
          "name": "company",
          "type": "string"
        },
        {
          "indexed": false,
          "internalType": "string",
          "name": "url",
          "type": "string"
        },
        {
          "indexed": false,
          "internalType": "string",
          "name": "domain",
          "type": "string"
        },
        {
          "indexed": false,
          "internalType": "string",
          "name": "email",
          "type": "string"
        },
        {
          "indexed": false,
          "internalType": "string",
          "name": "misc",
          "type": "string"
        }
      ],
      "name": "ProvDetailsLog",
      "type": "event"
    },
    {
      "anonymous": false,
      "inputs": [
        {
          "indexed": true,
          "internalType": "bytes32",
          "name": "id",
          "type": "bytes32"
        },
        {
          "indexed": true,
          "internalType": "address",
          "name": "provider",
          "type": "address"
        },
        {
          "indexed": true,
          "internalType": "address",
          "name": "subscriber",
          "type": "address"
        },
        {
          "indexed": false,
          "internalType": "uint40",
          "name": "timestamp",
          "type": "uint40"
        },
        {
          "indexed": false,
          "internalType": "uint256",
          "name": "amount",
          "type": "uint256"
        },
        {
          "indexed": false,
          "internalType": "address",
          "name": "token",
          "type": "address"
        },
        {
          "indexed": false,
          "internalType": "enum ClockTowerSubscribe.SubscriptEvent",
          "name": "subScriptEvent",
          "type": "uint8"
        }
      ],
      "name": "SubLog",
      "type": "event"
    },
    {
      "inputs": [],
      "name": "acceptOwnership",
      "outputs": [],
      "stateMutability": "nonpayable",
      "type": "function"
    },
    {
      "inputs": [
        {
          "internalType": "address",
          "name": "erc20Contract",
          "type": "address"
        },
        {
          "internalType": "uint256",
          "name": "minimum",
          "type": "uint256"
        },
        {
          "internalType": "uint8",
          "name": "decimals",
          "type": "uint8"
        }
      ],
      "name": "addERC20Contract",
      "outputs": [],
      "stateMutability": "nonpayable",
      "type": "function"
    },
    {
      "inputs": [
        {
          "internalType": "address",
          "name": "",
          "type": "address"
        }
      ],
      "name": "approvedERC20",
      "outputs": [
        {
          "internalType": "address",
          "name": "tokenAddress",
          "type": "address"
        },
        {
          "internalType": "uint8",
          "name": "decimals",
          "type": "uint8"
        },
        {
          "internalType": "bool",
          "name": "paused",
          "type": "bool"
        },
        {
          "internalType": "uint256",
          "name": "minimum",
          "type": "uint256"
        }
      ],
      "stateMutability": "view",
      "type": "function"
    },
    {
      "inputs": [
        {
          "components": [
            {
              "internalType": "bytes32",
              "name": "id",
              "type": "bytes32"
            },
            {
              "internalType": "uint256",
              "name": "amount",
              "type": "uint256"
            },
            {
              "internalType": "address",
              "name": "provider",
              "type": "address"
            },
            {
              "internalType": "address",
              "name": "token",
              "type": "address"
            },
            {
              "internalType": "bool",
              "name": "cancelled",
              "type": "bool"
            },
            {
              "internalType": "enum ClockTowerSubscribe.Frequency",
              "name": "frequency",
              "type": "uint8"
            },
            {
              "internalType": "uint16",
              "name": "dueDay",
              "type": "uint16"
            }
          ],
          "internalType": "struct ClockTowerSubscribe.Subscription",
          "name": "subscription",
          "type": "tuple"
        }
      ],
      "name": "batchUnsubscribeByProvider",
      "outputs": [],
      "stateMutability": "nonpayable",
      "type": "function"
    },
    {
      "inputs": [],
      "name": "callerFee",
      "outputs": [
        {
          "internalType": "uint256",
          "name": "",
          "type": "uint256"
        }
      ],
      "stateMutability": "view",
      "type": "function"
    },
    {
      "inputs": [],
      "name": "cancelLimit",
      "outputs": [
        {
          "internalType": "uint256",
          "name": "",
          "type": "uint256"
        }
      ],
      "stateMutability": "view",
      "type": "function"
    },
    {
      "inputs": [
        {
          "components": [
            {
              "internalType": "bytes32",
              "name": "id",
              "type": "bytes32"
            },
            {
              "internalType": "uint256",
              "name": "amount",
              "type": "uint256"
            },
            {
              "internalType": "address",
              "name": "provider",
              "type": "address"
            },
            {
              "internalType": "address",
              "name": "token",
              "type": "address"
            },
            {
              "internalType": "bool",
              "name": "cancelled",
              "type": "bool"
            },
            {
              "internalType": "enum ClockTowerSubscribe.Frequency",
              "name": "frequency",
              "type": "uint8"
            },
            {
              "internalType": "uint16",
              "name": "dueDay",
              "type": "uint16"
            }
          ],
          "internalType": "struct ClockTowerSubscribe.Subscription",
          "name": "subscription",
          "type": "tuple"
        }
      ],
      "name": "cancelSubscription",
      "outputs": [],
      "stateMutability": "nonpayable",
      "type": "function"
    },
    {
      "inputs": [
        {
          "internalType": "uint256",
          "name": "_fee",
          "type": "uint256"
        }
      ],
      "name": "changeCallerFee",
      "outputs": [],
      "stateMutability": "nonpayable",
      "type": "function"
    },
    {
      "inputs": [
        {
          "internalType": "uint256",
          "name": "_maxRemits",
          "type": "uint256"
        }
      ],
      "name": "changeMaxRemits",
      "outputs": [],
      "stateMutability": "nonpayable",
      "type": "function"
    },
    {
      "inputs": [
        {
          "internalType": "address",
          "name": "newSysFeeAddress",
          "type": "address"
        }
      ],
      "name": "changeSysFeeReceiver",
      "outputs": [],
      "stateMutability": "nonpayable",
      "type": "function"
    },
    {
      "inputs": [
        {
          "internalType": "uint256",
          "name": "_sys_fee",
          "type": "uint256"
        }
      ],
      "name": "changeSystemFee",
      "outputs": [],
      "stateMutability": "nonpayable",
      "type": "function"
    },
    {
      "inputs": [
        {
          "internalType": "uint256",
          "name": "amount",
          "type": "uint256"
        },
        {
          "internalType": "address",
          "name": "token",
          "type": "address"
        },
        {
          "components": [
            {
              "internalType": "string",
              "name": "url",
              "type": "string"
            },
            {
              "internalType": "string",
              "name": "description",
              "type": "string"
            }
          ],
          "internalType": "struct ClockTowerSubscribe.Details",
          "name": "details",
          "type": "tuple"
        },
        {
          "internalType": "enum ClockTowerSubscribe.Frequency",
          "name": "frequency",
          "type": "uint8"
        },
        {
          "internalType": "uint16",
          "name": "dueDay",
          "type": "uint16"
        }
      ],
      "name": "createSubscription",
      "outputs": [],
      "stateMutability": "nonpayable",
      "type": "function"
    },
    {
      "inputs": [
        {
          "components": [
            {
              "internalType": "string",
              "name": "url",
              "type": "string"
            },
            {
              "internalType": "string",
              "name": "description",
              "type": "string"
            }
          ],
          "internalType": "struct ClockTowerSubscribe.Details",
          "name": "details",
          "type": "tuple"
        },
        {
          "internalType": "bytes32",
          "name": "id",
          "type": "bytes32"
        }
      ],
      "name": "editDetails",
      "outputs": [],
      "stateMutability": "nonpayable",
      "type": "function"
    },
    {
      "inputs": [
        {
          "components": [
            {
              "internalType": "string",
              "name": "description",
              "type": "string"
            },
            {
              "internalType": "string",
              "name": "company",
              "type": "string"
            },
            {
              "internalType": "string",
              "name": "url",
              "type": "string"
            },
            {
              "internalType": "string",
              "name": "domain",
              "type": "string"
            },
            {
              "internalType": "string",
              "name": "email",
              "type": "string"
            },
            {
              "internalType": "string",
              "name": "misc",
              "type": "string"
            }
          ],
          "internalType": "struct ClockTowerSubscribe.ProviderDetails",
          "name": "details",
          "type": "tuple"
        }
      ],
      "name": "editProvDetails",
      "outputs": [],
      "stateMutability": "nonpayable",
      "type": "function"
    },
    {
      "inputs": [
        {
          "internalType": "bytes32",
          "name": "",
          "type": "bytes32"
        },
        {
          "internalType": "address",
          "name": "",
          "type": "address"
        }
      ],
      "name": "feeBalance",
      "outputs": [
        {
          "internalType": "uint256",
          "name": "",
          "type": "uint256"
        }
      ],
      "stateMutability": "view",
      "type": "function"
    },
    {
      "inputs": [],
      "name": "feeEstimate",
      "outputs": [
        {
          "components": [
            {
              "internalType": "uint256",
              "name": "fee",
              "type": "uint256"
            },
            {
              "internalType": "address",
              "name": "token",
              "type": "address"
            }
          ],
          "internalType": "struct ClockTowerSubscribe.FeeEstimate[]",
          "name": "",
          "type": "tuple[]"
        }
      ],
      "stateMutability": "view",
      "type": "function"
    },
    {
      "inputs": [
        {
          "internalType": "address",
          "name": "account",
          "type": "address"
        }
      ],
      "name": "getAccount",
      "outputs": [
        {
          "components": [
            {
              "internalType": "address",
              "name": "accountAddress",
              "type": "address"
            },
            {
              "components": [
                {
                  "internalType": "bytes32",
                  "name": "id",
                  "type": "bytes32"
                },
                {
                  "internalType": "uint16",
                  "name": "dueDay",
                  "type": "uint16"
                },
                {
                  "internalType": "enum ClockTowerSubscribe.Frequency",
                  "name": "frequency",
                  "type": "uint8"
                },
                {
                  "internalType": "enum ClockTowerSubscribe.Status",
                  "name": "status",
                  "type": "uint8"
                }
              ],
              "internalType": "struct ClockTowerSubscribe.SubIndex[]",
              "name": "subscriptions",
              "type": "tuple[]"
            },
            {
              "components": [
                {
                  "internalType": "bytes32",
                  "name": "id",
                  "type": "bytes32"
                },
                {
                  "internalType": "uint16",
                  "name": "dueDay",
                  "type": "uint16"
                },
                {
                  "internalType": "enum ClockTowerSubscribe.Frequency",
                  "name": "frequency",
                  "type": "uint8"
                },
                {
                  "internalType": "enum ClockTowerSubscribe.Status",
                  "name": "status",
                  "type": "uint8"
                }
              ],
              "internalType": "struct ClockTowerSubscribe.SubIndex[]",
              "name": "provSubs",
              "type": "tuple[]"
            }
          ],
          "internalType": "struct ClockTowerSubscribe.Account",
          "name": "",
          "type": "tuple"
        }
      ],
      "stateMutability": "view",
      "type": "function"
    },
    {
      "inputs": [
        {
          "internalType": "bool",
          "name": "bySubscriber",
          "type": "bool"
        },
        {
          "internalType": "address",
          "name": "account",
          "type": "address"
        }
      ],
      "name": "getAccountSubscriptions",
      "outputs": [
        {
          "components": [
            {
              "components": [
                {
                  "internalType": "bytes32",
                  "name": "id",
                  "type": "bytes32"
                },
                {
                  "internalType": "uint256",
                  "name": "amount",
                  "type": "uint256"
                },
                {
                  "internalType": "address",
                  "name": "provider",
                  "type": "address"
                },
                {
                  "internalType": "address",
                  "name": "token",
                  "type": "address"
                },
                {
                  "internalType": "bool",
                  "name": "cancelled",
                  "type": "bool"
                },
                {
                  "internalType": "enum ClockTowerSubscribe.Frequency",
                  "name": "frequency",
                  "type": "uint8"
                },
                {
                  "internalType": "uint16",
                  "name": "dueDay",
                  "type": "uint16"
                }
              ],
              "internalType": "struct ClockTowerSubscribe.Subscription",
              "name": "subscription",
              "type": "tuple"
            },
            {
              "internalType": "enum ClockTowerSubscribe.Status",
              "name": "status",
              "type": "uint8"
            },
            {
              "internalType": "uint256",
              "name": "totalSubscribers",
              "type": "uint256"
            }
          ],
          "internalType": "struct ClockTowerSubscribe.SubView[]",
          "name": "",
          "type": "tuple[]"
        }
      ],
      "stateMutability": "view",
      "type": "function"
    },
    {
      "inputs": [
        {
          "internalType": "bytes32",
          "name": "id",
          "type": "bytes32"
        }
      ],
      "name": "getSubscribersById",
      "outputs": [
        {
          "components": [
            {
              "internalType": "address",
              "name": "subscriber",
              "type": "address"
            },
            {
              "internalType": "uint256",
              "name": "feeBalance",
              "type": "uint256"
            }
          ],
          "internalType": "struct ClockTowerSubscribe.SubscriberView[]",
          "name": "",
          "type": "tuple[]"
        }
      ],
      "stateMutability": "view",
      "type": "function"
    },
    {
      "inputs": [],
      "name": "getTotalSubscribers",
      "outputs": [
        {
          "internalType": "uint256",
          "name": "",
          "type": "uint256"
        }
      ],
      "stateMutability": "view",
      "type": "function"
    },
    {
      "inputs": [
        {
          "internalType": "bytes32",
          "name": "",
          "type": "bytes32"
        }
      ],
      "name": "idSubMap",
      "outputs": [
        {
          "internalType": "bytes32",
          "name": "id",
          "type": "bytes32"
        },
        {
          "internalType": "uint256",
          "name": "amount",
          "type": "uint256"
        },
        {
          "internalType": "address",
          "name": "provider",
          "type": "address"
        },
        {
          "internalType": "address",
          "name": "token",
          "type": "address"
        },
        {
          "internalType": "bool",
          "name": "cancelled",
          "type": "bool"
        },
        {
          "internalType": "enum ClockTowerSubscribe.Frequency",
          "name": "frequency",
          "type": "uint8"
        },
        {
          "internalType": "uint16",
          "name": "dueDay",
          "type": "uint16"
        }
      ],
      "stateMutability": "view",
      "type": "function"
    },
    {
      "inputs": [],
      "name": "maxRemits",
      "outputs": [
        {
          "internalType": "uint256",
          "name": "",
          "type": "uint256"
        }
      ],
      "stateMutability": "view",
      "type": "function"
    },
    {
      "inputs": [],
      "name": "nextUncheckedDay",
      "outputs": [
        {
          "internalType": "uint40",
          "name": "",
          "type": "uint40"
        }
      ],
      "stateMutability": "view",
      "type": "function"
    },
    {
      "inputs": [],
      "name": "owner",
      "outputs": [
        {
          "internalType": "address",
          "name": "",
          "type": "address"
        }
      ],
      "stateMutability": "view",
      "type": "function"
    },
    {
      "inputs": [
        {
          "internalType": "address",
          "name": "_tokenAddress",
          "type": "address"
        },
        {
          "internalType": "bool",
          "name": "pause",
          "type": "bool"
        }
      ],
      "name": "pauseToken",
      "outputs": [],
      "stateMutability": "nonpayable",
      "type": "function"
    },
    {
      "inputs": [],
      "name": "pendingOwner",
      "outputs": [
        {
          "internalType": "address",
          "name": "",
          "type": "address"
        }
      ],
      "stateMutability": "view",
      "type": "function"
    },
    {
      "inputs": [],
      "name": "remit",
      "outputs": [],
      "stateMutability": "nonpayable",
      "type": "function"
    },
    {
      "inputs": [],
      "name": "renounceOwnership",
      "outputs": [],
      "stateMutability": "nonpayable",
      "type": "function"
    },
    {
      "inputs": [
        {
          "internalType": "uint40",
          "name": "_nextUncheckedDay",
          "type": "uint40"
        }
      ],
      "name": "setNextUncheckedDay",
      "outputs": [],
      "stateMutability": "nonpayable",
      "type": "function"
    },
    {
      "inputs": [
        {
          "components": [
            {
              "internalType": "bytes32",
              "name": "id",
              "type": "bytes32"
            },
            {
              "internalType": "uint256",
              "name": "subscriberIndex",
              "type": "uint256"
            },
            {
              "internalType": "uint256",
              "name": "subscriptionIndex",
              "type": "uint256"
            },
            {
              "internalType": "uint256",
              "name": "frequency",
              "type": "uint256"
            },
            {
              "internalType": "bool",
              "name": "initialized",
              "type": "bool"
            }
          ],
          "internalType": "struct ClockTowerSubscribe.PageStart",
          "name": "_pageStart",
          "type": "tuple"
        }
      ],
      "name": "setPageStart",
      "outputs": [],
      "stateMutability": "nonpayable",
      "type": "function"
    },
    {
      "inputs": [
        {
          "components": [
            {
              "internalType": "bytes32",
              "name": "id",
              "type": "bytes32"
            },
            {
              "internalType": "uint256",
              "name": "amount",
              "type": "uint256"
            },
            {
              "internalType": "address",
              "name": "provider",
              "type": "address"
            },
            {
              "internalType": "address",
              "name": "token",
              "type": "address"
            },
            {
              "internalType": "bool",
              "name": "cancelled",
              "type": "bool"
            },
            {
              "internalType": "enum ClockTowerSubscribe.Frequency",
              "name": "frequency",
              "type": "uint8"
            },
            {
              "internalType": "uint16",
              "name": "dueDay",
              "type": "uint16"
            }
          ],
          "internalType": "struct ClockTowerSubscribe.Subscription",
          "name": "subscription",
          "type": "tuple"
        }
      ],
      "name": "subscribe",
      "outputs": [],
      "stateMutability": "nonpayable",
      "type": "function"
    },
    {
      "inputs": [],
      "name": "systemFee",
      "outputs": [
        {
          "internalType": "uint256",
          "name": "",
          "type": "uint256"
        }
      ],
      "stateMutability": "view",
      "type": "function"
    },
    {
      "inputs": [
        {
          "internalType": "bool",
          "name": "status",
          "type": "bool"
        }
      ],
      "name": "systemFeeActivate",
      "outputs": [],
      "stateMutability": "nonpayable",
      "type": "function"
    },
    {
      "inputs": [
        {
          "internalType": "address",
          "name": "newOwner",
          "type": "address"
        }
      ],
      "name": "transferOwnership",
      "outputs": [],
      "stateMutability": "nonpayable",
      "type": "function"
    },
    {
      "inputs": [
        {
          "components": [
            {
              "internalType": "bytes32",
              "name": "id",
              "type": "bytes32"
            },
            {
              "internalType": "uint256",
              "name": "amount",
              "type": "uint256"
            },
            {
              "internalType": "address",
              "name": "provider",
              "type": "address"
            },
            {
              "internalType": "address",
              "name": "token",
              "type": "address"
            },
            {
              "internalType": "bool",
              "name": "cancelled",
              "type": "bool"
            },
            {
              "internalType": "enum ClockTowerSubscribe.Frequency",
              "name": "frequency",
              "type": "uint8"
            },
            {
              "internalType": "uint16",
              "name": "dueDay",
              "type": "uint16"
            }
          ],
          "internalType": "struct ClockTowerSubscribe.Subscription",
          "name": "subscription",
          "type": "tuple"
        }
      ],
      "name": "unsubscribe",
      "outputs": [],
      "stateMutability": "nonpayable",
      "type": "function"
    },
    {
      "inputs": [
        {
          "components": [
            {
              "internalType": "bytes32",
              "name": "id",
              "type": "bytes32"
            },
            {
              "internalType": "uint256",
              "name": "amount",
              "type": "uint256"
            },
            {
              "internalType": "address",
              "name": "provider",
              "type": "address"
            },
            {
              "internalType": "address",
              "name": "token",
              "type": "address"
            },
            {
              "internalType": "bool",
              "name": "cancelled",
              "type": "bool"
            },
            {
              "internalType": "enum ClockTowerSubscribe.Frequency",
              "name": "frequency",
              "type": "uint8"
            },
            {
              "internalType": "uint16",
              "name": "dueDay",
              "type": "uint16"
            }
          ],
          "internalType": "struct ClockTowerSubscribe.Subscription",
          "name": "subscription",
          "type": "tuple"
        },
        {
          "internalType": "address",
          "name": "subscriber",
          "type": "address"
        }
      ],
      "name": "unsubscribeByProvider",
      "outputs": [],
      "stateMutability": "nonpayable",
      "type": "function"
    }
  ],
  "bytecode": "0x608060405234801561000f575f5ffd5b5060405161547d38038061547d83398101604081905261002e916101c2565b806001600160a01b03811661005c57604051631e4fbdf760e01b81525f600482015260240160405180910390fd5b61006581610143565b506001600160a01b038116610078575f5ffd5b612710861015801561008c5750612a518611155b610094575f5ffd5b61271085101580156100a85750614e1f8511155b6100b0575f5ffd5b6002868155600386905560058490556004859055600b805460ff60d01b1916600160d01b851515021790556100e44261015f565b6100ee919061022e565b600b80546001600160a01b03909316660100000000000002600160301b600160d01b031964ffffffffff939093166101000292909216610100600160d01b0319909316929092171790555061028c9350505050565b600180546001600160a01b031916905561015c81610173565b50565b5f61016d6201518083610257565b92915050565b5f80546001600160a01b038381166001600160a01b0319831681178455604051919092169283917f8be0079c531659141344cd1fd0a4f28419497f9722a3daafe3b4186f6b6457e09190a35050565b5f5f5f5f5f5f60c087890312156101d7575f5ffd5b86516020880151604089015160608a015160808b0151939950919750955093508015158114610204575f5ffd5b60a08801519092506001600160a01b0381168114610220575f5ffd5b809150509295509295509295565b64ffffffffff828116828216039081111561016d57634e487b7160e01b5f52601160045260245ffd5b5f64ffffffffff83168061027957634e487b7160e01b5f52601260045260245ffd5b8064ffffffffff84160491505092915050565b6151e4806102995f395ff3fe608060405234801561000f575f5ffd5b5060043610610212575f3560e01c80637ee1bfb91161011f578063d10f9e69116100a9578063e63d35be11610079578063e63d35be14610536578063ebec6eaa1461054b578063ed601d2814610575578063f2fde38b14610588578063fbcbc0f11461059b575f5ffd5b8063d10f9e69146104d3578063d57ade5a146104e6578063da854a96146104f9578063e30c397814610525575f5ffd5b80639889552e116100ef5780639889552e14610423578063ac2b4e6314610436578063b25ae32c14610449578063bd74388614610451578063cab1c965146104ca575f5ffd5b80637ee1bfb9146103b957806386525a00146103cc5780638da5cb5b146103ec5780638ef0ef1c14610410575f5ffd5b806334d441d0116101a0578063715018a611610170578063715018a61461036e5780637507ba391461037657806379ba50971461037e5780637b7c5f17146103865780637bbf5a6e14610399575f5ffd5b806334d441d01461032c5780634a1268b814610335578063598bff3514610348578063668c1e8a1461035b575f5ffd5b806312c99cf5116101e657806312c99cf5146102d357806316e8b850146102e65780631f17ee55146102fd57806325c227191461030657806327ea977314610319575f5ffd5b8062b7097714610216578063038c9c0e146102985780630b8590c7146102ad5780630bec99e8146102c0575b5f5ffd5b61027c610224366004614473565b60156020525f90815260409020805460018201546002830154600390930154919290916001600160a01b039182169181169060ff600160a01b8204811691600160a81b81049091169061ffff600160b01b9091041687565b60405161028f97969594939291906144b2565b60405180910390f35b6102ab6102a6366004614502565b6105bb565b005b6102ab6102bb366004614566565b610c69565b6102ab6102ce366004614473565b6110eb565b6102ab6102e13660046146cc565b6110f8565b6102ef60055481565b60405190815260200161028f565b6102ef60035481565b6102ab6103143660046146cc565b611281565b6102ab610327366004614473565b611360565b6102ef60025481565b6102ab6103433660046146e6565b61136d565b6102ab610356366004614728565b611466565b6102ab610369366004614502565b611653565b6102ab6118df565b6102ab6118f2565b6102ab612668565b6102ab61039436600461475b565b6126ac565b6103ac6103a7366004614473565b6126d8565b60405161028f919061477f565b6102ab6103c73660046147d6565b612817565b6103df6103da3660046147e7565b612831565b60405161028f9190614821565b5f546001600160a01b03165b6040516001600160a01b03909116815260200161028f565b6102ab61041e366004614473565b612bb8565b6102ab6104313660046148db565b612bc5565b6102ab6104443660046148f6565b612beb565b6102ef612c6d565b61049861045f3660046148f6565b60186020525f9081526040902080546001909101546001600160a01b0382169160ff600160a01b8204811692600160a81b909204169084565b604080516001600160a01b03909516855260ff909316602085015290151591830191909152606082015260800161028f565b6102ef60045481565b6102ab6104e136600461490f565b612c7d565b6102ab6104f4366004614951565b612cec565b600b5461050f90610100900464ffffffffff1681565b60405164ffffffffff909116815260200161028f565b6001546001600160a01b03166103f8565b61053e612d95565b60405161028f9190614986565b6102ef6105593660046149d2565b601260209081525f928352604080842090915290825290205481565b6102ab610583366004614a7e565b6131f1565b6102ab6105963660046148f6565b613270565b6105ae6105a93660046148f6565b6132e0565b60405161028f9190614c37565b6105c5813561376f565b6105fa5760405162461bcd60e51b81526020600482015260016024820152603360f81b60448201526064015b60405180910390fd5b60185f61060d60808401606085016148f6565b6001600160a01b0316815260208101919091526040015f2054600160a81b900460ff16156106625760405162461bcd60e51b8152602060048201526002602482015261032360f41b60448201526064016105f1565b5f6106a6602083013560188361067e60808701606088016148f6565b6001600160a01b0316815260208101919091526040015f2054600160a01b900460ff166137a1565b9050806106b960808401606085016148f6565b604051636eb1769f60e11b81523360048201523060248201526001600160a01b03919091169063dd62ed3e90604401602060405180830381865afa158015610703573d5f5f3e3d5ffd5b505050506040513d601f19601f820116820180604052508101906107279190614c8b565b101580156107ac57508061074160808401606085016148f6565b6040516370a0823160e01b81523360048201526001600160a01b0391909116906370a0823190602401602060405180830381865afa158015610785573d5f5f3e3d5ffd5b505050506040513d601f19601f820116820180604052508101906107a99190614c8b565b10155b6107dd5760405162461bcd60e51b8152602060048201526002602482015261031360f41b60448201526064016105f1565b6107ed60608301604084016148f6565b6001600160a01b031633036108285760405162461bcd60e51b81526020600482015260016024820152600360fc1b60448201526064016105f1565b81355f90815260146020526040902061084090613813565b5f036108ab576108a9823560135f61085e60c0870160a08801614ca2565b600381111561086f5761086f61448a565b81526020019081526020015f205f8560c00160208101906108909190614cbb565b61ffff16815260208101919091526040015f209061381c565b505b81355f9081526014602052604090206108c4903361382e565b6108e35781355f9081526014602052604090206108e1903361384f565b505b81355f9081526016602052604090206108fc903361382e565b1561091c5781355f90815260166020526040902061091a9033613863565b505b60408051608081019091528235815261097b906020810161094360e0860160c08701614cbb565b61ffff16815260200161095c60c0860160a08701614ca2565b600381111561096d5761096d61448a565b81526020015f90525f613877565b602082013560018061099360c0860160a08701614ca2565b60038111156109a4576109a461448a565b14806109cf57505f6109bc60c0860160a08701614ca2565b60038111156109cd576109cd61448a565b145b15610a1a57610a13426109e860e0870160c08801614cbb565b61ffff16846109fd60c0890160a08a01614ca2565b6003811115610a0e57610a0e61448a565b613915565b9150610abe565b6002610a2c60c0860160a08701614ca2565b6003811115610a3d57610a3d61448a565b03610a6e57610a56426109e860e0870160c08801614cbb565b9150610a63600383614cfc565b915060029050610abe565b6003610a8060c0860160a08701614ca2565b6003811115610a9157610a9161448a565b03610abe57610aaa426109e860e0870160c08801614cbb565b9150610ab7600c83614cfc565b9150600b90505b83355f90815260126020908152604080832033845290915281208054849290610ae8908490614d0f565b90915550339050610aff60608601604087016148f6565b6001600160a01b031685355f51602061518f5f395f51905f52426020890135610b2e60808b0160608c016148f6565b6006604051610b409493929190614d32565b60405180910390a433610b5960608601604087016148f6565b6001600160a01b031685355f51602061518f5f395f51905f524286610b8460808b0160608c016148f6565b6008604051610b969493929190614d32565b60405180910390a4610bdb3330610bba8560185f61067e60808c0160608d016148f6565b610bca6080890160608a016148f6565b6001600160a01b0316929190613b59565b6002610bed60c0860160a08701614ca2565b6003811115610bfe57610bfe61448a565b1480610c2a57506003610c1760c0860160a08701614ca2565b6003811115610c2857610c2861448a565b145b15610c6357610c6333610c4360608701604088016148f6565b610bba610c508587614d63565b60185f61067e60808c0160608d016148f6565b50505050565b6001600160a01b038416610ca35760405162461bcd60e51b81526020600482015260016024820152600d60fa1b60448201526064016105f1565b6001600160a01b038085165f9081526018602052604090205416610ced5760405162461bcd60e51b81526020600482015260016024820152603560f81b60448201526064016105f1565b6001600160a01b0384165f90815260186020526040902054600160a81b900460ff1615610d415760405162461bcd60e51b8152602060048201526002602482015261032360f41b60448201526064016105f1565b5f826003811115610d5457610d5461448a565b03610da2578061ffff165f108015610d71575060078161ffff1611155b610da25760405162461bcd60e51b81526020600482015260026024820152610c4d60f21b60448201526064016105f1565b6001826003811115610db657610db661448a565b03610e04578061ffff165f108015610dd35750601c8161ffff1611155b610e045760405162461bcd60e51b8152602060048201526002602482015261313560f01b60448201526064016105f1565b6002826003811115610e1857610e1861448a565b03610e66578061ffff165f108015610e355750605a8161ffff1611155b610e665760405162461bcd60e51b8152602060048201526002602482015261189b60f11b60448201526064016105f1565b6003826003811115610e7a57610e7a61448a565b03610ec9578061ffff165f108015610e98575061016d8161ffff1611155b610ec95760405162461bcd60e51b8152602060048201526002602482015261313760f01b60448201526064016105f1565b6001600160a01b0384165f90815260186020526040902060010154851015610f185760405162461bcd60e51b8152602060048201526002602482015261062760f31b60448201526064016105f1565b5f610f2586868585613bd5565b9050610f716040518060800160405280835f015181526020018360c0015161ffff1681526020018360a001516003811115610f6257610f6261448a565b81526020015f90526001613877565b80515f9081526015602090815260409182902083518155908301516001820155908201516002820180546001600160a01b039283166001600160a01b031990911617905560608301516003808401805460808701511515600160a01b0274ffffffffffffffffffffffffffffffffffffffffff1990911693909416929092179290921780825560a085015185949390929160ff60a81b191690600160a81b9084908111156110215761102161448a565b021790555060c091909101516003909101805461ffff909216600160b01b0261ffff60b01b19909216919091179055805164ffffffffff42169033907f93cda0785d40b289a535b99dc76d4c9cbb6d8146182861ac3ad40509398b18656110888880614d7a565b61109560208b018b614d7a565b6040516110a59493929190614dec565b60405180910390a4805160608201516040515f92339290915f51602061518f5f395f51905f52916110db9142918d918890614d32565b60405180910390a4505050505050565b6110f3613cd9565b600355565b80516111039061376f565b6111335760405162461bcd60e51b81526020600482015260016024820152603360f81b60448201526064016105f1565b335f818152600e60209081526040808320855184529091529020805460ff19166002179055815161116391613d05565b336001600160a01b031681604001516001600160a01b0316825f01515f51602061518f5f395f51905f52428560200151866060015160076040516111aa9493929190614d32565b60405180910390a480515f9081526012602081815260408084203380865290835281852054865186529383528185208186529092528084209390935582840151845160608601519451939492936001600160a01b039092169290915f51602061518f5f395f51905f52916112249142918891600490614d32565b60405180910390a460408281015160608401516001600160a01b03165f9081526018602052919091205461127d9190611268908490600160a01b900460ff166137a1565b60608501516001600160a01b03169190613d37565b5050565b8051335f908152600d6020526040902061129a91613d68565b6112ca5760405162461bcd60e51b81526020600482015260016024820152600760fb1b60448201526064016105f1565b80515f9081526016602052604081206112e290613813565b82515f9081526014602052604090206112fa90613813565b6113049190614e1d565b90505f8111611311575f5ffd5b5f600554821015611323575080611328565b506005545b5f5b81811015610c635783515f90815260146020526040812061134b9083613d7f565b90506113578582611466565b5060010161132a565b611368613cd9565b600455565b611375613cd9565b6001600160a01b038316611387575f5ffd5b6001600160a01b038084165f9081526018602052604090205416156113d25760405162461bcd60e51b81526020600482015260016024820152603160f81b60448201526064016105f1565b604080516080810182526001600160a01b0394851680825260ff93841660208084019182525f8486018181526060860198895293815260189091529390932091518254935191511515600160a81b0260ff60a81b1992909516600160a01b0274ffffffffffffffffffffffffffffffffffffffffff1990941696169590951791909117939093161782555160019190910155565b8151335f908152600d6020526040902061147f91613d68565b6114af5760405162461bcd60e51b81526020600482015260016024820152600760fb1b60448201526064016105f1565b81515f9081526014602052604081206114c8908361382e565b156114ff57506001600160a01b0381165f908152600e60209081526040808320855184529091529020805460ff1916600217905560015b806115305760405162461bcd60e51b81526020600482015260016024820152603960f81b60448201526064016105f1565b825161153c9083613d05565b816001600160a01b031683604001516001600160a01b0316845f01515f51602061518f5f395f51905f52428760200151886060015160076040516115839493929190614d32565b60405180910390a482515f9081526012602081815260408084206001600160a01b03808816808752918452828620548951875294845282862082875290935281852094909455808701518751606089015192519495949190931692915f51602061518f5f395f51905f52916115ff914291889190600990614d32565b60405180910390a460608401516001600160a01b03165f90815260186020526040902054610c6390849061163e908490600160a01b900460ff166137a1565b60608701516001600160a01b03169190613d37565b61165d813561376f565b61168d5760405162461bcd60e51b81526020600482015260016024820152603360f81b60448201526064016105f1565b61169d60608201604083016148f6565b6001600160a01b0316336001600160a01b0316146116e25760405162461bcd60e51b8152602060048201526002602482015261313360f01b60448201526064016105f1565b6116f260a08201608083016148db565b156116fb575f5ffd5b335f908152600f60209081526040808320843584528252808320805460ff1916600117905560149091528120905b82355f90815260146020526040902061174190613813565b81101561187a575f6117538383613d7f565b84355f9081526012602090815260408083206001600160a01b038516808552925291829020549293509061178d90606088019088016148f6565b6001600160a01b031686355f51602061518f5f395f51905f5242856117b860808c0160608d016148f6565b60096040516117ca9493929190614d32565b60405180910390a484355f9081526012602090815260408083206001600160a01b0386168452909152812081905561183790839061181790849060189061067e60808c0160608d016148f6565b6118276080890160608a016148f6565b6001600160a01b03169190613d37565b6001600160a01b0382165f908152600e6020908152604080832088358085529252909120805460ff191660011790556118709083613d05565b5050600101611729565b5081355f818152601560205260408120600301805460ff60a01b1916600160a01b1790559033905f51602061518f5f395f51905f5242846118c16080890160608a016148f6565b60016040516118d39493929190614d32565b60405180910390a45050565b6118e7613cd9565b6118f05f613d8a565b565b60ff5f5c16156119295760405162461bcd60e51b8152602060048201526002602482015261313960f01b60448201526064016105f1565b60015f805c60ff19168217905d505f61194142613da3565b600b5490915064ffffffffff6101009091048116908216101561198a5760405162461bcd60e51b81526020600482015260016024820152601b60f91b60448201526064016105f1565b6040805160c0810182525f80825260208201819052918101829052606081018290526080810182905260a0810191909152600190600b5464ffffffffff8481166101009092041614611a0957600b54611a02906119f690610100900464ffffffffff1662015180614e30565b64ffffffffff16613db1565b9050611a15565b611a1242613db1565b90505b5f5f5b6003811161257d57600a5460ff161580611a4157506009548110801590611a415750600a5460ff165b1561256b575f81611a53575060208301515b60018203611a5f575082515b60028203611a6e575060408301515b60038203611a7d575060608301515b5f82815260136020908152604080832061ffff851684529091528120611aa290613813565b90505f5b8181101561256757600a5460ff161580611acf57506008548110801590611acf5750600a5460ff165b1561255f575f84815260136020908152604080832061ffff8716845290915281206015908290611aff9085613d7f565b815260208082019290925260409081015f20815160e0810183528154815260018201549381019390935260028101546001600160a01b0390811692840192909252600380820154928316606085015260ff600160a01b8404811615156080860152919260a0850192600160a81b9091041690811115611b8057611b8061448a565b6003811115611b9157611b9161448a565b815260039190910154600160b01b900461ffff1660209091015260808101515f9950909150158015611be6575060608101516001600160a01b03165f90815260186020526040902054600160a81b900460ff16155b1561255d576040805160a08101825282518152606080840180516001600160a01b03908116602080860191909152868601518216858701529151165f9081526018825293842054600160a01b900460ff1691830182905260808301899052840151919291611c53916137a1565b90505f8161271060025484611c689190614d63565b611c729190614cfc565b611c7c9190614e1d565b83515f908152601460205260408120919250908190611c9a90613813565b90505f8115611cb157611cae600183614e1d565b90505b5f5b82811015612555576004548d03611e2a576040805160a0810182528851808252602082018490529181018b9052606081018e905260016080909101819052600691909155600782905560088a905560098d9055600a805460ff199081169092179055600b805490911690819055600160d01b900460ff1615611da2575f8461271060035487611d429190614d63565b611d4c9190614cfc565b611d569190614e1d565b9050611d628186614e1d565b9450611da0600b60069054906101000a90046001600160a01b0316611d8b838b606001516137a1565b60208b01516001600160a01b03169190613d37565b505b611dc933611db4868a606001516137a1565b60208a01516001600160a01b03169190613d37565b600b546040515f81523391610100900464ffffffffff9081169142909116907f90192d7875364a53e351ae63fd2dfef8dc941735b29fb0c504d06a0e21ae602e9060200160405180910390a45050505050505050505050505050505061265c565b6006548751148015611e3d575060075481145b15611e5057600b805460ff191660011790555b600a5460ff161580611e695750600b5460ff1615156001145b1561254d5786515f908152601460205260408120611e879083613d7f565b88515f908152601660205260409020909150611ea3908261382e565b15611eae575061254d565b6020880151604051636eb1769f60e11b81526001600160a01b0383811660048301523060248301528992169063dd62ed3e90604401602060405180830381865afa158015611efe573d5f5f3e3d5ffd5b505050506040513d601f19601f82011682018060405250810190611f229190614c8b565b10158015611f9c575060208801516040516370a0823160e01b81526001600160a01b038381166004830152899216906370a0823190602401602060405180830381865afa158015611f75573d5f5f3e3d5ffd5b505050506040513d601f19601f82011682018060405250810190611f999190614c8b565b10155b156122b0578d611fab81614e50565b89515f9081526012602090815260408083206001600160a01b0387168452909152902054909f50871015905061214157611fe58686614d0f565b88515f9081526012602090815260408083206001600160a01b038616845290915281208054929750889290919061201d908490614e1d565b92505081905550806001600160a01b031688604001516001600160a01b0316895f01515f51602061518f5f395f51905f52428b8d6020015160056040516120679493929190614d32565b60405180910390a4806001600160a01b031688604001516001600160a01b0316895f01515f51602061518f5f395f51905f52425f8d6020015160026040516120b29493929190614d32565b60405180910390a4600b54885160808a015160408051868152602081018f90529081019190915261010090920464ffffffffff16917f0c0097fff4bc1b26a833fef6928d7dec93a2ed4a665c3588c6a3270e0e7e38749060600160405180910390a361213c818960400151898b602001516001600160a01b0316613b59909392919063ffffffff16565b6124b6565b87515f9081526012602090815260408083206001600160a01b038516845290915290205461216f9086614d0f565b88515f9081526012602090815260408083206001600160a01b0380871680865291845282852094909455818d01518d51938e01519251959a5090949316925f51602061518f5f395f51905f52916121cc9142918e91600890614d32565b60405180910390a486600160028f90036121f6576121eb600383614cfc565b915060029050612210565b8e60030361221057612209600c83614cfc565b9150600b90505b89515f9081526012602090815260408083206001600160a01b038716845290915281208054849290612243908490614d0f565b92505081905550612273833061225d858e606001516137a1565b60208e01516001600160a01b0316929190613b59565b8e6002148061228257508e6003145b156122a9576122a9838b6040015161225d848661229f9190614d63565b8e606001516137a1565b50506124b6565b8d6122ba81614e50565b89515f9081526012602090815260408083206001600160a01b0387168452909152902054909f5087101590506123b9576122f48686614d0f565b88515f9081526012602090815260408083206001600160a01b038616845290915281205491965090612327908890614e1d565b89515f9081526012602090815260408083206001600160a01b0380881680865291845282852094909455818e01518e51938f0151925195965090949316925f51602061518f5f395f51905f52916123849142918891600490614d32565b60405180910390a46123b789604001516123a2838c606001516137a1565b60208c01516001600160a01b03169190613d37565b505b87516123c59082613d05565b806001600160a01b031688604001516001600160a01b0316895f01515f51602061518f5f395f51905f52428b8d6020015160076040516124089493929190614d32565b60405180910390a4806001600160a01b031688604001516001600160a01b0316895f01515f51602061518f5f395f51905f52425f8d6020015160036040516124539493929190614d32565b60405180910390a4600b54885160808a015160408051868152602081018f90529081019190915261010090920464ffffffffff16917f0c0097fff4bc1b26a833fef6928d7dec93a2ed4a665c3588c6a3270e0e7e38749060600160405180910390a35b82821480156124c457505f84115b1561254b57600b54600160d01b900460ff1615612539575f85612710600354886124ee9190614d63565b6124f89190614cfc565b6125029190614e1d565b905061250e8187614e1d565b9550612537600b60069054906101000a90046001600160a01b03166123a2838c606001516137a1565b505b61254b33611d8b878b606001516137a1565b505b600101611cb3565b505050505050505b505b600101611aa6565b5050505b8061257581614e50565b915050611a18565b505f600681905560078190556008819055600955600a805460ff19908116909155600b805490911690819055604051600181523391610100900464ffffffffff9081169142909116907f90192d7875364a53e351ae63fd2dfef8dc941735b29fb0c504d06a0e21ae602e9060200160405180910390a46001600b60018282829054906101000a900464ffffffffff166126169190614e68565b92506101000a81548164ffffffffff021916908364ffffffffff1602179055508215612657575f60ff19815c16815d5061264e6118f2565b5050505061265c565b505050505b5f60ff19815c16815d50565b60015433906001600160a01b031681146126a05760405163118cdaa760e01b81526001600160a01b03821660048201526024016105f1565b6126a981613d8a565b50565b6126b4613cd9565b600b805464ffffffffff9092166101000265ffffffffff0019909216919091179055565b5f818152601460205260408120606091906126f290613813565b90505f8167ffffffffffffffff81111561270e5761270e6145da565b60405190808252806020026020018201604052801561275257816020015b604080518082019091525f808252602082015281526020019060019003908161272c5790505b5090505f5b8281101561280f575f8581526012602090815260408083206014909252822082906127829085613d7f565b6001600160a01b03166001600160a01b031681526020019081526020015f205490505f60405180604001604052806127d38560145f8c81526020019081526020015f20613d7f90919063ffffffff16565b6001600160a01b03168152602001838152509050808484815181106127fa576127fa614e85565b60209081029190910101525050600101612757565b509392505050565b61281f613cd9565b80600661282c8282614e99565b505050565b6060808315612861576001600160a01b0383165f908152600c6020526040902061285a90614040565b9050612884565b6001600160a01b0383165f908152600d6020526040902061288190614040565b90505b5f815167ffffffffffffffff81111561289f5761289f6145da565b60405190808252806020026020018201604052801561291b57816020015b60408051610140810182525f606082018181526080830182905260a0830182905260c0830182905260e0830182905261010083018290526101208301829052825260208083018290529282015282525f199092019101816128bd5790505b5090505f5b8251811015612bad5785156129c9576001600160a01b0385165f908152600e60205260408120845190919085908490811061295d5761295d614e85565b602002602001015181526020019081526020015f205f9054906101000a900460ff1682828151811061299157612991614e85565b60200260200101516020019060028111156129ae576129ae61448a565b908160028111156129c1576129c161448a565b905250612a5f565b6001600160a01b0385165f908152600f6020526040812084519091908590849081106129f7576129f7614e85565b602002602001015181526020019081526020015f205f9054906101000a900460ff16828281518110612a2b57612a2b614e85565b6020026020010151602001906002811115612a4857612a4861448a565b90816002811115612a5b57612a5b61448a565b9052505b60155f848381518110612a7457612a74614e85565b60209081029190910181015182528181019290925260409081015f20815160e0810183528154815260018201549381019390935260028101546001600160a01b0390811692840192909252600380820154928316606085015260ff600160a01b8404811615156080860152919260a0850192600160a81b9091041690811115612aff57612aff61448a565b6003811115612b1057612b1061448a565b815260039190910154600160b01b900461ffff166020909101528251839083908110612b3e57612b3e614e85565b60200260200101515f0181905250612b8460145f848481518110612b6457612b64614e85565b60200260200101515f01515f015181526020019081526020015f20613813565b828281518110612b9657612b96614e85565b602090810291909101015160400152600101612920565b509150505b92915050565b612bc0613cd9565b600255565b612bcd613cd9565b600b8054911515600160d01b0260ff60d01b19909216919091179055565b612bf3613cd9565b6001600160a01b038116612c05575f5ffd5b600b546001600160a01b036601000000000000909104811690821603612c29575f5ffd5b600b80546001600160a01b039092166601000000000000027fffffffffffff0000000000000000000000000000000000000000ffffffffffff909216919091179055565b5f612c786010613813565b905090565b335f908152600d60205260409020612c959082613d68565b1561127d5764ffffffffff421633827f93cda0785d40b289a535b99dc76d4c9cbb6d8146182861ac3ad40509398b1865612ccf8680614d7a565b612cdc6020890189614d7a565b6040516118d39493929190614dec565b612cf4613cd9565b6001600160a01b038281165f9081526018602052604090205416612d16575f5ffd5b80612d69576001600160a01b0382165f90815260186020526040902054600160a81b900460ff16612d45575f5ffd5b506001600160a01b03165f908152601860205260409020805460ff60a81b19169055565b6001600160a01b0382165f908152601860205260409020805460ff60a81b1916600160a81b1790555050565b60605f612da142613da3565b600b5490915064ffffffffff610100909104811690821611612de95760405162461bcd60e51b81526020600482015260016024820152601b60f91b60448201526064016105f1565b5f612df342613db1565b90505f5f5f60045467ffffffffffffffff811115612e1357612e136145da565b604051908082528060200260200182016040528015612e5757816020015b604080518082019091525f8082526020820152815260200190600190039081612e315790505b5090505f5b600381116130e7575f81612e71575060208501515b60018203612e7d575084515b60028203612e8c575060408501515b60038203612e9b575060608501515b5f5b5f83815260136020908152604080832061ffff861684529091529020612ec290613813565b8110156130d2575f83815260136020908152604080832061ffff8616845290915281206015908290612ef49085613d7f565b815260208082019290925260409081015f20815160e0810183528154815260018201549381019390935260028101546001600160a01b0390811692840192909252600380820154928316606085015260ff600160a01b8404811615156080860152919260a0850192600160a81b9091041690811115612f7557612f7561448a565b6003811115612f8657612f8661448a565b815260039190910154600160b01b900461ffff1660209091015260808101519091506130c9576060810151602080830151604080518082019091525f80825292810192909252905f8261271060025485612fe09190614d63565b612fea9190614cfc565b612ff49190614e1d565b90505f5f5b86515f90815260146020526040902061301190613813565b8110156130c2576004548d036130355750989e9d5050505050505050505050505050565b600a5460ff16158061304e5750600b5460ff1615156001145b156130ba578c61305d81614e50565b9d5061306b90508383614d0f565b91506040518060400160405280838152602001876001600160a01b03168152509350838b8d815181106130a0576130a0614e85565b60200260200101819052508b806130b690614e50565b9c50505b600101612ff9565b5050505050505b50600101612e9d565b505080806130df90614e50565b915050612e5c565b505f5f5b825181101561313a575f6001600160a01b031683828151811061311057613110614e85565b6020026020010151602001516001600160a01b0316036131325780915061313a565b6001016130eb565b505f8167ffffffffffffffff811115613155576131556145da565b60405190808252806020026020018201604052801561319957816020015b604080518082019091525f80825260208201528152602001906001900390816131735790505b5090505f5b828110156131e5578381815181106131b8576131b8614e85565b60200260200101518282815181106131d2576131d2614e85565b602090810291909101015260010161319e565b50979650505050505050565b80516040516132009190614ee3565b60405180910390204264ffffffffff16336001600160a01b03167f34f43abf7a52b609b04511ed963a29ebb76ae3e0ca0ff5594be1c2a84ebd03f284602001518560400151866060015187608001518860a00151604051613265959493929190614f27565b60405180910390a450565b613278613cd9565b600180546001600160a01b0383166001600160a01b031990911681179091556132a85f546001600160a01b031690565b6001600160a01b03167f38d16b8cac22d99fc7c124b9cd0de2d3fa1faef420bfe791d8c362d765e2270060405160405180910390a350565b61330c60405180606001604052805f6001600160a01b0316815260200160608152602001606081525090565b6001600160a01b0382165f908152600c6020526040812061332c90613813565b6001600160a01b0384165f908152600d602052604081209192509061335090613813565b90505f8267ffffffffffffffff81111561336c5761336c6145da565b6040519080825280602002602001820160405280156133c557816020015b6133b2604080516080810182525f80825260208201819052909182019081526020015f905290565b81526020019060019003908161338a5790505b5090505f5b8381101561354a576001600160a01b0386165f908152600c602052604081206133f39083613d7f565b5f818152601560209081526040808320815160e0810183528154815260018201549381019390935260028101546001600160a01b0390811692840192909252600380820154928316606085015260ff600160a01b840481161515608086015295965093949293909260a0850192600160a81b900416908111156134785761347861448a565b60038111156134895761348961448a565b81526020016003820160169054906101000a900461ffff1661ffff1661ffff1681525050905060405180608001604052808381526020018260c0015161ffff1681526020018260a0015160038111156134e4576134e461448a565b81526001600160a01b038a165f908152600e6020908152604080832087845282529091205491019060ff1660028111156135205761352061448a565b81525084848151811061353557613535614e85565b602090810291909101015250506001016133ca565b505f8367ffffffffffffffff811115613565576135656145da565b6040519080825280602002602001820160405280156135be57816020015b6135ab604080516080810182525f80825260208201819052909182019081526020015f905290565b8152602001906001900390816135835790505b5090505f5b83811015613743576001600160a01b0387165f908152600d602052604081206135ec9083613d7f565b5f818152601560209081526040808320815160e0810183528154815260018201549381019390935260028101546001600160a01b0390811692840192909252600380820154928316606085015260ff600160a01b840481161515608086015295965093949293909260a0850192600160a81b900416908111156136715761367161448a565b60038111156136825761368261448a565b81526020016003820160169054906101000a900461ffff1661ffff1661ffff1681525050905060405180608001604052808381526020018260c0015161ffff1681526020018260a0015160038111156136dd576136dd61448a565b81526001600160a01b038b165f908152600f6020908152604080832087845282529091205491019060ff1660028111156137195761371961448a565b81525084848151811061372e5761372e614e85565b602090810291909101015250506001016135c3565b50604080516060810182526001600160a01b039097168752602087019290925290850152509192915050565b5f818152601560205260408120600201546001600160a01b031661379457505f919050565b506001919050565b919050565b5f601260ff83168110156137d6576137b98184614f93565b6137c490600a61508f565b6137ce9085614d63565b915050612bb2565b8060ff168360ff161015613803576137ee8382614f93565b6137f990600a61508f565b6137ce9085614cfc565b83915050612bb2565b5092915050565b5f612bb2825490565b5f613827838361404c565b9392505050565b6001600160a01b0381165f9081526001830160205260408120541515613827565b5f613827836001600160a01b03841661404c565b5f613827836001600160a01b038416614098565b61388260103361382e565b6138935761389160103361384f565b505b80156138d7578151335f908152600d602052604090206138b29161381c565b5050335f908152600f602090815260408083209351835292905220805460ff19169055565b8151335f908152600c602052604090206138f09161381c565b5050335f908152600e602090815260408083209351835292905220805460ff19169055565b5f5f61392086613db1565b90505f5f5f8560ff165f0361394357836020015161ffff169250600791506139ca565b8560ff1660010361397a57613968846080015161ffff168560a0015161ffff1661417b565b845161ffff16935091508190506139ca565b8560ff166002036139ae5761399f846060015161ffff16856080015161ffff16614200565b61ffff169250605a91506139ca565b8560ff166003036139ca57836060015161ffff16925061016d91505b8560ff16600103613a84575f61016d6139e489600c614d63565b6139ee9190614cfc565b9050838964ffffffffff1614158015613a0d57508864ffffffffff1684115b15613a3e57613a2364ffffffffff8a1685614e1d565b613a2d9084614e1d565b613a379082614d63565b9750613a7e565b838964ffffffffff1614158015613a5b57508864ffffffffff1684105b15613a7e57613a718464ffffffffff8b16614e1d565b613a7b9082614d63565b97505b50613b4c565b60ff86161580613a9757508560ff166002145b80613aa557508560ff166003145b15613b4c57828864ffffffffff1614158015613ac757508764ffffffffff1683115b15613b0257613add64ffffffffff891684614e1d565b613ae79083614e1d565b613af18389614cfc565b613afb9190614d63565b9650613b4c565b828864ffffffffff1614158015613b1f57508764ffffffffff1683105b15613b4c57613b358364ffffffffff8a16614e1d565b613b3f8389614cfc565b613b499190614d63565b96505b5094979650505050505050565b6040516001600160a01b038481166024830152838116604483015260648201839052610c639186918216906323b872dd906084015b604051602081830303815290604052915060e01b6020820180517bffffffffffffffffffffffffffffffffffffffffffffffffffffffff83818316178352505050506142ca565b6040805160e0810182525f8082526020808301829052828401829052606083018290526080830182905260a0830182905260c083018290523382526017905291822080549192829190613c2783614e50565b90915550506040516bffffffffffffffffffffffff193360601b166020820152603481018290524260548201525f906074016040516020818303038152906040528051906020012090506040518060e00160405280828152602001888152602001336001600160a01b03168152602001876001600160a01b031681526020015f15158152602001866003811115613cc057613cc061448a565b81526020018561ffff1681525092505050949350505050565b5f546001600160a01b031633146118f05760405163118cdaa760e01b81523360048201526024016105f1565b5f828152601660205260409020613d1c908261382e565b61127d575f82815260166020526040902061282c908261384f565b6040516001600160a01b0383811660248301526044820183905261282c91859182169063a9059cbb90606401613b8e565b5f8181526001830160205260408120541515613827565b5f6138278383614336565b600180546001600160a01b03191690556126a98161435c565b5f612bb2620151808361509d565b6040805160c0810182525f80825260208201819052918101829052606081018290526080810182905260a0810182905290613def6201518084614cfc565b90505f808281613e028262010bd96150c6565b613e0f9062253d8c6150c6565b90505f62023ab1613e218360046150ed565b613e2b919061511c565b90506004613e3c8262023ab16150ed565b613e479060036150c6565b613e51919061511c565b613e5b9083615148565b91505f62164b09613e6d8460016150c6565b613e7990610fa06150ed565b613e83919061511c565b90506004613e93826105b56150ed565b613e9d919061511c565b613ea79084615148565b613eb290601f6150c6565b92505f61098f613ec38560506150ed565b613ecd919061511c565b90505f6050613ede8361098f6150ed565b613ee8919061511c565b613ef29086615148565b9050613eff600b8361511c565b9450613f0c85600c6150ed565b613f178360026150c6565b613f219190615148565b91508483613f30603187615148565b613f3b9060646150ed565b613f4591906150c6565b613f4f91906150c6565b9097509150868282825f60015b838111613fa857838103613f7f57613f7861ffff8e1683614d0f565b9150613f96565b613f89858261417b565b613f939083614d0f565b91505b80613fa081614e50565b915050613f5c565b50809a50613fba8b61ffff1685614200565b61ffff1660408f0152613fcc8f6143ab565b8e6020019061ffff16908161ffff16815250508b8e5f019061ffff16908161ffff16815250508a8e6060019061ffff16908161ffff1681525050838e6080019061ffff16908161ffff1681525050828e60a0019061ffff16908161ffff168152505050505050505050505050505050919050565b60605f613827836143df565b5f81815260018301602052604081205461409157508154600181810184555f848152602080822090930184905584548482528286019093526040902091909155612bb2565b505f612bb2565b5f8181526001830160205260408120548015614172575f6140ba600183614e1d565b85549091505f906140cd90600190614e1d565b905080821461412c575f865f0182815481106140eb576140eb614e85565b905f5260205f200154905080875f01848154811061410b5761410b614e85565b5f918252602080832090910192909255918252600188019052604090208390555b855486908061413d5761413d615167565b600190038181905f5260205f20015f90559055856001015f8681526020019081526020015f205f905560019350505050612bb2565b5f915050612bb2565b5f816001148061418b5750816003145b806141965750816005145b806141a15750816007145b806141ac5750816008145b806141b7575081600a145b806141c2575081600c145b156141cf5750601f612bb2565b816002146141df5750601e612bb2565b6141e883614438565b6141f357601c6141f6565b601d5b60ff169392505050565b5f5f61420b83614438565b156142185750600161421b565b505f5b61422681605a614d0f565b84116142345783915061380c565b8361424082605a614d0f565b10801561425757506142538160b5614d0f565b8411155b156142785761426781605a614d0f565b6142719085614e1d565b915061380c565b836142848260b5614d0f565b10801561429c575061429881610111614d0f565b8411155b156142ac576142678160b5614d0f565b6142b881610111614d0f565b6142c29085614e1d565b949350505050565b5f5f60205f8451602086015f885af1806142e9576040513d5f823e3d81fd5b50505f513d9150811561430057806001141561430d565b6001600160a01b0384163b155b15610c6357604051635274afe760e01b81526001600160a01b03851660048201526024016105f1565b5f825f01828154811061434b5761434b614e85565b905f5260205f200154905092915050565b5f80546001600160a01b038381166001600160a01b0319831681178455604051919092169283917f8be0079c531659141344cd1fd0a4f28419497f9722a3daafe3b4186f6b6457e09190a35050565b5f806143ba6201518084614cfc565b90505f60076143ca836003614d0f565b6143d4919061517b565b6142c2906001614d0f565b6060815f0180548060200260200160405190810160405280929190818152602001828054801561442c57602002820191905f5260205f20905b815481526020019060010190808311614418575b50505050509050919050565b5f61444460048361517b565b15801561445a575061445760648361517b565b15155b80612bb2575061446c6101908361517b565b1592915050565b5f60208284031215614483575f5ffd5b5035919050565b634e487b7160e01b5f52602160045260245ffd5b600481106144ae576144ae61448a565b9052565b878152602081018790526001600160a01b03868116604083015285166060820152831515608082015260e081016144ec60a083018561449e565b61ffff831660c083015298975050505050505050565b5f60e0828403128015614513575f5ffd5b509092915050565b80356001600160a01b038116811461379c575f5ffd5b5f60408284031215614541575f5ffd5b50919050565b80356004811061379c575f5ffd5b803561ffff8116811461379c575f5ffd5b5f5f5f5f5f60a0868803121561457a575f5ffd5b8535945061458a6020870161451b565b9350604086013567ffffffffffffffff8111156145a5575f5ffd5b6145b188828901614531565b9350506145c060608701614547565b91506145ce60808701614555565b90509295509295909350565b634e487b7160e01b5f52604160045260245ffd5b60405160e0810167ffffffffffffffff81118282101715614611576146116145da565b60405290565b60405160c0810167ffffffffffffffff81118282101715614611576146116145da565b80151581146126a9575f5ffd5b5f60e08284031215614657575f5ffd5b61465f6145ee565b8235815260208084013590820152905061467b6040830161451b565b604082015261468c6060830161451b565b6060820152608082013561469f8161463a565b60808201526146b060a08301614547565b60a08201526146c160c08301614555565b60c082015292915050565b5f60e082840312156146dc575f5ffd5b6138278383614647565b5f5f5f606084860312156146f8575f5ffd5b6147018461451b565b925060208401359150604084013560ff8116811461471d575f5ffd5b809150509250925092565b5f5f610100838503121561473a575f5ffd5b6147448484614647565b915061475260e0840161451b565b90509250929050565b5f6020828403121561476b575f5ffd5b813564ffffffffff81168114613827575f5ffd5b602080825282518282018190525f918401906040840190835b818110156147cb57835180516001600160a01b031684526020908101518185015290930192604090920191600101614798565b509095945050505050565b5f60a0828403128015614513575f5ffd5b5f5f604083850312156147f8575f5ffd5b82356148038161463a565b91506147526020840161451b565b600381106144ae576144ae61448a565b602080825282518282018190525f918401906040840190835b818110156147cb578351805180518552602081015160208601526001600160a01b0360408201511660408601526001600160a01b03606082015116606086015260808101511515608086015260a081015161489860a087018261449e565b5061ffff60c08201511660c08601525060208101516148ba60e0860182614811565b5060400151610100840152602093909301926101209092019160010161483a565b5f602082840312156148eb575f5ffd5b81356138278161463a565b5f60208284031215614906575f5ffd5b6138278261451b565b5f5f60408385031215614920575f5ffd5b823567ffffffffffffffff811115614936575f5ffd5b61494285828601614531565b95602094909401359450505050565b5f5f60408385031215614962575f5ffd5b61496b8361451b565b9150602083013561497b8161463a565b809150509250929050565b602080825282518282018190525f918401906040840190835b818110156147cb578351805184526020908101516001600160a01b0316818501529093019260409092019160010161499f565b5f5f604083850312156149e3575f5ffd5b823591506147526020840161451b565b5f82601f830112614a02575f5ffd5b813567ffffffffffffffff811115614a1c57614a1c6145da565b604051601f8201601f19908116603f0116810167ffffffffffffffff81118282101715614a4b57614a4b6145da565b604052818152838201602001851015614a62575f5ffd5b816020850160208301375f918101602001919091529392505050565b5f60208284031215614a8e575f5ffd5b813567ffffffffffffffff811115614aa4575f5ffd5b820160c08185031215614ab5575f5ffd5b614abd614617565b813567ffffffffffffffff811115614ad3575f5ffd5b614adf868285016149f3565b825250602082013567ffffffffffffffff811115614afb575f5ffd5b614b07868285016149f3565b602083015250604082013567ffffffffffffffff811115614b26575f5ffd5b614b32868285016149f3565b604083015250606082013567ffffffffffffffff811115614b51575f5ffd5b614b5d868285016149f3565b606083015250608082013567ffffffffffffffff811115614b7c575f5ffd5b614b88868285016149f3565b60808301525060a082013567ffffffffffffffff811115614ba7575f5ffd5b614bb3868285016149f3565b60a083015250949350505050565b5f8151808452602084019350602083015f5b82811015614c2d5781518051875261ffff60208201511660208801526040810151614c01604089018261449e565b5060608101519050614c166060880182614811565b506080959095019460209190910190600101614bd3565b5093949350505050565b602081526001600160a01b0382511660208201525f602083015160606040840152614c656080840182614bc1565b90506040840151601f19848303016060850152614c828282614bc1565b95945050505050565b5f60208284031215614c9b575f5ffd5b5051919050565b5f60208284031215614cb2575f5ffd5b61382782614547565b5f60208284031215614ccb575f5ffd5b61382782614555565b634e487b7160e01b5f52601260045260245ffd5b634e487b7160e01b5f52601160045260245ffd5b5f82614d0a57614d0a614cd4565b500490565b80820180821115612bb257612bb2614ce8565b600a81106144ae576144ae61448a565b64ffffffffff85168152602081018490526001600160a01b038316604082015260808101614c826060830184614d22565b8082028115828204841417612bb257612bb2614ce8565b5f5f8335601e19843603018112614d8f575f5ffd5b83018035915067ffffffffffffffff821115614da9575f5ffd5b602001915036819003821315614dbd575f5ffd5b9250929050565b81835281816020850137505f828201602090810191909152601f909101601f19169091010190565b604081525f614dff604083018688614dc4565b8281036020840152614e12818587614dc4565b979650505050505050565b81810381811115612bb257612bb2614ce8565b64ffffffffff818116838216029081169081811461380c5761380c614ce8565b5f60018201614e6157614e61614ce8565b5060010190565b64ffffffffff8181168382160190811115612bb257612bb2614ce8565b634e487b7160e01b5f52603260045260245ffd5b81358155602082013560018201556040820135600282015560608201356003820155600481016080830135614ecd8161463a565b815490151560ff1660ff19919091161790555050565b5f82518060208501845e5f920191825250919050565b5f81518084528060208401602086015e5f602082860101526020601f19601f83011685010191505092915050565b60a081525f614f3960a0830188614ef9565b8281036020840152614f4b8188614ef9565b90508281036040840152614f5f8187614ef9565b90508281036060840152614f738186614ef9565b90508281036080840152614f878185614ef9565b98975050505050505050565b60ff8281168282160390811115612bb257612bb2614ce8565b6001815b6001841115614fe757808504811115614fcb57614fcb614ce8565b6001841615614fd957908102905b60019390931c928002614fb0565b935093915050565b5f82614ffd57506001612bb2565b8161500957505f612bb2565b816001811461501f576002811461502957615045565b6001915050612bb2565b60ff84111561503a5761503a614ce8565b50506001821b612bb2565b5060208310610133831016604e8410600b8410161715615068575081810a612bb2565b6150745f198484614fac565b805f190482111561508757615087614ce8565b029392505050565b5f61382760ff841683614fef565b5f64ffffffffff8316806150b3576150b3614cd4565b8064ffffffffff84160491505092915050565b8082018281125f8312801582168215821617156150e5576150e5614ce8565b505092915050565b8082025f8212600160ff1b8414161561510857615108614ce8565b8181058314821517612bb257612bb2614ce8565b5f8261512a5761512a614cd4565b600160ff1b82145f198414161561514357615143614ce8565b500590565b8181035f83128015838313168383128216171561380c5761380c614ce8565b634e487b7160e01b5f52603160045260245ffd5b5f8261518957615189614cd4565b50069056feca6b824caf1a48ea2ad039dbb063460fa30e9c3cc255eeb52240d638ec6de65ea26469706673582212207a5675714ed983e9904fab69e593738ee8332666f9a83c79ac7ad377bac38b3164736f6c634300081c0033",
  "linkReferences": {},
  "deployedLinkReferences": {}
}