{
  "_format": "hh-sol-artifact-1",
  "contractName": "ClockTowerSubscribe",
  "sourceName": "contracts/ClockTowerSubscribe.sol",
  "abi": [
    {
      "inputs": [
        {
          "internalType": "uint256",
          "name": "callerFee_",
          "type": "uint256"
        },
        {
          "internalType": "uint256",
          "name": "systemFee_",
          "type": "uint256"
        },
        {
          "internalType": "uint256",
          "name": "maxRemits_",
          "type": "uint256"
        },
        {
          "internalType": "bool",
          "name": "allowSystemFee_",
          "type": "bool"
        },
        {
          "internalType": "address",
          "name": "admin_",
          "type": "address"
        }
      ],
      "stateMutability": "nonpayable",
      "type": "constructor"
    },
    {
      "anonymous": false,
      "inputs": [
        {
          "indexed": false,
          "internalType": "uint40",
          "name": "timestamp",
          "type": "uint40"
        },
        {
          "indexed": false,
          "internalType": "uint40",
          "name": "checkedDay",
          "type": "uint40"
        },
        {
          "indexed": true,
          "internalType": "address",
          "name": "caller",
          "type": "address"
        },
        {
          "indexed": false,
          "internalType": "bool",
          "name": "isFinished",
          "type": "bool"
        }
      ],
      "name": "CallerLog",
      "type": "event"
    },
    {
      "anonymous": false,
      "inputs": [
        {
          "indexed": true,
          "internalType": "bytes32",
          "name": "id",
          "type": "bytes32"
        },
        {
          "indexed": true,
          "internalType": "address",
          "name": "provider",
          "type": "address"
        },
        {
          "indexed": true,
          "internalType": "uint40",
          "name": "timestamp",
          "type": "uint40"
        },
        {
          "indexed": false,
          "internalType": "string",
          "name": "url",
          "type": "string"
        },
        {
          "indexed": false,
          "internalType": "string",
          "name": "description",
          "type": "string"
        }
      ],
      "name": "DetailsLog",
      "type": "event"
    },
    {
      "anonymous": false,
      "inputs": [
        {
          "indexed": true,
          "internalType": "address",
          "name": "provider",
          "type": "address"
        },
        {
          "indexed": true,
          "internalType": "uint40",
          "name": "timestamp",
          "type": "uint40"
        },
        {
          "indexed": false,
          "internalType": "string",
          "name": "description",
          "type": "string"
        },
        {
          "indexed": false,
          "internalType": "string",
          "name": "company",
          "type": "string"
        },
        {
          "indexed": false,
          "internalType": "string",
          "name": "url",
          "type": "string"
        },
        {
          "indexed": false,
          "internalType": "string",
          "name": "domain",
          "type": "string"
        },
        {
          "indexed": false,
          "internalType": "string",
          "name": "email",
          "type": "string"
        },
        {
          "indexed": false,
          "internalType": "string",
          "name": "misc",
          "type": "string"
        }
      ],
      "name": "ProvDetailsLog",
      "type": "event"
    },
    {
      "anonymous": false,
      "inputs": [
        {
          "indexed": true,
          "internalType": "bytes32",
          "name": "id",
          "type": "bytes32"
        },
        {
          "indexed": true,
          "internalType": "address",
          "name": "provider",
          "type": "address"
        },
        {
          "indexed": true,
          "internalType": "address",
          "name": "subscriber",
          "type": "address"
        },
        {
          "indexed": false,
          "internalType": "uint40",
          "name": "timestamp",
          "type": "uint40"
        },
        {
          "indexed": false,
          "internalType": "uint256",
          "name": "amount",
          "type": "uint256"
        },
        {
          "indexed": false,
          "internalType": "address",
          "name": "token",
          "type": "address"
        },
        {
          "indexed": false,
          "internalType": "enum ClockTowerSubscribe.SubscriptEvent",
          "name": "subScriptEvent",
          "type": "uint8"
        }
      ],
      "name": "SubLog",
      "type": "event"
    },
    {
      "inputs": [
        {
          "internalType": "uint256",
          "name": "",
          "type": "uint256"
        }
      ],
      "name": "accountLookup",
      "outputs": [
        {
          "internalType": "address",
          "name": "",
          "type": "address"
        }
      ],
      "stateMutability": "view",
      "type": "function"
    },
    {
      "inputs": [
        {
          "internalType": "address",
          "name": "erc20Contract",
          "type": "address"
        },
        {
          "internalType": "uint256",
          "name": "minimum",
          "type": "uint256"
        },
        {
          "internalType": "uint8",
          "name": "decimals",
          "type": "uint8"
        }
      ],
      "name": "addERC20Contract",
      "outputs": [],
      "stateMutability": "nonpayable",
      "type": "function"
    },
    {
      "inputs": [
        {
          "internalType": "address",
          "name": "",
          "type": "address"
        }
      ],
      "name": "approvedERC20",
      "outputs": [
        {
          "internalType": "address",
          "name": "tokenAddress",
          "type": "address"
        },
        {
          "internalType": "uint256",
          "name": "minimum",
          "type": "uint256"
        },
        {
          "internalType": "uint8",
          "name": "decimals",
          "type": "uint8"
        },
        {
          "internalType": "bool",
          "name": "exists",
          "type": "bool"
        }
      ],
      "stateMutability": "view",
      "type": "function"
    },
    {
      "inputs": [],
      "name": "callerFee",
      "outputs": [
        {
          "internalType": "uint256",
          "name": "",
          "type": "uint256"
        }
      ],
      "stateMutability": "view",
      "type": "function"
    },
    {
      "inputs": [
        {
          "components": [
            {
              "internalType": "bytes32",
              "name": "id",
              "type": "bytes32"
            },
            {
              "internalType": "uint256",
              "name": "amount",
              "type": "uint256"
            },
            {
              "internalType": "address",
              "name": "provider",
              "type": "address"
            },
            {
              "internalType": "address",
              "name": "token",
              "type": "address"
            },
            {
              "internalType": "bool",
              "name": "exists",
              "type": "bool"
            },
            {
              "internalType": "bool",
              "name": "cancelled",
              "type": "bool"
            },
            {
              "internalType": "enum ClockTowerSubscribe.Frequency",
              "name": "frequency",
              "type": "uint8"
            },
            {
              "internalType": "uint16",
              "name": "dueDay",
              "type": "uint16"
            }
          ],
          "internalType": "struct ClockTowerSubscribe.Subscription",
          "name": "subscription",
          "type": "tuple"
        }
      ],
      "name": "cancelSubscription",
      "outputs": [],
      "stateMutability": "nonpayable",
      "type": "function"
    },
    {
      "inputs": [
        {
          "internalType": "address",
          "name": "newAddress",
          "type": "address"
        }
      ],
      "name": "changeAdmin",
      "outputs": [],
      "stateMutability": "nonpayable",
      "type": "function"
    },
    {
      "inputs": [
        {
          "internalType": "uint256",
          "name": "_fee",
          "type": "uint256"
        }
      ],
      "name": "changeCallerFee",
      "outputs": [],
      "stateMutability": "nonpayable",
      "type": "function"
    },
    {
      "inputs": [
        {
          "internalType": "uint256",
          "name": "_maxRemits",
          "type": "uint256"
        }
      ],
      "name": "changeMaxRemits",
      "outputs": [],
      "stateMutability": "nonpayable",
      "type": "function"
    },
    {
      "inputs": [
        {
          "internalType": "uint256",
          "name": "_sys_fee",
          "type": "uint256"
        }
      ],
      "name": "changeSystemFee",
      "outputs": [],
      "stateMutability": "nonpayable",
      "type": "function"
    },
    {
      "inputs": [
        {
          "internalType": "uint256",
          "name": "amount",
          "type": "uint256"
        },
        {
          "internalType": "address",
          "name": "token",
          "type": "address"
        },
        {
          "components": [
            {
              "internalType": "string",
              "name": "url",
              "type": "string"
            },
            {
              "internalType": "string",
              "name": "description",
              "type": "string"
            }
          ],
          "internalType": "struct ClockTowerSubscribe.Details",
          "name": "details",
          "type": "tuple"
        },
        {
          "internalType": "enum ClockTowerSubscribe.Frequency",
          "name": "frequency",
          "type": "uint8"
        },
        {
          "internalType": "uint16",
          "name": "dueDay",
          "type": "uint16"
        }
      ],
      "name": "createSubscription",
      "outputs": [],
      "stateMutability": "nonpayable",
      "type": "function"
    },
    {
      "inputs": [
        {
          "components": [
            {
              "internalType": "string",
              "name": "url",
              "type": "string"
            },
            {
              "internalType": "string",
              "name": "description",
              "type": "string"
            }
          ],
          "internalType": "struct ClockTowerSubscribe.Details",
          "name": "details",
          "type": "tuple"
        },
        {
          "internalType": "bytes32",
          "name": "id",
          "type": "bytes32"
        }
      ],
      "name": "editDetails",
      "outputs": [],
      "stateMutability": "nonpayable",
      "type": "function"
    },
    {
      "inputs": [
        {
          "components": [
            {
              "internalType": "string",
              "name": "description",
              "type": "string"
            },
            {
              "internalType": "string",
              "name": "company",
              "type": "string"
            },
            {
              "internalType": "string",
              "name": "url",
              "type": "string"
            },
            {
              "internalType": "string",
              "name": "domain",
              "type": "string"
            },
            {
              "internalType": "string",
              "name": "email",
              "type": "string"
            },
            {
              "internalType": "string",
              "name": "misc",
              "type": "string"
            }
          ],
          "internalType": "struct ClockTowerSubscribe.ProviderDetails",
          "name": "details",
          "type": "tuple"
        }
      ],
      "name": "editProvDetails",
      "outputs": [],
      "stateMutability": "nonpayable",
      "type": "function"
    },
    {
      "inputs": [
        {
          "internalType": "bytes32",
          "name": "",
          "type": "bytes32"
        },
        {
          "internalType": "address",
          "name": "",
          "type": "address"
        }
      ],
      "name": "feeBalance",
      "outputs": [
        {
          "internalType": "uint256",
          "name": "",
          "type": "uint256"
        }
      ],
      "stateMutability": "view",
      "type": "function"
    },
    {
      "inputs": [],
      "name": "feeEstimate",
      "outputs": [
        {
          "components": [
            {
              "internalType": "uint256",
              "name": "fee",
              "type": "uint256"
            },
            {
              "internalType": "address",
              "name": "token",
              "type": "address"
            }
          ],
          "internalType": "struct ClockTowerSubscribe.FeeEstimate[]",
          "name": "",
          "type": "tuple[]"
        }
      ],
      "stateMutability": "view",
      "type": "function"
    },
    {
      "inputs": [
        {
          "internalType": "address",
          "name": "account",
          "type": "address"
        }
      ],
      "name": "getAccount",
      "outputs": [
        {
          "components": [
            {
              "internalType": "address",
              "name": "accountAddress",
              "type": "address"
            },
            {
              "internalType": "bool",
              "name": "exists",
              "type": "bool"
            },
            {
              "components": [
                {
                  "internalType": "bytes32",
                  "name": "id",
                  "type": "bytes32"
                },
                {
                  "internalType": "uint16",
                  "name": "dueDay",
                  "type": "uint16"
                },
                {
                  "internalType": "enum ClockTowerSubscribe.Frequency",
                  "name": "frequency",
                  "type": "uint8"
                },
                {
                  "internalType": "enum ClockTowerSubscribe.Status",
                  "name": "status",
                  "type": "uint8"
                }
              ],
              "internalType": "struct ClockTowerSubscribe.SubIndex[]",
              "name": "subscriptions",
              "type": "tuple[]"
            },
            {
              "components": [
                {
                  "internalType": "bytes32",
                  "name": "id",
                  "type": "bytes32"
                },
                {
                  "internalType": "uint16",
                  "name": "dueDay",
                  "type": "uint16"
                },
                {
                  "internalType": "enum ClockTowerSubscribe.Frequency",
                  "name": "frequency",
                  "type": "uint8"
                },
                {
                  "internalType": "enum ClockTowerSubscribe.Status",
                  "name": "status",
                  "type": "uint8"
                }
              ],
              "internalType": "struct ClockTowerSubscribe.SubIndex[]",
              "name": "provSubs",
              "type": "tuple[]"
            }
          ],
          "internalType": "struct ClockTowerSubscribe.Account",
          "name": "",
          "type": "tuple"
        }
      ],
      "stateMutability": "view",
      "type": "function"
    },
    {
      "inputs": [
        {
          "internalType": "bool",
          "name": "bySubscriber",
          "type": "bool"
        },
        {
          "internalType": "address",
          "name": "account",
          "type": "address"
        }
      ],
      "name": "getAccountSubscriptions",
      "outputs": [
        {
          "components": [
            {
              "components": [
                {
                  "internalType": "bytes32",
                  "name": "id",
                  "type": "bytes32"
                },
                {
                  "internalType": "uint256",
                  "name": "amount",
                  "type": "uint256"
                },
                {
                  "internalType": "address",
                  "name": "provider",
                  "type": "address"
                },
                {
                  "internalType": "address",
                  "name": "token",
                  "type": "address"
                },
                {
                  "internalType": "bool",
                  "name": "exists",
                  "type": "bool"
                },
                {
                  "internalType": "bool",
                  "name": "cancelled",
                  "type": "bool"
                },
                {
                  "internalType": "enum ClockTowerSubscribe.Frequency",
                  "name": "frequency",
                  "type": "uint8"
                },
                {
                  "internalType": "uint16",
                  "name": "dueDay",
                  "type": "uint16"
                }
              ],
              "internalType": "struct ClockTowerSubscribe.Subscription",
              "name": "subscription",
              "type": "tuple"
            },
            {
              "internalType": "enum ClockTowerSubscribe.Status",
              "name": "status",
              "type": "uint8"
            },
            {
              "internalType": "uint256",
              "name": "totalSubscribers",
              "type": "uint256"
            }
          ],
          "internalType": "struct ClockTowerSubscribe.SubView[]",
          "name": "",
          "type": "tuple[]"
        }
      ],
      "stateMutability": "view",
      "type": "function"
    },
    {
      "inputs": [
        {
          "internalType": "bytes32",
          "name": "id",
          "type": "bytes32"
        },
        {
          "internalType": "enum ClockTowerSubscribe.Frequency",
          "name": "frequency",
          "type": "uint8"
        },
        {
          "internalType": "uint16",
          "name": "dueDay",
          "type": "uint16"
        }
      ],
      "name": "getSubByIndex",
      "outputs": [
        {
          "components": [
            {
              "internalType": "bytes32",
              "name": "id",
              "type": "bytes32"
            },
            {
              "internalType": "uint256",
              "name": "amount",
              "type": "uint256"
            },
            {
              "internalType": "address",
              "name": "provider",
              "type": "address"
            },
            {
              "internalType": "address",
              "name": "token",
              "type": "address"
            },
            {
              "internalType": "bool",
              "name": "exists",
              "type": "bool"
            },
            {
              "internalType": "bool",
              "name": "cancelled",
              "type": "bool"
            },
            {
              "internalType": "enum ClockTowerSubscribe.Frequency",
              "name": "frequency",
              "type": "uint8"
            },
            {
              "internalType": "uint16",
              "name": "dueDay",
              "type": "uint16"
            }
          ],
          "internalType": "struct ClockTowerSubscribe.Subscription",
          "name": "subscription",
          "type": "tuple"
        }
      ],
      "stateMutability": "view",
      "type": "function"
    },
    {
      "inputs": [
        {
          "internalType": "bytes32",
          "name": "id",
          "type": "bytes32"
        }
      ],
      "name": "getSubscribersById",
      "outputs": [
        {
          "components": [
            {
              "internalType": "address",
              "name": "subscriber",
              "type": "address"
            },
            {
              "internalType": "uint256",
              "name": "feeBalance",
              "type": "uint256"
            }
          ],
          "internalType": "struct ClockTowerSubscribe.SubscriberView[]",
          "name": "",
          "type": "tuple[]"
        }
      ],
      "stateMutability": "view",
      "type": "function"
    },
    {
      "inputs": [],
      "name": "getTotalSubscribers",
      "outputs": [
        {
          "internalType": "uint256",
          "name": "",
          "type": "uint256"
        }
      ],
      "stateMutability": "view",
      "type": "function"
    },
    {
      "inputs": [],
      "name": "maxRemits",
      "outputs": [
        {
          "internalType": "uint256",
          "name": "",
          "type": "uint256"
        }
      ],
      "stateMutability": "view",
      "type": "function"
    },
    {
      "inputs": [],
      "name": "nextUncheckedDay",
      "outputs": [
        {
          "internalType": "uint40",
          "name": "",
          "type": "uint40"
        }
      ],
      "stateMutability": "view",
      "type": "function"
    },
    {
      "inputs": [],
      "name": "remit",
      "outputs": [],
      "stateMutability": "nonpayable",
      "type": "function"
    },
    {
      "inputs": [
        {
          "components": [
            {
              "internalType": "bytes32",
              "name": "id",
              "type": "bytes32"
            },
            {
              "internalType": "uint256",
              "name": "amount",
              "type": "uint256"
            },
            {
              "internalType": "address",
              "name": "provider",
              "type": "address"
            },
            {
              "internalType": "address",
              "name": "token",
              "type": "address"
            },
            {
              "internalType": "bool",
              "name": "exists",
              "type": "bool"
            },
            {
              "internalType": "bool",
              "name": "cancelled",
              "type": "bool"
            },
            {
              "internalType": "enum ClockTowerSubscribe.Frequency",
              "name": "frequency",
              "type": "uint8"
            },
            {
              "internalType": "uint16",
              "name": "dueDay",
              "type": "uint16"
            }
          ],
          "internalType": "struct ClockTowerSubscribe.Subscription",
          "name": "subscription",
          "type": "tuple"
        }
      ],
      "name": "subscribe",
      "outputs": [],
      "stateMutability": "nonpayable",
      "type": "function"
    },
    {
      "inputs": [],
      "name": "systemFee",
      "outputs": [
        {
          "internalType": "uint256",
          "name": "",
          "type": "uint256"
        }
      ],
      "stateMutability": "view",
      "type": "function"
    },
    {
      "inputs": [
        {
          "internalType": "bool",
          "name": "status",
          "type": "bool"
        }
      ],
      "name": "systemFeeActivate",
      "outputs": [],
      "stateMutability": "nonpayable",
      "type": "function"
    },
    {
      "inputs": [
        {
          "components": [
            {
              "internalType": "bytes32",
              "name": "id",
              "type": "bytes32"
            },
            {
              "internalType": "uint256",
              "name": "amount",
              "type": "uint256"
            },
            {
              "internalType": "address",
              "name": "provider",
              "type": "address"
            },
            {
              "internalType": "address",
              "name": "token",
              "type": "address"
            },
            {
              "internalType": "bool",
              "name": "exists",
              "type": "bool"
            },
            {
              "internalType": "bool",
              "name": "cancelled",
              "type": "bool"
            },
            {
              "internalType": "enum ClockTowerSubscribe.Frequency",
              "name": "frequency",
              "type": "uint8"
            },
            {
              "internalType": "uint16",
              "name": "dueDay",
              "type": "uint16"
            }
          ],
          "internalType": "struct ClockTowerSubscribe.Subscription",
          "name": "subscription",
          "type": "tuple"
        }
      ],
      "name": "unsubscribe",
      "outputs": [],
      "stateMutability": "nonpayable",
      "type": "function"
    },
    {
      "inputs": [
        {
          "components": [
            {
              "internalType": "bytes32",
              "name": "id",
              "type": "bytes32"
            },
            {
              "internalType": "uint256",
              "name": "amount",
              "type": "uint256"
            },
            {
              "internalType": "address",
              "name": "provider",
              "type": "address"
            },
            {
              "internalType": "address",
              "name": "token",
              "type": "address"
            },
            {
              "internalType": "bool",
              "name": "exists",
              "type": "bool"
            },
            {
              "internalType": "bool",
              "name": "cancelled",
              "type": "bool"
            },
            {
              "internalType": "enum ClockTowerSubscribe.Frequency",
              "name": "frequency",
              "type": "uint8"
            },
            {
              "internalType": "uint16",
              "name": "dueDay",
              "type": "uint16"
            }
          ],
          "internalType": "struct ClockTowerSubscribe.Subscription",
          "name": "subscription",
          "type": "tuple"
        },
        {
          "internalType": "address",
          "name": "subscriber",
          "type": "address"
        }
      ],
      "name": "unsubscribeByProvider",
      "outputs": [],
      "stateMutability": "nonpayable",
      "type": "function"
    }
  ],
  "bytecode": "0x608060405234801561001057600080fd5b50604051615f44380380615f4483398101604081905261002f916100d1565b6000859055600184905560028381556006805460ff60d01b1916600160d01b8515150217905561005e426100bc565b610068919061013b565b600680546001600160a01b03909316660100000000000002600160301b600160d01b031964ffffffffff939093166101000292909216610100600160d01b0319909316929092171790555061019e92505050565b60006100cb6201518083610166565b92915050565b600080600080600060a086880312156100e957600080fd5b85516020870151604088015160608901519297509095509350801515811461011057600080fd5b60808701519092506001600160a01b038116811461012d57600080fd5b809150509295509295909350565b64ffffffffff82811682821603908111156100cb57634e487b7160e01b600052601160045260246000fd5b600064ffffffffff83168061018b57634e487b7160e01b600052601260045260246000fd5b8064ffffffffff84160491505092915050565b615d97806101ad6000396000f3fe608060405234801561001057600080fd5b50600436106101b95760003560e01c80638ef0ef1c116100f9578063d10f9e6911610097578063ebec6eaa11610071578063ebec6eaa146103fc578063ed601d2814610427578063f4a2a2001461043a578063fbcbc0f11461046557600080fd5b8063d10f9e69146103a8578063da854a96146103bb578063e63d35be146103e757600080fd5b80639889552e116100d35780639889552e1461030b578063b25ae32c1461031e578063bd74388614610326578063cab1c9651461039f57600080fd5b80638ef0ef1c146102d25780638f283970146102e5578063907cedb2146102f857600080fd5b80633c95dad5116101665780637507ba39116101405780637507ba39146102775780637bbf5a6e1461027f57806386525a001461029f57806387d888d3146102bf57600080fd5b80633c95dad51461023e57806344e49769146102515780634a1268b81461026457600080fd5b806327ea97731161019757806327ea9773146102025780632d23f7e71461021557806334d441d01461023557600080fd5b80630b8590c7146101be5780630bec99e8146101d35780631f17ee55146101e6575b600080fd5b6101d16101cc366004615041565b610485565b005b6101d16101e13660046150ba565b61090b565b6101ef60015481565b6040519081526020015b60405180910390f35b6101d16102103660046150ba565b610918565b6102286102233660046150d3565b610925565b6040516101f991906151b5565b6101ef60005481565b6101d161024c3660046151c4565b610afd565b6101d161025f3660046152f8565b6111ce565b6101d161027236600461531c565b6115b1565b6101d1611690565b61029261028d3660046150ba565b612646565b6040516101f99190615362565b6102b26102ad3660046153ba565b61283c565b6040516101f991906153ff565b6101d16102cd3660046151c4565b612c33565b6101d16102e03660046150ba565b61368e565b6101d16102f3366004615462565b61369b565b6101d161030636600461547d565b6136fa565b6101d16103193660046154aa565b613b6e565b6008546101ef565b61036b610334366004615462565b6005602052600090815260409020805460018201546002909201546001600160a01b03909116919060ff8082169161010090041684565b604080516001600160a01b039095168552602085019390935260ff90911691830191909152151560608201526080016101f9565b6101ef60025481565b6101d16103b63660046154c7565b613b94565b6006546103d190610100900464ffffffffff1681565b60405164ffffffffff90911681526020016101f9565b6103ef613c4b565b6040516101f9919061550c565b6101ef61040a366004615559565b600960209081526000928352604080842090915290825290205481565b6101d161043536600461560b565b6140ed565b61044d6104483660046150ba565b61415b565b6040516001600160a01b0390911681526020016101f9565b610478610473366004615462565b614185565b6040516101f991906157d0565b61048d6143af565b6001600160a01b0384166104cc5760405162461bcd60e51b81526020600482015260016024820152600760fb1b60448201526064015b60405180910390fd5b6104d5846143e2565b6105055760405162461bcd60e51b81526020600482015260016024820152603960f81b60448201526064016104c3565b60008260038111156105195761051961510f565b03610568578061ffff166000108015610537575060078161ffff1611155b6105685760405162461bcd60e51b8152602060048201526002602482015261191b60f11b60448201526064016104c3565b600182600381111561057c5761057c61510f565b036105cb578061ffff16600010801561059a5750601c8161ffff1611155b6105cb5760405162461bcd60e51b8152602060048201526002602482015261323760f01b60448201526064016104c3565b60028260038111156105df576105df61510f565b0361062e578061ffff1660001080156105fd5750605a8161ffff1611155b61062e5760405162461bcd60e51b8152602060048201526002602482015261064760f31b60448201526064016104c3565b60038260038111156106425761064261510f565b03610692578061ffff166000108015610661575061016d8161ffff1611155b6106925760405162461bcd60e51b8152602060048201526002602482015261323960f01b60448201526064016104c3565b6001600160a01b0384166000908152600560205260409020600101548510156106e25760405162461bcd60e51b8152602060048201526002602482015261033360f41b60448201526064016104c3565b60006106f086868585614419565b905080600a60008560038111156107095761070961510f565b81526020808201929092526040908101600090812061ffff87168252835281812080546001818101835591835291849020855160049093020191825592840151928101929092558201516002820180546001600160a01b039283166001600160a01b0319909116179055606083015160038084018054608087015160a08801511515600160a81b0260ff60a81b19911515600160a01b0274ffffffffffffffffffffffffffffffffffffffffff199093169590961694909417179283168417815560c086015193909260ff60b01b1990911661ffff60a81b199091161790600160b01b9084908111156107fe576107fe61510f565b021790555060e0918201516003918201805461ffff60b81b1916600160b81b61ffff93841602179055604080516080810182528551815293850151909116602084015260c084015161086e93929183019181111561085e5761085e61510f565b8152602001600090526001614504565b805164ffffffffff42169033907f93cda0785d40b289a535b99dc76d4c9cbb6d8146182861ac3ad40509398b18656108a68880615831565b6108b360208b018b615831565b6040516108c394939291906158a8565b60405180910390a48051606082015160405160009233929091600080516020615d42833981519152916108fb9142918d9188906158ea565b60405180910390a4505050505050565b6109136146b4565b600155565b6109206146b4565b600255565b6040805161010081018252600080825260208201819052918101829052606081018290526080810182905260a0810182905260c0810182905260e0810182905290600a8185600381111561097b5761097b61510f565b815260200190815260200160002060008461ffff1661ffff168152602001908152602001600020805480602002602001604051908101604052809291908181526020016000905b82821015610a995760008481526020908190206040805161010081018252600486029092018054835260018101549383019390935260028301546001600160a01b0390811691830191909152600380840154918216606084015260ff600160a01b8304811615156080850152600160a81b83048116151560a085015292939260c0850192600160b01b90041690811115610a5e57610a5e61510f565b6003811115610a6f57610a6f61510f565b81526003919091015461ffff600160b81b90910416602091820152908252600190920191016109c2565b50505050905060005b8151811015610af45785828281518110610abe57610abe61591b565b60200260200101516000015103610aec57818181518110610ae157610ae161591b565b602002602001015192505b600101610aa2565b50509392505050565b610b056143af565b610b328135610b1b610100840160e08501615931565b610b2b60e0850160c0860161594c565b60006146fd565b610b625760405162461bcd60e51b81526020600482015260016024820152603760f81b60448201526064016104c3565b6000610ba46020830135600583610b7f6080870160608801615462565b6001600160a01b0316815260208101919091526040016000206002015460ff16614788565b905080610bb76080840160608501615462565b604051636eb1769f60e11b81523360048201523060248201526001600160a01b03919091169063dd62ed3e906044016020604051808303816000875af1158015610c05573d6000803e3d6000fd5b505050506040513d601f19601f82011682018060405250810190610c299190615967565b10158015610cb2575080610c436080840160608501615462565b6040516370a0823160e01b81523360048201526001600160a01b0391909116906370a08231906024016020604051808303816000875af1158015610c8b573d6000803e3d6000fd5b505050506040513d601f19601f82011682018060405250810190610caf9190615967565b10155b610ce35760405162461bcd60e51b8152602060048201526002602482015261032360f41b60448201526064016104c3565b610cf36060830160408401615462565b6001600160a01b03163303610d2e5760405162461bcd60e51b81526020600482015260016024820152600360fc1b60448201526064016104c3565b81356000818152600b6020908152604080832080546001810182559084529282902090920180546001600160a01b03191633179055815160808101909252918152610dc0918101610d86610100860160e08701615931565b61ffff168152602001610d9f60e0860160c0870161594c565b6003811115610db057610db061510f565b8152602001600090526000614504565b6020820135600180610dd860e0860160c0870161594c565b6003811115610de957610de961510f565b1480610e1557506000610e0260e0860160c0870161594c565b6003811115610e1357610e1361510f565b145b15610e6157610e5a42610e2f610100870160e08801615931565b61ffff1684610e4460e0890160c08a0161594c565b6003811115610e5557610e5561510f565b6147fb565b9150610f07565b6002610e7360e0860160c0870161594c565b6003811115610e8457610e8461510f565b03610eb657610e9e42610e2f610100870160e08801615931565b9150610eab6003836159ac565b915060029050610f07565b6003610ec860e0860160c0870161594c565b6003811115610ed957610ed961510f565b03610f0757610ef342610e2f610100870160e08801615931565b9150610f00600c836159ac565b9150600b90505b8335600090815260096020908152604080832033845290915281208054849290610f329084906159c0565b90915550339050610f496060860160408701615462565b6001600160a01b03168535600080516020615d42833981519152426020890135610f7960808b0160608c01615462565b6006604051610f8b94939291906158ea565b60405180910390a433610fa46060860160408701615462565b6001600160a01b03168535600080516020615d428339815191524286610fd060808b0160608c01615462565b6008604051610fe294939291906158ea565b60405180910390a4610ffa6080850160608601615462565b6001600160a01b03166323b872dd33306110228660056000610b7f60808d0160608e01615462565b6040516001600160e01b031960e086901b1681526001600160a01b03938416600482015292909116602483015260448201526064016020604051808303816000875af1158015611076573d6000803e3d6000fd5b505050506040513d601f19601f8201168201806040525081019061109a91906159d3565b6110a357600080fd5b60026110b560e0860160c0870161594c565b60038111156110c6576110c661510f565b14806110f2575060036110df60e0860160c0870161594c565b60038111156110f0576110f061510f565b145b156111c8576111076080850160608601615462565b6001600160a01b03166323b872dd336111266060880160408901615462565b61114761113386886159f0565b60056000610b7f60808d0160608e01615462565b6040516001600160e01b031960e086901b1681526001600160a01b03938416600482015292909116602483015260448201526064016020604051808303816000875af115801561119b573d6000803e3d6000fd5b505050506040513d601f19601f820116820180604052508101906111bf91906159d3565b6111c857600080fd5b50505050565b6111d66143af565b3360009081526007602052604081206001015467ffffffffffffffff811115611201576112016151e0565b60405190808252806020026020018201604052801561125c57816020015b61124960408051608081018252600080825260208201819052909182019081526020016000905290565b81526020019060019003908161121f5790505b50336000908152600760209081526040808320600101805482518185028101850190935280835294955090939092909184015b82821015611345576000848152602090819020604080516080810182526002860290920180548352600181015461ffff81169484019490945291929083019062010000900460ff1660038111156112e8576112e861510f565b60038111156112f9576112f961510f565b81526020016001820160039054906101000a900460ff1660028111156113215761132161510f565b60028111156113325761133261510f565b815250508152602001906001019061128f565b5050336000908152600760205260408120600101549394509150505b818110156113f95783600001518382815181106113805761138061591b565b602002602001015160000151036113f157336000908152600760205260409020600101805460029190839081106113b9576113b961591b565b906000526020600020906002020160010160036101000a81548160ff021916908360028111156113eb576113eb61510f565b02179055505b600101611361565b5082516114069033614a44565b336001600160a01b031683604001516001600160a01b03168460000151600080516020615d428339815191524287602001518860600151600760405161144f94939291906158ea565b60405180910390a4825160009081526009602081815260408084203380865290835281852054885186529383528185208186529092528084209390935582860151865160608801519451939492936001600160a01b03909216929091600080516020615d42833981519152916114cb91429188916004906158ea565b60405180910390a460608401516040808601516001600160a01b03909216600081815260056020529190912060020154909163a9059cbb9161151190859060ff16614788565b6040516001600160e01b031960e085901b1681526001600160a01b03909216600483015260248201526044016020604051808303816000875af115801561155c573d6000803e3d6000fd5b505050506040513d601f19601f8201168201806040525081019061158091906159d3565b6111c85760405162461bcd60e51b8152602060048201526002602482015261323160f01b60448201526064016104c3565b6115b96146b4565b6001600160a01b0383166115cc57600080fd5b6115d5836143e2565b156116065760405162461bcd60e51b81526020600482015260016024820152603160f81b60448201526064016104c3565b604080516080810182526001600160a01b03948516808252602080830195865260ff9485168385019081526001606085018181526000948552600590935294909220925183546001600160a01b031916971696909617825593519181019190915591516002909201805493519290911661ffff199093169290921761010091151591909102179055565b600061169b42614b8a565b60065490915064ffffffffff610100909104811690821610156116e55760405162461bcd60e51b81526020600482015260026024820152610c4d60f21b60448201526064016104c3565b6040805160c081018252600080825260208201819052918101829052606081018290526080810182905260a081019190915260019060065464ffffffffff84811661010090920416146117655760065461175e9061175290610100900464ffffffffff1662015180615a07565b64ffffffffff16614b99565b9050611771565b61176e42614b99565b90505b6000805b6003811161258c5760008161178b575060208301515b60018203611797575082515b600282036117a6575060408301515b600382036117b5575060608301515b6000828152600a6020908152604080832061ffff85168452909152812054905b81811015612576576000848152600a6020908152604080832061ffff871684529091528120805491985090829081106118105761181061591b565b906000526020600020906004020160030160159054906101000a900460ff1661256e57604080516080810182526000868152600a602090815283822061ffff88168352905291822080548291908590811061186d5761186d61591b565b600091825260208083206004909202909101548352888252600a8152604080832061ffff8a168452825290912080549290910191859081106118b1576118b161591b565b60009182526020808320600360049093020191909101546001600160a01b03168352888252600a8152604080832061ffff8a168452825290912080549290910191859081106119025761190261591b565b60009182526020808320600260049093020191909101546001600160a01b03168352888252600a8152604080832061ffff8a16845282528220805493909101926005929190879081106119575761195761591b565b60009182526020808320600360049093020191909101546001600160a01b0316835282810193909352604091820181206002015460ff16909352888352600a825280832061ffff891684529091528120805492935090916119df9190859081106119c3576119c361591b565b9060005260206000209060040201600101548360600151614788565b9050600081612710600054846119f591906159f0565b6119ff91906159ac565b611a099190615a27565b83516000908152600b602052604081205491925090818115611a3357611a30600183615a27565b90505b60005b82811015612566576002548c03611b9e57604080518082019091528751808252602091820183905260035560048290556006805460ff1916905587015160608801516001600160a01b039091169063a9059cbb903390611a97908890614788565b6040516001600160e01b031960e085901b1681526001600160a01b03909216600483015260248201526044016020604051808303816000875af1158015611ae2573d6000803e3d6000fd5b505050506040513d601f19601f82011682018060405250810190611b0691906159d3565b611b375760405162461bcd60e51b8152602060048201526002602482015261191960f11b60448201526064016104c3565b6006546040805164ffffffffff428116825261010090930492909216602083015260009082015233907f90192d7875364a53e351ae63fd2dfef8dc941735b29fb0c504d06a0e21ae602e9060600160405180910390a2505050505050505050505050505050565b6003548751148015611bb1575060045481145b15611bc4576006805460ff191660011790555b6003541580611bda575060065460ff1615156001145b1561255e5786516000908152600b60205260408120805483908110611c0157611c0161591b565b6000918252602091829020015490890151604051636eb1769f60e11b81526001600160a01b0392831660048201819052306024830152935089929091169063dd62ed3e906044016020604051808303816000875af1158015611c67573d6000803e3d6000fd5b505050506040513d601f19601f82011682018060405250810190611c8b9190615967565b10158015611d08575060208801516040516370a0823160e01b81526001600160a01b038381166004830152899216906370a08231906024016020604051808303816000875af1158015611ce2573d6000803e3d6000fd5b505050506040513d601f19601f82011682018060405250810190611d069190615967565b115b1561213f578c611d1781615a3a565b895160009081526009602090815260408083206001600160a01b0387168452909152902054909e508710159050611ec057611d5286866159c0565b885160009081526009602090815260408083206001600160a01b0386168452909152812080549297508892909190611d8b908490615a27565b92505081905550806001600160a01b031688604001516001600160a01b03168960000151600080516020615d42833981519152428b8d602001516005604051611dd794939291906158ea565b60405180910390a4806001600160a01b031688604001516001600160a01b03168960000151600080516020615d428339815191524260008d602001516002604051611e2594939291906158ea565b60405180910390a460208801516040808a015190516323b872dd60e01b81526001600160a01b0384811660048301529182166024820152604481018a90529116906323b872dd906064016020604051808303816000875af1158015611e8e573d6000803e3d6000fd5b505050506040513d601f19601f82011682018060405250810190611eb291906159d3565b611ebb57600080fd5b612367565b875160009081526009602090815260408083206001600160a01b0385168452909152902054611eef90866159c0565b885160009081526009602090815260408083206001600160a01b0380871680865291845282852094909455818d01518d51938e01519251959a509094931692600080516020615d4283398151915291611f4e9142918e916008906158ea565b60405180910390a486600160028e9003611f7857611f6d6003836159ac565b915060029050611f92565b8d600303611f9257611f8b600c836159ac565b9150600b90505b895160009081526009602090815260408083206001600160a01b038716845290915281208054849290611fc69084906159c0565b9250508190555089602001516001600160a01b03166323b872dd8430611ff0868f60600151614788565b6040516001600160e01b031960e086901b1681526001600160a01b03938416600482015292909116602483015260448201526064016020604051808303816000875af1158015612044573d6000803e3d6000fd5b505050506040513d601f19601f8201168201806040525081019061206891906159d3565b61207157600080fd5b8d6002148061208057508d6003145b156121385789602001516001600160a01b03166323b872dd848c604001516120b785876120ad91906159f0565b8f60600151614788565b6040516001600160e01b031960e086901b1681526001600160a01b03938416600482015292909116602483015260448201526064016020604051808303816000875af115801561210b573d6000803e3d6000fd5b505050506040513d601f19601f8201168201806040525081019061212f91906159d3565b61213857600080fd5b5050612367565b8c61214981615a3a565b895160009081526009602090815260408083206001600160a01b0387168452909152902054909e5087101590506122bf5761218486866159c0565b885160009081526009602090815260408083206001600160a01b0386168452909152812054919650906121b8908890615a27565b895160009081526009602090815260408083206001600160a01b0380881680865291845282852094909455818e01518e51938f015192519596509094931692600080516020615d428339815191529161221791429188916004906158ea565b60405180910390a488602001516001600160a01b031663a9059cbb8a60400151612245848d60600151614788565b6040516001600160e01b031960e085901b1681526001600160a01b03909216600483015260248201526044016020604051808303816000875af1158015612290573d6000803e3d6000fd5b505050506040513d601f19601f820116820180604052508101906122b491906159d3565b6122bd57600080fd5b505b87516122cb9082614a44565b806001600160a01b031688604001516001600160a01b03168960000151600080516020615d42833981519152428b8d60200151600760405161231094939291906158ea565b60405180910390a4806001600160a01b031688604001516001600160a01b03168960000151600080516020615d428339815191524260008d60200151600360405161235e94939291906158ea565b60405180910390a45b82821480156123765750600084115b1561255c57600654600160d01b900460ff161561249a57600085612710600154886123a191906159f0565b6123ab91906159ac565b6123b59190615a27565b90506123c18187615a27565b955088602001516001600160a01b031663a9059cbb60068054906101000a90046001600160a01b03166123f8848d60600151614788565b6040516001600160e01b031960e085901b1681526001600160a01b03909216600483015260248201526044016020604051808303816000875af1158015612443573d6000803e3d6000fd5b505050506040513d601f19601f8201168201806040525081019061246791906159d3565b6124985760405162461bcd60e51b8152602060048201526002602482015261191960f11b60448201526064016104c3565b505b87602001516001600160a01b031663a9059cbb336124bc888c60600151614788565b6040516001600160e01b031960e085901b1681526001600160a01b03909216600483015260248201526044016020604051808303816000875af1158015612507573d6000803e3d6000fd5b505050506040513d601f19601f8201168201806040525081019061252b91906159d3565b61255c5760405162461bcd60e51b8152602060048201526002602482015261191960f11b60448201526064016104c3565b505b600101611a36565b505050505050505b6001016117d5565b505050808061258490615a3a565b915050611775565b50600060038190556004556006805460ff1916908190556040805164ffffffffff4281168252610100909304909216602083015260019082015233907f90192d7875364a53e351ae63fd2dfef8dc941735b29fb0c504d06a0e21ae602e9060600160405180910390a26001600660018282829054906101000a900464ffffffffff166126189190615a53565b92506101000a81548164ffffffffff021916908364ffffffffff16021790555082156111c8576111c8611690565b6000818152600b60205260408120546060919067ffffffffffffffff811115612671576126716151e0565b60405190808252806020026020018201604052801561269a578160200160208202803683370190505b506000848152600b602090815260409182902080548351818402810184019094528084529394509192908301828280156126fd57602002820191906000526020600020905b81546001600160a01b031681526001909101906020018083116126df575b5050506000868152600b60205260408120549394509291505067ffffffffffffffff81111561272e5761272e6151e0565b60405190808252806020026020018201604052801561277357816020015b604080518082019091526000808252602082015281526020019060019003908161274c5790505b50905060005b8251811015612834576000858152600960205260408120845182908690859081106127a6576127a661591b565b60200260200101516001600160a01b03166001600160a01b03168152602001908152602001600020549050600060405180604001604052808685815181106127f0576127f061591b565b60200260200101516001600160a01b031681526020018381525090508084848151811061281f5761281f61591b565b60209081029190910101525050600101612779565b509392505050565b606080831561293c576001600160a01b038316600090815260076020908152604080832060010180548251818502810185019093528083529193909284015b82821015612931576000848152602090819020604080516080810182526002860290920180548352600181015461ffff81169484019490945291929083019062010000900460ff1660038111156128d4576128d461510f565b60038111156128e5576128e561510f565b81526020016001820160039054906101000a900460ff16600281111561290d5761290d61510f565b600281111561291e5761291e61510f565b815250508152602001906001019061287b565b505050509050612a2f565b6001600160a01b038316600090815260076020908152604080832060020180548251818502810185019093528083529193909284015b82821015612a28576000848152602090819020604080516080810182526002860290920180548352600181015461ffff81169484019490945291929083019062010000900460ff1660038111156129cb576129cb61510f565b60038111156129dc576129dc61510f565b81526020016001820160039054906101000a900460ff166002811115612a0457612a0461510f565b6002811115612a1557612a1561510f565b8152505081526020019060010190612972565b5050505090505b6000815167ffffffffffffffff811115612a4b57612a4b6151e0565b604051908082528060200260200182016040528015612ad157816020015b60408051610160810182526000606082018181526080830182905260a0830182905260c0830182905260e0830182905261010083018290526101208301829052610140830182905282526020808301829052928201528252600019909201910181612a695790505b50905060005b8251811015612c2857612b42838281518110612af557612af561591b565b602002602001015160000151848381518110612b1357612b1361591b565b602002602001015160400151858481518110612b3157612b3161591b565b602002602001015160200151610925565b828281518110612b5457612b5461591b565b602002602001015160000181905250828181518110612b7557612b7561591b565b602002602001015160600151828281518110612b9357612b9361591b565b6020026020010151602001906002811115612bb057612bb061510f565b90816002811115612bc357612bc361510f565b81525050600b6000838381518110612bdd57612bdd61591b565b60200260200101516000015160000151815260200190815260200160002080549050828281518110612c1157612c1161591b565b602090810291909101015160400152600101612ad7565b509150505b92915050565b612c3b6143af565b612c518135610b1b610100840160e08501615931565b612c815760405162461bcd60e51b81526020600482015260016024820152603760f81b60448201526064016104c3565b612c916060820160408301615462565b6001600160a01b0316336001600160a01b031614612cd65760405162461bcd60e51b8152602060048201526002602482015261323360f01b60448201526064016104c3565b33600090815260076020908152604080832060020180548251818502810185019093528083529192909190849084015b82821015612dbc576000848152602090819020604080516080810182526002860290920180548352600181015461ffff81169484019490945291929083019062010000900460ff166003811115612d5f57612d5f61510f565b6003811115612d7057612d7061510f565b81526020016001820160039054906101000a900460ff166002811115612d9857612d9861510f565b6002811115612da957612da961510f565b8152505081526020019060010190612d06565b5050336000908152600760205260408120600201549394509150505b81811015612e70578360000135838281518110612df757612df761591b565b60200260200101516000015103612e685733600090815260076020526040902060020180546001919083908110612e3057612e3061591b565b906000526020600020906002020160010160036101000a81548160ff02191690836002811115612e6257612e6261510f565b02179055505b600101612dd8565b5082356000908152600b6020908152604080832080548251818502810185019093528083529192909190830182828015612ed357602002820191906000526020600020905b81546001600160a01b03168152600190910190602001808311612eb5575b5050505050905060005b8151811015613413578435600090815260096020526040812083518290859085908110612f0c57612f0c61591b565b60200260200101516001600160a01b03166001600160a01b03168152602001908152602001600020549050828281518110612f4957612f4961591b565b60200260200101516001600160a01b0316866040016020810190612f6d9190615462565b6001600160a01b03168735600080516020615d428339815191524285612f9960808d0160608e01615462565b6009604051612fab94939291906158ea565b60405180910390a4853560009081526009602052604081208451909190859085908110612fda57612fda61591b565b60200260200101516001600160a01b03166001600160a01b03168152602001908152602001600020600090558560600160208101906130199190615462565b6001600160a01b031663a9059cbb8484815181106130395761303961591b565b602002602001015161305c84600560008c6060016020810190610b7f9190615462565b6040516001600160e01b031960e085901b1681526001600160a01b03909216600483015260248201526044016020604051808303816000875af11580156130a7573d6000803e3d6000fd5b505050506040513d601f19601f820116820180604052508101906130cb91906159d3565b6130fc5760405162461bcd60e51b8152602060048201526002602482015261323160f01b60448201526064016104c3565b6000600760008585815181106131145761311461591b565b60200260200101516001600160a01b03166001600160a01b031681526020019081526020016000206001018054905067ffffffffffffffff81111561315b5761315b6151e0565b6040519080825280602002602001820160405280156131b657816020015b6131a360408051608081018252600080825260208201819052909182019081526020016000905290565b8152602001906001900390816131795790505b509050600760008585815181106131cf576131cf61591b565b60200260200101516001600160a01b03166001600160a01b03168152602001908152602001600020600101805480602002602001604051908101604052809291908181526020016000905b828210156132d0576000848152602090819020604080516080810182526002860290920180548352600181015461ffff81169484019490945291929083019062010000900460ff1660038111156132735761327361510f565b60038111156132845761328461510f565b81526020016001820160039054906101000a900460ff1660028111156132ac576132ac61510f565b60028111156132bd576132bd61510f565b815250508152602001906001019061321a565b50505050905060005b600760008686815181106132ef576132ef61591b565b60200260200101516001600160a01b03166001600160a01b03168152602001908152602001600020600101805490508110156133e157876000013582828151811061333c5761333c61591b565b602002602001015160000151036133d9576001600760008787815181106133655761336561591b565b60200260200101516001600160a01b03166001600160a01b0316815260200190815260200160002060010182815481106133a1576133a161591b565b906000526020600020906002020160010160036101000a81548160ff021916908360028111156133d3576133d361510f565b02179055505b6001016132d9565b5061340987600001358585815181106133fc576133fc61591b565b6020026020010151614a44565b5050600101612edd565b506000600a8161342960e0880160c0890161594c565b600381111561343a5761343a61510f565b815260200190815260200160002060008660e001602081019061345d9190615931565b61ffff1661ffff168152602001908152602001600020805480602002602001604051908101604052809291908181526020016000905b8282101561356a5760008481526020908190206040805161010081018252600486029092018054835260018101549383019390935260028301546001600160a01b0390811691830191909152600380840154918216606084015260ff600160a01b8304811615156080850152600160a81b83048116151560a085015292939260c0850192600160b01b9004169081111561352f5761352f61510f565b60038111156135405761354061510f565b81526003919091015461ffff600160b81b9091041660209182015290825260019092019101613493565b50505050905060005b81518110156136465785600001358282815181106135935761359361591b565b6020026020010151600001510361363e576001600a60006135ba60e08a0160c08b0161594c565b60038111156135cb576135cb61510f565b815260200190815260200160002060008860e00160208101906135ee9190615931565b61ffff1661ffff16815260200190815260200160002082815481106136155761361561591b565b906000526020600020906004020160030160156101000a81548160ff0219169083151502179055505b600101613573565b506000338635600080516020615d42833981519152428461366d60808c0160608d01615462565b600160405161367f94939291906158ea565b60405180910390a45050505050565b6136966146b4565b600055565b6136a36146b4565b6001600160a01b0381166136b657600080fd5b600680546001600160a01b039092166601000000000000027fffffffffffff0000000000000000000000000000000000000000ffffffffffff909216919091179055565b6137026143af565b33600090815260076020908152604080832060020180548251818502810185019093528083529192909190849084015b828210156137e8576000848152602090819020604080516080810182526002860290920180548352600181015461ffff81169484019490945291929083019062010000900460ff16600381111561378b5761378b61510f565b600381111561379c5761379c61510f565b81526020016001820160039054906101000a900460ff1660028111156137c4576137c461510f565b60028111156137d5576137d561510f565b8152505081526020019060010190613732565b5050505090506000805b82518110156138305784600001518382815181106138125761381261591b565b6020026020010151600001510361382857600191505b6001016137f2565b50806138635760405162461bcd60e51b8152602060048201526002602482015261062760f31b60448201526064016104c3565b83516000908152600b60209081526040808320805482518185028101850190935280835291929091908301828280156138c557602002820191906000526020600020905b81546001600160a01b031681526001909101906020018083116138a7575b505050505090506000805b825181101561398057856001600160a01b03168382815181106138f5576138f561591b565b60200260200101516001600160a01b031603613978576001600160a01b038616600090815260076020526040902060019081018054919350600291839081106139405761394061591b565b906000526020600020906002020160010160036101000a81548160ff021916908360028111156139725761397261510f565b02179055505b6001016138d0565b50806139b35760405162461bcd60e51b8152602060048201526002602482015261313960f01b60448201526064016104c3565b85516139bf9086614a44565b846001600160a01b031686604001516001600160a01b03168760000151600080516020615d42833981519152428a602001518b606001516007604051613a0894939291906158ea565b60405180910390a4855160009081526009602081815260408084206001600160a01b03808b16808752918452828620548c51875285855283872083885290945282862095909555818b01518b5160608d015193519496929591909216939192600080516020615d4283398151915292613a8792429289929091906158ea565b60405180910390a460608701516001600160a01b031660008181526005602052604090206002015463a9059cbb908890613ac590859060ff16614788565b6040516001600160e01b031960e085901b1681526001600160a01b03909216600483015260248201526044016020604051808303816000875af1158015613b10573d6000803e3d6000fd5b505050506040513d601f19601f82011682018060405250810190613b3491906159d3565b613b655760405162461bcd60e51b8152602060048201526002602482015261323160f01b60448201526064016104c3565b50505050505050565b613b766146b4565b60068054911515600160d01b0260ff60d01b19909216919091179055565b6000613b9f33614185565b9050806020015115613c465760005b8160600151518110156111c8578282606001518281518110613bd257613bd261591b565b60200260200101516000015103613c3e5764ffffffffff421633847f93cda0785d40b289a535b99dc76d4c9cbb6d8146182861ac3ad40509398b1865613c188880615831565b613c2560208b018b615831565b604051613c3594939291906158a8565b60405180910390a45b600101613bae565b505050565b60606000613c5842614b8a565b60065490915064ffffffffff610100909104811690821611613ca15760405162461bcd60e51b81526020600482015260026024820152610c4d60f21b60448201526064016104c3565b6000613cac42614b99565b9050600080600060025467ffffffffffffffff811115613cce57613cce6151e0565b604051908082528060200260200182016040528015613d1357816020015b6040805180820190915260008082526020820152815260200190600190039081613cec5790505b50905060005b60038111613fde57600081613d2f575060208501515b60018203613d3b575084515b60028203613d4a575060408501515b60038203613d59575060608501515b60005b6000838152600a6020908152604080832061ffff86168452909152902054811015613fc9576000838152600a6020908152604080832061ffff861684529091529020805482908110613db057613db061591b565b906000526020600020906004020160030160159054906101000a900460ff16613fc1576000838152600a6020908152604080832061ffff861684529091528120805483908110613e0257613e0261591b565b60009182526020808320600490920290910154868352600a8252604080842061ffff8816855290925290822080549193509084908110613e4457613e4461591b565b6000918252602080832060036004909302019190910154878352600a8252604080842061ffff8916855290925290822080546001600160a01b0390921693509085908110613e9457613e9461591b565b9060005260206000209060040201600101549050613ece60405180604001604052806000815260200160006001600160a01b031681525090565b60008261271060005485613ee291906159f0565b613eec91906159ac565b613ef69190615a27565b90506000805b6000878152600b6020526040902054811015613fb9576002548d03613f2f5750989e9d5050505050505050505050505050565b6003541580613f45575060065460ff1615156001145b15613fb1578c613f5481615a3a565b9d50613f62905083836159c0565b91506040518060400160405280838152602001876001600160a01b03168152509350838b8d81518110613f9757613f9761591b565b60200260200101819052508b80613fad90615a3a565b9c50505b600101613efc565b505050505050505b600101613d5c565b50508080613fd690615a3a565b915050613d19565b506000805b82518110156140335760006001600160a01b03168382815181106140095761400961591b565b6020026020010151602001516001600160a01b03160361402b57809150614033565b600101613fe3565b5060008167ffffffffffffffff81111561404f5761404f6151e0565b60405190808252806020026020018201604052801561409457816020015b604080518082019091526000808252602082015281526020019060019003908161406d5790505b50905060005b828110156140e1578381815181106140b4576140b461591b565b60200260200101518282815181106140ce576140ce61591b565b602090810291909101015260010161409a565b50979650505050505050565b4264ffffffffff16336001600160a01b03167f34f43abf7a52b609b04511ed963a29ebb76ae3e0ca0ff5594be1c2a84ebd03f2836000015184602001518560400151866060015187608001518860a0015160405161415096959493929190615ab6565b60405180910390a350565b6008818154811061416b57600080fd5b6000918252602090912001546001600160a01b0316905081565b60408051608081018252600080825260208201526060918101829052818101919091526001600160a01b038281166000908152600760209081526040808320815160808101835281549586168152600160a01b90950460ff1615158584015260018101805483518186028101860185528181529295938701949293919290919084015b828210156142be576000848152602090819020604080516080810182526002860290920180548352600181015461ffff81169484019490945291929083019062010000900460ff1660038111156142615761426161510f565b60038111156142725761427261510f565b81526020016001820160039054906101000a900460ff16600281111561429a5761429a61510f565b60028111156142ab576142ab61510f565b8152505081526020019060010190614208565b50505050815260200160028201805480602002602001604051908101604052809291908181526020016000905b828210156143a1576000848152602090819020604080516080810182526002860290920180548352600181015461ffff81169484019490945291929083019062010000900460ff1660038111156143445761434461510f565b60038111156143555761435561510f565b81526020016001820160039054906101000a900460ff16600281111561437d5761437d61510f565b600281111561438e5761438e61510f565b81525050815260200190600101906142eb565b505050915250909392505050565b336143e05760405162461bcd60e51b81526020600482015260016024820152603360f81b60448201526064016104c3565b565b6001600160a01b038116600090815260056020526040812060020154610100900460ff16614411576000612c2d565b600192915050565b6040805161010081018252600080825260208201819052918101829052606081018290526080810182905260a0810182905260c0810182905260e08101919091526040516bffffffffffffffffffffffff193360601b16602082015244603482015242605482015260009060740160408051601f1981840301815282825280516020918201206101008401835280845290830189905233918301919091526001600160a01b038716606083015260016080830152600060a0830152915060c081018560038111156144ec576144ec61510f565b81526020018461ffff16815250915050949350505050565b33600090815260076020526040812054600160a01b900460ff16151590036145925733600081815260076020526040812080546001600160a01b03199081168417825560088054600181019091557ff3f7a9fe364faab93b216da50a3214154f22a0a2b415b23a84c8169e8b636ee301805490911684179055919052805460ff60a01b1916600160a01b1790555b80156146445733600090815260076020908152604080832060029081018054600180820183559186529484902087519590920290910193845591850151918301805461ffff19811661ffff909416938417825591860151869493909262ffffff1916176201000083600381111561460b5761460b61510f565b0217905550606082015160018201805463ff000000191663010000008360028111156146395761463961510f565b021790555050505050565b33600090815260076020908152604080832060019081018054808301825590855293839020865160029095020193845591850151918301805461ffff19811661ffff909416938417825591860151869493909262ffffff1916176201000083600381111561460b5761460b61510f565b600654660100000000000090046001600160a01b031633146143e05760405162461bcd60e51b8152602060048201526002602482015261189b60f11b60448201526064016104c3565b60008060405180608001604052808781526020018661ffff16815260200185600381111561472d5761472d61510f565b81526020018460028111156147445761474461510f565b81525090506000614762826000015183604001518460200151610925565b905080608001511561477957600192505050614780565b6000925050505b949350505050565b6000601260ff83168110156147be576147a18184615b38565b6147ac90600a615c38565b6147b690856159f0565b915050612c2d565b8060ff168360ff1610156147eb576147d68382615b38565b6147e190600a615c38565b6147b690856159ac565b83915050612c2d565b5092915050565b60008061480786614b99565b905060008060008560ff1660000361482d57836020015161ffff169250600791506148b4565b8560ff1660010361486457614852846080015161ffff168560a0015161ffff16614e30565b845161ffff16935091508190506148b4565b8560ff1660020361489857614889846060015161ffff16856080015161ffff16614eb6565b61ffff169250605a91506148b4565b8560ff166003036148b457836060015161ffff16925061016d91505b8560ff1660010361496f57600061016d6148cf89600c6159f0565b6148d991906159ac565b9050838964ffffffffff16141580156148f857508864ffffffffff1684115b156149295761490e64ffffffffff8a1685615a27565b6149189084615a27565b61492290826159f0565b9750614969565b838964ffffffffff161415801561494657508864ffffffffff1684105b156149695761495c8464ffffffffff8b16615a27565b61496690826159f0565b97505b50614a37565b60ff8616158061498257508560ff166002145b8061499057508560ff166003145b15614a3757828864ffffffffff16141580156149b257508764ffffffffff1683115b156149ed576149c864ffffffffff891684615a27565b6149d29083615a27565b6149dc83896159ac565b6149e691906159f0565b9650614a37565b828864ffffffffff1614158015614a0a57508764ffffffffff1683105b15614a3757614a208364ffffffffff8a16615a27565b614a2a83896159ac565b614a3491906159f0565b96505b5094979650505050505050565b6000828152600b602052604081208054909190815b81811015614ad257846001600160a01b0316848281548110614a7d57614a7d61591b565b6000918252602090912001546001600160a01b031603614aca57809250838181548110614aac57614aac61591b565b600091825260209091200180546001600160a01b0319169055614ad2565b600101614a59565b5082548390614ae390600190615a27565b81548110614af357614af361591b565b9060005260206000200160009054906101000a90046001600160a01b0316838381548110614b2357614b2361591b565b9060005260206000200160006101000a8154816001600160a01b0302191690836001600160a01b0316021790555082805480614b6157614b61615c47565b600082815260209020810160001990810180546001600160a01b03191690550190555050505050565b6000612c2d6201518083615c5d565b6040805160c081018252600080825260208201819052918101829052606081018290526080810182905260a0810182905290614bd862015180846159ac565b90506000808281614bec8262010bd9615c87565b614bf99062253d8c615c87565b9050600062023ab1614c0c836004615caf565b614c169190615cdf565b90506004614c278262023ab1615caf565b614c32906003615c87565b614c3c9190615cdf565b614c469083615d0d565b9150600062164b09614c59846001615c87565b614c6590610fa0615caf565b614c6f9190615cdf565b90506004614c7f826105b5615caf565b614c899190615cdf565b614c939084615d0d565b614c9e90601f615c87565b9250600061098f614cb0856050615caf565b614cba9190615cdf565b905060006050614ccc8361098f615caf565b614cd69190615cdf565b614ce09086615d0d565b9050614ced600b83615cdf565b9450614cfa85600c615caf565b614d05836002615c87565b614d0f9190615d0d565b91508483614d1e603187615d0d565b614d29906064615caf565b614d339190615c87565b614d3d9190615c87565b909750915086828282600060015b838111614d9757838103614d6e57614d6761ffff8e16836159c0565b9150614d85565b614d788585614e30565b614d8290836159c0565b91505b80614d8f81615a3a565b915050614d4b565b50809a50614da98b61ffff1685614eb6565b61ffff1660408f0152614dbb8f614f7a565b8e6020019061ffff16908161ffff16815250508b8e6000019061ffff16908161ffff16815250508a8e6060019061ffff16908161ffff1681525050838e6080019061ffff16908161ffff1681525050828e60a0019061ffff16908161ffff168152505050505050505050505050505050919050565b60008160011480614e415750816003145b80614e4c5750816005145b80614e575750816007145b80614e625750816008145b80614e6d575081600a145b80614e78575081600c145b15614e855750601f612c2d565b81600214614e955750601e612c2d565b614e9e83614fb0565b614ea957601c614eac565b601d5b60ff169392505050565b600080614ec283614fb0565b15614ecf57506001614ed3565b5060005b614ede81605a6159c0565b8411614eec578391506147f4565b83614ef882605a6159c0565b108015614f0f5750614f0b8160b56159c0565b8411155b15614f3057614f1f81605a6159c0565b614f299085615a27565b91506147f4565b83614f3c8260b56159c0565b108015614f545750614f50816101116159c0565b8411155b15614f6457614f1f8160b56159c0565b614f70816101116159c0565b6147809085615a27565b600080614f8a62015180846159ac565b905060006007614f9b8360036159c0565b614fa59190615d2d565b6147809060016159c0565b6000614fbd600483615d2d565b158015614fd35750614fd0606483615d2d565b15155b80612c2d5750614fe561019083615d2d565b1592915050565b80356001600160a01b038116811461500357600080fd5b919050565b60006040828403121561501a57600080fd5b50919050565b80356004811061500357600080fd5b803561ffff8116811461500357600080fd5b600080600080600060a0868803121561505957600080fd5b8535945061506960208701614fec565b9350604086013567ffffffffffffffff81111561508557600080fd5b61509188828901615008565b9350506150a060608701615020565b91506150ae6080870161502f565b90509295509295909350565b6000602082840312156150cc57600080fd5b5035919050565b6000806000606084860312156150e857600080fd5b833592506150f860208501615020565b91506151066040850161502f565b90509250925092565b634e487b7160e01b600052602160045260246000fd5b600481106151355761513561510f565b9052565b80518252602081015160208301526001600160a01b0360408201511660408301526001600160a01b03606082015116606083015260808101511515608083015260a081015161518c60a084018215159052565b5060c081015161519f60c0840182615125565b5060e0810151613c4660e084018261ffff169052565b6101008101612c2d8284615139565b60006101008284031280156151d857600080fd5b509092915050565b634e487b7160e01b600052604160045260246000fd5b604051610100810167ffffffffffffffff8111828210171561521a5761521a6151e0565b60405290565b60405160c0810167ffffffffffffffff8111828210171561521a5761521a6151e0565b801515811461525157600080fd5b50565b803561500381615243565b6000610100828403121561527257600080fd5b61527a6151f6565b8235815260208084013590820152905061529660408301614fec565b60408201526152a760608301614fec565b606082015260808201356152ba81615243565b60808201526152cb60a08301615254565b60a08201526152dc60c08301615020565b60c08201526152ed60e0830161502f565b60e082015292915050565b6000610100828403121561530b57600080fd5b615315838361525f565b9392505050565b60008060006060848603121561533157600080fd5b61533a84614fec565b925060208401359150604084013560ff8116811461535757600080fd5b809150509250925092565b602080825282518282018190526000918401906040840190835b818110156153af57835180516001600160a01b03168452602090810151818501529093019260409092019160010161537c565b509095945050505050565b600080604083850312156153cd57600080fd5b82356153d881615243565b91506153e660208401614fec565b90509250929050565b600381106151355761513561510f565b602080825282518282018190526000918401906040840190835b818110156153af57835161542e848251615139565b60208101516154416101008601826153ef565b50604001516101208401526020939093019261014090920191600101615419565b60006020828403121561547457600080fd5b61531582614fec565b600080610120838503121561549157600080fd5b61549b848461525f565b91506153e66101008401614fec565b6000602082840312156154bc57600080fd5b813561531581615243565b600080604083850312156154da57600080fd5b823567ffffffffffffffff8111156154f157600080fd5b6154fd85828601615008565b95602094909401359450505050565b602080825282518282018190526000918401906040840190835b818110156153af578351805184526020908101516001600160a01b03168185015290930192604090920191600101615526565b6000806040838503121561556c57600080fd5b823591506153e660208401614fec565b600082601f83011261558d57600080fd5b813567ffffffffffffffff8111156155a7576155a76151e0565b604051601f8201601f19908116603f0116810167ffffffffffffffff811182821017156155d6576155d66151e0565b6040528181528382016020018510156155ee57600080fd5b816020850160208301376000918101602001919091529392505050565b60006020828403121561561d57600080fd5b813567ffffffffffffffff81111561563457600080fd5b820160c0818503121561564657600080fd5b61564e615220565b813567ffffffffffffffff81111561566557600080fd5b6156718682850161557c565b825250602082013567ffffffffffffffff81111561568e57600080fd5b61569a8682850161557c565b602083015250604082013567ffffffffffffffff8111156156ba57600080fd5b6156c68682850161557c565b604083015250606082013567ffffffffffffffff8111156156e657600080fd5b6156f28682850161557c565b606083015250608082013567ffffffffffffffff81111561571257600080fd5b61571e8682850161557c565b60808301525060a082013567ffffffffffffffff81111561573e57600080fd5b61574a8682850161557c565b60a083015250949350505050565b600081518084526020840193506020830160005b828110156157c65781518051875261ffff6020820151166020880152604081015161579a6040890182615125565b50606081015190506157af60608801826153ef565b50608095909501946020919091019060010161576c565b5093949350505050565b602081526001600160a01b038251166020820152602082015115156040820152600060408301516080606084015261580b60a0840182615758565b90506060840151601f198483030160808501526158288282615758565b95945050505050565b6000808335601e1984360301811261584857600080fd5b83018035915067ffffffffffffffff82111561586357600080fd5b60200191503681900382131561587857600080fd5b9250929050565b81835281816020850137506000828201602090810191909152601f909101601f19169091010190565b6040815260006158bc60408301868861587f565b82810360208401526158cf81858761587f565b979650505050505050565b600a81106151355761513561510f565b64ffffffffff85168152602081018490526001600160a01b03831660408201526080810161582860608301846158da565b634e487b7160e01b600052603260045260246000fd5b60006020828403121561594357600080fd5b6153158261502f565b60006020828403121561595e57600080fd5b61531582615020565b60006020828403121561597957600080fd5b5051919050565b634e487b7160e01b600052601260045260246000fd5b634e487b7160e01b600052601160045260246000fd5b6000826159bb576159bb615980565b500490565b80820180821115612c2d57612c2d615996565b6000602082840312156159e557600080fd5b815161531581615243565b8082028115828204841417612c2d57612c2d615996565b64ffffffffff81811683821602908116908181146147f4576147f4615996565b81810381811115612c2d57612c2d615996565b600060018201615a4c57615a4c615996565b5060010190565b64ffffffffff8181168382160190811115612c2d57612c2d615996565b6000815180845260005b81811015615a9657602081850181015186830182015201615a7a565b506000602082860101526020601f19601f83011685010191505092915050565b60c081526000615ac960c0830189615a70565b8281036020840152615adb8189615a70565b90508281036040840152615aef8188615a70565b90508281036060840152615b038187615a70565b90508281036080840152615b178186615a70565b905082810360a0840152615b2b8185615a70565b9998505050505050505050565b60ff8281168282160390811115612c2d57612c2d615996565b6001815b6001841115615b8c57808504811115615b7057615b70615996565b6001841615615b7e57908102905b60019390931c928002615b55565b935093915050565b600082615ba357506001612c2d565b81615bb057506000612c2d565b8160018114615bc65760028114615bd057615bec565b6001915050612c2d565b60ff841115615be157615be1615996565b50506001821b612c2d565b5060208310610133831016604e8410600b8410161715615c0f575081810a612c2d565b615c1c6000198484615b51565b8060001904821115615c3057615c30615996565b029392505050565b600061531560ff841683615b94565b634e487b7160e01b600052603160045260246000fd5b600064ffffffffff831680615c7457615c74615980565b8064ffffffffff84160491505092915050565b8082018281126000831280158216821582161715615ca757615ca7615996565b505092915050565b80820260008212600160ff1b84141615615ccb57615ccb615996565b8181058314821517612c2d57612c2d615996565b600082615cee57615cee615980565b600160ff1b821460001984141615615d0857615d08615996565b500590565b81810360008312801583831316838312821617156147f4576147f4615996565b600082615d3c57615d3c615980565b50069056feca6b824caf1a48ea2ad039dbb063460fa30e9c3cc255eeb52240d638ec6de65ea2646970667358221220675347a7488bac7331c8d9c436103e0cedf99bc9a17bfdec479a6d47d49dbb3a64736f6c634300081b0033",
  "linkReferences": {},
  "deployedLinkReferences": {}
}