{
  "_format": "hh-sol-artifact-1",
  "contractName": "ClockTowerSubscribe",
  "sourceName": "contracts/ClockTowerSubscribe.sol",
  "abi": [
    {
      "inputs": [],
      "stateMutability": "payable",
      "type": "constructor"
    },
    {
      "anonymous": false,
      "inputs": [
        {
          "indexed": false,
          "internalType": "uint40",
          "name": "timestamp",
          "type": "uint40"
        },
        {
          "indexed": false,
          "internalType": "uint40",
          "name": "checkedDay",
          "type": "uint40"
        },
        {
          "indexed": true,
          "internalType": "address",
          "name": "caller",
          "type": "address"
        },
        {
          "indexed": false,
          "internalType": "bool",
          "name": "isFinished",
          "type": "bool"
        }
      ],
      "name": "CallerLog",
      "type": "event"
    },
    {
      "anonymous": false,
      "inputs": [
        {
          "indexed": true,
          "internalType": "bytes32",
          "name": "id",
          "type": "bytes32"
        },
        {
          "indexed": true,
          "internalType": "address",
          "name": "provider",
          "type": "address"
        },
        {
          "indexed": false,
          "internalType": "uint40",
          "name": "timestamp",
          "type": "uint40"
        },
        {
          "indexed": false,
          "internalType": "uint256",
          "name": "amount",
          "type": "uint256"
        },
        {
          "indexed": true,
          "internalType": "enum ClockTowerSubscribe.ProvEvent",
          "name": "provEvent",
          "type": "uint8"
        }
      ],
      "name": "ProviderLog",
      "type": "event"
    },
    {
      "anonymous": false,
      "inputs": [
        {
          "indexed": true,
          "internalType": "bytes32",
          "name": "id",
          "type": "bytes32"
        },
        {
          "indexed": true,
          "internalType": "address",
          "name": "subscriber",
          "type": "address"
        },
        {
          "indexed": false,
          "internalType": "uint40",
          "name": "timestamp",
          "type": "uint40"
        },
        {
          "indexed": false,
          "internalType": "uint256",
          "name": "amount",
          "type": "uint256"
        },
        {
          "indexed": true,
          "internalType": "enum ClockTowerSubscribe.SubEvent",
          "name": "subEvent",
          "type": "uint8"
        }
      ],
      "name": "SubscriberLog",
      "type": "event"
    },
    {
      "stateMutability": "payable",
      "type": "fallback"
    },
    {
      "inputs": [
        {
          "internalType": "address",
          "name": "erc20Contract",
          "type": "address"
        },
        {
          "internalType": "uint256",
          "name": "minimum",
          "type": "uint256"
        }
      ],
      "name": "addERC20Contract",
      "outputs": [],
      "stateMutability": "nonpayable",
      "type": "function"
    },
    {
      "inputs": [],
      "name": "admin",
      "outputs": [
        {
          "internalType": "address payable",
          "name": "",
          "type": "address"
        }
      ],
      "stateMutability": "view",
      "type": "function"
    },
    {
      "inputs": [],
      "name": "callerFee",
      "outputs": [
        {
          "internalType": "uint256",
          "name": "",
          "type": "uint256"
        }
      ],
      "stateMutability": "view",
      "type": "function"
    },
    {
      "inputs": [
        {
          "components": [
            {
              "internalType": "bytes32",
              "name": "id",
              "type": "bytes32"
            },
            {
              "internalType": "uint256",
              "name": "amount",
              "type": "uint256"
            },
            {
              "internalType": "address",
              "name": "provider",
              "type": "address"
            },
            {
              "internalType": "address",
              "name": "token",
              "type": "address"
            },
            {
              "internalType": "bool",
              "name": "exists",
              "type": "bool"
            },
            {
              "internalType": "bool",
              "name": "cancelled",
              "type": "bool"
            },
            {
              "internalType": "enum ClockTowerSubscribe.Frequency",
              "name": "frequency",
              "type": "uint8"
            },
            {
              "internalType": "uint16",
              "name": "dueDay",
              "type": "uint16"
            },
            {
              "internalType": "string",
              "name": "description",
              "type": "string"
            }
          ],
          "internalType": "struct ClockTowerSubscribe.Subscription",
          "name": "subscription",
          "type": "tuple"
        }
      ],
      "name": "cancelSubscription",
      "outputs": [],
      "stateMutability": "nonpayable",
      "type": "function"
    },
    {
      "inputs": [
        {
          "internalType": "address payable",
          "name": "newAddress",
          "type": "address"
        }
      ],
      "name": "changeAdmin",
      "outputs": [],
      "stateMutability": "nonpayable",
      "type": "function"
    },
    {
      "inputs": [
        {
          "internalType": "uint256",
          "name": "_fee",
          "type": "uint256"
        }
      ],
      "name": "changeCallerFee",
      "outputs": [],
      "stateMutability": "nonpayable",
      "type": "function"
    },
    {
      "inputs": [
        {
          "internalType": "uint256",
          "name": "_maxRemits",
          "type": "uint256"
        }
      ],
      "name": "changeMaxRemits",
      "outputs": [],
      "stateMutability": "nonpayable",
      "type": "function"
    },
    {
      "inputs": [
        {
          "internalType": "uint256",
          "name": "_fixed_fee",
          "type": "uint256"
        }
      ],
      "name": "changeSystemFee",
      "outputs": [],
      "stateMutability": "nonpayable",
      "type": "function"
    },
    {
      "inputs": [],
      "name": "collectFees",
      "outputs": [],
      "stateMutability": "nonpayable",
      "type": "function"
    },
    {
      "inputs": [
        {
          "internalType": "uint256",
          "name": "amount",
          "type": "uint256"
        },
        {
          "internalType": "address",
          "name": "token",
          "type": "address"
        },
        {
          "internalType": "string",
          "name": "description",
          "type": "string"
        },
        {
          "internalType": "enum ClockTowerSubscribe.Frequency",
          "name": "frequency",
          "type": "uint8"
        },
        {
          "internalType": "uint16",
          "name": "dueDay",
          "type": "uint16"
        }
      ],
      "name": "createSubscription",
      "outputs": [],
      "stateMutability": "payable",
      "type": "function"
    },
    {
      "inputs": [
        {
          "internalType": "bytes32",
          "name": "",
          "type": "bytes32"
        },
        {
          "internalType": "address",
          "name": "",
          "type": "address"
        }
      ],
      "name": "feeBalance",
      "outputs": [
        {
          "internalType": "uint256",
          "name": "",
          "type": "uint256"
        }
      ],
      "stateMutability": "view",
      "type": "function"
    },
    {
      "inputs": [],
      "name": "feeEstimate",
      "outputs": [
        {
          "components": [
            {
              "internalType": "uint256",
              "name": "fee",
              "type": "uint256"
            },
            {
              "internalType": "address",
              "name": "token",
              "type": "address"
            }
          ],
          "internalType": "struct ClockTowerSubscribe.FeeEstimate[]",
          "name": "",
          "type": "tuple[]"
        }
      ],
      "stateMutability": "view",
      "type": "function"
    },
    {
      "inputs": [
        {
          "internalType": "bool",
          "name": "bySubscriber",
          "type": "bool"
        }
      ],
      "name": "getAccountSubscriptions",
      "outputs": [
        {
          "components": [
            {
              "components": [
                {
                  "internalType": "bytes32",
                  "name": "id",
                  "type": "bytes32"
                },
                {
                  "internalType": "uint256",
                  "name": "amount",
                  "type": "uint256"
                },
                {
                  "internalType": "address",
                  "name": "provider",
                  "type": "address"
                },
                {
                  "internalType": "address",
                  "name": "token",
                  "type": "address"
                },
                {
                  "internalType": "bool",
                  "name": "exists",
                  "type": "bool"
                },
                {
                  "internalType": "bool",
                  "name": "cancelled",
                  "type": "bool"
                },
                {
                  "internalType": "enum ClockTowerSubscribe.Frequency",
                  "name": "frequency",
                  "type": "uint8"
                },
                {
                  "internalType": "uint16",
                  "name": "dueDay",
                  "type": "uint16"
                },
                {
                  "internalType": "string",
                  "name": "description",
                  "type": "string"
                }
              ],
              "internalType": "struct ClockTowerSubscribe.Subscription",
              "name": "subscription",
              "type": "tuple"
            },
            {
              "internalType": "enum ClockTowerSubscribe.Status",
              "name": "status",
              "type": "uint8"
            },
            {
              "internalType": "uint256",
              "name": "totalSubscribers",
              "type": "uint256"
            }
          ],
          "internalType": "struct ClockTowerSubscribe.SubView[]",
          "name": "",
          "type": "tuple[]"
        }
      ],
      "stateMutability": "view",
      "type": "function"
    },
    {
      "inputs": [],
      "name": "getAllAccounts",
      "outputs": [
        {
          "components": [
            {
              "internalType": "address",
              "name": "accountAddress",
              "type": "address"
            },
            {
              "internalType": "bool",
              "name": "exists",
              "type": "bool"
            },
            {
              "internalType": "uint40[]",
              "name": "timeTriggers",
              "type": "uint40[]"
            },
            {
              "components": [
                {
                  "internalType": "bytes32",
                  "name": "id",
                  "type": "bytes32"
                },
                {
                  "internalType": "uint16",
                  "name": "dueDay",
                  "type": "uint16"
                },
                {
                  "internalType": "enum ClockTowerSubscribe.Frequency",
                  "name": "frequency",
                  "type": "uint8"
                },
                {
                  "internalType": "enum ClockTowerSubscribe.Status",
                  "name": "status",
                  "type": "uint8"
                }
              ],
              "internalType": "struct ClockTowerSubscribe.SubIndex[]",
              "name": "subscriptions",
              "type": "tuple[]"
            },
            {
              "components": [
                {
                  "internalType": "bytes32",
                  "name": "id",
                  "type": "bytes32"
                },
                {
                  "internalType": "uint16",
                  "name": "dueDay",
                  "type": "uint16"
                },
                {
                  "internalType": "enum ClockTowerSubscribe.Frequency",
                  "name": "frequency",
                  "type": "uint8"
                },
                {
                  "internalType": "enum ClockTowerSubscribe.Status",
                  "name": "status",
                  "type": "uint8"
                }
              ],
              "internalType": "struct ClockTowerSubscribe.SubIndex[]",
              "name": "provSubs",
              "type": "tuple[]"
            }
          ],
          "internalType": "struct ClockTowerSubscribe.Account[]",
          "name": "",
          "type": "tuple[]"
        }
      ],
      "stateMutability": "view",
      "type": "function"
    },
    {
      "inputs": [
        {
          "internalType": "bytes32",
          "name": "id",
          "type": "bytes32"
        },
        {
          "internalType": "enum ClockTowerSubscribe.Frequency",
          "name": "frequency",
          "type": "uint8"
        },
        {
          "internalType": "uint16",
          "name": "dueDay",
          "type": "uint16"
        }
      ],
      "name": "getSubByIndex",
      "outputs": [
        {
          "components": [
            {
              "internalType": "bytes32",
              "name": "id",
              "type": "bytes32"
            },
            {
              "internalType": "uint256",
              "name": "amount",
              "type": "uint256"
            },
            {
              "internalType": "address",
              "name": "provider",
              "type": "address"
            },
            {
              "internalType": "address",
              "name": "token",
              "type": "address"
            },
            {
              "internalType": "bool",
              "name": "exists",
              "type": "bool"
            },
            {
              "internalType": "bool",
              "name": "cancelled",
              "type": "bool"
            },
            {
              "internalType": "enum ClockTowerSubscribe.Frequency",
              "name": "frequency",
              "type": "uint8"
            },
            {
              "internalType": "uint16",
              "name": "dueDay",
              "type": "uint16"
            },
            {
              "internalType": "string",
              "name": "description",
              "type": "string"
            }
          ],
          "internalType": "struct ClockTowerSubscribe.Subscription",
          "name": "subscription",
          "type": "tuple"
        }
      ],
      "stateMutability": "view",
      "type": "function"
    },
    {
      "inputs": [
        {
          "internalType": "bytes32",
          "name": "id",
          "type": "bytes32"
        }
      ],
      "name": "getSubscribersById",
      "outputs": [
        {
          "components": [
            {
              "internalType": "address",
              "name": "subscriber",
              "type": "address"
            },
            {
              "internalType": "uint256",
              "name": "feeBalance",
              "type": "uint256"
            }
          ],
          "internalType": "struct ClockTowerSubscribe.SubscriberView[]",
          "name": "",
          "type": "tuple[]"
        }
      ],
      "stateMutability": "view",
      "type": "function"
    },
    {
      "inputs": [
        {
          "internalType": "bool",
          "name": "bySubscriber",
          "type": "bool"
        },
        {
          "internalType": "address",
          "name": "account",
          "type": "address"
        }
      ],
      "name": "getSubscriptionsByAccount",
      "outputs": [
        {
          "components": [
            {
              "components": [
                {
                  "internalType": "bytes32",
                  "name": "id",
                  "type": "bytes32"
                },
                {
                  "internalType": "uint256",
                  "name": "amount",
                  "type": "uint256"
                },
                {
                  "internalType": "address",
                  "name": "provider",
                  "type": "address"
                },
                {
                  "internalType": "address",
                  "name": "token",
                  "type": "address"
                },
                {
                  "internalType": "bool",
                  "name": "exists",
                  "type": "bool"
                },
                {
                  "internalType": "bool",
                  "name": "cancelled",
                  "type": "bool"
                },
                {
                  "internalType": "enum ClockTowerSubscribe.Frequency",
                  "name": "frequency",
                  "type": "uint8"
                },
                {
                  "internalType": "uint16",
                  "name": "dueDay",
                  "type": "uint16"
                },
                {
                  "internalType": "string",
                  "name": "description",
                  "type": "string"
                }
              ],
              "internalType": "struct ClockTowerSubscribe.Subscription",
              "name": "subscription",
              "type": "tuple"
            },
            {
              "internalType": "enum ClockTowerSubscribe.Status",
              "name": "status",
              "type": "uint8"
            },
            {
              "internalType": "uint256",
              "name": "totalSubscribers",
              "type": "uint256"
            }
          ],
          "internalType": "struct ClockTowerSubscribe.SubView[]",
          "name": "",
          "type": "tuple[]"
        }
      ],
      "stateMutability": "view",
      "type": "function"
    },
    {
      "inputs": [],
      "name": "maxRemits",
      "outputs": [
        {
          "internalType": "uint256",
          "name": "",
          "type": "uint256"
        }
      ],
      "stateMutability": "view",
      "type": "function"
    },
    {
      "inputs": [],
      "name": "nextUncheckedDay",
      "outputs": [
        {
          "internalType": "uint40",
          "name": "",
          "type": "uint40"
        }
      ],
      "stateMutability": "view",
      "type": "function"
    },
    {
      "inputs": [],
      "name": "remit",
      "outputs": [],
      "stateMutability": "payable",
      "type": "function"
    },
    {
      "inputs": [
        {
          "internalType": "address",
          "name": "erc20Contract",
          "type": "address"
        }
      ],
      "name": "removeERC20Contract",
      "outputs": [],
      "stateMutability": "nonpayable",
      "type": "function"
    },
    {
      "inputs": [
        {
          "internalType": "bool",
          "name": "status",
          "type": "bool"
        }
      ],
      "name": "setExternalCallers",
      "outputs": [],
      "stateMutability": "nonpayable",
      "type": "function"
    },
    {
      "inputs": [
        {
          "components": [
            {
              "internalType": "bytes32",
              "name": "id",
              "type": "bytes32"
            },
            {
              "internalType": "uint256",
              "name": "amount",
              "type": "uint256"
            },
            {
              "internalType": "address",
              "name": "provider",
              "type": "address"
            },
            {
              "internalType": "address",
              "name": "token",
              "type": "address"
            },
            {
              "internalType": "bool",
              "name": "exists",
              "type": "bool"
            },
            {
              "internalType": "bool",
              "name": "cancelled",
              "type": "bool"
            },
            {
              "internalType": "enum ClockTowerSubscribe.Frequency",
              "name": "frequency",
              "type": "uint8"
            },
            {
              "internalType": "uint16",
              "name": "dueDay",
              "type": "uint16"
            },
            {
              "internalType": "string",
              "name": "description",
              "type": "string"
            }
          ],
          "internalType": "struct ClockTowerSubscribe.Subscription",
          "name": "subscription",
          "type": "tuple"
        }
      ],
      "name": "subscribe",
      "outputs": [],
      "stateMutability": "payable",
      "type": "function"
    },
    {
      "inputs": [],
      "name": "systemFee",
      "outputs": [
        {
          "internalType": "uint256",
          "name": "",
          "type": "uint256"
        }
      ],
      "stateMutability": "view",
      "type": "function"
    },
    {
      "inputs": [
        {
          "internalType": "bool",
          "name": "status",
          "type": "bool"
        }
      ],
      "name": "systemFeeActivate",
      "outputs": [],
      "stateMutability": "nonpayable",
      "type": "function"
    },
    {
      "inputs": [
        {
          "internalType": "uint256",
          "name": "unix",
          "type": "uint256"
        }
      ],
      "name": "unixToTime",
      "outputs": [
        {
          "components": [
            {
              "internalType": "uint16",
              "name": "day",
              "type": "uint16"
            },
            {
              "internalType": "uint16",
              "name": "weekDay",
              "type": "uint16"
            },
            {
              "internalType": "uint16",
              "name": "quarterDay",
              "type": "uint16"
            },
            {
              "internalType": "uint16",
              "name": "yearDay",
              "type": "uint16"
            }
          ],
          "internalType": "struct ClockTowerSubscribe.Time",
          "name": "time",
          "type": "tuple"
        }
      ],
      "stateMutability": "pure",
      "type": "function"
    },
    {
      "inputs": [
        {
          "components": [
            {
              "internalType": "bytes32",
              "name": "id",
              "type": "bytes32"
            },
            {
              "internalType": "uint256",
              "name": "amount",
              "type": "uint256"
            },
            {
              "internalType": "address",
              "name": "provider",
              "type": "address"
            },
            {
              "internalType": "address",
              "name": "token",
              "type": "address"
            },
            {
              "internalType": "bool",
              "name": "exists",
              "type": "bool"
            },
            {
              "internalType": "bool",
              "name": "cancelled",
              "type": "bool"
            },
            {
              "internalType": "enum ClockTowerSubscribe.Frequency",
              "name": "frequency",
              "type": "uint8"
            },
            {
              "internalType": "uint16",
              "name": "dueDay",
              "type": "uint16"
            },
            {
              "internalType": "string",
              "name": "description",
              "type": "string"
            }
          ],
          "internalType": "struct ClockTowerSubscribe.Subscription",
          "name": "subscription",
          "type": "tuple"
        }
      ],
      "name": "unsubscribe",
      "outputs": [],
      "stateMutability": "payable",
      "type": "function"
    },
    {
      "inputs": [
        {
          "components": [
            {
              "internalType": "bytes32",
              "name": "id",
              "type": "bytes32"
            },
            {
              "internalType": "uint256",
              "name": "amount",
              "type": "uint256"
            },
            {
              "internalType": "address",
              "name": "provider",
              "type": "address"
            },
            {
              "internalType": "address",
              "name": "token",
              "type": "address"
            },
            {
              "internalType": "bool",
              "name": "exists",
              "type": "bool"
            },
            {
              "internalType": "bool",
              "name": "cancelled",
              "type": "bool"
            },
            {
              "internalType": "enum ClockTowerSubscribe.Frequency",
              "name": "frequency",
              "type": "uint8"
            },
            {
              "internalType": "uint16",
              "name": "dueDay",
              "type": "uint16"
            },
            {
              "internalType": "string",
              "name": "description",
              "type": "string"
            }
          ],
          "internalType": "struct ClockTowerSubscribe.Subscription",
          "name": "subscription",
          "type": "tuple"
        },
        {
          "internalType": "address",
          "name": "subscriber",
          "type": "address"
        }
      ],
      "name": "unsubscribeByProvider",
      "outputs": [],
      "stateMutability": "nonpayable",
      "type": "function"
    },
    {
      "stateMutability": "payable",
      "type": "receive"
    }
  ],
  "bytecode": "0x60806040526127d8600055662386f26fc10000600155600560029081556006805460ff60d81b19169055620000344262000095565b620000409190620000ac565b60068054610100600160d01b03191661010064ffffffffff9390931692909202600160301b600160d01b0319169190911779f39fd6e51aad88f6f4ce6ab8827279cfffb9226600000000000017905562000114565b6000620000a66201518083620000e1565b92915050565b600064ffffffffff83811690831681811015620000d957634e487b7160e01b600052601160045260246000fd5b039392505050565b600064ffffffffff808416806200010857634e487b7160e01b600052601260045260246000fd5b92169190910492915050565b615fc180620001246000396000f3fe6080604052600436106101a35760003560e01c80638f283970116100e0578063cab1c96511610084578063ebec6eaa11610061578063ebec6eaa146104ea578063f25e13c914610522578063f851a44014610542578063fedce9401461058457005b8063cab1c96514610479578063da854a961461048f578063e63d35be146104c857005b8063a429131a116100bd578063a429131a14610411578063a5af2abd14610424578063b4761de914610444578063c87965721461046457005b80638f283970146103b15780639889552e146103d1578063a2349caf146103f157005b80633084f79e116101475780636605ac0d116101245780636605ac0d1461032f5780637507ba391461035c5780637bbf5a6e146103645780638ef0ef1c1461039157005b80633084f79e146102a857806334d441d0146102bb57806353a6d6e2146102d157005b80630bec99e8116101805780630bec99e8146102175780631f17ee551461023757806327ea97731461025b5780632d23f7e71461027b57005b8063053149fa146101ac57806308e93d0a146101cc578063094f9977146101f757005b366101aa57005b005b3480156101b857600080fd5b506101aa6101c736600461538e565b610597565b3480156101d857600080fd5b506101e161062a565b6040516101ee9190615461565b60405180910390f35b34801561020357600080fd5b506101aa610212366004615554565b6109f3565b34801561022357600080fd5b506101aa610232366004615590565b61151c565b34801561024357600080fd5b5061024d60015481565b6040519081526020016101ee565b34801561026757600080fd5b506101aa610276366004615590565b611529565b34801561028757600080fd5b5061029b6102963660046155ca565b611536565b6040516101ee9190615712565b6101aa6102b6366004615725565b6117bd565b3480156102c757600080fd5b5061024d60005481565b3480156102dd57600080fd5b506102f16102ec366004615590565b611cd4565b6040516101ee9190815161ffff9081168252602080840151821690830152604080840151821690830152606092830151169181019190915260800190565b34801561033b57600080fd5b5061034f61034a3660046157ed565b611f36565b6040516101ee919061580a565b6101aa612337565b34801561037057600080fd5b5061038461037f366004615590565b613187565b6040516101ee9190615894565b34801561039d57600080fd5b506101aa6103ac366004615590565b613380565b3480156103bd57600080fd5b506101aa6103cc36600461538e565b61338d565b3480156103dd57600080fd5b506101aa6103ec3660046157ed565b613402565b3480156103fd57600080fd5b506101aa61040c366004615a7e565b613428565b6101aa61041f366004615554565b613882565b34801561043057600080fd5b5061034f61043f366004615ad0565b613daa565b34801561045057600080fd5b506101aa61045f3660046157ed565b61417c565b34801561047057600080fd5b506101aa6141a2565b34801561048557600080fd5b5061024d60025481565b34801561049b57600080fd5b506006546104b290610100900464ffffffffff1681565b60405164ffffffffff90911681526020016101ee565b3480156104d457600080fd5b506104dd614205565b6040516101ee9190615afe565b3480156104f657600080fd5b5061024d610505366004615b49565b600960209081526000928352604080842090915290825290205481565b34801561052e57600080fd5b506101aa61053d366004615b6e565b6146d5565b34801561054e57600080fd5b5060065461056c90660100000000000090046001600160a01b031681565b6040516001600160a01b0390911681526020016101ee565b6101aa610592366004615b9a565b614794565b61059f614b57565b6001600160a01b0381166105b257600080fd5b6105bb81614ba0565b6105f05760405162461bcd60e51b81526020600482015260016024820152601960f91b60448201526064015b60405180910390fd5b6001600160a01b0316600090815260056020526040812080546001600160a01b03191681556001810191909155600201805460ff19169055565b6060610634614b57565b6000600880548060200260200160405190810160405280929190818152602001828054801561068c57602002820191906000526020600020905b81546001600160a01b0316815260019091019060200180831161066e575b505050505090506000815167ffffffffffffffff8111156106af576106af6158ec565b60405190808252806020026020018201604052801561070a57816020015b6040805160a08101825260008082526020820152606091810182905281810182905260808101919091528152602001906001900390816106cd5790505b50905060005b82518110156109ec576007600084838151811061072f5761072f615bcf565b6020908102919091018101516001600160a01b039081168352828201939093526040918201600020825160a08101845281549485168152600160a01b90940460ff16151584830152600181018054845181850281018501865281815292948601938301828280156107ed57602002820191906000526020600020906000905b82829054906101000a900464ffffffffff1664ffffffffff16815260200190600501906020826004010492830192600103820291508084116107ae5790505b5050505050815260200160028201805480602002602001604051908101604052809291908181526020016000905b828210156108d1576000848152602090819020604080516080810182526002860290920180548352600181015461ffff81169484019490945291929083019062010000900460ff166003811115610874576108746153b2565b6003811115610885576108856153b2565b81526020016001820160039054906101000a900460ff1660028111156108ad576108ad6153b2565b60028111156108be576108be6153b2565b815250508152602001906001019061081b565b50505050815260200160038201805480602002602001604051908101604052809291908181526020016000905b828210156109b4576000848152602090819020604080516080810182526002860290920180548352600181015461ffff81169484019490945291929083019062010000900460ff166003811115610957576109576153b2565b6003811115610968576109686153b2565b81526020016001820160039054906101000a900460ff166002811115610990576109906153b2565b60028111156109a1576109a16153b2565b81525050815260200190600101906108fe565b50505050815250508282815181106109ce576109ce615bcf565b602002602001018190525080806109e490615bfb565b915050610710565b5091505090565b6109fb614bd2565b610a288135610a11610100840160e08501615c16565b610a2160e0850160c08601615c31565b6000614c03565b610a585760405162461bcd60e51b81526020600482015260016024820152603760f81b60448201526064016105e7565b610a68606082016040830161538e565b6001600160a01b0316336001600160a01b031614610aad5760405162461bcd60e51b8152602060048201526002602482015261323360f01b60448201526064016105e7565b33600090815260076020908152604080832060030180548251818502810185019093528083529192909190849084015b82821015610b93576000848152602090819020604080516080810182526002860290920180548352600181015461ffff81169484019490945291929083019062010000900460ff166003811115610b3657610b366153b2565b6003811115610b4757610b476153b2565b81526020016001820160039054906101000a900460ff166002811115610b6f57610b6f6153b2565b6002811115610b8057610b806153b2565b8152505081526020019060010190610add565b5050336000908152600760205260408120600301549394509150505b81811015610c52578360000135838281518110610bce57610bce615bcf565b6020026020010151600001511415610c405733600090815260076020526040902060030180546001919083908110610c0857610c08615bcf565b906000526020600020906002020160010160036101000a81548160ff02191690836002811115610c3a57610c3a6153b2565b02179055505b80610c4a81615bfb565b915050610baf565b5082356000908152600b6020908152604080832080548251818502810185019093528083529192909190830182828015610cb557602002820191906000526020600020905b81546001600160a01b03168152600190910190602001808311610c97575b5050505050905060005b81518110156111fc578435600090815260096020526040812083518290859085908110610cee57610cee615bcf565b60200260200101516001600160a01b03166001600160a01b03168152602001908152602001600020549050600580811115610d2b57610d2b6153b2565b838381518110610d3d57610d3d615bcf565b60200260200101516001600160a01b03168760000135600080516020615f6c8339815191524285604051610d8492919064ffffffffff929092168252602082015260400190565b60405180910390a4853560009081526009602052604081208451909190859085908110610db357610db3615bcf565b60200260200101516001600160a01b03166001600160a01b0316815260200190815260200160002060009055856060016020810190610df2919061538e565b6001600160a01b031663a9059cbb848481518110610e1257610e12615bcf565b6020026020010151836040518363ffffffff1660e01b8152600401610e4c9291906001600160a01b03929092168252602082015260400190565b602060405180830381600087803b158015610e6657600080fd5b505af1158015610e7a573d6000803e3d6000fd5b505050506040513d601f19601f82011682018060405250810190610e9e9190615c4c565b610ecf5760405162461bcd60e51b8152602060048201526002602482015261323160f01b60448201526064016105e7565b600060076000858581518110610ee757610ee7615bcf565b60200260200101516001600160a01b03166001600160a01b031681526020019081526020016000206002018054905067ffffffffffffffff811115610f2e57610f2e6158ec565b604051908082528060200260200182016040528015610f8957816020015b610f7660408051608081018252600080825260208201819052909182019081526020016000905290565b815260200190600190039081610f4c5790505b50905060076000858581518110610fa257610fa2615bcf565b60200260200101516001600160a01b03166001600160a01b03168152602001908152602001600020600201805480602002602001604051908101604052809291908181526020016000905b828210156110a3576000848152602090819020604080516080810182526002860290920180548352600181015461ffff81169484019490945291929083019062010000900460ff166003811115611046576110466153b2565b6003811115611057576110576153b2565b81526020016001820160039054906101000a900460ff16600281111561107f5761107f6153b2565b6002811115611090576110906153b2565b8152505081526020019060010190610fed565b50505050905060005b600760008686815181106110c2576110c2615bcf565b60200260200101516001600160a01b03166001600160a01b03168152602001908152602001600020600201805490508110156111bf57876000013582828151811061110f5761110f615bcf565b60200260200101516000015114156111ad5760016007600087878151811061113957611139615bcf565b60200260200101516001600160a01b03166001600160a01b03168152602001908152602001600020600201828154811061117557611175615bcf565b906000526020600020906002020160010160036101000a81548160ff021916908360028111156111a7576111a76153b2565b02179055505b806111b781615bfb565b9150506110ac565b506111e787600001358585815181106111da576111da615bcf565b6020026020010151614c8e565b505080806111f490615bfb565b915050610cbf565b506000600a8161121260e0880160c08901615c31565b6003811115611223576112236153b2565b815260200190815260200160002060008660e00160208101906112469190615c16565b61ffff1661ffff168152602001908152602001600020805480602002602001604051908101604052809291908181526020016000905b828210156113e65760008481526020908190206040805161012081018252600586029092018054835260018101549383019390935260028301546001600160a01b0390811691830191909152600380840154918216606084015260ff600160a01b8304811615156080850152600160a81b83048116151560a085015292939260c0850192600160b01b90041690811115611318576113186153b2565b6003811115611329576113296153b2565b81526003820154600160b81b900461ffff16602082015260048201805460409092019161135590615c69565b80601f016020809104026020016040519081016040528092919081815260200182805461138190615c69565b80156113ce5780601f106113a3576101008083540402835291602001916113ce565b820191906000526020600020905b8154815290600101906020018083116113b157829003601f168201915b5050505050815250508152602001906001019061127c565b50505050905060005b81518110156114cd57856000013582828151811061140f5761140f615bcf565b60200260200101516000015114156114bb576001600a600061143760e08a0160c08b01615c31565b6003811115611448576114486153b2565b815260200190815260200160002060008860e001602081019061146b9190615c16565b61ffff1661ffff168152602001908152602001600020828154811061149257611492615bcf565b906000526020600020906005020160030160156101000a81548160ff0219169083151502179055505b806114c581615bfb565b9150506113ef565b5060016040805164ffffffffff421681526000602082015233918835917ffcb91fd98787d64bdba700bb305716e8b6cebeef9927c71b19ed9b0ab1b892b0910160405180910390a45050505050565b611524614b57565b600155565b611531614b57565b600255565b6115856040805161012081018252600080825260208201819052918101829052606081018290526080810182905260a081018290529060c0820190815260006020820152606060409091015290565b6000600a600085600381111561159d5761159d6153b2565b815260200190815260200160002060008461ffff1661ffff168152602001908152602001600020805480602002602001604051908101604052809291908181526020016000905b8282101561174e5760008481526020908190206040805161012081018252600586029092018054835260018101549383019390935260028301546001600160a01b0390811691830191909152600380840154918216606084015260ff600160a01b8304811615156080850152600160a81b83048116151560a085015292939260c0850192600160b01b90041690811115611680576116806153b2565b6003811115611691576116916153b2565b81526003820154600160b81b900461ffff1660208201526004820180546040909201916116bd90615c69565b80601f01602080910402602001604051908101604052809291908181526020018280546116e990615c69565b80156117365780601f1061170b57610100808354040283529160200191611736565b820191906000526020600020905b81548152906001019060200180831161171957829003601f168201915b505050505081525050815260200190600101906115e4565b50505050905060005b81518110156117b4578582828151811061177357611773615bcf565b60200260200101516000015114156117a25781818151811061179757611797615bcf565b602002602001015192505b806117ac81615bfb565b915050611757565b50509392505050565b6117c5614bd2565b6001600160a01b0385166117ff5760405162461bcd60e51b81526020600482015260016024820152600760fb1b60448201526064016105e7565b600654600160d81b900460ff1615611847573460015411156118475760405162461bcd60e51b81526020600482015260016024820152603560f81b60448201526064016105e7565b61185085614ba0565b6118805760405162461bcd60e51b81526020600482015260016024820152603960f81b60448201526064016105e7565b60208311156118b65760405162461bcd60e51b8152602060048201526002602482015261323560f01b60448201526064016105e7565b60008260038111156118ca576118ca6153b2565b141561191a578061ffff1660001080156118e9575060078161ffff1611155b61191a5760405162461bcd60e51b8152602060048201526002602482015261191b60f11b60448201526064016105e7565b600182600381111561192e5761192e6153b2565b141561197e578061ffff16600010801561194d5750601c8161ffff1611155b61197e5760405162461bcd60e51b8152602060048201526002602482015261323760f01b60448201526064016105e7565b6002826003811115611992576119926153b2565b14156119e2578061ffff1660001080156119b15750605a8161ffff1611155b6119e25760405162461bcd60e51b8152602060048201526002602482015261064760f31b60448201526064016105e7565b60038260038111156119f6576119f66153b2565b1415611a47578061ffff166000108015611a16575061016d8161ffff1611155b611a475760405162461bcd60e51b8152602060048201526002602482015261323960f01b60448201526064016105e7565b6001600160a01b038516600090815260056020526040902060010154861015611a975760405162461bcd60e51b8152602060048201526002602482015261033360f41b60448201526064016105e7565b6000611ade878787878080601f016020809104026020016040519081016040528093929190818152602001838380828437600092019190915250899250889150614ddf9050565b905080600a6000856003811115611af757611af76153b2565b81526020808201929092526040908101600090812061ffff87168252835281812080546001818101835591835291849020855160059093020191825592840151928101929092558201516002820180546001600160a01b039283166001600160a01b0319909116179055606083015160038084018054608087015160a08801511515600160a81b0260ff60a81b19911515600160a01b0274ffffffffffffffffffffffffffffffffffffffffff199093169590961694909417179283168417815560c086015193909260ff60b01b1990911661ffff60a81b199091161790600160b01b908490811115611bec57611bec6153b2565b021790555060e082015160038201805461ffff909216600160b81b0261ffff60b81b199092169190911790556101008201518051611c349160048401916020909101906152d0565b50905050611c846040518060800160405280836000015181526020018360e0015161ffff1681526020018360c001516003811115611c7457611c746153b2565b8152602001600090526001614ecd565b600081516040805164ffffffffff42168152600060208201523392917ffcb91fd98787d64bdba700bb305716e8b6cebeef9927c71b19ed9b0ab1b892b0910160405180910390a450505050505050565b604080516080810182526000808252602082018190529181018290526060810182905290611d056201518084615cba565b90506000808281611d198262010bd9615cce565b611d269062253d8c615cce565b9050600062023ab1611d39836004615d0e565b611d439190615d95565b90506004611d548262023ab1615d0e565b611d5f906003615cce565b611d699190615d95565b611d739083615dc3565b9150600062164b09611d86846001615cce565b611d9290610fa0615d0e565b611d9c9190615d95565b90506004611dac826105b5615d0e565b611db69190615d95565b611dc09084615dc3565b611dcb90601f615cce565b9250600061098f611ddd856050615d0e565b611de79190615d95565b905060006050611df98361098f615d0e565b611e039190615d95565b611e0d9086615dc3565b9050611e1a600b83615d95565b9450611e2785600c615d0e565b611e32836002615cce565b611e3c9190615dc3565b91508483611e4b603187615dc3565b611e56906064615d0e565b611e609190615cce565b611e6a9190615cce565b909750915086828282600060015b838111611ec55783811415611e9c57611e9561ffff8e1683615e02565b9150611eb3565b611ea68585615080565b611eb09083615e02565b91505b80611ebd81615bfb565b915050611e78565b50809a50611ed78b61ffff1685615106565b61ffff1660408f0152611ee98f6151d4565b8e6020019061ffff16908161ffff16815250508b8e6000019061ffff16908161ffff16815250508a8e6060019061ffff16908161ffff168152505050505050505050505050505050919050565b606080821561202d5733600090815260076020908152604080832060020180548251818502810185019093528083529193909284015b82821015612022576000848152602090819020604080516080810182526002860290920180548352600181015461ffff81169484019490945291929083019062010000900460ff166003811115611fc557611fc56153b2565b6003811115611fd657611fd66153b2565b81526020016001820160039054906101000a900460ff166002811115611ffe57611ffe6153b2565b600281111561200f5761200f6153b2565b8152505081526020019060010190611f6c565b505050509050612117565b33600090815260076020908152604080832060030180548251818502810185019093528083529193909284015b82821015612110576000848152602090819020604080516080810182526002860290920180548352600181015461ffff81169484019490945291929083019062010000900460ff1660038111156120b3576120b36153b2565b60038111156120c4576120c46153b2565b81526020016001820160039054906101000a900460ff1660028111156120ec576120ec6153b2565b60028111156120fd576120fd6153b2565b815250508152602001906001019061205a565b5050505090505b6000815167ffffffffffffffff811115612133576121336158ec565b6040519080825280602002602001820160405280156121ce57816020015b6121bb604080516101808101909152600060608083018281526080840183905260a0840183905260c0840183905260e08401839052610100840183905261012084018390526101408401929092526101608301528190815260200160008152602001600081525090565b8152602001906001900390816121515790505b50905060005b825181101561232f5761223f8382815181106121f2576121f2615bcf565b60200260200101516000015184838151811061221057612210615bcf565b60200260200101516040015185848151811061222e5761222e615bcf565b602002602001015160200151611536565b82828151811061225157612251615bcf565b60200260200101516000018190525082818151811061227257612272615bcf565b60200260200101516060015182828151811061229057612290615bcf565b60200260200101516020019060028111156122ad576122ad6153b2565b908160028111156122c0576122c06153b2565b81525050600b60008383815181106122da576122da615bcf565b6020026020010151600001516000015181526020019081526020016000208054905082828151811061230e5761230e615bcf565b6020908102919091010151604001528061232781615bfb565b9150506121d4565b509392505050565b600654600160d01b900460ff1661235057612350614b57565b600654600160d81b900460ff1615612398573460015411156123985760405162461bcd60e51b81526020600482015260016024820152603560f81b60448201526064016105e7565b60006123a34261520a565b60065490915064ffffffffff610100909104811690821610156123ed5760405162461bcd60e51b81526020600482015260026024820152610c4d60f21b60448201526064016105e7565b60408051608081018252600080825260208201819052918101829052606081019190915260019060065464ffffffffff8481166101009092041614612478576006546124589061244c90610100900464ffffffffff1662015180615e1a565b64ffffffffff16611cd4565b60065490915061247390610100900464ffffffffff16615219565b612493565b61248142611cd4565b90506124938364ffffffffff16615219565b6000805b600381116130c7576000816124ad575060208301515b60018214156124ba575082515b60028214156124ca575060408301515b60038214156124da575060608301515b6000828152600a6020908152604080832061ffff85168452909152812054905b818110156130b1576000848152600a6020908152604080832061ffff8716845290915281208054919850908290811061253557612535615bcf565b906000526020600020906005020160030160159054906101000a900460ff1661309f576000848152600a6020908152604080832061ffff87168452909152812080548390811061258757612587615bcf565b60009182526020808320600590920290910154878352600a8252604080842061ffff89168552909252908220805491935090849081106125c9576125c9615bcf565b6000918252602080832060036005909302019190910154888352600a8252604080842061ffff8a16855290925290822080546001600160a01b039092169350908590811061261957612619615bcf565b6000918252602080832060016005909302019190910154898352600a8252604080842061ffff8b1685529092529082208054919350908690811061265f5761265f615bcf565b6000918252602082206002600590920201015481546001600160a01b0390911692508390612710906126919083615e47565b61269b9190615cba565b6126a59190615e66565b6000868152600b6020526040812054919250908181156126cd576126ca600183615e66565b90505b60005b82811015613095576002548e1415612823576040805180820182528a815260200182905260038a905560048281556006805460ff19169055905163a9059cbb60e01b81523391810191909152602481018590526001600160a01b0389169063a9059cbb90604401602060405180830381600087803b15801561275157600080fd5b505af1158015612765573d6000803e3d6000fd5b505050506040513d601f19601f820116820180604052508101906127899190615c4c565b6127ba5760405162461bcd60e51b8152602060048201526002602482015261191960f11b60448201526064016105e7565b6006546040805164ffffffffff428116825261010090930492909216602083015260009082015233907f90192d7875364a53e351ae63fd2dfef8dc941735b29fb0c504d06a0e21ae602e9060600160405180910390a25050505050505050505050505050505050565b60035489148015612835575060045481145b15612848576006805460ff191660011790555b600354158061285e575060065460ff1615156001145b15613083576000898152600b6020526040812080548390811061288357612883615bcf565b600091825260209091200154604051636eb1769f60e11b81526001600160a01b0391821660048201819052306024830152925089918b169063dd62ed3e90604401602060405180830381600087803b1580156128de57600080fd5b505af11580156128f2573d6000803e3d6000fd5b505050506040513d601f19601f820116820180604052508101906129169190615e7d565b1015801561299f57506040516370a0823160e01b81526001600160a01b0382811660048301528991908b16906370a0823190602401602060405180830381600087803b15801561296557600080fd5b505af1158015612979573d6000803e3d6000fd5b505050506040513d601f19601f8201168201806040525081019061299d9190615e7d565b115b15612dbc578e6129ae81615bfb565b9f505085600960008c81526020019081526020016000206000836001600160a01b03166001600160a01b03168152602001908152602001600020541115612b5a576129f98686615e02565b60008b81526009602090815260408083206001600160a01b0386168452909152812080549297508892909190612a30908490615e66565b90915550600090506040805164ffffffffff42168152602081018b90526001600160a01b038416918d91600080516020615f6c833981519152910160405180910390a460026040805164ffffffffff42168152600060208201526001600160a01b038a16918d917ffcb91fd98787d64bdba700bb305716e8b6cebeef9927c71b19ed9b0ab1b892b0910160405180910390a46040516323b872dd60e01b81526001600160a01b0382811660048301528881166024830152604482018a90528a16906323b872dd90606401602060405180830381600087803b158015612b1457600080fd5b505af1158015612b28573d6000803e3d6000fd5b505050506040513d601f19601f82011682018060405250810190612b4c9190615c4c565b612b5557600080fd5b612fbc565b60008a81526009602090815260408083206001600160a01b0385168452909152902054612b879086615e02565b60008b81526009602090815260408083206001600160a01b0386168452909152812055945060046040805164ffffffffff42168152602081018b90526001600160a01b038416918d91600080516020615f6c833981519152910160405180910390a460008890506000600190508f60021415612c1357612c08600383615cba565b915060029050612c2e565b8f60031415612c2e57612c27600c83615cba565b9150600b90505b60008c81526009602090815260408083206001600160a01b038716845290915281208054849290612c60908490615e02565b90915550506040516323b872dd60e01b81526001600160a01b038481166004830152306024830152604482018490528c16906323b872dd90606401602060405180830381600087803b158015612cb557600080fd5b505af1158015612cc9573d6000803e3d6000fd5b505050506040513d601f19601f82011682018060405250810190612ced9190615c4c565b612cf657600080fd5b8f60021480612d0557508f6003145b15612db5576001600160a01b038b166323b872dd848b612d258587615e47565b6040516001600160e01b031960e086901b1681526001600160a01b0393841660048201529290911660248301526044820152606401602060405180830381600087803b158015612d7457600080fd5b505af1158015612d88573d6000803e3d6000fd5b505050506040513d601f19601f82011682018060405250810190612dac9190615c4c565b612db557600080fd5b5050612fbc565b8e612dc681615bfb565b9f505085600960008c81526020019081526020016000206000836001600160a01b03166001600160a01b03168152602001908152602001600020541115612ef157612e118686615e02565b60008b81526009602090815260408083206001600160a01b038616845290915281205491965090612e43908890615e66565b60008c81526009602090815260408083206001600160a01b038781168552925280832092909255905163a9059cbb60e01b81528a82166004820152602481018390529192508b169063a9059cbb90604401602060405180830381600087803b158015612eae57600080fd5b505af1158015612ec2573d6000803e3d6000fd5b505050506040513d601f19601f82011682018060405250810190612ee69190615c4c565b612eef57600080fd5b505b612efb8a82614c8e565b60036040805164ffffffffff42168152602081018b905233918d91600080516020615f6c833981519152910160405180910390a460016040805164ffffffffff42168152602081018b90526001600160a01b038416918d91600080516020615f6c833981519152910160405180910390a460036040805164ffffffffff42168152600060208201526001600160a01b038a16918d917ffcb91fd98787d64bdba700bb305716e8b6cebeef9927c71b19ed9b0ab1b892b0910160405180910390a45b8282148015612fcb5750600084115b156130815760405163a9059cbb60e01b8152336004820152602481018690526001600160a01b038a169063a9059cbb90604401602060405180830381600087803b15801561301857600080fd5b505af115801561302c573d6000803e3d6000fd5b505050506040513d601f19601f820116820180604052508101906130509190615c4c565b6130815760405162461bcd60e51b8152602060048201526002602482015261191960f11b60448201526064016105e7565b505b8061308d81615bfb565b9150506126d0565b5050505050505050505b806130a981615bfb565b9150506124fa565b50505080806130bf90615bfb565b915050612497565b50600060038190556004556006805460ff1916908190556040805164ffffffffff4281168252610100909304909216602083015260019082015233907f90192d7875364a53e351ae63fd2dfef8dc941735b29fb0c504d06a0e21ae602e9060600160405180910390a26001600660018282829054906101000a900464ffffffffff166131539190615e96565b92506101000a81548164ffffffffff021916908364ffffffffff160217905550821561318157613181612337565b50505050565b6000818152600b60205260408120546060919067ffffffffffffffff8111156131b2576131b26158ec565b6040519080825280602002602001820160405280156131db578160200160208202803683370190505b506000848152600b6020908152604091829020805483518184028101840190945280845293945091929083018282801561323e57602002820191906000526020600020905b81546001600160a01b03168152600190910190602001808311613220575b5050506000868152600b60205260408120549394509291505067ffffffffffffffff81111561326f5761326f6158ec565b6040519080825280602002602001820160405280156132b457816020015b604080518082019091526000808252602082015281526020019060019003908161328d5790505b50905060005b825181101561232f576000858152600960205260408120845182908690859081106132e7576132e7615bcf565b60200260200101516001600160a01b03166001600160a01b031681526020019081526020016000205490506000604051806040016040528086858151811061333157613331615bcf565b60200260200101516001600160a01b031681526020018381525090508084848151811061336057613360615bcf565b60200260200101819052505050808061337890615bfb565b9150506132ba565b613388614b57565b600055565b613395614b57565b336001600160a01b0382161480156133b557506001600160a01b03811615155b6133be57600080fd5b600680546001600160a01b039092166601000000000000027fffffffffffff0000000000000000000000000000000000000000ffffffffffff909216919091179055565b61340a614b57565b60068054911515600160d81b0260ff60d81b19909216919091179055565b613430614bd2565b33600090815260076020908152604080832060030180548251818502810185019093528083529192909190849084015b82821015613516576000848152602090819020604080516080810182526002860290920180548352600181015461ffff81169484019490945291929083019062010000900460ff1660038111156134b9576134b96153b2565b60038111156134ca576134ca6153b2565b81526020016001820160039054906101000a900460ff1660028111156134f2576134f26153b2565b6002811115613503576135036153b2565b8152505081526020019060010190613460565b5050505090506000805b825181101561356957846000015183828151811061354057613540615bcf565b602002602001015160000151141561355757600191505b8061356181615bfb565b915050613520565b508061359c5760405162461bcd60e51b8152602060048201526002602482015261062760f31b60448201526064016105e7565b83516000908152600b60209081526040808320805482518185028101850190935280835291929091908301828280156135fe57602002820191906000526020600020905b81546001600160a01b031681526001909101906020018083116135e0575b505050505090506000805b82518110156136c257856001600160a01b031683828151811061362e5761362e615bcf565b60200260200101516001600160a01b031614156136b0576001600160a01b038616600090815260076020526040902060029081018054600194508390811061367857613678615bcf565b906000526020600020906002020160010160036101000a81548160ff021916908360028111156136aa576136aa6153b2565b02179055505b806136ba81615bfb565b915050613609565b50806136f55760405162461bcd60e51b8152602060048201526002602482015261313960f01b60448201526064016105e7565b85516137019086614c8e565b600386516020808901516040805164ffffffffff42168152928301919091526001600160a01b0389169291600080516020615f6c833981519152910160405180910390a4855160009081526009602081815260408084206001600160a01b038a16808652908352818520548b518652938352818520908552909152822091909155600587516040805164ffffffffff42168152602081018590526001600160a01b038a169291600080516020615f6c833981519152910160405180910390a4606087015160405163a9059cbb60e01b81526001600160a01b038881166004830152602482018490529091169063a9059cbb90604401602060405180830381600087803b15801561381057600080fd5b505af1158015613824573d6000803e3d6000fd5b505050506040513d601f19601f820116820180604052508101906138489190615c4c565b6138795760405162461bcd60e51b8152602060048201526002602482015261323160f01b60448201526064016105e7565b50505050505050565b61388a614bd2565b602081013561389f608083016060840161538e565b604051636eb1769f60e11b81523360048201523060248201526001600160a01b03919091169063dd62ed3e90604401602060405180830381600087803b1580156138e857600080fd5b505af11580156138fc573d6000803e3d6000fd5b505050506040513d601f19601f820116820180604052508101906139209190615e7d565b101580156139bc5750602081013561393e608083016060840161538e565b6040516370a0823160e01b81523360048201526001600160a01b0391909116906370a0823190602401602060405180830381600087803b15801561398157600080fd5b505af1158015613995573d6000803e3d6000fd5b505050506040513d601f19601f820116820180604052508101906139b99190615e7d565b10155b6139ed5760405162461bcd60e51b8152602060048201526002602482015261032360f41b60448201526064016105e7565b613a038135610a11610100840160e08501615c16565b613a335760405162461bcd60e51b81526020600482015260016024820152603760f81b60448201526064016105e7565b80356000818152600b6020908152604080832080546001810182559084529282902090920180546001600160a01b03191633179055815160808101909252918152613ac5918101613a8b610100850160e08601615c16565b61ffff168152602001613aa460e0850160c08601615c31565b6003811115613ab557613ab56153b2565b8152602001600090526000614ecd565b602081013560016002613ade60e0850160c08601615c31565b6003811115613aef57613aef6153b2565b1415613b0b57613b00600383615cba565b915060029050613b46565b6003613b1d60e0850160c08601615c31565b6003811115613b2e57613b2e6153b2565b1415613b4657613b3f600c83615cba565b9150600b90505b8235600090815260096020908152604080832033845290915281208054849290613b71908490615e02565b90915550600290506040805164ffffffffff42168152602080870135908201523391863591600080516020615f6c833981519152910160405180910390a460046040805164ffffffffff42168152602080870135908201523391863591600080516020615f6c833981519152910160405180910390a4613bf7608084016060850161538e565b6040516323b872dd60e01b8152336004820152306024820152604481018490526001600160a01b0391909116906323b872dd90606401602060405180830381600087803b158015613c4757600080fd5b505af1158015613c5b573d6000803e3d6000fd5b505050506040513d601f19601f82011682018060405250810190613c7f9190615c4c565b613c8857600080fd5b6002613c9a60e0850160c08601615c31565b6003811115613cab57613cab6153b2565b1480613cd757506003613cc460e0850160c08601615c31565b6003811115613cd557613cd56153b2565b145b15613da557613cec608084016060850161538e565b6001600160a01b03166323b872dd33613d0b606087016040880161538e565b613d158587615e47565b6040516001600160e01b031960e086901b1681526001600160a01b0393841660048201529290911660248301526044820152606401602060405180830381600087803b158015613d6457600080fd5b505af1158015613d78573d6000803e3d6000fd5b505050506040513d601f19601f82011682018060405250810190613d9c9190615c4c565b613da557600080fd5b505050565b6060613db4614b57565b60608315613eb3576001600160a01b038316600090815260076020908152604080832060020180548251818502810185019093528083529193909284015b82821015613ea8576000848152602090819020604080516080810182526002860290920180548352600181015461ffff81169484019490945291929083019062010000900460ff166003811115613e4b57613e4b6153b2565b6003811115613e5c57613e5c6153b2565b81526020016001820160039054906101000a900460ff166002811115613e8457613e846153b2565b6002811115613e9557613e956153b2565b8152505081526020019060010190613df2565b505050509050613fa6565b6001600160a01b038316600090815260076020908152604080832060030180548251818502810185019093528083529193909284015b82821015613f9f576000848152602090819020604080516080810182526002860290920180548352600181015461ffff81169484019490945291929083019062010000900460ff166003811115613f4257613f426153b2565b6003811115613f5357613f536153b2565b81526020016001820160039054906101000a900460ff166002811115613f7b57613f7b6153b2565b6002811115613f8c57613f8c6153b2565b8152505081526020019060010190613ee9565b5050505090505b6000815167ffffffffffffffff811115613fc257613fc26158ec565b60405190808252806020026020018201604052801561405d57816020015b61404a604080516101808101909152600060608083018281526080840183905260a0840183905260c0840183905260e08401839052610100840183905261012084018390526101408401929092526101608301528190815260200160008152602001600081525090565b815260200190600190039081613fe05790505b50905060005b8251811015614171576140818382815181106121f2576121f2615bcf565b82828151811061409357614093615bcf565b6020026020010151600001819052508281815181106140b4576140b4615bcf565b6020026020010151606001518282815181106140d2576140d2615bcf565b60200260200101516020019060028111156140ef576140ef6153b2565b90816002811115614102576141026153b2565b81525050600b600083838151811061411c5761411c615bcf565b6020026020010151600001516000015181526020019081526020016000208054905082828151811061415057614150615bcf565b6020908102919091010151604001528061416981615bfb565b915050614063565b509150505b92915050565b614184614b57565b60068054911515600160d01b0260ff60d01b19909216919091179055565b6141aa614b57565b61138847111561420357600654660100000000000090046001600160a01b03166108fc6141d961138847615e66565b6040518115909202916000818181858888f19350505050158015614201573d6000803e3d6000fd5b505b565b606060006142124261520a565b60065490915064ffffffffff61010090910481169082161161425b5760405162461bcd60e51b81526020600482015260026024820152610c4d60f21b60448201526064016105e7565b600061426642611cd4565b9050600080600060025467ffffffffffffffff811115614288576142886158ec565b6040519080825280602002602001820160405280156142cd57816020015b60408051808201909152600080825260208201528152602001906001900390816142a65790505b50905060005b600381116145b0576000816142e9575060208501515b60018214156142f6575084515b6002821415614306575060408501515b6003821415614316575060608501515b60005b6000838152600a6020908152604080832061ffff8616845290915290205481101561459b576000838152600a6020908152604080832061ffff86168452909152902080548290811061436d5761436d615bcf565b906000526020600020906005020160030160159054906101000a900460ff16614589576000838152600a6020908152604080832061ffff8616845290915281208054839081106143bf576143bf615bcf565b60009182526020808320600590920290910154868352600a8252604080842061ffff881685529092529082208054919350908490811061440157614401615bcf565b6000918252602080832060036005909302019190910154878352600a8252604080842061ffff8916855290925290822080546001600160a01b039092169350908590811061445157614451615bcf565b906000526020600020906005020160010154905061448b60405180604001604052806000815260200160006001600160a01b031681525090565b6000826127106000548561449f9190615e47565b6144a99190615cba565b6144b39190615e66565b90506000805b6000878152600b6020526040902054811015614581576002548d14156144ed5750989e9d5050505050505050505050505050565b6003541580614503575060065460ff1615156001145b1561456f578c61451281615bfb565b9d5061452090508383615e02565b91506040518060400160405280838152602001876001600160a01b03168152509350838b8d8151811061455557614555615bcf565b60200260200101819052508b8061456b90615bfb565b9c50505b8061457981615bfb565b9150506144b9565b505050505050505b8061459381615bfb565b915050614319565b505080806145a890615bfb565b9150506142d3565b506000805b82518110156146105760006001600160a01b03168382815181106145db576145db615bcf565b6020026020010151602001516001600160a01b031614156145fe57809150614610565b8061460881615bfb565b9150506145b5565b5060008167ffffffffffffffff81111561462c5761462c6158ec565b60405190808252806020026020018201604052801561467157816020015b604080518082019091526000808252602082015281526020019060019003908161464a5790505b50905060005b828110156146c95783818151811061469157614691615bcf565b60200260200101518282815181106146ab576146ab615bcf565b602002602001018190525080806146c190615bfb565b915050614677565b50979650505050505050565b6146dd614b57565b6001600160a01b0382166146f057600080fd5b6146f982614ba0565b1561472a5760405162461bcd60e51b81526020600482015260016024820152603160f81b60448201526064016105e7565b604080516060810182526001600160a01b03938416808252602080830194855260018385018181526000938452600590925293909120915182546001600160a01b031916951694909417815591519082015590516002909101805460ff1916911515919091179055565b61479c614bd2565b3360009081526007602052604081206002015467ffffffffffffffff8111156147c7576147c76158ec565b60405190808252806020026020018201604052801561482257816020015b61480f60408051608081018252600080825260208201819052909182019081526020016000905290565b8152602001906001900390816147e55790505b50336000908152600760209081526040808320600201805482518185028101850190935280835294955090939092909184015b8282101561490b576000848152602090819020604080516080810182526002860290920180548352600181015461ffff81169484019490945291929083019062010000900460ff1660038111156148ae576148ae6153b2565b60038111156148bf576148bf6153b2565b81526020016001820160039054906101000a900460ff1660028111156148e7576148e76153b2565b60028111156148f8576148f86153b2565b8152505081526020019060010190614855565b5050336000908152600760205260408120600201549394509150505b818110156149c857836000015183828151811061494657614946615bcf565b60200260200101516000015114156149b657336000908152600760205260409020600290810180548390811061497e5761497e615bcf565b906000526020600020906002020160010160036101000a81548160ff021916908360028111156149b0576149b06153b2565b02179055505b806149c081615bfb565b915050614927565b5082516149d59033614c8e565b600383516020808601516040805164ffffffffff4216815292830191909152339291600080516020615f6c833981519152910160405180910390a48251600090815260096020818152604080842033808652908352818520548851865293835281852090855290915282209190915560046040808601518651825164ffffffffff42168152602081018690526001600160a01b039092169290917ffcb91fd98787d64bdba700bb305716e8b6cebeef9927c71b19ed9b0ab1b892b0910160405180910390a46060840151604080860151905163a9059cbb60e01b81526001600160a01b0391821660048201526024810184905291169063a9059cbb90604401602060405180830381600087803b158015614aee57600080fd5b505af1158015614b02573d6000803e3d6000fd5b505050506040513d601f19601f82011682018060405250810190614b269190615c4c565b6131815760405162461bcd60e51b8152602060048201526002602482015261323160f01b60448201526064016105e7565b600654660100000000000090046001600160a01b031633146142035760405162461bcd60e51b8152602060048201526002602482015261189b60f11b60448201526064016105e7565b6001600160a01b03811660009081526005602052604081206002015460ff16614bca576000614176565b600192915050565b336142035760405162461bcd60e51b81526020600482015260016024820152603360f81b60448201526064016105e7565b60008060405180608001604052808781526020018661ffff168152602001856003811115614c3357614c336153b2565b8152602001846002811115614c4a57614c4a6153b2565b81525090506000614c68826000015183604001518460200151611536565b9050806080015115614c7f57600192505050614c86565b6000925050505b949350505050565b6000828152600b602052604081208054909190815b81811015614d2757846001600160a01b0316848281548110614cc757614cc7615bcf565b6000918252602090912001546001600160a01b03161415614d1557809250838181548110614cf757614cf7615bcf565b600091825260209091200180546001600160a01b0319169055614d27565b80614d1f81615bfb565b915050614ca3565b5082548390614d3890600190615e66565b81548110614d4857614d48615bcf565b9060005260206000200160009054906101000a90046001600160a01b0316838381548110614d7857614d78615bcf565b9060005260206000200160006101000a8154816001600160a01b0302191690836001600160a01b0316021790555082805480614db657614db6615ebf565b600082815260209020810160001990810180546001600160a01b03191690550190555050505050565b614e2e6040805161012081018252600080825260208201819052918101829052606081018290526080810182905260a081018290529060c0820190815260006020820152606060409091015290565b60003386848742604051602001614e49959493929190615ed5565b60408051601f198184030181528282528051602091820120610120840183528084529083018a905233918301919091526001600160a01b038816606083015260016080830152600060a0830152915060c08101856003811115614eae57614eae6153b2565b81526020018461ffff1681526020018681525091505095945050505050565b33600090815260076020526040902054600160a01b900460ff16614f575733600081815260076020526040812080546001600160a01b03199081168417825560088054600181019091557ff3f7a9fe364faab93b216da50a3214154f22a0a2b415b23a84c8169e8b636ee301805490911684179055919052805460ff60a01b1916600160a01b1790555b801561500d57336000908152600760209081526040808320600390810180546001808201835591865294849020875160029096020194855592860151928401805461ffff19811661ffff9095169485178255928701518795949093919262ffffff19909216179062010000908490811115614fd457614fd46153b2565b0217905550606082015160018201805463ff00000019166301000000836002811115615002576150026153b2565b021790555050505050565b33600090815260076020908152604080832060029081018054600180820183559186529484902087519590920290910193845591850151918301805461ffff19811661ffff909416938417825591860151869493909262ffffff19161762010000836003811115614fd457614fd46153b2565b600081600114806150915750816003145b8061509c5750816005145b806150a75750816007145b806150b25750816008145b806150bd575081600a145b806150c8575081600c145b156150d55750601f614176565b816002146150e55750601e614176565b6150ee83615273565b6150f957601c6150fc565b601d5b60ff169392505050565b60008061511283615273565b1561511f57506001615123565b5060005b61512e81605a615e02565b841161513c578391506151cd565b8361514882605a615e02565b10801561515f575061515b8160b5615e02565b8411155b156151805761516f81605a615e02565b6151799085615e66565b91506151cd565b8361518c8260b5615e02565b1080156151a457506151a081610111615e02565b8411155b156151b45761516f8160b5615e02565b6151c081610111615e02565b6151ca9085615e66565b91505b5092915050565b6000806151e46201518084615cba565b9050600060076151f5836003615e02565b6151ff9190615f33565b614c86906001615e02565b60006141766201518083615f47565b6142018160405160240161522f91815260200190565b60408051601f198184030181529190526020810180517bffffffffffffffffffffffffffffffffffffffffffffffffffffffff1663f82c50f160e01b1790526152af565b6000615280600483615f33565b1580156152965750615293606483615f33565b15155b8061417657506152a861019083615f33565b1592915050565b80516a636f6e736f6c652e6c6f67602083016000808483855afa5050505050565b8280546152dc90615c69565b90600052602060002090601f0160209004810192826152fe5760008555615344565b82601f1061531757805160ff1916838001178555615344565b82800160010185558215615344579182015b82811115615344578251825591602001919060010190615329565b50615350929150615354565b5090565b5b808211156153505760008155600101615355565b6001600160a01b038116811461420157600080fd5b803561538981615369565b919050565b6000602082840312156153a057600080fd5b81356153ab81615369565b9392505050565b634e487b7160e01b600052602160045260246000fd5b600481106153d8576153d86153b2565b9052565b600381106153d8576153d86153b2565b600081518084526020808501945080840160005b838110156154565781518051885261ffff84820151168489015260408082015161542c828b01826153c8565b505060609081015190615441898201836153dc565b50506080969096019590820190600101615400565b509495945050505050565b60006020808301818452808551808352604092508286019150828160051b8701018488016000805b8481101561554557898403603f19018652825180516001600160a01b03168552888101511515898601528781015160a0898701819052815190870181905260c08701918b019085905b808210156154f957825164ffffffffff168452928c0192918c0191600191909101906154d2565b5050506060808301518783038289015261551383826153ec565b925050506080808301519250868203818801525061553181836153ec565b978a01979550505091870191600101615489565b50919998505050505050505050565b60006020828403121561556657600080fd5b813567ffffffffffffffff81111561557d57600080fd5b820161012081850312156153ab57600080fd5b6000602082840312156155a257600080fd5b5035919050565b80356004811061538957600080fd5b803561ffff8116811461538957600080fd5b6000806000606084860312156155df57600080fd5b833592506155ef602085016155a9565b91506155fd604085016155b8565b90509250925092565b60005b83811015615621578181015183820152602001615609565b838111156131815750506000910152565b6000815180845261564a816020860160208601615606565b601f01601f19169290920160200192915050565b600061012082518452602083015160208501526001600160a01b036040840151166040850152606083015161569e60608601826001600160a01b03169052565b5060808301516156b2608086018215159052565b5060a08301516156c660a086018215159052565b5060c08301516156d960c08601826153c8565b5060e08301516156ef60e086018261ffff169052565b5061010080840151828287015261570883870182615632565b9695505050505050565b6020815260006153ab602083018461565e565b60008060008060008060a0878903121561573e57600080fd5b86359550602087013561575081615369565b9450604087013567ffffffffffffffff8082111561576d57600080fd5b818901915089601f83011261578157600080fd5b81358181111561579057600080fd5b8a60208285010111156157a257600080fd5b6020830196508095505050506157ba606088016155a9565b91506157c8608088016155b8565b90509295509295509295565b801515811461420157600080fd5b8035615389816157d4565b6000602082840312156157ff57600080fd5b81356153ab816157d4565b60006020808301818452808551808352604092508286019150828160051b87010184880160005b8381101561588657603f198984030185528151606081518186526158578287018261565e565b9150508882015161586a8a8701826153dc565b5090870151938701939093529386019390860190600101615831565b509098975050505050505050565b602080825282518282018190526000919060409081850190868401855b828110156158df57815180516001600160a01b031685528601518685015292840192908501906001016158b1565b5091979650505050505050565b634e487b7160e01b600052604160045260246000fd5b604051610120810167ffffffffffffffff81118282101715615926576159266158ec565b60405290565b600082601f83011261593d57600080fd5b813567ffffffffffffffff80821115615958576159586158ec565b604051601f8301601f19908116603f01168101908282118183101715615980576159806158ec565b8160405283815286602085880101111561599957600080fd5b836020870160208301376000602085830101528094505050505092915050565b600061012082840312156159cc57600080fd5b6159d4615902565b905081358152602082013560208201526159f06040830161537e565b6040820152615a016060830161537e565b6060820152615a12608083016157e2565b6080820152615a2360a083016157e2565b60a0820152615a3460c083016155a9565b60c0820152615a4560e083016155b8565b60e08201526101008083013567ffffffffffffffff811115615a6657600080fd5b615a728582860161592c565b82840152505092915050565b60008060408385031215615a9157600080fd5b823567ffffffffffffffff811115615aa857600080fd5b615ab4858286016159b9565b9250506020830135615ac581615369565b809150509250929050565b60008060408385031215615ae357600080fd5b8235615aee816157d4565b91506020830135615ac581615369565b602080825282518282018190526000919060409081850190868401855b828110156158df578151805185528601516001600160a01b0316868501529284019290850190600101615b1b565b60008060408385031215615b5c57600080fd5b823591506020830135615ac581615369565b60008060408385031215615b8157600080fd5b8235615b8c81615369565b946020939093013593505050565b600060208284031215615bac57600080fd5b813567ffffffffffffffff811115615bc357600080fd5b6151ca848285016159b9565b634e487b7160e01b600052603260045260246000fd5b634e487b7160e01b600052601160045260246000fd5b6000600019821415615c0f57615c0f615be5565b5060010190565b600060208284031215615c2857600080fd5b6153ab826155b8565b600060208284031215615c4357600080fd5b6153ab826155a9565b600060208284031215615c5e57600080fd5b81516153ab816157d4565b600181811c90821680615c7d57607f821691505b60208210811415615c9e57634e487b7160e01b600052602260045260246000fd5b50919050565b634e487b7160e01b600052601260045260246000fd5b600082615cc957615cc9615ca4565b500490565b6000808212826001600160ff1b0303841381151615615cef57615cef615be5565b600160ff1b8390038412811615615d0857615d08615be5565b50500190565b60006001600160ff1b03600084136000841385830485118282161615615d3657615d36615be5565b600160ff1b6000871282811687830589121615615d5557615d55615be5565b60008712925087820587128484161615615d7157615d71615be5565b87850587128184161615615d8757615d87615be5565b505050929093029392505050565b600082615da457615da4615ca4565b600160ff1b821460001984141615615dbe57615dbe615be5565b500590565b60008083128015600160ff1b850184121615615de157615de1615be5565b836001600160ff1b03018313811615615dfc57615dfc615be5565b50500390565b60008219821115615e1557615e15615be5565b500190565b600064ffffffffff80831681851681830481118215151615615e3e57615e3e615be5565b02949350505050565b6000816000190483118215151615615e6157615e61615be5565b500290565b600082821015615e7857615e78615be5565b500390565b600060208284031215615e8f57600080fd5b5051919050565b600064ffffffffff808316818516808303821115615eb657615eb6615be5565b01949350505050565b634e487b7160e01b600052603160045260246000fd5b60006bffffffffffffffffffffffff19808860601b168352808760601b1660148401525061ffff60f01b8560f01b1660288301528351615f1c81602a850160208801615606565b602a920191820192909252604a0195945050505050565b600082615f4257615f42615ca4565b500690565b600064ffffffffff80841680615f5f57615f5f615ca4565b9216919091049291505056fefcfb8f783c54c9c729957515ad137cd8832b98c21e44fd7f481e2e7603bfdb5fa2646970667358221220b47031d6cb86f017cd1f4fba4f0402bfd0d2f9d50a218e444c0f8d1feec89e4264736f6c63430008090033",
  "linkReferences": {},
  "deployedLinkReferences": {}
}