{
  "_format": "hh-sol-artifact-1",
  "contractName": "ClockTowerSubscribe",
  "sourceName": "contracts/ClockTowerSubscribe.sol",
  "abi": [
    {
      "inputs": [
        {
          "internalType": "uint256",
          "name": "callerFee_",
          "type": "uint256"
        },
        {
          "internalType": "uint256",
          "name": "systemFee_",
          "type": "uint256"
        },
        {
          "internalType": "uint256",
          "name": "maxRemits_",
          "type": "uint256"
        },
        {
          "internalType": "bool",
          "name": "allowSystemFee_",
          "type": "bool"
        },
        {
          "internalType": "address",
          "name": "admin_",
          "type": "address"
        }
      ],
      "stateMutability": "nonpayable",
      "type": "constructor"
    },
    {
      "inputs": [
        {
          "internalType": "address",
          "name": "token",
          "type": "address"
        }
      ],
      "name": "SafeERC20FailedOperation",
      "type": "error"
    },
    {
      "anonymous": false,
      "inputs": [
        {
          "indexed": true,
          "internalType": "uint40",
          "name": "timestamp",
          "type": "uint40"
        },
        {
          "indexed": true,
          "internalType": "uint40",
          "name": "checkedDay",
          "type": "uint40"
        },
        {
          "indexed": true,
          "internalType": "address",
          "name": "caller",
          "type": "address"
        },
        {
          "indexed": false,
          "internalType": "bool",
          "name": "isFinished",
          "type": "bool"
        }
      ],
      "name": "CallerLog",
      "type": "event"
    },
    {
      "anonymous": false,
      "inputs": [
        {
          "indexed": true,
          "internalType": "bytes32",
          "name": "id",
          "type": "bytes32"
        },
        {
          "indexed": true,
          "internalType": "address",
          "name": "provider",
          "type": "address"
        },
        {
          "indexed": true,
          "internalType": "uint40",
          "name": "timestamp",
          "type": "uint40"
        },
        {
          "indexed": false,
          "internalType": "string",
          "name": "url",
          "type": "string"
        },
        {
          "indexed": false,
          "internalType": "string",
          "name": "description",
          "type": "string"
        }
      ],
      "name": "DetailsLog",
      "type": "event"
    },
    {
      "anonymous": false,
      "inputs": [
        {
          "indexed": true,
          "internalType": "address",
          "name": "provider",
          "type": "address"
        },
        {
          "indexed": true,
          "internalType": "uint40",
          "name": "timestamp",
          "type": "uint40"
        },
        {
          "indexed": true,
          "internalType": "string",
          "name": "description",
          "type": "string"
        },
        {
          "indexed": false,
          "internalType": "string",
          "name": "company",
          "type": "string"
        },
        {
          "indexed": false,
          "internalType": "string",
          "name": "url",
          "type": "string"
        },
        {
          "indexed": false,
          "internalType": "string",
          "name": "domain",
          "type": "string"
        },
        {
          "indexed": false,
          "internalType": "string",
          "name": "email",
          "type": "string"
        },
        {
          "indexed": false,
          "internalType": "string",
          "name": "misc",
          "type": "string"
        }
      ],
      "name": "ProvDetailsLog",
      "type": "event"
    },
    {
      "anonymous": false,
      "inputs": [
        {
          "indexed": true,
          "internalType": "bytes32",
          "name": "id",
          "type": "bytes32"
        },
        {
          "indexed": true,
          "internalType": "address",
          "name": "provider",
          "type": "address"
        },
        {
          "indexed": true,
          "internalType": "address",
          "name": "subscriber",
          "type": "address"
        },
        {
          "indexed": false,
          "internalType": "uint40",
          "name": "timestamp",
          "type": "uint40"
        },
        {
          "indexed": false,
          "internalType": "uint256",
          "name": "amount",
          "type": "uint256"
        },
        {
          "indexed": false,
          "internalType": "address",
          "name": "token",
          "type": "address"
        },
        {
          "indexed": false,
          "internalType": "enum ClockTowerSubscribe.SubscriptEvent",
          "name": "subScriptEvent",
          "type": "uint8"
        }
      ],
      "name": "SubLog",
      "type": "event"
    },
    {
      "inputs": [
        {
          "internalType": "uint256",
          "name": "",
          "type": "uint256"
        }
      ],
      "name": "accountLookup",
      "outputs": [
        {
          "internalType": "address",
          "name": "",
          "type": "address"
        }
      ],
      "stateMutability": "view",
      "type": "function"
    },
    {
      "inputs": [
        {
          "internalType": "address",
          "name": "erc20Contract",
          "type": "address"
        },
        {
          "internalType": "uint256",
          "name": "minimum",
          "type": "uint256"
        },
        {
          "internalType": "uint8",
          "name": "decimals",
          "type": "uint8"
        }
      ],
      "name": "addERC20Contract",
      "outputs": [],
      "stateMutability": "nonpayable",
      "type": "function"
    },
    {
      "inputs": [
        {
          "internalType": "address",
          "name": "",
          "type": "address"
        }
      ],
      "name": "approvedERC20",
      "outputs": [
        {
          "internalType": "address",
          "name": "tokenAddress",
          "type": "address"
        },
        {
          "internalType": "uint256",
          "name": "minimum",
          "type": "uint256"
        },
        {
          "internalType": "uint8",
          "name": "decimals",
          "type": "uint8"
        },
        {
          "internalType": "bool",
          "name": "exists",
          "type": "bool"
        }
      ],
      "stateMutability": "view",
      "type": "function"
    },
    {
      "inputs": [],
      "name": "callerFee",
      "outputs": [
        {
          "internalType": "uint256",
          "name": "",
          "type": "uint256"
        }
      ],
      "stateMutability": "view",
      "type": "function"
    },
    {
      "inputs": [
        {
          "components": [
            {
              "internalType": "bytes32",
              "name": "id",
              "type": "bytes32"
            },
            {
              "internalType": "uint256",
              "name": "amount",
              "type": "uint256"
            },
            {
              "internalType": "address",
              "name": "provider",
              "type": "address"
            },
            {
              "internalType": "address",
              "name": "token",
              "type": "address"
            },
            {
              "internalType": "bool",
              "name": "exists",
              "type": "bool"
            },
            {
              "internalType": "bool",
              "name": "cancelled",
              "type": "bool"
            },
            {
              "internalType": "enum ClockTowerSubscribe.Frequency",
              "name": "frequency",
              "type": "uint8"
            },
            {
              "internalType": "uint16",
              "name": "dueDay",
              "type": "uint16"
            }
          ],
          "internalType": "struct ClockTowerSubscribe.Subscription",
          "name": "subscription",
          "type": "tuple"
        }
      ],
      "name": "cancelSubscription",
      "outputs": [],
      "stateMutability": "nonpayable",
      "type": "function"
    },
    {
      "inputs": [
        {
          "internalType": "address",
          "name": "newAddress",
          "type": "address"
        }
      ],
      "name": "changeAdmin",
      "outputs": [],
      "stateMutability": "nonpayable",
      "type": "function"
    },
    {
      "inputs": [
        {
          "internalType": "uint256",
          "name": "_fee",
          "type": "uint256"
        }
      ],
      "name": "changeCallerFee",
      "outputs": [],
      "stateMutability": "nonpayable",
      "type": "function"
    },
    {
      "inputs": [
        {
          "internalType": "uint256",
          "name": "_maxRemits",
          "type": "uint256"
        }
      ],
      "name": "changeMaxRemits",
      "outputs": [],
      "stateMutability": "nonpayable",
      "type": "function"
    },
    {
      "inputs": [
        {
          "internalType": "address",
          "name": "newSysFeeAddress",
          "type": "address"
        }
      ],
      "name": "changeSysFeeReceiver",
      "outputs": [],
      "stateMutability": "nonpayable",
      "type": "function"
    },
    {
      "inputs": [
        {
          "internalType": "uint256",
          "name": "_sys_fee",
          "type": "uint256"
        }
      ],
      "name": "changeSystemFee",
      "outputs": [],
      "stateMutability": "nonpayable",
      "type": "function"
    },
    {
      "inputs": [
        {
          "internalType": "uint256",
          "name": "amount",
          "type": "uint256"
        },
        {
          "internalType": "address",
          "name": "token",
          "type": "address"
        },
        {
          "components": [
            {
              "internalType": "string",
              "name": "url",
              "type": "string"
            },
            {
              "internalType": "string",
              "name": "description",
              "type": "string"
            }
          ],
          "internalType": "struct ClockTowerSubscribe.Details",
          "name": "details",
          "type": "tuple"
        },
        {
          "internalType": "enum ClockTowerSubscribe.Frequency",
          "name": "frequency",
          "type": "uint8"
        },
        {
          "internalType": "uint16",
          "name": "dueDay",
          "type": "uint16"
        }
      ],
      "name": "createSubscription",
      "outputs": [],
      "stateMutability": "nonpayable",
      "type": "function"
    },
    {
      "inputs": [
        {
          "components": [
            {
              "internalType": "string",
              "name": "url",
              "type": "string"
            },
            {
              "internalType": "string",
              "name": "description",
              "type": "string"
            }
          ],
          "internalType": "struct ClockTowerSubscribe.Details",
          "name": "details",
          "type": "tuple"
        },
        {
          "internalType": "bytes32",
          "name": "id",
          "type": "bytes32"
        }
      ],
      "name": "editDetails",
      "outputs": [],
      "stateMutability": "nonpayable",
      "type": "function"
    },
    {
      "inputs": [
        {
          "components": [
            {
              "internalType": "string",
              "name": "description",
              "type": "string"
            },
            {
              "internalType": "string",
              "name": "company",
              "type": "string"
            },
            {
              "internalType": "string",
              "name": "url",
              "type": "string"
            },
            {
              "internalType": "string",
              "name": "domain",
              "type": "string"
            },
            {
              "internalType": "string",
              "name": "email",
              "type": "string"
            },
            {
              "internalType": "string",
              "name": "misc",
              "type": "string"
            }
          ],
          "internalType": "struct ClockTowerSubscribe.ProviderDetails",
          "name": "details",
          "type": "tuple"
        }
      ],
      "name": "editProvDetails",
      "outputs": [],
      "stateMutability": "nonpayable",
      "type": "function"
    },
    {
      "inputs": [
        {
          "internalType": "bytes32",
          "name": "",
          "type": "bytes32"
        },
        {
          "internalType": "address",
          "name": "",
          "type": "address"
        }
      ],
      "name": "feeBalance",
      "outputs": [
        {
          "internalType": "uint256",
          "name": "",
          "type": "uint256"
        }
      ],
      "stateMutability": "view",
      "type": "function"
    },
    {
      "inputs": [],
      "name": "feeEstimate",
      "outputs": [
        {
          "components": [
            {
              "internalType": "uint256",
              "name": "fee",
              "type": "uint256"
            },
            {
              "internalType": "address",
              "name": "token",
              "type": "address"
            }
          ],
          "internalType": "struct ClockTowerSubscribe.FeeEstimate[]",
          "name": "",
          "type": "tuple[]"
        }
      ],
      "stateMutability": "view",
      "type": "function"
    },
    {
      "inputs": [
        {
          "internalType": "address",
          "name": "account",
          "type": "address"
        }
      ],
      "name": "getAccount",
      "outputs": [
        {
          "components": [
            {
              "internalType": "address",
              "name": "accountAddress",
              "type": "address"
            },
            {
              "internalType": "bool",
              "name": "exists",
              "type": "bool"
            },
            {
              "components": [
                {
                  "internalType": "bytes32",
                  "name": "id",
                  "type": "bytes32"
                },
                {
                  "internalType": "uint16",
                  "name": "dueDay",
                  "type": "uint16"
                },
                {
                  "internalType": "enum ClockTowerSubscribe.Frequency",
                  "name": "frequency",
                  "type": "uint8"
                },
                {
                  "internalType": "enum ClockTowerSubscribe.Status",
                  "name": "status",
                  "type": "uint8"
                }
              ],
              "internalType": "struct ClockTowerSubscribe.SubIndex[]",
              "name": "subscriptions",
              "type": "tuple[]"
            },
            {
              "components": [
                {
                  "internalType": "bytes32",
                  "name": "id",
                  "type": "bytes32"
                },
                {
                  "internalType": "uint16",
                  "name": "dueDay",
                  "type": "uint16"
                },
                {
                  "internalType": "enum ClockTowerSubscribe.Frequency",
                  "name": "frequency",
                  "type": "uint8"
                },
                {
                  "internalType": "enum ClockTowerSubscribe.Status",
                  "name": "status",
                  "type": "uint8"
                }
              ],
              "internalType": "struct ClockTowerSubscribe.SubIndex[]",
              "name": "provSubs",
              "type": "tuple[]"
            }
          ],
          "internalType": "struct ClockTowerSubscribe.Account",
          "name": "",
          "type": "tuple"
        }
      ],
      "stateMutability": "view",
      "type": "function"
    },
    {
      "inputs": [
        {
          "internalType": "bool",
          "name": "bySubscriber",
          "type": "bool"
        },
        {
          "internalType": "address",
          "name": "account",
          "type": "address"
        }
      ],
      "name": "getAccountSubscriptions",
      "outputs": [
        {
          "components": [
            {
              "components": [
                {
                  "internalType": "bytes32",
                  "name": "id",
                  "type": "bytes32"
                },
                {
                  "internalType": "uint256",
                  "name": "amount",
                  "type": "uint256"
                },
                {
                  "internalType": "address",
                  "name": "provider",
                  "type": "address"
                },
                {
                  "internalType": "address",
                  "name": "token",
                  "type": "address"
                },
                {
                  "internalType": "bool",
                  "name": "exists",
                  "type": "bool"
                },
                {
                  "internalType": "bool",
                  "name": "cancelled",
                  "type": "bool"
                },
                {
                  "internalType": "enum ClockTowerSubscribe.Frequency",
                  "name": "frequency",
                  "type": "uint8"
                },
                {
                  "internalType": "uint16",
                  "name": "dueDay",
                  "type": "uint16"
                }
              ],
              "internalType": "struct ClockTowerSubscribe.Subscription",
              "name": "subscription",
              "type": "tuple"
            },
            {
              "internalType": "enum ClockTowerSubscribe.Status",
              "name": "status",
              "type": "uint8"
            },
            {
              "internalType": "uint256",
              "name": "totalSubscribers",
              "type": "uint256"
            }
          ],
          "internalType": "struct ClockTowerSubscribe.SubView[]",
          "name": "",
          "type": "tuple[]"
        }
      ],
      "stateMutability": "view",
      "type": "function"
    },
    {
      "inputs": [
        {
          "internalType": "bytes32",
          "name": "id",
          "type": "bytes32"
        },
        {
          "internalType": "enum ClockTowerSubscribe.Frequency",
          "name": "frequency",
          "type": "uint8"
        },
        {
          "internalType": "uint16",
          "name": "dueDay",
          "type": "uint16"
        }
      ],
      "name": "getSubByIndex",
      "outputs": [
        {
          "components": [
            {
              "internalType": "bytes32",
              "name": "id",
              "type": "bytes32"
            },
            {
              "internalType": "uint256",
              "name": "amount",
              "type": "uint256"
            },
            {
              "internalType": "address",
              "name": "provider",
              "type": "address"
            },
            {
              "internalType": "address",
              "name": "token",
              "type": "address"
            },
            {
              "internalType": "bool",
              "name": "exists",
              "type": "bool"
            },
            {
              "internalType": "bool",
              "name": "cancelled",
              "type": "bool"
            },
            {
              "internalType": "enum ClockTowerSubscribe.Frequency",
              "name": "frequency",
              "type": "uint8"
            },
            {
              "internalType": "uint16",
              "name": "dueDay",
              "type": "uint16"
            }
          ],
          "internalType": "struct ClockTowerSubscribe.Subscription",
          "name": "subscription",
          "type": "tuple"
        }
      ],
      "stateMutability": "view",
      "type": "function"
    },
    {
      "inputs": [
        {
          "internalType": "bytes32",
          "name": "id",
          "type": "bytes32"
        }
      ],
      "name": "getSubscribersById",
      "outputs": [
        {
          "components": [
            {
              "internalType": "address",
              "name": "subscriber",
              "type": "address"
            },
            {
              "internalType": "uint256",
              "name": "feeBalance",
              "type": "uint256"
            }
          ],
          "internalType": "struct ClockTowerSubscribe.SubscriberView[]",
          "name": "",
          "type": "tuple[]"
        }
      ],
      "stateMutability": "view",
      "type": "function"
    },
    {
      "inputs": [],
      "name": "getTotalSubscribers",
      "outputs": [
        {
          "internalType": "uint256",
          "name": "",
          "type": "uint256"
        }
      ],
      "stateMutability": "view",
      "type": "function"
    },
    {
      "inputs": [],
      "name": "maxRemits",
      "outputs": [
        {
          "internalType": "uint256",
          "name": "",
          "type": "uint256"
        }
      ],
      "stateMutability": "view",
      "type": "function"
    },
    {
      "inputs": [],
      "name": "nextUncheckedDay",
      "outputs": [
        {
          "internalType": "uint40",
          "name": "",
          "type": "uint40"
        }
      ],
      "stateMutability": "view",
      "type": "function"
    },
    {
      "inputs": [],
      "name": "remit",
      "outputs": [],
      "stateMutability": "nonpayable",
      "type": "function"
    },
    {
      "inputs": [
        {
          "components": [
            {
              "internalType": "bytes32",
              "name": "id",
              "type": "bytes32"
            },
            {
              "internalType": "uint256",
              "name": "amount",
              "type": "uint256"
            },
            {
              "internalType": "address",
              "name": "provider",
              "type": "address"
            },
            {
              "internalType": "address",
              "name": "token",
              "type": "address"
            },
            {
              "internalType": "bool",
              "name": "exists",
              "type": "bool"
            },
            {
              "internalType": "bool",
              "name": "cancelled",
              "type": "bool"
            },
            {
              "internalType": "enum ClockTowerSubscribe.Frequency",
              "name": "frequency",
              "type": "uint8"
            },
            {
              "internalType": "uint16",
              "name": "dueDay",
              "type": "uint16"
            }
          ],
          "internalType": "struct ClockTowerSubscribe.Subscription",
          "name": "subscription",
          "type": "tuple"
        }
      ],
      "name": "subscribe",
      "outputs": [],
      "stateMutability": "nonpayable",
      "type": "function"
    },
    {
      "inputs": [],
      "name": "systemFee",
      "outputs": [
        {
          "internalType": "uint256",
          "name": "",
          "type": "uint256"
        }
      ],
      "stateMutability": "view",
      "type": "function"
    },
    {
      "inputs": [
        {
          "internalType": "bool",
          "name": "status",
          "type": "bool"
        }
      ],
      "name": "systemFeeActivate",
      "outputs": [],
      "stateMutability": "nonpayable",
      "type": "function"
    },
    {
      "inputs": [
        {
          "components": [
            {
              "internalType": "bytes32",
              "name": "id",
              "type": "bytes32"
            },
            {
              "internalType": "uint256",
              "name": "amount",
              "type": "uint256"
            },
            {
              "internalType": "address",
              "name": "provider",
              "type": "address"
            },
            {
              "internalType": "address",
              "name": "token",
              "type": "address"
            },
            {
              "internalType": "bool",
              "name": "exists",
              "type": "bool"
            },
            {
              "internalType": "bool",
              "name": "cancelled",
              "type": "bool"
            },
            {
              "internalType": "enum ClockTowerSubscribe.Frequency",
              "name": "frequency",
              "type": "uint8"
            },
            {
              "internalType": "uint16",
              "name": "dueDay",
              "type": "uint16"
            }
          ],
          "internalType": "struct ClockTowerSubscribe.Subscription",
          "name": "subscription",
          "type": "tuple"
        }
      ],
      "name": "unsubscribe",
      "outputs": [],
      "stateMutability": "nonpayable",
      "type": "function"
    },
    {
      "inputs": [
        {
          "components": [
            {
              "internalType": "bytes32",
              "name": "id",
              "type": "bytes32"
            },
            {
              "internalType": "uint256",
              "name": "amount",
              "type": "uint256"
            },
            {
              "internalType": "address",
              "name": "provider",
              "type": "address"
            },
            {
              "internalType": "address",
              "name": "token",
              "type": "address"
            },
            {
              "internalType": "bool",
              "name": "exists",
              "type": "bool"
            },
            {
              "internalType": "bool",
              "name": "cancelled",
              "type": "bool"
            },
            {
              "internalType": "enum ClockTowerSubscribe.Frequency",
              "name": "frequency",
              "type": "uint8"
            },
            {
              "internalType": "uint16",
              "name": "dueDay",
              "type": "uint16"
            }
          ],
          "internalType": "struct ClockTowerSubscribe.Subscription",
          "name": "subscription",
          "type": "tuple"
        },
        {
          "internalType": "address",
          "name": "subscriber",
          "type": "address"
        }
      ],
      "name": "unsubscribeByProvider",
      "outputs": [],
      "stateMutability": "nonpayable",
      "type": "function"
    }
  ],
  "bytecode": "0x608060405234801561000f575f5ffd5b506040516158de3803806158de83398101604081905261002e916100e2565b5f859055600184905560028381556007805460ff60a01b1916600160a01b8515150217905561005c426100ce565b6100669190610146565b60068054610100600160d01b03191661010064ffffffffff9390931692909202600160301b600160d01b0319169190911766010000000000006001600160a01b0393909316928302179055600780546001600160a01b0319169091179055506101a492505050565b5f6100dc620151808361016f565b92915050565b5f5f5f5f5f60a086880312156100f6575f5ffd5b85516020870151604088015160608901519297509095509350801515811461011c575f5ffd5b60808701519092506001600160a01b0381168114610138575f5ffd5b809150509295509295909350565b64ffffffffff82811682821603908111156100dc57634e487b7160e01b5f52601160045260245ffd5b5f64ffffffffff83168061019157634e487b7160e01b5f52601260045260245ffd5b8064ffffffffff84160491505092915050565b61572d806101b15f395ff3fe608060405234801561000f575f5ffd5b50600436106101bb575f3560e01c80638f283970116100f3578063d10f9e6911610093578063ebec6eaa1161006e578063ebec6eaa1461040e578063ed601d2814610438578063f4a2a2001461044b578063fbcbc0f114610476575f5ffd5b8063d10f9e69146103ba578063da854a96146103cd578063e63d35be146103f9575f5ffd5b8063ac2b4e63116100ce578063ac2b4e631461031e578063b25ae32c14610331578063bd74388614610339578063cab1c965146103b1575f5ffd5b80638f283970146102e5578063907cedb2146102f85780639889552e1461030b575f5ffd5b806344e497691161015e5780637bbf5a6e116101395780637bbf5a6e1461027f57806386525a001461029f57806387d888d3146102bf5780638ef0ef1c146102d2575f5ffd5b806344e49769146102515780634a1268b8146102645780637507ba3914610277575f5ffd5b806327ea97731161019957806327ea9773146102035780632d23f7e71461021657806334d441d0146102365780633c95dad51461023e575f5ffd5b80630b8590c7146101bf5780630bec99e8146101d45780631f17ee55146101e7575b5f5ffd5b6101d26101cd366004614a7a565b610496565b005b6101d26101e2366004614aee565b610908565b6101f060015481565b6040519081526020015b60405180910390f35b6101d2610211366004614aee565b610915565b610229610224366004614b05565b610922565b6040516101fa9190614be2565b6101f05f5481565b6101d261024c366004614bf1565b610af2565b6101d261025f366004614d10565b611090565b6101d2610272366004614d32565b6113cb565b6101d26114a8565b61029261028d366004614aee565b612123565b6040516101fa9190614d74565b6102b26102ad366004614dcb565b61230f565b6040516101fa9190614e0c565b6101d26102cd366004614bf1565b6126f8565b6101d26102e0366004614aee565b613076565b6101d26102f3366004614e6e565b613082565b6101d2610306366004614e87565b6130e0565b6101d2610319366004614eb2565b6134ab565b6101d261032c366004614e6e565b6134d1565b6009546101f0565b61037d610347366004614e6e565b60056020525f90815260409020805460018201546002909201546001600160a01b03909116919060ff8082169161010090041684565b604080516001600160a01b039095168552602085019390935260ff90911691830191909152151560608201526080016101fa565b6101f060025481565b6101d26103c8366004614ecb565b61350d565b6006546103e390610100900464ffffffffff1681565b60405164ffffffffff90911681526020016101fa565b6104016135c1565b6040516101fa9190614f0d565b6101f061041c366004614f59565b600a60209081525f928352604080842090915290825290205481565b6101d2610446366004615005565b613a46565b61045e610459366004614aee565b613ac5565b6040516001600160a01b0390911681526020016101fa565b610489610484366004614e6e565b613aed565b6040516101fa91906151be565b6001600160a01b0384166104d55760405162461bcd60e51b81526020600482015260016024820152600d60fa1b60448201526064015b60405180910390fd5b6104de84613d12565b61050e5760405162461bcd60e51b81526020600482015260016024820152603560f81b60448201526064016104cc565b5f82600381111561052157610521614b3e565b0361056f578061ffff165f10801561053e575060078161ffff1611155b61056f5760405162461bcd60e51b81526020600482015260026024820152610c4d60f21b60448201526064016104cc565b600182600381111561058357610583614b3e565b036105d1578061ffff165f1080156105a05750601c8161ffff1611155b6105d15760405162461bcd60e51b8152602060048201526002602482015261313560f01b60448201526064016104cc565b60028260038111156105e5576105e5614b3e565b03610633578061ffff165f1080156106025750605a8161ffff1611155b6106335760405162461bcd60e51b8152602060048201526002602482015261189b60f11b60448201526064016104cc565b600382600381111561064757610647614b3e565b03610696578061ffff165f108015610665575061016d8161ffff1611155b6106965760405162461bcd60e51b8152602060048201526002602482015261313760f01b60448201526064016104cc565b6001600160a01b0384165f908152600560205260409020600101548510156106e55760405162461bcd60e51b8152602060048201526002602482015261062760f31b60448201526064016104cc565b5f6106f286868585613d47565b905080600b5f85600381111561070a5761070a614b3e565b815260208082019290925260409081015f90812061ffff87168252835281812080546001818101835591835291849020855160049093020191825592840151928101929092558201516002820180546001600160a01b039283166001600160a01b0319909116179055606083015160038084018054608087015160a08801511515600160a81b0260ff60a81b19911515600160a01b0274ffffffffffffffffffffffffffffffffffffffffff199093169590961694909417179283168417815560c086015193909260ff60b01b1990911661ffff60a81b199091161790600160b01b9084908111156107fe576107fe614b3e565b021790555060e0918201516003918201805461ffff60b81b1916600160b81b61ffff93841602179055604080516080810182528551815293850151909116602084015260c084015161086d93929183019181111561085e5761085e614b3e565b81526020015f90526001613e50565b805164ffffffffff42169033907f93cda0785d40b289a535b99dc76d4c9cbb6d8146182861ac3ad40509398b18656108a5888061521e565b6108b260208b018b61521e565b6040516108c29493929190615290565b60405180910390a4805160608201516040515f92339290915f5160206156d85f395f51905f52916108f89142918d9188906152d1565b60405180910390a4505050505050565b610910613ffc565b600155565b61091d613ffc565b600255565b60408051610100810182525f80825260208201819052918101829052606081018290526080810182905260a0810182905260c0810182905260e0810182905290600b8185600381111561097757610977614b3e565b81526020019081526020015f205f8461ffff1661ffff1681526020019081526020015f20805480602002602001604051908101604052809291908181526020015f905b82821015610a90575f8481526020908190206040805161010081018252600486029092018054835260018101549383019390935260028301546001600160a01b0390811691830191909152600380840154918216606084015260ff600160a01b8304811615156080850152600160a81b83048116151560a085015292939260c0850192600160b01b90041690811115610a5557610a55614b3e565b6003811115610a6657610a66614b3e565b81526003919091015461ffff600160b81b90910416602091820152908252600190920191016109ba565b5050505090505f5b8151811015610ae95785828281518110610ab457610ab4615302565b60200260200101515f015103610ae157818181518110610ad657610ad6615302565b602002602001015192505b600101610a98565b50509392505050565b610b1e8135610b08610100840160e08501615316565b610b1860e0850160c0860161532f565b5f614046565b610b4e5760405162461bcd60e51b81526020600482015260016024820152603360f81b60448201526064016104cc565b5f610b8e6020830135600583610b6a6080870160608801614e6e565b6001600160a01b0316815260208101919091526040015f206002015460ff166140cd565b905080610ba16080840160608501614e6e565b604051636eb1769f60e11b81523360048201523060248201526001600160a01b03919091169063dd62ed3e90604401602060405180830381865afa158015610beb573d5f5f3e3d5ffd5b505050506040513d601f19601f82011682018060405250810190610c0f9190615348565b10158015610c94575080610c296080840160608501614e6e565b6040516370a0823160e01b81523360048201526001600160a01b0391909116906370a0823190602401602060405180830381865afa158015610c6d573d5f5f3e3d5ffd5b505050506040513d601f19601f82011682018060405250810190610c919190615348565b10155b610cc55760405162461bcd60e51b8152602060048201526002602482015261031360f41b60448201526064016104cc565b610cd56060830160408401614e6e565b6001600160a01b03163303610d105760405162461bcd60e51b81526020600482015260016024820152600360fc1b60448201526064016104cc565b81355f818152600c6020908152604080832080546001810182559084529282902090920180546001600160a01b03191633179055815160808101909252918152610d9f918101610d67610100860160e08701615316565b61ffff168152602001610d8060e0860160c0870161532f565b6003811115610d9157610d91614b3e565b81526020015f90525f613e50565b6020820135600180610db760e0860160c0870161532f565b6003811115610dc857610dc8614b3e565b1480610df357505f610de060e0860160c0870161532f565b6003811115610df157610df1614b3e565b145b15610e3f57610e3842610e0d610100870160e08801615316565b61ffff1684610e2260e0890160c08a0161532f565b6003811115610e3357610e33614b3e565b61413f565b9150610ee5565b6002610e5160e0860160c0870161532f565b6003811115610e6257610e62614b3e565b03610e9457610e7c42610e0d610100870160e08801615316565b9150610e89600383615387565b915060029050610ee5565b6003610ea660e0860160c0870161532f565b6003811115610eb757610eb7614b3e565b03610ee557610ed142610e0d610100870160e08801615316565b9150610ede600c83615387565b9150600b90505b83355f908152600a6020908152604080832033845290915281208054849290610f0f90849061539a565b90915550339050610f266060860160408701614e6e565b6001600160a01b031685355f5160206156d85f395f51905f52426020890135610f5560808b0160608c01614e6e565b6006604051610f6794939291906152d1565b60405180910390a433610f806060860160408701614e6e565b6001600160a01b031685355f5160206156d85f395f51905f524286610fab60808b0160608c01614e6e565b6008604051610fbd94939291906152d1565b60405180910390a46110023330610fe18560055f610b6a60808c0160608d01614e6e565b610ff16080890160608a01614e6e565b6001600160a01b0316929190614383565b600261101460e0860160c0870161532f565b600381111561102557611025614b3e565b14806110515750600361103e60e0860160c0870161532f565b600381111561104f5761104f614b3e565b145b1561108a5761108a3361106a6060870160408801614e6e565b610fe161107785876153ad565b60055f610b6a60808c0160608d01614e6e565b50505050565b335f9081526008602052604081206001015467ffffffffffffffff8111156110ba576110ba614c0b565b60405190808252806020026020018201604052801561111357816020015b611100604080516080810182525f80825260208201819052909182019081526020015f905290565b8152602001906001900390816110d85790505b50335f908152600860209081526040808320600101805482518185028101850190935280835294955090939092909184015b828210156111fa575f848152602090819020604080516080810182526002860290920180548352600181015461ffff81169484019490945291929083019062010000900460ff16600381111561119d5761119d614b3e565b60038111156111ae576111ae614b3e565b81526020016001820160039054906101000a900460ff1660028111156111d6576111d6614b3e565b60028111156111e7576111e7614b3e565b8152505081526020019060010190611145565b5050335f908152600860205260408120600101549394509150505b818110156112a857835f015183828151811061123357611233615302565b60200260200101515f0151036112a057335f9081526008602052604090206001018054600291908390811061126a5761126a615302565b905f5260205f20906002020160010160036101000a81548160ff0219169083600281111561129a5761129a614b3e565b02179055505b600101611215565b5082516112b590336143ff565b336001600160a01b031683604001516001600160a01b0316845f01515f5160206156d85f395f51905f52428760200151886060015160076040516112fc94939291906152d1565b60405180910390a482515f908152600a602081815260408084203380865290835281852054885186529383528185208186529092528084209390935582860151865160608801519451939492936001600160a01b039092169290915f5160206156d85f395f51905f529161137691429188916004906152d1565b60405180910390a460408085015160608601516001600160a01b03165f9081526005602052919091206002015461108a91906113b690849060ff166140cd565b60608701516001600160a01b0316919061453a565b6113d3613ffc565b6001600160a01b0383166113e5575f5ffd5b6113ee83613d12565b1561141f5760405162461bcd60e51b81526020600482015260016024820152603160f81b60448201526064016104cc565b604080516080810182526001600160a01b03948516808252602080830195865260ff9485168385019081526001606085018181525f948552600590935294909220925183546001600160a01b031916971696909617825593519181019190915591516002909201805493519290911661ffff199093169290921761010091151591909102179055565b60ff5f5c16156114df5760405162461bcd60e51b8152602060048201526002602482015261313960f01b60448201526064016104cc565b60015f805c60ff19168217905d505f6114f74261456b565b60065490915064ffffffffff610100909104811690821610156115405760405162461bcd60e51b81526020600482015260016024820152601b60f91b60448201526064016104cc565b6040805160c0810182525f80825260208201819052918101829052606081018290526080810182905260a081019190915260019060065464ffffffffff84811661010090920416146115bf576006546115b8906115ac90610100900464ffffffffff16620151806153c4565b64ffffffffff16614579565b90506115cb565b6115c842614579565b90505b5f5f5b6003811161204e575f816115e3575060208301515b600182036115ef575082515b600282036115fe575060408301515b6003820361160d575060608301515b5f828152600b6020908152604080832061ffff85168452909152812054905b81811015612038575f848152600b6020908152604080832061ffff8716845290915281208054919850908290811061166657611666615302565b905f5260205f20906004020160030160159054906101000a900460ff1661203057604080516080810182525f868152600b602090815283822061ffff8816835290529182208054829190859081106116c0576116c0615302565b5f91825260208083206004909202909101548352888252600b8152604080832061ffff8a1684528252909120805492909101918590811061170357611703615302565b5f9182526020808320600360049093020191909101546001600160a01b03168352888252600b8152604080832061ffff8a1684528252909120805492909101918590811061175357611753615302565b5f9182526020808320600260049093020191909101546001600160a01b03168352888252600b8152604080832061ffff8a16845282528220805493909101926005929190879081106117a7576117a7615302565b5f9182526020808320600360049093020191909101546001600160a01b0316835282810193909352604091820181206002015460ff16909352888352600b825280832061ffff8916845290915281208054929350909161182c91908590811061181257611812615302565b905f5260205f2090600402016001015483606001516140cd565b90505f816127105f548461184091906153ad565b61184a9190615387565b61185491906153e4565b83515f908152600c60205260408120549192509081811561187d5761187a6001836153e4565b90505b5f5b82811015612028576002548c036119c457604080518082019091528751808252602090910182905260035560048190556006805460ff19169055600754600160a01b900460ff161561193d575f84612710600154876118de91906153ad565b6118e89190615387565b6118f291906153e4565b90506118fe81866153e4565b945061193b60075f9054906101000a90046001600160a01b0316611926838b606001516140cd565b60208b01516001600160a01b0316919061453a565b505b6119643361194f868a606001516140cd565b60208a01516001600160a01b0316919061453a565b6006546040515f81523391610100900464ffffffffff9081169142909116907f90192d7875364a53e351ae63fd2dfef8dc941735b29fb0c504d06a0e21ae602e9060200160405180910390a4505050505050505050505050505050612117565b60035487511480156119d7575060045481145b156119ea576006805460ff191660011790555b6003541580611a00575060065460ff1615156001145b156120205786515f908152600c60205260408120805483908110611a2657611a26615302565b5f918252602091829020015490890151604051636eb1769f60e11b81526001600160a01b0392831660048201819052306024830152935089929091169063dd62ed3e90604401602060405180830381865afa158015611a87573d5f5f3e3d5ffd5b505050506040513d601f19601f82011682018060405250810190611aab9190615348565b10158015611b24575060208801516040516370a0823160e01b81526001600160a01b038381166004830152899216906370a0823190602401602060405180830381865afa158015611afe573d5f5f3e3d5ffd5b505050506040513d601f19601f82011682018060405250810190611b229190615348565b115b15611dde578c611b33816153f7565b89515f908152600a602090815260408083206001600160a01b0387168452909152902054909e508710159050611c6f57611b6d868661539a565b88515f908152600a602090815260408083206001600160a01b0386168452909152812080549297508892909190611ba59084906153e4565b92505081905550806001600160a01b031688604001516001600160a01b0316895f01515f5160206156d85f395f51905f52428b8d602001516005604051611bef94939291906152d1565b60405180910390a4806001600160a01b031688604001516001600160a01b0316895f01515f5160206156d85f395f51905f52425f8d602001516002604051611c3a94939291906152d1565b60405180910390a4611c6a818960400151898b602001516001600160a01b0316614383909392919063ffffffff16565b611f8a565b87515f908152600a602090815260408083206001600160a01b0385168452909152902054611c9d908661539a565b88515f908152600a602090815260408083206001600160a01b0380871680865291845282852094909455818d01518d51938e01519251959a5090949316925f5160206156d85f395f51905f5291611cfa9142918e916008906152d1565b60405180910390a486600160028e9003611d2457611d19600383615387565b915060029050611d3e565b8d600303611d3e57611d37600c83615387565b9150600b90505b89515f908152600a602090815260408083206001600160a01b038716845290915281208054849290611d7190849061539a565b92505081905550611da18330611d8b858e606001516140cd565b60208e01516001600160a01b0316929190614383565b8d60021480611db057508d6003145b15611dd757611dd7838b60400151611d8b8486611dcd91906153ad565b8e606001516140cd565b5050611f8a565b8c611de8816153f7565b89515f908152600a602090815260408083206001600160a01b0387168452909152902054909e508710159050611ee757611e22868661539a565b88515f908152600a602090815260408083206001600160a01b038616845290915281205491965090611e559088906153e4565b89515f908152600a602090815260408083206001600160a01b0380881680865291845282852094909455818e01518e51938f0151925195965090949316925f5160206156d85f395f51905f5291611eb291429188916004906152d1565b60405180910390a4611ee58960400151611ed0838c606001516140cd565b60208c01516001600160a01b0316919061453a565b505b8751611ef390826143ff565b806001600160a01b031688604001516001600160a01b0316895f01515f5160206156d85f395f51905f52428b8d602001516007604051611f3694939291906152d1565b60405180910390a4806001600160a01b031688604001516001600160a01b0316895f01515f5160206156d85f395f51905f52425f8d602001516003604051611f8194939291906152d1565b60405180910390a45b8282148015611f9857505f84115b1561201e57600754600160a01b900460ff161561200c575f8561271060015488611fc291906153ad565b611fcc9190615387565b611fd691906153e4565b9050611fe281876153e4565b955061200a60075f9054906101000a90046001600160a01b0316611ed0838c606001516140cd565b505b61201e33611926878b606001516140cd565b505b60010161187f565b505050505050505b60010161162c565b5050508080612046906153f7565b9150506115ce565b505f60038190556004556006805460ff191690819055604051600181523391610100900464ffffffffff9081169142909116907f90192d7875364a53e351ae63fd2dfef8dc941735b29fb0c504d06a0e21ae602e9060200160405180910390a46001600660018282829054906101000a900464ffffffffff166120d1919061540f565b92506101000a81548164ffffffffff021916908364ffffffffff1602179055508215612112575f60ff19815c16815d506121096114a8565b50505050612117565b505050505b5f60ff19815c16815d50565b5f818152600c60205260408120546060919067ffffffffffffffff81111561214d5761214d614c0b565b604051908082528060200260200182016040528015612176578160200160208202803683370190505b505f848152600c602090815260409182902080548351818402810184019094528084529394509192908301828280156121d657602002820191905f5260205f20905b81546001600160a01b031681526001909101906020018083116121b8575b5050505f868152600c60205260408120549394509291505067ffffffffffffffff81111561220657612206614c0b565b60405190808252806020026020018201604052801561224a57816020015b604080518082019091525f80825260208201528152602001906001900390816122245790505b5090505f5b8251811015612307575f858152600a602052604081208451829086908590811061227b5761227b615302565b60200260200101516001600160a01b03166001600160a01b031681526020019081526020015f205490505f60405180604001604052808685815181106122c3576122c3615302565b60200260200101516001600160a01b03168152602001838152509050808484815181106122f2576122f2615302565b6020908102919091010152505060010161224f565b509392505050565b606080831561240d576001600160a01b0383165f90815260086020908152604080832060010180548251818502810185019093528083529193909284015b82821015612402575f848152602090819020604080516080810182526002860290920180548352600181015461ffff81169484019490945291929083019062010000900460ff1660038111156123a5576123a5614b3e565b60038111156123b6576123b6614b3e565b81526020016001820160039054906101000a900460ff1660028111156123de576123de614b3e565b60028111156123ef576123ef614b3e565b815250508152602001906001019061234d565b5050505090506124fe565b6001600160a01b0383165f90815260086020908152604080832060020180548251818502810185019093528083529193909284015b828210156124f7575f848152602090819020604080516080810182526002860290920180548352600181015461ffff81169484019490945291929083019062010000900460ff16600381111561249a5761249a614b3e565b60038111156124ab576124ab614b3e565b81526020016001820160039054906101000a900460ff1660028111156124d3576124d3614b3e565b60028111156124e4576124e4614b3e565b8152505081526020019060010190612442565b5050505090505b5f815167ffffffffffffffff81111561251957612519614c0b565b60405190808252806020026020018201604052801561259d57816020015b60408051610160810182525f606082018181526080830182905260a0830182905260c0830182905260e08301829052610100830182905261012083018290526101408301829052825260208083018290529282015282525f199092019101816125375790505b5090505f5b82518110156126ed5761260c8382815181106125c0576125c0615302565b60200260200101515f01518483815181106125dd576125dd615302565b6020026020010151604001518584815181106125fb576125fb615302565b602002602001015160200151610922565b82828151811061261e5761261e615302565b60200260200101515f018190525082818151811061263e5761263e615302565b60200260200101516060015182828151811061265c5761265c615302565b602002602001015160200190600281111561267957612679614b3e565b9081600281111561268c5761268c614b3e565b81525050600c5f8383815181106126a5576126a5615302565b60200260200101515f01515f015181526020019081526020015f20805490508282815181106126d6576126d6615302565b6020908102919091010151604001526001016125a2565b509150505b92915050565b61270e8135610b08610100840160e08501615316565b61273e5760405162461bcd60e51b81526020600482015260016024820152603360f81b60448201526064016104cc565b61274e6060820160408301614e6e565b6001600160a01b0316336001600160a01b0316146127935760405162461bcd60e51b8152602060048201526002602482015261313360f01b60448201526064016104cc565b335f90815260086020908152604080832060020180548251818502810185019093528083529192909190849084015b82821015612877575f848152602090819020604080516080810182526002860290920180548352600181015461ffff81169484019490945291929083019062010000900460ff16600381111561281a5761281a614b3e565b600381111561282b5761282b614b3e565b81526020016001820160039054906101000a900460ff16600281111561285357612853614b3e565b600281111561286457612864614b3e565b81525050815260200190600101906127c2565b5050335f908152600860205260408120600201549394509150505b8181101561292557835f01358382815181106128b0576128b0615302565b60200260200101515f01510361291d57335f908152600860205260409020600201805460019190839081106128e7576128e7615302565b905f5260205f20906002020160010160036101000a81548160ff0219169083600281111561291757612917614b3e565b02179055505b600101612892565b5082355f908152600c602090815260408083208054825181850281018501909352808352919290919083018282801561298557602002820191905f5260205f20905b81546001600160a01b03168152600190910190602001808311612967575b505050505090505f5b8151811015612e0c5784355f908152600a60205260408120835182908590859081106129bc576129bc615302565b60200260200101516001600160a01b03166001600160a01b031681526020019081526020015f205490508282815181106129f8576129f8615302565b60200260200101516001600160a01b0316866040016020810190612a1c9190614e6e565b6001600160a01b031687355f5160206156d85f395f51905f524285612a4760808d0160608e01614e6e565b6009604051612a5994939291906152d1565b60405180910390a485355f908152600a602052604081208451909190859085908110612a8757612a87615302565b60200260200101516001600160a01b03166001600160a01b031681526020019081526020015f205f9055612b08838381518110612ac657612ac6615302565b6020026020010151612ae88360055f8b6060016020810190610b6a9190614e6e565b612af860808a0160608b01614e6e565b6001600160a01b0316919061453a565b5f60085f858581518110612b1e57612b1e615302565b60200260200101516001600160a01b03166001600160a01b031681526020019081526020015f206001018054905067ffffffffffffffff811115612b6457612b64614c0b565b604051908082528060200260200182016040528015612bbd57816020015b612baa604080516080810182525f80825260208201819052909182019081526020015f905290565b815260200190600190039081612b825790505b50905060085f858581518110612bd557612bd5615302565b60200260200101516001600160a01b03166001600160a01b031681526020019081526020015f20600101805480602002602001604051908101604052809291908181526020015f905b82821015612cd3575f848152602090819020604080516080810182526002860290920180548352600181015461ffff81169484019490945291929083019062010000900460ff166003811115612c7657612c76614b3e565b6003811115612c8757612c87614b3e565b81526020016001820160039054906101000a900460ff166002811115612caf57612caf614b3e565b6002811115612cc057612cc0614b3e565b8152505081526020019060010190612c1e565b5050505090505f5b60085f868681518110612cf057612cf0615302565b60200260200101516001600160a01b03166001600160a01b031681526020019081526020015f2060010180549050811015612ddb57875f0135828281518110612d3b57612d3b615302565b60200260200101515f015103612dd357600160085f878781518110612d6257612d62615302565b60200260200101516001600160a01b03166001600160a01b031681526020019081526020015f206001018281548110612d9d57612d9d615302565b905f5260205f20906002020160010160036101000a81548160ff02191690836002811115612dcd57612dcd614b3e565b02179055505b600101612cdb565b50612e02875f0135858581518110612df557612df5615302565b60200260200101516143ff565b505060010161298e565b505f600b81612e2160e0880160c0890161532f565b6003811115612e3257612e32614b3e565b81526020019081526020015f205f8660e0016020810190612e539190615316565b61ffff1661ffff1681526020019081526020015f20805480602002602001604051908101604052809291908181526020015f905b82821015612f5d575f8481526020908190206040805161010081018252600486029092018054835260018101549383019390935260028301546001600160a01b0390811691830191909152600380840154918216606084015260ff600160a01b8304811615156080850152600160a81b83048116151560a085015292939260c0850192600160b01b90041690811115612f2257612f22614b3e565b6003811115612f3357612f33614b3e565b81526003919091015461ffff600160b81b9091041660209182015290825260019092019101612e87565b5050505090505f5b815181101561303057855f0135828281518110612f8457612f84615302565b60200260200101515f015103613028576001600b5f612fa960e08a0160c08b0161532f565b6003811115612fba57612fba614b3e565b81526020019081526020015f205f8860e0016020810190612fdb9190615316565b61ffff1661ffff1681526020019081526020015f20828154811061300157613001615302565b905f5260205f20906004020160030160156101000a81548160ff0219169083151502179055505b600101612f65565b505f3386355f5160206156d85f395f51905f52428461305560808c0160608d01614e6e565b600160405161306794939291906152d1565b60405180910390a45050505050565b61307e613ffc565b5f55565b61308a613ffc565b6001600160a01b03811661309c575f5ffd5b600680546001600160a01b039092166601000000000000027fffffffffffff0000000000000000000000000000000000000000ffffffffffff909216919091179055565b335f90815260086020908152604080832060020180548251818502810185019093528083529192909190849084015b828210156131c4575f848152602090819020604080516080810182526002860290920180548352600181015461ffff81169484019490945291929083019062010000900460ff16600381111561316757613167614b3e565b600381111561317857613178614b3e565b81526020016001820160039054906101000a900460ff1660028111156131a0576131a0614b3e565b60028111156131b1576131b1614b3e565b815250508152602001906001019061310f565b5050505090505f5f5b825181101561320957845f01518382815181106131ec576131ec615302565b60200260200101515f01510361320157600191505b6001016131cd565b508061323b5760405162461bcd60e51b81526020600482015260016024820152600760fb1b60448201526064016104cc565b83515f908152600c602090815260408083208054825181850281018501909352808352919290919083018282801561329a57602002820191905f5260205f20905b81546001600160a01b0316815260019091019060200180831161327c575b505050505090505f5f5b825181101561335157856001600160a01b03168382815181106132c9576132c9615302565b60200260200101516001600160a01b031603613349576001600160a01b0386165f908152600860205260409020600190810180549193506002918390811061331357613313615302565b905f5260205f20906002020160010160036101000a81548160ff0219169083600281111561334357613343614b3e565b02179055505b6001016132a4565b50806133835760405162461bcd60e51b81526020600482015260016024820152603960f81b60448201526064016104cc565b855161338f90866143ff565b846001600160a01b031686604001516001600160a01b0316875f01515f5160206156d85f395f51905f52428a602001518b6060015160076040516133d694939291906152d1565b60405180910390a485515f908152600a602081815260408084206001600160a01b03808b16808752918452828620548c51875294845282862082875290935281852094909455808a01518a5160608c015192519495949190931692915f5160206156d85f395f51905f52916134529142918891906009906152d1565b60405180910390a460608701516001600160a01b03165f908152600560205260409020600201546134a290879061348d90849060ff166140cd565b60608a01516001600160a01b0316919061453a565b50505050505050565b6134b3613ffc565b60078054911515600160a01b0260ff60a01b19909216919091179055565b6134d9613ffc565b6001600160a01b0381166134eb575f5ffd5b600780546001600160a01b0319166001600160a01b0392909216919091179055565b5f61351733613aed565b90508060200151156135bc575f5b81606001515181101561108a57828260600151828151811061354957613549615302565b60200260200101515f0151036135b45764ffffffffff421633847f93cda0785d40b289a535b99dc76d4c9cbb6d8146182861ac3ad40509398b186561358e888061521e565b61359b60208b018b61521e565b6040516135ab9493929190615290565b60405180910390a45b600101613525565b505050565b60605f6135cd4261456b565b60065490915064ffffffffff6101009091048116908216116136155760405162461bcd60e51b81526020600482015260016024820152601b60f91b60448201526064016104cc565b5f61361f42614579565b90505f5f5f60025467ffffffffffffffff81111561363f5761363f614c0b565b60405190808252806020026020018201604052801561368357816020015b604080518082019091525f808252602082015281526020019060019003908161365d5790505b5090505f5b6003811161393c575f8161369d575060208501515b600182036136a9575084515b600282036136b8575060408501515b600382036136c7575060608501515b5f5b5f838152600b6020908152604080832061ffff86168452909152902054811015613927575f838152600b6020908152604080832061ffff86168452909152902080548290811061371b5761371b615302565b905f5260205f20906004020160030160159054906101000a900460ff1661391f575f838152600b6020908152604080832061ffff86168452909152812080548390811061376a5761376a615302565b5f9182526020808320600490920290910154868352600b8252604080842061ffff88168552909252908220805491935090849081106137ab576137ab615302565b5f918252602080832060036004909302019190910154878352600b8252604080842061ffff8916855290925290822080546001600160a01b03909216935090859081106137fa576137fa615302565b905f5260205f20906004020160010154905061383060405180604001604052805f81526020015f6001600160a01b031681525090565b5f826127105f548561384291906153ad565b61384c9190615387565b61385691906153e4565b90505f5f5b5f878152600c6020526040902054811015613917576002548d0361388d5750989e9d5050505050505050505050505050565b60035415806138a3575060065460ff1615156001145b1561390f578c6138b2816153f7565b9d506138c09050838361539a565b91506040518060400160405280838152602001876001600160a01b03168152509350838b8d815181106138f5576138f5615302565b60200260200101819052508b8061390b906153f7565b9c50505b60010161385b565b505050505050505b6001016136c9565b50508080613934906153f7565b915050613688565b505f5f5b825181101561398f575f6001600160a01b031683828151811061396557613965615302565b6020026020010151602001516001600160a01b0316036139875780915061398f565b600101613940565b505f8167ffffffffffffffff8111156139aa576139aa614c0b565b6040519080825280602002602001820160405280156139ee57816020015b604080518082019091525f80825260208201528152602001906001900390816139c85790505b5090505f5b82811015613a3a57838181518110613a0d57613a0d615302565b6020026020010151828281518110613a2757613a27615302565b60209081029190910101526001016139f3565b50979650505050505050565b8051604051613a55919061542c565b60405180910390204264ffffffffff16336001600160a01b03167f34f43abf7a52b609b04511ed963a29ebb76ae3e0ca0ff5594be1c2a84ebd03f284602001518560400151866060015187608001518860a00151604051613aba959493929190615470565b60405180910390a450565b60098181548110613ad4575f80fd5b5f918252602090912001546001600160a01b0316905081565b604080516080810182525f80825260208201526060918101829052818101919091526001600160a01b038281165f908152600860209081526040808320815160808101835281549586168152600160a01b90950460ff1615158584015260018101805483518186028101860185528181529295938701949293919290919084015b82821015613c23575f848152602090819020604080516080810182526002860290920180548352600181015461ffff81169484019490945291929083019062010000900460ff166003811115613bc657613bc6614b3e565b6003811115613bd757613bd7614b3e565b81526020016001820160039054906101000a900460ff166002811115613bff57613bff614b3e565b6002811115613c1057613c10614b3e565b8152505081526020019060010190613b6e565b50505050815260200160028201805480602002602001604051908101604052809291908181526020015f905b82821015613d04575f848152602090819020604080516080810182526002860290920180548352600181015461ffff81169484019490945291929083019062010000900460ff166003811115613ca757613ca7614b3e565b6003811115613cb857613cb8614b3e565b81526020016001820160039054906101000a900460ff166002811115613ce057613ce0614b3e565b6002811115613cf157613cf1614b3e565b8152505081526020019060010190613c4f565b505050915250909392505050565b6001600160a01b0381165f90815260056020526040812060020154610100900460ff16613d3f575f6126f2565b600192915050565b60408051610100810182525f8082526020808301829052828401829052606083018290526080830182905260a0830182905260c0830182905260e08301829052338252600d905291822080549192829190613da1836153f7565b90915550506040516bffffffffffffffffffffffff193360601b166020820152603481018290524260548201525f9060740160408051601f198184030181528282528051602091820120610100840183528084529083018a905233918301919091526001600160a01b0388166060830152600160808301525f60a0830152915060c08101866003811115613e3757613e37614b3e565b81526020018561ffff1681525092505050949350505050565b335f90815260086020526040812054600160a01b900460ff1615159003613edc57335f81815260086020526040812080546001600160a01b03199081168417825560098054600181019091557f6e1540171b6c0c960b71a7020d9f60077f6af931a8bbf590da0223dacf75c7af01805490911684179055919052805460ff60a01b1916600160a01b1790555b8015613f8d57335f90815260086020908152604080832060029081018054600180820183559186529484902087519590920290910193845591850151918301805461ffff19811661ffff909416938417825591860151869493909262ffffff19161762010000836003811115613f5457613f54614b3e565b0217905550606082015160018201805463ff00000019166301000000836002811115613f8257613f82614b3e565b021790555050505050565b335f90815260086020908152604080832060019081018054808301825590855293839020865160029095020193845591850151918301805461ffff19811661ffff909416938417825591860151869493909262ffffff19161762010000836003811115613f5457613f54614b3e565b600654660100000000000090046001600160a01b031633146140445760405162461bcd60e51b81526020600482015260016024820152603760f81b60448201526064016104cc565b565b5f5f60405180608001604052808781526020018661ffff16815260200185600381111561407557614075614b3e565b815260200184600281111561408c5761408c614b3e565b81525090505f6140a8825f015183604001518460200151610922565b90508060800151156140bf576001925050506140c5565b5f925050505b949350505050565b5f601260ff8316811015614102576140e581846154dc565b6140f090600a6155d8565b6140fa90856153ad565b9150506126f2565b8060ff168360ff16101561412f5761411a83826154dc565b61412590600a6155d8565b6140fa9085615387565b839150506126f2565b5092915050565b5f5f61414a86614579565b90505f5f5f8560ff165f0361416d57836020015161ffff169250600791506141f4565b8560ff166001036141a457614192846080015161ffff168560a0015161ffff16614808565b845161ffff16935091508190506141f4565b8560ff166002036141d8576141c9846060015161ffff16856080015161ffff1661488d565b61ffff169250605a91506141f4565b8560ff166003036141f457836060015161ffff16925061016d91505b8560ff166001036142ae575f61016d61420e89600c6153ad565b6142189190615387565b9050838964ffffffffff161415801561423757508864ffffffffff1684115b156142685761424d64ffffffffff8a16856153e4565b61425790846153e4565b61426190826153ad565b97506142a8565b838964ffffffffff161415801561428557508864ffffffffff1684105b156142a85761429b8464ffffffffff8b166153e4565b6142a590826153ad565b97505b50614376565b60ff861615806142c157508560ff166002145b806142cf57508560ff166003145b1561437657828864ffffffffff16141580156142f157508764ffffffffff1683115b1561432c5761430764ffffffffff8916846153e4565b61431190836153e4565b61431b8389615387565b61432591906153ad565b9650614376565b828864ffffffffff161415801561434957508764ffffffffff1683105b156143765761435f8364ffffffffff8a166153e4565b6143698389615387565b61437391906153ad565b96505b5094979650505050505050565b6040516001600160a01b03848116602483015283811660448301526064820183905261108a9186918216906323b872dd906084015b604051602081830303815290604052915060e01b6020820180517bffffffffffffffffffffffffffffffffffffffffffffffffffffffff838183161783525050505061494f565b5f828152600c602052604081208054909190815b8181101561448a57846001600160a01b031684828154811061443757614437615302565b5f918252602090912001546001600160a01b0316036144825780925083818154811061446557614465615302565b5f91825260209091200180546001600160a01b031916905561448a565b600101614413565b508254839061449b906001906153e4565b815481106144ab576144ab615302565b905f5260205f20015f9054906101000a90046001600160a01b03168383815481106144d8576144d8615302565b905f5260205f20015f6101000a8154816001600160a01b0302191690836001600160a01b0316021790555082805480614513576145136155e6565b5f8281526020902081015f1990810180546001600160a01b03191690550190555050505050565b6040516001600160a01b038381166024830152604482018390526135bc91859182169063a9059cbb906064016143b8565b5f6126f262015180836155fa565b6040805160c0810182525f80825260208201819052918101829052606081018290526080810182905260a08101829052906145b76201518084615387565b90505f8082816145ca8262010bd9615623565b6145d79062253d8c615623565b90505f62023ab16145e983600461564a565b6145f39190615679565b905060046146048262023ab161564a565b61460f906003615623565b6146199190615679565b61462390836156a5565b91505f62164b09614635846001615623565b61464190610fa061564a565b61464b9190615679565b9050600461465b826105b561564a565b6146659190615679565b61466f90846156a5565b61467a90601f615623565b92505f61098f61468b85605061564a565b6146959190615679565b90505f60506146a68361098f61564a565b6146b09190615679565b6146ba90866156a5565b90506146c7600b83615679565b94506146d485600c61564a565b6146df836002615623565b6146e991906156a5565b915084836146f86031876156a5565b61470390606461564a565b61470d9190615623565b6147179190615623565b9097509150868282825f60015b838111614770578381036147475761474061ffff8e168361539a565b915061475e565b6147518582614808565b61475b908361539a565b91505b80614768816153f7565b915050614724565b50809a506147828b61ffff168561488d565b61ffff1660408f01526147948f6149bb565b8e6020019061ffff16908161ffff16815250508b8e5f019061ffff16908161ffff16815250508a8e6060019061ffff16908161ffff1681525050838e6080019061ffff16908161ffff1681525050828e60a0019061ffff16908161ffff168152505050505050505050505050505050919050565b5f81600114806148185750816003145b806148235750816005145b8061482e5750816007145b806148395750816008145b80614844575081600a145b8061484f575081600c145b1561485c5750601f6126f2565b8160021461486c5750601e6126f2565b614875836149ef565b61488057601c614883565b601d5b60ff169392505050565b5f5f614898836149ef565b156148a5575060016148a8565b505f5b6148b381605a61539a565b84116148c157839150614138565b836148cd82605a61539a565b1080156148e457506148e08160b561539a565b8411155b15614905576148f481605a61539a565b6148fe90856153e4565b9150614138565b836149118260b561539a565b10801561492957506149258161011161539a565b8411155b15614939576148f48160b561539a565b6149458161011161539a565b6140c590856153e4565b5f5f60205f8451602086015f885af18061496e576040513d5f823e3d81fd5b50505f513d91508115614985578060011415614992565b6001600160a01b0384163b155b1561108a57604051635274afe760e01b81526001600160a01b03851660048201526024016104cc565b5f806149ca6201518084615387565b90505f60076149da83600361539a565b6149e491906156c4565b6140c590600161539a565b5f6149fb6004836156c4565b158015614a115750614a0e6064836156c4565b15155b806126f25750614a23610190836156c4565b1592915050565b80356001600160a01b0381168114614a40575f5ffd5b919050565b5f60408284031215614a55575f5ffd5b50919050565b803560048110614a40575f5ffd5b803561ffff81168114614a40575f5ffd5b5f5f5f5f5f60a08688031215614a8e575f5ffd5b85359450614a9e60208701614a2a565b9350604086013567ffffffffffffffff811115614ab9575f5ffd5b614ac588828901614a45565b935050614ad460608701614a5b565b9150614ae260808701614a69565b90509295509295909350565b5f60208284031215614afe575f5ffd5b5035919050565b5f5f5f60608486031215614b17575f5ffd5b83359250614b2760208501614a5b565b9150614b3560408501614a69565b90509250925092565b634e487b7160e01b5f52602160045260245ffd5b60048110614b6257614b62614b3e565b9052565b80518252602081015160208301526001600160a01b0360408201511660408301526001600160a01b03606082015116606083015260808101511515608083015260a0810151614bb960a084018215159052565b5060c0810151614bcc60c0840182614b52565b5060e08101516135bc60e084018261ffff169052565b61010081016126f28284614b66565b5f610100828403128015614c03575f5ffd5b509092915050565b634e487b7160e01b5f52604160045260245ffd5b604051610100810167ffffffffffffffff81118282101715614c4357614c43614c0b565b60405290565b60405160c0810167ffffffffffffffff81118282101715614c4357614c43614c0b565b80358015158114614a40575f5ffd5b5f6101008284031215614c8c575f5ffd5b614c94614c1f565b82358152602080840135908201529050614cb060408301614a2a565b6040820152614cc160608301614a2a565b6060820152614cd260808301614c6c565b6080820152614ce360a08301614c6c565b60a0820152614cf460c08301614a5b565b60c0820152614d0560e08301614a69565b60e082015292915050565b5f6101008284031215614d21575f5ffd5b614d2b8383614c7b565b9392505050565b5f5f5f60608486031215614d44575f5ffd5b614d4d84614a2a565b925060208401359150604084013560ff81168114614d69575f5ffd5b809150509250925092565b602080825282518282018190525f918401906040840190835b81811015614dc057835180516001600160a01b031684526020908101518185015290930192604090920191600101614d8d565b509095945050505050565b5f5f60408385031215614ddc575f5ffd5b614de583614c6c565b9150614df360208401614a2a565b90509250929050565b60038110614b6257614b62614b3e565b602080825282518282018190525f918401906040840190835b81811015614dc0578351614e3a848251614b66565b6020810151614e4d610100860182614dfc565b50604001516101208401526020939093019261014090920191600101614e25565b5f60208284031215614e7e575f5ffd5b614d2b82614a2a565b5f5f6101208385031215614e99575f5ffd5b614ea38484614c7b565b9150614df36101008401614a2a565b5f60208284031215614ec2575f5ffd5b614d2b82614c6c565b5f5f60408385031215614edc575f5ffd5b823567ffffffffffffffff811115614ef2575f5ffd5b614efe85828601614a45565b95602094909401359450505050565b602080825282518282018190525f918401906040840190835b81811015614dc0578351805184526020908101516001600160a01b03168185015290930192604090920191600101614f26565b5f5f60408385031215614f6a575f5ffd5b82359150614df360208401614a2a565b5f82601f830112614f89575f5ffd5b813567ffffffffffffffff811115614fa357614fa3614c0b565b604051601f8201601f19908116603f0116810167ffffffffffffffff81118282101715614fd257614fd2614c0b565b604052818152838201602001851015614fe9575f5ffd5b816020850160208301375f918101602001919091529392505050565b5f60208284031215615015575f5ffd5b813567ffffffffffffffff81111561502b575f5ffd5b820160c0818503121561503c575f5ffd5b615044614c49565b813567ffffffffffffffff81111561505a575f5ffd5b61506686828501614f7a565b825250602082013567ffffffffffffffff811115615082575f5ffd5b61508e86828501614f7a565b602083015250604082013567ffffffffffffffff8111156150ad575f5ffd5b6150b986828501614f7a565b604083015250606082013567ffffffffffffffff8111156150d8575f5ffd5b6150e486828501614f7a565b606083015250608082013567ffffffffffffffff811115615103575f5ffd5b61510f86828501614f7a565b60808301525060a082013567ffffffffffffffff81111561512e575f5ffd5b61513a86828501614f7a565b60a083015250949350505050565b5f8151808452602084019350602083015f5b828110156151b45781518051875261ffff602082015116602088015260408101516151886040890182614b52565b506060810151905061519d6060880182614dfc565b50608095909501946020919091019060010161515a565b5093949350505050565b602081526001600160a01b0382511660208201526020820151151560408201525f6040830151608060608401526151f860a0840182615148565b90506060840151601f198483030160808501526152158282615148565b95945050505050565b5f5f8335601e19843603018112615233575f5ffd5b83018035915067ffffffffffffffff82111561524d575f5ffd5b602001915036819003821315615261575f5ffd5b9250929050565b81835281816020850137505f828201602090810191909152601f909101601f19169091010190565b604081525f6152a3604083018688615268565b82810360208401526152b6818587615268565b979650505050505050565b600a8110614b6257614b62614b3e565b64ffffffffff85168152602081018490526001600160a01b03831660408201526080810161521560608301846152c1565b634e487b7160e01b5f52603260045260245ffd5b5f60208284031215615326575f5ffd5b614d2b82614a69565b5f6020828403121561533f575f5ffd5b614d2b82614a5b565b5f60208284031215615358575f5ffd5b5051919050565b634e487b7160e01b5f52601260045260245ffd5b634e487b7160e01b5f52601160045260245ffd5b5f826153955761539561535f565b500490565b808201808211156126f2576126f2615373565b80820281158282048414176126f2576126f2615373565b64ffffffffff818116838216029081169081811461413857614138615373565b818103818111156126f2576126f2615373565b5f6001820161540857615408615373565b5060010190565b64ffffffffff81811683821601908111156126f2576126f2615373565b5f82518060208501845e5f920191825250919050565b5f81518084528060208401602086015e5f602082860101526020601f19601f83011685010191505092915050565b60a081525f61548260a0830188615442565b82810360208401526154948188615442565b905082810360408401526154a88187615442565b905082810360608401526154bc8186615442565b905082810360808401526154d08185615442565b98975050505050505050565b60ff82811682821603908111156126f2576126f2615373565b6001815b60018411156155305780850481111561551457615514615373565b600184161561552257908102905b60019390931c9280026154f9565b935093915050565b5f82615546575060016126f2565b8161555257505f6126f2565b816001811461556857600281146155725761558e565b60019150506126f2565b60ff84111561558357615583615373565b50506001821b6126f2565b5060208310610133831016604e8410600b84101617156155b1575081810a6126f2565b6155bd5f1984846154f5565b805f19048211156155d0576155d0615373565b029392505050565b5f614d2b60ff841683615538565b634e487b7160e01b5f52603160045260245ffd5b5f64ffffffffff8316806156105761561061535f565b8064ffffffffff84160491505092915050565b8082018281125f83128015821682158216171561564257615642615373565b505092915050565b8082025f8212600160ff1b8414161561566557615665615373565b81810583148215176126f2576126f2615373565b5f826156875761568761535f565b600160ff1b82145f19841416156156a0576156a0615373565b500590565b8181035f83128015838313168383128216171561413857614138615373565b5f826156d2576156d261535f565b50069056feca6b824caf1a48ea2ad039dbb063460fa30e9c3cc255eeb52240d638ec6de65ea26469706673582212205d1acbbe3d3ed647964dc63451aeb50105e254387e401c920950dfb40f8e359964736f6c634300081c0033",
  "linkReferences": {},
  "deployedLinkReferences": {}
}