{
  "_format": "hh-sol-artifact-1",
  "contractName": "ClockTowerSubscribe",
  "sourceName": "contracts/ClockTowerSubscribe.sol",
  "abi": [
    {
      "inputs": [
        {
          "internalType": "uint256",
          "name": "callerFee_",
          "type": "uint256"
        },
        {
          "internalType": "uint256",
          "name": "systemFee_",
          "type": "uint256"
        },
        {
          "internalType": "uint256",
          "name": "maxRemits_",
          "type": "uint256"
        },
        {
          "internalType": "uint256",
          "name": "cancelLimit_",
          "type": "uint256"
        },
        {
          "internalType": "bool",
          "name": "allowSystemFee_",
          "type": "bool"
        },
        {
          "internalType": "address",
          "name": "admin_",
          "type": "address"
        }
      ],
      "stateMutability": "nonpayable",
      "type": "constructor"
    },
    {
      "inputs": [
        {
          "internalType": "address",
          "name": "owner",
          "type": "address"
        }
      ],
      "name": "OwnableInvalidOwner",
      "type": "error"
    },
    {
      "inputs": [
        {
          "internalType": "address",
          "name": "account",
          "type": "address"
        }
      ],
      "name": "OwnableUnauthorizedAccount",
      "type": "error"
    },
    {
      "inputs": [
        {
          "internalType": "address",
          "name": "token",
          "type": "address"
        }
      ],
      "name": "SafeERC20FailedOperation",
      "type": "error"
    },
    {
      "anonymous": false,
      "inputs": [
        {
          "indexed": true,
          "internalType": "uint40",
          "name": "timestamp",
          "type": "uint40"
        },
        {
          "indexed": true,
          "internalType": "uint40",
          "name": "checkedDay",
          "type": "uint40"
        },
        {
          "indexed": true,
          "internalType": "address",
          "name": "caller",
          "type": "address"
        },
        {
          "indexed": false,
          "internalType": "bool",
          "name": "isFinished",
          "type": "bool"
        }
      ],
      "name": "CallerLog",
      "type": "event"
    },
    {
      "anonymous": false,
      "inputs": [
        {
          "indexed": true,
          "internalType": "bytes32",
          "name": "id",
          "type": "bytes32"
        },
        {
          "indexed": false,
          "internalType": "uint256",
          "name": "subscriberIndex",
          "type": "uint256"
        },
        {
          "indexed": false,
          "internalType": "uint256",
          "name": "subscriptionIndex",
          "type": "uint256"
        },
        {
          "indexed": false,
          "internalType": "uint256",
          "name": "frequency",
          "type": "uint256"
        },
        {
          "indexed": true,
          "internalType": "uint40",
          "name": "nextUncheckedDay",
          "type": "uint40"
        }
      ],
      "name": "Coordinates",
      "type": "event"
    },
    {
      "anonymous": false,
      "inputs": [
        {
          "indexed": true,
          "internalType": "bytes32",
          "name": "id",
          "type": "bytes32"
        },
        {
          "indexed": true,
          "internalType": "address",
          "name": "provider",
          "type": "address"
        },
        {
          "indexed": true,
          "internalType": "uint40",
          "name": "timestamp",
          "type": "uint40"
        },
        {
          "indexed": false,
          "internalType": "string",
          "name": "url",
          "type": "string"
        },
        {
          "indexed": false,
          "internalType": "string",
          "name": "description",
          "type": "string"
        }
      ],
      "name": "DetailsLog",
      "type": "event"
    },
    {
      "anonymous": false,
      "inputs": [
        {
          "indexed": true,
          "internalType": "address",
          "name": "previousOwner",
          "type": "address"
        },
        {
          "indexed": true,
          "internalType": "address",
          "name": "newOwner",
          "type": "address"
        }
      ],
      "name": "OwnershipTransferStarted",
      "type": "event"
    },
    {
      "anonymous": false,
      "inputs": [
        {
          "indexed": true,
          "internalType": "address",
          "name": "previousOwner",
          "type": "address"
        },
        {
          "indexed": true,
          "internalType": "address",
          "name": "newOwner",
          "type": "address"
        }
      ],
      "name": "OwnershipTransferred",
      "type": "event"
    },
    {
      "anonymous": false,
      "inputs": [
        {
          "indexed": true,
          "internalType": "address",
          "name": "provider",
          "type": "address"
        },
        {
          "indexed": true,
          "internalType": "uint40",
          "name": "timestamp",
          "type": "uint40"
        },
        {
          "indexed": true,
          "internalType": "string",
          "name": "description",
          "type": "string"
        },
        {
          "indexed": false,
          "internalType": "string",
          "name": "company",
          "type": "string"
        },
        {
          "indexed": false,
          "internalType": "string",
          "name": "url",
          "type": "string"
        },
        {
          "indexed": false,
          "internalType": "string",
          "name": "domain",
          "type": "string"
        },
        {
          "indexed": false,
          "internalType": "string",
          "name": "email",
          "type": "string"
        },
        {
          "indexed": false,
          "internalType": "string",
          "name": "misc",
          "type": "string"
        }
      ],
      "name": "ProvDetailsLog",
      "type": "event"
    },
    {
      "anonymous": false,
      "inputs": [
        {
          "indexed": true,
          "internalType": "bytes32",
          "name": "id",
          "type": "bytes32"
        },
        {
          "indexed": true,
          "internalType": "address",
          "name": "provider",
          "type": "address"
        },
        {
          "indexed": true,
          "internalType": "address",
          "name": "subscriber",
          "type": "address"
        },
        {
          "indexed": false,
          "internalType": "uint40",
          "name": "timestamp",
          "type": "uint40"
        },
        {
          "indexed": false,
          "internalType": "uint256",
          "name": "amount",
          "type": "uint256"
        },
        {
          "indexed": false,
          "internalType": "address",
          "name": "token",
          "type": "address"
        },
        {
          "indexed": false,
          "internalType": "enum ClockTowerSubscribe.SubscriptEvent",
          "name": "subScriptEvent",
          "type": "uint8"
        }
      ],
      "name": "SubLog",
      "type": "event"
    },
    {
      "inputs": [],
      "name": "acceptOwnership",
      "outputs": [],
      "stateMutability": "nonpayable",
      "type": "function"
    },
    {
      "inputs": [
        {
          "internalType": "address",
          "name": "erc20Contract",
          "type": "address"
        },
        {
          "internalType": "uint256",
          "name": "minimum",
          "type": "uint256"
        },
        {
          "internalType": "uint8",
          "name": "decimals",
          "type": "uint8"
        }
      ],
      "name": "addERC20Contract",
      "outputs": [],
      "stateMutability": "nonpayable",
      "type": "function"
    },
    {
      "inputs": [
        {
          "internalType": "address",
          "name": "",
          "type": "address"
        }
      ],
      "name": "approvedERC20",
      "outputs": [
        {
          "internalType": "address",
          "name": "tokenAddress",
          "type": "address"
        },
        {
          "internalType": "uint8",
          "name": "decimals",
          "type": "uint8"
        },
        {
          "internalType": "bool",
          "name": "paused",
          "type": "bool"
        },
        {
          "internalType": "uint256",
          "name": "minimum",
          "type": "uint256"
        }
      ],
      "stateMutability": "view",
      "type": "function"
    },
    {
      "inputs": [
        {
          "components": [
            {
              "internalType": "bytes32",
              "name": "id",
              "type": "bytes32"
            },
            {
              "internalType": "uint256",
              "name": "amount",
              "type": "uint256"
            },
            {
              "internalType": "address",
              "name": "provider",
              "type": "address"
            },
            {
              "internalType": "address",
              "name": "token",
              "type": "address"
            },
            {
              "internalType": "bool",
              "name": "cancelled",
              "type": "bool"
            },
            {
              "internalType": "enum ClockTowerSubscribe.Frequency",
              "name": "frequency",
              "type": "uint8"
            },
            {
              "internalType": "uint16",
              "name": "dueDay",
              "type": "uint16"
            }
          ],
          "internalType": "struct ClockTowerSubscribe.Subscription",
          "name": "subscription",
          "type": "tuple"
        }
      ],
      "name": "batchUnsubscribeByProvider",
      "outputs": [],
      "stateMutability": "nonpayable",
      "type": "function"
    },
    {
      "inputs": [],
      "name": "callerFee",
      "outputs": [
        {
          "internalType": "uint256",
          "name": "",
          "type": "uint256"
        }
      ],
      "stateMutability": "view",
      "type": "function"
    },
    {
      "inputs": [],
      "name": "cancelLimit",
      "outputs": [
        {
          "internalType": "uint256",
          "name": "",
          "type": "uint256"
        }
      ],
      "stateMutability": "view",
      "type": "function"
    },
    {
      "inputs": [
        {
          "components": [
            {
              "internalType": "bytes32",
              "name": "id",
              "type": "bytes32"
            },
            {
              "internalType": "uint256",
              "name": "amount",
              "type": "uint256"
            },
            {
              "internalType": "address",
              "name": "provider",
              "type": "address"
            },
            {
              "internalType": "address",
              "name": "token",
              "type": "address"
            },
            {
              "internalType": "bool",
              "name": "cancelled",
              "type": "bool"
            },
            {
              "internalType": "enum ClockTowerSubscribe.Frequency",
              "name": "frequency",
              "type": "uint8"
            },
            {
              "internalType": "uint16",
              "name": "dueDay",
              "type": "uint16"
            }
          ],
          "internalType": "struct ClockTowerSubscribe.Subscription",
          "name": "subscription",
          "type": "tuple"
        }
      ],
      "name": "cancelSubscription",
      "outputs": [],
      "stateMutability": "nonpayable",
      "type": "function"
    },
    {
      "inputs": [
        {
          "internalType": "uint256",
          "name": "_fee",
          "type": "uint256"
        }
      ],
      "name": "changeCallerFee",
      "outputs": [],
      "stateMutability": "nonpayable",
      "type": "function"
    },
    {
      "inputs": [
        {
          "internalType": "uint256",
          "name": "_maxRemits",
          "type": "uint256"
        }
      ],
      "name": "changeMaxRemits",
      "outputs": [],
      "stateMutability": "nonpayable",
      "type": "function"
    },
    {
      "inputs": [
        {
          "internalType": "address",
          "name": "newSysFeeAddress",
          "type": "address"
        }
      ],
      "name": "changeSysFeeReceiver",
      "outputs": [],
      "stateMutability": "nonpayable",
      "type": "function"
    },
    {
      "inputs": [
        {
          "internalType": "uint256",
          "name": "_sys_fee",
          "type": "uint256"
        }
      ],
      "name": "changeSystemFee",
      "outputs": [],
      "stateMutability": "nonpayable",
      "type": "function"
    },
    {
      "inputs": [
        {
          "internalType": "uint256",
          "name": "amount",
          "type": "uint256"
        },
        {
          "internalType": "address",
          "name": "token",
          "type": "address"
        },
        {
          "components": [
            {
              "internalType": "string",
              "name": "url",
              "type": "string"
            },
            {
              "internalType": "string",
              "name": "description",
              "type": "string"
            }
          ],
          "internalType": "struct ClockTowerSubscribe.Details",
          "name": "details",
          "type": "tuple"
        },
        {
          "internalType": "enum ClockTowerSubscribe.Frequency",
          "name": "frequency",
          "type": "uint8"
        },
        {
          "internalType": "uint16",
          "name": "dueDay",
          "type": "uint16"
        }
      ],
      "name": "createSubscription",
      "outputs": [],
      "stateMutability": "nonpayable",
      "type": "function"
    },
    {
      "inputs": [
        {
          "components": [
            {
              "internalType": "string",
              "name": "url",
              "type": "string"
            },
            {
              "internalType": "string",
              "name": "description",
              "type": "string"
            }
          ],
          "internalType": "struct ClockTowerSubscribe.Details",
          "name": "details",
          "type": "tuple"
        },
        {
          "internalType": "bytes32",
          "name": "id",
          "type": "bytes32"
        }
      ],
      "name": "editDetails",
      "outputs": [],
      "stateMutability": "nonpayable",
      "type": "function"
    },
    {
      "inputs": [
        {
          "components": [
            {
              "internalType": "string",
              "name": "description",
              "type": "string"
            },
            {
              "internalType": "string",
              "name": "company",
              "type": "string"
            },
            {
              "internalType": "string",
              "name": "url",
              "type": "string"
            },
            {
              "internalType": "string",
              "name": "domain",
              "type": "string"
            },
            {
              "internalType": "string",
              "name": "email",
              "type": "string"
            },
            {
              "internalType": "string",
              "name": "misc",
              "type": "string"
            }
          ],
          "internalType": "struct ClockTowerSubscribe.ProviderDetails",
          "name": "details",
          "type": "tuple"
        }
      ],
      "name": "editProvDetails",
      "outputs": [],
      "stateMutability": "nonpayable",
      "type": "function"
    },
    {
      "inputs": [
        {
          "internalType": "bytes32",
          "name": "",
          "type": "bytes32"
        },
        {
          "internalType": "address",
          "name": "",
          "type": "address"
        }
      ],
      "name": "feeBalance",
      "outputs": [
        {
          "internalType": "uint256",
          "name": "",
          "type": "uint256"
        }
      ],
      "stateMutability": "view",
      "type": "function"
    },
    {
      "inputs": [],
      "name": "feeEstimate",
      "outputs": [
        {
          "components": [
            {
              "internalType": "uint256",
              "name": "fee",
              "type": "uint256"
            },
            {
              "internalType": "address",
              "name": "token",
              "type": "address"
            }
          ],
          "internalType": "struct ClockTowerSubscribe.FeeEstimate[]",
          "name": "",
          "type": "tuple[]"
        }
      ],
      "stateMutability": "view",
      "type": "function"
    },
    {
      "inputs": [
        {
          "internalType": "address",
          "name": "account",
          "type": "address"
        }
      ],
      "name": "getAccount",
      "outputs": [
        {
          "components": [
            {
              "internalType": "address",
              "name": "accountAddress",
              "type": "address"
            },
            {
              "components": [
                {
                  "internalType": "bytes32",
                  "name": "id",
                  "type": "bytes32"
                },
                {
                  "internalType": "uint16",
                  "name": "dueDay",
                  "type": "uint16"
                },
                {
                  "internalType": "enum ClockTowerSubscribe.Frequency",
                  "name": "frequency",
                  "type": "uint8"
                },
                {
                  "internalType": "enum ClockTowerSubscribe.Status",
                  "name": "status",
                  "type": "uint8"
                }
              ],
              "internalType": "struct ClockTowerSubscribe.SubIndex[]",
              "name": "subscriptions",
              "type": "tuple[]"
            },
            {
              "components": [
                {
                  "internalType": "bytes32",
                  "name": "id",
                  "type": "bytes32"
                },
                {
                  "internalType": "uint16",
                  "name": "dueDay",
                  "type": "uint16"
                },
                {
                  "internalType": "enum ClockTowerSubscribe.Frequency",
                  "name": "frequency",
                  "type": "uint8"
                },
                {
                  "internalType": "enum ClockTowerSubscribe.Status",
                  "name": "status",
                  "type": "uint8"
                }
              ],
              "internalType": "struct ClockTowerSubscribe.SubIndex[]",
              "name": "provSubs",
              "type": "tuple[]"
            }
          ],
          "internalType": "struct ClockTowerSubscribe.Account",
          "name": "",
          "type": "tuple"
        }
      ],
      "stateMutability": "view",
      "type": "function"
    },
    {
      "inputs": [
        {
          "internalType": "bool",
          "name": "bySubscriber",
          "type": "bool"
        },
        {
          "internalType": "address",
          "name": "account",
          "type": "address"
        }
      ],
      "name": "getAccountSubscriptions",
      "outputs": [
        {
          "components": [
            {
              "components": [
                {
                  "internalType": "bytes32",
                  "name": "id",
                  "type": "bytes32"
                },
                {
                  "internalType": "uint256",
                  "name": "amount",
                  "type": "uint256"
                },
                {
                  "internalType": "address",
                  "name": "provider",
                  "type": "address"
                },
                {
                  "internalType": "address",
                  "name": "token",
                  "type": "address"
                },
                {
                  "internalType": "bool",
                  "name": "cancelled",
                  "type": "bool"
                },
                {
                  "internalType": "enum ClockTowerSubscribe.Frequency",
                  "name": "frequency",
                  "type": "uint8"
                },
                {
                  "internalType": "uint16",
                  "name": "dueDay",
                  "type": "uint16"
                }
              ],
              "internalType": "struct ClockTowerSubscribe.Subscription",
              "name": "subscription",
              "type": "tuple"
            },
            {
              "internalType": "enum ClockTowerSubscribe.Status",
              "name": "status",
              "type": "uint8"
            },
            {
              "internalType": "uint256",
              "name": "totalSubscribers",
              "type": "uint256"
            }
          ],
          "internalType": "struct ClockTowerSubscribe.SubView[]",
          "name": "",
          "type": "tuple[]"
        }
      ],
      "stateMutability": "view",
      "type": "function"
    },
    {
      "inputs": [
        {
          "internalType": "bytes32",
          "name": "id",
          "type": "bytes32"
        }
      ],
      "name": "getSubscribersById",
      "outputs": [
        {
          "components": [
            {
              "internalType": "address",
              "name": "subscriber",
              "type": "address"
            },
            {
              "internalType": "uint256",
              "name": "feeBalance",
              "type": "uint256"
            }
          ],
          "internalType": "struct ClockTowerSubscribe.SubscriberView[]",
          "name": "",
          "type": "tuple[]"
        }
      ],
      "stateMutability": "view",
      "type": "function"
    },
    {
      "inputs": [],
      "name": "getTotalSubscribers",
      "outputs": [
        {
          "internalType": "uint256",
          "name": "",
          "type": "uint256"
        }
      ],
      "stateMutability": "view",
      "type": "function"
    },
    {
      "inputs": [
        {
          "internalType": "bytes32",
          "name": "",
          "type": "bytes32"
        }
      ],
      "name": "idSubMap",
      "outputs": [
        {
          "internalType": "bytes32",
          "name": "id",
          "type": "bytes32"
        },
        {
          "internalType": "uint256",
          "name": "amount",
          "type": "uint256"
        },
        {
          "internalType": "address",
          "name": "provider",
          "type": "address"
        },
        {
          "internalType": "address",
          "name": "token",
          "type": "address"
        },
        {
          "internalType": "bool",
          "name": "cancelled",
          "type": "bool"
        },
        {
          "internalType": "enum ClockTowerSubscribe.Frequency",
          "name": "frequency",
          "type": "uint8"
        },
        {
          "internalType": "uint16",
          "name": "dueDay",
          "type": "uint16"
        }
      ],
      "stateMutability": "view",
      "type": "function"
    },
    {
      "inputs": [],
      "name": "maxRemits",
      "outputs": [
        {
          "internalType": "uint256",
          "name": "",
          "type": "uint256"
        }
      ],
      "stateMutability": "view",
      "type": "function"
    },
    {
      "inputs": [],
      "name": "nextUncheckedDay",
      "outputs": [
        {
          "internalType": "uint40",
          "name": "",
          "type": "uint40"
        }
      ],
      "stateMutability": "view",
      "type": "function"
    },
    {
      "inputs": [],
      "name": "owner",
      "outputs": [
        {
          "internalType": "address",
          "name": "",
          "type": "address"
        }
      ],
      "stateMutability": "view",
      "type": "function"
    },
    {
      "inputs": [
        {
          "internalType": "address",
          "name": "_tokenAddress",
          "type": "address"
        },
        {
          "internalType": "bool",
          "name": "pause",
          "type": "bool"
        }
      ],
      "name": "pauseToken",
      "outputs": [],
      "stateMutability": "nonpayable",
      "type": "function"
    },
    {
      "inputs": [],
      "name": "pendingOwner",
      "outputs": [
        {
          "internalType": "address",
          "name": "",
          "type": "address"
        }
      ],
      "stateMutability": "view",
      "type": "function"
    },
    {
      "inputs": [],
      "name": "remit",
      "outputs": [],
      "stateMutability": "nonpayable",
      "type": "function"
    },
    {
      "inputs": [],
      "name": "renounceOwnership",
      "outputs": [],
      "stateMutability": "nonpayable",
      "type": "function"
    },
    {
      "inputs": [
        {
          "internalType": "uint256",
          "name": "_cancelLimit",
          "type": "uint256"
        }
      ],
      "name": "setCancelLimit",
      "outputs": [],
      "stateMutability": "nonpayable",
      "type": "function"
    },
    {
      "inputs": [
        {
          "internalType": "uint40",
          "name": "_nextUncheckedDay",
          "type": "uint40"
        }
      ],
      "name": "setNextUncheckedDay",
      "outputs": [],
      "stateMutability": "nonpayable",
      "type": "function"
    },
    {
      "inputs": [
        {
          "components": [
            {
              "internalType": "bytes32",
              "name": "id",
              "type": "bytes32"
            },
            {
              "internalType": "uint256",
              "name": "subscriberIndex",
              "type": "uint256"
            },
            {
              "internalType": "uint256",
              "name": "subscriptionIndex",
              "type": "uint256"
            },
            {
              "internalType": "uint256",
              "name": "frequency",
              "type": "uint256"
            },
            {
              "internalType": "bool",
              "name": "initialized",
              "type": "bool"
            }
          ],
          "internalType": "struct ClockTowerSubscribe.PageStart",
          "name": "_pageStart",
          "type": "tuple"
        }
      ],
      "name": "setPageStart",
      "outputs": [],
      "stateMutability": "nonpayable",
      "type": "function"
    },
    {
      "inputs": [
        {
          "components": [
            {
              "internalType": "bytes32",
              "name": "id",
              "type": "bytes32"
            },
            {
              "internalType": "uint256",
              "name": "amount",
              "type": "uint256"
            },
            {
              "internalType": "address",
              "name": "provider",
              "type": "address"
            },
            {
              "internalType": "address",
              "name": "token",
              "type": "address"
            },
            {
              "internalType": "bool",
              "name": "cancelled",
              "type": "bool"
            },
            {
              "internalType": "enum ClockTowerSubscribe.Frequency",
              "name": "frequency",
              "type": "uint8"
            },
            {
              "internalType": "uint16",
              "name": "dueDay",
              "type": "uint16"
            }
          ],
          "internalType": "struct ClockTowerSubscribe.Subscription",
          "name": "subscription",
          "type": "tuple"
        }
      ],
      "name": "subscribe",
      "outputs": [],
      "stateMutability": "nonpayable",
      "type": "function"
    },
    {
      "inputs": [],
      "name": "systemFee",
      "outputs": [
        {
          "internalType": "uint256",
          "name": "",
          "type": "uint256"
        }
      ],
      "stateMutability": "view",
      "type": "function"
    },
    {
      "inputs": [
        {
          "internalType": "bool",
          "name": "status",
          "type": "bool"
        }
      ],
      "name": "systemFeeActivate",
      "outputs": [],
      "stateMutability": "nonpayable",
      "type": "function"
    },
    {
      "inputs": [
        {
          "internalType": "address",
          "name": "newOwner",
          "type": "address"
        }
      ],
      "name": "transferOwnership",
      "outputs": [],
      "stateMutability": "nonpayable",
      "type": "function"
    },
    {
      "inputs": [
        {
          "components": [
            {
              "internalType": "bytes32",
              "name": "id",
              "type": "bytes32"
            },
            {
              "internalType": "uint256",
              "name": "amount",
              "type": "uint256"
            },
            {
              "internalType": "address",
              "name": "provider",
              "type": "address"
            },
            {
              "internalType": "address",
              "name": "token",
              "type": "address"
            },
            {
              "internalType": "bool",
              "name": "cancelled",
              "type": "bool"
            },
            {
              "internalType": "enum ClockTowerSubscribe.Frequency",
              "name": "frequency",
              "type": "uint8"
            },
            {
              "internalType": "uint16",
              "name": "dueDay",
              "type": "uint16"
            }
          ],
          "internalType": "struct ClockTowerSubscribe.Subscription",
          "name": "subscription",
          "type": "tuple"
        }
      ],
      "name": "unsubscribe",
      "outputs": [],
      "stateMutability": "nonpayable",
      "type": "function"
    },
    {
      "inputs": [
        {
          "components": [
            {
              "internalType": "bytes32",
              "name": "id",
              "type": "bytes32"
            },
            {
              "internalType": "uint256",
              "name": "amount",
              "type": "uint256"
            },
            {
              "internalType": "address",
              "name": "provider",
              "type": "address"
            },
            {
              "internalType": "address",
              "name": "token",
              "type": "address"
            },
            {
              "internalType": "bool",
              "name": "cancelled",
              "type": "bool"
            },
            {
              "internalType": "enum ClockTowerSubscribe.Frequency",
              "name": "frequency",
              "type": "uint8"
            },
            {
              "internalType": "uint16",
              "name": "dueDay",
              "type": "uint16"
            }
          ],
          "internalType": "struct ClockTowerSubscribe.Subscription",
          "name": "subscription",
          "type": "tuple"
        },
        {
          "internalType": "address",
          "name": "subscriber",
          "type": "address"
        }
      ],
      "name": "unsubscribeByProvider",
      "outputs": [],
      "stateMutability": "nonpayable",
      "type": "function"
    }
  ],
  "bytecode": "0x608060405234801561000f575f5ffd5b506040516154dd3803806154dd83398101604081905261002e916101c2565b806001600160a01b03811661005c57604051631e4fbdf760e01b81525f600482015260240160405180910390fd5b61006581610143565b506001600160a01b038116610078575f5ffd5b612710861015801561008c5750612a518611155b610094575f5ffd5b61271085101580156100a85750614e1f8511155b6100b0575f5ffd5b6002868155600386905560058490556004859055600b805460ff60d01b1916600160d01b851515021790556100e44261015f565b6100ee919061022e565b600b80546001600160a01b03909316660100000000000002600160301b600160d01b031964ffffffffff939093166101000292909216610100600160d01b0319909316929092171790555061028c9350505050565b600180546001600160a01b031916905561015c81610173565b50565b5f61016d6201518083610257565b92915050565b5f80546001600160a01b038381166001600160a01b0319831681178455604051919092169283917f8be0079c531659141344cd1fd0a4f28419497f9722a3daafe3b4186f6b6457e09190a35050565b5f5f5f5f5f5f60c087890312156101d7575f5ffd5b86516020880151604089015160608a015160808b0151939950919750955093508015158114610204575f5ffd5b60a08801519092506001600160a01b0381168114610220575f5ffd5b809150509295509295509295565b64ffffffffff828116828216039081111561016d57634e487b7160e01b5f52601160045260245ffd5b5f64ffffffffff83168061027957634e487b7160e01b5f52601260045260245ffd5b8064ffffffffff84160491505092915050565b615244806102995f395ff3fe608060405234801561000f575f5ffd5b506004361061021d575f3560e01c80637ee1bfb91161012a578063d10f9e69116100b4578063e63d35be11610079578063e63d35be14610554578063ebec6eaa14610569578063ed601d2814610593578063f2fde38b146105a6578063fbcbc0f1146105b9575f5ffd5b8063d10f9e69146104de578063d57ade5a146104f1578063da854a9614610504578063e0a177f314610530578063e30c397814610543575f5ffd5b80639889552e116100fa5780639889552e1461042e578063ac2b4e6314610441578063b25ae32c14610454578063bd7438861461045c578063cab1c965146104d5575f5ffd5b80637ee1bfb9146103c457806386525a00146103d75780638da5cb5b146103f75780638ef0ef1c1461041b575f5ffd5b806334d441d0116101ab578063715018a61161017b578063715018a6146103795780637507ba391461038157806379ba5097146103895780637b7c5f17146103915780637bbf5a6e146103a4575f5ffd5b806334d441d0146103375780634a1268b814610340578063598bff3514610353578063668c1e8a14610366575f5ffd5b806312c99cf5116101f157806312c99cf5146102de57806316e8b850146102f15780631f17ee551461030857806325c227191461031157806327ea977314610324575f5ffd5b8062b7097714610221578063038c9c0e146102a35780630b8590c7146102b85780630bec99e8146102cb575b5f5ffd5b61028761022f3660046144d3565b60156020525f90815260409020805460018201546002830154600390930154919290916001600160a01b039182169181169060ff600160a01b8204811691600160a81b81049091169061ffff600160b01b9091041687565b60405161029a9796959493929190614512565b60405180910390f35b6102b66102b1366004614562565b6105d9565b005b6102b66102c63660046145c6565b610c87565b6102b66102d93660046144d3565b611109565b6102b66102ec36600461472c565b611116565b6102fa60055481565b60405190815260200161029a565b6102fa60035481565b6102b661031f36600461472c565b61129f565b6102b66103323660046144d3565b61137e565b6102fa60025481565b6102b661034e366004614746565b61138b565b6102b6610361366004614788565b611484565b6102b6610374366004614562565b611671565b6102b66118fd565b6102b6611910565b6102b6612686565b6102b661039f3660046147bb565b6126ca565b6103b76103b23660046144d3565b6126f6565b60405161029a91906147df565b6102b66103d2366004614836565b612835565b6103ea6103e5366004614847565b61284f565b60405161029a9190614881565b5f546001600160a01b03165b6040516001600160a01b03909116815260200161029a565b6102b66104293660046144d3565b612bd6565b6102b661043c36600461493b565b612bff565b6102b661044f366004614956565b612c25565b6102fa612ca7565b6104a361046a366004614956565b60186020525f9081526040902080546001909101546001600160a01b0382169160ff600160a01b8204811692600160a81b909204169084565b604080516001600160a01b03909516855260ff909316602085015290151591830191909152606082015260800161029a565b6102fa60045481565b6102b66104ec36600461496f565b612cb7565b6102b66104ff3660046149b1565b612d26565b600b5461051a90610100900464ffffffffff1681565b60405164ffffffffff909116815260200161029a565b6102b661053e3660046144d3565b612dcf565b6001546001600160a01b0316610403565b61055c612ddc565b60405161029a91906149e6565b6102fa610577366004614a32565b601260209081525f928352604080842090915290825290205481565b6102b66105a1366004614ade565b613238565b6102b66105b4366004614956565b6132b7565b6105cc6105c7366004614956565b613327565b60405161029a9190614c97565b6105e381356137cf565b6106185760405162461bcd60e51b81526020600482015260016024820152603360f81b60448201526064015b60405180910390fd5b60185f61062b6080840160608501614956565b6001600160a01b0316815260208101919091526040015f2054600160a81b900460ff16156106805760405162461bcd60e51b8152602060048201526002602482015261032360f41b604482015260640161060f565b5f6106c4602083013560188361069c6080870160608801614956565b6001600160a01b0316815260208101919091526040015f2054600160a01b900460ff16613801565b9050806106d76080840160608501614956565b604051636eb1769f60e11b81523360048201523060248201526001600160a01b03919091169063dd62ed3e90604401602060405180830381865afa158015610721573d5f5f3e3d5ffd5b505050506040513d601f19601f820116820180604052508101906107459190614ceb565b101580156107ca57508061075f6080840160608501614956565b6040516370a0823160e01b81523360048201526001600160a01b0391909116906370a0823190602401602060405180830381865afa1580156107a3573d5f5f3e3d5ffd5b505050506040513d601f19601f820116820180604052508101906107c79190614ceb565b10155b6107fb5760405162461bcd60e51b8152602060048201526002602482015261031360f41b604482015260640161060f565b61080b6060830160408401614956565b6001600160a01b031633036108465760405162461bcd60e51b81526020600482015260016024820152600360fc1b604482015260640161060f565b81355f90815260146020526040902061085e90613873565b5f036108c9576108c7823560135f61087c60c0870160a08801614d02565b600381111561088d5761088d6144ea565b81526020019081526020015f205f8560c00160208101906108ae9190614d1b565b61ffff16815260208101919091526040015f209061387c565b505b81355f9081526014602052604090206108e2903361388e565b6109015781355f9081526014602052604090206108ff90336138af565b505b81355f90815260166020526040902061091a903361388e565b1561093a5781355f90815260166020526040902061093890336138c3565b505b604080516080810190915282358152610999906020810161096160e0860160c08701614d1b565b61ffff16815260200161097a60c0860160a08701614d02565b600381111561098b5761098b6144ea565b81526020015f90525f6138d7565b60208201356001806109b160c0860160a08701614d02565b60038111156109c2576109c26144ea565b14806109ed57505f6109da60c0860160a08701614d02565b60038111156109eb576109eb6144ea565b145b15610a3857610a3142610a0660e0870160c08801614d1b565b61ffff1684610a1b60c0890160a08a01614d02565b6003811115610a2c57610a2c6144ea565b613975565b9150610adc565b6002610a4a60c0860160a08701614d02565b6003811115610a5b57610a5b6144ea565b03610a8c57610a7442610a0660e0870160c08801614d1b565b9150610a81600383614d5c565b915060029050610adc565b6003610a9e60c0860160a08701614d02565b6003811115610aaf57610aaf6144ea565b03610adc57610ac842610a0660e0870160c08801614d1b565b9150610ad5600c83614d5c565b9150600b90505b83355f90815260126020908152604080832033845290915281208054849290610b06908490614d6f565b90915550339050610b1d6060860160408701614956565b6001600160a01b031685355f5160206151ef5f395f51905f52426020890135610b4c60808b0160608c01614956565b6006604051610b5e9493929190614d92565b60405180910390a433610b776060860160408701614956565b6001600160a01b031685355f5160206151ef5f395f51905f524286610ba260808b0160608c01614956565b6008604051610bb49493929190614d92565b60405180910390a4610bf93330610bd88560185f61069c60808c0160608d01614956565b610be86080890160608a01614956565b6001600160a01b0316929190613bb9565b6002610c0b60c0860160a08701614d02565b6003811115610c1c57610c1c6144ea565b1480610c4857506003610c3560c0860160a08701614d02565b6003811115610c4657610c466144ea565b145b15610c8157610c8133610c616060870160408801614956565b610bd8610c6e8587614dc3565b60185f61069c60808c0160608d01614956565b50505050565b6001600160a01b038416610cc15760405162461bcd60e51b81526020600482015260016024820152600d60fa1b604482015260640161060f565b6001600160a01b038085165f9081526018602052604090205416610d0b5760405162461bcd60e51b81526020600482015260016024820152603560f81b604482015260640161060f565b6001600160a01b0384165f90815260186020526040902054600160a81b900460ff1615610d5f5760405162461bcd60e51b8152602060048201526002602482015261032360f41b604482015260640161060f565b5f826003811115610d7257610d726144ea565b03610dc0578061ffff165f108015610d8f575060078161ffff1611155b610dc05760405162461bcd60e51b81526020600482015260026024820152610c4d60f21b604482015260640161060f565b6001826003811115610dd457610dd46144ea565b03610e22578061ffff165f108015610df15750601c8161ffff1611155b610e225760405162461bcd60e51b8152602060048201526002602482015261313560f01b604482015260640161060f565b6002826003811115610e3657610e366144ea565b03610e84578061ffff165f108015610e535750605a8161ffff1611155b610e845760405162461bcd60e51b8152602060048201526002602482015261189b60f11b604482015260640161060f565b6003826003811115610e9857610e986144ea565b03610ee7578061ffff165f108015610eb6575061016d8161ffff1611155b610ee75760405162461bcd60e51b8152602060048201526002602482015261313760f01b604482015260640161060f565b6001600160a01b0384165f90815260186020526040902060010154851015610f365760405162461bcd60e51b8152602060048201526002602482015261062760f31b604482015260640161060f565b5f610f4386868585613c35565b9050610f8f6040518060800160405280835f015181526020018360c0015161ffff1681526020018360a001516003811115610f8057610f806144ea565b81526020015f905260016138d7565b80515f9081526015602090815260409182902083518155908301516001820155908201516002820180546001600160a01b039283166001600160a01b031990911617905560608301516003808401805460808701511515600160a01b0274ffffffffffffffffffffffffffffffffffffffffff1990911693909416929092179290921780825560a085015185949390929160ff60a81b191690600160a81b90849081111561103f5761103f6144ea565b021790555060c091909101516003909101805461ffff909216600160b01b0261ffff60b01b19909216919091179055805164ffffffffff42169033907f93cda0785d40b289a535b99dc76d4c9cbb6d8146182861ac3ad40509398b18656110a68880614dda565b6110b360208b018b614dda565b6040516110c39493929190614e4c565b60405180910390a4805160608201516040515f92339290915f5160206151ef5f395f51905f52916110f99142918d918890614d92565b60405180910390a4505050505050565b611111613d39565b600355565b8051611121906137cf565b6111515760405162461bcd60e51b81526020600482015260016024820152603360f81b604482015260640161060f565b335f818152600e60209081526040808320855184529091529020805460ff19166002179055815161118191613d65565b336001600160a01b031681604001516001600160a01b0316825f01515f5160206151ef5f395f51905f52428560200151866060015160076040516111c89493929190614d92565b60405180910390a480515f9081526012602081815260408084203380865290835281852054865186529383528185208186529092528084209390935582840151845160608601519451939492936001600160a01b039092169290915f5160206151ef5f395f51905f52916112429142918891600490614d92565b60405180910390a460408281015160608401516001600160a01b03165f9081526018602052919091205461129b9190611286908490600160a01b900460ff16613801565b60608501516001600160a01b03169190613d97565b5050565b8051335f908152600d602052604090206112b891613dc8565b6112e85760405162461bcd60e51b81526020600482015260016024820152600760fb1b604482015260640161060f565b80515f90815260166020526040812061130090613873565b82515f90815260146020526040902061131890613873565b6113229190614e7d565b90505f811161132f575f5ffd5b5f600554821015611341575080611346565b506005545b5f5b81811015610c815783515f9081526014602052604081206113699083613ddf565b90506113758582611484565b50600101611348565b611386613d39565b600455565b611393613d39565b6001600160a01b0383166113a5575f5ffd5b6001600160a01b038084165f9081526018602052604090205416156113f05760405162461bcd60e51b81526020600482015260016024820152603160f81b604482015260640161060f565b604080516080810182526001600160a01b0394851680825260ff93841660208084019182525f8486018181526060860198895293815260189091529390932091518254935191511515600160a81b0260ff60a81b1992909516600160a01b0274ffffffffffffffffffffffffffffffffffffffffff1990941696169590951791909117939093161782555160019190910155565b8151335f908152600d6020526040902061149d91613dc8565b6114cd5760405162461bcd60e51b81526020600482015260016024820152600760fb1b604482015260640161060f565b81515f9081526014602052604081206114e6908361388e565b1561151d57506001600160a01b0381165f908152600e60209081526040808320855184529091529020805460ff1916600217905560015b8061154e5760405162461bcd60e51b81526020600482015260016024820152603960f81b604482015260640161060f565b825161155a9083613d65565b816001600160a01b031683604001516001600160a01b0316845f01515f5160206151ef5f395f51905f52428760200151886060015160076040516115a19493929190614d92565b60405180910390a482515f9081526012602081815260408084206001600160a01b03808816808752918452828620548951875294845282862082875290935281852094909455808701518751606089015192519495949190931692915f5160206151ef5f395f51905f529161161d914291889190600990614d92565b60405180910390a460608401516001600160a01b03165f90815260186020526040902054610c8190849061165c908490600160a01b900460ff16613801565b60608701516001600160a01b03169190613d97565b61167b81356137cf565b6116ab5760405162461bcd60e51b81526020600482015260016024820152603360f81b604482015260640161060f565b6116bb6060820160408301614956565b6001600160a01b0316336001600160a01b0316146117005760405162461bcd60e51b8152602060048201526002602482015261313360f01b604482015260640161060f565b61171060a082016080830161493b565b15611719575f5ffd5b335f908152600f60209081526040808320843584528252808320805460ff1916600117905560149091528120905b82355f90815260146020526040902061175f90613873565b811015611898575f6117718383613ddf565b84355f9081526012602090815260408083206001600160a01b03851680855292529182902054929350906117ab9060608801908801614956565b6001600160a01b031686355f5160206151ef5f395f51905f5242856117d660808c0160608d01614956565b60096040516117e89493929190614d92565b60405180910390a484355f9081526012602090815260408083206001600160a01b0386168452909152812081905561185590839061183590849060189061069c60808c0160608d01614956565b6118456080890160608a01614956565b6001600160a01b03169190613d97565b6001600160a01b0382165f908152600e6020908152604080832088358085529252909120805460ff1916600117905561188e9083613d65565b5050600101611747565b5081355f818152601560205260408120600301805460ff60a01b1916600160a01b1790559033905f5160206151ef5f395f51905f5242846118df6080890160608a01614956565b60016040516118f19493929190614d92565b60405180910390a45050565b611905613d39565b61190e5f613dea565b565b60ff5f5c16156119475760405162461bcd60e51b8152602060048201526002602482015261313960f01b604482015260640161060f565b60015f805c60ff19168217905d505f61195f42613e03565b600b5490915064ffffffffff610100909104811690821610156119a85760405162461bcd60e51b81526020600482015260016024820152601b60f91b604482015260640161060f565b6040805160c0810182525f80825260208201819052918101829052606081018290526080810182905260a0810191909152600190600b5464ffffffffff8481166101009092041614611a2757600b54611a2090611a1490610100900464ffffffffff1662015180614e90565b64ffffffffff16613e11565b9050611a33565b611a3042613e11565b90505b5f5f5b6003811161259b57600a5460ff161580611a5f57506009548110801590611a5f5750600a5460ff165b15612589575f81611a71575060208301515b60018203611a7d575082515b60028203611a8c575060408301515b60038203611a9b575060608301515b5f82815260136020908152604080832061ffff851684529091528120611ac090613873565b90505f5b8181101561258557600a5460ff161580611aed57506008548110801590611aed5750600a5460ff165b1561257d575f84815260136020908152604080832061ffff8716845290915281206015908290611b1d9085613ddf565b815260208082019290925260409081015f20815160e0810183528154815260018201549381019390935260028101546001600160a01b0390811692840192909252600380820154928316606085015260ff600160a01b8404811615156080860152919260a0850192600160a81b9091041690811115611b9e57611b9e6144ea565b6003811115611baf57611baf6144ea565b815260039190910154600160b01b900461ffff1660209091015260808101515f9950909150158015611c04575060608101516001600160a01b03165f90815260186020526040902054600160a81b900460ff16155b1561257b576040805160a08101825282518152606080840180516001600160a01b03908116602080860191909152868601518216858701529151165f9081526018825293842054600160a01b900460ff1691830182905260808301899052840151919291611c7191613801565b90505f8161271060025484611c869190614dc3565b611c909190614d5c565b611c9a9190614e7d565b83515f908152601460205260408120919250908190611cb890613873565b90505f8115611ccf57611ccc600183614e7d565b90505b5f5b82811015612573576004548d03611e48576040805160a0810182528851808252602082018490529181018b9052606081018e905260016080909101819052600691909155600782905560088a905560098d9055600a805460ff199081169092179055600b805490911690819055600160d01b900460ff1615611dc0575f8461271060035487611d609190614dc3565b611d6a9190614d5c565b611d749190614e7d565b9050611d808186614e7d565b9450611dbe600b60069054906101000a90046001600160a01b0316611da9838b60600151613801565b60208b01516001600160a01b03169190613d97565b505b611de733611dd2868a60600151613801565b60208a01516001600160a01b03169190613d97565b600b546040515f81523391610100900464ffffffffff9081169142909116907f90192d7875364a53e351ae63fd2dfef8dc941735b29fb0c504d06a0e21ae602e9060200160405180910390a45050505050505050505050505050505061267a565b6006548751148015611e5b575060075481145b15611e6e57600b805460ff191660011790555b600a5460ff161580611e875750600b5460ff1615156001145b1561256b5786515f908152601460205260408120611ea59083613ddf565b88515f908152601660205260409020909150611ec1908261388e565b15611ecc575061256b565b6020880151604051636eb1769f60e11b81526001600160a01b0383811660048301523060248301528992169063dd62ed3e90604401602060405180830381865afa158015611f1c573d5f5f3e3d5ffd5b505050506040513d601f19601f82011682018060405250810190611f409190614ceb565b10158015611fba575060208801516040516370a0823160e01b81526001600160a01b038381166004830152899216906370a0823190602401602060405180830381865afa158015611f93573d5f5f3e3d5ffd5b505050506040513d601f19601f82011682018060405250810190611fb79190614ceb565b10155b156122ce578d611fc981614eb0565b89515f9081526012602090815260408083206001600160a01b0387168452909152902054909f50871015905061215f576120038686614d6f565b88515f9081526012602090815260408083206001600160a01b038616845290915281208054929750889290919061203b908490614e7d565b92505081905550806001600160a01b031688604001516001600160a01b0316895f01515f5160206151ef5f395f51905f52428b8d6020015160056040516120859493929190614d92565b60405180910390a4806001600160a01b031688604001516001600160a01b0316895f01515f5160206151ef5f395f51905f52425f8d6020015160026040516120d09493929190614d92565b60405180910390a4600b54885160808a015160408051868152602081018f90529081019190915261010090920464ffffffffff16917f0c0097fff4bc1b26a833fef6928d7dec93a2ed4a665c3588c6a3270e0e7e38749060600160405180910390a361215a818960400151898b602001516001600160a01b0316613bb9909392919063ffffffff16565b6124d4565b87515f9081526012602090815260408083206001600160a01b038516845290915290205461218d9086614d6f565b88515f9081526012602090815260408083206001600160a01b0380871680865291845282852094909455818d01518d51938e01519251959a5090949316925f5160206151ef5f395f51905f52916121ea9142918e91600890614d92565b60405180910390a486600160028f900361221457612209600383614d5c565b91506002905061222e565b8e60030361222e57612227600c83614d5c565b9150600b90505b89515f9081526012602090815260408083206001600160a01b038716845290915281208054849290612261908490614d6f565b92505081905550612291833061227b858e60600151613801565b60208e01516001600160a01b0316929190613bb9565b8e600214806122a057508e6003145b156122c7576122c7838b6040015161227b84866122bd9190614dc3565b8e60600151613801565b50506124d4565b8d6122d881614eb0565b89515f9081526012602090815260408083206001600160a01b0387168452909152902054909f5087101590506123d7576123128686614d6f565b88515f9081526012602090815260408083206001600160a01b038616845290915281205491965090612345908890614e7d565b89515f9081526012602090815260408083206001600160a01b0380881680865291845282852094909455818e01518e51938f0151925195965090949316925f5160206151ef5f395f51905f52916123a29142918891600490614d92565b60405180910390a46123d589604001516123c0838c60600151613801565b60208c01516001600160a01b03169190613d97565b505b87516123e39082613d65565b806001600160a01b031688604001516001600160a01b0316895f01515f5160206151ef5f395f51905f52428b8d6020015160076040516124269493929190614d92565b60405180910390a4806001600160a01b031688604001516001600160a01b0316895f01515f5160206151ef5f395f51905f52425f8d6020015160036040516124719493929190614d92565b60405180910390a4600b54885160808a015160408051868152602081018f90529081019190915261010090920464ffffffffff16917f0c0097fff4bc1b26a833fef6928d7dec93a2ed4a665c3588c6a3270e0e7e38749060600160405180910390a35b82821480156124e257505f84115b1561256957600b54600160d01b900460ff1615612557575f856127106003548861250c9190614dc3565b6125169190614d5c565b6125209190614e7d565b905061252c8187614e7d565b9550612555600b60069054906101000a90046001600160a01b03166123c0838c60600151613801565b505b61256933611da9878b60600151613801565b505b600101611cd1565b505050505050505b505b600101611ac4565b5050505b8061259381614eb0565b915050611a36565b505f600681905560078190556008819055600955600a805460ff19908116909155600b805490911690819055604051600181523391610100900464ffffffffff9081169142909116907f90192d7875364a53e351ae63fd2dfef8dc941735b29fb0c504d06a0e21ae602e9060200160405180910390a46001600b60018282829054906101000a900464ffffffffff166126349190614ec8565b92506101000a81548164ffffffffff021916908364ffffffffff1602179055508215612675575f60ff19815c16815d5061266c611910565b5050505061267a565b505050505b5f60ff19815c16815d50565b60015433906001600160a01b031681146126be5760405163118cdaa760e01b81526001600160a01b038216600482015260240161060f565b6126c781613dea565b50565b6126d2613d39565b600b805464ffffffffff9092166101000265ffffffffff0019909216919091179055565b5f8181526014602052604081206060919061271090613873565b90505f8167ffffffffffffffff81111561272c5761272c61463a565b60405190808252806020026020018201604052801561277057816020015b604080518082019091525f808252602082015281526020019060019003908161274a5790505b5090505f5b8281101561282d575f8581526012602090815260408083206014909252822082906127a09085613ddf565b6001600160a01b03166001600160a01b031681526020019081526020015f205490505f60405180604001604052806127f18560145f8c81526020019081526020015f20613ddf90919063ffffffff16565b6001600160a01b031681526020018381525090508084848151811061281857612818614ee5565b60209081029190910101525050600101612775565b509392505050565b61283d613d39565b80600661284a8282614ef9565b505050565b606080831561287f576001600160a01b0383165f908152600c60205260409020612878906140a0565b90506128a2565b6001600160a01b0383165f908152600d6020526040902061289f906140a0565b90505b5f815167ffffffffffffffff8111156128bd576128bd61463a565b60405190808252806020026020018201604052801561293957816020015b60408051610140810182525f606082018181526080830182905260a0830182905260c0830182905260e0830182905261010083018290526101208301829052825260208083018290529282015282525f199092019101816128db5790505b5090505f5b8251811015612bcb5785156129e7576001600160a01b0385165f908152600e60205260408120845190919085908490811061297b5761297b614ee5565b602002602001015181526020019081526020015f205f9054906101000a900460ff168282815181106129af576129af614ee5565b60200260200101516020019060028111156129cc576129cc6144ea565b908160028111156129df576129df6144ea565b905250612a7d565b6001600160a01b0385165f908152600f602052604081208451909190859084908110612a1557612a15614ee5565b602002602001015181526020019081526020015f205f9054906101000a900460ff16828281518110612a4957612a49614ee5565b6020026020010151602001906002811115612a6657612a666144ea565b90816002811115612a7957612a796144ea565b9052505b60155f848381518110612a9257612a92614ee5565b60209081029190910181015182528181019290925260409081015f20815160e0810183528154815260018201549381019390935260028101546001600160a01b0390811692840192909252600380820154928316606085015260ff600160a01b8404811615156080860152919260a0850192600160a81b9091041690811115612b1d57612b1d6144ea565b6003811115612b2e57612b2e6144ea565b815260039190910154600160b01b900461ffff166020909101528251839083908110612b5c57612b5c614ee5565b60200260200101515f0181905250612ba260145f848481518110612b8257612b82614ee5565b60200260200101515f01515f015181526020019081526020015f20613873565b828281518110612bb457612bb4614ee5565b60209081029190910101516040015260010161293e565b509150505b92915050565b612bde613d39565b6127108110158015612bf25750612a518111155b612bfa575f5ffd5b600255565b612c07613d39565b600b8054911515600160d01b0260ff60d01b19909216919091179055565b612c2d613d39565b6001600160a01b038116612c3f575f5ffd5b600b546001600160a01b036601000000000000909104811690821603612c63575f5ffd5b600b80546001600160a01b039092166601000000000000027fffffffffffff0000000000000000000000000000000000000000ffffffffffff909216919091179055565b5f612cb26010613873565b905090565b335f908152600d60205260409020612ccf9082613dc8565b1561129b5764ffffffffff421633827f93cda0785d40b289a535b99dc76d4c9cbb6d8146182861ac3ad40509398b1865612d098680614dda565b612d166020890189614dda565b6040516118f19493929190614e4c565b612d2e613d39565b6001600160a01b038281165f9081526018602052604090205416612d50575f5ffd5b80612da3576001600160a01b0382165f90815260186020526040902054600160a81b900460ff16612d7f575f5ffd5b506001600160a01b03165f908152601860205260409020805460ff60a81b19169055565b6001600160a01b0382165f908152601860205260409020805460ff60a81b1916600160a81b1790555050565b612dd7613d39565b600555565b60605f612de842613e03565b600b5490915064ffffffffff610100909104811690821611612e305760405162461bcd60e51b81526020600482015260016024820152601b60f91b604482015260640161060f565b5f612e3a42613e11565b90505f5f5f60045467ffffffffffffffff811115612e5a57612e5a61463a565b604051908082528060200260200182016040528015612e9e57816020015b604080518082019091525f8082526020820152815260200190600190039081612e785790505b5090505f5b6003811161312e575f81612eb8575060208501515b60018203612ec4575084515b60028203612ed3575060408501515b60038203612ee2575060608501515b5f5b5f83815260136020908152604080832061ffff861684529091529020612f0990613873565b811015613119575f83815260136020908152604080832061ffff8616845290915281206015908290612f3b9085613ddf565b815260208082019290925260409081015f20815160e0810183528154815260018201549381019390935260028101546001600160a01b0390811692840192909252600380820154928316606085015260ff600160a01b8404811615156080860152919260a0850192600160a81b9091041690811115612fbc57612fbc6144ea565b6003811115612fcd57612fcd6144ea565b815260039190910154600160b01b900461ffff166020909101526080810151909150613110576060810151602080830151604080518082019091525f80825292810192909252905f82612710600254856130279190614dc3565b6130319190614d5c565b61303b9190614e7d565b90505f5f5b86515f90815260146020526040902061305890613873565b811015613109576004548d0361307c5750989e9d5050505050505050505050505050565b600a5460ff1615806130955750600b5460ff1615156001145b15613101578c6130a481614eb0565b9d506130b290508383614d6f565b91506040518060400160405280838152602001876001600160a01b03168152509350838b8d815181106130e7576130e7614ee5565b60200260200101819052508b806130fd90614eb0565b9c50505b600101613040565b5050505050505b50600101612ee4565b5050808061312690614eb0565b915050612ea3565b505f5f5b8251811015613181575f6001600160a01b031683828151811061315757613157614ee5565b6020026020010151602001516001600160a01b03160361317957809150613181565b600101613132565b505f8167ffffffffffffffff81111561319c5761319c61463a565b6040519080825280602002602001820160405280156131e057816020015b604080518082019091525f80825260208201528152602001906001900390816131ba5790505b5090505f5b8281101561322c578381815181106131ff576131ff614ee5565b602002602001015182828151811061321957613219614ee5565b60209081029190910101526001016131e5565b50979650505050505050565b80516040516132479190614f43565b60405180910390204264ffffffffff16336001600160a01b03167f34f43abf7a52b609b04511ed963a29ebb76ae3e0ca0ff5594be1c2a84ebd03f284602001518560400151866060015187608001518860a001516040516132ac959493929190614f87565b60405180910390a450565b6132bf613d39565b600180546001600160a01b0383166001600160a01b031990911681179091556132ef5f546001600160a01b031690565b6001600160a01b03167f38d16b8cac22d99fc7c124b9cd0de2d3fa1faef420bfe791d8c362d765e2270060405160405180910390a350565b61335360405180606001604052805f6001600160a01b0316815260200160608152602001606081525090565b6001600160a01b0382165f908152600c6020526040812061337390613873565b6001600160a01b0384165f908152600d602052604081209192509061339790613873565b90505f8267ffffffffffffffff8111156133b3576133b361463a565b60405190808252806020026020018201604052801561340c57816020015b6133f9604080516080810182525f80825260208201819052909182019081526020015f905290565b8152602001906001900390816133d15790505b5090505f5b838110156135aa576001600160a01b0386165f908152600c6020526040812061343a9083613ddf565b5f818152601660205260409020909150613454908861388e565b6135a1575f818152601560209081526040808320815160e0810183528154815260018201549381019390935260028101546001600160a01b0390811692840192909252600380820154928316606085015260ff600160a01b8404811615156080860152919260a0850192600160a81b90910416908111156134d7576134d76144ea565b60038111156134e8576134e86144ea565b81526020016003820160169054906101000a900461ffff1661ffff1661ffff1681525050905060405180608001604052808381526020018260c0015161ffff1681526020018260a001516003811115613543576135436144ea565b81526001600160a01b038a165f908152600e6020908152604080832087845282529091205491019060ff16600281111561357f5761357f6144ea565b81525084848151811061359457613594614ee5565b6020026020010181905250505b50600101613411565b505f8367ffffffffffffffff8111156135c5576135c561463a565b60405190808252806020026020018201604052801561361e57816020015b61360b604080516080810182525f80825260208201819052909182019081526020015f905290565b8152602001906001900390816135e35790505b5090505f5b838110156137a3576001600160a01b0387165f908152600d6020526040812061364c9083613ddf565b5f818152601560209081526040808320815160e0810183528154815260018201549381019390935260028101546001600160a01b0390811692840192909252600380820154928316606085015260ff600160a01b840481161515608086015295965093949293909260a0850192600160a81b900416908111156136d1576136d16144ea565b60038111156136e2576136e26144ea565b81526020016003820160169054906101000a900461ffff1661ffff1661ffff1681525050905060405180608001604052808381526020018260c0015161ffff1681526020018260a00151600381111561373d5761373d6144ea565b81526001600160a01b038b165f908152600f6020908152604080832087845282529091205491019060ff166002811115613779576137796144ea565b81525084848151811061378e5761378e614ee5565b60209081029190910101525050600101613623565b50604080516060810182526001600160a01b039097168752602087019290925290850152509192915050565b5f818152601560205260408120600201546001600160a01b03166137f457505f919050565b506001919050565b919050565b5f601260ff8316811015613836576138198184614ff3565b61382490600a6150ef565b61382e9085614dc3565b915050612bd0565b8060ff168360ff1610156138635761384e8382614ff3565b61385990600a6150ef565b61382e9085614d5c565b83915050612bd0565b5092915050565b5f612bd0825490565b5f61388783836140ac565b9392505050565b6001600160a01b0381165f9081526001830160205260408120541515613887565b5f613887836001600160a01b0384166140ac565b5f613887836001600160a01b0384166140f8565b6138e260103361388e565b6138f3576138f16010336138af565b505b8015613937578151335f908152600d602052604090206139129161387c565b5050335f908152600f602090815260408083209351835292905220805460ff19169055565b8151335f908152600c602052604090206139509161387c565b5050335f908152600e602090815260408083209351835292905220805460ff19169055565b5f5f61398086613e11565b90505f5f5f8560ff165f036139a357836020015161ffff16925060079150613a2a565b8560ff166001036139da576139c8846080015161ffff168560a0015161ffff166141db565b845161ffff1693509150819050613a2a565b8560ff16600203613a0e576139ff846060015161ffff16856080015161ffff16614260565b61ffff169250605a9150613a2a565b8560ff16600303613a2a57836060015161ffff16925061016d91505b8560ff16600103613ae4575f61016d613a4489600c614dc3565b613a4e9190614d5c565b9050838964ffffffffff1614158015613a6d57508864ffffffffff1684115b15613a9e57613a8364ffffffffff8a1685614e7d565b613a8d9084614e7d565b613a979082614dc3565b9750613ade565b838964ffffffffff1614158015613abb57508864ffffffffff1684105b15613ade57613ad18464ffffffffff8b16614e7d565b613adb9082614dc3565b97505b50613bac565b60ff86161580613af757508560ff166002145b80613b0557508560ff166003145b15613bac57828864ffffffffff1614158015613b2757508764ffffffffff1683115b15613b6257613b3d64ffffffffff891684614e7d565b613b479083614e7d565b613b518389614d5c565b613b5b9190614dc3565b9650613bac565b828864ffffffffff1614158015613b7f57508764ffffffffff1683105b15613bac57613b958364ffffffffff8a16614e7d565b613b9f8389614d5c565b613ba99190614dc3565b96505b5094979650505050505050565b6040516001600160a01b038481166024830152838116604483015260648201839052610c819186918216906323b872dd906084015b604051602081830303815290604052915060e01b6020820180517bffffffffffffffffffffffffffffffffffffffffffffffffffffffff838183161783525050505061432a565b6040805160e0810182525f8082526020808301829052828401829052606083018290526080830182905260a0830182905260c083018290523382526017905291822080549192829190613c8783614eb0565b90915550506040516bffffffffffffffffffffffff193360601b166020820152603481018290524260548201525f906074016040516020818303038152906040528051906020012090506040518060e00160405280828152602001888152602001336001600160a01b03168152602001876001600160a01b031681526020015f15158152602001866003811115613d2057613d206144ea565b81526020018561ffff1681525092505050949350505050565b5f546001600160a01b0316331461190e5760405163118cdaa760e01b815233600482015260240161060f565b5f828152601660205260409020613d7c908261388e565b61129b575f82815260166020526040902061284a90826138af565b6040516001600160a01b0383811660248301526044820183905261284a91859182169063a9059cbb90606401613bee565b5f8181526001830160205260408120541515613887565b5f6138878383614396565b600180546001600160a01b03191690556126c7816143bc565b5f612bd062015180836150fd565b6040805160c0810182525f80825260208201819052918101829052606081018290526080810182905260a0810182905290613e4f6201518084614d5c565b90505f808281613e628262010bd9615126565b613e6f9062253d8c615126565b90505f62023ab1613e8183600461514d565b613e8b919061517c565b90506004613e9c8262023ab161514d565b613ea7906003615126565b613eb1919061517c565b613ebb90836151a8565b91505f62164b09613ecd846001615126565b613ed990610fa061514d565b613ee3919061517c565b90506004613ef3826105b561514d565b613efd919061517c565b613f0790846151a8565b613f1290601f615126565b92505f61098f613f2385605061514d565b613f2d919061517c565b90505f6050613f3e8361098f61514d565b613f48919061517c565b613f5290866151a8565b9050613f5f600b8361517c565b9450613f6c85600c61514d565b613f77836002615126565b613f8191906151a8565b91508483613f906031876151a8565b613f9b90606461514d565b613fa59190615126565b613faf9190615126565b9097509150868282825f60015b83811161400857838103613fdf57613fd861ffff8e1683614d6f565b9150613ff6565b613fe985826141db565b613ff39083614d6f565b91505b8061400081614eb0565b915050613fbc565b50809a5061401a8b61ffff1685614260565b61ffff1660408f015261402c8f61440b565b8e6020019061ffff16908161ffff16815250508b8e5f019061ffff16908161ffff16815250508a8e6060019061ffff16908161ffff1681525050838e6080019061ffff16908161ffff1681525050828e60a0019061ffff16908161ffff168152505050505050505050505050505050919050565b60605f6138878361443f565b5f8181526001830160205260408120546140f157508154600181810184555f848152602080822090930184905584548482528286019093526040902091909155612bd0565b505f612bd0565b5f81815260018301602052604081205480156141d2575f61411a600183614e7d565b85549091505f9061412d90600190614e7d565b905080821461418c575f865f01828154811061414b5761414b614ee5565b905f5260205f200154905080875f01848154811061416b5761416b614ee5565b5f918252602080832090910192909255918252600188019052604090208390555b855486908061419d5761419d6151c7565b600190038181905f5260205f20015f90559055856001015f8681526020019081526020015f205f905560019350505050612bd0565b5f915050612bd0565b5f81600114806141eb5750816003145b806141f65750816005145b806142015750816007145b8061420c5750816008145b80614217575081600a145b80614222575081600c145b1561422f5750601f612bd0565b8160021461423f5750601e612bd0565b61424883614498565b61425357601c614256565b601d5b60ff169392505050565b5f5f61426b83614498565b156142785750600161427b565b505f5b61428681605a614d6f565b84116142945783915061386c565b836142a082605a614d6f565b1080156142b757506142b38160b5614d6f565b8411155b156142d8576142c781605a614d6f565b6142d19085614e7d565b915061386c565b836142e48260b5614d6f565b1080156142fc57506142f881610111614d6f565b8411155b1561430c576142c78160b5614d6f565b61431881610111614d6f565b6143229085614e7d565b949350505050565b5f5f60205f8451602086015f885af180614349576040513d5f823e3d81fd5b50505f513d9150811561436057806001141561436d565b6001600160a01b0384163b155b15610c8157604051635274afe760e01b81526001600160a01b038516600482015260240161060f565b5f825f0182815481106143ab576143ab614ee5565b905f5260205f200154905092915050565b5f80546001600160a01b038381166001600160a01b0319831681178455604051919092169283917f8be0079c531659141344cd1fd0a4f28419497f9722a3daafe3b4186f6b6457e09190a35050565b5f8061441a6201518084614d5c565b90505f600761442a836003614d6f565b61443491906151db565b614322906001614d6f565b6060815f0180548060200260200160405190810160405280929190818152602001828054801561448c57602002820191905f5260205f20905b815481526020019060010190808311614478575b50505050509050919050565b5f6144a46004836151db565b1580156144ba57506144b76064836151db565b15155b80612bd057506144cc610190836151db565b1592915050565b5f602082840312156144e3575f5ffd5b5035919050565b634e487b7160e01b5f52602160045260245ffd5b6004811061450e5761450e6144ea565b9052565b878152602081018790526001600160a01b03868116604083015285166060820152831515608082015260e0810161454c60a08301856144fe565b61ffff831660c083015298975050505050505050565b5f60e0828403128015614573575f5ffd5b509092915050565b80356001600160a01b03811681146137fc575f5ffd5b5f604082840312156145a1575f5ffd5b50919050565b8035600481106137fc575f5ffd5b803561ffff811681146137fc575f5ffd5b5f5f5f5f5f60a086880312156145da575f5ffd5b853594506145ea6020870161457b565b9350604086013567ffffffffffffffff811115614605575f5ffd5b61461188828901614591565b935050614620606087016145a7565b915061462e608087016145b5565b90509295509295909350565b634e487b7160e01b5f52604160045260245ffd5b60405160e0810167ffffffffffffffff811182821017156146715761467161463a565b60405290565b60405160c0810167ffffffffffffffff811182821017156146715761467161463a565b80151581146126c7575f5ffd5b5f60e082840312156146b7575f5ffd5b6146bf61464e565b823581526020808401359082015290506146db6040830161457b565b60408201526146ec6060830161457b565b606082015260808201356146ff8161469a565b608082015261471060a083016145a7565b60a082015261472160c083016145b5565b60c082015292915050565b5f60e0828403121561473c575f5ffd5b61388783836146a7565b5f5f5f60608486031215614758575f5ffd5b6147618461457b565b925060208401359150604084013560ff8116811461477d575f5ffd5b809150509250925092565b5f5f610100838503121561479a575f5ffd5b6147a484846146a7565b91506147b260e0840161457b565b90509250929050565b5f602082840312156147cb575f5ffd5b813564ffffffffff81168114613887575f5ffd5b602080825282518282018190525f918401906040840190835b8181101561482b57835180516001600160a01b0316845260209081015181850152909301926040909201916001016147f8565b509095945050505050565b5f60a0828403128015614573575f5ffd5b5f5f60408385031215614858575f5ffd5b82356148638161469a565b91506147b26020840161457b565b6003811061450e5761450e6144ea565b602080825282518282018190525f918401906040840190835b8181101561482b578351805180518552602081015160208601526001600160a01b0360408201511660408601526001600160a01b03606082015116606086015260808101511515608086015260a08101516148f860a08701826144fe565b5061ffff60c08201511660c086015250602081015161491a60e0860182614871565b5060400151610100840152602093909301926101209092019160010161489a565b5f6020828403121561494b575f5ffd5b81356138878161469a565b5f60208284031215614966575f5ffd5b6138878261457b565b5f5f60408385031215614980575f5ffd5b823567ffffffffffffffff811115614996575f5ffd5b6149a285828601614591565b95602094909401359450505050565b5f5f604083850312156149c2575f5ffd5b6149cb8361457b565b915060208301356149db8161469a565b809150509250929050565b602080825282518282018190525f918401906040840190835b8181101561482b578351805184526020908101516001600160a01b031681850152909301926040909201916001016149ff565b5f5f60408385031215614a43575f5ffd5b823591506147b26020840161457b565b5f82601f830112614a62575f5ffd5b813567ffffffffffffffff811115614a7c57614a7c61463a565b604051601f8201601f19908116603f0116810167ffffffffffffffff81118282101715614aab57614aab61463a565b604052818152838201602001851015614ac2575f5ffd5b816020850160208301375f918101602001919091529392505050565b5f60208284031215614aee575f5ffd5b813567ffffffffffffffff811115614b04575f5ffd5b820160c08185031215614b15575f5ffd5b614b1d614677565b813567ffffffffffffffff811115614b33575f5ffd5b614b3f86828501614a53565b825250602082013567ffffffffffffffff811115614b5b575f5ffd5b614b6786828501614a53565b602083015250604082013567ffffffffffffffff811115614b86575f5ffd5b614b9286828501614a53565b604083015250606082013567ffffffffffffffff811115614bb1575f5ffd5b614bbd86828501614a53565b606083015250608082013567ffffffffffffffff811115614bdc575f5ffd5b614be886828501614a53565b60808301525060a082013567ffffffffffffffff811115614c07575f5ffd5b614c1386828501614a53565b60a083015250949350505050565b5f8151808452602084019350602083015f5b82811015614c8d5781518051875261ffff60208201511660208801526040810151614c6160408901826144fe565b5060608101519050614c766060880182614871565b506080959095019460209190910190600101614c33565b5093949350505050565b602081526001600160a01b0382511660208201525f602083015160606040840152614cc56080840182614c21565b90506040840151601f19848303016060850152614ce28282614c21565b95945050505050565b5f60208284031215614cfb575f5ffd5b5051919050565b5f60208284031215614d12575f5ffd5b613887826145a7565b5f60208284031215614d2b575f5ffd5b613887826145b5565b634e487b7160e01b5f52601260045260245ffd5b634e487b7160e01b5f52601160045260245ffd5b5f82614d6a57614d6a614d34565b500490565b80820180821115612bd057612bd0614d48565b600a811061450e5761450e6144ea565b64ffffffffff85168152602081018490526001600160a01b038316604082015260808101614ce26060830184614d82565b8082028115828204841417612bd057612bd0614d48565b5f5f8335601e19843603018112614def575f5ffd5b83018035915067ffffffffffffffff821115614e09575f5ffd5b602001915036819003821315614e1d575f5ffd5b9250929050565b81835281816020850137505f828201602090810191909152601f909101601f19169091010190565b604081525f614e5f604083018688614e24565b8281036020840152614e72818587614e24565b979650505050505050565b81810381811115612bd057612bd0614d48565b64ffffffffff818116838216029081169081811461386c5761386c614d48565b5f60018201614ec157614ec1614d48565b5060010190565b64ffffffffff8181168382160190811115612bd057612bd0614d48565b634e487b7160e01b5f52603260045260245ffd5b81358155602082013560018201556040820135600282015560608201356003820155600481016080830135614f2d8161469a565b815490151560ff1660ff19919091161790555050565b5f82518060208501845e5f920191825250919050565b5f81518084528060208401602086015e5f602082860101526020601f19601f83011685010191505092915050565b60a081525f614f9960a0830188614f59565b8281036020840152614fab8188614f59565b90508281036040840152614fbf8187614f59565b90508281036060840152614fd38186614f59565b90508281036080840152614fe78185614f59565b98975050505050505050565b60ff8281168282160390811115612bd057612bd0614d48565b6001815b60018411156150475780850481111561502b5761502b614d48565b600184161561503957908102905b60019390931c928002615010565b935093915050565b5f8261505d57506001612bd0565b8161506957505f612bd0565b816001811461507f5760028114615089576150a5565b6001915050612bd0565b60ff84111561509a5761509a614d48565b50506001821b612bd0565b5060208310610133831016604e8410600b84101617156150c8575081810a612bd0565b6150d45f19848461500c565b805f19048211156150e7576150e7614d48565b029392505050565b5f61388760ff84168361504f565b5f64ffffffffff83168061511357615113614d34565b8064ffffffffff84160491505092915050565b8082018281125f83128015821682158216171561514557615145614d48565b505092915050565b8082025f8212600160ff1b8414161561516857615168614d48565b8181058314821517612bd057612bd0614d48565b5f8261518a5761518a614d34565b600160ff1b82145f19841416156151a3576151a3614d48565b500590565b8181035f83128015838313168383128216171561386c5761386c614d48565b634e487b7160e01b5f52603160045260245ffd5b5f826151e9576151e9614d34565b50069056feca6b824caf1a48ea2ad039dbb063460fa30e9c3cc255eeb52240d638ec6de65ea2646970667358221220a62145922f2388a1541d4535d3eeda4ba166a7311b8499e358e798d71458526464736f6c634300081c0033",
  "linkReferences": {},
  "deployedLinkReferences": {}
}