{
  "_format": "hh-sol-artifact-1",
  "contractName": "ClockTowerSubscribe",
  "sourceName": "contracts/ClockTowerSubscribe.sol",
  "abi": [
    {
      "inputs": [
        {
          "internalType": "uint256",
          "name": "callerFee_",
          "type": "uint256"
        },
        {
          "internalType": "uint256",
          "name": "systemFee_",
          "type": "uint256"
        },
        {
          "internalType": "uint256",
          "name": "maxRemits_",
          "type": "uint256"
        },
        {
          "internalType": "bool",
          "name": "allowSystemFee_",
          "type": "bool"
        },
        {
          "internalType": "address",
          "name": "admin_",
          "type": "address"
        }
      ],
      "stateMutability": "nonpayable",
      "type": "constructor"
    },
    {
      "inputs": [
        {
          "internalType": "address",
          "name": "owner",
          "type": "address"
        }
      ],
      "name": "OwnableInvalidOwner",
      "type": "error"
    },
    {
      "inputs": [
        {
          "internalType": "address",
          "name": "account",
          "type": "address"
        }
      ],
      "name": "OwnableUnauthorizedAccount",
      "type": "error"
    },
    {
      "inputs": [
        {
          "internalType": "address",
          "name": "token",
          "type": "address"
        }
      ],
      "name": "SafeERC20FailedOperation",
      "type": "error"
    },
    {
      "anonymous": false,
      "inputs": [
        {
          "indexed": true,
          "internalType": "uint40",
          "name": "timestamp",
          "type": "uint40"
        },
        {
          "indexed": true,
          "internalType": "uint40",
          "name": "checkedDay",
          "type": "uint40"
        },
        {
          "indexed": true,
          "internalType": "address",
          "name": "caller",
          "type": "address"
        },
        {
          "indexed": false,
          "internalType": "bool",
          "name": "isFinished",
          "type": "bool"
        }
      ],
      "name": "CallerLog",
      "type": "event"
    },
    {
      "anonymous": false,
      "inputs": [
        {
          "indexed": true,
          "internalType": "bytes32",
          "name": "id",
          "type": "bytes32"
        },
        {
          "indexed": false,
          "internalType": "uint256",
          "name": "subscriberIndex",
          "type": "uint256"
        },
        {
          "indexed": false,
          "internalType": "uint256",
          "name": "subscriptionIndex",
          "type": "uint256"
        },
        {
          "indexed": false,
          "internalType": "uint256",
          "name": "frequency",
          "type": "uint256"
        },
        {
          "indexed": true,
          "internalType": "uint40",
          "name": "nextUncheckedDay",
          "type": "uint40"
        }
      ],
      "name": "Coordinates",
      "type": "event"
    },
    {
      "anonymous": false,
      "inputs": [
        {
          "indexed": true,
          "internalType": "bytes32",
          "name": "id",
          "type": "bytes32"
        },
        {
          "indexed": true,
          "internalType": "address",
          "name": "provider",
          "type": "address"
        },
        {
          "indexed": true,
          "internalType": "uint40",
          "name": "timestamp",
          "type": "uint40"
        },
        {
          "indexed": false,
          "internalType": "string",
          "name": "url",
          "type": "string"
        },
        {
          "indexed": false,
          "internalType": "string",
          "name": "description",
          "type": "string"
        }
      ],
      "name": "DetailsLog",
      "type": "event"
    },
    {
      "anonymous": false,
      "inputs": [
        {
          "indexed": true,
          "internalType": "address",
          "name": "previousOwner",
          "type": "address"
        },
        {
          "indexed": true,
          "internalType": "address",
          "name": "newOwner",
          "type": "address"
        }
      ],
      "name": "OwnershipTransferStarted",
      "type": "event"
    },
    {
      "anonymous": false,
      "inputs": [
        {
          "indexed": true,
          "internalType": "address",
          "name": "previousOwner",
          "type": "address"
        },
        {
          "indexed": true,
          "internalType": "address",
          "name": "newOwner",
          "type": "address"
        }
      ],
      "name": "OwnershipTransferred",
      "type": "event"
    },
    {
      "anonymous": false,
      "inputs": [
        {
          "indexed": true,
          "internalType": "address",
          "name": "provider",
          "type": "address"
        },
        {
          "indexed": true,
          "internalType": "uint40",
          "name": "timestamp",
          "type": "uint40"
        },
        {
          "indexed": true,
          "internalType": "string",
          "name": "description",
          "type": "string"
        },
        {
          "indexed": false,
          "internalType": "string",
          "name": "company",
          "type": "string"
        },
        {
          "indexed": false,
          "internalType": "string",
          "name": "url",
          "type": "string"
        },
        {
          "indexed": false,
          "internalType": "string",
          "name": "domain",
          "type": "string"
        },
        {
          "indexed": false,
          "internalType": "string",
          "name": "email",
          "type": "string"
        },
        {
          "indexed": false,
          "internalType": "string",
          "name": "misc",
          "type": "string"
        }
      ],
      "name": "ProvDetailsLog",
      "type": "event"
    },
    {
      "anonymous": false,
      "inputs": [
        {
          "indexed": true,
          "internalType": "bytes32",
          "name": "id",
          "type": "bytes32"
        },
        {
          "indexed": true,
          "internalType": "address",
          "name": "provider",
          "type": "address"
        },
        {
          "indexed": true,
          "internalType": "address",
          "name": "subscriber",
          "type": "address"
        },
        {
          "indexed": false,
          "internalType": "uint40",
          "name": "timestamp",
          "type": "uint40"
        },
        {
          "indexed": false,
          "internalType": "uint256",
          "name": "amount",
          "type": "uint256"
        },
        {
          "indexed": false,
          "internalType": "address",
          "name": "token",
          "type": "address"
        },
        {
          "indexed": false,
          "internalType": "enum ClockTowerSubscribe.SubscriptEvent",
          "name": "subScriptEvent",
          "type": "uint8"
        }
      ],
      "name": "SubLog",
      "type": "event"
    },
    {
      "inputs": [],
      "name": "acceptOwnership",
      "outputs": [],
      "stateMutability": "nonpayable",
      "type": "function"
    },
    {
      "inputs": [
        {
          "internalType": "address",
          "name": "erc20Contract",
          "type": "address"
        },
        {
          "internalType": "uint256",
          "name": "minimum",
          "type": "uint256"
        },
        {
          "internalType": "uint8",
          "name": "decimals",
          "type": "uint8"
        }
      ],
      "name": "addERC20Contract",
      "outputs": [],
      "stateMutability": "nonpayable",
      "type": "function"
    },
    {
      "inputs": [
        {
          "internalType": "address",
          "name": "",
          "type": "address"
        }
      ],
      "name": "approvedERC20",
      "outputs": [
        {
          "internalType": "address",
          "name": "tokenAddress",
          "type": "address"
        },
        {
          "internalType": "uint8",
          "name": "decimals",
          "type": "uint8"
        },
        {
          "internalType": "bool",
          "name": "paused",
          "type": "bool"
        },
        {
          "internalType": "uint256",
          "name": "minimum",
          "type": "uint256"
        }
      ],
      "stateMutability": "view",
      "type": "function"
    },
    {
      "inputs": [],
      "name": "callerFee",
      "outputs": [
        {
          "internalType": "uint256",
          "name": "",
          "type": "uint256"
        }
      ],
      "stateMutability": "view",
      "type": "function"
    },
    {
      "inputs": [
        {
          "components": [
            {
              "internalType": "bytes32",
              "name": "id",
              "type": "bytes32"
            },
            {
              "internalType": "uint256",
              "name": "amount",
              "type": "uint256"
            },
            {
              "internalType": "address",
              "name": "provider",
              "type": "address"
            },
            {
              "internalType": "address",
              "name": "token",
              "type": "address"
            },
            {
              "internalType": "bool",
              "name": "cancelled",
              "type": "bool"
            },
            {
              "internalType": "enum ClockTowerSubscribe.Frequency",
              "name": "frequency",
              "type": "uint8"
            },
            {
              "internalType": "uint16",
              "name": "dueDay",
              "type": "uint16"
            }
          ],
          "internalType": "struct ClockTowerSubscribe.Subscription",
          "name": "subscription",
          "type": "tuple"
        }
      ],
      "name": "cancelSubscription",
      "outputs": [],
      "stateMutability": "nonpayable",
      "type": "function"
    },
    {
      "inputs": [
        {
          "internalType": "uint256",
          "name": "_fee",
          "type": "uint256"
        }
      ],
      "name": "changeCallerFee",
      "outputs": [],
      "stateMutability": "nonpayable",
      "type": "function"
    },
    {
      "inputs": [
        {
          "internalType": "uint256",
          "name": "_maxRemits",
          "type": "uint256"
        }
      ],
      "name": "changeMaxRemits",
      "outputs": [],
      "stateMutability": "nonpayable",
      "type": "function"
    },
    {
      "inputs": [
        {
          "internalType": "address",
          "name": "newSysFeeAddress",
          "type": "address"
        }
      ],
      "name": "changeSysFeeReceiver",
      "outputs": [],
      "stateMutability": "nonpayable",
      "type": "function"
    },
    {
      "inputs": [
        {
          "internalType": "uint256",
          "name": "_sys_fee",
          "type": "uint256"
        }
      ],
      "name": "changeSystemFee",
      "outputs": [],
      "stateMutability": "nonpayable",
      "type": "function"
    },
    {
      "inputs": [
        {
          "internalType": "uint256",
          "name": "amount",
          "type": "uint256"
        },
        {
          "internalType": "address",
          "name": "token",
          "type": "address"
        },
        {
          "components": [
            {
              "internalType": "string",
              "name": "url",
              "type": "string"
            },
            {
              "internalType": "string",
              "name": "description",
              "type": "string"
            }
          ],
          "internalType": "struct ClockTowerSubscribe.Details",
          "name": "details",
          "type": "tuple"
        },
        {
          "internalType": "enum ClockTowerSubscribe.Frequency",
          "name": "frequency",
          "type": "uint8"
        },
        {
          "internalType": "uint16",
          "name": "dueDay",
          "type": "uint16"
        }
      ],
      "name": "createSubscription",
      "outputs": [],
      "stateMutability": "nonpayable",
      "type": "function"
    },
    {
      "inputs": [
        {
          "components": [
            {
              "internalType": "string",
              "name": "url",
              "type": "string"
            },
            {
              "internalType": "string",
              "name": "description",
              "type": "string"
            }
          ],
          "internalType": "struct ClockTowerSubscribe.Details",
          "name": "details",
          "type": "tuple"
        },
        {
          "internalType": "bytes32",
          "name": "id",
          "type": "bytes32"
        }
      ],
      "name": "editDetails",
      "outputs": [],
      "stateMutability": "nonpayable",
      "type": "function"
    },
    {
      "inputs": [
        {
          "components": [
            {
              "internalType": "string",
              "name": "description",
              "type": "string"
            },
            {
              "internalType": "string",
              "name": "company",
              "type": "string"
            },
            {
              "internalType": "string",
              "name": "url",
              "type": "string"
            },
            {
              "internalType": "string",
              "name": "domain",
              "type": "string"
            },
            {
              "internalType": "string",
              "name": "email",
              "type": "string"
            },
            {
              "internalType": "string",
              "name": "misc",
              "type": "string"
            }
          ],
          "internalType": "struct ClockTowerSubscribe.ProviderDetails",
          "name": "details",
          "type": "tuple"
        }
      ],
      "name": "editProvDetails",
      "outputs": [],
      "stateMutability": "nonpayable",
      "type": "function"
    },
    {
      "inputs": [
        {
          "internalType": "bytes32",
          "name": "",
          "type": "bytes32"
        },
        {
          "internalType": "address",
          "name": "",
          "type": "address"
        }
      ],
      "name": "feeBalance",
      "outputs": [
        {
          "internalType": "uint256",
          "name": "",
          "type": "uint256"
        }
      ],
      "stateMutability": "view",
      "type": "function"
    },
    {
      "inputs": [],
      "name": "feeEstimate",
      "outputs": [
        {
          "components": [
            {
              "internalType": "uint256",
              "name": "fee",
              "type": "uint256"
            },
            {
              "internalType": "address",
              "name": "token",
              "type": "address"
            }
          ],
          "internalType": "struct ClockTowerSubscribe.FeeEstimate[]",
          "name": "",
          "type": "tuple[]"
        }
      ],
      "stateMutability": "view",
      "type": "function"
    },
    {
      "inputs": [
        {
          "internalType": "address",
          "name": "account",
          "type": "address"
        }
      ],
      "name": "getAccount",
      "outputs": [
        {
          "components": [
            {
              "internalType": "address",
              "name": "accountAddress",
              "type": "address"
            },
            {
              "components": [
                {
                  "internalType": "bytes32",
                  "name": "id",
                  "type": "bytes32"
                },
                {
                  "internalType": "uint16",
                  "name": "dueDay",
                  "type": "uint16"
                },
                {
                  "internalType": "enum ClockTowerSubscribe.Frequency",
                  "name": "frequency",
                  "type": "uint8"
                },
                {
                  "internalType": "enum ClockTowerSubscribe.Status",
                  "name": "status",
                  "type": "uint8"
                }
              ],
              "internalType": "struct ClockTowerSubscribe.SubIndex[]",
              "name": "subscriptions",
              "type": "tuple[]"
            },
            {
              "components": [
                {
                  "internalType": "bytes32",
                  "name": "id",
                  "type": "bytes32"
                },
                {
                  "internalType": "uint16",
                  "name": "dueDay",
                  "type": "uint16"
                },
                {
                  "internalType": "enum ClockTowerSubscribe.Frequency",
                  "name": "frequency",
                  "type": "uint8"
                },
                {
                  "internalType": "enum ClockTowerSubscribe.Status",
                  "name": "status",
                  "type": "uint8"
                }
              ],
              "internalType": "struct ClockTowerSubscribe.SubIndex[]",
              "name": "provSubs",
              "type": "tuple[]"
            }
          ],
          "internalType": "struct ClockTowerSubscribe.Account",
          "name": "",
          "type": "tuple"
        }
      ],
      "stateMutability": "view",
      "type": "function"
    },
    {
      "inputs": [
        {
          "internalType": "bool",
          "name": "bySubscriber",
          "type": "bool"
        },
        {
          "internalType": "address",
          "name": "account",
          "type": "address"
        }
      ],
      "name": "getAccountSubscriptions",
      "outputs": [
        {
          "components": [
            {
              "components": [
                {
                  "internalType": "bytes32",
                  "name": "id",
                  "type": "bytes32"
                },
                {
                  "internalType": "uint256",
                  "name": "amount",
                  "type": "uint256"
                },
                {
                  "internalType": "address",
                  "name": "provider",
                  "type": "address"
                },
                {
                  "internalType": "address",
                  "name": "token",
                  "type": "address"
                },
                {
                  "internalType": "bool",
                  "name": "cancelled",
                  "type": "bool"
                },
                {
                  "internalType": "enum ClockTowerSubscribe.Frequency",
                  "name": "frequency",
                  "type": "uint8"
                },
                {
                  "internalType": "uint16",
                  "name": "dueDay",
                  "type": "uint16"
                }
              ],
              "internalType": "struct ClockTowerSubscribe.Subscription",
              "name": "subscription",
              "type": "tuple"
            },
            {
              "internalType": "enum ClockTowerSubscribe.Status",
              "name": "status",
              "type": "uint8"
            },
            {
              "internalType": "uint256",
              "name": "totalSubscribers",
              "type": "uint256"
            }
          ],
          "internalType": "struct ClockTowerSubscribe.SubView[]",
          "name": "",
          "type": "tuple[]"
        }
      ],
      "stateMutability": "view",
      "type": "function"
    },
    {
      "inputs": [
        {
          "internalType": "bytes32",
          "name": "id",
          "type": "bytes32"
        }
      ],
      "name": "getSubscribersById",
      "outputs": [
        {
          "components": [
            {
              "internalType": "address",
              "name": "subscriber",
              "type": "address"
            },
            {
              "internalType": "uint256",
              "name": "feeBalance",
              "type": "uint256"
            }
          ],
          "internalType": "struct ClockTowerSubscribe.SubscriberView[]",
          "name": "",
          "type": "tuple[]"
        }
      ],
      "stateMutability": "view",
      "type": "function"
    },
    {
      "inputs": [],
      "name": "getTotalSubscribers",
      "outputs": [
        {
          "internalType": "uint256",
          "name": "",
          "type": "uint256"
        }
      ],
      "stateMutability": "view",
      "type": "function"
    },
    {
      "inputs": [
        {
          "internalType": "bytes32",
          "name": "",
          "type": "bytes32"
        }
      ],
      "name": "idSubMap",
      "outputs": [
        {
          "internalType": "bytes32",
          "name": "id",
          "type": "bytes32"
        },
        {
          "internalType": "uint256",
          "name": "amount",
          "type": "uint256"
        },
        {
          "internalType": "address",
          "name": "provider",
          "type": "address"
        },
        {
          "internalType": "address",
          "name": "token",
          "type": "address"
        },
        {
          "internalType": "bool",
          "name": "cancelled",
          "type": "bool"
        },
        {
          "internalType": "enum ClockTowerSubscribe.Frequency",
          "name": "frequency",
          "type": "uint8"
        },
        {
          "internalType": "uint16",
          "name": "dueDay",
          "type": "uint16"
        }
      ],
      "stateMutability": "view",
      "type": "function"
    },
    {
      "inputs": [],
      "name": "maxRemits",
      "outputs": [
        {
          "internalType": "uint256",
          "name": "",
          "type": "uint256"
        }
      ],
      "stateMutability": "view",
      "type": "function"
    },
    {
      "inputs": [],
      "name": "nextUncheckedDay",
      "outputs": [
        {
          "internalType": "uint40",
          "name": "",
          "type": "uint40"
        }
      ],
      "stateMutability": "view",
      "type": "function"
    },
    {
      "inputs": [],
      "name": "owner",
      "outputs": [
        {
          "internalType": "address",
          "name": "",
          "type": "address"
        }
      ],
      "stateMutability": "view",
      "type": "function"
    },
    {
      "inputs": [
        {
          "internalType": "address",
          "name": "_tokenAddress",
          "type": "address"
        },
        {
          "internalType": "bool",
          "name": "pause",
          "type": "bool"
        }
      ],
      "name": "pauseToken",
      "outputs": [],
      "stateMutability": "nonpayable",
      "type": "function"
    },
    {
      "inputs": [],
      "name": "pendingOwner",
      "outputs": [
        {
          "internalType": "address",
          "name": "",
          "type": "address"
        }
      ],
      "stateMutability": "view",
      "type": "function"
    },
    {
      "inputs": [],
      "name": "remit",
      "outputs": [],
      "stateMutability": "nonpayable",
      "type": "function"
    },
    {
      "inputs": [],
      "name": "renounceOwnership",
      "outputs": [],
      "stateMutability": "nonpayable",
      "type": "function"
    },
    {
      "inputs": [
        {
          "internalType": "uint40",
          "name": "_nextUncheckedDay",
          "type": "uint40"
        }
      ],
      "name": "setNextUncheckedDay",
      "outputs": [],
      "stateMutability": "nonpayable",
      "type": "function"
    },
    {
      "inputs": [
        {
          "components": [
            {
              "internalType": "bytes32",
              "name": "id",
              "type": "bytes32"
            },
            {
              "internalType": "uint256",
              "name": "subscriberIndex",
              "type": "uint256"
            },
            {
              "internalType": "uint256",
              "name": "subscriptionIndex",
              "type": "uint256"
            },
            {
              "internalType": "uint256",
              "name": "frequency",
              "type": "uint256"
            },
            {
              "internalType": "bool",
              "name": "initialized",
              "type": "bool"
            }
          ],
          "internalType": "struct ClockTowerSubscribe.PageStart",
          "name": "_pageStart",
          "type": "tuple"
        }
      ],
      "name": "setPageStart",
      "outputs": [],
      "stateMutability": "nonpayable",
      "type": "function"
    },
    {
      "inputs": [
        {
          "components": [
            {
              "internalType": "bytes32",
              "name": "id",
              "type": "bytes32"
            },
            {
              "internalType": "uint256",
              "name": "amount",
              "type": "uint256"
            },
            {
              "internalType": "address",
              "name": "provider",
              "type": "address"
            },
            {
              "internalType": "address",
              "name": "token",
              "type": "address"
            },
            {
              "internalType": "bool",
              "name": "cancelled",
              "type": "bool"
            },
            {
              "internalType": "enum ClockTowerSubscribe.Frequency",
              "name": "frequency",
              "type": "uint8"
            },
            {
              "internalType": "uint16",
              "name": "dueDay",
              "type": "uint16"
            }
          ],
          "internalType": "struct ClockTowerSubscribe.Subscription",
          "name": "subscription",
          "type": "tuple"
        }
      ],
      "name": "subscribe",
      "outputs": [],
      "stateMutability": "nonpayable",
      "type": "function"
    },
    {
      "inputs": [],
      "name": "systemFee",
      "outputs": [
        {
          "internalType": "uint256",
          "name": "",
          "type": "uint256"
        }
      ],
      "stateMutability": "view",
      "type": "function"
    },
    {
      "inputs": [
        {
          "internalType": "bool",
          "name": "status",
          "type": "bool"
        }
      ],
      "name": "systemFeeActivate",
      "outputs": [],
      "stateMutability": "nonpayable",
      "type": "function"
    },
    {
      "inputs": [
        {
          "internalType": "address",
          "name": "newOwner",
          "type": "address"
        }
      ],
      "name": "transferOwnership",
      "outputs": [],
      "stateMutability": "nonpayable",
      "type": "function"
    },
    {
      "inputs": [
        {
          "components": [
            {
              "internalType": "bytes32",
              "name": "id",
              "type": "bytes32"
            },
            {
              "internalType": "uint256",
              "name": "amount",
              "type": "uint256"
            },
            {
              "internalType": "address",
              "name": "provider",
              "type": "address"
            },
            {
              "internalType": "address",
              "name": "token",
              "type": "address"
            },
            {
              "internalType": "bool",
              "name": "cancelled",
              "type": "bool"
            },
            {
              "internalType": "enum ClockTowerSubscribe.Frequency",
              "name": "frequency",
              "type": "uint8"
            },
            {
              "internalType": "uint16",
              "name": "dueDay",
              "type": "uint16"
            }
          ],
          "internalType": "struct ClockTowerSubscribe.Subscription",
          "name": "subscription",
          "type": "tuple"
        }
      ],
      "name": "unsubscribe",
      "outputs": [],
      "stateMutability": "nonpayable",
      "type": "function"
    },
    {
      "inputs": [
        {
          "components": [
            {
              "internalType": "bytes32",
              "name": "id",
              "type": "bytes32"
            },
            {
              "internalType": "uint256",
              "name": "amount",
              "type": "uint256"
            },
            {
              "internalType": "address",
              "name": "provider",
              "type": "address"
            },
            {
              "internalType": "address",
              "name": "token",
              "type": "address"
            },
            {
              "internalType": "bool",
              "name": "cancelled",
              "type": "bool"
            },
            {
              "internalType": "enum ClockTowerSubscribe.Frequency",
              "name": "frequency",
              "type": "uint8"
            },
            {
              "internalType": "uint16",
              "name": "dueDay",
              "type": "uint16"
            }
          ],
          "internalType": "struct ClockTowerSubscribe.Subscription",
          "name": "subscription",
          "type": "tuple"
        },
        {
          "internalType": "address",
          "name": "subscriber",
          "type": "address"
        }
      ],
      "name": "unsubscribeByProvider",
      "outputs": [],
      "stateMutability": "nonpayable",
      "type": "function"
    }
  ],
  "bytecode": "0x608060405234801561000f575f5ffd5b5060405161534838038061534883398101604081905261002e916101bc565b806001600160a01b03811661005c57604051631e4fbdf760e01b81525f600482015260240160405180910390fd5b6100658161013d565b506001600160a01b038116610078575f5ffd5b612710851015801561008c5750612a518511155b610094575f5ffd5b61271084101580156100a85750614e1f8411155b6100b0575f5ffd5b600285815560038590556004849055600a805460ff60d01b1916600160d01b851515021790556100df42610159565b6100e99190610220565b600a80546001600160a01b03909316660100000000000002600160301b600160d01b031964ffffffffff939093166101000292909216610100600160d01b0319909316929092171790555061027e92505050565b600180546001600160a01b03191690556101568161016d565b50565b5f6101676201518083610249565b92915050565b5f80546001600160a01b038381166001600160a01b0319831681178455604051919092169283917f8be0079c531659141344cd1fd0a4f28419497f9722a3daafe3b4186f6b6457e09190a35050565b5f5f5f5f5f60a086880312156101d0575f5ffd5b8551602087015160408801516060890151929750909550935080151581146101f6575f5ffd5b60808701519092506001600160a01b0381168114610212575f5ffd5b809150509295509295909350565b64ffffffffff828116828216039081111561016757634e487b7160e01b5f52601160045260245ffd5b5f64ffffffffff83168061026b57634e487b7160e01b5f52601260045260245ffd5b8064ffffffffff84160491505092915050565b6150bd8061028b5f395ff3fe608060405234801561000f575f5ffd5b50600436106101fc575f3560e01c806386525a0011610114578063d10f9e69116100a9578063e63d35be11610079578063e63d35be14610504578063ebec6eaa14610519578063ed601d2814610543578063f2fde38b14610556578063fbcbc0f114610569575f5ffd5b8063d10f9e69146104a1578063d57ade5a146104b4578063da854a96146104c7578063e30c3978146104f3575f5ffd5b8063ac2b4e63116100e4578063ac2b4e6314610404578063b25ae32c14610417578063bd7438861461041f578063cab1c96514610498575f5ffd5b806386525a001461039a5780638da5cb5b146103ba5780638ef0ef1c146103de5780639889552e146103f1575f5ffd5b80634a1268b8116101955780637507ba39116101655780637507ba391461034457806379ba50971461034c5780637b7c5f17146103545780637bbf5a6e146103675780637ee1bfb914610387575f5ffd5b80634a1268b814610303578063598bff3514610316578063668c1e8a14610329578063715018a61461033c575f5ffd5b806312c99cf5116101d057806312c99cf5146102bd5780631f17ee55146102d057806327ea9773146102e757806334d441d0146102fa575f5ffd5b8062b7097714610200578063038c9c0e146102825780630b8590c7146102975780630bec99e8146102aa575b5f5ffd5b61026661020e36600461434c565b60146020525f90815260409020805460018201546002830154600390930154919290916001600160a01b039182169181169060ff600160a01b8204811691600160a81b81049091169061ffff600160b01b9091041687565b604051610279979695949392919061438b565b60405180910390f35b6102956102903660046143db565b610589565b005b6102956102a536600461443f565b610b4c565b6102956102b836600461434c565b610fbd565b6102956102cb3660046145a5565b610fca565b6102d960035481565b604051908152602001610279565b6102956102f536600461434c565b611118565b6102d960025481565b6102956103113660046145bf565b611125565b610295610324366004614601565b61121e565b6102956103373660046143db565b61141f565b610295611775565b610295611788565b6102956124fe565b610295610362366004614634565b612542565b61037a61037536600461434c565b61256e565b6040516102799190614658565b6102956103953660046146af565b6126ad565b6103ad6103a83660046146c0565b6126c7565b60405161027991906146fa565b5f546001600160a01b03165b6040516001600160a01b039091168152602001610279565b6102956103ec36600461434c565b612a4e565b6102956103ff3660046147b4565b612a5b565b6102956104123660046147cf565b612a81565b6102d9612b03565b61046661042d3660046147cf565b60176020525f9081526040902080546001909101546001600160a01b0382169160ff600160a01b8204811692600160a81b909204169084565b604080516001600160a01b03909516855260ff9093166020850152901515918301919091526060820152608001610279565b6102d960045481565b6102956104af3660046147e8565b612b13565b6102956104c236600461482a565b612bc9565b600a546104dd90610100900464ffffffffff1681565b60405164ffffffffff9091168152602001610279565b6001546001600160a01b03166103c6565b61050c612c72565b604051610279919061485f565b6102d96105273660046148ab565b601160209081525f928352604080842090915290825290205481565b610295610551366004614957565b6130ce565b6102956105643660046147cf565b61314d565b61057c6105773660046147cf565b6131bd565b6040516102799190614b10565b610593813561364c565b6105c85760405162461bcd60e51b81526020600482015260016024820152603360f81b60448201526064015b60405180910390fd5b5f61060c60208301356017836105e460808701606088016147cf565b6001600160a01b0316815260208101919091526040015f2054600160a01b900460ff1661367e565b90508061061f60808401606085016147cf565b604051636eb1769f60e11b81523360048201523060248201526001600160a01b03919091169063dd62ed3e90604401602060405180830381865afa158015610669573d5f5f3e3d5ffd5b505050506040513d601f19601f8201168201806040525081019061068d9190614b64565b101580156107125750806106a760808401606085016147cf565b6040516370a0823160e01b81523360048201526001600160a01b0391909116906370a0823190602401602060405180830381865afa1580156106eb573d5f5f3e3d5ffd5b505050506040513d601f19601f8201168201806040525081019061070f9190614b64565b10155b6107435760405162461bcd60e51b8152602060048201526002602482015261031360f41b60448201526064016105bf565b61075360608301604084016147cf565b6001600160a01b0316330361078e5760405162461bcd60e51b81526020600482015260016024820152600360fc1b60448201526064016105bf565b81355f9081526013602052604090206107a790336136f0565b6107c65781355f9081526013602052604090206107c49033613714565b505b81355f9081526015602052604090206107df90336136f0565b156107ff5781355f9081526015602052604090206107fd9033613728565b505b60408051608081019091528235815261085e906020810161082660e0860160c08701614b7b565b61ffff16815260200161083f60c0860160a08701614b94565b600381111561085057610850614363565b81526020015f90525f61373c565b602082013560018061087660c0860160a08701614b94565b600381111561088757610887614363565b14806108b257505f61089f60c0860160a08701614b94565b60038111156108b0576108b0614363565b145b156108fd576108f6426108cb60e0870160c08801614b7b565b61ffff16846108e060c0890160a08a01614b94565b60038111156108f1576108f1614363565b6137da565b91506109a1565b600261090f60c0860160a08701614b94565b600381111561092057610920614363565b0361095157610939426108cb60e0870160c08801614b7b565b9150610946600383614bd5565b9150600290506109a1565b600361096360c0860160a08701614b94565b600381111561097457610974614363565b036109a15761098d426108cb60e0870160c08801614b7b565b915061099a600c83614bd5565b9150600b90505b83355f908152601160209081526040808320338452909152812080548492906109cb908490614be8565b909155503390506109e260608601604087016147cf565b6001600160a01b031685355f5160206150685f395f51905f52426020890135610a1160808b0160608c016147cf565b6006604051610a239493929190614c0b565b60405180910390a433610a3c60608601604087016147cf565b6001600160a01b031685355f5160206150685f395f51905f524286610a6760808b0160608c016147cf565b6008604051610a799493929190614c0b565b60405180910390a4610abe3330610a9d8560175f6105e460808c0160608d016147cf565b610aad6080890160608a016147cf565b6001600160a01b0316929190613a1e565b6002610ad060c0860160a08701614b94565b6003811115610ae157610ae1614363565b1480610b0d57506003610afa60c0860160a08701614b94565b6003811115610b0b57610b0b614363565b145b15610b4657610b4633610b2660608701604088016147cf565b610a9d610b338587614c3c565b60175f6105e460808c0160608d016147cf565b50505050565b6001600160a01b038416610b865760405162461bcd60e51b81526020600482015260016024820152600d60fa1b60448201526064016105bf565b6001600160a01b038085165f9081526017602052604090205416610bd05760405162461bcd60e51b81526020600482015260016024820152603560f81b60448201526064016105bf565b5f826003811115610be357610be3614363565b03610c31578061ffff165f108015610c00575060078161ffff1611155b610c315760405162461bcd60e51b81526020600482015260026024820152610c4d60f21b60448201526064016105bf565b6001826003811115610c4557610c45614363565b03610c93578061ffff165f108015610c625750601c8161ffff1611155b610c935760405162461bcd60e51b8152602060048201526002602482015261313560f01b60448201526064016105bf565b6002826003811115610ca757610ca7614363565b03610cf5578061ffff165f108015610cc45750605a8161ffff1611155b610cf55760405162461bcd60e51b8152602060048201526002602482015261189b60f11b60448201526064016105bf565b6003826003811115610d0957610d09614363565b03610d58578061ffff165f108015610d27575061016d8161ffff1611155b610d585760405162461bcd60e51b8152602060048201526002602482015261313760f01b60448201526064016105bf565b6001600160a01b0384165f90815260176020526040902060010154851015610da75760405162461bcd60e51b8152602060048201526002602482015261062760f31b60448201526064016105bf565b5f610db486868585613a9a565b9050610df8815f015160125f866003811115610dd257610dd2614363565b815260208082019290925260409081015f90812061ffff88168252909252902090613b9e565b50610e436040518060800160405280835f015181526020018360c0015161ffff1681526020018360a001516003811115610e3457610e34614363565b81526020015f9052600161373c565b80515f9081526014602090815260409182902083518155908301516001820155908201516002820180546001600160a01b039283166001600160a01b031990911617905560608301516003808401805460808701511515600160a01b0274ffffffffffffffffffffffffffffffffffffffffff1990911693909416929092179290921780825560a085015185949390929160ff60a81b191690600160a81b908490811115610ef357610ef3614363565b021790555060c091909101516003909101805461ffff909216600160b01b0261ffff60b01b19909216919091179055805164ffffffffff42169033907f93cda0785d40b289a535b99dc76d4c9cbb6d8146182861ac3ad40509398b1865610f5a8880614c53565b610f6760208b018b614c53565b604051610f779493929190614cc5565b60405180910390a4805160608201516040515f92339290915f5160206150685f395f51905f5291610fad9142918d918890614c0b565b60405180910390a4505050505050565b610fc5613ba9565b600355565b335f818152600d60209081526040808320855184529091529020805460ff191660021790558151610ffa91613bd5565b336001600160a01b031681604001516001600160a01b0316825f01515f5160206150685f395f51905f52428560200151866060015160076040516110419493929190614c0b565b60405180910390a480515f9081526011602081815260408084203380865290835281852054865186529383528185208186529092528084209390935582840151845160608601519451939492936001600160a01b039092169290915f5160206150685f395f51905f52916110bb9142918891600490614c0b565b60405180910390a460408281015160608401516001600160a01b03165f9081526017602052919091205461111491906110ff908490600160a01b900460ff1661367e565b60608501516001600160a01b03169190613c07565b5050565b611120613ba9565b600455565b61112d613ba9565b6001600160a01b03831661113f575f5ffd5b6001600160a01b038084165f90815260176020526040902054161561118a5760405162461bcd60e51b81526020600482015260016024820152603160f81b60448201526064016105bf565b604080516080810182526001600160a01b0394851680825260ff93841660208084019182525f8486018181526060860198895293815260179091529390932091518254935191511515600160a81b0260ff60a81b1992909516600160a01b0274ffffffffffffffffffffffffffffffffffffffffff1990941696169590951791909117939093161782555160019190910155565b8151335f908152600c60205260408120909161123a9190613c38565b15611243575060015b806112745760405162461bcd60e51b81526020600482015260016024820152600760fb1b60448201526064016105bf565b82515f90815260136020526040812061128d90846136f0565b156112c457506001600160a01b0382165f908152600d60209081526040808320865184529091529020805460ff1916600217905560015b806112f55760405162461bcd60e51b81526020600482015260016024820152603960f81b60448201526064016105bf565b83516113019084613bd5565b826001600160a01b031684604001516001600160a01b0316855f01515f5160206150685f395f51905f52428860200151896060015160076040516113489493929190614c0b565b60405180910390a483515f9081526011602081815260408084206001600160a01b03808916808752918452828620548a5187529484528286208287529093528185209490945580880151885160608a015192519495949190931692915f5160206150685f395f51905f52916113c4914291889190600990614c0b565b60405180910390a460608501516001600160a01b03165f90815260176020526040902054611418908590611403908490600160a01b900460ff1661367e565b60608801516001600160a01b03169190613c07565b5050505050565b611429813561364c565b6114595760405162461bcd60e51b81526020600482015260016024820152603360f81b60448201526064016105bf565b61146960608201604083016147cf565b6001600160a01b0316336001600160a01b0316146114ae5760405162461bcd60e51b8152602060048201526002602482015261313360f01b60448201526064016105bf565b335f908152600e60209081526040808320843584528252808320805460ff1916600117905560139091528120905b82355f9081526013602052604090206114f490613c4f565b81101561162d575f6115068383613c58565b84355f9081526011602090815260408083206001600160a01b038516808552925291829020549293509061154090606088019088016147cf565b6001600160a01b031686355f5160206150685f395f51905f52428561156b60808c0160608d016147cf565b600960405161157d9493929190614c0b565b60405180910390a484355f9081526011602090815260408083206001600160a01b038616845290915281208190556115ea9083906115ca9084906017906105e460808c0160608d016147cf565b6115da6080890160608a016147cf565b6001600160a01b03169190613c07565b6001600160a01b0382165f908152600d6020908152604080832088358085529252909120805460ff191660011790556116239083613bd5565b50506001016114dc565b505f61169160128261164560c0870160a08801614b94565b600381111561165657611656614363565b81526020019081526020015f205f8560c00160208101906116779190614b7b565b61ffff1661ffff1681526020019081526020015f20613c4f565b90505f5b8181101561173157611700843560125f6116b560c0890160a08a01614b94565b60038111156116c6576116c6614363565b81526020019081526020015f205f8760c00160208101906116e79190614b7b565b61ffff16815260208101919091526040015f2090613c38565b156117295783355f908152601460205260409020600301805460ff60a01b1916600160a01b1790555b600101611695565b505f3384355f5160206150685f395f51905f52428461175660808a0160608b016147cf565b60016040516117689493929190614c0b565b60405180910390a4505050565b61177d613ba9565b6117865f613c63565b565b60ff5f5c16156117bf5760405162461bcd60e51b8152602060048201526002602482015261313960f01b60448201526064016105bf565b60015f805c60ff19168217905d505f6117d742613c7c565b600a5490915064ffffffffff610100909104811690821610156118205760405162461bcd60e51b81526020600482015260016024820152601b60f91b60448201526064016105bf565b6040805160c0810182525f80825260208201819052918101829052606081018290526080810182905260a0810191909152600190600a5464ffffffffff848116610100909204161461189f57600a546118989061188c90610100900464ffffffffff1662015180614cf6565b64ffffffffff16613c8a565b90506118ab565b6118a842613c8a565b90505b5f5f5b600381116124135760095460ff1615806118d7575060085481108015906118d7575060095460ff165b15612401575f816118e9575060208301515b600182036118f5575082515b60028203611904575060408301515b60038203611913575060608301515b5f82815260126020908152604080832061ffff85168452909152812061193890613c4f565b90505f5b818110156123fd5760095460ff16158061196557506007548110801590611965575060095460ff165b156123f5575f84815260126020908152604080832061ffff87168452909152812060149082906119959085613c58565b815260208082019290925260409081015f20815160e0810183528154815260018201549381019390935260028101546001600160a01b0390811692840192909252600380820154928316606085015260ff600160a01b8404811615156080860152919260a0850192600160a81b9091041690811115611a1657611a16614363565b6003811115611a2757611a27614363565b815260039190910154600160b01b900461ffff1660209091015260808101515f9950909150158015611a7c575060608101516001600160a01b03165f90815260176020526040902054600160a81b900460ff16155b156123f3576040805160a08101825282518152606080840180516001600160a01b03908116602080860191909152868601518216858701529151165f9081526017825293842054600160a01b900460ff1691830182905260808301899052840151919291611ae99161367e565b90505f8161271060025484611afe9190614c3c565b611b089190614bd5565b611b129190614d16565b83515f908152601360205260408120919250908190611b3090613c4f565b90505f8115611b4757611b44600183614d16565b90505b5f5b828110156123eb576004548d03611cc0576040805160a0810182528851808252602082018490529181018b9052606081018e905260016080909101819052600591909155600682905560078a905560088d90556009805460ff199081169092179055600a805490911690819055600160d01b900460ff1615611c38575f8461271060035487611bd89190614c3c565b611be29190614bd5565b611bec9190614d16565b9050611bf88186614d16565b9450611c36600a60069054906101000a90046001600160a01b0316611c21838b6060015161367e565b60208b01516001600160a01b03169190613c07565b505b611c5f33611c4a868a6060015161367e565b60208a01516001600160a01b03169190613c07565b600a546040515f81523391610100900464ffffffffff9081169142909116907f90192d7875364a53e351ae63fd2dfef8dc941735b29fb0c504d06a0e21ae602e9060200160405180910390a4505050505050505050505050505050506124f2565b6005548751148015611cd3575060065481145b15611ce657600a805460ff191660011790555b60095460ff161580611cff5750600a5460ff1615156001145b156123e35786515f908152601360205260408120611d1d9083613c58565b88515f908152601560205260409020909150611d3990826136f0565b15611d4457506123e3565b6020880151604051636eb1769f60e11b81526001600160a01b0383811660048301523060248301528992169063dd62ed3e90604401602060405180830381865afa158015611d94573d5f5f3e3d5ffd5b505050506040513d601f19601f82011682018060405250810190611db89190614b64565b10158015611e32575060208801516040516370a0823160e01b81526001600160a01b038381166004830152899216906370a0823190602401602060405180830381865afa158015611e0b573d5f5f3e3d5ffd5b505050506040513d601f19601f82011682018060405250810190611e2f9190614b64565b10155b15612146578d611e4181614d29565b89515f9081526011602090815260408083206001600160a01b0387168452909152902054909f508710159050611fd757611e7b8686614be8565b88515f9081526011602090815260408083206001600160a01b0386168452909152812080549297508892909190611eb3908490614d16565b92505081905550806001600160a01b031688604001516001600160a01b0316895f01515f5160206150685f395f51905f52428b8d602001516005604051611efd9493929190614c0b565b60405180910390a4806001600160a01b031688604001516001600160a01b0316895f01515f5160206150685f395f51905f52425f8d602001516002604051611f489493929190614c0b565b60405180910390a4600a54885160808a015160408051868152602081018f90529081019190915261010090920464ffffffffff16917f0c0097fff4bc1b26a833fef6928d7dec93a2ed4a665c3588c6a3270e0e7e38749060600160405180910390a3611fd2818960400151898b602001516001600160a01b0316613a1e909392919063ffffffff16565b61234c565b87515f9081526011602090815260408083206001600160a01b03851684529091529020546120059086614be8565b88515f9081526011602090815260408083206001600160a01b0380871680865291845282852094909455818d01518d51938e01519251959a5090949316925f5160206150685f395f51905f52916120629142918e91600890614c0b565b60405180910390a486600160028f900361208c57612081600383614bd5565b9150600290506120a6565b8e6003036120a65761209f600c83614bd5565b9150600b90505b89515f9081526011602090815260408083206001600160a01b0387168452909152812080548492906120d9908490614be8565b9250508190555061210983306120f3858e6060015161367e565b60208e01516001600160a01b0316929190613a1e565b8e6002148061211857508e6003145b1561213f5761213f838b604001516120f384866121359190614c3c565b8e6060015161367e565b505061234c565b8d61215081614d29565b89515f9081526011602090815260408083206001600160a01b0387168452909152902054909f50871015905061224f5761218a8686614be8565b88515f9081526011602090815260408083206001600160a01b0386168452909152812054919650906121bd908890614d16565b89515f9081526011602090815260408083206001600160a01b0380881680865291845282852094909455818e01518e51938f0151925195965090949316925f5160206150685f395f51905f529161221a9142918891600490614c0b565b60405180910390a461224d8960400151612238838c6060015161367e565b60208c01516001600160a01b03169190613c07565b505b875161225b9082613bd5565b806001600160a01b031688604001516001600160a01b0316895f01515f5160206150685f395f51905f52428b8d60200151600760405161229e9493929190614c0b565b60405180910390a4806001600160a01b031688604001516001600160a01b0316895f01515f5160206150685f395f51905f52425f8d6020015160036040516122e99493929190614c0b565b60405180910390a4600a54885160808a015160408051868152602081018f90529081019190915261010090920464ffffffffff16917f0c0097fff4bc1b26a833fef6928d7dec93a2ed4a665c3588c6a3270e0e7e38749060600160405180910390a35b828214801561235a57505f84115b156123e157600a54600160d01b900460ff16156123cf575f85612710600354886123849190614c3c565b61238e9190614bd5565b6123989190614d16565b90506123a48187614d16565b95506123cd600a60069054906101000a90046001600160a01b0316612238838c6060015161367e565b505b6123e133611c21878b6060015161367e565b505b600101611b49565b505050505050505b505b60010161193c565b5050505b8061240b81614d29565b9150506118ae565b505f6005819055600681905560078190556008556009805460ff19908116909155600a805490911690819055604051600181523391610100900464ffffffffff9081169142909116907f90192d7875364a53e351ae63fd2dfef8dc941735b29fb0c504d06a0e21ae602e9060200160405180910390a46001600a60018282829054906101000a900464ffffffffff166124ac9190614d41565b92506101000a81548164ffffffffff021916908364ffffffffff16021790555082156124ed575f60ff19815c16815d506124e4611788565b505050506124f2565b505050505b5f60ff19815c16815d50565b60015433906001600160a01b031681146125365760405163118cdaa760e01b81526001600160a01b03821660048201526024016105bf565b61253f81613c63565b50565b61254a613ba9565b600a805464ffffffffff9092166101000265ffffffffff0019909216919091179055565b5f8181526013602052604081206060919061258890613c4f565b90505f8167ffffffffffffffff8111156125a4576125a46144b3565b6040519080825280602002602001820160405280156125e857816020015b604080518082019091525f80825260208201528152602001906001900390816125c25790505b5090505f5b828110156126a5575f8581526011602090815260408083206013909252822082906126189085613c58565b6001600160a01b03166001600160a01b031681526020019081526020015f205490505f60405180604001604052806126698560135f8c81526020019081526020015f20613c5890919063ffffffff16565b6001600160a01b031681526020018381525090508084848151811061269057612690614d5e565b602090810291909101015250506001016125ed565b509392505050565b6126b5613ba9565b8060056126c28282614d72565b505050565b60608083156126f7576001600160a01b0383165f908152600b602052604090206126f090613f19565b905061271a565b6001600160a01b0383165f908152600c6020526040902061271790613f19565b90505b5f815167ffffffffffffffff811115612735576127356144b3565b6040519080825280602002602001820160405280156127b157816020015b60408051610140810182525f606082018181526080830182905260a0830182905260c0830182905260e0830182905261010083018290526101208301829052825260208083018290529282015282525f199092019101816127535790505b5090505f5b8251811015612a4357851561285f576001600160a01b0385165f908152600d6020526040812084519091908590849081106127f3576127f3614d5e565b602002602001015181526020019081526020015f205f9054906101000a900460ff1682828151811061282757612827614d5e565b602002602001015160200190600281111561284457612844614363565b9081600281111561285757612857614363565b9052506128f5565b6001600160a01b0385165f908152600e60205260408120845190919085908490811061288d5761288d614d5e565b602002602001015181526020019081526020015f205f9054906101000a900460ff168282815181106128c1576128c1614d5e565b60200260200101516020019060028111156128de576128de614363565b908160028111156128f1576128f1614363565b9052505b60145f84838151811061290a5761290a614d5e565b60209081029190910181015182528181019290925260409081015f20815160e0810183528154815260018201549381019390935260028101546001600160a01b0390811692840192909252600380820154928316606085015260ff600160a01b8404811615156080860152919260a0850192600160a81b909104169081111561299557612995614363565b60038111156129a6576129a6614363565b815260039190910154600160b01b900461ffff1660209091015282518390839081106129d4576129d4614d5e565b60200260200101515f0181905250612a1a60135f8484815181106129fa576129fa614d5e565b60200260200101515f01515f015181526020019081526020015f20613c4f565b828281518110612a2c57612a2c614d5e565b6020908102919091010151604001526001016127b6565b509150505b92915050565b612a56613ba9565b600255565b612a63613ba9565b600a8054911515600160d01b0260ff60d01b19909216919091179055565b612a89613ba9565b6001600160a01b038116612a9b575f5ffd5b600a546001600160a01b036601000000000000909104811690821603612abf575f5ffd5b600a80546001600160a01b039092166601000000000000027fffffffffffff0000000000000000000000000000000000000000ffffffffffff909216919091179055565b5f612b0e600f613c4f565b905090565b5f612b1d336131bd565b80519091506001600160a01b0316156126c2575f5b816040015151811015610b46578282604001518281518110612b5657612b56614d5e565b60200260200101515f015103612bc15764ffffffffff421633847f93cda0785d40b289a535b99dc76d4c9cbb6d8146182861ac3ad40509398b1865612b9b8880614c53565b612ba860208b018b614c53565b604051612bb89493929190614cc5565b60405180910390a45b600101612b32565b612bd1613ba9565b6001600160a01b038281165f9081526017602052604090205416612bf3575f5ffd5b80612c46576001600160a01b0382165f90815260176020526040902054600160a81b900460ff16612c22575f5ffd5b506001600160a01b03165f908152601760205260409020805460ff60a81b19169055565b6001600160a01b0382165f908152601760205260409020805460ff60a81b1916600160a81b1790555050565b60605f612c7e42613c7c565b600a5490915064ffffffffff610100909104811690821611612cc65760405162461bcd60e51b81526020600482015260016024820152601b60f91b60448201526064016105bf565b5f612cd042613c8a565b90505f5f5f60045467ffffffffffffffff811115612cf057612cf06144b3565b604051908082528060200260200182016040528015612d3457816020015b604080518082019091525f8082526020820152815260200190600190039081612d0e5790505b5090505f5b60038111612fc4575f81612d4e575060208501515b60018203612d5a575084515b60028203612d69575060408501515b60038203612d78575060608501515b5f5b5f83815260126020908152604080832061ffff861684529091529020612d9f90613c4f565b811015612faf575f83815260126020908152604080832061ffff8616845290915281206014908290612dd19085613c58565b815260208082019290925260409081015f20815160e0810183528154815260018201549381019390935260028101546001600160a01b0390811692840192909252600380820154928316606085015260ff600160a01b8404811615156080860152919260a0850192600160a81b9091041690811115612e5257612e52614363565b6003811115612e6357612e63614363565b815260039190910154600160b01b900461ffff166020909101526080810151909150612fa6576060810151602080830151604080518082019091525f80825292810192909252905f8261271060025485612ebd9190614c3c565b612ec79190614bd5565b612ed19190614d16565b90505f5f5b86515f908152601360205260409020612eee90613c4f565b811015612f9f576004548d03612f125750989e9d5050505050505050505050505050565b60095460ff161580612f2b5750600a5460ff1615156001145b15612f97578c612f3a81614d29565b9d50612f4890508383614be8565b91506040518060400160405280838152602001876001600160a01b03168152509350838b8d81518110612f7d57612f7d614d5e565b60200260200101819052508b80612f9390614d29565b9c50505b600101612ed6565b5050505050505b50600101612d7a565b50508080612fbc90614d29565b915050612d39565b505f5f5b8251811015613017575f6001600160a01b0316838281518110612fed57612fed614d5e565b6020026020010151602001516001600160a01b03160361300f57809150613017565b600101612fc8565b505f8167ffffffffffffffff811115613032576130326144b3565b60405190808252806020026020018201604052801561307657816020015b604080518082019091525f80825260208201528152602001906001900390816130505790505b5090505f5b828110156130c25783818151811061309557613095614d5e565b60200260200101518282815181106130af576130af614d5e565b602090810291909101015260010161307b565b50979650505050505050565b80516040516130dd9190614dbc565b60405180910390204264ffffffffff16336001600160a01b03167f34f43abf7a52b609b04511ed963a29ebb76ae3e0ca0ff5594be1c2a84ebd03f284602001518560400151866060015187608001518860a00151604051613142959493929190614e00565b60405180910390a450565b613155613ba9565b600180546001600160a01b0383166001600160a01b031990911681179091556131855f546001600160a01b031690565b6001600160a01b03167f38d16b8cac22d99fc7c124b9cd0de2d3fa1faef420bfe791d8c362d765e2270060405160405180910390a350565b6131e960405180606001604052805f6001600160a01b0316815260200160608152602001606081525090565b6001600160a01b0382165f908152600b6020526040812061320990613c4f565b6001600160a01b0384165f908152600c602052604081209192509061322d90613c4f565b90505f8267ffffffffffffffff811115613249576132496144b3565b6040519080825280602002602001820160405280156132a257816020015b61328f604080516080810182525f80825260208201819052909182019081526020015f905290565b8152602001906001900390816132675790505b5090505f5b83811015613427576001600160a01b0386165f908152600b602052604081206132d09083613c58565b5f818152601460209081526040808320815160e0810183528154815260018201549381019390935260028101546001600160a01b0390811692840192909252600380820154928316606085015260ff600160a01b840481161515608086015295965093949293909260a0850192600160a81b9004169081111561335557613355614363565b600381111561336657613366614363565b81526020016003820160169054906101000a900461ffff1661ffff1661ffff1681525050905060405180608001604052808381526020018260c0015161ffff1681526020018260a0015160038111156133c1576133c1614363565b81526001600160a01b038a165f908152600d6020908152604080832087845282529091205491019060ff1660028111156133fd576133fd614363565b81525084848151811061341257613412614d5e565b602090810291909101015250506001016132a7565b505f8367ffffffffffffffff811115613442576134426144b3565b60405190808252806020026020018201604052801561349b57816020015b613488604080516080810182525f80825260208201819052909182019081526020015f905290565b8152602001906001900390816134605790505b5090505f5b83811015613620576001600160a01b0387165f908152600c602052604081206134c99083613c58565b5f818152601460209081526040808320815160e0810183528154815260018201549381019390935260028101546001600160a01b0390811692840192909252600380820154928316606085015260ff600160a01b840481161515608086015295965093949293909260a0850192600160a81b9004169081111561354e5761354e614363565b600381111561355f5761355f614363565b81526020016003820160169054906101000a900461ffff1661ffff1661ffff1681525050905060405180608001604052808381526020018260c0015161ffff1681526020018260a0015160038111156135ba576135ba614363565b81526001600160a01b038b165f908152600e6020908152604080832087845282529091205491019060ff1660028111156135f6576135f6614363565b81525084848151811061360b5761360b614d5e565b602090810291909101015250506001016134a0565b50604080516060810182526001600160a01b039097168752602087019290925290850152509192915050565b5f818152601460205260408120600201546001600160a01b031661367157505f919050565b506001919050565b919050565b5f601260ff83168110156136b3576136968184614e6c565b6136a190600a614f68565b6136ab9085614c3c565b915050612a48565b8060ff168360ff1610156136e0576136cb8382614e6c565b6136d690600a614f68565b6136ab9085614bd5565b83915050612a48565b5092915050565b6001600160a01b0381165f90815260018301602052604081205415155b9392505050565b5f61370d836001600160a01b038416613f25565b5f61370d836001600160a01b038416613f71565b613747600f336136f0565b61375857613756600f33613714565b505b801561379c578151335f908152600c6020526040902061377791613b9e565b5050335f908152600e602090815260408083209351835292905220805460ff19169055565b8151335f908152600b602052604090206137b591613b9e565b5050335f908152600d602090815260408083209351835292905220805460ff19169055565b5f5f6137e586613c8a565b90505f5f5f8560ff165f0361380857836020015161ffff1692506007915061388f565b8560ff1660010361383f5761382d846080015161ffff168560a0015161ffff16614054565b845161ffff169350915081905061388f565b8560ff1660020361387357613864846060015161ffff16856080015161ffff166140d9565b61ffff169250605a915061388f565b8560ff1660030361388f57836060015161ffff16925061016d91505b8560ff16600103613949575f61016d6138a989600c614c3c565b6138b39190614bd5565b9050838964ffffffffff16141580156138d257508864ffffffffff1684115b15613903576138e864ffffffffff8a1685614d16565b6138f29084614d16565b6138fc9082614c3c565b9750613943565b838964ffffffffff161415801561392057508864ffffffffff1684105b15613943576139368464ffffffffff8b16614d16565b6139409082614c3c565b97505b50613a11565b60ff8616158061395c57508560ff166002145b8061396a57508560ff166003145b15613a1157828864ffffffffff161415801561398c57508764ffffffffff1683115b156139c7576139a264ffffffffff891684614d16565b6139ac9083614d16565b6139b68389614bd5565b6139c09190614c3c565b9650613a11565b828864ffffffffff16141580156139e457508764ffffffffff1683105b15613a11576139fa8364ffffffffff8a16614d16565b613a048389614bd5565b613a0e9190614c3c565b96505b5094979650505050505050565b6040516001600160a01b038481166024830152838116604483015260648201839052610b469186918216906323b872dd906084015b604051602081830303815290604052915060e01b6020820180517bffffffffffffffffffffffffffffffffffffffffffffffffffffffff83818316178352505050506141a3565b6040805160e0810182525f8082526020808301829052828401829052606083018290526080830182905260a0830182905260c083018290523382526016905291822080549192829190613aec83614d29565b90915550506040516bffffffffffffffffffffffff193360601b166020820152603481018290524260548201525f906074016040516020818303038152906040528051906020012090506040518060e00160405280828152602001888152602001336001600160a01b03168152602001876001600160a01b031681526020015f15158152602001866003811115613b8557613b85614363565b81526020018561ffff1681525092505050949350505050565b5f61370d8383613f25565b5f546001600160a01b031633146117865760405163118cdaa760e01b81523360048201526024016105bf565b5f828152601560205260409020613bec90826136f0565b611114575f8281526015602052604090206126c29082613714565b6040516001600160a01b038381166024830152604482018390526126c291859182169063a9059cbb90606401613a53565b5f818152600183016020526040812054151561370d565b5f612a48825490565b5f61370d838361420f565b600180546001600160a01b031916905561253f81614235565b5f612a486201518083614f76565b6040805160c0810182525f80825260208201819052918101829052606081018290526080810182905260a0810182905290613cc86201518084614bd5565b90505f808281613cdb8262010bd9614f9f565b613ce89062253d8c614f9f565b90505f62023ab1613cfa836004614fc6565b613d049190614ff5565b90506004613d158262023ab1614fc6565b613d20906003614f9f565b613d2a9190614ff5565b613d349083615021565b91505f62164b09613d46846001614f9f565b613d5290610fa0614fc6565b613d5c9190614ff5565b90506004613d6c826105b5614fc6565b613d769190614ff5565b613d809084615021565b613d8b90601f614f9f565b92505f61098f613d9c856050614fc6565b613da69190614ff5565b90505f6050613db78361098f614fc6565b613dc19190614ff5565b613dcb9086615021565b9050613dd8600b83614ff5565b9450613de585600c614fc6565b613df0836002614f9f565b613dfa9190615021565b91508483613e09603187615021565b613e14906064614fc6565b613e1e9190614f9f565b613e289190614f9f565b9097509150868282825f60015b838111613e8157838103613e5857613e5161ffff8e1683614be8565b9150613e6f565b613e628582614054565b613e6c9083614be8565b91505b80613e7981614d29565b915050613e35565b50809a50613e938b61ffff16856140d9565b61ffff1660408f0152613ea58f614284565b8e6020019061ffff16908161ffff16815250508b8e5f019061ffff16908161ffff16815250508a8e6060019061ffff16908161ffff1681525050838e6080019061ffff16908161ffff1681525050828e60a0019061ffff16908161ffff168152505050505050505050505050505050919050565b60605f61370d836142b8565b5f818152600183016020526040812054613f6a57508154600181810184555f848152602080822090930184905584548482528286019093526040902091909155612a48565b505f612a48565b5f818152600183016020526040812054801561404b575f613f93600183614d16565b85549091505f90613fa690600190614d16565b9050808214614005575f865f018281548110613fc457613fc4614d5e565b905f5260205f200154905080875f018481548110613fe457613fe4614d5e565b5f918252602080832090910192909255918252600188019052604090208390555b855486908061401657614016615040565b600190038181905f5260205f20015f90559055856001015f8681526020019081526020015f205f905560019350505050612a48565b5f915050612a48565b5f81600114806140645750816003145b8061406f5750816005145b8061407a5750816007145b806140855750816008145b80614090575081600a145b8061409b575081600c145b156140a85750601f612a48565b816002146140b85750601e612a48565b6140c183614311565b6140cc57601c6140cf565b601d5b60ff169392505050565b5f5f6140e483614311565b156140f1575060016140f4565b505f5b6140ff81605a614be8565b841161410d578391506136e9565b8361411982605a614be8565b108015614130575061412c8160b5614be8565b8411155b156141515761414081605a614be8565b61414a9085614d16565b91506136e9565b8361415d8260b5614be8565b108015614175575061417181610111614be8565b8411155b15614185576141408160b5614be8565b61419181610111614be8565b61419b9085614d16565b949350505050565b5f5f60205f8451602086015f885af1806141c2576040513d5f823e3d81fd5b50505f513d915081156141d95780600114156141e6565b6001600160a01b0384163b155b15610b4657604051635274afe760e01b81526001600160a01b03851660048201526024016105bf565b5f825f01828154811061422457614224614d5e565b905f5260205f200154905092915050565b5f80546001600160a01b038381166001600160a01b0319831681178455604051919092169283917f8be0079c531659141344cd1fd0a4f28419497f9722a3daafe3b4186f6b6457e09190a35050565b5f806142936201518084614bd5565b90505f60076142a3836003614be8565b6142ad9190615054565b61419b906001614be8565b6060815f0180548060200260200160405190810160405280929190818152602001828054801561430557602002820191905f5260205f20905b8154815260200190600101908083116142f1575b50505050509050919050565b5f61431d600483615054565b1580156143335750614330606483615054565b15155b80612a48575061434561019083615054565b1592915050565b5f6020828403121561435c575f5ffd5b5035919050565b634e487b7160e01b5f52602160045260245ffd5b6004811061438757614387614363565b9052565b878152602081018790526001600160a01b03868116604083015285166060820152831515608082015260e081016143c560a0830185614377565b61ffff831660c083015298975050505050505050565b5f60e08284031280156143ec575f5ffd5b509092915050565b80356001600160a01b0381168114613679575f5ffd5b5f6040828403121561441a575f5ffd5b50919050565b803560048110613679575f5ffd5b803561ffff81168114613679575f5ffd5b5f5f5f5f5f60a08688031215614453575f5ffd5b85359450614463602087016143f4565b9350604086013567ffffffffffffffff81111561447e575f5ffd5b61448a8882890161440a565b93505061449960608701614420565b91506144a76080870161442e565b90509295509295909350565b634e487b7160e01b5f52604160045260245ffd5b60405160e0810167ffffffffffffffff811182821017156144ea576144ea6144b3565b60405290565b60405160c0810167ffffffffffffffff811182821017156144ea576144ea6144b3565b801515811461253f575f5ffd5b5f60e08284031215614530575f5ffd5b6145386144c7565b82358152602080840135908201529050614554604083016143f4565b6040820152614565606083016143f4565b6060820152608082013561457881614513565b608082015261458960a08301614420565b60a082015261459a60c0830161442e565b60c082015292915050565b5f60e082840312156145b5575f5ffd5b61370d8383614520565b5f5f5f606084860312156145d1575f5ffd5b6145da846143f4565b925060208401359150604084013560ff811681146145f6575f5ffd5b809150509250925092565b5f5f6101008385031215614613575f5ffd5b61461d8484614520565b915061462b60e084016143f4565b90509250929050565b5f60208284031215614644575f5ffd5b813564ffffffffff8116811461370d575f5ffd5b602080825282518282018190525f918401906040840190835b818110156146a457835180516001600160a01b031684526020908101518185015290930192604090920191600101614671565b509095945050505050565b5f60a08284031280156143ec575f5ffd5b5f5f604083850312156146d1575f5ffd5b82356146dc81614513565b915061462b602084016143f4565b6003811061438757614387614363565b602080825282518282018190525f918401906040840190835b818110156146a4578351805180518552602081015160208601526001600160a01b0360408201511660408601526001600160a01b03606082015116606086015260808101511515608086015260a081015161477160a0870182614377565b5061ffff60c08201511660c086015250602081015161479360e08601826146ea565b50604001516101008401526020939093019261012090920191600101614713565b5f602082840312156147c4575f5ffd5b813561370d81614513565b5f602082840312156147df575f5ffd5b61370d826143f4565b5f5f604083850312156147f9575f5ffd5b823567ffffffffffffffff81111561480f575f5ffd5b61481b8582860161440a565b95602094909401359450505050565b5f5f6040838503121561483b575f5ffd5b614844836143f4565b9150602083013561485481614513565b809150509250929050565b602080825282518282018190525f918401906040840190835b818110156146a4578351805184526020908101516001600160a01b03168185015290930192604090920191600101614878565b5f5f604083850312156148bc575f5ffd5b8235915061462b602084016143f4565b5f82601f8301126148db575f5ffd5b813567ffffffffffffffff8111156148f5576148f56144b3565b604051601f8201601f19908116603f0116810167ffffffffffffffff81118282101715614924576149246144b3565b60405281815283820160200185101561493b575f5ffd5b816020850160208301375f918101602001919091529392505050565b5f60208284031215614967575f5ffd5b813567ffffffffffffffff81111561497d575f5ffd5b820160c0818503121561498e575f5ffd5b6149966144f0565b813567ffffffffffffffff8111156149ac575f5ffd5b6149b8868285016148cc565b825250602082013567ffffffffffffffff8111156149d4575f5ffd5b6149e0868285016148cc565b602083015250604082013567ffffffffffffffff8111156149ff575f5ffd5b614a0b868285016148cc565b604083015250606082013567ffffffffffffffff811115614a2a575f5ffd5b614a36868285016148cc565b606083015250608082013567ffffffffffffffff811115614a55575f5ffd5b614a61868285016148cc565b60808301525060a082013567ffffffffffffffff811115614a80575f5ffd5b614a8c868285016148cc565b60a083015250949350505050565b5f8151808452602084019350602083015f5b82811015614b065781518051875261ffff60208201511660208801526040810151614ada6040890182614377565b5060608101519050614aef60608801826146ea565b506080959095019460209190910190600101614aac565b5093949350505050565b602081526001600160a01b0382511660208201525f602083015160606040840152614b3e6080840182614a9a565b90506040840151601f19848303016060850152614b5b8282614a9a565b95945050505050565b5f60208284031215614b74575f5ffd5b5051919050565b5f60208284031215614b8b575f5ffd5b61370d8261442e565b5f60208284031215614ba4575f5ffd5b61370d82614420565b634e487b7160e01b5f52601260045260245ffd5b634e487b7160e01b5f52601160045260245ffd5b5f82614be357614be3614bad565b500490565b80820180821115612a4857612a48614bc1565b600a811061438757614387614363565b64ffffffffff85168152602081018490526001600160a01b038316604082015260808101614b5b6060830184614bfb565b8082028115828204841417612a4857612a48614bc1565b5f5f8335601e19843603018112614c68575f5ffd5b83018035915067ffffffffffffffff821115614c82575f5ffd5b602001915036819003821315614c96575f5ffd5b9250929050565b81835281816020850137505f828201602090810191909152601f909101601f19169091010190565b604081525f614cd8604083018688614c9d565b8281036020840152614ceb818587614c9d565b979650505050505050565b64ffffffffff81811683821602908116908181146136e9576136e9614bc1565b81810381811115612a4857612a48614bc1565b5f60018201614d3a57614d3a614bc1565b5060010190565b64ffffffffff8181168382160190811115612a4857612a48614bc1565b634e487b7160e01b5f52603260045260245ffd5b81358155602082013560018201556040820135600282015560608201356003820155600481016080830135614da681614513565b815490151560ff1660ff19919091161790555050565b5f82518060208501845e5f920191825250919050565b5f81518084528060208401602086015e5f602082860101526020601f19601f83011685010191505092915050565b60a081525f614e1260a0830188614dd2565b8281036020840152614e248188614dd2565b90508281036040840152614e388187614dd2565b90508281036060840152614e4c8186614dd2565b90508281036080840152614e608185614dd2565b98975050505050505050565b60ff8281168282160390811115612a4857612a48614bc1565b6001815b6001841115614ec057808504811115614ea457614ea4614bc1565b6001841615614eb257908102905b60019390931c928002614e89565b935093915050565b5f82614ed657506001612a48565b81614ee257505f612a48565b8160018114614ef85760028114614f0257614f1e565b6001915050612a48565b60ff841115614f1357614f13614bc1565b50506001821b612a48565b5060208310610133831016604e8410600b8410161715614f41575081810a612a48565b614f4d5f198484614e85565b805f1904821115614f6057614f60614bc1565b029392505050565b5f61370d60ff841683614ec8565b5f64ffffffffff831680614f8c57614f8c614bad565b8064ffffffffff84160491505092915050565b8082018281125f831280158216821582161715614fbe57614fbe614bc1565b505092915050565b8082025f8212600160ff1b84141615614fe157614fe1614bc1565b8181058314821517612a4857612a48614bc1565b5f8261500357615003614bad565b600160ff1b82145f198414161561501c5761501c614bc1565b500590565b8181035f8312801583831316838312821617156136e9576136e9614bc1565b634e487b7160e01b5f52603160045260245ffd5b5f8261506257615062614bad565b50069056feca6b824caf1a48ea2ad039dbb063460fa30e9c3cc255eeb52240d638ec6de65ea26469706673582212201b44528e93bb109016357fd87e32c2002ac64e0bb71d9744bab3f85daef9e4d764736f6c634300081c0033",
  "linkReferences": {},
  "deployedLinkReferences": {}
}