{
  "_format": "hh-sol-artifact-1",
  "contractName": "ClockTowerSubscribe",
  "sourceName": "contracts/ClockTowerSubscribe.sol",
  "abi": [
    {
      "inputs": [],
      "stateMutability": "payable",
      "type": "constructor"
    },
    {
      "anonymous": false,
      "inputs": [
        {
          "indexed": false,
          "internalType": "uint40",
          "name": "timestamp",
          "type": "uint40"
        },
        {
          "indexed": false,
          "internalType": "uint40",
          "name": "checkedDay",
          "type": "uint40"
        },
        {
          "indexed": true,
          "internalType": "address",
          "name": "caller",
          "type": "address"
        },
        {
          "indexed": false,
          "internalType": "bool",
          "name": "isFinished",
          "type": "bool"
        }
      ],
      "name": "CallerLog",
      "type": "event"
    },
    {
      "anonymous": false,
      "inputs": [
        {
          "indexed": true,
          "internalType": "bytes32",
          "name": "id",
          "type": "bytes32"
        },
        {
          "indexed": true,
          "internalType": "address",
          "name": "provider",
          "type": "address"
        },
        {
          "indexed": false,
          "internalType": "uint40",
          "name": "timestamp",
          "type": "uint40"
        },
        {
          "indexed": false,
          "internalType": "uint256",
          "name": "amount",
          "type": "uint256"
        },
        {
          "indexed": true,
          "internalType": "enum ClockTowerSubscribe.ProvEvent",
          "name": "provEvent",
          "type": "uint8"
        }
      ],
      "name": "ProviderLog",
      "type": "event"
    },
    {
      "anonymous": false,
      "inputs": [
        {
          "indexed": true,
          "internalType": "bytes32",
          "name": "id",
          "type": "bytes32"
        },
        {
          "indexed": true,
          "internalType": "address",
          "name": "subscriber",
          "type": "address"
        },
        {
          "indexed": false,
          "internalType": "uint40",
          "name": "timestamp",
          "type": "uint40"
        },
        {
          "indexed": false,
          "internalType": "uint256",
          "name": "amount",
          "type": "uint256"
        },
        {
          "indexed": true,
          "internalType": "enum ClockTowerSubscribe.SubEvent",
          "name": "subEvent",
          "type": "uint8"
        }
      ],
      "name": "SubscriberLog",
      "type": "event"
    },
    {
      "stateMutability": "payable",
      "type": "fallback"
    },
    {
      "inputs": [
        {
          "internalType": "address",
          "name": "erc20Contract",
          "type": "address"
        },
        {
          "internalType": "uint256",
          "name": "minimum",
          "type": "uint256"
        }
      ],
      "name": "addERC20Contract",
      "outputs": [],
      "stateMutability": "nonpayable",
      "type": "function"
    },
    {
      "inputs": [],
      "name": "admin",
      "outputs": [
        {
          "internalType": "address payable",
          "name": "",
          "type": "address"
        }
      ],
      "stateMutability": "view",
      "type": "function"
    },
    {
      "inputs": [],
      "name": "callerFee",
      "outputs": [
        {
          "internalType": "uint256",
          "name": "",
          "type": "uint256"
        }
      ],
      "stateMutability": "view",
      "type": "function"
    },
    {
      "inputs": [
        {
          "components": [
            {
              "internalType": "bytes32",
              "name": "id",
              "type": "bytes32"
            },
            {
              "internalType": "uint256",
              "name": "amount",
              "type": "uint256"
            },
            {
              "internalType": "address",
              "name": "provider",
              "type": "address"
            },
            {
              "internalType": "address",
              "name": "token",
              "type": "address"
            },
            {
              "internalType": "bool",
              "name": "exists",
              "type": "bool"
            },
            {
              "internalType": "bool",
              "name": "cancelled",
              "type": "bool"
            },
            {
              "internalType": "enum ClockTowerSubscribe.Frequency",
              "name": "frequency",
              "type": "uint8"
            },
            {
              "internalType": "uint16",
              "name": "dueDay",
              "type": "uint16"
            },
            {
              "internalType": "string",
              "name": "description",
              "type": "string"
            }
          ],
          "internalType": "struct ClockTowerSubscribe.Subscription",
          "name": "subscription",
          "type": "tuple"
        }
      ],
      "name": "cancelSubscription",
      "outputs": [],
      "stateMutability": "nonpayable",
      "type": "function"
    },
    {
      "inputs": [
        {
          "internalType": "address payable",
          "name": "newAddress",
          "type": "address"
        }
      ],
      "name": "changeAdmin",
      "outputs": [],
      "stateMutability": "nonpayable",
      "type": "function"
    },
    {
      "inputs": [
        {
          "internalType": "uint256",
          "name": "_fee",
          "type": "uint256"
        }
      ],
      "name": "changeCallerFee",
      "outputs": [],
      "stateMutability": "nonpayable",
      "type": "function"
    },
    {
      "inputs": [
        {
          "internalType": "uint256",
          "name": "_maxRemits",
          "type": "uint256"
        }
      ],
      "name": "changeMaxRemits",
      "outputs": [],
      "stateMutability": "nonpayable",
      "type": "function"
    },
    {
      "inputs": [
        {
          "internalType": "uint256",
          "name": "_fixed_fee",
          "type": "uint256"
        }
      ],
      "name": "changeSystemFee",
      "outputs": [],
      "stateMutability": "nonpayable",
      "type": "function"
    },
    {
      "inputs": [],
      "name": "collectFees",
      "outputs": [],
      "stateMutability": "nonpayable",
      "type": "function"
    },
    {
      "inputs": [
        {
          "internalType": "uint256",
          "name": "amount",
          "type": "uint256"
        },
        {
          "internalType": "address",
          "name": "token",
          "type": "address"
        },
        {
          "internalType": "string",
          "name": "description",
          "type": "string"
        },
        {
          "internalType": "enum ClockTowerSubscribe.Frequency",
          "name": "frequency",
          "type": "uint8"
        },
        {
          "internalType": "uint16",
          "name": "dueDay",
          "type": "uint16"
        }
      ],
      "name": "createSubscription",
      "outputs": [],
      "stateMutability": "payable",
      "type": "function"
    },
    {
      "inputs": [
        {
          "internalType": "bytes32",
          "name": "",
          "type": "bytes32"
        },
        {
          "internalType": "address",
          "name": "",
          "type": "address"
        }
      ],
      "name": "feeBalance",
      "outputs": [
        {
          "internalType": "uint256",
          "name": "",
          "type": "uint256"
        }
      ],
      "stateMutability": "view",
      "type": "function"
    },
    {
      "inputs": [],
      "name": "feeEstimate",
      "outputs": [
        {
          "components": [
            {
              "internalType": "uint256",
              "name": "fee",
              "type": "uint256"
            },
            {
              "internalType": "address",
              "name": "token",
              "type": "address"
            }
          ],
          "internalType": "struct ClockTowerSubscribe.FeeEstimate[]",
          "name": "",
          "type": "tuple[]"
        }
      ],
      "stateMutability": "view",
      "type": "function"
    },
    {
      "inputs": [
        {
          "internalType": "bool",
          "name": "bySubscriber",
          "type": "bool"
        }
      ],
      "name": "getAccountSubscriptions",
      "outputs": [
        {
          "components": [
            {
              "components": [
                {
                  "internalType": "bytes32",
                  "name": "id",
                  "type": "bytes32"
                },
                {
                  "internalType": "uint256",
                  "name": "amount",
                  "type": "uint256"
                },
                {
                  "internalType": "address",
                  "name": "provider",
                  "type": "address"
                },
                {
                  "internalType": "address",
                  "name": "token",
                  "type": "address"
                },
                {
                  "internalType": "bool",
                  "name": "exists",
                  "type": "bool"
                },
                {
                  "internalType": "bool",
                  "name": "cancelled",
                  "type": "bool"
                },
                {
                  "internalType": "enum ClockTowerSubscribe.Frequency",
                  "name": "frequency",
                  "type": "uint8"
                },
                {
                  "internalType": "uint16",
                  "name": "dueDay",
                  "type": "uint16"
                },
                {
                  "internalType": "string",
                  "name": "description",
                  "type": "string"
                }
              ],
              "internalType": "struct ClockTowerSubscribe.Subscription",
              "name": "subscription",
              "type": "tuple"
            },
            {
              "internalType": "enum ClockTowerSubscribe.Status",
              "name": "status",
              "type": "uint8"
            },
            {
              "internalType": "uint256",
              "name": "totalSubscribers",
              "type": "uint256"
            }
          ],
          "internalType": "struct ClockTowerSubscribe.SubView[]",
          "name": "",
          "type": "tuple[]"
        }
      ],
      "stateMutability": "view",
      "type": "function"
    },
    {
      "inputs": [],
      "name": "getAllAccounts",
      "outputs": [
        {
          "components": [
            {
              "internalType": "address",
              "name": "accountAddress",
              "type": "address"
            },
            {
              "internalType": "bool",
              "name": "exists",
              "type": "bool"
            },
            {
              "internalType": "uint40[]",
              "name": "timeTriggers",
              "type": "uint40[]"
            },
            {
              "components": [
                {
                  "internalType": "bytes32",
                  "name": "id",
                  "type": "bytes32"
                },
                {
                  "internalType": "uint16",
                  "name": "dueDay",
                  "type": "uint16"
                },
                {
                  "internalType": "enum ClockTowerSubscribe.Frequency",
                  "name": "frequency",
                  "type": "uint8"
                },
                {
                  "internalType": "enum ClockTowerSubscribe.Status",
                  "name": "status",
                  "type": "uint8"
                }
              ],
              "internalType": "struct ClockTowerSubscribe.SubIndex[]",
              "name": "subscriptions",
              "type": "tuple[]"
            },
            {
              "components": [
                {
                  "internalType": "bytes32",
                  "name": "id",
                  "type": "bytes32"
                },
                {
                  "internalType": "uint16",
                  "name": "dueDay",
                  "type": "uint16"
                },
                {
                  "internalType": "enum ClockTowerSubscribe.Frequency",
                  "name": "frequency",
                  "type": "uint8"
                },
                {
                  "internalType": "enum ClockTowerSubscribe.Status",
                  "name": "status",
                  "type": "uint8"
                }
              ],
              "internalType": "struct ClockTowerSubscribe.SubIndex[]",
              "name": "provSubs",
              "type": "tuple[]"
            }
          ],
          "internalType": "struct ClockTowerSubscribe.Account[]",
          "name": "",
          "type": "tuple[]"
        }
      ],
      "stateMutability": "view",
      "type": "function"
    },
    {
      "inputs": [
        {
          "internalType": "bytes32",
          "name": "id",
          "type": "bytes32"
        },
        {
          "internalType": "enum ClockTowerSubscribe.Frequency",
          "name": "frequency",
          "type": "uint8"
        },
        {
          "internalType": "uint16",
          "name": "dueDay",
          "type": "uint16"
        }
      ],
      "name": "getSubByIndex",
      "outputs": [
        {
          "components": [
            {
              "internalType": "bytes32",
              "name": "id",
              "type": "bytes32"
            },
            {
              "internalType": "uint256",
              "name": "amount",
              "type": "uint256"
            },
            {
              "internalType": "address",
              "name": "provider",
              "type": "address"
            },
            {
              "internalType": "address",
              "name": "token",
              "type": "address"
            },
            {
              "internalType": "bool",
              "name": "exists",
              "type": "bool"
            },
            {
              "internalType": "bool",
              "name": "cancelled",
              "type": "bool"
            },
            {
              "internalType": "enum ClockTowerSubscribe.Frequency",
              "name": "frequency",
              "type": "uint8"
            },
            {
              "internalType": "uint16",
              "name": "dueDay",
              "type": "uint16"
            },
            {
              "internalType": "string",
              "name": "description",
              "type": "string"
            }
          ],
          "internalType": "struct ClockTowerSubscribe.Subscription",
          "name": "subscription",
          "type": "tuple"
        }
      ],
      "stateMutability": "view",
      "type": "function"
    },
    {
      "inputs": [
        {
          "internalType": "bytes32",
          "name": "id",
          "type": "bytes32"
        }
      ],
      "name": "getSubscribersById",
      "outputs": [
        {
          "components": [
            {
              "internalType": "address",
              "name": "subscriber",
              "type": "address"
            },
            {
              "internalType": "uint256",
              "name": "feeBalance",
              "type": "uint256"
            }
          ],
          "internalType": "struct ClockTowerSubscribe.SubscriberView[]",
          "name": "",
          "type": "tuple[]"
        }
      ],
      "stateMutability": "view",
      "type": "function"
    },
    {
      "inputs": [
        {
          "internalType": "bool",
          "name": "bySubscriber",
          "type": "bool"
        },
        {
          "internalType": "address",
          "name": "account",
          "type": "address"
        }
      ],
      "name": "getSubscriptionsByAccount",
      "outputs": [
        {
          "components": [
            {
              "components": [
                {
                  "internalType": "bytes32",
                  "name": "id",
                  "type": "bytes32"
                },
                {
                  "internalType": "uint256",
                  "name": "amount",
                  "type": "uint256"
                },
                {
                  "internalType": "address",
                  "name": "provider",
                  "type": "address"
                },
                {
                  "internalType": "address",
                  "name": "token",
                  "type": "address"
                },
                {
                  "internalType": "bool",
                  "name": "exists",
                  "type": "bool"
                },
                {
                  "internalType": "bool",
                  "name": "cancelled",
                  "type": "bool"
                },
                {
                  "internalType": "enum ClockTowerSubscribe.Frequency",
                  "name": "frequency",
                  "type": "uint8"
                },
                {
                  "internalType": "uint16",
                  "name": "dueDay",
                  "type": "uint16"
                },
                {
                  "internalType": "string",
                  "name": "description",
                  "type": "string"
                }
              ],
              "internalType": "struct ClockTowerSubscribe.Subscription",
              "name": "subscription",
              "type": "tuple"
            },
            {
              "internalType": "enum ClockTowerSubscribe.Status",
              "name": "status",
              "type": "uint8"
            },
            {
              "internalType": "uint256",
              "name": "totalSubscribers",
              "type": "uint256"
            }
          ],
          "internalType": "struct ClockTowerSubscribe.SubView[]",
          "name": "",
          "type": "tuple[]"
        }
      ],
      "stateMutability": "view",
      "type": "function"
    },
    {
      "inputs": [],
      "name": "lastCheckedDay",
      "outputs": [
        {
          "internalType": "uint40",
          "name": "",
          "type": "uint40"
        }
      ],
      "stateMutability": "view",
      "type": "function"
    },
    {
      "inputs": [],
      "name": "maxRemits",
      "outputs": [
        {
          "internalType": "uint256",
          "name": "",
          "type": "uint256"
        }
      ],
      "stateMutability": "view",
      "type": "function"
    },
    {
      "inputs": [],
      "name": "remit",
      "outputs": [],
      "stateMutability": "payable",
      "type": "function"
    },
    {
      "inputs": [
        {
          "internalType": "address",
          "name": "erc20Contract",
          "type": "address"
        }
      ],
      "name": "removeERC20Contract",
      "outputs": [],
      "stateMutability": "nonpayable",
      "type": "function"
    },
    {
      "inputs": [
        {
          "internalType": "bool",
          "name": "status",
          "type": "bool"
        }
      ],
      "name": "setExternalCallers",
      "outputs": [],
      "stateMutability": "nonpayable",
      "type": "function"
    },
    {
      "inputs": [
        {
          "components": [
            {
              "internalType": "bytes32",
              "name": "id",
              "type": "bytes32"
            },
            {
              "internalType": "uint256",
              "name": "amount",
              "type": "uint256"
            },
            {
              "internalType": "address",
              "name": "provider",
              "type": "address"
            },
            {
              "internalType": "address",
              "name": "token",
              "type": "address"
            },
            {
              "internalType": "bool",
              "name": "exists",
              "type": "bool"
            },
            {
              "internalType": "bool",
              "name": "cancelled",
              "type": "bool"
            },
            {
              "internalType": "enum ClockTowerSubscribe.Frequency",
              "name": "frequency",
              "type": "uint8"
            },
            {
              "internalType": "uint16",
              "name": "dueDay",
              "type": "uint16"
            },
            {
              "internalType": "string",
              "name": "description",
              "type": "string"
            }
          ],
          "internalType": "struct ClockTowerSubscribe.Subscription",
          "name": "subscription",
          "type": "tuple"
        }
      ],
      "name": "subscribe",
      "outputs": [],
      "stateMutability": "payable",
      "type": "function"
    },
    {
      "inputs": [],
      "name": "systemFee",
      "outputs": [
        {
          "internalType": "uint256",
          "name": "",
          "type": "uint256"
        }
      ],
      "stateMutability": "view",
      "type": "function"
    },
    {
      "inputs": [
        {
          "internalType": "bool",
          "name": "status",
          "type": "bool"
        }
      ],
      "name": "systemFeeActivate",
      "outputs": [],
      "stateMutability": "nonpayable",
      "type": "function"
    },
    {
      "inputs": [
        {
          "internalType": "uint256",
          "name": "unix",
          "type": "uint256"
        }
      ],
      "name": "unixToTime",
      "outputs": [
        {
          "components": [
            {
              "internalType": "uint16",
              "name": "day",
              "type": "uint16"
            },
            {
              "internalType": "uint16",
              "name": "weekDay",
              "type": "uint16"
            },
            {
              "internalType": "uint16",
              "name": "quarterDay",
              "type": "uint16"
            },
            {
              "internalType": "uint16",
              "name": "yearDay",
              "type": "uint16"
            }
          ],
          "internalType": "struct ClockTowerSubscribe.Time",
          "name": "time",
          "type": "tuple"
        }
      ],
      "stateMutability": "pure",
      "type": "function"
    },
    {
      "inputs": [
        {
          "components": [
            {
              "internalType": "bytes32",
              "name": "id",
              "type": "bytes32"
            },
            {
              "internalType": "uint256",
              "name": "amount",
              "type": "uint256"
            },
            {
              "internalType": "address",
              "name": "provider",
              "type": "address"
            },
            {
              "internalType": "address",
              "name": "token",
              "type": "address"
            },
            {
              "internalType": "bool",
              "name": "exists",
              "type": "bool"
            },
            {
              "internalType": "bool",
              "name": "cancelled",
              "type": "bool"
            },
            {
              "internalType": "enum ClockTowerSubscribe.Frequency",
              "name": "frequency",
              "type": "uint8"
            },
            {
              "internalType": "uint16",
              "name": "dueDay",
              "type": "uint16"
            },
            {
              "internalType": "string",
              "name": "description",
              "type": "string"
            }
          ],
          "internalType": "struct ClockTowerSubscribe.Subscription",
          "name": "subscription",
          "type": "tuple"
        }
      ],
      "name": "unsubscribe",
      "outputs": [],
      "stateMutability": "payable",
      "type": "function"
    },
    {
      "inputs": [
        {
          "components": [
            {
              "internalType": "bytes32",
              "name": "id",
              "type": "bytes32"
            },
            {
              "internalType": "uint256",
              "name": "amount",
              "type": "uint256"
            },
            {
              "internalType": "address",
              "name": "provider",
              "type": "address"
            },
            {
              "internalType": "address",
              "name": "token",
              "type": "address"
            },
            {
              "internalType": "bool",
              "name": "exists",
              "type": "bool"
            },
            {
              "internalType": "bool",
              "name": "cancelled",
              "type": "bool"
            },
            {
              "internalType": "enum ClockTowerSubscribe.Frequency",
              "name": "frequency",
              "type": "uint8"
            },
            {
              "internalType": "uint16",
              "name": "dueDay",
              "type": "uint16"
            },
            {
              "internalType": "string",
              "name": "description",
              "type": "string"
            }
          ],
          "internalType": "struct ClockTowerSubscribe.Subscription",
          "name": "subscription",
          "type": "tuple"
        },
        {
          "internalType": "address",
          "name": "subscriber",
          "type": "address"
        }
      ],
      "name": "unsubscribeByProvider",
      "outputs": [],
      "stateMutability": "nonpayable",
      "type": "function"
    },
    {
      "stateMutability": "payable",
      "type": "receive"
    }
  ],
  "bytecode": "0x60806040526127d8600055662386f26fc10000600190815560056002556006805460ff60d81b19169055620000344262000095565b620000409190620000ac565b60068054610100600160d01b03191661010064ffffffffff9390931692909202600160301b600160d01b0319169190911779f39fd6e51aad88f6f4ce6ab8827279cfffb9226600000000000017905562000114565b6000620000a66201518083620000e1565b92915050565b600064ffffffffff83811690831681811015620000d957634e487b7160e01b600052601160045260246000fd5b039392505050565b600064ffffffffff808416806200010857634e487b7160e01b600052601260045260246000fd5b92169190910492915050565b615e8f80620001246000396000f3fe6080604052600436106101a35760003560e01c80638ef0ef1c116100e0578063c879657211610084578063ebec6eaa11610061578063ebec6eaa146104e6578063f25e13c91461051e578063f851a4401461053e578063fedce9401461058057005b8063c879657214610499578063cab1c965146104ae578063e63d35be146104c457005b8063a2349caf116100bd578063a2349caf14610426578063a429131a14610446578063a5af2abd14610459578063b4761de91461047957005b80638ef0ef1c146103c65780638f283970146103e65780639889552e1461040657005b80632d23f7e71161014757806353a6d6e21161012457806353a6d6e2146103065780636605ac0d146103645780637507ba39146103915780637bbf5a6e1461039957005b80632d23f7e7146102b05780633084f79e146102dd57806334d441d0146102f057005b8063094f997711610180578063094f99771461022c5780630bec99e81461024c5780631f17ee551461026c57806327ea97731461029057005b806304c266bc146101ac578063053149fa146101ea57806308e93d0a1461020a57005b366101aa57005b005b3480156101b857600080fd5b506006546101cf90610100900464ffffffffff1681565b60405164ffffffffff90911681526020015b60405180910390f35b3480156101f657600080fd5b506101aa610205366004615289565b610593565b34801561021657600080fd5b5061021f610626565b6040516101e1919061535c565b34801561023857600080fd5b506101aa61024736600461544f565b6109ef565b34801561025857600080fd5b506101aa61026736600461548b565b611518565b34801561027857600080fd5b5061028260015481565b6040519081526020016101e1565b34801561029c57600080fd5b506101aa6102ab36600461548b565b611525565b3480156102bc57600080fd5b506102d06102cb3660046154c5565b611532565b6040516101e1919061560d565b6101aa6102eb366004615620565b6117b9565b3480156102fc57600080fd5b5061028260005481565b34801561031257600080fd5b5061032661032136600461548b565b611cd0565b6040516101e19190815161ffff9081168252602080840151821690830152604080840151821690830152606092830151169181019190915260800190565b34801561037057600080fd5b5061038461037f3660046156e8565b611f32565b6040516101e19190615705565b6101aa612333565b3480156103a557600080fd5b506103b96103b436600461548b565b61307c565b6040516101e1919061578f565b3480156103d257600080fd5b506101aa6103e136600461548b565b613275565b3480156103f257600080fd5b506101aa610401366004615289565b613282565b34801561041257600080fd5b506101aa6104213660046156e8565b6132f7565b34801561043257600080fd5b506101aa610441366004615979565b61331d565b6101aa61045436600461544f565b613777565b34801561046557600080fd5b506103846104743660046159cb565b613c9f565b34801561048557600080fd5b506101aa6104943660046156e8565b614071565b3480156104a557600080fd5b506101aa614097565b3480156104ba57600080fd5b5061028260025481565b3480156104d057600080fd5b506104d96140fa565b6040516101e191906159f9565b3480156104f257600080fd5b50610282610501366004615a44565b600960209081526000928352604080842090915290825290205481565b34801561052a57600080fd5b506101aa610539366004615a69565b6145ca565b34801561054a57600080fd5b5060065461056890660100000000000090046001600160a01b031681565b6040516001600160a01b0390911681526020016101e1565b6101aa61058e366004615a95565b614689565b61059b614a52565b6001600160a01b0381166105ae57600080fd5b6105b781614a9b565b6105ec5760405162461bcd60e51b81526020600482015260016024820152601960f91b60448201526064015b60405180910390fd5b6001600160a01b0316600090815260056020526040812080546001600160a01b03191681556001810191909155600201805460ff19169055565b6060610630614a52565b6000600880548060200260200160405190810160405280929190818152602001828054801561068857602002820191906000526020600020905b81546001600160a01b0316815260019091019060200180831161066a575b505050505090506000815167ffffffffffffffff8111156106ab576106ab6157e7565b60405190808252806020026020018201604052801561070657816020015b6040805160a08101825260008082526020820152606091810182905281810182905260808101919091528152602001906001900390816106c95790505b50905060005b82518110156109e8576007600084838151811061072b5761072b615aca565b6020908102919091018101516001600160a01b039081168352828201939093526040918201600020825160a08101845281549485168152600160a01b90940460ff16151584830152600181018054845181850281018501865281815292948601938301828280156107e957602002820191906000526020600020906000905b82829054906101000a900464ffffffffff1664ffffffffff16815260200190600501906020826004010492830192600103820291508084116107aa5790505b5050505050815260200160028201805480602002602001604051908101604052809291908181526020016000905b828210156108cd576000848152602090819020604080516080810182526002860290920180548352600181015461ffff81169484019490945291929083019062010000900460ff166003811115610870576108706152ad565b6003811115610881576108816152ad565b81526020016001820160039054906101000a900460ff1660028111156108a9576108a96152ad565b60028111156108ba576108ba6152ad565b8152505081526020019060010190610817565b50505050815260200160038201805480602002602001604051908101604052809291908181526020016000905b828210156109b0576000848152602090819020604080516080810182526002860290920180548352600181015461ffff81169484019490945291929083019062010000900460ff166003811115610953576109536152ad565b6003811115610964576109646152ad565b81526020016001820160039054906101000a900460ff16600281111561098c5761098c6152ad565b600281111561099d5761099d6152ad565b81525050815260200190600101906108fa565b50505050815250508282815181106109ca576109ca615aca565b602002602001018190525080806109e090615af6565b91505061070c565b5091505090565b6109f7614acd565b610a248135610a0d610100840160e08501615b11565b610a1d60e0850160c08601615b2c565b6000614afe565b610a545760405162461bcd60e51b81526020600482015260016024820152603760f81b60448201526064016105e3565b610a646060820160408301615289565b6001600160a01b0316336001600160a01b031614610aa95760405162461bcd60e51b8152602060048201526002602482015261323360f01b60448201526064016105e3565b33600090815260076020908152604080832060030180548251818502810185019093528083529192909190849084015b82821015610b8f576000848152602090819020604080516080810182526002860290920180548352600181015461ffff81169484019490945291929083019062010000900460ff166003811115610b3257610b326152ad565b6003811115610b4357610b436152ad565b81526020016001820160039054906101000a900460ff166002811115610b6b57610b6b6152ad565b6002811115610b7c57610b7c6152ad565b8152505081526020019060010190610ad9565b5050336000908152600760205260408120600301549394509150505b81811015610c4e578360000135838281518110610bca57610bca615aca565b6020026020010151600001511415610c3c5733600090815260076020526040902060030180546001919083908110610c0457610c04615aca565b906000526020600020906002020160010160036101000a81548160ff02191690836002811115610c3657610c366152ad565b02179055505b80610c4681615af6565b915050610bab565b5082356000908152600b6020908152604080832080548251818502810185019093528083529192909190830182828015610cb157602002820191906000526020600020905b81546001600160a01b03168152600190910190602001808311610c93575b5050505050905060005b81518110156111f8578435600090815260096020526040812083518290859085908110610cea57610cea615aca565b60200260200101516001600160a01b03166001600160a01b03168152602001908152602001600020549050600580811115610d2757610d276152ad565b838381518110610d3957610d39615aca565b60200260200101516001600160a01b03168760000135600080516020615e3a8339815191524285604051610d8092919064ffffffffff929092168252602082015260400190565b60405180910390a4853560009081526009602052604081208451909190859085908110610daf57610daf615aca565b60200260200101516001600160a01b03166001600160a01b0316815260200190815260200160002060009055856060016020810190610dee9190615289565b6001600160a01b031663a9059cbb848481518110610e0e57610e0e615aca565b6020026020010151836040518363ffffffff1660e01b8152600401610e489291906001600160a01b03929092168252602082015260400190565b602060405180830381600087803b158015610e6257600080fd5b505af1158015610e76573d6000803e3d6000fd5b505050506040513d601f19601f82011682018060405250810190610e9a9190615b47565b610ecb5760405162461bcd60e51b8152602060048201526002602482015261323160f01b60448201526064016105e3565b600060076000858581518110610ee357610ee3615aca565b60200260200101516001600160a01b03166001600160a01b031681526020019081526020016000206002018054905067ffffffffffffffff811115610f2a57610f2a6157e7565b604051908082528060200260200182016040528015610f8557816020015b610f7260408051608081018252600080825260208201819052909182019081526020016000905290565b815260200190600190039081610f485790505b50905060076000858581518110610f9e57610f9e615aca565b60200260200101516001600160a01b03166001600160a01b03168152602001908152602001600020600201805480602002602001604051908101604052809291908181526020016000905b8282101561109f576000848152602090819020604080516080810182526002860290920180548352600181015461ffff81169484019490945291929083019062010000900460ff166003811115611042576110426152ad565b6003811115611053576110536152ad565b81526020016001820160039054906101000a900460ff16600281111561107b5761107b6152ad565b600281111561108c5761108c6152ad565b8152505081526020019060010190610fe9565b50505050905060005b600760008686815181106110be576110be615aca565b60200260200101516001600160a01b03166001600160a01b03168152602001908152602001600020600201805490508110156111bb57876000013582828151811061110b5761110b615aca565b60200260200101516000015114156111a95760016007600087878151811061113557611135615aca565b60200260200101516001600160a01b03166001600160a01b03168152602001908152602001600020600201828154811061117157611171615aca565b906000526020600020906002020160010160036101000a81548160ff021916908360028111156111a3576111a36152ad565b02179055505b806111b381615af6565b9150506110a8565b506111e387600001358585815181106111d6576111d6615aca565b6020026020010151614b89565b505080806111f090615af6565b915050610cbb565b506000600a8161120e60e0880160c08901615b2c565b600381111561121f5761121f6152ad565b815260200190815260200160002060008660e00160208101906112429190615b11565b61ffff1661ffff168152602001908152602001600020805480602002602001604051908101604052809291908181526020016000905b828210156113e25760008481526020908190206040805161012081018252600586029092018054835260018101549383019390935260028301546001600160a01b0390811691830191909152600380840154918216606084015260ff600160a01b8304811615156080850152600160a81b83048116151560a085015292939260c0850192600160b01b90041690811115611314576113146152ad565b6003811115611325576113256152ad565b81526003820154600160b81b900461ffff16602082015260048201805460409092019161135190615b64565b80601f016020809104026020016040519081016040528092919081815260200182805461137d90615b64565b80156113ca5780601f1061139f576101008083540402835291602001916113ca565b820191906000526020600020905b8154815290600101906020018083116113ad57829003601f168201915b50505050508152505081526020019060010190611278565b50505050905060005b81518110156114c957856000013582828151811061140b5761140b615aca565b60200260200101516000015114156114b7576001600a600061143360e08a0160c08b01615b2c565b6003811115611444576114446152ad565b815260200190815260200160002060008860e00160208101906114679190615b11565b61ffff1661ffff168152602001908152602001600020828154811061148e5761148e615aca565b906000526020600020906005020160030160156101000a81548160ff0219169083151502179055505b806114c181615af6565b9150506113eb565b5060016040805164ffffffffff421681526000602082015233918835917ffcb91fd98787d64bdba700bb305716e8b6cebeef9927c71b19ed9b0ab1b892b0910160405180910390a45050505050565b611520614a52565b600155565b61152d614a52565b600255565b6115816040805161012081018252600080825260208201819052918101829052606081018290526080810182905260a081018290529060c0820190815260006020820152606060409091015290565b6000600a6000856003811115611599576115996152ad565b815260200190815260200160002060008461ffff1661ffff168152602001908152602001600020805480602002602001604051908101604052809291908181526020016000905b8282101561174a5760008481526020908190206040805161012081018252600586029092018054835260018101549383019390935260028301546001600160a01b0390811691830191909152600380840154918216606084015260ff600160a01b8304811615156080850152600160a81b83048116151560a085015292939260c0850192600160b01b9004169081111561167c5761167c6152ad565b600381111561168d5761168d6152ad565b81526003820154600160b81b900461ffff1660208201526004820180546040909201916116b990615b64565b80601f01602080910402602001604051908101604052809291908181526020018280546116e590615b64565b80156117325780601f1061170757610100808354040283529160200191611732565b820191906000526020600020905b81548152906001019060200180831161171557829003601f168201915b505050505081525050815260200190600101906115e0565b50505050905060005b81518110156117b0578582828151811061176f5761176f615aca565b602002602001015160000151141561179e5781818151811061179357611793615aca565b602002602001015192505b806117a881615af6565b915050611753565b50509392505050565b6117c1614acd565b6001600160a01b0385166117fb5760405162461bcd60e51b81526020600482015260016024820152600760fb1b60448201526064016105e3565b600654600160d81b900460ff1615611843573460015411156118435760405162461bcd60e51b81526020600482015260016024820152603560f81b60448201526064016105e3565b61184c85614a9b565b61187c5760405162461bcd60e51b81526020600482015260016024820152603960f81b60448201526064016105e3565b60208311156118b25760405162461bcd60e51b8152602060048201526002602482015261323560f01b60448201526064016105e3565b60008260038111156118c6576118c66152ad565b1415611916578061ffff1660001080156118e5575060078161ffff1611155b6119165760405162461bcd60e51b8152602060048201526002602482015261191b60f11b60448201526064016105e3565b600182600381111561192a5761192a6152ad565b141561197a578061ffff1660001080156119495750601c8161ffff1611155b61197a5760405162461bcd60e51b8152602060048201526002602482015261323760f01b60448201526064016105e3565b600282600381111561198e5761198e6152ad565b14156119de578061ffff1660001080156119ad5750605a8161ffff1611155b6119de5760405162461bcd60e51b8152602060048201526002602482015261064760f31b60448201526064016105e3565b60038260038111156119f2576119f26152ad565b1415611a43578061ffff166000108015611a12575061016d8161ffff1611155b611a435760405162461bcd60e51b8152602060048201526002602482015261323960f01b60448201526064016105e3565b6001600160a01b038516600090815260056020526040902060010154861015611a935760405162461bcd60e51b8152602060048201526002602482015261033360f41b60448201526064016105e3565b6000611ada878787878080601f016020809104026020016040519081016040528093929190818152602001838380828437600092019190915250899250889150614cda9050565b905080600a6000856003811115611af357611af36152ad565b81526020808201929092526040908101600090812061ffff87168252835281812080546001818101835591835291849020855160059093020191825592840151928101929092558201516002820180546001600160a01b039283166001600160a01b0319909116179055606083015160038084018054608087015160a08801511515600160a81b0260ff60a81b19911515600160a01b0274ffffffffffffffffffffffffffffffffffffffffff199093169590961694909417179283168417815560c086015193909260ff60b01b1990911661ffff60a81b199091161790600160b01b908490811115611be857611be86152ad565b021790555060e082015160038201805461ffff909216600160b81b0261ffff60b81b199092169190911790556101008201518051611c309160048401916020909101906151cb565b50905050611c806040518060800160405280836000015181526020018360e0015161ffff1681526020018360c001516003811115611c7057611c706152ad565b8152602001600090526001614dc8565b600081516040805164ffffffffff42168152600060208201523392917ffcb91fd98787d64bdba700bb305716e8b6cebeef9927c71b19ed9b0ab1b892b0910160405180910390a450505050505050565b604080516080810182526000808252602082018190529181018290526060810182905290611d016201518084615bb5565b90506000808281611d158262010bd9615bc9565b611d229062253d8c615bc9565b9050600062023ab1611d35836004615c09565b611d3f9190615c90565b90506004611d508262023ab1615c09565b611d5b906003615bc9565b611d659190615c90565b611d6f9083615cbe565b9150600062164b09611d82846001615bc9565b611d8e90610fa0615c09565b611d989190615c90565b90506004611da8826105b5615c09565b611db29190615c90565b611dbc9084615cbe565b611dc790601f615bc9565b9250600061098f611dd9856050615c09565b611de39190615c90565b905060006050611df58361098f615c09565b611dff9190615c90565b611e099086615cbe565b9050611e16600b83615c90565b9450611e2385600c615c09565b611e2e836002615bc9565b611e389190615cbe565b91508483611e47603187615cbe565b611e52906064615c09565b611e5c9190615bc9565b611e669190615bc9565b909750915086828282600060015b838111611ec15783811415611e9857611e9161ffff8e1683615cfd565b9150611eaf565b611ea28585614f7b565b611eac9083615cfd565b91505b80611eb981615af6565b915050611e74565b50809a50611ed38b61ffff1685615001565b61ffff1660408f0152611ee58f6150cf565b8e6020019061ffff16908161ffff16815250508b8e6000019061ffff16908161ffff16815250508a8e6060019061ffff16908161ffff168152505050505050505050505050505050919050565b60608082156120295733600090815260076020908152604080832060020180548251818502810185019093528083529193909284015b8282101561201e576000848152602090819020604080516080810182526002860290920180548352600181015461ffff81169484019490945291929083019062010000900460ff166003811115611fc157611fc16152ad565b6003811115611fd257611fd26152ad565b81526020016001820160039054906101000a900460ff166002811115611ffa57611ffa6152ad565b600281111561200b5761200b6152ad565b8152505081526020019060010190611f68565b505050509050612113565b33600090815260076020908152604080832060030180548251818502810185019093528083529193909284015b8282101561210c576000848152602090819020604080516080810182526002860290920180548352600181015461ffff81169484019490945291929083019062010000900460ff1660038111156120af576120af6152ad565b60038111156120c0576120c06152ad565b81526020016001820160039054906101000a900460ff1660028111156120e8576120e86152ad565b60028111156120f9576120f96152ad565b8152505081526020019060010190612056565b5050505090505b6000815167ffffffffffffffff81111561212f5761212f6157e7565b6040519080825280602002602001820160405280156121ca57816020015b6121b7604080516101808101909152600060608083018281526080840183905260a0840183905260c0840183905260e08401839052610100840183905261012084018390526101408401929092526101608301528190815260200160008152602001600081525090565b81526020019060019003908161214d5790505b50905060005b825181101561232b5761223b8382815181106121ee576121ee615aca565b60200260200101516000015184838151811061220c5761220c615aca565b60200260200101516040015185848151811061222a5761222a615aca565b602002602001015160200151611532565b82828151811061224d5761224d615aca565b60200260200101516000018190525082818151811061226e5761226e615aca565b60200260200101516060015182828151811061228c5761228c615aca565b60200260200101516020019060028111156122a9576122a96152ad565b908160028111156122bc576122bc6152ad565b81525050600b60008383815181106122d6576122d6615aca565b6020026020010151600001516000015181526020019081526020016000208054905082828151811061230a5761230a615aca565b6020908102919091010151604001528061232381615af6565b9150506121d0565b509392505050565b600654600160d01b900460ff1661234c5761234c614a52565b600654600160d81b900460ff1615612394573460015411156123945760405162461bcd60e51b81526020600482015260016024820152603560f81b60448201526064016105e3565b600061239f42615105565b60065490915064ffffffffff6101009091048116908216116123e85760405162461bcd60e51b81526020600482015260026024820152610c4d60f21b60448201526064016105e3565b60006123f342611cd0565b90506000805b60038111612fb35760008161240f575060208301515b600182141561241c575082515b600282141561242c575060408301515b600382141561243c575060608301515b6000828152600a6020908152604080832061ffff85168452909152812054905b81811015612f9d576000848152600a6020908152604080832061ffff87168452909152902080548290811061249357612493615aca565b906000526020600020906005020160030160159054906101000a900460ff16612f8b576000848152600a6020908152604080832061ffff8716845290915281208054839081106124e5576124e5615aca565b60009182526020808320600590920290910154878352600a8252604080842061ffff891685529092529082208054919350908490811061252757612527615aca565b6000918252602080832060036005909302019190910154888352600a8252604080842061ffff8a16855290925290822080546001600160a01b039092169350908590811061257757612577615aca565b6000918252602080832060016005909302019190910154898352600a8252604080842061ffff8b168552909252908220805491935090869081106125bd576125bd615aca565b6000918252602082206002600590920201015481546001600160a01b0390911692508390612710906125ef9083615d15565b6125f99190615bb5565b6126039190615d34565b6000868152600b60205260408120549192509081612622600183615d34565b905060005b82811015612f81576002548e1415612779576040805180820182528a815260200182905260038a905560048281556006805460ff19169055905163a9059cbb60e01b81523391810191909152602481018590526001600160a01b0389169063a9059cbb90604401602060405180830381600087803b1580156126a857600080fd5b505af11580156126bc573d6000803e3d6000fd5b505050506040513d601f19601f820116820180604052508101906126e09190615b47565b6127115760405162461bcd60e51b8152602060048201526002602482015261191960f11b60448201526064016105e3565b6006546040805164ffffffffff428116825261010090930492909216602083015260009082015233907f90192d7875364a53e351ae63fd2dfef8dc941735b29fb0c504d06a0e21ae602e9060600160405180910390a250505050505050505050505050505050565b6003548914801561278b575060045481145b1561279e576006805460ff191660011790555b60035415806127b4575060065460ff1615156001145b15612f6f576000898152600b602052604081208054839081106127d9576127d9615aca565b600091825260209091200154604051636eb1769f60e11b81526001600160a01b0391821660048201819052306024830152925089918b169063dd62ed3e90604401602060405180830381600087803b15801561283457600080fd5b505af1158015612848573d6000803e3d6000fd5b505050506040513d601f19601f8201168201806040525081019061286c9190615d4b565b101580156128f557506040516370a0823160e01b81526001600160a01b0382811660048301528991908b16906370a0823190602401602060405180830381600087803b1580156128bb57600080fd5b505af11580156128cf573d6000803e3d6000fd5b505050506040513d601f19601f820116820180604052508101906128f39190615d4b565b115b15612cb4578e61290481615af6565b9f5061291290508686615cfd565b60008b81526009602090815260408083206001600160a01b0386168452909152902054909550861015612aa45760008a81526009602090815260408083206001600160a01b038516845290915281208054889290612971908490615d34565b90915550600090506040805164ffffffffff42168152602081018b90526001600160a01b038416918d91600080516020615e3a833981519152910160405180910390a460026040805164ffffffffff42168152600060208201526001600160a01b038a16918d917ffcb91fd98787d64bdba700bb305716e8b6cebeef9927c71b19ed9b0ab1b892b0910160405180910390a4612a0c8f615114565b6040516323b872dd60e01b81526001600160a01b0382811660048301528881166024830152604482018a90528a16906323b872dd90606401602060405180830381600087803b158015612a5e57600080fd5b505af1158015612a72573d6000803e3d6000fd5b505050506040513d601f19601f82011682018060405250810190612a969190615b47565b612a9f57600080fd5b612eb4565b60046040805164ffffffffff42168152602081018b90526001600160a01b038416918d91600080516020615e3a833981519152910160405180910390a460008890506000600190508f60021415612b0b57612b00600383615bb5565b915060029050612b26565b8f60031415612b2657612b1f600c83615bb5565b9150600b90505b60008c81526009602090815260408083206001600160a01b038716845290915281208054849290612b58908490615cfd565b90915550506040516323b872dd60e01b81526001600160a01b038481166004830152306024830152604482018490528c16906323b872dd90606401602060405180830381600087803b158015612bad57600080fd5b505af1158015612bc1573d6000803e3d6000fd5b505050506040513d601f19601f82011682018060405250810190612be59190615b47565b612bee57600080fd5b8f60031480612bfd57508f6004145b15612cad576001600160a01b038b166323b872dd338b612c1d8587615d15565b6040516001600160e01b031960e086901b1681526001600160a01b0393841660048201529290911660248301526044820152606401602060405180830381600087803b158015612c6c57600080fd5b505af1158015612c80573d6000803e3d6000fd5b505050506040513d601f19601f82011682018060405250810190612ca49190615b47565b612cad57600080fd5b5050612eb4565b8e612cbe81615af6565b9f505085600960008c81526020019081526020016000206000836001600160a01b03166001600160a01b03168152602001908152602001600020541115612de957612d098686615cfd565b60008b81526009602090815260408083206001600160a01b038616845290915281205491965090612d3b908890615d34565b60008c81526009602090815260408083206001600160a01b038781168552925280832092909255905163a9059cbb60e01b81528a82166004820152602481018390529192508b169063a9059cbb90604401602060405180830381600087803b158015612da657600080fd5b505af1158015612dba573d6000803e3d6000fd5b505050506040513d601f19601f82011682018060405250810190612dde9190615b47565b612de757600080fd5b505b612df38a82614b89565b60036040805164ffffffffff42168152602081018b905233918d91600080516020615e3a833981519152910160405180910390a460016040805164ffffffffff42168152602081018b90526001600160a01b038416918d91600080516020615e3a833981519152910160405180910390a460036040805164ffffffffff42168152600060208201526001600160a01b038a16918d917ffcb91fd98787d64bdba700bb305716e8b6cebeef9927c71b19ed9b0ab1b892b0910160405180910390a45b82821415612f6d5760405163a9059cbb60e01b8152336004820152602481018690526001600160a01b038a169063a9059cbb90604401602060405180830381600087803b158015612f0457600080fd5b505af1158015612f18573d6000803e3d6000fd5b505050506040513d601f19601f82011682018060405250810190612f3c9190615b47565b612f6d5760405162461bcd60e51b8152602060048201526002602482015261191960f11b60448201526064016105e3565b505b80612f7981615af6565b915050612627565b5050505050505050505b80612f9581615af6565b91505061245c565b5050508080612fab90615af6565b9150506123f9565b50600060038190556004556006805460ff1916908190556040805164ffffffffff4281168252610100909304909216602083015260019082015233907f90192d7875364a53e351ae63fd2dfef8dc941735b29fb0c504d06a0e21ae602e9060600160405180910390a260065461303490610100900464ffffffffff16615114565b6001600660018282829054906101000a900464ffffffffff166130579190615d64565b92506101000a81548164ffffffffff021916908364ffffffffff160217905550505050565b6000818152600b60205260408120546060919067ffffffffffffffff8111156130a7576130a76157e7565b6040519080825280602002602001820160405280156130d0578160200160208202803683370190505b506000848152600b6020908152604091829020805483518184028101840190945280845293945091929083018282801561313357602002820191906000526020600020905b81546001600160a01b03168152600190910190602001808311613115575b5050506000868152600b60205260408120549394509291505067ffffffffffffffff811115613164576131646157e7565b6040519080825280602002602001820160405280156131a957816020015b60408051808201909152600080825260208201528152602001906001900390816131825790505b50905060005b825181101561232b576000858152600960205260408120845182908690859081106131dc576131dc615aca565b60200260200101516001600160a01b03166001600160a01b031681526020019081526020016000205490506000604051806040016040528086858151811061322657613226615aca565b60200260200101516001600160a01b031681526020018381525090508084848151811061325557613255615aca565b60200260200101819052505050808061326d90615af6565b9150506131af565b61327d614a52565b600055565b61328a614a52565b336001600160a01b0382161480156132aa57506001600160a01b03811615155b6132b357600080fd5b600680546001600160a01b039092166601000000000000027fffffffffffff0000000000000000000000000000000000000000ffffffffffff909216919091179055565b6132ff614a52565b60068054911515600160d81b0260ff60d81b19909216919091179055565b613325614acd565b33600090815260076020908152604080832060030180548251818502810185019093528083529192909190849084015b8282101561340b576000848152602090819020604080516080810182526002860290920180548352600181015461ffff81169484019490945291929083019062010000900460ff1660038111156133ae576133ae6152ad565b60038111156133bf576133bf6152ad565b81526020016001820160039054906101000a900460ff1660028111156133e7576133e76152ad565b60028111156133f8576133f86152ad565b8152505081526020019060010190613355565b5050505090506000805b825181101561345e57846000015183828151811061343557613435615aca565b602002602001015160000151141561344c57600191505b8061345681615af6565b915050613415565b50806134915760405162461bcd60e51b8152602060048201526002602482015261062760f31b60448201526064016105e3565b83516000908152600b60209081526040808320805482518185028101850190935280835291929091908301828280156134f357602002820191906000526020600020905b81546001600160a01b031681526001909101906020018083116134d5575b505050505090506000805b82518110156135b757856001600160a01b031683828151811061352357613523615aca565b60200260200101516001600160a01b031614156135a5576001600160a01b038616600090815260076020526040902060029081018054600194508390811061356d5761356d615aca565b906000526020600020906002020160010160036101000a81548160ff0219169083600281111561359f5761359f6152ad565b02179055505b806135af81615af6565b9150506134fe565b50806135ea5760405162461bcd60e51b8152602060048201526002602482015261313960f01b60448201526064016105e3565b85516135f69086614b89565b600386516020808901516040805164ffffffffff42168152928301919091526001600160a01b0389169291600080516020615e3a833981519152910160405180910390a4855160009081526009602081815260408084206001600160a01b038a16808652908352818520548b518652938352818520908552909152822091909155600587516040805164ffffffffff42168152602081018590526001600160a01b038a169291600080516020615e3a833981519152910160405180910390a4606087015160405163a9059cbb60e01b81526001600160a01b038881166004830152602482018490529091169063a9059cbb90604401602060405180830381600087803b15801561370557600080fd5b505af1158015613719573d6000803e3d6000fd5b505050506040513d601f19601f8201168201806040525081019061373d9190615b47565b61376e5760405162461bcd60e51b8152602060048201526002602482015261323160f01b60448201526064016105e3565b50505050505050565b61377f614acd565b60208101356137946080830160608401615289565b604051636eb1769f60e11b81523360048201523060248201526001600160a01b03919091169063dd62ed3e90604401602060405180830381600087803b1580156137dd57600080fd5b505af11580156137f1573d6000803e3d6000fd5b505050506040513d601f19601f820116820180604052508101906138159190615d4b565b101580156138b1575060208101356138336080830160608401615289565b6040516370a0823160e01b81523360048201526001600160a01b0391909116906370a0823190602401602060405180830381600087803b15801561387657600080fd5b505af115801561388a573d6000803e3d6000fd5b505050506040513d601f19601f820116820180604052508101906138ae9190615d4b565b10155b6138e25760405162461bcd60e51b8152602060048201526002602482015261032360f41b60448201526064016105e3565b6138f88135610a0d610100840160e08501615b11565b6139285760405162461bcd60e51b81526020600482015260016024820152603760f81b60448201526064016105e3565b80356000818152600b6020908152604080832080546001810182559084529282902090920180546001600160a01b031916331790558151608081019092529181526139ba918101613980610100850160e08601615b11565b61ffff16815260200161399960e0850160c08601615b2c565b60038111156139aa576139aa6152ad565b8152602001600090526000614dc8565b6020810135600160026139d360e0850160c08601615b2c565b60038111156139e4576139e46152ad565b1415613a00576139f5600383615bb5565b915060029050613a3b565b6003613a1260e0850160c08601615b2c565b6003811115613a2357613a236152ad565b1415613a3b57613a34600c83615bb5565b9150600b90505b8235600090815260096020908152604080832033845290915281208054849290613a66908490615cfd565b90915550600290506040805164ffffffffff42168152602080870135908201523391863591600080516020615e3a833981519152910160405180910390a460046040805164ffffffffff42168152602080870135908201523391863591600080516020615e3a833981519152910160405180910390a4613aec6080840160608501615289565b6040516323b872dd60e01b8152336004820152306024820152604481018490526001600160a01b0391909116906323b872dd90606401602060405180830381600087803b158015613b3c57600080fd5b505af1158015613b50573d6000803e3d6000fd5b505050506040513d601f19601f82011682018060405250810190613b749190615b47565b613b7d57600080fd5b6002613b8f60e0850160c08601615b2c565b6003811115613ba057613ba06152ad565b1480613bcc57506003613bb960e0850160c08601615b2c565b6003811115613bca57613bca6152ad565b145b15613c9a57613be16080840160608501615289565b6001600160a01b03166323b872dd33613c006060870160408801615289565b613c0a8587615d15565b6040516001600160e01b031960e086901b1681526001600160a01b0393841660048201529290911660248301526044820152606401602060405180830381600087803b158015613c5957600080fd5b505af1158015613c6d573d6000803e3d6000fd5b505050506040513d601f19601f82011682018060405250810190613c919190615b47565b613c9a57600080fd5b505050565b6060613ca9614a52565b60608315613da8576001600160a01b038316600090815260076020908152604080832060020180548251818502810185019093528083529193909284015b82821015613d9d576000848152602090819020604080516080810182526002860290920180548352600181015461ffff81169484019490945291929083019062010000900460ff166003811115613d4057613d406152ad565b6003811115613d5157613d516152ad565b81526020016001820160039054906101000a900460ff166002811115613d7957613d796152ad565b6002811115613d8a57613d8a6152ad565b8152505081526020019060010190613ce7565b505050509050613e9b565b6001600160a01b038316600090815260076020908152604080832060030180548251818502810185019093528083529193909284015b82821015613e94576000848152602090819020604080516080810182526002860290920180548352600181015461ffff81169484019490945291929083019062010000900460ff166003811115613e3757613e376152ad565b6003811115613e4857613e486152ad565b81526020016001820160039054906101000a900460ff166002811115613e7057613e706152ad565b6002811115613e8157613e816152ad565b8152505081526020019060010190613dde565b5050505090505b6000815167ffffffffffffffff811115613eb757613eb76157e7565b604051908082528060200260200182016040528015613f5257816020015b613f3f604080516101808101909152600060608083018281526080840183905260a0840183905260c0840183905260e08401839052610100840183905261012084018390526101408401929092526101608301528190815260200160008152602001600081525090565b815260200190600190039081613ed55790505b50905060005b825181101561406657613f768382815181106121ee576121ee615aca565b828281518110613f8857613f88615aca565b602002602001015160000181905250828181518110613fa957613fa9615aca565b602002602001015160600151828281518110613fc757613fc7615aca565b6020026020010151602001906002811115613fe457613fe46152ad565b90816002811115613ff757613ff76152ad565b81525050600b600083838151811061401157614011615aca565b6020026020010151600001516000015181526020019081526020016000208054905082828151811061404557614045615aca565b6020908102919091010151604001528061405e81615af6565b915050613f58565b509150505b92915050565b614079614a52565b60068054911515600160d01b0260ff60d01b19909216919091179055565b61409f614a52565b6113884711156140f857600654660100000000000090046001600160a01b03166108fc6140ce61138847615d34565b6040518115909202916000818181858888f193505050501580156140f6573d6000803e3d6000fd5b505b565b6060600061410742615105565b60065490915064ffffffffff6101009091048116908216116141505760405162461bcd60e51b81526020600482015260026024820152610c4d60f21b60448201526064016105e3565b600061415b42611cd0565b9050600080600060025467ffffffffffffffff81111561417d5761417d6157e7565b6040519080825280602002602001820160405280156141c257816020015b604080518082019091526000808252602082015281526020019060019003908161419b5790505b50905060005b600381116144a5576000816141de575060208501515b60018214156141eb575084515b60028214156141fb575060408501515b600382141561420b575060608501515b60005b6000838152600a6020908152604080832061ffff86168452909152902054811015614490576000838152600a6020908152604080832061ffff86168452909152902080548290811061426257614262615aca565b906000526020600020906005020160030160159054906101000a900460ff1661447e576000838152600a6020908152604080832061ffff8616845290915281208054839081106142b4576142b4615aca565b60009182526020808320600590920290910154868352600a8252604080842061ffff88168552909252908220805491935090849081106142f6576142f6615aca565b6000918252602080832060036005909302019190910154878352600a8252604080842061ffff8916855290925290822080546001600160a01b039092169350908590811061434657614346615aca565b906000526020600020906005020160010154905061438060405180604001604052806000815260200160006001600160a01b031681525090565b600082612710600054856143949190615d15565b61439e9190615bb5565b6143a89190615d34565b90506000805b6000878152600b6020526040902054811015614476576002548d14156143e25750989e9d5050505050505050505050505050565b60035415806143f8575060065460ff1615156001145b15614464578c61440781615af6565b9d5061441590508383615cfd565b91506040518060400160405280838152602001876001600160a01b03168152509350838b8d8151811061444a5761444a615aca565b60200260200101819052508b8061446090615af6565b9c50505b8061446e81615af6565b9150506143ae565b505050505050505b8061448881615af6565b91505061420e565b5050808061449d90615af6565b9150506141c8565b506000805b82518110156145055760006001600160a01b03168382815181106144d0576144d0615aca565b6020026020010151602001516001600160a01b031614156144f357809150614505565b806144fd81615af6565b9150506144aa565b5060008167ffffffffffffffff811115614521576145216157e7565b60405190808252806020026020018201604052801561456657816020015b604080518082019091526000808252602082015281526020019060019003908161453f5790505b50905060005b828110156145be5783818151811061458657614586615aca565b60200260200101518282815181106145a0576145a0615aca565b602002602001018190525080806145b690615af6565b91505061456c565b50979650505050505050565b6145d2614a52565b6001600160a01b0382166145e557600080fd5b6145ee82614a9b565b1561461f5760405162461bcd60e51b81526020600482015260016024820152603160f81b60448201526064016105e3565b604080516060810182526001600160a01b03938416808252602080830194855260018385018181526000938452600590925293909120915182546001600160a01b031916951694909417815591519082015590516002909101805460ff1916911515919091179055565b614691614acd565b3360009081526007602052604081206002015467ffffffffffffffff8111156146bc576146bc6157e7565b60405190808252806020026020018201604052801561471757816020015b61470460408051608081018252600080825260208201819052909182019081526020016000905290565b8152602001906001900390816146da5790505b50336000908152600760209081526040808320600201805482518185028101850190935280835294955090939092909184015b82821015614800576000848152602090819020604080516080810182526002860290920180548352600181015461ffff81169484019490945291929083019062010000900460ff1660038111156147a3576147a36152ad565b60038111156147b4576147b46152ad565b81526020016001820160039054906101000a900460ff1660028111156147dc576147dc6152ad565b60028111156147ed576147ed6152ad565b815250508152602001906001019061474a565b5050336000908152600760205260408120600201549394509150505b818110156148bd57836000015183828151811061483b5761483b615aca565b60200260200101516000015114156148ab57336000908152600760205260409020600290810180548390811061487357614873615aca565b906000526020600020906002020160010160036101000a81548160ff021916908360028111156148a5576148a56152ad565b02179055505b806148b581615af6565b91505061481c565b5082516148ca9033614b89565b600383516020808601516040805164ffffffffff4216815292830191909152339291600080516020615e3a833981519152910160405180910390a48251600090815260096020818152604080842033808652908352818520548851865293835281852090855290915282209190915560046040808601518651825164ffffffffff42168152602081018690526001600160a01b039092169290917ffcb91fd98787d64bdba700bb305716e8b6cebeef9927c71b19ed9b0ab1b892b0910160405180910390a46060840151604080860151905163a9059cbb60e01b81526001600160a01b0391821660048201526024810184905291169063a9059cbb90604401602060405180830381600087803b1580156149e357600080fd5b505af11580156149f7573d6000803e3d6000fd5b505050506040513d601f19601f82011682018060405250810190614a1b9190615b47565b614a4c5760405162461bcd60e51b8152602060048201526002602482015261323160f01b60448201526064016105e3565b50505050565b600654660100000000000090046001600160a01b031633146140f85760405162461bcd60e51b8152602060048201526002602482015261189b60f11b60448201526064016105e3565b6001600160a01b03811660009081526005602052604081206002015460ff16614ac557600061406b565b600192915050565b336140f85760405162461bcd60e51b81526020600482015260016024820152603360f81b60448201526064016105e3565b60008060405180608001604052808781526020018661ffff168152602001856003811115614b2e57614b2e6152ad565b8152602001846002811115614b4557614b456152ad565b81525090506000614b63826000015183604001518460200151611532565b9050806080015115614b7a57600192505050614b81565b6000925050505b949350505050565b6000828152600b602052604081208054909190815b81811015614c2257846001600160a01b0316848281548110614bc257614bc2615aca565b6000918252602090912001546001600160a01b03161415614c1057809250838181548110614bf257614bf2615aca565b600091825260209091200180546001600160a01b0319169055614c22565b80614c1a81615af6565b915050614b9e565b5082548390614c3390600190615d34565b81548110614c4357614c43615aca565b9060005260206000200160009054906101000a90046001600160a01b0316838381548110614c7357614c73615aca565b9060005260206000200160006101000a8154816001600160a01b0302191690836001600160a01b0316021790555082805480614cb157614cb1615d8d565b600082815260209020810160001990810180546001600160a01b03191690550190555050505050565b614d296040805161012081018252600080825260208201819052918101829052606081018290526080810182905260a081018290529060c0820190815260006020820152606060409091015290565b60003386848742604051602001614d44959493929190615da3565b60408051601f198184030181528282528051602091820120610120840183528084529083018a905233918301919091526001600160a01b038816606083015260016080830152600060a0830152915060c08101856003811115614da957614da96152ad565b81526020018461ffff1681526020018681525091505095945050505050565b33600090815260076020526040902054600160a01b900460ff16614e525733600081815260076020526040812080546001600160a01b03199081168417825560088054600181019091557ff3f7a9fe364faab93b216da50a3214154f22a0a2b415b23a84c8169e8b636ee301805490911684179055919052805460ff60a01b1916600160a01b1790555b8015614f0857336000908152600760209081526040808320600390810180546001808201835591865294849020875160029096020194855592860151928401805461ffff19811661ffff9095169485178255928701518795949093919262ffffff19909216179062010000908490811115614ecf57614ecf6152ad565b0217905550606082015160018201805463ff00000019166301000000836002811115614efd57614efd6152ad565b021790555050505050565b33600090815260076020908152604080832060029081018054600180820183559186529484902087519590920290910193845591850151918301805461ffff19811661ffff909416938417825591860151869493909262ffffff19161762010000836003811115614ecf57614ecf6152ad565b60008160011480614f8c5750816003145b80614f975750816005145b80614fa25750816007145b80614fad5750816008145b80614fb8575081600a145b80614fc3575081600c145b15614fd05750601f61406b565b81600214614fe05750601e61406b565b614fe98361516e565b614ff457601c614ff7565b601d5b60ff169392505050565b60008061500d8361516e565b1561501a5750600161501e565b5060005b61502981605a615cfd565b8411615037578391506150c8565b8361504382605a615cfd565b10801561505a57506150568160b5615cfd565b8411155b1561507b5761506a81605a615cfd565b6150749085615d34565b91506150c8565b836150878260b5615cfd565b10801561509f575061509b81610111615cfd565b8411155b156150af5761506a8160b5615cfd565b6150bb81610111615cfd565b6150c59085615d34565b91505b5092915050565b6000806150df6201518084615bb5565b9050600060076150f0836003615cfd565b6150fa9190615e01565b614b81906001615cfd565b600061406b6201518083615e15565b6140f68160405160240161512a91815260200190565b60408051601f198184030181529190526020810180517bffffffffffffffffffffffffffffffffffffffffffffffffffffffff1663f82c50f160e01b1790526151aa565b600061517b600483615e01565b158015615191575061518e606483615e01565b15155b8061406b57506151a361019083615e01565b1592915050565b80516a636f6e736f6c652e6c6f67602083016000808483855afa5050505050565b8280546151d790615b64565b90600052602060002090601f0160209004810192826151f9576000855561523f565b82601f1061521257805160ff191683800117855561523f565b8280016001018555821561523f579182015b8281111561523f578251825591602001919060010190615224565b5061524b92915061524f565b5090565b5b8082111561524b5760008155600101615250565b6001600160a01b03811681146140f657600080fd5b803561528481615264565b919050565b60006020828403121561529b57600080fd5b81356152a681615264565b9392505050565b634e487b7160e01b600052602160045260246000fd5b600481106152d3576152d36152ad565b9052565b600381106152d3576152d36152ad565b600081518084526020808501945080840160005b838110156153515781518051885261ffff848201511684890152604080820151615327828b01826152c3565b50506060908101519061533c898201836152d7565b505060809690960195908201906001016152fb565b509495945050505050565b60006020808301818452808551808352604092508286019150828160051b8701018488016000805b8481101561544057898403603f19018652825180516001600160a01b03168552888101511515898601528781015160a0898701819052815190870181905260c08701918b019085905b808210156153f457825164ffffffffff168452928c0192918c0191600191909101906153cd565b5050506060808301518783038289015261540e83826152e7565b925050506080808301519250868203818801525061542c81836152e7565b978a01979550505091870191600101615384565b50919998505050505050505050565b60006020828403121561546157600080fd5b813567ffffffffffffffff81111561547857600080fd5b820161012081850312156152a657600080fd5b60006020828403121561549d57600080fd5b5035919050565b80356004811061528457600080fd5b803561ffff8116811461528457600080fd5b6000806000606084860312156154da57600080fd5b833592506154ea602085016154a4565b91506154f8604085016154b3565b90509250925092565b60005b8381101561551c578181015183820152602001615504565b83811115614a4c5750506000910152565b60008151808452615545816020860160208601615501565b601f01601f19169290920160200192915050565b600061012082518452602083015160208501526001600160a01b036040840151166040850152606083015161559960608601826001600160a01b03169052565b5060808301516155ad608086018215159052565b5060a08301516155c160a086018215159052565b5060c08301516155d460c08601826152c3565b5060e08301516155ea60e086018261ffff169052565b506101008084015182828701526156038387018261552d565b9695505050505050565b6020815260006152a66020830184615559565b60008060008060008060a0878903121561563957600080fd5b86359550602087013561564b81615264565b9450604087013567ffffffffffffffff8082111561566857600080fd5b818901915089601f83011261567c57600080fd5b81358181111561568b57600080fd5b8a602082850101111561569d57600080fd5b6020830196508095505050506156b5606088016154a4565b91506156c3608088016154b3565b90509295509295509295565b80151581146140f657600080fd5b8035615284816156cf565b6000602082840312156156fa57600080fd5b81356152a6816156cf565b60006020808301818452808551808352604092508286019150828160051b87010184880160005b8381101561578157603f1989840301855281516060815181865261575282870182615559565b915050888201516157658a8701826152d7565b509087015193870193909352938601939086019060010161572c565b509098975050505050505050565b602080825282518282018190526000919060409081850190868401855b828110156157da57815180516001600160a01b031685528601518685015292840192908501906001016157ac565b5091979650505050505050565b634e487b7160e01b600052604160045260246000fd5b604051610120810167ffffffffffffffff81118282101715615821576158216157e7565b60405290565b600082601f83011261583857600080fd5b813567ffffffffffffffff80821115615853576158536157e7565b604051601f8301601f19908116603f0116810190828211818310171561587b5761587b6157e7565b8160405283815286602085880101111561589457600080fd5b836020870160208301376000602085830101528094505050505092915050565b600061012082840312156158c757600080fd5b6158cf6157fd565b905081358152602082013560208201526158eb60408301615279565b60408201526158fc60608301615279565b606082015261590d608083016156dd565b608082015261591e60a083016156dd565b60a082015261592f60c083016154a4565b60c082015261594060e083016154b3565b60e08201526101008083013567ffffffffffffffff81111561596157600080fd5b61596d85828601615827565b82840152505092915050565b6000806040838503121561598c57600080fd5b823567ffffffffffffffff8111156159a357600080fd5b6159af858286016158b4565b92505060208301356159c081615264565b809150509250929050565b600080604083850312156159de57600080fd5b82356159e9816156cf565b915060208301356159c081615264565b602080825282518282018190526000919060409081850190868401855b828110156157da578151805185528601516001600160a01b0316868501529284019290850190600101615a16565b60008060408385031215615a5757600080fd5b8235915060208301356159c081615264565b60008060408385031215615a7c57600080fd5b8235615a8781615264565b946020939093013593505050565b600060208284031215615aa757600080fd5b813567ffffffffffffffff811115615abe57600080fd5b6150c5848285016158b4565b634e487b7160e01b600052603260045260246000fd5b634e487b7160e01b600052601160045260246000fd5b6000600019821415615b0a57615b0a615ae0565b5060010190565b600060208284031215615b2357600080fd5b6152a6826154b3565b600060208284031215615b3e57600080fd5b6152a6826154a4565b600060208284031215615b5957600080fd5b81516152a6816156cf565b600181811c90821680615b7857607f821691505b60208210811415615b9957634e487b7160e01b600052602260045260246000fd5b50919050565b634e487b7160e01b600052601260045260246000fd5b600082615bc457615bc4615b9f565b500490565b6000808212826001600160ff1b0303841381151615615bea57615bea615ae0565b600160ff1b8390038412811615615c0357615c03615ae0565b50500190565b60006001600160ff1b03600084136000841385830485118282161615615c3157615c31615ae0565b600160ff1b6000871282811687830589121615615c5057615c50615ae0565b60008712925087820587128484161615615c6c57615c6c615ae0565b87850587128184161615615c8257615c82615ae0565b505050929093029392505050565b600082615c9f57615c9f615b9f565b600160ff1b821460001984141615615cb957615cb9615ae0565b500590565b60008083128015600160ff1b850184121615615cdc57615cdc615ae0565b836001600160ff1b03018313811615615cf757615cf7615ae0565b50500390565b60008219821115615d1057615d10615ae0565b500190565b6000816000190483118215151615615d2f57615d2f615ae0565b500290565b600082821015615d4657615d46615ae0565b500390565b600060208284031215615d5d57600080fd5b5051919050565b600064ffffffffff808316818516808303821115615d8457615d84615ae0565b01949350505050565b634e487b7160e01b600052603160045260246000fd5b60006bffffffffffffffffffffffff19808860601b168352808760601b1660148401525061ffff60f01b8560f01b1660288301528351615dea81602a850160208801615501565b602a920191820192909252604a0195945050505050565b600082615e1057615e10615b9f565b500690565b600064ffffffffff80841680615e2d57615e2d615b9f565b9216919091049291505056fefcfb8f783c54c9c729957515ad137cd8832b98c21e44fd7f481e2e7603bfdb5fa2646970667358221220785860311347e07e5146224d01217ec5a18836409888c94a7b8dff505d425e3564736f6c63430008090033",
  "linkReferences": {},
  "deployedLinkReferences": {}
}