{
  "_format": "hh-sol-artifact-1",
  "contractName": "ClockTowerSubscribe",
  "sourceName": "contracts/ClockTowerSubscribe.sol",
  "abi": [
    {
      "inputs": [],
      "stateMutability": "payable",
      "type": "constructor"
    },
    {
      "stateMutability": "payable",
      "type": "fallback"
    },
    {
      "inputs": [
        {
          "internalType": "address",
          "name": "erc20Contract",
          "type": "address"
        }
      ],
      "name": "addERC20Contract",
      "outputs": [],
      "stateMutability": "nonpayable",
      "type": "function"
    },
    {
      "inputs": [
        {
          "components": [
            {
              "internalType": "bytes32",
              "name": "id",
              "type": "bytes32"
            },
            {
              "internalType": "uint256",
              "name": "amount",
              "type": "uint256"
            },
            {
              "internalType": "address",
              "name": "owner",
              "type": "address"
            },
            {
              "internalType": "address",
              "name": "token",
              "type": "address"
            },
            {
              "internalType": "bool",
              "name": "exists",
              "type": "bool"
            },
            {
              "internalType": "bool",
              "name": "cancelled",
              "type": "bool"
            },
            {
              "internalType": "enum ClockTowerSubscribe.SubType",
              "name": "subType",
              "type": "uint8"
            },
            {
              "internalType": "uint16",
              "name": "dueDay",
              "type": "uint16"
            },
            {
              "internalType": "string",
              "name": "description",
              "type": "string"
            }
          ],
          "internalType": "struct ClockTowerSubscribe.Subscription",
          "name": "subscription",
          "type": "tuple"
        }
      ],
      "name": "cancelSubscription",
      "outputs": [],
      "stateMutability": "nonpayable",
      "type": "function"
    },
    {
      "inputs": [
        {
          "internalType": "address",
          "name": "newAddress",
          "type": "address"
        }
      ],
      "name": "changeAdmin",
      "outputs": [],
      "stateMutability": "nonpayable",
      "type": "function"
    },
    {
      "inputs": [
        {
          "internalType": "uint256",
          "name": "_fee",
          "type": "uint256"
        }
      ],
      "name": "changeFee",
      "outputs": [],
      "stateMutability": "nonpayable",
      "type": "function"
    },
    {
      "inputs": [
        {
          "internalType": "uint256",
          "name": "_fixed_fee",
          "type": "uint256"
        }
      ],
      "name": "changeFixedFee",
      "outputs": [],
      "stateMutability": "nonpayable",
      "type": "function"
    },
    {
      "inputs": [],
      "name": "chargeSubs",
      "outputs": [],
      "stateMutability": "nonpayable",
      "type": "function"
    },
    {
      "inputs": [
        {
          "internalType": "uint256",
          "name": "amount",
          "type": "uint256"
        },
        {
          "internalType": "address",
          "name": "token",
          "type": "address"
        },
        {
          "internalType": "string",
          "name": "description",
          "type": "string"
        },
        {
          "internalType": "enum ClockTowerSubscribe.SubType",
          "name": "subtype",
          "type": "uint8"
        },
        {
          "internalType": "uint16",
          "name": "dueDay",
          "type": "uint16"
        }
      ],
      "name": "createSubscription",
      "outputs": [],
      "stateMutability": "payable",
      "type": "function"
    },
    {
      "inputs": [],
      "name": "getAccountSubscriptions",
      "outputs": [
        {
          "components": [
            {
              "internalType": "bytes32",
              "name": "id",
              "type": "bytes32"
            },
            {
              "internalType": "uint256",
              "name": "amount",
              "type": "uint256"
            },
            {
              "internalType": "address",
              "name": "owner",
              "type": "address"
            },
            {
              "internalType": "address",
              "name": "token",
              "type": "address"
            },
            {
              "internalType": "bool",
              "name": "exists",
              "type": "bool"
            },
            {
              "internalType": "bool",
              "name": "cancelled",
              "type": "bool"
            },
            {
              "internalType": "enum ClockTowerSubscribe.SubType",
              "name": "subType",
              "type": "uint8"
            },
            {
              "internalType": "uint16",
              "name": "dueDay",
              "type": "uint16"
            },
            {
              "internalType": "string",
              "name": "description",
              "type": "string"
            }
          ],
          "internalType": "struct ClockTowerSubscribe.Subscription[]",
          "name": "",
          "type": "tuple[]"
        }
      ],
      "stateMutability": "view",
      "type": "function"
    },
    {
      "inputs": [],
      "name": "getFee",
      "outputs": [
        {
          "internalType": "uint256",
          "name": "",
          "type": "uint256"
        }
      ],
      "stateMutability": "view",
      "type": "function"
    },
    {
      "inputs": [
        {
          "internalType": "address",
          "name": "erc20Contract",
          "type": "address"
        }
      ],
      "name": "removeERC20Contract",
      "outputs": [],
      "stateMutability": "nonpayable",
      "type": "function"
    },
    {
      "inputs": [
        {
          "components": [
            {
              "internalType": "bytes32",
              "name": "id",
              "type": "bytes32"
            },
            {
              "internalType": "uint256",
              "name": "amount",
              "type": "uint256"
            },
            {
              "internalType": "address",
              "name": "owner",
              "type": "address"
            },
            {
              "internalType": "address",
              "name": "token",
              "type": "address"
            },
            {
              "internalType": "bool",
              "name": "exists",
              "type": "bool"
            },
            {
              "internalType": "bool",
              "name": "cancelled",
              "type": "bool"
            },
            {
              "internalType": "enum ClockTowerSubscribe.SubType",
              "name": "subType",
              "type": "uint8"
            },
            {
              "internalType": "uint16",
              "name": "dueDay",
              "type": "uint16"
            },
            {
              "internalType": "string",
              "name": "description",
              "type": "string"
            }
          ],
          "internalType": "struct ClockTowerSubscribe.Subscription",
          "name": "subscription",
          "type": "tuple"
        }
      ],
      "name": "subscribe",
      "outputs": [],
      "stateMutability": "payable",
      "type": "function"
    },
    {
      "inputs": [],
      "name": "toggleContractActive",
      "outputs": [],
      "stateMutability": "nonpayable",
      "type": "function"
    },
    {
      "inputs": [
        {
          "internalType": "uint256",
          "name": "unix",
          "type": "uint256"
        }
      ],
      "name": "unixToDays",
      "outputs": [
        {
          "internalType": "uint16",
          "name": "yearDays",
          "type": "uint16"
        },
        {
          "internalType": "uint16",
          "name": "quarterDay",
          "type": "uint16"
        },
        {
          "internalType": "uint16",
          "name": "day",
          "type": "uint16"
        }
      ],
      "stateMutability": "pure",
      "type": "function"
    },
    {
      "inputs": [
        {
          "internalType": "bytes32",
          "name": "id",
          "type": "bytes32"
        }
      ],
      "name": "unsubscribe",
      "outputs": [],
      "stateMutability": "payable",
      "type": "function"
    },
    {
      "stateMutability": "payable",
      "type": "receive"
    }
  ],
  "bytecode": "0x6080604052600080546001600160a01b03191673f39fd6e51aad88f6f4ce6ab8827279cfffb922661790556127d86001908155662386f26fc100006002556009805460ff19169055620000524262000086565b6200005e91906200009c565b600960016101000a81548164ffffffffff021916908364ffffffffff16021790555062000104565b600062000096610e1083620000d1565b92915050565b600064ffffffffff83811690831681811015620000c957634e487b7160e01b600052601160045260246000fd5b039392505050565b600064ffffffffff80841680620000f857634e487b7160e01b600052601260045260246000fd5b92169190910492915050565b61298080620001146000396000f3fe6080604052600436106100d55760003560e01c80638f28397011610079578063ab7e090911610056578063ab7e090914610229578063ced72f8714610249578063dc70008914610267578063f8c601461461027c57005b80638f283970146101b157806393bc8413146101d1578063a429131a1461021657005b80633084f79e116100b25780633084f79e146101335780636a1db1bf146101465780637ce1ef39146101665780638e83ac4a1461019157005b8063053149fa146100de578063094f9977146100fe5780631385d24c1461011e57005b366100dc57005b005b3480156100ea57600080fd5b506100dc6100f9366004612360565b61028f565b34801561010a57600080fd5b506100dc61011936600461237b565b610477565b34801561012a57600080fd5b506100dc610818565b6100dc6101413660046123d8565b610834565b34801561015257600080fd5b506100dc610161366004612485565b610d3c565b34801561017257600080fd5b5061017b610d49565b604051610188919061252e565b60405180910390f35b34801561019d57600080fd5b506100dc6101ac366004612485565b610eb8565b3480156101bd57600080fd5b506100dc6101cc366004612360565b610ec5565b3480156101dd57600080fd5b506101f16101ec366004612485565b610f18565b6040805161ffff94851681529284166020840152921691810191909152606001610188565b6100dc61022436600461237b565b611114565b34801561023557600080fd5b506100dc610244366004612360565b6112b0565b34801561025557600080fd5b50600154604051908152602001610188565b34801561027357600080fd5b506100dc611357565b6100dc61028a366004612485565b6119b0565b6102976119c2565b6001600160a01b0381166102aa57600080fd5b6102b381611a02565b6102e85760405162461bcd60e51b81526020600482015260016024820152601960f91b60448201526064015b60405180910390fd5b6000600880548060200260200160405190810160405280929190818152602001828054801561034057602002820191906000526020600020905b81546001600160a01b03168152600190910190602001808311610322575b505050505090506000805b82518110156103a157836001600160a01b03168382815181106103705761037061260e565b60200260200101516001600160a01b0316141561038f578091506103a1565b806103998161263a565b91505061034b565b50805b6008546103b390600190612655565b81101561043e5760086103c782600161266c565b815481106103d7576103d761260e565b600091825260209091200154600880546001600160a01b0390921691839081106104035761040361260e565b600091825260209091200180546001600160a01b0319166001600160a01b0392909216919091179055806104368161263a565b9150506103a4565b50600880548061045057610450612684565b600082815260209020810160001990810180546001600160a01b0319169055019055505050565b61047f611ac3565b6104aa8135610495610100840160e0850161269a565b6104a560e0850160c086016126b5565b611af4565b6104da5760405162461bcd60e51b81526020600482015260016024820152603760f81b60448201526064016102df565b803560009081526006602090815260408083208054825181850281018501909352808352919290919083018282801561053c57602002820191906000526020600020905b81546001600160a01b0316815260019091019060200180831161051e575b5050505050905060005b81518110156105885761057683600001358383815181106105695761056961260e565b6020026020010151611b58565b806105808161263a565b915050610546565b50600060058161059e60e0860160c087016126b5565b60038111156105af576105af61249e565b815260200190815260200160002060008460e00160208101906105d2919061269a565b61ffff1661ffff168152602001908152602001600020805480602002602001604051908101604052809291908181526020016000905b828210156107725760008481526020908190206040805161012081018252600586029092018054835260018101549383019390935260028301546001600160a01b0390811691830191909152600380840154918216606084015260ff600160a01b8304811615156080850152600160a81b83048116151560a085015292939260c0850192600160b01b900416908111156106a4576106a461249e565b60038111156106b5576106b561249e565b81526003820154600160b81b900461ffff1660208201526004820180546040909201916106e1906126d0565b80601f016020809104026020016040519081016040528092919081815260200182805461070d906126d0565b801561075a5780601f1061072f5761010080835404028352916020019161075a565b820191906000526020600020905b81548152906001019060200180831161073d57829003601f168201915b50505050508152505081526020019060010190610608565b50505050905060005b825181101561081257836000013582828151811061079b5761079b61260e565b602002602001015160000151141561080057600560006107c160e0870160c088016126b5565b60038111156107d2576107d261249e565b815260200190815260200160002060008560e00160208101906107f5919061269a565b61ffff168152602001525b8061080a8161263a565b91505061077b565b50505050565b6108206119c2565b6009805460ff19811660ff90911615179055565b61083c611ac3565b6001600160a01b0385166108765760405162461bcd60e51b81526020600482015260016024820152600760fb1b60448201526064016102df565b3460025411156108ac5760405162461bcd60e51b81526020600482015260016024820152603560f81b60448201526064016102df565b6108b585611a02565b6108e55760405162461bcd60e51b81526020600482015260016024820152603960f81b60448201526064016102df565b6000861161091a5760405162461bcd60e51b8152602060048201526002602482015261031360f41b60448201526064016102df565b6000610961878787878080601f016020809104026020016040519081016040528093929190818152602001838380828437600092019190915250899250889150611ca59050565b905060008360038111156109775761097761249e565b14156109f2578161ffff166000108015610996575060078261ffff1611155b6109f25760405162461bcd60e51b815260206004820152602760248201527f5765656b6c79206475652064617465206d757374206265206265747765656e206044820152663120616e64203760c81b60648201526084016102df565b6001836003811115610a0657610a0661249e565b1415610a83578161ffff166000108015610a255750601c8261ffff1611155b610a835760405162461bcd60e51b815260206004820152602960248201527f4d6f6e74686c79206475652064617465206d757374206265206265747765656e6044820152680406240c2dcc84064760bb1b60648201526084016102df565b6002836003811115610a9757610a9761249e565b1415610b14578161ffff166000108015610ab65750605a8261ffff1611155b610b145760405162461bcd60e51b815260206004820152602960248201527f4d6f6e74686c79206475652064617465206d757374206265206265747765656e6044820152680203120616e642039360bc1b60648201526084016102df565b6003836003811115610b2857610b2861249e565b1415610ba6578161ffff166000108015610b48575061016d8261ffff1611155b610ba65760405162461bcd60e51b815260206004820152602960248201527f596561726c79206475652064617465206d757374206265206265747765656e206044820152683120616e642033363560b81b60648201526084016102df565b8060056000856003811115610bbd57610bbd61249e565b81526020808201929092526040908101600090812061ffff87168252835281812080546001818101835591835291849020855160059093020191825592840151928101929092558201516002820180546001600160a01b039283166001600160a01b0319909116179055606083015160038084018054608087015160a08801511515600160a81b0260ff60a81b19911515600160a01b026001600160a81b03199093169590961694909417179283168417815560c086015193909260ff60b01b1990911661ffff60a81b199091161790600160b01b908490811115610ca457610ca461249e565b021790555060e082015160038201805461ffff909216600160b81b0261ffff60b81b199092169190911790556101008201518051610cec91600484019160209091019061225f565b50905050610d336040518060600160405280836000015181526020018360e0015161ffff1681526020018360c001516003811115610d2c57610d2c61249e565b9052611d4c565b50505050505050565b610d446119c2565b600155565b336000908152600360209081526040808320600201805482518185028101850190935280835260609493849084015b82821015610df5576000848152602090819020604080516060810182526002860290920180548352600181015461ffff81169484019490945291929083019062010000900460ff166003811115610dd157610dd161249e565b6003811115610de257610de261249e565b8152505081526020019060010190610d78565b5050505090506000815167ffffffffffffffff811115610e1757610e1761270b565b604051908082528060200260200182016040528015610e5057816020015b610e3d6122e3565b815260200190600190039081610e355790505b50905060005b8251811015610eb157610e81838281518110610e7457610e7461260e565b6020026020010151611e58565b828281518110610e9357610e9361260e565b60200260200101819052508080610ea99061263a565b915050610e56565b5092915050565b610ec06119c2565b600255565b610ecd6119c2565b336001600160a01b038216148015610eed57506001600160a01b03811615155b610ef657600080fd5b600080546001600160a01b0319166001600160a01b0392909216919091179055565b6000808080610f2a6201518086612737565b9050806000610f3c8262010bd961274b565b610f499062253d8c61274b565b9050600062023ab1610f5c83600461278c565b610f669190612811565b90506004610f778262023ab161278c565b610f8290600361274b565b610f8c9190612811565b610f96908361283f565b9150600062164b09610fa984600161274b565b610fb590610fa061278c565b610fbf9190612811565b90506004610fcf826105b561278c565b610fd99190612811565b610fe3908461283f565b610fee90601f61274b565b9250600061098f61100085605061278c565b61100a9190612811565b90506000605061101c8361098f61278c565b6110269190612811565b611030908661283f565b905061103d600b83612811565b945061104a85600c61278c565b61105583600261274b565b61105f919061283f565b9150848361106e60318761283f565b61107990606461278c565b611083919061274b565b61108d919061274b565b909750915086828282600060015b8381116110e857838114156110bf576110b861ffff8e168361266c565b91506110d6565b6110c9858561209b565b6110d3908361266c565b91505b806110e08161263a565b91505061109b565b50809d5060006110fc8f61ffff1686612123565b9050809d505050505050505050505050509193909250565b61111c611ac3565b60208101356111316080830160608401612360565b604051636eb1769f60e11b81523360048201523060248201526001600160a01b03919091169063dd62ed3e90604401602060405180830381600087803b15801561117a57600080fd5b505af115801561118e573d6000803e3d6000fd5b505050506040513d601f19601f820116820180604052508101906111b2919061287e565b10156111e55760405162461bcd60e51b8152602060048201526002602482015261313360f01b60448201526064016102df565b6111fb8135610495610100840160e0850161269a565b61122b5760405162461bcd60e51b81526020600482015260016024820152603760f81b60448201526064016102df565b8035600081815260066020908152604080832080546001810182559084529282902090920180546001600160a01b031916331790558151606081019092529181526112ad918101611283610100850160e0860161269a565b61ffff16815260200161129c60e0850160c086016126b5565b6003811115610d2c57610d2c61249e565b50565b6112b86119c2565b6001600160a01b0381166112cb57600080fd5b6112d481611a02565b156113055760405162461bcd60e51b81526020600482015260016024820152603160f81b60448201526064016102df565b600880546001810182556000919091527ff3f7a9fe364faab93b216da50a3214154f22a0a2b415b23a84c8169e8b636ee30180546001600160a01b0319166001600160a01b0392909216919091179055565b61135f6119c2565b6000806000611371636427ba50610f18565b9250925092506000611382426121ef565b90508060005b600381116119a85760008161139a5750815b60018214156113a65750845b60028214156113b25750835b60038214156113be5750855b60005b600083815260056020908152604080832061ffff8616845290915290205481101561199357600083815260056020908152604080832061ffff8616845290915290208054829081106114155761141561260e565b906000526020600020906005020160030160159054906101000a900460ff1661198157600083815260056020908152604080832061ffff8616845290915281208054839081106114675761146761260e565b6000918252602080832060059283020154878452918152604080842061ffff881685529091528220805491935090849081106114a5576114a561260e565b6000918252602080832060059283020160030154888452918152604080842061ffff89168552909152822080546001600160a01b03909216935090859081106114f0576114f061260e565b9060005260206000209060050201600101549050600081612710600154846115189190612897565b6115229190612737565b61152c9190612655565b9050600061153a8284612655565b905060005b60008681526006602052604090205481101561197a5760008681526006602052604081208054839081106115755761157561260e565b60009182526020808320909101548c835260058252604080842061ffff8e168552909252912080546001600160a01b03909216925086918a9081106115bc576115bc61260e565b6000918252602090912060059091020160030154604051636eb1769f60e11b81526001600160a01b0384811660048301523060248301529091169063dd62ed3e90604401602060405180830381600087803b15801561161a57600080fd5b505af115801561162e573d6000803e3d6000fd5b505050506040513d601f19601f82011682018060405250810190611652919061287e565b10158015611716575084866001600160a01b03166370a08231600660008b8152602001908152602001600020858154811061168f5761168f61260e565b60009182526020909120015460405160e083901b6001600160e01b03191681526001600160a01b039091166004820152602401602060405180830381600087803b1580156116dc57600080fd5b505af11580156116f0573d6000803e3d6000fd5b505050506040513d601f19601f82011682018060405250810190611714919061287e565b105b1561178d576040805160608101825288815264ffffffffff428116602080840191825260008486018181526001600160a01b03881682526007909252949094209251835551600192909201805493511515650100000000000265ffffffffffff199094169290911691909117919091179055611967565b6040516323b872dd60e01b81526001600160a01b038281166004830152336024830152604482018690528716906323b872dd90606401602060405180830381600087803b1580156117dd57600080fd5b505af11580156117f1573d6000803e3d6000fd5b505050506040513d601f19601f8201168201806040525081019061181591906128b6565b61181e57600080fd5b6040805160608101825288815264ffffffffff428116602080840191825260018486018181526001600160a01b0380891660009081526007855288812097518855945196909201805491511515650100000000000265ffffffffffff199092169690951695909517949094179092558d81526005825283812061ffff8e168252909152919091208054918816916323b872dd9184918c9081106118c3576118c361260e565b600091825260209091206005909102016002015460405160e084901b6001600160e01b03191681526001600160a01b0392831660048201529116602482015260448101869052606401602060405180830381600087803b15801561192657600080fd5b505af115801561193a573d6000803e3d6000fd5b505050506040513d601f19601f8201168201806040525081019061195e91906128b6565b61196757600080fd5b50806119728161263a565b91505061153f565b5050505050505b8061198b8161263a565b9150506113c1565b505080806119a09061263a565b915050611388565b505050505050565b6119b8611ac3565b6112ad8133611b58565b6000546001600160a01b03163314611a005760405162461bcd60e51b81526020600482015260016024820152600360fc1b60448201526064016102df565b565b6000806008805480602002602001604051908101604052809291908181526020018280548015611a5b57602002820191906000526020600020905b81546001600160a01b03168152600190910190602001808311611a3d575b505050505090506000915060005b8151811015611abc57818181518110611a8457611a8461260e565b60200260200101516001600160a01b0316846001600160a01b03161415611aaa57600192505b80611ab48161263a565b915050611a69565b5050919050565b33611a005760405162461bcd60e51b81526020600482015260016024820152603360f81b60448201526064016102df565b60008060405180606001604052808681526020018561ffff168152602001846003811115611b2457611b2461249e565b905290506000611b3382611e58565b9050806080015115611b4a57600192505050611b51565b6000925050505b9392505050565b600082815260066020526040812090805b8254811015611c9e57836001600160a01b0316838281548110611b8e57611b8e61260e565b6000918252602090912001546001600160a01b03161415611bdc57809150828181548110611bbe57611bbe61260e565b600091825260209091200180546001600160a01b0319169055611c9e565b82548390611bec90600190612655565b81548110611bfc57611bfc61260e565b9060005260206000200160009054906101000a90046001600160a01b0316838381548110611c2c57611c2c61260e565b9060005260206000200160006101000a8154816001600160a01b0302191690836001600160a01b0316021790555082805480611c6a57611c6a612684565b600082815260209020810160001990810180546001600160a01b031916905501905580611c968161263a565b915050611b69565b5050505050565b611cad6122e3565b60003386848742604051602001611cc89594939291906128d8565b60408051601f198184030181528282528051602091820120610120840183528084529083018a905233918301919091526001600160a01b038816606083015260016080830152600060a0830152915060c08101856003811115611d2d57611d2d61249e565b81526020018461ffff1681526020018681525091505095945050505050565b33600090815260036020526040902054600160a01b900460ff16611dd65733600081815260036020526040812080546001600160a01b03199081168417825560048054600181019091557f8a35acfbc15ff81a39ae7d344fd709f28e8600b4aa8c65c6b64bfe7fe36bd19b01805490911684179055919052805460ff60a01b1916600160a01b1790555b33600090815260036020818152604080842060029081018054600180820183559187529584902087519690920290910194855591850151918401805461ffff19811661ffff9094169384178255918601518695949093919262ffffff19169091179062010000908490811115611e4e57611e4e61249e565b0217905550505050565b611e606122e3565b60006005600084604001516003811115611e7c57611e7c61249e565b81526020019081526020016000206000846020015161ffff1661ffff168152602001908152602001600020805480602002602001604051908101604052809291908181526020016000905b828210156120315760008481526020908190206040805161012081018252600586029092018054835260018101549383019390935260028301546001600160a01b0390811691830191909152600380840154918216606084015260ff600160a01b8304811615156080850152600160a81b83048116151560a085015292939260c0850192600160b01b90041690811115611f6357611f6361249e565b6003811115611f7457611f7461249e565b81526003820154600160b81b900461ffff166020820152600482018054604090920191611fa0906126d0565b80601f0160208091040260200160405190810160405280929190818152602001828054611fcc906126d0565b80156120195780601f10611fee57610100808354040283529160200191612019565b820191906000526020600020905b815481529060010190602001808311611ffc57829003601f168201915b50505050508152505081526020019060010190611ec7565b50505050905060005b8151811015611abc57836000015182828151811061205a5761205a61260e565b60200260200101516000015114156120895781818151811061207e5761207e61260e565b602002602001015192505b806120938161263a565b91505061203a565b600081600114806120ac5750816003145b806120b75750816005145b806120c25750816007145b806120cd5750816008145b806120d8575081600a145b806120e3575081600c145b156120f05750601f61211d565b816002146121005750601e61211d565b61210983612223565b61211457601c612117565b601d5b60ff1690505b92915050565b60008061212f83612223565b1561213c57506001612140565b5060005b61214b81605a61266c565b841161215957839150610eb1565b8361216582605a61266c565b10801561217c57506121788160b561266c565b8411155b1561219d5761218c81605a61266c565b6121969085612655565b9150610eb1565b836121a98260b561266c565b1080156121c157506121bd8161011161266c565b8411155b156121d15761218c8160b561266c565b6121dd8161011161266c565b6121e79085612655565b949350505050565b6000806121ff6201518084612737565b9050600761220e82600361266c565b6122189190612936565b611b5190600161266c565b6000612230600483612936565b1580156122465750612243606483612936565b15155b8061211d575061225861019083612936565b1592915050565b82805461226b906126d0565b90600052602060002090601f01602090048101928261228d57600085556122d3565b82601f106122a657805160ff19168380011785556122d3565b828001600101855582156122d3579182015b828111156122d35782518255916020019190600101906122b8565b506122df92915061232f565b5090565b6040805161012081018252600080825260208201819052918101829052606081018290526080810182905260a081018290529060c0820190815260006020820152606060409091015290565b5b808211156122df5760008155600101612330565b80356001600160a01b038116811461235b57600080fd5b919050565b60006020828403121561237257600080fd5b611b5182612344565b60006020828403121561238d57600080fd5b813567ffffffffffffffff8111156123a457600080fd5b82016101208185031215611b5157600080fd5b80356004811061235b57600080fd5b803561ffff8116811461235b57600080fd5b60008060008060008060a087890312156123f157600080fd5b8635955061240160208801612344565b9450604087013567ffffffffffffffff8082111561241e57600080fd5b818901915089601f83011261243257600080fd5b81358181111561244157600080fd5b8a602082850101111561245357600080fd5b60208301965080955050505061246b606088016123b7565b9150612479608088016123c6565b90509295509295509295565b60006020828403121561249757600080fd5b5035919050565b634e487b7160e01b600052602160045260246000fd5b600481106124d257634e487b7160e01b600052602160045260246000fd5b9052565b60005b838110156124f15781810151838201526020016124d9565b838111156108125750506000910152565b6000815180845261251a8160208601602086016124d6565b601f01601f19169290920160200192915050565b60006020808301818452808551808352604092508286019150828160051b87010184880160005b8381101561260057603f198984030185528151805184528781015188850152868101516001600160a01b03908116888601526060808301519091169085015260808082015115159085015260a08082015115159085015260c08082015161012091906125c3828801826124b4565b505060e08281015161ffff1690860152610100918201519185018190526125ec81860183612502565b968901969450505090860190600101612555565b509098975050505050505050565b634e487b7160e01b600052603260045260246000fd5b634e487b7160e01b600052601160045260246000fd5b600060001982141561264e5761264e612624565b5060010190565b60008282101561266757612667612624565b500390565b6000821982111561267f5761267f612624565b500190565b634e487b7160e01b600052603160045260246000fd5b6000602082840312156126ac57600080fd5b611b51826123c6565b6000602082840312156126c757600080fd5b611b51826123b7565b600181811c908216806126e457607f821691505b6020821081141561270557634e487b7160e01b600052602260045260246000fd5b50919050565b634e487b7160e01b600052604160045260246000fd5b634e487b7160e01b600052601260045260246000fd5b60008261274657612746612721565b500490565b600080821280156001600160ff1b038490038513161561276d5761276d612624565b600160ff1b839003841281161561278657612786612624565b50500190565b60006001600160ff1b03818413828413808216868404861116156127b2576127b2612624565b600160ff1b60008712828116878305891216156127d1576127d1612624565b600087129250878205871284841616156127ed576127ed612624565b8785058712818416161561280357612803612624565b505050929093029392505050565b60008261282057612820612721565b600160ff1b82146000198414161561283a5761283a612624565b500590565b60008083128015600160ff1b85018412161561285d5761285d612624565b6001600160ff1b038401831381161561287857612878612624565b50500390565b60006020828403121561289057600080fd5b5051919050565b60008160001904831182151516156128b1576128b1612624565b500290565b6000602082840312156128c857600080fd5b81518015158114611b5157600080fd5b60006bffffffffffffffffffffffff19808860601b168352808760601b1660148401525061ffff60f01b8560f01b166028830152835161291f81602a8501602088016124d6565b602a920191820192909252604a0195945050505050565b60008261294557612945612721565b50069056fea26469706673582212205fc839f97fe0ea601f050e12742aed2549f32892e6d456c6aed65dc725ab48ed64736f6c63430008090033",
  "linkReferences": {},
  "deployedLinkReferences": {}
}