{
  "_format": "hh-sol-artifact-1",
  "contractName": "ClockTowerSubscribe",
  "sourceName": "contracts/ClockTowerSubscribe.sol",
  "abi": [
    {
      "inputs": [],
      "stateMutability": "payable",
      "type": "constructor"
    },
    {
      "anonymous": false,
      "inputs": [
        {
          "indexed": false,
          "internalType": "uint40",
          "name": "timestamp",
          "type": "uint40"
        },
        {
          "indexed": false,
          "internalType": "uint40",
          "name": "checkedDay",
          "type": "uint40"
        },
        {
          "indexed": true,
          "internalType": "address",
          "name": "caller",
          "type": "address"
        },
        {
          "indexed": false,
          "internalType": "bool",
          "name": "isFinished",
          "type": "bool"
        }
      ],
      "name": "CallerLog",
      "type": "event"
    },
    {
      "anonymous": false,
      "inputs": [
        {
          "indexed": true,
          "internalType": "bytes32",
          "name": "id",
          "type": "bytes32"
        },
        {
          "indexed": true,
          "internalType": "address",
          "name": "provider",
          "type": "address"
        },
        {
          "indexed": false,
          "internalType": "uint40",
          "name": "timestamp",
          "type": "uint40"
        },
        {
          "indexed": false,
          "internalType": "uint256",
          "name": "amount",
          "type": "uint256"
        },
        {
          "indexed": true,
          "internalType": "enum ClockTowerSubscribe.ProvEvent",
          "name": "provEvent",
          "type": "uint8"
        }
      ],
      "name": "ProviderLog",
      "type": "event"
    },
    {
      "anonymous": false,
      "inputs": [
        {
          "indexed": true,
          "internalType": "bytes32",
          "name": "id",
          "type": "bytes32"
        },
        {
          "indexed": true,
          "internalType": "address",
          "name": "subscriber",
          "type": "address"
        },
        {
          "indexed": false,
          "internalType": "uint40",
          "name": "timestamp",
          "type": "uint40"
        },
        {
          "indexed": false,
          "internalType": "uint256",
          "name": "amount",
          "type": "uint256"
        },
        {
          "indexed": true,
          "internalType": "enum ClockTowerSubscribe.SubEvent",
          "name": "subEvent",
          "type": "uint8"
        }
      ],
      "name": "SubscriberLog",
      "type": "event"
    },
    {
      "stateMutability": "payable",
      "type": "fallback"
    },
    {
      "inputs": [
        {
          "internalType": "address",
          "name": "erc20Contract",
          "type": "address"
        },
        {
          "internalType": "uint256",
          "name": "minimum",
          "type": "uint256"
        }
      ],
      "name": "addERC20Contract",
      "outputs": [],
      "stateMutability": "nonpayable",
      "type": "function"
    },
    {
      "inputs": [],
      "name": "callerFee",
      "outputs": [
        {
          "internalType": "uint256",
          "name": "",
          "type": "uint256"
        }
      ],
      "stateMutability": "view",
      "type": "function"
    },
    {
      "inputs": [
        {
          "components": [
            {
              "internalType": "bytes32",
              "name": "id",
              "type": "bytes32"
            },
            {
              "internalType": "uint256",
              "name": "amount",
              "type": "uint256"
            },
            {
              "internalType": "address",
              "name": "provider",
              "type": "address"
            },
            {
              "internalType": "address",
              "name": "token",
              "type": "address"
            },
            {
              "internalType": "bool",
              "name": "exists",
              "type": "bool"
            },
            {
              "internalType": "bool",
              "name": "cancelled",
              "type": "bool"
            },
            {
              "internalType": "enum ClockTowerSubscribe.Frequency",
              "name": "frequency",
              "type": "uint8"
            },
            {
              "internalType": "uint16",
              "name": "dueDay",
              "type": "uint16"
            },
            {
              "internalType": "string",
              "name": "description",
              "type": "string"
            }
          ],
          "internalType": "struct ClockTowerSubscribe.Subscription",
          "name": "subscription",
          "type": "tuple"
        }
      ],
      "name": "cancelSubscription",
      "outputs": [],
      "stateMutability": "nonpayable",
      "type": "function"
    },
    {
      "inputs": [
        {
          "internalType": "address payable",
          "name": "newAddress",
          "type": "address"
        }
      ],
      "name": "changeAdmin",
      "outputs": [],
      "stateMutability": "nonpayable",
      "type": "function"
    },
    {
      "inputs": [
        {
          "internalType": "uint256",
          "name": "_fee",
          "type": "uint256"
        }
      ],
      "name": "changeCallerFee",
      "outputs": [],
      "stateMutability": "nonpayable",
      "type": "function"
    },
    {
      "inputs": [
        {
          "internalType": "uint256",
          "name": "_maxRemits",
          "type": "uint256"
        }
      ],
      "name": "changeMaxRemits",
      "outputs": [],
      "stateMutability": "nonpayable",
      "type": "function"
    },
    {
      "inputs": [
        {
          "internalType": "uint256",
          "name": "_fixed_fee",
          "type": "uint256"
        }
      ],
      "name": "changeSystemFee",
      "outputs": [],
      "stateMutability": "nonpayable",
      "type": "function"
    },
    {
      "inputs": [],
      "name": "collectFees",
      "outputs": [],
      "stateMutability": "nonpayable",
      "type": "function"
    },
    {
      "inputs": [
        {
          "internalType": "uint256",
          "name": "amount",
          "type": "uint256"
        },
        {
          "internalType": "address",
          "name": "token",
          "type": "address"
        },
        {
          "internalType": "string",
          "name": "description",
          "type": "string"
        },
        {
          "internalType": "enum ClockTowerSubscribe.Frequency",
          "name": "frequency",
          "type": "uint8"
        },
        {
          "internalType": "uint16",
          "name": "dueDay",
          "type": "uint16"
        }
      ],
      "name": "createSubscription",
      "outputs": [],
      "stateMutability": "payable",
      "type": "function"
    },
    {
      "inputs": [
        {
          "internalType": "bytes32",
          "name": "",
          "type": "bytes32"
        },
        {
          "internalType": "address",
          "name": "",
          "type": "address"
        }
      ],
      "name": "feeBalance",
      "outputs": [
        {
          "internalType": "uint256",
          "name": "",
          "type": "uint256"
        }
      ],
      "stateMutability": "view",
      "type": "function"
    },
    {
      "inputs": [],
      "name": "feeEstimate",
      "outputs": [
        {
          "components": [
            {
              "internalType": "uint256",
              "name": "fee",
              "type": "uint256"
            },
            {
              "internalType": "address",
              "name": "token",
              "type": "address"
            }
          ],
          "internalType": "struct ClockTowerSubscribe.FeeEstimate[]",
          "name": "",
          "type": "tuple[]"
        }
      ],
      "stateMutability": "view",
      "type": "function"
    },
    {
      "inputs": [
        {
          "internalType": "bool",
          "name": "bySubscriber",
          "type": "bool"
        }
      ],
      "name": "getAccountSubscriptions",
      "outputs": [
        {
          "components": [
            {
              "components": [
                {
                  "internalType": "bytes32",
                  "name": "id",
                  "type": "bytes32"
                },
                {
                  "internalType": "uint256",
                  "name": "amount",
                  "type": "uint256"
                },
                {
                  "internalType": "address",
                  "name": "provider",
                  "type": "address"
                },
                {
                  "internalType": "address",
                  "name": "token",
                  "type": "address"
                },
                {
                  "internalType": "bool",
                  "name": "exists",
                  "type": "bool"
                },
                {
                  "internalType": "bool",
                  "name": "cancelled",
                  "type": "bool"
                },
                {
                  "internalType": "enum ClockTowerSubscribe.Frequency",
                  "name": "frequency",
                  "type": "uint8"
                },
                {
                  "internalType": "uint16",
                  "name": "dueDay",
                  "type": "uint16"
                },
                {
                  "internalType": "string",
                  "name": "description",
                  "type": "string"
                }
              ],
              "internalType": "struct ClockTowerSubscribe.Subscription",
              "name": "subscription",
              "type": "tuple"
            },
            {
              "internalType": "enum ClockTowerSubscribe.Status",
              "name": "status",
              "type": "uint8"
            },
            {
              "internalType": "uint256",
              "name": "totalSubscribers",
              "type": "uint256"
            }
          ],
          "internalType": "struct ClockTowerSubscribe.SubView[]",
          "name": "",
          "type": "tuple[]"
        }
      ],
      "stateMutability": "view",
      "type": "function"
    },
    {
      "inputs": [],
      "name": "getAllAccounts",
      "outputs": [
        {
          "components": [
            {
              "internalType": "address",
              "name": "accountAddress",
              "type": "address"
            },
            {
              "internalType": "bool",
              "name": "exists",
              "type": "bool"
            },
            {
              "internalType": "uint40[]",
              "name": "timeTriggers",
              "type": "uint40[]"
            },
            {
              "components": [
                {
                  "internalType": "bytes32",
                  "name": "id",
                  "type": "bytes32"
                },
                {
                  "internalType": "uint16",
                  "name": "dueDay",
                  "type": "uint16"
                },
                {
                  "internalType": "enum ClockTowerSubscribe.Frequency",
                  "name": "frequency",
                  "type": "uint8"
                },
                {
                  "internalType": "enum ClockTowerSubscribe.Status",
                  "name": "status",
                  "type": "uint8"
                }
              ],
              "internalType": "struct ClockTowerSubscribe.SubIndex[]",
              "name": "subscriptions",
              "type": "tuple[]"
            },
            {
              "components": [
                {
                  "internalType": "bytes32",
                  "name": "id",
                  "type": "bytes32"
                },
                {
                  "internalType": "uint16",
                  "name": "dueDay",
                  "type": "uint16"
                },
                {
                  "internalType": "enum ClockTowerSubscribe.Frequency",
                  "name": "frequency",
                  "type": "uint8"
                },
                {
                  "internalType": "enum ClockTowerSubscribe.Status",
                  "name": "status",
                  "type": "uint8"
                }
              ],
              "internalType": "struct ClockTowerSubscribe.SubIndex[]",
              "name": "provSubs",
              "type": "tuple[]"
            }
          ],
          "internalType": "struct ClockTowerSubscribe.Account[]",
          "name": "",
          "type": "tuple[]"
        }
      ],
      "stateMutability": "view",
      "type": "function"
    },
    {
      "inputs": [
        {
          "internalType": "bytes32",
          "name": "id",
          "type": "bytes32"
        }
      ],
      "name": "getSubscribersById",
      "outputs": [
        {
          "components": [
            {
              "internalType": "address",
              "name": "subscriber",
              "type": "address"
            },
            {
              "internalType": "uint256",
              "name": "feeBalance",
              "type": "uint256"
            }
          ],
          "internalType": "struct ClockTowerSubscribe.SubscriberView[]",
          "name": "",
          "type": "tuple[]"
        }
      ],
      "stateMutability": "view",
      "type": "function"
    },
    {
      "inputs": [
        {
          "internalType": "bool",
          "name": "bySubscriber",
          "type": "bool"
        },
        {
          "internalType": "address",
          "name": "account",
          "type": "address"
        }
      ],
      "name": "getSubscriptionsByAccount",
      "outputs": [
        {
          "components": [
            {
              "components": [
                {
                  "internalType": "bytes32",
                  "name": "id",
                  "type": "bytes32"
                },
                {
                  "internalType": "uint256",
                  "name": "amount",
                  "type": "uint256"
                },
                {
                  "internalType": "address",
                  "name": "provider",
                  "type": "address"
                },
                {
                  "internalType": "address",
                  "name": "token",
                  "type": "address"
                },
                {
                  "internalType": "bool",
                  "name": "exists",
                  "type": "bool"
                },
                {
                  "internalType": "bool",
                  "name": "cancelled",
                  "type": "bool"
                },
                {
                  "internalType": "enum ClockTowerSubscribe.Frequency",
                  "name": "frequency",
                  "type": "uint8"
                },
                {
                  "internalType": "uint16",
                  "name": "dueDay",
                  "type": "uint16"
                },
                {
                  "internalType": "string",
                  "name": "description",
                  "type": "string"
                }
              ],
              "internalType": "struct ClockTowerSubscribe.Subscription",
              "name": "subscription",
              "type": "tuple"
            },
            {
              "internalType": "enum ClockTowerSubscribe.Status",
              "name": "status",
              "type": "uint8"
            },
            {
              "internalType": "uint256",
              "name": "totalSubscribers",
              "type": "uint256"
            }
          ],
          "internalType": "struct ClockTowerSubscribe.SubView[]",
          "name": "",
          "type": "tuple[]"
        }
      ],
      "stateMutability": "view",
      "type": "function"
    },
    {
      "inputs": [],
      "name": "maxRemits",
      "outputs": [
        {
          "internalType": "uint256",
          "name": "",
          "type": "uint256"
        }
      ],
      "stateMutability": "view",
      "type": "function"
    },
    {
      "inputs": [],
      "name": "nextUncheckedDay",
      "outputs": [
        {
          "internalType": "uint40",
          "name": "",
          "type": "uint40"
        }
      ],
      "stateMutability": "view",
      "type": "function"
    },
    {
      "inputs": [],
      "name": "remit",
      "outputs": [],
      "stateMutability": "payable",
      "type": "function"
    },
    {
      "inputs": [
        {
          "internalType": "address",
          "name": "erc20Contract",
          "type": "address"
        }
      ],
      "name": "removeERC20Contract",
      "outputs": [],
      "stateMutability": "nonpayable",
      "type": "function"
    },
    {
      "inputs": [
        {
          "internalType": "bool",
          "name": "status",
          "type": "bool"
        }
      ],
      "name": "setExternalCallers",
      "outputs": [],
      "stateMutability": "nonpayable",
      "type": "function"
    },
    {
      "inputs": [
        {
          "components": [
            {
              "internalType": "bytes32",
              "name": "id",
              "type": "bytes32"
            },
            {
              "internalType": "uint256",
              "name": "amount",
              "type": "uint256"
            },
            {
              "internalType": "address",
              "name": "provider",
              "type": "address"
            },
            {
              "internalType": "address",
              "name": "token",
              "type": "address"
            },
            {
              "internalType": "bool",
              "name": "exists",
              "type": "bool"
            },
            {
              "internalType": "bool",
              "name": "cancelled",
              "type": "bool"
            },
            {
              "internalType": "enum ClockTowerSubscribe.Frequency",
              "name": "frequency",
              "type": "uint8"
            },
            {
              "internalType": "uint16",
              "name": "dueDay",
              "type": "uint16"
            },
            {
              "internalType": "string",
              "name": "description",
              "type": "string"
            }
          ],
          "internalType": "struct ClockTowerSubscribe.Subscription",
          "name": "subscription",
          "type": "tuple"
        }
      ],
      "name": "subscribe",
      "outputs": [],
      "stateMutability": "payable",
      "type": "function"
    },
    {
      "inputs": [],
      "name": "systemFee",
      "outputs": [
        {
          "internalType": "uint256",
          "name": "",
          "type": "uint256"
        }
      ],
      "stateMutability": "view",
      "type": "function"
    },
    {
      "inputs": [
        {
          "internalType": "bool",
          "name": "status",
          "type": "bool"
        }
      ],
      "name": "systemFeeActivate",
      "outputs": [],
      "stateMutability": "nonpayable",
      "type": "function"
    },
    {
      "inputs": [
        {
          "components": [
            {
              "internalType": "bytes32",
              "name": "id",
              "type": "bytes32"
            },
            {
              "internalType": "uint256",
              "name": "amount",
              "type": "uint256"
            },
            {
              "internalType": "address",
              "name": "provider",
              "type": "address"
            },
            {
              "internalType": "address",
              "name": "token",
              "type": "address"
            },
            {
              "internalType": "bool",
              "name": "exists",
              "type": "bool"
            },
            {
              "internalType": "bool",
              "name": "cancelled",
              "type": "bool"
            },
            {
              "internalType": "enum ClockTowerSubscribe.Frequency",
              "name": "frequency",
              "type": "uint8"
            },
            {
              "internalType": "uint16",
              "name": "dueDay",
              "type": "uint16"
            },
            {
              "internalType": "string",
              "name": "description",
              "type": "string"
            }
          ],
          "internalType": "struct ClockTowerSubscribe.Subscription",
          "name": "subscription",
          "type": "tuple"
        }
      ],
      "name": "unsubscribe",
      "outputs": [],
      "stateMutability": "payable",
      "type": "function"
    },
    {
      "inputs": [
        {
          "components": [
            {
              "internalType": "bytes32",
              "name": "id",
              "type": "bytes32"
            },
            {
              "internalType": "uint256",
              "name": "amount",
              "type": "uint256"
            },
            {
              "internalType": "address",
              "name": "provider",
              "type": "address"
            },
            {
              "internalType": "address",
              "name": "token",
              "type": "address"
            },
            {
              "internalType": "bool",
              "name": "exists",
              "type": "bool"
            },
            {
              "internalType": "bool",
              "name": "cancelled",
              "type": "bool"
            },
            {
              "internalType": "enum ClockTowerSubscribe.Frequency",
              "name": "frequency",
              "type": "uint8"
            },
            {
              "internalType": "uint16",
              "name": "dueDay",
              "type": "uint16"
            },
            {
              "internalType": "string",
              "name": "description",
              "type": "string"
            }
          ],
          "internalType": "struct ClockTowerSubscribe.Subscription",
          "name": "subscription",
          "type": "tuple"
        },
        {
          "internalType": "address",
          "name": "subscriber",
          "type": "address"
        }
      ],
      "name": "unsubscribeByProvider",
      "outputs": [],
      "stateMutability": "nonpayable",
      "type": "function"
    },
    {
      "stateMutability": "payable",
      "type": "receive"
    }
  ],
  "bytecode": "0x608060408190526127d8600055662386f26fc10000600155600560029081556006805460ff60d81b191690556358a6076b60e11b90915264ffffffffff421660845273__$cc6b0ba9819abe3367bde24a3a29d779d3$__63b14c0ed660a460206040518083038186803b1580156200007657600080fd5b505af41580156200008b573d6000803e3d6000fd5b505050506040513d601f19601f82011682018060405250810190620000b1919062000112565b620000bd919062000142565b60068054610100600160d01b03191661010064ffffffffff9390931692909202600160301b600160d01b0319169190911779f39fd6e51aad88f6f4ce6ab8827279cfffb9226600000000000017905562000177565b6000602082840312156200012557600080fd5b815164ffffffffff811681146200013b57600080fd5b9392505050565b600064ffffffffff838116908316818110156200016f57634e487b7160e01b600052601160045260246000fd5b039392505050565b615bba80620001876000396000f3fe6080604052600436106101825760003560e01c80638f283970116100d5578063c879657211610084578063e63d35be11610061578063e63d35be1461041c578063ebec6eaa1461043e578063f25e13c914610476578063fedce9401461049657005b8063c8796572146103b8578063cab1c965146103cd578063da854a96146103e357005b8063a429131a116100b2578063a429131a14610365578063a5af2abd14610378578063b4761de91461039857005b80638f283970146103055780639889552e14610325578063a2349caf1461034557005b80633084f79e116101315780637507ba391161010e5780637507ba39146102b05780637bbf5a6e146102b85780638ef0ef1c146102e557005b80633084f79e1461025a57806334d441d01461026d5780636605ac0d1461028357005b80630bec99e81161015f5780630bec99e8146101f65780631f17ee551461021657806327ea97731461023a57005b8063053149fa1461018b57806308e93d0a146101ab578063094f9977146101d657005b3661018957005b005b34801561019757600080fd5b506101896101a636600461509a565b6104a9565b3480156101b757600080fd5b506101c061053c565b6040516101cd919061516d565b60405180910390f35b3480156101e257600080fd5b506101896101f1366004615260565b610905565b34801561020257600080fd5b5061018961021136600461529c565b61142e565b34801561022257600080fd5b5061022c60015481565b6040519081526020016101cd565b34801561024657600080fd5b5061018961025536600461529c565b61143b565b6101896102683660046152df565b611448565b34801561027957600080fd5b5061022c60005481565b34801561028f57600080fd5b506102a361029e3660046153ab565b61195f565b6040516101cd9190615420565b610189611d60565b3480156102c457600080fd5b506102d86102d336600461529c565b612d0c565b6040516101cd9190615553565b3480156102f157600080fd5b5061018961030036600461529c565b612f05565b34801561031157600080fd5b5061018961032036600461509a565b612f12565b34801561033157600080fd5b506101896103403660046153ab565b612f87565b34801561035157600080fd5b5061018961036036600461573d565b612fad565b610189610373366004615260565b613407565b34801561038457600080fd5b506102a361039336600461578f565b613984565b3480156103a457600080fd5b506101896103b33660046153ab565b613d54565b3480156103c457600080fd5b50610189613d7a565b3480156103d957600080fd5b5061022c60025481565b3480156103ef57600080fd5b5060065461040690610100900464ffffffffff1681565b60405164ffffffffff90911681526020016101cd565b34801561042857600080fd5b50610431613ddd565b6040516101cd91906157bd565b34801561044a57600080fd5b5061022c610459366004615808565b600960209081526000928352604080842090915290825290205481565b34801561048257600080fd5b5061018961049136600461582d565b6143a9565b6101896104a4366004615859565b614468565b6104b161482b565b6001600160a01b0381166104c457600080fd5b6104cd81614874565b6105025760405162461bcd60e51b81526020600482015260016024820152601960f91b60448201526064015b60405180910390fd5b6001600160a01b0316600090815260056020526040812080546001600160a01b03191681556001810191909155600201805460ff19169055565b606061054661482b565b6000600880548060200260200160405190810160405280929190818152602001828054801561059e57602002820191906000526020600020905b81546001600160a01b03168152600190910190602001808311610580575b505050505090506000815167ffffffffffffffff8111156105c1576105c16155ab565b60405190808252806020026020018201604052801561061c57816020015b6040805160a08101825260008082526020820152606091810182905281810182905260808101919091528152602001906001900390816105df5790505b50905060005b82518110156108fe57600760008483815181106106415761064161588e565b6020908102919091018101516001600160a01b039081168352828201939093526040918201600020825160a08101845281549485168152600160a01b90940460ff16151584830152600181018054845181850281018501865281815292948601938301828280156106ff57602002820191906000526020600020906000905b82829054906101000a900464ffffffffff1664ffffffffff16815260200190600501906020826004010492830192600103820291508084116106c05790505b5050505050815260200160028201805480602002602001604051908101604052809291908181526020016000905b828210156107e3576000848152602090819020604080516080810182526002860290920180548352600181015461ffff81169484019490945291929083019062010000900460ff166003811115610786576107866150be565b6003811115610797576107976150be565b81526020016001820160039054906101000a900460ff1660028111156107bf576107bf6150be565b60028111156107d0576107d06150be565b815250508152602001906001019061072d565b50505050815260200160038201805480602002602001604051908101604052809291908181526020016000905b828210156108c6576000848152602090819020604080516080810182526002860290920180548352600181015461ffff81169484019490945291929083019062010000900460ff166003811115610869576108696150be565b600381111561087a5761087a6150be565b81526020016001820160039054906101000a900460ff1660028111156108a2576108a26150be565b60028111156108b3576108b36150be565b8152505081526020019060010190610810565b50505050815250508282815181106108e0576108e061588e565b602002602001018190525080806108f6906158ba565b915050610622565b5091505090565b61090d6148a7565b61093a8135610923610100840160e085016158d5565b61093360e0850160c086016158f2565b60006148d8565b61096a5760405162461bcd60e51b81526020600482015260016024820152603760f81b60448201526064016104f9565b61097a606082016040830161509a565b6001600160a01b0316336001600160a01b0316146109bf5760405162461bcd60e51b8152602060048201526002602482015261323360f01b60448201526064016104f9565b33600090815260076020908152604080832060030180548251818502810185019093528083529192909190849084015b82821015610aa5576000848152602090819020604080516080810182526002860290920180548352600181015461ffff81169484019490945291929083019062010000900460ff166003811115610a4857610a486150be565b6003811115610a5957610a596150be565b81526020016001820160039054906101000a900460ff166002811115610a8157610a816150be565b6002811115610a9257610a926150be565b81525050815260200190600101906109ef565b5050336000908152600760205260408120600301549394509150505b81811015610b64578360000135838281518110610ae057610ae061588e565b6020026020010151600001511415610b525733600090815260076020526040902060030180546001919083908110610b1a57610b1a61588e565b906000526020600020906002020160010160036101000a81548160ff02191690836002811115610b4c57610b4c6150be565b02179055505b80610b5c816158ba565b915050610ac1565b5082356000908152600b6020908152604080832080548251818502810185019093528083529192909190830182828015610bc757602002820191906000526020600020905b81546001600160a01b03168152600190910190602001808311610ba9575b5050505050905060005b815181101561110e578435600090815260096020526040812083518290859085908110610c0057610c0061588e565b60200260200101516001600160a01b03166001600160a01b03168152602001908152602001600020549050600580811115610c3d57610c3d6150be565b838381518110610c4f57610c4f61588e565b60200260200101516001600160a01b03168760000135600080516020615b658339815191524285604051610c9692919064ffffffffff929092168252602082015260400190565b60405180910390a4853560009081526009602052604081208451909190859085908110610cc557610cc561588e565b60200260200101516001600160a01b03166001600160a01b0316815260200190815260200160002060009055856060016020810190610d04919061509a565b6001600160a01b031663a9059cbb848481518110610d2457610d2461588e565b6020026020010151836040518363ffffffff1660e01b8152600401610d5e9291906001600160a01b03929092168252602082015260400190565b602060405180830381600087803b158015610d7857600080fd5b505af1158015610d8c573d6000803e3d6000fd5b505050506040513d601f19601f82011682018060405250810190610db0919061590d565b610de15760405162461bcd60e51b8152602060048201526002602482015261323160f01b60448201526064016104f9565b600060076000858581518110610df957610df961588e565b60200260200101516001600160a01b03166001600160a01b031681526020019081526020016000206002018054905067ffffffffffffffff811115610e4057610e406155ab565b604051908082528060200260200182016040528015610e9b57816020015b610e8860408051608081018252600080825260208201819052909182019081526020016000905290565b815260200190600190039081610e5e5790505b50905060076000858581518110610eb457610eb461588e565b60200260200101516001600160a01b03166001600160a01b03168152602001908152602001600020600201805480602002602001604051908101604052809291908181526020016000905b82821015610fb5576000848152602090819020604080516080810182526002860290920180548352600181015461ffff81169484019490945291929083019062010000900460ff166003811115610f5857610f586150be565b6003811115610f6957610f696150be565b81526020016001820160039054906101000a900460ff166002811115610f9157610f916150be565b6002811115610fa257610fa26150be565b8152505081526020019060010190610eff565b50505050905060005b60076000868681518110610fd457610fd461588e565b60200260200101516001600160a01b03166001600160a01b03168152602001908152602001600020600201805490508110156110d15787600001358282815181106110215761102161588e565b60200260200101516000015114156110bf5760016007600087878151811061104b5761104b61588e565b60200260200101516001600160a01b03166001600160a01b0316815260200190815260200160002060020182815481106110875761108761588e565b906000526020600020906002020160010160036101000a81548160ff021916908360028111156110b9576110b96150be565b02179055505b806110c9816158ba565b915050610fbe565b506110f987600001358585815181106110ec576110ec61588e565b6020026020010151614963565b50508080611106906158ba565b915050610bd1565b506000600a8161112460e0880160c089016158f2565b6003811115611135576111356150be565b815260200190815260200160002060008660e001602081019061115891906158d5565b61ffff1661ffff168152602001908152602001600020805480602002602001604051908101604052809291908181526020016000905b828210156112f85760008481526020908190206040805161012081018252600586029092018054835260018101549383019390935260028301546001600160a01b0390811691830191909152600380840154918216606084015260ff600160a01b8304811615156080850152600160a81b83048116151560a085015292939260c0850192600160b01b9004169081111561122a5761122a6150be565b600381111561123b5761123b6150be565b81526003820154600160b81b900461ffff1660208201526004820180546040909201916112679061592a565b80601f01602080910402602001604051908101604052809291908181526020018280546112939061592a565b80156112e05780601f106112b5576101008083540402835291602001916112e0565b820191906000526020600020905b8154815290600101906020018083116112c357829003601f168201915b5050505050815250508152602001906001019061118e565b50505050905060005b81518110156113df5785600001358282815181106113215761132161588e565b60200260200101516000015114156113cd576001600a600061134960e08a0160c08b016158f2565b600381111561135a5761135a6150be565b815260200190815260200160002060008860e001602081019061137d91906158d5565b61ffff1661ffff16815260200190815260200160002082815481106113a4576113a461588e565b906000526020600020906005020160030160156101000a81548160ff0219169083151502179055505b806113d7816158ba565b915050611301565b5060016040805164ffffffffff421681526000602082015233918835917ffcb91fd98787d64bdba700bb305716e8b6cebeef9927c71b19ed9b0ab1b892b0910160405180910390a45050505050565b61143661482b565b600155565b61144361482b565b600255565b6114506148a7565b6001600160a01b03851661148a5760405162461bcd60e51b81526020600482015260016024820152600760fb1b60448201526064016104f9565b600654600160d81b900460ff16156114d2573460015411156114d25760405162461bcd60e51b81526020600482015260016024820152603560f81b60448201526064016104f9565b6114db85614874565b61150b5760405162461bcd60e51b81526020600482015260016024820152603960f81b60448201526064016104f9565b60208311156115415760405162461bcd60e51b8152602060048201526002602482015261323560f01b60448201526064016104f9565b6000826003811115611555576115556150be565b14156115a5578061ffff166000108015611574575060078161ffff1611155b6115a55760405162461bcd60e51b8152602060048201526002602482015261191b60f11b60448201526064016104f9565b60018260038111156115b9576115b96150be565b1415611609578061ffff1660001080156115d85750601c8161ffff1611155b6116095760405162461bcd60e51b8152602060048201526002602482015261323760f01b60448201526064016104f9565b600282600381111561161d5761161d6150be565b141561166d578061ffff16600010801561163c5750605a8161ffff1611155b61166d5760405162461bcd60e51b8152602060048201526002602482015261064760f31b60448201526064016104f9565b6003826003811115611681576116816150be565b14156116d2578061ffff1660001080156116a1575061016d8161ffff1611155b6116d25760405162461bcd60e51b8152602060048201526002602482015261323960f01b60448201526064016104f9565b6001600160a01b0385166000908152600560205260409020600101548610156117225760405162461bcd60e51b8152602060048201526002602482015261033360f41b60448201526064016104f9565b6000611769878787878080601f016020809104026020016040519081016040528093929190818152602001838380828437600092019190915250899250889150614ab49050565b905080600a6000856003811115611782576117826150be565b81526020808201929092526040908101600090812061ffff87168252835281812080546001818101835591835291849020855160059093020191825592840151928101929092558201516002820180546001600160a01b039283166001600160a01b0319909116179055606083015160038084018054608087015160a08801511515600160a81b0260ff60a81b19911515600160a01b0274ffffffffffffffffffffffffffffffffffffffffff199093169590961694909417179283168417815560c086015193909260ff60b01b1990911661ffff60a81b199091161790600160b01b908490811115611877576118776150be565b021790555060e082015160038201805461ffff909216600160b81b0261ffff60b81b1990921691909117905561010082015180516118bf916004840191602090910190614fdc565b5090505061190f6040518060800160405280836000015181526020018360e0015161ffff1681526020018360c0015160038111156118ff576118ff6150be565b8152602001600090526001614ba2565b600081516040805164ffffffffff42168152600060208201523392917ffcb91fd98787d64bdba700bb305716e8b6cebeef9927c71b19ed9b0ab1b892b0910160405180910390a450505050505050565b6060808215611a565733600090815260076020908152604080832060020180548251818502810185019093528083529193909284015b82821015611a4b576000848152602090819020604080516080810182526002860290920180548352600181015461ffff81169484019490945291929083019062010000900460ff1660038111156119ee576119ee6150be565b60038111156119ff576119ff6150be565b81526020016001820160039054906101000a900460ff166002811115611a2757611a276150be565b6002811115611a3857611a386150be565b8152505081526020019060010190611995565b505050509050611b40565b33600090815260076020908152604080832060030180548251818502810185019093528083529193909284015b82821015611b39576000848152602090819020604080516080810182526002860290920180548352600181015461ffff81169484019490945291929083019062010000900460ff166003811115611adc57611adc6150be565b6003811115611aed57611aed6150be565b81526020016001820160039054906101000a900460ff166002811115611b1557611b156150be565b6002811115611b2657611b266150be565b8152505081526020019060010190611a83565b5050505090505b6000815167ffffffffffffffff811115611b5c57611b5c6155ab565b604051908082528060200260200182016040528015611bf757816020015b611be4604080516101808101909152600060608083018281526080840183905260a0840183905260c0840183905260e08401839052610100840183905261012084018390526101408401929092526101608301528190815260200160008152602001600081525090565b815260200190600190039081611b7a5790505b50905060005b8251811015611d5857611c68838281518110611c1b57611c1b61588e565b602002602001015160000151848381518110611c3957611c3961588e565b602002602001015160400151858481518110611c5757611c5761588e565b602002602001015160200151614d55565b828281518110611c7a57611c7a61588e565b602002602001015160000181905250828181518110611c9b57611c9b61588e565b602002602001015160600151828281518110611cb957611cb961588e565b6020026020010151602001906002811115611cd657611cd66150be565b90816002811115611ce957611ce96150be565b81525050600b6000838381518110611d0357611d0361588e565b60200260200101516000015160000151815260200190815260200160002080549050828281518110611d3757611d3761588e565b60209081029190910101516040015280611d50816158ba565b915050611bfd565b509392505050565b600654600160d01b900460ff16611d7957611d7961482b565b600654600160d81b900460ff1615611dc157346001541115611dc15760405162461bcd60e51b81526020600482015260016024820152603560f81b60448201526064016104f9565b6040516358a6076b60e11b815264ffffffffff4216600482015260009073__$cc6b0ba9819abe3367bde24a3a29d779d3$__9063b14c0ed69060240160206040518083038186803b158015611e1557600080fd5b505af4158015611e29573d6000803e3d6000fd5b505050506040513d601f19601f82011682018060405250810190611e4d9190615965565b60065490915064ffffffffff61010090910481169082161015611e975760405162461bcd60e51b81526020600482015260026024820152610c4d60f21b60448201526064016104f9565b60408051608081018252600080825260208201819052918101829052606081019190915260019060065464ffffffffff8481166101009092041614611f8a5760065473__$cc6b0ba9819abe3367bde24a3a29d779d3$__906353a6d6e290611f0e90610100900464ffffffffff166201518061598c565b6040516001600160e01b031960e084901b16815264ffffffffff909116600482015260240160806040518083038186803b158015611f4b57600080fd5b505af4158015611f5f573d6000803e3d6000fd5b505050506040513d601f19601f82011682018060405250810190611f8391906159b9565b905061200f565b6040516329d36b7160e11b815242600482015273__$cc6b0ba9819abe3367bde24a3a29d779d3$__906353a6d6e29060240160806040518083038186803b158015611fd457600080fd5b505af4158015611fe8573d6000803e3d6000fd5b505050506040513d601f19601f8201168201806040525081019061200c91906159b9565b90505b6000805b60038111612c4c57600081612029575060208301515b6001821415612036575082515b6002821415612046575060408301515b6003821415612056575060608301515b6000828152600a6020908152604080832061ffff85168452909152812054905b81811015612c36576000848152600a6020908152604080832061ffff871684529091528120805491985090829081106120b1576120b161588e565b906000526020600020906005020160030160159054906101000a900460ff16612c24576000848152600a6020908152604080832061ffff8716845290915281208054839081106121035761210361588e565b60009182526020808320600590920290910154878352600a8252604080842061ffff89168552909252908220805491935090849081106121455761214561588e565b6000918252602080832060036005909302019190910154888352600a8252604080842061ffff8a16855290925290822080546001600160a01b03909216935090859081106121955761219561588e565b6000918252602080832060016005909302019190910154898352600a8252604080842061ffff8b168552909252908220805491935090869081106121db576121db61588e565b6000918252602082206002600590920201015481546001600160a01b03909116925083906127109061220d9083615a3e565b6122179190615a5d565b6122219190615a7f565b6000868152600b60205260408120549192509081811561224957612246600183615a7f565b90505b60005b82811015612c1a576002548e141561239f576040805180820182528a815260200182905260038a905560048281556006805460ff19169055905163a9059cbb60e01b81523391810191909152602481018590526001600160a01b0389169063a9059cbb90604401602060405180830381600087803b1580156122cd57600080fd5b505af11580156122e1573d6000803e3d6000fd5b505050506040513d601f19601f82011682018060405250810190612305919061590d565b6123365760405162461bcd60e51b8152602060048201526002602482015261191960f11b60448201526064016104f9565b6006546040805164ffffffffff428116825261010090930492909216602083015260009082015233907f90192d7875364a53e351ae63fd2dfef8dc941735b29fb0c504d06a0e21ae602e9060600160405180910390a25050505050505050505050505050505050565b600354891480156123b1575060045481145b156123c4576006805460ff191660011790555b60035415806123da575060065460ff1615156001145b15612c08576000898152600b602052604081208054839081106123ff576123ff61588e565b600091825260209091200154604051636eb1769f60e11b81526001600160a01b0391821660048201819052306024830152925089918b169063dd62ed3e90604401602060405180830381600087803b15801561245a57600080fd5b505af115801561246e573d6000803e3d6000fd5b505050506040513d601f19601f820116820180604052508101906124929190615a96565b1015801561251b57506040516370a0823160e01b81526001600160a01b0382811660048301528991908b16906370a0823190602401602060405180830381600087803b1580156124e157600080fd5b505af11580156124f5573d6000803e3d6000fd5b505050506040513d601f19601f820116820180604052508101906125199190615a96565b115b15612938578e61252a816158ba565b9f505085600960008c81526020019081526020016000206000836001600160a01b03166001600160a01b031681526020019081526020016000205411156126d6576125758686615aaf565b60008b81526009602090815260408083206001600160a01b03861684529091528120805492975088929091906125ac908490615a7f565b90915550600090506040805164ffffffffff42168152602081018b90526001600160a01b038416918d91600080516020615b65833981519152910160405180910390a460026040805164ffffffffff42168152600060208201526001600160a01b038a16918d917ffcb91fd98787d64bdba700bb305716e8b6cebeef9927c71b19ed9b0ab1b892b0910160405180910390a46040516323b872dd60e01b81526001600160a01b0382811660048301528881166024830152604482018a90528a16906323b872dd90606401602060405180830381600087803b15801561269057600080fd5b505af11580156126a4573d6000803e3d6000fd5b505050506040513d601f19601f820116820180604052508101906126c8919061590d565b6126d157600080fd5b612b41565b60008a81526009602090815260408083206001600160a01b03851684529091529020546127039086615aaf565b60008b81526009602090815260408083206001600160a01b0386168452909152812055945060046040805164ffffffffff42168152602081018b90526001600160a01b038416918d91600080516020615b65833981519152910160405180910390a460008890506000600190508f6002141561278f57612784600383615a5d565b9150600290506127aa565b8f600314156127aa576127a3600c83615a5d565b9150600b90505b60008c81526009602090815260408083206001600160a01b0387168452909152812080548492906127dc908490615aaf565b90915550506040516323b872dd60e01b81526001600160a01b038481166004830152306024830152604482018490528c16906323b872dd90606401602060405180830381600087803b15801561283157600080fd5b505af1158015612845573d6000803e3d6000fd5b505050506040513d601f19601f82011682018060405250810190612869919061590d565b61287257600080fd5b8f6002148061288157508f6003145b15612931576001600160a01b038b166323b872dd848b6128a18587615a3e565b6040516001600160e01b031960e086901b1681526001600160a01b0393841660048201529290911660248301526044820152606401602060405180830381600087803b1580156128f057600080fd5b505af1158015612904573d6000803e3d6000fd5b505050506040513d601f19601f82011682018060405250810190612928919061590d565b61293157600080fd5b5050612b41565b8e612942816158ba565b9f505085600960008c81526020019081526020016000206000836001600160a01b03166001600160a01b03168152602001908152602001600020541115612a6d5761298d8686615aaf565b60008b81526009602090815260408083206001600160a01b0386168452909152812054919650906129bf908890615a7f565b60008c81526009602090815260408083206001600160a01b038781168552925280832092909255905163a9059cbb60e01b81528a82166004820152602481018390529192508b169063a9059cbb90604401602060405180830381600087803b158015612a2a57600080fd5b505af1158015612a3e573d6000803e3d6000fd5b505050506040513d601f19601f82011682018060405250810190612a62919061590d565b612a6b57600080fd5b505b612a778a82614963565b60016040805164ffffffffff42168152602081018b90526001600160a01b038416918d91600080516020615b65833981519152910160405180910390a460036040805164ffffffffff42168152602081018b90526001600160a01b038416918d91600080516020615b65833981519152910160405180910390a460036040805164ffffffffff42168152600060208201526001600160a01b038a16918d917ffcb91fd98787d64bdba700bb305716e8b6cebeef9927c71b19ed9b0ab1b892b0910160405180910390a45b8282148015612b505750600084115b15612c065760405163a9059cbb60e01b8152336004820152602481018690526001600160a01b038a169063a9059cbb90604401602060405180830381600087803b158015612b9d57600080fd5b505af1158015612bb1573d6000803e3d6000fd5b505050506040513d601f19601f82011682018060405250810190612bd5919061590d565b612c065760405162461bcd60e51b8152602060048201526002602482015261191960f11b60448201526064016104f9565b505b80612c12816158ba565b91505061224c565b5050505050505050505b80612c2e816158ba565b915050612076565b5050508080612c44906158ba565b915050612013565b50600060038190556004556006805460ff1916908190556040805164ffffffffff4281168252610100909304909216602083015260019082015233907f90192d7875364a53e351ae63fd2dfef8dc941735b29fb0c504d06a0e21ae602e9060600160405180910390a26001600660018282829054906101000a900464ffffffffff16612cd89190615ac7565b92506101000a81548164ffffffffff021916908364ffffffffff1602179055508215612d0657612d06611d60565b50505050565b6000818152600b60205260408120546060919067ffffffffffffffff811115612d3757612d376155ab565b604051908082528060200260200182016040528015612d60578160200160208202803683370190505b506000848152600b60209081526040918290208054835181840281018401909452808452939450919290830182828015612dc357602002820191906000526020600020905b81546001600160a01b03168152600190910190602001808311612da5575b5050506000868152600b60205260408120549394509291505067ffffffffffffffff811115612df457612df46155ab565b604051908082528060200260200182016040528015612e3957816020015b6040805180820190915260008082526020820152815260200190600190039081612e125790505b50905060005b8251811015611d5857600085815260096020526040812084518290869085908110612e6c57612e6c61588e565b60200260200101516001600160a01b03166001600160a01b0316815260200190815260200160002054905060006040518060400160405280868581518110612eb657612eb661588e565b60200260200101516001600160a01b0316815260200183815250905080848481518110612ee557612ee561588e565b602002602001018190525050508080612efd906158ba565b915050612e3f565b612f0d61482b565b600055565b612f1a61482b565b336001600160a01b038216148015612f3a57506001600160a01b03811615155b612f4357600080fd5b600680546001600160a01b039092166601000000000000027fffffffffffff0000000000000000000000000000000000000000ffffffffffff909216919091179055565b612f8f61482b565b60068054911515600160d81b0260ff60d81b19909216919091179055565b612fb56148a7565b33600090815260076020908152604080832060030180548251818502810185019093528083529192909190849084015b8282101561309b576000848152602090819020604080516080810182526002860290920180548352600181015461ffff81169484019490945291929083019062010000900460ff16600381111561303e5761303e6150be565b600381111561304f5761304f6150be565b81526020016001820160039054906101000a900460ff166002811115613077576130776150be565b6002811115613088576130886150be565b8152505081526020019060010190612fe5565b5050505090506000805b82518110156130ee5784600001518382815181106130c5576130c561588e565b60200260200101516000015114156130dc57600191505b806130e6816158ba565b9150506130a5565b50806131215760405162461bcd60e51b8152602060048201526002602482015261062760f31b60448201526064016104f9565b83516000908152600b602090815260408083208054825181850281018501909352808352919290919083018282801561318357602002820191906000526020600020905b81546001600160a01b03168152600190910190602001808311613165575b505050505090506000805b825181101561324757856001600160a01b03168382815181106131b3576131b361588e565b60200260200101516001600160a01b03161415613235576001600160a01b03861660009081526007602052604090206002908101805460019450839081106131fd576131fd61588e565b906000526020600020906002020160010160036101000a81548160ff0219169083600281111561322f5761322f6150be565b02179055505b8061323f816158ba565b91505061318e565b508061327a5760405162461bcd60e51b8152602060048201526002602482015261313960f01b60448201526064016104f9565b85516132869086614963565b600386516020808901516040805164ffffffffff42168152928301919091526001600160a01b0389169291600080516020615b65833981519152910160405180910390a4855160009081526009602081815260408084206001600160a01b038a16808652908352818520548b518652938352818520908552909152822091909155600587516040805164ffffffffff42168152602081018590526001600160a01b038a169291600080516020615b65833981519152910160405180910390a4606087015160405163a9059cbb60e01b81526001600160a01b038881166004830152602482018490529091169063a9059cbb90604401602060405180830381600087803b15801561339557600080fd5b505af11580156133a9573d6000803e3d6000fd5b505050506040513d601f19601f820116820180604052508101906133cd919061590d565b6133fe5760405162461bcd60e51b8152602060048201526002602482015261323160f01b60448201526064016104f9565b50505050505050565b61340f6148a7565b6020810135613424608083016060840161509a565b604051636eb1769f60e11b81523360048201523060248201526001600160a01b03919091169063dd62ed3e90604401602060405180830381600087803b15801561346d57600080fd5b505af1158015613481573d6000803e3d6000fd5b505050506040513d601f19601f820116820180604052508101906134a59190615a96565b10158015613541575060208101356134c3608083016060840161509a565b6040516370a0823160e01b81523360048201526001600160a01b0391909116906370a0823190602401602060405180830381600087803b15801561350657600080fd5b505af115801561351a573d6000803e3d6000fd5b505050506040513d601f19601f8201168201806040525081019061353e9190615a96565b10155b6135725760405162461bcd60e51b8152602060048201526002602482015261032360f41b60448201526064016104f9565b613582606082016040830161509a565b6001600160a01b0316336001600160a01b031614156135c75760405162461bcd60e51b81526020600482015260016024820152600360fc1b60448201526064016104f9565b6135dd8135610923610100840160e085016158d5565b61360d5760405162461bcd60e51b81526020600482015260016024820152603760f81b60448201526064016104f9565b80356000818152600b6020908152604080832080546001810182559084529282902090920180546001600160a01b0319163317905581516080810190925291815261369f918101613665610100850160e086016158d5565b61ffff16815260200161367e60e0850160c086016158f2565b600381111561368f5761368f6150be565b8152602001600090526000614ba2565b6020810135600160026136b860e0850160c086016158f2565b60038111156136c9576136c96150be565b14156136e5576136da600383615a5d565b915060029050613720565b60036136f760e0850160c086016158f2565b6003811115613708576137086150be565b141561372057613719600c83615a5d565b9150600b90505b823560009081526009602090815260408083203384529091528120805484929061374b908490615aaf565b90915550600290506040805164ffffffffff42168152602080870135908201523391863591600080516020615b65833981519152910160405180910390a460046040805164ffffffffff42168152602080870135908201523391863591600080516020615b65833981519152910160405180910390a46137d1608084016060850161509a565b6040516323b872dd60e01b8152336004820152306024820152604481018490526001600160a01b0391909116906323b872dd90606401602060405180830381600087803b15801561382157600080fd5b505af1158015613835573d6000803e3d6000fd5b505050506040513d601f19601f82011682018060405250810190613859919061590d565b61386257600080fd5b600261387460e0850160c086016158f2565b6003811115613885576138856150be565b14806138b15750600361389e60e0850160c086016158f2565b60038111156138af576138af6150be565b145b1561397f576138c6608084016060850161509a565b6001600160a01b03166323b872dd336138e5606087016040880161509a565b6138ef8587615a3e565b6040516001600160e01b031960e086901b1681526001600160a01b0393841660048201529290911660248301526044820152606401602060405180830381600087803b15801561393e57600080fd5b505af1158015613952573d6000803e3d6000fd5b505050506040513d601f19601f82011682018060405250810190613976919061590d565b61397f57600080fd5b505050565b606061398e61482b565b60608315613a8d576001600160a01b038316600090815260076020908152604080832060020180548251818502810185019093528083529193909284015b82821015613a82576000848152602090819020604080516080810182526002860290920180548352600181015461ffff81169484019490945291929083019062010000900460ff166003811115613a2557613a256150be565b6003811115613a3657613a366150be565b81526020016001820160039054906101000a900460ff166002811115613a5e57613a5e6150be565b6002811115613a6f57613a6f6150be565b81525050815260200190600101906139cc565b505050509050613b80565b6001600160a01b038316600090815260076020908152604080832060030180548251818502810185019093528083529193909284015b82821015613b79576000848152602090819020604080516080810182526002860290920180548352600181015461ffff81169484019490945291929083019062010000900460ff166003811115613b1c57613b1c6150be565b6003811115613b2d57613b2d6150be565b81526020016001820160039054906101000a900460ff166002811115613b5557613b556150be565b6002811115613b6657613b666150be565b8152505081526020019060010190613ac3565b5050505090505b6000815167ffffffffffffffff811115613b9c57613b9c6155ab565b604051908082528060200260200182016040528015613c3757816020015b613c24604080516101808101909152600060608083018281526080840183905260a0840183905260c0840183905260e08401839052610100840183905261012084018390526101408401929092526101608301528190815260200160008152602001600081525090565b815260200190600190039081613bba5790505b50905060005b8251811015613d4b57613c5b838281518110611c1b57611c1b61588e565b828281518110613c6d57613c6d61588e565b602002602001015160000181905250828181518110613c8e57613c8e61588e565b602002602001015160600151828281518110613cac57613cac61588e565b6020026020010151602001906002811115613cc957613cc96150be565b90816002811115613cdc57613cdc6150be565b81525050600b6000838381518110613cf657613cf661588e565b60200260200101516000015160000151815260200190815260200160002080549050828281518110613d2a57613d2a61588e565b60209081029190910101516040015280613d43816158ba565b915050613c3d565b50949350505050565b613d5c61482b565b60068054911515600160d01b0260ff60d01b19909216919091179055565b613d8261482b565b611388471115613ddb57600654660100000000000090046001600160a01b03166108fc613db161138847615a7f565b6040518115909202916000818181858888f19350505050158015613dd9573d6000803e3d6000fd5b505b565b6040516358a6076b60e11b815264ffffffffff4216600482015260609060009073__$cc6b0ba9819abe3367bde24a3a29d779d3$__9063b14c0ed69060240160206040518083038186803b158015613e3457600080fd5b505af4158015613e48573d6000803e3d6000fd5b505050506040513d601f19601f82011682018060405250810190613e6c9190615965565b60065490915064ffffffffff610100909104811690821611613eb55760405162461bcd60e51b81526020600482015260026024820152610c4d60f21b60448201526064016104f9565b6040516329d36b7160e11b815242600482015260009073__$cc6b0ba9819abe3367bde24a3a29d779d3$__906353a6d6e29060240160806040518083038186803b158015613f0257600080fd5b505af4158015613f16573d6000803e3d6000fd5b505050506040513d601f19601f82011682018060405250810190613f3a91906159b9565b9050600080600060025467ffffffffffffffff811115613f5c57613f5c6155ab565b604051908082528060200260200182016040528015613fa157816020015b6040805180820190915260008082526020820152815260200190600190039081613f7a5790505b50905060005b6003811161428457600081613fbd575060208501515b6001821415613fca575084515b6002821415613fda575060408501515b6003821415613fea575060608501515b60005b6000838152600a6020908152604080832061ffff8616845290915290205481101561426f576000838152600a6020908152604080832061ffff8616845290915290208054829081106140415761404161588e565b906000526020600020906005020160030160159054906101000a900460ff1661425d576000838152600a6020908152604080832061ffff8616845290915281208054839081106140935761409361588e565b60009182526020808320600590920290910154868352600a8252604080842061ffff88168552909252908220805491935090849081106140d5576140d561588e565b6000918252602080832060036005909302019190910154878352600a8252604080842061ffff8916855290925290822080546001600160a01b03909216935090859081106141255761412561588e565b906000526020600020906005020160010154905061415f60405180604001604052806000815260200160006001600160a01b031681525090565b600082612710600054856141739190615a3e565b61417d9190615a5d565b6141879190615a7f565b90506000805b6000878152600b6020526040902054811015614255576002548d14156141c15750989e9d5050505050505050505050505050565b60035415806141d7575060065460ff1615156001145b15614243578c6141e6816158ba565b9d506141f490508383615aaf565b91506040518060400160405280838152602001876001600160a01b03168152509350838b8d815181106142295761422961588e565b60200260200101819052508b8061423f906158ba565b9c50505b8061424d816158ba565b91505061418d565b505050505050505b80614267816158ba565b915050613fed565b5050808061427c906158ba565b915050613fa7565b506000805b82518110156142e45760006001600160a01b03168382815181106142af576142af61588e565b6020026020010151602001516001600160a01b031614156142d2578091506142e4565b806142dc816158ba565b915050614289565b5060008167ffffffffffffffff811115614300576143006155ab565b60405190808252806020026020018201604052801561434557816020015b604080518082019091526000808252602082015281526020019060019003908161431e5790505b50905060005b8281101561439d578381815181106143655761436561588e565b602002602001015182828151811061437f5761437f61588e565b60200260200101819052508080614395906158ba565b91505061434b565b50979650505050505050565b6143b161482b565b6001600160a01b0382166143c457600080fd5b6143cd82614874565b156143fe5760405162461bcd60e51b81526020600482015260016024820152603160f81b60448201526064016104f9565b604080516060810182526001600160a01b03938416808252602080830194855260018385018181526000938452600590925293909120915182546001600160a01b031916951694909417815591519082015590516002909101805460ff1916911515919091179055565b6144706148a7565b3360009081526007602052604081206002015467ffffffffffffffff81111561449b5761449b6155ab565b6040519080825280602002602001820160405280156144f657816020015b6144e360408051608081018252600080825260208201819052909182019081526020016000905290565b8152602001906001900390816144b95790505b50336000908152600760209081526040808320600201805482518185028101850190935280835294955090939092909184015b828210156145df576000848152602090819020604080516080810182526002860290920180548352600181015461ffff81169484019490945291929083019062010000900460ff166003811115614582576145826150be565b6003811115614593576145936150be565b81526020016001820160039054906101000a900460ff1660028111156145bb576145bb6150be565b60028111156145cc576145cc6150be565b8152505081526020019060010190614529565b5050336000908152600760205260408120600201549394509150505b8181101561469c57836000015183828151811061461a5761461a61588e565b602002602001015160000151141561468a5733600090815260076020526040902060029081018054839081106146525761465261588e565b906000526020600020906002020160010160036101000a81548160ff02191690836002811115614684576146846150be565b02179055505b80614694816158ba565b9150506145fb565b5082516146a99033614963565b600383516020808601516040805164ffffffffff4216815292830191909152339291600080516020615b65833981519152910160405180910390a48251600090815260096020818152604080842033808652908352818520548851865293835281852090855290915282209190915560046040808601518651825164ffffffffff42168152602081018690526001600160a01b039092169290917ffcb91fd98787d64bdba700bb305716e8b6cebeef9927c71b19ed9b0ab1b892b0910160405180910390a46060840151604080860151905163a9059cbb60e01b81526001600160a01b0391821660048201526024810184905291169063a9059cbb90604401602060405180830381600087803b1580156147c257600080fd5b505af11580156147d6573d6000803e3d6000fd5b505050506040513d601f19601f820116820180604052508101906147fa919061590d565b612d065760405162461bcd60e51b8152602060048201526002602482015261323160f01b60448201526064016104f9565b600654660100000000000090046001600160a01b03163314613ddb5760405162461bcd60e51b8152602060048201526002602482015261189b60f11b60448201526064016104f9565b6001600160a01b03811660009081526005602052604081206002015460ff1661489e5760006148a1565b60015b92915050565b33613ddb5760405162461bcd60e51b81526020600482015260016024820152603360f81b60448201526064016104f9565b60008060405180608001604052808781526020018661ffff168152602001856003811115614908576149086150be565b815260200184600281111561491f5761491f6150be565b8152509050600061493d826000015183604001518460200151614d55565b90508060800151156149545760019250505061495b565b6000925050505b949350505050565b6000828152600b602052604081208054909190815b818110156149fc57846001600160a01b031684828154811061499c5761499c61588e565b6000918252602090912001546001600160a01b031614156149ea578092508381815481106149cc576149cc61588e565b600091825260209091200180546001600160a01b03191690556149fc565b806149f4816158ba565b915050614978565b5082548390614a0d90600190615a7f565b81548110614a1d57614a1d61588e565b9060005260206000200160009054906101000a90046001600160a01b0316838381548110614a4d57614a4d61588e565b9060005260206000200160006101000a8154816001600160a01b0302191690836001600160a01b0316021790555082805480614a8b57614a8b615af0565b600082815260209020810160001990810180546001600160a01b03191690550190555050505050565b614b036040805161012081018252600080825260208201819052918101829052606081018290526080810182905260a081018290529060c0820190815260006020820152606060409091015290565b60003386848742604051602001614b1e959493929190615b06565b60408051601f198184030181528282528051602091820120610120840183528084529083018a905233918301919091526001600160a01b038816606083015260016080830152600060a0830152915060c08101856003811115614b8357614b836150be565b81526020018461ffff1681526020018681525091505095945050505050565b33600090815260076020526040902054600160a01b900460ff16614c2c5733600081815260076020526040812080546001600160a01b03199081168417825560088054600181019091557ff3f7a9fe364faab93b216da50a3214154f22a0a2b415b23a84c8169e8b636ee301805490911684179055919052805460ff60a01b1916600160a01b1790555b8015614ce257336000908152600760209081526040808320600390810180546001808201835591865294849020875160029096020194855592860151928401805461ffff19811661ffff9095169485178255928701518795949093919262ffffff19909216179062010000908490811115614ca957614ca96150be565b0217905550606082015160018201805463ff00000019166301000000836002811115614cd757614cd76150be565b021790555050505050565b33600090815260076020908152604080832060029081018054600180820183559186529484902087519590920290910193845591850151918301805461ffff19811661ffff909416938417825591860151869493909262ffffff19161762010000836003811115614ca957614ca96150be565b614da46040805161012081018252600080825260208201819052918101829052606081018290526080810182905260a081018290529060c0820190815260006020820152606060409091015290565b6000600a6000856003811115614dbc57614dbc6150be565b815260200190815260200160002060008461ffff1661ffff168152602001908152602001600020805480602002602001604051908101604052809291908181526020016000905b82821015614f6d5760008481526020908190206040805161012081018252600586029092018054835260018101549383019390935260028301546001600160a01b0390811691830191909152600380840154918216606084015260ff600160a01b8304811615156080850152600160a81b83048116151560a085015292939260c0850192600160b01b90041690811115614e9f57614e9f6150be565b6003811115614eb057614eb06150be565b81526003820154600160b81b900461ffff166020820152600482018054604090920191614edc9061592a565b80601f0160208091040260200160405190810160405280929190818152602001828054614f089061592a565b8015614f555780601f10614f2a57610100808354040283529160200191614f55565b820191906000526020600020905b815481529060010190602001808311614f3857829003601f168201915b50505050508152505081526020019060010190614e03565b50505050905060005b8151811015614fd35785828281518110614f9257614f9261588e565b6020026020010151600001511415614fc157818181518110614fb657614fb661588e565b602002602001015192505b80614fcb816158ba565b915050614f76565b50509392505050565b828054614fe89061592a565b90600052602060002090601f01602090048101928261500a5760008555615050565b82601f1061502357805160ff1916838001178555615050565b82800160010185558215615050579182015b82811115615050578251825591602001919060010190615035565b5061505c929150615060565b5090565b5b8082111561505c5760008155600101615061565b6001600160a01b0381168114613dd957600080fd5b803561509581615075565b919050565b6000602082840312156150ac57600080fd5b81356150b781615075565b9392505050565b634e487b7160e01b600052602160045260246000fd5b600481106150e4576150e46150be565b9052565b600381106150e4576150e46150be565b600081518084526020808501945080840160005b838110156151625781518051885261ffff848201511684890152604080820151615138828b01826150d4565b50506060908101519061514d898201836150e8565b5050608096909601959082019060010161510c565b509495945050505050565b60006020808301818452808551808352604092508286019150828160051b8701018488016000805b8481101561525157898403603f19018652825180516001600160a01b03168552888101511515898601528781015160a0898701819052815190870181905260c08701918b019085905b8082101561520557825164ffffffffff168452928c0192918c0191600191909101906151de565b5050506060808301518783038289015261521f83826150f8565b925050506080808301519250868203818801525061523d81836150f8565b978a01979550505091870191600101615195565b50919998505050505050505050565b60006020828403121561527257600080fd5b813567ffffffffffffffff81111561528957600080fd5b820161012081850312156150b757600080fd5b6000602082840312156152ae57600080fd5b5035919050565b80356004811061509557600080fd5b61ffff81168114613dd957600080fd5b8035615095816152c4565b60008060008060008060a087890312156152f857600080fd5b86359550602087013561530a81615075565b9450604087013567ffffffffffffffff8082111561532757600080fd5b818901915089601f83011261533b57600080fd5b81358181111561534a57600080fd5b8a602082850101111561535c57600080fd5b602083019650809550505050615374606088016152b5565b91506080870135615384816152c4565b809150509295509295509295565b8015158114613dd957600080fd5b803561509581615392565b6000602082840312156153bd57600080fd5b81356150b781615392565b60005b838110156153e35781810151838201526020016153cb565b83811115612d065750506000910152565b6000815180845261540c8160208601602086016153c8565b601f01601f19169290920160200192915050565b60006020808301818452808551808352604092508286019150828160051b87010184880160005b8381101561554557603f1989840301855281516060815181865280518287015289810151608081818901528a830151915060a061548e818a01846001600160a01b03169052565b938301519360c092506154ab898401866001600160a01b03169052565b90830151935060e0906154c18983018615159052565b83015193506101006154d68982018615159052565b918301519350610120916154ec898401866150d4565b9083015161ffff166101408901529091015161016087019190915290506155176101808601826153f4565b9050888201516155298a8701826150e8565b5090870151938701939093529386019390860190600101615447565b509098975050505050505050565b602080825282518282018190526000919060409081850190868401855b8281101561559e57815180516001600160a01b03168552860151868501529284019290850190600101615570565b5091979650505050505050565b634e487b7160e01b600052604160045260246000fd5b604051610120810167ffffffffffffffff811182821017156155e5576155e56155ab565b60405290565b600082601f8301126155fc57600080fd5b813567ffffffffffffffff80821115615617576156176155ab565b604051601f8301601f19908116603f0116810190828211818310171561563f5761563f6155ab565b8160405283815286602085880101111561565857600080fd5b836020870160208301376000602085830101528094505050505092915050565b6000610120828403121561568b57600080fd5b6156936155c1565b905081358152602082013560208201526156af6040830161508a565b60408201526156c06060830161508a565b60608201526156d1608083016153a0565b60808201526156e260a083016153a0565b60a08201526156f360c083016152b5565b60c082015261570460e083016152d4565b60e08201526101008083013567ffffffffffffffff81111561572557600080fd5b615731858286016155eb565b82840152505092915050565b6000806040838503121561575057600080fd5b823567ffffffffffffffff81111561576757600080fd5b61577385828601615678565b925050602083013561578481615075565b809150509250929050565b600080604083850312156157a257600080fd5b82356157ad81615392565b9150602083013561578481615075565b602080825282518282018190526000919060409081850190868401855b8281101561559e578151805185528601516001600160a01b03168685015292840192908501906001016157da565b6000806040838503121561581b57600080fd5b82359150602083013561578481615075565b6000806040838503121561584057600080fd5b823561584b81615075565b946020939093013593505050565b60006020828403121561586b57600080fd5b813567ffffffffffffffff81111561588257600080fd5b61495b84828501615678565b634e487b7160e01b600052603260045260246000fd5b634e487b7160e01b600052601160045260246000fd5b60006000198214156158ce576158ce6158a4565b5060010190565b6000602082840312156158e757600080fd5b81356150b7816152c4565b60006020828403121561590457600080fd5b6150b7826152b5565b60006020828403121561591f57600080fd5b81516150b781615392565b600181811c9082168061593e57607f821691505b6020821081141561595f57634e487b7160e01b600052602260045260246000fd5b50919050565b60006020828403121561597757600080fd5b815164ffffffffff811681146150b757600080fd5b600064ffffffffff808316818516818304811182151516156159b0576159b06158a4565b02949350505050565b6000608082840312156159cb57600080fd5b6040516080810181811067ffffffffffffffff821117156159ee576159ee6155ab565b60405282516159fc816152c4565b81526020830151615a0c816152c4565b60208201526040830151615a1f816152c4565b60408201526060830151615a32816152c4565b60608201529392505050565b6000816000190483118215151615615a5857615a586158a4565b500290565b600082615a7a57634e487b7160e01b600052601260045260246000fd5b500490565b600082821015615a9157615a916158a4565b500390565b600060208284031215615aa857600080fd5b5051919050565b60008219821115615ac257615ac26158a4565b500190565b600064ffffffffff808316818516808303821115615ae757615ae76158a4565b01949350505050565b634e487b7160e01b600052603160045260246000fd5b60006bffffffffffffffffffffffff19808860601b168352808760601b1660148401525061ffff60f01b8560f01b1660288301528351615b4d81602a8501602088016153c8565b602a920191820192909252604a019594505050505056fefcfb8f783c54c9c729957515ad137cd8832b98c21e44fd7f481e2e7603bfdb5fa2646970667358221220fe66d3eb9a443a967e314cd1771e9d7f5349e42964d0c5db621ec4a7a672e15c64736f6c63430008090033",
  "linkReferences": {
    "contracts/ClockTowerSubscribe.sol": {
      "ClockTowerTime": [
        {
          "length": 20,
          "start": 67
        },
        {
          "length": 20,
          "start": 8039
        },
        {
          "length": 20,
          "start": 8290
        },
        {
          "length": 20,
          "start": 8486
        },
        {
          "length": 20,
          "start": 16262
        },
        {
          "length": 20,
          "start": 16468
        }
      ]
    }
  },
  "deployedLinkReferences": {
    "contracts/ClockTowerSubscribe.sol": {
      "ClockTowerTime": [
        {
          "length": 20,
          "start": 7648
        },
        {
          "length": 20,
          "start": 7899
        },
        {
          "length": 20,
          "start": 8095
        },
        {
          "length": 20,
          "start": 15871
        },
        {
          "length": 20,
          "start": 16077
        }
      ]
    }
  }
}