{
  "_format": "hh-sol-artifact-1",
  "contractName": "ClockTowerLibrary",
  "sourceName": "contracts/ClockTowerLibrary.sol",
  "abi": [
    {
      "inputs": [
        {
          "internalType": "uint256",
          "name": "unix",
          "type": "uint256"
        }
      ],
      "name": "unixToDays",
      "outputs": [
        {
          "internalType": "uint16",
          "name": "yearDays",
          "type": "uint16"
        },
        {
          "internalType": "uint16",
          "name": "day",
          "type": "uint16"
        }
      ],
      "stateMutability": "pure",
      "type": "function"
    }
  ],
  "bytecode": "0x6106e561003a600b82828239805160001a60731461002d57634e487b7160e01b600052600060045260246000fd5b30600052607381538281f3fe73000000000000000000000000000000000000000030146080604052600436106100405760003560e01c806393bc841314610045578063b56eb28214610077575b600080fd5b610058610053366004610461565b610099565b6040805161ffff93841681529290911660208301520160405180910390f35b81801561008357600080fd5b5061009761009236600461047a565b61025e565b005b600080806100aa62015180856104de565b90508060006100bc8262010bd96104f2565b6100c99062253d8c6104f2565b9050600062023ab16100dc836004610533565b6100e691906105b8565b905060046100f78262023ab1610533565b6101029060036104f2565b61010c91906105b8565b61011690836105e6565b9150600062164b096101298460016104f2565b61013590610fa0610533565b61013f91906105b8565b9050600461014f826105b5610533565b61015991906105b8565b61016390846105e6565b61016e90601f6104f2565b9250600061098f610180856050610533565b61018a91906105b8565b90506000605061019c8361098f610533565b6101a691906105b8565b6101b090866105e6565b90506101bd600b836105b8565b94506101ca85600c610533565b6101d58360026104f2565b6101df91906105e6565b915084836101ee6031876105e6565b6101f9906064610533565b61020391906104f2565b61020d91906104f2565b909750915086828282600060015b83811161024a5761022c858561039d565b6102369083610625565b9150806102428161063d565b91505061021b565b50809c505050505050505050505050915091565b6000805b825481101561039757836001600160a01b031683828154811061028757610287610658565b6000918252602090912001546001600160a01b031614156102d5578091508281815481106102b7576102b7610658565b600091825260209091200180546001600160a01b0319169055610397565b825483906102e59060019061066e565b815481106102f5576102f5610658565b9060005260206000200160009054906101000a90046001600160a01b031683838154811061032557610325610658565b9060005260206000200160006101000a8154816001600160a01b0302191690836001600160a01b031602179055508280548061036357610363610685565b600082815260209020810160001990810180546001600160a01b03191690550190558061038f8161063d565b915050610262565b50505050565b600081600114806103ae5750816003145b806103b95750816005145b806103c45750816007145b806103cf5750816008145b806103da575081600a145b806103e5575081600c145b156103f25750601f61041f565b816002146104025750601e61041f565b61040b83610425565b61041657601c610419565b601d5b60ff1690505b92915050565b600061043260048361069b565b158015610448575061044560648361069b565b15155b8061041f575061045a6101908361069b565b1592915050565b60006020828403121561047357600080fd5b5035919050565b6000806040838503121561048d57600080fd5b82356001600160a01b03811681146104a457600080fd5b946020939093013593505050565b634e487b7160e01b600052601260045260246000fd5b634e487b7160e01b600052601160045260246000fd5b6000826104ed576104ed6104b2565b500490565b600080821280156001600160ff1b0384900385131615610514576105146104c8565b600160ff1b839003841281161561052d5761052d6104c8565b50500190565b60006001600160ff1b0381841382841380821686840486111615610559576105596104c8565b600160ff1b6000871282811687830589121615610578576105786104c8565b60008712925087820587128484161615610594576105946104c8565b878505871281841616156105aa576105aa6104c8565b505050929093029392505050565b6000826105c7576105c76104b2565b600160ff1b8214600019841416156105e1576105e16104c8565b500590565b60008083128015600160ff1b850184121615610604576106046104c8565b6001600160ff1b038401831381161561061f5761061f6104c8565b50500390565b60008219821115610638576106386104c8565b500190565b6000600019821415610651576106516104c8565b5060010190565b634e487b7160e01b600052603260045260246000fd5b600082821015610680576106806104c8565b500390565b634e487b7160e01b600052603160045260246000fd5b6000826106aa576106aa6104b2565b50069056fea26469706673582212208712029caeadc8aceba472672316e5943e1bfceca845475b3063078fc36177e164736f6c63430008090033",
  "linkReferences": {},
  "deployedLinkReferences": {}
}